{
  "abi": [
    {
      "inputs": [
        {
          "internalType": "address",
          "name": "_initializationContractAddress",
          "type": "address"
        },
        {
          "internalType": "bytes",
          "name": "_calldata",
          "type": "bytes"
        }
      ],
      "name": "InitializationFunctionReverted",
      "type": "error"
    },
    {
      "inputs": [
        {
          "internalType": "address",
          "name": "caller",
          "type": "address"
        }
      ],
      "name": "OZError13",
      "type": "error"
    },
    {
      "inputs": [
        {
          "internalType": "bool",
          "name": "state",
          "type": "bool"
        }
      ],
      "name": "OZError28",
      "type": "error"
    },
    {
      "inputs": [],
      "name": "OZError29",
      "type": "error"
    },
    {
      "anonymous": false,
      "inputs": [
        {
          "components": [
            {
              "internalType": "address",
              "name": "facetAddress",
              "type": "address"
            },
            {
              "internalType": "enum IDiamondCut.FacetCutAction",
              "name": "action",
              "type": "uint8"
            },
            {
              "internalType": "bytes4[]",
              "name": "functionSelectors",
              "type": "bytes4[]"
            }
          ],
          "indexed": false,
          "internalType": "struct IDiamondCut.FacetCut[]",
          "name": "_diamondCut",
          "type": "tuple[]"
        },
        {
          "indexed": false,
          "internalType": "address",
          "name": "_init",
          "type": "address"
        },
        {
          "indexed": false,
          "internalType": "bytes",
          "name": "_calldata",
          "type": "bytes"
        }
      ],
      "name": "DiamondCut",
      "type": "event"
    },
    {
      "inputs": [
        {
          "internalType": "uint16",
          "name": "newFee_",
          "type": "uint16"
        }
      ],
      "name": "changeAdminFee",
      "outputs": [],
      "stateMutability": "nonpayable",
      "type": "function"
    },
    {
      "inputs": [
        {
          "internalType": "address",
          "name": "newRecipient_",
          "type": "address"
        }
      ],
      "name": "changeAdminFeeRecipient",
      "outputs": [],
      "stateMutability": "nonpayable",
      "type": "function"
    },
    {
      "inputs": [
        {
          "internalType": "uint16",
          "name": "newBps_",
          "type": "uint16"
        }
      ],
      "name": "changeDefaultSlippage",
      "outputs": [],
      "stateMutability": "nonpayable",
      "type": "function"
    },
    {
      "inputs": [
        {
          "internalType": "uint24",
          "name": "newFee_",
          "type": "uint24"
        }
      ],
      "name": "changeProtocolFee",
      "outputs": [],
      "stateMutability": "nonpayable",
      "type": "function"
    },
    {
      "inputs": [
        {
          "internalType": "uint24",
          "name": "newBps_",
          "type": "uint24"
        }
      ],
      "name": "changeUniFee",
      "outputs": [],
      "stateMutability": "nonpayable",
      "type": "function"
    },
    {
      "inputs": [],
      "name": "claimReward",
      "outputs": [
        {
          "internalType": "uint256",
          "name": "",
          "type": "uint256"
        }
      ],
      "stateMutability": "nonpayable",
      "type": "function"
    },
    {
      "inputs": [
        {
          "components": [
            {
              "internalType": "address",
              "name": "facetAddress",
              "type": "address"
            },
            {
              "internalType": "enum IDiamondCut.FacetCutAction",
              "name": "action",
              "type": "uint8"
            },
            {
              "internalType": "bytes4[]",
              "name": "functionSelectors",
              "type": "bytes4[]"
            }
          ],
          "internalType": "struct IDiamondCut.FacetCut[]",
          "name": "_diamondCut",
          "type": "tuple[]"
        },
        {
          "internalType": "address",
          "name": "_init",
          "type": "address"
        },
        {
          "internalType": "bytes",
          "name": "_calldata",
          "type": "bytes"
        }
      ],
      "name": "diamondCut",
      "outputs": [],
      "stateMutability": "nonpayable",
      "type": "function"
    },
    {
      "inputs": [
        {
          "internalType": "address",
          "name": "user_",
          "type": "address"
        }
      ],
      "name": "earned",
      "outputs": [
        {
          "internalType": "uint256",
          "name": "",
          "type": "uint256"
        }
      ],
      "stateMutability": "view",
      "type": "function"
    },
    {
      "inputs": [],
      "name": "getRewardsData",
      "outputs": [
        {
          "internalType": "uint256",
          "name": "rewardRate",
          "type": "uint256"
        },
        {
          "internalType": "uint256",
          "name": "circulatingSupply",
          "type": "uint256"
        },
        {
          "internalType": "uint256",
          "name": "pendingAllocation",
          "type": "uint256"
        },
        {
          "internalType": "uint256",
          "name": "recicledSupply",
          "type": "uint256"
        },
        {
          "internalType": "int256",
          "name": "durationLeft",
          "type": "int256"
        }
      ],
      "stateMutability": "view",
      "type": "function"
    },
    {
      "inputs": [],
      "name": "lastTimeRewardApplicable",
      "outputs": [
        {
          "internalType": "uint256",
          "name": "",
          "type": "uint256"
        }
      ],
      "stateMutability": "view",
      "type": "function"
    },
    {
      "inputs": [
        {
          "internalType": "uint256",
          "name": "amount_",
          "type": "uint256"
        }
      ],
      "name": "notifyRewardAmount",
      "outputs": [],
      "stateMutability": "nonpayable",
      "type": "function"
    },
    {
      "inputs": [
        {
          "internalType": "uint256",
          "name": "index_",
          "type": "uint256"
        },
        {
          "internalType": "bool",
          "name": "newState_",
          "type": "bool"
        }
      ],
      "name": "pause",
      "outputs": [
        {
          "internalType": "bool",
          "name": "",
          "type": "bool"
        }
      ],
      "stateMutability": "nonpayable",
      "type": "function"
    },
    {
      "inputs": [],
      "name": "rewardPerToken",
      "outputs": [
        {
          "internalType": "uint256",
          "name": "",
          "type": "uint256"
        }
      ],
      "stateMutability": "view",
      "type": "function"
    },
    {
      "inputs": [
        {
          "internalType": "uint256",
          "name": "duration_",
          "type": "uint256"
        }
      ],
      "name": "setRewardsDuration",
      "outputs": [],
      "stateMutability": "nonpayable",
      "type": "function"
    },
    {
      "inputs": [
        {
          "internalType": "address",
          "name": "ozlProxy_",
          "type": "address"
        }
      ],
      "name": "storeOZL",
      "outputs": [],
      "stateMutability": "nonpayable",
      "type": "function"
    }
  ],
  "bytecode": {
    "object": "0x608060405234801561001057600080fd5b5061187d806100206000396000f3fe608060405234801561001057600080fd5b50600436106100f45760003560e01c806380faa57d11610097578063cc1a378f11610066578063cc1a378f1461015b578063cc9999e2146101e9578063cd3daf9d146101ac578063cffd8493146101fc57600080fd5b806380faa57d146101ac57806393578b04146101b3578063997d37b1146101d6578063b88a802f146101ac57600080fd5b80633bba4b35116100d35780633bba4b35146101485780633c6b16ab1461015b5780635acb2ecb1461016c5780637d098e641461017f57600080fd5b80628cc262146100f95780631f931c1c146101205780632bc8a42d14610135575b600080fd5b61010d610107366004611163565b50600090565b6040519081526020015b60405180910390f35b61013361012e3660046111ce565b61020f565b005b610133610143366004611280565b610268565b610133610156366004611163565b610292565b6101336101693660046112a4565b50565b61013361017a3660046112bd565b6102e1565b6040805160008082526020820181905291810182905260608101829052608081019190915260a001610117565b600061010d565b6101c66101c13660046112e2565b610303565b6040519015158152602001610117565b6101336101e43660046112bd565b6103eb565b6101336101f7366004611280565b61041d565b61013361020a366004611163565b610447565b610217610496565b61026161022485876113ab565b8484848080601f01602080910402602001604051908101604052809392919081815260200183838082843760009201919091525061050d92505050565b5050505050565b610270610496565b6007805461ffff909216600160a01b0261ffff60a01b19909216919091179055565b61029a610496565b601380546001600160a01b039092166901000000000000000000027fffffff0000000000000000000000000000000000000000ffffffffffffffffff909216919091179055565b6102e9610496565b6013805462ffffff191662ffffff92909216919091179055565b600061030d610496565b600883901c600090815260276020526040902054821515600160ff86161b90911615150361035757604051638b834ef360e01b815282151560048201526024015b60405180910390fd5b826001036103785760405163604f135b60e11b815260040160405180910390fd5b6103846027848461071e565b60015b60285461ffff168110156103df57600881901c600090815260276020526040902054600160ff83161b16156103cd576103c3602760018061071e565b60019150506103e5565b806103d781611505565b915050610387565b50600090505b92915050565b6103f3610496565b6013805462ffffff90921666010000000000000268ffffff00000000000019909216919091179055565b610425610496565b601f805461ffff909216600160a01b0261ffff60a01b19909216919091179055565b601f546001600160a01b031633146104745760405163a43f931360e01b815233600482015260240161034e565b601f80546001600160a01b0319166001600160a01b0392909216919091179055565b6000805160206117dc833981519152600401546001600160a01b0316331461050b5760405162461bcd60e51b815260206004820152602260248201527f4c69624469616d6f6e643a204d75737420626520636f6e7472616374206f776e60448201526132b960f11b606482015260840161034e565b565b60005b83518110156106d357600084828151811061052d5761052d61151e565b60200260200101516020015190506000600281111561054e5761054e611534565b81600281111561056057610560611534565b036105ae576105a985838151811061057a5761057a61151e565b6020026020010151600001518684815181106105985761059861151e565b60200260200101516040015161076d565b6106c0565b60018160028111156105c2576105c2611534565b0361060b576105a98583815181106105dc576105dc61151e565b6020026020010151600001518684815181106105fa576105fa61151e565b6020026020010151604001516108e5565b600281600281111561061f5761061f611534565b03610668576105a98583815181106106395761063961151e565b6020026020010151600001518684815181106106575761065761151e565b602002602001015160400151610a75565b60405162461bcd60e51b815260206004820152602760248201527f4c69624469616d6f6e644375743a20496e636f727265637420466163657443756044820152663a20b1ba34b7b760c91b606482015260840161034e565b50806106cb81611505565b915050610510565b507f8faa70878671ccd212d20771b795c50af8fd3ff6cf27f4bde57e5d4de0aeb6738383836040516107079392919061159a565b60405180910390a16107198282610b93565b505050565b801561074857600882901c60009081526020849052604090208054600160ff85161b179055505050565b600882901c60009081526020849052604090208054600160ff85161b19169055505050565b600081511161078e5760405162461bcd60e51b815260040161034e9061169a565b6000805160206117dc8339815191526001600160a01b0383166107c35760405162461bcd60e51b815260040161034e906116e5565b6001600160a01b0383166000908152600182016020526040812054906001600160601b03821690036107f9576107f98285610c59565b60005b83518110156102615760008482815181106108195761081961151e565b6020908102919091018101516001600160e01b031981166000908152918690526040909120549091506001600160a01b031680156108b75760405162461bcd60e51b815260206004820152603560248201527f4c69624469616d6f6e644375743a2043616e2774206164642066756e6374696f6044820152746e207468617420616c72656164792065786973747360581b606482015260840161034e565b6108c38583868a610cc3565b836108cd81611731565b945050505080806108dd90611505565b9150506107fc565b60008151116109065760405162461bcd60e51b815260040161034e9061169a565b6000805160206117dc8339815191526001600160a01b03831661093b5760405162461bcd60e51b815260040161034e906116e5565b6001600160a01b0383166000908152600182016020526040812054906001600160601b0382169003610971576109718285610c59565b60005b83518110156102615760008482815181106109915761099161151e565b6020908102919091018101516001600160e01b031981166000908152918690526040909120549091506001600160a01b039081169087168103610a3c5760405162461bcd60e51b815260206004820152603860248201527f4c69624469616d6f6e644375743a2043616e2774207265706c6163652066756e60448201527f6374696f6e20776974682073616d652066756e6374696f6e0000000000000000606482015260840161034e565b610a47858284610d63565b610a538583868a610cc3565b83610a5d81611731565b94505050508080610a6d90611505565b915050610974565b6000815111610a965760405162461bcd60e51b815260040161034e9061169a565b6000805160206117dc8339815191526001600160a01b03831615610b1b5760405162461bcd60e51b815260206004820152603660248201527f4c69624469616d6f6e644375743a2052656d6f76652066616365742061646472604482015275657373206d757374206265206164647265737328302960501b606482015260840161034e565b60005b8251811015610b8d576000838281518110610b3b57610b3b61151e565b6020908102919091018101516001600160e01b031981166000908152918590526040909120549091506001600160a01b0316610b78848284610d63565b50508080610b8590611505565b915050610b1e565b50505050565b6001600160a01b038216610ba5575050565b610bc7826040518060600160405280602881526020016117fc60289139611126565b600080836001600160a01b031683604051610be29190611757565b600060405180830381855af49150503d8060008114610c1d576040519150601f19603f3d011682016040523d82523d6000602084013e610c22565b606091505b509150915081610b8d57805115610c3c5780518082602001fd5b838360405163192105d760e01b815260040161034e929190611773565b610c7b8160405180606001604052806024815260200161182460249139611126565b6002820180546001600160a01b0390921660008181526001948501602090815260408220860185905594840183559182529290200180546001600160a01b0319169091179055565b6001600160e01b0319831660008181526020868152604080832080546001600160601b03909716600160a01b026001600160a01b0397881617815594909516808352600180890183529583208054968701815583528183206008870401805460e09890981c60046007909816979097026101000a96870263ffffffff9097021990971695909517909555529290915281546001600160a01b031916179055565b6001600160a01b038216610ddf5760405162461bcd60e51b815260206004820152603760248201527f4c69624469616d6f6e644375743a2043616e27742072656d6f76652066756e6360448201527f74696f6e207468617420646f65736e2774206578697374000000000000000000606482015260840161034e565b306001600160a01b03831603610e4e5760405162461bcd60e51b815260206004820152602e60248201527f4c69624469616d6f6e644375743a2043616e27742072656d6f766520696d6d7560448201526d3a30b1363290333ab731ba34b7b760911b606482015260840161034e565b6001600160e01b03198116600090815260208481526040808320546001600160a01b0386168452600180880190935290832054600160a01b9091046001600160601b03169291610e9d9161179f565b9050808214610f8f576001600160a01b03841660009081526001860160205260408120805483908110610ed257610ed261151e565b600091825260208083206008830401546001600160a01b038916845260018a019091526040909220805460079092166004026101000a90920460e01b925082919085908110610f2357610f2361151e565b600091825260208083206008830401805463ffffffff60079094166004026101000a938402191660e09590951c929092029390931790556001600160e01b03199290921682528690526040902080546001600160a01b0316600160a01b6001600160601b038516021790555b6001600160a01b03841660009081526001860160205260409020805480610fb857610fb86117b2565b60008281526020808220600860001990940193840401805463ffffffff600460078716026101000a0219169055919092556001600160e01b0319851682528690526040812081905581900361026157600285015460009061101b9060019061179f565b6001600160a01b03861660009081526001808901602052604090912001549091508082146110ca57600087600201838154811061105a5761105a61151e565b6000918252602090912001546002890180546001600160a01b03909216925082918490811061108b5761108b61151e565b600091825260208083209190910180546001600160a01b0319166001600160a01b03948516179055929091168152600189810190925260409020018190555b866002018054806110dd576110dd6117b2565b60008281526020808220830160001990810180546001600160a01b03191690559092019092556001600160a01b0388168252600189810190915260408220015550505050505050565b813b8181610b8d5760405162461bcd60e51b815260040161034e91906117c8565b80356001600160a01b038116811461115e57600080fd5b919050565b60006020828403121561117557600080fd5b61117e82611147565b9392505050565b60008083601f84011261119757600080fd5b50813567ffffffffffffffff8111156111af57600080fd5b6020830191508360208285010111156111c757600080fd5b9250929050565b6000806000806000606086880312156111e657600080fd5b853567ffffffffffffffff808211156111fe57600080fd5b818801915088601f83011261121257600080fd5b81358181111561122157600080fd5b8960208260051b850101111561123657600080fd5b6020830197508096505061124c60208901611147565b9450604088013591508082111561126257600080fd5b5061126f88828901611185565b969995985093965092949392505050565b60006020828403121561129257600080fd5b813561ffff8116811461117e57600080fd5b6000602082840312156112b657600080fd5b5035919050565b6000602082840312156112cf57600080fd5b813562ffffff8116811461117e57600080fd5b600080604083850312156112f557600080fd5b823591506020830135801515811461130c57600080fd5b809150509250929050565b634e487b7160e01b600052604160045260246000fd5b6040516060810167ffffffffffffffff8111828210171561135057611350611317565b60405290565b604051601f8201601f1916810167ffffffffffffffff8111828210171561137f5761137f611317565b604052919050565b600067ffffffffffffffff8211156113a1576113a1611317565b5060051b60200190565b60006113be6113b984611387565b611356565b83815260208082019190600586811b8601368111156113dc57600080fd5b865b818110156114e257803567ffffffffffffffff808211156113ff5760008081fd5b818a019150606082360312156114155760008081fd5b61141d61132d565b61142683611147565b8152868301356003811061143a5760008081fd5b81880152604083810135838111156114525760008081fd5b939093019236601f85011261146957600092508283fd5b833592506114796113b984611387565b83815292871b840188019288810190368511156114965760008081fd5b948901945b848610156114cb5785356001600160e01b0319811681146114bc5760008081fd5b8252948901949089019061149b565b9183019190915250885250509483019483016113de565b5092979650505050505050565b634e487b7160e01b600052601160045260246000fd5b600060018201611517576115176114ef565b5060010190565b634e487b7160e01b600052603260045260246000fd5b634e487b7160e01b600052602160045260246000fd5b60005b8381101561156557818101518382015260200161154d565b50506000910152565b6000815180845261158681602086016020860161154a565b601f01601f19169290920160200192915050565b60006060808301818452808751808352608092508286019150828160051b8701016020808b0160005b8481101561166a57898403607f19018652815180516001600160a01b0316855283810151898601906003811061160957634e487b7160e01b600052602160045260246000fd5b868601526040918201519186018a905281519081905290840190600090898701905b808310156116555783516001600160e01b031916825292860192600192909201919086019061162b565b509785019795505050908201906001016115c3565b50506001600160a01b038a1690880152868103604088015261168c818961156e565b9a9950505050505050505050565b6020808252602b908201527f4c69624469616d6f6e644375743a204e6f2073656c6563746f727320696e206660408201526a1858d95d081d1bc818dd5d60aa1b606082015260800190565b6020808252602c908201527f4c69624469616d6f6e644375743a204164642066616365742063616e2774206260408201526b65206164647265737328302960a01b606082015260800190565b60006001600160601b0380831681810361174d5761174d6114ef565b6001019392505050565b6000825161176981846020870161154a565b9190910192915050565b6001600160a01b03831681526040602082018190526000906117979083018461156e565b949350505050565b818103818111156103e5576103e56114ef565b634e487b7160e01b600052603160045260246000fd5b60208152600061117e602083018461156e56fec8fcad8db84d3cc18b4c41d551ea0ee66dd599cde068d998e57d5e09332c131c4c69624469616d6f6e644375743a205f696e6974206164647265737320686173206e6f20636f64654c69624469616d6f6e644375743a204e657720666163657420686173206e6f20636f6465a26469706673582212201d50ad1e405fce6ec6006510e5eb4d520e7f9d6ad84c5462a88c079c0d09a18064736f6c63430008150033",
    "linkReferences": {}
  },
  "methodIdentifiers": {
    "changeAdminFee(uint16)": "cc9999e2",
    "changeAdminFeeRecipient(address)": "cffd8493",
    "changeDefaultSlippage(uint16)": "2bc8a42d",
    "changeProtocolFee(uint24)": "997d37b1",
    "changeUniFee(uint24)": "5acb2ecb",
    "claimReward()": "b88a802f",
    "diamondCut((address,uint8,bytes4[])[],address,bytes)": "1f931c1c",
    "earned(address)": "008cc262",
    "getRewardsData()": "7d098e64",
    "lastTimeRewardApplicable()": "80faa57d",
    "notifyRewardAmount(uint256)": "3c6b16ab",
    "pause(uint256,bool)": "93578b04",
    "rewardPerToken()": "cd3daf9d",
    "setRewardsDuration(uint256)": "cc1a378f",
    "storeOZL(address)": "3bba4b35"
  },
  "id": 14
}