{
  "abi": [
    {
      "inputs": [
        {
          "internalType": "address",
          "name": "_initializationContractAddress",
          "type": "address"
        },
        {
          "internalType": "bytes",
          "name": "_calldata",
          "type": "bytes"
        }
      ],
      "name": "InitializationFunctionReverted",
      "type": "error"
    },
    {
      "inputs": [
        {
          "internalType": "address",
          "name": "caller",
          "type": "address"
        }
      ],
      "name": "OZError13",
      "type": "error"
    },
    {
      "anonymous": false,
      "inputs": [
        {
          "components": [
            {
              "internalType": "address",
              "name": "facetAddress",
              "type": "address"
            },
            {
              "internalType": "enum IDiamondCut.FacetCutAction",
              "name": "action",
              "type": "uint8"
            },
            {
              "internalType": "bytes4[]",
              "name": "functionSelectors",
              "type": "bytes4[]"
            }
          ],
          "indexed": false,
          "internalType": "struct IDiamondCut.FacetCut[]",
          "name": "_diamondCut",
          "type": "tuple[]"
        },
        {
          "indexed": false,
          "internalType": "address",
          "name": "_init",
          "type": "address"
        },
        {
          "indexed": false,
          "internalType": "bytes",
          "name": "_calldata",
          "type": "bytes"
        }
      ],
      "name": "DiamondCut",
      "type": "event"
    },
    {
      "inputs": [
        {
          "internalType": "address",
          "name": "newRecipient_",
          "type": "address"
        }
      ],
      "name": "changeAdminFeeRecipient",
      "outputs": [],
      "stateMutability": "nonpayable",
      "type": "function"
    },
    {
      "inputs": [
        {
          "internalType": "uint16",
          "name": "newBps_",
          "type": "uint16"
        }
      ],
      "name": "changeDefaultSlippage",
      "outputs": [],
      "stateMutability": "nonpayable",
      "type": "function"
    },
    {
      "inputs": [
        {
          "internalType": "uint24",
          "name": "newBps_",
          "type": "uint24"
        }
      ],
      "name": "changeUniFee",
      "outputs": [],
      "stateMutability": "nonpayable",
      "type": "function"
    },
    {
      "inputs": [],
      "name": "claimReward",
      "outputs": [
        {
          "internalType": "uint256",
          "name": "",
          "type": "uint256"
        }
      ],
      "stateMutability": "nonpayable",
      "type": "function"
    },
    {
      "inputs": [
        {
          "components": [
            {
              "internalType": "address",
              "name": "facetAddress",
              "type": "address"
            },
            {
              "internalType": "enum IDiamondCut.FacetCutAction",
              "name": "action",
              "type": "uint8"
            },
            {
              "internalType": "bytes4[]",
              "name": "functionSelectors",
              "type": "bytes4[]"
            }
          ],
          "internalType": "struct IDiamondCut.FacetCut[]",
          "name": "_diamondCut",
          "type": "tuple[]"
        },
        {
          "internalType": "address",
          "name": "_init",
          "type": "address"
        },
        {
          "internalType": "bytes",
          "name": "_calldata",
          "type": "bytes"
        }
      ],
      "name": "diamondCut",
      "outputs": [],
      "stateMutability": "nonpayable",
      "type": "function"
    },
    {
      "inputs": [
        {
          "internalType": "address",
          "name": "user_",
          "type": "address"
        }
      ],
      "name": "earned",
      "outputs": [
        {
          "internalType": "uint256",
          "name": "",
          "type": "uint256"
        }
      ],
      "stateMutability": "view",
      "type": "function"
    },
    {
      "inputs": [],
      "name": "getRewardsData",
      "outputs": [
        {
          "internalType": "uint256",
          "name": "rewardRate",
          "type": "uint256"
        },
        {
          "internalType": "uint256",
          "name": "circulatingSupply",
          "type": "uint256"
        },
        {
          "internalType": "uint256",
          "name": "pendingAllocation",
          "type": "uint256"
        },
        {
          "internalType": "uint256",
          "name": "recicledSupply",
          "type": "uint256"
        },
        {
          "internalType": "int256",
          "name": "durationLeft",
          "type": "int256"
        }
      ],
      "stateMutability": "view",
      "type": "function"
    },
    {
      "inputs": [],
      "name": "lastTimeRewardApplicable",
      "outputs": [
        {
          "internalType": "uint256",
          "name": "",
          "type": "uint256"
        }
      ],
      "stateMutability": "view",
      "type": "function"
    },
    {
      "inputs": [
        {
          "internalType": "uint256",
          "name": "amount_",
          "type": "uint256"
        }
      ],
      "name": "notifyRewardAmount",
      "outputs": [],
      "stateMutability": "nonpayable",
      "type": "function"
    },
    {
      "inputs": [],
      "name": "rewardPerToken",
      "outputs": [
        {
          "internalType": "uint256",
          "name": "",
          "type": "uint256"
        }
      ],
      "stateMutability": "view",
      "type": "function"
    },
    {
      "inputs": [
        {
          "internalType": "uint256",
          "name": "duration_",
          "type": "uint256"
        }
      ],
      "name": "setRewardsDuration",
      "outputs": [],
      "stateMutability": "nonpayable",
      "type": "function"
    },
    {
      "inputs": [
        {
          "internalType": "address",
          "name": "ozlProxy_",
          "type": "address"
        }
      ],
      "name": "storeOZL",
      "outputs": [],
      "stateMutability": "nonpayable",
      "type": "function"
    }
  ],
  "bytecode": {
    "object": "0x608060405234801561001057600080fd5b5061161b806100206000396000f3fe608060405234801561001057600080fd5b50600436106100b35760003560e01c80637d098e64116100715780637d098e641461013e57806380faa57d1461016b578063b88a802f1461016b578063cc1a378f1461011a578063cd3daf9d1461016b578063cffd84931461017257600080fd5b80628cc262146100b85780631f931c1c146100df5780632bc8a42d146100f45780633bba4b35146101075780633c6b16ab1461011a5780635acb2ecb1461012b575b600080fd5b6100cc6100c6366004610f30565b50600090565b6040519081526020015b60405180910390f35b6100f26100ed366004610f9b565b610185565b005b6100f261010236600461104d565b6101de565b6100f2610115366004610f30565b610208565b6100f2610128366004611071565b50565b6100f261013936600461108a565b61023c565b6040805160008082526020820181905291810182905260608101829052608081019190915260a0016100d6565b60006100cc565b6100f2610180366004610f30565b61025e565b61018d6102b2565b6101d761019a8587611143565b8484848080601f01602080910402602001604051908101604052809392919081815260200183838082843760009201919091525061032992505050565b5050505050565b6101e66102b2565b6007805461ffff909216600160a01b0261ffff60a01b19909216919091179055565b6102106102b2565b601580546001600160a01b039092166301000000026301000000600160b81b0319909216919091179055565b6102446102b2565b6013805462ffffff191662ffffff92909216919091179055565b6021546001600160a01b031633146102905760405163a43f931360e01b81523360048201526024015b60405180910390fd5b602180546001600160a01b0319166001600160a01b0392909216919091179055565b60008051602061157a833981519152600401546001600160a01b031633146103275760405162461bcd60e51b815260206004820152602260248201527f4c69624469616d6f6e643a204d75737420626520636f6e7472616374206f776e60448201526132b960f11b6064820152608401610287565b565b60005b83518110156104ef57600084828151811061034957610349611287565b60200260200101516020015190506000600281111561036a5761036a61129d565b81600281111561037c5761037c61129d565b036103ca576103c585838151811061039657610396611287565b6020026020010151600001518684815181106103b4576103b4611287565b60200260200101516040015161053a565b6104dc565b60018160028111156103de576103de61129d565b03610427576103c58583815181106103f8576103f8611287565b60200260200101516000015186848151811061041657610416611287565b6020026020010151604001516106b2565b600281600281111561043b5761043b61129d565b03610484576103c585838151811061045557610455611287565b60200260200101516000015186848151811061047357610473611287565b602002602001015160400151610842565b60405162461bcd60e51b815260206004820152602760248201527f4c69624469616d6f6e644375743a20496e636f727265637420466163657443756044820152663a20b1ba34b7b760c91b6064820152608401610287565b50806104e7816112c9565b91505061032c565b507f8faa70878671ccd212d20771b795c50af8fd3ff6cf27f4bde57e5d4de0aeb67383838360405161052393929190611332565b60405180910390a16105358282610960565b505050565b600081511161055b5760405162461bcd60e51b815260040161028790611432565b60008051602061157a8339815191526001600160a01b0383166105905760405162461bcd60e51b81526004016102879061147d565b6001600160a01b0383166000908152600182016020526040812054906001600160601b03821690036105c6576105c68285610a26565b60005b83518110156101d75760008482815181106105e6576105e6611287565b6020908102919091018101516001600160e01b031981166000908152918690526040909120549091506001600160a01b031680156106845760405162461bcd60e51b815260206004820152603560248201527f4c69624469616d6f6e644375743a2043616e2774206164642066756e6374696f6044820152746e207468617420616c72656164792065786973747360581b6064820152608401610287565b6106908583868a610a90565b8361069a816114c9565b945050505080806106aa906112c9565b9150506105c9565b60008151116106d35760405162461bcd60e51b815260040161028790611432565b60008051602061157a8339815191526001600160a01b0383166107085760405162461bcd60e51b81526004016102879061147d565b6001600160a01b0383166000908152600182016020526040812054906001600160601b038216900361073e5761073e8285610a26565b60005b83518110156101d757600084828151811061075e5761075e611287565b6020908102919091018101516001600160e01b031981166000908152918690526040909120549091506001600160a01b0390811690871681036108095760405162461bcd60e51b815260206004820152603860248201527f4c69624469616d6f6e644375743a2043616e2774207265706c6163652066756e60448201527f6374696f6e20776974682073616d652066756e6374696f6e00000000000000006064820152608401610287565b610814858284610b30565b6108208583868a610a90565b8361082a816114c9565b9450505050808061083a906112c9565b915050610741565b60008151116108635760405162461bcd60e51b815260040161028790611432565b60008051602061157a8339815191526001600160a01b038316156108e85760405162461bcd60e51b815260206004820152603660248201527f4c69624469616d6f6e644375743a2052656d6f76652066616365742061646472604482015275657373206d757374206265206164647265737328302960501b6064820152608401610287565b60005b825181101561095a57600083828151811061090857610908611287565b6020908102919091018101516001600160e01b031981166000908152918590526040909120549091506001600160a01b0316610945848284610b30565b50508080610952906112c9565b9150506108eb565b50505050565b6001600160a01b038216610972575050565b6109948260405180606001604052806028815260200161159a60289139610ef3565b600080836001600160a01b0316836040516109af91906114ef565b600060405180830381855af49150503d80600081146109ea576040519150601f19603f3d011682016040523d82523d6000602084013e6109ef565b606091505b50915091508161095a57805115610a095780518082602001fd5b838360405163192105d760e01b815260040161028792919061150b565b610a48816040518060600160405280602481526020016115c260249139610ef3565b6002820180546001600160a01b0390921660008181526001948501602090815260408220860185905594840183559182529290200180546001600160a01b0319169091179055565b6001600160e01b0319831660008181526020868152604080832080546001600160601b03909716600160a01b026001600160a01b0397881617815594909516808352600180890183529583208054968701815583528183206008870401805460e09890981c60046007909816979097026101000a96870263ffffffff9097021990971695909517909555529290915281546001600160a01b031916179055565b6001600160a01b038216610bac5760405162461bcd60e51b815260206004820152603760248201527f4c69624469616d6f6e644375743a2043616e27742072656d6f76652066756e6360448201527f74696f6e207468617420646f65736e27742065786973740000000000000000006064820152608401610287565b306001600160a01b03831603610c1b5760405162461bcd60e51b815260206004820152602e60248201527f4c69624469616d6f6e644375743a2043616e27742072656d6f766520696d6d7560448201526d3a30b1363290333ab731ba34b7b760911b6064820152608401610287565b6001600160e01b03198116600090815260208481526040808320546001600160a01b0386168452600180880190935290832054600160a01b9091046001600160601b03169291610c6a91611537565b9050808214610d5c576001600160a01b03841660009081526001860160205260408120805483908110610c9f57610c9f611287565b600091825260208083206008830401546001600160a01b038916845260018a019091526040909220805460079092166004026101000a90920460e01b925082919085908110610cf057610cf0611287565b600091825260208083206008830401805463ffffffff60079094166004026101000a938402191660e09590951c929092029390931790556001600160e01b03199290921682528690526040902080546001600160a01b0316600160a01b6001600160601b038516021790555b6001600160a01b03841660009081526001860160205260409020805480610d8557610d85611550565b60008281526020808220600860001990940193840401805463ffffffff600460078716026101000a0219169055919092556001600160e01b031985168252869052604081208190558190036101d7576002850154600090610de890600190611537565b6001600160a01b0386166000908152600180890160205260409091200154909150808214610e97576000876002018381548110610e2757610e27611287565b6000918252602090912001546002890180546001600160a01b039092169250829184908110610e5857610e58611287565b600091825260208083209190910180546001600160a01b0319166001600160a01b03948516179055929091168152600189810190925260409020018190555b86600201805480610eaa57610eaa611550565b60008281526020808220830160001990810180546001600160a01b03191690559092019092556001600160a01b0388168252600189810190915260408220015550505050505050565b813b818161095a5760405162461bcd60e51b81526004016102879190611566565b80356001600160a01b0381168114610f2b57600080fd5b919050565b600060208284031215610f4257600080fd5b610f4b82610f14565b9392505050565b60008083601f840112610f6457600080fd5b50813567ffffffffffffffff811115610f7c57600080fd5b602083019150836020828501011115610f9457600080fd5b9250929050565b600080600080600060608688031215610fb357600080fd5b853567ffffffffffffffff80821115610fcb57600080fd5b818801915088601f830112610fdf57600080fd5b813581811115610fee57600080fd5b8960208260051b850101111561100357600080fd5b6020830197508096505061101960208901610f14565b9450604088013591508082111561102f57600080fd5b5061103c88828901610f52565b969995985093965092949392505050565b60006020828403121561105f57600080fd5b813561ffff81168114610f4b57600080fd5b60006020828403121561108357600080fd5b5035919050565b60006020828403121561109c57600080fd5b813562ffffff81168114610f4b57600080fd5b634e487b7160e01b600052604160045260246000fd5b6040516060810167ffffffffffffffff811182821017156110e8576110e86110af565b60405290565b604051601f8201601f1916810167ffffffffffffffff81118282101715611117576111176110af565b604052919050565b600067ffffffffffffffff821115611139576111396110af565b5060051b60200190565b60006111566111518461111f565b6110ee565b83815260208082019190600586811b86013681111561117457600080fd5b865b8181101561127a57803567ffffffffffffffff808211156111975760008081fd5b818a019150606082360312156111ad5760008081fd5b6111b56110c5565b6111be83610f14565b815286830135600381106111d25760008081fd5b81880152604083810135838111156111ea5760008081fd5b939093019236601f85011261120157600092508283fd5b833592506112116111518461111f565b83815292871b8401880192888101903685111561122e5760008081fd5b948901945b848610156112635785356001600160e01b0319811681146112545760008081fd5b82529489019490890190611233565b918301919091525088525050948301948301611176565b5092979650505050505050565b634e487b7160e01b600052603260045260246000fd5b634e487b7160e01b600052602160045260246000fd5b634e487b7160e01b600052601160045260246000fd5b6000600182016112db576112db6112b3565b5060010190565b60005b838110156112fd5781810151838201526020016112e5565b50506000910152565b6000815180845261131e8160208601602086016112e2565b601f01601f19169290920160200192915050565b60006060808301818452808751808352608092508286019150828160051b8701016020808b0160005b8481101561140257898403607f19018652815180516001600160a01b031685528381015189860190600381106113a157634e487b7160e01b600052602160045260246000fd5b868601526040918201519186018a905281519081905290840190600090898701905b808310156113ed5783516001600160e01b03191682529286019260019290920191908601906113c3565b5097850197955050509082019060010161135b565b50506001600160a01b038a169088015286810360408801526114248189611306565b9a9950505050505050505050565b6020808252602b908201527f4c69624469616d6f6e644375743a204e6f2073656c6563746f727320696e206660408201526a1858d95d081d1bc818dd5d60aa1b606082015260800190565b6020808252602c908201527f4c69624469616d6f6e644375743a204164642066616365742063616e2774206260408201526b65206164647265737328302960a01b606082015260800190565b60006001600160601b038083168181036114e5576114e56112b3565b6001019392505050565b600082516115018184602087016112e2565b9190910192915050565b6001600160a01b038316815260406020820181905260009061152f90830184611306565b949350505050565b8181038181111561154a5761154a6112b3565b92915050565b634e487b7160e01b600052603160045260246000fd5b602081526000610f4b602083018461130656fec8fcad8db84d3cc18b4c41d551ea0ee66dd599cde068d998e57d5e09332c131c4c69624469616d6f6e644375743a205f696e6974206164647265737320686173206e6f20636f64654c69624469616d6f6e644375743a204e657720666163657420686173206e6f20636f6465a2646970667358221220581d6be71cfae90c8ed228c62dcfbfa8618f216fe3fd5caa2bd363e25d7191a664736f6c63430008150033",
    "linkReferences": {}
  },
  "methodIdentifiers": {
    "changeAdminFeeRecipient(address)": "cffd8493",
    "changeDefaultSlippage(uint16)": "2bc8a42d",
    "changeUniFee(uint24)": "5acb2ecb",
    "claimReward()": "b88a802f",
    "diamondCut((address,uint8,bytes4[])[],address,bytes)": "1f931c1c",
    "earned(address)": "008cc262",
    "getRewardsData()": "7d098e64",
    "lastTimeRewardApplicable()": "80faa57d",
    "notifyRewardAmount(uint256)": "3c6b16ab",
    "rewardPerToken()": "cd3daf9d",
    "setRewardsDuration(uint256)": "cc1a378f",
    "storeOZL(address)": "3bba4b35"
  },
  "id": 14
}