{
  "abi": [
    {
      "inputs": [
        {
          "internalType": "address",
          "name": "_initializationContractAddress",
          "type": "address"
        },
        {
          "internalType": "bytes",
          "name": "_calldata",
          "type": "bytes"
        }
      ],
      "name": "InitializationFunctionReverted",
      "type": "error"
    },
    {
      "inputs": [
        {
          "internalType": "address",
          "name": "caller",
          "type": "address"
        }
      ],
      "name": "OZError13",
      "type": "error"
    },
    {
      "anonymous": false,
      "inputs": [
        {
          "components": [
            {
              "internalType": "address",
              "name": "facetAddress",
              "type": "address"
            },
            {
              "internalType": "enum IDiamondCut.FacetCutAction",
              "name": "action",
              "type": "uint8"
            },
            {
              "internalType": "bytes4[]",
              "name": "functionSelectors",
              "type": "bytes4[]"
            }
          ],
          "indexed": false,
          "internalType": "struct IDiamondCut.FacetCut[]",
          "name": "_diamondCut",
          "type": "tuple[]"
        },
        {
          "indexed": false,
          "internalType": "address",
          "name": "_init",
          "type": "address"
        },
        {
          "indexed": false,
          "internalType": "bytes",
          "name": "_calldata",
          "type": "bytes"
        }
      ],
      "name": "DiamondCut",
      "type": "event"
    },
    {
      "inputs": [
        {
          "internalType": "address",
          "name": "newRecipient_",
          "type": "address"
        }
      ],
      "name": "changeAdminFeeRecipient",
      "outputs": [],
      "stateMutability": "nonpayable",
      "type": "function"
    },
    {
      "inputs": [
        {
          "internalType": "uint16",
          "name": "newBps_",
          "type": "uint16"
        }
      ],
      "name": "changeDefaultSlippage",
      "outputs": [],
      "stateMutability": "nonpayable",
      "type": "function"
    },
    {
      "inputs": [
        {
          "internalType": "uint24",
          "name": "newBps_",
          "type": "uint24"
        }
      ],
      "name": "changeUniFee",
      "outputs": [],
      "stateMutability": "nonpayable",
      "type": "function"
    },
    {
      "inputs": [],
      "name": "claimReward",
      "outputs": [],
      "stateMutability": "nonpayable",
      "type": "function"
    },
    {
      "inputs": [
        {
          "components": [
            {
              "internalType": "address",
              "name": "facetAddress",
              "type": "address"
            },
            {
              "internalType": "enum IDiamondCut.FacetCutAction",
              "name": "action",
              "type": "uint8"
            },
            {
              "internalType": "bytes4[]",
              "name": "functionSelectors",
              "type": "bytes4[]"
            }
          ],
          "internalType": "struct IDiamondCut.FacetCut[]",
          "name": "_diamondCut",
          "type": "tuple[]"
        },
        {
          "internalType": "address",
          "name": "_init",
          "type": "address"
        },
        {
          "internalType": "bytes",
          "name": "_calldata",
          "type": "bytes"
        }
      ],
      "name": "diamondCut",
      "outputs": [],
      "stateMutability": "nonpayable",
      "type": "function"
    },
    {
      "inputs": [
        {
          "internalType": "address",
          "name": "user_",
          "type": "address"
        }
      ],
      "name": "earned",
      "outputs": [
        {
          "internalType": "uint256",
          "name": "",
          "type": "uint256"
        }
      ],
      "stateMutability": "view",
      "type": "function"
    },
    {
      "inputs": [],
      "name": "getOZLCirculatingSupply",
      "outputs": [
        {
          "internalType": "uint256",
          "name": "",
          "type": "uint256"
        }
      ],
      "stateMutability": "view",
      "type": "function"
    },
    {
      "inputs": [],
      "name": "getRewardRate",
      "outputs": [
        {
          "internalType": "uint256",
          "name": "",
          "type": "uint256"
        }
      ],
      "stateMutability": "view",
      "type": "function"
    },
    {
      "inputs": [],
      "name": "lastTimeRewardApplicable",
      "outputs": [
        {
          "internalType": "uint256",
          "name": "",
          "type": "uint256"
        }
      ],
      "stateMutability": "view",
      "type": "function"
    },
    {
      "inputs": [
        {
          "internalType": "uint256",
          "name": "amount_",
          "type": "uint256"
        }
      ],
      "name": "notifyRewardAmount",
      "outputs": [],
      "stateMutability": "nonpayable",
      "type": "function"
    },
    {
      "inputs": [],
      "name": "rewardPerToken",
      "outputs": [
        {
          "internalType": "uint256",
          "name": "",
          "type": "uint256"
        }
      ],
      "stateMutability": "view",
      "type": "function"
    },
    {
      "inputs": [
        {
          "internalType": "uint256",
          "name": "duration_",
          "type": "uint256"
        }
      ],
      "name": "setRewardsDuration",
      "outputs": [],
      "stateMutability": "nonpayable",
      "type": "function"
    },
    {
      "inputs": [
        {
          "internalType": "address",
          "name": "ozlProxy_",
          "type": "address"
        }
      ],
      "name": "storeOZL",
      "outputs": [],
      "stateMutability": "nonpayable",
      "type": "function"
    }
  ],
  "bytecode": {
    "object": "0x608060405234801561001057600080fd5b50611608806100206000396000f3fe608060405234801561001057600080fd5b50600436106100ce5760003560e01c80635acb2ecb1161008c578063b88a802f11610066578063b88a802f14610113578063cc1a378f1461013b578063cd3daf9d146100f9578063cffd84931461015f57600080fd5b80635acb2ecb1461014c5780637e1a3786146100f957806380faa57d146100f957600080fd5b80628cc262146100d35780631e4d84c6146100f95780631f931c1c146101005780632bc8a42d146101155780633bba4b35146101285780633c6b16ab1461013b575b600080fd5b6100e76100e1366004610f1d565b50600090565b60405190815260200160405180910390f35b60006100e7565b61011361010e366004610f88565b610172565b005b61011361012336600461103a565b6101cb565b610113610136366004610f1d565b6101f5565b61011361014936600461105e565b50565b61011361015a366004611077565b610229565b61011361016d366004610f1d565b61024d565b61017a6102a1565b6101c46101878587611130565b8484848080601f01602080910402602001604051908101604052809392919081815260200183838082843760009201919091525061031692505050565b5050505050565b6101d36102a1565b6007805461ffff909216600160a01b0261ffff60a01b19909216919091179055565b6101fd6102a1565b601680546001600160a01b039092166301000000026301000000600160b81b0319909216919091179055565b6102316102a1565b6014805462ffffff191662ffffff92909216919091179055565b565b6021546001600160a01b0316331461027f5760405163a43f931360e01b81523360048201526024015b60405180910390fd5b602180546001600160a01b0319166001600160a01b0392909216919091179055565b600080516020611567833981519152600401546001600160a01b0316331461024b5760405162461bcd60e51b815260206004820152602260248201527f4c69624469616d6f6e643a204d75737420626520636f6e7472616374206f776e60448201526132b960f11b6064820152608401610276565b60005b83518110156104dc57600084828151811061033657610336611274565b6020026020010151602001519050600060028111156103575761035761128a565b8160028111156103695761036961128a565b036103b7576103b285838151811061038357610383611274565b6020026020010151600001518684815181106103a1576103a1611274565b602002602001015160400151610527565b6104c9565b60018160028111156103cb576103cb61128a565b03610414576103b28583815181106103e5576103e5611274565b60200260200101516000015186848151811061040357610403611274565b60200260200101516040015161069f565b60028160028111156104285761042861128a565b03610471576103b285838151811061044257610442611274565b60200260200101516000015186848151811061046057610460611274565b60200260200101516040015161082f565b60405162461bcd60e51b815260206004820152602760248201527f4c69624469616d6f6e644375743a20496e636f727265637420466163657443756044820152663a20b1ba34b7b760c91b6064820152608401610276565b50806104d4816112b6565b915050610319565b507f8faa70878671ccd212d20771b795c50af8fd3ff6cf27f4bde57e5d4de0aeb6738383836040516105109392919061131f565b60405180910390a1610522828261094d565b505050565b60008151116105485760405162461bcd60e51b81526004016102769061141f565b6000805160206115678339815191526001600160a01b03831661057d5760405162461bcd60e51b81526004016102769061146a565b6001600160a01b0383166000908152600182016020526040812054906001600160601b03821690036105b3576105b38285610a13565b60005b83518110156101c45760008482815181106105d3576105d3611274565b6020908102919091018101516001600160e01b031981166000908152918690526040909120549091506001600160a01b031680156106715760405162461bcd60e51b815260206004820152603560248201527f4c69624469616d6f6e644375743a2043616e2774206164642066756e6374696f6044820152746e207468617420616c72656164792065786973747360581b6064820152608401610276565b61067d8583868a610a7d565b83610687816114b6565b94505050508080610697906112b6565b9150506105b6565b60008151116106c05760405162461bcd60e51b81526004016102769061141f565b6000805160206115678339815191526001600160a01b0383166106f55760405162461bcd60e51b81526004016102769061146a565b6001600160a01b0383166000908152600182016020526040812054906001600160601b038216900361072b5761072b8285610a13565b60005b83518110156101c457600084828151811061074b5761074b611274565b6020908102919091018101516001600160e01b031981166000908152918690526040909120549091506001600160a01b0390811690871681036107f65760405162461bcd60e51b815260206004820152603860248201527f4c69624469616d6f6e644375743a2043616e2774207265706c6163652066756e60448201527f6374696f6e20776974682073616d652066756e6374696f6e00000000000000006064820152608401610276565b610801858284610b1d565b61080d8583868a610a7d565b83610817816114b6565b94505050508080610827906112b6565b91505061072e565b60008151116108505760405162461bcd60e51b81526004016102769061141f565b6000805160206115678339815191526001600160a01b038316156108d55760405162461bcd60e51b815260206004820152603660248201527f4c69624469616d6f6e644375743a2052656d6f76652066616365742061646472604482015275657373206d757374206265206164647265737328302960501b6064820152608401610276565b60005b82518110156109475760008382815181106108f5576108f5611274565b6020908102919091018101516001600160e01b031981166000908152918590526040909120549091506001600160a01b0316610932848284610b1d565b5050808061093f906112b6565b9150506108d8565b50505050565b6001600160a01b03821661095f575050565b6109818260405180606001604052806028815260200161158760289139610ee0565b600080836001600160a01b03168360405161099c91906114dc565b600060405180830381855af49150503d80600081146109d7576040519150601f19603f3d011682016040523d82523d6000602084013e6109dc565b606091505b509150915081610947578051156109f65780518082602001fd5b838360405163192105d760e01b81526004016102769291906114f8565b610a35816040518060600160405280602481526020016115af60249139610ee0565b6002820180546001600160a01b0390921660008181526001948501602090815260408220860185905594840183559182529290200180546001600160a01b0319169091179055565b6001600160e01b0319831660008181526020868152604080832080546001600160601b03909716600160a01b026001600160a01b0397881617815594909516808352600180890183529583208054968701815583528183206008870401805460e09890981c60046007909816979097026101000a96870263ffffffff9097021990971695909517909555529290915281546001600160a01b031916179055565b6001600160a01b038216610b995760405162461bcd60e51b815260206004820152603760248201527f4c69624469616d6f6e644375743a2043616e27742072656d6f76652066756e6360448201527f74696f6e207468617420646f65736e27742065786973740000000000000000006064820152608401610276565b306001600160a01b03831603610c085760405162461bcd60e51b815260206004820152602e60248201527f4c69624469616d6f6e644375743a2043616e27742072656d6f766520696d6d7560448201526d3a30b1363290333ab731ba34b7b760911b6064820152608401610276565b6001600160e01b03198116600090815260208481526040808320546001600160a01b0386168452600180880190935290832054600160a01b9091046001600160601b03169291610c5791611524565b9050808214610d49576001600160a01b03841660009081526001860160205260408120805483908110610c8c57610c8c611274565b600091825260208083206008830401546001600160a01b038916845260018a019091526040909220805460079092166004026101000a90920460e01b925082919085908110610cdd57610cdd611274565b600091825260208083206008830401805463ffffffff60079094166004026101000a938402191660e09590951c929092029390931790556001600160e01b03199290921682528690526040902080546001600160a01b0316600160a01b6001600160601b038516021790555b6001600160a01b03841660009081526001860160205260409020805480610d7257610d7261153d565b60008281526020808220600860001990940193840401805463ffffffff600460078716026101000a0219169055919092556001600160e01b031985168252869052604081208190558190036101c4576002850154600090610dd590600190611524565b6001600160a01b0386166000908152600180890160205260409091200154909150808214610e84576000876002018381548110610e1457610e14611274565b6000918252602090912001546002890180546001600160a01b039092169250829184908110610e4557610e45611274565b600091825260208083209190910180546001600160a01b0319166001600160a01b03948516179055929091168152600189810190925260409020018190555b86600201805480610e9757610e9761153d565b60008281526020808220830160001990810180546001600160a01b03191690559092019092556001600160a01b0388168252600189810190915260408220015550505050505050565b813b81816109475760405162461bcd60e51b81526004016102769190611553565b80356001600160a01b0381168114610f1857600080fd5b919050565b600060208284031215610f2f57600080fd5b610f3882610f01565b9392505050565b60008083601f840112610f5157600080fd5b50813567ffffffffffffffff811115610f6957600080fd5b602083019150836020828501011115610f8157600080fd5b9250929050565b600080600080600060608688031215610fa057600080fd5b853567ffffffffffffffff80821115610fb857600080fd5b818801915088601f830112610fcc57600080fd5b813581811115610fdb57600080fd5b8960208260051b8501011115610ff057600080fd5b6020830197508096505061100660208901610f01565b9450604088013591508082111561101c57600080fd5b5061102988828901610f3f565b969995985093965092949392505050565b60006020828403121561104c57600080fd5b813561ffff81168114610f3857600080fd5b60006020828403121561107057600080fd5b5035919050565b60006020828403121561108957600080fd5b813562ffffff81168114610f3857600080fd5b634e487b7160e01b600052604160045260246000fd5b6040516060810167ffffffffffffffff811182821017156110d5576110d561109c565b60405290565b604051601f8201601f1916810167ffffffffffffffff811182821017156111045761110461109c565b604052919050565b600067ffffffffffffffff8211156111265761112661109c565b5060051b60200190565b600061114361113e8461110c565b6110db565b83815260208082019190600586811b86013681111561116157600080fd5b865b8181101561126757803567ffffffffffffffff808211156111845760008081fd5b818a0191506060823603121561119a5760008081fd5b6111a26110b2565b6111ab83610f01565b815286830135600381106111bf5760008081fd5b81880152604083810135838111156111d75760008081fd5b939093019236601f8501126111ee57600092508283fd5b833592506111fe61113e8461110c565b83815292871b8401880192888101903685111561121b5760008081fd5b948901945b848610156112505785356001600160e01b0319811681146112415760008081fd5b82529489019490890190611220565b918301919091525088525050948301948301611163565b5092979650505050505050565b634e487b7160e01b600052603260045260246000fd5b634e487b7160e01b600052602160045260246000fd5b634e487b7160e01b600052601160045260246000fd5b6000600182016112c8576112c86112a0565b5060010190565b60005b838110156112ea5781810151838201526020016112d2565b50506000910152565b6000815180845261130b8160208601602086016112cf565b601f01601f19169290920160200192915050565b60006060808301818452808751808352608092508286019150828160051b8701016020808b0160005b848110156113ef57898403607f19018652815180516001600160a01b0316855283810151898601906003811061138e57634e487b7160e01b600052602160045260246000fd5b868601526040918201519186018a905281519081905290840190600090898701905b808310156113da5783516001600160e01b03191682529286019260019290920191908601906113b0565b50978501979550505090820190600101611348565b50506001600160a01b038a1690880152868103604088015261141181896112f3565b9a9950505050505050505050565b6020808252602b908201527f4c69624469616d6f6e644375743a204e6f2073656c6563746f727320696e206660408201526a1858d95d081d1bc818dd5d60aa1b606082015260800190565b6020808252602c908201527f4c69624469616d6f6e644375743a204164642066616365742063616e2774206260408201526b65206164647265737328302960a01b606082015260800190565b60006001600160601b038083168181036114d2576114d26112a0565b6001019392505050565b600082516114ee8184602087016112cf565b9190910192915050565b6001600160a01b038316815260406020820181905260009061151c908301846112f3565b949350505050565b81810381811115611537576115376112a0565b92915050565b634e487b7160e01b600052603160045260246000fd5b602081526000610f3860208301846112f356fec8fcad8db84d3cc18b4c41d551ea0ee66dd599cde068d998e57d5e09332c131c4c69624469616d6f6e644375743a205f696e6974206164647265737320686173206e6f20636f64654c69624469616d6f6e644375743a204e657720666163657420686173206e6f20636f6465a26469706673582212206a319cbebb548b7337543d421aea394d113dd7ab3c5fd61c65c90dcd86e940e964736f6c63430008150033",
    "linkReferences": {}
  },
  "methodIdentifiers": {
    "changeAdminFeeRecipient(address)": "cffd8493",
    "changeDefaultSlippage(uint16)": "2bc8a42d",
    "changeUniFee(uint24)": "5acb2ecb",
    "claimReward()": "b88a802f",
    "diamondCut((address,uint8,bytes4[])[],address,bytes)": "1f931c1c",
    "earned(address)": "008cc262",
    "getOZLCirculatingSupply()": "1e4d84c6",
    "getRewardRate()": "7e1a3786",
    "lastTimeRewardApplicable()": "80faa57d",
    "notifyRewardAmount(uint256)": "3c6b16ab",
    "rewardPerToken()": "cd3daf9d",
    "setRewardsDuration(uint256)": "cc1a378f",
    "storeOZL(address)": "3bba4b35"
  },
  "id": 15
}