{
  "abi": [
    {
      "inputs": [
        {
          "internalType": "address",
          "name": "_initializationContractAddress",
          "type": "address"
        },
        {
          "internalType": "bytes",
          "name": "_calldata",
          "type": "bytes"
        }
      ],
      "name": "InitializationFunctionReverted",
      "type": "error"
    },
    {
      "inputs": [
        {
          "internalType": "address",
          "name": "caller",
          "type": "address"
        }
      ],
      "name": "OZError13",
      "type": "error"
    },
    {
      "anonymous": false,
      "inputs": [
        {
          "components": [
            {
              "internalType": "address",
              "name": "facetAddress",
              "type": "address"
            },
            {
              "internalType": "enum IDiamondCut.FacetCutAction",
              "name": "action",
              "type": "uint8"
            },
            {
              "internalType": "bytes4[]",
              "name": "functionSelectors",
              "type": "bytes4[]"
            }
          ],
          "indexed": false,
          "internalType": "struct IDiamondCut.FacetCut[]",
          "name": "_diamondCut",
          "type": "tuple[]"
        },
        {
          "indexed": false,
          "internalType": "address",
          "name": "_init",
          "type": "address"
        },
        {
          "indexed": false,
          "internalType": "bytes",
          "name": "_calldata",
          "type": "bytes"
        }
      ],
      "name": "DiamondCut",
      "type": "event"
    },
    {
      "inputs": [
        {
          "internalType": "uint16",
          "name": "newFee_",
          "type": "uint16"
        }
      ],
      "name": "changeAdminFee",
      "outputs": [],
      "stateMutability": "nonpayable",
      "type": "function"
    },
    {
      "inputs": [
        {
          "internalType": "address",
          "name": "newRecipient_",
          "type": "address"
        }
      ],
      "name": "changeAdminFeeRecipient",
      "outputs": [],
      "stateMutability": "nonpayable",
      "type": "function"
    },
    {
      "inputs": [
        {
          "internalType": "uint16",
          "name": "newBps_",
          "type": "uint16"
        }
      ],
      "name": "changeDefaultSlippage",
      "outputs": [],
      "stateMutability": "nonpayable",
      "type": "function"
    },
    {
      "inputs": [
        {
          "internalType": "uint24",
          "name": "newFee_",
          "type": "uint24"
        }
      ],
      "name": "changeProtocolFee",
      "outputs": [],
      "stateMutability": "nonpayable",
      "type": "function"
    },
    {
      "inputs": [
        {
          "internalType": "uint24",
          "name": "newBps_",
          "type": "uint24"
        }
      ],
      "name": "changeUniFee",
      "outputs": [],
      "stateMutability": "nonpayable",
      "type": "function"
    },
    {
      "inputs": [],
      "name": "claimReward",
      "outputs": [
        {
          "internalType": "uint256",
          "name": "",
          "type": "uint256"
        }
      ],
      "stateMutability": "nonpayable",
      "type": "function"
    },
    {
      "inputs": [
        {
          "components": [
            {
              "internalType": "address",
              "name": "facetAddress",
              "type": "address"
            },
            {
              "internalType": "enum IDiamondCut.FacetCutAction",
              "name": "action",
              "type": "uint8"
            },
            {
              "internalType": "bytes4[]",
              "name": "functionSelectors",
              "type": "bytes4[]"
            }
          ],
          "internalType": "struct IDiamondCut.FacetCut[]",
          "name": "_diamondCut",
          "type": "tuple[]"
        },
        {
          "internalType": "address",
          "name": "_init",
          "type": "address"
        },
        {
          "internalType": "bytes",
          "name": "_calldata",
          "type": "bytes"
        }
      ],
      "name": "diamondCut",
      "outputs": [],
      "stateMutability": "nonpayable",
      "type": "function"
    },
    {
      "inputs": [
        {
          "internalType": "address",
          "name": "user_",
          "type": "address"
        }
      ],
      "name": "earned",
      "outputs": [
        {
          "internalType": "uint256",
          "name": "",
          "type": "uint256"
        }
      ],
      "stateMutability": "view",
      "type": "function"
    },
    {
      "inputs": [],
      "name": "getRewardsData",
      "outputs": [
        {
          "internalType": "uint256",
          "name": "rewardRate",
          "type": "uint256"
        },
        {
          "internalType": "uint256",
          "name": "circulatingSupply",
          "type": "uint256"
        },
        {
          "internalType": "uint256",
          "name": "pendingAllocation",
          "type": "uint256"
        },
        {
          "internalType": "uint256",
          "name": "recicledSupply",
          "type": "uint256"
        },
        {
          "internalType": "int256",
          "name": "durationLeft",
          "type": "int256"
        }
      ],
      "stateMutability": "view",
      "type": "function"
    },
    {
      "inputs": [],
      "name": "lastTimeRewardApplicable",
      "outputs": [
        {
          "internalType": "uint256",
          "name": "",
          "type": "uint256"
        }
      ],
      "stateMutability": "view",
      "type": "function"
    },
    {
      "inputs": [
        {
          "internalType": "uint256",
          "name": "amount_",
          "type": "uint256"
        }
      ],
      "name": "notifyRewardAmount",
      "outputs": [],
      "stateMutability": "nonpayable",
      "type": "function"
    },
    {
      "inputs": [],
      "name": "rewardPerToken",
      "outputs": [
        {
          "internalType": "uint256",
          "name": "",
          "type": "uint256"
        }
      ],
      "stateMutability": "view",
      "type": "function"
    },
    {
      "inputs": [
        {
          "internalType": "uint256",
          "name": "duration_",
          "type": "uint256"
        }
      ],
      "name": "setRewardsDuration",
      "outputs": [],
      "stateMutability": "nonpayable",
      "type": "function"
    },
    {
      "inputs": [
        {
          "internalType": "address",
          "name": "ozlProxy_",
          "type": "address"
        }
      ],
      "name": "storeOZL",
      "outputs": [],
      "stateMutability": "nonpayable",
      "type": "function"
    }
  ],
  "bytecode": {
    "object": "0x608060405234801561001057600080fd5b506116ee806100206000396000f3fe608060405234801561001057600080fd5b50600436106100e95760003560e01c806380faa57d1161008c578063cc1a378f11610066578063cc1a378f14610150578063cc9999e2146101bb578063cd3daf9d146101a1578063cffd8493146101ce57600080fd5b806380faa57d146101a1578063997d37b1146101a8578063b88a802f146101a157600080fd5b80633bba4b35116100c85780633bba4b351461013d5780633c6b16ab146101505780635acb2ecb146101615780637d098e641461017457600080fd5b80628cc262146100ee5780631f931c1c146101155780632bc8a42d1461012a575b600080fd5b6101026100fc366004611003565b50600090565b6040519081526020015b60405180910390f35b61012861012336600461106e565b6101e1565b005b610128610138366004611120565b61023a565b61012861014b366004611003565b610264565b61012861015e366004611144565b50565b61012861016f36600461115d565b6102b3565b6040805160008082526020820181905291810182905260608101829052608081019190915260a00161010c565b6000610102565b6101286101b636600461115d565b6102d5565b6101286101c9366004611120565b610307565b6101286101dc366004611003565b610331565b6101e9610385565b6102336101f68587611216565b8484848080601f0160208091040260200160405190810160405280939291908181526020018383808284376000920191909152506103fc92505050565b5050505050565b610242610385565b6007805461ffff909216600160a01b0261ffff60a01b19909216919091179055565b61026c610385565b601380546001600160a01b039092166901000000000000000000027fffffff0000000000000000000000000000000000000000ffffffffffffffffff909216919091179055565b6102bb610385565b6013805462ffffff191662ffffff92909216919091179055565b6102dd610385565b6013805462ffffff90921666010000000000000268ffffff00000000000019909216919091179055565b61030f610385565b601f805461ffff909216600160a01b0261ffff60a01b19909216919091179055565b601f546001600160a01b031633146103635760405163a43f931360e01b81523360048201526024015b60405180910390fd5b601f80546001600160a01b0319166001600160a01b0392909216919091179055565b60008051602061164d833981519152600401546001600160a01b031633146103fa5760405162461bcd60e51b815260206004820152602260248201527f4c69624469616d6f6e643a204d75737420626520636f6e7472616374206f776e60448201526132b960f11b606482015260840161035a565b565b60005b83518110156105c257600084828151811061041c5761041c61135a565b60200260200101516020015190506000600281111561043d5761043d611370565b81600281111561044f5761044f611370565b0361049d576104988583815181106104695761046961135a565b6020026020010151600001518684815181106104875761048761135a565b60200260200101516040015161060d565b6105af565b60018160028111156104b1576104b1611370565b036104fa576104988583815181106104cb576104cb61135a565b6020026020010151600001518684815181106104e9576104e961135a565b602002602001015160400151610785565b600281600281111561050e5761050e611370565b03610557576104988583815181106105285761052861135a565b6020026020010151600001518684815181106105465761054661135a565b602002602001015160400151610915565b60405162461bcd60e51b815260206004820152602760248201527f4c69624469616d6f6e644375743a20496e636f727265637420466163657443756044820152663a20b1ba34b7b760c91b606482015260840161035a565b50806105ba8161139c565b9150506103ff565b507f8faa70878671ccd212d20771b795c50af8fd3ff6cf27f4bde57e5d4de0aeb6738383836040516105f693929190611405565b60405180910390a16106088282610a33565b505050565b600081511161062e5760405162461bcd60e51b815260040161035a90611505565b60008051602061164d8339815191526001600160a01b0383166106635760405162461bcd60e51b815260040161035a90611550565b6001600160a01b0383166000908152600182016020526040812054906001600160601b0382169003610699576106998285610af9565b60005b83518110156102335760008482815181106106b9576106b961135a565b6020908102919091018101516001600160e01b031981166000908152918690526040909120549091506001600160a01b031680156107575760405162461bcd60e51b815260206004820152603560248201527f4c69624469616d6f6e644375743a2043616e2774206164642066756e6374696f6044820152746e207468617420616c72656164792065786973747360581b606482015260840161035a565b6107638583868a610b63565b8361076d8161159c565b9450505050808061077d9061139c565b91505061069c565b60008151116107a65760405162461bcd60e51b815260040161035a90611505565b60008051602061164d8339815191526001600160a01b0383166107db5760405162461bcd60e51b815260040161035a90611550565b6001600160a01b0383166000908152600182016020526040812054906001600160601b0382169003610811576108118285610af9565b60005b83518110156102335760008482815181106108315761083161135a565b6020908102919091018101516001600160e01b031981166000908152918690526040909120549091506001600160a01b0390811690871681036108dc5760405162461bcd60e51b815260206004820152603860248201527f4c69624469616d6f6e644375743a2043616e2774207265706c6163652066756e60448201527f6374696f6e20776974682073616d652066756e6374696f6e0000000000000000606482015260840161035a565b6108e7858284610c03565b6108f38583868a610b63565b836108fd8161159c565b9450505050808061090d9061139c565b915050610814565b60008151116109365760405162461bcd60e51b815260040161035a90611505565b60008051602061164d8339815191526001600160a01b038316156109bb5760405162461bcd60e51b815260206004820152603660248201527f4c69624469616d6f6e644375743a2052656d6f76652066616365742061646472604482015275657373206d757374206265206164647265737328302960501b606482015260840161035a565b60005b8251811015610a2d5760008382815181106109db576109db61135a565b6020908102919091018101516001600160e01b031981166000908152918590526040909120549091506001600160a01b0316610a18848284610c03565b50508080610a259061139c565b9150506109be565b50505050565b6001600160a01b038216610a45575050565b610a678260405180606001604052806028815260200161166d60289139610fc6565b600080836001600160a01b031683604051610a8291906115c2565b600060405180830381855af49150503d8060008114610abd576040519150601f19603f3d011682016040523d82523d6000602084013e610ac2565b606091505b509150915081610a2d57805115610adc5780518082602001fd5b838360405163192105d760e01b815260040161035a9291906115de565b610b1b8160405180606001604052806024815260200161169560249139610fc6565b6002820180546001600160a01b0390921660008181526001948501602090815260408220860185905594840183559182529290200180546001600160a01b0319169091179055565b6001600160e01b0319831660008181526020868152604080832080546001600160601b03909716600160a01b026001600160a01b0397881617815594909516808352600180890183529583208054968701815583528183206008870401805460e09890981c60046007909816979097026101000a96870263ffffffff9097021990971695909517909555529290915281546001600160a01b031916179055565b6001600160a01b038216610c7f5760405162461bcd60e51b815260206004820152603760248201527f4c69624469616d6f6e644375743a2043616e27742072656d6f76652066756e6360448201527f74696f6e207468617420646f65736e2774206578697374000000000000000000606482015260840161035a565b306001600160a01b03831603610cee5760405162461bcd60e51b815260206004820152602e60248201527f4c69624469616d6f6e644375743a2043616e27742072656d6f766520696d6d7560448201526d3a30b1363290333ab731ba34b7b760911b606482015260840161035a565b6001600160e01b03198116600090815260208481526040808320546001600160a01b0386168452600180880190935290832054600160a01b9091046001600160601b03169291610d3d9161160a565b9050808214610e2f576001600160a01b03841660009081526001860160205260408120805483908110610d7257610d7261135a565b600091825260208083206008830401546001600160a01b038916845260018a019091526040909220805460079092166004026101000a90920460e01b925082919085908110610dc357610dc361135a565b600091825260208083206008830401805463ffffffff60079094166004026101000a938402191660e09590951c929092029390931790556001600160e01b03199290921682528690526040902080546001600160a01b0316600160a01b6001600160601b038516021790555b6001600160a01b03841660009081526001860160205260409020805480610e5857610e58611623565b60008281526020808220600860001990940193840401805463ffffffff600460078716026101000a0219169055919092556001600160e01b03198516825286905260408120819055819003610233576002850154600090610ebb9060019061160a565b6001600160a01b0386166000908152600180890160205260409091200154909150808214610f6a576000876002018381548110610efa57610efa61135a565b6000918252602090912001546002890180546001600160a01b039092169250829184908110610f2b57610f2b61135a565b600091825260208083209190910180546001600160a01b0319166001600160a01b03948516179055929091168152600189810190925260409020018190555b86600201805480610f7d57610f7d611623565b60008281526020808220830160001990810180546001600160a01b03191690559092019092556001600160a01b0388168252600189810190915260408220015550505050505050565b813b8181610a2d5760405162461bcd60e51b815260040161035a9190611639565b80356001600160a01b0381168114610ffe57600080fd5b919050565b60006020828403121561101557600080fd5b61101e82610fe7565b9392505050565b60008083601f84011261103757600080fd5b50813567ffffffffffffffff81111561104f57600080fd5b60208301915083602082850101111561106757600080fd5b9250929050565b60008060008060006060868803121561108657600080fd5b853567ffffffffffffffff8082111561109e57600080fd5b818801915088601f8301126110b257600080fd5b8135818111156110c157600080fd5b8960208260051b85010111156110d657600080fd5b602083019750809650506110ec60208901610fe7565b9450604088013591508082111561110257600080fd5b5061110f88828901611025565b969995985093965092949392505050565b60006020828403121561113257600080fd5b813561ffff8116811461101e57600080fd5b60006020828403121561115657600080fd5b5035919050565b60006020828403121561116f57600080fd5b813562ffffff8116811461101e57600080fd5b634e487b7160e01b600052604160045260246000fd5b6040516060810167ffffffffffffffff811182821017156111bb576111bb611182565b60405290565b604051601f8201601f1916810167ffffffffffffffff811182821017156111ea576111ea611182565b604052919050565b600067ffffffffffffffff82111561120c5761120c611182565b5060051b60200190565b6000611229611224846111f2565b6111c1565b83815260208082019190600586811b86013681111561124757600080fd5b865b8181101561134d57803567ffffffffffffffff8082111561126a5760008081fd5b818a019150606082360312156112805760008081fd5b611288611198565b61129183610fe7565b815286830135600381106112a55760008081fd5b81880152604083810135838111156112bd5760008081fd5b939093019236601f8501126112d457600092508283fd5b833592506112e4611224846111f2565b83815292871b840188019288810190368511156113015760008081fd5b948901945b848610156113365785356001600160e01b0319811681146113275760008081fd5b82529489019490890190611306565b918301919091525088525050948301948301611249565b5092979650505050505050565b634e487b7160e01b600052603260045260246000fd5b634e487b7160e01b600052602160045260246000fd5b634e487b7160e01b600052601160045260246000fd5b6000600182016113ae576113ae611386565b5060010190565b60005b838110156113d05781810151838201526020016113b8565b50506000910152565b600081518084526113f18160208601602086016113b5565b601f01601f19169290920160200192915050565b60006060808301818452808751808352608092508286019150828160051b8701016020808b0160005b848110156114d557898403607f19018652815180516001600160a01b0316855283810151898601906003811061147457634e487b7160e01b600052602160045260246000fd5b868601526040918201519186018a905281519081905290840190600090898701905b808310156114c05783516001600160e01b0319168252928601926001929092019190860190611496565b5097850197955050509082019060010161142e565b50506001600160a01b038a169088015286810360408801526114f781896113d9565b9a9950505050505050505050565b6020808252602b908201527f4c69624469616d6f6e644375743a204e6f2073656c6563746f727320696e206660408201526a1858d95d081d1bc818dd5d60aa1b606082015260800190565b6020808252602c908201527f4c69624469616d6f6e644375743a204164642066616365742063616e2774206260408201526b65206164647265737328302960a01b606082015260800190565b60006001600160601b038083168181036115b8576115b8611386565b6001019392505050565b600082516115d48184602087016113b5565b9190910192915050565b6001600160a01b0383168152604060208201819052600090611602908301846113d9565b949350505050565b8181038181111561161d5761161d611386565b92915050565b634e487b7160e01b600052603160045260246000fd5b60208152600061101e60208301846113d956fec8fcad8db84d3cc18b4c41d551ea0ee66dd599cde068d998e57d5e09332c131c4c69624469616d6f6e644375743a205f696e6974206164647265737320686173206e6f20636f64654c69624469616d6f6e644375743a204e657720666163657420686173206e6f20636f6465a264697066735822122072a1dcc1c5376ab9a12b49127a2b9a089b7b781dc02edd23d711606d0f8f4a0564736f6c63430008150033",
    "linkReferences": {}
  },
  "methodIdentifiers": {
    "changeAdminFee(uint16)": "cc9999e2",
    "changeAdminFeeRecipient(address)": "cffd8493",
    "changeDefaultSlippage(uint16)": "2bc8a42d",
    "changeProtocolFee(uint24)": "997d37b1",
    "changeUniFee(uint24)": "5acb2ecb",
    "claimReward()": "b88a802f",
    "diamondCut((address,uint8,bytes4[])[],address,bytes)": "1f931c1c",
    "earned(address)": "008cc262",
    "getRewardsData()": "7d098e64",
    "lastTimeRewardApplicable()": "80faa57d",
    "notifyRewardAmount(uint256)": "3c6b16ab",
    "rewardPerToken()": "cd3daf9d",
    "setRewardsDuration(uint256)": "cc1a378f",
    "storeOZL(address)": "3bba4b35"
  },
  "id": 14
}