{
  "abi": [
    {
      "inputs": [
        {
          "internalType": "address",
          "name": "_initializationContractAddress",
          "type": "address"
        },
        {
          "internalType": "bytes",
          "name": "_calldata",
          "type": "bytes"
        }
      ],
      "name": "InitializationFunctionReverted",
      "type": "error"
    },
    {
      "inputs": [
        {
          "internalType": "address",
          "name": "caller",
          "type": "address"
        }
      ],
      "name": "OZError13",
      "type": "error"
    },
    {
      "anonymous": false,
      "inputs": [
        {
          "components": [
            {
              "internalType": "address",
              "name": "facetAddress",
              "type": "address"
            },
            {
              "internalType": "enum IDiamondCut.FacetCutAction",
              "name": "action",
              "type": "uint8"
            },
            {
              "internalType": "bytes4[]",
              "name": "functionSelectors",
              "type": "bytes4[]"
            }
          ],
          "indexed": false,
          "internalType": "struct IDiamondCut.FacetCut[]",
          "name": "_diamondCut",
          "type": "tuple[]"
        },
        {
          "indexed": false,
          "internalType": "address",
          "name": "_init",
          "type": "address"
        },
        {
          "indexed": false,
          "internalType": "bytes",
          "name": "_calldata",
          "type": "bytes"
        }
      ],
      "name": "DiamondCut",
      "type": "event"
    },
    {
      "inputs": [
        {
          "internalType": "address",
          "name": "newRecipient_",
          "type": "address"
        }
      ],
      "name": "changeAdminFeeRecipient",
      "outputs": [],
      "stateMutability": "nonpayable",
      "type": "function"
    },
    {
      "inputs": [
        {
          "internalType": "uint16",
          "name": "newBps_",
          "type": "uint16"
        }
      ],
      "name": "changeDefaultSlippage",
      "outputs": [],
      "stateMutability": "nonpayable",
      "type": "function"
    },
    {
      "inputs": [
        {
          "internalType": "uint24",
          "name": "newBps_",
          "type": "uint24"
        }
      ],
      "name": "changeUniFee",
      "outputs": [],
      "stateMutability": "nonpayable",
      "type": "function"
    },
    {
      "inputs": [],
      "name": "claimReward",
      "outputs": [
        {
          "internalType": "uint256",
          "name": "",
          "type": "uint256"
        }
      ],
      "stateMutability": "nonpayable",
      "type": "function"
    },
    {
      "inputs": [
        {
          "components": [
            {
              "internalType": "address",
              "name": "facetAddress",
              "type": "address"
            },
            {
              "internalType": "enum IDiamondCut.FacetCutAction",
              "name": "action",
              "type": "uint8"
            },
            {
              "internalType": "bytes4[]",
              "name": "functionSelectors",
              "type": "bytes4[]"
            }
          ],
          "internalType": "struct IDiamondCut.FacetCut[]",
          "name": "_diamondCut",
          "type": "tuple[]"
        },
        {
          "internalType": "address",
          "name": "_init",
          "type": "address"
        },
        {
          "internalType": "bytes",
          "name": "_calldata",
          "type": "bytes"
        }
      ],
      "name": "diamondCut",
      "outputs": [],
      "stateMutability": "nonpayable",
      "type": "function"
    },
    {
      "inputs": [
        {
          "internalType": "address",
          "name": "user_",
          "type": "address"
        }
      ],
      "name": "earned",
      "outputs": [
        {
          "internalType": "uint256",
          "name": "",
          "type": "uint256"
        }
      ],
      "stateMutability": "view",
      "type": "function"
    },
    {
      "inputs": [],
      "name": "getCirculatingSupply",
      "outputs": [
        {
          "internalType": "uint256",
          "name": "",
          "type": "uint256"
        }
      ],
      "stateMutability": "view",
      "type": "function"
    },
    {
      "inputs": [],
      "name": "getRecicledSupply",
      "outputs": [
        {
          "internalType": "uint256",
          "name": "",
          "type": "uint256"
        }
      ],
      "stateMutability": "view",
      "type": "function"
    },
    {
      "inputs": [],
      "name": "getRewardRate",
      "outputs": [
        {
          "internalType": "uint256",
          "name": "",
          "type": "uint256"
        }
      ],
      "stateMutability": "view",
      "type": "function"
    },
    {
      "inputs": [],
      "name": "lastTimeRewardApplicable",
      "outputs": [
        {
          "internalType": "uint256",
          "name": "",
          "type": "uint256"
        }
      ],
      "stateMutability": "view",
      "type": "function"
    },
    {
      "inputs": [
        {
          "internalType": "uint256",
          "name": "amount_",
          "type": "uint256"
        }
      ],
      "name": "notifyRewardAmount",
      "outputs": [],
      "stateMutability": "nonpayable",
      "type": "function"
    },
    {
      "inputs": [],
      "name": "rewardPerToken",
      "outputs": [
        {
          "internalType": "uint256",
          "name": "",
          "type": "uint256"
        }
      ],
      "stateMutability": "view",
      "type": "function"
    },
    {
      "inputs": [
        {
          "internalType": "uint256",
          "name": "duration_",
          "type": "uint256"
        }
      ],
      "name": "setRewardsDuration",
      "outputs": [],
      "stateMutability": "nonpayable",
      "type": "function"
    },
    {
      "inputs": [
        {
          "internalType": "address",
          "name": "ozlProxy_",
          "type": "address"
        }
      ],
      "name": "storeOZL",
      "outputs": [],
      "stateMutability": "nonpayable",
      "type": "function"
    }
  ],
  "bytecode": {
    "object": "0x608060405234801561001057600080fd5b50611623806100206000396000f3fe608060405234801561001057600080fd5b50600436106100e95760003560e01c80636a533a4c1161008c578063b88a802f11610066578063b88a802f14610129578063cc1a378f14610156578063cd3daf9d14610129578063cffd84931461017a57600080fd5b80636a533a4c146101295780637e1a37861461012957806380faa57d1461012957600080fd5b80632bc8a42d116100c85780632bc8a42d146101305780633bba4b35146101435780633c6b16ab146101565780635acb2ecb1461016757600080fd5b80628cc262146100ee5780631f931c1c146101145780632b112e4914610129575b600080fd5b6101026100fc366004610f38565b50600090565b60405190815260200160405180910390f35b610127610122366004610fa3565b61018d565b005b6000610102565b61012761013e366004611055565b6101e6565b610127610151366004610f38565b610210565b610127610164366004611079565b50565b610127610175366004611092565b610244565b610127610188366004610f38565b610266565b6101956102ba565b6101df6101a2858761114b565b8484848080601f01602080910402602001604051908101604052809392919081815260200183838082843760009201919091525061033192505050565b5050505050565b6101ee6102ba565b6007805461ffff909216600160a01b0261ffff60a01b19909216919091179055565b6102186102ba565b601580546001600160a01b039092166301000000026301000000600160b81b0319909216919091179055565b61024c6102ba565b6013805462ffffff191662ffffff92909216919091179055565b6021546001600160a01b031633146102985760405163a43f931360e01b81523360048201526024015b60405180910390fd5b602180546001600160a01b0319166001600160a01b0392909216919091179055565b600080516020611582833981519152600401546001600160a01b0316331461032f5760405162461bcd60e51b815260206004820152602260248201527f4c69624469616d6f6e643a204d75737420626520636f6e7472616374206f776e60448201526132b960f11b606482015260840161028f565b565b60005b83518110156104f75760008482815181106103515761035161128f565b602002602001015160200151905060006002811115610372576103726112a5565b816002811115610384576103846112a5565b036103d2576103cd85838151811061039e5761039e61128f565b6020026020010151600001518684815181106103bc576103bc61128f565b602002602001015160400151610542565b6104e4565b60018160028111156103e6576103e66112a5565b0361042f576103cd8583815181106104005761040061128f565b60200260200101516000015186848151811061041e5761041e61128f565b6020026020010151604001516106ba565b6002816002811115610443576104436112a5565b0361048c576103cd85838151811061045d5761045d61128f565b60200260200101516000015186848151811061047b5761047b61128f565b60200260200101516040015161084a565b60405162461bcd60e51b815260206004820152602760248201527f4c69624469616d6f6e644375743a20496e636f727265637420466163657443756044820152663a20b1ba34b7b760c91b606482015260840161028f565b50806104ef816112d1565b915050610334565b507f8faa70878671ccd212d20771b795c50af8fd3ff6cf27f4bde57e5d4de0aeb67383838360405161052b9392919061133a565b60405180910390a161053d8282610968565b505050565b60008151116105635760405162461bcd60e51b815260040161028f9061143a565b6000805160206115828339815191526001600160a01b0383166105985760405162461bcd60e51b815260040161028f90611485565b6001600160a01b0383166000908152600182016020526040812054906001600160601b03821690036105ce576105ce8285610a2e565b60005b83518110156101df5760008482815181106105ee576105ee61128f565b6020908102919091018101516001600160e01b031981166000908152918690526040909120549091506001600160a01b0316801561068c5760405162461bcd60e51b815260206004820152603560248201527f4c69624469616d6f6e644375743a2043616e2774206164642066756e6374696f6044820152746e207468617420616c72656164792065786973747360581b606482015260840161028f565b6106988583868a610a98565b836106a2816114d1565b945050505080806106b2906112d1565b9150506105d1565b60008151116106db5760405162461bcd60e51b815260040161028f9061143a565b6000805160206115828339815191526001600160a01b0383166107105760405162461bcd60e51b815260040161028f90611485565b6001600160a01b0383166000908152600182016020526040812054906001600160601b0382169003610746576107468285610a2e565b60005b83518110156101df5760008482815181106107665761076661128f565b6020908102919091018101516001600160e01b031981166000908152918690526040909120549091506001600160a01b0390811690871681036108115760405162461bcd60e51b815260206004820152603860248201527f4c69624469616d6f6e644375743a2043616e2774207265706c6163652066756e60448201527f6374696f6e20776974682073616d652066756e6374696f6e0000000000000000606482015260840161028f565b61081c858284610b38565b6108288583868a610a98565b83610832816114d1565b94505050508080610842906112d1565b915050610749565b600081511161086b5760405162461bcd60e51b815260040161028f9061143a565b6000805160206115828339815191526001600160a01b038316156108f05760405162461bcd60e51b815260206004820152603660248201527f4c69624469616d6f6e644375743a2052656d6f76652066616365742061646472604482015275657373206d757374206265206164647265737328302960501b606482015260840161028f565b60005b82518110156109625760008382815181106109105761091061128f565b6020908102919091018101516001600160e01b031981166000908152918590526040909120549091506001600160a01b031661094d848284610b38565b5050808061095a906112d1565b9150506108f3565b50505050565b6001600160a01b03821661097a575050565b61099c826040518060600160405280602881526020016115a260289139610efb565b600080836001600160a01b0316836040516109b791906114f7565b600060405180830381855af49150503d80600081146109f2576040519150601f19603f3d011682016040523d82523d6000602084013e6109f7565b606091505b50915091508161096257805115610a115780518082602001fd5b838360405163192105d760e01b815260040161028f929190611513565b610a50816040518060600160405280602481526020016115ca60249139610efb565b6002820180546001600160a01b0390921660008181526001948501602090815260408220860185905594840183559182529290200180546001600160a01b0319169091179055565b6001600160e01b0319831660008181526020868152604080832080546001600160601b03909716600160a01b026001600160a01b0397881617815594909516808352600180890183529583208054968701815583528183206008870401805460e09890981c60046007909816979097026101000a96870263ffffffff9097021990971695909517909555529290915281546001600160a01b031916179055565b6001600160a01b038216610bb45760405162461bcd60e51b815260206004820152603760248201527f4c69624469616d6f6e644375743a2043616e27742072656d6f76652066756e6360448201527f74696f6e207468617420646f65736e2774206578697374000000000000000000606482015260840161028f565b306001600160a01b03831603610c235760405162461bcd60e51b815260206004820152602e60248201527f4c69624469616d6f6e644375743a2043616e27742072656d6f766520696d6d7560448201526d3a30b1363290333ab731ba34b7b760911b606482015260840161028f565b6001600160e01b03198116600090815260208481526040808320546001600160a01b0386168452600180880190935290832054600160a01b9091046001600160601b03169291610c729161153f565b9050808214610d64576001600160a01b03841660009081526001860160205260408120805483908110610ca757610ca761128f565b600091825260208083206008830401546001600160a01b038916845260018a019091526040909220805460079092166004026101000a90920460e01b925082919085908110610cf857610cf861128f565b600091825260208083206008830401805463ffffffff60079094166004026101000a938402191660e09590951c929092029390931790556001600160e01b03199290921682528690526040902080546001600160a01b0316600160a01b6001600160601b038516021790555b6001600160a01b03841660009081526001860160205260409020805480610d8d57610d8d611558565b60008281526020808220600860001990940193840401805463ffffffff600460078716026101000a0219169055919092556001600160e01b031985168252869052604081208190558190036101df576002850154600090610df09060019061153f565b6001600160a01b0386166000908152600180890160205260409091200154909150808214610e9f576000876002018381548110610e2f57610e2f61128f565b6000918252602090912001546002890180546001600160a01b039092169250829184908110610e6057610e6061128f565b600091825260208083209190910180546001600160a01b0319166001600160a01b03948516179055929091168152600189810190925260409020018190555b86600201805480610eb257610eb2611558565b60008281526020808220830160001990810180546001600160a01b03191690559092019092556001600160a01b0388168252600189810190915260408220015550505050505050565b813b81816109625760405162461bcd60e51b815260040161028f919061156e565b80356001600160a01b0381168114610f3357600080fd5b919050565b600060208284031215610f4a57600080fd5b610f5382610f1c565b9392505050565b60008083601f840112610f6c57600080fd5b50813567ffffffffffffffff811115610f8457600080fd5b602083019150836020828501011115610f9c57600080fd5b9250929050565b600080600080600060608688031215610fbb57600080fd5b853567ffffffffffffffff80821115610fd357600080fd5b818801915088601f830112610fe757600080fd5b813581811115610ff657600080fd5b8960208260051b850101111561100b57600080fd5b6020830197508096505061102160208901610f1c565b9450604088013591508082111561103757600080fd5b5061104488828901610f5a565b969995985093965092949392505050565b60006020828403121561106757600080fd5b813561ffff81168114610f5357600080fd5b60006020828403121561108b57600080fd5b5035919050565b6000602082840312156110a457600080fd5b813562ffffff81168114610f5357600080fd5b634e487b7160e01b600052604160045260246000fd5b6040516060810167ffffffffffffffff811182821017156110f0576110f06110b7565b60405290565b604051601f8201601f1916810167ffffffffffffffff8111828210171561111f5761111f6110b7565b604052919050565b600067ffffffffffffffff821115611141576111416110b7565b5060051b60200190565b600061115e61115984611127565b6110f6565b83815260208082019190600586811b86013681111561117c57600080fd5b865b8181101561128257803567ffffffffffffffff8082111561119f5760008081fd5b818a019150606082360312156111b55760008081fd5b6111bd6110cd565b6111c683610f1c565b815286830135600381106111da5760008081fd5b81880152604083810135838111156111f25760008081fd5b939093019236601f85011261120957600092508283fd5b8335925061121961115984611127565b83815292871b840188019288810190368511156112365760008081fd5b948901945b8486101561126b5785356001600160e01b03198116811461125c5760008081fd5b8252948901949089019061123b565b91830191909152508852505094830194830161117e565b5092979650505050505050565b634e487b7160e01b600052603260045260246000fd5b634e487b7160e01b600052602160045260246000fd5b634e487b7160e01b600052601160045260246000fd5b6000600182016112e3576112e36112bb565b5060010190565b60005b838110156113055781810151838201526020016112ed565b50506000910152565b600081518084526113268160208601602086016112ea565b601f01601f19169290920160200192915050565b60006060808301818452808751808352608092508286019150828160051b8701016020808b0160005b8481101561140a57898403607f19018652815180516001600160a01b031685528381015189860190600381106113a957634e487b7160e01b600052602160045260246000fd5b868601526040918201519186018a905281519081905290840190600090898701905b808310156113f55783516001600160e01b03191682529286019260019290920191908601906113cb565b50978501979550505090820190600101611363565b50506001600160a01b038a1690880152868103604088015261142c818961130e565b9a9950505050505050505050565b6020808252602b908201527f4c69624469616d6f6e644375743a204e6f2073656c6563746f727320696e206660408201526a1858d95d081d1bc818dd5d60aa1b606082015260800190565b6020808252602c908201527f4c69624469616d6f6e644375743a204164642066616365742063616e2774206260408201526b65206164647265737328302960a01b606082015260800190565b60006001600160601b038083168181036114ed576114ed6112bb565b6001019392505050565b600082516115098184602087016112ea565b9190910192915050565b6001600160a01b03831681526040602082018190526000906115379083018461130e565b949350505050565b81810381811115611552576115526112bb565b92915050565b634e487b7160e01b600052603160045260246000fd5b602081526000610f53602083018461130e56fec8fcad8db84d3cc18b4c41d551ea0ee66dd599cde068d998e57d5e09332c131c4c69624469616d6f6e644375743a205f696e6974206164647265737320686173206e6f20636f64654c69624469616d6f6e644375743a204e657720666163657420686173206e6f20636f6465a2646970667358221220f43c72f94d1ed747ed61a38c061ec20895f6eefe02268e1c3ad179d156c40dfd64736f6c63430008150033",
    "linkReferences": {}
  },
  "methodIdentifiers": {
    "changeAdminFeeRecipient(address)": "cffd8493",
    "changeDefaultSlippage(uint16)": "2bc8a42d",
    "changeUniFee(uint24)": "5acb2ecb",
    "claimReward()": "b88a802f",
    "diamondCut((address,uint8,bytes4[])[],address,bytes)": "1f931c1c",
    "earned(address)": "008cc262",
    "getCirculatingSupply()": "2b112e49",
    "getRecicledSupply()": "6a533a4c",
    "getRewardRate()": "7e1a3786",
    "lastTimeRewardApplicable()": "80faa57d",
    "notifyRewardAmount(uint256)": "3c6b16ab",
    "rewardPerToken()": "cd3daf9d",
    "setRewardsDuration(uint256)": "cc1a378f",
    "storeOZL(address)": "3bba4b35"
  },
  "id": 14
}