{"abi":[{"type":"function","name":"addPauseContract","inputs":[{"name":"facet_","type":"address","internalType":"address"}],"outputs":[],"stateMutability":"nonpayable"},{"type":"function","name":"changeAdminFee","inputs":[{"name":"newFee_","type":"uint16","internalType":"uint16"}],"outputs":[],"stateMutability":"nonpayable"},{"type":"function","name":"changeAdminFeeRecipient","inputs":[{"name":"newRecipient_","type":"address","internalType":"address"}],"outputs":[],"stateMutability":"nonpayable"},{"type":"function","name":"changeDefaultSlippage","inputs":[{"name":"newBps_","type":"uint16","internalType":"uint16"}],"outputs":[],"stateMutability":"nonpayable"},{"type":"function","name":"changeProtocolFee","inputs":[{"name":"newFee_","type":"uint24","internalType":"uint24"}],"outputs":[],"stateMutability":"nonpayable"},{"type":"function","name":"changeUniFee","inputs":[{"name":"newBps_","type":"uint24","internalType":"uint24"}],"outputs":[],"stateMutability":"nonpayable"},{"type":"function","name":"claimReward","inputs":[],"outputs":[{"name":"","type":"uint256","internalType":"uint256"}],"stateMutability":"nonpayable"},{"type":"function","name":"diamondCut","inputs":[{"name":"_diamondCut","type":"tuple[]","internalType":"struct IDiamondCut.FacetCut[]","components":[{"name":"facetAddress","type":"address","internalType":"address"},{"name":"action","type":"uint8","internalType":"enum IDiamondCut.FacetCutAction"},{"name":"functionSelectors","type":"bytes4[]","internalType":"bytes4[]"}]},{"name":"_init","type":"address","internalType":"address"},{"name":"_calldata","type":"bytes","internalType":"bytes"}],"outputs":[],"stateMutability":"nonpayable"},{"type":"function","name":"earned","inputs":[{"name":"user_","type":"address","internalType":"address"}],"outputs":[{"name":"","type":"uint256","internalType":"uint256"}],"stateMutability":"view"},{"type":"function","name":"enableSwitch","inputs":[{"name":"newState_","type":"bool","internalType":"bool"}],"outputs":[{"name":"","type":"bool","internalType":"bool"}],"stateMutability":"nonpayable"},{"type":"function","name":"getRewardsData","inputs":[],"outputs":[{"name":"rewardRate","type":"uint256","internalType":"uint256"},{"name":"circulatingSupply","type":"uint256","internalType":"uint256"},{"name":"pendingAllocation","type":"uint256","internalType":"uint256"},{"name":"recicledSupply","type":"uint256","internalType":"uint256"},{"name":"durationLeft","type":"int256","internalType":"int256"}],"stateMutability":"view"},{"type":"function","name":"lastTimeRewardApplicable","inputs":[],"outputs":[{"name":"","type":"uint256","internalType":"uint256"}],"stateMutability":"view"},{"type":"function","name":"notifyRewardAmount","inputs":[{"name":"amount_","type":"uint256","internalType":"uint256"}],"outputs":[],"stateMutability":"nonpayable"},{"type":"function","name":"pause","inputs":[{"name":"index_","type":"uint256","internalType":"uint256"},{"name":"newState_","type":"bool","internalType":"bool"}],"outputs":[{"name":"","type":"bool","internalType":"bool"}],"stateMutability":"nonpayable"},{"type":"function","name":"rewardPerToken","inputs":[],"outputs":[{"name":"","type":"uint256","internalType":"uint256"}],"stateMutability":"view"},{"type":"function","name":"setRewardsDuration","inputs":[{"name":"duration_","type":"uint256","internalType":"uint256"}],"outputs":[],"stateMutability":"nonpayable"},{"type":"function","name":"storeOZL","inputs":[{"name":"ozlProxy_","type":"address","internalType":"address"}],"outputs":[],"stateMutability":"nonpayable"},{"type":"event","name":"DiamondCut","inputs":[{"name":"_diamondCut","type":"tuple[]","indexed":false,"internalType":"struct IDiamondCut.FacetCut[]","components":[{"name":"facetAddress","type":"address","internalType":"address"},{"name":"action","type":"uint8","internalType":"enum IDiamondCut.FacetCutAction"},{"name":"functionSelectors","type":"bytes4[]","internalType":"bytes4[]"}]},{"name":"_init","type":"address","indexed":false,"internalType":"address"},{"name":"_calldata","type":"bytes","indexed":false,"internalType":"bytes"}],"anonymous":false},{"type":"error","name":"InitializationFunctionReverted","inputs":[{"name":"_initializationContractAddress","type":"address","internalType":"address"},{"name":"_calldata","type":"bytes","internalType":"bytes"}]},{"type":"error","name":"OZError13","inputs":[{"name":"caller","type":"address","internalType":"address"}]},{"type":"error","name":"OZError28","inputs":[{"name":"state","type":"bool","internalType":"bool"}]},{"type":"error","name":"OZError29","inputs":[]},{"type":"error","name":"OZError30","inputs":[]},{"type":"error","name":"OZError31","inputs":[{"name":"facet","type":"address","internalType":"address"}]},{"type":"error","name":"OZError32","inputs":[]},{"type":"error","name":"OZError33","inputs":[{"name":"caller","type":"address","internalType":"address"}]}],"bytecode":{"object":"0x608060405234801561000f575f80fd5b50611b578061001d5f395ff3fe608060405234801561000f575f80fd5b5060043610610105575f3560e01c806393578b041161009e578063cc9999e21161006e578063cc9999e2146101f6578063cd3daf9d146101ba578063cffd849314610209578063e8d534901461021c578063ee0927951461022f575f80fd5b806393578b04146101c0578063997d37b1146101e3578063b88a802f146101ba578063cc1a378f1461016a575f80fd5b80633c6b16ab116100d95780633c6b16ab1461016a5780635acb2ecb1461017b5780637d098e641461018e57806380faa57d146101ba575f80fd5b80628cc262146101095780631f931c1c1461012f5780632bc8a42d146101445780633bba4b3514610157575b5f80fd5b61011c6101173660046113b6565b505f90565b6040519081526020015b60405180910390f35b61014261013d36600461141b565b610242565b005b6101426101523660046114c4565b61029a565b6101426101653660046113b6565b6102f3565b6101426101783660046114e5565b50565b6101426101893660046114fc565b61036c565b604080515f8082526020820181905291810182905260608101829052608081019190915260a001610126565b5f61011c565b6101d36101ce36600461152d565b6103b8565b6040519015158152602001610126565b6101426101f13660046114fc565b6104da565b6101426102043660046114c4565b610536565b6101426102173660046113b6565b61058a565b61014261022a3660046113b6565b6105d9565b6101d361023d366004611557565b6106ed565b61024a61070d565b6102936102578587611616565b8484848080601f0160208091040260200160405190810160405280939291908181526020018383808284375f9201919091525061078392505050565b5050505050565b336102a3610984565b6001600160a01b0316146102d1576040516322717c0360e11b81523360048201526024015b60405180910390fd5b6007805461ffff909216600160a01b0261ffff60a01b19909216919091179055565b336102fc610984565b6001600160a01b031614610325576040516322717c0360e11b81523360048201526024016102c8565b601380546001600160a01b039092166901000000000000000000027fffffff0000000000000000000000000000000000000000ffffffffffffffffff909216919091179055565b33610375610984565b6001600160a01b03161461039e576040516322717c0360e11b81523360048201526024016102c8565b6013805462ffffff191662ffffff92909216919091179055565b5f336103c2610984565b6001600160a01b0316146103eb576040516322717c0360e11b81523360048201526024016102c8565b600883901c5f90815260286020526040902054821515600160ff86161b90911615150361042f57604051638b834ef360e01b815282151560048201526024016102c8565b826001036104505760405163604f135b60e11b815260040160405180910390fd5b602b5460ff1661047357604051633d72899f60e21b815260040160405180910390fd5b61047f602884846109b2565b60015b60295461ffff168110156104cf57600881901c5f90815260286020526040902054600160ff83161b16156104c7576104bd60286001806109b2565b60019150506104d4565b600101610482565b505f90505b92915050565b336104e3610984565b6001600160a01b03161461050c576040516322717c0360e11b81523360048201526024016102c8565b6013805462ffffff90921666010000000000000268ffffff00000000000019909216919091179055565b3361053f610984565b6001600160a01b031614610568576040516322717c0360e11b81523360048201526024016102c8565b601f805461ffff909216600160a01b0261ffff60a01b19909216919091179055565b601f546001600160a01b031633146105b75760405163a43f931360e01b81523360048201526024016102c8565b601f80546001600160a01b0319166001600160a01b0392909216919091179055565b6105e161070d565b6001600160a01b03811661060857604051631b3aaf7d60e11b815260040160405180910390fd5b6040516356fe50af60e11b81526001600160a01b0382166004820152309063adfca15e906024015f60405180830381865afa158015610649573d5f803e3d5ffd5b505050506040513d5f823e601f3d908101601f19168201604052610670919081019061173c565b515f0361069b576040516324a4e19760e11b81526001600160a01b03821660048201526024016102c8565b602980546001600160a01b0383165f908152602a6020526040812061ffff92831690558254600193926106d0918591166117e5565b92506101000a81548161ffff021916908361ffff16021790555050565b5f6106f661070d565b50602b805460ff1916911515918217905560ff1690565b5f80516020611ab6833981519152600401546001600160a01b031633146107815760405162461bcd60e51b815260206004820152602260248201527f4c69624469616d6f6e643a204d75737420626520636f6e7472616374206f776e60448201526132b960f11b60648201526084016102c8565b565b5f5b8351811015610939575f8482815181106107a1576107a1611807565b60200260200101516020015190505f60028111156107c1576107c161181b565b8160028111156107d3576107d361181b565b036108205761081b8583815181106107ed576107ed611807565b60200260200101515f015186848151811061080a5761080a611807565b6020026020010151604001516109ff565b610930565b60018160028111156108345761083461181b565b0361087c5761081b85838151811061084e5761084e611807565b60200260200101515f015186848151811061086b5761086b611807565b602002602001015160400151610b6a565b60028160028111156108905761089061181b565b036108d85761081b8583815181106108aa576108aa611807565b60200260200101515f01518684815181106108c7576108c7611807565b602002602001015160400151610ced565b60405162461bcd60e51b815260206004820152602760248201527f4c69624469616d6f6e644375743a20496e636f727265637420466163657443756044820152663a20b1ba34b7b760c91b60648201526084016102c8565b50600101610785565b507f8faa70878671ccd212d20771b795c50af8fd3ff6cf27f4bde57e5d4de0aeb67383838360405161096d9392919061187c565b60405180910390a161097f8282610dfb565b505050565b7fc8fcad8db84d3cc18b4c41d551ea0ee66dd599cde068d998e57d5e09332c1320546001600160a01b031690565b80156109db57600882901c5f9081526020849052604090208054600160ff85161b179055505050565b600882901c5f9081526020849052604090208054600160ff85161b19169055505050565b5f815111610a1f5760405162461bcd60e51b81526004016102c89061197a565b5f80516020611ab68339815191526001600160a01b038316610a535760405162461bcd60e51b81526004016102c8906119c5565b6001600160a01b0383165f908152600182016020526040812054906001600160601b0382169003610a8857610a888285610ebd565b5f5b8351811015610293575f848281518110610aa657610aa6611807565b6020908102919091018101516001600160e01b031981165f908152918690526040909120549091506001600160a01b03168015610b435760405162461bcd60e51b815260206004820152603560248201527f4c69624469616d6f6e644375743a2043616e2774206164642066756e6374696f6044820152746e207468617420616c72656164792065786973747360581b60648201526084016102c8565b610b4f8583868a610f26565b83610b5981611a11565b94505060019092019150610a8a9050565b5f815111610b8a5760405162461bcd60e51b81526004016102c89061197a565b5f80516020611ab68339815191526001600160a01b038316610bbe5760405162461bcd60e51b81526004016102c8906119c5565b6001600160a01b0383165f908152600182016020526040812054906001600160601b0382169003610bf357610bf38285610ebd565b5f5b8351811015610293575f848281518110610c1157610c11611807565b6020908102919091018101516001600160e01b031981165f908152918690526040909120549091506001600160a01b039081169087168103610cbb5760405162461bcd60e51b815260206004820152603860248201527f4c69624469616d6f6e644375743a2043616e2774207265706c6163652066756e60448201527f6374696f6e20776974682073616d652066756e6374696f6e000000000000000060648201526084016102c8565b610cc6858284610fc5565b610cd28583868a610f26565b83610cdc81611a11565b94505060019092019150610bf59050565b5f815111610d0d5760405162461bcd60e51b81526004016102c89061197a565b5f80516020611ab68339815191526001600160a01b03831615610d915760405162461bcd60e51b815260206004820152603660248201527f4c69624469616d6f6e644375743a2052656d6f76652066616365742061646472604482015275657373206d757374206265206164647265737328302960501b60648201526084016102c8565b5f5b8251811015610df5575f838281518110610daf57610daf611807565b6020908102919091018101516001600160e01b031981165f908152918590526040909120549091506001600160a01b0316610deb848284610fc5565b5050600101610d93565b50505050565b6001600160a01b038216610e0d575050565b610e2f82604051806060016040528060288152602001611ad66028913961137a565b5f80836001600160a01b031683604051610e499190611a36565b5f60405180830381855af49150503d805f8114610e81576040519150601f19603f3d011682016040523d82523d5f602084013e610e86565b606091505b509150915081610df557805115610ea05780518082602001fd5b838360405163192105d760e01b81526004016102c8929190611a51565b610edf81604051806060016040528060248152602001611afe6024913961137a565b6002820180546001600160a01b039092165f8181526001948501602090815260408220860185905594840183559182529290200180546001600160a01b0319169091179055565b6001600160e01b031983165f8181526020868152604080832080546001600160601b03909716600160a01b026001600160a01b0397881617815594909516808352600180890183529583208054968701815583528183206008870401805460e09890981c60046007909816979097026101000a96870263ffffffff9097021990971695909517909555529290915281546001600160a01b031916179055565b6001600160a01b0382166110415760405162461bcd60e51b815260206004820152603760248201527f4c69624469616d6f6e644375743a2043616e27742072656d6f76652066756e6360448201527f74696f6e207468617420646f65736e277420657869737400000000000000000060648201526084016102c8565b306001600160a01b038316036110b05760405162461bcd60e51b815260206004820152602e60248201527f4c69624469616d6f6e644375743a2043616e27742072656d6f766520696d6d7560448201526d3a30b1363290333ab731ba34b7b760911b60648201526084016102c8565b6001600160e01b031981165f90815260208481526040808320546001600160a01b0386168452600180880190935290832054600160a01b9091046001600160601b031692916110fe91611a7c565b90508082146111ed576001600160a01b0384165f908152600186016020526040812080548390811061113257611132611807565b5f91825260208083206008830401546001600160a01b038916845260018a019091526040909220805460079092166004026101000a90920460e01b92508291908590811061118257611182611807565b5f91825260208083206008830401805463ffffffff60079094166004026101000a938402191660e09590951c929092029390931790556001600160e01b03199290921682528690526040902080546001600160a01b0316600160a01b6001600160601b038516021790555b6001600160a01b0384165f908152600186016020526040902080548061121557611215611a8f565b5f828152602080822060085f1990940193840401805463ffffffff600460078716026101000a0219169055919092556001600160e01b031985168252869052604081208190558190036102935760028501545f9061127590600190611a7c565b6001600160a01b0386165f908152600180890160205260409091200154909150808214611320575f8760020183815481106112b2576112b2611807565b5f918252602090912001546002890180546001600160a01b0390921692508291849081106112e2576112e2611807565b5f91825260208083209190910180546001600160a01b0319166001600160a01b03948516179055929091168152600189810190925260409020018190555b8660020180548061133357611333611a8f565b5f828152602080822083015f1990810180546001600160a01b03191690559092019092556001600160a01b0388168252600189810190915260408220015550505050505050565b813b8181610df55760405162461bcd60e51b81526004016102c89190611aa3565b80356001600160a01b03811681146113b1575f80fd5b919050565b5f602082840312156113c6575f80fd5b6113cf8261139b565b9392505050565b5f8083601f8401126113e6575f80fd5b50813567ffffffffffffffff8111156113fd575f80fd5b602083019150836020828501011115611414575f80fd5b9250929050565b5f805f805f6060868803121561142f575f80fd5b853567ffffffffffffffff80821115611446575f80fd5b818801915088601f830112611459575f80fd5b813581811115611467575f80fd5b8960208260051b850101111561147b575f80fd5b602083019750809650506114916020890161139b565b945060408801359150808211156114a6575f80fd5b506114b3888289016113d6565b969995985093965092949392505050565b5f602082840312156114d4575f80fd5b813561ffff811681146113cf575f80fd5b5f602082840312156114f5575f80fd5b5035919050565b5f6020828403121561150c575f80fd5b813562ffffff811681146113cf575f80fd5b803580151581146113b1575f80fd5b5f806040838503121561153e575f80fd5b8235915061154e6020840161151e565b90509250929050565b5f60208284031215611567575f80fd5b6113cf8261151e565b634e487b7160e01b5f52604160045260245ffd5b6040516060810167ffffffffffffffff811182821017156115a7576115a7611570565b60405290565b604051601f8201601f1916810167ffffffffffffffff811182821017156115d6576115d6611570565b604052919050565b5f67ffffffffffffffff8211156115f7576115f7611570565b5060051b60200190565b6001600160e01b031981168114610178575f80fd5b5f611628611623846115de565b6115ad565b83815260208082019190600586811b860136811115611645575f80fd5b865b8181101561172f57803567ffffffffffffffff80821115611666575f80fd5b818a0191506060823603121561167a575f80fd5b611682611584565b61168b8361139b565b8152868301356003811061169d575f80fd5b81880152604083810135838111156116b3575f80fd5b939093019236601f8501126116c6575f80fd5b833592506116d6611623846115de565b83815292871b840188019288810190368511156116f1575f80fd5b948901945b8486101561171857853561170981611601565b825294890194908901906116f6565b918301919091525088525050948301948301611647565b5092979650505050505050565b5f602080838503121561174d575f80fd5b825167ffffffffffffffff811115611763575f80fd5b8301601f81018513611773575f80fd5b8051611781611623826115de565b81815260059190911b8201830190838101908783111561179f575f80fd5b928401925b828410156117c65783516117b781611601565b825292840192908401906117a4565b979650505050505050565b634e487b7160e01b5f52601160045260245ffd5b61ffff818116838216019080821115611800576118006117d1565b5092915050565b634e487b7160e01b5f52603260045260245ffd5b634e487b7160e01b5f52602160045260245ffd5b5f5b83811015611849578181015183820152602001611831565b50505f910152565b5f815180845261186881602086016020860161182f565b601f01601f19169290920160200192915050565b5f6060808301606084528087518083526080925060808601915060808160051b8701016020808b015f5b8481101561194a57898403607f19018652815180516001600160a01b031685528381015189860190600381106118ea57634e487b7160e01b5f52602160045260245ffd5b868601526040918201519186018a9052815190819052908401905f90898701905b808310156119355783516001600160e01b031916825292860192600192909201919086019061190b565b509785019795505050908201906001016118a6565b50506001600160a01b038a1690880152868103604088015261196c8189611851565b9a9950505050505050505050565b6020808252602b908201527f4c69624469616d6f6e644375743a204e6f2073656c6563746f727320696e206660408201526a1858d95d081d1bc818dd5d60aa1b606082015260800190565b6020808252602c908201527f4c69624469616d6f6e644375743a204164642066616365742063616e2774206260408201526b65206164647265737328302960a01b606082015260800190565b5f6001600160601b03808316818103611a2c57611a2c6117d1565b6001019392505050565b5f8251611a4781846020870161182f565b9190910192915050565b6001600160a01b03831681526040602082018190525f90611a7490830184611851565b949350505050565b818103818111156104d4576104d46117d1565b634e487b7160e01b5f52603160045260245ffd5b602081525f6113cf602083018461185156fec8fcad8db84d3cc18b4c41d551ea0ee66dd599cde068d998e57d5e09332c131c4c69624469616d6f6e644375743a205f696e6974206164647265737320686173206e6f20636f64654c69624469616d6f6e644375743a204e657720666163657420686173206e6f20636f6465a264697066735822122065afffa94f360d07ea18163483a0a15cd344a93f9c290337bf982ba9bd80438864736f6c63430008180033","linkReferences":{}},"methodIdentifiers":{"addPauseContract(address)":"e8d53490","changeAdminFee(uint16)":"cc9999e2","changeAdminFeeRecipient(address)":"cffd8493","changeDefaultSlippage(uint16)":"2bc8a42d","changeProtocolFee(uint24)":"997d37b1","changeUniFee(uint24)":"5acb2ecb","claimReward()":"b88a802f","diamondCut((address,uint8,bytes4[])[],address,bytes)":"1f931c1c","earned(address)":"008cc262","enableSwitch(bool)":"ee092795","getRewardsData()":"7d098e64","lastTimeRewardApplicable()":"80faa57d","notifyRewardAmount(uint256)":"3c6b16ab","pause(uint256,bool)":"93578b04","rewardPerToken()":"cd3daf9d","setRewardsDuration(uint256)":"cc1a378f","storeOZL(address)":"3bba4b35"},"id":14}