{
  "abi": [
    {
      "inputs": [
        {
          "internalType": "address",
          "name": "_initializationContractAddress",
          "type": "address"
        },
        {
          "internalType": "bytes",
          "name": "_calldata",
          "type": "bytes"
        }
      ],
      "name": "InitializationFunctionReverted",
      "type": "error"
    },
    {
      "inputs": [
        {
          "internalType": "address",
          "name": "caller",
          "type": "address"
        }
      ],
      "name": "OZError13",
      "type": "error"
    },
    {
      "anonymous": false,
      "inputs": [
        {
          "components": [
            {
              "internalType": "address",
              "name": "facetAddress",
              "type": "address"
            },
            {
              "internalType": "enum IDiamondCut.FacetCutAction",
              "name": "action",
              "type": "uint8"
            },
            {
              "internalType": "bytes4[]",
              "name": "functionSelectors",
              "type": "bytes4[]"
            }
          ],
          "indexed": false,
          "internalType": "struct IDiamondCut.FacetCut[]",
          "name": "_diamondCut",
          "type": "tuple[]"
        },
        {
          "indexed": false,
          "internalType": "address",
          "name": "_init",
          "type": "address"
        },
        {
          "indexed": false,
          "internalType": "bytes",
          "name": "_calldata",
          "type": "bytes"
        }
      ],
      "name": "DiamondCut",
      "type": "event"
    },
    {
      "inputs": [
        {
          "internalType": "address",
          "name": "newRecipient_",
          "type": "address"
        }
      ],
      "name": "changeAdminFeeRecipient",
      "outputs": [],
      "stateMutability": "nonpayable",
      "type": "function"
    },
    {
      "inputs": [
        {
          "internalType": "uint16",
          "name": "newBps_",
          "type": "uint16"
        }
      ],
      "name": "changeDefaultSlippage",
      "outputs": [],
      "stateMutability": "nonpayable",
      "type": "function"
    },
    {
      "inputs": [
        {
          "internalType": "uint24",
          "name": "newBps_",
          "type": "uint24"
        }
      ],
      "name": "changeUniFee",
      "outputs": [],
      "stateMutability": "nonpayable",
      "type": "function"
    },
    {
      "inputs": [],
      "name": "claimReward",
      "outputs": [
        {
          "internalType": "uint256",
          "name": "",
          "type": "uint256"
        }
      ],
      "stateMutability": "nonpayable",
      "type": "function"
    },
    {
      "inputs": [
        {
          "components": [
            {
              "internalType": "address",
              "name": "facetAddress",
              "type": "address"
            },
            {
              "internalType": "enum IDiamondCut.FacetCutAction",
              "name": "action",
              "type": "uint8"
            },
            {
              "internalType": "bytes4[]",
              "name": "functionSelectors",
              "type": "bytes4[]"
            }
          ],
          "internalType": "struct IDiamondCut.FacetCut[]",
          "name": "_diamondCut",
          "type": "tuple[]"
        },
        {
          "internalType": "address",
          "name": "_init",
          "type": "address"
        },
        {
          "internalType": "bytes",
          "name": "_calldata",
          "type": "bytes"
        }
      ],
      "name": "diamondCut",
      "outputs": [],
      "stateMutability": "nonpayable",
      "type": "function"
    },
    {
      "inputs": [
        {
          "internalType": "address",
          "name": "user_",
          "type": "address"
        }
      ],
      "name": "earned",
      "outputs": [
        {
          "internalType": "uint256",
          "name": "",
          "type": "uint256"
        }
      ],
      "stateMutability": "view",
      "type": "function"
    },
    {
      "inputs": [],
      "name": "getRewardsData",
      "outputs": [
        {
          "internalType": "uint256",
          "name": "rewardRate",
          "type": "uint256"
        },
        {
          "internalType": "uint256",
          "name": "circulatingSupply",
          "type": "uint256"
        },
        {
          "internalType": "uint256",
          "name": "pendingAllocation",
          "type": "uint256"
        },
        {
          "internalType": "uint256",
          "name": "recicledSupply",
          "type": "uint256"
        },
        {
          "internalType": "int256",
          "name": "durationLeft",
          "type": "int256"
        }
      ],
      "stateMutability": "view",
      "type": "function"
    },
    {
      "inputs": [],
      "name": "lastTimeRewardApplicable",
      "outputs": [
        {
          "internalType": "uint256",
          "name": "",
          "type": "uint256"
        }
      ],
      "stateMutability": "view",
      "type": "function"
    },
    {
      "inputs": [
        {
          "internalType": "uint256",
          "name": "amount_",
          "type": "uint256"
        }
      ],
      "name": "notifyRewardAmount",
      "outputs": [],
      "stateMutability": "nonpayable",
      "type": "function"
    },
    {
      "inputs": [],
      "name": "rewardPerToken",
      "outputs": [
        {
          "internalType": "uint256",
          "name": "",
          "type": "uint256"
        }
      ],
      "stateMutability": "view",
      "type": "function"
    },
    {
      "inputs": [
        {
          "internalType": "uint256",
          "name": "duration_",
          "type": "uint256"
        }
      ],
      "name": "setRewardsDuration",
      "outputs": [],
      "stateMutability": "nonpayable",
      "type": "function"
    },
    {
      "inputs": [
        {
          "internalType": "address",
          "name": "ozlProxy_",
          "type": "address"
        }
      ],
      "name": "storeOZL",
      "outputs": [],
      "stateMutability": "nonpayable",
      "type": "function"
    }
  ],
  "bytecode": {
    "object": "0x608060405234801561001057600080fd5b50611636806100206000396000f3fe608060405234801561001057600080fd5b50600436106100b35760003560e01c80637d098e64116100715780637d098e641461013e57806380faa57d1461016b578063b88a802f1461016b578063cc1a378f1461011a578063cd3daf9d1461016b578063cffd84931461017257600080fd5b80628cc262146100b85780631f931c1c146100df5780632bc8a42d146100f45780633bba4b35146101075780633c6b16ab1461011a5780635acb2ecb1461012b575b600080fd5b6100cc6100c6366004610f4b565b50600090565b6040519081526020015b60405180910390f35b6100f26100ed366004610fb6565b610185565b005b6100f2610102366004611068565b6101de565b6100f2610115366004610f4b565b610208565b6100f261012836600461108c565b50565b6100f26101393660046110a5565b610257565b6040805160008082526020820181905291810182905260608101829052608081019190915260a0016100d6565b60006100cc565b6100f2610180366004610f4b565b610279565b61018d6102cd565b6101d761019a858761115e565b8484848080601f01602080910402602001604051908101604052809392919081815260200183838082843760009201919091525061034492505050565b5050505050565b6101e66102cd565b6007805461ffff909216600160a01b0261ffff60a01b19909216919091179055565b6102106102cd565b601480546001600160a01b039092166901000000000000000000027fffffff0000000000000000000000000000000000000000ffffffffffffffffff909216919091179055565b61025f6102cd565b6014805462ffffff191662ffffff92909216919091179055565b6020546001600160a01b031633146102ab5760405163a43f931360e01b81523360048201526024015b60405180910390fd5b602080546001600160a01b0319166001600160a01b0392909216919091179055565b600080516020611595833981519152600401546001600160a01b031633146103425760405162461bcd60e51b815260206004820152602260248201527f4c69624469616d6f6e643a204d75737420626520636f6e7472616374206f776e60448201526132b960f11b60648201526084016102a2565b565b60005b835181101561050a576000848281518110610364576103646112a2565b602002602001015160200151905060006002811115610385576103856112b8565b816002811115610397576103976112b8565b036103e5576103e08583815181106103b1576103b16112a2565b6020026020010151600001518684815181106103cf576103cf6112a2565b602002602001015160400151610555565b6104f7565b60018160028111156103f9576103f96112b8565b03610442576103e0858381518110610413576104136112a2565b602002602001015160000151868481518110610431576104316112a2565b6020026020010151604001516106cd565b6002816002811115610456576104566112b8565b0361049f576103e0858381518110610470576104706112a2565b60200260200101516000015186848151811061048e5761048e6112a2565b60200260200101516040015161085d565b60405162461bcd60e51b815260206004820152602760248201527f4c69624469616d6f6e644375743a20496e636f727265637420466163657443756044820152663a20b1ba34b7b760c91b60648201526084016102a2565b5080610502816112e4565b915050610347565b507f8faa70878671ccd212d20771b795c50af8fd3ff6cf27f4bde57e5d4de0aeb67383838360405161053e9392919061134d565b60405180910390a1610550828261097b565b505050565b60008151116105765760405162461bcd60e51b81526004016102a29061144d565b6000805160206115958339815191526001600160a01b0383166105ab5760405162461bcd60e51b81526004016102a290611498565b6001600160a01b0383166000908152600182016020526040812054906001600160601b03821690036105e1576105e18285610a41565b60005b83518110156101d7576000848281518110610601576106016112a2565b6020908102919091018101516001600160e01b031981166000908152918690526040909120549091506001600160a01b0316801561069f5760405162461bcd60e51b815260206004820152603560248201527f4c69624469616d6f6e644375743a2043616e2774206164642066756e6374696f6044820152746e207468617420616c72656164792065786973747360581b60648201526084016102a2565b6106ab8583868a610aab565b836106b5816114e4565b945050505080806106c5906112e4565b9150506105e4565b60008151116106ee5760405162461bcd60e51b81526004016102a29061144d565b6000805160206115958339815191526001600160a01b0383166107235760405162461bcd60e51b81526004016102a290611498565b6001600160a01b0383166000908152600182016020526040812054906001600160601b0382169003610759576107598285610a41565b60005b83518110156101d7576000848281518110610779576107796112a2565b6020908102919091018101516001600160e01b031981166000908152918690526040909120549091506001600160a01b0390811690871681036108245760405162461bcd60e51b815260206004820152603860248201527f4c69624469616d6f6e644375743a2043616e2774207265706c6163652066756e60448201527f6374696f6e20776974682073616d652066756e6374696f6e000000000000000060648201526084016102a2565b61082f858284610b4b565b61083b8583868a610aab565b83610845816114e4565b94505050508080610855906112e4565b91505061075c565b600081511161087e5760405162461bcd60e51b81526004016102a29061144d565b6000805160206115958339815191526001600160a01b038316156109035760405162461bcd60e51b815260206004820152603660248201527f4c69624469616d6f6e644375743a2052656d6f76652066616365742061646472604482015275657373206d757374206265206164647265737328302960501b60648201526084016102a2565b60005b8251811015610975576000838281518110610923576109236112a2565b6020908102919091018101516001600160e01b031981166000908152918590526040909120549091506001600160a01b0316610960848284610b4b565b5050808061096d906112e4565b915050610906565b50505050565b6001600160a01b03821661098d575050565b6109af826040518060600160405280602881526020016115b560289139610f0e565b600080836001600160a01b0316836040516109ca919061150a565b600060405180830381855af49150503d8060008114610a05576040519150601f19603f3d011682016040523d82523d6000602084013e610a0a565b606091505b50915091508161097557805115610a245780518082602001fd5b838360405163192105d760e01b81526004016102a2929190611526565b610a63816040518060600160405280602481526020016115dd60249139610f0e565b6002820180546001600160a01b0390921660008181526001948501602090815260408220860185905594840183559182529290200180546001600160a01b0319169091179055565b6001600160e01b0319831660008181526020868152604080832080546001600160601b03909716600160a01b026001600160a01b0397881617815594909516808352600180890183529583208054968701815583528183206008870401805460e09890981c60046007909816979097026101000a96870263ffffffff9097021990971695909517909555529290915281546001600160a01b031916179055565b6001600160a01b038216610bc75760405162461bcd60e51b815260206004820152603760248201527f4c69624469616d6f6e644375743a2043616e27742072656d6f76652066756e6360448201527f74696f6e207468617420646f65736e277420657869737400000000000000000060648201526084016102a2565b306001600160a01b03831603610c365760405162461bcd60e51b815260206004820152602e60248201527f4c69624469616d6f6e644375743a2043616e27742072656d6f766520696d6d7560448201526d3a30b1363290333ab731ba34b7b760911b60648201526084016102a2565b6001600160e01b03198116600090815260208481526040808320546001600160a01b0386168452600180880190935290832054600160a01b9091046001600160601b03169291610c8591611552565b9050808214610d77576001600160a01b03841660009081526001860160205260408120805483908110610cba57610cba6112a2565b600091825260208083206008830401546001600160a01b038916845260018a019091526040909220805460079092166004026101000a90920460e01b925082919085908110610d0b57610d0b6112a2565b600091825260208083206008830401805463ffffffff60079094166004026101000a938402191660e09590951c929092029390931790556001600160e01b03199290921682528690526040902080546001600160a01b0316600160a01b6001600160601b038516021790555b6001600160a01b03841660009081526001860160205260409020805480610da057610da061156b565b60008281526020808220600860001990940193840401805463ffffffff600460078716026101000a0219169055919092556001600160e01b031985168252869052604081208190558190036101d7576002850154600090610e0390600190611552565b6001600160a01b0386166000908152600180890160205260409091200154909150808214610eb2576000876002018381548110610e4257610e426112a2565b6000918252602090912001546002890180546001600160a01b039092169250829184908110610e7357610e736112a2565b600091825260208083209190910180546001600160a01b0319166001600160a01b03948516179055929091168152600189810190925260409020018190555b86600201805480610ec557610ec561156b565b60008281526020808220830160001990810180546001600160a01b03191690559092019092556001600160a01b0388168252600189810190915260408220015550505050505050565b813b81816109755760405162461bcd60e51b81526004016102a29190611581565b80356001600160a01b0381168114610f4657600080fd5b919050565b600060208284031215610f5d57600080fd5b610f6682610f2f565b9392505050565b60008083601f840112610f7f57600080fd5b50813567ffffffffffffffff811115610f9757600080fd5b602083019150836020828501011115610faf57600080fd5b9250929050565b600080600080600060608688031215610fce57600080fd5b853567ffffffffffffffff80821115610fe657600080fd5b818801915088601f830112610ffa57600080fd5b81358181111561100957600080fd5b8960208260051b850101111561101e57600080fd5b6020830197508096505061103460208901610f2f565b9450604088013591508082111561104a57600080fd5b5061105788828901610f6d565b969995985093965092949392505050565b60006020828403121561107a57600080fd5b813561ffff81168114610f6657600080fd5b60006020828403121561109e57600080fd5b5035919050565b6000602082840312156110b757600080fd5b813562ffffff81168114610f6657600080fd5b634e487b7160e01b600052604160045260246000fd5b6040516060810167ffffffffffffffff81118282101715611103576111036110ca565b60405290565b604051601f8201601f1916810167ffffffffffffffff81118282101715611132576111326110ca565b604052919050565b600067ffffffffffffffff821115611154576111546110ca565b5060051b60200190565b600061117161116c8461113a565b611109565b83815260208082019190600586811b86013681111561118f57600080fd5b865b8181101561129557803567ffffffffffffffff808211156111b25760008081fd5b818a019150606082360312156111c85760008081fd5b6111d06110e0565b6111d983610f2f565b815286830135600381106111ed5760008081fd5b81880152604083810135838111156112055760008081fd5b939093019236601f85011261121c57600092508283fd5b8335925061122c61116c8461113a565b83815292871b840188019288810190368511156112495760008081fd5b948901945b8486101561127e5785356001600160e01b03198116811461126f5760008081fd5b8252948901949089019061124e565b918301919091525088525050948301948301611191565b5092979650505050505050565b634e487b7160e01b600052603260045260246000fd5b634e487b7160e01b600052602160045260246000fd5b634e487b7160e01b600052601160045260246000fd5b6000600182016112f6576112f66112ce565b5060010190565b60005b83811015611318578181015183820152602001611300565b50506000910152565b600081518084526113398160208601602086016112fd565b601f01601f19169290920160200192915050565b60006060808301818452808751808352608092508286019150828160051b8701016020808b0160005b8481101561141d57898403607f19018652815180516001600160a01b031685528381015189860190600381106113bc57634e487b7160e01b600052602160045260246000fd5b868601526040918201519186018a905281519081905290840190600090898701905b808310156114085783516001600160e01b03191682529286019260019290920191908601906113de565b50978501979550505090820190600101611376565b50506001600160a01b038a1690880152868103604088015261143f8189611321565b9a9950505050505050505050565b6020808252602b908201527f4c69624469616d6f6e644375743a204e6f2073656c6563746f727320696e206660408201526a1858d95d081d1bc818dd5d60aa1b606082015260800190565b6020808252602c908201527f4c69624469616d6f6e644375743a204164642066616365742063616e2774206260408201526b65206164647265737328302960a01b606082015260800190565b60006001600160601b03808316818103611500576115006112ce565b6001019392505050565b6000825161151c8184602087016112fd565b9190910192915050565b6001600160a01b038316815260406020820181905260009061154a90830184611321565b949350505050565b81810381811115611565576115656112ce565b92915050565b634e487b7160e01b600052603160045260246000fd5b602081526000610f66602083018461132156fec8fcad8db84d3cc18b4c41d551ea0ee66dd599cde068d998e57d5e09332c131c4c69624469616d6f6e644375743a205f696e6974206164647265737320686173206e6f20636f64654c69624469616d6f6e644375743a204e657720666163657420686173206e6f20636f6465a2646970667358221220bb9e2d9fdf16041769ab345827f68fbf8d41c4cee2c80968fc59866d9ccce6b764736f6c63430008150033",
    "linkReferences": {}
  },
  "methodIdentifiers": {
    "changeAdminFeeRecipient(address)": "cffd8493",
    "changeDefaultSlippage(uint16)": "2bc8a42d",
    "changeUniFee(uint24)": "5acb2ecb",
    "claimReward()": "b88a802f",
    "diamondCut((address,uint8,bytes4[])[],address,bytes)": "1f931c1c",
    "earned(address)": "008cc262",
    "getRewardsData()": "7d098e64",
    "lastTimeRewardApplicable()": "80faa57d",
    "notifyRewardAmount(uint256)": "3c6b16ab",
    "rewardPerToken()": "cd3daf9d",
    "setRewardsDuration(uint256)": "cc1a378f",
    "storeOZL(address)": "3bba4b35"
  },
  "id": 14
}