{
  "abi": [
    {
      "inputs": [
        {
          "internalType": "address",
          "name": "_initializationContractAddress",
          "type": "address"
        },
        {
          "internalType": "bytes",
          "name": "_calldata",
          "type": "bytes"
        }
      ],
      "name": "InitializationFunctionReverted",
      "type": "error"
    },
    {
      "anonymous": false,
      "inputs": [
        {
          "components": [
            {
              "internalType": "address",
              "name": "facetAddress",
              "type": "address"
            },
            {
              "internalType": "enum IDiamondCut.FacetCutAction",
              "name": "action",
              "type": "uint8"
            },
            {
              "internalType": "bytes4[]",
              "name": "functionSelectors",
              "type": "bytes4[]"
            }
          ],
          "indexed": false,
          "internalType": "struct IDiamondCut.FacetCut[]",
          "name": "_diamondCut",
          "type": "tuple[]"
        },
        {
          "indexed": false,
          "internalType": "address",
          "name": "_init",
          "type": "address"
        },
        {
          "indexed": false,
          "internalType": "bytes",
          "name": "_calldata",
          "type": "bytes"
        }
      ],
      "name": "DiamondCut",
      "type": "event"
    },
    {
      "inputs": [
        {
          "internalType": "uint16",
          "name": "newBps_",
          "type": "uint16"
        }
      ],
      "name": "changeDefaultSlippage",
      "outputs": [],
      "stateMutability": "nonpayable",
      "type": "function"
    },
    {
      "inputs": [
        {
          "internalType": "uint24",
          "name": "newBps_",
          "type": "uint24"
        }
      ],
      "name": "changeUniFee",
      "outputs": [],
      "stateMutability": "nonpayable",
      "type": "function"
    },
    {
      "inputs": [
        {
          "components": [
            {
              "internalType": "address",
              "name": "facetAddress",
              "type": "address"
            },
            {
              "internalType": "enum IDiamondCut.FacetCutAction",
              "name": "action",
              "type": "uint8"
            },
            {
              "internalType": "bytes4[]",
              "name": "functionSelectors",
              "type": "bytes4[]"
            }
          ],
          "internalType": "struct IDiamondCut.FacetCut[]",
          "name": "_diamondCut",
          "type": "tuple[]"
        },
        {
          "internalType": "address",
          "name": "_init",
          "type": "address"
        },
        {
          "internalType": "bytes",
          "name": "_calldata",
          "type": "bytes"
        }
      ],
      "name": "diamondCut",
      "outputs": [],
      "stateMutability": "nonpayable",
      "type": "function"
    },
    {
      "inputs": [
        {
          "internalType": "address",
          "name": "ozlProxy_",
          "type": "address"
        }
      ],
      "name": "storeOZL",
      "outputs": [],
      "stateMutability": "nonpayable",
      "type": "function"
    }
  ],
  "bytecode": {
    "object": "0x608060405234801561001057600080fd5b506114cd806100206000396000f3fe608060405234801561001057600080fd5b506004361061004c5760003560e01c80631f931c1c146100515780632bc8a42d146100665780633bba4b35146100795780635acb2ecb1461008c575b600080fd5b61006461005f366004610e44565b61009f565b005b610064610074366004610ef6565b6100f8565b610064610087366004610f21565b610122565b61006461009a366004610f3c565b610156565b6100a7610178565b6100f16100b48587610ff5565b8484848080601f0160208091040260200160405190810160405280939291908181526020018383808284376000920191909152506101f492505050565b5050505050565b610100610178565b6007805461ffff909216600160a01b0261ffff60a01b19909216919091179055565b61012a610178565b601680546001600160a01b039092166301000000026301000000600160b81b0319909216919091179055565b61015e610178565b6014805462ffffff191662ffffff92909216919091179055565b60008051602061142c833981519152600401546001600160a01b031633146101f25760405162461bcd60e51b815260206004820152602260248201527f4c69624469616d6f6e643a204d75737420626520636f6e7472616374206f776e60448201526132b960f11b60648201526084015b60405180910390fd5b565b60005b83518110156103ba57600084828151811061021457610214611139565b6020026020010151602001519050600060028111156102355761023561114f565b8160028111156102475761024761114f565b036102955761029085838151811061026157610261611139565b60200260200101516000015186848151811061027f5761027f611139565b602002602001015160400151610405565b6103a7565b60018160028111156102a9576102a961114f565b036102f2576102908583815181106102c3576102c3611139565b6020026020010151600001518684815181106102e1576102e1611139565b60200260200101516040015161057d565b60028160028111156103065761030661114f565b0361034f5761029085838151811061032057610320611139565b60200260200101516000015186848151811061033e5761033e611139565b60200260200101516040015161070d565b60405162461bcd60e51b815260206004820152602760248201527f4c69624469616d6f6e644375743a20496e636f727265637420466163657443756044820152663a20b1ba34b7b760c91b60648201526084016101e9565b50806103b28161117b565b9150506101f7565b507f8faa70878671ccd212d20771b795c50af8fd3ff6cf27f4bde57e5d4de0aeb6738383836040516103ee939291906111e4565b60405180910390a1610400828261082b565b505050565b60008151116104265760405162461bcd60e51b81526004016101e9906112e4565b60008051602061142c8339815191526001600160a01b03831661045b5760405162461bcd60e51b81526004016101e99061132f565b6001600160a01b0383166000908152600182016020526040812054906001600160601b03821690036104915761049182856108f1565b60005b83518110156100f15760008482815181106104b1576104b1611139565b6020908102919091018101516001600160e01b031981166000908152918690526040909120549091506001600160a01b0316801561054f5760405162461bcd60e51b815260206004820152603560248201527f4c69624469616d6f6e644375743a2043616e2774206164642066756e6374696f6044820152746e207468617420616c72656164792065786973747360581b60648201526084016101e9565b61055b8583868a61095b565b836105658161137b565b945050505080806105759061117b565b915050610494565b600081511161059e5760405162461bcd60e51b81526004016101e9906112e4565b60008051602061142c8339815191526001600160a01b0383166105d35760405162461bcd60e51b81526004016101e99061132f565b6001600160a01b0383166000908152600182016020526040812054906001600160601b03821690036106095761060982856108f1565b60005b83518110156100f157600084828151811061062957610629611139565b6020908102919091018101516001600160e01b031981166000908152918690526040909120549091506001600160a01b0390811690871681036106d45760405162461bcd60e51b815260206004820152603860248201527f4c69624469616d6f6e644375743a2043616e2774207265706c6163652066756e60448201527f6374696f6e20776974682073616d652066756e6374696f6e000000000000000060648201526084016101e9565b6106df8582846109fb565b6106eb8583868a61095b565b836106f58161137b565b945050505080806107059061117b565b91505061060c565b600081511161072e5760405162461bcd60e51b81526004016101e9906112e4565b60008051602061142c8339815191526001600160a01b038316156107b35760405162461bcd60e51b815260206004820152603660248201527f4c69624469616d6f6e644375743a2052656d6f76652066616365742061646472604482015275657373206d757374206265206164647265737328302960501b60648201526084016101e9565b60005b82518110156108255760008382815181106107d3576107d3611139565b6020908102919091018101516001600160e01b031981166000908152918590526040909120549091506001600160a01b03166108108482846109fb565b5050808061081d9061117b565b9150506107b6565b50505050565b6001600160a01b03821661083d575050565b61085f8260405180606001604052806028815260200161144c60289139610dbe565b600080836001600160a01b03168360405161087a91906113a1565b600060405180830381855af49150503d80600081146108b5576040519150601f19603f3d011682016040523d82523d6000602084013e6108ba565b606091505b509150915081610825578051156108d45780518082602001fd5b838360405163192105d760e01b81526004016101e99291906113bd565b6109138160405180606001604052806024815260200161147460249139610dbe565b6002820180546001600160a01b0390921660008181526001948501602090815260408220860185905594840183559182529290200180546001600160a01b0319169091179055565b6001600160e01b0319831660008181526020868152604080832080546001600160601b03909716600160a01b026001600160a01b0397881617815594909516808352600180890183529583208054968701815583528183206008870401805460e09890981c60046007909816979097026101000a96870263ffffffff9097021990971695909517909555529290915281546001600160a01b031916179055565b6001600160a01b038216610a775760405162461bcd60e51b815260206004820152603760248201527f4c69624469616d6f6e644375743a2043616e27742072656d6f76652066756e6360448201527f74696f6e207468617420646f65736e277420657869737400000000000000000060648201526084016101e9565b306001600160a01b03831603610ae65760405162461bcd60e51b815260206004820152602e60248201527f4c69624469616d6f6e644375743a2043616e27742072656d6f766520696d6d7560448201526d3a30b1363290333ab731ba34b7b760911b60648201526084016101e9565b6001600160e01b03198116600090815260208481526040808320546001600160a01b0386168452600180880190935290832054600160a01b9091046001600160601b03169291610b35916113e9565b9050808214610c27576001600160a01b03841660009081526001860160205260408120805483908110610b6a57610b6a611139565b600091825260208083206008830401546001600160a01b038916845260018a019091526040909220805460079092166004026101000a90920460e01b925082919085908110610bbb57610bbb611139565b600091825260208083206008830401805463ffffffff60079094166004026101000a938402191660e09590951c929092029390931790556001600160e01b03199290921682528690526040902080546001600160a01b0316600160a01b6001600160601b038516021790555b6001600160a01b03841660009081526001860160205260409020805480610c5057610c50611402565b60008281526020808220600860001990940193840401805463ffffffff600460078716026101000a0219169055919092556001600160e01b031985168252869052604081208190558190036100f1576002850154600090610cb3906001906113e9565b6001600160a01b0386166000908152600180890160205260409091200154909150808214610d62576000876002018381548110610cf257610cf2611139565b6000918252602090912001546002890180546001600160a01b039092169250829184908110610d2357610d23611139565b600091825260208083209190910180546001600160a01b0319166001600160a01b03948516179055929091168152600189810190925260409020018190555b86600201805480610d7557610d75611402565b60008281526020808220830160001990810180546001600160a01b03191690559092019092556001600160a01b0388168252600189810190915260408220015550505050505050565b813b81816108255760405162461bcd60e51b81526004016101e99190611418565b80356001600160a01b0381168114610df657600080fd5b919050565b60008083601f840112610e0d57600080fd5b50813567ffffffffffffffff811115610e2557600080fd5b602083019150836020828501011115610e3d57600080fd5b9250929050565b600080600080600060608688031215610e5c57600080fd5b853567ffffffffffffffff80821115610e7457600080fd5b818801915088601f830112610e8857600080fd5b813581811115610e9757600080fd5b8960208260051b8501011115610eac57600080fd5b60208301975080965050610ec260208901610ddf565b94506040880135915080821115610ed857600080fd5b50610ee588828901610dfb565b969995985093965092949392505050565b600060208284031215610f0857600080fd5b813561ffff81168114610f1a57600080fd5b9392505050565b600060208284031215610f3357600080fd5b610f1a82610ddf565b600060208284031215610f4e57600080fd5b813562ffffff81168114610f1a57600080fd5b634e487b7160e01b600052604160045260246000fd5b6040516060810167ffffffffffffffff81118282101715610f9a57610f9a610f61565b60405290565b604051601f8201601f1916810167ffffffffffffffff81118282101715610fc957610fc9610f61565b604052919050565b600067ffffffffffffffff821115610feb57610feb610f61565b5060051b60200190565b600061100861100384610fd1565b610fa0565b83815260208082019190600586811b86013681111561102657600080fd5b865b8181101561112c57803567ffffffffffffffff808211156110495760008081fd5b818a0191506060823603121561105f5760008081fd5b611067610f77565b61107083610ddf565b815286830135600381106110845760008081fd5b818801526040838101358381111561109c5760008081fd5b939093019236601f8501126110b357600092508283fd5b833592506110c361100384610fd1565b83815292871b840188019288810190368511156110e05760008081fd5b948901945b848610156111155785356001600160e01b0319811681146111065760008081fd5b825294890194908901906110e5565b918301919091525088525050948301948301611028565b5092979650505050505050565b634e487b7160e01b600052603260045260246000fd5b634e487b7160e01b600052602160045260246000fd5b634e487b7160e01b600052601160045260246000fd5b60006001820161118d5761118d611165565b5060010190565b60005b838110156111af578181015183820152602001611197565b50506000910152565b600081518084526111d0816020860160208601611194565b601f01601f19169290920160200192915050565b60006060808301818452808751808352608092508286019150828160051b8701016020808b0160005b848110156112b457898403607f19018652815180516001600160a01b0316855283810151898601906003811061125357634e487b7160e01b600052602160045260246000fd5b868601526040918201519186018a905281519081905290840190600090898701905b8083101561129f5783516001600160e01b0319168252928601926001929092019190860190611275565b5097850197955050509082019060010161120d565b50506001600160a01b038a169088015286810360408801526112d681896111b8565b9a9950505050505050505050565b6020808252602b908201527f4c69624469616d6f6e644375743a204e6f2073656c6563746f727320696e206660408201526a1858d95d081d1bc818dd5d60aa1b606082015260800190565b6020808252602c908201527f4c69624469616d6f6e644375743a204164642066616365742063616e2774206260408201526b65206164647265737328302960a01b606082015260800190565b60006001600160601b0380831681810361139757611397611165565b6001019392505050565b600082516113b3818460208701611194565b9190910192915050565b6001600160a01b03831681526040602082018190526000906113e1908301846111b8565b949350505050565b818103818111156113fc576113fc611165565b92915050565b634e487b7160e01b600052603160045260246000fd5b602081526000610f1a60208301846111b856fec8fcad8db84d3cc18b4c41d551ea0ee66dd599cde068d998e57d5e09332c131c4c69624469616d6f6e644375743a205f696e6974206164647265737320686173206e6f20636f64654c69624469616d6f6e644375743a204e657720666163657420686173206e6f20636f6465a2646970667358221220cdf6cc4c531e4dae1ac4db9d822844d1291e383fee0d97549e2d6e1d7a7b039664736f6c63430008150033",
    "linkReferences": {}
  },
  "methodIdentifiers": {
    "changeDefaultSlippage(uint16)": "2bc8a42d",
    "changeUniFee(uint24)": "5acb2ecb",
    "diamondCut((address,uint8,bytes4[])[],address,bytes)": "1f931c1c",
    "storeOZL(address)": "3bba4b35"
  },
  "id": 15
}