{
  "abi": [
    {
      "inputs": [
        {
          "internalType": "address",
          "name": "_initializationContractAddress",
          "type": "address"
        },
        {
          "internalType": "bytes",
          "name": "_calldata",
          "type": "bytes"
        }
      ],
      "name": "InitializationFunctionReverted",
      "type": "error"
    },
    {
      "anonymous": false,
      "inputs": [
        {
          "components": [
            {
              "internalType": "address",
              "name": "facetAddress",
              "type": "address"
            },
            {
              "internalType": "enum IDiamondCut.FacetCutAction",
              "name": "action",
              "type": "uint8"
            },
            {
              "internalType": "bytes4[]",
              "name": "functionSelectors",
              "type": "bytes4[]"
            }
          ],
          "indexed": false,
          "internalType": "struct IDiamondCut.FacetCut[]",
          "name": "_diamondCut",
          "type": "tuple[]"
        },
        {
          "indexed": false,
          "internalType": "address",
          "name": "_init",
          "type": "address"
        },
        {
          "indexed": false,
          "internalType": "bytes",
          "name": "_calldata",
          "type": "bytes"
        }
      ],
      "name": "DiamondCut",
      "type": "event"
    },
    {
      "inputs": [
        {
          "internalType": "uint256",
          "name": "newBps_",
          "type": "uint256"
        }
      ],
      "name": "changeDefaultSlippage",
      "outputs": [],
      "stateMutability": "nonpayable",
      "type": "function"
    },
    {
      "inputs": [
        {
          "internalType": "uint24",
          "name": "newBps_",
          "type": "uint24"
        }
      ],
      "name": "changeUniFee",
      "outputs": [],
      "stateMutability": "nonpayable",
      "type": "function"
    },
    {
      "inputs": [
        {
          "components": [
            {
              "internalType": "address",
              "name": "facetAddress",
              "type": "address"
            },
            {
              "internalType": "enum IDiamondCut.FacetCutAction",
              "name": "action",
              "type": "uint8"
            },
            {
              "internalType": "bytes4[]",
              "name": "functionSelectors",
              "type": "bytes4[]"
            }
          ],
          "internalType": "struct IDiamondCut.FacetCut[]",
          "name": "_diamondCut",
          "type": "tuple[]"
        },
        {
          "internalType": "address",
          "name": "_init",
          "type": "address"
        },
        {
          "internalType": "bytes",
          "name": "_calldata",
          "type": "bytes"
        }
      ],
      "name": "diamondCut",
      "outputs": [],
      "stateMutability": "nonpayable",
      "type": "function"
    }
  ],
  "bytecode": {
    "object": "0x608060405234801561001057600080fd5b50611438806100206000396000f3fe608060405234801561001057600080fd5b50600436106100415760003560e01c806305e09265146100465780631f931c1c1461005b5780635acb2ecb1461006e575b600080fd5b610059610054366004610d70565b610081565b005b610059610069366004610dee565b61008e565b61005961007c366004610ea0565b6100e7565b610089610109565b600855565b610096610109565b6100e06100a38587610f60565b8484848080601f01602080910402602001604051908101604052809392919081815260200183838082843760009201919091525061018592505050565b5050505050565b6100ef610109565b6015805462ffffff191662ffffff92909216919091179055565b600080516020611397833981519152600401546001600160a01b031633146101835760405162461bcd60e51b815260206004820152602260248201527f4c69624469616d6f6e643a204d75737420626520636f6e7472616374206f776e60448201526132b960f11b60648201526084015b60405180910390fd5b565b60005b835181101561034b5760008482815181106101a5576101a56110a4565b6020026020010151602001519050600060028111156101c6576101c66110ba565b8160028111156101d8576101d86110ba565b03610226576102218583815181106101f2576101f26110a4565b602002602001015160000151868481518110610210576102106110a4565b602002602001015160400151610396565b610338565b600181600281111561023a5761023a6110ba565b0361028357610221858381518110610254576102546110a4565b602002602001015160000151868481518110610272576102726110a4565b60200260200101516040015161050e565b6002816002811115610297576102976110ba565b036102e0576102218583815181106102b1576102b16110a4565b6020026020010151600001518684815181106102cf576102cf6110a4565b60200260200101516040015161069e565b60405162461bcd60e51b815260206004820152602760248201527f4c69624469616d6f6e644375743a20496e636f727265637420466163657443756044820152663a20b1ba34b7b760c91b606482015260840161017a565b5080610343816110e6565b915050610188565b507f8faa70878671ccd212d20771b795c50af8fd3ff6cf27f4bde57e5d4de0aeb67383838360405161037f9392919061114f565b60405180910390a161039182826107bc565b505050565b60008151116103b75760405162461bcd60e51b815260040161017a9061124f565b6000805160206113978339815191526001600160a01b0383166103ec5760405162461bcd60e51b815260040161017a9061129a565b6001600160a01b0383166000908152600182016020526040812054906001600160601b0382169003610422576104228285610882565b60005b83518110156100e0576000848281518110610442576104426110a4565b6020908102919091018101516001600160e01b031981166000908152918690526040909120549091506001600160a01b031680156104e05760405162461bcd60e51b815260206004820152603560248201527f4c69624469616d6f6e644375743a2043616e2774206164642066756e6374696f6044820152746e207468617420616c72656164792065786973747360581b606482015260840161017a565b6104ec8583868a6108ec565b836104f6816112e6565b94505050508080610506906110e6565b915050610425565b600081511161052f5760405162461bcd60e51b815260040161017a9061124f565b6000805160206113978339815191526001600160a01b0383166105645760405162461bcd60e51b815260040161017a9061129a565b6001600160a01b0383166000908152600182016020526040812054906001600160601b038216900361059a5761059a8285610882565b60005b83518110156100e05760008482815181106105ba576105ba6110a4565b6020908102919091018101516001600160e01b031981166000908152918690526040909120549091506001600160a01b0390811690871681036106655760405162461bcd60e51b815260206004820152603860248201527f4c69624469616d6f6e644375743a2043616e2774207265706c6163652066756e60448201527f6374696f6e20776974682073616d652066756e6374696f6e0000000000000000606482015260840161017a565b61067085828461098c565b61067c8583868a6108ec565b83610686816112e6565b94505050508080610696906110e6565b91505061059d565b60008151116106bf5760405162461bcd60e51b815260040161017a9061124f565b6000805160206113978339815191526001600160a01b038316156107445760405162461bcd60e51b815260206004820152603660248201527f4c69624469616d6f6e644375743a2052656d6f76652066616365742061646472604482015275657373206d757374206265206164647265737328302960501b606482015260840161017a565b60005b82518110156107b6576000838281518110610764576107646110a4565b6020908102919091018101516001600160e01b031981166000908152918590526040909120549091506001600160a01b03166107a184828461098c565b505080806107ae906110e6565b915050610747565b50505050565b6001600160a01b0382166107ce575050565b6107f0826040518060600160405280602881526020016113b760289139610d4f565b600080836001600160a01b03168360405161080b919061130c565b600060405180830381855af49150503d8060008114610846576040519150601f19603f3d011682016040523d82523d6000602084013e61084b565b606091505b5091509150816107b6578051156108655780518082602001fd5b838360405163192105d760e01b815260040161017a929190611328565b6108a4816040518060600160405280602481526020016113df60249139610d4f565b6002820180546001600160a01b0390921660008181526001948501602090815260408220860185905594840183559182529290200180546001600160a01b0319169091179055565b6001600160e01b0319831660008181526020868152604080832080546001600160601b03909716600160a01b026001600160a01b0397881617815594909516808352600180890183529583208054968701815583528183206008870401805460e09890981c60046007909816979097026101000a96870263ffffffff9097021990971695909517909555529290915281546001600160a01b031916179055565b6001600160a01b038216610a085760405162461bcd60e51b815260206004820152603760248201527f4c69624469616d6f6e644375743a2043616e27742072656d6f76652066756e6360448201527f74696f6e207468617420646f65736e2774206578697374000000000000000000606482015260840161017a565b306001600160a01b03831603610a775760405162461bcd60e51b815260206004820152602e60248201527f4c69624469616d6f6e644375743a2043616e27742072656d6f766520696d6d7560448201526d3a30b1363290333ab731ba34b7b760911b606482015260840161017a565b6001600160e01b03198116600090815260208481526040808320546001600160a01b0386168452600180880190935290832054600160a01b9091046001600160601b03169291610ac691611354565b9050808214610bb8576001600160a01b03841660009081526001860160205260408120805483908110610afb57610afb6110a4565b600091825260208083206008830401546001600160a01b038916845260018a019091526040909220805460079092166004026101000a90920460e01b925082919085908110610b4c57610b4c6110a4565b600091825260208083206008830401805463ffffffff60079094166004026101000a938402191660e09590951c929092029390931790556001600160e01b03199290921682528690526040902080546001600160a01b0316600160a01b6001600160601b038516021790555b6001600160a01b03841660009081526001860160205260409020805480610be157610be161136d565b60008281526020808220600860001990940193840401805463ffffffff600460078716026101000a0219169055919092556001600160e01b031985168252869052604081208190558190036100e0576002850154600090610c4490600190611354565b6001600160a01b0386166000908152600180890160205260409091200154909150808214610cf3576000876002018381548110610c8357610c836110a4565b6000918252602090912001546002890180546001600160a01b039092169250829184908110610cb457610cb46110a4565b600091825260208083209190910180546001600160a01b0319166001600160a01b03948516179055929091168152600189810190925260409020018190555b86600201805480610d0657610d0661136d565b60008281526020808220830160001990810180546001600160a01b03191690559092019092556001600160a01b0388168252600189810190915260408220015550505050505050565b813b81816107b65760405162461bcd60e51b815260040161017a9190611383565b600060208284031215610d8257600080fd5b5035919050565b80356001600160a01b0381168114610da057600080fd5b919050565b60008083601f840112610db757600080fd5b50813567ffffffffffffffff811115610dcf57600080fd5b602083019150836020828501011115610de757600080fd5b9250929050565b600080600080600060608688031215610e0657600080fd5b853567ffffffffffffffff80821115610e1e57600080fd5b818801915088601f830112610e3257600080fd5b813581811115610e4157600080fd5b8960208260051b8501011115610e5657600080fd5b60208301975080965050610e6c60208901610d89565b94506040880135915080821115610e8257600080fd5b50610e8f88828901610da5565b969995985093965092949392505050565b600060208284031215610eb257600080fd5b813562ffffff81168114610ec557600080fd5b9392505050565b634e487b7160e01b600052604160045260246000fd5b6040516060810167ffffffffffffffff81118282101715610f0557610f05610ecc565b60405290565b604051601f8201601f1916810167ffffffffffffffff81118282101715610f3457610f34610ecc565b604052919050565b600067ffffffffffffffff821115610f5657610f56610ecc565b5060051b60200190565b6000610f73610f6e84610f3c565b610f0b565b83815260208082019190600586811b860136811115610f9157600080fd5b865b8181101561109757803567ffffffffffffffff80821115610fb45760008081fd5b818a01915060608236031215610fca5760008081fd5b610fd2610ee2565b610fdb83610d89565b81528683013560038110610fef5760008081fd5b81880152604083810135838111156110075760008081fd5b939093019236601f85011261101e57600092508283fd5b8335925061102e610f6e84610f3c565b83815292871b8401880192888101903685111561104b5760008081fd5b948901945b848610156110805785356001600160e01b0319811681146110715760008081fd5b82529489019490890190611050565b918301919091525088525050948301948301610f93565b5092979650505050505050565b634e487b7160e01b600052603260045260246000fd5b634e487b7160e01b600052602160045260246000fd5b634e487b7160e01b600052601160045260246000fd5b6000600182016110f8576110f86110d0565b5060010190565b60005b8381101561111a578181015183820152602001611102565b50506000910152565b6000815180845261113b8160208601602086016110ff565b601f01601f19169290920160200192915050565b60006060808301818452808751808352608092508286019150828160051b8701016020808b0160005b8481101561121f57898403607f19018652815180516001600160a01b031685528381015189860190600381106111be57634e487b7160e01b600052602160045260246000fd5b868601526040918201519186018a905281519081905290840190600090898701905b8083101561120a5783516001600160e01b03191682529286019260019290920191908601906111e0565b50978501979550505090820190600101611178565b50506001600160a01b038a169088015286810360408801526112418189611123565b9a9950505050505050505050565b6020808252602b908201527f4c69624469616d6f6e644375743a204e6f2073656c6563746f727320696e206660408201526a1858d95d081d1bc818dd5d60aa1b606082015260800190565b6020808252602c908201527f4c69624469616d6f6e644375743a204164642066616365742063616e2774206260408201526b65206164647265737328302960a01b606082015260800190565b60006001600160601b03808316818103611302576113026110d0565b6001019392505050565b6000825161131e8184602087016110ff565b9190910192915050565b6001600160a01b038316815260406020820181905260009061134c90830184611123565b949350505050565b81810381811115611367576113676110d0565b92915050565b634e487b7160e01b600052603160045260246000fd5b602081526000610ec5602083018461112356fec8fcad8db84d3cc18b4c41d551ea0ee66dd599cde068d998e57d5e09332c131c4c69624469616d6f6e644375743a205f696e6974206164647265737320686173206e6f20636f64654c69624469616d6f6e644375743a204e657720666163657420686173206e6f20636f6465a26469706673582212209686b8289317d00f2861d889aaf52e50949c739ff3ff49bfd62764bde6621eb764736f6c63430008150033",
    "linkReferences": {}
  },
  "methodIdentifiers": {
    "changeDefaultSlippage(uint256)": "05e09265",
    "changeUniFee(uint24)": "5acb2ecb",
    "diamondCut((address,uint8,bytes4[])[],address,bytes)": "1f931c1c"
  },
  "id": 10
}