{
  "abi": [
    {
      "inputs": [
        {
          "internalType": "address",
          "name": "_initializationContractAddress",
          "type": "address"
        },
        {
          "internalType": "bytes",
          "name": "_calldata",
          "type": "bytes"
        }
      ],
      "name": "InitializationFunctionReverted",
      "type": "error"
    },
    {
      "anonymous": false,
      "inputs": [
        {
          "components": [
            {
              "internalType": "address",
              "name": "facetAddress",
              "type": "address"
            },
            {
              "internalType": "enum IDiamondCut.FacetCutAction",
              "name": "action",
              "type": "uint8"
            },
            {
              "internalType": "bytes4[]",
              "name": "functionSelectors",
              "type": "bytes4[]"
            }
          ],
          "indexed": false,
          "internalType": "struct IDiamondCut.FacetCut[]",
          "name": "_diamondCut",
          "type": "tuple[]"
        },
        {
          "indexed": false,
          "internalType": "address",
          "name": "_init",
          "type": "address"
        },
        {
          "indexed": false,
          "internalType": "bytes",
          "name": "_calldata",
          "type": "bytes"
        }
      ],
      "name": "DiamondCut",
      "type": "event"
    },
    {
      "inputs": [
        {
          "internalType": "uint16",
          "name": "newBps_",
          "type": "uint16"
        }
      ],
      "name": "changeDefaultSlippage",
      "outputs": [],
      "stateMutability": "nonpayable",
      "type": "function"
    },
    {
      "inputs": [
        {
          "internalType": "uint24",
          "name": "newBps_",
          "type": "uint24"
        }
      ],
      "name": "changeUniFee",
      "outputs": [],
      "stateMutability": "nonpayable",
      "type": "function"
    },
    {
      "inputs": [
        {
          "components": [
            {
              "internalType": "address",
              "name": "facetAddress",
              "type": "address"
            },
            {
              "internalType": "enum IDiamondCut.FacetCutAction",
              "name": "action",
              "type": "uint8"
            },
            {
              "internalType": "bytes4[]",
              "name": "functionSelectors",
              "type": "bytes4[]"
            }
          ],
          "internalType": "struct IDiamondCut.FacetCut[]",
          "name": "_diamondCut",
          "type": "tuple[]"
        },
        {
          "internalType": "address",
          "name": "_init",
          "type": "address"
        },
        {
          "internalType": "bytes",
          "name": "_calldata",
          "type": "bytes"
        }
      ],
      "name": "diamondCut",
      "outputs": [],
      "stateMutability": "nonpayable",
      "type": "function"
    }
  ],
  "bytecode": {
    "object": "0x608060405234801561001057600080fd5b50611460806100206000396000f3fe608060405234801561001057600080fd5b50600436106100415760003560e01c80631f931c1c146100465780632bc8a42d1461005b5780635acb2ecb1461006e575b600080fd5b610059610054366004610df2565b610081565b005b610059610069366004610ea4565b6100da565b61005961007c366004610ecf565b610104565b610089610126565b6100d36100968587610f88565b8484848080601f0160208091040260200160405190810160405280939291908181526020018383808284376000920191909152506101a292505050565b5050505050565b6100e2610126565b6007805461ffff909216600160a01b0261ffff60a01b19909216919091179055565b61010c610126565b6014805462ffffff191662ffffff92909216919091179055565b6000805160206113bf833981519152600401546001600160a01b031633146101a05760405162461bcd60e51b815260206004820152602260248201527f4c69624469616d6f6e643a204d75737420626520636f6e7472616374206f776e60448201526132b960f11b60648201526084015b60405180910390fd5b565b60005b83518110156103685760008482815181106101c2576101c26110cc565b6020026020010151602001519050600060028111156101e3576101e36110e2565b8160028111156101f5576101f56110e2565b036102435761023e85838151811061020f5761020f6110cc565b60200260200101516000015186848151811061022d5761022d6110cc565b6020026020010151604001516103b3565b610355565b6001816002811115610257576102576110e2565b036102a05761023e858381518110610271576102716110cc565b60200260200101516000015186848151811061028f5761028f6110cc565b60200260200101516040015161052b565b60028160028111156102b4576102b46110e2565b036102fd5761023e8583815181106102ce576102ce6110cc565b6020026020010151600001518684815181106102ec576102ec6110cc565b6020026020010151604001516106bb565b60405162461bcd60e51b815260206004820152602760248201527f4c69624469616d6f6e644375743a20496e636f727265637420466163657443756044820152663a20b1ba34b7b760c91b6064820152608401610197565b50806103608161110e565b9150506101a5565b507f8faa70878671ccd212d20771b795c50af8fd3ff6cf27f4bde57e5d4de0aeb67383838360405161039c93929190611177565b60405180910390a16103ae82826107d9565b505050565b60008151116103d45760405162461bcd60e51b815260040161019790611277565b6000805160206113bf8339815191526001600160a01b0383166104095760405162461bcd60e51b8152600401610197906112c2565b6001600160a01b0383166000908152600182016020526040812054906001600160601b038216900361043f5761043f828561089f565b60005b83518110156100d357600084828151811061045f5761045f6110cc565b6020908102919091018101516001600160e01b031981166000908152918690526040909120549091506001600160a01b031680156104fd5760405162461bcd60e51b815260206004820152603560248201527f4c69624469616d6f6e644375743a2043616e2774206164642066756e6374696f6044820152746e207468617420616c72656164792065786973747360581b6064820152608401610197565b6105098583868a610909565b836105138161130e565b945050505080806105239061110e565b915050610442565b600081511161054c5760405162461bcd60e51b815260040161019790611277565b6000805160206113bf8339815191526001600160a01b0383166105815760405162461bcd60e51b8152600401610197906112c2565b6001600160a01b0383166000908152600182016020526040812054906001600160601b03821690036105b7576105b7828561089f565b60005b83518110156100d35760008482815181106105d7576105d76110cc565b6020908102919091018101516001600160e01b031981166000908152918690526040909120549091506001600160a01b0390811690871681036106825760405162461bcd60e51b815260206004820152603860248201527f4c69624469616d6f6e644375743a2043616e2774207265706c6163652066756e60448201527f6374696f6e20776974682073616d652066756e6374696f6e00000000000000006064820152608401610197565b61068d8582846109a9565b6106998583868a610909565b836106a38161130e565b945050505080806106b39061110e565b9150506105ba565b60008151116106dc5760405162461bcd60e51b815260040161019790611277565b6000805160206113bf8339815191526001600160a01b038316156107615760405162461bcd60e51b815260206004820152603660248201527f4c69624469616d6f6e644375743a2052656d6f76652066616365742061646472604482015275657373206d757374206265206164647265737328302960501b6064820152608401610197565b60005b82518110156107d3576000838281518110610781576107816110cc565b6020908102919091018101516001600160e01b031981166000908152918590526040909120549091506001600160a01b03166107be8482846109a9565b505080806107cb9061110e565b915050610764565b50505050565b6001600160a01b0382166107eb575050565b61080d826040518060600160405280602881526020016113df60289139610d6c565b600080836001600160a01b0316836040516108289190611334565b600060405180830381855af49150503d8060008114610863576040519150601f19603f3d011682016040523d82523d6000602084013e610868565b606091505b5091509150816107d3578051156108825780518082602001fd5b838360405163192105d760e01b8152600401610197929190611350565b6108c18160405180606001604052806024815260200161140760249139610d6c565b6002820180546001600160a01b0390921660008181526001948501602090815260408220860185905594840183559182529290200180546001600160a01b0319169091179055565b6001600160e01b0319831660008181526020868152604080832080546001600160601b03909716600160a01b026001600160a01b0397881617815594909516808352600180890183529583208054968701815583528183206008870401805460e09890981c60046007909816979097026101000a96870263ffffffff9097021990971695909517909555529290915281546001600160a01b031916179055565b6001600160a01b038216610a255760405162461bcd60e51b815260206004820152603760248201527f4c69624469616d6f6e644375743a2043616e27742072656d6f76652066756e6360448201527f74696f6e207468617420646f65736e27742065786973740000000000000000006064820152608401610197565b306001600160a01b03831603610a945760405162461bcd60e51b815260206004820152602e60248201527f4c69624469616d6f6e644375743a2043616e27742072656d6f766520696d6d7560448201526d3a30b1363290333ab731ba34b7b760911b6064820152608401610197565b6001600160e01b03198116600090815260208481526040808320546001600160a01b0386168452600180880190935290832054600160a01b9091046001600160601b03169291610ae39161137c565b9050808214610bd5576001600160a01b03841660009081526001860160205260408120805483908110610b1857610b186110cc565b600091825260208083206008830401546001600160a01b038916845260018a019091526040909220805460079092166004026101000a90920460e01b925082919085908110610b6957610b696110cc565b600091825260208083206008830401805463ffffffff60079094166004026101000a938402191660e09590951c929092029390931790556001600160e01b03199290921682528690526040902080546001600160a01b0316600160a01b6001600160601b038516021790555b6001600160a01b03841660009081526001860160205260409020805480610bfe57610bfe611395565b60008281526020808220600860001990940193840401805463ffffffff600460078716026101000a0219169055919092556001600160e01b031985168252869052604081208190558190036100d3576002850154600090610c619060019061137c565b6001600160a01b0386166000908152600180890160205260409091200154909150808214610d10576000876002018381548110610ca057610ca06110cc565b6000918252602090912001546002890180546001600160a01b039092169250829184908110610cd157610cd16110cc565b600091825260208083209190910180546001600160a01b0319166001600160a01b03948516179055929091168152600189810190925260409020018190555b86600201805480610d2357610d23611395565b60008281526020808220830160001990810180546001600160a01b03191690559092019092556001600160a01b0388168252600189810190915260408220015550505050505050565b813b81816107d35760405162461bcd60e51b815260040161019791906113ab565b80356001600160a01b0381168114610da457600080fd5b919050565b60008083601f840112610dbb57600080fd5b50813567ffffffffffffffff811115610dd357600080fd5b602083019150836020828501011115610deb57600080fd5b9250929050565b600080600080600060608688031215610e0a57600080fd5b853567ffffffffffffffff80821115610e2257600080fd5b818801915088601f830112610e3657600080fd5b813581811115610e4557600080fd5b8960208260051b8501011115610e5a57600080fd5b60208301975080965050610e7060208901610d8d565b94506040880135915080821115610e8657600080fd5b50610e9388828901610da9565b969995985093965092949392505050565b600060208284031215610eb657600080fd5b813561ffff81168114610ec857600080fd5b9392505050565b600060208284031215610ee157600080fd5b813562ffffff81168114610ec857600080fd5b634e487b7160e01b600052604160045260246000fd5b6040516060810167ffffffffffffffff81118282101715610f2d57610f2d610ef4565b60405290565b604051601f8201601f1916810167ffffffffffffffff81118282101715610f5c57610f5c610ef4565b604052919050565b600067ffffffffffffffff821115610f7e57610f7e610ef4565b5060051b60200190565b6000610f9b610f9684610f64565b610f33565b83815260208082019190600586811b860136811115610fb957600080fd5b865b818110156110bf57803567ffffffffffffffff80821115610fdc5760008081fd5b818a01915060608236031215610ff25760008081fd5b610ffa610f0a565b61100383610d8d565b815286830135600381106110175760008081fd5b818801526040838101358381111561102f5760008081fd5b939093019236601f85011261104657600092508283fd5b83359250611056610f9684610f64565b83815292871b840188019288810190368511156110735760008081fd5b948901945b848610156110a85785356001600160e01b0319811681146110995760008081fd5b82529489019490890190611078565b918301919091525088525050948301948301610fbb565b5092979650505050505050565b634e487b7160e01b600052603260045260246000fd5b634e487b7160e01b600052602160045260246000fd5b634e487b7160e01b600052601160045260246000fd5b600060018201611120576111206110f8565b5060010190565b60005b8381101561114257818101518382015260200161112a565b50506000910152565b60008151808452611163816020860160208601611127565b601f01601f19169290920160200192915050565b60006060808301818452808751808352608092508286019150828160051b8701016020808b0160005b8481101561124757898403607f19018652815180516001600160a01b031685528381015189860190600381106111e657634e487b7160e01b600052602160045260246000fd5b868601526040918201519186018a905281519081905290840190600090898701905b808310156112325783516001600160e01b0319168252928601926001929092019190860190611208565b509785019795505050908201906001016111a0565b50506001600160a01b038a16908801528681036040880152611269818961114b565b9a9950505050505050505050565b6020808252602b908201527f4c69624469616d6f6e644375743a204e6f2073656c6563746f727320696e206660408201526a1858d95d081d1bc818dd5d60aa1b606082015260800190565b6020808252602c908201527f4c69624469616d6f6e644375743a204164642066616365742063616e2774206260408201526b65206164647265737328302960a01b606082015260800190565b60006001600160601b0380831681810361132a5761132a6110f8565b6001019392505050565b60008251611346818460208701611127565b9190910192915050565b6001600160a01b03831681526040602082018190526000906113749083018461114b565b949350505050565b8181038181111561138f5761138f6110f8565b92915050565b634e487b7160e01b600052603160045260246000fd5b602081526000610ec8602083018461114b56fec8fcad8db84d3cc18b4c41d551ea0ee66dd599cde068d998e57d5e09332c131c4c69624469616d6f6e644375743a205f696e6974206164647265737320686173206e6f20636f64654c69624469616d6f6e644375743a204e657720666163657420686173206e6f20636f6465a2646970667358221220f71d88f03400a832f69ef258933dfc94ad927584ab8ce07cb4bb7f0adb21846f64736f6c63430008150033",
    "linkReferences": {}
  },
  "methodIdentifiers": {
    "changeDefaultSlippage(uint16)": "2bc8a42d",
    "changeUniFee(uint24)": "5acb2ecb",
    "diamondCut((address,uint8,bytes4[])[],address,bytes)": "1f931c1c"
  },
  "id": 13
}