{
  "abi": [
    {
      "inputs": [
        {
          "internalType": "address",
          "name": "_initializationContractAddress",
          "type": "address"
        },
        {
          "internalType": "bytes",
          "name": "_calldata",
          "type": "bytes"
        }
      ],
      "name": "InitializationFunctionReverted",
      "type": "error"
    },
    {
      "inputs": [
        {
          "internalType": "address",
          "name": "caller",
          "type": "address"
        }
      ],
      "name": "OZError13",
      "type": "error"
    },
    {
      "inputs": [
        {
          "internalType": "bool",
          "name": "state",
          "type": "bool"
        }
      ],
      "name": "OZError28",
      "type": "error"
    },
    {
      "inputs": [],
      "name": "OZError29",
      "type": "error"
    },
    {
      "inputs": [],
      "name": "OZError30",
      "type": "error"
    },
    {
      "anonymous": false,
      "inputs": [
        {
          "components": [
            {
              "internalType": "address",
              "name": "facetAddress",
              "type": "address"
            },
            {
              "internalType": "enum IDiamondCut.FacetCutAction",
              "name": "action",
              "type": "uint8"
            },
            {
              "internalType": "bytes4[]",
              "name": "functionSelectors",
              "type": "bytes4[]"
            }
          ],
          "indexed": false,
          "internalType": "struct IDiamondCut.FacetCut[]",
          "name": "_diamondCut",
          "type": "tuple[]"
        },
        {
          "indexed": false,
          "internalType": "address",
          "name": "_init",
          "type": "address"
        },
        {
          "indexed": false,
          "internalType": "bytes",
          "name": "_calldata",
          "type": "bytes"
        }
      ],
      "name": "DiamondCut",
      "type": "event"
    },
    {
      "inputs": [
        {
          "internalType": "uint16",
          "name": "newFee_",
          "type": "uint16"
        }
      ],
      "name": "changeAdminFee",
      "outputs": [],
      "stateMutability": "nonpayable",
      "type": "function"
    },
    {
      "inputs": [
        {
          "internalType": "address",
          "name": "newRecipient_",
          "type": "address"
        }
      ],
      "name": "changeAdminFeeRecipient",
      "outputs": [],
      "stateMutability": "nonpayable",
      "type": "function"
    },
    {
      "inputs": [
        {
          "internalType": "uint16",
          "name": "newBps_",
          "type": "uint16"
        }
      ],
      "name": "changeDefaultSlippage",
      "outputs": [],
      "stateMutability": "nonpayable",
      "type": "function"
    },
    {
      "inputs": [
        {
          "internalType": "uint24",
          "name": "newFee_",
          "type": "uint24"
        }
      ],
      "name": "changeProtocolFee",
      "outputs": [],
      "stateMutability": "nonpayable",
      "type": "function"
    },
    {
      "inputs": [
        {
          "internalType": "uint24",
          "name": "newBps_",
          "type": "uint24"
        }
      ],
      "name": "changeUniFee",
      "outputs": [],
      "stateMutability": "nonpayable",
      "type": "function"
    },
    {
      "inputs": [],
      "name": "claimReward",
      "outputs": [
        {
          "internalType": "uint256",
          "name": "",
          "type": "uint256"
        }
      ],
      "stateMutability": "nonpayable",
      "type": "function"
    },
    {
      "inputs": [
        {
          "components": [
            {
              "internalType": "address",
              "name": "facetAddress",
              "type": "address"
            },
            {
              "internalType": "enum IDiamondCut.FacetCutAction",
              "name": "action",
              "type": "uint8"
            },
            {
              "internalType": "bytes4[]",
              "name": "functionSelectors",
              "type": "bytes4[]"
            }
          ],
          "internalType": "struct IDiamondCut.FacetCut[]",
          "name": "_diamondCut",
          "type": "tuple[]"
        },
        {
          "internalType": "address",
          "name": "_init",
          "type": "address"
        },
        {
          "internalType": "bytes",
          "name": "_calldata",
          "type": "bytes"
        }
      ],
      "name": "diamondCut",
      "outputs": [],
      "stateMutability": "nonpayable",
      "type": "function"
    },
    {
      "inputs": [
        {
          "internalType": "address",
          "name": "user_",
          "type": "address"
        }
      ],
      "name": "earned",
      "outputs": [
        {
          "internalType": "uint256",
          "name": "",
          "type": "uint256"
        }
      ],
      "stateMutability": "view",
      "type": "function"
    },
    {
      "inputs": [
        {
          "internalType": "bool",
          "name": "newState_",
          "type": "bool"
        }
      ],
      "name": "enableSwitch",
      "outputs": [
        {
          "internalType": "bool",
          "name": "",
          "type": "bool"
        }
      ],
      "stateMutability": "nonpayable",
      "type": "function"
    },
    {
      "inputs": [],
      "name": "getRewardsData",
      "outputs": [
        {
          "internalType": "uint256",
          "name": "rewardRate",
          "type": "uint256"
        },
        {
          "internalType": "uint256",
          "name": "circulatingSupply",
          "type": "uint256"
        },
        {
          "internalType": "uint256",
          "name": "pendingAllocation",
          "type": "uint256"
        },
        {
          "internalType": "uint256",
          "name": "recicledSupply",
          "type": "uint256"
        },
        {
          "internalType": "int256",
          "name": "durationLeft",
          "type": "int256"
        }
      ],
      "stateMutability": "view",
      "type": "function"
    },
    {
      "inputs": [],
      "name": "lastTimeRewardApplicable",
      "outputs": [
        {
          "internalType": "uint256",
          "name": "",
          "type": "uint256"
        }
      ],
      "stateMutability": "view",
      "type": "function"
    },
    {
      "inputs": [
        {
          "internalType": "uint256",
          "name": "amount_",
          "type": "uint256"
        }
      ],
      "name": "notifyRewardAmount",
      "outputs": [],
      "stateMutability": "nonpayable",
      "type": "function"
    },
    {
      "inputs": [
        {
          "internalType": "uint256",
          "name": "index_",
          "type": "uint256"
        },
        {
          "internalType": "bool",
          "name": "newState_",
          "type": "bool"
        }
      ],
      "name": "pause",
      "outputs": [
        {
          "internalType": "bool",
          "name": "",
          "type": "bool"
        }
      ],
      "stateMutability": "nonpayable",
      "type": "function"
    },
    {
      "inputs": [],
      "name": "rewardPerToken",
      "outputs": [
        {
          "internalType": "uint256",
          "name": "",
          "type": "uint256"
        }
      ],
      "stateMutability": "view",
      "type": "function"
    },
    {
      "inputs": [
        {
          "internalType": "uint256",
          "name": "duration_",
          "type": "uint256"
        }
      ],
      "name": "setRewardsDuration",
      "outputs": [],
      "stateMutability": "nonpayable",
      "type": "function"
    },
    {
      "inputs": [
        {
          "internalType": "address",
          "name": "ozlProxy_",
          "type": "address"
        }
      ],
      "name": "storeOZL",
      "outputs": [],
      "stateMutability": "nonpayable",
      "type": "function"
    }
  ],
  "bytecode": {
    "object": "0x608060405234801561001057600080fd5b50611901806100206000396000f3fe608060405234801561001057600080fd5b50600436106100ff5760003560e01c806393578b0411610097578063cc9999e211610066578063cc9999e2146101f4578063cd3daf9d146101b7578063cffd849314610207578063ee0927951461021a57600080fd5b806393578b04146101be578063997d37b1146101e1578063b88a802f146101b7578063cc1a378f1461016657600080fd5b80633c6b16ab116100d35780633c6b16ab146101665780635acb2ecb146101775780637d098e641461018a57806380faa57d146101b757600080fd5b80628cc262146101045780631f931c1c1461012b5780632bc8a42d146101405780633bba4b3514610153575b600080fd5b6101186101123660046111c5565b50600090565b6040519081526020015b60405180910390f35b61013e610139366004611230565b61022d565b005b61013e61014e3660046112e2565b610286565b61013e6101613660046111c5565b6102b0565b61013e610174366004611306565b50565b61013e61018536600461131f565b6102ff565b6040805160008082526020820181905291810182905260608101829052608081019190915260a001610122565b6000610118565b6101d16101cc366004611354565b610321565b6040519015158152602001610122565b61013e6101ef36600461131f565b61042c565b61013e6102023660046112e2565b61045e565b61013e6102153660046111c5565b610488565b6101d1610228366004611380565b6104d7565b6102356104f8565b61027f610242858761142f565b8484848080601f01602080910402602001604051908101604052809392919081815260200183838082843760009201919091525061056f92505050565b5050505050565b61028e6104f8565b6007805461ffff909216600160a01b0261ffff60a01b19909216919091179055565b6102b86104f8565b601380546001600160a01b039092166901000000000000000000027fffffff0000000000000000000000000000000000000000ffffffffffffffffff909216919091179055565b6103076104f8565b6013805462ffffff191662ffffff92909216919091179055565b600061032b6104f8565b600883901c600090815260276020526040902054821515600160ff86161b90911615150361037557604051638b834ef360e01b815282151560048201526024015b60405180910390fd5b826001036103965760405163604f135b60e11b815260040160405180910390fd5b602a5460ff166103b957604051633d72899f60e21b815260040160405180910390fd5b6103c560278484610780565b60015b60285461ffff1681101561042057600881901c600090815260276020526040902054600160ff83161b161561040e576104046027600180610780565b6001915050610426565b8061041881611589565b9150506103c8565b50600090505b92915050565b6104346104f8565b6013805462ffffff90921666010000000000000268ffffff00000000000019909216919091179055565b6104666104f8565b601f805461ffff909216600160a01b0261ffff60a01b19909216919091179055565b601f546001600160a01b031633146104b55760405163a43f931360e01b815233600482015260240161036c565b601f80546001600160a01b0319166001600160a01b0392909216919091179055565b60006104e16104f8565b50602a805460ff1916911515918217905560ff1690565b600080516020611860833981519152600401546001600160a01b0316331461056d5760405162461bcd60e51b815260206004820152602260248201527f4c69624469616d6f6e643a204d75737420626520636f6e7472616374206f776e60448201526132b960f11b606482015260840161036c565b565b60005b835181101561073557600084828151811061058f5761058f6115a2565b6020026020010151602001519050600060028111156105b0576105b06115b8565b8160028111156105c2576105c26115b8565b036106105761060b8583815181106105dc576105dc6115a2565b6020026020010151600001518684815181106105fa576105fa6115a2565b6020026020010151604001516107cf565b610722565b6001816002811115610624576106246115b8565b0361066d5761060b85838151811061063e5761063e6115a2565b60200260200101516000015186848151811061065c5761065c6115a2565b602002602001015160400151610947565b6002816002811115610681576106816115b8565b036106ca5761060b85838151811061069b5761069b6115a2565b6020026020010151600001518684815181106106b9576106b96115a2565b602002602001015160400151610ad7565b60405162461bcd60e51b815260206004820152602760248201527f4c69624469616d6f6e644375743a20496e636f727265637420466163657443756044820152663a20b1ba34b7b760c91b606482015260840161036c565b508061072d81611589565b915050610572565b507f8faa70878671ccd212d20771b795c50af8fd3ff6cf27f4bde57e5d4de0aeb6738383836040516107699392919061161e565b60405180910390a161077b8282610bf5565b505050565b80156107aa57600882901c60009081526020849052604090208054600160ff85161b179055505050565b600882901c60009081526020849052604090208054600160ff85161b19169055505050565b60008151116107f05760405162461bcd60e51b815260040161036c9061171e565b6000805160206118608339815191526001600160a01b0383166108255760405162461bcd60e51b815260040161036c90611769565b6001600160a01b0383166000908152600182016020526040812054906001600160601b038216900361085b5761085b8285610cbb565b60005b835181101561027f57600084828151811061087b5761087b6115a2565b6020908102919091018101516001600160e01b031981166000908152918690526040909120549091506001600160a01b031680156109195760405162461bcd60e51b815260206004820152603560248201527f4c69624469616d6f6e644375743a2043616e2774206164642066756e6374696f6044820152746e207468617420616c72656164792065786973747360581b606482015260840161036c565b6109258583868a610d25565b8361092f816117b5565b9450505050808061093f90611589565b91505061085e565b60008151116109685760405162461bcd60e51b815260040161036c9061171e565b6000805160206118608339815191526001600160a01b03831661099d5760405162461bcd60e51b815260040161036c90611769565b6001600160a01b0383166000908152600182016020526040812054906001600160601b03821690036109d3576109d38285610cbb565b60005b835181101561027f5760008482815181106109f3576109f36115a2565b6020908102919091018101516001600160e01b031981166000908152918690526040909120549091506001600160a01b039081169087168103610a9e5760405162461bcd60e51b815260206004820152603860248201527f4c69624469616d6f6e644375743a2043616e2774207265706c6163652066756e60448201527f6374696f6e20776974682073616d652066756e6374696f6e0000000000000000606482015260840161036c565b610aa9858284610dc5565b610ab58583868a610d25565b83610abf816117b5565b94505050508080610acf90611589565b9150506109d6565b6000815111610af85760405162461bcd60e51b815260040161036c9061171e565b6000805160206118608339815191526001600160a01b03831615610b7d5760405162461bcd60e51b815260206004820152603660248201527f4c69624469616d6f6e644375743a2052656d6f76652066616365742061646472604482015275657373206d757374206265206164647265737328302960501b606482015260840161036c565b60005b8251811015610bef576000838281518110610b9d57610b9d6115a2565b6020908102919091018101516001600160e01b031981166000908152918590526040909120549091506001600160a01b0316610bda848284610dc5565b50508080610be790611589565b915050610b80565b50505050565b6001600160a01b038216610c07575050565b610c298260405180606001604052806028815260200161188060289139611188565b600080836001600160a01b031683604051610c4491906117db565b600060405180830381855af49150503d8060008114610c7f576040519150601f19603f3d011682016040523d82523d6000602084013e610c84565b606091505b509150915081610bef57805115610c9e5780518082602001fd5b838360405163192105d760e01b815260040161036c9291906117f7565b610cdd816040518060600160405280602481526020016118a860249139611188565b6002820180546001600160a01b0390921660008181526001948501602090815260408220860185905594840183559182529290200180546001600160a01b0319169091179055565b6001600160e01b0319831660008181526020868152604080832080546001600160601b03909716600160a01b026001600160a01b0397881617815594909516808352600180890183529583208054968701815583528183206008870401805460e09890981c60046007909816979097026101000a96870263ffffffff9097021990971695909517909555529290915281546001600160a01b031916179055565b6001600160a01b038216610e415760405162461bcd60e51b815260206004820152603760248201527f4c69624469616d6f6e644375743a2043616e27742072656d6f76652066756e6360448201527f74696f6e207468617420646f65736e2774206578697374000000000000000000606482015260840161036c565b306001600160a01b03831603610eb05760405162461bcd60e51b815260206004820152602e60248201527f4c69624469616d6f6e644375743a2043616e27742072656d6f766520696d6d7560448201526d3a30b1363290333ab731ba34b7b760911b606482015260840161036c565b6001600160e01b03198116600090815260208481526040808320546001600160a01b0386168452600180880190935290832054600160a01b9091046001600160601b03169291610eff91611823565b9050808214610ff1576001600160a01b03841660009081526001860160205260408120805483908110610f3457610f346115a2565b600091825260208083206008830401546001600160a01b038916845260018a019091526040909220805460079092166004026101000a90920460e01b925082919085908110610f8557610f856115a2565b600091825260208083206008830401805463ffffffff60079094166004026101000a938402191660e09590951c929092029390931790556001600160e01b03199290921682528690526040902080546001600160a01b0316600160a01b6001600160601b038516021790555b6001600160a01b0384166000908152600186016020526040902080548061101a5761101a611836565b60008281526020808220600860001990940193840401805463ffffffff600460078716026101000a0219169055919092556001600160e01b0319851682528690526040812081905581900361027f57600285015460009061107d90600190611823565b6001600160a01b038616600090815260018089016020526040909120015490915080821461112c5760008760020183815481106110bc576110bc6115a2565b6000918252602090912001546002890180546001600160a01b0390921692508291849081106110ed576110ed6115a2565b600091825260208083209190910180546001600160a01b0319166001600160a01b03948516179055929091168152600189810190925260409020018190555b8660020180548061113f5761113f611836565b60008281526020808220830160001990810180546001600160a01b03191690559092019092556001600160a01b0388168252600189810190915260408220015550505050505050565b813b8181610bef5760405162461bcd60e51b815260040161036c919061184c565b80356001600160a01b03811681146111c057600080fd5b919050565b6000602082840312156111d757600080fd5b6111e0826111a9565b9392505050565b60008083601f8401126111f957600080fd5b50813567ffffffffffffffff81111561121157600080fd5b60208301915083602082850101111561122957600080fd5b9250929050565b60008060008060006060868803121561124857600080fd5b853567ffffffffffffffff8082111561126057600080fd5b818801915088601f83011261127457600080fd5b81358181111561128357600080fd5b8960208260051b850101111561129857600080fd5b602083019750809650506112ae602089016111a9565b945060408801359150808211156112c457600080fd5b506112d1888289016111e7565b969995985093965092949392505050565b6000602082840312156112f457600080fd5b813561ffff811681146111e057600080fd5b60006020828403121561131857600080fd5b5035919050565b60006020828403121561133157600080fd5b813562ffffff811681146111e057600080fd5b803580151581146111c057600080fd5b6000806040838503121561136757600080fd5b8235915061137760208401611344565b90509250929050565b60006020828403121561139257600080fd5b6111e082611344565b634e487b7160e01b600052604160045260246000fd5b6040516060810167ffffffffffffffff811182821017156113d4576113d461139b565b60405290565b604051601f8201601f1916810167ffffffffffffffff811182821017156114035761140361139b565b604052919050565b600067ffffffffffffffff8211156114255761142561139b565b5060051b60200190565b600061144261143d8461140b565b6113da565b83815260208082019190600586811b86013681111561146057600080fd5b865b8181101561156657803567ffffffffffffffff808211156114835760008081fd5b818a019150606082360312156114995760008081fd5b6114a16113b1565b6114aa836111a9565b815286830135600381106114be5760008081fd5b81880152604083810135838111156114d65760008081fd5b939093019236601f8501126114ed57600092508283fd5b833592506114fd61143d8461140b565b83815292871b8401880192888101903685111561151a5760008081fd5b948901945b8486101561154f5785356001600160e01b0319811681146115405760008081fd5b8252948901949089019061151f565b918301919091525088525050948301948301611462565b5092979650505050505050565b634e487b7160e01b600052601160045260246000fd5b60006001820161159b5761159b611573565b5060010190565b634e487b7160e01b600052603260045260246000fd5b634e487b7160e01b600052602160045260246000fd5b60005b838110156115e95781810151838201526020016115d1565b50506000910152565b6000815180845261160a8160208601602086016115ce565b601f01601f19169290920160200192915050565b60006060808301818452808751808352608092508286019150828160051b8701016020808b0160005b848110156116ee57898403607f19018652815180516001600160a01b0316855283810151898601906003811061168d57634e487b7160e01b600052602160045260246000fd5b868601526040918201519186018a905281519081905290840190600090898701905b808310156116d95783516001600160e01b03191682529286019260019290920191908601906116af565b50978501979550505090820190600101611647565b50506001600160a01b038a1690880152868103604088015261171081896115f2565b9a9950505050505050505050565b6020808252602b908201527f4c69624469616d6f6e644375743a204e6f2073656c6563746f727320696e206660408201526a1858d95d081d1bc818dd5d60aa1b606082015260800190565b6020808252602c908201527f4c69624469616d6f6e644375743a204164642066616365742063616e2774206260408201526b65206164647265737328302960a01b606082015260800190565b60006001600160601b038083168181036117d1576117d1611573565b6001019392505050565b600082516117ed8184602087016115ce565b9190910192915050565b6001600160a01b038316815260406020820181905260009061181b908301846115f2565b949350505050565b8181038181111561042657610426611573565b634e487b7160e01b600052603160045260246000fd5b6020815260006111e060208301846115f256fec8fcad8db84d3cc18b4c41d551ea0ee66dd599cde068d998e57d5e09332c131c4c69624469616d6f6e644375743a205f696e6974206164647265737320686173206e6f20636f64654c69624469616d6f6e644375743a204e657720666163657420686173206e6f20636f6465a2646970667358221220c63b991095bcf30ff408b908f29c8c7d5b64cf6bdc01a0e44a8419c9aad1269164736f6c63430008150033",
    "linkReferences": {}
  },
  "methodIdentifiers": {
    "changeAdminFee(uint16)": "cc9999e2",
    "changeAdminFeeRecipient(address)": "cffd8493",
    "changeDefaultSlippage(uint16)": "2bc8a42d",
    "changeProtocolFee(uint24)": "997d37b1",
    "changeUniFee(uint24)": "5acb2ecb",
    "claimReward()": "b88a802f",
    "diamondCut((address,uint8,bytes4[])[],address,bytes)": "1f931c1c",
    "earned(address)": "008cc262",
    "enableSwitch(bool)": "ee092795",
    "getRewardsData()": "7d098e64",
    "lastTimeRewardApplicable()": "80faa57d",
    "notifyRewardAmount(uint256)": "3c6b16ab",
    "pause(uint256,bool)": "93578b04",
    "rewardPerToken()": "cd3daf9d",
    "setRewardsDuration(uint256)": "cc1a378f",
    "storeOZL(address)": "3bba4b35"
  },
  "id": 14
}