{
  "abi": [
    {
      "inputs": [
        {
          "internalType": "address",
          "name": "_initializationContractAddress",
          "type": "address"
        },
        {
          "internalType": "bytes",
          "name": "_calldata",
          "type": "bytes"
        }
      ],
      "name": "InitializationFunctionReverted",
      "type": "error"
    },
    {
      "anonymous": false,
      "inputs": [
        {
          "components": [
            {
              "internalType": "address",
              "name": "facetAddress",
              "type": "address"
            },
            {
              "internalType": "enum IDiamondCut.FacetCutAction",
              "name": "action",
              "type": "uint8"
            },
            {
              "internalType": "bytes4[]",
              "name": "functionSelectors",
              "type": "bytes4[]"
            }
          ],
          "indexed": false,
          "internalType": "struct IDiamondCut.FacetCut[]",
          "name": "_diamondCut",
          "type": "tuple[]"
        },
        {
          "indexed": false,
          "internalType": "address",
          "name": "_init",
          "type": "address"
        },
        {
          "indexed": false,
          "internalType": "bytes",
          "name": "_calldata",
          "type": "bytes"
        }
      ],
      "name": "DiamondCut",
      "type": "event"
    },
    {
      "inputs": [
        {
          "internalType": "uint256",
          "name": "newBasisPoints_",
          "type": "uint256"
        }
      ],
      "name": "changeDefaultSlippage",
      "outputs": [],
      "stateMutability": "nonpayable",
      "type": "function"
    },
    {
      "inputs": [
        {
          "components": [
            {
              "internalType": "address",
              "name": "facetAddress",
              "type": "address"
            },
            {
              "internalType": "enum IDiamondCut.FacetCutAction",
              "name": "action",
              "type": "uint8"
            },
            {
              "internalType": "bytes4[]",
              "name": "functionSelectors",
              "type": "bytes4[]"
            }
          ],
          "internalType": "struct IDiamondCut.FacetCut[]",
          "name": "_diamondCut",
          "type": "tuple[]"
        },
        {
          "internalType": "address",
          "name": "_init",
          "type": "address"
        },
        {
          "internalType": "bytes",
          "name": "_calldata",
          "type": "bytes"
        }
      ],
      "name": "diamondCut",
      "outputs": [],
      "stateMutability": "nonpayable",
      "type": "function"
    }
  ],
  "bytecode": {
    "object": "0x608060405234801561001057600080fd5b506113d3806100206000396000f3fe608060405234801561001057600080fd5b50600436106100365760003560e01c806305e092651461003b5780631f931c1c14610050575b600080fd5b61004e610049366004610d30565b610063565b005b61004e61005e366004610dae565b610070565b61006b6100c9565b600755565b6100786100c9565b6100c26100858587610ef4565b8484848080601f01602080910402602001604051908101604052809392919081815260200183838082843760009201919091525061014592505050565b5050505050565b600080516020611332833981519152600401546001600160a01b031633146101435760405162461bcd60e51b815260206004820152602260248201527f4c69624469616d6f6e643a204d75737420626520636f6e7472616374206f776e60448201526132b960f11b60648201526084015b60405180910390fd5b565b60005b835181101561030b57600084828151811061016557610165611038565b6020026020010151602001519050600060028111156101865761018661104e565b8160028111156101985761019861104e565b036101e6576101e18583815181106101b2576101b2611038565b6020026020010151600001518684815181106101d0576101d0611038565b602002602001015160400151610356565b6102f8565b60018160028111156101fa576101fa61104e565b03610243576101e185838151811061021457610214611038565b60200260200101516000015186848151811061023257610232611038565b6020026020010151604001516104ce565b60028160028111156102575761025761104e565b036102a0576101e185838151811061027157610271611038565b60200260200101516000015186848151811061028f5761028f611038565b60200260200101516040015161065e565b60405162461bcd60e51b815260206004820152602760248201527f4c69624469616d6f6e644375743a20496e636f727265637420466163657443756044820152663a20b1ba34b7b760c91b606482015260840161013a565b50806103038161107a565b915050610148565b507f8faa70878671ccd212d20771b795c50af8fd3ff6cf27f4bde57e5d4de0aeb67383838360405161033f939291906110e3565b60405180910390a1610351828261077c565b505050565b60008151116103775760405162461bcd60e51b815260040161013a906111e3565b6000805160206113328339815191526001600160a01b0383166103ac5760405162461bcd60e51b815260040161013a9061122e565b6001600160a01b0383166000908152600182016020526040812054906001600160601b03821690036103e2576103e28285610842565b60005b83518110156100c257600084828151811061040257610402611038565b6020908102919091018101516001600160e01b031981166000908152918690526040909120549091506001600160a01b031680156104a05760405162461bcd60e51b815260206004820152603560248201527f4c69624469616d6f6e644375743a2043616e2774206164642066756e6374696f6044820152746e207468617420616c72656164792065786973747360581b606482015260840161013a565b6104ac8583868a6108ac565b836104b68161127a565b945050505080806104c69061107a565b9150506103e5565b60008151116104ef5760405162461bcd60e51b815260040161013a906111e3565b6000805160206113328339815191526001600160a01b0383166105245760405162461bcd60e51b815260040161013a9061122e565b6001600160a01b0383166000908152600182016020526040812054906001600160601b038216900361055a5761055a8285610842565b60005b83518110156100c257600084828151811061057a5761057a611038565b6020908102919091018101516001600160e01b031981166000908152918690526040909120549091506001600160a01b0390811690871681036106255760405162461bcd60e51b815260206004820152603860248201527f4c69624469616d6f6e644375743a2043616e2774207265706c6163652066756e60448201527f6374696f6e20776974682073616d652066756e6374696f6e0000000000000000606482015260840161013a565b61063085828461094c565b61063c8583868a6108ac565b836106468161127a565b945050505080806106569061107a565b91505061055d565b600081511161067f5760405162461bcd60e51b815260040161013a906111e3565b6000805160206113328339815191526001600160a01b038316156107045760405162461bcd60e51b815260206004820152603660248201527f4c69624469616d6f6e644375743a2052656d6f76652066616365742061646472604482015275657373206d757374206265206164647265737328302960501b606482015260840161013a565b60005b825181101561077657600083828151811061072457610724611038565b6020908102919091018101516001600160e01b031981166000908152918590526040909120549091506001600160a01b031661076184828461094c565b5050808061076e9061107a565b915050610707565b50505050565b6001600160a01b03821661078e575050565b6107b08260405180606001604052806028815260200161135260289139610d0f565b600080836001600160a01b0316836040516107cb91906112a0565b600060405180830381855af49150503d8060008114610806576040519150601f19603f3d011682016040523d82523d6000602084013e61080b565b606091505b509150915081610776578051156108255780518082602001fd5b838360405163192105d760e01b815260040161013a9291906112bc565b6108648160405180606001604052806024815260200161137a60249139610d0f565b6002820180546001600160a01b0390921660008181526001948501602090815260408220860185905594840183559182529290200180546001600160a01b0319169091179055565b6001600160e01b0319831660008181526020868152604080832080546001600160601b03909716600160a01b026001600160a01b0397881617815594909516808352600180890183529583208054968701815583528183206008870401805460e09890981c60046007909816979097026101000a96870263ffffffff9097021990971695909517909555529290915281546001600160a01b031916179055565b6001600160a01b0382166109c85760405162461bcd60e51b815260206004820152603760248201527f4c69624469616d6f6e644375743a2043616e27742072656d6f76652066756e6360448201527f74696f6e207468617420646f65736e2774206578697374000000000000000000606482015260840161013a565b306001600160a01b03831603610a375760405162461bcd60e51b815260206004820152602e60248201527f4c69624469616d6f6e644375743a2043616e27742072656d6f766520696d6d7560448201526d3a30b1363290333ab731ba34b7b760911b606482015260840161013a565b6001600160e01b03198116600090815260208481526040808320546001600160a01b0386168452600180880190935290832054600160a01b9091046001600160601b03169291610a86916112e8565b9050808214610b78576001600160a01b03841660009081526001860160205260408120805483908110610abb57610abb611038565b600091825260208083206008830401546001600160a01b038916845260018a019091526040909220805460079092166004026101000a90920460e01b925082919085908110610b0c57610b0c611038565b600091825260208083206008830401805463ffffffff60079094166004026101000a938402191660e09590951c929092029390931790556001600160e01b03199290921682528690526040902080546001600160a01b0316600160a01b6001600160601b038516021790555b6001600160a01b03841660009081526001860160205260409020805480610ba157610ba1611301565b60008281526020808220600860001990940193840401805463ffffffff600460078716026101000a0219169055919092556001600160e01b031985168252869052604081208190558190036100c2576002850154600090610c04906001906112e8565b6001600160a01b0386166000908152600180890160205260409091200154909150808214610cb3576000876002018381548110610c4357610c43611038565b6000918252602090912001546002890180546001600160a01b039092169250829184908110610c7457610c74611038565b600091825260208083209190910180546001600160a01b0319166001600160a01b03948516179055929091168152600189810190925260409020018190555b86600201805480610cc657610cc6611301565b60008281526020808220830160001990810180546001600160a01b03191690559092019092556001600160a01b0388168252600189810190915260408220015550505050505050565b813b81816107765760405162461bcd60e51b815260040161013a9190611317565b600060208284031215610d4257600080fd5b5035919050565b80356001600160a01b0381168114610d6057600080fd5b919050565b60008083601f840112610d7757600080fd5b50813567ffffffffffffffff811115610d8f57600080fd5b602083019150836020828501011115610da757600080fd5b9250929050565b600080600080600060608688031215610dc657600080fd5b853567ffffffffffffffff80821115610dde57600080fd5b818801915088601f830112610df257600080fd5b813581811115610e0157600080fd5b8960208260051b8501011115610e1657600080fd5b60208301975080965050610e2c60208901610d49565b94506040880135915080821115610e4257600080fd5b50610e4f88828901610d65565b969995985093965092949392505050565b634e487b7160e01b600052604160045260246000fd5b6040516060810167ffffffffffffffff81118282101715610e9957610e99610e60565b60405290565b604051601f8201601f1916810167ffffffffffffffff81118282101715610ec857610ec8610e60565b604052919050565b600067ffffffffffffffff821115610eea57610eea610e60565b5060051b60200190565b6000610f07610f0284610ed0565b610e9f565b83815260208082019190600586811b860136811115610f2557600080fd5b865b8181101561102b57803567ffffffffffffffff80821115610f485760008081fd5b818a01915060608236031215610f5e5760008081fd5b610f66610e76565b610f6f83610d49565b81528683013560038110610f835760008081fd5b8188015260408381013583811115610f9b5760008081fd5b939093019236601f850112610fb257600092508283fd5b83359250610fc2610f0284610ed0565b83815292871b84018801928881019036851115610fdf5760008081fd5b948901945b848610156110145785356001600160e01b0319811681146110055760008081fd5b82529489019490890190610fe4565b918301919091525088525050948301948301610f27565b5092979650505050505050565b634e487b7160e01b600052603260045260246000fd5b634e487b7160e01b600052602160045260246000fd5b634e487b7160e01b600052601160045260246000fd5b60006001820161108c5761108c611064565b5060010190565b60005b838110156110ae578181015183820152602001611096565b50506000910152565b600081518084526110cf816020860160208601611093565b601f01601f19169290920160200192915050565b60006060808301818452808751808352608092508286019150828160051b8701016020808b0160005b848110156111b357898403607f19018652815180516001600160a01b0316855283810151898601906003811061115257634e487b7160e01b600052602160045260246000fd5b868601526040918201519186018a905281519081905290840190600090898701905b8083101561119e5783516001600160e01b0319168252928601926001929092019190860190611174565b5097850197955050509082019060010161110c565b50506001600160a01b038a169088015286810360408801526111d581896110b7565b9a9950505050505050505050565b6020808252602b908201527f4c69624469616d6f6e644375743a204e6f2073656c6563746f727320696e206660408201526a1858d95d081d1bc818dd5d60aa1b606082015260800190565b6020808252602c908201527f4c69624469616d6f6e644375743a204164642066616365742063616e2774206260408201526b65206164647265737328302960a01b606082015260800190565b60006001600160601b0380831681810361129657611296611064565b6001019392505050565b600082516112b2818460208701611093565b9190910192915050565b6001600160a01b03831681526040602082018190526000906112e0908301846110b7565b949350505050565b818103818111156112fb576112fb611064565b92915050565b634e487b7160e01b600052603160045260246000fd5b60208152600061132a60208301846110b7565b939250505056fec8fcad8db84d3cc18b4c41d551ea0ee66dd599cde068d998e57d5e09332c131c4c69624469616d6f6e644375743a205f696e6974206164647265737320686173206e6f20636f64654c69624469616d6f6e644375743a204e657720666163657420686173206e6f20636f6465a26469706673582212205b5814fa045e44d1cd32c14406bc4667e6f56a42a9d6c2ea2a11982e54a0b6eb64736f6c63430008150033",
    "linkReferences": {}
  },
  "methodIdentifiers": {
    "changeDefaultSlippage(uint256)": "05e09265",
    "diamondCut((address,uint8,bytes4[])[],address,bytes)": "1f931c1c"
  },
  "id": 9
}