{
  "abi": [
    {
      "inputs": [
        {
          "internalType": "address",
          "name": "_initializationContractAddress",
          "type": "address"
        },
        {
          "internalType": "bytes",
          "name": "_calldata",
          "type": "bytes"
        }
      ],
      "name": "InitializationFunctionReverted",
      "type": "error"
    },
    {
      "inputs": [
        {
          "internalType": "address",
          "name": "caller",
          "type": "address"
        }
      ],
      "name": "OZError13",
      "type": "error"
    },
    {
      "inputs": [
        {
          "internalType": "bool",
          "name": "state",
          "type": "bool"
        }
      ],
      "name": "OZError28",
      "type": "error"
    },
    {
      "inputs": [],
      "name": "OZError29",
      "type": "error"
    },
    {
      "inputs": [],
      "name": "OZError30",
      "type": "error"
    },
    {
      "inputs": [
        {
          "internalType": "address",
          "name": "facet",
          "type": "address"
        }
      ],
      "name": "OZError31",
      "type": "error"
    },
    {
      "inputs": [],
      "name": "OZError32",
      "type": "error"
    },
    {
      "inputs": [
        {
          "internalType": "address",
          "name": "caller",
          "type": "address"
        }
      ],
      "name": "OZError33",
      "type": "error"
    },
    {
      "anonymous": false,
      "inputs": [
        {
          "components": [
            {
              "internalType": "address",
              "name": "facetAddress",
              "type": "address"
            },
            {
              "internalType": "enum IDiamondCut.FacetCutAction",
              "name": "action",
              "type": "uint8"
            },
            {
              "internalType": "bytes4[]",
              "name": "functionSelectors",
              "type": "bytes4[]"
            }
          ],
          "indexed": false,
          "internalType": "struct IDiamondCut.FacetCut[]",
          "name": "_diamondCut",
          "type": "tuple[]"
        },
        {
          "indexed": false,
          "internalType": "address",
          "name": "_init",
          "type": "address"
        },
        {
          "indexed": false,
          "internalType": "bytes",
          "name": "_calldata",
          "type": "bytes"
        }
      ],
      "name": "DiamondCut",
      "type": "event"
    },
    {
      "inputs": [
        {
          "internalType": "address",
          "name": "facet_",
          "type": "address"
        }
      ],
      "name": "addPauseContract",
      "outputs": [],
      "stateMutability": "nonpayable",
      "type": "function"
    },
    {
      "inputs": [
        {
          "internalType": "uint16",
          "name": "newFee_",
          "type": "uint16"
        }
      ],
      "name": "changeAdminFee",
      "outputs": [],
      "stateMutability": "nonpayable",
      "type": "function"
    },
    {
      "inputs": [
        {
          "internalType": "address",
          "name": "newRecipient_",
          "type": "address"
        }
      ],
      "name": "changeAdminFeeRecipient",
      "outputs": [],
      "stateMutability": "nonpayable",
      "type": "function"
    },
    {
      "inputs": [
        {
          "internalType": "uint16",
          "name": "newBps_",
          "type": "uint16"
        }
      ],
      "name": "changeDefaultSlippage",
      "outputs": [],
      "stateMutability": "nonpayable",
      "type": "function"
    },
    {
      "inputs": [
        {
          "internalType": "uint24",
          "name": "newFee_",
          "type": "uint24"
        }
      ],
      "name": "changeProtocolFee",
      "outputs": [],
      "stateMutability": "nonpayable",
      "type": "function"
    },
    {
      "inputs": [
        {
          "internalType": "uint24",
          "name": "newBps_",
          "type": "uint24"
        }
      ],
      "name": "changeUniFee",
      "outputs": [],
      "stateMutability": "nonpayable",
      "type": "function"
    },
    {
      "inputs": [],
      "name": "claimReward",
      "outputs": [
        {
          "internalType": "uint256",
          "name": "",
          "type": "uint256"
        }
      ],
      "stateMutability": "nonpayable",
      "type": "function"
    },
    {
      "inputs": [
        {
          "components": [
            {
              "internalType": "address",
              "name": "facetAddress",
              "type": "address"
            },
            {
              "internalType": "enum IDiamondCut.FacetCutAction",
              "name": "action",
              "type": "uint8"
            },
            {
              "internalType": "bytes4[]",
              "name": "functionSelectors",
              "type": "bytes4[]"
            }
          ],
          "internalType": "struct IDiamondCut.FacetCut[]",
          "name": "_diamondCut",
          "type": "tuple[]"
        },
        {
          "internalType": "address",
          "name": "_init",
          "type": "address"
        },
        {
          "internalType": "bytes",
          "name": "_calldata",
          "type": "bytes"
        }
      ],
      "name": "diamondCut",
      "outputs": [],
      "stateMutability": "nonpayable",
      "type": "function"
    },
    {
      "inputs": [
        {
          "internalType": "address",
          "name": "user_",
          "type": "address"
        }
      ],
      "name": "earned",
      "outputs": [
        {
          "internalType": "uint256",
          "name": "",
          "type": "uint256"
        }
      ],
      "stateMutability": "view",
      "type": "function"
    },
    {
      "inputs": [
        {
          "internalType": "bool",
          "name": "newState_",
          "type": "bool"
        }
      ],
      "name": "enableSwitch",
      "outputs": [
        {
          "internalType": "bool",
          "name": "",
          "type": "bool"
        }
      ],
      "stateMutability": "nonpayable",
      "type": "function"
    },
    {
      "inputs": [],
      "name": "getRewardsData",
      "outputs": [
        {
          "internalType": "uint256",
          "name": "rewardRate",
          "type": "uint256"
        },
        {
          "internalType": "uint256",
          "name": "circulatingSupply",
          "type": "uint256"
        },
        {
          "internalType": "uint256",
          "name": "pendingAllocation",
          "type": "uint256"
        },
        {
          "internalType": "uint256",
          "name": "recicledSupply",
          "type": "uint256"
        },
        {
          "internalType": "int256",
          "name": "durationLeft",
          "type": "int256"
        }
      ],
      "stateMutability": "view",
      "type": "function"
    },
    {
      "inputs": [],
      "name": "lastTimeRewardApplicable",
      "outputs": [
        {
          "internalType": "uint256",
          "name": "",
          "type": "uint256"
        }
      ],
      "stateMutability": "view",
      "type": "function"
    },
    {
      "inputs": [
        {
          "internalType": "uint256",
          "name": "amount_",
          "type": "uint256"
        }
      ],
      "name": "notifyRewardAmount",
      "outputs": [],
      "stateMutability": "nonpayable",
      "type": "function"
    },
    {
      "inputs": [
        {
          "internalType": "uint256",
          "name": "index_",
          "type": "uint256"
        },
        {
          "internalType": "bool",
          "name": "newState_",
          "type": "bool"
        }
      ],
      "name": "pause",
      "outputs": [
        {
          "internalType": "bool",
          "name": "",
          "type": "bool"
        }
      ],
      "stateMutability": "nonpayable",
      "type": "function"
    },
    {
      "inputs": [],
      "name": "rewardPerToken",
      "outputs": [
        {
          "internalType": "uint256",
          "name": "",
          "type": "uint256"
        }
      ],
      "stateMutability": "view",
      "type": "function"
    },
    {
      "inputs": [
        {
          "internalType": "uint256",
          "name": "duration_",
          "type": "uint256"
        }
      ],
      "name": "setRewardsDuration",
      "outputs": [],
      "stateMutability": "nonpayable",
      "type": "function"
    },
    {
      "inputs": [
        {
          "internalType": "address",
          "name": "ozlProxy_",
          "type": "address"
        }
      ],
      "name": "storeOZL",
      "outputs": [],
      "stateMutability": "nonpayable",
      "type": "function"
    }
  ],
  "bytecode": {
    "object": "0x608060405234801561001057600080fd5b50611b50806100206000396000f3fe608060405234801561001057600080fd5b506004361061010a5760003560e01c806393578b04116100a2578063cc9999e211610071578063cc9999e2146101ff578063cd3daf9d146101c2578063cffd849314610212578063e8d5349014610225578063ee0927951461023857600080fd5b806393578b04146101c9578063997d37b1146101ec578063b88a802f146101c2578063cc1a378f1461017157600080fd5b80633c6b16ab116100de5780633c6b16ab146101715780635acb2ecb146101825780637d098e641461019557806380faa57d146101c257600080fd5b80628cc2621461010f5780631f931c1c146101365780632bc8a42d1461014b5780633bba4b351461015e575b600080fd5b61012361011d366004611350565b50600090565b6040519081526020015b60405180910390f35b6101496101443660046113bb565b61024b565b005b61014961015936600461146d565b6102a4565b61014961016c366004611350565b6102ce565b61014961017f366004611491565b50565b6101496101903660046114aa565b61031d565b6040805160008082526020820181905291810182905260608101829052608081019190915260a00161012d565b6000610123565b6101dc6101d73660046114df565b61033f565b604051901515815260200161012d565b6101496101fa3660046114aa565b61044a565b61014961020d36600461146d565b61047c565b610149610220366004611350565b6104f9565b610149610233366004611350565b610548565b6101dc61024636600461150b565b610662565b610253610683565b61029d61026085876115d0565b8484848080601f0160208091040260200160405190810160405280939291908181526020018383808284376000920191909152506106fa92505050565b5050505050565b6102ac610683565b6007805461ffff909216600160a01b0261ffff60a01b19909216919091179055565b6102d6610683565b601380546001600160a01b039092166901000000000000000000027fffffff0000000000000000000000000000000000000000ffffffffffffffffff909216919091179055565b610325610683565b6013805462ffffff191662ffffff92909216919091179055565b6000610349610683565b600883901c600090815260276020526040902054821515600160ff86161b90911615150361039357604051638b834ef360e01b815282151560048201526024015b60405180910390fd5b826001036103b45760405163604f135b60e11b815260040160405180910390fd5b602a5460ff166103d757604051633d72899f60e21b815260040160405180910390fd5b6103e36027848461090b565b60015b60285461ffff1681101561043e57600881901c600090815260276020526040902054600160ff83161b161561042c57610422602760018061090b565b6001915050610444565b806104368161171c565b9150506103e6565b50600090505b92915050565b610452610683565b6013805462ffffff90921666010000000000000268ffffff00000000000019909216919091179055565b336104ae7fc8fcad8db84d3cc18b4c41d551ea0ee66dd599cde068d998e57d5e09332c1320546001600160a01b031690565b6001600160a01b0316146104d7576040516322717c0360e11b815233600482015260240161038a565b601f805461ffff909216600160a01b0261ffff60a01b19909216919091179055565b601f546001600160a01b031633146105265760405163a43f931360e01b815233600482015260240161038a565b601f80546001600160a01b0319166001600160a01b0392909216919091179055565b610550610683565b6001600160a01b03811661057757604051631b3aaf7d60e11b815260040160405180910390fd5b6040516356fe50af60e11b81526001600160a01b0382166004820152309063adfca15e90602401600060405180830381865afa1580156105bb573d6000803e3d6000fd5b505050506040513d6000823e601f3d908101601f191682016040526105e39190810190611735565b5160000361060f576040516324a4e19760e11b81526001600160a01b038216600482015260240161038a565b602880546001600160a01b038316600090815260296020526040812061ffff9283169055825460019392610645918591166117cf565b92506101000a81548161ffff021916908361ffff16021790555050565b600061066c610683565b50602a805460ff1916911515918217905560ff1690565b600080516020611aaf833981519152600401546001600160a01b031633146106f85760405162461bcd60e51b815260206004820152602260248201527f4c69624469616d6f6e643a204d75737420626520636f6e7472616374206f776e60448201526132b960f11b606482015260840161038a565b565b60005b83518110156108c057600084828151811061071a5761071a6117f1565b60200260200101516020015190506000600281111561073b5761073b611807565b81600281111561074d5761074d611807565b0361079b57610796858381518110610767576107676117f1565b602002602001015160000151868481518110610785576107856117f1565b60200260200101516040015161095a565b6108ad565b60018160028111156107af576107af611807565b036107f8576107968583815181106107c9576107c96117f1565b6020026020010151600001518684815181106107e7576107e76117f1565b602002602001015160400151610ad2565b600281600281111561080c5761080c611807565b0361085557610796858381518110610826576108266117f1565b602002602001015160000151868481518110610844576108446117f1565b602002602001015160400151610c62565b60405162461bcd60e51b815260206004820152602760248201527f4c69624469616d6f6e644375743a20496e636f727265637420466163657443756044820152663a20b1ba34b7b760c91b606482015260840161038a565b50806108b88161171c565b9150506106fd565b507f8faa70878671ccd212d20771b795c50af8fd3ff6cf27f4bde57e5d4de0aeb6738383836040516108f49392919061186d565b60405180910390a16109068282610d80565b505050565b801561093557600882901c60009081526020849052604090208054600160ff85161b179055505050565b600882901c60009081526020849052604090208054600160ff85161b19169055505050565b600081511161097b5760405162461bcd60e51b815260040161038a9061196d565b600080516020611aaf8339815191526001600160a01b0383166109b05760405162461bcd60e51b815260040161038a906119b8565b6001600160a01b0383166000908152600182016020526040812054906001600160601b03821690036109e6576109e68285610e46565b60005b835181101561029d576000848281518110610a0657610a066117f1565b6020908102919091018101516001600160e01b031981166000908152918690526040909120549091506001600160a01b03168015610aa45760405162461bcd60e51b815260206004820152603560248201527f4c69624469616d6f6e644375743a2043616e2774206164642066756e6374696f6044820152746e207468617420616c72656164792065786973747360581b606482015260840161038a565b610ab08583868a610eb0565b83610aba81611a04565b94505050508080610aca9061171c565b9150506109e9565b6000815111610af35760405162461bcd60e51b815260040161038a9061196d565b600080516020611aaf8339815191526001600160a01b038316610b285760405162461bcd60e51b815260040161038a906119b8565b6001600160a01b0383166000908152600182016020526040812054906001600160601b0382169003610b5e57610b5e8285610e46565b60005b835181101561029d576000848281518110610b7e57610b7e6117f1565b6020908102919091018101516001600160e01b031981166000908152918690526040909120549091506001600160a01b039081169087168103610c295760405162461bcd60e51b815260206004820152603860248201527f4c69624469616d6f6e644375743a2043616e2774207265706c6163652066756e60448201527f6374696f6e20776974682073616d652066756e6374696f6e0000000000000000606482015260840161038a565b610c34858284610f50565b610c408583868a610eb0565b83610c4a81611a04565b94505050508080610c5a9061171c565b915050610b61565b6000815111610c835760405162461bcd60e51b815260040161038a9061196d565b600080516020611aaf8339815191526001600160a01b03831615610d085760405162461bcd60e51b815260206004820152603660248201527f4c69624469616d6f6e644375743a2052656d6f76652066616365742061646472604482015275657373206d757374206265206164647265737328302960501b606482015260840161038a565b60005b8251811015610d7a576000838281518110610d2857610d286117f1565b6020908102919091018101516001600160e01b031981166000908152918590526040909120549091506001600160a01b0316610d65848284610f50565b50508080610d729061171c565b915050610d0b565b50505050565b6001600160a01b038216610d92575050565b610db482604051806060016040528060288152602001611acf60289139611313565b600080836001600160a01b031683604051610dcf9190611a2a565b600060405180830381855af49150503d8060008114610e0a576040519150601f19603f3d011682016040523d82523d6000602084013e610e0f565b606091505b509150915081610d7a57805115610e295780518082602001fd5b838360405163192105d760e01b815260040161038a929190611a46565b610e6881604051806060016040528060248152602001611af760249139611313565b6002820180546001600160a01b0390921660008181526001948501602090815260408220860185905594840183559182529290200180546001600160a01b0319169091179055565b6001600160e01b0319831660008181526020868152604080832080546001600160601b03909716600160a01b026001600160a01b0397881617815594909516808352600180890183529583208054968701815583528183206008870401805460e09890981c60046007909816979097026101000a96870263ffffffff9097021990971695909517909555529290915281546001600160a01b031916179055565b6001600160a01b038216610fcc5760405162461bcd60e51b815260206004820152603760248201527f4c69624469616d6f6e644375743a2043616e27742072656d6f76652066756e6360448201527f74696f6e207468617420646f65736e2774206578697374000000000000000000606482015260840161038a565b306001600160a01b0383160361103b5760405162461bcd60e51b815260206004820152602e60248201527f4c69624469616d6f6e644375743a2043616e27742072656d6f766520696d6d7560448201526d3a30b1363290333ab731ba34b7b760911b606482015260840161038a565b6001600160e01b03198116600090815260208481526040808320546001600160a01b0386168452600180880190935290832054600160a01b9091046001600160601b0316929161108a91611a72565b905080821461117c576001600160a01b038416600090815260018601602052604081208054839081106110bf576110bf6117f1565b600091825260208083206008830401546001600160a01b038916845260018a019091526040909220805460079092166004026101000a90920460e01b925082919085908110611110576111106117f1565b600091825260208083206008830401805463ffffffff60079094166004026101000a938402191660e09590951c929092029390931790556001600160e01b03199290921682528690526040902080546001600160a01b0316600160a01b6001600160601b038516021790555b6001600160a01b038416600090815260018601602052604090208054806111a5576111a5611a85565b60008281526020808220600860001990940193840401805463ffffffff600460078716026101000a0219169055919092556001600160e01b0319851682528690526040812081905581900361029d57600285015460009061120890600190611a72565b6001600160a01b03861660009081526001808901602052604090912001549091508082146112b7576000876002018381548110611247576112476117f1565b6000918252602090912001546002890180546001600160a01b039092169250829184908110611278576112786117f1565b600091825260208083209190910180546001600160a01b0319166001600160a01b03948516179055929091168152600189810190925260409020018190555b866002018054806112ca576112ca611a85565b60008281526020808220830160001990810180546001600160a01b03191690559092019092556001600160a01b0388168252600189810190915260408220015550505050505050565b813b8181610d7a5760405162461bcd60e51b815260040161038a9190611a9b565b80356001600160a01b038116811461134b57600080fd5b919050565b60006020828403121561136257600080fd5b61136b82611334565b9392505050565b60008083601f84011261138457600080fd5b50813567ffffffffffffffff81111561139c57600080fd5b6020830191508360208285010111156113b457600080fd5b9250929050565b6000806000806000606086880312156113d357600080fd5b853567ffffffffffffffff808211156113eb57600080fd5b818801915088601f8301126113ff57600080fd5b81358181111561140e57600080fd5b8960208260051b850101111561142357600080fd5b6020830197508096505061143960208901611334565b9450604088013591508082111561144f57600080fd5b5061145c88828901611372565b969995985093965092949392505050565b60006020828403121561147f57600080fd5b813561ffff8116811461136b57600080fd5b6000602082840312156114a357600080fd5b5035919050565b6000602082840312156114bc57600080fd5b813562ffffff8116811461136b57600080fd5b8035801515811461134b57600080fd5b600080604083850312156114f257600080fd5b82359150611502602084016114cf565b90509250929050565b60006020828403121561151d57600080fd5b61136b826114cf565b634e487b7160e01b600052604160045260246000fd5b6040516060810167ffffffffffffffff8111828210171561155f5761155f611526565b60405290565b604051601f8201601f1916810167ffffffffffffffff8111828210171561158e5761158e611526565b604052919050565b600067ffffffffffffffff8211156115b0576115b0611526565b5060051b60200190565b6001600160e01b03198116811461017f57600080fd5b60006115e36115de84611596565b611565565b83815260208082019190600586811b86013681111561160157600080fd5b865b818110156116f957803567ffffffffffffffff808211156116245760008081fd5b818a0191506060823603121561163a5760008081fd5b61164261153c565b61164b83611334565b8152868301356003811061165f5760008081fd5b81880152604083810135838111156116775760008081fd5b939093019236601f85011261168e57600092508283fd5b8335925061169e6115de84611596565b83815292871b840188019288810190368511156116bb5760008081fd5b948901945b848610156116e25785356116d3816115ba565b825294890194908901906116c0565b918301919091525088525050948301948301611603565b5092979650505050505050565b634e487b7160e01b600052601160045260246000fd5b60006001820161172e5761172e611706565b5060010190565b6000602080838503121561174857600080fd5b825167ffffffffffffffff81111561175f57600080fd5b8301601f8101851361177057600080fd5b805161177e6115de82611596565b81815260059190911b8201830190838101908783111561179d57600080fd5b928401925b828410156117c45783516117b5816115ba565b825292840192908401906117a2565b979650505050505050565b61ffff8181168382160190808211156117ea576117ea611706565b5092915050565b634e487b7160e01b600052603260045260246000fd5b634e487b7160e01b600052602160045260246000fd5b60005b83811015611838578181015183820152602001611820565b50506000910152565b6000815180845261185981602086016020860161181d565b601f01601f19169290920160200192915050565b60006060808301818452808751808352608092508286019150828160051b8701016020808b0160005b8481101561193d57898403607f19018652815180516001600160a01b031685528381015189860190600381106118dc57634e487b7160e01b600052602160045260246000fd5b868601526040918201519186018a905281519081905290840190600090898701905b808310156119285783516001600160e01b03191682529286019260019290920191908601906118fe565b50978501979550505090820190600101611896565b50506001600160a01b038a1690880152868103604088015261195f8189611841565b9a9950505050505050505050565b6020808252602b908201527f4c69624469616d6f6e644375743a204e6f2073656c6563746f727320696e206660408201526a1858d95d081d1bc818dd5d60aa1b606082015260800190565b6020808252602c908201527f4c69624469616d6f6e644375743a204164642066616365742063616e2774206260408201526b65206164647265737328302960a01b606082015260800190565b60006001600160601b03808316818103611a2057611a20611706565b6001019392505050565b60008251611a3c81846020870161181d565b9190910192915050565b6001600160a01b0383168152604060208201819052600090611a6a90830184611841565b949350505050565b8181038181111561044457610444611706565b634e487b7160e01b600052603160045260246000fd5b60208152600061136b602083018461184156fec8fcad8db84d3cc18b4c41d551ea0ee66dd599cde068d998e57d5e09332c131c4c69624469616d6f6e644375743a205f696e6974206164647265737320686173206e6f20636f64654c69624469616d6f6e644375743a204e657720666163657420686173206e6f20636f6465a26469706673582212209124f2a0f4044ad3a1d751fb55d12ffb6f85c1e838e10944e73211bc2ccb6c1064736f6c63430008150033",
    "linkReferences": {}
  },
  "methodIdentifiers": {
    "addPauseContract(address)": "e8d53490",
    "changeAdminFee(uint16)": "cc9999e2",
    "changeAdminFeeRecipient(address)": "cffd8493",
    "changeDefaultSlippage(uint16)": "2bc8a42d",
    "changeProtocolFee(uint24)": "997d37b1",
    "changeUniFee(uint24)": "5acb2ecb",
    "claimReward()": "b88a802f",
    "diamondCut((address,uint8,bytes4[])[],address,bytes)": "1f931c1c",
    "earned(address)": "008cc262",
    "enableSwitch(bool)": "ee092795",
    "getRewardsData()": "7d098e64",
    "lastTimeRewardApplicable()": "80faa57d",
    "notifyRewardAmount(uint256)": "3c6b16ab",
    "pause(uint256,bool)": "93578b04",
    "rewardPerToken()": "cd3daf9d",
    "setRewardsDuration(uint256)": "cc1a378f",
    "storeOZL(address)": "3bba4b35"
  },
  "id": 15
}