{
  "abi": [
    {
      "inputs": [
        {
          "internalType": "address",
          "name": "_initializationContractAddress",
          "type": "address"
        },
        {
          "internalType": "bytes",
          "name": "_calldata",
          "type": "bytes"
        }
      ],
      "name": "InitializationFunctionReverted",
      "type": "error"
    },
    {
      "inputs": [
        {
          "internalType": "address",
          "name": "caller",
          "type": "address"
        }
      ],
      "name": "OZError13",
      "type": "error"
    },
    {
      "inputs": [
        {
          "internalType": "bool",
          "name": "state",
          "type": "bool"
        }
      ],
      "name": "OZError28",
      "type": "error"
    },
    {
      "inputs": [],
      "name": "OZError29",
      "type": "error"
    },
    {
      "inputs": [],
      "name": "OZError30",
      "type": "error"
    },
    {
      "inputs": [
        {
          "internalType": "address",
          "name": "facet",
          "type": "address"
        }
      ],
      "name": "OZError31",
      "type": "error"
    },
    {
      "inputs": [],
      "name": "OZError32",
      "type": "error"
    },
    {
      "anonymous": false,
      "inputs": [
        {
          "components": [
            {
              "internalType": "address",
              "name": "facetAddress",
              "type": "address"
            },
            {
              "internalType": "enum IDiamondCut.FacetCutAction",
              "name": "action",
              "type": "uint8"
            },
            {
              "internalType": "bytes4[]",
              "name": "functionSelectors",
              "type": "bytes4[]"
            }
          ],
          "indexed": false,
          "internalType": "struct IDiamondCut.FacetCut[]",
          "name": "_diamondCut",
          "type": "tuple[]"
        },
        {
          "indexed": false,
          "internalType": "address",
          "name": "_init",
          "type": "address"
        },
        {
          "indexed": false,
          "internalType": "bytes",
          "name": "_calldata",
          "type": "bytes"
        }
      ],
      "name": "DiamondCut",
      "type": "event"
    },
    {
      "inputs": [
        {
          "internalType": "address",
          "name": "facet_",
          "type": "address"
        }
      ],
      "name": "addPauseFacet",
      "outputs": [],
      "stateMutability": "nonpayable",
      "type": "function"
    },
    {
      "inputs": [
        {
          "internalType": "uint16",
          "name": "newFee_",
          "type": "uint16"
        }
      ],
      "name": "changeAdminFee",
      "outputs": [],
      "stateMutability": "nonpayable",
      "type": "function"
    },
    {
      "inputs": [
        {
          "internalType": "address",
          "name": "newRecipient_",
          "type": "address"
        }
      ],
      "name": "changeAdminFeeRecipient",
      "outputs": [],
      "stateMutability": "nonpayable",
      "type": "function"
    },
    {
      "inputs": [
        {
          "internalType": "uint16",
          "name": "newBps_",
          "type": "uint16"
        }
      ],
      "name": "changeDefaultSlippage",
      "outputs": [],
      "stateMutability": "nonpayable",
      "type": "function"
    },
    {
      "inputs": [
        {
          "internalType": "uint24",
          "name": "newFee_",
          "type": "uint24"
        }
      ],
      "name": "changeProtocolFee",
      "outputs": [],
      "stateMutability": "nonpayable",
      "type": "function"
    },
    {
      "inputs": [
        {
          "internalType": "uint24",
          "name": "newBps_",
          "type": "uint24"
        }
      ],
      "name": "changeUniFee",
      "outputs": [],
      "stateMutability": "nonpayable",
      "type": "function"
    },
    {
      "inputs": [],
      "name": "claimReward",
      "outputs": [
        {
          "internalType": "uint256",
          "name": "",
          "type": "uint256"
        }
      ],
      "stateMutability": "nonpayable",
      "type": "function"
    },
    {
      "inputs": [
        {
          "components": [
            {
              "internalType": "address",
              "name": "facetAddress",
              "type": "address"
            },
            {
              "internalType": "enum IDiamondCut.FacetCutAction",
              "name": "action",
              "type": "uint8"
            },
            {
              "internalType": "bytes4[]",
              "name": "functionSelectors",
              "type": "bytes4[]"
            }
          ],
          "internalType": "struct IDiamondCut.FacetCut[]",
          "name": "_diamondCut",
          "type": "tuple[]"
        },
        {
          "internalType": "address",
          "name": "_init",
          "type": "address"
        },
        {
          "internalType": "bytes",
          "name": "_calldata",
          "type": "bytes"
        }
      ],
      "name": "diamondCut",
      "outputs": [],
      "stateMutability": "nonpayable",
      "type": "function"
    },
    {
      "inputs": [
        {
          "internalType": "address",
          "name": "user_",
          "type": "address"
        }
      ],
      "name": "earned",
      "outputs": [
        {
          "internalType": "uint256",
          "name": "",
          "type": "uint256"
        }
      ],
      "stateMutability": "view",
      "type": "function"
    },
    {
      "inputs": [
        {
          "internalType": "bool",
          "name": "newState_",
          "type": "bool"
        }
      ],
      "name": "enableSwitch",
      "outputs": [
        {
          "internalType": "bool",
          "name": "",
          "type": "bool"
        }
      ],
      "stateMutability": "nonpayable",
      "type": "function"
    },
    {
      "inputs": [],
      "name": "getRewardsData",
      "outputs": [
        {
          "internalType": "uint256",
          "name": "rewardRate",
          "type": "uint256"
        },
        {
          "internalType": "uint256",
          "name": "circulatingSupply",
          "type": "uint256"
        },
        {
          "internalType": "uint256",
          "name": "pendingAllocation",
          "type": "uint256"
        },
        {
          "internalType": "uint256",
          "name": "recicledSupply",
          "type": "uint256"
        },
        {
          "internalType": "int256",
          "name": "durationLeft",
          "type": "int256"
        }
      ],
      "stateMutability": "view",
      "type": "function"
    },
    {
      "inputs": [],
      "name": "lastTimeRewardApplicable",
      "outputs": [
        {
          "internalType": "uint256",
          "name": "",
          "type": "uint256"
        }
      ],
      "stateMutability": "view",
      "type": "function"
    },
    {
      "inputs": [
        {
          "internalType": "uint256",
          "name": "amount_",
          "type": "uint256"
        }
      ],
      "name": "notifyRewardAmount",
      "outputs": [],
      "stateMutability": "nonpayable",
      "type": "function"
    },
    {
      "inputs": [
        {
          "internalType": "uint256",
          "name": "index_",
          "type": "uint256"
        },
        {
          "internalType": "bool",
          "name": "newState_",
          "type": "bool"
        }
      ],
      "name": "pause",
      "outputs": [
        {
          "internalType": "bool",
          "name": "",
          "type": "bool"
        }
      ],
      "stateMutability": "nonpayable",
      "type": "function"
    },
    {
      "inputs": [],
      "name": "rewardPerToken",
      "outputs": [
        {
          "internalType": "uint256",
          "name": "",
          "type": "uint256"
        }
      ],
      "stateMutability": "view",
      "type": "function"
    },
    {
      "inputs": [
        {
          "internalType": "uint256",
          "name": "duration_",
          "type": "uint256"
        }
      ],
      "name": "setRewardsDuration",
      "outputs": [],
      "stateMutability": "nonpayable",
      "type": "function"
    },
    {
      "inputs": [
        {
          "internalType": "address",
          "name": "ozlProxy_",
          "type": "address"
        }
      ],
      "name": "storeOZL",
      "outputs": [],
      "stateMutability": "nonpayable",
      "type": "function"
    }
  ],
  "bytecode": {
    "object": "0x608060405234801561001057600080fd5b50611afd806100206000396000f3fe608060405234801561001057600080fd5b506004361061010a5760003560e01c806380faa57d116100a2578063cc1a378f11610071578063cc1a378f14610184578063cc9999e214610212578063cd3daf9d146101d5578063cffd849314610225578063ee0927951461023857600080fd5b806380faa57d146101d557806393578b04146101dc578063997d37b1146101ff578063b88a802f146101d557600080fd5b80633bba4b35116100de5780633bba4b35146101715780633c6b16ab146101845780635acb2ecb146101955780637d098e64146101a857600080fd5b80628cc2621461010f5780631d46016d146101365780631f931c1c1461014b5780632bc8a42d1461015e575b600080fd5b61012361011d3660046112fd565b50600090565b6040519081526020015b60405180910390f35b6101496101443660046112fd565b61024b565b005b610149610159366004611368565b61036a565b61014961016c36600461141a565b6103c3565b61014961017f3660046112fd565b6103ed565b61014961019236600461143e565b50565b6101496101a3366004611457565b61043c565b6040805160008082526020820181905291810182905260608101829052608081019190915260a00161012d565b6000610123565b6101ef6101ea36600461148c565b61045e565b604051901515815260200161012d565b61014961020d366004611457565b610564565b61014961022036600461141a565b610596565b6101496102333660046112fd565b6105c0565b6101ef6102463660046114b8565b61060f565b610253610630565b6001600160a01b03811661027a57604051631b3aaf7d60e11b815260040160405180910390fd5b6040516356fe50af60e11b81526001600160a01b0382166004820152309063adfca15e90602401600060405180830381865afa1580156102be573d6000803e3d6000fd5b505050506040513d6000823e601f3d908101601f191682016040526102e6919081019061157d565b51600003610317576040516324a4e19760e11b81526001600160a01b03821660048201526024015b60405180910390fd5b602880546001600160a01b038316600090815260296020526040812061ffff928316905582546001939261034d91859116611632565b92506101000a81548161ffff021916908361ffff16021790555050565b610372610630565b6103bc61037f8587611654565b8484848080601f0160208091040260200160405190810160405280939291908181526020018383808284376000920191909152506106a792505050565b5050505050565b6103cb610630565b6007805461ffff909216600160a01b0261ffff60a01b19909216919091179055565b6103f5610630565b601380546001600160a01b039092166901000000000000000000027fffffff0000000000000000000000000000000000000000ffffffffffffffffff909216919091179055565b610444610630565b6013805462ffffff191662ffffff92909216919091179055565b6000610468610630565b600883901c600090815260276020526040902054821515600160ff86161b9091161515036104ad57604051638b834ef360e01b8152821515600482015260240161030e565b826001036104ce5760405163604f135b60e11b815260040160405180910390fd5b602a5460ff166104f157604051633d72899f60e21b815260040160405180910390fd5b6104fd602784846108b8565b60015b60285461ffff1681101561055857600881901c600090815260276020526040902054600160ff83161b16156105465761053c60276001806108b8565b600191505061055e565b8061055081611785565b915050610500565b50600090505b92915050565b61056c610630565b6013805462ffffff90921666010000000000000268ffffff00000000000019909216919091179055565b61059e610630565b601f805461ffff909216600160a01b0261ffff60a01b19909216919091179055565b601f546001600160a01b031633146105ed5760405163a43f931360e01b815233600482015260240161030e565b601f80546001600160a01b0319166001600160a01b0392909216919091179055565b6000610619610630565b50602a805460ff1916911515918217905560ff1690565b600080516020611a5c833981519152600401546001600160a01b031633146106a55760405162461bcd60e51b815260206004820152602260248201527f4c69624469616d6f6e643a204d75737420626520636f6e7472616374206f776e60448201526132b960f11b606482015260840161030e565b565b60005b835181101561086d5760008482815181106106c7576106c761179e565b6020026020010151602001519050600060028111156106e8576106e86117b4565b8160028111156106fa576106fa6117b4565b03610748576107438583815181106107145761071461179e565b6020026020010151600001518684815181106107325761073261179e565b602002602001015160400151610907565b61085a565b600181600281111561075c5761075c6117b4565b036107a5576107438583815181106107765761077661179e565b6020026020010151600001518684815181106107945761079461179e565b602002602001015160400151610a7f565b60028160028111156107b9576107b96117b4565b03610802576107438583815181106107d3576107d361179e565b6020026020010151600001518684815181106107f1576107f161179e565b602002602001015160400151610c0f565b60405162461bcd60e51b815260206004820152602760248201527f4c69624469616d6f6e644375743a20496e636f727265637420466163657443756044820152663a20b1ba34b7b760c91b606482015260840161030e565b508061086581611785565b9150506106aa565b507f8faa70878671ccd212d20771b795c50af8fd3ff6cf27f4bde57e5d4de0aeb6738383836040516108a19392919061181a565b60405180910390a16108b38282610d2d565b505050565b80156108e257600882901c60009081526020849052604090208054600160ff85161b179055505050565b600882901c60009081526020849052604090208054600160ff85161b19169055505050565b60008151116109285760405162461bcd60e51b815260040161030e9061191a565b600080516020611a5c8339815191526001600160a01b03831661095d5760405162461bcd60e51b815260040161030e90611965565b6001600160a01b0383166000908152600182016020526040812054906001600160601b0382169003610993576109938285610df3565b60005b83518110156103bc5760008482815181106109b3576109b361179e565b6020908102919091018101516001600160e01b031981166000908152918690526040909120549091506001600160a01b03168015610a515760405162461bcd60e51b815260206004820152603560248201527f4c69624469616d6f6e644375743a2043616e2774206164642066756e6374696f6044820152746e207468617420616c72656164792065786973747360581b606482015260840161030e565b610a5d8583868a610e5d565b83610a67816119b1565b94505050508080610a7790611785565b915050610996565b6000815111610aa05760405162461bcd60e51b815260040161030e9061191a565b600080516020611a5c8339815191526001600160a01b038316610ad55760405162461bcd60e51b815260040161030e90611965565b6001600160a01b0383166000908152600182016020526040812054906001600160601b0382169003610b0b57610b0b8285610df3565b60005b83518110156103bc576000848281518110610b2b57610b2b61179e565b6020908102919091018101516001600160e01b031981166000908152918690526040909120549091506001600160a01b039081169087168103610bd65760405162461bcd60e51b815260206004820152603860248201527f4c69624469616d6f6e644375743a2043616e2774207265706c6163652066756e60448201527f6374696f6e20776974682073616d652066756e6374696f6e0000000000000000606482015260840161030e565b610be1858284610efd565b610bed8583868a610e5d565b83610bf7816119b1565b94505050508080610c0790611785565b915050610b0e565b6000815111610c305760405162461bcd60e51b815260040161030e9061191a565b600080516020611a5c8339815191526001600160a01b03831615610cb55760405162461bcd60e51b815260206004820152603660248201527f4c69624469616d6f6e644375743a2052656d6f76652066616365742061646472604482015275657373206d757374206265206164647265737328302960501b606482015260840161030e565b60005b8251811015610d27576000838281518110610cd557610cd561179e565b6020908102919091018101516001600160e01b031981166000908152918590526040909120549091506001600160a01b0316610d12848284610efd565b50508080610d1f90611785565b915050610cb8565b50505050565b6001600160a01b038216610d3f575050565b610d6182604051806060016040528060288152602001611a7c602891396112c0565b600080836001600160a01b031683604051610d7c91906119d7565b600060405180830381855af49150503d8060008114610db7576040519150601f19603f3d011682016040523d82523d6000602084013e610dbc565b606091505b509150915081610d2757805115610dd65780518082602001fd5b838360405163192105d760e01b815260040161030e9291906119f3565b610e1581604051806060016040528060248152602001611aa4602491396112c0565b6002820180546001600160a01b0390921660008181526001948501602090815260408220860185905594840183559182529290200180546001600160a01b0319169091179055565b6001600160e01b0319831660008181526020868152604080832080546001600160601b03909716600160a01b026001600160a01b0397881617815594909516808352600180890183529583208054968701815583528183206008870401805460e09890981c60046007909816979097026101000a96870263ffffffff9097021990971695909517909555529290915281546001600160a01b031916179055565b6001600160a01b038216610f795760405162461bcd60e51b815260206004820152603760248201527f4c69624469616d6f6e644375743a2043616e27742072656d6f76652066756e6360448201527f74696f6e207468617420646f65736e2774206578697374000000000000000000606482015260840161030e565b306001600160a01b03831603610fe85760405162461bcd60e51b815260206004820152602e60248201527f4c69624469616d6f6e644375743a2043616e27742072656d6f766520696d6d7560448201526d3a30b1363290333ab731ba34b7b760911b606482015260840161030e565b6001600160e01b03198116600090815260208481526040808320546001600160a01b0386168452600180880190935290832054600160a01b9091046001600160601b0316929161103791611a1f565b9050808214611129576001600160a01b0384166000908152600186016020526040812080548390811061106c5761106c61179e565b600091825260208083206008830401546001600160a01b038916845260018a019091526040909220805460079092166004026101000a90920460e01b9250829190859081106110bd576110bd61179e565b600091825260208083206008830401805463ffffffff60079094166004026101000a938402191660e09590951c929092029390931790556001600160e01b03199290921682528690526040902080546001600160a01b0316600160a01b6001600160601b038516021790555b6001600160a01b0384166000908152600186016020526040902080548061115257611152611a32565b60008281526020808220600860001990940193840401805463ffffffff600460078716026101000a0219169055919092556001600160e01b031985168252869052604081208190558190036103bc5760028501546000906111b590600190611a1f565b6001600160a01b03861660009081526001808901602052604090912001549091508082146112645760008760020183815481106111f4576111f461179e565b6000918252602090912001546002890180546001600160a01b0390921692508291849081106112255761122561179e565b600091825260208083209190910180546001600160a01b0319166001600160a01b03948516179055929091168152600189810190925260409020018190555b8660020180548061127757611277611a32565b60008281526020808220830160001990810180546001600160a01b03191690559092019092556001600160a01b0388168252600189810190915260408220015550505050505050565b813b8181610d275760405162461bcd60e51b815260040161030e9190611a48565b80356001600160a01b03811681146112f857600080fd5b919050565b60006020828403121561130f57600080fd5b611318826112e1565b9392505050565b60008083601f84011261133157600080fd5b50813567ffffffffffffffff81111561134957600080fd5b60208301915083602082850101111561136157600080fd5b9250929050565b60008060008060006060868803121561138057600080fd5b853567ffffffffffffffff8082111561139857600080fd5b818801915088601f8301126113ac57600080fd5b8135818111156113bb57600080fd5b8960208260051b85010111156113d057600080fd5b602083019750809650506113e6602089016112e1565b945060408801359150808211156113fc57600080fd5b506114098882890161131f565b969995985093965092949392505050565b60006020828403121561142c57600080fd5b813561ffff8116811461131857600080fd5b60006020828403121561145057600080fd5b5035919050565b60006020828403121561146957600080fd5b813562ffffff8116811461131857600080fd5b803580151581146112f857600080fd5b6000806040838503121561149f57600080fd5b823591506114af6020840161147c565b90509250929050565b6000602082840312156114ca57600080fd5b6113188261147c565b634e487b7160e01b600052604160045260246000fd5b6040516060810167ffffffffffffffff8111828210171561150c5761150c6114d3565b60405290565b604051601f8201601f1916810167ffffffffffffffff8111828210171561153b5761153b6114d3565b604052919050565b600067ffffffffffffffff82111561155d5761155d6114d3565b5060051b60200190565b6001600160e01b03198116811461019257600080fd5b6000602080838503121561159057600080fd5b825167ffffffffffffffff8111156115a757600080fd5b8301601f810185136115b857600080fd5b80516115cb6115c682611543565b611512565b81815260059190911b820183019083810190878311156115ea57600080fd5b928401925b8284101561161157835161160281611567565b825292840192908401906115ef565b979650505050505050565b634e487b7160e01b600052601160045260246000fd5b61ffff81811683821601908082111561164d5761164d61161c565b5092915050565b60006116626115c684611543565b83815260208082019190600586811b86013681111561168057600080fd5b865b8181101561177857803567ffffffffffffffff808211156116a35760008081fd5b818a019150606082360312156116b95760008081fd5b6116c16114e9565b6116ca836112e1565b815286830135600381106116de5760008081fd5b81880152604083810135838111156116f65760008081fd5b939093019236601f85011261170d57600092508283fd5b8335925061171d6115c684611543565b83815292871b8401880192888101903685111561173a5760008081fd5b948901945b8486101561176157853561175281611567565b8252948901949089019061173f565b918301919091525088525050948301948301611682565b5092979650505050505050565b6000600182016117975761179761161c565b5060010190565b634e487b7160e01b600052603260045260246000fd5b634e487b7160e01b600052602160045260246000fd5b60005b838110156117e55781810151838201526020016117cd565b50506000910152565b600081518084526118068160208601602086016117ca565b601f01601f19169290920160200192915050565b60006060808301818452808751808352608092508286019150828160051b8701016020808b0160005b848110156118ea57898403607f19018652815180516001600160a01b0316855283810151898601906003811061188957634e487b7160e01b600052602160045260246000fd5b868601526040918201519186018a905281519081905290840190600090898701905b808310156118d55783516001600160e01b03191682529286019260019290920191908601906118ab565b50978501979550505090820190600101611843565b50506001600160a01b038a1690880152868103604088015261190c81896117ee565b9a9950505050505050505050565b6020808252602b908201527f4c69624469616d6f6e644375743a204e6f2073656c6563746f727320696e206660408201526a1858d95d081d1bc818dd5d60aa1b606082015260800190565b6020808252602c908201527f4c69624469616d6f6e644375743a204164642066616365742063616e2774206260408201526b65206164647265737328302960a01b606082015260800190565b60006001600160601b038083168181036119cd576119cd61161c565b6001019392505050565b600082516119e98184602087016117ca565b9190910192915050565b6001600160a01b0383168152604060208201819052600090611a17908301846117ee565b949350505050565b8181038181111561055e5761055e61161c565b634e487b7160e01b600052603160045260246000fd5b60208152600061131860208301846117ee56fec8fcad8db84d3cc18b4c41d551ea0ee66dd599cde068d998e57d5e09332c131c4c69624469616d6f6e644375743a205f696e6974206164647265737320686173206e6f20636f64654c69624469616d6f6e644375743a204e657720666163657420686173206e6f20636f6465a26469706673582212206cd36f5ec63a1c996faae726f11e1b46bd074b57e5636e04a336b5a9a4932ba564736f6c63430008150033",
    "linkReferences": {}
  },
  "methodIdentifiers": {
    "addPauseFacet(address)": "1d46016d",
    "changeAdminFee(uint16)": "cc9999e2",
    "changeAdminFeeRecipient(address)": "cffd8493",
    "changeDefaultSlippage(uint16)": "2bc8a42d",
    "changeProtocolFee(uint24)": "997d37b1",
    "changeUniFee(uint24)": "5acb2ecb",
    "claimReward()": "b88a802f",
    "diamondCut((address,uint8,bytes4[])[],address,bytes)": "1f931c1c",
    "earned(address)": "008cc262",
    "enableSwitch(bool)": "ee092795",
    "getRewardsData()": "7d098e64",
    "lastTimeRewardApplicable()": "80faa57d",
    "notifyRewardAmount(uint256)": "3c6b16ab",
    "pause(uint256,bool)": "93578b04",
    "rewardPerToken()": "cd3daf9d",
    "setRewardsDuration(uint256)": "cc1a378f",
    "storeOZL(address)": "3bba4b35"
  },
  "id": 15
}