{
  "abi": [
    {
      "inputs": [
        {
          "internalType": "address",
          "name": "ozDiamond_",
          "type": "address"
        },
        {
          "internalType": "bytes",
          "name": "data_",
          "type": "bytes"
        },
        {
          "internalType": "uint256",
          "name": "implIndex_",
          "type": "uint256"
        }
      ],
      "stateMutability": "nonpayable",
      "type": "constructor"
    },
    {
      "inputs": [
        {
          "internalType": "address",
          "name": "implementation",
          "type": "address"
        }
      ],
      "name": "OZError25",
      "type": "error"
    },
    {
      "inputs": [
        {
          "internalType": "address",
          "name": "newBeacon",
          "type": "address"
        }
      ],
      "name": "OZError26",
      "type": "error"
    },
    {
      "anonymous": false,
      "inputs": [
        {
          "indexed": false,
          "internalType": "address",
          "name": "previousAdmin",
          "type": "address"
        },
        {
          "indexed": false,
          "internalType": "address",
          "name": "newAdmin",
          "type": "address"
        }
      ],
      "name": "AdminChanged",
      "type": "event"
    },
    {
      "anonymous": false,
      "inputs": [
        {
          "indexed": true,
          "internalType": "address",
          "name": "beacon",
          "type": "address"
        }
      ],
      "name": "BeaconUpgraded",
      "type": "event"
    },
    {
      "anonymous": false,
      "inputs": [
        {
          "indexed": true,
          "internalType": "address",
          "name": "implementation",
          "type": "address"
        }
      ],
      "name": "Upgraded",
      "type": "event"
    },
    {
      "stateMutability": "payable",
      "type": "fallback"
    },
    {
      "inputs": [],
      "name": "beacon",
      "outputs": [
        {
          "internalType": "address",
          "name": "",
          "type": "address"
        }
      ],
      "stateMutability": "view",
      "type": "function"
    },
    {
      "inputs": [],
      "name": "implementation",
      "outputs": [
        {
          "internalType": "address",
          "name": "",
          "type": "address"
        }
      ],
      "stateMutability": "view",
      "type": "function"
    },
    {
      "stateMutability": "payable",
      "type": "receive"
    }
  ],
  "bytecode": {
    "object": "0x60806040523480156200001157600080fd5b5060405162000a1a38038062000a1a8339810160408190526200003491620004d0565b82828262000046838360008462000052565b505050505050620006d7565b6200005d8462000149565b6040516001600160a01b038516907f1cf3b03a6cf19fa2baba4df148e9dcabedea7f8a5c07840e207e5c089be95d3e90600090a26000835111806200009f5750815b1562000143576000846001600160a01b0316632d8bbd366040518163ffffffff1660e01b8152600401600060405180830381865afa158015620000e6573d6000803e3d6000fd5b505050506040513d6000823e601f3d908101601f191682016040526200011091908101906200058d565b9050620001408183815181106200012b576200012b62000646565b602002602001015185620002d260201b60201c565b50505b50505050565b6001600160a01b0381163b620001825760405163fdd18a9560e01b81526001600160a01b03821660048201526024015b60405180910390fd5b6000816001600160a01b0316632d8bbd366040518163ffffffff1660e01b8152600401600060405180830381865afa158015620001c3573d6000803e3d6000fd5b505050506040513d6000823e601f3d908101601f19168201604052620001ed91908101906200058d565b805190915060005b818110156200028c576200022b83828151811062000217576200021762000646565b60200260200101516200030160201b60201c565b620002775782818151811062000245576200024562000646565b602002602001015160405163068a70ab60e51b81526004016200017991906001600160a01b0391909116815260200190565b8062000283816200065c565b915050620001f5565b50827fa3f0ad74e5423aebfd80d3ef4346578335a9a72aeaee59ff6cb3582b35133d5080546001600160a01b0319166001600160a01b0392909216919091179055505050565b6060620002fa8383604051806060016040528060278152602001620009f36027913962000310565b9392505050565b6001600160a01b03163b151590565b6060600080856001600160a01b0316856040516200032f919062000684565b600060405180830381855af49150503d80600081146200036c576040519150601f19603f3d011682016040523d82523d6000602084013e62000371565b606091505b50909250905062000385868383876200038f565b9695505050505050565b6060831562000403578251600003620003fb576001600160a01b0385163b620003fb5760405162461bcd60e51b815260206004820152601d60248201527f416464726573733a2063616c6c20746f206e6f6e2d636f6e7472616374000000604482015260640162000179565b50816200040f565b6200040f838362000417565b949350505050565b815115620004285781518083602001fd5b8060405162461bcd60e51b8152600401620001799190620006a2565b80516001600160a01b03811681146200045c57600080fd5b919050565b634e487b7160e01b600052604160045260246000fd5b604051601f8201601f191681016001600160401b0381118282101715620004a257620004a262000461565b604052919050565b60005b83811015620004c7578181015183820152602001620004ad565b50506000910152565b600080600060608486031215620004e657600080fd5b620004f18462000444565b60208501519093506001600160401b03808211156200050f57600080fd5b818601915086601f8301126200052457600080fd5b81518181111562000539576200053962000461565b6200054e601f8201601f191660200162000477565b91508082528760208285010111156200056657600080fd5b62000579816020840160208601620004aa565b508093505050604084015190509250925092565b60006020808385031215620005a157600080fd5b82516001600160401b0380821115620005b957600080fd5b818501915085601f830112620005ce57600080fd5b815181811115620005e357620005e362000461565b8060051b9150620005f684830162000477565b81815291830184019184810190888411156200061157600080fd5b938501935b838510156200063a576200062a8562000444565b8252938501939085019062000616565b98975050505050505050565b634e487b7160e01b600052603260045260246000fd5b6000600182016200067d57634e487b7160e01b600052601160045260246000fd5b5060010190565b6000825162000698818460208701620004aa565b9190910192915050565b6020815260008251806020840152620006c3816040850160208701620004aa565b601f01601f19169190910160400192915050565b61030c80620006e76000396000f3fe60806040526004361061002d5760003560e01c806359659e90146100445780635c60da1b146100755761003c565b3661003c5761003a61008a565b005b61003a61008a565b34801561005057600080fd5b5061005961009c565b6040516001600160a01b03909116815260200160405180910390f35b34801561008157600080fd5b506100596100ab565b61009a6100956100b1565b6100da565b565b60006100a66100fe565b905090565b60006100a65b60006100bb610131565b6001815181106100cd576100cd6101c9565b6020026020010151905090565b3660008037600080366000845af43d6000803e8080156100f9573d6000f35b3d6000fd5b60006100a67fa3f0ad74e5423aebfd80d3ef4346578335a9a72aeaee59ff6cb3582b35133d50546001600160a01b031690565b60606101647fa3f0ad74e5423aebfd80d3ef4346578335a9a72aeaee59ff6cb3582b35133d50546001600160a01b031690565b6001600160a01b0316632d8bbd366040518163ffffffff1660e01b8152600401600060405180830381865afa1580156101a1573d6000803e3d6000fd5b505050506040513d6000823e601f3d908101601f191682016040526100a69190810190610211565b634e487b7160e01b600052603260045260246000fd5b634e487b7160e01b600052604160045260246000fd5b80516001600160a01b038116811461020c57600080fd5b919050565b6000602080838503121561022457600080fd5b825167ffffffffffffffff8082111561023c57600080fd5b818501915085601f83011261025057600080fd5b815181811115610262576102626101df565b8060051b604051601f19603f83011681018181108582111715610287576102876101df565b6040529182528482019250838101850191888311156102a557600080fd5b938501935b828510156102ca576102bb856101f5565b845293850193928501926102aa565b9897505050505050505056fea264697066735822122096c590cd30fdfc3b905c7300f8c1c44d49cb0346f41f1befe1605d8dce95ca2f64736f6c63430008150033416464726573733a206c6f772d6c6576656c2064656c65676174652063616c6c206661696c6564",
    "linkReferences": {}
  },
  "methodIdentifiers": {
    "beacon()": "59659e90",
    "implementation()": "5c60da1b"
  },
  "id": 46
}