{"abi":[{"type":"constructor","inputs":[{"name":"dec_","type":"uint256","internalType":"uint256"}],"stateMutability":"nonpayable"},{"type":"function","name":"DOMAIN_SEPARATOR","inputs":[],"outputs":[{"name":"","type":"bytes32","internalType":"bytes32"}],"stateMutability":"view"},{"type":"function","name":"ONE","inputs":[],"outputs":[{"name":"","type":"address","internalType":"address"}],"stateMutability":"view"},{"type":"function","name":"PERMIT_TYPEHASH","inputs":[],"outputs":[{"name":"","type":"bytes32","internalType":"bytes32"}],"stateMutability":"view"},{"type":"function","name":"alice","inputs":[],"outputs":[{"name":"","type":"address","internalType":"address"}],"stateMutability":"view"},{"type":"function","name":"allowance","inputs":[{"name":"owner","type":"address","internalType":"address"},{"name":"spender","type":"address","internalType":"address"}],"outputs":[{"name":"","type":"uint256","internalType":"uint256"}],"stateMutability":"view"},{"type":"function","name":"approve","inputs":[{"name":"spender","type":"address","internalType":"address"},{"name":"amount","type":"uint256","internalType":"uint256"}],"outputs":[{"name":"","type":"bool","internalType":"bool"}],"stateMutability":"pure"},{"type":"function","name":"balanceOf","inputs":[{"name":"account","type":"address","internalType":"address"}],"outputs":[{"name":"","type":"uint256","internalType":"uint256"}],"stateMutability":"view"},{"type":"function","name":"decimals","inputs":[],"outputs":[{"name":"","type":"uint8","internalType":"uint8"}],"stateMutability":"view"},{"type":"function","name":"decreaseAllowance","inputs":[{"name":"spender","type":"address","internalType":"address"},{"name":"subtractedValue","type":"uint256","internalType":"uint256"}],"outputs":[{"name":"","type":"bool","internalType":"bool"}],"stateMutability":"nonpayable"},{"type":"function","name":"foundry","inputs":[],"outputs":[{"name":"","type":"address","internalType":"address"}],"stateMutability":"view"},{"type":"function","name":"increaseAllowance","inputs":[{"name":"spender","type":"address","internalType":"address"},{"name":"addedValue","type":"uint256","internalType":"uint256"}],"outputs":[{"name":"","type":"bool","internalType":"bool"}],"stateMutability":"nonpayable"},{"type":"function","name":"mockSwapRouterUni","inputs":[],"outputs":[{"name":"","type":"address","internalType":"address"}],"stateMutability":"view"},{"type":"function","name":"name","inputs":[],"outputs":[{"name":"","type":"string","internalType":"string"}],"stateMutability":"view"},{"type":"function","name":"nonces","inputs":[{"name":"owner","type":"address","internalType":"address"}],"outputs":[{"name":"","type":"uint256","internalType":"uint256"}],"stateMutability":"view"},{"type":"function","name":"symbol","inputs":[],"outputs":[{"name":"","type":"string","internalType":"string"}],"stateMutability":"view"},{"type":"function","name":"totalSupply","inputs":[],"outputs":[{"name":"","type":"uint256","internalType":"uint256"}],"stateMutability":"view"},{"type":"function","name":"transfer","inputs":[{"name":"to","type":"address","internalType":"address"},{"name":"amount","type":"uint256","internalType":"uint256"}],"outputs":[{"name":"","type":"bool","internalType":"bool"}],"stateMutability":"nonpayable"},{"type":"function","name":"transferFrom","inputs":[{"name":"from","type":"address","internalType":"address"},{"name":"to","type":"address","internalType":"address"},{"name":"amount","type":"uint256","internalType":"uint256"}],"outputs":[{"name":"","type":"bool","internalType":"bool"}],"stateMutability":"nonpayable"},{"type":"event","name":"Approval","inputs":[{"name":"owner","type":"address","indexed":true,"internalType":"address"},{"name":"spender","type":"address","indexed":true,"internalType":"address"},{"name":"value","type":"uint256","indexed":false,"internalType":"uint256"}],"anonymous":false},{"type":"event","name":"Transfer","inputs":[{"name":"from","type":"address","indexed":true,"internalType":"address"},{"name":"to","type":"address","indexed":true,"internalType":"address"},{"name":"value","type":"uint256","indexed":false,"internalType":"uint256"}],"anonymous":false}],"bytecode":{"object":"0x6080604052600880546001600160a01b03199081167334a1d3fff3958843c43ad80f30b94c510645c316179091556009805482167337cb1a23e763d2f975bff3b2b86cfa901f7b517e179055600a80549091167326aff6f249fdf81492ca987e78f1146296c727b41790553480156200007757600080fd5b5060405162000f8338038062000f838339810160408190526200009a916200020b565b604051806040016040528060048152602001634d6f636b60e01b815250604051806040016040528060048152602001634d4f434b60e01b8152508160039081620000e59190620002c9565b506004620000f48282620002c9565b50506006805460ff191660ff84161790555060095462000139906001600160a01b03166200012483600a620004aa565b620001339062989680620004bf565b62000140565b50620004ef565b6001600160a01b0382166200019b5760405162461bcd60e51b815260206004820152601f60248201527f45524332303a206d696e7420746f20746865207a65726f206164647265737300604482015260640160405180910390fd5b8060026000828254620001af9190620004d9565b90915550506001600160a01b038216600081815260208181526040808320805486019055518481527fddf252ad1be2c89b69c2b068fc378daa952ba7f163c4a11628f55a4df523b3ef910160405180910390a35050565b505050565b6000602082840312156200021e57600080fd5b5051919050565b634e487b7160e01b600052604160045260246000fd5b600181811c908216806200025057607f821691505b6020821081036200027157634e487b7160e01b600052602260045260246000fd5b50919050565b601f8211156200020657600081815260208120601f850160051c81016020861015620002a05750805b601f850160051c820191505b81811015620002c157828155600101620002ac565b505050505050565b81516001600160401b03811115620002e557620002e562000225565b620002fd81620002f684546200023b565b8462000277565b602080601f8311600181146200033557600084156200031c5750858301515b600019600386901b1c1916600185901b178555620002c1565b600085815260208120601f198616915b82811015620003665788860151825594840194600190910190840162000345565b5085821015620003855787850151600019600388901b60f8161c191681555b5050505050600190811b01905550565b634e487b7160e01b600052601160045260246000fd5b600181815b80851115620003ec578160001904821115620003d057620003d062000395565b80851615620003de57918102915b93841c9390800290620003b0565b509250929050565b6000826200040557506001620004a4565b816200041457506000620004a4565b81600181146200042d5760028114620004385762000458565b6001915050620004a4565b60ff8411156200044c576200044c62000395565b50506001821b620004a4565b5060208310610133831016604e8410600b84101617156200047d575081810a620004a4565b620004898383620003ab565b8060001904821115620004a057620004a062000395565b0290505b92915050565b6000620004b88383620003f4565b9392505050565b8082028115828204841417620004a457620004a462000395565b80820180821115620004a457620004a462000395565b610a8480620004ff6000396000f3fe608060405234801561001057600080fd5b50600436106101165760003560e01c806370a08231116100a2578063a457c2d711610071578063a457c2d71461025b578063a9059cbb1461026e578063c2ee3a0814610281578063dd62ed3e14610289578063fb47e3a21461029c57600080fd5b806370a08231146102045780637cd27ca61461022d5780637ecebe001461024057806395d89b411461025357600080fd5b806330adf81f116100e957806330adf81f14610181578063313ce567146101a85780633644e515146101bd57806339509351146101c657806340ab817e146101d957600080fd5b806306fdde031461011b578063095ea7b31461013957806318160ddd1461015c57806323b872dd1461016e575b600080fd5b6101236102af565b60405161013091906108e6565b60405180910390f35b61014c610147366004610915565b610341565b6040519015158152602001610130565b6002545b604051908152602001610130565b61014c61017c36600461093f565b610366565b6101607f6e71edae12b1b97f4d1f60370fef10105fa2faae0126114a169c64845d6126c981565b60065460405160ff9091168152602001610130565b61016060075481565b61014c6101d4366004610915565b61038a565b600a546101ec906001600160a01b031681565b6040516001600160a01b039091168152602001610130565b61016061021236600461097b565b6001600160a01b031660009081526020819052604090205490565b6008546101ec906001600160a01b031681565b61016061024e36600461097b565b6103b6565b6101236103d4565b61014c610269366004610915565b6103e3565b61014c61027c366004610915565b610463565b6101ec600181565b610160610297366004610996565b610471565b6009546101ec906001600160a01b031681565b6060600380546102be906109c9565b80601f01602080910402602001604051908101604052809291908181526020018280546102ea906109c9565b80156103375780601f1061030c57610100808354040283529160200191610337565b820191906000526020600020905b81548152906001019060200180831161031a57829003601f168201915b5050505050905090565b60006001600160a01b03831660011480159061035d5750600082115b90505b92915050565b6000336103748582856104f4565b61037f85858561056e565b506001949350505050565b6000336103ac81858561039d8383610471565b6103a79190610a03565b610712565b5060019392505050565b6001600160a01b038116600090815260056020526040812054610360565b6060600480546102be906109c9565b600033816103f18286610471565b9050838110156104565760405162461bcd60e51b815260206004820152602560248201527f45524332303a2064656372656173656420616c6c6f77616e63652062656c6f77604482015264207a65726f60d81b60648201526084015b60405180910390fd5b61037f8286868403610712565b6000336103ac81858561056e565b600061049e60405180604001604052806009815260200168039b832b73232b91d160bd1b81525083610836565b6001600160a01b038316600114806104bf57506001600160a01b0382166001145b156104cd5750600019610360565b600a546001600160a01b03908116908316036104eb57506000610360565b50600019610360565b60006105008484610471565b90506000198114610568578181101561055b5760405162461bcd60e51b815260206004820152601d60248201527f45524332303a20696e73756666696369656e7420616c6c6f77616e6365000000604482015260640161044d565b6105688484848403610712565b50505050565b6001600160a01b0383166105d25760405162461bcd60e51b815260206004820152602560248201527f45524332303a207472616e736665722066726f6d20746865207a65726f206164604482015264647265737360d81b606482015260840161044d565b6001600160a01b0382166106345760405162461bcd60e51b815260206004820152602360248201527f45524332303a207472616e7366657220746f20746865207a65726f206164647260448201526265737360e81b606482015260840161044d565b6001600160a01b038316600090815260208190526040902054818110156106ac5760405162461bcd60e51b815260206004820152602660248201527f45524332303a207472616e7366657220616d6f756e7420657863656564732062604482015265616c616e636560d01b606482015260840161044d565b6001600160a01b03848116600081815260208181526040808320878703905593871680835291849020805487019055925185815290927fddf252ad1be2c89b69c2b068fc378daa952ba7f163c4a11628f55a4df523b3ef910160405180910390a3610568565b6001600160a01b0383166107745760405162461bcd60e51b8152602060048201526024808201527f45524332303a20617070726f76652066726f6d20746865207a65726f206164646044820152637265737360e01b606482015260840161044d565b6001600160a01b0382166107d55760405162461bcd60e51b815260206004820152602260248201527f45524332303a20617070726f766520746f20746865207a65726f206164647265604482015261737360f01b606482015260840161044d565b6001600160a01b0383811660008181526001602090815260408083209487168084529482529182902085905590518481527f8c5be1e5ebec7d5bd14f71427d1e84f3dd0314c0f7b2291e5b200ac8c7c3b925910160405180910390a3505050565b61087b828260405160240161084c929190610a24565b60408051601f198184030181529190526020810180516001600160e01b031663319af33360e01b17905261087f565b5050565b80516a636f6e736f6c652e6c6f67602083016000808483855afa5050505050565b6000815180845260005b818110156108c6576020818501810151868301820152016108aa565b506000602082860101526020601f19601f83011685010191505092915050565b60208152600061035d60208301846108a0565b80356001600160a01b038116811461091057600080fd5b919050565b6000806040838503121561092857600080fd5b610931836108f9565b946020939093013593505050565b60008060006060848603121561095457600080fd5b61095d846108f9565b925061096b602085016108f9565b9150604084013590509250925092565b60006020828403121561098d57600080fd5b61035d826108f9565b600080604083850312156109a957600080fd5b6109b2836108f9565b91506109c0602084016108f9565b90509250929050565b600181811c908216806109dd57607f821691505b6020821081036109fd57634e487b7160e01b600052602260045260246000fd5b50919050565b8082018082111561036057634e487b7160e01b600052601160045260246000fd5b604081526000610a3760408301856108a0565b905060018060a01b0383166020830152939250505056fea2646970667358221220b246b7acb2748acb1506be2dd2814f2219c66e5a17fa7bf78a628c27aab324eb64736f6c63430008150033","linkReferences":{}},"methodIdentifiers":{"DOMAIN_SEPARATOR()":"3644e515","ONE()":"c2ee3a08","PERMIT_TYPEHASH()":"30adf81f","alice()":"fb47e3a2","allowance(address,address)":"dd62ed3e","approve(address,uint256)":"095ea7b3","balanceOf(address)":"70a08231","decimals()":"313ce567","decreaseAllowance(address,uint256)":"a457c2d7","foundry()":"7cd27ca6","increaseAllowance(address,uint256)":"39509351","mockSwapRouterUni()":"40ab817e","name()":"06fdde03","nonces(address)":"7ecebe00","symbol()":"95d89b41","totalSupply()":"18160ddd","transfer(address,uint256)":"a9059cbb","transferFrom(address,address,uint256)":"23b872dd"},"id":131}