{"abi":[{"type":"constructor","inputs":[{"name":"dec_","type":"uint256","internalType":"uint256"}],"stateMutability":"nonpayable"},{"type":"function","name":"DOMAIN_SEPARATOR","inputs":[],"outputs":[{"name":"","type":"bytes32","internalType":"bytes32"}],"stateMutability":"view"},{"type":"function","name":"ONE","inputs":[],"outputs":[{"name":"","type":"address","internalType":"address"}],"stateMutability":"view"},{"type":"function","name":"OZ","inputs":[],"outputs":[{"name":"","type":"address","internalType":"address"}],"stateMutability":"view"},{"type":"function","name":"PERMIT_TYPEHASH","inputs":[],"outputs":[{"name":"","type":"bytes32","internalType":"bytes32"}],"stateMutability":"view"},{"type":"function","name":"alice","inputs":[],"outputs":[{"name":"","type":"address","internalType":"address"}],"stateMutability":"view"},{"type":"function","name":"allowance","inputs":[{"name":"owner","type":"address","internalType":"address"},{"name":"spender","type":"address","internalType":"address"}],"outputs":[{"name":"","type":"uint256","internalType":"uint256"}],"stateMutability":"view"},{"type":"function","name":"approve","inputs":[{"name":"spender","type":"address","internalType":"address"},{"name":"amount","type":"uint256","internalType":"uint256"}],"outputs":[{"name":"","type":"bool","internalType":"bool"}],"stateMutability":"nonpayable"},{"type":"function","name":"balanceOf","inputs":[{"name":"account","type":"address","internalType":"address"}],"outputs":[{"name":"","type":"uint256","internalType":"uint256"}],"stateMutability":"view"},{"type":"function","name":"bob","inputs":[],"outputs":[{"name":"","type":"address","internalType":"address"}],"stateMutability":"view"},{"type":"function","name":"charlie","inputs":[],"outputs":[{"name":"","type":"address","internalType":"address"}],"stateMutability":"view"},{"type":"function","name":"decimals","inputs":[],"outputs":[{"name":"","type":"uint8","internalType":"uint8"}],"stateMutability":"view"},{"type":"function","name":"decreaseAllowance","inputs":[{"name":"spender","type":"address","internalType":"address"},{"name":"subtractedValue","type":"uint256","internalType":"uint256"}],"outputs":[{"name":"","type":"bool","internalType":"bool"}],"stateMutability":"nonpayable"},{"type":"function","name":"foundry","inputs":[],"outputs":[{"name":"","type":"address","internalType":"address"}],"stateMutability":"view"},{"type":"function","name":"increaseAllowance","inputs":[{"name":"spender","type":"address","internalType":"address"},{"name":"addedValue","type":"uint256","internalType":"uint256"}],"outputs":[{"name":"","type":"bool","internalType":"bool"}],"stateMutability":"nonpayable"},{"type":"function","name":"mint","inputs":[{"name":"to_","type":"address","internalType":"address"},{"name":"amount_","type":"uint256","internalType":"uint256"}],"outputs":[],"stateMutability":"nonpayable"},{"type":"function","name":"mockSwapRouterUni","inputs":[],"outputs":[{"name":"","type":"address","internalType":"address"}],"stateMutability":"view"},{"type":"function","name":"mockVault","inputs":[],"outputs":[{"name":"","type":"address","internalType":"address"}],"stateMutability":"view"},{"type":"function","name":"name","inputs":[],"outputs":[{"name":"","type":"string","internalType":"string"}],"stateMutability":"view"},{"type":"function","name":"nonces","inputs":[{"name":"owner","type":"address","internalType":"address"}],"outputs":[{"name":"","type":"uint256","internalType":"uint256"}],"stateMutability":"view"},{"type":"function","name":"symbol","inputs":[],"outputs":[{"name":"","type":"string","internalType":"string"}],"stateMutability":"view"},{"type":"function","name":"totalSupply","inputs":[],"outputs":[{"name":"","type":"uint256","internalType":"uint256"}],"stateMutability":"view"},{"type":"function","name":"transfer","inputs":[{"name":"to","type":"address","internalType":"address"},{"name":"amount","type":"uint256","internalType":"uint256"}],"outputs":[{"name":"","type":"bool","internalType":"bool"}],"stateMutability":"nonpayable"},{"type":"function","name":"transferFrom","inputs":[{"name":"from","type":"address","internalType":"address"},{"name":"to","type":"address","internalType":"address"},{"name":"amount","type":"uint256","internalType":"uint256"}],"outputs":[{"name":"","type":"bool","internalType":"bool"}],"stateMutability":"nonpayable"},{"type":"event","name":"Approval","inputs":[{"name":"owner","type":"address","indexed":true,"internalType":"address"},{"name":"spender","type":"address","indexed":true,"internalType":"address"},{"name":"value","type":"uint256","indexed":false,"internalType":"uint256"}],"anonymous":false},{"type":"event","name":"Transfer","inputs":[{"name":"from","type":"address","indexed":true,"internalType":"address"},{"name":"to","type":"address","indexed":true,"internalType":"address"},{"name":"value","type":"uint256","indexed":false,"internalType":"uint256"}],"anonymous":false}],"bytecode":{"object":"0x6080604052600880546001600160a01b03199081167334a1d3fff3958843c43ad80f30b94c510645c316179091556009805482167337cb1a23e763d2f975bff3b2b86cfa901f7b517e179055600a805482167316fb7667089738a5055e45bd0b260845eaedbe44179055600b80548216732fcf6da7078728e122af6f1d9762e8356d79630a179055600c805482167326aff6f249fdf81492ca987e78f1146296c727b4908117909155600d805483169091179055600e8054909116737f1f3e02e4b20b47e5e6b3b54893f335d3a41dc1179055348015620000df57600080fd5b5060405162000df938038062000df983398101604081905262000102916200017a565b604051806040016040528060048152602001634d6f636b60e01b815250604051806040016040528060048152602001634d4f434b60e01b81525081600390816200014d919062000239565b5060046200015c828262000239565b50506006805460ff191660ff93909316929092179091555062000305565b6000602082840312156200018d57600080fd5b5051919050565b634e487b7160e01b600052604160045260246000fd5b600181811c90821680620001bf57607f821691505b602082108103620001e057634e487b7160e01b600052602260045260246000fd5b50919050565b601f8211156200023457600081815260208120601f850160051c810160208610156200020f5750805b601f850160051c820191505b8181101562000230578281556001016200021b565b5050505b505050565b81516001600160401b0381111562000255576200025562000194565b6200026d81620002668454620001aa565b84620001e6565b602080601f831160018114620002a557600084156200028c5750858301515b600019600386901b1c1916600185901b17855562000230565b600085815260208120601f198616915b82811015620002d657888601518255948401946001909101908401620002b5565b5085821015620002f55787850151600019600388901b60f8161c191681555b5050505050600190811b01905550565b610ae480620003156000396000f3fe608060405234801561001057600080fd5b506004361061014d5760003560e01c806370a08231116100c3578063a9059cbb1161007c578063a9059cbb146102e0578063c09cec77146102f3578063c2ee3a0814610306578063dd62ed3e1461030e578063f2f91da614610321578063fb47e3a21461033457600080fd5b806370a08231146102635780637cd27ca61461028c5780637e6e6ffd1461029f5780637ecebe00146102b257806395d89b41146102c5578063a457c2d7146102cd57600080fd5b8063313ce56711610115578063313ce567146101df5780633644e515146101f457806339509351146101fd57806340ab817e1461021057806340c10f191461023b57806341c8bcc31461025057600080fd5b806306fdde0314610152578063095ea7b31461017057806318160ddd1461019357806323b872dd146101a557806330adf81f146101b8575b600080fd5b61015a610347565b604051610167919061092e565b60405180910390f35b61018361017e366004610998565b6103d9565b6040519015158152602001610167565b6002545b604051908152602001610167565b6101836101b33660046109c2565b6103f3565b6101977f6e71edae12b1b97f4d1f60370fef10105fa2faae0126114a169c64845d6126c981565b60065460405160ff9091168152602001610167565b61019760075481565b61018361020b366004610998565b610417565b600c54610223906001600160a01b031681565b6040516001600160a01b039091168152602001610167565b61024e610249366004610998565b610439565b005b600d54610223906001600160a01b031681565b6101976102713660046109fe565b6001600160a01b031660009081526020819052604090205490565b600854610223906001600160a01b031681565b600e54610223906001600160a01b031681565b6101976102c03660046109fe565b610447565b61015a610465565b6101836102db366004610998565b610474565b6101836102ee366004610998565b6104f4565b600a54610223906001600160a01b031681565b610223600181565b61019761031c366004610a20565b610502565b600b54610223906001600160a01b031681565b600954610223906001600160a01b031681565b60606003805461035690610a53565b80601f016020809104026020016040519081016040528092919081815260200182805461038290610a53565b80156103cf5780601f106103a4576101008083540402835291602001916103cf565b820191906000526020600020905b8154815290600101906020018083116103b257829003601f168201915b5050505050905090565b6000336103e781858561052d565b60019150505b92915050565b600033610401858285610651565b61040c8585856106cb565b506001949350505050565b6000336103e781858561042a8383610502565b6104349190610a8d565b61052d565b610443828261086f565b5050565b6001600160a01b0381166000908152600560205260408120546103ed565b60606004805461035690610a53565b600033816104828286610502565b9050838110156104e75760405162461bcd60e51b815260206004820152602560248201527f45524332303a2064656372656173656420616c6c6f77616e63652062656c6f77604482015264207a65726f60d81b60648201526084015b60405180910390fd5b61040c828686840361052d565b6000336103e78185856106cb565b6001600160a01b03918216600090815260016020908152604080832093909416825291909152205490565b6001600160a01b03831661058f5760405162461bcd60e51b8152602060048201526024808201527f45524332303a20617070726f76652066726f6d20746865207a65726f206164646044820152637265737360e01b60648201526084016104de565b6001600160a01b0382166105f05760405162461bcd60e51b815260206004820152602260248201527f45524332303a20617070726f766520746f20746865207a65726f206164647265604482015261737360f01b60648201526084016104de565b6001600160a01b0383811660008181526001602090815260408083209487168084529482529182902085905590518481527f8c5be1e5ebec7d5bd14f71427d1e84f3dd0314c0f7b2291e5b200ac8c7c3b925910160405180910390a3505050565b600061065d8484610502565b905060001981146106c557818110156106b85760405162461bcd60e51b815260206004820152601d60248201527f45524332303a20696e73756666696369656e7420616c6c6f77616e636500000060448201526064016104de565b6106c5848484840361052d565b50505050565b6001600160a01b03831661072f5760405162461bcd60e51b815260206004820152602560248201527f45524332303a207472616e736665722066726f6d20746865207a65726f206164604482015264647265737360d81b60648201526084016104de565b6001600160a01b0382166107915760405162461bcd60e51b815260206004820152602360248201527f45524332303a207472616e7366657220746f20746865207a65726f206164647260448201526265737360e81b60648201526084016104de565b6001600160a01b038316600090815260208190526040902054818110156108095760405162461bcd60e51b815260206004820152602660248201527f45524332303a207472616e7366657220616d6f756e7420657863656564732062604482015265616c616e636560d01b60648201526084016104de565b6001600160a01b03848116600081815260208181526040808320878703905593871680835291849020805487019055925185815290927fddf252ad1be2c89b69c2b068fc378daa952ba7f163c4a11628f55a4df523b3ef910160405180910390a36106c5565b6001600160a01b0382166108c55760405162461bcd60e51b815260206004820152601f60248201527f45524332303a206d696e7420746f20746865207a65726f20616464726573730060448201526064016104de565b80600260008282546108d79190610a8d565b90915550506001600160a01b038216600081815260208181526040808320805486019055518481527fddf252ad1be2c89b69c2b068fc378daa952ba7f163c4a11628f55a4df523b3ef910160405180910390a35050565b600060208083528351808285015260005b8181101561095b5785810183015185820160400152820161093f565b506000604082860101526040601f19601f8301168501019250505092915050565b80356001600160a01b038116811461099357600080fd5b919050565b600080604083850312156109ab57600080fd5b6109b48361097c565b946020939093013593505050565b6000806000606084860312156109d757600080fd5b6109e08461097c565b92506109ee6020850161097c565b9150604084013590509250925092565b600060208284031215610a1057600080fd5b610a198261097c565b9392505050565b60008060408385031215610a3357600080fd5b610a3c8361097c565b9150610a4a6020840161097c565b90509250929050565b600181811c90821680610a6757607f821691505b602082108103610a8757634e487b7160e01b600052602260045260246000fd5b50919050565b808201808211156103ed57634e487b7160e01b600052601160045260246000fdfea26469706673582212203148b0e08f18a36118bf3b3ed6c3ffdd362189331f7192405c48b9e952ab911664736f6c63430008150033","linkReferences":{}},"methodIdentifiers":{"DOMAIN_SEPARATOR()":"3644e515","ONE()":"c2ee3a08","OZ()":"41c8bcc3","PERMIT_TYPEHASH()":"30adf81f","alice()":"fb47e3a2","allowance(address,address)":"dd62ed3e","approve(address,uint256)":"095ea7b3","balanceOf(address)":"70a08231","bob()":"c09cec77","charlie()":"f2f91da6","decimals()":"313ce567","decreaseAllowance(address,uint256)":"a457c2d7","foundry()":"7cd27ca6","increaseAllowance(address,uint256)":"39509351","mint(address,uint256)":"40c10f19","mockSwapRouterUni()":"40ab817e","mockVault()":"7e6e6ffd","name()":"06fdde03","nonces(address)":"7ecebe00","symbol()":"95d89b41","totalSupply()":"18160ddd","transfer(address,uint256)":"a9059cbb","transferFrom(address,address,uint256)":"23b872dd"},"id":128}