{"abi":[{"type":"constructor","inputs":[{"name":"dec_","type":"uint256","internalType":"uint256"}],"stateMutability":"nonpayable"},{"type":"function","name":"DOMAIN_SEPARATOR","inputs":[],"outputs":[{"name":"","type":"bytes32","internalType":"bytes32"}],"stateMutability":"view"},{"type":"function","name":"PERMIT_TYPEHASH","inputs":[],"outputs":[{"name":"","type":"bytes32","internalType":"bytes32"}],"stateMutability":"view"},{"type":"function","name":"allowance","inputs":[{"name":"owner","type":"address","internalType":"address"},{"name":"spender","type":"address","internalType":"address"}],"outputs":[{"name":"","type":"uint256","internalType":"uint256"}],"stateMutability":"view"},{"type":"function","name":"approve","inputs":[{"name":"spender","type":"address","internalType":"address"},{"name":"amount","type":"uint256","internalType":"uint256"}],"outputs":[{"name":"","type":"bool","internalType":"bool"}],"stateMutability":"nonpayable"},{"type":"function","name":"balanceOf","inputs":[{"name":"account","type":"address","internalType":"address"}],"outputs":[{"name":"","type":"uint256","internalType":"uint256"}],"stateMutability":"view"},{"type":"function","name":"decimals","inputs":[],"outputs":[{"name":"","type":"uint8","internalType":"uint8"}],"stateMutability":"view"},{"type":"function","name":"decreaseAllowance","inputs":[{"name":"spender","type":"address","internalType":"address"},{"name":"subtractedValue","type":"uint256","internalType":"uint256"}],"outputs":[{"name":"","type":"bool","internalType":"bool"}],"stateMutability":"nonpayable"},{"type":"function","name":"increaseAllowance","inputs":[{"name":"spender","type":"address","internalType":"address"},{"name":"addedValue","type":"uint256","internalType":"uint256"}],"outputs":[{"name":"","type":"bool","internalType":"bool"}],"stateMutability":"nonpayable"},{"type":"function","name":"mint","inputs":[{"name":"to_","type":"address","internalType":"address"},{"name":"amount_","type":"uint256","internalType":"uint256"}],"outputs":[],"stateMutability":"nonpayable"},{"type":"function","name":"name","inputs":[],"outputs":[{"name":"","type":"string","internalType":"string"}],"stateMutability":"view"},{"type":"function","name":"nonces","inputs":[{"name":"owner","type":"address","internalType":"address"}],"outputs":[{"name":"","type":"uint256","internalType":"uint256"}],"stateMutability":"view"},{"type":"function","name":"symbol","inputs":[],"outputs":[{"name":"","type":"string","internalType":"string"}],"stateMutability":"view"},{"type":"function","name":"totalSupply","inputs":[],"outputs":[{"name":"","type":"uint256","internalType":"uint256"}],"stateMutability":"view"},{"type":"function","name":"transfer","inputs":[{"name":"to","type":"address","internalType":"address"},{"name":"amount","type":"uint256","internalType":"uint256"}],"outputs":[{"name":"","type":"bool","internalType":"bool"}],"stateMutability":"nonpayable"},{"type":"function","name":"transferFrom","inputs":[{"name":"from","type":"address","internalType":"address"},{"name":"to","type":"address","internalType":"address"},{"name":"amount","type":"uint256","internalType":"uint256"}],"outputs":[{"name":"","type":"bool","internalType":"bool"}],"stateMutability":"nonpayable"},{"type":"event","name":"Approval","inputs":[{"name":"owner","type":"address","indexed":true,"internalType":"address"},{"name":"spender","type":"address","indexed":true,"internalType":"address"},{"name":"value","type":"uint256","indexed":false,"internalType":"uint256"}],"anonymous":false},{"type":"event","name":"Transfer","inputs":[{"name":"from","type":"address","indexed":true,"internalType":"address"},{"name":"to","type":"address","indexed":true,"internalType":"address"},{"name":"value","type":"uint256","indexed":false,"internalType":"uint256"}],"anonymous":false}],"bytecode":{"object":"0x608060405234801562000010575f80fd5b5060405162000bfb38038062000bfb8339810160408190526200003391620000ab565b604051806040016040528060048152602001634d6f636b60e01b815250604051806040016040528060048152602001634d4f434b60e01b81525081600390816200007e919062000161565b5060046200008d828262000161565b50506006805460ff191660ff9390931692909217909155506200022d565b5f60208284031215620000bc575f80fd5b5051919050565b634e487b7160e01b5f52604160045260245ffd5b600181811c90821680620000ec57607f821691505b6020821081036200010b57634e487b7160e01b5f52602260045260245ffd5b50919050565b601f8211156200015c57805f5260205f20601f840160051c81016020851015620001385750805b601f840160051c820191505b8181101562000159575f815560010162000144565b50505b505050565b81516001600160401b038111156200017d576200017d620000c3565b62000195816200018e8454620000d7565b8462000111565b602080601f831160018114620001cb575f8415620001b35750858301515b5f19600386901b1c1916600185901b17855562000225565b5f85815260208120601f198616915b82811015620001fb57888601518255948401946001909101908401620001da565b50858210156200021957878501515f19600388901b60f8161c191681555b505060018460011b0185555b505050505050565b6109c0806200023b5f395ff3fe608060405234801561000f575f80fd5b50600436106100f0575f3560e01c8063395093511161009357806395d89b411161006357806395d89b4114610202578063a457c2d71461020a578063a9059cbb1461021d578063dd62ed3e14610230575f80fd5b8063395093511461019f57806340c10f19146101b257806370a08231146101c75780637ecebe00146101ef575f80fd5b806323b872dd116100ce57806323b872dd1461014757806330adf81f1461015a578063313ce567146101815780633644e51514610196575f80fd5b806306fdde03146100f4578063095ea7b31461011257806318160ddd14610135575b5f80fd5b6100fc610243565b604051610109919061081a565b60405180910390f35b610125610120366004610881565b6102d3565b6040519015158152602001610109565b6002545b604051908152602001610109565b6101256101553660046108a9565b6102ec565b6101397f6e71edae12b1b97f4d1f60370fef10105fa2faae0126114a169c64845d6126c981565b60065460405160ff9091168152602001610109565b61013960075481565b6101256101ad366004610881565b61030f565b6101c56101c0366004610881565b610330565b005b6101396101d53660046108e2565b6001600160a01b03165f9081526020819052604090205490565b6101396101fd3660046108e2565b61033e565b6100fc61035b565b610125610218366004610881565b61036a565b61012561022b366004610881565b6103e9565b61013961023e366004610902565b6103f6565b60606003805461025290610933565b80601f016020809104026020016040519081016040528092919081815260200182805461027e90610933565b80156102c95780601f106102a0576101008083540402835291602001916102c9565b820191905f5260205f20905b8154815290600101906020018083116102ac57829003601f168201915b5050505050905090565b5f336102e0818585610420565b60019150505b92915050565b5f336102f9858285610543565b6103048585856105bb565b506001949350505050565b5f336102e081858561032183836103f6565b61032b919061096b565b610420565b61033a828261075d565b5050565b6001600160a01b0381165f908152600560205260408120546102e6565b60606004805461025290610933565b5f338161037782866103f6565b9050838110156103dc5760405162461bcd60e51b815260206004820152602560248201527f45524332303a2064656372656173656420616c6c6f77616e63652062656c6f77604482015264207a65726f60d81b60648201526084015b60405180910390fd5b6103048286868403610420565b5f336102e08185856105bb565b6001600160a01b039182165f90815260016020908152604080832093909416825291909152205490565b6001600160a01b0383166104825760405162461bcd60e51b8152602060048201526024808201527f45524332303a20617070726f76652066726f6d20746865207a65726f206164646044820152637265737360e01b60648201526084016103d3565b6001600160a01b0382166104e35760405162461bcd60e51b815260206004820152602260248201527f45524332303a20617070726f766520746f20746865207a65726f206164647265604482015261737360f01b60648201526084016103d3565b6001600160a01b038381165f8181526001602090815260408083209487168084529482529182902085905590518481527f8c5be1e5ebec7d5bd14f71427d1e84f3dd0314c0f7b2291e5b200ac8c7c3b925910160405180910390a3505050565b5f61054e84846103f6565b90505f1981146105b557818110156105a85760405162461bcd60e51b815260206004820152601d60248201527f45524332303a20696e73756666696369656e7420616c6c6f77616e636500000060448201526064016103d3565b6105b58484848403610420565b50505050565b6001600160a01b03831661061f5760405162461bcd60e51b815260206004820152602560248201527f45524332303a207472616e736665722066726f6d20746865207a65726f206164604482015264647265737360d81b60648201526084016103d3565b6001600160a01b0382166106815760405162461bcd60e51b815260206004820152602360248201527f45524332303a207472616e7366657220746f20746865207a65726f206164647260448201526265737360e81b60648201526084016103d3565b6001600160a01b0383165f90815260208190526040902054818110156106f85760405162461bcd60e51b815260206004820152602660248201527f45524332303a207472616e7366657220616d6f756e7420657863656564732062604482015265616c616e636560d01b60648201526084016103d3565b6001600160a01b038481165f81815260208181526040808320878703905593871680835291849020805487019055925185815290927fddf252ad1be2c89b69c2b068fc378daa952ba7f163c4a11628f55a4df523b3ef910160405180910390a36105b5565b6001600160a01b0382166107b35760405162461bcd60e51b815260206004820152601f60248201527f45524332303a206d696e7420746f20746865207a65726f20616464726573730060448201526064016103d3565b8060025f8282546107c4919061096b565b90915550506001600160a01b0382165f81815260208181526040808320805486019055518481527fddf252ad1be2c89b69c2b068fc378daa952ba7f163c4a11628f55a4df523b3ef910160405180910390a35050565b5f602080835283518060208501525f5b818110156108465785810183015185820160400152820161082a565b505f604082860101526040601f19601f8301168501019250505092915050565b80356001600160a01b038116811461087c575f80fd5b919050565b5f8060408385031215610892575f80fd5b61089b83610866565b946020939093013593505050565b5f805f606084860312156108bb575f80fd5b6108c484610866565b92506108d260208501610866565b9150604084013590509250925092565b5f602082840312156108f2575f80fd5b6108fb82610866565b9392505050565b5f8060408385031215610913575f80fd5b61091c83610866565b915061092a60208401610866565b90509250929050565b600181811c9082168061094757607f821691505b60208210810361096557634e487b7160e01b5f52602260045260245ffd5b50919050565b808201808211156102e657634e487b7160e01b5f52601160045260245ffdfea26469706673582212204dcc005fccf9a4e10ba8e2751f7e0180126ee2c984a42b800913c3e46bac28e864736f6c63430008180033","linkReferences":{}},"methodIdentifiers":{"DOMAIN_SEPARATOR()":"3644e515","PERMIT_TYPEHASH()":"30adf81f","allowance(address,address)":"dd62ed3e","approve(address,uint256)":"095ea7b3","balanceOf(address)":"70a08231","decimals()":"313ce567","decreaseAllowance(address,uint256)":"a457c2d7","increaseAllowance(address,uint256)":"39509351","mint(address,uint256)":"40c10f19","name()":"06fdde03","nonces(address)":"7ecebe00","symbol()":"95d89b41","totalSupply()":"18160ddd","transfer(address,uint256)":"a9059cbb","transferFrom(address,address,uint256)":"23b872dd"},"id":146}