{"abi":[{"type":"constructor","inputs":[{"name":"dec_","type":"uint256","internalType":"uint256"}],"stateMutability":"nonpayable"},{"type":"function","name":"DOMAIN_SEPARATOR","inputs":[],"outputs":[{"name":"","type":"bytes32","internalType":"bytes32"}],"stateMutability":"view"},{"type":"function","name":"ONE","inputs":[],"outputs":[{"name":"","type":"address","internalType":"address"}],"stateMutability":"view"},{"type":"function","name":"OZ","inputs":[],"outputs":[{"name":"","type":"address","internalType":"address"}],"stateMutability":"view"},{"type":"function","name":"PERMIT_TYPEHASH","inputs":[],"outputs":[{"name":"","type":"bytes32","internalType":"bytes32"}],"stateMutability":"view"},{"type":"function","name":"alice","inputs":[],"outputs":[{"name":"","type":"address","internalType":"address"}],"stateMutability":"view"},{"type":"function","name":"allowance","inputs":[{"name":"owner","type":"address","internalType":"address"},{"name":"spender","type":"address","internalType":"address"}],"outputs":[{"name":"","type":"uint256","internalType":"uint256"}],"stateMutability":"view"},{"type":"function","name":"approve","inputs":[{"name":"spender","type":"address","internalType":"address"},{"name":"amount","type":"uint256","internalType":"uint256"}],"outputs":[{"name":"","type":"bool","internalType":"bool"}],"stateMutability":"nonpayable"},{"type":"function","name":"balanceOf","inputs":[{"name":"account","type":"address","internalType":"address"}],"outputs":[{"name":"","type":"uint256","internalType":"uint256"}],"stateMutability":"view"},{"type":"function","name":"bob","inputs":[],"outputs":[{"name":"","type":"address","internalType":"address"}],"stateMutability":"view"},{"type":"function","name":"charlie","inputs":[],"outputs":[{"name":"","type":"address","internalType":"address"}],"stateMutability":"view"},{"type":"function","name":"decimals","inputs":[],"outputs":[{"name":"","type":"uint8","internalType":"uint8"}],"stateMutability":"view"},{"type":"function","name":"decreaseAllowance","inputs":[{"name":"spender","type":"address","internalType":"address"},{"name":"subtractedValue","type":"uint256","internalType":"uint256"}],"outputs":[{"name":"","type":"bool","internalType":"bool"}],"stateMutability":"nonpayable"},{"type":"function","name":"foundry","inputs":[],"outputs":[{"name":"","type":"address","internalType":"address"}],"stateMutability":"view"},{"type":"function","name":"increaseAllowance","inputs":[{"name":"spender","type":"address","internalType":"address"},{"name":"addedValue","type":"uint256","internalType":"uint256"}],"outputs":[{"name":"","type":"bool","internalType":"bool"}],"stateMutability":"nonpayable"},{"type":"function","name":"mockSwapRouterUni","inputs":[],"outputs":[{"name":"","type":"address","internalType":"address"}],"stateMutability":"view"},{"type":"function","name":"mockVault","inputs":[],"outputs":[{"name":"","type":"address","internalType":"address"}],"stateMutability":"view"},{"type":"function","name":"name","inputs":[],"outputs":[{"name":"","type":"string","internalType":"string"}],"stateMutability":"view"},{"type":"function","name":"nonces","inputs":[{"name":"owner","type":"address","internalType":"address"}],"outputs":[{"name":"","type":"uint256","internalType":"uint256"}],"stateMutability":"view"},{"type":"function","name":"symbol","inputs":[],"outputs":[{"name":"","type":"string","internalType":"string"}],"stateMutability":"view"},{"type":"function","name":"totalSupply","inputs":[],"outputs":[{"name":"","type":"uint256","internalType":"uint256"}],"stateMutability":"view"},{"type":"function","name":"transfer","inputs":[{"name":"to","type":"address","internalType":"address"},{"name":"amount","type":"uint256","internalType":"uint256"}],"outputs":[{"name":"","type":"bool","internalType":"bool"}],"stateMutability":"nonpayable"},{"type":"function","name":"transferFrom","inputs":[{"name":"from","type":"address","internalType":"address"},{"name":"to","type":"address","internalType":"address"},{"name":"amount","type":"uint256","internalType":"uint256"}],"outputs":[{"name":"","type":"bool","internalType":"bool"}],"stateMutability":"nonpayable"},{"type":"event","name":"Approval","inputs":[{"name":"owner","type":"address","indexed":true,"internalType":"address"},{"name":"spender","type":"address","indexed":true,"internalType":"address"},{"name":"value","type":"uint256","indexed":false,"internalType":"uint256"}],"anonymous":false},{"type":"event","name":"Transfer","inputs":[{"name":"from","type":"address","indexed":true,"internalType":"address"},{"name":"to","type":"address","indexed":true,"internalType":"address"},{"name":"value","type":"uint256","indexed":false,"internalType":"uint256"}],"anonymous":false}],"bytecode":{"object":"0x6080604052600880546001600160a01b03199081167334a1d3fff3958843c43ad80f30b94c510645c316179091556009805482167337cb1a23e763d2f975bff3b2b86cfa901f7b517e179055600a805482167316fb7667089738a5055e45bd0b260845eaedbe44179055600b80548216732fcf6da7078728e122af6f1d9762e8356d79630a179055600c805482167326aff6f249fdf81492ca987e78f1146296c727b4908117909155600d805483169091179055600e8054909116737f1f3e02e4b20b47e5e6b3b54893f335d3a41dc1179055348015620000df57600080fd5b5060405162000fda38038062000fda8339810160408190526200010291620002ef565b604051806040016040528060048152602001634d6f636b60e01b815250604051806040016040528060048152602001634d4f434b60e01b81525081600390816200014d9190620003ad565b5060046200015c8282620003ad565b50506006805460ff191660ff841617905550600954620001a1906001600160a01b03166200018c83600a6200058e565b6200019b9062989680620005a3565b62000224565b600a8054620001c3916001600160a01b03909116906200018c9084906200058e565b600b54620001e1906001600160a01b03166200018c83600a6200058e565b600d54620001ff906001600160a01b03166200018c83600a6200058e565b600e546200021d906001600160a01b03166200018c83600a6200058e565b50620005d3565b6001600160a01b0382166200027f5760405162461bcd60e51b815260206004820152601f60248201527f45524332303a206d696e7420746f20746865207a65726f206164647265737300604482015260640160405180910390fd5b8060026000828254620002939190620005bd565b90915550506001600160a01b038216600081815260208181526040808320805486019055518481527fddf252ad1be2c89b69c2b068fc378daa952ba7f163c4a11628f55a4df523b3ef910160405180910390a35050565b505050565b6000602082840312156200030257600080fd5b5051919050565b634e487b7160e01b600052604160045260246000fd5b600181811c908216806200033457607f821691505b6020821081036200035557634e487b7160e01b600052602260045260246000fd5b50919050565b601f821115620002ea57600081815260208120601f850160051c81016020861015620003845750805b601f850160051c820191505b81811015620003a55782815560010162000390565b505050505050565b81516001600160401b03811115620003c957620003c962000309565b620003e181620003da84546200031f565b846200035b565b602080601f831160018114620004195760008415620004005750858301515b600019600386901b1c1916600185901b178555620003a5565b600085815260208120601f198616915b828110156200044a5788860151825594840194600190910190840162000429565b5085821015620004695787850151600019600388901b60f8161c191681555b5050505050600190811b01905550565b634e487b7160e01b600052601160045260246000fd5b600181815b80851115620004d0578160001904821115620004b457620004b462000479565b80851615620004c257918102915b93841c939080029062000494565b509250929050565b600082620004e95750600162000588565b81620004f85750600062000588565b81600181146200051157600281146200051c576200053c565b600191505062000588565b60ff84111562000530576200053062000479565b50506001821b62000588565b5060208310610133831016604e8410600b841016171562000561575081810a62000588565b6200056d83836200048f565b806000190482111562000584576200058462000479565b0290505b92915050565b60006200059c8383620004d8565b9392505050565b808202811582820484141762000588576200058862000479565b8082018082111562000588576200058862000479565b6109f780620005e36000396000f3fe608060405234801561001057600080fd5b50600436106101425760003560e01c80637cd27ca6116100b8578063a9059cbb1161007c578063a9059cbb146102c0578063c09cec77146102d3578063c2ee3a08146102e6578063dd62ed3e146102ee578063f2f91da614610301578063fb47e3a21461031457600080fd5b80637cd27ca61461026c5780637e6e6ffd1461027f5780637ecebe001461029257806395d89b41146102a5578063a457c2d7146102ad57600080fd5b8063313ce5671161010a578063313ce567146101d45780633644e515146101e957806339509351146101f257806340ab817e1461020557806341c8bcc31461023057806370a082311461024357600080fd5b806306fdde0314610147578063095ea7b31461016557806318160ddd1461018857806323b872dd1461019a57806330adf81f146101ad575b600080fd5b61014f610327565b60405161015c9190610841565b60405180910390f35b6101786101733660046108ab565b6103b9565b604051901515815260200161015c565b6002545b60405190815260200161015c565b6101786101a83660046108d5565b6103d3565b61018c7f6e71edae12b1b97f4d1f60370fef10105fa2faae0126114a169c64845d6126c981565b60065460405160ff909116815260200161015c565b61018c60075481565b6101786102003660046108ab565b6103f7565b600c54610218906001600160a01b031681565b6040516001600160a01b03909116815260200161015c565b600d54610218906001600160a01b031681565b61018c610251366004610911565b6001600160a01b031660009081526020819052604090205490565b600854610218906001600160a01b031681565b600e54610218906001600160a01b031681565b61018c6102a0366004610911565b610419565b61014f610437565b6101786102bb3660046108ab565b610446565b6101786102ce3660046108ab565b6104c6565b600a54610218906001600160a01b031681565b610218600181565b61018c6102fc366004610933565b6104d4565b600b54610218906001600160a01b031681565b600954610218906001600160a01b031681565b60606003805461033690610966565b80601f016020809104026020016040519081016040528092919081815260200182805461036290610966565b80156103af5780601f10610384576101008083540402835291602001916103af565b820191906000526020600020905b81548152906001019060200180831161039257829003601f168201915b5050505050905090565b6000336103c78185856104ff565b60019150505b92915050565b6000336103e1858285610623565b6103ec85858561069d565b506001949350505050565b6000336103c781858561040a83836104d4565b61041491906109a0565b6104ff565b6001600160a01b0381166000908152600560205260408120546103cd565b60606004805461033690610966565b6000338161045482866104d4565b9050838110156104b95760405162461bcd60e51b815260206004820152602560248201527f45524332303a2064656372656173656420616c6c6f77616e63652062656c6f77604482015264207a65726f60d81b60648201526084015b60405180910390fd5b6103ec82868684036104ff565b6000336103c781858561069d565b6001600160a01b03918216600090815260016020908152604080832093909416825291909152205490565b6001600160a01b0383166105615760405162461bcd60e51b8152602060048201526024808201527f45524332303a20617070726f76652066726f6d20746865207a65726f206164646044820152637265737360e01b60648201526084016104b0565b6001600160a01b0382166105c25760405162461bcd60e51b815260206004820152602260248201527f45524332303a20617070726f766520746f20746865207a65726f206164647265604482015261737360f01b60648201526084016104b0565b6001600160a01b0383811660008181526001602090815260408083209487168084529482529182902085905590518481527f8c5be1e5ebec7d5bd14f71427d1e84f3dd0314c0f7b2291e5b200ac8c7c3b925910160405180910390a3505050565b600061062f84846104d4565b90506000198114610697578181101561068a5760405162461bcd60e51b815260206004820152601d60248201527f45524332303a20696e73756666696369656e7420616c6c6f77616e636500000060448201526064016104b0565b61069784848484036104ff565b50505050565b6001600160a01b0383166107015760405162461bcd60e51b815260206004820152602560248201527f45524332303a207472616e736665722066726f6d20746865207a65726f206164604482015264647265737360d81b60648201526084016104b0565b6001600160a01b0382166107635760405162461bcd60e51b815260206004820152602360248201527f45524332303a207472616e7366657220746f20746865207a65726f206164647260448201526265737360e81b60648201526084016104b0565b6001600160a01b038316600090815260208190526040902054818110156107db5760405162461bcd60e51b815260206004820152602660248201527f45524332303a207472616e7366657220616d6f756e7420657863656564732062604482015265616c616e636560d01b60648201526084016104b0565b6001600160a01b03848116600081815260208181526040808320878703905593871680835291849020805487019055925185815290927fddf252ad1be2c89b69c2b068fc378daa952ba7f163c4a11628f55a4df523b3ef910160405180910390a3610697565b600060208083528351808285015260005b8181101561086e57858101830151858201604001528201610852565b506000604082860101526040601f19601f8301168501019250505092915050565b80356001600160a01b03811681146108a657600080fd5b919050565b600080604083850312156108be57600080fd5b6108c78361088f565b946020939093013593505050565b6000806000606084860312156108ea57600080fd5b6108f38461088f565b92506109016020850161088f565b9150604084013590509250925092565b60006020828403121561092357600080fd5b61092c8261088f565b9392505050565b6000806040838503121561094657600080fd5b61094f8361088f565b915061095d6020840161088f565b90509250929050565b600181811c9082168061097a57607f821691505b60208210810361099a57634e487b7160e01b600052602260045260246000fd5b50919050565b808201808211156103cd57634e487b7160e01b600052601160045260246000fdfea2646970667358221220dea60cc58a836de35836787f69222bca6329180907aba297b4ea76219d1887d764736f6c63430008150033","linkReferences":{}},"methodIdentifiers":{"DOMAIN_SEPARATOR()":"3644e515","ONE()":"c2ee3a08","OZ()":"41c8bcc3","PERMIT_TYPEHASH()":"30adf81f","alice()":"fb47e3a2","allowance(address,address)":"dd62ed3e","approve(address,uint256)":"095ea7b3","balanceOf(address)":"70a08231","bob()":"c09cec77","charlie()":"f2f91da6","decimals()":"313ce567","decreaseAllowance(address,uint256)":"a457c2d7","foundry()":"7cd27ca6","increaseAllowance(address,uint256)":"39509351","mockSwapRouterUni()":"40ab817e","mockVault()":"7e6e6ffd","name()":"06fdde03","nonces(address)":"7ecebe00","symbol()":"95d89b41","totalSupply()":"18160ddd","transfer(address,uint256)":"a9059cbb","transferFrom(address,address,uint256)":"23b872dd"},"id":132}