{"abi":[{"type":"constructor","inputs":[{"name":"dec_","type":"uint256","internalType":"uint256"}],"stateMutability":"nonpayable"},{"type":"function","name":"decimals","inputs":[],"outputs":[{"name":"","type":"uint256","internalType":"uint256"}],"stateMutability":"view"}],"bytecode":{"object":"0x608060405234801561001057600080fd5b506040516100db3803806100db83398101604081905261002f91610037565b600055610050565b60006020828403121561004957600080fd5b5051919050565b607d8061005e6000396000f3fe6080604052348015600f57600080fd5b506004361060285760003560e01c8063313ce56714602d575b600080fd5b603560005481565b60405190815260200160405180910390f3fea2646970667358221220e53b673cced613b54657c2528bf04beb943e7f6bbc8edab59a8ca009f665737164736f6c63430008150033","linkReferences":{}},"methodIdentifiers":{"decimals()":"313ce567"},"id":130}