{"abi":[{"type":"constructor","inputs":[{"name":"dec_","type":"uint256","internalType":"uint256"}],"stateMutability":"nonpayable"},{"type":"function","name":"DOMAIN_SEPARATOR","inputs":[],"outputs":[{"name":"","type":"bytes32","internalType":"bytes32"}],"stateMutability":"view"},{"type":"function","name":"PERMIT_TYPEHASH","inputs":[],"outputs":[{"name":"","type":"bytes32","internalType":"bytes32"}],"stateMutability":"view"},{"type":"function","name":"allowance","inputs":[{"name":"owner","type":"address","internalType":"address"},{"name":"spender","type":"address","internalType":"address"}],"outputs":[{"name":"","type":"uint256","internalType":"uint256"}],"stateMutability":"view"},{"type":"function","name":"approve","inputs":[{"name":"spender","type":"address","internalType":"address"},{"name":"amount","type":"uint256","internalType":"uint256"}],"outputs":[{"name":"","type":"bool","internalType":"bool"}],"stateMutability":"nonpayable"},{"type":"function","name":"balanceOf","inputs":[{"name":"account","type":"address","internalType":"address"}],"outputs":[{"name":"","type":"uint256","internalType":"uint256"}],"stateMutability":"view"},{"type":"function","name":"decimals","inputs":[],"outputs":[{"name":"","type":"uint8","internalType":"uint8"}],"stateMutability":"view"},{"type":"function","name":"decreaseAllowance","inputs":[{"name":"spender","type":"address","internalType":"address"},{"name":"subtractedValue","type":"uint256","internalType":"uint256"}],"outputs":[{"name":"","type":"bool","internalType":"bool"}],"stateMutability":"nonpayable"},{"type":"function","name":"increaseAllowance","inputs":[{"name":"spender","type":"address","internalType":"address"},{"name":"addedValue","type":"uint256","internalType":"uint256"}],"outputs":[{"name":"","type":"bool","internalType":"bool"}],"stateMutability":"nonpayable"},{"type":"function","name":"mint","inputs":[{"name":"to_","type":"address","internalType":"address"},{"name":"amount_","type":"uint256","internalType":"uint256"}],"outputs":[],"stateMutability":"nonpayable"},{"type":"function","name":"name","inputs":[],"outputs":[{"name":"","type":"string","internalType":"string"}],"stateMutability":"view"},{"type":"function","name":"nonces","inputs":[{"name":"owner","type":"address","internalType":"address"}],"outputs":[{"name":"","type":"uint256","internalType":"uint256"}],"stateMutability":"view"},{"type":"function","name":"symbol","inputs":[],"outputs":[{"name":"","type":"string","internalType":"string"}],"stateMutability":"view"},{"type":"function","name":"totalSupply","inputs":[],"outputs":[{"name":"","type":"uint256","internalType":"uint256"}],"stateMutability":"view"},{"type":"function","name":"transfer","inputs":[{"name":"to","type":"address","internalType":"address"},{"name":"amount","type":"uint256","internalType":"uint256"}],"outputs":[{"name":"","type":"bool","internalType":"bool"}],"stateMutability":"nonpayable"},{"type":"function","name":"transferFrom","inputs":[{"name":"from","type":"address","internalType":"address"},{"name":"to","type":"address","internalType":"address"},{"name":"amount","type":"uint256","internalType":"uint256"}],"outputs":[{"name":"","type":"bool","internalType":"bool"}],"stateMutability":"nonpayable"},{"type":"event","name":"Approval","inputs":[{"name":"owner","type":"address","indexed":true,"internalType":"address"},{"name":"spender","type":"address","indexed":true,"internalType":"address"},{"name":"value","type":"uint256","indexed":false,"internalType":"uint256"}],"anonymous":false},{"type":"event","name":"Transfer","inputs":[{"name":"from","type":"address","indexed":true,"internalType":"address"},{"name":"to","type":"address","indexed":true,"internalType":"address"},{"name":"value","type":"uint256","indexed":false,"internalType":"uint256"}],"anonymous":false}],"bytecode":{"object":"0x60806040523480156200001157600080fd5b5060405162000c3138038062000c318339810160408190526200003491620000ac565b604051806040016040528060048152602001634d6f636b60e01b815250604051806040016040528060048152602001634d4f434b60e01b81525081600390816200007f91906200016d565b5060046200008e82826200016d565b50506006805460ff191660ff93909316929092179091555062000239565b600060208284031215620000bf57600080fd5b5051919050565b634e487b7160e01b600052604160045260246000fd5b600181811c90821680620000f157607f821691505b6020821081036200011257634e487b7160e01b600052602260045260246000fd5b50919050565b601f82111562000168576000816000526020600020601f850160051c81016020861015620001435750805b601f850160051c820191505b8181101562000164578281556001016200014f565b5050505b505050565b81516001600160401b03811115620001895762000189620000c6565b620001a1816200019a8454620000dc565b8462000118565b602080601f831160018114620001d95760008415620001c05750858301515b600019600386901b1c1916600185901b17855562000164565b600085815260208120601f198616915b828110156200020a57888601518255948401946001909101908401620001e9565b5085821015620002295787850151600019600388901b60f8161c191681555b5050505050600190811b01905550565b6109e880620002496000396000f3fe608060405234801561001057600080fd5b50600436106100f55760003560e01c8063395093511161009757806395d89b411161006657806395d89b4114610209578063a457c2d714610211578063a9059cbb14610224578063dd62ed3e1461023757600080fd5b806339509351146101a557806340c10f19146101b857806370a08231146101cd5780637ecebe00146101f657600080fd5b806323b872dd116100d357806323b872dd1461014d57806330adf81f14610160578063313ce567146101875780633644e5151461019c57600080fd5b806306fdde03146100fa578063095ea7b31461011857806318160ddd1461013b575b600080fd5b61010261024a565b60405161010f9190610831565b60405180910390f35b61012b61012636600461089c565b6102dc565b604051901515815260200161010f565b6002545b60405190815260200161010f565b61012b61015b3660046108c6565b6102f6565b61013f7f6e71edae12b1b97f4d1f60370fef10105fa2faae0126114a169c64845d6126c981565b60065460405160ff909116815260200161010f565b61013f60075481565b61012b6101b336600461089c565b61031a565b6101cb6101c636600461089c565b61033c565b005b61013f6101db366004610902565b6001600160a01b031660009081526020819052604090205490565b61013f610204366004610902565b61034a565b610102610368565b61012b61021f36600461089c565b610377565b61012b61023236600461089c565b6103f7565b61013f610245366004610924565b610405565b60606003805461025990610957565b80601f016020809104026020016040519081016040528092919081815260200182805461028590610957565b80156102d25780601f106102a7576101008083540402835291602001916102d2565b820191906000526020600020905b8154815290600101906020018083116102b557829003601f168201915b5050505050905090565b6000336102ea818585610430565b60019150505b92915050565b600033610304858285610554565b61030f8585856105ce565b506001949350505050565b6000336102ea81858561032d8383610405565b6103379190610991565b610430565b6103468282610772565b5050565b6001600160a01b0381166000908152600560205260408120546102f0565b60606004805461025990610957565b600033816103858286610405565b9050838110156103ea5760405162461bcd60e51b815260206004820152602560248201527f45524332303a2064656372656173656420616c6c6f77616e63652062656c6f77604482015264207a65726f60d81b60648201526084015b60405180910390fd5b61030f8286868403610430565b6000336102ea8185856105ce565b6001600160a01b03918216600090815260016020908152604080832093909416825291909152205490565b6001600160a01b0383166104925760405162461bcd60e51b8152602060048201526024808201527f45524332303a20617070726f76652066726f6d20746865207a65726f206164646044820152637265737360e01b60648201526084016103e1565b6001600160a01b0382166104f35760405162461bcd60e51b815260206004820152602260248201527f45524332303a20617070726f766520746f20746865207a65726f206164647265604482015261737360f01b60648201526084016103e1565b6001600160a01b0383811660008181526001602090815260408083209487168084529482529182902085905590518481527f8c5be1e5ebec7d5bd14f71427d1e84f3dd0314c0f7b2291e5b200ac8c7c3b925910160405180910390a3505050565b60006105608484610405565b905060001981146105c857818110156105bb5760405162461bcd60e51b815260206004820152601d60248201527f45524332303a20696e73756666696369656e7420616c6c6f77616e636500000060448201526064016103e1565b6105c88484848403610430565b50505050565b6001600160a01b0383166106325760405162461bcd60e51b815260206004820152602560248201527f45524332303a207472616e736665722066726f6d20746865207a65726f206164604482015264647265737360d81b60648201526084016103e1565b6001600160a01b0382166106945760405162461bcd60e51b815260206004820152602360248201527f45524332303a207472616e7366657220746f20746865207a65726f206164647260448201526265737360e81b60648201526084016103e1565b6001600160a01b0383166000908152602081905260409020548181101561070c5760405162461bcd60e51b815260206004820152602660248201527f45524332303a207472616e7366657220616d6f756e7420657863656564732062604482015265616c616e636560d01b60648201526084016103e1565b6001600160a01b03848116600081815260208181526040808320878703905593871680835291849020805487019055925185815290927fddf252ad1be2c89b69c2b068fc378daa952ba7f163c4a11628f55a4df523b3ef910160405180910390a36105c8565b6001600160a01b0382166107c85760405162461bcd60e51b815260206004820152601f60248201527f45524332303a206d696e7420746f20746865207a65726f20616464726573730060448201526064016103e1565b80600260008282546107da9190610991565b90915550506001600160a01b038216600081815260208181526040808320805486019055518481527fddf252ad1be2c89b69c2b068fc378daa952ba7f163c4a11628f55a4df523b3ef910160405180910390a35050565b60006020808352835180602085015260005b8181101561085f57858101830151858201604001528201610843565b506000604082860101526040601f19601f8301168501019250505092915050565b80356001600160a01b038116811461089757600080fd5b919050565b600080604083850312156108af57600080fd5b6108b883610880565b946020939093013593505050565b6000806000606084860312156108db57600080fd5b6108e484610880565b92506108f260208501610880565b9150604084013590509250925092565b60006020828403121561091457600080fd5b61091d82610880565b9392505050565b6000806040838503121561093757600080fd5b61094083610880565b915061094e60208401610880565b90509250929050565b600181811c9082168061096b57607f821691505b60208210810361098b57634e487b7160e01b600052602260045260246000fd5b50919050565b808201808211156102f057634e487b7160e01b600052601160045260246000fdfea2646970667358221220f2af710e11bdee3f52707cd38fb133e38352017856ea2f4308398b59fe802af764736f6c63430008180033","linkReferences":{}},"methodIdentifiers":{"DOMAIN_SEPARATOR()":"3644e515","PERMIT_TYPEHASH()":"30adf81f","allowance(address,address)":"dd62ed3e","approve(address,uint256)":"095ea7b3","balanceOf(address)":"70a08231","decimals()":"313ce567","decreaseAllowance(address,uint256)":"a457c2d7","increaseAllowance(address,uint256)":"39509351","mint(address,uint256)":"40c10f19","name()":"06fdde03","nonces(address)":"7ecebe00","symbol()":"95d89b41","totalSupply()":"18160ddd","transfer(address,uint256)":"a9059cbb","transferFrom(address,address,uint256)":"23b872dd"},"id":127}