{"abi":[{"type":"constructor","inputs":[{"name":"dec_","type":"uint256","internalType":"uint256"}],"stateMutability":"nonpayable"},{"type":"function","name":"DOMAIN_SEPARATOR","inputs":[],"outputs":[{"name":"","type":"bytes32","internalType":"bytes32"}],"stateMutability":"view"},{"type":"function","name":"PERMIT_TYPEHASH","inputs":[],"outputs":[{"name":"","type":"bytes32","internalType":"bytes32"}],"stateMutability":"view"},{"type":"function","name":"ZERO","inputs":[],"outputs":[{"name":"","type":"address","internalType":"address"}],"stateMutability":"view"},{"type":"function","name":"alice","inputs":[],"outputs":[{"name":"","type":"address","internalType":"address"}],"stateMutability":"view"},{"type":"function","name":"allowance","inputs":[{"name":"owner","type":"address","internalType":"address"},{"name":"spender","type":"address","internalType":"address"}],"outputs":[{"name":"","type":"uint256","internalType":"uint256"}],"stateMutability":"view"},{"type":"function","name":"approve","inputs":[{"name":"spender","type":"address","internalType":"address"},{"name":"amount","type":"uint256","internalType":"uint256"}],"outputs":[{"name":"","type":"bool","internalType":"bool"}],"stateMutability":"nonpayable"},{"type":"function","name":"balanceOf","inputs":[{"name":"account","type":"address","internalType":"address"}],"outputs":[{"name":"","type":"uint256","internalType":"uint256"}],"stateMutability":"view"},{"type":"function","name":"decimals","inputs":[],"outputs":[{"name":"","type":"uint8","internalType":"uint8"}],"stateMutability":"view"},{"type":"function","name":"decreaseAllowance","inputs":[{"name":"spender","type":"address","internalType":"address"},{"name":"subtractedValue","type":"uint256","internalType":"uint256"}],"outputs":[{"name":"","type":"bool","internalType":"bool"}],"stateMutability":"nonpayable"},{"type":"function","name":"foundry","inputs":[],"outputs":[{"name":"","type":"address","internalType":"address"}],"stateMutability":"view"},{"type":"function","name":"increaseAllowance","inputs":[{"name":"spender","type":"address","internalType":"address"},{"name":"addedValue","type":"uint256","internalType":"uint256"}],"outputs":[{"name":"","type":"bool","internalType":"bool"}],"stateMutability":"nonpayable"},{"type":"function","name":"name","inputs":[],"outputs":[{"name":"","type":"string","internalType":"string"}],"stateMutability":"view"},{"type":"function","name":"nonces","inputs":[{"name":"owner","type":"address","internalType":"address"}],"outputs":[{"name":"","type":"uint256","internalType":"uint256"}],"stateMutability":"view"},{"type":"function","name":"symbol","inputs":[],"outputs":[{"name":"","type":"string","internalType":"string"}],"stateMutability":"view"},{"type":"function","name":"totalSupply","inputs":[],"outputs":[{"name":"","type":"uint256","internalType":"uint256"}],"stateMutability":"view"},{"type":"function","name":"transfer","inputs":[{"name":"to","type":"address","internalType":"address"},{"name":"amount","type":"uint256","internalType":"uint256"}],"outputs":[{"name":"","type":"bool","internalType":"bool"}],"stateMutability":"nonpayable"},{"type":"function","name":"transferFrom","inputs":[{"name":"from","type":"address","internalType":"address"},{"name":"to","type":"address","internalType":"address"},{"name":"amount","type":"uint256","internalType":"uint256"}],"outputs":[{"name":"","type":"bool","internalType":"bool"}],"stateMutability":"nonpayable"},{"type":"event","name":"Approval","inputs":[{"name":"owner","type":"address","indexed":true,"internalType":"address"},{"name":"spender","type":"address","indexed":true,"internalType":"address"},{"name":"value","type":"uint256","indexed":false,"internalType":"uint256"}],"anonymous":false},{"type":"event","name":"Transfer","inputs":[{"name":"from","type":"address","indexed":true,"internalType":"address"},{"name":"to","type":"address","indexed":true,"internalType":"address"},{"name":"value","type":"uint256","indexed":false,"internalType":"uint256"}],"anonymous":false}],"bytecode":{"object":"0x6080604052600880546001600160a01b03199081167334a1d3fff3958843c43ad80f30b94c510645c31617909155600980549091167337cb1a23e763d2f975bff3b2b86cfa901f7b517e1790553480156200005957600080fd5b5060405162000e5838038062000e588339810160408190526200007c91620001ed565b604051806040016040528060048152602001634d6f636b60e01b815250604051806040016040528060048152602001634d4f434b60e01b8152508160039081620000c79190620002ab565b506004620000d68282620002ab565b50506006805460ff191660ff8416179055506009546200011b906001600160a01b03166200010683600a6200048c565b620001159062989680620004a1565b62000122565b50620004d1565b6001600160a01b0382166200017d5760405162461bcd60e51b815260206004820152601f60248201527f45524332303a206d696e7420746f20746865207a65726f206164647265737300604482015260640160405180910390fd5b8060026000828254620001919190620004bb565b90915550506001600160a01b038216600081815260208181526040808320805486019055518481527fddf252ad1be2c89b69c2b068fc378daa952ba7f163c4a11628f55a4df523b3ef910160405180910390a35050565b505050565b6000602082840312156200020057600080fd5b5051919050565b634e487b7160e01b600052604160045260246000fd5b600181811c908216806200023257607f821691505b6020821081036200025357634e487b7160e01b600052602260045260246000fd5b50919050565b601f821115620001e857600081815260208120601f850160051c81016020861015620002825750805b601f850160051c820191505b81811015620002a3578281556001016200028e565b505050505050565b81516001600160401b03811115620002c757620002c762000207565b620002df81620002d884546200021d565b8462000259565b602080601f831160018114620003175760008415620002fe5750858301515b600019600386901b1c1916600185901b178555620002a3565b600085815260208120601f198616915b82811015620003485788860151825594840194600190910190840162000327565b5085821015620003675787850151600019600388901b60f8161c191681555b5050505050600190811b01905550565b634e487b7160e01b600052601160045260246000fd5b600181815b80851115620003ce578160001904821115620003b257620003b262000377565b80851615620003c057918102915b93841c939080029062000392565b509250929050565b600082620003e75750600162000486565b81620003f65750600062000486565b81600181146200040f57600281146200041a576200043a565b600191505062000486565b60ff8411156200042e576200042e62000377565b50506001821b62000486565b5060208310610133831016604e8410600b84101617156200045f575081810a62000486565b6200046b83836200038d565b806000190482111562000482576200048262000377565b0290505b92915050565b60006200049a8383620003d6565b9392505050565b808202811582820484141762000486576200048662000377565b8082018082111562000486576200048662000377565b61097780620004e16000396000f3fe608060405234801561001057600080fd5b506004361061010b5760003560e01c806358fa63ca116100a257806395d89b411161007157806395d89b411461023d578063a457c2d714610245578063a9059cbb14610258578063dd62ed3e1461026b578063fb47e3a21461027e57600080fd5b806358fa63ca146101ce57806370a08231146101ee5780637cd27ca6146102175780637ecebe001461022a57600080fd5b806330adf81f116100de57806330adf81f14610176578063313ce5671461019d5780633644e515146101b257806339509351146101bb57600080fd5b806306fdde0314610110578063095ea7b31461012e57806318160ddd1461015157806323b872dd14610163575b600080fd5b610118610291565b60405161012591906107c8565b60405180910390f35b61014161013c366004610832565b610323565b6040519015158152602001610125565b6002545b604051908152602001610125565b61014161017136600461085c565b610346565b6101557f6e71edae12b1b97f4d1f60370fef10105fa2faae0126114a169c64845d6126c981565b60065460405160ff9091168152602001610125565b61015560075481565b6101416101c9366004610832565b61036a565b6101d6600081565b6040516001600160a01b039091168152602001610125565b6101556101fc366004610898565b6001600160a01b031660009081526020819052604090205490565b6008546101d6906001600160a01b031681565b610155610238366004610898565b610396565b6101186103b4565b610141610253366004610832565b6103c3565b610141610266366004610832565b610443565b6101556102793660046108b3565b610451565b6009546101d6906001600160a01b031681565b6060600380546102a0906108e6565b80601f01602080910402602001604051908101604052809291908181526020018280546102cc906108e6565b80156103195780601f106102ee57610100808354040283529160200191610319565b820191906000526020600020905b8154815290600101906020018083116102fc57829003601f168201915b5050505050905090565b60006001600160a01b0383161580159061033d5750600082115b90505b92915050565b600033610354858285610486565b61035f858585610500565b506001949350505050565b60003361038c81858561037d8383610451565b6103879190610920565b6106a4565b5060019392505050565b6001600160a01b038116600090815260056020526040812054610340565b6060600480546102a0906108e6565b600033816103d18286610451565b9050838110156104365760405162461bcd60e51b815260206004820152602560248201527f45524332303a2064656372656173656420616c6c6f77616e63652062656c6f77604482015264207a65726f60d81b60648201526084015b60405180910390fd5b61035f82868684036106a4565b60003361038c818585610500565b60006001600160a01b038316158061047057506001600160a01b038216155b61047c5760001961033d565b5060001992915050565b60006104928484610451565b905060001981146104fa57818110156104ed5760405162461bcd60e51b815260206004820152601d60248201527f45524332303a20696e73756666696369656e7420616c6c6f77616e6365000000604482015260640161042d565b6104fa84848484036106a4565b50505050565b6001600160a01b0383166105645760405162461bcd60e51b815260206004820152602560248201527f45524332303a207472616e736665722066726f6d20746865207a65726f206164604482015264647265737360d81b606482015260840161042d565b6001600160a01b0382166105c65760405162461bcd60e51b815260206004820152602360248201527f45524332303a207472616e7366657220746f20746865207a65726f206164647260448201526265737360e81b606482015260840161042d565b6001600160a01b0383166000908152602081905260409020548181101561063e5760405162461bcd60e51b815260206004820152602660248201527f45524332303a207472616e7366657220616d6f756e7420657863656564732062604482015265616c616e636560d01b606482015260840161042d565b6001600160a01b03848116600081815260208181526040808320878703905593871680835291849020805487019055925185815290927fddf252ad1be2c89b69c2b068fc378daa952ba7f163c4a11628f55a4df523b3ef910160405180910390a36104fa565b6001600160a01b0383166107065760405162461bcd60e51b8152602060048201526024808201527f45524332303a20617070726f76652066726f6d20746865207a65726f206164646044820152637265737360e01b606482015260840161042d565b6001600160a01b0382166107675760405162461bcd60e51b815260206004820152602260248201527f45524332303a20617070726f766520746f20746865207a65726f206164647265604482015261737360f01b606482015260840161042d565b6001600160a01b0383811660008181526001602090815260408083209487168084529482529182902085905590518481527f8c5be1e5ebec7d5bd14f71427d1e84f3dd0314c0f7b2291e5b200ac8c7c3b925910160405180910390a3505050565b600060208083528351808285015260005b818110156107f5578581018301518582016040015282016107d9565b506000604082860101526040601f19601f8301168501019250505092915050565b80356001600160a01b038116811461082d57600080fd5b919050565b6000806040838503121561084557600080fd5b61084e83610816565b946020939093013593505050565b60008060006060848603121561087157600080fd5b61087a84610816565b925061088860208501610816565b9150604084013590509250925092565b6000602082840312156108aa57600080fd5b61033d82610816565b600080604083850312156108c657600080fd5b6108cf83610816565b91506108dd60208401610816565b90509250929050565b600181811c908216806108fa57607f821691505b60208210810361091a57634e487b7160e01b600052602260045260246000fd5b50919050565b8082018082111561034057634e487b7160e01b600052601160045260246000fdfea2646970667358221220946e1a4ecaa47bf294886eccf9209225e07c68938ae15ed806c2d986b776332764736f6c63430008150033","linkReferences":{}},"methodIdentifiers":{"DOMAIN_SEPARATOR()":"3644e515","PERMIT_TYPEHASH()":"30adf81f","ZERO()":"58fa63ca","alice()":"fb47e3a2","allowance(address,address)":"dd62ed3e","approve(address,uint256)":"095ea7b3","balanceOf(address)":"70a08231","decimals()":"313ce567","decreaseAllowance(address,uint256)":"a457c2d7","foundry()":"7cd27ca6","increaseAllowance(address,uint256)":"39509351","name()":"06fdde03","nonces(address)":"7ecebe00","symbol()":"95d89b41","totalSupply()":"18160ddd","transfer(address,uint256)":"a9059cbb","transferFrom(address,address,uint256)":"23b872dd"},"id":131}