{"abi":[{"type":"constructor","inputs":[{"name":"dec_","type":"uint256","internalType":"uint256"}],"stateMutability":"nonpayable"},{"type":"function","name":"DOMAIN_SEPARATOR","inputs":[],"outputs":[{"name":"","type":"bytes32","internalType":"bytes32"}],"stateMutability":"view"},{"type":"function","name":"PERMIT_TYPEHASH","inputs":[],"outputs":[{"name":"","type":"bytes32","internalType":"bytes32"}],"stateMutability":"view"},{"type":"function","name":"alice","inputs":[],"outputs":[{"name":"","type":"address","internalType":"address"}],"stateMutability":"view"},{"type":"function","name":"allowance","inputs":[{"name":"owner","type":"address","internalType":"address"},{"name":"spender","type":"address","internalType":"address"}],"outputs":[{"name":"","type":"uint256","internalType":"uint256"}],"stateMutability":"view"},{"type":"function","name":"approve","inputs":[{"name":"spender","type":"address","internalType":"address"},{"name":"amount","type":"uint256","internalType":"uint256"}],"outputs":[{"name":"","type":"bool","internalType":"bool"}],"stateMutability":"nonpayable"},{"type":"function","name":"balanceOf","inputs":[{"name":"user","type":"address","internalType":"address"}],"outputs":[{"name":"","type":"uint256","internalType":"uint256"}],"stateMutability":"view"},{"type":"function","name":"decimals","inputs":[],"outputs":[{"name":"","type":"uint8","internalType":"uint8"}],"stateMutability":"view"},{"type":"function","name":"decreaseAllowance","inputs":[{"name":"spender","type":"address","internalType":"address"},{"name":"subtractedValue","type":"uint256","internalType":"uint256"}],"outputs":[{"name":"","type":"bool","internalType":"bool"}],"stateMutability":"nonpayable"},{"type":"function","name":"foundry","inputs":[],"outputs":[{"name":"","type":"address","internalType":"address"}],"stateMutability":"view"},{"type":"function","name":"increaseAllowance","inputs":[{"name":"spender","type":"address","internalType":"address"},{"name":"addedValue","type":"uint256","internalType":"uint256"}],"outputs":[{"name":"","type":"bool","internalType":"bool"}],"stateMutability":"nonpayable"},{"type":"function","name":"name","inputs":[],"outputs":[{"name":"","type":"string","internalType":"string"}],"stateMutability":"view"},{"type":"function","name":"nonces","inputs":[],"outputs":[{"name":"","type":"uint256","internalType":"uint256"}],"stateMutability":"view"},{"type":"function","name":"symbol","inputs":[],"outputs":[{"name":"","type":"string","internalType":"string"}],"stateMutability":"view"},{"type":"function","name":"totalSupply","inputs":[],"outputs":[{"name":"","type":"uint256","internalType":"uint256"}],"stateMutability":"view"},{"type":"function","name":"transfer","inputs":[{"name":"to","type":"address","internalType":"address"},{"name":"amount","type":"uint256","internalType":"uint256"}],"outputs":[{"name":"","type":"bool","internalType":"bool"}],"stateMutability":"nonpayable"},{"type":"function","name":"transferFrom","inputs":[{"name":"from","type":"address","internalType":"address"},{"name":"to","type":"address","internalType":"address"},{"name":"amount","type":"uint256","internalType":"uint256"}],"outputs":[{"name":"","type":"bool","internalType":"bool"}],"stateMutability":"nonpayable"},{"type":"event","name":"Approval","inputs":[{"name":"owner","type":"address","indexed":true,"internalType":"address"},{"name":"spender","type":"address","indexed":true,"internalType":"address"},{"name":"value","type":"uint256","indexed":false,"internalType":"uint256"}],"anonymous":false},{"type":"event","name":"Transfer","inputs":[{"name":"from","type":"address","indexed":true,"internalType":"address"},{"name":"to","type":"address","indexed":true,"internalType":"address"},{"name":"value","type":"uint256","indexed":false,"internalType":"uint256"}],"anonymous":false}],"bytecode":{"object":"0x6080604052600a80546001600160a01b03199081167334a1d3fff3958843c43ad80f30b94c510645c31617909155600b80549091167337cb1a23e763d2f975bff3b2b86cfa901f7b517e1790553480156200005957600080fd5b5060405162000d2d38038062000d2d8339810160408190526200007c916200010f565b604051806040016040528060048152602001634d6f636b60e01b815250604051806040016040528060048152602001634d4f434b60e01b8152508160039081620000c79190620001ce565b506004620000d68282620001ce565b50506005805460ff191660ff841617905550620000f581600a620003af565b62000105906305f5e100620003c4565b60075550620003de565b6000602082840312156200012257600080fd5b5051919050565b634e487b7160e01b600052604160045260246000fd5b600181811c908216806200015457607f821691505b6020821081036200017557634e487b7160e01b600052602260045260246000fd5b50919050565b601f821115620001c957600081815260208120601f850160051c81016020861015620001a45750805b601f850160051c820191505b81811015620001c557828155600101620001b0565b5050505b505050565b81516001600160401b03811115620001ea57620001ea62000129565b6200020281620001fb84546200013f565b846200017b565b602080601f8311600181146200023a5760008415620002215750858301515b600019600386901b1c1916600185901b178555620001c5565b600085815260208120601f198616915b828110156200026b578886015182559484019460019091019084016200024a565b50858210156200028a5787850151600019600388901b60f8161c191681555b5050505050600190811b01905550565b634e487b7160e01b600052601160045260246000fd5b600181815b80851115620002f1578160001904821115620002d557620002d56200029a565b80851615620002e357918102915b93841c9390800290620002b5565b509250929050565b6000826200030a57506001620003a9565b816200031957506000620003a9565b81600181146200033257600281146200033d576200035d565b6001915050620003a9565b60ff8411156200035157620003516200029a565b50506001821b620003a9565b5060208310610133831016604e8410600b841016171562000382575081810a620003a9565b6200038e8383620002b0565b8060001904821115620003a557620003a56200029a565b0290505b92915050565b6000620003bd8383620002f9565b9392505050565b8082028115828204841417620003a957620003a96200029a565b61093f80620003ee6000396000f3fe608060405234801561001057600080fd5b50600436106101005760003560e01c806370a0823111610097578063a457c2d711610066578063a457c2d7146101f4578063a9059cbb14610207578063dd62ed3e1461021a578063fb47e3a21461022d57600080fd5b806370a08231146101a55780637cd27ca6146101b857806393757526146101e357806395d89b41146101ec57600080fd5b806330adf81f116100d357806330adf81f1461016b578063313ce567146101745780633644e51514610189578063395093511461019257600080fd5b806306fdde0314610105578063095ea7b31461012357806318160ddd1461014657806323b872dd14610158575b600080fd5b61010d610240565b60405161011a9190610790565b60405180910390f35b6101366101313660046107fa565b6102d2565b604051901515815260200161011a565b6007545b60405190815260200161011a565b610136610166366004610824565b6102f5565b61014a60095481565b60055460405160ff909116815260200161011a565b61014a60085481565b6101366101a03660046107fa565b610319565b61014a6101b3366004610860565b610345565b600a546101cb906001600160a01b031681565b6040516001600160a01b03909116815260200161011a565b61014a60065481565b61010d610386565b6101366102023660046107fa565b610395565b6101366102153660046107fa565b610415565b61014a61022836600461087b565b610423565b600b546101cb906001600160a01b031681565b60606003805461024f906108ae565b80601f016020809104026020016040519081016040528092919081815260200182805461027b906108ae565b80156102c85780601f1061029d576101008083540402835291602001916102c8565b820191906000526020600020905b8154815290600101906020018083116102ab57829003601f168201915b5050505050905090565b60006001600160a01b038316158015906102ec5750600082115b90505b92915050565b60003361030385828561044e565b61030e8585856104c8565b506001949350505050565b60003361033b81858561032c8383610423565b61033691906108e8565b61066c565b5060019392505050565b600b546000906001600160a01b03838116911614801561036f5750600a546001600160a01b031633145b61037a57600061037d565b60015b60ff1692915050565b60606004805461024f906108ae565b600033816103a38286610423565b9050838110156104085760405162461bcd60e51b815260206004820152602560248201527f45524332303a2064656372656173656420616c6c6f77616e63652062656c6f77604482015264207a65726f60d81b60648201526084015b60405180910390fd5b61030e828686840361066c565b60003361033b8185856104c8565b6001600160a01b03918216600090815260016020908152604080832093909416825291909152205490565b600061045a8484610423565b905060001981146104c257818110156104b55760405162461bcd60e51b815260206004820152601d60248201527f45524332303a20696e73756666696369656e7420616c6c6f77616e636500000060448201526064016103ff565b6104c2848484840361066c565b50505050565b6001600160a01b03831661052c5760405162461bcd60e51b815260206004820152602560248201527f45524332303a207472616e736665722066726f6d20746865207a65726f206164604482015264647265737360d81b60648201526084016103ff565b6001600160a01b03821661058e5760405162461bcd60e51b815260206004820152602360248201527f45524332303a207472616e7366657220746f20746865207a65726f206164647260448201526265737360e81b60648201526084016103ff565b6001600160a01b038316600090815260208190526040902054818110156106065760405162461bcd60e51b815260206004820152602660248201527f45524332303a207472616e7366657220616d6f756e7420657863656564732062604482015265616c616e636560d01b60648201526084016103ff565b6001600160a01b03848116600081815260208181526040808320878703905593871680835291849020805487019055925185815290927fddf252ad1be2c89b69c2b068fc378daa952ba7f163c4a11628f55a4df523b3ef910160405180910390a36104c2565b6001600160a01b0383166106ce5760405162461bcd60e51b8152602060048201526024808201527f45524332303a20617070726f76652066726f6d20746865207a65726f206164646044820152637265737360e01b60648201526084016103ff565b6001600160a01b03821661072f5760405162461bcd60e51b815260206004820152602260248201527f45524332303a20617070726f766520746f20746865207a65726f206164647265604482015261737360f01b60648201526084016103ff565b6001600160a01b0383811660008181526001602090815260408083209487168084529482529182902085905590518481527f8c5be1e5ebec7d5bd14f71427d1e84f3dd0314c0f7b2291e5b200ac8c7c3b925910160405180910390a3505050565b600060208083528351808285015260005b818110156107bd578581018301518582016040015282016107a1565b506000604082860101526040601f19601f8301168501019250505092915050565b80356001600160a01b03811681146107f557600080fd5b919050565b6000806040838503121561080d57600080fd5b610816836107de565b946020939093013593505050565b60008060006060848603121561083957600080fd5b610842846107de565b9250610850602085016107de565b9150604084013590509250925092565b60006020828403121561087257600080fd5b6102ec826107de565b6000806040838503121561088e57600080fd5b610897836107de565b91506108a5602084016107de565b90509250929050565b600181811c908216806108c257607f821691505b6020821081036108e257634e487b7160e01b600052602260045260246000fd5b50919050565b808201808211156102ef57634e487b7160e01b600052601160045260246000fdfea264697066735822122023c1f62ba1069a286a5053143a59367b6b7db332d03e9682e6a6b43ab278be6564736f6c63430008150033","linkReferences":{}},"methodIdentifiers":{"DOMAIN_SEPARATOR()":"3644e515","PERMIT_TYPEHASH()":"30adf81f","alice()":"fb47e3a2","allowance(address,address)":"dd62ed3e","approve(address,uint256)":"095ea7b3","balanceOf(address)":"70a08231","decimals()":"313ce567","decreaseAllowance(address,uint256)":"a457c2d7","foundry()":"7cd27ca6","increaseAllowance(address,uint256)":"39509351","name()":"06fdde03","nonces()":"93757526","symbol()":"95d89b41","totalSupply()":"18160ddd","transfer(address,uint256)":"a9059cbb","transferFrom(address,address,uint256)":"23b872dd"},"id":130}