{"abi":[{"type":"constructor","inputs":[{"name":"dec_","type":"uint256","internalType":"uint256"}],"stateMutability":"nonpayable"},{"type":"function","name":"DOMAIN_SEPARATOR","inputs":[],"outputs":[{"name":"","type":"bytes32","internalType":"bytes32"}],"stateMutability":"view"},{"type":"function","name":"PERMIT_TYPEHASH","inputs":[],"outputs":[{"name":"","type":"bytes32","internalType":"bytes32"}],"stateMutability":"view"},{"type":"function","name":"alice","inputs":[],"outputs":[{"name":"","type":"address","internalType":"address"}],"stateMutability":"view"},{"type":"function","name":"allowance","inputs":[{"name":"owner","type":"address","internalType":"address"},{"name":"spender","type":"address","internalType":"address"}],"outputs":[{"name":"","type":"uint256","internalType":"uint256"}],"stateMutability":"view"},{"type":"function","name":"approve","inputs":[{"name":"spender","type":"address","internalType":"address"},{"name":"amount","type":"uint256","internalType":"uint256"}],"outputs":[{"name":"","type":"bool","internalType":"bool"}],"stateMutability":"nonpayable"},{"type":"function","name":"balanceOf","inputs":[{"name":"account","type":"address","internalType":"address"}],"outputs":[{"name":"","type":"uint256","internalType":"uint256"}],"stateMutability":"view"},{"type":"function","name":"decimals","inputs":[],"outputs":[{"name":"","type":"uint8","internalType":"uint8"}],"stateMutability":"view"},{"type":"function","name":"decreaseAllowance","inputs":[{"name":"spender","type":"address","internalType":"address"},{"name":"subtractedValue","type":"uint256","internalType":"uint256"}],"outputs":[{"name":"","type":"bool","internalType":"bool"}],"stateMutability":"nonpayable"},{"type":"function","name":"foundry","inputs":[],"outputs":[{"name":"","type":"address","internalType":"address"}],"stateMutability":"view"},{"type":"function","name":"increaseAllowance","inputs":[{"name":"spender","type":"address","internalType":"address"},{"name":"addedValue","type":"uint256","internalType":"uint256"}],"outputs":[{"name":"","type":"bool","internalType":"bool"}],"stateMutability":"nonpayable"},{"type":"function","name":"name","inputs":[],"outputs":[{"name":"","type":"string","internalType":"string"}],"stateMutability":"view"},{"type":"function","name":"nonces","inputs":[],"outputs":[{"name":"","type":"uint256","internalType":"uint256"}],"stateMutability":"view"},{"type":"function","name":"symbol","inputs":[],"outputs":[{"name":"","type":"string","internalType":"string"}],"stateMutability":"view"},{"type":"function","name":"totalSupply","inputs":[],"outputs":[{"name":"","type":"uint256","internalType":"uint256"}],"stateMutability":"view"},{"type":"function","name":"transfer","inputs":[{"name":"to","type":"address","internalType":"address"},{"name":"amount","type":"uint256","internalType":"uint256"}],"outputs":[{"name":"","type":"bool","internalType":"bool"}],"stateMutability":"nonpayable"},{"type":"function","name":"transferFrom","inputs":[{"name":"from","type":"address","internalType":"address"},{"name":"to","type":"address","internalType":"address"},{"name":"amount","type":"uint256","internalType":"uint256"}],"outputs":[{"name":"","type":"bool","internalType":"bool"}],"stateMutability":"nonpayable"},{"type":"event","name":"Approval","inputs":[{"name":"owner","type":"address","indexed":true,"internalType":"address"},{"name":"spender","type":"address","indexed":true,"internalType":"address"},{"name":"value","type":"uint256","indexed":false,"internalType":"uint256"}],"anonymous":false},{"type":"event","name":"Transfer","inputs":[{"name":"from","type":"address","indexed":true,"internalType":"address"},{"name":"to","type":"address","indexed":true,"internalType":"address"},{"name":"value","type":"uint256","indexed":false,"internalType":"uint256"}],"anonymous":false}],"bytecode":{"object":"0x6080604052600980546001600160a01b03199081167334a1d3fff3958843c43ad80f30b94c510645c31617909155600a80549091167337cb1a23e763d2f975bff3b2b86cfa901f7b517e1790553480156200005957600080fd5b5060405162000ded38038062000ded8339810160408190526200007c91620001f1565b604051806040016040528060048152602001634d6f636b60e01b815250604051806040016040528060048152602001634d4f434b60e01b8152508160039081620000c79190620002af565b506004620000d68282620002af565b50506005805460ff191660ff841617905550600a80546200011f916001600160a01b03909116906200010a90849062000490565b620001199062989680620004a5565b62000126565b50620004d5565b6001600160a01b038216620001815760405162461bcd60e51b815260206004820152601f60248201527f45524332303a206d696e7420746f20746865207a65726f206164647265737300604482015260640160405180910390fd5b8060026000828254620001959190620004bf565b90915550506001600160a01b038216600081815260208181526040808320805486019055518481527fddf252ad1be2c89b69c2b068fc378daa952ba7f163c4a11628f55a4df523b3ef910160405180910390a35050565b505050565b6000602082840312156200020457600080fd5b5051919050565b634e487b7160e01b600052604160045260246000fd5b600181811c908216806200023657607f821691505b6020821081036200025757634e487b7160e01b600052602260045260246000fd5b50919050565b601f821115620001ec57600081815260208120601f850160051c81016020861015620002865750805b601f850160051c820191505b81811015620002a75782815560010162000292565b505050505050565b81516001600160401b03811115620002cb57620002cb6200020b565b620002e381620002dc845462000221565b846200025d565b602080601f8311600181146200031b5760008415620003025750858301515b600019600386901b1c1916600185901b178555620002a7565b600085815260208120601f198616915b828110156200034c578886015182559484019460019091019084016200032b565b50858210156200036b5787850151600019600388901b60f8161c191681555b5050505050600190811b01905550565b634e487b7160e01b600052601160045260246000fd5b600181815b80851115620003d2578160001904821115620003b657620003b66200037b565b80851615620003c457918102915b93841c939080029062000396565b509250929050565b600082620003eb575060016200048a565b81620003fa575060006200048a565b81600181146200041357600281146200041e576200043e565b60019150506200048a565b60ff8411156200043257620004326200037b565b50506001821b6200048a565b5060208310610133831016604e8410600b841016171562000463575081810a6200048a565b6200046f838362000391565b80600019048211156200048657620004866200037b565b0290505b92915050565b60006200049e8383620003da565b9392505050565b80820281158282048414176200048a576200048a6200037b565b808201808211156200048a576200048a6200037b565b61090880620004e56000396000f3fe608060405234801561001057600080fd5b50600436106101005760003560e01c806370a0823111610097578063a457c2d711610066578063a457c2d71461020a578063a9059cbb1461021d578063dd62ed3e14610230578063fb47e3a21461024357600080fd5b806370a08231146101a55780637cd27ca6146101ce57806393757526146101f957806395d89b411461020257600080fd5b806330adf81f116100d357806330adf81f1461016b578063313ce567146101745780633644e51514610189578063395093511461019257600080fd5b806306fdde0314610105578063095ea7b31461012357806318160ddd1461014657806323b872dd14610158575b600080fd5b61010d610256565b60405161011a9190610752565b60405180910390f35b6101366101313660046107bc565b6102e8565b604051901515815260200161011a565b6002545b60405190815260200161011a565b6101366101663660046107e6565b610302565b61014a60085481565b60055460405160ff909116815260200161011a565b61014a60075481565b6101366101a03660046107bc565b610326565b61014a6101b3366004610822565b6001600160a01b031660009081526020819052604090205490565b6009546101e1906001600160a01b031681565b6040516001600160a01b03909116815260200161011a565b61014a60065481565b61010d610348565b6101366102183660046107bc565b610357565b61013661022b3660046107bc565b6103d7565b61014a61023e366004610844565b6103e5565b600a546101e1906001600160a01b031681565b60606003805461026590610877565b80601f016020809104026020016040519081016040528092919081815260200182805461029190610877565b80156102de5780601f106102b3576101008083540402835291602001916102de565b820191906000526020600020905b8154815290600101906020018083116102c157829003601f168201915b5050505050905090565b6000336102f6818585610410565b60019150505b92915050565b600033610310858285610534565b61031b8585856105ae565b506001949350505050565b6000336102f681858561033983836103e5565b61034391906108b1565b610410565b60606004805461026590610877565b6000338161036582866103e5565b9050838110156103ca5760405162461bcd60e51b815260206004820152602560248201527f45524332303a2064656372656173656420616c6c6f77616e63652062656c6f77604482015264207a65726f60d81b60648201526084015b60405180910390fd5b61031b8286868403610410565b6000336102f68185856105ae565b6001600160a01b03918216600090815260016020908152604080832093909416825291909152205490565b6001600160a01b0383166104725760405162461bcd60e51b8152602060048201526024808201527f45524332303a20617070726f76652066726f6d20746865207a65726f206164646044820152637265737360e01b60648201526084016103c1565b6001600160a01b0382166104d35760405162461bcd60e51b815260206004820152602260248201527f45524332303a20617070726f766520746f20746865207a65726f206164647265604482015261737360f01b60648201526084016103c1565b6001600160a01b0383811660008181526001602090815260408083209487168084529482529182902085905590518481527f8c5be1e5ebec7d5bd14f71427d1e84f3dd0314c0f7b2291e5b200ac8c7c3b925910160405180910390a3505050565b600061054084846103e5565b905060001981146105a8578181101561059b5760405162461bcd60e51b815260206004820152601d60248201527f45524332303a20696e73756666696369656e7420616c6c6f77616e636500000060448201526064016103c1565b6105a88484848403610410565b50505050565b6001600160a01b0383166106125760405162461bcd60e51b815260206004820152602560248201527f45524332303a207472616e736665722066726f6d20746865207a65726f206164604482015264647265737360d81b60648201526084016103c1565b6001600160a01b0382166106745760405162461bcd60e51b815260206004820152602360248201527f45524332303a207472616e7366657220746f20746865207a65726f206164647260448201526265737360e81b60648201526084016103c1565b6001600160a01b038316600090815260208190526040902054818110156106ec5760405162461bcd60e51b815260206004820152602660248201527f45524332303a207472616e7366657220616d6f756e7420657863656564732062604482015265616c616e636560d01b60648201526084016103c1565b6001600160a01b03848116600081815260208181526040808320878703905593871680835291849020805487019055925185815290927fddf252ad1be2c89b69c2b068fc378daa952ba7f163c4a11628f55a4df523b3ef910160405180910390a36105a8565b600060208083528351808285015260005b8181101561077f57858101830151858201604001528201610763565b506000604082860101526040601f19601f8301168501019250505092915050565b80356001600160a01b03811681146107b757600080fd5b919050565b600080604083850312156107cf57600080fd5b6107d8836107a0565b946020939093013593505050565b6000806000606084860312156107fb57600080fd5b610804846107a0565b9250610812602085016107a0565b9150604084013590509250925092565b60006020828403121561083457600080fd5b61083d826107a0565b9392505050565b6000806040838503121561085757600080fd5b610860836107a0565b915061086e602084016107a0565b90509250929050565b600181811c9082168061088b57607f821691505b6020821081036108ab57634e487b7160e01b600052602260045260246000fd5b50919050565b808201808211156102fc57634e487b7160e01b600052601160045260246000fdfea2646970667358221220d87198e156e42e3f10b21edf37122ef5b3ecc9007065af5e16b275bf175891fd64736f6c63430008150033","linkReferences":{}},"methodIdentifiers":{"DOMAIN_SEPARATOR()":"3644e515","PERMIT_TYPEHASH()":"30adf81f","alice()":"fb47e3a2","allowance(address,address)":"dd62ed3e","approve(address,uint256)":"095ea7b3","balanceOf(address)":"70a08231","decimals()":"313ce567","decreaseAllowance(address,uint256)":"a457c2d7","foundry()":"7cd27ca6","increaseAllowance(address,uint256)":"39509351","name()":"06fdde03","nonces()":"93757526","symbol()":"95d89b41","totalSupply()":"18160ddd","transfer(address,uint256)":"a9059cbb","transferFrom(address,address,uint256)":"23b872dd"},"id":130}