{"abi":[{"type":"constructor","inputs":[{"name":"dec_","type":"uint256","internalType":"uint256"}],"stateMutability":"nonpayable"},{"type":"function","name":"DOMAIN_SEPARATOR","inputs":[],"outputs":[{"name":"","type":"bytes32","internalType":"bytes32"}],"stateMutability":"view"},{"type":"function","name":"PERMIT_TYPEHASH","inputs":[],"outputs":[{"name":"","type":"bytes32","internalType":"bytes32"}],"stateMutability":"view"},{"type":"function","name":"alice","inputs":[],"outputs":[{"name":"","type":"address","internalType":"address"}],"stateMutability":"view"},{"type":"function","name":"approve","inputs":[{"name":"spender","type":"address","internalType":"address"},{"name":"amount","type":"uint256","internalType":"uint256"}],"outputs":[{"name":"","type":"bool","internalType":"bool"}],"stateMutability":"nonpayable"},{"type":"function","name":"balanceOf","inputs":[{"name":"user","type":"address","internalType":"address"}],"outputs":[{"name":"","type":"uint256","internalType":"uint256"}],"stateMutability":"nonpayable"},{"type":"function","name":"decimals","inputs":[],"outputs":[{"name":"","type":"uint256","internalType":"uint256"}],"stateMutability":"view"},{"type":"function","name":"foundry","inputs":[],"outputs":[{"name":"","type":"address","internalType":"address"}],"stateMutability":"view"},{"type":"function","name":"nonces","inputs":[],"outputs":[{"name":"","type":"uint256","internalType":"uint256"}],"stateMutability":"view"},{"type":"function","name":"totalSupply","inputs":[],"outputs":[{"name":"","type":"uint256","internalType":"uint256"}],"stateMutability":"view"}],"bytecode":{"object":"0x6080604052600580546001600160a01b03199081167334a1d3fff3958843c43ad80f30b94c510645c31617909155600680549091167337cb1a23e763d2f975bff3b2b86cfa901f7b517e17905534801561005857600080fd5b506040516104303803806104308339810160408190526100779161009d565b600081905561008781600a6101b2565b61009490620f42406101c5565b600255506101dc565b6000602082840312156100af57600080fd5b5051919050565b634e487b7160e01b600052601160045260246000fd5b600181815b808511156101075781600019048211156100ed576100ed6100b6565b808516156100fa57918102915b93841c93908002906100d1565b509250929050565b60008261011e575060016101ac565b8161012b575060006101ac565b8160018114610141576002811461014b57610167565b60019150506101ac565b60ff84111561015c5761015c6100b6565b50506001821b6101ac565b5060208310610133831016604e8410600b841016171561018a575081810a6101ac565b61019483836100cc565b80600019048211156101a8576101a86100b6565b0290505b92915050565b60006101be838361010f565b9392505050565b80820281158282048414176101ac576101ac6100b6565b610245806101eb6000396000f3fe608060405234801561001057600080fd5b50600436106100935760003560e01c80633644e515116100665780633644e515146100e957806370a08231146100f25780637cd27ca6146101055780639375752614610130578063fb47e3a21461013957600080fd5b8063095ea7b31461009857806318160ddd146100c057806330adf81f146100d7578063313ce567146100e0575b600080fd5b6100ab6100a63660046101ca565b61014c565b60405190151581526020015b60405180910390f35b6100c960025481565b6040519081526020016100b7565b6100c960045481565b6100c960005481565b6100c960035481565b6100c96101003660046101f4565b61016d565b600554610118906001600160a01b031681565b6040516001600160a01b0390911681526020016100b7565b6100c960015481565b600654610118906001600160a01b031681565b60006001600160a01b038316158015906101665750600082115b9392505050565b6006546000906001600160a01b03838116911614801561019757506005546001600160a01b031633145b6101a25760006101a5565b60015b60ff1692915050565b80356001600160a01b03811681146101c557600080fd5b919050565b600080604083850312156101dd57600080fd5b6101e6836101ae565b946020939093013593505050565b60006020828403121561020657600080fd5b610166826101ae56fea2646970667358221220990f2d4537426cd0d527c2c0dbf3c50932b882c1074a2b8f0ff5b5a1d2e5afb264736f6c63430008150033","linkReferences":{}},"methodIdentifiers":{"DOMAIN_SEPARATOR()":"3644e515","PERMIT_TYPEHASH()":"30adf81f","alice()":"fb47e3a2","approve(address,uint256)":"095ea7b3","balanceOf(address)":"70a08231","decimals()":"313ce567","foundry()":"7cd27ca6","nonces()":"93757526","totalSupply()":"18160ddd"},"id":130}