{"abi":[{"type":"constructor","inputs":[{"name":"dec_","type":"uint256","internalType":"uint256"}],"stateMutability":"nonpayable"},{"type":"function","name":"DOMAIN_SEPARATOR","inputs":[],"outputs":[{"name":"","type":"bytes32","internalType":"bytes32"}],"stateMutability":"view"},{"type":"function","name":"ONE","inputs":[],"outputs":[{"name":"","type":"address","internalType":"address"}],"stateMutability":"view"},{"type":"function","name":"OZ","inputs":[],"outputs":[{"name":"","type":"address","internalType":"address"}],"stateMutability":"view"},{"type":"function","name":"PERMIT_TYPEHASH","inputs":[],"outputs":[{"name":"","type":"bytes32","internalType":"bytes32"}],"stateMutability":"view"},{"type":"function","name":"alice","inputs":[],"outputs":[{"name":"","type":"address","internalType":"address"}],"stateMutability":"view"},{"type":"function","name":"allowance","inputs":[{"name":"owner","type":"address","internalType":"address"},{"name":"spender","type":"address","internalType":"address"}],"outputs":[{"name":"","type":"uint256","internalType":"uint256"}],"stateMutability":"view"},{"type":"function","name":"approve","inputs":[{"name":"spender","type":"address","internalType":"address"},{"name":"amount","type":"uint256","internalType":"uint256"}],"outputs":[{"name":"","type":"bool","internalType":"bool"}],"stateMutability":"nonpayable"},{"type":"function","name":"balanceOf","inputs":[{"name":"account","type":"address","internalType":"address"}],"outputs":[{"name":"","type":"uint256","internalType":"uint256"}],"stateMutability":"view"},{"type":"function","name":"decimals","inputs":[],"outputs":[{"name":"","type":"uint8","internalType":"uint8"}],"stateMutability":"view"},{"type":"function","name":"decreaseAllowance","inputs":[{"name":"spender","type":"address","internalType":"address"},{"name":"subtractedValue","type":"uint256","internalType":"uint256"}],"outputs":[{"name":"","type":"bool","internalType":"bool"}],"stateMutability":"nonpayable"},{"type":"function","name":"foundry","inputs":[],"outputs":[{"name":"","type":"address","internalType":"address"}],"stateMutability":"view"},{"type":"function","name":"increaseAllowance","inputs":[{"name":"spender","type":"address","internalType":"address"},{"name":"addedValue","type":"uint256","internalType":"uint256"}],"outputs":[{"name":"","type":"bool","internalType":"bool"}],"stateMutability":"nonpayable"},{"type":"function","name":"mockSwapRouterUni","inputs":[],"outputs":[{"name":"","type":"address","internalType":"address"}],"stateMutability":"view"},{"type":"function","name":"mockVault","inputs":[],"outputs":[{"name":"","type":"address","internalType":"address"}],"stateMutability":"view"},{"type":"function","name":"name","inputs":[],"outputs":[{"name":"","type":"string","internalType":"string"}],"stateMutability":"view"},{"type":"function","name":"nonces","inputs":[{"name":"owner","type":"address","internalType":"address"}],"outputs":[{"name":"","type":"uint256","internalType":"uint256"}],"stateMutability":"view"},{"type":"function","name":"symbol","inputs":[],"outputs":[{"name":"","type":"string","internalType":"string"}],"stateMutability":"view"},{"type":"function","name":"totalSupply","inputs":[],"outputs":[{"name":"","type":"uint256","internalType":"uint256"}],"stateMutability":"view"},{"type":"function","name":"transfer","inputs":[{"name":"to","type":"address","internalType":"address"},{"name":"amount","type":"uint256","internalType":"uint256"}],"outputs":[{"name":"","type":"bool","internalType":"bool"}],"stateMutability":"nonpayable"},{"type":"function","name":"transferFrom","inputs":[{"name":"from","type":"address","internalType":"address"},{"name":"to","type":"address","internalType":"address"},{"name":"amount","type":"uint256","internalType":"uint256"}],"outputs":[{"name":"","type":"bool","internalType":"bool"}],"stateMutability":"nonpayable"},{"type":"event","name":"Approval","inputs":[{"name":"owner","type":"address","indexed":true,"internalType":"address"},{"name":"spender","type":"address","indexed":true,"internalType":"address"},{"name":"value","type":"uint256","indexed":false,"internalType":"uint256"}],"anonymous":false},{"type":"event","name":"Transfer","inputs":[{"name":"from","type":"address","indexed":true,"internalType":"address"},{"name":"to","type":"address","indexed":true,"internalType":"address"},{"name":"value","type":"uint256","indexed":false,"internalType":"uint256"}],"anonymous":false}],"bytecode":{"object":"0x6080604052600880546001600160a01b03199081167334a1d3fff3958843c43ad80f30b94c510645c316179091556009805482167337cb1a23e763d2f975bff3b2b86cfa901f7b517e179055600a805482167326aff6f249fdf81492ca987e78f1146296c727b4908117909155600b805483169091179055600c8054909116737f1f3e02e4b20b47e5e6b3b54893f335d3a41dc1179055348015620000a357600080fd5b5060405162000f2238038062000f22833981016040819052620000c69162000273565b604051806040016040528060048152602001634d6f636b60e01b815250604051806040016040528060048152602001634d4f434b60e01b815250816003908162000111919062000331565b50600462000120828262000331565b50506006805460ff191660ff84161790555060095462000165906001600160a01b03166200015083600a62000512565b6200015f906298968062000527565b620001a8565b600b5462000183906001600160a01b03166200015083600a62000512565b600c54620001a1906001600160a01b03166200015083600a62000512565b5062000557565b6001600160a01b038216620002035760405162461bcd60e51b815260206004820152601f60248201527f45524332303a206d696e7420746f20746865207a65726f206164647265737300604482015260640160405180910390fd5b806002600082825462000217919062000541565b90915550506001600160a01b038216600081815260208181526040808320805486019055518481527fddf252ad1be2c89b69c2b068fc378daa952ba7f163c4a11628f55a4df523b3ef910160405180910390a35050565b505050565b6000602082840312156200028657600080fd5b5051919050565b634e487b7160e01b600052604160045260246000fd5b600181811c90821680620002b857607f821691505b602082108103620002d957634e487b7160e01b600052602260045260246000fd5b50919050565b601f8211156200026e57600081815260208120601f850160051c81016020861015620003085750805b601f850160051c820191505b81811015620003295782815560010162000314565b505050505050565b81516001600160401b038111156200034d576200034d6200028d565b62000365816200035e8454620002a3565b84620002df565b602080601f8311600181146200039d5760008415620003845750858301515b600019600386901b1c1916600185901b17855562000329565b600085815260208120601f198616915b82811015620003ce57888601518255948401946001909101908401620003ad565b5085821015620003ed5787850151600019600388901b60f8161c191681555b5050505050600190811b01905550565b634e487b7160e01b600052601160045260246000fd5b600181815b8085111562000454578160001904821115620004385762000438620003fd565b808516156200044657918102915b93841c939080029062000418565b509250929050565b6000826200046d575060016200050c565b816200047c575060006200050c565b8160018114620004955760028114620004a057620004c0565b60019150506200050c565b60ff841115620004b457620004b4620003fd565b50506001821b6200050c565b5060208310610133831016604e8410600b8410161715620004e5575081810a6200050c565b620004f1838362000413565b8060001904821115620005085762000508620003fd565b0290505b92915050565b60006200052083836200045c565b9392505050565b80820281158282048414176200050c576200050c620003fd565b808201808211156200050c576200050c620003fd565b6109bb80620005676000396000f3fe608060405234801561001057600080fd5b506004361061012c5760003560e01c806370a08231116100ad578063a457c2d711610071578063a457c2d714610297578063a9059cbb146102aa578063c2ee3a08146102bd578063dd62ed3e146102c5578063fb47e3a2146102d857600080fd5b806370a082311461022d5780637cd27ca6146102565780637e6e6ffd146102695780637ecebe001461027c57806395d89b411461028f57600080fd5b8063313ce567116100f4578063313ce567146101be5780633644e515146101d357806339509351146101dc57806340ab817e146101ef57806341c8bcc31461021a57600080fd5b806306fdde0314610131578063095ea7b31461014f57806318160ddd1461017257806323b872dd1461018457806330adf81f14610197575b600080fd5b6101396102eb565b6040516101469190610805565b60405180910390f35b61016261015d36600461086f565b61037d565b6040519015158152602001610146565b6002545b604051908152602001610146565b610162610192366004610899565b610397565b6101767f6e71edae12b1b97f4d1f60370fef10105fa2faae0126114a169c64845d6126c981565b60065460405160ff9091168152602001610146565b61017660075481565b6101626101ea36600461086f565b6103bb565b600a54610202906001600160a01b031681565b6040516001600160a01b039091168152602001610146565b600b54610202906001600160a01b031681565b61017661023b3660046108d5565b6001600160a01b031660009081526020819052604090205490565b600854610202906001600160a01b031681565b600c54610202906001600160a01b031681565b61017661028a3660046108d5565b6103dd565b6101396103fb565b6101626102a536600461086f565b61040a565b6101626102b836600461086f565b61048a565b610202600181565b6101766102d33660046108f7565b610498565b600954610202906001600160a01b031681565b6060600380546102fa9061092a565b80601f01602080910402602001604051908101604052809291908181526020018280546103269061092a565b80156103735780601f1061034857610100808354040283529160200191610373565b820191906000526020600020905b81548152906001019060200180831161035657829003601f168201915b5050505050905090565b60003361038b8185856104c3565b60019150505b92915050565b6000336103a58582856105e7565b6103b0858585610661565b506001949350505050565b60003361038b8185856103ce8383610498565b6103d89190610964565b6104c3565b6001600160a01b038116600090815260056020526040812054610391565b6060600480546102fa9061092a565b600033816104188286610498565b90508381101561047d5760405162461bcd60e51b815260206004820152602560248201527f45524332303a2064656372656173656420616c6c6f77616e63652062656c6f77604482015264207a65726f60d81b60648201526084015b60405180910390fd5b6103b082868684036104c3565b60003361038b818585610661565b6001600160a01b03918216600090815260016020908152604080832093909416825291909152205490565b6001600160a01b0383166105255760405162461bcd60e51b8152602060048201526024808201527f45524332303a20617070726f76652066726f6d20746865207a65726f206164646044820152637265737360e01b6064820152608401610474565b6001600160a01b0382166105865760405162461bcd60e51b815260206004820152602260248201527f45524332303a20617070726f766520746f20746865207a65726f206164647265604482015261737360f01b6064820152608401610474565b6001600160a01b0383811660008181526001602090815260408083209487168084529482529182902085905590518481527f8c5be1e5ebec7d5bd14f71427d1e84f3dd0314c0f7b2291e5b200ac8c7c3b925910160405180910390a3505050565b60006105f38484610498565b9050600019811461065b578181101561064e5760405162461bcd60e51b815260206004820152601d60248201527f45524332303a20696e73756666696369656e7420616c6c6f77616e63650000006044820152606401610474565b61065b84848484036104c3565b50505050565b6001600160a01b0383166106c55760405162461bcd60e51b815260206004820152602560248201527f45524332303a207472616e736665722066726f6d20746865207a65726f206164604482015264647265737360d81b6064820152608401610474565b6001600160a01b0382166107275760405162461bcd60e51b815260206004820152602360248201527f45524332303a207472616e7366657220746f20746865207a65726f206164647260448201526265737360e81b6064820152608401610474565b6001600160a01b0383166000908152602081905260409020548181101561079f5760405162461bcd60e51b815260206004820152602660248201527f45524332303a207472616e7366657220616d6f756e7420657863656564732062604482015265616c616e636560d01b6064820152608401610474565b6001600160a01b03848116600081815260208181526040808320878703905593871680835291849020805487019055925185815290927fddf252ad1be2c89b69c2b068fc378daa952ba7f163c4a11628f55a4df523b3ef910160405180910390a361065b565b600060208083528351808285015260005b8181101561083257858101830151858201604001528201610816565b506000604082860101526040601f19601f8301168501019250505092915050565b80356001600160a01b038116811461086a57600080fd5b919050565b6000806040838503121561088257600080fd5b61088b83610853565b946020939093013593505050565b6000806000606084860312156108ae57600080fd5b6108b784610853565b92506108c560208501610853565b9150604084013590509250925092565b6000602082840312156108e757600080fd5b6108f082610853565b9392505050565b6000806040838503121561090a57600080fd5b61091383610853565b915061092160208401610853565b90509250929050565b600181811c9082168061093e57607f821691505b60208210810361095e57634e487b7160e01b600052602260045260246000fd5b50919050565b8082018082111561039157634e487b7160e01b600052601160045260246000fdfea26469706673582212201e9bae8fc7f665011e6beaadb73b380ceebea4b98fb74db70503676a3467c4d564736f6c63430008150033","linkReferences":{}},"methodIdentifiers":{"DOMAIN_SEPARATOR()":"3644e515","ONE()":"c2ee3a08","OZ()":"41c8bcc3","PERMIT_TYPEHASH()":"30adf81f","alice()":"fb47e3a2","allowance(address,address)":"dd62ed3e","approve(address,uint256)":"095ea7b3","balanceOf(address)":"70a08231","decimals()":"313ce567","decreaseAllowance(address,uint256)":"a457c2d7","foundry()":"7cd27ca6","increaseAllowance(address,uint256)":"39509351","mockSwapRouterUni()":"40ab817e","mockVault()":"7e6e6ffd","name()":"06fdde03","nonces(address)":"7ecebe00","symbol()":"95d89b41","totalSupply()":"18160ddd","transfer(address,uint256)":"a9059cbb","transferFrom(address,address,uint256)":"23b872dd"},"id":132}