{"abi":[{"type":"constructor","inputs":[{"name":"_contractOwner","type":"address","internalType":"address"},{"name":"_diamondCutFacet","type":"address","internalType":"address"}],"stateMutability":"payable"},{"type":"fallback","stateMutability":"payable"},{"type":"receive","stateMutability":"payable"},{"type":"function","name":"isPaused","inputs":[{"name":"contract_","type":"address","internalType":"address"}],"outputs":[],"stateMutability":"view"},{"type":"event","name":"DiamondCut","inputs":[{"name":"_diamondCut","type":"tuple[]","indexed":false,"internalType":"struct IDiamondCut.FacetCut[]","components":[{"name":"facetAddress","type":"address","internalType":"address"},{"name":"action","type":"uint8","internalType":"enum IDiamondCut.FacetCutAction"},{"name":"functionSelectors","type":"bytes4[]","internalType":"bytes4[]"}]},{"name":"_init","type":"address","indexed":false,"internalType":"address"},{"name":"_calldata","type":"bytes","indexed":false,"internalType":"bytes"}],"anonymous":false},{"type":"event","name":"OwnershipTransferred","inputs":[{"name":"previousOwner","type":"address","indexed":true,"internalType":"address"},{"name":"newOwner","type":"address","indexed":true,"internalType":"address"}],"anonymous":false},{"type":"error","name":"InitializationFunctionReverted","inputs":[{"name":"_initializationContractAddress","type":"address","internalType":"address"},{"name":"_calldata","type":"bytes","internalType":"bytes"}]},{"type":"error","name":"OZError27","inputs":[{"name":"index","type":"uint256","internalType":"uint256"}]}],"bytecode":{"object":"0x60806040526040516200154338038062001543833981016040819052620000269162000fa9565b62000031826200013e565b6040805160018082528183019092525f91816020015b60408051606080820183525f808352602083015291810191909152815260200190600190039081620000475750506040805160018082528183019092529192505f919060208083019080368337019050509050631f931c1c60e01b815f81518110620000b757620000b762000fdf565b6001600160e01b031990921660209283029190910182015260408051606081019091526001600160a01b03851681529081015f815260200182815250825f8151811062000108576200010862000fdf565b602002602001018190525062000134825f60405180602001604052805f815250620001c060201b60201c565b5050505062001236565b7fc8fcad8db84d3cc18b4c41d551ea0ee66dd599cde068d998e57d5e09332c132080546001600160a01b031981166001600160a01b038481169182179093556040515f8051602062001497833981519152939092169182907f8be0079c531659141344cd1fd0a4f28419497f9722a3daafe3b4186f6b6457e0905f90a3505050565b5f5b8351811015620003ba575f848281518110620001e257620001e262000fdf565b60200260200101516020015190505f600281111562000205576200020562000ff3565b8160028111156200021a576200021a62000ff3565b0362000277576200027185838151811062000239576200023962000fdf565b60200260200101515f015186848151811062000259576200025962000fdf565b6020026020010151604001516200040960201b60201c565b620003b0565b60018160028111156200028e576200028e62000ff3565b03620002e55762000271858381518110620002ad57620002ad62000fdf565b60200260200101515f0151868481518110620002cd57620002cd62000fdf565b6020026020010151604001516200068460201b60201c565b6002816002811115620002fc57620002fc62000ff3565b036200035357620002718583815181106200031b576200031b62000fdf565b60200260200101515f01518684815181106200033b576200033b62000fdf565b6020026020010151604001516200090a60201b60201c565b60405162461bcd60e51b815260206004820152602760248201527f4c69624469616d6f6e644375743a20496e636f727265637420466163657443756044820152663a20b1ba34b7b760c91b60648201526084015b60405180910390fd5b50600101620001c2565b507f8faa70878671ccd212d20771b795c50af8fd3ff6cf27f4bde57e5d4de0aeb673838383604051620003f09392919062001058565b60405180910390a162000404828262000a5d565b505050565b5f8151116200045d5760405162461bcd60e51b815260206004820152602b60248201525f805160206200152383398151915260448201526a1858d95d081d1bc818dd5d60aa1b6064820152608401620003a7565b5f80516020620014978339815191526001600160a01b038316620004c75760405162461bcd60e51b815260206004820152602c60248201525f80516020620014df83398151915260448201526b65206164647265737328302960a01b6064820152608401620003a7565b6001600160a01b0383165f908152600182016020526040812054906001600160601b0382169003620004ff57620004ff828562000b2b565b5f5b83518110156200067d575f84828151811062000521576200052162000fdf565b6020908102919091018101516001600160e01b031981165f908152918690526040909120549091506001600160a01b03168015620005c85760405162461bcd60e51b815260206004820152603560248201527f4c69624469616d6f6e644375743a2043616e2774206164642066756e6374696f60448201527f6e207468617420616c72656164792065786973747300000000000000000000006064820152608401620003a7565b6001600160e01b031982165f8181526020878152604080832080546001600160a01b03908116600160a01b6001600160601b038c16021782558c168085526001808c0185529285208054938401815585528385206008840401805463ffffffff60079095166004026101000a948502191660e08a901c94909402939093179092559390925287905281546001600160a01b031916179055836200066b8162001171565b94505060019092019150620005019050565b5050505050565b5f815111620006d85760405162461bcd60e51b815260206004820152602b60248201525f805160206200152383398151915260448201526a1858d95d081d1bc818dd5d60aa1b6064820152608401620003a7565b5f80516020620014978339815191526001600160a01b038316620007425760405162461bcd60e51b815260206004820152602c60248201525f80516020620014df83398151915260448201526b65206164647265737328302960a01b6064820152608401620003a7565b6001600160a01b0383165f908152600182016020526040812054906001600160601b03821690036200077a576200077a828562000b2b565b5f5b83518110156200067d575f8482815181106200079c576200079c62000fdf565b6020908102919091018101516001600160e01b031981165f908152918690526040909120549091506001600160a01b039081169087168103620008485760405162461bcd60e51b815260206004820152603860248201527f4c69624469616d6f6e644375743a2043616e2774207265706c6163652066756e60448201527f6374696f6e20776974682073616d652066756e6374696f6e00000000000000006064820152608401620003a7565b6200085585828462000b97565b6001600160e01b031982165f8181526020878152604080832080546001600160a01b03908116600160a01b6001600160601b038c16021782558c168085526001808c0185529285208054938401815585528385206008840401805463ffffffff60079095166004026101000a948502191660e08a901c94909402939093179092559390925287905281546001600160a01b03191617905583620008f88162001171565b945050600190920191506200077c9050565b5f8151116200095e5760405162461bcd60e51b815260206004820152602b60248201525f805160206200152383398151915260448201526a1858d95d081d1bc818dd5d60aa1b6064820152608401620003a7565b5f80516020620014978339815191526001600160a01b03831615620009ec5760405162461bcd60e51b815260206004820152603660248201527f4c69624469616d6f6e644375743a2052656d6f7665206661636574206164647260448201527f657373206d7573742062652061646472657373283029000000000000000000006064820152608401620003a7565b5f5b825181101562000a57575f83828151811062000a0e5762000a0e62000fdf565b6020908102919091018101516001600160e01b031981165f908152918590526040909120549091506001600160a01b031662000a4c84828462000b97565b5050600101620009ee565b50505050565b6001600160a01b03821662000a70575050565b62000a9582604051806060016040528060288152602001620014b76028913962000f69565b5f80836001600160a01b03168360405162000ab19190620011a1565b5f60405180830381855af49150503d805f811462000aeb576040519150601f19603f3d011682016040523d82523d5f602084013e62000af0565b606091505b50915091508162000a575780511562000b0c5780518082602001fd5b838360405163192105d760e01b8152600401620003a7929190620011be565b62000b5081604051806060016040528060248152602001620014ff6024913962000f69565b6002820180546001600160a01b039092165f8181526001948501602090815260408220860185905594840183559182529290200180546001600160a01b0319169091179055565b6001600160a01b03821662000c155760405162461bcd60e51b815260206004820152603760248201527f4c69624469616d6f6e644375743a2043616e27742072656d6f76652066756e6360448201527f74696f6e207468617420646f65736e27742065786973740000000000000000006064820152608401620003a7565b306001600160a01b0383160362000c865760405162461bcd60e51b815260206004820152602e60248201527f4c69624469616d6f6e644375743a2043616e27742072656d6f766520696d6d7560448201526d3a30b1363290333ab731ba34b7b760911b6064820152608401620003a7565b6001600160e01b031981165f90815260208481526040808320546001600160a01b0386168452600180880190935290832054600160a01b9091046001600160601b0316929162000cd691620011eb565b905080821462000dcc576001600160a01b0384165f908152600186016020526040812080548390811062000d0e5762000d0e62000fdf565b5f91825260208083206008830401546001600160a01b038916845260018a019091526040909220805460079092166004026101000a90920460e01b92508291908590811062000d615762000d6162000fdf565b5f91825260208083206008830401805463ffffffff60079094166004026101000a938402191660e09590951c929092029390931790556001600160e01b03199290921682528690526040902080546001600160a01b0316600160a01b6001600160601b038516021790555b6001600160a01b0384165f908152600186016020526040902080548062000df75762000df762001207565b5f828152602080822060085f1990940193840401805463ffffffff600460078716026101000a0219169055919092556001600160e01b031985168252869052604081208190558190036200067d5760028501545f9062000e5a90600190620011eb565b6001600160a01b0386165f90815260018089016020526040909120015490915080821462000f0c575f87600201838154811062000e9b5762000e9b62000fdf565b5f918252602090912001546002890180546001600160a01b03909216925082918490811062000ece5762000ece62000fdf565b5f91825260208083209190910180546001600160a01b0319166001600160a01b03948516179055929091168152600189810190925260409020018190555b8660020180548062000f225762000f2262001207565b5f828152602080822083015f1990810180546001600160a01b03191690559092019092556001600160a01b0388168252600189810190915260408220015550505050505050565b813b818162000a575760405162461bcd60e51b8152600401620003a791906200121b565b80516001600160a01b038116811462000fa4575f80fd5b919050565b5f806040838503121562000fbb575f80fd5b62000fc68362000f8d565b915062000fd66020840162000f8d565b90509250929050565b634e487b7160e01b5f52603260045260245ffd5b634e487b7160e01b5f52602160045260245ffd5b5f5b838110156200102357818101518382015260200162001009565b50505f910152565b5f81518084526200104481602086016020860162001007565b601f01601f19169290920160200192915050565b5f6060808301606084528087518083526080925060808601915060808160051b8701016020808b015f5b848110156200112b57898403607f19018652815180516001600160a01b03168552838101518986019060038110620010c857634e487b7160e01b5f52602160045260245ffd5b868601526040918201519186018a9052815190819052908401905f90898701905b80831015620011155783516001600160e01b0319168252928601926001929092019190860190620010e9565b5097850197955050509082019060010162001082565b50506001600160a01b038a169088015286810360408801526200114f81896200102b565b9a9950505050505050505050565b634e487b7160e01b5f52601160045260245ffd5b5f6001600160601b038281166002600160601b031981016200119757620011976200115d565b6001019392505050565b5f8251620011b481846020870162001007565b9190910192915050565b6001600160a01b03831681526040602082018190525f90620011e3908301846200102b565b949350505050565b818103818111156200120157620012016200115d565b92915050565b634e487b7160e01b5f52603160045260245ffd5b602081525f6200122f60208301846200102b565b9392505050565b61025380620012445f395ff3fe608060405260043610610021575f3560e01c80635b14f183146100f257610028565b3661002857005b5f80356001600160e01b03191681527fc8fcad8db84d3cc18b4c41d551ea0ee66dd599cde068d998e57d5e09332c131c602081905260409091205481906001600160a01b03166100778161010c565b6001600160a01b0381166100d25760405162461bcd60e51b815260206004820181905260248201527f4469616d6f6e643a2046756e6374696f6e20646f6573206e6f7420657869737460448201526064015b60405180910390fd5b365f80375f80365f845af43d5f803e8080156100ec573d5ff35b3d5ffd5b005b3480156100fd575f80fd5b506100f061010c3660046101f0565b602a5460ff16156101ed575f805260276020527f552d06d8e69b1fc894b5bb152d5c34ccb2ea2834fd646ff017b1562d77bdb85a54600216156101ed575f805260276020527f552d06d8e69b1fc894b5bb152d5c34ccb2ea2834fd646ff017b1562d77bdb85a5460041615610197576040516351f3013160e01b8152600260048201526024016100c9565b6001600160a01b0381165f90815260296020908152604080832054600881901c8452602790925290912054600160ff83161b16156101eb576040516351f3013160e01b8152600481018290526024016100c9565b505b50565b5f60208284031215610200575f80fd5b81356001600160a01b0381168114610216575f80fd5b939250505056fea2646970667358221220a32be7eaa53ac451e053fe56d9be80815e6334eaf67f64c825bbd0fa35e9f9b264736f6c63430008180033c8fcad8db84d3cc18b4c41d551ea0ee66dd599cde068d998e57d5e09332c131c4c69624469616d6f6e644375743a205f696e6974206164647265737320686173206e6f20636f64654c69624469616d6f6e644375743a204164642066616365742063616e277420624c69624469616d6f6e644375743a204e657720666163657420686173206e6f20636f64654c69624469616d6f6e644375743a204e6f2073656c6563746f727320696e2066","linkReferences":{}},"methodIdentifiers":{"isPaused(address)":"5b14f183"},"id":1}