{
  "abi": [
    {
      "inputs": [
        {
          "internalType": "address",
          "name": "_contractOwner",
          "type": "address"
        },
        {
          "internalType": "address",
          "name": "_diamondCutFacet",
          "type": "address"
        }
      ],
      "stateMutability": "payable",
      "type": "constructor"
    },
    {
      "inputs": [
        {
          "internalType": "address",
          "name": "_initializationContractAddress",
          "type": "address"
        },
        {
          "internalType": "bytes",
          "name": "_calldata",
          "type": "bytes"
        }
      ],
      "name": "InitializationFunctionReverted",
      "type": "error"
    },
    {
      "inputs": [
        {
          "internalType": "uint256",
          "name": "index",
          "type": "uint256"
        }
      ],
      "name": "OZError27",
      "type": "error"
    },
    {
      "anonymous": false,
      "inputs": [
        {
          "components": [
            {
              "internalType": "address",
              "name": "facetAddress",
              "type": "address"
            },
            {
              "internalType": "enum IDiamondCut.FacetCutAction",
              "name": "action",
              "type": "uint8"
            },
            {
              "internalType": "bytes4[]",
              "name": "functionSelectors",
              "type": "bytes4[]"
            }
          ],
          "indexed": false,
          "internalType": "struct IDiamondCut.FacetCut[]",
          "name": "_diamondCut",
          "type": "tuple[]"
        },
        {
          "indexed": false,
          "internalType": "address",
          "name": "_init",
          "type": "address"
        },
        {
          "indexed": false,
          "internalType": "bytes",
          "name": "_calldata",
          "type": "bytes"
        }
      ],
      "name": "DiamondCut",
      "type": "event"
    },
    {
      "anonymous": false,
      "inputs": [
        {
          "indexed": true,
          "internalType": "address",
          "name": "previousOwner",
          "type": "address"
        },
        {
          "indexed": true,
          "internalType": "address",
          "name": "newOwner",
          "type": "address"
        }
      ],
      "name": "OwnershipTransferred",
      "type": "event"
    },
    {
      "stateMutability": "payable",
      "type": "fallback"
    },
    {
      "inputs": [
        {
          "internalType": "address",
          "name": "contract_",
          "type": "address"
        }
      ],
      "name": "isPaused",
      "outputs": [],
      "stateMutability": "view",
      "type": "function"
    },
    {
      "stateMutability": "payable",
      "type": "receive"
    }
  ],
  "bytecode": {
    "object": "0x6080604052604051620015ea380380620015ea833981016040819052620000269162001010565b620000318262000146565b604080516001808252818301909252600091816020015b60408051606080820183526000808352602083015291810191909152815260200190600190039081620000485750506040805160018082528183019092529192506000919060208083019080368337019050509050631f931c1c60e01b81600081518110620000bb57620000bb62001048565b6001600160e01b031990921660209283029190910182015260408051606081019091526001600160a01b03851681529081016000815260200182815250826000815181106200010e576200010e62001048565b60200260200101819052506200013c82600060405180602001604052806000815250620001ca60201b60201c565b50505050620012cc565b7fc8fcad8db84d3cc18b4c41d551ea0ee66dd599cde068d998e57d5e09332c132080546001600160a01b031981166001600160a01b038481169182179093556040516000805160206200153e833981519152939092169182907f8be0079c531659141344cd1fd0a4f28419497f9722a3daafe3b4186f6b6457e090600090a3505050565b60005b8351811015620003d6576000848281518110620001ee57620001ee62001048565b6020026020010151602001519050600060028111156200021257620002126200105e565b8160028111156200022757620002276200105e565b0362000285576200027f85838151811062000246576200024662001048565b60200260200101516000015186848151811062000267576200026762001048565b6020026020010151604001516200042560201b60201c565b620003c0565b60018160028111156200029c576200029c6200105e565b03620002f4576200027f858381518110620002bb57620002bb62001048565b602002602001015160000151868481518110620002dc57620002dc62001048565b602002602001015160400151620006b260201b60201c565b60028160028111156200030b576200030b6200105e565b0362000363576200027f8583815181106200032a576200032a62001048565b6020026020010151600001518684815181106200034b576200034b62001048565b6020026020010151604001516200094a60201b60201c565b60405162461bcd60e51b815260206004820152602760248201527f4c69624469616d6f6e644375743a20496e636f727265637420466163657443756044820152663a20b1ba34b7b760c91b60648201526084015b60405180910390fd5b5080620003cd816200108a565b915050620001cd565b507f8faa70878671ccd212d20771b795c50af8fd3ff6cf27f4bde57e5d4de0aeb6738383836040516200040c93929190620010fa565b60405180910390a162000420828262000ab0565b505050565b60008151116200047b5760405162461bcd60e51b815260206004820152602b6024820152600080516020620015ca83398151915260448201526a1858d95d081d1bc818dd5d60aa1b6064820152608401620003b7565b6000805160206200153e8339815191526001600160a01b038316620004e75760405162461bcd60e51b815260206004820152602c60248201526000805160206200158683398151915260448201526b65206164647265737328302960a01b6064820152608401620003b7565b6001600160a01b0383166000908152600182016020526040812054906001600160601b0382169003620005205762000520828562000b82565b60005b8351811015620006ab57600084828151811062000544576200054462001048565b6020908102919091018101516001600160e01b031981166000908152918690526040909120549091506001600160a01b03168015620005ec5760405162461bcd60e51b815260206004820152603560248201527f4c69624469616d6f6e644375743a2043616e2774206164642066756e6374696f60448201527f6e207468617420616c72656164792065786973747300000000000000000000006064820152608401620003b7565b6001600160e01b0319821660008181526020878152604080832080546001600160a01b03908116600160a01b6001600160601b038c16021782558c168085526001808c0185529285208054938401815585528385206008840401805463ffffffff60079095166004026101000a948502191660e08a901c94909402939093179092559390925287905281546001600160a01b03191617905583620006908162001201565b94505050508080620006a2906200108a565b91505062000523565b5050505050565b6000815111620007085760405162461bcd60e51b815260206004820152602b6024820152600080516020620015ca83398151915260448201526a1858d95d081d1bc818dd5d60aa1b6064820152608401620003b7565b6000805160206200153e8339815191526001600160a01b038316620007745760405162461bcd60e51b815260206004820152602c60248201526000805160206200158683398151915260448201526b65206164647265737328302960a01b6064820152608401620003b7565b6001600160a01b0383166000908152600182016020526040812054906001600160601b0382169003620007ad57620007ad828562000b82565b60005b8351811015620006ab576000848281518110620007d157620007d162001048565b6020908102919091018101516001600160e01b031981166000908152918690526040909120549091506001600160a01b0390811690871681036200087e5760405162461bcd60e51b815260206004820152603860248201527f4c69624469616d6f6e644375743a2043616e2774207265706c6163652066756e60448201527f6374696f6e20776974682073616d652066756e6374696f6e00000000000000006064820152608401620003b7565b6200088b85828462000bef565b6001600160e01b0319821660008181526020878152604080832080546001600160a01b03908116600160a01b6001600160601b038c16021782558c168085526001808c0185529285208054938401815585528385206008840401805463ffffffff60079095166004026101000a948502191660e08a901c94909402939093179092559390925287905281546001600160a01b031916179055836200092f8162001201565b9450505050808062000941906200108a565b915050620007b0565b6000815111620009a05760405162461bcd60e51b815260206004820152602b6024820152600080516020620015ca83398151915260448201526a1858d95d081d1bc818dd5d60aa1b6064820152608401620003b7565b6000805160206200153e8339815191526001600160a01b0383161562000a2f5760405162461bcd60e51b815260206004820152603660248201527f4c69624469616d6f6e644375743a2052656d6f7665206661636574206164647260448201527f657373206d7573742062652061646472657373283029000000000000000000006064820152608401620003b7565b60005b825181101562000aaa57600083828151811062000a535762000a5362001048565b6020908102919091018101516001600160e01b031981166000908152918590526040909120549091506001600160a01b031662000a9284828462000bef565b5050808062000aa1906200108a565b91505062000a32565b50505050565b6001600160a01b03821662000ac3575050565b62000ae8826040518060600160405280602881526020016200155e6028913962000fcf565b600080836001600160a01b03168360405162000b05919062001232565b600060405180830381855af49150503d806000811462000b42576040519150601f19603f3d011682016040523d82523d6000602084013e62000b47565b606091505b50915091508162000aaa5780511562000b635780518082602001fd5b838360405163192105d760e01b8152600401620003b792919062001250565b62000ba781604051806060016040528060248152602001620015a66024913962000fcf565b6002820180546001600160a01b0390921660008181526001948501602090815260408220860185905594840183559182529290200180546001600160a01b0319169091179055565b6001600160a01b03821662000c6d5760405162461bcd60e51b815260206004820152603760248201527f4c69624469616d6f6e644375743a2043616e27742072656d6f76652066756e6360448201527f74696f6e207468617420646f65736e27742065786973740000000000000000006064820152608401620003b7565b306001600160a01b0383160362000cde5760405162461bcd60e51b815260206004820152602e60248201527f4c69624469616d6f6e644375743a2043616e27742072656d6f766520696d6d7560448201526d3a30b1363290333ab731ba34b7b760911b6064820152608401620003b7565b6001600160e01b03198116600090815260208481526040808320546001600160a01b0386168452600180880190935290832054600160a01b9091046001600160601b0316929162000d2f916200127e565b905080821462000e28576001600160a01b0384166000908152600186016020526040812080548390811062000d685762000d6862001048565b600091825260208083206008830401546001600160a01b038916845260018a019091526040909220805460079092166004026101000a90920460e01b92508291908590811062000dbc5762000dbc62001048565b600091825260208083206008830401805463ffffffff60079094166004026101000a938402191660e09590951c929092029390931790556001600160e01b03199290921682528690526040902080546001600160a01b0316600160a01b6001600160601b038516021790555b6001600160a01b0384166000908152600186016020526040902080548062000e545762000e546200129a565b60008281526020808220600860001990940193840401805463ffffffff600460078716026101000a0219169055919092556001600160e01b03198516825286905260408120819055819003620006ab57600285015460009062000eba906001906200127e565b6001600160a01b038616600090815260018089016020526040909120015490915080821462000f7057600087600201838154811062000efd5762000efd62001048565b6000918252602090912001546002890180546001600160a01b03909216925082918490811062000f315762000f3162001048565b600091825260208083209190910180546001600160a01b0319166001600160a01b03948516179055929091168152600189810190925260409020018190555b8660020180548062000f865762000f866200129a565b60008281526020808220830160001990810180546001600160a01b03191690559092019092556001600160a01b0388168252600189810190915260408220015550505050505050565b813b818162000aaa5760405162461bcd60e51b8152600401620003b79190620012b0565b80516001600160a01b03811681146200100b57600080fd5b919050565b600080604083850312156200102457600080fd5b6200102f8362000ff3565b91506200103f6020840162000ff3565b90509250929050565b634e487b7160e01b600052603260045260246000fd5b634e487b7160e01b600052602160045260246000fd5b634e487b7160e01b600052601160045260246000fd5b6000600182016200109f576200109f62001074565b5060010190565b60005b83811015620010c3578181015183820152602001620010a9565b50506000910152565b60008151808452620010e6816020860160208601620010a6565b601f01601f19169290920160200192915050565b60006060808301818452808751808352608092508286019150828160051b8701016020808b0160005b84811015620011cf57898403607f19018652815180516001600160a01b031685528381015189860190600381106200116b57634e487b7160e01b600052602160045260246000fd5b868601526040918201519186018a905281519081905290840190600090898701905b80831015620011b95783516001600160e01b03191682529286019260019290920191908601906200118d565b5097850197955050509082019060010162001123565b50506001600160a01b038a16908801528681036040880152620011f38189620010cc565b9a9950505050505050505050565b60006001600160601b038281166002600160601b0319810162001228576200122862001074565b6001019392505050565b6000825162001246818460208701620010a6565b9190910192915050565b6001600160a01b03831681526040602082018190526000906200127690830184620010cc565b949350505050565b8181038181111562001294576200129462001074565b92915050565b634e487b7160e01b600052603160045260246000fd5b602081526000620012c56020830184620010cc565b9392505050565b61026280620012dc6000396000f3fe6080604052600436106100225760003560e01c80635b14f183146100fa57610029565b3661002957005b600080356001600160e01b03191681527fc8fcad8db84d3cc18b4c41d551ea0ee66dd599cde068d998e57d5e09332c131c602081905260409091205481906001600160a01b031661007981610115565b6001600160a01b0381166100d45760405162461bcd60e51b815260206004820181905260248201527f4469616d6f6e643a2046756e6374696f6e20646f6573206e6f7420657869737460448201526064015b60405180910390fd5b3660008037600080366000845af43d6000803e8080156100f3573d6000f35b3d6000fd5b005b34801561010657600080fd5b506100f86101153660046101fc565b602a5460ff16156101f9576000805260276020527f552d06d8e69b1fc894b5bb152d5c34ccb2ea2834fd646ff017b1562d77bdb85a54600216156101f9576000805260276020527f552d06d8e69b1fc894b5bb152d5c34ccb2ea2834fd646ff017b1562d77bdb85a54600416156101a2576040516351f3013160e01b8152600260048201526024016100cb565b6001600160a01b038116600090815260296020908152604080832054600881901c8452602790925290912054600160ff83161b16156101f7576040516351f3013160e01b8152600481018290526024016100cb565b505b50565b60006020828403121561020e57600080fd5b81356001600160a01b038116811461022557600080fd5b939250505056fea2646970667358221220998a9a6aee76d9926dcd368994330843f194cf6eb332eb5f77015516c0b71f4f64736f6c63430008150033c8fcad8db84d3cc18b4c41d551ea0ee66dd599cde068d998e57d5e09332c131c4c69624469616d6f6e644375743a205f696e6974206164647265737320686173206e6f20636f64654c69624469616d6f6e644375743a204164642066616365742063616e277420624c69624469616d6f6e644375743a204e657720666163657420686173206e6f20636f64654c69624469616d6f6e644375743a204e6f2073656c6563746f727320696e2066",
    "linkReferences": {}
  },
  "methodIdentifiers": {
    "isPaused(address)": "5b14f183"
  },
  "id": 1
}