{
  "abi": [
    {
      "inputs": [],
      "name": "rETH_ETH",
      "outputs": [
        {
          "internalType": "uint256",
          "name": "",
          "type": "uint256"
        }
      ],
      "stateMutability": "view",
      "type": "function"
    }
  ],
  "bytecode": {
    "object": "0x608060405234801561001057600080fd5b50610177806100206000396000f3fe608060405234801561001057600080fd5b506004361061002b5760003560e01c8063d4afb73a14610030575b600080fd5b61003861004a565b60405190815260200160405180910390f35b6000806000600a0160009054906101000a90046001600160a01b03166001600160a01b031663feaf968c6040518163ffffffff1660e01b815260040160a060405180830381865afa1580156100a3573d6000803e3d6000fd5b505050506040513d601f19601f820116820180604052508101906100c791906100f1565b509195945050505050565b805169ffffffffffffffffffff811681146100ec57600080fd5b919050565b600080600080600060a0868803121561010957600080fd5b610112866100d2565b9450602086015193506040860151925060608601519150610135608087016100d2565b9050929550929590935056fea26469706673582212204f15e604caffeaf10c219ecb91173bca57ee9a62d0dfb7df9ec59b4feed8b48964736f6c63430008150033",
    "linkReferences": {}
  },
  "methodIdentifiers": {
    "rETH_ETH()": "d4afb73a"
  },
  "id": 11
}