{
  "abi": [
    {
      "inputs": [],
      "stateMutability": "nonpayable",
      "type": "constructor"
    },
    {
      "anonymous": false,
      "inputs": [
        {
          "indexed": true,
          "internalType": "address",
          "name": "owner",
          "type": "address"
        },
        {
          "indexed": true,
          "internalType": "address",
          "name": "spender",
          "type": "address"
        },
        {
          "indexed": false,
          "internalType": "uint256",
          "name": "value",
          "type": "uint256"
        }
      ],
      "name": "Approval",
      "type": "event"
    },
    {
      "anonymous": false,
      "inputs": [
        {
          "indexed": true,
          "internalType": "address",
          "name": "caller",
          "type": "address"
        },
        {
          "indexed": true,
          "internalType": "address",
          "name": "owner",
          "type": "address"
        },
        {
          "indexed": false,
          "internalType": "uint256",
          "name": "assets",
          "type": "uint256"
        },
        {
          "indexed": false,
          "internalType": "uint256",
          "name": "shares",
          "type": "uint256"
        }
      ],
      "name": "Deposit",
      "type": "event"
    },
    {
      "anonymous": false,
      "inputs": [
        {
          "indexed": false,
          "internalType": "uint8",
          "name": "version",
          "type": "uint8"
        }
      ],
      "name": "Initialized",
      "type": "event"
    },
    {
      "anonymous": false,
      "inputs": [
        {
          "indexed": true,
          "internalType": "address",
          "name": "from",
          "type": "address"
        },
        {
          "indexed": true,
          "internalType": "address",
          "name": "to",
          "type": "address"
        },
        {
          "indexed": false,
          "internalType": "uint256",
          "name": "value",
          "type": "uint256"
        }
      ],
      "name": "Transfer",
      "type": "event"
    },
    {
      "anonymous": false,
      "inputs": [
        {
          "indexed": true,
          "internalType": "address",
          "name": "caller",
          "type": "address"
        },
        {
          "indexed": true,
          "internalType": "address",
          "name": "receiver",
          "type": "address"
        },
        {
          "indexed": true,
          "internalType": "address",
          "name": "owner",
          "type": "address"
        },
        {
          "indexed": false,
          "internalType": "uint256",
          "name": "assets",
          "type": "uint256"
        },
        {
          "indexed": false,
          "internalType": "uint256",
          "name": "shares",
          "type": "uint256"
        }
      ],
      "name": "Withdraw",
      "type": "event"
    },
    {
      "inputs": [],
      "name": "DOMAIN_SEPARATOR",
      "outputs": [
        {
          "internalType": "bytes32",
          "name": "",
          "type": "bytes32"
        }
      ],
      "stateMutability": "view",
      "type": "function"
    },
    {
      "inputs": [
        {
          "internalType": "address",
          "name": "owner",
          "type": "address"
        },
        {
          "internalType": "address",
          "name": "spender",
          "type": "address"
        }
      ],
      "name": "allowance",
      "outputs": [
        {
          "internalType": "uint256",
          "name": "",
          "type": "uint256"
        }
      ],
      "stateMutability": "view",
      "type": "function"
    },
    {
      "inputs": [
        {
          "internalType": "address",
          "name": "spender",
          "type": "address"
        },
        {
          "internalType": "uint256",
          "name": "amount",
          "type": "uint256"
        }
      ],
      "name": "approve",
      "outputs": [
        {
          "internalType": "bool",
          "name": "",
          "type": "bool"
        }
      ],
      "stateMutability": "nonpayable",
      "type": "function"
    },
    {
      "inputs": [],
      "name": "asset",
      "outputs": [
        {
          "internalType": "address",
          "name": "",
          "type": "address"
        }
      ],
      "stateMutability": "view",
      "type": "function"
    },
    {
      "inputs": [
        {
          "internalType": "address",
          "name": "account",
          "type": "address"
        }
      ],
      "name": "balanceOf",
      "outputs": [
        {
          "internalType": "uint256",
          "name": "",
          "type": "uint256"
        }
      ],
      "stateMutability": "view",
      "type": "function"
    },
    {
      "inputs": [
        {
          "internalType": "uint256",
          "name": "shares",
          "type": "uint256"
        }
      ],
      "name": "convertToAssets",
      "outputs": [
        {
          "internalType": "uint256",
          "name": "assets",
          "type": "uint256"
        }
      ],
      "stateMutability": "view",
      "type": "function"
    },
    {
      "inputs": [
        {
          "internalType": "uint256",
          "name": "assets",
          "type": "uint256"
        }
      ],
      "name": "convertToShares",
      "outputs": [
        {
          "internalType": "uint256",
          "name": "shares",
          "type": "uint256"
        }
      ],
      "stateMutability": "view",
      "type": "function"
    },
    {
      "inputs": [],
      "name": "decimals",
      "outputs": [
        {
          "internalType": "uint8",
          "name": "",
          "type": "uint8"
        }
      ],
      "stateMutability": "view",
      "type": "function"
    },
    {
      "inputs": [
        {
          "internalType": "address",
          "name": "spender",
          "type": "address"
        },
        {
          "internalType": "uint256",
          "name": "subtractedValue",
          "type": "uint256"
        }
      ],
      "name": "decreaseAllowance",
      "outputs": [
        {
          "internalType": "bool",
          "name": "",
          "type": "bool"
        }
      ],
      "stateMutability": "nonpayable",
      "type": "function"
    },
    {
      "inputs": [
        {
          "internalType": "uint256",
          "name": "assets",
          "type": "uint256"
        },
        {
          "internalType": "address",
          "name": "receiver",
          "type": "address"
        }
      ],
      "name": "deposit",
      "outputs": [
        {
          "internalType": "uint256",
          "name": "",
          "type": "uint256"
        }
      ],
      "stateMutability": "nonpayable",
      "type": "function"
    },
    {
      "inputs": [],
      "name": "getHello",
      "outputs": [],
      "stateMutability": "view",
      "type": "function"
    },
    {
      "inputs": [
        {
          "internalType": "address",
          "name": "spender",
          "type": "address"
        },
        {
          "internalType": "uint256",
          "name": "addedValue",
          "type": "uint256"
        }
      ],
      "name": "increaseAllowance",
      "outputs": [
        {
          "internalType": "bool",
          "name": "",
          "type": "bool"
        }
      ],
      "stateMutability": "nonpayable",
      "type": "function"
    },
    {
      "inputs": [
        {
          "internalType": "string",
          "name": "name_",
          "type": "string"
        },
        {
          "internalType": "string",
          "name": "symbol_",
          "type": "string"
        },
        {
          "internalType": "address",
          "name": "asset_",
          "type": "address"
        }
      ],
      "name": "initialize",
      "outputs": [],
      "stateMutability": "nonpayable",
      "type": "function"
    },
    {
      "inputs": [
        {
          "internalType": "address",
          "name": "",
          "type": "address"
        }
      ],
      "name": "maxDeposit",
      "outputs": [
        {
          "internalType": "uint256",
          "name": "",
          "type": "uint256"
        }
      ],
      "stateMutability": "view",
      "type": "function"
    },
    {
      "inputs": [
        {
          "internalType": "address",
          "name": "",
          "type": "address"
        }
      ],
      "name": "maxMint",
      "outputs": [
        {
          "internalType": "uint256",
          "name": "",
          "type": "uint256"
        }
      ],
      "stateMutability": "view",
      "type": "function"
    },
    {
      "inputs": [
        {
          "internalType": "address",
          "name": "owner",
          "type": "address"
        }
      ],
      "name": "maxRedeem",
      "outputs": [
        {
          "internalType": "uint256",
          "name": "",
          "type": "uint256"
        }
      ],
      "stateMutability": "view",
      "type": "function"
    },
    {
      "inputs": [
        {
          "internalType": "address",
          "name": "owner",
          "type": "address"
        }
      ],
      "name": "maxWithdraw",
      "outputs": [
        {
          "internalType": "uint256",
          "name": "",
          "type": "uint256"
        }
      ],
      "stateMutability": "view",
      "type": "function"
    },
    {
      "inputs": [
        {
          "internalType": "uint256",
          "name": "shares",
          "type": "uint256"
        },
        {
          "internalType": "address",
          "name": "receiver",
          "type": "address"
        }
      ],
      "name": "mint",
      "outputs": [
        {
          "internalType": "uint256",
          "name": "",
          "type": "uint256"
        }
      ],
      "stateMutability": "nonpayable",
      "type": "function"
    },
    {
      "inputs": [],
      "name": "name",
      "outputs": [
        {
          "internalType": "string",
          "name": "",
          "type": "string"
        }
      ],
      "stateMutability": "view",
      "type": "function"
    },
    {
      "inputs": [
        {
          "internalType": "address",
          "name": "owner",
          "type": "address"
        }
      ],
      "name": "nonces",
      "outputs": [
        {
          "internalType": "uint256",
          "name": "",
          "type": "uint256"
        }
      ],
      "stateMutability": "view",
      "type": "function"
    },
    {
      "inputs": [
        {
          "internalType": "address",
          "name": "owner",
          "type": "address"
        },
        {
          "internalType": "address",
          "name": "spender",
          "type": "address"
        },
        {
          "internalType": "uint256",
          "name": "value",
          "type": "uint256"
        },
        {
          "internalType": "uint256",
          "name": "deadline",
          "type": "uint256"
        },
        {
          "internalType": "uint8",
          "name": "v",
          "type": "uint8"
        },
        {
          "internalType": "bytes32",
          "name": "r",
          "type": "bytes32"
        },
        {
          "internalType": "bytes32",
          "name": "s",
          "type": "bytes32"
        }
      ],
      "name": "permit",
      "outputs": [],
      "stateMutability": "nonpayable",
      "type": "function"
    },
    {
      "inputs": [
        {
          "internalType": "uint256",
          "name": "assets",
          "type": "uint256"
        }
      ],
      "name": "previewDeposit",
      "outputs": [
        {
          "internalType": "uint256",
          "name": "",
          "type": "uint256"
        }
      ],
      "stateMutability": "view",
      "type": "function"
    },
    {
      "inputs": [
        {
          "internalType": "uint256",
          "name": "shares",
          "type": "uint256"
        }
      ],
      "name": "previewMint",
      "outputs": [
        {
          "internalType": "uint256",
          "name": "",
          "type": "uint256"
        }
      ],
      "stateMutability": "view",
      "type": "function"
    },
    {
      "inputs": [
        {
          "internalType": "uint256",
          "name": "shares",
          "type": "uint256"
        }
      ],
      "name": "previewRedeem",
      "outputs": [
        {
          "internalType": "uint256",
          "name": "",
          "type": "uint256"
        }
      ],
      "stateMutability": "view",
      "type": "function"
    },
    {
      "inputs": [
        {
          "internalType": "uint256",
          "name": "assets",
          "type": "uint256"
        }
      ],
      "name": "previewWithdraw",
      "outputs": [
        {
          "internalType": "uint256",
          "name": "",
          "type": "uint256"
        }
      ],
      "stateMutability": "view",
      "type": "function"
    },
    {
      "inputs": [
        {
          "internalType": "uint256",
          "name": "shares",
          "type": "uint256"
        },
        {
          "internalType": "address",
          "name": "receiver",
          "type": "address"
        },
        {
          "internalType": "address",
          "name": "owner",
          "type": "address"
        }
      ],
      "name": "redeem",
      "outputs": [
        {
          "internalType": "uint256",
          "name": "",
          "type": "uint256"
        }
      ],
      "stateMutability": "nonpayable",
      "type": "function"
    },
    {
      "inputs": [],
      "name": "symbol",
      "outputs": [
        {
          "internalType": "string",
          "name": "",
          "type": "string"
        }
      ],
      "stateMutability": "view",
      "type": "function"
    },
    {
      "inputs": [],
      "name": "totalAssets",
      "outputs": [
        {
          "internalType": "uint256",
          "name": "",
          "type": "uint256"
        }
      ],
      "stateMutability": "view",
      "type": "function"
    },
    {
      "inputs": [],
      "name": "totalSupply",
      "outputs": [
        {
          "internalType": "uint256",
          "name": "",
          "type": "uint256"
        }
      ],
      "stateMutability": "view",
      "type": "function"
    },
    {
      "inputs": [
        {
          "internalType": "address",
          "name": "to",
          "type": "address"
        },
        {
          "internalType": "uint256",
          "name": "amount",
          "type": "uint256"
        }
      ],
      "name": "transfer",
      "outputs": [
        {
          "internalType": "bool",
          "name": "",
          "type": "bool"
        }
      ],
      "stateMutability": "nonpayable",
      "type": "function"
    },
    {
      "inputs": [
        {
          "internalType": "address",
          "name": "from",
          "type": "address"
        },
        {
          "internalType": "address",
          "name": "to",
          "type": "address"
        },
        {
          "internalType": "uint256",
          "name": "amount",
          "type": "uint256"
        }
      ],
      "name": "transferFrom",
      "outputs": [
        {
          "internalType": "bool",
          "name": "",
          "type": "bool"
        }
      ],
      "stateMutability": "nonpayable",
      "type": "function"
    },
    {
      "inputs": [
        {
          "internalType": "uint256",
          "name": "assets",
          "type": "uint256"
        },
        {
          "internalType": "address",
          "name": "receiver",
          "type": "address"
        },
        {
          "internalType": "address",
          "name": "owner",
          "type": "address"
        }
      ],
      "name": "withdraw",
      "outputs": [
        {
          "internalType": "uint256",
          "name": "",
          "type": "uint256"
        }
      ],
      "stateMutability": "nonpayable",
      "type": "function"
    }
  ],
  "bytecode": {
    "object": "0x608060405234801561001057600080fd5b5061001961001e565b6100de565b600054610100900460ff161561008a5760405162461bcd60e51b815260206004820152602760248201527f496e697469616c697a61626c653a20636f6e747261637420697320696e697469604482015266616c697a696e6760c81b606482015260840160405180910390fd5b60005460ff90811610156100dc576000805460ff191660ff9081179091556040519081527f7f26b83ff96e1f2b6a682f133852f6798a09c465da95921460cefb38474024989060200160405180910390a15b565b61211d80620000ee6000396000f3fe608060405234801561001057600080fd5b50600436106101f05760003560e01c80637ecebe001161010f578063ba087652116100a2578063d505accf11610071578063d505accf14610402578063d905777e14610419578063dd62ed3e1461042c578063ef8b30f7146103dc57600080fd5b8063ba087652146103b4578063c63d75b6146103c7578063c6e6f592146103dc578063ce96cb77146103ef57600080fd5b8063a457c2d7116100de578063a457c2d714610368578063a9059cbb1461037b578063b3d7f6b91461038e578063b460af94146103a157600080fd5b80637ecebe00146103315780638da9b7721461034557806394bf804d1461034d57806395d89b411461036057600080fd5b8063313ce56711610187578063402d267d11610156578063402d267d146102e25780634cdad5061461023a5780636e553f65146102f557806370a082311461030857600080fd5b8063313ce5671461029e5780633644e515146102ad57806338d52e0f146102b457806339509351146102cf57600080fd5b8063095ea7b3116101c3578063095ea7b31461024d5780630a28a4771461027057806318160ddd1461028357806323b872dd1461028b57600080fd5b806301e1d114146101f557806306fdde0314610210578063077f224a1461022557806307a2d13a1461023a575b600080fd5b6101fd61043f565b6040519081526020015b60405180910390f35b6102186104b1565b6040516102079190611a7e565b610238610233366004611b50565b610543565b005b6101fd610248366004611bc4565b61068a565b61026061025b366004611bdd565b61069d565b6040519015158152602001610207565b6101fd61027e366004611bc4565b6106b5565b6035546101fd565b610260610299366004611c07565b6106c2565b60405160128152602001610207565b60006101fd565b6065546040516001600160a01b039091168152602001610207565b6102606102dd366004611bdd565b6106e8565b6101fd6102f0366004611c43565b61070a565b6101fd610303366004611c5e565b610728565b6101fd610316366004611c43565b6001600160a01b031660009081526033602052604090205490565b6101fd61033f366004611c43565b50600090565b61023861079b565b6101fd61035b366004611c5e565b6107a7565b6102186107c1565b610260610376366004611bdd565b6107d0565b610260610389366004611bdd565b610856565b6101fd61039c366004611bc4565b610864565b6101fd6103af366004611c8a565b610871565b6101fd6103c2366004611c8a565b6108ed565b6101fd6103d5366004611c43565b5060001990565b6101fd6103ea366004611bc4565b610961565b6101fd6103fd366004611c43565b61096e565b610238610410366004611ccc565b50505050505050565b6101fd610427366004611c43565b610992565b6101fd61043a366004611d39565b6109b0565b6065546040516370a0823160e01b81523060048201526000916001600160a01b0316906370a0823190602401602060405180830381865afa158015610488573d6000803e3d6000fd5b505050506040513d601f19601f820116820180604052508101906104ac9190611d63565b905090565b6060603680546104c090611d7c565b80601f01602080910402602001604051908101604052809291908181526020018280546104ec90611d7c565b80156105395780601f1061050e57610100808354040283529160200191610539565b820191906000526020600020905b81548152906001019060200180831161051c57829003601f168201915b5050505050905090565b600054610100900460ff16158080156105635750600054600160ff909116105b8061057d5750303b15801561057d575060005460ff166001145b6105e55760405162461bcd60e51b815260206004820152602e60248201527f496e697469616c697a61626c653a20636f6e747261637420697320616c72656160448201526d191e481a5b9a5d1a585b1a5e995960921b60648201526084015b60405180910390fd5b6000805460ff191660011790558015610608576000805461ff0019166101001790555b61061284846109db565b61061b82610a10565b61063e84604051806040016040528060018152602001603160f81b815250610a43565b8015610684576000805461ff0019169055604051600181527f7f26b83ff96e1f2b6a682f133852f6798a09c465da95921460cefb38474024989060200160405180910390a15b50505050565b6000610697826000610a74565b92915050565b6000336106ab818585610b32565b5060019392505050565b6000610697826001610c56565b6000336106d0858285610e56565b6106db858585610eca565b60019150505b9392505050565b6000336106ab8185856106fb83836109b0565b6107059190611dcc565b610b32565b6000610714611098565b61071f576000610697565b60001992915050565b60006107338261070a565b8311156107825760405162461bcd60e51b815260206004820152601e60248201527f455243343632363a206465706f736974206d6f7265207468616e206d6178000060448201526064016105dc565b600061078d84610961565b90506106e1338486846110b2565b6107a56017611130565b565b6000806107b384610864565b90506106e1338483876110b2565b6060603780546104c090611d7c565b600033816107de82866109b0565b90508381101561083e5760405162461bcd60e51b815260206004820152602560248201527f45524332303a2064656372656173656420616c6c6f77616e63652062656c6f77604482015264207a65726f60d81b60648201526084016105dc565b61084b8286868403610b32565b506001949350505050565b6000336106ab818585610eca565b6000610697826001610a74565b600061087c8261096e565b8411156108cb5760405162461bcd60e51b815260206004820152601f60248201527f455243343632363a207769746864726177206d6f7265207468616e206d61780060448201526064016105dc565b60006108d6856106b5565b90506108e53385858885611175565b949350505050565b60006108f882610992565b8411156109475760405162461bcd60e51b815260206004820152601d60248201527f455243343632363a2072656465656d206d6f7265207468616e206d617800000060448201526064016105dc565b60006109528561068a565b90506108e53385858489611175565b6000610697826000610c56565b6001600160a01b038116600090815260336020526040812054610697906000610a74565b6001600160a01b038116600090815260336020526040812054610697565b6001600160a01b03918216600090815260346020908152604080832093909416825291909152205490565b600054610100900460ff16610a025760405162461bcd60e51b81526004016105dc90611ddf565b610a0c8282611282565b5050565b600054610100900460ff16610a375760405162461bcd60e51b81526004016105dc90611ddf565b610a40816112c7565b50565b600054610100900460ff16610a6a5760405162461bcd60e51b81526004016105dc90611ddf565b610a0c8282611310565b600080610a8060355490565b90508015610aa157610a9c610a9361043f565b85908386611351565b6108e5565b6065546040805163313ce56760e01b815290516108e5926001600160a01b03169163313ce5679160048083019260209291908290030181865afa158015610aec573d6000803e3d6000fd5b505050506040513d601f19601f82011682018060405250810190610b109190611e2a565b610b1b90600a611f2b565b60125b610b2990600a611f2b565b86919086611351565b6001600160a01b038316610b945760405162461bcd60e51b8152602060048201526024808201527f45524332303a20617070726f76652066726f6d20746865207a65726f206164646044820152637265737360e01b60648201526084016105dc565b6001600160a01b038216610bf55760405162461bcd60e51b815260206004820152602260248201527f45524332303a20617070726f766520746f20746865207a65726f206164647265604482015261737360f01b60648201526084016105dc565b6001600160a01b0383811660008181526034602090815260408083209487168084529482529182902085905590518481527f8c5be1e5ebec7d5bd14f71427d1e84f3dd0314c0f7b2291e5b200ac8c7c3b925910160405180910390a3505050565b600080610c6260355490565b9050610c9e604051806040016040528060198152602001782d2d20696e205f636f6e76657274546f536861726573202d2d60381b8152506113ae565b610cc860405180604001604052806008815260200167030b9b9b2ba399d160c51b815250856113f1565b610cf260405180604001604052806008815260200167039bab838363c9d160c51b815250826113f1565b610d286040518060400160405280600d81526020016c03a37ba30b620b9b9b2ba399d1609d1b815250610d2361043f565b6113f1565b8015610d6357610d6360405180604001604052806004815260200163034b99d160e51b815250610d2383610d5a61043f565b88919088611351565b610d9d604051806040016040528060198152602001782d2d20696e205f636f6e76657274546f536861726573202d2d60381b8152506113ae565b610db5604051806020016040528060008152506113ae565b831580610dc0575080155b610dd057610a9c81610b2961043f565b6108e5610ddf6012600a611f2b565b606560009054906101000a90046001600160a01b03166001600160a01b031663313ce5676040518163ffffffff1660e01b8152600401602060405180830381865afa158015610e32573d6000803e3d6000fd5b505050506040513d601f19601f82011682018060405250810190610b1e9190611e2a565b6000610e6284846109b0565b905060001981146106845781811015610ebd5760405162461bcd60e51b815260206004820152601d60248201527f45524332303a20696e73756666696369656e7420616c6c6f77616e636500000060448201526064016105dc565b6106848484848403610b32565b6001600160a01b038316610f2e5760405162461bcd60e51b815260206004820152602560248201527f45524332303a207472616e736665722066726f6d20746865207a65726f206164604482015264647265737360d81b60648201526084016105dc565b6001600160a01b038216610f905760405162461bcd60e51b815260206004820152602360248201527f45524332303a207472616e7366657220746f20746865207a65726f206164647260448201526265737360e81b60648201526084016105dc565b6001600160a01b038316600090815260336020526040902054818110156110085760405162461bcd60e51b815260206004820152602660248201527f45524332303a207472616e7366657220616d6f756e7420657863656564732062604482015265616c616e636560d01b60648201526084016105dc565b6001600160a01b0380851660009081526033602052604080822085850390559185168152908120805484929061103f908490611dcc565b92505081905550826001600160a01b0316846001600160a01b03167fddf252ad1be2c89b69c2b068fc378daa952ba7f163c4a11628f55a4df523b3ef8460405161108b91815260200190565b60405180910390a3610684565b6000806110a361043f565b11806104ac5750506035541590565b6065546110ca906001600160a01b0316853085611436565b6110d483826114a1565b826001600160a01b0316846001600160a01b03167fdcbc1c05240f31ff3ad067ef1ee35ce4997762752e3a095284754544f4c709d78484604051611122929190918252602082015260400190565b60405180910390a350505050565b610a408160405160240161114691815260200190565b60408051601f198184030181529190526020810180516001600160e01b031663f5b1bba960e01b179052611580565b826001600160a01b0316856001600160a01b03161461119957611199838683610e56565b6111d060405180604001604052806015815260200174039b430b932b99034b7102fbbb4ba34323930bb9d1605d1b815250826113f1565b6111fa60405180604001604052806008815260200167030b9b9b2ba399d160c51b815250836113f1565b61120483826115a1565b60655461121b906001600160a01b03168584611769565b826001600160a01b0316846001600160a01b0316866001600160a01b03167ffbde797d201c681b91056529119e0b02407c7bb96a4a2c75c01fc9667232c8db8585604051611273929190918252602082015260400190565b60405180910390a45050505050565b600054610100900460ff166112a95760405162461bcd60e51b81526004016105dc90611ddf565b60366112b58382611f88565b5060376112c28282611f88565b505050565b600054610100900460ff166112ee5760405162461bcd60e51b81526004016105dc90611ddf565b606580546001600160a01b0319166001600160a01b0392909216919091179055565b600054610100900460ff166113375760405162461bcd60e51b81526004016105dc90611ddf565b815160209283012081519190920120609791909155609855565b60008061135f868686611799565b9050600183600281111561137557611375612048565b14801561139257506000848061138d5761138d61205e565b868809115b156113a5576113a2600182611dcc565b90505b95945050505050565b610a40816040516024016113c29190611a7e565b60408051601f198184030181529190526020810180516001600160e01b031663104c13eb60e21b179052611580565b610a0c8282604051602401611407929190612074565b60408051601f198184030181529190526020810180516001600160e01b03166309710a9d60e41b179052611580565b6040516001600160a01b03808516602483015283166044820152606481018290526106849085906323b872dd60e01b906084015b60408051601f198184030181529190526020810180516001600160e01b03166001600160e01b031990931692909217909152611848565b6001600160a01b0382166114f75760405162461bcd60e51b815260206004820152601f60248201527f45524332303a206d696e7420746f20746865207a65726f20616464726573730060448201526064016105dc565b80603560008282546115099190611dcc565b90915550506001600160a01b03821660009081526033602052604081208054839290611536908490611dcc565b90915550506040518181526001600160a01b038316906000907fddf252ad1be2c89b69c2b068fc378daa952ba7f163c4a11628f55a4df523b3ef9060200160405180910390a35050565b80516a636f6e736f6c652e6c6f67602083016000808483855afa5050505050565b6001600160a01b0382166116015760405162461bcd60e51b815260206004820152602160248201527f45524332303a206275726e2066726f6d20746865207a65726f206164647265736044820152607360f81b60648201526084016105dc565b600060336000846001600160a01b03166001600160a01b0316815260200190815260200160002054905061166a6040518060400160405280601981526020017f6163636f756e7442616c616e636520696e205f6275726e3a2000000000000000815250826113f1565b61169460405180604001604052806008815260200167030b6b7bab73a1d160c51b815250836113f1565b818110156116ef5760405162461bcd60e51b815260206004820152602260248201527f45524332303a206275726e20616d6f756e7420657863656564732062616c616e604482015261636560f01b60648201526084016105dc565b6001600160a01b038316600090815260336020526040812083830390556035805484929061171e908490612096565b90915550506040518281526000906001600160a01b038516907fddf252ad1be2c89b69c2b068fc378daa952ba7f163c4a11628f55a4df523b3ef9060200160405180910390a3505050565b6040516001600160a01b0383166024820152604481018290526112c290849063a9059cbb60e01b9060640161146a565b60008080600019858709858702925082811083820303915050806000036117d3578382816117c9576117c961205e565b04925050506106e1565b8084116117df57600080fd5b60008486880960026001871981018816978890046003810283188082028403028082028403028082028403028082028403028082028403029081029092039091026000889003889004909101858311909403939093029303949094049190911702949350505050565b600061189d826040518060400160405280602081526020017f5361666545524332303a206c6f772d6c6576656c2063616c6c206661696c6564815250856001600160a01b031661191a9092919063ffffffff16565b8051909150156112c257808060200190518101906118bb91906120a9565b6112c25760405162461bcd60e51b815260206004820152602a60248201527f5361666545524332303a204552433230206f7065726174696f6e20646964206e6044820152691bdd081cdd58d8d9595960b21b60648201526084016105dc565b60606108e58484600085856001600160a01b0385163b61197c5760405162461bcd60e51b815260206004820152601d60248201527f416464726573733a2063616c6c20746f206e6f6e2d636f6e747261637400000060448201526064016105dc565b600080866001600160a01b0316858760405161199891906120cb565b60006040518083038185875af1925050503d80600081146119d5576040519150601f19603f3d011682016040523d82523d6000602084013e6119da565b606091505b50915091506119ea8282866119f5565b979650505050505050565b60608315611a045750816106e1565b825115611a145782518084602001fd5b8160405162461bcd60e51b81526004016105dc9190611a7e565b60005b83811015611a49578181015183820152602001611a31565b50506000910152565b60008151808452611a6a816020860160208601611a2e565b601f01601f19169290920160200192915050565b6020815260006106e16020830184611a52565b634e487b7160e01b600052604160045260246000fd5b600082601f830112611ab857600080fd5b813567ffffffffffffffff80821115611ad357611ad3611a91565b604051601f8301601f19908116603f01168101908282118183101715611afb57611afb611a91565b81604052838152866020858801011115611b1457600080fd5b836020870160208301376000602085830101528094505050505092915050565b80356001600160a01b0381168114611b4b57600080fd5b919050565b600080600060608486031215611b6557600080fd5b833567ffffffffffffffff80821115611b7d57600080fd5b611b8987838801611aa7565b94506020860135915080821115611b9f57600080fd5b50611bac86828701611aa7565b925050611bbb60408501611b34565b90509250925092565b600060208284031215611bd657600080fd5b5035919050565b60008060408385031215611bf057600080fd5b611bf983611b34565b946020939093013593505050565b600080600060608486031215611c1c57600080fd5b611c2584611b34565b9250611c3360208501611b34565b9150604084013590509250925092565b600060208284031215611c5557600080fd5b6106e182611b34565b60008060408385031215611c7157600080fd5b82359150611c8160208401611b34565b90509250929050565b600080600060608486031215611c9f57600080fd5b83359250611caf60208501611b34565b9150611bbb60408501611b34565b60ff81168114610a4057600080fd5b600080600080600080600060e0888a031215611ce757600080fd5b611cf088611b34565b9650611cfe60208901611b34565b955060408801359450606088013593506080880135611d1c81611cbd565b9699959850939692959460a0840135945060c09093013592915050565b60008060408385031215611d4c57600080fd5b611d5583611b34565b9150611c8160208401611b34565b600060208284031215611d7557600080fd5b5051919050565b600181811c90821680611d9057607f821691505b602082108103611db057634e487b7160e01b600052602260045260246000fd5b50919050565b634e487b7160e01b600052601160045260246000fd5b8082018082111561069757610697611db6565b6020808252602b908201527f496e697469616c697a61626c653a20636f6e7472616374206973206e6f74206960408201526a6e697469616c697a696e6760a81b606082015260800190565b600060208284031215611e3c57600080fd5b81516106e181611cbd565b600181815b80851115611e82578160001904821115611e6857611e68611db6565b80851615611e7557918102915b93841c9390800290611e4c565b509250929050565b600082611e9957506001610697565b81611ea657506000610697565b8160018114611ebc5760028114611ec657611ee2565b6001915050610697565b60ff841115611ed757611ed7611db6565b50506001821b610697565b5060208310610133831016604e8410600b8410161715611f05575081810a610697565b611f0f8383611e47565b8060001904821115611f2357611f23611db6565b029392505050565b60006106e160ff841683611e8a565b601f8211156112c257600081815260208120601f850160051c81016020861015611f615750805b601f850160051c820191505b81811015611f8057828155600101611f6d565b505050505050565b815167ffffffffffffffff811115611fa257611fa2611a91565b611fb681611fb08454611d7c565b84611f3a565b602080601f831160018114611feb5760008415611fd35750858301515b600019600386901b1c1916600185901b178555611f80565b600085815260208120601f198616915b8281101561201a57888601518255948401946001909101908401611ffb565b50858210156120385787850151600019600388901b60f8161c191681555b5050505050600190811b01905550565b634e487b7160e01b600052602160045260246000fd5b634e487b7160e01b600052601260045260246000fd5b6040815260006120876040830185611a52565b90508260208301529392505050565b8181038181111561069757610697611db6565b6000602082840312156120bb57600080fd5b815180151581146106e157600080fd5b600082516120dd818460208701611a2e565b919091019291505056fea2646970667358221220b8077691ab23f50718edf6be701604920f162ca47c163552955665a432d5075564736f6c63430008150033",
    "linkReferences": {}
  },
  "methodIdentifiers": {
    "DOMAIN_SEPARATOR()": "3644e515",
    "allowance(address,address)": "dd62ed3e",
    "approve(address,uint256)": "095ea7b3",
    "asset()": "38d52e0f",
    "balanceOf(address)": "70a08231",
    "convertToAssets(uint256)": "07a2d13a",
    "convertToShares(uint256)": "c6e6f592",
    "decimals()": "313ce567",
    "decreaseAllowance(address,uint256)": "a457c2d7",
    "deposit(uint256,address)": "6e553f65",
    "getHello()": "8da9b772",
    "increaseAllowance(address,uint256)": "39509351",
    "initialize(string,string,address)": "077f224a",
    "maxDeposit(address)": "402d267d",
    "maxMint(address)": "c63d75b6",
    "maxRedeem(address)": "d905777e",
    "maxWithdraw(address)": "ce96cb77",
    "mint(uint256,address)": "94bf804d",
    "name()": "06fdde03",
    "nonces(address)": "7ecebe00",
    "permit(address,address,uint256,uint256,uint8,bytes32,bytes32)": "d505accf",
    "previewDeposit(uint256)": "ef8b30f7",
    "previewMint(uint256)": "b3d7f6b9",
    "previewRedeem(uint256)": "4cdad506",
    "previewWithdraw(uint256)": "0a28a477",
    "redeem(uint256,address,address)": "ba087652",
    "symbol()": "95d89b41",
    "totalAssets()": "01e1d114",
    "totalSupply()": "18160ddd",
    "transfer(address,uint256)": "a9059cbb",
    "transferFrom(address,address,uint256)": "23b872dd",
    "withdraw(uint256,address,address)": "b460af94"
  },
  "id": 46
}