{
  "abi": [
    {
      "inputs": [],
      "stateMutability": "nonpayable",
      "type": "constructor"
    },
    {
      "anonymous": false,
      "inputs": [
        {
          "indexed": true,
          "internalType": "address",
          "name": "owner",
          "type": "address"
        },
        {
          "indexed": true,
          "internalType": "address",
          "name": "spender",
          "type": "address"
        },
        {
          "indexed": false,
          "internalType": "uint256",
          "name": "value",
          "type": "uint256"
        }
      ],
      "name": "Approval",
      "type": "event"
    },
    {
      "anonymous": false,
      "inputs": [
        {
          "indexed": false,
          "internalType": "uint8",
          "name": "version",
          "type": "uint8"
        }
      ],
      "name": "Initialized",
      "type": "event"
    },
    {
      "anonymous": false,
      "inputs": [
        {
          "indexed": true,
          "internalType": "address",
          "name": "from",
          "type": "address"
        },
        {
          "indexed": true,
          "internalType": "address",
          "name": "to",
          "type": "address"
        },
        {
          "indexed": false,
          "internalType": "uint256",
          "name": "value",
          "type": "uint256"
        }
      ],
      "name": "Transfer",
      "type": "event"
    },
    {
      "inputs": [],
      "name": "DOMAIN_SEPARATOR",
      "outputs": [
        {
          "internalType": "bytes32",
          "name": "",
          "type": "bytes32"
        }
      ],
      "stateMutability": "view",
      "type": "function"
    },
    {
      "inputs": [],
      "name": "OZ",
      "outputs": [
        {
          "internalType": "contract ozIDiamond",
          "name": "",
          "type": "address"
        }
      ],
      "stateMutability": "view",
      "type": "function"
    },
    {
      "inputs": [
        {
          "internalType": "address",
          "name": "owner",
          "type": "address"
        },
        {
          "internalType": "address",
          "name": "spender",
          "type": "address"
        }
      ],
      "name": "allowance",
      "outputs": [
        {
          "internalType": "uint256",
          "name": "",
          "type": "uint256"
        }
      ],
      "stateMutability": "view",
      "type": "function"
    },
    {
      "inputs": [
        {
          "internalType": "address",
          "name": "spender",
          "type": "address"
        },
        {
          "internalType": "uint256",
          "name": "amount",
          "type": "uint256"
        }
      ],
      "name": "approve",
      "outputs": [
        {
          "internalType": "bool",
          "name": "",
          "type": "bool"
        }
      ],
      "stateMutability": "nonpayable",
      "type": "function"
    },
    {
      "inputs": [],
      "name": "asset",
      "outputs": [
        {
          "internalType": "address",
          "name": "",
          "type": "address"
        }
      ],
      "stateMutability": "view",
      "type": "function"
    },
    {
      "inputs": [
        {
          "internalType": "address",
          "name": "account",
          "type": "address"
        }
      ],
      "name": "balanceOf",
      "outputs": [
        {
          "internalType": "uint256",
          "name": "",
          "type": "uint256"
        }
      ],
      "stateMutability": "view",
      "type": "function"
    },
    {
      "inputs": [],
      "name": "decimals",
      "outputs": [
        {
          "internalType": "uint8",
          "name": "",
          "type": "uint8"
        }
      ],
      "stateMutability": "view",
      "type": "function"
    },
    {
      "inputs": [
        {
          "internalType": "address",
          "name": "spender",
          "type": "address"
        },
        {
          "internalType": "uint256",
          "name": "subtractedValue",
          "type": "uint256"
        }
      ],
      "name": "decreaseAllowance",
      "outputs": [
        {
          "internalType": "bool",
          "name": "",
          "type": "bool"
        }
      ],
      "stateMutability": "nonpayable",
      "type": "function"
    },
    {
      "inputs": [
        {
          "internalType": "uint256",
          "name": "wozAmount_",
          "type": "uint256"
        }
      ],
      "name": "getOzAmount",
      "outputs": [
        {
          "internalType": "uint256",
          "name": "",
          "type": "uint256"
        }
      ],
      "stateMutability": "view",
      "type": "function"
    },
    {
      "inputs": [
        {
          "internalType": "uint256",
          "name": "ozAmount_",
          "type": "uint256"
        }
      ],
      "name": "getWozAmount",
      "outputs": [
        {
          "internalType": "uint256",
          "name": "",
          "type": "uint256"
        }
      ],
      "stateMutability": "view",
      "type": "function"
    },
    {
      "inputs": [
        {
          "internalType": "address",
          "name": "spender",
          "type": "address"
        },
        {
          "internalType": "uint256",
          "name": "addedValue",
          "type": "uint256"
        }
      ],
      "name": "increaseAllowance",
      "outputs": [
        {
          "internalType": "bool",
          "name": "",
          "type": "bool"
        }
      ],
      "stateMutability": "nonpayable",
      "type": "function"
    },
    {
      "inputs": [
        {
          "internalType": "string",
          "name": "name_",
          "type": "string"
        },
        {
          "internalType": "string",
          "name": "symbol_",
          "type": "string"
        },
        {
          "internalType": "address",
          "name": "asset_",
          "type": "address"
        },
        {
          "internalType": "address",
          "name": "ozDiamond_",
          "type": "address"
        }
      ],
      "name": "initialize",
      "outputs": [],
      "stateMutability": "nonpayable",
      "type": "function"
    },
    {
      "inputs": [
        {
          "internalType": "bytes",
          "name": "data_",
          "type": "bytes"
        },
        {
          "internalType": "address",
          "name": "owner_",
          "type": "address"
        }
      ],
      "name": "mintAndWrap",
      "outputs": [
        {
          "internalType": "uint256",
          "name": "wozAmountOut",
          "type": "uint256"
        }
      ],
      "stateMutability": "nonpayable",
      "type": "function"
    },
    {
      "inputs": [],
      "name": "name",
      "outputs": [
        {
          "internalType": "string",
          "name": "",
          "type": "string"
        }
      ],
      "stateMutability": "view",
      "type": "function"
    },
    {
      "inputs": [
        {
          "internalType": "address",
          "name": "owner",
          "type": "address"
        }
      ],
      "name": "nonces",
      "outputs": [
        {
          "internalType": "uint256",
          "name": "",
          "type": "uint256"
        }
      ],
      "stateMutability": "view",
      "type": "function"
    },
    {
      "inputs": [
        {
          "internalType": "address",
          "name": "owner",
          "type": "address"
        },
        {
          "internalType": "address",
          "name": "spender",
          "type": "address"
        },
        {
          "internalType": "uint256",
          "name": "value",
          "type": "uint256"
        },
        {
          "internalType": "uint256",
          "name": "deadline",
          "type": "uint256"
        },
        {
          "internalType": "uint8",
          "name": "v",
          "type": "uint8"
        },
        {
          "internalType": "bytes32",
          "name": "r",
          "type": "bytes32"
        },
        {
          "internalType": "bytes32",
          "name": "s",
          "type": "bytes32"
        }
      ],
      "name": "permit",
      "outputs": [],
      "stateMutability": "nonpayable",
      "type": "function"
    },
    {
      "inputs": [],
      "name": "symbol",
      "outputs": [
        {
          "internalType": "string",
          "name": "",
          "type": "string"
        }
      ],
      "stateMutability": "view",
      "type": "function"
    },
    {
      "inputs": [],
      "name": "totalSupply",
      "outputs": [
        {
          "internalType": "uint256",
          "name": "",
          "type": "uint256"
        }
      ],
      "stateMutability": "view",
      "type": "function"
    },
    {
      "inputs": [
        {
          "internalType": "address",
          "name": "to",
          "type": "address"
        },
        {
          "internalType": "uint256",
          "name": "amount",
          "type": "uint256"
        }
      ],
      "name": "transfer",
      "outputs": [
        {
          "internalType": "bool",
          "name": "",
          "type": "bool"
        }
      ],
      "stateMutability": "nonpayable",
      "type": "function"
    },
    {
      "inputs": [
        {
          "internalType": "address",
          "name": "from",
          "type": "address"
        },
        {
          "internalType": "address",
          "name": "to",
          "type": "address"
        },
        {
          "internalType": "uint256",
          "name": "amount",
          "type": "uint256"
        }
      ],
      "name": "transferFrom",
      "outputs": [
        {
          "internalType": "bool",
          "name": "",
          "type": "bool"
        }
      ],
      "stateMutability": "nonpayable",
      "type": "function"
    },
    {
      "inputs": [
        {
          "internalType": "uint256",
          "name": "wozAmountIn_",
          "type": "uint256"
        },
        {
          "internalType": "address",
          "name": "receiver_",
          "type": "address"
        },
        {
          "internalType": "address",
          "name": "owner_",
          "type": "address"
        }
      ],
      "name": "unwrap",
      "outputs": [
        {
          "internalType": "uint256",
          "name": "ozTokensOut",
          "type": "uint256"
        }
      ],
      "stateMutability": "nonpayable",
      "type": "function"
    },
    {
      "inputs": [
        {
          "internalType": "uint256",
          "name": "ozAmountIn_",
          "type": "uint256"
        },
        {
          "internalType": "address",
          "name": "owner_",
          "type": "address"
        },
        {
          "internalType": "address",
          "name": "receiver_",
          "type": "address"
        }
      ],
      "name": "wrap",
      "outputs": [
        {
          "internalType": "uint256",
          "name": "wozAmountOut",
          "type": "uint256"
        }
      ],
      "stateMutability": "nonpayable",
      "type": "function"
    }
  ],
  "bytecode": {
    "object": "0x608060405234801561001057600080fd5b5061001961001e565b6100de565b600054610100900460ff161561008a5760405162461bcd60e51b815260206004820152602760248201527f496e697469616c697a61626c653a20636f6e747261637420697320696e697469604482015266616c697a696e6760c81b606482015260840160405180910390fd5b60005460ff90811610156100dc576000805460ff191660ff9081179091556040519081527f7f26b83ff96e1f2b6a682f133852f6798a09c465da95921460cefb38474024989060200160405180910390a15b565b6120da80620000ee6000396000f3fe608060405234801561001057600080fd5b50600436106101425760003560e01c806370a08231116100b8578063a457c2d71161007c578063a457c2d71461029f578063a9059cbb146102b2578063d505accf146102c5578063dd62ed3e146102d8578063eb647833146102eb578063fb183a02146102fe57600080fd5b806370a08231146102335780637ecebe001461025c5780638f15b4141461026f57806395d89b4114610284578063a40f28121461028c57600080fd5b80633644e5151161010a5780633644e515146101bc57806338d52e0f146101c457806339509351146101e957806341c8bcc3146101fc5780634cbcdd8b1461020d5780636e6deeba1461022057600080fd5b806306fdde0314610147578063095ea7b31461016557806318160ddd1461018857806323b872dd1461019a578063313ce567146101ad575b600080fd5b61014f610311565b60405161015c9190611934565b60405180910390f35b61017861017336600461195c565b6103a3565b604051901515815260200161015c565b6035545b60405190815260200161015c565b6101786101a8366004611988565b6103bd565b6040516012815260200161015c565b61018c6103e3565b60cd546001600160a01b03165b6040516001600160a01b03909116815260200161015c565b6101786101f736600461195c565b6103f2565b60cc546001600160a01b03166101d1565b61018c61021b3660046119c9565b610414565b61018c61022e3660046119e2565b61051e565b61018c610241366004611a24565b6001600160a01b031660009081526033602052604090205490565b61018c61026a366004611a24565b61055d565b61028261027d366004611b29565b61057b565b005b61014f6106d0565b61018c61029a3660046119c9565b6106df565b6101786102ad36600461195c565b6107e1565b6101786102c036600461195c565b610867565b6102826102d3366004611bb2565b610875565b61018c6102e6366004611c29565b6109d9565b61018c6102f9366004611c62565b610a04565b61018c61030c3660046119e2565b610b1b565b60606036805461032090611cbd565b80601f016020809104026020016040519081016040528092919081815260200182805461034c90611cbd565b80156103995780601f1061036e57610100808354040283529160200191610399565b820191906000526020600020905b81548152906001019060200180831161037c57829003601f168201915b5050505050905090565b6000336103b1818585610b49565b60019150505b92915050565b6000336103cb858285610c6e565b6103d6858585610ce8565b60019150505b9392505050565b60006103ed610eb6565b905090565b6000336103b181858561040583836109d9565b61040f9190611d07565b610b49565b60006103b760cd60009054906101000a90046001600160a01b03166001600160a01b0316633a98ef396040518163ffffffff1660e01b8152600401602060405180830381865afa15801561046c573d6000803e3d6000fd5b505050506040513d601f19601f820116820180604052508101906104909190611d1a565b61049f9064e8d4a51000611d33565b60cd60009054906101000a90046001600160a01b03166001600160a01b03166318160ddd6040518163ffffffff1660e01b8152600401602060405180830381865afa1580156104f2573d6000803e3d6000fd5b505050506040513d601f19601f820116820180604052508101906105169190611d1a565b849190610f31565b600061052984610414565b90506001600160a01b03831630146105535760cd54610553906001600160a01b0316843087610f4f565b6103dc8282610fba565b6001600160a01b0381166000908152609960205260408120546103b7565b600054610100900460ff161580801561059b5750600054600160ff909116105b806105b55750303b1580156105b5575060005460ff166001145b61061d5760405162461bcd60e51b815260206004820152602e60248201527f496e697469616c697a61626c653a20636f6e747261637420697320616c72656160448201526d191e481a5b9a5d1a585b1a5e995960921b60648201526084015b60405180910390fd5b6000805460ff191660011790558015610640576000805461ff0019166101001790555b61064a858561109a565b610653856110cb565b60cc80546001600160a01b038085166001600160a01b03199283161790925560cd80549286169290911691909117905580156106c9576000805461ff0019169055604051600181527f7f26b83ff96e1f2b6a682f133852f6798a09c465da95921460cefb38474024989060200160405180910390a15b5050505050565b60606037805461032090611cbd565b60006103b760cd60009054906101000a90046001600160a01b03166001600160a01b03166318160ddd6040518163ffffffff1660e01b8152600401602060405180830381865afa158015610737573d6000803e3d6000fd5b505050506040513d601f19601f8201168201806040525081019061075b9190611d1a565b60cd60009054906101000a90046001600160a01b03166001600160a01b0316633a98ef396040518163ffffffff1660e01b8152600401602060405180830381865afa1580156107ae573d6000803e3d6000fd5b505050506040513d601f19601f820116820180604052508101906107d29190611d1a565b6105169064e8d4a51000611d33565b600033816107ef82866109d9565b90508381101561084f5760405162461bcd60e51b815260206004820152602560248201527f45524332303a2064656372656173656420616c6c6f77616e63652062656c6f77604482015264207a65726f60d81b6064820152608401610614565b61085c8286868403610b49565b506001949350505050565b6000336103b1818585610ce8565b834211156108c55760405162461bcd60e51b815260206004820152601d60248201527f45524332305065726d69743a206578706972656420646561646c696e650000006044820152606401610614565b60007f6e71edae12b1b97f4d1f60370fef10105fa2faae0126114a169c64845d6126c98888886108f48c611118565b6040805160208101969096526001600160a01b0394851690860152929091166060840152608083015260a082015260c0810186905260e001604051602081830303815290604052805190602001209050600061094f82611140565b9050600061095f8287878761118e565b9050896001600160a01b0316816001600160a01b0316146109c25760405162461bcd60e51b815260206004820152601e60248201527f45524332305065726d69743a20696e76616c6964207369676e617475726500006044820152606401610614565b6109cd8a8a8a610b49565b50505050505050505050565b6001600160a01b03918216600090815260346020908152604080832093909416825291909152205490565b6000806000610a12856111b6565b60cd54604051630cae37f160e01b81529294509092506000916001600160a01b0390911690630cae37f190610a4d9086908990600401611d4a565b6020604051808303816000875af1158015610a6c573d6000803e3d6000fd5b505050506040513d601f19601f82011682018060405250810190610a909190611d1a565b60cd546040516303d1689d60e11b8152600481018390529192506000916001600160a01b03909116906307a2d13a90602401602060405180830381865afa158015610adf573d6000803e3d6000fd5b505050506040513d601f19601f82011682018060405250810190610b039190611d1a565b9050610b1081308561051e565b979650505050505050565b6000610b26846106df565b9050610b328285611202565b60cd546103dc906001600160a01b0316848361134d565b6001600160a01b038316610bab5760405162461bcd60e51b8152602060048201526024808201527f45524332303a20617070726f76652066726f6d20746865207a65726f206164646044820152637265737360e01b6064820152608401610614565b6001600160a01b038216610c0c5760405162461bcd60e51b815260206004820152602260248201527f45524332303a20617070726f766520746f20746865207a65726f206164647265604482015261737360f01b6064820152608401610614565b6001600160a01b0383811660008181526034602090815260408083209487168084529482529182902085905590518481527f8c5be1e5ebec7d5bd14f71427d1e84f3dd0314c0f7b2291e5b200ac8c7c3b92591015b60405180910390a3505050565b6000610c7a84846109d9565b90506000198114610ce25781811015610cd55760405162461bcd60e51b815260206004820152601d60248201527f45524332303a20696e73756666696369656e7420616c6c6f77616e63650000006044820152606401610614565b610ce28484848403610b49565b50505050565b6001600160a01b038316610d4c5760405162461bcd60e51b815260206004820152602560248201527f45524332303a207472616e736665722066726f6d20746865207a65726f206164604482015264647265737360d81b6064820152608401610614565b6001600160a01b038216610dae5760405162461bcd60e51b815260206004820152602360248201527f45524332303a207472616e7366657220746f20746865207a65726f206164647260448201526265737360e81b6064820152608401610614565b6001600160a01b03831660009081526033602052604090205481811015610e265760405162461bcd60e51b815260206004820152602660248201527f45524332303a207472616e7366657220616d6f756e7420657863656564732062604482015265616c616e636560d01b6064820152608401610614565b6001600160a01b03808516600090815260336020526040808220858503905591851681529081208054849290610e5d908490611d07565b92505081905550826001600160a01b0316846001600160a01b03167fddf252ad1be2c89b69c2b068fc378daa952ba7f163c4a11628f55a4df523b3ef84604051610ea991815260200190565b60405180910390a3610ce2565b60006103ed7f8b73c3c69bb8fe3d512ecc4cf759cc79239f7b179b0ffacaa9a75d522b39400f610ee560655490565b6066546040805160208101859052908101839052606081018290524660808201523060a082015260009060c0016040516020818303038152906040528051906020012090509392505050565b6000826000190484118302158202610f4857600080fd5b5091020490565b6040516001600160a01b0380851660248301528316604482015260648101829052610ce29085906323b872dd60e01b906084015b60408051601f198184030181529190526020810180516001600160e01b03166001600160e01b03199093169290921790915261137d565b6001600160a01b0382166110105760405162461bcd60e51b815260206004820152601f60248201527f45524332303a206d696e7420746f20746865207a65726f2061646472657373006044820152606401610614565b80603560008282546110229190611d07565b90915550506001600160a01b0382166000908152603360205260408120805483929061104f908490611d07565b90915550506040518181526001600160a01b038316906000907fddf252ad1be2c89b69c2b068fc378daa952ba7f163c4a11628f55a4df523b3ef9060200160405180910390a35b5050565b600054610100900460ff166110c15760405162461bcd60e51b815260040161061490611d74565b611096828261144f565b600054610100900460ff166110f25760405162461bcd60e51b815260040161061490611d74565b61111581604051806040016040528060018152602001603160f81b81525061148f565b50565b6001600160a01b03811660009081526099602052604090208054600181018255905b50919050565b60006103b761114d610eb6565b8360405161190160f01b6020820152602281018390526042810182905260009060620160405160208183030381529060405280519060200120905092915050565b600080600061119f878787876114d0565b915091506111ac816115bd565b5095945050505050565b60606000806000848060200190518101906111d19190611dcf565b9150915081306040516020016111e8929190611ec0565b60408051601f198184030181529190529590945092505050565b6001600160a01b0382166112625760405162461bcd60e51b815260206004820152602160248201527f45524332303a206275726e2066726f6d20746865207a65726f206164647265736044820152607360f81b6064820152608401610614565b6001600160a01b038216600090815260336020526040902054818110156112d65760405162461bcd60e51b815260206004820152602260248201527f45524332303a206275726e20616d6f756e7420657863656564732062616c616e604482015261636560f01b6064820152608401610614565b6001600160a01b0383166000908152603360205260408120838303905560358054849290611305908490611f2f565b90915550506040518281526000906001600160a01b038516907fddf252ad1be2c89b69c2b068fc378daa952ba7f163c4a11628f55a4df523b3ef90602001610c61565b505050565b6040516001600160a01b03831660248201526044810182905261134890849063a9059cbb60e01b90606401610f83565b60006113d2826040518060400160405280602081526020017f5361666545524332303a206c6f772d6c6576656c2063616c6c206661696c6564815250856001600160a01b03166117739092919063ffffffff16565b80519091501561134857808060200190518101906113f09190611f42565b6113485760405162461bcd60e51b815260206004820152602a60248201527f5361666545524332303a204552433230206f7065726174696f6e20646964206e6044820152691bdd081cdd58d8d9595960b21b6064820152608401610614565b600054610100900460ff166114765760405162461bcd60e51b815260040161061490611d74565b60366114828382611fb2565b5060376113488282611fb2565b600054610100900460ff166114b65760405162461bcd60e51b815260040161061490611d74565b815160209283012081519190920120606591909155606655565b6000807f7fffffffffffffffffffffffffffffff5d576e7357a4501ddfe92f46681b20a083111561150757506000905060036115b4565b8460ff16601b1415801561151f57508460ff16601c14155b1561153057506000905060046115b4565b6040805160008082526020820180845289905260ff881692820192909252606081018690526080810185905260019060a0016020604051602081039080840390855afa158015611584573d6000803e3d6000fd5b5050604051601f1901519150506001600160a01b0381166115ad576000600192509250506115b4565b9150600090505b94509492505050565b60008160048111156115d1576115d1612072565b036115d95750565b60018160048111156115ed576115ed612072565b0361163a5760405162461bcd60e51b815260206004820152601860248201527f45434453413a20696e76616c6964207369676e617475726500000000000000006044820152606401610614565b600281600481111561164e5761164e612072565b0361169b5760405162461bcd60e51b815260206004820152601f60248201527f45434453413a20696e76616c6964207369676e6174757265206c656e677468006044820152606401610614565b60038160048111156116af576116af612072565b036117075760405162461bcd60e51b815260206004820152602260248201527f45434453413a20696e76616c6964207369676e6174757265202773272076616c604482015261756560f01b6064820152608401610614565b600481600481111561171b5761171b612072565b036111155760405162461bcd60e51b815260206004820152602260248201527f45434453413a20696e76616c6964207369676e6174757265202776272076616c604482015261756560f01b6064820152608401610614565b6060611782848460008561178a565b949350505050565b6060824710156117eb5760405162461bcd60e51b815260206004820152602660248201527f416464726573733a20696e73756666696369656e742062616c616e636520666f6044820152651c8818d85b1b60d21b6064820152608401610614565b6001600160a01b0385163b6118425760405162461bcd60e51b815260206004820152601d60248201527f416464726573733a2063616c6c20746f206e6f6e2d636f6e74726163740000006044820152606401610614565b600080866001600160a01b0316858760405161185e9190612088565b60006040518083038185875af1925050503d806000811461189b576040519150601f19603f3d011682016040523d82523d6000602084013e6118a0565b606091505b5091509150610b10828286606083156118ba5750816103dc565b8251156118ca5782518084602001fd5b8160405162461bcd60e51b81526004016106149190611934565b60005b838110156118ff5781810151838201526020016118e7565b50506000910152565b600081518084526119208160208601602086016118e4565b601f01601f19169290920160200192915050565b6020815260006103dc6020830184611908565b6001600160a01b038116811461111557600080fd5b6000806040838503121561196f57600080fd5b823561197a81611947565b946020939093013593505050565b60008060006060848603121561199d57600080fd5b83356119a881611947565b925060208401356119b881611947565b929592945050506040919091013590565b6000602082840312156119db57600080fd5b5035919050565b6000806000606084860312156119f757600080fd5b833592506020840135611a0981611947565b91506040840135611a1981611947565b809150509250925092565b600060208284031215611a3657600080fd5b81356103dc81611947565b634e487b7160e01b600052604160045260246000fd5b6040805190810167ffffffffffffffff81118282101715611a7a57611a7a611a41565b60405290565b604051601f8201601f1916810167ffffffffffffffff81118282101715611aa957611aa9611a41565b604052919050565b600067ffffffffffffffff831115611acb57611acb611a41565b611ade601f8401601f1916602001611a80565b9050828152838383011115611af257600080fd5b828260208301376000602084830101529392505050565b600082601f830112611b1a57600080fd5b6103dc83833560208501611ab1565b60008060008060808587031215611b3f57600080fd5b843567ffffffffffffffff80821115611b5757600080fd5b611b6388838901611b09565b95506020870135915080821115611b7957600080fd5b50611b8687828801611b09565b9350506040850135611b9781611947565b91506060850135611ba781611947565b939692955090935050565b600080600080600080600060e0888a031215611bcd57600080fd5b8735611bd881611947565b96506020880135611be881611947565b95506040880135945060608801359350608088013560ff81168114611c0c57600080fd5b9699959850939692959460a0840135945060c09093013592915050565b60008060408385031215611c3c57600080fd5b8235611c4781611947565b91506020830135611c5781611947565b809150509250929050565b60008060408385031215611c7557600080fd5b823567ffffffffffffffff811115611c8c57600080fd5b8301601f81018513611c9d57600080fd5b611cac85823560208401611ab1565b9250506020830135611c5781611947565b600181811c90821680611cd157607f821691505b60208210810361113a57634e487b7160e01b600052602260045260246000fd5b634e487b7160e01b600052601160045260246000fd5b808201808211156103b7576103b7611cf1565b600060208284031215611d2c57600080fd5b5051919050565b80820281158282048414176103b7576103b7611cf1565b604081526000611d5d6040830185611908565b905060018060a01b03831660208301529392505050565b6020808252602b908201527f496e697469616c697a61626c653a20636f6e7472616374206973206e6f74206960408201526a6e697469616c697a696e6760a81b606082015260800190565b8051611dca81611947565b919050565b60008060408385031215611de257600080fd5b825167ffffffffffffffff80821115611dfa57600080fd5b9084019060408287031215611e0e57600080fd5b611e16611a57565b8251815260208084015183811115611e2d57600080fd5b80850194505087601f850112611e4257600080fd5b835183811115611e5457611e54611a41565b8060051b9350611e65828501611a80565b818152938501820193828101908a861115611e7f57600080fd5b958301955b85871015611e9d57865182529583019590830190611e84565b8084860152505050819550611eb3818801611dbf565b9450505050509250929050565b60408152600060808201845160408401526020808601516040606086015282815180855260a0870191508383019450600092505b80831015611f145784518252938301936001929092019190830190611ef4565b506001600160a01b0396909616919094015250919392505050565b818103818111156103b7576103b7611cf1565b600060208284031215611f5457600080fd5b815180151581146103dc57600080fd5b601f82111561134857600081815260208120601f850160051c81016020861015611f8b5750805b601f850160051c820191505b81811015611faa57828155600101611f97565b505050505050565b815167ffffffffffffffff811115611fcc57611fcc611a41565b611fe081611fda8454611cbd565b84611f64565b602080601f8311600181146120155760008415611ffd5750858301515b600019600386901b1c1916600185901b178555611faa565b600085815260208120601f198616915b8281101561204457888601518255948401946001909101908401612025565b50858210156120625787850151600019600388901b60f8161c191681555b5050505050600190811b01905550565b634e487b7160e01b600052602160045260246000fd5b6000825161209a8184602087016118e4565b919091019291505056fea2646970667358221220fe9766ebb4cdf98c6bf0045f9311d1250b2bf86e71ed5112efa2aac96d7df31d64736f6c63430008150033",
    "linkReferences": {}
  },
  "methodIdentifiers": {
    "DOMAIN_SEPARATOR()": "3644e515",
    "OZ()": "41c8bcc3",
    "allowance(address,address)": "dd62ed3e",
    "approve(address,uint256)": "095ea7b3",
    "asset()": "38d52e0f",
    "balanceOf(address)": "70a08231",
    "decimals()": "313ce567",
    "decreaseAllowance(address,uint256)": "a457c2d7",
    "getOzAmount(uint256)": "a40f2812",
    "getWozAmount(uint256)": "4cbcdd8b",
    "increaseAllowance(address,uint256)": "39509351",
    "initialize(string,string,address,address)": "8f15b414",
    "mintAndWrap(bytes,address)": "eb647833",
    "name()": "06fdde03",
    "nonces(address)": "7ecebe00",
    "permit(address,address,uint256,uint256,uint8,bytes32,bytes32)": "d505accf",
    "symbol()": "95d89b41",
    "totalSupply()": "18160ddd",
    "transfer(address,uint256)": "a9059cbb",
    "transferFrom(address,address,uint256)": "23b872dd",
    "unwrap(uint256,address,address)": "fb183a02",
    "wrap(uint256,address,address)": "6e6deeba"
  },
  "id": 48
}