{
  "abi": [
    {
      "inputs": [],
      "stateMutability": "nonpayable",
      "type": "constructor"
    },
    {
      "anonymous": false,
      "inputs": [
        {
          "indexed": true,
          "internalType": "address",
          "name": "owner",
          "type": "address"
        },
        {
          "indexed": true,
          "internalType": "address",
          "name": "spender",
          "type": "address"
        },
        {
          "indexed": false,
          "internalType": "uint256",
          "name": "value",
          "type": "uint256"
        }
      ],
      "name": "Approval",
      "type": "event"
    },
    {
      "anonymous": false,
      "inputs": [
        {
          "indexed": false,
          "internalType": "uint8",
          "name": "version",
          "type": "uint8"
        }
      ],
      "name": "Initialized",
      "type": "event"
    },
    {
      "anonymous": false,
      "inputs": [
        {
          "indexed": true,
          "internalType": "address",
          "name": "from",
          "type": "address"
        },
        {
          "indexed": true,
          "internalType": "address",
          "name": "to",
          "type": "address"
        },
        {
          "indexed": false,
          "internalType": "uint256",
          "name": "value",
          "type": "uint256"
        }
      ],
      "name": "Transfer",
      "type": "event"
    },
    {
      "inputs": [],
      "name": "DOMAIN_SEPARATOR",
      "outputs": [
        {
          "internalType": "bytes32",
          "name": "",
          "type": "bytes32"
        }
      ],
      "stateMutability": "view",
      "type": "function"
    },
    {
      "inputs": [],
      "name": "OZ",
      "outputs": [
        {
          "internalType": "contract ozIDiamond",
          "name": "",
          "type": "address"
        }
      ],
      "stateMutability": "view",
      "type": "function"
    },
    {
      "inputs": [
        {
          "internalType": "address",
          "name": "owner",
          "type": "address"
        },
        {
          "internalType": "address",
          "name": "spender",
          "type": "address"
        }
      ],
      "name": "allowance",
      "outputs": [
        {
          "internalType": "uint256",
          "name": "",
          "type": "uint256"
        }
      ],
      "stateMutability": "view",
      "type": "function"
    },
    {
      "inputs": [
        {
          "internalType": "address",
          "name": "spender",
          "type": "address"
        },
        {
          "internalType": "uint256",
          "name": "amount",
          "type": "uint256"
        }
      ],
      "name": "approve",
      "outputs": [
        {
          "internalType": "bool",
          "name": "",
          "type": "bool"
        }
      ],
      "stateMutability": "nonpayable",
      "type": "function"
    },
    {
      "inputs": [
        {
          "internalType": "address",
          "name": "account",
          "type": "address"
        }
      ],
      "name": "balanceOf",
      "outputs": [
        {
          "internalType": "uint256",
          "name": "",
          "type": "uint256"
        }
      ],
      "stateMutability": "view",
      "type": "function"
    },
    {
      "inputs": [],
      "name": "decimals",
      "outputs": [
        {
          "internalType": "uint8",
          "name": "",
          "type": "uint8"
        }
      ],
      "stateMutability": "view",
      "type": "function"
    },
    {
      "inputs": [
        {
          "internalType": "address",
          "name": "spender",
          "type": "address"
        },
        {
          "internalType": "uint256",
          "name": "subtractedValue",
          "type": "uint256"
        }
      ],
      "name": "decreaseAllowance",
      "outputs": [
        {
          "internalType": "bool",
          "name": "",
          "type": "bool"
        }
      ],
      "stateMutability": "nonpayable",
      "type": "function"
    },
    {
      "inputs": [],
      "name": "getHello",
      "outputs": [],
      "stateMutability": "view",
      "type": "function"
    },
    {
      "inputs": [
        {
          "internalType": "uint256",
          "name": "wozAmount_",
          "type": "uint256"
        }
      ],
      "name": "getOzAmount",
      "outputs": [
        {
          "internalType": "uint256",
          "name": "",
          "type": "uint256"
        }
      ],
      "stateMutability": "view",
      "type": "function"
    },
    {
      "inputs": [
        {
          "internalType": "uint256",
          "name": "ozAmount_",
          "type": "uint256"
        }
      ],
      "name": "getWozAmount",
      "outputs": [
        {
          "internalType": "uint256",
          "name": "",
          "type": "uint256"
        }
      ],
      "stateMutability": "view",
      "type": "function"
    },
    {
      "inputs": [
        {
          "internalType": "address",
          "name": "spender",
          "type": "address"
        },
        {
          "internalType": "uint256",
          "name": "addedValue",
          "type": "uint256"
        }
      ],
      "name": "increaseAllowance",
      "outputs": [
        {
          "internalType": "bool",
          "name": "",
          "type": "bool"
        }
      ],
      "stateMutability": "nonpayable",
      "type": "function"
    },
    {
      "inputs": [
        {
          "internalType": "string",
          "name": "name_",
          "type": "string"
        },
        {
          "internalType": "string",
          "name": "symbol_",
          "type": "string"
        },
        {
          "internalType": "address",
          "name": "asset_",
          "type": "address"
        },
        {
          "internalType": "address",
          "name": "ozDiamond_",
          "type": "address"
        }
      ],
      "name": "initialize",
      "outputs": [],
      "stateMutability": "nonpayable",
      "type": "function"
    },
    {
      "inputs": [],
      "name": "name",
      "outputs": [
        {
          "internalType": "string",
          "name": "",
          "type": "string"
        }
      ],
      "stateMutability": "view",
      "type": "function"
    },
    {
      "inputs": [
        {
          "internalType": "address",
          "name": "owner",
          "type": "address"
        }
      ],
      "name": "nonces",
      "outputs": [
        {
          "internalType": "uint256",
          "name": "",
          "type": "uint256"
        }
      ],
      "stateMutability": "view",
      "type": "function"
    },
    {
      "inputs": [
        {
          "internalType": "address",
          "name": "owner",
          "type": "address"
        },
        {
          "internalType": "address",
          "name": "spender",
          "type": "address"
        },
        {
          "internalType": "uint256",
          "name": "value",
          "type": "uint256"
        },
        {
          "internalType": "uint256",
          "name": "deadline",
          "type": "uint256"
        },
        {
          "internalType": "uint8",
          "name": "v",
          "type": "uint8"
        },
        {
          "internalType": "bytes32",
          "name": "r",
          "type": "bytes32"
        },
        {
          "internalType": "bytes32",
          "name": "s",
          "type": "bytes32"
        }
      ],
      "name": "permit",
      "outputs": [],
      "stateMutability": "nonpayable",
      "type": "function"
    },
    {
      "inputs": [],
      "name": "symbol",
      "outputs": [
        {
          "internalType": "string",
          "name": "",
          "type": "string"
        }
      ],
      "stateMutability": "view",
      "type": "function"
    },
    {
      "inputs": [],
      "name": "totalSupply",
      "outputs": [
        {
          "internalType": "uint256",
          "name": "",
          "type": "uint256"
        }
      ],
      "stateMutability": "view",
      "type": "function"
    },
    {
      "inputs": [
        {
          "internalType": "address",
          "name": "to",
          "type": "address"
        },
        {
          "internalType": "uint256",
          "name": "amount",
          "type": "uint256"
        }
      ],
      "name": "transfer",
      "outputs": [
        {
          "internalType": "bool",
          "name": "",
          "type": "bool"
        }
      ],
      "stateMutability": "nonpayable",
      "type": "function"
    },
    {
      "inputs": [
        {
          "internalType": "address",
          "name": "from",
          "type": "address"
        },
        {
          "internalType": "address",
          "name": "to",
          "type": "address"
        },
        {
          "internalType": "uint256",
          "name": "amount",
          "type": "uint256"
        }
      ],
      "name": "transferFrom",
      "outputs": [
        {
          "internalType": "bool",
          "name": "",
          "type": "bool"
        }
      ],
      "stateMutability": "nonpayable",
      "type": "function"
    },
    {
      "inputs": [
        {
          "internalType": "uint256",
          "name": "wozAmountIn_",
          "type": "uint256"
        },
        {
          "internalType": "address",
          "name": "receiver_",
          "type": "address"
        },
        {
          "internalType": "address",
          "name": "owner_",
          "type": "address"
        }
      ],
      "name": "unwrap",
      "outputs": [],
      "stateMutability": "nonpayable",
      "type": "function"
    },
    {
      "inputs": [
        {
          "internalType": "uint256",
          "name": "amountIn_",
          "type": "uint256"
        },
        {
          "internalType": "address",
          "name": "receiver_",
          "type": "address"
        }
      ],
      "name": "wrap",
      "outputs": [
        {
          "internalType": "uint256",
          "name": "",
          "type": "uint256"
        }
      ],
      "stateMutability": "nonpayable",
      "type": "function"
    }
  ],
  "bytecode": {
    "object": "0x608060405234801561001057600080fd5b5061001961001e565b6100de565b600054610100900460ff161561008a5760405162461bcd60e51b815260206004820152602760248201527f496e697469616c697a61626c653a20636f6e747261637420697320696e697469604482015266616c697a696e6760c81b606482015260840160405180910390fd5b60005460ff90811610156100dc576000805460ff191660ff9081179091556040519081527f7f26b83ff96e1f2b6a682f133852f6798a09c465da95921460cefb38474024989060200160405180910390a15b565b611819806100ed6000396000f3fe608060405234801561001057600080fd5b50600436106101375760003560e01c806370a08231116100b8578063a40f28121161007c578063a40f281214610272578063a457c2d714610285578063a9059cbb14610298578063d505accf146102ab578063dd62ed3e146102c2578063fb183a02146102d557600080fd5b806370a08231146102105780637ecebe00146102395780638da9b7721461024d5780638f15b4141461025757806395d89b411461026a57600080fd5b8063313ce567116100ff578063313ce567146101b95780633644e515146101c857806339509351146101cf57806341c8bcc3146101e25780634cbcdd8b146101fd57600080fd5b806306fdde031461013c578063095ea7b31461015a57806313bac8201461017d57806318160ddd1461019e57806323b872dd146101a6575b600080fd5b6101446102e8565b6040516101519190611290565b60405180910390f35b61016d6101683660046112df565b61037a565b6040519015158152602001610151565b61019061018b366004611309565b610394565b604051908152602001610151565b603554610190565b61016d6101b4366004611335565b6103cc565b60405160128152602001610151565b6000610190565b61016d6101dd3660046112df565b6103f2565b6099546040516001600160a01b039091168152602001610151565b61019061020b366004611371565b610414565b61019061021e36600461138a565b6001600160a01b031660009081526033602052604090205490565b61019061024736600461138a565b50600090565b610255610501565b005b610255610265366004611448565b61050d565b61014461067c565b610190610280366004611371565b61068b565b61016d6102933660046112df565b610770565b61016d6102a63660046112df565b6107f6565b6102556102b93660046114cd565b50505050505050565b6101906102d0366004611540565b610804565b6102556102e336600461156a565b61082f565b6060603680546102f7906115a6565b80601f0160208091040260200160405190810160405280929190818152602001828054610323906115a6565b80156103705780601f1061034557610100808354040283529160200191610370565b820191906000526020600020905b81548152906001019060200180831161035357829003601f168201915b5050505050905090565b6000336103888185856108bd565b60019150505b92915050565b6000806103a084610414565b609a549091506103bb906001600160a01b03163330876109e2565b6103c58382610a42565b5092915050565b6000336103da858285610b22565b6103e5858585610b96565b60019150505b9392505050565b6000336103888185856104058383610804565b61040f91906115f6565b6108bd565b609a5460408051633a98ef3960e01b815290516000926001600160a01b0316916103eb918391633a98ef399160048083019260209291908290030181865afa158015610464573d6000803e3d6000fd5b505050506040513d601f19601f820116820180604052508101906104889190611609565b6104979064e8d4a51000611622565b826001600160a01b03166318160ddd6040518163ffffffff1660e01b8152600401602060405180830381865afa1580156104d5573d6000803e3d6000fd5b505050506040513d601f19601f820116820180604052508101906104f99190611609565b859190610d64565b61050b6017610d82565b565b600054610100900460ff161580801561052d5750600054600160ff909116105b806105475750303b158015610547575060005460ff166001145b6105af5760405162461bcd60e51b815260206004820152602e60248201527f496e697469616c697a61626c653a20636f6e747261637420697320616c72656160448201526d191e481a5b9a5d1a585b1a5e995960921b60648201526084015b60405180910390fd5b6000805460ff1916600117905580156105d2576000805461ff0019166101001790555b6105dc8585610dca565b6105ff85604051806040016040528060018152602001603160f81b815250610dfb565b609980546001600160a01b038085166001600160a01b031992831617909255609a8054928616929091169190911790558015610675576000805461ff0019169055604051600181527f7f26b83ff96e1f2b6a682f133852f6798a09c465da95921460cefb38474024989060200160405180910390a15b5050505050565b6060603780546102f7906115a6565b609a54604080516318160ddd60e01b815290516000926001600160a01b0316916103eb9183916318160ddd9160048083019260209291908290030181865afa1580156106db573d6000803e3d6000fd5b505050506040513d601f19601f820116820180604052508101906106ff9190611609565b826001600160a01b0316633a98ef396040518163ffffffff1660e01b8152600401602060405180830381865afa15801561073d573d6000803e3d6000fd5b505050506040513d601f19601f820116820180604052508101906107619190611609565b6104f99064e8d4a51000611622565b6000338161077e8286610804565b9050838110156107de5760405162461bcd60e51b815260206004820152602560248201527f45524332303a2064656372656173656420616c6c6f77616e63652062656c6f77604482015264207a65726f60d81b60648201526084016105a6565b6107eb82868684036108bd565b506001949350505050565b600033610388818585610b96565b6001600160a01b03918216600090815260346020908152604080832093909416825291909152205490565b600061083a8461068b565b90506108468285610e2c565b609a5460405163a9059cbb60e01b81526001600160a01b038581166004830152602482018490529091169063a9059cbb906044016020604051808303816000875af1158015610899573d6000803e3d6000fd5b505050506040513d601f19601f820116820180604052508101906106759190611639565b6001600160a01b03831661091f5760405162461bcd60e51b8152602060048201526024808201527f45524332303a20617070726f76652066726f6d20746865207a65726f206164646044820152637265737360e01b60648201526084016105a6565b6001600160a01b0382166109805760405162461bcd60e51b815260206004820152602260248201527f45524332303a20617070726f766520746f20746865207a65726f206164647265604482015261737360f01b60648201526084016105a6565b6001600160a01b0383811660008181526034602090815260408083209487168084529482529182902085905590518481527f8c5be1e5ebec7d5bd14f71427d1e84f3dd0314c0f7b2291e5b200ac8c7c3b92591015b60405180910390a3505050565b604080516001600160a01b0385811660248301528416604482015260648082018490528251808303909101815260849091019091526020810180516001600160e01b03166323b872dd60e01b179052610a3c908590610f77565b50505050565b6001600160a01b038216610a985760405162461bcd60e51b815260206004820152601f60248201527f45524332303a206d696e7420746f20746865207a65726f20616464726573730060448201526064016105a6565b8060356000828254610aaa91906115f6565b90915550506001600160a01b03821660009081526033602052604081208054839290610ad79084906115f6565b90915550506040518181526001600160a01b038316906000907fddf252ad1be2c89b69c2b068fc378daa952ba7f163c4a11628f55a4df523b3ef9060200160405180910390a35b5050565b6000610b2e8484610804565b90506000198114610a3c5781811015610b895760405162461bcd60e51b815260206004820152601d60248201527f45524332303a20696e73756666696369656e7420616c6c6f77616e636500000060448201526064016105a6565b610a3c84848484036108bd565b6001600160a01b038316610bfa5760405162461bcd60e51b815260206004820152602560248201527f45524332303a207472616e736665722066726f6d20746865207a65726f206164604482015264647265737360d81b60648201526084016105a6565b6001600160a01b038216610c5c5760405162461bcd60e51b815260206004820152602360248201527f45524332303a207472616e7366657220746f20746865207a65726f206164647260448201526265737360e81b60648201526084016105a6565b6001600160a01b03831660009081526033602052604090205481811015610cd45760405162461bcd60e51b815260206004820152602660248201527f45524332303a207472616e7366657220616d6f756e7420657863656564732062604482015265616c616e636560d01b60648201526084016105a6565b6001600160a01b03808516600090815260336020526040808220858503905591851681529081208054849290610d0b9084906115f6565b92505081905550826001600160a01b0316846001600160a01b03167fddf252ad1be2c89b69c2b068fc378daa952ba7f163c4a11628f55a4df523b3ef84604051610d5791815260200190565b60405180910390a3610a3c565b6000826000190484118302158202610d7b57600080fd5b5091020490565b610dc781604051602401610d9891815260200190565b60408051601f198184030181529190526020810180516001600160e01b031663f5b1bba960e01b179052611049565b50565b600054610100900460ff16610df15760405162461bcd60e51b81526004016105a69061165b565b610b1e828261106a565b600054610100900460ff16610e225760405162461bcd60e51b81526004016105a69061165b565b610b1e82826110aa565b6001600160a01b038216610e8c5760405162461bcd60e51b815260206004820152602160248201527f45524332303a206275726e2066726f6d20746865207a65726f206164647265736044820152607360f81b60648201526084016105a6565b6001600160a01b03821660009081526033602052604090205481811015610f005760405162461bcd60e51b815260206004820152602260248201527f45524332303a206275726e20616d6f756e7420657863656564732062616c616e604482015261636560f01b60648201526084016105a6565b6001600160a01b0383166000908152603360205260408120838303905560358054849290610f2f9084906116a6565b90915550506040518281526000906001600160a01b038516907fddf252ad1be2c89b69c2b068fc378daa952ba7f163c4a11628f55a4df523b3ef906020016109d5565b505050565b6000610fcc826040518060400160405280602081526020017f5361666545524332303a206c6f772d6c6576656c2063616c6c206661696c6564815250856001600160a01b03166110eb9092919063ffffffff16565b805190915015610f725780806020019051810190610fea9190611639565b610f725760405162461bcd60e51b815260206004820152602a60248201527f5361666545524332303a204552433230206f7065726174696f6e20646964206e6044820152691bdd081cdd58d8d9595960b21b60648201526084016105a6565b80516a636f6e736f6c652e6c6f67602083016000808483855afa5050505050565b600054610100900460ff166110915760405162461bcd60e51b81526004016105a69061165b565b603661109d8382611707565b506037610f728282611707565b600054610100900460ff166110d15760405162461bcd60e51b81526004016105a69061165b565b815160209283012081519190920120606591909155606655565b60606110fa8484600085611102565b949350505050565b6060824710156111635760405162461bcd60e51b815260206004820152602660248201527f416464726573733a20696e73756666696369656e742062616c616e636520666f6044820152651c8818d85b1b60d21b60648201526084016105a6565b6001600160a01b0385163b6111ba5760405162461bcd60e51b815260206004820152601d60248201527f416464726573733a2063616c6c20746f206e6f6e2d636f6e747261637400000060448201526064016105a6565b600080866001600160a01b031685876040516111d691906117c7565b60006040518083038185875af1925050503d8060008114611213576040519150601f19603f3d011682016040523d82523d6000602084013e611218565b606091505b5091509150611228828286611233565b979650505050505050565b606083156112425750816103eb565b8251156112525782518084602001fd5b8160405162461bcd60e51b81526004016105a69190611290565b60005b8381101561128757818101518382015260200161126f565b50506000910152565b60208152600082518060208401526112af81604085016020870161126c565b601f01601f19169190910160400192915050565b80356001600160a01b03811681146112da57600080fd5b919050565b600080604083850312156112f257600080fd5b6112fb836112c3565b946020939093013593505050565b6000806040838503121561131c57600080fd5b8235915061132c602084016112c3565b90509250929050565b60008060006060848603121561134a57600080fd5b611353846112c3565b9250611361602085016112c3565b9150604084013590509250925092565b60006020828403121561138357600080fd5b5035919050565b60006020828403121561139c57600080fd5b6103eb826112c3565b634e487b7160e01b600052604160045260246000fd5b600082601f8301126113cc57600080fd5b813567ffffffffffffffff808211156113e7576113e76113a5565b604051601f8301601f19908116603f0116810190828211818310171561140f5761140f6113a5565b8160405283815286602085880101111561142857600080fd5b836020870160208301376000602085830101528094505050505092915050565b6000806000806080858703121561145e57600080fd5b843567ffffffffffffffff8082111561147657600080fd5b611482888389016113bb565b9550602087013591508082111561149857600080fd5b506114a5878288016113bb565b9350506114b4604086016112c3565b91506114c2606086016112c3565b905092959194509250565b600080600080600080600060e0888a0312156114e857600080fd5b6114f1886112c3565b96506114ff602089016112c3565b95506040880135945060608801359350608088013560ff8116811461152357600080fd5b9699959850939692959460a0840135945060c09093013592915050565b6000806040838503121561155357600080fd5b61155c836112c3565b915061132c602084016112c3565b60008060006060848603121561157f57600080fd5b8335925061158f602085016112c3565b915061159d604085016112c3565b90509250925092565b600181811c908216806115ba57607f821691505b6020821081036115da57634e487b7160e01b600052602260045260246000fd5b50919050565b634e487b7160e01b600052601160045260246000fd5b8082018082111561038e5761038e6115e0565b60006020828403121561161b57600080fd5b5051919050565b808202811582820484141761038e5761038e6115e0565b60006020828403121561164b57600080fd5b815180151581146103eb57600080fd5b6020808252602b908201527f496e697469616c697a61626c653a20636f6e7472616374206973206e6f74206960408201526a6e697469616c697a696e6760a81b606082015260800190565b8181038181111561038e5761038e6115e0565b601f821115610f7257600081815260208120601f850160051c810160208610156116e05750805b601f850160051c820191505b818110156116ff578281556001016116ec565b505050505050565b815167ffffffffffffffff811115611721576117216113a5565b6117358161172f84546115a6565b846116b9565b602080601f83116001811461176a57600084156117525750858301515b600019600386901b1c1916600185901b1785556116ff565b600085815260208120601f198616915b828110156117995788860151825594840194600190910190840161177a565b50858210156117b75787850151600019600388901b60f8161c191681555b5050505050600190811b01905550565b600082516117d981846020870161126c565b919091019291505056fea264697066735822122019c31d3159331202b48bbf862237cce615a0154e255467e6387eb870c4a223af64736f6c63430008150033",
    "linkReferences": {}
  },
  "methodIdentifiers": {
    "DOMAIN_SEPARATOR()": "3644e515",
    "OZ()": "41c8bcc3",
    "allowance(address,address)": "dd62ed3e",
    "approve(address,uint256)": "095ea7b3",
    "balanceOf(address)": "70a08231",
    "decimals()": "313ce567",
    "decreaseAllowance(address,uint256)": "a457c2d7",
    "getHello()": "8da9b772",
    "getOzAmount(uint256)": "a40f2812",
    "getWozAmount(uint256)": "4cbcdd8b",
    "increaseAllowance(address,uint256)": "39509351",
    "initialize(string,string,address,address)": "8f15b414",
    "name()": "06fdde03",
    "nonces(address)": "7ecebe00",
    "permit(address,address,uint256,uint256,uint8,bytes32,bytes32)": "d505accf",
    "symbol()": "95d89b41",
    "totalSupply()": "18160ddd",
    "transfer(address,uint256)": "a9059cbb",
    "transferFrom(address,address,uint256)": "23b872dd",
    "unwrap(uint256,address,address)": "fb183a02",
    "wrap(uint256,address)": "13bac820"
  },
  "id": 46
}