{
  "abi": [
    {
      "inputs": [],
      "stateMutability": "nonpayable",
      "type": "constructor"
    },
    {
      "anonymous": false,
      "inputs": [
        {
          "indexed": true,
          "internalType": "address",
          "name": "owner",
          "type": "address"
        },
        {
          "indexed": true,
          "internalType": "address",
          "name": "spender",
          "type": "address"
        },
        {
          "indexed": false,
          "internalType": "uint256",
          "name": "value",
          "type": "uint256"
        }
      ],
      "name": "Approval",
      "type": "event"
    },
    {
      "anonymous": false,
      "inputs": [
        {
          "indexed": false,
          "internalType": "uint8",
          "name": "version",
          "type": "uint8"
        }
      ],
      "name": "Initialized",
      "type": "event"
    },
    {
      "anonymous": false,
      "inputs": [
        {
          "indexed": true,
          "internalType": "address",
          "name": "from",
          "type": "address"
        },
        {
          "indexed": true,
          "internalType": "address",
          "name": "to",
          "type": "address"
        },
        {
          "indexed": false,
          "internalType": "uint256",
          "name": "value",
          "type": "uint256"
        }
      ],
      "name": "Transfer",
      "type": "event"
    },
    {
      "inputs": [],
      "name": "DOMAIN_SEPARATOR",
      "outputs": [
        {
          "internalType": "bytes32",
          "name": "",
          "type": "bytes32"
        }
      ],
      "stateMutability": "view",
      "type": "function"
    },
    {
      "inputs": [],
      "name": "OZ",
      "outputs": [
        {
          "internalType": "contract ozIDiamond",
          "name": "",
          "type": "address"
        }
      ],
      "stateMutability": "view",
      "type": "function"
    },
    {
      "inputs": [
        {
          "internalType": "address",
          "name": "owner",
          "type": "address"
        },
        {
          "internalType": "address",
          "name": "spender",
          "type": "address"
        }
      ],
      "name": "allowance",
      "outputs": [
        {
          "internalType": "uint256",
          "name": "",
          "type": "uint256"
        }
      ],
      "stateMutability": "view",
      "type": "function"
    },
    {
      "inputs": [
        {
          "internalType": "address",
          "name": "spender",
          "type": "address"
        },
        {
          "internalType": "uint256",
          "name": "amount",
          "type": "uint256"
        }
      ],
      "name": "approve",
      "outputs": [
        {
          "internalType": "bool",
          "name": "",
          "type": "bool"
        }
      ],
      "stateMutability": "nonpayable",
      "type": "function"
    },
    {
      "inputs": [],
      "name": "asset",
      "outputs": [
        {
          "internalType": "address",
          "name": "",
          "type": "address"
        }
      ],
      "stateMutability": "view",
      "type": "function"
    },
    {
      "inputs": [
        {
          "internalType": "address",
          "name": "account",
          "type": "address"
        }
      ],
      "name": "balanceOf",
      "outputs": [
        {
          "internalType": "uint256",
          "name": "",
          "type": "uint256"
        }
      ],
      "stateMutability": "view",
      "type": "function"
    },
    {
      "inputs": [],
      "name": "decimals",
      "outputs": [
        {
          "internalType": "uint8",
          "name": "",
          "type": "uint8"
        }
      ],
      "stateMutability": "view",
      "type": "function"
    },
    {
      "inputs": [
        {
          "internalType": "address",
          "name": "spender",
          "type": "address"
        },
        {
          "internalType": "uint256",
          "name": "subtractedValue",
          "type": "uint256"
        }
      ],
      "name": "decreaseAllowance",
      "outputs": [
        {
          "internalType": "bool",
          "name": "",
          "type": "bool"
        }
      ],
      "stateMutability": "nonpayable",
      "type": "function"
    },
    {
      "inputs": [],
      "name": "getHello",
      "outputs": [],
      "stateMutability": "view",
      "type": "function"
    },
    {
      "inputs": [
        {
          "internalType": "uint256",
          "name": "wozAmount_",
          "type": "uint256"
        }
      ],
      "name": "getOzAmount",
      "outputs": [
        {
          "internalType": "uint256",
          "name": "",
          "type": "uint256"
        }
      ],
      "stateMutability": "view",
      "type": "function"
    },
    {
      "inputs": [
        {
          "internalType": "uint256",
          "name": "ozAmount_",
          "type": "uint256"
        }
      ],
      "name": "getWozAmount",
      "outputs": [
        {
          "internalType": "uint256",
          "name": "",
          "type": "uint256"
        }
      ],
      "stateMutability": "view",
      "type": "function"
    },
    {
      "inputs": [
        {
          "internalType": "address",
          "name": "spender",
          "type": "address"
        },
        {
          "internalType": "uint256",
          "name": "addedValue",
          "type": "uint256"
        }
      ],
      "name": "increaseAllowance",
      "outputs": [
        {
          "internalType": "bool",
          "name": "",
          "type": "bool"
        }
      ],
      "stateMutability": "nonpayable",
      "type": "function"
    },
    {
      "inputs": [
        {
          "internalType": "string",
          "name": "name_",
          "type": "string"
        },
        {
          "internalType": "string",
          "name": "symbol_",
          "type": "string"
        },
        {
          "internalType": "address",
          "name": "asset_",
          "type": "address"
        },
        {
          "internalType": "address",
          "name": "ozDiamond_",
          "type": "address"
        }
      ],
      "name": "initialize",
      "outputs": [],
      "stateMutability": "nonpayable",
      "type": "function"
    },
    {
      "inputs": [],
      "name": "name",
      "outputs": [
        {
          "internalType": "string",
          "name": "",
          "type": "string"
        }
      ],
      "stateMutability": "view",
      "type": "function"
    },
    {
      "inputs": [
        {
          "internalType": "address",
          "name": "owner",
          "type": "address"
        }
      ],
      "name": "nonces",
      "outputs": [
        {
          "internalType": "uint256",
          "name": "",
          "type": "uint256"
        }
      ],
      "stateMutability": "view",
      "type": "function"
    },
    {
      "inputs": [
        {
          "internalType": "address",
          "name": "owner",
          "type": "address"
        },
        {
          "internalType": "address",
          "name": "spender",
          "type": "address"
        },
        {
          "internalType": "uint256",
          "name": "value",
          "type": "uint256"
        },
        {
          "internalType": "uint256",
          "name": "deadline",
          "type": "uint256"
        },
        {
          "internalType": "uint8",
          "name": "v",
          "type": "uint8"
        },
        {
          "internalType": "bytes32",
          "name": "r",
          "type": "bytes32"
        },
        {
          "internalType": "bytes32",
          "name": "s",
          "type": "bytes32"
        }
      ],
      "name": "permit",
      "outputs": [],
      "stateMutability": "nonpayable",
      "type": "function"
    },
    {
      "inputs": [],
      "name": "symbol",
      "outputs": [
        {
          "internalType": "string",
          "name": "",
          "type": "string"
        }
      ],
      "stateMutability": "view",
      "type": "function"
    },
    {
      "inputs": [],
      "name": "totalSupply",
      "outputs": [
        {
          "internalType": "uint256",
          "name": "",
          "type": "uint256"
        }
      ],
      "stateMutability": "view",
      "type": "function"
    },
    {
      "inputs": [
        {
          "internalType": "address",
          "name": "to",
          "type": "address"
        },
        {
          "internalType": "uint256",
          "name": "amount",
          "type": "uint256"
        }
      ],
      "name": "transfer",
      "outputs": [
        {
          "internalType": "bool",
          "name": "",
          "type": "bool"
        }
      ],
      "stateMutability": "nonpayable",
      "type": "function"
    },
    {
      "inputs": [
        {
          "internalType": "address",
          "name": "from",
          "type": "address"
        },
        {
          "internalType": "address",
          "name": "to",
          "type": "address"
        },
        {
          "internalType": "uint256",
          "name": "amount",
          "type": "uint256"
        }
      ],
      "name": "transferFrom",
      "outputs": [
        {
          "internalType": "bool",
          "name": "",
          "type": "bool"
        }
      ],
      "stateMutability": "nonpayable",
      "type": "function"
    },
    {
      "inputs": [
        {
          "internalType": "uint256",
          "name": "wozAmountIn_",
          "type": "uint256"
        },
        {
          "internalType": "address",
          "name": "receiver_",
          "type": "address"
        },
        {
          "internalType": "address",
          "name": "owner_",
          "type": "address"
        }
      ],
      "name": "unwrap",
      "outputs": [
        {
          "internalType": "uint256",
          "name": "ozTokensOut",
          "type": "uint256"
        }
      ],
      "stateMutability": "nonpayable",
      "type": "function"
    },
    {
      "inputs": [
        {
          "internalType": "uint256",
          "name": "ozAmountIn_",
          "type": "uint256"
        },
        {
          "internalType": "address",
          "name": "receiver_",
          "type": "address"
        }
      ],
      "name": "wrap",
      "outputs": [
        {
          "internalType": "uint256",
          "name": "wozAmountOut",
          "type": "uint256"
        }
      ],
      "stateMutability": "nonpayable",
      "type": "function"
    }
  ],
  "bytecode": {
    "object": "0x608060405234801561001057600080fd5b5061001961001e565b6100de565b600054610100900460ff161561008a5760405162461bcd60e51b815260206004820152602760248201527f496e697469616c697a61626c653a20636f6e747261637420697320696e697469604482015266616c697a696e6760c81b606482015260840160405180910390fd5b60005460ff90811610156100dc576000805460ff191660ff9081179091556040519081527f7f26b83ff96e1f2b6a682f133852f6798a09c465da95921460cefb38474024989060200160405180910390a15b565b611818806100ed6000396000f3fe608060405234801561001057600080fd5b50600436106101425760003560e01c806370a08231116100b8578063a40f28121161007c578063a40f281214610298578063a457c2d7146102ab578063a9059cbb146102be578063d505accf146102d1578063dd62ed3e146102e8578063fb183a02146102fb57600080fd5b806370a08231146102365780637ecebe001461025f5780638da9b772146102735780638f15b4141461027d57806395d89b411461029057600080fd5b8063313ce5671161010a578063313ce567146101c45780633644e515146101d357806338d52e0f146101da57806339509351146101ff57806341c8bcc3146102125780634cbcdd8b1461022357600080fd5b806306fdde0314610147578063095ea7b31461016557806313bac8201461018857806318160ddd146101a957806323b872dd146101b1575b600080fd5b61014f61030e565b60405161015c919061128f565b60405180910390f35b6101786101733660046112de565b6103a0565b604051901515815260200161015c565b61019b610196366004611308565b6103ba565b60405190815260200161015c565b60355461019b565b6101786101bf366004611334565b6103ea565b6040516012815260200161015c565b600061019b565b609a546001600160a01b03165b6040516001600160a01b03909116815260200161015c565b61017861020d3660046112de565b610410565b6099546001600160a01b03166101e7565b61019b610231366004611370565b610432565b61019b610244366004611389565b6001600160a01b031660009081526033602052604090205490565b61019b61026d366004611389565b50600090565b61027b61051f565b005b61027b61028b366004611447565b61052b565b61014f61069a565b61019b6102a6366004611370565b6106a9565b6101786102b93660046112de565b61078e565b6101786102cc3660046112de565b610814565b61027b6102df3660046114cc565b50505050505050565b61019b6102f636600461153f565b610822565b61019b610309366004611569565b61084d565b60606036805461031d906115a5565b80601f0160208091040260200160405190810160405280929190818152602001828054610349906115a5565b80156103965780601f1061036b57610100808354040283529160200191610396565b820191906000526020600020905b81548152906001019060200180831161037957829003601f168201915b5050505050905090565b6000336103ae81858561087b565b60019150505b92915050565b60006103c583610432565b609a549091506103e0906001600160a01b03163330866109a0565b6103b48282610a11565b6000336103f8858285610af1565b610403858585610b65565b60019150505b9392505050565b6000336103ae8185856104238383610822565b61042d91906115f5565b61087b565b609a5460408051633a98ef3960e01b815290516000926001600160a01b031691610409918391633a98ef399160048083019260209291908290030181865afa158015610482573d6000803e3d6000fd5b505050506040513d601f19601f820116820180604052508101906104a69190611608565b6104b59064e8d4a51000611621565b826001600160a01b03166318160ddd6040518163ffffffff1660e01b8152600401602060405180830381865afa1580156104f3573d6000803e3d6000fd5b505050506040513d601f19601f820116820180604052508101906105179190611608565b859190610d33565b6105296017610d51565b565b600054610100900460ff161580801561054b5750600054600160ff909116105b806105655750303b158015610565575060005460ff166001145b6105cd5760405162461bcd60e51b815260206004820152602e60248201527f496e697469616c697a61626c653a20636f6e747261637420697320616c72656160448201526d191e481a5b9a5d1a585b1a5e995960921b60648201526084015b60405180910390fd5b6000805460ff1916600117905580156105f0576000805461ff0019166101001790555b6105fa8585610d99565b61061d85604051806040016040528060018152602001603160f81b815250610dca565b609980546001600160a01b038085166001600160a01b031992831617909255609a8054928616929091169190911790558015610693576000805461ff0019169055604051600181527f7f26b83ff96e1f2b6a682f133852f6798a09c465da95921460cefb38474024989060200160405180910390a15b5050505050565b60606037805461031d906115a5565b609a54604080516318160ddd60e01b815290516000926001600160a01b0316916104099183916318160ddd9160048083019260209291908290030181865afa1580156106f9573d6000803e3d6000fd5b505050506040513d601f19601f8201168201806040525081019061071d9190611608565b826001600160a01b0316633a98ef396040518163ffffffff1660e01b8152600401602060405180830381865afa15801561075b573d6000803e3d6000fd5b505050506040513d601f19601f8201168201806040525081019061077f9190611608565b6105179064e8d4a51000611621565b6000338161079c8286610822565b9050838110156107fc5760405162461bcd60e51b815260206004820152602560248201527f45524332303a2064656372656173656420616c6c6f77616e63652062656c6f77604482015264207a65726f60d81b60648201526084016105c4565b610809828686840361087b565b506001949350505050565b6000336103ae818585610b65565b6001600160a01b03918216600090815260346020908152604080832093909416825291909152205490565b6000610858846106a9565b90506108648285610dfb565b609a54610409906001600160a01b03168483610f46565b6001600160a01b0383166108dd5760405162461bcd60e51b8152602060048201526024808201527f45524332303a20617070726f76652066726f6d20746865207a65726f206164646044820152637265737360e01b60648201526084016105c4565b6001600160a01b03821661093e5760405162461bcd60e51b815260206004820152602260248201527f45524332303a20617070726f766520746f20746865207a65726f206164647265604482015261737360f01b60648201526084016105c4565b6001600160a01b0383811660008181526034602090815260408083209487168084529482529182902085905590518481527f8c5be1e5ebec7d5bd14f71427d1e84f3dd0314c0f7b2291e5b200ac8c7c3b92591015b60405180910390a3505050565b6040516001600160a01b0380851660248301528316604482015260648101829052610a0b9085906323b872dd60e01b906084015b60408051601f198184030181529190526020810180516001600160e01b03166001600160e01b031990931692909217909152610f76565b50505050565b6001600160a01b038216610a675760405162461bcd60e51b815260206004820152601f60248201527f45524332303a206d696e7420746f20746865207a65726f20616464726573730060448201526064016105c4565b8060356000828254610a7991906115f5565b90915550506001600160a01b03821660009081526033602052604081208054839290610aa69084906115f5565b90915550506040518181526001600160a01b038316906000907fddf252ad1be2c89b69c2b068fc378daa952ba7f163c4a11628f55a4df523b3ef9060200160405180910390a35b5050565b6000610afd8484610822565b90506000198114610a0b5781811015610b585760405162461bcd60e51b815260206004820152601d60248201527f45524332303a20696e73756666696369656e7420616c6c6f77616e636500000060448201526064016105c4565b610a0b848484840361087b565b6001600160a01b038316610bc95760405162461bcd60e51b815260206004820152602560248201527f45524332303a207472616e736665722066726f6d20746865207a65726f206164604482015264647265737360d81b60648201526084016105c4565b6001600160a01b038216610c2b5760405162461bcd60e51b815260206004820152602360248201527f45524332303a207472616e7366657220746f20746865207a65726f206164647260448201526265737360e81b60648201526084016105c4565b6001600160a01b03831660009081526033602052604090205481811015610ca35760405162461bcd60e51b815260206004820152602660248201527f45524332303a207472616e7366657220616d6f756e7420657863656564732062604482015265616c616e636560d01b60648201526084016105c4565b6001600160a01b03808516600090815260336020526040808220858503905591851681529081208054849290610cda9084906115f5565b92505081905550826001600160a01b0316846001600160a01b03167fddf252ad1be2c89b69c2b068fc378daa952ba7f163c4a11628f55a4df523b3ef84604051610d2691815260200190565b60405180910390a3610a0b565b6000826000190484118302158202610d4a57600080fd5b5091020490565b610d9681604051602401610d6791815260200190565b60408051601f198184030181529190526020810180516001600160e01b031663f5b1bba960e01b179052611048565b50565b600054610100900460ff16610dc05760405162461bcd60e51b81526004016105c490611638565b610aed8282611069565b600054610100900460ff16610df15760405162461bcd60e51b81526004016105c490611638565b610aed82826110a9565b6001600160a01b038216610e5b5760405162461bcd60e51b815260206004820152602160248201527f45524332303a206275726e2066726f6d20746865207a65726f206164647265736044820152607360f81b60648201526084016105c4565b6001600160a01b03821660009081526033602052604090205481811015610ecf5760405162461bcd60e51b815260206004820152602260248201527f45524332303a206275726e20616d6f756e7420657863656564732062616c616e604482015261636560f01b60648201526084016105c4565b6001600160a01b0383166000908152603360205260408120838303905560358054849290610efe908490611683565b90915550506040518281526000906001600160a01b038516907fddf252ad1be2c89b69c2b068fc378daa952ba7f163c4a11628f55a4df523b3ef90602001610993565b505050565b6040516001600160a01b038316602482015260448101829052610f4190849063a9059cbb60e01b906064016109d4565b6000610fcb826040518060400160405280602081526020017f5361666545524332303a206c6f772d6c6576656c2063616c6c206661696c6564815250856001600160a01b03166110ea9092919063ffffffff16565b805190915015610f415780806020019051810190610fe99190611696565b610f415760405162461bcd60e51b815260206004820152602a60248201527f5361666545524332303a204552433230206f7065726174696f6e20646964206e6044820152691bdd081cdd58d8d9595960b21b60648201526084016105c4565b80516a636f6e736f6c652e6c6f67602083016000808483855afa5050505050565b600054610100900460ff166110905760405162461bcd60e51b81526004016105c490611638565b603661109c8382611706565b506037610f418282611706565b600054610100900460ff166110d05760405162461bcd60e51b81526004016105c490611638565b815160209283012081519190920120606591909155606655565b60606110f98484600085611101565b949350505050565b6060824710156111625760405162461bcd60e51b815260206004820152602660248201527f416464726573733a20696e73756666696369656e742062616c616e636520666f6044820152651c8818d85b1b60d21b60648201526084016105c4565b6001600160a01b0385163b6111b95760405162461bcd60e51b815260206004820152601d60248201527f416464726573733a2063616c6c20746f206e6f6e2d636f6e747261637400000060448201526064016105c4565b600080866001600160a01b031685876040516111d591906117c6565b60006040518083038185875af1925050503d8060008114611212576040519150601f19603f3d011682016040523d82523d6000602084013e611217565b606091505b5091509150611227828286611232565b979650505050505050565b60608315611241575081610409565b8251156112515782518084602001fd5b8160405162461bcd60e51b81526004016105c4919061128f565b60005b8381101561128657818101518382015260200161126e565b50506000910152565b60208152600082518060208401526112ae81604085016020870161126b565b601f01601f19169190910160400192915050565b80356001600160a01b03811681146112d957600080fd5b919050565b600080604083850312156112f157600080fd5b6112fa836112c2565b946020939093013593505050565b6000806040838503121561131b57600080fd5b8235915061132b602084016112c2565b90509250929050565b60008060006060848603121561134957600080fd5b611352846112c2565b9250611360602085016112c2565b9150604084013590509250925092565b60006020828403121561138257600080fd5b5035919050565b60006020828403121561139b57600080fd5b610409826112c2565b634e487b7160e01b600052604160045260246000fd5b600082601f8301126113cb57600080fd5b813567ffffffffffffffff808211156113e6576113e66113a4565b604051601f8301601f19908116603f0116810190828211818310171561140e5761140e6113a4565b8160405283815286602085880101111561142757600080fd5b836020870160208301376000602085830101528094505050505092915050565b6000806000806080858703121561145d57600080fd5b843567ffffffffffffffff8082111561147557600080fd5b611481888389016113ba565b9550602087013591508082111561149757600080fd5b506114a4878288016113ba565b9350506114b3604086016112c2565b91506114c1606086016112c2565b905092959194509250565b600080600080600080600060e0888a0312156114e757600080fd5b6114f0886112c2565b96506114fe602089016112c2565b95506040880135945060608801359350608088013560ff8116811461152257600080fd5b9699959850939692959460a0840135945060c09093013592915050565b6000806040838503121561155257600080fd5b61155b836112c2565b915061132b602084016112c2565b60008060006060848603121561157e57600080fd5b8335925061158e602085016112c2565b915061159c604085016112c2565b90509250925092565b600181811c908216806115b957607f821691505b6020821081036115d957634e487b7160e01b600052602260045260246000fd5b50919050565b634e487b7160e01b600052601160045260246000fd5b808201808211156103b4576103b46115df565b60006020828403121561161a57600080fd5b5051919050565b80820281158282048414176103b4576103b46115df565b6020808252602b908201527f496e697469616c697a61626c653a20636f6e7472616374206973206e6f74206960408201526a6e697469616c697a696e6760a81b606082015260800190565b818103818111156103b4576103b46115df565b6000602082840312156116a857600080fd5b8151801515811461040957600080fd5b601f821115610f4157600081815260208120601f850160051c810160208610156116df5750805b601f850160051c820191505b818110156116fe578281556001016116eb565b505050505050565b815167ffffffffffffffff811115611720576117206113a4565b6117348161172e84546115a5565b846116b8565b602080601f83116001811461176957600084156117515750858301515b600019600386901b1c1916600185901b1785556116fe565b600085815260208120601f198616915b8281101561179857888601518255948401946001909101908401611779565b50858210156117b65787850151600019600388901b60f8161c191681555b5050505050600190811b01905550565b600082516117d881846020870161126b565b919091019291505056fea2646970667358221220534f788c2264d68e191142485fc626622d444ef36cb2797e8b8bc48fe5c30cd764736f6c63430008150033",
    "linkReferences": {}
  },
  "methodIdentifiers": {
    "DOMAIN_SEPARATOR()": "3644e515",
    "OZ()": "41c8bcc3",
    "allowance(address,address)": "dd62ed3e",
    "approve(address,uint256)": "095ea7b3",
    "asset()": "38d52e0f",
    "balanceOf(address)": "70a08231",
    "decimals()": "313ce567",
    "decreaseAllowance(address,uint256)": "a457c2d7",
    "getHello()": "8da9b772",
    "getOzAmount(uint256)": "a40f2812",
    "getWozAmount(uint256)": "4cbcdd8b",
    "increaseAllowance(address,uint256)": "39509351",
    "initialize(string,string,address,address)": "8f15b414",
    "name()": "06fdde03",
    "nonces(address)": "7ecebe00",
    "permit(address,address,uint256,uint256,uint8,bytes32,bytes32)": "d505accf",
    "symbol()": "95d89b41",
    "totalSupply()": "18160ddd",
    "transfer(address,uint256)": "a9059cbb",
    "transferFrom(address,address,uint256)": "23b872dd",
    "unwrap(uint256,address,address)": "fb183a02",
    "wrap(uint256,address)": "13bac820"
  },
  "id": 46
}