{"abi":[{"type":"constructor","inputs":[],"stateMutability":"nonpayable"},{"type":"function","name":"DOMAIN_SEPARATOR","inputs":[],"outputs":[{"name":"","type":"bytes32","internalType":"bytes32"}],"stateMutability":"view"},{"type":"function","name":"OZ","inputs":[],"outputs":[{"name":"","type":"address","internalType":"contract ozIDiamond"}],"stateMutability":"view"},{"type":"function","name":"allowance","inputs":[{"name":"owner","type":"address","internalType":"address"},{"name":"spender","type":"address","internalType":"address"}],"outputs":[{"name":"","type":"uint256","internalType":"uint256"}],"stateMutability":"view"},{"type":"function","name":"approve","inputs":[{"name":"spender","type":"address","internalType":"address"},{"name":"amount","type":"uint256","internalType":"uint256"}],"outputs":[{"name":"","type":"bool","internalType":"bool"}],"stateMutability":"nonpayable"},{"type":"function","name":"asset","inputs":[],"outputs":[{"name":"","type":"address","internalType":"address"}],"stateMutability":"view"},{"type":"function","name":"balanceOf","inputs":[{"name":"account","type":"address","internalType":"address"}],"outputs":[{"name":"","type":"uint256","internalType":"uint256"}],"stateMutability":"view"},{"type":"function","name":"decimals","inputs":[],"outputs":[{"name":"","type":"uint8","internalType":"uint8"}],"stateMutability":"view"},{"type":"function","name":"decreaseAllowance","inputs":[{"name":"spender","type":"address","internalType":"address"},{"name":"subtractedValue","type":"uint256","internalType":"uint256"}],"outputs":[{"name":"","type":"bool","internalType":"bool"}],"stateMutability":"nonpayable"},{"type":"function","name":"getOzAmount","inputs":[{"name":"wozAmount_","type":"uint256","internalType":"uint256"}],"outputs":[{"name":"","type":"uint256","internalType":"uint256"}],"stateMutability":"view"},{"type":"function","name":"getWozAmount","inputs":[{"name":"ozAmount_","type":"uint256","internalType":"uint256"}],"outputs":[{"name":"","type":"uint256","internalType":"uint256"}],"stateMutability":"view"},{"type":"function","name":"increaseAllowance","inputs":[{"name":"spender","type":"address","internalType":"address"},{"name":"addedValue","type":"uint256","internalType":"uint256"}],"outputs":[{"name":"","type":"bool","internalType":"bool"}],"stateMutability":"nonpayable"},{"type":"function","name":"initialize","inputs":[{"name":"name_","type":"string","internalType":"string"},{"name":"symbol_","type":"string","internalType":"string"},{"name":"asset_","type":"address","internalType":"address"},{"name":"ozDiamond_","type":"address","internalType":"address"}],"outputs":[],"stateMutability":"nonpayable"},{"type":"function","name":"mintAndWrap","inputs":[{"name":"data_","type":"bytes","internalType":"bytes"},{"name":"owner_","type":"address","internalType":"address"}],"outputs":[{"name":"wozAmountOut","type":"uint256","internalType":"uint256"}],"stateMutability":"nonpayable"},{"type":"function","name":"name","inputs":[],"outputs":[{"name":"","type":"string","internalType":"string"}],"stateMutability":"view"},{"type":"function","name":"nonces","inputs":[{"name":"owner","type":"address","internalType":"address"}],"outputs":[{"name":"","type":"uint256","internalType":"uint256"}],"stateMutability":"view"},{"type":"function","name":"permit","inputs":[{"name":"owner","type":"address","internalType":"address"},{"name":"spender","type":"address","internalType":"address"},{"name":"value","type":"uint256","internalType":"uint256"},{"name":"deadline","type":"uint256","internalType":"uint256"},{"name":"v","type":"uint8","internalType":"uint8"},{"name":"r","type":"bytes32","internalType":"bytes32"},{"name":"s","type":"bytes32","internalType":"bytes32"}],"outputs":[],"stateMutability":"nonpayable"},{"type":"function","name":"symbol","inputs":[],"outputs":[{"name":"","type":"string","internalType":"string"}],"stateMutability":"view"},{"type":"function","name":"totalSupply","inputs":[],"outputs":[{"name":"","type":"uint256","internalType":"uint256"}],"stateMutability":"view"},{"type":"function","name":"transfer","inputs":[{"name":"to","type":"address","internalType":"address"},{"name":"amount","type":"uint256","internalType":"uint256"}],"outputs":[{"name":"","type":"bool","internalType":"bool"}],"stateMutability":"nonpayable"},{"type":"function","name":"transferFrom","inputs":[{"name":"from","type":"address","internalType":"address"},{"name":"to","type":"address","internalType":"address"},{"name":"amount","type":"uint256","internalType":"uint256"}],"outputs":[{"name":"","type":"bool","internalType":"bool"}],"stateMutability":"nonpayable"},{"type":"function","name":"unwrap","inputs":[{"name":"wozAmountIn_","type":"uint256","internalType":"uint256"},{"name":"receiver_","type":"address","internalType":"address"},{"name":"owner_","type":"address","internalType":"address"}],"outputs":[{"name":"ozTokensOut","type":"uint256","internalType":"uint256"}],"stateMutability":"nonpayable"},{"type":"function","name":"wrap","inputs":[{"name":"ozAmountIn_","type":"uint256","internalType":"uint256"},{"name":"owner_","type":"address","internalType":"address"},{"name":"receiver_","type":"address","internalType":"address"}],"outputs":[{"name":"wozAmountOut","type":"uint256","internalType":"uint256"}],"stateMutability":"nonpayable"},{"type":"event","name":"Approval","inputs":[{"name":"owner","type":"address","indexed":true,"internalType":"address"},{"name":"spender","type":"address","indexed":true,"internalType":"address"},{"name":"value","type":"uint256","indexed":false,"internalType":"uint256"}],"anonymous":false},{"type":"event","name":"Initialized","inputs":[{"name":"version","type":"uint8","indexed":false,"internalType":"uint8"}],"anonymous":false},{"type":"event","name":"Transfer","inputs":[{"name":"from","type":"address","indexed":true,"internalType":"address"},{"name":"to","type":"address","indexed":true,"internalType":"address"},{"name":"value","type":"uint256","indexed":false,"internalType":"uint256"}],"anonymous":false}],"bytecode":{"object":"0x608060405234801561001057600080fd5b5061001961001e565b6100de565b600054610100900460ff161561008a5760405162461bcd60e51b815260206004820152602760248201527f496e697469616c697a61626c653a20636f6e747261637420697320696e697469604482015266616c697a696e6760c81b606482015260840160405180910390fd5b60005460ff90811610156100dc576000805460ff191660ff9081179091556040519081527f7f26b83ff96e1f2b6a682f133852f6798a09c465da95921460cefb38474024989060200160405180910390a15b565b6120e080620000ee6000396000f3fe608060405234801561001057600080fd5b50600436106101425760003560e01c806370a08231116100b8578063a457c2d71161007c578063a457c2d71461029f578063a9059cbb146102b2578063d505accf146102c5578063dd62ed3e146102d8578063eb647833146102eb578063fb183a02146102fe57600080fd5b806370a08231146102335780637ecebe001461025c5780638f15b4141461026f57806395d89b4114610284578063a40f28121461028c57600080fd5b80633644e5151161010a5780633644e515146101bc57806338d52e0f146101c457806339509351146101e957806341c8bcc3146101fc5780634cbcdd8b1461020d5780636e6deeba1461022057600080fd5b806306fdde0314610147578063095ea7b31461016557806318160ddd1461018857806323b872dd1461019a578063313ce567146101ad575b600080fd5b61014f610311565b60405161015c919061193a565b60405180910390f35b610178610173366004611962565b6103a3565b604051901515815260200161015c565b6035545b60405190815260200161015c565b6101786101a836600461198e565b6103bd565b6040516012815260200161015c565b61018c6103e3565b60cd546001600160a01b03165b6040516001600160a01b03909116815260200161015c565b6101786101f7366004611962565b6103f2565b60cc546001600160a01b03166101d1565b61018c61021b3660046119cf565b610414565b61018c61022e3660046119e8565b61051e565b61018c610241366004611a2a565b6001600160a01b031660009081526033602052604090205490565b61018c61026a366004611a2a565b61055d565b61028261027d366004611b2f565b61057b565b005b61014f6106d0565b61018c61029a3660046119cf565b6106df565b6101786102ad366004611962565b6107e1565b6101786102c0366004611962565b610867565b6102826102d3366004611bb8565b610875565b61018c6102e6366004611c2f565b6109d9565b61018c6102f9366004611c68565b610a04565b61018c61030c3660046119e8565b610b21565b60606036805461032090611cc3565b80601f016020809104026020016040519081016040528092919081815260200182805461034c90611cc3565b80156103995780601f1061036e57610100808354040283529160200191610399565b820191906000526020600020905b81548152906001019060200180831161037c57829003601f168201915b5050505050905090565b6000336103b1818585610b4f565b60019150505b92915050565b6000336103cb858285610c74565b6103d6858585610cee565b60019150505b9392505050565b60006103ed610ebc565b905090565b6000336103b181858561040583836109d9565b61040f9190611d0d565b610b4f565b60006103b760cd60009054906101000a90046001600160a01b03166001600160a01b0316633a98ef396040518163ffffffff1660e01b8152600401602060405180830381865afa15801561046c573d6000803e3d6000fd5b505050506040513d601f19601f820116820180604052508101906104909190611d20565b61049f9064e8d4a51000611d39565b60cd60009054906101000a90046001600160a01b03166001600160a01b03166318160ddd6040518163ffffffff1660e01b8152600401602060405180830381865afa1580156104f2573d6000803e3d6000fd5b505050506040513d601f19601f820116820180604052508101906105169190611d20565b849190610f37565b600061052984610414565b90506001600160a01b03831630146105535760cd54610553906001600160a01b0316843087610f55565b6103dc8282610fc0565b6001600160a01b0381166000908152609960205260408120546103b7565b600054610100900460ff161580801561059b5750600054600160ff909116105b806105b55750303b1580156105b5575060005460ff166001145b61061d5760405162461bcd60e51b815260206004820152602e60248201527f496e697469616c697a61626c653a20636f6e747261637420697320616c72656160448201526d191e481a5b9a5d1a585b1a5e995960921b60648201526084015b60405180910390fd5b6000805460ff191660011790558015610640576000805461ff0019166101001790555b61064a85856110a0565b610653856110d1565b60cc80546001600160a01b038085166001600160a01b03199283161790925560cd80549286169290911691909117905580156106c9576000805461ff0019169055604051600181527f7f26b83ff96e1f2b6a682f133852f6798a09c465da95921460cefb38474024989060200160405180910390a15b5050505050565b60606037805461032090611cc3565b60006103b760cd60009054906101000a90046001600160a01b03166001600160a01b03166318160ddd6040518163ffffffff1660e01b8152600401602060405180830381865afa158015610737573d6000803e3d6000fd5b505050506040513d601f19601f8201168201806040525081019061075b9190611d20565b60cd60009054906101000a90046001600160a01b03166001600160a01b0316633a98ef396040518163ffffffff1660e01b8152600401602060405180830381865afa1580156107ae573d6000803e3d6000fd5b505050506040513d601f19601f820116820180604052508101906107d29190611d20565b6105169064e8d4a51000611d39565b600033816107ef82866109d9565b90508381101561084f5760405162461bcd60e51b815260206004820152602560248201527f45524332303a2064656372656173656420616c6c6f77616e63652062656c6f77604482015264207a65726f60d81b6064820152608401610614565b61085c8286868403610b4f565b506001949350505050565b6000336103b1818585610cee565b834211156108c55760405162461bcd60e51b815260206004820152601d60248201527f45524332305065726d69743a206578706972656420646561646c696e650000006044820152606401610614565b60007f6e71edae12b1b97f4d1f60370fef10105fa2faae0126114a169c64845d6126c98888886108f48c61111e565b6040805160208101969096526001600160a01b0394851690860152929091166060840152608083015260a082015260c0810186905260e001604051602081830303815290604052805190602001209050600061094f82611146565b9050600061095f82878787611194565b9050896001600160a01b0316816001600160a01b0316146109c25760405162461bcd60e51b815260206004820152601e60248201527f45524332305065726d69743a20696e76616c6964207369676e617475726500006044820152606401610614565b6109cd8a8a8a610b4f565b50505050505050505050565b6001600160a01b03918216600090815260346020908152604080832093909416825291909152205490565b6000806000610a12856111bc565b60cd54604051630cae37f160e01b81529294509092506000916001600160a01b0390911690630cae37f190610a4d9086908990600401611d50565b6020604051808303816000875af1158015610a6c573d6000803e3d6000fd5b505050506040513d601f19601f82011682018060405250810190610a909190611d20565b60cd54604051633610329160e01b8152600481018390523060248201529192506000916001600160a01b0390911690633610329190604401602060405180830381865afa158015610ae5573d6000803e3d6000fd5b505050506040513d601f19601f82011682018060405250810190610b099190611d20565b9050610b1681308561051e565b979650505050505050565b6000610b2c846106df565b9050610b388285611208565b60cd546103dc906001600160a01b03168483611353565b6001600160a01b038316610bb15760405162461bcd60e51b8152602060048201526024808201527f45524332303a20617070726f76652066726f6d20746865207a65726f206164646044820152637265737360e01b6064820152608401610614565b6001600160a01b038216610c125760405162461bcd60e51b815260206004820152602260248201527f45524332303a20617070726f766520746f20746865207a65726f206164647265604482015261737360f01b6064820152608401610614565b6001600160a01b0383811660008181526034602090815260408083209487168084529482529182902085905590518481527f8c5be1e5ebec7d5bd14f71427d1e84f3dd0314c0f7b2291e5b200ac8c7c3b92591015b60405180910390a3505050565b6000610c8084846109d9565b90506000198114610ce85781811015610cdb5760405162461bcd60e51b815260206004820152601d60248201527f45524332303a20696e73756666696369656e7420616c6c6f77616e63650000006044820152606401610614565b610ce88484848403610b4f565b50505050565b6001600160a01b038316610d525760405162461bcd60e51b815260206004820152602560248201527f45524332303a207472616e736665722066726f6d20746865207a65726f206164604482015264647265737360d81b6064820152608401610614565b6001600160a01b038216610db45760405162461bcd60e51b815260206004820152602360248201527f45524332303a207472616e7366657220746f20746865207a65726f206164647260448201526265737360e81b6064820152608401610614565b6001600160a01b03831660009081526033602052604090205481811015610e2c5760405162461bcd60e51b815260206004820152602660248201527f45524332303a207472616e7366657220616d6f756e7420657863656564732062604482015265616c616e636560d01b6064820152608401610614565b6001600160a01b03808516600090815260336020526040808220858503905591851681529081208054849290610e63908490611d0d565b92505081905550826001600160a01b0316846001600160a01b03167fddf252ad1be2c89b69c2b068fc378daa952ba7f163c4a11628f55a4df523b3ef84604051610eaf91815260200190565b60405180910390a3610ce8565b60006103ed7f8b73c3c69bb8fe3d512ecc4cf759cc79239f7b179b0ffacaa9a75d522b39400f610eeb60655490565b6066546040805160208101859052908101839052606081018290524660808201523060a082015260009060c0016040516020818303038152906040528051906020012090509392505050565b6000826000190484118302158202610f4e57600080fd5b5091020490565b6040516001600160a01b0380851660248301528316604482015260648101829052610ce89085906323b872dd60e01b906084015b60408051601f198184030181529190526020810180516001600160e01b03166001600160e01b031990931692909217909152611383565b6001600160a01b0382166110165760405162461bcd60e51b815260206004820152601f60248201527f45524332303a206d696e7420746f20746865207a65726f2061646472657373006044820152606401610614565b80603560008282546110289190611d0d565b90915550506001600160a01b03821660009081526033602052604081208054839290611055908490611d0d565b90915550506040518181526001600160a01b038316906000907fddf252ad1be2c89b69c2b068fc378daa952ba7f163c4a11628f55a4df523b3ef9060200160405180910390a35b5050565b600054610100900460ff166110c75760405162461bcd60e51b815260040161061490611d7a565b61109c8282611455565b600054610100900460ff166110f85760405162461bcd60e51b815260040161061490611d7a565b61111b81604051806040016040528060018152602001603160f81b815250611495565b50565b6001600160a01b03811660009081526099602052604090208054600181018255905b50919050565b60006103b7611153610ebc565b8360405161190160f01b6020820152602281018390526042810182905260009060620160405160208183030381529060405280519060200120905092915050565b60008060006111a5878787876114d6565b915091506111b2816115c3565b5095945050505050565b60606000806000848060200190518101906111d79190611dd5565b9150915081306040516020016111ee929190611ec6565b60408051601f198184030181529190529590945092505050565b6001600160a01b0382166112685760405162461bcd60e51b815260206004820152602160248201527f45524332303a206275726e2066726f6d20746865207a65726f206164647265736044820152607360f81b6064820152608401610614565b6001600160a01b038216600090815260336020526040902054818110156112dc5760405162461bcd60e51b815260206004820152602260248201527f45524332303a206275726e20616d6f756e7420657863656564732062616c616e604482015261636560f01b6064820152608401610614565b6001600160a01b038316600090815260336020526040812083830390556035805484929061130b908490611f35565b90915550506040518281526000906001600160a01b038516907fddf252ad1be2c89b69c2b068fc378daa952ba7f163c4a11628f55a4df523b3ef90602001610c67565b505050565b6040516001600160a01b03831660248201526044810182905261134e90849063a9059cbb60e01b90606401610f89565b60006113d8826040518060400160405280602081526020017f5361666545524332303a206c6f772d6c6576656c2063616c6c206661696c6564815250856001600160a01b03166117799092919063ffffffff16565b80519091501561134e57808060200190518101906113f69190611f48565b61134e5760405162461bcd60e51b815260206004820152602a60248201527f5361666545524332303a204552433230206f7065726174696f6e20646964206e6044820152691bdd081cdd58d8d9595960b21b6064820152608401610614565b600054610100900460ff1661147c5760405162461bcd60e51b815260040161061490611d7a565b60366114888382611fb8565b50603761134e8282611fb8565b600054610100900460ff166114bc5760405162461bcd60e51b815260040161061490611d7a565b815160209283012081519190920120606591909155606655565b6000807f7fffffffffffffffffffffffffffffff5d576e7357a4501ddfe92f46681b20a083111561150d57506000905060036115ba565b8460ff16601b1415801561152557508460ff16601c14155b1561153657506000905060046115ba565b6040805160008082526020820180845289905260ff881692820192909252606081018690526080810185905260019060a0016020604051602081039080840390855afa15801561158a573d6000803e3d6000fd5b5050604051601f1901519150506001600160a01b0381166115b3576000600192509250506115ba565b9150600090505b94509492505050565b60008160048111156115d7576115d7612078565b036115df5750565b60018160048111156115f3576115f3612078565b036116405760405162461bcd60e51b815260206004820152601860248201527f45434453413a20696e76616c6964207369676e617475726500000000000000006044820152606401610614565b600281600481111561165457611654612078565b036116a15760405162461bcd60e51b815260206004820152601f60248201527f45434453413a20696e76616c6964207369676e6174757265206c656e677468006044820152606401610614565b60038160048111156116b5576116b5612078565b0361170d5760405162461bcd60e51b815260206004820152602260248201527f45434453413a20696e76616c6964207369676e6174757265202773272076616c604482015261756560f01b6064820152608401610614565b600481600481111561172157611721612078565b0361111b5760405162461bcd60e51b815260206004820152602260248201527f45434453413a20696e76616c6964207369676e6174757265202776272076616c604482015261756560f01b6064820152608401610614565b60606117888484600085611790565b949350505050565b6060824710156117f15760405162461bcd60e51b815260206004820152602660248201527f416464726573733a20696e73756666696369656e742062616c616e636520666f6044820152651c8818d85b1b60d21b6064820152608401610614565b6001600160a01b0385163b6118485760405162461bcd60e51b815260206004820152601d60248201527f416464726573733a2063616c6c20746f206e6f6e2d636f6e74726163740000006044820152606401610614565b600080866001600160a01b03168587604051611864919061208e565b60006040518083038185875af1925050503d80600081146118a1576040519150601f19603f3d011682016040523d82523d6000602084013e6118a6565b606091505b5091509150610b16828286606083156118c05750816103dc565b8251156118d05782518084602001fd5b8160405162461bcd60e51b8152600401610614919061193a565b60005b838110156119055781810151838201526020016118ed565b50506000910152565b600081518084526119268160208601602086016118ea565b601f01601f19169290920160200192915050565b6020815260006103dc602083018461190e565b6001600160a01b038116811461111b57600080fd5b6000806040838503121561197557600080fd5b82356119808161194d565b946020939093013593505050565b6000806000606084860312156119a357600080fd5b83356119ae8161194d565b925060208401356119be8161194d565b929592945050506040919091013590565b6000602082840312156119e157600080fd5b5035919050565b6000806000606084860312156119fd57600080fd5b833592506020840135611a0f8161194d565b91506040840135611a1f8161194d565b809150509250925092565b600060208284031215611a3c57600080fd5b81356103dc8161194d565b634e487b7160e01b600052604160045260246000fd5b6040805190810167ffffffffffffffff81118282101715611a8057611a80611a47565b60405290565b604051601f8201601f1916810167ffffffffffffffff81118282101715611aaf57611aaf611a47565b604052919050565b600067ffffffffffffffff831115611ad157611ad1611a47565b611ae4601f8401601f1916602001611a86565b9050828152838383011115611af857600080fd5b828260208301376000602084830101529392505050565b600082601f830112611b2057600080fd5b6103dc83833560208501611ab7565b60008060008060808587031215611b4557600080fd5b843567ffffffffffffffff80821115611b5d57600080fd5b611b6988838901611b0f565b95506020870135915080821115611b7f57600080fd5b50611b8c87828801611b0f565b9350506040850135611b9d8161194d565b91506060850135611bad8161194d565b939692955090935050565b600080600080600080600060e0888a031215611bd357600080fd5b8735611bde8161194d565b96506020880135611bee8161194d565b95506040880135945060608801359350608088013560ff81168114611c1257600080fd5b9699959850939692959460a0840135945060c09093013592915050565b60008060408385031215611c4257600080fd5b8235611c4d8161194d565b91506020830135611c5d8161194d565b809150509250929050565b60008060408385031215611c7b57600080fd5b823567ffffffffffffffff811115611c9257600080fd5b8301601f81018513611ca357600080fd5b611cb285823560208401611ab7565b9250506020830135611c5d8161194d565b600181811c90821680611cd757607f821691505b60208210810361114057634e487b7160e01b600052602260045260246000fd5b634e487b7160e01b600052601160045260246000fd5b808201808211156103b7576103b7611cf7565b600060208284031215611d3257600080fd5b5051919050565b80820281158282048414176103b7576103b7611cf7565b604081526000611d63604083018561190e565b905060018060a01b03831660208301529392505050565b6020808252602b908201527f496e697469616c697a61626c653a20636f6e7472616374206973206e6f74206960408201526a6e697469616c697a696e6760a81b606082015260800190565b8051611dd08161194d565b919050565b60008060408385031215611de857600080fd5b825167ffffffffffffffff80821115611e0057600080fd5b9084019060408287031215611e1457600080fd5b611e1c611a5d565b8251815260208084015183811115611e3357600080fd5b80850194505087601f850112611e4857600080fd5b835183811115611e5a57611e5a611a47565b8060051b9350611e6b828501611a86565b818152938501820193828101908a861115611e8557600080fd5b958301955b85871015611ea357865182529583019590830190611e8a565b8084860152505050819550611eb9818801611dc5565b9450505050509250929050565b60408152600060808201845160408401526020808601516040606086015282815180855260a0870191508383019450600092505b80831015611f1a5784518252938301936001929092019190830190611efa565b506001600160a01b0396909616919094015250919392505050565b818103818111156103b7576103b7611cf7565b600060208284031215611f5a57600080fd5b815180151581146103dc57600080fd5b601f82111561134e57600081815260208120601f850160051c81016020861015611f915750805b601f850160051c820191505b81811015611fb057828155600101611f9d565b505050505050565b815167ffffffffffffffff811115611fd257611fd2611a47565b611fe681611fe08454611cc3565b84611f6a565b602080601f83116001811461201b57600084156120035750858301515b600019600386901b1c1916600185901b178555611fb0565b600085815260208120601f198616915b8281101561204a5788860151825594840194600190910190840161202b565b50858210156120685787850151600019600388901b60f8161c191681555b5050505050600190811b01905550565b634e487b7160e01b600052602160045260246000fd5b600082516120a08184602087016118ea565b919091019291505056fea2646970667358221220a6c595c7c11718a3455f7ca5d7310b00d312e3494ecad6a64de26075bffb5b3c64736f6c63430008150033","linkReferences":{}},"methodIdentifiers":{"DOMAIN_SEPARATOR()":"3644e515","OZ()":"41c8bcc3","allowance(address,address)":"dd62ed3e","approve(address,uint256)":"095ea7b3","asset()":"38d52e0f","balanceOf(address)":"70a08231","decimals()":"313ce567","decreaseAllowance(address,uint256)":"a457c2d7","getOzAmount(uint256)":"a40f2812","getWozAmount(uint256)":"4cbcdd8b","increaseAllowance(address,uint256)":"39509351","initialize(string,string,address,address)":"8f15b414","mintAndWrap(bytes,address)":"eb647833","name()":"06fdde03","nonces(address)":"7ecebe00","permit(address,address,uint256,uint256,uint8,bytes32,bytes32)":"d505accf","symbol()":"95d89b41","totalSupply()":"18160ddd","transfer(address,uint256)":"a9059cbb","transferFrom(address,address,uint256)":"23b872dd","unwrap(uint256,address,address)":"fb183a02","wrap(uint256,address,address)":"6e6deeba"},"id":52}