{
  "abi": [
    {
      "inputs": [],
      "stateMutability": "nonpayable",
      "type": "constructor"
    },
    {
      "anonymous": false,
      "inputs": [
        {
          "indexed": true,
          "internalType": "address",
          "name": "owner",
          "type": "address"
        },
        {
          "indexed": true,
          "internalType": "address",
          "name": "spender",
          "type": "address"
        },
        {
          "indexed": false,
          "internalType": "uint256",
          "name": "value",
          "type": "uint256"
        }
      ],
      "name": "Approval",
      "type": "event"
    },
    {
      "anonymous": false,
      "inputs": [
        {
          "indexed": true,
          "internalType": "address",
          "name": "caller",
          "type": "address"
        },
        {
          "indexed": true,
          "internalType": "address",
          "name": "owner",
          "type": "address"
        },
        {
          "indexed": false,
          "internalType": "uint256",
          "name": "assets",
          "type": "uint256"
        },
        {
          "indexed": false,
          "internalType": "uint256",
          "name": "shares",
          "type": "uint256"
        }
      ],
      "name": "Deposit",
      "type": "event"
    },
    {
      "anonymous": false,
      "inputs": [
        {
          "indexed": false,
          "internalType": "uint8",
          "name": "version",
          "type": "uint8"
        }
      ],
      "name": "Initialized",
      "type": "event"
    },
    {
      "anonymous": false,
      "inputs": [
        {
          "indexed": true,
          "internalType": "address",
          "name": "from",
          "type": "address"
        },
        {
          "indexed": true,
          "internalType": "address",
          "name": "to",
          "type": "address"
        },
        {
          "indexed": false,
          "internalType": "uint256",
          "name": "value",
          "type": "uint256"
        }
      ],
      "name": "Transfer",
      "type": "event"
    },
    {
      "anonymous": false,
      "inputs": [
        {
          "indexed": true,
          "internalType": "address",
          "name": "caller",
          "type": "address"
        },
        {
          "indexed": true,
          "internalType": "address",
          "name": "receiver",
          "type": "address"
        },
        {
          "indexed": true,
          "internalType": "address",
          "name": "owner",
          "type": "address"
        },
        {
          "indexed": false,
          "internalType": "uint256",
          "name": "assets",
          "type": "uint256"
        },
        {
          "indexed": false,
          "internalType": "uint256",
          "name": "shares",
          "type": "uint256"
        }
      ],
      "name": "Withdraw",
      "type": "event"
    },
    {
      "inputs": [],
      "name": "DOMAIN_SEPARATOR",
      "outputs": [
        {
          "internalType": "bytes32",
          "name": "",
          "type": "bytes32"
        }
      ],
      "stateMutability": "view",
      "type": "function"
    },
    {
      "inputs": [],
      "name": "OZ",
      "outputs": [
        {
          "internalType": "contract ozIDiamond",
          "name": "",
          "type": "address"
        }
      ],
      "stateMutability": "view",
      "type": "function"
    },
    {
      "inputs": [
        {
          "internalType": "address",
          "name": "owner",
          "type": "address"
        },
        {
          "internalType": "address",
          "name": "spender",
          "type": "address"
        }
      ],
      "name": "allowance",
      "outputs": [
        {
          "internalType": "uint256",
          "name": "",
          "type": "uint256"
        }
      ],
      "stateMutability": "view",
      "type": "function"
    },
    {
      "inputs": [
        {
          "internalType": "address",
          "name": "spender",
          "type": "address"
        },
        {
          "internalType": "uint256",
          "name": "amount",
          "type": "uint256"
        }
      ],
      "name": "approve",
      "outputs": [
        {
          "internalType": "bool",
          "name": "",
          "type": "bool"
        }
      ],
      "stateMutability": "nonpayable",
      "type": "function"
    },
    {
      "inputs": [],
      "name": "asset",
      "outputs": [
        {
          "internalType": "address",
          "name": "",
          "type": "address"
        }
      ],
      "stateMutability": "view",
      "type": "function"
    },
    {
      "inputs": [
        {
          "internalType": "address",
          "name": "account",
          "type": "address"
        }
      ],
      "name": "balanceOf",
      "outputs": [
        {
          "internalType": "uint256",
          "name": "",
          "type": "uint256"
        }
      ],
      "stateMutability": "view",
      "type": "function"
    },
    {
      "inputs": [
        {
          "internalType": "uint256",
          "name": "shares",
          "type": "uint256"
        }
      ],
      "name": "convertToAssets",
      "outputs": [
        {
          "internalType": "uint256",
          "name": "assets",
          "type": "uint256"
        }
      ],
      "stateMutability": "view",
      "type": "function"
    },
    {
      "inputs": [
        {
          "internalType": "uint256",
          "name": "assets",
          "type": "uint256"
        }
      ],
      "name": "convertToShares",
      "outputs": [
        {
          "internalType": "uint256",
          "name": "shares",
          "type": "uint256"
        }
      ],
      "stateMutability": "view",
      "type": "function"
    },
    {
      "inputs": [],
      "name": "decimals",
      "outputs": [
        {
          "internalType": "uint8",
          "name": "",
          "type": "uint8"
        }
      ],
      "stateMutability": "view",
      "type": "function"
    },
    {
      "inputs": [
        {
          "internalType": "address",
          "name": "spender",
          "type": "address"
        },
        {
          "internalType": "uint256",
          "name": "subtractedValue",
          "type": "uint256"
        }
      ],
      "name": "decreaseAllowance",
      "outputs": [
        {
          "internalType": "bool",
          "name": "",
          "type": "bool"
        }
      ],
      "stateMutability": "nonpayable",
      "type": "function"
    },
    {
      "inputs": [
        {
          "internalType": "uint256",
          "name": "assets",
          "type": "uint256"
        },
        {
          "internalType": "address",
          "name": "receiver",
          "type": "address"
        }
      ],
      "name": "deposit",
      "outputs": [
        {
          "internalType": "uint256",
          "name": "",
          "type": "uint256"
        }
      ],
      "stateMutability": "nonpayable",
      "type": "function"
    },
    {
      "inputs": [
        {
          "internalType": "uint256",
          "name": "amountIn_",
          "type": "uint256"
        }
      ],
      "name": "deposit2",
      "outputs": [
        {
          "internalType": "uint256",
          "name": "",
          "type": "uint256"
        }
      ],
      "stateMutability": "nonpayable",
      "type": "function"
    },
    {
      "inputs": [],
      "name": "getHello",
      "outputs": [],
      "stateMutability": "view",
      "type": "function"
    },
    {
      "inputs": [
        {
          "internalType": "uint256",
          "name": "ozAmount_",
          "type": "uint256"
        }
      ],
      "name": "getWozAmount",
      "outputs": [
        {
          "internalType": "uint256",
          "name": "",
          "type": "uint256"
        }
      ],
      "stateMutability": "view",
      "type": "function"
    },
    {
      "inputs": [
        {
          "internalType": "address",
          "name": "spender",
          "type": "address"
        },
        {
          "internalType": "uint256",
          "name": "addedValue",
          "type": "uint256"
        }
      ],
      "name": "increaseAllowance",
      "outputs": [
        {
          "internalType": "bool",
          "name": "",
          "type": "bool"
        }
      ],
      "stateMutability": "nonpayable",
      "type": "function"
    },
    {
      "inputs": [
        {
          "internalType": "string",
          "name": "name_",
          "type": "string"
        },
        {
          "internalType": "string",
          "name": "symbol_",
          "type": "string"
        },
        {
          "internalType": "address",
          "name": "asset_",
          "type": "address"
        },
        {
          "internalType": "address",
          "name": "ozDiamond_",
          "type": "address"
        }
      ],
      "name": "initialize",
      "outputs": [],
      "stateMutability": "nonpayable",
      "type": "function"
    },
    {
      "inputs": [
        {
          "internalType": "address",
          "name": "",
          "type": "address"
        }
      ],
      "name": "maxDeposit",
      "outputs": [
        {
          "internalType": "uint256",
          "name": "",
          "type": "uint256"
        }
      ],
      "stateMutability": "view",
      "type": "function"
    },
    {
      "inputs": [
        {
          "internalType": "address",
          "name": "",
          "type": "address"
        }
      ],
      "name": "maxMint",
      "outputs": [
        {
          "internalType": "uint256",
          "name": "",
          "type": "uint256"
        }
      ],
      "stateMutability": "view",
      "type": "function"
    },
    {
      "inputs": [
        {
          "internalType": "address",
          "name": "owner",
          "type": "address"
        }
      ],
      "name": "maxRedeem",
      "outputs": [
        {
          "internalType": "uint256",
          "name": "",
          "type": "uint256"
        }
      ],
      "stateMutability": "view",
      "type": "function"
    },
    {
      "inputs": [
        {
          "internalType": "address",
          "name": "owner",
          "type": "address"
        }
      ],
      "name": "maxWithdraw",
      "outputs": [
        {
          "internalType": "uint256",
          "name": "",
          "type": "uint256"
        }
      ],
      "stateMutability": "view",
      "type": "function"
    },
    {
      "inputs": [
        {
          "internalType": "uint256",
          "name": "shares",
          "type": "uint256"
        },
        {
          "internalType": "address",
          "name": "receiver",
          "type": "address"
        }
      ],
      "name": "mint",
      "outputs": [
        {
          "internalType": "uint256",
          "name": "",
          "type": "uint256"
        }
      ],
      "stateMutability": "nonpayable",
      "type": "function"
    },
    {
      "inputs": [],
      "name": "name",
      "outputs": [
        {
          "internalType": "string",
          "name": "",
          "type": "string"
        }
      ],
      "stateMutability": "view",
      "type": "function"
    },
    {
      "inputs": [
        {
          "internalType": "address",
          "name": "owner",
          "type": "address"
        }
      ],
      "name": "nonces",
      "outputs": [
        {
          "internalType": "uint256",
          "name": "",
          "type": "uint256"
        }
      ],
      "stateMutability": "view",
      "type": "function"
    },
    {
      "inputs": [
        {
          "internalType": "address",
          "name": "owner",
          "type": "address"
        },
        {
          "internalType": "address",
          "name": "spender",
          "type": "address"
        },
        {
          "internalType": "uint256",
          "name": "value",
          "type": "uint256"
        },
        {
          "internalType": "uint256",
          "name": "deadline",
          "type": "uint256"
        },
        {
          "internalType": "uint8",
          "name": "v",
          "type": "uint8"
        },
        {
          "internalType": "bytes32",
          "name": "r",
          "type": "bytes32"
        },
        {
          "internalType": "bytes32",
          "name": "s",
          "type": "bytes32"
        }
      ],
      "name": "permit",
      "outputs": [],
      "stateMutability": "nonpayable",
      "type": "function"
    },
    {
      "inputs": [
        {
          "internalType": "uint256",
          "name": "assets",
          "type": "uint256"
        }
      ],
      "name": "previewDeposit",
      "outputs": [
        {
          "internalType": "uint256",
          "name": "",
          "type": "uint256"
        }
      ],
      "stateMutability": "view",
      "type": "function"
    },
    {
      "inputs": [
        {
          "internalType": "uint256",
          "name": "shares",
          "type": "uint256"
        }
      ],
      "name": "previewMint",
      "outputs": [
        {
          "internalType": "uint256",
          "name": "",
          "type": "uint256"
        }
      ],
      "stateMutability": "view",
      "type": "function"
    },
    {
      "inputs": [
        {
          "internalType": "uint256",
          "name": "shares",
          "type": "uint256"
        }
      ],
      "name": "previewRedeem",
      "outputs": [
        {
          "internalType": "uint256",
          "name": "",
          "type": "uint256"
        }
      ],
      "stateMutability": "view",
      "type": "function"
    },
    {
      "inputs": [
        {
          "internalType": "uint256",
          "name": "assets",
          "type": "uint256"
        }
      ],
      "name": "previewWithdraw",
      "outputs": [
        {
          "internalType": "uint256",
          "name": "",
          "type": "uint256"
        }
      ],
      "stateMutability": "view",
      "type": "function"
    },
    {
      "inputs": [
        {
          "internalType": "uint256",
          "name": "shares",
          "type": "uint256"
        },
        {
          "internalType": "address",
          "name": "receiver",
          "type": "address"
        },
        {
          "internalType": "address",
          "name": "owner",
          "type": "address"
        }
      ],
      "name": "redeem",
      "outputs": [
        {
          "internalType": "uint256",
          "name": "",
          "type": "uint256"
        }
      ],
      "stateMutability": "nonpayable",
      "type": "function"
    },
    {
      "inputs": [],
      "name": "symbol",
      "outputs": [
        {
          "internalType": "string",
          "name": "",
          "type": "string"
        }
      ],
      "stateMutability": "view",
      "type": "function"
    },
    {
      "inputs": [],
      "name": "totalAssets",
      "outputs": [
        {
          "internalType": "uint256",
          "name": "",
          "type": "uint256"
        }
      ],
      "stateMutability": "view",
      "type": "function"
    },
    {
      "inputs": [],
      "name": "totalSupply",
      "outputs": [
        {
          "internalType": "uint256",
          "name": "",
          "type": "uint256"
        }
      ],
      "stateMutability": "view",
      "type": "function"
    },
    {
      "inputs": [
        {
          "internalType": "address",
          "name": "to",
          "type": "address"
        },
        {
          "internalType": "uint256",
          "name": "amount",
          "type": "uint256"
        }
      ],
      "name": "transfer",
      "outputs": [
        {
          "internalType": "bool",
          "name": "",
          "type": "bool"
        }
      ],
      "stateMutability": "nonpayable",
      "type": "function"
    },
    {
      "inputs": [
        {
          "internalType": "address",
          "name": "from",
          "type": "address"
        },
        {
          "internalType": "address",
          "name": "to",
          "type": "address"
        },
        {
          "internalType": "uint256",
          "name": "amount",
          "type": "uint256"
        }
      ],
      "name": "transferFrom",
      "outputs": [
        {
          "internalType": "bool",
          "name": "",
          "type": "bool"
        }
      ],
      "stateMutability": "nonpayable",
      "type": "function"
    },
    {
      "inputs": [
        {
          "internalType": "uint256",
          "name": "assets",
          "type": "uint256"
        },
        {
          "internalType": "address",
          "name": "receiver",
          "type": "address"
        },
        {
          "internalType": "address",
          "name": "owner",
          "type": "address"
        }
      ],
      "name": "withdraw",
      "outputs": [
        {
          "internalType": "uint256",
          "name": "",
          "type": "uint256"
        }
      ],
      "stateMutability": "nonpayable",
      "type": "function"
    }
  ],
  "bytecode": {
    "object": "0x608060405234801561001057600080fd5b5061001961001e565b6100de565b600054610100900460ff161561008a5760405162461bcd60e51b815260206004820152602760248201527f496e697469616c697a61626c653a20636f6e747261637420697320696e697469604482015266616c697a696e6760c81b606482015260840160405180910390fd5b60005460ff90811610156100dc576000805460ff191660ff9081179091556040519081527f7f26b83ff96e1f2b6a682f133852f6798a09c465da95921460cefb38474024989060200160405180910390a15b565b61239280620000ee6000396000f3fe608060405234801561001057600080fd5b50600436106102115760003560e01c806370a0823111610125578063b460af94116100ad578063ce96cb771161007c578063ce96cb7714610451578063d505accf14610464578063d905777e1461047b578063dd62ed3e1461048e578063ef8b30f71461043e57600080fd5b8063b460af9414610403578063ba08765214610416578063c63d75b614610429578063c6e6f5921461043e57600080fd5b806394bf804d116100f457806394bf804d146103af57806395d89b41146103c2578063a457c2d7146103ca578063a9059cbb146103dd578063b3d7f6b9146103f057600080fd5b806370a08231146103555780637ecebe001461037e5780638da9b772146103925780638f15b4141461039c57600080fd5b8063313ce567116101a8578063402d267d11610177578063402d267d1461030b57806341c8bcc31461031e5780634cbcdd8b1461032f5780634cdad506146102465780636e553f651461034257600080fd5b8063313ce567146102bd5780633644e515146102cc57806338d52e0f146102d357806339509351146102f857600080fd5b80630a28a477116101e45780630a28a4771461027c57806318160ddd1461028f578063222f61821461029757806323b872dd146102aa57600080fd5b806301e1d1141461021657806306fdde031461023157806307a2d13a14610246578063095ea7b314610259575b600080fd5b61021e6104a1565b6040519081526020015b60405180910390f35b610239610513565b6040516102289190611caf565b61021e610254366004611cc2565b6105a5565b61026c610267366004611cf7565b6105b8565b6040519015158152602001610228565b61021e61028a366004611cc2565b6105d0565b60355461021e565b61021e6102a5366004611cc2565b6105dd565b61026c6102b8366004611d21565b6105e8565b60405160128152602001610228565b600061021e565b6065546001600160a01b03165b6040516001600160a01b039091168152602001610228565b61026c610306366004611cf7565b61060e565b61021e610319366004611d5d565b610630565b60cb546001600160a01b03166102e0565b61021e61033d366004611cc2565b61064e565b61021e610350366004611d78565b610778565b61021e610363366004611d5d565b6001600160a01b031660009081526033602052604090205490565b61021e61038c366004611d5d565b50600090565b61039a6107f0565b005b61039a6103aa366004611e47565b6107fc565b61021e6103bd366004611d78565b61096f565b610239610989565b61026c6103d8366004611cf7565b610998565b61026c6103eb366004611cf7565b610a1e565b61021e6103fe366004611cc2565b610a2c565b61021e610411366004611ecc565b610a39565b61021e610424366004611ecc565b610ab5565b61021e610437366004611d5d565b5060001990565b61021e61044c366004611cc2565b610b29565b61021e61045f366004611d5d565b610b36565b61039a610472366004611f17565b50505050505050565b61021e610489366004611d5d565b610b5a565b61021e61049c366004611f84565b610b78565b6065546040516370a0823160e01b81523060048201526000916001600160a01b0316906370a0823190602401602060405180830381865afa1580156104ea573d6000803e3d6000fd5b505050506040513d601f19601f8201168201806040525081019061050e9190611fae565b905090565b60606036805461052290611fc7565b80601f016020809104026020016040519081016040528092919081815260200182805461054e90611fc7565b801561059b5780601f106105705761010080835404028352916020019161059b565b820191906000526020600020905b81548152906001019060200180831161057e57829003601f168201915b5050505050905090565b60006105b2826000610ba3565b92915050565b6000336105c6818585610c61565b5060019392505050565b60006105b2826001610d85565b60006105b28261064e565b6000336105f6858285610f85565b610601858585610fff565b60019150505b9392505050565b6000336105c68185856106218383610b78565b61062b9190612017565b610c61565b600061063a6111cd565b6106455760006105b2565b60001992915050565b600061065a60016111e7565b60cc546001600160a01b031661067060026111e7565b61069b60405180604001604052806009815260200168037bd22a92199181d160bd1b8152508261122f565b600061076c826001600160a01b0316633a98ef396040518163ffffffff1660e01b8152600401602060405180830381865afa1580156106de573d6000803e3d6000fd5b505050506040513d601f19601f820116820180604052508101906107029190611fae565b836001600160a01b03166301e1d1146040518163ffffffff1660e01b8152600401602060405180830381865afa158015610740573d6000803e3d6000fd5b505050506040513d601f19601f820116820180604052508101906107649190611fae565b869190611278565b905061060760036111e7565b600061078382610630565b8311156107d75760405162461bcd60e51b815260206004820152601e60248201527f455243343632363a206465706f736974206d6f7265207468616e206d6178000060448201526064015b60405180910390fd5b60006107e284610b29565b905061060733848684611296565b6107fa60176111e7565b565b600054610100900460ff161580801561081c5750600054600160ff909116105b806108365750303b158015610836575060005460ff166001145b6108995760405162461bcd60e51b815260206004820152602e60248201527f496e697469616c697a61626c653a20636f6e747261637420697320616c72656160448201526d191e481a5b9a5d1a585b1a5e995960921b60648201526084016107ce565b6000805460ff1916600117905580156108bc576000805461ff0019166101001790555b6108c68585611314565b6108cf83611345565b6108f285604051806040016040528060018152602001603160f81b815250611375565b60cb80546001600160a01b038085166001600160a01b03199283161790925560cc8054928616929091169190911790558015610968576000805461ff0019169055604051600181527f7f26b83ff96e1f2b6a682f133852f6798a09c465da95921460cefb38474024989060200160405180910390a15b5050505050565b60008061097b84610a2c565b905061060733848387611296565b60606037805461052290611fc7565b600033816109a68286610b78565b905083811015610a065760405162461bcd60e51b815260206004820152602560248201527f45524332303a2064656372656173656420616c6c6f77616e63652062656c6f77604482015264207a65726f60d81b60648201526084016107ce565b610a138286868403610c61565b506001949350505050565b6000336105c6818585610fff565b60006105b2826001610ba3565b6000610a4482610b36565b841115610a935760405162461bcd60e51b815260206004820152601f60248201527f455243343632363a207769746864726177206d6f7265207468616e206d61780060448201526064016107ce565b6000610a9e856105d0565b9050610aad33858588856113a6565b949350505050565b6000610ac082610b5a565b841115610b0f5760405162461bcd60e51b815260206004820152601d60248201527f455243343632363a2072656465656d206d6f7265207468616e206d617800000060448201526064016107ce565b6000610b1a856105a5565b9050610aad33858584896113a6565b60006105b2826000610d85565b6001600160a01b0381166000908152603360205260408120546105b2906000610ba3565b6001600160a01b0381166000908152603360205260408120546105b2565b6001600160a01b03918216600090815260346020908152604080832093909416825291909152205490565b600080610baf60355490565b90508015610bd057610bcb610bc26104a1565b859083866114b3565b610aad565b6065546040805163313ce56760e01b81529051610aad926001600160a01b03169163313ce5679160048083019260209291908290030181865afa158015610c1b573d6000803e3d6000fd5b505050506040513d601f19601f82011682018060405250810190610c3f919061202a565b610c4a90600a61212b565b60125b610c5890600a61212b565b869190866114b3565b6001600160a01b038316610cc35760405162461bcd60e51b8152602060048201526024808201527f45524332303a20617070726f76652066726f6d20746865207a65726f206164646044820152637265737360e01b60648201526084016107ce565b6001600160a01b038216610d245760405162461bcd60e51b815260206004820152602260248201527f45524332303a20617070726f766520746f20746865207a65726f206164647265604482015261737360f01b60648201526084016107ce565b6001600160a01b0383811660008181526034602090815260408083209487168084529482529182902085905590518481527f8c5be1e5ebec7d5bd14f71427d1e84f3dd0314c0f7b2291e5b200ac8c7c3b925910160405180910390a3505050565b600080610d9160355490565b9050610dcd604051806040016040528060198152602001782d2d20696e205f636f6e76657274546f536861726573202d2d60381b815250611510565b610df760405180604001604052806008815260200167030b9b9b2ba399d160c51b81525085611553565b610e2160405180604001604052806008815260200167039bab838363c9d160c51b81525082611553565b610e576040518060400160405280600d81526020016c03a37ba30b620b9b9b2ba399d1609d1b815250610e526104a1565b611553565b8015610e9257610e9260405180604001604052806004815260200163034b99d160e51b815250610e5283610e896104a1565b889190886114b3565b610ecc604051806040016040528060198152602001782d2d20696e205f636f6e76657274546f536861726573202d2d60381b815250611510565b610ee460405180602001604052806000815250611510565b831580610eef575080155b610eff57610bcb81610c586104a1565b610aad610f0e6012600a61212b565b606560009054906101000a90046001600160a01b03166001600160a01b031663313ce5676040518163ffffffff1660e01b8152600401602060405180830381865afa158015610f61573d6000803e3d6000fd5b505050506040513d601f19601f82011682018060405250810190610c4d919061202a565b6000610f918484610b78565b90506000198114610ff95781811015610fec5760405162461bcd60e51b815260206004820152601d60248201527f45524332303a20696e73756666696369656e7420616c6c6f77616e636500000060448201526064016107ce565b610ff98484848403610c61565b50505050565b6001600160a01b0383166110635760405162461bcd60e51b815260206004820152602560248201527f45524332303a207472616e736665722066726f6d20746865207a65726f206164604482015264647265737360d81b60648201526084016107ce565b6001600160a01b0382166110c55760405162461bcd60e51b815260206004820152602360248201527f45524332303a207472616e7366657220746f20746865207a65726f206164647260448201526265737360e81b60648201526084016107ce565b6001600160a01b0383166000908152603360205260409020548181101561113d5760405162461bcd60e51b815260206004820152602660248201527f45524332303a207472616e7366657220616d6f756e7420657863656564732062604482015265616c616e636560d01b60648201526084016107ce565b6001600160a01b03808516600090815260336020526040808220858503905591851681529081208054849290611174908490612017565b92505081905550826001600160a01b0316846001600160a01b03167fddf252ad1be2c89b69c2b068fc378daa952ba7f163c4a11628f55a4df523b3ef846040516111c091815260200190565b60405180910390a3610ff9565b6000806111d86104a1565b118061050e5750506035541590565b61122c816040516024016111fd91815260200190565b60408051601f198184030181529190526020810180516001600160e01b031663f5b1bba960e01b17905261159d565b50565b611274828260405160240161124592919061213a565b60408051601f198184030181529190526020810180516001600160e01b031663319af33360e01b17905261159d565b5050565b600082600019048411830215820261128f57600080fd5b5091020490565b6065546112ae906001600160a01b03168530856115be565b6112b88382611629565b826001600160a01b0316846001600160a01b03167fdcbc1c05240f31ff3ad067ef1ee35ce4997762752e3a095284754544f4c709d78484604051611306929190918252602082015260400190565b60405180910390a350505050565b600054610100900460ff1661133b5760405162461bcd60e51b81526004016107ce90612164565b6112748282611708565b600054610100900460ff1661136c5760405162461bcd60e51b81526004016107ce90612164565b61122c81611748565b600054610100900460ff1661139c5760405162461bcd60e51b81526004016107ce90612164565b6112748282611791565b826001600160a01b0316856001600160a01b0316146113ca576113ca838683610f85565b61140160405180604001604052806015815260200174039b430b932b99034b7102fbbb4ba34323930bb9d1605d1b81525082611553565b61142b60405180604001604052806008815260200167030b9b9b2ba399d160c51b81525083611553565b61143583826117d2565b60655461144c906001600160a01b0316858461199a565b826001600160a01b0316846001600160a01b0316866001600160a01b03167ffbde797d201c681b91056529119e0b02407c7bb96a4a2c75c01fc9667232c8db85856040516114a4929190918252602082015260400190565b60405180910390a45050505050565b6000806114c18686866119ca565b905060018360028111156114d7576114d76121af565b1480156114f45750600084806114ef576114ef6121c5565b868809115b1561150757611504600182612017565b90505b95945050505050565b61122c816040516024016115249190611caf565b60408051601f198184030181529190526020810180516001600160e01b031663104c13eb60e21b17905261159d565b61127482826040516024016115699291906121db565b60408051601f198184030181529190526020810180516001600160e01b03166309710a9d60e41b17905261159d565b505050565b80516a636f6e736f6c652e6c6f67602083016000808483855afa5050505050565b6040516001600160a01b0380851660248301528316604482015260648101829052610ff99085906323b872dd60e01b906084015b60408051601f198184030181529190526020810180516001600160e01b03166001600160e01b031990931692909217909152611a79565b6001600160a01b03821661167f5760405162461bcd60e51b815260206004820152601f60248201527f45524332303a206d696e7420746f20746865207a65726f20616464726573730060448201526064016107ce565b80603560008282546116919190612017565b90915550506001600160a01b038216600090815260336020526040812080548392906116be908490612017565b90915550506040518181526001600160a01b038316906000907fddf252ad1be2c89b69c2b068fc378daa952ba7f163c4a11628f55a4df523b3ef9060200160405180910390a35050565b600054610100900460ff1661172f5760405162461bcd60e51b81526004016107ce90612164565b603661173b838261224b565b506037611598828261224b565b600054610100900460ff1661176f5760405162461bcd60e51b81526004016107ce90612164565b606580546001600160a01b0319166001600160a01b0392909216919091179055565b600054610100900460ff166117b85760405162461bcd60e51b81526004016107ce90612164565b815160209283012081519190920120609791909155609855565b6001600160a01b0382166118325760405162461bcd60e51b815260206004820152602160248201527f45524332303a206275726e2066726f6d20746865207a65726f206164647265736044820152607360f81b60648201526084016107ce565b600060336000846001600160a01b03166001600160a01b0316815260200190815260200160002054905061189b6040518060400160405280601981526020017f6163636f756e7442616c616e636520696e205f6275726e3a200000000000000081525082611553565b6118c560405180604001604052806008815260200167030b6b7bab73a1d160c51b81525083611553565b818110156119205760405162461bcd60e51b815260206004820152602260248201527f45524332303a206275726e20616d6f756e7420657863656564732062616c616e604482015261636560f01b60648201526084016107ce565b6001600160a01b038316600090815260336020526040812083830390556035805484929061194f90849061230b565b90915550506040518281526000906001600160a01b038516907fddf252ad1be2c89b69c2b068fc378daa952ba7f163c4a11628f55a4df523b3ef9060200160405180910390a3505050565b6040516001600160a01b03831660248201526044810182905261159890849063a9059cbb60e01b906064016115f2565b6000808060001985870985870292508281108382030391505080600003611a04578382816119fa576119fa6121c5565b0492505050610607565b808411611a1057600080fd5b60008486880960026001871981018816978890046003810283188082028403028082028403028082028403028082028403028082028403029081029092039091026000889003889004909101858311909403939093029303949094049190911702949350505050565b6000611ace826040518060400160405280602081526020017f5361666545524332303a206c6f772d6c6576656c2063616c6c206661696c6564815250856001600160a01b0316611b4b9092919063ffffffff16565b8051909150156115985780806020019051810190611aec919061231e565b6115985760405162461bcd60e51b815260206004820152602a60248201527f5361666545524332303a204552433230206f7065726174696f6e20646964206e6044820152691bdd081cdd58d8d9595960b21b60648201526084016107ce565b6060610aad8484600085856001600160a01b0385163b611bad5760405162461bcd60e51b815260206004820152601d60248201527f416464726573733a2063616c6c20746f206e6f6e2d636f6e747261637400000060448201526064016107ce565b600080866001600160a01b03168587604051611bc99190612340565b60006040518083038185875af1925050503d8060008114611c06576040519150601f19603f3d011682016040523d82523d6000602084013e611c0b565b606091505b5091509150611c1b828286611c26565b979650505050505050565b60608315611c35575081610607565b825115611c455782518084602001fd5b8160405162461bcd60e51b81526004016107ce9190611caf565b60005b83811015611c7a578181015183820152602001611c62565b50506000910152565b60008151808452611c9b816020860160208601611c5f565b601f01601f19169290920160200192915050565b6020815260006106076020830184611c83565b600060208284031215611cd457600080fd5b5035919050565b80356001600160a01b0381168114611cf257600080fd5b919050565b60008060408385031215611d0a57600080fd5b611d1383611cdb565b946020939093013593505050565b600080600060608486031215611d3657600080fd5b611d3f84611cdb565b9250611d4d60208501611cdb565b9150604084013590509250925092565b600060208284031215611d6f57600080fd5b61060782611cdb565b60008060408385031215611d8b57600080fd5b82359150611d9b60208401611cdb565b90509250929050565b634e487b7160e01b600052604160045260246000fd5b600082601f830112611dcb57600080fd5b813567ffffffffffffffff80821115611de657611de6611da4565b604051601f8301601f19908116603f01168101908282118183101715611e0e57611e0e611da4565b81604052838152866020858801011115611e2757600080fd5b836020870160208301376000602085830101528094505050505092915050565b60008060008060808587031215611e5d57600080fd5b843567ffffffffffffffff80821115611e7557600080fd5b611e8188838901611dba565b95506020870135915080821115611e9757600080fd5b50611ea487828801611dba565b935050611eb360408601611cdb565b9150611ec160608601611cdb565b905092959194509250565b600080600060608486031215611ee157600080fd5b83359250611ef160208501611cdb565b9150611eff60408501611cdb565b90509250925092565b60ff8116811461122c57600080fd5b600080600080600080600060e0888a031215611f3257600080fd5b611f3b88611cdb565b9650611f4960208901611cdb565b955060408801359450606088013593506080880135611f6781611f08565b9699959850939692959460a0840135945060c09093013592915050565b60008060408385031215611f9757600080fd5b611fa083611cdb565b9150611d9b60208401611cdb565b600060208284031215611fc057600080fd5b5051919050565b600181811c90821680611fdb57607f821691505b602082108103611ffb57634e487b7160e01b600052602260045260246000fd5b50919050565b634e487b7160e01b600052601160045260246000fd5b808201808211156105b2576105b2612001565b60006020828403121561203c57600080fd5b815161060781611f08565b600181815b8085111561208257816000190482111561206857612068612001565b8085161561207557918102915b93841c939080029061204c565b509250929050565b600082612099575060016105b2565b816120a6575060006105b2565b81600181146120bc57600281146120c6576120e2565b60019150506105b2565b60ff8411156120d7576120d7612001565b50506001821b6105b2565b5060208310610133831016604e8410600b8410161715612105575081810a6105b2565b61210f8383612047565b806000190482111561212357612123612001565b029392505050565b600061060760ff84168361208a565b60408152600061214d6040830185611c83565b905060018060a01b03831660208301529392505050565b6020808252602b908201527f496e697469616c697a61626c653a20636f6e7472616374206973206e6f74206960408201526a6e697469616c697a696e6760a81b606082015260800190565b634e487b7160e01b600052602160045260246000fd5b634e487b7160e01b600052601260045260246000fd5b6040815260006121ee6040830185611c83565b90508260208301529392505050565b601f82111561159857600081815260208120601f850160051c810160208610156122245750805b601f850160051c820191505b8181101561224357828155600101612230565b505050505050565b815167ffffffffffffffff81111561226557612265611da4565b612279816122738454611fc7565b846121fd565b602080601f8311600181146122ae57600084156122965750858301515b600019600386901b1c1916600185901b178555612243565b600085815260208120601f198616915b828110156122dd578886015182559484019460019091019084016122be565b50858210156122fb5787850151600019600388901b60f8161c191681555b5050505050600190811b01905550565b818103818111156105b2576105b2612001565b60006020828403121561233057600080fd5b8151801515811461060757600080fd5b60008251612352818460208701611c5f565b919091019291505056fea2646970667358221220a38230d6851617f3cec8ef2bd0bc6f14f14520744d056b529ce6bd803429461264736f6c63430008150033",
    "linkReferences": {}
  },
  "methodIdentifiers": {
    "DOMAIN_SEPARATOR()": "3644e515",
    "OZ()": "41c8bcc3",
    "allowance(address,address)": "dd62ed3e",
    "approve(address,uint256)": "095ea7b3",
    "asset()": "38d52e0f",
    "balanceOf(address)": "70a08231",
    "convertToAssets(uint256)": "07a2d13a",
    "convertToShares(uint256)": "c6e6f592",
    "decimals()": "313ce567",
    "decreaseAllowance(address,uint256)": "a457c2d7",
    "deposit(uint256,address)": "6e553f65",
    "deposit2(uint256)": "222f6182",
    "getHello()": "8da9b772",
    "getWozAmount(uint256)": "4cbcdd8b",
    "increaseAllowance(address,uint256)": "39509351",
    "initialize(string,string,address,address)": "8f15b414",
    "maxDeposit(address)": "402d267d",
    "maxMint(address)": "c63d75b6",
    "maxRedeem(address)": "d905777e",
    "maxWithdraw(address)": "ce96cb77",
    "mint(uint256,address)": "94bf804d",
    "name()": "06fdde03",
    "nonces(address)": "7ecebe00",
    "permit(address,address,uint256,uint256,uint8,bytes32,bytes32)": "d505accf",
    "previewDeposit(uint256)": "ef8b30f7",
    "previewMint(uint256)": "b3d7f6b9",
    "previewRedeem(uint256)": "4cdad506",
    "previewWithdraw(uint256)": "0a28a477",
    "redeem(uint256,address,address)": "ba087652",
    "symbol()": "95d89b41",
    "totalAssets()": "01e1d114",
    "totalSupply()": "18160ddd",
    "transfer(address,uint256)": "a9059cbb",
    "transferFrom(address,address,uint256)": "23b872dd",
    "withdraw(uint256,address,address)": "b460af94"
  },
  "id": 46
}