{
  "abi": [
    {
      "inputs": [],
      "stateMutability": "nonpayable",
      "type": "constructor"
    },
    {
      "anonymous": false,
      "inputs": [
        {
          "indexed": true,
          "internalType": "address",
          "name": "owner",
          "type": "address"
        },
        {
          "indexed": true,
          "internalType": "address",
          "name": "spender",
          "type": "address"
        },
        {
          "indexed": false,
          "internalType": "uint256",
          "name": "value",
          "type": "uint256"
        }
      ],
      "name": "Approval",
      "type": "event"
    },
    {
      "anonymous": false,
      "inputs": [
        {
          "indexed": false,
          "internalType": "uint8",
          "name": "version",
          "type": "uint8"
        }
      ],
      "name": "Initialized",
      "type": "event"
    },
    {
      "anonymous": false,
      "inputs": [
        {
          "indexed": true,
          "internalType": "address",
          "name": "from",
          "type": "address"
        },
        {
          "indexed": true,
          "internalType": "address",
          "name": "to",
          "type": "address"
        },
        {
          "indexed": false,
          "internalType": "uint256",
          "name": "value",
          "type": "uint256"
        }
      ],
      "name": "Transfer",
      "type": "event"
    },
    {
      "inputs": [],
      "name": "DOMAIN_SEPARATOR",
      "outputs": [
        {
          "internalType": "bytes32",
          "name": "",
          "type": "bytes32"
        }
      ],
      "stateMutability": "view",
      "type": "function"
    },
    {
      "inputs": [],
      "name": "OZ",
      "outputs": [
        {
          "internalType": "contract ozIDiamond",
          "name": "",
          "type": "address"
        }
      ],
      "stateMutability": "view",
      "type": "function"
    },
    {
      "inputs": [
        {
          "internalType": "address",
          "name": "owner",
          "type": "address"
        },
        {
          "internalType": "address",
          "name": "spender",
          "type": "address"
        }
      ],
      "name": "allowance",
      "outputs": [
        {
          "internalType": "uint256",
          "name": "",
          "type": "uint256"
        }
      ],
      "stateMutability": "view",
      "type": "function"
    },
    {
      "inputs": [
        {
          "internalType": "address",
          "name": "spender",
          "type": "address"
        },
        {
          "internalType": "uint256",
          "name": "amount",
          "type": "uint256"
        }
      ],
      "name": "approve",
      "outputs": [
        {
          "internalType": "bool",
          "name": "",
          "type": "bool"
        }
      ],
      "stateMutability": "nonpayable",
      "type": "function"
    },
    {
      "inputs": [
        {
          "internalType": "address",
          "name": "account",
          "type": "address"
        }
      ],
      "name": "balanceOf",
      "outputs": [
        {
          "internalType": "uint256",
          "name": "",
          "type": "uint256"
        }
      ],
      "stateMutability": "view",
      "type": "function"
    },
    {
      "inputs": [],
      "name": "decimals",
      "outputs": [
        {
          "internalType": "uint8",
          "name": "",
          "type": "uint8"
        }
      ],
      "stateMutability": "view",
      "type": "function"
    },
    {
      "inputs": [
        {
          "internalType": "address",
          "name": "spender",
          "type": "address"
        },
        {
          "internalType": "uint256",
          "name": "subtractedValue",
          "type": "uint256"
        }
      ],
      "name": "decreaseAllowance",
      "outputs": [
        {
          "internalType": "bool",
          "name": "",
          "type": "bool"
        }
      ],
      "stateMutability": "nonpayable",
      "type": "function"
    },
    {
      "inputs": [
        {
          "internalType": "uint256",
          "name": "amountIn_",
          "type": "uint256"
        },
        {
          "internalType": "address",
          "name": "receiver_",
          "type": "address"
        }
      ],
      "name": "deposit2",
      "outputs": [
        {
          "internalType": "uint256",
          "name": "",
          "type": "uint256"
        }
      ],
      "stateMutability": "nonpayable",
      "type": "function"
    },
    {
      "inputs": [],
      "name": "getHello",
      "outputs": [],
      "stateMutability": "view",
      "type": "function"
    },
    {
      "inputs": [
        {
          "internalType": "uint256",
          "name": "wozAmount_",
          "type": "uint256"
        }
      ],
      "name": "getOzAmount",
      "outputs": [
        {
          "internalType": "uint256",
          "name": "",
          "type": "uint256"
        }
      ],
      "stateMutability": "view",
      "type": "function"
    },
    {
      "inputs": [
        {
          "internalType": "uint256",
          "name": "ozAmount_",
          "type": "uint256"
        }
      ],
      "name": "getWozAmount",
      "outputs": [
        {
          "internalType": "uint256",
          "name": "",
          "type": "uint256"
        }
      ],
      "stateMutability": "view",
      "type": "function"
    },
    {
      "inputs": [
        {
          "internalType": "address",
          "name": "spender",
          "type": "address"
        },
        {
          "internalType": "uint256",
          "name": "addedValue",
          "type": "uint256"
        }
      ],
      "name": "increaseAllowance",
      "outputs": [
        {
          "internalType": "bool",
          "name": "",
          "type": "bool"
        }
      ],
      "stateMutability": "nonpayable",
      "type": "function"
    },
    {
      "inputs": [
        {
          "internalType": "string",
          "name": "name_",
          "type": "string"
        },
        {
          "internalType": "string",
          "name": "symbol_",
          "type": "string"
        },
        {
          "internalType": "address",
          "name": "asset_",
          "type": "address"
        },
        {
          "internalType": "address",
          "name": "ozDiamond_",
          "type": "address"
        }
      ],
      "name": "initialize",
      "outputs": [],
      "stateMutability": "nonpayable",
      "type": "function"
    },
    {
      "inputs": [],
      "name": "name",
      "outputs": [
        {
          "internalType": "string",
          "name": "",
          "type": "string"
        }
      ],
      "stateMutability": "view",
      "type": "function"
    },
    {
      "inputs": [
        {
          "internalType": "address",
          "name": "owner",
          "type": "address"
        }
      ],
      "name": "nonces",
      "outputs": [
        {
          "internalType": "uint256",
          "name": "",
          "type": "uint256"
        }
      ],
      "stateMutability": "view",
      "type": "function"
    },
    {
      "inputs": [
        {
          "internalType": "address",
          "name": "owner",
          "type": "address"
        },
        {
          "internalType": "address",
          "name": "spender",
          "type": "address"
        },
        {
          "internalType": "uint256",
          "name": "value",
          "type": "uint256"
        },
        {
          "internalType": "uint256",
          "name": "deadline",
          "type": "uint256"
        },
        {
          "internalType": "uint8",
          "name": "v",
          "type": "uint8"
        },
        {
          "internalType": "bytes32",
          "name": "r",
          "type": "bytes32"
        },
        {
          "internalType": "bytes32",
          "name": "s",
          "type": "bytes32"
        }
      ],
      "name": "permit",
      "outputs": [],
      "stateMutability": "nonpayable",
      "type": "function"
    },
    {
      "inputs": [],
      "name": "symbol",
      "outputs": [
        {
          "internalType": "string",
          "name": "",
          "type": "string"
        }
      ],
      "stateMutability": "view",
      "type": "function"
    },
    {
      "inputs": [],
      "name": "totalSupply",
      "outputs": [
        {
          "internalType": "uint256",
          "name": "",
          "type": "uint256"
        }
      ],
      "stateMutability": "view",
      "type": "function"
    },
    {
      "inputs": [
        {
          "internalType": "address",
          "name": "to",
          "type": "address"
        },
        {
          "internalType": "uint256",
          "name": "amount",
          "type": "uint256"
        }
      ],
      "name": "transfer",
      "outputs": [
        {
          "internalType": "bool",
          "name": "",
          "type": "bool"
        }
      ],
      "stateMutability": "nonpayable",
      "type": "function"
    },
    {
      "inputs": [
        {
          "internalType": "address",
          "name": "from",
          "type": "address"
        },
        {
          "internalType": "address",
          "name": "to",
          "type": "address"
        },
        {
          "internalType": "uint256",
          "name": "amount",
          "type": "uint256"
        }
      ],
      "name": "transferFrom",
      "outputs": [
        {
          "internalType": "bool",
          "name": "",
          "type": "bool"
        }
      ],
      "stateMutability": "nonpayable",
      "type": "function"
    },
    {
      "inputs": [
        {
          "internalType": "uint256",
          "name": "wozAmountIn_",
          "type": "uint256"
        },
        {
          "internalType": "address",
          "name": "receiver_",
          "type": "address"
        },
        {
          "internalType": "address",
          "name": "owner_",
          "type": "address"
        }
      ],
      "name": "unwrap",
      "outputs": [],
      "stateMutability": "nonpayable",
      "type": "function"
    }
  ],
  "bytecode": {
    "object": "0x608060405234801561001057600080fd5b5061001961001e565b6100de565b600054610100900460ff161561008a5760405162461bcd60e51b815260206004820152602760248201527f496e697469616c697a61626c653a20636f6e747261637420697320696e697469604482015266616c697a696e6760c81b606482015260840160405180910390fd5b60005460ff90811610156100dc576000805460ff191660ff9081179091556040519081527f7f26b83ff96e1f2b6a682f133852f6798a09c465da95921460cefb38474024989060200160405180910390a15b565b611a09806100ed6000396000f3fe608060405234801561001057600080fd5b50600436106101375760003560e01c80637ecebe00116100b8578063a457c2d71161007c578063a457c2d71461026e578063a9059cbb14610281578063aef8bb9114610294578063d505accf146102a7578063dd62ed3e146102be578063fb183a02146102d157600080fd5b80637ecebe00146102225780638da9b772146102365780638f15b4141461024057806395d89b4114610253578063a40f28121461025b57600080fd5b80633644e515116100ff5780633644e515146101b157806339509351146101b857806341c8bcc3146101cb5780634cbcdd8b146101e657806370a08231146101f957600080fd5b806306fdde031461013c578063095ea7b31461015a57806318160ddd1461017d57806323b872dd1461018f578063313ce567146101a2575b600080fd5b6101446102e4565b604051610151919061144a565b60405180910390f35b61016d610168366004611479565b610376565b6040519015158152602001610151565b6035545b604051908152602001610151565b61016d61019d3660046114a3565b610390565b60405160128152602001610151565b6000610181565b61016d6101c6366004611479565b6103b6565b6099546040516001600160a01b039091168152602001610151565b6101816101f43660046114df565b6103d8565b6101816102073660046114f8565b6001600160a01b031660009081526033602052604090205490565b6101816102303660046114f8565b50600090565b61023e610502565b005b61023e61024e3660046115b6565b61050e565b61014461067d565b6101816102693660046114df565b61068c565b61016d61027c366004611479565b610769565b61016d61028f366004611479565b6107ef565b6101816102a236600461163b565b6107fd565b61023e6102b5366004611667565b50505050505050565b6101816102cc3660046116da565b610869565b61023e6102df366004611704565b610894565b6060603680546102f390611740565b80601f016020809104026020016040519081016040528092919081815260200182805461031f90611740565b801561036c5780601f106103415761010080835404028352916020019161036c565b820191906000526020600020905b81548152906001019060200180831161034f57829003601f168201915b5050505050905090565b600033610384818585610944565b60019150505b92915050565b60003361039e858285610a69565b6103a9858585610ae3565b60019150505b9392505050565b6000336103848185856103c98383610869565b6103d39190611790565b610944565b60006103e46001610cb1565b609a546001600160a01b03166103fa6002610cb1565b61042560405180604001604052806009815260200168037bd22a92199181d160bd1b81525082610cf9565b60006104f6826001600160a01b0316633a98ef396040518163ffffffff1660e01b8152600401602060405180830381865afa158015610468573d6000803e3d6000fd5b505050506040513d601f19601f8201168201806040525081019061048c91906117a3565b836001600160a01b03166301e1d1146040518163ffffffff1660e01b8152600401602060405180830381865afa1580156104ca573d6000803e3d6000fd5b505050506040513d601f19601f820116820180604052508101906104ee91906117a3565b869190610d42565b90506103af6003610cb1565b61050c6017610cb1565b565b600054610100900460ff161580801561052e5750600054600160ff909116105b806105485750303b158015610548575060005460ff166001145b6105b05760405162461bcd60e51b815260206004820152602e60248201527f496e697469616c697a61626c653a20636f6e747261637420697320616c72656160448201526d191e481a5b9a5d1a585b1a5e995960921b60648201526084015b60405180910390fd5b6000805460ff1916600117905580156105d3576000805461ff0019166101001790555b6105dd8585610d60565b61060085604051806040016040528060018152602001603160f81b815250610d91565b609980546001600160a01b038085166001600160a01b031992831617909255609a8054928616929091169190911790558015610676576000805461ff0019169055604051600181527f7f26b83ff96e1f2b6a682f133852f6798a09c465da95921460cefb38474024989060200160405180910390a15b5050505050565b6060603780546102f390611740565b609a54604080516278744560e21b815290516000926001600160a01b0316916103af9183916301e1d1149160048083019260209291908290030181865afa1580156106db573d6000803e3d6000fd5b505050506040513d601f19601f820116820180604052508101906106ff91906117a3565b826001600160a01b0316633a98ef396040518163ffffffff1660e01b8152600401602060405180830381865afa15801561073d573d6000803e3d6000fd5b505050506040513d601f19601f8201168201806040525081019061076191906117a3565b859190610d42565b600033816107778286610869565b9050838110156107d75760405162461bcd60e51b815260206004820152602560248201527f45524332303a2064656372656173656420616c6c6f77616e63652062656c6f77604482015264207a65726f60d81b60648201526084016105a7565b6107e48286868403610944565b506001949350505050565b600033610384818585610ae3565b600080610809846103d8565b905061084060405180604001604052806013815260200172033b2ba2bb7bd20b6b7bab73a102f2f2f2f1d1606d1b81525082610dc2565b609a54610858906001600160a01b0316333087610e07565b6108628382610e61565b5092915050565b6001600160a01b03918216600090815260346020908152604080832093909416825291909152205490565b600061089f8461068c565b90506108c36040518060600160405280602181526020016119b36021913982610dc2565b6108cd8285610f40565b609a5460405163a9059cbb60e01b81526001600160a01b038581166004830152602482018490529091169063a9059cbb906044016020604051808303816000875af1158015610920573d6000803e3d6000fd5b505050506040513d601f19601f8201168201806040525081019061067691906117bc565b6001600160a01b0383166109a65760405162461bcd60e51b8152602060048201526024808201527f45524332303a20617070726f76652066726f6d20746865207a65726f206164646044820152637265737360e01b60648201526084016105a7565b6001600160a01b038216610a075760405162461bcd60e51b815260206004820152602260248201527f45524332303a20617070726f766520746f20746865207a65726f206164647265604482015261737360f01b60648201526084016105a7565b6001600160a01b0383811660008181526034602090815260408083209487168084529482529182902085905590518481527f8c5be1e5ebec7d5bd14f71427d1e84f3dd0314c0f7b2291e5b200ac8c7c3b92591015b60405180910390a3505050565b6000610a758484610869565b90506000198114610add5781811015610ad05760405162461bcd60e51b815260206004820152601d60248201527f45524332303a20696e73756666696369656e7420616c6c6f77616e636500000060448201526064016105a7565b610add8484848403610944565b50505050565b6001600160a01b038316610b475760405162461bcd60e51b815260206004820152602560248201527f45524332303a207472616e736665722066726f6d20746865207a65726f206164604482015264647265737360d81b60648201526084016105a7565b6001600160a01b038216610ba95760405162461bcd60e51b815260206004820152602360248201527f45524332303a207472616e7366657220746f20746865207a65726f206164647260448201526265737360e81b60648201526084016105a7565b6001600160a01b03831660009081526033602052604090205481811015610c215760405162461bcd60e51b815260206004820152602660248201527f45524332303a207472616e7366657220616d6f756e7420657863656564732062604482015265616c616e636560d01b60648201526084016105a7565b6001600160a01b03808516600090815260336020526040808220858503905591851681529081208054849290610c58908490611790565b92505081905550826001600160a01b0316846001600160a01b03167fddf252ad1be2c89b69c2b068fc378daa952ba7f163c4a11628f55a4df523b3ef84604051610ca491815260200190565b60405180910390a3610add565b610cf681604051602401610cc791815260200190565b60408051601f198184030181529190526020810180516001600160e01b031663f5b1bba960e01b179052611105565b50565b610d3e8282604051602401610d0f9291906117de565b60408051601f198184030181529190526020810180516001600160e01b031663319af33360e01b179052611105565b5050565b6000826000190484118302158202610d5957600080fd5b5091020490565b600054610100900460ff16610d875760405162461bcd60e51b81526004016105a790611808565b610d3e8282611126565b600054610100900460ff16610db85760405162461bcd60e51b81526004016105a790611808565b610d3e8282611166565b610d3e8282604051602401610dd8929190611853565b60408051601f198184030181529190526020810180516001600160e01b03166309710a9d60e41b179052611105565b604080516001600160a01b0385811660248301528416604482015260648082018490528251808303909101815260849091019091526020810180516001600160e01b03166323b872dd60e01b179052610add9085906111a7565b6001600160a01b038216610eb75760405162461bcd60e51b815260206004820152601f60248201527f45524332303a206d696e7420746f20746865207a65726f20616464726573730060448201526064016105a7565b8060356000828254610ec99190611790565b90915550506001600160a01b03821660009081526033602052604081208054839290610ef6908490611790565b90915550506040518181526001600160a01b038316906000907fddf252ad1be2c89b69c2b068fc378daa952ba7f163c4a11628f55a4df523b3ef9060200160405180910390a35050565b6001600160a01b038216610fa05760405162461bcd60e51b815260206004820152602160248201527f45524332303a206275726e2066726f6d20746865207a65726f206164647265736044820152607360f81b60648201526084016105a7565b600060336000846001600160a01b03166001600160a01b031681526020019081526020016000205490506110096040518060400160405280601981526020017f6163636f756e7442616c616e636520696e205f6275726e3a200000000000000081525082610dc2565b61103360405180604001604052806008815260200167030b6b7bab73a1d160c51b81525083610dc2565b8181101561108e5760405162461bcd60e51b815260206004820152602260248201527f45524332303a206275726e20616d6f756e7420657863656564732062616c616e604482015261636560f01b60648201526084016105a7565b6001600160a01b03831660009081526033602052604081208383039055603580548492906110bd908490611875565b90915550506040518281526000906001600160a01b038516907fddf252ad1be2c89b69c2b068fc378daa952ba7f163c4a11628f55a4df523b3ef90602001610a5c565b505050565b80516a636f6e736f6c652e6c6f67602083016000808483855afa5050505050565b600054610100900460ff1661114d5760405162461bcd60e51b81526004016105a790611808565b603661115983826118d6565b50603761110082826118d6565b600054610100900460ff1661118d5760405162461bcd60e51b81526004016105a790611808565b815160209283012081519190920120606591909155606655565b60006111fc826040518060400160405280602081526020017f5361666545524332303a206c6f772d6c6576656c2063616c6c206661696c6564815250856001600160a01b03166112799092919063ffffffff16565b805190915015611100578080602001905181019061121a91906117bc565b6111005760405162461bcd60e51b815260206004820152602a60248201527f5361666545524332303a204552433230206f7065726174696f6e20646964206e6044820152691bdd081cdd58d8d9595960b21b60648201526084016105a7565b60606112888484600085611290565b949350505050565b6060824710156112f15760405162461bcd60e51b815260206004820152602660248201527f416464726573733a20696e73756666696369656e742062616c616e636520666f6044820152651c8818d85b1b60d21b60648201526084016105a7565b6001600160a01b0385163b6113485760405162461bcd60e51b815260206004820152601d60248201527f416464726573733a2063616c6c20746f206e6f6e2d636f6e747261637400000060448201526064016105a7565b600080866001600160a01b031685876040516113649190611996565b60006040518083038185875af1925050503d80600081146113a1576040519150601f19603f3d011682016040523d82523d6000602084013e6113a6565b606091505b50915091506113b68282866113c1565b979650505050505050565b606083156113d05750816103af565b8251156113e05782518084602001fd5b8160405162461bcd60e51b81526004016105a7919061144a565b60005b838110156114155781810151838201526020016113fd565b50506000910152565b600081518084526114368160208601602086016113fa565b601f01601f19169290920160200192915050565b6020815260006103af602083018461141e565b80356001600160a01b038116811461147457600080fd5b919050565b6000806040838503121561148c57600080fd5b6114958361145d565b946020939093013593505050565b6000806000606084860312156114b857600080fd5b6114c18461145d565b92506114cf6020850161145d565b9150604084013590509250925092565b6000602082840312156114f157600080fd5b5035919050565b60006020828403121561150a57600080fd5b6103af8261145d565b634e487b7160e01b600052604160045260246000fd5b600082601f83011261153a57600080fd5b813567ffffffffffffffff8082111561155557611555611513565b604051601f8301601f19908116603f0116810190828211818310171561157d5761157d611513565b8160405283815286602085880101111561159657600080fd5b836020870160208301376000602085830101528094505050505092915050565b600080600080608085870312156115cc57600080fd5b843567ffffffffffffffff808211156115e457600080fd5b6115f088838901611529565b9550602087013591508082111561160657600080fd5b5061161387828801611529565b9350506116226040860161145d565b91506116306060860161145d565b905092959194509250565b6000806040838503121561164e57600080fd5b8235915061165e6020840161145d565b90509250929050565b600080600080600080600060e0888a03121561168257600080fd5b61168b8861145d565b96506116996020890161145d565b95506040880135945060608801359350608088013560ff811681146116bd57600080fd5b9699959850939692959460a0840135945060c09093013592915050565b600080604083850312156116ed57600080fd5b6116f68361145d565b915061165e6020840161145d565b60008060006060848603121561171957600080fd5b833592506117296020850161145d565b91506117376040850161145d565b90509250925092565b600181811c9082168061175457607f821691505b60208210810361177457634e487b7160e01b600052602260045260246000fd5b50919050565b634e487b7160e01b600052601160045260246000fd5b8082018082111561038a5761038a61177a565b6000602082840312156117b557600080fd5b5051919050565b6000602082840312156117ce57600080fd5b815180151581146103af57600080fd5b6040815260006117f1604083018561141e565b905060018060a01b03831660208301529392505050565b6020808252602b908201527f496e697469616c697a61626c653a20636f6e7472616374206973206e6f74206960408201526a6e697469616c697a696e6760a81b606082015260800190565b604081526000611866604083018561141e565b90508260208301529392505050565b8181038181111561038a5761038a61177a565b601f82111561110057600081815260208120601f850160051c810160208610156118af5750805b601f850160051c820191505b818110156118ce578281556001016118bb565b505050505050565b815167ffffffffffffffff8111156118f0576118f0611513565b611904816118fe8454611740565b84611888565b602080601f83116001811461193957600084156119215750858301515b600019600386901b1c1916600185901b1785556118ce565b600085815260208120601f198616915b8281101561196857888601518255948401946001909101908401611949565b50858210156119865787850151600019600388901b60f8161c191681555b5050505050600190811b01905550565b600082516119a88184602087016113fa565b919091019291505056fe6765744f7a416d6f756e7428776f7a416d6f756e74496e5f29205e5e5e5e5e3a20a2646970667358221220fefd4eaea759dd948fa7cd63c0498a5ff272364c9659aa02775db4205d7ebfd664736f6c63430008150033",
    "linkReferences": {}
  },
  "methodIdentifiers": {
    "DOMAIN_SEPARATOR()": "3644e515",
    "OZ()": "41c8bcc3",
    "allowance(address,address)": "dd62ed3e",
    "approve(address,uint256)": "095ea7b3",
    "balanceOf(address)": "70a08231",
    "decimals()": "313ce567",
    "decreaseAllowance(address,uint256)": "a457c2d7",
    "deposit2(uint256,address)": "aef8bb91",
    "getHello()": "8da9b772",
    "getOzAmount(uint256)": "a40f2812",
    "getWozAmount(uint256)": "4cbcdd8b",
    "increaseAllowance(address,uint256)": "39509351",
    "initialize(string,string,address,address)": "8f15b414",
    "name()": "06fdde03",
    "nonces(address)": "7ecebe00",
    "permit(address,address,uint256,uint256,uint8,bytes32,bytes32)": "d505accf",
    "symbol()": "95d89b41",
    "totalSupply()": "18160ddd",
    "transfer(address,uint256)": "a9059cbb",
    "transferFrom(address,address,uint256)": "23b872dd",
    "unwrap(uint256,address,address)": "fb183a02"
  },
  "id": 46
}