{
  "abi": [
    {
      "inputs": [],
      "stateMutability": "nonpayable",
      "type": "constructor"
    },
    {
      "anonymous": false,
      "inputs": [
        {
          "indexed": true,
          "internalType": "address",
          "name": "owner",
          "type": "address"
        },
        {
          "indexed": true,
          "internalType": "address",
          "name": "spender",
          "type": "address"
        },
        {
          "indexed": false,
          "internalType": "uint256",
          "name": "value",
          "type": "uint256"
        }
      ],
      "name": "Approval",
      "type": "event"
    },
    {
      "anonymous": false,
      "inputs": [
        {
          "indexed": false,
          "internalType": "uint8",
          "name": "version",
          "type": "uint8"
        }
      ],
      "name": "Initialized",
      "type": "event"
    },
    {
      "anonymous": false,
      "inputs": [
        {
          "indexed": true,
          "internalType": "address",
          "name": "from",
          "type": "address"
        },
        {
          "indexed": true,
          "internalType": "address",
          "name": "to",
          "type": "address"
        },
        {
          "indexed": false,
          "internalType": "uint256",
          "name": "value",
          "type": "uint256"
        }
      ],
      "name": "Transfer",
      "type": "event"
    },
    {
      "inputs": [],
      "name": "DOMAIN_SEPARATOR",
      "outputs": [
        {
          "internalType": "bytes32",
          "name": "",
          "type": "bytes32"
        }
      ],
      "stateMutability": "view",
      "type": "function"
    },
    {
      "inputs": [],
      "name": "OZ",
      "outputs": [
        {
          "internalType": "contract ozIDiamond",
          "name": "",
          "type": "address"
        }
      ],
      "stateMutability": "view",
      "type": "function"
    },
    {
      "inputs": [
        {
          "internalType": "address",
          "name": "owner",
          "type": "address"
        },
        {
          "internalType": "address",
          "name": "spender",
          "type": "address"
        }
      ],
      "name": "allowance",
      "outputs": [
        {
          "internalType": "uint256",
          "name": "",
          "type": "uint256"
        }
      ],
      "stateMutability": "view",
      "type": "function"
    },
    {
      "inputs": [
        {
          "internalType": "address",
          "name": "spender",
          "type": "address"
        },
        {
          "internalType": "uint256",
          "name": "amount",
          "type": "uint256"
        }
      ],
      "name": "approve",
      "outputs": [
        {
          "internalType": "bool",
          "name": "",
          "type": "bool"
        }
      ],
      "stateMutability": "nonpayable",
      "type": "function"
    },
    {
      "inputs": [],
      "name": "asset",
      "outputs": [
        {
          "internalType": "address",
          "name": "",
          "type": "address"
        }
      ],
      "stateMutability": "view",
      "type": "function"
    },
    {
      "inputs": [
        {
          "internalType": "address",
          "name": "account",
          "type": "address"
        }
      ],
      "name": "balanceOf",
      "outputs": [
        {
          "internalType": "uint256",
          "name": "",
          "type": "uint256"
        }
      ],
      "stateMutability": "view",
      "type": "function"
    },
    {
      "inputs": [],
      "name": "decimals",
      "outputs": [
        {
          "internalType": "uint8",
          "name": "",
          "type": "uint8"
        }
      ],
      "stateMutability": "view",
      "type": "function"
    },
    {
      "inputs": [
        {
          "internalType": "address",
          "name": "spender",
          "type": "address"
        },
        {
          "internalType": "uint256",
          "name": "subtractedValue",
          "type": "uint256"
        }
      ],
      "name": "decreaseAllowance",
      "outputs": [
        {
          "internalType": "bool",
          "name": "",
          "type": "bool"
        }
      ],
      "stateMutability": "nonpayable",
      "type": "function"
    },
    {
      "inputs": [
        {
          "internalType": "uint256",
          "name": "wozAmount_",
          "type": "uint256"
        }
      ],
      "name": "getOzAmount",
      "outputs": [
        {
          "internalType": "uint256",
          "name": "",
          "type": "uint256"
        }
      ],
      "stateMutability": "view",
      "type": "function"
    },
    {
      "inputs": [
        {
          "internalType": "uint256",
          "name": "ozAmount_",
          "type": "uint256"
        }
      ],
      "name": "getWozAmount",
      "outputs": [
        {
          "internalType": "uint256",
          "name": "",
          "type": "uint256"
        }
      ],
      "stateMutability": "view",
      "type": "function"
    },
    {
      "inputs": [
        {
          "internalType": "address",
          "name": "spender",
          "type": "address"
        },
        {
          "internalType": "uint256",
          "name": "addedValue",
          "type": "uint256"
        }
      ],
      "name": "increaseAllowance",
      "outputs": [
        {
          "internalType": "bool",
          "name": "",
          "type": "bool"
        }
      ],
      "stateMutability": "nonpayable",
      "type": "function"
    },
    {
      "inputs": [
        {
          "internalType": "string",
          "name": "name_",
          "type": "string"
        },
        {
          "internalType": "string",
          "name": "symbol_",
          "type": "string"
        },
        {
          "internalType": "address",
          "name": "asset_",
          "type": "address"
        },
        {
          "internalType": "address",
          "name": "ozDiamond_",
          "type": "address"
        }
      ],
      "name": "initialize",
      "outputs": [],
      "stateMutability": "nonpayable",
      "type": "function"
    },
    {
      "inputs": [],
      "name": "name",
      "outputs": [
        {
          "internalType": "string",
          "name": "",
          "type": "string"
        }
      ],
      "stateMutability": "view",
      "type": "function"
    },
    {
      "inputs": [
        {
          "internalType": "address",
          "name": "owner",
          "type": "address"
        }
      ],
      "name": "nonces",
      "outputs": [
        {
          "internalType": "uint256",
          "name": "",
          "type": "uint256"
        }
      ],
      "stateMutability": "view",
      "type": "function"
    },
    {
      "inputs": [
        {
          "internalType": "address",
          "name": "owner",
          "type": "address"
        },
        {
          "internalType": "address",
          "name": "spender",
          "type": "address"
        },
        {
          "internalType": "uint256",
          "name": "value",
          "type": "uint256"
        },
        {
          "internalType": "uint256",
          "name": "deadline",
          "type": "uint256"
        },
        {
          "internalType": "uint8",
          "name": "v",
          "type": "uint8"
        },
        {
          "internalType": "bytes32",
          "name": "r",
          "type": "bytes32"
        },
        {
          "internalType": "bytes32",
          "name": "s",
          "type": "bytes32"
        }
      ],
      "name": "permit",
      "outputs": [],
      "stateMutability": "nonpayable",
      "type": "function"
    },
    {
      "inputs": [],
      "name": "symbol",
      "outputs": [
        {
          "internalType": "string",
          "name": "",
          "type": "string"
        }
      ],
      "stateMutability": "view",
      "type": "function"
    },
    {
      "inputs": [],
      "name": "totalSupply",
      "outputs": [
        {
          "internalType": "uint256",
          "name": "",
          "type": "uint256"
        }
      ],
      "stateMutability": "view",
      "type": "function"
    },
    {
      "inputs": [
        {
          "internalType": "address",
          "name": "to",
          "type": "address"
        },
        {
          "internalType": "uint256",
          "name": "amount",
          "type": "uint256"
        }
      ],
      "name": "transfer",
      "outputs": [
        {
          "internalType": "bool",
          "name": "",
          "type": "bool"
        }
      ],
      "stateMutability": "nonpayable",
      "type": "function"
    },
    {
      "inputs": [
        {
          "internalType": "address",
          "name": "from",
          "type": "address"
        },
        {
          "internalType": "address",
          "name": "to",
          "type": "address"
        },
        {
          "internalType": "uint256",
          "name": "amount",
          "type": "uint256"
        }
      ],
      "name": "transferFrom",
      "outputs": [
        {
          "internalType": "bool",
          "name": "",
          "type": "bool"
        }
      ],
      "stateMutability": "nonpayable",
      "type": "function"
    },
    {
      "inputs": [
        {
          "internalType": "uint256",
          "name": "wozAmountIn_",
          "type": "uint256"
        },
        {
          "internalType": "address",
          "name": "receiver_",
          "type": "address"
        },
        {
          "internalType": "address",
          "name": "owner_",
          "type": "address"
        }
      ],
      "name": "unwrap",
      "outputs": [
        {
          "internalType": "uint256",
          "name": "ozTokensOut",
          "type": "uint256"
        }
      ],
      "stateMutability": "nonpayable",
      "type": "function"
    },
    {
      "inputs": [
        {
          "internalType": "uint256",
          "name": "ozAmountIn_",
          "type": "uint256"
        },
        {
          "internalType": "address",
          "name": "receiver_",
          "type": "address"
        }
      ],
      "name": "wrap",
      "outputs": [
        {
          "internalType": "uint256",
          "name": "wozAmountOut",
          "type": "uint256"
        }
      ],
      "stateMutability": "nonpayable",
      "type": "function"
    }
  ],
  "bytecode": {
    "object": "0x608060405234801561001057600080fd5b5061001961001e565b6100de565b600054610100900460ff161561008a5760405162461bcd60e51b815260206004820152602760248201527f496e697469616c697a61626c653a20636f6e747261637420697320696e697469604482015266616c697a696e6760c81b606482015260840160405180910390fd5b60005460ff90811610156100dc576000805460ff191660ff9081179091556040519081527f7f26b83ff96e1f2b6a682f133852f6798a09c465da95921460cefb38474024989060200160405180910390a15b565b611790806100ed6000396000f3fe608060405234801561001057600080fd5b50600436106101375760003560e01c80634cbcdd8b116100b8578063a40f28121161007c578063a40f281214610285578063a457c2d714610298578063a9059cbb146102ab578063d505accf146102be578063dd62ed3e146102d5578063fb183a02146102e857600080fd5b80634cbcdd8b1461021857806370a082311461022b5780637ecebe00146102545780638f15b4141461026857806395d89b411461027d57600080fd5b8063313ce567116100ff578063313ce567146101b95780633644e515146101c857806338d52e0f146101cf57806339509351146101f457806341c8bcc31461020757600080fd5b806306fdde031461013c578063095ea7b31461015a57806313bac8201461017d57806318160ddd1461019e57806323b872dd146101a6575b600080fd5b6101446102fb565b6040516101519190611207565b60405180910390f35b61016d610168366004611256565b61038d565b6040519015158152602001610151565b61019061018b366004611280565b6103a7565b604051908152602001610151565b603554610190565b61016d6101b43660046112ac565b6103d7565b60405160128152602001610151565b6000610190565b609a546001600160a01b03165b6040516001600160a01b039091168152602001610151565b61016d610202366004611256565b6103fd565b6099546001600160a01b03166101dc565b6101906102263660046112e8565b61041f565b610190610239366004611301565b6001600160a01b031660009081526033602052604090205490565b610190610262366004611301565b50600090565b61027b6102763660046113bf565b61050c565b005b61014461067b565b6101906102933660046112e8565b61068a565b61016d6102a6366004611256565b61076f565b61016d6102b9366004611256565b6107f5565b61027b6102cc366004611444565b50505050505050565b6101906102e33660046114b7565b610803565b6101906102f63660046114e1565b61082e565b60606036805461030a9061151d565b80601f01602080910402602001604051908101604052809291908181526020018280546103369061151d565b80156103835780601f1061035857610100808354040283529160200191610383565b820191906000526020600020905b81548152906001019060200180831161036657829003601f168201915b5050505050905090565b60003361039b81858561085c565b60019150505b92915050565b60006103b28361041f565b609a549091506103cd906001600160a01b0316333086610981565b6103a182826109f2565b6000336103e5858285610ad2565b6103f0858585610b46565b60019150505b9392505050565b60003361039b8185856104108383610803565b61041a919061156d565b61085c565b609a5460408051633a98ef3960e01b815290516000926001600160a01b0316916103f6918391633a98ef399160048083019260209291908290030181865afa15801561046f573d6000803e3d6000fd5b505050506040513d601f19601f820116820180604052508101906104939190611580565b6104a29064e8d4a51000611599565b826001600160a01b03166318160ddd6040518163ffffffff1660e01b8152600401602060405180830381865afa1580156104e0573d6000803e3d6000fd5b505050506040513d601f19601f820116820180604052508101906105049190611580565b859190610d14565b600054610100900460ff161580801561052c5750600054600160ff909116105b806105465750303b158015610546575060005460ff166001145b6105ae5760405162461bcd60e51b815260206004820152602e60248201527f496e697469616c697a61626c653a20636f6e747261637420697320616c72656160448201526d191e481a5b9a5d1a585b1a5e995960921b60648201526084015b60405180910390fd5b6000805460ff1916600117905580156105d1576000805461ff0019166101001790555b6105db8585610d32565b6105fe85604051806040016040528060018152602001603160f81b815250610d63565b609980546001600160a01b038085166001600160a01b031992831617909255609a8054928616929091169190911790558015610674576000805461ff0019169055604051600181527f7f26b83ff96e1f2b6a682f133852f6798a09c465da95921460cefb38474024989060200160405180910390a15b5050505050565b60606037805461030a9061151d565b609a54604080516318160ddd60e01b815290516000926001600160a01b0316916103f69183916318160ddd9160048083019260209291908290030181865afa1580156106da573d6000803e3d6000fd5b505050506040513d601f19601f820116820180604052508101906106fe9190611580565b826001600160a01b0316633a98ef396040518163ffffffff1660e01b8152600401602060405180830381865afa15801561073c573d6000803e3d6000fd5b505050506040513d601f19601f820116820180604052508101906107609190611580565b6105049064e8d4a51000611599565b6000338161077d8286610803565b9050838110156107dd5760405162461bcd60e51b815260206004820152602560248201527f45524332303a2064656372656173656420616c6c6f77616e63652062656c6f77604482015264207a65726f60d81b60648201526084016105a5565b6107ea828686840361085c565b506001949350505050565b60003361039b818585610b46565b6001600160a01b03918216600090815260346020908152604080832093909416825291909152205490565b60006108398461068a565b90506108458285610d94565b609a546103f6906001600160a01b03168483610edf565b6001600160a01b0383166108be5760405162461bcd60e51b8152602060048201526024808201527f45524332303a20617070726f76652066726f6d20746865207a65726f206164646044820152637265737360e01b60648201526084016105a5565b6001600160a01b03821661091f5760405162461bcd60e51b815260206004820152602260248201527f45524332303a20617070726f766520746f20746865207a65726f206164647265604482015261737360f01b60648201526084016105a5565b6001600160a01b0383811660008181526034602090815260408083209487168084529482529182902085905590518481527f8c5be1e5ebec7d5bd14f71427d1e84f3dd0314c0f7b2291e5b200ac8c7c3b92591015b60405180910390a3505050565b6040516001600160a01b03808516602483015283166044820152606481018290526109ec9085906323b872dd60e01b906084015b60408051601f198184030181529190526020810180516001600160e01b03166001600160e01b031990931692909217909152610f0f565b50505050565b6001600160a01b038216610a485760405162461bcd60e51b815260206004820152601f60248201527f45524332303a206d696e7420746f20746865207a65726f20616464726573730060448201526064016105a5565b8060356000828254610a5a919061156d565b90915550506001600160a01b03821660009081526033602052604081208054839290610a8790849061156d565b90915550506040518181526001600160a01b038316906000907fddf252ad1be2c89b69c2b068fc378daa952ba7f163c4a11628f55a4df523b3ef9060200160405180910390a35b5050565b6000610ade8484610803565b905060001981146109ec5781811015610b395760405162461bcd60e51b815260206004820152601d60248201527f45524332303a20696e73756666696369656e7420616c6c6f77616e636500000060448201526064016105a5565b6109ec848484840361085c565b6001600160a01b038316610baa5760405162461bcd60e51b815260206004820152602560248201527f45524332303a207472616e736665722066726f6d20746865207a65726f206164604482015264647265737360d81b60648201526084016105a5565b6001600160a01b038216610c0c5760405162461bcd60e51b815260206004820152602360248201527f45524332303a207472616e7366657220746f20746865207a65726f206164647260448201526265737360e81b60648201526084016105a5565b6001600160a01b03831660009081526033602052604090205481811015610c845760405162461bcd60e51b815260206004820152602660248201527f45524332303a207472616e7366657220616d6f756e7420657863656564732062604482015265616c616e636560d01b60648201526084016105a5565b6001600160a01b03808516600090815260336020526040808220858503905591851681529081208054849290610cbb90849061156d565b92505081905550826001600160a01b0316846001600160a01b03167fddf252ad1be2c89b69c2b068fc378daa952ba7f163c4a11628f55a4df523b3ef84604051610d0791815260200190565b60405180910390a36109ec565b6000826000190484118302158202610d2b57600080fd5b5091020490565b600054610100900460ff16610d595760405162461bcd60e51b81526004016105a5906115b0565b610ace8282610fe1565b600054610100900460ff16610d8a5760405162461bcd60e51b81526004016105a5906115b0565b610ace8282611021565b6001600160a01b038216610df45760405162461bcd60e51b815260206004820152602160248201527f45524332303a206275726e2066726f6d20746865207a65726f206164647265736044820152607360f81b60648201526084016105a5565b6001600160a01b03821660009081526033602052604090205481811015610e685760405162461bcd60e51b815260206004820152602260248201527f45524332303a206275726e20616d6f756e7420657863656564732062616c616e604482015261636560f01b60648201526084016105a5565b6001600160a01b0383166000908152603360205260408120838303905560358054849290610e979084906115fb565b90915550506040518281526000906001600160a01b038516907fddf252ad1be2c89b69c2b068fc378daa952ba7f163c4a11628f55a4df523b3ef90602001610974565b505050565b6040516001600160a01b038316602482015260448101829052610eda90849063a9059cbb60e01b906064016109b5565b6000610f64826040518060400160405280602081526020017f5361666545524332303a206c6f772d6c6576656c2063616c6c206661696c6564815250856001600160a01b03166110629092919063ffffffff16565b805190915015610eda5780806020019051810190610f82919061160e565b610eda5760405162461bcd60e51b815260206004820152602a60248201527f5361666545524332303a204552433230206f7065726174696f6e20646964206e6044820152691bdd081cdd58d8d9595960b21b60648201526084016105a5565b600054610100900460ff166110085760405162461bcd60e51b81526004016105a5906115b0565b6036611014838261167e565b506037610eda828261167e565b600054610100900460ff166110485760405162461bcd60e51b81526004016105a5906115b0565b815160209283012081519190920120606591909155606655565b60606110718484600085611079565b949350505050565b6060824710156110da5760405162461bcd60e51b815260206004820152602660248201527f416464726573733a20696e73756666696369656e742062616c616e636520666f6044820152651c8818d85b1b60d21b60648201526084016105a5565b6001600160a01b0385163b6111315760405162461bcd60e51b815260206004820152601d60248201527f416464726573733a2063616c6c20746f206e6f6e2d636f6e747261637400000060448201526064016105a5565b600080866001600160a01b0316858760405161114d919061173e565b60006040518083038185875af1925050503d806000811461118a576040519150601f19603f3d011682016040523d82523d6000602084013e61118f565b606091505b509150915061119f8282866111aa565b979650505050505050565b606083156111b95750816103f6565b8251156111c95782518084602001fd5b8160405162461bcd60e51b81526004016105a59190611207565b60005b838110156111fe5781810151838201526020016111e6565b50506000910152565b60208152600082518060208401526112268160408501602087016111e3565b601f01601f19169190910160400192915050565b80356001600160a01b038116811461125157600080fd5b919050565b6000806040838503121561126957600080fd5b6112728361123a565b946020939093013593505050565b6000806040838503121561129357600080fd5b823591506112a36020840161123a565b90509250929050565b6000806000606084860312156112c157600080fd5b6112ca8461123a565b92506112d86020850161123a565b9150604084013590509250925092565b6000602082840312156112fa57600080fd5b5035919050565b60006020828403121561131357600080fd5b6103f68261123a565b634e487b7160e01b600052604160045260246000fd5b600082601f83011261134357600080fd5b813567ffffffffffffffff8082111561135e5761135e61131c565b604051601f8301601f19908116603f011681019082821181831017156113865761138661131c565b8160405283815286602085880101111561139f57600080fd5b836020870160208301376000602085830101528094505050505092915050565b600080600080608085870312156113d557600080fd5b843567ffffffffffffffff808211156113ed57600080fd5b6113f988838901611332565b9550602087013591508082111561140f57600080fd5b5061141c87828801611332565b93505061142b6040860161123a565b91506114396060860161123a565b905092959194509250565b600080600080600080600060e0888a03121561145f57600080fd5b6114688861123a565b96506114766020890161123a565b95506040880135945060608801359350608088013560ff8116811461149a57600080fd5b9699959850939692959460a0840135945060c09093013592915050565b600080604083850312156114ca57600080fd5b6114d38361123a565b91506112a36020840161123a565b6000806000606084860312156114f657600080fd5b833592506115066020850161123a565b91506115146040850161123a565b90509250925092565b600181811c9082168061153157607f821691505b60208210810361155157634e487b7160e01b600052602260045260246000fd5b50919050565b634e487b7160e01b600052601160045260246000fd5b808201808211156103a1576103a1611557565b60006020828403121561159257600080fd5b5051919050565b80820281158282048414176103a1576103a1611557565b6020808252602b908201527f496e697469616c697a61626c653a20636f6e7472616374206973206e6f74206960408201526a6e697469616c697a696e6760a81b606082015260800190565b818103818111156103a1576103a1611557565b60006020828403121561162057600080fd5b815180151581146103f657600080fd5b601f821115610eda57600081815260208120601f850160051c810160208610156116575750805b601f850160051c820191505b8181101561167657828155600101611663565b505050505050565b815167ffffffffffffffff8111156116985761169861131c565b6116ac816116a6845461151d565b84611630565b602080601f8311600181146116e157600084156116c95750858301515b600019600386901b1c1916600185901b178555611676565b600085815260208120601f198616915b82811015611710578886015182559484019460019091019084016116f1565b508582101561172e5787850151600019600388901b60f8161c191681555b5050505050600190811b01905550565b600082516117508184602087016111e3565b919091019291505056fea26469706673582212200e1f02eb1a85e0570811c4c829e024bca33045bc331c78c568973ff910a9e92464736f6c63430008150033",
    "linkReferences": {}
  },
  "methodIdentifiers": {
    "DOMAIN_SEPARATOR()": "3644e515",
    "OZ()": "41c8bcc3",
    "allowance(address,address)": "dd62ed3e",
    "approve(address,uint256)": "095ea7b3",
    "asset()": "38d52e0f",
    "balanceOf(address)": "70a08231",
    "decimals()": "313ce567",
    "decreaseAllowance(address,uint256)": "a457c2d7",
    "getOzAmount(uint256)": "a40f2812",
    "getWozAmount(uint256)": "4cbcdd8b",
    "increaseAllowance(address,uint256)": "39509351",
    "initialize(string,string,address,address)": "8f15b414",
    "name()": "06fdde03",
    "nonces(address)": "7ecebe00",
    "permit(address,address,uint256,uint256,uint8,bytes32,bytes32)": "d505accf",
    "symbol()": "95d89b41",
    "totalSupply()": "18160ddd",
    "transfer(address,uint256)": "a9059cbb",
    "transferFrom(address,address,uint256)": "23b872dd",
    "unwrap(uint256,address,address)": "fb183a02",
    "wrap(uint256,address)": "13bac820"
  },
  "id": 46
}