{
  "abi": [
    {
      "inputs": [],
      "stateMutability": "nonpayable",
      "type": "constructor"
    },
    {
      "anonymous": false,
      "inputs": [
        {
          "indexed": true,
          "internalType": "address",
          "name": "owner",
          "type": "address"
        },
        {
          "indexed": true,
          "internalType": "address",
          "name": "spender",
          "type": "address"
        },
        {
          "indexed": false,
          "internalType": "uint256",
          "name": "value",
          "type": "uint256"
        }
      ],
      "name": "Approval",
      "type": "event"
    },
    {
      "anonymous": false,
      "inputs": [
        {
          "indexed": false,
          "internalType": "uint8",
          "name": "version",
          "type": "uint8"
        }
      ],
      "name": "Initialized",
      "type": "event"
    },
    {
      "anonymous": false,
      "inputs": [
        {
          "indexed": true,
          "internalType": "address",
          "name": "from",
          "type": "address"
        },
        {
          "indexed": true,
          "internalType": "address",
          "name": "to",
          "type": "address"
        },
        {
          "indexed": false,
          "internalType": "uint256",
          "name": "value",
          "type": "uint256"
        }
      ],
      "name": "Transfer",
      "type": "event"
    },
    {
      "inputs": [],
      "name": "DOMAIN_SEPARATOR",
      "outputs": [
        {
          "internalType": "bytes32",
          "name": "",
          "type": "bytes32"
        }
      ],
      "stateMutability": "view",
      "type": "function"
    },
    {
      "inputs": [],
      "name": "OZ",
      "outputs": [
        {
          "internalType": "contract ozIDiamond",
          "name": "",
          "type": "address"
        }
      ],
      "stateMutability": "view",
      "type": "function"
    },
    {
      "inputs": [
        {
          "internalType": "address",
          "name": "owner",
          "type": "address"
        },
        {
          "internalType": "address",
          "name": "spender",
          "type": "address"
        }
      ],
      "name": "allowance",
      "outputs": [
        {
          "internalType": "uint256",
          "name": "",
          "type": "uint256"
        }
      ],
      "stateMutability": "view",
      "type": "function"
    },
    {
      "inputs": [
        {
          "internalType": "address",
          "name": "spender",
          "type": "address"
        },
        {
          "internalType": "uint256",
          "name": "amount",
          "type": "uint256"
        }
      ],
      "name": "approve",
      "outputs": [
        {
          "internalType": "bool",
          "name": "",
          "type": "bool"
        }
      ],
      "stateMutability": "nonpayable",
      "type": "function"
    },
    {
      "inputs": [],
      "name": "asset",
      "outputs": [
        {
          "internalType": "address",
          "name": "",
          "type": "address"
        }
      ],
      "stateMutability": "view",
      "type": "function"
    },
    {
      "inputs": [
        {
          "internalType": "address",
          "name": "account",
          "type": "address"
        }
      ],
      "name": "balanceOf",
      "outputs": [
        {
          "internalType": "uint256",
          "name": "",
          "type": "uint256"
        }
      ],
      "stateMutability": "view",
      "type": "function"
    },
    {
      "inputs": [],
      "name": "decimals",
      "outputs": [
        {
          "internalType": "uint8",
          "name": "",
          "type": "uint8"
        }
      ],
      "stateMutability": "view",
      "type": "function"
    },
    {
      "inputs": [
        {
          "internalType": "address",
          "name": "spender",
          "type": "address"
        },
        {
          "internalType": "uint256",
          "name": "subtractedValue",
          "type": "uint256"
        }
      ],
      "name": "decreaseAllowance",
      "outputs": [
        {
          "internalType": "bool",
          "name": "",
          "type": "bool"
        }
      ],
      "stateMutability": "nonpayable",
      "type": "function"
    },
    {
      "inputs": [
        {
          "internalType": "uint256",
          "name": "wozAmount_",
          "type": "uint256"
        }
      ],
      "name": "getOzAmount",
      "outputs": [
        {
          "internalType": "uint256",
          "name": "",
          "type": "uint256"
        }
      ],
      "stateMutability": "view",
      "type": "function"
    },
    {
      "inputs": [
        {
          "internalType": "uint256",
          "name": "ozAmount_",
          "type": "uint256"
        }
      ],
      "name": "getWozAmount",
      "outputs": [
        {
          "internalType": "uint256",
          "name": "",
          "type": "uint256"
        }
      ],
      "stateMutability": "view",
      "type": "function"
    },
    {
      "inputs": [
        {
          "internalType": "address",
          "name": "spender",
          "type": "address"
        },
        {
          "internalType": "uint256",
          "name": "addedValue",
          "type": "uint256"
        }
      ],
      "name": "increaseAllowance",
      "outputs": [
        {
          "internalType": "bool",
          "name": "",
          "type": "bool"
        }
      ],
      "stateMutability": "nonpayable",
      "type": "function"
    },
    {
      "inputs": [
        {
          "internalType": "string",
          "name": "name_",
          "type": "string"
        },
        {
          "internalType": "string",
          "name": "symbol_",
          "type": "string"
        },
        {
          "internalType": "address",
          "name": "asset_",
          "type": "address"
        },
        {
          "internalType": "address",
          "name": "ozDiamond_",
          "type": "address"
        }
      ],
      "name": "initialize",
      "outputs": [],
      "stateMutability": "nonpayable",
      "type": "function"
    },
    {
      "inputs": [],
      "name": "name",
      "outputs": [
        {
          "internalType": "string",
          "name": "",
          "type": "string"
        }
      ],
      "stateMutability": "view",
      "type": "function"
    },
    {
      "inputs": [
        {
          "internalType": "address",
          "name": "owner",
          "type": "address"
        }
      ],
      "name": "nonces",
      "outputs": [
        {
          "internalType": "uint256",
          "name": "",
          "type": "uint256"
        }
      ],
      "stateMutability": "view",
      "type": "function"
    },
    {
      "inputs": [
        {
          "internalType": "address",
          "name": "owner",
          "type": "address"
        },
        {
          "internalType": "address",
          "name": "spender",
          "type": "address"
        },
        {
          "internalType": "uint256",
          "name": "value",
          "type": "uint256"
        },
        {
          "internalType": "uint256",
          "name": "deadline",
          "type": "uint256"
        },
        {
          "internalType": "uint8",
          "name": "v",
          "type": "uint8"
        },
        {
          "internalType": "bytes32",
          "name": "r",
          "type": "bytes32"
        },
        {
          "internalType": "bytes32",
          "name": "s",
          "type": "bytes32"
        }
      ],
      "name": "permit",
      "outputs": [],
      "stateMutability": "nonpayable",
      "type": "function"
    },
    {
      "inputs": [],
      "name": "symbol",
      "outputs": [
        {
          "internalType": "string",
          "name": "",
          "type": "string"
        }
      ],
      "stateMutability": "view",
      "type": "function"
    },
    {
      "inputs": [],
      "name": "totalSupply",
      "outputs": [
        {
          "internalType": "uint256",
          "name": "",
          "type": "uint256"
        }
      ],
      "stateMutability": "view",
      "type": "function"
    },
    {
      "inputs": [
        {
          "internalType": "address",
          "name": "to",
          "type": "address"
        },
        {
          "internalType": "uint256",
          "name": "amount",
          "type": "uint256"
        }
      ],
      "name": "transfer",
      "outputs": [
        {
          "internalType": "bool",
          "name": "",
          "type": "bool"
        }
      ],
      "stateMutability": "nonpayable",
      "type": "function"
    },
    {
      "inputs": [
        {
          "internalType": "address",
          "name": "from",
          "type": "address"
        },
        {
          "internalType": "address",
          "name": "to",
          "type": "address"
        },
        {
          "internalType": "uint256",
          "name": "amount",
          "type": "uint256"
        }
      ],
      "name": "transferFrom",
      "outputs": [
        {
          "internalType": "bool",
          "name": "",
          "type": "bool"
        }
      ],
      "stateMutability": "nonpayable",
      "type": "function"
    },
    {
      "inputs": [
        {
          "internalType": "uint256",
          "name": "wozAmountIn_",
          "type": "uint256"
        },
        {
          "internalType": "address",
          "name": "receiver_",
          "type": "address"
        },
        {
          "internalType": "address",
          "name": "owner_",
          "type": "address"
        }
      ],
      "name": "unwrap",
      "outputs": [
        {
          "internalType": "uint256",
          "name": "ozTokensOut",
          "type": "uint256"
        }
      ],
      "stateMutability": "nonpayable",
      "type": "function"
    },
    {
      "inputs": [
        {
          "internalType": "uint256",
          "name": "ozAmountIn_",
          "type": "uint256"
        },
        {
          "internalType": "address",
          "name": "receiver_",
          "type": "address"
        }
      ],
      "name": "wrap",
      "outputs": [
        {
          "internalType": "uint256",
          "name": "wozAmountOut",
          "type": "uint256"
        }
      ],
      "stateMutability": "nonpayable",
      "type": "function"
    }
  ],
  "bytecode": {
    "object": "0x608060405234801561001057600080fd5b5061001961001e565b6100de565b600054610100900460ff161561008a5760405162461bcd60e51b815260206004820152602760248201527f496e697469616c697a61626c653a20636f6e747261637420697320696e697469604482015266616c697a696e6760c81b606482015260840160405180910390fd5b60005460ff90811610156100dc576000805460ff191660ff9081179091556040519081527f7f26b83ff96e1f2b6a682f133852f6798a09c465da95921460cefb38474024989060200160405180910390a15b565b6117ca806100ed6000396000f3fe608060405234801561001057600080fd5b50600436106101375760003560e01c80634cbcdd8b116100b8578063a40f28121161007c578063a40f281214610285578063a457c2d714610298578063a9059cbb146102ab578063d505accf146102be578063dd62ed3e146102d5578063fb183a02146102e857600080fd5b80634cbcdd8b1461021857806370a082311461022b5780637ecebe00146102545780638f15b4141461026857806395d89b411461027d57600080fd5b8063313ce567116100ff578063313ce567146101b95780633644e515146101c857806338d52e0f146101cf57806339509351146101f457806341c8bcc31461020757600080fd5b806306fdde031461013c578063095ea7b31461015a57806313bac8201461017d57806318160ddd1461019e57806323b872dd146101a6575b600080fd5b6101446102fb565b6040516101519190611241565b60405180910390f35b61016d610168366004611290565b61038d565b6040519015158152602001610151565b61019061018b3660046112ba565b6103a7565b604051908152602001610151565b603554610190565b61016d6101b43660046112e6565b6103d7565b60405160128152602001610151565b6000610190565b609a546001600160a01b03165b6040516001600160a01b039091168152602001610151565b61016d610202366004611290565b6103fd565b6099546001600160a01b03166101dc565b610190610226366004611322565b61041f565b61019061023936600461133b565b6001600160a01b031660009081526033602052604090205490565b61019061026236600461133b565b50600090565b61027b6102763660046113f9565b610529565b005b610144610698565b610190610293366004611322565b6106a7565b61016d6102a6366004611290565b6107a9565b61016d6102b9366004611290565b61082f565b61027b6102cc36600461147e565b50505050505050565b6101906102e33660046114f1565b61083d565b6101906102f636600461151b565b610868565b60606036805461030a90611557565b80601f016020809104026020016040519081016040528092919081815260200182805461033690611557565b80156103835780601f1061035857610100808354040283529160200191610383565b820191906000526020600020905b81548152906001019060200180831161036657829003601f168201915b5050505050905090565b60003361039b818585610896565b60019150505b92915050565b60006103b28361041f565b609a549091506103cd906001600160a01b03163330866109bb565b6103a18282610a2c565b6000336103e5858285610b0c565b6103f0858585610b80565b60019150505b9392505050565b60003361039b818585610410838361083d565b61041a91906115a7565b610896565b60006103a1609a60009054906101000a90046001600160a01b03166001600160a01b0316633a98ef396040518163ffffffff1660e01b8152600401602060405180830381865afa158015610477573d6000803e3d6000fd5b505050506040513d601f19601f8201168201806040525081019061049b91906115ba565b6104aa9064e8d4a510006115d3565b609a60009054906101000a90046001600160a01b03166001600160a01b03166318160ddd6040518163ffffffff1660e01b8152600401602060405180830381865afa1580156104fd573d6000803e3d6000fd5b505050506040513d601f19601f8201168201806040525081019061052191906115ba565b849190610d4e565b600054610100900460ff16158080156105495750600054600160ff909116105b806105635750303b158015610563575060005460ff166001145b6105cb5760405162461bcd60e51b815260206004820152602e60248201527f496e697469616c697a61626c653a20636f6e747261637420697320616c72656160448201526d191e481a5b9a5d1a585b1a5e995960921b60648201526084015b60405180910390fd5b6000805460ff1916600117905580156105ee576000805461ff0019166101001790555b6105f88585610d6c565b61061b85604051806040016040528060018152602001603160f81b815250610d9d565b609980546001600160a01b038085166001600160a01b031992831617909255609a8054928616929091169190911790558015610691576000805461ff0019169055604051600181527f7f26b83ff96e1f2b6a682f133852f6798a09c465da95921460cefb38474024989060200160405180910390a15b5050505050565b60606037805461030a90611557565b60006103a1609a60009054906101000a90046001600160a01b03166001600160a01b03166318160ddd6040518163ffffffff1660e01b8152600401602060405180830381865afa1580156106ff573d6000803e3d6000fd5b505050506040513d601f19601f8201168201806040525081019061072391906115ba565b609a60009054906101000a90046001600160a01b03166001600160a01b0316633a98ef396040518163ffffffff1660e01b8152600401602060405180830381865afa158015610776573d6000803e3d6000fd5b505050506040513d601f19601f8201168201806040525081019061079a91906115ba565b6105219064e8d4a510006115d3565b600033816107b7828661083d565b9050838110156108175760405162461bcd60e51b815260206004820152602560248201527f45524332303a2064656372656173656420616c6c6f77616e63652062656c6f77604482015264207a65726f60d81b60648201526084016105c2565b6108248286868403610896565b506001949350505050565b60003361039b818585610b80565b6001600160a01b03918216600090815260346020908152604080832093909416825291909152205490565b6000610873846106a7565b905061087f8285610dce565b609a546103f6906001600160a01b03168483610f19565b6001600160a01b0383166108f85760405162461bcd60e51b8152602060048201526024808201527f45524332303a20617070726f76652066726f6d20746865207a65726f206164646044820152637265737360e01b60648201526084016105c2565b6001600160a01b0382166109595760405162461bcd60e51b815260206004820152602260248201527f45524332303a20617070726f766520746f20746865207a65726f206164647265604482015261737360f01b60648201526084016105c2565b6001600160a01b0383811660008181526034602090815260408083209487168084529482529182902085905590518481527f8c5be1e5ebec7d5bd14f71427d1e84f3dd0314c0f7b2291e5b200ac8c7c3b92591015b60405180910390a3505050565b6040516001600160a01b0380851660248301528316604482015260648101829052610a269085906323b872dd60e01b906084015b60408051601f198184030181529190526020810180516001600160e01b03166001600160e01b031990931692909217909152610f49565b50505050565b6001600160a01b038216610a825760405162461bcd60e51b815260206004820152601f60248201527f45524332303a206d696e7420746f20746865207a65726f20616464726573730060448201526064016105c2565b8060356000828254610a9491906115a7565b90915550506001600160a01b03821660009081526033602052604081208054839290610ac19084906115a7565b90915550506040518181526001600160a01b038316906000907fddf252ad1be2c89b69c2b068fc378daa952ba7f163c4a11628f55a4df523b3ef9060200160405180910390a35b5050565b6000610b18848461083d565b90506000198114610a265781811015610b735760405162461bcd60e51b815260206004820152601d60248201527f45524332303a20696e73756666696369656e7420616c6c6f77616e636500000060448201526064016105c2565b610a268484848403610896565b6001600160a01b038316610be45760405162461bcd60e51b815260206004820152602560248201527f45524332303a207472616e736665722066726f6d20746865207a65726f206164604482015264647265737360d81b60648201526084016105c2565b6001600160a01b038216610c465760405162461bcd60e51b815260206004820152602360248201527f45524332303a207472616e7366657220746f20746865207a65726f206164647260448201526265737360e81b60648201526084016105c2565b6001600160a01b03831660009081526033602052604090205481811015610cbe5760405162461bcd60e51b815260206004820152602660248201527f45524332303a207472616e7366657220616d6f756e7420657863656564732062604482015265616c616e636560d01b60648201526084016105c2565b6001600160a01b03808516600090815260336020526040808220858503905591851681529081208054849290610cf59084906115a7565b92505081905550826001600160a01b0316846001600160a01b03167fddf252ad1be2c89b69c2b068fc378daa952ba7f163c4a11628f55a4df523b3ef84604051610d4191815260200190565b60405180910390a3610a26565b6000826000190484118302158202610d6557600080fd5b5091020490565b600054610100900460ff16610d935760405162461bcd60e51b81526004016105c2906115ea565b610b08828261101b565b600054610100900460ff16610dc45760405162461bcd60e51b81526004016105c2906115ea565b610b08828261105b565b6001600160a01b038216610e2e5760405162461bcd60e51b815260206004820152602160248201527f45524332303a206275726e2066726f6d20746865207a65726f206164647265736044820152607360f81b60648201526084016105c2565b6001600160a01b03821660009081526033602052604090205481811015610ea25760405162461bcd60e51b815260206004820152602260248201527f45524332303a206275726e20616d6f756e7420657863656564732062616c616e604482015261636560f01b60648201526084016105c2565b6001600160a01b0383166000908152603360205260408120838303905560358054849290610ed1908490611635565b90915550506040518281526000906001600160a01b038516907fddf252ad1be2c89b69c2b068fc378daa952ba7f163c4a11628f55a4df523b3ef906020016109ae565b505050565b6040516001600160a01b038316602482015260448101829052610f1490849063a9059cbb60e01b906064016109ef565b6000610f9e826040518060400160405280602081526020017f5361666545524332303a206c6f772d6c6576656c2063616c6c206661696c6564815250856001600160a01b031661109c9092919063ffffffff16565b805190915015610f145780806020019051810190610fbc9190611648565b610f145760405162461bcd60e51b815260206004820152602a60248201527f5361666545524332303a204552433230206f7065726174696f6e20646964206e6044820152691bdd081cdd58d8d9595960b21b60648201526084016105c2565b600054610100900460ff166110425760405162461bcd60e51b81526004016105c2906115ea565b603661104e83826116b8565b506037610f1482826116b8565b600054610100900460ff166110825760405162461bcd60e51b81526004016105c2906115ea565b815160209283012081519190920120606591909155606655565b60606110ab84846000856110b3565b949350505050565b6060824710156111145760405162461bcd60e51b815260206004820152602660248201527f416464726573733a20696e73756666696369656e742062616c616e636520666f6044820152651c8818d85b1b60d21b60648201526084016105c2565b6001600160a01b0385163b61116b5760405162461bcd60e51b815260206004820152601d60248201527f416464726573733a2063616c6c20746f206e6f6e2d636f6e747261637400000060448201526064016105c2565b600080866001600160a01b031685876040516111879190611778565b60006040518083038185875af1925050503d80600081146111c4576040519150601f19603f3d011682016040523d82523d6000602084013e6111c9565b606091505b50915091506111d98282866111e4565b979650505050505050565b606083156111f35750816103f6565b8251156112035782518084602001fd5b8160405162461bcd60e51b81526004016105c29190611241565b60005b83811015611238578181015183820152602001611220565b50506000910152565b602081526000825180602084015261126081604085016020870161121d565b601f01601f19169190910160400192915050565b80356001600160a01b038116811461128b57600080fd5b919050565b600080604083850312156112a357600080fd5b6112ac83611274565b946020939093013593505050565b600080604083850312156112cd57600080fd5b823591506112dd60208401611274565b90509250929050565b6000806000606084860312156112fb57600080fd5b61130484611274565b925061131260208501611274565b9150604084013590509250925092565b60006020828403121561133457600080fd5b5035919050565b60006020828403121561134d57600080fd5b6103f682611274565b634e487b7160e01b600052604160045260246000fd5b600082601f83011261137d57600080fd5b813567ffffffffffffffff8082111561139857611398611356565b604051601f8301601f19908116603f011681019082821181831017156113c0576113c0611356565b816040528381528660208588010111156113d957600080fd5b836020870160208301376000602085830101528094505050505092915050565b6000806000806080858703121561140f57600080fd5b843567ffffffffffffffff8082111561142757600080fd5b6114338883890161136c565b9550602087013591508082111561144957600080fd5b506114568782880161136c565b93505061146560408601611274565b915061147360608601611274565b905092959194509250565b600080600080600080600060e0888a03121561149957600080fd5b6114a288611274565b96506114b060208901611274565b95506040880135945060608801359350608088013560ff811681146114d457600080fd5b9699959850939692959460a0840135945060c09093013592915050565b6000806040838503121561150457600080fd5b61150d83611274565b91506112dd60208401611274565b60008060006060848603121561153057600080fd5b8335925061154060208501611274565b915061154e60408501611274565b90509250925092565b600181811c9082168061156b57607f821691505b60208210810361158b57634e487b7160e01b600052602260045260246000fd5b50919050565b634e487b7160e01b600052601160045260246000fd5b808201808211156103a1576103a1611591565b6000602082840312156115cc57600080fd5b5051919050565b80820281158282048414176103a1576103a1611591565b6020808252602b908201527f496e697469616c697a61626c653a20636f6e7472616374206973206e6f74206960408201526a6e697469616c697a696e6760a81b606082015260800190565b818103818111156103a1576103a1611591565b60006020828403121561165a57600080fd5b815180151581146103f657600080fd5b601f821115610f1457600081815260208120601f850160051c810160208610156116915750805b601f850160051c820191505b818110156116b05782815560010161169d565b505050505050565b815167ffffffffffffffff8111156116d2576116d2611356565b6116e6816116e08454611557565b8461166a565b602080601f83116001811461171b57600084156117035750858301515b600019600386901b1c1916600185901b1785556116b0565b600085815260208120601f198616915b8281101561174a5788860151825594840194600190910190840161172b565b50858210156117685787850151600019600388901b60f8161c191681555b5050505050600190811b01905550565b6000825161178a81846020870161121d565b919091019291505056fea2646970667358221220d9c7324defad0629f3907adefcde9c98126ab580e82844486156a8423bedf94264736f6c63430008150033",
    "linkReferences": {}
  },
  "methodIdentifiers": {
    "DOMAIN_SEPARATOR()": "3644e515",
    "OZ()": "41c8bcc3",
    "allowance(address,address)": "dd62ed3e",
    "approve(address,uint256)": "095ea7b3",
    "asset()": "38d52e0f",
    "balanceOf(address)": "70a08231",
    "decimals()": "313ce567",
    "decreaseAllowance(address,uint256)": "a457c2d7",
    "getOzAmount(uint256)": "a40f2812",
    "getWozAmount(uint256)": "4cbcdd8b",
    "increaseAllowance(address,uint256)": "39509351",
    "initialize(string,string,address,address)": "8f15b414",
    "name()": "06fdde03",
    "nonces(address)": "7ecebe00",
    "permit(address,address,uint256,uint256,uint8,bytes32,bytes32)": "d505accf",
    "symbol()": "95d89b41",
    "totalSupply()": "18160ddd",
    "transfer(address,uint256)": "a9059cbb",
    "transferFrom(address,address,uint256)": "23b872dd",
    "unwrap(uint256,address,address)": "fb183a02",
    "wrap(uint256,address)": "13bac820"
  },
  "id": 46
}