{
  "abi": [
    {
      "inputs": [],
      "stateMutability": "nonpayable",
      "type": "constructor"
    },
    {
      "anonymous": false,
      "inputs": [
        {
          "indexed": true,
          "internalType": "address",
          "name": "owner",
          "type": "address"
        },
        {
          "indexed": true,
          "internalType": "address",
          "name": "spender",
          "type": "address"
        },
        {
          "indexed": false,
          "internalType": "uint256",
          "name": "value",
          "type": "uint256"
        }
      ],
      "name": "Approval",
      "type": "event"
    },
    {
      "anonymous": false,
      "inputs": [
        {
          "indexed": false,
          "internalType": "uint8",
          "name": "version",
          "type": "uint8"
        }
      ],
      "name": "Initialized",
      "type": "event"
    },
    {
      "anonymous": false,
      "inputs": [
        {
          "indexed": true,
          "internalType": "address",
          "name": "from",
          "type": "address"
        },
        {
          "indexed": true,
          "internalType": "address",
          "name": "to",
          "type": "address"
        },
        {
          "indexed": false,
          "internalType": "uint256",
          "name": "value",
          "type": "uint256"
        }
      ],
      "name": "Transfer",
      "type": "event"
    },
    {
      "inputs": [],
      "name": "DOMAIN_SEPARATOR",
      "outputs": [
        {
          "internalType": "bytes32",
          "name": "",
          "type": "bytes32"
        }
      ],
      "stateMutability": "view",
      "type": "function"
    },
    {
      "inputs": [],
      "name": "OZ",
      "outputs": [
        {
          "internalType": "contract ozIDiamond",
          "name": "",
          "type": "address"
        }
      ],
      "stateMutability": "view",
      "type": "function"
    },
    {
      "inputs": [
        {
          "internalType": "address",
          "name": "owner",
          "type": "address"
        },
        {
          "internalType": "address",
          "name": "spender",
          "type": "address"
        }
      ],
      "name": "allowance",
      "outputs": [
        {
          "internalType": "uint256",
          "name": "",
          "type": "uint256"
        }
      ],
      "stateMutability": "view",
      "type": "function"
    },
    {
      "inputs": [
        {
          "internalType": "address",
          "name": "spender",
          "type": "address"
        },
        {
          "internalType": "uint256",
          "name": "amount",
          "type": "uint256"
        }
      ],
      "name": "approve",
      "outputs": [
        {
          "internalType": "bool",
          "name": "",
          "type": "bool"
        }
      ],
      "stateMutability": "nonpayable",
      "type": "function"
    },
    {
      "inputs": [
        {
          "internalType": "address",
          "name": "account",
          "type": "address"
        }
      ],
      "name": "balanceOf",
      "outputs": [
        {
          "internalType": "uint256",
          "name": "",
          "type": "uint256"
        }
      ],
      "stateMutability": "view",
      "type": "function"
    },
    {
      "inputs": [],
      "name": "decimals",
      "outputs": [
        {
          "internalType": "uint8",
          "name": "",
          "type": "uint8"
        }
      ],
      "stateMutability": "view",
      "type": "function"
    },
    {
      "inputs": [
        {
          "internalType": "address",
          "name": "spender",
          "type": "address"
        },
        {
          "internalType": "uint256",
          "name": "subtractedValue",
          "type": "uint256"
        }
      ],
      "name": "decreaseAllowance",
      "outputs": [
        {
          "internalType": "bool",
          "name": "",
          "type": "bool"
        }
      ],
      "stateMutability": "nonpayable",
      "type": "function"
    },
    {
      "inputs": [
        {
          "internalType": "uint256",
          "name": "amountIn_",
          "type": "uint256"
        },
        {
          "internalType": "address",
          "name": "receiver_",
          "type": "address"
        }
      ],
      "name": "deposit2",
      "outputs": [
        {
          "internalType": "uint256",
          "name": "",
          "type": "uint256"
        }
      ],
      "stateMutability": "nonpayable",
      "type": "function"
    },
    {
      "inputs": [],
      "name": "getHello",
      "outputs": [],
      "stateMutability": "view",
      "type": "function"
    },
    {
      "inputs": [
        {
          "internalType": "uint256",
          "name": "wozAmount_",
          "type": "uint256"
        }
      ],
      "name": "getOzAmount",
      "outputs": [
        {
          "internalType": "uint256",
          "name": "",
          "type": "uint256"
        }
      ],
      "stateMutability": "view",
      "type": "function"
    },
    {
      "inputs": [
        {
          "internalType": "uint256",
          "name": "ozAmount_",
          "type": "uint256"
        }
      ],
      "name": "getWozAmount",
      "outputs": [
        {
          "internalType": "uint256",
          "name": "",
          "type": "uint256"
        }
      ],
      "stateMutability": "view",
      "type": "function"
    },
    {
      "inputs": [
        {
          "internalType": "address",
          "name": "spender",
          "type": "address"
        },
        {
          "internalType": "uint256",
          "name": "addedValue",
          "type": "uint256"
        }
      ],
      "name": "increaseAllowance",
      "outputs": [
        {
          "internalType": "bool",
          "name": "",
          "type": "bool"
        }
      ],
      "stateMutability": "nonpayable",
      "type": "function"
    },
    {
      "inputs": [
        {
          "internalType": "string",
          "name": "name_",
          "type": "string"
        },
        {
          "internalType": "string",
          "name": "symbol_",
          "type": "string"
        },
        {
          "internalType": "address",
          "name": "asset_",
          "type": "address"
        },
        {
          "internalType": "address",
          "name": "ozDiamond_",
          "type": "address"
        }
      ],
      "name": "initialize",
      "outputs": [],
      "stateMutability": "nonpayable",
      "type": "function"
    },
    {
      "inputs": [],
      "name": "name",
      "outputs": [
        {
          "internalType": "string",
          "name": "",
          "type": "string"
        }
      ],
      "stateMutability": "view",
      "type": "function"
    },
    {
      "inputs": [
        {
          "internalType": "address",
          "name": "owner",
          "type": "address"
        }
      ],
      "name": "nonces",
      "outputs": [
        {
          "internalType": "uint256",
          "name": "",
          "type": "uint256"
        }
      ],
      "stateMutability": "view",
      "type": "function"
    },
    {
      "inputs": [
        {
          "internalType": "address",
          "name": "owner",
          "type": "address"
        },
        {
          "internalType": "address",
          "name": "spender",
          "type": "address"
        },
        {
          "internalType": "uint256",
          "name": "value",
          "type": "uint256"
        },
        {
          "internalType": "uint256",
          "name": "deadline",
          "type": "uint256"
        },
        {
          "internalType": "uint8",
          "name": "v",
          "type": "uint8"
        },
        {
          "internalType": "bytes32",
          "name": "r",
          "type": "bytes32"
        },
        {
          "internalType": "bytes32",
          "name": "s",
          "type": "bytes32"
        }
      ],
      "name": "permit",
      "outputs": [],
      "stateMutability": "nonpayable",
      "type": "function"
    },
    {
      "inputs": [],
      "name": "symbol",
      "outputs": [
        {
          "internalType": "string",
          "name": "",
          "type": "string"
        }
      ],
      "stateMutability": "view",
      "type": "function"
    },
    {
      "inputs": [],
      "name": "totalSupply",
      "outputs": [
        {
          "internalType": "uint256",
          "name": "",
          "type": "uint256"
        }
      ],
      "stateMutability": "view",
      "type": "function"
    },
    {
      "inputs": [
        {
          "internalType": "address",
          "name": "to",
          "type": "address"
        },
        {
          "internalType": "uint256",
          "name": "amount",
          "type": "uint256"
        }
      ],
      "name": "transfer",
      "outputs": [
        {
          "internalType": "bool",
          "name": "",
          "type": "bool"
        }
      ],
      "stateMutability": "nonpayable",
      "type": "function"
    },
    {
      "inputs": [
        {
          "internalType": "address",
          "name": "from",
          "type": "address"
        },
        {
          "internalType": "address",
          "name": "to",
          "type": "address"
        },
        {
          "internalType": "uint256",
          "name": "amount",
          "type": "uint256"
        }
      ],
      "name": "transferFrom",
      "outputs": [
        {
          "internalType": "bool",
          "name": "",
          "type": "bool"
        }
      ],
      "stateMutability": "nonpayable",
      "type": "function"
    },
    {
      "inputs": [
        {
          "internalType": "uint256",
          "name": "wozAmountIn_",
          "type": "uint256"
        },
        {
          "internalType": "address",
          "name": "receiver_",
          "type": "address"
        },
        {
          "internalType": "address",
          "name": "owner_",
          "type": "address"
        }
      ],
      "name": "unwrap",
      "outputs": [],
      "stateMutability": "nonpayable",
      "type": "function"
    }
  ],
  "bytecode": {
    "object": "0x608060405234801561001057600080fd5b5061001961001e565b6100de565b600054610100900460ff161561008a5760405162461bcd60e51b815260206004820152602760248201527f496e697469616c697a61626c653a20636f6e747261637420697320696e697469604482015266616c697a696e6760c81b606482015260840160405180910390fd5b60005460ff90811610156100dc576000805460ff191660ff9081179091556040519081527f7f26b83ff96e1f2b6a682f133852f6798a09c465da95921460cefb38474024989060200160405180910390a15b565b611cfa806100ed6000396000f3fe608060405234801561001057600080fd5b50600436106101375760003560e01c80637ecebe00116100b8578063a457c2d71161007c578063a457c2d71461026e578063a9059cbb14610281578063aef8bb9114610294578063d505accf146102a7578063dd62ed3e146102be578063fb183a02146102d157600080fd5b80637ecebe00146102225780638da9b772146102365780638f15b4141461024057806395d89b4114610253578063a40f28121461025b57600080fd5b80633644e515116100ff5780633644e515146101b157806339509351146101b857806341c8bcc3146101cb5780634cbcdd8b146101e657806370a08231146101f957600080fd5b806306fdde031461013c578063095ea7b31461015a57806318160ddd1461017d57806323b872dd1461018f578063313ce567146101a2575b600080fd5b6101446102e4565b6040516101519190611743565b60405180910390f35b61016d610168366004611772565b610376565b6040519015158152602001610151565b6035545b604051908152602001610151565b61016d61019d36600461179c565b610390565b60405160128152602001610151565b6000610181565b61016d6101c6366004611772565b6103b6565b6099546040516001600160a01b039091168152602001610151565b6101816101f43660046117d8565b6103d8565b6101816102073660046117f1565b6001600160a01b031660009081526033602052604090205490565b6101816102303660046117f1565b50600090565b61023e61067c565b005b61023e61024e3660046118af565b610688565b6101446107f7565b6101816102693660046117d8565b610806565b61016d61027c366004611772565b610ad1565b61016d61028f366004611772565b610b57565b6101816102a2366004611934565b610b65565b61023e6102b5366004611960565b50505050505050565b6101816102cc3660046119d3565b610bd1565b61023e6102df3660046119fd565b610bfc565b6060603680546102f390611a39565b80601f016020809104026020016040519081016040528092919081815260200182805461031f90611a39565b801561036c5780601f106103415761010080835404028352916020019161036c565b820191906000526020600020905b81548152906001019060200180831161034f57829003601f168201915b5050505050905090565b600033610384818585610cac565b60019150505b92915050565b60003361039e858285610dd1565b6103a9858585610e4b565b60019150505b9392505050565b6000336103848185856103c98383610bd1565b6103d39190611a89565b610cac565b609a546040805180820190915260158152742d2d20696e20676574576f7a416d6f756e74202d2d60581b60208201526000916001600160a01b03169061041d90611019565b61044a6040518060400160405280600b81526020016a037bd20b6b7bab73a2f9d160ad1b8152508461105f565b6104e460405180604001604052806017815260200176037bd22a9219918173a37ba30b620b9b9b2ba3994149d1604d1b815250826001600160a01b03166301e1d1146040518163ffffffff1660e01b8152600401602060405180830381865afa1580156104bb573d6000803e3d6000fd5b505050506040513d601f19601f820116820180604052508101906104df9190611a9c565b61105f565b61055560405180604001604052806017815260200176037bd22a9219918173a37ba30b629b430b932b994149d1604d1b815250826001600160a01b0316633a98ef396040518163ffffffff1660e01b8152600401602060405180830381865afa1580156104bb573d6000803e3d6000fd5b61058b604051806040016040528060158152602001742d2d20696e20676574576f7a416d6f756e74202d2d60581b815250611019565b6105a360405180602001604052806000815250611019565b6000610674826001600160a01b0316633a98ef396040518163ffffffff1660e01b8152600401602060405180830381865afa1580156105e6573d6000803e3d6000fd5b505050506040513d601f19601f8201168201806040525081019061060a9190611a9c565b836001600160a01b03166301e1d1146040518163ffffffff1660e01b8152600401602060405180830381865afa158015610648573d6000803e3d6000fd5b505050506040513d601f19601f8201168201806040525081019061066c9190611a9c565b8691906110a8565b949350505050565b61068660176110c6565b565b600054610100900460ff16158080156106a85750600054600160ff909116105b806106c25750303b1580156106c2575060005460ff166001145b61072a5760405162461bcd60e51b815260206004820152602e60248201527f496e697469616c697a61626c653a20636f6e747261637420697320616c72656160448201526d191e481a5b9a5d1a585b1a5e995960921b60648201526084015b60405180910390fd5b6000805460ff19166001179055801561074d576000805461ff0019166101001790555b610757858561110b565b61077a85604051806040016040528060018152602001603160f81b81525061113c565b609980546001600160a01b038085166001600160a01b031992831617909255609a80549286169290911691909117905580156107f0576000805461ff0019169055604051600181527f7f26b83ff96e1f2b6a682f133852f6798a09c465da95921460cefb38474024989060200160405180910390a15b5050505050565b6060603780546102f390611a39565b609a546040805180820190915260148152732d2d20696e206765744f7a416d6f756e74202d2d60601b60208201526000916001600160a01b03169061084a90611019565b6108786040518060400160405280600c81526020016b03bb7bd20b6b7bab73a2f9d160a51b8152508461105f565b6108e960405180604001604052806017815260200176037bd22a9219918173a37ba30b620b9b9b2ba3994149d1604d1b815250826001600160a01b03166301e1d1146040518163ffffffff1660e01b8152600401602060405180830381865afa1580156104bb573d6000803e3d6000fd5b61095a60405180604001604052806017815260200176037bd22a9219918173a37ba30b629b430b932b994149d1604d1b815250826001600160a01b0316633a98ef396040518163ffffffff1660e01b8152600401602060405180830381865afa1580156104bb573d6000803e3d6000fd5b6109d16040518060400160405280601781526020017f6f7a45524332302e746f74616c537570706c7928293a20000000000000000000815250826001600160a01b03166318160ddd6040518163ffffffff1660e01b8152600401602060405180830381865afa1580156104bb573d6000803e3d6000fd5b610a06604051806040016040528060148152602001732d2d20696e206765744f7a416d6f756e74202d2d60601b815250611019565b610a1e60405180602001604052806000815250611019565b64e8d4a51000610ac7826001600160a01b03166318160ddd6040518163ffffffff1660e01b8152600401602060405180830381865afa158015610a65573d6000803e3d6000fd5b505050506040513d601f19601f82011682018060405250810190610a899190611a9c565b836001600160a01b0316633a98ef396040518163ffffffff1660e01b8152600401602060405180830381865afa158015610648573d6000803e3d6000fd5b6103af9190611ab5565b60003381610adf8286610bd1565b905083811015610b3f5760405162461bcd60e51b815260206004820152602560248201527f45524332303a2064656372656173656420616c6c6f77616e63652062656c6f77604482015264207a65726f60d81b6064820152608401610721565b610b4c8286868403610cac565b506001949350505050565b600033610384818585610e4b565b600080610b71846103d8565b9050610ba860405180604001604052806013815260200172033b2ba2bb7bd20b6b7bab73a102f2f2f2f1d1606d1b8152508261105f565b609a54610bc0906001600160a01b031633308761116d565b610bca83826111c7565b5092915050565b6001600160a01b03918216600090815260346020908152604080832093909416825291909152205490565b6000610c0784610806565b9050610c2b604051806060016040528060218152602001611ca4602191398261105f565b610c3582856112a6565b609a5460405163a9059cbb60e01b81526001600160a01b038581166004830152602482018490529091169063a9059cbb906044016020604051808303816000875af1158015610c88573d6000803e3d6000fd5b505050506040513d601f19601f820116820180604052508101906107f09190611ad7565b6001600160a01b038316610d0e5760405162461bcd60e51b8152602060048201526024808201527f45524332303a20617070726f76652066726f6d20746865207a65726f206164646044820152637265737360e01b6064820152608401610721565b6001600160a01b038216610d6f5760405162461bcd60e51b815260206004820152602260248201527f45524332303a20617070726f766520746f20746865207a65726f206164647265604482015261737360f01b6064820152608401610721565b6001600160a01b0383811660008181526034602090815260408083209487168084529482529182902085905590518481527f8c5be1e5ebec7d5bd14f71427d1e84f3dd0314c0f7b2291e5b200ac8c7c3b92591015b60405180910390a3505050565b6000610ddd8484610bd1565b90506000198114610e455781811015610e385760405162461bcd60e51b815260206004820152601d60248201527f45524332303a20696e73756666696369656e7420616c6c6f77616e63650000006044820152606401610721565b610e458484848403610cac565b50505050565b6001600160a01b038316610eaf5760405162461bcd60e51b815260206004820152602560248201527f45524332303a207472616e736665722066726f6d20746865207a65726f206164604482015264647265737360d81b6064820152608401610721565b6001600160a01b038216610f115760405162461bcd60e51b815260206004820152602360248201527f45524332303a207472616e7366657220746f20746865207a65726f206164647260448201526265737360e81b6064820152608401610721565b6001600160a01b03831660009081526033602052604090205481811015610f895760405162461bcd60e51b815260206004820152602660248201527f45524332303a207472616e7366657220616d6f756e7420657863656564732062604482015265616c616e636560d01b6064820152608401610721565b6001600160a01b03808516600090815260336020526040808220858503905591851681529081208054849290610fc0908490611a89565b92505081905550826001600160a01b0316846001600160a01b03167fddf252ad1be2c89b69c2b068fc378daa952ba7f163c4a11628f55a4df523b3ef8460405161100c91815260200190565b60405180910390a3610e45565b61105c8160405160240161102d9190611743565b60408051601f198184030181529190526020810180516001600160e01b031663104c13eb60e21b17905261146b565b50565b6110a48282604051602401611075929190611af9565b60408051601f198184030181529190526020810180516001600160e01b03166309710a9d60e41b17905261146b565b5050565b60008260001904841183021582026110bf57600080fd5b5091020490565b61105c816040516024016110dc91815260200190565b60408051601f198184030181529190526020810180516001600160e01b031663f5b1bba960e01b17905261146b565b600054610100900460ff166111325760405162461bcd60e51b815260040161072190611b1b565b6110a4828261148c565b600054610100900460ff166111635760405162461bcd60e51b815260040161072190611b1b565b6110a482826114cc565b604080516001600160a01b0385811660248301528416604482015260648082018490528251808303909101815260849091019091526020810180516001600160e01b03166323b872dd60e01b179052610e4590859061150d565b6001600160a01b03821661121d5760405162461bcd60e51b815260206004820152601f60248201527f45524332303a206d696e7420746f20746865207a65726f2061646472657373006044820152606401610721565b806035600082825461122f9190611a89565b90915550506001600160a01b0382166000908152603360205260408120805483929061125c908490611a89565b90915550506040518181526001600160a01b038316906000907fddf252ad1be2c89b69c2b068fc378daa952ba7f163c4a11628f55a4df523b3ef9060200160405180910390a35050565b6001600160a01b0382166113065760405162461bcd60e51b815260206004820152602160248201527f45524332303a206275726e2066726f6d20746865207a65726f206164647265736044820152607360f81b6064820152608401610721565b600060336000846001600160a01b03166001600160a01b0316815260200190815260200160002054905061136f6040518060400160405280601981526020017f6163636f756e7442616c616e636520696e205f6275726e3a20000000000000008152508261105f565b61139960405180604001604052806008815260200167030b6b7bab73a1d160c51b8152508361105f565b818110156113f45760405162461bcd60e51b815260206004820152602260248201527f45524332303a206275726e20616d6f756e7420657863656564732062616c616e604482015261636560f01b6064820152608401610721565b6001600160a01b0383166000908152603360205260408120838303905560358054849290611423908490611b66565b90915550506040518281526000906001600160a01b038516907fddf252ad1be2c89b69c2b068fc378daa952ba7f163c4a11628f55a4df523b3ef90602001610dc4565b505050565b80516a636f6e736f6c652e6c6f67602083016000808483855afa5050505050565b600054610100900460ff166114b35760405162461bcd60e51b815260040161072190611b1b565b60366114bf8382611bc7565b5060376114668282611bc7565b600054610100900460ff166114f35760405162461bcd60e51b815260040161072190611b1b565b815160209283012081519190920120606591909155606655565b6000611562826040518060400160405280602081526020017f5361666545524332303a206c6f772d6c6576656c2063616c6c206661696c6564815250856001600160a01b03166115df9092919063ffffffff16565b80519091501561146657808060200190518101906115809190611ad7565b6114665760405162461bcd60e51b815260206004820152602a60248201527f5361666545524332303a204552433230206f7065726174696f6e20646964206e6044820152691bdd081cdd58d8d9595960b21b6064820152608401610721565b60606106748484600085856001600160a01b0385163b6116415760405162461bcd60e51b815260206004820152601d60248201527f416464726573733a2063616c6c20746f206e6f6e2d636f6e74726163740000006044820152606401610721565b600080866001600160a01b0316858760405161165d9190611c87565b60006040518083038185875af1925050503d806000811461169a576040519150601f19603f3d011682016040523d82523d6000602084013e61169f565b606091505b50915091506116af8282866116ba565b979650505050505050565b606083156116c95750816103af565b8251156116d95782518084602001fd5b8160405162461bcd60e51b81526004016107219190611743565b60005b8381101561170e5781810151838201526020016116f6565b50506000910152565b6000815180845261172f8160208601602086016116f3565b601f01601f19169290920160200192915050565b6020815260006103af6020830184611717565b80356001600160a01b038116811461176d57600080fd5b919050565b6000806040838503121561178557600080fd5b61178e83611756565b946020939093013593505050565b6000806000606084860312156117b157600080fd5b6117ba84611756565b92506117c860208501611756565b9150604084013590509250925092565b6000602082840312156117ea57600080fd5b5035919050565b60006020828403121561180357600080fd5b6103af82611756565b634e487b7160e01b600052604160045260246000fd5b600082601f83011261183357600080fd5b813567ffffffffffffffff8082111561184e5761184e61180c565b604051601f8301601f19908116603f011681019082821181831017156118765761187661180c565b8160405283815286602085880101111561188f57600080fd5b836020870160208301376000602085830101528094505050505092915050565b600080600080608085870312156118c557600080fd5b843567ffffffffffffffff808211156118dd57600080fd5b6118e988838901611822565b955060208701359150808211156118ff57600080fd5b5061190c87828801611822565b93505061191b60408601611756565b915061192960608601611756565b905092959194509250565b6000806040838503121561194757600080fd5b8235915061195760208401611756565b90509250929050565b600080600080600080600060e0888a03121561197b57600080fd5b61198488611756565b965061199260208901611756565b95506040880135945060608801359350608088013560ff811681146119b657600080fd5b9699959850939692959460a0840135945060c09093013592915050565b600080604083850312156119e657600080fd5b6119ef83611756565b915061195760208401611756565b600080600060608486031215611a1257600080fd5b83359250611a2260208501611756565b9150611a3060408501611756565b90509250925092565b600181811c90821680611a4d57607f821691505b602082108103611a6d57634e487b7160e01b600052602260045260246000fd5b50919050565b634e487b7160e01b600052601160045260246000fd5b8082018082111561038a5761038a611a73565b600060208284031215611aae57600080fd5b5051919050565b600082611ad257634e487b7160e01b600052601260045260246000fd5b500490565b600060208284031215611ae957600080fd5b815180151581146103af57600080fd5b604081526000611b0c6040830185611717565b90508260208301529392505050565b6020808252602b908201527f496e697469616c697a61626c653a20636f6e7472616374206973206e6f74206960408201526a6e697469616c697a696e6760a81b606082015260800190565b8181038181111561038a5761038a611a73565b601f82111561146657600081815260208120601f850160051c81016020861015611ba05750805b601f850160051c820191505b81811015611bbf57828155600101611bac565b505050505050565b815167ffffffffffffffff811115611be157611be161180c565b611bf581611bef8454611a39565b84611b79565b602080601f831160018114611c2a5760008415611c125750858301515b600019600386901b1c1916600185901b178555611bbf565b600085815260208120601f198616915b82811015611c5957888601518255948401946001909101908401611c3a565b5085821015611c775787850151600019600388901b60f8161c191681555b5050505050600190811b01905550565b60008251611c998184602087016116f3565b919091019291505056fe6765744f7a416d6f756e7428776f7a416d6f756e74496e5f29205e5e5e5e5e3a20a2646970667358221220a2853cd350b8e81f1c9be5bd026f1533d49dcc5ed58b4d6749abe4b96175f14764736f6c63430008150033",
    "linkReferences": {}
  },
  "methodIdentifiers": {
    "DOMAIN_SEPARATOR()": "3644e515",
    "OZ()": "41c8bcc3",
    "allowance(address,address)": "dd62ed3e",
    "approve(address,uint256)": "095ea7b3",
    "balanceOf(address)": "70a08231",
    "decimals()": "313ce567",
    "decreaseAllowance(address,uint256)": "a457c2d7",
    "deposit2(uint256,address)": "aef8bb91",
    "getHello()": "8da9b772",
    "getOzAmount(uint256)": "a40f2812",
    "getWozAmount(uint256)": "4cbcdd8b",
    "increaseAllowance(address,uint256)": "39509351",
    "initialize(string,string,address,address)": "8f15b414",
    "name()": "06fdde03",
    "nonces(address)": "7ecebe00",
    "permit(address,address,uint256,uint256,uint8,bytes32,bytes32)": "d505accf",
    "symbol()": "95d89b41",
    "totalSupply()": "18160ddd",
    "transfer(address,uint256)": "a9059cbb",
    "transferFrom(address,address,uint256)": "23b872dd",
    "unwrap(uint256,address,address)": "fb183a02"
  },
  "id": 46
}