{"abi":[{"type":"function","name":"getPausedState","inputs":[],"outputs":[{"name":"","type":"bool","internalType":"bool"},{"name":"","type":"uint256","internalType":"uint256"},{"name":"","type":"uint256","internalType":"uint256"}],"stateMutability":"pure"},{"type":"function","name":"getPoolId","inputs":[],"outputs":[{"name":"","type":"bytes32","internalType":"bytes32"}],"stateMutability":"pure"}],"bytecode":{"object":"0x6080604052348015600f57600080fd5b50609f8061001e6000396000f3fe6080604052348015600f57600080fd5b506004361060325760003560e01c80631c0de05114603757806338fff2d014605b575b600080fd5b60408051600080825260208201819052918101919091526060015b60405180910390f35b60405160008152602001605256fea264697066735822122026860125a562ff422a7fac6bbbbd64197b229e969401780198f1d39c6750be7f64736f6c63430008150033","linkReferences":{}},"methodIdentifiers":{"getPausedState()":"1c0de051","getPoolId()":"38fff2d0"},"id":147}