{"abi":[{"type":"function","name":"getPausedState","inputs":[],"outputs":[{"name":"","type":"bool","internalType":"bool"},{"name":"","type":"uint256","internalType":"uint256"},{"name":"","type":"uint256","internalType":"uint256"}],"stateMutability":"pure"},{"type":"function","name":"getPoolId","inputs":[],"outputs":[{"name":"","type":"bytes32","internalType":"bytes32"}],"stateMutability":"pure"}],"bytecode":{"object":"0x6080604052348015600e575f80fd5b50609a8061001b5f395ff3fe6080604052348015600e575f80fd5b50600436106030575f3560e01c80631c0de05114603457806338fff2d0146057575b5f80fd5b604080515f80825260208201819052918101919091526060015b60405180910390f35b6040515f8152602001604e56fea2646970667358221220c77ef6cac4960221de2c96fa5fb898bcc84ddd2c7f33b5c34c8ff9538fe3917864736f6c63430008180033","linkReferences":{}},"methodIdentifiers":{"getPausedState()":"1c0de051","getPoolId()":"38fff2d0"},"id":125}