{"abi":[{"type":"function","name":"getHello","inputs":[],"outputs":[{"name":"","type":"uint256","internalType":"uint256"}],"stateMutability":"pure"}],"bytecode":{"object":"0x6080604052348015600f57600080fd5b50607780601d6000396000f3fe6080604052348015600f57600080fd5b506004361060285760003560e01c80638da9b77214602d575b600080fd5b600260405190815260200160405180910390f3fea2646970667358221220dc6e96525682bdf017e74772bd629dcea3f585a65055248abcfd7e3c9567d38764736f6c63430008150033","linkReferences":{}},"methodIdentifiers":{"getHello()":"8da9b772"},"id":14}