{
  "abi": [
    {
      "inputs": [],
      "name": "getHello",
      "outputs": [
        {
          "internalType": "uint256",
          "name": "",
          "type": "uint256"
        }
      ],
      "stateMutability": "pure",
      "type": "function"
    }
  ],
  "bytecode": {
    "object": "0x6080604052348015600f57600080fd5b50607780601d6000396000f3fe6080604052348015600f57600080fd5b506004361060285760003560e01c80638da9b77214602d575b600080fd5b600260405190815260200160405180910390f3fea2646970667358221220bf44866b60b68df48a5b03e5107b444d83ca15a632b5d6def7316ccb4f2b41f564736f6c63430008150033",
    "linkReferences": {}
  },
  "methodIdentifiers": {
    "getHello()": "8da9b772"
  },
  "id": 6
}