{
  "abi": [
    {
      "inputs": [
        {
          "internalType": "bytes4",
          "name": "_functionSelector",
          "type": "bytes4"
        }
      ],
      "name": "facetAddress",
      "outputs": [
        {
          "internalType": "address",
          "name": "facetAddress_",
          "type": "address"
        }
      ],
      "stateMutability": "view",
      "type": "function"
    },
    {
      "inputs": [],
      "name": "facetAddresses",
      "outputs": [
        {
          "internalType": "address[]",
          "name": "facetAddresses_",
          "type": "address[]"
        }
      ],
      "stateMutability": "view",
      "type": "function"
    },
    {
      "inputs": [
        {
          "internalType": "address",
          "name": "_facet",
          "type": "address"
        }
      ],
      "name": "facetFunctionSelectors",
      "outputs": [
        {
          "internalType": "bytes4[]",
          "name": "facetFunctionSelectors_",
          "type": "bytes4[]"
        }
      ],
      "stateMutability": "view",
      "type": "function"
    },
    {
      "inputs": [],
      "name": "facets",
      "outputs": [
        {
          "components": [
            {
              "internalType": "address",
              "name": "facetAddress",
              "type": "address"
            },
            {
              "internalType": "bytes4[]",
              "name": "functionSelectors",
              "type": "bytes4[]"
            }
          ],
          "internalType": "struct IDiamondLoupe.Facet[]",
          "name": "facets_",
          "type": "tuple[]"
        }
      ],
      "stateMutability": "view",
      "type": "function"
    },
    {
      "inputs": [],
      "name": "getDefaultSlippage",
      "outputs": [
        {
          "internalType": "uint16",
          "name": "",
          "type": "uint16"
        }
      ],
      "stateMutability": "view",
      "type": "function"
    },
    {
      "inputs": [],
      "name": "getProtocolFee",
      "outputs": [
        {
          "internalType": "uint256",
          "name": "",
          "type": "uint256"
        }
      ],
      "stateMutability": "view",
      "type": "function"
    },
    {
      "inputs": [
        {
          "internalType": "address",
          "name": "underlying_",
          "type": "address"
        }
      ],
      "name": "ozTokens",
      "outputs": [
        {
          "internalType": "address",
          "name": "",
          "type": "address"
        }
      ],
      "stateMutability": "view",
      "type": "function"
    },
    {
      "inputs": [
        {
          "internalType": "bytes4",
          "name": "_interfaceId",
          "type": "bytes4"
        }
      ],
      "name": "supportsInterface",
      "outputs": [
        {
          "internalType": "bool",
          "name": "",
          "type": "bool"
        }
      ],
      "stateMutability": "view",
      "type": "function"
    },
    {
      "inputs": [
        {
          "internalType": "enum Asset",
          "name": "type_",
          "type": "uint8"
        }
      ],
      "name": "totalUnderlying",
      "outputs": [
        {
          "internalType": "uint256",
          "name": "total",
          "type": "uint256"
        }
      ],
      "stateMutability": "view",
      "type": "function"
    }
  ],
  "bytecode": {
    "object": "0x608060405234801561001057600080fd5b50610a42806100206000396000f3fe608060405234801561001057600080fd5b50600436106100935760003560e01c80637a0ed627116100665780637a0ed6271461015a578063a4fc284b1461016f578063a5a4103114610190578063adfca15e1461019d578063cdffacc6146101bd57600080fd5b806301ffc9a7146100985780631a82363e146100f9578063423f0b911461011a57806352ef6b2c14610145575b600080fd5b6100e46100a6366004610706565b6001600160e01b03191660009081527fc8fcad8db84d3cc18b4c41d551ea0ee66dd599cde068d998e57d5e09332c131f602052604090205460ff1690565b60405190151581526020015b60405180910390f35b600754600160a01b900461ffff1660405161ffff90911681526020016100f0565b61012d610128366004610737565b6101fd565b6040516001600160a01b0390911681526020016100f0565b61014d610279565b6040516100f09190610760565b6101626102ec565b6040516100f091906107ad565b61018261017d366004610860565b6104b7565b6040519081526020016100f0565b60165462ffffff16610182565b6101b06101ab366004610737565b6105d0565b6040516100f09190610881565b61012d6101cb366004610706565b6001600160e01b03191660009081526000805160206109ed83398151915260205260409020546001600160a01b031690565b604080518082018252601981527f732e6f7a546f6b656e735b756e6465726c79696e675f5d3a20000000000000006020808301919091526001600160a01b038085166000908152600c90925292812054909261025a92911661069c565b506001600160a01b039081166000908152600c60205260409020541690565b606060006000805160206109ed833981519152600281018054604080516020808402820181019092528281529394508301828280156102e157602002820191906000526020600020905b81546001600160a01b031681526001909101906020018083116102c3575b505050505091505090565b7fc8fcad8db84d3cc18b4c41d551ea0ee66dd599cde068d998e57d5e09332c131e546060906000805160206109ed833981519152908067ffffffffffffffff81111561033a5761033a6108c3565b60405190808252806020026020018201604052801561038057816020015b6040805180820190915260008152606060208201528152602001906001900390816103585790505b50925060005b818110156104b15760008360020182815481106103a5576103a56108d9565b9060005260206000200160009054906101000a90046001600160a01b03169050808583815181106103d8576103d86108d9565b6020908102919091018101516001600160a01b03928316905290821660009081526001860182526040908190208054825181850281018501909352808352919290919083018282801561047757602002820191906000526020600020906000905b82829054906101000a900460e01b6001600160e01b031916815260200190600401906020826003010492830192600103820291508084116104395790505b505050505085838151811061048e5761048e6108d9565b6020026020010151602001819052505080806104a990610905565b915050610386565b50505090565b600a546040516370a0823160e01b81523060048201526000916001600160a01b0316906370a0823190602401602060405180830381865afa158015610500573d6000803e3d6000fd5b505050506040513d601f19601f82011682018060405250810190610524919061091e565b9050600082600181111561053a5761053a610937565b036105cb5760025460408051637a12625d60e11b81529051670de0b6b3a7640000926001600160a01b03169163f424c4ba9160048083019260209291908290030181865afa158015610590573d6000803e3d6000fd5b505050506040513d601f19601f820116820180604052508101906105b4919061091e565b6105be908361094d565b6105c8919061096a565b90505b919050565b6001600160a01b03811660009081527fc8fcad8db84d3cc18b4c41d551ea0ee66dd599cde068d998e57d5e09332c131d602090815260409182902080548351818402810184019094528084526060936000805160206109ed833981519152939092919083018282801561068f57602002820191906000526020600020906000905b82829054906101000a900460e01b6001600160e01b031916815260200190600401906020826003010492830192600103820291508084116106515790505b5050505050915050919050565b6106e182826040516024016106b292919061098c565b60408051601f198184030181529190526020810180516001600160e01b031663319af33360e01b1790526106e5565b5050565b80516a636f6e736f6c652e6c6f67602083016000808483855afa5050505050565b60006020828403121561071857600080fd5b81356001600160e01b03198116811461073057600080fd5b9392505050565b60006020828403121561074957600080fd5b81356001600160a01b038116811461073057600080fd5b6020808252825182820181905260009190848201906040850190845b818110156107a15783516001600160a01b03168352928401929184019160010161077c565b50909695505050505050565b60006020808301818452808551808352604092508286019150828160051b8701018488016000805b8481101561085157898403603f19018652825180516001600160a01b03168552880151888501889052805188860181905290890190839060608701905b8083101561083c5783516001600160e01b0319168252928b019260019290920191908b0190610812565b50978a019795505050918701916001016107d5565b50919998505050505050505050565b60006020828403121561087257600080fd5b81356002811061073057600080fd5b6020808252825182820181905260009190848201906040850190845b818110156107a15783516001600160e01b0319168352928401929184019160010161089d565b634e487b7160e01b600052604160045260246000fd5b634e487b7160e01b600052603260045260246000fd5b634e487b7160e01b600052601160045260246000fd5b600060018201610917576109176108ef565b5060010190565b60006020828403121561093057600080fd5b5051919050565b634e487b7160e01b600052602160045260246000fd5b8082028115828204841417610964576109646108ef565b92915050565b60008261098757634e487b7160e01b600052601260045260246000fd5b500490565b604081526000835180604084015260005b818110156109ba576020818701810151606086840101520161099d565b50600060608285018101919091526001600160a01b03949094166020840152601f01601f19169091019091019291505056fec8fcad8db84d3cc18b4c41d551ea0ee66dd599cde068d998e57d5e09332c131ca2646970667358221220b8606cc0e3db98c53782b0932ce323e567d1d0e41d3c59441958c2c530faede664736f6c63430008150033",
    "linkReferences": {}
  },
  "methodIdentifiers": {
    "facetAddress(bytes4)": "cdffacc6",
    "facetAddresses()": "52ef6b2c",
    "facetFunctionSelectors(address)": "adfca15e",
    "facets()": "7a0ed627",
    "getDefaultSlippage()": "1a82363e",
    "getProtocolFee()": "a5a41031",
    "ozTokens(address)": "423f0b91",
    "supportsInterface(bytes4)": "01ffc9a7",
    "totalUnderlying(uint8)": "a4fc284b"
  },
  "id": 16
}