{
  "abi": [
    {
      "inputs": [
        {
          "internalType": "bytes4",
          "name": "_functionSelector",
          "type": "bytes4"
        }
      ],
      "name": "facetAddress",
      "outputs": [
        {
          "internalType": "address",
          "name": "facetAddress_",
          "type": "address"
        }
      ],
      "stateMutability": "view",
      "type": "function"
    },
    {
      "inputs": [],
      "name": "facetAddresses",
      "outputs": [
        {
          "internalType": "address[]",
          "name": "facetAddresses_",
          "type": "address[]"
        }
      ],
      "stateMutability": "view",
      "type": "function"
    },
    {
      "inputs": [
        {
          "internalType": "address",
          "name": "_facet",
          "type": "address"
        }
      ],
      "name": "facetFunctionSelectors",
      "outputs": [
        {
          "internalType": "bytes4[]",
          "name": "facetFunctionSelectors_",
          "type": "bytes4[]"
        }
      ],
      "stateMutability": "view",
      "type": "function"
    },
    {
      "inputs": [],
      "name": "facets",
      "outputs": [
        {
          "components": [
            {
              "internalType": "address",
              "name": "facetAddress",
              "type": "address"
            },
            {
              "internalType": "bytes4[]",
              "name": "functionSelectors",
              "type": "bytes4[]"
            }
          ],
          "internalType": "struct IDiamondLoupe.Facet[]",
          "name": "facets_",
          "type": "tuple[]"
        }
      ],
      "stateMutability": "view",
      "type": "function"
    },
    {
      "inputs": [],
      "name": "getDefaultSlippage",
      "outputs": [
        {
          "internalType": "uint256",
          "name": "",
          "type": "uint256"
        }
      ],
      "stateMutability": "view",
      "type": "function"
    },
    {
      "inputs": [
        {
          "internalType": "bytes4",
          "name": "_interfaceId",
          "type": "bytes4"
        }
      ],
      "name": "supportsInterface",
      "outputs": [
        {
          "internalType": "bool",
          "name": "",
          "type": "bool"
        }
      ],
      "stateMutability": "view",
      "type": "function"
    }
  ],
  "bytecode": {
    "object": "0x608060405234801561001057600080fd5b506106ca806100206000396000f3fe608060405234801561001057600080fd5b50600436106100625760003560e01c806301ffc9a7146100675780631a82363e146100c857806352ef6b2c146100d95780637a0ed627146100ee578063adfca15e14610103578063cdffacc614610123575b600080fd5b6100b3610075366004610485565b6001600160e01b03191660009081527fc8fcad8db84d3cc18b4c41d551ea0ee66dd599cde068d998e57d5e09332c131f602052604090205460ff1690565b60405190151581526020015b60405180910390f35b6007546040519081526020016100bf565b6100e161017b565b6040516100bf91906104b6565b6100f66101ee565b6040516100bf9190610503565b6101166101113660046105b6565b6103b9565b6040516100bf91906105df565b610163610131366004610485565b6001600160e01b031916600090815260008051602061067583398151915260205260409020546001600160a01b031690565b6040516001600160a01b0390911681526020016100bf565b60606000600080516020610675833981519152600281018054604080516020808402820181019092528281529394508301828280156101e357602002820191906000526020600020905b81546001600160a01b031681526001909101906020018083116101c5575b505050505091505090565b7fc8fcad8db84d3cc18b4c41d551ea0ee66dd599cde068d998e57d5e09332c131e54606090600080516020610675833981519152908067ffffffffffffffff81111561023c5761023c610621565b60405190808252806020026020018201604052801561028257816020015b60408051808201909152600081526060602082015281526020019060019003908161025a5790505b50925060005b818110156103b35760008360020182815481106102a7576102a7610637565b9060005260206000200160009054906101000a90046001600160a01b03169050808583815181106102da576102da610637565b6020908102919091018101516001600160a01b03928316905290821660009081526001860182526040908190208054825181850281018501909352808352919290919083018282801561037957602002820191906000526020600020906000905b82829054906101000a900460e01b6001600160e01b0319168152602001906004019060208260030104928301926001038202915080841161033b5790505b505050505085838151811061039057610390610637565b6020026020010151602001819052505080806103ab9061064d565b915050610288565b50505090565b6001600160a01b03811660009081527fc8fcad8db84d3cc18b4c41d551ea0ee66dd599cde068d998e57d5e09332c131d60209081526040918290208054835181840281018401909452808452606093600080516020610675833981519152939092919083018282801561047857602002820191906000526020600020906000905b82829054906101000a900460e01b6001600160e01b0319168152602001906004019060208260030104928301926001038202915080841161043a5790505b5050505050915050919050565b60006020828403121561049757600080fd5b81356001600160e01b0319811681146104af57600080fd5b9392505050565b6020808252825182820181905260009190848201906040850190845b818110156104f75783516001600160a01b0316835292840192918401916001016104d2565b50909695505050505050565b60006020808301818452808551808352604092508286019150828160051b8701018488016000805b848110156105a757898403603f19018652825180516001600160a01b03168552880151888501889052805188860181905290890190839060608701905b808310156105925783516001600160e01b0319168252928b019260019290920191908b0190610568565b50978a0197955050509187019160010161052b565b50919998505050505050505050565b6000602082840312156105c857600080fd5b81356001600160a01b03811681146104af57600080fd5b6020808252825182820181905260009190848201906040850190845b818110156104f75783516001600160e01b031916835292840192918401916001016105fb565b634e487b7160e01b600052604160045260246000fd5b634e487b7160e01b600052603260045260246000fd5b60006001820161066d57634e487b7160e01b600052601160045260246000fd5b506001019056fec8fcad8db84d3cc18b4c41d551ea0ee66dd599cde068d998e57d5e09332c131ca2646970667358221220b4b97691a676587fa7c2a2d0ff2741aaace080673df98fb0c17c6b3bf6e949c764736f6c63430008150033",
    "linkReferences": {}
  },
  "methodIdentifiers": {
    "facetAddress(bytes4)": "cdffacc6",
    "facetAddresses()": "52ef6b2c",
    "facetFunctionSelectors(address)": "adfca15e",
    "facets()": "7a0ed627",
    "getDefaultSlippage()": "1a82363e",
    "supportsInterface(bytes4)": "01ffc9a7"
  },
  "id": 10
}