{
  "abi": [
    {
      "inputs": [
        {
          "internalType": "bytes4",
          "name": "_functionSelector",
          "type": "bytes4"
        }
      ],
      "name": "facetAddress",
      "outputs": [
        {
          "internalType": "address",
          "name": "facetAddress_",
          "type": "address"
        }
      ],
      "stateMutability": "view",
      "type": "function"
    },
    {
      "inputs": [],
      "name": "facetAddresses",
      "outputs": [
        {
          "internalType": "address[]",
          "name": "facetAddresses_",
          "type": "address[]"
        }
      ],
      "stateMutability": "view",
      "type": "function"
    },
    {
      "inputs": [
        {
          "internalType": "address",
          "name": "_facet",
          "type": "address"
        }
      ],
      "name": "facetFunctionSelectors",
      "outputs": [
        {
          "internalType": "bytes4[]",
          "name": "facetFunctionSelectors_",
          "type": "bytes4[]"
        }
      ],
      "stateMutability": "view",
      "type": "function"
    },
    {
      "inputs": [],
      "name": "facets",
      "outputs": [
        {
          "components": [
            {
              "internalType": "address",
              "name": "facetAddress",
              "type": "address"
            },
            {
              "internalType": "bytes4[]",
              "name": "functionSelectors",
              "type": "bytes4[]"
            }
          ],
          "internalType": "struct IDiamondLoupe.Facet[]",
          "name": "facets_",
          "type": "tuple[]"
        }
      ],
      "stateMutability": "view",
      "type": "function"
    },
    {
      "inputs": [],
      "name": "getAdminFee",
      "outputs": [
        {
          "internalType": "uint256",
          "name": "",
          "type": "uint256"
        }
      ],
      "stateMutability": "view",
      "type": "function"
    },
    {
      "inputs": [],
      "name": "getDefaultSlippage",
      "outputs": [
        {
          "internalType": "uint16",
          "name": "",
          "type": "uint16"
        }
      ],
      "stateMutability": "view",
      "type": "function"
    },
    {
      "inputs": [],
      "name": "getLSDs",
      "outputs": [
        {
          "internalType": "address[]",
          "name": "",
          "type": "address[]"
        }
      ],
      "stateMutability": "view",
      "type": "function"
    },
    {
      "inputs": [
        {
          "internalType": "uint256",
          "name": "amountIn_",
          "type": "uint256"
        },
        {
          "internalType": "address",
          "name": "underlying_",
          "type": "address"
        },
        {
          "internalType": "uint16",
          "name": "slippage_",
          "type": "uint16"
        },
        {
          "internalType": "address",
          "name": "receiver_",
          "type": "address"
        }
      ],
      "name": "getMintData",
      "outputs": [
        {
          "internalType": "bytes",
          "name": "",
          "type": "bytes"
        }
      ],
      "stateMutability": "view",
      "type": "function"
    },
    {
      "inputs": [],
      "name": "getProtocolFee",
      "outputs": [
        {
          "internalType": "uint256",
          "name": "",
          "type": "uint256"
        }
      ],
      "stateMutability": "view",
      "type": "function"
    },
    {
      "inputs": [
        {
          "internalType": "uint256",
          "name": "ozAmountIn_",
          "type": "uint256"
        },
        {
          "internalType": "address",
          "name": "ozToken_",
          "type": "address"
        },
        {
          "internalType": "uint16",
          "name": "slippage_",
          "type": "uint16"
        },
        {
          "internalType": "address",
          "name": "receiver_",
          "type": "address"
        }
      ],
      "name": "getRedeemData",
      "outputs": [
        {
          "internalType": "bytes",
          "name": "",
          "type": "bytes"
        }
      ],
      "stateMutability": "view",
      "type": "function"
    },
    {
      "inputs": [
        {
          "internalType": "address",
          "name": "underlying_",
          "type": "address"
        }
      ],
      "name": "ozTokens",
      "outputs": [
        {
          "internalType": "address",
          "name": "",
          "type": "address"
        }
      ],
      "stateMutability": "view",
      "type": "function"
    },
    {
      "inputs": [
        {
          "internalType": "uint256",
          "name": "amountIn_",
          "type": "uint256"
        },
        {
          "internalType": "address",
          "name": "underlying_",
          "type": "address"
        },
        {
          "internalType": "uint16",
          "name": "slippage_",
          "type": "uint16"
        }
      ],
      "name": "quoteAmountsIn",
      "outputs": [
        {
          "components": [
            {
              "internalType": "uint256",
              "name": "amountIn",
              "type": "uint256"
            },
            {
              "internalType": "uint256[]",
              "name": "minAmountsOut",
              "type": "uint256[]"
            }
          ],
          "internalType": "struct AmountsIn",
          "name": "",
          "type": "tuple"
        }
      ],
      "stateMutability": "view",
      "type": "function"
    },
    {
      "inputs": [
        {
          "internalType": "uint256",
          "name": "ozAmountIn_",
          "type": "uint256"
        },
        {
          "internalType": "address",
          "name": "ozToken_",
          "type": "address"
        },
        {
          "internalType": "uint16",
          "name": "slippage_",
          "type": "uint16"
        }
      ],
      "name": "quoteAmountsOut",
      "outputs": [
        {
          "components": [
            {
              "internalType": "uint256",
              "name": "ozAmountIn",
              "type": "uint256"
            },
            {
              "internalType": "uint256",
              "name": "amountInReth",
              "type": "uint256"
            },
            {
              "internalType": "uint256[]",
              "name": "minAmountsOut",
              "type": "uint256[]"
            }
          ],
          "internalType": "struct AmountsOut",
          "name": "",
          "type": "tuple"
        }
      ],
      "stateMutability": "view",
      "type": "function"
    },
    {
      "inputs": [
        {
          "internalType": "bytes4",
          "name": "_interfaceId",
          "type": "bytes4"
        }
      ],
      "name": "supportsInterface",
      "outputs": [
        {
          "internalType": "bool",
          "name": "",
          "type": "bool"
        }
      ],
      "stateMutability": "view",
      "type": "function"
    },
    {
      "inputs": [
        {
          "internalType": "enum Asset",
          "name": "type_",
          "type": "uint8"
        }
      ],
      "name": "totalUnderlying",
      "outputs": [
        {
          "internalType": "uint256",
          "name": "total",
          "type": "uint256"
        }
      ],
      "stateMutability": "view",
      "type": "function"
    }
  ],
  "bytecode": {
    "object": "0x608060405234801561001057600080fd5b50611311806100206000396000f3fe608060405234801561001057600080fd5b50600436106100f55760003560e01c806352ef6b2c11610097578063a4fc284b11610066578063a4fc284b14610282578063a5a4103114610295578063adfca15e146102ac578063cdffacc6146102cc57600080fd5b806352ef6b2c14610232578063635d12cc1461023a5780637a0ed6271461024d578063a49709b61461026257600080fd5b80632e19905c116100d35780632e19905c1461019957806338ab35d4146101b9578063423f0b91146101ce5780634d2c14871461021257600080fd5b806301ffc9a7146100fa5780631a82363e1461015b5780632a905ccc1461017c575b600080fd5b610146610108366004610e09565b6001600160e01b03191660009081527fc8fcad8db84d3cc18b4c41d551ea0ee66dd599cde068d998e57d5e09332c131f602052604090205460ff1690565b60405190151581526020015b60405180910390f35b600754600160a01b900461ffff1660405161ffff9091168152602001610152565b602054600160a01b900461ffff165b604051908152602001610152565b6101ac6101a7366004610e5c565b61030c565b6040516101529190610ef9565b6101c1610345565b6040516101529190610f0c565b6101fa6101dc366004610f59565b6001600160a01b039081166000908152600b60205260409020541690565b6040516001600160a01b039091168152602001610152565b610225610220366004610f74565b6103aa565b6040516101529190611014565b6101c16105bd565b6101ac610248366004610e5c565b610630565b61025561064f565b6040516101529190611061565b610275610270366004610f74565b61081a565b60405161015291906110fd565b61018b610290366004611110565b610a2e565b6014546601000000000000900462ffffff1661018b565b6102bf6102ba366004610f59565b610b47565b6040516101529190611131565b6101fa6102da366004610e09565b6001600160e01b031916600090815260008051602061129783398151915260205260409020546001600160a01b031690565b60606103198585856103aa565b8260405160200161032b929190611144565b60405160208183030381529060405290505b949350505050565b606060006021018054806020026020016040519081016040528092919081815260200182805480156103a057602002820191906000526020600020905b81546001600160a01b03168152600190910190602001808311610382575b5050505050905090565b6103ce60405180606001604052806000815260200160008152602001606081525090565b604051630a28a47760e01b81526004810185905283906000906001600160a01b03831690631dc7f521908290630a28a47790602401602060405180830381865afa158015610420573d6000803e3d6000fd5b505050506040513d601f19601f82011682018060405250810190610444919061116e565b6040518263ffffffff1660e01b815260040161046291815260200190565b602060405180830381865afa15801561047f573d6000803e3d6000fd5b505050506040513d601f19601f820116820180604052508101906104a3919061116e565b90503060006104bc6104b483610c13565b849088610c66565b9050600061052d836001600160a01b0316636260f55b6040518163ffffffff1660e01b8152600401602060405180830381865afa158015610501573d6000803e3d6000fd5b505050506040513d601f19601f82011682018060405250810190610525919061116e565b839089610c66565b604080516002808252606082018352929350600092909160208301908036833701905050905082816000815181106105675761056761119d565b60200260200101818152505081816001815181106105875761058761119d565b60200260200101818152505060405180606001604052808b81526020018681526020018281525096505050505050509392505050565b606060006000805160206112978339815191526002810180546040805160208084028201810190925282815293945083018282801561062557602002820191906000526020600020905b81546001600160a01b03168152600190910190602001808311610607575b505050505091505090565b606061063d85858561081a565b8260405160200161032b9291906111b3565b7fc8fcad8db84d3cc18b4c41d551ea0ee66dd599cde068d998e57d5e09332c131e54606090600080516020611297833981519152908067ffffffffffffffff81111561069d5761069d611187565b6040519080825280602002602001820160405280156106e357816020015b6040805180820190915260008152606060208201528152602001906001900390816106bb5790505b50925060005b818110156108145760008360020182815481106107085761070861119d565b9060005260206000200160009054906101000a90046001600160a01b031690508085838151811061073b5761073b61119d565b6020908102919091018101516001600160a01b0392831690529082166000908152600186018252604090819020805482518185028101850190935280835291929091908301828280156107da57602002820191906000526020600020906000905b82829054906101000a900460e01b6001600160e01b0319168152602001906004019060208260030104928301926001038202915080841161079c5790505b50505050508583815181106107f1576107f161119d565b60200260200101516020018190525050808061080c906111dc565b9150506106e9565b50505090565b604080518082018252600080825260606020808401829052845160028082529281018652939430949291830190803683370190505090506000856001600160a01b031663313ce5676040518163ffffffff1660e01b8152600401602060405180830381865afa158015610891573d6000803e3d6000fd5b505050506040513d601f19601f820116820180604052508101906108b591906111f5565b60ff166012146108d3576108ce8764e8d4a51000611218565b6108d5565b865b905060006040518060400160405280856001600160a01b0316636260f55b6040518163ffffffff1660e01b8152600401602060405180830381865afa158015610922573d6000803e3d6000fd5b505050506040513d601f19601f82011682018060405250810190610946919061116e565b815260200161095486610c13565b90529050600260005b81811015610a0f5760006109c2670de0b6b3a76400008584600281106109855761098561119d565b602002015184156109b9578861099c60018761122f565b815181106109ac576109ac61119d565b60200260200101516109bb565b875b9190610ca2565b90506109d58161ffff8b16612710610ca2565b6109df908261122f565b8683815181106109f1576109f161119d565b60209081029190910101525080610a07816111dc565b91505061095d565b5050604080518082019091529788525050602086015250929392505050565b6009546040516370a0823160e01b81523060048201526000916001600160a01b0316906370a0823190602401602060405180830381865afa158015610a77573d6000803e3d6000fd5b505050506040513d601f19601f82011682018060405250810190610a9b919061116e565b90506000826001811115610ab157610ab1611242565b03610b425760025460408051637a12625d60e11b81529051670de0b6b3a7640000926001600160a01b03169163f424c4ba9160048083019260209291908290030181865afa158015610b07573d6000803e3d6000fd5b505050506040513d601f19601f82011682018060405250810190610b2b919061116e565b610b359083611218565b610b3f9190611258565b90505b919050565b6001600160a01b03811660009081527fc8fcad8db84d3cc18b4c41d551ea0ee66dd599cde068d998e57d5e09332c131d602090815260409182902080548351818402810184019094528084526060936000805160206112978339815191529390929190830182828015610c0657602002820191906000526020600020906000905b82829054906101000a900460e01b6001600160e01b03191681526020019060040190602082600301049283019260010382029150808411610bc85790505b5050505050915050919050565b6040805160048152602481019091526020810180516001600160e01b0316636a57db9d60e11b179052600090610c498382610cc0565b905080806020019051810190610c5f919061116e565b9392505050565b600080610c7c8585670de0b6b3a7640000610ca2565b9050610c8f8161ffff8516612710610ca2565b610c99908261122f565b95945050505050565b6000826000190484118302158202610cb957600080fd5b5091020490565b6060610ce583836040518060600160405280602581526020016112b760259139610cee565b90505b92915050565b6060600080856001600160a01b031685604051610d0b919061127a565b600060405180830381855afa9150503d8060008114610d46576040519150601f19603f3d011682016040523d82523d6000602084013e610d4b565b606091505b5091509150610d5c86838387610d66565b9695505050505050565b60608315610dda578251600003610dd3576001600160a01b0385163b610dd35760405162461bcd60e51b815260206004820152601d60248201527f416464726573733a2063616c6c20746f206e6f6e2d636f6e747261637400000060448201526064015b60405180910390fd5b508161033d565b61033d8383815115610def5781518083602001fd5b8060405162461bcd60e51b8152600401610dca9190610ef9565b600060208284031215610e1b57600080fd5b81356001600160e01b031981168114610c5f57600080fd5b80356001600160a01b0381168114610b4257600080fd5b803561ffff81168114610b4257600080fd5b60008060008060808587031215610e7257600080fd5b84359350610e8260208601610e33565b9250610e9060408601610e4a565b9150610e9e60608601610e33565b905092959194509250565b60005b83811015610ec4578181015183820152602001610eac565b50506000910152565b60008151808452610ee5816020860160208601610ea9565b601f01601f19169290920160200192915050565b602081526000610ce56020830184610ecd565b6020808252825182820181905260009190848201906040850190845b81811015610f4d5783516001600160a01b031683529284019291840191600101610f28565b50909695505050505050565b600060208284031215610f6b57600080fd5b610ce582610e33565b600080600060608486031215610f8957600080fd5b83359250610f9960208501610e33565b9150610fa760408501610e4a565b90509250925092565b600081518084526020808501945080840160005b83811015610fe057815187529582019590820190600101610fc4565b509495945050505050565b8051825260208101516020830152600060408201516060604085015261033d6060850182610fb0565b602081526000610ce56020830184610feb565b600081518084526020808501945080840160005b83811015610fe05781516001600160e01b0319168752958201959082019060010161103b565b60006020808301818452808551808352604092508286019150828160051b87010184880160005b838110156110d057888303603f19018552815180516001600160a01b031684528701518784018790526110bd87850182611027565b9588019593505090860190600101611088565b509098975050505050505050565b80518252600060208201516040602085015261033d6040850182610fb0565b602081526000610ce560208301846110de565b60006020828403121561112257600080fd5b813560028110610c5f57600080fd5b602081526000610ce56020830184611027565b6040815260006111576040830185610feb565b905060018060a01b03831660208301529392505050565b60006020828403121561118057600080fd5b5051919050565b634e487b7160e01b600052604160045260246000fd5b634e487b7160e01b600052603260045260246000fd5b60408152600061115760408301856110de565b634e487b7160e01b600052601160045260246000fd5b6000600182016111ee576111ee6111c6565b5060010190565b60006020828403121561120757600080fd5b815160ff81168114610c5f57600080fd5b8082028115828204841417610ce857610ce86111c6565b81810381811115610ce857610ce86111c6565b634e487b7160e01b600052602160045260246000fd5b60008261127557634e487b7160e01b600052601260045260246000fd5b500490565b6000825161128c818460208701610ea9565b919091019291505056fec8fcad8db84d3cc18b4c41d551ea0ee66dd599cde068d998e57d5e09332c131c416464726573733a206c6f772d6c6576656c207374617469632063616c6c206661696c6564a26469706673582212209244e939504e9c5ca55c0a139ff6efd091fb5ec847f1abda2c61c72b95fb721c64736f6c63430008150033",
    "linkReferences": {}
  },
  "methodIdentifiers": {
    "facetAddress(bytes4)": "cdffacc6",
    "facetAddresses()": "52ef6b2c",
    "facetFunctionSelectors(address)": "adfca15e",
    "facets()": "7a0ed627",
    "getAdminFee()": "2a905ccc",
    "getDefaultSlippage()": "1a82363e",
    "getLSDs()": "38ab35d4",
    "getMintData(uint256,address,uint16,address)": "635d12cc",
    "getProtocolFee()": "a5a41031",
    "getRedeemData(uint256,address,uint16,address)": "2e19905c",
    "ozTokens(address)": "423f0b91",
    "quoteAmountsIn(uint256,address,uint16)": "a49709b6",
    "quoteAmountsOut(uint256,address,uint16)": "4d2c1487",
    "supportsInterface(bytes4)": "01ffc9a7",
    "totalUnderlying(uint8)": "a4fc284b"
  },
  "id": 16
}