{
  "abi": [
    {
      "inputs": [
        {
          "internalType": "bytes4",
          "name": "_functionSelector",
          "type": "bytes4"
        }
      ],
      "name": "facetAddress",
      "outputs": [
        {
          "internalType": "address",
          "name": "facetAddress_",
          "type": "address"
        }
      ],
      "stateMutability": "view",
      "type": "function"
    },
    {
      "inputs": [],
      "name": "facetAddresses",
      "outputs": [
        {
          "internalType": "address[]",
          "name": "facetAddresses_",
          "type": "address[]"
        }
      ],
      "stateMutability": "view",
      "type": "function"
    },
    {
      "inputs": [
        {
          "internalType": "address",
          "name": "_facet",
          "type": "address"
        }
      ],
      "name": "facetFunctionSelectors",
      "outputs": [
        {
          "internalType": "bytes4[]",
          "name": "facetFunctionSelectors_",
          "type": "bytes4[]"
        }
      ],
      "stateMutability": "view",
      "type": "function"
    },
    {
      "inputs": [],
      "name": "facets",
      "outputs": [
        {
          "components": [
            {
              "internalType": "address",
              "name": "facetAddress",
              "type": "address"
            },
            {
              "internalType": "bytes4[]",
              "name": "functionSelectors",
              "type": "bytes4[]"
            }
          ],
          "internalType": "struct IDiamondLoupe.Facet[]",
          "name": "facets_",
          "type": "tuple[]"
        }
      ],
      "stateMutability": "view",
      "type": "function"
    },
    {
      "inputs": [],
      "name": "getAdminFee",
      "outputs": [
        {
          "internalType": "uint256",
          "name": "",
          "type": "uint256"
        }
      ],
      "stateMutability": "view",
      "type": "function"
    },
    {
      "inputs": [],
      "name": "getDefaultSlippage",
      "outputs": [
        {
          "internalType": "uint16",
          "name": "",
          "type": "uint16"
        }
      ],
      "stateMutability": "view",
      "type": "function"
    },
    {
      "inputs": [],
      "name": "getLSDs",
      "outputs": [
        {
          "internalType": "address[]",
          "name": "",
          "type": "address[]"
        }
      ],
      "stateMutability": "view",
      "type": "function"
    },
    {
      "inputs": [
        {
          "internalType": "uint256",
          "name": "amountIn_",
          "type": "uint256"
        },
        {
          "internalType": "address",
          "name": "underlying_",
          "type": "address"
        },
        {
          "internalType": "uint16",
          "name": "slippage_",
          "type": "uint16"
        },
        {
          "internalType": "address",
          "name": "receiver_",
          "type": "address"
        }
      ],
      "name": "getMintData",
      "outputs": [
        {
          "internalType": "bytes",
          "name": "",
          "type": "bytes"
        }
      ],
      "stateMutability": "view",
      "type": "function"
    },
    {
      "inputs": [],
      "name": "getProtocolFee",
      "outputs": [
        {
          "internalType": "uint256",
          "name": "",
          "type": "uint256"
        }
      ],
      "stateMutability": "view",
      "type": "function"
    },
    {
      "inputs": [
        {
          "internalType": "uint256",
          "name": "ozAmountIn_",
          "type": "uint256"
        },
        {
          "internalType": "address",
          "name": "ozToken_",
          "type": "address"
        },
        {
          "internalType": "uint16",
          "name": "slippage_",
          "type": "uint16"
        },
        {
          "internalType": "address",
          "name": "receiver_",
          "type": "address"
        }
      ],
      "name": "getRedeemData",
      "outputs": [
        {
          "internalType": "bytes",
          "name": "",
          "type": "bytes"
        }
      ],
      "stateMutability": "view",
      "type": "function"
    },
    {
      "inputs": [
        {
          "internalType": "address",
          "name": "underlying_",
          "type": "address"
        }
      ],
      "name": "ozTokens",
      "outputs": [
        {
          "internalType": "address",
          "name": "",
          "type": "address"
        }
      ],
      "stateMutability": "view",
      "type": "function"
    },
    {
      "inputs": [
        {
          "internalType": "uint256",
          "name": "amountIn_",
          "type": "uint256"
        },
        {
          "internalType": "address",
          "name": "underlying_",
          "type": "address"
        },
        {
          "internalType": "uint16",
          "name": "slippage_",
          "type": "uint16"
        }
      ],
      "name": "quoteAmountsIn",
      "outputs": [
        {
          "components": [
            {
              "internalType": "uint256",
              "name": "amountIn",
              "type": "uint256"
            },
            {
              "internalType": "uint256[]",
              "name": "minAmountsOut",
              "type": "uint256[]"
            }
          ],
          "internalType": "struct AmountsIn",
          "name": "",
          "type": "tuple"
        }
      ],
      "stateMutability": "view",
      "type": "function"
    },
    {
      "inputs": [
        {
          "internalType": "uint256",
          "name": "ozAmountIn_",
          "type": "uint256"
        },
        {
          "internalType": "address",
          "name": "ozToken_",
          "type": "address"
        },
        {
          "internalType": "uint16",
          "name": "slippage_",
          "type": "uint16"
        }
      ],
      "name": "quoteAmountsOut",
      "outputs": [
        {
          "components": [
            {
              "internalType": "uint256",
              "name": "ozAmountIn",
              "type": "uint256"
            },
            {
              "internalType": "uint256",
              "name": "amountInReth",
              "type": "uint256"
            },
            {
              "internalType": "uint256[]",
              "name": "minAmountsOut",
              "type": "uint256[]"
            }
          ],
          "internalType": "struct AmountsOut",
          "name": "",
          "type": "tuple"
        }
      ],
      "stateMutability": "view",
      "type": "function"
    },
    {
      "inputs": [
        {
          "internalType": "bytes4",
          "name": "_interfaceId",
          "type": "bytes4"
        }
      ],
      "name": "supportsInterface",
      "outputs": [
        {
          "internalType": "bool",
          "name": "",
          "type": "bool"
        }
      ],
      "stateMutability": "view",
      "type": "function"
    },
    {
      "inputs": [
        {
          "internalType": "enum Asset",
          "name": "type_",
          "type": "uint8"
        }
      ],
      "name": "totalUnderlying",
      "outputs": [
        {
          "internalType": "uint256",
          "name": "total",
          "type": "uint256"
        }
      ],
      "stateMutability": "view",
      "type": "function"
    }
  ],
  "bytecode": {
    "object": "0x608060405234801561001057600080fd5b5061130a806100206000396000f3fe608060405234801561001057600080fd5b50600436106100f55760003560e01c806352ef6b2c11610097578063a4fc284b11610066578063a4fc284b14610282578063a5a4103114610295578063adfca15e146102ac578063cdffacc6146102cc57600080fd5b806352ef6b2c14610232578063635d12cc1461023a5780637a0ed6271461024d578063a49709b61461026257600080fd5b80632e19905c116100d35780632e19905c1461019957806338ab35d4146101b9578063423f0b91146101ce5780634d2c14871461021257600080fd5b806301ffc9a7146100fa5780631a82363e1461015b5780632a905ccc1461017c575b600080fd5b610146610108366004610e02565b6001600160e01b03191660009081527fc8fcad8db84d3cc18b4c41d551ea0ee66dd599cde068d998e57d5e09332c131f602052604090205460ff1690565b60405190151581526020015b60405180910390f35b600754600160a01b900461ffff1660405161ffff9091168152602001610152565b601f54600160a01b900461ffff165b604051908152602001610152565b6101ac6101a7366004610e55565b61030c565b6040516101529190610ef2565b6101c1610345565b6040516101529190610f05565b6101fa6101dc366004610f52565b6001600160a01b039081166000908152600b60205260409020541690565b6040516001600160a01b039091168152602001610152565b610225610220366004610f6d565b6103a3565b604051610152919061100d565b6101c16105b6565b6101ac610248366004610e55565b610629565b610255610648565b604051610152919061105a565b610275610270366004610f6d565b610813565b60405161015291906110f6565b61018b610290366004611109565b610a27565b6013546601000000000000900462ffffff1661018b565b6102bf6102ba366004610f52565b610b40565b604051610152919061112a565b6101fa6102da366004610e02565b6001600160e01b031916600090815260008051602061129083398151915260205260409020546001600160a01b031690565b60606103198585856103a3565b8260405160200161032b92919061113d565b60405160208183030381529060405290505b949350505050565b60208054604080518284028101840190915281815260609290918282018282801561039957602002820191906000526020600020905b81546001600160a01b0316815260019091019060200180831161037b575b5050505050905090565b6103c760405180606001604052806000815260200160008152602001606081525090565b604051630a28a47760e01b81526004810185905283906000906001600160a01b03831690631dc7f521908290630a28a47790602401602060405180830381865afa158015610419573d6000803e3d6000fd5b505050506040513d601f19601f8201168201806040525081019061043d9190611167565b6040518263ffffffff1660e01b815260040161045b91815260200190565b602060405180830381865afa158015610478573d6000803e3d6000fd5b505050506040513d601f19601f8201168201806040525081019061049c9190611167565b90503060006104b56104ad83610c0c565b849088610c5f565b90506000610526836001600160a01b0316636260f55b6040518163ffffffff1660e01b8152600401602060405180830381865afa1580156104fa573d6000803e3d6000fd5b505050506040513d601f19601f8201168201806040525081019061051e9190611167565b839089610c5f565b6040805160028082526060820183529293506000929091602083019080368337019050509050828160008151811061056057610560611196565b602002602001018181525050818160018151811061058057610580611196565b60200260200101818152505060405180606001604052808b81526020018681526020018281525096505050505050509392505050565b606060006000805160206112908339815191526002810180546040805160208084028201810190925282815293945083018282801561061e57602002820191906000526020600020905b81546001600160a01b03168152600190910190602001808311610600575b505050505091505090565b6060610636858585610813565b8260405160200161032b9291906111ac565b7fc8fcad8db84d3cc18b4c41d551ea0ee66dd599cde068d998e57d5e09332c131e54606090600080516020611290833981519152908067ffffffffffffffff81111561069657610696611180565b6040519080825280602002602001820160405280156106dc57816020015b6040805180820190915260008152606060208201528152602001906001900390816106b45790505b50925060005b8181101561080d57600083600201828154811061070157610701611196565b9060005260206000200160009054906101000a90046001600160a01b031690508085838151811061073457610734611196565b6020908102919091018101516001600160a01b0392831690529082166000908152600186018252604090819020805482518185028101850190935280835291929091908301828280156107d357602002820191906000526020600020906000905b82829054906101000a900460e01b6001600160e01b031916815260200190600401906020826003010492830192600103820291508084116107955790505b50505050508583815181106107ea576107ea611196565b602002602001015160200181905250508080610805906111d5565b9150506106e2565b50505090565b604080518082018252600080825260606020808401829052845160028082529281018652939430949291830190803683370190505090506000856001600160a01b031663313ce5676040518163ffffffff1660e01b8152600401602060405180830381865afa15801561088a573d6000803e3d6000fd5b505050506040513d601f19601f820116820180604052508101906108ae91906111ee565b60ff166012146108cc576108c78764e8d4a51000611211565b6108ce565b865b905060006040518060400160405280856001600160a01b0316636260f55b6040518163ffffffff1660e01b8152600401602060405180830381865afa15801561091b573d6000803e3d6000fd5b505050506040513d601f19601f8201168201806040525081019061093f9190611167565b815260200161094d86610c0c565b90529050600260005b81811015610a085760006109bb670de0b6b3a764000085846002811061097e5761097e611196565b602002015184156109b25788610995600187611228565b815181106109a5576109a5611196565b60200260200101516109b4565b875b9190610c9b565b90506109ce8161ffff8b16612710610c9b565b6109d89082611228565b8683815181106109ea576109ea611196565b60209081029190910101525080610a00816111d5565b915050610956565b5050604080518082019091529788525050602086015250929392505050565b6009546040516370a0823160e01b81523060048201526000916001600160a01b0316906370a0823190602401602060405180830381865afa158015610a70573d6000803e3d6000fd5b505050506040513d601f19601f82011682018060405250810190610a949190611167565b90506000826001811115610aaa57610aaa61123b565b03610b3b5760025460408051637a12625d60e11b81529051670de0b6b3a7640000926001600160a01b03169163f424c4ba9160048083019260209291908290030181865afa158015610b00573d6000803e3d6000fd5b505050506040513d601f19601f82011682018060405250810190610b249190611167565b610b2e9083611211565b610b389190611251565b90505b919050565b6001600160a01b03811660009081527fc8fcad8db84d3cc18b4c41d551ea0ee66dd599cde068d998e57d5e09332c131d602090815260409182902080548351818402810184019094528084526060936000805160206112908339815191529390929190830182828015610bff57602002820191906000526020600020906000905b82829054906101000a900460e01b6001600160e01b03191681526020019060040190602082600301049283019260010382029150808411610bc15790505b5050505050915050919050565b6040805160048152602481019091526020810180516001600160e01b0316636a57db9d60e11b179052600090610c428382610cb9565b905080806020019051810190610c589190611167565b9392505050565b600080610c758585670de0b6b3a7640000610c9b565b9050610c888161ffff8516612710610c9b565b610c929082611228565b95945050505050565b6000826000190484118302158202610cb257600080fd5b5091020490565b6060610cde83836040518060600160405280602581526020016112b060259139610ce7565b90505b92915050565b6060600080856001600160a01b031685604051610d049190611273565b600060405180830381855afa9150503d8060008114610d3f576040519150601f19603f3d011682016040523d82523d6000602084013e610d44565b606091505b5091509150610d5586838387610d5f565b9695505050505050565b60608315610dd3578251600003610dcc576001600160a01b0385163b610dcc5760405162461bcd60e51b815260206004820152601d60248201527f416464726573733a2063616c6c20746f206e6f6e2d636f6e747261637400000060448201526064015b60405180910390fd5b508161033d565b61033d8383815115610de85781518083602001fd5b8060405162461bcd60e51b8152600401610dc39190610ef2565b600060208284031215610e1457600080fd5b81356001600160e01b031981168114610c5857600080fd5b80356001600160a01b0381168114610b3b57600080fd5b803561ffff81168114610b3b57600080fd5b60008060008060808587031215610e6b57600080fd5b84359350610e7b60208601610e2c565b9250610e8960408601610e43565b9150610e9760608601610e2c565b905092959194509250565b60005b83811015610ebd578181015183820152602001610ea5565b50506000910152565b60008151808452610ede816020860160208601610ea2565b601f01601f19169290920160200192915050565b602081526000610cde6020830184610ec6565b6020808252825182820181905260009190848201906040850190845b81811015610f465783516001600160a01b031683529284019291840191600101610f21565b50909695505050505050565b600060208284031215610f6457600080fd5b610cde82610e2c565b600080600060608486031215610f8257600080fd5b83359250610f9260208501610e2c565b9150610fa060408501610e43565b90509250925092565b600081518084526020808501945080840160005b83811015610fd957815187529582019590820190600101610fbd565b509495945050505050565b8051825260208101516020830152600060408201516060604085015261033d6060850182610fa9565b602081526000610cde6020830184610fe4565b600081518084526020808501945080840160005b83811015610fd95781516001600160e01b03191687529582019590820190600101611034565b60006020808301818452808551808352604092508286019150828160051b87010184880160005b838110156110c957888303603f19018552815180516001600160a01b031684528701518784018790526110b687850182611020565b9588019593505090860190600101611081565b509098975050505050505050565b80518252600060208201516040602085015261033d6040850182610fa9565b602081526000610cde60208301846110d7565b60006020828403121561111b57600080fd5b813560028110610c5857600080fd5b602081526000610cde6020830184611020565b6040815260006111506040830185610fe4565b905060018060a01b03831660208301529392505050565b60006020828403121561117957600080fd5b5051919050565b634e487b7160e01b600052604160045260246000fd5b634e487b7160e01b600052603260045260246000fd5b60408152600061115060408301856110d7565b634e487b7160e01b600052601160045260246000fd5b6000600182016111e7576111e76111bf565b5060010190565b60006020828403121561120057600080fd5b815160ff81168114610c5857600080fd5b8082028115828204841417610ce157610ce16111bf565b81810381811115610ce157610ce16111bf565b634e487b7160e01b600052602160045260246000fd5b60008261126e57634e487b7160e01b600052601260045260246000fd5b500490565b60008251611285818460208701610ea2565b919091019291505056fec8fcad8db84d3cc18b4c41d551ea0ee66dd599cde068d998e57d5e09332c131c416464726573733a206c6f772d6c6576656c207374617469632063616c6c206661696c6564a26469706673582212204d89cccc09b784a0f83a20b2090cb8060e66320d9d25f31d0de2408976707dc164736f6c63430008150033",
    "linkReferences": {}
  },
  "methodIdentifiers": {
    "facetAddress(bytes4)": "cdffacc6",
    "facetAddresses()": "52ef6b2c",
    "facetFunctionSelectors(address)": "adfca15e",
    "facets()": "7a0ed627",
    "getAdminFee()": "2a905ccc",
    "getDefaultSlippage()": "1a82363e",
    "getLSDs()": "38ab35d4",
    "getMintData(uint256,address,uint16,address)": "635d12cc",
    "getProtocolFee()": "a5a41031",
    "getRedeemData(uint256,address,uint16,address)": "2e19905c",
    "ozTokens(address)": "423f0b91",
    "quoteAmountsIn(uint256,address,uint16)": "a49709b6",
    "quoteAmountsOut(uint256,address,uint16)": "4d2c1487",
    "supportsInterface(bytes4)": "01ffc9a7",
    "totalUnderlying(uint8)": "a4fc284b"
  },
  "id": 16
}