{
  "abi": [
    {
      "inputs": [
        {
          "internalType": "bytes4",
          "name": "_functionSelector",
          "type": "bytes4"
        }
      ],
      "name": "facetAddress",
      "outputs": [
        {
          "internalType": "address",
          "name": "facetAddress_",
          "type": "address"
        }
      ],
      "stateMutability": "view",
      "type": "function"
    },
    {
      "inputs": [],
      "name": "facetAddresses",
      "outputs": [
        {
          "internalType": "address[]",
          "name": "facetAddresses_",
          "type": "address[]"
        }
      ],
      "stateMutability": "view",
      "type": "function"
    },
    {
      "inputs": [
        {
          "internalType": "address",
          "name": "_facet",
          "type": "address"
        }
      ],
      "name": "facetFunctionSelectors",
      "outputs": [
        {
          "internalType": "bytes4[]",
          "name": "facetFunctionSelectors_",
          "type": "bytes4[]"
        }
      ],
      "stateMutability": "view",
      "type": "function"
    },
    {
      "inputs": [],
      "name": "facets",
      "outputs": [
        {
          "components": [
            {
              "internalType": "address",
              "name": "facetAddress",
              "type": "address"
            },
            {
              "internalType": "bytes4[]",
              "name": "functionSelectors",
              "type": "bytes4[]"
            }
          ],
          "internalType": "struct IDiamondLoupe.Facet[]",
          "name": "facets_",
          "type": "tuple[]"
        }
      ],
      "stateMutability": "view",
      "type": "function"
    },
    {
      "inputs": [],
      "name": "getDefaultSlippage",
      "outputs": [
        {
          "internalType": "uint16",
          "name": "",
          "type": "uint16"
        }
      ],
      "stateMutability": "view",
      "type": "function"
    },
    {
      "inputs": [],
      "name": "getLSDs",
      "outputs": [
        {
          "internalType": "address[]",
          "name": "",
          "type": "address[]"
        }
      ],
      "stateMutability": "view",
      "type": "function"
    },
    {
      "inputs": [
        {
          "internalType": "uint256",
          "name": "amountIn_",
          "type": "uint256"
        },
        {
          "internalType": "address",
          "name": "underlying_",
          "type": "address"
        },
        {
          "internalType": "uint16",
          "name": "slippage_",
          "type": "uint16"
        },
        {
          "internalType": "address",
          "name": "owner_",
          "type": "address"
        }
      ],
      "name": "getMintData",
      "outputs": [
        {
          "internalType": "bytes",
          "name": "",
          "type": "bytes"
        }
      ],
      "stateMutability": "view",
      "type": "function"
    },
    {
      "inputs": [],
      "name": "getProtocolFee",
      "outputs": [
        {
          "internalType": "uint256",
          "name": "",
          "type": "uint256"
        }
      ],
      "stateMutability": "view",
      "type": "function"
    },
    {
      "inputs": [
        {
          "internalType": "address",
          "name": "underlying_",
          "type": "address"
        }
      ],
      "name": "ozTokens",
      "outputs": [
        {
          "internalType": "address",
          "name": "",
          "type": "address"
        }
      ],
      "stateMutability": "view",
      "type": "function"
    },
    {
      "inputs": [
        {
          "internalType": "uint256",
          "name": "amountIn_",
          "type": "uint256"
        },
        {
          "internalType": "address",
          "name": "underlying_",
          "type": "address"
        },
        {
          "internalType": "uint16",
          "name": "slippage_",
          "type": "uint16"
        }
      ],
      "name": "quoteAmountsIn",
      "outputs": [
        {
          "components": [
            {
              "internalType": "uint256",
              "name": "amountIn",
              "type": "uint256"
            },
            {
              "internalType": "uint256[]",
              "name": "minAmountsOut",
              "type": "uint256[]"
            }
          ],
          "internalType": "struct AmountsIn",
          "name": "",
          "type": "tuple"
        }
      ],
      "stateMutability": "view",
      "type": "function"
    },
    {
      "inputs": [
        {
          "internalType": "bytes4",
          "name": "_interfaceId",
          "type": "bytes4"
        }
      ],
      "name": "supportsInterface",
      "outputs": [
        {
          "internalType": "bool",
          "name": "",
          "type": "bool"
        }
      ],
      "stateMutability": "view",
      "type": "function"
    },
    {
      "inputs": [
        {
          "internalType": "enum Asset",
          "name": "type_",
          "type": "uint8"
        }
      ],
      "name": "totalUnderlying",
      "outputs": [
        {
          "internalType": "uint256",
          "name": "total",
          "type": "uint256"
        }
      ],
      "stateMutability": "view",
      "type": "function"
    }
  ],
  "bytecode": {
    "object": "0x608060405234801561001057600080fd5b50610fcf806100206000396000f3fe608060405234801561001057600080fd5b50600436106100b45760003560e01c80637a0ed627116100715780637a0ed627146101bc578063a49709b6146101d1578063a4fc284b146101f1578063a5a4103114610212578063adfca15e1461021f578063cdffacc61461023f57600080fd5b806301ffc9a7146100b95780631a82363e1461011a57806338ab35d41461013b578063423f0b911461015057806352ef6b2c14610194578063635d12cc1461019c575b600080fd5b6101056100c7366004610b0e565b6001600160e01b03191660009081527fc8fcad8db84d3cc18b4c41d551ea0ee66dd599cde068d998e57d5e09332c131f602052604090205460ff1690565b60405190151581526020015b60405180910390f35b600754600160a01b900461ffff1660405161ffff9091168152602001610111565b61014361027f565b6040516101119190610b38565b61017c61015e366004610b9c565b6001600160a01b039081166000908152600b60205260409020541690565b6040516001600160a01b039091168152602001610111565b6101436102e4565b6101af6101aa366004610bc9565b610357565b6040516101119190610c66565b6101c4610390565b6040516101119190610cbe565b6101e46101df366004610d3b565b61055b565b6040516101119190610dce565b6102046101ff366004610de1565b61076f565b604051908152602001610111565b60155462ffffff16610204565b61023261022d366004610b9c565b610888565b6040516101119190610e02565b61017c61024d366004610b0e565b6001600160e01b0319166000908152600080516020610f5583398151915260205260409020546001600160a01b031690565b606060006022018054806020026020016040519081016040528092919081815260200182805480156102da57602002820191906000526020600020905b81546001600160a01b031681526001909101906020018083116102bc575b5050505050905090565b60606000600080516020610f558339815191526002810180546040805160208084028201810190925282815293945083018282801561034c57602002820191906000526020600020905b81546001600160a01b0316815260019091019060200180831161032e575b505050505091505090565b606061036485858561055b565b82604051602001610376929190610e15565b60405160208183030381529060405290505b949350505050565b7fc8fcad8db84d3cc18b4c41d551ea0ee66dd599cde068d998e57d5e09332c131e54606090600080516020610f55833981519152908067ffffffffffffffff8111156103de576103de610e3f565b60405190808252806020026020018201604052801561042457816020015b6040805180820190915260008152606060208201528152602001906001900390816103fc5790505b50925060005b8181101561055557600083600201828154811061044957610449610e55565b9060005260206000200160009054906101000a90046001600160a01b031690508085838151811061047c5761047c610e55565b6020908102919091018101516001600160a01b03928316905290821660009081526001860182526040908190208054825181850281018501909352808352919290919083018282801561051b57602002820191906000526020600020906000905b82829054906101000a900460e01b6001600160e01b031916815260200190600401906020826003010492830192600103820291508084116104dd5790505b505050505085838151811061053257610532610e55565b60200260200101516020018190525050808061054d90610e81565b91505061042a565b50505090565b604080518082018252600080825260606020808401829052845160028082529281018652939430949291830190803683370190505090506000856001600160a01b031663313ce5676040518163ffffffff1660e01b8152600401602060405180830381865afa1580156105d2573d6000803e3d6000fd5b505050506040513d601f19601f820116820180604052508101906105f69190610e9a565b60ff166012146106145761060f8764e8d4a51000610ebd565b610616565b865b905060006040518060400160405280856001600160a01b0316636260f55b6040518163ffffffff1660e01b8152600401602060405180830381865afa158015610663573d6000803e3d6000fd5b505050506040513d601f19601f820116820180604052508101906106879190610ed4565b815260200161069586610954565b90529050600260005b81811015610750576000610703670de0b6b3a76400008584600281106106c6576106c6610e55565b602002015184156106fa57886106dd600187610eed565b815181106106ed576106ed610e55565b60200260200101516106fc565b875b91906109a7565b90506107168161ffff8b166127106109a7565b6107209082610eed565b86838151811061073257610732610e55565b6020908102919091010152508061074881610e81565b91505061069e565b5050604080518082019091529788525050602086015250929392505050565b6009546040516370a0823160e01b81523060048201526000916001600160a01b0316906370a0823190602401602060405180830381865afa1580156107b8573d6000803e3d6000fd5b505050506040513d601f19601f820116820180604052508101906107dc9190610ed4565b905060008260018111156107f2576107f2610f00565b036108835760025460408051637a12625d60e11b81529051670de0b6b3a7640000926001600160a01b03169163f424c4ba9160048083019260209291908290030181865afa158015610848573d6000803e3d6000fd5b505050506040513d601f19601f8201168201806040525081019061086c9190610ed4565b6108769083610ebd565b6108809190610f16565b90505b919050565b6001600160a01b03811660009081527fc8fcad8db84d3cc18b4c41d551ea0ee66dd599cde068d998e57d5e09332c131d60209081526040918290208054835181840281018401909452808452606093600080516020610f55833981519152939092919083018282801561094757602002820191906000526020600020906000905b82829054906101000a900460e01b6001600160e01b031916815260200190600401906020826003010492830192600103820291508084116109095790505b5050505050915050919050565b6040805160048152602481019091526020810180516001600160e01b0316636a57db9d60e11b17905260009061098a83826109c5565b9050808060200190518101906109a09190610ed4565b9392505050565b60008260001904841183021582026109be57600080fd5b5091020490565b60606109ea8383604051806060016040528060258152602001610f75602591396109f3565b90505b92915050565b6060600080856001600160a01b031685604051610a109190610f38565b600060405180830381855afa9150503d8060008114610a4b576040519150601f19603f3d011682016040523d82523d6000602084013e610a50565b606091505b5091509150610a6186838387610a6b565b9695505050505050565b60608315610adf578251600003610ad8576001600160a01b0385163b610ad85760405162461bcd60e51b815260206004820152601d60248201527f416464726573733a2063616c6c20746f206e6f6e2d636f6e747261637400000060448201526064015b60405180910390fd5b5081610388565b6103888383815115610af45781518083602001fd5b8060405162461bcd60e51b8152600401610acf9190610c66565b600060208284031215610b2057600080fd5b81356001600160e01b0319811681146109a057600080fd5b6020808252825182820181905260009190848201906040850190845b81811015610b795783516001600160a01b031683529284019291840191600101610b54565b50909695505050505050565b80356001600160a01b038116811461088357600080fd5b600060208284031215610bae57600080fd5b6109ea82610b85565b803561ffff8116811461088357600080fd5b60008060008060808587031215610bdf57600080fd5b84359350610bef60208601610b85565b9250610bfd60408601610bb7565b9150610c0b60608601610b85565b905092959194509250565b60005b83811015610c31578181015183820152602001610c19565b50506000910152565b60008151808452610c52816020860160208601610c16565b601f01601f19169290920160200192915050565b6020815260006109ea6020830184610c3a565b600081518084526020808501945080840160005b83811015610cb35781516001600160e01b03191687529582019590820190600101610c8d565b509495945050505050565b60006020808301818452808551808352604092508286019150828160051b87010184880160005b83811015610d2d57888303603f19018552815180516001600160a01b03168452870151878401879052610d1a87850182610c79565b9588019593505090860190600101610ce5565b509098975050505050505050565b600080600060608486031215610d5057600080fd5b83359250610d6060208501610b85565b9150610d6e60408501610bb7565b90509250925092565b600060408301825184526020808401516040828701528281518085526060880191508383019450600092505b80831015610dc35784518252938301936001929092019190830190610da3565b509695505050505050565b6020815260006109ea6020830184610d77565b600060208284031215610df357600080fd5b8135600281106109a057600080fd5b6020815260006109ea6020830184610c79565b604081526000610e286040830185610d77565b905060018060a01b03831660208301529392505050565b634e487b7160e01b600052604160045260246000fd5b634e487b7160e01b600052603260045260246000fd5b634e487b7160e01b600052601160045260246000fd5b600060018201610e9357610e93610e6b565b5060010190565b600060208284031215610eac57600080fd5b815160ff811681146109a057600080fd5b80820281158282048414176109ed576109ed610e6b565b600060208284031215610ee657600080fd5b5051919050565b818103818111156109ed576109ed610e6b565b634e487b7160e01b600052602160045260246000fd5b600082610f3357634e487b7160e01b600052601260045260246000fd5b500490565b60008251610f4a818460208701610c16565b919091019291505056fec8fcad8db84d3cc18b4c41d551ea0ee66dd599cde068d998e57d5e09332c131c416464726573733a206c6f772d6c6576656c207374617469632063616c6c206661696c6564a26469706673582212200773c4a5d90e87b4e0687eb99a2c619f8f031d50c00b9a8856a2c46b3606e03664736f6c63430008150033",
    "linkReferences": {}
  },
  "methodIdentifiers": {
    "facetAddress(bytes4)": "cdffacc6",
    "facetAddresses()": "52ef6b2c",
    "facetFunctionSelectors(address)": "adfca15e",
    "facets()": "7a0ed627",
    "getDefaultSlippage()": "1a82363e",
    "getLSDs()": "38ab35d4",
    "getMintData(uint256,address,uint16,address)": "635d12cc",
    "getProtocolFee()": "a5a41031",
    "ozTokens(address)": "423f0b91",
    "quoteAmountsIn(uint256,address,uint16)": "a49709b6",
    "supportsInterface(bytes4)": "01ffc9a7",
    "totalUnderlying(uint8)": "a4fc284b"
  },
  "id": 16
}