{"abi":[{"type":"function","name":"facetAddress","inputs":[{"name":"_functionSelector","type":"bytes4","internalType":"bytes4"}],"outputs":[{"name":"facetAddress_","type":"address","internalType":"address"}],"stateMutability":"view"},{"type":"function","name":"facetAddresses","inputs":[],"outputs":[{"name":"facetAddresses_","type":"address[]","internalType":"address[]"}],"stateMutability":"view"},{"type":"function","name":"facetFunctionSelectors","inputs":[{"name":"_facet","type":"address","internalType":"address"}],"outputs":[{"name":"facetFunctionSelectors_","type":"bytes4[]","internalType":"bytes4[]"}],"stateMutability":"view"},{"type":"function","name":"facets","inputs":[],"outputs":[{"name":"facets_","type":"tuple[]","internalType":"struct IDiamondLoupe.Facet[]","components":[{"name":"facetAddress","type":"address","internalType":"address"},{"name":"functionSelectors","type":"bytes4[]","internalType":"bytes4[]"}]}],"stateMutability":"view"},{"type":"function","name":"getAPR","inputs":[],"outputs":[{"name":"","type":"uint256","internalType":"uint256"}],"stateMutability":"view"},{"type":"function","name":"getAdminFee","inputs":[],"outputs":[{"name":"","type":"uint256","internalType":"uint256"}],"stateMutability":"view"},{"type":"function","name":"getDefaultSlippage","inputs":[],"outputs":[{"name":"","type":"uint16","internalType":"uint16"}],"stateMutability":"view"},{"type":"function","name":"getEnabledSwitch","inputs":[],"outputs":[{"name":"","type":"bool","internalType":"bool"}],"stateMutability":"view"},{"type":"function","name":"getLSDs","inputs":[],"outputs":[{"name":"","type":"address[]","internalType":"address[]"}],"stateMutability":"view"},{"type":"function","name":"getMintData","inputs":[{"name":"amountInStable_","type":"uint256","internalType":"uint256"},{"name":"slippage_","type":"uint16","internalType":"uint16"},{"name":"receiver_","type":"address","internalType":"address"},{"name":"ozERC20_","type":"address","internalType":"address"}],"outputs":[{"name":"","type":"bytes","internalType":"bytes"}],"stateMutability":"view"},{"type":"function","name":"getPausedContracts","inputs":[],"outputs":[{"name":"","type":"uint256[]","internalType":"uint256[]"}],"stateMutability":"view"},{"type":"function","name":"getProtocolFee","inputs":[],"outputs":[{"name":"","type":"uint256","internalType":"uint256"}],"stateMutability":"view"},{"type":"function","name":"getRedeemData","inputs":[{"name":"ozAmountIn_","type":"uint256","internalType":"uint256"},{"name":"ozToken_","type":"address","internalType":"address"},{"name":"slippage_","type":"uint16","internalType":"uint16"},{"name":"receiver_","type":"address","internalType":"address"},{"name":"owner_","type":"address","internalType":"address"}],"outputs":[{"name":"","type":"bytes","internalType":"bytes"}],"stateMutability":"view"},{"type":"function","name":"ozTokens","inputs":[{"name":"underlying_","type":"address","internalType":"address"}],"outputs":[{"name":"","type":"address","internalType":"address"}],"stateMutability":"view"},{"type":"function","name":"quoteAmountsIn","inputs":[{"name":"amountInStable_","type":"uint256","internalType":"uint256"},{"name":"slippage_","type":"uint16","internalType":"uint16"},{"name":"stable_","type":"address","internalType":"address"}],"outputs":[{"name":"","type":"tuple","internalType":"struct AmountsIn","components":[{"name":"amountInStable","type":"uint256","internalType":"uint256"},{"name":"amountInETH","type":"uint256","internalType":"uint256"},{"name":"minAmountOutRETH","type":"uint256","internalType":"uint256"}]}],"stateMutability":"view"},{"type":"function","name":"quoteAmountsOut","inputs":[{"name":"ozAmountIn_","type":"uint256","internalType":"uint256"},{"name":"ozToken_","type":"address","internalType":"address"},{"name":"slippage_","type":"uint16","internalType":"uint16"},{"name":"owner_","type":"address","internalType":"address"}],"outputs":[{"name":"","type":"tuple","internalType":"struct AmountsOut","components":[{"name":"ozAmountIn","type":"uint256","internalType":"uint256"},{"name":"amountInReth","type":"uint256","internalType":"uint256"},{"name":"minAmountsOut","type":"uint256[]","internalType":"uint256[]"}]}],"stateMutability":"view"},{"type":"function","name":"supportsInterface","inputs":[{"name":"_interfaceId","type":"bytes4","internalType":"bytes4"}],"outputs":[{"name":"","type":"bool","internalType":"bool"}],"stateMutability":"view"},{"type":"function","name":"totalUnderlying","inputs":[{"name":"type_","type":"uint8","internalType":"enum Asset"}],"outputs":[{"name":"total","type":"uint256","internalType":"uint256"}],"stateMutability":"view"},{"type":"error","name":"OZError41","inputs":[{"name":"ozToken","type":"address","internalType":"address"}]}],"bytecode":{"object":"0x608060405234801561000f575f80fd5b506116188061001d5f395ff3fe608060405234801561000f575f80fd5b5060043610610111575f3560e01c80637a0ed6271161009e578063a5a410311161006e578063a5a41031146102bb578063adfca15e146102d2578063c3e2450d146102f2578063c89d5b8b14610305578063cdffacc61461030d575f80fd5b80637a0ed6271461025e5780638cfae63314610273578063a3e4ed1414610293578063a4fc284b146102a8575f80fd5b806338ab35d4116100e457806338ab35d4146101be578063423f0b91146101d3578063435966091461021657806352ef6b2c146102365780637226e48b1461023e575f80fd5b806301ffc9a714610115578063089e63f0146101755780631a82363e146101805780632a905ccc146101a1575b5f80fd5b610160610123366004611081565b6001600160e01b0319165f9081527fc8fcad8db84d3cc18b4c41d551ea0ee66dd599cde068d998e57d5e09332c131f602052604090205460ff1690565b60405190151581526020015b60405180910390f35b602b5460ff16610160565b600754600160a01b900461ffff1660405161ffff909116815260200161016c565b601f54600160a01b900461ffff165b60405190815260200161016c565b6101c661034b565b60405161016c91906110a8565b6101fe6101e136600461110b565b6001600160a01b039081165f908152600b60205260409020541690565b6040516001600160a01b03909116815260200161016c565b610229610224366004611137565b6103a7565b60405161016c91906111e6565b6101c66103e1565b61025161024c3660046111f8565b610450565b60405161016c91906112a8565b610266610701565b60405161016c91906112f3565b610286610281366004611370565b6108b5565b60405161016c91906113ad565b61029b610a3e565b60405161016c91906113ce565b6101b06102b63660046113e0565b610bd0565b6013546601000000000000900462ffffff166101b0565b6102e56102e036600461110b565b610ce3565b60405161016c91906113fe565b610229610300366004611410565b610daa565b6101b0610e60565b6101fe61031b366004611081565b6001600160e01b0319165f9081525f8051602061159e83398151915260205260409020546001600160a01b031690565b60208054604080518284028101840190915281815260609290918282018282801561039d57602002820191905f5260205f20905b81546001600160a01b0316815260019091019060200180831161037f575b5050505050905090565b60606103b586868685610450565b836040516020016103c7929190611443565b604051602081830303815290604052905095945050505050565b60605f5f8051602061159e8339815191526002810180546040805160208084028201810190925282815293945083018282801561044557602002820191905f5260205f20905b81546001600160a01b03168152600190910190602001808311610427575b505050505091505090565b61047260405180606001604052805f81526020015f8152602001606081525090565b5f6001600160a01b0316846001600160a01b03166338d52e0f6040518163ffffffff1660e01b8152600401602060405180830381865afa1580156104b8573d5f803e3d5ffd5b505050506040513d601f19601f820116820180604052508101906104dc919061146c565b6001600160a01b03160361051357604051630390e1b560e01b81526001600160a01b03851660048201526024015b60405180910390fd5b60405163694afd4d60e11b8152600481018690526001600160a01b03838116602483015285915f91831690631dc7f52190829063d295fa9a90604401602060405180830381865afa15801561056a573d5f803e3d5ffd5b505050506040513d601f19601f8201168201806040525081019061058e9190611487565b6040518263ffffffff1660e01b81526004016105ac91815260200190565b602060405180830381865afa1580156105c7573d5f803e3d5ffd5b505050506040513d601f19601f820116820180604052508101906105eb9190611487565b9050305f6106036105fb83610e84565b849089610ed6565b90505f610671836001600160a01b0316636260f55b6040518163ffffffff1660e01b8152600401602060405180830381865afa158015610645573d5f803e3d5ffd5b505050506040513d601f19601f820116820180604052508101906106699190611487565b83908a610ed6565b6040805160028082526060820183529293505f92909160208301908036833701905050905082815f815181106106a9576106a96114b2565b60200260200101818152505081816001815181106106c9576106c96114b2565b60200260200101818152505060405180606001604052808c81526020018681526020018281525096505050505050505b949350505050565b7fc8fcad8db84d3cc18b4c41d551ea0ee66dd599cde068d998e57d5e09332c131e546060905f8051602061159e833981519152908067ffffffffffffffff81111561074e5761074e61149e565b60405190808252806020026020018201604052801561079357816020015b604080518082019091525f81526060602082015281526020019060019003908161076c5790505b5092505f5b818110156108af575f8360020182815481106107b6576107b66114b2565b905f5260205f20015f9054906101000a90046001600160a01b03169050808583815181106107e6576107e66114b2565b6020908102919091018101516001600160a01b0392831690529082165f9081526001860182526040908190208054825181850281018501909352808352919290919083018282801561088157602002820191905f5260205f20905f905b82829054906101000a900460e01b6001600160e01b031916815260200190600401906020826003010492830192600103820291508084116108435790505b5050505050858381518110610898576108986114b2565b602090810291909101810151015250600101610798565b50505090565b6108d660405180606001604052805f81526020015f81526020015f81525090565b5f3090505f836001600160a01b031663313ce5676040518163ffffffff1660e01b8152600401602060405180830381865afa158015610917573d5f803e3d5ffd5b505050506040513d601f19601f8201168201806040525081019061093b91906114c6565b60ff166012146109505764e8d4a51000610953565b60015b64ffffffffff1690505f6109da670de0b6b3a7640000846001600160a01b0316636260f55b6040518163ffffffff1660e01b8152600401602060405180830381865afa1580156109a5573d5f803e3d5ffd5b505050506040513d601f19601f820116820180604052508101906109c99190611487565b6109d3858b6114fa565b9190610f11565b90505f6109fa670de0b6b3a76400006109f286610e84565b849190610f11565b90505f610a0e8261ffff8a16612710610f11565b610a189083611511565b604080516060810182528b81526020810195909552840152509093505050509392505050565b6029546060905f9061ffff1667ffffffffffffffff811115610a6257610a6261149e565b604051908082528060200260200182016040528015610a8b578160200160208202803683370190505b5090505f8060025b60295461ffff16811015610b0557610aac602882610f2c565b15610aef5780848381518110610ac457610ac46114b2565b602090810291909101015281610ad981611524565b9250508280610ae790611524565b935050610afd565b81610af981611524565b9250505b600101610a93565b505f8267ffffffffffffffff811115610b2057610b2061149e565b604051908082528060200260200182016040528015610b49578160200160208202803683370190505b5090505f805b8551811015610bc557858181518110610b6a57610b6a6114b2565b60200260200101515f14610bbd57858181518110610b8a57610b8a6114b2565b6020026020010151838381518110610ba457610ba46114b2565b602090810291909101015281610bb981611524565b9250505b600101610b4f565b509095945050505050565b6009546040516370a0823160e01b81523060048201525f916001600160a01b0316906370a0823190602401602060405180830381865afa158015610c16573d5f803e3d5ffd5b505050506040513d601f19601f82011682018060405250810190610c3a9190611487565b90505f826001811115610c4f57610c4f61153c565b03610cde5760025460408051637a12625d60e11b81529051670de0b6b3a7640000926001600160a01b03169163f424c4ba9160048083019260209291908290030181865afa158015610ca3573d5f803e3d5ffd5b505050506040513d601f19601f82011682018060405250810190610cc79190611487565b610cd190836114fa565b610cdb9190611550565b90505b919050565b6001600160a01b0381165f9081527fc8fcad8db84d3cc18b4c41d551ea0ee66dd599cde068d998e57d5e09332c131d602090815260409182902080548351818402810184019094528084526060935f8051602061159e8339815191529390929190830182828015610d9d57602002820191905f5260205f20905f905b82829054906101000a900460e01b6001600160e01b03191681526020019060040190602082600301049283019260010382029150808411610d5f5790505b5050505050915050919050565b60605f610e128686856001600160a01b03166338d52e0f6040518163ffffffff1660e01b8152600401602060405180830381865afa158015610dee573d5f803e3d5ffd5b505050506040513d601f19601f82011682018060405250810190610281919061146c565b604080518251602080830191909152830151818301529082015160608201526001600160a01b038616608082015290915060a001604051602081830303815290604052915050949350505050565b602f546030545f91600291610e75919061156f565b610e7f9190611550565b905090565b6040805160048152602481019091526020810180516001600160e01b0316636a57db9d60e11b1790525f90610eb98382610f50565b905080806020019051810190610ecf9190611487565b9392505050565b5f80610eeb8585670de0b6b3a7640000610f11565b9050610efe8161ffff8516612710610f11565b610f089082611511565b95945050505050565b5f825f190484118302158202610f25575f80fd5b5091020490565b600881901c5f90815260208390526040902054600160ff83161b1615155b92915050565b6060610ecf83836040518060600160405280602581526020016115be6025913960605f80856001600160a01b031685604051610f8c9190611582565b5f60405180830381855afa9150503d805f8114610fc4576040519150601f19603f3d011682016040523d82523d5f602084013e610fc9565b606091505b5091509150610fda86838387610fe4565b9695505050505050565b606083156110525782515f0361104b576001600160a01b0385163b61104b5760405162461bcd60e51b815260206004820152601d60248201527f416464726573733a2063616c6c20746f206e6f6e2d636f6e7472616374000000604482015260640161050a565b50816106f9565b6106f983838151156110675781518083602001fd5b8060405162461bcd60e51b815260040161050a91906111e6565b5f60208284031215611091575f80fd5b81356001600160e01b031981168114610ecf575f80fd5b602080825282518282018190525f9190848201906040850190845b818110156110e85783516001600160a01b0316835292840192918401916001016110c3565b50909695505050505050565b6001600160a01b0381168114611108575f80fd5b50565b5f6020828403121561111b575f80fd5b8135610ecf816110f4565b803561ffff81168114610cde575f80fd5b5f805f805f60a0868803121561114b575f80fd5b85359450602086013561115d816110f4565b935061116b60408701611126565b9250606086013561117b816110f4565b9150608086013561118b816110f4565b809150509295509295909350565b5f5b838110156111b357818101518382015260200161119b565b50505f910152565b5f81518084526111d2816020860160208601611199565b601f01601f19169290920160200192915050565b602081525f610ecf60208301846111bb565b5f805f806080858703121561120b575f80fd5b84359350602085013561121d816110f4565b925061122b60408601611126565b9150606085013561123b816110f4565b939692955090935050565b5f815180845260208085019450602084015f5b8381101561127557815187529582019590820190600101611259565b509495945050505050565b80518252602081015160208301525f6040820151606060408501526106f96060850182611246565b602081525f610ecf6020830184611280565b5f815180845260208085019450602084015f5b838110156112755781516001600160e01b031916875295820195908201906001016112cd565b5f60208083018184528085518083526040925060408601915060408160051b8701018488015f5b8381101561136257888303603f19018552815180516001600160a01b0316845287015187840187905261134f878501826112ba565b958801959350509086019060010161131a565b509098975050505050505050565b5f805f60608486031215611382575f80fd5b8335925061139260208501611126565b915060408401356113a2816110f4565b809150509250925092565b81518152602080830151908201526040808301519082015260608101610f4a565b602081525f610ecf6020830184611246565b5f602082840312156113f0575f80fd5b813560028110610ecf575f80fd5b602081525f610ecf60208301846112ba565b5f805f8060808587031215611423575f80fd5b8435935061143360208601611126565b9250604085013561122b816110f4565b604081525f6114556040830185611280565b905060018060a01b03831660208301529392505050565b5f6020828403121561147c575f80fd5b8151610ecf816110f4565b5f60208284031215611497575f80fd5b5051919050565b634e487b7160e01b5f52604160045260245ffd5b634e487b7160e01b5f52603260045260245ffd5b5f602082840312156114d6575f80fd5b815160ff81168114610ecf575f80fd5b634e487b7160e01b5f52601160045260245ffd5b8082028115828204841417610f4a57610f4a6114e6565b81810381811115610f4a57610f4a6114e6565b5f60018201611535576115356114e6565b5060010190565b634e487b7160e01b5f52602160045260245ffd5b5f8261156a57634e487b7160e01b5f52601260045260245ffd5b500490565b80820180821115610f4a57610f4a6114e6565b5f8251611593818460208701611199565b919091019291505056fec8fcad8db84d3cc18b4c41d551ea0ee66dd599cde068d998e57d5e09332c131c416464726573733a206c6f772d6c6576656c207374617469632063616c6c206661696c6564a2646970667358221220e60a3a5a437495d0822192be2e3dfa4353c71cdb2e6ca9c211402390162e4eff64736f6c63430008180033","linkReferences":{}},"methodIdentifiers":{"facetAddress(bytes4)":"cdffacc6","facetAddresses()":"52ef6b2c","facetFunctionSelectors(address)":"adfca15e","facets()":"7a0ed627","getAPR()":"c89d5b8b","getAdminFee()":"2a905ccc","getDefaultSlippage()":"1a82363e","getEnabledSwitch()":"089e63f0","getLSDs()":"38ab35d4","getMintData(uint256,uint16,address,address)":"c3e2450d","getPausedContracts()":"a3e4ed14","getProtocolFee()":"a5a41031","getRedeemData(uint256,address,uint16,address,address)":"43596609","ozTokens(address)":"423f0b91","quoteAmountsIn(uint256,uint16,address)":"8cfae633","quoteAmountsOut(uint256,address,uint16,address)":"7226e48b","supportsInterface(bytes4)":"01ffc9a7","totalUnderlying(uint8)":"a4fc284b"},"id":16}