{
  "abi": [
    {
      "inputs": [
        {
          "internalType": "bytes4",
          "name": "_functionSelector",
          "type": "bytes4"
        }
      ],
      "name": "facetAddress",
      "outputs": [
        {
          "internalType": "address",
          "name": "facetAddress_",
          "type": "address"
        }
      ],
      "stateMutability": "view",
      "type": "function"
    },
    {
      "inputs": [],
      "name": "facetAddresses",
      "outputs": [
        {
          "internalType": "address[]",
          "name": "facetAddresses_",
          "type": "address[]"
        }
      ],
      "stateMutability": "view",
      "type": "function"
    },
    {
      "inputs": [
        {
          "internalType": "address",
          "name": "_facet",
          "type": "address"
        }
      ],
      "name": "facetFunctionSelectors",
      "outputs": [
        {
          "internalType": "bytes4[]",
          "name": "facetFunctionSelectors_",
          "type": "bytes4[]"
        }
      ],
      "stateMutability": "view",
      "type": "function"
    },
    {
      "inputs": [],
      "name": "facets",
      "outputs": [
        {
          "components": [
            {
              "internalType": "address",
              "name": "facetAddress",
              "type": "address"
            },
            {
              "internalType": "bytes4[]",
              "name": "functionSelectors",
              "type": "bytes4[]"
            }
          ],
          "internalType": "struct IDiamondLoupe.Facet[]",
          "name": "facets_",
          "type": "tuple[]"
        }
      ],
      "stateMutability": "view",
      "type": "function"
    },
    {
      "inputs": [],
      "name": "getDefaultSlippage",
      "outputs": [
        {
          "internalType": "uint16",
          "name": "",
          "type": "uint16"
        }
      ],
      "stateMutability": "view",
      "type": "function"
    },
    {
      "inputs": [],
      "name": "getLSDs",
      "outputs": [
        {
          "internalType": "address[]",
          "name": "",
          "type": "address[]"
        }
      ],
      "stateMutability": "view",
      "type": "function"
    },
    {
      "inputs": [
        {
          "internalType": "uint256",
          "name": "amountIn_",
          "type": "uint256"
        },
        {
          "internalType": "address",
          "name": "underlying_",
          "type": "address"
        },
        {
          "internalType": "uint16",
          "name": "slippage_",
          "type": "uint16"
        },
        {
          "internalType": "address",
          "name": "receiver_",
          "type": "address"
        }
      ],
      "name": "getMintData",
      "outputs": [
        {
          "internalType": "bytes",
          "name": "",
          "type": "bytes"
        }
      ],
      "stateMutability": "view",
      "type": "function"
    },
    {
      "inputs": [],
      "name": "getProtocolFee",
      "outputs": [
        {
          "internalType": "uint256",
          "name": "",
          "type": "uint256"
        }
      ],
      "stateMutability": "view",
      "type": "function"
    },
    {
      "inputs": [
        {
          "internalType": "uint256",
          "name": "ozAmountIn_",
          "type": "uint256"
        },
        {
          "internalType": "address",
          "name": "ozToken_",
          "type": "address"
        },
        {
          "internalType": "uint16",
          "name": "slippage_",
          "type": "uint16"
        },
        {
          "internalType": "address",
          "name": "receiver_",
          "type": "address"
        }
      ],
      "name": "getRedeemData",
      "outputs": [
        {
          "internalType": "bytes",
          "name": "",
          "type": "bytes"
        }
      ],
      "stateMutability": "view",
      "type": "function"
    },
    {
      "inputs": [
        {
          "internalType": "address",
          "name": "underlying_",
          "type": "address"
        }
      ],
      "name": "ozTokens",
      "outputs": [
        {
          "internalType": "address",
          "name": "",
          "type": "address"
        }
      ],
      "stateMutability": "view",
      "type": "function"
    },
    {
      "inputs": [
        {
          "internalType": "uint256",
          "name": "amountIn_",
          "type": "uint256"
        },
        {
          "internalType": "address",
          "name": "underlying_",
          "type": "address"
        },
        {
          "internalType": "uint16",
          "name": "slippage_",
          "type": "uint16"
        }
      ],
      "name": "quoteAmountsIn",
      "outputs": [
        {
          "components": [
            {
              "internalType": "uint256",
              "name": "amountIn",
              "type": "uint256"
            },
            {
              "internalType": "uint256[]",
              "name": "minAmountsOut",
              "type": "uint256[]"
            }
          ],
          "internalType": "struct AmountsIn",
          "name": "",
          "type": "tuple"
        }
      ],
      "stateMutability": "view",
      "type": "function"
    },
    {
      "inputs": [
        {
          "internalType": "uint256",
          "name": "ozAmountIn_",
          "type": "uint256"
        },
        {
          "internalType": "address",
          "name": "ozToken_",
          "type": "address"
        },
        {
          "internalType": "uint16",
          "name": "slippage_",
          "type": "uint16"
        }
      ],
      "name": "quoteAmountsOut",
      "outputs": [
        {
          "components": [
            {
              "internalType": "uint256",
              "name": "ozAmountIn",
              "type": "uint256"
            },
            {
              "internalType": "uint256",
              "name": "amountInReth",
              "type": "uint256"
            },
            {
              "internalType": "uint256[]",
              "name": "minAmountsOut",
              "type": "uint256[]"
            }
          ],
          "internalType": "struct AmountsOut",
          "name": "",
          "type": "tuple"
        }
      ],
      "stateMutability": "view",
      "type": "function"
    },
    {
      "inputs": [
        {
          "internalType": "bytes4",
          "name": "_interfaceId",
          "type": "bytes4"
        }
      ],
      "name": "supportsInterface",
      "outputs": [
        {
          "internalType": "bool",
          "name": "",
          "type": "bool"
        }
      ],
      "stateMutability": "view",
      "type": "function"
    },
    {
      "inputs": [
        {
          "internalType": "enum Asset",
          "name": "type_",
          "type": "uint8"
        }
      ],
      "name": "totalUnderlying",
      "outputs": [
        {
          "internalType": "uint256",
          "name": "total",
          "type": "uint256"
        }
      ],
      "stateMutability": "view",
      "type": "function"
    }
  ],
  "bytecode": {
    "object": "0x608060405234801561001057600080fd5b506112ed806100206000396000f3fe608060405234801561001057600080fd5b50600436106100ea5760003560e01c8063635d12cc1161008c578063a4fc284b11610066578063a4fc284b1461025a578063a5a410311461027b578063adfca15e14610288578063cdffacc6146102a857600080fd5b8063635d12cc146102125780637a0ed62714610225578063a49709b61461023a57600080fd5b806338ab35d4116100c857806338ab35d414610191578063423f0b91146101a65780634d2c1487146101ea57806352ef6b2c1461020a57600080fd5b806301ffc9a7146100ef5780631a82363e146101505780632e19905c14610171575b600080fd5b61013b6100fd366004610de5565b6001600160e01b03191660009081527fc8fcad8db84d3cc18b4c41d551ea0ee66dd599cde068d998e57d5e09332c131f602052604090205460ff1690565b60405190151581526020015b60405180910390f35b600754600160a01b900461ffff1660405161ffff9091168152602001610147565b61018461017f366004610e38565b6102e8565b6040516101479190610ed5565b610199610321565b6040516101479190610ee8565b6101d26101b4366004610f35565b6001600160a01b039081166000908152600b60205260409020541690565b6040516001600160a01b039091168152602001610147565b6101fd6101f8366004610f50565b610386565b6040516101479190610ff0565b610199610599565b610184610220366004610e38565b61060c565b61022d61062b565b604051610147919061103d565b61024d610248366004610f50565b6107f6565b60405161014791906110d9565b61026d6102683660046110ec565b610a0a565b604051908152602001610147565b60155462ffffff1661026d565b61029b610296366004610f35565b610b23565b604051610147919061110d565b6101d26102b6366004610de5565b6001600160e01b031916600090815260008051602061127383398151915260205260409020546001600160a01b031690565b60606102f5858585610386565b82604051602001610307929190611120565b60405160208183030381529060405290505b949350505050565b6060600060220180548060200260200160405190810160405280929190818152602001828054801561037c57602002820191906000526020600020905b81546001600160a01b0316815260019091019060200180831161035e575b5050505050905090565b6103aa60405180606001604052806000815260200160008152602001606081525090565b604051630a28a47760e01b81526004810185905283906000906001600160a01b03831690631dc7f521908290630a28a47790602401602060405180830381865afa1580156103fc573d6000803e3d6000fd5b505050506040513d601f19601f82011682018060405250810190610420919061114a565b6040518263ffffffff1660e01b815260040161043e91815260200190565b602060405180830381865afa15801561045b573d6000803e3d6000fd5b505050506040513d601f19601f8201168201806040525081019061047f919061114a565b905030600061049861049083610bef565b849088610c42565b90506000610509836001600160a01b0316636260f55b6040518163ffffffff1660e01b8152600401602060405180830381865afa1580156104dd573d6000803e3d6000fd5b505050506040513d601f19601f82011682018060405250810190610501919061114a565b839089610c42565b6040805160028082526060820183529293506000929091602083019080368337019050509050828160008151811061054357610543611179565b602002602001018181525050818160018151811061056357610563611179565b60200260200101818152505060405180606001604052808b81526020018681526020018281525096505050505050509392505050565b606060006000805160206112738339815191526002810180546040805160208084028201810190925282815293945083018282801561060157602002820191906000526020600020905b81546001600160a01b031681526001909101906020018083116105e3575b505050505091505090565b60606106198585856107f6565b8260405160200161030792919061118f565b7fc8fcad8db84d3cc18b4c41d551ea0ee66dd599cde068d998e57d5e09332c131e54606090600080516020611273833981519152908067ffffffffffffffff81111561067957610679611163565b6040519080825280602002602001820160405280156106bf57816020015b6040805180820190915260008152606060208201528152602001906001900390816106975790505b50925060005b818110156107f05760008360020182815481106106e4576106e4611179565b9060005260206000200160009054906101000a90046001600160a01b031690508085838151811061071757610717611179565b6020908102919091018101516001600160a01b0392831690529082166000908152600186018252604090819020805482518185028101850190935280835291929091908301828280156107b657602002820191906000526020600020906000905b82829054906101000a900460e01b6001600160e01b031916815260200190600401906020826003010492830192600103820291508084116107785790505b50505050508583815181106107cd576107cd611179565b6020026020010151602001819052505080806107e8906111b8565b9150506106c5565b50505090565b604080518082018252600080825260606020808401829052845160028082529281018652939430949291830190803683370190505090506000856001600160a01b031663313ce5676040518163ffffffff1660e01b8152600401602060405180830381865afa15801561086d573d6000803e3d6000fd5b505050506040513d601f19601f8201168201806040525081019061089191906111d1565b60ff166012146108af576108aa8764e8d4a510006111f4565b6108b1565b865b905060006040518060400160405280856001600160a01b0316636260f55b6040518163ffffffff1660e01b8152600401602060405180830381865afa1580156108fe573d6000803e3d6000fd5b505050506040513d601f19601f82011682018060405250810190610922919061114a565b815260200161093086610bef565b90529050600260005b818110156109eb57600061099e670de0b6b3a764000085846002811061096157610961611179565b60200201518415610995578861097860018761120b565b8151811061098857610988611179565b6020026020010151610997565b875b9190610c7e565b90506109b18161ffff8b16612710610c7e565b6109bb908261120b565b8683815181106109cd576109cd611179565b602090810291909101015250806109e3816111b8565b915050610939565b5050604080518082019091529788525050602086015250929392505050565b6009546040516370a0823160e01b81523060048201526000916001600160a01b0316906370a0823190602401602060405180830381865afa158015610a53573d6000803e3d6000fd5b505050506040513d601f19601f82011682018060405250810190610a77919061114a565b90506000826001811115610a8d57610a8d61121e565b03610b1e5760025460408051637a12625d60e11b81529051670de0b6b3a7640000926001600160a01b03169163f424c4ba9160048083019260209291908290030181865afa158015610ae3573d6000803e3d6000fd5b505050506040513d601f19601f82011682018060405250810190610b07919061114a565b610b1190836111f4565b610b1b9190611234565b90505b919050565b6001600160a01b03811660009081527fc8fcad8db84d3cc18b4c41d551ea0ee66dd599cde068d998e57d5e09332c131d602090815260409182902080548351818402810184019094528084526060936000805160206112738339815191529390929190830182828015610be257602002820191906000526020600020906000905b82829054906101000a900460e01b6001600160e01b03191681526020019060040190602082600301049283019260010382029150808411610ba45790505b5050505050915050919050565b6040805160048152602481019091526020810180516001600160e01b0316636a57db9d60e11b179052600090610c258382610c9c565b905080806020019051810190610c3b919061114a565b9392505050565b600080610c588585670de0b6b3a7640000610c7e565b9050610c6b8161ffff8516612710610c7e565b610c75908261120b565b95945050505050565b6000826000190484118302158202610c9557600080fd5b5091020490565b6060610cc1838360405180606001604052806025815260200161129360259139610cca565b90505b92915050565b6060600080856001600160a01b031685604051610ce79190611256565b600060405180830381855afa9150503d8060008114610d22576040519150601f19603f3d011682016040523d82523d6000602084013e610d27565b606091505b5091509150610d3886838387610d42565b9695505050505050565b60608315610db6578251600003610daf576001600160a01b0385163b610daf5760405162461bcd60e51b815260206004820152601d60248201527f416464726573733a2063616c6c20746f206e6f6e2d636f6e747261637400000060448201526064015b60405180910390fd5b5081610319565b6103198383815115610dcb5781518083602001fd5b8060405162461bcd60e51b8152600401610da69190610ed5565b600060208284031215610df757600080fd5b81356001600160e01b031981168114610c3b57600080fd5b80356001600160a01b0381168114610b1e57600080fd5b803561ffff81168114610b1e57600080fd5b60008060008060808587031215610e4e57600080fd5b84359350610e5e60208601610e0f565b9250610e6c60408601610e26565b9150610e7a60608601610e0f565b905092959194509250565b60005b83811015610ea0578181015183820152602001610e88565b50506000910152565b60008151808452610ec1816020860160208601610e85565b601f01601f19169290920160200192915050565b602081526000610cc16020830184610ea9565b6020808252825182820181905260009190848201906040850190845b81811015610f295783516001600160a01b031683529284019291840191600101610f04565b50909695505050505050565b600060208284031215610f4757600080fd5b610cc182610e0f565b600080600060608486031215610f6557600080fd5b83359250610f7560208501610e0f565b9150610f8360408501610e26565b90509250925092565b600081518084526020808501945080840160005b83811015610fbc57815187529582019590820190600101610fa0565b509495945050505050565b805182526020810151602083015260006040820151606060408501526103196060850182610f8c565b602081526000610cc16020830184610fc7565b600081518084526020808501945080840160005b83811015610fbc5781516001600160e01b03191687529582019590820190600101611017565b60006020808301818452808551808352604092508286019150828160051b87010184880160005b838110156110ac57888303603f19018552815180516001600160a01b0316845287015187840187905261109987850182611003565b9588019593505090860190600101611064565b509098975050505050505050565b8051825260006020820151604060208501526103196040850182610f8c565b602081526000610cc160208301846110ba565b6000602082840312156110fe57600080fd5b813560028110610c3b57600080fd5b602081526000610cc16020830184611003565b6040815260006111336040830185610fc7565b905060018060a01b03831660208301529392505050565b60006020828403121561115c57600080fd5b5051919050565b634e487b7160e01b600052604160045260246000fd5b634e487b7160e01b600052603260045260246000fd5b60408152600061113360408301856110ba565b634e487b7160e01b600052601160045260246000fd5b6000600182016111ca576111ca6111a2565b5060010190565b6000602082840312156111e357600080fd5b815160ff81168114610c3b57600080fd5b8082028115828204841417610cc457610cc46111a2565b81810381811115610cc457610cc46111a2565b634e487b7160e01b600052602160045260246000fd5b60008261125157634e487b7160e01b600052601260045260246000fd5b500490565b60008251611268818460208701610e85565b919091019291505056fec8fcad8db84d3cc18b4c41d551ea0ee66dd599cde068d998e57d5e09332c131c416464726573733a206c6f772d6c6576656c207374617469632063616c6c206661696c6564a2646970667358221220eda48590a5214f28075291fd98661df914467bc0ef45e71d44d242f016271bf664736f6c63430008150033",
    "linkReferences": {}
  },
  "methodIdentifiers": {
    "facetAddress(bytes4)": "cdffacc6",
    "facetAddresses()": "52ef6b2c",
    "facetFunctionSelectors(address)": "adfca15e",
    "facets()": "7a0ed627",
    "getDefaultSlippage()": "1a82363e",
    "getLSDs()": "38ab35d4",
    "getMintData(uint256,address,uint16,address)": "635d12cc",
    "getProtocolFee()": "a5a41031",
    "getRedeemData(uint256,address,uint16,address)": "2e19905c",
    "ozTokens(address)": "423f0b91",
    "quoteAmountsIn(uint256,address,uint16)": "a49709b6",
    "quoteAmountsOut(uint256,address,uint16)": "4d2c1487",
    "supportsInterface(bytes4)": "01ffc9a7",
    "totalUnderlying(uint8)": "a4fc284b"
  },
  "id": 16
}