{
  "abi": [
    {
      "inputs": [
        {
          "internalType": "bytes4",
          "name": "_functionSelector",
          "type": "bytes4"
        }
      ],
      "name": "facetAddress",
      "outputs": [
        {
          "internalType": "address",
          "name": "facetAddress_",
          "type": "address"
        }
      ],
      "stateMutability": "view",
      "type": "function"
    },
    {
      "inputs": [],
      "name": "facetAddresses",
      "outputs": [
        {
          "internalType": "address[]",
          "name": "facetAddresses_",
          "type": "address[]"
        }
      ],
      "stateMutability": "view",
      "type": "function"
    },
    {
      "inputs": [
        {
          "internalType": "address",
          "name": "_facet",
          "type": "address"
        }
      ],
      "name": "facetFunctionSelectors",
      "outputs": [
        {
          "internalType": "bytes4[]",
          "name": "facetFunctionSelectors_",
          "type": "bytes4[]"
        }
      ],
      "stateMutability": "view",
      "type": "function"
    },
    {
      "inputs": [],
      "name": "facets",
      "outputs": [
        {
          "components": [
            {
              "internalType": "address",
              "name": "facetAddress",
              "type": "address"
            },
            {
              "internalType": "bytes4[]",
              "name": "functionSelectors",
              "type": "bytes4[]"
            }
          ],
          "internalType": "struct IDiamondLoupe.Facet[]",
          "name": "facets_",
          "type": "tuple[]"
        }
      ],
      "stateMutability": "view",
      "type": "function"
    },
    {
      "inputs": [],
      "name": "getDefaultSlippage",
      "outputs": [
        {
          "internalType": "uint16",
          "name": "",
          "type": "uint16"
        }
      ],
      "stateMutability": "view",
      "type": "function"
    },
    {
      "inputs": [],
      "name": "getLSDs",
      "outputs": [
        {
          "internalType": "address[]",
          "name": "",
          "type": "address[]"
        }
      ],
      "stateMutability": "view",
      "type": "function"
    },
    {
      "inputs": [],
      "name": "getProtocolFee",
      "outputs": [
        {
          "internalType": "uint256",
          "name": "",
          "type": "uint256"
        }
      ],
      "stateMutability": "view",
      "type": "function"
    },
    {
      "inputs": [
        {
          "internalType": "address",
          "name": "underlying_",
          "type": "address"
        }
      ],
      "name": "ozTokens",
      "outputs": [
        {
          "internalType": "address",
          "name": "",
          "type": "address"
        }
      ],
      "stateMutability": "view",
      "type": "function"
    },
    {
      "inputs": [
        {
          "internalType": "bytes4",
          "name": "_interfaceId",
          "type": "bytes4"
        }
      ],
      "name": "supportsInterface",
      "outputs": [
        {
          "internalType": "bool",
          "name": "",
          "type": "bool"
        }
      ],
      "stateMutability": "view",
      "type": "function"
    },
    {
      "inputs": [
        {
          "internalType": "enum Asset",
          "name": "type_",
          "type": "uint8"
        }
      ],
      "name": "totalUnderlying",
      "outputs": [
        {
          "internalType": "uint256",
          "name": "total",
          "type": "uint256"
        }
      ],
      "stateMutability": "view",
      "type": "function"
    }
  ],
  "bytecode": {
    "object": "0x608060405234801561001057600080fd5b5061098d806100206000396000f3fe608060405234801561001057600080fd5b506004361061009e5760003560e01c80637a0ed627116100665780637a0ed62714610186578063a4fc284b1461019b578063a5a41031146101bc578063adfca15e146101c9578063cdffacc6146101e957600080fd5b806301ffc9a7146100a35780631a82363e1461010457806338ab35d414610125578063423f0b911461013a57806352ef6b2c1461017e575b600080fd5b6100ef6100b13660046106b1565b6001600160e01b03191660009081527fc8fcad8db84d3cc18b4c41d551ea0ee66dd599cde068d998e57d5e09332c131f602052604090205460ff1690565b60405190151581526020015b60405180910390f35b600754600160a01b900461ffff1660405161ffff90911681526020016100fb565b61012d610229565b6040516100fb91906106e2565b61016661014836600461072f565b6001600160a01b039081166000908152600b60205260409020541690565b6040516001600160a01b0390911681526020016100fb565b61012d61028e565b61018e610301565b6040516100fb9190610758565b6101ae6101a936600461080b565b6104cc565b6040519081526020016100fb565b60155462ffffff166101ae565b6101dc6101d736600461072f565b6105e5565b6040516100fb919061082c565b6101666101f73660046106b1565b6001600160e01b031916600090815260008051602061093883398151915260205260409020546001600160a01b031690565b6060600060220180548060200260200160405190810160405280929190818152602001828054801561028457602002820191906000526020600020905b81546001600160a01b03168152600190910190602001808311610266575b5050505050905090565b60606000600080516020610938833981519152600281018054604080516020808402820181019092528281529394508301828280156102f657602002820191906000526020600020905b81546001600160a01b031681526001909101906020018083116102d8575b505050505091505090565b7fc8fcad8db84d3cc18b4c41d551ea0ee66dd599cde068d998e57d5e09332c131e54606090600080516020610938833981519152908067ffffffffffffffff81111561034f5761034f61086e565b60405190808252806020026020018201604052801561039557816020015b60408051808201909152600081526060602082015281526020019060019003908161036d5790505b50925060005b818110156104c65760008360020182815481106103ba576103ba610884565b9060005260206000200160009054906101000a90046001600160a01b03169050808583815181106103ed576103ed610884565b6020908102919091018101516001600160a01b03928316905290821660009081526001860182526040908190208054825181850281018501909352808352919290919083018282801561048c57602002820191906000526020600020906000905b82829054906101000a900460e01b6001600160e01b0319168152602001906004019060208260030104928301926001038202915080841161044e5790505b50505050508583815181106104a3576104a3610884565b6020026020010151602001819052505080806104be906108b0565b91505061039b565b50505090565b6009546040516370a0823160e01b81523060048201526000916001600160a01b0316906370a0823190602401602060405180830381865afa158015610515573d6000803e3d6000fd5b505050506040513d601f19601f8201168201806040525081019061053991906108c9565b9050600082600181111561054f5761054f6108e2565b036105e05760025460408051637a12625d60e11b81529051670de0b6b3a7640000926001600160a01b03169163f424c4ba9160048083019260209291908290030181865afa1580156105a5573d6000803e3d6000fd5b505050506040513d601f19601f820116820180604052508101906105c991906108c9565b6105d390836108f8565b6105dd9190610915565b90505b919050565b6001600160a01b03811660009081527fc8fcad8db84d3cc18b4c41d551ea0ee66dd599cde068d998e57d5e09332c131d6020908152604091829020805483518184028101840190945280845260609360008051602061093883398151915293909291908301828280156106a457602002820191906000526020600020906000905b82829054906101000a900460e01b6001600160e01b031916815260200190600401906020826003010492830192600103820291508084116106665790505b5050505050915050919050565b6000602082840312156106c357600080fd5b81356001600160e01b0319811681146106db57600080fd5b9392505050565b6020808252825182820181905260009190848201906040850190845b818110156107235783516001600160a01b0316835292840192918401916001016106fe565b50909695505050505050565b60006020828403121561074157600080fd5b81356001600160a01b03811681146106db57600080fd5b60006020808301818452808551808352604092508286019150828160051b8701018488016000805b848110156107fc57898403603f19018652825180516001600160a01b03168552880151888501889052805188860181905290890190839060608701905b808310156107e75783516001600160e01b0319168252928b019260019290920191908b01906107bd565b50978a01979550505091870191600101610780565b50919998505050505050505050565b60006020828403121561081d57600080fd5b8135600281106106db57600080fd5b6020808252825182820181905260009190848201906040850190845b818110156107235783516001600160e01b03191683529284019291840191600101610848565b634e487b7160e01b600052604160045260246000fd5b634e487b7160e01b600052603260045260246000fd5b634e487b7160e01b600052601160045260246000fd5b6000600182016108c2576108c261089a565b5060010190565b6000602082840312156108db57600080fd5b5051919050565b634e487b7160e01b600052602160045260246000fd5b808202811582820484141761090f5761090f61089a565b92915050565b60008261093257634e487b7160e01b600052601260045260246000fd5b50049056fec8fcad8db84d3cc18b4c41d551ea0ee66dd599cde068d998e57d5e09332c131ca26469706673582212200442cc10bb419794c7c456d0f4f2759d269828d95f9c0f178d2b3873c517070c64736f6c63430008150033",
    "linkReferences": {}
  },
  "methodIdentifiers": {
    "facetAddress(bytes4)": "cdffacc6",
    "facetAddresses()": "52ef6b2c",
    "facetFunctionSelectors(address)": "adfca15e",
    "facets()": "7a0ed627",
    "getDefaultSlippage()": "1a82363e",
    "getLSDs()": "38ab35d4",
    "getProtocolFee()": "a5a41031",
    "ozTokens(address)": "423f0b91",
    "supportsInterface(bytes4)": "01ffc9a7",
    "totalUnderlying(uint8)": "a4fc284b"
  },
  "id": 16
}