{"abi":[{"type":"function","name":"facetAddress","inputs":[{"name":"_functionSelector","type":"bytes4","internalType":"bytes4"}],"outputs":[{"name":"facetAddress_","type":"address","internalType":"address"}],"stateMutability":"view"},{"type":"function","name":"facetAddresses","inputs":[],"outputs":[{"name":"facetAddresses_","type":"address[]","internalType":"address[]"}],"stateMutability":"view"},{"type":"function","name":"facetFunctionSelectors","inputs":[{"name":"_facet","type":"address","internalType":"address"}],"outputs":[{"name":"facetFunctionSelectors_","type":"bytes4[]","internalType":"bytes4[]"}],"stateMutability":"view"},{"type":"function","name":"facets","inputs":[],"outputs":[{"name":"facets_","type":"tuple[]","internalType":"struct IDiamondLoupe.Facet[]","components":[{"name":"facetAddress","type":"address","internalType":"address"},{"name":"functionSelectors","type":"bytes4[]","internalType":"bytes4[]"}]}],"stateMutability":"view"},{"type":"function","name":"getAPR","inputs":[],"outputs":[{"name":"","type":"uint256","internalType":"uint256"}],"stateMutability":"view"},{"type":"function","name":"getAdminFee","inputs":[],"outputs":[{"name":"","type":"uint256","internalType":"uint256"}],"stateMutability":"view"},{"type":"function","name":"getDefaultSlippage","inputs":[],"outputs":[{"name":"","type":"uint16","internalType":"uint16"}],"stateMutability":"view"},{"type":"function","name":"getDeposits","inputs":[{"name":"account_","type":"address","internalType":"address"}],"outputs":[{"name":"","type":"tuple[]","internalType":"struct Deposit[]","components":[{"name":"amountETH","type":"uint256","internalType":"uint256"},{"name":"amountStable","type":"uint256","internalType":"uint256"},{"name":"timestamp","type":"uint256","internalType":"uint256"}]}],"stateMutability":"view"},{"type":"function","name":"getEnabledSwitch","inputs":[],"outputs":[{"name":"","type":"bool","internalType":"bool"}],"stateMutability":"view"},{"type":"function","name":"getLSDs","inputs":[],"outputs":[{"name":"","type":"address[]","internalType":"address[]"}],"stateMutability":"view"},{"type":"function","name":"getMintData","inputs":[{"name":"amountInStable_","type":"uint256","internalType":"uint256"},{"name":"slippage_","type":"uint16","internalType":"uint16"},{"name":"receiver_","type":"address","internalType":"address"},{"name":"ozERC20_","type":"address","internalType":"address"}],"outputs":[{"name":"","type":"bytes","internalType":"bytes"}],"stateMutability":"view"},{"type":"function","name":"getPausedContracts","inputs":[],"outputs":[{"name":"","type":"uint256[]","internalType":"uint256[]"}],"stateMutability":"view"},{"type":"function","name":"getProtocolFee","inputs":[],"outputs":[{"name":"","type":"uint256","internalType":"uint256"}],"stateMutability":"view"},{"type":"function","name":"getRedeemData","inputs":[{"name":"ozAmountIn_","type":"uint256","internalType":"uint256"},{"name":"ozToken_","type":"address","internalType":"address"},{"name":"slippage_","type":"uint16","internalType":"uint16"},{"name":"receiver_","type":"address","internalType":"address"},{"name":"owner_","type":"address","internalType":"address"}],"outputs":[{"name":"","type":"bytes","internalType":"bytes"}],"stateMutability":"view"},{"type":"function","name":"getRewardsStartTime","inputs":[],"outputs":[{"name":"","type":"uint256","internalType":"uint256"}],"stateMutability":"view"},{"type":"function","name":"getStakingRewardsUSDC","inputs":[],"outputs":[{"name":"","type":"uint256","internalType":"uint256"}],"stateMutability":"view"},{"type":"function","name":"ozTokens","inputs":[{"name":"underlying_","type":"address","internalType":"address"}],"outputs":[{"name":"","type":"address","internalType":"address"}],"stateMutability":"view"},{"type":"function","name":"quoteAmountsIn","inputs":[{"name":"amountInStable_","type":"uint256","internalType":"uint256"},{"name":"slippage_","type":"uint16","internalType":"uint16"},{"name":"stable_","type":"address","internalType":"address"}],"outputs":[{"name":"","type":"tuple","internalType":"struct AmountsIn","components":[{"name":"amountInStable","type":"uint256","internalType":"uint256"},{"name":"amountInETH","type":"uint256","internalType":"uint256"},{"name":"minAmountOutRETH","type":"uint256","internalType":"uint256"}]}],"stateMutability":"view"},{"type":"function","name":"quoteAmountsOut","inputs":[{"name":"ozAmountIn_","type":"uint256","internalType":"uint256"},{"name":"ozToken_","type":"address","internalType":"address"},{"name":"slippage_","type":"uint16","internalType":"uint16"},{"name":"owner_","type":"address","internalType":"address"}],"outputs":[{"name":"","type":"tuple","internalType":"struct AmountsOut","components":[{"name":"ozAmountIn","type":"uint256","internalType":"uint256"},{"name":"amountInReth","type":"uint256","internalType":"uint256"},{"name":"minAmountsOut","type":"uint256[]","internalType":"uint256[]"}]}],"stateMutability":"view"},{"type":"function","name":"supportsInterface","inputs":[{"name":"_interfaceId","type":"bytes4","internalType":"bytes4"}],"outputs":[{"name":"","type":"bool","internalType":"bool"}],"stateMutability":"view"},{"type":"function","name":"totalUnderlying","inputs":[{"name":"type_","type":"uint8","internalType":"enum Asset"}],"outputs":[{"name":"total","type":"uint256","internalType":"uint256"}],"stateMutability":"view"},{"type":"error","name":"OZError41","inputs":[{"name":"ozToken","type":"address","internalType":"address"}]}],"bytecode":{"object":"0x608060405234801561000f575f80fd5b5061174d8061001d5f395ff3fe608060405234801561000f575f80fd5b5060043610610132575f3560e01c80637226e48b116100b4578063a4fc284b11610079578063a4fc284b146102f9578063a5a410311461030c578063adfca15e14610323578063c3e2450d14610343578063c89d5b8b14610356578063cdffacc61461035e575f80fd5b80637226e48b1461026f5780637a0ed6271461028f5780638cfae633146102a457806394f649dd146102c4578063a3e4ed14146102e4575f80fd5b806338ab35d4116100fa57806338ab35d4146101e7578063423f0b91146101fc578063435966091461023f5780634a6fd8e11461025f57806352ef6b2c14610267575f80fd5b806301ffc9a714610136578063089e63f0146101965780631a82363e146101a15780631dc11195146101c25780632a905ccc146101d4575b5f80fd5b610181610144366004611161565b6001600160e01b0319165f9081527fc8fcad8db84d3cc18b4c41d551ea0ee66dd599cde068d998e57d5e09332c131f602052604090205460ff1690565b60405190151581526020015b60405180910390f35b602b5460ff16610181565b600754600160a01b900461ffff1660405161ffff909116815260200161018d565b6039545b60405190815260200161018d565b601f54600160a01b900461ffff166101c6565b6101ef61039c565b60405161018d9190611188565b61022761020a3660046111eb565b6001600160a01b039081165f908152600b60205260409020541690565b6040516001600160a01b03909116815260200161018d565b61025261024d366004611217565b6103f8565b60405161018d91906112c6565b6034546101c6565b6101ef610432565b61028261027d3660046112d8565b6104a1565b60405161018d9190611388565b610297610752565b60405161018d91906113d3565b6102b76102b2366004611450565b610906565b60405161018d919061148d565b6102d76102d23660046111eb565b610a8f565b60405161018d91906114ae565b6102ec610b1e565b60405161018d9190611503565b6101c6610307366004611515565b610cb0565b6013546601000000000000900462ffffff166101c6565b6103366103313660046111eb565b610dc3565b60405161018d9190611533565b610252610351366004611545565b610e8a565b6101c6610f40565b61022761036c366004611161565b6001600160e01b0319165f9081525f805160206116d383398151915260205260409020546001600160a01b031690565b6020805460408051828402810184019091528181526060929091828201828280156103ee57602002820191905f5260205f20905b81546001600160a01b031681526001909101906020018083116103d0575b5050505050905090565b6060610406868686856104a1565b83604051602001610418929190611578565b604051602081830303815290604052905095945050505050565b60605f5f805160206116d38339815191526002810180546040805160208084028201810190925282815293945083018282801561049657602002820191905f5260205f20905b81546001600160a01b03168152600190910190602001808311610478575b505050505091505090565b6104c360405180606001604052805f81526020015f8152602001606081525090565b5f6001600160a01b0316846001600160a01b03166338d52e0f6040518163ffffffff1660e01b8152600401602060405180830381865afa158015610509573d5f803e3d5ffd5b505050506040513d601f19601f8201168201806040525081019061052d91906115a1565b6001600160a01b03160361056457604051630390e1b560e01b81526001600160a01b03851660048201526024015b60405180910390fd5b60405163694afd4d60e11b8152600481018690526001600160a01b03838116602483015285915f91831690631dc7f52190829063d295fa9a90604401602060405180830381865afa1580156105bb573d5f803e3d5ffd5b505050506040513d601f19601f820116820180604052508101906105df91906115bc565b6040518263ffffffff1660e01b81526004016105fd91815260200190565b602060405180830381865afa158015610618573d5f803e3d5ffd5b505050506040513d601f19601f8201168201806040525081019061063c91906115bc565b9050305f61065461064c83610f64565b849089610fb6565b90505f6106c2836001600160a01b0316636260f55b6040518163ffffffff1660e01b8152600401602060405180830381865afa158015610696573d5f803e3d5ffd5b505050506040513d601f19601f820116820180604052508101906106ba91906115bc565b83908a610fb6565b6040805160028082526060820183529293505f92909160208301908036833701905050905082815f815181106106fa576106fa6115e7565b602002602001018181525050818160018151811061071a5761071a6115e7565b60200260200101818152505060405180606001604052808c81526020018681526020018281525096505050505050505b949350505050565b7fc8fcad8db84d3cc18b4c41d551ea0ee66dd599cde068d998e57d5e09332c131e546060905f805160206116d3833981519152908067ffffffffffffffff81111561079f5761079f6115d3565b6040519080825280602002602001820160405280156107e457816020015b604080518082019091525f8152606060208201528152602001906001900390816107bd5790505b5092505f5b81811015610900575f836002018281548110610807576108076115e7565b905f5260205f20015f9054906101000a90046001600160a01b0316905080858381518110610837576108376115e7565b6020908102919091018101516001600160a01b0392831690529082165f908152600186018252604090819020805482518185028101850190935280835291929091908301828280156108d257602002820191905f5260205f20905f905b82829054906101000a900460e01b6001600160e01b031916815260200190600401906020826003010492830192600103820291508084116108945790505b50505050508583815181106108e9576108e96115e7565b6020908102919091018101510152506001016107e9565b50505090565b61092760405180606001604052805f81526020015f81526020015f81525090565b5f3090505f836001600160a01b031663313ce5676040518163ffffffff1660e01b8152600401602060405180830381865afa158015610968573d5f803e3d5ffd5b505050506040513d601f19601f8201168201806040525081019061098c91906115fb565b60ff166012146109a15764e8d4a510006109a4565b60015b64ffffffffff1690505f610a2b670de0b6b3a7640000846001600160a01b0316636260f55b6040518163ffffffff1660e01b8152600401602060405180830381865afa1580156109f6573d5f803e3d5ffd5b505050506040513d601f19601f82011682018060405250810190610a1a91906115bc565b610a24858b61162f565b9190610ff1565b90505f610a4b670de0b6b3a7640000610a4386610f64565b849190610ff1565b90505f610a5f8261ffff8a16612710610ff1565b610a699083611646565b604080516060810182528b81526020810195909552840152509093505050509392505050565b6001600160a01b0381165f908152603660209081526040808320805482518185028101850190935280835260609492939192909184015b82821015610b13578382905f5260205f2090600302016040518060600160405290815f82015481526020016001820154815260200160028201548152505081526020019060010190610ac6565b505050509050919050565b6029546060905f9061ffff1667ffffffffffffffff811115610b4257610b426115d3565b604051908082528060200260200182016040528015610b6b578160200160208202803683370190505b5090505f8060025b60295461ffff16811015610be557610b8c60288261100c565b15610bcf5780848381518110610ba457610ba46115e7565b602090810291909101015281610bb981611659565b9250508280610bc790611659565b935050610bdd565b81610bd981611659565b9250505b600101610b73565b505f8267ffffffffffffffff811115610c0057610c006115d3565b604051908082528060200260200182016040528015610c29578160200160208202803683370190505b5090505f805b8551811015610ca557858181518110610c4a57610c4a6115e7565b60200260200101515f14610c9d57858181518110610c6a57610c6a6115e7565b6020026020010151838381518110610c8457610c846115e7565b602090810291909101015281610c9981611659565b9250505b600101610c2f565b509095945050505050565b6009546040516370a0823160e01b81523060048201525f916001600160a01b0316906370a0823190602401602060405180830381865afa158015610cf6573d5f803e3d5ffd5b505050506040513d601f19601f82011682018060405250810190610d1a91906115bc565b90505f826001811115610d2f57610d2f611671565b03610dbe5760025460408051637a12625d60e11b81529051670de0b6b3a7640000926001600160a01b03169163f424c4ba9160048083019260209291908290030181865afa158015610d83573d5f803e3d5ffd5b505050506040513d601f19601f82011682018060405250810190610da791906115bc565b610db1908361162f565b610dbb9190611685565b90505b919050565b6001600160a01b0381165f9081527fc8fcad8db84d3cc18b4c41d551ea0ee66dd599cde068d998e57d5e09332c131d602090815260409182902080548351818402810184019094528084526060935f805160206116d38339815191529390929190830182828015610e7d57602002820191905f5260205f20905f905b82829054906101000a900460e01b6001600160e01b03191681526020019060040190602082600301049283019260010382029150808411610e3f5790505b5050505050915050919050565b60605f610ef28686856001600160a01b03166338d52e0f6040518163ffffffff1660e01b8152600401602060405180830381865afa158015610ece573d5f803e3d5ffd5b505050506040513d601f19601f820116820180604052508101906102b291906115a1565b604080518251602080830191909152830151818301529082015160608201526001600160a01b038616608082015290915060a001604051602081830303815290604052915050949350505050565b602f546030545f91600291610f5591906116a4565b610f5f9190611685565b905090565b6040805160048152602481019091526020810180516001600160e01b0316636a57db9d60e11b1790525f90610f998382611030565b905080806020019051810190610faf91906115bc565b9392505050565b5f80610fcb8585670de0b6b3a7640000610ff1565b9050610fde8161ffff8516612710610ff1565b610fe89082611646565b95945050505050565b5f825f190484118302158202611005575f80fd5b5091020490565b600881901c5f90815260208390526040902054600160ff83161b1615155b92915050565b6060610faf83836040518060600160405280602581526020016116f36025913960605f80856001600160a01b03168560405161106c91906116b7565b5f60405180830381855afa9150503d805f81146110a4576040519150601f19603f3d011682016040523d82523d5f602084013e6110a9565b606091505b50915091506110ba868383876110c4565b9695505050505050565b606083156111325782515f0361112b576001600160a01b0385163b61112b5760405162461bcd60e51b815260206004820152601d60248201527f416464726573733a2063616c6c20746f206e6f6e2d636f6e7472616374000000604482015260640161055b565b508161074a565b61074a83838151156111475781518083602001fd5b8060405162461bcd60e51b815260040161055b91906112c6565b5f60208284031215611171575f80fd5b81356001600160e01b031981168114610faf575f80fd5b602080825282518282018190525f9190848201906040850190845b818110156111c85783516001600160a01b0316835292840192918401916001016111a3565b50909695505050505050565b6001600160a01b03811681146111e8575f80fd5b50565b5f602082840312156111fb575f80fd5b8135610faf816111d4565b803561ffff81168114610dbe575f80fd5b5f805f805f60a0868803121561122b575f80fd5b85359450602086013561123d816111d4565b935061124b60408701611206565b9250606086013561125b816111d4565b9150608086013561126b816111d4565b809150509295509295909350565b5f5b8381101561129357818101518382015260200161127b565b50505f910152565b5f81518084526112b2816020860160208601611279565b601f01601f19169290920160200192915050565b602081525f610faf602083018461129b565b5f805f80608085870312156112eb575f80fd5b8435935060208501356112fd816111d4565b925061130b60408601611206565b9150606085013561131b816111d4565b939692955090935050565b5f815180845260208085019450602084015f5b8381101561135557815187529582019590820190600101611339565b509495945050505050565b80518252602081015160208301525f60408201516060604085015261074a6060850182611326565b602081525f610faf6020830184611360565b5f815180845260208085019450602084015f5b838110156113555781516001600160e01b031916875295820195908201906001016113ad565b5f60208083018184528085518083526040925060408601915060408160051b8701018488015f5b8381101561144257888303603f19018552815180516001600160a01b0316845287015187840187905261142f8785018261139a565b95880195935050908601906001016113fa565b509098975050505050505050565b5f805f60608486031215611462575f80fd5b8335925061147260208501611206565b91506040840135611482816111d4565b809150509250925092565b8151815260208083015190820152604080830151908201526060810161102a565b602080825282518282018190525f9190848201906040850190845b818110156111c8576114f08385518051825260208082015190830152604090810151910152565b92840192606092909201916001016114c9565b602081525f610faf6020830184611326565b5f60208284031215611525575f80fd5b813560028110610faf575f80fd5b602081525f610faf602083018461139a565b5f805f8060808587031215611558575f80fd5b8435935061156860208601611206565b9250604085013561130b816111d4565b604081525f61158a6040830185611360565b905060018060a01b03831660208301529392505050565b5f602082840312156115b1575f80fd5b8151610faf816111d4565b5f602082840312156115cc575f80fd5b5051919050565b634e487b7160e01b5f52604160045260245ffd5b634e487b7160e01b5f52603260045260245ffd5b5f6020828403121561160b575f80fd5b815160ff81168114610faf575f80fd5b634e487b7160e01b5f52601160045260245ffd5b808202811582820484141761102a5761102a61161b565b8181038181111561102a5761102a61161b565b5f6001820161166a5761166a61161b565b5060010190565b634e487b7160e01b5f52602160045260245ffd5b5f8261169f57634e487b7160e01b5f52601260045260245ffd5b500490565b8082018082111561102a5761102a61161b565b5f82516116c8818460208701611279565b919091019291505056fec8fcad8db84d3cc18b4c41d551ea0ee66dd599cde068d998e57d5e09332c131c416464726573733a206c6f772d6c6576656c207374617469632063616c6c206661696c6564a2646970667358221220561776da7f545ab0c87b6ad5679559d90d1a0eb890107d80b7a98abc1664a87d64736f6c63430008180033","linkReferences":{}},"methodIdentifiers":{"facetAddress(bytes4)":"cdffacc6","facetAddresses()":"52ef6b2c","facetFunctionSelectors(address)":"adfca15e","facets()":"7a0ed627","getAPR()":"c89d5b8b","getAdminFee()":"2a905ccc","getDefaultSlippage()":"1a82363e","getDeposits(address)":"94f649dd","getEnabledSwitch()":"089e63f0","getLSDs()":"38ab35d4","getMintData(uint256,uint16,address,address)":"c3e2450d","getPausedContracts()":"a3e4ed14","getProtocolFee()":"a5a41031","getRedeemData(uint256,address,uint16,address,address)":"43596609","getRewardsStartTime()":"4a6fd8e1","getStakingRewardsUSDC()":"1dc11195","ozTokens(address)":"423f0b91","quoteAmountsIn(uint256,uint16,address)":"8cfae633","quoteAmountsOut(uint256,address,uint16,address)":"7226e48b","supportsInterface(bytes4)":"01ffc9a7","totalUnderlying(uint8)":"a4fc284b"},"id":16}