{
  "abi": [
    {
      "inputs": [
        {
          "internalType": "bytes4",
          "name": "_functionSelector",
          "type": "bytes4"
        }
      ],
      "name": "facetAddress",
      "outputs": [
        {
          "internalType": "address",
          "name": "facetAddress_",
          "type": "address"
        }
      ],
      "stateMutability": "view",
      "type": "function"
    },
    {
      "inputs": [],
      "name": "facetAddresses",
      "outputs": [
        {
          "internalType": "address[]",
          "name": "facetAddresses_",
          "type": "address[]"
        }
      ],
      "stateMutability": "view",
      "type": "function"
    },
    {
      "inputs": [
        {
          "internalType": "address",
          "name": "_facet",
          "type": "address"
        }
      ],
      "name": "facetFunctionSelectors",
      "outputs": [
        {
          "internalType": "bytes4[]",
          "name": "facetFunctionSelectors_",
          "type": "bytes4[]"
        }
      ],
      "stateMutability": "view",
      "type": "function"
    },
    {
      "inputs": [],
      "name": "facets",
      "outputs": [
        {
          "components": [
            {
              "internalType": "address",
              "name": "facetAddress",
              "type": "address"
            },
            {
              "internalType": "bytes4[]",
              "name": "functionSelectors",
              "type": "bytes4[]"
            }
          ],
          "internalType": "struct IDiamondLoupe.Facet[]",
          "name": "facets_",
          "type": "tuple[]"
        }
      ],
      "stateMutability": "view",
      "type": "function"
    },
    {
      "inputs": [],
      "name": "getDefaultSlippage",
      "outputs": [
        {
          "internalType": "uint16",
          "name": "",
          "type": "uint16"
        }
      ],
      "stateMutability": "view",
      "type": "function"
    },
    {
      "inputs": [],
      "name": "getLSDs",
      "outputs": [
        {
          "internalType": "address[]",
          "name": "",
          "type": "address[]"
        }
      ],
      "stateMutability": "view",
      "type": "function"
    },
    {
      "inputs": [
        {
          "internalType": "uint256",
          "name": "amountIn_",
          "type": "uint256"
        },
        {
          "internalType": "address",
          "name": "underlying_",
          "type": "address"
        },
        {
          "internalType": "uint16",
          "name": "slippage_",
          "type": "uint16"
        },
        {
          "internalType": "address",
          "name": "owner_",
          "type": "address"
        },
        {
          "internalType": "address",
          "name": "receiver_",
          "type": "address"
        }
      ],
      "name": "getMintData",
      "outputs": [
        {
          "internalType": "bytes",
          "name": "",
          "type": "bytes"
        }
      ],
      "stateMutability": "view",
      "type": "function"
    },
    {
      "inputs": [],
      "name": "getProtocolFee",
      "outputs": [
        {
          "internalType": "uint256",
          "name": "",
          "type": "uint256"
        }
      ],
      "stateMutability": "view",
      "type": "function"
    },
    {
      "inputs": [
        {
          "internalType": "uint256",
          "name": "ozAmountIn_",
          "type": "uint256"
        },
        {
          "internalType": "address",
          "name": "ozToken_",
          "type": "address"
        },
        {
          "internalType": "uint16",
          "name": "slippage_",
          "type": "uint16"
        },
        {
          "internalType": "address",
          "name": "receiver_",
          "type": "address"
        }
      ],
      "name": "getRedeemData",
      "outputs": [
        {
          "internalType": "bytes",
          "name": "",
          "type": "bytes"
        }
      ],
      "stateMutability": "view",
      "type": "function"
    },
    {
      "inputs": [
        {
          "internalType": "address",
          "name": "underlying_",
          "type": "address"
        }
      ],
      "name": "ozTokens",
      "outputs": [
        {
          "internalType": "address",
          "name": "",
          "type": "address"
        }
      ],
      "stateMutability": "view",
      "type": "function"
    },
    {
      "inputs": [
        {
          "internalType": "uint256",
          "name": "amountIn_",
          "type": "uint256"
        },
        {
          "internalType": "address",
          "name": "underlying_",
          "type": "address"
        },
        {
          "internalType": "uint16",
          "name": "slippage_",
          "type": "uint16"
        }
      ],
      "name": "quoteAmountsIn",
      "outputs": [
        {
          "components": [
            {
              "internalType": "uint256",
              "name": "amountIn",
              "type": "uint256"
            },
            {
              "internalType": "uint256[]",
              "name": "minAmountsOut",
              "type": "uint256[]"
            }
          ],
          "internalType": "struct AmountsIn",
          "name": "",
          "type": "tuple"
        }
      ],
      "stateMutability": "view",
      "type": "function"
    },
    {
      "inputs": [
        {
          "internalType": "uint256",
          "name": "ozAmountIn_",
          "type": "uint256"
        },
        {
          "internalType": "address",
          "name": "ozToken_",
          "type": "address"
        },
        {
          "internalType": "uint16",
          "name": "slippage_",
          "type": "uint16"
        }
      ],
      "name": "quoteAmountsOut",
      "outputs": [
        {
          "components": [
            {
              "internalType": "uint256",
              "name": "ozAmountIn",
              "type": "uint256"
            },
            {
              "internalType": "uint256",
              "name": "amountInReth",
              "type": "uint256"
            },
            {
              "internalType": "uint256[]",
              "name": "minAmountsOut",
              "type": "uint256[]"
            }
          ],
          "internalType": "struct AmountsOut",
          "name": "",
          "type": "tuple"
        }
      ],
      "stateMutability": "view",
      "type": "function"
    },
    {
      "inputs": [
        {
          "internalType": "bytes4",
          "name": "_interfaceId",
          "type": "bytes4"
        }
      ],
      "name": "supportsInterface",
      "outputs": [
        {
          "internalType": "bool",
          "name": "",
          "type": "bool"
        }
      ],
      "stateMutability": "view",
      "type": "function"
    },
    {
      "inputs": [
        {
          "internalType": "enum Asset",
          "name": "type_",
          "type": "uint8"
        }
      ],
      "name": "totalUnderlying",
      "outputs": [
        {
          "internalType": "uint256",
          "name": "total",
          "type": "uint256"
        }
      ],
      "stateMutability": "view",
      "type": "function"
    }
  ],
  "bytecode": {
    "object": "0x608060405234801561001057600080fd5b50611387806100206000396000f3fe608060405234801561001057600080fd5b50600436106100ea5760003560e01c80637a0ed6271161008c578063a5a4103111610066578063a5a4103114610268578063adfca15e14610275578063cdffacc614610295578063da4e2c3e146102d557600080fd5b80637a0ed62714610212578063a49709b614610227578063a4fc284b1461024757600080fd5b806338ab35d4116100c857806338ab35d414610191578063423f0b91146101a65780634d2c1487146101ea57806352ef6b2c1461020a57600080fd5b806301ffc9a7146100ef5780631a82363e146101505780632e19905c14610171575b600080fd5b61013b6100fd366004610e01565b6001600160e01b03191660009081527fc8fcad8db84d3cc18b4c41d551ea0ee66dd599cde068d998e57d5e09332c131f602052604090205460ff1690565b60405190151581526020015b60405180910390f35b600754600160a01b900461ffff1660405161ffff9091168152602001610147565b61018461017f366004610e54565b6102e8565b6040516101479190610ef1565b610199610321565b6040516101479190610f04565b6101d26101b4366004610f51565b6001600160a01b039081166000908152600b60205260409020541690565b6040516001600160a01b039091168152602001610147565b6101fd6101f8366004610f6c565b610386565b604051610147919061100c565b610199610599565b61021a61060c565b6040516101479190611059565b61023a610235366004610f6c565b6107d7565b60405161014791906110f5565b61025a610255366004611108565b6109eb565b604051908152602001610147565b60155462ffffff1661025a565b610288610283366004610f51565b610b04565b6040516101479190611129565b6101d26102a3366004610e01565b6001600160e01b031916600090815260008051602061130d83398151915260205260409020546001600160a01b031690565b6101846102e336600461113c565b610bd0565b60606102f5858585610386565b8260405160200161030792919061119a565b60405160208183030381529060405290505b949350505050565b6060600060220180548060200260200160405190810160405280929190818152602001828054801561037c57602002820191906000526020600020905b81546001600160a01b0316815260019091019060200180831161035e575b5050505050905090565b6103aa60405180606001604052806000815260200160008152602001606081525090565b604051630a28a47760e01b81526004810185905283906000906001600160a01b03831690631dc7f521908290630a28a47790602401602060405180830381865afa1580156103fc573d6000803e3d6000fd5b505050506040513d601f19601f8201168201806040525081019061042091906111c4565b6040518263ffffffff1660e01b815260040161043e91815260200190565b602060405180830381865afa15801561045b573d6000803e3d6000fd5b505050506040513d601f19601f8201168201806040525081019061047f91906111c4565b905030600061049861049083610c0b565b849088610c5e565b90506000610509836001600160a01b0316636260f55b6040518163ffffffff1660e01b8152600401602060405180830381865afa1580156104dd573d6000803e3d6000fd5b505050506040513d601f19601f8201168201806040525081019061050191906111c4565b839089610c5e565b60408051600280825260608201835292935060009290916020830190803683370190505090508281600081518110610543576105436111f3565b6020026020010181815250508181600181518110610563576105636111f3565b60200260200101818152505060405180606001604052808b81526020018681526020018281525096505050505050509392505050565b6060600060008051602061130d8339815191526002810180546040805160208084028201810190925282815293945083018282801561060157602002820191906000526020600020905b81546001600160a01b031681526001909101906020018083116105e3575b505050505091505090565b7fc8fcad8db84d3cc18b4c41d551ea0ee66dd599cde068d998e57d5e09332c131e5460609060008051602061130d833981519152908067ffffffffffffffff81111561065a5761065a6111dd565b6040519080825280602002602001820160405280156106a057816020015b6040805180820190915260008152606060208201528152602001906001900390816106785790505b50925060005b818110156107d15760008360020182815481106106c5576106c56111f3565b9060005260206000200160009054906101000a90046001600160a01b03169050808583815181106106f8576106f86111f3565b6020908102919091018101516001600160a01b03928316905290821660009081526001860182526040908190208054825181850281018501909352808352919290919083018282801561079757602002820191906000526020600020906000905b82829054906101000a900460e01b6001600160e01b031916815260200190600401906020826003010492830192600103820291508084116107595790505b50505050508583815181106107ae576107ae6111f3565b6020026020010151602001819052505080806107c99061121f565b9150506106a6565b50505090565b604080518082018252600080825260606020808401829052845160028082529281018652939430949291830190803683370190505090506000856001600160a01b031663313ce5676040518163ffffffff1660e01b8152600401602060405180830381865afa15801561084e573d6000803e3d6000fd5b505050506040513d601f19601f820116820180604052508101906108729190611238565b60ff166012146108905761088b8764e8d4a5100061125b565b610892565b865b905060006040518060400160405280856001600160a01b0316636260f55b6040518163ffffffff1660e01b8152600401602060405180830381865afa1580156108df573d6000803e3d6000fd5b505050506040513d601f19601f8201168201806040525081019061090391906111c4565b815260200161091186610c0b565b90529050600260005b818110156109cc57600061097f670de0b6b3a7640000858460028110610942576109426111f3565b602002015184156109765788610959600187611272565b81518110610969576109696111f3565b6020026020010151610978565b875b9190610c9a565b90506109928161ffff8b16612710610c9a565b61099c9082611272565b8683815181106109ae576109ae6111f3565b602090810291909101015250806109c48161121f565b91505061091a565b5050604080518082019091529788525050602086015250929392505050565b6009546040516370a0823160e01b81523060048201526000916001600160a01b0316906370a0823190602401602060405180830381865afa158015610a34573d6000803e3d6000fd5b505050506040513d601f19601f82011682018060405250810190610a5891906111c4565b90506000826001811115610a6e57610a6e611285565b03610aff5760025460408051637a12625d60e11b81529051670de0b6b3a7640000926001600160a01b03169163f424c4ba9160048083019260209291908290030181865afa158015610ac4573d6000803e3d6000fd5b505050506040513d601f19601f82011682018060405250810190610ae891906111c4565b610af2908361125b565b610afc919061129b565b90505b919050565b6001600160a01b03811660009081527fc8fcad8db84d3cc18b4c41d551ea0ee66dd599cde068d998e57d5e09332c131d6020908152604091829020805483518184028101840190945280845260609360008051602061130d8339815191529390929190830182828015610bc357602002820191906000526020600020906000905b82829054906101000a900460e01b6001600160e01b03191681526020019060040190602082600301049283019260010382029150808411610b855790505b5050505050915050919050565b6060610bdd8686866107d7565b8383604051602001610bf1939291906112bd565b604051602081830303815290604052905095945050505050565b6040805160048152602481019091526020810180516001600160e01b0316636a57db9d60e11b179052600090610c418382610cb8565b905080806020019051810190610c5791906111c4565b9392505050565b600080610c748585670de0b6b3a7640000610c9a565b9050610c878161ffff8516612710610c9a565b610c919082611272565b95945050505050565b6000826000190484118302158202610cb157600080fd5b5091020490565b6060610cdd838360405180606001604052806025815260200161132d60259139610ce6565b90505b92915050565b6060600080856001600160a01b031685604051610d0391906112f0565b600060405180830381855afa9150503d8060008114610d3e576040519150601f19603f3d011682016040523d82523d6000602084013e610d43565b606091505b5091509150610d5486838387610d5e565b9695505050505050565b60608315610dd2578251600003610dcb576001600160a01b0385163b610dcb5760405162461bcd60e51b815260206004820152601d60248201527f416464726573733a2063616c6c20746f206e6f6e2d636f6e747261637400000060448201526064015b60405180910390fd5b5081610319565b6103198383815115610de75781518083602001fd5b8060405162461bcd60e51b8152600401610dc29190610ef1565b600060208284031215610e1357600080fd5b81356001600160e01b031981168114610c5757600080fd5b80356001600160a01b0381168114610aff57600080fd5b803561ffff81168114610aff57600080fd5b60008060008060808587031215610e6a57600080fd5b84359350610e7a60208601610e2b565b9250610e8860408601610e42565b9150610e9660608601610e2b565b905092959194509250565b60005b83811015610ebc578181015183820152602001610ea4565b50506000910152565b60008151808452610edd816020860160208601610ea1565b601f01601f19169290920160200192915050565b602081526000610cdd6020830184610ec5565b6020808252825182820181905260009190848201906040850190845b81811015610f455783516001600160a01b031683529284019291840191600101610f20565b50909695505050505050565b600060208284031215610f6357600080fd5b610cdd82610e2b565b600080600060608486031215610f8157600080fd5b83359250610f9160208501610e2b565b9150610f9f60408501610e42565b90509250925092565b600081518084526020808501945080840160005b83811015610fd857815187529582019590820190600101610fbc565b509495945050505050565b805182526020810151602083015260006040820151606060408501526103196060850182610fa8565b602081526000610cdd6020830184610fe3565b600081518084526020808501945080840160005b83811015610fd85781516001600160e01b03191687529582019590820190600101611033565b60006020808301818452808551808352604092508286019150828160051b87010184880160005b838110156110c857888303603f19018552815180516001600160a01b031684528701518784018790526110b58785018261101f565b9588019593505090860190600101611080565b509098975050505050505050565b8051825260006020820151604060208501526103196040850182610fa8565b602081526000610cdd60208301846110d6565b60006020828403121561111a57600080fd5b813560028110610c5757600080fd5b602081526000610cdd602083018461101f565b600080600080600060a0868803121561115457600080fd5b8535945061116460208701610e2b565b935061117260408701610e42565b925061118060608701610e2b565b915061118e60808701610e2b565b90509295509295909350565b6040815260006111ad6040830185610fe3565b905060018060a01b03831660208301529392505050565b6000602082840312156111d657600080fd5b5051919050565b634e487b7160e01b600052604160045260246000fd5b634e487b7160e01b600052603260045260246000fd5b634e487b7160e01b600052601160045260246000fd5b60006001820161123157611231611209565b5060010190565b60006020828403121561124a57600080fd5b815160ff81168114610c5757600080fd5b8082028115828204841417610ce057610ce0611209565b81810381811115610ce057610ce0611209565b634e487b7160e01b600052602160045260246000fd5b6000826112b857634e487b7160e01b600052601260045260246000fd5b500490565b6060815260006112d060608301866110d6565b6001600160a01b0394851660208401529290931660409091015292915050565b60008251611302818460208701610ea1565b919091019291505056fec8fcad8db84d3cc18b4c41d551ea0ee66dd599cde068d998e57d5e09332c131c416464726573733a206c6f772d6c6576656c207374617469632063616c6c206661696c6564a26469706673582212200f94bb84710e017f8190daaa04c4fc164e7a3c9094dcb3107a6725f8ee4250ba64736f6c63430008150033",
    "linkReferences": {}
  },
  "methodIdentifiers": {
    "facetAddress(bytes4)": "cdffacc6",
    "facetAddresses()": "52ef6b2c",
    "facetFunctionSelectors(address)": "adfca15e",
    "facets()": "7a0ed627",
    "getDefaultSlippage()": "1a82363e",
    "getLSDs()": "38ab35d4",
    "getMintData(uint256,address,uint16,address,address)": "da4e2c3e",
    "getProtocolFee()": "a5a41031",
    "getRedeemData(uint256,address,uint16,address)": "2e19905c",
    "ozTokens(address)": "423f0b91",
    "quoteAmountsIn(uint256,address,uint16)": "a49709b6",
    "quoteAmountsOut(uint256,address,uint16)": "4d2c1487",
    "supportsInterface(bytes4)": "01ffc9a7",
    "totalUnderlying(uint8)": "a4fc284b"
  },
  "id": 16
}