{
  "abi": [
    {
      "inputs": [
        {
          "internalType": "bytes4",
          "name": "_functionSelector",
          "type": "bytes4"
        }
      ],
      "name": "facetAddress",
      "outputs": [
        {
          "internalType": "address",
          "name": "facetAddress_",
          "type": "address"
        }
      ],
      "stateMutability": "view",
      "type": "function"
    },
    {
      "inputs": [],
      "name": "facetAddresses",
      "outputs": [
        {
          "internalType": "address[]",
          "name": "facetAddresses_",
          "type": "address[]"
        }
      ],
      "stateMutability": "view",
      "type": "function"
    },
    {
      "inputs": [
        {
          "internalType": "address",
          "name": "_facet",
          "type": "address"
        }
      ],
      "name": "facetFunctionSelectors",
      "outputs": [
        {
          "internalType": "bytes4[]",
          "name": "facetFunctionSelectors_",
          "type": "bytes4[]"
        }
      ],
      "stateMutability": "view",
      "type": "function"
    },
    {
      "inputs": [],
      "name": "facets",
      "outputs": [
        {
          "components": [
            {
              "internalType": "address",
              "name": "facetAddress",
              "type": "address"
            },
            {
              "internalType": "bytes4[]",
              "name": "functionSelectors",
              "type": "bytes4[]"
            }
          ],
          "internalType": "struct IDiamondLoupe.Facet[]",
          "name": "facets_",
          "type": "tuple[]"
        }
      ],
      "stateMutability": "view",
      "type": "function"
    },
    {
      "inputs": [],
      "name": "getAdminFee",
      "outputs": [
        {
          "internalType": "uint256",
          "name": "",
          "type": "uint256"
        }
      ],
      "stateMutability": "view",
      "type": "function"
    },
    {
      "inputs": [],
      "name": "getDefaultSlippage",
      "outputs": [
        {
          "internalType": "uint16",
          "name": "",
          "type": "uint16"
        }
      ],
      "stateMutability": "view",
      "type": "function"
    },
    {
      "inputs": [],
      "name": "getEnabledSwitch",
      "outputs": [
        {
          "internalType": "bool",
          "name": "",
          "type": "bool"
        }
      ],
      "stateMutability": "view",
      "type": "function"
    },
    {
      "inputs": [],
      "name": "getLSDs",
      "outputs": [
        {
          "internalType": "address[]",
          "name": "",
          "type": "address[]"
        }
      ],
      "stateMutability": "view",
      "type": "function"
    },
    {
      "inputs": [
        {
          "internalType": "uint256",
          "name": "amountIn_",
          "type": "uint256"
        },
        {
          "internalType": "address",
          "name": "underlying_",
          "type": "address"
        },
        {
          "internalType": "uint16",
          "name": "slippage_",
          "type": "uint16"
        },
        {
          "internalType": "address",
          "name": "receiver_",
          "type": "address"
        }
      ],
      "name": "getMintData",
      "outputs": [
        {
          "internalType": "bytes",
          "name": "",
          "type": "bytes"
        }
      ],
      "stateMutability": "view",
      "type": "function"
    },
    {
      "inputs": [],
      "name": "getProtocolFee",
      "outputs": [
        {
          "internalType": "uint256",
          "name": "",
          "type": "uint256"
        }
      ],
      "stateMutability": "view",
      "type": "function"
    },
    {
      "inputs": [
        {
          "internalType": "uint256",
          "name": "ozAmountIn_",
          "type": "uint256"
        },
        {
          "internalType": "address",
          "name": "ozToken_",
          "type": "address"
        },
        {
          "internalType": "uint16",
          "name": "slippage_",
          "type": "uint16"
        },
        {
          "internalType": "address",
          "name": "receiver_",
          "type": "address"
        }
      ],
      "name": "getRedeemData",
      "outputs": [
        {
          "internalType": "bytes",
          "name": "",
          "type": "bytes"
        }
      ],
      "stateMutability": "view",
      "type": "function"
    },
    {
      "inputs": [
        {
          "internalType": "address",
          "name": "underlying_",
          "type": "address"
        }
      ],
      "name": "ozTokens",
      "outputs": [
        {
          "internalType": "address",
          "name": "",
          "type": "address"
        }
      ],
      "stateMutability": "view",
      "type": "function"
    },
    {
      "inputs": [
        {
          "internalType": "uint256",
          "name": "amountIn_",
          "type": "uint256"
        },
        {
          "internalType": "address",
          "name": "underlying_",
          "type": "address"
        },
        {
          "internalType": "uint16",
          "name": "slippage_",
          "type": "uint16"
        }
      ],
      "name": "quoteAmountsIn",
      "outputs": [
        {
          "components": [
            {
              "internalType": "uint256",
              "name": "amountIn",
              "type": "uint256"
            },
            {
              "internalType": "uint256[]",
              "name": "minAmountsOut",
              "type": "uint256[]"
            }
          ],
          "internalType": "struct AmountsIn",
          "name": "",
          "type": "tuple"
        }
      ],
      "stateMutability": "view",
      "type": "function"
    },
    {
      "inputs": [
        {
          "internalType": "uint256",
          "name": "ozAmountIn_",
          "type": "uint256"
        },
        {
          "internalType": "address",
          "name": "ozToken_",
          "type": "address"
        },
        {
          "internalType": "uint16",
          "name": "slippage_",
          "type": "uint16"
        }
      ],
      "name": "quoteAmountsOut",
      "outputs": [
        {
          "components": [
            {
              "internalType": "uint256",
              "name": "ozAmountIn",
              "type": "uint256"
            },
            {
              "internalType": "uint256",
              "name": "amountInReth",
              "type": "uint256"
            },
            {
              "internalType": "uint256[]",
              "name": "minAmountsOut",
              "type": "uint256[]"
            }
          ],
          "internalType": "struct AmountsOut",
          "name": "",
          "type": "tuple"
        }
      ],
      "stateMutability": "view",
      "type": "function"
    },
    {
      "inputs": [
        {
          "internalType": "bytes4",
          "name": "_interfaceId",
          "type": "bytes4"
        }
      ],
      "name": "supportsInterface",
      "outputs": [
        {
          "internalType": "bool",
          "name": "",
          "type": "bool"
        }
      ],
      "stateMutability": "view",
      "type": "function"
    },
    {
      "inputs": [
        {
          "internalType": "enum Asset",
          "name": "type_",
          "type": "uint8"
        }
      ],
      "name": "totalUnderlying",
      "outputs": [
        {
          "internalType": "uint256",
          "name": "total",
          "type": "uint256"
        }
      ],
      "stateMutability": "view",
      "type": "function"
    }
  ],
  "bytecode": {
    "object": "0x608060405234801561001057600080fd5b50611320806100206000396000f3fe608060405234801561001057600080fd5b50600436106101005760003560e01c806352ef6b2c11610097578063a4fc284b11610066578063a4fc284b14610298578063a5a41031146102ab578063adfca15e146102c2578063cdffacc6146102e257600080fd5b806352ef6b2c14610248578063635d12cc146102505780637a0ed62714610263578063a49709b61461027857600080fd5b80632e19905c116100d35780632e19905c146101af57806338ab35d4146101cf578063423f0b91146101e45780634d2c14871461022857600080fd5b806301ffc9a714610105578063089e63f0146101665780631a82363e146101715780632a905ccc14610192575b600080fd5b610151610113366004610e18565b6001600160e01b03191660009081527fc8fcad8db84d3cc18b4c41d551ea0ee66dd599cde068d998e57d5e09332c131f602052604090205460ff1690565b60405190151581526020015b60405180910390f35b602a5460ff16610151565b600754600160a01b900461ffff1660405161ffff909116815260200161015d565b601f54600160a01b900461ffff165b60405190815260200161015d565b6101c26101bd366004610e6b565b610322565b60405161015d9190610f08565b6101d761035b565b60405161015d9190610f1b565b6102106101f2366004610f68565b6001600160a01b039081166000908152600b60205260409020541690565b6040516001600160a01b03909116815260200161015d565b61023b610236366004610f83565b6103b9565b60405161015d9190611023565b6101d76105cc565b6101c261025e366004610e6b565b61063f565b61026b61065e565b60405161015d9190611070565b61028b610286366004610f83565b610829565b60405161015d919061110c565b6101a16102a636600461111f565b610a3d565b6013546601000000000000900462ffffff166101a1565b6102d56102d0366004610f68565b610b56565b60405161015d9190611140565b6102106102f0366004610e18565b6001600160e01b03191660009081526000805160206112a683398151915260205260409020546001600160a01b031690565b606061032f8585856103b9565b82604051602001610341929190611153565b60405160208183030381529060405290505b949350505050565b6020805460408051828402810184019091528181526060929091828201828280156103af57602002820191906000526020600020905b81546001600160a01b03168152600190910190602001808311610391575b5050505050905090565b6103dd60405180606001604052806000815260200160008152602001606081525090565b604051630a28a47760e01b81526004810185905283906000906001600160a01b03831690631dc7f521908290630a28a47790602401602060405180830381865afa15801561042f573d6000803e3d6000fd5b505050506040513d601f19601f82011682018060405250810190610453919061117d565b6040518263ffffffff1660e01b815260040161047191815260200190565b602060405180830381865afa15801561048e573d6000803e3d6000fd5b505050506040513d601f19601f820116820180604052508101906104b2919061117d565b90503060006104cb6104c383610c22565b849088610c75565b9050600061053c836001600160a01b0316636260f55b6040518163ffffffff1660e01b8152600401602060405180830381865afa158015610510573d6000803e3d6000fd5b505050506040513d601f19601f82011682018060405250810190610534919061117d565b839089610c75565b60408051600280825260608201835292935060009290916020830190803683370190505090508281600081518110610576576105766111ac565b6020026020010181815250508181600181518110610596576105966111ac565b60200260200101818152505060405180606001604052808b81526020018681526020018281525096505050505050509392505050565b606060006000805160206112a68339815191526002810180546040805160208084028201810190925282815293945083018282801561063457602002820191906000526020600020905b81546001600160a01b03168152600190910190602001808311610616575b505050505091505090565b606061064c858585610829565b826040516020016103419291906111c2565b7fc8fcad8db84d3cc18b4c41d551ea0ee66dd599cde068d998e57d5e09332c131e546060906000805160206112a6833981519152908067ffffffffffffffff8111156106ac576106ac611196565b6040519080825280602002602001820160405280156106f257816020015b6040805180820190915260008152606060208201528152602001906001900390816106ca5790505b50925060005b81811015610823576000836002018281548110610717576107176111ac565b9060005260206000200160009054906101000a90046001600160a01b031690508085838151811061074a5761074a6111ac565b6020908102919091018101516001600160a01b0392831690529082166000908152600186018252604090819020805482518185028101850190935280835291929091908301828280156107e957602002820191906000526020600020906000905b82829054906101000a900460e01b6001600160e01b031916815260200190600401906020826003010492830192600103820291508084116107ab5790505b5050505050858381518110610800576108006111ac565b60200260200101516020018190525050808061081b906111eb565b9150506106f8565b50505090565b604080518082018252600080825260606020808401829052845160028082529281018652939430949291830190803683370190505090506000856001600160a01b031663313ce5676040518163ffffffff1660e01b8152600401602060405180830381865afa1580156108a0573d6000803e3d6000fd5b505050506040513d601f19601f820116820180604052508101906108c49190611204565b60ff166012146108e2576108dd8764e8d4a51000611227565b6108e4565b865b905060006040518060400160405280856001600160a01b0316636260f55b6040518163ffffffff1660e01b8152600401602060405180830381865afa158015610931573d6000803e3d6000fd5b505050506040513d601f19601f82011682018060405250810190610955919061117d565b815260200161096386610c22565b90529050600260005b81811015610a1e5760006109d1670de0b6b3a7640000858460028110610994576109946111ac565b602002015184156109c857886109ab60018761123e565b815181106109bb576109bb6111ac565b60200260200101516109ca565b875b9190610cb1565b90506109e48161ffff8b16612710610cb1565b6109ee908261123e565b868381518110610a0057610a006111ac565b60209081029190910101525080610a16816111eb565b91505061096c565b5050604080518082019091529788525050602086015250929392505050565b6009546040516370a0823160e01b81523060048201526000916001600160a01b0316906370a0823190602401602060405180830381865afa158015610a86573d6000803e3d6000fd5b505050506040513d601f19601f82011682018060405250810190610aaa919061117d565b90506000826001811115610ac057610ac0611251565b03610b515760025460408051637a12625d60e11b81529051670de0b6b3a7640000926001600160a01b03169163f424c4ba9160048083019260209291908290030181865afa158015610b16573d6000803e3d6000fd5b505050506040513d601f19601f82011682018060405250810190610b3a919061117d565b610b449083611227565b610b4e9190611267565b90505b919050565b6001600160a01b03811660009081527fc8fcad8db84d3cc18b4c41d551ea0ee66dd599cde068d998e57d5e09332c131d602090815260409182902080548351818402810184019094528084526060936000805160206112a68339815191529390929190830182828015610c1557602002820191906000526020600020906000905b82829054906101000a900460e01b6001600160e01b03191681526020019060040190602082600301049283019260010382029150808411610bd75790505b5050505050915050919050565b6040805160048152602481019091526020810180516001600160e01b0316636a57db9d60e11b179052600090610c588382610ccf565b905080806020019051810190610c6e919061117d565b9392505050565b600080610c8b8585670de0b6b3a7640000610cb1565b9050610c9e8161ffff8516612710610cb1565b610ca8908261123e565b95945050505050565b6000826000190484118302158202610cc857600080fd5b5091020490565b6060610cf483836040518060600160405280602581526020016112c660259139610cfd565b90505b92915050565b6060600080856001600160a01b031685604051610d1a9190611289565b600060405180830381855afa9150503d8060008114610d55576040519150601f19603f3d011682016040523d82523d6000602084013e610d5a565b606091505b5091509150610d6b86838387610d75565b9695505050505050565b60608315610de9578251600003610de2576001600160a01b0385163b610de25760405162461bcd60e51b815260206004820152601d60248201527f416464726573733a2063616c6c20746f206e6f6e2d636f6e747261637400000060448201526064015b60405180910390fd5b5081610353565b6103538383815115610dfe5781518083602001fd5b8060405162461bcd60e51b8152600401610dd99190610f08565b600060208284031215610e2a57600080fd5b81356001600160e01b031981168114610c6e57600080fd5b80356001600160a01b0381168114610b5157600080fd5b803561ffff81168114610b5157600080fd5b60008060008060808587031215610e8157600080fd5b84359350610e9160208601610e42565b9250610e9f60408601610e59565b9150610ead60608601610e42565b905092959194509250565b60005b83811015610ed3578181015183820152602001610ebb565b50506000910152565b60008151808452610ef4816020860160208601610eb8565b601f01601f19169290920160200192915050565b602081526000610cf46020830184610edc565b6020808252825182820181905260009190848201906040850190845b81811015610f5c5783516001600160a01b031683529284019291840191600101610f37565b50909695505050505050565b600060208284031215610f7a57600080fd5b610cf482610e42565b600080600060608486031215610f9857600080fd5b83359250610fa860208501610e42565b9150610fb660408501610e59565b90509250925092565b600081518084526020808501945080840160005b83811015610fef57815187529582019590820190600101610fd3565b509495945050505050565b805182526020810151602083015260006040820151606060408501526103536060850182610fbf565b602081526000610cf46020830184610ffa565b600081518084526020808501945080840160005b83811015610fef5781516001600160e01b0319168752958201959082019060010161104a565b60006020808301818452808551808352604092508286019150828160051b87010184880160005b838110156110df57888303603f19018552815180516001600160a01b031684528701518784018790526110cc87850182611036565b9588019593505090860190600101611097565b509098975050505050505050565b8051825260006020820151604060208501526103536040850182610fbf565b602081526000610cf460208301846110ed565b60006020828403121561113157600080fd5b813560028110610c6e57600080fd5b602081526000610cf46020830184611036565b6040815260006111666040830185610ffa565b905060018060a01b03831660208301529392505050565b60006020828403121561118f57600080fd5b5051919050565b634e487b7160e01b600052604160045260246000fd5b634e487b7160e01b600052603260045260246000fd5b60408152600061116660408301856110ed565b634e487b7160e01b600052601160045260246000fd5b6000600182016111fd576111fd6111d5565b5060010190565b60006020828403121561121657600080fd5b815160ff81168114610c6e57600080fd5b8082028115828204841417610cf757610cf76111d5565b81810381811115610cf757610cf76111d5565b634e487b7160e01b600052602160045260246000fd5b60008261128457634e487b7160e01b600052601260045260246000fd5b500490565b6000825161129b818460208701610eb8565b919091019291505056fec8fcad8db84d3cc18b4c41d551ea0ee66dd599cde068d998e57d5e09332c131c416464726573733a206c6f772d6c6576656c207374617469632063616c6c206661696c6564a2646970667358221220e74bf3fe1e524441e7c23594c7cec5a6afd48ccfea5940ab87b3d1495ce4f40c64736f6c63430008150033",
    "linkReferences": {}
  },
  "methodIdentifiers": {
    "facetAddress(bytes4)": "cdffacc6",
    "facetAddresses()": "52ef6b2c",
    "facetFunctionSelectors(address)": "adfca15e",
    "facets()": "7a0ed627",
    "getAdminFee()": "2a905ccc",
    "getDefaultSlippage()": "1a82363e",
    "getEnabledSwitch()": "089e63f0",
    "getLSDs()": "38ab35d4",
    "getMintData(uint256,address,uint16,address)": "635d12cc",
    "getProtocolFee()": "a5a41031",
    "getRedeemData(uint256,address,uint16,address)": "2e19905c",
    "ozTokens(address)": "423f0b91",
    "quoteAmountsIn(uint256,address,uint16)": "a49709b6",
    "quoteAmountsOut(uint256,address,uint16)": "4d2c1487",
    "supportsInterface(bytes4)": "01ffc9a7",
    "totalUnderlying(uint8)": "a4fc284b"
  },
  "id": 16
}