{
  "abi": [
    {
      "inputs": [
        {
          "internalType": "bytes4",
          "name": "_functionSelector",
          "type": "bytes4"
        }
      ],
      "name": "facetAddress",
      "outputs": [
        {
          "internalType": "address",
          "name": "facetAddress_",
          "type": "address"
        }
      ],
      "stateMutability": "view",
      "type": "function"
    },
    {
      "inputs": [],
      "name": "facetAddresses",
      "outputs": [
        {
          "internalType": "address[]",
          "name": "facetAddresses_",
          "type": "address[]"
        }
      ],
      "stateMutability": "view",
      "type": "function"
    },
    {
      "inputs": [
        {
          "internalType": "address",
          "name": "_facet",
          "type": "address"
        }
      ],
      "name": "facetFunctionSelectors",
      "outputs": [
        {
          "internalType": "bytes4[]",
          "name": "facetFunctionSelectors_",
          "type": "bytes4[]"
        }
      ],
      "stateMutability": "view",
      "type": "function"
    },
    {
      "inputs": [],
      "name": "facets",
      "outputs": [
        {
          "components": [
            {
              "internalType": "address",
              "name": "facetAddress",
              "type": "address"
            },
            {
              "internalType": "bytes4[]",
              "name": "functionSelectors",
              "type": "bytes4[]"
            }
          ],
          "internalType": "struct IDiamondLoupe.Facet[]",
          "name": "facets_",
          "type": "tuple[]"
        }
      ],
      "stateMutability": "view",
      "type": "function"
    },
    {
      "inputs": [],
      "name": "getAdminFee",
      "outputs": [
        {
          "internalType": "uint256",
          "name": "",
          "type": "uint256"
        }
      ],
      "stateMutability": "view",
      "type": "function"
    },
    {
      "inputs": [],
      "name": "getDefaultSlippage",
      "outputs": [
        {
          "internalType": "uint16",
          "name": "",
          "type": "uint16"
        }
      ],
      "stateMutability": "view",
      "type": "function"
    },
    {
      "inputs": [],
      "name": "getEnabledSwitch",
      "outputs": [
        {
          "internalType": "bool",
          "name": "",
          "type": "bool"
        }
      ],
      "stateMutability": "view",
      "type": "function"
    },
    {
      "inputs": [],
      "name": "getLSDs",
      "outputs": [
        {
          "internalType": "address[]",
          "name": "",
          "type": "address[]"
        }
      ],
      "stateMutability": "view",
      "type": "function"
    },
    {
      "inputs": [
        {
          "internalType": "uint256",
          "name": "amountIn_",
          "type": "uint256"
        },
        {
          "internalType": "address",
          "name": "underlying_",
          "type": "address"
        },
        {
          "internalType": "uint16",
          "name": "slippage_",
          "type": "uint16"
        },
        {
          "internalType": "address",
          "name": "receiver_",
          "type": "address"
        }
      ],
      "name": "getMintData",
      "outputs": [
        {
          "internalType": "bytes",
          "name": "",
          "type": "bytes"
        }
      ],
      "stateMutability": "view",
      "type": "function"
    },
    {
      "inputs": [],
      "name": "getPausedContracts",
      "outputs": [
        {
          "internalType": "uint256[]",
          "name": "",
          "type": "uint256[]"
        }
      ],
      "stateMutability": "view",
      "type": "function"
    },
    {
      "inputs": [],
      "name": "getProtocolFee",
      "outputs": [
        {
          "internalType": "uint256",
          "name": "",
          "type": "uint256"
        }
      ],
      "stateMutability": "view",
      "type": "function"
    },
    {
      "inputs": [
        {
          "internalType": "uint256",
          "name": "ozAmountIn_",
          "type": "uint256"
        },
        {
          "internalType": "address",
          "name": "ozToken_",
          "type": "address"
        },
        {
          "internalType": "uint16",
          "name": "slippage_",
          "type": "uint16"
        },
        {
          "internalType": "address",
          "name": "receiver_",
          "type": "address"
        }
      ],
      "name": "getRedeemData",
      "outputs": [
        {
          "internalType": "bytes",
          "name": "",
          "type": "bytes"
        }
      ],
      "stateMutability": "view",
      "type": "function"
    },
    {
      "inputs": [
        {
          "internalType": "address",
          "name": "underlying_",
          "type": "address"
        }
      ],
      "name": "ozTokens",
      "outputs": [
        {
          "internalType": "address",
          "name": "",
          "type": "address"
        }
      ],
      "stateMutability": "view",
      "type": "function"
    },
    {
      "inputs": [
        {
          "internalType": "uint256",
          "name": "amountIn_",
          "type": "uint256"
        },
        {
          "internalType": "address",
          "name": "underlying_",
          "type": "address"
        },
        {
          "internalType": "uint16",
          "name": "slippage_",
          "type": "uint16"
        }
      ],
      "name": "quoteAmountsIn",
      "outputs": [
        {
          "components": [
            {
              "internalType": "uint256",
              "name": "amountIn",
              "type": "uint256"
            },
            {
              "internalType": "uint256[]",
              "name": "minAmountsOut",
              "type": "uint256[]"
            }
          ],
          "internalType": "struct AmountsIn",
          "name": "",
          "type": "tuple"
        }
      ],
      "stateMutability": "view",
      "type": "function"
    },
    {
      "inputs": [
        {
          "internalType": "uint256",
          "name": "ozAmountIn_",
          "type": "uint256"
        },
        {
          "internalType": "address",
          "name": "ozToken_",
          "type": "address"
        },
        {
          "internalType": "uint16",
          "name": "slippage_",
          "type": "uint16"
        }
      ],
      "name": "quoteAmountsOut",
      "outputs": [
        {
          "components": [
            {
              "internalType": "uint256",
              "name": "ozAmountIn",
              "type": "uint256"
            },
            {
              "internalType": "uint256",
              "name": "amountInReth",
              "type": "uint256"
            },
            {
              "internalType": "uint256[]",
              "name": "minAmountsOut",
              "type": "uint256[]"
            }
          ],
          "internalType": "struct AmountsOut",
          "name": "",
          "type": "tuple"
        }
      ],
      "stateMutability": "view",
      "type": "function"
    },
    {
      "inputs": [
        {
          "internalType": "bytes4",
          "name": "_interfaceId",
          "type": "bytes4"
        }
      ],
      "name": "supportsInterface",
      "outputs": [
        {
          "internalType": "bool",
          "name": "",
          "type": "bool"
        }
      ],
      "stateMutability": "view",
      "type": "function"
    },
    {
      "inputs": [
        {
          "internalType": "enum Asset",
          "name": "type_",
          "type": "uint8"
        }
      ],
      "name": "totalUnderlying",
      "outputs": [
        {
          "internalType": "uint256",
          "name": "total",
          "type": "uint256"
        }
      ],
      "stateMutability": "view",
      "type": "function"
    }
  ],
  "bytecode": {
    "object": "0x608060405234801561001057600080fd5b50611515806100206000396000f3fe608060405234801561001057600080fd5b506004361061010b5760003560e01c806352ef6b2c116100a2578063a49709b611610071578063a49709b614610298578063a4fc284b146102b8578063a5a41031146102cb578063adfca15e146102e2578063cdffacc61461030257600080fd5b806352ef6b2c14610253578063635d12cc1461025b5780637a0ed6271461026e578063a3e4ed141461028357600080fd5b80632e19905c116100de5780632e19905c146101ba57806338ab35d4146101da578063423f0b91146101ef5780634d2c14871461023357600080fd5b806301ffc9a714610110578063089e63f0146101715780631a82363e1461017c5780632a905ccc1461019d575b600080fd5b61015c61011e366004610ffa565b6001600160e01b03191660009081527fc8fcad8db84d3cc18b4c41d551ea0ee66dd599cde068d998e57d5e09332c131f602052604090205460ff1690565b60405190151581526020015b60405180910390f35b602a5460ff1661015c565b600754600160a01b900461ffff1660405161ffff9091168152602001610168565b601f54600160a01b900461ffff165b604051908152602001610168565b6101cd6101c836600461104d565b610342565b60405161016891906110ea565b6101e261037b565b60405161016891906110fd565b61021b6101fd36600461114a565b6001600160a01b039081166000908152600b60205260409020541690565b6040516001600160a01b039091168152602001610168565b610246610241366004611165565b6103d9565b6040516101689190611205565b6101e26105ec565b6101cd61026936600461104d565b61065f565b61027661067e565b6040516101689190611252565b61028b610849565b60405161016891906112cf565b6102ab6102a6366004611165565b6109f4565b6040516101689190611301565b6101ac6102c6366004611314565b610c08565b6013546601000000000000900462ffffff166101ac565b6102f56102f036600461114a565b610d21565b6040516101689190611335565b61021b610310366004610ffa565b6001600160e01b031916600090815260008051602061149b83398151915260205260409020546001600160a01b031690565b606061034f8585856103d9565b82604051602001610361929190611348565b60405160208183030381529060405290505b949350505050565b6020805460408051828402810184019091528181526060929091828201828280156103cf57602002820191906000526020600020905b81546001600160a01b031681526001909101906020018083116103b1575b5050505050905090565b6103fd60405180606001604052806000815260200160008152602001606081525090565b604051630a28a47760e01b81526004810185905283906000906001600160a01b03831690631dc7f521908290630a28a47790602401602060405180830381865afa15801561044f573d6000803e3d6000fd5b505050506040513d601f19601f820116820180604052508101906104739190611372565b6040518263ffffffff1660e01b815260040161049191815260200190565b602060405180830381865afa1580156104ae573d6000803e3d6000fd5b505050506040513d601f19601f820116820180604052508101906104d29190611372565b90503060006104eb6104e383610ded565b849088610e40565b9050600061055c836001600160a01b0316636260f55b6040518163ffffffff1660e01b8152600401602060405180830381865afa158015610530573d6000803e3d6000fd5b505050506040513d601f19601f820116820180604052508101906105549190611372565b839089610e40565b60408051600280825260608201835292935060009290916020830190803683370190505090508281600081518110610596576105966113a1565b60200260200101818152505081816001815181106105b6576105b66113a1565b60200260200101818152505060405180606001604052808b81526020018681526020018281525096505050505050509392505050565b6060600060008051602061149b8339815191526002810180546040805160208084028201810190925282815293945083018282801561065457602002820191906000526020600020905b81546001600160a01b03168152600190910190602001808311610636575b505050505091505090565b606061066c8585856109f4565b826040516020016103619291906113b7565b7fc8fcad8db84d3cc18b4c41d551ea0ee66dd599cde068d998e57d5e09332c131e5460609060008051602061149b833981519152908067ffffffffffffffff8111156106cc576106cc61138b565b60405190808252806020026020018201604052801561071257816020015b6040805180820190915260008152606060208201528152602001906001900390816106ea5790505b50925060005b81811015610843576000836002018281548110610737576107376113a1565b9060005260206000200160009054906101000a90046001600160a01b031690508085838151811061076a5761076a6113a1565b6020908102919091018101516001600160a01b03928316905290821660009081526001860182526040908190208054825181850281018501909352808352919290919083018282801561080957602002820191906000526020600020906000905b82829054906101000a900460e01b6001600160e01b031916815260200190600401906020826003010492830192600103820291508084116107cb5790505b5050505050858381518110610820576108206113a1565b60200260200101516020018190525050808061083b906113e0565b915050610718565b50505090565b60285460609060009061ffff1667ffffffffffffffff81111561086e5761086e61138b565b604051908082528060200260200182016040528015610897578160200160208202803683370190505b50905060008060025b60285461ffff1681101561091c576108b9602782610e7c565b156108fc57808483815181106108d1576108d16113a1565b6020908102919091010152816108e6816113e0565b92505082806108f4906113e0565b93505061090a565b81610906816113e0565b9250505b80610914816113e0565b9150506108a0565b5060008267ffffffffffffffff8111156109385761093861138b565b604051908082528060200260200182016040528015610961578160200160208202803683370190505b5090506000805b85518110156109e957858181518110610983576109836113a1565b60200260200101516000146109d7578581815181106109a4576109a46113a1565b60200260200101518383815181106109be576109be6113a1565b6020908102919091010152816109d3816113e0565b9250505b806109e1816113e0565b915050610968565b509095945050505050565b604080518082018252600080825260606020808401829052845160028082529281018652939430949291830190803683370190505090506000856001600160a01b031663313ce5676040518163ffffffff1660e01b8152600401602060405180830381865afa158015610a6b573d6000803e3d6000fd5b505050506040513d601f19601f82011682018060405250810190610a8f91906113f9565b60ff16601214610aad57610aa88764e8d4a5100061141c565b610aaf565b865b905060006040518060400160405280856001600160a01b0316636260f55b6040518163ffffffff1660e01b8152600401602060405180830381865afa158015610afc573d6000803e3d6000fd5b505050506040513d601f19601f82011682018060405250810190610b209190611372565b8152602001610b2e86610ded565b90529050600260005b81811015610be9576000610b9c670de0b6b3a7640000858460028110610b5f57610b5f6113a1565b60200201518415610b935788610b76600187611433565b81518110610b8657610b866113a1565b6020026020010151610b95565b875b9190610ea1565b9050610baf8161ffff8b16612710610ea1565b610bb99082611433565b868381518110610bcb57610bcb6113a1565b60209081029190910101525080610be1816113e0565b915050610b37565b5050604080518082019091529788525050602086015250929392505050565b6009546040516370a0823160e01b81523060048201526000916001600160a01b0316906370a0823190602401602060405180830381865afa158015610c51573d6000803e3d6000fd5b505050506040513d601f19601f82011682018060405250810190610c759190611372565b90506000826001811115610c8b57610c8b611446565b03610d1c5760025460408051637a12625d60e11b81529051670de0b6b3a7640000926001600160a01b03169163f424c4ba9160048083019260209291908290030181865afa158015610ce1573d6000803e3d6000fd5b505050506040513d601f19601f82011682018060405250810190610d059190611372565b610d0f908361141c565b610d19919061145c565b90505b919050565b6001600160a01b03811660009081527fc8fcad8db84d3cc18b4c41d551ea0ee66dd599cde068d998e57d5e09332c131d6020908152604091829020805483518184028101840190945280845260609360008051602061149b8339815191529390929190830182828015610de057602002820191906000526020600020906000905b82829054906101000a900460e01b6001600160e01b03191681526020019060040190602082600301049283019260010382029150808411610da25790505b5050505050915050919050565b6040805160048152602481019091526020810180516001600160e01b0316636a57db9d60e11b179052600090610e238382610ebf565b905080806020019051810190610e399190611372565b9392505050565b600080610e568585670de0b6b3a7640000610ea1565b9050610e698161ffff8516612710610ea1565b610e739082611433565b95945050505050565b600881901c600090815260208390526040902054600160ff83161b1615155b92915050565b6000826000190484118302158202610eb857600080fd5b5091020490565b6060610e3983836040518060600160405280602581526020016114bb602591396060600080856001600160a01b031685604051610efc919061147e565b600060405180830381855afa9150503d8060008114610f37576040519150601f19603f3d011682016040523d82523d6000602084013e610f3c565b606091505b5091509150610f4d86838387610f57565b9695505050505050565b60608315610fcb578251600003610fc4576001600160a01b0385163b610fc45760405162461bcd60e51b815260206004820152601d60248201527f416464726573733a2063616c6c20746f206e6f6e2d636f6e747261637400000060448201526064015b60405180910390fd5b5081610373565b6103738383815115610fe05781518083602001fd5b8060405162461bcd60e51b8152600401610fbb91906110ea565b60006020828403121561100c57600080fd5b81356001600160e01b031981168114610e3957600080fd5b80356001600160a01b0381168114610d1c57600080fd5b803561ffff81168114610d1c57600080fd5b6000806000806080858703121561106357600080fd5b8435935061107360208601611024565b92506110816040860161103b565b915061108f60608601611024565b905092959194509250565b60005b838110156110b557818101518382015260200161109d565b50506000910152565b600081518084526110d681602086016020860161109a565b601f01601f19169290920160200192915050565b602081526000610e3960208301846110be565b6020808252825182820181905260009190848201906040850190845b8181101561113e5783516001600160a01b031683529284019291840191600101611119565b50909695505050505050565b60006020828403121561115c57600080fd5b610e3982611024565b60008060006060848603121561117a57600080fd5b8335925061118a60208501611024565b91506111986040850161103b565b90509250925092565b600081518084526020808501945080840160005b838110156111d1578151875295820195908201906001016111b5565b509495945050505050565b8051825260208101516020830152600060408201516060604085015261037360608501826111a1565b602081526000610e3960208301846111dc565b600081518084526020808501945080840160005b838110156111d15781516001600160e01b0319168752958201959082019060010161122c565b60006020808301818452808551808352604092508286019150828160051b87010184880160005b838110156112c157888303603f19018552815180516001600160a01b031684528701518784018790526112ae87850182611218565b9588019593505090860190600101611279565b509098975050505050505050565b602081526000610e3960208301846111a1565b80518252600060208201516040602085015261037360408501826111a1565b602081526000610e3960208301846112e2565b60006020828403121561132657600080fd5b813560028110610e3957600080fd5b602081526000610e396020830184611218565b60408152600061135b60408301856111dc565b905060018060a01b03831660208301529392505050565b60006020828403121561138457600080fd5b5051919050565b634e487b7160e01b600052604160045260246000fd5b634e487b7160e01b600052603260045260246000fd5b60408152600061135b60408301856112e2565b634e487b7160e01b600052601160045260246000fd5b6000600182016113f2576113f26113ca565b5060010190565b60006020828403121561140b57600080fd5b815160ff81168114610e3957600080fd5b8082028115828204841417610e9b57610e9b6113ca565b81810381811115610e9b57610e9b6113ca565b634e487b7160e01b600052602160045260246000fd5b60008261147957634e487b7160e01b600052601260045260246000fd5b500490565b6000825161149081846020870161109a565b919091019291505056fec8fcad8db84d3cc18b4c41d551ea0ee66dd599cde068d998e57d5e09332c131c416464726573733a206c6f772d6c6576656c207374617469632063616c6c206661696c6564a2646970667358221220687d20f760244e76b0a84d090ab8e19be1a7a0f49cfcaecaf21105e6ab9aa9a264736f6c63430008150033",
    "linkReferences": {}
  },
  "methodIdentifiers": {
    "facetAddress(bytes4)": "cdffacc6",
    "facetAddresses()": "52ef6b2c",
    "facetFunctionSelectors(address)": "adfca15e",
    "facets()": "7a0ed627",
    "getAdminFee()": "2a905ccc",
    "getDefaultSlippage()": "1a82363e",
    "getEnabledSwitch()": "089e63f0",
    "getLSDs()": "38ab35d4",
    "getMintData(uint256,address,uint16,address)": "635d12cc",
    "getPausedContracts()": "a3e4ed14",
    "getProtocolFee()": "a5a41031",
    "getRedeemData(uint256,address,uint16,address)": "2e19905c",
    "ozTokens(address)": "423f0b91",
    "quoteAmountsIn(uint256,address,uint16)": "a49709b6",
    "quoteAmountsOut(uint256,address,uint16)": "4d2c1487",
    "supportsInterface(bytes4)": "01ffc9a7",
    "totalUnderlying(uint8)": "a4fc284b"
  },
  "id": 18
}