{"abi":[{"type":"function","name":"facetAddress","inputs":[{"name":"_functionSelector","type":"bytes4","internalType":"bytes4"}],"outputs":[{"name":"facetAddress_","type":"address","internalType":"address"}],"stateMutability":"view"},{"type":"function","name":"facetAddresses","inputs":[],"outputs":[{"name":"facetAddresses_","type":"address[]","internalType":"address[]"}],"stateMutability":"view"},{"type":"function","name":"facetFunctionSelectors","inputs":[{"name":"_facet","type":"address","internalType":"address"}],"outputs":[{"name":"facetFunctionSelectors_","type":"bytes4[]","internalType":"bytes4[]"}],"stateMutability":"view"},{"type":"function","name":"facets","inputs":[],"outputs":[{"name":"facets_","type":"tuple[]","internalType":"struct IDiamondLoupe.Facet[]","components":[{"name":"facetAddress","type":"address","internalType":"address"},{"name":"functionSelectors","type":"bytes4[]","internalType":"bytes4[]"}]}],"stateMutability":"view"},{"type":"function","name":"getAPR","inputs":[],"outputs":[{"name":"","type":"uint256","internalType":"uint256"}],"stateMutability":"view"},{"type":"function","name":"getAdminFee","inputs":[],"outputs":[{"name":"","type":"uint256","internalType":"uint256"}],"stateMutability":"view"},{"type":"function","name":"getDefaultSlippage","inputs":[],"outputs":[{"name":"","type":"uint16","internalType":"uint16"}],"stateMutability":"view"},{"type":"function","name":"getEnabledSwitch","inputs":[],"outputs":[{"name":"","type":"bool","internalType":"bool"}],"stateMutability":"view"},{"type":"function","name":"getLSDs","inputs":[],"outputs":[{"name":"","type":"address[]","internalType":"address[]"}],"stateMutability":"view"},{"type":"function","name":"getMintData","inputs":[{"name":"amountIn_","type":"uint256","internalType":"uint256"},{"name":"slippage_","type":"uint16","internalType":"uint16"},{"name":"receiver_","type":"address","internalType":"address"}],"outputs":[{"name":"","type":"bytes","internalType":"bytes"}],"stateMutability":"view"},{"type":"function","name":"getPausedContracts","inputs":[],"outputs":[{"name":"","type":"uint256[]","internalType":"uint256[]"}],"stateMutability":"view"},{"type":"function","name":"getProtocolFee","inputs":[],"outputs":[{"name":"","type":"uint256","internalType":"uint256"}],"stateMutability":"view"},{"type":"function","name":"getRedeemData","inputs":[{"name":"ozAmountIn_","type":"uint256","internalType":"uint256"},{"name":"ozToken_","type":"address","internalType":"address"},{"name":"slippage_","type":"uint16","internalType":"uint16"},{"name":"receiver_","type":"address","internalType":"address"},{"name":"owner_","type":"address","internalType":"address"}],"outputs":[{"name":"","type":"bytes","internalType":"bytes"}],"stateMutability":"view"},{"type":"function","name":"ozTokens","inputs":[{"name":"underlying_","type":"address","internalType":"address"}],"outputs":[{"name":"","type":"address","internalType":"address"}],"stateMutability":"view"},{"type":"function","name":"quoteAmountsIn","inputs":[{"name":"amountIn_","type":"uint256","internalType":"uint256"},{"name":"slippage_","type":"uint16","internalType":"uint16"}],"outputs":[{"name":"","type":"tuple","internalType":"struct AmountsIn","components":[{"name":"amountIn","type":"uint256","internalType":"uint256"},{"name":"minAmountsOut","type":"uint256[]","internalType":"uint256[]"}]}],"stateMutability":"view"},{"type":"function","name":"quoteAmountsOut","inputs":[{"name":"ozAmountIn_","type":"uint256","internalType":"uint256"},{"name":"ozToken_","type":"address","internalType":"address"},{"name":"slippage_","type":"uint16","internalType":"uint16"},{"name":"owner_","type":"address","internalType":"address"}],"outputs":[{"name":"","type":"tuple","internalType":"struct AmountsOut","components":[{"name":"ozAmountIn","type":"uint256","internalType":"uint256"},{"name":"amountInReth","type":"uint256","internalType":"uint256"},{"name":"minAmountsOut","type":"uint256[]","internalType":"uint256[]"}]}],"stateMutability":"view"},{"type":"function","name":"supportsInterface","inputs":[{"name":"_interfaceId","type":"bytes4","internalType":"bytes4"}],"outputs":[{"name":"","type":"bool","internalType":"bool"}],"stateMutability":"view"},{"type":"function","name":"totalUnderlying","inputs":[{"name":"type_","type":"uint8","internalType":"enum Asset"}],"outputs":[{"name":"total","type":"uint256","internalType":"uint256"}],"stateMutability":"view"}],"bytecode":{"object":"0x608060405234801561001057600080fd5b50611578806100206000396000f3fe608060405234801561001057600080fd5b50600436106101165760003560e01c80637226e48b116100a2578063a4fc284b11610071578063a4fc284b146102c3578063a5a41031146102d6578063adfca15e146102ed578063c89d5b8b1461030d578063cdffacc61461031557600080fd5b80637226e48b146102665780637a0ed627146102865780638c50d4571461029b578063a3e4ed14146102ae57600080fd5b80632a905ccc116100e95780632a905ccc146101c857806338ab35d4146101e5578063423f0b91146101fa578063435966091461023e57806352ef6b2c1461025e57600080fd5b806301ffc9a71461011b578063089e63f01461017c5780631a82363e146101875780631d690aa9146101a8575b600080fd5b610167610129366004610fbe565b6001600160e01b03191660009081527fc8fcad8db84d3cc18b4c41d551ea0ee66dd599cde068d998e57d5e09332c131f602052604090205460ff1690565b60405190151581526020015b60405180910390f35b602a5460ff16610167565b600754600160a01b900461ffff1660405161ffff9091168152602001610173565b6101bb6101b6366004610ffa565b610355565b6040516101739190611080565b601f54600160a01b900461ffff165b604051908152602001610173565b6101ed6104e7565b6040516101739190611093565b6102266102083660046110f7565b6001600160a01b039081166000908152600b60205260409020541690565b6040516001600160a01b039091168152602001610173565b61025161024c366004611112565b610545565b60405161017391906111c0565b6101ed61057f565b6102796102743660046111d3565b6105f2565b6040516101739190611249565b61028e61080f565b6040516101739190611296565b6102516102a9366004611313565b6109da565b6102b6610a10565b604051610173919061134f565b6101d76102d1366004611387565b610bcc565b6013546601000000000000900462ffffff166101d7565b6103006102fb3660046110f7565b610ce5565b60405161017391906113a8565b6101d7610db1565b610226610323366004610fbe565b6001600160e01b03191660009081526000805160206114fe83398151915260205260409020546001600160a01b031690565b6040805180820182526000808252606060208084018290528451600280825292810186529394309492918301908036833701905050905060006040518060400160405280846001600160a01b0316636260f55b6040518163ffffffff1660e01b8152600401602060405180830381865afa1580156103d7573d6000803e3d6000fd5b505050506040513d601f19601f820116820180604052508101906103fb91906113d1565b815260200161040985610dd6565b90529050600260005b818110156104c4576000610477670de0b6b3a764000085846002811061043a5761043a6113ea565b6020020151841561046e5787610451600187611416565b81518110610461576104616113ea565b6020026020010151610470565b8b5b9190610e29565b905061048a8161ffff8a16612710610e29565b6104949082611416565b8583815181106104a6576104a66113ea565b602090810291909101015250806104bc81611429565b915050610412565b506040518060400160405280888152602001848152509450505050505b92915050565b60208054604080518284028101840190915281815260609290918282018282801561053b57602002820191906000526020600020905b81546001600160a01b0316815260019091019060200180831161051d575b5050505050905090565b6060610553868686856105f2565b83604051602001610565929190611442565b604051602081830303815290604052905095945050505050565b606060006000805160206114fe833981519152600281018054604080516020808402820181019092528281529394508301828280156105e757602002820191906000526020600020905b81546001600160a01b031681526001909101906020018083116105c9575b505050505091505090565b61061660405180606001604052806000815260200160008152602001606081525090565b6040516311c0a82160e21b8152600481018690526001600160a01b0383811660248301528591600091831690631dc7f521908290634702a08490604401602060405180830381865afa158015610670573d6000803e3d6000fd5b505050506040513d601f19601f8201168201806040525081019061069491906113d1565b6040518263ffffffff1660e01b81526004016106b291815260200190565b602060405180830381865afa1580156106cf573d6000803e3d6000fd5b505050506040513d601f19601f820116820180604052508101906106f391906113d1565b905030600061070c61070483610dd6565b849089610e47565b9050600061077d836001600160a01b0316636260f55b6040518163ffffffff1660e01b8152600401602060405180830381865afa158015610751573d6000803e3d6000fd5b505050506040513d601f19601f8201168201806040525081019061077591906113d1565b83908a610e47565b604080516002808252606082018352929350600092909160208301908036833701905050905082816000815181106107b7576107b76113ea565b60200260200101818152505081816001815181106107d7576107d76113ea565b60200260200101818152505060405180606001604052808c81526020018681526020018281525096505050505050505b949350505050565b7fc8fcad8db84d3cc18b4c41d551ea0ee66dd599cde068d998e57d5e09332c131e546060906000805160206114fe833981519152908067ffffffffffffffff81111561085d5761085d6113bb565b6040519080825280602002602001820160405280156108a357816020015b60408051808201909152600081526060602082015281526020019060019003908161087b5790505b50925060005b818110156109d45760008360020182815481106108c8576108c86113ea565b9060005260206000200160009054906101000a90046001600160a01b03169050808583815181106108fb576108fb6113ea565b6020908102919091018101516001600160a01b03928316905290821660009081526001860182526040908190208054825181850281018501909352808352919290919083018282801561099a57602002820191906000526020600020906000905b82829054906101000a900460e01b6001600160e01b0319168152602001906004019060208260030104928301926001038202915080841161095c5790505b50505050508583815181106109b1576109b16113ea565b6020026020010151602001819052505080806109cc90611429565b9150506108a9565b50505090565b60606109e68484610355565b826040516020016109f892919061146c565b60405160208183030381529060405290509392505050565b60285460609060009061ffff1667ffffffffffffffff811115610a3557610a356113bb565b604051908082528060200260200182016040528015610a5e578160200160208202803683370190505b50905060008060025b60285461ffff16811015610af457600881901c600090815260276020526040902054600160ff83161b1615610ad45780848381518110610aa957610aa96113ea565b602090810291909101015281610abe81611429565b9250508280610acc90611429565b935050610ae2565b81610ade81611429565b9250505b80610aec81611429565b915050610a67565b5060008267ffffffffffffffff811115610b1057610b106113bb565b604051908082528060200260200182016040528015610b39578160200160208202803683370190505b5090506000805b8551811015610bc157858181518110610b5b57610b5b6113ea565b6020026020010151600014610baf57858181518110610b7c57610b7c6113ea565b6020026020010151838381518110610b9657610b966113ea565b602090810291909101015281610bab81611429565b9250505b80610bb981611429565b915050610b40565b509095945050505050565b6009546040516370a0823160e01b81523060048201526000916001600160a01b0316906370a0823190602401602060405180830381865afa158015610c15573d6000803e3d6000fd5b505050506040513d601f19601f82011682018060405250810190610c3991906113d1565b90506000826001811115610c4f57610c4f61147f565b03610ce05760025460408051637a12625d60e11b81529051670de0b6b3a7640000926001600160a01b03169163f424c4ba9160048083019260209291908290030181865afa158015610ca5573d6000803e3d6000fd5b505050506040513d601f19601f82011682018060405250810190610cc991906113d1565b610cd39083611495565b610cdd91906114ac565b90505b919050565b6001600160a01b03811660009081527fc8fcad8db84d3cc18b4c41d551ea0ee66dd599cde068d998e57d5e09332c131d602090815260409182902080548351818402810184019094528084526060936000805160206114fe8339815191529390929190830182828015610da457602002820191906000526020600020906000905b82829054906101000a900460e01b6001600160e01b03191681526020019060040190602082600301049283019260010382029150808411610d665790505b5050505050915050919050565b602e54602f54600091600291610dc791906114ce565b610dd191906114ac565b905090565b6040805160048152602481019091526020810180516001600160e01b0316636a57db9d60e11b179052600090610e0c8382610e83565b905080806020019051810190610e2291906113d1565b9392505050565b6000826000190484118302158202610e4057600080fd5b5091020490565b600080610e5d8585670de0b6b3a7640000610e29565b9050610e708161ffff8516612710610e29565b610e7a9082611416565b95945050505050565b6060610e22838360405180606001604052806025815260200161151e602591396060600080856001600160a01b031685604051610ec091906114e1565b600060405180830381855afa9150503d8060008114610efb576040519150601f19603f3d011682016040523d82523d6000602084013e610f00565b606091505b5091509150610f1186838387610f1b565b9695505050505050565b60608315610f8f578251600003610f88576001600160a01b0385163b610f885760405162461bcd60e51b815260206004820152601d60248201527f416464726573733a2063616c6c20746f206e6f6e2d636f6e747261637400000060448201526064015b60405180910390fd5b5081610807565b6108078383815115610fa45781518083602001fd5b8060405162461bcd60e51b8152600401610f7f91906111c0565b600060208284031215610fd057600080fd5b81356001600160e01b031981168114610e2257600080fd5b803561ffff81168114610ce057600080fd5b6000806040838503121561100d57600080fd5b8235915061101d60208401610fe8565b90509250929050565b600081518084526020808501945080840160005b838110156110565781518752958201959082019060010161103a565b509495945050505050565b8051825260006020820151604060208501526108076040850182611026565b602081526000610e226020830184611061565b6020808252825182820181905260009190848201906040850190845b818110156110d45783516001600160a01b0316835292840192918401916001016110af565b50909695505050505050565b80356001600160a01b0381168114610ce057600080fd5b60006020828403121561110957600080fd5b610e22826110e0565b600080600080600060a0868803121561112a57600080fd5b8535945061113a602087016110e0565b935061114860408701610fe8565b9250611156606087016110e0565b9150611164608087016110e0565b90509295509295909350565b60005b8381101561118b578181015183820152602001611173565b50506000910152565b600081518084526111ac816020860160208601611170565b601f01601f19169290920160200192915050565b602081526000610e226020830184611194565b600080600080608085870312156111e957600080fd5b843593506111f9602086016110e0565b925061120760408601610fe8565b9150611215606086016110e0565b905092959194509250565b805182526020810151602083015260006040820151606060408501526108076060850182611026565b602081526000610e226020830184611220565b600081518084526020808501945080840160005b838110156110565781516001600160e01b03191687529582019590820190600101611270565b60006020808301818452808551808352604092508286019150828160051b87010184880160005b8381101561130557888303603f19018552815180516001600160a01b031684528701518784018790526112f28785018261125c565b95880195935050908601906001016112bd565b509098975050505050505050565b60008060006060848603121561132857600080fd5b8335925061133860208501610fe8565b9150611346604085016110e0565b90509250925092565b6020808252825182820181905260009190848201906040850190845b818110156110d45783518352928401929184019160010161136b565b60006020828403121561139957600080fd5b813560028110610e2257600080fd5b602081526000610e22602083018461125c565b634e487b7160e01b600052604160045260246000fd5b6000602082840312156113e357600080fd5b5051919050565b634e487b7160e01b600052603260045260246000fd5b634e487b7160e01b600052601160045260246000fd5b818103818111156104e1576104e1611400565b60006001820161143b5761143b611400565b5060010190565b6040815260006114556040830185611220565b905060018060a01b03831660208301529392505050565b6040815260006114556040830185611061565b634e487b7160e01b600052602160045260246000fd5b80820281158282048414176104e1576104e1611400565b6000826114c957634e487b7160e01b600052601260045260246000fd5b500490565b808201808211156104e1576104e1611400565b600082516114f3818460208701611170565b919091019291505056fec8fcad8db84d3cc18b4c41d551ea0ee66dd599cde068d998e57d5e09332c131c416464726573733a206c6f772d6c6576656c207374617469632063616c6c206661696c6564a26469706673582212200b3619ed89cf7105b329c20a6164406950bc74095277101175094c2cf77d3ef764736f6c63430008150033","linkReferences":{}},"methodIdentifiers":{"facetAddress(bytes4)":"cdffacc6","facetAddresses()":"52ef6b2c","facetFunctionSelectors(address)":"adfca15e","facets()":"7a0ed627","getAPR()":"c89d5b8b","getAdminFee()":"2a905ccc","getDefaultSlippage()":"1a82363e","getEnabledSwitch()":"089e63f0","getLSDs()":"38ab35d4","getMintData(uint256,uint16,address)":"8c50d457","getPausedContracts()":"a3e4ed14","getProtocolFee()":"a5a41031","getRedeemData(uint256,address,uint16,address,address)":"43596609","ozTokens(address)":"423f0b91","quoteAmountsIn(uint256,uint16)":"1d690aa9","quoteAmountsOut(uint256,address,uint16,address)":"7226e48b","supportsInterface(bytes4)":"01ffc9a7","totalUnderlying(uint8)":"a4fc284b"},"id":16}