{"abi":[{"type":"function","name":"facetAddress","inputs":[{"name":"_functionSelector","type":"bytes4","internalType":"bytes4"}],"outputs":[{"name":"facetAddress_","type":"address","internalType":"address"}],"stateMutability":"view"},{"type":"function","name":"facetAddresses","inputs":[],"outputs":[{"name":"facetAddresses_","type":"address[]","internalType":"address[]"}],"stateMutability":"view"},{"type":"function","name":"facetFunctionSelectors","inputs":[{"name":"_facet","type":"address","internalType":"address"}],"outputs":[{"name":"facetFunctionSelectors_","type":"bytes4[]","internalType":"bytes4[]"}],"stateMutability":"view"},{"type":"function","name":"facets","inputs":[],"outputs":[{"name":"facets_","type":"tuple[]","internalType":"struct IDiamondLoupe.Facet[]","components":[{"name":"facetAddress","type":"address","internalType":"address"},{"name":"functionSelectors","type":"bytes4[]","internalType":"bytes4[]"}]}],"stateMutability":"view"},{"type":"function","name":"getAdminFee","inputs":[],"outputs":[{"name":"","type":"uint256","internalType":"uint256"}],"stateMutability":"view"},{"type":"function","name":"getDefaultSlippage","inputs":[],"outputs":[{"name":"","type":"uint16","internalType":"uint16"}],"stateMutability":"view"},{"type":"function","name":"getEnabledSwitch","inputs":[],"outputs":[{"name":"","type":"bool","internalType":"bool"}],"stateMutability":"view"},{"type":"function","name":"getLSDs","inputs":[],"outputs":[{"name":"","type":"address[]","internalType":"address[]"}],"stateMutability":"view"},{"type":"function","name":"getMintData","inputs":[{"name":"amountIn_","type":"uint256","internalType":"uint256"},{"name":"underlying_","type":"address","internalType":"address"},{"name":"slippage_","type":"uint16","internalType":"uint16"},{"name":"receiver_","type":"address","internalType":"address"}],"outputs":[{"name":"","type":"bytes","internalType":"bytes"}],"stateMutability":"view"},{"type":"function","name":"getPausedContracts","inputs":[],"outputs":[{"name":"","type":"uint256[]","internalType":"uint256[]"}],"stateMutability":"view"},{"type":"function","name":"getProtocolFee","inputs":[],"outputs":[{"name":"","type":"uint256","internalType":"uint256"}],"stateMutability":"view"},{"type":"function","name":"getRedeemData","inputs":[{"name":"ozAmountIn_","type":"uint256","internalType":"uint256"},{"name":"ozToken_","type":"address","internalType":"address"},{"name":"slippage_","type":"uint16","internalType":"uint16"},{"name":"receiver_","type":"address","internalType":"address"}],"outputs":[{"name":"","type":"bytes","internalType":"bytes"}],"stateMutability":"view"},{"type":"function","name":"ozTokens","inputs":[{"name":"underlying_","type":"address","internalType":"address"}],"outputs":[{"name":"","type":"address","internalType":"address"}],"stateMutability":"view"},{"type":"function","name":"quoteAmountsIn","inputs":[{"name":"amountIn_","type":"uint256","internalType":"uint256"},{"name":"underlying_","type":"address","internalType":"address"},{"name":"slippage_","type":"uint16","internalType":"uint16"}],"outputs":[{"name":"","type":"tuple","internalType":"struct AmountsIn","components":[{"name":"amountIn","type":"uint256","internalType":"uint256"},{"name":"minAmountsOut","type":"uint256[]","internalType":"uint256[]"}]}],"stateMutability":"view"},{"type":"function","name":"quoteAmountsOut","inputs":[{"name":"ozAmountIn_","type":"uint256","internalType":"uint256"},{"name":"ozToken_","type":"address","internalType":"address"},{"name":"slippage_","type":"uint16","internalType":"uint16"}],"outputs":[{"name":"","type":"tuple","internalType":"struct AmountsOut","components":[{"name":"ozAmountIn","type":"uint256","internalType":"uint256"},{"name":"amountInReth","type":"uint256","internalType":"uint256"},{"name":"minAmountsOut","type":"uint256[]","internalType":"uint256[]"}]}],"stateMutability":"view"},{"type":"function","name":"supportsInterface","inputs":[{"name":"_interfaceId","type":"bytes4","internalType":"bytes4"}],"outputs":[{"name":"","type":"bool","internalType":"bool"}],"stateMutability":"view"},{"type":"function","name":"totalUnderlying","inputs":[{"name":"type_","type":"uint8","internalType":"enum Asset"}],"outputs":[{"name":"total","type":"uint256","internalType":"uint256"}],"stateMutability":"view"}],"bytecode":{"object":"0x608060405234801561001057600080fd5b50611532806100206000396000f3fe608060405234801561001057600080fd5b506004361061010b5760003560e01c806352ef6b2c116100a2578063a49709b611610071578063a49709b614610298578063a4fc284b146102b8578063a5a41031146102cb578063adfca15e146102e2578063cdffacc61461030257600080fd5b806352ef6b2c14610253578063635d12cc1461025b5780637a0ed6271461026e578063a3e4ed141461028357600080fd5b80632e19905c116100de5780632e19905c146101ba57806338ab35d4146101da578063423f0b91146101ef5780634d2c14871461023357600080fd5b806301ffc9a714610110578063089e63f0146101715780631a82363e1461017c5780632a905ccc1461019d575b600080fd5b61015c61011e366004611017565b6001600160e01b03191660009081527fc8fcad8db84d3cc18b4c41d551ea0ee66dd599cde068d998e57d5e09332c131f602052604090205460ff1690565b60405190151581526020015b60405180910390f35b602a5460ff1661015c565b600754600160a01b900461ffff1660405161ffff9091168152602001610168565b601f54600160a01b900461ffff165b604051908152602001610168565b6101cd6101c836600461106a565b610342565b6040516101689190611107565b6101e261037b565b604051610168919061111a565b61021b6101fd366004611167565b6001600160a01b039081166000908152600b60205260409020541690565b6040516001600160a01b039091168152602001610168565b610246610241366004611182565b6103d9565b6040516101689190611222565b6101e2610609565b6101cd61026936600461106a565b61067c565b61027661069b565b604051610168919061126f565b61028b610866565b60405161016891906112ec565b6102ab6102a6366004611182565b610a11565b604051610168919061131e565b6101ac6102c6366004611331565b610c25565b6013546601000000000000900462ffffff166101ac565b6102f56102f0366004611167565b610d3e565b6040516101689190611352565b61021b610310366004611017565b6001600160e01b03191660009081526000805160206114b883398151915260205260409020546001600160a01b031690565b606061034f8585856103d9565b82604051602001610361929190611365565b60405160208183030381529060405290505b949350505050565b6020805460408051828402810184019091528181526060929091828201828280156103cf57602002820191906000526020600020905b81546001600160a01b031681526001909101906020018083116103b1575b5050505050905090565b6103fd60405180606001604052806000815260200160008152602001606081525090565b6040516311c0a82160e21b8152600481018590527337cb1a23e763d2f975bff3b2b86cfa901f7b517e6024820181905284916000906001600160a01b03841690631dc7f521908290634702a08490604401602060405180830381865afa15801561046b573d6000803e3d6000fd5b505050506040513d601f19601f8201168201806040525081019061048f919061138f565b6040518263ffffffff1660e01b81526004016104ad91815260200190565b602060405180830381865afa1580156104ca573d6000803e3d6000fd5b505050506040513d601f19601f820116820180604052508101906104ee919061138f565b90503060006105076104ff83610e0a565b849089610e5d565b90506000610578836001600160a01b0316636260f55b6040518163ffffffff1660e01b8152600401602060405180830381865afa15801561054c573d6000803e3d6000fd5b505050506040513d601f19601f82011682018060405250810190610570919061138f565b83908a610e5d565b604080516002808252606082018352929350600092909160208301908036833701905050905082816000815181106105b2576105b26113be565b60200260200101818152505081816001815181106105d2576105d26113be565b60200260200101818152505060405180606001604052808c8152602001868152602001828152509750505050505050509392505050565b606060006000805160206114b88339815191526002810180546040805160208084028201810190925282815293945083018282801561067157602002820191906000526020600020905b81546001600160a01b03168152600190910190602001808311610653575b505050505091505090565b6060610689858585610a11565b826040516020016103619291906113d4565b7fc8fcad8db84d3cc18b4c41d551ea0ee66dd599cde068d998e57d5e09332c131e546060906000805160206114b8833981519152908067ffffffffffffffff8111156106e9576106e96113a8565b60405190808252806020026020018201604052801561072f57816020015b6040805180820190915260008152606060208201528152602001906001900390816107075790505b50925060005b81811015610860576000836002018281548110610754576107546113be565b9060005260206000200160009054906101000a90046001600160a01b0316905080858381518110610787576107876113be565b6020908102919091018101516001600160a01b03928316905290821660009081526001860182526040908190208054825181850281018501909352808352919290919083018282801561082657602002820191906000526020600020906000905b82829054906101000a900460e01b6001600160e01b031916815260200190600401906020826003010492830192600103820291508084116107e85790505b505050505085838151811061083d5761083d6113be565b602002602001015160200181905250508080610858906113fd565b915050610735565b50505090565b60285460609060009061ffff1667ffffffffffffffff81111561088b5761088b6113a8565b6040519080825280602002602001820160405280156108b4578160200160208202803683370190505b50905060008060025b60285461ffff16811015610939576108d6602782610e99565b1561091957808483815181106108ee576108ee6113be565b602090810291909101015281610903816113fd565b9250508280610911906113fd565b935050610927565b81610923816113fd565b9250505b80610931816113fd565b9150506108bd565b5060008267ffffffffffffffff811115610955576109556113a8565b60405190808252806020026020018201604052801561097e578160200160208202803683370190505b5090506000805b8551811015610a06578581815181106109a0576109a06113be565b60200260200101516000146109f4578581815181106109c1576109c16113be565b60200260200101518383815181106109db576109db6113be565b6020908102919091010152816109f0816113fd565b9250505b806109fe816113fd565b915050610985565b509095945050505050565b604080518082018252600080825260606020808401829052845160028082529281018652939430949291830190803683370190505090506000856001600160a01b031663313ce5676040518163ffffffff1660e01b8152600401602060405180830381865afa158015610a88573d6000803e3d6000fd5b505050506040513d601f19601f82011682018060405250810190610aac9190611416565b60ff16601214610aca57610ac58764e8d4a51000611439565b610acc565b865b905060006040518060400160405280856001600160a01b0316636260f55b6040518163ffffffff1660e01b8152600401602060405180830381865afa158015610b19573d6000803e3d6000fd5b505050506040513d601f19601f82011682018060405250810190610b3d919061138f565b8152602001610b4b86610e0a565b90529050600260005b81811015610c06576000610bb9670de0b6b3a7640000858460028110610b7c57610b7c6113be565b60200201518415610bb05788610b93600187611450565b81518110610ba357610ba36113be565b6020026020010151610bb2565b875b9190610ebe565b9050610bcc8161ffff8b16612710610ebe565b610bd69082611450565b868381518110610be857610be86113be565b60209081029190910101525080610bfe816113fd565b915050610b54565b5050604080518082019091529788525050602086015250929392505050565b6009546040516370a0823160e01b81523060048201526000916001600160a01b0316906370a0823190602401602060405180830381865afa158015610c6e573d6000803e3d6000fd5b505050506040513d601f19601f82011682018060405250810190610c92919061138f565b90506000826001811115610ca857610ca8611463565b03610d395760025460408051637a12625d60e11b81529051670de0b6b3a7640000926001600160a01b03169163f424c4ba9160048083019260209291908290030181865afa158015610cfe573d6000803e3d6000fd5b505050506040513d601f19601f82011682018060405250810190610d22919061138f565b610d2c9083611439565b610d369190611479565b90505b919050565b6001600160a01b03811660009081527fc8fcad8db84d3cc18b4c41d551ea0ee66dd599cde068d998e57d5e09332c131d602090815260409182902080548351818402810184019094528084526060936000805160206114b88339815191529390929190830182828015610dfd57602002820191906000526020600020906000905b82829054906101000a900460e01b6001600160e01b03191681526020019060040190602082600301049283019260010382029150808411610dbf5790505b5050505050915050919050565b6040805160048152602481019091526020810180516001600160e01b0316636a57db9d60e11b179052600090610e408382610edc565b905080806020019051810190610e56919061138f565b9392505050565b600080610e738585670de0b6b3a7640000610ebe565b9050610e868161ffff8516612710610ebe565b610e909082611450565b95945050505050565b600881901c600090815260208390526040902054600160ff83161b1615155b92915050565b6000826000190484118302158202610ed557600080fd5b5091020490565b6060610e5683836040518060600160405280602581526020016114d8602591396060600080856001600160a01b031685604051610f19919061149b565b600060405180830381855afa9150503d8060008114610f54576040519150601f19603f3d011682016040523d82523d6000602084013e610f59565b606091505b5091509150610f6a86838387610f74565b9695505050505050565b60608315610fe8578251600003610fe1576001600160a01b0385163b610fe15760405162461bcd60e51b815260206004820152601d60248201527f416464726573733a2063616c6c20746f206e6f6e2d636f6e747261637400000060448201526064015b60405180910390fd5b5081610373565b6103738383815115610ffd5781518083602001fd5b8060405162461bcd60e51b8152600401610fd89190611107565b60006020828403121561102957600080fd5b81356001600160e01b031981168114610e5657600080fd5b80356001600160a01b0381168114610d3957600080fd5b803561ffff81168114610d3957600080fd5b6000806000806080858703121561108057600080fd5b8435935061109060208601611041565b925061109e60408601611058565b91506110ac60608601611041565b905092959194509250565b60005b838110156110d25781810151838201526020016110ba565b50506000910152565b600081518084526110f38160208601602086016110b7565b601f01601f19169290920160200192915050565b602081526000610e5660208301846110db565b6020808252825182820181905260009190848201906040850190845b8181101561115b5783516001600160a01b031683529284019291840191600101611136565b50909695505050505050565b60006020828403121561117957600080fd5b610e5682611041565b60008060006060848603121561119757600080fd5b833592506111a760208501611041565b91506111b560408501611058565b90509250925092565b600081518084526020808501945080840160005b838110156111ee578151875295820195908201906001016111d2565b509495945050505050565b8051825260208101516020830152600060408201516060604085015261037360608501826111be565b602081526000610e5660208301846111f9565b600081518084526020808501945080840160005b838110156111ee5781516001600160e01b03191687529582019590820190600101611249565b60006020808301818452808551808352604092508286019150828160051b87010184880160005b838110156112de57888303603f19018552815180516001600160a01b031684528701518784018790526112cb87850182611235565b9588019593505090860190600101611296565b509098975050505050505050565b602081526000610e5660208301846111be565b80518252600060208201516040602085015261037360408501826111be565b602081526000610e5660208301846112ff565b60006020828403121561134357600080fd5b813560028110610e5657600080fd5b602081526000610e566020830184611235565b60408152600061137860408301856111f9565b905060018060a01b03831660208301529392505050565b6000602082840312156113a157600080fd5b5051919050565b634e487b7160e01b600052604160045260246000fd5b634e487b7160e01b600052603260045260246000fd5b60408152600061137860408301856112ff565b634e487b7160e01b600052601160045260246000fd5b60006001820161140f5761140f6113e7565b5060010190565b60006020828403121561142857600080fd5b815160ff81168114610e5657600080fd5b8082028115828204841417610eb857610eb86113e7565b81810381811115610eb857610eb86113e7565b634e487b7160e01b600052602160045260246000fd5b60008261149657634e487b7160e01b600052601260045260246000fd5b500490565b600082516114ad8184602087016110b7565b919091019291505056fec8fcad8db84d3cc18b4c41d551ea0ee66dd599cde068d998e57d5e09332c131c416464726573733a206c6f772d6c6576656c207374617469632063616c6c206661696c6564a2646970667358221220c02e4a46132964f63a3aef5b63cd5eca63ae8bdfcb67ca6a00ed89b95080d31064736f6c63430008150033","linkReferences":{}},"methodIdentifiers":{"facetAddress(bytes4)":"cdffacc6","facetAddresses()":"52ef6b2c","facetFunctionSelectors(address)":"adfca15e","facets()":"7a0ed627","getAdminFee()":"2a905ccc","getDefaultSlippage()":"1a82363e","getEnabledSwitch()":"089e63f0","getLSDs()":"38ab35d4","getMintData(uint256,address,uint16,address)":"635d12cc","getPausedContracts()":"a3e4ed14","getProtocolFee()":"a5a41031","getRedeemData(uint256,address,uint16,address)":"2e19905c","ozTokens(address)":"423f0b91","quoteAmountsIn(uint256,address,uint16)":"a49709b6","quoteAmountsOut(uint256,address,uint16)":"4d2c1487","supportsInterface(bytes4)":"01ffc9a7","totalUnderlying(uint8)":"a4fc284b"},"id":18}