{"abi":[{"type":"function","name":"facetAddress","inputs":[{"name":"_functionSelector","type":"bytes4","internalType":"bytes4"}],"outputs":[{"name":"facetAddress_","type":"address","internalType":"address"}],"stateMutability":"view"},{"type":"function","name":"facetAddresses","inputs":[],"outputs":[{"name":"facetAddresses_","type":"address[]","internalType":"address[]"}],"stateMutability":"view"},{"type":"function","name":"facetFunctionSelectors","inputs":[{"name":"_facet","type":"address","internalType":"address"}],"outputs":[{"name":"facetFunctionSelectors_","type":"bytes4[]","internalType":"bytes4[]"}],"stateMutability":"view"},{"type":"function","name":"facets","inputs":[],"outputs":[{"name":"facets_","type":"tuple[]","internalType":"struct IDiamondLoupe.Facet[]","components":[{"name":"facetAddress","type":"address","internalType":"address"},{"name":"functionSelectors","type":"bytes4[]","internalType":"bytes4[]"}]}],"stateMutability":"view"},{"type":"function","name":"getAdminFee","inputs":[],"outputs":[{"name":"","type":"uint256","internalType":"uint256"}],"stateMutability":"view"},{"type":"function","name":"getDefaultSlippage","inputs":[],"outputs":[{"name":"","type":"uint16","internalType":"uint16"}],"stateMutability":"view"},{"type":"function","name":"getEnabledSwitch","inputs":[],"outputs":[{"name":"","type":"bool","internalType":"bool"}],"stateMutability":"view"},{"type":"function","name":"getLSDs","inputs":[],"outputs":[{"name":"","type":"address[]","internalType":"address[]"}],"stateMutability":"view"},{"type":"function","name":"getMintData","inputs":[{"name":"amountIn_","type":"uint256","internalType":"uint256"},{"name":"underlying_","type":"address","internalType":"address"},{"name":"slippage_","type":"uint16","internalType":"uint16"},{"name":"receiver_","type":"address","internalType":"address"}],"outputs":[{"name":"","type":"bytes","internalType":"bytes"}],"stateMutability":"view"},{"type":"function","name":"getPausedContracts","inputs":[],"outputs":[{"name":"","type":"uint256[]","internalType":"uint256[]"}],"stateMutability":"view"},{"type":"function","name":"getProtocolFee","inputs":[],"outputs":[{"name":"","type":"uint256","internalType":"uint256"}],"stateMutability":"view"},{"type":"function","name":"getRedeemData","inputs":[{"name":"ozAmountIn_","type":"uint256","internalType":"uint256"},{"name":"ozToken_","type":"address","internalType":"address"},{"name":"slippage_","type":"uint16","internalType":"uint16"},{"name":"receiver_","type":"address","internalType":"address"},{"name":"owner_","type":"address","internalType":"address"}],"outputs":[{"name":"","type":"bytes","internalType":"bytes"}],"stateMutability":"view"},{"type":"function","name":"ozTokens","inputs":[{"name":"underlying_","type":"address","internalType":"address"}],"outputs":[{"name":"","type":"address","internalType":"address"}],"stateMutability":"view"},{"type":"function","name":"quoteAmountsIn","inputs":[{"name":"amountIn_","type":"uint256","internalType":"uint256"},{"name":"underlying_","type":"address","internalType":"address"},{"name":"slippage_","type":"uint16","internalType":"uint16"}],"outputs":[{"name":"","type":"tuple","internalType":"struct AmountsIn","components":[{"name":"amountIn","type":"uint256","internalType":"uint256"},{"name":"minAmountsOut","type":"uint256[]","internalType":"uint256[]"}]}],"stateMutability":"view"},{"type":"function","name":"quoteAmountsOut","inputs":[{"name":"ozAmountIn_","type":"uint256","internalType":"uint256"},{"name":"ozToken_","type":"address","internalType":"address"},{"name":"slippage_","type":"uint16","internalType":"uint16"},{"name":"owner_","type":"address","internalType":"address"}],"outputs":[{"name":"","type":"tuple","internalType":"struct AmountsOut","components":[{"name":"ozAmountIn","type":"uint256","internalType":"uint256"},{"name":"amountInReth","type":"uint256","internalType":"uint256"},{"name":"minAmountsOut","type":"uint256[]","internalType":"uint256[]"}]}],"stateMutability":"view"},{"type":"function","name":"supportsInterface","inputs":[{"name":"_interfaceId","type":"bytes4","internalType":"bytes4"}],"outputs":[{"name":"","type":"bool","internalType":"bool"}],"stateMutability":"view"},{"type":"function","name":"totalUnderlying","inputs":[{"name":"type_","type":"uint8","internalType":"enum Asset"}],"outputs":[{"name":"total","type":"uint256","internalType":"uint256"}],"stateMutability":"view"}],"bytecode":{"object":"0x608060405234801561001057600080fd5b50611597806100206000396000f3fe608060405234801561001057600080fd5b506004361061010b5760003560e01c8063635d12cc116100a2578063a49709b611610071578063a49709b614610298578063a4fc284b146102b8578063a5a41031146102cb578063adfca15e146102e2578063cdffacc61461030257600080fd5b8063635d12cc1461023b5780637226e48b1461024e5780637a0ed6271461026e578063a3e4ed141461028357600080fd5b806338ab35d4116100de57806338ab35d4146101ba578063423f0b91146101cf578063435966091461021357806352ef6b2c1461023357600080fd5b806301ffc9a714610110578063089e63f0146101715780631a82363e1461017c5780632a905ccc1461019d575b600080fd5b61015c61011e36600461101e565b6001600160e01b03191660009081527fc8fcad8db84d3cc18b4c41d551ea0ee66dd599cde068d998e57d5e09332c131f602052604090205460ff1690565b60405190151581526020015b60405180910390f35b602a5460ff1661015c565b600754600160a01b900461ffff1660405161ffff9091168152602001610168565b601f54600160a01b900461ffff165b604051908152602001610168565b6101c2610342565b6040516101689190611048565b6101fb6101dd3660046110ac565b6001600160a01b039081166000908152600b60205260409020541690565b6040516001600160a01b039091168152602001610168565b6102266102213660046110d9565b6103a0565b6040516101689190611187565b6101c26103da565b61022661024936600461119a565b61044d565b61026161025c36600461119a565b610486565b604051610168919061124b565b6102766106a2565b6040516101689190611298565b61028b61086d565b6040516101689190611315565b6102ab6102a6366004611328565b610a18565b6040516101689190611383565b6101ac6102c6366004611396565b610c2c565b6013546601000000000000900462ffffff166101ac565b6102f56102f03660046110ac565b610d45565b60405161016891906113b7565b6101fb61031036600461101e565b6001600160e01b031916600090815260008051602061151d83398151915260205260409020546001600160a01b031690565b60208054604080518284028101840190915281815260609290918282018282801561039657602002820191906000526020600020905b81546001600160a01b03168152600190910190602001808311610378575b5050505050905090565b60606103ae86868685610486565b836040516020016103c09291906113ca565b604051602081830303815290604052905095945050505050565b6060600060008051602061151d8339815191526002810180546040805160208084028201810190925282815293945083018282801561044257602002820191906000526020600020905b81546001600160a01b03168152600190910190602001808311610424575b505050505091505090565b606061045a858585610a18565b8260405160200161046c9291906113f4565b60405160208183030381529060405290505b949350505050565b6104aa60405180606001604052806000815260200160008152602001606081525090565b6040516311c0a82160e21b8152600481018690526001600160a01b0383811660248301528591600091831690631dc7f521908290634702a08490604401602060405180830381865afa158015610504573d6000803e3d6000fd5b505050506040513d601f19601f820116820180604052508101906105289190611407565b6040518263ffffffff1660e01b815260040161054691815260200190565b602060405180830381865afa158015610563573d6000803e3d6000fd5b505050506040513d601f19601f820116820180604052508101906105879190611407565b90503060006105a061059883610e11565b849089610e64565b90506000610611836001600160a01b0316636260f55b6040518163ffffffff1660e01b8152600401602060405180830381865afa1580156105e5573d6000803e3d6000fd5b505050506040513d601f19601f820116820180604052508101906106099190611407565b83908a610e64565b6040805160028082526060820183529293506000929091602083019080368337019050509050828160008151811061064b5761064b611436565b602002602001018181525050818160018151811061066b5761066b611436565b60200260200101818152505060405180606001604052808c8152602001868152602001828152509650505050505050949350505050565b7fc8fcad8db84d3cc18b4c41d551ea0ee66dd599cde068d998e57d5e09332c131e5460609060008051602061151d833981519152908067ffffffffffffffff8111156106f0576106f0611420565b60405190808252806020026020018201604052801561073657816020015b60408051808201909152600081526060602082015281526020019060019003908161070e5790505b50925060005b8181101561086757600083600201828154811061075b5761075b611436565b9060005260206000200160009054906101000a90046001600160a01b031690508085838151811061078e5761078e611436565b6020908102919091018101516001600160a01b03928316905290821660009081526001860182526040908190208054825181850281018501909352808352919290919083018282801561082d57602002820191906000526020600020906000905b82829054906101000a900460e01b6001600160e01b031916815260200190600401906020826003010492830192600103820291508084116107ef5790505b505050505085838151811061084457610844611436565b60200260200101516020018190525050808061085f90611462565b91505061073c565b50505090565b60285460609060009061ffff1667ffffffffffffffff81111561089257610892611420565b6040519080825280602002602001820160405280156108bb578160200160208202803683370190505b50905060008060025b60285461ffff16811015610940576108dd602782610ea0565b1561092057808483815181106108f5576108f5611436565b60209081029190910101528161090a81611462565b925050828061091890611462565b93505061092e565b8161092a81611462565b9250505b8061093881611462565b9150506108c4565b5060008267ffffffffffffffff81111561095c5761095c611420565b604051908082528060200260200182016040528015610985578160200160208202803683370190505b5090506000805b8551811015610a0d578581815181106109a7576109a7611436565b60200260200101516000146109fb578581815181106109c8576109c8611436565b60200260200101518383815181106109e2576109e2611436565b6020908102919091010152816109f781611462565b9250505b80610a0581611462565b91505061098c565b509095945050505050565b604080518082018252600080825260606020808401829052845160028082529281018652939430949291830190803683370190505090506000856001600160a01b031663313ce5676040518163ffffffff1660e01b8152600401602060405180830381865afa158015610a8f573d6000803e3d6000fd5b505050506040513d601f19601f82011682018060405250810190610ab3919061147b565b60ff16601214610ad157610acc8764e8d4a5100061149e565b610ad3565b865b905060006040518060400160405280856001600160a01b0316636260f55b6040518163ffffffff1660e01b8152600401602060405180830381865afa158015610b20573d6000803e3d6000fd5b505050506040513d601f19601f82011682018060405250810190610b449190611407565b8152602001610b5286610e11565b90529050600260005b81811015610c0d576000610bc0670de0b6b3a7640000858460028110610b8357610b83611436565b60200201518415610bb75788610b9a6001876114b5565b81518110610baa57610baa611436565b6020026020010151610bb9565b875b9190610ec5565b9050610bd38161ffff8b16612710610ec5565b610bdd90826114b5565b868381518110610bef57610bef611436565b60209081029190910101525080610c0581611462565b915050610b5b565b5050604080518082019091529788525050602086015250929392505050565b6009546040516370a0823160e01b81523060048201526000916001600160a01b0316906370a0823190602401602060405180830381865afa158015610c75573d6000803e3d6000fd5b505050506040513d601f19601f82011682018060405250810190610c999190611407565b90506000826001811115610caf57610caf6114c8565b03610d405760025460408051637a12625d60e11b81529051670de0b6b3a7640000926001600160a01b03169163f424c4ba9160048083019260209291908290030181865afa158015610d05573d6000803e3d6000fd5b505050506040513d601f19601f82011682018060405250810190610d299190611407565b610d33908361149e565b610d3d91906114de565b90505b919050565b6001600160a01b03811660009081527fc8fcad8db84d3cc18b4c41d551ea0ee66dd599cde068d998e57d5e09332c131d6020908152604091829020805483518184028101840190945280845260609360008051602061151d8339815191529390929190830182828015610e0457602002820191906000526020600020906000905b82829054906101000a900460e01b6001600160e01b03191681526020019060040190602082600301049283019260010382029150808411610dc65790505b5050505050915050919050565b6040805160048152602481019091526020810180516001600160e01b0316636a57db9d60e11b179052600090610e478382610ee3565b905080806020019051810190610e5d9190611407565b9392505050565b600080610e7a8585670de0b6b3a7640000610ec5565b9050610e8d8161ffff8516612710610ec5565b610e9790826114b5565b95945050505050565b600881901c600090815260208390526040902054600160ff83161b1615155b92915050565b6000826000190484118302158202610edc57600080fd5b5091020490565b6060610e5d838360405180606001604052806025815260200161153d602591396060600080856001600160a01b031685604051610f209190611500565b600060405180830381855afa9150503d8060008114610f5b576040519150601f19603f3d011682016040523d82523d6000602084013e610f60565b606091505b5091509150610f7186838387610f7b565b9695505050505050565b60608315610fef578251600003610fe8576001600160a01b0385163b610fe85760405162461bcd60e51b815260206004820152601d60248201527f416464726573733a2063616c6c20746f206e6f6e2d636f6e747261637400000060448201526064015b60405180910390fd5b508161047e565b61047e83838151156110045781518083602001fd5b8060405162461bcd60e51b8152600401610fdf9190611187565b60006020828403121561103057600080fd5b81356001600160e01b031981168114610e5d57600080fd5b6020808252825182820181905260009190848201906040850190845b818110156110895783516001600160a01b031683529284019291840191600101611064565b50909695505050505050565b80356001600160a01b0381168114610d4057600080fd5b6000602082840312156110be57600080fd5b610e5d82611095565b803561ffff81168114610d4057600080fd5b600080600080600060a086880312156110f157600080fd5b8535945061110160208701611095565b935061110f604087016110c7565b925061111d60608701611095565b915061112b60808701611095565b90509295509295909350565b60005b8381101561115257818101518382015260200161113a565b50506000910152565b60008151808452611173816020860160208601611137565b601f01601f19169290920160200192915050565b602081526000610e5d602083018461115b565b600080600080608085870312156111b057600080fd5b843593506111c060208601611095565b92506111ce604086016110c7565b91506111dc60608601611095565b905092959194509250565b600081518084526020808501945080840160005b83811015611217578151875295820195908201906001016111fb565b509495945050505050565b8051825260208101516020830152600060408201516060604085015261047e60608501826111e7565b602081526000610e5d6020830184611222565b600081518084526020808501945080840160005b838110156112175781516001600160e01b03191687529582019590820190600101611272565b60006020808301818452808551808352604092508286019150828160051b87010184880160005b8381101561130757888303603f19018552815180516001600160a01b031684528701518784018790526112f48785018261125e565b95880195935050908601906001016112bf565b509098975050505050505050565b602081526000610e5d60208301846111e7565b60008060006060848603121561133d57600080fd5b8335925061134d60208501611095565b915061135b604085016110c7565b90509250925092565b80518252600060208201516040602085015261047e60408501826111e7565b602081526000610e5d6020830184611364565b6000602082840312156113a857600080fd5b813560028110610e5d57600080fd5b602081526000610e5d602083018461125e565b6040815260006113dd6040830185611222565b905060018060a01b03831660208301529392505050565b6040815260006113dd6040830185611364565b60006020828403121561141957600080fd5b5051919050565b634e487b7160e01b600052604160045260246000fd5b634e487b7160e01b600052603260045260246000fd5b634e487b7160e01b600052601160045260246000fd5b6000600182016114745761147461144c565b5060010190565b60006020828403121561148d57600080fd5b815160ff81168114610e5d57600080fd5b8082028115828204841417610ebf57610ebf61144c565b81810381811115610ebf57610ebf61144c565b634e487b7160e01b600052602160045260246000fd5b6000826114fb57634e487b7160e01b600052601260045260246000fd5b500490565b60008251611512818460208701611137565b919091019291505056fec8fcad8db84d3cc18b4c41d551ea0ee66dd599cde068d998e57d5e09332c131c416464726573733a206c6f772d6c6576656c207374617469632063616c6c206661696c6564a2646970667358221220ea7119cdfb6b3516e75109a994c457aca1c52bbcc1952315eeab004e83d0d79c64736f6c63430008150033","linkReferences":{}},"methodIdentifiers":{"facetAddress(bytes4)":"cdffacc6","facetAddresses()":"52ef6b2c","facetFunctionSelectors(address)":"adfca15e","facets()":"7a0ed627","getAdminFee()":"2a905ccc","getDefaultSlippage()":"1a82363e","getEnabledSwitch()":"089e63f0","getLSDs()":"38ab35d4","getMintData(uint256,address,uint16,address)":"635d12cc","getPausedContracts()":"a3e4ed14","getProtocolFee()":"a5a41031","getRedeemData(uint256,address,uint16,address,address)":"43596609","ozTokens(address)":"423f0b91","quoteAmountsIn(uint256,address,uint16)":"a49709b6","quoteAmountsOut(uint256,address,uint16,address)":"7226e48b","supportsInterface(bytes4)":"01ffc9a7","totalUnderlying(uint8)":"a4fc284b"},"id":18}