{"abi":[{"type":"function","name":"facetAddress","inputs":[{"name":"_functionSelector","type":"bytes4","internalType":"bytes4"}],"outputs":[{"name":"facetAddress_","type":"address","internalType":"address"}],"stateMutability":"view"},{"type":"function","name":"facetAddresses","inputs":[],"outputs":[{"name":"facetAddresses_","type":"address[]","internalType":"address[]"}],"stateMutability":"view"},{"type":"function","name":"facetFunctionSelectors","inputs":[{"name":"_facet","type":"address","internalType":"address"}],"outputs":[{"name":"facetFunctionSelectors_","type":"bytes4[]","internalType":"bytes4[]"}],"stateMutability":"view"},{"type":"function","name":"facets","inputs":[],"outputs":[{"name":"facets_","type":"tuple[]","internalType":"struct IDiamondLoupe.Facet[]","components":[{"name":"facetAddress","type":"address","internalType":"address"},{"name":"functionSelectors","type":"bytes4[]","internalType":"bytes4[]"}]}],"stateMutability":"view"},{"type":"function","name":"getAPR","inputs":[],"outputs":[{"name":"","type":"uint256","internalType":"uint256"}],"stateMutability":"view"},{"type":"function","name":"getAdminFee","inputs":[],"outputs":[{"name":"","type":"uint256","internalType":"uint256"}],"stateMutability":"view"},{"type":"function","name":"getDefaultSlippage","inputs":[],"outputs":[{"name":"","type":"uint16","internalType":"uint16"}],"stateMutability":"view"},{"type":"function","name":"getEnabledSwitch","inputs":[],"outputs":[{"name":"","type":"bool","internalType":"bool"}],"stateMutability":"view"},{"type":"function","name":"getLSDs","inputs":[],"outputs":[{"name":"","type":"address[]","internalType":"address[]"}],"stateMutability":"view"},{"type":"function","name":"getMintData","inputs":[{"name":"amountIn_","type":"uint256","internalType":"uint256"},{"name":"slippage_","type":"uint16","internalType":"uint16"},{"name":"receiver_","type":"address","internalType":"address"}],"outputs":[{"name":"","type":"bytes","internalType":"bytes"}],"stateMutability":"view"},{"type":"function","name":"getPausedContracts","inputs":[],"outputs":[{"name":"","type":"uint256[]","internalType":"uint256[]"}],"stateMutability":"view"},{"type":"function","name":"getProtocolFee","inputs":[],"outputs":[{"name":"","type":"uint256","internalType":"uint256"}],"stateMutability":"view"},{"type":"function","name":"getRedeemData","inputs":[{"name":"ozAmountIn_","type":"uint256","internalType":"uint256"},{"name":"ozToken_","type":"address","internalType":"address"},{"name":"slippage_","type":"uint16","internalType":"uint16"},{"name":"receiver_","type":"address","internalType":"address"},{"name":"owner_","type":"address","internalType":"address"}],"outputs":[{"name":"","type":"bytes","internalType":"bytes"}],"stateMutability":"view"},{"type":"function","name":"ozTokens","inputs":[{"name":"underlying_","type":"address","internalType":"address"}],"outputs":[{"name":"","type":"address","internalType":"address"}],"stateMutability":"view"},{"type":"function","name":"quoteAmountsIn","inputs":[{"name":"amountIn_","type":"uint256","internalType":"uint256"},{"name":"slippage_","type":"uint16","internalType":"uint16"}],"outputs":[{"name":"","type":"tuple","internalType":"struct AmountsIn","components":[{"name":"amountIn","type":"uint256","internalType":"uint256"},{"name":"minAmountsOut","type":"uint256[]","internalType":"uint256[]"}]}],"stateMutability":"view"},{"type":"function","name":"quoteAmountsOut","inputs":[{"name":"ozAmountIn_","type":"uint256","internalType":"uint256"},{"name":"ozToken_","type":"address","internalType":"address"},{"name":"slippage_","type":"uint16","internalType":"uint16"},{"name":"owner_","type":"address","internalType":"address"}],"outputs":[{"name":"","type":"tuple","internalType":"struct AmountsOut","components":[{"name":"ozAmountIn","type":"uint256","internalType":"uint256"},{"name":"amountInReth","type":"uint256","internalType":"uint256"},{"name":"minAmountsOut","type":"uint256[]","internalType":"uint256[]"}]}],"stateMutability":"view"},{"type":"function","name":"supportsInterface","inputs":[{"name":"_interfaceId","type":"bytes4","internalType":"bytes4"}],"outputs":[{"name":"","type":"bool","internalType":"bool"}],"stateMutability":"view"},{"type":"function","name":"totalUnderlying","inputs":[{"name":"type_","type":"uint8","internalType":"enum Asset"}],"outputs":[{"name":"total","type":"uint256","internalType":"uint256"}],"stateMutability":"view"}],"bytecode":{"object":"0x608060405234801561001057600080fd5b50611744806100206000396000f3fe608060405234801561001057600080fd5b50600436106101165760003560e01c80637226e48b116100a2578063a4fc284b11610071578063a4fc284b146102c3578063a5a41031146102d6578063adfca15e146102ed578063c89d5b8b1461030d578063cdffacc61461031557600080fd5b80637226e48b146102665780637a0ed627146102865780638c50d4571461029b578063a3e4ed14146102ae57600080fd5b80632a905ccc116100e95780632a905ccc146101c857806338ab35d4146101e5578063423f0b91146101fa578063435966091461023e57806352ef6b2c1461025e57600080fd5b806301ffc9a71461011b578063089e63f01461017c5780631a82363e146101875780631d690aa9146101a8575b600080fd5b610167610129366004611168565b6001600160e01b03191660009081527fc8fcad8db84d3cc18b4c41d551ea0ee66dd599cde068d998e57d5e09332c131f602052604090205460ff1690565b60405190151581526020015b60405180910390f35b602a5460ff16610167565b600754600160a01b900461ffff1660405161ffff9091168152602001610173565b6101bb6101b63660046111a4565b610355565b604051610173919061122a565b601f54600160a01b900461ffff165b604051908152602001610173565b6101ed6104e7565b604051610173919061123d565b6102266102083660046112a1565b6001600160a01b039081166000908152600b60205260409020541690565b6040516001600160a01b039091168152602001610173565b61025161024c3660046112bc565b610545565b604051610173919061136a565b6101ed61057f565b61027961027436600461137d565b6105f2565b60405161017391906113f3565b61028e610904565b6040516101739190611440565b6102516102a93660046114bd565b610acf565b6102b6610b05565b60405161017391906114f9565b6101d76102d1366004611531565b610cc1565b6013546601000000000000900462ffffff166101d7565b6103006102fb3660046112a1565b610dda565b6040516101739190611552565b6101d7610ea6565b610226610323366004611168565b6001600160e01b03191660009081526000805160206116ca83398151915260205260409020546001600160a01b031690565b6040805180820182526000808252606060208084018290528451600280825292810186529394309492918301908036833701905050905060006040518060400160405280846001600160a01b0316636260f55b6040518163ffffffff1660e01b8152600401602060405180830381865afa1580156103d7573d6000803e3d6000fd5b505050506040513d601f19601f820116820180604052508101906103fb919061157b565b815260200161040985610ecb565b90529050600260005b818110156104c4576000610477670de0b6b3a764000085846002811061043a5761043a611594565b6020020151841561046e57876104516001876115c0565b8151811061046157610461611594565b6020026020010151610470565b8b5b9190610f1e565b905061048a8161ffff8a16612710610f1e565b61049490826115c0565b8583815181106104a6576104a6611594565b602090810291909101015250806104bc816115d3565b915050610412565b506040518060400160405280888152602001848152509450505050505b92915050565b60208054604080518284028101840190915281815260609290918282018282801561053b57602002820191906000526020600020905b81546001600160a01b0316815260019091019060200180831161051d575b5050505050905090565b6060610553868686856105f2565b836040516020016105659291906115ec565b604051602081830303815290604052905095945050505050565b606060006000805160206116ca833981519152600281018054604080516020808402820181019092528281529394508301828280156105e757602002820191906000526020600020905b81546001600160a01b031681526001909101906020018083116105c9575b505050505091505090565b61061660405180606001604052806000815260200160008152602001606081525090565b6040516311c0a82160e21b8152600481018690526001600160a01b0383811660248301528591600091831690631dc7f521908290634702a08490604401602060405180830381865afa158015610670573d6000803e3d6000fd5b505050506040513d601f19601f82011682018060405250810190610694919061157b565b6040518263ffffffff1660e01b81526004016106b291815260200190565b602060405180830381865afa1580156106cf573d6000803e3d6000fd5b505050506040513d601f19601f820116820180604052508101906106f3919061157b565b905030600061070c61070483610ecb565b849089610f3c565b9050600061077d836001600160a01b0316636260f55b6040518163ffffffff1660e01b8152600401602060405180830381865afa158015610751573d6000803e3d6000fd5b505050506040513d601f19601f82011682018060405250810190610775919061157b565b83908a610f3c565b905061079760405180602001604052806000815250610f78565b6107c76040518060400160405280600e81526020016d030b6b7bab73a24b72932ba341d160951b81525085610fbe565b6108076040518060400160405280601681526020017502432b63832b939973922aa242fa2aa241427ad149d160551b81525061080285610ecb565b610fbe565b6108386040518060400160405280600b81526020016a039b634b83830b3b2af9d160ad1b8152508961ffff16610fbe565b6108776040518060400160405280601781526020017f6d696e416d6f756e744f757457657468202a2a2a2a3a2000000000000000000081525083610fbe565b60408051600280825260608201835260009260208301908036833701905050905082816000815181106108ac576108ac611594565b60200260200101818152505081816001815181106108cc576108cc611594565b60200260200101818152505060405180606001604052808c81526020018681526020018281525096505050505050505b949350505050565b7fc8fcad8db84d3cc18b4c41d551ea0ee66dd599cde068d998e57d5e09332c131e546060906000805160206116ca833981519152908067ffffffffffffffff81111561095257610952611565565b60405190808252806020026020018201604052801561099857816020015b6040805180820190915260008152606060208201528152602001906001900390816109705790505b50925060005b81811015610ac95760008360020182815481106109bd576109bd611594565b9060005260206000200160009054906101000a90046001600160a01b03169050808583815181106109f0576109f0611594565b6020908102919091018101516001600160a01b039283169052908216600090815260018601825260409081902080548251818502810185019093528083529192909190830182828015610a8f57602002820191906000526020600020906000905b82829054906101000a900460e01b6001600160e01b03191681526020019060040190602082600301049283019260010382029150808411610a515790505b5050505050858381518110610aa657610aa6611594565b602002602001015160200181905250508080610ac1906115d3565b91505061099e565b50505090565b6060610adb8484610355565b82604051602001610aed929190611616565b60405160208183030381529060405290509392505050565b60285460609060009061ffff1667ffffffffffffffff811115610b2a57610b2a611565565b604051908082528060200260200182016040528015610b53578160200160208202803683370190505b50905060008060025b60285461ffff16811015610be957600881901c600090815260276020526040902054600160ff83161b1615610bc95780848381518110610b9e57610b9e611594565b602090810291909101015281610bb3816115d3565b9250508280610bc1906115d3565b935050610bd7565b81610bd3816115d3565b9250505b80610be1816115d3565b915050610b5c565b5060008267ffffffffffffffff811115610c0557610c05611565565b604051908082528060200260200182016040528015610c2e578160200160208202803683370190505b5090506000805b8551811015610cb657858181518110610c5057610c50611594565b6020026020010151600014610ca457858181518110610c7157610c71611594565b6020026020010151838381518110610c8b57610c8b611594565b602090810291909101015281610ca0816115d3565b9250505b80610cae816115d3565b915050610c35565b509095945050505050565b6009546040516370a0823160e01b81523060048201526000916001600160a01b0316906370a0823190602401602060405180830381865afa158015610d0a573d6000803e3d6000fd5b505050506040513d601f19601f82011682018060405250810190610d2e919061157b565b90506000826001811115610d4457610d44611629565b03610dd55760025460408051637a12625d60e11b81529051670de0b6b3a7640000926001600160a01b03169163f424c4ba9160048083019260209291908290030181865afa158015610d9a573d6000803e3d6000fd5b505050506040513d601f19601f82011682018060405250810190610dbe919061157b565b610dc8908361163f565b610dd29190611656565b90505b919050565b6001600160a01b03811660009081527fc8fcad8db84d3cc18b4c41d551ea0ee66dd599cde068d998e57d5e09332c131d602090815260409182902080548351818402810184019094528084526060936000805160206116ca8339815191529390929190830182828015610e9957602002820191906000526020600020906000905b82829054906101000a900460e01b6001600160e01b03191681526020019060040190602082600301049283019260010382029150808411610e5b5790505b5050505050915050919050565b602e54602f54600091600291610ebc9190611678565b610ec69190611656565b905090565b6040805160048152602481019091526020810180516001600160e01b0316636a57db9d60e11b179052600090610f018382611007565b905080806020019051810190610f17919061157b565b9392505050565b6000826000190484118302158202610f3557600080fd5b5091020490565b600080610f528585670de0b6b3a7640000610f1e565b9050610f658161ffff8516612710610f1e565b610f6f90826115c0565b95945050505050565b610fbb81604051602401610f8c919061136a565b60408051601f198184030181529190526020810180516001600160e01b031663104c13eb60e21b17905261102c565b50565b6110038282604051602401610fd492919061168b565b60408051601f198184030181529190526020810180516001600160e01b03166309710a9d60e41b17905261102c565b5050565b6060610f1783836040518060600160405280602581526020016116ea6025913961104d565b80516a636f6e736f6c652e6c6f67602083016000808483855afa5050505050565b6060600080856001600160a01b03168560405161106a91906116ad565b600060405180830381855afa9150503d80600081146110a5576040519150601f19603f3d011682016040523d82523d6000602084013e6110aa565b606091505b50915091506110bb868383876110c5565b9695505050505050565b60608315611139578251600003611132576001600160a01b0385163b6111325760405162461bcd60e51b815260206004820152601d60248201527f416464726573733a2063616c6c20746f206e6f6e2d636f6e747261637400000060448201526064015b60405180910390fd5b50816108fc565b6108fc838381511561114e5781518083602001fd5b8060405162461bcd60e51b8152600401611129919061136a565b60006020828403121561117a57600080fd5b81356001600160e01b031981168114610f1757600080fd5b803561ffff81168114610dd557600080fd5b600080604083850312156111b757600080fd5b823591506111c760208401611192565b90509250929050565b600081518084526020808501945080840160005b83811015611200578151875295820195908201906001016111e4565b509495945050505050565b8051825260006020820151604060208501526108fc60408501826111d0565b602081526000610f17602083018461120b565b6020808252825182820181905260009190848201906040850190845b8181101561127e5783516001600160a01b031683529284019291840191600101611259565b50909695505050505050565b80356001600160a01b0381168114610dd557600080fd5b6000602082840312156112b357600080fd5b610f178261128a565b600080600080600060a086880312156112d457600080fd5b853594506112e46020870161128a565b93506112f260408701611192565b92506113006060870161128a565b915061130e6080870161128a565b90509295509295909350565b60005b8381101561133557818101518382015260200161131d565b50506000910152565b6000815180845261135681602086016020860161131a565b601f01601f19169290920160200192915050565b602081526000610f17602083018461133e565b6000806000806080858703121561139357600080fd5b843593506113a36020860161128a565b92506113b160408601611192565b91506113bf6060860161128a565b905092959194509250565b805182526020810151602083015260006040820151606060408501526108fc60608501826111d0565b602081526000610f1760208301846113ca565b600081518084526020808501945080840160005b838110156112005781516001600160e01b0319168752958201959082019060010161141a565b60006020808301818452808551808352604092508286019150828160051b87010184880160005b838110156114af57888303603f19018552815180516001600160a01b0316845287015187840187905261149c87850182611406565b9588019593505090860190600101611467565b509098975050505050505050565b6000806000606084860312156114d257600080fd5b833592506114e260208501611192565b91506114f06040850161128a565b90509250925092565b6020808252825182820181905260009190848201906040850190845b8181101561127e57835183529284019291840191600101611515565b60006020828403121561154357600080fd5b813560028110610f1757600080fd5b602081526000610f176020830184611406565b634e487b7160e01b600052604160045260246000fd5b60006020828403121561158d57600080fd5b5051919050565b634e487b7160e01b600052603260045260246000fd5b634e487b7160e01b600052601160045260246000fd5b818103818111156104e1576104e16115aa565b6000600182016115e5576115e56115aa565b5060010190565b6040815260006115ff60408301856113ca565b905060018060a01b03831660208301529392505050565b6040815260006115ff604083018561120b565b634e487b7160e01b600052602160045260246000fd5b80820281158282048414176104e1576104e16115aa565b60008261167357634e487b7160e01b600052601260045260246000fd5b500490565b808201808211156104e1576104e16115aa565b60408152600061169e604083018561133e565b90508260208301529392505050565b600082516116bf81846020870161131a565b919091019291505056fec8fcad8db84d3cc18b4c41d551ea0ee66dd599cde068d998e57d5e09332c131c416464726573733a206c6f772d6c6576656c207374617469632063616c6c206661696c6564a2646970667358221220e149f7ff68e7820d9dbb302560ab4c354e6aa9b6522c7e721533995e4ab95e1364736f6c63430008150033","linkReferences":{}},"methodIdentifiers":{"facetAddress(bytes4)":"cdffacc6","facetAddresses()":"52ef6b2c","facetFunctionSelectors(address)":"adfca15e","facets()":"7a0ed627","getAPR()":"c89d5b8b","getAdminFee()":"2a905ccc","getDefaultSlippage()":"1a82363e","getEnabledSwitch()":"089e63f0","getLSDs()":"38ab35d4","getMintData(uint256,uint16,address)":"8c50d457","getPausedContracts()":"a3e4ed14","getProtocolFee()":"a5a41031","getRedeemData(uint256,address,uint16,address,address)":"43596609","ozTokens(address)":"423f0b91","quoteAmountsIn(uint256,uint16)":"1d690aa9","quoteAmountsOut(uint256,address,uint16,address)":"7226e48b","supportsInterface(bytes4)":"01ffc9a7","totalUnderlying(uint8)":"a4fc284b"},"id":16}