{"abi":[{"type":"function","name":"facetAddress","inputs":[{"name":"_functionSelector","type":"bytes4","internalType":"bytes4"}],"outputs":[{"name":"facetAddress_","type":"address","internalType":"address"}],"stateMutability":"view"},{"type":"function","name":"facetAddresses","inputs":[],"outputs":[{"name":"facetAddresses_","type":"address[]","internalType":"address[]"}],"stateMutability":"view"},{"type":"function","name":"facetFunctionSelectors","inputs":[{"name":"_facet","type":"address","internalType":"address"}],"outputs":[{"name":"facetFunctionSelectors_","type":"bytes4[]","internalType":"bytes4[]"}],"stateMutability":"view"},{"type":"function","name":"facets","inputs":[],"outputs":[{"name":"facets_","type":"tuple[]","internalType":"struct IDiamondLoupe.Facet[]","components":[{"name":"facetAddress","type":"address","internalType":"address"},{"name":"functionSelectors","type":"bytes4[]","internalType":"bytes4[]"}]}],"stateMutability":"view"},{"type":"function","name":"getAPR","inputs":[],"outputs":[{"name":"","type":"uint256","internalType":"uint256"}],"stateMutability":"view"},{"type":"function","name":"getAdminFee","inputs":[],"outputs":[{"name":"","type":"uint256","internalType":"uint256"}],"stateMutability":"view"},{"type":"function","name":"getDefaultSlippage","inputs":[],"outputs":[{"name":"","type":"uint16","internalType":"uint16"}],"stateMutability":"view"},{"type":"function","name":"getEnabledSwitch","inputs":[],"outputs":[{"name":"","type":"bool","internalType":"bool"}],"stateMutability":"view"},{"type":"function","name":"getLSDs","inputs":[],"outputs":[{"name":"","type":"address[]","internalType":"address[]"}],"stateMutability":"view"},{"type":"function","name":"getMintData","inputs":[{"name":"amountIn_","type":"uint256","internalType":"uint256"},{"name":"underlying_","type":"address","internalType":"address"},{"name":"slippage_","type":"uint16","internalType":"uint16"},{"name":"receiver_","type":"address","internalType":"address"}],"outputs":[{"name":"","type":"bytes","internalType":"bytes"}],"stateMutability":"view"},{"type":"function","name":"getPausedContracts","inputs":[],"outputs":[{"name":"","type":"uint256[]","internalType":"uint256[]"}],"stateMutability":"view"},{"type":"function","name":"getProtocolFee","inputs":[],"outputs":[{"name":"","type":"uint256","internalType":"uint256"}],"stateMutability":"view"},{"type":"function","name":"getRedeemData","inputs":[{"name":"ozAmountIn_","type":"uint256","internalType":"uint256"},{"name":"ozToken_","type":"address","internalType":"address"},{"name":"slippage_","type":"uint16","internalType":"uint16"},{"name":"receiver_","type":"address","internalType":"address"},{"name":"owner_","type":"address","internalType":"address"}],"outputs":[{"name":"","type":"bytes","internalType":"bytes"}],"stateMutability":"view"},{"type":"function","name":"ozTokens","inputs":[{"name":"underlying_","type":"address","internalType":"address"}],"outputs":[{"name":"","type":"address","internalType":"address"}],"stateMutability":"view"},{"type":"function","name":"quoteAmountsIn","inputs":[{"name":"amountIn_","type":"uint256","internalType":"uint256"},{"name":"underlying_","type":"address","internalType":"address"},{"name":"slippage_","type":"uint16","internalType":"uint16"}],"outputs":[{"name":"","type":"tuple","internalType":"struct AmountsIn","components":[{"name":"amountIn","type":"uint256","internalType":"uint256"},{"name":"minAmountsOut","type":"uint256[]","internalType":"uint256[]"}]}],"stateMutability":"view"},{"type":"function","name":"quoteAmountsOut","inputs":[{"name":"ozAmountIn_","type":"uint256","internalType":"uint256"},{"name":"ozToken_","type":"address","internalType":"address"},{"name":"slippage_","type":"uint16","internalType":"uint16"},{"name":"owner_","type":"address","internalType":"address"}],"outputs":[{"name":"","type":"tuple","internalType":"struct AmountsOut","components":[{"name":"ozAmountIn","type":"uint256","internalType":"uint256"},{"name":"amountInReth","type":"uint256","internalType":"uint256"},{"name":"minAmountsOut","type":"uint256[]","internalType":"uint256[]"}]}],"stateMutability":"view"},{"type":"function","name":"supportsInterface","inputs":[{"name":"_interfaceId","type":"bytes4","internalType":"bytes4"}],"outputs":[{"name":"","type":"bool","internalType":"bool"}],"stateMutability":"view"},{"type":"function","name":"totalUnderlying","inputs":[{"name":"type_","type":"uint8","internalType":"enum Asset"}],"outputs":[{"name":"total","type":"uint256","internalType":"uint256"}],"stateMutability":"view"}],"bytecode":{"object":"0x608060405234801561001057600080fd5b5061164d806100206000396000f3fe608060405234801561001057600080fd5b50600436106101165760003560e01c80637226e48b116100a2578063a4fc284b11610071578063a4fc284b146102c3578063a5a41031146102d6578063adfca15e146102ed578063c89d5b8b1461030d578063cdffacc61461031557600080fd5b80637226e48b146102595780637a0ed62714610279578063a3e4ed141461028e578063a49709b6146102a357600080fd5b806338ab35d4116100e957806338ab35d4146101c5578063423f0b91146101da578063435966091461021e57806352ef6b2c1461023e578063635d12cc1461024657600080fd5b806301ffc9a71461011b578063089e63f01461017c5780631a82363e146101875780632a905ccc146101a8575b600080fd5b610167610129366004611099565b6001600160e01b03191660009081527fc8fcad8db84d3cc18b4c41d551ea0ee66dd599cde068d998e57d5e09332c131f602052604090205460ff1690565b60405190151581526020015b60405180910390f35b602a5460ff16610167565b600754600160a01b900461ffff1660405161ffff9091168152602001610173565b601f54600160a01b900461ffff165b604051908152602001610173565b6101cd610355565b60405161017391906110c3565b6102066101e8366004611127565b6001600160a01b039081166000908152600b60205260409020541690565b6040516001600160a01b039091168152602001610173565b61023161022c366004611154565b6103b3565b6040516101739190611202565b6101cd6103ed565b610231610254366004611215565b610460565b61026c610267366004611215565b610499565b60405161017391906112c6565b610281610715565b6040516101739190611313565b6102966108e0565b6040516101739190611390565b6102b66102b13660046113a3565b610a8b565b60405161017391906113fe565b6101b76102d1366004611411565b610c18565b6013546601000000000000900462ffffff166101b7565b6103006102fb366004611127565b610d31565b6040516101739190611432565b6101b7610dfd565b610206610323366004611099565b6001600160e01b03191660009081526000805160206115aa83398151915260205260409020546001600160a01b031690565b6020805460408051828402810184019091528181526060929091828201828280156103a957602002820191906000526020600020905b81546001600160a01b0316815260019091019060200180831161038b575b5050505050905090565b60606103c186868685610499565b836040516020016103d3929190611445565b604051602081830303815290604052905095945050505050565b606060006000805160206115aa8339815191526002810180546040805160208084028201810190925282815293945083018282801561045557602002820191906000526020600020905b81546001600160a01b03168152600190910190602001808311610437575b505050505091505090565b606061046d858585610a8b565b8260405160200161047f92919061146f565b60405160208183030381529060405290505b949350505050565b6104bd60405180606001604052806000815260200160008152602001606081525090565b6040516311c0a82160e21b8152600481018690526001600160a01b0383811660248301528591600091831690634702a08490604401602060405180830381865afa15801561050f573d6000803e3d6000fd5b505050506040513d601f19601f820116820180604052508101906105339190611482565b90506105576040518060600160405280602981526020016115ca6029913982610e22565b604051631dc7f52160e01b8152600481018290526000906001600160a01b03841690631dc7f52190602401602060405180830381865afa15801561059f573d6000803e3d6000fd5b505050506040513d601f19601f820116820180604052508101906105c39190611482565b90506105fb60405180604001604052806014815260200173030b6b7bab73a24b72932ba341015151515151d160651b81525082610e22565b30600061061261060a83610e6b565b84908a610ebe565b90506000610683836001600160a01b0316636260f55b6040518163ffffffff1660e01b8152600401602060405180830381865afa158015610657573d6000803e3d6000fd5b505050506040513d601f19601f8201168201806040525081019061067b9190611482565b83908b610ebe565b604080516002808252606082018352929350600092909160208301908036833701905050905082816000815181106106bd576106bd6114b1565b60200260200101818152505081816001815181106106dd576106dd6114b1565b60200260200101818152505060405180606001604052808d815260200186815260200182815250975050505050505050949350505050565b7fc8fcad8db84d3cc18b4c41d551ea0ee66dd599cde068d998e57d5e09332c131e546060906000805160206115aa833981519152908067ffffffffffffffff8111156107635761076361149b565b6040519080825280602002602001820160405280156107a957816020015b6040805180820190915260008152606060208201528152602001906001900390816107815790505b50925060005b818110156108da5760008360020182815481106107ce576107ce6114b1565b9060005260206000200160009054906101000a90046001600160a01b0316905080858381518110610801576108016114b1565b6020908102919091018101516001600160a01b0392831690529082166000908152600186018252604090819020805482518185028101850190935280835291929091908301828280156108a057602002820191906000526020600020906000905b82829054906101000a900460e01b6001600160e01b031916815260200190600401906020826003010492830192600103820291508084116108625790505b50505050508583815181106108b7576108b76114b1565b6020026020010151602001819052505080806108d2906114dd565b9150506107af565b50505090565b60285460609060009061ffff1667ffffffffffffffff8111156109055761090561149b565b60405190808252806020026020018201604052801561092e578160200160208202803683370190505b50905060008060025b60285461ffff168110156109b357610950602782610efa565b156109935780848381518110610968576109686114b1565b60209081029190910101528161097d816114dd565b925050828061098b906114dd565b9350506109a1565b8161099d816114dd565b9250505b806109ab816114dd565b915050610937565b5060008267ffffffffffffffff8111156109cf576109cf61149b565b6040519080825280602002602001820160405280156109f8578160200160208202803683370190505b5090506000805b8551811015610a8057858181518110610a1a57610a1a6114b1565b6020026020010151600014610a6e57858181518110610a3b57610a3b6114b1565b6020026020010151838381518110610a5557610a556114b1565b602090810291909101015281610a6a816114dd565b9250505b80610a78816114dd565b9150506109ff565b509095945050505050565b6040805180820182526000808252606060208084018290528451600280825292810186529394309492918301908036833701905050905060006040518060400160405280846001600160a01b0316636260f55b6040518163ffffffff1660e01b8152600401602060405180830381865afa158015610b0d573d6000803e3d6000fd5b505050506040513d601f19601f82011682018060405250810190610b319190611482565b8152602001610b3f85610e6b565b90529050600260005b81811015610bfa576000610bad670de0b6b3a7640000858460028110610b7057610b706114b1565b60200201518415610ba45787610b876001876114f6565b81518110610b9757610b976114b1565b6020026020010151610ba6565b8c5b9190610f1f565b9050610bc08161ffff8a16612710610f1f565b610bca90826114f6565b858381518110610bdc57610bdc6114b1565b60209081029190910101525080610bf2816114dd565b915050610b48565b50506040805180820190915296875250602086015250929392505050565b6009546040516370a0823160e01b81523060048201526000916001600160a01b0316906370a0823190602401602060405180830381865afa158015610c61573d6000803e3d6000fd5b505050506040513d601f19601f82011682018060405250810190610c859190611482565b90506000826001811115610c9b57610c9b611509565b03610d2c5760025460408051637a12625d60e11b81529051670de0b6b3a7640000926001600160a01b03169163f424c4ba9160048083019260209291908290030181865afa158015610cf1573d6000803e3d6000fd5b505050506040513d601f19601f82011682018060405250810190610d159190611482565b610d1f908361151f565b610d299190611536565b90505b919050565b6001600160a01b03811660009081527fc8fcad8db84d3cc18b4c41d551ea0ee66dd599cde068d998e57d5e09332c131d602090815260409182902080548351818402810184019094528084526060936000805160206115aa8339815191529390929190830182828015610df057602002820191906000526020600020906000905b82829054906101000a900460e01b6001600160e01b03191681526020019060040190602082600301049283019260010382029150808411610db25790505b5050505050915050919050565b602e54602f54600091600291610e139190611558565b610e1d9190611536565b905090565b610e678282604051602401610e3892919061156b565b60408051601f198184030181529190526020810180516001600160e01b03166309710a9d60e41b179052610f3d565b5050565b6040805160048152602481019091526020810180516001600160e01b0316636a57db9d60e11b179052600090610ea18382610f5e565b905080806020019051810190610eb79190611482565b9392505050565b600080610ed48585670de0b6b3a7640000610f1f565b9050610ee78161ffff8516612710610f1f565b610ef190826114f6565b95945050505050565b600881901c600090815260208390526040902054600160ff83161b1615155b92915050565b6000826000190484118302158202610f3657600080fd5b5091020490565b80516a636f6e736f6c652e6c6f67602083016000808483855afa5050505050565b6060610eb783836040518060600160405280602581526020016115f3602591396060600080856001600160a01b031685604051610f9b919061158d565b600060405180830381855afa9150503d8060008114610fd6576040519150601f19603f3d011682016040523d82523d6000602084013e610fdb565b606091505b5091509150610fec86838387610ff6565b9695505050505050565b6060831561106a578251600003611063576001600160a01b0385163b6110635760405162461bcd60e51b815260206004820152601d60248201527f416464726573733a2063616c6c20746f206e6f6e2d636f6e747261637400000060448201526064015b60405180910390fd5b5081610491565b610491838381511561107f5781518083602001fd5b8060405162461bcd60e51b815260040161105a9190611202565b6000602082840312156110ab57600080fd5b81356001600160e01b031981168114610eb757600080fd5b6020808252825182820181905260009190848201906040850190845b818110156111045783516001600160a01b0316835292840192918401916001016110df565b50909695505050505050565b80356001600160a01b0381168114610d2c57600080fd5b60006020828403121561113957600080fd5b610eb782611110565b803561ffff81168114610d2c57600080fd5b600080600080600060a0868803121561116c57600080fd5b8535945061117c60208701611110565b935061118a60408701611142565b925061119860608701611110565b91506111a660808701611110565b90509295509295909350565b60005b838110156111cd5781810151838201526020016111b5565b50506000910152565b600081518084526111ee8160208601602086016111b2565b601f01601f19169290920160200192915050565b602081526000610eb760208301846111d6565b6000806000806080858703121561122b57600080fd5b8435935061123b60208601611110565b925061124960408601611142565b915061125760608601611110565b905092959194509250565b600081518084526020808501945080840160005b8381101561129257815187529582019590820190600101611276565b509495945050505050565b805182526020810151602083015260006040820151606060408501526104916060850182611262565b602081526000610eb7602083018461129d565b600081518084526020808501945080840160005b838110156112925781516001600160e01b031916875295820195908201906001016112ed565b60006020808301818452808551808352604092508286019150828160051b87010184880160005b8381101561138257888303603f19018552815180516001600160a01b0316845287015187840187905261136f878501826112d9565b958801959350509086019060010161133a565b509098975050505050505050565b602081526000610eb76020830184611262565b6000806000606084860312156113b857600080fd5b833592506113c860208501611110565b91506113d660408501611142565b90509250925092565b8051825260006020820151604060208501526104916040850182611262565b602081526000610eb760208301846113df565b60006020828403121561142357600080fd5b813560028110610eb757600080fd5b602081526000610eb760208301846112d9565b604081526000611458604083018561129d565b905060018060a01b03831660208301529392505050565b60408152600061145860408301856113df565b60006020828403121561149457600080fd5b5051919050565b634e487b7160e01b600052604160045260246000fd5b634e487b7160e01b600052603260045260246000fd5b634e487b7160e01b600052601160045260246000fd5b6000600182016114ef576114ef6114c7565b5060010190565b81810381811115610f1957610f196114c7565b634e487b7160e01b600052602160045260246000fd5b8082028115828204841417610f1957610f196114c7565b60008261155357634e487b7160e01b600052601260045260246000fd5b500490565b80820180821115610f1957610f196114c7565b60408152600061157e60408301856111d6565b90508260208301529392505050565b6000825161159f8184602087016111b2565b919091019291505056fec8fcad8db84d3cc18b4c41d551ea0ee66dd599cde068d998e57d5e09332c131c737562436f6e76657274546f536861726573286f7a416d6f756e74496e5f2c206f776e65725f293a20416464726573733a206c6f772d6c6576656c207374617469632063616c6c206661696c6564a2646970667358221220b7ba1527779f064a4a572bb3c25f8d99ba43b31d42960fc6bd51d2e0cf9486f164736f6c63430008150033","linkReferences":{}},"methodIdentifiers":{"facetAddress(bytes4)":"cdffacc6","facetAddresses()":"52ef6b2c","facetFunctionSelectors(address)":"adfca15e","facets()":"7a0ed627","getAPR()":"c89d5b8b","getAdminFee()":"2a905ccc","getDefaultSlippage()":"1a82363e","getEnabledSwitch()":"089e63f0","getLSDs()":"38ab35d4","getMintData(uint256,address,uint16,address)":"635d12cc","getPausedContracts()":"a3e4ed14","getProtocolFee()":"a5a41031","getRedeemData(uint256,address,uint16,address,address)":"43596609","ozTokens(address)":"423f0b91","quoteAmountsIn(uint256,address,uint16)":"a49709b6","quoteAmountsOut(uint256,address,uint16,address)":"7226e48b","supportsInterface(bytes4)":"01ffc9a7","totalUnderlying(uint8)":"a4fc284b"},"id":18}