{
  "abi": [
    {
      "inputs": [
        {
          "internalType": "bytes4",
          "name": "_functionSelector",
          "type": "bytes4"
        }
      ],
      "name": "facetAddress",
      "outputs": [
        {
          "internalType": "address",
          "name": "facetAddress_",
          "type": "address"
        }
      ],
      "stateMutability": "view",
      "type": "function"
    },
    {
      "inputs": [],
      "name": "facetAddresses",
      "outputs": [
        {
          "internalType": "address[]",
          "name": "facetAddresses_",
          "type": "address[]"
        }
      ],
      "stateMutability": "view",
      "type": "function"
    },
    {
      "inputs": [
        {
          "internalType": "address",
          "name": "_facet",
          "type": "address"
        }
      ],
      "name": "facetFunctionSelectors",
      "outputs": [
        {
          "internalType": "bytes4[]",
          "name": "facetFunctionSelectors_",
          "type": "bytes4[]"
        }
      ],
      "stateMutability": "view",
      "type": "function"
    },
    {
      "inputs": [],
      "name": "facets",
      "outputs": [
        {
          "components": [
            {
              "internalType": "address",
              "name": "facetAddress",
              "type": "address"
            },
            {
              "internalType": "bytes4[]",
              "name": "functionSelectors",
              "type": "bytes4[]"
            }
          ],
          "internalType": "struct IDiamondLoupe.Facet[]",
          "name": "facets_",
          "type": "tuple[]"
        }
      ],
      "stateMutability": "view",
      "type": "function"
    },
    {
      "inputs": [],
      "name": "getDefaultSlippage",
      "outputs": [
        {
          "internalType": "uint256",
          "name": "",
          "type": "uint256"
        }
      ],
      "stateMutability": "view",
      "type": "function"
    },
    {
      "inputs": [
        {
          "internalType": "bytes4",
          "name": "_interfaceId",
          "type": "bytes4"
        }
      ],
      "name": "supportsInterface",
      "outputs": [
        {
          "internalType": "bool",
          "name": "",
          "type": "bool"
        }
      ],
      "stateMutability": "view",
      "type": "function"
    },
    {
      "inputs": [
        {
          "internalType": "enum Asset",
          "name": "type_",
          "type": "uint8"
        }
      ],
      "name": "totalUnderlying",
      "outputs": [
        {
          "internalType": "uint256",
          "name": "total",
          "type": "uint256"
        }
      ],
      "stateMutability": "view",
      "type": "function"
    }
  ],
  "bytecode": {
    "object": "0x608060405234801561001057600080fd5b506108a9806100206000396000f3fe608060405234801561001057600080fd5b506004361061007d5760003560e01c80637a0ed6271161005b5780637a0ed6271461010a578063a4fc284b1461011f578063adfca15e14610132578063cdffacc61461015257600080fd5b806301ffc9a7146100825780631a82363e146100e357806352ef6b2c146100f5575b600080fd5b6100ce6100903660046105cd565b6001600160e01b03191660009081527fc8fcad8db84d3cc18b4c41d551ea0ee66dd599cde068d998e57d5e09332c131f602052604090205460ff1690565b60405190151581526020015b60405180910390f35b6008545b6040519081526020016100da565b6100fd6101aa565b6040516100da91906105fe565b61011261021d565b6040516100da919061064b565b6100e761012d3660046106fe565b6103e8565b61014561014036600461071f565b610501565b6040516100da9190610748565b6101926101603660046105cd565b6001600160e01b031916600090815260008051602061085483398151915260205260409020546001600160a01b031690565b6040516001600160a01b0390911681526020016100da565b606060006000805160206108548339815191526002810180546040805160208084028201810190925282815293945083018282801561021257602002820191906000526020600020905b81546001600160a01b031681526001909101906020018083116101f4575b505050505091505090565b7fc8fcad8db84d3cc18b4c41d551ea0ee66dd599cde068d998e57d5e09332c131e54606090600080516020610854833981519152908067ffffffffffffffff81111561026b5761026b61078a565b6040519080825280602002602001820160405280156102b157816020015b6040805180820190915260008152606060208201528152602001906001900390816102895790505b50925060005b818110156103e25760008360020182815481106102d6576102d66107a0565b9060005260206000200160009054906101000a90046001600160a01b0316905080858381518110610309576103096107a0565b6020908102919091018101516001600160a01b0392831690529082166000908152600186018252604090819020805482518185028101850190935280835291929091908301828280156103a857602002820191906000526020600020906000905b82829054906101000a900460e01b6001600160e01b0319168152602001906004019060208260030104928301926001038202915080841161036a5790505b50505050508583815181106103bf576103bf6107a0565b6020026020010151602001819052505080806103da906107cc565b9150506102b7565b50505090565b600b546040516370a0823160e01b81523060048201526000916001600160a01b0316906370a0823190602401602060405180830381865afa158015610431573d6000803e3d6000fd5b505050506040513d601f19601f8201168201806040525081019061045591906107e5565b9050600082600181111561046b5761046b6107fe565b036104fc5760025460408051637a12625d60e11b81529051670de0b6b3a7640000926001600160a01b03169163f424c4ba9160048083019260209291908290030181865afa1580156104c1573d6000803e3d6000fd5b505050506040513d601f19601f820116820180604052508101906104e591906107e5565b6104ef9083610814565b6104f99190610831565b90505b919050565b6001600160a01b03811660009081527fc8fcad8db84d3cc18b4c41d551ea0ee66dd599cde068d998e57d5e09332c131d6020908152604091829020805483518184028101840190945280845260609360008051602061085483398151915293909291908301828280156105c057602002820191906000526020600020906000905b82829054906101000a900460e01b6001600160e01b031916815260200190600401906020826003010492830192600103820291508084116105825790505b5050505050915050919050565b6000602082840312156105df57600080fd5b81356001600160e01b0319811681146105f757600080fd5b9392505050565b6020808252825182820181905260009190848201906040850190845b8181101561063f5783516001600160a01b03168352928401929184019160010161061a565b50909695505050505050565b60006020808301818452808551808352604092508286019150828160051b8701018488016000805b848110156106ef57898403603f19018652825180516001600160a01b03168552880151888501889052805188860181905290890190839060608701905b808310156106da5783516001600160e01b0319168252928b019260019290920191908b01906106b0565b50978a01979550505091870191600101610673565b50919998505050505050505050565b60006020828403121561071057600080fd5b8135600281106105f757600080fd5b60006020828403121561073157600080fd5b81356001600160a01b03811681146105f757600080fd5b6020808252825182820181905260009190848201906040850190845b8181101561063f5783516001600160e01b03191683529284019291840191600101610764565b634e487b7160e01b600052604160045260246000fd5b634e487b7160e01b600052603260045260246000fd5b634e487b7160e01b600052601160045260246000fd5b6000600182016107de576107de6107b6565b5060010190565b6000602082840312156107f757600080fd5b5051919050565b634e487b7160e01b600052602160045260246000fd5b808202811582820484141761082b5761082b6107b6565b92915050565b60008261084e57634e487b7160e01b600052601260045260246000fd5b50049056fec8fcad8db84d3cc18b4c41d551ea0ee66dd599cde068d998e57d5e09332c131ca26469706673582212207e20b168dfc702b37ef133014a64c67758a41523d9fcf3e5e2e5e9341b55e5ad64736f6c63430008150033",
    "linkReferences": {}
  },
  "methodIdentifiers": {
    "facetAddress(bytes4)": "cdffacc6",
    "facetAddresses()": "52ef6b2c",
    "facetFunctionSelectors(address)": "adfca15e",
    "facets()": "7a0ed627",
    "getDefaultSlippage()": "1a82363e",
    "supportsInterface(bytes4)": "01ffc9a7",
    "totalUnderlying(uint8)": "a4fc284b"
  },
  "id": 11
}