{"abi":[{"type":"function","name":"facetAddress","inputs":[{"name":"_functionSelector","type":"bytes4","internalType":"bytes4"}],"outputs":[{"name":"facetAddress_","type":"address","internalType":"address"}],"stateMutability":"view"},{"type":"function","name":"facetAddresses","inputs":[],"outputs":[{"name":"facetAddresses_","type":"address[]","internalType":"address[]"}],"stateMutability":"view"},{"type":"function","name":"facetFunctionSelectors","inputs":[{"name":"_facet","type":"address","internalType":"address"}],"outputs":[{"name":"facetFunctionSelectors_","type":"bytes4[]","internalType":"bytes4[]"}],"stateMutability":"view"},{"type":"function","name":"facets","inputs":[],"outputs":[{"name":"facets_","type":"tuple[]","internalType":"struct IDiamondLoupe.Facet[]","components":[{"name":"facetAddress","type":"address","internalType":"address"},{"name":"functionSelectors","type":"bytes4[]","internalType":"bytes4[]"}]}],"stateMutability":"view"},{"type":"function","name":"getAPR","inputs":[],"outputs":[{"name":"","type":"uint256","internalType":"uint256"}],"stateMutability":"view"},{"type":"function","name":"getAdminFee","inputs":[],"outputs":[{"name":"","type":"uint256","internalType":"uint256"}],"stateMutability":"view"},{"type":"function","name":"getDefaultSlippage","inputs":[],"outputs":[{"name":"","type":"uint16","internalType":"uint16"}],"stateMutability":"view"},{"type":"function","name":"getEnabledSwitch","inputs":[],"outputs":[{"name":"","type":"bool","internalType":"bool"}],"stateMutability":"view"},{"type":"function","name":"getLSDs","inputs":[],"outputs":[{"name":"","type":"address[]","internalType":"address[]"}],"stateMutability":"view"},{"type":"function","name":"getMintData","inputs":[{"name":"amountIn_","type":"uint256","internalType":"uint256"},{"name":"underlying_","type":"address","internalType":"address"},{"name":"slippage_","type":"uint16","internalType":"uint16"},{"name":"receiver_","type":"address","internalType":"address"}],"outputs":[{"name":"","type":"bytes","internalType":"bytes"}],"stateMutability":"view"},{"type":"function","name":"getPausedContracts","inputs":[],"outputs":[{"name":"","type":"uint256[]","internalType":"uint256[]"}],"stateMutability":"view"},{"type":"function","name":"getProtocolFee","inputs":[],"outputs":[{"name":"","type":"uint256","internalType":"uint256"}],"stateMutability":"view"},{"type":"function","name":"getRedeemData","inputs":[{"name":"ozAmountIn_","type":"uint256","internalType":"uint256"},{"name":"ozToken_","type":"address","internalType":"address"},{"name":"slippage_","type":"uint16","internalType":"uint16"},{"name":"receiver_","type":"address","internalType":"address"},{"name":"owner_","type":"address","internalType":"address"}],"outputs":[{"name":"","type":"bytes","internalType":"bytes"}],"stateMutability":"view"},{"type":"function","name":"ozTokens","inputs":[{"name":"underlying_","type":"address","internalType":"address"}],"outputs":[{"name":"","type":"address","internalType":"address"}],"stateMutability":"view"},{"type":"function","name":"quoteAmountsIn","inputs":[{"name":"amountIn_","type":"uint256","internalType":"uint256"},{"name":"underlying_","type":"address","internalType":"address"},{"name":"slippage_","type":"uint16","internalType":"uint16"}],"outputs":[{"name":"","type":"tuple","internalType":"struct AmountsIn","components":[{"name":"amountIn","type":"uint256","internalType":"uint256"},{"name":"minAmountsOut","type":"uint256[]","internalType":"uint256[]"}]}],"stateMutability":"view"},{"type":"function","name":"quoteAmountsOut","inputs":[{"name":"ozAmountIn_","type":"uint256","internalType":"uint256"},{"name":"ozToken_","type":"address","internalType":"address"},{"name":"slippage_","type":"uint16","internalType":"uint16"},{"name":"owner_","type":"address","internalType":"address"}],"outputs":[{"name":"","type":"tuple","internalType":"struct AmountsOut","components":[{"name":"ozAmountIn","type":"uint256","internalType":"uint256"},{"name":"amountInReth","type":"uint256","internalType":"uint256"},{"name":"minAmountsOut","type":"uint256[]","internalType":"uint256[]"}]}],"stateMutability":"view"},{"type":"function","name":"supportsInterface","inputs":[{"name":"_interfaceId","type":"bytes4","internalType":"bytes4"}],"outputs":[{"name":"","type":"bool","internalType":"bool"}],"stateMutability":"view"},{"type":"function","name":"totalUnderlying","inputs":[{"name":"type_","type":"uint8","internalType":"enum Asset"}],"outputs":[{"name":"total","type":"uint256","internalType":"uint256"}],"stateMutability":"view"}],"bytecode":{"object":"0x608060405234801561001057600080fd5b50611538806100206000396000f3fe608060405234801561001057600080fd5b50600436106101165760003560e01c80637226e48b116100a2578063a4fc284b11610071578063a4fc284b146102c3578063a5a41031146102d6578063adfca15e146102ed578063c89d5b8b1461030d578063cdffacc61461031557600080fd5b80637226e48b146102595780637a0ed62714610279578063a3e4ed141461028e578063a49709b6146102a357600080fd5b806338ab35d4116100e957806338ab35d4146101c5578063423f0b91146101da578063435966091461021e57806352ef6b2c1461023e578063635d12cc1461024657600080fd5b806301ffc9a71461011b578063089e63f01461017c5780631a82363e146101875780632a905ccc146101a8575b600080fd5b610167610129366004610fcf565b6001600160e01b03191660009081527fc8fcad8db84d3cc18b4c41d551ea0ee66dd599cde068d998e57d5e09332c131f602052604090205460ff1690565b60405190151581526020015b60405180910390f35b602a5460ff16610167565b600754600160a01b900461ffff1660405161ffff9091168152602001610173565b601f54600160a01b900461ffff165b604051908152602001610173565b6101cd610355565b6040516101739190610ff9565b6102066101e836600461105d565b6001600160a01b039081166000908152600b60205260409020541690565b6040516001600160a01b039091168152602001610173565b61023161022c36600461108a565b6103b3565b6040516101739190611138565b6101cd6103ed565b61023161025436600461114b565b610460565b61026c61026736600461114b565b610499565b60405161017391906111fc565b6102816106b5565b6040516101739190611249565b610296610880565b60405161017391906112c6565b6102b66102b13660046112d9565b610a2b565b6040516101739190611334565b6101b76102d1366004611347565b610bb8565b6013546601000000000000900462ffffff166101b7565b6103006102fb36600461105d565b610cd1565b6040516101739190611368565b6101b7610d9d565b610206610323366004610fcf565b6001600160e01b03191660009081526000805160206114be83398151915260205260409020546001600160a01b031690565b6020805460408051828402810184019091528181526060929091828201828280156103a957602002820191906000526020600020905b81546001600160a01b0316815260019091019060200180831161038b575b5050505050905090565b60606103c186868685610499565b836040516020016103d392919061137b565b604051602081830303815290604052905095945050505050565b606060006000805160206114be8339815191526002810180546040805160208084028201810190925282815293945083018282801561045557602002820191906000526020600020905b81546001600160a01b03168152600190910190602001808311610437575b505050505091505090565b606061046d858585610a2b565b8260405160200161047f9291906113a5565b60405160208183030381529060405290505b949350505050565b6104bd60405180606001604052806000815260200160008152602001606081525090565b6040516311c0a82160e21b8152600481018690526001600160a01b0383811660248301528591600091831690631dc7f521908290634702a08490604401602060405180830381865afa158015610517573d6000803e3d6000fd5b505050506040513d601f19601f8201168201806040525081019061053b91906113b8565b6040518263ffffffff1660e01b815260040161055991815260200190565b602060405180830381865afa158015610576573d6000803e3d6000fd5b505050506040513d601f19601f8201168201806040525081019061059a91906113b8565b90503060006105b36105ab83610dc2565b849089610e15565b90506000610624836001600160a01b0316636260f55b6040518163ffffffff1660e01b8152600401602060405180830381865afa1580156105f8573d6000803e3d6000fd5b505050506040513d601f19601f8201168201806040525081019061061c91906113b8565b83908a610e15565b6040805160028082526060820183529293506000929091602083019080368337019050509050828160008151811061065e5761065e6113e7565b602002602001018181525050818160018151811061067e5761067e6113e7565b60200260200101818152505060405180606001604052808c8152602001868152602001828152509650505050505050949350505050565b7fc8fcad8db84d3cc18b4c41d551ea0ee66dd599cde068d998e57d5e09332c131e546060906000805160206114be833981519152908067ffffffffffffffff811115610703576107036113d1565b60405190808252806020026020018201604052801561074957816020015b6040805180820190915260008152606060208201528152602001906001900390816107215790505b50925060005b8181101561087a57600083600201828154811061076e5761076e6113e7565b9060005260206000200160009054906101000a90046001600160a01b03169050808583815181106107a1576107a16113e7565b6020908102919091018101516001600160a01b03928316905290821660009081526001860182526040908190208054825181850281018501909352808352919290919083018282801561084057602002820191906000526020600020906000905b82829054906101000a900460e01b6001600160e01b031916815260200190600401906020826003010492830192600103820291508084116108025790505b5050505050858381518110610857576108576113e7565b60200260200101516020018190525050808061087290611413565b91505061074f565b50505090565b60285460609060009061ffff1667ffffffffffffffff8111156108a5576108a56113d1565b6040519080825280602002602001820160405280156108ce578160200160208202803683370190505b50905060008060025b60285461ffff16811015610953576108f0602782610e51565b156109335780848381518110610908576109086113e7565b60209081029190910101528161091d81611413565b925050828061092b90611413565b935050610941565b8161093d81611413565b9250505b8061094b81611413565b9150506108d7565b5060008267ffffffffffffffff81111561096f5761096f6113d1565b604051908082528060200260200182016040528015610998578160200160208202803683370190505b5090506000805b8551811015610a20578581815181106109ba576109ba6113e7565b6020026020010151600014610a0e578581815181106109db576109db6113e7565b60200260200101518383815181106109f5576109f56113e7565b602090810291909101015281610a0a81611413565b9250505b80610a1881611413565b91505061099f565b509095945050505050565b6040805180820182526000808252606060208084018290528451600280825292810186529394309492918301908036833701905050905060006040518060400160405280846001600160a01b0316636260f55b6040518163ffffffff1660e01b8152600401602060405180830381865afa158015610aad573d6000803e3d6000fd5b505050506040513d601f19601f82011682018060405250810190610ad191906113b8565b8152602001610adf85610dc2565b90529050600260005b81811015610b9a576000610b4d670de0b6b3a7640000858460028110610b1057610b106113e7565b60200201518415610b445787610b2760018761142c565b81518110610b3757610b376113e7565b6020026020010151610b46565b8c5b9190610e76565b9050610b608161ffff8a16612710610e76565b610b6a908261142c565b858381518110610b7c57610b7c6113e7565b60209081029190910101525080610b9281611413565b915050610ae8565b50506040805180820190915296875250602086015250929392505050565b6009546040516370a0823160e01b81523060048201526000916001600160a01b0316906370a0823190602401602060405180830381865afa158015610c01573d6000803e3d6000fd5b505050506040513d601f19601f82011682018060405250810190610c2591906113b8565b90506000826001811115610c3b57610c3b61143f565b03610ccc5760025460408051637a12625d60e11b81529051670de0b6b3a7640000926001600160a01b03169163f424c4ba9160048083019260209291908290030181865afa158015610c91573d6000803e3d6000fd5b505050506040513d601f19601f82011682018060405250810190610cb591906113b8565b610cbf9083611455565b610cc9919061146c565b90505b919050565b6001600160a01b03811660009081527fc8fcad8db84d3cc18b4c41d551ea0ee66dd599cde068d998e57d5e09332c131d602090815260409182902080548351818402810184019094528084526060936000805160206114be8339815191529390929190830182828015610d9057602002820191906000526020600020906000905b82829054906101000a900460e01b6001600160e01b03191681526020019060040190602082600301049283019260010382029150808411610d525790505b5050505050915050919050565b602e54602f54600091600291610db3919061148e565b610dbd919061146c565b905090565b6040805160048152602481019091526020810180516001600160e01b0316636a57db9d60e11b179052600090610df88382610e94565b905080806020019051810190610e0e91906113b8565b9392505050565b600080610e2b8585670de0b6b3a7640000610e76565b9050610e3e8161ffff8516612710610e76565b610e48908261142c565b95945050505050565b600881901c600090815260208390526040902054600160ff83161b1615155b92915050565b6000826000190484118302158202610e8d57600080fd5b5091020490565b6060610e0e83836040518060600160405280602581526020016114de602591396060600080856001600160a01b031685604051610ed191906114a1565b600060405180830381855afa9150503d8060008114610f0c576040519150601f19603f3d011682016040523d82523d6000602084013e610f11565b606091505b5091509150610f2286838387610f2c565b9695505050505050565b60608315610fa0578251600003610f99576001600160a01b0385163b610f995760405162461bcd60e51b815260206004820152601d60248201527f416464726573733a2063616c6c20746f206e6f6e2d636f6e747261637400000060448201526064015b60405180910390fd5b5081610491565b6104918383815115610fb55781518083602001fd5b8060405162461bcd60e51b8152600401610f909190611138565b600060208284031215610fe157600080fd5b81356001600160e01b031981168114610e0e57600080fd5b6020808252825182820181905260009190848201906040850190845b8181101561103a5783516001600160a01b031683529284019291840191600101611015565b50909695505050505050565b80356001600160a01b0381168114610ccc57600080fd5b60006020828403121561106f57600080fd5b610e0e82611046565b803561ffff81168114610ccc57600080fd5b600080600080600060a086880312156110a257600080fd5b853594506110b260208701611046565b93506110c060408701611078565b92506110ce60608701611046565b91506110dc60808701611046565b90509295509295909350565b60005b838110156111035781810151838201526020016110eb565b50506000910152565b600081518084526111248160208601602086016110e8565b601f01601f19169290920160200192915050565b602081526000610e0e602083018461110c565b6000806000806080858703121561116157600080fd5b8435935061117160208601611046565b925061117f60408601611078565b915061118d60608601611046565b905092959194509250565b600081518084526020808501945080840160005b838110156111c8578151875295820195908201906001016111ac565b509495945050505050565b805182526020810151602083015260006040820151606060408501526104916060850182611198565b602081526000610e0e60208301846111d3565b600081518084526020808501945080840160005b838110156111c85781516001600160e01b03191687529582019590820190600101611223565b60006020808301818452808551808352604092508286019150828160051b87010184880160005b838110156112b857888303603f19018552815180516001600160a01b031684528701518784018790526112a58785018261120f565b9588019593505090860190600101611270565b509098975050505050505050565b602081526000610e0e6020830184611198565b6000806000606084860312156112ee57600080fd5b833592506112fe60208501611046565b915061130c60408501611078565b90509250925092565b8051825260006020820151604060208501526104916040850182611198565b602081526000610e0e6020830184611315565b60006020828403121561135957600080fd5b813560028110610e0e57600080fd5b602081526000610e0e602083018461120f565b60408152600061138e60408301856111d3565b905060018060a01b03831660208301529392505050565b60408152600061138e6040830185611315565b6000602082840312156113ca57600080fd5b5051919050565b634e487b7160e01b600052604160045260246000fd5b634e487b7160e01b600052603260045260246000fd5b634e487b7160e01b600052601160045260246000fd5b600060018201611425576114256113fd565b5060010190565b81810381811115610e7057610e706113fd565b634e487b7160e01b600052602160045260246000fd5b8082028115828204841417610e7057610e706113fd565b60008261148957634e487b7160e01b600052601260045260246000fd5b500490565b80820180821115610e7057610e706113fd565b600082516114b38184602087016110e8565b919091019291505056fec8fcad8db84d3cc18b4c41d551ea0ee66dd599cde068d998e57d5e09332c131c416464726573733a206c6f772d6c6576656c207374617469632063616c6c206661696c6564a26469706673582212202fa9ff4cbfba1e1db1611819aed8ed750b335f57b1a84d5a923155eacfb7428564736f6c63430008150033","linkReferences":{}},"methodIdentifiers":{"facetAddress(bytes4)":"cdffacc6","facetAddresses()":"52ef6b2c","facetFunctionSelectors(address)":"adfca15e","facets()":"7a0ed627","getAPR()":"c89d5b8b","getAdminFee()":"2a905ccc","getDefaultSlippage()":"1a82363e","getEnabledSwitch()":"089e63f0","getLSDs()":"38ab35d4","getMintData(uint256,address,uint16,address)":"635d12cc","getPausedContracts()":"a3e4ed14","getProtocolFee()":"a5a41031","getRedeemData(uint256,address,uint16,address,address)":"43596609","ozTokens(address)":"423f0b91","quoteAmountsIn(uint256,address,uint16)":"a49709b6","quoteAmountsOut(uint256,address,uint16,address)":"7226e48b","supportsInterface(bytes4)":"01ffc9a7","totalUnderlying(uint8)":"a4fc284b"},"id":18}