{
  "abi": [
    {
      "inputs": [
        {
          "internalType": "bytes4",
          "name": "_functionSelector",
          "type": "bytes4"
        }
      ],
      "name": "facetAddress",
      "outputs": [
        {
          "internalType": "address",
          "name": "facetAddress_",
          "type": "address"
        }
      ],
      "stateMutability": "view",
      "type": "function"
    },
    {
      "inputs": [],
      "name": "facetAddresses",
      "outputs": [
        {
          "internalType": "address[]",
          "name": "facetAddresses_",
          "type": "address[]"
        }
      ],
      "stateMutability": "view",
      "type": "function"
    },
    {
      "inputs": [
        {
          "internalType": "address",
          "name": "_facet",
          "type": "address"
        }
      ],
      "name": "facetFunctionSelectors",
      "outputs": [
        {
          "internalType": "bytes4[]",
          "name": "facetFunctionSelectors_",
          "type": "bytes4[]"
        }
      ],
      "stateMutability": "view",
      "type": "function"
    },
    {
      "inputs": [],
      "name": "facets",
      "outputs": [
        {
          "components": [
            {
              "internalType": "address",
              "name": "facetAddress",
              "type": "address"
            },
            {
              "internalType": "bytes4[]",
              "name": "functionSelectors",
              "type": "bytes4[]"
            }
          ],
          "internalType": "struct IDiamondLoupe.Facet[]",
          "name": "facets_",
          "type": "tuple[]"
        }
      ],
      "stateMutability": "view",
      "type": "function"
    },
    {
      "inputs": [],
      "name": "getDefaultSlippage",
      "outputs": [
        {
          "internalType": "uint16",
          "name": "",
          "type": "uint16"
        }
      ],
      "stateMutability": "view",
      "type": "function"
    },
    {
      "inputs": [],
      "name": "getProtocolFee",
      "outputs": [
        {
          "internalType": "uint256",
          "name": "",
          "type": "uint256"
        }
      ],
      "stateMutability": "view",
      "type": "function"
    },
    {
      "inputs": [
        {
          "internalType": "address",
          "name": "underlying_",
          "type": "address"
        }
      ],
      "name": "ozTokens",
      "outputs": [
        {
          "internalType": "address",
          "name": "",
          "type": "address"
        }
      ],
      "stateMutability": "view",
      "type": "function"
    },
    {
      "inputs": [
        {
          "internalType": "bytes4",
          "name": "_interfaceId",
          "type": "bytes4"
        }
      ],
      "name": "supportsInterface",
      "outputs": [
        {
          "internalType": "bool",
          "name": "",
          "type": "bool"
        }
      ],
      "stateMutability": "view",
      "type": "function"
    },
    {
      "inputs": [
        {
          "internalType": "enum Asset",
          "name": "type_",
          "type": "uint8"
        }
      ],
      "name": "totalUnderlying",
      "outputs": [
        {
          "internalType": "uint256",
          "name": "total",
          "type": "uint256"
        }
      ],
      "stateMutability": "view",
      "type": "function"
    },
    {
      "inputs": [],
      "name": "tradingPackage",
      "outputs": [
        {
          "components": [
            {
              "internalType": "address",
              "name": "swapRouterUni",
              "type": "address"
            },
            {
              "internalType": "uint24",
              "name": "uniFee",
              "type": "uint24"
            },
            {
              "internalType": "address",
              "name": "rEthWethPoolBalancer",
              "type": "address"
            },
            {
              "internalType": "address",
              "name": "queriesBalancer",
              "type": "address"
            },
            {
              "internalType": "address",
              "name": "vaultBalancer",
              "type": "address"
            },
            {
              "internalType": "address",
              "name": "ETH",
              "type": "address"
            },
            {
              "internalType": "address",
              "name": "rETH",
              "type": "address"
            },
            {
              "internalType": "address",
              "name": "WETH",
              "type": "address"
            }
          ],
          "internalType": "struct TradingPackage",
          "name": "",
          "type": "tuple"
        }
      ],
      "stateMutability": "view",
      "type": "function"
    }
  ],
  "bytecode": {
    "object": "0x608060405234801561001057600080fd5b50610a4b806100206000396000f3fe608060405234801561001057600080fd5b506004361061009e5760003560e01c8063a4fc284b11610066578063a4fc284b14610193578063a5a41031146101b4578063adfca15e146101c1578063b73a8951146101e1578063cdffacc61461030c57600080fd5b806301ffc9a7146100a35780631a82363e14610104578063423f0b911461012557806352ef6b2c146101695780637a0ed6271461017e575b600080fd5b6100ef6100b136600461076f565b6001600160e01b03191660009081527fc8fcad8db84d3cc18b4c41d551ea0ee66dd599cde068d998e57d5e09332c131f602052604090205460ff1690565b60405190151581526020015b60405180910390f35b600754600160a01b900461ffff1660405161ffff90911681526020016100fb565b6101516101333660046107a0565b6001600160a01b039081166000908152600c60205260409020541690565b6040516001600160a01b0390911681526020016100fb565b61017161034c565b6040516100fb91906107c9565b6101866103bf565b6040516100fb9190610816565b6101a66101a13660046108c9565b61058a565b6040519081526020016100fb565b60165462ffffff166101a6565b6101d46101cf3660046107a0565b6106a3565b6040516100fb91906108ea565b6102956040805161010081018252600080825260208201819052918101829052606081018290526080810182905260a0810182905260c0810182905260e08101919091525060408051610100810182526022546001600160a01b038082168352600160a01b90910462ffffff1660208301526023548116928201929092526024548216606082015260255482166080820152602654821660a0820152602754821660c082015260285490911660e082015290565b6040516100fb919081516001600160a01b03908116825260208084015162ffffff169083015260408084015182169083015260608084015182169083015260808084015182169083015260a08084015182169083015260c08084015182169083015260e09283015116918101919091526101000190565b61015161031a36600461076f565b6001600160e01b03191660009081526000805160206109f683398151915260205260409020546001600160a01b031690565b606060006000805160206109f6833981519152600281018054604080516020808402820181019092528281529394508301828280156103b457602002820191906000526020600020905b81546001600160a01b03168152600190910190602001808311610396575b505050505091505090565b7fc8fcad8db84d3cc18b4c41d551ea0ee66dd599cde068d998e57d5e09332c131e546060906000805160206109f6833981519152908067ffffffffffffffff81111561040d5761040d61092c565b60405190808252806020026020018201604052801561045357816020015b60408051808201909152600081526060602082015281526020019060019003908161042b5790505b50925060005b8181101561058457600083600201828154811061047857610478610942565b9060005260206000200160009054906101000a90046001600160a01b03169050808583815181106104ab576104ab610942565b6020908102919091018101516001600160a01b03928316905290821660009081526001860182526040908190208054825181850281018501909352808352919290919083018282801561054a57602002820191906000526020600020906000905b82829054906101000a900460e01b6001600160e01b0319168152602001906004019060208260030104928301926001038202915080841161050c5790505b505050505085838151811061056157610561610942565b60200260200101516020018190525050808061057c9061096e565b915050610459565b50505090565b600a546040516370a0823160e01b81523060048201526000916001600160a01b0316906370a0823190602401602060405180830381865afa1580156105d3573d6000803e3d6000fd5b505050506040513d601f19601f820116820180604052508101906105f79190610987565b9050600082600181111561060d5761060d6109a0565b0361069e5760025460408051637a12625d60e11b81529051670de0b6b3a7640000926001600160a01b03169163f424c4ba9160048083019260209291908290030181865afa158015610663573d6000803e3d6000fd5b505050506040513d601f19601f820116820180604052508101906106879190610987565b61069190836109b6565b61069b91906109d3565b90505b919050565b6001600160a01b03811660009081527fc8fcad8db84d3cc18b4c41d551ea0ee66dd599cde068d998e57d5e09332c131d602090815260409182902080548351818402810184019094528084526060936000805160206109f6833981519152939092919083018282801561076257602002820191906000526020600020906000905b82829054906101000a900460e01b6001600160e01b031916815260200190600401906020826003010492830192600103820291508084116107245790505b5050505050915050919050565b60006020828403121561078157600080fd5b81356001600160e01b03198116811461079957600080fd5b9392505050565b6000602082840312156107b257600080fd5b81356001600160a01b038116811461079957600080fd5b6020808252825182820181905260009190848201906040850190845b8181101561080a5783516001600160a01b0316835292840192918401916001016107e5565b50909695505050505050565b60006020808301818452808551808352604092508286019150828160051b8701018488016000805b848110156108ba57898403603f19018652825180516001600160a01b03168552880151888501889052805188860181905290890190839060608701905b808310156108a55783516001600160e01b0319168252928b019260019290920191908b019061087b565b50978a0197955050509187019160010161083e565b50919998505050505050505050565b6000602082840312156108db57600080fd5b81356002811061079957600080fd5b6020808252825182820181905260009190848201906040850190845b8181101561080a5783516001600160e01b03191683529284019291840191600101610906565b634e487b7160e01b600052604160045260246000fd5b634e487b7160e01b600052603260045260246000fd5b634e487b7160e01b600052601160045260246000fd5b60006001820161098057610980610958565b5060010190565b60006020828403121561099957600080fd5b5051919050565b634e487b7160e01b600052602160045260246000fd5b80820281158282048414176109cd576109cd610958565b92915050565b6000826109f057634e487b7160e01b600052601260045260246000fd5b50049056fec8fcad8db84d3cc18b4c41d551ea0ee66dd599cde068d998e57d5e09332c131ca2646970667358221220d8e8f0cdc33937cf20b2fd5616b702dc0d8da723c04c0f0a52d37c75fe09b8ed64736f6c63430008150033",
    "linkReferences": {}
  },
  "methodIdentifiers": {
    "facetAddress(bytes4)": "cdffacc6",
    "facetAddresses()": "52ef6b2c",
    "facetFunctionSelectors(address)": "adfca15e",
    "facets()": "7a0ed627",
    "getDefaultSlippage()": "1a82363e",
    "getProtocolFee()": "a5a41031",
    "ozTokens(address)": "423f0b91",
    "supportsInterface(bytes4)": "01ffc9a7",
    "totalUnderlying(uint8)": "a4fc284b",
    "tradingPackage()": "b73a8951"
  },
  "id": 16
}