{"abi":[{"type":"function","name":"facetAddress","inputs":[{"name":"_functionSelector","type":"bytes4","internalType":"bytes4"}],"outputs":[{"name":"facetAddress_","type":"address","internalType":"address"}],"stateMutability":"view"},{"type":"function","name":"facetAddresses","inputs":[],"outputs":[{"name":"facetAddresses_","type":"address[]","internalType":"address[]"}],"stateMutability":"view"},{"type":"function","name":"facetFunctionSelectors","inputs":[{"name":"_facet","type":"address","internalType":"address"}],"outputs":[{"name":"facetFunctionSelectors_","type":"bytes4[]","internalType":"bytes4[]"}],"stateMutability":"view"},{"type":"function","name":"facets","inputs":[],"outputs":[{"name":"facets_","type":"tuple[]","internalType":"struct IDiamondLoupe.Facet[]","components":[{"name":"facetAddress","type":"address","internalType":"address"},{"name":"functionSelectors","type":"bytes4[]","internalType":"bytes4[]"}]}],"stateMutability":"view"},{"type":"function","name":"getAdminFee","inputs":[],"outputs":[{"name":"","type":"uint256","internalType":"uint256"}],"stateMutability":"view"},{"type":"function","name":"getDefaultSlippage","inputs":[],"outputs":[{"name":"","type":"uint16","internalType":"uint16"}],"stateMutability":"view"},{"type":"function","name":"getEnabledSwitch","inputs":[],"outputs":[{"name":"","type":"bool","internalType":"bool"}],"stateMutability":"view"},{"type":"function","name":"getLSDs","inputs":[],"outputs":[{"name":"","type":"address[]","internalType":"address[]"}],"stateMutability":"view"},{"type":"function","name":"getMintData","inputs":[{"name":"amountIn_","type":"uint256","internalType":"uint256"},{"name":"underlying_","type":"address","internalType":"address"},{"name":"slippage_","type":"uint16","internalType":"uint16"},{"name":"receiver_","type":"address","internalType":"address"}],"outputs":[{"name":"","type":"bytes","internalType":"bytes"}],"stateMutability":"view"},{"type":"function","name":"getPausedContracts","inputs":[],"outputs":[{"name":"","type":"uint256[]","internalType":"uint256[]"}],"stateMutability":"view"},{"type":"function","name":"getProtocolFee","inputs":[],"outputs":[{"name":"","type":"uint256","internalType":"uint256"}],"stateMutability":"view"},{"type":"function","name":"getRedeemData","inputs":[{"name":"ozAmountIn_","type":"uint256","internalType":"uint256"},{"name":"ozToken_","type":"address","internalType":"address"},{"name":"slippage_","type":"uint16","internalType":"uint16"},{"name":"receiver_","type":"address","internalType":"address"},{"name":"owner_","type":"address","internalType":"address"}],"outputs":[{"name":"","type":"bytes","internalType":"bytes"}],"stateMutability":"view"},{"type":"function","name":"ozTokens","inputs":[{"name":"underlying_","type":"address","internalType":"address"}],"outputs":[{"name":"","type":"address","internalType":"address"}],"stateMutability":"view"},{"type":"function","name":"quoteAmountsIn","inputs":[{"name":"amountIn_","type":"uint256","internalType":"uint256"},{"name":"underlying_","type":"address","internalType":"address"},{"name":"slippage_","type":"uint16","internalType":"uint16"}],"outputs":[{"name":"","type":"tuple","internalType":"struct AmountsIn","components":[{"name":"amountIn","type":"uint256","internalType":"uint256"},{"name":"minAmountsOut","type":"uint256[]","internalType":"uint256[]"}]}],"stateMutability":"view"},{"type":"function","name":"quoteAmountsOut","inputs":[{"name":"ozAmountIn_","type":"uint256","internalType":"uint256"},{"name":"ozToken_","type":"address","internalType":"address"},{"name":"slippage_","type":"uint16","internalType":"uint16"},{"name":"owner_","type":"address","internalType":"address"}],"outputs":[{"name":"","type":"tuple","internalType":"struct AmountsOut","components":[{"name":"ozAmountIn","type":"uint256","internalType":"uint256"},{"name":"amountInReth","type":"uint256","internalType":"uint256"},{"name":"minAmountsOut","type":"uint256[]","internalType":"uint256[]"}]}],"stateMutability":"view"},{"type":"function","name":"supportsInterface","inputs":[{"name":"_interfaceId","type":"bytes4","internalType":"bytes4"}],"outputs":[{"name":"","type":"bool","internalType":"bool"}],"stateMutability":"view"},{"type":"function","name":"totalUnderlying","inputs":[{"name":"type_","type":"uint8","internalType":"enum Asset"}],"outputs":[{"name":"total","type":"uint256","internalType":"uint256"}],"stateMutability":"view"}],"bytecode":{"object":"0x608060405234801561001057600080fd5b50611909806100206000396000f3fe608060405234801561001057600080fd5b506004361061010b5760003560e01c8063635d12cc116100a2578063a49709b611610071578063a49709b614610298578063a4fc284b146102b8578063a5a41031146102cb578063adfca15e146102e2578063cdffacc61461030257600080fd5b8063635d12cc1461023b5780637226e48b1461024e5780637a0ed6271461026e578063a3e4ed141461028357600080fd5b806338ab35d4116100de57806338ab35d4146101ba578063423f0b91146101cf578063435966091461021357806352ef6b2c1461023357600080fd5b806301ffc9a714610110578063089e63f0146101715780631a82363e1461017c5780632a905ccc1461019d575b600080fd5b61015c61011e36600461133e565b6001600160e01b03191660009081527fc8fcad8db84d3cc18b4c41d551ea0ee66dd599cde068d998e57d5e09332c131f602052604090205460ff1690565b60405190151581526020015b60405180910390f35b602a5460ff1661015c565b600754600160a01b900461ffff1660405161ffff9091168152602001610168565b601f54600160a01b900461ffff165b604051908152602001610168565b6101c2610342565b6040516101689190611368565b6101fb6101dd3660046113cc565b6001600160a01b039081166000908152600b60205260409020541690565b6040516001600160a01b039091168152602001610168565b6102266102213660046113f9565b6103a0565b60405161016891906114a7565b6101c26103da565b6102266102493660046114ba565b61044d565b61026161025c3660046114ba565b610486565b604051610168919061156b565b6102766106a2565b60405161016891906115b8565b61028b61086d565b6040516101689190611635565b6102ab6102a6366004611648565b610a18565b60405161016891906116a3565b6101ac6102c63660046116b6565b610e4b565b6013546601000000000000900462ffffff166101ac565b6102f56102f03660046113cc565b610f64565b60405161016891906116d7565b6101fb61031036600461133e565b6001600160e01b031916600090815260008051602061186583398151915260205260409020546001600160a01b031690565b60208054604080518284028101840190915281815260609290918282018282801561039657602002820191906000526020600020905b81546001600160a01b03168152600190910190602001808311610378575b5050505050905090565b60606103ae86868685610486565b836040516020016103c09291906116ea565b604051602081830303815290604052905095945050505050565b606060006000805160206118658339815191526002810180546040805160208084028201810190925282815293945083018282801561044257602002820191906000526020600020905b81546001600160a01b03168152600190910190602001808311610424575b505050505091505090565b606061045a858585610a18565b8260405160200161046c929190611714565b60405160208183030381529060405290505b949350505050565b6104aa60405180606001604052806000815260200160008152602001606081525090565b6040516311c0a82160e21b8152600481018690526001600160a01b0383811660248301528591600091831690631dc7f521908290634702a08490604401602060405180830381865afa158015610504573d6000803e3d6000fd5b505050506040513d601f19601f820116820180604052508101906105289190611727565b6040518263ffffffff1660e01b815260040161054691815260200190565b602060405180830381865afa158015610563573d6000803e3d6000fd5b505050506040513d601f19601f820116820180604052508101906105879190611727565b90503060006105a061059883611030565b849089611083565b90506000610611836001600160a01b0316636260f55b6040518163ffffffff1660e01b8152600401602060405180830381865afa1580156105e5573d6000803e3d6000fd5b505050506040513d601f19601f820116820180604052508101906106099190611727565b83908a611083565b6040805160028082526060820183529293506000929091602083019080368337019050509050828160008151811061064b5761064b611756565b602002602001018181525050818160018151811061066b5761066b611756565b60200260200101818152505060405180606001604052808c8152602001868152602001828152509650505050505050949350505050565b7fc8fcad8db84d3cc18b4c41d551ea0ee66dd599cde068d998e57d5e09332c131e54606090600080516020611865833981519152908067ffffffffffffffff8111156106f0576106f0611740565b60405190808252806020026020018201604052801561073657816020015b60408051808201909152600081526060602082015281526020019060019003908161070e5790505b50925060005b8181101561086757600083600201828154811061075b5761075b611756565b9060005260206000200160009054906101000a90046001600160a01b031690508085838151811061078e5761078e611756565b6020908102919091018101516001600160a01b03928316905290821660009081526001860182526040908190208054825181850281018501909352808352919290919083018282801561082d57602002820191906000526020600020906000905b82829054906101000a900460e01b6001600160e01b031916815260200190600401906020826003010492830192600103820291508084116107ef5790505b505050505085838151811061084457610844611756565b60200260200101516020018190525050808061085f90611782565b91505061073c565b50505090565b60285460609060009061ffff1667ffffffffffffffff81111561089257610892611740565b6040519080825280602002602001820160405280156108bb578160200160208202803683370190505b50905060008060025b60285461ffff16811015610940576108dd6027826110bf565b1561092057808483815181106108f5576108f5611756565b60209081029190910101528161090a81611782565b925050828061091890611782565b93505061092e565b8161092a81611782565b9250505b8061093881611782565b9150506108c4565b5060008267ffffffffffffffff81111561095c5761095c611740565b604051908082528060200260200182016040528015610985578160200160208202803683370190505b5090506000805b8551811015610a0d578581815181106109a7576109a7611756565b60200260200101516000146109fb578581815181106109c8576109c8611756565b60200260200101518383815181106109e2576109e2611756565b6020908102919091010152816109f781611782565b9250505b80610a0581611782565b91505061098c565b509095945050505050565b604080518082019091526000815260606020820152610a45604051806020016040528060008152506110e4565b610a766040518060400160405280601081526020016f2d2d2d20696e206c6f757065202d2d2d60801b8152506110e4565b6040805160028082526060820183523092600092919060208301908036833701905050905060006040518060400160405280846001600160a01b0316636260f55b6040518163ffffffff1660e01b8152600401602060405180830381865afa158015610ae6573d6000803e3d6000fd5b505050506040513d601f19601f82011682018060405250810190610b0a9190611727565b8152602001610b1885611030565b9052604080518082019091526009815268032ba342fbab9b21d160bd1b6020820152909150610b4f908260005b602002015161112a565b60408051808201909152600a81526903932ba342fb2ba341d160b51b6020820152610b7c90826001610b45565b610bae6040518060400160405280601081526020016f030b6b7bab73a24b71016903ab9b21d160851b8152508861112a565b600260005b81811015610d6a57610bd3604051806020016040528060008152506110e4565b610c246040518060600160405280602a8152602001611885602a91398215610c1e5785610c0160018561179b565b81518110610c1157610c11611756565b602002602001015161112a565b8a61112a565b610c57604051806040016040528060098152602001680189032ba3432b91d160bd1b815250670de0b6b3a764000061112a565b610c906040518060400160405280600b81526020016a0383934b1b2b9adb4ae9d160ad1b815250848360028110610b4557610b45611756565b6000610ced670de0b6b3a7640000858460028110610cb057610cb0611756565b60200201518415610ce45787610cc760018761179b565b81518110610cd757610cd7611756565b6020026020010151610ce6565b8c5b9190611173565b9050610d1f826040518060400160405280600d81526020016c01032bc3832b1ba32b227baba1609d1b81525083611191565b610d308161ffff8a16612710611173565b610d3a908261179b565b858381518110610d4c57610d4c611756565b60209081029190910101525080610d6281611782565b915050610bb3565b50610da66040518060400160405280600c81526020016b036b4b727baba101690181d160a51b81525084600081518110610c1157610c11611756565b610de16040518060400160405280600c81526020016b036b4b727baba101690189d160a51b81525084600181518110610c1157610c11611756565b610e16604051806040016040528060148152602001732d2d2d20656e64206f66206c6f757065202d2d2d60601b8152506110e4565b610e2e604051806020016040528060008152506110e4565b505060408051808201909152958652602086015250929392505050565b6009546040516370a0823160e01b81523060048201526000916001600160a01b0316906370a0823190602401602060405180830381865afa158015610e94573d6000803e3d6000fd5b505050506040513d601f19601f82011682018060405250810190610eb89190611727565b90506000826001811115610ece57610ece6117ae565b03610f5f5760025460408051637a12625d60e11b81529051670de0b6b3a7640000926001600160a01b03169163f424c4ba9160048083019260209291908290030181865afa158015610f24573d6000803e3d6000fd5b505050506040513d601f19601f82011682018060405250810190610f489190611727565b610f5290836117c4565b610f5c91906117db565b90505b919050565b6001600160a01b03811660009081527fc8fcad8db84d3cc18b4c41d551ea0ee66dd599cde068d998e57d5e09332c131d60209081526040918290208054835181840281018401909452808452606093600080516020611865833981519152939092919083018282801561102357602002820191906000526020600020906000905b82829054906101000a900460e01b6001600160e01b03191681526020019060040190602082600301049283019260010382029150808411610fe55790505b5050505050915050919050565b6040805160048152602481019091526020810180516001600160e01b0316636a57db9d60e11b17905260009061106683826111dd565b90508080602001905181019061107c9190611727565b9392505050565b6000806110998585670de0b6b3a7640000611173565b90506110ac8161ffff8516612710611173565b6110b6908261179b565b95945050505050565b600881901c600090815260208390526040902054600160ff83161b1615155b92915050565b611127816040516024016110f891906114a7565b60408051601f198184030181529190526020810180516001600160e01b031663104c13eb60e21b179052611202565b50565b61116f82826040516024016111409291906117fd565b60408051601f198184030181529190526020810180516001600160e01b03166309710a9d60e41b179052611202565b5050565b600082600019048411830215820261118a57600080fd5b5091020490565b6111d88383836040516024016111a99392919061181f565b60408051601f198184030181529190526020810180516001600160e01b0316635b6de83f60e01b179052611202565b505050565b606061107c83836040518060600160405280602581526020016118af60259139611223565b80516a636f6e736f6c652e6c6f67602083016000808483855afa5050505050565b6060600080856001600160a01b0316856040516112409190611848565b600060405180830381855afa9150503d806000811461127b576040519150601f19603f3d011682016040523d82523d6000602084013e611280565b606091505b50915091506112918683838761129b565b9695505050505050565b6060831561130f578251600003611308576001600160a01b0385163b6113085760405162461bcd60e51b815260206004820152601d60248201527f416464726573733a2063616c6c20746f206e6f6e2d636f6e747261637400000060448201526064015b60405180910390fd5b508161047e565b61047e83838151156113245781518083602001fd5b8060405162461bcd60e51b81526004016112ff91906114a7565b60006020828403121561135057600080fd5b81356001600160e01b03198116811461107c57600080fd5b6020808252825182820181905260009190848201906040850190845b818110156113a95783516001600160a01b031683529284019291840191600101611384565b50909695505050505050565b80356001600160a01b0381168114610f5f57600080fd5b6000602082840312156113de57600080fd5b61107c826113b5565b803561ffff81168114610f5f57600080fd5b600080600080600060a0868803121561141157600080fd5b85359450611421602087016113b5565b935061142f604087016113e7565b925061143d606087016113b5565b915061144b608087016113b5565b90509295509295909350565b60005b8381101561147257818101518382015260200161145a565b50506000910152565b60008151808452611493816020860160208601611457565b601f01601f19169290920160200192915050565b60208152600061107c602083018461147b565b600080600080608085870312156114d057600080fd5b843593506114e0602086016113b5565b92506114ee604086016113e7565b91506114fc606086016113b5565b905092959194509250565b600081518084526020808501945080840160005b838110156115375781518752958201959082019060010161151b565b509495945050505050565b8051825260208101516020830152600060408201516060604085015261047e6060850182611507565b60208152600061107c6020830184611542565b600081518084526020808501945080840160005b838110156115375781516001600160e01b03191687529582019590820190600101611592565b60006020808301818452808551808352604092508286019150828160051b87010184880160005b8381101561162757888303603f19018552815180516001600160a01b031684528701518784018790526116148785018261157e565b95880195935050908601906001016115df565b509098975050505050505050565b60208152600061107c6020830184611507565b60008060006060848603121561165d57600080fd5b8335925061166d602085016113b5565b915061167b604085016113e7565b90509250925092565b80518252600060208201516040602085015261047e6040850182611507565b60208152600061107c6020830184611684565b6000602082840312156116c857600080fd5b81356002811061107c57600080fd5b60208152600061107c602083018461157e565b6040815260006116fd6040830185611542565b905060018060a01b03831660208301529392505050565b6040815260006116fd6040830185611684565b60006020828403121561173957600080fd5b5051919050565b634e487b7160e01b600052604160045260246000fd5b634e487b7160e01b600052603260045260246000fd5b634e487b7160e01b600052601160045260246000fd5b6000600182016117945761179461176c565b5060010190565b818103818111156110de576110de61176c565b634e487b7160e01b600052602160045260246000fd5b80820281158282048414176110de576110de61176c565b6000826117f857634e487b7160e01b600052601260045260246000fd5b500490565b604081526000611810604083018561147b565b90508260208301529392505050565b838152606060208201526000611838606083018561147b565b9050826040830152949350505050565b6000825161185a818460208701611457565b919091019291505056fec8fcad8db84d3cc18b4c41d551ea0ee66dd599cde068d998e57d5e09332c131c69203d3d2030203f20616d6f756e74496e203a206d696e416d6f756e74734f75745b69202d20315d3a20416464726573733a206c6f772d6c6576656c207374617469632063616c6c206661696c6564a2646970667358221220b0f2f11143bca56e09fb223b99c8ed59981225bf9fd6756a74138ddd495abaf764736f6c63430008150033","linkReferences":{}},"methodIdentifiers":{"facetAddress(bytes4)":"cdffacc6","facetAddresses()":"52ef6b2c","facetFunctionSelectors(address)":"adfca15e","facets()":"7a0ed627","getAdminFee()":"2a905ccc","getDefaultSlippage()":"1a82363e","getEnabledSwitch()":"089e63f0","getLSDs()":"38ab35d4","getMintData(uint256,address,uint16,address)":"635d12cc","getPausedContracts()":"a3e4ed14","getProtocolFee()":"a5a41031","getRedeemData(uint256,address,uint16,address,address)":"43596609","ozTokens(address)":"423f0b91","quoteAmountsIn(uint256,address,uint16)":"a49709b6","quoteAmountsOut(uint256,address,uint16,address)":"7226e48b","supportsInterface(bytes4)":"01ffc9a7","totalUnderlying(uint8)":"a4fc284b"},"id":18}