{
  "abi": [
    {
      "inputs": [
        {
          "internalType": "bytes4",
          "name": "_functionSelector",
          "type": "bytes4"
        }
      ],
      "name": "facetAddress",
      "outputs": [
        {
          "internalType": "address",
          "name": "facetAddress_",
          "type": "address"
        }
      ],
      "stateMutability": "view",
      "type": "function"
    },
    {
      "inputs": [],
      "name": "facetAddresses",
      "outputs": [
        {
          "internalType": "address[]",
          "name": "facetAddresses_",
          "type": "address[]"
        }
      ],
      "stateMutability": "view",
      "type": "function"
    },
    {
      "inputs": [
        {
          "internalType": "address",
          "name": "_facet",
          "type": "address"
        }
      ],
      "name": "facetFunctionSelectors",
      "outputs": [
        {
          "internalType": "bytes4[]",
          "name": "facetFunctionSelectors_",
          "type": "bytes4[]"
        }
      ],
      "stateMutability": "view",
      "type": "function"
    },
    {
      "inputs": [],
      "name": "facets",
      "outputs": [
        {
          "components": [
            {
              "internalType": "address",
              "name": "facetAddress",
              "type": "address"
            },
            {
              "internalType": "bytes4[]",
              "name": "functionSelectors",
              "type": "bytes4[]"
            }
          ],
          "internalType": "struct IDiamondLoupe.Facet[]",
          "name": "facets_",
          "type": "tuple[]"
        }
      ],
      "stateMutability": "view",
      "type": "function"
    },
    {
      "inputs": [],
      "name": "getDefaultSlippage",
      "outputs": [
        {
          "internalType": "uint16",
          "name": "",
          "type": "uint16"
        }
      ],
      "stateMutability": "view",
      "type": "function"
    },
    {
      "inputs": [],
      "name": "getProtocolFee",
      "outputs": [
        {
          "internalType": "uint256",
          "name": "",
          "type": "uint256"
        }
      ],
      "stateMutability": "view",
      "type": "function"
    },
    {
      "inputs": [
        {
          "internalType": "bytes4",
          "name": "_interfaceId",
          "type": "bytes4"
        }
      ],
      "name": "supportsInterface",
      "outputs": [
        {
          "internalType": "bool",
          "name": "",
          "type": "bool"
        }
      ],
      "stateMutability": "view",
      "type": "function"
    },
    {
      "inputs": [
        {
          "internalType": "enum Asset",
          "name": "type_",
          "type": "uint8"
        }
      ],
      "name": "totalUnderlying",
      "outputs": [
        {
          "internalType": "uint256",
          "name": "total",
          "type": "uint256"
        }
      ],
      "stateMutability": "view",
      "type": "function"
    }
  ],
  "bytecode": {
    "object": "0x608060405234801561001057600080fd5b506108de806100206000396000f3fe608060405234801561001057600080fd5b50600436106100885760003560e01c8063a4fc284b1161005b578063a4fc284b14610139578063a5a410311461015a578063adfca15e14610167578063cdffacc61461018757600080fd5b806301ffc9a71461008d5780631a82363e146100ee57806352ef6b2c1461010f5780637a0ed62714610124575b600080fd5b6100d961009b366004610602565b6001600160e01b03191660009081527fc8fcad8db84d3cc18b4c41d551ea0ee66dd599cde068d998e57d5e09332c131f602052604090205460ff1690565b60405190151581526020015b60405180910390f35b600754600160a01b900461ffff1660405161ffff90911681526020016100e5565b6101176101df565b6040516100e59190610633565b61012c610252565b6040516100e59190610680565b61014c610147366004610733565b61041d565b6040519081526020016100e5565b60165462ffffff1661014c565b61017a610175366004610754565b610536565b6040516100e5919061077d565b6101c7610195366004610602565b6001600160e01b031916600090815260008051602061088983398151915260205260409020546001600160a01b031690565b6040516001600160a01b0390911681526020016100e5565b606060006000805160206108898339815191526002810180546040805160208084028201810190925282815293945083018282801561024757602002820191906000526020600020905b81546001600160a01b03168152600190910190602001808311610229575b505050505091505090565b7fc8fcad8db84d3cc18b4c41d551ea0ee66dd599cde068d998e57d5e09332c131e54606090600080516020610889833981519152908067ffffffffffffffff8111156102a0576102a06107bf565b6040519080825280602002602001820160405280156102e657816020015b6040805180820190915260008152606060208201528152602001906001900390816102be5790505b50925060005b8181101561041757600083600201828154811061030b5761030b6107d5565b9060005260206000200160009054906101000a90046001600160a01b031690508085838151811061033e5761033e6107d5565b6020908102919091018101516001600160a01b0392831690529082166000908152600186018252604090819020805482518185028101850190935280835291929091908301828280156103dd57602002820191906000526020600020906000905b82829054906101000a900460e01b6001600160e01b0319168152602001906004019060208260030104928301926001038202915080841161039f5790505b50505050508583815181106103f4576103f46107d5565b60200260200101516020018190525050808061040f90610801565b9150506102ec565b50505090565b600a546040516370a0823160e01b81523060048201526000916001600160a01b0316906370a0823190602401602060405180830381865afa158015610466573d6000803e3d6000fd5b505050506040513d601f19601f8201168201806040525081019061048a919061081a565b905060008260018111156104a0576104a0610833565b036105315760025460408051637a12625d60e11b81529051670de0b6b3a7640000926001600160a01b03169163f424c4ba9160048083019260209291908290030181865afa1580156104f6573d6000803e3d6000fd5b505050506040513d601f19601f8201168201806040525081019061051a919061081a565b6105249083610849565b61052e9190610866565b90505b919050565b6001600160a01b03811660009081527fc8fcad8db84d3cc18b4c41d551ea0ee66dd599cde068d998e57d5e09332c131d6020908152604091829020805483518184028101840190945280845260609360008051602061088983398151915293909291908301828280156105f557602002820191906000526020600020906000905b82829054906101000a900460e01b6001600160e01b031916815260200190600401906020826003010492830192600103820291508084116105b75790505b5050505050915050919050565b60006020828403121561061457600080fd5b81356001600160e01b03198116811461062c57600080fd5b9392505050565b6020808252825182820181905260009190848201906040850190845b818110156106745783516001600160a01b03168352928401929184019160010161064f565b50909695505050505050565b60006020808301818452808551808352604092508286019150828160051b8701018488016000805b8481101561072457898403603f19018652825180516001600160a01b03168552880151888501889052805188860181905290890190839060608701905b8083101561070f5783516001600160e01b0319168252928b019260019290920191908b01906106e5565b50978a019795505050918701916001016106a8565b50919998505050505050505050565b60006020828403121561074557600080fd5b81356002811061062c57600080fd5b60006020828403121561076657600080fd5b81356001600160a01b038116811461062c57600080fd5b6020808252825182820181905260009190848201906040850190845b818110156106745783516001600160e01b03191683529284019291840191600101610799565b634e487b7160e01b600052604160045260246000fd5b634e487b7160e01b600052603260045260246000fd5b634e487b7160e01b600052601160045260246000fd5b600060018201610813576108136107eb565b5060010190565b60006020828403121561082c57600080fd5b5051919050565b634e487b7160e01b600052602160045260246000fd5b8082028115828204841417610860576108606107eb565b92915050565b60008261088357634e487b7160e01b600052601260045260246000fd5b50049056fec8fcad8db84d3cc18b4c41d551ea0ee66dd599cde068d998e57d5e09332c131ca2646970667358221220c2a444510241dc3ec235e6af627f0006a1689be093ac8298f8f6b8cf357860d164736f6c63430008150033",
    "linkReferences": {}
  },
  "methodIdentifiers": {
    "facetAddress(bytes4)": "cdffacc6",
    "facetAddresses()": "52ef6b2c",
    "facetFunctionSelectors(address)": "adfca15e",
    "facets()": "7a0ed627",
    "getDefaultSlippage()": "1a82363e",
    "getProtocolFee()": "a5a41031",
    "supportsInterface(bytes4)": "01ffc9a7",
    "totalUnderlying(uint8)": "a4fc284b"
  },
  "id": 16
}