{"abi":[{"type":"function","name":"facetAddress","inputs":[{"name":"_functionSelector","type":"bytes4","internalType":"bytes4"}],"outputs":[{"name":"facetAddress_","type":"address","internalType":"address"}],"stateMutability":"view"},{"type":"function","name":"facetAddresses","inputs":[],"outputs":[{"name":"facetAddresses_","type":"address[]","internalType":"address[]"}],"stateMutability":"view"},{"type":"function","name":"facetFunctionSelectors","inputs":[{"name":"_facet","type":"address","internalType":"address"}],"outputs":[{"name":"facetFunctionSelectors_","type":"bytes4[]","internalType":"bytes4[]"}],"stateMutability":"view"},{"type":"function","name":"facets","inputs":[],"outputs":[{"name":"facets_","type":"tuple[]","internalType":"struct IDiamondLoupe.Facet[]","components":[{"name":"facetAddress","type":"address","internalType":"address"},{"name":"functionSelectors","type":"bytes4[]","internalType":"bytes4[]"}]}],"stateMutability":"view"},{"type":"function","name":"getAPR","inputs":[],"outputs":[{"name":"","type":"uint256","internalType":"uint256"}],"stateMutability":"view"},{"type":"function","name":"getAdminFee","inputs":[],"outputs":[{"name":"","type":"uint256","internalType":"uint256"}],"stateMutability":"view"},{"type":"function","name":"getDefaultSlippage","inputs":[],"outputs":[{"name":"","type":"uint16","internalType":"uint16"}],"stateMutability":"view"},{"type":"function","name":"getDeposits","inputs":[{"name":"account_","type":"address","internalType":"address"}],"outputs":[{"name":"","type":"tuple[]","internalType":"struct Deposit[]","components":[{"name":"amountETH","type":"uint256","internalType":"uint256"},{"name":"amountStable","type":"uint256","internalType":"uint256"},{"name":"timestamp","type":"uint256","internalType":"uint256"},{"name":"receiver","type":"address","internalType":"address"}]}],"stateMutability":"view"},{"type":"function","name":"getEnabledSwitch","inputs":[],"outputs":[{"name":"","type":"bool","internalType":"bool"}],"stateMutability":"view"},{"type":"function","name":"getLSDs","inputs":[],"outputs":[{"name":"","type":"address[]","internalType":"address[]"}],"stateMutability":"view"},{"type":"function","name":"getMintData","inputs":[{"name":"amountInStable_","type":"uint256","internalType":"uint256"},{"name":"slippage_","type":"uint16","internalType":"uint16"},{"name":"receiver_","type":"address","internalType":"address"},{"name":"ozERC20_","type":"address","internalType":"address"}],"outputs":[{"name":"","type":"bytes","internalType":"bytes"}],"stateMutability":"view"},{"type":"function","name":"getPausedContracts","inputs":[],"outputs":[{"name":"","type":"uint256[]","internalType":"uint256[]"}],"stateMutability":"view"},{"type":"function","name":"getProtocolFee","inputs":[],"outputs":[{"name":"","type":"uint256","internalType":"uint256"}],"stateMutability":"view"},{"type":"function","name":"getRedeemData","inputs":[{"name":"ozAmountIn_","type":"uint256","internalType":"uint256"},{"name":"ozToken_","type":"address","internalType":"address"},{"name":"slippage_","type":"uint16","internalType":"uint16"},{"name":"receiver_","type":"address","internalType":"address"},{"name":"owner_","type":"address","internalType":"address"}],"outputs":[{"name":"","type":"bytes","internalType":"bytes"}],"stateMutability":"view"},{"type":"function","name":"getRewardsStartTime","inputs":[],"outputs":[{"name":"","type":"uint256","internalType":"uint256"}],"stateMutability":"view"},{"type":"function","name":"getStakingRewardsUSDC","inputs":[],"outputs":[{"name":"","type":"uint256","internalType":"uint256"}],"stateMutability":"view"},{"type":"function","name":"ozTokens","inputs":[{"name":"underlying_","type":"address","internalType":"address"}],"outputs":[{"name":"","type":"address","internalType":"address"}],"stateMutability":"view"},{"type":"function","name":"quoteAmountsIn","inputs":[{"name":"amountInStable_","type":"uint256","internalType":"uint256"},{"name":"slippage_","type":"uint16","internalType":"uint16"},{"name":"stable_","type":"address","internalType":"address"}],"outputs":[{"name":"","type":"tuple","internalType":"struct AmountsIn","components":[{"name":"amountInStable","type":"uint256","internalType":"uint256"},{"name":"amountInETH","type":"uint256","internalType":"uint256"},{"name":"minAmountOutRETH","type":"uint256","internalType":"uint256"}]}],"stateMutability":"view"},{"type":"function","name":"quoteAmountsOut","inputs":[{"name":"ozAmountIn_","type":"uint256","internalType":"uint256"},{"name":"ozToken_","type":"address","internalType":"address"},{"name":"slippage_","type":"uint16","internalType":"uint16"},{"name":"owner_","type":"address","internalType":"address"}],"outputs":[{"name":"","type":"tuple","internalType":"struct AmountsOut","components":[{"name":"ozAmountIn","type":"uint256","internalType":"uint256"},{"name":"amountInReth","type":"uint256","internalType":"uint256"},{"name":"minAmountsOut","type":"uint256[]","internalType":"uint256[]"}]}],"stateMutability":"view"},{"type":"function","name":"supportsInterface","inputs":[{"name":"_interfaceId","type":"bytes4","internalType":"bytes4"}],"outputs":[{"name":"","type":"bool","internalType":"bool"}],"stateMutability":"view"},{"type":"function","name":"totalUnderlying","inputs":[{"name":"type_","type":"uint8","internalType":"enum Asset"}],"outputs":[{"name":"total","type":"uint256","internalType":"uint256"}],"stateMutability":"view"},{"type":"error","name":"OZError41","inputs":[{"name":"ozToken","type":"address","internalType":"address"}]}],"bytecode":{"object":"0x608060405234801561000f575f80fd5b506117738061001d5f395ff3fe608060405234801561000f575f80fd5b5060043610610132575f3560e01c80637226e48b116100b4578063a4fc284b11610079578063a4fc284b146102f9578063a5a410311461030c578063adfca15e14610323578063c3e2450d14610343578063c89d5b8b14610356578063cdffacc61461035e575f80fd5b80637226e48b1461026f5780637a0ed6271461028f5780638cfae633146102a457806394f649dd146102c4578063a3e4ed14146102e4575f80fd5b806338ab35d4116100fa57806338ab35d4146101e7578063423f0b91146101fc578063435966091461023f5780634a6fd8e11461025f57806352ef6b2c14610267575f80fd5b806301ffc9a714610136578063089e63f0146101965780631a82363e146101a15780631dc11195146101c25780632a905ccc146101d4575b5f80fd5b610181610144366004611170565b6001600160e01b0319165f9081527fc8fcad8db84d3cc18b4c41d551ea0ee66dd599cde068d998e57d5e09332c131f602052604090205460ff1690565b60405190151581526020015b60405180910390f35b602b5460ff16610181565b600754600160a01b900461ffff1660405161ffff909116815260200161018d565b6039545b60405190815260200161018d565b601f54600160a01b900461ffff166101c6565b6101ef61039c565b60405161018d9190611197565b61022761020a3660046111fa565b6001600160a01b039081165f908152600b60205260409020541690565b6040516001600160a01b03909116815260200161018d565b61025261024d366004611226565b6103f8565b60405161018d91906112d5565b6034546101c6565b6101ef610432565b61028261027d3660046112e7565b6104a1565b60405161018d9190611397565b610297610752565b60405161018d91906113e2565b6102b76102b236600461145f565b610906565b60405161018d919061149c565b6102d76102d23660046111fa565b610a8f565b60405161018d91906114bd565b6102ec610b2d565b60405161018d9190611529565b6101c661030736600461153b565b610cbf565b6013546601000000000000900462ffffff166101c6565b6103366103313660046111fa565b610dd2565b60405161018d9190611559565b61025261035136600461156b565b610e99565b6101c6610f4f565b61022761036c366004611170565b6001600160e01b0319165f9081525f805160206116f983398151915260205260409020546001600160a01b031690565b6020805460408051828402810184019091528181526060929091828201828280156103ee57602002820191905f5260205f20905b81546001600160a01b031681526001909101906020018083116103d0575b5050505050905090565b6060610406868686856104a1565b8360405160200161041892919061159e565b604051602081830303815290604052905095945050505050565b60605f5f805160206116f98339815191526002810180546040805160208084028201810190925282815293945083018282801561049657602002820191905f5260205f20905b81546001600160a01b03168152600190910190602001808311610478575b505050505091505090565b6104c360405180606001604052805f81526020015f8152602001606081525090565b5f6001600160a01b0316846001600160a01b03166338d52e0f6040518163ffffffff1660e01b8152600401602060405180830381865afa158015610509573d5f803e3d5ffd5b505050506040513d601f19601f8201168201806040525081019061052d91906115c7565b6001600160a01b03160361056457604051630390e1b560e01b81526001600160a01b03851660048201526024015b60405180910390fd5b60405163694afd4d60e11b8152600481018690526001600160a01b03838116602483015285915f91831690631dc7f52190829063d295fa9a90604401602060405180830381865afa1580156105bb573d5f803e3d5ffd5b505050506040513d601f19601f820116820180604052508101906105df91906115e2565b6040518263ffffffff1660e01b81526004016105fd91815260200190565b602060405180830381865afa158015610618573d5f803e3d5ffd5b505050506040513d601f19601f8201168201806040525081019061063c91906115e2565b9050305f61065461064c83610f73565b849089610fc5565b90505f6106c2836001600160a01b0316636260f55b6040518163ffffffff1660e01b8152600401602060405180830381865afa158015610696573d5f803e3d5ffd5b505050506040513d601f19601f820116820180604052508101906106ba91906115e2565b83908a610fc5565b6040805160028082526060820183529293505f92909160208301908036833701905050905082815f815181106106fa576106fa61160d565b602002602001018181525050818160018151811061071a5761071a61160d565b60200260200101818152505060405180606001604052808c81526020018681526020018281525096505050505050505b949350505050565b7fc8fcad8db84d3cc18b4c41d551ea0ee66dd599cde068d998e57d5e09332c131e546060905f805160206116f9833981519152908067ffffffffffffffff81111561079f5761079f6115f9565b6040519080825280602002602001820160405280156107e457816020015b604080518082019091525f8152606060208201528152602001906001900390816107bd5790505b5092505f5b81811015610900575f8360020182815481106108075761080761160d565b905f5260205f20015f9054906101000a90046001600160a01b03169050808583815181106108375761083761160d565b6020908102919091018101516001600160a01b0392831690529082165f908152600186018252604090819020805482518185028101850190935280835291929091908301828280156108d257602002820191905f5260205f20905f905b82829054906101000a900460e01b6001600160e01b031916815260200190600401906020826003010492830192600103820291508084116108945790505b50505050508583815181106108e9576108e961160d565b6020908102919091018101510152506001016107e9565b50505090565b61092760405180606001604052805f81526020015f81526020015f81525090565b5f3090505f836001600160a01b031663313ce5676040518163ffffffff1660e01b8152600401602060405180830381865afa158015610968573d5f803e3d5ffd5b505050506040513d601f19601f8201168201806040525081019061098c9190611621565b60ff166012146109a15764e8d4a510006109a4565b60015b64ffffffffff1690505f610a2b670de0b6b3a7640000846001600160a01b0316636260f55b6040518163ffffffff1660e01b8152600401602060405180830381865afa1580156109f6573d5f803e3d5ffd5b505050506040513d601f19601f82011682018060405250810190610a1a91906115e2565b610a24858b611655565b9190611000565b90505f610a4b670de0b6b3a7640000610a4386610f73565b849190611000565b90505f610a5f8261ffff8a16612710611000565b610a69908361166c565b604080516060810182528b81526020810195909552840152509093505050509392505050565b6001600160a01b0381165f908152603660209081526040808320805482518185028101850190935280835260609492939192909184015b82821015610b22575f84815260209081902060408051608081018252600486029092018054835260018082015484860152600282015492840192909252600301546001600160a01b031660608301529083529092019101610ac6565b505050509050919050565b6029546060905f9061ffff1667ffffffffffffffff811115610b5157610b516115f9565b604051908082528060200260200182016040528015610b7a578160200160208202803683370190505b5090505f8060025b60295461ffff16811015610bf457610b9b60288261101b565b15610bde5780848381518110610bb357610bb361160d565b602090810291909101015281610bc88161167f565b9250508280610bd69061167f565b935050610bec565b81610be88161167f565b9250505b600101610b82565b505f8267ffffffffffffffff811115610c0f57610c0f6115f9565b604051908082528060200260200182016040528015610c38578160200160208202803683370190505b5090505f805b8551811015610cb457858181518110610c5957610c5961160d565b60200260200101515f14610cac57858181518110610c7957610c7961160d565b6020026020010151838381518110610c9357610c9361160d565b602090810291909101015281610ca88161167f565b9250505b600101610c3e565b509095945050505050565b6009546040516370a0823160e01b81523060048201525f916001600160a01b0316906370a0823190602401602060405180830381865afa158015610d05573d5f803e3d5ffd5b505050506040513d601f19601f82011682018060405250810190610d2991906115e2565b90505f826001811115610d3e57610d3e611697565b03610dcd5760025460408051637a12625d60e11b81529051670de0b6b3a7640000926001600160a01b03169163f424c4ba9160048083019260209291908290030181865afa158015610d92573d5f803e3d5ffd5b505050506040513d601f19601f82011682018060405250810190610db691906115e2565b610dc09083611655565b610dca91906116ab565b90505b919050565b6001600160a01b0381165f9081527fc8fcad8db84d3cc18b4c41d551ea0ee66dd599cde068d998e57d5e09332c131d602090815260409182902080548351818402810184019094528084526060935f805160206116f98339815191529390929190830182828015610e8c57602002820191905f5260205f20905f905b82829054906101000a900460e01b6001600160e01b03191681526020019060040190602082600301049283019260010382029150808411610e4e5790505b5050505050915050919050565b60605f610f018686856001600160a01b03166338d52e0f6040518163ffffffff1660e01b8152600401602060405180830381865afa158015610edd573d5f803e3d5ffd5b505050506040513d601f19601f820116820180604052508101906102b291906115c7565b604080518251602080830191909152830151818301529082015160608201526001600160a01b038616608082015290915060a001604051602081830303815290604052915050949350505050565b602f546030545f91600291610f6491906116ca565b610f6e91906116ab565b905090565b6040805160048152602481019091526020810180516001600160e01b0316636a57db9d60e11b1790525f90610fa8838261103f565b905080806020019051810190610fbe91906115e2565b9392505050565b5f80610fda8585670de0b6b3a7640000611000565b9050610fed8161ffff8516612710611000565b610ff7908261166c565b95945050505050565b5f825f190484118302158202611014575f80fd5b5091020490565b600881901c5f90815260208390526040902054600160ff83161b1615155b92915050565b6060610fbe83836040518060600160405280602581526020016117196025913960605f80856001600160a01b03168560405161107b91906116dd565b5f60405180830381855afa9150503d805f81146110b3576040519150601f19603f3d011682016040523d82523d5f602084013e6110b8565b606091505b50915091506110c9868383876110d3565b9695505050505050565b606083156111415782515f0361113a576001600160a01b0385163b61113a5760405162461bcd60e51b815260206004820152601d60248201527f416464726573733a2063616c6c20746f206e6f6e2d636f6e7472616374000000604482015260640161055b565b508161074a565b61074a83838151156111565781518083602001fd5b8060405162461bcd60e51b815260040161055b91906112d5565b5f60208284031215611180575f80fd5b81356001600160e01b031981168114610fbe575f80fd5b602080825282518282018190525f9190848201906040850190845b818110156111d75783516001600160a01b0316835292840192918401916001016111b2565b50909695505050505050565b6001600160a01b03811681146111f7575f80fd5b50565b5f6020828403121561120a575f80fd5b8135610fbe816111e3565b803561ffff81168114610dcd575f80fd5b5f805f805f60a0868803121561123a575f80fd5b85359450602086013561124c816111e3565b935061125a60408701611215565b9250606086013561126a816111e3565b9150608086013561127a816111e3565b809150509295509295909350565b5f5b838110156112a257818101518382015260200161128a565b50505f910152565b5f81518084526112c1816020860160208601611288565b601f01601f19169290920160200192915050565b602081525f610fbe60208301846112aa565b5f805f80608085870312156112fa575f80fd5b84359350602085013561130c816111e3565b925061131a60408601611215565b9150606085013561132a816111e3565b939692955090935050565b5f815180845260208085019450602084015f5b8381101561136457815187529582019590820190600101611348565b509495945050505050565b80518252602081015160208301525f60408201516060604085015261074a6060850182611335565b602081525f610fbe602083018461136f565b5f815180845260208085019450602084015f5b838110156113645781516001600160e01b031916875295820195908201906001016113bc565b5f60208083018184528085518083526040925060408601915060408160051b8701018488015f5b8381101561145157888303603f19018552815180516001600160a01b0316845287015187840187905261143e878501826113a9565b9588019593505090860190600101611409565b509098975050505050505050565b5f805f60608486031215611471575f80fd5b8335925061148160208501611215565b91506040840135611491816111e3565b809150509250925092565b81518152602080830151908201526040808301519082015260608101611039565b602080825282518282018190525f919060409081850190868401855b8281101561151c57815180518552868101518786015285810151868601526060908101516001600160a01b031690850152608090930192908501906001016114d9565b5091979650505050505050565b602081525f610fbe6020830184611335565b5f6020828403121561154b575f80fd5b813560028110610fbe575f80fd5b602081525f610fbe60208301846113a9565b5f805f806080858703121561157e575f80fd5b8435935061158e60208601611215565b9250604085013561131a816111e3565b604081525f6115b0604083018561136f565b905060018060a01b03831660208301529392505050565b5f602082840312156115d7575f80fd5b8151610fbe816111e3565b5f602082840312156115f2575f80fd5b5051919050565b634e487b7160e01b5f52604160045260245ffd5b634e487b7160e01b5f52603260045260245ffd5b5f60208284031215611631575f80fd5b815160ff81168114610fbe575f80fd5b634e487b7160e01b5f52601160045260245ffd5b808202811582820484141761103957611039611641565b8181038181111561103957611039611641565b5f6001820161169057611690611641565b5060010190565b634e487b7160e01b5f52602160045260245ffd5b5f826116c557634e487b7160e01b5f52601260045260245ffd5b500490565b8082018082111561103957611039611641565b5f82516116ee818460208701611288565b919091019291505056fec8fcad8db84d3cc18b4c41d551ea0ee66dd599cde068d998e57d5e09332c131c416464726573733a206c6f772d6c6576656c207374617469632063616c6c206661696c6564a26469706673582212203e75c33c91ecdd3349048e9385fe5d5b8e612296d3c195a4e0803d66694bf55264736f6c63430008180033","linkReferences":{}},"methodIdentifiers":{"facetAddress(bytes4)":"cdffacc6","facetAddresses()":"52ef6b2c","facetFunctionSelectors(address)":"adfca15e","facets()":"7a0ed627","getAPR()":"c89d5b8b","getAdminFee()":"2a905ccc","getDefaultSlippage()":"1a82363e","getDeposits(address)":"94f649dd","getEnabledSwitch()":"089e63f0","getLSDs()":"38ab35d4","getMintData(uint256,uint16,address,address)":"c3e2450d","getPausedContracts()":"a3e4ed14","getProtocolFee()":"a5a41031","getRedeemData(uint256,address,uint16,address,address)":"43596609","getRewardsStartTime()":"4a6fd8e1","getStakingRewardsUSDC()":"1dc11195","ozTokens(address)":"423f0b91","quoteAmountsIn(uint256,uint16,address)":"8cfae633","quoteAmountsOut(uint256,address,uint16,address)":"7226e48b","supportsInterface(bytes4)":"01ffc9a7","totalUnderlying(uint8)":"a4fc284b"},"id":17}