{
  "abi": [
    {
      "inputs": [
        {
          "internalType": "bytes4",
          "name": "_functionSelector",
          "type": "bytes4"
        }
      ],
      "name": "facetAddress",
      "outputs": [
        {
          "internalType": "address",
          "name": "facetAddress_",
          "type": "address"
        }
      ],
      "stateMutability": "view",
      "type": "function"
    },
    {
      "inputs": [],
      "name": "facetAddresses",
      "outputs": [
        {
          "internalType": "address[]",
          "name": "facetAddresses_",
          "type": "address[]"
        }
      ],
      "stateMutability": "view",
      "type": "function"
    },
    {
      "inputs": [
        {
          "internalType": "address",
          "name": "_facet",
          "type": "address"
        }
      ],
      "name": "facetFunctionSelectors",
      "outputs": [
        {
          "internalType": "bytes4[]",
          "name": "facetFunctionSelectors_",
          "type": "bytes4[]"
        }
      ],
      "stateMutability": "view",
      "type": "function"
    },
    {
      "inputs": [],
      "name": "facets",
      "outputs": [
        {
          "components": [
            {
              "internalType": "address",
              "name": "facetAddress",
              "type": "address"
            },
            {
              "internalType": "bytes4[]",
              "name": "functionSelectors",
              "type": "bytes4[]"
            }
          ],
          "internalType": "struct IDiamondLoupe.Facet[]",
          "name": "facets_",
          "type": "tuple[]"
        }
      ],
      "stateMutability": "view",
      "type": "function"
    },
    {
      "inputs": [],
      "name": "getDefaultSlippage",
      "outputs": [
        {
          "internalType": "uint16",
          "name": "",
          "type": "uint16"
        }
      ],
      "stateMutability": "view",
      "type": "function"
    },
    {
      "inputs": [],
      "name": "getProtocolFee",
      "outputs": [
        {
          "internalType": "uint256",
          "name": "",
          "type": "uint256"
        }
      ],
      "stateMutability": "view",
      "type": "function"
    },
    {
      "inputs": [
        {
          "internalType": "address",
          "name": "underlying_",
          "type": "address"
        }
      ],
      "name": "ozTokens",
      "outputs": [
        {
          "internalType": "address",
          "name": "",
          "type": "address"
        }
      ],
      "stateMutability": "view",
      "type": "function"
    },
    {
      "inputs": [
        {
          "internalType": "bytes4",
          "name": "_interfaceId",
          "type": "bytes4"
        }
      ],
      "name": "supportsInterface",
      "outputs": [
        {
          "internalType": "bool",
          "name": "",
          "type": "bool"
        }
      ],
      "stateMutability": "view",
      "type": "function"
    },
    {
      "inputs": [
        {
          "internalType": "enum Asset",
          "name": "type_",
          "type": "uint8"
        }
      ],
      "name": "totalUnderlying",
      "outputs": [
        {
          "internalType": "uint256",
          "name": "total",
          "type": "uint256"
        }
      ],
      "stateMutability": "view",
      "type": "function"
    }
  ],
  "bytecode": {
    "object": "0x608060405234801561001057600080fd5b50610915806100206000396000f3fe608060405234801561001057600080fd5b50600436106100935760003560e01c80637a0ed627116100665780637a0ed62714610173578063a4fc284b14610188578063a5a41031146101a9578063adfca15e146101b6578063cdffacc6146101d657600080fd5b806301ffc9a7146100985780631a82363e146100f9578063423f0b911461011a57806352ef6b2c1461015e575b600080fd5b6100e46100a6366004610639565b6001600160e01b03191660009081527fc8fcad8db84d3cc18b4c41d551ea0ee66dd599cde068d998e57d5e09332c131f602052604090205460ff1690565b60405190151581526020015b60405180910390f35b600754600160a01b900461ffff1660405161ffff90911681526020016100f0565b61014661012836600461066a565b6001600160a01b039081166000908152600c60205260409020541690565b6040516001600160a01b0390911681526020016100f0565b610166610216565b6040516100f09190610693565b61017b610289565b6040516100f091906106e0565b61019b610196366004610793565b610454565b6040519081526020016100f0565b60165462ffffff1661019b565b6101c96101c436600461066a565b61056d565b6040516100f091906107b4565b6101466101e4366004610639565b6001600160e01b03191660009081526000805160206108c083398151915260205260409020546001600160a01b031690565b606060006000805160206108c08339815191526002810180546040805160208084028201810190925282815293945083018282801561027e57602002820191906000526020600020905b81546001600160a01b03168152600190910190602001808311610260575b505050505091505090565b7fc8fcad8db84d3cc18b4c41d551ea0ee66dd599cde068d998e57d5e09332c131e546060906000805160206108c0833981519152908067ffffffffffffffff8111156102d7576102d76107f6565b60405190808252806020026020018201604052801561031d57816020015b6040805180820190915260008152606060208201528152602001906001900390816102f55790505b50925060005b8181101561044e5760008360020182815481106103425761034261080c565b9060005260206000200160009054906101000a90046001600160a01b03169050808583815181106103755761037561080c565b6020908102919091018101516001600160a01b03928316905290821660009081526001860182526040908190208054825181850281018501909352808352919290919083018282801561041457602002820191906000526020600020906000905b82829054906101000a900460e01b6001600160e01b031916815260200190600401906020826003010492830192600103820291508084116103d65790505b505050505085838151811061042b5761042b61080c565b60200260200101516020018190525050808061044690610838565b915050610323565b50505090565b600a546040516370a0823160e01b81523060048201526000916001600160a01b0316906370a0823190602401602060405180830381865afa15801561049d573d6000803e3d6000fd5b505050506040513d601f19601f820116820180604052508101906104c19190610851565b905060008260018111156104d7576104d761086a565b036105685760025460408051637a12625d60e11b81529051670de0b6b3a7640000926001600160a01b03169163f424c4ba9160048083019260209291908290030181865afa15801561052d573d6000803e3d6000fd5b505050506040513d601f19601f820116820180604052508101906105519190610851565b61055b9083610880565b610565919061089d565b90505b919050565b6001600160a01b03811660009081527fc8fcad8db84d3cc18b4c41d551ea0ee66dd599cde068d998e57d5e09332c131d602090815260409182902080548351818402810184019094528084526060936000805160206108c0833981519152939092919083018282801561062c57602002820191906000526020600020906000905b82829054906101000a900460e01b6001600160e01b031916815260200190600401906020826003010492830192600103820291508084116105ee5790505b5050505050915050919050565b60006020828403121561064b57600080fd5b81356001600160e01b03198116811461066357600080fd5b9392505050565b60006020828403121561067c57600080fd5b81356001600160a01b038116811461066357600080fd5b6020808252825182820181905260009190848201906040850190845b818110156106d45783516001600160a01b0316835292840192918401916001016106af565b50909695505050505050565b60006020808301818452808551808352604092508286019150828160051b8701018488016000805b8481101561078457898403603f19018652825180516001600160a01b03168552880151888501889052805188860181905290890190839060608701905b8083101561076f5783516001600160e01b0319168252928b019260019290920191908b0190610745565b50978a01979550505091870191600101610708565b50919998505050505050505050565b6000602082840312156107a557600080fd5b81356002811061066357600080fd5b6020808252825182820181905260009190848201906040850190845b818110156106d45783516001600160e01b031916835292840192918401916001016107d0565b634e487b7160e01b600052604160045260246000fd5b634e487b7160e01b600052603260045260246000fd5b634e487b7160e01b600052601160045260246000fd5b60006001820161084a5761084a610822565b5060010190565b60006020828403121561086357600080fd5b5051919050565b634e487b7160e01b600052602160045260246000fd5b808202811582820484141761089757610897610822565b92915050565b6000826108ba57634e487b7160e01b600052601260045260246000fd5b50049056fec8fcad8db84d3cc18b4c41d551ea0ee66dd599cde068d998e57d5e09332c131ca264697066735822122009e971b794942047fd97a05fc4cff99de0071113375e5dbeb8f9c8e74122496b64736f6c63430008150033",
    "linkReferences": {}
  },
  "methodIdentifiers": {
    "facetAddress(bytes4)": "cdffacc6",
    "facetAddresses()": "52ef6b2c",
    "facetFunctionSelectors(address)": "adfca15e",
    "facets()": "7a0ed627",
    "getDefaultSlippage()": "1a82363e",
    "getProtocolFee()": "a5a41031",
    "ozTokens(address)": "423f0b91",
    "supportsInterface(bytes4)": "01ffc9a7",
    "totalUnderlying(uint8)": "a4fc284b"
  },
  "id": 16
}