{
  "abi": [
    {
      "inputs": [
        {
          "internalType": "contract RocketStorageInterface",
          "name": "_rocketStorageAddress",
          "type": "address"
        }
      ],
      "stateMutability": "nonpayable",
      "type": "constructor"
    },
    {
      "inputs": [],
      "name": "getAssignDepositsEnabled",
      "outputs": [
        {
          "internalType": "bool",
          "name": "",
          "type": "bool"
        }
      ],
      "stateMutability": "view",
      "type": "function"
    },
    {
      "inputs": [],
      "name": "getDepositEnabled",
      "outputs": [
        {
          "internalType": "bool",
          "name": "",
          "type": "bool"
        }
      ],
      "stateMutability": "view",
      "type": "function"
    },
    {
      "inputs": [],
      "name": "getDepositFee",
      "outputs": [
        {
          "internalType": "uint256",
          "name": "",
          "type": "uint256"
        }
      ],
      "stateMutability": "view",
      "type": "function"
    },
    {
      "inputs": [],
      "name": "getMaximumDepositAssignments",
      "outputs": [
        {
          "internalType": "uint256",
          "name": "",
          "type": "uint256"
        }
      ],
      "stateMutability": "view",
      "type": "function"
    },
    {
      "inputs": [],
      "name": "getMaximumDepositPoolSize",
      "outputs": [
        {
          "internalType": "uint256",
          "name": "",
          "type": "uint256"
        }
      ],
      "stateMutability": "view",
      "type": "function"
    },
    {
      "inputs": [],
      "name": "getMaximumDepositSocialisedAssignments",
      "outputs": [
        {
          "internalType": "uint256",
          "name": "",
          "type": "uint256"
        }
      ],
      "stateMutability": "view",
      "type": "function"
    },
    {
      "inputs": [],
      "name": "getMinimumDeposit",
      "outputs": [
        {
          "internalType": "uint256",
          "name": "",
          "type": "uint256"
        }
      ],
      "stateMutability": "view",
      "type": "function"
    },
    {
      "inputs": [
        {
          "internalType": "string",
          "name": "_settingPath",
          "type": "string"
        }
      ],
      "name": "getSettingAddress",
      "outputs": [
        {
          "internalType": "address",
          "name": "",
          "type": "address"
        }
      ],
      "stateMutability": "view",
      "type": "function"
    },
    {
      "inputs": [
        {
          "internalType": "string",
          "name": "_settingPath",
          "type": "string"
        }
      ],
      "name": "getSettingBool",
      "outputs": [
        {
          "internalType": "bool",
          "name": "",
          "type": "bool"
        }
      ],
      "stateMutability": "view",
      "type": "function"
    },
    {
      "inputs": [
        {
          "internalType": "string",
          "name": "_settingPath",
          "type": "string"
        }
      ],
      "name": "getSettingUint",
      "outputs": [
        {
          "internalType": "uint256",
          "name": "",
          "type": "uint256"
        }
      ],
      "stateMutability": "view",
      "type": "function"
    },
    {
      "inputs": [
        {
          "internalType": "string",
          "name": "_settingPath",
          "type": "string"
        },
        {
          "internalType": "address",
          "name": "_value",
          "type": "address"
        }
      ],
      "name": "setSettingAddress",
      "outputs": [],
      "stateMutability": "nonpayable",
      "type": "function"
    },
    {
      "inputs": [
        {
          "internalType": "string",
          "name": "_settingPath",
          "type": "string"
        },
        {
          "internalType": "bool",
          "name": "_value",
          "type": "bool"
        }
      ],
      "name": "setSettingBool",
      "outputs": [],
      "stateMutability": "nonpayable",
      "type": "function"
    },
    {
      "inputs": [
        {
          "internalType": "string",
          "name": "_settingPath",
          "type": "string"
        },
        {
          "internalType": "uint256",
          "name": "_value",
          "type": "uint256"
        }
      ],
      "name": "setSettingUint",
      "outputs": [],
      "stateMutability": "nonpayable",
      "type": "function"
    },
    {
      "inputs": [],
      "name": "version",
      "outputs": [
        {
          "internalType": "uint8",
          "name": "",
          "type": "uint8"
        }
      ],
      "stateMutability": "view",
      "type": "function"
    }
  ],
  "bytecode": {
    "object": "0x608060405260008054610100600160a81b03191690553480156200002257600080fd5b506040516200195238038062001952833981810160405260208110156200004857600080fd5b5051604080518082018252600781526619195c1bdcda5d60ca1b602080830191825260008054610100600160a81b0319166101006001600160a01b0388160217905592517f64616f2e70726f746f636f6c2e73657474696e672e00000000000000000000009381019384528251859484939092603501918083835b60208310620000e45780518252601f199092019160209182019101620000c3565b51815160209384036101000a60001901801990921691161790526040805192909401828103601f19018352808552825192820192909220600181905560008054600360ff19909116179055828201526719195c1b1bde595960c21b8285015283518083036028018152604890920190935280519201919091206200016f955093506200035092505050565b620003495760408051808201909152600f81526e19195c1bdcda5d0b995b98589b1959608a1b6020820152620001a7906000620003df565b60408051808201909152601681527f6465706f7369742e61737369676e2e656e61626c6564000000000000000000006020820152620001e8906001620003df565b60408051808201909152600f81526e6465706f7369742e6d696e696d756d60881b60208201526200022190662386f26fc100006200053e565b60408051808201909152601481527f6465706f7369742e706f6f6c2e6d6178696d756d00000000000000000000000060208201526200026a906808ac7230489e8000006200053e565b60408051808201909152601681527f6465706f7369742e61737369676e2e6d6178696d756d000000000000000000006020820152620002ab90605a6200053e565b620002d1604051806060016040528060218152602001620019316021913960026200053e565b60408051808201909152600b81526a6465706f7369742e66656560a81b602082015262000306906601c6bf526340006200053e565b60018054604080516020808201939093526719195c1b1bde595960c21b818301528151602881830301815260489091019091528051910120620003499162000699565b50620008b1565b60008060019054906101000a90046001600160a01b03166001600160a01b0316637ae1cfca836040518263ffffffff1660e01b81526004018082815260200191505060206040518083038186803b158015620003ab57600080fd5b505afa158015620003c0573d6000803e3d6000fd5b505050506040513d6020811015620003d757600080fd5b505192915050565b600154604080516020808201939093526719195c1b1bde595960c21b818301528151602881830301815260489091019091528051910120620004219062000350565b15620004af5760408051808201909152601a81527f726f636b657444414f50726f746f636f6c50726f706f73616c730000000000006020820152339062000468906200070b565b6001600160a01b031614620004af5760405162461bcd60e51b8152600401808060200182810382526039815260200180620018f86039913960400191505060405180910390fd5b6200053a600154836040516020018083815260200182805190602001908083835b60208310620004f15780518252601f199092019160209182019101620004d0565b6001836020036101000a0380198251168184511680821785525050505050509050019250505060405160208183030381529060405280519060200120826200069960201b60201c565b5050565b600154604080516020808201939093526719195c1b1bde595960c21b818301528151602881830301815260489091019091528051910120620005809062000350565b156200060e5760408051808201909152601a81527f726f636b657444414f50726f746f636f6c50726f706f73616c7300000000000060208201523390620005c7906200070b565b6001600160a01b0316146200060e5760405162461bcd60e51b8152600401808060200182810382526039815260200180620018f86039913960400191505060405180910390fd5b6200053a600154836040516020018083815260200182805190602001908083835b60208310620006505780518252601f1990920191602091820191016200062f565b6001836020036101000a0380198251168184511680821785525050505050509050019250505060405160208183030381529060405280519060200120826200080260201b60201c565b600080546040805163abfdcced60e01b815260048101869052841515602482015290516101009092046001600160a01b03169263abfdcced9260448084019382900301818387803b158015620006ee57600080fd5b505af115801562000703573d6000803e3d6000fd5b505050505050565b600080620007a98360405160200180806f636f6e74726163742e6164647265737360801b81525060100182805190602001908083835b60208310620007625780518252601f19909201916020918201910162000741565b6001836020036101000a038019825116818451168082178552505050505050905001915050604051602081830303815290604052805190602001206200085660201b60201c565b90506001600160a01b038116620007fc576040805162461bcd60e51b815260206004820152601260248201527110dbdb9d1c9858dd081b9bdd08199bdd5b9960721b604482015290519081900360640190fd5b92915050565b6000805460408051637152429d60e11b8152600481018690526024810185905290516101009092046001600160a01b03169263e2a4853a9260448084019382900301818387803b158015620006ee57600080fd5b60008060019054906101000a90046001600160a01b03166001600160a01b03166321f8a721836040518263ffffffff1660e01b81526004018082815260200191505060206040518083038186803b158015620003ab57600080fd5b61103780620008c16000396000f3fe608060405234801561001057600080fd5b50600436106100ea5760003560e01c806354fd4d501161008c578063c56710ff11610066578063c56710ff1461040d578063d6cd921e146104b1578063f19b410614610560578063fd6ce89e14610568576100ea565b806354fd4d50146103415780635e9d40441461035f5780636ada784714610405576100ea565b80631bfcc24e116100c85780631bfcc24e146101d15780632a57d018146102895780633b474a651461033157806347fa434a14610339576100ea565b8063035cf142146100ef5780630de705b5146101095780631386a24414610111575b600080fd5b6100f7610570565b60408051918252519081900360200190f35b6100f76105a7565b6101b56004803603602081101561012757600080fd5b810190602081018135600160201b81111561014157600080fd5b82018360208201111561015357600080fd5b803590602001918460018302840111600160201b8311171561017457600080fd5b91908080601f0160208091040260200160405190810160405280939291908181526020018383808284376000920191909152509295506105d5945050505050565b604080516001600160a01b039092168252519081900360200190f35b610275600480360360208110156101e757600080fd5b810190602081018135600160201b81111561020157600080fd5b82018360208201111561021357600080fd5b803590602001918460018302840111600160201b8311171561023457600080fd5b91908080601f01602080910402602001604051908101604052809392919081815260200183838082843760009201919091525092955061065d945050505050565b604080519115158252519081900360200190f35b61032f6004803603604081101561029f57600080fd5b810190602081018135600160201b8111156102b957600080fd5b8201836020820111156102cb57600080fd5b803590602001918460018302840111600160201b831117156102ec57600080fd5b91908080601f01602080910402602001604051908101604052809392919081815260200183838082843760009201919091525092955050505035151590506106df565b005b6100f7610837565b610275610870565b6103496108a9565b6040805160ff9092168252519081900360200190f35b61032f6004803603604081101561037557600080fd5b810190602081018135600160201b81111561038f57600080fd5b8201836020820111156103a157600080fd5b803590602001918460018302840111600160201b831117156103c257600080fd5b91908080601f01602080910402602001604051908101604052809392919081815260200183838082843760009201919091525092955050913592506108b2915050565b610275610a06565b6100f76004803603602081101561042357600080fd5b810190602081018135600160201b81111561043d57600080fd5b82018360208201111561044f57600080fd5b803590602001918460018302840111600160201b8311171561047057600080fd5b91908080601f016020809104026020016040519081016040528093929190818152602001838380828437600092019190915250929550610a38945050505050565b61032f600480360360408110156104c757600080fd5b810190602081018135600160201b8111156104e157600080fd5b8201836020820111156104f357600080fd5b803590602001918460018302840111600160201b8311171561051457600080fd5b91908080601f016020809104026020016040519081016040528093929190818152602001838380828437600092019190915250929550505090356001600160a01b03169150610aba9050565b6100f7610c0e565b6100f7610c31565b60006105a26040518060400160405280600f81526020016e6465706f7369742e6d696e696d756d60881b815250610a38565b905090565b60006105a26040518060400160405280600b81526020016a6465706f7369742e66656560a81b815250610a38565b6000610657600154836040516020018083815260200182805190602001908083835b602083106106165780518252601f1990920191602091820191016105f7565b6001836020036101000a0380198251168184511680821785525050505050509050019250505060405160208183030381529060405280519060200120610c68565b92915050565b6000610657600154836040516020018083815260200182805190602001908083835b6020831061069e5780518252601f19909201916020918201910161067f565b6001836020036101000a0380198251168184511680821785525050505050509050019250505060405160208183030381529060405280519060200120610cf4565b61072360015460405160200180828152602001806719195c1b1bde595960c21b81525060080191505060405160208183030381529060405280519060200120610cf4565b156107b257336001600160a01b031661076d6040518060400160405280601a815260200179726f636b657444414f50726f746f636f6c50726f706f73616c7360301b815250610d4e565b6001600160a01b0316146107b25760405162461bcd60e51b8152600401808060200182810382526039815260200180610fa86039913960400191505060405180910390fd5b610833600154836040516020018083815260200182805190602001908083835b602083106107f15780518252601f1990920191602091820191016107d2565b6001836020036101000a038019825116818451168082178552505050505050905001925050506040516020818303038152906040528051906020012082610e34565b5050565b60006105a2604051806040016040528060168152602001756465706f7369742e61737369676e2e6d6178696d756d60501b815250610a38565b60006105a26040518060400160405280601681526020017519195c1bdcda5d0b985cdcda59db8b995b98589b195960521b81525061065d565b60005460ff1681565b6108f660015460405160200180828152602001806719195c1b1bde595960c21b81525060080191505060405160208183030381529060405280519060200120610cf4565b1561098557336001600160a01b03166109406040518060400160405280601a815260200179726f636b657444414f50726f746f636f6c50726f706f73616c7360301b815250610d4e565b6001600160a01b0316146109855760405162461bcd60e51b8152600401808060200182810382526039815260200180610fa86039913960400191505060405180910390fd5b610833600154836040516020018083815260200182805190602001908083835b602083106109c45780518252601f1990920191602091820191016109a5565b6001836020036101000a038019825116818451168082178552505050505050905001925050506040516020818303038152906040528051906020012082610ea4565b60006105a26040518060400160405280600f81526020016e19195c1bdcda5d0b995b98589b1959608a1b81525061065d565b6000610657600154836040516020018083815260200182805190602001908083835b60208310610a795780518252601f199092019160209182019101610a5a565b6001836020036101000a0380198251168184511680821785525050505050509050019250505060405160208183030381529060405280519060200120610ef7565b610afe60015460405160200180828152602001806719195c1b1bde595960c21b81525060080191505060405160208183030381529060405280519060200120610cf4565b15610b8d57336001600160a01b0316610b486040518060400160405280601a815260200179726f636b657444414f50726f746f636f6c50726f706f73616c7360301b815250610d4e565b6001600160a01b031614610b8d5760405162461bcd60e51b8152600401808060200182810382526039815260200180610fa86039913960400191505060405180910390fd5b610833600154836040516020018083815260200182805190602001908083835b60208310610bcc5780518252601f199092019160209182019101610bad565b6001836020036101000a038019825116818451168082178552505050505050905001925050506040516020818303038152906040528051906020012082610f51565b60006105a2604051806060016040528060218152602001610fe160219139610a38565b60006105a2604051806040016040528060148152602001736465706f7369742e706f6f6c2e6d6178696d756d60601b815250610a38565b60008060019054906101000a90046001600160a01b03166001600160a01b03166321f8a721836040518263ffffffff1660e01b81526004018082815260200191505060206040518083038186803b158015610cc257600080fd5b505afa158015610cd6573d6000803e3d6000fd5b505050506040513d6020811015610cec57600080fd5b505192915050565b60008060019054906101000a90046001600160a01b03166001600160a01b0316637ae1cfca836040518263ffffffff1660e01b81526004018082815260200191505060206040518083038186803b158015610cc257600080fd5b600080610de28360405160200180806f636f6e74726163742e6164647265737360801b81525060100182805190602001908083835b60208310610da25780518252601f199092019160209182019101610d83565b6001836020036101000a03801982511681845116808217855250505050505090500191505060405160208183030381529060405280519060200120610c68565b90506001600160a01b038116610657576040805162461bcd60e51b815260206004820152601260248201527110dbdb9d1c9858dd081b9bdd08199bdd5b9960721b604482015290519081900360640190fd5b600080546040805163abfdcced60e01b815260048101869052841515602482015290516101009092046001600160a01b03169263abfdcced9260448084019382900301818387803b158015610e8857600080fd5b505af1158015610e9c573d6000803e3d6000fd5b505050505050565b6000805460408051637152429d60e11b8152600481018690526024810185905290516101009092046001600160a01b03169263e2a4853a9260448084019382900301818387803b158015610e8857600080fd5b60008060019054906101000a90046001600160a01b03166001600160a01b031663bd02d0f5836040518263ffffffff1660e01b81526004018082815260200191505060206040518083038186803b158015610cc257600080fd5b600080546040805163ca446dd960e01b8152600481018690526001600160a01b03858116602483015291516101009093049091169263ca446dd99260448084019382900301818387803b158015610e8857600080fdfe4f6e6c792044414f2050726f746f636f6c2050726f706f73616c7320636f6e74726163742063616e2075706461746520612073657474696e676465706f7369742e61737369676e2e736f6369616c697365642e6d6178696d756da264697066735822122063d9b7d22aef05d1370ac3dbfca7f8860582ae439f7060c4ae9d86a078b198c864736f6c634300070600334f6e6c792044414f2050726f746f636f6c2050726f706f73616c7320636f6e74726163742063616e2075706461746520612073657474696e676465706f7369742e61737369676e2e736f6369616c697365642e6d6178696d756d",
    "linkReferences": {}
  },
  "methodIdentifiers": {
    "getAssignDepositsEnabled()": "47fa434a",
    "getDepositEnabled()": "6ada7847",
    "getDepositFee()": "0de705b5",
    "getMaximumDepositAssignments()": "3b474a65",
    "getMaximumDepositPoolSize()": "fd6ce89e",
    "getMaximumDepositSocialisedAssignments()": "f19b4106",
    "getMinimumDeposit()": "035cf142",
    "getSettingAddress(string)": "1386a244",
    "getSettingBool(string)": "1bfcc24e",
    "getSettingUint(string)": "c56710ff",
    "setSettingAddress(string,address)": "d6cd921e",
    "setSettingBool(string,bool)": "2a57d018",
    "setSettingUint(string,uint256)": "5e9d4044",
    "version()": "54fd4d50"
  },
  "storageLayout": {
    "storage": [
      {
        "astId": 8,
        "contract": "test/foundry/RocketDAOProtocolSettingsDeposit/contracts/contract/dao/protocol/settings/RocketDAOProtocolSettingsDeposit.sol:RocketDAOProtocolSettingsDeposit",
        "label": "version",
        "offset": 0,
        "slot": "0",
        "type": "t_uint8"
      },
      {
        "astId": 13,
        "contract": "test/foundry/RocketDAOProtocolSettingsDeposit/contracts/contract/dao/protocol/settings/RocketDAOProtocolSettingsDeposit.sol:RocketDAOProtocolSettingsDeposit",
        "label": "rocketStorage",
        "offset": 1,
        "slot": "0",
        "type": "t_contract(RocketStorageInterface)1116"
      },
      {
        "astId": 585,
        "contract": "test/foundry/RocketDAOProtocolSettingsDeposit/contracts/contract/dao/protocol/settings/RocketDAOProtocolSettingsDeposit.sol:RocketDAOProtocolSettingsDeposit",
        "label": "settingNameSpace",
        "offset": 0,
        "slot": "1",
        "type": "t_bytes32"
      }
    ],
    "types": {
      "t_bytes32": {
        "encoding": "inplace",
        "label": "bytes32",
        "numberOfBytes": "32"
      },
      "t_contract(RocketStorageInterface)1116": {
        "encoding": "inplace",
        "label": "contract RocketStorageInterface",
        "numberOfBytes": "20"
      },
      "t_uint8": {
        "encoding": "inplace",
        "label": "uint8",
        "numberOfBytes": "1"
      }
    }
  },
  "id": 2
}