{"abi":[{"type":"function","name":"acceptOwnership","inputs":[],"outputs":[],"stateMutability":"nonpayable"},{"type":"function","name":"changeOzTokenImplementations","inputs":[{"name":"newImplementations_","type":"address[]","internalType":"address[]"}],"outputs":[],"stateMutability":"nonpayable"},{"type":"function","name":"claimReward","inputs":[],"outputs":[{"name":"","type":"uint256","internalType":"uint256"}],"stateMutability":"nonpayable"},{"type":"function","name":"earned","inputs":[{"name":"user_","type":"address","internalType":"address"}],"outputs":[{"name":"","type":"uint256","internalType":"uint256"}],"stateMutability":"view"},{"type":"function","name":"getRewardsData","inputs":[],"outputs":[{"name":"rewardRate","type":"uint256","internalType":"uint256"},{"name":"circulatingSupply","type":"uint256","internalType":"uint256"},{"name":"pendingAllocation","type":"uint256","internalType":"uint256"},{"name":"recicledSupply","type":"uint256","internalType":"uint256"},{"name":"durationLeft","type":"int256","internalType":"int256"}],"stateMutability":"view"},{"type":"function","name":"lastTimeRewardApplicable","inputs":[],"outputs":[{"name":"","type":"uint256","internalType":"uint256"}],"stateMutability":"view"},{"type":"function","name":"notifyRewardAmount","inputs":[{"name":"amount_","type":"uint256","internalType":"uint256"}],"outputs":[],"stateMutability":"nonpayable"},{"type":"function","name":"ownerDiamond","inputs":[],"outputs":[{"name":"","type":"address","internalType":"address"}],"stateMutability":"view"},{"type":"function","name":"pendingOwner","inputs":[],"outputs":[{"name":"","type":"address","internalType":"address"}],"stateMutability":"view"},{"type":"function","name":"renounceOwnership","inputs":[],"outputs":[],"stateMutability":"nonpayable"},{"type":"function","name":"rewardPerToken","inputs":[],"outputs":[{"name":"","type":"uint256","internalType":"uint256"}],"stateMutability":"view"},{"type":"function","name":"setRewardsDuration","inputs":[{"name":"duration_","type":"uint256","internalType":"uint256"}],"outputs":[],"stateMutability":"nonpayable"},{"type":"function","name":"transferOwnershipDiamond","inputs":[{"name":"newOwner_","type":"address","internalType":"address"}],"outputs":[],"stateMutability":"nonpayable"},{"type":"event","name":"OwnershipTransferStarted","inputs":[{"name":"previousOwner","type":"address","indexed":true,"internalType":"address"},{"name":"newOwner","type":"address","indexed":true,"internalType":"address"}],"anonymous":false},{"type":"event","name":"OwnershipTransferred","inputs":[{"name":"previousOwner","type":"address","indexed":true,"internalType":"address"},{"name":"newOwner","type":"address","indexed":true,"internalType":"address"}],"anonymous":false},{"type":"event","name":"OwnershipTransferred","inputs":[{"name":"previousOwner","type":"address","indexed":true,"internalType":"address"},{"name":"newOwner","type":"address","indexed":true,"internalType":"address"}],"anonymous":false},{"type":"error","name":"OZError33","inputs":[{"name":"caller","type":"address","internalType":"address"}]},{"type":"error","name":"OZError36","inputs":[{"name":"wrongOwner","type":"address","internalType":"address"}]}],"bytecode":{"object":"0x608060405234801561000f575f80fd5b506107ea8061001d5f395ff3fe608060405234801561000f575f80fd5b50600436106100ca575f3560e01c806380faa57d11610088578063cc1a378f11610063578063cc1a378f146100f4578063cd3daf9d14610156578063d34997571461016f578063e30c39781461018f575f80fd5b806380faa57d1461015657806393019b2a1461015c578063b88a802f14610156575f80fd5b80628cc262146100ce5780633c6b16ab146100f45780634242678614610107578063715018a61461011a57806379ba5097146101225780637d098e641461012a575b5f80fd5b6100e16100dc3660046105ce565b505f90565b6040519081526020015b60405180910390f35b6101056101023660046105e7565b50565b005b610105610115366004610612565b6101a0565b610105610224565b610105610261565b604080515f8082526020820181905291810182905260608101829052608081019190915260a0016100eb565b5f6100e1565b61010561016a3660046105ce565b6102a6565b610177610336565b6040516001600160a01b0390911681526020016100eb565b6030546001600160a01b0316610177565b336101a9610344565b6001600160a01b0316146101d7576040516322717c0360e11b81523360048201526024015b60405180910390fd5b5f816040516024016101e991906106d2565b60408051601f198184030181529190526020810180516001600160e01b031663e2be91bd60e01b179052905061021f3082610372565b505050565b3361022d610344565b6001600160a01b031614610256576040516322717c0360e11b81523360048201526024016101ce565b61025f5f61039e565b565b336102746030546001600160a01b031690565b6001600160a01b03161461029d576040516304fa431760e21b81523360048201526024016101ce565b61025f3361039e565b336102af610344565b6001600160a01b0316146102d8576040516322717c0360e11b81523360048201526024016101ce565b603080546001600160a01b0319166001600160a01b0383169081179091556102fe610336565b6001600160a01b03167f38d16b8cac22d99fc7c124b9cd0de2d3fa1faef420bfe791d8c362d765e2270060405160405180910390a350565b5f61033f610344565b905090565b7fc8fcad8db84d3cc18b4c41d551ea0ee66dd599cde068d998e57d5e09332c1320546001600160a01b031690565b6060610397838360405180606001604052806027815260200161078e60279139610401565b9392505050565b603080546001600160a01b03191690556103b781610475565b806001600160a01b03166103c9610336565b6001600160a01b03167f8be0079c531659141344cd1fd0a4f28419497f9722a3daafe3b4186f6b6457e060405160405180910390a350565b60605f80856001600160a01b03168560405161041d9190610740565b5f60405180830381855af49150503d805f8114610455576040519150601f19603f3d011682016040523d82523d5f602084013e61045a565b606091505b509150915061046b86838387610509565b9695505050505050565b7fc8fcad8db84d3cc18b4c41d551ea0ee66dd599cde068d998e57d5e09332c132080546001600160a01b031981166001600160a01b038481169182179093556040517fc8fcad8db84d3cc18b4c41d551ea0ee66dd599cde068d998e57d5e09332c131c939092169182907f8be0079c531659141344cd1fd0a4f28419497f9722a3daafe3b4186f6b6457e0905f90a3505050565b606083156105775782515f03610570576001600160a01b0385163b6105705760405162461bcd60e51b815260206004820152601d60248201527f416464726573733a2063616c6c20746f206e6f6e2d636f6e747261637400000060448201526064016101ce565b5081610581565b6105818383610589565b949350505050565b8151156105995781518083602001fd5b8060405162461bcd60e51b81526004016101ce919061075b565b80356001600160a01b03811681146105c9575f80fd5b919050565b5f602082840312156105de575f80fd5b610397826105b3565b5f602082840312156105f7575f80fd5b5035919050565b634e487b7160e01b5f52604160045260245ffd5b5f6020808385031215610623575f80fd5b823567ffffffffffffffff8082111561063a575f80fd5b818501915085601f83011261064d575f80fd5b81358181111561065f5761065f6105fe565b8060051b604051601f19603f83011681018181108582111715610684576106846105fe565b6040529182528482019250838101850191888311156106a1575f80fd5b938501935b828510156106c6576106b7856105b3565b845293850193928501926106a6565b98975050505050505050565b602080825282518282018190525f9190848201906040850190845b818110156107125783516001600160a01b0316835292840192918401916001016106ed565b50909695505050505050565b5f5b83811015610738578181015183820152602001610720565b50505f910152565b5f825161075181846020870161071e565b9190910192915050565b602081525f825180602084015261077981604085016020870161071e565b601f01601f1916919091016040019291505056fe416464726573733a206c6f772d6c6576656c2064656c65676174652063616c6c206661696c6564a26469706673582212209c5e992a5ec5a2f9addd344dcf790a5b25d4f0163517b46971830e75e766c7f064736f6c63430008180033","linkReferences":{}},"methodIdentifiers":{"acceptOwnership()":"79ba5097","changeOzTokenImplementations(address[])":"42426786","claimReward()":"b88a802f","earned(address)":"008cc262","getRewardsData()":"7d098e64","lastTimeRewardApplicable()":"80faa57d","notifyRewardAmount(uint256)":"3c6b16ab","ownerDiamond()":"d3499757","pendingOwner()":"e30c3978","renounceOwnership()":"715018a6","rewardPerToken()":"cd3daf9d","setRewardsDuration(uint256)":"cc1a378f","transferOwnershipDiamond(address)":"93019b2a"},"id":12}