{"abi":[{"type":"function","name":"acceptOwnership","inputs":[],"outputs":[],"stateMutability":"nonpayable"},{"type":"function","name":"changeOzTokenImplementations","inputs":[{"name":"newImplementations_","type":"address[]","internalType":"address[]"}],"outputs":[],"stateMutability":"nonpayable"},{"type":"function","name":"claimReward","inputs":[],"outputs":[{"name":"","type":"uint256","internalType":"uint256"}],"stateMutability":"nonpayable"},{"type":"function","name":"earned","inputs":[{"name":"user_","type":"address","internalType":"address"}],"outputs":[{"name":"","type":"uint256","internalType":"uint256"}],"stateMutability":"view"},{"type":"function","name":"getRewardsData","inputs":[],"outputs":[{"name":"rewardRate","type":"uint256","internalType":"uint256"},{"name":"circulatingSupply","type":"uint256","internalType":"uint256"},{"name":"pendingAllocation","type":"uint256","internalType":"uint256"},{"name":"recicledSupply","type":"uint256","internalType":"uint256"},{"name":"durationLeft","type":"int256","internalType":"int256"}],"stateMutability":"view"},{"type":"function","name":"lastTimeRewardApplicable","inputs":[],"outputs":[{"name":"","type":"uint256","internalType":"uint256"}],"stateMutability":"view"},{"type":"function","name":"notifyRewardAmount","inputs":[{"name":"amount_","type":"uint256","internalType":"uint256"}],"outputs":[],"stateMutability":"nonpayable"},{"type":"function","name":"ownerDiamond","inputs":[],"outputs":[{"name":"","type":"address","internalType":"address"}],"stateMutability":"view"},{"type":"function","name":"ownerOZL","inputs":[],"outputs":[{"name":"","type":"address","internalType":"address"}],"stateMutability":"view"},{"type":"function","name":"pendingOwnerDiamond","inputs":[],"outputs":[{"name":"","type":"address","internalType":"address"}],"stateMutability":"view"},{"type":"function","name":"pendingOwnerOZL","inputs":[],"outputs":[{"name":"","type":"address","internalType":"address"}],"stateMutability":"view"},{"type":"function","name":"renounceOwnership","inputs":[],"outputs":[],"stateMutability":"nonpayable"},{"type":"function","name":"rewardPerToken","inputs":[],"outputs":[{"name":"","type":"uint256","internalType":"uint256"}],"stateMutability":"view"},{"type":"function","name":"setRewardsDuration","inputs":[{"name":"duration_","type":"uint256","internalType":"uint256"}],"outputs":[],"stateMutability":"nonpayable"},{"type":"function","name":"transferOwnershipDiamond","inputs":[{"name":"newOwner_","type":"address","internalType":"address"}],"outputs":[],"stateMutability":"nonpayable"},{"type":"event","name":"OwnershipTransferStarted","inputs":[{"name":"previousOwner","type":"address","indexed":true,"internalType":"address"},{"name":"newOwner","type":"address","indexed":true,"internalType":"address"}],"anonymous":false},{"type":"event","name":"OwnershipTransferred","inputs":[{"name":"previousOwner","type":"address","indexed":true,"internalType":"address"},{"name":"newOwner","type":"address","indexed":true,"internalType":"address"}],"anonymous":false},{"type":"event","name":"OwnershipTransferred","inputs":[{"name":"previousOwner","type":"address","indexed":true,"internalType":"address"},{"name":"newOwner","type":"address","indexed":true,"internalType":"address"}],"anonymous":false},{"type":"error","name":"OZError33","inputs":[{"name":"caller","type":"address","internalType":"address"}]},{"type":"error","name":"OZError36","inputs":[{"name":"wrongOwner","type":"address","internalType":"address"}]}],"bytecode":{"object":"0x608060405234801561001057600080fd5b50610967806100206000396000f3fe608060405234801561001057600080fd5b50600436106100f45760003560e01c806380faa57d11610097578063b88a802f11610066578063b88a802f146101a3578063cc1a378f14610140578063cd3daf9d146101a3578063d3499757146101df57600080fd5b806380faa57d146101a357806393019b2a146101aa57806394e74bc6146101bd578063b74bd647146101ce57600080fd5b806342426786116100d35780634242678614610153578063715018a61461016657806379ba50971461016e5780637d098e641461017657600080fd5b80628cc262146100f9578063205fc32d146101205780633c6b16ab14610140575b600080fd5b61010d6101073660046106f7565b50600090565b6040519081526020015b60405180910390f35b6101286101e7565b6040516001600160a01b039091168152602001610117565b61015161014e366004610714565b50565b005b610151610161366004610743565b610239565b6101516102be565b6101516102fc565b6040805160008082526020820181905291810182905260608101829052608081019190915260a001610117565b600061010d565b6101516101b83660046106f7565b610341565b6030546001600160a01b0316610128565b6031546001600160a01b0316610128565b6101286103d1565b6040805160048152602481019091526020810180516001600160e01b03166371edfb9f60e01b17905260009061021d30826103e0565b9050808060200190518101906102339190610808565b91505090565b3361024261040c565b6001600160a01b031614610270576040516322717c0360e11b81523360048201526024015b60405180910390fd5b6000816040516024016102839190610825565b60408051601f198184030181529190526020810180516001600160e01b031663e2be91bd60e01b17905290506102b9308261043a565b505050565b336102c761040c565b6001600160a01b0316146102f0576040516322717c0360e11b8152336004820152602401610267565b6102fa600061045f565b565b3361030f6030546001600160a01b031690565b6001600160a01b031614610338576040516304fa431760e21b8152336004820152602401610267565b6102fa3361045f565b3361034a61040c565b6001600160a01b031614610373576040516322717c0360e11b8152336004820152602401610267565b603080546001600160a01b0319166001600160a01b0383169081179091556103996103d1565b6001600160a01b03167f38d16b8cac22d99fc7c124b9cd0de2d3fa1faef420bfe791d8c362d765e2270060405160405180910390a350565b60006103db61040c565b905090565b606061040583836040518060600160405280602581526020016108e6602591396104c2565b9392505050565b7fc8fcad8db84d3cc18b4c41d551ea0ee66dd599cde068d998e57d5e09332c1320546001600160a01b031690565b6060610405838360405180606001604052806027815260200161090b6027913961053a565b603080546001600160a01b031916905561047881610592565b806001600160a01b031661048a6103d1565b6001600160a01b03167f8be0079c531659141344cd1fd0a4f28419497f9722a3daafe3b4186f6b6457e060405160405180910390a350565b6060600080856001600160a01b0316856040516104df9190610896565b600060405180830381855afa9150503d806000811461051a576040519150601f19603f3d011682016040523d82523d6000602084013e61051f565b606091505b509150915061053086838387610627565b9695505050505050565b6060600080856001600160a01b0316856040516105579190610896565b600060405180830381855af49150503d806000811461051a576040519150601f19603f3d011682016040523d82523d6000602084013e61051f565b7fc8fcad8db84d3cc18b4c41d551ea0ee66dd599cde068d998e57d5e09332c132080546001600160a01b031981166001600160a01b038481169182179093556040517fc8fcad8db84d3cc18b4c41d551ea0ee66dd599cde068d998e57d5e09332c131c939092169182907f8be0079c531659141344cd1fd0a4f28419497f9722a3daafe3b4186f6b6457e090600090a3505050565b6060831561069657825160000361068f576001600160a01b0385163b61068f5760405162461bcd60e51b815260206004820152601d60248201527f416464726573733a2063616c6c20746f206e6f6e2d636f6e74726163740000006044820152606401610267565b50816106a0565b6106a083836106a8565b949350505050565b8151156106b85781518083602001fd5b8060405162461bcd60e51b815260040161026791906108b2565b6001600160a01b038116811461014e57600080fd5b80356106f2816106d2565b919050565b60006020828403121561070957600080fd5b8135610405816106d2565b60006020828403121561072657600080fd5b5035919050565b634e487b7160e01b600052604160045260246000fd5b6000602080838503121561075657600080fd5b823567ffffffffffffffff8082111561076e57600080fd5b818501915085601f83011261078257600080fd5b8135818111156107945761079461072d565b8060051b604051601f19603f830116810181811085821117156107b9576107b961072d565b6040529182528482019250838101850191888311156107d757600080fd5b938501935b828510156107fc576107ed856106e7565b845293850193928501926107dc565b98975050505050505050565b60006020828403121561081a57600080fd5b8151610405816106d2565b6020808252825182820181905260009190848201906040850190845b818110156108665783516001600160a01b031683529284019291840191600101610841565b50909695505050505050565b60005b8381101561088d578181015183820152602001610875565b50506000910152565b600082516108a8818460208701610872565b9190910192915050565b60208152600082518060208401526108d1816040850160208701610872565b601f01601f1916919091016040019291505056fe416464726573733a206c6f772d6c6576656c207374617469632063616c6c206661696c6564416464726573733a206c6f772d6c6576656c2064656c65676174652063616c6c206661696c6564a2646970667358221220fa8778ad8582810f9e4c5a4fcc43dbc8a99c991723ad37fcd738e98a5ef4793164736f6c63430008150033","linkReferences":{}},"methodIdentifiers":{"acceptOwnership()":"79ba5097","changeOzTokenImplementations(address[])":"42426786","claimReward()":"b88a802f","earned(address)":"008cc262","getRewardsData()":"7d098e64","lastTimeRewardApplicable()":"80faa57d","notifyRewardAmount(uint256)":"3c6b16ab","ownerDiamond()":"d3499757","ownerOZL()":"205fc32d","pendingOwnerDiamond()":"94e74bc6","pendingOwnerOZL()":"b74bd647","renounceOwnership()":"715018a6","rewardPerToken()":"cd3daf9d","setRewardsDuration(uint256)":"cc1a378f","transferOwnershipDiamond(address)":"93019b2a"},"id":12}