{"abi":[{"type":"function","name":"acceptOwnershipDiamond","inputs":[],"outputs":[],"stateMutability":"nonpayable"},{"type":"function","name":"acceptOwnershipOZL","inputs":[],"outputs":[],"stateMutability":"nonpayable"},{"type":"function","name":"changeOzTokenImplementations","inputs":[{"name":"newImplementations_","type":"address[]","internalType":"address[]"}],"outputs":[],"stateMutability":"nonpayable"},{"type":"function","name":"claimReward","inputs":[],"outputs":[{"name":"","type":"uint256","internalType":"uint256"}],"stateMutability":"nonpayable"},{"type":"function","name":"earned","inputs":[{"name":"user_","type":"address","internalType":"address"}],"outputs":[{"name":"","type":"uint256","internalType":"uint256"}],"stateMutability":"view"},{"type":"function","name":"getRewardsData","inputs":[],"outputs":[{"name":"rewardRate","type":"uint256","internalType":"uint256"},{"name":"circulatingSupply","type":"uint256","internalType":"uint256"},{"name":"pendingAllocation","type":"uint256","internalType":"uint256"},{"name":"recicledSupply","type":"uint256","internalType":"uint256"},{"name":"durationLeft","type":"int256","internalType":"int256"}],"stateMutability":"view"},{"type":"function","name":"lastTimeRewardApplicable","inputs":[],"outputs":[{"name":"","type":"uint256","internalType":"uint256"}],"stateMutability":"view"},{"type":"function","name":"notifyRewardAmount","inputs":[{"name":"amount_","type":"uint256","internalType":"uint256"}],"outputs":[],"stateMutability":"nonpayable"},{"type":"function","name":"ownerDiamond","inputs":[],"outputs":[{"name":"","type":"address","internalType":"address"}],"stateMutability":"view"},{"type":"function","name":"ownerOZL","inputs":[],"outputs":[{"name":"","type":"address","internalType":"address"}],"stateMutability":"view"},{"type":"function","name":"pendingOwnerDiamond","inputs":[],"outputs":[{"name":"","type":"address","internalType":"address"}],"stateMutability":"view"},{"type":"function","name":"pendingOwnerOZL","inputs":[],"outputs":[{"name":"","type":"address","internalType":"address"}],"stateMutability":"view"},{"type":"function","name":"renounceOwnership","inputs":[],"outputs":[],"stateMutability":"nonpayable"},{"type":"function","name":"rewardPerToken","inputs":[],"outputs":[{"name":"","type":"uint256","internalType":"uint256"}],"stateMutability":"view"},{"type":"function","name":"setRewardsDuration","inputs":[{"name":"duration_","type":"uint256","internalType":"uint256"}],"outputs":[],"stateMutability":"nonpayable"},{"type":"function","name":"transferOwnershipDiamond","inputs":[{"name":"newOwner_","type":"address","internalType":"address"}],"outputs":[],"stateMutability":"nonpayable"},{"type":"function","name":"transferOwnershipOZL","inputs":[{"name":"newOwner_","type":"address","internalType":"address"}],"outputs":[],"stateMutability":"nonpayable"},{"type":"event","name":"OZLownershipTransferStarted","inputs":[{"name":"previousOwner","type":"address","indexed":true,"internalType":"address"},{"name":"newOwner","type":"address","indexed":true,"internalType":"address"}],"anonymous":false},{"type":"event","name":"OwnershipTransferStarted","inputs":[{"name":"previousOwner","type":"address","indexed":true,"internalType":"address"},{"name":"newOwner","type":"address","indexed":true,"internalType":"address"}],"anonymous":false},{"type":"event","name":"OwnershipTransferred","inputs":[{"name":"previousOwner","type":"address","indexed":true,"internalType":"address"},{"name":"newOwner","type":"address","indexed":true,"internalType":"address"}],"anonymous":false},{"type":"event","name":"OwnershipTransferred","inputs":[{"name":"previousOwner","type":"address","indexed":true,"internalType":"address"},{"name":"newOwner","type":"address","indexed":true,"internalType":"address"}],"anonymous":false},{"type":"error","name":"OZError33","inputs":[{"name":"caller","type":"address","internalType":"address"}]},{"type":"error","name":"OZError36","inputs":[{"name":"wrongOwner","type":"address","internalType":"address"}]}],"bytecode":{"object":"0x608060405234801561001057600080fd5b50610d86806100206000396000f3fe608060405234801561001057600080fd5b506004361061010a5760003560e01c806394e74bc6116100a2578063cc1a378f11610071578063cc1a378f14610156578063cd3daf9d146101b1578063d3499757146101f5578063dde24dcd146101fd578063f7f328a91461021057600080fd5b806394e74bc6146101cb578063b74bd647146101dc578063b88a802f146101b1578063bc531cfd146101ed57600080fd5b8063715018a6116100de578063715018a61461017c5780637d098e641461018457806380faa57d146101b157806393019b2a146101b857600080fd5b80628cc2621461010f578063205fc32d146101365780633c6b16ab146101565780634242678614610169575b600080fd5b61012361011d366004610ae0565b50600090565b6040519081526020015b60405180910390f35b61013e610218565b6040516001600160a01b03909116815260200161012d565b610167610164366004610afd565b50565b005b610167610177366004610b2c565b61026a565b6101676102ef565b6040805160008082526020820181905291810182905260608101829052608081019190915260a00161012d565b6000610123565b6101676101c6366004610ae0565b61032d565b6030546001600160a01b031661013e565b6031546001600160a01b031661013e565b6101676103bd565b61013e610496565b61016761020b366004610ae0565b6104a5565b610167610600565b6040805160048152602481019091526020810180516001600160e01b03166371edfb9f60e01b17905260009061024e3082610645565b9050808060200190518101906102649190610bf1565b91505090565b33610273610671565b6001600160a01b0316146102a1576040516322717c0360e11b81523360048201526024015b60405180910390fd5b6000816040516024016102b49190610c0e565b60408051601f198184030181529190526020810180516001600160e01b031663e2be91bd60e01b17905290506102ea308261069f565b505050565b336102f8610671565b6001600160a01b031614610321576040516322717c0360e11b8152336004820152602401610298565b61032b60006106c4565b565b33610336610671565b6001600160a01b03161461035f576040516322717c0360e11b8152336004820152602401610298565b603080546001600160a01b0319166001600160a01b038316908117909155610385610496565b6001600160a01b03167f38d16b8cac22d99fc7c124b9cd0de2d3fa1faef420bfe791d8c362d765e2270060405160405180910390a350565b336103d06031546001600160a01b031690565b6001600160a01b0316146103f9576040516304fa431760e21b8152336004820152602401610298565b603080546001600160a01b03191690556000610413610218565b60405133602482015290915060009060440160408051601f198184030181529190526020810180516001600160e01b0316636dbb22d760e11b179052905061045b308261069f565b5060405133906001600160a01b038416907f8be0079c531659141344cd1fd0a4f28419497f9722a3daafe3b4186f6b6457e090600090a35050565b60006104a0610671565b905090565b6040805160048152602481019091526020810180516001600160e01b03166371edfb9f60e01b1790526104d8308261072d565b90506105086040518060400160405280600c81526020016b036b9b39739b2b73232b91d160a51b81525033610771565b61055a6040518060400160405280601c81526020017f6162692e6465636f646528646174612c202861646472657373293a2000000000815250828060200190518101906105559190610bf1565b610771565b8080602001905181019061056e9190610bf1565b6001600160a01b0316336001600160a01b0316146105a1576040516322717c0360e11b8152336004820152602401610298565b603180546001600160a01b0319166001600160a01b0384169081179091556105c7610218565b6001600160a01b03167fbf32be290048119c9af5466593aac1cab61862f35d81c66b7948aebbe0e16bf160405160405180910390a35050565b336106136030546001600160a01b031690565b6001600160a01b03161461063c576040516304fa431760e21b8152336004820152602401610298565b61032b336106c4565b606061066a8383604051806060016040528060258152602001610d05602591396107ba565b9392505050565b7fc8fcad8db84d3cc18b4c41d551ea0ee66dd599cde068d998e57d5e09332c1320546001600160a01b031690565b606061066a8383604051806060016040528060278152602001610d2a60279139610832565b603080546001600160a01b031916905560006106de610496565b90506106e98261088a565b816001600160a01b0316816001600160a01b03167f8be0079c531659141344cd1fd0a4f28419497f9722a3daafe3b4186f6b6457e060405160405180910390a35050565b606061066a838360006040518060400160405280601e81526020017f416464726573733a206c6f772d6c6576656c2063616c6c206661696c6564000081525061091f565b6107b68282604051602401610787929190610cab565b60408051601f198184030181529190526020810180516001600160e01b031663319af33360e01b1790526109fc565b5050565b6060600080856001600160a01b0316856040516107d79190610cd5565b600060405180830381855afa9150503d8060008114610812576040519150601f19603f3d011682016040523d82523d6000602084013e610817565b606091505b509150915061082886838387610a1d565b9695505050505050565b6060600080856001600160a01b03168560405161084f9190610cd5565b600060405180830381855af49150503d8060008114610812576040519150601f19603f3d011682016040523d82523d6000602084013e610817565b7fc8fcad8db84d3cc18b4c41d551ea0ee66dd599cde068d998e57d5e09332c132080546001600160a01b031981166001600160a01b038481169182179093556040517fc8fcad8db84d3cc18b4c41d551ea0ee66dd599cde068d998e57d5e09332c131c939092169182907f8be0079c531659141344cd1fd0a4f28419497f9722a3daafe3b4186f6b6457e090600090a3505050565b6060824710156109805760405162461bcd60e51b815260206004820152602660248201527f416464726573733a20696e73756666696369656e742062616c616e636520666f6044820152651c8818d85b1b60d21b6064820152608401610298565b600080866001600160a01b0316858760405161099c9190610cd5565b60006040518083038185875af1925050503d80600081146109d9576040519150601f19603f3d011682016040523d82523d6000602084013e6109de565b606091505b50915091506109ef87838387610a1d565b925050505b949350505050565b80516a636f6e736f6c652e6c6f67602083016000808483855afa5050505050565b60608315610a8c578251600003610a85576001600160a01b0385163b610a855760405162461bcd60e51b815260206004820152601d60248201527f416464726573733a2063616c6c20746f206e6f6e2d636f6e74726163740000006044820152606401610298565b50816109f4565b6109f48383815115610aa15781518083602001fd5b8060405162461bcd60e51b81526004016102989190610cf1565b6001600160a01b038116811461016457600080fd5b8035610adb81610abb565b919050565b600060208284031215610af257600080fd5b813561066a81610abb565b600060208284031215610b0f57600080fd5b5035919050565b634e487b7160e01b600052604160045260246000fd5b60006020808385031215610b3f57600080fd5b823567ffffffffffffffff80821115610b5757600080fd5b818501915085601f830112610b6b57600080fd5b813581811115610b7d57610b7d610b16565b8060051b604051601f19603f83011681018181108582111715610ba257610ba2610b16565b604052918252848201925083810185019188831115610bc057600080fd5b938501935b82851015610be557610bd685610ad0565b84529385019392850192610bc5565b98975050505050505050565b600060208284031215610c0357600080fd5b815161066a81610abb565b6020808252825182820181905260009190848201906040850190845b81811015610c4f5783516001600160a01b031683529284019291840191600101610c2a565b50909695505050505050565b60005b83811015610c76578181015183820152602001610c5e565b50506000910152565b60008151808452610c97816020860160208601610c5b565b601f01601f19169290920160200192915050565b604081526000610cbe6040830185610c7f565b905060018060a01b03831660208301529392505050565b60008251610ce7818460208701610c5b565b9190910192915050565b60208152600061066a6020830184610c7f56fe416464726573733a206c6f772d6c6576656c207374617469632063616c6c206661696c6564416464726573733a206c6f772d6c6576656c2064656c65676174652063616c6c206661696c6564a26469706673582212209308c4d1c127eba872a4f127060a0869c3d0d613c861649755b97b4956803ce864736f6c63430008150033","linkReferences":{}},"methodIdentifiers":{"acceptOwnershipDiamond()":"f7f328a9","acceptOwnershipOZL()":"bc531cfd","changeOzTokenImplementations(address[])":"42426786","claimReward()":"b88a802f","earned(address)":"008cc262","getRewardsData()":"7d098e64","lastTimeRewardApplicable()":"80faa57d","notifyRewardAmount(uint256)":"3c6b16ab","ownerDiamond()":"d3499757","ownerOZL()":"205fc32d","pendingOwnerDiamond()":"94e74bc6","pendingOwnerOZL()":"b74bd647","renounceOwnership()":"715018a6","rewardPerToken()":"cd3daf9d","setRewardsDuration(uint256)":"cc1a378f","transferOwnershipDiamond(address)":"93019b2a","transferOwnershipOZL(address)":"dde24dcd"},"id":12}