{"abi":[{"type":"function","name":"ownerDiamond","inputs":[],"outputs":[{"name":"owner_","type":"address","internalType":"address"}],"stateMutability":"view"},{"type":"function","name":"transferOwnershipDiamond","inputs":[{"name":"_newOwner","type":"address","internalType":"address"}],"outputs":[],"stateMutability":"nonpayable"},{"type":"event","name":"OwnershipTransferred","inputs":[{"name":"previousOwner","type":"address","indexed":true,"internalType":"address"},{"name":"newOwner","type":"address","indexed":true,"internalType":"address"}],"anonymous":false}],"bytecode":{"object":"0x608060405234801561001057600080fd5b50610248806100206000396000f3fe608060405234801561001057600080fd5b50600436106100365760003560e01c806393019b2a1461003b578063d349975714610050575b600080fd5b61004e6100493660046101e2565b610074565b005b610058610088565b6040516001600160a01b03909116815260200160405180910390f35b61007c6100c0565b6100858161014d565b50565b60006100bb7fc8fcad8db84d3cc18b4c41d551ea0ee66dd599cde068d998e57d5e09332c1320546001600160a01b031690565b905090565b7fc8fcad8db84d3cc18b4c41d551ea0ee66dd599cde068d998e57d5e09332c131c600401546001600160a01b0316331461014b5760405162461bcd60e51b815260206004820152602260248201527f4c69624469616d6f6e643a204d75737420626520636f6e7472616374206f776e60448201526132b960f11b606482015260840160405180910390fd5b565b7fc8fcad8db84d3cc18b4c41d551ea0ee66dd599cde068d998e57d5e09332c132080546001600160a01b031981166001600160a01b038481169182179093556040517fc8fcad8db84d3cc18b4c41d551ea0ee66dd599cde068d998e57d5e09332c131c939092169182907f8be0079c531659141344cd1fd0a4f28419497f9722a3daafe3b4186f6b6457e090600090a3505050565b6000602082840312156101f457600080fd5b81356001600160a01b038116811461020b57600080fd5b939250505056fea2646970667358221220ea4986575b6c7c971fec84f3dccec1213c265d2bb3e5334319b649a46ebf43cb64736f6c63430008150033","linkReferences":{}},"methodIdentifiers":{"ownerDiamond()":"d3499757","transferOwnershipDiamond(address)":"93019b2a"},"id":12}