{"abi":[{"type":"function","name":"acceptOwnership","inputs":[],"outputs":[],"stateMutability":"nonpayable"},{"type":"function","name":"claimReward","inputs":[],"outputs":[{"name":"","type":"uint256","internalType":"uint256"}],"stateMutability":"nonpayable"},{"type":"function","name":"earned","inputs":[{"name":"user_","type":"address","internalType":"address"}],"outputs":[{"name":"","type":"uint256","internalType":"uint256"}],"stateMutability":"view"},{"type":"function","name":"getRewardsData","inputs":[],"outputs":[{"name":"rewardRate","type":"uint256","internalType":"uint256"},{"name":"circulatingSupply","type":"uint256","internalType":"uint256"},{"name":"pendingAllocation","type":"uint256","internalType":"uint256"},{"name":"recicledSupply","type":"uint256","internalType":"uint256"},{"name":"durationLeft","type":"int256","internalType":"int256"}],"stateMutability":"view"},{"type":"function","name":"lastTimeRewardApplicable","inputs":[],"outputs":[{"name":"","type":"uint256","internalType":"uint256"}],"stateMutability":"view"},{"type":"function","name":"notifyRewardAmount","inputs":[{"name":"amount_","type":"uint256","internalType":"uint256"}],"outputs":[],"stateMutability":"nonpayable"},{"type":"function","name":"ownerDiamond","inputs":[],"outputs":[{"name":"","type":"address","internalType":"address"}],"stateMutability":"view"},{"type":"function","name":"pendingOwner","inputs":[],"outputs":[{"name":"","type":"address","internalType":"address"}],"stateMutability":"view"},{"type":"function","name":"renounceOwnership","inputs":[],"outputs":[],"stateMutability":"nonpayable"},{"type":"function","name":"rewardPerToken","inputs":[],"outputs":[{"name":"","type":"uint256","internalType":"uint256"}],"stateMutability":"view"},{"type":"function","name":"setRewardsDuration","inputs":[{"name":"duration_","type":"uint256","internalType":"uint256"}],"outputs":[],"stateMutability":"nonpayable"},{"type":"function","name":"transferOwnershipDiamond","inputs":[{"name":"newOwner_","type":"address","internalType":"address"}],"outputs":[],"stateMutability":"nonpayable"},{"type":"event","name":"OwnershipTransferStarted","inputs":[{"name":"previousOwner","type":"address","indexed":true,"internalType":"address"},{"name":"newOwner","type":"address","indexed":true,"internalType":"address"}],"anonymous":false},{"type":"event","name":"OwnershipTransferred","inputs":[{"name":"previousOwner","type":"address","indexed":true,"internalType":"address"},{"name":"newOwner","type":"address","indexed":true,"internalType":"address"}],"anonymous":false},{"type":"event","name":"OwnershipTransferred","inputs":[{"name":"previousOwner","type":"address","indexed":true,"internalType":"address"},{"name":"newOwner","type":"address","indexed":true,"internalType":"address"}],"anonymous":false},{"type":"error","name":"OZError33","inputs":[{"name":"caller","type":"address","internalType":"address"}]},{"type":"error","name":"OZError36","inputs":[{"name":"wrongOwner","type":"address","internalType":"address"}]}],"bytecode":{"object":"0x608060405234801561001057600080fd5b50610446806100206000396000f3fe608060405234801561001057600080fd5b50600436106100b35760003560e01c806393019b2a1161007157806393019b2a14610136578063b88a802f1461012f578063cc1a378f146100df578063cd3daf9d1461012f578063d349975714610149578063e30c39781461016957600080fd5b80628cc262146100b85780633c6b16ab146100df578063715018a6146100f257806379ba5097146100fa5780637d098e641461010257806380faa57d1461012f575b600080fd5b6100cc6100c63660046103c7565b50600090565b6040519081526020015b60405180910390f35b6100f06100ed3660046103f7565b50565b005b6100f061017a565b6100f06101bd565b6040805160008082526020820181905291810182905260608101829052608081019190915260a0016100d6565b60006100cc565b6100f06101443660046103c7565b610202565b610151610292565b6040516001600160a01b0390911681526020016100d6565b6030546001600160a01b0316610151565b336101836102a1565b6001600160a01b0316146101b1576040516322717c0360e11b81523360048201526024015b60405180910390fd5b6101bb60006102cf565b565b336101d06030546001600160a01b031690565b6001600160a01b0316146101f9576040516304fa431760e21b81523360048201526024016101a8565b6101bb336102cf565b3361020b6102a1565b6001600160a01b031614610234576040516322717c0360e11b81523360048201526024016101a8565b603080546001600160a01b0319166001600160a01b03831690811790915561025a610292565b6001600160a01b03167f38d16b8cac22d99fc7c124b9cd0de2d3fa1faef420bfe791d8c362d765e2270060405160405180910390a350565b600061029c6102a1565b905090565b7fc8fcad8db84d3cc18b4c41d551ea0ee66dd599cde068d998e57d5e09332c1320546001600160a01b031690565b603080546001600160a01b03191690556102e881610332565b806001600160a01b03166102fa610292565b6001600160a01b03167f8be0079c531659141344cd1fd0a4f28419497f9722a3daafe3b4186f6b6457e060405160405180910390a350565b7fc8fcad8db84d3cc18b4c41d551ea0ee66dd599cde068d998e57d5e09332c132080546001600160a01b031981166001600160a01b038481169182179093556040517fc8fcad8db84d3cc18b4c41d551ea0ee66dd599cde068d998e57d5e09332c131c939092169182907f8be0079c531659141344cd1fd0a4f28419497f9722a3daafe3b4186f6b6457e090600090a3505050565b6000602082840312156103d957600080fd5b81356001600160a01b03811681146103f057600080fd5b9392505050565b60006020828403121561040957600080fd5b503591905056fea2646970667358221220d266a8f3f984d467f98f4fde13311ac62ef640104eb1a237ee136b5c2938c1c764736f6c63430008150033","linkReferences":{}},"methodIdentifiers":{"acceptOwnership()":"79ba5097","claimReward()":"b88a802f","earned(address)":"008cc262","getRewardsData()":"7d098e64","lastTimeRewardApplicable()":"80faa57d","notifyRewardAmount(uint256)":"3c6b16ab","ownerDiamond()":"d3499757","pendingOwner()":"e30c3978","renounceOwnership()":"715018a6","rewardPerToken()":"cd3daf9d","setRewardsDuration(uint256)":"cc1a378f","transferOwnershipDiamond(address)":"93019b2a"},"id":12}