{
  "abi": [
    {
      "inputs": [],
      "name": "test_get",
      "outputs": [],
      "stateMutability": "nonpayable",
      "type": "function"
    }
  ],
  "bytecode": {
    "object": "0x6080604052600460005534801561001557600080fd5b5060dc806100246000396000f3fe6080604052348015600f57600080fd5b506004361060285760003560e01c8063be03c60214602d575b600080fd5b60336035565b005b603e6000546040565b565b608281604051602401605491815260200190565b60408051601f198184030181529190526020810180516001600160e01b031663f5b1bba960e01b1790526085565b50565b80516a636f6e736f6c652e6c6f67602083016000808483855afa505050505056fea2646970667358221220304ad83720d7e64ee91c746b05f30646502d48e8f3d0b178899e25278c9871ce64736f6c63430008150033",
    "linkReferences": {}
  },
  "methodIdentifiers": {
    "test_get()": "be03c602"
  },
  "id": 1
}