{"abi":[{"type":"constructor","inputs":[{"name":"_size","type":"uint256","internalType":"uint256"}],"stateMutability":"nonpayable"},{"type":"function","name":"addNumbers","inputs":[{"name":"maxNumber","type":"uint256","internalType":"uint256"}],"outputs":[],"stateMutability":"nonpayable"},{"type":"function","name":"query","inputs":[{"name":"index","type":"uint256","internalType":"uint256"}],"outputs":[{"name":"sum","type":"uint256","internalType":"uint256"}],"stateMutability":"view"},{"type":"function","name":"size","inputs":[],"outputs":[{"name":"","type":"uint256","internalType":"uint256"}],"stateMutability":"view"},{"type":"function","name":"sumFrom1ToMax","inputs":[{"name":"maxNumber","type":"uint256","internalType":"uint256"}],"outputs":[{"name":"","type":"uint256","internalType":"uint256"}],"stateMutability":"view"},{"type":"function","name":"tree","inputs":[{"name":"","type":"uint256","internalType":"uint256"}],"outputs":[{"name":"","type":"uint256","internalType":"uint256"}],"stateMutability":"view"},{"type":"function","name":"update","inputs":[{"name":"index","type":"uint256","internalType":"uint256"},{"name":"value","type":"uint256","internalType":"uint256"}],"outputs":[],"stateMutability":"nonpayable"}],"bytecode":{"object":"0x608060405234801561000f575f80fd5b5060405161037538038061037583398101604081905261002e91610035565b5f5561004c565b5f60208284031215610045575f80fd5b5051919050565b61031c806100595f395ff3fe608060405234801561000f575f80fd5b5060043610610060575f3560e01c80632be55998146100645780632fb565e814610079578063313529361461008c578063949d225d146100bd578063a11f60a9146100c5578063afdac68d146100d8575b5f80fd5b61007761007236600461025d565b6100eb565b005b610077610087366004610274565b610115565b6100ab61009a36600461025d565b60016020525f908152604090205481565b60405190815260200160405180910390f35b6100ab5f5481565b6100ab6100d336600461025d565b6101b6565b6100ab6100e636600461025d565b6101c6565b60015b818111610111576100ff8182610115565b80610109816102a8565b9150506100ee565b5050565b5f8211801561012557505f548211155b61016c5760405162461bcd60e51b8152602060048201526013602482015272496e646578206f7574206f6620626f756e647360681b60448201526064015b60405180910390fd5b5f548211610111575f82815260016020526040812080548392906101919084906102c0565b909155506101a39050821960016102c0565b6101af908316836102c0565b915061016c565b5f6101c0826101c6565b92915050565b5f80821180156101d757505f548211155b6102195760405162461bcd60e51b8152602060048201526013602482015272496e646578206f7574206f6620626f756e647360681b6044820152606401610163565b8115610258575f8281526001602052604090205461023790826102c0565b9050610245821960016102c0565b610251908316836102d3565b9150610219565b919050565b5f6020828403121561026d575f80fd5b5035919050565b5f8060408385031215610285575f80fd5b50508035926020909101359150565b634e487b7160e01b5f52601160045260245ffd5b5f600182016102b9576102b9610294565b5060010190565b808201808211156101c0576101c0610294565b818103818111156101c0576101c061029456fea2646970667358221220b6325558278dd9e681aee6f93509bd5e3d00d63ef340f56ba2edd42e198e90d364736f6c63430008180033","linkReferences":{}},"methodIdentifiers":{"addNumbers(uint256)":"2be55998","query(uint256)":"afdac68d","size()":"949d225d","sumFrom1ToMax(uint256)":"a11f60a9","tree(uint256)":"31352936","update(uint256,uint256)":"2fb565e8"},"id":0}