{
  "abi": [
    {
      "inputs": [
        {
          "internalType": "string",
          "name": "name_",
          "type": "string"
        },
        {
          "internalType": "string",
          "name": "symbol_",
          "type": "string"
        },
        {
          "internalType": "address",
          "name": "underlying_",
          "type": "address"
        },
        {
          "internalType": "uint8",
          "name": "decimals_",
          "type": "uint8"
        },
        {
          "internalType": "address",
          "name": "diamond_",
          "type": "address"
        }
      ],
      "stateMutability": "nonpayable",
      "type": "constructor"
    },
    {
      "anonymous": false,
      "inputs": [
        {
          "indexed": true,
          "internalType": "address",
          "name": "owner",
          "type": "address"
        },
        {
          "indexed": true,
          "internalType": "address",
          "name": "spender",
          "type": "address"
        },
        {
          "indexed": false,
          "internalType": "uint256",
          "name": "value",
          "type": "uint256"
        }
      ],
      "name": "Approval",
      "type": "event"
    },
    {
      "anonymous": false,
      "inputs": [
        {
          "indexed": true,
          "internalType": "address",
          "name": "from",
          "type": "address"
        },
        {
          "indexed": true,
          "internalType": "address",
          "name": "to",
          "type": "address"
        },
        {
          "indexed": false,
          "internalType": "uint256",
          "name": "value",
          "type": "uint256"
        }
      ],
      "name": "Transfer",
      "type": "event"
    },
    {
      "inputs": [
        {
          "internalType": "address",
          "name": "owner",
          "type": "address"
        },
        {
          "internalType": "address",
          "name": "spender",
          "type": "address"
        }
      ],
      "name": "allowance",
      "outputs": [
        {
          "internalType": "uint256",
          "name": "",
          "type": "uint256"
        }
      ],
      "stateMutability": "view",
      "type": "function"
    },
    {
      "inputs": [
        {
          "internalType": "address",
          "name": "spender",
          "type": "address"
        },
        {
          "internalType": "uint256",
          "name": "amount",
          "type": "uint256"
        }
      ],
      "name": "approve",
      "outputs": [
        {
          "internalType": "bool",
          "name": "",
          "type": "bool"
        }
      ],
      "stateMutability": "nonpayable",
      "type": "function"
    },
    {
      "inputs": [
        {
          "internalType": "address",
          "name": "account",
          "type": "address"
        }
      ],
      "name": "balanceOf",
      "outputs": [
        {
          "internalType": "uint256",
          "name": "",
          "type": "uint256"
        }
      ],
      "stateMutability": "view",
      "type": "function"
    },
    {
      "inputs": [],
      "name": "decimals",
      "outputs": [
        {
          "internalType": "uint8",
          "name": "",
          "type": "uint8"
        }
      ],
      "stateMutability": "view",
      "type": "function"
    },
    {
      "inputs": [
        {
          "internalType": "address",
          "name": "spender",
          "type": "address"
        },
        {
          "internalType": "uint256",
          "name": "subtractedValue",
          "type": "uint256"
        }
      ],
      "name": "decreaseAllowance",
      "outputs": [
        {
          "internalType": "bool",
          "name": "",
          "type": "bool"
        }
      ],
      "stateMutability": "nonpayable",
      "type": "function"
    },
    {
      "inputs": [],
      "name": "getDiamond",
      "outputs": [
        {
          "internalType": "address",
          "name": "",
          "type": "address"
        }
      ],
      "stateMutability": "view",
      "type": "function"
    },
    {
      "inputs": [
        {
          "internalType": "address",
          "name": "spender",
          "type": "address"
        },
        {
          "internalType": "uint256",
          "name": "addedValue",
          "type": "uint256"
        }
      ],
      "name": "increaseAllowance",
      "outputs": [
        {
          "internalType": "bool",
          "name": "",
          "type": "bool"
        }
      ],
      "stateMutability": "nonpayable",
      "type": "function"
    },
    {
      "inputs": [
        {
          "internalType": "address",
          "name": "account_",
          "type": "address"
        }
      ],
      "name": "interestOf",
      "outputs": [
        {
          "internalType": "uint256",
          "name": "",
          "type": "uint256"
        }
      ],
      "stateMutability": "view",
      "type": "function"
    },
    {
      "inputs": [
        {
          "components": [
            {
              "internalType": "uint256",
              "name": "amountIn",
              "type": "uint256"
            },
            {
              "internalType": "uint256",
              "name": "minWethOut",
              "type": "uint256"
            },
            {
              "internalType": "uint256",
              "name": "minRethOut",
              "type": "uint256"
            },
            {
              "internalType": "uint256",
              "name": "minBptOut",
              "type": "uint256"
            }
          ],
          "internalType": "struct TradeAmounts",
          "name": "amounts_",
          "type": "tuple"
        },
        {
          "internalType": "uint8",
          "name": "v_",
          "type": "uint8"
        },
        {
          "internalType": "bytes32",
          "name": "r_",
          "type": "bytes32"
        },
        {
          "internalType": "bytes32",
          "name": "s_",
          "type": "bytes32"
        }
      ],
      "name": "mint",
      "outputs": [],
      "stateMutability": "nonpayable",
      "type": "function"
    },
    {
      "inputs": [],
      "name": "name",
      "outputs": [
        {
          "internalType": "string",
          "name": "",
          "type": "string"
        }
      ],
      "stateMutability": "view",
      "type": "function"
    },
    {
      "inputs": [],
      "name": "symbol",
      "outputs": [
        {
          "internalType": "string",
          "name": "",
          "type": "string"
        }
      ],
      "stateMutability": "view",
      "type": "function"
    },
    {
      "inputs": [
        {
          "internalType": "address",
          "name": "account_",
          "type": "address"
        }
      ],
      "name": "totalBalanceOf",
      "outputs": [
        {
          "internalType": "uint256",
          "name": "",
          "type": "uint256"
        }
      ],
      "stateMutability": "view",
      "type": "function"
    },
    {
      "inputs": [],
      "name": "totalSupply",
      "outputs": [
        {
          "internalType": "uint256",
          "name": "",
          "type": "uint256"
        }
      ],
      "stateMutability": "view",
      "type": "function"
    },
    {
      "inputs": [
        {
          "internalType": "address",
          "name": "to",
          "type": "address"
        },
        {
          "internalType": "uint256",
          "name": "amount",
          "type": "uint256"
        }
      ],
      "name": "transfer",
      "outputs": [
        {
          "internalType": "bool",
          "name": "",
          "type": "bool"
        }
      ],
      "stateMutability": "nonpayable",
      "type": "function"
    },
    {
      "inputs": [
        {
          "internalType": "address",
          "name": "from",
          "type": "address"
        },
        {
          "internalType": "address",
          "name": "to",
          "type": "address"
        },
        {
          "internalType": "uint256",
          "name": "amount",
          "type": "uint256"
        }
      ],
      "name": "transferFrom",
      "outputs": [
        {
          "internalType": "bool",
          "name": "",
          "type": "bool"
        }
      ],
      "stateMutability": "nonpayable",
      "type": "function"
    },
    {
      "inputs": [],
      "name": "underlying",
      "outputs": [
        {
          "internalType": "address",
          "name": "",
          "type": "address"
        }
      ],
      "stateMutability": "view",
      "type": "function"
    }
  ],
  "bytecode": {
    "object": "0x60c06040523480156200001157600080fd5b50604051620012b2380380620012b2833981016040819052620000349162000164565b60036200004286826200029c565b5060046200005185826200029c565b506001600160a01b039283166080526005805460ff191660ff93909316929092179091551660a05250620003689050565b634e487b7160e01b600052604160045260246000fd5b600082601f830112620000aa57600080fd5b81516001600160401b0380821115620000c757620000c762000082565b604051601f8301601f19908116603f01168101908282118183101715620000f257620000f262000082565b816040528381526020925086838588010111156200010f57600080fd5b600091505b8382101562000133578582018301518183018401529082019062000114565b600093810190920192909252949350505050565b80516001600160a01b03811681146200015f57600080fd5b919050565b600080600080600060a086880312156200017d57600080fd5b85516001600160401b03808211156200019557600080fd5b620001a389838a0162000098565b96506020880151915080821115620001ba57600080fd5b50620001c98882890162000098565b945050620001da6040870162000147565b9250606086015160ff81168114620001f157600080fd5b9150620002016080870162000147565b90509295509295909350565b600181811c908216806200022257607f821691505b6020821081036200024357634e487b7160e01b600052602260045260246000fd5b50919050565b601f8211156200029757600081815260208120601f850160051c81016020861015620002725750805b601f850160051c820191505b8181101562000293578281556001016200027e565b5050505b505050565b81516001600160401b03811115620002b857620002b862000082565b620002d081620002c984546200020d565b8462000249565b602080601f831160018114620003085760008415620002ef5750858301515b600019600386901b1c1916600185901b17855562000293565b600085815260208120601f198616915b82811015620003395788860151825594840194600190910190840162000318565b5085821015620003585787850151600019600388901b60f8161c191681555b5050505050600190811b01905550565b60805160a051610f0f620003a3600039600081816102380152818161040901526104dd0152600081816101bd01526103cb0152610f0f6000f3fe608060405234801561001057600080fd5b50600436106101005760003560e01c80636f307dc311610097578063a9059cbb11610066578063a9059cbb14610223578063d7b8b95b14610236578063d8e8b1771461025c578063dd62ed3e1461026f57600080fd5b80636f307dc3146101bb57806370a08231146101f557806395d89b4114610208578063a457c2d71461021057600080fd5b8063313ce567116100d3578063313ce5671461016b57806339509351146101805780634b0ee02a14610193578063616b9ea4146101a657600080fd5b806306fdde0314610105578063095ea7b31461012357806318160ddd1461014657806323b872dd14610158575b600080fd5b61010d610282565b60405161011a9190610c56565b60405180910390f35b610136610131366004610cc0565b610314565b604051901515815260200161011a565b6002545b60405190815260200161011a565b610136610166366004610cea565b61032e565b60055460405160ff909116815260200161011a565b61013661018e366004610cc0565b610354565b61014a6101a1366004610d26565b610376565b6101b96101b4366004610d52565b6103c7565b005b7f00000000000000000000000000000000000000000000000000000000000000005b6040516001600160a01b03909116815260200161011a565b61014a610203366004610d26565b610544565b61010d61054e565b61013661021e366004610cc0565b61055d565b610136610231366004610cc0565b6105e8565b7f00000000000000000000000000000000000000000000000000000000000000006101dd565b61014a61026a366004610d26565b6105f6565b61014a61027d366004610df5565b610601565b60606003805461029190610e28565b80601f01602080910402602001604051908101604052809291908181526020018280546102bd90610e28565b801561030a5780601f106102df5761010080835404028352916020019161030a565b820191906000526020600020905b8154815290600101906020018083116102ed57829003601f168201915b5050505050905090565b60003361032281858561064b565b60019150505b92915050565b60003361033c85828561078f565b610347858585610809565b60019150505b9392505050565b6000336103228185856103678383610601565b6103719190610e62565b61064b565b6000808060025b600281111561038e5761038e610e83565b81526020019081526020016000206000836001600160a01b03166001600160a01b03168152602001908152602001600020549050919050565b60007f0000000000000000000000000000000000000000000000000000000000000000855160405163d505accf60e01b81523360048201526001600160a01b037f000000000000000000000000000000000000000000000000000000000000000081166024830152604482019290925242606482015260ff8716608482015260a4810186905260c4810185905291925082169063d505accf9060e401600060405180830381600087803b15801561047d57600080fd5b505af1158015610491573d6000803e3d6000fd5b505060408051635879601960e01b81526001600160a01b0385811660048301523360248301528951604483015260208a01516064830152918901516084820152606089015160a48201527f000000000000000000000000000000000000000000000000000000000000000090911692506358796019915060c401600060405180830381600087803b15801561052557600080fd5b505af1158015610539573d6000803e3d6000fd5b505050505050505050565b600080808061037d565b60606004805461029190610e28565b6000338161056b8286610601565b9050838110156105d05760405162461bcd60e51b815260206004820152602560248201527f45524332303a2064656372656173656420616c6c6f77616e63652062656c6f77604482015264207a65726f60d81b60648201526084015b60405180910390fd5b6105dd828686840361064b565b506001949350505050565b600033610322818585610809565b60008080600161037d565b6001600160a01b0391821660009081527fa6eef7e35abe7026729641147f7915573c7e97b47efa546f5f6e3230263bcb496020908152604080832093909416825291909152205490565b6001600160a01b0383166106ad5760405162461bcd60e51b8152602060048201526024808201527f45524332303a20617070726f76652066726f6d20746865207a65726f206164646044820152637265737360e01b60648201526084016105c7565b6001600160a01b03821661070e5760405162461bcd60e51b815260206004820152602260248201527f45524332303a20617070726f766520746f20746865207a65726f206164647265604482015261737360f01b60648201526084016105c7565b6001600160a01b0383811660008181527fa6eef7e35abe7026729641147f7915573c7e97b47efa546f5f6e3230263bcb496020908152604080832094871680845294825291829020859055815185815291517f8c5be1e5ebec7d5bd14f71427d1e84f3dd0314c0f7b2291e5b200ac8c7c3b9259281900390910190a3505050565b600061079b8484610601565b9050600019811461080357818110156107f65760405162461bcd60e51b815260206004820152601d60248201527f45524332303a20696e73756666696369656e7420616c6c6f77616e636500000060448201526064016105c7565b610803848484840361064b565b50505050565b6001600160a01b03831661086d5760405162461bcd60e51b815260206004820152602560248201527f45524332303a207472616e736665722066726f6d20746865207a65726f206164604482015264647265737360d81b60648201526084016105c7565b6001600160a01b0382166108cf5760405162461bcd60e51b815260206004820152602360248201527f45524332303a207472616e7366657220746f20746865207a65726f206164647260448201526265737360e81b60648201526084016105c7565b6001600160a01b0383166000908152600080516020610eba8339815191526020526040902054818110156109545760405162461bcd60e51b815260206004820152602660248201527f45524332303a207472616e7366657220616d6f756e7420657863656564732062604482015265616c616e636560d01b60648201526084016105c7565b6001600160a01b038481166000908152600080516020610eba8339815191526020526040808220858503905591851681529081208054840190556109988584610a25565b6001600160a01b0386166000908152600080516020610e9a8339815191526020526040902080548290038201905590506109d28585610aa7565b50826001600160a01b0316846001600160a01b03167fddf252ad1be2c89b69c2b068fc378daa952ba7f163c4a11628f55a4df523b3ef84604051610a1891815260200190565b60405180910390a3610803565b6001600160a01b0382166000908152600080516020610eba833981519152602052604081205481610a608468056bc75e2d6310000084610ba7565b6001600160a01b0386166000908152600080516020610e9a8339815191526020526040902054909150610a9d828268056bc75e2d63100000610ba7565b9695505050505050565b6001600160a01b0382166000908152600080516020610e9a8339815191526020908152604080832054600080516020610eba83398151915290925290912054610af09190610e62565b6001600160a01b0383811660009081527fabbb5caa7dda850e60932de0934eb1f9d0f59695050f761dc64e443e5030a56960209081526040808320949094559184168152600080516020610e9a833981519152825282812054600080516020610eba8339815191529092529190912054610b6a9190610e62565b6001600160a01b039190911660009081527fabbb5caa7dda850e60932de0934eb1f9d0f59695050f761dc64e443e5030a569602052604090205550565b60008383026000198486098181108201900380610bdc5783610bd15763ae47f7026000526004601cfd5b50829004905061034d565b808411610bf15763ae47f7026000526004601cfd5b838587096000858103861695869004956003870260029081188089028203028089028203028089028203028089028203028089028203028089029091030291819003819004600101858411909403939093029190930391909104170290509392505050565b600060208083528351808285015260005b81811015610c8357858101830151858201604001528201610c67565b506000604082860101526040601f19601f8301168501019250505092915050565b80356001600160a01b0381168114610cbb57600080fd5b919050565b60008060408385031215610cd357600080fd5b610cdc83610ca4565b946020939093013593505050565b600080600060608486031215610cff57600080fd5b610d0884610ca4565b9250610d1660208501610ca4565b9150604084013590509250925092565b600060208284031215610d3857600080fd5b61034d82610ca4565b803560ff81168114610cbb57600080fd5b60008060008084860360e0811215610d6957600080fd5b6080811215610d7757600080fd5b506040516080810181811067ffffffffffffffff82111715610da957634e487b7160e01b600052604160045260246000fd5b80604052508535815260208601356020820152604086013560408201526060860135606082015280945050610de060808601610d41565b939693955050505060a08201359160c0013590565b60008060408385031215610e0857600080fd5b610e1183610ca4565b9150610e1f60208401610ca4565b90509250929050565b600181811c90821680610e3c57607f821691505b602082108103610e5c57634e487b7160e01b600052602260045260246000fd5b50919050565b8082018082111561032857634e487b7160e01b600052601160045260246000fd5b634e487b7160e01b600052602160045260246000fdfeada5013122d395ba3c54772283fb069b10426056ef8ca54750cb9bb552a59e7dad3228b676f7d3cd4284a5443f17f1962b36e491b30a40b2405849e597ba5fb5a264697066735822122047ace4bde9f2169d1980963c1ea6b4afde02381e98d6d37029bf4212aef50ad264736f6c63430008150033",
    "linkReferences": {}
  },
  "methodIdentifiers": {
    "allowance(address,address)": "dd62ed3e",
    "approve(address,uint256)": "095ea7b3",
    "balanceOf(address)": "70a08231",
    "decimals()": "313ce567",
    "decreaseAllowance(address,uint256)": "a457c2d7",
    "getDiamond()": "d7b8b95b",
    "increaseAllowance(address,uint256)": "39509351",
    "interestOf(address)": "d8e8b177",
    "mint((uint256,uint256,uint256,uint256),uint8,bytes32,bytes32)": "616b9ea4",
    "name()": "06fdde03",
    "symbol()": "95d89b41",
    "totalBalanceOf(address)": "4b0ee02a",
    "totalSupply()": "18160ddd",
    "transfer(address,uint256)": "a9059cbb",
    "transferFrom(address,address,uint256)": "23b872dd",
    "underlying()": "6f307dc3"
  },
  "id": 22
}