{
  "abi": [
    {
      "inputs": [],
      "stateMutability": "nonpayable",
      "type": "constructor"
    },
    {
      "inputs": [
        {
          "internalType": "address",
          "name": "sender",
          "type": "address"
        },
        {
          "internalType": "uint256",
          "name": "shares",
          "type": "uint256"
        },
        {
          "internalType": "uint256",
          "name": "sharesNeeded",
          "type": "uint256"
        }
      ],
      "name": "ERC20InsufficientBalance",
      "type": "error"
    },
    {
      "inputs": [
        {
          "internalType": "address",
          "name": "receiver",
          "type": "address"
        }
      ],
      "name": "ERC20InvalidReceiver",
      "type": "error"
    },
    {
      "inputs": [
        {
          "internalType": "address",
          "name": "sender",
          "type": "address"
        }
      ],
      "name": "ERC20InvalidSender",
      "type": "error"
    },
    {
      "inputs": [
        {
          "internalType": "uint256",
          "name": "deadline",
          "type": "uint256"
        },
        {
          "internalType": "uint256",
          "name": "blockTimestamp",
          "type": "uint256"
        }
      ],
      "name": "ERC2612ExpiredDeadline",
      "type": "error"
    },
    {
      "inputs": [
        {
          "internalType": "address",
          "name": "owner",
          "type": "address"
        },
        {
          "internalType": "address",
          "name": "spender",
          "type": "address"
        }
      ],
      "name": "ERC2612InvalidSignature",
      "type": "error"
    },
    {
      "inputs": [
        {
          "internalType": "address",
          "name": "sender",
          "type": "address"
        },
        {
          "internalType": "uint256",
          "name": "shares",
          "type": "uint256"
        },
        {
          "internalType": "uint256",
          "name": "sharesNeeded",
          "type": "uint256"
        }
      ],
      "name": "USDMInsufficientBurnBalance",
      "type": "error"
    },
    {
      "anonymous": false,
      "inputs": [
        {
          "indexed": true,
          "internalType": "address",
          "name": "owner",
          "type": "address"
        },
        {
          "indexed": true,
          "internalType": "address",
          "name": "spender",
          "type": "address"
        },
        {
          "indexed": false,
          "internalType": "uint256",
          "name": "value",
          "type": "uint256"
        }
      ],
      "name": "Approval",
      "type": "event"
    },
    {
      "anonymous": false,
      "inputs": [
        {
          "indexed": false,
          "internalType": "uint8",
          "name": "version",
          "type": "uint8"
        }
      ],
      "name": "Initialized",
      "type": "event"
    },
    {
      "anonymous": false,
      "inputs": [
        {
          "indexed": true,
          "internalType": "address",
          "name": "from",
          "type": "address"
        },
        {
          "indexed": true,
          "internalType": "address",
          "name": "to",
          "type": "address"
        },
        {
          "indexed": false,
          "internalType": "uint256",
          "name": "value",
          "type": "uint256"
        }
      ],
      "name": "Transfer",
      "type": "event"
    },
    {
      "inputs": [],
      "name": "DOMAIN_SEPARATOR",
      "outputs": [
        {
          "internalType": "bytes32",
          "name": "",
          "type": "bytes32"
        }
      ],
      "stateMutability": "view",
      "type": "function"
    },
    {
      "inputs": [
        {
          "internalType": "address",
          "name": "owner",
          "type": "address"
        },
        {
          "internalType": "address",
          "name": "spender",
          "type": "address"
        }
      ],
      "name": "allowance",
      "outputs": [
        {
          "internalType": "uint256",
          "name": "",
          "type": "uint256"
        }
      ],
      "stateMutability": "view",
      "type": "function"
    },
    {
      "inputs": [
        {
          "internalType": "address",
          "name": "spender",
          "type": "address"
        },
        {
          "internalType": "uint256",
          "name": "amount",
          "type": "uint256"
        }
      ],
      "name": "approve",
      "outputs": [
        {
          "internalType": "bool",
          "name": "",
          "type": "bool"
        }
      ],
      "stateMutability": "nonpayable",
      "type": "function"
    },
    {
      "inputs": [],
      "name": "asset",
      "outputs": [
        {
          "internalType": "address",
          "name": "",
          "type": "address"
        }
      ],
      "stateMutability": "view",
      "type": "function"
    },
    {
      "inputs": [
        {
          "internalType": "address",
          "name": "account_",
          "type": "address"
        }
      ],
      "name": "balanceOf",
      "outputs": [
        {
          "internalType": "uint256",
          "name": "",
          "type": "uint256"
        }
      ],
      "stateMutability": "view",
      "type": "function"
    },
    {
      "inputs": [
        {
          "internalType": "bytes",
          "name": "data_",
          "type": "bytes"
        }
      ],
      "name": "burn",
      "outputs": [
        {
          "internalType": "uint256",
          "name": "",
          "type": "uint256"
        }
      ],
      "stateMutability": "nonpayable",
      "type": "function"
    },
    {
      "inputs": [
        {
          "internalType": "uint256",
          "name": "shares",
          "type": "uint256"
        }
      ],
      "name": "convertToAssets",
      "outputs": [
        {
          "internalType": "uint256",
          "name": "assets",
          "type": "uint256"
        }
      ],
      "stateMutability": "view",
      "type": "function"
    },
    {
      "inputs": [
        {
          "internalType": "uint256",
          "name": "assets",
          "type": "uint256"
        }
      ],
      "name": "convertToShares",
      "outputs": [
        {
          "internalType": "uint256",
          "name": "shares",
          "type": "uint256"
        }
      ],
      "stateMutability": "view",
      "type": "function"
    },
    {
      "inputs": [
        {
          "internalType": "uint256",
          "name": "shares_",
          "type": "uint256"
        }
      ],
      "name": "convertToUnderlying",
      "outputs": [
        {
          "internalType": "uint256",
          "name": "amountUnderlying",
          "type": "uint256"
        }
      ],
      "stateMutability": "view",
      "type": "function"
    },
    {
      "inputs": [],
      "name": "decimals",
      "outputs": [
        {
          "internalType": "uint8",
          "name": "",
          "type": "uint8"
        }
      ],
      "stateMutability": "view",
      "type": "function"
    },
    {
      "inputs": [
        {
          "internalType": "address",
          "name": "spender",
          "type": "address"
        },
        {
          "internalType": "uint256",
          "name": "subtractedValue",
          "type": "uint256"
        }
      ],
      "name": "decreaseAllowance",
      "outputs": [
        {
          "internalType": "bool",
          "name": "",
          "type": "bool"
        }
      ],
      "stateMutability": "nonpayable",
      "type": "function"
    },
    {
      "inputs": [
        {
          "internalType": "address",
          "name": "spender",
          "type": "address"
        },
        {
          "internalType": "uint256",
          "name": "addedValue",
          "type": "uint256"
        }
      ],
      "name": "increaseAllowance",
      "outputs": [
        {
          "internalType": "bool",
          "name": "",
          "type": "bool"
        }
      ],
      "stateMutability": "nonpayable",
      "type": "function"
    },
    {
      "inputs": [
        {
          "internalType": "address",
          "name": "underlying_",
          "type": "address"
        },
        {
          "internalType": "address",
          "name": "diamond_",
          "type": "address"
        },
        {
          "internalType": "string",
          "name": "name_",
          "type": "string"
        },
        {
          "internalType": "string",
          "name": "symbol_",
          "type": "string"
        }
      ],
      "name": "initialize",
      "outputs": [],
      "stateMutability": "nonpayable",
      "type": "function"
    },
    {
      "inputs": [
        {
          "internalType": "address",
          "name": "",
          "type": "address"
        }
      ],
      "name": "maxDeposit",
      "outputs": [
        {
          "internalType": "uint256",
          "name": "",
          "type": "uint256"
        }
      ],
      "stateMutability": "view",
      "type": "function"
    },
    {
      "inputs": [
        {
          "internalType": "bytes",
          "name": "data_",
          "type": "bytes"
        }
      ],
      "name": "mint",
      "outputs": [
        {
          "internalType": "uint256",
          "name": "",
          "type": "uint256"
        }
      ],
      "stateMutability": "nonpayable",
      "type": "function"
    },
    {
      "inputs": [],
      "name": "name",
      "outputs": [
        {
          "internalType": "string",
          "name": "",
          "type": "string"
        }
      ],
      "stateMutability": "view",
      "type": "function"
    },
    {
      "inputs": [
        {
          "internalType": "address",
          "name": "owner",
          "type": "address"
        }
      ],
      "name": "nonces",
      "outputs": [
        {
          "internalType": "uint256",
          "name": "",
          "type": "uint256"
        }
      ],
      "stateMutability": "view",
      "type": "function"
    },
    {
      "inputs": [
        {
          "internalType": "address",
          "name": "owner",
          "type": "address"
        },
        {
          "internalType": "address",
          "name": "spender",
          "type": "address"
        },
        {
          "internalType": "uint256",
          "name": "value",
          "type": "uint256"
        },
        {
          "internalType": "uint256",
          "name": "deadline",
          "type": "uint256"
        },
        {
          "internalType": "uint8",
          "name": "v",
          "type": "uint8"
        },
        {
          "internalType": "bytes32",
          "name": "r",
          "type": "bytes32"
        },
        {
          "internalType": "bytes32",
          "name": "s_",
          "type": "bytes32"
        }
      ],
      "name": "permit",
      "outputs": [],
      "stateMutability": "nonpayable",
      "type": "function"
    },
    {
      "inputs": [
        {
          "internalType": "uint256",
          "name": "assets_",
          "type": "uint256"
        }
      ],
      "name": "previewDeposit",
      "outputs": [
        {
          "internalType": "uint256",
          "name": "",
          "type": "uint256"
        }
      ],
      "stateMutability": "view",
      "type": "function"
    },
    {
      "inputs": [
        {
          "internalType": "uint256",
          "name": "shares_",
          "type": "uint256"
        }
      ],
      "name": "previewRedeem",
      "outputs": [
        {
          "internalType": "uint256",
          "name": "",
          "type": "uint256"
        }
      ],
      "stateMutability": "view",
      "type": "function"
    },
    {
      "inputs": [
        {
          "internalType": "uint256",
          "name": "assets",
          "type": "uint256"
        }
      ],
      "name": "previewWithdraw",
      "outputs": [
        {
          "internalType": "uint256",
          "name": "",
          "type": "uint256"
        }
      ],
      "stateMutability": "view",
      "type": "function"
    },
    {
      "inputs": [
        {
          "internalType": "address",
          "name": "account_",
          "type": "address"
        }
      ],
      "name": "sharesOf",
      "outputs": [
        {
          "internalType": "uint256",
          "name": "",
          "type": "uint256"
        }
      ],
      "stateMutability": "view",
      "type": "function"
    },
    {
      "inputs": [],
      "name": "symbol",
      "outputs": [
        {
          "internalType": "string",
          "name": "",
          "type": "string"
        }
      ],
      "stateMutability": "view",
      "type": "function"
    },
    {
      "inputs": [],
      "name": "totalAssets",
      "outputs": [
        {
          "internalType": "uint256",
          "name": "",
          "type": "uint256"
        }
      ],
      "stateMutability": "view",
      "type": "function"
    },
    {
      "inputs": [],
      "name": "totalShares",
      "outputs": [
        {
          "internalType": "uint256",
          "name": "",
          "type": "uint256"
        }
      ],
      "stateMutability": "view",
      "type": "function"
    },
    {
      "inputs": [],
      "name": "totalSupply",
      "outputs": [
        {
          "internalType": "uint256",
          "name": "",
          "type": "uint256"
        }
      ],
      "stateMutability": "view",
      "type": "function"
    },
    {
      "inputs": [
        {
          "internalType": "address",
          "name": "to",
          "type": "address"
        },
        {
          "internalType": "uint256",
          "name": "amount",
          "type": "uint256"
        }
      ],
      "name": "transfer",
      "outputs": [
        {
          "internalType": "bool",
          "name": "",
          "type": "bool"
        }
      ],
      "stateMutability": "nonpayable",
      "type": "function"
    },
    {
      "inputs": [
        {
          "internalType": "address",
          "name": "from",
          "type": "address"
        },
        {
          "internalType": "address",
          "name": "to",
          "type": "address"
        },
        {
          "internalType": "uint256",
          "name": "amount",
          "type": "uint256"
        }
      ],
      "name": "transferFrom",
      "outputs": [
        {
          "internalType": "bool",
          "name": "",
          "type": "bool"
        }
      ],
      "stateMutability": "nonpayable",
      "type": "function"
    }
  ],
  "bytecode": {
    "object": "0x608060405234801561001057600080fd5b5061001961001e565b6100de565b600054610100900460ff161561008a5760405162461bcd60e51b815260206004820152602760248201527f496e697469616c697a61626c653a20636f6e747261637420697320696e697469604482015266616c697a696e6760c81b606482015260840160405180910390fd5b60005460ff90811610156100dc576000805460ff191660ff9081179091556040519081527f7f26b83ff96e1f2b6a682f133852f6798a09c465da95921460cefb38474024989060200160405180910390a15b565b611cea806100ed6000396000f3fe608060405234801561001057600080fd5b50600436106101c45760003560e01c80633a98ef39116100f9578063a457c2d711610097578063d505accf11610071578063d505accf14610381578063dd62ed3e14610394578063ef8b30f7146103a7578063f5eb42dc146103ba57600080fd5b8063a457c2d714610348578063a9059cbb1461035b578063c6e6f5921461036e57600080fd5b806370a08231116100d357806370a08231146103075780637ba0e2e71461031a5780637ecebe001461032d57806395d89b411461034057600080fd5b80633a98ef39146102d9578063402d267d146102e15780634cdad506146102f457600080fd5b80632016a0d211610166578063313ce56711610140578063313ce567146102945780633644e515146102a357806338d52e0f146102ab57806339509351146102c657600080fd5b80632016a0d21461025957806323b872dd1461026e5780632a07b6c71461028157600080fd5b8063095ea7b3116101a2578063095ea7b3146102085780630a28a4771461022b57806318160ddd1461023e5780631dc7f5211461024657600080fd5b806301e1d114146101c957806306fdde03146101e057806307a2d13a146101f5575b600080fd5b6038545b6040519081526020015b60405180910390f35b6101e86103e3565b6040516101d79190611668565b6101cd61020336600461167b565b610475565b61021b6102163660046116a9565b610488565b60405190151581526020016101d7565b6101cd61023936600461167b565b61049e565b6101cd6104ab565b6101cd61025436600461167b565b6104cf565b61026c610267366004611781565b610560565b005b61021b61027c36600461180a565b6106df565b6101cd61028f36600461184b565b610702565b604051601281526020016101d7565b6101cd610846565b6036546040516001600160a01b0390911681526020016101d7565b61021b6102d43660046116a9565b610850565b6037546101cd565b6101cd6102ef36600461189c565b610871565b6101cd61030236600461167b565b61088f565b6101cd61031536600461189c565b61089c565b6101cd61032836600461184b565b6108be565b6101cd61033b36600461189c565b610a4b565b6101e8610a69565b61021b6103563660046116a9565b610a78565b61021b6103693660046116a9565b610af2565b6101cd61037c36600461167b565b610aff565b61026c61038f3660046118b9565b610b0c565b6101cd6103a2366004611930565b610c2e565b6101cd6103b536600461167b565b610c59565b6101cd6103c836600461189c565b6001600160a01b031660009081526039602052604090205490565b6060603c80546103f290611969565b80601f016020809104026020016040519081016040528092919081815260200182805461041e90611969565b801561046b5780601f106104405761010080835404028352916020019161046b565b820191906000526020600020905b81548152906001019060200180831161044e57829003601f168201915b5050505050905090565b6000610482826000610c66565b92915050565b6000610495338484610cff565b50600192915050565b6000610482826001610e23565b60006037546000146104c9576104c46037546000610c66565b905090565b50600090565b60006104da60375490565b60355460405163a4fc284b60e01b81526001600160a01b039091169063a4fc284b9061050b906001906004016119b3565b602060405180830381865afa158015610528573d6000803e3d6000fd5b505050506040513d601f19601f8201168201806040525081019061054c91906119db565b6105569084611a0a565b6104829190611a37565b600054610100900460ff16158080156105805750600054600160ff909116105b8061059a5750303b15801561059a575060005460ff166001145b6106025760405162461bcd60e51b815260206004820152602e60248201527f496e697469616c697a61626c653a20636f6e747261637420697320616c72656160448201526d191e481a5b9a5d1a585b1a5e995960921b60648201526084015b60405180910390fd5b6000805460ff191660011790558015610625576000805461ff0019166101001790555b603c6106318482611aa8565b50603d61063e8382611aa8565b50603580546001600160a01b038087166001600160a01b03199283161790925560368054928816929091169190911790556040805180820190915260018152603160f81b6020820152610692908490610eb1565b80156106d8576000805461ff0019169055604051600181527f7f26b83ff96e1f2b6a682f133852f6798a09c465da95921460cefb38474024989060200160405180910390a15b5050505050565b60006106ec843384610ee6565b6106f7848484610f60565b5060015b9392505050565b600080828060200190518101906107199190611b68565b5050505090506000610740336001600160a01b031660009081526039602052604090205490565b9050600061074d83610aff565b90508082101561078057604051633803cef960e11b815233600482015260248101839052604481018290526064016105f9565b600061078b8261088f565b603554604051630ae832db60e41b81529192506000916001600160a01b039091169063ae832db0906107c590309033908c90600401611bb5565b6020604051808303816000875af11580156107e4573d6000803e3d6000fd5b505050506040513d601f19601f8201168201806040525081019061080891906119db565b6035546001600160a01b0316600090815260396020526040812080549190556037805491909103905560388054939093039092555095945050505050565b60006104c461105b565b60006104953384846108623388610c2e565b61086c9190611be1565b610cff565b600061087b6110d6565b610886576000610482565b60001992915050565b60006104828260006110f7565b6001600160a01b03811660009081526039602052604081205461048290610475565b6000806000838060200190518101906108d79190611bf4565b815191935091506108e782610871565b8111156109365760405162461bcd60e51b815260206004820152601e60248201527f455243343632363a206465706f736974206d6f7265207468616e206d6178000060448201526064016105f9565b6035546001600160a01b031663b50f68fd6109596036546001600160a01b031690565b604080516001600160e01b031960e085901b1681526001600160a01b0390921660048301523360248301528651604483015260208701516064830152860151608482015260a401600060405180830381600087803b1580156109ba57600080fd5b505af11580156109ce573d6000803e3d6000fd5b5050505060006109dd60375490565b156109f0576109eb82610c59565b6109f2565b815b90508160386000828254610a069190611be1565b925050819055508060376000828254610a1f9190611be1565b90915550506001600160a01b039092166000908152603960205260409020805483019055509392505050565b6001600160a01b0381166000908152603a6020526040812054610482565b6060603d80546103f290611969565b600080610a853385610c2e565b905082811015610ae55760405162461bcd60e51b815260206004820152602560248201527f45524332303a2064656372656173656420616c6c6f77616e63652062656c6f77604482015264207a65726f60d81b60648201526084016105f9565b6106f73385858403610cff565b6000610495338484610f60565b6000610482826000610e23565b83421115610b365760405163233730db60e11b8152600481018590524260248201526044016105f9565b60007f6e71edae12b1b97f4d1f60370fef10105fa2faae0126114a169c64845d6126c9888888610b658c61117b565b6040805160208101969096526001600160a01b0394851690860152929091166060840152608083015260a082015260c0810186905260e0016040516020818303038152906040528051906020012090506000610bc0826111a3565b90506000610bd0828787876111f1565b9050896001600160a01b0316816001600160a01b031614610c1757604051630189c63360e31b81526001600160a01b03808c1660048301528a1660248201526044016105f9565b610c228a8a8a610cff565b50505050505050505050565b6001600160a01b039182166000908152603b6020908152604080832093909416825291909152205490565b6000610482826000611219565b60006106fb610c7460375490565b603560009054906101000a90046001600160a01b03166001600160a01b03166345089e296040518163ffffffff1660e01b8152600401602060405180830381865afa158015610cc7573d6000803e3d6000fd5b505050506040513d601f19601f82011682018060405250810190610ceb91906119db565b610cf59190611a37565b849060018561122f565b6001600160a01b038316610d615760405162461bcd60e51b8152602060048201526024808201527f45524332303a20617070726f76652066726f6d20746865207a65726f206164646044820152637265737360e01b60648201526084016105f9565b6001600160a01b038216610dc25760405162461bcd60e51b815260206004820152602260248201527f45524332303a20617070726f766520746f20746865207a65726f206164647265604482015261737360f01b60648201526084016105f9565b6001600160a01b038381166000818152603b602090815260408083209487168084529482529182902085905590518481527f8c5be1e5ebec7d5bd14f71427d1e84f3dd0314c0f7b2291e5b200ac8c7c3b925910160405180910390a3505050565b60006106fb610e3160375490565b603560009054906101000a90046001600160a01b03166001600160a01b03166345089e296040518163ffffffff1660e01b8152600401602060405180830381865afa158015610e84573d6000803e3d6000fd5b505050506040513d601f19601f82011682018060405250810190610ea891906119db565b8591908561122f565b600054610100900460ff16610ed85760405162461bcd60e51b81526004016105f990611c69565b610ee2828261128c565b5050565b6000610ef28484610c2e565b90506000198114610f5a5781811015610f4d5760405162461bcd60e51b815260206004820152601d60248201527f45524332303a20696e73756666696369656e7420616c6c6f77616e636500000060448201526064016105f9565b610f5a8484848403610cff565b50505050565b6001600160a01b038316610f9257604051634b637e8f60e11b81526001600160a01b03841660048201526024016105f9565b6001600160a01b038216610fc45760405163ec442f0560e01b81526001600160a01b03831660048201526024016105f9565b6000610fcf82610aff565b6001600160a01b038516600090815260396020526040902054909150818110156110255760405163391434e360e21b81526001600160a01b038616600482015260248101829052604481018390526064016105f9565b6001600160a01b039485166000908152603960205260408082209284900390925593909416835292909120805490920190915550565b60006104c47f8b73c3c69bb8fe3d512ecc4cf759cc79239f7b179b0ffacaa9a75d522b39400f61108a60015490565b6002546040805160208101859052908101839052606081018290524660808201523060a082015260009060c0016040516020818303038152906040528051906020012090509392505050565b6000806110e260385490565b11806104c457506110f16104ab565b15905090565b60006106fb603560009054906101000a90046001600160a01b03166001600160a01b03166345089e296040518163ffffffff1660e01b8152600401602060405180830381865afa15801561114f573d6000803e3d6000fd5b505050506040513d601f19601f8201168201806040525081019061117391906119db565b610ea86104ab565b6001600160a01b0381166000908152603a602052604090208054600181018255905b50919050565b60006104826111b061105b565b8360405161190160f01b6020820152602281018390526042810182905260009060620160405160208183030381529060405280519060200120905092915050565b6000806000611202878787876112cd565b9150915061120f816113ba565b5095945050505050565b60006106fb61122760375490565b603854610ea8565b60008061123d868686611573565b905060018360028111156112535761125361199d565b14801561127057506000848061126b5761126b611a21565b868809115b1561128357611280600182611be1565b90505b95945050505050565b600054610100900460ff166112b35760405162461bcd60e51b81526004016105f990611c69565b815160209283012081519190920120600191909155600255565b6000807f7fffffffffffffffffffffffffffffff5d576e7357a4501ddfe92f46681b20a083111561130457506000905060036113b1565b8460ff16601b1415801561131c57508460ff16601c14155b1561132d57506000905060046113b1565b6040805160008082526020820180845289905260ff881692820192909252606081018690526080810185905260019060a0016020604051602081039080840390855afa158015611381573d6000803e3d6000fd5b5050604051601f1901519150506001600160a01b0381166113aa576000600192509250506113b1565b9150600090505b94509492505050565b60008160048111156113ce576113ce61199d565b036113d65750565b60018160048111156113ea576113ea61199d565b036114375760405162461bcd60e51b815260206004820152601860248201527f45434453413a20696e76616c6964207369676e6174757265000000000000000060448201526064016105f9565b600281600481111561144b5761144b61199d565b036114985760405162461bcd60e51b815260206004820152601f60248201527f45434453413a20696e76616c6964207369676e6174757265206c656e6774680060448201526064016105f9565b60038160048111156114ac576114ac61199d565b036115045760405162461bcd60e51b815260206004820152602260248201527f45434453413a20696e76616c6964207369676e6174757265202773272076616c604482015261756560f01b60648201526084016105f9565b60048160048111156115185761151861199d565b036115705760405162461bcd60e51b815260206004820152602260248201527f45434453413a20696e76616c6964207369676e6174757265202776272076616c604482015261756560f01b60648201526084016105f9565b50565b60008080600019858709858702925082811083820303915050806000036115ad578382816115a3576115a3611a21565b04925050506106fb565b8084116115b957600080fd5b60008486880960026001871981018816978890046003810283188082028403028082028403028082028403028082028403028082028403029081029092039091026000889003889004909101858311909403939093029303949094049190911702949350505050565b6000815180845260005b818110156116485760208185018101518683018201520161162c565b506000602082860101526020601f19601f83011685010191505092915050565b6020815260006106fb6020830184611622565b60006020828403121561168d57600080fd5b5035919050565b6001600160a01b038116811461157057600080fd5b600080604083850312156116bc57600080fd5b82356116c781611694565b946020939093013593505050565b634e487b7160e01b600052604160045260246000fd5b600067ffffffffffffffff80841115611706576117066116d5565b604051601f8501601f19908116603f0116810190828211818310171561172e5761172e6116d5565b8160405280935085815286868601111561174757600080fd5b858560208301376000602087830101525050509392505050565b600082601f83011261177257600080fd5b6106fb838335602085016116eb565b6000806000806080858703121561179757600080fd5b84356117a281611694565b935060208501356117b281611694565b9250604085013567ffffffffffffffff808211156117cf57600080fd5b6117db88838901611761565b935060608701359150808211156117f157600080fd5b506117fe87828801611761565b91505092959194509250565b60008060006060848603121561181f57600080fd5b833561182a81611694565b9250602084013561183a81611694565b929592945050506040919091013590565b60006020828403121561185d57600080fd5b813567ffffffffffffffff81111561187457600080fd5b8201601f8101841361188557600080fd5b611894848235602084016116eb565b949350505050565b6000602082840312156118ae57600080fd5b81356106fb81611694565b600080600080600080600060e0888a0312156118d457600080fd5b87356118df81611694565b965060208801356118ef81611694565b95506040880135945060608801359350608088013560ff8116811461191357600080fd5b9699959850939692959460a0840135945060c09093013592915050565b6000806040838503121561194357600080fd5b823561194e81611694565b9150602083013561195e81611694565b809150509250929050565b600181811c9082168061197d57607f821691505b60208210810361119d57634e487b7160e01b600052602260045260246000fd5b634e487b7160e01b600052602160045260246000fd5b60208101600283106119d557634e487b7160e01b600052602160045260246000fd5b91905290565b6000602082840312156119ed57600080fd5b5051919050565b634e487b7160e01b600052601160045260246000fd5b8082028115828204841417610482576104826119f4565b634e487b7160e01b600052601260045260246000fd5b600082611a5457634e487b7160e01b600052601260045260246000fd5b500490565b601f821115611aa357600081815260208120601f850160051c81016020861015611a805750805b601f850160051c820191505b81811015611a9f57828155600101611a8c565b5050505b505050565b815167ffffffffffffffff811115611ac257611ac26116d5565b611ad681611ad08454611969565b84611a59565b602080601f831160018114611b0b5760008415611af35750858301515b600019600386901b1c1916600185901b178555611a9f565b600085815260208120601f198616915b82811015611b3a57888601518255948401946001909101908401611b1b565b5085821015611b585787850151600019600388901b60f8161c191681555b5050505050600190811b01905550565b600080600080600060a08688031215611b8057600080fd5b855194506020860151935060408601519250606086015191506080860151611ba781611694565b809150509295509295909350565b6001600160a01b0384811682528316602082015260606040820181905260009061128390830184611622565b80820180821115610482576104826119f4565b6000808284036080811215611c0857600080fd5b6060811215611c1657600080fd5b506040516060810181811067ffffffffffffffff82111715611c3a57611c3a6116d5565b806040525083518152602084015160208201526040840151604082015280925050606083015161195e81611694565b6020808252602b908201527f496e697469616c697a61626c653a20636f6e7472616374206973206e6f74206960408201526a6e697469616c697a696e6760a81b60608201526080019056fea2646970667358221220e49389951830a5052016bad1b8f50095f67420bb98c1b7032d22adc425bae51364736f6c63430008150033",
    "linkReferences": {}
  },
  "methodIdentifiers": {
    "DOMAIN_SEPARATOR()": "3644e515",
    "allowance(address,address)": "dd62ed3e",
    "approve(address,uint256)": "095ea7b3",
    "asset()": "38d52e0f",
    "balanceOf(address)": "70a08231",
    "burn(bytes)": "2a07b6c7",
    "convertToAssets(uint256)": "07a2d13a",
    "convertToShares(uint256)": "c6e6f592",
    "convertToUnderlying(uint256)": "1dc7f521",
    "decimals()": "313ce567",
    "decreaseAllowance(address,uint256)": "a457c2d7",
    "increaseAllowance(address,uint256)": "39509351",
    "initialize(address,address,string,string)": "2016a0d2",
    "maxDeposit(address)": "402d267d",
    "mint(bytes)": "7ba0e2e7",
    "name()": "06fdde03",
    "nonces(address)": "7ecebe00",
    "permit(address,address,uint256,uint256,uint8,bytes32,bytes32)": "d505accf",
    "previewDeposit(uint256)": "ef8b30f7",
    "previewRedeem(uint256)": "4cdad506",
    "previewWithdraw(uint256)": "0a28a477",
    "sharesOf(address)": "f5eb42dc",
    "symbol()": "95d89b41",
    "totalAssets()": "01e1d114",
    "totalShares()": "3a98ef39",
    "totalSupply()": "18160ddd",
    "transfer(address,uint256)": "a9059cbb",
    "transferFrom(address,address,uint256)": "23b872dd"
  },
  "id": 25
}