{
  "abi": [
    {
      "inputs": [],
      "stateMutability": "nonpayable",
      "type": "constructor"
    },
    {
      "inputs": [
        {
          "internalType": "uint256",
          "name": "deadline",
          "type": "uint256"
        },
        {
          "internalType": "uint256",
          "name": "blockTimestamp",
          "type": "uint256"
        }
      ],
      "name": "ERC2612ExpiredDeadline",
      "type": "error"
    },
    {
      "inputs": [
        {
          "internalType": "address",
          "name": "owner",
          "type": "address"
        },
        {
          "internalType": "address",
          "name": "spender",
          "type": "address"
        }
      ],
      "name": "ERC2612InvalidSignature",
      "type": "error"
    },
    {
      "inputs": [],
      "name": "OZError03",
      "type": "error"
    },
    {
      "inputs": [
        {
          "internalType": "address",
          "name": "from",
          "type": "address"
        },
        {
          "internalType": "address",
          "name": "to",
          "type": "address"
        }
      ],
      "name": "OZError04",
      "type": "error"
    },
    {
      "inputs": [
        {
          "internalType": "uint256",
          "name": "amount",
          "type": "uint256"
        }
      ],
      "name": "OZError05",
      "type": "error"
    },
    {
      "inputs": [
        {
          "internalType": "address",
          "name": "sender",
          "type": "address"
        },
        {
          "internalType": "uint256",
          "name": "accountShares",
          "type": "uint256"
        },
        {
          "internalType": "uint256",
          "name": "shares",
          "type": "uint256"
        }
      ],
      "name": "OZError06",
      "type": "error"
    },
    {
      "inputs": [
        {
          "internalType": "address",
          "name": "from",
          "type": "address"
        },
        {
          "internalType": "uint256",
          "name": "fromShares",
          "type": "uint256"
        },
        {
          "internalType": "uint256",
          "name": "shares",
          "type": "uint256"
        }
      ],
      "name": "OZError07",
      "type": "error"
    },
    {
      "anonymous": false,
      "inputs": [
        {
          "indexed": true,
          "internalType": "address",
          "name": "owner",
          "type": "address"
        },
        {
          "indexed": true,
          "internalType": "address",
          "name": "spender",
          "type": "address"
        },
        {
          "indexed": false,
          "internalType": "uint256",
          "name": "value",
          "type": "uint256"
        }
      ],
      "name": "Approval",
      "type": "event"
    },
    {
      "anonymous": false,
      "inputs": [
        {
          "indexed": false,
          "internalType": "uint8",
          "name": "version",
          "type": "uint8"
        }
      ],
      "name": "Initialized",
      "type": "event"
    },
    {
      "anonymous": false,
      "inputs": [
        {
          "indexed": true,
          "internalType": "address",
          "name": "from",
          "type": "address"
        },
        {
          "indexed": true,
          "internalType": "address",
          "name": "to",
          "type": "address"
        },
        {
          "indexed": false,
          "internalType": "uint256",
          "name": "value",
          "type": "uint256"
        }
      ],
      "name": "Transfer",
      "type": "event"
    },
    {
      "inputs": [],
      "name": "DOMAIN_SEPARATOR",
      "outputs": [
        {
          "internalType": "bytes32",
          "name": "",
          "type": "bytes32"
        }
      ],
      "stateMutability": "view",
      "type": "function"
    },
    {
      "inputs": [],
      "name": "FORMAT_DECIMALS",
      "outputs": [
        {
          "internalType": "uint256",
          "name": "",
          "type": "uint256"
        }
      ],
      "stateMutability": "view",
      "type": "function"
    },
    {
      "inputs": [
        {
          "internalType": "address",
          "name": "owner",
          "type": "address"
        },
        {
          "internalType": "address",
          "name": "spender",
          "type": "address"
        }
      ],
      "name": "allowance",
      "outputs": [
        {
          "internalType": "uint256",
          "name": "",
          "type": "uint256"
        }
      ],
      "stateMutability": "view",
      "type": "function"
    },
    {
      "inputs": [
        {
          "internalType": "address",
          "name": "spender",
          "type": "address"
        },
        {
          "internalType": "uint256",
          "name": "amount",
          "type": "uint256"
        }
      ],
      "name": "approve",
      "outputs": [
        {
          "internalType": "bool",
          "name": "",
          "type": "bool"
        }
      ],
      "stateMutability": "nonpayable",
      "type": "function"
    },
    {
      "inputs": [],
      "name": "asset",
      "outputs": [
        {
          "internalType": "address",
          "name": "",
          "type": "address"
        }
      ],
      "stateMutability": "view",
      "type": "function"
    },
    {
      "inputs": [
        {
          "internalType": "address",
          "name": "account_",
          "type": "address"
        }
      ],
      "name": "balanceOf",
      "outputs": [
        {
          "internalType": "uint256",
          "name": "",
          "type": "uint256"
        }
      ],
      "stateMutability": "view",
      "type": "function"
    },
    {
      "inputs": [
        {
          "internalType": "uint256",
          "name": "shares",
          "type": "uint256"
        }
      ],
      "name": "convertToAssets",
      "outputs": [
        {
          "internalType": "uint256",
          "name": "assets",
          "type": "uint256"
        }
      ],
      "stateMutability": "view",
      "type": "function"
    },
    {
      "inputs": [
        {
          "internalType": "uint256",
          "name": "assets",
          "type": "uint256"
        }
      ],
      "name": "convertToShares",
      "outputs": [
        {
          "internalType": "uint256",
          "name": "shares",
          "type": "uint256"
        }
      ],
      "stateMutability": "view",
      "type": "function"
    },
    {
      "inputs": [
        {
          "internalType": "uint256",
          "name": "shares_",
          "type": "uint256"
        }
      ],
      "name": "convertToUnderlying",
      "outputs": [
        {
          "internalType": "uint256",
          "name": "amountUnderlying",
          "type": "uint256"
        }
      ],
      "stateMutability": "view",
      "type": "function"
    },
    {
      "inputs": [],
      "name": "decimals",
      "outputs": [
        {
          "internalType": "uint8",
          "name": "",
          "type": "uint8"
        }
      ],
      "stateMutability": "view",
      "type": "function"
    },
    {
      "inputs": [
        {
          "internalType": "address",
          "name": "spender",
          "type": "address"
        },
        {
          "internalType": "uint256",
          "name": "subtractedValue",
          "type": "uint256"
        }
      ],
      "name": "decreaseAllowance",
      "outputs": [
        {
          "internalType": "bool",
          "name": "",
          "type": "bool"
        }
      ],
      "stateMutability": "nonpayable",
      "type": "function"
    },
    {
      "inputs": [
        {
          "internalType": "address",
          "name": "spender",
          "type": "address"
        },
        {
          "internalType": "uint256",
          "name": "addedValue",
          "type": "uint256"
        }
      ],
      "name": "increaseAllowance",
      "outputs": [
        {
          "internalType": "bool",
          "name": "",
          "type": "bool"
        }
      ],
      "stateMutability": "nonpayable",
      "type": "function"
    },
    {
      "inputs": [
        {
          "internalType": "address",
          "name": "underlying_",
          "type": "address"
        },
        {
          "internalType": "address",
          "name": "diamond_",
          "type": "address"
        },
        {
          "internalType": "string",
          "name": "name_",
          "type": "string"
        },
        {
          "internalType": "string",
          "name": "symbol_",
          "type": "string"
        }
      ],
      "name": "initialize",
      "outputs": [],
      "stateMutability": "nonpayable",
      "type": "function"
    },
    {
      "inputs": [
        {
          "internalType": "address",
          "name": "",
          "type": "address"
        }
      ],
      "name": "maxDeposit",
      "outputs": [
        {
          "internalType": "uint256",
          "name": "",
          "type": "uint256"
        }
      ],
      "stateMutability": "view",
      "type": "function"
    },
    {
      "inputs": [
        {
          "internalType": "bytes",
          "name": "data_",
          "type": "bytes"
        }
      ],
      "name": "mint",
      "outputs": [
        {
          "internalType": "uint256",
          "name": "",
          "type": "uint256"
        }
      ],
      "stateMutability": "nonpayable",
      "type": "function"
    },
    {
      "inputs": [],
      "name": "name",
      "outputs": [
        {
          "internalType": "string",
          "name": "",
          "type": "string"
        }
      ],
      "stateMutability": "view",
      "type": "function"
    },
    {
      "inputs": [
        {
          "internalType": "address",
          "name": "owner",
          "type": "address"
        }
      ],
      "name": "nonces",
      "outputs": [
        {
          "internalType": "uint256",
          "name": "",
          "type": "uint256"
        }
      ],
      "stateMutability": "view",
      "type": "function"
    },
    {
      "inputs": [
        {
          "internalType": "address",
          "name": "owner",
          "type": "address"
        },
        {
          "internalType": "address",
          "name": "spender",
          "type": "address"
        },
        {
          "internalType": "uint256",
          "name": "value",
          "type": "uint256"
        },
        {
          "internalType": "uint256",
          "name": "deadline",
          "type": "uint256"
        },
        {
          "internalType": "uint8",
          "name": "v",
          "type": "uint8"
        },
        {
          "internalType": "bytes32",
          "name": "r",
          "type": "bytes32"
        },
        {
          "internalType": "bytes32",
          "name": "s_",
          "type": "bytes32"
        }
      ],
      "name": "permit",
      "outputs": [],
      "stateMutability": "nonpayable",
      "type": "function"
    },
    {
      "inputs": [
        {
          "internalType": "uint256",
          "name": "assets_",
          "type": "uint256"
        }
      ],
      "name": "previewDeposit",
      "outputs": [
        {
          "internalType": "uint256",
          "name": "",
          "type": "uint256"
        }
      ],
      "stateMutability": "view",
      "type": "function"
    },
    {
      "inputs": [
        {
          "internalType": "uint256",
          "name": "shares_",
          "type": "uint256"
        }
      ],
      "name": "previewRedeem",
      "outputs": [
        {
          "internalType": "uint256",
          "name": "",
          "type": "uint256"
        }
      ],
      "stateMutability": "view",
      "type": "function"
    },
    {
      "inputs": [
        {
          "internalType": "uint256",
          "name": "assets",
          "type": "uint256"
        }
      ],
      "name": "previewWithdraw",
      "outputs": [
        {
          "internalType": "uint256",
          "name": "",
          "type": "uint256"
        }
      ],
      "stateMutability": "view",
      "type": "function"
    },
    {
      "inputs": [
        {
          "internalType": "bytes",
          "name": "data_",
          "type": "bytes"
        }
      ],
      "name": "redeem",
      "outputs": [
        {
          "internalType": "uint256",
          "name": "",
          "type": "uint256"
        }
      ],
      "stateMutability": "nonpayable",
      "type": "function"
    },
    {
      "inputs": [
        {
          "internalType": "address",
          "name": "account_",
          "type": "address"
        }
      ],
      "name": "sharesOf",
      "outputs": [
        {
          "internalType": "uint256",
          "name": "",
          "type": "uint256"
        }
      ],
      "stateMutability": "view",
      "type": "function"
    },
    {
      "inputs": [],
      "name": "symbol",
      "outputs": [
        {
          "internalType": "string",
          "name": "",
          "type": "string"
        }
      ],
      "stateMutability": "view",
      "type": "function"
    },
    {
      "inputs": [],
      "name": "totalAssets",
      "outputs": [
        {
          "internalType": "uint256",
          "name": "",
          "type": "uint256"
        }
      ],
      "stateMutability": "view",
      "type": "function"
    },
    {
      "inputs": [],
      "name": "totalShares",
      "outputs": [
        {
          "internalType": "uint256",
          "name": "",
          "type": "uint256"
        }
      ],
      "stateMutability": "view",
      "type": "function"
    },
    {
      "inputs": [],
      "name": "totalSupply",
      "outputs": [
        {
          "internalType": "uint256",
          "name": "",
          "type": "uint256"
        }
      ],
      "stateMutability": "view",
      "type": "function"
    },
    {
      "inputs": [
        {
          "internalType": "address",
          "name": "to",
          "type": "address"
        },
        {
          "internalType": "uint256",
          "name": "amount",
          "type": "uint256"
        }
      ],
      "name": "transfer",
      "outputs": [
        {
          "internalType": "bool",
          "name": "",
          "type": "bool"
        }
      ],
      "stateMutability": "nonpayable",
      "type": "function"
    },
    {
      "inputs": [
        {
          "internalType": "address",
          "name": "from",
          "type": "address"
        },
        {
          "internalType": "address",
          "name": "to",
          "type": "address"
        },
        {
          "internalType": "uint256",
          "name": "amount",
          "type": "uint256"
        }
      ],
      "name": "transferFrom",
      "outputs": [
        {
          "internalType": "bool",
          "name": "",
          "type": "bool"
        }
      ],
      "stateMutability": "nonpayable",
      "type": "function"
    }
  ],
  "bytecode": {
    "object": "0x608060405234801561001057600080fd5b5061001961001e565b6100de565b600054610100900460ff161561008a5760405162461bcd60e51b815260206004820152602760248201527f496e697469616c697a61626c653a20636f6e747261637420697320696e697469604482015266616c697a696e6760c81b606482015260840160405180910390fd5b60005460ff90811610156100dc576000805460ff191660ff9081179091556040519081527f7f26b83ff96e1f2b6a682f133852f6798a09c465da95921460cefb38474024989060200160405180910390a15b565b611b85806100ed6000396000f3fe608060405234801561001057600080fd5b50600436106101cf5760003560e01c8063402d267d11610104578063a01c8774116100a2578063d505accf11610071578063d505accf14610382578063dd62ed3e14610395578063ef8b30f7146103a8578063f5eb42dc146103bb57600080fd5b8063a01c877414610353578063a457c2d71461035c578063a9059cbb1461036f578063c6e6f5921461023657600080fd5b80637ba0e2e7116100de5780637ba0e2e7146103125780637ecebe001461032557806395d89b41146103385780639945e3d31461034057600080fd5b8063402d267d146102d95780634cdad506146102ec57806370a08231146102ff57600080fd5b80632016a0d2116101715780633644e5151161014b5780633644e5151461029b57806338d52e0f146102a357806339509351146102be5780633a98ef39146102d157600080fd5b80632016a0d21461026457806323b872dd14610279578063313ce5671461028c57600080fd5b8063095ea7b3116101ad578063095ea7b3146102135780630a28a4771461023657806318160ddd146102495780631dc7f5211461025157600080fd5b806301e1d114146101d457806306fdde03146101eb57806307a2d13a14610200575b600080fd5b6038545b6040519081526020015b60405180910390f35b6101f36103e4565b6040516101e291906114fb565b6101d861020e36600461150e565b610476565b61022661022136600461153c565b610487565b60405190151581526020016101e2565b6101d861024436600461150e565b61049d565b6101d86104a8565b6101d861025f36600461150e565b6104ca565b610277610272366004611614565b61055b565b005b61022661028736600461169d565b61075e565b604051601281526020016101e2565b6101d8610780565b6036546040516001600160a01b0390911681526020016101e2565b6102266102cc36600461153c565b61078a565b6037546101d8565b6101d86102e73660046116de565b6107ab565b6101d86102fa36600461150e565b6107c9565b6101d861030d3660046116de565b6107d4565b6101d86103203660046116fb565b6107f6565b6101d86103333660046116de565b61093e565b6101f361095c565b6101d861034e3660046116fb565b61096b565b6101d8603e5481565b61022661036a36600461153c565b610aad565b61022661037d36600461153c565b610aea565b61027761039036600461175b565b610af7565b6101d86103a33660046117cc565b610c19565b6101d86103b636600461150e565b610c44565b6101d86103c93660046116de565b6001600160a01b031660009081526039602052604090205490565b6060603c80546103f390611805565b80601f016020809104026020016040519081016040528092919081815260200182805461041f90611805565b801561046c5780601f106104415761010080835404028352916020019161046c565b820191906000526020600020905b81548152906001019060200180831161044f57829003601f168201915b5050505050905090565b600061048182610c4f565b92915050565b6000610494338484610cf7565b50600192915050565b600061048182610da6565b60006037546000146104c4576104bf603754610c4f565b905090565b50600090565b60006104d560375490565b60355460405163a4fc284b60e01b81526001600160a01b039091169063a4fc284b906105069060019060040161184f565b602060405180830381865afa158015610523573d6000803e3d6000fd5b505050506040513d601f19601f820116820180604052508101906105479190611877565b61055190846118a6565b61048191906118bd565b600054610100900460ff161580801561057b5750600054600160ff909116105b806105955750303b158015610595575060005460ff166001145b6105fd5760405162461bcd60e51b815260206004820152602e60248201527f496e697469616c697a61626c653a20636f6e747261637420697320616c72656160448201526d191e481a5b9a5d1a585b1a5e995960921b60648201526084015b60405180910390fd5b6000805460ff191660011790558015610620576000805461ff0019166101001790555b603c61062c848261192e565b50603d610639838261192e565b50603580546001600160a01b038087166001600160a01b03199283161790925560368054928816929091169190911790556040805180820190915260018152603160f81b602082015261068d908490610e33565b846001600160a01b031663313ce5676040518163ffffffff1660e01b8152600401602060405180830381865afa1580156106cb573d6000803e3d6000fd5b505050506040513d601f19601f820116820180604052508101906106ef91906119ee565b60ff16601214610700576001610707565b64e8d4a510005b64ffffffffff16603e558015610757576000805461ff0019169055604051600181527f7f26b83ff96e1f2b6a682f133852f6798a09c465da95921460cefb38474024989060200160405180910390a15b5050505050565b600061076b843384610e68565b610776848484610eb6565b5060019392505050565b60006104bf610f9b565b600061049433848461079c3388610c19565b6107a69190611a0b565b610cf7565b60006107b5611016565b6107c0576000610481565b60001992915050565b600061048182611037565b6001600160a01b03811660009081526039602052604081205461048190610476565b60008060008380602001905181019061080f9190611a1e565b603e548251929450909250600091610826916110c3565b6035549091506001600160a01b031663b50f68fd61084c6036546001600160a01b031690565b604080516001600160e01b031960e085901b1681526001600160a01b0390921660048301523360248301528651604483015260208701516064830152860151608482015260a401600060405180830381600087803b1580156108ad57600080fd5b505af11580156108c1573d6000803e3d6000fd5b5050505060006108d060375490565b156108e3576108de82610c44565b6108e5565b815b905081603860008282546108f99190611a0b565b9250508190555080603760008282546109129190611a0b565b90915550506001600160a01b039092166000908152603960205260409020805483019055509392505050565b6001600160a01b0381166000908152603a6020526040812054610481565b6060603d80546103f390611805565b600080828060200190518101906109829190611a93565b50505050905060006109a9336001600160a01b031660009081526039602052604090205490565b905060006109b68361049d565b9050808210156109e957604051637ac073bf60e01b815233600482015260248101839052604481018290526064016105f4565b60006109f4826107c9565b6035546040516314370d6760e31b81529192506000916001600160a01b039091169063a1b86b3890610a2c9033908b90600401611ae0565b6020604051808303816000875af1158015610a4b573d6000803e3d6000fd5b505050506040513d601f19601f82011682018060405250810190610a6f9190611877565b6035546001600160a01b0316600090815260396020526040812080549190556037805491909103905560388054939093039092555095945050505050565b600080610aba3385610c19565b905082811015610add576040516361ceb1d360e01b815260040160405180910390fd5b6107763385858403610cf7565b6000610494338484610eb6565b83421115610b215760405163233730db60e11b8152600481018590524260248201526044016105f4565b60007f6e71edae12b1b97f4d1f60370fef10105fa2faae0126114a169c64845d6126c9888888610b508c6110d6565b6040805160208101969096526001600160a01b0394851690860152929091166060840152608083015260a082015260c0810186905260e0016040516020818303038152906040528051906020012090506000610bab826110fe565b90506000610bbb8287878761114c565b9050896001600160a01b0316816001600160a01b031614610c0257604051630189c63360e31b81526001600160a01b03808c1660048301528a1660248201526044016105f4565b610c0d8a8a8a610cf7565b50505050505050505050565b6001600160a01b039182166000908152603b6020908152604080832093909416825291909152205490565b600061048182611174565b6000610481610c5d60375490565b15610c6a57603754610c6d565b60015b603560009054906101000a90046001600160a01b03166001600160a01b03166345089e296040518163ffffffff1660e01b8152600401602060405180830381865afa158015610cc0573d6000803e3d6000fd5b505050506040513d601f19601f82011682018060405250810190610ce49190611877565b610cee91906118bd565b8390600161118a565b6001600160a01b0383161580610d1457506001600160a01b038216155b15610d4557604051637db368a160e01b81526001600160a01b038085166004830152831660248201526044016105f4565b6001600160a01b038381166000818152603b602090815260408083209487168084529482529182902085905590518481527f8c5be1e5ebec7d5bd14f71427d1e84f3dd0314c0f7b2291e5b200ac8c7c3b925910160405180910390a3505050565b6000610481610db460375490565b603560009054906101000a90046001600160a01b03166001600160a01b03166345089e296040518163ffffffff1660e01b8152600401602060405180830381865afa158015610e07573d6000803e3d6000fd5b505050506040513d601f19601f82011682018060405250810190610e2b9190611877565b8491906111a8565b600054610100900460ff16610e5a5760405162461bcd60e51b81526004016105f490611b04565b610e6482826111ce565b5050565b6000610e748484610c19565b90506000198114610eb05781811015610ea3576040516306052b7f60e01b8152600481018390526024016105f4565b610eb08484848403610cf7565b50505050565b6001600160a01b0383161580610ed357506001600160a01b038216155b15610f0457604051637db368a160e01b81526001600160a01b038085166004830152831660248201526044016105f4565b6000610f0f8261049d565b6001600160a01b03851660009081526039602052604090205490915081811015610f65576040516315c29bad60e31b81526001600160a01b038616600482015260248101829052604481018390526064016105f4565b6001600160a01b039485166000908152603960205260408082209284900390925593909416835292909120805490920190915550565b60006104bf7f8b73c3c69bb8fe3d512ecc4cf759cc79239f7b179b0ffacaa9a75d522b39400f610fca60015490565b6002546040805160208101859052908101839052606081018290524660808201523060a082015260009060c0016040516020818303038152906040528051906020012090509392505050565b60008061102260385490565b11806104bf57506110316104a8565b15905090565b6000610481603560009054906101000a90046001600160a01b03166001600160a01b03166345089e296040518163ffffffff1660e01b8152600401602060405180830381865afa15801561108f573d6000803e3d6000fd5b505050506040513d601f19601f820116820180604052508101906110b39190611877565b6110bb6104a8565b84919061118a565b60006110cf82846118bd565b9392505050565b6001600160a01b0381166000908152603a602052604090208054600181018255905b50919050565b600061048161110b610f9b565b8360405161190160f01b6020820152602281018390526042810182905260009060620160405160208183030381529060405280519060200120905092915050565b600080600061115d8787878761120f565b9150915061116a816112fc565b5095945050505050565b600061048161118260375490565b6038546110bb565b60008260001904841183021582026111a157600080fd5b5091020490565b60008260001904841183021582026111bf57600080fd5b50910281810615159190040190565b600054610100900460ff166111f55760405162461bcd60e51b81526004016105f490611b04565b815160209283012081519190920120600191909155600255565b6000807f7fffffffffffffffffffffffffffffff5d576e7357a4501ddfe92f46681b20a083111561124657506000905060036112f3565b8460ff16601b1415801561125e57508460ff16601c14155b1561126f57506000905060046112f3565b6040805160008082526020820180845289905260ff881692820192909252606081018690526080810185905260019060a0016020604051602081039080840390855afa1580156112c3573d6000803e3d6000fd5b5050604051601f1901519150506001600160a01b0381166112ec576000600192509250506112f3565b9150600090505b94509492505050565b600081600481111561131057611310611839565b036113185750565b600181600481111561132c5761132c611839565b036113795760405162461bcd60e51b815260206004820152601860248201527f45434453413a20696e76616c6964207369676e6174757265000000000000000060448201526064016105f4565b600281600481111561138d5761138d611839565b036113da5760405162461bcd60e51b815260206004820152601f60248201527f45434453413a20696e76616c6964207369676e6174757265206c656e6774680060448201526064016105f4565b60038160048111156113ee576113ee611839565b036114465760405162461bcd60e51b815260206004820152602260248201527f45434453413a20696e76616c6964207369676e6174757265202773272076616c604482015261756560f01b60648201526084016105f4565b600481600481111561145a5761145a611839565b036114b25760405162461bcd60e51b815260206004820152602260248201527f45434453413a20696e76616c6964207369676e6174757265202776272076616c604482015261756560f01b60648201526084016105f4565b50565b6000815180845260005b818110156114db576020818501810151868301820152016114bf565b506000602082860101526020601f19601f83011685010191505092915050565b6020815260006110cf60208301846114b5565b60006020828403121561152057600080fd5b5035919050565b6001600160a01b03811681146114b257600080fd5b6000806040838503121561154f57600080fd5b823561155a81611527565b946020939093013593505050565b634e487b7160e01b600052604160045260246000fd5b600067ffffffffffffffff8084111561159957611599611568565b604051601f8501601f19908116603f011681019082821181831017156115c1576115c1611568565b816040528093508581528686860111156115da57600080fd5b858560208301376000602087830101525050509392505050565b600082601f83011261160557600080fd5b6110cf8383356020850161157e565b6000806000806080858703121561162a57600080fd5b843561163581611527565b9350602085013561164581611527565b9250604085013567ffffffffffffffff8082111561166257600080fd5b61166e888389016115f4565b9350606087013591508082111561168457600080fd5b50611691878288016115f4565b91505092959194509250565b6000806000606084860312156116b257600080fd5b83356116bd81611527565b925060208401356116cd81611527565b929592945050506040919091013590565b6000602082840312156116f057600080fd5b81356110cf81611527565b60006020828403121561170d57600080fd5b813567ffffffffffffffff81111561172457600080fd5b8201601f8101841361173557600080fd5b6117448482356020840161157e565b949350505050565b60ff811681146114b257600080fd5b600080600080600080600060e0888a03121561177657600080fd5b873561178181611527565b9650602088013561179181611527565b9550604088013594506060880135935060808801356117af8161174c565b9699959850939692959460a0840135945060c09093013592915050565b600080604083850312156117df57600080fd5b82356117ea81611527565b915060208301356117fa81611527565b809150509250929050565b600181811c9082168061181957607f821691505b6020821081036110f857634e487b7160e01b600052602260045260246000fd5b634e487b7160e01b600052602160045260246000fd5b602081016002831061187157634e487b7160e01b600052602160045260246000fd5b91905290565b60006020828403121561188957600080fd5b5051919050565b634e487b7160e01b600052601160045260246000fd5b808202811582820484141761048157610481611890565b6000826118da57634e487b7160e01b600052601260045260246000fd5b500490565b601f82111561192957600081815260208120601f850160051c810160208610156119065750805b601f850160051c820191505b8181101561192557828155600101611912565b5050505b505050565b815167ffffffffffffffff81111561194857611948611568565b61195c816119568454611805565b846118df565b602080601f83116001811461199157600084156119795750858301515b600019600386901b1c1916600185901b178555611925565b600085815260208120601f198616915b828110156119c0578886015182559484019460019091019084016119a1565b50858210156119de5787850151600019600388901b60f8161c191681555b5050505050600190811b01905550565b600060208284031215611a0057600080fd5b81516110cf8161174c565b8082018082111561048157610481611890565b6000808284036080811215611a3257600080fd5b6060811215611a4057600080fd5b506040516060810181811067ffffffffffffffff82111715611a6457611a64611568565b80604052508351815260208401516020820152604084015160408201528092505060608301516117fa81611527565b600080600080600060a08688031215611aab57600080fd5b855194506020860151935060408601519250606086015191506080860151611ad281611527565b809150509295509295909350565b6001600160a01b0383168152604060208201819052600090611744908301846114b5565b6020808252602b908201527f496e697469616c697a61626c653a20636f6e7472616374206973206e6f74206960408201526a6e697469616c697a696e6760a81b60608201526080019056fea26469706673582212202521a09932127761735d0bd251b25b4261475b126dd65e11a43a8df499c7a7eb64736f6c63430008150033",
    "linkReferences": {}
  },
  "methodIdentifiers": {
    "DOMAIN_SEPARATOR()": "3644e515",
    "FORMAT_DECIMALS()": "a01c8774",
    "allowance(address,address)": "dd62ed3e",
    "approve(address,uint256)": "095ea7b3",
    "asset()": "38d52e0f",
    "balanceOf(address)": "70a08231",
    "convertToAssets(uint256)": "07a2d13a",
    "convertToShares(uint256)": "c6e6f592",
    "convertToUnderlying(uint256)": "1dc7f521",
    "decimals()": "313ce567",
    "decreaseAllowance(address,uint256)": "a457c2d7",
    "increaseAllowance(address,uint256)": "39509351",
    "initialize(address,address,string,string)": "2016a0d2",
    "maxDeposit(address)": "402d267d",
    "mint(bytes)": "7ba0e2e7",
    "name()": "06fdde03",
    "nonces(address)": "7ecebe00",
    "permit(address,address,uint256,uint256,uint8,bytes32,bytes32)": "d505accf",
    "previewDeposit(uint256)": "ef8b30f7",
    "previewRedeem(uint256)": "4cdad506",
    "previewWithdraw(uint256)": "0a28a477",
    "redeem(bytes)": "9945e3d3",
    "sharesOf(address)": "f5eb42dc",
    "symbol()": "95d89b41",
    "totalAssets()": "01e1d114",
    "totalShares()": "3a98ef39",
    "totalSupply()": "18160ddd",
    "transfer(address,uint256)": "a9059cbb",
    "transferFrom(address,address,uint256)": "23b872dd"
  },
  "id": 27
}