{
  "abi": [
    {
      "inputs": [
        {
          "internalType": "string",
          "name": "name_",
          "type": "string"
        },
        {
          "internalType": "string",
          "name": "symbol_",
          "type": "string"
        },
        {
          "internalType": "address",
          "name": "underlying_",
          "type": "address"
        },
        {
          "internalType": "uint8",
          "name": "decimals_",
          "type": "uint8"
        },
        {
          "internalType": "address",
          "name": "diamond_",
          "type": "address"
        },
        {
          "internalType": "address",
          "name": "roiMod_",
          "type": "address"
        }
      ],
      "stateMutability": "nonpayable",
      "type": "constructor"
    },
    {
      "anonymous": false,
      "inputs": [
        {
          "indexed": true,
          "internalType": "address",
          "name": "owner",
          "type": "address"
        },
        {
          "indexed": true,
          "internalType": "address",
          "name": "spender",
          "type": "address"
        },
        {
          "indexed": false,
          "internalType": "uint256",
          "name": "value",
          "type": "uint256"
        }
      ],
      "name": "Approval",
      "type": "event"
    },
    {
      "anonymous": false,
      "inputs": [
        {
          "indexed": true,
          "internalType": "address",
          "name": "from",
          "type": "address"
        },
        {
          "indexed": true,
          "internalType": "address",
          "name": "to",
          "type": "address"
        },
        {
          "indexed": false,
          "internalType": "uint256",
          "name": "value",
          "type": "uint256"
        }
      ],
      "name": "Transfer",
      "type": "event"
    },
    {
      "inputs": [
        {
          "internalType": "address",
          "name": "owner",
          "type": "address"
        },
        {
          "internalType": "address",
          "name": "spender",
          "type": "address"
        }
      ],
      "name": "allowance",
      "outputs": [
        {
          "internalType": "uint256",
          "name": "",
          "type": "uint256"
        }
      ],
      "stateMutability": "view",
      "type": "function"
    },
    {
      "inputs": [
        {
          "internalType": "address",
          "name": "spender",
          "type": "address"
        },
        {
          "internalType": "uint256",
          "name": "amount",
          "type": "uint256"
        }
      ],
      "name": "approve",
      "outputs": [
        {
          "internalType": "bool",
          "name": "",
          "type": "bool"
        }
      ],
      "stateMutability": "nonpayable",
      "type": "function"
    },
    {
      "inputs": [
        {
          "internalType": "address",
          "name": "account",
          "type": "address"
        }
      ],
      "name": "balanceOf",
      "outputs": [
        {
          "internalType": "uint256",
          "name": "",
          "type": "uint256"
        }
      ],
      "stateMutability": "view",
      "type": "function"
    },
    {
      "inputs": [],
      "name": "decimals",
      "outputs": [
        {
          "internalType": "uint8",
          "name": "",
          "type": "uint8"
        }
      ],
      "stateMutability": "view",
      "type": "function"
    },
    {
      "inputs": [
        {
          "internalType": "address",
          "name": "spender",
          "type": "address"
        },
        {
          "internalType": "uint256",
          "name": "subtractedValue",
          "type": "uint256"
        }
      ],
      "name": "decreaseAllowance",
      "outputs": [
        {
          "internalType": "bool",
          "name": "",
          "type": "bool"
        }
      ],
      "stateMutability": "nonpayable",
      "type": "function"
    },
    {
      "inputs": [],
      "name": "getDiamond",
      "outputs": [
        {
          "internalType": "address",
          "name": "",
          "type": "address"
        }
      ],
      "stateMutability": "view",
      "type": "function"
    },
    {
      "inputs": [
        {
          "internalType": "address",
          "name": "spender",
          "type": "address"
        },
        {
          "internalType": "uint256",
          "name": "addedValue",
          "type": "uint256"
        }
      ],
      "name": "increaseAllowance",
      "outputs": [
        {
          "internalType": "bool",
          "name": "",
          "type": "bool"
        }
      ],
      "stateMutability": "nonpayable",
      "type": "function"
    },
    {
      "inputs": [
        {
          "internalType": "address",
          "name": "account_",
          "type": "address"
        }
      ],
      "name": "interestOf",
      "outputs": [
        {
          "internalType": "uint256",
          "name": "",
          "type": "uint256"
        }
      ],
      "stateMutability": "view",
      "type": "function"
    },
    {
      "inputs": [
        {
          "internalType": "uint256",
          "name": "amount_",
          "type": "uint256"
        }
      ],
      "name": "mint",
      "outputs": [],
      "stateMutability": "nonpayable",
      "type": "function"
    },
    {
      "inputs": [],
      "name": "name",
      "outputs": [
        {
          "internalType": "string",
          "name": "",
          "type": "string"
        }
      ],
      "stateMutability": "view",
      "type": "function"
    },
    {
      "inputs": [],
      "name": "symbol",
      "outputs": [
        {
          "internalType": "string",
          "name": "",
          "type": "string"
        }
      ],
      "stateMutability": "view",
      "type": "function"
    },
    {
      "inputs": [
        {
          "internalType": "address",
          "name": "account_",
          "type": "address"
        }
      ],
      "name": "totalBalanceOf",
      "outputs": [
        {
          "internalType": "uint256",
          "name": "",
          "type": "uint256"
        }
      ],
      "stateMutability": "view",
      "type": "function"
    },
    {
      "inputs": [],
      "name": "totalSupply",
      "outputs": [
        {
          "internalType": "uint256",
          "name": "",
          "type": "uint256"
        }
      ],
      "stateMutability": "view",
      "type": "function"
    },
    {
      "inputs": [
        {
          "internalType": "address",
          "name": "to",
          "type": "address"
        },
        {
          "internalType": "uint256",
          "name": "amount",
          "type": "uint256"
        }
      ],
      "name": "transfer",
      "outputs": [
        {
          "internalType": "bool",
          "name": "",
          "type": "bool"
        }
      ],
      "stateMutability": "nonpayable",
      "type": "function"
    },
    {
      "inputs": [
        {
          "internalType": "address",
          "name": "from",
          "type": "address"
        },
        {
          "internalType": "address",
          "name": "to",
          "type": "address"
        },
        {
          "internalType": "uint256",
          "name": "amount",
          "type": "uint256"
        }
      ],
      "name": "transferFrom",
      "outputs": [
        {
          "internalType": "bool",
          "name": "",
          "type": "bool"
        }
      ],
      "stateMutability": "nonpayable",
      "type": "function"
    },
    {
      "inputs": [],
      "name": "underlying",
      "outputs": [
        {
          "internalType": "address",
          "name": "",
          "type": "address"
        }
      ],
      "stateMutability": "view",
      "type": "function"
    }
  ],
  "bytecode": {
    "object": "0x60c06040523480156200001157600080fd5b50604051620012f9380380620012f983398101604081905262000034916200017f565b6003620000428782620002c8565b506004620000518682620002c8565b506001600160a01b039384166080526005805492851660a05293166001600160a01b031960ff909316600160a01b02929092166001600160a81b03199091161717905550620003949050565b634e487b7160e01b600052604160045260246000fd5b600082601f830112620000c557600080fd5b81516001600160401b0380821115620000e257620000e26200009d565b604051601f8301601f19908116603f011681019082821181831017156200010d576200010d6200009d565b816040528381526020925086838588010111156200012a57600080fd5b600091505b838210156200014e57858201830151818301840152908201906200012f565b600093810190920192909252949350505050565b80516001600160a01b03811681146200017a57600080fd5b919050565b60008060008060008060c087890312156200019957600080fd5b86516001600160401b0380821115620001b157600080fd5b620001bf8a838b01620000b3565b97506020890151915080821115620001d657600080fd5b50620001e589828a01620000b3565b955050620001f66040880162000162565b9350606087015160ff811681146200020d57600080fd5b92506200021d6080880162000162565b91506200022d60a0880162000162565b90509295509295509295565b600181811c908216806200024e57607f821691505b6020821081036200026f57634e487b7160e01b600052602260045260246000fd5b50919050565b601f821115620002c357600081815260208120601f850160051c810160208610156200029e5750805b601f850160051c820191505b81811015620002bf57828155600101620002aa565b5050505b505050565b81516001600160401b03811115620002e457620002e46200009d565b620002fc81620002f5845462000239565b8462000275565b602080601f8311600181146200033457600084156200031b5750858301515b600019600386901b1c1916600185901b178555620002bf565b600085815260208120601f198616915b82811015620003655788860151825594840194600190910190840162000344565b5085821015620003845787850151600019600388901b60f8161c191681555b5050505050600190811b01905550565b60805160a051610f31620003c86000396000818161024201526104f80152600081816101b201526104190152610f316000f3fe608060405234801561001057600080fd5b50600436106101005760003560e01c806370a0823111610097578063a9059cbb11610066578063a9059cbb1461022d578063d7b8b95b14610240578063d8e8b17714610266578063dd62ed3e1461027957600080fd5b806370a08231146101ea57806395d89b41146101fd578063a0712d6814610205578063a457c2d71461021a57600080fd5b8063313ce567116100d3578063313ce5671461016b578063395093511461018a5780634b0ee02a1461019d5780636f307dc3146101b057600080fd5b806306fdde0314610105578063095ea7b31461012357806318160ddd1461014657806323b872dd14610158575b600080fd5b61010d61028c565b60405161011a9190610d02565b60405180910390f35b610136610131366004610d31565b61031e565b604051901515815260200161011a565b6002545b60405190815260200161011a565b610136610166366004610d5b565b610338565b600554600160a01b900460ff1660405160ff909116815260200161011a565b610136610198366004610d31565b61035e565b61014a6101ab366004610d97565b610380565b7f00000000000000000000000000000000000000000000000000000000000000005b6040516001600160a01b03909116815260200161011a565b61014a6101f8366004610d97565b6103d1565b61010d6103db565b610218610213366004610db2565b6103ea565b005b610136610228366004610d31565b610559565b61013661023b366004610d31565b6105e4565b7f00000000000000000000000000000000000000000000000000000000000000006101d2565b61014a610274366004610d97565b6105f2565b61014a610287366004610dcb565b6105fd565b60606003805461029b90610dfe565b80601f01602080910402602001604051908101604052809291908181526020018280546102c790610dfe565b80156103145780601f106102e957610100808354040283529160200191610314565b820191906000526020600020905b8154815290600101906020018083116102f757829003601f168201915b5050505050905090565b60003361032c818585610647565b60019150505b92915050565b60003361034685828561078b565b610351858585610805565b60019150505b9392505050565b60003361032c81858561037183836105fd565b61037b9190610e38565b610647565b6000808060025b600281111561039857610398610e59565b81526020019081526020016000206000836001600160a01b03166001600160a01b03168152602001908152602001600020549050919050565b6000808080610387565b60606004805461029b90610dfe565b60408051808201909152601381527203937b4a6b7b21034b71037bd2a37b5b2b71d1606d1b60208201526005547f000000000000000000000000000000000000000000000000000000000000000091829161044e91906001600160a01b0316610a21565b6005546040516323b872dd60e01b81523360048201526001600160a01b03918216602482015260448101859052908216906323b872dd906064016020604051808303816000875af11580156104a7573d6000803e3d6000fd5b505050506040513d601f19601f820116820180604052508101906104cb9190610e6f565b50604051632029576960e21b8152600481018490526001600160a01b0383811660248301523360448301527f000000000000000000000000000000000000000000000000000000000000000016906380a55da490606401600060405180830381600087803b15801561053c57600080fd5b505af1158015610550573d6000803e3d6000fd5b50505050505050565b6000338161056782866105fd565b9050838110156105cc5760405162461bcd60e51b815260206004820152602560248201527f45524332303a2064656372656173656420616c6c6f77616e63652062656c6f77604482015264207a65726f60d81b60648201526084015b60405180910390fd5b6105d98286868403610647565b506001949350505050565b60003361032c818585610805565b600080806001610387565b6001600160a01b0391821660009081527fa6eef7e35abe7026729641147f7915573c7e97b47efa546f5f6e3230263bcb496020908152604080832093909416825291909152205490565b6001600160a01b0383166106a95760405162461bcd60e51b8152602060048201526024808201527f45524332303a20617070726f76652066726f6d20746865207a65726f206164646044820152637265737360e01b60648201526084016105c3565b6001600160a01b03821661070a5760405162461bcd60e51b815260206004820152602260248201527f45524332303a20617070726f766520746f20746865207a65726f206164647265604482015261737360f01b60648201526084016105c3565b6001600160a01b0383811660008181527fa6eef7e35abe7026729641147f7915573c7e97b47efa546f5f6e3230263bcb496020908152604080832094871680845294825291829020859055815185815291517f8c5be1e5ebec7d5bd14f71427d1e84f3dd0314c0f7b2291e5b200ac8c7c3b9259281900390910190a3505050565b600061079784846105fd565b905060001981146107ff57818110156107f25760405162461bcd60e51b815260206004820152601d60248201527f45524332303a20696e73756666696369656e7420616c6c6f77616e636500000060448201526064016105c3565b6107ff8484848403610647565b50505050565b6001600160a01b0383166108695760405162461bcd60e51b815260206004820152602560248201527f45524332303a207472616e736665722066726f6d20746865207a65726f206164604482015264647265737360d81b60648201526084016105c3565b6001600160a01b0382166108cb5760405162461bcd60e51b815260206004820152602360248201527f45524332303a207472616e7366657220746f20746865207a65726f206164647260448201526265737360e81b60648201526084016105c3565b6001600160a01b0383166000908152600080516020610edc8339815191526020526040902054818110156109505760405162461bcd60e51b815260206004820152602660248201527f45524332303a207472616e7366657220616d6f756e7420657863656564732062604482015265616c616e636560d01b60648201526084016105c3565b6001600160a01b038481166000908152600080516020610edc8339815191526020526040808220858503905591851681529081208054840190556109948584610a6a565b6001600160a01b0386166000908152600080516020610ebc8339815191526020526040902080548290038201905590506109ce8585610aec565b50826001600160a01b0316846001600160a01b03167fddf252ad1be2c89b69c2b068fc378daa952ba7f163c4a11628f55a4df523b3ef84604051610a1491815260200190565b60405180910390a36107ff565b610a668282604051602401610a37929190610e91565b60408051601f198184030181529190526020810180516001600160e01b031663319af33360e01b179052610bec565b5050565b6001600160a01b0382166000908152600080516020610edc833981519152602052604081205481610aa58468056bc75e2d6310000084610c0d565b6001600160a01b0386166000908152600080516020610ebc8339815191526020526040902054909150610ae2828268056bc75e2d63100000610c0d565b9695505050505050565b6001600160a01b0382166000908152600080516020610ebc8339815191526020908152604080832054600080516020610edc83398151915290925290912054610b359190610e38565b6001600160a01b0383811660009081527fabbb5caa7dda850e60932de0934eb1f9d0f59695050f761dc64e443e5030a56960209081526040808320949094559184168152600080516020610ebc833981519152825282812054600080516020610edc8339815191529092529190912054610baf9190610e38565b6001600160a01b039190911660009081527fabbb5caa7dda850e60932de0934eb1f9d0f59695050f761dc64e443e5030a569602052604090205550565b80516a636f6e736f6c652e6c6f67602083016000808483855afa5050505050565b60008383026000198486098181108201900380610c425783610c375763ae47f7026000526004601cfd5b508290049050610357565b808411610c575763ae47f7026000526004601cfd5b838587096000858103861695869004956003870260029081188089028203028089028203028089028203028089028203028089028203028089029091030291819003819004600101858411909403939093029190930391909104170290509392505050565b6000815180845260005b81811015610ce257602081850181015186830182015201610cc6565b506000602082860101526020601f19601f83011685010191505092915050565b6020815260006103576020830184610cbc565b80356001600160a01b0381168114610d2c57600080fd5b919050565b60008060408385031215610d4457600080fd5b610d4d83610d15565b946020939093013593505050565b600080600060608486031215610d7057600080fd5b610d7984610d15565b9250610d8760208501610d15565b9150604084013590509250925092565b600060208284031215610da957600080fd5b61035782610d15565b600060208284031215610dc457600080fd5b5035919050565b60008060408385031215610dde57600080fd5b610de783610d15565b9150610df560208401610d15565b90509250929050565b600181811c90821680610e1257607f821691505b602082108103610e3257634e487b7160e01b600052602260045260246000fd5b50919050565b8082018082111561033257634e487b7160e01b600052601160045260246000fd5b634e487b7160e01b600052602160045260246000fd5b600060208284031215610e8157600080fd5b8151801515811461035757600080fd5b604081526000610ea46040830185610cbc565b905060018060a01b0383166020830152939250505056feada5013122d395ba3c54772283fb069b10426056ef8ca54750cb9bb552a59e7dad3228b676f7d3cd4284a5443f17f1962b36e491b30a40b2405849e597ba5fb5a2646970667358221220fdcdb91e3a72aa16ec67d2f294fc96ff30d8733ec53046e83b217e97a8bb39c664736f6c63430008150033",
    "linkReferences": {}
  },
  "methodIdentifiers": {
    "allowance(address,address)": "dd62ed3e",
    "approve(address,uint256)": "095ea7b3",
    "balanceOf(address)": "70a08231",
    "decimals()": "313ce567",
    "decreaseAllowance(address,uint256)": "a457c2d7",
    "getDiamond()": "d7b8b95b",
    "increaseAllowance(address,uint256)": "39509351",
    "interestOf(address)": "d8e8b177",
    "mint(uint256)": "a0712d68",
    "name()": "06fdde03",
    "symbol()": "95d89b41",
    "totalBalanceOf(address)": "4b0ee02a",
    "totalSupply()": "18160ddd",
    "transfer(address,uint256)": "a9059cbb",
    "transferFrom(address,address,uint256)": "23b872dd",
    "underlying()": "6f307dc3"
  },
  "id": 17
}