{
  "abi": [
    {
      "inputs": [],
      "stateMutability": "nonpayable",
      "type": "constructor"
    },
    {
      "inputs": [],
      "name": "OZError03",
      "type": "error"
    },
    {
      "inputs": [
        {
          "internalType": "address",
          "name": "from",
          "type": "address"
        },
        {
          "internalType": "address",
          "name": "to",
          "type": "address"
        }
      ],
      "name": "OZError04",
      "type": "error"
    },
    {
      "inputs": [
        {
          "internalType": "uint256",
          "name": "amount",
          "type": "uint256"
        }
      ],
      "name": "OZError05",
      "type": "error"
    },
    {
      "inputs": [
        {
          "internalType": "address",
          "name": "sender",
          "type": "address"
        },
        {
          "internalType": "uint256",
          "name": "accountShares",
          "type": "uint256"
        },
        {
          "internalType": "uint256",
          "name": "shares",
          "type": "uint256"
        }
      ],
      "name": "OZError06",
      "type": "error"
    },
    {
      "inputs": [
        {
          "internalType": "address",
          "name": "from",
          "type": "address"
        },
        {
          "internalType": "uint256",
          "name": "fromShares",
          "type": "uint256"
        },
        {
          "internalType": "uint256",
          "name": "shares",
          "type": "uint256"
        }
      ],
      "name": "OZError07",
      "type": "error"
    },
    {
      "inputs": [
        {
          "internalType": "uint256",
          "name": "deadline",
          "type": "uint256"
        },
        {
          "internalType": "uint256",
          "name": "blockTimestamp",
          "type": "uint256"
        }
      ],
      "name": "OZError08",
      "type": "error"
    },
    {
      "inputs": [
        {
          "internalType": "address",
          "name": "owner",
          "type": "address"
        },
        {
          "internalType": "address",
          "name": "spender",
          "type": "address"
        }
      ],
      "name": "OZError09",
      "type": "error"
    },
    {
      "anonymous": false,
      "inputs": [
        {
          "indexed": true,
          "internalType": "address",
          "name": "owner",
          "type": "address"
        },
        {
          "indexed": true,
          "internalType": "address",
          "name": "spender",
          "type": "address"
        },
        {
          "indexed": false,
          "internalType": "uint256",
          "name": "value",
          "type": "uint256"
        }
      ],
      "name": "Approval",
      "type": "event"
    },
    {
      "anonymous": false,
      "inputs": [
        {
          "indexed": false,
          "internalType": "uint8",
          "name": "version",
          "type": "uint8"
        }
      ],
      "name": "Initialized",
      "type": "event"
    },
    {
      "anonymous": false,
      "inputs": [
        {
          "indexed": true,
          "internalType": "address",
          "name": "from",
          "type": "address"
        },
        {
          "indexed": true,
          "internalType": "address",
          "name": "to",
          "type": "address"
        },
        {
          "indexed": false,
          "internalType": "uint256",
          "name": "value",
          "type": "uint256"
        }
      ],
      "name": "Transfer",
      "type": "event"
    },
    {
      "inputs": [],
      "name": "DOMAIN_SEPARATOR",
      "outputs": [
        {
          "internalType": "bytes32",
          "name": "",
          "type": "bytes32"
        }
      ],
      "stateMutability": "view",
      "type": "function"
    },
    {
      "inputs": [],
      "name": "FORMAT_DECIMALS",
      "outputs": [
        {
          "internalType": "uint256",
          "name": "",
          "type": "uint256"
        }
      ],
      "stateMutability": "view",
      "type": "function"
    },
    {
      "inputs": [
        {
          "internalType": "address",
          "name": "owner",
          "type": "address"
        },
        {
          "internalType": "address",
          "name": "spender",
          "type": "address"
        }
      ],
      "name": "allowance",
      "outputs": [
        {
          "internalType": "uint256",
          "name": "",
          "type": "uint256"
        }
      ],
      "stateMutability": "view",
      "type": "function"
    },
    {
      "inputs": [
        {
          "internalType": "address",
          "name": "spender",
          "type": "address"
        },
        {
          "internalType": "uint256",
          "name": "amount",
          "type": "uint256"
        }
      ],
      "name": "approve",
      "outputs": [
        {
          "internalType": "bool",
          "name": "",
          "type": "bool"
        }
      ],
      "stateMutability": "nonpayable",
      "type": "function"
    },
    {
      "inputs": [],
      "name": "asset",
      "outputs": [
        {
          "internalType": "address",
          "name": "",
          "type": "address"
        }
      ],
      "stateMutability": "view",
      "type": "function"
    },
    {
      "inputs": [
        {
          "internalType": "address",
          "name": "account_",
          "type": "address"
        }
      ],
      "name": "balanceOf",
      "outputs": [
        {
          "internalType": "uint256",
          "name": "",
          "type": "uint256"
        }
      ],
      "stateMutability": "view",
      "type": "function"
    },
    {
      "inputs": [],
      "name": "claimReward",
      "outputs": [],
      "stateMutability": "nonpayable",
      "type": "function"
    },
    {
      "inputs": [
        {
          "internalType": "uint256",
          "name": "shares",
          "type": "uint256"
        }
      ],
      "name": "convertToAssets",
      "outputs": [
        {
          "internalType": "uint256",
          "name": "assets",
          "type": "uint256"
        }
      ],
      "stateMutability": "view",
      "type": "function"
    },
    {
      "inputs": [
        {
          "internalType": "uint256",
          "name": "assets",
          "type": "uint256"
        }
      ],
      "name": "convertToShares",
      "outputs": [
        {
          "internalType": "uint256",
          "name": "shares",
          "type": "uint256"
        }
      ],
      "stateMutability": "view",
      "type": "function"
    },
    {
      "inputs": [
        {
          "internalType": "uint256",
          "name": "shares_",
          "type": "uint256"
        }
      ],
      "name": "convertToUnderlying",
      "outputs": [
        {
          "internalType": "uint256",
          "name": "amountUnderlying",
          "type": "uint256"
        }
      ],
      "stateMutability": "view",
      "type": "function"
    },
    {
      "inputs": [],
      "name": "decimals",
      "outputs": [
        {
          "internalType": "uint8",
          "name": "",
          "type": "uint8"
        }
      ],
      "stateMutability": "pure",
      "type": "function"
    },
    {
      "inputs": [
        {
          "internalType": "address",
          "name": "spender",
          "type": "address"
        },
        {
          "internalType": "uint256",
          "name": "subtractedValue",
          "type": "uint256"
        }
      ],
      "name": "decreaseAllowance",
      "outputs": [
        {
          "internalType": "bool",
          "name": "",
          "type": "bool"
        }
      ],
      "stateMutability": "nonpayable",
      "type": "function"
    },
    {
      "inputs": [
        {
          "internalType": "address",
          "name": "user_",
          "type": "address"
        }
      ],
      "name": "earned",
      "outputs": [
        {
          "internalType": "uint256",
          "name": "",
          "type": "uint256"
        }
      ],
      "stateMutability": "view",
      "type": "function"
    },
    {
      "inputs": [],
      "name": "getOZLCirculatingSupply",
      "outputs": [
        {
          "internalType": "uint256",
          "name": "",
          "type": "uint256"
        }
      ],
      "stateMutability": "view",
      "type": "function"
    },
    {
      "inputs": [],
      "name": "getRewardRate",
      "outputs": [
        {
          "internalType": "uint256",
          "name": "",
          "type": "uint256"
        }
      ],
      "stateMutability": "view",
      "type": "function"
    },
    {
      "inputs": [
        {
          "internalType": "address",
          "name": "spender",
          "type": "address"
        },
        {
          "internalType": "uint256",
          "name": "addedValue",
          "type": "uint256"
        }
      ],
      "name": "increaseAllowance",
      "outputs": [
        {
          "internalType": "bool",
          "name": "",
          "type": "bool"
        }
      ],
      "stateMutability": "nonpayable",
      "type": "function"
    },
    {
      "inputs": [
        {
          "internalType": "address",
          "name": "underlying_",
          "type": "address"
        },
        {
          "internalType": "address",
          "name": "diamond_",
          "type": "address"
        },
        {
          "internalType": "string",
          "name": "name_",
          "type": "string"
        },
        {
          "internalType": "string",
          "name": "symbol_",
          "type": "string"
        }
      ],
      "name": "initialize",
      "outputs": [],
      "stateMutability": "nonpayable",
      "type": "function"
    },
    {
      "inputs": [],
      "name": "lastTimeRewardApplicable",
      "outputs": [
        {
          "internalType": "uint256",
          "name": "",
          "type": "uint256"
        }
      ],
      "stateMutability": "view",
      "type": "function"
    },
    {
      "inputs": [
        {
          "internalType": "bytes",
          "name": "data_",
          "type": "bytes"
        }
      ],
      "name": "mint",
      "outputs": [
        {
          "internalType": "uint256",
          "name": "",
          "type": "uint256"
        }
      ],
      "stateMutability": "nonpayable",
      "type": "function"
    },
    {
      "inputs": [],
      "name": "name",
      "outputs": [
        {
          "internalType": "string",
          "name": "",
          "type": "string"
        }
      ],
      "stateMutability": "view",
      "type": "function"
    },
    {
      "inputs": [
        {
          "internalType": "address",
          "name": "owner",
          "type": "address"
        }
      ],
      "name": "nonces",
      "outputs": [
        {
          "internalType": "uint256",
          "name": "",
          "type": "uint256"
        }
      ],
      "stateMutability": "view",
      "type": "function"
    },
    {
      "inputs": [
        {
          "internalType": "uint256",
          "name": "amount_",
          "type": "uint256"
        }
      ],
      "name": "notifyRewardAmount",
      "outputs": [],
      "stateMutability": "nonpayable",
      "type": "function"
    },
    {
      "inputs": [
        {
          "internalType": "address",
          "name": "owner",
          "type": "address"
        },
        {
          "internalType": "address",
          "name": "spender",
          "type": "address"
        },
        {
          "internalType": "uint256",
          "name": "value",
          "type": "uint256"
        },
        {
          "internalType": "uint256",
          "name": "deadline",
          "type": "uint256"
        },
        {
          "internalType": "uint8",
          "name": "v",
          "type": "uint8"
        },
        {
          "internalType": "bytes32",
          "name": "r",
          "type": "bytes32"
        },
        {
          "internalType": "bytes32",
          "name": "s_",
          "type": "bytes32"
        }
      ],
      "name": "permit",
      "outputs": [],
      "stateMutability": "nonpayable",
      "type": "function"
    },
    {
      "inputs": [
        {
          "internalType": "uint256",
          "name": "assets_",
          "type": "uint256"
        }
      ],
      "name": "previewMint",
      "outputs": [
        {
          "internalType": "uint256",
          "name": "",
          "type": "uint256"
        }
      ],
      "stateMutability": "view",
      "type": "function"
    },
    {
      "inputs": [
        {
          "internalType": "uint256",
          "name": "shares_",
          "type": "uint256"
        }
      ],
      "name": "previewRedeem",
      "outputs": [
        {
          "internalType": "uint256",
          "name": "",
          "type": "uint256"
        }
      ],
      "stateMutability": "view",
      "type": "function"
    },
    {
      "inputs": [
        {
          "internalType": "uint256",
          "name": "assets",
          "type": "uint256"
        }
      ],
      "name": "previewWithdraw",
      "outputs": [
        {
          "internalType": "uint256",
          "name": "",
          "type": "uint256"
        }
      ],
      "stateMutability": "view",
      "type": "function"
    },
    {
      "inputs": [
        {
          "internalType": "bytes",
          "name": "data_",
          "type": "bytes"
        }
      ],
      "name": "redeem",
      "outputs": [
        {
          "internalType": "uint256",
          "name": "",
          "type": "uint256"
        }
      ],
      "stateMutability": "nonpayable",
      "type": "function"
    },
    {
      "inputs": [],
      "name": "rewardPerToken",
      "outputs": [
        {
          "internalType": "uint256",
          "name": "",
          "type": "uint256"
        }
      ],
      "stateMutability": "view",
      "type": "function"
    },
    {
      "inputs": [
        {
          "internalType": "uint256",
          "name": "duration_",
          "type": "uint256"
        }
      ],
      "name": "setRewardsDuration",
      "outputs": [],
      "stateMutability": "nonpayable",
      "type": "function"
    },
    {
      "inputs": [
        {
          "internalType": "address",
          "name": "account_",
          "type": "address"
        }
      ],
      "name": "sharesOf",
      "outputs": [
        {
          "internalType": "uint256",
          "name": "",
          "type": "uint256"
        }
      ],
      "stateMutability": "view",
      "type": "function"
    },
    {
      "inputs": [],
      "name": "symbol",
      "outputs": [
        {
          "internalType": "string",
          "name": "",
          "type": "string"
        }
      ],
      "stateMutability": "view",
      "type": "function"
    },
    {
      "inputs": [],
      "name": "totalAssets",
      "outputs": [
        {
          "internalType": "uint256",
          "name": "",
          "type": "uint256"
        }
      ],
      "stateMutability": "view",
      "type": "function"
    },
    {
      "inputs": [],
      "name": "totalShares",
      "outputs": [
        {
          "internalType": "uint256",
          "name": "",
          "type": "uint256"
        }
      ],
      "stateMutability": "view",
      "type": "function"
    },
    {
      "inputs": [],
      "name": "totalSupply",
      "outputs": [
        {
          "internalType": "uint256",
          "name": "",
          "type": "uint256"
        }
      ],
      "stateMutability": "view",
      "type": "function"
    },
    {
      "inputs": [
        {
          "internalType": "address",
          "name": "to",
          "type": "address"
        },
        {
          "internalType": "uint256",
          "name": "amount",
          "type": "uint256"
        }
      ],
      "name": "transfer",
      "outputs": [
        {
          "internalType": "bool",
          "name": "",
          "type": "bool"
        }
      ],
      "stateMutability": "nonpayable",
      "type": "function"
    },
    {
      "inputs": [
        {
          "internalType": "address",
          "name": "from",
          "type": "address"
        },
        {
          "internalType": "address",
          "name": "to",
          "type": "address"
        },
        {
          "internalType": "uint256",
          "name": "amount",
          "type": "uint256"
        }
      ],
      "name": "transferFrom",
      "outputs": [
        {
          "internalType": "bool",
          "name": "",
          "type": "bool"
        }
      ],
      "stateMutability": "nonpayable",
      "type": "function"
    }
  ],
  "bytecode": {
    "object": "0x608060405234801561001057600080fd5b5061001961001e565b6100de565b602254610100900460ff161561008a5760405162461bcd60e51b815260206004820152602760248201527f496e697469616c697a61626c653a20636f6e747261637420697320696e697469604482015266616c697a696e6760c81b606482015260840160405180910390fd5b60225460ff90811610156100dc576022805460ff191660ff9081179091556040519081527f7f26b83ff96e1f2b6a682f133852f6798a09c465da95921460cefb38474024989060200160405180910390a15b565b611d17806100ed6000396000f3fe608060405234801561001057600080fd5b506004361061021b5760003560e01c806370a0823111610125578063a9059cbb116100ad578063cc1a378f1161007c578063cc1a378f14610344578063cd3daf9d146102c8578063d505accf146103fe578063dd62ed3e14610411578063f5eb42dc1461042457600080fd5b8063a9059cbb146103d8578063b3d7f6b9146103eb578063b88a802f146102e2578063c6e6f5921461029a57600080fd5b806380faa57d116100f457806380faa57d146102c857806395d89b41146103a15780639945e3d3146103a9578063a01c8774146103bc578063a457c2d7146103c557600080fd5b806370a08231146103685780637ba0e2e71461037b5780637e1a3786146102c85780637ecebe001461038e57600080fd5b80632016a0d2116101a857806338d52e0f1161017757806338d52e0f1461030e57806339509351146103295780633a98ef391461033c5780633c6b16ab146103445780634cdad5061461035557600080fd5b80632016a0d2146102cf57806323b872dd146102e4578063313ce567146102f75780633644e5151461030657600080fd5b8063095ea7b3116101ef578063095ea7b3146102775780630a28a4771461029a57806318160ddd146102ad5780631dc7f521146102b55780631e4d84c6146102c857600080fd5b80628cc2621461022057806301e1d1141461024757806306fdde031461024f57806307a2d13a14610264575b600080fd5b61023461022e366004611664565b50600090565b6040519081526020015b60405180910390f35b61023461044d565b610257610462565b60405161023e91906116c7565b6102346102723660046116da565b6104f4565b61028a6102853660046116f3565b610505565b604051901515815260200161023e565b6102346102a83660046116da565b61051b565b610234610526565b6102346102c33660046116da565b610545565b6000610234565b6102e26102dd3660046117cb565b6105d5565b005b61028a6102f2366004611854565b6107d8565b6040516012815260200161023e565b6102346107fa565b6058546040516001600160a01b03909116815260200161023e565b61028a6103373660046116f3565b610804565b610234610825565b6102e26103523660046116da565b50565b6102346103633660046116da565b610836565b610234610376366004611664565b610841565b610234610389366004611895565b610863565b61023461039c366004611664565b6109cb565b6102576109e9565b6102346103b7366004611895565b6109f8565b610234605f5481565b61028a6103d33660046116f3565b610b91565b61028a6103e63660046116f3565b610bce565b6102346103f93660046116da565b610bdb565b6102e261040c3660046118ed565b610be6565b61023461041f36600461195e565b610d08565b610234610432366004611664565b6001600160a01b03166000908152605a602052604090205490565b60595460009061045d9082610d33565b905090565b6060605d805461047190611997565b80601f016020809104026020016040519081016040528092919081815260200182805461049d90611997565b80156104ea5780601f106104bf576101008083540402835291602001916104ea565b820191906000526020600020905b8154815290600101906020018083116104cd57829003601f168201915b5050505050905090565b60006104ff82610d76565b92915050565b6000610512338484610e22565b50600192915050565b60006104ff82610ed1565b6000610530610825565b1561022e5761045d610540610825565b610d76565b600061054f610825565b60575460405163a4fc284b60e01b81526001600160a01b039091169063a4fc284b90610580906001906004016119e1565b602060405180830381865afa15801561059d573d6000803e3d6000fd5b505050506040513d601f19601f820116820180604052508101906105c19190611a09565b6105cb9084611a38565b6104ff9190611a4f565b602254610100900460ff16158080156105f55750602254600160ff909116105b8061060f5750303b15801561060f575060225460ff166001145b6106775760405162461bcd60e51b815260206004820152602e60248201527f496e697469616c697a61626c653a20636f6e747261637420697320616c72656160448201526d191e481a5b9a5d1a585b1a5e995960921b60648201526084015b60405180910390fd5b6022805460ff19166001179055801561069a576022805461ff0019166101001790555b605d6106a68482611ac0565b50605e6106b38382611ac0565b50605780546001600160a01b038087166001600160a01b03199283161790925560588054928816929091169190911790556040805180820190915260018152603160f81b6020820152610707908490610f5d565b846001600160a01b031663313ce5676040518163ffffffff1660e01b8152600401602060405180830381865afa158015610745573d6000803e3d6000fd5b505050506040513d601f19601f820116820180604052508101906107699190611b80565b60ff1660121461077a576001610781565b64e8d4a510005b64ffffffffff16605f5580156107d1576022805461ff0019169055604051600181527f7f26b83ff96e1f2b6a682f133852f6798a09c465da95921460cefb38474024989060200160405180910390a15b5050505050565b60006107e5843384610f92565b6107f0848484610fe0565b5060019392505050565b600061045d6110fe565b60006105123384846108163388610d08565b6108209190611b9d565b610e22565b60595460009061045d906001610d33565b60006104ff82611179565b6001600160a01b0381166000908152605a60205260408120546104ff906104f4565b60003381601d556000601b556001600160a01b038116156108a7576001600160a01b038116600090815260208080526040808320839055601d54601f909252909120555b600080848060200190518101906108be9190611bb0565b605f5482519294509092506000916108d591611205565b6057549091506001600160a01b031663b50f68fd6108fb6058546001600160a01b031690565b604080516001600160e01b031960e085901b1681526001600160a01b0390921660048301523360248301528651604483015260208701516064830152860151608482015260a401600060405180830381600087803b15801561095c57600080fd5b505af1158015610970573d6000803e3d6000fd5b50505050600061097e610825565b156109915761098c82610bdb565b610993565b815b90506109a182826001611218565b6001600160a01b039092166000908152605a60205260409020805483019055509250505b50919050565b6001600160a01b0381166000908152605b60205260408120546104ff565b6060605e805461047190611997565b60003381601d556000601b556001600160a01b03811615610a3c576001600160a01b038116600090815260208080526040808320839055601d54601f909252909120555b600083806020019051810190610a529190611c25565b5050505090506000610a79336001600160a01b03166000908152605a602052604090205490565b90506000610a868361051b565b905080821015610ab957604051637ac073bf60e01b8152336004820152602481018390526044810182905260640161066e565b6000610ac482610836565b6057546040516314370d6760e31b81529192506000916001600160a01b039091169063a1b86b3890610afc9033908c90600401611c72565b6020604051808303816000875af1158015610b1b573d6000803e3d6000fd5b505050506040513d601f19601f82011682018060405250810190610b3f9190611a09565b6057546001600160a01b03166000908152605a60205260409020549091509350610b6b82856000611218565b6057546001600160a01b03166000908152605a6020526040812055979650505050505050565b600080610b9e3385610d08565b905082811015610bc1576040516361ceb1d360e01b815260040160405180910390fd5b6107f03385858403610e22565b6000610512338484610fe0565b60006104ff82611276565b83421115610c105760405163184f1e0160e11b81526004810185905242602482015260440161066e565b60007f6e71edae12b1b97f4d1f60370fef10105fa2faae0126114a169c64845d6126c9888888610c3f8c61128b565b6040805160208101969096526001600160a01b0394851690860152929091166060840152608083015260a082015260c0810186905260e0016040516020818303038152906040528051906020012090506000610c9a826112b1565b90506000610caa828787876112ff565b9050896001600160a01b0316816001600160a01b031614610cf157604051635091bef560e01b81526001600160a01b03808c1660048301528a16602482015260440161066e565b610cfc8a8a8a610e22565b50505050505050505050565b6001600160a01b039182166000908152605c6020908152604080832093909416825291909152205490565b60006fffffffffffffffffffffffffffffffff81836001811115610d5957610d596119cb565b14610d6657838116610d6e565b608084901c81165b949350505050565b60006104ff610d83610825565b15610d9557610d90610825565b610d98565b60015b605760009054906101000a90046001600160a01b03166001600160a01b03166345089e296040518163ffffffff1660e01b8152600401602060405180830381865afa158015610deb573d6000803e3d6000fd5b505050506040513d601f19601f82011682018060405250810190610e0f9190611a09565b610e199190611a4f565b83906001611327565b6001600160a01b0383161580610e3f57506001600160a01b038216155b15610e7057604051637db368a160e01b81526001600160a01b0380851660048301528316602482015260440161066e565b6001600160a01b038381166000818152605c602090815260408083209487168084529482529182902085905590518481527f8c5be1e5ebec7d5bd14f71427d1e84f3dd0314c0f7b2291e5b200ac8c7c3b925910160405180910390a3505050565b60006104ff610ede610825565b605760009054906101000a90046001600160a01b03166001600160a01b03166345089e296040518163ffffffff1660e01b8152600401602060405180830381865afa158015610f31573d6000803e3d6000fd5b505050506040513d601f19601f82011682018060405250810190610f559190611a09565b849190611345565b602254610100900460ff16610f845760405162461bcd60e51b815260040161066e90611c96565b610f8e828261136b565b5050565b6000610f9e8484610d08565b90506000198114610fda5781811015610fcd576040516306052b7f60e01b81526004810183905260240161066e565b610fda8484848403610e22565b50505050565b6001600160a01b0383161580610ffd57506001600160a01b038216155b1561102e57604051637db368a160e01b81526001600160a01b0380851660048301528316602482015260440161066e565b60006110398261051b565b6001600160a01b0385166000908152605a60205260409020549091508181101561108f576040516315c29bad60e31b81526001600160a01b0386166004820152602481018290526044810183905260640161066e565b6001600160a01b038086166000818152605a602052604080822086860390559287168082529083902080548601905591517fddf252ad1be2c89b69c2b068fc378daa952ba7f163c4a11628f55a4df523b3ef906110ef9087815260200190565b60405180910390a35050505050565b600061045d7f8b73c3c69bb8fe3d512ecc4cf759cc79239f7b179b0ffacaa9a75d522b39400f61112d60235490565b6024546040805160208101859052908101839052606081018290524660808201523060a082015260009060c0016040516020818303038152906040528051906020012090509392505050565b60006104ff605760009054906101000a90046001600160a01b03166001600160a01b03166345089e296040518163ffffffff1660e01b8152600401602060405180830381865afa1580156111d1573d6000803e3d6000fd5b505050506040513d601f19601f820116820180604052508101906111f59190611a09565b6111fd610526565b849190611327565b60006112118284611a4f565b9392505050565b6059546000906112289082610d33565b905060006112426001605954610d3390919063ffffffff16565b905082156112555790840190830161125e565b90849003908390035b61126c82608083901b611b9d565b6059555050505050565b60006104ff611283610825565b6111fd61044d565b6001600160a01b0381166000908152605b602052604090208054600181018255906109c5565b60006104ff6112be6110fe565b8360405161190160f01b6020820152602281018390526042810182905260009060620160405160208183030381529060405280519060200120905092915050565b6000806000611310878787876113ac565b9150915061131d81611499565b5095945050505050565b600082600019048411830215820261133e57600080fd5b5091020490565b600082600019048411830215820261135c57600080fd5b50910281810615159190040190565b602254610100900460ff166113925760405162461bcd60e51b815260040161066e90611c96565b815160209283012081519190920120602391909155602455565b6000807f7fffffffffffffffffffffffffffffff5d576e7357a4501ddfe92f46681b20a08311156113e35750600090506003611490565b8460ff16601b141580156113fb57508460ff16601c14155b1561140c5750600090506004611490565b6040805160008082526020820180845289905260ff881692820192909252606081018690526080810185905260019060a0016020604051602081039080840390855afa158015611460573d6000803e3d6000fd5b5050604051601f1901519150506001600160a01b03811661148957600060019250925050611490565b9150600090505b94509492505050565b60008160048111156114ad576114ad6119cb565b036114b55750565b60018160048111156114c9576114c96119cb565b036115165760405162461bcd60e51b815260206004820152601860248201527f45434453413a20696e76616c6964207369676e61747572650000000000000000604482015260640161066e565b600281600481111561152a5761152a6119cb565b036115775760405162461bcd60e51b815260206004820152601f60248201527f45434453413a20696e76616c6964207369676e6174757265206c656e67746800604482015260640161066e565b600381600481111561158b5761158b6119cb565b036115e35760405162461bcd60e51b815260206004820152602260248201527f45434453413a20696e76616c6964207369676e6174757265202773272076616c604482015261756560f01b606482015260840161066e565b60048160048111156115f7576115f76119cb565b036103525760405162461bcd60e51b815260206004820152602260248201527f45434453413a20696e76616c6964207369676e6174757265202776272076616c604482015261756560f01b606482015260840161066e565b6001600160a01b038116811461035257600080fd5b60006020828403121561167657600080fd5b81356112118161164f565b6000815180845260005b818110156116a75760208185018101518683018201520161168b565b506000602082860101526020601f19601f83011685010191505092915050565b6020815260006112116020830184611681565b6000602082840312156116ec57600080fd5b5035919050565b6000806040838503121561170657600080fd5b82356117118161164f565b946020939093013593505050565b634e487b7160e01b600052604160045260246000fd5b600067ffffffffffffffff808411156117505761175061171f565b604051601f8501601f19908116603f011681019082821181831017156117785761177861171f565b8160405280935085815286868601111561179157600080fd5b858560208301376000602087830101525050509392505050565b600082601f8301126117bc57600080fd5b61121183833560208501611735565b600080600080608085870312156117e157600080fd5b84356117ec8161164f565b935060208501356117fc8161164f565b9250604085013567ffffffffffffffff8082111561181957600080fd5b611825888389016117ab565b9350606087013591508082111561183b57600080fd5b50611848878288016117ab565b91505092959194509250565b60008060006060848603121561186957600080fd5b83356118748161164f565b925060208401356118848161164f565b929592945050506040919091013590565b6000602082840312156118a757600080fd5b813567ffffffffffffffff8111156118be57600080fd5b8201601f810184136118cf57600080fd5b610d6e84823560208401611735565b60ff8116811461035257600080fd5b600080600080600080600060e0888a03121561190857600080fd5b87356119138161164f565b965060208801356119238161164f565b955060408801359450606088013593506080880135611941816118de565b9699959850939692959460a0840135945060c09093013592915050565b6000806040838503121561197157600080fd5b823561197c8161164f565b9150602083013561198c8161164f565b809150509250929050565b600181811c908216806119ab57607f821691505b6020821081036109c557634e487b7160e01b600052602260045260246000fd5b634e487b7160e01b600052602160045260246000fd5b6020810160028310611a0357634e487b7160e01b600052602160045260246000fd5b91905290565b600060208284031215611a1b57600080fd5b5051919050565b634e487b7160e01b600052601160045260246000fd5b80820281158282048414176104ff576104ff611a22565b600082611a6c57634e487b7160e01b600052601260045260246000fd5b500490565b601f821115611abb57600081815260208120601f850160051c81016020861015611a985750805b601f850160051c820191505b81811015611ab757828155600101611aa4565b5050505b505050565b815167ffffffffffffffff811115611ada57611ada61171f565b611aee81611ae88454611997565b84611a71565b602080601f831160018114611b235760008415611b0b5750858301515b600019600386901b1c1916600185901b178555611ab7565b600085815260208120601f198616915b82811015611b5257888601518255948401946001909101908401611b33565b5085821015611b705787850151600019600388901b60f8161c191681555b5050505050600190811b01905550565b600060208284031215611b9257600080fd5b8151611211816118de565b808201808211156104ff576104ff611a22565b6000808284036080811215611bc457600080fd5b6060811215611bd257600080fd5b506040516060810181811067ffffffffffffffff82111715611bf657611bf661171f565b806040525083518152602084015160208201526040840151604082015280925050606083015161198c8161164f565b600080600080600060a08688031215611c3d57600080fd5b855194506020860151935060408601519250606086015191506080860151611c648161164f565b809150509295509295909350565b6001600160a01b0383168152604060208201819052600090610d6e90830184611681565b6020808252602b908201527f496e697469616c697a61626c653a20636f6e7472616374206973206e6f74206960408201526a6e697469616c697a696e6760a81b60608201526080019056fea2646970667358221220e982dc316d331e97b557b5c7298821256692b1574c9c797978acf961e3ad38c664736f6c63430008150033",
    "linkReferences": {}
  },
  "methodIdentifiers": {
    "DOMAIN_SEPARATOR()": "3644e515",
    "FORMAT_DECIMALS()": "a01c8774",
    "allowance(address,address)": "dd62ed3e",
    "approve(address,uint256)": "095ea7b3",
    "asset()": "38d52e0f",
    "balanceOf(address)": "70a08231",
    "claimReward()": "b88a802f",
    "convertToAssets(uint256)": "07a2d13a",
    "convertToShares(uint256)": "c6e6f592",
    "convertToUnderlying(uint256)": "1dc7f521",
    "decimals()": "313ce567",
    "decreaseAllowance(address,uint256)": "a457c2d7",
    "earned(address)": "008cc262",
    "getOZLCirculatingSupply()": "1e4d84c6",
    "getRewardRate()": "7e1a3786",
    "increaseAllowance(address,uint256)": "39509351",
    "initialize(address,address,string,string)": "2016a0d2",
    "lastTimeRewardApplicable()": "80faa57d",
    "mint(bytes)": "7ba0e2e7",
    "name()": "06fdde03",
    "nonces(address)": "7ecebe00",
    "notifyRewardAmount(uint256)": "3c6b16ab",
    "permit(address,address,uint256,uint256,uint8,bytes32,bytes32)": "d505accf",
    "previewMint(uint256)": "b3d7f6b9",
    "previewRedeem(uint256)": "4cdad506",
    "previewWithdraw(uint256)": "0a28a477",
    "redeem(bytes)": "9945e3d3",
    "rewardPerToken()": "cd3daf9d",
    "setRewardsDuration(uint256)": "cc1a378f",
    "sharesOf(address)": "f5eb42dc",
    "symbol()": "95d89b41",
    "totalAssets()": "01e1d114",
    "totalShares()": "3a98ef39",
    "totalSupply()": "18160ddd",
    "transfer(address,uint256)": "a9059cbb",
    "transferFrom(address,address,uint256)": "23b872dd"
  },
  "id": 35
}