{"abi":[{"type":"constructor","inputs":[],"stateMutability":"nonpayable"},{"type":"function","name":"DOMAIN_SEPARATOR","inputs":[],"outputs":[{"name":"","type":"bytes32","internalType":"bytes32"}],"stateMutability":"view"},{"type":"function","name":"FORMAT_DECIMALS","inputs":[],"outputs":[{"name":"","type":"uint256","internalType":"uint256"}],"stateMutability":"view"},{"type":"function","name":"allowance","inputs":[{"name":"owner","type":"address","internalType":"address"},{"name":"spender","type":"address","internalType":"address"}],"outputs":[{"name":"","type":"uint256","internalType":"uint256"}],"stateMutability":"view"},{"type":"function","name":"approve","inputs":[{"name":"spender","type":"address","internalType":"address"},{"name":"amount","type":"uint256","internalType":"uint256"}],"outputs":[{"name":"","type":"bool","internalType":"bool"}],"stateMutability":"nonpayable"},{"type":"function","name":"asset","inputs":[],"outputs":[{"name":"","type":"address","internalType":"address"}],"stateMutability":"view"},{"type":"function","name":"balanceOf","inputs":[{"name":"account_","type":"address","internalType":"address"}],"outputs":[{"name":"","type":"uint256","internalType":"uint256"}],"stateMutability":"view"},{"type":"function","name":"claimReward","inputs":[],"outputs":[{"name":"","type":"uint256","internalType":"uint256"}],"stateMutability":"nonpayable"},{"type":"function","name":"convertToOzTokens","inputs":[{"name":"shares_","type":"uint256","internalType":"uint256"},{"name":"account_","type":"address","internalType":"address"}],"outputs":[{"name":"","type":"uint256","internalType":"UintRay"}],"stateMutability":"view"},{"type":"function","name":"convertToShares","inputs":[{"name":"assets_","type":"uint256","internalType":"uint256"},{"name":"account_","type":"address","internalType":"address"}],"outputs":[{"name":"","type":"uint256","internalType":"uint256"}],"stateMutability":"view"},{"type":"function","name":"convertToSharesFromOzBalance","inputs":[{"name":"ozBalance_","type":"uint256","internalType":"uint256"}],"outputs":[{"name":"","type":"uint256","internalType":"uint256"}],"stateMutability":"view"},{"type":"function","name":"convertToUnderlying","inputs":[{"name":"shares_","type":"uint256","internalType":"uint256"}],"outputs":[{"name":"","type":"uint256","internalType":"uint256"}],"stateMutability":"view"},{"type":"function","name":"decimals","inputs":[],"outputs":[{"name":"","type":"uint8","internalType":"uint8"}],"stateMutability":"pure"},{"type":"function","name":"decreaseAllowance","inputs":[{"name":"spender","type":"address","internalType":"address"},{"name":"subtractedValue","type":"uint256","internalType":"uint256"}],"outputs":[{"name":"","type":"bool","internalType":"bool"}],"stateMutability":"nonpayable"},{"type":"function","name":"earned","inputs":[{"name":"user_","type":"address","internalType":"address"}],"outputs":[{"name":"","type":"uint256","internalType":"uint256"}],"stateMutability":"view"},{"type":"function","name":"getRewardsData","inputs":[],"outputs":[{"name":"rewardRate","type":"uint256","internalType":"uint256"},{"name":"circulatingSupply","type":"uint256","internalType":"uint256"},{"name":"pendingAllocation","type":"uint256","internalType":"uint256"},{"name":"recicledSupply","type":"uint256","internalType":"uint256"},{"name":"durationLeft","type":"int256","internalType":"int256"}],"stateMutability":"view"},{"type":"function","name":"increaseAllowance","inputs":[{"name":"spender","type":"address","internalType":"address"},{"name":"addedValue","type":"uint256","internalType":"uint256"}],"outputs":[{"name":"","type":"bool","internalType":"bool"}],"stateMutability":"nonpayable"},{"type":"function","name":"initialize","inputs":[{"name":"underlying_","type":"address","internalType":"address"},{"name":"diamond_","type":"address","internalType":"address"},{"name":"name_","type":"string","internalType":"string"},{"name":"symbol_","type":"string","internalType":"string"}],"outputs":[],"stateMutability":"nonpayable"},{"type":"function","name":"lastTimeRewardApplicable","inputs":[],"outputs":[{"name":"","type":"uint256","internalType":"uint256"}],"stateMutability":"view"},{"type":"function","name":"mint","inputs":[{"name":"data_","type":"bytes","internalType":"bytes"},{"name":"owner_","type":"address","internalType":"address"}],"outputs":[{"name":"","type":"uint256","internalType":"uint256"}],"stateMutability":"nonpayable"},{"type":"function","name":"name","inputs":[],"outputs":[{"name":"","type":"string","internalType":"string"}],"stateMutability":"view"},{"type":"function","name":"nonces","inputs":[{"name":"owner","type":"address","internalType":"address"}],"outputs":[{"name":"","type":"uint256","internalType":"uint256"}],"stateMutability":"view"},{"type":"function","name":"notifyRewardAmount","inputs":[{"name":"amount_","type":"uint256","internalType":"uint256"}],"outputs":[],"stateMutability":"nonpayable"},{"type":"function","name":"permit","inputs":[{"name":"owner","type":"address","internalType":"address"},{"name":"spender","type":"address","internalType":"address"},{"name":"value","type":"uint256","internalType":"uint256"},{"name":"deadline","type":"uint256","internalType":"uint256"},{"name":"v","type":"uint8","internalType":"uint8"},{"name":"r","type":"bytes32","internalType":"bytes32"},{"name":"s_","type":"bytes32","internalType":"bytes32"}],"outputs":[],"stateMutability":"nonpayable"},{"type":"function","name":"redeem","inputs":[{"name":"data_","type":"bytes","internalType":"bytes"},{"name":"owner_","type":"address","internalType":"address"}],"outputs":[{"name":"","type":"uint256","internalType":"uint256"}],"stateMutability":"nonpayable"},{"type":"function","name":"rewardPerToken","inputs":[],"outputs":[{"name":"","type":"uint256","internalType":"uint256"}],"stateMutability":"view"},{"type":"function","name":"setRewardsDuration","inputs":[{"name":"duration_","type":"uint256","internalType":"uint256"}],"outputs":[],"stateMutability":"nonpayable"},{"type":"function","name":"sharesOf","inputs":[{"name":"account_","type":"address","internalType":"address"}],"outputs":[{"name":"","type":"uint256","internalType":"uint256"}],"stateMutability":"view"},{"type":"function","name":"symbol","inputs":[],"outputs":[{"name":"","type":"string","internalType":"string"}],"stateMutability":"view"},{"type":"function","name":"totalAssets","inputs":[],"outputs":[{"name":"","type":"uint256","internalType":"uint256"}],"stateMutability":"view"},{"type":"function","name":"totalShares","inputs":[],"outputs":[{"name":"","type":"uint256","internalType":"uint256"}],"stateMutability":"view"},{"type":"function","name":"totalSupply","inputs":[],"outputs":[{"name":"","type":"uint256","internalType":"uint256"}],"stateMutability":"view"},{"type":"function","name":"transfer","inputs":[{"name":"to","type":"address","internalType":"address"},{"name":"amount","type":"uint256","internalType":"uint256"}],"outputs":[{"name":"","type":"bool","internalType":"bool"}],"stateMutability":"nonpayable"},{"type":"function","name":"transferFrom","inputs":[{"name":"from","type":"address","internalType":"address"},{"name":"to","type":"address","internalType":"address"},{"name":"amount","type":"uint256","internalType":"uint256"}],"outputs":[{"name":"","type":"bool","internalType":"bool"}],"stateMutability":"nonpayable"},{"type":"function","name":"transferShares","inputs":[{"name":"to_","type":"address","internalType":"address"},{"name":"amount_","type":"uint256","internalType":"uint256"}],"outputs":[{"name":"","type":"uint256","internalType":"uint256"}],"stateMutability":"nonpayable"},{"type":"function","name":"transferSharesFrom","inputs":[{"name":"from_","type":"address","internalType":"address"},{"name":"to_","type":"address","internalType":"address"},{"name":"amount_","type":"uint256","internalType":"uint256"}],"outputs":[{"name":"","type":"uint256","internalType":"uint256"}],"stateMutability":"nonpayable"},{"type":"event","name":"Approval","inputs":[{"name":"owner","type":"address","indexed":true,"internalType":"address"},{"name":"spender","type":"address","indexed":true,"internalType":"address"},{"name":"value","type":"uint256","indexed":false,"internalType":"uint256"}],"anonymous":false},{"type":"event","name":"Initialized","inputs":[{"name":"version","type":"uint8","indexed":false,"internalType":"uint8"}],"anonymous":false},{"type":"event","name":"OzTokenMinted","inputs":[{"name":"owner","type":"address","indexed":false,"internalType":"address"},{"name":"shares","type":"uint256","indexed":false,"internalType":"uint256"},{"name":"assets","type":"uint256","indexed":false,"internalType":"uint256"}],"anonymous":false},{"type":"event","name":"OzTokenRedeemed","inputs":[{"name":"owner","type":"address","indexed":false,"internalType":"address"},{"name":"ozAmountIn","type":"uint256","indexed":false,"internalType":"uint256"},{"name":"shares","type":"uint256","indexed":false,"internalType":"uint256"},{"name":"assets","type":"uint256","indexed":false,"internalType":"uint256"}],"anonymous":false},{"type":"event","name":"Transfer","inputs":[{"name":"from","type":"address","indexed":true,"internalType":"address"},{"name":"to","type":"address","indexed":true,"internalType":"address"},{"name":"value","type":"uint256","indexed":false,"internalType":"uint256"}],"anonymous":false},{"type":"event","name":"TransferShares","inputs":[{"name":"from","type":"address","indexed":false,"internalType":"address"},{"name":"to","type":"address","indexed":false,"internalType":"address"},{"name":"sharesAmoutn","type":"uint256","indexed":false,"internalType":"uint256"}],"anonymous":false},{"type":"error","name":"OZError03","inputs":[]},{"type":"error","name":"OZError04","inputs":[{"name":"from","type":"address","internalType":"address"},{"name":"to","type":"address","internalType":"address"}]},{"type":"error","name":"OZError05","inputs":[{"name":"amount","type":"uint256","internalType":"uint256"}]},{"type":"error","name":"OZError06","inputs":[{"name":"sender","type":"address","internalType":"address"},{"name":"accountShares","type":"uint256","internalType":"uint256"},{"name":"shares","type":"uint256","internalType":"uint256"}]},{"type":"error","name":"OZError07","inputs":[{"name":"from","type":"address","internalType":"address"},{"name":"fromShares","type":"uint256","internalType":"uint256"},{"name":"shares","type":"uint256","internalType":"uint256"}]},{"type":"error","name":"OZError08","inputs":[{"name":"deadline","type":"uint256","internalType":"uint256"},{"name":"blockTimestamp","type":"uint256","internalType":"uint256"}]},{"type":"error","name":"OZError09","inputs":[{"name":"owner","type":"address","internalType":"address"},{"name":"spender","type":"address","internalType":"address"}]},{"type":"error","name":"OZError22","inputs":[{"name":"reason","type":"string","internalType":"string"}]},{"type":"error","name":"OZError35","inputs":[{"name":"ozAmountIn","type":"uint256","internalType":"uint256"}]},{"type":"error","name":"OZError37","inputs":[]},{"type":"error","name":"OZError38","inputs":[]},{"type":"error","name":"OZError39","inputs":[{"name":"data","type":"bytes","internalType":"bytes"}]},{"type":"error","name":"OZError42","inputs":[]}],"bytecode":{"object":"0x608060405234801562000010575f80fd5b506200001b62000021565b620000e3565b603154610100900460ff16156200008e5760405162461bcd60e51b815260206004820152602760248201527f496e697469616c697a61626c653a20636f6e747261637420697320696e697469604482015266616c697a696e6760c81b606482015260840160405180910390fd5b60315460ff9081161015620000e1576031805460ff191660ff9081179091556040519081527f7f26b83ff96e1f2b6a682f133852f6798a09c465da95921460cefb38474024989060200160405180910390a15b565b61283c80620000f15f395ff3fe608060405234801561000f575f80fd5b5060043610610207575f3560e01c80636d7804591161011f578063a9059cbb116100a9578063cd3daf9d11610079578063cd3daf9d146103b0578063d295fa9a14610413578063d505accf14610426578063dd62ed3e14610439578063f5eb42dc1461044c575f80fd5b8063a9059cbb146103ed578063b88a802f146103b0578063bc93f1cf14610400578063cc1a378f14610327575f80fd5b806380faa57d116100ef57806380faa57d146103b05780638fcb4e5b146103b657806395d89b41146103c9578063a01c8774146103d1578063a457c2d7146103da575f80fd5b80636d7804591461034b57806370a082311461035e5780637d098e64146103715780637ecebe001461039d575f80fd5b80632016a0d2116101a057806338d52e0f1161017057806338d52e0f146102f1578063395093511461030c5780633a98ef391461031f5780633c6b16ab1461032757806369e41c6214610338575f80fd5b80632016a0d2146102b257806323b872dd146102c7578063313ce567146102da5780633644e515146102e9575f80fd5b80630ba097d6116101db5780630ba097d6146102715780630cae37f11461028457806318160ddd146102975780631dc7f5211461029f575f80fd5b80628cc2621461020b57806301e1d1141461023157806306fdde0314610239578063095ea7b31461024e575b5f80fd5b61021e610219366004611e03565b505f90565b6040519081526020015b60405180910390f35b61021e610474565b610241610488565b6040516102289190611e61565b61026161025c366004611e73565b610518565b6040519015158152602001610228565b61021e61027f366004611f39565b61052e565b61021e610292366004611f39565b610906565b61021e610bc0565b61021e6102ad366004611f9b565b610c22565b6102c56102c0366004611fd0565b610caf565b005b6102616102d5366004612054565b610eab565b60405160128152602001610228565b61021e610ecc565b6067546040516001600160a01b039091168152602001610228565b61026161031a366004611e73565b610ed5565b61021e610ef5565b6102c5610335366004611f9b565b50565b61021e610346366004611f9b565b610f05565b61021e610359366004612054565b610f21565b61021e61036c366004611e03565b610f5c565b604080515f8082526020820181905291810182905260608101829052608081019190915260a001610228565b61021e6103ab366004611e03565b610f87565b5f61021e565b61021e6103c4366004611e73565b610fa4565b610241610fd3565b61021e606e5481565b6102616103e8366004611e73565b610fe2565b6102616103fb366004611e73565b61101e565b61021e61040e366004612092565b61102a565b61021e610421366004612092565b611077565b6102c56104343660046120c3565b611123565b61021e61044736600461212f565b611242565b61021e61045a366004611e03565b6001600160a01b03165f9081526069602052604090205490565b6068545f90610483908261126c565b905090565b6060606c80546104979061215b565b80601f01602080910402602001604051908101604052809291908181526020018280546104c39061215b565b801561050e5780601f106104e55761010080835404028352916020019161050e565b820191905f5260205f20905b8154815290600101906020018083116104f157829003601f168201915b5050505050905090565b5f6105243384846112ae565b5060015b92915050565b5f7fd979d933a329cda0d1d95e3d7a8aaccfc305f1200c53a87f37e6841bb793452c805c156105705760405163b955425560e01b815260048101604052600481fd5b6001815d60665483906001600160a01b031680156105e2576040516241fec360e31b81526001600160a01b03838116600483015282169063020ff618906024015f604051808303815f87803b1580156105c7575f80fd5b505af11580156105d9573d5f803e3d5ffd5b50505050610623565b5f601a555f6018556001600160a01b03821615610623576001600160a01b0382165f908152601e60209081526040808320839055601a54601d909252909120555b855161010014610651578560405163041979eb60e41b81526004016106489190611e61565b60405180910390fd5b5f8087806020019051810190610667919061220b565b815191935091506001600160a01b038816158061068b57506001600160a01b038216155b156106a957604051632534b66960e21b815260040160405180910390fd5b6729a2241af62c00008110156106d557604051631a98558360e21b815260048101829052602401610648565b6001600160a01b0388165f90815260696020526040812054906106f8838b611077565b90508082101561072157898282604051637ac073bf60e01b8152600401610648939291906122ab565b5f81905060665f9054906101000a90046001600160a01b03166001600160a01b031663a1b86b388c8e6040518363ffffffff1660e01b81526004016107679291906122cc565b60408051808303815f875af19250505080156107a0575060408051601f3d908101601f1916820190925261079d918101906122ef565b60015b6107f0576107ac612311565b806308c379a0036107e657506107c061232a565b806107cb57506107e8565b80604051631bc63b8160e01b81526004016106489190611e61565b505b3d5f803e3d5ffd5b6107fa825f61135c565b6066546001600160a01b03165f90815260696020526040902054945061082183865f6113c7565b5f60695f60665f9054906101000a90046001600160a01b03166001600160a01b03166001600160a01b031681526020019081526020015f208190555082606f5f8f6001600160a01b03166001600160a01b031681526020019081526020015f205f82825403925050819055507f4181bb2dd7cb8bbe372dc317652857a2e512544faeba7c902b5e80107831732b8d8786866040516108e394939291906001600160a01b0394909416845260208401929092526040830152606082015260800190565b60405180910390a19a506108fa9650505050505050565b50505f815d5092915050565b5f7fd979d933a329cda0d1d95e3d7a8aaccfc305f1200c53a87f37e6841bb793452c805c156109485760405163b955425560e01b815260048101604052600481fd5b6001815d60665483906001600160a01b031680156109ba576040516241fec360e31b81526001600160a01b03838116600483015282169063020ff618906024015f604051808303815f87803b15801561099f575f80fd5b505af11580156109b1573d5f803e3d5ffd5b505050506109fb565b5f601a555f6018556001600160a01b038216156109fb576001600160a01b0382165f908152601e60209081526040808320839055601a54601d909252909120555b855160e014610a1f578560405163041979eb60e41b81526004016106489190611e61565b5f8087806020019051810190610a3591906123b3565b815191935091505f03610a5b5760405163e5da5c7360e01b815260040160405180910390fd5b6001600160a01b0387161580610a7857506001600160a01b038116155b15610a9657604051632534b66960e21b815260040160405180910390fd5b606e5482515f91610aa79190611423565b6066549091506001600160a01b0316639ea04fe4610acd6067546001600160a01b031690565b8a866040518463ffffffff1660e01b8152600401610aed93929190612447565b6020604051808303815f875af1925050508015610b27575060408051601f3d908101601f19168201909252610b24918101906124c1565b60015b610b33576107ac612311565b610b3e81600161135c565b81610b4b818060016113c7565b6001600160a01b0384165f908152606960209081526040808320805485019055606f90915290819020805485019055517fcb7696223ea9f009e8eb0ecd9af1e430306b6c7c719e906d4a4af52bcba6353a90610bac908c90849087906122ab565b60405180910390a197506108fa9350505050565b5f610bc9610ef5565b1561021957610483610c1d610bf3610bdf610474565b610bee9064e8d4a510006124ec565b61142e565b610c05610bfe610ef5565b6001611445565b610c16610c10610ef5565b5f611445565b91906114f6565b61160c565b5f610c2b610ef5565b60665460405163a4fc284b60e01b81526001600160a01b039091169063a4fc284b90610c5c90600190600401612533565b602060405180830381865afa158015610c77573d5f803e3d5ffd5b505050506040513d601f19601f82011682018060405250810190610c9b91906124c1565b610ca590846124ec565b610528919061255a565b603154610100900460ff1615808015610ccf5750603154600160ff909116105b80610ce95750303b158015610ce9575060315460ff166001145b610d4c5760405162461bcd60e51b815260206004820152602e60248201527f496e697469616c697a61626c653a20636f6e747261637420697320616c72656160448201526d191e481a5b9a5d1a585b1a5e995960921b6064820152608401610648565b6031805460ff191660011790558015610d6f576031805461ff0019166101001790555b606c610d7b84826125b6565b50606d610d8883826125b6565b50606680546001600160a01b038087166001600160a01b03199283161790925560678054928816929091169190911790556040805180820190915260018152603160f81b6020820152610ddc908490611623565b846001600160a01b031663313ce5676040518163ffffffff1660e01b8152600401602060405180830381865afa158015610e18573d5f803e3d5ffd5b505050506040513d601f19601f82011682018060405250810190610e3c9190612672565b60ff16601214610e4d576001610e54565b64e8d4a510005b64ffffffffff16606e558015610ea4576031805461ff0019169055604051600181527f7f26b83ff96e1f2b6a682f133852f6798a09c465da95921460cefb38474024989060200160405180910390a15b5050505050565b5f610eb7843384611658565b610ec28484846116a4565b5060019392505050565b5f6104836117ac565b5f610524338484610ee63388611242565b610ef0919061268d565b6112ae565b6068545f9061048390600161126c565b5f610528610f11610ef5565b610f19610bc0565b849190611825565b5f80610f30610c1d848761102a565b9050610f3d853383611658565b610f48858585611848565b610f5485858386611930565b949350505050565b5f610528610c1d610f81846001600160a01b03165f9081526069602052604090205490565b8461102a565b6001600160a01b0381165f908152606a6020526040812054610528565b5f80610fb3610c1d843361102a565b9050610fc0338585611848565b610fcc33858386611930565b9392505050565b6060606d80546104979061215b565b5f80610fee3385611242565b905082811015611011576040516361ceb1d360e01b815260040160405180910390fd5b610ec233858584036112ae565b5f6105243384846116a4565b5f80611036845f611445565b9050801561106e5761106961104a846119ce565b6110616b033b2e3c9fd0803ce80000006002611a35565b8391906114f6565b610f54565b5f949350505050565b5f8061108b6066546001600160a01b031690565b6001600160a01b0316633154b6e25f806040518363ffffffff1660e01b81526004016110b89291906126a0565b602060405180830381865afa1580156110d3573d5f803e3d5ffd5b505050506040513d601f19601f820116820180604052508101906110f791906124c1565b9050610f54611105846119ce565b61111d611113610bee610ef5565b84610c168961142e565b90611a40565b8342111561114d5760405163184f1e0160e11b815260048101859052426024820152604401610648565b5f7f6e71edae12b1b97f4d1f60370fef10105fa2faae0126114a169c64845d6126c988888861117b8c611a7b565b6040805160208101969096526001600160a01b0394851690860152929091166060840152608083015260a082015260c0810186905260e0016040516020818303038152906040528051906020012090505f6111d582611aa2565b90505f6111e482878787611aee565b9050896001600160a01b0316816001600160a01b03161461122b57604051635091bef560e01b81526001600160a01b0380831660048301528b166024820152604401610648565b6112368a8a8a6112ae565b50505050505050505050565b6001600160a01b039182165f908152606b6020908152604080832093909416825291909152205490565b5f6fffffffffffffffffffffffffffffffff8183600181111561129157611291612503565b1461129e57838116610f54565b608084901c811691505092915050565b6001600160a01b03831615806112cb57506001600160a01b038216155b156112fc57604051637db368a160e01b81526001600160a01b03808516600483015283166024820152604401610648565b6001600160a01b038381165f818152606b602090815260408083209487168084529482529182902085905590518481527f8c5be1e5ebec7d5bd14f71427d1e84f3dd0314c0f7b2291e5b200ac8c7c3b925910160405180910390a3505050565b60665460405163b0ff97b560e01b81523060048201526024810184905282151560448201526001600160a01b039091169063b0ff97b5906064015f604051808303815f87803b1580156113ad575f80fd5b505af11580156113bf573d5f803e3d5ffd5b505050505050565b6068545f906113d6908261126c565b90505f6113ef600160685461126c90919063ffffffff16565b905082156114025790840190830161140b565b90849003908390035b61141981608084901b61268d565b6068555050505050565b5f610fcc828461255a565b5f610528826b033b2e3c9fd0803ce80000006124ec565b5f806114c861145c6066546001600160a01b031690565b6001600160a01b0316633154b6e25f866040518363ffffffff1660e01b81526004016114899291906126a0565b602060405180830381865afa1580156114a4573d5f803e3d5ffd5b505050506040513d601f19601f82011682018060405250810190610bee91906124c1565b9050610f54816114d6610ef5565b156114eb576114e6610bee610ef5565b6114ed565b825b610c168761142e565b604051633f9b43b760e11b815260048101849052602481018390525f908490849084908490819073__$a7d7f0af96ad7248e2170a1364c3372171$__90637f36876e906044016040805180830381865af4158015611556573d5f803e3d5ffd5b505050506040513d601f19601f8201168201806040525081019061157a91906122ef565b6040516399ed504f60e01b8152600481018390526024810182905260448101869052919350915073__$a7d7f0af96ad7248e2170a1364c3372171$__906399ed504f90606401602060405180830381865af41580156115db573d5f803e3d5ffd5b505050506040513d601f19601f820116820180604052508101906115ff91906124c1565b9998505050505050505050565b5f6105286b033b2e3c9fd0803ce80000008361255a565b603154610100900460ff1661164a5760405162461bcd60e51b8152600401610648906126bd565b6116548282611b14565b5050565b5f6116638484611242565b90505f19811461169e5781811015611691576040516306052b7f60e01b815260048101839052602401610648565b61169e84848484036112ae565b50505050565b6001600160a01b03831615806116c157506001600160a01b038216155b156116f257604051637db368a160e01b81526001600160a01b03808516600483015283166024820152604401610648565b5f6116fc82610f05565b6001600160a01b0385165f908152606960205260409020549091508181101561173e578481836040516315c29bad60e31b8152600401610648939291906122ab565b6001600160a01b038086165f8181526069602052604080822086860390559287168082529083902080548601905591517fddf252ad1be2c89b69c2b068fc378daa952ba7f163c4a11628f55a4df523b3ef9061179d9087815260200190565b60405180910390a35050505050565b5f6104837f8b73c3c69bb8fe3d512ecc4cf759cc79239f7b179b0ffacaa9a75d522b39400f6117da60325490565b6033546040805160208101859052908101839052606081018290524660808201523060a08201525f9060c0016040516020818303038152906040528051906020012090509392505050565b5f825f190484118302158202611839575f80fd5b50910281810615159190040190565b6001600160a01b038316158061186557506001600160a01b038216155b1561189657604051637db368a160e01b81526001600160a01b03808516600483015283166024820152604401610648565b306001600160a01b038316036118bf57604051636d3bb4b960e11b815260040160405180910390fd5b6001600160a01b0383165f90815260696020526040902054808211156118fe578381836040516315c29bad60e31b8152600401610648939291906122ab565b6001600160a01b039384165f908152606960205260408082209284900390925592909316825291902080549091019055565b826001600160a01b0316846001600160a01b03167fddf252ad1be2c89b69c2b068fc378daa952ba7f163c4a11628f55a4df523b3ef8460405161197591815260200190565b60405180910390a3604080516001600160a01b038087168252851660208201529081018290527f9d9c909296d9c674451c0c24f02cb64981eb3b727f99865939192f880a755dcb9060600160405180910390a150505050565b5f6105286119e96b033b2e3c9fd0803ce80000006002611a35565b611a0a610bfe856001600160a01b03165f9081526069602052604090205490565b6001600160a01b0385165f90815260696020526040902054610c1690610bee9064e8d4a510006124ec565b5f610fcc82846127e8565b5f8282611a4d81836127f3565b15611a59576001611a5b565b5f5b60ff16611a68828461255a565b611a72919061268d565b95945050505050565b6001600160a01b0381165f908152606a602052604090208054600181018255905b50919050565b5f610528611aae6117ac565b8360405161190160f01b602082015260228101839052604281018290525f9060620160405160208183030381529060405280519060200120905092915050565b5f805f611afd87878787611b55565b91509150611b0a81611c3a565b5095945050505050565b603154610100900460ff16611b3b5760405162461bcd60e51b8152600401610648906126bd565b815160209283012081519190920120603291909155603355565b5f807f7fffffffffffffffffffffffffffffff5d576e7357a4501ddfe92f46681b20a0831115611b8a57505f90506003611c31565b8460ff16601b14158015611ba257508460ff16601c14155b15611bb257505f90506004611c31565b604080515f8082526020820180845289905260ff881692820192909252606081018690526080810185905260019060a0016020604051602081039080840390855afa158015611c03573d5f803e3d5ffd5b5050604051601f1901519150506001600160a01b038116611c2b575f60019250925050611c31565b91505f90505b94509492505050565b5f816004811115611c4d57611c4d612503565b03611c555750565b6001816004811115611c6957611c69612503565b03611cb65760405162461bcd60e51b815260206004820152601860248201527f45434453413a20696e76616c6964207369676e617475726500000000000000006044820152606401610648565b6002816004811115611cca57611cca612503565b03611d175760405162461bcd60e51b815260206004820152601f60248201527f45434453413a20696e76616c6964207369676e6174757265206c656e677468006044820152606401610648565b6003816004811115611d2b57611d2b612503565b03611d835760405162461bcd60e51b815260206004820152602260248201527f45434453413a20696e76616c6964207369676e6174757265202773272076616c604482015261756560f01b6064820152608401610648565b6004816004811115611d9757611d97612503565b036103355760405162461bcd60e51b815260206004820152602260248201527f45434453413a20696e76616c6964207369676e6174757265202776272076616c604482015261756560f01b6064820152608401610648565b6001600160a01b0381168114610335575f80fd5b5f60208284031215611e13575f80fd5b8135610fcc81611def565b5f81518084525f5b81811015611e4257602081850181015186830182015201611e26565b505f602082860101526020601f19601f83011685010191505092915050565b602081525f610fcc6020830184611e1e565b5f8060408385031215611e84575f80fd5b8235611e8f81611def565b946020939093013593505050565b634e487b7160e01b5f52604160045260245ffd5b601f8201601f1916810167ffffffffffffffff81118282101715611ed757611ed7611e9d565b6040525050565b5f67ffffffffffffffff831115611ef757611ef7611e9d565b604051611f0e601f8501601f191660200182611eb1565b809150838152848484011115611f22575f80fd5b838360208301375f60208583010152509392505050565b5f8060408385031215611f4a575f80fd5b823567ffffffffffffffff811115611f60575f80fd5b8301601f81018513611f70575f80fd5b611f7f85823560208401611ede565b9250506020830135611f9081611def565b809150509250929050565b5f60208284031215611fab575f80fd5b5035919050565b5f82601f830112611fc1575f80fd5b610fcc83833560208501611ede565b5f805f8060808587031215611fe3575f80fd5b8435611fee81611def565b93506020850135611ffe81611def565b9250604085013567ffffffffffffffff8082111561201a575f80fd5b61202688838901611fb2565b9350606087013591508082111561203b575f80fd5b5061204887828801611fb2565b91505092959194509250565b5f805f60608486031215612066575f80fd5b833561207181611def565b9250602084013561208181611def565b929592945050506040919091013590565b5f80604083850312156120a3575f80fd5b823591506020830135611f9081611def565b60ff81168114610335575f80fd5b5f805f805f805f60e0888a0312156120d9575f80fd5b87356120e481611def565b965060208801356120f481611def565b955060408801359450606088013593506080880135612112816120b5565b9699959850939692959460a0840135945060c09093013592915050565b5f8060408385031215612140575f80fd5b823561214b81611def565b91506020830135611f9081611def565b600181811c9082168061216f57607f821691505b602082108103611a9c57634e487b7160e01b5f52602260045260245ffd5b5f82601f83011261219c575f80fd5b8151602067ffffffffffffffff8211156121b8576121b8611e9d565b8160051b6040516121cb83830182611eb1565b928352848101820192828101878511156121e3575f80fd5b83870192505b8483101561220057825181529183019183016121e9565b509695505050505050565b5f806040838503121561221c575f80fd5b825167ffffffffffffffff80821115612233575f80fd5b9084019060608287031215612246575f80fd5b60405160608101818110838211171561226157612261611e9d565b80604052508251815260208301516020820152604083015182811115612285575f80fd5b6122918882860161218d565b6040830152508094505050506020830151611f9081611def565b6001600160a01b039390931683526020830191909152604082015260600190565b6001600160a01b03831681526040602082018190525f90610f5490830184611e1e565b5f8060408385031215612300575f80fd5b505080516020909101519092909150565b5f60033d11156123275760045f803e505f5160e01c5b90565b5f60443d10156123375790565b6040516003193d81016004833e81513d67ffffffffffffffff816024840111818411171561236757505050505090565b828501915081518181111561237f5750505050505090565b843d87010160208285010111156123995750505050505090565b6123a860208286010187611eb1565b509095945050505050565b5f80604083850312156123c4575f80fd5b825167ffffffffffffffff808211156123db575f80fd5b90840190604082870312156123ee575f80fd5b60405160408101818110838211171561240957612409611e9d565b60405282518152602083015182811115612421575f80fd5b61242d8882860161218d565b6020830152508094505050506020830151611f9081611def565b5f60018060a01b038086168352602081861660208501526060604085015260a0840191508451606085015260208501516040608086015282815180855260c0870191506020830194505f92505b808310156124b45784518252938301936001929092019190830190612494565b5098975050505050505050565b5f602082840312156124d1575f80fd5b5051919050565b634e487b7160e01b5f52601160045260245ffd5b8082028115828204841417610528576105286124d8565b634e487b7160e01b5f52602160045260245ffd5b6002811061033557634e487b7160e01b5f52602160045260245ffd5b6020810161254083612517565b91905290565b634e487b7160e01b5f52601260045260245ffd5b5f8261256857612568612546565b500490565b601f8211156125b157805f5260205f20601f840160051c810160208510156125925750805b601f840160051c820191505b81811015610ea4575f815560010161259e565b505050565b815167ffffffffffffffff8111156125d0576125d0611e9d565b6125e4816125de845461215b565b8461256d565b602080601f831160018114612617575f84156126005750858301515b5f19600386901b1c1916600185901b1785556113bf565b5f85815260208120601f198616915b8281101561264557888601518255948401946001909101908401612626565b508582101561266257878501515f19600388901b60f8161c191681555b5050505050600190811b01905550565b5f60208284031215612682575f80fd5b8151610fcc816120b5565b80820180821115610528576105286124d8565b828152604081016126b083612517565b8260208301529392505050565b6020808252602b908201527f496e697469616c697a61626c653a20636f6e7472616374206973206e6f74206960408201526a6e697469616c697a696e6760a81b606082015260800190565b600181815b8085111561274257815f1904821115612728576127286124d8565b8085161561273557918102915b93841c939080029061270d565b509250929050565b5f8261275857506001610528565b8161276457505f610528565b816001811461277a5760028114612784576127a0565b6001915050610528565b60ff841115612795576127956124d8565b50506001821b610528565b5060208310610133831016604e8410600b84101617156127c3575081810a610528565b6127cd8383612708565b805f19048211156127e0576127e06124d8565b029392505050565b5f610fcc838361274a565b5f8261280157612801612546565b50069056fea264697066735822122015f5b6be26a3dd7bf53ed13b9ea2dcc3a2ccb1579cad1cf0daa19a08114504ad64736f6c63430008180033","linkReferences":{"contracts/libraries/Uint512.sol":{"Uint512":[{"start":5648,"length":20},{"start":5780,"length":20}]}}},"methodIdentifiers":{"DOMAIN_SEPARATOR()":"3644e515","FORMAT_DECIMALS()":"a01c8774","allowance(address,address)":"dd62ed3e","approve(address,uint256)":"095ea7b3","asset()":"38d52e0f","balanceOf(address)":"70a08231","claimReward()":"b88a802f","convertToOzTokens(uint256,address)":"bc93f1cf","convertToShares(uint256,address)":"d295fa9a","convertToSharesFromOzBalance(uint256)":"69e41c62","convertToUnderlying(uint256)":"1dc7f521","decimals()":"313ce567","decreaseAllowance(address,uint256)":"a457c2d7","earned(address)":"008cc262","getRewardsData()":"7d098e64","increaseAllowance(address,uint256)":"39509351","initialize(address,address,string,string)":"2016a0d2","lastTimeRewardApplicable()":"80faa57d","mint(bytes,address)":"0cae37f1","name()":"06fdde03","nonces(address)":"7ecebe00","notifyRewardAmount(uint256)":"3c6b16ab","permit(address,address,uint256,uint256,uint8,bytes32,bytes32)":"d505accf","redeem(bytes,address)":"0ba097d6","rewardPerToken()":"cd3daf9d","setRewardsDuration(uint256)":"cc1a378f","sharesOf(address)":"f5eb42dc","symbol()":"95d89b41","totalAssets()":"01e1d114","totalShares()":"3a98ef39","totalSupply()":"18160ddd","transfer(address,uint256)":"a9059cbb","transferFrom(address,address,uint256)":"23b872dd","transferShares(address,uint256)":"8fcb4e5b","transferSharesFrom(address,address,uint256)":"6d780459"},"id":44}