{"abi":[{"type":"constructor","inputs":[],"stateMutability":"nonpayable"},{"type":"function","name":"DOMAIN_SEPARATOR","inputs":[],"outputs":[{"name":"","type":"bytes32","internalType":"bytes32"}],"stateMutability":"view"},{"type":"function","name":"FORMAT_DECIMALS","inputs":[],"outputs":[{"name":"","type":"uint256","internalType":"uint256"}],"stateMutability":"view"},{"type":"function","name":"allowance","inputs":[{"name":"owner","type":"address","internalType":"address"},{"name":"spender","type":"address","internalType":"address"}],"outputs":[{"name":"","type":"uint256","internalType":"uint256"}],"stateMutability":"view"},{"type":"function","name":"approve","inputs":[{"name":"spender","type":"address","internalType":"address"},{"name":"amount","type":"uint256","internalType":"uint256"}],"outputs":[{"name":"","type":"bool","internalType":"bool"}],"stateMutability":"nonpayable"},{"type":"function","name":"asset","inputs":[],"outputs":[{"name":"","type":"address","internalType":"address"}],"stateMutability":"view"},{"type":"function","name":"balanceOf","inputs":[{"name":"account_","type":"address","internalType":"address"}],"outputs":[{"name":"","type":"uint256","internalType":"uint256"}],"stateMutability":"view"},{"type":"function","name":"balanceOf2","inputs":[{"name":"account_","type":"address","internalType":"address"}],"outputs":[{"name":"","type":"uint256","internalType":"uint256"}],"stateMutability":"view"},{"type":"function","name":"balanceOf3","inputs":[{"name":"account_","type":"address","internalType":"address"}],"outputs":[{"name":"","type":"uint256","internalType":"uint256"}],"stateMutability":"view"},{"type":"function","name":"claimReward","inputs":[],"outputs":[{"name":"","type":"uint256","internalType":"uint256"}],"stateMutability":"nonpayable"},{"type":"function","name":"convertToOzTokens","inputs":[{"name":"shares_","type":"uint256","internalType":"uint256"},{"name":"account_","type":"address","internalType":"address"}],"outputs":[{"name":"","type":"uint256","internalType":"UintRay"}],"stateMutability":"view"},{"type":"function","name":"convertToShares","inputs":[{"name":"assets_","type":"uint256","internalType":"uint256"},{"name":"account_","type":"address","internalType":"address"}],"outputs":[{"name":"","type":"uint256","internalType":"uint256"}],"stateMutability":"view"},{"type":"function","name":"convertToSharesFromOzBalance","inputs":[{"name":"ozBalance_","type":"uint256","internalType":"uint256"}],"outputs":[{"name":"","type":"uint256","internalType":"uint256"}],"stateMutability":"view"},{"type":"function","name":"convertToUnderlying","inputs":[{"name":"shares_","type":"uint256","internalType":"uint256"}],"outputs":[{"name":"","type":"uint256","internalType":"uint256"}],"stateMutability":"view"},{"type":"function","name":"decimals","inputs":[],"outputs":[{"name":"","type":"uint8","internalType":"uint8"}],"stateMutability":"pure"},{"type":"function","name":"decreaseAllowance","inputs":[{"name":"spender","type":"address","internalType":"address"},{"name":"subtractedValue","type":"uint256","internalType":"uint256"}],"outputs":[{"name":"","type":"bool","internalType":"bool"}],"stateMutability":"nonpayable"},{"type":"function","name":"earned","inputs":[{"name":"user_","type":"address","internalType":"address"}],"outputs":[{"name":"","type":"uint256","internalType":"uint256"}],"stateMutability":"view"},{"type":"function","name":"getRewardsData","inputs":[],"outputs":[{"name":"rewardRate","type":"uint256","internalType":"uint256"},{"name":"circulatingSupply","type":"uint256","internalType":"uint256"},{"name":"pendingAllocation","type":"uint256","internalType":"uint256"},{"name":"recicledSupply","type":"uint256","internalType":"uint256"},{"name":"durationLeft","type":"int256","internalType":"int256"}],"stateMutability":"view"},{"type":"function","name":"increaseAllowance","inputs":[{"name":"spender","type":"address","internalType":"address"},{"name":"addedValue","type":"uint256","internalType":"uint256"}],"outputs":[{"name":"","type":"bool","internalType":"bool"}],"stateMutability":"nonpayable"},{"type":"function","name":"initialize","inputs":[{"name":"underlying_","type":"address","internalType":"address"},{"name":"diamond_","type":"address","internalType":"address"},{"name":"name_","type":"string","internalType":"string"},{"name":"symbol_","type":"string","internalType":"string"}],"outputs":[],"stateMutability":"nonpayable"},{"type":"function","name":"lastTimeRewardApplicable","inputs":[],"outputs":[{"name":"","type":"uint256","internalType":"uint256"}],"stateMutability":"view"},{"type":"function","name":"mint","inputs":[{"name":"data_","type":"bytes","internalType":"bytes"},{"name":"owner_","type":"address","internalType":"address"}],"outputs":[{"name":"","type":"uint256","internalType":"uint256"}],"stateMutability":"payable"},{"type":"function","name":"mint2","inputs":[{"name":"data_","type":"bytes","internalType":"bytes"},{"name":"owner_","type":"address","internalType":"address"},{"name":"isETH_","type":"bool","internalType":"bool"}],"outputs":[{"name":"","type":"uint256","internalType":"uint256"}],"stateMutability":"payable"},{"type":"function","name":"name","inputs":[],"outputs":[{"name":"","type":"string","internalType":"string"}],"stateMutability":"view"},{"type":"function","name":"nonces","inputs":[{"name":"owner","type":"address","internalType":"address"}],"outputs":[{"name":"","type":"uint256","internalType":"uint256"}],"stateMutability":"view"},{"type":"function","name":"notifyRewardAmount","inputs":[{"name":"amount_","type":"uint256","internalType":"uint256"}],"outputs":[],"stateMutability":"nonpayable"},{"type":"function","name":"permit","inputs":[{"name":"owner","type":"address","internalType":"address"},{"name":"spender","type":"address","internalType":"address"},{"name":"value","type":"uint256","internalType":"uint256"},{"name":"deadline","type":"uint256","internalType":"uint256"},{"name":"v","type":"uint8","internalType":"uint8"},{"name":"r","type":"bytes32","internalType":"bytes32"},{"name":"s_","type":"bytes32","internalType":"bytes32"}],"outputs":[],"stateMutability":"nonpayable"},{"type":"function","name":"redeem","inputs":[{"name":"data_","type":"bytes","internalType":"bytes"},{"name":"owner_","type":"address","internalType":"address"}],"outputs":[{"name":"","type":"uint256","internalType":"uint256"}],"stateMutability":"nonpayable"},{"type":"function","name":"rewardPerToken","inputs":[],"outputs":[{"name":"","type":"uint256","internalType":"uint256"}],"stateMutability":"view"},{"type":"function","name":"setRewardsDuration","inputs":[{"name":"duration_","type":"uint256","internalType":"uint256"}],"outputs":[],"stateMutability":"nonpayable"},{"type":"function","name":"sharesOf","inputs":[{"name":"account_","type":"address","internalType":"address"}],"outputs":[{"name":"","type":"uint256","internalType":"uint256"}],"stateMutability":"view"},{"type":"function","name":"symbol","inputs":[],"outputs":[{"name":"","type":"string","internalType":"string"}],"stateMutability":"view"},{"type":"function","name":"totalAssets","inputs":[],"outputs":[{"name":"","type":"uint256","internalType":"uint256"}],"stateMutability":"view"},{"type":"function","name":"totalShares","inputs":[],"outputs":[{"name":"","type":"uint256","internalType":"uint256"}],"stateMutability":"view"},{"type":"function","name":"totalSupply","inputs":[],"outputs":[{"name":"","type":"uint256","internalType":"uint256"}],"stateMutability":"view"},{"type":"function","name":"transfer","inputs":[{"name":"to","type":"address","internalType":"address"},{"name":"amount","type":"uint256","internalType":"uint256"}],"outputs":[{"name":"","type":"bool","internalType":"bool"}],"stateMutability":"nonpayable"},{"type":"function","name":"transferFrom","inputs":[{"name":"from","type":"address","internalType":"address"},{"name":"to","type":"address","internalType":"address"},{"name":"amount","type":"uint256","internalType":"uint256"}],"outputs":[{"name":"","type":"bool","internalType":"bool"}],"stateMutability":"nonpayable"},{"type":"function","name":"transferShares","inputs":[{"name":"recipient_","type":"address","internalType":"address"},{"name":"shares_","type":"uint256","internalType":"uint256"}],"outputs":[{"name":"","type":"uint256","internalType":"uint256"}],"stateMutability":"nonpayable"},{"type":"function","name":"transferSharesFrom","inputs":[{"name":"sender_","type":"address","internalType":"address"},{"name":"recipient_","type":"address","internalType":"address"},{"name":"shares_","type":"uint256","internalType":"uint256"}],"outputs":[{"name":"","type":"uint256","internalType":"uint256"}],"stateMutability":"nonpayable"},{"type":"event","name":"Approval","inputs":[{"name":"owner","type":"address","indexed":true,"internalType":"address"},{"name":"spender","type":"address","indexed":true,"internalType":"address"},{"name":"value","type":"uint256","indexed":false,"internalType":"uint256"}],"anonymous":false},{"type":"event","name":"Initialized","inputs":[{"name":"version","type":"uint8","indexed":false,"internalType":"uint8"}],"anonymous":false},{"type":"event","name":"OzTokenMinted","inputs":[{"name":"owner","type":"address","indexed":false,"internalType":"address"},{"name":"shares","type":"uint256","indexed":false,"internalType":"uint256"},{"name":"assets","type":"uint256","indexed":false,"internalType":"uint256"}],"anonymous":false},{"type":"event","name":"OzTokenRedeemed","inputs":[{"name":"owner","type":"address","indexed":false,"internalType":"address"},{"name":"ozAmountIn","type":"uint256","indexed":false,"internalType":"uint256"},{"name":"shares","type":"uint256","indexed":false,"internalType":"uint256"},{"name":"assets","type":"uint256","indexed":false,"internalType":"uint256"}],"anonymous":false},{"type":"event","name":"Transfer","inputs":[{"name":"from","type":"address","indexed":true,"internalType":"address"},{"name":"to","type":"address","indexed":true,"internalType":"address"},{"name":"value","type":"uint256","indexed":false,"internalType":"uint256"}],"anonymous":false},{"type":"event","name":"TransferShares","inputs":[{"name":"from","type":"address","indexed":true,"internalType":"address"},{"name":"to","type":"address","indexed":true,"internalType":"address"},{"name":"sharesAmoutn","type":"uint256","indexed":false,"internalType":"uint256"}],"anonymous":false},{"type":"error","name":"OZError03","inputs":[]},{"type":"error","name":"OZError04","inputs":[{"name":"from","type":"address","internalType":"address"},{"name":"to","type":"address","internalType":"address"}]},{"type":"error","name":"OZError05","inputs":[{"name":"amount","type":"uint256","internalType":"uint256"}]},{"type":"error","name":"OZError06","inputs":[{"name":"sender","type":"address","internalType":"address"},{"name":"accountShares","type":"uint256","internalType":"uint256"},{"name":"shares","type":"uint256","internalType":"uint256"}]},{"type":"error","name":"OZError07","inputs":[{"name":"from","type":"address","internalType":"address"},{"name":"fromShares","type":"uint256","internalType":"uint256"},{"name":"shares","type":"uint256","internalType":"uint256"}]},{"type":"error","name":"OZError08","inputs":[{"name":"deadline","type":"uint256","internalType":"uint256"},{"name":"blockTimestamp","type":"uint256","internalType":"uint256"}]},{"type":"error","name":"OZError09","inputs":[{"name":"owner","type":"address","internalType":"address"},{"name":"spender","type":"address","internalType":"address"}]},{"type":"error","name":"OZError22","inputs":[{"name":"reason","type":"string","internalType":"string"}]},{"type":"error","name":"OZError35","inputs":[{"name":"ozAmountIn","type":"uint256","internalType":"uint256"}]},{"type":"error","name":"OZError37","inputs":[]},{"type":"error","name":"OZError38","inputs":[]},{"type":"error","name":"OZError39","inputs":[{"name":"data","type":"bytes","internalType":"bytes"}]},{"type":"error","name":"OZError42","inputs":[]},{"type":"error","name":"OZError43","inputs":[]}],"bytecode":{"object":"0x608060405234801562000010575f80fd5b506200001b62000021565b620000e3565b603c54610100900460ff16156200008e5760405162461bcd60e51b815260206004820152602760248201527f496e697469616c697a61626c653a20636f6e747261637420697320696e697469604482015266616c697a696e6760c81b606482015260840160405180910390fd5b603c5460ff9081161015620000e157603c805460ff191660ff9081179091556040519081527f7f26b83ff96e1f2b6a682f133852f6798a09c465da95921460cefb38474024989060200160405180910390a15b565b61317580620000f15f395ff3fe60806040526004361061021c575f3560e01c806370a082311161011e578063a457c2d7116100a8578063cd3daf9d1161006d578063cd3daf9d14610508578063d295fa9a146105bf578063d505accf146105de578063dd62ed3e146105fd578063f5eb42dc1461061c575f80fd5b8063a457c2d714610562578063a9059cbb14610581578063b88a802f14610508578063bc93f1cf146105a0578063cc1a378f146103e6575f80fd5b80637f5b002e116100ee5780637f5b002e146104e957806380faa57d146105085780638fcb4e5b1461051a57806395d89b4114610539578063a01c87741461054d575f80fd5b806370a08231146104605780637b0446371461047f5780637d098e64146104925780637ecebe00146104ca575f80fd5b806323b872dd116101aa5780633a98ef391161016f5780633a98ef39146103d25780633c6b16ab146103e6578063544365651461040357806369e41c62146104225780636d78045914610441575f80fd5b806323b872dd1461033e578063313ce5671461035d5780633644e5151461037857806338d52e0f1461038c57806339509351146103b3575f80fd5b80630ba097d6116101f05780630ba097d6146102b65780630cae37f1146102d557806318160ddd146102ea5780631dc7f521146102fe5780632016a0d21461031d575f80fd5b80628cc2621461022057806301e1d1141461025257806306fdde0314610266578063095ea7b314610287575b5f80fd5b34801561022b575f80fd5b5061023f61023a366004612643565b505f90565b6040519081526020015b60405180910390f35b34801561025d575f80fd5b5061023f610650565b348015610271575f80fd5b5061027a610664565b60405161024991906126a1565b348015610292575f80fd5b506102a66102a13660046126b3565b6106f4565b6040519015158152602001610249565b3480156102c1575f80fd5b5061023f6102d03660046127b4565b61070a565b61023f6102e33660046127b4565b5f92915050565b3480156102f5575f80fd5b5061023f610ae3565b348015610309575f80fd5b5061023f610318366004612803565b610b45565b348015610328575f80fd5b5061033c61033736600461281a565b610bd2565b005b348015610349575f80fd5b506102a661035836600461289e565b610dce565b348015610368575f80fd5b5060405160128152602001610249565b348015610383575f80fd5b5061023f610def565b348015610397575f80fd5b506072546040516001600160a01b039091168152602001610249565b3480156103be575f80fd5b506102a66103cd3660046126b3565b610df8565b3480156103dd575f80fd5b5061023f610e18565b3480156103f1575f80fd5b5061033c610400366004612803565b50565b34801561040e575f80fd5b5061023f61041d366004612643565b610e28565b34801561042d575f80fd5b5061023f61043c366004612803565b611163565b34801561044c575f80fd5b5061023f61045b36600461289e565b61117f565b34801561046b575f80fd5b5061023f61047a366004612643565b6111ba565b61023f61048d3660046128dc565b61142c565b34801561049d575f80fd5b50604080515f8082526020820181905291810182905260608101829052608081019190915260a001610249565b3480156104d5575f80fd5b5061023f6104e4366004612643565b61169a565b3480156104f4575f80fd5b5061023f610503366004612643565b6116b7565b348015610513575f80fd5b505f61023f565b348015610525575f80fd5b5061023f6105343660046126b3565b6116e2565b348015610544575f80fd5b5061027a611711565b348015610558575f80fd5b5061023f60795481565b34801561056d575f80fd5b506102a661057c3660046126b3565b611720565b34801561058c575f80fd5b506102a661059b3660046126b3565b61175c565b3480156105ab575f80fd5b5061023f6105ba366004612940565b611768565b3480156105ca575f80fd5b5061023f6105d9366004612940565b6117b5565b3480156105e9575f80fd5b5061033c6105f8366004612971565b611861565b348015610608575f80fd5b5061023f6106173660046129dd565b611980565b348015610627575f80fd5b5061023f610636366004612643565b6001600160a01b03165f9081526074602052604090205490565b6073545f9061065f90826119aa565b905090565b60606077805461067390612a09565b80601f016020809104026020016040519081016040528092919081815260200182805461069f90612a09565b80156106ea5780601f106106c1576101008083540402835291602001916106ea565b820191905f5260205f20905b8154815290600101906020018083116106cd57829003601f168201915b5050505050905090565b5f6107003384846119ec565b5060015b92915050565b5f7fd979d933a329cda0d1d95e3d7a8aaccfc305f1200c53a87f37e6841bb793452c805c1561074c5760405163b955425560e01b815260048101604052600481fd5b6001815d60715483906001600160a01b031680156107be576040516241fec360e31b81526001600160a01b03838116600483015282169063020ff618906024015f604051808303815f87803b1580156107a3575f80fd5b505af11580156107b5573d5f803e3d5ffd5b505050506107ff565b5f601a555f6018556001600160a01b038216156107ff576001600160a01b0382165f908152601e60209081526040808320839055601a54601d909252909120555b85516101001461082d578560405163041979eb60e41b815260040161082491906126a1565b60405180910390fd5b5f80878060200190518101906108439190612a6e565b815191935091506001600160a01b038816158061086757506001600160a01b038216155b1561088557604051632534b66960e21b815260040160405180910390fd5b6729a2241af62c00008110156108b157604051631a98558360e21b815260048101829052602401610824565b6001600160a01b0388165f90815260746020526040812054906108d4838b6117b5565b9050808210156108fd57898282604051637ac073bf60e01b815260040161082493929190612b62565b5f81905060715f9054906101000a90046001600160a01b03166001600160a01b031663a1b86b388c8e6040518363ffffffff1660e01b8152600401610943929190612b83565b60408051808303815f875af192505050801561097c575060408051601f3d908101601f1916820190925261097991810190612ba6565b60015b6109cc57610988612bc8565b806308c379a0036109c2575061099c612be1565b806109a757506109c4565b80604051631bc63b8160e01b815260040161082491906126a1565b505b3d5f803e3d5ffd5b6109d7825f80611a9a565b6071546001600160a01b03165f9081526074602052604090205494506109fe83865f611b0e565b5f60745f60715f9054906101000a90046001600160a01b03166001600160a01b03166001600160a01b031681526020019081526020015f208190555082607a5f8f6001600160a01b03166001600160a01b031681526020019081526020015f205f82825403925050819055507f4181bb2dd7cb8bbe372dc317652857a2e512544faeba7c902b5e80107831732b8d878686604051610ac094939291906001600160a01b0394909416845260208401929092526040830152606082015260800190565b60405180910390a19a50610ad79650505050505050565b50505f815d5092915050565b5f610aec610e18565b1561023a5761065f610b40610b16610b02610650565b610b119064e8d4a51000612c7e565b611b6a565b610b28610b21610e18565b6001611b81565b610b39610b33610e18565b5f611b81565b9190611c32565b611d48565b5f610b4e610e18565b60715460405163a4fc284b60e01b81526001600160a01b039091169063a4fc284b90610b7f90600190600401612cc5565b602060405180830381865afa158015610b9a573d5f803e3d5ffd5b505050506040513d601f19601f82011682018060405250810190610bbe9190612cd8565b610bc89084612c7e565b6107049190612d03565b603c54610100900460ff1615808015610bf25750603c54600160ff909116105b80610c0c5750303b158015610c0c5750603c5460ff166001145b610c6f5760405162461bcd60e51b815260206004820152602e60248201527f496e697469616c697a61626c653a20636f6e747261637420697320616c72656160448201526d191e481a5b9a5d1a585b1a5e995960921b6064820152608401610824565b603c805460ff191660011790558015610c9257603c805461ff0019166101001790555b6077610c9e8482612d5f565b506078610cab8382612d5f565b50607180546001600160a01b038087166001600160a01b03199283161790925560728054928816929091169190911790556040805180820190915260018152603160f81b6020820152610cff908490611d5f565b846001600160a01b031663313ce5676040518163ffffffff1660e01b8152600401602060405180830381865afa158015610d3b573d5f803e3d5ffd5b505050506040513d601f19601f82011682018060405250810190610d5f9190612e1f565b60ff16601214610d70576001610d77565b64e8d4a510005b64ffffffffff166079558015610dc757603c805461ff0019169055604051600181527f7f26b83ff96e1f2b6a682f133852f6798a09c465da95921460cefb38474024989060200160405180910390a15b5050505050565b5f610dda843384611d94565b610de5848484611de0565b5060019392505050565b5f61065f611ee8565b5f610700338484610e093388611980565b610e139190612e3a565b6119ec565b6073545f9061065f9060016119aa565b5f80610eb2670de0b6b3a764000062093a80610e4c6071546001600160a01b031690565b6001600160a01b0316631dc111956040518163ffffffff1660e01b8152600401602060405180830381865afa158015610e87573d5f803e3d5ffd5b505050506040513d601f19601f82011682018060405250810190610eab9190612cd8565b9190611f61565b6001600160a01b0384165f908152607a6020908152604080832054815192830190915291815291925090610ee590611f7c565b610f946040518060400160405280601f81526020017f5f4f5a28292e6765745374616b696e67526577617264735553444328293a2000815250610f306071546001600160a01b031690565b6001600160a01b0316631dc111956040518163ffffffff1660e01b8152600401602060405180830381865afa158015610f6b573d5f803e3d5ffd5b505050506040513d601f19601f82011682018060405250810190610f8f9190612cd8565b611fbf565b610fcb60405180604001604052806015815260200174039b2b1b7b732363ca932bbb0b93239aaa9a2219d1605d1b81525083611fbf565b5f610fde6071546001600160a01b031690565b6040516394f649dd60e01b81526001600160a01b03878116600483015291909116906394f649dd906024015f60405180830381865afa158015611023573d5f803e3d5ffd5b505050506040513d5f823e601f3d908101601f1916820160405261104a9190810190612e8b565b90505f815f8151811061105f5761105f612f2e565b6020026020010151905061108b60405180606001604052806025815260200161311b6025913942611fbf565b5f81604001514261109c9190612f42565b6110a99062093a80612f42565b905080156110b757806110bc565b62093a805b90506110eb6040518060400160405280600b81526020016a03a34b6b2a9b832b73a1d160ad1b81525082611fbf565b61111560405180604001604052806008815260200167030b9b9b2ba399d160c51b81525085611fbf565b5f6111208286612c7e565b905061115860405180604001604052806014815260200173031b7b73a3934b13aba34b7b72330b1ba37b91d160651b81525082611fbf565b505050505050919050565b5f61070461116f610e18565b611177610ae3565b849190612004565b5f8061118e610b408487611768565b905061119b853383611d94565b6111a6858585612027565b6111b28585838661210f565b949350505050565b5f806111de670de0b6b3a764000062093a80610e4c6071546001600160a01b031690565b6001600160a01b0384165f908152607a602090815260408083205481519283019091529181529192509061121190611f7c565b61125c6040518060400160405280601f81526020017f5f4f5a28292e6765745374616b696e67526577617264735553444328293a2000815250610f306071546001600160a01b031690565b61129360405180604001604052806015815260200174039b2b1b7b732363ca932bbb0b93239aaa9a2219d1605d1b81525083611fbf565b5f6112a66071546001600160a01b031690565b6040516394f649dd60e01b81526001600160a01b03878116600483015291909116906394f649dd906024015f60405180830381865afa1580156112eb573d5f803e3d5ffd5b505050506040513d5f823e601f3d908101601f191682016040526113129190810190612e8b565b90505f815f8151811061132757611327612f2e565b6020026020010151905061135360405180606001604052806025815260200161311b6025913942611fbf565b5f8160400151426113649190612f42565b6113719062093a80612f42565b9050801561137f5780611384565b62093a805b90506113b36040518060400160405280600b81526020016a03a34b6b2a9b832b73a1d160ad1b81525082611fbf565b6113e16040518060400160405280600c81526020016b030b9b9b2ba39aab9b2b91d160a51b81525085611fbf565b6305f5e100670de0b6b3a76400006113f98388612c7e565b6114039190612d03565b61140d9086612c7e565b6114179190612d03565b6114219085612e3a565b979650505050505050565b5f7fd979d933a329cda0d1d95e3d7a8aaccfc305f1200c53a87f37e6841bb793452c805c1561146e5760405163b955425560e01b815260048101604052600481fd5b6001815d5f80868060200190518101906114889190612f68565b9150915084156114b657348260200151146114b657604051631008b85760e11b815260040160405180910390fd5b815115806114c657506020820151155b156114e45760405163e5da5c7360e01b815260040160405180910390fd5b6001600160a01b038616158061150157506001600160a01b038116155b1561151f57604051632534b66960e21b815260040160405180910390fd5b60795482515f9161153091906121af565b6071549091506001600160a01b03166355dae15c346115576072546001600160a01b031690565b604080516001600160e01b031960e086901b1681526001600160a01b039283166004820152918c1660248301528751604483015260208801516064830152870151608482015289151560a482015260c401604080518083038185885af1935050505080156115e2575060408051601f3d908101601f191682019092526115df91810190612ba6565b60015b6115ee57610988612bc8565b6115fa82826001611a9a565b8261160781806001611b0e565b611619858760200151885f01516121ba565b6001600160a01b0385165f908152607460209081526040808320805485019055607a90915290819020805486019055517fcb7696223ea9f009e8eb0ecd9af1e430306b6c7c719e906d4a4af52bcba6353a9061167a908c9084908890612b62565b60405180910390a1965061168f945050505050565b5f815d509392505050565b6001600160a01b0381165f90815260756020526040812054610704565b5f610704610b406116dc846001600160a01b03165f9081526074602052604090205490565b84611768565b5f806116f1610b408433611768565b90506116fe338585612027565b61170a3385838661210f565b9392505050565b60606078805461067390612a09565b5f8061172c3385611980565b90508281101561174f576040516361ceb1d360e01b815260040160405180910390fd5b610de533858584036119ec565b5f610700338484611de0565b5f80611774845f611b81565b905080156117ac576117a7611788846121ee565b61179f6b033b2e3c9fd0803ce80000006002612255565b839190611c32565b6111b2565b5f949350505050565b5f806117c96071546001600160a01b031690565b6001600160a01b0316633154b6e25f806040518363ffffffff1660e01b81526004016117f6929190612f93565b602060405180830381865afa158015611811573d5f803e3d5ffd5b505050506040513d601f19601f820116820180604052508101906118359190612cd8565b90506111b2611843846121ee565b61185b611851610b11610e18565b84610b3989611b6a565b90612260565b8342111561188b5760405163184f1e0160e11b815260048101859052426024820152604401610824565b5f7f6e71edae12b1b97f4d1f60370fef10105fa2faae0126114a169c64845d6126c98888886118b98c61229b565b6040805160208101969096526001600160a01b0394851690860152929091166060840152608083015260a082015260c0810186905260e0016040516020818303038152906040528051906020012090505f611913826122c2565b90505f6119228287878761230e565b9050896001600160a01b0316816001600160a01b03161461196957604051635091bef560e01b81526001600160a01b0380831660048301528b166024820152604401610824565b6119748a8a8a6119ec565b50505050505050505050565b6001600160a01b039182165f90815260766020908152604080832093909416825291909152205490565b5f6fffffffffffffffffffffffffffffffff818360018111156119cf576119cf612c95565b146119dc578381166111b2565b608084901c811691505092915050565b6001600160a01b0383161580611a0957506001600160a01b038216155b15611a3a57604051637db368a160e01b81526001600160a01b03808516600483015283166024820152604401610824565b6001600160a01b038381165f8181526076602090815260408083209487168084529482529182902085905590518481527f8c5be1e5ebec7d5bd14f71427d1e84f3dd0314c0f7b2291e5b200ac8c7c3b925910160405180910390a3505050565b60715460405163db185e8960e01b8152306004820152602481018590526044810184905282151560648201526001600160a01b039091169063db185e89906084015b5f604051808303815f87803b158015611af3575f80fd5b505af1158015611b05573d5f803e3d5ffd5b50505050505050565b6073545f90611b1d90826119aa565b90505f611b3660016073546119aa90919063ffffffff16565b90508215611b4957908401908301611b52565b90849003908390035b611b6081608084901b612e3a565b6073555050505050565b5f610704826b033b2e3c9fd0803ce8000000612c7e565b5f80611c04611b986071546001600160a01b031690565b6001600160a01b0316633154b6e25f866040518363ffffffff1660e01b8152600401611bc5929190612f93565b602060405180830381865afa158015611be0573d5f803e3d5ffd5b505050506040513d601f19601f82011682018060405250810190610b119190612cd8565b90506111b281611c12610e18565b15611c2757611c22610b11610e18565b611c29565b825b610b3987611b6a565b604051633f9b43b760e11b815260048101849052602481018390525f908490849084908490819073__$a7d7f0af96ad7248e2170a1364c3372171$__90637f36876e906044016040805180830381865af4158015611c92573d5f803e3d5ffd5b505050506040513d601f19601f82011682018060405250810190611cb69190612ba6565b6040516399ed504f60e01b8152600481018390526024810182905260448101869052919350915073__$a7d7f0af96ad7248e2170a1364c3372171$__906399ed504f90606401602060405180830381865af4158015611d17573d5f803e3d5ffd5b505050506040513d601f19601f82011682018060405250810190611d3b9190612cd8565b9998505050505050505050565b5f6107046b033b2e3c9fd0803ce800000083612d03565b603c54610100900460ff16611d865760405162461bcd60e51b815260040161082490612fb0565b611d908282612334565b5050565b5f611d9f8484611980565b90505f198114611dda5781811015611dcd576040516306052b7f60e01b815260048101839052602401610824565b611dda84848484036119ec565b50505050565b6001600160a01b0383161580611dfd57506001600160a01b038216155b15611e2e57604051637db368a160e01b81526001600160a01b03808516600483015283166024820152604401610824565b5f611e3882611163565b6001600160a01b0385165f9081526074602052604090205490915081811015611e7a578481836040516315c29bad60e31b815260040161082493929190612b62565b6001600160a01b038086165f8181526074602052604080822086860390559287168082529083902080548601905591517fddf252ad1be2c89b69c2b068fc378daa952ba7f163c4a11628f55a4df523b3ef90611ed99087815260200190565b60405180910390a35050505050565b5f61065f7f8b73c3c69bb8fe3d512ecc4cf759cc79239f7b179b0ffacaa9a75d522b39400f611f16603d5490565b603e546040805160208101859052908101839052606081018290524660808201523060a08201525f9060c0016040516020818303038152906040528051906020012090509392505050565b5f825f190484118302158202611f75575f80fd5b5091020490565b61040081604051602401611f9091906126a1565b60408051601f198184030181529190526020810180516001600160e01b031663104c13eb60e21b179052612375565b611d908282604051602401611fd5929190612ffb565b60408051601f198184030181529190526020810180516001600160e01b03166309710a9d60e41b179052612375565b5f825f190484118302158202612018575f80fd5b50910281810615159190040190565b6001600160a01b038316158061204457506001600160a01b038216155b1561207557604051637db368a160e01b81526001600160a01b03808516600483015283166024820152604401610824565b306001600160a01b0383160361209e57604051636d3bb4b960e11b815260040160405180910390fd5b6001600160a01b0383165f90815260746020526040902054808211156120dd578381836040516315c29bad60e31b815260040161082493929190612b62565b6001600160a01b039384165f908152607460205260408082209284900390925592909316825291902080549091019055565b826001600160a01b0316846001600160a01b03167fddf252ad1be2c89b69c2b068fc378daa952ba7f163c4a11628f55a4df523b3ef8460405161215491815260200190565b60405180910390a3826001600160a01b0316846001600160a01b03167f9d9c909296d9c674451c0c24f02cb64981eb3b727f99865939192f880a755dcb836040516121a191815260200190565b60405180910390a350505050565b5f61170a8284612d03565b6071546040516331a2e95360e21b81526001600160a01b039091169063c68ba54c90611adc90869086908690600401612b62565b5f6107046122096b033b2e3c9fd0803ce80000006002612255565b61222a610b21856001600160a01b03165f9081526074602052604090205490565b6001600160a01b0385165f90815260746020526040902054610b3990610b119064e8d4a51000612c7e565b5f61170a82846130fc565b5f828261226d8183613107565b1561227957600161227b565b5f5b60ff166122888284612d03565b6122929190612e3a565b95945050505050565b6001600160a01b0381165f9081526075602052604090208054600181018255905b50919050565b5f6107046122ce611ee8565b8360405161190160f01b602082015260228101839052604281018290525f9060620160405160208183030381529060405280519060200120905092915050565b5f805f61231d87878787612395565b9150915061232a8161247a565b5095945050505050565b603c54610100900460ff1661235b5760405162461bcd60e51b815260040161082490612fb0565b815160209283012081519190920120603d91909155603e55565b80516a636f6e736f6c652e6c6f67602083015f808483855afa5050505050565b5f807f7fffffffffffffffffffffffffffffff5d576e7357a4501ddfe92f46681b20a08311156123ca57505f90506003612471565b8460ff16601b141580156123e257508460ff16601c14155b156123f257505f90506004612471565b604080515f8082526020820180845289905260ff881692820192909252606081018690526080810185905260019060a0016020604051602081039080840390855afa158015612443573d5f803e3d5ffd5b5050604051601f1901519150506001600160a01b03811661246b575f60019250925050612471565b91505f90505b94509492505050565b5f81600481111561248d5761248d612c95565b036124955750565b60018160048111156124a9576124a9612c95565b036124f65760405162461bcd60e51b815260206004820152601860248201527f45434453413a20696e76616c6964207369676e617475726500000000000000006044820152606401610824565b600281600481111561250a5761250a612c95565b036125575760405162461bcd60e51b815260206004820152601f60248201527f45434453413a20696e76616c6964207369676e6174757265206c656e677468006044820152606401610824565b600381600481111561256b5761256b612c95565b036125c35760405162461bcd60e51b815260206004820152602260248201527f45434453413a20696e76616c6964207369676e6174757265202773272076616c604482015261756560f01b6064820152608401610824565b60048160048111156125d7576125d7612c95565b036104005760405162461bcd60e51b815260206004820152602260248201527f45434453413a20696e76616c6964207369676e6174757265202776272076616c604482015261756560f01b6064820152608401610824565b6001600160a01b0381168114610400575f80fd5b5f60208284031215612653575f80fd5b813561170a8161262f565b5f81518084525f5b8181101561268257602081850181015186830182015201612666565b505f602082860101526020601f19601f83011685010191505092915050565b602081525f61170a602083018461265e565b5f80604083850312156126c4575f80fd5b82356126cf8161262f565b946020939093013593505050565b634e487b7160e01b5f52604160045260245ffd5b6060810181811067ffffffffffffffff82111715612711576127116126dd565b60405250565b601f8201601f1916810167ffffffffffffffff8111828210171561273d5761273d6126dd565b6040525050565b5f82601f830112612753575f80fd5b813567ffffffffffffffff81111561276d5761276d6126dd565b604051612784601f8301601f191660200182612717565b818152846020838601011115612798575f80fd5b816020850160208301375f918101602001919091529392505050565b5f80604083850312156127c5575f80fd5b823567ffffffffffffffff8111156127db575f80fd5b6127e785828601612744565b92505060208301356127f88161262f565b809150509250929050565b5f60208284031215612813575f80fd5b5035919050565b5f805f806080858703121561282d575f80fd5b84356128388161262f565b935060208501356128488161262f565b9250604085013567ffffffffffffffff80821115612864575f80fd5b61287088838901612744565b93506060870135915080821115612885575f80fd5b5061289287828801612744565b91505092959194509250565b5f805f606084860312156128b0575f80fd5b83356128bb8161262f565b925060208401356128cb8161262f565b929592945050506040919091013590565b5f805f606084860312156128ee575f80fd5b833567ffffffffffffffff811115612904575f80fd5b61291086828701612744565b93505060208401356129218161262f565b915060408401358015158114612935575f80fd5b809150509250925092565b5f8060408385031215612951575f80fd5b8235915060208301356127f88161262f565b60ff81168114610400575f80fd5b5f805f805f805f60e0888a031215612987575f80fd5b87356129928161262f565b965060208801356129a28161262f565b9550604088013594506060880135935060808801356129c081612963565b9699959850939692959460a0840135945060c09093013592915050565b5f80604083850312156129ee575f80fd5b82356129f98161262f565b915060208301356127f88161262f565b600181811c90821680612a1d57607f821691505b6020821081036122bc57634e487b7160e01b5f52602260045260245ffd5b5f67ffffffffffffffff821115612a5457612a546126dd565b5060051b60200190565b8051612a698161262f565b919050565b5f8060408385031215612a7f575f80fd5b825167ffffffffffffffff80821115612a96575f80fd5b9084019060608287031215612aa9575f80fd5b604051612ab5816126f1565b8251815260208084015181830152604084015183811115612ad4575f80fd5b80850194505087601f850112612ae8575f80fd5b83519250612af583612a3b565b604051612b028282612717565b84815260059490941b8501820193828101915089851115612b21575f80fd5b948201945b84861015612b3f57855182529482019490820190612b26565b8060408501525050819550612b55818801612a5e565b9450505050509250929050565b6001600160a01b039390931683526020830191909152604082015260600190565b6001600160a01b03831681526040602082018190525f906111b29083018461265e565b5f8060408385031215612bb7575f80fd5b505080516020909101519092909150565b5f60033d1115612bde5760045f803e505f5160e01c5b90565b5f60443d1015612bee5790565b6040516003193d81016004833e81513d67ffffffffffffffff8160248401118184111715612c1e57505050505090565b8285019150815181811115612c365750505050505090565b843d8701016020828501011115612c505750505050505090565b612c5f60208286010187612717565b509095945050505050565b634e487b7160e01b5f52601160045260245ffd5b808202811582820484141761070457610704612c6a565b634e487b7160e01b5f52602160045260245ffd5b6002811061040057634e487b7160e01b5f52602160045260245ffd5b60208101612cd283612ca9565b91905290565b5f60208284031215612ce8575f80fd5b5051919050565b634e487b7160e01b5f52601260045260245ffd5b5f82612d1157612d11612cef565b500490565b601f821115612d5a57805f5260205f20601f840160051c81016020851015612d3b5750805b601f840160051c820191505b81811015610dc7575f8155600101612d47565b505050565b815167ffffffffffffffff811115612d7957612d796126dd565b612d8d81612d878454612a09565b84612d16565b602080601f831160018114612dc0575f8415612da95750858301515b5f19600386901b1c1916600185901b178555612e17565b5f85815260208120601f198616915b82811015612dee57888601518255948401946001909101908401612dcf565b5085821015612e0b57878501515f19600388901b60f8161c191681555b505060018460011b0185555b505050505050565b5f60208284031215612e2f575f80fd5b815161170a81612963565b8082018082111561070457610704612c6a565b5f60608284031215612e5d575f80fd5b604051612e69816126f1565b8091508251815260208301516020820152604083015160408201525092915050565b5f6020808385031215612e9c575f80fd5b825167ffffffffffffffff811115612eb2575f80fd5b8301601f81018513612ec2575f80fd5b8051612ecd81612a3b565b604051612eda8282612717565b828152602060609384028501810193908201925088841115612efa575f80fd5b6020850194505b83851015612f2257612f138986612e4d565b83529384019391850191612f01565b50979650505050505050565b634e487b7160e01b5f52603260045260245ffd5b8181035f831280158383131683831282161715612f6157612f61612c6a565b5092915050565b5f8060808385031215612f79575f80fd5b612f838484612e4d565b915060608301516127f88161262f565b82815260408101612fa383612ca9565b8260208301529392505050565b6020808252602b908201527f496e697469616c697a61626c653a20636f6e7472616374206973206e6f74206960408201526a6e697469616c697a696e6760a81b606082015260800190565b604081525f61300d604083018561265e565b90508260208301529392505050565b600181815b8085111561305657815f190482111561303c5761303c612c6a565b8085161561304957918102915b93841c9390800290613021565b509250929050565b5f8261306c57506001610704565b8161307857505f610704565b816001811461308e5760028114613098576130b4565b6001915050610704565b60ff8411156130a9576130a9612c6a565b50506001821b610704565b5060208310610133831016604e8410600b84101617156130d7575081810a610704565b6130e1838361301c565b805f19048211156130f4576130f4612c6a565b029392505050565b5f61170a838361305e565b5f8261311557613115612cef565b50069056fe626c6f636b2e74696d657374616d7020696e2062616c616e63654f66202a2a2a2a2a2a3a20a2646970667358221220242d6dc6790263a352b751d320ae5ad26070e9a65111d967e0fed83bac4d602764736f6c63430008180033","linkReferences":{"contracts/libraries/Uint512.sol":{"Uint512":[{"start":7500,"length":20},{"start":7632,"length":20}]}}},"methodIdentifiers":{"DOMAIN_SEPARATOR()":"3644e515","FORMAT_DECIMALS()":"a01c8774","allowance(address,address)":"dd62ed3e","approve(address,uint256)":"095ea7b3","asset()":"38d52e0f","balanceOf(address)":"70a08231","balanceOf2(address)":"7f5b002e","balanceOf3(address)":"54436565","claimReward()":"b88a802f","convertToOzTokens(uint256,address)":"bc93f1cf","convertToShares(uint256,address)":"d295fa9a","convertToSharesFromOzBalance(uint256)":"69e41c62","convertToUnderlying(uint256)":"1dc7f521","decimals()":"313ce567","decreaseAllowance(address,uint256)":"a457c2d7","earned(address)":"008cc262","getRewardsData()":"7d098e64","increaseAllowance(address,uint256)":"39509351","initialize(address,address,string,string)":"2016a0d2","lastTimeRewardApplicable()":"80faa57d","mint(bytes,address)":"0cae37f1","mint2(bytes,address,bool)":"7b044637","name()":"06fdde03","nonces(address)":"7ecebe00","notifyRewardAmount(uint256)":"3c6b16ab","permit(address,address,uint256,uint256,uint8,bytes32,bytes32)":"d505accf","redeem(bytes,address)":"0ba097d6","rewardPerToken()":"cd3daf9d","setRewardsDuration(uint256)":"cc1a378f","sharesOf(address)":"f5eb42dc","symbol()":"95d89b41","totalAssets()":"01e1d114","totalShares()":"3a98ef39","totalSupply()":"18160ddd","transfer(address,uint256)":"a9059cbb","transferFrom(address,address,uint256)":"23b872dd","transferShares(address,uint256)":"8fcb4e5b","transferSharesFrom(address,address,uint256)":"6d780459"},"id":46}