{
  "abi": [
    {
      "inputs": [],
      "stateMutability": "nonpayable",
      "type": "constructor"
    },
    {
      "inputs": [
        {
          "internalType": "address",
          "name": "sender",
          "type": "address"
        },
        {
          "internalType": "uint256",
          "name": "shares",
          "type": "uint256"
        },
        {
          "internalType": "uint256",
          "name": "sharesNeeded",
          "type": "uint256"
        }
      ],
      "name": "ERC20InsufficientBalance",
      "type": "error"
    },
    {
      "inputs": [
        {
          "internalType": "address",
          "name": "receiver",
          "type": "address"
        }
      ],
      "name": "ERC20InvalidReceiver",
      "type": "error"
    },
    {
      "inputs": [
        {
          "internalType": "address",
          "name": "sender",
          "type": "address"
        }
      ],
      "name": "ERC20InvalidSender",
      "type": "error"
    },
    {
      "inputs": [
        {
          "internalType": "uint256",
          "name": "deadline",
          "type": "uint256"
        },
        {
          "internalType": "uint256",
          "name": "blockTimestamp",
          "type": "uint256"
        }
      ],
      "name": "ERC2612ExpiredDeadline",
      "type": "error"
    },
    {
      "inputs": [
        {
          "internalType": "address",
          "name": "owner",
          "type": "address"
        },
        {
          "internalType": "address",
          "name": "spender",
          "type": "address"
        }
      ],
      "name": "ERC2612InvalidSignature",
      "type": "error"
    },
    {
      "inputs": [
        {
          "internalType": "address",
          "name": "sender",
          "type": "address"
        },
        {
          "internalType": "uint256",
          "name": "shares",
          "type": "uint256"
        },
        {
          "internalType": "uint256",
          "name": "sharesNeeded",
          "type": "uint256"
        }
      ],
      "name": "USDMInsufficientBurnBalance",
      "type": "error"
    },
    {
      "anonymous": false,
      "inputs": [
        {
          "indexed": true,
          "internalType": "address",
          "name": "owner",
          "type": "address"
        },
        {
          "indexed": true,
          "internalType": "address",
          "name": "spender",
          "type": "address"
        },
        {
          "indexed": false,
          "internalType": "uint256",
          "name": "value",
          "type": "uint256"
        }
      ],
      "name": "Approval",
      "type": "event"
    },
    {
      "anonymous": false,
      "inputs": [
        {
          "indexed": false,
          "internalType": "uint8",
          "name": "version",
          "type": "uint8"
        }
      ],
      "name": "Initialized",
      "type": "event"
    },
    {
      "anonymous": false,
      "inputs": [
        {
          "indexed": true,
          "internalType": "address",
          "name": "from",
          "type": "address"
        },
        {
          "indexed": true,
          "internalType": "address",
          "name": "to",
          "type": "address"
        },
        {
          "indexed": false,
          "internalType": "uint256",
          "name": "value",
          "type": "uint256"
        }
      ],
      "name": "Transfer",
      "type": "event"
    },
    {
      "inputs": [],
      "name": "DOMAIN_SEPARATOR",
      "outputs": [
        {
          "internalType": "bytes32",
          "name": "",
          "type": "bytes32"
        }
      ],
      "stateMutability": "view",
      "type": "function"
    },
    {
      "inputs": [
        {
          "internalType": "address",
          "name": "owner",
          "type": "address"
        },
        {
          "internalType": "address",
          "name": "spender",
          "type": "address"
        }
      ],
      "name": "allowance",
      "outputs": [
        {
          "internalType": "uint256",
          "name": "",
          "type": "uint256"
        }
      ],
      "stateMutability": "view",
      "type": "function"
    },
    {
      "inputs": [
        {
          "internalType": "address",
          "name": "spender",
          "type": "address"
        },
        {
          "internalType": "uint256",
          "name": "amount",
          "type": "uint256"
        }
      ],
      "name": "approve",
      "outputs": [
        {
          "internalType": "bool",
          "name": "",
          "type": "bool"
        }
      ],
      "stateMutability": "nonpayable",
      "type": "function"
    },
    {
      "inputs": [],
      "name": "asset",
      "outputs": [
        {
          "internalType": "address",
          "name": "",
          "type": "address"
        }
      ],
      "stateMutability": "view",
      "type": "function"
    },
    {
      "inputs": [
        {
          "internalType": "address",
          "name": "account_",
          "type": "address"
        }
      ],
      "name": "balanceOf",
      "outputs": [
        {
          "internalType": "uint256",
          "name": "",
          "type": "uint256"
        }
      ],
      "stateMutability": "view",
      "type": "function"
    },
    {
      "inputs": [
        {
          "components": [
            {
              "internalType": "uint256",
              "name": "ozAmountIn",
              "type": "uint256"
            },
            {
              "internalType": "uint256",
              "name": "minWethOut",
              "type": "uint256"
            },
            {
              "internalType": "uint256",
              "name": "bptAmountIn",
              "type": "uint256"
            },
            {
              "internalType": "uint256",
              "name": "minUsdcOut",
              "type": "uint256"
            }
          ],
          "internalType": "struct AmountsOut",
          "name": "amts_",
          "type": "tuple"
        },
        {
          "internalType": "address",
          "name": "receiver_",
          "type": "address"
        }
      ],
      "name": "burn",
      "outputs": [
        {
          "internalType": "uint256",
          "name": "",
          "type": "uint256"
        }
      ],
      "stateMutability": "nonpayable",
      "type": "function"
    },
    {
      "inputs": [
        {
          "internalType": "uint256",
          "name": "shares",
          "type": "uint256"
        }
      ],
      "name": "convertToAssets",
      "outputs": [
        {
          "internalType": "uint256",
          "name": "assets",
          "type": "uint256"
        }
      ],
      "stateMutability": "view",
      "type": "function"
    },
    {
      "inputs": [
        {
          "internalType": "uint256",
          "name": "assets",
          "type": "uint256"
        }
      ],
      "name": "convertToShares",
      "outputs": [
        {
          "internalType": "uint256",
          "name": "shares",
          "type": "uint256"
        }
      ],
      "stateMutability": "view",
      "type": "function"
    },
    {
      "inputs": [
        {
          "internalType": "uint256",
          "name": "shares_",
          "type": "uint256"
        }
      ],
      "name": "convertToUnderlying",
      "outputs": [
        {
          "internalType": "uint256",
          "name": "amountUnderlying",
          "type": "uint256"
        }
      ],
      "stateMutability": "view",
      "type": "function"
    },
    {
      "inputs": [],
      "name": "decimals",
      "outputs": [
        {
          "internalType": "uint8",
          "name": "",
          "type": "uint8"
        }
      ],
      "stateMutability": "view",
      "type": "function"
    },
    {
      "inputs": [
        {
          "internalType": "address",
          "name": "spender",
          "type": "address"
        },
        {
          "internalType": "uint256",
          "name": "subtractedValue",
          "type": "uint256"
        }
      ],
      "name": "decreaseAllowance",
      "outputs": [
        {
          "internalType": "bool",
          "name": "",
          "type": "bool"
        }
      ],
      "stateMutability": "nonpayable",
      "type": "function"
    },
    {
      "inputs": [
        {
          "internalType": "address",
          "name": "spender",
          "type": "address"
        },
        {
          "internalType": "uint256",
          "name": "addedValue",
          "type": "uint256"
        }
      ],
      "name": "increaseAllowance",
      "outputs": [
        {
          "internalType": "bool",
          "name": "",
          "type": "bool"
        }
      ],
      "stateMutability": "nonpayable",
      "type": "function"
    },
    {
      "inputs": [
        {
          "internalType": "address",
          "name": "underlying_",
          "type": "address"
        },
        {
          "internalType": "address",
          "name": "diamond_",
          "type": "address"
        },
        {
          "internalType": "string",
          "name": "name_",
          "type": "string"
        },
        {
          "internalType": "string",
          "name": "symbol_",
          "type": "string"
        }
      ],
      "name": "initialize",
      "outputs": [],
      "stateMutability": "nonpayable",
      "type": "function"
    },
    {
      "inputs": [
        {
          "internalType": "address",
          "name": "",
          "type": "address"
        }
      ],
      "name": "maxDeposit",
      "outputs": [
        {
          "internalType": "uint256",
          "name": "",
          "type": "uint256"
        }
      ],
      "stateMutability": "view",
      "type": "function"
    },
    {
      "inputs": [
        {
          "internalType": "bytes",
          "name": "data_",
          "type": "bytes"
        }
      ],
      "name": "mint",
      "outputs": [
        {
          "internalType": "uint256",
          "name": "",
          "type": "uint256"
        }
      ],
      "stateMutability": "nonpayable",
      "type": "function"
    },
    {
      "inputs": [],
      "name": "name",
      "outputs": [
        {
          "internalType": "string",
          "name": "",
          "type": "string"
        }
      ],
      "stateMutability": "view",
      "type": "function"
    },
    {
      "inputs": [
        {
          "internalType": "address",
          "name": "owner",
          "type": "address"
        }
      ],
      "name": "nonces",
      "outputs": [
        {
          "internalType": "uint256",
          "name": "",
          "type": "uint256"
        }
      ],
      "stateMutability": "view",
      "type": "function"
    },
    {
      "inputs": [
        {
          "internalType": "address",
          "name": "owner",
          "type": "address"
        },
        {
          "internalType": "address",
          "name": "spender",
          "type": "address"
        },
        {
          "internalType": "uint256",
          "name": "value",
          "type": "uint256"
        },
        {
          "internalType": "uint256",
          "name": "deadline",
          "type": "uint256"
        },
        {
          "internalType": "uint8",
          "name": "v",
          "type": "uint8"
        },
        {
          "internalType": "bytes32",
          "name": "r",
          "type": "bytes32"
        },
        {
          "internalType": "bytes32",
          "name": "s_",
          "type": "bytes32"
        }
      ],
      "name": "permit",
      "outputs": [],
      "stateMutability": "nonpayable",
      "type": "function"
    },
    {
      "inputs": [
        {
          "internalType": "uint256",
          "name": "assets_",
          "type": "uint256"
        }
      ],
      "name": "previewDeposit",
      "outputs": [
        {
          "internalType": "uint256",
          "name": "",
          "type": "uint256"
        }
      ],
      "stateMutability": "view",
      "type": "function"
    },
    {
      "inputs": [
        {
          "internalType": "uint256",
          "name": "shares_",
          "type": "uint256"
        }
      ],
      "name": "previewRedeem",
      "outputs": [
        {
          "internalType": "uint256",
          "name": "",
          "type": "uint256"
        }
      ],
      "stateMutability": "view",
      "type": "function"
    },
    {
      "inputs": [
        {
          "internalType": "uint256",
          "name": "assets",
          "type": "uint256"
        }
      ],
      "name": "previewWithdraw",
      "outputs": [
        {
          "internalType": "uint256",
          "name": "",
          "type": "uint256"
        }
      ],
      "stateMutability": "view",
      "type": "function"
    },
    {
      "inputs": [
        {
          "internalType": "address",
          "name": "account_",
          "type": "address"
        }
      ],
      "name": "sharesOf",
      "outputs": [
        {
          "internalType": "uint256",
          "name": "",
          "type": "uint256"
        }
      ],
      "stateMutability": "view",
      "type": "function"
    },
    {
      "inputs": [],
      "name": "symbol",
      "outputs": [
        {
          "internalType": "string",
          "name": "",
          "type": "string"
        }
      ],
      "stateMutability": "view",
      "type": "function"
    },
    {
      "inputs": [],
      "name": "totalAssets",
      "outputs": [
        {
          "internalType": "uint256",
          "name": "",
          "type": "uint256"
        }
      ],
      "stateMutability": "view",
      "type": "function"
    },
    {
      "inputs": [],
      "name": "totalShares",
      "outputs": [
        {
          "internalType": "uint256",
          "name": "",
          "type": "uint256"
        }
      ],
      "stateMutability": "view",
      "type": "function"
    },
    {
      "inputs": [],
      "name": "totalSupply",
      "outputs": [
        {
          "internalType": "uint256",
          "name": "",
          "type": "uint256"
        }
      ],
      "stateMutability": "view",
      "type": "function"
    },
    {
      "inputs": [
        {
          "internalType": "address",
          "name": "to",
          "type": "address"
        },
        {
          "internalType": "uint256",
          "name": "amount",
          "type": "uint256"
        }
      ],
      "name": "transfer",
      "outputs": [
        {
          "internalType": "bool",
          "name": "",
          "type": "bool"
        }
      ],
      "stateMutability": "nonpayable",
      "type": "function"
    },
    {
      "inputs": [
        {
          "internalType": "address",
          "name": "from",
          "type": "address"
        },
        {
          "internalType": "address",
          "name": "to",
          "type": "address"
        },
        {
          "internalType": "uint256",
          "name": "amount",
          "type": "uint256"
        }
      ],
      "name": "transferFrom",
      "outputs": [
        {
          "internalType": "bool",
          "name": "",
          "type": "bool"
        }
      ],
      "stateMutability": "nonpayable",
      "type": "function"
    }
  ],
  "bytecode": {
    "object": "0x608060405234801561001057600080fd5b5061001961001e565b6100de565b600054610100900460ff161561008a5760405162461bcd60e51b815260206004820152602760248201527f496e697469616c697a61626c653a20636f6e747261637420697320696e697469604482015266616c697a696e6760c81b606482015260840160405180910390fd5b60005460ff90811610156100dc576000805460ff191660ff9081179091556040519081527f7f26b83ff96e1f2b6a682f133852f6798a09c465da95921460cefb38474024989060200160405180910390a15b565b611ce3806100ed6000396000f3fe608060405234801561001057600080fd5b50600436106101c45760003560e01c8063402d267d116100f9578063a457c2d711610097578063d505accf11610071578063d505accf14610381578063dd62ed3e14610394578063ef8b30f7146103a7578063f5eb42dc146103ba57600080fd5b8063a457c2d714610348578063a9059cbb1461035b578063c6e6f5921461036e57600080fd5b80637ba0e2e7116100d35780637ba0e2e7146103075780637ecebe001461031a5780638c490d511461032d57806395d89b411461034057600080fd5b8063402d267d146102ce5780634cdad506146102e157806370a08231146102f457600080fd5b80632016a0d2116101665780633644e515116101405780633644e5151461029057806338d52e0f1461029857806339509351146102b35780633a98ef39146102c657600080fd5b80632016a0d21461025957806323b872dd1461026e578063313ce5671461028157600080fd5b8063095ea7b3116101a2578063095ea7b3146102085780630a28a4771461022b57806318160ddd1461023e5780631dc7f5211461024657600080fd5b806301e1d114146101c957806306fdde03146101e057806307a2d13a146101f5575b600080fd5b6038545b6040519081526020015b60405180910390f35b6101e86103e3565b6040516101d79190611620565b6101cd61020336600461166e565b610475565b61021b61021636600461169c565b610488565b60405190151581526020016101d7565b6101cd61023936600461166e565b61049e565b6101cd6104ab565b6101cd61025436600461166e565b6104cf565b61026c610267366004611774565b610560565b005b61021b61027c3660046117fd565b6106df565b604051601281526020016101d7565b6101cd610702565b6036546040516001600160a01b0390911681526020016101d7565b61021b6102c136600461169c565b61070c565b6037546101cd565b6101cd6102dc36600461183e565b61072d565b6101cd6102ef36600461166e565b61074b565b6101cd61030236600461183e565b610758565b6101cd61031536600461185b565b61077a565b6101cd61032836600461183e565b610907565b6101cd61033b3660046118ac565b610925565b6101e8610a67565b61021b61035636600461169c565b610a76565b61021b61036936600461169c565b610af0565b6101cd61037c36600461166e565b610afd565b61026c61038f366004611936565b610b0a565b6101cd6103a23660046119ad565b610c2c565b6101cd6103b536600461166e565b610c57565b6101cd6103c836600461183e565b6001600160a01b031660009081526039602052604090205490565b6060603c80546103f2906119db565b80601f016020809104026020016040519081016040528092919081815260200182805461041e906119db565b801561046b5780601f106104405761010080835404028352916020019161046b565b820191906000526020600020905b81548152906001019060200180831161044e57829003601f168201915b5050505050905090565b6000610482826000610c64565b92915050565b6000610495338484610cfd565b50600192915050565b6000610482826001610e21565b60006037546000146104c9576104c46037546000610c64565b905090565b50600090565b60006104da60375490565b60355460405163a4fc284b60e01b81526001600160a01b039091169063a4fc284b9061050b90600190600401611a25565b602060405180830381865afa158015610528573d6000803e3d6000fd5b505050506040513d601f19601f8201168201806040525081019061054c9190611a4d565b6105569084611a7c565b6104829190611aa9565b600054610100900460ff16158080156105805750600054600160ff909116105b8061059a5750303b15801561059a575060005460ff166001145b6106025760405162461bcd60e51b815260206004820152602e60248201527f496e697469616c697a61626c653a20636f6e747261637420697320616c72656160448201526d191e481a5b9a5d1a585b1a5e995960921b60648201526084015b60405180910390fd5b6000805460ff191660011790558015610625576000805461ff0019166101001790555b603c6106318482611b1a565b50603d61063e8382611b1a565b50603580546001600160a01b038087166001600160a01b03199283161790925560368054928816929091169190911790556040805180820190915260018152603160f81b6020820152610692908490610eaf565b80156106d8576000805461ff0019169055604051600181527f7f26b83ff96e1f2b6a682f133852f6798a09c465da95921460cefb38474024989060200160405180910390a15b5050505050565b60006106ec843384610ee4565b6106f7848484610f5e565b5060015b9392505050565b60006104c4611059565b600061049533848461071e3388610c2c565b6107289190611bda565b610cfd565b60006107376110d4565b610742576000610482565b60001992915050565b60006104828260006110f5565b6001600160a01b03811660009081526039602052604081205461048290610475565b6000806000838060200190518101906107939190611bed565b815191935091506107a38261072d565b8111156107f25760405162461bcd60e51b815260206004820152601e60248201527f455243343632363a206465706f736974206d6f7265207468616e206d6178000060448201526064016105f9565b6035546001600160a01b031663b50f68fd6108156036546001600160a01b031690565b604080516001600160e01b031960e085901b1681526001600160a01b0390921660048301523360248301528651604483015260208701516064830152860151608482015260a401600060405180830381600087803b15801561087657600080fd5b505af115801561088a573d6000803e3d6000fd5b50505050600061089960375490565b156108ac576108a782610c57565b6108ae565b815b905081603860008282546108c29190611bda565b9250508190555080603760008282546108db9190611bda565b90915550506001600160a01b039092166000908152603960205260409020805483019055509392505050565b6001600160a01b0381166000908152603a6020526040812054610482565b3360009081526039602052604081205460006109448560000151610afd565b90508082101561097757604051633803cef960e11b815233600482015260248101839052604481018290526064016105f9565b60006109828261074b565b603554604080516334347a5560e21b81528951600482015260208a01516024820152908901516044820152606089015160648201523060848201523360a48201526001600160a01b0388811660c48301529293506000929091169063d0d1e9549060e4016020604051808303816000875af1158015610a05573d6000803e3d6000fd5b505050506040513d601f19601f82011682018060405250810190610a299190611a4d565b6035546001600160a01b0316600090815260396020526040812080549190556037805491909103905560388054939093039092555095945050505050565b6060603d80546103f2906119db565b600080610a833385610c2c565b905082811015610ae35760405162461bcd60e51b815260206004820152602560248201527f45524332303a2064656372656173656420616c6c6f77616e63652062656c6f77604482015264207a65726f60d81b60648201526084016105f9565b6106f73385858403610cfd565b6000610495338484610f5e565b6000610482826000610e21565b83421115610b345760405163233730db60e11b8152600481018590524260248201526044016105f9565b60007f6e71edae12b1b97f4d1f60370fef10105fa2faae0126114a169c64845d6126c9888888610b638c611179565b6040805160208101969096526001600160a01b0394851690860152929091166060840152608083015260a082015260c0810186905260e0016040516020818303038152906040528051906020012090506000610bbe826111a1565b90506000610bce828787876111ef565b9050896001600160a01b0316816001600160a01b031614610c1557604051630189c63360e31b81526001600160a01b03808c1660048301528a1660248201526044016105f9565b610c208a8a8a610cfd565b50505050505050505050565b6001600160a01b039182166000908152603b6020908152604080832093909416825291909152205490565b6000610482826000611217565b60006106fb610c7260375490565b603560009054906101000a90046001600160a01b03166001600160a01b03166345089e296040518163ffffffff1660e01b8152600401602060405180830381865afa158015610cc5573d6000803e3d6000fd5b505050506040513d601f19601f82011682018060405250810190610ce99190611a4d565b610cf39190611aa9565b849060018561122d565b6001600160a01b038316610d5f5760405162461bcd60e51b8152602060048201526024808201527f45524332303a20617070726f76652066726f6d20746865207a65726f206164646044820152637265737360e01b60648201526084016105f9565b6001600160a01b038216610dc05760405162461bcd60e51b815260206004820152602260248201527f45524332303a20617070726f766520746f20746865207a65726f206164647265604482015261737360f01b60648201526084016105f9565b6001600160a01b038381166000818152603b602090815260408083209487168084529482529182902085905590518481527f8c5be1e5ebec7d5bd14f71427d1e84f3dd0314c0f7b2291e5b200ac8c7c3b925910160405180910390a3505050565b60006106fb610e2f60375490565b603560009054906101000a90046001600160a01b03166001600160a01b03166345089e296040518163ffffffff1660e01b8152600401602060405180830381865afa158015610e82573d6000803e3d6000fd5b505050506040513d601f19601f82011682018060405250810190610ea69190611a4d565b8591908561122d565b600054610100900460ff16610ed65760405162461bcd60e51b81526004016105f990611c62565b610ee0828261128a565b5050565b6000610ef08484610c2c565b90506000198114610f585781811015610f4b5760405162461bcd60e51b815260206004820152601d60248201527f45524332303a20696e73756666696369656e7420616c6c6f77616e636500000060448201526064016105f9565b610f588484848403610cfd565b50505050565b6001600160a01b038316610f9057604051634b637e8f60e11b81526001600160a01b03841660048201526024016105f9565b6001600160a01b038216610fc25760405163ec442f0560e01b81526001600160a01b03831660048201526024016105f9565b6000610fcd82610afd565b6001600160a01b038516600090815260396020526040902054909150818110156110235760405163391434e360e21b81526001600160a01b038616600482015260248101829052604481018390526064016105f9565b6001600160a01b039485166000908152603960205260408082209284900390925593909416835292909120805490920190915550565b60006104c47f8b73c3c69bb8fe3d512ecc4cf759cc79239f7b179b0ffacaa9a75d522b39400f61108860015490565b6002546040805160208101859052908101839052606081018290524660808201523060a082015260009060c0016040516020818303038152906040528051906020012090509392505050565b6000806110e060385490565b11806104c457506110ef6104ab565b15905090565b60006106fb603560009054906101000a90046001600160a01b03166001600160a01b03166345089e296040518163ffffffff1660e01b8152600401602060405180830381865afa15801561114d573d6000803e3d6000fd5b505050506040513d601f19601f820116820180604052508101906111719190611a4d565b610ea66104ab565b6001600160a01b0381166000908152603a602052604090208054600181018255905b50919050565b60006104826111ae611059565b8360405161190160f01b6020820152602281018390526042810182905260009060620160405160208183030381529060405280519060200120905092915050565b6000806000611200878787876112cb565b9150915061120d816113b8565b5095945050505050565b60006106fb61122560375490565b603854610ea6565b60008061123b868686611571565b9050600183600281111561125157611251611a0f565b14801561126e57506000848061126957611269611a93565b868809115b156112815761127e600182611bda565b90505b95945050505050565b600054610100900460ff166112b15760405162461bcd60e51b81526004016105f990611c62565b815160209283012081519190920120600191909155600255565b6000807f7fffffffffffffffffffffffffffffff5d576e7357a4501ddfe92f46681b20a083111561130257506000905060036113af565b8460ff16601b1415801561131a57508460ff16601c14155b1561132b57506000905060046113af565b6040805160008082526020820180845289905260ff881692820192909252606081018690526080810185905260019060a0016020604051602081039080840390855afa15801561137f573d6000803e3d6000fd5b5050604051601f1901519150506001600160a01b0381166113a8576000600192509250506113af565b9150600090505b94509492505050565b60008160048111156113cc576113cc611a0f565b036113d45750565b60018160048111156113e8576113e8611a0f565b036114355760405162461bcd60e51b815260206004820152601860248201527f45434453413a20696e76616c6964207369676e6174757265000000000000000060448201526064016105f9565b600281600481111561144957611449611a0f565b036114965760405162461bcd60e51b815260206004820152601f60248201527f45434453413a20696e76616c6964207369676e6174757265206c656e6774680060448201526064016105f9565b60038160048111156114aa576114aa611a0f565b036115025760405162461bcd60e51b815260206004820152602260248201527f45434453413a20696e76616c6964207369676e6174757265202773272076616c604482015261756560f01b60648201526084016105f9565b600481600481111561151657611516611a0f565b0361156e5760405162461bcd60e51b815260206004820152602260248201527f45434453413a20696e76616c6964207369676e6174757265202776272076616c604482015261756560f01b60648201526084016105f9565b50565b60008080600019858709858702925082811083820303915050806000036115ab578382816115a1576115a1611a93565b04925050506106fb565b8084116115b757600080fd5b60008486880960026001871981018816978890046003810283188082028403028082028403028082028403028082028403028082028403029081029092039091026000889003889004909101858311909403939093029303949094049190911702949350505050565b600060208083528351808285015260005b8181101561164d57858101830151858201604001528201611631565b506000604082860101526040601f19601f8301168501019250505092915050565b60006020828403121561168057600080fd5b5035919050565b6001600160a01b038116811461156e57600080fd5b600080604083850312156116af57600080fd5b82356116ba81611687565b946020939093013593505050565b634e487b7160e01b600052604160045260246000fd5b600067ffffffffffffffff808411156116f9576116f96116c8565b604051601f8501601f19908116603f01168101908282118183101715611721576117216116c8565b8160405280935085815286868601111561173a57600080fd5b858560208301376000602087830101525050509392505050565b600082601f83011261176557600080fd5b6106fb838335602085016116de565b6000806000806080858703121561178a57600080fd5b843561179581611687565b935060208501356117a581611687565b9250604085013567ffffffffffffffff808211156117c257600080fd5b6117ce88838901611754565b935060608701359150808211156117e457600080fd5b506117f187828801611754565b91505092959194509250565b60008060006060848603121561181257600080fd5b833561181d81611687565b9250602084013561182d81611687565b929592945050506040919091013590565b60006020828403121561185057600080fd5b81356106fb81611687565b60006020828403121561186d57600080fd5b813567ffffffffffffffff81111561188457600080fd5b8201601f8101841361189557600080fd5b6118a4848235602084016116de565b949350505050565b60008082840360a08112156118c057600080fd5b60808112156118ce57600080fd5b506040516080810181811067ffffffffffffffff821117156118f2576118f26116c8565b80604052508335815260208401356020820152604084013560408201526060840135606082015280925050608083013561192b81611687565b809150509250929050565b600080600080600080600060e0888a03121561195157600080fd5b873561195c81611687565b9650602088013561196c81611687565b95506040880135945060608801359350608088013560ff8116811461199057600080fd5b9699959850939692959460a0840135945060c09093013592915050565b600080604083850312156119c057600080fd5b82356119cb81611687565b9150602083013561192b81611687565b600181811c908216806119ef57607f821691505b60208210810361119b57634e487b7160e01b600052602260045260246000fd5b634e487b7160e01b600052602160045260246000fd5b6020810160028310611a4757634e487b7160e01b600052602160045260246000fd5b91905290565b600060208284031215611a5f57600080fd5b5051919050565b634e487b7160e01b600052601160045260246000fd5b808202811582820484141761048257610482611a66565b634e487b7160e01b600052601260045260246000fd5b600082611ac657634e487b7160e01b600052601260045260246000fd5b500490565b601f821115611b1557600081815260208120601f850160051c81016020861015611af25750805b601f850160051c820191505b81811015611b1157828155600101611afe565b5050505b505050565b815167ffffffffffffffff811115611b3457611b346116c8565b611b4881611b4284546119db565b84611acb565b602080601f831160018114611b7d5760008415611b655750858301515b600019600386901b1c1916600185901b178555611b11565b600085815260208120601f198616915b82811015611bac57888601518255948401946001909101908401611b8d565b5085821015611bca5787850151600019600388901b60f8161c191681555b5050505050600190811b01905550565b8082018082111561048257610482611a66565b6000808284036080811215611c0157600080fd5b6060811215611c0f57600080fd5b506040516060810181811067ffffffffffffffff82111715611c3357611c336116c8565b806040525083518152602084015160208201526040840151604082015280925050606083015161192b81611687565b6020808252602b908201527f496e697469616c697a61626c653a20636f6e7472616374206973206e6f74206960408201526a6e697469616c697a696e6760a81b60608201526080019056fea26469706673582212206ed33d92193b66001e70233e1916eeab8fcb06093cb61da3cf7ca1ee95c4f2bb64736f6c63430008150033",
    "linkReferences": {}
  },
  "methodIdentifiers": {
    "DOMAIN_SEPARATOR()": "3644e515",
    "allowance(address,address)": "dd62ed3e",
    "approve(address,uint256)": "095ea7b3",
    "asset()": "38d52e0f",
    "balanceOf(address)": "70a08231",
    "burn((uint256,uint256,uint256,uint256),address)": "8c490d51",
    "convertToAssets(uint256)": "07a2d13a",
    "convertToShares(uint256)": "c6e6f592",
    "convertToUnderlying(uint256)": "1dc7f521",
    "decimals()": "313ce567",
    "decreaseAllowance(address,uint256)": "a457c2d7",
    "increaseAllowance(address,uint256)": "39509351",
    "initialize(address,address,string,string)": "2016a0d2",
    "maxDeposit(address)": "402d267d",
    "mint(bytes)": "7ba0e2e7",
    "name()": "06fdde03",
    "nonces(address)": "7ecebe00",
    "permit(address,address,uint256,uint256,uint8,bytes32,bytes32)": "d505accf",
    "previewDeposit(uint256)": "ef8b30f7",
    "previewRedeem(uint256)": "4cdad506",
    "previewWithdraw(uint256)": "0a28a477",
    "sharesOf(address)": "f5eb42dc",
    "symbol()": "95d89b41",
    "totalAssets()": "01e1d114",
    "totalShares()": "3a98ef39",
    "totalSupply()": "18160ddd",
    "transfer(address,uint256)": "a9059cbb",
    "transferFrom(address,address,uint256)": "23b872dd"
  },
  "id": 26
}