{
  "abi": [
    {
      "inputs": [],
      "stateMutability": "nonpayable",
      "type": "constructor"
    },
    {
      "inputs": [],
      "name": "OZError03",
      "type": "error"
    },
    {
      "inputs": [
        {
          "internalType": "address",
          "name": "from",
          "type": "address"
        },
        {
          "internalType": "address",
          "name": "to",
          "type": "address"
        }
      ],
      "name": "OZError04",
      "type": "error"
    },
    {
      "inputs": [
        {
          "internalType": "uint256",
          "name": "amount",
          "type": "uint256"
        }
      ],
      "name": "OZError05",
      "type": "error"
    },
    {
      "inputs": [
        {
          "internalType": "address",
          "name": "sender",
          "type": "address"
        },
        {
          "internalType": "uint256",
          "name": "accountShares",
          "type": "uint256"
        },
        {
          "internalType": "uint256",
          "name": "shares",
          "type": "uint256"
        }
      ],
      "name": "OZError06",
      "type": "error"
    },
    {
      "inputs": [
        {
          "internalType": "address",
          "name": "from",
          "type": "address"
        },
        {
          "internalType": "uint256",
          "name": "fromShares",
          "type": "uint256"
        },
        {
          "internalType": "uint256",
          "name": "shares",
          "type": "uint256"
        }
      ],
      "name": "OZError07",
      "type": "error"
    },
    {
      "inputs": [
        {
          "internalType": "uint256",
          "name": "deadline",
          "type": "uint256"
        },
        {
          "internalType": "uint256",
          "name": "blockTimestamp",
          "type": "uint256"
        }
      ],
      "name": "OZError08",
      "type": "error"
    },
    {
      "inputs": [
        {
          "internalType": "address",
          "name": "owner",
          "type": "address"
        },
        {
          "internalType": "address",
          "name": "spender",
          "type": "address"
        }
      ],
      "name": "OZError09",
      "type": "error"
    },
    {
      "inputs": [
        {
          "internalType": "string",
          "name": "reason",
          "type": "string"
        }
      ],
      "name": "OZError22",
      "type": "error"
    },
    {
      "anonymous": false,
      "inputs": [
        {
          "indexed": true,
          "internalType": "address",
          "name": "owner",
          "type": "address"
        },
        {
          "indexed": true,
          "internalType": "address",
          "name": "spender",
          "type": "address"
        },
        {
          "indexed": false,
          "internalType": "uint256",
          "name": "value",
          "type": "uint256"
        }
      ],
      "name": "Approval",
      "type": "event"
    },
    {
      "anonymous": false,
      "inputs": [
        {
          "indexed": false,
          "internalType": "uint8",
          "name": "version",
          "type": "uint8"
        }
      ],
      "name": "Initialized",
      "type": "event"
    },
    {
      "anonymous": false,
      "inputs": [
        {
          "indexed": true,
          "internalType": "address",
          "name": "from",
          "type": "address"
        },
        {
          "indexed": true,
          "internalType": "address",
          "name": "to",
          "type": "address"
        },
        {
          "indexed": false,
          "internalType": "uint256",
          "name": "value",
          "type": "uint256"
        }
      ],
      "name": "Transfer",
      "type": "event"
    },
    {
      "inputs": [],
      "name": "DOMAIN_SEPARATOR",
      "outputs": [
        {
          "internalType": "bytes32",
          "name": "",
          "type": "bytes32"
        }
      ],
      "stateMutability": "view",
      "type": "function"
    },
    {
      "inputs": [],
      "name": "FORMAT_DECIMALS",
      "outputs": [
        {
          "internalType": "uint256",
          "name": "",
          "type": "uint256"
        }
      ],
      "stateMutability": "view",
      "type": "function"
    },
    {
      "inputs": [
        {
          "internalType": "address",
          "name": "owner",
          "type": "address"
        },
        {
          "internalType": "address",
          "name": "spender",
          "type": "address"
        }
      ],
      "name": "allowance",
      "outputs": [
        {
          "internalType": "uint256",
          "name": "",
          "type": "uint256"
        }
      ],
      "stateMutability": "view",
      "type": "function"
    },
    {
      "inputs": [
        {
          "internalType": "address",
          "name": "spender",
          "type": "address"
        },
        {
          "internalType": "uint256",
          "name": "amount",
          "type": "uint256"
        }
      ],
      "name": "approve",
      "outputs": [
        {
          "internalType": "bool",
          "name": "",
          "type": "bool"
        }
      ],
      "stateMutability": "nonpayable",
      "type": "function"
    },
    {
      "inputs": [],
      "name": "asset",
      "outputs": [
        {
          "internalType": "address",
          "name": "",
          "type": "address"
        }
      ],
      "stateMutability": "view",
      "type": "function"
    },
    {
      "inputs": [
        {
          "internalType": "address",
          "name": "account_",
          "type": "address"
        }
      ],
      "name": "balanceOf",
      "outputs": [
        {
          "internalType": "uint256",
          "name": "",
          "type": "uint256"
        }
      ],
      "stateMutability": "view",
      "type": "function"
    },
    {
      "inputs": [],
      "name": "claimReward",
      "outputs": [
        {
          "internalType": "uint256",
          "name": "",
          "type": "uint256"
        }
      ],
      "stateMutability": "nonpayable",
      "type": "function"
    },
    {
      "inputs": [
        {
          "internalType": "uint256",
          "name": "shares",
          "type": "uint256"
        }
      ],
      "name": "convertToAssets",
      "outputs": [
        {
          "internalType": "uint256",
          "name": "assets",
          "type": "uint256"
        }
      ],
      "stateMutability": "view",
      "type": "function"
    },
    {
      "inputs": [
        {
          "internalType": "uint256",
          "name": "assets",
          "type": "uint256"
        }
      ],
      "name": "convertToShares",
      "outputs": [
        {
          "internalType": "uint256",
          "name": "shares",
          "type": "uint256"
        }
      ],
      "stateMutability": "view",
      "type": "function"
    },
    {
      "inputs": [
        {
          "internalType": "uint256",
          "name": "shares_",
          "type": "uint256"
        }
      ],
      "name": "convertToUnderlying",
      "outputs": [
        {
          "internalType": "uint256",
          "name": "amountUnderlying",
          "type": "uint256"
        }
      ],
      "stateMutability": "view",
      "type": "function"
    },
    {
      "inputs": [],
      "name": "decimals",
      "outputs": [
        {
          "internalType": "uint8",
          "name": "",
          "type": "uint8"
        }
      ],
      "stateMutability": "pure",
      "type": "function"
    },
    {
      "inputs": [
        {
          "internalType": "address",
          "name": "spender",
          "type": "address"
        },
        {
          "internalType": "uint256",
          "name": "subtractedValue",
          "type": "uint256"
        }
      ],
      "name": "decreaseAllowance",
      "outputs": [
        {
          "internalType": "bool",
          "name": "",
          "type": "bool"
        }
      ],
      "stateMutability": "nonpayable",
      "type": "function"
    },
    {
      "inputs": [
        {
          "internalType": "address",
          "name": "user_",
          "type": "address"
        }
      ],
      "name": "earned",
      "outputs": [
        {
          "internalType": "uint256",
          "name": "",
          "type": "uint256"
        }
      ],
      "stateMutability": "view",
      "type": "function"
    },
    {
      "inputs": [],
      "name": "getRewardsData",
      "outputs": [
        {
          "internalType": "uint256",
          "name": "rewardRate",
          "type": "uint256"
        },
        {
          "internalType": "uint256",
          "name": "circulatingSupply",
          "type": "uint256"
        },
        {
          "internalType": "uint256",
          "name": "pendingAllocation",
          "type": "uint256"
        },
        {
          "internalType": "uint256",
          "name": "recicledSupply",
          "type": "uint256"
        },
        {
          "internalType": "int256",
          "name": "durationLeft",
          "type": "int256"
        }
      ],
      "stateMutability": "view",
      "type": "function"
    },
    {
      "inputs": [
        {
          "internalType": "address",
          "name": "spender",
          "type": "address"
        },
        {
          "internalType": "uint256",
          "name": "addedValue",
          "type": "uint256"
        }
      ],
      "name": "increaseAllowance",
      "outputs": [
        {
          "internalType": "bool",
          "name": "",
          "type": "bool"
        }
      ],
      "stateMutability": "nonpayable",
      "type": "function"
    },
    {
      "inputs": [
        {
          "internalType": "address",
          "name": "underlying_",
          "type": "address"
        },
        {
          "internalType": "address",
          "name": "diamond_",
          "type": "address"
        },
        {
          "internalType": "string",
          "name": "name_",
          "type": "string"
        },
        {
          "internalType": "string",
          "name": "symbol_",
          "type": "string"
        }
      ],
      "name": "initialize",
      "outputs": [],
      "stateMutability": "nonpayable",
      "type": "function"
    },
    {
      "inputs": [],
      "name": "lastTimeRewardApplicable",
      "outputs": [
        {
          "internalType": "uint256",
          "name": "",
          "type": "uint256"
        }
      ],
      "stateMutability": "view",
      "type": "function"
    },
    {
      "inputs": [
        {
          "internalType": "bytes",
          "name": "data_",
          "type": "bytes"
        }
      ],
      "name": "mint",
      "outputs": [
        {
          "internalType": "uint256",
          "name": "",
          "type": "uint256"
        }
      ],
      "stateMutability": "nonpayable",
      "type": "function"
    },
    {
      "inputs": [],
      "name": "name",
      "outputs": [
        {
          "internalType": "string",
          "name": "",
          "type": "string"
        }
      ],
      "stateMutability": "view",
      "type": "function"
    },
    {
      "inputs": [
        {
          "internalType": "address",
          "name": "owner",
          "type": "address"
        }
      ],
      "name": "nonces",
      "outputs": [
        {
          "internalType": "uint256",
          "name": "",
          "type": "uint256"
        }
      ],
      "stateMutability": "view",
      "type": "function"
    },
    {
      "inputs": [
        {
          "internalType": "uint256",
          "name": "amount_",
          "type": "uint256"
        }
      ],
      "name": "notifyRewardAmount",
      "outputs": [],
      "stateMutability": "nonpayable",
      "type": "function"
    },
    {
      "inputs": [
        {
          "internalType": "address",
          "name": "owner",
          "type": "address"
        },
        {
          "internalType": "address",
          "name": "spender",
          "type": "address"
        },
        {
          "internalType": "uint256",
          "name": "value",
          "type": "uint256"
        },
        {
          "internalType": "uint256",
          "name": "deadline",
          "type": "uint256"
        },
        {
          "internalType": "uint8",
          "name": "v",
          "type": "uint8"
        },
        {
          "internalType": "bytes32",
          "name": "r",
          "type": "bytes32"
        },
        {
          "internalType": "bytes32",
          "name": "s_",
          "type": "bytes32"
        }
      ],
      "name": "permit",
      "outputs": [],
      "stateMutability": "nonpayable",
      "type": "function"
    },
    {
      "inputs": [
        {
          "internalType": "uint256",
          "name": "assets_",
          "type": "uint256"
        }
      ],
      "name": "previewMint",
      "outputs": [
        {
          "internalType": "uint256",
          "name": "",
          "type": "uint256"
        }
      ],
      "stateMutability": "view",
      "type": "function"
    },
    {
      "inputs": [
        {
          "internalType": "uint256",
          "name": "shares_",
          "type": "uint256"
        }
      ],
      "name": "previewRedeem",
      "outputs": [
        {
          "internalType": "uint256",
          "name": "",
          "type": "uint256"
        }
      ],
      "stateMutability": "view",
      "type": "function"
    },
    {
      "inputs": [
        {
          "internalType": "uint256",
          "name": "assets",
          "type": "uint256"
        }
      ],
      "name": "previewWithdraw",
      "outputs": [
        {
          "internalType": "uint256",
          "name": "",
          "type": "uint256"
        }
      ],
      "stateMutability": "view",
      "type": "function"
    },
    {
      "inputs": [
        {
          "internalType": "bytes",
          "name": "data_",
          "type": "bytes"
        }
      ],
      "name": "redeem",
      "outputs": [
        {
          "internalType": "uint256",
          "name": "",
          "type": "uint256"
        }
      ],
      "stateMutability": "nonpayable",
      "type": "function"
    },
    {
      "inputs": [],
      "name": "rewardPerToken",
      "outputs": [
        {
          "internalType": "uint256",
          "name": "",
          "type": "uint256"
        }
      ],
      "stateMutability": "view",
      "type": "function"
    },
    {
      "inputs": [
        {
          "internalType": "uint256",
          "name": "duration_",
          "type": "uint256"
        }
      ],
      "name": "setRewardsDuration",
      "outputs": [],
      "stateMutability": "nonpayable",
      "type": "function"
    },
    {
      "inputs": [
        {
          "internalType": "address",
          "name": "account_",
          "type": "address"
        }
      ],
      "name": "sharesOf",
      "outputs": [
        {
          "internalType": "uint256",
          "name": "",
          "type": "uint256"
        }
      ],
      "stateMutability": "view",
      "type": "function"
    },
    {
      "inputs": [],
      "name": "symbol",
      "outputs": [
        {
          "internalType": "string",
          "name": "",
          "type": "string"
        }
      ],
      "stateMutability": "view",
      "type": "function"
    },
    {
      "inputs": [],
      "name": "totalAssets",
      "outputs": [
        {
          "internalType": "uint256",
          "name": "",
          "type": "uint256"
        }
      ],
      "stateMutability": "view",
      "type": "function"
    },
    {
      "inputs": [],
      "name": "totalShares",
      "outputs": [
        {
          "internalType": "uint256",
          "name": "",
          "type": "uint256"
        }
      ],
      "stateMutability": "view",
      "type": "function"
    },
    {
      "inputs": [],
      "name": "totalSupply",
      "outputs": [
        {
          "internalType": "uint256",
          "name": "",
          "type": "uint256"
        }
      ],
      "stateMutability": "view",
      "type": "function"
    },
    {
      "inputs": [
        {
          "internalType": "address",
          "name": "to",
          "type": "address"
        },
        {
          "internalType": "uint256",
          "name": "amount",
          "type": "uint256"
        }
      ],
      "name": "transfer",
      "outputs": [
        {
          "internalType": "bool",
          "name": "",
          "type": "bool"
        }
      ],
      "stateMutability": "nonpayable",
      "type": "function"
    },
    {
      "inputs": [
        {
          "internalType": "address",
          "name": "from",
          "type": "address"
        },
        {
          "internalType": "address",
          "name": "to",
          "type": "address"
        },
        {
          "internalType": "uint256",
          "name": "amount",
          "type": "uint256"
        }
      ],
      "name": "transferFrom",
      "outputs": [
        {
          "internalType": "bool",
          "name": "",
          "type": "bool"
        }
      ],
      "stateMutability": "nonpayable",
      "type": "function"
    }
  ],
  "bytecode": {
    "object": "0x608060405234801561001057600080fd5b5061001961001e565b6100de565b602454610100900460ff161561008a5760405162461bcd60e51b815260206004820152602760248201527f496e697469616c697a61626c653a20636f6e747261637420697320696e697469604482015266616c697a696e6760c81b606482015260840160405180910390fd5b60245460ff90811610156100dc576024805460ff191660ff9081179091556040519081527f7f26b83ff96e1f2b6a682f133852f6798a09c465da95921460cefb38474024989060200160405180910390a15b565b61212380620000ee6000396000f3fe608060405234801561001057600080fd5b50600436106102105760003560e01c806370a0823111610125578063a9059cbb116100ad578063cc1a378f1161007c578063cc1a378f14610332578063cd3daf9d146103bc578063d505accf14610420578063dd62ed3e14610433578063f5eb42dc1461044657600080fd5b8063a9059cbb146103fa578063b3d7f6b91461040d578063b88a802f146103bc578063c6e6f5921461028f57600080fd5b806380faa57d116100f457806380faa57d146103bc57806395d89b41146103c35780639945e3d3146103cb578063a01c8774146103de578063a457c2d7146103e757600080fd5b806370a08231146103565780637ba0e2e7146103695780637d098e641461037c5780637ecebe00146103a957600080fd5b80632016a0d2116101a857806338d52e0f1161017757806338d52e0f146102fc57806339509351146103175780633a98ef391461032a5780633c6b16ab146103325780634cdad5061461034357600080fd5b80632016a0d2146102bd57806323b872dd146102d2578063313ce567146102e55780633644e515146102f457600080fd5b8063095ea7b3116101e4578063095ea7b31461026c5780630a28a4771461028f57806318160ddd146102a25780631dc7f521146102aa57600080fd5b80628cc2621461021557806301e1d1141461023c57806306fdde031461024457806307a2d13a14610259575b600080fd5b610229610223366004611801565b50600090565b6040519081526020015b60405180910390f35b61022961046f565b61024c610484565b6040516102339190611864565b610229610267366004611877565b610516565b61027f61027a366004611890565b610527565b6040519015158152602001610233565b61022961029d366004611877565b61053d565b610229610548565b6102296102b8366004611877565b610567565b6102d06102cb36600461197d565b6105f7565b005b61027f6102e0366004611a06565b6107fa565b60405160128152602001610233565b61022961081c565b605a546040516001600160a01b039091168152602001610233565b61027f610325366004611890565b610826565b610229610847565b6102d0610340366004611877565b50565b610229610351366004611877565b610858565b610229610364366004611801565b610863565b610229610377366004611a47565b610885565b6040805160008082526020820181905291810182905260608101829052608081019190915260a001610233565b6102296103b7366004611801565b610aad565b6000610229565b61024c610acb565b6102296103d9366004611a47565b610ad9565b61022960615481565b61027f6103f5366004611890565b610cda565b61027f610408366004611890565b610d17565b61022961041b366004611877565b610d24565b6102d061042e366004611a9f565b610d2f565b610229610441366004611b10565b610e51565b610229610454366004611801565b6001600160a01b03166000908152605c602052604090205490565b605b5460009061047f9082610e7c565b905090565b6060605f805461049390611b49565b80601f01602080910402602001604051908101604052809291908181526020018280546104bf90611b49565b801561050c5780601f106104e15761010080835404028352916020019161050c565b820191906000526020600020905b8154815290600101906020018083116104ef57829003601f168201915b5050505050905090565b600061052182610ebf565b92915050565b6000610534338484610f60565b50600192915050565b60006105218261100f565b6000610552610847565b156102235761047f610562610847565b610ebf565b6000610571610847565b60595460405163a4fc284b60e01b81526001600160a01b039091169063a4fc284b906105a290600190600401611b93565b602060405180830381865afa1580156105bf573d6000803e3d6000fd5b505050506040513d601f19601f820116820180604052508101906105e39190611bbb565b6105ed9084611bea565b6105219190611c01565b602454610100900460ff16158080156106175750602454600160ff909116105b806106315750303b158015610631575060245460ff166001145b6106995760405162461bcd60e51b815260206004820152602e60248201527f496e697469616c697a61626c653a20636f6e747261637420697320616c72656160448201526d191e481a5b9a5d1a585b1a5e995960921b60648201526084015b60405180910390fd5b6024805460ff1916600117905580156106bc576024805461ff0019166101001790555b605f6106c88482611c6e565b5060606106d58382611c6e565b50605980546001600160a01b038087166001600160a01b031992831617909255605a8054928816929091169190911790556040805180820190915260018152603160f81b6020820152610729908490611091565b846001600160a01b031663313ce5676040518163ffffffff1660e01b8152600401602060405180830381865afa158015610767573d6000803e3d6000fd5b505050506040513d601f19601f8201168201806040525081019061078b9190611d2e565b60ff1660121461079c5760016107a3565b64e8d4a510005b64ffffffffff1660615580156107f3576024805461ff0019169055604051600181527f7f26b83ff96e1f2b6a682f133852f6798a09c465da95921460cefb38474024989060200160405180910390a15b5050505050565b60006108078433846110c6565b610812848484611114565b5060019392505050565b600061047f611232565b60006105343384846108383388610e51565b6108429190611d4b565b610f60565b605b5460009061047f906001610e7c565b6000610521826112ad565b6001600160a01b0381166000908152605c602052604081205461052190610516565b60595460009033906001600160a01b031680156108fb576040516241fec360e31b81526001600160a01b03838116600483015282169063020ff61890602401600060405180830381600087803b1580156108de57600080fd5b505af11580156108f2573d6000803e3d6000fd5b5050505061093d565b6000601c556000601a556001600160a01b0382161561093d576001600160a01b038216600090815260208080526040808320839055601c54601f909252909120555b6000806000868060200190518101906109569190611ddf565b6061548351939650919450925060009161096f91611330565b6059549091506001600160a01b0316639ea04fe4610995605a546001600160a01b031690565b85876040518463ffffffff1660e01b81526004016109b593929190611e96565b6020604051808303816000875af19250505080156109f0575060408051601f3d908101601f191682019092526109ed91810190611bbb565b60015b610a42576109fc611f0f565b806308c379a003610a365750610a10611f2b565b80610a1b5750610a38565b80604051631bc63b8160e01b81526004016106909190611864565b505b3d6000803e3d6000fd5b610a4d816001611343565b6000610a57610847565b15610a6a57610a6583610d24565b610a6c565b825b9050610a7a838260016113b3565b6001600160a01b039093166000908152605c6020526040902080548401905550909550610aa692505050565b5050919050565b6001600160a01b0381166000908152605d6020526040812054610521565b606080805461049390611b49565b60595460009033906001600160a01b03168015610b4f576040516241fec360e31b81526001600160a01b03838116600483015282169063020ff61890602401600060405180830381600087803b158015610b3257600080fd5b505af1158015610b46573d6000803e3d6000fd5b50505050610b91565b6000601c556000601a556001600160a01b03821615610b91576001600160a01b038216600090815260208080526040808320839055601c54601f909252909120555b600084806020019051810190610ba79190611fb5565b50336000908152605c6020526040812054825192935091610bc79061053d565b905080821015610bfa57604051637ac073bf60e01b81523360048201526024810183905260448101829052606401610690565b6000610c0582610858565b6059546040516314370d6760e31b81529192506001600160a01b03169063a1b86b3890610c389033908c9060040161205a565b60408051808303816000875af1925050508015610c72575060408051601f3d908101601f19168201909252610c6f9181019061207e565b60015b610c7e576109fc611f0f565b610c89826000611343565b6059546001600160a01b03166000908152605c60205260409020549450610cb2838660006113b3565b6059546001600160a01b03166000908152605c60205260408120559750610aa6945050505050565b600080610ce73385610e51565b905082811015610d0a576040516361ceb1d360e01b815260040160405180910390fd5b6108123385858403610f60565b6000610534338484611114565b600061052182611411565b83421115610d595760405163184f1e0160e11b815260048101859052426024820152604401610690565b60007f6e71edae12b1b97f4d1f60370fef10105fa2faae0126114a169c64845d6126c9888888610d888c611426565b6040805160208101969096526001600160a01b0394851690860152929091166060840152608083015260a082015260c0810186905260e0016040516020818303038152906040528051906020012090506000610de38261144e565b90506000610df38287878761149c565b9050896001600160a01b0316816001600160a01b031614610e3a57604051635091bef560e01b81526001600160a01b0380831660048301528b166024820152604401610690565b610e458a8a8a610f60565b50505050505050505050565b6001600160a01b039182166000908152605e6020908152604080832093909416825291909152205490565b60006fffffffffffffffffffffffffffffffff81836001811115610ea257610ea2611b7d565b14610eaf57838116610eb7565b608084901c81165b949350505050565b6000610521610ecc610847565b15610ede57610ed9610847565b610ee1565b60015b605954604051634be9756960e11b81523060048201526001600160a01b03909116906397d2ead290602401602060405180830381865afa158015610f29573d6000803e3d6000fd5b505050506040513d601f19601f82011682018060405250810190610f4d9190611bbb565b610f579190611c01565b839060016114c4565b6001600160a01b0383161580610f7d57506001600160a01b038216155b15610fae57604051637db368a160e01b81526001600160a01b03808516600483015283166024820152604401610690565b6001600160a01b038381166000818152605e602090815260408083209487168084529482529182902085905590518481527f8c5be1e5ebec7d5bd14f71427d1e84f3dd0314c0f7b2291e5b200ac8c7c3b925910160405180910390a3505050565b600061052161101c610847565b605954604051634be9756960e11b81526001600160a01b0390911660048201819052906397d2ead290602401602060405180830381865afa158015611065573d6000803e3d6000fd5b505050506040513d601f19601f820116820180604052508101906110899190611bbb565b8491906114e2565b602454610100900460ff166110b85760405162461bcd60e51b8152600401610690906120a2565b6110c28282611508565b5050565b60006110d28484610e51565b9050600019811461110e5781811015611101576040516306052b7f60e01b815260048101839052602401610690565b61110e8484848403610f60565b50505050565b6001600160a01b038316158061113157506001600160a01b038216155b1561116257604051637db368a160e01b81526001600160a01b03808516600483015283166024820152604401610690565b600061116d8261053d565b6001600160a01b0385166000908152605c6020526040902054909150818110156111c3576040516315c29bad60e31b81526001600160a01b03861660048201526024810182905260448101839052606401610690565b6001600160a01b038086166000818152605c602052604080822086860390559287168082529083902080548601905591517fddf252ad1be2c89b69c2b068fc378daa952ba7f163c4a11628f55a4df523b3ef906112239087815260200190565b60405180910390a35050505050565b600061047f7f8b73c3c69bb8fe3d512ecc4cf759cc79239f7b179b0ffacaa9a75d522b39400f61126160255490565b6026546040805160208101859052908101839052606081018290524660808201523060a082015260009060c0016040516020818303038152906040528051906020012090509392505050565b605954604051634be9756960e11b8152306004820152600091610521916001600160a01b03909116906397d2ead290602401602060405180830381865afa1580156112fc573d6000803e3d6000fd5b505050506040513d601f19601f820116820180604052508101906113209190611bbb565b611328610548565b8491906114c4565b600061133c8284611c01565b9392505050565b60595460405163b0ff97b560e01b81523060048201526024810184905282151560448201526001600160a01b039091169063b0ff97b590606401600060405180830381600087803b15801561139757600080fd5b505af11580156113ab573d6000803e3d6000fd5b505050505050565b605b546000906113c39082610e7c565b905060006113dd6001605b54610e7c90919063ffffffff16565b905082156113f0579084019083016113f9565b90849003908390035b61140782608083901b611d4b565b605b555050505050565b600061052161141e610847565b61132861046f565b6001600160a01b0381166000908152605d602052604090208054600181018255905b50919050565b600061052161145b611232565b8360405161190160f01b6020820152602281018390526042810182905260009060620160405160208183030381529060405280519060200120905092915050565b60008060006114ad87878787611549565b915091506114ba81611636565b5095945050505050565b60008260001904841183021582026114db57600080fd5b5091020490565b60008260001904841183021582026114f957600080fd5b50910281810615159190040190565b602454610100900460ff1661152f5760405162461bcd60e51b8152600401610690906120a2565b815160209283012081519190920120602591909155602655565b6000807f7fffffffffffffffffffffffffffffff5d576e7357a4501ddfe92f46681b20a0831115611580575060009050600361162d565b8460ff16601b1415801561159857508460ff16601c14155b156115a9575060009050600461162d565b6040805160008082526020820180845289905260ff881692820192909252606081018690526080810185905260019060a0016020604051602081039080840390855afa1580156115fd573d6000803e3d6000fd5b5050604051601f1901519150506001600160a01b0381166116265760006001925092505061162d565b9150600090505b94509492505050565b600081600481111561164a5761164a611b7d565b036116525750565b600181600481111561166657611666611b7d565b036116b35760405162461bcd60e51b815260206004820152601860248201527f45434453413a20696e76616c6964207369676e617475726500000000000000006044820152606401610690565b60028160048111156116c7576116c7611b7d565b036117145760405162461bcd60e51b815260206004820152601f60248201527f45434453413a20696e76616c6964207369676e6174757265206c656e677468006044820152606401610690565b600381600481111561172857611728611b7d565b036117805760405162461bcd60e51b815260206004820152602260248201527f45434453413a20696e76616c6964207369676e6174757265202773272076616c604482015261756560f01b6064820152608401610690565b600481600481111561179457611794611b7d565b036103405760405162461bcd60e51b815260206004820152602260248201527f45434453413a20696e76616c6964207369676e6174757265202776272076616c604482015261756560f01b6064820152608401610690565b6001600160a01b038116811461034057600080fd5b60006020828403121561181357600080fd5b813561133c816117ec565b6000815180845260005b8181101561184457602081850181015186830182015201611828565b506000602082860101526020601f19601f83011685010191505092915050565b60208152600061133c602083018461181e565b60006020828403121561188957600080fd5b5035919050565b600080604083850312156118a357600080fd5b82356118ae816117ec565b946020939093013593505050565b634e487b7160e01b600052604160045260246000fd5b601f8201601f1916810167ffffffffffffffff811182821017156118f8576118f86118bc565b6040525050565b600067ffffffffffffffff831115611919576119196118bc565b604051611930601f8501601f1916602001826118d2565b80915083815284848401111561194557600080fd5b83836020830137600060208583010152509392505050565b600082601f83011261196e57600080fd5b61133c838335602085016118ff565b6000806000806080858703121561199357600080fd5b843561199e816117ec565b935060208501356119ae816117ec565b9250604085013567ffffffffffffffff808211156119cb57600080fd5b6119d78883890161195d565b935060608701359150808211156119ed57600080fd5b506119fa8782880161195d565b91505092959194509250565b600080600060608486031215611a1b57600080fd5b8335611a26816117ec565b92506020840135611a36816117ec565b929592945050506040919091013590565b600060208284031215611a5957600080fd5b813567ffffffffffffffff811115611a7057600080fd5b8201601f81018413611a8157600080fd5b610eb7848235602084016118ff565b60ff8116811461034057600080fd5b600080600080600080600060e0888a031215611aba57600080fd5b8735611ac5816117ec565b96506020880135611ad5816117ec565b955060408801359450606088013593506080880135611af381611a90565b9699959850939692959460a0840135945060c09093013592915050565b60008060408385031215611b2357600080fd5b8235611b2e816117ec565b91506020830135611b3e816117ec565b809150509250929050565b600181811c90821680611b5d57607f821691505b60208210810361144857634e487b7160e01b600052602260045260246000fd5b634e487b7160e01b600052602160045260246000fd5b6020810160028310611bb557634e487b7160e01b600052602160045260246000fd5b91905290565b600060208284031215611bcd57600080fd5b5051919050565b634e487b7160e01b600052601160045260246000fd5b808202811582820484141761052157610521611bd4565b600082611c1e57634e487b7160e01b600052601260045260246000fd5b500490565b601f821115611c6957600081815260208120601f850160051c81016020861015611c4a5750805b601f850160051c820191505b818110156113ab57828155600101611c56565b505050565b815167ffffffffffffffff811115611c8857611c886118bc565b611c9c81611c968454611b49565b84611c23565b602080601f831160018114611cd15760008415611cb95750858301515b600019600386901b1c1916600185901b1785556113ab565b600085815260208120601f198616915b82811015611d0057888601518255948401946001909101908401611ce1565b5085821015611d1e5787850151600019600388901b60f8161c191681555b5050505050600190811b01905550565b600060208284031215611d4057600080fd5b815161133c81611a90565b8082018082111561052157610521611bd4565b600082601f830112611d6f57600080fd5b8151602067ffffffffffffffff821115611d8b57611d8b6118bc565b8160051b604051611d9e838301826118d2565b92835284810182019282810187851115611db757600080fd5b83870192505b84831015611dd45782518152918301918301611dbd565b509695505050505050565b600080600060608486031215611df457600080fd5b835167ffffffffffffffff80821115611e0c57600080fd5b9085019060408288031215611e2057600080fd5b604051604081018181108382111715611e3b57611e3b6118bc565b60405282518152602083015182811115611e5457600080fd5b611e6089828601611d5e565b6020830152508095505050506020840151611e7a816117ec565b6040850151909250611e8b816117ec565b809150509250925092565b600060018060a01b0380861683526020818616818501526060604085015260a08401915084516060850152808501516040608086015282815180855260c0870191508383019450600092505b80831015611f025784518252938301936001929092019190830190611ee2565b5098975050505050505050565b600060033d1115611f285760046000803e5060005160e01c5b90565b600060443d1015611f395790565b6040516003193d81016004833e81513d67ffffffffffffffff8160248401118184111715611f6957505050505090565b8285019150815181811115611f815750505050505090565b843d8701016020828501011115611f9b5750505050505090565b611faa602082860101876118d2565b509095945050505050565b60008060408385031215611fc857600080fd5b825167ffffffffffffffff80821115611fe057600080fd5b9084019060608287031215611ff457600080fd5b60405160608101818110838211171561200f5761200f6118bc565b8060405250825181526020830151602082015260408301518281111561203457600080fd5b61204088828601611d5e565b6040830152508094505050506020830151611b3e816117ec565b6001600160a01b0383168152604060208201819052600090610eb79083018461181e565b6000806040838503121561209157600080fd5b505080516020909101519092909150565b6020808252602b908201527f496e697469616c697a61626c653a20636f6e7472616374206973206e6f74206960408201526a6e697469616c697a696e6760a81b60608201526080019056fea2646970667358221220009b3e0fd62ea9c30eff0782c4194b00395f5a84ceaed0c2916ad69c0af88a1864736f6c63430008150033",
    "linkReferences": {}
  },
  "methodIdentifiers": {
    "DOMAIN_SEPARATOR()": "3644e515",
    "FORMAT_DECIMALS()": "a01c8774",
    "allowance(address,address)": "dd62ed3e",
    "approve(address,uint256)": "095ea7b3",
    "asset()": "38d52e0f",
    "balanceOf(address)": "70a08231",
    "claimReward()": "b88a802f",
    "convertToAssets(uint256)": "07a2d13a",
    "convertToShares(uint256)": "c6e6f592",
    "convertToUnderlying(uint256)": "1dc7f521",
    "decimals()": "313ce567",
    "decreaseAllowance(address,uint256)": "a457c2d7",
    "earned(address)": "008cc262",
    "getRewardsData()": "7d098e64",
    "increaseAllowance(address,uint256)": "39509351",
    "initialize(address,address,string,string)": "2016a0d2",
    "lastTimeRewardApplicable()": "80faa57d",
    "mint(bytes)": "7ba0e2e7",
    "name()": "06fdde03",
    "nonces(address)": "7ecebe00",
    "notifyRewardAmount(uint256)": "3c6b16ab",
    "permit(address,address,uint256,uint256,uint8,bytes32,bytes32)": "d505accf",
    "previewMint(uint256)": "b3d7f6b9",
    "previewRedeem(uint256)": "4cdad506",
    "previewWithdraw(uint256)": "0a28a477",
    "redeem(bytes)": "9945e3d3",
    "rewardPerToken()": "cd3daf9d",
    "setRewardsDuration(uint256)": "cc1a378f",
    "sharesOf(address)": "f5eb42dc",
    "symbol()": "95d89b41",
    "totalAssets()": "01e1d114",
    "totalShares()": "3a98ef39",
    "totalSupply()": "18160ddd",
    "transfer(address,uint256)": "a9059cbb",
    "transferFrom(address,address,uint256)": "23b872dd"
  },
  "id": 34
}