{
  "abi": [
    {
      "inputs": [],
      "stateMutability": "nonpayable",
      "type": "constructor"
    },
    {
      "inputs": [
        {
          "internalType": "address",
          "name": "sender",
          "type": "address"
        },
        {
          "internalType": "uint256",
          "name": "shares",
          "type": "uint256"
        },
        {
          "internalType": "uint256",
          "name": "sharesNeeded",
          "type": "uint256"
        }
      ],
      "name": "ERC20InsufficientBalance",
      "type": "error"
    },
    {
      "inputs": [
        {
          "internalType": "address",
          "name": "receiver",
          "type": "address"
        }
      ],
      "name": "ERC20InvalidReceiver",
      "type": "error"
    },
    {
      "inputs": [
        {
          "internalType": "address",
          "name": "sender",
          "type": "address"
        }
      ],
      "name": "ERC20InvalidSender",
      "type": "error"
    },
    {
      "inputs": [
        {
          "internalType": "address",
          "name": "sender",
          "type": "address"
        },
        {
          "internalType": "uint256",
          "name": "shares",
          "type": "uint256"
        },
        {
          "internalType": "uint256",
          "name": "sharesNeeded",
          "type": "uint256"
        }
      ],
      "name": "USDMInsufficientBurnBalance",
      "type": "error"
    },
    {
      "inputs": [
        {
          "internalType": "address",
          "name": "account",
          "type": "address"
        }
      ],
      "name": "ozTokenInvalidMintReceiver",
      "type": "error"
    },
    {
      "anonymous": false,
      "inputs": [
        {
          "indexed": true,
          "internalType": "address",
          "name": "owner",
          "type": "address"
        },
        {
          "indexed": true,
          "internalType": "address",
          "name": "spender",
          "type": "address"
        },
        {
          "indexed": false,
          "internalType": "uint256",
          "name": "value",
          "type": "uint256"
        }
      ],
      "name": "Approval",
      "type": "event"
    },
    {
      "anonymous": false,
      "inputs": [
        {
          "indexed": true,
          "internalType": "address",
          "name": "caller",
          "type": "address"
        },
        {
          "indexed": true,
          "internalType": "address",
          "name": "owner",
          "type": "address"
        },
        {
          "indexed": false,
          "internalType": "uint256",
          "name": "assets",
          "type": "uint256"
        },
        {
          "indexed": false,
          "internalType": "uint256",
          "name": "shares",
          "type": "uint256"
        }
      ],
      "name": "Deposit",
      "type": "event"
    },
    {
      "anonymous": false,
      "inputs": [
        {
          "indexed": false,
          "internalType": "uint8",
          "name": "version",
          "type": "uint8"
        }
      ],
      "name": "Initialized",
      "type": "event"
    },
    {
      "anonymous": false,
      "inputs": [
        {
          "indexed": true,
          "internalType": "uint256",
          "name": "value",
          "type": "uint256"
        }
      ],
      "name": "RewardMultiplier",
      "type": "event"
    },
    {
      "anonymous": false,
      "inputs": [
        {
          "indexed": true,
          "internalType": "address",
          "name": "from",
          "type": "address"
        },
        {
          "indexed": true,
          "internalType": "address",
          "name": "to",
          "type": "address"
        },
        {
          "indexed": false,
          "internalType": "uint256",
          "name": "value",
          "type": "uint256"
        }
      ],
      "name": "Transfer",
      "type": "event"
    },
    {
      "anonymous": false,
      "inputs": [
        {
          "indexed": true,
          "internalType": "address",
          "name": "caller",
          "type": "address"
        },
        {
          "indexed": true,
          "internalType": "address",
          "name": "receiver",
          "type": "address"
        },
        {
          "indexed": true,
          "internalType": "address",
          "name": "owner",
          "type": "address"
        },
        {
          "indexed": false,
          "internalType": "uint256",
          "name": "assets",
          "type": "uint256"
        },
        {
          "indexed": false,
          "internalType": "uint256",
          "name": "shares",
          "type": "uint256"
        }
      ],
      "name": "Withdraw",
      "type": "event"
    },
    {
      "inputs": [
        {
          "internalType": "address",
          "name": "owner",
          "type": "address"
        },
        {
          "internalType": "address",
          "name": "spender",
          "type": "address"
        }
      ],
      "name": "allowance",
      "outputs": [
        {
          "internalType": "uint256",
          "name": "",
          "type": "uint256"
        }
      ],
      "stateMutability": "view",
      "type": "function"
    },
    {
      "inputs": [
        {
          "internalType": "address",
          "name": "spender",
          "type": "address"
        },
        {
          "internalType": "uint256",
          "name": "amount",
          "type": "uint256"
        }
      ],
      "name": "approve",
      "outputs": [
        {
          "internalType": "bool",
          "name": "",
          "type": "bool"
        }
      ],
      "stateMutability": "nonpayable",
      "type": "function"
    },
    {
      "inputs": [],
      "name": "asset",
      "outputs": [
        {
          "internalType": "address",
          "name": "",
          "type": "address"
        }
      ],
      "stateMutability": "view",
      "type": "function"
    },
    {
      "inputs": [
        {
          "internalType": "address",
          "name": "account_",
          "type": "address"
        }
      ],
      "name": "balanceOf",
      "outputs": [
        {
          "internalType": "uint256",
          "name": "",
          "type": "uint256"
        }
      ],
      "stateMutability": "view",
      "type": "function"
    },
    {
      "inputs": [
        {
          "components": [
            {
              "internalType": "uint256",
              "name": "ozAmountIn",
              "type": "uint256"
            },
            {
              "internalType": "uint256",
              "name": "minWethOut",
              "type": "uint256"
            },
            {
              "internalType": "uint256",
              "name": "bptAmountIn",
              "type": "uint256"
            }
          ],
          "internalType": "struct TradeAmountsOut",
          "name": "amts_",
          "type": "tuple"
        },
        {
          "internalType": "address",
          "name": "receiver_",
          "type": "address"
        },
        {
          "internalType": "uint8",
          "name": "v_",
          "type": "uint8"
        },
        {
          "internalType": "bytes32",
          "name": "r_",
          "type": "bytes32"
        },
        {
          "internalType": "bytes32",
          "name": "s_",
          "type": "bytes32"
        }
      ],
      "name": "burn",
      "outputs": [
        {
          "internalType": "uint256",
          "name": "",
          "type": "uint256"
        }
      ],
      "stateMutability": "nonpayable",
      "type": "function"
    },
    {
      "inputs": [
        {
          "internalType": "uint256",
          "name": "shares",
          "type": "uint256"
        }
      ],
      "name": "convertToAssets",
      "outputs": [
        {
          "internalType": "uint256",
          "name": "assets",
          "type": "uint256"
        }
      ],
      "stateMutability": "view",
      "type": "function"
    },
    {
      "inputs": [
        {
          "internalType": "uint256",
          "name": "assets",
          "type": "uint256"
        }
      ],
      "name": "convertToShares",
      "outputs": [
        {
          "internalType": "uint256",
          "name": "shares",
          "type": "uint256"
        }
      ],
      "stateMutability": "view",
      "type": "function"
    },
    {
      "inputs": [],
      "name": "decimals",
      "outputs": [
        {
          "internalType": "uint8",
          "name": "",
          "type": "uint8"
        }
      ],
      "stateMutability": "view",
      "type": "function"
    },
    {
      "inputs": [
        {
          "internalType": "address",
          "name": "spender",
          "type": "address"
        },
        {
          "internalType": "uint256",
          "name": "subtractedValue",
          "type": "uint256"
        }
      ],
      "name": "decreaseAllowance",
      "outputs": [
        {
          "internalType": "bool",
          "name": "",
          "type": "bool"
        }
      ],
      "stateMutability": "nonpayable",
      "type": "function"
    },
    {
      "inputs": [
        {
          "internalType": "uint256",
          "name": "assets_",
          "type": "uint256"
        },
        {
          "internalType": "address",
          "name": "receiver_",
          "type": "address"
        }
      ],
      "name": "deposit",
      "outputs": [
        {
          "internalType": "uint256",
          "name": "",
          "type": "uint256"
        }
      ],
      "stateMutability": "nonpayable",
      "type": "function"
    },
    {
      "inputs": [
        {
          "internalType": "address",
          "name": "spender",
          "type": "address"
        },
        {
          "internalType": "uint256",
          "name": "addedValue",
          "type": "uint256"
        }
      ],
      "name": "increaseAllowance",
      "outputs": [
        {
          "internalType": "bool",
          "name": "",
          "type": "bool"
        }
      ],
      "stateMutability": "nonpayable",
      "type": "function"
    },
    {
      "inputs": [
        {
          "internalType": "address",
          "name": "underlying_",
          "type": "address"
        },
        {
          "internalType": "address",
          "name": "diamond_",
          "type": "address"
        },
        {
          "internalType": "string",
          "name": "name_",
          "type": "string"
        },
        {
          "internalType": "string",
          "name": "symbol_",
          "type": "string"
        }
      ],
      "name": "initialize",
      "outputs": [],
      "stateMutability": "nonpayable",
      "type": "function"
    },
    {
      "inputs": [
        {
          "internalType": "address",
          "name": "",
          "type": "address"
        }
      ],
      "name": "maxDeposit",
      "outputs": [
        {
          "internalType": "uint256",
          "name": "",
          "type": "uint256"
        }
      ],
      "stateMutability": "view",
      "type": "function"
    },
    {
      "inputs": [
        {
          "internalType": "address",
          "name": "",
          "type": "address"
        }
      ],
      "name": "maxMint",
      "outputs": [
        {
          "internalType": "uint256",
          "name": "",
          "type": "uint256"
        }
      ],
      "stateMutability": "view",
      "type": "function"
    },
    {
      "inputs": [
        {
          "internalType": "address",
          "name": "owner",
          "type": "address"
        }
      ],
      "name": "maxRedeem",
      "outputs": [
        {
          "internalType": "uint256",
          "name": "",
          "type": "uint256"
        }
      ],
      "stateMutability": "view",
      "type": "function"
    },
    {
      "inputs": [
        {
          "internalType": "address",
          "name": "owner",
          "type": "address"
        }
      ],
      "name": "maxWithdraw",
      "outputs": [
        {
          "internalType": "uint256",
          "name": "",
          "type": "uint256"
        }
      ],
      "stateMutability": "view",
      "type": "function"
    },
    {
      "inputs": [
        {
          "internalType": "uint256",
          "name": "shares",
          "type": "uint256"
        },
        {
          "internalType": "address",
          "name": "receiver",
          "type": "address"
        }
      ],
      "name": "mint",
      "outputs": [
        {
          "internalType": "uint256",
          "name": "",
          "type": "uint256"
        }
      ],
      "stateMutability": "nonpayable",
      "type": "function"
    },
    {
      "inputs": [
        {
          "components": [
            {
              "internalType": "uint256",
              "name": "amountIn",
              "type": "uint256"
            },
            {
              "internalType": "uint256",
              "name": "minWethOut",
              "type": "uint256"
            },
            {
              "internalType": "uint256",
              "name": "minRethOut",
              "type": "uint256"
            },
            {
              "internalType": "uint256",
              "name": "minBptOut",
              "type": "uint256"
            }
          ],
          "internalType": "struct TradeAmounts",
          "name": "amounts_",
          "type": "tuple"
        },
        {
          "internalType": "address",
          "name": "receiver_",
          "type": "address"
        },
        {
          "internalType": "uint8",
          "name": "v_",
          "type": "uint8"
        },
        {
          "internalType": "bytes32",
          "name": "r_",
          "type": "bytes32"
        },
        {
          "internalType": "bytes32",
          "name": "s_",
          "type": "bytes32"
        }
      ],
      "name": "mint",
      "outputs": [
        {
          "internalType": "uint256",
          "name": "",
          "type": "uint256"
        }
      ],
      "stateMutability": "nonpayable",
      "type": "function"
    },
    {
      "inputs": [],
      "name": "name",
      "outputs": [
        {
          "internalType": "string",
          "name": "",
          "type": "string"
        }
      ],
      "stateMutability": "view",
      "type": "function"
    },
    {
      "inputs": [
        {
          "internalType": "uint256",
          "name": "assets",
          "type": "uint256"
        }
      ],
      "name": "previewDeposit",
      "outputs": [
        {
          "internalType": "uint256",
          "name": "",
          "type": "uint256"
        }
      ],
      "stateMutability": "view",
      "type": "function"
    },
    {
      "inputs": [
        {
          "internalType": "uint256",
          "name": "shares",
          "type": "uint256"
        }
      ],
      "name": "previewMint",
      "outputs": [
        {
          "internalType": "uint256",
          "name": "",
          "type": "uint256"
        }
      ],
      "stateMutability": "view",
      "type": "function"
    },
    {
      "inputs": [
        {
          "internalType": "uint256",
          "name": "shares",
          "type": "uint256"
        }
      ],
      "name": "previewRedeem",
      "outputs": [
        {
          "internalType": "uint256",
          "name": "",
          "type": "uint256"
        }
      ],
      "stateMutability": "view",
      "type": "function"
    },
    {
      "inputs": [
        {
          "internalType": "uint256",
          "name": "assets",
          "type": "uint256"
        }
      ],
      "name": "previewWithdraw",
      "outputs": [
        {
          "internalType": "uint256",
          "name": "",
          "type": "uint256"
        }
      ],
      "stateMutability": "view",
      "type": "function"
    },
    {
      "inputs": [
        {
          "internalType": "uint256",
          "name": "shares",
          "type": "uint256"
        },
        {
          "internalType": "address",
          "name": "receiver",
          "type": "address"
        },
        {
          "internalType": "address",
          "name": "owner",
          "type": "address"
        }
      ],
      "name": "redeem",
      "outputs": [
        {
          "internalType": "uint256",
          "name": "",
          "type": "uint256"
        }
      ],
      "stateMutability": "nonpayable",
      "type": "function"
    },
    {
      "inputs": [
        {
          "internalType": "address",
          "name": "account_",
          "type": "address"
        }
      ],
      "name": "sharesOf",
      "outputs": [
        {
          "internalType": "uint256",
          "name": "",
          "type": "uint256"
        }
      ],
      "stateMutability": "view",
      "type": "function"
    },
    {
      "inputs": [],
      "name": "symbol",
      "outputs": [
        {
          "internalType": "string",
          "name": "",
          "type": "string"
        }
      ],
      "stateMutability": "view",
      "type": "function"
    },
    {
      "inputs": [],
      "name": "totalAssets",
      "outputs": [
        {
          "internalType": "uint256",
          "name": "",
          "type": "uint256"
        }
      ],
      "stateMutability": "view",
      "type": "function"
    },
    {
      "inputs": [],
      "name": "totalShares",
      "outputs": [
        {
          "internalType": "uint256",
          "name": "",
          "type": "uint256"
        }
      ],
      "stateMutability": "view",
      "type": "function"
    },
    {
      "inputs": [],
      "name": "totalSupply",
      "outputs": [
        {
          "internalType": "uint256",
          "name": "",
          "type": "uint256"
        }
      ],
      "stateMutability": "view",
      "type": "function"
    },
    {
      "inputs": [
        {
          "internalType": "address",
          "name": "to",
          "type": "address"
        },
        {
          "internalType": "uint256",
          "name": "amount",
          "type": "uint256"
        }
      ],
      "name": "transfer",
      "outputs": [
        {
          "internalType": "bool",
          "name": "",
          "type": "bool"
        }
      ],
      "stateMutability": "nonpayable",
      "type": "function"
    },
    {
      "inputs": [
        {
          "internalType": "address",
          "name": "from",
          "type": "address"
        },
        {
          "internalType": "address",
          "name": "to",
          "type": "address"
        },
        {
          "internalType": "uint256",
          "name": "amount",
          "type": "uint256"
        }
      ],
      "name": "transferFrom",
      "outputs": [
        {
          "internalType": "bool",
          "name": "",
          "type": "bool"
        }
      ],
      "stateMutability": "nonpayable",
      "type": "function"
    },
    {
      "inputs": [
        {
          "internalType": "uint256",
          "name": "assets",
          "type": "uint256"
        },
        {
          "internalType": "address",
          "name": "receiver",
          "type": "address"
        },
        {
          "internalType": "address",
          "name": "owner",
          "type": "address"
        }
      ],
      "name": "withdraw",
      "outputs": [
        {
          "internalType": "uint256",
          "name": "",
          "type": "uint256"
        }
      ],
      "stateMutability": "view",
      "type": "function"
    }
  ],
  "bytecode": {
    "object": "0x608060405234801561001057600080fd5b5061001961001e565b6100de565b600054610100900460ff161561008a5760405162461bcd60e51b815260206004820152602760248201527f496e697469616c697a61626c653a20636f6e747261637420697320696e697469604482015266616c697a696e6760c81b606482015260840160405180910390fd5b60005460ff90811610156100dc576000805460ff191660ff9081179091556040519081527f7f26b83ff96e1f2b6a682f133852f6798a09c465da95921460cefb38474024989060200160405180910390a15b565b611e6b806100ed6000396000f3fe608060405234801561001057600080fd5b50600436106101f05760003560e01c806370a082311161010f578063c63d75b6116100a2578063d937361211610071578063d9373612146103f3578063dd62ed3e14610406578063ef8b30f7146103ba578063f5eb42dc1461041957600080fd5b8063c63d75b6146103a5578063c6e6f592146103ba578063ce96cb77146103cd578063d905777e146103e057600080fd5b8063a9059cbb116100de578063a9059cbb14610359578063b3d7f6b91461036c578063b460af941461037f578063ba0876521461039257600080fd5b806370a082311461031857806394bf804d1461032b57806395d89b411461033e578063a457c2d71461034657600080fd5b8063313ce56711610187578063402d267d11610156578063402d267d146102df5780634b4e8b26146102f25780634cdad506146102215780636e553f651461030557600080fd5b8063313ce5671461029a57806338d52e0f146102a957806339509351146102c45780633a98ef39146102d757600080fd5b80630a28a477116101c35780630a28a4771461025757806318160ddd1461026a5780632016a0d21461027257806323b872dd1461028757600080fd5b806301e1d114146101f557806306fdde031461020c57806307a2d13a14610221578063095ea7b314610234575b600080fd5b60a8545b6040519081526020015b60405180910390f35b610214610442565b60405161020391906117a4565b6101f961022f3660046117d7565b6104d4565b61024761024236600461180c565b6104e7565b6040519015158152602001610203565b6101f96102653660046117d7565b6104ff565b6101f961050c565b6102856102803660046118d9565b610530565b005b61024761029536600461195e565b610670565b60405160128152602001610203565b6065546040516001600160a01b039091168152602001610203565b6102476102d236600461180c565b610696565b60a7546101f9565b6101f96102ed36600461199a565b6106b8565b6101f96103003660046119c6565b6106d6565b6101f9610313366004611a60565b61087b565b6101f961032636600461199a565b610903565b6101f9610339366004611a60565b610925565b61021461093f565b61024761035436600461180c565b61094e565b61024761036736600461180c565b6109d4565b6101f961037a3660046117d7565b6109e2565b6101f961038d366004611a8c565b6109ef565b6101f96103a0366004611a8c565b610a5d565b6101f96103b336600461199a565b5060001990565b6101f96103c83660046117d7565b610ad9565b6101f96103db36600461199a565b610ae6565b6101f96103ee36600461199a565b610afb565b6101f9610401366004611ac8565b610b06565b6101f9610414366004611b71565b610c50565b6101f961042736600461199a565b6001600160a01b0316600090815260a9602052604090205490565b60606036805461045190611b9b565b80601f016020809104026020016040519081016040528092919081815260200182805461047d90611b9b565b80156104ca5780601f1061049f576101008083540402835291602001916104ca565b820191906000526020600020905b8154815290600101906020018083116104ad57829003601f168201915b5050505050905090565b60006104e1826000610c7b565b92915050565b6000336104f5818585610d14565b5060019392505050565b60006104e1826001610e38565b600060a75460001461052a5761052560a7546000610c7b565b905090565b50600090565b600054610100900460ff16158080156105505750600054600160ff909116105b8061056a5750303b15801561056a575060005460ff166001145b6105d25760405162461bcd60e51b815260206004820152602e60248201527f496e697469616c697a61626c653a20636f6e747261637420697320616c72656160448201526d191e481a5b9a5d1a585b1a5e995960921b60648201526084015b60405180910390fd5b6000805460ff1916600117905580156105f5576000805461ff0019166101001790555b6105ff8383610ec6565b61060885610efb565b60a680546001600160a01b0319166001600160a01b0386161790558015610669576000805461ff0019169055604051600181527f7f26b83ff96e1f2b6a682f133852f6798a09c465da95921460cefb38474024989060200160405180910390a15b5050505050565b60003361067e858285610f2e565b610689858585610fa8565b60019150505b9392505050565b6000336104f58185856106a98383610c50565b6106b39190611bd5565b610d14565b60006106c26110a3565b6106cd5760006104e1565b60001992915050565b60a654855160405163d505accf60e01b8152600092309263d505accf926107159233926001600160a01b039091169142908b908b908b90600401611bf6565b600060405180830381600087803b15801561072f57600080fd5b505af1158015610743573d6000803e3d6000fd5b505050506000610758876000015187336109ef565b60a65460408051633ccf7dc360e11b81528a51600482015260208b01516024820152908a015160448201523060648201523360848201526001600160a01b0389811660a483015292935091169063799efb869060c401600060405180830381600087803b1580156107c857600080fd5b505af11580156107dc573d6000803e3d6000fd5b5050505060006107f46065546001600160a01b031690565b6040516370a0823160e01b81523060048201526001600160a01b0391909116906370a0823190602401602060405180830381865afa15801561083a573d6000803e3d6000fd5b505050506040513d601f19601f8201168201806040525081019061085e9190611c37565b905061086d33883384866110c4565b506001979650505050505050565b6000610886826106b8565b8311156108d55760405162461bcd60e51b815260206004820152601e60248201527f455243343632363a206465706f736974206d6f7265207468616e206d6178000060448201526064016105c9565b60006108e060a75490565b156108f3576108ee84610ad9565b6108f5565b835b905061068f33848684611170565b6001600160a01b038116600090815260a960205260408120546104e1906104d4565b600080610931846109e2565b905061068f33848387611170565b60606037805461045190611b9b565b6000338161095c8286610c50565b9050838110156109bc5760405162461bcd60e51b815260206004820152602560248201527f45524332303a2064656372656173656420616c6c6f77616e63652062656c6f77604482015264207a65726f60d81b60648201526084016105c9565b6109c98286868403610d14565b506001949350505050565b6000336104f5818585610fa8565b60006104e1826001610c7b565b60006109fa82610ae6565b841115610a495760405162461bcd60e51b815260206004820152601f60248201527f455243343632363a207769746864726177206d6f7265207468616e206d61780060448201526064016105c9565b6000610a54856104ff565b95945050505050565b6000610a6882610afb565b841115610ab75760405162461bcd60e51b815260206004820152601d60248201527f455243343632363a2072656465656d206d6f7265207468616e206d617800000060448201526064016105c9565b6000610ac2856104d4565b9050610ad133858584896110c4565b949350505050565b60006104e1826000610e38565b60006104e1610af483610903565b6000610c7b565b60006104e182610903565b600080610b1b6065546001600160a01b031690565b60a654885160405163d505accf60e01b81529293506001600160a01b038085169363d505accf93610b5c9333939091169142908c908c908c90600401611bf6565b600060405180830381600087803b158015610b7657600080fd5b505af1158015610b8a573d6000803e3d6000fd5b505060a65460408051635879601960e01b81526001600160a01b0386811660048301523360248301528c51604483015260208d01516064830152918c0151608482015260608c015160a4820152911692506358796019915060c401600060405180830381600087803b158015610bff57600080fd5b505af1158015610c13573d6000803e3d6000fd5b505050506000610c2788600001518861087b565b9050876000015160a86000828254610c3f9190611bd5565b909155509098975050505050505050565b6001600160a01b03918216600090815260346020908152604080832093909416825291909152205490565b600061068f610c8960a75490565b60a660009054906101000a90046001600160a01b03166001600160a01b03166345089e296040518163ffffffff1660e01b8152600401602060405180830381865afa158015610cdc573d6000803e3d6000fd5b505050506040513d601f19601f82011682018060405250810190610d009190611c37565b610d0a9190611c66565b849060018561120b565b6001600160a01b038316610d765760405162461bcd60e51b8152602060048201526024808201527f45524332303a20617070726f76652066726f6d20746865207a65726f206164646044820152637265737360e01b60648201526084016105c9565b6001600160a01b038216610dd75760405162461bcd60e51b815260206004820152602260248201527f45524332303a20617070726f766520746f20746865207a65726f206164647265604482015261737360f01b60648201526084016105c9565b6001600160a01b0383811660008181526034602090815260408083209487168084529482529182902085905590518481527f8c5be1e5ebec7d5bd14f71427d1e84f3dd0314c0f7b2291e5b200ac8c7c3b925910160405180910390a3505050565b600061068f610e4660a75490565b60a660009054906101000a90046001600160a01b03166001600160a01b03166345089e296040518163ffffffff1660e01b8152600401602060405180830381865afa158015610e99573d6000803e3d6000fd5b505050506040513d601f19601f82011682018060405250810190610ebd9190611c37565b8591908561120b565b600054610100900460ff16610eed5760405162461bcd60e51b81526004016105c990611c88565b610ef78282611266565b5050565b600054610100900460ff16610f225760405162461bcd60e51b81526004016105c990611c88565b610f2b816112ab565b50565b6000610f3a8484610c50565b90506000198114610fa25781811015610f955760405162461bcd60e51b815260206004820152601d60248201527f45524332303a20696e73756666696369656e7420616c6c6f77616e636500000060448201526064016105c9565b610fa28484848403610d14565b50505050565b6001600160a01b038316610fda57604051634b637e8f60e11b81526001600160a01b03841660048201526024016105c9565b6001600160a01b03821661100c5760405163ec442f0560e01b81526001600160a01b03831660048201526024016105c9565b600061101782610ad9565b6001600160a01b038516600090815260a960205260409020549091508181101561106d5760405163391434e360e21b81526001600160a01b038616600482015260248101829052604481018390526064016105c9565b6001600160a01b03948516600090815260a960205260408082209284900390925593909416835292909120805490920190915550565b6000806110af60a85490565b118061052557506110be61050c565b15905090565b826001600160a01b0316856001600160a01b0316146110e8576110e8838683610f2e565b6110f283826112f4565b606554611109906001600160a01b031685846113ba565b826001600160a01b0316846001600160a01b0316866001600160a01b03167ffbde797d201c681b91056529119e0b02407c7bb96a4a2c75c01fc9667232c8db8585604051611161929190918252602082015260400190565b60405180910390a45050505050565b8060a760008282546111829190611bd5565b90915550506001600160a01b038316600090815260a9602052604090208054820190556111af838361140c565b826001600160a01b0316846001600160a01b03167fdcbc1c05240f31ff3ad067ef1ee35ce4997762752e3a095284754544f4c709d784846040516111fd929190918252602082015260400190565b60405180910390a350505050565b6000806112198686866114eb565b9050600183600281111561122f5761122f611cd3565b14801561124c57506000848061124757611247611c50565b868809115b15610a545761125c600182611bd5565b9695505050505050565b600054610100900460ff1661128d5760405162461bcd60e51b81526004016105c990611c88565b60366112998382611d37565b5060376112a68282611d37565b505050565b600054610100900460ff166112d25760405162461bcd60e51b81526004016105c990611c88565b606580546001600160a01b0319166001600160a01b0392909216919091179055565b6001600160a01b03821661132657604051637c896cfb60e01b81526001600160a01b03831660048201526024016105c9565b6001600160a01b038216600090815260a9602052604081205490611349836104d4565b90508282101561138557604051633803cef960e11b81526001600160a01b038516600482015260248101839052604481018490526064016105c9565b6001600160a01b03909316600090815260a96020526040902090829003905560a7805491909103905560a88054919091039055565b604080516001600160a01b038416602482015260448082018490528251808303909101815260649091019091526020810180516001600160e01b031663a9059cbb60e01b1790526112a690849061159a565b6001600160a01b0382166114625760405162461bcd60e51b815260206004820152601f60248201527f45524332303a206d696e7420746f20746865207a65726f20616464726573730060448201526064016105c9565b80603560008282546114749190611bd5565b90915550506001600160a01b038216600090815260336020526040812080548392906114a1908490611bd5565b90915550506040518181526001600160a01b038316906000907fddf252ad1be2c89b69c2b068fc378daa952ba7f163c4a11628f55a4df523b3ef9060200160405180910390a35050565b60008080600019858709858702925082811083820303915050806000036115255783828161151b5761151b611c50565b049250505061068f565b80841161153157600080fd5b60008486880960026001871981018816978890046003810283188082028403028082028403028082028403028082028403028082028403029081029092039091026000889003889004909101858311909403939093029303949094049190911702949350505050565b60006115ef826040518060400160405280602081526020017f5361666545524332303a206c6f772d6c6576656c2063616c6c206661696c6564815250856001600160a01b031661166c9092919063ffffffff16565b8051909150156112a6578080602001905181019061160d9190611df7565b6112a65760405162461bcd60e51b815260206004820152602a60248201527f5361666545524332303a204552433230206f7065726174696f6e20646964206e6044820152691bdd081cdd58d8d9595960b21b60648201526084016105c9565b6060610ad18484600085856001600160a01b0385163b6116ce5760405162461bcd60e51b815260206004820152601d60248201527f416464726573733a2063616c6c20746f206e6f6e2d636f6e747261637400000060448201526064016105c9565b600080866001600160a01b031685876040516116ea9190611e19565b60006040518083038185875af1925050503d8060008114611727576040519150601f19603f3d011682016040523d82523d6000602084013e61172c565b606091505b509150915061173c828286611747565b979650505050505050565b6060831561175657508161068f565b8251156117665782518084602001fd5b8160405162461bcd60e51b81526004016105c991906117a4565b60005b8381101561179b578181015183820152602001611783565b50506000910152565b60208152600082518060208401526117c3816040850160208701611780565b601f01601f19169190910160400192915050565b6000602082840312156117e957600080fd5b5035919050565b80356001600160a01b038116811461180757600080fd5b919050565b6000806040838503121561181f57600080fd5b611828836117f0565b946020939093013593505050565b634e487b7160e01b600052604160045260246000fd5b600082601f83011261185d57600080fd5b813567ffffffffffffffff8082111561187857611878611836565b604051601f8301601f19908116603f011681019082821181831017156118a0576118a0611836565b816040528381528660208588010111156118b957600080fd5b836020870160208301376000602085830101528094505050505092915050565b600080600080608085870312156118ef57600080fd5b6118f8856117f0565b9350611906602086016117f0565b9250604085013567ffffffffffffffff8082111561192357600080fd5b61192f8883890161184c565b9350606087013591508082111561194557600080fd5b506119528782880161184c565b91505092959194509250565b60008060006060848603121561197357600080fd5b61197c846117f0565b925061198a602085016117f0565b9150604084013590509250925092565b6000602082840312156119ac57600080fd5b61068f826117f0565b803560ff8116811461180757600080fd5b600080600080600085870360e08112156119df57600080fd5b60608112156119ed57600080fd5b506040516060810181811067ffffffffffffffff82111715611a1157611a11611836565b6040908152873582526020808901359083015287810135908201529450611a3a606087016117f0565b9350611a48608087016119b5565b9497939650939460a0810135945060c0013592915050565b60008060408385031215611a7357600080fd5b82359150611a83602084016117f0565b90509250929050565b600080600060608486031215611aa157600080fd5b83359250611ab1602085016117f0565b9150611abf604085016117f0565b90509250925092565b6000806000806000858703610100811215611ae257600080fd5b6080811215611af057600080fd5b506040516080810181811067ffffffffffffffff82111715611b1457611b14611836565b80604052508635815260208701356020820152604087013560408201526060870135606082015280955050611b4b608087016117f0565b9350611b5960a087016119b5565b9497939650939460c0810135945060e0013592915050565b60008060408385031215611b8457600080fd5b611b8d836117f0565b9150611a83602084016117f0565b600181811c90821680611baf57607f821691505b602082108103611bcf57634e487b7160e01b600052602260045260246000fd5b50919050565b808201808211156104e157634e487b7160e01b600052601160045260246000fd5b6001600160a01b0397881681529590961660208601526040850193909352606084019190915260ff16608083015260a082015260c081019190915260e00190565b600060208284031215611c4957600080fd5b5051919050565b634e487b7160e01b600052601260045260246000fd5b600082611c8357634e487b7160e01b600052601260045260246000fd5b500490565b6020808252602b908201527f496e697469616c697a61626c653a20636f6e7472616374206973206e6f74206960408201526a6e697469616c697a696e6760a81b606082015260800190565b634e487b7160e01b600052602160045260246000fd5b601f8211156112a657600081815260208120601f850160051c81016020861015611d105750805b601f850160051c820191505b81811015611d2f57828155600101611d1c565b505050505050565b815167ffffffffffffffff811115611d5157611d51611836565b611d6581611d5f8454611b9b565b84611ce9565b602080601f831160018114611d9a5760008415611d825750858301515b600019600386901b1c1916600185901b178555611d2f565b600085815260208120601f198616915b82811015611dc957888601518255948401946001909101908401611daa565b5085821015611de75787850151600019600388901b60f8161c191681555b5050505050600190811b01905550565b600060208284031215611e0957600080fd5b8151801515811461068f57600080fd5b60008251611e2b818460208701611780565b919091019291505056fea264697066735822122075b1788cde24036eee42ab2569b8633118648c13d446b18a1a63ab7cc3ff3c6164736f6c63430008150033",
    "linkReferences": {}
  },
  "methodIdentifiers": {
    "allowance(address,address)": "dd62ed3e",
    "approve(address,uint256)": "095ea7b3",
    "asset()": "38d52e0f",
    "balanceOf(address)": "70a08231",
    "burn((uint256,uint256,uint256),address,uint8,bytes32,bytes32)": "4b4e8b26",
    "convertToAssets(uint256)": "07a2d13a",
    "convertToShares(uint256)": "c6e6f592",
    "decimals()": "313ce567",
    "decreaseAllowance(address,uint256)": "a457c2d7",
    "deposit(uint256,address)": "6e553f65",
    "increaseAllowance(address,uint256)": "39509351",
    "initialize(address,address,string,string)": "2016a0d2",
    "maxDeposit(address)": "402d267d",
    "maxMint(address)": "c63d75b6",
    "maxRedeem(address)": "d905777e",
    "maxWithdraw(address)": "ce96cb77",
    "mint((uint256,uint256,uint256,uint256),address,uint8,bytes32,bytes32)": "d9373612",
    "mint(uint256,address)": "94bf804d",
    "name()": "06fdde03",
    "previewDeposit(uint256)": "ef8b30f7",
    "previewMint(uint256)": "b3d7f6b9",
    "previewRedeem(uint256)": "4cdad506",
    "previewWithdraw(uint256)": "0a28a477",
    "redeem(uint256,address,address)": "ba087652",
    "sharesOf(address)": "f5eb42dc",
    "symbol()": "95d89b41",
    "totalAssets()": "01e1d114",
    "totalShares()": "3a98ef39",
    "totalSupply()": "18160ddd",
    "transfer(address,uint256)": "a9059cbb",
    "transferFrom(address,address,uint256)": "23b872dd",
    "withdraw(uint256,address,address)": "b460af94"
  },
  "id": 23
}