{
  "abi": [
    {
      "inputs": [],
      "stateMutability": "nonpayable",
      "type": "constructor"
    },
    {
      "inputs": [
        {
          "internalType": "address",
          "name": "sender",
          "type": "address"
        },
        {
          "internalType": "uint256",
          "name": "shares",
          "type": "uint256"
        },
        {
          "internalType": "uint256",
          "name": "sharesNeeded",
          "type": "uint256"
        }
      ],
      "name": "ERC20InsufficientBalance",
      "type": "error"
    },
    {
      "inputs": [
        {
          "internalType": "address",
          "name": "receiver",
          "type": "address"
        }
      ],
      "name": "ERC20InvalidReceiver",
      "type": "error"
    },
    {
      "inputs": [
        {
          "internalType": "address",
          "name": "sender",
          "type": "address"
        }
      ],
      "name": "ERC20InvalidSender",
      "type": "error"
    },
    {
      "inputs": [
        {
          "internalType": "uint256",
          "name": "deadline",
          "type": "uint256"
        },
        {
          "internalType": "uint256",
          "name": "blockTimestamp",
          "type": "uint256"
        }
      ],
      "name": "ERC2612ExpiredDeadline",
      "type": "error"
    },
    {
      "inputs": [
        {
          "internalType": "address",
          "name": "owner",
          "type": "address"
        },
        {
          "internalType": "address",
          "name": "spender",
          "type": "address"
        }
      ],
      "name": "ERC2612InvalidSignature",
      "type": "error"
    },
    {
      "inputs": [
        {
          "internalType": "address",
          "name": "sender",
          "type": "address"
        },
        {
          "internalType": "uint256",
          "name": "shares",
          "type": "uint256"
        },
        {
          "internalType": "uint256",
          "name": "sharesNeeded",
          "type": "uint256"
        }
      ],
      "name": "USDMInsufficientBurnBalance",
      "type": "error"
    },
    {
      "anonymous": false,
      "inputs": [
        {
          "indexed": true,
          "internalType": "address",
          "name": "owner",
          "type": "address"
        },
        {
          "indexed": true,
          "internalType": "address",
          "name": "spender",
          "type": "address"
        },
        {
          "indexed": false,
          "internalType": "uint256",
          "name": "value",
          "type": "uint256"
        }
      ],
      "name": "Approval",
      "type": "event"
    },
    {
      "anonymous": false,
      "inputs": [
        {
          "indexed": false,
          "internalType": "uint8",
          "name": "version",
          "type": "uint8"
        }
      ],
      "name": "Initialized",
      "type": "event"
    },
    {
      "anonymous": false,
      "inputs": [
        {
          "indexed": true,
          "internalType": "address",
          "name": "from",
          "type": "address"
        },
        {
          "indexed": true,
          "internalType": "address",
          "name": "to",
          "type": "address"
        },
        {
          "indexed": false,
          "internalType": "uint256",
          "name": "value",
          "type": "uint256"
        }
      ],
      "name": "Transfer",
      "type": "event"
    },
    {
      "inputs": [],
      "name": "DOMAIN_SEPARATOR",
      "outputs": [
        {
          "internalType": "bytes32",
          "name": "",
          "type": "bytes32"
        }
      ],
      "stateMutability": "view",
      "type": "function"
    },
    {
      "inputs": [
        {
          "internalType": "address",
          "name": "owner",
          "type": "address"
        },
        {
          "internalType": "address",
          "name": "spender",
          "type": "address"
        }
      ],
      "name": "allowance",
      "outputs": [
        {
          "internalType": "uint256",
          "name": "",
          "type": "uint256"
        }
      ],
      "stateMutability": "view",
      "type": "function"
    },
    {
      "inputs": [
        {
          "internalType": "address",
          "name": "spender",
          "type": "address"
        },
        {
          "internalType": "uint256",
          "name": "amount",
          "type": "uint256"
        }
      ],
      "name": "approve",
      "outputs": [
        {
          "internalType": "bool",
          "name": "",
          "type": "bool"
        }
      ],
      "stateMutability": "nonpayable",
      "type": "function"
    },
    {
      "inputs": [],
      "name": "asset",
      "outputs": [
        {
          "internalType": "address",
          "name": "",
          "type": "address"
        }
      ],
      "stateMutability": "view",
      "type": "function"
    },
    {
      "inputs": [
        {
          "internalType": "address",
          "name": "account_",
          "type": "address"
        }
      ],
      "name": "balanceOf",
      "outputs": [
        {
          "internalType": "uint256",
          "name": "",
          "type": "uint256"
        }
      ],
      "stateMutability": "view",
      "type": "function"
    },
    {
      "inputs": [
        {
          "internalType": "uint256",
          "name": "shares",
          "type": "uint256"
        }
      ],
      "name": "convertToAssets",
      "outputs": [
        {
          "internalType": "uint256",
          "name": "assets",
          "type": "uint256"
        }
      ],
      "stateMutability": "view",
      "type": "function"
    },
    {
      "inputs": [
        {
          "internalType": "uint256",
          "name": "assets",
          "type": "uint256"
        }
      ],
      "name": "convertToShares",
      "outputs": [
        {
          "internalType": "uint256",
          "name": "shares",
          "type": "uint256"
        }
      ],
      "stateMutability": "view",
      "type": "function"
    },
    {
      "inputs": [
        {
          "internalType": "uint256",
          "name": "shares_",
          "type": "uint256"
        }
      ],
      "name": "convertToUnderlying",
      "outputs": [
        {
          "internalType": "uint256",
          "name": "amountUnderlying",
          "type": "uint256"
        }
      ],
      "stateMutability": "view",
      "type": "function"
    },
    {
      "inputs": [],
      "name": "decimals",
      "outputs": [
        {
          "internalType": "uint8",
          "name": "",
          "type": "uint8"
        }
      ],
      "stateMutability": "view",
      "type": "function"
    },
    {
      "inputs": [
        {
          "internalType": "address",
          "name": "spender",
          "type": "address"
        },
        {
          "internalType": "uint256",
          "name": "subtractedValue",
          "type": "uint256"
        }
      ],
      "name": "decreaseAllowance",
      "outputs": [
        {
          "internalType": "bool",
          "name": "",
          "type": "bool"
        }
      ],
      "stateMutability": "nonpayable",
      "type": "function"
    },
    {
      "inputs": [
        {
          "internalType": "address",
          "name": "spender",
          "type": "address"
        },
        {
          "internalType": "uint256",
          "name": "addedValue",
          "type": "uint256"
        }
      ],
      "name": "increaseAllowance",
      "outputs": [
        {
          "internalType": "bool",
          "name": "",
          "type": "bool"
        }
      ],
      "stateMutability": "nonpayable",
      "type": "function"
    },
    {
      "inputs": [
        {
          "internalType": "address",
          "name": "underlying_",
          "type": "address"
        },
        {
          "internalType": "address",
          "name": "diamond_",
          "type": "address"
        },
        {
          "internalType": "string",
          "name": "name_",
          "type": "string"
        },
        {
          "internalType": "string",
          "name": "symbol_",
          "type": "string"
        }
      ],
      "name": "initialize",
      "outputs": [],
      "stateMutability": "nonpayable",
      "type": "function"
    },
    {
      "inputs": [
        {
          "internalType": "address",
          "name": "",
          "type": "address"
        }
      ],
      "name": "maxDeposit",
      "outputs": [
        {
          "internalType": "uint256",
          "name": "",
          "type": "uint256"
        }
      ],
      "stateMutability": "view",
      "type": "function"
    },
    {
      "inputs": [
        {
          "internalType": "bytes",
          "name": "data_",
          "type": "bytes"
        }
      ],
      "name": "mint",
      "outputs": [
        {
          "internalType": "uint256",
          "name": "",
          "type": "uint256"
        }
      ],
      "stateMutability": "nonpayable",
      "type": "function"
    },
    {
      "inputs": [],
      "name": "name",
      "outputs": [
        {
          "internalType": "string",
          "name": "",
          "type": "string"
        }
      ],
      "stateMutability": "view",
      "type": "function"
    },
    {
      "inputs": [
        {
          "internalType": "address",
          "name": "owner",
          "type": "address"
        }
      ],
      "name": "nonces",
      "outputs": [
        {
          "internalType": "uint256",
          "name": "",
          "type": "uint256"
        }
      ],
      "stateMutability": "view",
      "type": "function"
    },
    {
      "inputs": [
        {
          "internalType": "address",
          "name": "owner",
          "type": "address"
        },
        {
          "internalType": "address",
          "name": "spender",
          "type": "address"
        },
        {
          "internalType": "uint256",
          "name": "value",
          "type": "uint256"
        },
        {
          "internalType": "uint256",
          "name": "deadline",
          "type": "uint256"
        },
        {
          "internalType": "uint8",
          "name": "v",
          "type": "uint8"
        },
        {
          "internalType": "bytes32",
          "name": "r",
          "type": "bytes32"
        },
        {
          "internalType": "bytes32",
          "name": "s_",
          "type": "bytes32"
        }
      ],
      "name": "permit",
      "outputs": [],
      "stateMutability": "nonpayable",
      "type": "function"
    },
    {
      "inputs": [
        {
          "internalType": "uint256",
          "name": "assets_",
          "type": "uint256"
        }
      ],
      "name": "previewDeposit",
      "outputs": [
        {
          "internalType": "uint256",
          "name": "",
          "type": "uint256"
        }
      ],
      "stateMutability": "view",
      "type": "function"
    },
    {
      "inputs": [
        {
          "internalType": "uint256",
          "name": "shares_",
          "type": "uint256"
        }
      ],
      "name": "previewRedeem",
      "outputs": [
        {
          "internalType": "uint256",
          "name": "",
          "type": "uint256"
        }
      ],
      "stateMutability": "view",
      "type": "function"
    },
    {
      "inputs": [
        {
          "internalType": "uint256",
          "name": "assets",
          "type": "uint256"
        }
      ],
      "name": "previewWithdraw",
      "outputs": [
        {
          "internalType": "uint256",
          "name": "",
          "type": "uint256"
        }
      ],
      "stateMutability": "view",
      "type": "function"
    },
    {
      "inputs": [
        {
          "internalType": "bytes",
          "name": "data_",
          "type": "bytes"
        }
      ],
      "name": "redeem",
      "outputs": [
        {
          "internalType": "uint256",
          "name": "",
          "type": "uint256"
        }
      ],
      "stateMutability": "nonpayable",
      "type": "function"
    },
    {
      "inputs": [
        {
          "internalType": "address",
          "name": "account_",
          "type": "address"
        }
      ],
      "name": "sharesOf",
      "outputs": [
        {
          "internalType": "uint256",
          "name": "",
          "type": "uint256"
        }
      ],
      "stateMutability": "view",
      "type": "function"
    },
    {
      "inputs": [],
      "name": "symbol",
      "outputs": [
        {
          "internalType": "string",
          "name": "",
          "type": "string"
        }
      ],
      "stateMutability": "view",
      "type": "function"
    },
    {
      "inputs": [],
      "name": "totalAssets",
      "outputs": [
        {
          "internalType": "uint256",
          "name": "",
          "type": "uint256"
        }
      ],
      "stateMutability": "view",
      "type": "function"
    },
    {
      "inputs": [],
      "name": "totalShares",
      "outputs": [
        {
          "internalType": "uint256",
          "name": "",
          "type": "uint256"
        }
      ],
      "stateMutability": "view",
      "type": "function"
    },
    {
      "inputs": [],
      "name": "totalSupply",
      "outputs": [
        {
          "internalType": "uint256",
          "name": "",
          "type": "uint256"
        }
      ],
      "stateMutability": "view",
      "type": "function"
    },
    {
      "inputs": [
        {
          "internalType": "address",
          "name": "to",
          "type": "address"
        },
        {
          "internalType": "uint256",
          "name": "amount",
          "type": "uint256"
        }
      ],
      "name": "transfer",
      "outputs": [
        {
          "internalType": "bool",
          "name": "",
          "type": "bool"
        }
      ],
      "stateMutability": "nonpayable",
      "type": "function"
    },
    {
      "inputs": [
        {
          "internalType": "address",
          "name": "from",
          "type": "address"
        },
        {
          "internalType": "address",
          "name": "to",
          "type": "address"
        },
        {
          "internalType": "uint256",
          "name": "amount",
          "type": "uint256"
        }
      ],
      "name": "transferFrom",
      "outputs": [
        {
          "internalType": "bool",
          "name": "",
          "type": "bool"
        }
      ],
      "stateMutability": "nonpayable",
      "type": "function"
    }
  ],
  "bytecode": {
    "object": "0x608060405234801561001057600080fd5b5061001961001e565b6100de565b600054610100900460ff161561008a5760405162461bcd60e51b815260206004820152602760248201527f496e697469616c697a61626c653a20636f6e747261637420697320696e697469604482015266616c697a696e6760c81b606482015260840160405180910390fd5b60005460ff90811610156100dc576000805460ff191660ff9081179091556040519081527f7f26b83ff96e1f2b6a682f133852f6798a09c465da95921460cefb38474024989060200160405180910390a15b565b6120ff80620000ee6000396000f3fe608060405234801561001057600080fd5b50600436106101c45760003560e01c8063402d267d116100f9578063a457c2d711610097578063d505accf11610071578063d505accf14610381578063dd62ed3e14610394578063ef8b30f7146103a7578063f5eb42dc146103ba57600080fd5b8063a457c2d714610348578063a9059cbb1461035b578063c6e6f5921461036e57600080fd5b80637ba0e2e7116100d35780637ba0e2e7146103075780637ecebe001461031a57806395d89b411461032d5780639945e3d31461033557600080fd5b8063402d267d146102ce5780634cdad506146102e157806370a08231146102f457600080fd5b80632016a0d2116101665780633644e515116101405780633644e5151461029057806338d52e0f1461029857806339509351146102b35780633a98ef39146102c657600080fd5b80632016a0d21461025957806323b872dd1461026e578063313ce5671461028157600080fd5b8063095ea7b3116101a2578063095ea7b3146102085780630a28a4771461022b57806318160ddd1461023e5780631dc7f5211461024657600080fd5b806301e1d114146101c957806306fdde03146101e057806307a2d13a146101f5575b600080fd5b6038545b6040519081526020015b60405180910390f35b6101e86103e3565b6040516101d79190611a45565b6101cd610203366004611a58565b610475565b61021b610216366004611a86565b610488565b60405190151581526020016101d7565b6101cd610239366004611a58565b61049e565b6101cd6104ab565b6101cd610254366004611a58565b610551565b61026c610267366004611b5e565b6105e2565b005b61021b61027c366004611be7565b610761565b604051601281526020016101d7565b6101cd610784565b6036546040516001600160a01b0390911681526020016101d7565b61021b6102c1366004611a86565b610793565b6037546101cd565b6101cd6102dc366004611c28565b6107b4565b6101cd6102ef366004611a58565b6107d2565b6101cd610302366004611c28565b6107df565b6101cd610315366004611c45565b610881565b6101cd610328366004611c28565b610a0e565b6101e8610a2c565b6101cd610343366004611c45565b610a3b565b61021b610356366004611a86565b610b7d565b61021b610369366004611a86565b610bf7565b6101cd61037c366004611a58565b610c04565b61026c61038f366004611c9d565b610c11565b6101cd6103a2366004611d0e565b610d33565b6101cd6103b5366004611a58565b610d5e565b6101cd6103c8366004611c28565b6001600160a01b031660009081526039602052604090205490565b6060603c80546103f290611d47565b80601f016020809104026020016040519081016040528092919081815260200182805461041e90611d47565b801561046b5780601f106104405761010080835404028352916020019161046b565b820191906000526020600020905b81548152906001019060200180831161044e57829003601f168201915b5050505050905090565b6000610482826000610d6b565b92915050565b6000610495338484610e89565b50600192915050565b6000610482826001610fad565b60006104eb6040518060400160405280601c81526020017f2d2d2d207374617274696e6720746f74616c537570706c79202d2d2d0000000081525061103b565b6000603754600014610509576105046037546000610d6b565b61050c565b60005b905061054c6040518060400160405280601a81526020017f2d2d2d20656e64206f6620746f74616c537570706c79202d2d2d00000000000081525061103b565b919050565b600061055c60375490565b60355460405163a4fc284b60e01b81526001600160a01b039091169063a4fc284b9061058d90600190600401611d91565b602060405180830381865afa1580156105aa573d6000803e3d6000fd5b505050506040513d601f19601f820116820180604052508101906105ce9190611db9565b6105d89084611de8565b6104829190611e15565b600054610100900460ff16158080156106025750600054600160ff909116105b8061061c5750303b15801561061c575060005460ff166001145b6106845760405162461bcd60e51b815260206004820152602e60248201527f496e697469616c697a61626c653a20636f6e747261637420697320616c72656160448201526d191e481a5b9a5d1a585b1a5e995960921b60648201526084015b60405180910390fd5b6000805460ff1916600117905580156106a7576000805461ff0019166101001790555b603c6106b38482611e86565b50603d6106c08382611e86565b50603580546001600160a01b038087166001600160a01b03199283161790925560368054928816929091169190911790556040805180820190915260018152603160f81b6020820152610714908490611081565b801561075a576000805461ff0019169055604051600181527f7f26b83ff96e1f2b6a682f133852f6798a09c465da95921460cefb38474024989060200160405180910390a15b5050505050565b600061076e8433846110b6565b610779848484611130565b5060015b9392505050565b600061078e61122b565b905090565b60006104953384846107a53388610d33565b6107af9190611f46565b610e89565b60006107be6112a6565b6107c9576000610482565b60001992915050565b60006104828260006112c7565b600061081f6040518060400160405280601981526020017f2d2d207374617274696e672062616c616e63654f66202d2d2d0000000000000081525061103b565b6001600160a01b03821660009081526039602052604081205461084190610475565b90506104826040518060400160405280601881526020017f2d2d2d20656e64206f662062616c616e63654f66202d2d2d000000000000000081525061103b565b60008060008380602001905181019061089a9190611f59565b815191935091506108aa826107b4565b8111156108f95760405162461bcd60e51b815260206004820152601e60248201527f455243343632363a206465706f736974206d6f7265207468616e206d61780000604482015260640161067b565b6035546001600160a01b031663b50f68fd61091c6036546001600160a01b031690565b604080516001600160e01b031960e085901b1681526001600160a01b0390921660048301523360248301528651604483015260208701516064830152860151608482015260a401600060405180830381600087803b15801561097d57600080fd5b505af1158015610991573d6000803e3d6000fd5b5050505060006109a060375490565b156109b3576109ae82610d5e565b6109b5565b815b905081603860008282546109c99190611f46565b9250508190555080603760008282546109e29190611f46565b90915550506001600160a01b039092166000908152603960205260409020805483019055509392505050565b6001600160a01b0381166000908152603a6020526040812054610482565b6060603d80546103f290611d47565b60008082806020019051810190610a529190611fce565b5050505090506000610a79336001600160a01b031660009081526039602052604090205490565b90506000610a8683610c04565b905080821015610ab957604051633803cef960e11b8152336004820152602481018390526044810182905260640161067b565b6000610ac4826107d2565b6035546040516314370d6760e31b81529192506000916001600160a01b039091169063a1b86b3890610afc9033908b9060040161201b565b6020604051808303816000875af1158015610b1b573d6000803e3d6000fd5b505050506040513d601f19601f82011682018060405250810190610b3f9190611db9565b6035546001600160a01b0316600090815260396020526040812080549190556037805491909103905560388054939093039092555095945050505050565b600080610b8a3385610d33565b905082811015610bea5760405162461bcd60e51b815260206004820152602560248201527f45524332303a2064656372656173656420616c6c6f77616e63652062656c6f77604482015264207a65726f60d81b606482015260840161067b565b6107793385858403610e89565b6000610495338484611130565b6000610482826000610fad565b83421115610c3b5760405163233730db60e11b81526004810185905242602482015260440161067b565b60007f6e71edae12b1b97f4d1f60370fef10105fa2faae0126114a169c64845d6126c9888888610c6a8c61134b565b6040805160208101969096526001600160a01b0394851690860152929091166060840152608083015260a082015260c0810186905260e0016040516020818303038152906040528051906020012090506000610cc582611373565b90506000610cd5828787876113c1565b9050896001600160a01b0316816001600160a01b031614610d1c57604051630189c63360e31b81526001600160a01b03808c1660048301528a16602482015260440161067b565b610d278a8a8a610e89565b50505050505050505050565b6001600160a01b039182166000908152603b6020908152604080832093909416825291909152205490565b60006104828260006113e9565b6000610d9e6040518060400160405280600d81526020016c03a37ba30b629b430b932b99d1609d1b8152506037546113ff565b6000610da960375490565b15610db657603754610db9565b60015b9050610de16040518060400160405280600481526020016303a399d160e51b815250826113ff565b603660009054906101000a90046001600160a01b03166001600160a01b031663313ce5676040518163ffffffff1660e01b8152600401602060405180830381865afa158015610e34573d6000803e3d6000fd5b505050506040513d601f19601f82011682018060405250810190610e58919061203f565b60ff16600614610e7457610e6f6001828686611444565b610e81565b610e818160018686611444565b949350505050565b6001600160a01b038316610eeb5760405162461bcd60e51b8152602060048201526024808201527f45524332303a20617070726f76652066726f6d20746865207a65726f206164646044820152637265737360e01b606482015260840161067b565b6001600160a01b038216610f4c5760405162461bcd60e51b815260206004820152602260248201527f45524332303a20617070726f766520746f20746865207a65726f206164647265604482015261737360f01b606482015260840161067b565b6001600160a01b038381166000818152603b602090815260408083209487168084529482529182902085905590518481527f8c5be1e5ebec7d5bd14f71427d1e84f3dd0314c0f7b2291e5b200ac8c7c3b925910160405180910390a3505050565b600061077d610fbb60375490565b603560009054906101000a90046001600160a01b03166001600160a01b03166345089e296040518163ffffffff1660e01b8152600401602060405180830381865afa15801561100e573d6000803e3d6000fd5b505050506040513d601f19601f820116820180604052508101906110329190611db9565b859190856115f0565b61107e8160405160240161104f9190611a45565b60408051601f198184030181529190526020810180516001600160e01b031663104c13eb60e21b17905261164b565b50565b600054610100900460ff166110a85760405162461bcd60e51b815260040161067b9061205c565b6110b2828261166c565b5050565b60006110c28484610d33565b9050600019811461112a578181101561111d5760405162461bcd60e51b815260206004820152601d60248201527f45524332303a20696e73756666696369656e7420616c6c6f77616e6365000000604482015260640161067b565b61112a8484848403610e89565b50505050565b6001600160a01b03831661116257604051634b637e8f60e11b81526001600160a01b038416600482015260240161067b565b6001600160a01b0382166111945760405163ec442f0560e01b81526001600160a01b038316600482015260240161067b565b600061119f82610c04565b6001600160a01b038516600090815260396020526040902054909150818110156111f55760405163391434e360e21b81526001600160a01b0386166004820152602481018290526044810183905260640161067b565b6001600160a01b039485166000908152603960205260408082209284900390925593909416835292909120805490920190915550565b600061078e7f8b73c3c69bb8fe3d512ecc4cf759cc79239f7b179b0ffacaa9a75d522b39400f61125a60015490565b6002546040805160208101859052908101839052606081018290524660808201523060a082015260009060c0016040516020818303038152906040528051906020012090509392505050565b6000806112b260385490565b118061078e57506112c16104ab565b15905090565b600061077d603560009054906101000a90046001600160a01b03166001600160a01b03166345089e296040518163ffffffff1660e01b8152600401602060405180830381865afa15801561131f573d6000803e3d6000fd5b505050506040513d601f19601f820116820180604052508101906113439190611db9565b6110326104ab565b6001600160a01b0381166000908152603a602052604090208054600181018255905b50919050565b600061048261138061122b565b8360405161190160f01b6020820152602281018390526042810182905260009060620160405160208183030381529060405280519060200120905092915050565b60008060006113d2878787876116ad565b915091506113df8161179a565b5095945050505050565b600061077d6113f760375490565b603854611032565b6110b282826040516024016114159291906120a7565b60408051601f198184030181529190526020810180516001600160e01b03166309710a9d60e41b17905261164b565b60006114e56040518060400160405280600781526020016603ab73232b91d160cd1b815250603560009054906101000a90046001600160a01b03166001600160a01b03166345089e296040518163ffffffff1660e01b8152600401602060405180830381865afa1580156114bc573d6000803e3d6000fd5b505050506040513d601f19601f820116820180604052508101906114e09190611db9565b6113ff565b61150a604051806040016040528060038152602001620309d160ed1b815250866113ff565b61152f604051806040016040528060038152602001620311d160ed1b815250856113ff565b61155960405180604001604052806008815260200167039b430b932b99d160c51b815250846113ff565b6115e785603560009054906101000a90046001600160a01b03166001600160a01b03166345089e296040518163ffffffff1660e01b8152600401602060405180830381865afa1580156115b0573d6000803e3d6000fd5b505050506040513d601f19601f820116820180604052508101906115d49190611db9565b6115de9190611e15565b849086856115f0565b95945050505050565b6000806115fe868686611950565b9050600183600281111561161457611614611d7b565b14801561163157506000848061162c5761162c611dff565b868809115b156115e757611641600182611f46565b9695505050505050565b80516a636f6e736f6c652e6c6f67602083016000808483855afa5050505050565b600054610100900460ff166116935760405162461bcd60e51b815260040161067b9061205c565b815160209283012081519190920120600191909155600255565b6000807f7fffffffffffffffffffffffffffffff5d576e7357a4501ddfe92f46681b20a08311156116e45750600090506003611791565b8460ff16601b141580156116fc57508460ff16601c14155b1561170d5750600090506004611791565b6040805160008082526020820180845289905260ff881692820192909252606081018690526080810185905260019060a0016020604051602081039080840390855afa158015611761573d6000803e3d6000fd5b5050604051601f1901519150506001600160a01b03811661178a57600060019250925050611791565b9150600090505b94509492505050565b60008160048111156117ae576117ae611d7b565b036117b65750565b60018160048111156117ca576117ca611d7b565b036118175760405162461bcd60e51b815260206004820152601860248201527f45434453413a20696e76616c6964207369676e61747572650000000000000000604482015260640161067b565b600281600481111561182b5761182b611d7b565b036118785760405162461bcd60e51b815260206004820152601f60248201527f45434453413a20696e76616c6964207369676e6174757265206c656e67746800604482015260640161067b565b600381600481111561188c5761188c611d7b565b036118e45760405162461bcd60e51b815260206004820152602260248201527f45434453413a20696e76616c6964207369676e6174757265202773272076616c604482015261756560f01b606482015260840161067b565b60048160048111156118f8576118f8611d7b565b0361107e5760405162461bcd60e51b815260206004820152602260248201527f45434453413a20696e76616c6964207369676e6174757265202776272076616c604482015261756560f01b606482015260840161067b565b600080806000198587098587029250828110838203039150508060000361198a5783828161198057611980611dff565b049250505061077d565b80841161199657600080fd5b60008486880960026001871981018816978890046003810283188082028403028082028403028082028403028082028403028082028403029081029092039091026000889003889004909101858311909403939093029303949094049190911702949350505050565b6000815180845260005b81811015611a2557602081850181015186830182015201611a09565b506000602082860101526020601f19601f83011685010191505092915050565b60208152600061077d60208301846119ff565b600060208284031215611a6a57600080fd5b5035919050565b6001600160a01b038116811461107e57600080fd5b60008060408385031215611a9957600080fd5b8235611aa481611a71565b946020939093013593505050565b634e487b7160e01b600052604160045260246000fd5b600067ffffffffffffffff80841115611ae357611ae3611ab2565b604051601f8501601f19908116603f01168101908282118183101715611b0b57611b0b611ab2565b81604052809350858152868686011115611b2457600080fd5b858560208301376000602087830101525050509392505050565b600082601f830112611b4f57600080fd5b61077d83833560208501611ac8565b60008060008060808587031215611b7457600080fd5b8435611b7f81611a71565b93506020850135611b8f81611a71565b9250604085013567ffffffffffffffff80821115611bac57600080fd5b611bb888838901611b3e565b93506060870135915080821115611bce57600080fd5b50611bdb87828801611b3e565b91505092959194509250565b600080600060608486031215611bfc57600080fd5b8335611c0781611a71565b92506020840135611c1781611a71565b929592945050506040919091013590565b600060208284031215611c3a57600080fd5b813561077d81611a71565b600060208284031215611c5757600080fd5b813567ffffffffffffffff811115611c6e57600080fd5b8201601f81018413611c7f57600080fd5b610e8184823560208401611ac8565b60ff8116811461107e57600080fd5b600080600080600080600060e0888a031215611cb857600080fd5b8735611cc381611a71565b96506020880135611cd381611a71565b955060408801359450606088013593506080880135611cf181611c8e565b9699959850939692959460a0840135945060c09093013592915050565b60008060408385031215611d2157600080fd5b8235611d2c81611a71565b91506020830135611d3c81611a71565b809150509250929050565b600181811c90821680611d5b57607f821691505b60208210810361136d57634e487b7160e01b600052602260045260246000fd5b634e487b7160e01b600052602160045260246000fd5b6020810160028310611db357634e487b7160e01b600052602160045260246000fd5b91905290565b600060208284031215611dcb57600080fd5b5051919050565b634e487b7160e01b600052601160045260246000fd5b808202811582820484141761048257610482611dd2565b634e487b7160e01b600052601260045260246000fd5b600082611e3257634e487b7160e01b600052601260045260246000fd5b500490565b601f821115611e8157600081815260208120601f850160051c81016020861015611e5e5750805b601f850160051c820191505b81811015611e7d57828155600101611e6a565b5050505b505050565b815167ffffffffffffffff811115611ea057611ea0611ab2565b611eb481611eae8454611d47565b84611e37565b602080601f831160018114611ee95760008415611ed15750858301515b600019600386901b1c1916600185901b178555611e7d565b600085815260208120601f198616915b82811015611f1857888601518255948401946001909101908401611ef9565b5085821015611f365787850151600019600388901b60f8161c191681555b5050505050600190811b01905550565b8082018082111561048257610482611dd2565b6000808284036080811215611f6d57600080fd5b6060811215611f7b57600080fd5b506040516060810181811067ffffffffffffffff82111715611f9f57611f9f611ab2565b8060405250835181526020840151602082015260408401516040820152809250506060830151611d3c81611a71565b600080600080600060a08688031215611fe657600080fd5b85519450602086015193506040860151925060608601519150608086015161200d81611a71565b809150509295509295909350565b6001600160a01b0383168152604060208201819052600090610e81908301846119ff565b60006020828403121561205157600080fd5b815161077d81611c8e565b6020808252602b908201527f496e697469616c697a61626c653a20636f6e7472616374206973206e6f74206960408201526a6e697469616c697a696e6760a81b606082015260800190565b6040815260006120ba60408301856119ff565b9050826020830152939250505056fea26469706673582212204077f3fa872369ab57ff5668eeace06dde387c1bc317194a456dc78a6dc84c4164736f6c63430008150033",
    "linkReferences": {}
  },
  "methodIdentifiers": {
    "DOMAIN_SEPARATOR()": "3644e515",
    "allowance(address,address)": "dd62ed3e",
    "approve(address,uint256)": "095ea7b3",
    "asset()": "38d52e0f",
    "balanceOf(address)": "70a08231",
    "convertToAssets(uint256)": "07a2d13a",
    "convertToShares(uint256)": "c6e6f592",
    "convertToUnderlying(uint256)": "1dc7f521",
    "decimals()": "313ce567",
    "decreaseAllowance(address,uint256)": "a457c2d7",
    "increaseAllowance(address,uint256)": "39509351",
    "initialize(address,address,string,string)": "2016a0d2",
    "maxDeposit(address)": "402d267d",
    "mint(bytes)": "7ba0e2e7",
    "name()": "06fdde03",
    "nonces(address)": "7ecebe00",
    "permit(address,address,uint256,uint256,uint8,bytes32,bytes32)": "d505accf",
    "previewDeposit(uint256)": "ef8b30f7",
    "previewRedeem(uint256)": "4cdad506",
    "previewWithdraw(uint256)": "0a28a477",
    "redeem(bytes)": "9945e3d3",
    "sharesOf(address)": "f5eb42dc",
    "symbol()": "95d89b41",
    "totalAssets()": "01e1d114",
    "totalShares()": "3a98ef39",
    "totalSupply()": "18160ddd",
    "transfer(address,uint256)": "a9059cbb",
    "transferFrom(address,address,uint256)": "23b872dd"
  },
  "id": 26
}