{
  "abi": [
    {
      "inputs": [],
      "stateMutability": "nonpayable",
      "type": "constructor"
    },
    {
      "inputs": [
        {
          "internalType": "address",
          "name": "sender",
          "type": "address"
        },
        {
          "internalType": "uint256",
          "name": "shares",
          "type": "uint256"
        },
        {
          "internalType": "uint256",
          "name": "sharesNeeded",
          "type": "uint256"
        }
      ],
      "name": "ERC20InsufficientBalance",
      "type": "error"
    },
    {
      "inputs": [
        {
          "internalType": "address",
          "name": "receiver",
          "type": "address"
        }
      ],
      "name": "ERC20InvalidReceiver",
      "type": "error"
    },
    {
      "inputs": [
        {
          "internalType": "address",
          "name": "sender",
          "type": "address"
        }
      ],
      "name": "ERC20InvalidSender",
      "type": "error"
    },
    {
      "inputs": [
        {
          "internalType": "uint256",
          "name": "rewardMultiplier",
          "type": "uint256"
        }
      ],
      "name": "USDMInvalidRewardMultiplier",
      "type": "error"
    },
    {
      "inputs": [
        {
          "internalType": "address",
          "name": "account",
          "type": "address"
        }
      ],
      "name": "ozTokenInvalidMintReceiver",
      "type": "error"
    },
    {
      "anonymous": false,
      "inputs": [
        {
          "indexed": true,
          "internalType": "address",
          "name": "owner",
          "type": "address"
        },
        {
          "indexed": true,
          "internalType": "address",
          "name": "spender",
          "type": "address"
        },
        {
          "indexed": false,
          "internalType": "uint256",
          "name": "value",
          "type": "uint256"
        }
      ],
      "name": "Approval",
      "type": "event"
    },
    {
      "anonymous": false,
      "inputs": [
        {
          "indexed": true,
          "internalType": "address",
          "name": "caller",
          "type": "address"
        },
        {
          "indexed": true,
          "internalType": "address",
          "name": "owner",
          "type": "address"
        },
        {
          "indexed": false,
          "internalType": "uint256",
          "name": "assets",
          "type": "uint256"
        },
        {
          "indexed": false,
          "internalType": "uint256",
          "name": "shares",
          "type": "uint256"
        }
      ],
      "name": "Deposit",
      "type": "event"
    },
    {
      "anonymous": false,
      "inputs": [
        {
          "indexed": false,
          "internalType": "uint8",
          "name": "version",
          "type": "uint8"
        }
      ],
      "name": "Initialized",
      "type": "event"
    },
    {
      "anonymous": false,
      "inputs": [
        {
          "indexed": true,
          "internalType": "uint256",
          "name": "value",
          "type": "uint256"
        }
      ],
      "name": "RewardMultiplier",
      "type": "event"
    },
    {
      "anonymous": false,
      "inputs": [
        {
          "indexed": true,
          "internalType": "address",
          "name": "from",
          "type": "address"
        },
        {
          "indexed": true,
          "internalType": "address",
          "name": "to",
          "type": "address"
        },
        {
          "indexed": false,
          "internalType": "uint256",
          "name": "value",
          "type": "uint256"
        }
      ],
      "name": "Transfer",
      "type": "event"
    },
    {
      "anonymous": false,
      "inputs": [
        {
          "indexed": true,
          "internalType": "address",
          "name": "caller",
          "type": "address"
        },
        {
          "indexed": true,
          "internalType": "address",
          "name": "receiver",
          "type": "address"
        },
        {
          "indexed": true,
          "internalType": "address",
          "name": "owner",
          "type": "address"
        },
        {
          "indexed": false,
          "internalType": "uint256",
          "name": "assets",
          "type": "uint256"
        },
        {
          "indexed": false,
          "internalType": "uint256",
          "name": "shares",
          "type": "uint256"
        }
      ],
      "name": "Withdraw",
      "type": "event"
    },
    {
      "inputs": [
        {
          "internalType": "uint256",
          "name": "_rewardMultiplierIncrement",
          "type": "uint256"
        }
      ],
      "name": "addRewardMultiplier",
      "outputs": [],
      "stateMutability": "nonpayable",
      "type": "function"
    },
    {
      "inputs": [
        {
          "internalType": "address",
          "name": "owner",
          "type": "address"
        },
        {
          "internalType": "address",
          "name": "spender",
          "type": "address"
        }
      ],
      "name": "allowance",
      "outputs": [
        {
          "internalType": "uint256",
          "name": "",
          "type": "uint256"
        }
      ],
      "stateMutability": "view",
      "type": "function"
    },
    {
      "inputs": [
        {
          "internalType": "address",
          "name": "spender",
          "type": "address"
        },
        {
          "internalType": "uint256",
          "name": "amount",
          "type": "uint256"
        }
      ],
      "name": "approve",
      "outputs": [
        {
          "internalType": "bool",
          "name": "",
          "type": "bool"
        }
      ],
      "stateMutability": "nonpayable",
      "type": "function"
    },
    {
      "inputs": [],
      "name": "asset",
      "outputs": [
        {
          "internalType": "address",
          "name": "",
          "type": "address"
        }
      ],
      "stateMutability": "view",
      "type": "function"
    },
    {
      "inputs": [
        {
          "internalType": "address",
          "name": "account_",
          "type": "address"
        }
      ],
      "name": "balanceOf",
      "outputs": [
        {
          "internalType": "uint256",
          "name": "",
          "type": "uint256"
        }
      ],
      "stateMutability": "view",
      "type": "function"
    },
    {
      "inputs": [
        {
          "internalType": "uint256",
          "name": "shares",
          "type": "uint256"
        }
      ],
      "name": "convertToAssets",
      "outputs": [
        {
          "internalType": "uint256",
          "name": "assets",
          "type": "uint256"
        }
      ],
      "stateMutability": "view",
      "type": "function"
    },
    {
      "inputs": [
        {
          "internalType": "uint256",
          "name": "assets",
          "type": "uint256"
        }
      ],
      "name": "convertToShares",
      "outputs": [
        {
          "internalType": "uint256",
          "name": "shares",
          "type": "uint256"
        }
      ],
      "stateMutability": "view",
      "type": "function"
    },
    {
      "inputs": [],
      "name": "decimals",
      "outputs": [
        {
          "internalType": "uint8",
          "name": "",
          "type": "uint8"
        }
      ],
      "stateMutability": "view",
      "type": "function"
    },
    {
      "inputs": [
        {
          "internalType": "address",
          "name": "spender",
          "type": "address"
        },
        {
          "internalType": "uint256",
          "name": "subtractedValue",
          "type": "uint256"
        }
      ],
      "name": "decreaseAllowance",
      "outputs": [
        {
          "internalType": "bool",
          "name": "",
          "type": "bool"
        }
      ],
      "stateMutability": "nonpayable",
      "type": "function"
    },
    {
      "inputs": [
        {
          "internalType": "uint256",
          "name": "assets_",
          "type": "uint256"
        },
        {
          "internalType": "address",
          "name": "receiver_",
          "type": "address"
        }
      ],
      "name": "deposit",
      "outputs": [
        {
          "internalType": "uint256",
          "name": "",
          "type": "uint256"
        }
      ],
      "stateMutability": "nonpayable",
      "type": "function"
    },
    {
      "inputs": [],
      "name": "getMult",
      "outputs": [
        {
          "internalType": "uint256",
          "name": "",
          "type": "uint256"
        }
      ],
      "stateMutability": "view",
      "type": "function"
    },
    {
      "inputs": [
        {
          "internalType": "address",
          "name": "spender",
          "type": "address"
        },
        {
          "internalType": "uint256",
          "name": "addedValue",
          "type": "uint256"
        }
      ],
      "name": "increaseAllowance",
      "outputs": [
        {
          "internalType": "bool",
          "name": "",
          "type": "bool"
        }
      ],
      "stateMutability": "nonpayable",
      "type": "function"
    },
    {
      "inputs": [
        {
          "internalType": "address",
          "name": "underlying_",
          "type": "address"
        },
        {
          "internalType": "address",
          "name": "diamond_",
          "type": "address"
        },
        {
          "internalType": "string",
          "name": "name_",
          "type": "string"
        },
        {
          "internalType": "string",
          "name": "symbol_",
          "type": "string"
        },
        {
          "internalType": "uint8",
          "name": "decimals_",
          "type": "uint8"
        }
      ],
      "name": "initialize",
      "outputs": [],
      "stateMutability": "nonpayable",
      "type": "function"
    },
    {
      "inputs": [
        {
          "internalType": "address",
          "name": "",
          "type": "address"
        }
      ],
      "name": "maxDeposit",
      "outputs": [
        {
          "internalType": "uint256",
          "name": "",
          "type": "uint256"
        }
      ],
      "stateMutability": "view",
      "type": "function"
    },
    {
      "inputs": [
        {
          "internalType": "address",
          "name": "",
          "type": "address"
        }
      ],
      "name": "maxMint",
      "outputs": [
        {
          "internalType": "uint256",
          "name": "",
          "type": "uint256"
        }
      ],
      "stateMutability": "view",
      "type": "function"
    },
    {
      "inputs": [
        {
          "internalType": "address",
          "name": "owner",
          "type": "address"
        }
      ],
      "name": "maxRedeem",
      "outputs": [
        {
          "internalType": "uint256",
          "name": "",
          "type": "uint256"
        }
      ],
      "stateMutability": "view",
      "type": "function"
    },
    {
      "inputs": [
        {
          "internalType": "address",
          "name": "owner",
          "type": "address"
        }
      ],
      "name": "maxWithdraw",
      "outputs": [
        {
          "internalType": "uint256",
          "name": "",
          "type": "uint256"
        }
      ],
      "stateMutability": "view",
      "type": "function"
    },
    {
      "inputs": [
        {
          "internalType": "uint256",
          "name": "shares",
          "type": "uint256"
        },
        {
          "internalType": "address",
          "name": "receiver",
          "type": "address"
        }
      ],
      "name": "mint",
      "outputs": [
        {
          "internalType": "uint256",
          "name": "",
          "type": "uint256"
        }
      ],
      "stateMutability": "nonpayable",
      "type": "function"
    },
    {
      "inputs": [],
      "name": "name",
      "outputs": [
        {
          "internalType": "string",
          "name": "",
          "type": "string"
        }
      ],
      "stateMutability": "view",
      "type": "function"
    },
    {
      "inputs": [
        {
          "internalType": "uint256",
          "name": "assets",
          "type": "uint256"
        }
      ],
      "name": "previewDeposit",
      "outputs": [
        {
          "internalType": "uint256",
          "name": "",
          "type": "uint256"
        }
      ],
      "stateMutability": "view",
      "type": "function"
    },
    {
      "inputs": [
        {
          "internalType": "uint256",
          "name": "shares",
          "type": "uint256"
        }
      ],
      "name": "previewMint",
      "outputs": [
        {
          "internalType": "uint256",
          "name": "",
          "type": "uint256"
        }
      ],
      "stateMutability": "view",
      "type": "function"
    },
    {
      "inputs": [
        {
          "internalType": "uint256",
          "name": "shares",
          "type": "uint256"
        }
      ],
      "name": "previewRedeem",
      "outputs": [
        {
          "internalType": "uint256",
          "name": "",
          "type": "uint256"
        }
      ],
      "stateMutability": "view",
      "type": "function"
    },
    {
      "inputs": [
        {
          "internalType": "uint256",
          "name": "assets",
          "type": "uint256"
        }
      ],
      "name": "previewWithdraw",
      "outputs": [
        {
          "internalType": "uint256",
          "name": "",
          "type": "uint256"
        }
      ],
      "stateMutability": "view",
      "type": "function"
    },
    {
      "inputs": [
        {
          "internalType": "uint256",
          "name": "shares",
          "type": "uint256"
        },
        {
          "internalType": "address",
          "name": "receiver",
          "type": "address"
        },
        {
          "internalType": "address",
          "name": "owner",
          "type": "address"
        }
      ],
      "name": "redeem",
      "outputs": [
        {
          "internalType": "uint256",
          "name": "",
          "type": "uint256"
        }
      ],
      "stateMutability": "nonpayable",
      "type": "function"
    },
    {
      "inputs": [
        {
          "internalType": "uint256",
          "name": "_rewardMultiplier",
          "type": "uint256"
        }
      ],
      "name": "setRewardMultiplier",
      "outputs": [],
      "stateMutability": "nonpayable",
      "type": "function"
    },
    {
      "inputs": [
        {
          "internalType": "address",
          "name": "account_",
          "type": "address"
        }
      ],
      "name": "sharesOf",
      "outputs": [
        {
          "internalType": "uint256",
          "name": "",
          "type": "uint256"
        }
      ],
      "stateMutability": "view",
      "type": "function"
    },
    {
      "inputs": [],
      "name": "symbol",
      "outputs": [
        {
          "internalType": "string",
          "name": "",
          "type": "string"
        }
      ],
      "stateMutability": "view",
      "type": "function"
    },
    {
      "inputs": [],
      "name": "totalAssets",
      "outputs": [
        {
          "internalType": "uint256",
          "name": "",
          "type": "uint256"
        }
      ],
      "stateMutability": "view",
      "type": "function"
    },
    {
      "inputs": [],
      "name": "totalShares",
      "outputs": [
        {
          "internalType": "uint256",
          "name": "",
          "type": "uint256"
        }
      ],
      "stateMutability": "view",
      "type": "function"
    },
    {
      "inputs": [],
      "name": "totalSupply",
      "outputs": [
        {
          "internalType": "uint256",
          "name": "",
          "type": "uint256"
        }
      ],
      "stateMutability": "view",
      "type": "function"
    },
    {
      "inputs": [
        {
          "internalType": "address",
          "name": "to",
          "type": "address"
        },
        {
          "internalType": "uint256",
          "name": "amount",
          "type": "uint256"
        }
      ],
      "name": "transfer",
      "outputs": [
        {
          "internalType": "bool",
          "name": "",
          "type": "bool"
        }
      ],
      "stateMutability": "nonpayable",
      "type": "function"
    },
    {
      "inputs": [
        {
          "internalType": "address",
          "name": "from",
          "type": "address"
        },
        {
          "internalType": "address",
          "name": "to",
          "type": "address"
        },
        {
          "internalType": "uint256",
          "name": "amount",
          "type": "uint256"
        }
      ],
      "name": "transferFrom",
      "outputs": [
        {
          "internalType": "bool",
          "name": "",
          "type": "bool"
        }
      ],
      "stateMutability": "nonpayable",
      "type": "function"
    },
    {
      "inputs": [
        {
          "internalType": "uint256",
          "name": "assets",
          "type": "uint256"
        },
        {
          "internalType": "address",
          "name": "receiver",
          "type": "address"
        },
        {
          "internalType": "address",
          "name": "owner",
          "type": "address"
        }
      ],
      "name": "withdraw",
      "outputs": [
        {
          "internalType": "uint256",
          "name": "",
          "type": "uint256"
        }
      ],
      "stateMutability": "nonpayable",
      "type": "function"
    }
  ],
  "bytecode": {
    "object": "0x608060405234801561001057600080fd5b5061001961001e565b6100de565b600054610100900460ff161561008a5760405162461bcd60e51b815260206004820152602760248201527f496e697469616c697a61626c653a20636f6e747261637420697320696e697469604482015266616c697a696e6760c81b606482015260840160405180910390fd5b60005460ff90811610156100dc576000805460ff191660ff9081179091556040519081527f7f26b83ff96e1f2b6a682f133852f6798a09c465da95921460cefb38474024989060200160405180910390a15b565b61153f806100ed6000396000f3fe608060405234801561001057600080fd5b50600436106101fb5760003560e01c806370a082311161011a578063b460af94116100ad578063ce96cb771161007c578063ce96cb7714610402578063d905777e14610415578063dd62ed3e14610428578063ef8b30f7146103ef578063f5eb42dc1461043b57600080fd5b8063b460af94146103b4578063ba087652146103c7578063c63d75b6146103da578063c6e6f592146103ef57600080fd5b806395d89b41116100e957806395d89b4114610373578063a457c2d71461037b578063a9059cbb1461038e578063b3d7f6b9146103a157600080fd5b806370a0823114610332578063816e5934146103455780638420ce991461034d57806394bf804d1461036057600080fd5b8063313ce56711610192578063402d267d11610161578063402d267d146102f95780634cdad5061461022b57806359ecd7fc1461030c5780636e553f651461031f57600080fd5b8063313ce567146102a457806338d52e0f146102c357806339509351146102de5780633a98ef39146102f157600080fd5b80630a28a477116101ce5780630a28a477146102615780630bd075a11461027457806318160ddd1461028957806323b872dd1461029157600080fd5b806301e1d1141461020057806306fdde031461021657806307a2d13a1461022b578063095ea7b31461023e575b600080fd5b60005b6040519081526020015b60405180910390f35b61021e61045f565b60405161020d919061103f565b61020361023936600461108d565b6104f1565b61025161024c3660046110c2565b610504565b604051901515815260200161020d565b61020361026f36600461108d565b61051c565b61028761028236600461108d565b610529565b005b610203610535565b61025161029f3660046110ec565b610547565b60a654600160a01b900460ff1660405160ff909116815260200161020d565b6065546040516001600160a01b03909116815260200161020d565b6102516102ec3660046110c2565b61056d565b60a754610203565b610203610307366004611128565b61058f565b61028761031a36600461108d565b6105ad565b61020361032d366004611143565b6105ed565b610203610340366004611128565b610667565b610203610684565b61028761035b366004611212565b6106f2565b61020361036e366004611143565b61083b565b61021e610855565b6102516103893660046110c2565b610864565b61025161039c3660046110c2565b6108ea565b6102036103af36600461108d565b6108f8565b6102036103c23660046112b2565b610905565b6102036103d53660046112b2565b610973565b6102036103e8366004611128565b5060001990565b6102036103fd36600461108d565b6109d8565b610203610410366004611128565b6109e5565b610203610423366004611128565b6109fa565b6102036104363660046112ee565b610a05565b610203610449366004611128565b6001600160a01b0316600090815260a860205290565b60606036805461046e90611318565b80601f016020809104026020016040519081016040528092919081815260200182805461049a90611318565b80156104e75780601f106104bc576101008083540402835291602001916104e7565b820191906000526020600020905b8154815290600101906020018083116104ca57829003601f168201915b5050505050905090565b60006104fe826000610a30565b92915050565b600033610512818585610a4e565b5060019392505050565b60006104fe826001610b72565b61053281610b91565b50565b600061054260a7546104f1565b905090565b600033610555858285610bf0565b610560858585610c6a565b60019150505b9392505050565b6000336105128185856105808383610a05565b61058a9190611352565b610a4e565b6000610599610d61565b6105a45760006104fe565b60001992915050565b806000036105d657604051634c56cc2960e11b8152600481018290526024015b60405180910390fd5b60a454610532906105e8908390611352565b610b91565b60006105f88261058f565b8311156106475760405162461bcd60e51b815260206004820152601e60248201527f455243343632363a206465706f736974206d6f7265207468616e206d6178000060448201526064016105cd565b6000610652846109d8565b905061066033848684610d71565b5092915050565b6001600160a01b038116600090815260a86020526104fe816104f1565b60a65460408051633b12dff560e01b815290516000926001600160a01b031691633b12dff59160048083019260209291908290030181865afa1580156106ce573d6000803e3d6000fd5b505050506040513d601f19601f820116820180604052508101906105429190611373565b600054610100900460ff16158080156107125750600054600160ff909116105b8061072c5750303b15801561072c575060005460ff166001145b61078f5760405162461bcd60e51b815260206004820152602e60248201527f496e697469616c697a61626c653a20636f6e747261637420697320616c72656160448201526d191e481a5b9a5d1a585b1a5e995960921b60648201526084016105cd565b6000805460ff1916600117905580156107b2576000805461ff0019166101001790555b6107bc8484610dd7565b6107c586610e0c565b60a6805460ff8416600160a01b026001600160a81b03199091166001600160a01b038816171790558015610833576000805461ff0019169055604051600181527f7f26b83ff96e1f2b6a682f133852f6798a09c465da95921460cefb38474024989060200160405180910390a15b505050505050565b600080610847846108f8565b905061056633848387610d71565b60606037805461046e90611318565b600033816108728286610a05565b9050838110156108d25760405162461bcd60e51b815260206004820152602560248201527f45524332303a2064656372656173656420616c6c6f77616e63652062656c6f77604482015264207a65726f60d81b60648201526084016105cd565b6108df8286868403610a4e565b506001949350505050565b600033610512818585610c6a565b60006104fe826001610a30565b6000610910826109e5565b84111561095f5760405162461bcd60e51b815260206004820152601f60248201527f455243343632363a207769746864726177206d6f7265207468616e206d61780060448201526064016105cd565b600061096a8561051c565b95945050505050565b600061097e826109fa565b8411156109cd5760405162461bcd60e51b815260206004820152601d60248201527f455243343632363a2072656465656d206d6f7265207468616e206d617800000060448201526064016105cd565b600061096a856104f1565b60006104fe826000610b72565b60006104fe6109f383610667565b6000610a30565b60006104fe82610667565b6001600160a01b03918216600090815260346020908152604080832093909416825291909152205490565b6000610566610a3d610684565b8490670de0b6b3a764000085610e3c565b6001600160a01b038316610ab05760405162461bcd60e51b8152602060048201526024808201527f45524332303a20617070726f76652066726f6d20746865207a65726f206164646044820152637265737360e01b60648201526084016105cd565b6001600160a01b038216610b115760405162461bcd60e51b815260206004820152602260248201527f45524332303a20617070726f766520746f20746865207a65726f206164647265604482015261737360f01b60648201526084016105cd565b6001600160a01b0383811660008181526034602090815260408083209487168084529482529182902085905590518481527f8c5be1e5ebec7d5bd14f71427d1e84f3dd0314c0f7b2291e5b200ac8c7c3b925910160405180910390a3505050565b6000610566670de0b6b3a7640000610b88610684565b85919085610e3c565b670de0b6b3a7640000811015610bbd57604051634c56cc2960e11b8152600481018290526024016105cd565b60a481905560405181907ffe5d4a0d7f088152b65d5e82045cc102fa71d952647598538d9fb3fb4820bd1890600090a250565b6000610bfc8484610a05565b90506000198114610c645781811015610c575760405162461bcd60e51b815260206004820152601d60248201527f45524332303a20696e73756666696369656e7420616c6c6f77616e636500000060448201526064016105cd565b610c648484848403610a4e565b50505050565b6001600160a01b038316610c9c57604051634b637e8f60e11b81526001600160a01b03841660048201526024016105cd565b6001600160a01b038216610cce5760405163ec442f0560e01b81526001600160a01b03831660048201526024016105cd565b6000610cd9826109d8565b6001600160a01b038516600090815260a8602052604090205490915081811015610d2f5760405163391434e360e21b81526001600160a01b038616600482015260248101829052604481018390526064016105cd565b6001600160a01b03808616600090815260a8602052604080822085850390559186168152208054830190555050505050565b6000610d6b610535565b15905090565b610d7b8382610e9c565b826001600160a01b0316846001600160a01b03167fdcbc1c05240f31ff3ad067ef1ee35ce4997762752e3a095284754544f4c709d78484604051610dc9929190918252602082015260400190565b60405180910390a350505050565b600054610100900460ff16610dfe5760405162461bcd60e51b81526004016105cd9061138c565b610e088282610f07565b5050565b600054610100900460ff16610e335760405162461bcd60e51b81526004016105cd9061138c565b61053281610f47565b600080610e4a868686610f90565b90506001836002811115610e6057610e606113d7565b148015610e7d575060008480610e7857610e786113ed565b868809115b1561096a57610e8d600182611352565b9695505050505050565b505050565b6001600160a01b038216610ece57604051637c896cfb60e01b81526001600160a01b03831660048201526024016105cd565b8060a76000828254610ee09190611352565b90915550506001600160a01b03909116600090815260a86020526040902080549091019055565b600054610100900460ff16610f2e5760405162461bcd60e51b81526004016105cd9061138c565b6036610f3a8382611449565b506037610e978282611449565b600054610100900460ff16610f6e5760405162461bcd60e51b81526004016105cd9061138c565b606580546001600160a01b0319166001600160a01b0392909216919091179055565b6000808060001985870985870292508281108382030391505080600003610fca57838281610fc057610fc06113ed565b0492505050610566565b808411610fd657600080fd5b60008486880960026001871981018816978890046003810283188082028403028082028403028082028403028082028403028082028403029081029092039091026000889003889004909101858311909403939093029303949094049190911702949350505050565b600060208083528351808285015260005b8181101561106c57858101830151858201604001528201611050565b506000604082860101526040601f19601f8301168501019250505092915050565b60006020828403121561109f57600080fd5b5035919050565b80356001600160a01b03811681146110bd57600080fd5b919050565b600080604083850312156110d557600080fd5b6110de836110a6565b946020939093013593505050565b60008060006060848603121561110157600080fd5b61110a846110a6565b9250611118602085016110a6565b9150604084013590509250925092565b60006020828403121561113a57600080fd5b610566826110a6565b6000806040838503121561115657600080fd5b82359150611166602084016110a6565b90509250929050565b634e487b7160e01b600052604160045260246000fd5b600082601f83011261119657600080fd5b813567ffffffffffffffff808211156111b1576111b161116f565b604051601f8301601f19908116603f011681019082821181831017156111d9576111d961116f565b816040528381528660208588010111156111f257600080fd5b836020870160208301376000602085830101528094505050505092915050565b600080600080600060a0868803121561122a57600080fd5b611233866110a6565b9450611241602087016110a6565b9350604086013567ffffffffffffffff8082111561125e57600080fd5b61126a89838a01611185565b9450606088013591508082111561128057600080fd5b5061128d88828901611185565b925050608086013560ff811681146112a457600080fd5b809150509295509295909350565b6000806000606084860312156112c757600080fd5b833592506112d7602085016110a6565b91506112e5604085016110a6565b90509250925092565b6000806040838503121561130157600080fd5b61130a836110a6565b9150611166602084016110a6565b600181811c9082168061132c57607f821691505b60208210810361134c57634e487b7160e01b600052602260045260246000fd5b50919050565b808201808211156104fe57634e487b7160e01b600052601160045260246000fd5b60006020828403121561138557600080fd5b5051919050565b6020808252602b908201527f496e697469616c697a61626c653a20636f6e7472616374206973206e6f74206960408201526a6e697469616c697a696e6760a81b606082015260800190565b634e487b7160e01b600052602160045260246000fd5b634e487b7160e01b600052601260045260246000fd5b601f821115610e9757600081815260208120601f850160051c8101602086101561142a5750805b601f850160051c820191505b8181101561083357828155600101611436565b815167ffffffffffffffff8111156114635761146361116f565b611477816114718454611318565b84611403565b602080601f8311600181146114ac57600084156114945750858301515b600019600386901b1c1916600185901b178555610833565b600085815260208120601f198616915b828110156114db578886015182559484019460019091019084016114bc565b50858210156114f95787850151600019600388901b60f8161c191681555b5050505050600190811b0190555056fea2646970667358221220caf3ec315db02693aec962d6eacb6f3e58c28fe094cf93f1f5235980943f9dc464736f6c63430008150033",
    "linkReferences": {}
  },
  "methodIdentifiers": {
    "addRewardMultiplier(uint256)": "59ecd7fc",
    "allowance(address,address)": "dd62ed3e",
    "approve(address,uint256)": "095ea7b3",
    "asset()": "38d52e0f",
    "balanceOf(address)": "70a08231",
    "convertToAssets(uint256)": "07a2d13a",
    "convertToShares(uint256)": "c6e6f592",
    "decimals()": "313ce567",
    "decreaseAllowance(address,uint256)": "a457c2d7",
    "deposit(uint256,address)": "6e553f65",
    "getMult()": "816e5934",
    "increaseAllowance(address,uint256)": "39509351",
    "initialize(address,address,string,string,uint8)": "8420ce99",
    "maxDeposit(address)": "402d267d",
    "maxMint(address)": "c63d75b6",
    "maxRedeem(address)": "d905777e",
    "maxWithdraw(address)": "ce96cb77",
    "mint(uint256,address)": "94bf804d",
    "name()": "06fdde03",
    "previewDeposit(uint256)": "ef8b30f7",
    "previewMint(uint256)": "b3d7f6b9",
    "previewRedeem(uint256)": "4cdad506",
    "previewWithdraw(uint256)": "0a28a477",
    "redeem(uint256,address,address)": "ba087652",
    "setRewardMultiplier(uint256)": "0bd075a1",
    "sharesOf(address)": "f5eb42dc",
    "symbol()": "95d89b41",
    "totalAssets()": "01e1d114",
    "totalShares()": "3a98ef39",
    "totalSupply()": "18160ddd",
    "transfer(address,uint256)": "a9059cbb",
    "transferFrom(address,address,uint256)": "23b872dd",
    "withdraw(uint256,address,address)": "b460af94"
  },
  "id": 23
}