{"abi":[{"type":"constructor","inputs":[],"stateMutability":"nonpayable"},{"type":"function","name":"DOMAIN_SEPARATOR","inputs":[],"outputs":[{"name":"","type":"bytes32","internalType":"bytes32"}],"stateMutability":"view"},{"type":"function","name":"FORMAT_DECIMALS","inputs":[],"outputs":[{"name":"","type":"uint256","internalType":"uint256"}],"stateMutability":"view"},{"type":"function","name":"allowance","inputs":[{"name":"owner","type":"address","internalType":"address"},{"name":"spender","type":"address","internalType":"address"}],"outputs":[{"name":"","type":"uint256","internalType":"uint256"}],"stateMutability":"view"},{"type":"function","name":"approve","inputs":[{"name":"spender","type":"address","internalType":"address"},{"name":"amount","type":"uint256","internalType":"uint256"}],"outputs":[{"name":"","type":"bool","internalType":"bool"}],"stateMutability":"nonpayable"},{"type":"function","name":"asset","inputs":[],"outputs":[{"name":"","type":"address","internalType":"address"}],"stateMutability":"view"},{"type":"function","name":"balanceOf","inputs":[{"name":"account_","type":"address","internalType":"address"}],"outputs":[{"name":"","type":"uint256","internalType":"uint256"}],"stateMutability":"view"},{"type":"function","name":"claimReward","inputs":[],"outputs":[{"name":"","type":"uint256","internalType":"uint256"}],"stateMutability":"nonpayable"},{"type":"function","name":"convertToAssets","inputs":[{"name":"shares_","type":"uint256","internalType":"uint256"},{"name":"account_","type":"address","internalType":"address"}],"outputs":[{"name":"","type":"uint256","internalType":"UintRay"}],"stateMutability":"view"},{"type":"function","name":"convertToShares","inputs":[{"name":"assets_","type":"uint256","internalType":"uint256"}],"outputs":[{"name":"","type":"uint256","internalType":"uint256"}],"stateMutability":"view"},{"type":"function","name":"convertToUnderlying","inputs":[{"name":"shares_","type":"uint256","internalType":"uint256"}],"outputs":[{"name":"","type":"uint256","internalType":"uint256"}],"stateMutability":"view"},{"type":"function","name":"decimals","inputs":[],"outputs":[{"name":"","type":"uint8","internalType":"uint8"}],"stateMutability":"pure"},{"type":"function","name":"decreaseAllowance","inputs":[{"name":"spender","type":"address","internalType":"address"},{"name":"subtractedValue","type":"uint256","internalType":"uint256"}],"outputs":[{"name":"","type":"bool","internalType":"bool"}],"stateMutability":"nonpayable"},{"type":"function","name":"earned","inputs":[{"name":"user_","type":"address","internalType":"address"}],"outputs":[{"name":"","type":"uint256","internalType":"uint256"}],"stateMutability":"view"},{"type":"function","name":"getRewardsData","inputs":[],"outputs":[{"name":"rewardRate","type":"uint256","internalType":"uint256"},{"name":"circulatingSupply","type":"uint256","internalType":"uint256"},{"name":"pendingAllocation","type":"uint256","internalType":"uint256"},{"name":"recicledSupply","type":"uint256","internalType":"uint256"},{"name":"durationLeft","type":"int256","internalType":"int256"}],"stateMutability":"view"},{"type":"function","name":"increaseAllowance","inputs":[{"name":"spender","type":"address","internalType":"address"},{"name":"addedValue","type":"uint256","internalType":"uint256"}],"outputs":[{"name":"","type":"bool","internalType":"bool"}],"stateMutability":"nonpayable"},{"type":"function","name":"initialize","inputs":[{"name":"underlying_","type":"address","internalType":"address"},{"name":"diamond_","type":"address","internalType":"address"},{"name":"name_","type":"string","internalType":"string"},{"name":"symbol_","type":"string","internalType":"string"}],"outputs":[],"stateMutability":"nonpayable"},{"type":"function","name":"lastTimeRewardApplicable","inputs":[],"outputs":[{"name":"","type":"uint256","internalType":"uint256"}],"stateMutability":"view"},{"type":"function","name":"mint","inputs":[{"name":"data_","type":"bytes","internalType":"bytes"},{"name":"owner_","type":"address","internalType":"address"}],"outputs":[{"name":"","type":"uint256","internalType":"uint256"}],"stateMutability":"nonpayable"},{"type":"function","name":"name","inputs":[],"outputs":[{"name":"","type":"string","internalType":"string"}],"stateMutability":"view"},{"type":"function","name":"nonces","inputs":[{"name":"owner","type":"address","internalType":"address"}],"outputs":[{"name":"","type":"uint256","internalType":"uint256"}],"stateMutability":"view"},{"type":"function","name":"notifyRewardAmount","inputs":[{"name":"amount_","type":"uint256","internalType":"uint256"}],"outputs":[],"stateMutability":"nonpayable"},{"type":"function","name":"permit","inputs":[{"name":"owner","type":"address","internalType":"address"},{"name":"spender","type":"address","internalType":"address"},{"name":"value","type":"uint256","internalType":"uint256"},{"name":"deadline","type":"uint256","internalType":"uint256"},{"name":"v","type":"uint8","internalType":"uint8"},{"name":"r","type":"bytes32","internalType":"bytes32"},{"name":"s_","type":"bytes32","internalType":"bytes32"}],"outputs":[],"stateMutability":"nonpayable"},{"type":"function","name":"previewMint","inputs":[{"name":"assets_","type":"uint256","internalType":"uint256"}],"outputs":[{"name":"","type":"uint256","internalType":"uint256"}],"stateMutability":"view"},{"type":"function","name":"previewRedeem","inputs":[{"name":"shares_","type":"uint256","internalType":"uint256"}],"outputs":[{"name":"","type":"uint256","internalType":"uint256"}],"stateMutability":"view"},{"type":"function","name":"previewWithdraw","inputs":[{"name":"assets","type":"uint256","internalType":"uint256"}],"outputs":[{"name":"","type":"uint256","internalType":"uint256"}],"stateMutability":"view"},{"type":"function","name":"redeem","inputs":[{"name":"data_","type":"bytes","internalType":"bytes"},{"name":"owner_","type":"address","internalType":"address"}],"outputs":[{"name":"","type":"uint256","internalType":"uint256"}],"stateMutability":"nonpayable"},{"type":"function","name":"rewardPerToken","inputs":[],"outputs":[{"name":"","type":"uint256","internalType":"uint256"}],"stateMutability":"view"},{"type":"function","name":"setRewardsDuration","inputs":[{"name":"duration_","type":"uint256","internalType":"uint256"}],"outputs":[],"stateMutability":"nonpayable"},{"type":"function","name":"sharesOf","inputs":[{"name":"account_","type":"address","internalType":"address"}],"outputs":[{"name":"","type":"uint256","internalType":"uint256"}],"stateMutability":"view"},{"type":"function","name":"subConvertToShares","inputs":[{"name":"assets_","type":"uint256","internalType":"uint256"},{"name":"account_","type":"address","internalType":"address"}],"outputs":[{"name":"","type":"uint256","internalType":"uint256"}],"stateMutability":"view"},{"type":"function","name":"symbol","inputs":[],"outputs":[{"name":"","type":"string","internalType":"string"}],"stateMutability":"view"},{"type":"function","name":"totalAssets","inputs":[],"outputs":[{"name":"","type":"uint256","internalType":"uint256"}],"stateMutability":"view"},{"type":"function","name":"totalShares","inputs":[],"outputs":[{"name":"","type":"uint256","internalType":"uint256"}],"stateMutability":"view"},{"type":"function","name":"totalSupply","inputs":[],"outputs":[{"name":"","type":"uint256","internalType":"uint256"}],"stateMutability":"view"},{"type":"function","name":"transfer","inputs":[{"name":"to","type":"address","internalType":"address"},{"name":"amount","type":"uint256","internalType":"uint256"}],"outputs":[{"name":"","type":"bool","internalType":"bool"}],"stateMutability":"nonpayable"},{"type":"function","name":"transferFrom","inputs":[{"name":"from","type":"address","internalType":"address"},{"name":"to","type":"address","internalType":"address"},{"name":"amount","type":"uint256","internalType":"uint256"}],"outputs":[{"name":"","type":"bool","internalType":"bool"}],"stateMutability":"nonpayable"},{"type":"event","name":"Approval","inputs":[{"name":"owner","type":"address","indexed":true,"internalType":"address"},{"name":"spender","type":"address","indexed":true,"internalType":"address"},{"name":"value","type":"uint256","indexed":false,"internalType":"uint256"}],"anonymous":false},{"type":"event","name":"Initialized","inputs":[{"name":"version","type":"uint8","indexed":false,"internalType":"uint8"}],"anonymous":false},{"type":"event","name":"Transfer","inputs":[{"name":"from","type":"address","indexed":true,"internalType":"address"},{"name":"to","type":"address","indexed":true,"internalType":"address"},{"name":"value","type":"uint256","indexed":false,"internalType":"uint256"}],"anonymous":false},{"type":"error","name":"OZError03","inputs":[]},{"type":"error","name":"OZError04","inputs":[{"name":"from","type":"address","internalType":"address"},{"name":"to","type":"address","internalType":"address"}]},{"type":"error","name":"OZError05","inputs":[{"name":"amount","type":"uint256","internalType":"uint256"}]},{"type":"error","name":"OZError06","inputs":[{"name":"sender","type":"address","internalType":"address"},{"name":"accountShares","type":"uint256","internalType":"uint256"},{"name":"shares","type":"uint256","internalType":"uint256"}]},{"type":"error","name":"OZError07","inputs":[{"name":"from","type":"address","internalType":"address"},{"name":"fromShares","type":"uint256","internalType":"uint256"},{"name":"shares","type":"uint256","internalType":"uint256"}]},{"type":"error","name":"OZError08","inputs":[{"name":"deadline","type":"uint256","internalType":"uint256"},{"name":"blockTimestamp","type":"uint256","internalType":"uint256"}]},{"type":"error","name":"OZError09","inputs":[{"name":"owner","type":"address","internalType":"address"},{"name":"spender","type":"address","internalType":"address"}]},{"type":"error","name":"OZError22","inputs":[{"name":"reason","type":"string","internalType":"string"}]},{"type":"error","name":"OZError35","inputs":[{"name":"ozAmountIn","type":"uint256","internalType":"uint256"}]}],"bytecode":{"object":"0x60806040523480156200001157600080fd5b506200001c62000022565b620000e4565b603154610100900460ff16156200008f5760405162461bcd60e51b815260206004820152602760248201527f496e697469616c697a61626c653a20636f6e747261637420697320696e697469604482015266616c697a696e6760c81b606482015260840160405180910390fd5b60315460ff9081161015620000e2576031805460ff191660ff9081179091556040519081527f7f26b83ff96e1f2b6a682f133852f6798a09c465da95921460cefb38474024989060200160405180910390a15b565b6125c180620000f46000396000f3fe608060405234801561001057600080fd5b506004361061021b5760003560e01c80634702a08411610125578063a9059cbb116100ad578063cc1a378f1161007c578063cc1a378f14610363578063cd3daf9d146103e8578063d505accf1461044c578063dd62ed3e1461045f578063f5eb42dc1461047257600080fd5b8063a9059cbb14610413578063b3d7f6b914610426578063b88a802f146103e8578063c6e6f5921461043957600080fd5b80637ecebe00116100f45780637ecebe00146103d557806380faa57d146103e857806395d89b41146103ef578063a01c8774146103f7578063a457c2d71461040057600080fd5b80634702a084146103745780634cdad5061461038757806370a08231146103955780637d098e64146103a857600080fd5b80632016a0d2116101a85780633644e515116101775780633644e5151461032557806338d52e0f1461032d57806339509351146103485780633a98ef391461035b5780633c6b16ab1461036357600080fd5b80632016a0d2146102db57806323b872dd146102f0578063313ce56714610303578063361032911461031257600080fd5b80630a28a477116101ef5780630a28a477146102875780630ba097d61461029a5780630cae37f1146102ad57806318160ddd146102c05780631dc7f521146102c857600080fd5b80628cc2621461022057806301e1d1141461024757806306fdde031461024f578063095ea7b314610264575b600080fd5b61023461022e366004611b54565b50600090565b6040519081526020015b60405180910390f35b61023461049b565b6102576104b0565b60405161023e9190611bb7565b610277610272366004611bca565b610542565b604051901515815260200161023e565b610234610295366004611bf6565b610559565b6102346102a8366004611cb0565b610564565b6102346102bb366004611cb0565b610807565b6102346109cf565b6102346102d6366004611bf6565b610a33565b6102ee6102e9366004611d36565b610ac3565b005b6102776102fe366004611dbf565b610cc1565b6040516012815260200161023e565b610234610320366004611e00565b610ce3565b610234610d34565b6067546040516001600160a01b03909116815260200161023e565b610277610356366004611bca565b610d3e565b610234610d5f565b6102ee610371366004611bf6565b50565b610234610382366004611e00565b610d70565b61023461022e366004611bf6565b6102346103a3366004611b54565b610e20565b6040805160008082526020820181905291810182905260608101829052608081019190915260a00161023e565b6102346103e3366004611b54565b610e4d565b6000610234565b610257610e6b565b610234606e5481565b61027761040e366004611bca565b610e7a565b610277610421366004611bca565b610eb7565b610234610434366004611bf6565b610ec4565b610234610447366004611bf6565b610ecf565b6102ee61045a366004611e34565b610f58565b61023461046d366004611ea5565b61107a565b610234610480366004611b54565b6001600160a01b031660009081526069602052604090205490565b6068546000906104ab90826110a5565b905090565b6060606c80546104bf90611ed3565b80601f01602080910402602001604051908101604052809291908181526020018280546104eb90611ed3565b80156105385780601f1061050d57610100808354040283529160200191610538565b820191906000526020600020905b81548152906001019060200180831161051b57829003601f168201915b5050505050905090565b600061054f3384846110e8565b5060015b92915050565b600061055382610ecf565b60665460009082906001600160a01b031680156105da576040516241fec360e31b81526001600160a01b03838116600483015282169063020ff61890602401600060405180830381600087803b1580156105bd57600080fd5b505af11580156105d1573d6000803e3d6000fd5b5050505061061e565b6000601a5560006018556001600160a01b0382161561061e576001600160a01b0382166000908152601e60209081526040808320839055601a54601d909252909120555b6000858060200190518101906106349190611f88565b5080519091506729a2241af62c000081101561066b57604051631a98558360e21b8152600481018290526024015b60405180910390fd5b6001600160a01b0386166000908152606960205260408120549061068f8389610d70565b9050808210156106cb57604051637ac073bf60e01b81526001600160a01b03891660048201526024810183905260448101829052606401610662565b6066546040516314370d6760e31b815282916001600160a01b03169063a1b86b38906106fd908c908e9060040161202d565b60408051808303816000875af1925050508015610737575060408051601f3d908101601f1916820190925261073491810190612051565b60015b61078957610743612075565b806308c379a00361077d5750610757612091565b80610762575061077f565b80604051631bc63b8160e01b81526004016106629190611bb7565b505b3d6000803e3d6000fd5b610794826000611197565b6066546001600160a01b031660009081526069602052604090205494506107bd83866000611207565b6066546001600160a01b039081166000908152606960209081526040808320839055928e168252606f9052208054939093039092555096506107ff9350505050565b505092915050565b60665460009082906001600160a01b0316801561087d576040516241fec360e31b81526001600160a01b03838116600483015282169063020ff61890602401600060405180830381600087803b15801561086057600080fd5b505af1158015610874573d6000803e3d6000fd5b505050506108c1565b6000601a5560006018556001600160a01b038216156108c1576001600160a01b0382166000908152601e60209081526040808320839055601a54601d909252909120555b600080868060200190518101906108d8919061211b565b606e5482519294509092506000916108ef91611265565b6066549091506001600160a01b0316639ea04fe46109156067546001600160a01b031690565b89866040518463ffffffff1660e01b8152600401610935939291906121b4565b6020604051808303816000875af1925050508015610970575060408051601f3d908101601f1916820190925261096d9181019061222d565b60015b61097c57610743612075565b610987816001611197565b8161099481806001611207565b6001600160a01b039093166000908152606960209081526040808320805487019055606f909152902080549092019091555093506107ff9050565b60006109d9610d5f565b1561022e576104ab610a2e610a036109ef61049b565b6109fe9064e8d4a5100061225c565b611278565b610a15610a0e610d5f565b6001611290565b610a27610a20610d5f565b6000611290565b9190611345565b611460565b6000610a3d610d5f565b60665460405163a4fc284b60e01b81526001600160a01b039091169063a4fc284b90610a6e906001906004016122a7565b602060405180830381865afa158015610a8b573d6000803e3d6000fd5b505050506040513d601f19601f82011682018060405250810190610aaf919061222d565b610ab9908461225c565b61055391906122d0565b603154610100900460ff1615808015610ae35750603154600160ff909116105b80610afd5750303b158015610afd575060315460ff166001145b610b605760405162461bcd60e51b815260206004820152602e60248201527f496e697469616c697a61626c653a20636f6e747261637420697320616c72656160448201526d191e481a5b9a5d1a585b1a5e995960921b6064820152608401610662565b6031805460ff191660011790558015610b83576031805461ff0019166101001790555b606c610b8f848261232f565b50606d610b9c838261232f565b50606680546001600160a01b038087166001600160a01b03199283161790925560678054928816929091169190911790556040805180820190915260018152603160f81b6020820152610bf0908490611478565b846001600160a01b031663313ce5676040518163ffffffff1660e01b8152600401602060405180830381865afa158015610c2e573d6000803e3d6000fd5b505050506040513d601f19601f82011682018060405250810190610c5291906123ef565b60ff16601214610c63576001610c6a565b64e8d4a510005b64ffffffffff16606e558015610cba576031805461ff0019169055604051600181527f7f26b83ff96e1f2b6a682f133852f6798a09c465da95921460cefb38474024989060200160405180910390a15b5050505050565b6000610cce8433846114ad565b610cd98484846114fb565b5060019392505050565b600080610cf1846000611290565b90508015610d2957610d24610d0584611619565b610d1c6b033b2e3c9fd0803ce80000006002611683565b839190611345565b610d2c565b60005b949350505050565b60006104ab61168f565b600061054f338484610d50338861107a565b610d5a919061240c565b6110e8565b6068546000906104ab9060016110a5565b600080610d856066546001600160a01b031690565b6001600160a01b0316633154b6e26000806040518363ffffffff1660e01b8152600401610db392919061241f565b602060405180830381865afa158015610dd0573d6000803e3d6000fd5b505050506040513d601f19601f82011682018060405250810190610df4919061222d565b9050610d2c610e0284611619565b610e1a610e106109fe610d5f565b84610a2789611278565b9061170a565b6000610553610a2e610e47846001600160a01b031660009081526069602052604090205490565b84610ce3565b6001600160a01b0381166000908152606a6020526040812054610553565b6060606d80546104bf90611ed3565b600080610e87338561107a565b905082811015610eaa576040516361ceb1d360e01b815260040160405180910390fd5b610cd933858584036110e8565b600061054f3384846114fb565b600061055382611747565b6000610553610edc610d5f565b6066546040516318aa5b7160e11b81526001600160a01b0390911690633154b6e290610f0f90600090819060040161241f565b602060405180830381865afa158015610f2c573d6000803e3d6000fd5b505050506040513d601f19601f82011682018060405250810190610f50919061222d565b849190611764565b83421115610f825760405163184f1e0160e11b815260048101859052426024820152604401610662565b60007f6e71edae12b1b97f4d1f60370fef10105fa2faae0126114a169c64845d6126c9888888610fb18c61178a565b6040805160208101969096526001600160a01b0394851690860152929091166060840152608083015260a082015260c0810186905260e001604051602081830303815290604052805190602001209050600061100c826117b2565b9050600061101c82878787611800565b9050896001600160a01b0316816001600160a01b03161461106357604051635091bef560e01b81526001600160a01b0380831660048301528b166024820152604401610662565b61106e8a8a8a6110e8565b50505050505050505050565b6001600160a01b039182166000908152606b6020908152604080832093909416825291909152205490565b60006fffffffffffffffffffffffffffffffff818360018111156110cb576110cb612273565b146110d857838116610d2c565b608084901c811691505092915050565b6001600160a01b038316158061110557506001600160a01b038216155b1561113657604051637db368a160e01b81526001600160a01b03808516600483015283166024820152604401610662565b6001600160a01b038381166000818152606b602090815260408083209487168084529482529182902085905590518481527f8c5be1e5ebec7d5bd14f71427d1e84f3dd0314c0f7b2291e5b200ac8c7c3b925910160405180910390a3505050565b60665460405163b0ff97b560e01b81523060048201526024810184905282151560448201526001600160a01b039091169063b0ff97b590606401600060405180830381600087803b1580156111eb57600080fd5b505af11580156111ff573d6000803e3d6000fd5b505050505050565b60685460009061121790826110a5565b9050600061123160016068546110a590919063ffffffff16565b905082156112445790840190830161124d565b90849003908390035b61125b81608084901b61240c565b6068555050505050565b600061127182846122d0565b9392505050565b6000610553826b033b2e3c9fd0803ce800000061225c565b6000806113176112a86066546001600160a01b031690565b6001600160a01b0316633154b6e26000866040518363ffffffff1660e01b81526004016112d692919061241f565b602060405180830381865afa1580156112f3573d6000803e3d6000fd5b505050506040513d601f19601f820116820180604052508101906109fe919061222d565b9050610d2c81611325610d5f565b1561133a576113356109fe610d5f565b61133c565b825b610a2787611278565b604051633f9b43b760e11b815260048101849052602481018390526000908490849084908490819073__$a7d7f0af96ad7248e2170a1364c3372171$__90637f36876e906044016040805180830381865af41580156113a8573d6000803e3d6000fd5b505050506040513d601f19601f820116820180604052508101906113cc9190612051565b6040516399ed504f60e01b8152600481018390526024810182905260448101869052919350915073__$a7d7f0af96ad7248e2170a1364c3372171$__906399ed504f90606401602060405180830381865af415801561142f573d6000803e3d6000fd5b505050506040513d601f19601f82011682018060405250810190611453919061222d565b9998505050505050505050565b60006105536b033b2e3c9fd0803ce8000000836122d0565b603154610100900460ff1661149f5760405162461bcd60e51b81526004016106629061243c565b6114a98282611828565b5050565b60006114b9848461107a565b905060001981146114f557818110156114e8576040516306052b7f60e01b815260048101839052602401610662565b6114f584848484036110e8565b50505050565b6001600160a01b038316158061151857506001600160a01b038216155b1561154957604051637db368a160e01b81526001600160a01b03808516600483015283166024820152604401610662565b600061155482611869565b6001600160a01b038516600090815260696020526040902054909150818110156115aa576040516315c29bad60e31b81526001600160a01b03861660048201526024810182905260448101839052606401610662565b6001600160a01b0380861660008181526069602052604080822086860390559287168082529083902080548601905591517fddf252ad1be2c89b69c2b068fc378daa952ba7f163c4a11628f55a4df523b3ef9061160a9087815260200190565b60405180910390a35050505050565b60006105536116356b033b2e3c9fd0803ce80000006002611683565b611657610a0e856001600160a01b031660009081526069602052604090205490565b6001600160a01b038516600090815260696020526040902054610a27906109fe9064e8d4a5100061225c565b6000611271828461256b565b60006104ab7f8b73c3c69bb8fe3d512ecc4cf759cc79239f7b179b0ffacaa9a75d522b39400f6116be60325490565b6033546040805160208101859052908101839052606081018290524660808201523060a082015260009060c0016040516020818303038152906040528051906020012090509392505050565b600082826117188183612577565b15611724576001611727565b60005b60ff1661173482846122d0565b61173e919061240c565b95945050505050565b6000610553611754610d5f565b61175c61049b565b84919061187e565b600082600019048411830215820261177b57600080fd5b50910281810615159190040190565b6001600160a01b0381166000908152606a602052604090208054600181018255905b50919050565b60006105536117bf61168f565b8360405161190160f01b6020820152602281018390526042810182905260009060620160405160208183030381529060405280519060200120905092915050565b60008060006118118787878761189c565b9150915061181e81611989565b5095945050505050565b603154610100900460ff1661184f5760405162461bcd60e51b81526004016106629061243c565b815160209283012081519190920120603291909155603355565b6000610553611876610d5f565b610f506109cf565b600082600019048411830215820261189557600080fd5b5091020490565b6000807f7fffffffffffffffffffffffffffffff5d576e7357a4501ddfe92f46681b20a08311156118d35750600090506003611980565b8460ff16601b141580156118eb57508460ff16601c14155b156118fc5750600090506004611980565b6040805160008082526020820180845289905260ff881692820192909252606081018690526080810185905260019060a0016020604051602081039080840390855afa158015611950573d6000803e3d6000fd5b5050604051601f1901519150506001600160a01b03811661197957600060019250925050611980565b9150600090505b94509492505050565b600081600481111561199d5761199d612273565b036119a55750565b60018160048111156119b9576119b9612273565b03611a065760405162461bcd60e51b815260206004820152601860248201527f45434453413a20696e76616c6964207369676e617475726500000000000000006044820152606401610662565b6002816004811115611a1a57611a1a612273565b03611a675760405162461bcd60e51b815260206004820152601f60248201527f45434453413a20696e76616c6964207369676e6174757265206c656e677468006044820152606401610662565b6003816004811115611a7b57611a7b612273565b03611ad35760405162461bcd60e51b815260206004820152602260248201527f45434453413a20696e76616c6964207369676e6174757265202773272076616c604482015261756560f01b6064820152608401610662565b6004816004811115611ae757611ae7612273565b036103715760405162461bcd60e51b815260206004820152602260248201527f45434453413a20696e76616c6964207369676e6174757265202776272076616c604482015261756560f01b6064820152608401610662565b6001600160a01b038116811461037157600080fd5b600060208284031215611b6657600080fd5b813561127181611b3f565b6000815180845260005b81811015611b9757602081850181015186830182015201611b7b565b506000602082860101526020601f19601f83011685010191505092915050565b6020815260006112716020830184611b71565b60008060408385031215611bdd57600080fd5b8235611be881611b3f565b946020939093013593505050565b600060208284031215611c0857600080fd5b5035919050565b634e487b7160e01b600052604160045260246000fd5b601f8201601f1916810167ffffffffffffffff81118282101715611c4b57611c4b611c0f565b6040525050565b600067ffffffffffffffff831115611c6c57611c6c611c0f565b604051611c83601f8501601f191660200182611c25565b809150838152848484011115611c9857600080fd5b83836020830137600060208583010152509392505050565b60008060408385031215611cc357600080fd5b823567ffffffffffffffff811115611cda57600080fd5b8301601f81018513611ceb57600080fd5b611cfa85823560208401611c52565b9250506020830135611d0b81611b3f565b809150509250929050565b600082601f830112611d2757600080fd5b61127183833560208501611c52565b60008060008060808587031215611d4c57600080fd5b8435611d5781611b3f565b93506020850135611d6781611b3f565b9250604085013567ffffffffffffffff80821115611d8457600080fd5b611d9088838901611d16565b93506060870135915080821115611da657600080fd5b50611db387828801611d16565b91505092959194509250565b600080600060608486031215611dd457600080fd5b8335611ddf81611b3f565b92506020840135611def81611b3f565b929592945050506040919091013590565b60008060408385031215611e1357600080fd5b823591506020830135611d0b81611b3f565b60ff8116811461037157600080fd5b600080600080600080600060e0888a031215611e4f57600080fd5b8735611e5a81611b3f565b96506020880135611e6a81611b3f565b955060408801359450606088013593506080880135611e8881611e25565b9699959850939692959460a0840135945060c09093013592915050565b60008060408385031215611eb857600080fd5b8235611ec381611b3f565b91506020830135611d0b81611b3f565b600181811c90821680611ee757607f821691505b6020821081036117ac57634e487b7160e01b600052602260045260246000fd5b600082601f830112611f1857600080fd5b8151602067ffffffffffffffff821115611f3457611f34611c0f565b8160051b604051611f4783830182611c25565b92835284810182019282810187851115611f6057600080fd5b83870192505b84831015611f7d5782518152918301918301611f66565b509695505050505050565b60008060408385031215611f9b57600080fd5b825167ffffffffffffffff80821115611fb357600080fd5b9084019060608287031215611fc757600080fd5b604051606081018181108382111715611fe257611fe2611c0f565b8060405250825181526020830151602082015260408301518281111561200757600080fd5b61201388828601611f07565b6040830152508094505050506020830151611d0b81611b3f565b6001600160a01b0383168152604060208201819052600090610d2c90830184611b71565b6000806040838503121561206457600080fd5b505080516020909101519092909150565b600060033d111561208e5760046000803e5060005160e01c5b90565b600060443d101561209f5790565b6040516003193d81016004833e81513d67ffffffffffffffff81602484011181841117156120cf57505050505090565b82850191508151818111156120e75750505050505090565b843d87010160208285010111156121015750505050505090565b61211060208286010187611c25565b509095945050505050565b6000806040838503121561212e57600080fd5b825167ffffffffffffffff8082111561214657600080fd5b908401906040828703121561215a57600080fd5b60405160408101818110838211171561217557612175611c0f565b6040528251815260208301518281111561218e57600080fd5b61219a88828601611f07565b6020830152508094505050506020830151611d0b81611b3f565b600060018060a01b0380861683526020818616818501526060604085015260a08401915084516060850152808501516040608086015282815180855260c0870191508383019450600092505b808310156122205784518252938301936001929092019190830190612200565b5098975050505050505050565b60006020828403121561223f57600080fd5b5051919050565b634e487b7160e01b600052601160045260246000fd5b808202811582820484141761055357610553612246565b634e487b7160e01b600052602160045260246000fd5b6002811061037157634e487b7160e01b600052602160045260246000fd5b602081016122b483612289565b91905290565b634e487b7160e01b600052601260045260246000fd5b6000826122df576122df6122ba565b500490565b601f82111561232a57600081815260208120601f850160051c8101602086101561230b5750805b601f850160051c820191505b818110156111ff57828155600101612317565b505050565b815167ffffffffffffffff81111561234957612349611c0f565b61235d816123578454611ed3565b846122e4565b602080601f831160018114612392576000841561237a5750858301515b600019600386901b1c1916600185901b1785556111ff565b600085815260208120601f198616915b828110156123c1578886015182559484019460019091019084016123a2565b50858210156123df5787850151600019600388901b60f8161c191681555b5050505050600190811b01905550565b60006020828403121561240157600080fd5b815161127181611e25565b8082018082111561055357610553612246565b8281526040810161242f83612289565b8260208301529392505050565b6020808252602b908201527f496e697469616c697a61626c653a20636f6e7472616374206973206e6f74206960408201526a6e697469616c697a696e6760a81b606082015260800190565b600181815b808511156124c25781600019048211156124a8576124a8612246565b808516156124b557918102915b93841c939080029061248c565b509250929050565b6000826124d957506001610553565b816124e657506000610553565b81600181146124fc576002811461250657612522565b6001915050610553565b60ff84111561251757612517612246565b50506001821b610553565b5060208310610133831016604e8410600b8410161715612545575081810a610553565b61254f8383612487565b806000190482111561256357612563612246565b029392505050565b600061127183836124ca565b600082612586576125866122ba565b50069056fea2646970667358221220c4719ddea459ee8c4f701df0b61ff6c04510c2ae7c13ec2f1818405a57aa1c1d64736f6c63430008150033","linkReferences":{"contracts/libraries/Uint512.sol":{"Uint512":[{"start":5219,"length":20},{"start":5353,"length":20}]}}},"methodIdentifiers":{"DOMAIN_SEPARATOR()":"3644e515","FORMAT_DECIMALS()":"a01c8774","allowance(address,address)":"dd62ed3e","approve(address,uint256)":"095ea7b3","asset()":"38d52e0f","balanceOf(address)":"70a08231","claimReward()":"b88a802f","convertToAssets(uint256,address)":"36103291","convertToShares(uint256)":"c6e6f592","convertToUnderlying(uint256)":"1dc7f521","decimals()":"313ce567","decreaseAllowance(address,uint256)":"a457c2d7","earned(address)":"008cc262","getRewardsData()":"7d098e64","increaseAllowance(address,uint256)":"39509351","initialize(address,address,string,string)":"2016a0d2","lastTimeRewardApplicable()":"80faa57d","mint(bytes,address)":"0cae37f1","name()":"06fdde03","nonces(address)":"7ecebe00","notifyRewardAmount(uint256)":"3c6b16ab","permit(address,address,uint256,uint256,uint8,bytes32,bytes32)":"d505accf","previewMint(uint256)":"b3d7f6b9","previewRedeem(uint256)":"4cdad506","previewWithdraw(uint256)":"0a28a477","redeem(bytes,address)":"0ba097d6","rewardPerToken()":"cd3daf9d","setRewardsDuration(uint256)":"cc1a378f","sharesOf(address)":"f5eb42dc","subConvertToShares(uint256,address)":"4702a084","symbol()":"95d89b41","totalAssets()":"01e1d114","totalShares()":"3a98ef39","totalSupply()":"18160ddd","transfer(address,uint256)":"a9059cbb","transferFrom(address,address,uint256)":"23b872dd"},"id":47}