{"abi":[{"type":"constructor","inputs":[],"stateMutability":"nonpayable"},{"type":"function","name":"DOMAIN_SEPARATOR","inputs":[],"outputs":[{"name":"","type":"bytes32","internalType":"bytes32"}],"stateMutability":"view"},{"type":"function","name":"FORMAT_DECIMALS","inputs":[],"outputs":[{"name":"","type":"uint256","internalType":"uint256"}],"stateMutability":"view"},{"type":"function","name":"allowance","inputs":[{"name":"owner","type":"address","internalType":"address"},{"name":"spender","type":"address","internalType":"address"}],"outputs":[{"name":"","type":"uint256","internalType":"uint256"}],"stateMutability":"view"},{"type":"function","name":"approve","inputs":[{"name":"spender","type":"address","internalType":"address"},{"name":"amount","type":"uint256","internalType":"uint256"}],"outputs":[{"name":"","type":"bool","internalType":"bool"}],"stateMutability":"nonpayable"},{"type":"function","name":"asset","inputs":[],"outputs":[{"name":"","type":"address","internalType":"address"}],"stateMutability":"view"},{"type":"function","name":"balanceOf","inputs":[{"name":"account_","type":"address","internalType":"address"}],"outputs":[{"name":"","type":"uint256","internalType":"uint256"}],"stateMutability":"view"},{"type":"function","name":"balanceOf2","inputs":[{"name":"account_","type":"address","internalType":"address"}],"outputs":[{"name":"","type":"uint256","internalType":"uint256"}],"stateMutability":"view"},{"type":"function","name":"balanceOf3","inputs":[{"name":"account_","type":"address","internalType":"address"}],"outputs":[{"name":"","type":"uint256","internalType":"uint256"}],"stateMutability":"view"},{"type":"function","name":"balanceOf4","inputs":[{"name":"account_","type":"address","internalType":"address"}],"outputs":[{"name":"","type":"uint256","internalType":"uint256"}],"stateMutability":"view"},{"type":"function","name":"claimReward","inputs":[],"outputs":[{"name":"","type":"uint256","internalType":"uint256"}],"stateMutability":"nonpayable"},{"type":"function","name":"convertToOzTokens","inputs":[{"name":"shares_","type":"uint256","internalType":"uint256"},{"name":"account_","type":"address","internalType":"address"}],"outputs":[{"name":"","type":"uint256","internalType":"UintRay"}],"stateMutability":"view"},{"type":"function","name":"convertToShares","inputs":[{"name":"assets_","type":"uint256","internalType":"uint256"},{"name":"account_","type":"address","internalType":"address"}],"outputs":[{"name":"","type":"uint256","internalType":"uint256"}],"stateMutability":"view"},{"type":"function","name":"convertToSharesFromOzBalance","inputs":[{"name":"ozBalance_","type":"uint256","internalType":"uint256"}],"outputs":[{"name":"","type":"uint256","internalType":"uint256"}],"stateMutability":"view"},{"type":"function","name":"convertToUnderlying","inputs":[{"name":"shares_","type":"uint256","internalType":"uint256"}],"outputs":[{"name":"","type":"uint256","internalType":"uint256"}],"stateMutability":"view"},{"type":"function","name":"decimals","inputs":[],"outputs":[{"name":"","type":"uint8","internalType":"uint8"}],"stateMutability":"pure"},{"type":"function","name":"decreaseAllowance","inputs":[{"name":"spender","type":"address","internalType":"address"},{"name":"subtractedValue","type":"uint256","internalType":"uint256"}],"outputs":[{"name":"","type":"bool","internalType":"bool"}],"stateMutability":"nonpayable"},{"type":"function","name":"earned","inputs":[{"name":"user_","type":"address","internalType":"address"}],"outputs":[{"name":"","type":"uint256","internalType":"uint256"}],"stateMutability":"view"},{"type":"function","name":"getRewardsData","inputs":[],"outputs":[{"name":"rewardRate","type":"uint256","internalType":"uint256"},{"name":"circulatingSupply","type":"uint256","internalType":"uint256"},{"name":"pendingAllocation","type":"uint256","internalType":"uint256"},{"name":"recicledSupply","type":"uint256","internalType":"uint256"},{"name":"durationLeft","type":"int256","internalType":"int256"}],"stateMutability":"view"},{"type":"function","name":"increaseAllowance","inputs":[{"name":"spender","type":"address","internalType":"address"},{"name":"addedValue","type":"uint256","internalType":"uint256"}],"outputs":[{"name":"","type":"bool","internalType":"bool"}],"stateMutability":"nonpayable"},{"type":"function","name":"initialize","inputs":[{"name":"underlying_","type":"address","internalType":"address"},{"name":"diamond_","type":"address","internalType":"address"},{"name":"name_","type":"string","internalType":"string"},{"name":"symbol_","type":"string","internalType":"string"}],"outputs":[],"stateMutability":"nonpayable"},{"type":"function","name":"lastTimeRewardApplicable","inputs":[],"outputs":[{"name":"","type":"uint256","internalType":"uint256"}],"stateMutability":"view"},{"type":"function","name":"mint","inputs":[{"name":"data_","type":"bytes","internalType":"bytes"},{"name":"owner_","type":"address","internalType":"address"}],"outputs":[{"name":"","type":"uint256","internalType":"uint256"}],"stateMutability":"payable"},{"type":"function","name":"mint2","inputs":[{"name":"data_","type":"bytes","internalType":"bytes"},{"name":"owner_","type":"address","internalType":"address"},{"name":"isETH_","type":"bool","internalType":"bool"}],"outputs":[{"name":"","type":"uint256","internalType":"uint256"}],"stateMutability":"payable"},{"type":"function","name":"name","inputs":[],"outputs":[{"name":"","type":"string","internalType":"string"}],"stateMutability":"view"},{"type":"function","name":"nonces","inputs":[{"name":"owner","type":"address","internalType":"address"}],"outputs":[{"name":"","type":"uint256","internalType":"uint256"}],"stateMutability":"view"},{"type":"function","name":"notifyRewardAmount","inputs":[{"name":"amount_","type":"uint256","internalType":"uint256"}],"outputs":[],"stateMutability":"nonpayable"},{"type":"function","name":"permit","inputs":[{"name":"owner","type":"address","internalType":"address"},{"name":"spender","type":"address","internalType":"address"},{"name":"value","type":"uint256","internalType":"uint256"},{"name":"deadline","type":"uint256","internalType":"uint256"},{"name":"v","type":"uint8","internalType":"uint8"},{"name":"r","type":"bytes32","internalType":"bytes32"},{"name":"s_","type":"bytes32","internalType":"bytes32"}],"outputs":[],"stateMutability":"nonpayable"},{"type":"function","name":"redeem","inputs":[{"name":"data_","type":"bytes","internalType":"bytes"},{"name":"owner_","type":"address","internalType":"address"}],"outputs":[{"name":"","type":"uint256","internalType":"uint256"}],"stateMutability":"nonpayable"},{"type":"function","name":"rewardPerToken","inputs":[],"outputs":[{"name":"","type":"uint256","internalType":"uint256"}],"stateMutability":"view"},{"type":"function","name":"setRewardsDuration","inputs":[{"name":"duration_","type":"uint256","internalType":"uint256"}],"outputs":[],"stateMutability":"nonpayable"},{"type":"function","name":"sharesOf","inputs":[{"name":"account_","type":"address","internalType":"address"}],"outputs":[{"name":"","type":"uint256","internalType":"uint256"}],"stateMutability":"view"},{"type":"function","name":"symbol","inputs":[],"outputs":[{"name":"","type":"string","internalType":"string"}],"stateMutability":"view"},{"type":"function","name":"totalAssets","inputs":[],"outputs":[{"name":"","type":"uint256","internalType":"uint256"}],"stateMutability":"view"},{"type":"function","name":"totalShares","inputs":[],"outputs":[{"name":"","type":"uint256","internalType":"uint256"}],"stateMutability":"view"},{"type":"function","name":"totalSupply","inputs":[],"outputs":[{"name":"","type":"uint256","internalType":"uint256"}],"stateMutability":"view"},{"type":"function","name":"transfer","inputs":[{"name":"to","type":"address","internalType":"address"},{"name":"amount","type":"uint256","internalType":"uint256"}],"outputs":[{"name":"","type":"bool","internalType":"bool"}],"stateMutability":"nonpayable"},{"type":"function","name":"transferFrom","inputs":[{"name":"from","type":"address","internalType":"address"},{"name":"to","type":"address","internalType":"address"},{"name":"amount","type":"uint256","internalType":"uint256"}],"outputs":[{"name":"","type":"bool","internalType":"bool"}],"stateMutability":"nonpayable"},{"type":"function","name":"transferShares","inputs":[{"name":"recipient_","type":"address","internalType":"address"},{"name":"shares_","type":"uint256","internalType":"uint256"}],"outputs":[{"name":"","type":"uint256","internalType":"uint256"}],"stateMutability":"nonpayable"},{"type":"function","name":"transferSharesFrom","inputs":[{"name":"sender_","type":"address","internalType":"address"},{"name":"recipient_","type":"address","internalType":"address"},{"name":"shares_","type":"uint256","internalType":"uint256"}],"outputs":[{"name":"","type":"uint256","internalType":"uint256"}],"stateMutability":"nonpayable"},{"type":"event","name":"Approval","inputs":[{"name":"owner","type":"address","indexed":true,"internalType":"address"},{"name":"spender","type":"address","indexed":true,"internalType":"address"},{"name":"value","type":"uint256","indexed":false,"internalType":"uint256"}],"anonymous":false},{"type":"event","name":"Initialized","inputs":[{"name":"version","type":"uint8","indexed":false,"internalType":"uint8"}],"anonymous":false},{"type":"event","name":"OzTokenMinted","inputs":[{"name":"owner","type":"address","indexed":false,"internalType":"address"},{"name":"shares","type":"uint256","indexed":false,"internalType":"uint256"},{"name":"assets","type":"uint256","indexed":false,"internalType":"uint256"}],"anonymous":false},{"type":"event","name":"OzTokenRedeemed","inputs":[{"name":"owner","type":"address","indexed":false,"internalType":"address"},{"name":"ozAmountIn","type":"uint256","indexed":false,"internalType":"uint256"},{"name":"shares","type":"uint256","indexed":false,"internalType":"uint256"},{"name":"assets","type":"uint256","indexed":false,"internalType":"uint256"}],"anonymous":false},{"type":"event","name":"Transfer","inputs":[{"name":"from","type":"address","indexed":true,"internalType":"address"},{"name":"to","type":"address","indexed":true,"internalType":"address"},{"name":"value","type":"uint256","indexed":false,"internalType":"uint256"}],"anonymous":false},{"type":"event","name":"TransferShares","inputs":[{"name":"from","type":"address","indexed":true,"internalType":"address"},{"name":"to","type":"address","indexed":true,"internalType":"address"},{"name":"sharesAmoutn","type":"uint256","indexed":false,"internalType":"uint256"}],"anonymous":false},{"type":"error","name":"OZError03","inputs":[]},{"type":"error","name":"OZError04","inputs":[{"name":"from","type":"address","internalType":"address"},{"name":"to","type":"address","internalType":"address"}]},{"type":"error","name":"OZError05","inputs":[{"name":"amount","type":"uint256","internalType":"uint256"}]},{"type":"error","name":"OZError06","inputs":[{"name":"sender","type":"address","internalType":"address"},{"name":"accountShares","type":"uint256","internalType":"uint256"},{"name":"shares","type":"uint256","internalType":"uint256"}]},{"type":"error","name":"OZError07","inputs":[{"name":"from","type":"address","internalType":"address"},{"name":"fromShares","type":"uint256","internalType":"uint256"},{"name":"shares","type":"uint256","internalType":"uint256"}]},{"type":"error","name":"OZError08","inputs":[{"name":"deadline","type":"uint256","internalType":"uint256"},{"name":"blockTimestamp","type":"uint256","internalType":"uint256"}]},{"type":"error","name":"OZError09","inputs":[{"name":"owner","type":"address","internalType":"address"},{"name":"spender","type":"address","internalType":"address"}]},{"type":"error","name":"OZError22","inputs":[{"name":"reason","type":"string","internalType":"string"}]},{"type":"error","name":"OZError35","inputs":[{"name":"ozAmountIn","type":"uint256","internalType":"uint256"}]},{"type":"error","name":"OZError37","inputs":[]},{"type":"error","name":"OZError38","inputs":[]},{"type":"error","name":"OZError39","inputs":[{"name":"data","type":"bytes","internalType":"bytes"}]},{"type":"error","name":"OZError42","inputs":[]},{"type":"error","name":"OZError43","inputs":[]}],"bytecode":{"object":"0x608060405234801562000010575f80fd5b506200001b62000021565b620000e3565b604254610100900460ff16156200008e5760405162461bcd60e51b815260206004820152602760248201527f496e697469616c697a61626c653a20636f6e747261637420697320696e697469604482015266616c697a696e6760c81b606482015260840160405180910390fd5b60425460ff9081161015620000e1576042805460ff191660ff9081179091556040519081527f7f26b83ff96e1f2b6a682f133852f6798a09c465da95921460cefb38474024989060200160405180910390a15b565b61336180620000f15f395ff3fe608060405260043610610227575f3560e01c806370a0823111610129578063a9059cbb116100a8578063d295fa9a1161006d578063d295fa9a146105ca578063d505accf146105e9578063dd62ed3e14610608578063ece5300c14610627578063f5eb42dc14610646575f80fd5b8063a9059cbb1461058c578063b88a802f14610513578063bc93f1cf146105ab578063cc1a378f146103f1578063cd3daf9d14610513575f80fd5b806380faa57d116100ee57806380faa57d146105135780638fcb4e5b1461052557806395d89b4114610544578063a01c877414610558578063a457c2d71461056d575f80fd5b806370a082311461046b5780637b0446371461048a5780637d098e641461049d5780637ecebe00146104d55780637f5b002e146104f4575f80fd5b806323b872dd116101b55780633a98ef391161017a5780633a98ef39146103dd5780633c6b16ab146103f1578063544365651461040e57806369e41c621461042d5780636d7804591461044c575f80fd5b806323b872dd14610349578063313ce567146103685780633644e5151461038357806338d52e0f1461039757806339509351146103be575f80fd5b80630ba097d6116101fb5780630ba097d6146102c15780630cae37f1146102e057806318160ddd146102f55780631dc7f521146103095780632016a0d214610328575f80fd5b80628cc2621461022b57806301e1d1141461025d57806306fdde0314610271578063095ea7b314610292575b5f80fd5b348015610236575f80fd5b5061024a6102453660046127ea565b505f90565b6040519081526020015b60405180910390f35b348015610268575f80fd5b5061024a61067a565b34801561027c575f80fd5b5061028561068e565b6040516102549190612848565b34801561029d575f80fd5b506102b16102ac36600461285a565b61071e565b6040519015158152602001610254565b3480156102cc575f80fd5b5061024a6102db36600461297b565b610734565b61024a6102ee36600461297b565b5f92915050565b348015610300575f80fd5b5061024a610b0d565b348015610314575f80fd5b5061024a6103233660046129ca565b610b6f565b348015610333575f80fd5b506103476103423660046129e1565b610bfc565b005b348015610354575f80fd5b506102b1610363366004612a65565b610df8565b348015610373575f80fd5b5060405160128152602001610254565b34801561038e575f80fd5b5061024a610e19565b3480156103a2575f80fd5b506078546040516001600160a01b039091168152602001610254565b3480156103c9575f80fd5b506102b16103d836600461285a565b610e22565b3480156103e8575f80fd5b5061024a610e42565b3480156103fc575f80fd5b5061034761040b3660046129ca565b50565b348015610419575f80fd5b5061024a6104283660046127ea565b610e52565b348015610438575f80fd5b5061024a6104473660046129ca565b61118d565b348015610457575f80fd5b5061024a610466366004612a65565b6111a9565b348015610476575f80fd5b5061024a6104853660046127ea565b6111e4565b61024a610498366004612aa3565b611361565b3480156104a8575f80fd5b50604080515f8082526020820181905291810182905260608101829052608081019190915260a001610254565b3480156104e0575f80fd5b5061024a6104ef3660046127ea565b6115cf565b3480156104ff575f80fd5b5061024a61050e3660046127ea565b6115ec565b34801561051e575f80fd5b505f61024a565b348015610530575f80fd5b5061024a61053f36600461285a565b611617565b34801561054f575f80fd5b50610285611646565b348015610563575f80fd5b5061024a607f5481565b348015610578575f80fd5b506102b161058736600461285a565b611655565b348015610597575f80fd5b506102b16105a636600461285a565b611691565b3480156105b6575f80fd5b5061024a6105c5366004612b07565b61169d565b3480156105d5575f80fd5b5061024a6105e4366004612b07565b6116ea565b3480156105f4575f80fd5b50610347610603366004612b38565b611796565b348015610613575f80fd5b5061024a610622366004612ba4565b6118b5565b348015610632575f80fd5b5061024a6106413660046127ea565b6118df565b348015610651575f80fd5b5061024a6106603660046127ea565b6001600160a01b03165f908152607a602052604090205490565b6079545f906106899082611b51565b905090565b6060607d805461069d90612bd0565b80601f01602080910402602001604051908101604052809291908181526020018280546106c990612bd0565b80156107145780601f106106eb57610100808354040283529160200191610714565b820191905f5260205f20905b8154815290600101906020018083116106f757829003601f168201915b5050505050905090565b5f61072a338484611b93565b5060015b92915050565b5f7fd979d933a329cda0d1d95e3d7a8aaccfc305f1200c53a87f37e6841bb793452c805c156107765760405163b955425560e01b815260048101604052600481fd5b6001815d60775483906001600160a01b031680156107e8576040516241fec360e31b81526001600160a01b03838116600483015282169063020ff618906024015f604051808303815f87803b1580156107cd575f80fd5b505af11580156107df573d5f803e3d5ffd5b50505050610829565b5f601a555f6018556001600160a01b03821615610829576001600160a01b0382165f908152601e60209081526040808320839055601a54601d909252909120555b855161010014610857578560405163041979eb60e41b815260040161084e9190612848565b60405180910390fd5b5f808780602001905181019061086d9190612c35565b815191935091506001600160a01b038816158061089157506001600160a01b038216155b156108af57604051632534b66960e21b815260040160405180910390fd5b6729a2241af62c00008110156108db57604051631a98558360e21b81526004810182905260240161084e565b6001600160a01b0388165f908152607a6020526040812054906108fe838b6116ea565b90508082101561092757898282604051637ac073bf60e01b815260040161084e93929190612d29565b5f81905060775f9054906101000a90046001600160a01b03166001600160a01b031663a1b86b388c8e6040518363ffffffff1660e01b815260040161096d929190612d4a565b60408051808303815f875af19250505080156109a6575060408051601f3d908101601f191682019092526109a391810190612d6d565b60015b6109f6576109b2612d8f565b806308c379a0036109ec57506109c6612da8565b806109d157506109ee565b80604051631bc63b8160e01b815260040161084e9190612848565b505b3d5f803e3d5ffd5b610a01825f80611c41565b6077546001600160a01b03165f908152607a60205260409020549450610a2883865f611cb5565b5f607a5f60775f9054906101000a90046001600160a01b03166001600160a01b03166001600160a01b031681526020019081526020015f20819055508260805f8f6001600160a01b03166001600160a01b031681526020019081526020015f205f82825403925050819055507f4181bb2dd7cb8bbe372dc317652857a2e512544faeba7c902b5e80107831732b8d878686604051610aea94939291906001600160a01b0394909416845260208401929092526040830152606082015260800190565b60405180910390a19a50610b019650505050505050565b50505f815d5092915050565b5f610b16610e42565b1561024557610689610b6a610b40610b2c61067a565b610b3b9064e8d4a51000612e45565b611d11565b610b52610b4b610e42565b6001611d28565b610b63610b5d610e42565b5f611d28565b9190611dd9565b611eef565b5f610b78610e42565b60775460405163a4fc284b60e01b81526001600160a01b039091169063a4fc284b90610ba990600190600401612e8c565b602060405180830381865afa158015610bc4573d5f803e3d5ffd5b505050506040513d601f19601f82011682018060405250810190610be89190612e9f565b610bf29084612e45565b61072e9190612eca565b604254610100900460ff1615808015610c1c5750604254600160ff909116105b80610c365750303b158015610c36575060425460ff166001145b610c995760405162461bcd60e51b815260206004820152602e60248201527f496e697469616c697a61626c653a20636f6e747261637420697320616c72656160448201526d191e481a5b9a5d1a585b1a5e995960921b606482015260840161084e565b6042805460ff191660011790558015610cbc576042805461ff0019166101001790555b607d610cc88482612f26565b50607e610cd58382612f26565b50607780546001600160a01b038087166001600160a01b03199283161790925560788054928816929091169190911790556040805180820190915260018152603160f81b6020820152610d29908490611f06565b846001600160a01b031663313ce5676040518163ffffffff1660e01b8152600401602060405180830381865afa158015610d65573d5f803e3d5ffd5b505050506040513d601f19601f82011682018060405250810190610d899190612fe6565b60ff16601214610d9a576001610da1565b64e8d4a510005b64ffffffffff16607f558015610df1576042805461ff0019169055604051600181527f7f26b83ff96e1f2b6a682f133852f6798a09c465da95921460cefb38474024989060200160405180910390a15b5050505050565b5f610e04843384611f3b565b610e0f848484611f87565b5060019392505050565b5f61068961208f565b5f61072a338484610e3333886118b5565b610e3d9190613001565b611b93565b6079545f90610689906001611b51565b5f80610edc670de0b6b3a764000062093a80610e766077546001600160a01b031690565b6001600160a01b0316631dc111956040518163ffffffff1660e01b8152600401602060405180830381865afa158015610eb1573d5f803e3d5ffd5b505050506040513d601f19601f82011682018060405250810190610ed59190612e9f565b9190612108565b6001600160a01b0384165f90815260806020908152604080832054815192830190915291815291925090610f0f90612123565b610fbe6040518060400160405280601f81526020017f5f4f5a28292e6765745374616b696e67526577617264735553444328293a2000815250610f5a6077546001600160a01b031690565b6001600160a01b0316631dc111956040518163ffffffff1660e01b8152600401602060405180830381865afa158015610f95573d5f803e3d5ffd5b505050506040513d601f19601f82011682018060405250810190610fb99190612e9f565b612166565b610ff560405180604001604052806015815260200174039b2b1b7b732363ca932bbb0b93239aaa9a2219d1605d1b81525083612166565b5f6110086077546001600160a01b031690565b6040516394f649dd60e01b81526001600160a01b03878116600483015291909116906394f649dd906024015f60405180830381865afa15801561104d573d5f803e3d5ffd5b505050506040513d5f823e601f3d908101601f191682016040526110749190810190613014565b90505f815f81518110611089576110896130ef565b602002602001015190506110b56040518060600160405280602581526020016133076025913942612166565b5f8160400151426110c69190613103565b6110d39062093a80613103565b905080156110e157806110e6565b62093a805b90506111156040518060400160405280600b81526020016a03a34b6b2a9b832b73a1d160ad1b81525082612166565b61113f60405180604001604052806008815260200167030b9b9b2ba399d160c51b81525085612166565b5f61114a8286612e45565b905061118260405180604001604052806014815260200173031b7b73a3934b13aba34b7b72330b1ba37b91d160651b81525082612166565b505050505050919050565b5f61072e611199610e42565b6111a1610b0d565b8491906121ab565b5f806111b8610b6a848761169d565b90506111c5853383611f3b565b6111d08585856121ce565b6111dc858583866122b6565b949350505050565b6001600160a01b0381165f908152604060208190528120548161120f6077546001600160a01b031690565b604051635b96c8d960e11b81526001600160a01b03868116600483015260248201859052919091169063b72d91b290604401602060405180830381865afa15801561125c573d5f803e3d5ffd5b505050506040513d601f19601f820116820180604052508101906112809190612e9f565b90505f6112956077546001600160a01b031690565b603c5460405163935feaa560e01b81526001600160a01b03929092169163935feaa5916112c89160040190815260200190565b602060405180830381865afa1580156112e3573d5f803e3d5ffd5b505050506040513d601f19601f820116820180604052508101906113079190612e9f565b90505f6113148284612eca565b6039549091505f906113269083612e45565b90506113576040518060400160405280600d81526020016c03ab9b2b92932bbb0b932399d1609d1b81525082612166565b9695505050505050565b5f7fd979d933a329cda0d1d95e3d7a8aaccfc305f1200c53a87f37e6841bb793452c805c156113a35760405163b955425560e01b815260048101604052600481fd5b6001815d5f80868060200190518101906113bd9190613129565b9150915084156113eb57348260200151146113eb57604051631008b85760e11b815260040160405180910390fd5b815115806113fb57506020820151155b156114195760405163e5da5c7360e01b815260040160405180910390fd5b6001600160a01b038616158061143657506001600160a01b038116155b1561145457604051632534b66960e21b815260040160405180910390fd5b607f5482515f916114659190612356565b6077549091506001600160a01b03166355dae15c3461148c6078546001600160a01b031690565b604080516001600160e01b031960e086901b1681526001600160a01b039283166004820152918c1660248301528751604483015260208801516064830152870151608482015289151560a482015260c401604080518083038185885af193505050508015611517575060408051601f3d908101601f1916820190925261151491810190612d6d565b60015b611523576109b2612d8f565b61152f82826001611c41565b8261153c81806001611cb5565b61154e858760200151885f0151612361565b6001600160a01b0385165f908152607a60209081526040808320805485019055608090915290819020805486019055517fcb7696223ea9f009e8eb0ecd9af1e430306b6c7c719e906d4a4af52bcba6353a906115af908c9084908890612d29565b60405180910390a196506115c4945050505050565b5f815d509392505050565b6001600160a01b0381165f908152607b602052604081205461072e565b5f61072e610b6a611611846001600160a01b03165f908152607a602052604090205490565b8461169d565b5f80611626610b6a843361169d565b90506116333385856121ce565b61163f338583866122b6565b9392505050565b6060607e805461069d90612bd0565b5f8061166133856118b5565b905082811015611684576040516361ceb1d360e01b815260040160405180910390fd5b610e0f3385858403611b93565b5f61072a338484611f87565b5f806116a9845f611d28565b905080156116e1576116dc6116bd84612395565b6116d46b033b2e3c9fd0803ce800000060026123fc565b839190611dd9565b6111dc565b5f949350505050565b5f806116fe6077546001600160a01b031690565b6001600160a01b0316633154b6e25f806040518363ffffffff1660e01b815260040161172b92919061317f565b602060405180830381865afa158015611746573d5f803e3d5ffd5b505050506040513d601f19601f8201168201806040525081019061176a9190612e9f565b90506111dc61177884612395565b611790611786610b3b610e42565b84610b6389611d11565b90612407565b834211156117c05760405163184f1e0160e11b81526004810185905242602482015260440161084e565b5f7f6e71edae12b1b97f4d1f60370fef10105fa2faae0126114a169c64845d6126c98888886117ee8c612442565b6040805160208101969096526001600160a01b0394851690860152929091166060840152608083015260a082015260c0810186905260e0016040516020818303038152906040528051906020012090505f61184882612469565b90505f611857828787876124b5565b9050896001600160a01b0316816001600160a01b03161461189e57604051635091bef560e01b81526001600160a01b0380831660048301528b16602482015260440161084e565b6118a98a8a8a611b93565b50505050505050505050565b6001600160a01b039182165f908152607c6020908152604080832093909416825291909152205490565b5f80611903670de0b6b3a764000062093a80610e766077546001600160a01b031690565b6001600160a01b0384165f9081526080602090815260408083205481519283019091529181529192509061193690612123565b6119816040518060400160405280601f81526020017f5f4f5a28292e6765745374616b696e67526577617264735553444328293a2000815250610f5a6077546001600160a01b031690565b6119b860405180604001604052806015815260200174039b2b1b7b732363ca932bbb0b93239aaa9a2219d1605d1b81525083612166565b5f6119cb6077546001600160a01b031690565b6040516394f649dd60e01b81526001600160a01b03878116600483015291909116906394f649dd906024015f60405180830381865afa158015611a10573d5f803e3d5ffd5b505050506040513d5f823e601f3d908101601f19168201604052611a379190810190613014565b90505f815f81518110611a4c57611a4c6130ef565b60200260200101519050611a786040518060600160405280602581526020016133076025913942612166565b5f816040015142611a899190613103565b611a969062093a80613103565b90508015611aa45780611aa9565b62093a805b9050611ad86040518060400160405280600b81526020016a03a34b6b2a9b832b73a1d160ad1b81525082612166565b611b066040518060400160405280600c81526020016b030b9b9b2ba39aab9b2b91d160a51b81525085612166565b6305f5e100670de0b6b3a7640000611b1e8388612e45565b611b289190612eca565b611b329086612e45565b611b3c9190612eca565b611b469085613001565b979650505050505050565b5f6fffffffffffffffffffffffffffffffff81836001811115611b7657611b76612e5c565b14611b83578381166111dc565b608084901c811691505092915050565b6001600160a01b0383161580611bb057506001600160a01b038216155b15611be157604051637db368a160e01b81526001600160a01b0380851660048301528316602482015260440161084e565b6001600160a01b038381165f818152607c602090815260408083209487168084529482529182902085905590518481527f8c5be1e5ebec7d5bd14f71427d1e84f3dd0314c0f7b2291e5b200ac8c7c3b925910160405180910390a3505050565b60775460405163db185e8960e01b8152306004820152602481018590526044810184905282151560648201526001600160a01b039091169063db185e89906084015b5f604051808303815f87803b158015611c9a575f80fd5b505af1158015611cac573d5f803e3d5ffd5b50505050505050565b6079545f90611cc49082611b51565b90505f611cdd6001607954611b5190919063ffffffff16565b90508215611cf057908401908301611cf9565b90849003908390035b611d0781608084901b613001565b6079555050505050565b5f61072e826b033b2e3c9fd0803ce8000000612e45565b5f80611dab611d3f6077546001600160a01b031690565b6001600160a01b0316633154b6e25f866040518363ffffffff1660e01b8152600401611d6c92919061317f565b602060405180830381865afa158015611d87573d5f803e3d5ffd5b505050506040513d601f19601f82011682018060405250810190610b3b9190612e9f565b90506111dc81611db9610e42565b15611dce57611dc9610b3b610e42565b611dd0565b825b610b6387611d11565b604051633f9b43b760e11b815260048101849052602481018390525f908490849084908490819073__$a7d7f0af96ad7248e2170a1364c3372171$__90637f36876e906044016040805180830381865af4158015611e39573d5f803e3d5ffd5b505050506040513d601f19601f82011682018060405250810190611e5d9190612d6d565b6040516399ed504f60e01b8152600481018390526024810182905260448101869052919350915073__$a7d7f0af96ad7248e2170a1364c3372171$__906399ed504f90606401602060405180830381865af4158015611ebe573d5f803e3d5ffd5b505050506040513d601f19601f82011682018060405250810190611ee29190612e9f565b9998505050505050505050565b5f61072e6b033b2e3c9fd0803ce800000083612eca565b604254610100900460ff16611f2d5760405162461bcd60e51b815260040161084e9061319c565b611f3782826124db565b5050565b5f611f4684846118b5565b90505f198114611f815781811015611f74576040516306052b7f60e01b81526004810183905260240161084e565b611f818484848403611b93565b50505050565b6001600160a01b0383161580611fa457506001600160a01b038216155b15611fd557604051637db368a160e01b81526001600160a01b0380851660048301528316602482015260440161084e565b5f611fdf8261118d565b6001600160a01b0385165f908152607a602052604090205490915081811015612021578481836040516315c29bad60e31b815260040161084e93929190612d29565b6001600160a01b038086165f818152607a602052604080822086860390559287168082529083902080548601905591517fddf252ad1be2c89b69c2b068fc378daa952ba7f163c4a11628f55a4df523b3ef906120809087815260200190565b60405180910390a35050505050565b5f6106897f8b73c3c69bb8fe3d512ecc4cf759cc79239f7b179b0ffacaa9a75d522b39400f6120bd60435490565b6044546040805160208101859052908101839052606081018290524660808201523060a08201525f9060c0016040516020818303038152906040528051906020012090509392505050565b5f825f19048411830215820261211c575f80fd5b5091020490565b61040b816040516024016121379190612848565b60408051601f198184030181529190526020810180516001600160e01b031663104c13eb60e21b17905261251c565b611f37828260405160240161217c9291906131e7565b60408051601f198184030181529190526020810180516001600160e01b03166309710a9d60e41b17905261251c565b5f825f1904841183021582026121bf575f80fd5b50910281810615159190040190565b6001600160a01b03831615806121eb57506001600160a01b038216155b1561221c57604051637db368a160e01b81526001600160a01b0380851660048301528316602482015260440161084e565b306001600160a01b0383160361224557604051636d3bb4b960e11b815260040160405180910390fd5b6001600160a01b0383165f908152607a602052604090205480821115612284578381836040516315c29bad60e31b815260040161084e93929190612d29565b6001600160a01b039384165f908152607a60205260408082209284900390925592909316825291902080549091019055565b826001600160a01b0316846001600160a01b03167fddf252ad1be2c89b69c2b068fc378daa952ba7f163c4a11628f55a4df523b3ef846040516122fb91815260200190565b60405180910390a3826001600160a01b0316846001600160a01b03167f9d9c909296d9c674451c0c24f02cb64981eb3b727f99865939192f880a755dcb8360405161234891815260200190565b60405180910390a350505050565b5f61163f8284612eca565b6077546040516331a2e95360e21b81526001600160a01b039091169063c68ba54c90611c8390869086908690600401612d29565b5f61072e6123b06b033b2e3c9fd0803ce800000060026123fc565b6123d1610b4b856001600160a01b03165f908152607a602052604090205490565b6001600160a01b0385165f908152607a6020526040902054610b6390610b3b9064e8d4a51000612e45565b5f61163f82846132e8565b5f828261241481836132f3565b15612420576001612422565b5f5b60ff1661242f8284612eca565b6124399190613001565b95945050505050565b6001600160a01b0381165f908152607b602052604090208054600181018255905b50919050565b5f61072e61247561208f565b8360405161190160f01b602082015260228101839052604281018290525f9060620160405160208183030381529060405280519060200120905092915050565b5f805f6124c48787878761253c565b915091506124d181612621565b5095945050505050565b604254610100900460ff166125025760405162461bcd60e51b815260040161084e9061319c565b815160209283012081519190920120604391909155604455565b80516a636f6e736f6c652e6c6f67602083015f808483855afa5050505050565b5f807f7fffffffffffffffffffffffffffffff5d576e7357a4501ddfe92f46681b20a083111561257157505f90506003612618565b8460ff16601b1415801561258957508460ff16601c14155b1561259957505f90506004612618565b604080515f8082526020820180845289905260ff881692820192909252606081018690526080810185905260019060a0016020604051602081039080840390855afa1580156125ea573d5f803e3d5ffd5b5050604051601f1901519150506001600160a01b038116612612575f60019250925050612618565b91505f90505b94509492505050565b5f81600481111561263457612634612e5c565b0361263c5750565b600181600481111561265057612650612e5c565b0361269d5760405162461bcd60e51b815260206004820152601860248201527f45434453413a20696e76616c6964207369676e61747572650000000000000000604482015260640161084e565b60028160048111156126b1576126b1612e5c565b036126fe5760405162461bcd60e51b815260206004820152601f60248201527f45434453413a20696e76616c6964207369676e6174757265206c656e67746800604482015260640161084e565b600381600481111561271257612712612e5c565b0361276a5760405162461bcd60e51b815260206004820152602260248201527f45434453413a20696e76616c6964207369676e6174757265202773272076616c604482015261756560f01b606482015260840161084e565b600481600481111561277e5761277e612e5c565b0361040b5760405162461bcd60e51b815260206004820152602260248201527f45434453413a20696e76616c6964207369676e6174757265202776272076616c604482015261756560f01b606482015260840161084e565b6001600160a01b038116811461040b575f80fd5b5f602082840312156127fa575f80fd5b813561163f816127d6565b5f81518084525f5b818110156128295760208185018101518683018201520161280d565b505f602082860101526020601f19601f83011685010191505092915050565b602081525f61163f6020830184612805565b5f806040838503121561286b575f80fd5b8235612876816127d6565b946020939093013593505050565b634e487b7160e01b5f52604160045260245ffd5b6060810181811067ffffffffffffffff821117156128b8576128b8612884565b60405250565b6080810181811067ffffffffffffffff821117156128b8576128b8612884565b601f8201601f1916810167ffffffffffffffff8111828210171561290457612904612884565b6040525050565b5f82601f83011261291a575f80fd5b813567ffffffffffffffff81111561293457612934612884565b60405161294b601f8301601f1916602001826128de565b81815284602083860101111561295f575f80fd5b816020850160208301375f918101602001919091529392505050565b5f806040838503121561298c575f80fd5b823567ffffffffffffffff8111156129a2575f80fd5b6129ae8582860161290b565b92505060208301356129bf816127d6565b809150509250929050565b5f602082840312156129da575f80fd5b5035919050565b5f805f80608085870312156129f4575f80fd5b84356129ff816127d6565b93506020850135612a0f816127d6565b9250604085013567ffffffffffffffff80821115612a2b575f80fd5b612a378883890161290b565b93506060870135915080821115612a4c575f80fd5b50612a598782880161290b565b91505092959194509250565b5f805f60608486031215612a77575f80fd5b8335612a82816127d6565b92506020840135612a92816127d6565b929592945050506040919091013590565b5f805f60608486031215612ab5575f80fd5b833567ffffffffffffffff811115612acb575f80fd5b612ad78682870161290b565b9350506020840135612ae8816127d6565b915060408401358015158114612afc575f80fd5b809150509250925092565b5f8060408385031215612b18575f80fd5b8235915060208301356129bf816127d6565b60ff8116811461040b575f80fd5b5f805f805f805f60e0888a031215612b4e575f80fd5b8735612b59816127d6565b96506020880135612b69816127d6565b955060408801359450606088013593506080880135612b8781612b2a565b9699959850939692959460a0840135945060c09093013592915050565b5f8060408385031215612bb5575f80fd5b8235612bc0816127d6565b915060208301356129bf816127d6565b600181811c90821680612be457607f821691505b60208210810361246357634e487b7160e01b5f52602260045260245ffd5b5f67ffffffffffffffff821115612c1b57612c1b612884565b5060051b60200190565b8051612c30816127d6565b919050565b5f8060408385031215612c46575f80fd5b825167ffffffffffffffff80821115612c5d575f80fd5b9084019060608287031215612c70575f80fd5b604051612c7c81612898565b8251815260208084015181830152604084015183811115612c9b575f80fd5b80850194505087601f850112612caf575f80fd5b83519250612cbc83612c02565b604051612cc982826128de565b84815260059490941b8501820193828101915089851115612ce8575f80fd5b948201945b84861015612d0657855182529482019490820190612ced565b8060408501525050819550612d1c818801612c25565b9450505050509250929050565b6001600160a01b039390931683526020830191909152604082015260600190565b6001600160a01b03831681526040602082018190525f906111dc90830184612805565b5f8060408385031215612d7e575f80fd5b505080516020909101519092909150565b5f60033d1115612da55760045f803e505f5160e01c5b90565b5f60443d1015612db55790565b6040516003193d81016004833e81513d67ffffffffffffffff8160248401118184111715612de557505050505090565b8285019150815181811115612dfd5750505050505090565b843d8701016020828501011115612e175750505050505090565b612e26602082860101876128de565b509095945050505050565b634e487b7160e01b5f52601160045260245ffd5b808202811582820484141761072e5761072e612e31565b634e487b7160e01b5f52602160045260245ffd5b6002811061040b57634e487b7160e01b5f52602160045260245ffd5b60208101612e9983612e70565b91905290565b5f60208284031215612eaf575f80fd5b5051919050565b634e487b7160e01b5f52601260045260245ffd5b5f82612ed857612ed8612eb6565b500490565b601f821115612f2157805f5260205f20601f840160051c81016020851015612f025750805b601f840160051c820191505b81811015610df1575f8155600101612f0e565b505050565b815167ffffffffffffffff811115612f4057612f40612884565b612f5481612f4e8454612bd0565b84612edd565b602080601f831160018114612f87575f8415612f705750858301515b5f19600386901b1c1916600185901b178555612fde565b5f85815260208120601f198616915b82811015612fb557888601518255948401946001909101908401612f96565b5085821015612fd257878501515f19600388901b60f8161c191681555b505060018460011b0185555b505050505050565b5f60208284031215612ff6575f80fd5b815161163f81612b2a565b8082018082111561072e5761072e612e31565b5f6020808385031215613025575f80fd5b825167ffffffffffffffff81111561303b575f80fd5b8301601f8101851361304b575f80fd5b805161305681612c02565b6040805161306483826128de565b83815260079390931b8401850192858101925088841115613083575f80fd5b938501935b838510156130e3576080858a03121561309f575f80fd5b81516130aa816128be565b85518152868601518782015282860151838201526060808701516130cd816127d6565b9082015283526080949094019391850191613088565b98975050505050505050565b634e487b7160e01b5f52603260045260245ffd5b8181035f83128015838313168383128216171561312257613122612e31565b5092915050565b5f80828403608081121561313b575f80fd5b6060811215613148575f80fd5b5060405161315581612898565b8351815260208401516020820152604084015160408201528092505060608301516129bf816127d6565b8281526040810161318f83612e70565b8260208301529392505050565b6020808252602b908201527f496e697469616c697a61626c653a20636f6e7472616374206973206e6f74206960408201526a6e697469616c697a696e6760a81b606082015260800190565b604081525f6131f96040830185612805565b90508260208301529392505050565b600181815b8085111561324257815f190482111561322857613228612e31565b8085161561323557918102915b93841c939080029061320d565b509250929050565b5f826132585750600161072e565b8161326457505f61072e565b816001811461327a5760028114613284576132a0565b600191505061072e565b60ff84111561329557613295612e31565b50506001821b61072e565b5060208310610133831016604e8410600b84101617156132c3575081810a61072e565b6132cd8383613208565b805f19048211156132e0576132e0612e31565b029392505050565b5f61163f838361324a565b5f8261330157613301612eb6565b50069056fe626c6f636b2e74696d657374616d7020696e2062616c616e63654f66202a2a2a2a2a2a3a20a2646970667358221220099385ab8b4f699ca488568422e83a22b8c486aaa3979e41cea44238d7b5e4c364736f6c63430008180033","linkReferences":{"contracts/libraries/Uint512.sol":{"Uint512":[{"start":7923,"length":20},{"start":8055,"length":20}]}}},"methodIdentifiers":{"DOMAIN_SEPARATOR()":"3644e515","FORMAT_DECIMALS()":"a01c8774","allowance(address,address)":"dd62ed3e","approve(address,uint256)":"095ea7b3","asset()":"38d52e0f","balanceOf(address)":"70a08231","balanceOf2(address)":"7f5b002e","balanceOf3(address)":"54436565","balanceOf4(address)":"ece5300c","claimReward()":"b88a802f","convertToOzTokens(uint256,address)":"bc93f1cf","convertToShares(uint256,address)":"d295fa9a","convertToSharesFromOzBalance(uint256)":"69e41c62","convertToUnderlying(uint256)":"1dc7f521","decimals()":"313ce567","decreaseAllowance(address,uint256)":"a457c2d7","earned(address)":"008cc262","getRewardsData()":"7d098e64","increaseAllowance(address,uint256)":"39509351","initialize(address,address,string,string)":"2016a0d2","lastTimeRewardApplicable()":"80faa57d","mint(bytes,address)":"0cae37f1","mint2(bytes,address,bool)":"7b044637","name()":"06fdde03","nonces(address)":"7ecebe00","notifyRewardAmount(uint256)":"3c6b16ab","permit(address,address,uint256,uint256,uint8,bytes32,bytes32)":"d505accf","redeem(bytes,address)":"0ba097d6","rewardPerToken()":"cd3daf9d","setRewardsDuration(uint256)":"cc1a378f","sharesOf(address)":"f5eb42dc","symbol()":"95d89b41","totalAssets()":"01e1d114","totalShares()":"3a98ef39","totalSupply()":"18160ddd","transfer(address,uint256)":"a9059cbb","transferFrom(address,address,uint256)":"23b872dd","transferShares(address,uint256)":"8fcb4e5b","transferSharesFrom(address,address,uint256)":"6d780459"},"id":46}