{
  "abi": [
    {
      "inputs": [],
      "stateMutability": "nonpayable",
      "type": "constructor"
    },
    {
      "inputs": [],
      "name": "OZError03",
      "type": "error"
    },
    {
      "inputs": [
        {
          "internalType": "address",
          "name": "from",
          "type": "address"
        },
        {
          "internalType": "address",
          "name": "to",
          "type": "address"
        }
      ],
      "name": "OZError04",
      "type": "error"
    },
    {
      "inputs": [
        {
          "internalType": "uint256",
          "name": "amount",
          "type": "uint256"
        }
      ],
      "name": "OZError05",
      "type": "error"
    },
    {
      "inputs": [
        {
          "internalType": "address",
          "name": "sender",
          "type": "address"
        },
        {
          "internalType": "uint256",
          "name": "accountShares",
          "type": "uint256"
        },
        {
          "internalType": "uint256",
          "name": "shares",
          "type": "uint256"
        }
      ],
      "name": "OZError06",
      "type": "error"
    },
    {
      "inputs": [
        {
          "internalType": "address",
          "name": "from",
          "type": "address"
        },
        {
          "internalType": "uint256",
          "name": "fromShares",
          "type": "uint256"
        },
        {
          "internalType": "uint256",
          "name": "shares",
          "type": "uint256"
        }
      ],
      "name": "OZError07",
      "type": "error"
    },
    {
      "inputs": [
        {
          "internalType": "uint256",
          "name": "deadline",
          "type": "uint256"
        },
        {
          "internalType": "uint256",
          "name": "blockTimestamp",
          "type": "uint256"
        }
      ],
      "name": "OZError08",
      "type": "error"
    },
    {
      "inputs": [
        {
          "internalType": "address",
          "name": "owner",
          "type": "address"
        },
        {
          "internalType": "address",
          "name": "spender",
          "type": "address"
        }
      ],
      "name": "OZError09",
      "type": "error"
    },
    {
      "inputs": [
        {
          "internalType": "string",
          "name": "reason",
          "type": "string"
        }
      ],
      "name": "OZError22",
      "type": "error"
    },
    {
      "anonymous": false,
      "inputs": [
        {
          "indexed": true,
          "internalType": "address",
          "name": "owner",
          "type": "address"
        },
        {
          "indexed": true,
          "internalType": "address",
          "name": "spender",
          "type": "address"
        },
        {
          "indexed": false,
          "internalType": "uint256",
          "name": "value",
          "type": "uint256"
        }
      ],
      "name": "Approval",
      "type": "event"
    },
    {
      "anonymous": false,
      "inputs": [
        {
          "indexed": false,
          "internalType": "uint8",
          "name": "version",
          "type": "uint8"
        }
      ],
      "name": "Initialized",
      "type": "event"
    },
    {
      "anonymous": false,
      "inputs": [
        {
          "indexed": true,
          "internalType": "address",
          "name": "from",
          "type": "address"
        },
        {
          "indexed": true,
          "internalType": "address",
          "name": "to",
          "type": "address"
        },
        {
          "indexed": false,
          "internalType": "uint256",
          "name": "value",
          "type": "uint256"
        }
      ],
      "name": "Transfer",
      "type": "event"
    },
    {
      "inputs": [],
      "name": "DOMAIN_SEPARATOR",
      "outputs": [
        {
          "internalType": "bytes32",
          "name": "",
          "type": "bytes32"
        }
      ],
      "stateMutability": "view",
      "type": "function"
    },
    {
      "inputs": [],
      "name": "FORMAT_DECIMALS",
      "outputs": [
        {
          "internalType": "uint256",
          "name": "",
          "type": "uint256"
        }
      ],
      "stateMutability": "view",
      "type": "function"
    },
    {
      "inputs": [
        {
          "internalType": "uint256",
          "name": "shares_",
          "type": "uint256"
        }
      ],
      "name": "_convertToAssetsFromUnderlying",
      "outputs": [
        {
          "internalType": "uint256",
          "name": "",
          "type": "uint256"
        }
      ],
      "stateMutability": "view",
      "type": "function"
    },
    {
      "inputs": [
        {
          "internalType": "address",
          "name": "owner",
          "type": "address"
        },
        {
          "internalType": "address",
          "name": "spender",
          "type": "address"
        }
      ],
      "name": "allowance",
      "outputs": [
        {
          "internalType": "uint256",
          "name": "",
          "type": "uint256"
        }
      ],
      "stateMutability": "view",
      "type": "function"
    },
    {
      "inputs": [
        {
          "internalType": "address",
          "name": "spender",
          "type": "address"
        },
        {
          "internalType": "uint256",
          "name": "amount",
          "type": "uint256"
        }
      ],
      "name": "approve",
      "outputs": [
        {
          "internalType": "bool",
          "name": "",
          "type": "bool"
        }
      ],
      "stateMutability": "nonpayable",
      "type": "function"
    },
    {
      "inputs": [],
      "name": "asset",
      "outputs": [
        {
          "internalType": "address",
          "name": "",
          "type": "address"
        }
      ],
      "stateMutability": "view",
      "type": "function"
    },
    {
      "inputs": [
        {
          "internalType": "address",
          "name": "account_",
          "type": "address"
        }
      ],
      "name": "balanceOf",
      "outputs": [
        {
          "internalType": "uint256",
          "name": "",
          "type": "uint256"
        }
      ],
      "stateMutability": "view",
      "type": "function"
    },
    {
      "inputs": [],
      "name": "claimReward",
      "outputs": [
        {
          "internalType": "uint256",
          "name": "",
          "type": "uint256"
        }
      ],
      "stateMutability": "nonpayable",
      "type": "function"
    },
    {
      "inputs": [
        {
          "internalType": "uint256",
          "name": "shares",
          "type": "uint256"
        },
        {
          "internalType": "address",
          "name": "account_",
          "type": "address"
        }
      ],
      "name": "convertToAssets",
      "outputs": [
        {
          "internalType": "uint256",
          "name": "assets",
          "type": "uint256"
        }
      ],
      "stateMutability": "view",
      "type": "function"
    },
    {
      "inputs": [
        {
          "internalType": "uint256",
          "name": "assets",
          "type": "uint256"
        }
      ],
      "name": "convertToShares",
      "outputs": [
        {
          "internalType": "uint256",
          "name": "shares",
          "type": "uint256"
        }
      ],
      "stateMutability": "view",
      "type": "function"
    },
    {
      "inputs": [
        {
          "internalType": "uint256",
          "name": "shares_",
          "type": "uint256"
        }
      ],
      "name": "convertToUnderlying",
      "outputs": [
        {
          "internalType": "uint256",
          "name": "",
          "type": "uint256"
        }
      ],
      "stateMutability": "view",
      "type": "function"
    },
    {
      "inputs": [],
      "name": "decimals",
      "outputs": [
        {
          "internalType": "uint8",
          "name": "",
          "type": "uint8"
        }
      ],
      "stateMutability": "pure",
      "type": "function"
    },
    {
      "inputs": [
        {
          "internalType": "address",
          "name": "spender",
          "type": "address"
        },
        {
          "internalType": "uint256",
          "name": "subtractedValue",
          "type": "uint256"
        }
      ],
      "name": "decreaseAllowance",
      "outputs": [
        {
          "internalType": "bool",
          "name": "",
          "type": "bool"
        }
      ],
      "stateMutability": "nonpayable",
      "type": "function"
    },
    {
      "inputs": [
        {
          "internalType": "address",
          "name": "user_",
          "type": "address"
        }
      ],
      "name": "earned",
      "outputs": [
        {
          "internalType": "uint256",
          "name": "",
          "type": "uint256"
        }
      ],
      "stateMutability": "view",
      "type": "function"
    },
    {
      "inputs": [],
      "name": "getRewardsData",
      "outputs": [
        {
          "internalType": "uint256",
          "name": "rewardRate",
          "type": "uint256"
        },
        {
          "internalType": "uint256",
          "name": "circulatingSupply",
          "type": "uint256"
        },
        {
          "internalType": "uint256",
          "name": "pendingAllocation",
          "type": "uint256"
        },
        {
          "internalType": "uint256",
          "name": "recicledSupply",
          "type": "uint256"
        },
        {
          "internalType": "int256",
          "name": "durationLeft",
          "type": "int256"
        }
      ],
      "stateMutability": "view",
      "type": "function"
    },
    {
      "inputs": [
        {
          "internalType": "address",
          "name": "spender",
          "type": "address"
        },
        {
          "internalType": "uint256",
          "name": "addedValue",
          "type": "uint256"
        }
      ],
      "name": "increaseAllowance",
      "outputs": [
        {
          "internalType": "bool",
          "name": "",
          "type": "bool"
        }
      ],
      "stateMutability": "nonpayable",
      "type": "function"
    },
    {
      "inputs": [
        {
          "internalType": "address",
          "name": "underlying_",
          "type": "address"
        },
        {
          "internalType": "address",
          "name": "diamond_",
          "type": "address"
        },
        {
          "internalType": "string",
          "name": "name_",
          "type": "string"
        },
        {
          "internalType": "string",
          "name": "symbol_",
          "type": "string"
        }
      ],
      "name": "initialize",
      "outputs": [],
      "stateMutability": "nonpayable",
      "type": "function"
    },
    {
      "inputs": [],
      "name": "lastTimeRewardApplicable",
      "outputs": [
        {
          "internalType": "uint256",
          "name": "",
          "type": "uint256"
        }
      ],
      "stateMutability": "view",
      "type": "function"
    },
    {
      "inputs": [
        {
          "internalType": "bytes",
          "name": "data_",
          "type": "bytes"
        },
        {
          "internalType": "address",
          "name": "owner_",
          "type": "address"
        }
      ],
      "name": "mint",
      "outputs": [
        {
          "internalType": "uint256",
          "name": "",
          "type": "uint256"
        }
      ],
      "stateMutability": "nonpayable",
      "type": "function"
    },
    {
      "inputs": [],
      "name": "name",
      "outputs": [
        {
          "internalType": "string",
          "name": "",
          "type": "string"
        }
      ],
      "stateMutability": "view",
      "type": "function"
    },
    {
      "inputs": [
        {
          "internalType": "address",
          "name": "owner",
          "type": "address"
        }
      ],
      "name": "nonces",
      "outputs": [
        {
          "internalType": "uint256",
          "name": "",
          "type": "uint256"
        }
      ],
      "stateMutability": "view",
      "type": "function"
    },
    {
      "inputs": [
        {
          "internalType": "uint256",
          "name": "amount_",
          "type": "uint256"
        }
      ],
      "name": "notifyRewardAmount",
      "outputs": [],
      "stateMutability": "nonpayable",
      "type": "function"
    },
    {
      "inputs": [
        {
          "internalType": "address",
          "name": "owner",
          "type": "address"
        },
        {
          "internalType": "address",
          "name": "spender",
          "type": "address"
        },
        {
          "internalType": "uint256",
          "name": "value",
          "type": "uint256"
        },
        {
          "internalType": "uint256",
          "name": "deadline",
          "type": "uint256"
        },
        {
          "internalType": "uint8",
          "name": "v",
          "type": "uint8"
        },
        {
          "internalType": "bytes32",
          "name": "r",
          "type": "bytes32"
        },
        {
          "internalType": "bytes32",
          "name": "s_",
          "type": "bytes32"
        }
      ],
      "name": "permit",
      "outputs": [],
      "stateMutability": "nonpayable",
      "type": "function"
    },
    {
      "inputs": [
        {
          "internalType": "uint256",
          "name": "assets_",
          "type": "uint256"
        }
      ],
      "name": "previewMint",
      "outputs": [
        {
          "internalType": "uint256",
          "name": "",
          "type": "uint256"
        }
      ],
      "stateMutability": "view",
      "type": "function"
    },
    {
      "inputs": [
        {
          "internalType": "uint256",
          "name": "shares_",
          "type": "uint256"
        }
      ],
      "name": "previewRedeem",
      "outputs": [
        {
          "internalType": "uint256",
          "name": "",
          "type": "uint256"
        }
      ],
      "stateMutability": "view",
      "type": "function"
    },
    {
      "inputs": [
        {
          "internalType": "uint256",
          "name": "assets",
          "type": "uint256"
        }
      ],
      "name": "previewWithdraw",
      "outputs": [
        {
          "internalType": "uint256",
          "name": "",
          "type": "uint256"
        }
      ],
      "stateMutability": "view",
      "type": "function"
    },
    {
      "inputs": [
        {
          "internalType": "bytes",
          "name": "data_",
          "type": "bytes"
        },
        {
          "internalType": "address",
          "name": "owner_",
          "type": "address"
        }
      ],
      "name": "redeem",
      "outputs": [
        {
          "internalType": "uint256",
          "name": "",
          "type": "uint256"
        }
      ],
      "stateMutability": "nonpayable",
      "type": "function"
    },
    {
      "inputs": [],
      "name": "rewardPerToken",
      "outputs": [
        {
          "internalType": "uint256",
          "name": "",
          "type": "uint256"
        }
      ],
      "stateMutability": "view",
      "type": "function"
    },
    {
      "inputs": [
        {
          "internalType": "uint256",
          "name": "duration_",
          "type": "uint256"
        }
      ],
      "name": "setRewardsDuration",
      "outputs": [],
      "stateMutability": "nonpayable",
      "type": "function"
    },
    {
      "inputs": [
        {
          "internalType": "address",
          "name": "account_",
          "type": "address"
        }
      ],
      "name": "sharesOf",
      "outputs": [
        {
          "internalType": "uint256",
          "name": "",
          "type": "uint256"
        }
      ],
      "stateMutability": "view",
      "type": "function"
    },
    {
      "inputs": [
        {
          "internalType": "address",
          "name": "account_",
          "type": "address"
        },
        {
          "internalType": "enum ozToken.Dir",
          "name": "side_",
          "type": "uint8"
        }
      ],
      "name": "subBalanceOf",
      "outputs": [
        {
          "internalType": "uint256",
          "name": "",
          "type": "uint256"
        }
      ],
      "stateMutability": "view",
      "type": "function"
    },
    {
      "inputs": [
        {
          "internalType": "uint256",
          "name": "assets",
          "type": "uint256"
        },
        {
          "internalType": "address",
          "name": "account_",
          "type": "address"
        }
      ],
      "name": "subConvertToShares",
      "outputs": [
        {
          "internalType": "uint256",
          "name": "shares",
          "type": "uint256"
        }
      ],
      "stateMutability": "view",
      "type": "function"
    },
    {
      "inputs": [],
      "name": "symbol",
      "outputs": [
        {
          "internalType": "string",
          "name": "",
          "type": "string"
        }
      ],
      "stateMutability": "view",
      "type": "function"
    },
    {
      "inputs": [],
      "name": "totalAssets",
      "outputs": [
        {
          "internalType": "uint256",
          "name": "",
          "type": "uint256"
        }
      ],
      "stateMutability": "view",
      "type": "function"
    },
    {
      "inputs": [],
      "name": "totalShares",
      "outputs": [
        {
          "internalType": "uint256",
          "name": "",
          "type": "uint256"
        }
      ],
      "stateMutability": "view",
      "type": "function"
    },
    {
      "inputs": [],
      "name": "totalSupply",
      "outputs": [
        {
          "internalType": "uint256",
          "name": "",
          "type": "uint256"
        }
      ],
      "stateMutability": "view",
      "type": "function"
    },
    {
      "inputs": [
        {
          "internalType": "address",
          "name": "to",
          "type": "address"
        },
        {
          "internalType": "uint256",
          "name": "amount",
          "type": "uint256"
        }
      ],
      "name": "transfer",
      "outputs": [
        {
          "internalType": "bool",
          "name": "",
          "type": "bool"
        }
      ],
      "stateMutability": "nonpayable",
      "type": "function"
    },
    {
      "inputs": [
        {
          "internalType": "address",
          "name": "from",
          "type": "address"
        },
        {
          "internalType": "address",
          "name": "to",
          "type": "address"
        },
        {
          "internalType": "uint256",
          "name": "amount",
          "type": "uint256"
        }
      ],
      "name": "transferFrom",
      "outputs": [
        {
          "internalType": "bool",
          "name": "",
          "type": "bool"
        }
      ],
      "stateMutability": "nonpayable",
      "type": "function"
    }
  ],
  "bytecode": {
    "object": "0x60806040523480156200001157600080fd5b506200001c62000022565b620000e4565b602b54610100900460ff16156200008f5760405162461bcd60e51b815260206004820152602760248201527f496e697469616c697a61626c653a20636f6e747261637420697320696e697469604482015266616c697a696e6760c81b606482015260840160405180910390fd5b602b5460ff9081161015620000e257602b805460ff191660ff9081179091556040519081527f7f26b83ff96e1f2b6a682f133852f6798a09c465da95921460cefb38474024989060200160405180910390a15b565b612ff780620000f46000396000f3fe608060405234801561001057600080fd5b50600436106102315760003560e01c80634702a08411610130578063a457c2d7116100b8578063cc1a378f1161007c578063cc1a378f1461038c578063cd3daf9d14610429578063d505accf1461047a578063dd62ed3e1461048d578063f5eb42dc146104a057600080fd5b8063a457c2d714610441578063a9059cbb14610454578063b3d7f6b914610467578063b88a802f14610429578063c6e6f5921461029d57600080fd5b80637d098e64116100ff5780637d098e64146103e95780637ecebe001461041657806380faa57d1461042957806395d89b4114610430578063a01c87741461043857600080fd5b80634702a0841461039d5780634cdad506146103b057806370a08231146103c357806370a25869146103d657600080fd5b80632016a0d2116101be5780633644e515116101825780633644e5151461034e57806338d52e0f1461035657806339509351146103715780633a98ef39146103845780633c6b16ab1461038c57600080fd5b80632016a0d2146102f157806323b872dd14610306578063279d97ef14610319578063313ce5671461032c578063361032911461033b57600080fd5b80630a28a477116102055780630a28a4771461029d5780630ba097d6146102b05780630cae37f1146102c357806318160ddd146102d65780631dc7f521146102de57600080fd5b80628cc2621461023657806301e1d1141461025d57806306fdde0314610265578063095ea7b31461027a575b600080fd5b61024a610244366004612368565b50600090565b6040519081526020015b60405180910390f35b61024a6104c9565b61026d6104de565b60405161025491906123d5565b61028d6102883660046123e8565b610570565b6040519015158152602001610254565b61024a6102ab366004612414565b610587565b61024a6102be3660046124ce565b610592565b61024a6102d13660046124ce565b610814565b61024a6109fc565b61024a6102ec366004612414565b610a50565b6103046102ff366004612554565b610ae0565b005b61028d6103143660046125dd565b610cde565b61024a61032736600461261e565b610d01565b60405160128152602001610254565b61024a610349366004612650565b610d24565b61024a610d30565b6061546040516001600160a01b039091168152602001610254565b61028d61037f3660046123e8565b610d3a565b61024a610d5b565b61030461039a366004612414565b50565b61024a6103ab366004612650565b610d6c565b61024a6103be366004612414565b610d78565b61024a6103d1366004612368565b610d83565b61024a6103e4366004612414565b610da6565b6040805160008082526020820181905291810182905260608101829052608081019190915260a001610254565b61024a610424366004612368565b610ddc565b600061024a565b61026d610dfa565b61024a60685481565b61028d61044f3660046123e8565b610e09565b61028d6104623660046123e8565b610e46565b61024a610475366004612414565b610e53565b610304610488366004612684565b610e5e565b61024a61049b3660046126f5565b610f80565b61024a6104ae366004612368565b6001600160a01b031660009081526063602052604090205490565b6062546000906104d99082610fab565b905090565b6060606680546104ed90612723565b80601f016020809104026020016040519081016040528092919081815260200182805461051990612723565b80156105665780601f1061053b57610100808354040283529160200191610566565b820191906000526020600020905b81548152906001019060200180831161054957829003601f168201915b5050505050905090565b600061057d338484610fe5565b5060015b92915050565b600061058182611094565b60605460009082906001600160a01b03168015610608576040516241fec360e31b81526001600160a01b03838116600483015282169063020ff61890602401600060405180830381600087803b1580156105eb57600080fd5b505af11580156105ff573d6000803e3d6000fd5b5050505061064c565b6000601a5560006018556001600160a01b0382161561064c576001600160a01b0382166000908152601e60209081526040808320839055601a54601d909252909120555b60008580602001905181019061066291906127ec565b5090506000610686866001600160a01b031660009081526063602052604090205490565b90506000610698836000015188610d6c565b9050808210156106d957604051637ac073bf60e01b81526001600160a01b038816600482015260248101839052604481018290526064015b60405180910390fd5b6060546040516314370d6760e31b815282916001600160a01b03169063a1b86b389061070b908b908d90600401612891565b60408051808303816000875af1925050508015610745575060408051601f3d908101601f19168201909252610742918101906128b5565b60015b610797576107516128d9565b806308c379a00361078b57506107656128f5565b80610770575061078d565b80604051631bc63b8160e01b81526004016106d091906123d5565b505b3d6000803e3d6000fd5b6107a28260006110b1565b6060546001600160a01b031660009081526063602052604090205494506107cb83866000611121565b6060546001600160a01b039081166000908152606360209081526040808320839055928d168252606990522080549390930390925550955061080c92505050565b505092915050565b60605460009082906001600160a01b0316801561088a576040516241fec360e31b81526001600160a01b03838116600483015282169063020ff61890602401600060405180830381600087803b15801561086d57600080fd5b505af1158015610881573d6000803e3d6000fd5b505050506108ce565b6000601a5560006018556001600160a01b038216156108ce576001600160a01b0382166000908152601e60209081526040808320839055601a54601d909252909120555b600080868060200190518101906108e5919061297f565b60685482519294509092506000916108fc9161117f565b6060549091506001600160a01b0316639ea04fe46109226061546001600160a01b031690565b89866040518463ffffffff1660e01b815260040161094293929190612a18565b6020604051808303816000875af192505050801561097d575060408051601f3d908101601f1916820190925261097a91810190612a91565b60015b610989576107516128d9565b6109948160016110b1565b600061099e610d5b565b156109b1576109ac83610e53565b6109b3565b825b90506109c183826001611121565b6001600160a01b03909316600090815260636020908152604080832080548701905560699091529020805490920190915550935061080c9050565b6000610a06610d5b565b15610244576104d9610a166104c9565b610a259064e8d4a51000612ac0565b610a37610a30610d5b565b600161118b565b610a49610a42610d5b565b600061118b565b91906111f7565b6000610a5a610d5b565b60605460405163a4fc284b60e01b81526001600160a01b039091169063a4fc284b90610a8b90600190600401612aed565b602060405180830381865afa158015610aa8573d6000803e3d6000fd5b505050506040513d601f19601f82011682018060405250810190610acc9190612a91565b610ad69084612ac0565b6105819190612b2b565b602b54610100900460ff1615808015610b005750602b54600160ff909116105b80610b1a5750303b158015610b1a5750602b5460ff166001145b610b7d5760405162461bcd60e51b815260206004820152602e60248201527f496e697469616c697a61626c653a20636f6e747261637420697320616c72656160448201526d191e481a5b9a5d1a585b1a5e995960921b60648201526084016106d0565b602b805460ff191660011790558015610ba057602b805461ff0019166101001790555b6066610bac8482612b8a565b506067610bb98382612b8a565b50606080546001600160a01b038087166001600160a01b03199283161790925560618054928816929091169190911790556040805180820190915260018152603160f81b6020820152610c0d908490611215565b846001600160a01b031663313ce5676040518163ffffffff1660e01b8152600401602060405180830381865afa158015610c4b573d6000803e3d6000fd5b505050506040513d601f19601f82011682018060405250810190610c6f9190612c4a565b60ff16601214610c80576001610c87565b64e8d4a510005b64ffffffffff166068558015610cd757602b805461ff0019169055604051600181527f7f26b83ff96e1f2b6a682f133852f6798a09c465da95921460cefb38474024989060200160405180910390a15b5050505050565b6000610ceb84338461124a565b610cf6848484611298565b5060015b9392505050565b6001600160a01b038216600090815260636020526040812054610cfa908361118b565b6000610cfa83836113c9565b60006104d961140a565b600061057d338484610d4c3388610f80565b610d569190612c67565b610fe5565b6062546000906104d9906001610fab565b6000610cfa8383611485565b600061058182610da6565b6001600160a01b0381166000908152606360205260408120546105819083610d24565b60008082610db2610d5b565b610dbc9190612c7a565b9050610cfa610dc9611508565b610dd485600061118b565b8591906111f7565b6001600160a01b038116600090815260646020526040812054610581565b6060606780546104ed90612723565b600080610e163385610f80565b905082811015610e39576040516361ceb1d360e01b815260040160405180910390fd5b610cf63385858403610fe5565b600061057d338484611298565b600061058182611526565b83421115610e885760405163184f1e0160e11b8152600481018590524260248201526044016106d0565b60007f6e71edae12b1b97f4d1f60370fef10105fa2faae0126114a169c64845d6126c9888888610eb78c611543565b6040805160208101969096526001600160a01b0394851690860152929091166060840152608083015260a082015260c0810186905260e0016040516020818303038152906040528051906020012090506000610f128261156b565b90506000610f22828787876115b9565b9050896001600160a01b0316816001600160a01b031614610f6957604051635091bef560e01b81526001600160a01b0380831660048301528b1660248201526044016106d0565b610f748a8a8a610fe5565b50505050505050505050565b6001600160a01b03918216600090815260656020908152604080832093909416825291909152205490565b60006001600160801b0381836001811115610fc857610fc8612ad7565b14610fd557838116610fdd565b608084901c81165b949350505050565b6001600160a01b038316158061100257506001600160a01b038216155b1561103357604051637db368a160e01b81526001600160a01b038085166004830152831660248201526044016106d0565b6001600160a01b0383811660008181526065602090815260408083209487168084529482529182902085905590518481527f8c5be1e5ebec7d5bd14f71427d1e84f3dd0314c0f7b2291e5b200ac8c7c3b925910160405180910390a3505050565b60006105816110a1610d5b565b6110a9611508565b8491906115e1565b60605460405163b0ff97b560e01b81523060048201526024810184905282151560448201526001600160a01b039091169063b0ff97b590606401600060405180830381600087803b15801561110557600080fd5b505af1158015611119573d6000803e3d6000fd5b505050505050565b6062546000906111319082610fab565b9050600061114b6001606254610fab90919063ffffffff16565b9050821561115e57908401908301611167565b90849003908390035b61117581608084901b612c67565b6062555050505050565b6000610cfa8284612b2b565b600073ae78736cd615f374d3085123a210448e74fc639373c02aaa39b223fe8d0a0e5c4f27ead9083c756cc2826111c3838387611607565b90506111ed816111d1610d5b565b156111e3576111de610d5b565b6111e5565b825b8891906111f7565b9695505050505050565b600082600019048411830215820261120e57600080fd5b5091020490565b602b54610100900460ff1661123c5760405162461bcd60e51b81526004016106d090612c8d565b61124682826117f0565b5050565b60006112568484610f80565b905060001981146112925781811015611285576040516306052b7f60e01b8152600481018390526024016106d0565b6112928484848403610fe5565b50505050565b6001600160a01b03831615806112b557506001600160a01b038216155b156112e657604051637db368a160e01b81526001600160a01b038085166004830152831660248201526044016106d0565b60006112f184611831565b6112fa83610587565b6113049190612b2b565b6001600160a01b0385166000908152606360205260409020549091508181101561135a576040516315c29bad60e31b81526001600160a01b038616600482015260248101829052604481018390526064016106d0565b6001600160a01b0380861660008181526063602052604080822086860390559287168082529083902080548601905591517fddf252ad1be2c89b69c2b068fc378daa952ba7f163c4a11628f55a4df523b3ef906113ba9087815260200190565b60405180910390a35050505050565b6000806113d784600061118b565b90508015611400576113fb6113eb84611831565b8290670de0b6b3a76400006111f7565b610fdd565b5060009392505050565b60006104d97f8b73c3c69bb8fe3d512ecc4cf759cc79239f7b179b0ffacaa9a75d522b39400f611439602c5490565b602d546040805160208101859052908101839052606081018290524660808201523060a082015260009060c0016040516020818303038152906040528051906020012090509392505050565b600073ae78736cd615f374d3085123a210448e74fc639373c02aaa39b223fe8d0a0e5c4f27ead9083c756cc2826114bb85611831565b905060006114cb84846000611607565b9050816114e16114d9610d5b565b8990846115e1565b6114f390670de0b6b3a7640000612ac0565b6114fd9190612b2b565b979650505050505050565b6060546000906001600160a01b03166115208161189c565b91505090565b6000610581611533610d5b565b61153b6104c9565b8491906111f7565b6001600160a01b03811660009081526064602052604090208054600181018255905b50919050565b600061058161157861140a565b8360405161190160f01b6020820152602281018390526042810182905260009060620160405160208183030381529060405280519060200120905092915050565b60008060006115ca878787876118e8565b915091506115d7816119d5565b5095945050505050565b60008260001904841183021582026115f857600080fd5b50910281810615159190040190565b600073a4e0faa58465a2d369aa21b3e42d43374c6f9613818084600181111561163257611632612ad7565b146116405762015180611644565b6107085b60408051600280825260608201835262ffffff9390931693506000929091602083019080368337019050509050818160008151811061168557611685612cd8565b602002602001019063ffffffff16908163ffffffff16815250506000816001815181106116b4576116b4612cd8565b63ffffffff9092166020928302919091019091015260405163883bdbfd60e01b81526000906001600160a01b0385169063883bdbfd906116f8908590600401612cee565b600060405180830381865afa158015611715573d6000803e3d6000fd5b505050506040513d6000823e601f3d908101601f1916820160405261173d9190810190612da7565b50905060008160008151811061175557611755612cd8565b60200260200101518260018151811061177057611770612cd8565b60200260200101516117829190612e7e565b90506000611794600386900b83612eab565b905060008260060b1280156117b857506117b2600386900b83612ee9565b60060b15155b156117cb57806117c781612f0b565b9150505b60006117e182670de0b6b3a76400008d8d611b8b565b9b9a5050505050505050505050565b602b54610100900460ff166118175760405162461bcd60e51b81526004016106d090612c8d565b815160209283012081519190920120602c91909155602d55565b600073ae78736cd615f374d3085123a210448e74fc639373c02aaa39b223fe8d0a0e5c4f27ead9083c756cc2610fdd670de0b6b3a7640000611874866001610d01565b6001600160a01b038716600090815260696020526040902054610a499064e8d4a51000612ac0565b6040805160048152602481019091526020810180516001600160e01b0316636a57db9d60e11b1790526000906118d28382611c99565b905080806020019051810190610cfa9190612a91565b6000807f7fffffffffffffffffffffffffffffff5d576e7357a4501ddfe92f46681b20a083111561191f57506000905060036119cc565b8460ff16601b1415801561193757508460ff16601c14155b1561194857506000905060046119cc565b6040805160008082526020820180845289905260ff881692820192909252606081018690526080810185905260019060a0016020604051602081039080840390855afa15801561199c573d6000803e3d6000fd5b5050604051601f1901519150506001600160a01b0381166119c5576000600192509250506119cc565b9150600090505b94509492505050565b60008160048111156119e9576119e9612ad7565b036119f15750565b6001816004811115611a0557611a05612ad7565b03611a525760405162461bcd60e51b815260206004820152601860248201527f45434453413a20696e76616c6964207369676e6174757265000000000000000060448201526064016106d0565b6002816004811115611a6657611a66612ad7565b03611ab35760405162461bcd60e51b815260206004820152601f60248201527f45434453413a20696e76616c6964207369676e6174757265206c656e6774680060448201526064016106d0565b6003816004811115611ac757611ac7612ad7565b03611b1f5760405162461bcd60e51b815260206004820152602260248201527f45434453413a20696e76616c6964207369676e6174757265202773272076616c604482015261756560f01b60648201526084016106d0565b6004816004811115611b3357611b33612ad7565b0361039a5760405162461bcd60e51b815260206004820152602260248201527f45434453413a20696e76616c6964207369676e6174757265202776272076616c604482015261756560f01b60648201526084016106d0565b600080611b9786611cbe565b90506001600160801b036001600160a01b03821611611c1d576000611bc56001600160a01b03831680612ac0565b9050836001600160a01b0316856001600160a01b031610611bfd57611bf8600160c01b876001600160801b0316836120d6565b611c15565b611c1581876001600160801b0316600160c01b6120d6565b925050611c90565b6000611c3c6001600160a01b03831680680100000000000000006120d6565b9050836001600160a01b0316856001600160a01b031610611c7457611c6f600160801b876001600160801b0316836120d6565b611c8c565b611c8c81876001600160801b0316600160801b6120d6565b9250505b50949350505050565b6060610cfa8383604051806060016040528060258152602001612f9d6025913961224c565b60008060008360020b12611cd5578260020b611ce2565b8260020b611ce290612f2e565b9050611cf1620d89e719612f4a565b60020b811115611d275760405162461bcd60e51b81526020600482015260016024820152601560fa1b60448201526064016106d0565b600081600116600003611d3e57600160801b611d50565b6ffffcb933bd6fad37aa2d162d1a5940015b70ffffffffffffffffffffffffffffffffff1690506002821615611d8f576080611d8a826ffff97272373d413259a46990580e213a612ac0565b901c90505b6004821615611db9576080611db4826ffff2e50f5f656932ef12357cf3c7fdcc612ac0565b901c90505b6008821615611de3576080611dde826fffe5caca7e10e4e61c3624eaa0941cd0612ac0565b901c90505b6010821615611e0d576080611e08826fffcb9843d60f6159c9db58835c926644612ac0565b901c90505b6020821615611e37576080611e32826fff973b41fa98c081472e6896dfb254c0612ac0565b901c90505b6040821615611e61576080611e5c826fff2ea16466c96a3843ec78b326b52861612ac0565b901c90505b6080821615611e8b576080611e86826ffe5dee046a99a2a811c461f1969c3053612ac0565b901c90505b610100821615611eb6576080611eb1826ffcbe86c7900a88aedcffc83b479aa3a4612ac0565b901c90505b610200821615611ee1576080611edc826ff987a7253ac413176f2b074cf7815e54612ac0565b901c90505b610400821615611f0c576080611f07826ff3392b0822b70005940c7a398e4b70f3612ac0565b901c90505b610800821615611f37576080611f32826fe7159475a2c29b7443b29c7fa6e889d9612ac0565b901c90505b611000821615611f62576080611f5d826fd097f3bdfd2022b8845ad8f792aa5825612ac0565b901c90505b612000821615611f8d576080611f88826fa9f746462d870fdf8a65dc1f90e061e5612ac0565b901c90505b614000821615611fb8576080611fb3826f70d869a156d2a1b890bb3df62baf32f7612ac0565b901c90505b618000821615611fe3576080611fde826f31be135f97d08fd981231505542fcfa6612ac0565b901c90505b6201000082161561200f57608061200a826f09aa508b5b7a84e1c677de54f3e99bc9612ac0565b901c90505b6202000082161561203a576080612035826e5d6af8dedb81196699c329225ee604612ac0565b901c90505b6204000082161561206457608061205f826d2216e584f5fa1ea926041bedfe98612ac0565b901c90505b6208000082161561208c576080612087826b048a170391f7dc42444e8fa2612ac0565b901c90505b60008460020b13156120a7576120a481600019612b2b565b90505b6120b664010000000082612f6c565b156120c25760016120c5565b60005b610fdd9060ff16602083901c612c67565b600080806000198587098587029250828110838203039150508060000361210f576000841161210457600080fd5b508290049050610cfa565b80841161211b57600080fd5b60008486880980840393811190920391905060008561213981612f2e565b169586900495938490049360008190030460010190506121598184612ac0565b90931792600061216a876003612ac0565b60021890506121798188612ac0565b612184906002612c7a565b61218e9082612ac0565b905061219a8188612ac0565b6121a5906002612c7a565b6121af9082612ac0565b90506121bb8188612ac0565b6121c6906002612c7a565b6121d09082612ac0565b90506121dc8188612ac0565b6121e7906002612c7a565b6121f19082612ac0565b90506121fd8188612ac0565b612208906002612c7a565b6122129082612ac0565b905061221e8188612ac0565b612229906002612c7a565b6122339082612ac0565b905061223f8186612ac0565b9998505050505050505050565b6060600080856001600160a01b0316856040516122699190612f80565b600060405180830381855afa9150503d80600081146122a4576040519150601f19603f3d011682016040523d82523d6000602084013e6122a9565b606091505b50915091506111ed868383876060831561232457825160000361231d576001600160a01b0385163b61231d5760405162461bcd60e51b815260206004820152601d60248201527f416464726573733a2063616c6c20746f206e6f6e2d636f6e747261637400000060448201526064016106d0565b5081610fdd565b610fdd83838151156123395781518083602001fd5b8060405162461bcd60e51b81526004016106d091906123d5565b6001600160a01b038116811461039a57600080fd5b60006020828403121561237a57600080fd5b8135610cfa81612353565b60005b838110156123a0578181015183820152602001612388565b50506000910152565b600081518084526123c1816020860160208601612385565b601f01601f19169290920160200192915050565b602081526000610cfa60208301846123a9565b600080604083850312156123fb57600080fd5b823561240681612353565b946020939093013593505050565b60006020828403121561242657600080fd5b5035919050565b634e487b7160e01b600052604160045260246000fd5b601f8201601f1916810167ffffffffffffffff811182821017156124695761246961242d565b6040525050565b600067ffffffffffffffff83111561248a5761248a61242d565b6040516124a1601f8501601f191660200182612443565b8091508381528484840111156124b657600080fd5b83836020830137600060208583010152509392505050565b600080604083850312156124e157600080fd5b823567ffffffffffffffff8111156124f857600080fd5b8301601f8101851361250957600080fd5b61251885823560208401612470565b925050602083013561252981612353565b809150509250929050565b600082601f83011261254557600080fd5b610cfa83833560208501612470565b6000806000806080858703121561256a57600080fd5b843561257581612353565b9350602085013561258581612353565b9250604085013567ffffffffffffffff808211156125a257600080fd5b6125ae88838901612534565b935060608701359150808211156125c457600080fd5b506125d187828801612534565b91505092959194509250565b6000806000606084860312156125f257600080fd5b83356125fd81612353565b9250602084013561260d81612353565b929592945050506040919091013590565b6000806040838503121561263157600080fd5b823561263c81612353565b915060208301356002811061252957600080fd5b6000806040838503121561266357600080fd5b82359150602083013561252981612353565b60ff8116811461039a57600080fd5b600080600080600080600060e0888a03121561269f57600080fd5b87356126aa81612353565b965060208801356126ba81612353565b9550604088013594506060880135935060808801356126d881612675565b9699959850939692959460a0840135945060c09093013592915050565b6000806040838503121561270857600080fd5b823561271381612353565b9150602083013561252981612353565b600181811c9082168061273757607f821691505b60208210810361156557634e487b7160e01b600052602260045260246000fd5b600067ffffffffffffffff8211156127715761277161242d565b5060051b60200190565b600082601f83011261278c57600080fd5b8151602061279982612757565b6040516127a68282612443565b83815260059390931b85018201928281019150868411156127c657600080fd5b8286015b848110156127e157805183529183019183016127ca565b509695505050505050565b600080604083850312156127ff57600080fd5b825167ffffffffffffffff8082111561281757600080fd5b908401906060828703121561282b57600080fd5b6040516060810181811083821117156128465761284661242d565b8060405250825181526020830151602082015260408301518281111561286b57600080fd5b6128778882860161277b565b604083015250809450505050602083015161252981612353565b6001600160a01b0383168152604060208201819052600090610fdd908301846123a9565b600080604083850312156128c857600080fd5b505080516020909101519092909150565b600060033d11156128f25760046000803e5060005160e01c5b90565b600060443d10156129035790565b6040516003193d81016004833e81513d67ffffffffffffffff816024840111818411171561293357505050505090565b828501915081518181111561294b5750505050505090565b843d87010160208285010111156129655750505050505090565b61297460208286010187612443565b509095945050505050565b6000806040838503121561299257600080fd5b825167ffffffffffffffff808211156129aa57600080fd5b90840190604082870312156129be57600080fd5b6040516040810181811083821117156129d9576129d961242d565b604052825181526020830151828111156129f257600080fd5b6129fe8882860161277b565b602083015250809450505050602083015161252981612353565b600060018060a01b0380861683526020818616818501526060604085015260a08401915084516060850152808501516040608086015282815180855260c0870191508383019450600092505b80831015612a845784518252938301936001929092019190830190612a64565b5098975050505050505050565b600060208284031215612aa357600080fd5b5051919050565b634e487b7160e01b600052601160045260246000fd5b808202811582820484141761058157610581612aaa565b634e487b7160e01b600052602160045260246000fd5b6020810160028310612b0f57634e487b7160e01b600052602160045260246000fd5b91905290565b634e487b7160e01b600052601260045260246000fd5b600082612b3a57612b3a612b15565b500490565b601f821115612b8557600081815260208120601f850160051c81016020861015612b665750805b601f850160051c820191505b8181101561111957828155600101612b72565b505050565b815167ffffffffffffffff811115612ba457612ba461242d565b612bb881612bb28454612723565b84612b3f565b602080601f831160018114612bed5760008415612bd55750858301515b600019600386901b1c1916600185901b178555611119565b600085815260208120601f198616915b82811015612c1c57888601518255948401946001909101908401612bfd565b5085821015612c3a5787850151600019600388901b60f8161c191681555b5050505050600190811b01905550565b600060208284031215612c5c57600080fd5b8151610cfa81612675565b8082018082111561058157610581612aaa565b8181038181111561058157610581612aaa565b6020808252602b908201527f496e697469616c697a61626c653a20636f6e7472616374206973206e6f74206960408201526a6e697469616c697a696e6760a81b606082015260800190565b634e487b7160e01b600052603260045260246000fd5b6020808252825182820181905260009190848201906040850190845b81811015612d2c57835163ffffffff1683529284019291840191600101612d0a565b50909695505050505050565b600082601f830112612d4957600080fd5b81516020612d5682612757565b604051612d638282612443565b83815260059390931b8501820192828101915086841115612d8357600080fd5b8286015b848110156127e1578051612d9a81612353565b8352918301918301612d87565b60008060408385031215612dba57600080fd5b825167ffffffffffffffff80821115612dd257600080fd5b818501915085601f830112612de657600080fd5b81516020612df382612757565b604051612e008282612443565b83815260059390931b8501820192828101915089841115612e2057600080fd5b948201945b83861015612e4e5785518060060b8114612e3f5760008081fd5b82529482019490820190612e25565b91880151919650909350505080821115612e6757600080fd5b50612e7485828601612d38565b9150509250929050565b600682810b9082900b03667fffffffffffff198112667fffffffffffff8213171561058157610581612aaa565b60008160060b8360060b80612ec257612ec2612b15565b667fffffffffffff19821460001982141615612ee057612ee0612aaa565b90059392505050565b60008260060b80612efc57612efc612b15565b808360060b0791505092915050565b60008160020b627fffff198103612f2457612f24612aaa565b6000190192915050565b6000600160ff1b8201612f4357612f43612aaa565b5060000390565b60008160020b627fffff198103612f6357612f63612aaa565b60000392915050565b600082612f7b57612f7b612b15565b500690565b60008251612f92818460208701612385565b919091019291505056fe416464726573733a206c6f772d6c6576656c207374617469632063616c6c206661696c6564a26469706673582212204c4aeb6f5198d046920b6322866d237427583424ef4df649420366214d815b2f64736f6c63430008150033",
    "linkReferences": {}
  },
  "methodIdentifiers": {
    "DOMAIN_SEPARATOR()": "3644e515",
    "FORMAT_DECIMALS()": "a01c8774",
    "_convertToAssetsFromUnderlying(uint256)": "70a25869",
    "allowance(address,address)": "dd62ed3e",
    "approve(address,uint256)": "095ea7b3",
    "asset()": "38d52e0f",
    "balanceOf(address)": "70a08231",
    "claimReward()": "b88a802f",
    "convertToAssets(uint256,address)": "36103291",
    "convertToShares(uint256)": "c6e6f592",
    "convertToUnderlying(uint256)": "1dc7f521",
    "decimals()": "313ce567",
    "decreaseAllowance(address,uint256)": "a457c2d7",
    "earned(address)": "008cc262",
    "getRewardsData()": "7d098e64",
    "increaseAllowance(address,uint256)": "39509351",
    "initialize(address,address,string,string)": "2016a0d2",
    "lastTimeRewardApplicable()": "80faa57d",
    "mint(bytes,address)": "0cae37f1",
    "name()": "06fdde03",
    "nonces(address)": "7ecebe00",
    "notifyRewardAmount(uint256)": "3c6b16ab",
    "permit(address,address,uint256,uint256,uint8,bytes32,bytes32)": "d505accf",
    "previewMint(uint256)": "b3d7f6b9",
    "previewRedeem(uint256)": "4cdad506",
    "previewWithdraw(uint256)": "0a28a477",
    "redeem(bytes,address)": "0ba097d6",
    "rewardPerToken()": "cd3daf9d",
    "setRewardsDuration(uint256)": "cc1a378f",
    "sharesOf(address)": "f5eb42dc",
    "subBalanceOf(address,uint8)": "279d97ef",
    "subConvertToShares(uint256,address)": "4702a084",
    "symbol()": "95d89b41",
    "totalAssets()": "01e1d114",
    "totalShares()": "3a98ef39",
    "totalSupply()": "18160ddd",
    "transfer(address,uint256)": "a9059cbb",
    "transferFrom(address,address,uint256)": "23b872dd"
  },
  "id": 45
}