{
  "abi": [
    {
      "inputs": [],
      "stateMutability": "nonpayable",
      "type": "constructor"
    },
    {
      "inputs": [],
      "name": "OZError03",
      "type": "error"
    },
    {
      "inputs": [
        {
          "internalType": "address",
          "name": "from",
          "type": "address"
        },
        {
          "internalType": "address",
          "name": "to",
          "type": "address"
        }
      ],
      "name": "OZError04",
      "type": "error"
    },
    {
      "inputs": [
        {
          "internalType": "uint256",
          "name": "amount",
          "type": "uint256"
        }
      ],
      "name": "OZError05",
      "type": "error"
    },
    {
      "inputs": [
        {
          "internalType": "address",
          "name": "sender",
          "type": "address"
        },
        {
          "internalType": "uint256",
          "name": "accountShares",
          "type": "uint256"
        },
        {
          "internalType": "uint256",
          "name": "shares",
          "type": "uint256"
        }
      ],
      "name": "OZError06",
      "type": "error"
    },
    {
      "inputs": [
        {
          "internalType": "address",
          "name": "from",
          "type": "address"
        },
        {
          "internalType": "uint256",
          "name": "fromShares",
          "type": "uint256"
        },
        {
          "internalType": "uint256",
          "name": "shares",
          "type": "uint256"
        }
      ],
      "name": "OZError07",
      "type": "error"
    },
    {
      "inputs": [
        {
          "internalType": "uint256",
          "name": "deadline",
          "type": "uint256"
        },
        {
          "internalType": "uint256",
          "name": "blockTimestamp",
          "type": "uint256"
        }
      ],
      "name": "OZError08",
      "type": "error"
    },
    {
      "inputs": [
        {
          "internalType": "address",
          "name": "owner",
          "type": "address"
        },
        {
          "internalType": "address",
          "name": "spender",
          "type": "address"
        }
      ],
      "name": "OZError09",
      "type": "error"
    },
    {
      "inputs": [
        {
          "internalType": "string",
          "name": "reason",
          "type": "string"
        }
      ],
      "name": "OZError22",
      "type": "error"
    },
    {
      "anonymous": false,
      "inputs": [
        {
          "indexed": true,
          "internalType": "address",
          "name": "owner",
          "type": "address"
        },
        {
          "indexed": true,
          "internalType": "address",
          "name": "spender",
          "type": "address"
        },
        {
          "indexed": false,
          "internalType": "uint256",
          "name": "value",
          "type": "uint256"
        }
      ],
      "name": "Approval",
      "type": "event"
    },
    {
      "anonymous": false,
      "inputs": [
        {
          "indexed": false,
          "internalType": "uint8",
          "name": "version",
          "type": "uint8"
        }
      ],
      "name": "Initialized",
      "type": "event"
    },
    {
      "anonymous": false,
      "inputs": [
        {
          "indexed": true,
          "internalType": "address",
          "name": "from",
          "type": "address"
        },
        {
          "indexed": true,
          "internalType": "address",
          "name": "to",
          "type": "address"
        },
        {
          "indexed": false,
          "internalType": "uint256",
          "name": "value",
          "type": "uint256"
        }
      ],
      "name": "Transfer",
      "type": "event"
    },
    {
      "inputs": [],
      "name": "DOMAIN_SEPARATOR",
      "outputs": [
        {
          "internalType": "bytes32",
          "name": "",
          "type": "bytes32"
        }
      ],
      "stateMutability": "view",
      "type": "function"
    },
    {
      "inputs": [],
      "name": "FORMAT_DECIMALS",
      "outputs": [
        {
          "internalType": "uint256",
          "name": "",
          "type": "uint256"
        }
      ],
      "stateMutability": "view",
      "type": "function"
    },
    {
      "inputs": [
        {
          "internalType": "address",
          "name": "owner",
          "type": "address"
        },
        {
          "internalType": "address",
          "name": "spender",
          "type": "address"
        }
      ],
      "name": "allowance",
      "outputs": [
        {
          "internalType": "uint256",
          "name": "",
          "type": "uint256"
        }
      ],
      "stateMutability": "view",
      "type": "function"
    },
    {
      "inputs": [
        {
          "internalType": "address",
          "name": "spender",
          "type": "address"
        },
        {
          "internalType": "uint256",
          "name": "amount",
          "type": "uint256"
        }
      ],
      "name": "approve",
      "outputs": [
        {
          "internalType": "bool",
          "name": "",
          "type": "bool"
        }
      ],
      "stateMutability": "nonpayable",
      "type": "function"
    },
    {
      "inputs": [],
      "name": "asset",
      "outputs": [
        {
          "internalType": "address",
          "name": "",
          "type": "address"
        }
      ],
      "stateMutability": "view",
      "type": "function"
    },
    {
      "inputs": [
        {
          "internalType": "address",
          "name": "account_",
          "type": "address"
        }
      ],
      "name": "balanceOf",
      "outputs": [
        {
          "internalType": "uint256",
          "name": "",
          "type": "uint256"
        }
      ],
      "stateMutability": "view",
      "type": "function"
    },
    {
      "inputs": [],
      "name": "claimReward",
      "outputs": [
        {
          "internalType": "uint256",
          "name": "",
          "type": "uint256"
        }
      ],
      "stateMutability": "nonpayable",
      "type": "function"
    },
    {
      "inputs": [
        {
          "internalType": "uint256",
          "name": "shares",
          "type": "uint256"
        },
        {
          "internalType": "address",
          "name": "account_",
          "type": "address"
        }
      ],
      "name": "convertToAssets",
      "outputs": [
        {
          "internalType": "uint256",
          "name": "assets",
          "type": "uint256"
        }
      ],
      "stateMutability": "view",
      "type": "function"
    },
    {
      "inputs": [
        {
          "internalType": "uint256",
          "name": "assets",
          "type": "uint256"
        }
      ],
      "name": "convertToShares",
      "outputs": [
        {
          "internalType": "uint256",
          "name": "shares",
          "type": "uint256"
        }
      ],
      "stateMutability": "view",
      "type": "function"
    },
    {
      "inputs": [
        {
          "internalType": "uint256",
          "name": "shares_",
          "type": "uint256"
        }
      ],
      "name": "convertToUnderlying",
      "outputs": [
        {
          "internalType": "uint256",
          "name": "amountUnderlying",
          "type": "uint256"
        }
      ],
      "stateMutability": "view",
      "type": "function"
    },
    {
      "inputs": [],
      "name": "decimals",
      "outputs": [
        {
          "internalType": "uint8",
          "name": "",
          "type": "uint8"
        }
      ],
      "stateMutability": "pure",
      "type": "function"
    },
    {
      "inputs": [
        {
          "internalType": "address",
          "name": "spender",
          "type": "address"
        },
        {
          "internalType": "uint256",
          "name": "subtractedValue",
          "type": "uint256"
        }
      ],
      "name": "decreaseAllowance",
      "outputs": [
        {
          "internalType": "bool",
          "name": "",
          "type": "bool"
        }
      ],
      "stateMutability": "nonpayable",
      "type": "function"
    },
    {
      "inputs": [
        {
          "internalType": "address",
          "name": "user_",
          "type": "address"
        }
      ],
      "name": "earned",
      "outputs": [
        {
          "internalType": "uint256",
          "name": "",
          "type": "uint256"
        }
      ],
      "stateMutability": "view",
      "type": "function"
    },
    {
      "inputs": [],
      "name": "getRewardsData",
      "outputs": [
        {
          "internalType": "uint256",
          "name": "rewardRate",
          "type": "uint256"
        },
        {
          "internalType": "uint256",
          "name": "circulatingSupply",
          "type": "uint256"
        },
        {
          "internalType": "uint256",
          "name": "pendingAllocation",
          "type": "uint256"
        },
        {
          "internalType": "uint256",
          "name": "recicledSupply",
          "type": "uint256"
        },
        {
          "internalType": "int256",
          "name": "durationLeft",
          "type": "int256"
        }
      ],
      "stateMutability": "view",
      "type": "function"
    },
    {
      "inputs": [
        {
          "internalType": "address",
          "name": "spender",
          "type": "address"
        },
        {
          "internalType": "uint256",
          "name": "addedValue",
          "type": "uint256"
        }
      ],
      "name": "increaseAllowance",
      "outputs": [
        {
          "internalType": "bool",
          "name": "",
          "type": "bool"
        }
      ],
      "stateMutability": "nonpayable",
      "type": "function"
    },
    {
      "inputs": [
        {
          "internalType": "address",
          "name": "underlying_",
          "type": "address"
        },
        {
          "internalType": "address",
          "name": "diamond_",
          "type": "address"
        },
        {
          "internalType": "string",
          "name": "name_",
          "type": "string"
        },
        {
          "internalType": "string",
          "name": "symbol_",
          "type": "string"
        }
      ],
      "name": "initialize",
      "outputs": [],
      "stateMutability": "nonpayable",
      "type": "function"
    },
    {
      "inputs": [],
      "name": "lastTimeRewardApplicable",
      "outputs": [
        {
          "internalType": "uint256",
          "name": "",
          "type": "uint256"
        }
      ],
      "stateMutability": "view",
      "type": "function"
    },
    {
      "inputs": [
        {
          "internalType": "bytes",
          "name": "data_",
          "type": "bytes"
        },
        {
          "internalType": "address",
          "name": "owner_",
          "type": "address"
        }
      ],
      "name": "mint",
      "outputs": [
        {
          "internalType": "uint256",
          "name": "",
          "type": "uint256"
        }
      ],
      "stateMutability": "nonpayable",
      "type": "function"
    },
    {
      "inputs": [],
      "name": "name",
      "outputs": [
        {
          "internalType": "string",
          "name": "",
          "type": "string"
        }
      ],
      "stateMutability": "view",
      "type": "function"
    },
    {
      "inputs": [
        {
          "internalType": "address",
          "name": "owner",
          "type": "address"
        }
      ],
      "name": "nonces",
      "outputs": [
        {
          "internalType": "uint256",
          "name": "",
          "type": "uint256"
        }
      ],
      "stateMutability": "view",
      "type": "function"
    },
    {
      "inputs": [
        {
          "internalType": "uint256",
          "name": "amount_",
          "type": "uint256"
        }
      ],
      "name": "notifyRewardAmount",
      "outputs": [],
      "stateMutability": "nonpayable",
      "type": "function"
    },
    {
      "inputs": [
        {
          "internalType": "address",
          "name": "owner",
          "type": "address"
        },
        {
          "internalType": "address",
          "name": "spender",
          "type": "address"
        },
        {
          "internalType": "uint256",
          "name": "value",
          "type": "uint256"
        },
        {
          "internalType": "uint256",
          "name": "deadline",
          "type": "uint256"
        },
        {
          "internalType": "uint8",
          "name": "v",
          "type": "uint8"
        },
        {
          "internalType": "bytes32",
          "name": "r",
          "type": "bytes32"
        },
        {
          "internalType": "bytes32",
          "name": "s_",
          "type": "bytes32"
        }
      ],
      "name": "permit",
      "outputs": [],
      "stateMutability": "nonpayable",
      "type": "function"
    },
    {
      "inputs": [
        {
          "internalType": "uint256",
          "name": "assets_",
          "type": "uint256"
        }
      ],
      "name": "previewMint",
      "outputs": [
        {
          "internalType": "uint256",
          "name": "",
          "type": "uint256"
        }
      ],
      "stateMutability": "view",
      "type": "function"
    },
    {
      "inputs": [
        {
          "internalType": "uint256",
          "name": "shares_",
          "type": "uint256"
        }
      ],
      "name": "previewRedeem",
      "outputs": [
        {
          "internalType": "uint256",
          "name": "",
          "type": "uint256"
        }
      ],
      "stateMutability": "view",
      "type": "function"
    },
    {
      "inputs": [
        {
          "internalType": "uint256",
          "name": "assets",
          "type": "uint256"
        }
      ],
      "name": "previewWithdraw",
      "outputs": [
        {
          "internalType": "uint256",
          "name": "",
          "type": "uint256"
        }
      ],
      "stateMutability": "view",
      "type": "function"
    },
    {
      "inputs": [
        {
          "internalType": "bytes",
          "name": "data_",
          "type": "bytes"
        },
        {
          "internalType": "address",
          "name": "owner_",
          "type": "address"
        }
      ],
      "name": "redeem",
      "outputs": [
        {
          "internalType": "uint256",
          "name": "",
          "type": "uint256"
        }
      ],
      "stateMutability": "nonpayable",
      "type": "function"
    },
    {
      "inputs": [],
      "name": "rewardPerToken",
      "outputs": [
        {
          "internalType": "uint256",
          "name": "",
          "type": "uint256"
        }
      ],
      "stateMutability": "view",
      "type": "function"
    },
    {
      "inputs": [
        {
          "internalType": "uint256",
          "name": "duration_",
          "type": "uint256"
        }
      ],
      "name": "setRewardsDuration",
      "outputs": [],
      "stateMutability": "nonpayable",
      "type": "function"
    },
    {
      "inputs": [
        {
          "internalType": "address",
          "name": "account_",
          "type": "address"
        }
      ],
      "name": "sharesOf",
      "outputs": [
        {
          "internalType": "uint256",
          "name": "",
          "type": "uint256"
        }
      ],
      "stateMutability": "view",
      "type": "function"
    },
    {
      "inputs": [
        {
          "internalType": "address",
          "name": "account_",
          "type": "address"
        }
      ],
      "name": "subBalanceOf",
      "outputs": [
        {
          "internalType": "uint256",
          "name": "",
          "type": "uint256"
        }
      ],
      "stateMutability": "view",
      "type": "function"
    },
    {
      "inputs": [],
      "name": "symbol",
      "outputs": [
        {
          "internalType": "string",
          "name": "",
          "type": "string"
        }
      ],
      "stateMutability": "view",
      "type": "function"
    },
    {
      "inputs": [],
      "name": "totalAssets",
      "outputs": [
        {
          "internalType": "uint256",
          "name": "",
          "type": "uint256"
        }
      ],
      "stateMutability": "view",
      "type": "function"
    },
    {
      "inputs": [],
      "name": "totalShares",
      "outputs": [
        {
          "internalType": "uint256",
          "name": "",
          "type": "uint256"
        }
      ],
      "stateMutability": "view",
      "type": "function"
    },
    {
      "inputs": [],
      "name": "totalSupply",
      "outputs": [
        {
          "internalType": "uint256",
          "name": "",
          "type": "uint256"
        }
      ],
      "stateMutability": "view",
      "type": "function"
    },
    {
      "inputs": [
        {
          "internalType": "address",
          "name": "to",
          "type": "address"
        },
        {
          "internalType": "uint256",
          "name": "amount",
          "type": "uint256"
        }
      ],
      "name": "transfer",
      "outputs": [
        {
          "internalType": "bool",
          "name": "",
          "type": "bool"
        }
      ],
      "stateMutability": "nonpayable",
      "type": "function"
    },
    {
      "inputs": [
        {
          "internalType": "address",
          "name": "from",
          "type": "address"
        },
        {
          "internalType": "address",
          "name": "to",
          "type": "address"
        },
        {
          "internalType": "uint256",
          "name": "amount",
          "type": "uint256"
        }
      ],
      "name": "transferFrom",
      "outputs": [
        {
          "internalType": "bool",
          "name": "",
          "type": "bool"
        }
      ],
      "stateMutability": "nonpayable",
      "type": "function"
    }
  ],
  "bytecode": {
    "object": "0x608060405234801561001057600080fd5b5061001961001e565b6100de565b602b54610100900460ff161561008a5760405162461bcd60e51b815260206004820152602760248201527f496e697469616c697a61626c653a20636f6e747261637420697320696e697469604482015266616c697a696e6760c81b606482015260840160405180910390fd5b602b5460ff90811610156100dc57602b805460ff191660ff9081179091556040519081527f7f26b83ff96e1f2b6a682f133852f6798a09c465da95921460cefb38474024989060200160405180910390a15b565b6123c180620000ee6000396000f3fe608060405234801561001057600080fd5b506004361061021b5760003560e01c80633c6b16ab11610125578063a9059cbb116100ad578063cc1a378f1161007c578063cc1a378f14610376578063cd3daf9d146103ed578063d505accf1461043e578063dd62ed3e14610451578063f5eb42dc1461046457600080fd5b8063a9059cbb14610418578063b3d7f6b91461042b578063b88a802f146103ed578063c6e6f5921461028757600080fd5b80637ecebe00116100f45780637ecebe00146103da57806380faa57d146103ed57806395d89b41146103f4578063a01c8774146103fc578063a457c2d71461040557600080fd5b80633c6b16ab146103765780634cdad5061461038757806370a082311461039a5780637d098e64146103ad57600080fd5b80632016a0d2116101a8578063361032911161017757806336103291146103255780633644e5151461033857806338d52e0f14610340578063395093511461035b5780633a98ef391461036e57600080fd5b80632016a0d2146102db57806323b872dd146102f0578063313ce5671461030357806332e506901461031257600080fd5b80630a28a477116101ef5780630a28a477146102875780630ba097d61461029a5780630cae37f1146102ad57806318160ddd146102c05780631dc7f521146102c857600080fd5b80628cc2621461022057806301e1d1141461024757806306fdde031461024f578063095ea7b314610264575b600080fd5b61023461022e366004611a3b565b50600090565b6040519081526020015b60405180910390f35b61023461048d565b6102576104a2565b60405161023e9190611aa8565b610277610272366004611abb565b610534565b604051901515815260200161023e565b610234610295366004611ae7565b61054b565b6102346102a8366004611ba1565b610556565b6102346102bb366004611ba1565b6107ca565b6102346109b2565b6102346102d6366004611ae7565b610a07565b6102ee6102e9366004611c27565b610a97565b005b6102776102fe366004611cb0565b610c95565b6040516012815260200161023e565b610234610320366004611a3b565b610cb7565b610234610333366004611cf1565b610cd9565b610234610cec565b6061546040516001600160a01b03909116815260200161023e565b610277610369366004611abb565b610cf6565b610234610d17565b6102ee610384366004611ae7565b50565b610234610395366004611ae7565b610d28565b6102346103a8366004611a3b565b610d33565b6040805160008082526020820181905291810182905260608101829052608081019190915260a00161023e565b6102346103e8366004611a3b565b610d56565b6000610234565b610257610d74565b61023460685481565b610277610413366004611abb565b610d83565b610277610426366004611abb565b610dc0565b610234610439366004611ae7565b610dcd565b6102ee61044c366004611d25565b610dd8565b61023461045f366004611d96565b610efa565b610234610472366004611a3b565b6001600160a01b031660009081526063602052604090205490565b60625460009061049d9082610f25565b905090565b6060606680546104b190611dc4565b80601f01602080910402602001604051908101604052809291908181526020018280546104dd90611dc4565b801561052a5780601f106104ff5761010080835404028352916020019161052a565b820191906000526020600020905b81548152906001019060200180831161050d57829003601f168201915b5050505050905090565b6000610541338484610f68565b5060015b92915050565b600061054582611017565b60605460009082906001600160a01b031680156105cc576040516241fec360e31b81526001600160a01b03838116600483015282169063020ff61890602401600060405180830381600087803b1580156105af57600080fd5b505af11580156105c3573d6000803e3d6000fd5b50505050610610565b6000601a5560006018556001600160a01b03821615610610576001600160a01b0382166000908152601e60209081526040808320839055601a54601d909252909120555b6000858060200190518101906106269190611e79565b509050600061064a866001600160a01b031660009081526063602052604090205490565b9050600061065b836000015161054b565b90508082101561069c57604051637ac073bf60e01b81526001600160a01b038816600482015260248101839052604481018290526064015b60405180910390fd5b60006106a782610d28565b6060546040516314370d6760e31b81529192506001600160a01b03169063a1b86b38906106da908b908d90600401611f1e565b60408051808303816000875af1925050508015610714575060408051601f3d908101601f1916820190925261071191810190611f42565b60015b61076657610720611f66565b806308c379a00361075a5750610734611f82565b8061073f575061075c565b80604051631bc63b8160e01b81526004016106939190611aa8565b505b3d6000803e3d6000fd5b610771826000611099565b6060546001600160a01b0316600090815260636020526040902054945061079a83866000611109565b6060546001600160a01b031660009081526063602052604081205597506107c2945050505050565b505092915050565b60605460009082906001600160a01b03168015610840576040516241fec360e31b81526001600160a01b03838116600483015282169063020ff61890602401600060405180830381600087803b15801561082357600080fd5b505af1158015610837573d6000803e3d6000fd5b50505050610884565b6000601a5560006018556001600160a01b03821615610884576001600160a01b0382166000908152601e60209081526040808320839055601a54601d909252909120555b6000808680602001905181019061089b919061200c565b60685482519294509092506000916108b291611167565b6060549091506001600160a01b0316639ea04fe46108d86061546001600160a01b031690565b89866040518463ffffffff1660e01b81526004016108f8939291906120a5565b6020604051808303816000875af1925050508015610933575060408051601f3d908101601f191682019092526109309181019061211e565b60015b61093f57610720611f66565b61094a816001611099565b6000610954610d17565b156109675761096283610dcd565b610969565b825b905061097783826001611109565b6001600160a01b0390931660009081526063602090815260408083208054870190556069909152902080549092019091555093506107c29050565b60006109bc610d17565b1561022e576109d16109cc610d17565b611173565b6109d961048d565b6109e89064e8d4a5100061214d565b6109f29190612164565b6109fd6109cc610d17565b61049d919061214d565b6000610a11610d17565b60605460405163a4fc284b60e01b81526001600160a01b039091169063a4fc284b90610a429060019060040161219c565b602060405180830381865afa158015610a5f573d6000803e3d6000fd5b505050506040513d601f19601f82011682018060405250810190610a83919061211e565b610a8d908461214d565b6105459190612164565b602b54610100900460ff1615808015610ab75750602b54600160ff909116105b80610ad15750303b158015610ad15750602b5460ff166001145b610b345760405162461bcd60e51b815260206004820152602e60248201527f496e697469616c697a61626c653a20636f6e747261637420697320616c72656160448201526d191e481a5b9a5d1a585b1a5e995960921b6064820152608401610693565b602b805460ff191660011790558015610b5757602b805461ff0019166101001790555b6066610b63848261220f565b506067610b70838261220f565b50606080546001600160a01b038087166001600160a01b03199283161790925560618054928816929091169190911790556040805180820190915260018152603160f81b6020820152610bc49084906111b6565b846001600160a01b031663313ce5676040518163ffffffff1660e01b8152600401602060405180830381865afa158015610c02573d6000803e3d6000fd5b505050506040513d601f19601f82011682018060405250810190610c2691906122cf565b60ff16601214610c37576001610c3e565b64e8d4a510005b64ffffffffff166068558015610c8e57602b805461ff0019169055604051600181527f7f26b83ff96e1f2b6a682f133852f6798a09c465da95921460cefb38474024989060200160405180910390a15b5050505050565b6000610ca28433846111eb565b610cad848484611239565b5060019392505050565b6001600160a01b03811660009081526063602052604081205461054590611173565b6000610ce58383611357565b9392505050565b600061049d61138d565b6000610541338484610d083388610efa565b610d1291906122ec565b610f68565b60625460009061049d906001610f25565b600061054582611408565b6001600160a01b0381166000908152606360205260408120546105459083610cd9565b6001600160a01b038116600090815260646020526040812054610545565b6060606780546104b190611dc4565b600080610d903385610efa565b905082811015610db3576040516361ceb1d360e01b815260040160405180910390fd5b610cad3385858403610f68565b6000610541338484611239565b60006105458261148b565b83421115610e025760405163184f1e0160e11b815260048101859052426024820152604401610693565b60007f6e71edae12b1b97f4d1f60370fef10105fa2faae0126114a169c64845d6126c9888888610e318c6114a0565b6040805160208101969096526001600160a01b0394851690860152929091166060840152608083015260a082015260c0810186905260e0016040516020818303038152906040528051906020012090506000610e8c826114c8565b90506000610e9c82878787611516565b9050896001600160a01b0316816001600160a01b031614610ee357604051635091bef560e01b81526001600160a01b0380831660048301528b166024820152604401610693565b610eee8a8a8a610f68565b50505050505050505050565b6001600160a01b03918216600090815260656020908152604080832093909416825291909152205490565b60006fffffffffffffffffffffffffffffffff81836001811115610f4b57610f4b612186565b14610f5857838116610f60565b608084901c81165b949350505050565b6001600160a01b0383161580610f8557506001600160a01b038216155b15610fb657604051637db368a160e01b81526001600160a01b03808516600483015283166024820152604401610693565b6001600160a01b0383811660008181526065602090815260408083209487168084529482529182902085905590518481527f8c5be1e5ebec7d5bd14f71427d1e84f3dd0314c0f7b2291e5b200ac8c7c3b925910160405180910390a3505050565b6000610545611024610d17565b606054604051634be9756960e11b81526001600160a01b0390911660048201819052906397d2ead290602401602060405180830381865afa15801561106d573d6000803e3d6000fd5b505050506040513d601f19601f82011682018060405250810190611091919061211e565b84919061153e565b60605460405163b0ff97b560e01b81523060048201526024810184905282151560448201526001600160a01b039091169063b0ff97b590606401600060405180830381600087803b1580156110ed57600080fd5b505af1158015611101573d6000803e3d6000fd5b505050505050565b6062546000906111199082610f25565b905060006111336001606254610f2590919063ffffffff16565b905082156111465790840190830161114f565b90849003908390035b61115d82608083901b6122ec565b6062555050505050565b6000610ce58284612164565b6060546000906001600160a01b03168161118c82611564565b9050610f608161119a610d17565b156111ac576111a7610d17565b6111ae565b825b8691906115b0565b602b54610100900460ff166111dd5760405162461bcd60e51b8152600401610693906122ff565b6111e782826115ce565b5050565b60006111f78484610efa565b905060001981146112335781811015611226576040516306052b7f60e01b815260048101839052602401610693565b6112338484848403610f68565b50505050565b6001600160a01b038316158061125657506001600160a01b038216155b1561128757604051637db368a160e01b81526001600160a01b03808516600483015283166024820152604401610693565b60006112928261054b565b6001600160a01b038516600090815260636020526040902054909150818110156112e8576040516315c29bad60e31b81526001600160a01b03861660048201526024810182905260448101839052606401610693565b6001600160a01b0380861660008181526063602052604080822086860390559287168082529083902080548601905591517fddf252ad1be2c89b69c2b068fc378daa952ba7f163c4a11628f55a4df523b3ef906113489087815260200190565b60405180910390a35050505050565b60008061136384611173565b90508015611383576113748361160f565b61137e908261214d565b610f60565b5060009392505050565b600061049d7f8b73c3c69bb8fe3d512ecc4cf759cc79239f7b179b0ffacaa9a75d522b39400f6113bc602c5490565b602d546040805160208101859052908101839052606081018290524660808201523060a082015260009060c0016040516020818303038152906040528051906020012090509392505050565b606054604051634be9756960e11b8152306004820152600091610545916001600160a01b03909116906397d2ead290602401602060405180830381865afa158015611457573d6000803e3d6000fd5b505050506040513d601f19601f8201168201806040525081019061147b919061211e565b6114836109b2565b8491906115b0565b6000610545611498610d17565b61148361048d565b6001600160a01b03811660009081526064602052604090208054600181018255905b50919050565b60006105456114d561138d565b8360405161190160f01b6020820152602281018390526042810182905260009060620160405160208183030381529060405280519060200120905092915050565b60008060006115278787878761164d565b915091506115348161173a565b5095945050505050565b600082600019048411830215820261155557600080fd5b50910281810615159190040190565b6040805160048152602481019091526020810180516001600160e01b0316636a57db9d60e11b17905260009061159a83826118f0565b905080806020019051810190610ce5919061211e565b60008260001904841183021582026115c757600080fd5b5091020490565b602b54610100900460ff166115f55760405162461bcd60e51b8152600401610693906122ff565b815160209283012081519190920120602c91909155602d55565b60008061161b83610cb7565b6001600160a01b0384166000908152606960205260409020546116439064e8d4a5100061214d565b610ce59190612164565b6000807f7fffffffffffffffffffffffffffffff5d576e7357a4501ddfe92f46681b20a08311156116845750600090506003611731565b8460ff16601b1415801561169c57508460ff16601c14155b156116ad5750600090506004611731565b6040805160008082526020820180845289905260ff881692820192909252606081018690526080810185905260019060a0016020604051602081039080840390855afa158015611701573d6000803e3d6000fd5b5050604051601f1901519150506001600160a01b03811661172a57600060019250925050611731565b9150600090505b94509492505050565b600081600481111561174e5761174e612186565b036117565750565b600181600481111561176a5761176a612186565b036117b75760405162461bcd60e51b815260206004820152601860248201527f45434453413a20696e76616c6964207369676e617475726500000000000000006044820152606401610693565b60028160048111156117cb576117cb612186565b036118185760405162461bcd60e51b815260206004820152601f60248201527f45434453413a20696e76616c6964207369676e6174757265206c656e677468006044820152606401610693565b600381600481111561182c5761182c612186565b036118845760405162461bcd60e51b815260206004820152602260248201527f45434453413a20696e76616c6964207369676e6174757265202773272076616c604482015261756560f01b6064820152608401610693565b600481600481111561189857611898612186565b036103845760405162461bcd60e51b815260206004820152602260248201527f45434453413a20696e76616c6964207369676e6174757265202776272076616c604482015261756560f01b6064820152608401610693565b6060610ce58383604051806060016040528060258152602001612367602591396060600080856001600160a01b03168560405161192d919061234a565b600060405180830381855afa9150503d8060008114611968576040519150601f19603f3d011682016040523d82523d6000602084013e61196d565b606091505b509150915061197e86838387611988565b9695505050505050565b606083156119f75782516000036119f0576001600160a01b0385163b6119f05760405162461bcd60e51b815260206004820152601d60248201527f416464726573733a2063616c6c20746f206e6f6e2d636f6e74726163740000006044820152606401610693565b5081610f60565b610f608383815115611a0c5781518083602001fd5b8060405162461bcd60e51b81526004016106939190611aa8565b6001600160a01b038116811461038457600080fd5b600060208284031215611a4d57600080fd5b8135610ce581611a26565b60005b83811015611a73578181015183820152602001611a5b565b50506000910152565b60008151808452611a94816020860160208601611a58565b601f01601f19169290920160200192915050565b602081526000610ce56020830184611a7c565b60008060408385031215611ace57600080fd5b8235611ad981611a26565b946020939093013593505050565b600060208284031215611af957600080fd5b5035919050565b634e487b7160e01b600052604160045260246000fd5b601f8201601f1916810167ffffffffffffffff81118282101715611b3c57611b3c611b00565b6040525050565b600067ffffffffffffffff831115611b5d57611b5d611b00565b604051611b74601f8501601f191660200182611b16565b809150838152848484011115611b8957600080fd5b83836020830137600060208583010152509392505050565b60008060408385031215611bb457600080fd5b823567ffffffffffffffff811115611bcb57600080fd5b8301601f81018513611bdc57600080fd5b611beb85823560208401611b43565b9250506020830135611bfc81611a26565b809150509250929050565b600082601f830112611c1857600080fd5b610ce583833560208501611b43565b60008060008060808587031215611c3d57600080fd5b8435611c4881611a26565b93506020850135611c5881611a26565b9250604085013567ffffffffffffffff80821115611c7557600080fd5b611c8188838901611c07565b93506060870135915080821115611c9757600080fd5b50611ca487828801611c07565b91505092959194509250565b600080600060608486031215611cc557600080fd5b8335611cd081611a26565b92506020840135611ce081611a26565b929592945050506040919091013590565b60008060408385031215611d0457600080fd5b823591506020830135611bfc81611a26565b60ff8116811461038457600080fd5b600080600080600080600060e0888a031215611d4057600080fd5b8735611d4b81611a26565b96506020880135611d5b81611a26565b955060408801359450606088013593506080880135611d7981611d16565b9699959850939692959460a0840135945060c09093013592915050565b60008060408385031215611da957600080fd5b8235611db481611a26565b91506020830135611bfc81611a26565b600181811c90821680611dd857607f821691505b6020821081036114c257634e487b7160e01b600052602260045260246000fd5b600082601f830112611e0957600080fd5b8151602067ffffffffffffffff821115611e2557611e25611b00565b8160051b604051611e3883830182611b16565b92835284810182019282810187851115611e5157600080fd5b83870192505b84831015611e6e5782518152918301918301611e57565b509695505050505050565b60008060408385031215611e8c57600080fd5b825167ffffffffffffffff80821115611ea457600080fd5b9084019060608287031215611eb857600080fd5b604051606081018181108382111715611ed357611ed3611b00565b80604052508251815260208301516020820152604083015182811115611ef857600080fd5b611f0488828601611df8565b6040830152508094505050506020830151611bfc81611a26565b6001600160a01b0383168152604060208201819052600090610f6090830184611a7c565b60008060408385031215611f5557600080fd5b505080516020909101519092909150565b600060033d1115611f7f5760046000803e5060005160e01c5b90565b600060443d1015611f905790565b6040516003193d81016004833e81513d67ffffffffffffffff8160248401118184111715611fc057505050505090565b8285019150815181811115611fd85750505050505090565b843d8701016020828501011115611ff25750505050505090565b61200160208286010187611b16565b509095945050505050565b6000806040838503121561201f57600080fd5b825167ffffffffffffffff8082111561203757600080fd5b908401906040828703121561204b57600080fd5b60405160408101818110838211171561206657612066611b00565b6040528251815260208301518281111561207f57600080fd5b61208b88828601611df8565b6020830152508094505050506020830151611bfc81611a26565b600060018060a01b0380861683526020818616818501526060604085015260a08401915084516060850152808501516040608086015282815180855260c0870191508383019450600092505b8083101561211157845182529383019360019290920191908301906120f1565b5098975050505050505050565b60006020828403121561213057600080fd5b5051919050565b634e487b7160e01b600052601160045260246000fd5b808202811582820484141761054557610545612137565b60008261218157634e487b7160e01b600052601260045260246000fd5b500490565b634e487b7160e01b600052602160045260246000fd5b60208101600283106121be57634e487b7160e01b600052602160045260246000fd5b91905290565b601f82111561220a57600081815260208120601f850160051c810160208610156121eb5750805b601f850160051c820191505b81811015611101578281556001016121f7565b505050565b815167ffffffffffffffff81111561222957612229611b00565b61223d816122378454611dc4565b846121c4565b602080601f831160018114612272576000841561225a5750858301515b600019600386901b1c1916600185901b178555611101565b600085815260208120601f198616915b828110156122a157888601518255948401946001909101908401612282565b50858210156122bf5787850151600019600388901b60f8161c191681555b5050505050600190811b01905550565b6000602082840312156122e157600080fd5b8151610ce581611d16565b8082018082111561054557610545612137565b6020808252602b908201527f496e697469616c697a61626c653a20636f6e7472616374206973206e6f74206960408201526a6e697469616c697a696e6760a81b606082015260800190565b6000825161235c818460208701611a58565b919091019291505056fe416464726573733a206c6f772d6c6576656c207374617469632063616c6c206661696c6564a26469706673582212207fc9606eb76d6656983c66dd14e8f18f029bc4a2d45bb647d65cfef701ad910964736f6c63430008150033",
    "linkReferences": {}
  },
  "methodIdentifiers": {
    "DOMAIN_SEPARATOR()": "3644e515",
    "FORMAT_DECIMALS()": "a01c8774",
    "allowance(address,address)": "dd62ed3e",
    "approve(address,uint256)": "095ea7b3",
    "asset()": "38d52e0f",
    "balanceOf(address)": "70a08231",
    "claimReward()": "b88a802f",
    "convertToAssets(uint256,address)": "36103291",
    "convertToShares(uint256)": "c6e6f592",
    "convertToUnderlying(uint256)": "1dc7f521",
    "decimals()": "313ce567",
    "decreaseAllowance(address,uint256)": "a457c2d7",
    "earned(address)": "008cc262",
    "getRewardsData()": "7d098e64",
    "increaseAllowance(address,uint256)": "39509351",
    "initialize(address,address,string,string)": "2016a0d2",
    "lastTimeRewardApplicable()": "80faa57d",
    "mint(bytes,address)": "0cae37f1",
    "name()": "06fdde03",
    "nonces(address)": "7ecebe00",
    "notifyRewardAmount(uint256)": "3c6b16ab",
    "permit(address,address,uint256,uint256,uint8,bytes32,bytes32)": "d505accf",
    "previewMint(uint256)": "b3d7f6b9",
    "previewRedeem(uint256)": "4cdad506",
    "previewWithdraw(uint256)": "0a28a477",
    "redeem(bytes,address)": "0ba097d6",
    "rewardPerToken()": "cd3daf9d",
    "setRewardsDuration(uint256)": "cc1a378f",
    "sharesOf(address)": "f5eb42dc",
    "subBalanceOf(address)": "32e50690",
    "symbol()": "95d89b41",
    "totalAssets()": "01e1d114",
    "totalShares()": "3a98ef39",
    "totalSupply()": "18160ddd",
    "transfer(address,uint256)": "a9059cbb",
    "transferFrom(address,address,uint256)": "23b872dd"
  },
  "id": 46
}