{
  "abi": [
    {
      "inputs": [],
      "stateMutability": "nonpayable",
      "type": "constructor"
    },
    {
      "inputs": [
        {
          "internalType": "address",
          "name": "sender",
          "type": "address"
        },
        {
          "internalType": "uint256",
          "name": "shares",
          "type": "uint256"
        },
        {
          "internalType": "uint256",
          "name": "sharesNeeded",
          "type": "uint256"
        }
      ],
      "name": "ERC20InsufficientBalance",
      "type": "error"
    },
    {
      "inputs": [
        {
          "internalType": "address",
          "name": "receiver",
          "type": "address"
        }
      ],
      "name": "ERC20InvalidReceiver",
      "type": "error"
    },
    {
      "inputs": [
        {
          "internalType": "address",
          "name": "sender",
          "type": "address"
        }
      ],
      "name": "ERC20InvalidSender",
      "type": "error"
    },
    {
      "inputs": [
        {
          "internalType": "uint256",
          "name": "rewardMultiplier",
          "type": "uint256"
        }
      ],
      "name": "USDMInvalidRewardMultiplier",
      "type": "error"
    },
    {
      "anonymous": false,
      "inputs": [
        {
          "indexed": true,
          "internalType": "address",
          "name": "owner",
          "type": "address"
        },
        {
          "indexed": true,
          "internalType": "address",
          "name": "spender",
          "type": "address"
        },
        {
          "indexed": false,
          "internalType": "uint256",
          "name": "value",
          "type": "uint256"
        }
      ],
      "name": "Approval",
      "type": "event"
    },
    {
      "anonymous": false,
      "inputs": [
        {
          "indexed": true,
          "internalType": "address",
          "name": "caller",
          "type": "address"
        },
        {
          "indexed": true,
          "internalType": "address",
          "name": "owner",
          "type": "address"
        },
        {
          "indexed": false,
          "internalType": "uint256",
          "name": "assets",
          "type": "uint256"
        },
        {
          "indexed": false,
          "internalType": "uint256",
          "name": "shares",
          "type": "uint256"
        }
      ],
      "name": "Deposit",
      "type": "event"
    },
    {
      "anonymous": false,
      "inputs": [
        {
          "indexed": false,
          "internalType": "uint8",
          "name": "version",
          "type": "uint8"
        }
      ],
      "name": "Initialized",
      "type": "event"
    },
    {
      "anonymous": false,
      "inputs": [
        {
          "indexed": true,
          "internalType": "uint256",
          "name": "value",
          "type": "uint256"
        }
      ],
      "name": "RewardMultiplier",
      "type": "event"
    },
    {
      "anonymous": false,
      "inputs": [
        {
          "indexed": true,
          "internalType": "address",
          "name": "from",
          "type": "address"
        },
        {
          "indexed": true,
          "internalType": "address",
          "name": "to",
          "type": "address"
        },
        {
          "indexed": false,
          "internalType": "uint256",
          "name": "value",
          "type": "uint256"
        }
      ],
      "name": "Transfer",
      "type": "event"
    },
    {
      "anonymous": false,
      "inputs": [
        {
          "indexed": true,
          "internalType": "address",
          "name": "caller",
          "type": "address"
        },
        {
          "indexed": true,
          "internalType": "address",
          "name": "receiver",
          "type": "address"
        },
        {
          "indexed": true,
          "internalType": "address",
          "name": "owner",
          "type": "address"
        },
        {
          "indexed": false,
          "internalType": "uint256",
          "name": "assets",
          "type": "uint256"
        },
        {
          "indexed": false,
          "internalType": "uint256",
          "name": "shares",
          "type": "uint256"
        }
      ],
      "name": "Withdraw",
      "type": "event"
    },
    {
      "inputs": [
        {
          "internalType": "uint256",
          "name": "_rewardMultiplierIncrement",
          "type": "uint256"
        }
      ],
      "name": "addRewardMultiplier",
      "outputs": [],
      "stateMutability": "nonpayable",
      "type": "function"
    },
    {
      "inputs": [
        {
          "internalType": "address",
          "name": "owner",
          "type": "address"
        },
        {
          "internalType": "address",
          "name": "spender",
          "type": "address"
        }
      ],
      "name": "allowance",
      "outputs": [
        {
          "internalType": "uint256",
          "name": "",
          "type": "uint256"
        }
      ],
      "stateMutability": "view",
      "type": "function"
    },
    {
      "inputs": [
        {
          "internalType": "address",
          "name": "spender",
          "type": "address"
        },
        {
          "internalType": "uint256",
          "name": "amount",
          "type": "uint256"
        }
      ],
      "name": "approve",
      "outputs": [
        {
          "internalType": "bool",
          "name": "",
          "type": "bool"
        }
      ],
      "stateMutability": "nonpayable",
      "type": "function"
    },
    {
      "inputs": [],
      "name": "asset",
      "outputs": [
        {
          "internalType": "address",
          "name": "",
          "type": "address"
        }
      ],
      "stateMutability": "view",
      "type": "function"
    },
    {
      "inputs": [
        {
          "internalType": "address",
          "name": "account_",
          "type": "address"
        }
      ],
      "name": "balanceOf",
      "outputs": [
        {
          "internalType": "uint256",
          "name": "",
          "type": "uint256"
        }
      ],
      "stateMutability": "view",
      "type": "function"
    },
    {
      "inputs": [
        {
          "internalType": "uint256",
          "name": "shares",
          "type": "uint256"
        }
      ],
      "name": "convertToAssets",
      "outputs": [
        {
          "internalType": "uint256",
          "name": "assets",
          "type": "uint256"
        }
      ],
      "stateMutability": "view",
      "type": "function"
    },
    {
      "inputs": [
        {
          "internalType": "uint256",
          "name": "assets",
          "type": "uint256"
        }
      ],
      "name": "convertToShares",
      "outputs": [
        {
          "internalType": "uint256",
          "name": "shares",
          "type": "uint256"
        }
      ],
      "stateMutability": "view",
      "type": "function"
    },
    {
      "inputs": [],
      "name": "decimals",
      "outputs": [
        {
          "internalType": "uint8",
          "name": "",
          "type": "uint8"
        }
      ],
      "stateMutability": "view",
      "type": "function"
    },
    {
      "inputs": [
        {
          "internalType": "address",
          "name": "spender",
          "type": "address"
        },
        {
          "internalType": "uint256",
          "name": "subtractedValue",
          "type": "uint256"
        }
      ],
      "name": "decreaseAllowance",
      "outputs": [
        {
          "internalType": "bool",
          "name": "",
          "type": "bool"
        }
      ],
      "stateMutability": "nonpayable",
      "type": "function"
    },
    {
      "inputs": [
        {
          "internalType": "uint256",
          "name": "assets_",
          "type": "uint256"
        },
        {
          "internalType": "address",
          "name": "receiver_",
          "type": "address"
        }
      ],
      "name": "deposit",
      "outputs": [
        {
          "internalType": "uint256",
          "name": "",
          "type": "uint256"
        }
      ],
      "stateMutability": "nonpayable",
      "type": "function"
    },
    {
      "inputs": [],
      "name": "getMult",
      "outputs": [
        {
          "internalType": "uint256",
          "name": "",
          "type": "uint256"
        }
      ],
      "stateMutability": "view",
      "type": "function"
    },
    {
      "inputs": [
        {
          "internalType": "address",
          "name": "spender",
          "type": "address"
        },
        {
          "internalType": "uint256",
          "name": "addedValue",
          "type": "uint256"
        }
      ],
      "name": "increaseAllowance",
      "outputs": [
        {
          "internalType": "bool",
          "name": "",
          "type": "bool"
        }
      ],
      "stateMutability": "nonpayable",
      "type": "function"
    },
    {
      "inputs": [
        {
          "internalType": "address",
          "name": "underlying_",
          "type": "address"
        },
        {
          "internalType": "address",
          "name": "diamond_",
          "type": "address"
        },
        {
          "internalType": "string",
          "name": "name_",
          "type": "string"
        },
        {
          "internalType": "string",
          "name": "symbol_",
          "type": "string"
        },
        {
          "internalType": "uint8",
          "name": "decimals_",
          "type": "uint8"
        }
      ],
      "name": "initialize",
      "outputs": [],
      "stateMutability": "nonpayable",
      "type": "function"
    },
    {
      "inputs": [
        {
          "internalType": "address",
          "name": "",
          "type": "address"
        }
      ],
      "name": "maxDeposit",
      "outputs": [
        {
          "internalType": "uint256",
          "name": "",
          "type": "uint256"
        }
      ],
      "stateMutability": "view",
      "type": "function"
    },
    {
      "inputs": [
        {
          "internalType": "address",
          "name": "",
          "type": "address"
        }
      ],
      "name": "maxMint",
      "outputs": [
        {
          "internalType": "uint256",
          "name": "",
          "type": "uint256"
        }
      ],
      "stateMutability": "view",
      "type": "function"
    },
    {
      "inputs": [
        {
          "internalType": "address",
          "name": "owner",
          "type": "address"
        }
      ],
      "name": "maxRedeem",
      "outputs": [
        {
          "internalType": "uint256",
          "name": "",
          "type": "uint256"
        }
      ],
      "stateMutability": "view",
      "type": "function"
    },
    {
      "inputs": [
        {
          "internalType": "address",
          "name": "owner",
          "type": "address"
        }
      ],
      "name": "maxWithdraw",
      "outputs": [
        {
          "internalType": "uint256",
          "name": "",
          "type": "uint256"
        }
      ],
      "stateMutability": "view",
      "type": "function"
    },
    {
      "inputs": [
        {
          "internalType": "uint256",
          "name": "shares",
          "type": "uint256"
        },
        {
          "internalType": "address",
          "name": "receiver",
          "type": "address"
        }
      ],
      "name": "mint",
      "outputs": [
        {
          "internalType": "uint256",
          "name": "",
          "type": "uint256"
        }
      ],
      "stateMutability": "nonpayable",
      "type": "function"
    },
    {
      "inputs": [
        {
          "components": [
            {
              "internalType": "uint256",
              "name": "amountIn",
              "type": "uint256"
            },
            {
              "internalType": "uint256",
              "name": "minWethOut",
              "type": "uint256"
            },
            {
              "internalType": "uint256",
              "name": "minRethOut",
              "type": "uint256"
            },
            {
              "internalType": "uint256",
              "name": "minBptOut",
              "type": "uint256"
            }
          ],
          "internalType": "struct TradeAmounts",
          "name": "amounts_",
          "type": "tuple"
        },
        {
          "internalType": "address",
          "name": "receiver_",
          "type": "address"
        },
        {
          "internalType": "uint8",
          "name": "v_",
          "type": "uint8"
        },
        {
          "internalType": "bytes32",
          "name": "r_",
          "type": "bytes32"
        },
        {
          "internalType": "bytes32",
          "name": "s_",
          "type": "bytes32"
        }
      ],
      "name": "mint",
      "outputs": [
        {
          "internalType": "uint256",
          "name": "",
          "type": "uint256"
        }
      ],
      "stateMutability": "nonpayable",
      "type": "function"
    },
    {
      "inputs": [],
      "name": "name",
      "outputs": [
        {
          "internalType": "string",
          "name": "",
          "type": "string"
        }
      ],
      "stateMutability": "view",
      "type": "function"
    },
    {
      "inputs": [
        {
          "internalType": "uint256",
          "name": "assets",
          "type": "uint256"
        }
      ],
      "name": "previewDeposit",
      "outputs": [
        {
          "internalType": "uint256",
          "name": "",
          "type": "uint256"
        }
      ],
      "stateMutability": "view",
      "type": "function"
    },
    {
      "inputs": [
        {
          "internalType": "uint256",
          "name": "shares",
          "type": "uint256"
        }
      ],
      "name": "previewMint",
      "outputs": [
        {
          "internalType": "uint256",
          "name": "",
          "type": "uint256"
        }
      ],
      "stateMutability": "view",
      "type": "function"
    },
    {
      "inputs": [
        {
          "internalType": "uint256",
          "name": "shares",
          "type": "uint256"
        }
      ],
      "name": "previewRedeem",
      "outputs": [
        {
          "internalType": "uint256",
          "name": "",
          "type": "uint256"
        }
      ],
      "stateMutability": "view",
      "type": "function"
    },
    {
      "inputs": [
        {
          "internalType": "uint256",
          "name": "assets",
          "type": "uint256"
        }
      ],
      "name": "previewWithdraw",
      "outputs": [
        {
          "internalType": "uint256",
          "name": "",
          "type": "uint256"
        }
      ],
      "stateMutability": "view",
      "type": "function"
    },
    {
      "inputs": [
        {
          "internalType": "uint256",
          "name": "shares",
          "type": "uint256"
        },
        {
          "internalType": "address",
          "name": "receiver",
          "type": "address"
        },
        {
          "internalType": "address",
          "name": "owner",
          "type": "address"
        }
      ],
      "name": "redeem",
      "outputs": [
        {
          "internalType": "uint256",
          "name": "",
          "type": "uint256"
        }
      ],
      "stateMutability": "nonpayable",
      "type": "function"
    },
    {
      "inputs": [
        {
          "internalType": "uint256",
          "name": "_rewardMultiplier",
          "type": "uint256"
        }
      ],
      "name": "setRewardMultiplier",
      "outputs": [],
      "stateMutability": "nonpayable",
      "type": "function"
    },
    {
      "inputs": [
        {
          "internalType": "address",
          "name": "account_",
          "type": "address"
        }
      ],
      "name": "sharesOf",
      "outputs": [
        {
          "internalType": "uint256",
          "name": "",
          "type": "uint256"
        }
      ],
      "stateMutability": "view",
      "type": "function"
    },
    {
      "inputs": [],
      "name": "symbol",
      "outputs": [
        {
          "internalType": "string",
          "name": "",
          "type": "string"
        }
      ],
      "stateMutability": "view",
      "type": "function"
    },
    {
      "inputs": [],
      "name": "totalAssets",
      "outputs": [
        {
          "internalType": "uint256",
          "name": "",
          "type": "uint256"
        }
      ],
      "stateMutability": "view",
      "type": "function"
    },
    {
      "inputs": [],
      "name": "totalShares",
      "outputs": [
        {
          "internalType": "uint256",
          "name": "",
          "type": "uint256"
        }
      ],
      "stateMutability": "view",
      "type": "function"
    },
    {
      "inputs": [],
      "name": "totalSupply",
      "outputs": [
        {
          "internalType": "uint256",
          "name": "",
          "type": "uint256"
        }
      ],
      "stateMutability": "view",
      "type": "function"
    },
    {
      "inputs": [
        {
          "internalType": "address",
          "name": "to",
          "type": "address"
        },
        {
          "internalType": "uint256",
          "name": "amount",
          "type": "uint256"
        }
      ],
      "name": "transfer",
      "outputs": [
        {
          "internalType": "bool",
          "name": "",
          "type": "bool"
        }
      ],
      "stateMutability": "nonpayable",
      "type": "function"
    },
    {
      "inputs": [
        {
          "internalType": "address",
          "name": "from",
          "type": "address"
        },
        {
          "internalType": "address",
          "name": "to",
          "type": "address"
        },
        {
          "internalType": "uint256",
          "name": "amount",
          "type": "uint256"
        }
      ],
      "name": "transferFrom",
      "outputs": [
        {
          "internalType": "bool",
          "name": "",
          "type": "bool"
        }
      ],
      "stateMutability": "nonpayable",
      "type": "function"
    },
    {
      "inputs": [
        {
          "internalType": "uint256",
          "name": "assets",
          "type": "uint256"
        },
        {
          "internalType": "address",
          "name": "receiver",
          "type": "address"
        },
        {
          "internalType": "address",
          "name": "owner",
          "type": "address"
        }
      ],
      "name": "withdraw",
      "outputs": [
        {
          "internalType": "uint256",
          "name": "",
          "type": "uint256"
        }
      ],
      "stateMutability": "nonpayable",
      "type": "function"
    }
  ],
  "bytecode": {
    "object": "0x608060405234801561001057600080fd5b5061001961001e565b6100de565b600054610100900460ff161561008a5760405162461bcd60e51b815260206004820152602760248201527f496e697469616c697a61626c653a20636f6e747261637420697320696e697469604482015266616c697a696e6760c81b606482015260840160405180910390fd5b60005460ff90811610156100dc576000805460ff191660ff9081179091556040519081527f7f26b83ff96e1f2b6a682f133852f6798a09c465da95921460cefb38474024989060200160405180910390a15b565b611901806100ed6000396000f3fe608060405234801561001057600080fd5b50600436106102065760003560e01c8063816e59341161011a578063ba087652116100ad578063d905777e1161007c578063d905777e14610421578063d937361214610434578063dd62ed3e14610447578063ef8b30f7146103fb578063f5eb42dc1461045a57600080fd5b8063ba087652146103d3578063c63d75b6146103e6578063c6e6f592146103fb578063ce96cb771461040e57600080fd5b8063a457c2d7116100e9578063a457c2d714610387578063a9059cbb1461039a578063b3d7f6b9146103ad578063b460af94146103c057600080fd5b8063816e5934146103515780638420ce991461035957806394bf804d1461036c57806395d89b411461037f57600080fd5b8063313ce5671161019d578063402d267d1161016c578063402d267d146103055780634cdad5061461023757806359ecd7fc146103185780636e553f651461032b57806370a082311461033e57600080fd5b8063313ce567146102b057806338d52e0f146102cf57806339509351146102ea5780633a98ef39146102fd57600080fd5b80630a28a477116101d95780630a28a4771461026d5780630bd075a11461028057806318160ddd1461029557806323b872dd1461029d57600080fd5b806301e1d1141461020b57806306fdde031461022257806307a2d13a14610237578063095ea7b31461024a575b600080fd5b60a8545b6040519081526020015b60405180910390f35b61022a610483565b6040516102199190611310565b61020f61024536600461135e565b610515565b61025d610258366004611393565b610528565b6040519015158152602001610219565b61020f61027b36600461135e565b610540565b61029361028e36600461135e565b61054d565b005b60355461020f565b61025d6102ab3660046113bd565b610559565b60a654600160a01b900460ff1660405160ff9091168152602001610219565b6065546040516001600160a01b039091168152602001610219565b61025d6102f8366004611393565b61057f565b60a75461020f565b61020f6103133660046113f9565b6105a1565b61029361032636600461135e565b6105bf565b61020f610339366004611414565b6105ff565b61020f61034c3660046113f9565b610687565b61020f6106a9565b6102936103673660046114f4565b61071c565b61020f61037a366004611414565b610865565b61022a61087f565b61025d610395366004611393565b61088e565b61025d6103a8366004611393565b610914565b61020f6103bb36600461135e565b610922565b61020f6103ce36600461158a565b61092f565b61020f6103e136600461158a565b61099d565b61020f6103f43660046113f9565b5060001990565b61020f61040936600461135e565b610a02565b61020f61041c3660046113f9565b610a0f565b61020f61042f3660046113f9565b610a24565b61020f6104423660046115c6565b610a2f565b61020f61045536600461166f565b610b94565b61020f6104683660046113f9565b6001600160a01b0316600090815260a9602052604090205490565b60606036805461049290611699565b80601f01602080910402602001604051908101604052809291908181526020018280546104be90611699565b801561050b5780601f106104e05761010080835404028352916020019161050b565b820191906000526020600020905b8154815290600101906020018083116104ee57829003601f168201915b5050505050905090565b6000610522826000610bbf565b92915050565b600033610536818585610c70565b5060019392505050565b6000610522826001610d94565b61055681610dae565b50565b600033610567858285610e0d565b610572858585610e87565b60019150505b9392505050565b6000336105368185856105928383610b94565b61059c91906116e9565b610c70565b60006105ab610f7e565b6105b6576000610522565b60001992915050565b806000036105e857604051634c56cc2960e11b8152600481018290526024015b60405180910390fd5b60a454610556906105fa9083906116e9565b610dae565b600061060a826105a1565b8311156106595760405162461bcd60e51b815260206004820152601e60248201527f455243343632363a206465706f736974206d6f7265207468616e206d6178000060448201526064016105df565b600061066460355490565b156106775761067284610a02565b610679565b835b905061057833848684610f99565b6001600160a01b038116600090815260a9602052604081205461052290610515565b60a65460408051633b12dff560e01b815290516000926001600160a01b031691633b12dff59160048083019260209291908290030181865afa1580156106f3573d6000803e3d6000fd5b505050506040513d601f19601f8201168201806040525081019061071791906116fc565b905090565b600054610100900460ff161580801561073c5750600054600160ff909116105b806107565750303b158015610756575060005460ff166001145b6107b95760405162461bcd60e51b815260206004820152602e60248201527f496e697469616c697a61626c653a20636f6e747261637420697320616c72656160448201526d191e481a5b9a5d1a585b1a5e995960921b60648201526084016105df565b6000805460ff1916600117905580156107dc576000805461ff0019166101001790555b6107e68484611034565b6107ef86611069565b60a6805460ff8416600160a01b026001600160a81b03199091166001600160a01b03881617179055801561085d576000805461ff0019169055604051600181527f7f26b83ff96e1f2b6a682f133852f6798a09c465da95921460cefb38474024989060200160405180910390a15b505050505050565b60008061087184610922565b905061057833848387610f99565b60606037805461049290611699565b6000338161089c8286610b94565b9050838110156108fc5760405162461bcd60e51b815260206004820152602560248201527f45524332303a2064656372656173656420616c6c6f77616e63652062656c6f77604482015264207a65726f60d81b60648201526084016105df565b6109098286868403610c70565b506001949350505050565b600033610536818585610e87565b6000610522826001610bbf565b600061093a82610a0f565b8411156109895760405162461bcd60e51b815260206004820152601f60248201527f455243343632363a207769746864726177206d6f7265207468616e206d61780060448201526064016105df565b600061099485610540565b95945050505050565b60006109a882610a24565b8411156109f75760405162461bcd60e51b815260206004820152601d60248201527f455243343632363a2072656465656d206d6f7265207468616e206d617800000060448201526064016105df565b600061099485610515565b6000610522826000610d94565b6000610522610a1d83610687565b6000610bbf565b600061052282610687565b600080610a446065546001600160a01b031690565b60a654885160405163d505accf60e01b81523360048201526001600160a01b039283166024820152604481019190915242606482015260ff8816608482015260a4810187905260c4810186905291925082169063d505accf9060e401600060405180830381600087803b158015610aba57600080fd5b505af1158015610ace573d6000803e3d6000fd5b505060a65460408051635879601960e01b81526001600160a01b0386811660048301523360248301528c51604483015260208d01516064830152918c0151608482015260608c015160a4820152911692506358796019915060c401600060405180830381600087803b158015610b4357600080fd5b505af1158015610b57573d6000803e3d6000fd5b505050506000610b6b8860000151886105ff565b9050876000015160a86000828254610b8391906116e9565b909155509098975050505050505050565b6001600160a01b03918216600090815260346020908152604080832093909416825291909152205490565b6000610578610bcd60a75490565b60a660009054906101000a90046001600160a01b03166001600160a01b03166345089e296040518163ffffffff1660e01b8152600401602060405180830381865afa158015610c20573d6000803e3d6000fd5b505050506040513d601f19601f82011682018060405250810190610c4491906116fc565b610c4e919061172b565b683635c9adc5dea0000084610c688764e8d4a5100061174d565b929190611099565b6001600160a01b038316610cd25760405162461bcd60e51b8152602060048201526024808201527f45524332303a20617070726f76652066726f6d20746865207a65726f206164646044820152637265737360e01b60648201526084016105df565b6001600160a01b038216610d335760405162461bcd60e51b815260206004820152602260248201527f45524332303a20617070726f766520746f20746865207a65726f206164647265604482015261737360f01b60648201526084016105df565b6001600160a01b0383811660008181526034602090815260408083209487168084529482529182902085905590518481527f8c5be1e5ebec7d5bd14f71427d1e84f3dd0314c0f7b2291e5b200ac8c7c3b925910160405180910390a3505050565b6000610578610da260a75490565b60a85485919085611099565b670de0b6b3a7640000811015610dda57604051634c56cc2960e11b8152600481018290526024016105df565b60a481905560405181907ffe5d4a0d7f088152b65d5e82045cc102fa71d952647598538d9fb3fb4820bd1890600090a250565b6000610e198484610b94565b90506000198114610e815781811015610e745760405162461bcd60e51b815260206004820152601d60248201527f45524332303a20696e73756666696369656e7420616c6c6f77616e636500000060448201526064016105df565b610e818484848403610c70565b50505050565b6001600160a01b038316610eb957604051634b637e8f60e11b81526001600160a01b03841660048201526024016105df565b6001600160a01b038216610eeb5760405163ec442f0560e01b81526001600160a01b03831660048201526024016105df565b6000610ef682610a02565b6001600160a01b038516600090815260a9602052604090205490915081811015610f4c5760405163391434e360e21b81526001600160a01b038616600482015260248101829052604481018390526064016105df565b6001600160a01b03808616600090815260a9602052604080822085850390559186168152208054830190555050505050565b600080610f8a60a85490565b11806107175750506035541590565b8060a76000828254610fab91906116e9565b90915550506001600160a01b038316600090815260a960205260409020805482019055610fd883836110f9565b826001600160a01b0316846001600160a01b03167fdcbc1c05240f31ff3ad067ef1ee35ce4997762752e3a095284754544f4c709d78484604051611026929190918252602082015260400190565b60405180910390a350505050565b600054610100900460ff1661105b5760405162461bcd60e51b81526004016105df90611764565b61106582826111d8565b5050565b600054610100900460ff166110905760405162461bcd60e51b81526004016105df90611764565b61055681611218565b6000806110a7868686611261565b905060018360028111156110bd576110bd6117af565b1480156110da5750600084806110d5576110d5611715565b868809115b15610994576110ea6001826116e9565b9695505050505050565b505050565b6001600160a01b03821661114f5760405162461bcd60e51b815260206004820152601f60248201527f45524332303a206d696e7420746f20746865207a65726f20616464726573730060448201526064016105df565b806035600082825461116191906116e9565b90915550506001600160a01b0382166000908152603360205260408120805483929061118e9084906116e9565b90915550506040518181526001600160a01b038316906000907fddf252ad1be2c89b69c2b068fc378daa952ba7f163c4a11628f55a4df523b3ef9060200160405180910390a35050565b600054610100900460ff166111ff5760405162461bcd60e51b81526004016105df90611764565b603661120b838261180b565b5060376110f4828261180b565b600054610100900460ff1661123f5760405162461bcd60e51b81526004016105df90611764565b606580546001600160a01b0319166001600160a01b0392909216919091179055565b600080806000198587098587029250828110838203039150508060000361129b5783828161129157611291611715565b0492505050610578565b8084116112a757600080fd5b60008486880960026001871981018816978890046003810283188082028403028082028403028082028403028082028403028082028403029081029092039091026000889003889004909101858311909403939093029303949094049190911702949350505050565b600060208083528351808285015260005b8181101561133d57858101830151858201604001528201611321565b506000604082860101526040601f19601f8301168501019250505092915050565b60006020828403121561137057600080fd5b5035919050565b80356001600160a01b038116811461138e57600080fd5b919050565b600080604083850312156113a657600080fd5b6113af83611377565b946020939093013593505050565b6000806000606084860312156113d257600080fd5b6113db84611377565b92506113e960208501611377565b9150604084013590509250925092565b60006020828403121561140b57600080fd5b61057882611377565b6000806040838503121561142757600080fd5b8235915061143760208401611377565b90509250929050565b634e487b7160e01b600052604160045260246000fd5b600082601f83011261146757600080fd5b813567ffffffffffffffff8082111561148257611482611440565b604051601f8301601f19908116603f011681019082821181831017156114aa576114aa611440565b816040528381528660208588010111156114c357600080fd5b836020870160208301376000602085830101528094505050505092915050565b803560ff8116811461138e57600080fd5b600080600080600060a0868803121561150c57600080fd5b61151586611377565b945061152360208701611377565b9350604086013567ffffffffffffffff8082111561154057600080fd5b61154c89838a01611456565b9450606088013591508082111561156257600080fd5b5061156f88828901611456565b92505061157e608087016114e3565b90509295509295909350565b60008060006060848603121561159f57600080fd5b833592506115af60208501611377565b91506115bd60408501611377565b90509250925092565b60008060008060008587036101008112156115e057600080fd5b60808112156115ee57600080fd5b506040516080810181811067ffffffffffffffff8211171561161257611612611440565b8060405250863581526020870135602082015260408701356040820152606087013560608201528095505061164960808701611377565b935061165760a087016114e3565b9497939650939460c0810135945060e0013592915050565b6000806040838503121561168257600080fd5b61168b83611377565b915061143760208401611377565b600181811c908216806116ad57607f821691505b6020821081036116cd57634e487b7160e01b600052602260045260246000fd5b50919050565b634e487b7160e01b600052601160045260246000fd5b80820180821115610522576105226116d3565b60006020828403121561170e57600080fd5b5051919050565b634e487b7160e01b600052601260045260246000fd5b60008261174857634e487b7160e01b600052601260045260246000fd5b500490565b8082028115828204841417610522576105226116d3565b6020808252602b908201527f496e697469616c697a61626c653a20636f6e7472616374206973206e6f74206960408201526a6e697469616c697a696e6760a81b606082015260800190565b634e487b7160e01b600052602160045260246000fd5b601f8211156110f457600081815260208120601f850160051c810160208610156117ec5750805b601f850160051c820191505b8181101561085d578281556001016117f8565b815167ffffffffffffffff81111561182557611825611440565b611839816118338454611699565b846117c5565b602080601f83116001811461186e57600084156118565750858301515b600019600386901b1c1916600185901b17855561085d565b600085815260208120601f198616915b8281101561189d5788860151825594840194600190910190840161187e565b50858210156118bb5787850151600019600388901b60f8161c191681555b5050505050600190811b0190555056fea264697066735822122091d2a0dc2c57fc407f0ed0f5eaf2dad31de18681ce1fab250f6d85871992510d64736f6c63430008150033",
    "linkReferences": {}
  },
  "methodIdentifiers": {
    "addRewardMultiplier(uint256)": "59ecd7fc",
    "allowance(address,address)": "dd62ed3e",
    "approve(address,uint256)": "095ea7b3",
    "asset()": "38d52e0f",
    "balanceOf(address)": "70a08231",
    "convertToAssets(uint256)": "07a2d13a",
    "convertToShares(uint256)": "c6e6f592",
    "decimals()": "313ce567",
    "decreaseAllowance(address,uint256)": "a457c2d7",
    "deposit(uint256,address)": "6e553f65",
    "getMult()": "816e5934",
    "increaseAllowance(address,uint256)": "39509351",
    "initialize(address,address,string,string,uint8)": "8420ce99",
    "maxDeposit(address)": "402d267d",
    "maxMint(address)": "c63d75b6",
    "maxRedeem(address)": "d905777e",
    "maxWithdraw(address)": "ce96cb77",
    "mint((uint256,uint256,uint256,uint256),address,uint8,bytes32,bytes32)": "d9373612",
    "mint(uint256,address)": "94bf804d",
    "name()": "06fdde03",
    "previewDeposit(uint256)": "ef8b30f7",
    "previewMint(uint256)": "b3d7f6b9",
    "previewRedeem(uint256)": "4cdad506",
    "previewWithdraw(uint256)": "0a28a477",
    "redeem(uint256,address,address)": "ba087652",
    "setRewardMultiplier(uint256)": "0bd075a1",
    "sharesOf(address)": "f5eb42dc",
    "symbol()": "95d89b41",
    "totalAssets()": "01e1d114",
    "totalShares()": "3a98ef39",
    "totalSupply()": "18160ddd",
    "transfer(address,uint256)": "a9059cbb",
    "transferFrom(address,address,uint256)": "23b872dd",
    "withdraw(uint256,address,address)": "b460af94"
  },
  "id": 23
}