{
  "abi": [
    {
      "inputs": [],
      "stateMutability": "nonpayable",
      "type": "constructor"
    },
    {
      "inputs": [],
      "name": "OZError03",
      "type": "error"
    },
    {
      "inputs": [
        {
          "internalType": "address",
          "name": "from",
          "type": "address"
        },
        {
          "internalType": "address",
          "name": "to",
          "type": "address"
        }
      ],
      "name": "OZError04",
      "type": "error"
    },
    {
      "inputs": [
        {
          "internalType": "uint256",
          "name": "amount",
          "type": "uint256"
        }
      ],
      "name": "OZError05",
      "type": "error"
    },
    {
      "inputs": [
        {
          "internalType": "address",
          "name": "sender",
          "type": "address"
        },
        {
          "internalType": "uint256",
          "name": "accountShares",
          "type": "uint256"
        },
        {
          "internalType": "uint256",
          "name": "shares",
          "type": "uint256"
        }
      ],
      "name": "OZError06",
      "type": "error"
    },
    {
      "inputs": [
        {
          "internalType": "address",
          "name": "from",
          "type": "address"
        },
        {
          "internalType": "uint256",
          "name": "fromShares",
          "type": "uint256"
        },
        {
          "internalType": "uint256",
          "name": "shares",
          "type": "uint256"
        }
      ],
      "name": "OZError07",
      "type": "error"
    },
    {
      "inputs": [
        {
          "internalType": "uint256",
          "name": "deadline",
          "type": "uint256"
        },
        {
          "internalType": "uint256",
          "name": "blockTimestamp",
          "type": "uint256"
        }
      ],
      "name": "OZError08",
      "type": "error"
    },
    {
      "inputs": [
        {
          "internalType": "address",
          "name": "owner",
          "type": "address"
        },
        {
          "internalType": "address",
          "name": "spender",
          "type": "address"
        }
      ],
      "name": "OZError09",
      "type": "error"
    },
    {
      "inputs": [
        {
          "internalType": "string",
          "name": "reason",
          "type": "string"
        }
      ],
      "name": "OZError22",
      "type": "error"
    },
    {
      "anonymous": false,
      "inputs": [
        {
          "indexed": true,
          "internalType": "address",
          "name": "owner",
          "type": "address"
        },
        {
          "indexed": true,
          "internalType": "address",
          "name": "spender",
          "type": "address"
        },
        {
          "indexed": false,
          "internalType": "uint256",
          "name": "value",
          "type": "uint256"
        }
      ],
      "name": "Approval",
      "type": "event"
    },
    {
      "anonymous": false,
      "inputs": [
        {
          "indexed": false,
          "internalType": "uint8",
          "name": "version",
          "type": "uint8"
        }
      ],
      "name": "Initialized",
      "type": "event"
    },
    {
      "anonymous": false,
      "inputs": [
        {
          "indexed": true,
          "internalType": "address",
          "name": "from",
          "type": "address"
        },
        {
          "indexed": true,
          "internalType": "address",
          "name": "to",
          "type": "address"
        },
        {
          "indexed": false,
          "internalType": "uint256",
          "name": "value",
          "type": "uint256"
        }
      ],
      "name": "Transfer",
      "type": "event"
    },
    {
      "inputs": [],
      "name": "DOMAIN_SEPARATOR",
      "outputs": [
        {
          "internalType": "bytes32",
          "name": "",
          "type": "bytes32"
        }
      ],
      "stateMutability": "view",
      "type": "function"
    },
    {
      "inputs": [],
      "name": "FORMAT_DECIMALS",
      "outputs": [
        {
          "internalType": "uint256",
          "name": "",
          "type": "uint256"
        }
      ],
      "stateMutability": "view",
      "type": "function"
    },
    {
      "inputs": [
        {
          "internalType": "uint256",
          "name": "shares_",
          "type": "uint256"
        }
      ],
      "name": "_convertToAssetsFromUnderlying",
      "outputs": [
        {
          "internalType": "uint256",
          "name": "",
          "type": "uint256"
        }
      ],
      "stateMutability": "view",
      "type": "function"
    },
    {
      "inputs": [
        {
          "internalType": "address",
          "name": "owner",
          "type": "address"
        },
        {
          "internalType": "address",
          "name": "spender",
          "type": "address"
        }
      ],
      "name": "allowance",
      "outputs": [
        {
          "internalType": "uint256",
          "name": "",
          "type": "uint256"
        }
      ],
      "stateMutability": "view",
      "type": "function"
    },
    {
      "inputs": [
        {
          "internalType": "address",
          "name": "spender",
          "type": "address"
        },
        {
          "internalType": "uint256",
          "name": "amount",
          "type": "uint256"
        }
      ],
      "name": "approve",
      "outputs": [
        {
          "internalType": "bool",
          "name": "",
          "type": "bool"
        }
      ],
      "stateMutability": "nonpayable",
      "type": "function"
    },
    {
      "inputs": [],
      "name": "asset",
      "outputs": [
        {
          "internalType": "address",
          "name": "",
          "type": "address"
        }
      ],
      "stateMutability": "view",
      "type": "function"
    },
    {
      "inputs": [
        {
          "internalType": "address",
          "name": "account_",
          "type": "address"
        }
      ],
      "name": "balanceOf",
      "outputs": [
        {
          "internalType": "uint256",
          "name": "",
          "type": "uint256"
        }
      ],
      "stateMutability": "view",
      "type": "function"
    },
    {
      "inputs": [],
      "name": "claimReward",
      "outputs": [
        {
          "internalType": "uint256",
          "name": "",
          "type": "uint256"
        }
      ],
      "stateMutability": "nonpayable",
      "type": "function"
    },
    {
      "inputs": [
        {
          "internalType": "uint256",
          "name": "shares",
          "type": "uint256"
        },
        {
          "internalType": "address",
          "name": "account_",
          "type": "address"
        }
      ],
      "name": "convertToAssets",
      "outputs": [
        {
          "internalType": "uint256",
          "name": "assets",
          "type": "uint256"
        }
      ],
      "stateMutability": "view",
      "type": "function"
    },
    {
      "inputs": [
        {
          "internalType": "uint256",
          "name": "assets",
          "type": "uint256"
        }
      ],
      "name": "convertToShares",
      "outputs": [
        {
          "internalType": "uint256",
          "name": "shares",
          "type": "uint256"
        }
      ],
      "stateMutability": "view",
      "type": "function"
    },
    {
      "inputs": [
        {
          "internalType": "uint256",
          "name": "shares_",
          "type": "uint256"
        }
      ],
      "name": "convertToUnderlying",
      "outputs": [
        {
          "internalType": "uint256",
          "name": "",
          "type": "uint256"
        }
      ],
      "stateMutability": "view",
      "type": "function"
    },
    {
      "inputs": [],
      "name": "decimals",
      "outputs": [
        {
          "internalType": "uint8",
          "name": "",
          "type": "uint8"
        }
      ],
      "stateMutability": "pure",
      "type": "function"
    },
    {
      "inputs": [
        {
          "internalType": "address",
          "name": "spender",
          "type": "address"
        },
        {
          "internalType": "uint256",
          "name": "subtractedValue",
          "type": "uint256"
        }
      ],
      "name": "decreaseAllowance",
      "outputs": [
        {
          "internalType": "bool",
          "name": "",
          "type": "bool"
        }
      ],
      "stateMutability": "nonpayable",
      "type": "function"
    },
    {
      "inputs": [
        {
          "internalType": "address",
          "name": "user_",
          "type": "address"
        }
      ],
      "name": "earned",
      "outputs": [
        {
          "internalType": "uint256",
          "name": "",
          "type": "uint256"
        }
      ],
      "stateMutability": "view",
      "type": "function"
    },
    {
      "inputs": [],
      "name": "getRewardsData",
      "outputs": [
        {
          "internalType": "uint256",
          "name": "rewardRate",
          "type": "uint256"
        },
        {
          "internalType": "uint256",
          "name": "circulatingSupply",
          "type": "uint256"
        },
        {
          "internalType": "uint256",
          "name": "pendingAllocation",
          "type": "uint256"
        },
        {
          "internalType": "uint256",
          "name": "recicledSupply",
          "type": "uint256"
        },
        {
          "internalType": "int256",
          "name": "durationLeft",
          "type": "int256"
        }
      ],
      "stateMutability": "view",
      "type": "function"
    },
    {
      "inputs": [
        {
          "internalType": "address",
          "name": "spender",
          "type": "address"
        },
        {
          "internalType": "uint256",
          "name": "addedValue",
          "type": "uint256"
        }
      ],
      "name": "increaseAllowance",
      "outputs": [
        {
          "internalType": "bool",
          "name": "",
          "type": "bool"
        }
      ],
      "stateMutability": "nonpayable",
      "type": "function"
    },
    {
      "inputs": [
        {
          "internalType": "address",
          "name": "underlying_",
          "type": "address"
        },
        {
          "internalType": "address",
          "name": "diamond_",
          "type": "address"
        },
        {
          "internalType": "string",
          "name": "name_",
          "type": "string"
        },
        {
          "internalType": "string",
          "name": "symbol_",
          "type": "string"
        }
      ],
      "name": "initialize",
      "outputs": [],
      "stateMutability": "nonpayable",
      "type": "function"
    },
    {
      "inputs": [],
      "name": "lastTimeRewardApplicable",
      "outputs": [
        {
          "internalType": "uint256",
          "name": "",
          "type": "uint256"
        }
      ],
      "stateMutability": "view",
      "type": "function"
    },
    {
      "inputs": [
        {
          "internalType": "bytes",
          "name": "data_",
          "type": "bytes"
        },
        {
          "internalType": "address",
          "name": "owner_",
          "type": "address"
        }
      ],
      "name": "mint",
      "outputs": [
        {
          "internalType": "uint256",
          "name": "",
          "type": "uint256"
        }
      ],
      "stateMutability": "nonpayable",
      "type": "function"
    },
    {
      "inputs": [],
      "name": "name",
      "outputs": [
        {
          "internalType": "string",
          "name": "",
          "type": "string"
        }
      ],
      "stateMutability": "view",
      "type": "function"
    },
    {
      "inputs": [
        {
          "internalType": "address",
          "name": "owner",
          "type": "address"
        }
      ],
      "name": "nonces",
      "outputs": [
        {
          "internalType": "uint256",
          "name": "",
          "type": "uint256"
        }
      ],
      "stateMutability": "view",
      "type": "function"
    },
    {
      "inputs": [
        {
          "internalType": "uint256",
          "name": "amount_",
          "type": "uint256"
        }
      ],
      "name": "notifyRewardAmount",
      "outputs": [],
      "stateMutability": "nonpayable",
      "type": "function"
    },
    {
      "inputs": [
        {
          "internalType": "address",
          "name": "owner",
          "type": "address"
        },
        {
          "internalType": "address",
          "name": "spender",
          "type": "address"
        },
        {
          "internalType": "uint256",
          "name": "value",
          "type": "uint256"
        },
        {
          "internalType": "uint256",
          "name": "deadline",
          "type": "uint256"
        },
        {
          "internalType": "uint8",
          "name": "v",
          "type": "uint8"
        },
        {
          "internalType": "bytes32",
          "name": "r",
          "type": "bytes32"
        },
        {
          "internalType": "bytes32",
          "name": "s_",
          "type": "bytes32"
        }
      ],
      "name": "permit",
      "outputs": [],
      "stateMutability": "nonpayable",
      "type": "function"
    },
    {
      "inputs": [
        {
          "internalType": "uint256",
          "name": "assets_",
          "type": "uint256"
        }
      ],
      "name": "previewMint",
      "outputs": [
        {
          "internalType": "uint256",
          "name": "",
          "type": "uint256"
        }
      ],
      "stateMutability": "view",
      "type": "function"
    },
    {
      "inputs": [
        {
          "internalType": "uint256",
          "name": "shares_",
          "type": "uint256"
        }
      ],
      "name": "previewRedeem",
      "outputs": [
        {
          "internalType": "uint256",
          "name": "",
          "type": "uint256"
        }
      ],
      "stateMutability": "view",
      "type": "function"
    },
    {
      "inputs": [
        {
          "internalType": "uint256",
          "name": "assets",
          "type": "uint256"
        }
      ],
      "name": "previewWithdraw",
      "outputs": [
        {
          "internalType": "uint256",
          "name": "",
          "type": "uint256"
        }
      ],
      "stateMutability": "view",
      "type": "function"
    },
    {
      "inputs": [
        {
          "internalType": "bytes",
          "name": "data_",
          "type": "bytes"
        },
        {
          "internalType": "address",
          "name": "owner_",
          "type": "address"
        }
      ],
      "name": "redeem",
      "outputs": [
        {
          "internalType": "uint256",
          "name": "",
          "type": "uint256"
        }
      ],
      "stateMutability": "nonpayable",
      "type": "function"
    },
    {
      "inputs": [],
      "name": "rewardPerToken",
      "outputs": [
        {
          "internalType": "uint256",
          "name": "",
          "type": "uint256"
        }
      ],
      "stateMutability": "view",
      "type": "function"
    },
    {
      "inputs": [
        {
          "internalType": "uint256",
          "name": "duration_",
          "type": "uint256"
        }
      ],
      "name": "setRewardsDuration",
      "outputs": [],
      "stateMutability": "nonpayable",
      "type": "function"
    },
    {
      "inputs": [
        {
          "internalType": "address",
          "name": "account_",
          "type": "address"
        }
      ],
      "name": "sharesOf",
      "outputs": [
        {
          "internalType": "uint256",
          "name": "",
          "type": "uint256"
        }
      ],
      "stateMutability": "view",
      "type": "function"
    },
    {
      "inputs": [
        {
          "internalType": "address",
          "name": "account_",
          "type": "address"
        }
      ],
      "name": "subBalanceOf",
      "outputs": [
        {
          "internalType": "uint256",
          "name": "",
          "type": "uint256"
        }
      ],
      "stateMutability": "view",
      "type": "function"
    },
    {
      "inputs": [
        {
          "internalType": "uint256",
          "name": "assets",
          "type": "uint256"
        },
        {
          "internalType": "address",
          "name": "account_",
          "type": "address"
        }
      ],
      "name": "subConvertToShares",
      "outputs": [
        {
          "internalType": "uint256",
          "name": "shares",
          "type": "uint256"
        }
      ],
      "stateMutability": "view",
      "type": "function"
    },
    {
      "inputs": [],
      "name": "symbol",
      "outputs": [
        {
          "internalType": "string",
          "name": "",
          "type": "string"
        }
      ],
      "stateMutability": "view",
      "type": "function"
    },
    {
      "inputs": [],
      "name": "totalAssets",
      "outputs": [
        {
          "internalType": "uint256",
          "name": "",
          "type": "uint256"
        }
      ],
      "stateMutability": "view",
      "type": "function"
    },
    {
      "inputs": [],
      "name": "totalShares",
      "outputs": [
        {
          "internalType": "uint256",
          "name": "",
          "type": "uint256"
        }
      ],
      "stateMutability": "view",
      "type": "function"
    },
    {
      "inputs": [],
      "name": "totalSupply",
      "outputs": [
        {
          "internalType": "uint256",
          "name": "",
          "type": "uint256"
        }
      ],
      "stateMutability": "view",
      "type": "function"
    },
    {
      "inputs": [
        {
          "internalType": "address",
          "name": "to",
          "type": "address"
        },
        {
          "internalType": "uint256",
          "name": "amount",
          "type": "uint256"
        }
      ],
      "name": "transfer",
      "outputs": [
        {
          "internalType": "bool",
          "name": "",
          "type": "bool"
        }
      ],
      "stateMutability": "nonpayable",
      "type": "function"
    },
    {
      "inputs": [
        {
          "internalType": "address",
          "name": "from",
          "type": "address"
        },
        {
          "internalType": "address",
          "name": "to",
          "type": "address"
        },
        {
          "internalType": "uint256",
          "name": "amount",
          "type": "uint256"
        }
      ],
      "name": "transferFrom",
      "outputs": [
        {
          "internalType": "bool",
          "name": "",
          "type": "bool"
        }
      ],
      "stateMutability": "nonpayable",
      "type": "function"
    }
  ],
  "bytecode": {
    "object": "0x60806040523480156200001157600080fd5b506200001c62000022565b620000e4565b602b54610100900460ff16156200008f5760405162461bcd60e51b815260206004820152602760248201527f496e697469616c697a61626c653a20636f6e747261637420697320696e697469604482015266616c697a696e6760c81b606482015260840160405180910390fd5b602b5460ff9081161015620000e257602b805460ff191660ff9081179091556040519081527f7f26b83ff96e1f2b6a682f133852f6798a09c465da95921460cefb38474024989060200160405180910390a15b565b61325b80620000f46000396000f3fe608060405234801561001057600080fd5b50600436106102315760003560e01c80634702a08411610130578063a457c2d7116100b8578063cc1a378f1161007c578063cc1a378f1461038c578063cd3daf9d14610429578063d505accf1461047a578063dd62ed3e1461048d578063f5eb42dc146104a057600080fd5b8063a457c2d714610441578063a9059cbb14610454578063b3d7f6b914610467578063b88a802f14610429578063c6e6f5921461029d57600080fd5b80637d098e64116100ff5780637d098e64146103e95780637ecebe001461041657806380faa57d1461042957806395d89b4114610430578063a01c87741461043857600080fd5b80634702a0841461039d5780634cdad506146103b057806370a08231146103c357806370a25869146103d657600080fd5b80632016a0d2116101be5780633644e515116101825780633644e5151461034e57806338d52e0f1461035657806339509351146103715780633a98ef39146103845780633c6b16ab1461038c57600080fd5b80632016a0d2146102f157806323b872dd14610306578063313ce5671461031957806332e5069014610328578063361032911461033b57600080fd5b80630a28a477116102055780630a28a4771461029d5780630ba097d6146102b05780630cae37f1146102c357806318160ddd146102d65780631dc7f521146102de57600080fd5b80628cc2621461023657806301e1d1141461025d57806306fdde0314610265578063095ea7b31461027a575b600080fd5b61024a6102443660046125dc565b50600090565b6040519081526020015b60405180910390f35b61024a6104c9565b61026d6104de565b6040516102549190612649565b61028d61028836600461265c565b610570565b6040519015158152602001610254565b61024a6102ab366004612688565b610587565b61024a6102be366004612742565b610592565b61024a6102d1366004612742565b610974565b61024a610b5c565b61024a6102ec366004612688565b610bb1565b6103046102ff3660046127c8565b610c41565b005b61028d610314366004612851565b610e3f565b60405160128152602001610254565b61024a6103363660046125dc565b610e62565b61024a610349366004612892565b610e84565b61024a610e90565b6061546040516001600160a01b039091168152602001610254565b61028d61037f36600461265c565b610e9a565b61024a610ebb565b61030461039a366004612688565b50565b61024a6103ab366004612892565b610ecc565b61024a6103be366004612688565b610ed8565b61024a6103d13660046125dc565b610ee3565b61024a6103e4366004612688565b610f06565b6040805160008082526020820181905291810182905260608101829052608081019190915260a001610254565b61024a6104243660046125dc565b610f3a565b600061024a565b61026d610f58565b61024a60685481565b61028d61044f36600461265c565b610f67565b61028d61046236600461265c565b610fa4565b61024a610475366004612688565b610fb1565b6103046104883660046128c6565b610fbc565b61024a61049b366004612937565b6110de565b61024a6104ae3660046125dc565b6001600160a01b031660009081526063602052604090205490565b6062546000906104d99082611109565b905090565b6060606680546104ed90612965565b80601f016020809104026020016040519081016040528092919081815260200182805461051990612965565b80156105665780601f1061053b57610100808354040283529160200191610566565b820191906000526020600020905b81548152906001019060200180831161054957829003601f168201915b5050505050905090565b600061057d338484611143565b5060015b92915050565b6000610581826111f2565b60605460009082906001600160a01b03168015610608576040516241fec360e31b81526001600160a01b03838116600483015282169063020ff61890602401600060405180830381600087803b1580156105eb57600080fd5b505af11580156105ff573d6000803e3d6000fd5b5050505061064c565b6000601a5560006018556001600160a01b0382161561064c576001600160a01b0382166000908152601e60209081526040808320839055601a54601d909252909120555b6000858060200190518101906106629190612a2e565b5090506000610686866001600160a01b031660009081526063602052604090205490565b90506000610698836000015188610ecc565b90506106b26040518060200160405280600081525061120f565b6106e46040518060400160405280600c81526020016b037bd20b6b7bab73a24b71d160a51b8152508460000151611252565b6107156040518060400160405280600f81526020016e030b1b1b7bab73a29b430b932b99d1608d1b81525083611252565b61073f60405180604001604052806008815260200167039b430b932b99d160c51b81525082611252565b6107576040518060200160405280600081525061120f565b8082101561079657604051637ac073bf60e01b81526001600160a01b038816600482015260248101839052604481018290526064015b60405180910390fd5b60408051602081019091526000815281906107b09061120f565b6107e760405180604001604052806015815260200174030b9b9b2ba39902f2f2f2f2f2f2f2f2f2f2f2f1d1605d1b81525082611252565b60006107f283610ed8565b905061081f60405180604001604052806009815260200168030b9b9b2ba39991d160bd1b81525082611252565b6108376040518060200160405280600081525061120f565b6060546040516314370d6760e31b81526001600160a01b039091169063a1b86b3890610869908c908e90600401612ad3565b60408051808303816000875af19250505080156108a3575060408051601f3d908101601f191682019092526108a091810190612af7565b60015b6108f5576108af612b1b565b806308c379a0036108e957506108c3612b37565b806108ce57506108eb565b80604051631bc63b8160e01b815260040161078d9190612649565b505b3d6000803e3d6000fd5b61090082600061129b565b6060546001600160a01b031660009081526063602052604090205495506109298487600061130b565b6060546001600160a01b039081166000908152606360209081526040808320839055928e16825260699052208054949094039093555090965061096c9350505050565b505092915050565b60605460009082906001600160a01b031680156109ea576040516241fec360e31b81526001600160a01b03838116600483015282169063020ff61890602401600060405180830381600087803b1580156109cd57600080fd5b505af11580156109e1573d6000803e3d6000fd5b50505050610a2e565b6000601a5560006018556001600160a01b03821615610a2e576001600160a01b0382166000908152601e60209081526040808320839055601a54601d909252909120555b60008086806020019051810190610a459190612bc1565b6068548251929450909250600091610a5c91611369565b6060549091506001600160a01b0316639ea04fe4610a826061546001600160a01b031690565b89866040518463ffffffff1660e01b8152600401610aa293929190612c5a565b6020604051808303816000875af1925050508015610add575060408051601f3d908101601f19168201909252610ada91810190612cd3565b60015b610ae9576108af612b1b565b610af481600161129b565b6000610afe610ebb565b15610b1157610b0c83610fb1565b610b13565b825b9050610b218382600161130b565b6001600160a01b03909316600090815260636020908152604080832080548701905560699091529020805490920190915550935061096c9050565b6000610b66610ebb565b1561024457610b7b610b76610ebb565b611375565b610b836104c9565b610b929064e8d4a51000612d02565b610b9c9190612d2f565b610ba7610b76610ebb565b6104d99190612d02565b6000610bbb610ebb565b60605460405163a4fc284b60e01b81526001600160a01b039091169063a4fc284b90610bec90600190600401612d59565b602060405180830381865afa158015610c09573d6000803e3d6000fd5b505050506040513d601f19601f82011682018060405250810190610c2d9190612cd3565b610c379084612d02565b6105819190612d2f565b602b54610100900460ff1615808015610c615750602b54600160ff909116105b80610c7b5750303b158015610c7b5750602b5460ff166001145b610cde5760405162461bcd60e51b815260206004820152602e60248201527f496e697469616c697a61626c653a20636f6e747261637420697320616c72656160448201526d191e481a5b9a5d1a585b1a5e995960921b606482015260840161078d565b602b805460ff191660011790558015610d0157602b805461ff0019166101001790555b6066610d0d8482612dcc565b506067610d1a8382612dcc565b50606080546001600160a01b038087166001600160a01b03199283161790925560618054928816929091169190911790556040805180820190915260018152603160f81b6020820152610d6e9084906113ef565b846001600160a01b031663313ce5676040518163ffffffff1660e01b8152600401602060405180830381865afa158015610dac573d6000803e3d6000fd5b505050506040513d601f19601f82011682018060405250810190610dd09190612e8c565b60ff16601214610de1576001610de8565b64e8d4a510005b64ffffffffff166068558015610e3857602b805461ff0019169055604051600181527f7f26b83ff96e1f2b6a682f133852f6798a09c465da95921460cefb38474024989060200160405180910390a15b5050505050565b6000610e4c843384611420565b610e5784848461146e565b5060015b9392505050565b6001600160a01b03811660009081526063602052604081205461058190611375565b6000610e5b838361159f565b60006104d961161f565b600061057d338484610eac33886110de565b610eb69190612ea9565b611143565b6062546000906104d9906001611109565b6000610e5b838361169a565b600061058182610f06565b6001600160a01b0381166000908152606360205260408120546105819083610e84565b60008082610f12610ebb565b610f1c9190612ebc565b9050610e5b610f2961171d565b610f3285611375565b85919061173b565b6001600160a01b038116600090815260646020526040812054610581565b6060606780546104ed90612965565b600080610f7433856110de565b905082811015610f97576040516361ceb1d360e01b815260040160405180910390fd5b610e573385858403611143565b600061057d33848461146e565b600061058182611759565b83421115610fe65760405163184f1e0160e11b81526004810185905242602482015260440161078d565b60007f6e71edae12b1b97f4d1f60370fef10105fa2faae0126114a169c64845d6126c98888886110158c611776565b6040805160208101969096526001600160a01b0394851690860152929091166060840152608083015260a082015260c0810186905260e00160405160208183030381529060405280519060200120905060006110708261179e565b90506000611080828787876117ec565b9050896001600160a01b0316816001600160a01b0316146110c757604051635091bef560e01b81526001600160a01b0380831660048301528b16602482015260440161078d565b6110d28a8a8a611143565b50505050505050505050565b6001600160a01b03918216600090815260656020908152604080832093909416825291909152205490565b60006001600160801b038183600181111561112657611126612d43565b146111335783811661113b565b608084901c81165b949350505050565b6001600160a01b038316158061116057506001600160a01b038216155b1561119157604051637db368a160e01b81526001600160a01b0380851660048301528316602482015260440161078d565b6001600160a01b0383811660008181526065602090815260408083209487168084529482529182902085905590518481527f8c5be1e5ebec7d5bd14f71427d1e84f3dd0314c0f7b2291e5b200ac8c7c3b925910160405180910390a3505050565b60006105816111ff610ebb565b61120761171d565b849190611814565b61039a816040516024016112239190612649565b60408051601f198184030181529190526020810180516001600160e01b031663104c13eb60e21b17905261183a565b6112978282604051602401611268929190612ecf565b60408051601f198184030181529190526020810180516001600160e01b03166309710a9d60e41b17905261183a565b5050565b60605460405163b0ff97b560e01b81523060048201526024810184905282151560448201526001600160a01b039091169063b0ff97b590606401600060405180830381600087803b1580156112ef57600080fd5b505af1158015611303573d6000803e3d6000fd5b505050505050565b60625460009061131b9082611109565b90506000611335600160625461110990919063ffffffff16565b9050821561134857908401908301611351565b90849003908390035b61135f81608084901b612ea9565b6062555050505050565b6000610e5b8284612d2f565b60008061138061171d565b905073ae78736cd615f374d3085123a210448e74fc639373c02aaa39b223fe8d0a0e5c4f27ead9083c756cc260006113bb838361070861185b565b90506113e5816113c9610ebb565b156113db576113d6610ebb565b6113dd565b825b88919061173b565b9695505050505050565b602b54610100900460ff166114165760405162461bcd60e51b815260040161078d90612ef1565b6112978282611a14565b600061142c84846110de565b90506000198114611468578181101561145b576040516306052b7f60e01b81526004810183905260240161078d565b6114688484848403611143565b50505050565b6001600160a01b038316158061148b57506001600160a01b038216155b156114bc57604051637db368a160e01b81526001600160a01b0380851660048301528316602482015260440161078d565b60006114c784611a55565b6114d083610587565b6114da9190612d2f565b6001600160a01b03851660009081526063602052604090205490915081811015611530576040516315c29bad60e31b81526001600160a01b0386166004820152602481018290526044810183905260640161078d565b6001600160a01b0380861660008181526063602052604080822086860390559287168082529083902080548601905591517fddf252ad1be2c89b69c2b068fc378daa952ba7f163c4a11628f55a4df523b3ef906115909087815260200190565b60405180910390a35050505050565b6000806115ab84611375565b905060006115c76040518060200160405280600081525061120f565b81156115d9576115d684611a55565b90505b600082156115f9576115f48383670de0b6b3a764000061173b565b6115fc565b60005b90506116166040518060200160405280600081525061120f565b95945050505050565b60006104d97f8b73c3c69bb8fe3d512ecc4cf759cc79239f7b179b0ffacaa9a75d522b39400f61164e602c5490565b602d546040805160208101859052908101839052606081018290524660808201523060a082015260009060c0016040516020818303038152906040528051906020012090509392505050565b600073ae78736cd615f374d3085123a210448e74fc639373c02aaa39b223fe8d0a0e5c4f27ead9083c756cc2826116d085611a55565b905060006116e08484600a61185b565b9050816116f66116ee610ebb565b899084611814565b61170890670de0b6b3a7640000612d02565b6117129190612d2f565b979650505050505050565b6060546000906001600160a01b031661173581611b10565b91505090565b600082600019048411830215820261175257600080fd5b5091020490565b6000610581611766610ebb565b61176e6104c9565b84919061173b565b6001600160a01b03811660009081526064602052604090208054600181018255905b50919050565b60006105816117ab61161f565b8360405161190160f01b6020820152602281018390526042810182905260009060620160405160208183030381529060405280519060200120905092915050565b60008060006117fd87878787611b5c565b9150915061180a81611c49565b5095945050505050565b600082600019048411830215820261182b57600080fd5b50910281810615159190040190565b80516a636f6e736f6c652e6c6f67602083016000808483855afa5050505050565b60408051600280825260608201835260009273a4e0faa58465a2d369aa21b3e42d43374c6f9613928492909160208301908036833701905050905083816000815181106118aa576118aa612f3c565b602002602001019063ffffffff16908163ffffffff16815250506000816001815181106118d9576118d9612f3c565b63ffffffff9092166020928302919091019091015260405163883bdbfd60e01b81526000906001600160a01b0384169063883bdbfd9061191d908590600401612f52565b600060405180830381865afa15801561193a573d6000803e3d6000fd5b505050506040513d6000823e601f3d908101601f19168201604052611962919081019061300b565b50905060008160008151811061197a5761197a612f3c565b60200260200101518260018151811061199557611995612f3c565b60200260200101516119a791906130e2565b905060006119b9600388900b8361310f565b905060008260060b1280156119dd57506119d7600388900b8361314d565b60060b15155b156119f057806119ec8161316f565b9150505b6000611a0682670de0b6b3a76400008c8c611dff565b9a9950505050505050505050565b602b54610100900460ff16611a3b5760405162461bcd60e51b815260040161078d90612ef1565b815160209283012081519190920120602c91909155602d55565b600073ae78736cd615f374d3085123a210448e74fc639373c02aaa39b223fe8d0a0e5c4f27ead9083c756cc282611a9083836201518061185b565b90506000611ad582611aa0610ebb565b15611ab257611aad610ebb565b611ab4565b835b6001600160a01b0389166000908152606360205260409020545b919061173b565b6001600160a01b0387166000908152606960205260409020549091506113e590670de0b6b3a7640000908390611ace9064e8d4a51000612d02565b6040805160048152602481019091526020810180516001600160e01b0316636a57db9d60e11b179052600090611b468382611f0d565b905080806020019051810190610e5b9190612cd3565b6000807f7fffffffffffffffffffffffffffffff5d576e7357a4501ddfe92f46681b20a0831115611b935750600090506003611c40565b8460ff16601b14158015611bab57508460ff16601c14155b15611bbc5750600090506004611c40565b6040805160008082526020820180845289905260ff881692820192909252606081018690526080810185905260019060a0016020604051602081039080840390855afa158015611c10573d6000803e3d6000fd5b5050604051601f1901519150506001600160a01b038116611c3957600060019250925050611c40565b9150600090505b94509492505050565b6000816004811115611c5d57611c5d612d43565b03611c655750565b6001816004811115611c7957611c79612d43565b03611cc65760405162461bcd60e51b815260206004820152601860248201527f45434453413a20696e76616c6964207369676e61747572650000000000000000604482015260640161078d565b6002816004811115611cda57611cda612d43565b03611d275760405162461bcd60e51b815260206004820152601f60248201527f45434453413a20696e76616c6964207369676e6174757265206c656e67746800604482015260640161078d565b6003816004811115611d3b57611d3b612d43565b03611d935760405162461bcd60e51b815260206004820152602260248201527f45434453413a20696e76616c6964207369676e6174757265202773272076616c604482015261756560f01b606482015260840161078d565b6004816004811115611da757611da7612d43565b0361039a5760405162461bcd60e51b815260206004820152602260248201527f45434453413a20696e76616c6964207369676e6174757265202776272076616c604482015261756560f01b606482015260840161078d565b600080611e0b86611f32565b90506001600160801b036001600160a01b03821611611e91576000611e396001600160a01b03831680612d02565b9050836001600160a01b0316856001600160a01b031610611e7157611e6c600160c01b876001600160801b03168361234a565b611e89565b611e8981876001600160801b0316600160c01b61234a565b925050611f04565b6000611eb06001600160a01b038316806801000000000000000061234a565b9050836001600160a01b0316856001600160a01b031610611ee857611ee3600160801b876001600160801b03168361234a565b611f00565b611f0081876001600160801b0316600160801b61234a565b9250505b50949350505050565b6060610e5b8383604051806060016040528060258152602001613201602591396124c0565b60008060008360020b12611f49578260020b611f56565b8260020b611f5690613192565b9050611f65620d89e7196131ae565b60020b811115611f9b5760405162461bcd60e51b81526020600482015260016024820152601560fa1b604482015260640161078d565b600081600116600003611fb257600160801b611fc4565b6ffffcb933bd6fad37aa2d162d1a5940015b70ffffffffffffffffffffffffffffffffff1690506002821615612003576080611ffe826ffff97272373d413259a46990580e213a612d02565b901c90505b600482161561202d576080612028826ffff2e50f5f656932ef12357cf3c7fdcc612d02565b901c90505b6008821615612057576080612052826fffe5caca7e10e4e61c3624eaa0941cd0612d02565b901c90505b601082161561208157608061207c826fffcb9843d60f6159c9db58835c926644612d02565b901c90505b60208216156120ab5760806120a6826fff973b41fa98c081472e6896dfb254c0612d02565b901c90505b60408216156120d55760806120d0826fff2ea16466c96a3843ec78b326b52861612d02565b901c90505b60808216156120ff5760806120fa826ffe5dee046a99a2a811c461f1969c3053612d02565b901c90505b61010082161561212a576080612125826ffcbe86c7900a88aedcffc83b479aa3a4612d02565b901c90505b610200821615612155576080612150826ff987a7253ac413176f2b074cf7815e54612d02565b901c90505b61040082161561218057608061217b826ff3392b0822b70005940c7a398e4b70f3612d02565b901c90505b6108008216156121ab5760806121a6826fe7159475a2c29b7443b29c7fa6e889d9612d02565b901c90505b6110008216156121d65760806121d1826fd097f3bdfd2022b8845ad8f792aa5825612d02565b901c90505b6120008216156122015760806121fc826fa9f746462d870fdf8a65dc1f90e061e5612d02565b901c90505b61400082161561222c576080612227826f70d869a156d2a1b890bb3df62baf32f7612d02565b901c90505b618000821615612257576080612252826f31be135f97d08fd981231505542fcfa6612d02565b901c90505b6201000082161561228357608061227e826f09aa508b5b7a84e1c677de54f3e99bc9612d02565b901c90505b620200008216156122ae5760806122a9826e5d6af8dedb81196699c329225ee604612d02565b901c90505b620400008216156122d85760806122d3826d2216e584f5fa1ea926041bedfe98612d02565b901c90505b620800008216156123005760806122fb826b048a170391f7dc42444e8fa2612d02565b901c90505b60008460020b131561231b5761231881600019612d2f565b90505b61232a640100000000826131d0565b15612336576001612339565b60005b61113b9060ff16602083901c612ea9565b6000808060001985870985870292508281108382030391505080600003612383576000841161237857600080fd5b508290049050610e5b565b80841161238f57600080fd5b6000848688098084039381119092039190506000856123ad81613192565b169586900495938490049360008190030460010190506123cd8184612d02565b9093179260006123de876003612d02565b60021890506123ed8188612d02565b6123f8906002612ebc565b6124029082612d02565b905061240e8188612d02565b612419906002612ebc565b6124239082612d02565b905061242f8188612d02565b61243a906002612ebc565b6124449082612d02565b90506124508188612d02565b61245b906002612ebc565b6124659082612d02565b90506124718188612d02565b61247c906002612ebc565b6124869082612d02565b90506124928188612d02565b61249d906002612ebc565b6124a79082612d02565b90506124b38186612d02565b9998505050505050505050565b6060600080856001600160a01b0316856040516124dd91906131e4565b600060405180830381855afa9150503d8060008114612518576040519150601f19603f3d011682016040523d82523d6000602084013e61251d565b606091505b50915091506113e58683838760608315612598578251600003612591576001600160a01b0385163b6125915760405162461bcd60e51b815260206004820152601d60248201527f416464726573733a2063616c6c20746f206e6f6e2d636f6e7472616374000000604482015260640161078d565b508161113b565b61113b83838151156125ad5781518083602001fd5b8060405162461bcd60e51b815260040161078d9190612649565b6001600160a01b038116811461039a57600080fd5b6000602082840312156125ee57600080fd5b8135610e5b816125c7565b60005b838110156126145781810151838201526020016125fc565b50506000910152565b600081518084526126358160208601602086016125f9565b601f01601f19169290920160200192915050565b602081526000610e5b602083018461261d565b6000806040838503121561266f57600080fd5b823561267a816125c7565b946020939093013593505050565b60006020828403121561269a57600080fd5b5035919050565b634e487b7160e01b600052604160045260246000fd5b601f8201601f1916810167ffffffffffffffff811182821017156126dd576126dd6126a1565b6040525050565b600067ffffffffffffffff8311156126fe576126fe6126a1565b604051612715601f8501601f1916602001826126b7565b80915083815284848401111561272a57600080fd5b83836020830137600060208583010152509392505050565b6000806040838503121561275557600080fd5b823567ffffffffffffffff81111561276c57600080fd5b8301601f8101851361277d57600080fd5b61278c858235602084016126e4565b925050602083013561279d816125c7565b809150509250929050565b600082601f8301126127b957600080fd5b610e5b838335602085016126e4565b600080600080608085870312156127de57600080fd5b84356127e9816125c7565b935060208501356127f9816125c7565b9250604085013567ffffffffffffffff8082111561281657600080fd5b612822888389016127a8565b9350606087013591508082111561283857600080fd5b50612845878288016127a8565b91505092959194509250565b60008060006060848603121561286657600080fd5b8335612871816125c7565b92506020840135612881816125c7565b929592945050506040919091013590565b600080604083850312156128a557600080fd5b82359150602083013561279d816125c7565b60ff8116811461039a57600080fd5b600080600080600080600060e0888a0312156128e157600080fd5b87356128ec816125c7565b965060208801356128fc816125c7565b95506040880135945060608801359350608088013561291a816128b7565b9699959850939692959460a0840135945060c09093013592915050565b6000806040838503121561294a57600080fd5b8235612955816125c7565b9150602083013561279d816125c7565b600181811c9082168061297957607f821691505b60208210810361179857634e487b7160e01b600052602260045260246000fd5b600067ffffffffffffffff8211156129b3576129b36126a1565b5060051b60200190565b600082601f8301126129ce57600080fd5b815160206129db82612999565b6040516129e882826126b7565b83815260059390931b8501820192828101915086841115612a0857600080fd5b8286015b84811015612a235780518352918301918301612a0c565b509695505050505050565b60008060408385031215612a4157600080fd5b825167ffffffffffffffff80821115612a5957600080fd5b9084019060608287031215612a6d57600080fd5b604051606081018181108382111715612a8857612a886126a1565b80604052508251815260208301516020820152604083015182811115612aad57600080fd5b612ab9888286016129bd565b604083015250809450505050602083015161279d816125c7565b6001600160a01b038316815260406020820181905260009061113b9083018461261d565b60008060408385031215612b0a57600080fd5b505080516020909101519092909150565b600060033d1115612b345760046000803e5060005160e01c5b90565b600060443d1015612b455790565b6040516003193d81016004833e81513d67ffffffffffffffff8160248401118184111715612b7557505050505090565b8285019150815181811115612b8d5750505050505090565b843d8701016020828501011115612ba75750505050505090565b612bb6602082860101876126b7565b509095945050505050565b60008060408385031215612bd457600080fd5b825167ffffffffffffffff80821115612bec57600080fd5b9084019060408287031215612c0057600080fd5b604051604081018181108382111715612c1b57612c1b6126a1565b60405282518152602083015182811115612c3457600080fd5b612c40888286016129bd565b602083015250809450505050602083015161279d816125c7565b600060018060a01b0380861683526020818616818501526060604085015260a08401915084516060850152808501516040608086015282815180855260c0870191508383019450600092505b80831015612cc65784518252938301936001929092019190830190612ca6565b5098975050505050505050565b600060208284031215612ce557600080fd5b5051919050565b634e487b7160e01b600052601160045260246000fd5b808202811582820484141761058157610581612cec565b634e487b7160e01b600052601260045260246000fd5b600082612d3e57612d3e612d19565b500490565b634e487b7160e01b600052602160045260246000fd5b6020810160028310612d7b57634e487b7160e01b600052602160045260246000fd5b91905290565b601f821115612dc757600081815260208120601f850160051c81016020861015612da85750805b601f850160051c820191505b8181101561130357828155600101612db4565b505050565b815167ffffffffffffffff811115612de657612de66126a1565b612dfa81612df48454612965565b84612d81565b602080601f831160018114612e2f5760008415612e175750858301515b600019600386901b1c1916600185901b178555611303565b600085815260208120601f198616915b82811015612e5e57888601518255948401946001909101908401612e3f565b5085821015612e7c5787850151600019600388901b60f8161c191681555b5050505050600190811b01905550565b600060208284031215612e9e57600080fd5b8151610e5b816128b7565b8082018082111561058157610581612cec565b8181038181111561058157610581612cec565b604081526000612ee2604083018561261d565b90508260208301529392505050565b6020808252602b908201527f496e697469616c697a61626c653a20636f6e7472616374206973206e6f74206960408201526a6e697469616c697a696e6760a81b606082015260800190565b634e487b7160e01b600052603260045260246000fd5b6020808252825182820181905260009190848201906040850190845b81811015612f9057835163ffffffff1683529284019291840191600101612f6e565b50909695505050505050565b600082601f830112612fad57600080fd5b81516020612fba82612999565b604051612fc782826126b7565b83815260059390931b8501820192828101915086841115612fe757600080fd5b8286015b84811015612a23578051612ffe816125c7565b8352918301918301612feb565b6000806040838503121561301e57600080fd5b825167ffffffffffffffff8082111561303657600080fd5b818501915085601f83011261304a57600080fd5b8151602061305782612999565b60405161306482826126b7565b83815260059390931b850182019282810191508984111561308457600080fd5b948201945b838610156130b25785518060060b81146130a35760008081fd5b82529482019490820190613089565b918801519196509093505050808211156130cb57600080fd5b506130d885828601612f9c565b9150509250929050565b600682810b9082900b03667fffffffffffff198112667fffffffffffff8213171561058157610581612cec565b60008160060b8360060b8061312657613126612d19565b667fffffffffffff1982146000198214161561314457613144612cec565b90059392505050565b60008260060b8061316057613160612d19565b808360060b0791505092915050565b60008160020b627fffff19810361318857613188612cec565b6000190192915050565b6000600160ff1b82016131a7576131a7612cec565b5060000390565b60008160020b627fffff1981036131c7576131c7612cec565b60000392915050565b6000826131df576131df612d19565b500690565b600082516131f68184602087016125f9565b919091019291505056fe416464726573733a206c6f772d6c6576656c207374617469632063616c6c206661696c6564a2646970667358221220526abd9fadac3686e075e7bafd1e1228f9838f68930de41458706d76277ba0ee64736f6c63430008150033",
    "linkReferences": {}
  },
  "methodIdentifiers": {
    "DOMAIN_SEPARATOR()": "3644e515",
    "FORMAT_DECIMALS()": "a01c8774",
    "_convertToAssetsFromUnderlying(uint256)": "70a25869",
    "allowance(address,address)": "dd62ed3e",
    "approve(address,uint256)": "095ea7b3",
    "asset()": "38d52e0f",
    "balanceOf(address)": "70a08231",
    "claimReward()": "b88a802f",
    "convertToAssets(uint256,address)": "36103291",
    "convertToShares(uint256)": "c6e6f592",
    "convertToUnderlying(uint256)": "1dc7f521",
    "decimals()": "313ce567",
    "decreaseAllowance(address,uint256)": "a457c2d7",
    "earned(address)": "008cc262",
    "getRewardsData()": "7d098e64",
    "increaseAllowance(address,uint256)": "39509351",
    "initialize(address,address,string,string)": "2016a0d2",
    "lastTimeRewardApplicable()": "80faa57d",
    "mint(bytes,address)": "0cae37f1",
    "name()": "06fdde03",
    "nonces(address)": "7ecebe00",
    "notifyRewardAmount(uint256)": "3c6b16ab",
    "permit(address,address,uint256,uint256,uint8,bytes32,bytes32)": "d505accf",
    "previewMint(uint256)": "b3d7f6b9",
    "previewRedeem(uint256)": "4cdad506",
    "previewWithdraw(uint256)": "0a28a477",
    "redeem(bytes,address)": "0ba097d6",
    "rewardPerToken()": "cd3daf9d",
    "setRewardsDuration(uint256)": "cc1a378f",
    "sharesOf(address)": "f5eb42dc",
    "subBalanceOf(address)": "32e50690",
    "subConvertToShares(uint256,address)": "4702a084",
    "symbol()": "95d89b41",
    "totalAssets()": "01e1d114",
    "totalShares()": "3a98ef39",
    "totalSupply()": "18160ddd",
    "transfer(address,uint256)": "a9059cbb",
    "transferFrom(address,address,uint256)": "23b872dd"
  },
  "id": 45
}