{
  "abi": [
    {
      "inputs": [],
      "stateMutability": "nonpayable",
      "type": "constructor"
    },
    {
      "inputs": [
        {
          "internalType": "address",
          "name": "sender",
          "type": "address"
        },
        {
          "internalType": "uint256",
          "name": "shares",
          "type": "uint256"
        },
        {
          "internalType": "uint256",
          "name": "sharesNeeded",
          "type": "uint256"
        }
      ],
      "name": "ERC20InsufficientBalance",
      "type": "error"
    },
    {
      "inputs": [
        {
          "internalType": "address",
          "name": "receiver",
          "type": "address"
        }
      ],
      "name": "ERC20InvalidReceiver",
      "type": "error"
    },
    {
      "inputs": [
        {
          "internalType": "address",
          "name": "sender",
          "type": "address"
        }
      ],
      "name": "ERC20InvalidSender",
      "type": "error"
    },
    {
      "inputs": [
        {
          "internalType": "uint256",
          "name": "deadline",
          "type": "uint256"
        },
        {
          "internalType": "uint256",
          "name": "blockTimestamp",
          "type": "uint256"
        }
      ],
      "name": "ERC2612ExpiredDeadline",
      "type": "error"
    },
    {
      "inputs": [
        {
          "internalType": "address",
          "name": "owner",
          "type": "address"
        },
        {
          "internalType": "address",
          "name": "spender",
          "type": "address"
        }
      ],
      "name": "ERC2612InvalidSignature",
      "type": "error"
    },
    {
      "inputs": [
        {
          "internalType": "address",
          "name": "sender",
          "type": "address"
        },
        {
          "internalType": "uint256",
          "name": "shares",
          "type": "uint256"
        },
        {
          "internalType": "uint256",
          "name": "sharesNeeded",
          "type": "uint256"
        }
      ],
      "name": "USDMInsufficientBurnBalance",
      "type": "error"
    },
    {
      "anonymous": false,
      "inputs": [
        {
          "indexed": true,
          "internalType": "address",
          "name": "owner",
          "type": "address"
        },
        {
          "indexed": true,
          "internalType": "address",
          "name": "spender",
          "type": "address"
        },
        {
          "indexed": false,
          "internalType": "uint256",
          "name": "value",
          "type": "uint256"
        }
      ],
      "name": "Approval",
      "type": "event"
    },
    {
      "anonymous": false,
      "inputs": [
        {
          "indexed": false,
          "internalType": "uint8",
          "name": "version",
          "type": "uint8"
        }
      ],
      "name": "Initialized",
      "type": "event"
    },
    {
      "anonymous": false,
      "inputs": [
        {
          "indexed": true,
          "internalType": "address",
          "name": "from",
          "type": "address"
        },
        {
          "indexed": true,
          "internalType": "address",
          "name": "to",
          "type": "address"
        },
        {
          "indexed": false,
          "internalType": "uint256",
          "name": "value",
          "type": "uint256"
        }
      ],
      "name": "Transfer",
      "type": "event"
    },
    {
      "inputs": [],
      "name": "DOMAIN_SEPARATOR",
      "outputs": [
        {
          "internalType": "bytes32",
          "name": "",
          "type": "bytes32"
        }
      ],
      "stateMutability": "view",
      "type": "function"
    },
    {
      "inputs": [
        {
          "internalType": "address",
          "name": "owner",
          "type": "address"
        },
        {
          "internalType": "address",
          "name": "spender",
          "type": "address"
        }
      ],
      "name": "allowance",
      "outputs": [
        {
          "internalType": "uint256",
          "name": "",
          "type": "uint256"
        }
      ],
      "stateMutability": "view",
      "type": "function"
    },
    {
      "inputs": [
        {
          "internalType": "address",
          "name": "spender",
          "type": "address"
        },
        {
          "internalType": "uint256",
          "name": "amount",
          "type": "uint256"
        }
      ],
      "name": "approve",
      "outputs": [
        {
          "internalType": "bool",
          "name": "",
          "type": "bool"
        }
      ],
      "stateMutability": "nonpayable",
      "type": "function"
    },
    {
      "inputs": [],
      "name": "asset",
      "outputs": [
        {
          "internalType": "address",
          "name": "",
          "type": "address"
        }
      ],
      "stateMutability": "view",
      "type": "function"
    },
    {
      "inputs": [
        {
          "internalType": "address",
          "name": "account_",
          "type": "address"
        }
      ],
      "name": "balanceOf",
      "outputs": [
        {
          "internalType": "uint256",
          "name": "",
          "type": "uint256"
        }
      ],
      "stateMutability": "view",
      "type": "function"
    },
    {
      "inputs": [
        {
          "components": [
            {
              "internalType": "uint256",
              "name": "ozAmountIn",
              "type": "uint256"
            },
            {
              "internalType": "uint256",
              "name": "minWethOut",
              "type": "uint256"
            },
            {
              "internalType": "uint256",
              "name": "bptAmountIn",
              "type": "uint256"
            },
            {
              "internalType": "uint256",
              "name": "minUsdcOut",
              "type": "uint256"
            }
          ],
          "internalType": "struct AmountsOut",
          "name": "amts_",
          "type": "tuple"
        },
        {
          "internalType": "address",
          "name": "receiver_",
          "type": "address"
        }
      ],
      "name": "burn",
      "outputs": [
        {
          "internalType": "uint256",
          "name": "",
          "type": "uint256"
        }
      ],
      "stateMutability": "nonpayable",
      "type": "function"
    },
    {
      "inputs": [
        {
          "internalType": "uint256",
          "name": "shares",
          "type": "uint256"
        }
      ],
      "name": "convertToAssets",
      "outputs": [
        {
          "internalType": "uint256",
          "name": "assets",
          "type": "uint256"
        }
      ],
      "stateMutability": "view",
      "type": "function"
    },
    {
      "inputs": [
        {
          "internalType": "uint256",
          "name": "assets",
          "type": "uint256"
        }
      ],
      "name": "convertToShares",
      "outputs": [
        {
          "internalType": "uint256",
          "name": "shares",
          "type": "uint256"
        }
      ],
      "stateMutability": "view",
      "type": "function"
    },
    {
      "inputs": [
        {
          "internalType": "uint256",
          "name": "shares_",
          "type": "uint256"
        }
      ],
      "name": "convertToUnderlying",
      "outputs": [
        {
          "internalType": "uint256",
          "name": "amountUnderlying",
          "type": "uint256"
        }
      ],
      "stateMutability": "view",
      "type": "function"
    },
    {
      "inputs": [],
      "name": "decimals",
      "outputs": [
        {
          "internalType": "uint8",
          "name": "",
          "type": "uint8"
        }
      ],
      "stateMutability": "view",
      "type": "function"
    },
    {
      "inputs": [
        {
          "internalType": "address",
          "name": "spender",
          "type": "address"
        },
        {
          "internalType": "uint256",
          "name": "subtractedValue",
          "type": "uint256"
        }
      ],
      "name": "decreaseAllowance",
      "outputs": [
        {
          "internalType": "bool",
          "name": "",
          "type": "bool"
        }
      ],
      "stateMutability": "nonpayable",
      "type": "function"
    },
    {
      "inputs": [
        {
          "internalType": "address",
          "name": "spender",
          "type": "address"
        },
        {
          "internalType": "uint256",
          "name": "addedValue",
          "type": "uint256"
        }
      ],
      "name": "increaseAllowance",
      "outputs": [
        {
          "internalType": "bool",
          "name": "",
          "type": "bool"
        }
      ],
      "stateMutability": "nonpayable",
      "type": "function"
    },
    {
      "inputs": [
        {
          "internalType": "address",
          "name": "underlying_",
          "type": "address"
        },
        {
          "internalType": "address",
          "name": "diamond_",
          "type": "address"
        },
        {
          "internalType": "string",
          "name": "name_",
          "type": "string"
        },
        {
          "internalType": "string",
          "name": "symbol_",
          "type": "string"
        }
      ],
      "name": "initialize",
      "outputs": [],
      "stateMutability": "nonpayable",
      "type": "function"
    },
    {
      "inputs": [
        {
          "internalType": "address",
          "name": "",
          "type": "address"
        }
      ],
      "name": "maxDeposit",
      "outputs": [
        {
          "internalType": "uint256",
          "name": "",
          "type": "uint256"
        }
      ],
      "stateMutability": "view",
      "type": "function"
    },
    {
      "inputs": [
        {
          "internalType": "bytes",
          "name": "data_",
          "type": "bytes"
        }
      ],
      "name": "mint",
      "outputs": [
        {
          "internalType": "uint256",
          "name": "",
          "type": "uint256"
        }
      ],
      "stateMutability": "nonpayable",
      "type": "function"
    },
    {
      "inputs": [],
      "name": "name",
      "outputs": [
        {
          "internalType": "string",
          "name": "",
          "type": "string"
        }
      ],
      "stateMutability": "view",
      "type": "function"
    },
    {
      "inputs": [
        {
          "internalType": "address",
          "name": "owner",
          "type": "address"
        }
      ],
      "name": "nonces",
      "outputs": [
        {
          "internalType": "uint256",
          "name": "",
          "type": "uint256"
        }
      ],
      "stateMutability": "view",
      "type": "function"
    },
    {
      "inputs": [
        {
          "internalType": "address",
          "name": "owner",
          "type": "address"
        },
        {
          "internalType": "address",
          "name": "spender",
          "type": "address"
        },
        {
          "internalType": "uint256",
          "name": "value",
          "type": "uint256"
        },
        {
          "internalType": "uint256",
          "name": "deadline",
          "type": "uint256"
        },
        {
          "internalType": "uint8",
          "name": "v",
          "type": "uint8"
        },
        {
          "internalType": "bytes32",
          "name": "r",
          "type": "bytes32"
        },
        {
          "internalType": "bytes32",
          "name": "s_",
          "type": "bytes32"
        }
      ],
      "name": "permit",
      "outputs": [],
      "stateMutability": "nonpayable",
      "type": "function"
    },
    {
      "inputs": [
        {
          "internalType": "uint256",
          "name": "assets_",
          "type": "uint256"
        }
      ],
      "name": "previewDeposit",
      "outputs": [
        {
          "internalType": "uint256",
          "name": "",
          "type": "uint256"
        }
      ],
      "stateMutability": "view",
      "type": "function"
    },
    {
      "inputs": [
        {
          "internalType": "uint256",
          "name": "shares_",
          "type": "uint256"
        }
      ],
      "name": "previewRedeem",
      "outputs": [
        {
          "internalType": "uint256",
          "name": "",
          "type": "uint256"
        }
      ],
      "stateMutability": "view",
      "type": "function"
    },
    {
      "inputs": [
        {
          "internalType": "uint256",
          "name": "assets",
          "type": "uint256"
        }
      ],
      "name": "previewWithdraw",
      "outputs": [
        {
          "internalType": "uint256",
          "name": "",
          "type": "uint256"
        }
      ],
      "stateMutability": "view",
      "type": "function"
    },
    {
      "inputs": [
        {
          "internalType": "address",
          "name": "account_",
          "type": "address"
        }
      ],
      "name": "sharesOf",
      "outputs": [
        {
          "internalType": "uint256",
          "name": "",
          "type": "uint256"
        }
      ],
      "stateMutability": "view",
      "type": "function"
    },
    {
      "inputs": [],
      "name": "symbol",
      "outputs": [
        {
          "internalType": "string",
          "name": "",
          "type": "string"
        }
      ],
      "stateMutability": "view",
      "type": "function"
    },
    {
      "inputs": [],
      "name": "totalAssets",
      "outputs": [
        {
          "internalType": "uint256",
          "name": "",
          "type": "uint256"
        }
      ],
      "stateMutability": "view",
      "type": "function"
    },
    {
      "inputs": [],
      "name": "totalShares",
      "outputs": [
        {
          "internalType": "uint256",
          "name": "",
          "type": "uint256"
        }
      ],
      "stateMutability": "view",
      "type": "function"
    },
    {
      "inputs": [],
      "name": "totalSupply",
      "outputs": [
        {
          "internalType": "uint256",
          "name": "",
          "type": "uint256"
        }
      ],
      "stateMutability": "view",
      "type": "function"
    },
    {
      "inputs": [
        {
          "internalType": "address",
          "name": "to",
          "type": "address"
        },
        {
          "internalType": "uint256",
          "name": "amount",
          "type": "uint256"
        }
      ],
      "name": "transfer",
      "outputs": [
        {
          "internalType": "bool",
          "name": "",
          "type": "bool"
        }
      ],
      "stateMutability": "nonpayable",
      "type": "function"
    },
    {
      "inputs": [
        {
          "internalType": "address",
          "name": "from",
          "type": "address"
        },
        {
          "internalType": "address",
          "name": "to",
          "type": "address"
        },
        {
          "internalType": "uint256",
          "name": "amount",
          "type": "uint256"
        }
      ],
      "name": "transferFrom",
      "outputs": [
        {
          "internalType": "bool",
          "name": "",
          "type": "bool"
        }
      ],
      "stateMutability": "nonpayable",
      "type": "function"
    }
  ],
  "bytecode": {
    "object": "0x608060405234801561001057600080fd5b5061001961001e565b6100de565b600054610100900460ff161561008a5760405162461bcd60e51b815260206004820152602760248201527f496e697469616c697a61626c653a20636f6e747261637420697320696e697469604482015266616c697a696e6760c81b606482015260840160405180910390fd5b60005460ff90811610156100dc576000805460ff191660ff9081179091556040519081527f7f26b83ff96e1f2b6a682f133852f6798a09c465da95921460cefb38474024989060200160405180910390a15b565b611c9b806100ed6000396000f3fe608060405234801561001057600080fd5b50600436106101c45760003560e01c8063402d267d116100f9578063a457c2d711610097578063d505accf11610071578063d505accf14610381578063dd62ed3e14610394578063ef8b30f7146103a7578063f5eb42dc146103ba57600080fd5b8063a457c2d714610348578063a9059cbb1461035b578063c6e6f5921461036e57600080fd5b80637ba0e2e7116100d35780637ba0e2e7146103075780637ecebe001461031a5780638c490d511461032d57806395d89b411461034057600080fd5b8063402d267d146102ce5780634cdad506146102e157806370a08231146102f457600080fd5b80632016a0d2116101665780633644e515116101405780633644e5151461029057806338d52e0f1461029857806339509351146102b35780633a98ef39146102c657600080fd5b80632016a0d21461025957806323b872dd1461026e578063313ce5671461028157600080fd5b8063095ea7b3116101a2578063095ea7b3146102085780630a28a4771461022b57806318160ddd1461023e5780631dc7f5211461024657600080fd5b806301e1d114146101c957806306fdde03146101e057806307a2d13a146101f5575b600080fd5b6038545b6040519081526020015b60405180910390f35b6101e86103e3565b6040516101d79190611614565b6101cd610203366004611662565b610475565b61021b610216366004611690565b610488565b60405190151581526020016101d7565b6101cd610239366004611662565b61049e565b6101cd6104ab565b6101cd610254366004611662565b6104cf565b61026c610267366004611768565b610560565b005b61021b61027c3660046117f1565b6106df565b604051601281526020016101d7565b6101cd610702565b6036546040516001600160a01b0390911681526020016101d7565b61021b6102c1366004611690565b61070c565b6037546101cd565b6101cd6102dc366004611832565b61072d565b6101cd6102ef366004611662565b61074b565b6101cd610302366004611832565b610758565b6101cd61031536600461184f565b61077a565b6101cd610328366004611832565b6108fb565b6101cd61033b3660046118a0565b610919565b6101e8610a5b565b61021b610356366004611690565b610a6a565b61021b610369366004611690565b610ae4565b6101cd61037c366004611662565b610af1565b61026c61038f36600461192a565b610afe565b6101cd6103a23660046119a1565b610c20565b6101cd6103b5366004611662565b610c4b565b6101cd6103c8366004611832565b6001600160a01b031660009081526039602052604090205490565b6060603c80546103f2906119cf565b80601f016020809104026020016040519081016040528092919081815260200182805461041e906119cf565b801561046b5780601f106104405761010080835404028352916020019161046b565b820191906000526020600020905b81548152906001019060200180831161044e57829003601f168201915b5050505050905090565b6000610482826000610c58565b92915050565b6000610495338484610cf1565b50600192915050565b6000610482826001610e15565b60006037546000146104c9576104c46037546000610c58565b905090565b50600090565b60006104da60375490565b60355460405163a4fc284b60e01b81526001600160a01b039091169063a4fc284b9061050b90600190600401611a19565b602060405180830381865afa158015610528573d6000803e3d6000fd5b505050506040513d601f19601f8201168201806040525081019061054c9190611a41565b6105569084611a70565b6104829190611a9d565b600054610100900460ff16158080156105805750600054600160ff909116105b8061059a5750303b15801561059a575060005460ff166001145b6106025760405162461bcd60e51b815260206004820152602e60248201527f496e697469616c697a61626c653a20636f6e747261637420697320616c72656160448201526d191e481a5b9a5d1a585b1a5e995960921b60648201526084015b60405180910390fd5b6000805460ff191660011790558015610625576000805461ff0019166101001790555b603c6106318482611b0e565b50603d61063e8382611b0e565b50603580546001600160a01b038087166001600160a01b03199283161790925560368054928816929091169190911790556040805180820190915260018152603160f81b6020820152610692908490610ea3565b80156106d8576000805461ff0019169055604051600181527f7f26b83ff96e1f2b6a682f133852f6798a09c465da95921460cefb38474024989060200160405180910390a15b5050505050565b60006106ec843384610ed8565b6106f7848484610f52565b5060015b9392505050565b60006104c461104d565b600061049533848461071e3388610c20565b6107289190611bce565b610cf1565b60006107376110c8565b610742576000610482565b60001992915050565b60006104828260006110e9565b6001600160a01b03811660009081526039602052604081205461048290610475565b600080600080848060200190518101906107949190611be1565b9250925092506107a38161072d565b8311156107f25760405162461bcd60e51b815260206004820152601e60248201527f455243343632363a206465706f736974206d6f7265207468616e206d6178000060448201526064016105f9565b6035546001600160a01b03166357e725a26108156036546001600160a01b031690565b6040516001600160e01b031960e084901b1681526001600160a01b0390911660048201523360248201526044810186905260648101859052608401600060405180830381600087803b15801561086a57600080fd5b505af115801561087e573d6000803e3d6000fd5b50505050600061088d60375490565b156108a05761089b84610c4b565b6108a2565b835b905083603860008282546108b69190611bce565b9250508190555080603760008282546108cf9190611bce565b90915550506001600160a01b039091166000908152603960205260409020805482019055949350505050565b6001600160a01b0381166000908152603a6020526040812054610482565b3360009081526039602052604081205460006109388560000151610af1565b90508082101561096b57604051633803cef960e11b815233600482015260248101839052604481018290526064016105f9565b60006109768261074b565b603554604080516334347a5560e21b81528951600482015260208a01516024820152908901516044820152606089015160648201523060848201523360a48201526001600160a01b0388811660c48301529293506000929091169063d0d1e9549060e4016020604051808303816000875af11580156109f9573d6000803e3d6000fd5b505050506040513d601f19601f82011682018060405250810190610a1d9190611a41565b6035546001600160a01b0316600090815260396020526040812080549190556037805491909103905560388054939093039092555095945050505050565b6060603d80546103f2906119cf565b600080610a773385610c20565b905082811015610ad75760405162461bcd60e51b815260206004820152602560248201527f45524332303a2064656372656173656420616c6c6f77616e63652062656c6f77604482015264207a65726f60d81b60648201526084016105f9565b6106f73385858403610cf1565b6000610495338484610f52565b6000610482826000610e15565b83421115610b285760405163233730db60e11b8152600481018590524260248201526044016105f9565b60007f6e71edae12b1b97f4d1f60370fef10105fa2faae0126114a169c64845d6126c9888888610b578c61116d565b6040805160208101969096526001600160a01b0394851690860152929091166060840152608083015260a082015260c0810186905260e0016040516020818303038152906040528051906020012090506000610bb282611195565b90506000610bc2828787876111e3565b9050896001600160a01b0316816001600160a01b031614610c0957604051630189c63360e31b81526001600160a01b03808c1660048301528a1660248201526044016105f9565b610c148a8a8a610cf1565b50505050505050505050565b6001600160a01b039182166000908152603b6020908152604080832093909416825291909152205490565b600061048282600061120b565b60006106fb610c6660375490565b603560009054906101000a90046001600160a01b03166001600160a01b03166345089e296040518163ffffffff1660e01b8152600401602060405180830381865afa158015610cb9573d6000803e3d6000fd5b505050506040513d601f19601f82011682018060405250810190610cdd9190611a41565b610ce79190611a9d565b8490600185611221565b6001600160a01b038316610d535760405162461bcd60e51b8152602060048201526024808201527f45524332303a20617070726f76652066726f6d20746865207a65726f206164646044820152637265737360e01b60648201526084016105f9565b6001600160a01b038216610db45760405162461bcd60e51b815260206004820152602260248201527f45524332303a20617070726f766520746f20746865207a65726f206164647265604482015261737360f01b60648201526084016105f9565b6001600160a01b038381166000818152603b602090815260408083209487168084529482529182902085905590518481527f8c5be1e5ebec7d5bd14f71427d1e84f3dd0314c0f7b2291e5b200ac8c7c3b925910160405180910390a3505050565b60006106fb610e2360375490565b603560009054906101000a90046001600160a01b03166001600160a01b03166345089e296040518163ffffffff1660e01b8152600401602060405180830381865afa158015610e76573d6000803e3d6000fd5b505050506040513d601f19601f82011682018060405250810190610e9a9190611a41565b85919085611221565b600054610100900460ff16610eca5760405162461bcd60e51b81526004016105f990611c1a565b610ed4828261127e565b5050565b6000610ee48484610c20565b90506000198114610f4c5781811015610f3f5760405162461bcd60e51b815260206004820152601d60248201527f45524332303a20696e73756666696369656e7420616c6c6f77616e636500000060448201526064016105f9565b610f4c8484848403610cf1565b50505050565b6001600160a01b038316610f8457604051634b637e8f60e11b81526001600160a01b03841660048201526024016105f9565b6001600160a01b038216610fb65760405163ec442f0560e01b81526001600160a01b03831660048201526024016105f9565b6000610fc182610af1565b6001600160a01b038516600090815260396020526040902054909150818110156110175760405163391434e360e21b81526001600160a01b038616600482015260248101829052604481018390526064016105f9565b6001600160a01b039485166000908152603960205260408082209284900390925593909416835292909120805490920190915550565b60006104c47f8b73c3c69bb8fe3d512ecc4cf759cc79239f7b179b0ffacaa9a75d522b39400f61107c60015490565b6002546040805160208101859052908101839052606081018290524660808201523060a082015260009060c0016040516020818303038152906040528051906020012090509392505050565b6000806110d460385490565b11806104c457506110e36104ab565b15905090565b60006106fb603560009054906101000a90046001600160a01b03166001600160a01b03166345089e296040518163ffffffff1660e01b8152600401602060405180830381865afa158015611141573d6000803e3d6000fd5b505050506040513d601f19601f820116820180604052508101906111659190611a41565b610e9a6104ab565b6001600160a01b0381166000908152603a602052604090208054600181018255905b50919050565b60006104826111a261104d565b8360405161190160f01b6020820152602281018390526042810182905260009060620160405160208183030381529060405280519060200120905092915050565b60008060006111f4878787876112bf565b91509150611201816113ac565b5095945050505050565b60006106fb61121960375490565b603854610e9a565b60008061122f868686611565565b9050600183600281111561124557611245611a03565b14801561126257506000848061125d5761125d611a87565b868809115b1561127557611272600182611bce565b90505b95945050505050565b600054610100900460ff166112a55760405162461bcd60e51b81526004016105f990611c1a565b815160209283012081519190920120600191909155600255565b6000807f7fffffffffffffffffffffffffffffff5d576e7357a4501ddfe92f46681b20a08311156112f657506000905060036113a3565b8460ff16601b1415801561130e57508460ff16601c14155b1561131f57506000905060046113a3565b6040805160008082526020820180845289905260ff881692820192909252606081018690526080810185905260019060a0016020604051602081039080840390855afa158015611373573d6000803e3d6000fd5b5050604051601f1901519150506001600160a01b03811661139c576000600192509250506113a3565b9150600090505b94509492505050565b60008160048111156113c0576113c0611a03565b036113c85750565b60018160048111156113dc576113dc611a03565b036114295760405162461bcd60e51b815260206004820152601860248201527f45434453413a20696e76616c6964207369676e6174757265000000000000000060448201526064016105f9565b600281600481111561143d5761143d611a03565b0361148a5760405162461bcd60e51b815260206004820152601f60248201527f45434453413a20696e76616c6964207369676e6174757265206c656e6774680060448201526064016105f9565b600381600481111561149e5761149e611a03565b036114f65760405162461bcd60e51b815260206004820152602260248201527f45434453413a20696e76616c6964207369676e6174757265202773272076616c604482015261756560f01b60648201526084016105f9565b600481600481111561150a5761150a611a03565b036115625760405162461bcd60e51b815260206004820152602260248201527f45434453413a20696e76616c6964207369676e6174757265202776272076616c604482015261756560f01b60648201526084016105f9565b50565b600080806000198587098587029250828110838203039150508060000361159f5783828161159557611595611a87565b04925050506106fb565b8084116115ab57600080fd5b60008486880960026001871981018816978890046003810283188082028403028082028403028082028403028082028403028082028403029081029092039091026000889003889004909101858311909403939093029303949094049190911702949350505050565b600060208083528351808285015260005b8181101561164157858101830151858201604001528201611625565b506000604082860101526040601f19601f8301168501019250505092915050565b60006020828403121561167457600080fd5b5035919050565b6001600160a01b038116811461156257600080fd5b600080604083850312156116a357600080fd5b82356116ae8161167b565b946020939093013593505050565b634e487b7160e01b600052604160045260246000fd5b600067ffffffffffffffff808411156116ed576116ed6116bc565b604051601f8501601f19908116603f01168101908282118183101715611715576117156116bc565b8160405280935085815286868601111561172e57600080fd5b858560208301376000602087830101525050509392505050565b600082601f83011261175957600080fd5b6106fb838335602085016116d2565b6000806000806080858703121561177e57600080fd5b84356117898161167b565b935060208501356117998161167b565b9250604085013567ffffffffffffffff808211156117b657600080fd5b6117c288838901611748565b935060608701359150808211156117d857600080fd5b506117e587828801611748565b91505092959194509250565b60008060006060848603121561180657600080fd5b83356118118161167b565b925060208401356118218161167b565b929592945050506040919091013590565b60006020828403121561184457600080fd5b81356106fb8161167b565b60006020828403121561186157600080fd5b813567ffffffffffffffff81111561187857600080fd5b8201601f8101841361188957600080fd5b611898848235602084016116d2565b949350505050565b60008082840360a08112156118b457600080fd5b60808112156118c257600080fd5b506040516080810181811067ffffffffffffffff821117156118e6576118e66116bc565b80604052508335815260208401356020820152604084013560408201526060840135606082015280925050608083013561191f8161167b565b809150509250929050565b600080600080600080600060e0888a03121561194557600080fd5b87356119508161167b565b965060208801356119608161167b565b95506040880135945060608801359350608088013560ff8116811461198457600080fd5b9699959850939692959460a0840135945060c09093013592915050565b600080604083850312156119b457600080fd5b82356119bf8161167b565b9150602083013561191f8161167b565b600181811c908216806119e357607f821691505b60208210810361118f57634e487b7160e01b600052602260045260246000fd5b634e487b7160e01b600052602160045260246000fd5b6020810160028310611a3b57634e487b7160e01b600052602160045260246000fd5b91905290565b600060208284031215611a5357600080fd5b5051919050565b634e487b7160e01b600052601160045260246000fd5b808202811582820484141761048257610482611a5a565b634e487b7160e01b600052601260045260246000fd5b600082611aba57634e487b7160e01b600052601260045260246000fd5b500490565b601f821115611b0957600081815260208120601f850160051c81016020861015611ae65750805b601f850160051c820191505b81811015611b0557828155600101611af2565b5050505b505050565b815167ffffffffffffffff811115611b2857611b286116bc565b611b3c81611b3684546119cf565b84611abf565b602080601f831160018114611b715760008415611b595750858301515b600019600386901b1c1916600185901b178555611b05565b600085815260208120601f198616915b82811015611ba057888601518255948401946001909101908401611b81565b5085821015611bbe5787850151600019600388901b60f8161c191681555b5050505050600190811b01905550565b8082018082111561048257610482611a5a565b600080600060608486031215611bf657600080fd5b83519250602084015191506040840151611c0f8161167b565b809150509250925092565b6020808252602b908201527f496e697469616c697a61626c653a20636f6e7472616374206973206e6f74206960408201526a6e697469616c697a696e6760a81b60608201526080019056fea2646970667358221220d7d0bdf69cc216514abbd3a2507fa351a8d46214e7ffe3d00aaf777ea6bd488e64736f6c63430008150033",
    "linkReferences": {}
  },
  "methodIdentifiers": {
    "DOMAIN_SEPARATOR()": "3644e515",
    "allowance(address,address)": "dd62ed3e",
    "approve(address,uint256)": "095ea7b3",
    "asset()": "38d52e0f",
    "balanceOf(address)": "70a08231",
    "burn((uint256,uint256,uint256,uint256),address)": "8c490d51",
    "convertToAssets(uint256)": "07a2d13a",
    "convertToShares(uint256)": "c6e6f592",
    "convertToUnderlying(uint256)": "1dc7f521",
    "decimals()": "313ce567",
    "decreaseAllowance(address,uint256)": "a457c2d7",
    "increaseAllowance(address,uint256)": "39509351",
    "initialize(address,address,string,string)": "2016a0d2",
    "maxDeposit(address)": "402d267d",
    "mint(bytes)": "7ba0e2e7",
    "name()": "06fdde03",
    "nonces(address)": "7ecebe00",
    "permit(address,address,uint256,uint256,uint8,bytes32,bytes32)": "d505accf",
    "previewDeposit(uint256)": "ef8b30f7",
    "previewRedeem(uint256)": "4cdad506",
    "previewWithdraw(uint256)": "0a28a477",
    "sharesOf(address)": "f5eb42dc",
    "symbol()": "95d89b41",
    "totalAssets()": "01e1d114",
    "totalShares()": "3a98ef39",
    "totalSupply()": "18160ddd",
    "transfer(address,uint256)": "a9059cbb",
    "transferFrom(address,address,uint256)": "23b872dd"
  },
  "id": 26
}