{"abi":[{"type":"constructor","inputs":[],"stateMutability":"nonpayable"},{"type":"function","name":"DOMAIN_SEPARATOR","inputs":[],"outputs":[{"name":"","type":"bytes32","internalType":"bytes32"}],"stateMutability":"view"},{"type":"function","name":"FORMAT_DECIMALS","inputs":[],"outputs":[{"name":"","type":"uint256","internalType":"uint256"}],"stateMutability":"view"},{"type":"function","name":"allowance","inputs":[{"name":"owner","type":"address","internalType":"address"},{"name":"spender","type":"address","internalType":"address"}],"outputs":[{"name":"","type":"uint256","internalType":"uint256"}],"stateMutability":"view"},{"type":"function","name":"approve","inputs":[{"name":"spender","type":"address","internalType":"address"},{"name":"amount","type":"uint256","internalType":"uint256"}],"outputs":[{"name":"","type":"bool","internalType":"bool"}],"stateMutability":"nonpayable"},{"type":"function","name":"asset","inputs":[],"outputs":[{"name":"","type":"address","internalType":"address"}],"stateMutability":"view"},{"type":"function","name":"balanceOf","inputs":[{"name":"account_","type":"address","internalType":"address"}],"outputs":[{"name":"","type":"uint256","internalType":"uint256"}],"stateMutability":"view"},{"type":"function","name":"claimReward","inputs":[],"outputs":[{"name":"","type":"uint256","internalType":"uint256"}],"stateMutability":"nonpayable"},{"type":"function","name":"convertToOzTokens","inputs":[{"name":"shares_","type":"uint256","internalType":"uint256"},{"name":"account_","type":"address","internalType":"address"}],"outputs":[{"name":"","type":"uint256","internalType":"UintRay"}],"stateMutability":"view"},{"type":"function","name":"convertToSharesFromOzBalance","inputs":[{"name":"ozBalance_","type":"uint256","internalType":"uint256"}],"outputs":[{"name":"","type":"uint256","internalType":"uint256"}],"stateMutability":"view"},{"type":"function","name":"convertToUnderlying","inputs":[{"name":"shares_","type":"uint256","internalType":"uint256"}],"outputs":[{"name":"","type":"uint256","internalType":"uint256"}],"stateMutability":"view"},{"type":"function","name":"decimals","inputs":[],"outputs":[{"name":"","type":"uint8","internalType":"uint8"}],"stateMutability":"pure"},{"type":"function","name":"decreaseAllowance","inputs":[{"name":"spender","type":"address","internalType":"address"},{"name":"subtractedValue","type":"uint256","internalType":"uint256"}],"outputs":[{"name":"","type":"bool","internalType":"bool"}],"stateMutability":"nonpayable"},{"type":"function","name":"earned","inputs":[{"name":"user_","type":"address","internalType":"address"}],"outputs":[{"name":"","type":"uint256","internalType":"uint256"}],"stateMutability":"view"},{"type":"function","name":"getRewardsData","inputs":[],"outputs":[{"name":"rewardRate","type":"uint256","internalType":"uint256"},{"name":"circulatingSupply","type":"uint256","internalType":"uint256"},{"name":"pendingAllocation","type":"uint256","internalType":"uint256"},{"name":"recicledSupply","type":"uint256","internalType":"uint256"},{"name":"durationLeft","type":"int256","internalType":"int256"}],"stateMutability":"view"},{"type":"function","name":"increaseAllowance","inputs":[{"name":"spender","type":"address","internalType":"address"},{"name":"addedValue","type":"uint256","internalType":"uint256"}],"outputs":[{"name":"","type":"bool","internalType":"bool"}],"stateMutability":"nonpayable"},{"type":"function","name":"initialize","inputs":[{"name":"underlying_","type":"address","internalType":"address"},{"name":"diamond_","type":"address","internalType":"address"},{"name":"name_","type":"string","internalType":"string"},{"name":"symbol_","type":"string","internalType":"string"}],"outputs":[],"stateMutability":"nonpayable"},{"type":"function","name":"lastTimeRewardApplicable","inputs":[],"outputs":[{"name":"","type":"uint256","internalType":"uint256"}],"stateMutability":"view"},{"type":"function","name":"mint","inputs":[{"name":"data_","type":"bytes","internalType":"bytes"},{"name":"owner_","type":"address","internalType":"address"}],"outputs":[{"name":"","type":"uint256","internalType":"uint256"}],"stateMutability":"nonpayable"},{"type":"function","name":"name","inputs":[],"outputs":[{"name":"","type":"string","internalType":"string"}],"stateMutability":"view"},{"type":"function","name":"nonces","inputs":[{"name":"owner","type":"address","internalType":"address"}],"outputs":[{"name":"","type":"uint256","internalType":"uint256"}],"stateMutability":"view"},{"type":"function","name":"notifyRewardAmount","inputs":[{"name":"amount_","type":"uint256","internalType":"uint256"}],"outputs":[],"stateMutability":"nonpayable"},{"type":"function","name":"permit","inputs":[{"name":"owner","type":"address","internalType":"address"},{"name":"spender","type":"address","internalType":"address"},{"name":"value","type":"uint256","internalType":"uint256"},{"name":"deadline","type":"uint256","internalType":"uint256"},{"name":"v","type":"uint8","internalType":"uint8"},{"name":"r","type":"bytes32","internalType":"bytes32"},{"name":"s_","type":"bytes32","internalType":"bytes32"}],"outputs":[],"stateMutability":"nonpayable"},{"type":"function","name":"previewRedeem","inputs":[{"name":"shares_","type":"uint256","internalType":"uint256"}],"outputs":[{"name":"","type":"uint256","internalType":"uint256"}],"stateMutability":"view"},{"type":"function","name":"redeem","inputs":[{"name":"data_","type":"bytes","internalType":"bytes"},{"name":"owner_","type":"address","internalType":"address"}],"outputs":[{"name":"","type":"uint256","internalType":"uint256"}],"stateMutability":"nonpayable"},{"type":"function","name":"rewardPerToken","inputs":[],"outputs":[{"name":"","type":"uint256","internalType":"uint256"}],"stateMutability":"view"},{"type":"function","name":"setRewardsDuration","inputs":[{"name":"duration_","type":"uint256","internalType":"uint256"}],"outputs":[],"stateMutability":"nonpayable"},{"type":"function","name":"sharesOf","inputs":[{"name":"account_","type":"address","internalType":"address"}],"outputs":[{"name":"","type":"uint256","internalType":"uint256"}],"stateMutability":"view"},{"type":"function","name":"subConvertToShares","inputs":[{"name":"assets_","type":"uint256","internalType":"uint256"},{"name":"account_","type":"address","internalType":"address"}],"outputs":[{"name":"","type":"uint256","internalType":"uint256"}],"stateMutability":"view"},{"type":"function","name":"symbol","inputs":[],"outputs":[{"name":"","type":"string","internalType":"string"}],"stateMutability":"view"},{"type":"function","name":"totalAssets","inputs":[],"outputs":[{"name":"","type":"uint256","internalType":"uint256"}],"stateMutability":"view"},{"type":"function","name":"totalShares","inputs":[],"outputs":[{"name":"","type":"uint256","internalType":"uint256"}],"stateMutability":"view"},{"type":"function","name":"totalSupply","inputs":[],"outputs":[{"name":"","type":"uint256","internalType":"uint256"}],"stateMutability":"view"},{"type":"function","name":"transfer","inputs":[{"name":"to","type":"address","internalType":"address"},{"name":"amount","type":"uint256","internalType":"uint256"}],"outputs":[{"name":"","type":"bool","internalType":"bool"}],"stateMutability":"nonpayable"},{"type":"function","name":"transferFrom","inputs":[{"name":"from","type":"address","internalType":"address"},{"name":"to","type":"address","internalType":"address"},{"name":"amount","type":"uint256","internalType":"uint256"}],"outputs":[{"name":"","type":"bool","internalType":"bool"}],"stateMutability":"nonpayable"},{"type":"event","name":"Approval","inputs":[{"name":"owner","type":"address","indexed":true,"internalType":"address"},{"name":"spender","type":"address","indexed":true,"internalType":"address"},{"name":"value","type":"uint256","indexed":false,"internalType":"uint256"}],"anonymous":false},{"type":"event","name":"Initialized","inputs":[{"name":"version","type":"uint8","indexed":false,"internalType":"uint8"}],"anonymous":false},{"type":"event","name":"OzTokenMinted","inputs":[{"name":"owner","type":"address","indexed":false,"internalType":"address"},{"name":"shares","type":"uint256","indexed":false,"internalType":"uint256"},{"name":"assets","type":"uint256","indexed":false,"internalType":"uint256"}],"anonymous":false},{"type":"event","name":"OzTokenRedeemed","inputs":[{"name":"owner","type":"address","indexed":false,"internalType":"address"},{"name":"ozAmountIn","type":"uint256","indexed":false,"internalType":"uint256"},{"name":"shares","type":"uint256","indexed":false,"internalType":"uint256"},{"name":"assets","type":"uint256","indexed":false,"internalType":"uint256"}],"anonymous":false},{"type":"event","name":"Transfer","inputs":[{"name":"from","type":"address","indexed":true,"internalType":"address"},{"name":"to","type":"address","indexed":true,"internalType":"address"},{"name":"value","type":"uint256","indexed":false,"internalType":"uint256"}],"anonymous":false},{"type":"error","name":"OZError03","inputs":[]},{"type":"error","name":"OZError04","inputs":[{"name":"from","type":"address","internalType":"address"},{"name":"to","type":"address","internalType":"address"}]},{"type":"error","name":"OZError05","inputs":[{"name":"amount","type":"uint256","internalType":"uint256"}]},{"type":"error","name":"OZError06","inputs":[{"name":"sender","type":"address","internalType":"address"},{"name":"accountShares","type":"uint256","internalType":"uint256"},{"name":"shares","type":"uint256","internalType":"uint256"}]},{"type":"error","name":"OZError07","inputs":[{"name":"from","type":"address","internalType":"address"},{"name":"fromShares","type":"uint256","internalType":"uint256"},{"name":"shares","type":"uint256","internalType":"uint256"}]},{"type":"error","name":"OZError08","inputs":[{"name":"deadline","type":"uint256","internalType":"uint256"},{"name":"blockTimestamp","type":"uint256","internalType":"uint256"}]},{"type":"error","name":"OZError09","inputs":[{"name":"owner","type":"address","internalType":"address"},{"name":"spender","type":"address","internalType":"address"}]},{"type":"error","name":"OZError22","inputs":[{"name":"reason","type":"string","internalType":"string"}]},{"type":"error","name":"OZError35","inputs":[{"name":"ozAmountIn","type":"uint256","internalType":"uint256"}]},{"type":"error","name":"OZError37","inputs":[]},{"type":"error","name":"OZError38","inputs":[]},{"type":"error","name":"OZError39","inputs":[{"name":"data","type":"bytes","internalType":"bytes"}]}],"bytecode":{"object":"0x608060405234801562000010575f80fd5b506200001b62000021565b620000e3565b603154610100900460ff16156200008e5760405162461bcd60e51b815260206004820152602760248201527f496e697469616c697a61626c653a20636f6e747261637420697320696e697469604482015266616c697a696e6760c81b606482015260840160405180910390fd5b60315460ff9081161015620000e1576031805460ff191660ff9081179091556040519081527f7f26b83ff96e1f2b6a682f133852f6798a09c465da95921460cefb38474024989060200160405180910390a15b565b61264180620000f15f395ff3fe608060405234801561000f575f80fd5b50600436106101fc575f3560e01c80634cdad50611610114578063a457c2d7116100a9578063cc1a378f11610079578063cc1a378f1461031c578063cd3daf9d146103b3578063d505accf14610403578063dd62ed3e14610416578063f5eb42dc14610429575f80fd5b8063a457c2d7146103ca578063a9059cbb146103dd578063b88a802f146103b3578063bc93f1cf146103f0575f80fd5b80637ecebe00116100e45780637ecebe00146103a057806380faa57d146103b357806395d89b41146103b9578063a01c8774146103c1575f80fd5b80634cdad5061461034057806369e41c621461034e57806370a08231146103615780637d098e6414610374575f80fd5b80632016a0d21161019557806338d52e0f1161016557806338d52e0f146102e657806339509351146103015780633a98ef39146103145780633c6b16ab1461031c5780634702a0841461032d575f80fd5b80632016a0d2146102a757806323b872dd146102bc578063313ce567146102cf5780633644e515146102de575f80fd5b80630ba097d6116101d05780630ba097d6146102665780630cae37f11461027957806318160ddd1461028c5780631dc7f52114610294575f80fd5b80628cc2621461020057806301e1d1141461022657806306fdde031461022e578063095ea7b314610243575b5f80fd5b61021361020e366004611c29565b505f90565b6040519081526020015b60405180910390f35b610213610451565b610236610465565b60405161021d9190611c87565b610256610251366004611c99565b6104f5565b604051901515815260200161021d565b610213610274366004611d5f565b61050b565b610213610287366004611d5f565b6108f6565b610213610bb4565b6102136102a2366004611dc1565b610c16565b6102ba6102b5366004611df6565b610ca3565b005b6102566102ca366004611e7a565b610e9f565b6040516012815260200161021d565b610213610ec0565b6067546040516001600160a01b03909116815260200161021d565b61025661030f366004611c99565b610ec9565b610213610ee9565b6102ba61032a366004611dc1565b50565b61021361033b366004611eb8565b610ef9565b61021361020e366004611dc1565b61021361035c366004611dc1565b610fad565b61021361036f366004611c29565b610fc9565b604080515f8082526020820181905291810182905260608101829052608081019190915260a00161021d565b6102136103ae366004611c29565b610ff4565b5f610213565b610236611011565b610213606e5481565b6102566103d8366004611c99565b611020565b6102566103eb366004611c99565b61105c565b6102136103fe366004611eb8565b611068565b6102ba610411366004611ee9565b6110b5565b610213610424366004611f55565b6111d4565b610213610437366004611c29565b6001600160a01b03165f9081526069602052604090205490565b6068545f9061046090826111fe565b905090565b6060606c805461047490611f81565b80601f01602080910402602001604051908101604052809291908181526020018280546104a090611f81565b80156104eb5780601f106104c2576101008083540402835291602001916104eb565b820191905f5260205f20905b8154815290600101906020018083116104ce57829003601f168201915b5050505050905090565b5f610501338484611240565b5060015b92915050565b5f7fd979d933a329cda0d1d95e3d7a8aaccfc305f1200c53a87f37e6841bb793452c805c1561054d5760405163b955425560e01b815260048101604052600481fd5b6001815d60665483906001600160a01b031680156105bf576040516241fec360e31b81526001600160a01b03838116600483015282169063020ff618906024015f604051808303815f87803b1580156105a4575f80fd5b505af11580156105b6573d5f803e3d5ffd5b50505050610600565b5f601a555f6018556001600160a01b03821615610600576001600160a01b0382165f908152601e60209081526040808320839055601a54601d909252909120555b85516101001461062e578560405163041979eb60e41b81526004016106259190611c87565b60405180910390fd5b5f80878060200190518101906106449190612031565b815191935091506001600160a01b038816158061066857506001600160a01b038216155b1561068657604051632534b66960e21b815260040160405180910390fd5b6729a2241af62c00008110156106b257604051631a98558360e21b815260048101829052602401610625565b6001600160a01b0388165f90815260696020526040812054906106d5838b610ef9565b90508082101561071157604051637ac073bf60e01b81526001600160a01b038b1660048201526024810183905260448101829052606401610625565b5f81905060665f9054906101000a90046001600160a01b03166001600160a01b031663a1b86b388c8e6040518363ffffffff1660e01b81526004016107579291906120d1565b60408051808303815f875af1925050508015610790575060408051601f3d908101601f1916820190925261078d918101906120f4565b60015b6107e05761079c612116565b806308c379a0036107d657506107b061212f565b806107bb57506107d8565b80604051631bc63b8160e01b81526004016106259190611c87565b505b3d5f803e3d5ffd5b6107ea825f6112ee565b6066546001600160a01b03165f90815260696020526040902054945061081183865f611359565b5f60695f60665f9054906101000a90046001600160a01b03166001600160a01b03166001600160a01b031681526020019081526020015f208190555082606f5f8f6001600160a01b03166001600160a01b031681526020019081526020015f205f82825403925050819055507f4181bb2dd7cb8bbe372dc317652857a2e512544faeba7c902b5e80107831732b8d8786866040516108d394939291906001600160a01b0394909416845260208401929092526040830152606082015260800190565b60405180910390a19a506108ea9650505050505050565b50505f815d5092915050565b5f7fd979d933a329cda0d1d95e3d7a8aaccfc305f1200c53a87f37e6841bb793452c805c156109385760405163b955425560e01b815260048101604052600481fd5b6001815d60665483906001600160a01b031680156109aa576040516241fec360e31b81526001600160a01b03838116600483015282169063020ff618906024015f604051808303815f87803b15801561098f575f80fd5b505af11580156109a1573d5f803e3d5ffd5b505050506109eb565b5f601a555f6018556001600160a01b038216156109eb576001600160a01b0382165f908152601e60209081526040808320839055601a54601d909252909120555b855160e014610a0f578560405163041979eb60e41b81526004016106259190611c87565b5f8087806020019051810190610a2591906121b8565b815191935091505f03610a4b5760405163e5da5c7360e01b815260040160405180910390fd5b6001600160a01b0387161580610a6857506001600160a01b038116155b15610a8657604051632534b66960e21b815260040160405180910390fd5b606e5482515f91610a9791906113b5565b6066549091506001600160a01b0316639ea04fe4610abd6067546001600160a01b031690565b8a866040518463ffffffff1660e01b8152600401610add9392919061224c565b6020604051808303815f875af1925050508015610b17575060408051601f3d908101601f19168201909252610b14918101906122c6565b60015b610b235761079c612116565b610b2e8160016112ee565b81610b3b81806001611359565b6001600160a01b038481165f908152606960209081526040808320805486019055606f8252918290208054870190558151928d168352820183905281018490527fcb7696223ea9f009e8eb0ecd9af1e430306b6c7c719e906d4a4af52bcba6353a9060600160405180910390a197506108ea9350505050565b5f610bbd610ee9565b1561020e57610460610c11610be7610bd3610451565b610be29064e8d4a510006122f1565b6113c7565b610bf9610bf2610ee9565b60016113de565b610c0a610c04610ee9565b5f6113de565b919061148f565b6115a5565b5f610c1f610ee9565b60665460405163a4fc284b60e01b81526001600160a01b039091169063a4fc284b90610c5090600190600401612338565b602060405180830381865afa158015610c6b573d5f803e3d5ffd5b505050506040513d601f19601f82011682018060405250810190610c8f91906122c6565b610c9990846122f1565b610505919061235f565b603154610100900460ff1615808015610cc35750603154600160ff909116105b80610cdd5750303b158015610cdd575060315460ff166001145b610d405760405162461bcd60e51b815260206004820152602e60248201527f496e697469616c697a61626c653a20636f6e747261637420697320616c72656160448201526d191e481a5b9a5d1a585b1a5e995960921b6064820152608401610625565b6031805460ff191660011790558015610d63576031805461ff0019166101001790555b606c610d6f84826123bb565b50606d610d7c83826123bb565b50606680546001600160a01b038087166001600160a01b03199283161790925560678054928816929091169190911790556040805180820190915260018152603160f81b6020820152610dd09084906115bc565b846001600160a01b031663313ce5676040518163ffffffff1660e01b8152600401602060405180830381865afa158015610e0c573d5f803e3d5ffd5b505050506040513d601f19601f82011682018060405250810190610e309190612477565b60ff16601214610e41576001610e48565b64e8d4a510005b64ffffffffff16606e558015610e98576031805461ff0019169055604051600181527f7f26b83ff96e1f2b6a682f133852f6798a09c465da95921460cefb38474024989060200160405180910390a15b5050505050565b5f610eab8433846115f1565b610eb684848461163d565b5060019392505050565b5f610460611758565b5f610501338484610eda33886111d4565b610ee49190612492565b611240565b6068545f906104609060016111fe565b5f80610f0d6066546001600160a01b031690565b6001600160a01b0316633154b6e25f806040518363ffffffff1660e01b8152600401610f3a9291906124a5565b602060405180830381865afa158015610f55573d5f803e3d5ffd5b505050506040513d601f19601f82011682018060405250810190610f7991906122c6565b9050610fa5610f87846117d1565b610f9f610f95610be2610ee9565b84610c0a896113c7565b90611838565b949350505050565b5f610505610fb9610ee9565b610fc1610bb4565b849190611873565b5f610505610c11610fee846001600160a01b03165f9081526069602052604090205490565b84611068565b6001600160a01b0381165f908152606a6020526040812054610505565b6060606d805461047490611f81565b5f8061102c33856111d4565b90508281101561104f576040516361ceb1d360e01b815260040160405180910390fd5b610eb63385858403611240565b5f61050133848461163d565b5f80611074845f6113de565b905080156110ac576110a7611088846117d1565b61109f6b033b2e3c9fd0803ce80000006002611896565b83919061148f565b610fa5565b505f9392505050565b834211156110df5760405163184f1e0160e11b815260048101859052426024820152604401610625565b5f7f6e71edae12b1b97f4d1f60370fef10105fa2faae0126114a169c64845d6126c988888861110d8c6118a1565b6040805160208101969096526001600160a01b0394851690860152929091166060840152608083015260a082015260c0810186905260e0016040516020818303038152906040528051906020012090505f611167826118c8565b90505f61117682878787611914565b9050896001600160a01b0316816001600160a01b0316146111bd57604051635091bef560e01b81526001600160a01b0380831660048301528b166024820152604401610625565b6111c88a8a8a611240565b50505050505050505050565b6001600160a01b039182165f908152606b6020908152604080832093909416825291909152205490565b5f6fffffffffffffffffffffffffffffffff8183600181111561122357611223612308565b1461123057838116610fa5565b608084901c811691505092915050565b6001600160a01b038316158061125d57506001600160a01b038216155b1561128e57604051637db368a160e01b81526001600160a01b03808516600483015283166024820152604401610625565b6001600160a01b038381165f818152606b602090815260408083209487168084529482529182902085905590518481527f8c5be1e5ebec7d5bd14f71427d1e84f3dd0314c0f7b2291e5b200ac8c7c3b925910160405180910390a3505050565b60665460405163b0ff97b560e01b81523060048201526024810184905282151560448201526001600160a01b039091169063b0ff97b5906064015f604051808303815f87803b15801561133f575f80fd5b505af1158015611351573d5f803e3d5ffd5b505050505050565b6068545f9061136890826111fe565b90505f61138160016068546111fe90919063ffffffff16565b905082156113945790840190830161139d565b90849003908390035b6113ab81608084901b612492565b6068555050505050565b5f6113c0828461235f565b9392505050565b5f610505826b033b2e3c9fd0803ce80000006122f1565b5f806114616113f56066546001600160a01b031690565b6001600160a01b0316633154b6e25f866040518363ffffffff1660e01b81526004016114229291906124a5565b602060405180830381865afa15801561143d573d5f803e3d5ffd5b505050506040513d601f19601f82011682018060405250810190610be291906122c6565b9050610fa58161146f610ee9565b156114845761147f610be2610ee9565b611486565b825b610c0a876113c7565b604051633f9b43b760e11b815260048101849052602481018390525f908490849084908490819073__$a7d7f0af96ad7248e2170a1364c3372171$__90637f36876e906044016040805180830381865af41580156114ef573d5f803e3d5ffd5b505050506040513d601f19601f8201168201806040525081019061151391906120f4565b6040516399ed504f60e01b8152600481018390526024810182905260448101869052919350915073__$a7d7f0af96ad7248e2170a1364c3372171$__906399ed504f90606401602060405180830381865af4158015611574573d5f803e3d5ffd5b505050506040513d601f19601f8201168201806040525081019061159891906122c6565b9998505050505050505050565b5f6105056b033b2e3c9fd0803ce80000008361235f565b603154610100900460ff166115e35760405162461bcd60e51b8152600401610625906124c2565b6115ed828261193a565b5050565b5f6115fc84846111d4565b90505f198114611637578181101561162a576040516306052b7f60e01b815260048101839052602401610625565b6116378484848403611240565b50505050565b6001600160a01b038316158061165a57506001600160a01b038216155b1561168b57604051637db368a160e01b81526001600160a01b03808516600483015283166024820152604401610625565b5f61169582610fad565b6001600160a01b0385165f90815260696020526040902054909150818110156116ea576040516315c29bad60e31b81526001600160a01b03861660048201526024810182905260448101839052606401610625565b6001600160a01b038086165f8181526069602052604080822086860390559287168082529083902080548601905591517fddf252ad1be2c89b69c2b068fc378daa952ba7f163c4a11628f55a4df523b3ef906117499087815260200190565b60405180910390a35050505050565b5f6104607f8b73c3c69bb8fe3d512ecc4cf759cc79239f7b179b0ffacaa9a75d522b39400f61178660325490565b6033546040805160208101859052908101839052606081018290524660808201523060a08201525f9060c0016040516020818303038152906040528051906020012090509392505050565b5f6105056117ec6b033b2e3c9fd0803ce80000006002611896565b61180d610bf2856001600160a01b03165f9081526069602052604090205490565b6001600160a01b0385165f90815260696020526040902054610c0a90610be29064e8d4a510006122f1565b5f8282611845818361250d565b15611851576001611853565b5f5b60ff16611860828461235f565b61186a9190612492565b95945050505050565b5f825f190484118302158202611887575f80fd5b50910281810615159190040190565b5f6113c08284612600565b6001600160a01b0381165f908152606a602052604090208054600181018255905b50919050565b5f6105056118d4611758565b8360405161190160f01b602082015260228101839052604281018290525f9060620160405160208183030381529060405280519060200120905092915050565b5f805f6119238787878761197b565b9150915061193081611a60565b5095945050505050565b603154610100900460ff166119615760405162461bcd60e51b8152600401610625906124c2565b815160209283012081519190920120603291909155603355565b5f807f7fffffffffffffffffffffffffffffff5d576e7357a4501ddfe92f46681b20a08311156119b057505f90506003611a57565b8460ff16601b141580156119c857508460ff16601c14155b156119d857505f90506004611a57565b604080515f8082526020820180845289905260ff881692820192909252606081018690526080810185905260019060a0016020604051602081039080840390855afa158015611a29573d5f803e3d5ffd5b5050604051601f1901519150506001600160a01b038116611a51575f60019250925050611a57565b91505f90505b94509492505050565b5f816004811115611a7357611a73612308565b03611a7b5750565b6001816004811115611a8f57611a8f612308565b03611adc5760405162461bcd60e51b815260206004820152601860248201527f45434453413a20696e76616c6964207369676e617475726500000000000000006044820152606401610625565b6002816004811115611af057611af0612308565b03611b3d5760405162461bcd60e51b815260206004820152601f60248201527f45434453413a20696e76616c6964207369676e6174757265206c656e677468006044820152606401610625565b6003816004811115611b5157611b51612308565b03611ba95760405162461bcd60e51b815260206004820152602260248201527f45434453413a20696e76616c6964207369676e6174757265202773272076616c604482015261756560f01b6064820152608401610625565b6004816004811115611bbd57611bbd612308565b0361032a5760405162461bcd60e51b815260206004820152602260248201527f45434453413a20696e76616c6964207369676e6174757265202776272076616c604482015261756560f01b6064820152608401610625565b6001600160a01b038116811461032a575f80fd5b5f60208284031215611c39575f80fd5b81356113c081611c15565b5f81518084525f5b81811015611c6857602081850181015186830182015201611c4c565b505f602082860101526020601f19601f83011685010191505092915050565b602081525f6113c06020830184611c44565b5f8060408385031215611caa575f80fd5b8235611cb581611c15565b946020939093013593505050565b634e487b7160e01b5f52604160045260245ffd5b601f8201601f1916810167ffffffffffffffff81118282101715611cfd57611cfd611cc3565b6040525050565b5f67ffffffffffffffff831115611d1d57611d1d611cc3565b604051611d34601f8501601f191660200182611cd7565b809150838152848484011115611d48575f80fd5b838360208301375f60208583010152509392505050565b5f8060408385031215611d70575f80fd5b823567ffffffffffffffff811115611d86575f80fd5b8301601f81018513611d96575f80fd5b611da585823560208401611d04565b9250506020830135611db681611c15565b809150509250929050565b5f60208284031215611dd1575f80fd5b5035919050565b5f82601f830112611de7575f80fd5b6113c083833560208501611d04565b5f805f8060808587031215611e09575f80fd5b8435611e1481611c15565b93506020850135611e2481611c15565b9250604085013567ffffffffffffffff80821115611e40575f80fd5b611e4c88838901611dd8565b93506060870135915080821115611e61575f80fd5b50611e6e87828801611dd8565b91505092959194509250565b5f805f60608486031215611e8c575f80fd5b8335611e9781611c15565b92506020840135611ea781611c15565b929592945050506040919091013590565b5f8060408385031215611ec9575f80fd5b823591506020830135611db681611c15565b60ff8116811461032a575f80fd5b5f805f805f805f60e0888a031215611eff575f80fd5b8735611f0a81611c15565b96506020880135611f1a81611c15565b955060408801359450606088013593506080880135611f3881611edb565b9699959850939692959460a0840135945060c09093013592915050565b5f8060408385031215611f66575f80fd5b8235611f7181611c15565b91506020830135611db681611c15565b600181811c90821680611f9557607f821691505b6020821081036118c257634e487b7160e01b5f52602260045260245ffd5b5f82601f830112611fc2575f80fd5b8151602067ffffffffffffffff821115611fde57611fde611cc3565b8160051b604051611ff183830182611cd7565b92835284810182019282810187851115612009575f80fd5b83870192505b84831015612026578251815291830191830161200f565b509695505050505050565b5f8060408385031215612042575f80fd5b825167ffffffffffffffff80821115612059575f80fd5b908401906060828703121561206c575f80fd5b60405160608101818110838211171561208757612087611cc3565b806040525082518152602083015160208201526040830151828111156120ab575f80fd5b6120b788828601611fb3565b6040830152508094505050506020830151611db681611c15565b6001600160a01b03831681526040602082018190525f90610fa590830184611c44565b5f8060408385031215612105575f80fd5b505080516020909101519092909150565b5f60033d111561212c5760045f803e505f5160e01c5b90565b5f60443d101561213c5790565b6040516003193d81016004833e81513d67ffffffffffffffff816024840111818411171561216c57505050505090565b82850191508151818111156121845750505050505090565b843d870101602082850101111561219e5750505050505090565b6121ad60208286010187611cd7565b509095945050505050565b5f80604083850312156121c9575f80fd5b825167ffffffffffffffff808211156121e0575f80fd5b90840190604082870312156121f3575f80fd5b60405160408101818110838211171561220e5761220e611cc3565b60405282518152602083015182811115612226575f80fd5b61223288828601611fb3565b6020830152508094505050506020830151611db681611c15565b5f60018060a01b038086168352602081861660208501526060604085015260a0840191508451606085015260208501516040608086015282815180855260c0870191506020830194505f92505b808310156122b95784518252938301936001929092019190830190612299565b5098975050505050505050565b5f602082840312156122d6575f80fd5b5051919050565b634e487b7160e01b5f52601160045260245ffd5b8082028115828204841417610505576105056122dd565b634e487b7160e01b5f52602160045260245ffd5b6002811061032a57634e487b7160e01b5f52602160045260245ffd5b602081016123458361231c565b91905290565b634e487b7160e01b5f52601260045260245ffd5b5f8261236d5761236d61234b565b500490565b601f8211156123b657805f5260205f20601f840160051c810160208510156123975750805b601f840160051c820191505b81811015610e98575f81556001016123a3565b505050565b815167ffffffffffffffff8111156123d5576123d5611cc3565b6123e9816123e38454611f81565b84612372565b602080601f83116001811461241c575f84156124055750858301515b5f19600386901b1c1916600185901b178555611351565b5f85815260208120601f198616915b8281101561244a5788860151825594840194600190910190840161242b565b508582101561246757878501515f19600388901b60f8161c191681555b5050505050600190811b01905550565b5f60208284031215612487575f80fd5b81516113c081611edb565b80820180821115610505576105056122dd565b828152604081016124b58361231c565b8260208301529392505050565b6020808252602b908201527f496e697469616c697a61626c653a20636f6e7472616374206973206e6f74206960408201526a6e697469616c697a696e6760a81b606082015260800190565b5f8261251b5761251b61234b565b500690565b600181815b8085111561255a57815f1904821115612540576125406122dd565b8085161561254d57918102915b93841c9390800290612525565b509250929050565b5f8261257057506001610505565b8161257c57505f610505565b8160018114612592576002811461259c576125b8565b6001915050610505565b60ff8411156125ad576125ad6122dd565b50506001821b610505565b5060208310610133831016604e8410600b84101617156125db575081810a610505565b6125e58383612520565b805f19048211156125f8576125f86122dd565b029392505050565b5f6113c0838361256256fea2646970667358221220ba448b3f4fb9a452f993cdd9290051505de6445e8acd59dd72a9949730ad84f264736f6c63430008180033","linkReferences":{"contracts/libraries/Uint512.sol":{"Uint512":[{"start":5545,"length":20},{"start":5677,"length":20}]}}},"methodIdentifiers":{"DOMAIN_SEPARATOR()":"3644e515","FORMAT_DECIMALS()":"a01c8774","allowance(address,address)":"dd62ed3e","approve(address,uint256)":"095ea7b3","asset()":"38d52e0f","balanceOf(address)":"70a08231","claimReward()":"b88a802f","convertToOzTokens(uint256,address)":"bc93f1cf","convertToSharesFromOzBalance(uint256)":"69e41c62","convertToUnderlying(uint256)":"1dc7f521","decimals()":"313ce567","decreaseAllowance(address,uint256)":"a457c2d7","earned(address)":"008cc262","getRewardsData()":"7d098e64","increaseAllowance(address,uint256)":"39509351","initialize(address,address,string,string)":"2016a0d2","lastTimeRewardApplicable()":"80faa57d","mint(bytes,address)":"0cae37f1","name()":"06fdde03","nonces(address)":"7ecebe00","notifyRewardAmount(uint256)":"3c6b16ab","permit(address,address,uint256,uint256,uint8,bytes32,bytes32)":"d505accf","previewRedeem(uint256)":"4cdad506","redeem(bytes,address)":"0ba097d6","rewardPerToken()":"cd3daf9d","setRewardsDuration(uint256)":"cc1a378f","sharesOf(address)":"f5eb42dc","subConvertToShares(uint256,address)":"4702a084","symbol()":"95d89b41","totalAssets()":"01e1d114","totalShares()":"3a98ef39","totalSupply()":"18160ddd","transfer(address,uint256)":"a9059cbb","transferFrom(address,address,uint256)":"23b872dd"},"id":44}