{"abi":[{"type":"constructor","inputs":[],"stateMutability":"nonpayable"},{"type":"function","name":"DOMAIN_SEPARATOR","inputs":[],"outputs":[{"name":"","type":"bytes32","internalType":"bytes32"}],"stateMutability":"view"},{"type":"function","name":"FORMAT_DECIMALS","inputs":[],"outputs":[{"name":"","type":"uint256","internalType":"uint256"}],"stateMutability":"view"},{"type":"function","name":"_convertToAssetsFromUnderlying","inputs":[{"name":"shares_","type":"uint256","internalType":"uint256"}],"outputs":[{"name":"","type":"uint256","internalType":"uint256"}],"stateMutability":"view"},{"type":"function","name":"allowance","inputs":[{"name":"owner","type":"address","internalType":"address"},{"name":"spender","type":"address","internalType":"address"}],"outputs":[{"name":"","type":"uint256","internalType":"uint256"}],"stateMutability":"view"},{"type":"function","name":"approve","inputs":[{"name":"spender","type":"address","internalType":"address"},{"name":"amount","type":"uint256","internalType":"uint256"}],"outputs":[{"name":"","type":"bool","internalType":"bool"}],"stateMutability":"nonpayable"},{"type":"function","name":"asset","inputs":[],"outputs":[{"name":"","type":"address","internalType":"address"}],"stateMutability":"view"},{"type":"function","name":"balanceOf","inputs":[{"name":"account_","type":"address","internalType":"address"}],"outputs":[{"name":"","type":"uint256","internalType":"uint256"}],"stateMutability":"view"},{"type":"function","name":"claimReward","inputs":[],"outputs":[{"name":"","type":"uint256","internalType":"uint256"}],"stateMutability":"nonpayable"},{"type":"function","name":"convertToAssets","inputs":[{"name":"shares","type":"uint256","internalType":"uint256"},{"name":"account_","type":"address","internalType":"address"}],"outputs":[{"name":"assets","type":"uint256","internalType":"uint256"}],"stateMutability":"view"},{"type":"function","name":"convertToShares","inputs":[{"name":"assets","type":"uint256","internalType":"uint256"}],"outputs":[{"name":"shares","type":"uint256","internalType":"uint256"}],"stateMutability":"view"},{"type":"function","name":"convertToUnderlying","inputs":[{"name":"shares_","type":"uint256","internalType":"uint256"}],"outputs":[{"name":"","type":"uint256","internalType":"uint256"}],"stateMutability":"view"},{"type":"function","name":"decimals","inputs":[],"outputs":[{"name":"","type":"uint8","internalType":"uint8"}],"stateMutability":"pure"},{"type":"function","name":"decreaseAllowance","inputs":[{"name":"spender","type":"address","internalType":"address"},{"name":"subtractedValue","type":"uint256","internalType":"uint256"}],"outputs":[{"name":"","type":"bool","internalType":"bool"}],"stateMutability":"nonpayable"},{"type":"function","name":"earned","inputs":[{"name":"user_","type":"address","internalType":"address"}],"outputs":[{"name":"","type":"uint256","internalType":"uint256"}],"stateMutability":"view"},{"type":"function","name":"getRewardsData","inputs":[],"outputs":[{"name":"rewardRate","type":"uint256","internalType":"uint256"},{"name":"circulatingSupply","type":"uint256","internalType":"uint256"},{"name":"pendingAllocation","type":"uint256","internalType":"uint256"},{"name":"recicledSupply","type":"uint256","internalType":"uint256"},{"name":"durationLeft","type":"int256","internalType":"int256"}],"stateMutability":"view"},{"type":"function","name":"increaseAllowance","inputs":[{"name":"spender","type":"address","internalType":"address"},{"name":"addedValue","type":"uint256","internalType":"uint256"}],"outputs":[{"name":"","type":"bool","internalType":"bool"}],"stateMutability":"nonpayable"},{"type":"function","name":"initialize","inputs":[{"name":"underlying_","type":"address","internalType":"address"},{"name":"diamond_","type":"address","internalType":"address"},{"name":"name_","type":"string","internalType":"string"},{"name":"symbol_","type":"string","internalType":"string"}],"outputs":[],"stateMutability":"nonpayable"},{"type":"function","name":"lastTimeRewardApplicable","inputs":[],"outputs":[{"name":"","type":"uint256","internalType":"uint256"}],"stateMutability":"view"},{"type":"function","name":"mint","inputs":[{"name":"data_","type":"bytes","internalType":"bytes"},{"name":"owner_","type":"address","internalType":"address"}],"outputs":[{"name":"","type":"uint256","internalType":"uint256"}],"stateMutability":"nonpayable"},{"type":"function","name":"name","inputs":[],"outputs":[{"name":"","type":"string","internalType":"string"}],"stateMutability":"view"},{"type":"function","name":"nonces","inputs":[{"name":"owner","type":"address","internalType":"address"}],"outputs":[{"name":"","type":"uint256","internalType":"uint256"}],"stateMutability":"view"},{"type":"function","name":"notifyRewardAmount","inputs":[{"name":"amount_","type":"uint256","internalType":"uint256"}],"outputs":[],"stateMutability":"nonpayable"},{"type":"function","name":"permit","inputs":[{"name":"owner","type":"address","internalType":"address"},{"name":"spender","type":"address","internalType":"address"},{"name":"value","type":"uint256","internalType":"uint256"},{"name":"deadline","type":"uint256","internalType":"uint256"},{"name":"v","type":"uint8","internalType":"uint8"},{"name":"r","type":"bytes32","internalType":"bytes32"},{"name":"s_","type":"bytes32","internalType":"bytes32"}],"outputs":[],"stateMutability":"nonpayable"},{"type":"function","name":"previewMint","inputs":[{"name":"assets_","type":"uint256","internalType":"uint256"}],"outputs":[{"name":"","type":"uint256","internalType":"uint256"}],"stateMutability":"view"},{"type":"function","name":"previewRedeem","inputs":[{"name":"shares_","type":"uint256","internalType":"uint256"}],"outputs":[{"name":"","type":"uint256","internalType":"uint256"}],"stateMutability":"view"},{"type":"function","name":"previewWithdraw","inputs":[{"name":"assets","type":"uint256","internalType":"uint256"}],"outputs":[{"name":"","type":"uint256","internalType":"uint256"}],"stateMutability":"view"},{"type":"function","name":"redeem","inputs":[{"name":"data_","type":"bytes","internalType":"bytes"},{"name":"owner_","type":"address","internalType":"address"}],"outputs":[{"name":"","type":"uint256","internalType":"uint256"}],"stateMutability":"nonpayable"},{"type":"function","name":"rewardPerToken","inputs":[],"outputs":[{"name":"","type":"uint256","internalType":"uint256"}],"stateMutability":"view"},{"type":"function","name":"setRewardsDuration","inputs":[{"name":"duration_","type":"uint256","internalType":"uint256"}],"outputs":[],"stateMutability":"nonpayable"},{"type":"function","name":"sharesOf","inputs":[{"name":"account_","type":"address","internalType":"address"}],"outputs":[{"name":"","type":"uint256","internalType":"uint256"}],"stateMutability":"view"},{"type":"function","name":"subBalanceOf","inputs":[{"name":"account_","type":"address","internalType":"address"},{"name":"side_","type":"uint8","internalType":"enum Dir"}],"outputs":[{"name":"","type":"uint256","internalType":"uint256"}],"stateMutability":"view"},{"type":"function","name":"subBalanceOf2","inputs":[{"name":"account_","type":"address","internalType":"address"},{"name":"side_","type":"uint8","internalType":"enum Dir"}],"outputs":[{"name":"","type":"uint256","internalType":"uint256"}],"stateMutability":"view"},{"type":"function","name":"subConvertToShares","inputs":[{"name":"assets","type":"uint256","internalType":"uint256"},{"name":"account_","type":"address","internalType":"address"}],"outputs":[{"name":"shares","type":"uint256","internalType":"uint256"}],"stateMutability":"view"},{"type":"function","name":"symbol","inputs":[],"outputs":[{"name":"","type":"string","internalType":"string"}],"stateMutability":"view"},{"type":"function","name":"totalAssets","inputs":[],"outputs":[{"name":"","type":"uint256","internalType":"uint256"}],"stateMutability":"view"},{"type":"function","name":"totalShares","inputs":[],"outputs":[{"name":"","type":"uint256","internalType":"uint256"}],"stateMutability":"view"},{"type":"function","name":"totalSupply","inputs":[],"outputs":[{"name":"","type":"uint256","internalType":"uint256"}],"stateMutability":"view"},{"type":"function","name":"transfer","inputs":[{"name":"to","type":"address","internalType":"address"},{"name":"amount","type":"uint256","internalType":"uint256"}],"outputs":[{"name":"","type":"bool","internalType":"bool"}],"stateMutability":"nonpayable"},{"type":"function","name":"transferFrom","inputs":[{"name":"from","type":"address","internalType":"address"},{"name":"to","type":"address","internalType":"address"},{"name":"amount","type":"uint256","internalType":"uint256"}],"outputs":[{"name":"","type":"bool","internalType":"bool"}],"stateMutability":"nonpayable"},{"type":"event","name":"Approval","inputs":[{"name":"owner","type":"address","indexed":true,"internalType":"address"},{"name":"spender","type":"address","indexed":true,"internalType":"address"},{"name":"value","type":"uint256","indexed":false,"internalType":"uint256"}],"anonymous":false},{"type":"event","name":"Initialized","inputs":[{"name":"version","type":"uint8","indexed":false,"internalType":"uint8"}],"anonymous":false},{"type":"event","name":"Transfer","inputs":[{"name":"from","type":"address","indexed":true,"internalType":"address"},{"name":"to","type":"address","indexed":true,"internalType":"address"},{"name":"value","type":"uint256","indexed":false,"internalType":"uint256"}],"anonymous":false},{"type":"error","name":"OZError03","inputs":[]},{"type":"error","name":"OZError04","inputs":[{"name":"from","type":"address","internalType":"address"},{"name":"to","type":"address","internalType":"address"}]},{"type":"error","name":"OZError05","inputs":[{"name":"amount","type":"uint256","internalType":"uint256"}]},{"type":"error","name":"OZError06","inputs":[{"name":"sender","type":"address","internalType":"address"},{"name":"accountShares","type":"uint256","internalType":"uint256"},{"name":"shares","type":"uint256","internalType":"uint256"}]},{"type":"error","name":"OZError07","inputs":[{"name":"from","type":"address","internalType":"address"},{"name":"fromShares","type":"uint256","internalType":"uint256"},{"name":"shares","type":"uint256","internalType":"uint256"}]},{"type":"error","name":"OZError08","inputs":[{"name":"deadline","type":"uint256","internalType":"uint256"},{"name":"blockTimestamp","type":"uint256","internalType":"uint256"}]},{"type":"error","name":"OZError09","inputs":[{"name":"owner","type":"address","internalType":"address"},{"name":"spender","type":"address","internalType":"address"}]},{"type":"error","name":"OZError22","inputs":[{"name":"reason","type":"string","internalType":"string"}]},{"type":"error","name":"OZError35","inputs":[{"name":"ozAmountIn","type":"uint256","internalType":"uint256"}]}],"bytecode":{"object":"0x60806040523480156200001157600080fd5b506200001c62000022565b620000e4565b603054610100900460ff16156200008f5760405162461bcd60e51b815260206004820152602760248201527f496e697469616c697a61626c653a20636f6e747261637420697320696e697469604482015266616c697a696e6760c81b606482015260840160405180910390fd5b60305460ff9081161015620000e2576030805460ff191660ff9081179091556040519081527f7f26b83ff96e1f2b6a682f133852f6798a09c465da95921460cefb38474024989060200160405180910390a15b565b61283280620000f46000396000f3fe608060405234801561001057600080fd5b506004361061023c5760003560e01c80634702a0841161013b578063a9059cbb116100b8578063cd3daf9d1161007c578063cd3daf9d14610434578063cfec59de14610485578063d505accf14610498578063dd62ed3e146104ab578063f5eb42dc146104be57600080fd5b8063a9059cbb1461045f578063b3d7f6b914610472578063b88a802f14610434578063c6e6f592146102a8578063cc1a378f1461039757600080fd5b80637ecebe00116100ff5780637ecebe001461042157806380faa57d1461043457806395d89b411461043b578063a01c877414610443578063a457c2d71461044c57600080fd5b80634702a084146103a85780634cdad506146103bb57806370a08231146103ce57806370a25869146103e15780637d098e64146103f457600080fd5b80632016a0d2116101c95780633644e5151161018d5780633644e5151461035957806338d52e0f14610361578063395093511461037c5780633a98ef391461038f5780633c6b16ab1461039757600080fd5b80632016a0d2146102fc57806323b872dd14610311578063279d97ef14610324578063313ce56714610337578063361032911461034657600080fd5b80630a28a477116102105780630a28a477146102a85780630ba097d6146102bb5780630cae37f1146102ce57806318160ddd146102e15780631dc7f521146102e957600080fd5b80628cc2621461024157806301e1d1141461026857806306fdde0314610270578063095ea7b314610285575b600080fd5b61025561024f366004611e38565b50600090565b6040519081526020015b60405180910390f35b6102556104e7565b6102786104fc565b60405161025f9190611ea5565b610298610293366004611eb8565b61058e565b604051901515815260200161025f565b6102556102b6366004611ee4565b6105a5565b6102556102c9366004611f9e565b6105b0565b6102556102dc366004611f9e565b610853565b610255610a1b565b6102556102f7366004611ee4565b610ac1565b61030f61030a366004612024565b610b51565b005b61029861031f3660046120ad565b610d4f565b6102556103323660046120ee565b610d71565b6040516012815260200161025f565b610255610354366004612120565b610d9b565b610255610da7565b6066546040516001600160a01b03909116815260200161025f565b61029861038a366004611eb8565b610db1565b610255610dd2565b61030f6103a5366004611ee4565b50565b6102556103b6366004612120565b610de3565b6102556103c9366004611ee4565b610def565b6102556103dc366004611e38565b610dfa565b6102556103ef366004611ee4565b610e30565b6040805160008082526020820181905291810182905260608101829052608081019190915260a00161025f565b61025561042f366004611e38565b610e50565b6000610255565b610278610e6e565b610255606d5481565b61029861045a366004611eb8565b610e7d565b61029861046d366004611eb8565b610eba565b610255610480366004611ee4565b610ec7565b6102556104933660046120ee565b610ed2565b61030f6104a6366004612154565b610ef5565b6102556104b93660046121c5565b611017565b6102556104cc366004611e38565b6001600160a01b031660009081526068602052604090205490565b6067546000906104f79082611042565b905090565b6060606b805461050b906121f3565b80601f0160208091040260200160405190810160405280929190818152602001828054610537906121f3565b80156105845780601f1061055957610100808354040283529160200191610584565b820191906000526020600020905b81548152906001019060200180831161056757829003601f168201915b5050505050905090565b600061059b338484611085565b5060015b92915050565b600061059f82611134565b60655460009082906001600160a01b03168015610626576040516241fec360e31b81526001600160a01b03838116600483015282169063020ff61890602401600060405180830381600087803b15801561060957600080fd5b505af115801561061d573d6000803e3d6000fd5b5050505061066a565b6000601a5560006018556001600160a01b0382161561066a576001600160a01b0382166000908152601e60209081526040808320839055601a54601d909252909120555b60008580602001905181019061068091906122a8565b5080519091506729a2241af62c00008110156106b757604051631a98558360e21b8152600481018290526024015b60405180910390fd5b6001600160a01b038616600090815260686020526040812054906106db8389610de3565b90508082101561071757604051637ac073bf60e01b81526001600160a01b038916600482015260248101839052604481018290526064016106ae565b6065546040516314370d6760e31b815282916001600160a01b03169063a1b86b3890610749908c908e9060040161234d565b60408051808303816000875af1925050508015610783575060408051601f3d908101601f1916820190925261078091810190612371565b60015b6107d55761078f612395565b806308c379a0036107c957506107a36123b1565b806107ae57506107cb565b80604051631bc63b8160e01b81526004016106ae9190611ea5565b505b3d6000803e3d6000fd5b6107e0826000611151565b6065546001600160a01b03166000908152606860205260409020549450610809838660006111c1565b6065546001600160a01b039081166000908152606860209081526040808320839055928e168252606e90522080549390930390925550965061084b9350505050565b505092915050565b60655460009082906001600160a01b031680156108c9576040516241fec360e31b81526001600160a01b03838116600483015282169063020ff61890602401600060405180830381600087803b1580156108ac57600080fd5b505af11580156108c0573d6000803e3d6000fd5b5050505061090d565b6000601a5560006018556001600160a01b0382161561090d576001600160a01b0382166000908152601e60209081526040808320839055601a54601d909252909120555b60008086806020019051810190610924919061243b565b606d54825192945090925060009161093b9161121f565b6065549091506001600160a01b0316639ea04fe46109616066546001600160a01b031690565b89866040518463ffffffff1660e01b8152600401610981939291906124d4565b6020604051808303816000875af19250505080156109bc575060408051601f3d908101601f191682019092526109b99181019061254d565b60015b6109c85761078f612395565b6109d3816001611151565b816109e0818060016111c1565b6001600160a01b039093166000908152606860209081526040808320805487019055606e9091529020805490920190915550935061084b9050565b6000610a25610dd2565b506000806000610a33610dd2565b50610a3c610dd2565b15610ab657676765c793fa10079d601b1b610aa7610a586104e7565b610a679064e8d4a5100061257c565b610a7c90676765c793fa10079d601b1b61257c565b610a8e610a87610dd2565b600161122b565b610aa0610a99610dd2565b600061122b565b919061131b565b610ab191906125a9565b610ab9565b60005b935050505090565b6000610acb610dd2565b60655460405163a4fc284b60e01b81526001600160a01b039091169063a4fc284b90610afc906001906004016125f1565b602060405180830381865afa158015610b19573d6000803e3d6000fd5b505050506040513d601f19601f82011682018060405250810190610b3d919061254d565b610b47908461257c565b61059f91906125a9565b603054610100900460ff1615808015610b715750603054600160ff909116105b80610b8b5750303b158015610b8b575060305460ff166001145b610bee5760405162461bcd60e51b815260206004820152602e60248201527f496e697469616c697a61626c653a20636f6e747261637420697320616c72656160448201526d191e481a5b9a5d1a585b1a5e995960921b60648201526084016106ae565b6030805460ff191660011790558015610c11576030805461ff0019166101001790555b606b610c1d848261264f565b50606c610c2a838261264f565b50606580546001600160a01b038087166001600160a01b03199283161790925560668054928816929091169190911790556040805180820190915260018152603160f81b6020820152610c7e90849061142d565b846001600160a01b031663313ce5676040518163ffffffff1660e01b8152600401602060405180830381865afa158015610cbc573d6000803e3d6000fd5b505050506040513d601f19601f82011682018060405250810190610ce0919061270f565b60ff16601214610cf1576001610cf8565b64e8d4a510005b64ffffffffff16606d558015610d48576030805461ff0019169055604051600181527f7f26b83ff96e1f2b6a682f133852f6798a09c465da95921460cefb38474024989060200160405180910390a15b5050505050565b6000610d5c843384611462565b610d678484846114b0565b5060019392505050565b6001600160a01b038216600090815260686020526040812054610d94908361122b565b9392505050565b6000610d9483836115ce565b60006104f761161a565b600061059b338484610dc33388611017565b610dcd919061272c565b611085565b6067546000906104f7906001611042565b6000610d948383611695565b600061059f82610e30565b6000676765c793fa10079d601b1b610b47610e2a846001600160a01b031660009081526068602052604090205490565b84610d9b565b600061059f610e3d611763565b610e4884600061122b565b84919061177f565b6001600160a01b03811660009081526069602052604081205461059f565b6060606c805461050b906121f3565b600080610e8a3385611017565b905082811015610ead576040516361ceb1d360e01b815260040160405180910390fd5b610d673385858403611085565b600061059b3384846114b0565b600061059f8261179d565b6001600160a01b038216600090815260686020526040812054610d9490836117b2565b83421115610f1f5760405163184f1e0160e11b8152600481018590524260248201526044016106ae565b60007f6e71edae12b1b97f4d1f60370fef10105fa2faae0126114a169c64845d6126c9888888610f4e8c611860565b6040805160208101969096526001600160a01b0394851690860152929091166060840152608083015260a082015260c0810186905260e0016040516020818303038152906040528051906020012090506000610fa982611888565b90506000610fb9828787876118d6565b9050896001600160a01b0316816001600160a01b03161461100057604051635091bef560e01b81526001600160a01b0380831660048301528b1660248201526044016106ae565b61100b8a8a8a611085565b50505050505050505050565b6001600160a01b039182166000908152606a6020908152604080832093909416825291909152205490565b60006fffffffffffffffffffffffffffffffff81836001811115611068576110686125bd565b146110755783811661107d565b608084901c81165b949350505050565b6001600160a01b03831615806110a257506001600160a01b038216155b156110d357604051637db368a160e01b81526001600160a01b038085166004830152831660248201526044016106ae565b6001600160a01b038381166000818152606a602090815260408083209487168084529482529182902085905590518481527f8c5be1e5ebec7d5bd14f71427d1e84f3dd0314c0f7b2291e5b200ac8c7c3b925910160405180910390a3505050565b600061059f611141610dd2565b611149611763565b8491906118fe565b60655460405163b0ff97b560e01b81523060048201526024810184905282151560448201526001600160a01b039091169063b0ff97b590606401600060405180830381600087803b1580156111a557600080fd5b505af11580156111b9573d6000803e3d6000fd5b505050505050565b6067546000906111d19082611042565b905060006111eb600160675461104290919063ffffffff16565b905082156111fe57908401908301611207565b90849003908390035b61121581608084901b61272c565b6067555050505050565b6000610d9482846125a9565b6000806112406065546001600160a01b031690565b6001600160a01b0316633154b6e26000856040518363ffffffff1660e01b815260040161126e92919061273f565b602060405180830381865afa15801561128b573d6000803e3d6000fd5b505050506040513d601f19601f820116820180604052508101906112af919061254d565b6112c490676765c793fa10079d601b1b61257c565b90506000611312826112d4610dd2565b156112fb576112e1610dd2565b6112f690676765c793fa10079d601b1b61257c565b6112fd565b835b610aa088676765c793fa10079d601b1b61257c565b95945050505050565b604051633f9b43b760e11b815260048101849052602481018390526000908190819073__$a7d7f0af96ad7248e2170a1364c3372171$__90637f36876e906044016040805180830381865af4158015611378573d6000803e3d6000fd5b505050506040513d601f19601f8201168201806040525081019061139c9190612371565b6040516399ed504f60e01b8152600481018390526024810182905260448101879052919350915073__$a7d7f0af96ad7248e2170a1364c3372171$__906399ed504f90606401602060405180830381865af41580156113ff573d6000803e3d6000fd5b505050506040513d601f19601f82011682018060405250810190611423919061254d565b9695505050505050565b603054610100900460ff166114545760405162461bcd60e51b81526004016106ae9061275c565b61145e8282611924565b5050565b600061146e8484611017565b905060001981146114aa578181101561149d576040516306052b7f60e01b8152600481018390526024016106ae565b6114aa8484848403611085565b50505050565b6001600160a01b03831615806114cd57506001600160a01b038216155b156114fe57604051637db368a160e01b81526001600160a01b038085166004830152831660248201526044016106ae565b600061150982611965565b6001600160a01b0385166000908152606860205260409020549091508181101561155f576040516315c29bad60e31b81526001600160a01b038616600482015260248101829052604481018390526064016106ae565b6001600160a01b0380861660008181526068602052604080822086860390559287168082529083902080548601905591517fddf252ad1be2c89b69c2b068fc378daa952ba7f163c4a11628f55a4df523b3ef906115bf9087815260200190565b60405180910390a35050505050565b6000806115dc84600061122b565b905080156116105761160b6115f08461197a565b82906f29c30f1029939b146664242d97d9f64960361b61131b565b61107d565b5060009392505050565b60006104f77f8b73c3c69bb8fe3d512ecc4cf759cc79239f7b179b0ffacaa9a75d522b39400f61164960315490565b6032546040805160208101859052908101839052606081018290524660808201523060a082015260009060c0016040516020818303038152906040528051906020012090509392505050565b6000806116aa6065546001600160a01b031690565b6001600160a01b0316633154b6e26000806040518363ffffffff1660e01b81526004016116d892919061273f565b602060405180830381865afa1580156116f5573d6000803e3d6000fd5b505050506040513d601f19601f82011682018060405250810190611719919061254d565b905061107d6117278461197a565b61175d611732610dd2565b61174790676765c793fa10079d601b1b61257c565b84610aa089676765c793fa10079d601b1b61257c565b906119db565b60006104f761177a6065546001600160a01b031690565b611a0d565b600082600019048411830215820261179657600080fd5b5091020490565b600061059f6117aa610dd2565b610e486104e7565b6000806117c76065546001600160a01b031690565b6001600160a01b0316633154b6e26000856040518363ffffffff1660e01b81526004016117f592919061273f565b602060405180830381865afa158015611812573d6000803e3d6000fd5b505050506040513d601f19601f82011682018060405250810190611836919061254d565b905061107d81611844610a1b565b1561185657611851610a1b565b611858565b825b86919061177f565b6001600160a01b03811660009081526069602052604090208054600181018255905b50919050565b600061059f61189561161a565b8360405161190160f01b6020820152602281018390526042810182905260009060620160405160208183030381529060405280519060200120905092915050565b60008060006118e787878787611a59565b915091506118f481611b46565b5095945050505050565b600082600019048411830215820261191557600080fd5b50910281810615159190040190565b603054610100900460ff1661194b5760405162461bcd60e51b81526004016106ae9061275c565b815160209283012081519190920120603191909155603255565b600061059f611972610dd2565b611149610a1b565b600061059f6f29c30f1029939b146664242d97d9f64960361b61199e846001610d71565b6001600160a01b0385166000908152606860205260409020546119c69064e8d4a5100061257c565b610aa090676765c793fa10079d601b1b61257c565b60006119e782846127a7565b156119f35760016119f6565b60005b60ff16611a0383856125a9565b610d94919061272c565b6040805160048152602481019091526020810180516001600160e01b0316636a57db9d60e11b179052600090611a438382611cfc565b905080806020019051810190610d94919061254d565b6000807f7fffffffffffffffffffffffffffffff5d576e7357a4501ddfe92f46681b20a0831115611a905750600090506003611b3d565b8460ff16601b14158015611aa857508460ff16601c14155b15611ab95750600090506004611b3d565b6040805160008082526020820180845289905260ff881692820192909252606081018690526080810185905260019060a0016020604051602081039080840390855afa158015611b0d573d6000803e3d6000fd5b5050604051601f1901519150506001600160a01b038116611b3657600060019250925050611b3d565b9150600090505b94509492505050565b6000816004811115611b5a57611b5a6125bd565b03611b625750565b6001816004811115611b7657611b766125bd565b03611bc35760405162461bcd60e51b815260206004820152601860248201527f45434453413a20696e76616c6964207369676e6174757265000000000000000060448201526064016106ae565b6002816004811115611bd757611bd76125bd565b03611c245760405162461bcd60e51b815260206004820152601f60248201527f45434453413a20696e76616c6964207369676e6174757265206c656e6774680060448201526064016106ae565b6003816004811115611c3857611c386125bd565b03611c905760405162461bcd60e51b815260206004820152602260248201527f45434453413a20696e76616c6964207369676e6174757265202773272076616c604482015261756560f01b60648201526084016106ae565b6004816004811115611ca457611ca46125bd565b036103a55760405162461bcd60e51b815260206004820152602260248201527f45434453413a20696e76616c6964207369676e6174757265202776272076616c604482015261756560f01b60648201526084016106ae565b6060610d9483836040518060600160405280602581526020016127d8602591396060600080856001600160a01b031685604051611d3991906127bb565b600060405180830381855afa9150503d8060008114611d74576040519150601f19603f3d011682016040523d82523d6000602084013e611d79565b606091505b50915091506114238683838760608315611df4578251600003611ded576001600160a01b0385163b611ded5760405162461bcd60e51b815260206004820152601d60248201527f416464726573733a2063616c6c20746f206e6f6e2d636f6e747261637400000060448201526064016106ae565b508161107d565b61107d8383815115611e095781518083602001fd5b8060405162461bcd60e51b81526004016106ae9190611ea5565b6001600160a01b03811681146103a557600080fd5b600060208284031215611e4a57600080fd5b8135610d9481611e23565b60005b83811015611e70578181015183820152602001611e58565b50506000910152565b60008151808452611e91816020860160208601611e55565b601f01601f19169290920160200192915050565b602081526000610d946020830184611e79565b60008060408385031215611ecb57600080fd5b8235611ed681611e23565b946020939093013593505050565b600060208284031215611ef657600080fd5b5035919050565b634e487b7160e01b600052604160045260246000fd5b601f8201601f1916810167ffffffffffffffff81118282101715611f3957611f39611efd565b6040525050565b600067ffffffffffffffff831115611f5a57611f5a611efd565b604051611f71601f8501601f191660200182611f13565b809150838152848484011115611f8657600080fd5b83836020830137600060208583010152509392505050565b60008060408385031215611fb157600080fd5b823567ffffffffffffffff811115611fc857600080fd5b8301601f81018513611fd957600080fd5b611fe885823560208401611f40565b9250506020830135611ff981611e23565b809150509250929050565b600082601f83011261201557600080fd5b610d9483833560208501611f40565b6000806000806080858703121561203a57600080fd5b843561204581611e23565b9350602085013561205581611e23565b9250604085013567ffffffffffffffff8082111561207257600080fd5b61207e88838901612004565b9350606087013591508082111561209457600080fd5b506120a187828801612004565b91505092959194509250565b6000806000606084860312156120c257600080fd5b83356120cd81611e23565b925060208401356120dd81611e23565b929592945050506040919091013590565b6000806040838503121561210157600080fd5b823561210c81611e23565b9150602083013560028110611ff957600080fd5b6000806040838503121561213357600080fd5b823591506020830135611ff981611e23565b60ff811681146103a557600080fd5b600080600080600080600060e0888a03121561216f57600080fd5b873561217a81611e23565b9650602088013561218a81611e23565b9550604088013594506060880135935060808801356121a881612145565b9699959850939692959460a0840135945060c09093013592915050565b600080604083850312156121d857600080fd5b82356121e381611e23565b91506020830135611ff981611e23565b600181811c9082168061220757607f821691505b60208210810361188257634e487b7160e01b600052602260045260246000fd5b600082601f83011261223857600080fd5b8151602067ffffffffffffffff82111561225457612254611efd565b8160051b60405161226783830182611f13565b9283528481018201928281018785111561228057600080fd5b83870192505b8483101561229d5782518152918301918301612286565b509695505050505050565b600080604083850312156122bb57600080fd5b825167ffffffffffffffff808211156122d357600080fd5b90840190606082870312156122e757600080fd5b60405160608101818110838211171561230257612302611efd565b8060405250825181526020830151602082015260408301518281111561232757600080fd5b61233388828601612227565b6040830152508094505050506020830151611ff981611e23565b6001600160a01b038316815260406020820181905260009061107d90830184611e79565b6000806040838503121561238457600080fd5b505080516020909101519092909150565b600060033d11156123ae5760046000803e5060005160e01c5b90565b600060443d10156123bf5790565b6040516003193d81016004833e81513d67ffffffffffffffff81602484011181841117156123ef57505050505090565b82850191508151818111156124075750505050505090565b843d87010160208285010111156124215750505050505090565b61243060208286010187611f13565b509095945050505050565b6000806040838503121561244e57600080fd5b825167ffffffffffffffff8082111561246657600080fd5b908401906040828703121561247a57600080fd5b60405160408101818110838211171561249557612495611efd565b604052825181526020830151828111156124ae57600080fd5b6124ba88828601612227565b6020830152508094505050506020830151611ff981611e23565b600060018060a01b0380861683526020818616818501526060604085015260a08401915084516060850152808501516040608086015282815180855260c0870191508383019450600092505b808310156125405784518252938301936001929092019190830190612520565b5098975050505050505050565b60006020828403121561255f57600080fd5b5051919050565b634e487b7160e01b600052601160045260246000fd5b808202811582820484141761059f5761059f612566565b634e487b7160e01b600052601260045260246000fd5b6000826125b8576125b8612593565b500490565b634e487b7160e01b600052602160045260246000fd5b600281106103a557634e487b7160e01b600052602160045260246000fd5b602081016125fe836125d3565b91905290565b601f82111561264a57600081815260208120601f850160051c8101602086101561262b5750805b601f850160051c820191505b818110156111b957828155600101612637565b505050565b815167ffffffffffffffff81111561266957612669611efd565b61267d8161267784546121f3565b84612604565b602080601f8311600181146126b2576000841561269a5750858301515b600019600386901b1c1916600185901b1785556111b9565b600085815260208120601f198616915b828110156126e1578886015182559484019460019091019084016126c2565b50858210156126ff5787850151600019600388901b60f8161c191681555b5050505050600190811b01905550565b60006020828403121561272157600080fd5b8151610d9481612145565b8082018082111561059f5761059f612566565b8281526040810161274f836125d3565b8260208301529392505050565b6020808252602b908201527f496e697469616c697a61626c653a20636f6e7472616374206973206e6f74206960408201526a6e697469616c697a696e6760a81b606082015260800190565b6000826127b6576127b6612593565b500690565b600082516127cd818460208701611e55565b919091019291505056fe416464726573733a206c6f772d6c6576656c207374617469632063616c6c206661696c6564a26469706673582212203f4bba8d71b57d6d1ff42c198f5f39c28562a8b9061269d8f7e5a55a53be8e6464736f6c63430008150033","linkReferences":{"contracts/libraries/Uint512.sol":{"Uint512":[{"start":5171,"length":20},{"start":5305,"length":20}]}}},"methodIdentifiers":{"DOMAIN_SEPARATOR()":"3644e515","FORMAT_DECIMALS()":"a01c8774","_convertToAssetsFromUnderlying(uint256)":"70a25869","allowance(address,address)":"dd62ed3e","approve(address,uint256)":"095ea7b3","asset()":"38d52e0f","balanceOf(address)":"70a08231","claimReward()":"b88a802f","convertToAssets(uint256,address)":"36103291","convertToShares(uint256)":"c6e6f592","convertToUnderlying(uint256)":"1dc7f521","decimals()":"313ce567","decreaseAllowance(address,uint256)":"a457c2d7","earned(address)":"008cc262","getRewardsData()":"7d098e64","increaseAllowance(address,uint256)":"39509351","initialize(address,address,string,string)":"2016a0d2","lastTimeRewardApplicable()":"80faa57d","mint(bytes,address)":"0cae37f1","name()":"06fdde03","nonces(address)":"7ecebe00","notifyRewardAmount(uint256)":"3c6b16ab","permit(address,address,uint256,uint256,uint8,bytes32,bytes32)":"d505accf","previewMint(uint256)":"b3d7f6b9","previewRedeem(uint256)":"4cdad506","previewWithdraw(uint256)":"0a28a477","redeem(bytes,address)":"0ba097d6","rewardPerToken()":"cd3daf9d","setRewardsDuration(uint256)":"cc1a378f","sharesOf(address)":"f5eb42dc","subBalanceOf(address,uint8)":"279d97ef","subBalanceOf2(address,uint8)":"cfec59de","subConvertToShares(uint256,address)":"4702a084","symbol()":"95d89b41","totalAssets()":"01e1d114","totalShares()":"3a98ef39","totalSupply()":"18160ddd","transfer(address,uint256)":"a9059cbb","transferFrom(address,address,uint256)":"23b872dd"},"id":47}