{"abi":[{"type":"constructor","inputs":[],"stateMutability":"nonpayable"},{"type":"function","name":"DOMAIN_SEPARATOR","inputs":[],"outputs":[{"name":"","type":"bytes32","internalType":"bytes32"}],"stateMutability":"view"},{"type":"function","name":"FORMAT_DECIMALS","inputs":[],"outputs":[{"name":"","type":"uint256","internalType":"uint256"}],"stateMutability":"view"},{"type":"function","name":"allowance","inputs":[{"name":"owner","type":"address","internalType":"address"},{"name":"spender","type":"address","internalType":"address"}],"outputs":[{"name":"","type":"uint256","internalType":"uint256"}],"stateMutability":"view"},{"type":"function","name":"approve","inputs":[{"name":"spender","type":"address","internalType":"address"},{"name":"amount","type":"uint256","internalType":"uint256"}],"outputs":[{"name":"","type":"bool","internalType":"bool"}],"stateMutability":"nonpayable"},{"type":"function","name":"asset","inputs":[],"outputs":[{"name":"","type":"address","internalType":"address"}],"stateMutability":"view"},{"type":"function","name":"balanceOf","inputs":[{"name":"account_","type":"address","internalType":"address"}],"outputs":[{"name":"","type":"uint256","internalType":"uint256"}],"stateMutability":"view"},{"type":"function","name":"claimReward","inputs":[],"outputs":[{"name":"","type":"uint256","internalType":"uint256"}],"stateMutability":"nonpayable"},{"type":"function","name":"convertToOzTokens","inputs":[{"name":"shares_","type":"uint256","internalType":"uint256"},{"name":"account_","type":"address","internalType":"address"}],"outputs":[{"name":"","type":"uint256","internalType":"UintRay"}],"stateMutability":"view"},{"type":"function","name":"convertToShares","inputs":[{"name":"assets_","type":"uint256","internalType":"uint256"},{"name":"account_","type":"address","internalType":"address"}],"outputs":[{"name":"","type":"uint256","internalType":"uint256"}],"stateMutability":"view"},{"type":"function","name":"convertToSharesFromOzBalance","inputs":[{"name":"ozBalance_","type":"uint256","internalType":"uint256"}],"outputs":[{"name":"","type":"uint256","internalType":"uint256"}],"stateMutability":"view"},{"type":"function","name":"convertToUnderlying","inputs":[{"name":"shares_","type":"uint256","internalType":"uint256"}],"outputs":[{"name":"","type":"uint256","internalType":"uint256"}],"stateMutability":"view"},{"type":"function","name":"decimals","inputs":[],"outputs":[{"name":"","type":"uint8","internalType":"uint8"}],"stateMutability":"pure"},{"type":"function","name":"decreaseAllowance","inputs":[{"name":"spender","type":"address","internalType":"address"},{"name":"subtractedValue","type":"uint256","internalType":"uint256"}],"outputs":[{"name":"","type":"bool","internalType":"bool"}],"stateMutability":"nonpayable"},{"type":"function","name":"earned","inputs":[{"name":"user_","type":"address","internalType":"address"}],"outputs":[{"name":"","type":"uint256","internalType":"uint256"}],"stateMutability":"view"},{"type":"function","name":"getRewardsData","inputs":[],"outputs":[{"name":"rewardRate","type":"uint256","internalType":"uint256"},{"name":"circulatingSupply","type":"uint256","internalType":"uint256"},{"name":"pendingAllocation","type":"uint256","internalType":"uint256"},{"name":"recicledSupply","type":"uint256","internalType":"uint256"},{"name":"durationLeft","type":"int256","internalType":"int256"}],"stateMutability":"view"},{"type":"function","name":"increaseAllowance","inputs":[{"name":"spender","type":"address","internalType":"address"},{"name":"addedValue","type":"uint256","internalType":"uint256"}],"outputs":[{"name":"","type":"bool","internalType":"bool"}],"stateMutability":"nonpayable"},{"type":"function","name":"initialize","inputs":[{"name":"underlying_","type":"address","internalType":"address"},{"name":"diamond_","type":"address","internalType":"address"},{"name":"name_","type":"string","internalType":"string"},{"name":"symbol_","type":"string","internalType":"string"}],"outputs":[],"stateMutability":"nonpayable"},{"type":"function","name":"lastTimeRewardApplicable","inputs":[],"outputs":[{"name":"","type":"uint256","internalType":"uint256"}],"stateMutability":"view"},{"type":"function","name":"mint","inputs":[{"name":"data_","type":"bytes","internalType":"bytes"},{"name":"owner_","type":"address","internalType":"address"}],"outputs":[{"name":"","type":"uint256","internalType":"uint256"}],"stateMutability":"nonpayable"},{"type":"function","name":"name","inputs":[],"outputs":[{"name":"","type":"string","internalType":"string"}],"stateMutability":"view"},{"type":"function","name":"nonces","inputs":[{"name":"owner","type":"address","internalType":"address"}],"outputs":[{"name":"","type":"uint256","internalType":"uint256"}],"stateMutability":"view"},{"type":"function","name":"notifyRewardAmount","inputs":[{"name":"amount_","type":"uint256","internalType":"uint256"}],"outputs":[],"stateMutability":"nonpayable"},{"type":"function","name":"permit","inputs":[{"name":"owner","type":"address","internalType":"address"},{"name":"spender","type":"address","internalType":"address"},{"name":"value","type":"uint256","internalType":"uint256"},{"name":"deadline","type":"uint256","internalType":"uint256"},{"name":"v","type":"uint8","internalType":"uint8"},{"name":"r","type":"bytes32","internalType":"bytes32"},{"name":"s_","type":"bytes32","internalType":"bytes32"}],"outputs":[],"stateMutability":"nonpayable"},{"type":"function","name":"redeem","inputs":[{"name":"data_","type":"bytes","internalType":"bytes"},{"name":"owner_","type":"address","internalType":"address"}],"outputs":[{"name":"","type":"uint256","internalType":"uint256"}],"stateMutability":"nonpayable"},{"type":"function","name":"rewardPerToken","inputs":[],"outputs":[{"name":"","type":"uint256","internalType":"uint256"}],"stateMutability":"view"},{"type":"function","name":"setRewardsDuration","inputs":[{"name":"duration_","type":"uint256","internalType":"uint256"}],"outputs":[],"stateMutability":"nonpayable"},{"type":"function","name":"sharesOf","inputs":[{"name":"account_","type":"address","internalType":"address"}],"outputs":[{"name":"","type":"uint256","internalType":"uint256"}],"stateMutability":"view"},{"type":"function","name":"symbol","inputs":[],"outputs":[{"name":"","type":"string","internalType":"string"}],"stateMutability":"view"},{"type":"function","name":"totalAssets","inputs":[],"outputs":[{"name":"","type":"uint256","internalType":"uint256"}],"stateMutability":"view"},{"type":"function","name":"totalShares","inputs":[],"outputs":[{"name":"","type":"uint256","internalType":"uint256"}],"stateMutability":"view"},{"type":"function","name":"totalSupply","inputs":[],"outputs":[{"name":"","type":"uint256","internalType":"uint256"}],"stateMutability":"view"},{"type":"function","name":"transfer","inputs":[{"name":"to","type":"address","internalType":"address"},{"name":"amount","type":"uint256","internalType":"uint256"}],"outputs":[{"name":"","type":"bool","internalType":"bool"}],"stateMutability":"nonpayable"},{"type":"function","name":"transferFrom","inputs":[{"name":"from","type":"address","internalType":"address"},{"name":"to","type":"address","internalType":"address"},{"name":"amount","type":"uint256","internalType":"uint256"}],"outputs":[{"name":"","type":"bool","internalType":"bool"}],"stateMutability":"nonpayable"},{"type":"event","name":"Approval","inputs":[{"name":"owner","type":"address","indexed":true,"internalType":"address"},{"name":"spender","type":"address","indexed":true,"internalType":"address"},{"name":"value","type":"uint256","indexed":false,"internalType":"uint256"}],"anonymous":false},{"type":"event","name":"Initialized","inputs":[{"name":"version","type":"uint8","indexed":false,"internalType":"uint8"}],"anonymous":false},{"type":"event","name":"OzTokenMinted","inputs":[{"name":"owner","type":"address","indexed":false,"internalType":"address"},{"name":"shares","type":"uint256","indexed":false,"internalType":"uint256"},{"name":"assets","type":"uint256","indexed":false,"internalType":"uint256"}],"anonymous":false},{"type":"event","name":"OzTokenRedeemed","inputs":[{"name":"owner","type":"address","indexed":false,"internalType":"address"},{"name":"ozAmountIn","type":"uint256","indexed":false,"internalType":"uint256"},{"name":"shares","type":"uint256","indexed":false,"internalType":"uint256"},{"name":"assets","type":"uint256","indexed":false,"internalType":"uint256"}],"anonymous":false},{"type":"event","name":"Transfer","inputs":[{"name":"from","type":"address","indexed":true,"internalType":"address"},{"name":"to","type":"address","indexed":true,"internalType":"address"},{"name":"value","type":"uint256","indexed":false,"internalType":"uint256"}],"anonymous":false},{"type":"error","name":"OZError03","inputs":[]},{"type":"error","name":"OZError04","inputs":[{"name":"from","type":"address","internalType":"address"},{"name":"to","type":"address","internalType":"address"}]},{"type":"error","name":"OZError05","inputs":[{"name":"amount","type":"uint256","internalType":"uint256"}]},{"type":"error","name":"OZError06","inputs":[{"name":"sender","type":"address","internalType":"address"},{"name":"accountShares","type":"uint256","internalType":"uint256"},{"name":"shares","type":"uint256","internalType":"uint256"}]},{"type":"error","name":"OZError07","inputs":[{"name":"from","type":"address","internalType":"address"},{"name":"fromShares","type":"uint256","internalType":"uint256"},{"name":"shares","type":"uint256","internalType":"uint256"}]},{"type":"error","name":"OZError08","inputs":[{"name":"deadline","type":"uint256","internalType":"uint256"},{"name":"blockTimestamp","type":"uint256","internalType":"uint256"}]},{"type":"error","name":"OZError09","inputs":[{"name":"owner","type":"address","internalType":"address"},{"name":"spender","type":"address","internalType":"address"}]},{"type":"error","name":"OZError22","inputs":[{"name":"reason","type":"string","internalType":"string"}]},{"type":"error","name":"OZError35","inputs":[{"name":"ozAmountIn","type":"uint256","internalType":"uint256"}]},{"type":"error","name":"OZError37","inputs":[]},{"type":"error","name":"OZError38","inputs":[]},{"type":"error","name":"OZError39","inputs":[{"name":"data","type":"bytes","internalType":"bytes"}]}],"bytecode":{"object":"0x608060405234801562000010575f80fd5b506200001b62000021565b620000e3565b603154610100900460ff16156200008e5760405162461bcd60e51b815260206004820152602760248201527f496e697469616c697a61626c653a20636f6e747261637420697320696e697469604482015266616c697a696e6760c81b606482015260840160405180910390fd5b60315460ff9081161015620000e1576031805460ff191660ff9081179091556040519081527f7f26b83ff96e1f2b6a682f133852f6798a09c465da95921460cefb38474024989060200160405180910390a15b565b61262180620000f15f395ff3fe608060405234801561000f575f80fd5b50600436106101f1575f3560e01c806369e41c6211610114578063a9059cbb116100a9578063cd3daf9d11610079578063cd3daf9d14610387578063d295fa9a146103d7578063d505accf146103ea578063dd62ed3e146103fd578063f5eb42dc14610410575f80fd5b8063a9059cbb146103b1578063b88a802f14610387578063bc93f1cf146103c4578063cc1a378f14610311575f80fd5b806380faa57d116100e457806380faa57d1461038757806395d89b411461038d578063a01c877414610395578063a457c2d71461039e575f80fd5b806369e41c621461032257806370a08231146103355780637d098e64146103485780637ecebe0014610374575f80fd5b80632016a0d21161018a57806338d52e0f1161015a57806338d52e0f146102db57806339509351146102f65780633a98ef39146103095780633c6b16ab14610311575f80fd5b80632016a0d21461029c57806323b872dd146102b1578063313ce567146102c45780633644e515146102d3575f80fd5b80630ba097d6116101c55780630ba097d61461025b5780630cae37f11461026e57806318160ddd146102815780631dc7f52114610289575f80fd5b80628cc262146101f557806301e1d1141461021b57806306fdde0314610223578063095ea7b314610238575b5f80fd5b610208610203366004611c09565b505f90565b6040519081526020015b60405180910390f35b610208610438565b61022b61044c565b6040516102129190611c67565b61024b610246366004611c79565b6104dc565b6040519015158152602001610212565b610208610269366004611d3f565b6104f2565b61020861027c366004611d3f565b6108dd565b610208610b9b565b610208610297366004611da1565b610bfd565b6102af6102aa366004611dd6565b610c8a565b005b61024b6102bf366004611e5a565b610e86565b60405160128152602001610212565b610208610ea7565b6067546040516001600160a01b039091168152602001610212565b61024b610304366004611c79565b610eb0565b610208610ed0565b6102af61031f366004611da1565b50565b610208610330366004611da1565b610ee0565b610208610343366004611c09565b610efc565b604080515f8082526020820181905291810182905260608101829052608081019190915260a001610212565b610208610382366004611c09565b610f27565b5f610208565b61022b610f44565b610208606e5481565b61024b6103ac366004611c79565b610f53565b61024b6103bf366004611c79565b610f8f565b6102086103d2366004611e98565b610f9b565b6102086103e5366004611e98565b610fe9565b6102af6103f8366004611ec9565b611095565b61020861040b366004611f35565b6111b4565b61020861041e366004611c09565b6001600160a01b03165f9081526069602052604090205490565b6068545f9061044790826111de565b905090565b6060606c805461045b90611f61565b80601f016020809104026020016040519081016040528092919081815260200182805461048790611f61565b80156104d25780601f106104a9576101008083540402835291602001916104d2565b820191905f5260205f20905b8154815290600101906020018083116104b557829003601f168201915b5050505050905090565b5f6104e8338484611220565b5060015b92915050565b5f7fd979d933a329cda0d1d95e3d7a8aaccfc305f1200c53a87f37e6841bb793452c805c156105345760405163b955425560e01b815260048101604052600481fd5b6001815d60665483906001600160a01b031680156105a6576040516241fec360e31b81526001600160a01b03838116600483015282169063020ff618906024015f604051808303815f87803b15801561058b575f80fd5b505af115801561059d573d5f803e3d5ffd5b505050506105e7565b5f601a555f6018556001600160a01b038216156105e7576001600160a01b0382165f908152601e60209081526040808320839055601a54601d909252909120555b855161010014610615578560405163041979eb60e41b815260040161060c9190611c67565b60405180910390fd5b5f808780602001905181019061062b9190612011565b815191935091506001600160a01b038816158061064f57506001600160a01b038216155b1561066d57604051632534b66960e21b815260040160405180910390fd5b6729a2241af62c000081101561069957604051631a98558360e21b81526004810182905260240161060c565b6001600160a01b0388165f90815260696020526040812054906106bc838b610fe9565b9050808210156106f857604051637ac073bf60e01b81526001600160a01b038b166004820152602481018390526044810182905260640161060c565b5f81905060665f9054906101000a90046001600160a01b03166001600160a01b031663a1b86b388c8e6040518363ffffffff1660e01b815260040161073e9291906120b1565b60408051808303815f875af1925050508015610777575060408051601f3d908101601f19168201909252610774918101906120d4565b60015b6107c7576107836120f6565b806308c379a0036107bd575061079761210f565b806107a257506107bf565b80604051631bc63b8160e01b815260040161060c9190611c67565b505b3d5f803e3d5ffd5b6107d1825f6112ce565b6066546001600160a01b03165f9081526069602052604090205494506107f883865f611339565b5f60695f60665f9054906101000a90046001600160a01b03166001600160a01b03166001600160a01b031681526020019081526020015f208190555082606f5f8f6001600160a01b03166001600160a01b031681526020019081526020015f205f82825403925050819055507f4181bb2dd7cb8bbe372dc317652857a2e512544faeba7c902b5e80107831732b8d8786866040516108ba94939291906001600160a01b0394909416845260208401929092526040830152606082015260800190565b60405180910390a19a506108d19650505050505050565b50505f815d5092915050565b5f7fd979d933a329cda0d1d95e3d7a8aaccfc305f1200c53a87f37e6841bb793452c805c1561091f5760405163b955425560e01b815260048101604052600481fd5b6001815d60665483906001600160a01b03168015610991576040516241fec360e31b81526001600160a01b03838116600483015282169063020ff618906024015f604051808303815f87803b158015610976575f80fd5b505af1158015610988573d5f803e3d5ffd5b505050506109d2565b5f601a555f6018556001600160a01b038216156109d2576001600160a01b0382165f908152601e60209081526040808320839055601a54601d909252909120555b855160e0146109f6578560405163041979eb60e41b815260040161060c9190611c67565b5f8087806020019051810190610a0c9190612198565b815191935091505f03610a325760405163e5da5c7360e01b815260040160405180910390fd5b6001600160a01b0387161580610a4f57506001600160a01b038116155b15610a6d57604051632534b66960e21b815260040160405180910390fd5b606e5482515f91610a7e9190611395565b6066549091506001600160a01b0316639ea04fe4610aa46067546001600160a01b031690565b8a866040518463ffffffff1660e01b8152600401610ac49392919061222c565b6020604051808303815f875af1925050508015610afe575060408051601f3d908101601f19168201909252610afb918101906122a6565b60015b610b0a576107836120f6565b610b158160016112ce565b81610b2281806001611339565b6001600160a01b038481165f908152606960209081526040808320805486019055606f8252918290208054870190558151928d168352820183905281018490527fcb7696223ea9f009e8eb0ecd9af1e430306b6c7c719e906d4a4af52bcba6353a9060600160405180910390a197506108d19350505050565b5f610ba4610ed0565b1561020357610447610bf8610bce610bba610438565b610bc99064e8d4a510006122d1565b6113a7565b610be0610bd9610ed0565b60016113be565b610bf1610beb610ed0565b5f6113be565b919061146f565b611585565b5f610c06610ed0565b60665460405163a4fc284b60e01b81526001600160a01b039091169063a4fc284b90610c3790600190600401612318565b602060405180830381865afa158015610c52573d5f803e3d5ffd5b505050506040513d601f19601f82011682018060405250810190610c7691906122a6565b610c8090846122d1565b6104ec919061233f565b603154610100900460ff1615808015610caa5750603154600160ff909116105b80610cc45750303b158015610cc4575060315460ff166001145b610d275760405162461bcd60e51b815260206004820152602e60248201527f496e697469616c697a61626c653a20636f6e747261637420697320616c72656160448201526d191e481a5b9a5d1a585b1a5e995960921b606482015260840161060c565b6031805460ff191660011790558015610d4a576031805461ff0019166101001790555b606c610d56848261239b565b50606d610d63838261239b565b50606680546001600160a01b038087166001600160a01b03199283161790925560678054928816929091169190911790556040805180820190915260018152603160f81b6020820152610db790849061159c565b846001600160a01b031663313ce5676040518163ffffffff1660e01b8152600401602060405180830381865afa158015610df3573d5f803e3d5ffd5b505050506040513d601f19601f82011682018060405250810190610e179190612457565b60ff16601214610e28576001610e2f565b64e8d4a510005b64ffffffffff16606e558015610e7f576031805461ff0019169055604051600181527f7f26b83ff96e1f2b6a682f133852f6798a09c465da95921460cefb38474024989060200160405180910390a15b5050505050565b5f610e928433846115d1565b610e9d84848461161d565b5060019392505050565b5f610447611738565b5f6104e8338484610ec133886111b4565b610ecb9190612472565b611220565b6068545f906104479060016111de565b5f6104ec610eec610ed0565b610ef4610b9b565b8491906117b1565b5f6104ec610bf8610f21846001600160a01b03165f9081526069602052604090205490565b84610f9b565b6001600160a01b0381165f908152606a60205260408120546104ec565b6060606d805461045b90611f61565b5f80610f5f33856111b4565b905082811015610f82576040516361ceb1d360e01b815260040160405180910390fd5b610e9d3385858403611220565b5f6104e833848461161d565b5f80610fa7845f6113be565b90508015610fdf57610fda610fbb846117d4565b610fd26b033b2e3c9fd0803ce8000000600261183b565b83919061146f565b610fe1565b5f5b949350505050565b5f80610ffd6066546001600160a01b031690565b6001600160a01b0316633154b6e25f806040518363ffffffff1660e01b815260040161102a929190612485565b602060405180830381865afa158015611045573d5f803e3d5ffd5b505050506040513d601f19601f8201168201806040525081019061106991906122a6565b9050610fe1611077846117d4565b61108f611085610bc9610ed0565b84610bf1896113a7565b90611846565b834211156110bf5760405163184f1e0160e11b81526004810185905242602482015260440161060c565b5f7f6e71edae12b1b97f4d1f60370fef10105fa2faae0126114a169c64845d6126c98888886110ed8c611881565b6040805160208101969096526001600160a01b0394851690860152929091166060840152608083015260a082015260c0810186905260e0016040516020818303038152906040528051906020012090505f611147826118a8565b90505f611156828787876118f4565b9050896001600160a01b0316816001600160a01b03161461119d57604051635091bef560e01b81526001600160a01b0380831660048301528b16602482015260440161060c565b6111a88a8a8a611220565b50505050505050505050565b6001600160a01b039182165f908152606b6020908152604080832093909416825291909152205490565b5f6fffffffffffffffffffffffffffffffff81836001811115611203576112036122e8565b1461121057838116610fe1565b608084901c811691505092915050565b6001600160a01b038316158061123d57506001600160a01b038216155b1561126e57604051637db368a160e01b81526001600160a01b0380851660048301528316602482015260440161060c565b6001600160a01b038381165f818152606b602090815260408083209487168084529482529182902085905590518481527f8c5be1e5ebec7d5bd14f71427d1e84f3dd0314c0f7b2291e5b200ac8c7c3b925910160405180910390a3505050565b60665460405163b0ff97b560e01b81523060048201526024810184905282151560448201526001600160a01b039091169063b0ff97b5906064015f604051808303815f87803b15801561131f575f80fd5b505af1158015611331573d5f803e3d5ffd5b505050505050565b6068545f9061134890826111de565b90505f61136160016068546111de90919063ffffffff16565b905082156113745790840190830161137d565b90849003908390035b61138b81608084901b612472565b6068555050505050565b5f6113a0828461233f565b9392505050565b5f6104ec826b033b2e3c9fd0803ce80000006122d1565b5f806114416113d56066546001600160a01b031690565b6001600160a01b0316633154b6e25f866040518363ffffffff1660e01b8152600401611402929190612485565b602060405180830381865afa15801561141d573d5f803e3d5ffd5b505050506040513d601f19601f82011682018060405250810190610bc991906122a6565b9050610fe18161144f610ed0565b156114645761145f610bc9610ed0565b611466565b825b610bf1876113a7565b604051633f9b43b760e11b815260048101849052602481018390525f908490849084908490819073__$a7d7f0af96ad7248e2170a1364c3372171$__90637f36876e906044016040805180830381865af41580156114cf573d5f803e3d5ffd5b505050506040513d601f19601f820116820180604052508101906114f391906120d4565b6040516399ed504f60e01b8152600481018390526024810182905260448101869052919350915073__$a7d7f0af96ad7248e2170a1364c3372171$__906399ed504f90606401602060405180830381865af4158015611554573d5f803e3d5ffd5b505050506040513d601f19601f8201168201806040525081019061157891906122a6565b9998505050505050505050565b5f6104ec6b033b2e3c9fd0803ce80000008361233f565b603154610100900460ff166115c35760405162461bcd60e51b815260040161060c906124a2565b6115cd828261191a565b5050565b5f6115dc84846111b4565b90505f198114611617578181101561160a576040516306052b7f60e01b81526004810183905260240161060c565b6116178484848403611220565b50505050565b6001600160a01b038316158061163a57506001600160a01b038216155b1561166b57604051637db368a160e01b81526001600160a01b0380851660048301528316602482015260440161060c565b5f61167582610ee0565b6001600160a01b0385165f90815260696020526040902054909150818110156116ca576040516315c29bad60e31b81526001600160a01b0386166004820152602481018290526044810183905260640161060c565b6001600160a01b038086165f8181526069602052604080822086860390559287168082529083902080548601905591517fddf252ad1be2c89b69c2b068fc378daa952ba7f163c4a11628f55a4df523b3ef906117299087815260200190565b60405180910390a35050505050565b5f6104477f8b73c3c69bb8fe3d512ecc4cf759cc79239f7b179b0ffacaa9a75d522b39400f61176660325490565b6033546040805160208101859052908101839052606081018290524660808201523060a08201525f9060c0016040516020818303038152906040528051906020012090509392505050565b5f825f1904841183021582026117c5575f80fd5b50910281810615159190040190565b5f6104ec6117ef6b033b2e3c9fd0803ce8000000600261183b565b611810610bd9856001600160a01b03165f9081526069602052604090205490565b6001600160a01b0385165f90815260696020526040902054610bf190610bc99064e8d4a510006122d1565b5f6113a082846125cd565b5f828261185381836125d8565b1561185f576001611861565b5f5b60ff1661186e828461233f565b6118789190612472565b95945050505050565b6001600160a01b0381165f908152606a602052604090208054600181018255905b50919050565b5f6104ec6118b4611738565b8360405161190160f01b602082015260228101839052604281018290525f9060620160405160208183030381529060405280519060200120905092915050565b5f805f6119038787878761195b565b9150915061191081611a40565b5095945050505050565b603154610100900460ff166119415760405162461bcd60e51b815260040161060c906124a2565b815160209283012081519190920120603291909155603355565b5f807f7fffffffffffffffffffffffffffffff5d576e7357a4501ddfe92f46681b20a083111561199057505f90506003611a37565b8460ff16601b141580156119a857508460ff16601c14155b156119b857505f90506004611a37565b604080515f8082526020820180845289905260ff881692820192909252606081018690526080810185905260019060a0016020604051602081039080840390855afa158015611a09573d5f803e3d5ffd5b5050604051601f1901519150506001600160a01b038116611a31575f60019250925050611a37565b91505f90505b94509492505050565b5f816004811115611a5357611a536122e8565b03611a5b5750565b6001816004811115611a6f57611a6f6122e8565b03611abc5760405162461bcd60e51b815260206004820152601860248201527f45434453413a20696e76616c6964207369676e61747572650000000000000000604482015260640161060c565b6002816004811115611ad057611ad06122e8565b03611b1d5760405162461bcd60e51b815260206004820152601f60248201527f45434453413a20696e76616c6964207369676e6174757265206c656e67746800604482015260640161060c565b6003816004811115611b3157611b316122e8565b03611b895760405162461bcd60e51b815260206004820152602260248201527f45434453413a20696e76616c6964207369676e6174757265202773272076616c604482015261756560f01b606482015260840161060c565b6004816004811115611b9d57611b9d6122e8565b0361031f5760405162461bcd60e51b815260206004820152602260248201527f45434453413a20696e76616c6964207369676e6174757265202776272076616c604482015261756560f01b606482015260840161060c565b6001600160a01b038116811461031f575f80fd5b5f60208284031215611c19575f80fd5b81356113a081611bf5565b5f81518084525f5b81811015611c4857602081850181015186830182015201611c2c565b505f602082860101526020601f19601f83011685010191505092915050565b602081525f6113a06020830184611c24565b5f8060408385031215611c8a575f80fd5b8235611c9581611bf5565b946020939093013593505050565b634e487b7160e01b5f52604160045260245ffd5b601f8201601f1916810167ffffffffffffffff81118282101715611cdd57611cdd611ca3565b6040525050565b5f67ffffffffffffffff831115611cfd57611cfd611ca3565b604051611d14601f8501601f191660200182611cb7565b809150838152848484011115611d28575f80fd5b838360208301375f60208583010152509392505050565b5f8060408385031215611d50575f80fd5b823567ffffffffffffffff811115611d66575f80fd5b8301601f81018513611d76575f80fd5b611d8585823560208401611ce4565b9250506020830135611d9681611bf5565b809150509250929050565b5f60208284031215611db1575f80fd5b5035919050565b5f82601f830112611dc7575f80fd5b6113a083833560208501611ce4565b5f805f8060808587031215611de9575f80fd5b8435611df481611bf5565b93506020850135611e0481611bf5565b9250604085013567ffffffffffffffff80821115611e20575f80fd5b611e2c88838901611db8565b93506060870135915080821115611e41575f80fd5b50611e4e87828801611db8565b91505092959194509250565b5f805f60608486031215611e6c575f80fd5b8335611e7781611bf5565b92506020840135611e8781611bf5565b929592945050506040919091013590565b5f8060408385031215611ea9575f80fd5b823591506020830135611d9681611bf5565b60ff8116811461031f575f80fd5b5f805f805f805f60e0888a031215611edf575f80fd5b8735611eea81611bf5565b96506020880135611efa81611bf5565b955060408801359450606088013593506080880135611f1881611ebb565b9699959850939692959460a0840135945060c09093013592915050565b5f8060408385031215611f46575f80fd5b8235611f5181611bf5565b91506020830135611d9681611bf5565b600181811c90821680611f7557607f821691505b6020821081036118a257634e487b7160e01b5f52602260045260245ffd5b5f82601f830112611fa2575f80fd5b8151602067ffffffffffffffff821115611fbe57611fbe611ca3565b8160051b604051611fd183830182611cb7565b92835284810182019282810187851115611fe9575f80fd5b83870192505b848310156120065782518152918301918301611fef565b509695505050505050565b5f8060408385031215612022575f80fd5b825167ffffffffffffffff80821115612039575f80fd5b908401906060828703121561204c575f80fd5b60405160608101818110838211171561206757612067611ca3565b8060405250825181526020830151602082015260408301518281111561208b575f80fd5b61209788828601611f93565b6040830152508094505050506020830151611d9681611bf5565b6001600160a01b03831681526040602082018190525f90610fe190830184611c24565b5f80604083850312156120e5575f80fd5b505080516020909101519092909150565b5f60033d111561210c5760045f803e505f5160e01c5b90565b5f60443d101561211c5790565b6040516003193d81016004833e81513d67ffffffffffffffff816024840111818411171561214c57505050505090565b82850191508151818111156121645750505050505090565b843d870101602082850101111561217e5750505050505090565b61218d60208286010187611cb7565b509095945050505050565b5f80604083850312156121a9575f80fd5b825167ffffffffffffffff808211156121c0575f80fd5b90840190604082870312156121d3575f80fd5b6040516040810181811083821117156121ee576121ee611ca3565b60405282518152602083015182811115612206575f80fd5b61221288828601611f93565b6020830152508094505050506020830151611d9681611bf5565b5f60018060a01b038086168352602081861660208501526060604085015260a0840191508451606085015260208501516040608086015282815180855260c0870191506020830194505f92505b808310156122995784518252938301936001929092019190830190612279565b5098975050505050505050565b5f602082840312156122b6575f80fd5b5051919050565b634e487b7160e01b5f52601160045260245ffd5b80820281158282048414176104ec576104ec6122bd565b634e487b7160e01b5f52602160045260245ffd5b6002811061031f57634e487b7160e01b5f52602160045260245ffd5b60208101612325836122fc565b91905290565b634e487b7160e01b5f52601260045260245ffd5b5f8261234d5761234d61232b565b500490565b601f82111561239657805f5260205f20601f840160051c810160208510156123775750805b601f840160051c820191505b81811015610e7f575f8155600101612383565b505050565b815167ffffffffffffffff8111156123b5576123b5611ca3565b6123c9816123c38454611f61565b84612352565b602080601f8311600181146123fc575f84156123e55750858301515b5f19600386901b1c1916600185901b178555611331565b5f85815260208120601f198616915b8281101561242a5788860151825594840194600190910190840161240b565b508582101561244757878501515f19600388901b60f8161c191681555b5050505050600190811b01905550565b5f60208284031215612467575f80fd5b81516113a081611ebb565b808201808211156104ec576104ec6122bd565b82815260408101612495836122fc565b8260208301529392505050565b6020808252602b908201527f496e697469616c697a61626c653a20636f6e7472616374206973206e6f74206960408201526a6e697469616c697a696e6760a81b606082015260800190565b600181815b8085111561252757815f190482111561250d5761250d6122bd565b8085161561251a57918102915b93841c93908002906124f2565b509250929050565b5f8261253d575060016104ec565b8161254957505f6104ec565b816001811461255f576002811461256957612585565b60019150506104ec565b60ff84111561257a5761257a6122bd565b50506001821b6104ec565b5060208310610133831016604e8410600b84101617156125a8575081810a6104ec565b6125b283836124ed565b805f19048211156125c5576125c56122bd565b029392505050565b5f6113a0838361252f565b5f826125e6576125e661232b565b50069056fea26469706673582212205383bd698bb8da6330866c9e7768ee7ddb1f3752fff2d70db7deba26860484f364736f6c63430008180033","linkReferences":{"contracts/libraries/Uint512.sol":{"Uint512":[{"start":5513,"length":20},{"start":5645,"length":20}]}}},"methodIdentifiers":{"DOMAIN_SEPARATOR()":"3644e515","FORMAT_DECIMALS()":"a01c8774","allowance(address,address)":"dd62ed3e","approve(address,uint256)":"095ea7b3","asset()":"38d52e0f","balanceOf(address)":"70a08231","claimReward()":"b88a802f","convertToOzTokens(uint256,address)":"bc93f1cf","convertToShares(uint256,address)":"d295fa9a","convertToSharesFromOzBalance(uint256)":"69e41c62","convertToUnderlying(uint256)":"1dc7f521","decimals()":"313ce567","decreaseAllowance(address,uint256)":"a457c2d7","earned(address)":"008cc262","getRewardsData()":"7d098e64","increaseAllowance(address,uint256)":"39509351","initialize(address,address,string,string)":"2016a0d2","lastTimeRewardApplicable()":"80faa57d","mint(bytes,address)":"0cae37f1","name()":"06fdde03","nonces(address)":"7ecebe00","notifyRewardAmount(uint256)":"3c6b16ab","permit(address,address,uint256,uint256,uint8,bytes32,bytes32)":"d505accf","redeem(bytes,address)":"0ba097d6","rewardPerToken()":"cd3daf9d","setRewardsDuration(uint256)":"cc1a378f","sharesOf(address)":"f5eb42dc","symbol()":"95d89b41","totalAssets()":"01e1d114","totalShares()":"3a98ef39","totalSupply()":"18160ddd","transfer(address,uint256)":"a9059cbb","transferFrom(address,address,uint256)":"23b872dd"},"id":44}