{
  "abi": [
    {
      "inputs": [],
      "stateMutability": "nonpayable",
      "type": "constructor"
    },
    {
      "anonymous": false,
      "inputs": [
        {
          "indexed": true,
          "internalType": "address",
          "name": "owner",
          "type": "address"
        },
        {
          "indexed": true,
          "internalType": "address",
          "name": "spender",
          "type": "address"
        },
        {
          "indexed": false,
          "internalType": "uint256",
          "name": "value",
          "type": "uint256"
        }
      ],
      "name": "Approval",
      "type": "event"
    },
    {
      "anonymous": false,
      "inputs": [
        {
          "indexed": true,
          "internalType": "address",
          "name": "caller",
          "type": "address"
        },
        {
          "indexed": true,
          "internalType": "address",
          "name": "owner",
          "type": "address"
        },
        {
          "indexed": false,
          "internalType": "uint256",
          "name": "assets",
          "type": "uint256"
        },
        {
          "indexed": false,
          "internalType": "uint256",
          "name": "shares",
          "type": "uint256"
        }
      ],
      "name": "Deposit",
      "type": "event"
    },
    {
      "anonymous": false,
      "inputs": [
        {
          "indexed": false,
          "internalType": "uint8",
          "name": "version",
          "type": "uint8"
        }
      ],
      "name": "Initialized",
      "type": "event"
    },
    {
      "anonymous": false,
      "inputs": [
        {
          "indexed": true,
          "internalType": "address",
          "name": "from",
          "type": "address"
        },
        {
          "indexed": true,
          "internalType": "address",
          "name": "to",
          "type": "address"
        },
        {
          "indexed": false,
          "internalType": "uint256",
          "name": "value",
          "type": "uint256"
        }
      ],
      "name": "Transfer",
      "type": "event"
    },
    {
      "anonymous": false,
      "inputs": [
        {
          "indexed": true,
          "internalType": "address",
          "name": "caller",
          "type": "address"
        },
        {
          "indexed": true,
          "internalType": "address",
          "name": "receiver",
          "type": "address"
        },
        {
          "indexed": true,
          "internalType": "address",
          "name": "owner",
          "type": "address"
        },
        {
          "indexed": false,
          "internalType": "uint256",
          "name": "assets",
          "type": "uint256"
        },
        {
          "indexed": false,
          "internalType": "uint256",
          "name": "shares",
          "type": "uint256"
        }
      ],
      "name": "Withdraw",
      "type": "event"
    },
    {
      "inputs": [
        {
          "internalType": "address",
          "name": "owner",
          "type": "address"
        },
        {
          "internalType": "address",
          "name": "spender",
          "type": "address"
        }
      ],
      "name": "allowance",
      "outputs": [
        {
          "internalType": "uint256",
          "name": "",
          "type": "uint256"
        }
      ],
      "stateMutability": "view",
      "type": "function"
    },
    {
      "inputs": [
        {
          "internalType": "address",
          "name": "spender",
          "type": "address"
        },
        {
          "internalType": "uint256",
          "name": "amount",
          "type": "uint256"
        }
      ],
      "name": "approve",
      "outputs": [
        {
          "internalType": "bool",
          "name": "",
          "type": "bool"
        }
      ],
      "stateMutability": "nonpayable",
      "type": "function"
    },
    {
      "inputs": [],
      "name": "asset",
      "outputs": [
        {
          "internalType": "address",
          "name": "",
          "type": "address"
        }
      ],
      "stateMutability": "view",
      "type": "function"
    },
    {
      "inputs": [
        {
          "internalType": "address",
          "name": "account",
          "type": "address"
        }
      ],
      "name": "balanceOf",
      "outputs": [
        {
          "internalType": "uint256",
          "name": "",
          "type": "uint256"
        }
      ],
      "stateMutability": "view",
      "type": "function"
    },
    {
      "inputs": [
        {
          "internalType": "uint256",
          "name": "shares",
          "type": "uint256"
        }
      ],
      "name": "convertToAssets",
      "outputs": [
        {
          "internalType": "uint256",
          "name": "assets",
          "type": "uint256"
        }
      ],
      "stateMutability": "view",
      "type": "function"
    },
    {
      "inputs": [
        {
          "internalType": "uint256",
          "name": "assets",
          "type": "uint256"
        }
      ],
      "name": "convertToShares",
      "outputs": [
        {
          "internalType": "uint256",
          "name": "shares",
          "type": "uint256"
        }
      ],
      "stateMutability": "view",
      "type": "function"
    },
    {
      "inputs": [],
      "name": "decimals",
      "outputs": [
        {
          "internalType": "uint8",
          "name": "",
          "type": "uint8"
        }
      ],
      "stateMutability": "view",
      "type": "function"
    },
    {
      "inputs": [
        {
          "internalType": "address",
          "name": "spender",
          "type": "address"
        },
        {
          "internalType": "uint256",
          "name": "subtractedValue",
          "type": "uint256"
        }
      ],
      "name": "decreaseAllowance",
      "outputs": [
        {
          "internalType": "bool",
          "name": "",
          "type": "bool"
        }
      ],
      "stateMutability": "nonpayable",
      "type": "function"
    },
    {
      "inputs": [
        {
          "internalType": "uint256",
          "name": "assets",
          "type": "uint256"
        },
        {
          "internalType": "address",
          "name": "receiver",
          "type": "address"
        }
      ],
      "name": "deposit",
      "outputs": [
        {
          "internalType": "uint256",
          "name": "",
          "type": "uint256"
        }
      ],
      "stateMutability": "nonpayable",
      "type": "function"
    },
    {
      "inputs": [
        {
          "internalType": "address",
          "name": "spender",
          "type": "address"
        },
        {
          "internalType": "uint256",
          "name": "addedValue",
          "type": "uint256"
        }
      ],
      "name": "increaseAllowance",
      "outputs": [
        {
          "internalType": "bool",
          "name": "",
          "type": "bool"
        }
      ],
      "stateMutability": "nonpayable",
      "type": "function"
    },
    {
      "inputs": [
        {
          "internalType": "address",
          "name": "underlying_",
          "type": "address"
        },
        {
          "internalType": "address",
          "name": "diamond_",
          "type": "address"
        },
        {
          "internalType": "string",
          "name": "name_",
          "type": "string"
        },
        {
          "internalType": "string",
          "name": "symbol_",
          "type": "string"
        },
        {
          "internalType": "uint8",
          "name": "decimals_",
          "type": "uint8"
        }
      ],
      "name": "initialize",
      "outputs": [],
      "stateMutability": "nonpayable",
      "type": "function"
    },
    {
      "inputs": [
        {
          "internalType": "address",
          "name": "",
          "type": "address"
        }
      ],
      "name": "maxDeposit",
      "outputs": [
        {
          "internalType": "uint256",
          "name": "",
          "type": "uint256"
        }
      ],
      "stateMutability": "view",
      "type": "function"
    },
    {
      "inputs": [
        {
          "internalType": "address",
          "name": "",
          "type": "address"
        }
      ],
      "name": "maxMint",
      "outputs": [
        {
          "internalType": "uint256",
          "name": "",
          "type": "uint256"
        }
      ],
      "stateMutability": "view",
      "type": "function"
    },
    {
      "inputs": [
        {
          "internalType": "address",
          "name": "owner",
          "type": "address"
        }
      ],
      "name": "maxRedeem",
      "outputs": [
        {
          "internalType": "uint256",
          "name": "",
          "type": "uint256"
        }
      ],
      "stateMutability": "view",
      "type": "function"
    },
    {
      "inputs": [
        {
          "internalType": "address",
          "name": "owner",
          "type": "address"
        }
      ],
      "name": "maxWithdraw",
      "outputs": [
        {
          "internalType": "uint256",
          "name": "",
          "type": "uint256"
        }
      ],
      "stateMutability": "view",
      "type": "function"
    },
    {
      "inputs": [
        {
          "internalType": "uint256",
          "name": "shares",
          "type": "uint256"
        },
        {
          "internalType": "address",
          "name": "receiver",
          "type": "address"
        }
      ],
      "name": "mint",
      "outputs": [
        {
          "internalType": "uint256",
          "name": "",
          "type": "uint256"
        }
      ],
      "stateMutability": "nonpayable",
      "type": "function"
    },
    {
      "inputs": [],
      "name": "name",
      "outputs": [
        {
          "internalType": "string",
          "name": "",
          "type": "string"
        }
      ],
      "stateMutability": "view",
      "type": "function"
    },
    {
      "inputs": [
        {
          "internalType": "uint256",
          "name": "assets",
          "type": "uint256"
        }
      ],
      "name": "previewDeposit",
      "outputs": [
        {
          "internalType": "uint256",
          "name": "",
          "type": "uint256"
        }
      ],
      "stateMutability": "view",
      "type": "function"
    },
    {
      "inputs": [
        {
          "internalType": "uint256",
          "name": "shares",
          "type": "uint256"
        }
      ],
      "name": "previewMint",
      "outputs": [
        {
          "internalType": "uint256",
          "name": "",
          "type": "uint256"
        }
      ],
      "stateMutability": "view",
      "type": "function"
    },
    {
      "inputs": [
        {
          "internalType": "uint256",
          "name": "shares",
          "type": "uint256"
        }
      ],
      "name": "previewRedeem",
      "outputs": [
        {
          "internalType": "uint256",
          "name": "",
          "type": "uint256"
        }
      ],
      "stateMutability": "view",
      "type": "function"
    },
    {
      "inputs": [
        {
          "internalType": "uint256",
          "name": "assets",
          "type": "uint256"
        }
      ],
      "name": "previewWithdraw",
      "outputs": [
        {
          "internalType": "uint256",
          "name": "",
          "type": "uint256"
        }
      ],
      "stateMutability": "view",
      "type": "function"
    },
    {
      "inputs": [
        {
          "internalType": "uint256",
          "name": "shares",
          "type": "uint256"
        },
        {
          "internalType": "address",
          "name": "receiver",
          "type": "address"
        },
        {
          "internalType": "address",
          "name": "owner",
          "type": "address"
        }
      ],
      "name": "redeem",
      "outputs": [
        {
          "internalType": "uint256",
          "name": "",
          "type": "uint256"
        }
      ],
      "stateMutability": "nonpayable",
      "type": "function"
    },
    {
      "inputs": [],
      "name": "symbol",
      "outputs": [
        {
          "internalType": "string",
          "name": "",
          "type": "string"
        }
      ],
      "stateMutability": "view",
      "type": "function"
    },
    {
      "inputs": [],
      "name": "totalAssets",
      "outputs": [
        {
          "internalType": "uint256",
          "name": "",
          "type": "uint256"
        }
      ],
      "stateMutability": "view",
      "type": "function"
    },
    {
      "inputs": [],
      "name": "totalSupply",
      "outputs": [
        {
          "internalType": "uint256",
          "name": "",
          "type": "uint256"
        }
      ],
      "stateMutability": "view",
      "type": "function"
    },
    {
      "inputs": [
        {
          "internalType": "address",
          "name": "to",
          "type": "address"
        },
        {
          "internalType": "uint256",
          "name": "amount",
          "type": "uint256"
        }
      ],
      "name": "transfer",
      "outputs": [
        {
          "internalType": "bool",
          "name": "",
          "type": "bool"
        }
      ],
      "stateMutability": "nonpayable",
      "type": "function"
    },
    {
      "inputs": [
        {
          "internalType": "address",
          "name": "from",
          "type": "address"
        },
        {
          "internalType": "address",
          "name": "to",
          "type": "address"
        },
        {
          "internalType": "uint256",
          "name": "amount",
          "type": "uint256"
        }
      ],
      "name": "transferFrom",
      "outputs": [
        {
          "internalType": "bool",
          "name": "",
          "type": "bool"
        }
      ],
      "stateMutability": "nonpayable",
      "type": "function"
    },
    {
      "inputs": [
        {
          "internalType": "uint256",
          "name": "assets",
          "type": "uint256"
        },
        {
          "internalType": "address",
          "name": "receiver",
          "type": "address"
        },
        {
          "internalType": "address",
          "name": "owner",
          "type": "address"
        }
      ],
      "name": "withdraw",
      "outputs": [
        {
          "internalType": "uint256",
          "name": "",
          "type": "uint256"
        }
      ],
      "stateMutability": "nonpayable",
      "type": "function"
    }
  ],
  "bytecode": {
    "object": "0x608060405234801561001057600080fd5b5061001961001e565b6100de565b600054610100900460ff161561008a5760405162461bcd60e51b815260206004820152602760248201527f496e697469616c697a61626c653a20636f6e747261637420697320696e697469604482015266616c697a696e6760c81b606482015260840160405180910390fd5b60005460ff90811610156100dc576000805460ff191660ff9081179091556040519081527f7f26b83ff96e1f2b6a682f133852f6798a09c465da95921460cefb38474024989060200160405180910390a15b565b611ce0806100ed6000396000f3fe608060405234801561001057600080fd5b50600436106101c45760003560e01c80638420ce99116100f9578063ba08765211610097578063ce96cb7711610071578063ce96cb77146103b0578063d905777e146103c3578063dd62ed3e146103d6578063ef8b30f71461039d57600080fd5b8063ba08765214610375578063c63d75b614610388578063c6e6f5921461039d57600080fd5b8063a457c2d7116100d3578063a457c2d714610329578063a9059cbb1461033c578063b3d7f6b91461034f578063b460af941461036257600080fd5b80638420ce99146102f957806394bf804d1461030e57806395d89b411461032157600080fd5b8063313ce56711610166578063402d267d11610140578063402d267d146102aa5780634cdad506146101f95780636e553f65146102bd57806370a08231146102d057600080fd5b8063313ce5671461025d57806338d52e0f1461027c578063395093511461029757600080fd5b8063095ea7b3116101a2578063095ea7b31461020c5780630a28a4771461022f57806318160ddd1461024257806323b872dd1461024a57600080fd5b806301e1d114146101c957806306fdde03146101e457806307a2d13a146101f9575b600080fd5b6101d16103e9565b6040519081526020015b60405180910390f35b6101ec61045b565b6040516101db9190611689565b6101d16102073660046116bc565b6104ed565b61021f61021a3660046116f1565b610500565b60405190151581526020016101db565b6101d161023d3660046116bc565b610518565b6035546101d1565b61021f61025836600461171b565b610525565b609754600160a01b900460ff1660405160ff90911681526020016101db565b6065546040516001600160a01b0390911681526020016101db565b61021f6102a53660046116f1565b61054b565b6101d16102b8366004611757565b61056d565b6101d16102cb366004611772565b61058b565b6101d16102de366004611757565b6001600160a01b031660009081526033602052604090205490565b61030c610307366004611850565b610603565b005b6101d161031c366004611772565b61074c565b6101ec610766565b61021f6103373660046116f1565b610775565b61021f61034a3660046116f1565b6107fb565b6101d161035d3660046116bc565b610809565b6101d16103703660046118ea565b610816565b6101d16103833660046118ea565b610892565b6101d1610396366004611757565b5060001990565b6101d16103ab3660046116bc565b610906565b6101d16103be366004611757565b610913565b6101d16103d1366004611757565b610937565b6101d16103e4366004611926565b610955565b6065546040516370a0823160e01b81523060048201526000916001600160a01b0316906370a0823190602401602060405180830381865afa158015610432573d6000803e3d6000fd5b505050506040513d601f19601f820116820180604052508101906104569190611950565b905090565b60606036805461046a90611969565b80601f016020809104026020016040519081016040528092919081815260200182805461049690611969565b80156104e35780601f106104b8576101008083540402835291602001916104e3565b820191906000526020600020905b8154815290600101906020018083116104c657829003601f168201915b5050505050905090565b60006104fa826000610980565b92915050565b60003361050e818585610a49565b5060019392505050565b60006104fa826001610b6d565b600033610533858285610c29565b61053e858585610ca3565b60019150505b9392505050565b60003361050e81858561055e8383610955565b61056891906119b9565b610a49565b6000610577610e71565b6105825760006104fa565b60001992915050565b60006105968261056d565b8311156105ea5760405162461bcd60e51b815260206004820152601e60248201527f455243343632363a206465706f736974206d6f7265207468616e206d6178000060448201526064015b60405180910390fd5b60006105f584610906565b905061054433848684610e8b565b600054610100900460ff16158080156106235750600054600160ff909116105b8061063d5750303b15801561063d575060005460ff166001145b6106a05760405162461bcd60e51b815260206004820152602e60248201527f496e697469616c697a61626c653a20636f6e747261637420697320616c72656160448201526d191e481a5b9a5d1a585b1a5e995960921b60648201526084016105e1565b6000805460ff1916600117905580156106c3576000805461ff0019166101001790555b6106cd8484610f09565b6106d686610f3e565b6097805460ff8416600160a01b026001600160a81b03199091166001600160a01b038816171790558015610744576000805461ff0019169055604051600181527f7f26b83ff96e1f2b6a682f133852f6798a09c465da95921460cefb38474024989060200160405180910390a15b505050505050565b60008061075884610809565b905061054433848387610e8b565b60606037805461046a90611969565b600033816107838286610955565b9050838110156107e35760405162461bcd60e51b815260206004820152602560248201527f45524332303a2064656372656173656420616c6c6f77616e63652062656c6f77604482015264207a65726f60d81b60648201526084016105e1565b6107f08286868403610a49565b506001949350505050565b60003361050e818585610ca3565b60006104fa826001610980565b600061082182610913565b8411156108705760405162461bcd60e51b815260206004820152601f60248201527f455243343632363a207769746864726177206d6f7265207468616e206d61780060448201526064016105e1565b600061087b85610518565b905061088a3385858885610f71565b949350505050565b600061089d82610937565b8411156108ec5760405162461bcd60e51b815260206004820152601d60248201527f455243343632363a2072656465656d206d6f7265207468616e206d617800000060448201526064016105e1565b60006108f7856104ed565b905061088a3385858489610f71565b60006104fa826000610b6d565b6001600160a01b0381166000908152603360205260408120546104fa906000610980565b6001600160a01b0381166000908152603360205260408120546104fa565b6001600160a01b03918216600090815260346020908152604080832093909416825291909152205490565b60008061098c60355490565b905080156109ad576109a861099f6103e9565b8590838661101d565b61088a565b6065546040805163313ce56760e01b8152905161088a926001600160a01b03169163313ce5679160048083019260209291908290030181865afa1580156109f8573d6000803e3d6000fd5b505050506040513d601f19601f82011682018060405250810190610a1c91906119cc565b610a2790600a611acd565b609754600160a01b900460ff165b610a4090600a611acd565b8691908661101d565b6001600160a01b038316610aab5760405162461bcd60e51b8152602060048201526024808201527f45524332303a20617070726f76652066726f6d20746865207a65726f206164646044820152637265737360e01b60648201526084016105e1565b6001600160a01b038216610b0c5760405162461bcd60e51b815260206004820152602260248201527f45524332303a20617070726f766520746f20746865207a65726f206164647265604482015261737360f01b60648201526084016105e1565b6001600160a01b0383811660008181526034602090815260408083209487168084529482529182902085905590518481527f8c5be1e5ebec7d5bd14f71427d1e84f3dd0314c0f7b2291e5b200ac8c7c3b925910160405180910390a3505050565b600080610b7960355490565b9050831580610b86575080155b610b96576109a881610a406103e9565b60975461088a90600160a01b900460ff16610bb290600a611acd565b606560009054906101000a90046001600160a01b03166001600160a01b031663313ce5676040518163ffffffff1660e01b8152600401602060405180830381865afa158015610c05573d6000803e3d6000fd5b505050506040513d601f19601f82011682018060405250810190610a3591906119cc565b6000610c358484610955565b90506000198114610c9d5781811015610c905760405162461bcd60e51b815260206004820152601d60248201527f45524332303a20696e73756666696369656e7420616c6c6f77616e636500000060448201526064016105e1565b610c9d8484848403610a49565b50505050565b6001600160a01b038316610d075760405162461bcd60e51b815260206004820152602560248201527f45524332303a207472616e736665722066726f6d20746865207a65726f206164604482015264647265737360d81b60648201526084016105e1565b6001600160a01b038216610d695760405162461bcd60e51b815260206004820152602360248201527f45524332303a207472616e7366657220746f20746865207a65726f206164647260448201526265737360e81b60648201526084016105e1565b6001600160a01b03831660009081526033602052604090205481811015610de15760405162461bcd60e51b815260206004820152602660248201527f45524332303a207472616e7366657220616d6f756e7420657863656564732062604482015265616c616e636560d01b60648201526084016105e1565b6001600160a01b03808516600090815260336020526040808220858503905591851681529081208054849290610e189084906119b9565b92505081905550826001600160a01b0316846001600160a01b03167fddf252ad1be2c89b69c2b068fc378daa952ba7f163c4a11628f55a4df523b3ef84604051610e6491815260200190565b60405180910390a3610c9d565b600080610e7c6103e9565b11806104565750506035541590565b606554610ea3906001600160a01b031685308561107f565b610ead83826110ea565b826001600160a01b0316846001600160a01b03167fdcbc1c05240f31ff3ad067ef1ee35ce4997762752e3a095284754544f4c709d78484604051610efb929190918252602082015260400190565b60405180910390a350505050565b600054610100900460ff16610f305760405162461bcd60e51b81526004016105e190611adc565b610f3a82826111c9565b5050565b600054610100900460ff16610f655760405162461bcd60e51b81526004016105e190611adc565b610f6e81611209565b50565b826001600160a01b0316856001600160a01b031614610f9557610f95838683610c29565b610f9f8382611252565b606554610fb6906001600160a01b031685846113a0565b826001600160a01b0316846001600160a01b0316866001600160a01b03167ffbde797d201c681b91056529119e0b02407c7bb96a4a2c75c01fc9667232c8db858560405161100e929190918252602082015260400190565b60405180910390a45050505050565b60008061102b8686866113d0565b9050600183600281111561104157611041611b27565b14801561105e57506000848061105957611059611b3d565b868809115b156110715761106e6001826119b9565b90505b95945050505050565b505050565b6040516001600160a01b0380851660248301528316604482015260648101829052610c9d9085906323b872dd60e01b906084015b60408051601f198184030181529190526020810180516001600160e01b03166001600160e01b03199093169290921790915261147f565b6001600160a01b0382166111405760405162461bcd60e51b815260206004820152601f60248201527f45524332303a206d696e7420746f20746865207a65726f20616464726573730060448201526064016105e1565b806035600082825461115291906119b9565b90915550506001600160a01b0382166000908152603360205260408120805483929061117f9084906119b9565b90915550506040518181526001600160a01b038316906000907fddf252ad1be2c89b69c2b068fc378daa952ba7f163c4a11628f55a4df523b3ef9060200160405180910390a35050565b600054610100900460ff166111f05760405162461bcd60e51b81526004016105e190611adc565b60366111fc8382611b99565b50603761107a8282611b99565b600054610100900460ff166112305760405162461bcd60e51b81526004016105e190611adc565b606580546001600160a01b0319166001600160a01b0392909216919091179055565b6001600160a01b0382166112b25760405162461bcd60e51b815260206004820152602160248201527f45524332303a206275726e2066726f6d20746865207a65726f206164647265736044820152607360f81b60648201526084016105e1565b6001600160a01b038216600090815260336020526040902054818110156113265760405162461bcd60e51b815260206004820152602260248201527f45524332303a206275726e20616d6f756e7420657863656564732062616c616e604482015261636560f01b60648201526084016105e1565b6001600160a01b0383166000908152603360205260408120838303905560358054849290611355908490611c59565b90915550506040518281526000906001600160a01b038516907fddf252ad1be2c89b69c2b068fc378daa952ba7f163c4a11628f55a4df523b3ef9060200160405180910390a3505050565b6040516001600160a01b03831660248201526044810182905261107a90849063a9059cbb60e01b906064016110b3565b600080806000198587098587029250828110838203039150508060000361140a5783828161140057611400611b3d565b0492505050610544565b80841161141657600080fd5b60008486880960026001871981018816978890046003810283188082028403028082028403028082028403028082028403028082028403029081029092039091026000889003889004909101858311909403939093029303949094049190911702949350505050565b60006114d4826040518060400160405280602081526020017f5361666545524332303a206c6f772d6c6576656c2063616c6c206661696c6564815250856001600160a01b03166115519092919063ffffffff16565b80519091501561107a57808060200190518101906114f29190611c6c565b61107a5760405162461bcd60e51b815260206004820152602a60248201527f5361666545524332303a204552433230206f7065726174696f6e20646964206e6044820152691bdd081cdd58d8d9595960b21b60648201526084016105e1565b606061088a8484600085856001600160a01b0385163b6115b35760405162461bcd60e51b815260206004820152601d60248201527f416464726573733a2063616c6c20746f206e6f6e2d636f6e747261637400000060448201526064016105e1565b600080866001600160a01b031685876040516115cf9190611c8e565b60006040518083038185875af1925050503d806000811461160c576040519150601f19603f3d011682016040523d82523d6000602084013e611611565b606091505b509150915061162182828661162c565b979650505050505050565b6060831561163b575081610544565b82511561164b5782518084602001fd5b8160405162461bcd60e51b81526004016105e19190611689565b60005b83811015611680578181015183820152602001611668565b50506000910152565b60208152600082518060208401526116a8816040850160208701611665565b601f01601f19169190910160400192915050565b6000602082840312156116ce57600080fd5b5035919050565b80356001600160a01b03811681146116ec57600080fd5b919050565b6000806040838503121561170457600080fd5b61170d836116d5565b946020939093013593505050565b60008060006060848603121561173057600080fd5b611739846116d5565b9250611747602085016116d5565b9150604084013590509250925092565b60006020828403121561176957600080fd5b610544826116d5565b6000806040838503121561178557600080fd5b82359150611795602084016116d5565b90509250929050565b634e487b7160e01b600052604160045260246000fd5b600082601f8301126117c557600080fd5b813567ffffffffffffffff808211156117e0576117e061179e565b604051601f8301601f19908116603f011681019082821181831017156118085761180861179e565b8160405283815286602085880101111561182157600080fd5b836020870160208301376000602085830101528094505050505092915050565b60ff81168114610f6e57600080fd5b600080600080600060a0868803121561186857600080fd5b611871866116d5565b945061187f602087016116d5565b9350604086013567ffffffffffffffff8082111561189c57600080fd5b6118a889838a016117b4565b945060608801359150808211156118be57600080fd5b506118cb888289016117b4565b92505060808601356118dc81611841565b809150509295509295909350565b6000806000606084860312156118ff57600080fd5b8335925061190f602085016116d5565b915061191d604085016116d5565b90509250925092565b6000806040838503121561193957600080fd5b611942836116d5565b9150611795602084016116d5565b60006020828403121561196257600080fd5b5051919050565b600181811c9082168061197d57607f821691505b60208210810361199d57634e487b7160e01b600052602260045260246000fd5b50919050565b634e487b7160e01b600052601160045260246000fd5b808201808211156104fa576104fa6119a3565b6000602082840312156119de57600080fd5b815161054481611841565b600181815b80851115611a24578160001904821115611a0a57611a0a6119a3565b80851615611a1757918102915b93841c93908002906119ee565b509250929050565b600082611a3b575060016104fa565b81611a48575060006104fa565b8160018114611a5e5760028114611a6857611a84565b60019150506104fa565b60ff841115611a7957611a796119a3565b50506001821b6104fa565b5060208310610133831016604e8410600b8410161715611aa7575081810a6104fa565b611ab183836119e9565b8060001904821115611ac557611ac56119a3565b029392505050565b600061054460ff841683611a2c565b6020808252602b908201527f496e697469616c697a61626c653a20636f6e7472616374206973206e6f74206960408201526a6e697469616c697a696e6760a81b606082015260800190565b634e487b7160e01b600052602160045260246000fd5b634e487b7160e01b600052601260045260246000fd5b601f82111561107a57600081815260208120601f850160051c81016020861015611b7a5750805b601f850160051c820191505b8181101561074457828155600101611b86565b815167ffffffffffffffff811115611bb357611bb361179e565b611bc781611bc18454611969565b84611b53565b602080601f831160018114611bfc5760008415611be45750858301515b600019600386901b1c1916600185901b178555610744565b600085815260208120601f198616915b82811015611c2b57888601518255948401946001909101908401611c0c565b5085821015611c495787850151600019600388901b60f8161c191681555b5050505050600190811b01905550565b818103818111156104fa576104fa6119a3565b600060208284031215611c7e57600080fd5b8151801515811461054457600080fd5b60008251611ca0818460208701611665565b919091019291505056fea2646970667358221220d3b5c30e8f62700b7ed04e99261f90a9c7dcdc4264b04f31084426ccd07b8d6864736f6c63430008150033",
    "linkReferences": {}
  },
  "methodIdentifiers": {
    "allowance(address,address)": "dd62ed3e",
    "approve(address,uint256)": "095ea7b3",
    "asset()": "38d52e0f",
    "balanceOf(address)": "70a08231",
    "convertToAssets(uint256)": "07a2d13a",
    "convertToShares(uint256)": "c6e6f592",
    "decimals()": "313ce567",
    "decreaseAllowance(address,uint256)": "a457c2d7",
    "deposit(uint256,address)": "6e553f65",
    "increaseAllowance(address,uint256)": "39509351",
    "initialize(address,address,string,string,uint8)": "8420ce99",
    "maxDeposit(address)": "402d267d",
    "maxMint(address)": "c63d75b6",
    "maxRedeem(address)": "d905777e",
    "maxWithdraw(address)": "ce96cb77",
    "mint(uint256,address)": "94bf804d",
    "name()": "06fdde03",
    "previewDeposit(uint256)": "ef8b30f7",
    "previewMint(uint256)": "b3d7f6b9",
    "previewRedeem(uint256)": "4cdad506",
    "previewWithdraw(uint256)": "0a28a477",
    "redeem(uint256,address,address)": "ba087652",
    "symbol()": "95d89b41",
    "totalAssets()": "01e1d114",
    "totalSupply()": "18160ddd",
    "transfer(address,uint256)": "a9059cbb",
    "transferFrom(address,address,uint256)": "23b872dd",
    "withdraw(uint256,address,address)": "b460af94"
  },
  "id": 22
}