{"abi":[{"type":"constructor","inputs":[],"stateMutability":"nonpayable"},{"type":"function","name":"DOMAIN_SEPARATOR","inputs":[],"outputs":[{"name":"","type":"bytes32","internalType":"bytes32"}],"stateMutability":"view"},{"type":"function","name":"FORMAT_DECIMALS","inputs":[],"outputs":[{"name":"","type":"uint256","internalType":"uint256"}],"stateMutability":"view"},{"type":"function","name":"_convertToAssetsFromUnderlying","inputs":[{"name":"shares_","type":"uint256","internalType":"uint256"}],"outputs":[{"name":"","type":"uint256","internalType":"uint256"}],"stateMutability":"view"},{"type":"function","name":"allowance","inputs":[{"name":"owner","type":"address","internalType":"address"},{"name":"spender","type":"address","internalType":"address"}],"outputs":[{"name":"","type":"uint256","internalType":"uint256"}],"stateMutability":"view"},{"type":"function","name":"approve","inputs":[{"name":"spender","type":"address","internalType":"address"},{"name":"amount","type":"uint256","internalType":"uint256"}],"outputs":[{"name":"","type":"bool","internalType":"bool"}],"stateMutability":"nonpayable"},{"type":"function","name":"asset","inputs":[],"outputs":[{"name":"","type":"address","internalType":"address"}],"stateMutability":"view"},{"type":"function","name":"balanceOf","inputs":[{"name":"account_","type":"address","internalType":"address"}],"outputs":[{"name":"","type":"uint256","internalType":"uint256"}],"stateMutability":"view"},{"type":"function","name":"claimReward","inputs":[],"outputs":[{"name":"","type":"uint256","internalType":"uint256"}],"stateMutability":"nonpayable"},{"type":"function","name":"convertToAssets","inputs":[{"name":"shares","type":"uint256","internalType":"uint256"},{"name":"account_","type":"address","internalType":"address"}],"outputs":[{"name":"assets","type":"uint256","internalType":"uint256"}],"stateMutability":"view"},{"type":"function","name":"convertToShares","inputs":[{"name":"assets","type":"uint256","internalType":"uint256"}],"outputs":[{"name":"shares","type":"uint256","internalType":"uint256"}],"stateMutability":"view"},{"type":"function","name":"convertToUnderlying","inputs":[{"name":"shares_","type":"uint256","internalType":"uint256"}],"outputs":[{"name":"","type":"uint256","internalType":"uint256"}],"stateMutability":"view"},{"type":"function","name":"decimals","inputs":[],"outputs":[{"name":"","type":"uint8","internalType":"uint8"}],"stateMutability":"pure"},{"type":"function","name":"decreaseAllowance","inputs":[{"name":"spender","type":"address","internalType":"address"},{"name":"subtractedValue","type":"uint256","internalType":"uint256"}],"outputs":[{"name":"","type":"bool","internalType":"bool"}],"stateMutability":"nonpayable"},{"type":"function","name":"earned","inputs":[{"name":"user_","type":"address","internalType":"address"}],"outputs":[{"name":"","type":"uint256","internalType":"uint256"}],"stateMutability":"view"},{"type":"function","name":"getRewardsData","inputs":[],"outputs":[{"name":"rewardRate","type":"uint256","internalType":"uint256"},{"name":"circulatingSupply","type":"uint256","internalType":"uint256"},{"name":"pendingAllocation","type":"uint256","internalType":"uint256"},{"name":"recicledSupply","type":"uint256","internalType":"uint256"},{"name":"durationLeft","type":"int256","internalType":"int256"}],"stateMutability":"view"},{"type":"function","name":"increaseAllowance","inputs":[{"name":"spender","type":"address","internalType":"address"},{"name":"addedValue","type":"uint256","internalType":"uint256"}],"outputs":[{"name":"","type":"bool","internalType":"bool"}],"stateMutability":"nonpayable"},{"type":"function","name":"initialize","inputs":[{"name":"underlying_","type":"address","internalType":"address"},{"name":"diamond_","type":"address","internalType":"address"},{"name":"name_","type":"string","internalType":"string"},{"name":"symbol_","type":"string","internalType":"string"}],"outputs":[],"stateMutability":"nonpayable"},{"type":"function","name":"lastTimeRewardApplicable","inputs":[],"outputs":[{"name":"","type":"uint256","internalType":"uint256"}],"stateMutability":"view"},{"type":"function","name":"mint","inputs":[{"name":"data_","type":"bytes","internalType":"bytes"},{"name":"owner_","type":"address","internalType":"address"}],"outputs":[{"name":"","type":"uint256","internalType":"uint256"}],"stateMutability":"nonpayable"},{"type":"function","name":"name","inputs":[],"outputs":[{"name":"","type":"string","internalType":"string"}],"stateMutability":"view"},{"type":"function","name":"nonces","inputs":[{"name":"owner","type":"address","internalType":"address"}],"outputs":[{"name":"","type":"uint256","internalType":"uint256"}],"stateMutability":"view"},{"type":"function","name":"notifyRewardAmount","inputs":[{"name":"amount_","type":"uint256","internalType":"uint256"}],"outputs":[],"stateMutability":"nonpayable"},{"type":"function","name":"permit","inputs":[{"name":"owner","type":"address","internalType":"address"},{"name":"spender","type":"address","internalType":"address"},{"name":"value","type":"uint256","internalType":"uint256"},{"name":"deadline","type":"uint256","internalType":"uint256"},{"name":"v","type":"uint8","internalType":"uint8"},{"name":"r","type":"bytes32","internalType":"bytes32"},{"name":"s_","type":"bytes32","internalType":"bytes32"}],"outputs":[],"stateMutability":"nonpayable"},{"type":"function","name":"previewMint","inputs":[{"name":"assets_","type":"uint256","internalType":"uint256"}],"outputs":[{"name":"","type":"uint256","internalType":"uint256"}],"stateMutability":"view"},{"type":"function","name":"previewRedeem","inputs":[{"name":"shares_","type":"uint256","internalType":"uint256"}],"outputs":[{"name":"","type":"uint256","internalType":"uint256"}],"stateMutability":"view"},{"type":"function","name":"previewWithdraw","inputs":[{"name":"assets","type":"uint256","internalType":"uint256"}],"outputs":[{"name":"","type":"uint256","internalType":"uint256"}],"stateMutability":"view"},{"type":"function","name":"redeem","inputs":[{"name":"data_","type":"bytes","internalType":"bytes"},{"name":"owner_","type":"address","internalType":"address"}],"outputs":[{"name":"","type":"uint256","internalType":"uint256"}],"stateMutability":"nonpayable"},{"type":"function","name":"rewardPerToken","inputs":[],"outputs":[{"name":"","type":"uint256","internalType":"uint256"}],"stateMutability":"view"},{"type":"function","name":"setRewardsDuration","inputs":[{"name":"duration_","type":"uint256","internalType":"uint256"}],"outputs":[],"stateMutability":"nonpayable"},{"type":"function","name":"sharesOf","inputs":[{"name":"account_","type":"address","internalType":"address"}],"outputs":[{"name":"","type":"uint256","internalType":"uint256"}],"stateMutability":"view"},{"type":"function","name":"subBalanceOf","inputs":[{"name":"account_","type":"address","internalType":"address"},{"name":"side_","type":"uint8","internalType":"enum Dir"}],"outputs":[{"name":"","type":"uint256","internalType":"uint256"}],"stateMutability":"view"},{"type":"function","name":"subBalanceOf2","inputs":[{"name":"account_","type":"address","internalType":"address"},{"name":"side_","type":"uint8","internalType":"enum Dir"}],"outputs":[{"name":"","type":"uint256","internalType":"uint256"}],"stateMutability":"view"},{"type":"function","name":"subConvertToShares","inputs":[{"name":"assets","type":"uint256","internalType":"uint256"},{"name":"account_","type":"address","internalType":"address"}],"outputs":[{"name":"shares","type":"uint256","internalType":"uint256"}],"stateMutability":"view"},{"type":"function","name":"symbol","inputs":[],"outputs":[{"name":"","type":"string","internalType":"string"}],"stateMutability":"view"},{"type":"function","name":"totalAssets","inputs":[],"outputs":[{"name":"","type":"uint256","internalType":"uint256"}],"stateMutability":"view"},{"type":"function","name":"totalShares","inputs":[],"outputs":[{"name":"","type":"uint256","internalType":"uint256"}],"stateMutability":"view"},{"type":"function","name":"totalSupply","inputs":[],"outputs":[{"name":"","type":"uint256","internalType":"uint256"}],"stateMutability":"view"},{"type":"function","name":"transfer","inputs":[{"name":"to","type":"address","internalType":"address"},{"name":"amount","type":"uint256","internalType":"uint256"}],"outputs":[{"name":"","type":"bool","internalType":"bool"}],"stateMutability":"nonpayable"},{"type":"function","name":"transferFrom","inputs":[{"name":"from","type":"address","internalType":"address"},{"name":"to","type":"address","internalType":"address"},{"name":"amount","type":"uint256","internalType":"uint256"}],"outputs":[{"name":"","type":"bool","internalType":"bool"}],"stateMutability":"nonpayable"},{"type":"event","name":"Approval","inputs":[{"name":"owner","type":"address","indexed":true,"internalType":"address"},{"name":"spender","type":"address","indexed":true,"internalType":"address"},{"name":"value","type":"uint256","indexed":false,"internalType":"uint256"}],"anonymous":false},{"type":"event","name":"Initialized","inputs":[{"name":"version","type":"uint8","indexed":false,"internalType":"uint8"}],"anonymous":false},{"type":"event","name":"Transfer","inputs":[{"name":"from","type":"address","indexed":true,"internalType":"address"},{"name":"to","type":"address","indexed":true,"internalType":"address"},{"name":"value","type":"uint256","indexed":false,"internalType":"uint256"}],"anonymous":false},{"type":"error","name":"OZError03","inputs":[]},{"type":"error","name":"OZError04","inputs":[{"name":"from","type":"address","internalType":"address"},{"name":"to","type":"address","internalType":"address"}]},{"type":"error","name":"OZError05","inputs":[{"name":"amount","type":"uint256","internalType":"uint256"}]},{"type":"error","name":"OZError06","inputs":[{"name":"sender","type":"address","internalType":"address"},{"name":"accountShares","type":"uint256","internalType":"uint256"},{"name":"shares","type":"uint256","internalType":"uint256"}]},{"type":"error","name":"OZError07","inputs":[{"name":"from","type":"address","internalType":"address"},{"name":"fromShares","type":"uint256","internalType":"uint256"},{"name":"shares","type":"uint256","internalType":"uint256"}]},{"type":"error","name":"OZError08","inputs":[{"name":"deadline","type":"uint256","internalType":"uint256"},{"name":"blockTimestamp","type":"uint256","internalType":"uint256"}]},{"type":"error","name":"OZError09","inputs":[{"name":"owner","type":"address","internalType":"address"},{"name":"spender","type":"address","internalType":"address"}]},{"type":"error","name":"OZError22","inputs":[{"name":"reason","type":"string","internalType":"string"}]},{"type":"error","name":"OZError35","inputs":[{"name":"ozAmountIn","type":"uint256","internalType":"uint256"}]}],"bytecode":{"object":"0x60806040523480156200001157600080fd5b506200001c62000022565b620000e4565b603054610100900460ff16156200008f5760405162461bcd60e51b815260206004820152602760248201527f496e697469616c697a61626c653a20636f6e747261637420697320696e697469604482015266616c697a696e6760c81b606482015260840160405180910390fd5b60305460ff9081161015620000e2576030805460ff191660ff9081179091556040519081527f7f26b83ff96e1f2b6a682f133852f6798a09c465da95921460cefb38474024989060200160405180910390a15b565b61298480620000f46000396000f3fe608060405234801561001057600080fd5b506004361061023c5760003560e01c80634702a0841161013b578063a9059cbb116100b8578063cd3daf9d1161007c578063cd3daf9d14610434578063cfec59de14610485578063d505accf14610498578063dd62ed3e146104ab578063f5eb42dc146104be57600080fd5b8063a9059cbb1461045f578063b3d7f6b914610472578063b88a802f14610434578063c6e6f592146102a8578063cc1a378f1461039757600080fd5b80637ecebe00116100ff5780637ecebe001461042157806380faa57d1461043457806395d89b411461043b578063a01c877414610443578063a457c2d71461044c57600080fd5b80634702a084146103a85780634cdad506146103bb57806370a08231146103ce57806370a25869146103e15780637d098e64146103f457600080fd5b80632016a0d2116101c95780633644e5151161018d5780633644e5151461035957806338d52e0f14610361578063395093511461037c5780633a98ef391461038f5780633c6b16ab1461039757600080fd5b80632016a0d2146102fc57806323b872dd14610311578063279d97ef14610324578063313ce56714610337578063361032911461034657600080fd5b80630a28a477116102105780630a28a477146102a85780630ba097d6146102bb5780630cae37f1146102ce57806318160ddd146102e15780631dc7f521146102e957600080fd5b80628cc2621461024157806301e1d1141461026857806306fdde0314610270578063095ea7b314610285575b600080fd5b61025561024f366004611f60565b50600090565b6040519081526020015b60405180910390f35b6102556104e7565b6102786104fc565b60405161025f9190611fcd565b610298610293366004611fe0565b61058e565b604051901515815260200161025f565b6102556102b636600461200c565b6105a5565b6102556102c93660046120c6565b6105b0565b6102556102dc3660046120c6565b610853565b610255610a1b565b6102556102f736600461200c565b610aa6565b61030f61030a36600461214c565b610b36565b005b61029861031f3660046121d5565b610d34565b610255610332366004612216565b610d56565b6040516012815260200161025f565b610255610354366004612248565b610d80565b610255610d8c565b6066546040516001600160a01b03909116815260200161025f565b61029861038a366004611fe0565b610d96565b610255610db7565b61030f6103a536600461200c565b50565b6102556103b6366004612248565b610dc8565b6102556103c936600461200c565b610dd4565b6102556103dc366004611f60565b610ddf565b6102556103ef36600461200c565b610e12565b6040805160008082526020820181905291810182905260608101829052608081019190915260a00161025f565b61025561042f366004611f60565b610e32565b6000610255565b610278610e50565b610255606d5481565b61029861045a366004611fe0565b610e5f565b61029861046d366004611fe0565b610e9c565b61025561048036600461200c565b610ea9565b610255610493366004612216565b610eb4565b61030f6104a636600461227c565b610ed7565b6102556104b93660046122ed565b610ff9565b6102556104cc366004611f60565b6001600160a01b031660009081526068602052604090205490565b6067546000906104f79082611024565b905090565b6060606b805461050b9061231b565b80601f01602080910402602001604051908101604052809291908181526020018280546105379061231b565b80156105845780601f1061055957610100808354040283529160200191610584565b820191906000526020600020905b81548152906001019060200180831161056757829003601f168201915b5050505050905090565b600061059b338484611067565b5060015b92915050565b600061059f82611116565b60655460009082906001600160a01b03168015610626576040516241fec360e31b81526001600160a01b03838116600483015282169063020ff61890602401600060405180830381600087803b15801561060957600080fd5b505af115801561061d573d6000803e3d6000fd5b5050505061066a565b6000601a5560006018556001600160a01b0382161561066a576001600160a01b0382166000908152601e60209081526040808320839055601a54601d909252909120555b60008580602001905181019061068091906123d0565b5080519091506729a2241af62c00008110156106b757604051631a98558360e21b8152600481018290526024015b60405180910390fd5b6001600160a01b038616600090815260686020526040812054906106db8389610dc8565b90508082101561071757604051637ac073bf60e01b81526001600160a01b038916600482015260248101839052604481018290526064016106ae565b6065546040516314370d6760e31b815282916001600160a01b03169063a1b86b3890610749908c908e90600401612475565b60408051808303816000875af1925050508015610783575060408051601f3d908101601f1916820190925261078091810190612499565b60015b6107d55761078f6124bd565b806308c379a0036107c957506107a36124d9565b806107ae57506107cb565b80604051631bc63b8160e01b81526004016106ae9190611fcd565b505b3d6000803e3d6000fd5b6107e0826000611133565b6065546001600160a01b03166000908152606860205260409020549450610809838660006111a3565b6065546001600160a01b039081166000908152606860209081526040808320839055928e168252606e90522080549390930390925550965061084b9350505050565b505092915050565b60655460009082906001600160a01b031680156108c9576040516241fec360e31b81526001600160a01b03838116600483015282169063020ff61890602401600060405180830381600087803b1580156108ac57600080fd5b505af11580156108c0573d6000803e3d6000fd5b5050505061090d565b6000601a5560006018556001600160a01b0382161561090d576001600160a01b0382166000908152601e60209081526040808320839055601a54601d909252909120555b600080868060200190518101906109249190612563565b606d54825192945090925060009161093b91611201565b6065549091506001600160a01b0316639ea04fe46109616066546001600160a01b031690565b89866040518463ffffffff1660e01b8152600401610981939291906125fc565b6020604051808303816000875af19250505080156109bc575060408051601f3d908101601f191682019092526109b991810190612675565b60015b6109c85761078f6124bd565b6109d3816001611133565b816109e0818060016111a3565b6001600160a01b039093166000908152606860209081526040808320805487019055606e9091529020805490920190915550935061084b9050565b6000610a25610db7565b50610a2e610db7565b50610a37610db7565b1561024f57678ac7230489e80000610a9c610a506104e7565b610a5f9064e8d4a510006126a4565b610a7190678ac7230489e800006126a4565b610a83610a7c610db7565b600161120d565b610a95610a8e610db7565b600061120d565b91906112e9565b6104f791906126bb565b6000610ab0610db7565b60655460405163a4fc284b60e01b81526001600160a01b039091169063a4fc284b90610ae190600190600401612711565b602060405180830381865afa158015610afe573d6000803e3d6000fd5b505050506040513d601f19601f82011682018060405250810190610b229190612675565b610b2c90846126a4565b61059f91906126bb565b603054610100900460ff1615808015610b565750603054600160ff909116105b80610b705750303b158015610b70575060305460ff166001145b610bd35760405162461bcd60e51b815260206004820152602e60248201527f496e697469616c697a61626c653a20636f6e747261637420697320616c72656160448201526d191e481a5b9a5d1a585b1a5e995960921b60648201526084016106ae565b6030805460ff191660011790558015610bf6576030805461ff0019166101001790555b606b610c02848261276f565b50606c610c0f838261276f565b50606580546001600160a01b038087166001600160a01b03199283161790925560668054928816929091169190911790556040805180820190915260018152603160f81b6020820152610c63908490611307565b846001600160a01b031663313ce5676040518163ffffffff1660e01b8152600401602060405180830381865afa158015610ca1573d6000803e3d6000fd5b505050506040513d601f19601f82011682018060405250810190610cc5919061282f565b60ff16601214610cd6576001610cdd565b64e8d4a510005b64ffffffffff16606d558015610d2d576030805461ff0019169055604051600181527f7f26b83ff96e1f2b6a682f133852f6798a09c465da95921460cefb38474024989060200160405180910390a15b5050505050565b6000610d4184338461133c565b610d4c84848461138a565b5060019392505050565b6001600160a01b038216600090815260686020526040812054610d7990836114a8565b9392505050565b6000610d798383611597565b60006104f76115fd565b600061059b338484610da83388610ff9565b610db2919061284c565b611067565b6067546000906104f7906001611024565b6000610d798383611678565b600061059f82610e12565b6000678ac7230489e80000610b2c610e0c846001600160a01b031660009081526068602052604090205490565b84610d80565b600061059f610e1f61180e565b610e2a8460006114a8565b8491906112e9565b6001600160a01b03811660009081526069602052604081205461059f565b6060606c805461050b9061231b565b600080610e6c3385610ff9565b905082811015610e8f576040516361ceb1d360e01b815260040160405180910390fd5b610d4c3385858403611067565b600061059b33848461138a565b600061059f8261182a565b6001600160a01b038216600090815260686020526040812054610d79908361183f565b83421115610f015760405163184f1e0160e11b8152600481018590524260248201526044016106ae565b60007f6e71edae12b1b97f4d1f60370fef10105fa2faae0126114a169c64845d6126c9888888610f308c6118ed565b6040805160208101969096526001600160a01b0394851690860152929091166060840152608083015260a082015260c0810186905260e0016040516020818303038152906040528051906020012090506000610f8b82611915565b90506000610f9b82878787611963565b9050896001600160a01b0316816001600160a01b031614610fe257604051635091bef560e01b81526001600160a01b0380831660048301528b1660248201526044016106ae565b610fed8a8a8a611067565b50505050505050505050565b6001600160a01b039182166000908152606a6020908152604080832093909416825291909152205490565b60006fffffffffffffffffffffffffffffffff8183600181111561104a5761104a6126dd565b146110575783811661105f565b608084901c81165b949350505050565b6001600160a01b038316158061108457506001600160a01b038216155b156110b557604051637db368a160e01b81526001600160a01b038085166004830152831660248201526044016106ae565b6001600160a01b038381166000818152606a602090815260408083209487168084529482529182902085905590518481527f8c5be1e5ebec7d5bd14f71427d1e84f3dd0314c0f7b2291e5b200ac8c7c3b925910160405180910390a3505050565b600061059f611123610db7565b61112b61180e565b84919061198b565b60655460405163b0ff97b560e01b81523060048201526024810184905282151560448201526001600160a01b039091169063b0ff97b590606401600060405180830381600087803b15801561118757600080fd5b505af115801561119b573d6000803e3d6000fd5b505050505050565b6067546000906111b39082611024565b905060006111cd600160675461102490919063ffffffff16565b905082156111e0579084019083016111e9565b90849003908390035b6111f781608084901b61284c565b6067555050505050565b6000610d7982846126bb565b6000806112226065546001600160a01b031690565b6001600160a01b0316633154b6e26000856040518363ffffffff1660e01b815260040161125092919061285f565b602060405180830381865afa15801561126d573d6000803e3d6000fd5b505050506040513d601f19601f820116820180604052508101906112919190612675565b6112a390678ac7230489e800006126a4565b905061105f816112b1610db7565b156112d5576112be610db7565b6112d090678ac7230489e800006126a4565b6112d7565b825b610a9587678ac7230489e800006126a4565b600082600019048411830215820261130057600080fd5b5091020490565b603054610100900460ff1661132e5760405162461bcd60e51b81526004016106ae9061287c565b61133882826119b1565b5050565b60006113488484610ff9565b905060001981146113845781811015611377576040516306052b7f60e01b8152600481018390526024016106ae565b6113848484848403611067565b50505050565b6001600160a01b03831615806113a757506001600160a01b038216155b156113d857604051637db368a160e01b81526001600160a01b038085166004830152831660248201526044016106ae565b60006113e3826119f2565b6001600160a01b03851660009081526068602052604090205490915081811015611439576040516315c29bad60e31b81526001600160a01b038616600482015260248101829052604481018390526064016106ae565b6001600160a01b0380861660008181526068602052604080822086860390559287168082529083902080548601905591517fddf252ad1be2c89b69c2b068fc378daa952ba7f163c4a11628f55a4df523b3ef906114999087815260200190565b60405180910390a35050505050565b6000806114bd6065546001600160a01b031690565b6001600160a01b0316633154b6e26000856040518363ffffffff1660e01b81526004016114eb92919061285f565b602060405180830381865afa158015611508573d6000803e3d6000fd5b505050506040513d601f19601f8201168201806040525081019061152c9190612675565b61153e90678ac7230489e800006126a4565b9050678ac7230489e8000061158d82611555610db7565b1561157957611562610db7565b61157490678ac7230489e800006126a4565b61157b565b835b610a9588678ac7230489e800006126a4565b61105f91906126bb565b6000806115a58460006114a8565b905080156115f3576115ee6115b984611a07565b6115cb90678ac7230489e800006126a4565b6f4b3b4ca85a86c47a098a224000000000610a9584678ac7230489e800006126a4565b61105f565b5060009392505050565b60006104f77f8b73c3c69bb8fe3d512ecc4cf759cc79239f7b179b0ffacaa9a75d522b39400f61162c60315490565b6032546040805160208101859052908101839052606081018290524660808201523060a082015260009060c0016040516020818303038152906040528051906020012090509392505050565b60008061168d6065546001600160a01b031690565b6001600160a01b0316633154b6e26000806040518363ffffffff1660e01b81526004016116bb92919061285f565b602060405180830381865afa1580156116d8573d6000803e3d6000fd5b505050506040513d601f19601f820116820180604052508101906116fc9190612675565b905061171660405180602001604052806000815250611a7d565b6117426040518060400160405280600a81526020016903932ba342fb2ba341d160b51b81525082611ac0565b61176d60405180604001604052806009815260200168030b9b9b2ba39af9d160bd1b81525085611ac0565b6117a36040518060400160405280600d81526020016c03a37ba30b629b430b932b99d1609d1b81525061179e610db7565b611ac0565b6117c86040518060600160405280602481526020016129066024913961179e85611a07565b6117e060405180602001604052806000815250611a7d565b6117e983611a07565b6117fc6117f4610db7565b86908461198b565b61158d90678ac7230489e800006126a4565b60006104f76118256065546001600160a01b031690565b611b05565b600061059f611837610db7565b610e2a6104e7565b6000806118546065546001600160a01b031690565b6001600160a01b0316633154b6e26000856040518363ffffffff1660e01b815260040161188292919061285f565b602060405180830381865afa15801561189f573d6000803e3d6000fd5b505050506040513d601f19601f820116820180604052508101906118c39190612675565b905061105f816118d1610a1b565b156118e3576118de610a1b565b6118e5565b825b8691906112e9565b6001600160a01b03811660009081526069602052604090208054600181018255905b50919050565b600061059f6119226115fd565b8360405161190160f01b6020820152602281018390526042810182905260009060620160405160208183030381529060405280519060200120905092915050565b600080600061197487878787611b51565b9150915061198181611c3e565b5095945050505050565b60008260001904841183021582026119a257600080fd5b50910281810615159190040190565b603054610100900460ff166119d85760405162461bcd60e51b81526004016106ae9061287c565b815160209283012081519190920120603191909155603255565b600061059f6119ff610db7565b61112b610a1b565b6000678ac7230489e80000610b2c6f4b3b4ca85a86c47a098a224000000000611a31856001610d56565b611a4390678ac7230489e800006126a4565b6001600160a01b038616600090815260686020526040902054611a6b9064e8d4a510006126a4565b610a9590678ac7230489e800006126a4565b6103a581604051602401611a919190611fcd565b60408051601f198184030181529190526020810180516001600160e01b031663104c13eb60e21b179052611df4565b6113388282604051602401611ad69291906128c7565b60408051601f198184030181529190526020810180516001600160e01b03166309710a9d60e41b179052611df4565b6040805160048152602481019091526020810180516001600160e01b0316636a57db9d60e11b179052600090611b3b8382611e15565b905080806020019051810190610d799190612675565b6000807f7fffffffffffffffffffffffffffffff5d576e7357a4501ddfe92f46681b20a0831115611b885750600090506003611c35565b8460ff16601b14158015611ba057508460ff16601c14155b15611bb15750600090506004611c35565b6040805160008082526020820180845289905260ff881692820192909252606081018690526080810185905260019060a0016020604051602081039080840390855afa158015611c05573d6000803e3d6000fd5b5050604051601f1901519150506001600160a01b038116611c2e57600060019250925050611c35565b9150600090505b94509492505050565b6000816004811115611c5257611c526126dd565b03611c5a5750565b6001816004811115611c6e57611c6e6126dd565b03611cbb5760405162461bcd60e51b815260206004820152601860248201527f45434453413a20696e76616c6964207369676e6174757265000000000000000060448201526064016106ae565b6002816004811115611ccf57611ccf6126dd565b03611d1c5760405162461bcd60e51b815260206004820152601f60248201527f45434453413a20696e76616c6964207369676e6174757265206c656e6774680060448201526064016106ae565b6003816004811115611d3057611d306126dd565b03611d885760405162461bcd60e51b815260206004820152602260248201527f45434453413a20696e76616c6964207369676e6174757265202773272076616c604482015261756560f01b60648201526084016106ae565b6004816004811115611d9c57611d9c6126dd565b036103a55760405162461bcd60e51b815260206004820152602260248201527f45434453413a20696e76616c6964207369676e6174757265202776272076616c604482015261756560f01b60648201526084016106ae565b80516a636f6e736f6c652e6c6f67602083016000808483855afa5050505050565b6060610d79838360405180606001604052806025815260200161292a602591396060600080856001600160a01b031685604051611e5291906128e9565b600060405180830381855afa9150503d8060008114611e8d576040519150601f19603f3d011682016040523d82523d6000602084013e611e92565b606091505b5091509150611ea386838387611ead565b9695505050505050565b60608315611f1c578251600003611f15576001600160a01b0385163b611f155760405162461bcd60e51b815260206004820152601d60248201527f416464726573733a2063616c6c20746f206e6f6e2d636f6e747261637400000060448201526064016106ae565b508161105f565b61105f8383815115611f315781518083602001fd5b8060405162461bcd60e51b81526004016106ae9190611fcd565b6001600160a01b03811681146103a557600080fd5b600060208284031215611f7257600080fd5b8135610d7981611f4b565b60005b83811015611f98578181015183820152602001611f80565b50506000910152565b60008151808452611fb9816020860160208601611f7d565b601f01601f19169290920160200192915050565b602081526000610d796020830184611fa1565b60008060408385031215611ff357600080fd5b8235611ffe81611f4b565b946020939093013593505050565b60006020828403121561201e57600080fd5b5035919050565b634e487b7160e01b600052604160045260246000fd5b601f8201601f1916810167ffffffffffffffff8111828210171561206157612061612025565b6040525050565b600067ffffffffffffffff83111561208257612082612025565b604051612099601f8501601f19166020018261203b565b8091508381528484840111156120ae57600080fd5b83836020830137600060208583010152509392505050565b600080604083850312156120d957600080fd5b823567ffffffffffffffff8111156120f057600080fd5b8301601f8101851361210157600080fd5b61211085823560208401612068565b925050602083013561212181611f4b565b809150509250929050565b600082601f83011261213d57600080fd5b610d7983833560208501612068565b6000806000806080858703121561216257600080fd5b843561216d81611f4b565b9350602085013561217d81611f4b565b9250604085013567ffffffffffffffff8082111561219a57600080fd5b6121a68883890161212c565b935060608701359150808211156121bc57600080fd5b506121c98782880161212c565b91505092959194509250565b6000806000606084860312156121ea57600080fd5b83356121f581611f4b565b9250602084013561220581611f4b565b929592945050506040919091013590565b6000806040838503121561222957600080fd5b823561223481611f4b565b915060208301356002811061212157600080fd5b6000806040838503121561225b57600080fd5b82359150602083013561212181611f4b565b60ff811681146103a557600080fd5b600080600080600080600060e0888a03121561229757600080fd5b87356122a281611f4b565b965060208801356122b281611f4b565b9550604088013594506060880135935060808801356122d08161226d565b9699959850939692959460a0840135945060c09093013592915050565b6000806040838503121561230057600080fd5b823561230b81611f4b565b9150602083013561212181611f4b565b600181811c9082168061232f57607f821691505b60208210810361190f57634e487b7160e01b600052602260045260246000fd5b600082601f83011261236057600080fd5b8151602067ffffffffffffffff82111561237c5761237c612025565b8160051b60405161238f8383018261203b565b928352848101820192828101878511156123a857600080fd5b83870192505b848310156123c557825181529183019183016123ae565b509695505050505050565b600080604083850312156123e357600080fd5b825167ffffffffffffffff808211156123fb57600080fd5b908401906060828703121561240f57600080fd5b60405160608101818110838211171561242a5761242a612025565b8060405250825181526020830151602082015260408301518281111561244f57600080fd5b61245b8882860161234f565b604083015250809450505050602083015161212181611f4b565b6001600160a01b038316815260406020820181905260009061105f90830184611fa1565b600080604083850312156124ac57600080fd5b505080516020909101519092909150565b600060033d11156124d65760046000803e5060005160e01c5b90565b600060443d10156124e75790565b6040516003193d81016004833e81513d67ffffffffffffffff816024840111818411171561251757505050505090565b828501915081518181111561252f5750505050505090565b843d87010160208285010111156125495750505050505090565b6125586020828601018761203b565b509095945050505050565b6000806040838503121561257657600080fd5b825167ffffffffffffffff8082111561258e57600080fd5b90840190604082870312156125a257600080fd5b6040516040810181811083821117156125bd576125bd612025565b604052825181526020830151828111156125d657600080fd5b6125e28882860161234f565b602083015250809450505050602083015161212181611f4b565b600060018060a01b0380861683526020818616818501526060604085015260a08401915084516060850152808501516040608086015282815180855260c0870191508383019450600092505b808310156126685784518252938301936001929092019190830190612648565b5098975050505050505050565b60006020828403121561268757600080fd5b5051919050565b634e487b7160e01b600052601160045260246000fd5b808202811582820484141761059f5761059f61268e565b6000826126d857634e487b7160e01b600052601260045260246000fd5b500490565b634e487b7160e01b600052602160045260246000fd5b600281106103a557634e487b7160e01b600052602160045260246000fd5b6020810161271e836126f3565b91905290565b601f82111561276a57600081815260208120601f850160051c8101602086101561274b5750805b601f850160051c820191505b8181101561119b57828155600101612757565b505050565b815167ffffffffffffffff81111561278957612789612025565b61279d81612797845461231b565b84612724565b602080601f8311600181146127d257600084156127ba5750858301515b600019600386901b1c1916600185901b17855561119b565b600085815260208120601f198616915b82811015612801578886015182559484019460019091019084016127e2565b508582101561281f5787850151600019600388901b60f8161c191681555b5050505050600190811b01905550565b60006020828403121561284157600080fd5b8151610d798161226d565b8082018082111561059f5761059f61268e565b8281526040810161286f836126f3565b8260208301529392505050565b6020808252602b908201527f496e697469616c697a61626c653a20636f6e7472616374206973206e6f74206960408201526a6e697469616c697a696e6760a81b606082015260800190565b6040815260006128da6040830185611fa1565b90508260208301529392505050565b600082516128fb818460208701611f7d565b919091019291505056fe5f63616c63756c6174655363616c696e67466163746f7232286163636f756e745f293a20416464726573733a206c6f772d6c6576656c207374617469632063616c6c206661696c6564a2646970667358221220264801b9c848e63a5c16129dfd329a155b6b94a3aa2324550ab41a7643958d7364736f6c63430008150033","linkReferences":{}},"methodIdentifiers":{"DOMAIN_SEPARATOR()":"3644e515","FORMAT_DECIMALS()":"a01c8774","_convertToAssetsFromUnderlying(uint256)":"70a25869","allowance(address,address)":"dd62ed3e","approve(address,uint256)":"095ea7b3","asset()":"38d52e0f","balanceOf(address)":"70a08231","claimReward()":"b88a802f","convertToAssets(uint256,address)":"36103291","convertToShares(uint256)":"c6e6f592","convertToUnderlying(uint256)":"1dc7f521","decimals()":"313ce567","decreaseAllowance(address,uint256)":"a457c2d7","earned(address)":"008cc262","getRewardsData()":"7d098e64","increaseAllowance(address,uint256)":"39509351","initialize(address,address,string,string)":"2016a0d2","lastTimeRewardApplicable()":"80faa57d","mint(bytes,address)":"0cae37f1","name()":"06fdde03","nonces(address)":"7ecebe00","notifyRewardAmount(uint256)":"3c6b16ab","permit(address,address,uint256,uint256,uint8,bytes32,bytes32)":"d505accf","previewMint(uint256)":"b3d7f6b9","previewRedeem(uint256)":"4cdad506","previewWithdraw(uint256)":"0a28a477","redeem(bytes,address)":"0ba097d6","rewardPerToken()":"cd3daf9d","setRewardsDuration(uint256)":"cc1a378f","sharesOf(address)":"f5eb42dc","subBalanceOf(address,uint8)":"279d97ef","subBalanceOf2(address,uint8)":"cfec59de","subConvertToShares(uint256,address)":"4702a084","symbol()":"95d89b41","totalAssets()":"01e1d114","totalShares()":"3a98ef39","totalSupply()":"18160ddd","transfer(address,uint256)":"a9059cbb","transferFrom(address,address,uint256)":"23b872dd"},"id":45}