{"abi":[{"type":"constructor","inputs":[],"stateMutability":"nonpayable"},{"type":"function","name":"DOMAIN_SEPARATOR","inputs":[],"outputs":[{"name":"","type":"bytes32","internalType":"bytes32"}],"stateMutability":"view"},{"type":"function","name":"FORMAT_DECIMALS","inputs":[],"outputs":[{"name":"","type":"uint256","internalType":"uint256"}],"stateMutability":"view"},{"type":"function","name":"allowance","inputs":[{"name":"owner","type":"address","internalType":"address"},{"name":"spender","type":"address","internalType":"address"}],"outputs":[{"name":"","type":"uint256","internalType":"uint256"}],"stateMutability":"view"},{"type":"function","name":"approve","inputs":[{"name":"spender","type":"address","internalType":"address"},{"name":"amount","type":"uint256","internalType":"uint256"}],"outputs":[{"name":"","type":"bool","internalType":"bool"}],"stateMutability":"nonpayable"},{"type":"function","name":"asset","inputs":[],"outputs":[{"name":"","type":"address","internalType":"address"}],"stateMutability":"view"},{"type":"function","name":"balanceOf","inputs":[{"name":"account_","type":"address","internalType":"address"}],"outputs":[{"name":"","type":"uint256","internalType":"uint256"}],"stateMutability":"view"},{"type":"function","name":"balanceOf2","inputs":[{"name":"account_","type":"address","internalType":"address"}],"outputs":[{"name":"","type":"uint256","internalType":"uint256"}],"stateMutability":"view"},{"type":"function","name":"claimReward","inputs":[],"outputs":[{"name":"","type":"uint256","internalType":"uint256"}],"stateMutability":"nonpayable"},{"type":"function","name":"convertToOzTokens","inputs":[{"name":"shares_","type":"uint256","internalType":"uint256"},{"name":"account_","type":"address","internalType":"address"}],"outputs":[{"name":"","type":"uint256","internalType":"UintRay"}],"stateMutability":"view"},{"type":"function","name":"convertToShares","inputs":[{"name":"assets_","type":"uint256","internalType":"uint256"},{"name":"account_","type":"address","internalType":"address"}],"outputs":[{"name":"","type":"uint256","internalType":"uint256"}],"stateMutability":"view"},{"type":"function","name":"convertToSharesFromOzBalance","inputs":[{"name":"ozBalance_","type":"uint256","internalType":"uint256"}],"outputs":[{"name":"","type":"uint256","internalType":"uint256"}],"stateMutability":"view"},{"type":"function","name":"convertToUnderlying","inputs":[{"name":"shares_","type":"uint256","internalType":"uint256"}],"outputs":[{"name":"","type":"uint256","internalType":"uint256"}],"stateMutability":"view"},{"type":"function","name":"decimals","inputs":[],"outputs":[{"name":"","type":"uint8","internalType":"uint8"}],"stateMutability":"pure"},{"type":"function","name":"decreaseAllowance","inputs":[{"name":"spender","type":"address","internalType":"address"},{"name":"subtractedValue","type":"uint256","internalType":"uint256"}],"outputs":[{"name":"","type":"bool","internalType":"bool"}],"stateMutability":"nonpayable"},{"type":"function","name":"earned","inputs":[{"name":"user_","type":"address","internalType":"address"}],"outputs":[{"name":"","type":"uint256","internalType":"uint256"}],"stateMutability":"view"},{"type":"function","name":"getRewardsData","inputs":[],"outputs":[{"name":"rewardRate","type":"uint256","internalType":"uint256"},{"name":"circulatingSupply","type":"uint256","internalType":"uint256"},{"name":"pendingAllocation","type":"uint256","internalType":"uint256"},{"name":"recicledSupply","type":"uint256","internalType":"uint256"},{"name":"durationLeft","type":"int256","internalType":"int256"}],"stateMutability":"view"},{"type":"function","name":"increaseAllowance","inputs":[{"name":"spender","type":"address","internalType":"address"},{"name":"addedValue","type":"uint256","internalType":"uint256"}],"outputs":[{"name":"","type":"bool","internalType":"bool"}],"stateMutability":"nonpayable"},{"type":"function","name":"initialize","inputs":[{"name":"underlying_","type":"address","internalType":"address"},{"name":"diamond_","type":"address","internalType":"address"},{"name":"name_","type":"string","internalType":"string"},{"name":"symbol_","type":"string","internalType":"string"}],"outputs":[],"stateMutability":"nonpayable"},{"type":"function","name":"lastTimeRewardApplicable","inputs":[],"outputs":[{"name":"","type":"uint256","internalType":"uint256"}],"stateMutability":"view"},{"type":"function","name":"mint","inputs":[{"name":"data_","type":"bytes","internalType":"bytes"},{"name":"owner_","type":"address","internalType":"address"}],"outputs":[{"name":"","type":"uint256","internalType":"uint256"}],"stateMutability":"payable"},{"type":"function","name":"mint2","inputs":[{"name":"data_","type":"bytes","internalType":"bytes"},{"name":"owner_","type":"address","internalType":"address"},{"name":"isETH_","type":"bool","internalType":"bool"}],"outputs":[{"name":"","type":"uint256","internalType":"uint256"}],"stateMutability":"payable"},{"type":"function","name":"name","inputs":[],"outputs":[{"name":"","type":"string","internalType":"string"}],"stateMutability":"view"},{"type":"function","name":"nonces","inputs":[{"name":"owner","type":"address","internalType":"address"}],"outputs":[{"name":"","type":"uint256","internalType":"uint256"}],"stateMutability":"view"},{"type":"function","name":"notifyRewardAmount","inputs":[{"name":"amount_","type":"uint256","internalType":"uint256"}],"outputs":[],"stateMutability":"nonpayable"},{"type":"function","name":"permit","inputs":[{"name":"owner","type":"address","internalType":"address"},{"name":"spender","type":"address","internalType":"address"},{"name":"value","type":"uint256","internalType":"uint256"},{"name":"deadline","type":"uint256","internalType":"uint256"},{"name":"v","type":"uint8","internalType":"uint8"},{"name":"r","type":"bytes32","internalType":"bytes32"},{"name":"s_","type":"bytes32","internalType":"bytes32"}],"outputs":[],"stateMutability":"nonpayable"},{"type":"function","name":"redeem","inputs":[{"name":"data_","type":"bytes","internalType":"bytes"},{"name":"owner_","type":"address","internalType":"address"}],"outputs":[{"name":"","type":"uint256","internalType":"uint256"}],"stateMutability":"nonpayable"},{"type":"function","name":"rewardPerToken","inputs":[],"outputs":[{"name":"","type":"uint256","internalType":"uint256"}],"stateMutability":"view"},{"type":"function","name":"setRewardsDuration","inputs":[{"name":"duration_","type":"uint256","internalType":"uint256"}],"outputs":[],"stateMutability":"nonpayable"},{"type":"function","name":"sharesOf","inputs":[{"name":"account_","type":"address","internalType":"address"}],"outputs":[{"name":"","type":"uint256","internalType":"uint256"}],"stateMutability":"view"},{"type":"function","name":"symbol","inputs":[],"outputs":[{"name":"","type":"string","internalType":"string"}],"stateMutability":"view"},{"type":"function","name":"totalAssets","inputs":[],"outputs":[{"name":"","type":"uint256","internalType":"uint256"}],"stateMutability":"view"},{"type":"function","name":"totalShares","inputs":[],"outputs":[{"name":"","type":"uint256","internalType":"uint256"}],"stateMutability":"view"},{"type":"function","name":"totalSupply","inputs":[],"outputs":[{"name":"","type":"uint256","internalType":"uint256"}],"stateMutability":"view"},{"type":"function","name":"transfer","inputs":[{"name":"to","type":"address","internalType":"address"},{"name":"amount","type":"uint256","internalType":"uint256"}],"outputs":[{"name":"","type":"bool","internalType":"bool"}],"stateMutability":"nonpayable"},{"type":"function","name":"transferFrom","inputs":[{"name":"from","type":"address","internalType":"address"},{"name":"to","type":"address","internalType":"address"},{"name":"amount","type":"uint256","internalType":"uint256"}],"outputs":[{"name":"","type":"bool","internalType":"bool"}],"stateMutability":"nonpayable"},{"type":"function","name":"transferShares","inputs":[{"name":"recipient_","type":"address","internalType":"address"},{"name":"shares_","type":"uint256","internalType":"uint256"}],"outputs":[{"name":"","type":"uint256","internalType":"uint256"}],"stateMutability":"nonpayable"},{"type":"function","name":"transferSharesFrom","inputs":[{"name":"sender_","type":"address","internalType":"address"},{"name":"recipient_","type":"address","internalType":"address"},{"name":"shares_","type":"uint256","internalType":"uint256"}],"outputs":[{"name":"","type":"uint256","internalType":"uint256"}],"stateMutability":"nonpayable"},{"type":"event","name":"Approval","inputs":[{"name":"owner","type":"address","indexed":true,"internalType":"address"},{"name":"spender","type":"address","indexed":true,"internalType":"address"},{"name":"value","type":"uint256","indexed":false,"internalType":"uint256"}],"anonymous":false},{"type":"event","name":"Initialized","inputs":[{"name":"version","type":"uint8","indexed":false,"internalType":"uint8"}],"anonymous":false},{"type":"event","name":"OzTokenMinted","inputs":[{"name":"owner","type":"address","indexed":false,"internalType":"address"},{"name":"shares","type":"uint256","indexed":false,"internalType":"uint256"},{"name":"assets","type":"uint256","indexed":false,"internalType":"uint256"}],"anonymous":false},{"type":"event","name":"OzTokenRedeemed","inputs":[{"name":"owner","type":"address","indexed":false,"internalType":"address"},{"name":"ozAmountIn","type":"uint256","indexed":false,"internalType":"uint256"},{"name":"shares","type":"uint256","indexed":false,"internalType":"uint256"},{"name":"assets","type":"uint256","indexed":false,"internalType":"uint256"}],"anonymous":false},{"type":"event","name":"Transfer","inputs":[{"name":"from","type":"address","indexed":true,"internalType":"address"},{"name":"to","type":"address","indexed":true,"internalType":"address"},{"name":"value","type":"uint256","indexed":false,"internalType":"uint256"}],"anonymous":false},{"type":"event","name":"TransferShares","inputs":[{"name":"from","type":"address","indexed":true,"internalType":"address"},{"name":"to","type":"address","indexed":true,"internalType":"address"},{"name":"sharesAmoutn","type":"uint256","indexed":false,"internalType":"uint256"}],"anonymous":false},{"type":"error","name":"OZError03","inputs":[]},{"type":"error","name":"OZError04","inputs":[{"name":"from","type":"address","internalType":"address"},{"name":"to","type":"address","internalType":"address"}]},{"type":"error","name":"OZError05","inputs":[{"name":"amount","type":"uint256","internalType":"uint256"}]},{"type":"error","name":"OZError06","inputs":[{"name":"sender","type":"address","internalType":"address"},{"name":"accountShares","type":"uint256","internalType":"uint256"},{"name":"shares","type":"uint256","internalType":"uint256"}]},{"type":"error","name":"OZError07","inputs":[{"name":"from","type":"address","internalType":"address"},{"name":"fromShares","type":"uint256","internalType":"uint256"},{"name":"shares","type":"uint256","internalType":"uint256"}]},{"type":"error","name":"OZError08","inputs":[{"name":"deadline","type":"uint256","internalType":"uint256"},{"name":"blockTimestamp","type":"uint256","internalType":"uint256"}]},{"type":"error","name":"OZError09","inputs":[{"name":"owner","type":"address","internalType":"address"},{"name":"spender","type":"address","internalType":"address"}]},{"type":"error","name":"OZError22","inputs":[{"name":"reason","type":"string","internalType":"string"}]},{"type":"error","name":"OZError35","inputs":[{"name":"ozAmountIn","type":"uint256","internalType":"uint256"}]},{"type":"error","name":"OZError37","inputs":[]},{"type":"error","name":"OZError38","inputs":[]},{"type":"error","name":"OZError39","inputs":[{"name":"data","type":"bytes","internalType":"bytes"}]},{"type":"error","name":"OZError42","inputs":[]},{"type":"error","name":"OZError43","inputs":[]}],"bytecode":{"object":"0x608060405234801562000010575f80fd5b506200001b62000021565b620000e3565b603b54610100900460ff16156200008e5760405162461bcd60e51b815260206004820152602760248201527f496e697469616c697a61626c653a20636f6e747261637420697320696e697469604482015266616c697a696e6760c81b606482015260840160405180910390fd5b603b5460ff9081161015620000e157603b805460ff191660ff9081179091556040519081527f7f26b83ff96e1f2b6a682f133852f6798a09c465da95921460cefb38474024989060200160405180910390a15b565b612c5080620000f15f395ff3fe608060405260043610610211575f3560e01c806370a082311161011e578063a457c2d7116100a8578063cd3daf9d1161006d578063cd3daf9d146104de578063d295fa9a14610595578063d505accf146105b4578063dd62ed3e146105d3578063f5eb42dc146105f2575f80fd5b8063a457c2d714610538578063a9059cbb14610557578063b88a802f146104de578063bc93f1cf14610576578063cc1a378f146103db575f80fd5b80637f5b002e116100ee5780637f5b002e146104bf57806380faa57d146104de5780638fcb4e5b146104f057806395d89b411461050f578063a01c877414610523575f80fd5b806370a08231146104365780637b044637146104555780637d098e64146104685780637ecebe00146104a0575f80fd5b806323b872dd1161019f578063395093511161016f57806339509351146103a85780633a98ef39146103c75780633c6b16ab146103db57806369e41c62146103f85780636d78045914610417575f80fd5b806323b872dd14610333578063313ce567146103525780633644e5151461036d57806338d52e0f14610381575f80fd5b80630ba097d6116101e55780630ba097d6146102ab5780630cae37f1146102ca57806318160ddd146102df5780631dc7f521146102f35780632016a0d214610312575f80fd5b80628cc2621461021557806301e1d1141461024757806306fdde031461025b578063095ea7b31461027c575b5f80fd5b348015610220575f80fd5b5061023461022f366004612164565b505f90565b6040519081526020015b60405180910390f35b348015610252575f80fd5b50610234610626565b348015610266575f80fd5b5061026f61063a565b60405161023e91906121c2565b348015610287575f80fd5b5061029b6102963660046121d4565b6106ca565b604051901515815260200161023e565b3480156102b6575f80fd5b506102346102c53660046122d5565b6106e0565b6102346102d83660046122d5565b5f92915050565b3480156102ea575f80fd5b50610234610ab9565b3480156102fe575f80fd5b5061023461030d366004612324565b610b1b565b34801561031d575f80fd5b5061033161032c36600461233b565b610ba8565b005b34801561033e575f80fd5b5061029b61034d3660046123bf565b610da4565b34801561035d575f80fd5b506040516012815260200161023e565b348015610378575f80fd5b50610234610dc5565b34801561038c575f80fd5b506071546040516001600160a01b03909116815260200161023e565b3480156103b3575f80fd5b5061029b6103c23660046121d4565b610dce565b3480156103d2575f80fd5b50610234610dee565b3480156103e6575f80fd5b506103316103f5366004612324565b50565b348015610403575f80fd5b50610234610412366004612324565b610dfe565b348015610422575f80fd5b506102346104313660046123bf565b610e1a565b348015610441575f80fd5b50610234610450366004612164565b610e55565b6102346104633660046123fd565b610ff5565b348015610473575f80fd5b50604080515f8082526020820181905291810182905260608101829052608081019190915260a00161023e565b3480156104ab575f80fd5b506102346104ba366004612164565b611263565b3480156104ca575f80fd5b506102346104d9366004612164565b611280565b3480156104e9575f80fd5b505f610234565b3480156104fb575f80fd5b5061023461050a3660046121d4565b6112ab565b34801561051a575f80fd5b5061026f6112da565b34801561052e575f80fd5b5061023460785481565b348015610543575f80fd5b5061029b6105523660046121d4565b6112e9565b348015610562575f80fd5b5061029b6105713660046121d4565b611325565b348015610581575f80fd5b50610234610590366004612461565b611331565b3480156105a0575f80fd5b506102346105af366004612461565b61137e565b3480156105bf575f80fd5b506103316105ce366004612492565b61142a565b3480156105de575f80fd5b506102346105ed3660046124fe565b611549565b3480156105fd575f80fd5b5061023461060c366004612164565b6001600160a01b03165f9081526073602052604090205490565b6072545f906106359082611573565b905090565b6060607680546106499061252a565b80601f01602080910402602001604051908101604052809291908181526020018280546106759061252a565b80156106c05780601f10610697576101008083540402835291602001916106c0565b820191905f5260205f20905b8154815290600101906020018083116106a357829003601f168201915b5050505050905090565b5f6106d63384846115b5565b5060015b92915050565b5f7fd979d933a329cda0d1d95e3d7a8aaccfc305f1200c53a87f37e6841bb793452c805c156107225760405163b955425560e01b815260048101604052600481fd5b6001815d60705483906001600160a01b03168015610794576040516241fec360e31b81526001600160a01b03838116600483015282169063020ff618906024015f604051808303815f87803b158015610779575f80fd5b505af115801561078b573d5f803e3d5ffd5b505050506107d5565b5f601a555f6018556001600160a01b038216156107d5576001600160a01b0382165f908152601e60209081526040808320839055601a54601d909252909120555b855161010014610803578560405163041979eb60e41b81526004016107fa91906121c2565b60405180910390fd5b5f8087806020019051810190610819919061258f565b815191935091506001600160a01b038816158061083d57506001600160a01b038216155b1561085b57604051632534b66960e21b815260040160405180910390fd5b6729a2241af62c000081101561088757604051631a98558360e21b8152600481018290526024016107fa565b6001600160a01b0388165f90815260736020526040812054906108aa838b61137e565b9050808210156108d357898282604051637ac073bf60e01b81526004016107fa93929190612683565b5f81905060705f9054906101000a90046001600160a01b03166001600160a01b031663a1b86b388c8e6040518363ffffffff1660e01b81526004016109199291906126a4565b60408051808303815f875af1925050508015610952575060408051601f3d908101601f1916820190925261094f918101906126c7565b60015b6109a25761095e6126e9565b806308c379a0036109985750610972612702565b8061097d575061099a565b80604051631bc63b8160e01b81526004016107fa91906121c2565b505b3d5f803e3d5ffd5b6109ad825f80611663565b6070546001600160a01b03165f9081526073602052604090205494506109d483865f6116d7565b5f60735f60705f9054906101000a90046001600160a01b03166001600160a01b03166001600160a01b031681526020019081526020015f20819055508260795f8f6001600160a01b03166001600160a01b031681526020019081526020015f205f82825403925050819055507f4181bb2dd7cb8bbe372dc317652857a2e512544faeba7c902b5e80107831732b8d878686604051610a9694939291906001600160a01b0394909416845260208401929092526040830152606082015260800190565b60405180910390a19a50610aad9650505050505050565b50505f815d5092915050565b5f610ac2610dee565b1561022f57610635610b16610aec610ad8610626565b610ae79064e8d4a5100061279f565b611733565b610afe610af7610dee565b600161174a565b610b0f610b09610dee565b5f61174a565b91906117fb565b611911565b5f610b24610dee565b60705460405163a4fc284b60e01b81526001600160a01b039091169063a4fc284b90610b55906001906004016127e6565b602060405180830381865afa158015610b70573d5f803e3d5ffd5b505050506040513d601f19601f82011682018060405250810190610b9491906127f9565b610b9e908461279f565b6106da9190612824565b603b54610100900460ff1615808015610bc85750603b54600160ff909116105b80610be25750303b158015610be25750603b5460ff166001145b610c455760405162461bcd60e51b815260206004820152602e60248201527f496e697469616c697a61626c653a20636f6e747261637420697320616c72656160448201526d191e481a5b9a5d1a585b1a5e995960921b60648201526084016107fa565b603b805460ff191660011790558015610c6857603b805461ff0019166101001790555b6076610c748482612880565b506077610c818382612880565b50607080546001600160a01b038087166001600160a01b03199283161790925560718054928816929091169190911790556040805180820190915260018152603160f81b6020820152610cd5908490611928565b846001600160a01b031663313ce5676040518163ffffffff1660e01b8152600401602060405180830381865afa158015610d11573d5f803e3d5ffd5b505050506040513d601f19601f82011682018060405250810190610d359190612940565b60ff16601214610d46576001610d4d565b64e8d4a510005b64ffffffffff166078558015610d9d57603b805461ff0019169055604051600181527f7f26b83ff96e1f2b6a682f133852f6798a09c465da95921460cefb38474024989060200160405180910390a15b5050505050565b5f610db084338461195d565b610dbb8484846119a9565b5060019392505050565b5f610635611ab1565b5f6106d6338484610ddf3388611549565b610de9919061295b565b6115b5565b6072545f90610635906001611573565b5f6106da610e0a610dee565b610e12610ab9565b849190611b2a565b5f80610e29610b168487611331565b9050610e3685338361195d565b610e41858585611b4d565b610e4d85858386611c35565b949350505050565b5f80610edf670de0b6b3a764000062093a80610e796070546001600160a01b031690565b6001600160a01b0316631dc111956040518163ffffffff1660e01b8152600401602060405180830381865afa158015610eb4573d5f803e3d5ffd5b505050506040513d601f19601f82011682018060405250810190610ed891906127f9565b9190611cd5565b6001600160a01b0384165f90815260796020526040812054919250610f0c6070546001600160a01b031690565b6040516394f649dd60e01b81526001600160a01b03878116600483015291909116906394f649dd906024015f60405180830381865afa158015610f51573d5f803e3d5ffd5b505050506040513d5f823e601f3d908101601f19168201604052610f7891908101906129ac565b90505f815f81518110610f8d57610f8d612a4f565b602002602001015190505f816040015142610fa89190612a63565b90506305f5e100670de0b6b3a7640000610fc2838861279f565b610fcc9190612824565b610fd6908661279f565b610fe09190612824565b610fea908561295b565b979650505050505050565b5f7fd979d933a329cda0d1d95e3d7a8aaccfc305f1200c53a87f37e6841bb793452c805c156110375760405163b955425560e01b815260048101604052600481fd5b6001815d5f80868060200190518101906110519190612a89565b91509150841561107f573482602001511461107f57604051631008b85760e11b815260040160405180910390fd5b8151158061108f57506020820151155b156110ad5760405163e5da5c7360e01b815260040160405180910390fd5b6001600160a01b03861615806110ca57506001600160a01b038116155b156110e857604051632534b66960e21b815260040160405180910390fd5b60785482515f916110f99190611cf0565b6070549091506001600160a01b03166355dae15c346111206071546001600160a01b031690565b604080516001600160e01b031960e086901b1681526001600160a01b039283166004820152918c1660248301528751604483015260208801516064830152870151608482015289151560a482015260c401604080518083038185885af1935050505080156111ab575060408051601f3d908101601f191682019092526111a8918101906126c7565b60015b6111b75761095e6126e9565b6111c382826001611663565b826111d0818060016116d7565b6111e2858760200151885f0151611cfb565b6001600160a01b0385165f908152607360209081526040808320805485019055607990915290819020805486019055517fcb7696223ea9f009e8eb0ecd9af1e430306b6c7c719e906d4a4af52bcba6353a90611243908c9084908890612683565b60405180910390a19650611258945050505050565b5f815d509392505050565b6001600160a01b0381165f908152607460205260408120546106da565b5f6106da610b166112a5846001600160a01b03165f9081526073602052604090205490565b84611331565b5f806112ba610b168433611331565b90506112c7338585611b4d565b6112d333858386611c35565b9392505050565b6060607780546106499061252a565b5f806112f53385611549565b905082811015611318576040516361ceb1d360e01b815260040160405180910390fd5b610dbb33858584036115b5565b5f6106d63384846119a9565b5f8061133d845f61174a565b905080156113755761137061135184611d2f565b6113686b033b2e3c9fd0803ce80000006002611d96565b8391906117fb565b610e4d565b5f949350505050565b5f806113926070546001600160a01b031690565b6001600160a01b0316633154b6e25f806040518363ffffffff1660e01b81526004016113bf929190612ab4565b602060405180830381865afa1580156113da573d5f803e3d5ffd5b505050506040513d601f19601f820116820180604052508101906113fe91906127f9565b9050610e4d61140c84611d2f565b61142461141a610ae7610dee565b84610b0f89611733565b90611da1565b834211156114545760405163184f1e0160e11b8152600481018590524260248201526044016107fa565b5f7f6e71edae12b1b97f4d1f60370fef10105fa2faae0126114a169c64845d6126c98888886114828c611ddc565b6040805160208101969096526001600160a01b0394851690860152929091166060840152608083015260a082015260c0810186905260e0016040516020818303038152906040528051906020012090505f6114dc82611e03565b90505f6114eb82878787611e4f565b9050896001600160a01b0316816001600160a01b03161461153257604051635091bef560e01b81526001600160a01b0380831660048301528b1660248201526044016107fa565b61153d8a8a8a6115b5565b50505050505050505050565b6001600160a01b039182165f90815260756020908152604080832093909416825291909152205490565b5f6fffffffffffffffffffffffffffffffff81836001811115611598576115986127b6565b146115a557838116610e4d565b608084901c811691505092915050565b6001600160a01b03831615806115d257506001600160a01b038216155b1561160357604051637db368a160e01b81526001600160a01b038085166004830152831660248201526044016107fa565b6001600160a01b038381165f8181526075602090815260408083209487168084529482529182902085905590518481527f8c5be1e5ebec7d5bd14f71427d1e84f3dd0314c0f7b2291e5b200ac8c7c3b925910160405180910390a3505050565b60705460405163db185e8960e01b8152306004820152602481018590526044810184905282151560648201526001600160a01b039091169063db185e89906084015b5f604051808303815f87803b1580156116bc575f80fd5b505af11580156116ce573d5f803e3d5ffd5b50505050505050565b6072545f906116e69082611573565b90505f6116ff600160725461157390919063ffffffff16565b905082156117125790840190830161171b565b90849003908390035b61172981608084901b61295b565b6072555050505050565b5f6106da826b033b2e3c9fd0803ce800000061279f565b5f806117cd6117616070546001600160a01b031690565b6001600160a01b0316633154b6e25f866040518363ffffffff1660e01b815260040161178e929190612ab4565b602060405180830381865afa1580156117a9573d5f803e3d5ffd5b505050506040513d601f19601f82011682018060405250810190610ae791906127f9565b9050610e4d816117db610dee565b156117f0576117eb610ae7610dee565b6117f2565b825b610b0f87611733565b604051633f9b43b760e11b815260048101849052602481018390525f908490849084908490819073__$a7d7f0af96ad7248e2170a1364c3372171$__90637f36876e906044016040805180830381865af415801561185b573d5f803e3d5ffd5b505050506040513d601f19601f8201168201806040525081019061187f91906126c7565b6040516399ed504f60e01b8152600481018390526024810182905260448101869052919350915073__$a7d7f0af96ad7248e2170a1364c3372171$__906399ed504f90606401602060405180830381865af41580156118e0573d5f803e3d5ffd5b505050506040513d601f19601f8201168201806040525081019061190491906127f9565b9998505050505050505050565b5f6106da6b033b2e3c9fd0803ce800000083612824565b603b54610100900460ff1661194f5760405162461bcd60e51b81526004016107fa90612ad1565b6119598282611e75565b5050565b5f6119688484611549565b90505f1981146119a35781811015611996576040516306052b7f60e01b8152600481018390526024016107fa565b6119a384848484036115b5565b50505050565b6001600160a01b03831615806119c657506001600160a01b038216155b156119f757604051637db368a160e01b81526001600160a01b038085166004830152831660248201526044016107fa565b5f611a0182610dfe565b6001600160a01b0385165f9081526073602052604090205490915081811015611a43578481836040516315c29bad60e31b81526004016107fa93929190612683565b6001600160a01b038086165f8181526073602052604080822086860390559287168082529083902080548601905591517fddf252ad1be2c89b69c2b068fc378daa952ba7f163c4a11628f55a4df523b3ef90611aa29087815260200190565b60405180910390a35050505050565b5f6106357f8b73c3c69bb8fe3d512ecc4cf759cc79239f7b179b0ffacaa9a75d522b39400f611adf603c5490565b603d546040805160208101859052908101839052606081018290524660808201523060a08201525f9060c0016040516020818303038152906040528051906020012090509392505050565b5f825f190484118302158202611b3e575f80fd5b50910281810615159190040190565b6001600160a01b0383161580611b6a57506001600160a01b038216155b15611b9b57604051637db368a160e01b81526001600160a01b038085166004830152831660248201526044016107fa565b306001600160a01b03831603611bc457604051636d3bb4b960e11b815260040160405180910390fd5b6001600160a01b0383165f9081526073602052604090205480821115611c03578381836040516315c29bad60e31b81526004016107fa93929190612683565b6001600160a01b039384165f908152607360205260408082209284900390925592909316825291902080549091019055565b826001600160a01b0316846001600160a01b03167fddf252ad1be2c89b69c2b068fc378daa952ba7f163c4a11628f55a4df523b3ef84604051611c7a91815260200190565b60405180910390a3826001600160a01b0316846001600160a01b03167f9d9c909296d9c674451c0c24f02cb64981eb3b727f99865939192f880a755dcb83604051611cc791815260200190565b60405180910390a350505050565b5f825f190484118302158202611ce9575f80fd5b5091020490565b5f6112d38284612824565b6070546040516331a2e95360e21b81526001600160a01b039091169063c68ba54c906116a590869086908690600401612683565b5f6106da611d4a6b033b2e3c9fd0803ce80000006002611d96565b611d6b610af7856001600160a01b03165f9081526073602052604090205490565b6001600160a01b0385165f90815260736020526040902054610b0f90610ae79064e8d4a5100061279f565b5f6112d38284612bfc565b5f8282611dae8183612c07565b15611dba576001611dbc565b5f5b60ff16611dc98284612824565b611dd3919061295b565b95945050505050565b6001600160a01b0381165f9081526074602052604090208054600181018255905b50919050565b5f6106da611e0f611ab1565b8360405161190160f01b602082015260228101839052604281018290525f9060620160405160208183030381529060405280519060200120905092915050565b5f805f611e5e87878787611eb6565b91509150611e6b81611f9b565b5095945050505050565b603b54610100900460ff16611e9c5760405162461bcd60e51b81526004016107fa90612ad1565b815160209283012081519190920120603c91909155603d55565b5f807f7fffffffffffffffffffffffffffffff5d576e7357a4501ddfe92f46681b20a0831115611eeb57505f90506003611f92565b8460ff16601b14158015611f0357508460ff16601c14155b15611f1357505f90506004611f92565b604080515f8082526020820180845289905260ff881692820192909252606081018690526080810185905260019060a0016020604051602081039080840390855afa158015611f64573d5f803e3d5ffd5b5050604051601f1901519150506001600160a01b038116611f8c575f60019250925050611f92565b91505f90505b94509492505050565b5f816004811115611fae57611fae6127b6565b03611fb65750565b6001816004811115611fca57611fca6127b6565b036120175760405162461bcd60e51b815260206004820152601860248201527f45434453413a20696e76616c6964207369676e6174757265000000000000000060448201526064016107fa565b600281600481111561202b5761202b6127b6565b036120785760405162461bcd60e51b815260206004820152601f60248201527f45434453413a20696e76616c6964207369676e6174757265206c656e6774680060448201526064016107fa565b600381600481111561208c5761208c6127b6565b036120e45760405162461bcd60e51b815260206004820152602260248201527f45434453413a20696e76616c6964207369676e6174757265202773272076616c604482015261756560f01b60648201526084016107fa565b60048160048111156120f8576120f86127b6565b036103f55760405162461bcd60e51b815260206004820152602260248201527f45434453413a20696e76616c6964207369676e6174757265202776272076616c604482015261756560f01b60648201526084016107fa565b6001600160a01b03811681146103f5575f80fd5b5f60208284031215612174575f80fd5b81356112d381612150565b5f81518084525f5b818110156121a357602081850181015186830182015201612187565b505f602082860101526020601f19601f83011685010191505092915050565b602081525f6112d3602083018461217f565b5f80604083850312156121e5575f80fd5b82356121f081612150565b946020939093013593505050565b634e487b7160e01b5f52604160045260245ffd5b6060810181811067ffffffffffffffff82111715612232576122326121fe565b60405250565b601f8201601f1916810167ffffffffffffffff8111828210171561225e5761225e6121fe565b6040525050565b5f82601f830112612274575f80fd5b813567ffffffffffffffff81111561228e5761228e6121fe565b6040516122a5601f8301601f191660200182612238565b8181528460208386010111156122b9575f80fd5b816020850160208301375f918101602001919091529392505050565b5f80604083850312156122e6575f80fd5b823567ffffffffffffffff8111156122fc575f80fd5b61230885828601612265565b925050602083013561231981612150565b809150509250929050565b5f60208284031215612334575f80fd5b5035919050565b5f805f806080858703121561234e575f80fd5b843561235981612150565b9350602085013561236981612150565b9250604085013567ffffffffffffffff80821115612385575f80fd5b61239188838901612265565b935060608701359150808211156123a6575f80fd5b506123b387828801612265565b91505092959194509250565b5f805f606084860312156123d1575f80fd5b83356123dc81612150565b925060208401356123ec81612150565b929592945050506040919091013590565b5f805f6060848603121561240f575f80fd5b833567ffffffffffffffff811115612425575f80fd5b61243186828701612265565b935050602084013561244281612150565b915060408401358015158114612456575f80fd5b809150509250925092565b5f8060408385031215612472575f80fd5b82359150602083013561231981612150565b60ff811681146103f5575f80fd5b5f805f805f805f60e0888a0312156124a8575f80fd5b87356124b381612150565b965060208801356124c381612150565b9550604088013594506060880135935060808801356124e181612484565b9699959850939692959460a0840135945060c09093013592915050565b5f806040838503121561250f575f80fd5b823561251a81612150565b9150602083013561231981612150565b600181811c9082168061253e57607f821691505b602082108103611dfd57634e487b7160e01b5f52602260045260245ffd5b5f67ffffffffffffffff821115612575576125756121fe565b5060051b60200190565b805161258a81612150565b919050565b5f80604083850312156125a0575f80fd5b825167ffffffffffffffff808211156125b7575f80fd5b90840190606082870312156125ca575f80fd5b6040516125d681612212565b82518152602080840151818301526040840151838111156125f5575f80fd5b80850194505087601f850112612609575f80fd5b835192506126168361255c565b6040516126238282612238565b84815260059490941b8501820193828101915089851115612642575f80fd5b948201945b8486101561266057855182529482019490820190612647565b806040850152505081955061267681880161257f565b9450505050509250929050565b6001600160a01b039390931683526020830191909152604082015260600190565b6001600160a01b03831681526040602082018190525f90610e4d9083018461217f565b5f80604083850312156126d8575f80fd5b505080516020909101519092909150565b5f60033d11156126ff5760045f803e505f5160e01c5b90565b5f60443d101561270f5790565b6040516003193d81016004833e81513d67ffffffffffffffff816024840111818411171561273f57505050505090565b82850191508151818111156127575750505050505090565b843d87010160208285010111156127715750505050505090565b61278060208286010187612238565b509095945050505050565b634e487b7160e01b5f52601160045260245ffd5b80820281158282048414176106da576106da61278b565b634e487b7160e01b5f52602160045260245ffd5b600281106103f557634e487b7160e01b5f52602160045260245ffd5b602081016127f3836127ca565b91905290565b5f60208284031215612809575f80fd5b5051919050565b634e487b7160e01b5f52601260045260245ffd5b5f8261283257612832612810565b500490565b601f82111561287b57805f5260205f20601f840160051c8101602085101561285c5750805b601f840160051c820191505b81811015610d9d575f8155600101612868565b505050565b815167ffffffffffffffff81111561289a5761289a6121fe565b6128ae816128a8845461252a565b84612837565b602080601f8311600181146128e1575f84156128ca5750858301515b5f19600386901b1c1916600185901b178555612938565b5f85815260208120601f198616915b8281101561290f578886015182559484019460019091019084016128f0565b508582101561292c57878501515f19600388901b60f8161c191681555b505060018460011b0185555b505050505050565b5f60208284031215612950575f80fd5b81516112d381612484565b808201808211156106da576106da61278b565b5f6060828403121561297e575f80fd5b60405161298a81612212565b8091508251815260208301516020820152604083015160408201525092915050565b5f60208083850312156129bd575f80fd5b825167ffffffffffffffff8111156129d3575f80fd5b8301601f810185136129e3575f80fd5b80516129ee8161255c565b6040516129fb8282612238565b828152602060609384028501810193908201925088841115612a1b575f80fd5b6020850194505b83851015612a4357612a34898661296e565b83529384019391850191612a22565b50979650505050505050565b634e487b7160e01b5f52603260045260245ffd5b8181035f831280158383131683831282161715612a8257612a8261278b565b5092915050565b5f8060808385031215612a9a575f80fd5b612aa4848461296e565b9150606083015161231981612150565b82815260408101612ac4836127ca565b8260208301529392505050565b6020808252602b908201527f496e697469616c697a61626c653a20636f6e7472616374206973206e6f74206960408201526a6e697469616c697a696e6760a81b606082015260800190565b600181815b80851115612b5657815f1904821115612b3c57612b3c61278b565b80851615612b4957918102915b93841c9390800290612b21565b509250929050565b5f82612b6c575060016106da565b81612b7857505f6106da565b8160018114612b8e5760028114612b9857612bb4565b60019150506106da565b60ff841115612ba957612ba961278b565b50506001821b6106da565b5060208310610133831016604e8410600b8410161715612bd7575081810a6106da565b612be18383612b1c565b805f1904821115612bf457612bf461278b565b029392505050565b5f6112d38383612b5e565b5f82612c1557612c15612810565b50069056fea26469706673582212201b5125c38e38ff4c6a137ba96a25b6bfc60ec06671bb444dfe523d5a0e4794e364736f6c63430008180033","linkReferences":{"contracts/libraries/Uint512.sol":{"Uint512":[{"start":6421,"length":20},{"start":6553,"length":20}]}}},"methodIdentifiers":{"DOMAIN_SEPARATOR()":"3644e515","FORMAT_DECIMALS()":"a01c8774","allowance(address,address)":"dd62ed3e","approve(address,uint256)":"095ea7b3","asset()":"38d52e0f","balanceOf(address)":"70a08231","balanceOf2(address)":"7f5b002e","claimReward()":"b88a802f","convertToOzTokens(uint256,address)":"bc93f1cf","convertToShares(uint256,address)":"d295fa9a","convertToSharesFromOzBalance(uint256)":"69e41c62","convertToUnderlying(uint256)":"1dc7f521","decimals()":"313ce567","decreaseAllowance(address,uint256)":"a457c2d7","earned(address)":"008cc262","getRewardsData()":"7d098e64","increaseAllowance(address,uint256)":"39509351","initialize(address,address,string,string)":"2016a0d2","lastTimeRewardApplicable()":"80faa57d","mint(bytes,address)":"0cae37f1","mint2(bytes,address,bool)":"7b044637","name()":"06fdde03","nonces(address)":"7ecebe00","notifyRewardAmount(uint256)":"3c6b16ab","permit(address,address,uint256,uint256,uint8,bytes32,bytes32)":"d505accf","redeem(bytes,address)":"0ba097d6","rewardPerToken()":"cd3daf9d","setRewardsDuration(uint256)":"cc1a378f","sharesOf(address)":"f5eb42dc","symbol()":"95d89b41","totalAssets()":"01e1d114","totalShares()":"3a98ef39","totalSupply()":"18160ddd","transfer(address,uint256)":"a9059cbb","transferFrom(address,address,uint256)":"23b872dd","transferShares(address,uint256)":"8fcb4e5b","transferSharesFrom(address,address,uint256)":"6d780459"},"id":45}