{
  "abi": [
    {
      "inputs": [
        {
          "internalType": "string",
          "name": "name_",
          "type": "string"
        },
        {
          "internalType": "string",
          "name": "symbol_",
          "type": "string"
        },
        {
          "internalType": "address",
          "name": "underlying_",
          "type": "address"
        },
        {
          "internalType": "uint8",
          "name": "decimals_",
          "type": "uint8"
        },
        {
          "internalType": "address",
          "name": "diamond_",
          "type": "address"
        }
      ],
      "stateMutability": "nonpayable",
      "type": "constructor"
    },
    {
      "anonymous": false,
      "inputs": [
        {
          "indexed": true,
          "internalType": "address",
          "name": "owner",
          "type": "address"
        },
        {
          "indexed": true,
          "internalType": "address",
          "name": "spender",
          "type": "address"
        },
        {
          "indexed": false,
          "internalType": "uint256",
          "name": "value",
          "type": "uint256"
        }
      ],
      "name": "Approval",
      "type": "event"
    },
    {
      "anonymous": false,
      "inputs": [
        {
          "indexed": true,
          "internalType": "address",
          "name": "from",
          "type": "address"
        },
        {
          "indexed": true,
          "internalType": "address",
          "name": "to",
          "type": "address"
        },
        {
          "indexed": false,
          "internalType": "uint256",
          "name": "value",
          "type": "uint256"
        }
      ],
      "name": "Transfer",
      "type": "event"
    },
    {
      "inputs": [
        {
          "internalType": "address",
          "name": "owner",
          "type": "address"
        },
        {
          "internalType": "address",
          "name": "spender",
          "type": "address"
        }
      ],
      "name": "allowance",
      "outputs": [
        {
          "internalType": "uint256",
          "name": "",
          "type": "uint256"
        }
      ],
      "stateMutability": "view",
      "type": "function"
    },
    {
      "inputs": [
        {
          "internalType": "address",
          "name": "spender",
          "type": "address"
        },
        {
          "internalType": "uint256",
          "name": "amount",
          "type": "uint256"
        }
      ],
      "name": "approve",
      "outputs": [
        {
          "internalType": "bool",
          "name": "",
          "type": "bool"
        }
      ],
      "stateMutability": "nonpayable",
      "type": "function"
    },
    {
      "inputs": [
        {
          "internalType": "address",
          "name": "account",
          "type": "address"
        }
      ],
      "name": "balanceOf",
      "outputs": [
        {
          "internalType": "uint256",
          "name": "",
          "type": "uint256"
        }
      ],
      "stateMutability": "view",
      "type": "function"
    },
    {
      "inputs": [],
      "name": "decimals",
      "outputs": [
        {
          "internalType": "uint8",
          "name": "",
          "type": "uint8"
        }
      ],
      "stateMutability": "view",
      "type": "function"
    },
    {
      "inputs": [
        {
          "internalType": "address",
          "name": "spender",
          "type": "address"
        },
        {
          "internalType": "uint256",
          "name": "subtractedValue",
          "type": "uint256"
        }
      ],
      "name": "decreaseAllowance",
      "outputs": [
        {
          "internalType": "bool",
          "name": "",
          "type": "bool"
        }
      ],
      "stateMutability": "nonpayable",
      "type": "function"
    },
    {
      "inputs": [],
      "name": "getDiamond",
      "outputs": [
        {
          "internalType": "address",
          "name": "",
          "type": "address"
        }
      ],
      "stateMutability": "view",
      "type": "function"
    },
    {
      "inputs": [
        {
          "internalType": "address",
          "name": "spender",
          "type": "address"
        },
        {
          "internalType": "uint256",
          "name": "addedValue",
          "type": "uint256"
        }
      ],
      "name": "increaseAllowance",
      "outputs": [
        {
          "internalType": "bool",
          "name": "",
          "type": "bool"
        }
      ],
      "stateMutability": "nonpayable",
      "type": "function"
    },
    {
      "inputs": [
        {
          "internalType": "address",
          "name": "account_",
          "type": "address"
        }
      ],
      "name": "interestOf",
      "outputs": [
        {
          "internalType": "uint256",
          "name": "",
          "type": "uint256"
        }
      ],
      "stateMutability": "view",
      "type": "function"
    },
    {
      "inputs": [
        {
          "internalType": "uint256",
          "name": "amountIn_",
          "type": "uint256"
        },
        {
          "internalType": "uint256",
          "name": "minWethOut_",
          "type": "uint256"
        },
        {
          "internalType": "uint256",
          "name": "minRethOut_",
          "type": "uint256"
        },
        {
          "internalType": "uint256",
          "name": "minBptOut_",
          "type": "uint256"
        },
        {
          "internalType": "uint8",
          "name": "v_",
          "type": "uint8"
        },
        {
          "internalType": "bytes32",
          "name": "r_",
          "type": "bytes32"
        },
        {
          "internalType": "bytes32",
          "name": "s_",
          "type": "bytes32"
        }
      ],
      "name": "mint",
      "outputs": [],
      "stateMutability": "nonpayable",
      "type": "function"
    },
    {
      "inputs": [],
      "name": "name",
      "outputs": [
        {
          "internalType": "string",
          "name": "",
          "type": "string"
        }
      ],
      "stateMutability": "view",
      "type": "function"
    },
    {
      "inputs": [],
      "name": "symbol",
      "outputs": [
        {
          "internalType": "string",
          "name": "",
          "type": "string"
        }
      ],
      "stateMutability": "view",
      "type": "function"
    },
    {
      "inputs": [
        {
          "internalType": "address",
          "name": "account_",
          "type": "address"
        }
      ],
      "name": "totalBalanceOf",
      "outputs": [
        {
          "internalType": "uint256",
          "name": "",
          "type": "uint256"
        }
      ],
      "stateMutability": "view",
      "type": "function"
    },
    {
      "inputs": [],
      "name": "totalSupply",
      "outputs": [
        {
          "internalType": "uint256",
          "name": "",
          "type": "uint256"
        }
      ],
      "stateMutability": "view",
      "type": "function"
    },
    {
      "inputs": [
        {
          "internalType": "address",
          "name": "to",
          "type": "address"
        },
        {
          "internalType": "uint256",
          "name": "amount",
          "type": "uint256"
        }
      ],
      "name": "transfer",
      "outputs": [
        {
          "internalType": "bool",
          "name": "",
          "type": "bool"
        }
      ],
      "stateMutability": "nonpayable",
      "type": "function"
    },
    {
      "inputs": [
        {
          "internalType": "address",
          "name": "from",
          "type": "address"
        },
        {
          "internalType": "address",
          "name": "to",
          "type": "address"
        },
        {
          "internalType": "uint256",
          "name": "amount",
          "type": "uint256"
        }
      ],
      "name": "transferFrom",
      "outputs": [
        {
          "internalType": "bool",
          "name": "",
          "type": "bool"
        }
      ],
      "stateMutability": "nonpayable",
      "type": "function"
    },
    {
      "inputs": [],
      "name": "underlying",
      "outputs": [
        {
          "internalType": "address",
          "name": "",
          "type": "address"
        }
      ],
      "stateMutability": "view",
      "type": "function"
    }
  ],
  "bytecode": {
    "object": "0x60c0604052346200038157620012f1803803806200001d8162000386565b92833981019060a081830312620003815780516001600160401b03908181116200038157836200004f918401620003ac565b92602090818401519083821162000381576200006d918501620003ac565b936200007c604085016200041e565b9260608501519460ff8616809603620003815760806200009d91016200041e565b95825182811162000281576003918254916001958684811c9416801562000376575b8885101462000360578190601f948581116200030a575b508890858311600114620002a35760009262000297575b505060001982861b1c191690861b1783555b8051938411620002815760049586548681811c9116801562000276575b82821014620002615783811162000216575b5080928511600114620001a857509383949184926000956200019c575b50501b92600019911b1c19161790555b60805260ff19600554161760055560a052604051610ebd90816200043482396080518181816101e70152610568015260a051818181610185015261022a0152f35b0151935038806200014b565b92919084601f1981168860005285600020956000905b89838310620001fb5750505010620001e0575b50505050811b0190556200015b565b01519060f884600019921b161c1916905538808080620001d1565b858701518955909701969485019488935090810190620001be565b87600052816000208480880160051c82019284891062000257575b0160051c019087905b8281106200024a5750506200012e565b600081550187906200023a565b9250819262000231565b602288634e487b7160e01b6000525260246000fd5b90607f16906200011c565b634e487b7160e01b600052604160045260246000fd5b015190503880620000ed565b90889350601f19831691876000528a6000209260005b8c828210620002f35750508411620002da575b505050811b018355620000ff565b015160001983881b60f8161c19169055388080620002cc565b8385015186558c97909501949384019301620002b9565b90915085600052886000208580850160051c8201928b861062000356575b918a91869594930160051c01915b82811062000346575050620000d6565b600081558594508a910162000336565b9250819262000328565b634e487b7160e01b600052602260045260246000fd5b93607f1693620000bf565b600080fd5b6040519190601f01601f191682016001600160401b038111838210176200028157604052565b919080601f84011215620003815782516001600160401b0381116200028157602090620003e2601f8201601f1916830162000386565b92818452828287010111620003815760005b8181106200040a57508260009394955001015290565b8581018301518482018401528201620003f4565b51906001600160a01b0382168203620003815756fe608060408181526004918236101561001657600080fd5b600092833560e01c91826306fdde031461076e57508163095ea7b31461074457816318160ddd1461072557816323b872dd14610652578163313ce5671461063057816339509351146105d85781634b0ee02a146105975781636f307dc31461055357816370a082311461051357816395d89b4114610410578163a457c2d714610362578163a9059cbb14610331578163aa54685d146101b457508063d7b8b95b14610171578063d8e8b1771461012d5763dd62ed3e146100d557600080fd5b346101295780600319360112610129576020906100f06108ac565b6100f86108c7565b6000808052600185528381206001600160a01b03938416825285528381209190921682528352819020549051908152f35b5080fd5b50346101295760203660031901126101295760209061014a6108ac565b600160005260008352816000209060018060a01b0316600052825280600020549051908152f35b5034610129578160031936011261012957517f00000000000000000000000000000000000000000000000000000000000000006001600160a01b03168152602090f35b8383346101295760e0366003190112610129576084359060ff821680920361032d576001600160a01b039342603c8101937f0000000000000000000000000000000000000000000000000000000000000000871691851061031a57813b156103165783519663d505accf60e01b885233848901527f00000000000000000000000000000000000000000000000000000000000000001694856024890152833560448901526064880152608487015260a43560a487015260c43560c4870152848660e48183855af1801561030c576102f8575b849550833b156102f45760a485928385519687948593632717d37360e21b85528401523360248401526024356044840152604435606484015260643560848401525af19081156102eb57506102d85750f35b6102e1906108dd565b6102e85780f35b80fd5b513d84823e3d90fd5b8480fd5b939094610304906108dd565b928490610286565b83513d87823e3d90fd5b8580fd5b634e487b7160e01b865260118352602486fd5b8280fd5b50503461012957806003193601126101295760209061035b6103516108ac565b602435903361094c565b5160018152f35b905082346102e857826003193601126102e85761037d6108ac565b918360243592808052600160205281812033825260205281812060018060a01b03861682526020522054908282106103bf5760208561035b8585038733610d66565b608490602086519162461bcd60e51b8352820152602560248201527f45524332303a2064656372656173656420616c6c6f77616e63652062656c6f77604482015264207a65726f60d81b6064820152fd5b838334610129578160031936011261012957805191809380549160019083821c92828516948515610509575b60209586861081146104f6578589529081156104d2575060011461047a575b610476878761046c828c0383610907565b5191829182610863565b0390f35b81529295507f8a35acfbc15ff81a39ae7d344fd709f28e8600b4aa8c65c6b64bfe7fe36bd19b5b8284106104bf57505050826104769461046c9282010194868061045b565b80548685018801529286019281016104a1565b60ff19168887015250505050151560051b830101925061046c82610476868061045b565b634e487b7160e01b845260228352602484fd5b93607f169361043c565b50503461012957602036600319011261012957806020926105326108ac565b8180528185528282206001600160a01b039091168252845220549051908152f35b505034610129578160031936011261012957517f00000000000000000000000000000000000000000000000000000000000000006001600160a01b03168152602090f35b50503461012957602036600319011261012957806020926105b66108ac565b600282528185528282206001600160a01b039091168252845220549051908152f35b50503461012957806003193601126101295761035b6020926106296105fb6108ac565b8280526001865284832033845286528483206001600160a01b03821684528652918490205460243590610929565b9033610d66565b50503461012957816003193601126101295760209060ff600554169051908152f35b839150346101295760603660031901126101295761066e6108ac565b6106766108c7565b918460443594808052600160205281812060018060a01b038516825260205281812033825260205220549060001982036106b9575b60208661035b87878761094c565b8482106106e257509183916106d76020969561035b95033383610d66565b9193948193506106ab565b606490602087519162461bcd60e51b8352820152601d60248201527f45524332303a20696e73756666696369656e7420616c6c6f77616e63650000006044820152fd5b5050346101295781600319360112610129576020906002549051908152f35b50503461012957806003193601126101295760209061035b6107646108ac565b6024359033610d66565b9291503461085f578360031936011261085f57600354600181811c9186908281168015610855575b6020958686108214610842575084885290811561082057506001146107c7575b610476868661046c828b0383610907565b929550600383527fc2575a0e9e593c00f959f8c92f12db2869c3395a3b0502d05e2516446f71f85b5b82841061080d57505050826104769461046c9282010194386107b6565b80548685018801529286019281016107f0565b60ff191687860152505050151560051b830101925061046c82610476386107b6565b634e487b7160e01b845260229052602483fd5b93607f1693610796565b8380fd5b6020808252825181830181905290939260005b82811061089857505060409293506000838284010152601f8019910116010190565b818101860151848201604001528501610876565b600435906001600160a01b03821682036108c257565b600080fd5b602435906001600160a01b03821682036108c257565b67ffffffffffffffff81116108f157604052565b634e487b7160e01b600052604160045260246000fd5b90601f8019910116810190811067ffffffffffffffff8211176108f157604052565b9190820180921161093657565b634e487b7160e01b600052601160045260246000fd5b9192916001600160a01b03908116918215610d135716908115610cc25760008181527fad3228b676f7d3cd4284a5443f17f1962b36e491b30a40b2405849e597ba5fb5602090815260408083205492969192828110610c6f578290888052888552828920868a5285520381882055868052868352808720858852835280872082815401905586805286835280872084885283528087205487818903821680918a828504948360018096819682950304016002978881600302188082028a03028082028a03028082028a03028082028a03028082028a030280910289030293610bea575b50505050818b528a8752848b20888c528752848b20548b92610b27575b505098610b10827fddf252ad1be2c89b69c2b068fc378daa952ba7f163c4a11628f55a4df523b3ef98999a9b869484528389528484208b855289528484208181540390558184528389528484208b855289528484209081540190558280528288528383208a84528852610ad484842054828552848a528585208c86528a528585205490610929565b8584528389528484208b85528952848420558280528288528383208b84528852838320549083528288528383208b845288528383205490610929565b9281528086528181208982528652205551908152a3565b8082029250906000198282099183831084018084039314610bd05768056bc75e2d631000009183831115610bc35793610b10938896937fddf252ad1be2c89b69c2b068fc378daa952ba7f163c4a11628f55a4df523b3ef9c9d9e9f96937f2fdf29ec6a12d6f7bf48d6861d4b553283e011b18b576460d489e3a9addec2d1940990828211900360ec1b910360141c1702929b9a99985092610a4c565b63ae47f7028e526004601cfd5b505068056bc75e2d631000009091049050610b1084610a4c565b91935091935068056bc75e2d631000009081890293600019838b099285841086018085039414610c495783821115610c3b5790879695949392918b0991848311900302920304170238808080610a2f565b5063ae47f7028f526004601cfd5b5094505050508115610c62579082910438808080610a2f565b63ae47f7028b526004601cfd5b815162461bcd60e51b815260048101859052602660248201527f45524332303a207472616e7366657220616d6f756e7420657863656564732062604482015265616c616e636560d01b6064820152608490fd5b60405162461bcd60e51b815260206004820152602360248201527f45524332303a207472616e7366657220746f20746865207a65726f206164647260448201526265737360e81b6064820152608490fd5b60405162461bcd60e51b815260206004820152602560248201527f45524332303a207472616e736665722066726f6d20746865207a65726f206164604482015264647265737360d81b6064820152608490fd5b6001600160a01b03908116918215610e365716918215610de65760008281527fa6eef7e35abe7026729641147f7915573c7e97b47efa546f5f6e3230263bcb496020908152604080832086845282529182902083905590519182527f8c5be1e5ebec7d5bd14f71427d1e84f3dd0314c0f7b2291e5b200ac8c7c3b92591a3565b60405162461bcd60e51b815260206004820152602260248201527f45524332303a20617070726f766520746f20746865207a65726f206164647265604482015261737360f01b6064820152608490fd5b60405162461bcd60e51b8152602060048201526024808201527f45524332303a20617070726f76652066726f6d20746865207a65726f206164646044820152637265737360e01b6064820152608490fdfea2646970667358221220838ac213633b59b305da0aac321bbcaabc86da1597b30650c7e4df6288a4a49564736f6c63430008150033",
    "linkReferences": {}
  },
  "methodIdentifiers": {
    "allowance(address,address)": "dd62ed3e",
    "approve(address,uint256)": "095ea7b3",
    "balanceOf(address)": "70a08231",
    "decimals()": "313ce567",
    "decreaseAllowance(address,uint256)": "a457c2d7",
    "getDiamond()": "d7b8b95b",
    "increaseAllowance(address,uint256)": "39509351",
    "interestOf(address)": "d8e8b177",
    "mint(uint256,uint256,uint256,uint256,uint8,bytes32,bytes32)": "aa54685d",
    "name()": "06fdde03",
    "symbol()": "95d89b41",
    "totalBalanceOf(address)": "4b0ee02a",
    "totalSupply()": "18160ddd",
    "transfer(address,uint256)": "a9059cbb",
    "transferFrom(address,address,uint256)": "23b872dd",
    "underlying()": "6f307dc3"
  },
  "id": 22
}