{"abi":[{"type":"constructor","inputs":[],"stateMutability":"nonpayable"},{"type":"function","name":"DOMAIN_SEPARATOR","inputs":[],"outputs":[{"name":"","type":"bytes32","internalType":"bytes32"}],"stateMutability":"view"},{"type":"function","name":"FORMAT_DECIMALS","inputs":[],"outputs":[{"name":"","type":"uint256","internalType":"uint256"}],"stateMutability":"view"},{"type":"function","name":"allowance","inputs":[{"name":"owner","type":"address","internalType":"address"},{"name":"spender","type":"address","internalType":"address"}],"outputs":[{"name":"","type":"uint256","internalType":"uint256"}],"stateMutability":"view"},{"type":"function","name":"approve","inputs":[{"name":"spender","type":"address","internalType":"address"},{"name":"amount","type":"uint256","internalType":"uint256"}],"outputs":[{"name":"","type":"bool","internalType":"bool"}],"stateMutability":"nonpayable"},{"type":"function","name":"asset","inputs":[],"outputs":[{"name":"","type":"address","internalType":"address"}],"stateMutability":"view"},{"type":"function","name":"balanceOf","inputs":[{"name":"account_","type":"address","internalType":"address"}],"outputs":[{"name":"","type":"uint256","internalType":"uint256"}],"stateMutability":"view"},{"type":"function","name":"balanceOf2","inputs":[{"name":"account_","type":"address","internalType":"address"}],"outputs":[{"name":"","type":"uint256","internalType":"uint256"}],"stateMutability":"view"},{"type":"function","name":"balanceOf3","inputs":[{"name":"account_","type":"address","internalType":"address"}],"outputs":[{"name":"","type":"uint256","internalType":"uint256"}],"stateMutability":"view"},{"type":"function","name":"balanceOf4","inputs":[{"name":"account_","type":"address","internalType":"address"}],"outputs":[{"name":"","type":"uint256","internalType":"uint256"}],"stateMutability":"view"},{"type":"function","name":"claimReward","inputs":[],"outputs":[{"name":"","type":"uint256","internalType":"uint256"}],"stateMutability":"nonpayable"},{"type":"function","name":"convertToOzTokens","inputs":[{"name":"shares_","type":"uint256","internalType":"uint256"},{"name":"account_","type":"address","internalType":"address"}],"outputs":[{"name":"","type":"uint256","internalType":"UintRay"}],"stateMutability":"view"},{"type":"function","name":"convertToShares","inputs":[{"name":"assets_","type":"uint256","internalType":"uint256"},{"name":"account_","type":"address","internalType":"address"}],"outputs":[{"name":"","type":"uint256","internalType":"uint256"}],"stateMutability":"view"},{"type":"function","name":"convertToSharesFromOzBalance","inputs":[{"name":"ozBalance_","type":"uint256","internalType":"uint256"}],"outputs":[{"name":"","type":"uint256","internalType":"uint256"}],"stateMutability":"view"},{"type":"function","name":"convertToUnderlying","inputs":[{"name":"shares_","type":"uint256","internalType":"uint256"}],"outputs":[{"name":"","type":"uint256","internalType":"uint256"}],"stateMutability":"view"},{"type":"function","name":"decimals","inputs":[],"outputs":[{"name":"","type":"uint8","internalType":"uint8"}],"stateMutability":"pure"},{"type":"function","name":"decreaseAllowance","inputs":[{"name":"spender","type":"address","internalType":"address"},{"name":"subtractedValue","type":"uint256","internalType":"uint256"}],"outputs":[{"name":"","type":"bool","internalType":"bool"}],"stateMutability":"nonpayable"},{"type":"function","name":"earned","inputs":[{"name":"user_","type":"address","internalType":"address"}],"outputs":[{"name":"","type":"uint256","internalType":"uint256"}],"stateMutability":"view"},{"type":"function","name":"getRewardsData","inputs":[],"outputs":[{"name":"rewardRate","type":"uint256","internalType":"uint256"},{"name":"circulatingSupply","type":"uint256","internalType":"uint256"},{"name":"pendingAllocation","type":"uint256","internalType":"uint256"},{"name":"recicledSupply","type":"uint256","internalType":"uint256"},{"name":"durationLeft","type":"int256","internalType":"int256"}],"stateMutability":"view"},{"type":"function","name":"increaseAllowance","inputs":[{"name":"spender","type":"address","internalType":"address"},{"name":"addedValue","type":"uint256","internalType":"uint256"}],"outputs":[{"name":"","type":"bool","internalType":"bool"}],"stateMutability":"nonpayable"},{"type":"function","name":"initialize","inputs":[{"name":"underlying_","type":"address","internalType":"address"},{"name":"diamond_","type":"address","internalType":"address"},{"name":"name_","type":"string","internalType":"string"},{"name":"symbol_","type":"string","internalType":"string"}],"outputs":[],"stateMutability":"nonpayable"},{"type":"function","name":"lastTimeRewardApplicable","inputs":[],"outputs":[{"name":"","type":"uint256","internalType":"uint256"}],"stateMutability":"view"},{"type":"function","name":"mint","inputs":[{"name":"data_","type":"bytes","internalType":"bytes"},{"name":"owner_","type":"address","internalType":"address"}],"outputs":[{"name":"","type":"uint256","internalType":"uint256"}],"stateMutability":"payable"},{"type":"function","name":"mint2","inputs":[{"name":"data_","type":"bytes","internalType":"bytes"},{"name":"owner_","type":"address","internalType":"address"},{"name":"isETH_","type":"bool","internalType":"bool"}],"outputs":[{"name":"","type":"uint256","internalType":"uint256"}],"stateMutability":"payable"},{"type":"function","name":"name","inputs":[],"outputs":[{"name":"","type":"string","internalType":"string"}],"stateMutability":"view"},{"type":"function","name":"nonces","inputs":[{"name":"owner","type":"address","internalType":"address"}],"outputs":[{"name":"","type":"uint256","internalType":"uint256"}],"stateMutability":"view"},{"type":"function","name":"notifyRewardAmount","inputs":[{"name":"amount_","type":"uint256","internalType":"uint256"}],"outputs":[],"stateMutability":"nonpayable"},{"type":"function","name":"permit","inputs":[{"name":"owner","type":"address","internalType":"address"},{"name":"spender","type":"address","internalType":"address"},{"name":"value","type":"uint256","internalType":"uint256"},{"name":"deadline","type":"uint256","internalType":"uint256"},{"name":"v","type":"uint8","internalType":"uint8"},{"name":"r","type":"bytes32","internalType":"bytes32"},{"name":"s_","type":"bytes32","internalType":"bytes32"}],"outputs":[],"stateMutability":"nonpayable"},{"type":"function","name":"redeem","inputs":[{"name":"data_","type":"bytes","internalType":"bytes"},{"name":"owner_","type":"address","internalType":"address"}],"outputs":[{"name":"","type":"uint256","internalType":"uint256"}],"stateMutability":"nonpayable"},{"type":"function","name":"rewardPerToken","inputs":[],"outputs":[{"name":"","type":"uint256","internalType":"uint256"}],"stateMutability":"view"},{"type":"function","name":"setRewardsDuration","inputs":[{"name":"duration_","type":"uint256","internalType":"uint256"}],"outputs":[],"stateMutability":"nonpayable"},{"type":"function","name":"sharesOf","inputs":[{"name":"account_","type":"address","internalType":"address"}],"outputs":[{"name":"","type":"uint256","internalType":"uint256"}],"stateMutability":"view"},{"type":"function","name":"symbol","inputs":[],"outputs":[{"name":"","type":"string","internalType":"string"}],"stateMutability":"view"},{"type":"function","name":"totalAssets","inputs":[],"outputs":[{"name":"","type":"uint256","internalType":"uint256"}],"stateMutability":"view"},{"type":"function","name":"totalShares","inputs":[],"outputs":[{"name":"","type":"uint256","internalType":"uint256"}],"stateMutability":"view"},{"type":"function","name":"totalSupply","inputs":[],"outputs":[{"name":"","type":"uint256","internalType":"uint256"}],"stateMutability":"view"},{"type":"function","name":"transfer","inputs":[{"name":"to","type":"address","internalType":"address"},{"name":"amount","type":"uint256","internalType":"uint256"}],"outputs":[{"name":"","type":"bool","internalType":"bool"}],"stateMutability":"nonpayable"},{"type":"function","name":"transferFrom","inputs":[{"name":"from","type":"address","internalType":"address"},{"name":"to","type":"address","internalType":"address"},{"name":"amount","type":"uint256","internalType":"uint256"}],"outputs":[{"name":"","type":"bool","internalType":"bool"}],"stateMutability":"nonpayable"},{"type":"function","name":"transferShares","inputs":[{"name":"recipient_","type":"address","internalType":"address"},{"name":"shares_","type":"uint256","internalType":"uint256"}],"outputs":[{"name":"","type":"uint256","internalType":"uint256"}],"stateMutability":"nonpayable"},{"type":"function","name":"transferSharesFrom","inputs":[{"name":"sender_","type":"address","internalType":"address"},{"name":"recipient_","type":"address","internalType":"address"},{"name":"shares_","type":"uint256","internalType":"uint256"}],"outputs":[{"name":"","type":"uint256","internalType":"uint256"}],"stateMutability":"nonpayable"},{"type":"event","name":"Approval","inputs":[{"name":"owner","type":"address","indexed":true,"internalType":"address"},{"name":"spender","type":"address","indexed":true,"internalType":"address"},{"name":"value","type":"uint256","indexed":false,"internalType":"uint256"}],"anonymous":false},{"type":"event","name":"Initialized","inputs":[{"name":"version","type":"uint8","indexed":false,"internalType":"uint8"}],"anonymous":false},{"type":"event","name":"OzTokenMinted","inputs":[{"name":"owner","type":"address","indexed":false,"internalType":"address"},{"name":"shares","type":"uint256","indexed":false,"internalType":"uint256"},{"name":"assets","type":"uint256","indexed":false,"internalType":"uint256"}],"anonymous":false},{"type":"event","name":"OzTokenRedeemed","inputs":[{"name":"owner","type":"address","indexed":false,"internalType":"address"},{"name":"ozAmountIn","type":"uint256","indexed":false,"internalType":"uint256"},{"name":"shares","type":"uint256","indexed":false,"internalType":"uint256"},{"name":"assets","type":"uint256","indexed":false,"internalType":"uint256"}],"anonymous":false},{"type":"event","name":"Transfer","inputs":[{"name":"from","type":"address","indexed":true,"internalType":"address"},{"name":"to","type":"address","indexed":true,"internalType":"address"},{"name":"value","type":"uint256","indexed":false,"internalType":"uint256"}],"anonymous":false},{"type":"event","name":"TransferShares","inputs":[{"name":"from","type":"address","indexed":true,"internalType":"address"},{"name":"to","type":"address","indexed":true,"internalType":"address"},{"name":"sharesAmoutn","type":"uint256","indexed":false,"internalType":"uint256"}],"anonymous":false},{"type":"error","name":"OZError03","inputs":[]},{"type":"error","name":"OZError04","inputs":[{"name":"from","type":"address","internalType":"address"},{"name":"to","type":"address","internalType":"address"}]},{"type":"error","name":"OZError05","inputs":[{"name":"amount","type":"uint256","internalType":"uint256"}]},{"type":"error","name":"OZError06","inputs":[{"name":"sender","type":"address","internalType":"address"},{"name":"accountShares","type":"uint256","internalType":"uint256"},{"name":"shares","type":"uint256","internalType":"uint256"}]},{"type":"error","name":"OZError07","inputs":[{"name":"from","type":"address","internalType":"address"},{"name":"fromShares","type":"uint256","internalType":"uint256"},{"name":"shares","type":"uint256","internalType":"uint256"}]},{"type":"error","name":"OZError08","inputs":[{"name":"deadline","type":"uint256","internalType":"uint256"},{"name":"blockTimestamp","type":"uint256","internalType":"uint256"}]},{"type":"error","name":"OZError09","inputs":[{"name":"owner","type":"address","internalType":"address"},{"name":"spender","type":"address","internalType":"address"}]},{"type":"error","name":"OZError22","inputs":[{"name":"reason","type":"string","internalType":"string"}]},{"type":"error","name":"OZError35","inputs":[{"name":"ozAmountIn","type":"uint256","internalType":"uint256"}]},{"type":"error","name":"OZError37","inputs":[]},{"type":"error","name":"OZError38","inputs":[]},{"type":"error","name":"OZError39","inputs":[{"name":"data","type":"bytes","internalType":"bytes"}]},{"type":"error","name":"OZError42","inputs":[]},{"type":"error","name":"OZError43","inputs":[]}],"bytecode":{"object":"0x608060405234801562000010575f80fd5b506200001b62000021565b620000e3565b604254610100900460ff16156200008e5760405162461bcd60e51b815260206004820152602760248201527f496e697469616c697a61626c653a20636f6e747261637420697320696e697469604482015266616c697a696e6760c81b606482015260840160405180910390fd5b60425460ff9081161015620000e1576042805460ff191660ff9081179091556040519081527f7f26b83ff96e1f2b6a682f133852f6798a09c465da95921460cefb38474024989060200160405180910390a15b565b61362480620000f15f395ff3fe608060405260043610610227575f3560e01c806370a0823111610129578063a9059cbb116100a8578063d295fa9a1161006d578063d295fa9a146105ca578063d505accf146105e9578063dd62ed3e14610608578063ece5300c14610627578063f5eb42dc14610646575f80fd5b8063a9059cbb1461058c578063b88a802f14610513578063bc93f1cf146105ab578063cc1a378f146103f1578063cd3daf9d14610513575f80fd5b806380faa57d116100ee57806380faa57d146105135780638fcb4e5b1461052557806395d89b4114610544578063a01c877414610558578063a457c2d71461056d575f80fd5b806370a082311461046b5780637b0446371461048a5780637d098e641461049d5780637ecebe00146104d55780637f5b002e146104f4575f80fd5b806323b872dd116101b55780633a98ef391161017a5780633a98ef39146103dd5780633c6b16ab146103f1578063544365651461040e57806369e41c621461042d5780636d7804591461044c575f80fd5b806323b872dd14610349578063313ce567146103685780633644e5151461038357806338d52e0f1461039757806339509351146103be575f80fd5b80630ba097d6116101fb5780630ba097d6146102c15780630cae37f1146102e057806318160ddd146102f55780631dc7f521146103095780632016a0d214610328575f80fd5b80628cc2621461022b57806301e1d1141461025d57806306fdde0314610271578063095ea7b314610292575b5f80fd5b348015610236575f80fd5b5061024a610245366004612aad565b505f90565b6040519081526020015b60405180910390f35b348015610268575f80fd5b5061024a61067a565b34801561027c575f80fd5b5061028561068e565b6040516102549190612b0b565b34801561029d575f80fd5b506102b16102ac366004612b1d565b61071e565b6040519015158152602001610254565b3480156102cc575f80fd5b5061024a6102db366004612c3e565b610734565b61024a6102ee366004612c3e565b5f92915050565b348015610300575f80fd5b5061024a610b0d565b348015610314575f80fd5b5061024a610323366004612c8d565b610b6f565b348015610333575f80fd5b50610347610342366004612ca4565b610bfc565b005b348015610354575f80fd5b506102b1610363366004612d28565b610df8565b348015610373575f80fd5b5060405160128152602001610254565b34801561038e575f80fd5b5061024a610e19565b3480156103a2575f80fd5b506078546040516001600160a01b039091168152602001610254565b3480156103c9575f80fd5b506102b16103d8366004612b1d565b610e22565b3480156103e8575f80fd5b5061024a610e42565b3480156103fc575f80fd5b5061034761040b366004612c8d565b50565b348015610419575f80fd5b5061024a610428366004612aad565b610e52565b348015610438575f80fd5b5061024a610447366004612c8d565b61118d565b348015610457575f80fd5b5061024a610466366004612d28565b6111a9565b348015610476575f80fd5b5061024a610485366004612aad565b6111e4565b61024a610498366004612d66565b6115df565b3480156104a8575f80fd5b50604080515f8082526020820181905291810182905260608101829052608081019190915260a001610254565b3480156104e0575f80fd5b5061024a6104ef366004612aad565b61184d565b3480156104ff575f80fd5b5061024a61050e366004612aad565b61186a565b34801561051e575f80fd5b505f61024a565b348015610530575f80fd5b5061024a61053f366004612b1d565b611895565b34801561054f575f80fd5b506102856118c4565b348015610563575f80fd5b5061024a607f5481565b348015610578575f80fd5b506102b1610587366004612b1d565b6118d3565b348015610597575f80fd5b506102b16105a6366004612b1d565b61190f565b3480156105b6575f80fd5b5061024a6105c5366004612dca565b61191b565b3480156105d5575f80fd5b5061024a6105e4366004612dca565b611968565b3480156105f4575f80fd5b50610347610603366004612dfb565b611a14565b348015610613575f80fd5b5061024a610622366004612e67565b611b33565b348015610632575f80fd5b5061024a610641366004612aad565b611b5d565b348015610651575f80fd5b5061024a610660366004612aad565b6001600160a01b03165f908152607a602052604090205490565b6079545f906106899082611dcf565b905090565b6060607d805461069d90612e93565b80601f01602080910402602001604051908101604052809291908181526020018280546106c990612e93565b80156107145780601f106106eb57610100808354040283529160200191610714565b820191905f5260205f20905b8154815290600101906020018083116106f757829003601f168201915b5050505050905090565b5f61072a338484611e11565b5060015b92915050565b5f7fd979d933a329cda0d1d95e3d7a8aaccfc305f1200c53a87f37e6841bb793452c805c156107765760405163b955425560e01b815260048101604052600481fd5b6001815d60775483906001600160a01b031680156107e8576040516241fec360e31b81526001600160a01b03838116600483015282169063020ff618906024015f604051808303815f87803b1580156107cd575f80fd5b505af11580156107df573d5f803e3d5ffd5b50505050610829565b5f601a555f6018556001600160a01b03821615610829576001600160a01b0382165f908152601e60209081526040808320839055601a54601d909252909120555b855161010014610857578560405163041979eb60e41b815260040161084e9190612b0b565b60405180910390fd5b5f808780602001905181019061086d9190612ef8565b815191935091506001600160a01b038816158061089157506001600160a01b038216155b156108af57604051632534b66960e21b815260040160405180910390fd5b6729a2241af62c00008110156108db57604051631a98558360e21b81526004810182905260240161084e565b6001600160a01b0388165f908152607a6020526040812054906108fe838b611968565b90508082101561092757898282604051637ac073bf60e01b815260040161084e93929190612fec565b5f81905060775f9054906101000a90046001600160a01b03166001600160a01b031663a1b86b388c8e6040518363ffffffff1660e01b815260040161096d92919061300d565b60408051808303815f875af19250505080156109a6575060408051601f3d908101601f191682019092526109a391810190613030565b60015b6109f6576109b2613052565b806308c379a0036109ec57506109c661306b565b806109d157506109ee565b80604051631bc63b8160e01b815260040161084e9190612b0b565b505b3d5f803e3d5ffd5b610a01825f80611ebf565b6077546001600160a01b03165f908152607a60205260409020549450610a2883865f611f33565b5f607a5f60775f9054906101000a90046001600160a01b03166001600160a01b03166001600160a01b031681526020019081526020015f20819055508260805f8f6001600160a01b03166001600160a01b031681526020019081526020015f205f82825403925050819055507f4181bb2dd7cb8bbe372dc317652857a2e512544faeba7c902b5e80107831732b8d878686604051610aea94939291906001600160a01b0394909416845260208401929092526040830152606082015260800190565b60405180910390a19a50610b019650505050505050565b50505f815d5092915050565b5f610b16610e42565b1561024557610689610b6a610b40610b2c61067a565b610b3b9064e8d4a51000613108565b611f8f565b610b52610b4b610e42565b6001611fa6565b610b63610b5d610e42565b5f611fa6565b9190612057565b61216d565b5f610b78610e42565b60775460405163a4fc284b60e01b81526001600160a01b039091169063a4fc284b90610ba99060019060040161314f565b602060405180830381865afa158015610bc4573d5f803e3d5ffd5b505050506040513d601f19601f82011682018060405250810190610be89190613162565b610bf29084613108565b61072e919061318d565b604254610100900460ff1615808015610c1c5750604254600160ff909116105b80610c365750303b158015610c36575060425460ff166001145b610c995760405162461bcd60e51b815260206004820152602e60248201527f496e697469616c697a61626c653a20636f6e747261637420697320616c72656160448201526d191e481a5b9a5d1a585b1a5e995960921b606482015260840161084e565b6042805460ff191660011790558015610cbc576042805461ff0019166101001790555b607d610cc884826131e9565b50607e610cd583826131e9565b50607780546001600160a01b038087166001600160a01b03199283161790925560788054928816929091169190911790556040805180820190915260018152603160f81b6020820152610d29908490612184565b846001600160a01b031663313ce5676040518163ffffffff1660e01b8152600401602060405180830381865afa158015610d65573d5f803e3d5ffd5b505050506040513d601f19601f82011682018060405250810190610d8991906132a9565b60ff16601214610d9a576001610da1565b64e8d4a510005b64ffffffffff16607f558015610df1576042805461ff0019169055604051600181527f7f26b83ff96e1f2b6a682f133852f6798a09c465da95921460cefb38474024989060200160405180910390a15b5050505050565b5f610e048433846121b9565b610e0f848484612205565b5060019392505050565b5f61068961230d565b5f61072a338484610e333388611b33565b610e3d91906132c4565b611e11565b6079545f90610689906001611dcf565b5f80610edc670de0b6b3a764000062093a80610e766077546001600160a01b031690565b6001600160a01b0316631dc111956040518163ffffffff1660e01b8152600401602060405180830381865afa158015610eb1573d5f803e3d5ffd5b505050506040513d601f19601f82011682018060405250810190610ed59190613162565b9190612386565b6001600160a01b0384165f90815260806020908152604080832054815192830190915291815291925090610f0f906123a1565b610fbe6040518060400160405280601f81526020017f5f4f5a28292e6765745374616b696e67526577617264735553444328293a2000815250610f5a6077546001600160a01b031690565b6001600160a01b0316631dc111956040518163ffffffff1660e01b8152600401602060405180830381865afa158015610f95573d5f803e3d5ffd5b505050506040513d601f19601f82011682018060405250810190610fb99190613162565b6123e4565b610ff560405180604001604052806015815260200174039b2b1b7b732363ca932bbb0b93239aaa9a2219d1605d1b815250836123e4565b5f6110086077546001600160a01b031690565b6040516394f649dd60e01b81526001600160a01b03878116600483015291909116906394f649dd906024015f60405180830381865afa15801561104d573d5f803e3d5ffd5b505050506040513d5f823e601f3d908101601f1916820160405261107491908101906132d7565b90505f815f81518110611089576110896133b2565b602002602001015190506110b56040518060600160405280602581526020016135ca60259139426123e4565b5f8160400151426110c691906133c6565b6110d39062093a806133c6565b905080156110e157806110e6565b62093a805b90506111156040518060400160405280600b81526020016a03a34b6b2a9b832b73a1d160ad1b815250826123e4565b61113f60405180604001604052806008815260200167030b9b9b2ba399d160c51b815250856123e4565b5f61114a8286613108565b905061118260405180604001604052806014815260200173031b7b73a3934b13aba34b7b72330b1ba37b91d160651b815250826123e4565b505050505050919050565b5f61072e611199610e42565b6111a1610b0d565b849190612429565b5f806111b8610b6a848761191b565b90506111c58533836121b9565b6111d085858561244c565b6111dc85858386612534565b949350505050565b5f806111f86077546001600160a01b031690565b604051633ba641e960e21b81526001600160a01b038581166004830152919091169063ee9907a490602401602060405180830381865afa15801561123e573d5f803e3d5ffd5b505050506040513d601f19601f820116820180604052508101906112629190613162565b90506112906040518060400160405280600a815260200169036b0bc24b73232bc1d160b51b815250826123e4565b5f6112a36077546001600160a01b031690565b604051635b96c8d960e11b81526001600160a01b03868116600483015260248201859052919091169063b72d91b290604401602060405180830381865afa1580156112f0573d5f803e3d5ffd5b505050506040513d601f19601f820116820180604052508101906113149190613162565b905061132060046125d4565b6113976040518060400160405280600e81526020016d03232b837b9b4ba24b73232bc1d160951b81525061135c6077546001600160a01b031690565b6001600160a01b0316631fa019806040518163ffffffff1660e01b8152600401602060405180830381865afa158015610f95573d5f803e3d5ffd5b5f6113aa6077546001600160a01b031690565b6001600160a01b031663935feaa56113ca6077546001600160a01b031690565b6001600160a01b0316631fa019806040518163ffffffff1660e01b8152600401602060405180830381865afa158015611405573d5f803e3d5ffd5b505050506040513d601f19601f820116820180604052508101906114299190613162565b6040518263ffffffff1660e01b815260040161144791815260200190565b602060405180830381865afa158015611462573d5f803e3d5ffd5b505050506040513d601f19601f820116820180604052508101906114869190613162565b905061149260056125d4565b6114c86040518060400160405280601481526020017303a37ba30b621b7b73a3934b13aba34b7b7399d160651b815250826123e4565b6114fe60405180604001604052806014815260200173031b7b73a3934b13aba34b7b72330b1ba37b91d160651b815250836123e4565b5f8161151284670de0b6b3a7640000613108565b61151c919061318d565b905061152860066125d4565b5f61153b6077546001600160a01b031690565b6001600160a01b0316631dc111956040518163ffffffff1660e01b8152600401602060405180830381865afa158015611576573d5f803e3d5ffd5b505050506040513d601f19601f8201168201806040525081019061159a9190613162565b6115a49083613108565b90506115d56040518060400160405280600d81526020016c03ab9b2b92932bbb0b932399d1609d1b815250826123e4565b9695505050505050565b5f7fd979d933a329cda0d1d95e3d7a8aaccfc305f1200c53a87f37e6841bb793452c805c156116215760405163b955425560e01b815260048101604052600481fd5b6001815d5f808680602001905181019061163b91906133ec565b915091508415611669573482602001511461166957604051631008b85760e11b815260040160405180910390fd5b8151158061167957506020820151155b156116975760405163e5da5c7360e01b815260040160405180910390fd5b6001600160a01b03861615806116b457506001600160a01b038116155b156116d257604051632534b66960e21b815260040160405180910390fd5b607f5482515f916116e39190612619565b6077549091506001600160a01b03166355dae15c3461170a6078546001600160a01b031690565b604080516001600160e01b031960e086901b1681526001600160a01b039283166004820152918c1660248301528751604483015260208801516064830152870151608482015289151560a482015260c401604080518083038185885af193505050508015611795575060408051601f3d908101601f1916820190925261179291810190613030565b60015b6117a1576109b2613052565b6117ad82826001611ebf565b826117ba81806001611f33565b6117cc858760200151885f0151612624565b6001600160a01b0385165f908152607a60209081526040808320805485019055608090915290819020805486019055517fcb7696223ea9f009e8eb0ecd9af1e430306b6c7c719e906d4a4af52bcba6353a9061182d908c9084908890612fec565b60405180910390a19650611842945050505050565b5f815d509392505050565b6001600160a01b0381165f908152607b602052604081205461072e565b5f61072e610b6a61188f846001600160a01b03165f908152607a602052604090205490565b8461191b565b5f806118a4610b6a843361191b565b90506118b133858561244c565b6118bd33858386612534565b9392505050565b6060607e805461069d90612e93565b5f806118df3385611b33565b905082811015611902576040516361ceb1d360e01b815260040160405180910390fd5b610e0f3385858403611e11565b5f61072a338484612205565b5f80611927845f611fa6565b9050801561195f5761195a61193b84612658565b6119526b033b2e3c9fd0803ce800000060026126bf565b839190612057565b6111dc565b5f949350505050565b5f8061197c6077546001600160a01b031690565b6001600160a01b0316633154b6e25f806040518363ffffffff1660e01b81526004016119a9929190613442565b602060405180830381865afa1580156119c4573d5f803e3d5ffd5b505050506040513d601f19601f820116820180604052508101906119e89190613162565b90506111dc6119f684612658565b611a0e611a04610b3b610e42565b84610b6389611f8f565b906126ca565b83421115611a3e5760405163184f1e0160e11b81526004810185905242602482015260440161084e565b5f7f6e71edae12b1b97f4d1f60370fef10105fa2faae0126114a169c64845d6126c9888888611a6c8c612705565b6040805160208101969096526001600160a01b0394851690860152929091166060840152608083015260a082015260c0810186905260e0016040516020818303038152906040528051906020012090505f611ac68261272c565b90505f611ad582878787612778565b9050896001600160a01b0316816001600160a01b031614611b1c57604051635091bef560e01b81526001600160a01b0380831660048301528b16602482015260440161084e565b611b278a8a8a611e11565b50505050505050505050565b6001600160a01b039182165f908152607c6020908152604080832093909416825291909152205490565b5f80611b81670de0b6b3a764000062093a80610e766077546001600160a01b031690565b6001600160a01b0384165f90815260806020908152604080832054815192830190915291815291925090611bb4906123a1565b611bff6040518060400160405280601f81526020017f5f4f5a28292e6765745374616b696e67526577617264735553444328293a2000815250610f5a6077546001600160a01b031690565b611c3660405180604001604052806015815260200174039b2b1b7b732363ca932bbb0b93239aaa9a2219d1605d1b815250836123e4565b5f611c496077546001600160a01b031690565b6040516394f649dd60e01b81526001600160a01b03878116600483015291909116906394f649dd906024015f60405180830381865afa158015611c8e573d5f803e3d5ffd5b505050506040513d5f823e601f3d908101601f19168201604052611cb591908101906132d7565b90505f815f81518110611cca57611cca6133b2565b60200260200101519050611cf66040518060600160405280602581526020016135ca60259139426123e4565b5f816040015142611d0791906133c6565b611d149062093a806133c6565b90508015611d225780611d27565b62093a805b9050611d566040518060400160405280600b81526020016a03a34b6b2a9b832b73a1d160ad1b815250826123e4565b611d846040518060400160405280600c81526020016b030b9b9b2ba39aab9b2b91d160a51b815250856123e4565b6305f5e100670de0b6b3a7640000611d9c8388613108565b611da6919061318d565b611db09086613108565b611dba919061318d565b611dc490856132c4565b979650505050505050565b5f6fffffffffffffffffffffffffffffffff81836001811115611df457611df461311f565b14611e01578381166111dc565b608084901c811691505092915050565b6001600160a01b0383161580611e2e57506001600160a01b038216155b15611e5f57604051637db368a160e01b81526001600160a01b0380851660048301528316602482015260440161084e565b6001600160a01b038381165f818152607c602090815260408083209487168084529482529182902085905590518481527f8c5be1e5ebec7d5bd14f71427d1e84f3dd0314c0f7b2291e5b200ac8c7c3b925910160405180910390a3505050565b60775460405163db185e8960e01b8152306004820152602481018590526044810184905282151560648201526001600160a01b039091169063db185e89906084015b5f604051808303815f87803b158015611f18575f80fd5b505af1158015611f2a573d5f803e3d5ffd5b50505050505050565b6079545f90611f429082611dcf565b90505f611f5b6001607954611dcf90919063ffffffff16565b90508215611f6e57908401908301611f77565b90849003908390035b611f8581608084901b6132c4565b6079555050505050565b5f61072e826b033b2e3c9fd0803ce8000000613108565b5f80612029611fbd6077546001600160a01b031690565b6001600160a01b0316633154b6e25f866040518363ffffffff1660e01b8152600401611fea929190613442565b602060405180830381865afa158015612005573d5f803e3d5ffd5b505050506040513d601f19601f82011682018060405250810190610b3b9190613162565b90506111dc81612037610e42565b1561204c57612047610b3b610e42565b61204e565b825b610b6387611f8f565b604051633f9b43b760e11b815260048101849052602481018390525f908490849084908490819073__$a7d7f0af96ad7248e2170a1364c3372171$__90637f36876e906044016040805180830381865af41580156120b7573d5f803e3d5ffd5b505050506040513d601f19601f820116820180604052508101906120db9190613030565b6040516399ed504f60e01b8152600481018390526024810182905260448101869052919350915073__$a7d7f0af96ad7248e2170a1364c3372171$__906399ed504f90606401602060405180830381865af415801561213c573d5f803e3d5ffd5b505050506040513d601f19601f820116820180604052508101906121609190613162565b9998505050505050505050565b5f61072e6b033b2e3c9fd0803ce80000008361318d565b604254610100900460ff166121ab5760405162461bcd60e51b815260040161084e9061345f565b6121b5828261279e565b5050565b5f6121c48484611b33565b90505f1981146121ff57818110156121f2576040516306052b7f60e01b81526004810183905260240161084e565b6121ff8484848403611e11565b50505050565b6001600160a01b038316158061222257506001600160a01b038216155b1561225357604051637db368a160e01b81526001600160a01b0380851660048301528316602482015260440161084e565b5f61225d8261118d565b6001600160a01b0385165f908152607a60205260409020549091508181101561229f578481836040516315c29bad60e31b815260040161084e93929190612fec565b6001600160a01b038086165f818152607a602052604080822086860390559287168082529083902080548601905591517fddf252ad1be2c89b69c2b068fc378daa952ba7f163c4a11628f55a4df523b3ef906122fe9087815260200190565b60405180910390a35050505050565b5f6106897f8b73c3c69bb8fe3d512ecc4cf759cc79239f7b179b0ffacaa9a75d522b39400f61233b60435490565b6044546040805160208101859052908101839052606081018290524660808201523060a08201525f9060c0016040516020818303038152906040528051906020012090509392505050565b5f825f19048411830215820261239a575f80fd5b5091020490565b61040b816040516024016123b59190612b0b565b60408051601f198184030181529190526020810180516001600160e01b031663104c13eb60e21b1790526127df565b6121b582826040516024016123fa9291906134aa565b60408051601f198184030181529190526020810180516001600160e01b03166309710a9d60e41b1790526127df565b5f825f19048411830215820261243d575f80fd5b50910281810615159190040190565b6001600160a01b038316158061246957506001600160a01b038216155b1561249a57604051637db368a160e01b81526001600160a01b0380851660048301528316602482015260440161084e565b306001600160a01b038316036124c357604051636d3bb4b960e11b815260040160405180910390fd5b6001600160a01b0383165f908152607a602052604090205480821115612502578381836040516315c29bad60e31b815260040161084e93929190612fec565b6001600160a01b039384165f908152607a60205260408082209284900390925592909316825291902080549091019055565b826001600160a01b0316846001600160a01b03167fddf252ad1be2c89b69c2b068fc378daa952ba7f163c4a11628f55a4df523b3ef8460405161257991815260200190565b60405180910390a3826001600160a01b0316846001600160a01b03167f9d9c909296d9c674451c0c24f02cb64981eb3b727f99865939192f880a755dcb836040516125c691815260200190565b60405180910390a350505050565b61040b816040516024016125ea91815260200190565b60408051601f198184030181529190526020810180516001600160e01b031663f5b1bba960e01b1790526127df565b5f6118bd828461318d565b6077546040516331a2e95360e21b81526001600160a01b039091169063c68ba54c90611f0190869086908690600401612fec565b5f61072e6126736b033b2e3c9fd0803ce800000060026126bf565b612694610b4b856001600160a01b03165f908152607a602052604090205490565b6001600160a01b0385165f908152607a6020526040902054610b6390610b3b9064e8d4a51000613108565b5f6118bd82846135ab565b5f82826126d781836135b6565b156126e35760016126e5565b5f5b60ff166126f2828461318d565b6126fc91906132c4565b95945050505050565b6001600160a01b0381165f908152607b602052604090208054600181018255905b50919050565b5f61072e61273861230d565b8360405161190160f01b602082015260228101839052604281018290525f9060620160405160208183030381529060405280519060200120905092915050565b5f805f612787878787876127ff565b91509150612794816128e4565b5095945050505050565b604254610100900460ff166127c55760405162461bcd60e51b815260040161084e9061345f565b815160209283012081519190920120604391909155604455565b80516a636f6e736f6c652e6c6f67602083015f808483855afa5050505050565b5f807f7fffffffffffffffffffffffffffffff5d576e7357a4501ddfe92f46681b20a083111561283457505f905060036128db565b8460ff16601b1415801561284c57508460ff16601c14155b1561285c57505f905060046128db565b604080515f8082526020820180845289905260ff881692820192909252606081018690526080810185905260019060a0016020604051602081039080840390855afa1580156128ad573d5f803e3d5ffd5b5050604051601f1901519150506001600160a01b0381166128d5575f600192509250506128db565b91505f90505b94509492505050565b5f8160048111156128f7576128f761311f565b036128ff5750565b60018160048111156129135761291361311f565b036129605760405162461bcd60e51b815260206004820152601860248201527f45434453413a20696e76616c6964207369676e61747572650000000000000000604482015260640161084e565b60028160048111156129745761297461311f565b036129c15760405162461bcd60e51b815260206004820152601f60248201527f45434453413a20696e76616c6964207369676e6174757265206c656e67746800604482015260640161084e565b60038160048111156129d5576129d561311f565b03612a2d5760405162461bcd60e51b815260206004820152602260248201527f45434453413a20696e76616c6964207369676e6174757265202773272076616c604482015261756560f01b606482015260840161084e565b6004816004811115612a4157612a4161311f565b0361040b5760405162461bcd60e51b815260206004820152602260248201527f45434453413a20696e76616c6964207369676e6174757265202776272076616c604482015261756560f01b606482015260840161084e565b6001600160a01b038116811461040b575f80fd5b5f60208284031215612abd575f80fd5b81356118bd81612a99565b5f81518084525f5b81811015612aec57602081850181015186830182015201612ad0565b505f602082860101526020601f19601f83011685010191505092915050565b602081525f6118bd6020830184612ac8565b5f8060408385031215612b2e575f80fd5b8235612b3981612a99565b946020939093013593505050565b634e487b7160e01b5f52604160045260245ffd5b6060810181811067ffffffffffffffff82111715612b7b57612b7b612b47565b60405250565b6080810181811067ffffffffffffffff82111715612b7b57612b7b612b47565b601f8201601f1916810167ffffffffffffffff81118282101715612bc757612bc7612b47565b6040525050565b5f82601f830112612bdd575f80fd5b813567ffffffffffffffff811115612bf757612bf7612b47565b604051612c0e601f8301601f191660200182612ba1565b818152846020838601011115612c22575f80fd5b816020850160208301375f918101602001919091529392505050565b5f8060408385031215612c4f575f80fd5b823567ffffffffffffffff811115612c65575f80fd5b612c7185828601612bce565b9250506020830135612c8281612a99565b809150509250929050565b5f60208284031215612c9d575f80fd5b5035919050565b5f805f8060808587031215612cb7575f80fd5b8435612cc281612a99565b93506020850135612cd281612a99565b9250604085013567ffffffffffffffff80821115612cee575f80fd5b612cfa88838901612bce565b93506060870135915080821115612d0f575f80fd5b50612d1c87828801612bce565b91505092959194509250565b5f805f60608486031215612d3a575f80fd5b8335612d4581612a99565b92506020840135612d5581612a99565b929592945050506040919091013590565b5f805f60608486031215612d78575f80fd5b833567ffffffffffffffff811115612d8e575f80fd5b612d9a86828701612bce565b9350506020840135612dab81612a99565b915060408401358015158114612dbf575f80fd5b809150509250925092565b5f8060408385031215612ddb575f80fd5b823591506020830135612c8281612a99565b60ff8116811461040b575f80fd5b5f805f805f805f60e0888a031215612e11575f80fd5b8735612e1c81612a99565b96506020880135612e2c81612a99565b955060408801359450606088013593506080880135612e4a81612ded565b9699959850939692959460a0840135945060c09093013592915050565b5f8060408385031215612e78575f80fd5b8235612e8381612a99565b91506020830135612c8281612a99565b600181811c90821680612ea757607f821691505b60208210810361272657634e487b7160e01b5f52602260045260245ffd5b5f67ffffffffffffffff821115612ede57612ede612b47565b5060051b60200190565b8051612ef381612a99565b919050565b5f8060408385031215612f09575f80fd5b825167ffffffffffffffff80821115612f20575f80fd5b9084019060608287031215612f33575f80fd5b604051612f3f81612b5b565b8251815260208084015181830152604084015183811115612f5e575f80fd5b80850194505087601f850112612f72575f80fd5b83519250612f7f83612ec5565b604051612f8c8282612ba1565b84815260059490941b8501820193828101915089851115612fab575f80fd5b948201945b84861015612fc957855182529482019490820190612fb0565b8060408501525050819550612fdf818801612ee8565b9450505050509250929050565b6001600160a01b039390931683526020830191909152604082015260600190565b6001600160a01b03831681526040602082018190525f906111dc90830184612ac8565b5f8060408385031215613041575f80fd5b505080516020909101519092909150565b5f60033d11156130685760045f803e505f5160e01c5b90565b5f60443d10156130785790565b6040516003193d81016004833e81513d67ffffffffffffffff81602484011181841117156130a857505050505090565b82850191508151818111156130c05750505050505090565b843d87010160208285010111156130da5750505050505090565b6130e960208286010187612ba1565b509095945050505050565b634e487b7160e01b5f52601160045260245ffd5b808202811582820484141761072e5761072e6130f4565b634e487b7160e01b5f52602160045260245ffd5b6002811061040b57634e487b7160e01b5f52602160045260245ffd5b6020810161315c83613133565b91905290565b5f60208284031215613172575f80fd5b5051919050565b634e487b7160e01b5f52601260045260245ffd5b5f8261319b5761319b613179565b500490565b601f8211156131e457805f5260205f20601f840160051c810160208510156131c55750805b601f840160051c820191505b81811015610df1575f81556001016131d1565b505050565b815167ffffffffffffffff81111561320357613203612b47565b613217816132118454612e93565b846131a0565b602080601f83116001811461324a575f84156132335750858301515b5f19600386901b1c1916600185901b1785556132a1565b5f85815260208120601f198616915b8281101561327857888601518255948401946001909101908401613259565b508582101561329557878501515f19600388901b60f8161c191681555b505060018460011b0185555b505050505050565b5f602082840312156132b9575f80fd5b81516118bd81612ded565b8082018082111561072e5761072e6130f4565b5f60208083850312156132e8575f80fd5b825167ffffffffffffffff8111156132fe575f80fd5b8301601f8101851361330e575f80fd5b805161331981612ec5565b604080516133278382612ba1565b83815260079390931b8401850192858101925088841115613346575f80fd5b938501935b838510156133a6576080858a031215613362575f80fd5b815161336d81612b81565b855181528686015187820152828601518382015260608087015161339081612a99565b908201528352608094909401939185019161334b565b98975050505050505050565b634e487b7160e01b5f52603260045260245ffd5b8181035f8312801583831316838312821617156133e5576133e56130f4565b5092915050565b5f8082840360808112156133fe575f80fd5b606081121561340b575f80fd5b5060405161341881612b5b565b835181526020840151602082015260408401516040820152809250506060830151612c8281612a99565b8281526040810161345283613133565b8260208301529392505050565b6020808252602b908201527f496e697469616c697a61626c653a20636f6e7472616374206973206e6f74206960408201526a6e697469616c697a696e6760a81b606082015260800190565b604081525f6134bc6040830185612ac8565b90508260208301529392505050565b600181815b8085111561350557815f19048211156134eb576134eb6130f4565b808516156134f857918102915b93841c93908002906134d0565b509250929050565b5f8261351b5750600161072e565b8161352757505f61072e565b816001811461353d576002811461354757613563565b600191505061072e565b60ff841115613558576135586130f4565b50506001821b61072e565b5060208310610133831016604e8410600b8410161715613586575081810a61072e565b61359083836134cb565b805f19048211156135a3576135a36130f4565b029392505050565b5f6118bd838361350d565b5f826135c4576135c4613179565b50069056fe626c6f636b2e74696d657374616d7020696e2062616c616e63654f66202a2a2a2a2a2a3a20a2646970667358221220550b316f391de9540b909b6c4404f542f63fcd50fb5e8743e7ddc162e364bfc364736f6c63430008180033","linkReferences":{"contracts/libraries/Uint512.sol":{"Uint512":[{"start":8561,"length":20},{"start":8693,"length":20}]}}},"methodIdentifiers":{"DOMAIN_SEPARATOR()":"3644e515","FORMAT_DECIMALS()":"a01c8774","allowance(address,address)":"dd62ed3e","approve(address,uint256)":"095ea7b3","asset()":"38d52e0f","balanceOf(address)":"70a08231","balanceOf2(address)":"7f5b002e","balanceOf3(address)":"54436565","balanceOf4(address)":"ece5300c","claimReward()":"b88a802f","convertToOzTokens(uint256,address)":"bc93f1cf","convertToShares(uint256,address)":"d295fa9a","convertToSharesFromOzBalance(uint256)":"69e41c62","convertToUnderlying(uint256)":"1dc7f521","decimals()":"313ce567","decreaseAllowance(address,uint256)":"a457c2d7","earned(address)":"008cc262","getRewardsData()":"7d098e64","increaseAllowance(address,uint256)":"39509351","initialize(address,address,string,string)":"2016a0d2","lastTimeRewardApplicable()":"80faa57d","mint(bytes,address)":"0cae37f1","mint2(bytes,address,bool)":"7b044637","name()":"06fdde03","nonces(address)":"7ecebe00","notifyRewardAmount(uint256)":"3c6b16ab","permit(address,address,uint256,uint256,uint8,bytes32,bytes32)":"d505accf","redeem(bytes,address)":"0ba097d6","rewardPerToken()":"cd3daf9d","setRewardsDuration(uint256)":"cc1a378f","sharesOf(address)":"f5eb42dc","symbol()":"95d89b41","totalAssets()":"01e1d114","totalShares()":"3a98ef39","totalSupply()":"18160ddd","transfer(address,uint256)":"a9059cbb","transferFrom(address,address,uint256)":"23b872dd","transferShares(address,uint256)":"8fcb4e5b","transferSharesFrom(address,address,uint256)":"6d780459"},"id":46}