{
  "abi": [
    {
      "inputs": [
        {
          "internalType": "string",
          "name": "name_",
          "type": "string"
        },
        {
          "internalType": "string",
          "name": "symbol_",
          "type": "string"
        },
        {
          "internalType": "address",
          "name": "underlying_",
          "type": "address"
        },
        {
          "internalType": "uint8",
          "name": "decimals_",
          "type": "uint8"
        }
      ],
      "stateMutability": "nonpayable",
      "type": "constructor"
    },
    {
      "anonymous": false,
      "inputs": [
        {
          "indexed": true,
          "internalType": "address",
          "name": "owner",
          "type": "address"
        },
        {
          "indexed": true,
          "internalType": "address",
          "name": "spender",
          "type": "address"
        },
        {
          "indexed": false,
          "internalType": "uint256",
          "name": "value",
          "type": "uint256"
        }
      ],
      "name": "Approval",
      "type": "event"
    },
    {
      "anonymous": false,
      "inputs": [
        {
          "indexed": true,
          "internalType": "address",
          "name": "from",
          "type": "address"
        },
        {
          "indexed": true,
          "internalType": "address",
          "name": "to",
          "type": "address"
        },
        {
          "indexed": false,
          "internalType": "uint256",
          "name": "value",
          "type": "uint256"
        }
      ],
      "name": "Transfer",
      "type": "event"
    },
    {
      "inputs": [
        {
          "internalType": "address",
          "name": "owner",
          "type": "address"
        },
        {
          "internalType": "address",
          "name": "spender",
          "type": "address"
        }
      ],
      "name": "allowance",
      "outputs": [
        {
          "internalType": "uint256",
          "name": "",
          "type": "uint256"
        }
      ],
      "stateMutability": "view",
      "type": "function"
    },
    {
      "inputs": [
        {
          "internalType": "address",
          "name": "spender",
          "type": "address"
        },
        {
          "internalType": "uint256",
          "name": "amount",
          "type": "uint256"
        }
      ],
      "name": "approve",
      "outputs": [
        {
          "internalType": "bool",
          "name": "",
          "type": "bool"
        }
      ],
      "stateMutability": "nonpayable",
      "type": "function"
    },
    {
      "inputs": [
        {
          "internalType": "address",
          "name": "account",
          "type": "address"
        }
      ],
      "name": "balanceOf",
      "outputs": [
        {
          "internalType": "uint256",
          "name": "",
          "type": "uint256"
        }
      ],
      "stateMutability": "view",
      "type": "function"
    },
    {
      "inputs": [],
      "name": "decimals",
      "outputs": [
        {
          "internalType": "uint8",
          "name": "",
          "type": "uint8"
        }
      ],
      "stateMutability": "view",
      "type": "function"
    },
    {
      "inputs": [
        {
          "internalType": "address",
          "name": "spender",
          "type": "address"
        },
        {
          "internalType": "uint256",
          "name": "subtractedValue",
          "type": "uint256"
        }
      ],
      "name": "decreaseAllowance",
      "outputs": [
        {
          "internalType": "bool",
          "name": "",
          "type": "bool"
        }
      ],
      "stateMutability": "nonpayable",
      "type": "function"
    },
    {
      "inputs": [
        {
          "internalType": "address",
          "name": "spender",
          "type": "address"
        },
        {
          "internalType": "uint256",
          "name": "addedValue",
          "type": "uint256"
        }
      ],
      "name": "increaseAllowance",
      "outputs": [
        {
          "internalType": "bool",
          "name": "",
          "type": "bool"
        }
      ],
      "stateMutability": "nonpayable",
      "type": "function"
    },
    {
      "inputs": [
        {
          "internalType": "address",
          "name": "account_",
          "type": "address"
        }
      ],
      "name": "interestOf",
      "outputs": [
        {
          "internalType": "uint256",
          "name": "",
          "type": "uint256"
        }
      ],
      "stateMutability": "view",
      "type": "function"
    },
    {
      "inputs": [
        {
          "internalType": "uint256",
          "name": "amount_",
          "type": "uint256"
        }
      ],
      "name": "mint",
      "outputs": [],
      "stateMutability": "nonpayable",
      "type": "function"
    },
    {
      "inputs": [],
      "name": "name",
      "outputs": [
        {
          "internalType": "string",
          "name": "",
          "type": "string"
        }
      ],
      "stateMutability": "view",
      "type": "function"
    },
    {
      "inputs": [],
      "name": "symbol",
      "outputs": [
        {
          "internalType": "string",
          "name": "",
          "type": "string"
        }
      ],
      "stateMutability": "view",
      "type": "function"
    },
    {
      "inputs": [
        {
          "internalType": "address",
          "name": "account_",
          "type": "address"
        }
      ],
      "name": "totalBalanceOf",
      "outputs": [
        {
          "internalType": "uint256",
          "name": "",
          "type": "uint256"
        }
      ],
      "stateMutability": "view",
      "type": "function"
    },
    {
      "inputs": [],
      "name": "totalSupply",
      "outputs": [
        {
          "internalType": "uint256",
          "name": "",
          "type": "uint256"
        }
      ],
      "stateMutability": "view",
      "type": "function"
    },
    {
      "inputs": [
        {
          "internalType": "address",
          "name": "to",
          "type": "address"
        },
        {
          "internalType": "uint256",
          "name": "amount",
          "type": "uint256"
        }
      ],
      "name": "transfer",
      "outputs": [
        {
          "internalType": "bool",
          "name": "",
          "type": "bool"
        }
      ],
      "stateMutability": "nonpayable",
      "type": "function"
    },
    {
      "inputs": [
        {
          "internalType": "address",
          "name": "from",
          "type": "address"
        },
        {
          "internalType": "address",
          "name": "to",
          "type": "address"
        },
        {
          "internalType": "uint256",
          "name": "amount",
          "type": "uint256"
        }
      ],
      "name": "transferFrom",
      "outputs": [
        {
          "internalType": "bool",
          "name": "",
          "type": "bool"
        }
      ],
      "stateMutability": "nonpayable",
      "type": "function"
    },
    {
      "inputs": [],
      "name": "underlying",
      "outputs": [
        {
          "internalType": "address",
          "name": "",
          "type": "address"
        }
      ],
      "stateMutability": "view",
      "type": "function"
    }
  ],
  "bytecode": {
    "object": "0x60a06040523480156200001157600080fd5b506040516200123938038062001239833981016040819052620000349162000142565b600362000042858262000277565b50600462000051848262000277565b506001600160a01b03919091166080526005805460ff191660ff90921691909117905550620003439050565b634e487b7160e01b600052604160045260246000fd5b600082601f830112620000a557600080fd5b81516001600160401b0380821115620000c257620000c26200007d565b604051601f8301601f19908116603f01168101908282118183101715620000ed57620000ed6200007d565b816040528381526020925086838588010111156200010a57600080fd5b600091505b838210156200012e57858201830151818301840152908201906200010f565b600093810190920192909252949350505050565b600080600080608085870312156200015957600080fd5b84516001600160401b03808211156200017157600080fd5b6200017f8883890162000093565b955060208701519150808211156200019657600080fd5b50620001a58782880162000093565b604087015190945090506001600160a01b0381168114620001c557600080fd5b606086015190925060ff81168114620001dd57600080fd5b939692955090935050565b600181811c90821680620001fd57607f821691505b6020821081036200021e57634e487b7160e01b600052602260045260246000fd5b50919050565b601f8211156200027257600081815260208120601f850160051c810160208610156200024d5750805b601f850160051c820191505b818110156200026e5782815560010162000259565b5050505b505050565b81516001600160401b038111156200029357620002936200007d565b620002ab81620002a48454620001e8565b8462000224565b602080601f831160018114620002e35760008415620002ca5750858301515b600019600386901b1c1916600185901b1785556200026e565b600085815260208120601f198616915b828110156200031457888601518255948401946001909101908401620002f3565b5085821015620003335787850151600019600388901b60f8161c191681555b5050505050600190811b01905550565b608051610ed362000366600039600081816101a801526103b00152610ed36000f3fe608060405234801561001057600080fd5b50600436106100f55760003560e01c80636f307dc311610097578063a457c2d711610066578063a457c2d714610202578063a9059cbb14610215578063d8e8b17714610228578063dd62ed3e1461023b57600080fd5b80636f307dc31461019b57806370a08231146101d257806395d89b41146101e5578063a0712d68146101ed57600080fd5b806323b872dd116100d357806323b872dd1461014d578063313ce5671461016057806339509351146101755780634b0ee02a1461018857600080fd5b806306fdde03146100fa578063095ea7b31461011857806318160ddd1461013b575b600080fd5b61010261024e565b60405161010f9190610cb5565b60405180910390f35b61012b610126366004610ce4565b6102e0565b604051901515815260200161010f565b6002545b60405190815260200161010f565b61012b61015b366004610d0e565b6102fa565b60055460405160ff909116815260200161010f565b61012b610183366004610ce4565b610320565b61013f610196366004610d4a565b610342565b6040516001600160a01b037f000000000000000000000000000000000000000000000000000000000000000016815260200161010f565b61013f6101e0366004610d4a565b610393565b61010261039d565b6102006101fb366004610d65565b6103ac565b005b61012b610210366004610ce4565b61050c565b61012b610223366004610ce4565b610597565b61013f610236366004610d4a565b6105a5565b61013f610249366004610d7e565b6105b0565b60606003805461025d90610db1565b80601f016020809104026020016040519081016040528092919081815260200182805461028990610db1565b80156102d65780601f106102ab576101008083540402835291602001916102d6565b820191906000526020600020905b8154815290600101906020018083116102b957829003601f168201915b5050505050905090565b6000336102ee8185856105fa565b60019150505b92915050565b60003361030885828561073e565b6103138585856107b8565b60019150505b9392505050565b6000336102ee81858561033383836105b0565b61033d9190610deb565b6105fa565b6000808060025b600281111561035a5761035a610e0c565b81526020019081526020016000206000836001600160a01b03166001600160a01b03168152602001908152602001600020549050919050565b6000808080610349565b60606004805461025d90610db1565b60007f0000000000000000000000000000000000000000000000000000000000000000604080518082018252601381527203130b630b731b2a7b31439b2b73232b9149d1606d1b602082015290516370a0823160e01b815233600482015291925061046b916001600160a01b038416906370a0823190602401602060405180830381865afa158015610442573d6000803e3d6000fd5b505050506040513d601f19601f820116820180604052508101906104669190610e22565b6109d4565b604051636eb1769f60e11b81523360048201523060248201526000906001600160a01b0383169063dd62ed3e90604401602060405180830381865afa1580156104b8573d6000803e3d6000fd5b505050506040513d601f19601f820116820180604052508101906104dc9190610e22565b905061050760405180604001604052806007815260200166030b63637bb9d160cd1b815250826109d4565b505050565b6000338161051a82866105b0565b90508381101561057f5760405162461bcd60e51b815260206004820152602560248201527f45524332303a2064656372656173656420616c6c6f77616e63652062656c6f77604482015264207a65726f60d81b60648201526084015b60405180910390fd5b61058c82868684036105fa565b506001949350505050565b6000336102ee8185856107b8565b600080806001610349565b6001600160a01b0391821660009081527fa6eef7e35abe7026729641147f7915573c7e97b47efa546f5f6e3230263bcb496020908152604080832093909416825291909152205490565b6001600160a01b03831661065c5760405162461bcd60e51b8152602060048201526024808201527f45524332303a20617070726f76652066726f6d20746865207a65726f206164646044820152637265737360e01b6064820152608401610576565b6001600160a01b0382166106bd5760405162461bcd60e51b815260206004820152602260248201527f45524332303a20617070726f766520746f20746865207a65726f206164647265604482015261737360f01b6064820152608401610576565b6001600160a01b0383811660008181527fa6eef7e35abe7026729641147f7915573c7e97b47efa546f5f6e3230263bcb496020908152604080832094871680845294825291829020859055815185815291517f8c5be1e5ebec7d5bd14f71427d1e84f3dd0314c0f7b2291e5b200ac8c7c3b9259281900390910190a3505050565b600061074a84846105b0565b905060001981146107b257818110156107a55760405162461bcd60e51b815260206004820152601d60248201527f45524332303a20696e73756666696369656e7420616c6c6f77616e63650000006044820152606401610576565b6107b284848484036105fa565b50505050565b6001600160a01b03831661081c5760405162461bcd60e51b815260206004820152602560248201527f45524332303a207472616e736665722066726f6d20746865207a65726f206164604482015264647265737360d81b6064820152608401610576565b6001600160a01b03821661087e5760405162461bcd60e51b815260206004820152602360248201527f45524332303a207472616e7366657220746f20746865207a65726f206164647260448201526265737360e81b6064820152608401610576565b6001600160a01b0383166000908152600080516020610e7e8339815191526020526040902054818110156109035760405162461bcd60e51b815260206004820152602660248201527f45524332303a207472616e7366657220616d6f756e7420657863656564732062604482015265616c616e636560d01b6064820152608401610576565b6001600160a01b038481166000908152600080516020610e7e8339815191526020526040808220858503905591851681529081208054840190556109478584610a1d565b6001600160a01b0386166000908152600080516020610e5e8339815191526020526040902080548290038201905590506109818585610a9f565b50826001600160a01b0316846001600160a01b03167fddf252ad1be2c89b69c2b068fc378daa952ba7f163c4a11628f55a4df523b3ef846040516109c791815260200190565b60405180910390a36107b2565b610a1982826040516024016109ea929190610e3b565b60408051601f198184030181529190526020810180516001600160e01b03166309710a9d60e41b179052610b9f565b5050565b6001600160a01b0382166000908152600080516020610e7e833981519152602052604081205481610a588468056bc75e2d6310000084610bc0565b6001600160a01b0386166000908152600080516020610e5e8339815191526020526040902054909150610a95828268056bc75e2d63100000610bc0565b9695505050505050565b6001600160a01b0382166000908152600080516020610e5e8339815191526020908152604080832054600080516020610e7e83398151915290925290912054610ae89190610deb565b6001600160a01b0383811660009081527fabbb5caa7dda850e60932de0934eb1f9d0f59695050f761dc64e443e5030a56960209081526040808320949094559184168152600080516020610e5e833981519152825282812054600080516020610e7e8339815191529092529190912054610b629190610deb565b6001600160a01b039190911660009081527fabbb5caa7dda850e60932de0934eb1f9d0f59695050f761dc64e443e5030a569602052604090205550565b80516a636f6e736f6c652e6c6f67602083016000808483855afa5050505050565b60008383026000198486098181108201900380610bf55783610bea5763ae47f7026000526004601cfd5b508290049050610319565b808411610c0a5763ae47f7026000526004601cfd5b838587096000858103861695869004956003870260029081188089028203028089028203028089028203028089028203028089028203028089029091030291819003819004600101858411909403939093029190930391909104170290509392505050565b6000815180845260005b81811015610c9557602081850181015186830182015201610c79565b506000602082860101526020601f19601f83011685010191505092915050565b6020815260006103196020830184610c6f565b80356001600160a01b0381168114610cdf57600080fd5b919050565b60008060408385031215610cf757600080fd5b610d0083610cc8565b946020939093013593505050565b600080600060608486031215610d2357600080fd5b610d2c84610cc8565b9250610d3a60208501610cc8565b9150604084013590509250925092565b600060208284031215610d5c57600080fd5b61031982610cc8565b600060208284031215610d7757600080fd5b5035919050565b60008060408385031215610d9157600080fd5b610d9a83610cc8565b9150610da860208401610cc8565b90509250929050565b600181811c90821680610dc557607f821691505b602082108103610de557634e487b7160e01b600052602260045260246000fd5b50919050565b808201808211156102f457634e487b7160e01b600052601160045260246000fd5b634e487b7160e01b600052602160045260246000fd5b600060208284031215610e3457600080fd5b5051919050565b604081526000610e4e6040830185610c6f565b9050826020830152939250505056feada5013122d395ba3c54772283fb069b10426056ef8ca54750cb9bb552a59e7dad3228b676f7d3cd4284a5443f17f1962b36e491b30a40b2405849e597ba5fb5a26469706673582212207cb079a010e1a89ba1a2461ab3bcdba7adae0a48684e7381e6d8a887e19ebcc064736f6c63430008150033",
    "linkReferences": {}
  },
  "methodIdentifiers": {
    "allowance(address,address)": "dd62ed3e",
    "approve(address,uint256)": "095ea7b3",
    "balanceOf(address)": "70a08231",
    "decimals()": "313ce567",
    "decreaseAllowance(address,uint256)": "a457c2d7",
    "increaseAllowance(address,uint256)": "39509351",
    "interestOf(address)": "d8e8b177",
    "mint(uint256)": "a0712d68",
    "name()": "06fdde03",
    "symbol()": "95d89b41",
    "totalBalanceOf(address)": "4b0ee02a",
    "totalSupply()": "18160ddd",
    "transfer(address,uint256)": "a9059cbb",
    "transferFrom(address,address,uint256)": "23b872dd",
    "underlying()": "6f307dc3"
  },
  "id": 2
}