{
  "abi": [
    {
      "inputs": [],
      "stateMutability": "nonpayable",
      "type": "constructor"
    },
    {
      "inputs": [],
      "name": "OZError03",
      "type": "error"
    },
    {
      "inputs": [
        {
          "internalType": "address",
          "name": "from",
          "type": "address"
        },
        {
          "internalType": "address",
          "name": "to",
          "type": "address"
        }
      ],
      "name": "OZError04",
      "type": "error"
    },
    {
      "inputs": [
        {
          "internalType": "uint256",
          "name": "amount",
          "type": "uint256"
        }
      ],
      "name": "OZError05",
      "type": "error"
    },
    {
      "inputs": [
        {
          "internalType": "address",
          "name": "sender",
          "type": "address"
        },
        {
          "internalType": "uint256",
          "name": "accountShares",
          "type": "uint256"
        },
        {
          "internalType": "uint256",
          "name": "shares",
          "type": "uint256"
        }
      ],
      "name": "OZError06",
      "type": "error"
    },
    {
      "inputs": [
        {
          "internalType": "address",
          "name": "from",
          "type": "address"
        },
        {
          "internalType": "uint256",
          "name": "fromShares",
          "type": "uint256"
        },
        {
          "internalType": "uint256",
          "name": "shares",
          "type": "uint256"
        }
      ],
      "name": "OZError07",
      "type": "error"
    },
    {
      "inputs": [
        {
          "internalType": "uint256",
          "name": "deadline",
          "type": "uint256"
        },
        {
          "internalType": "uint256",
          "name": "blockTimestamp",
          "type": "uint256"
        }
      ],
      "name": "OZError08",
      "type": "error"
    },
    {
      "inputs": [
        {
          "internalType": "address",
          "name": "owner",
          "type": "address"
        },
        {
          "internalType": "address",
          "name": "spender",
          "type": "address"
        }
      ],
      "name": "OZError09",
      "type": "error"
    },
    {
      "anonymous": false,
      "inputs": [
        {
          "indexed": true,
          "internalType": "address",
          "name": "owner",
          "type": "address"
        },
        {
          "indexed": true,
          "internalType": "address",
          "name": "spender",
          "type": "address"
        },
        {
          "indexed": false,
          "internalType": "uint256",
          "name": "value",
          "type": "uint256"
        }
      ],
      "name": "Approval",
      "type": "event"
    },
    {
      "anonymous": false,
      "inputs": [
        {
          "indexed": false,
          "internalType": "uint8",
          "name": "version",
          "type": "uint8"
        }
      ],
      "name": "Initialized",
      "type": "event"
    },
    {
      "anonymous": false,
      "inputs": [
        {
          "indexed": true,
          "internalType": "address",
          "name": "from",
          "type": "address"
        },
        {
          "indexed": true,
          "internalType": "address",
          "name": "to",
          "type": "address"
        },
        {
          "indexed": false,
          "internalType": "uint256",
          "name": "value",
          "type": "uint256"
        }
      ],
      "name": "Transfer",
      "type": "event"
    },
    {
      "inputs": [],
      "name": "DOMAIN_SEPARATOR",
      "outputs": [
        {
          "internalType": "bytes32",
          "name": "",
          "type": "bytes32"
        }
      ],
      "stateMutability": "view",
      "type": "function"
    },
    {
      "inputs": [],
      "name": "FORMAT_DECIMALS",
      "outputs": [
        {
          "internalType": "uint256",
          "name": "",
          "type": "uint256"
        }
      ],
      "stateMutability": "view",
      "type": "function"
    },
    {
      "inputs": [
        {
          "internalType": "address",
          "name": "owner",
          "type": "address"
        },
        {
          "internalType": "address",
          "name": "spender",
          "type": "address"
        }
      ],
      "name": "allowance",
      "outputs": [
        {
          "internalType": "uint256",
          "name": "",
          "type": "uint256"
        }
      ],
      "stateMutability": "view",
      "type": "function"
    },
    {
      "inputs": [
        {
          "internalType": "address",
          "name": "spender",
          "type": "address"
        },
        {
          "internalType": "uint256",
          "name": "amount",
          "type": "uint256"
        }
      ],
      "name": "approve",
      "outputs": [
        {
          "internalType": "bool",
          "name": "",
          "type": "bool"
        }
      ],
      "stateMutability": "nonpayable",
      "type": "function"
    },
    {
      "inputs": [],
      "name": "asset",
      "outputs": [
        {
          "internalType": "address",
          "name": "",
          "type": "address"
        }
      ],
      "stateMutability": "view",
      "type": "function"
    },
    {
      "inputs": [
        {
          "internalType": "address",
          "name": "account_",
          "type": "address"
        }
      ],
      "name": "balanceOf",
      "outputs": [
        {
          "internalType": "uint256",
          "name": "",
          "type": "uint256"
        }
      ],
      "stateMutability": "view",
      "type": "function"
    },
    {
      "inputs": [
        {
          "internalType": "uint256",
          "name": "shares",
          "type": "uint256"
        }
      ],
      "name": "convertToAssets",
      "outputs": [
        {
          "internalType": "uint256",
          "name": "assets",
          "type": "uint256"
        }
      ],
      "stateMutability": "view",
      "type": "function"
    },
    {
      "inputs": [
        {
          "internalType": "uint256",
          "name": "assets",
          "type": "uint256"
        }
      ],
      "name": "convertToShares",
      "outputs": [
        {
          "internalType": "uint256",
          "name": "shares",
          "type": "uint256"
        }
      ],
      "stateMutability": "view",
      "type": "function"
    },
    {
      "inputs": [
        {
          "internalType": "uint256",
          "name": "shares_",
          "type": "uint256"
        }
      ],
      "name": "convertToUnderlying",
      "outputs": [
        {
          "internalType": "uint256",
          "name": "amountUnderlying",
          "type": "uint256"
        }
      ],
      "stateMutability": "view",
      "type": "function"
    },
    {
      "inputs": [],
      "name": "decimals",
      "outputs": [
        {
          "internalType": "uint8",
          "name": "",
          "type": "uint8"
        }
      ],
      "stateMutability": "pure",
      "type": "function"
    },
    {
      "inputs": [
        {
          "internalType": "address",
          "name": "spender",
          "type": "address"
        },
        {
          "internalType": "uint256",
          "name": "subtractedValue",
          "type": "uint256"
        }
      ],
      "name": "decreaseAllowance",
      "outputs": [
        {
          "internalType": "bool",
          "name": "",
          "type": "bool"
        }
      ],
      "stateMutability": "nonpayable",
      "type": "function"
    },
    {
      "inputs": [
        {
          "internalType": "address",
          "name": "spender",
          "type": "address"
        },
        {
          "internalType": "uint256",
          "name": "addedValue",
          "type": "uint256"
        }
      ],
      "name": "increaseAllowance",
      "outputs": [
        {
          "internalType": "bool",
          "name": "",
          "type": "bool"
        }
      ],
      "stateMutability": "nonpayable",
      "type": "function"
    },
    {
      "inputs": [
        {
          "internalType": "address",
          "name": "underlying_",
          "type": "address"
        },
        {
          "internalType": "address",
          "name": "diamond_",
          "type": "address"
        },
        {
          "internalType": "string",
          "name": "name_",
          "type": "string"
        },
        {
          "internalType": "string",
          "name": "symbol_",
          "type": "string"
        }
      ],
      "name": "initialize",
      "outputs": [],
      "stateMutability": "nonpayable",
      "type": "function"
    },
    {
      "inputs": [
        {
          "internalType": "bytes",
          "name": "data_",
          "type": "bytes"
        }
      ],
      "name": "mint",
      "outputs": [
        {
          "internalType": "uint256",
          "name": "",
          "type": "uint256"
        }
      ],
      "stateMutability": "nonpayable",
      "type": "function"
    },
    {
      "inputs": [],
      "name": "name",
      "outputs": [
        {
          "internalType": "string",
          "name": "",
          "type": "string"
        }
      ],
      "stateMutability": "view",
      "type": "function"
    },
    {
      "inputs": [
        {
          "internalType": "address",
          "name": "owner",
          "type": "address"
        }
      ],
      "name": "nonces",
      "outputs": [
        {
          "internalType": "uint256",
          "name": "",
          "type": "uint256"
        }
      ],
      "stateMutability": "view",
      "type": "function"
    },
    {
      "inputs": [
        {
          "internalType": "address",
          "name": "owner",
          "type": "address"
        },
        {
          "internalType": "address",
          "name": "spender",
          "type": "address"
        },
        {
          "internalType": "uint256",
          "name": "value",
          "type": "uint256"
        },
        {
          "internalType": "uint256",
          "name": "deadline",
          "type": "uint256"
        },
        {
          "internalType": "uint8",
          "name": "v",
          "type": "uint8"
        },
        {
          "internalType": "bytes32",
          "name": "r",
          "type": "bytes32"
        },
        {
          "internalType": "bytes32",
          "name": "s_",
          "type": "bytes32"
        }
      ],
      "name": "permit",
      "outputs": [],
      "stateMutability": "nonpayable",
      "type": "function"
    },
    {
      "inputs": [
        {
          "internalType": "uint256",
          "name": "assets_",
          "type": "uint256"
        }
      ],
      "name": "previewMint",
      "outputs": [
        {
          "internalType": "uint256",
          "name": "",
          "type": "uint256"
        }
      ],
      "stateMutability": "view",
      "type": "function"
    },
    {
      "inputs": [
        {
          "internalType": "uint256",
          "name": "shares_",
          "type": "uint256"
        }
      ],
      "name": "previewRedeem",
      "outputs": [
        {
          "internalType": "uint256",
          "name": "",
          "type": "uint256"
        }
      ],
      "stateMutability": "view",
      "type": "function"
    },
    {
      "inputs": [
        {
          "internalType": "uint256",
          "name": "assets",
          "type": "uint256"
        }
      ],
      "name": "previewWithdraw",
      "outputs": [
        {
          "internalType": "uint256",
          "name": "",
          "type": "uint256"
        }
      ],
      "stateMutability": "view",
      "type": "function"
    },
    {
      "inputs": [
        {
          "internalType": "bytes",
          "name": "data_",
          "type": "bytes"
        }
      ],
      "name": "redeem",
      "outputs": [
        {
          "internalType": "uint256",
          "name": "",
          "type": "uint256"
        }
      ],
      "stateMutability": "nonpayable",
      "type": "function"
    },
    {
      "inputs": [
        {
          "internalType": "address",
          "name": "account_",
          "type": "address"
        }
      ],
      "name": "sharesOf",
      "outputs": [
        {
          "internalType": "uint256",
          "name": "",
          "type": "uint256"
        }
      ],
      "stateMutability": "view",
      "type": "function"
    },
    {
      "inputs": [],
      "name": "symbol",
      "outputs": [
        {
          "internalType": "string",
          "name": "",
          "type": "string"
        }
      ],
      "stateMutability": "view",
      "type": "function"
    },
    {
      "inputs": [],
      "name": "totalAssets",
      "outputs": [
        {
          "internalType": "uint256",
          "name": "",
          "type": "uint256"
        }
      ],
      "stateMutability": "view",
      "type": "function"
    },
    {
      "inputs": [],
      "name": "totalShares",
      "outputs": [
        {
          "internalType": "uint256",
          "name": "",
          "type": "uint256"
        }
      ],
      "stateMutability": "view",
      "type": "function"
    },
    {
      "inputs": [],
      "name": "totalSupply",
      "outputs": [
        {
          "internalType": "uint256",
          "name": "",
          "type": "uint256"
        }
      ],
      "stateMutability": "view",
      "type": "function"
    },
    {
      "inputs": [
        {
          "internalType": "address",
          "name": "to",
          "type": "address"
        },
        {
          "internalType": "uint256",
          "name": "amount",
          "type": "uint256"
        }
      ],
      "name": "transfer",
      "outputs": [
        {
          "internalType": "bool",
          "name": "",
          "type": "bool"
        }
      ],
      "stateMutability": "nonpayable",
      "type": "function"
    },
    {
      "inputs": [
        {
          "internalType": "address",
          "name": "from",
          "type": "address"
        },
        {
          "internalType": "address",
          "name": "to",
          "type": "address"
        },
        {
          "internalType": "uint256",
          "name": "amount",
          "type": "uint256"
        }
      ],
      "name": "transferFrom",
      "outputs": [
        {
          "internalType": "bool",
          "name": "",
          "type": "bool"
        }
      ],
      "stateMutability": "nonpayable",
      "type": "function"
    }
  ],
  "bytecode": {
    "object": "0x608060405234801561001057600080fd5b5061001961001e565b6100de565b600054610100900460ff161561008a5760405162461bcd60e51b815260206004820152602760248201527f496e697469616c697a61626c653a20636f6e747261637420697320696e697469604482015266616c697a696e6760c81b606482015260840160405180910390fd5b60005460ff90811610156100dc576000805460ff191660ff9081179091556040519081527f7f26b83ff96e1f2b6a682f133852f6798a09c465da95921460cefb38474024989060200160405180910390a15b565b611bf0806100ed6000396000f3fe608060405234801561001057600080fd5b50600436106101c45760003560e01c80634cdad506116100f9578063a457c2d711610097578063c6e6f59211610071578063c6e6f5921461022f578063d505accf1461037b578063dd62ed3e1461038e578063f5eb42dc146103a157600080fd5b8063a457c2d714610342578063a9059cbb14610355578063b3d7f6b91461036857600080fd5b80637ecebe00116100d35780637ecebe001461030b57806395d89b411461031e5780639945e3d314610326578063a01c87741461033957600080fd5b80634cdad506146102d257806370a08231146102e55780637ba0e2e7146102f857600080fd5b80632016a0d2116101665780633644e515116101405780633644e5151461029457806338d52e0f1461029c57806339509351146102b75780633a98ef39146102ca57600080fd5b80632016a0d21461025d57806323b872dd14610272578063313ce5671461028557600080fd5b8063095ea7b3116101a2578063095ea7b31461020c5780630a28a4771461022f57806318160ddd146102425780631dc7f5211461024a57600080fd5b806301e1d114146101c957806306fdde03146101e457806307a2d13a146101f9575b600080fd5b6101d16103ca565b6040519081526020015b60405180910390f35b6101ec6103df565b6040516101db9190611566565b6101d1610207366004611579565b610471565b61021f61021a3660046115a7565b610482565b60405190151581526020016101db565b6101d161023d366004611579565b610498565b6101d16104a3565b6101d1610258366004611579565b6104c8565b61027061026b36600461167f565b610558565b005b61021f610280366004611708565b61075b565b604051601281526020016101db565b6101d161077d565b6036546040516001600160a01b0390911681526020016101db565b61021f6102c53660046115a7565b610787565b6101d16107a8565b6101d16102e0366004611579565b6107b9565b6101d16102f3366004611749565b6107c4565b6101d1610306366004611766565b6107e6565b6101d1610319366004611749565b610909565b6101ec610927565b6101d1610334366004611766565b610936565b6101d1603d5481565b61021f6103503660046115a7565b610a8b565b61021f6103633660046115a7565b610ac8565b6101d1610376366004611579565b610ad5565b6102706103893660046117c6565b610ae0565b6101d161039c366004611837565b610c02565b6101d16103af366004611749565b6001600160a01b031660009081526038602052604090205490565b6037546000906103da9082610c2d565b905090565b6060603b80546103ee90611870565b80601f016020809104026020016040519081016040528092919081815260200182805461041a90611870565b80156104675780601f1061043c57610100808354040283529160200191610467565b820191906000526020600020905b81548152906001019060200180831161044a57829003601f168201915b5050505050905090565b600061047c82610c63565b92915050565b600061048f338484610d0f565b50600192915050565b600061047c82610dbe565b60006104ad6107a8565b156104c2576103da6104bd6107a8565b610c63565b50600090565b60006104d26107a8565b60355460405163a4fc284b60e01b81526001600160a01b039091169063a4fc284b90610503906001906004016118ba565b602060405180830381865afa158015610520573d6000803e3d6000fd5b505050506040513d601f19601f8201168201806040525081019061054491906118e2565b61054e9084611911565b61047c9190611928565b600054610100900460ff16158080156105785750600054600160ff909116105b806105925750303b158015610592575060005460ff166001145b6105fa5760405162461bcd60e51b815260206004820152602e60248201527f496e697469616c697a61626c653a20636f6e747261637420697320616c72656160448201526d191e481a5b9a5d1a585b1a5e995960921b60648201526084015b60405180910390fd5b6000805460ff19166001179055801561061d576000805461ff0019166101001790555b603b6106298482611999565b50603c6106368382611999565b50603580546001600160a01b038087166001600160a01b03199283161790925560368054928816929091169190911790556040805180820190915260018152603160f81b602082015261068a908490610e4a565b846001600160a01b031663313ce5676040518163ffffffff1660e01b8152600401602060405180830381865afa1580156106c8573d6000803e3d6000fd5b505050506040513d601f19601f820116820180604052508101906106ec9190611a59565b60ff166012146106fd576001610704565b64e8d4a510005b64ffffffffff16603d558015610754576000805461ff0019169055604051600181527f7f26b83ff96e1f2b6a682f133852f6798a09c465da95921460cefb38474024989060200160405180910390a15b5050505050565b6000610768843384610e7f565b610773848484610ecd565b5060019392505050565b60006103da610feb565b600061048f3384846107993388610c02565b6107a39190611a76565b610d0f565b6037546000906103da906001610c2d565b600061047c82611066565b6001600160a01b03811660009081526038602052604081205461047c90610471565b6000806000838060200190518101906107ff9190611a89565b603d548251929450909250600091610816916110f2565b6035549091506001600160a01b031663b50f68fd61083c6036546001600160a01b031690565b604080516001600160e01b031960e085901b1681526001600160a01b0390921660048301523360248301528651604483015260208701516064830152860151608482015260a401600060405180830381600087803b15801561089d57600080fd5b505af11580156108b1573d6000803e3d6000fd5b5050505060006108bf6107a8565b156108d2576108cd82610ad5565b6108d4565b815b90506108e2828260016110fe565b6001600160a01b039092166000908152603860205260409020805483019055509392505050565b6001600160a01b03811660009081526039602052604081205461047c565b6060603c80546103ee90611870565b6000808280602001905181019061094d9190611afe565b5050505090506000610974336001600160a01b031660009081526038602052604090205490565b9050600061098183610498565b9050808210156109b457604051637ac073bf60e01b815233600482015260248101839052604481018290526064016105f1565b60006109bf826107b9565b6035546040516314370d6760e31b81529192506000916001600160a01b039091169063a1b86b38906109f79033908b90600401611b4b565b6020604051808303816000875af1158015610a16573d6000803e3d6000fd5b505050506040513d601f19601f82011682018060405250810190610a3a91906118e2565b6035546001600160a01b03166000908152603860205260409020549091509350610a66828560006110fe565b6035546001600160a01b03166000908152603860205260408120559695505050505050565b600080610a983385610c02565b905082811015610abb576040516361ceb1d360e01b815260040160405180910390fd5b6107733385858403610d0f565b600061048f338484610ecd565b600061047c82611142565b83421115610b0a5760405163184f1e0160e11b8152600481018590524260248201526044016105f1565b60007f6e71edae12b1b97f4d1f60370fef10105fa2faae0126114a169c64845d6126c9888888610b398c611157565b6040805160208101969096526001600160a01b0394851690860152929091166060840152608083015260a082015260c0810186905260e0016040516020818303038152906040528051906020012090506000610b948261117f565b90506000610ba4828787876111cd565b9050896001600160a01b0316816001600160a01b031614610beb57604051635091bef560e01b81526001600160a01b03808c1660048301528a1660248201526044016105f1565b610bf68a8a8a610d0f565b50505050505050505050565b6001600160a01b039182166000908152603a6020908152604080832093909416825291909152205490565b600080826001811115610c4257610c426118a4565b14610c56576001600160801b038316610c5c565b608083901c5b9392505050565b600061047c610c706107a8565b15610c8257610c7d6107a8565b610c85565b60015b603560009054906101000a90046001600160a01b03166001600160a01b03166345089e296040518163ffffffff1660e01b8152600401602060405180830381865afa158015610cd8573d6000803e3d6000fd5b505050506040513d601f19601f82011682018060405250810190610cfc91906118e2565b610d069190611928565b839060016111f5565b6001600160a01b0383161580610d2c57506001600160a01b038216155b15610d5d57604051637db368a160e01b81526001600160a01b038085166004830152831660248201526044016105f1565b6001600160a01b038381166000818152603a602090815260408083209487168084529482529182902085905590518481527f8c5be1e5ebec7d5bd14f71427d1e84f3dd0314c0f7b2291e5b200ac8c7c3b925910160405180910390a3505050565b600061047c610dcb6107a8565b603560009054906101000a90046001600160a01b03166001600160a01b03166345089e296040518163ffffffff1660e01b8152600401602060405180830381865afa158015610e1e573d6000803e3d6000fd5b505050506040513d601f19601f82011682018060405250810190610e4291906118e2565b849190611213565b600054610100900460ff16610e715760405162461bcd60e51b81526004016105f190611b6f565b610e7b8282611239565b5050565b6000610e8b8484610c02565b90506000198114610ec75781811015610eba576040516306052b7f60e01b8152600481018390526024016105f1565b610ec78484848403610d0f565b50505050565b6001600160a01b0383161580610eea57506001600160a01b038216155b15610f1b57604051637db368a160e01b81526001600160a01b038085166004830152831660248201526044016105f1565b6000610f2682610498565b6001600160a01b03851660009081526038602052604090205490915081811015610f7c576040516315c29bad60e31b81526001600160a01b038616600482015260248101829052604481018390526064016105f1565b6001600160a01b0380861660008181526038602052604080822086860390559287168082529083902080548601905591517fddf252ad1be2c89b69c2b068fc378daa952ba7f163c4a11628f55a4df523b3ef90610fdc9087815260200190565b60405180910390a35050505050565b60006103da7f8b73c3c69bb8fe3d512ecc4cf759cc79239f7b179b0ffacaa9a75d522b39400f61101a60015490565b6002546040805160208101859052908101839052606081018290524660808201523060a082015260009060c0016040516020818303038152906040528051906020012090509392505050565b600061047c603560009054906101000a90046001600160a01b03166001600160a01b03166345089e296040518163ffffffff1660e01b8152600401602060405180830381865afa1580156110be573d6000803e3d6000fd5b505050506040513d601f19601f820116820180604052508101906110e291906118e2565b6110ea6104a3565b8491906111f5565b6000610c5c8284611928565b603754608081901c906001600160801b031682156111215790840190830161112a565b90849003908390035b61113882608083901b611a76565b6037555050505050565b600061047c61114f6107a8565b6110ea6103ca565b6001600160a01b03811660009081526039602052604090208054600181018255905b50919050565b600061047c61118c610feb565b8360405161190160f01b6020820152602281018390526042810182905260009060620160405160208183030381529060405280519060200120905092915050565b60008060006111de8787878761127a565b915091506111eb81611367565b5095945050505050565b600082600019048411830215820261120c57600080fd5b5091020490565b600082600019048411830215820261122a57600080fd5b50910281810615159190040190565b600054610100900460ff166112605760405162461bcd60e51b81526004016105f190611b6f565b815160209283012081519190920120600191909155600255565b6000807f7fffffffffffffffffffffffffffffff5d576e7357a4501ddfe92f46681b20a08311156112b1575060009050600361135e565b8460ff16601b141580156112c957508460ff16601c14155b156112da575060009050600461135e565b6040805160008082526020820180845289905260ff881692820192909252606081018690526080810185905260019060a0016020604051602081039080840390855afa15801561132e573d6000803e3d6000fd5b5050604051601f1901519150506001600160a01b0381166113575760006001925092505061135e565b9150600090505b94509492505050565b600081600481111561137b5761137b6118a4565b036113835750565b6001816004811115611397576113976118a4565b036113e45760405162461bcd60e51b815260206004820152601860248201527f45434453413a20696e76616c6964207369676e6174757265000000000000000060448201526064016105f1565b60028160048111156113f8576113f86118a4565b036114455760405162461bcd60e51b815260206004820152601f60248201527f45434453413a20696e76616c6964207369676e6174757265206c656e6774680060448201526064016105f1565b6003816004811115611459576114596118a4565b036114b15760405162461bcd60e51b815260206004820152602260248201527f45434453413a20696e76616c6964207369676e6174757265202773272076616c604482015261756560f01b60648201526084016105f1565b60048160048111156114c5576114c56118a4565b0361151d5760405162461bcd60e51b815260206004820152602260248201527f45434453413a20696e76616c6964207369676e6174757265202776272076616c604482015261756560f01b60648201526084016105f1565b50565b6000815180845260005b818110156115465760208185018101518683018201520161152a565b506000602082860101526020601f19601f83011685010191505092915050565b602081526000610c5c6020830184611520565b60006020828403121561158b57600080fd5b5035919050565b6001600160a01b038116811461151d57600080fd5b600080604083850312156115ba57600080fd5b82356115c581611592565b946020939093013593505050565b634e487b7160e01b600052604160045260246000fd5b600067ffffffffffffffff80841115611604576116046115d3565b604051601f8501601f19908116603f0116810190828211818310171561162c5761162c6115d3565b8160405280935085815286868601111561164557600080fd5b858560208301376000602087830101525050509392505050565b600082601f83011261167057600080fd5b610c5c838335602085016115e9565b6000806000806080858703121561169557600080fd5b84356116a081611592565b935060208501356116b081611592565b9250604085013567ffffffffffffffff808211156116cd57600080fd5b6116d98883890161165f565b935060608701359150808211156116ef57600080fd5b506116fc8782880161165f565b91505092959194509250565b60008060006060848603121561171d57600080fd5b833561172881611592565b9250602084013561173881611592565b929592945050506040919091013590565b60006020828403121561175b57600080fd5b8135610c5c81611592565b60006020828403121561177857600080fd5b813567ffffffffffffffff81111561178f57600080fd5b8201601f810184136117a057600080fd5b6117af848235602084016115e9565b949350505050565b60ff8116811461151d57600080fd5b600080600080600080600060e0888a0312156117e157600080fd5b87356117ec81611592565b965060208801356117fc81611592565b95506040880135945060608801359350608088013561181a816117b7565b9699959850939692959460a0840135945060c09093013592915050565b6000806040838503121561184a57600080fd5b823561185581611592565b9150602083013561186581611592565b809150509250929050565b600181811c9082168061188457607f821691505b60208210810361117957634e487b7160e01b600052602260045260246000fd5b634e487b7160e01b600052602160045260246000fd5b60208101600283106118dc57634e487b7160e01b600052602160045260246000fd5b91905290565b6000602082840312156118f457600080fd5b5051919050565b634e487b7160e01b600052601160045260246000fd5b808202811582820484141761047c5761047c6118fb565b60008261194557634e487b7160e01b600052601260045260246000fd5b500490565b601f82111561199457600081815260208120601f850160051c810160208610156119715750805b601f850160051c820191505b818110156119905782815560010161197d565b5050505b505050565b815167ffffffffffffffff8111156119b3576119b36115d3565b6119c7816119c18454611870565b8461194a565b602080601f8311600181146119fc57600084156119e45750858301515b600019600386901b1c1916600185901b178555611990565b600085815260208120601f198616915b82811015611a2b57888601518255948401946001909101908401611a0c565b5085821015611a495787850151600019600388901b60f8161c191681555b5050505050600190811b01905550565b600060208284031215611a6b57600080fd5b8151610c5c816117b7565b8082018082111561047c5761047c6118fb565b6000808284036080811215611a9d57600080fd5b6060811215611aab57600080fd5b506040516060810181811067ffffffffffffffff82111715611acf57611acf6115d3565b806040525083518152602084015160208201526040840151604082015280925050606083015161186581611592565b600080600080600060a08688031215611b1657600080fd5b855194506020860151935060408601519250606086015191506080860151611b3d81611592565b809150509295509295909350565b6001600160a01b03831681526040602082018190526000906117af90830184611520565b6020808252602b908201527f496e697469616c697a61626c653a20636f6e7472616374206973206e6f74206960408201526a6e697469616c697a696e6760a81b60608201526080019056fea2646970667358221220356d0cc6dc8b0e969659cd5cb505e402c0fdac0a3effad46dc55495d6a552b5464736f6c63430008150033",
    "linkReferences": {}
  },
  "methodIdentifiers": {
    "DOMAIN_SEPARATOR()": "3644e515",
    "FORMAT_DECIMALS()": "a01c8774",
    "allowance(address,address)": "dd62ed3e",
    "approve(address,uint256)": "095ea7b3",
    "asset()": "38d52e0f",
    "balanceOf(address)": "70a08231",
    "convertToAssets(uint256)": "07a2d13a",
    "convertToShares(uint256)": "c6e6f592",
    "convertToUnderlying(uint256)": "1dc7f521",
    "decimals()": "313ce567",
    "decreaseAllowance(address,uint256)": "a457c2d7",
    "increaseAllowance(address,uint256)": "39509351",
    "initialize(address,address,string,string)": "2016a0d2",
    "mint(bytes)": "7ba0e2e7",
    "name()": "06fdde03",
    "nonces(address)": "7ecebe00",
    "permit(address,address,uint256,uint256,uint8,bytes32,bytes32)": "d505accf",
    "previewMint(uint256)": "b3d7f6b9",
    "previewRedeem(uint256)": "4cdad506",
    "previewWithdraw(uint256)": "0a28a477",
    "redeem(bytes)": "9945e3d3",
    "sharesOf(address)": "f5eb42dc",
    "symbol()": "95d89b41",
    "totalAssets()": "01e1d114",
    "totalShares()": "3a98ef39",
    "totalSupply()": "18160ddd",
    "transfer(address,uint256)": "a9059cbb",
    "transferFrom(address,address,uint256)": "23b872dd"
  },
  "id": 27
}