{
  "abi": [
    {
      "inputs": [],
      "stateMutability": "nonpayable",
      "type": "constructor"
    },
    {
      "inputs": [],
      "name": "OZError03",
      "type": "error"
    },
    {
      "inputs": [
        {
          "internalType": "address",
          "name": "from",
          "type": "address"
        },
        {
          "internalType": "address",
          "name": "to",
          "type": "address"
        }
      ],
      "name": "OZError04",
      "type": "error"
    },
    {
      "inputs": [
        {
          "internalType": "uint256",
          "name": "amount",
          "type": "uint256"
        }
      ],
      "name": "OZError05",
      "type": "error"
    },
    {
      "inputs": [
        {
          "internalType": "address",
          "name": "sender",
          "type": "address"
        },
        {
          "internalType": "uint256",
          "name": "accountShares",
          "type": "uint256"
        },
        {
          "internalType": "uint256",
          "name": "shares",
          "type": "uint256"
        }
      ],
      "name": "OZError06",
      "type": "error"
    },
    {
      "inputs": [
        {
          "internalType": "address",
          "name": "from",
          "type": "address"
        },
        {
          "internalType": "uint256",
          "name": "fromShares",
          "type": "uint256"
        },
        {
          "internalType": "uint256",
          "name": "shares",
          "type": "uint256"
        }
      ],
      "name": "OZError07",
      "type": "error"
    },
    {
      "inputs": [
        {
          "internalType": "uint256",
          "name": "deadline",
          "type": "uint256"
        },
        {
          "internalType": "uint256",
          "name": "blockTimestamp",
          "type": "uint256"
        }
      ],
      "name": "OZError08",
      "type": "error"
    },
    {
      "inputs": [
        {
          "internalType": "address",
          "name": "owner",
          "type": "address"
        },
        {
          "internalType": "address",
          "name": "spender",
          "type": "address"
        }
      ],
      "name": "OZError09",
      "type": "error"
    },
    {
      "anonymous": false,
      "inputs": [
        {
          "indexed": true,
          "internalType": "address",
          "name": "owner",
          "type": "address"
        },
        {
          "indexed": true,
          "internalType": "address",
          "name": "spender",
          "type": "address"
        },
        {
          "indexed": false,
          "internalType": "uint256",
          "name": "value",
          "type": "uint256"
        }
      ],
      "name": "Approval",
      "type": "event"
    },
    {
      "anonymous": false,
      "inputs": [
        {
          "indexed": false,
          "internalType": "uint8",
          "name": "version",
          "type": "uint8"
        }
      ],
      "name": "Initialized",
      "type": "event"
    },
    {
      "anonymous": false,
      "inputs": [
        {
          "indexed": true,
          "internalType": "address",
          "name": "from",
          "type": "address"
        },
        {
          "indexed": true,
          "internalType": "address",
          "name": "to",
          "type": "address"
        },
        {
          "indexed": false,
          "internalType": "uint256",
          "name": "value",
          "type": "uint256"
        }
      ],
      "name": "Transfer",
      "type": "event"
    },
    {
      "inputs": [],
      "name": "DOMAIN_SEPARATOR",
      "outputs": [
        {
          "internalType": "bytes32",
          "name": "",
          "type": "bytes32"
        }
      ],
      "stateMutability": "view",
      "type": "function"
    },
    {
      "inputs": [],
      "name": "FORMAT_DECIMALS",
      "outputs": [
        {
          "internalType": "uint256",
          "name": "",
          "type": "uint256"
        }
      ],
      "stateMutability": "view",
      "type": "function"
    },
    {
      "inputs": [
        {
          "internalType": "address",
          "name": "owner",
          "type": "address"
        },
        {
          "internalType": "address",
          "name": "spender",
          "type": "address"
        }
      ],
      "name": "allowance",
      "outputs": [
        {
          "internalType": "uint256",
          "name": "",
          "type": "uint256"
        }
      ],
      "stateMutability": "view",
      "type": "function"
    },
    {
      "inputs": [
        {
          "internalType": "address",
          "name": "spender",
          "type": "address"
        },
        {
          "internalType": "uint256",
          "name": "amount",
          "type": "uint256"
        }
      ],
      "name": "approve",
      "outputs": [
        {
          "internalType": "bool",
          "name": "",
          "type": "bool"
        }
      ],
      "stateMutability": "nonpayable",
      "type": "function"
    },
    {
      "inputs": [],
      "name": "asset",
      "outputs": [
        {
          "internalType": "address",
          "name": "",
          "type": "address"
        }
      ],
      "stateMutability": "view",
      "type": "function"
    },
    {
      "inputs": [
        {
          "internalType": "address",
          "name": "account_",
          "type": "address"
        }
      ],
      "name": "balanceOf",
      "outputs": [
        {
          "internalType": "uint256",
          "name": "",
          "type": "uint256"
        }
      ],
      "stateMutability": "view",
      "type": "function"
    },
    {
      "inputs": [],
      "name": "claimReward",
      "outputs": [
        {
          "internalType": "uint256",
          "name": "",
          "type": "uint256"
        }
      ],
      "stateMutability": "nonpayable",
      "type": "function"
    },
    {
      "inputs": [
        {
          "internalType": "uint256",
          "name": "shares",
          "type": "uint256"
        }
      ],
      "name": "convertToAssets",
      "outputs": [
        {
          "internalType": "uint256",
          "name": "assets",
          "type": "uint256"
        }
      ],
      "stateMutability": "view",
      "type": "function"
    },
    {
      "inputs": [
        {
          "internalType": "uint256",
          "name": "assets",
          "type": "uint256"
        }
      ],
      "name": "convertToShares",
      "outputs": [
        {
          "internalType": "uint256",
          "name": "shares",
          "type": "uint256"
        }
      ],
      "stateMutability": "view",
      "type": "function"
    },
    {
      "inputs": [
        {
          "internalType": "uint256",
          "name": "shares_",
          "type": "uint256"
        }
      ],
      "name": "convertToUnderlying",
      "outputs": [
        {
          "internalType": "uint256",
          "name": "amountUnderlying",
          "type": "uint256"
        }
      ],
      "stateMutability": "view",
      "type": "function"
    },
    {
      "inputs": [],
      "name": "decimals",
      "outputs": [
        {
          "internalType": "uint8",
          "name": "",
          "type": "uint8"
        }
      ],
      "stateMutability": "pure",
      "type": "function"
    },
    {
      "inputs": [
        {
          "internalType": "address",
          "name": "spender",
          "type": "address"
        },
        {
          "internalType": "uint256",
          "name": "subtractedValue",
          "type": "uint256"
        }
      ],
      "name": "decreaseAllowance",
      "outputs": [
        {
          "internalType": "bool",
          "name": "",
          "type": "bool"
        }
      ],
      "stateMutability": "nonpayable",
      "type": "function"
    },
    {
      "inputs": [
        {
          "internalType": "address",
          "name": "user_",
          "type": "address"
        }
      ],
      "name": "earned",
      "outputs": [
        {
          "internalType": "uint256",
          "name": "",
          "type": "uint256"
        }
      ],
      "stateMutability": "view",
      "type": "function"
    },
    {
      "inputs": [],
      "name": "getRewardsData",
      "outputs": [
        {
          "internalType": "uint256",
          "name": "rewardRate",
          "type": "uint256"
        },
        {
          "internalType": "uint256",
          "name": "circulatingSupply",
          "type": "uint256"
        },
        {
          "internalType": "uint256",
          "name": "pendingAllocation",
          "type": "uint256"
        },
        {
          "internalType": "uint256",
          "name": "recicledSupply",
          "type": "uint256"
        },
        {
          "internalType": "int256",
          "name": "durationLeft",
          "type": "int256"
        }
      ],
      "stateMutability": "view",
      "type": "function"
    },
    {
      "inputs": [
        {
          "internalType": "address",
          "name": "spender",
          "type": "address"
        },
        {
          "internalType": "uint256",
          "name": "addedValue",
          "type": "uint256"
        }
      ],
      "name": "increaseAllowance",
      "outputs": [
        {
          "internalType": "bool",
          "name": "",
          "type": "bool"
        }
      ],
      "stateMutability": "nonpayable",
      "type": "function"
    },
    {
      "inputs": [
        {
          "internalType": "address",
          "name": "underlying_",
          "type": "address"
        },
        {
          "internalType": "address",
          "name": "diamond_",
          "type": "address"
        },
        {
          "internalType": "string",
          "name": "name_",
          "type": "string"
        },
        {
          "internalType": "string",
          "name": "symbol_",
          "type": "string"
        }
      ],
      "name": "initialize",
      "outputs": [],
      "stateMutability": "nonpayable",
      "type": "function"
    },
    {
      "inputs": [],
      "name": "lastTimeRewardApplicable",
      "outputs": [
        {
          "internalType": "uint256",
          "name": "",
          "type": "uint256"
        }
      ],
      "stateMutability": "view",
      "type": "function"
    },
    {
      "inputs": [
        {
          "internalType": "bytes",
          "name": "data_",
          "type": "bytes"
        }
      ],
      "name": "mint",
      "outputs": [
        {
          "internalType": "uint256",
          "name": "",
          "type": "uint256"
        }
      ],
      "stateMutability": "nonpayable",
      "type": "function"
    },
    {
      "inputs": [],
      "name": "name",
      "outputs": [
        {
          "internalType": "string",
          "name": "",
          "type": "string"
        }
      ],
      "stateMutability": "view",
      "type": "function"
    },
    {
      "inputs": [
        {
          "internalType": "address",
          "name": "owner",
          "type": "address"
        }
      ],
      "name": "nonces",
      "outputs": [
        {
          "internalType": "uint256",
          "name": "",
          "type": "uint256"
        }
      ],
      "stateMutability": "view",
      "type": "function"
    },
    {
      "inputs": [
        {
          "internalType": "uint256",
          "name": "amount_",
          "type": "uint256"
        }
      ],
      "name": "notifyRewardAmount",
      "outputs": [],
      "stateMutability": "nonpayable",
      "type": "function"
    },
    {
      "inputs": [
        {
          "internalType": "address",
          "name": "owner",
          "type": "address"
        },
        {
          "internalType": "address",
          "name": "spender",
          "type": "address"
        },
        {
          "internalType": "uint256",
          "name": "value",
          "type": "uint256"
        },
        {
          "internalType": "uint256",
          "name": "deadline",
          "type": "uint256"
        },
        {
          "internalType": "uint8",
          "name": "v",
          "type": "uint8"
        },
        {
          "internalType": "bytes32",
          "name": "r",
          "type": "bytes32"
        },
        {
          "internalType": "bytes32",
          "name": "s_",
          "type": "bytes32"
        }
      ],
      "name": "permit",
      "outputs": [],
      "stateMutability": "nonpayable",
      "type": "function"
    },
    {
      "inputs": [
        {
          "internalType": "uint256",
          "name": "assets_",
          "type": "uint256"
        }
      ],
      "name": "previewMint",
      "outputs": [
        {
          "internalType": "uint256",
          "name": "",
          "type": "uint256"
        }
      ],
      "stateMutability": "view",
      "type": "function"
    },
    {
      "inputs": [
        {
          "internalType": "uint256",
          "name": "shares_",
          "type": "uint256"
        }
      ],
      "name": "previewRedeem",
      "outputs": [
        {
          "internalType": "uint256",
          "name": "",
          "type": "uint256"
        }
      ],
      "stateMutability": "view",
      "type": "function"
    },
    {
      "inputs": [
        {
          "internalType": "uint256",
          "name": "assets",
          "type": "uint256"
        }
      ],
      "name": "previewWithdraw",
      "outputs": [
        {
          "internalType": "uint256",
          "name": "",
          "type": "uint256"
        }
      ],
      "stateMutability": "view",
      "type": "function"
    },
    {
      "inputs": [
        {
          "internalType": "bytes",
          "name": "data_",
          "type": "bytes"
        }
      ],
      "name": "redeem",
      "outputs": [
        {
          "internalType": "uint256",
          "name": "",
          "type": "uint256"
        }
      ],
      "stateMutability": "nonpayable",
      "type": "function"
    },
    {
      "inputs": [],
      "name": "rewardPerToken",
      "outputs": [
        {
          "internalType": "uint256",
          "name": "",
          "type": "uint256"
        }
      ],
      "stateMutability": "view",
      "type": "function"
    },
    {
      "inputs": [
        {
          "internalType": "uint256",
          "name": "duration_",
          "type": "uint256"
        }
      ],
      "name": "setRewardsDuration",
      "outputs": [],
      "stateMutability": "nonpayable",
      "type": "function"
    },
    {
      "inputs": [
        {
          "internalType": "address",
          "name": "account_",
          "type": "address"
        }
      ],
      "name": "sharesOf",
      "outputs": [
        {
          "internalType": "uint256",
          "name": "",
          "type": "uint256"
        }
      ],
      "stateMutability": "view",
      "type": "function"
    },
    {
      "inputs": [],
      "name": "symbol",
      "outputs": [
        {
          "internalType": "string",
          "name": "",
          "type": "string"
        }
      ],
      "stateMutability": "view",
      "type": "function"
    },
    {
      "inputs": [],
      "name": "totalAssets",
      "outputs": [
        {
          "internalType": "uint256",
          "name": "",
          "type": "uint256"
        }
      ],
      "stateMutability": "view",
      "type": "function"
    },
    {
      "inputs": [],
      "name": "totalShares",
      "outputs": [
        {
          "internalType": "uint256",
          "name": "",
          "type": "uint256"
        }
      ],
      "stateMutability": "view",
      "type": "function"
    },
    {
      "inputs": [],
      "name": "totalSupply",
      "outputs": [
        {
          "internalType": "uint256",
          "name": "",
          "type": "uint256"
        }
      ],
      "stateMutability": "view",
      "type": "function"
    },
    {
      "inputs": [
        {
          "internalType": "address",
          "name": "to",
          "type": "address"
        },
        {
          "internalType": "uint256",
          "name": "amount",
          "type": "uint256"
        }
      ],
      "name": "transfer",
      "outputs": [
        {
          "internalType": "bool",
          "name": "",
          "type": "bool"
        }
      ],
      "stateMutability": "nonpayable",
      "type": "function"
    },
    {
      "inputs": [
        {
          "internalType": "address",
          "name": "from",
          "type": "address"
        },
        {
          "internalType": "address",
          "name": "to",
          "type": "address"
        },
        {
          "internalType": "uint256",
          "name": "amount",
          "type": "uint256"
        }
      ],
      "name": "transferFrom",
      "outputs": [
        {
          "internalType": "bool",
          "name": "",
          "type": "bool"
        }
      ],
      "stateMutability": "nonpayable",
      "type": "function"
    }
  ],
  "bytecode": {
    "object": "0x608060405234801561001057600080fd5b5061001961001e565b6100de565b602454610100900460ff161561008a5760405162461bcd60e51b815260206004820152602760248201527f496e697469616c697a61626c653a20636f6e747261637420697320696e697469604482015266616c697a696e6760c81b606482015260840160405180910390fd5b60245460ff90811610156100dc576024805460ff191660ff9081179091556040519081527f7f26b83ff96e1f2b6a682f133852f6798a09c465da95921460cefb38474024989060200160405180910390a15b565b612038806100ed6000396000f3fe608060405234801561001057600080fd5b50600436106102105760003560e01c806370a0823111610125578063a9059cbb116100ad578063cc1a378f1161007c578063cc1a378f14610332578063cd3daf9d146103bc578063d505accf14610420578063dd62ed3e14610433578063f5eb42dc1461044657600080fd5b8063a9059cbb146103fa578063b3d7f6b91461040d578063b88a802f146103bc578063c6e6f5921461028f57600080fd5b806380faa57d116100f457806380faa57d146103bc57806395d89b41146103c35780639945e3d3146103cb578063a01c8774146103de578063a457c2d7146103e757600080fd5b806370a08231146103565780637ba0e2e7146103695780637d098e641461037c5780637ecebe00146103a957600080fd5b80632016a0d2116101a857806338d52e0f1161017757806338d52e0f146102fc57806339509351146103175780633a98ef391461032a5780633c6b16ab146103325780634cdad5061461034357600080fd5b80632016a0d2146102bd57806323b872dd146102d2578063313ce567146102e55780633644e515146102f457600080fd5b8063095ea7b3116101e4578063095ea7b31461026c5780630a28a4771461028f57806318160ddd146102a25780631dc7f521146102aa57600080fd5b80628cc2621461021557806301e1d1141461023c57806306fdde031461024457806307a2d13a14610259575b600080fd5b610229610223366004611820565b50600090565b6040519081526020015b60405180910390f35b61022961046f565b61024c610484565b6040516102339190611883565b610229610267366004611896565b610516565b61027f61027a3660046118af565b610527565b6040519015158152602001610233565b61022961029d366004611896565b61053d565b610229610548565b6102296102b8366004611896565b610567565b6102d06102cb3660046119c3565b6105f7565b005b61027f6102e0366004611a4c565b6107fa565b60405160128152602001610233565b61022961081c565b605a546040516001600160a01b039091168152602001610233565b61027f6103253660046118af565b610826565b610229610847565b6102d0610340366004611896565b50565b610229610351366004611896565b610858565b610229610364366004611820565b610863565b610229610377366004611a8d565b610885565b6040805160008082526020820181905291810182905260608101829052608081019190915260a001610233565b6102296103b7366004611820565b610abc565b6000610229565b61024c610ada565b6102296103d9366004611a8d565b610ae8565b61022960615481565b61027f6103f53660046118af565b610d69565b61027f6104083660046118af565b610da6565b61022961041b366004611896565b610db3565b6102d061042e366004611ae5565b610dbe565b610229610441366004611b56565b610ee0565b610229610454366004611820565b6001600160a01b03166000908152605c602052604090205490565b605b5460009061047f9082610f0b565b905090565b6060605f805461049390611b8f565b80601f01602080910402602001604051908101604052809291908181526020018280546104bf90611b8f565b801561050c5780601f106104e15761010080835404028352916020019161050c565b820191906000526020600020905b8154815290600101906020018083116104ef57829003601f168201915b5050505050905090565b600061052182610f4e565b92915050565b6000610534338484610fef565b50600192915050565b60006105218261109e565b6000610552610847565b156102235761047f610562610847565b610f4e565b6000610571610847565b60595460405163a4fc284b60e01b81526001600160a01b039091169063a4fc284b906105a290600190600401611bd9565b602060405180830381865afa1580156105bf573d6000803e3d6000fd5b505050506040513d601f19601f820116820180604052508101906105e39190611c01565b6105ed9084611c30565b6105219190611c47565b602454610100900460ff16158080156106175750602454600160ff909116105b806106315750303b158015610631575060245460ff166001145b6106995760405162461bcd60e51b815260206004820152602e60248201527f496e697469616c697a61626c653a20636f6e747261637420697320616c72656160448201526d191e481a5b9a5d1a585b1a5e995960921b60648201526084015b60405180910390fd5b6024805460ff1916600117905580156106bc576024805461ff0019166101001790555b605f6106c88482611cb8565b5060606106d58382611cb8565b50605980546001600160a01b038087166001600160a01b031992831617909255605a8054928816929091169190911790556040805180820190915260018152603160f81b6020820152610729908490611120565b846001600160a01b031663313ce5676040518163ffffffff1660e01b8152600401602060405180830381865afa158015610767573d6000803e3d6000fd5b505050506040513d601f19601f8201168201806040525081019061078b9190611d78565b60ff1660121461079c5760016107a3565b64e8d4a510005b64ffffffffff1660615580156107f3576024805461ff0019169055604051600181527f7f26b83ff96e1f2b6a682f133852f6798a09c465da95921460cefb38474024989060200160405180910390a15b5050505050565b6000610807843384611155565b6108128484846111a3565b5060019392505050565b600061047f6112c1565b60006105343384846108383388610ee0565b6108429190611d95565b610fef565b605b5460009061047f906001610f0b565b60006105218261133c565b6001600160a01b0381166000908152605c602052604081205461052190610516565b60595460009033906001600160a01b031680156108fb576040516241fec360e31b81526001600160a01b03838116600483015282169063020ff61890602401600060405180830381600087803b1580156108de57600080fd5b505af11580156108f2573d6000803e3d6000fd5b5050505061093d565b6000601c556000601a556001600160a01b0382161561093d576001600160a01b038216600090815260208080526040808320839055601c54601f909252909120555b600080858060200190518101906109549190611db8565b606154825192945090925060009161096b916113bf565b6059549091506000906001600160a01b0316639ea04fe4610994605a546001600160a01b031690565b33876040518463ffffffff1660e01b81526004016109b493929190611ea9565b6020604051808303816000875af11580156109d3573d6000803e3d6000fd5b505050506040513d601f19601f820116820180604052508101906109f79190611c01565b60595460405163b0ff97b560e01b815230600482015260248101839052600160448201529192506001600160a01b03169063b0ff97b590606401600060405180830381600087803b158015610a4b57600080fd5b505af1158015610a5f573d6000803e3d6000fd5b505050506000610a6d610847565b15610a8057610a7b83610db3565b610a82565b825b9050610a90838260016113d2565b6001600160a01b039093166000908152605c602052604090208054840190555090945050505050919050565b6001600160a01b0381166000908152605d6020526040812054610521565b606080805461049390611b8f565b60595460009033906001600160a01b03168015610b5e576040516241fec360e31b81526001600160a01b03838116600483015282169063020ff61890602401600060405180830381600087803b158015610b4157600080fd5b505af1158015610b55573d6000803e3d6000fd5b50505050610ba0565b6000601c556000601a556001600160a01b03821615610ba0576001600160a01b038216600090815260208080526040808320839055601c54601f909252909120555b600084806020019051810190610bb69190611f22565b5050505090506000610bdd336001600160a01b03166000908152605c602052604090205490565b90506000610bea8361053d565b905080821015610c1d57604051637ac073bf60e01b81523360048201526024810183905260448101829052606401610690565b6000610c2882610858565b6059546040516314370d6760e31b815291925060009182916001600160a01b03169063a1b86b3890610c609033908e90600401611f6f565b60408051808303816000875af1158015610c7e573d6000803e3d6000fd5b505050506040513d601f19601f82011682018060405250810190610ca29190611f93565b60595460405163b0ff97b560e01b815230600482015260248101849052600060448201529294509092506001600160a01b03169063b0ff97b590606401600060405180830381600087803b158015610cf957600080fd5b505af1158015610d0d573d6000803e3d6000fd5b50506059546001600160a01b03166000908152605c60205260409020549150610d339050565b9450610d41838660006113d2565b6059546001600160a01b03166000908152605c60205260408120559998505050505050505050565b600080610d763385610ee0565b905082811015610d99576040516361ceb1d360e01b815260040160405180910390fd5b6108123385858403610fef565b60006105343384846111a3565b600061052182611430565b83421115610de85760405163184f1e0160e11b815260048101859052426024820152604401610690565b60007f6e71edae12b1b97f4d1f60370fef10105fa2faae0126114a169c64845d6126c9888888610e178c611445565b6040805160208101969096526001600160a01b0394851690860152929091166060840152608083015260a082015260c0810186905260e0016040516020818303038152906040528051906020012090506000610e728261146d565b90506000610e82828787876114bb565b9050896001600160a01b0316816001600160a01b031614610ec957604051635091bef560e01b81526001600160a01b0380831660048301528b166024820152604401610690565b610ed48a8a8a610fef565b50505050505050505050565b6001600160a01b039182166000908152605e6020908152604080832093909416825291909152205490565b60006fffffffffffffffffffffffffffffffff81836001811115610f3157610f31611bc3565b14610f3e57838116610f46565b608084901c81165b949350505050565b6000610521610f5b610847565b15610f6d57610f68610847565b610f70565b60015b605954604051634be9756960e11b81523060048201526001600160a01b03909116906397d2ead290602401602060405180830381865afa158015610fb8573d6000803e3d6000fd5b505050506040513d601f19601f82011682018060405250810190610fdc9190611c01565b610fe69190611c47565b839060016114e3565b6001600160a01b038316158061100c57506001600160a01b038216155b1561103d57604051637db368a160e01b81526001600160a01b03808516600483015283166024820152604401610690565b6001600160a01b038381166000818152605e602090815260408083209487168084529482529182902085905590518481527f8c5be1e5ebec7d5bd14f71427d1e84f3dd0314c0f7b2291e5b200ac8c7c3b925910160405180910390a3505050565b60006105216110ab610847565b605954604051634be9756960e11b81526001600160a01b0390911660048201819052906397d2ead290602401602060405180830381865afa1580156110f4573d6000803e3d6000fd5b505050506040513d601f19601f820116820180604052508101906111189190611c01565b849190611501565b602454610100900460ff166111475760405162461bcd60e51b815260040161069090611fb7565b6111518282611527565b5050565b60006111618484610ee0565b9050600019811461119d5781811015611190576040516306052b7f60e01b815260048101839052602401610690565b61119d8484848403610fef565b50505050565b6001600160a01b03831615806111c057506001600160a01b038216155b156111f157604051637db368a160e01b81526001600160a01b03808516600483015283166024820152604401610690565b60006111fc8261053d565b6001600160a01b0385166000908152605c602052604090205490915081811015611252576040516315c29bad60e31b81526001600160a01b03861660048201526024810182905260448101839052606401610690565b6001600160a01b038086166000818152605c602052604080822086860390559287168082529083902080548601905591517fddf252ad1be2c89b69c2b068fc378daa952ba7f163c4a11628f55a4df523b3ef906112b29087815260200190565b60405180910390a35050505050565b600061047f7f8b73c3c69bb8fe3d512ecc4cf759cc79239f7b179b0ffacaa9a75d522b39400f6112f060255490565b6026546040805160208101859052908101839052606081018290524660808201523060a082015260009060c0016040516020818303038152906040528051906020012090509392505050565b605954604051634be9756960e11b8152306004820152600091610521916001600160a01b03909116906397d2ead290602401602060405180830381865afa15801561138b573d6000803e3d6000fd5b505050506040513d601f19601f820116820180604052508101906113af9190611c01565b6113b7610548565b8491906114e3565b60006113cb8284611c47565b9392505050565b605b546000906113e29082610f0b565b905060006113fc6001605b54610f0b90919063ffffffff16565b9050821561140f57908401908301611418565b90849003908390035b61142682608083901b611d95565b605b555050505050565b600061052161143d610847565b6113b761046f565b6001600160a01b0381166000908152605d602052604090208054600181018255905b50919050565b600061052161147a6112c1565b8360405161190160f01b6020820152602281018390526042810182905260009060620160405160208183030381529060405280519060200120905092915050565b60008060006114cc87878787611568565b915091506114d981611655565b5095945050505050565b60008260001904841183021582026114fa57600080fd5b5091020490565b600082600019048411830215820261151857600080fd5b50910281810615159190040190565b602454610100900460ff1661154e5760405162461bcd60e51b815260040161069090611fb7565b815160209283012081519190920120602591909155602655565b6000807f7fffffffffffffffffffffffffffffff5d576e7357a4501ddfe92f46681b20a083111561159f575060009050600361164c565b8460ff16601b141580156115b757508460ff16601c14155b156115c8575060009050600461164c565b6040805160008082526020820180845289905260ff881692820192909252606081018690526080810185905260019060a0016020604051602081039080840390855afa15801561161c573d6000803e3d6000fd5b5050604051601f1901519150506001600160a01b0381166116455760006001925092505061164c565b9150600090505b94509492505050565b600081600481111561166957611669611bc3565b036116715750565b600181600481111561168557611685611bc3565b036116d25760405162461bcd60e51b815260206004820152601860248201527f45434453413a20696e76616c6964207369676e617475726500000000000000006044820152606401610690565b60028160048111156116e6576116e6611bc3565b036117335760405162461bcd60e51b815260206004820152601f60248201527f45434453413a20696e76616c6964207369676e6174757265206c656e677468006044820152606401610690565b600381600481111561174757611747611bc3565b0361179f5760405162461bcd60e51b815260206004820152602260248201527f45434453413a20696e76616c6964207369676e6174757265202773272076616c604482015261756560f01b6064820152608401610690565b60048160048111156117b3576117b3611bc3565b036103405760405162461bcd60e51b815260206004820152602260248201527f45434453413a20696e76616c6964207369676e6174757265202776272076616c604482015261756560f01b6064820152608401610690565b6001600160a01b038116811461034057600080fd5b60006020828403121561183257600080fd5b81356113cb8161180b565b6000815180845260005b8181101561186357602081850181015186830182015201611847565b506000602082860101526020601f19601f83011685010191505092915050565b6020815260006113cb602083018461183d565b6000602082840312156118a857600080fd5b5035919050565b600080604083850312156118c257600080fd5b82356118cd8161180b565b946020939093013593505050565b634e487b7160e01b600052604160045260246000fd5b6040805190810167ffffffffffffffff81118282101715611914576119146118db565b60405290565b604051601f8201601f1916810167ffffffffffffffff81118282101715611943576119436118db565b604052919050565b600067ffffffffffffffff831115611965576119656118db565b611978601f8401601f191660200161191a565b905082815283838301111561198c57600080fd5b828260208301376000602084830101529392505050565b600082601f8301126119b457600080fd5b6113cb8383356020850161194b565b600080600080608085870312156119d957600080fd5b84356119e48161180b565b935060208501356119f48161180b565b9250604085013567ffffffffffffffff80821115611a1157600080fd5b611a1d888389016119a3565b93506060870135915080821115611a3357600080fd5b50611a40878288016119a3565b91505092959194509250565b600080600060608486031215611a6157600080fd5b8335611a6c8161180b565b92506020840135611a7c8161180b565b929592945050506040919091013590565b600060208284031215611a9f57600080fd5b813567ffffffffffffffff811115611ab657600080fd5b8201601f81018413611ac757600080fd5b610f468482356020840161194b565b60ff8116811461034057600080fd5b600080600080600080600060e0888a031215611b0057600080fd5b8735611b0b8161180b565b96506020880135611b1b8161180b565b955060408801359450606088013593506080880135611b3981611ad6565b9699959850939692959460a0840135945060c09093013592915050565b60008060408385031215611b6957600080fd5b8235611b748161180b565b91506020830135611b848161180b565b809150509250929050565b600181811c90821680611ba357607f821691505b60208210810361146757634e487b7160e01b600052602260045260246000fd5b634e487b7160e01b600052602160045260246000fd5b6020810160028310611bfb57634e487b7160e01b600052602160045260246000fd5b91905290565b600060208284031215611c1357600080fd5b5051919050565b634e487b7160e01b600052601160045260246000fd5b808202811582820484141761052157610521611c1a565b600082611c6457634e487b7160e01b600052601260045260246000fd5b500490565b601f821115611cb357600081815260208120601f850160051c81016020861015611c905750805b601f850160051c820191505b81811015611caf57828155600101611c9c565b5050505b505050565b815167ffffffffffffffff811115611cd257611cd26118db565b611ce681611ce08454611b8f565b84611c69565b602080601f831160018114611d1b5760008415611d035750858301515b600019600386901b1c1916600185901b178555611caf565b600085815260208120601f198616915b82811015611d4a57888601518255948401946001909101908401611d2b565b5085821015611d685787850151600019600388901b60f8161c191681555b5050505050600190811b01905550565b600060208284031215611d8a57600080fd5b81516113cb81611ad6565b8082018082111561052157610521611c1a565b8051611db38161180b565b919050565b60008060408385031215611dcb57600080fd5b825167ffffffffffffffff80821115611de357600080fd5b9084019060408287031215611df757600080fd5b611dff6118f1565b8251815260208084015183811115611e1657600080fd5b80850194505087601f850112611e2b57600080fd5b835183811115611e3d57611e3d6118db565b8060051b9350611e4e82850161191a565b818152938501820193828101908a861115611e6857600080fd5b958301955b85871015611e8657865182529583019590830190611e6d565b8084860152505050819550611e9c818801611da8565b9450505050509250929050565b600060018060a01b0380861683526020818616818501526060604085015260a08401915084516060850152808501516040608086015282815180855260c0870191508383019450600092505b80831015611f155784518252938301936001929092019190830190611ef5565b5098975050505050505050565b600080600080600060a08688031215611f3a57600080fd5b855194506020860151935060408601519250606086015191506080860151611f618161180b565b809150509295509295909350565b6001600160a01b0383168152604060208201819052600090610f469083018461183d565b60008060408385031215611fa657600080fd5b505080516020909101519092909150565b6020808252602b908201527f496e697469616c697a61626c653a20636f6e7472616374206973206e6f74206960408201526a6e697469616c697a696e6760a81b60608201526080019056fea2646970667358221220f3ffd1702f089d39dc1949fb9a3abcb244515cf73b315d7a4690dbbac25e1c1e64736f6c63430008150033",
    "linkReferences": {}
  },
  "methodIdentifiers": {
    "DOMAIN_SEPARATOR()": "3644e515",
    "FORMAT_DECIMALS()": "a01c8774",
    "allowance(address,address)": "dd62ed3e",
    "approve(address,uint256)": "095ea7b3",
    "asset()": "38d52e0f",
    "balanceOf(address)": "70a08231",
    "claimReward()": "b88a802f",
    "convertToAssets(uint256)": "07a2d13a",
    "convertToShares(uint256)": "c6e6f592",
    "convertToUnderlying(uint256)": "1dc7f521",
    "decimals()": "313ce567",
    "decreaseAllowance(address,uint256)": "a457c2d7",
    "earned(address)": "008cc262",
    "getRewardsData()": "7d098e64",
    "increaseAllowance(address,uint256)": "39509351",
    "initialize(address,address,string,string)": "2016a0d2",
    "lastTimeRewardApplicable()": "80faa57d",
    "mint(bytes)": "7ba0e2e7",
    "name()": "06fdde03",
    "nonces(address)": "7ecebe00",
    "notifyRewardAmount(uint256)": "3c6b16ab",
    "permit(address,address,uint256,uint256,uint8,bytes32,bytes32)": "d505accf",
    "previewMint(uint256)": "b3d7f6b9",
    "previewRedeem(uint256)": "4cdad506",
    "previewWithdraw(uint256)": "0a28a477",
    "redeem(bytes)": "9945e3d3",
    "rewardPerToken()": "cd3daf9d",
    "setRewardsDuration(uint256)": "cc1a378f",
    "sharesOf(address)": "f5eb42dc",
    "symbol()": "95d89b41",
    "totalAssets()": "01e1d114",
    "totalShares()": "3a98ef39",
    "totalSupply()": "18160ddd",
    "transfer(address,uint256)": "a9059cbb",
    "transferFrom(address,address,uint256)": "23b872dd"
  },
  "id": 35
}