{"abi":[{"type":"constructor","inputs":[],"stateMutability":"nonpayable"},{"type":"function","name":"DOMAIN_SEPARATOR","inputs":[],"outputs":[{"name":"","type":"bytes32","internalType":"bytes32"}],"stateMutability":"view"},{"type":"function","name":"FORMAT_DECIMALS","inputs":[],"outputs":[{"name":"","type":"uint256","internalType":"uint256"}],"stateMutability":"view"},{"type":"function","name":"allowance","inputs":[{"name":"owner","type":"address","internalType":"address"},{"name":"spender","type":"address","internalType":"address"}],"outputs":[{"name":"","type":"uint256","internalType":"uint256"}],"stateMutability":"view"},{"type":"function","name":"approve","inputs":[{"name":"spender","type":"address","internalType":"address"},{"name":"amount","type":"uint256","internalType":"uint256"}],"outputs":[{"name":"","type":"bool","internalType":"bool"}],"stateMutability":"nonpayable"},{"type":"function","name":"asset","inputs":[],"outputs":[{"name":"","type":"address","internalType":"address"}],"stateMutability":"view"},{"type":"function","name":"balanceOf","inputs":[{"name":"account_","type":"address","internalType":"address"}],"outputs":[{"name":"","type":"uint256","internalType":"uint256"}],"stateMutability":"view"},{"type":"function","name":"claimReward","inputs":[],"outputs":[{"name":"","type":"uint256","internalType":"uint256"}],"stateMutability":"nonpayable"},{"type":"function","name":"convertToAssets","inputs":[{"name":"shares_","type":"uint256","internalType":"uint256"},{"name":"account_","type":"address","internalType":"address"}],"outputs":[{"name":"","type":"uint256","internalType":"UintRay"}],"stateMutability":"view"},{"type":"function","name":"convertToShares","inputs":[{"name":"assets_","type":"uint256","internalType":"uint256"}],"outputs":[{"name":"","type":"uint256","internalType":"uint256"}],"stateMutability":"view"},{"type":"function","name":"convertToUnderlying","inputs":[{"name":"shares_","type":"uint256","internalType":"uint256"}],"outputs":[{"name":"","type":"uint256","internalType":"uint256"}],"stateMutability":"view"},{"type":"function","name":"decimals","inputs":[],"outputs":[{"name":"","type":"uint8","internalType":"uint8"}],"stateMutability":"pure"},{"type":"function","name":"decreaseAllowance","inputs":[{"name":"spender","type":"address","internalType":"address"},{"name":"subtractedValue","type":"uint256","internalType":"uint256"}],"outputs":[{"name":"","type":"bool","internalType":"bool"}],"stateMutability":"nonpayable"},{"type":"function","name":"earned","inputs":[{"name":"user_","type":"address","internalType":"address"}],"outputs":[{"name":"","type":"uint256","internalType":"uint256"}],"stateMutability":"view"},{"type":"function","name":"getRewardsData","inputs":[],"outputs":[{"name":"rewardRate","type":"uint256","internalType":"uint256"},{"name":"circulatingSupply","type":"uint256","internalType":"uint256"},{"name":"pendingAllocation","type":"uint256","internalType":"uint256"},{"name":"recicledSupply","type":"uint256","internalType":"uint256"},{"name":"durationLeft","type":"int256","internalType":"int256"}],"stateMutability":"view"},{"type":"function","name":"increaseAllowance","inputs":[{"name":"spender","type":"address","internalType":"address"},{"name":"addedValue","type":"uint256","internalType":"uint256"}],"outputs":[{"name":"","type":"bool","internalType":"bool"}],"stateMutability":"nonpayable"},{"type":"function","name":"initialize","inputs":[{"name":"underlying_","type":"address","internalType":"address"},{"name":"diamond_","type":"address","internalType":"address"},{"name":"name_","type":"string","internalType":"string"},{"name":"symbol_","type":"string","internalType":"string"}],"outputs":[],"stateMutability":"nonpayable"},{"type":"function","name":"lastTimeRewardApplicable","inputs":[],"outputs":[{"name":"","type":"uint256","internalType":"uint256"}],"stateMutability":"view"},{"type":"function","name":"mint","inputs":[{"name":"data_","type":"bytes","internalType":"bytes"},{"name":"owner_","type":"address","internalType":"address"}],"outputs":[{"name":"","type":"uint256","internalType":"uint256"}],"stateMutability":"nonpayable"},{"type":"function","name":"name","inputs":[],"outputs":[{"name":"","type":"string","internalType":"string"}],"stateMutability":"view"},{"type":"function","name":"nonces","inputs":[{"name":"owner","type":"address","internalType":"address"}],"outputs":[{"name":"","type":"uint256","internalType":"uint256"}],"stateMutability":"view"},{"type":"function","name":"notifyRewardAmount","inputs":[{"name":"amount_","type":"uint256","internalType":"uint256"}],"outputs":[],"stateMutability":"nonpayable"},{"type":"function","name":"permit","inputs":[{"name":"owner","type":"address","internalType":"address"},{"name":"spender","type":"address","internalType":"address"},{"name":"value","type":"uint256","internalType":"uint256"},{"name":"deadline","type":"uint256","internalType":"uint256"},{"name":"v","type":"uint8","internalType":"uint8"},{"name":"r","type":"bytes32","internalType":"bytes32"},{"name":"s_","type":"bytes32","internalType":"bytes32"}],"outputs":[],"stateMutability":"nonpayable"},{"type":"function","name":"previewMint","inputs":[{"name":"assets_","type":"uint256","internalType":"uint256"}],"outputs":[{"name":"","type":"uint256","internalType":"uint256"}],"stateMutability":"view"},{"type":"function","name":"previewRedeem","inputs":[{"name":"shares_","type":"uint256","internalType":"uint256"}],"outputs":[{"name":"","type":"uint256","internalType":"uint256"}],"stateMutability":"view"},{"type":"function","name":"previewWithdraw","inputs":[{"name":"assets","type":"uint256","internalType":"uint256"}],"outputs":[{"name":"","type":"uint256","internalType":"uint256"}],"stateMutability":"view"},{"type":"function","name":"redeem","inputs":[{"name":"data_","type":"bytes","internalType":"bytes"},{"name":"owner_","type":"address","internalType":"address"}],"outputs":[{"name":"","type":"uint256","internalType":"uint256"}],"stateMutability":"nonpayable"},{"type":"function","name":"rewardPerToken","inputs":[],"outputs":[{"name":"","type":"uint256","internalType":"uint256"}],"stateMutability":"view"},{"type":"function","name":"setRewardsDuration","inputs":[{"name":"duration_","type":"uint256","internalType":"uint256"}],"outputs":[],"stateMutability":"nonpayable"},{"type":"function","name":"sharesOf","inputs":[{"name":"account_","type":"address","internalType":"address"}],"outputs":[{"name":"","type":"uint256","internalType":"uint256"}],"stateMutability":"view"},{"type":"function","name":"subConvertToShares","inputs":[{"name":"assets_","type":"uint256","internalType":"uint256"},{"name":"account_","type":"address","internalType":"address"}],"outputs":[{"name":"","type":"uint256","internalType":"uint256"}],"stateMutability":"view"},{"type":"function","name":"symbol","inputs":[],"outputs":[{"name":"","type":"string","internalType":"string"}],"stateMutability":"view"},{"type":"function","name":"totalAssets","inputs":[],"outputs":[{"name":"","type":"uint256","internalType":"uint256"}],"stateMutability":"view"},{"type":"function","name":"totalShares","inputs":[],"outputs":[{"name":"","type":"uint256","internalType":"uint256"}],"stateMutability":"view"},{"type":"function","name":"totalSupply","inputs":[],"outputs":[{"name":"","type":"uint256","internalType":"uint256"}],"stateMutability":"view"},{"type":"function","name":"transfer","inputs":[{"name":"to","type":"address","internalType":"address"},{"name":"amount","type":"uint256","internalType":"uint256"}],"outputs":[{"name":"","type":"bool","internalType":"bool"}],"stateMutability":"nonpayable"},{"type":"function","name":"transferFrom","inputs":[{"name":"from","type":"address","internalType":"address"},{"name":"to","type":"address","internalType":"address"},{"name":"amount","type":"uint256","internalType":"uint256"}],"outputs":[{"name":"","type":"bool","internalType":"bool"}],"stateMutability":"nonpayable"},{"type":"event","name":"Approval","inputs":[{"name":"owner","type":"address","indexed":true,"internalType":"address"},{"name":"spender","type":"address","indexed":true,"internalType":"address"},{"name":"value","type":"uint256","indexed":false,"internalType":"uint256"}],"anonymous":false},{"type":"event","name":"Initialized","inputs":[{"name":"version","type":"uint8","indexed":false,"internalType":"uint8"}],"anonymous":false},{"type":"event","name":"OzTokenMinted","inputs":[{"name":"owner","type":"address","indexed":false,"internalType":"address"},{"name":"shares","type":"uint256","indexed":false,"internalType":"uint256"},{"name":"assets","type":"uint256","indexed":false,"internalType":"uint256"}],"anonymous":false},{"type":"event","name":"Transfer","inputs":[{"name":"from","type":"address","indexed":true,"internalType":"address"},{"name":"to","type":"address","indexed":true,"internalType":"address"},{"name":"value","type":"uint256","indexed":false,"internalType":"uint256"}],"anonymous":false},{"type":"error","name":"OZError03","inputs":[]},{"type":"error","name":"OZError04","inputs":[{"name":"from","type":"address","internalType":"address"},{"name":"to","type":"address","internalType":"address"}]},{"type":"error","name":"OZError05","inputs":[{"name":"amount","type":"uint256","internalType":"uint256"}]},{"type":"error","name":"OZError06","inputs":[{"name":"sender","type":"address","internalType":"address"},{"name":"accountShares","type":"uint256","internalType":"uint256"},{"name":"shares","type":"uint256","internalType":"uint256"}]},{"type":"error","name":"OZError07","inputs":[{"name":"from","type":"address","internalType":"address"},{"name":"fromShares","type":"uint256","internalType":"uint256"},{"name":"shares","type":"uint256","internalType":"uint256"}]},{"type":"error","name":"OZError08","inputs":[{"name":"deadline","type":"uint256","internalType":"uint256"},{"name":"blockTimestamp","type":"uint256","internalType":"uint256"}]},{"type":"error","name":"OZError09","inputs":[{"name":"owner","type":"address","internalType":"address"},{"name":"spender","type":"address","internalType":"address"}]},{"type":"error","name":"OZError22","inputs":[{"name":"reason","type":"string","internalType":"string"}]},{"type":"error","name":"OZError35","inputs":[{"name":"ozAmountIn","type":"uint256","internalType":"uint256"}]},{"type":"error","name":"OZError37","inputs":[]},{"type":"error","name":"OZError38","inputs":[]},{"type":"error","name":"OZError39","inputs":[{"name":"mintData","type":"bytes","internalType":"bytes"}]}],"bytecode":{"object":"0x608060405234801562000010575f80fd5b506200001b62000021565b620000e3565b603154610100900460ff16156200008e5760405162461bcd60e51b815260206004820152602760248201527f496e697469616c697a61626c653a20636f6e747261637420697320696e697469604482015266616c697a696e6760c81b606482015260840160405180910390fd5b60315460ff9081161015620000e1576031805460ff191660ff9081179091556040519081527f7f26b83ff96e1f2b6a682f133852f6798a09c465da95921460cefb38474024989060200160405180910390a15b565b6126d180620000f15f395ff3fe608060405234801561000f575f80fd5b5060043610610212575f3560e01c80634702a0841161011f578063a9059cbb116100a9578063cc1a378f11610079578063cc1a378f14610358578063cd3daf9d146103dc578063d505accf1461043f578063dd62ed3e14610452578063f5eb42dc14610465575f80fd5b8063a9059cbb14610406578063b3d7f6b914610419578063b88a802f146103dc578063c6e6f5921461042c575f80fd5b80637ecebe00116100ef5780637ecebe00146103c957806380faa57d146103dc57806395d89b41146103e2578063a01c8774146103ea578063a457c2d7146103f3575f80fd5b80634702a084146103695780634cdad5061461037c57806370a082311461038a5780637d098e641461039d575f80fd5b80632016a0d2116101a05780633644e515116101705780633644e5151461031a57806338d52e0f14610322578063395093511461033d5780633a98ef39146103505780633c6b16ab14610358575f80fd5b80632016a0d2146102d057806323b872dd146102e5578063313ce567146102f85780633610329114610307575f80fd5b80630a28a477116101e65780630a28a4771461027c5780630ba097d61461028f5780630cae37f1146102a257806318160ddd146102b55780631dc7f521146102bd575f80fd5b80628cc2621461021657806301e1d1141461023c57806306fdde0314610244578063095ea7b314610259575b5f80fd5b610229610224366004611c98565b505f90565b6040519081526020015b60405180910390f35b61022961048d565b61024c6104a1565b6040516102339190611cf6565b61026c610267366004611d08565b610531565b6040519015158152602001610233565b61022961028a366004611d32565b610547565b61022961029d366004611de5565b610551565b6102296102b0366004611de5565b6107e2565b610229610b07565b6102296102cb366004611d32565b610b69565b6102e36102de366004611e65565b610bf6565b005b61026c6102f3366004611ee9565b610df2565b60405160128152602001610233565b610229610315366004611f27565b610e13565b610229610e61565b6067546040516001600160a01b039091168152602001610233565b61026c61034b366004611d08565b610e6a565b610229610e8a565b6102e3610366366004611d32565b50565b610229610377366004611f27565b610e9a565b610229610224366004611d32565b610229610398366004611c98565b610f46565b604080515f8082526020820181905291810182905260608101829052608081019190915260a001610233565b6102296103d7366004611c98565b610f71565b5f610229565b61024c610f8e565b610229606e5481565b61026c610401366004611d08565b610f9d565b61026c610414366004611d08565b610fd9565b610229610427366004611d32565b610fe5565b61022961043a366004611d32565b610fef565b6102e361044d366004611f58565b611074565b610229610460366004611fc4565b611193565b610229610473366004611c98565b6001600160a01b03165f9081526069602052604090205490565b6068545f9061049c90826111bd565b905090565b6060606c80546104b090611ff0565b80601f01602080910402602001604051908101604052809291908181526020018280546104dc90611ff0565b80156105275780601f106104fe57610100808354040283529160200191610527565b820191905f5260205f20905b81548152906001019060200180831161050a57829003601f168201915b5050505050905090565b5f61053d3384846111ff565b5060015b92915050565b5f61054182610fef565b6066545f9082906001600160a01b031680156105c1576040516241fec360e31b81526001600160a01b03838116600483015282169063020ff618906024015f604051808303815f87803b1580156105a6575f80fd5b505af11580156105b8573d5f803e3d5ffd5b50505050610602565b5f601a555f6018556001600160a01b03821615610602576001600160a01b0382165f908152601e60209081526040808320839055601a54601d909252909120555b5f8580602001905181019061061791906120a0565b5080519091506729a2241af62c000081101561064e57604051631a98558360e21b8152600481018290526024015b60405180910390fd5b6001600160a01b0386165f90815260696020526040812054906106718389610e9a565b9050808210156106ad57604051637ac073bf60e01b81526001600160a01b03891660048201526024810183905260448101829052606401610645565b6066546040516314370d6760e31b815282916001600160a01b03169063a1b86b38906106df908c908e90600401612140565b60408051808303815f875af1925050508015610718575060408051601f3d908101601f1916820190925261071591810190612163565b60015b61076857610724612185565b806308c379a00361075e575061073861219e565b806107435750610760565b80604051631bc63b8160e01b81526004016106459190611cf6565b505b3d5f803e3d5ffd5b610772825f6112ad565b6066546001600160a01b03165f90815260696020526040902054945061079983865f611318565b6066546001600160a01b039081165f908152606960209081526040808320839055928e168252606f9052208054939093039092555096506107da9350505050565b505092915050565b5f7fd979d933a329cda0d1d95e3d7a8aaccfc305f1200c53a87f37e6841bb793452c805c156108245760405163b955425560e01b815260048101604052600481fd5b6001815d60665483906001600160a01b03168015610896576040516241fec360e31b81526001600160a01b03838116600483015282169063020ff618906024015f604051808303815f87803b15801561087b575f80fd5b505af115801561088d573d5f803e3d5ffd5b505050506108d7565b5f601a555f6018556001600160a01b038216156108d7576001600160a01b0382165f908152601e60209081526040808320839055601a54601d909252909120555b855160e0146108fb578560405163041979eb60e41b81526004016106459190611cf6565b5f80878060200190518101906109119190612227565b815191935091505f036109375760405163e5da5c7360e01b815260040160405180910390fd5b6001600160a01b038716158061095457506001600160a01b038116155b1561097257604051632534b66960e21b815260040160405180910390fd5b606e5482515f916109839190611374565b6066549091506001600160a01b0316639ea04fe46109a96067546001600160a01b031690565b8a866040518463ffffffff1660e01b81526004016109c9939291906122bb565b6020604051808303815f875af1925050508015610a03575060408051601f3d908101601f19168201909252610a0091810190612335565b60015b610a0f57610724612185565b610a1a8160016112ad565b81610a2781806001611318565b6001600160a01b0384165f908152606960209081526040808320805485019055606f82529182902080548601905581518083019092526008825267039b430b932b99d160c51b90820152610a7b9082611386565b610aa560405180604001604052806008815260200167030b9b9b2ba399d160c51b81525084611386565b604080516001600160a01b038c168152602081018390529081018490527fcb7696223ea9f009e8eb0ecd9af1e430306b6c7c719e906d4a4af52bcba6353a9060600160405180910390a19750610afb9350505050565b50505f815d5092915050565b5f610b10610e8a565b156102245761049c610b64610b3a610b2661048d565b610b359064e8d4a51000612360565b6113cf565b610b4c610b45610e8a565b60016113e6565b610b5d610b57610e8a565b5f6113e6565b9190611497565b6115ad565b5f610b72610e8a565b60665460405163a4fc284b60e01b81526001600160a01b039091169063a4fc284b90610ba3906001906004016123a7565b602060405180830381865afa158015610bbe573d5f803e3d5ffd5b505050506040513d601f19601f82011682018060405250810190610be29190612335565b610bec9084612360565b61054191906123ce565b603154610100900460ff1615808015610c165750603154600160ff909116105b80610c305750303b158015610c30575060315460ff166001145b610c935760405162461bcd60e51b815260206004820152602e60248201527f496e697469616c697a61626c653a20636f6e747261637420697320616c72656160448201526d191e481a5b9a5d1a585b1a5e995960921b6064820152608401610645565b6031805460ff191660011790558015610cb6576031805461ff0019166101001790555b606c610cc2848261242a565b50606d610ccf838261242a565b50606680546001600160a01b038087166001600160a01b03199283161790925560678054928816929091169190911790556040805180820190915260018152603160f81b6020820152610d239084906115c4565b846001600160a01b031663313ce5676040518163ffffffff1660e01b8152600401602060405180830381865afa158015610d5f573d5f803e3d5ffd5b505050506040513d601f19601f82011682018060405250810190610d8391906124e6565b60ff16601214610d94576001610d9b565b64e8d4a510005b64ffffffffff16606e558015610deb576031805461ff0019169055604051600181527f7f26b83ff96e1f2b6a682f133852f6798a09c465da95921460cefb38474024989060200160405180910390a15b5050505050565b5f610dfe8433846115f5565b610e09848484611641565b5060019392505050565b5f80610e1f845f6113e6565b90508015610e5757610e52610e338461175c565b610e4a6b033b2e3c9fd0803ce800000060026117c3565b839190611497565b610e59565b5f5b949350505050565b5f61049c6117ce565b5f61053d338484610e7b3388611193565b610e859190612501565b6111ff565b6068545f9061049c9060016111bd565b5f80610eae6066546001600160a01b031690565b6001600160a01b0316633154b6e25f806040518363ffffffff1660e01b8152600401610edb929190612514565b602060405180830381865afa158015610ef6573d5f803e3d5ffd5b505050506040513d601f19601f82011682018060405250810190610f1a9190612335565b9050610e59610f288461175c565b610f40610f36610b35610e8a565b84610b5d896113cf565b90611847565b5f610541610b64610f6b846001600160a01b03165f9081526069602052604090205490565b84610e13565b6001600160a01b0381165f908152606a6020526040812054610541565b6060606d80546104b090611ff0565b5f80610fa93385611193565b905082811015610fcc576040516361ceb1d360e01b815260040160405180910390fd5b610e0933858584036111ff565b5f61053d338484611641565b5f61054182611882565b5f610541610ffb610e8a565b6066546040516318aa5b7160e11b81526001600160a01b0390911690633154b6e29061102d905f908190600401612514565b602060405180830381865afa158015611048573d5f803e3d5ffd5b505050506040513d601f19601f8201168201806040525081019061106c9190612335565b84919061189e565b8342111561109e5760405163184f1e0160e11b815260048101859052426024820152604401610645565b5f7f6e71edae12b1b97f4d1f60370fef10105fa2faae0126114a169c64845d6126c98888886110cc8c6118c1565b6040805160208101969096526001600160a01b0394851690860152929091166060840152608083015260a082015260c0810186905260e0016040516020818303038152906040528051906020012090505f611126826118e8565b90505f61113582878787611934565b9050896001600160a01b0316816001600160a01b03161461117c57604051635091bef560e01b81526001600160a01b0380831660048301528b166024820152604401610645565b6111878a8a8a6111ff565b50505050505050505050565b6001600160a01b039182165f908152606b6020908152604080832093909416825291909152205490565b5f6fffffffffffffffffffffffffffffffff818360018111156111e2576111e2612377565b146111ef57838116610e59565b608084901c811691505092915050565b6001600160a01b038316158061121c57506001600160a01b038216155b1561124d57604051637db368a160e01b81526001600160a01b03808516600483015283166024820152604401610645565b6001600160a01b038381165f818152606b602090815260408083209487168084529482529182902085905590518481527f8c5be1e5ebec7d5bd14f71427d1e84f3dd0314c0f7b2291e5b200ac8c7c3b925910160405180910390a3505050565b60665460405163b0ff97b560e01b81523060048201526024810184905282151560448201526001600160a01b039091169063b0ff97b5906064015f604051808303815f87803b1580156112fe575f80fd5b505af1158015611310573d5f803e3d5ffd5b505050505050565b6068545f9061132790826111bd565b90505f61134060016068546111bd90919063ffffffff16565b905082156113535790840190830161135c565b90849003908390035b61136a81608084901b612501565b6068555050505050565b5f61137f82846123ce565b9392505050565b6113cb828260405160240161139c929190612531565b60408051601f198184030181529190526020810180516001600160e01b03166309710a9d60e41b17905261195a565b5050565b5f610541826b033b2e3c9fd0803ce8000000612360565b5f806114696113fd6066546001600160a01b031690565b6001600160a01b0316633154b6e25f866040518363ffffffff1660e01b815260040161142a929190612514565b602060405180830381865afa158015611445573d5f803e3d5ffd5b505050506040513d601f19601f82011682018060405250810190610b359190612335565b9050610e5981611477610e8a565b1561148c57611487610b35610e8a565b61148e565b825b610b5d876113cf565b604051633f9b43b760e11b815260048101849052602481018390525f908490849084908490819073__$a7d7f0af96ad7248e2170a1364c3372171$__90637f36876e906044016040805180830381865af41580156114f7573d5f803e3d5ffd5b505050506040513d601f19601f8201168201806040525081019061151b9190612163565b6040516399ed504f60e01b8152600481018390526024810182905260448101869052919350915073__$a7d7f0af96ad7248e2170a1364c3372171$__906399ed504f90606401602060405180830381865af415801561157c573d5f803e3d5ffd5b505050506040513d601f19601f820116820180604052508101906115a09190612335565b9998505050505050505050565b5f6105416b033b2e3c9fd0803ce8000000836123ce565b603154610100900460ff166115eb5760405162461bcd60e51b815260040161064590612552565b6113cb828261197a565b5f6116008484611193565b90505f19811461163b578181101561162e576040516306052b7f60e01b815260048101839052602401610645565b61163b84848484036111ff565b50505050565b6001600160a01b038316158061165e57506001600160a01b038216155b1561168f57604051637db368a160e01b81526001600160a01b03808516600483015283166024820152604401610645565b5f611699826119bb565b6001600160a01b0385165f90815260696020526040902054909150818110156116ee576040516315c29bad60e31b81526001600160a01b03861660048201526024810182905260448101839052606401610645565b6001600160a01b038086165f8181526069602052604080822086860390559287168082529083902080548601905591517fddf252ad1be2c89b69c2b068fc378daa952ba7f163c4a11628f55a4df523b3ef9061174d9087815260200190565b60405180910390a35050505050565b5f6105416117776b033b2e3c9fd0803ce800000060026117c3565b611798610b45856001600160a01b03165f9081526069602052604090205490565b6001600160a01b0385165f90815260696020526040902054610b5d90610b359064e8d4a51000612360565b5f61137f828461267d565b5f61049c7f8b73c3c69bb8fe3d512ecc4cf759cc79239f7b179b0ffacaa9a75d522b39400f6117fc60325490565b6033546040805160208101859052908101839052606081018290524660808201523060a08201525f9060c0016040516020818303038152906040528051906020012090509392505050565b5f82826118548183612688565b15611860576001611862565b5f5b60ff1661186f82846123ce565b6118799190612501565b95945050505050565b5f61054161188e610e8a565b61189661048d565b8491906119cf565b5f825f1904841183021582026118b2575f80fd5b50910281810615159190040190565b6001600160a01b0381165f908152606a602052604090208054600181018255905b50919050565b5f6105416118f46117ce565b8360405161190160f01b602082015260228101839052604281018290525f9060620160405160208183030381529060405280519060200120905092915050565b5f805f611943878787876119ea565b9150915061195081611acf565b5095945050505050565b80516a636f6e736f6c652e6c6f67602083015f808483855afa5050505050565b603154610100900460ff166119a15760405162461bcd60e51b815260040161064590612552565b815160209283012081519190920120603291909155603355565b5f6105416119c7610e8a565b61106c610b07565b5f825f1904841183021582026119e3575f80fd5b5091020490565b5f807f7fffffffffffffffffffffffffffffff5d576e7357a4501ddfe92f46681b20a0831115611a1f57505f90506003611ac6565b8460ff16601b14158015611a3757508460ff16601c14155b15611a4757505f90506004611ac6565b604080515f8082526020820180845289905260ff881692820192909252606081018690526080810185905260019060a0016020604051602081039080840390855afa158015611a98573d5f803e3d5ffd5b5050604051601f1901519150506001600160a01b038116611ac0575f60019250925050611ac6565b91505f90505b94509492505050565b5f816004811115611ae257611ae2612377565b03611aea5750565b6001816004811115611afe57611afe612377565b03611b4b5760405162461bcd60e51b815260206004820152601860248201527f45434453413a20696e76616c6964207369676e617475726500000000000000006044820152606401610645565b6002816004811115611b5f57611b5f612377565b03611bac5760405162461bcd60e51b815260206004820152601f60248201527f45434453413a20696e76616c6964207369676e6174757265206c656e677468006044820152606401610645565b6003816004811115611bc057611bc0612377565b03611c185760405162461bcd60e51b815260206004820152602260248201527f45434453413a20696e76616c6964207369676e6174757265202773272076616c604482015261756560f01b6064820152608401610645565b6004816004811115611c2c57611c2c612377565b036103665760405162461bcd60e51b815260206004820152602260248201527f45434453413a20696e76616c6964207369676e6174757265202776272076616c604482015261756560f01b6064820152608401610645565b6001600160a01b0381168114610366575f80fd5b5f60208284031215611ca8575f80fd5b813561137f81611c84565b5f81518084525f5b81811015611cd757602081850181015186830182015201611cbb565b505f602082860101526020601f19601f83011685010191505092915050565b602081525f61137f6020830184611cb3565b5f8060408385031215611d19575f80fd5b8235611d2481611c84565b946020939093013593505050565b5f60208284031215611d42575f80fd5b5035919050565b634e487b7160e01b5f52604160045260245ffd5b601f8201601f1916810167ffffffffffffffff81118282101715611d8357611d83611d49565b6040525050565b5f67ffffffffffffffff831115611da357611da3611d49565b604051611dba601f8501601f191660200182611d5d565b809150838152848484011115611dce575f80fd5b838360208301375f60208583010152509392505050565b5f8060408385031215611df6575f80fd5b823567ffffffffffffffff811115611e0c575f80fd5b8301601f81018513611e1c575f80fd5b611e2b85823560208401611d8a565b9250506020830135611e3c81611c84565b809150509250929050565b5f82601f830112611e56575f80fd5b61137f83833560208501611d8a565b5f805f8060808587031215611e78575f80fd5b8435611e8381611c84565b93506020850135611e9381611c84565b9250604085013567ffffffffffffffff80821115611eaf575f80fd5b611ebb88838901611e47565b93506060870135915080821115611ed0575f80fd5b50611edd87828801611e47565b91505092959194509250565b5f805f60608486031215611efb575f80fd5b8335611f0681611c84565b92506020840135611f1681611c84565b929592945050506040919091013590565b5f8060408385031215611f38575f80fd5b823591506020830135611e3c81611c84565b60ff81168114610366575f80fd5b5f805f805f805f60e0888a031215611f6e575f80fd5b8735611f7981611c84565b96506020880135611f8981611c84565b955060408801359450606088013593506080880135611fa781611f4a565b9699959850939692959460a0840135945060c09093013592915050565b5f8060408385031215611fd5575f80fd5b8235611fe081611c84565b91506020830135611e3c81611c84565b600181811c9082168061200457607f821691505b6020821081036118e257634e487b7160e01b5f52602260045260245ffd5b5f82601f830112612031575f80fd5b8151602067ffffffffffffffff82111561204d5761204d611d49565b8160051b60405161206083830182611d5d565b92835284810182019282810187851115612078575f80fd5b83870192505b84831015612095578251815291830191830161207e565b509695505050505050565b5f80604083850312156120b1575f80fd5b825167ffffffffffffffff808211156120c8575f80fd5b90840190606082870312156120db575f80fd5b6040516060810181811083821117156120f6576120f6611d49565b8060405250825181526020830151602082015260408301518281111561211a575f80fd5b61212688828601612022565b6040830152508094505050506020830151611e3c81611c84565b6001600160a01b03831681526040602082018190525f90610e5990830184611cb3565b5f8060408385031215612174575f80fd5b505080516020909101519092909150565b5f60033d111561219b5760045f803e505f5160e01c5b90565b5f60443d10156121ab5790565b6040516003193d81016004833e81513d67ffffffffffffffff81602484011181841117156121db57505050505090565b82850191508151818111156121f35750505050505090565b843d870101602082850101111561220d5750505050505090565b61221c60208286010187611d5d565b509095945050505050565b5f8060408385031215612238575f80fd5b825167ffffffffffffffff8082111561224f575f80fd5b9084019060408287031215612262575f80fd5b60405160408101818110838211171561227d5761227d611d49565b60405282518152602083015182811115612295575f80fd5b6122a188828601612022565b6020830152508094505050506020830151611e3c81611c84565b5f60018060a01b038086168352602081861660208501526060604085015260a0840191508451606085015260208501516040608086015282815180855260c0870191506020830194505f92505b808310156123285784518252938301936001929092019190830190612308565b5098975050505050505050565b5f60208284031215612345575f80fd5b5051919050565b634e487b7160e01b5f52601160045260245ffd5b80820281158282048414176105415761054161234c565b634e487b7160e01b5f52602160045260245ffd5b6002811061036657634e487b7160e01b5f52602160045260245ffd5b602081016123b48361238b565b91905290565b634e487b7160e01b5f52601260045260245ffd5b5f826123dc576123dc6123ba565b500490565b601f82111561242557805f5260205f20601f840160051c810160208510156124065750805b601f840160051c820191505b81811015610deb575f8155600101612412565b505050565b815167ffffffffffffffff81111561244457612444611d49565b612458816124528454611ff0565b846123e1565b602080601f83116001811461248b575f84156124745750858301515b5f19600386901b1c1916600185901b178555611310565b5f85815260208120601f198616915b828110156124b95788860151825594840194600190910190840161249a565b50858210156124d657878501515f19600388901b60f8161c191681555b5050505050600190811b01905550565b5f602082840312156124f6575f80fd5b815161137f81611f4a565b808201808211156105415761054161234c565b828152604081016125248361238b565b8260208301529392505050565b604081525f6125436040830185611cb3565b90508260208301529392505050565b6020808252602b908201527f496e697469616c697a61626c653a20636f6e7472616374206973206e6f74206960408201526a6e697469616c697a696e6760a81b606082015260800190565b600181815b808511156125d757815f19048211156125bd576125bd61234c565b808516156125ca57918102915b93841c93908002906125a2565b509250929050565b5f826125ed57506001610541565b816125f957505f610541565b816001811461260f576002811461261957612635565b6001915050610541565b60ff84111561262a5761262a61234c565b50506001821b610541565b5060208310610133831016604e8410600b8410161715612658575081810a610541565b612662838361259d565b805f19048211156126755761267561234c565b029392505050565b5f61137f83836125df565b5f82612696576126966123ba565b50069056fea2646970667358221220e57f488d3740fcb8f82f7c8fd8901a6cdd0377ffa40a1f60e47835db77ea658864736f6c63430008180033","linkReferences":{"contracts/libraries/Uint512.sol":{"Uint512":[{"start":5553,"length":20},{"start":5685,"length":20}]}}},"methodIdentifiers":{"DOMAIN_SEPARATOR()":"3644e515","FORMAT_DECIMALS()":"a01c8774","allowance(address,address)":"dd62ed3e","approve(address,uint256)":"095ea7b3","asset()":"38d52e0f","balanceOf(address)":"70a08231","claimReward()":"b88a802f","convertToAssets(uint256,address)":"36103291","convertToShares(uint256)":"c6e6f592","convertToUnderlying(uint256)":"1dc7f521","decimals()":"313ce567","decreaseAllowance(address,uint256)":"a457c2d7","earned(address)":"008cc262","getRewardsData()":"7d098e64","increaseAllowance(address,uint256)":"39509351","initialize(address,address,string,string)":"2016a0d2","lastTimeRewardApplicable()":"80faa57d","mint(bytes,address)":"0cae37f1","name()":"06fdde03","nonces(address)":"7ecebe00","notifyRewardAmount(uint256)":"3c6b16ab","permit(address,address,uint256,uint256,uint8,bytes32,bytes32)":"d505accf","previewMint(uint256)":"b3d7f6b9","previewRedeem(uint256)":"4cdad506","previewWithdraw(uint256)":"0a28a477","redeem(bytes,address)":"0ba097d6","rewardPerToken()":"cd3daf9d","setRewardsDuration(uint256)":"cc1a378f","sharesOf(address)":"f5eb42dc","subConvertToShares(uint256,address)":"4702a084","symbol()":"95d89b41","totalAssets()":"01e1d114","totalShares()":"3a98ef39","totalSupply()":"18160ddd","transfer(address,uint256)":"a9059cbb","transferFrom(address,address,uint256)":"23b872dd"},"id":44}