{"abi":[{"type":"constructor","inputs":[],"stateMutability":"nonpayable"},{"type":"function","name":"DOMAIN_SEPARATOR","inputs":[],"outputs":[{"name":"","type":"bytes32","internalType":"bytes32"}],"stateMutability":"view"},{"type":"function","name":"FORMAT_DECIMALS","inputs":[],"outputs":[{"name":"","type":"uint256","internalType":"uint256"}],"stateMutability":"view"},{"type":"function","name":"allowance","inputs":[{"name":"owner","type":"address","internalType":"address"},{"name":"spender","type":"address","internalType":"address"}],"outputs":[{"name":"","type":"uint256","internalType":"uint256"}],"stateMutability":"view"},{"type":"function","name":"approve","inputs":[{"name":"spender","type":"address","internalType":"address"},{"name":"amount","type":"uint256","internalType":"uint256"}],"outputs":[{"name":"","type":"bool","internalType":"bool"}],"stateMutability":"nonpayable"},{"type":"function","name":"asset","inputs":[],"outputs":[{"name":"","type":"address","internalType":"address"}],"stateMutability":"view"},{"type":"function","name":"balanceOf","inputs":[{"name":"account_","type":"address","internalType":"address"}],"outputs":[{"name":"","type":"uint256","internalType":"uint256"}],"stateMutability":"view"},{"type":"function","name":"claimReward","inputs":[],"outputs":[{"name":"","type":"uint256","internalType":"uint256"}],"stateMutability":"nonpayable"},{"type":"function","name":"convertToOzTokens","inputs":[{"name":"shares_","type":"uint256","internalType":"uint256"},{"name":"account_","type":"address","internalType":"address"}],"outputs":[{"name":"","type":"uint256","internalType":"UintRay"}],"stateMutability":"view"},{"type":"function","name":"convertToShares","inputs":[{"name":"assets_","type":"uint256","internalType":"uint256"},{"name":"account_","type":"address","internalType":"address"}],"outputs":[{"name":"","type":"uint256","internalType":"uint256"}],"stateMutability":"view"},{"type":"function","name":"convertToSharesFromOzBalance","inputs":[{"name":"ozBalance_","type":"uint256","internalType":"uint256"}],"outputs":[{"name":"","type":"uint256","internalType":"uint256"}],"stateMutability":"view"},{"type":"function","name":"convertToUnderlying","inputs":[{"name":"shares_","type":"uint256","internalType":"uint256"}],"outputs":[{"name":"","type":"uint256","internalType":"uint256"}],"stateMutability":"view"},{"type":"function","name":"decimals","inputs":[],"outputs":[{"name":"","type":"uint8","internalType":"uint8"}],"stateMutability":"pure"},{"type":"function","name":"decreaseAllowance","inputs":[{"name":"spender","type":"address","internalType":"address"},{"name":"subtractedValue","type":"uint256","internalType":"uint256"}],"outputs":[{"name":"","type":"bool","internalType":"bool"}],"stateMutability":"nonpayable"},{"type":"function","name":"deposits","inputs":[{"name":"receiver","type":"address","internalType":"address"}],"outputs":[{"name":"amountETH","type":"uint256","internalType":"uint256"},{"name":"amountStable","type":"uint256","internalType":"uint256"},{"name":"timestamp","type":"uint256","internalType":"uint256"}],"stateMutability":"view"},{"type":"function","name":"earned","inputs":[{"name":"user_","type":"address","internalType":"address"}],"outputs":[{"name":"","type":"uint256","internalType":"uint256"}],"stateMutability":"view"},{"type":"function","name":"getRewardsData","inputs":[],"outputs":[{"name":"rewardRate","type":"uint256","internalType":"uint256"},{"name":"circulatingSupply","type":"uint256","internalType":"uint256"},{"name":"pendingAllocation","type":"uint256","internalType":"uint256"},{"name":"recicledSupply","type":"uint256","internalType":"uint256"},{"name":"durationLeft","type":"int256","internalType":"int256"}],"stateMutability":"view"},{"type":"function","name":"increaseAllowance","inputs":[{"name":"spender","type":"address","internalType":"address"},{"name":"addedValue","type":"uint256","internalType":"uint256"}],"outputs":[{"name":"","type":"bool","internalType":"bool"}],"stateMutability":"nonpayable"},{"type":"function","name":"initialize","inputs":[{"name":"underlying_","type":"address","internalType":"address"},{"name":"diamond_","type":"address","internalType":"address"},{"name":"name_","type":"string","internalType":"string"},{"name":"symbol_","type":"string","internalType":"string"}],"outputs":[],"stateMutability":"nonpayable"},{"type":"function","name":"lastTimeRewardApplicable","inputs":[],"outputs":[{"name":"","type":"uint256","internalType":"uint256"}],"stateMutability":"view"},{"type":"function","name":"mint","inputs":[{"name":"data_","type":"bytes","internalType":"bytes"},{"name":"owner_","type":"address","internalType":"address"}],"outputs":[{"name":"","type":"uint256","internalType":"uint256"}],"stateMutability":"payable"},{"type":"function","name":"mint2","inputs":[{"name":"data_","type":"bytes","internalType":"bytes"},{"name":"owner_","type":"address","internalType":"address"},{"name":"isETH_","type":"bool","internalType":"bool"}],"outputs":[{"name":"","type":"uint256","internalType":"uint256"}],"stateMutability":"payable"},{"type":"function","name":"name","inputs":[],"outputs":[{"name":"","type":"string","internalType":"string"}],"stateMutability":"view"},{"type":"function","name":"nonces","inputs":[{"name":"owner","type":"address","internalType":"address"}],"outputs":[{"name":"","type":"uint256","internalType":"uint256"}],"stateMutability":"view"},{"type":"function","name":"notifyRewardAmount","inputs":[{"name":"amount_","type":"uint256","internalType":"uint256"}],"outputs":[],"stateMutability":"nonpayable"},{"type":"function","name":"permit","inputs":[{"name":"owner","type":"address","internalType":"address"},{"name":"spender","type":"address","internalType":"address"},{"name":"value","type":"uint256","internalType":"uint256"},{"name":"deadline","type":"uint256","internalType":"uint256"},{"name":"v","type":"uint8","internalType":"uint8"},{"name":"r","type":"bytes32","internalType":"bytes32"},{"name":"s_","type":"bytes32","internalType":"bytes32"}],"outputs":[],"stateMutability":"nonpayable"},{"type":"function","name":"redeem","inputs":[{"name":"data_","type":"bytes","internalType":"bytes"},{"name":"owner_","type":"address","internalType":"address"}],"outputs":[{"name":"","type":"uint256","internalType":"uint256"}],"stateMutability":"nonpayable"},{"type":"function","name":"rewardPerToken","inputs":[],"outputs":[{"name":"","type":"uint256","internalType":"uint256"}],"stateMutability":"view"},{"type":"function","name":"setRewardsDuration","inputs":[{"name":"duration_","type":"uint256","internalType":"uint256"}],"outputs":[],"stateMutability":"nonpayable"},{"type":"function","name":"sharesOf","inputs":[{"name":"account_","type":"address","internalType":"address"}],"outputs":[{"name":"","type":"uint256","internalType":"uint256"}],"stateMutability":"view"},{"type":"function","name":"symbol","inputs":[],"outputs":[{"name":"","type":"string","internalType":"string"}],"stateMutability":"view"},{"type":"function","name":"totalAssets","inputs":[],"outputs":[{"name":"","type":"uint256","internalType":"uint256"}],"stateMutability":"view"},{"type":"function","name":"totalShares","inputs":[],"outputs":[{"name":"","type":"uint256","internalType":"uint256"}],"stateMutability":"view"},{"type":"function","name":"totalSupply","inputs":[],"outputs":[{"name":"","type":"uint256","internalType":"uint256"}],"stateMutability":"view"},{"type":"function","name":"transfer","inputs":[{"name":"to","type":"address","internalType":"address"},{"name":"amount","type":"uint256","internalType":"uint256"}],"outputs":[{"name":"","type":"bool","internalType":"bool"}],"stateMutability":"nonpayable"},{"type":"function","name":"transferFrom","inputs":[{"name":"from","type":"address","internalType":"address"},{"name":"to","type":"address","internalType":"address"},{"name":"amount","type":"uint256","internalType":"uint256"}],"outputs":[{"name":"","type":"bool","internalType":"bool"}],"stateMutability":"nonpayable"},{"type":"function","name":"transferShares","inputs":[{"name":"recipient_","type":"address","internalType":"address"},{"name":"shares_","type":"uint256","internalType":"uint256"}],"outputs":[{"name":"","type":"uint256","internalType":"uint256"}],"stateMutability":"nonpayable"},{"type":"function","name":"transferSharesFrom","inputs":[{"name":"sender_","type":"address","internalType":"address"},{"name":"recipient_","type":"address","internalType":"address"},{"name":"shares_","type":"uint256","internalType":"uint256"}],"outputs":[{"name":"","type":"uint256","internalType":"uint256"}],"stateMutability":"nonpayable"},{"type":"event","name":"Approval","inputs":[{"name":"owner","type":"address","indexed":true,"internalType":"address"},{"name":"spender","type":"address","indexed":true,"internalType":"address"},{"name":"value","type":"uint256","indexed":false,"internalType":"uint256"}],"anonymous":false},{"type":"event","name":"Initialized","inputs":[{"name":"version","type":"uint8","indexed":false,"internalType":"uint8"}],"anonymous":false},{"type":"event","name":"OzTokenMinted","inputs":[{"name":"owner","type":"address","indexed":false,"internalType":"address"},{"name":"shares","type":"uint256","indexed":false,"internalType":"uint256"},{"name":"assets","type":"uint256","indexed":false,"internalType":"uint256"}],"anonymous":false},{"type":"event","name":"OzTokenRedeemed","inputs":[{"name":"owner","type":"address","indexed":false,"internalType":"address"},{"name":"ozAmountIn","type":"uint256","indexed":false,"internalType":"uint256"},{"name":"shares","type":"uint256","indexed":false,"internalType":"uint256"},{"name":"assets","type":"uint256","indexed":false,"internalType":"uint256"}],"anonymous":false},{"type":"event","name":"Transfer","inputs":[{"name":"from","type":"address","indexed":true,"internalType":"address"},{"name":"to","type":"address","indexed":true,"internalType":"address"},{"name":"value","type":"uint256","indexed":false,"internalType":"uint256"}],"anonymous":false},{"type":"event","name":"TransferShares","inputs":[{"name":"from","type":"address","indexed":true,"internalType":"address"},{"name":"to","type":"address","indexed":true,"internalType":"address"},{"name":"sharesAmoutn","type":"uint256","indexed":false,"internalType":"uint256"}],"anonymous":false},{"type":"error","name":"OZError03","inputs":[]},{"type":"error","name":"OZError04","inputs":[{"name":"from","type":"address","internalType":"address"},{"name":"to","type":"address","internalType":"address"}]},{"type":"error","name":"OZError05","inputs":[{"name":"amount","type":"uint256","internalType":"uint256"}]},{"type":"error","name":"OZError06","inputs":[{"name":"sender","type":"address","internalType":"address"},{"name":"accountShares","type":"uint256","internalType":"uint256"},{"name":"shares","type":"uint256","internalType":"uint256"}]},{"type":"error","name":"OZError07","inputs":[{"name":"from","type":"address","internalType":"address"},{"name":"fromShares","type":"uint256","internalType":"uint256"},{"name":"shares","type":"uint256","internalType":"uint256"}]},{"type":"error","name":"OZError08","inputs":[{"name":"deadline","type":"uint256","internalType":"uint256"},{"name":"blockTimestamp","type":"uint256","internalType":"uint256"}]},{"type":"error","name":"OZError09","inputs":[{"name":"owner","type":"address","internalType":"address"},{"name":"spender","type":"address","internalType":"address"}]},{"type":"error","name":"OZError22","inputs":[{"name":"reason","type":"string","internalType":"string"}]},{"type":"error","name":"OZError35","inputs":[{"name":"ozAmountIn","type":"uint256","internalType":"uint256"}]},{"type":"error","name":"OZError37","inputs":[]},{"type":"error","name":"OZError38","inputs":[]},{"type":"error","name":"OZError39","inputs":[{"name":"data","type":"bytes","internalType":"bytes"}]},{"type":"error","name":"OZError42","inputs":[]},{"type":"error","name":"OZError43","inputs":[]}],"bytecode":{"object":"0x608060405234801562000010575f80fd5b506200001b62000021565b620000e3565b603654610100900460ff16156200008e5760405162461bcd60e51b815260206004820152602760248201527f496e697469616c697a61626c653a20636f6e747261637420697320696e697469604482015266616c697a696e6760c81b606482015260840160405180910390fd5b60365460ff9081161015620000e1576036805460ff191660ff9081179091556040519081527f7f26b83ff96e1f2b6a682f133852f6798a09c465da95921460cefb38474024989060200160405180910390a15b565b612a8d80620000f15f395ff3fe608060405260043610610211575f3560e01c806370a082311161011e578063a9059cbb116100a8578063d295fa9a1161006d578063d295fa9a14610576578063d505accf14610595578063dd62ed3e146105b4578063f5eb42dc146105d3578063fc7e286d14610607575f80fd5b8063a9059cbb14610538578063b88a802f146104bf578063bc93f1cf14610557578063cc1a378f146103db578063cd3daf9d146104bf575f80fd5b806380faa57d116100ee57806380faa57d146104bf5780638fcb4e5b146104d157806395d89b41146104f0578063a01c877414610504578063a457c2d714610519575f80fd5b806370a08231146104365780637b044637146104555780637d098e64146104685780637ecebe00146104a0575f80fd5b806323b872dd1161019f578063395093511161016f57806339509351146103a85780633a98ef39146103c75780633c6b16ab146103db57806369e41c62146103f85780636d78045914610417575f80fd5b806323b872dd14610333578063313ce567146103525780633644e5151461036d57806338d52e0f14610381575f80fd5b80630ba097d6116101e55780630ba097d6146102ab5780630cae37f1146102ca57806318160ddd146102df5780631dc7f521146102f35780632016a0d214610312575f80fd5b80628cc2621461021557806301e1d1141461024757806306fdde031461025b578063095ea7b31461027c575b5f80fd5b348015610220575f80fd5b5061023461022f3660046120af565b505f90565b6040519081526020015b60405180910390f35b348015610252575f80fd5b5061023461065c565b348015610266575f80fd5b5061026f610670565b60405161023e919061210d565b348015610287575f80fd5b5061029b61029636600461211f565b610700565b604051901515815260200161023e565b3480156102b6575f80fd5b506102346102c5366004612220565b610716565b6102346102d8366004612220565b5f92915050565b3480156102ea575f80fd5b50610234610aef565b3480156102fe575f80fd5b5061023461030d36600461226f565b610b51565b34801561031d575f80fd5b5061033161032c366004612286565b610bde565b005b34801561033e575f80fd5b5061029b61034d36600461230a565b610dda565b34801561035d575f80fd5b506040516012815260200161023e565b348015610378575f80fd5b50610234610dfb565b34801561038c575f80fd5b50606c546040516001600160a01b03909116815260200161023e565b3480156103b3575f80fd5b5061029b6103c236600461211f565b610e04565b3480156103d2575f80fd5b50610234610e24565b3480156103e6575f80fd5b506103316103f536600461226f565b50565b348015610403575f80fd5b5061023461041236600461226f565b610e34565b348015610422575f80fd5b5061023461043136600461230a565b610e50565b348015610441575f80fd5b506102346104503660046120af565b610e8b565b610234610463366004612348565b610eb6565b348015610473575f80fd5b50604080515f8082526020820181905291810182905260608101829052608081019190915260a00161023e565b3480156104ab575f80fd5b506102346104ba3660046120af565b6111cb565b3480156104ca575f80fd5b505f610234565b3480156104dc575f80fd5b506102346104eb36600461211f565b6111e8565b3480156104fb575f80fd5b5061026f611217565b34801561050f575f80fd5b5061023460745481565b348015610524575f80fd5b5061029b61053336600461211f565b611226565b348015610543575f80fd5b5061029b61055236600461211f565b611262565b348015610562575f80fd5b506102346105713660046123ac565b61126e565b348015610581575f80fd5b506102346105903660046123ac565b6112bb565b3480156105a0575f80fd5b506103316105af3660046123dd565b611367565b3480156105bf575f80fd5b506102346105ce366004612449565b611486565b3480156105de575f80fd5b506102346105ed3660046120af565b6001600160a01b03165f908152606e602052604090205490565b348015610612575f80fd5b506106416106213660046120af565b60716020525f908152604090208054600182015460029092015490919083565b6040805193845260208401929092529082015260600161023e565b606d545f9061066b90826114b0565b905090565b60606072805461067f90612475565b80601f01602080910402602001604051908101604052809291908181526020018280546106ab90612475565b80156106f65780601f106106cd576101008083540402835291602001916106f6565b820191905f5260205f20905b8154815290600101906020018083116106d957829003601f168201915b5050505050905090565b5f61070c3384846114f2565b5060015b92915050565b5f7fd979d933a329cda0d1d95e3d7a8aaccfc305f1200c53a87f37e6841bb793452c805c156107585760405163b955425560e01b815260048101604052600481fd5b6001815d606b5483906001600160a01b031680156107ca576040516241fec360e31b81526001600160a01b03838116600483015282169063020ff618906024015f604051808303815f87803b1580156107af575f80fd5b505af11580156107c1573d5f803e3d5ffd5b5050505061080b565b5f601a555f6018556001600160a01b0382161561080b576001600160a01b0382165f908152601e60209081526040808320839055601a54601d909252909120555b855161010014610839578560405163041979eb60e41b8152600401610830919061210d565b60405180910390fd5b5f808780602001905181019061084f91906124b7565b815191935091506001600160a01b038816158061087357506001600160a01b038216155b1561089157604051632534b66960e21b815260040160405180910390fd5b6729a2241af62c00008110156108bd57604051631a98558360e21b815260048101829052602401610830565b6001600160a01b0388165f908152606e6020526040812054906108e0838b6112bb565b90508082101561090957898282604051637ac073bf60e01b8152600401610830939291906125b0565b5f819050606b5f9054906101000a90046001600160a01b03166001600160a01b031663a1b86b388c8e6040518363ffffffff1660e01b815260040161094f9291906125d1565b60408051808303815f875af1925050508015610988575060408051601f3d908101601f19168201909252610985918101906125f4565b60015b6109d857610994612616565b806308c379a0036109ce57506109a861262f565b806109b357506109d0565b80604051631bc63b8160e01b8152600401610830919061210d565b505b3d5f803e3d5ffd5b6109e3825f806115a0565b606b546001600160a01b03165f908152606e60205260409020549450610a0a83865f611613565b5f606e5f606b5f9054906101000a90046001600160a01b03166001600160a01b03166001600160a01b031681526020019081526020015f20819055508260755f8f6001600160a01b03166001600160a01b031681526020019081526020015f205f82825403925050819055507f4181bb2dd7cb8bbe372dc317652857a2e512544faeba7c902b5e80107831732b8d878686604051610acc94939291906001600160a01b0394909416845260208401929092526040830152606082015260800190565b60405180910390a19a50610ae39650505050505050565b50505f815d5092915050565b5f610af8610e24565b1561022f5761066b610b4c610b22610b0e61065c565b610b1d9064e8d4a510006126cc565b61166f565b610b34610b2d610e24565b6001611686565b610b45610b3f610e24565b5f611686565b9190611737565b61184d565b5f610b5a610e24565b606b5460405163a4fc284b60e01b81526001600160a01b039091169063a4fc284b90610b8b90600190600401612713565b602060405180830381865afa158015610ba6573d5f803e3d5ffd5b505050506040513d601f19601f82011682018060405250810190610bca9190612726565b610bd490846126cc565b6107109190612751565b603654610100900460ff1615808015610bfe5750603654600160ff909116105b80610c185750303b158015610c18575060365460ff166001145b610c7b5760405162461bcd60e51b815260206004820152602e60248201527f496e697469616c697a61626c653a20636f6e747261637420697320616c72656160448201526d191e481a5b9a5d1a585b1a5e995960921b6064820152608401610830565b6036805460ff191660011790558015610c9e576036805461ff0019166101001790555b6072610caa84826127ad565b506073610cb783826127ad565b50606b80546001600160a01b038087166001600160a01b031992831617909255606c8054928816929091169190911790556040805180820190915260018152603160f81b6020820152610d0b908490611864565b846001600160a01b031663313ce5676040518163ffffffff1660e01b8152600401602060405180830381865afa158015610d47573d5f803e3d5ffd5b505050506040513d601f19601f82011682018060405250810190610d6b919061286d565b60ff16601214610d7c576001610d83565b64e8d4a510005b64ffffffffff166074558015610dd3576036805461ff0019169055604051600181527f7f26b83ff96e1f2b6a682f133852f6798a09c465da95921460cefb38474024989060200160405180910390a15b5050505050565b5f610de6843384611899565b610df18484846118e5565b5060019392505050565b5f61066b6119ed565b5f61070c338484610e153388611486565b610e1f9190612888565b6114f2565b606d545f9061066b9060016114b0565b5f610710610e40610e24565b610e48610aef565b849190611a66565b5f80610e5f610b4c848761126e565b9050610e6c853383611899565b610e77858585611a89565b610e8385858386611b71565b949350505050565b5f610710610b4c610eb0846001600160a01b03165f908152606e602052604090205490565b8461126e565b5f7fd979d933a329cda0d1d95e3d7a8aaccfc305f1200c53a87f37e6841bb793452c805c15610ef85760405163b955425560e01b815260048101604052600481fd5b6001815d606b5484906001600160a01b03168015610f6a576040516241fec360e31b81526001600160a01b03838116600483015282169063020ff618906024015f604051808303815f87803b158015610f4f575f80fd5b505af1158015610f61573d5f803e3d5ffd5b50505050610fab565b5f601a555f6018556001600160a01b03821615610fab576001600160a01b0382165f908152601e60209081526040808320839055601a54601d909252909120555b610fb3611c11565b5f8088806020019051810190610fc9919061289b565b915091508615610ff75734826020015114610ff757604051631008b85760e11b815260040160405180910390fd5b8151158061100757506020820151155b156110255760405163e5da5c7360e01b815260040160405180910390fd5b6001600160a01b038816158061104257506001600160a01b038116155b1561106057604051632534b66960e21b815260040160405180910390fd5b60745482515f916110719190611c6f565b606b549091506001600160a01b03166355dae15c34611098606c546001600160a01b031690565b604080516001600160e01b031960e086901b1681526001600160a01b039283166004820152918e166024830152875160448301526020880151606483015287015160848201528b151560a482015260c401604080518083038185885af193505050508015611123575060408051601f3d908101601f19168201909252611120918101906125f4565b60015b61112f57610994612616565b61113b828260016115a0565b8261114881806001611613565b6001600160a01b0385165f908152606e60209081526040808320805485019055607590915290819020805486019055517fcb7696223ea9f009e8eb0ecd9af1e430306b6c7c719e906d4a4af52bcba6353a906111a9908e90849088906125b0565b60405180910390a198506111be945050505050565b50505f815d509392505050565b6001600160a01b0381165f908152606f6020526040812054610710565b5f806111f7610b4c843361126e565b9050611204338585611a89565b61121033858386611b71565b9392505050565b60606073805461067f90612475565b5f806112323385611486565b905082811015611255576040516361ceb1d360e01b815260040160405180910390fd5b610df133858584036114f2565b5f61070c3384846118e5565b5f8061127a845f611686565b905080156112b2576112ad61128e84611c7a565b6112a56b033b2e3c9fd0803ce80000006002611ce1565b839190611737565b610e83565b5f949350505050565b5f806112cf606b546001600160a01b031690565b6001600160a01b0316633154b6e25f806040518363ffffffff1660e01b81526004016112fc9291906128f1565b602060405180830381865afa158015611317573d5f803e3d5ffd5b505050506040513d601f19601f8201168201806040525081019061133b9190612726565b9050610e8361134984611c7a565b611361611357610b1d610e24565b84610b458961166f565b90611cec565b834211156113915760405163184f1e0160e11b815260048101859052426024820152604401610830565b5f7f6e71edae12b1b97f4d1f60370fef10105fa2faae0126114a169c64845d6126c98888886113bf8c611d27565b6040805160208101969096526001600160a01b0394851690860152929091166060840152608083015260a082015260c0810186905260e0016040516020818303038152906040528051906020012090505f61141982611d4e565b90505f61142882878787611d9a565b9050896001600160a01b0316816001600160a01b03161461146f57604051635091bef560e01b81526001600160a01b0380831660048301528b166024820152604401610830565b61147a8a8a8a6114f2565b50505050505050505050565b6001600160a01b039182165f90815260706020908152604080832093909416825291909152205490565b5f6fffffffffffffffffffffffffffffffff818360018111156114d5576114d56126e3565b146114e257838116610e83565b608084901c811691505092915050565b6001600160a01b038316158061150f57506001600160a01b038216155b1561154057604051637db368a160e01b81526001600160a01b03808516600483015283166024820152604401610830565b6001600160a01b038381165f8181526070602090815260408083209487168084529482529182902085905590518481527f8c5be1e5ebec7d5bd14f71427d1e84f3dd0314c0f7b2291e5b200ac8c7c3b925910160405180910390a3505050565b606b5460405163db185e8960e01b8152306004820152602481018590526044810184905282151560648201526001600160a01b039091169063db185e89906084015f604051808303815f87803b1580156115f8575f80fd5b505af115801561160a573d5f803e3d5ffd5b50505050505050565b606d545f9061162290826114b0565b90505f61163b6001606d546114b090919063ffffffff16565b9050821561164e57908401908301611657565b90849003908390035b61166581608084901b612888565b606d555050505050565b5f610710826b033b2e3c9fd0803ce80000006126cc565b5f8061170961169d606b546001600160a01b031690565b6001600160a01b0316633154b6e25f866040518363ffffffff1660e01b81526004016116ca9291906128f1565b602060405180830381865afa1580156116e5573d5f803e3d5ffd5b505050506040513d601f19601f82011682018060405250810190610b1d9190612726565b9050610e8381611717610e24565b1561172c57611727610b1d610e24565b61172e565b825b610b458761166f565b604051633f9b43b760e11b815260048101849052602481018390525f908490849084908490819073__$a7d7f0af96ad7248e2170a1364c3372171$__90637f36876e906044016040805180830381865af4158015611797573d5f803e3d5ffd5b505050506040513d601f19601f820116820180604052508101906117bb91906125f4565b6040516399ed504f60e01b8152600481018390526024810182905260448101869052919350915073__$a7d7f0af96ad7248e2170a1364c3372171$__906399ed504f90606401602060405180830381865af415801561181c573d5f803e3d5ffd5b505050506040513d601f19601f820116820180604052508101906118409190612726565b9998505050505050505050565b5f6107106b033b2e3c9fd0803ce800000083612751565b603654610100900460ff1661188b5760405162461bcd60e51b81526004016108309061290e565b6118958282611dc0565b5050565b5f6118a48484611486565b90505f1981146118df57818110156118d2576040516306052b7f60e01b815260048101839052602401610830565b6118df84848484036114f2565b50505050565b6001600160a01b038316158061190257506001600160a01b038216155b1561193357604051637db368a160e01b81526001600160a01b03808516600483015283166024820152604401610830565b5f61193d82610e34565b6001600160a01b0385165f908152606e60205260409020549091508181101561197f578481836040516315c29bad60e31b8152600401610830939291906125b0565b6001600160a01b038086165f818152606e602052604080822086860390559287168082529083902080548601905591517fddf252ad1be2c89b69c2b068fc378daa952ba7f163c4a11628f55a4df523b3ef906119de9087815260200190565b60405180910390a35050505050565b5f61066b7f8b73c3c69bb8fe3d512ecc4cf759cc79239f7b179b0ffacaa9a75d522b39400f611a1b60375490565b6038546040805160208101859052908101839052606081018290524660808201523060a08201525f9060c0016040516020818303038152906040528051906020012090509392505050565b5f825f190484118302158202611a7a575f80fd5b50910281810615159190040190565b6001600160a01b0383161580611aa657506001600160a01b038216155b15611ad757604051637db368a160e01b81526001600160a01b03808516600483015283166024820152604401610830565b306001600160a01b03831603611b0057604051636d3bb4b960e11b815260040160405180910390fd5b6001600160a01b0383165f908152606e602052604090205480821115611b3f578381836040516315c29bad60e31b8152600401610830939291906125b0565b6001600160a01b039384165f908152606e60205260408082209284900390925592909316825291902080549091019055565b826001600160a01b0316846001600160a01b03167fddf252ad1be2c89b69c2b068fc378daa952ba7f163c4a11628f55a4df523b3ef84604051611bb691815260200190565b60405180910390a3826001600160a01b0316846001600160a01b03167f9d9c909296d9c674451c0c24f02cb64981eb3b727f99865939192f880a755dcb83604051611c0391815260200190565b60405180910390a350505050565b606b5f9054906101000a90046001600160a01b03166001600160a01b0316635c0c9cc36040518163ffffffff1660e01b81526004015f604051808303815f87803b158015611c5d575f80fd5b505af11580156118df573d5f803e3d5ffd5b5f6112108284612751565b5f610710611c956b033b2e3c9fd0803ce80000006002611ce1565b611cb6610b2d856001600160a01b03165f908152606e602052604090205490565b6001600160a01b0385165f908152606e6020526040902054610b4590610b1d9064e8d4a510006126cc565b5f6112108284612a39565b5f8282611cf98183612a44565b15611d05576001611d07565b5f5b60ff16611d148284612751565b611d1e9190612888565b95945050505050565b6001600160a01b0381165f908152606f602052604090208054600181018255905b50919050565b5f610710611d5a6119ed565b8360405161190160f01b602082015260228101839052604281018290525f9060620160405160208183030381529060405280519060200120905092915050565b5f805f611da987878787611e01565b91509150611db681611ee6565b5095945050505050565b603654610100900460ff16611de75760405162461bcd60e51b81526004016108309061290e565b815160209283012081519190920120603791909155603855565b5f807f7fffffffffffffffffffffffffffffff5d576e7357a4501ddfe92f46681b20a0831115611e3657505f90506003611edd565b8460ff16601b14158015611e4e57508460ff16601c14155b15611e5e57505f90506004611edd565b604080515f8082526020820180845289905260ff881692820192909252606081018690526080810185905260019060a0016020604051602081039080840390855afa158015611eaf573d5f803e3d5ffd5b5050604051601f1901519150506001600160a01b038116611ed7575f60019250925050611edd565b91505f90505b94509492505050565b5f816004811115611ef957611ef96126e3565b03611f015750565b6001816004811115611f1557611f156126e3565b03611f625760405162461bcd60e51b815260206004820152601860248201527f45434453413a20696e76616c6964207369676e617475726500000000000000006044820152606401610830565b6002816004811115611f7657611f766126e3565b03611fc35760405162461bcd60e51b815260206004820152601f60248201527f45434453413a20696e76616c6964207369676e6174757265206c656e677468006044820152606401610830565b6003816004811115611fd757611fd76126e3565b0361202f5760405162461bcd60e51b815260206004820152602260248201527f45434453413a20696e76616c6964207369676e6174757265202773272076616c604482015261756560f01b6064820152608401610830565b6004816004811115612043576120436126e3565b036103f55760405162461bcd60e51b815260206004820152602260248201527f45434453413a20696e76616c6964207369676e6174757265202776272076616c604482015261756560f01b6064820152608401610830565b6001600160a01b03811681146103f5575f80fd5b5f602082840312156120bf575f80fd5b81356112108161209b565b5f81518084525f5b818110156120ee576020818501810151868301820152016120d2565b505f602082860101526020601f19601f83011685010191505092915050565b602081525f61121060208301846120ca565b5f8060408385031215612130575f80fd5b823561213b8161209b565b946020939093013593505050565b634e487b7160e01b5f52604160045260245ffd5b6060810181811067ffffffffffffffff8211171561217d5761217d612149565b60405250565b601f8201601f1916810167ffffffffffffffff811182821017156121a9576121a9612149565b6040525050565b5f82601f8301126121bf575f80fd5b813567ffffffffffffffff8111156121d9576121d9612149565b6040516121f0601f8301601f191660200182612183565b818152846020838601011115612204575f80fd5b816020850160208301375f918101602001919091529392505050565b5f8060408385031215612231575f80fd5b823567ffffffffffffffff811115612247575f80fd5b612253858286016121b0565b92505060208301356122648161209b565b809150509250929050565b5f6020828403121561227f575f80fd5b5035919050565b5f805f8060808587031215612299575f80fd5b84356122a48161209b565b935060208501356122b48161209b565b9250604085013567ffffffffffffffff808211156122d0575f80fd5b6122dc888389016121b0565b935060608701359150808211156122f1575f80fd5b506122fe878288016121b0565b91505092959194509250565b5f805f6060848603121561231c575f80fd5b83356123278161209b565b925060208401356123378161209b565b929592945050506040919091013590565b5f805f6060848603121561235a575f80fd5b833567ffffffffffffffff811115612370575f80fd5b61237c868287016121b0565b935050602084013561238d8161209b565b9150604084013580151581146123a1575f80fd5b809150509250925092565b5f80604083850312156123bd575f80fd5b8235915060208301356122648161209b565b60ff811681146103f5575f80fd5b5f805f805f805f60e0888a0312156123f3575f80fd5b87356123fe8161209b565b9650602088013561240e8161209b565b95506040880135945060608801359350608088013561242c816123cf565b9699959850939692959460a0840135945060c09093013592915050565b5f806040838503121561245a575f80fd5b82356124658161209b565b915060208301356122648161209b565b600181811c9082168061248957607f821691505b602082108103611d4857634e487b7160e01b5f52602260045260245ffd5b80516124b28161209b565b919050565b5f80604083850312156124c8575f80fd5b825167ffffffffffffffff808211156124df575f80fd5b90840190606082870312156124f2575f80fd5b6040516124fe8161215d565b825181526020808401518183015260408401518381111561251d575f80fd5b80850194505087601f850112612531575f80fd5b83518381111561254357612543612149565b8060051b935060405161255883860182612183565b8181529385018201938281018a861115612570575f80fd5b958301955b8587101561258c5786518152958301958301612575565b5080604085015250508195506125a38188016124a7565b9450505050509250929050565b6001600160a01b039390931683526020830191909152604082015260600190565b6001600160a01b03831681526040602082018190525f90610e83908301846120ca565b5f8060408385031215612605575f80fd5b505080516020909101519092909150565b5f60033d111561262c5760045f803e505f5160e01c5b90565b5f60443d101561263c5790565b6040516003193d81016004833e81513d67ffffffffffffffff816024840111818411171561266c57505050505090565b82850191508151818111156126845750505050505090565b843d870101602082850101111561269e5750505050505090565b6126ad60208286010187612183565b509095945050505050565b634e487b7160e01b5f52601160045260245ffd5b8082028115828204841417610710576107106126b8565b634e487b7160e01b5f52602160045260245ffd5b600281106103f557634e487b7160e01b5f52602160045260245ffd5b60208101612720836126f7565b91905290565b5f60208284031215612736575f80fd5b5051919050565b634e487b7160e01b5f52601260045260245ffd5b5f8261275f5761275f61273d565b500490565b601f8211156127a857805f5260205f20601f840160051c810160208510156127895750805b601f840160051c820191505b81811015610dd3575f8155600101612795565b505050565b815167ffffffffffffffff8111156127c7576127c7612149565b6127db816127d58454612475565b84612764565b602080601f83116001811461280e575f84156127f75750858301515b5f19600386901b1c1916600185901b178555612865565b5f85815260208120601f198616915b8281101561283c5788860151825594840194600190910190840161281d565b508582101561285957878501515f19600388901b60f8161c191681555b505060018460011b0185555b505050505050565b5f6020828403121561287d575f80fd5b8151611210816123cf565b80820180821115610710576107106126b8565b5f8082840360808112156128ad575f80fd5b60608112156128ba575f80fd5b506040516128c78161215d565b8351815260208401516020820152604084015160408201528092505060608301516122648161209b565b82815260408101612901836126f7565b8260208301529392505050565b6020808252602b908201527f496e697469616c697a61626c653a20636f6e7472616374206973206e6f74206960408201526a6e697469616c697a696e6760a81b606082015260800190565b600181815b8085111561299357815f1904821115612979576129796126b8565b8085161561298657918102915b93841c939080029061295e565b509250929050565b5f826129a957506001610710565b816129b557505f610710565b81600181146129cb57600281146129d5576129f1565b6001915050610710565b60ff8411156129e6576129e66126b8565b50506001821b610710565b5060208310610133831016604e8410600b8410161715612a14575081810a610710565b612a1e8383612959565b805f1904821115612a3157612a316126b8565b029392505050565b5f611210838361299b565b5f82612a5257612a5261273d565b50069056fea2646970667358221220053ffff1a940e94863ef811e32980331fcad719c4f4e5603208306d4283dcdca64736f6c63430008180033","linkReferences":{"contracts/libraries/Uint512.sol":{"Uint512":[{"start":6225,"length":20},{"start":6357,"length":20}]}}},"methodIdentifiers":{"DOMAIN_SEPARATOR()":"3644e515","FORMAT_DECIMALS()":"a01c8774","allowance(address,address)":"dd62ed3e","approve(address,uint256)":"095ea7b3","asset()":"38d52e0f","balanceOf(address)":"70a08231","claimReward()":"b88a802f","convertToOzTokens(uint256,address)":"bc93f1cf","convertToShares(uint256,address)":"d295fa9a","convertToSharesFromOzBalance(uint256)":"69e41c62","convertToUnderlying(uint256)":"1dc7f521","decimals()":"313ce567","decreaseAllowance(address,uint256)":"a457c2d7","deposits(address)":"fc7e286d","earned(address)":"008cc262","getRewardsData()":"7d098e64","increaseAllowance(address,uint256)":"39509351","initialize(address,address,string,string)":"2016a0d2","lastTimeRewardApplicable()":"80faa57d","mint(bytes,address)":"0cae37f1","mint2(bytes,address,bool)":"7b044637","name()":"06fdde03","nonces(address)":"7ecebe00","notifyRewardAmount(uint256)":"3c6b16ab","permit(address,address,uint256,uint256,uint8,bytes32,bytes32)":"d505accf","redeem(bytes,address)":"0ba097d6","rewardPerToken()":"cd3daf9d","setRewardsDuration(uint256)":"cc1a378f","sharesOf(address)":"f5eb42dc","symbol()":"95d89b41","totalAssets()":"01e1d114","totalShares()":"3a98ef39","totalSupply()":"18160ddd","transfer(address,uint256)":"a9059cbb","transferFrom(address,address,uint256)":"23b872dd","transferShares(address,uint256)":"8fcb4e5b","transferSharesFrom(address,address,uint256)":"6d780459"},"id":45}