{
  "abi": [
    {
      "inputs": [],
      "stateMutability": "nonpayable",
      "type": "constructor"
    },
    {
      "inputs": [],
      "name": "OZError03",
      "type": "error"
    },
    {
      "inputs": [
        {
          "internalType": "address",
          "name": "from",
          "type": "address"
        },
        {
          "internalType": "address",
          "name": "to",
          "type": "address"
        }
      ],
      "name": "OZError04",
      "type": "error"
    },
    {
      "inputs": [
        {
          "internalType": "uint256",
          "name": "amount",
          "type": "uint256"
        }
      ],
      "name": "OZError05",
      "type": "error"
    },
    {
      "inputs": [
        {
          "internalType": "address",
          "name": "sender",
          "type": "address"
        },
        {
          "internalType": "uint256",
          "name": "accountShares",
          "type": "uint256"
        },
        {
          "internalType": "uint256",
          "name": "shares",
          "type": "uint256"
        }
      ],
      "name": "OZError06",
      "type": "error"
    },
    {
      "inputs": [
        {
          "internalType": "address",
          "name": "from",
          "type": "address"
        },
        {
          "internalType": "uint256",
          "name": "fromShares",
          "type": "uint256"
        },
        {
          "internalType": "uint256",
          "name": "shares",
          "type": "uint256"
        }
      ],
      "name": "OZError07",
      "type": "error"
    },
    {
      "inputs": [
        {
          "internalType": "uint256",
          "name": "deadline",
          "type": "uint256"
        },
        {
          "internalType": "uint256",
          "name": "blockTimestamp",
          "type": "uint256"
        }
      ],
      "name": "OZError08",
      "type": "error"
    },
    {
      "inputs": [
        {
          "internalType": "address",
          "name": "owner",
          "type": "address"
        },
        {
          "internalType": "address",
          "name": "spender",
          "type": "address"
        }
      ],
      "name": "OZError09",
      "type": "error"
    },
    {
      "inputs": [
        {
          "internalType": "string",
          "name": "reason",
          "type": "string"
        }
      ],
      "name": "OZError22",
      "type": "error"
    },
    {
      "anonymous": false,
      "inputs": [
        {
          "indexed": true,
          "internalType": "address",
          "name": "owner",
          "type": "address"
        },
        {
          "indexed": true,
          "internalType": "address",
          "name": "spender",
          "type": "address"
        },
        {
          "indexed": false,
          "internalType": "uint256",
          "name": "value",
          "type": "uint256"
        }
      ],
      "name": "Approval",
      "type": "event"
    },
    {
      "anonymous": false,
      "inputs": [
        {
          "indexed": false,
          "internalType": "uint8",
          "name": "version",
          "type": "uint8"
        }
      ],
      "name": "Initialized",
      "type": "event"
    },
    {
      "anonymous": false,
      "inputs": [
        {
          "indexed": true,
          "internalType": "address",
          "name": "from",
          "type": "address"
        },
        {
          "indexed": true,
          "internalType": "address",
          "name": "to",
          "type": "address"
        },
        {
          "indexed": false,
          "internalType": "uint256",
          "name": "value",
          "type": "uint256"
        }
      ],
      "name": "Transfer",
      "type": "event"
    },
    {
      "inputs": [],
      "name": "DOMAIN_SEPARATOR",
      "outputs": [
        {
          "internalType": "bytes32",
          "name": "",
          "type": "bytes32"
        }
      ],
      "stateMutability": "view",
      "type": "function"
    },
    {
      "inputs": [],
      "name": "FORMAT_DECIMALS",
      "outputs": [
        {
          "internalType": "uint256",
          "name": "",
          "type": "uint256"
        }
      ],
      "stateMutability": "view",
      "type": "function"
    },
    {
      "inputs": [
        {
          "internalType": "address",
          "name": "owner",
          "type": "address"
        },
        {
          "internalType": "address",
          "name": "spender",
          "type": "address"
        }
      ],
      "name": "allowance",
      "outputs": [
        {
          "internalType": "uint256",
          "name": "",
          "type": "uint256"
        }
      ],
      "stateMutability": "view",
      "type": "function"
    },
    {
      "inputs": [
        {
          "internalType": "address",
          "name": "spender",
          "type": "address"
        },
        {
          "internalType": "uint256",
          "name": "amount",
          "type": "uint256"
        }
      ],
      "name": "approve",
      "outputs": [
        {
          "internalType": "bool",
          "name": "",
          "type": "bool"
        }
      ],
      "stateMutability": "nonpayable",
      "type": "function"
    },
    {
      "inputs": [],
      "name": "asset",
      "outputs": [
        {
          "internalType": "address",
          "name": "",
          "type": "address"
        }
      ],
      "stateMutability": "view",
      "type": "function"
    },
    {
      "inputs": [
        {
          "internalType": "address",
          "name": "account_",
          "type": "address"
        }
      ],
      "name": "balanceOf",
      "outputs": [
        {
          "internalType": "uint256",
          "name": "",
          "type": "uint256"
        }
      ],
      "stateMutability": "view",
      "type": "function"
    },
    {
      "inputs": [],
      "name": "claimReward",
      "outputs": [
        {
          "internalType": "uint256",
          "name": "",
          "type": "uint256"
        }
      ],
      "stateMutability": "nonpayable",
      "type": "function"
    },
    {
      "inputs": [
        {
          "internalType": "uint256",
          "name": "shares",
          "type": "uint256"
        },
        {
          "internalType": "address",
          "name": "account_",
          "type": "address"
        }
      ],
      "name": "convertToAssets",
      "outputs": [
        {
          "internalType": "uint256",
          "name": "assets",
          "type": "uint256"
        }
      ],
      "stateMutability": "view",
      "type": "function"
    },
    {
      "inputs": [
        {
          "internalType": "uint256",
          "name": "assets",
          "type": "uint256"
        }
      ],
      "name": "convertToShares",
      "outputs": [
        {
          "internalType": "uint256",
          "name": "shares",
          "type": "uint256"
        }
      ],
      "stateMutability": "view",
      "type": "function"
    },
    {
      "inputs": [
        {
          "internalType": "uint256",
          "name": "shares_",
          "type": "uint256"
        }
      ],
      "name": "convertToUnderlying",
      "outputs": [
        {
          "internalType": "uint256",
          "name": "amountUnderlying",
          "type": "uint256"
        }
      ],
      "stateMutability": "view",
      "type": "function"
    },
    {
      "inputs": [],
      "name": "decimals",
      "outputs": [
        {
          "internalType": "uint8",
          "name": "",
          "type": "uint8"
        }
      ],
      "stateMutability": "pure",
      "type": "function"
    },
    {
      "inputs": [
        {
          "internalType": "address",
          "name": "spender",
          "type": "address"
        },
        {
          "internalType": "uint256",
          "name": "subtractedValue",
          "type": "uint256"
        }
      ],
      "name": "decreaseAllowance",
      "outputs": [
        {
          "internalType": "bool",
          "name": "",
          "type": "bool"
        }
      ],
      "stateMutability": "nonpayable",
      "type": "function"
    },
    {
      "inputs": [
        {
          "internalType": "address",
          "name": "user_",
          "type": "address"
        }
      ],
      "name": "earned",
      "outputs": [
        {
          "internalType": "uint256",
          "name": "",
          "type": "uint256"
        }
      ],
      "stateMutability": "view",
      "type": "function"
    },
    {
      "inputs": [],
      "name": "getRewardsData",
      "outputs": [
        {
          "internalType": "uint256",
          "name": "rewardRate",
          "type": "uint256"
        },
        {
          "internalType": "uint256",
          "name": "circulatingSupply",
          "type": "uint256"
        },
        {
          "internalType": "uint256",
          "name": "pendingAllocation",
          "type": "uint256"
        },
        {
          "internalType": "uint256",
          "name": "recicledSupply",
          "type": "uint256"
        },
        {
          "internalType": "int256",
          "name": "durationLeft",
          "type": "int256"
        }
      ],
      "stateMutability": "view",
      "type": "function"
    },
    {
      "inputs": [
        {
          "internalType": "address",
          "name": "spender",
          "type": "address"
        },
        {
          "internalType": "uint256",
          "name": "addedValue",
          "type": "uint256"
        }
      ],
      "name": "increaseAllowance",
      "outputs": [
        {
          "internalType": "bool",
          "name": "",
          "type": "bool"
        }
      ],
      "stateMutability": "nonpayable",
      "type": "function"
    },
    {
      "inputs": [
        {
          "internalType": "address",
          "name": "underlying_",
          "type": "address"
        },
        {
          "internalType": "address",
          "name": "diamond_",
          "type": "address"
        },
        {
          "internalType": "string",
          "name": "name_",
          "type": "string"
        },
        {
          "internalType": "string",
          "name": "symbol_",
          "type": "string"
        }
      ],
      "name": "initialize",
      "outputs": [],
      "stateMutability": "nonpayable",
      "type": "function"
    },
    {
      "inputs": [],
      "name": "lastTimeRewardApplicable",
      "outputs": [
        {
          "internalType": "uint256",
          "name": "",
          "type": "uint256"
        }
      ],
      "stateMutability": "view",
      "type": "function"
    },
    {
      "inputs": [
        {
          "internalType": "bytes",
          "name": "data_",
          "type": "bytes"
        },
        {
          "internalType": "address",
          "name": "owner_",
          "type": "address"
        }
      ],
      "name": "mint",
      "outputs": [
        {
          "internalType": "uint256",
          "name": "",
          "type": "uint256"
        }
      ],
      "stateMutability": "nonpayable",
      "type": "function"
    },
    {
      "inputs": [],
      "name": "name",
      "outputs": [
        {
          "internalType": "string",
          "name": "",
          "type": "string"
        }
      ],
      "stateMutability": "view",
      "type": "function"
    },
    {
      "inputs": [
        {
          "internalType": "address",
          "name": "owner",
          "type": "address"
        }
      ],
      "name": "nonces",
      "outputs": [
        {
          "internalType": "uint256",
          "name": "",
          "type": "uint256"
        }
      ],
      "stateMutability": "view",
      "type": "function"
    },
    {
      "inputs": [
        {
          "internalType": "uint256",
          "name": "amount_",
          "type": "uint256"
        }
      ],
      "name": "notifyRewardAmount",
      "outputs": [],
      "stateMutability": "nonpayable",
      "type": "function"
    },
    {
      "inputs": [
        {
          "internalType": "address",
          "name": "owner",
          "type": "address"
        },
        {
          "internalType": "address",
          "name": "spender",
          "type": "address"
        },
        {
          "internalType": "uint256",
          "name": "value",
          "type": "uint256"
        },
        {
          "internalType": "uint256",
          "name": "deadline",
          "type": "uint256"
        },
        {
          "internalType": "uint8",
          "name": "v",
          "type": "uint8"
        },
        {
          "internalType": "bytes32",
          "name": "r",
          "type": "bytes32"
        },
        {
          "internalType": "bytes32",
          "name": "s_",
          "type": "bytes32"
        }
      ],
      "name": "permit",
      "outputs": [],
      "stateMutability": "nonpayable",
      "type": "function"
    },
    {
      "inputs": [
        {
          "internalType": "uint256",
          "name": "assets_",
          "type": "uint256"
        }
      ],
      "name": "previewMint",
      "outputs": [
        {
          "internalType": "uint256",
          "name": "",
          "type": "uint256"
        }
      ],
      "stateMutability": "view",
      "type": "function"
    },
    {
      "inputs": [
        {
          "internalType": "uint256",
          "name": "shares_",
          "type": "uint256"
        }
      ],
      "name": "previewRedeem",
      "outputs": [
        {
          "internalType": "uint256",
          "name": "",
          "type": "uint256"
        }
      ],
      "stateMutability": "view",
      "type": "function"
    },
    {
      "inputs": [
        {
          "internalType": "uint256",
          "name": "assets",
          "type": "uint256"
        }
      ],
      "name": "previewWithdraw",
      "outputs": [
        {
          "internalType": "uint256",
          "name": "",
          "type": "uint256"
        }
      ],
      "stateMutability": "view",
      "type": "function"
    },
    {
      "inputs": [
        {
          "internalType": "bytes",
          "name": "data_",
          "type": "bytes"
        },
        {
          "internalType": "address",
          "name": "owner_",
          "type": "address"
        }
      ],
      "name": "redeem",
      "outputs": [
        {
          "internalType": "uint256",
          "name": "",
          "type": "uint256"
        }
      ],
      "stateMutability": "nonpayable",
      "type": "function"
    },
    {
      "inputs": [],
      "name": "rewardPerToken",
      "outputs": [
        {
          "internalType": "uint256",
          "name": "",
          "type": "uint256"
        }
      ],
      "stateMutability": "view",
      "type": "function"
    },
    {
      "inputs": [
        {
          "internalType": "uint256",
          "name": "duration_",
          "type": "uint256"
        }
      ],
      "name": "setRewardsDuration",
      "outputs": [],
      "stateMutability": "nonpayable",
      "type": "function"
    },
    {
      "inputs": [
        {
          "internalType": "address",
          "name": "account_",
          "type": "address"
        }
      ],
      "name": "sharesOf",
      "outputs": [
        {
          "internalType": "uint256",
          "name": "",
          "type": "uint256"
        }
      ],
      "stateMutability": "view",
      "type": "function"
    },
    {
      "inputs": [
        {
          "internalType": "address",
          "name": "account_",
          "type": "address"
        }
      ],
      "name": "subBalanceOf",
      "outputs": [
        {
          "internalType": "uint256",
          "name": "",
          "type": "uint256"
        }
      ],
      "stateMutability": "view",
      "type": "function"
    },
    {
      "inputs": [
        {
          "internalType": "uint256",
          "name": "assets",
          "type": "uint256"
        },
        {
          "internalType": "address",
          "name": "account_",
          "type": "address"
        }
      ],
      "name": "subConvertToShares",
      "outputs": [
        {
          "internalType": "uint256",
          "name": "shares",
          "type": "uint256"
        }
      ],
      "stateMutability": "view",
      "type": "function"
    },
    {
      "inputs": [],
      "name": "symbol",
      "outputs": [
        {
          "internalType": "string",
          "name": "",
          "type": "string"
        }
      ],
      "stateMutability": "view",
      "type": "function"
    },
    {
      "inputs": [],
      "name": "totalAssets",
      "outputs": [
        {
          "internalType": "uint256",
          "name": "",
          "type": "uint256"
        }
      ],
      "stateMutability": "view",
      "type": "function"
    },
    {
      "inputs": [],
      "name": "totalShares",
      "outputs": [
        {
          "internalType": "uint256",
          "name": "",
          "type": "uint256"
        }
      ],
      "stateMutability": "view",
      "type": "function"
    },
    {
      "inputs": [],
      "name": "totalSupply",
      "outputs": [
        {
          "internalType": "uint256",
          "name": "",
          "type": "uint256"
        }
      ],
      "stateMutability": "view",
      "type": "function"
    },
    {
      "inputs": [
        {
          "internalType": "address",
          "name": "to",
          "type": "address"
        },
        {
          "internalType": "uint256",
          "name": "amount",
          "type": "uint256"
        }
      ],
      "name": "transfer",
      "outputs": [
        {
          "internalType": "bool",
          "name": "",
          "type": "bool"
        }
      ],
      "stateMutability": "nonpayable",
      "type": "function"
    },
    {
      "inputs": [
        {
          "internalType": "address",
          "name": "from",
          "type": "address"
        },
        {
          "internalType": "address",
          "name": "to",
          "type": "address"
        },
        {
          "internalType": "uint256",
          "name": "amount",
          "type": "uint256"
        }
      ],
      "name": "transferFrom",
      "outputs": [
        {
          "internalType": "bool",
          "name": "",
          "type": "bool"
        }
      ],
      "stateMutability": "nonpayable",
      "type": "function"
    }
  ],
  "bytecode": {
    "object": "0x60806040523480156200001157600080fd5b506200001c62000022565b620000e4565b602b54610100900460ff16156200008f5760405162461bcd60e51b815260206004820152602760248201527f496e697469616c697a61626c653a20636f6e747261637420697320696e697469604482015266616c697a696e6760c81b606482015260840160405180910390fd5b602b5460ff9081161015620000e257602b805460ff191660ff9081179091556040519081527f7f26b83ff96e1f2b6a682f133852f6798a09c465da95921460cefb38474024989060200160405180910390a15b565b6128d280620000f46000396000f3fe608060405234801561001057600080fd5b50600436106102265760003560e01c80633c6b16ab11610130578063a457c2d7116100b8578063cc1a378f1161007c578063cc1a378f14610381578063cd3daf9d1461040b578063d505accf1461045c578063dd62ed3e1461046f578063f5eb42dc1461048257600080fd5b8063a457c2d714610423578063a9059cbb14610436578063b3d7f6b914610449578063b88a802f1461040b578063c6e6f5921461029257600080fd5b80637d098e64116100ff5780637d098e64146103cb5780637ecebe00146103f857806380faa57d1461040b57806395d89b4114610412578063a01c87741461041a57600080fd5b80633c6b16ab146103815780634702a084146103925780634cdad506146103a557806370a08231146103b857600080fd5b80632016a0d2116101b3578063361032911161018257806336103291146103305780633644e5151461034357806338d52e0f1461034b57806339509351146103665780633a98ef391461037957600080fd5b80632016a0d2146102e657806323b872dd146102fb578063313ce5671461030e57806332e506901461031d57600080fd5b80630a28a477116101fa5780630a28a477146102925780630ba097d6146102a55780630cae37f1146102b857806318160ddd146102cb5780631dc7f521146102d357600080fd5b80628cc2621461022b57806301e1d1141461025257806306fdde031461025a578063095ea7b31461026f575b600080fd5b61023f610239366004611e78565b50600090565b6040519081526020015b60405180910390f35b61023f6104ab565b6102626104c0565b6040516102499190611ee5565b61028261027d366004611ef8565b610552565b6040519015158152602001610249565b61023f6102a0366004611f24565b610569565b61023f6102b3366004611fde565b610574565b61023f6102c6366004611fde565b61085f565b61023f610a47565b61023f6102e1366004611f24565b610a9c565b6102f96102f4366004612064565b610b2c565b005b6102826103093660046120ed565b610d2a565b60405160128152602001610249565b61023f61032b366004611e78565b610d4c565b61023f61033e36600461212e565b610d6e565b61023f610d81565b6061546040516001600160a01b039091168152602001610249565b610282610374366004611ef8565b610d8b565b61023f610dac565b6102f961038f366004611f24565b50565b61023f6103a036600461212e565b610dbd565b61023f6103b3366004611f24565b610dc9565b61023f6103c6366004611e78565b610dd4565b6040805160008082526020820181905291810182905260608101829052608081019190915260a001610249565b61023f610406366004611e78565b610df7565b600061023f565b610262610e15565b61023f60685481565b610282610431366004611ef8565b610e24565b610282610444366004611ef8565b610e61565b61023f610457366004611f24565b610e6e565b6102f961046a366004612162565b610e79565b61023f61047d3660046121d3565b610f9b565b61023f610490366004611e78565b6001600160a01b031660009081526063602052604090205490565b6062546000906104bb9082610fc6565b905090565b6060606680546104cf90612201565b80601f01602080910402602001604051908101604052809291908181526020018280546104fb90612201565b80156105485780601f1061051d57610100808354040283529160200191610548565b820191906000526020600020905b81548152906001019060200180831161052b57829003601f168201915b5050505050905090565b600061055f338484611009565b5060015b92915050565b6000610563826110b8565b60605460009082906001600160a01b031680156105ea576040516241fec360e31b81526001600160a01b03838116600483015282169063020ff61890602401600060405180830381600087803b1580156105cd57600080fd5b505af11580156105e1573d6000803e3d6000fd5b5050505061062e565b6000601a5560006018556001600160a01b0382161561062e576001600160a01b0382166000908152601e60209081526040808320839055601a54601d909252909120555b60008580602001905181019061064491906122b6565b5090506000610668866001600160a01b031660009081526063602052604090205490565b9050600061067a836000015188610dbd565b90506106ae6040518060400160405280600c81526020016b037bd20b6b7bab73a24b71d160a51b81525084600001516110e6565b6106d06040518060600160405280602281526020016127c660229139826110e6565b6106f26040518060600160405280603281526020016127e860329139836110e6565b8082101561073157604051637ac073bf60e01b81526001600160a01b038816600482015260248101839052604481018290526064015b60405180910390fd5b600061073c82610dc9565b6060546040516314370d6760e31b81529192506001600160a01b03169063a1b86b389061076f908b908d9060040161235b565b60408051808303816000875af19250505080156107a9575060408051601f3d908101601f191682019092526107a69181019061237f565b60015b6107fb576107b56123a3565b806308c379a0036107ef57506107c96123bf565b806107d457506107f1565b80604051631bc63b8160e01b81526004016107289190611ee5565b505b3d6000803e3d6000fd5b61080682600061112f565b6060546001600160a01b0316600090815260636020526040902054945061082f8386600061119f565b6060546001600160a01b03166000908152606360205260408120559750610857945050505050565b505092915050565b60605460009082906001600160a01b031680156108d5576040516241fec360e31b81526001600160a01b03838116600483015282169063020ff61890602401600060405180830381600087803b1580156108b857600080fd5b505af11580156108cc573d6000803e3d6000fd5b50505050610919565b6000601a5560006018556001600160a01b03821615610919576001600160a01b0382166000908152601e60209081526040808320839055601a54601d909252909120555b600080868060200190518101906109309190612449565b6068548251929450909250600091610947916111fd565b6060549091506001600160a01b0316639ea04fe461096d6061546001600160a01b031690565b89866040518463ffffffff1660e01b815260040161098d939291906124e2565b6020604051808303816000875af19250505080156109c8575060408051601f3d908101601f191682019092526109c59181019061255b565b60015b6109d4576107b56123a3565b6109df81600161112f565b60006109e9610dac565b156109fc576109f783610e6e565b6109fe565b825b9050610a0c8382600161119f565b6001600160a01b0390931660009081526063602090815260408083208054870190556069909152902080549092019091555093506108579050565b6000610a51610dac565b1561023957610a66610a61610dac565b611209565b610a6e6104ab565b610a7d9064e8d4a5100061258a565b610a8791906125a1565b610a92610a61610dac565b6104bb919061258a565b6000610aa6610dac565b60605460405163a4fc284b60e01b81526001600160a01b039091169063a4fc284b90610ad7906001906004016125d9565b602060405180830381865afa158015610af4573d6000803e3d6000fd5b505050506040513d601f19601f82011682018060405250810190610b18919061255b565b610b22908461258a565b61056391906125a1565b602b54610100900460ff1615808015610b4c5750602b54600160ff909116105b80610b665750303b158015610b665750602b5460ff166001145b610bc95760405162461bcd60e51b815260206004820152602e60248201527f496e697469616c697a61626c653a20636f6e747261637420697320616c72656160448201526d191e481a5b9a5d1a585b1a5e995960921b6064820152608401610728565b602b805460ff191660011790558015610bec57602b805461ff0019166101001790555b6066610bf8848261264c565b506067610c05838261264c565b50606080546001600160a01b038087166001600160a01b03199283161790925560618054928816929091169190911790556040805180820190915260018152603160f81b6020820152610c5990849061124c565b846001600160a01b031663313ce5676040518163ffffffff1660e01b8152600401602060405180830381865afa158015610c97573d6000803e3d6000fd5b505050506040513d601f19601f82011682018060405250810190610cbb919061270c565b60ff16601214610ccc576001610cd3565b64e8d4a510005b64ffffffffff166068558015610d2357602b805461ff0019169055604051600181527f7f26b83ff96e1f2b6a682f133852f6798a09c465da95921460cefb38474024989060200160405180910390a15b5050505050565b6000610d3784338461127d565b610d428484846112cb565b5060019392505050565b6001600160a01b03811660009081526063602052604081205461056390611209565b6000610d7a838361148d565b9392505050565b60006104bb6114c3565b600061055f338484610d9d3388610f9b565b610da79190612729565b611009565b6062546000906104bb906001610fc6565b6000610d7a838361153e565b6000610563826116aa565b6001600160a01b0381166000908152606360205260408120546105639083610d6e565b6001600160a01b038116600090815260646020526040812054610563565b6060606780546104cf90612201565b600080610e313385610f9b565b905082811015610e54576040516361ceb1d360e01b815260040160405180910390fd5b610d423385858403611009565b600061055f3384846112cb565b60006105638261172d565b83421115610ea35760405163184f1e0160e11b815260048101859052426024820152604401610728565b60007f6e71edae12b1b97f4d1f60370fef10105fa2faae0126114a169c64845d6126c9888888610ed28c611742565b6040805160208101969096526001600160a01b0394851690860152929091166060840152608083015260a082015260c0810186905260e0016040516020818303038152906040528051906020012090506000610f2d8261176a565b90506000610f3d828787876117b8565b9050896001600160a01b0316816001600160a01b031614610f8457604051635091bef560e01b81526001600160a01b0380831660048301528b166024820152604401610728565b610f8f8a8a8a611009565b50505050505050505050565b6001600160a01b03918216600090815260656020908152604080832093909416825291909152205490565b60006fffffffffffffffffffffffffffffffff81836001811115610fec57610fec6125c3565b14610ff957838116611001565b608084901c81165b949350505050565b6001600160a01b038316158061102657506001600160a01b038216155b1561105757604051637db368a160e01b81526001600160a01b03808516600483015283166024820152604401610728565b6001600160a01b0383811660008181526065602090815260408083209487168084529482529182902085905590518481527f8c5be1e5ebec7d5bd14f71427d1e84f3dd0314c0f7b2291e5b200ac8c7c3b925910160405180910390a3505050565b6060546000906001600160a01b0316816110d1826117e0565b90506110016110de610dac565b85908361182c565b61112b82826040516024016110fc92919061273c565b60408051601f198184030181529190526020810180516001600160e01b03166309710a9d60e41b179052611852565b5050565b60605460405163b0ff97b560e01b81523060048201526024810184905282151560448201526001600160a01b039091169063b0ff97b590606401600060405180830381600087803b15801561118357600080fd5b505af1158015611197573d6000803e3d6000fd5b505050505050565b6062546000906111af9082610fc6565b905060006111c96001606254610fc690919063ffffffff16565b905082156111dc579084019083016111e5565b90849003908390035b6111f382608083901b612729565b6062555050505050565b6000610d7a82846125a1565b6060546000906001600160a01b031681611222826117e0565b905061100181611230610dac565b156112425761123d610dac565b611244565b825b869190611873565b602b54610100900460ff166112735760405162461bcd60e51b81526004016107289061275e565b61112b8282611891565b60006112898484610f9b565b905060001981146112c557818110156112b8576040516306052b7f60e01b815260048101839052602401610728565b6112c58484848403611009565b50505050565b6001600160a01b03831615806112e857506001600160a01b038216155b1561131957604051637db368a160e01b81526001600160a01b03808516600483015283166024820152604401610728565b6000611324846118d2565b61132d83610569565b61133791906125a1565b6001600160a01b03851660009081526063602090815260408083205481519283019091529181529192509061136b90611a47565b6113a0604051806040016040528060148152602001732d2d2d20696e205f7472616e73666572202d2d2d60601b815250611a47565b6113c260405180606001604052806031815260200161283f60319139836110e6565b6113e46040518060600160405280602d8152602001612870602d9139826110e6565b8181101561141e576040516315c29bad60e31b81526001600160a01b03861660048201526024810182905260448101839052606401610728565b6001600160a01b0380861660008181526063602052604080822086860390559287168082529083902080548601905591517fddf252ad1be2c89b69c2b068fc378daa952ba7f163c4a11628f55a4df523b3ef9061147e9087815260200190565b60405180910390a35050505050565b60008061149984611209565b905080156114b9576114aa836118d2565b6114b4908261258a565b611001565b5060009392505050565b60006104bb7f8b73c3c69bb8fe3d512ecc4cf759cc79239f7b179b0ffacaa9a75d522b39400f6114f2602c5490565b602d546040805160208101859052908101839052606081018290524660808201523060a082015260009060c0016040516020818303038152906040528051906020012090509392505050565b600061155860405180602001604052806000815250611a47565b6115966040518060400160405280601b81526020017f2d2d2d20696e205f636f6e76657274546f536861726573202d2d2d0000000000815250611a47565b6115c160405180604001604052806009815260200168030b9b9b2ba39af9d160bd1b815250846110e6565b6115f76040518060400160405280600d81526020016c03a37ba30b629b430b932b99d1609d1b8152506115f2610dac565b6110e6565b6116286040518060400160405280600d81526020016c03a37ba30b620b9b9b2ba399d1609d1b8152506115f26104ab565b6060546001600160a01b0316600061163f826117e0565b905061166d6040518060400160405280600a81526020016903932ba342fb2ba341d160b51b815250826110e6565b611676846118d2565b620186a061168d611685610dac565b88908561182c565b61169791906125a1565b6116a191906125a1565b95945050505050565b606054604051634be9756960e11b8152306004820152600091610563916001600160a01b03909116906397d2ead290602401602060405180830381865afa1580156116f9573d6000803e3d6000fd5b505050506040513d601f19601f8201168201806040525081019061171d919061255b565b611725610a47565b849190611873565b600061056361173a610dac565b6117256104ab565b6001600160a01b03811660009081526064602052604090208054600181018255905b50919050565b60006105636117776114c3565b8360405161190160f01b6020820152602281018390526042810182905260009060620160405160208183030381529060405280519060200120905092915050565b60008060006117c987878787611a8a565b915091506117d681611b77565b5095945050505050565b6040805160048152602481019091526020810180516001600160e01b0316636a57db9d60e11b1790526000906118168382611d2d565b905080806020019051810190610d7a919061255b565b600082600019048411830215820261184357600080fd5b50910281810615159190040190565b80516a636f6e736f6c652e6c6f67602083016000808483855afa5050505050565b600082600019048411830215820261188a57600080fd5b5091020490565b602b54610100900460ff166118b85760405162461bcd60e51b81526004016107289061275e565b815160209283012081519190920120602c91909155602d55565b60006118ec60405180602001604052806000815250611a47565b61192a6040518060400160405280601981526020017f2d2d2d20696e207363616c696e6720666163746f72202d2d2d00000000000000815250611a47565b6119846040518060400160405280601381526020017202fb0b9b9b2ba39adb0b1b1b7bab73a2fae9d1606d1b81525060696000856001600160a01b03166001600160a01b03168152602001908152602001600020546110e6565b6119c66040518060400160405280601881526020017f73756242616c616e63654f66286163636f756e745f293a2000000000000000008152506115f284610d4c565b6119de60405180602001604052806000815250611a47565b60006119e983610d4c565b6001600160a01b038416600090815260696020526040902054611a119064e8d4a5100061258a565b611a1b91906125a1565b90506105636040518060400160405280600881526020016703330b1ba37b91d160c51b815250826110e6565b61038f81604051602401611a5b9190611ee5565b60408051601f198184030181529190526020810180516001600160e01b031663104c13eb60e21b179052611852565b6000807f7fffffffffffffffffffffffffffffff5d576e7357a4501ddfe92f46681b20a0831115611ac15750600090506003611b6e565b8460ff16601b14158015611ad957508460ff16601c14155b15611aea5750600090506004611b6e565b6040805160008082526020820180845289905260ff881692820192909252606081018690526080810185905260019060a0016020604051602081039080840390855afa158015611b3e573d6000803e3d6000fd5b5050604051601f1901519150506001600160a01b038116611b6757600060019250925050611b6e565b9150600090505b94509492505050565b6000816004811115611b8b57611b8b6125c3565b03611b935750565b6001816004811115611ba757611ba76125c3565b03611bf45760405162461bcd60e51b815260206004820152601860248201527f45434453413a20696e76616c6964207369676e617475726500000000000000006044820152606401610728565b6002816004811115611c0857611c086125c3565b03611c555760405162461bcd60e51b815260206004820152601f60248201527f45434453413a20696e76616c6964207369676e6174757265206c656e677468006044820152606401610728565b6003816004811115611c6957611c696125c3565b03611cc15760405162461bcd60e51b815260206004820152602260248201527f45434453413a20696e76616c6964207369676e6174757265202773272076616c604482015261756560f01b6064820152608401610728565b6004816004811115611cd557611cd56125c3565b0361038f5760405162461bcd60e51b815260206004820152602260248201527f45434453413a20696e76616c6964207369676e6174757265202776272076616c604482015261756560f01b6064820152608401610728565b6060610d7a838360405180606001604052806025815260200161281a602591396060600080856001600160a01b031685604051611d6a91906127a9565b600060405180830381855afa9150503d8060008114611da5576040519150601f19603f3d011682016040523d82523d6000602084013e611daa565b606091505b5091509150611dbb86838387611dc5565b9695505050505050565b60608315611e34578251600003611e2d576001600160a01b0385163b611e2d5760405162461bcd60e51b815260206004820152601d60248201527f416464726573733a2063616c6c20746f206e6f6e2d636f6e74726163740000006044820152606401610728565b5081611001565b6110018383815115611e495781518083602001fd5b8060405162461bcd60e51b81526004016107289190611ee5565b6001600160a01b038116811461038f57600080fd5b600060208284031215611e8a57600080fd5b8135610d7a81611e63565b60005b83811015611eb0578181015183820152602001611e98565b50506000910152565b60008151808452611ed1816020860160208601611e95565b601f01601f19169290920160200192915050565b602081526000610d7a6020830184611eb9565b60008060408385031215611f0b57600080fd5b8235611f1681611e63565b946020939093013593505050565b600060208284031215611f3657600080fd5b5035919050565b634e487b7160e01b600052604160045260246000fd5b601f8201601f1916810167ffffffffffffffff81118282101715611f7957611f79611f3d565b6040525050565b600067ffffffffffffffff831115611f9a57611f9a611f3d565b604051611fb1601f8501601f191660200182611f53565b809150838152848484011115611fc657600080fd5b83836020830137600060208583010152509392505050565b60008060408385031215611ff157600080fd5b823567ffffffffffffffff81111561200857600080fd5b8301601f8101851361201957600080fd5b61202885823560208401611f80565b925050602083013561203981611e63565b809150509250929050565b600082601f83011261205557600080fd5b610d7a83833560208501611f80565b6000806000806080858703121561207a57600080fd5b843561208581611e63565b9350602085013561209581611e63565b9250604085013567ffffffffffffffff808211156120b257600080fd5b6120be88838901612044565b935060608701359150808211156120d457600080fd5b506120e187828801612044565b91505092959194509250565b60008060006060848603121561210257600080fd5b833561210d81611e63565b9250602084013561211d81611e63565b929592945050506040919091013590565b6000806040838503121561214157600080fd5b82359150602083013561203981611e63565b60ff8116811461038f57600080fd5b600080600080600080600060e0888a03121561217d57600080fd5b873561218881611e63565b9650602088013561219881611e63565b9550604088013594506060880135935060808801356121b681612153565b9699959850939692959460a0840135945060c09093013592915050565b600080604083850312156121e657600080fd5b82356121f181611e63565b9150602083013561203981611e63565b600181811c9082168061221557607f821691505b60208210810361176457634e487b7160e01b600052602260045260246000fd5b600082601f83011261224657600080fd5b8151602067ffffffffffffffff82111561226257612262611f3d565b8160051b60405161227583830182611f53565b9283528481018201928281018785111561228e57600080fd5b83870192505b848310156122ab5782518152918301918301612294565b509695505050505050565b600080604083850312156122c957600080fd5b825167ffffffffffffffff808211156122e157600080fd5b90840190606082870312156122f557600080fd5b60405160608101818110838211171561231057612310611f3d565b8060405250825181526020830151602082015260408301518281111561233557600080fd5b61234188828601612235565b604083015250809450505050602083015161203981611e63565b6001600160a01b038316815260406020820181905260009061100190830184611eb9565b6000806040838503121561239257600080fd5b505080516020909101519092909150565b600060033d11156123bc5760046000803e5060005160e01c5b90565b600060443d10156123cd5790565b6040516003193d81016004833e81513d67ffffffffffffffff81602484011181841117156123fd57505050505090565b82850191508151818111156124155750505050505090565b843d870101602082850101111561242f5750505050505090565b61243e60208286010187611f53565b509095945050505050565b6000806040838503121561245c57600080fd5b825167ffffffffffffffff8082111561247457600080fd5b908401906040828703121561248857600080fd5b6040516040810181811083821117156124a3576124a3611f3d565b604052825181526020830151828111156124bc57600080fd5b6124c888828601612235565b602083015250809450505050602083015161203981611e63565b600060018060a01b0380861683526020818616818501526060604085015260a08401915084516060850152808501516040608086015282815180855260c0870191508383019450600092505b8083101561254e578451825293830193600192909201919083019061252e565b5098975050505050505050565b60006020828403121561256d57600080fd5b5051919050565b634e487b7160e01b600052601160045260246000fd5b808202811582820484141761056357610563612574565b6000826125be57634e487b7160e01b600052601260045260246000fd5b500490565b634e487b7160e01b600052602160045260246000fd5b60208101600283106125fb57634e487b7160e01b600052602160045260246000fd5b91905290565b601f82111561264757600081815260208120601f850160051c810160208610156126285750805b601f850160051c820191505b8181101561119757828155600101612634565b505050565b815167ffffffffffffffff81111561266657612666611f3d565b61267a816126748454612201565b84612601565b602080601f8311600181146126af57600084156126975750858301515b600019600386901b1c1916600185901b178555611197565b600085815260208120601f198616915b828110156126de578886015182559484019460019091019084016126bf565b50858210156126fc5787850151600019600388901b60f8161c191681555b5050505050600190811b01905550565b60006020828403121561271e57600080fd5b8151610d7a81612153565b8082018082111561056357610563612574565b60408152600061274f6040830185611eb9565b90508260208301529392505050565b6020808252602b908201527f496e697469616c697a61626c653a20636f6e7472616374206973206e6f74206960408201526a6e697469616c697a696e6760a81b606082015260800190565b600082516127bb818460208701611e95565b919091019291505056fe73686172657320636f6e7665727465642066726f6d206f7a416d6f756e74496e3a206163636f756e74536861726573202d2073686172657320746865206f776e65722068617320696e20636f6e74726163743a20416464726573733a206c6f772d6c6576656c207374617469632063616c6c206661696c656473686172657320636f6e7665727465642066726f6d20616d6f756e742d61737365747320286f662073656e646572293a2066726f6d536861726573202d2073686172657320696e20636f6e74726163742066726f6d2073656e6465723a20a26469706673582212207947ac9bc2eee50977c63ded0d9281190652bab2d906535ff143ee9172048fb664736f6c63430008150033",
    "linkReferences": {}
  },
  "methodIdentifiers": {
    "DOMAIN_SEPARATOR()": "3644e515",
    "FORMAT_DECIMALS()": "a01c8774",
    "allowance(address,address)": "dd62ed3e",
    "approve(address,uint256)": "095ea7b3",
    "asset()": "38d52e0f",
    "balanceOf(address)": "70a08231",
    "claimReward()": "b88a802f",
    "convertToAssets(uint256,address)": "36103291",
    "convertToShares(uint256)": "c6e6f592",
    "convertToUnderlying(uint256)": "1dc7f521",
    "decimals()": "313ce567",
    "decreaseAllowance(address,uint256)": "a457c2d7",
    "earned(address)": "008cc262",
    "getRewardsData()": "7d098e64",
    "increaseAllowance(address,uint256)": "39509351",
    "initialize(address,address,string,string)": "2016a0d2",
    "lastTimeRewardApplicable()": "80faa57d",
    "mint(bytes,address)": "0cae37f1",
    "name()": "06fdde03",
    "nonces(address)": "7ecebe00",
    "notifyRewardAmount(uint256)": "3c6b16ab",
    "permit(address,address,uint256,uint256,uint8,bytes32,bytes32)": "d505accf",
    "previewMint(uint256)": "b3d7f6b9",
    "previewRedeem(uint256)": "4cdad506",
    "previewWithdraw(uint256)": "0a28a477",
    "redeem(bytes,address)": "0ba097d6",
    "rewardPerToken()": "cd3daf9d",
    "setRewardsDuration(uint256)": "cc1a378f",
    "sharesOf(address)": "f5eb42dc",
    "subBalanceOf(address)": "32e50690",
    "subConvertToShares(uint256,address)": "4702a084",
    "symbol()": "95d89b41",
    "totalAssets()": "01e1d114",
    "totalShares()": "3a98ef39",
    "totalSupply()": "18160ddd",
    "transfer(address,uint256)": "a9059cbb",
    "transferFrom(address,address,uint256)": "23b872dd"
  },
  "id": 46
}