{
  "abi": [
    {
      "inputs": [
        {
          "internalType": "string",
          "name": "name_",
          "type": "string"
        },
        {
          "internalType": "string",
          "name": "symbol_",
          "type": "string"
        },
        {
          "internalType": "address",
          "name": "underlying_",
          "type": "address"
        },
        {
          "internalType": "uint8",
          "name": "decimals_",
          "type": "uint8"
        }
      ],
      "stateMutability": "nonpayable",
      "type": "constructor"
    },
    {
      "anonymous": false,
      "inputs": [
        {
          "indexed": true,
          "internalType": "address",
          "name": "owner",
          "type": "address"
        },
        {
          "indexed": true,
          "internalType": "address",
          "name": "spender",
          "type": "address"
        },
        {
          "indexed": false,
          "internalType": "uint256",
          "name": "value",
          "type": "uint256"
        }
      ],
      "name": "Approval",
      "type": "event"
    },
    {
      "anonymous": false,
      "inputs": [
        {
          "indexed": true,
          "internalType": "address",
          "name": "from",
          "type": "address"
        },
        {
          "indexed": true,
          "internalType": "address",
          "name": "to",
          "type": "address"
        },
        {
          "indexed": false,
          "internalType": "uint256",
          "name": "value",
          "type": "uint256"
        }
      ],
      "name": "Transfer",
      "type": "event"
    },
    {
      "inputs": [
        {
          "internalType": "address",
          "name": "owner",
          "type": "address"
        },
        {
          "internalType": "address",
          "name": "spender",
          "type": "address"
        }
      ],
      "name": "allowance",
      "outputs": [
        {
          "internalType": "uint256",
          "name": "",
          "type": "uint256"
        }
      ],
      "stateMutability": "view",
      "type": "function"
    },
    {
      "inputs": [
        {
          "internalType": "address",
          "name": "spender",
          "type": "address"
        },
        {
          "internalType": "uint256",
          "name": "amount",
          "type": "uint256"
        }
      ],
      "name": "approve",
      "outputs": [
        {
          "internalType": "bool",
          "name": "",
          "type": "bool"
        }
      ],
      "stateMutability": "nonpayable",
      "type": "function"
    },
    {
      "inputs": [
        {
          "internalType": "address",
          "name": "account",
          "type": "address"
        }
      ],
      "name": "balanceOf",
      "outputs": [
        {
          "internalType": "uint256",
          "name": "",
          "type": "uint256"
        }
      ],
      "stateMutability": "view",
      "type": "function"
    },
    {
      "inputs": [],
      "name": "decimals",
      "outputs": [
        {
          "internalType": "uint8",
          "name": "",
          "type": "uint8"
        }
      ],
      "stateMutability": "view",
      "type": "function"
    },
    {
      "inputs": [
        {
          "internalType": "address",
          "name": "spender",
          "type": "address"
        },
        {
          "internalType": "uint256",
          "name": "subtractedValue",
          "type": "uint256"
        }
      ],
      "name": "decreaseAllowance",
      "outputs": [
        {
          "internalType": "bool",
          "name": "",
          "type": "bool"
        }
      ],
      "stateMutability": "nonpayable",
      "type": "function"
    },
    {
      "inputs": [
        {
          "internalType": "address",
          "name": "spender",
          "type": "address"
        },
        {
          "internalType": "uint256",
          "name": "addedValue",
          "type": "uint256"
        }
      ],
      "name": "increaseAllowance",
      "outputs": [
        {
          "internalType": "bool",
          "name": "",
          "type": "bool"
        }
      ],
      "stateMutability": "nonpayable",
      "type": "function"
    },
    {
      "inputs": [
        {
          "internalType": "address",
          "name": "account_",
          "type": "address"
        }
      ],
      "name": "interestOf",
      "outputs": [
        {
          "internalType": "uint256",
          "name": "",
          "type": "uint256"
        }
      ],
      "stateMutability": "view",
      "type": "function"
    },
    {
      "inputs": [
        {
          "internalType": "uint256",
          "name": "amount_",
          "type": "uint256"
        }
      ],
      "name": "mint",
      "outputs": [],
      "stateMutability": "nonpayable",
      "type": "function"
    },
    {
      "inputs": [],
      "name": "name",
      "outputs": [
        {
          "internalType": "string",
          "name": "",
          "type": "string"
        }
      ],
      "stateMutability": "view",
      "type": "function"
    },
    {
      "inputs": [],
      "name": "symbol",
      "outputs": [
        {
          "internalType": "string",
          "name": "",
          "type": "string"
        }
      ],
      "stateMutability": "view",
      "type": "function"
    },
    {
      "inputs": [
        {
          "internalType": "address",
          "name": "account_",
          "type": "address"
        }
      ],
      "name": "totalBalanceOf",
      "outputs": [
        {
          "internalType": "uint256",
          "name": "",
          "type": "uint256"
        }
      ],
      "stateMutability": "view",
      "type": "function"
    },
    {
      "inputs": [],
      "name": "totalSupply",
      "outputs": [
        {
          "internalType": "uint256",
          "name": "",
          "type": "uint256"
        }
      ],
      "stateMutability": "view",
      "type": "function"
    },
    {
      "inputs": [
        {
          "internalType": "address",
          "name": "to",
          "type": "address"
        },
        {
          "internalType": "uint256",
          "name": "amount",
          "type": "uint256"
        }
      ],
      "name": "transfer",
      "outputs": [
        {
          "internalType": "bool",
          "name": "",
          "type": "bool"
        }
      ],
      "stateMutability": "nonpayable",
      "type": "function"
    },
    {
      "inputs": [
        {
          "internalType": "address",
          "name": "from",
          "type": "address"
        },
        {
          "internalType": "address",
          "name": "to",
          "type": "address"
        },
        {
          "internalType": "uint256",
          "name": "amount",
          "type": "uint256"
        }
      ],
      "name": "transferFrom",
      "outputs": [
        {
          "internalType": "bool",
          "name": "",
          "type": "bool"
        }
      ],
      "stateMutability": "nonpayable",
      "type": "function"
    },
    {
      "inputs": [],
      "name": "underlying",
      "outputs": [
        {
          "internalType": "address",
          "name": "",
          "type": "address"
        }
      ],
      "stateMutability": "view",
      "type": "function"
    }
  ],
  "bytecode": {
    "object": "0x60a06040523480156200001157600080fd5b506040516200114e3803806200114e833981016040819052620000349162000142565b604362000042858262000277565b50604462000051848262000277565b506001600160a01b03919091166080526045805460ff191660ff90921691909117905550620003439050565b634e487b7160e01b600052604160045260246000fd5b600082601f830112620000a557600080fd5b81516001600160401b0380821115620000c257620000c26200007d565b604051601f8301601f19908116603f01168101908282118183101715620000ed57620000ed6200007d565b816040528381526020925086838588010111156200010a57600080fd5b600091505b838210156200012e57858201830151818301840152908201906200010f565b600093810190920192909252949350505050565b600080600080608085870312156200015957600080fd5b84516001600160401b03808211156200017157600080fd5b6200017f8883890162000093565b955060208701519150808211156200019657600080fd5b50620001a58782880162000093565b604087015190945090506001600160a01b0381168114620001c557600080fd5b606086015190925060ff81168114620001dd57600080fd5b939692955090935050565b600181811c90821680620001fd57607f821691505b6020821081036200021e57634e487b7160e01b600052602260045260246000fd5b50919050565b601f8211156200027257600081815260208120601f850160051c810160208610156200024d5750805b601f850160051c820191505b818110156200026e5782815560010162000259565b5050505b505050565b81516001600160401b038111156200029357620002936200007d565b620002ab81620002a48454620001e8565b8462000224565b602080601f831160018114620002e35760008415620002ca5750858301515b600019600386901b1c1916600185901b1785556200026e565b600085815260208120601f198616915b828110156200031457888601518255948401946001909101908401620002f3565b5085821015620003335787850151600019600388901b60f8161c191681555b5050505050600190811b01905550565b608051610de862000366600039600081816101a801526103b20152610de86000f3fe608060405234801561001057600080fd5b50600436106100f55760003560e01c80636f307dc311610097578063a457c2d711610066578063a457c2d714610202578063a9059cbb14610215578063d8e8b17714610228578063dd62ed3e1461023b57600080fd5b80636f307dc31461019b57806370a08231146101d257806395d89b41146101e5578063a0712d68146101ed57600080fd5b806323b872dd116100d357806323b872dd1461014d578063313ce5671461016057806339509351146101755780634b0ee02a1461018857600080fd5b806306fdde03146100fa578063095ea7b31461011857806318160ddd1461013b575b600080fd5b61010261024e565b60405161010f9190610ba8565b60405180910390f35b61012b610126366004610c12565b6102e0565b604051901515815260200161010f565b6042545b60405190815260200161010f565b61012b61015b366004610c3c565b6102fa565b60455460405160ff909116815260200161010f565b61012b610183366004610c12565b610320565b61013f610196366004610c78565b610342565b6040516001600160a01b037f000000000000000000000000000000000000000000000000000000000000000016815260200161010f565b61013f6101e0366004610c78565b610394565b61010261039f565b6102006101fb366004610c93565b6103ae565b005b61012b610210366004610c12565b6104ae565b61012b610223366004610c12565b610539565b61013f610236366004610c78565b610547565b61013f610249366004610cac565b610553565b60606043805461025d90610cdf565b80601f016020809104026020016040519081016040528092919081815260200182805461028990610cdf565b80156102d65780601f106102ab576101008083540402835291602001916102d6565b820191906000526020600020905b8154815290600101906020018083116102b957829003601f168201915b5050505050905090565b6000336102ee81858561059d565b60019150505b92915050565b6000336103088582856106e1565b61031385858561075b565b60019150505b9392505050565b6000336102ee8185856103338383610553565b61033d9190610d19565b61059d565b600060408160025b600281111561035b5761035b610d3a565b81526020019081526020016000206000836001600160a01b03166001600160a01b03168152602001908152602001600020549050919050565b60006040818061034a565b60606044805461025d90610cdf565b60007f00000000000000000000000000000000000000000000000000000000000000006040516323b872dd60e01b8152336004820152306024820152604481018490529091506001600160a01b038216906323b872dd906064016020604051808303816000875af1158015610427573d6000803e3d6000fd5b505050506040513d601f19601f8201168201806040525081019061044b9190610d50565b50603f546040516307e0466760e11b8152600481018490526001600160a01b0390911690630fc08cce90602401600060405180830381600087803b15801561049257600080fd5b505af11580156104a6573d6000803e3d6000fd5b505050505050565b600033816104bc8286610553565b9050838110156105215760405162461bcd60e51b815260206004820152602560248201527f45524332303a2064656372656173656420616c6c6f77616e63652062656c6f77604482015264207a65726f60d81b60648201526084015b60405180910390fd5b61052e828686840361059d565b506001949350505050565b6000336102ee81858561075b565b6000604081600161034a565b6001600160a01b0391821660009081527f22157c206018468b45ae7922bc7a0b0cb8feed201dac3c6fb5e7876aa94e11e96020908152604080832093909416825291909152205490565b6001600160a01b0383166105ff5760405162461bcd60e51b8152602060048201526024808201527f45524332303a20617070726f76652066726f6d20746865207a65726f206164646044820152637265737360e01b6064820152608401610518565b6001600160a01b0382166106605760405162461bcd60e51b815260206004820152602260248201527f45524332303a20617070726f766520746f20746865207a65726f206164647265604482015261737360f01b6064820152608401610518565b6001600160a01b0383811660008181527f22157c206018468b45ae7922bc7a0b0cb8feed201dac3c6fb5e7876aa94e11e96020908152604080832094871680845294825291829020859055815185815291517f8c5be1e5ebec7d5bd14f71427d1e84f3dd0314c0f7b2291e5b200ac8c7c3b9259281900390910190a3505050565b60006106ed8484610553565b9050600019811461075557818110156107485760405162461bcd60e51b815260206004820152601d60248201527f45524332303a20696e73756666696369656e7420616c6c6f77616e63650000006044820152606401610518565b610755848484840361059d565b50505050565b6001600160a01b0383166107bf5760405162461bcd60e51b815260206004820152602560248201527f45524332303a207472616e736665722066726f6d20746865207a65726f206164604482015264647265737360d81b6064820152608401610518565b6001600160a01b0382166108215760405162461bcd60e51b815260206004820152602360248201527f45524332303a207472616e7366657220746f20746865207a65726f206164647260448201526265737360e81b6064820152608401610518565b6001600160a01b0383166000908152600080516020610d938339815191526020526040902054818110156108a65760405162461bcd60e51b815260206004820152602660248201527f45524332303a207472616e7366657220616d6f756e7420657863656564732062604482015265616c616e636560d01b6064820152608401610518565b6001600160a01b038481166000908152600080516020610d938339815191526020526040808220858503905591851681529081208054840190556108ea8584610977565b6001600160a01b0386166000908152600080516020610d7383398151915260205260409020805482900382019055905061092485856109f9565b50826001600160a01b0316846001600160a01b03167fddf252ad1be2c89b69c2b068fc378daa952ba7f163c4a11628f55a4df523b3ef8460405161096a91815260200190565b60405180910390a3610755565b6001600160a01b0382166000908152600080516020610d938339815191526020526040812054816109b28468056bc75e2d6310000084610af9565b6001600160a01b0386166000908152600080516020610d7383398151915260205260409020549091506109ef828268056bc75e2d63100000610af9565b9695505050505050565b6001600160a01b0382166000908152600080516020610d738339815191526020908152604080832054600080516020610d9383398151915290925290912054610a429190610d19565b6001600160a01b0383811660009081527f99bc547f166b5932f754821d2631dc84804a425a7bcb1caf7e488ea823036dda60209081526040808320949094559184168152600080516020610d73833981519152825282812054600080516020610d938339815191529092529190912054610abc9190610d19565b6001600160a01b039190911660009081527f99bc547f166b5932f754821d2631dc84804a425a7bcb1caf7e488ea823036dda602052604090205550565b60008383026000198486098181108201900380610b2e5783610b235763ae47f7026000526004601cfd5b508290049050610319565b808411610b435763ae47f7026000526004601cfd5b838587096000858103861695869004956003870260029081188089028203028089028203028089028203028089028203028089028203028089029091030291819003819004600101858411909403939093029190930391909104170290509392505050565b600060208083528351808285015260005b81811015610bd557858101830151858201604001528201610bb9565b506000604082860101526040601f19601f8301168501019250505092915050565b80356001600160a01b0381168114610c0d57600080fd5b919050565b60008060408385031215610c2557600080fd5b610c2e83610bf6565b946020939093013593505050565b600080600060608486031215610c5157600080fd5b610c5a84610bf6565b9250610c6860208501610bf6565b9150604084013590509250925092565b600060208284031215610c8a57600080fd5b61031982610bf6565b600060208284031215610ca557600080fd5b5035919050565b60008060408385031215610cbf57600080fd5b610cc883610bf6565b9150610cd660208401610bf6565b90509250929050565b600181811c90821680610cf357607f821691505b602082108103610d1357634e487b7160e01b600052602260045260246000fd5b50919050565b808201808211156102f457634e487b7160e01b600052601160045260246000fd5b634e487b7160e01b600052602160045260246000fd5b600060208284031215610d6257600080fd5b8151801515811461031957600080fdfe79e068d87311f0999d8cc460f83efdb75159f5d2a58c037053e1489685917ab372d0927ca0fe30cbe8022c9a81259da3fa697099c3a44d94726bf134bd7668caa26469706673582212205958f79a5188fba6645b4af47a6b7c9a09d8c596bc2c9e2705047ed3a2eb0f7664736f6c63430008150033",
    "linkReferences": {}
  },
  "methodIdentifiers": {
    "allowance(address,address)": "dd62ed3e",
    "approve(address,uint256)": "095ea7b3",
    "balanceOf(address)": "70a08231",
    "decimals()": "313ce567",
    "decreaseAllowance(address,uint256)": "a457c2d7",
    "increaseAllowance(address,uint256)": "39509351",
    "interestOf(address)": "d8e8b177",
    "mint(uint256)": "a0712d68",
    "name()": "06fdde03",
    "symbol()": "95d89b41",
    "totalBalanceOf(address)": "4b0ee02a",
    "totalSupply()": "18160ddd",
    "transfer(address,uint256)": "a9059cbb",
    "transferFrom(address,address,uint256)": "23b872dd",
    "underlying()": "6f307dc3"
  },
  "id": 3
}