{
  "abi": [
    {
      "inputs": [],
      "stateMutability": "nonpayable",
      "type": "constructor"
    },
    {
      "inputs": [
        {
          "internalType": "address",
          "name": "sender",
          "type": "address"
        },
        {
          "internalType": "uint256",
          "name": "shares",
          "type": "uint256"
        },
        {
          "internalType": "uint256",
          "name": "sharesNeeded",
          "type": "uint256"
        }
      ],
      "name": "ERC20InsufficientBalance",
      "type": "error"
    },
    {
      "inputs": [
        {
          "internalType": "address",
          "name": "receiver",
          "type": "address"
        }
      ],
      "name": "ERC20InvalidReceiver",
      "type": "error"
    },
    {
      "inputs": [
        {
          "internalType": "address",
          "name": "sender",
          "type": "address"
        }
      ],
      "name": "ERC20InvalidSender",
      "type": "error"
    },
    {
      "inputs": [
        {
          "internalType": "uint256",
          "name": "deadline",
          "type": "uint256"
        },
        {
          "internalType": "uint256",
          "name": "blockTimestamp",
          "type": "uint256"
        }
      ],
      "name": "ERC2612ExpiredDeadline",
      "type": "error"
    },
    {
      "inputs": [
        {
          "internalType": "address",
          "name": "owner",
          "type": "address"
        },
        {
          "internalType": "address",
          "name": "spender",
          "type": "address"
        }
      ],
      "name": "ERC2612InvalidSignature",
      "type": "error"
    },
    {
      "inputs": [
        {
          "internalType": "address",
          "name": "sender",
          "type": "address"
        },
        {
          "internalType": "uint256",
          "name": "shares",
          "type": "uint256"
        },
        {
          "internalType": "uint256",
          "name": "sharesNeeded",
          "type": "uint256"
        }
      ],
      "name": "USDMInsufficientBurnBalance",
      "type": "error"
    },
    {
      "anonymous": false,
      "inputs": [
        {
          "indexed": true,
          "internalType": "address",
          "name": "owner",
          "type": "address"
        },
        {
          "indexed": true,
          "internalType": "address",
          "name": "spender",
          "type": "address"
        },
        {
          "indexed": false,
          "internalType": "uint256",
          "name": "value",
          "type": "uint256"
        }
      ],
      "name": "Approval",
      "type": "event"
    },
    {
      "anonymous": false,
      "inputs": [
        {
          "indexed": false,
          "internalType": "uint8",
          "name": "version",
          "type": "uint8"
        }
      ],
      "name": "Initialized",
      "type": "event"
    },
    {
      "anonymous": false,
      "inputs": [
        {
          "indexed": true,
          "internalType": "address",
          "name": "from",
          "type": "address"
        },
        {
          "indexed": true,
          "internalType": "address",
          "name": "to",
          "type": "address"
        },
        {
          "indexed": false,
          "internalType": "uint256",
          "name": "value",
          "type": "uint256"
        }
      ],
      "name": "Transfer",
      "type": "event"
    },
    {
      "inputs": [],
      "name": "DOMAIN_SEPARATOR",
      "outputs": [
        {
          "internalType": "bytes32",
          "name": "",
          "type": "bytes32"
        }
      ],
      "stateMutability": "view",
      "type": "function"
    },
    {
      "inputs": [
        {
          "internalType": "address",
          "name": "owner",
          "type": "address"
        },
        {
          "internalType": "address",
          "name": "spender",
          "type": "address"
        }
      ],
      "name": "allowance",
      "outputs": [
        {
          "internalType": "uint256",
          "name": "",
          "type": "uint256"
        }
      ],
      "stateMutability": "view",
      "type": "function"
    },
    {
      "inputs": [
        {
          "internalType": "address",
          "name": "spender",
          "type": "address"
        },
        {
          "internalType": "uint256",
          "name": "amount",
          "type": "uint256"
        }
      ],
      "name": "approve",
      "outputs": [
        {
          "internalType": "bool",
          "name": "",
          "type": "bool"
        }
      ],
      "stateMutability": "nonpayable",
      "type": "function"
    },
    {
      "inputs": [],
      "name": "asset",
      "outputs": [
        {
          "internalType": "address",
          "name": "",
          "type": "address"
        }
      ],
      "stateMutability": "view",
      "type": "function"
    },
    {
      "inputs": [
        {
          "internalType": "address",
          "name": "account_",
          "type": "address"
        }
      ],
      "name": "balanceOf",
      "outputs": [
        {
          "internalType": "uint256",
          "name": "",
          "type": "uint256"
        }
      ],
      "stateMutability": "view",
      "type": "function"
    },
    {
      "inputs": [
        {
          "components": [
            {
              "internalType": "uint256",
              "name": "ozAmountIn",
              "type": "uint256"
            },
            {
              "internalType": "uint256",
              "name": "minWethOut",
              "type": "uint256"
            },
            {
              "internalType": "uint256",
              "name": "bptAmountIn",
              "type": "uint256"
            },
            {
              "internalType": "uint256",
              "name": "minUsdcOut",
              "type": "uint256"
            }
          ],
          "internalType": "struct TradeAmountsOut",
          "name": "amts_",
          "type": "tuple"
        },
        {
          "internalType": "address",
          "name": "receiver_",
          "type": "address"
        }
      ],
      "name": "burn",
      "outputs": [],
      "stateMutability": "nonpayable",
      "type": "function"
    },
    {
      "inputs": [
        {
          "internalType": "uint256",
          "name": "shares",
          "type": "uint256"
        }
      ],
      "name": "convertToAssets",
      "outputs": [
        {
          "internalType": "uint256",
          "name": "assets",
          "type": "uint256"
        }
      ],
      "stateMutability": "view",
      "type": "function"
    },
    {
      "inputs": [
        {
          "internalType": "uint256",
          "name": "assets",
          "type": "uint256"
        }
      ],
      "name": "convertToShares",
      "outputs": [
        {
          "internalType": "uint256",
          "name": "shares",
          "type": "uint256"
        }
      ],
      "stateMutability": "view",
      "type": "function"
    },
    {
      "inputs": [
        {
          "internalType": "uint256",
          "name": "shares_",
          "type": "uint256"
        }
      ],
      "name": "convertToUnderlying",
      "outputs": [
        {
          "internalType": "uint256",
          "name": "amountUnderlying",
          "type": "uint256"
        }
      ],
      "stateMutability": "view",
      "type": "function"
    },
    {
      "inputs": [],
      "name": "decimals",
      "outputs": [
        {
          "internalType": "uint8",
          "name": "",
          "type": "uint8"
        }
      ],
      "stateMutability": "view",
      "type": "function"
    },
    {
      "inputs": [
        {
          "internalType": "address",
          "name": "spender",
          "type": "address"
        },
        {
          "internalType": "uint256",
          "name": "subtractedValue",
          "type": "uint256"
        }
      ],
      "name": "decreaseAllowance",
      "outputs": [
        {
          "internalType": "bool",
          "name": "",
          "type": "bool"
        }
      ],
      "stateMutability": "nonpayable",
      "type": "function"
    },
    {
      "inputs": [
        {
          "internalType": "uint256",
          "name": "assets_",
          "type": "uint256"
        },
        {
          "internalType": "address",
          "name": "receiver_",
          "type": "address"
        }
      ],
      "name": "deposit",
      "outputs": [
        {
          "internalType": "uint256",
          "name": "",
          "type": "uint256"
        }
      ],
      "stateMutability": "nonpayable",
      "type": "function"
    },
    {
      "inputs": [
        {
          "internalType": "address",
          "name": "spender",
          "type": "address"
        },
        {
          "internalType": "uint256",
          "name": "addedValue",
          "type": "uint256"
        }
      ],
      "name": "increaseAllowance",
      "outputs": [
        {
          "internalType": "bool",
          "name": "",
          "type": "bool"
        }
      ],
      "stateMutability": "nonpayable",
      "type": "function"
    },
    {
      "inputs": [
        {
          "internalType": "address",
          "name": "underlying_",
          "type": "address"
        },
        {
          "internalType": "address",
          "name": "diamond_",
          "type": "address"
        },
        {
          "internalType": "string",
          "name": "name_",
          "type": "string"
        },
        {
          "internalType": "string",
          "name": "symbol_",
          "type": "string"
        }
      ],
      "name": "initialize",
      "outputs": [],
      "stateMutability": "nonpayable",
      "type": "function"
    },
    {
      "inputs": [
        {
          "internalType": "address",
          "name": "",
          "type": "address"
        }
      ],
      "name": "maxDeposit",
      "outputs": [
        {
          "internalType": "uint256",
          "name": "",
          "type": "uint256"
        }
      ],
      "stateMutability": "view",
      "type": "function"
    },
    {
      "inputs": [
        {
          "components": [
            {
              "internalType": "uint256",
              "name": "amountIn",
              "type": "uint256"
            },
            {
              "internalType": "uint256",
              "name": "minWethOut",
              "type": "uint256"
            },
            {
              "internalType": "uint256",
              "name": "minRethOut",
              "type": "uint256"
            },
            {
              "internalType": "uint256",
              "name": "minBptOut",
              "type": "uint256"
            }
          ],
          "internalType": "struct TradeAmounts",
          "name": "amounts_",
          "type": "tuple"
        },
        {
          "internalType": "address",
          "name": "receiver_",
          "type": "address"
        }
      ],
      "name": "mint",
      "outputs": [
        {
          "internalType": "uint256",
          "name": "",
          "type": "uint256"
        }
      ],
      "stateMutability": "nonpayable",
      "type": "function"
    },
    {
      "inputs": [],
      "name": "name",
      "outputs": [
        {
          "internalType": "string",
          "name": "",
          "type": "string"
        }
      ],
      "stateMutability": "view",
      "type": "function"
    },
    {
      "inputs": [
        {
          "internalType": "address",
          "name": "owner",
          "type": "address"
        }
      ],
      "name": "nonces",
      "outputs": [
        {
          "internalType": "uint256",
          "name": "",
          "type": "uint256"
        }
      ],
      "stateMutability": "view",
      "type": "function"
    },
    {
      "inputs": [
        {
          "internalType": "address",
          "name": "owner",
          "type": "address"
        },
        {
          "internalType": "address",
          "name": "spender",
          "type": "address"
        },
        {
          "internalType": "uint256",
          "name": "value",
          "type": "uint256"
        },
        {
          "internalType": "uint256",
          "name": "deadline",
          "type": "uint256"
        },
        {
          "internalType": "uint8",
          "name": "v",
          "type": "uint8"
        },
        {
          "internalType": "bytes32",
          "name": "r",
          "type": "bytes32"
        },
        {
          "internalType": "bytes32",
          "name": "s_",
          "type": "bytes32"
        }
      ],
      "name": "permit",
      "outputs": [],
      "stateMutability": "nonpayable",
      "type": "function"
    },
    {
      "inputs": [
        {
          "internalType": "uint256",
          "name": "assets_",
          "type": "uint256"
        }
      ],
      "name": "previewDeposit",
      "outputs": [
        {
          "internalType": "uint256",
          "name": "",
          "type": "uint256"
        }
      ],
      "stateMutability": "view",
      "type": "function"
    },
    {
      "inputs": [
        {
          "internalType": "uint256",
          "name": "shares_",
          "type": "uint256"
        }
      ],
      "name": "previewRedeem",
      "outputs": [
        {
          "internalType": "uint256",
          "name": "",
          "type": "uint256"
        }
      ],
      "stateMutability": "view",
      "type": "function"
    },
    {
      "inputs": [
        {
          "internalType": "uint256",
          "name": "assets",
          "type": "uint256"
        }
      ],
      "name": "previewWithdraw",
      "outputs": [
        {
          "internalType": "uint256",
          "name": "",
          "type": "uint256"
        }
      ],
      "stateMutability": "view",
      "type": "function"
    },
    {
      "inputs": [
        {
          "internalType": "address",
          "name": "account_",
          "type": "address"
        }
      ],
      "name": "sharesOf",
      "outputs": [
        {
          "internalType": "uint256",
          "name": "",
          "type": "uint256"
        }
      ],
      "stateMutability": "view",
      "type": "function"
    },
    {
      "inputs": [],
      "name": "symbol",
      "outputs": [
        {
          "internalType": "string",
          "name": "",
          "type": "string"
        }
      ],
      "stateMutability": "view",
      "type": "function"
    },
    {
      "inputs": [],
      "name": "totalAssets",
      "outputs": [
        {
          "internalType": "uint256",
          "name": "",
          "type": "uint256"
        }
      ],
      "stateMutability": "view",
      "type": "function"
    },
    {
      "inputs": [],
      "name": "totalShares",
      "outputs": [
        {
          "internalType": "uint256",
          "name": "",
          "type": "uint256"
        }
      ],
      "stateMutability": "view",
      "type": "function"
    },
    {
      "inputs": [],
      "name": "totalSupply",
      "outputs": [
        {
          "internalType": "uint256",
          "name": "",
          "type": "uint256"
        }
      ],
      "stateMutability": "view",
      "type": "function"
    },
    {
      "inputs": [
        {
          "internalType": "address",
          "name": "to",
          "type": "address"
        },
        {
          "internalType": "uint256",
          "name": "amount",
          "type": "uint256"
        }
      ],
      "name": "transfer",
      "outputs": [
        {
          "internalType": "bool",
          "name": "",
          "type": "bool"
        }
      ],
      "stateMutability": "nonpayable",
      "type": "function"
    },
    {
      "inputs": [
        {
          "internalType": "address",
          "name": "from",
          "type": "address"
        },
        {
          "internalType": "address",
          "name": "to",
          "type": "address"
        },
        {
          "internalType": "uint256",
          "name": "amount",
          "type": "uint256"
        }
      ],
      "name": "transferFrom",
      "outputs": [
        {
          "internalType": "bool",
          "name": "",
          "type": "bool"
        }
      ],
      "stateMutability": "nonpayable",
      "type": "function"
    }
  ],
  "bytecode": {
    "object": "0x608060405234801561001057600080fd5b5061001961001e565b6100de565b600054610100900460ff161561008a5760405162461bcd60e51b815260206004820152602760248201527f496e697469616c697a61626c653a20636f6e747261637420697320696e697469604482015266616c697a696e6760c81b606482015260840160405180910390fd5b60005460ff90811610156100dc576000805460ff191660ff9081179091556040519081527f7f26b83ff96e1f2b6a682f133852f6798a09c465da95921460cefb38474024989060200160405180910390a15b565b611c6d806100ed6000396000f3fe608060405234801561001057600080fd5b50600436106101cf5760003560e01c8063402d267d1161010457806395d89b41116100a2578063d505accf11610071578063d505accf1461039f578063dd62ed3e146103b2578063ef8b30f7146103c5578063f5eb42dc146103d857600080fd5b806395d89b411461035e578063a457c2d714610366578063a9059cbb14610379578063c6e6f5921461038c57600080fd5b80636e553f65116100de5780636e553f651461031257806370a08231146103255780637ecebe00146103385780638c490d511461034b57600080fd5b8063402d267d146102d95780634cdad506146102ec5780636736deee146102ff57600080fd5b80632016a0d2116101715780633644e5151161014b5780633644e5151461029b57806338d52e0f146102a357806339509351146102be5780633a98ef39146102d157600080fd5b80632016a0d21461026457806323b872dd14610279578063313ce5671461028c57600080fd5b8063095ea7b3116101ad578063095ea7b3146102135780630a28a4771461023657806318160ddd146102495780631dc7f5211461025157600080fd5b806301e1d114146101d457806306fdde03146101eb57806307a2d13a14610200575b600080fd5b6049545b6040519081526020015b60405180910390f35b6101f3610401565b6040516101e2919061160e565b6101d861020e36600461165c565b610493565b610226610221366004611691565b6104a6565b60405190151581526020016101e2565b6101d861024436600461165c565b6104bc565b6101d86104c9565b6101d861025f36600461165c565b6104ed565b61027761027236600461175e565b61057e565b005b6102266102873660046117e3565b6106fd565b604051601281526020016101e2565b6101d8610720565b6047546040516001600160a01b0390911681526020016101e2565b6102266102cc366004611691565b61072a565b6048546101d8565b6101d86102e736600461181f565b61074b565b6101d86102fa36600461165c565b610769565b6101d861030d3660046118a0565b610776565b6101d86103203660046118d4565b610828565b6101d861033336600461181f565b6108b0565b6101d861034636600461181f565b6108d2565b6102776103593660046118a0565b6108f0565b6101f3610a17565b610226610374366004611691565b610a26565b610226610387366004611691565b610aa0565b6101d861039a36600461165c565b610aad565b6102776103ad3660046118f7565b610aba565b6101d86103c036600461196a565b610bdc565b6101d86103d336600461165c565b610c07565b6101d86103e636600461181f565b6001600160a01b03166000908152604a602052604090205490565b6060604d805461041090611994565b80601f016020809104026020016040519081016040528092919081815260200182805461043c90611994565b80156104895780601f1061045e57610100808354040283529160200191610489565b820191906000526020600020905b81548152906001019060200180831161046c57829003601f168201915b5050505050905090565b60006104a0826000610c14565b92915050565b60006104b3338484610cad565b50600192915050565b60006104a0826001610dd1565b60006048546000146104e7576104e26048546000610c14565b905090565b50600090565b60006104f860485490565b60465460405163a4fc284b60e01b81526001600160a01b039091169063a4fc284b90610529906001906004016119de565b602060405180830381865afa158015610546573d6000803e3d6000fd5b505050506040513d601f19601f8201168201806040525081019061056a9190611a06565b6105749084611a35565b6104a09190611a62565b600054610100900460ff161580801561059e5750600054600160ff909116105b806105b85750303b1580156105b8575060005460ff166001145b6106205760405162461bcd60e51b815260206004820152602e60248201527f496e697469616c697a61626c653a20636f6e747261637420697320616c72656160448201526d191e481a5b9a5d1a585b1a5e995960921b60648201526084015b60405180910390fd5b6000805460ff191660011790558015610643576000805461ff0019166101001790555b604d61064f8482611ad3565b50604e61065c8382611ad3565b50604680546001600160a01b038087166001600160a01b03199283161790925560478054928816929091169190911790556040805180820190915260018152603160f81b60208201526106b0908490610e5f565b80156106f6576000805461ff0019169055604051600181527f7f26b83ff96e1f2b6a682f133852f6798a09c465da95921460cefb38474024989060200160405180910390a15b5050505050565b600061070a843384610e94565b610715848484610f0e565b5060015b9392505050565b60006104e2611009565b60006104b333848461073c3388610bdc565b6107469190611b93565b610cad565b6000610755611084565b6107605760006104a0565b60001992915050565b60006104a08260006110a5565b60008061078b6047546001600160a01b031690565b604654604051635879601960e01b81529192506001600160a01b0316906358796019906107c090849033908990600401611ba6565b600060405180830381600087803b1580156107da57600080fd5b505af11580156107ee573d6000803e3d6000fd5b505050506000610802856000015185610828565b905084600001516049600082825461081a9190611b93565b909155509095945050505050565b60006108338261074b565b8311156108825760405162461bcd60e51b815260206004820152601e60248201527f455243343632363a206465706f736974206d6f7265207468616e206d617800006044820152606401610617565b600061088d60485490565b156108a05761089b84610c07565b6108a2565b835b905061071933848684611129565b6001600160a01b0381166000908152604a60205260408120546104a090610493565b6001600160a01b0381166000908152604b60205260408120546104a0565b336000908152604a6020526040812054835190919061090e90610aad565b90508082101561094157604051633803cef960e11b81523360048201526024810183905260448101829052606401610617565b600061094c82610769565b604654604080516334347a5560e21b81528851600482015260208901516024820152908801516044820152606088015160648201523060848201523360a48201526001600160a01b0387811660c483015292935091169063d0d1e9549060e401600060405180830381600087803b1580156109c657600080fd5b505af11580156109da573d6000803e3d6000fd5b50506046546001600160a01b03166000908152604a6020526040812080549190556048805491909103905550506049805491909103905550505050565b6060604e805461041090611994565b600080610a333385610bdc565b905082811015610a935760405162461bcd60e51b815260206004820152602560248201527f45524332303a2064656372656173656420616c6c6f77616e63652062656c6f77604482015264207a65726f60d81b6064820152608401610617565b6107153385858403610cad565b60006104b3338484610f0e565b60006104a0826000610dd1565b83421115610ae45760405163233730db60e11b815260048101859052426024820152604401610617565b60007f6e71edae12b1b97f4d1f60370fef10105fa2faae0126114a169c64845d6126c9888888610b138c611165565b6040805160208101969096526001600160a01b0394851690860152929091166060840152608083015260a082015260c0810186905260e0016040516020818303038152906040528051906020012090506000610b6e8261118d565b90506000610b7e828787876111db565b9050896001600160a01b0316816001600160a01b031614610bc557604051630189c63360e31b81526001600160a01b03808c1660048301528a166024820152604401610617565b610bd08a8a8a610cad565b50505050505050505050565b6001600160a01b039182166000908152604c6020908152604080832093909416825291909152205490565b60006104a0826000611205565b6000610719610c2260485490565b604660009054906101000a90046001600160a01b03166001600160a01b03166345089e296040518163ffffffff1660e01b8152600401602060405180830381865afa158015610c75573d6000803e3d6000fd5b505050506040513d601f19601f82011682018060405250810190610c999190611a06565b610ca39190611a62565b849060018561121b565b6001600160a01b038316610d0f5760405162461bcd60e51b8152602060048201526024808201527f45524332303a20617070726f76652066726f6d20746865207a65726f206164646044820152637265737360e01b6064820152608401610617565b6001600160a01b038216610d705760405162461bcd60e51b815260206004820152602260248201527f45524332303a20617070726f766520746f20746865207a65726f206164647265604482015261737360f01b6064820152608401610617565b6001600160a01b038381166000818152604c602090815260408083209487168084529482529182902085905590518481527f8c5be1e5ebec7d5bd14f71427d1e84f3dd0314c0f7b2291e5b200ac8c7c3b925910160405180910390a3505050565b6000610719610ddf60485490565b604660009054906101000a90046001600160a01b03166001600160a01b03166345089e296040518163ffffffff1660e01b8152600401602060405180830381865afa158015610e32573d6000803e3d6000fd5b505050506040513d601f19601f82011682018060405250810190610e569190611a06565b8591908561121b565b600054610100900460ff16610e865760405162461bcd60e51b815260040161061790611bec565b610e908282611278565b5050565b6000610ea08484610bdc565b90506000198114610f085781811015610efb5760405162461bcd60e51b815260206004820152601d60248201527f45524332303a20696e73756666696369656e7420616c6c6f77616e63650000006044820152606401610617565b610f088484848403610cad565b50505050565b6001600160a01b038316610f4057604051634b637e8f60e11b81526001600160a01b0384166004820152602401610617565b6001600160a01b038216610f725760405163ec442f0560e01b81526001600160a01b0383166004820152602401610617565b6000610f7d82610aad565b6001600160a01b0385166000908152604a602052604090205490915081811015610fd35760405163391434e360e21b81526001600160a01b03861660048201526024810182905260448101839052606401610617565b6001600160a01b039485166000908152604a60205260408082209284900390925593909416835292909120805490920190915550565b60006104e27f8b73c3c69bb8fe3d512ecc4cf759cc79239f7b179b0ffacaa9a75d522b39400f61103860015490565b6002546040805160208101859052908101839052606081018290524660808201523060a082015260009060c0016040516020818303038152906040528051906020012090509392505050565b60008061109060495490565b11806104e2575061109f6104c9565b15905090565b6000610719604660009054906101000a90046001600160a01b03166001600160a01b03166345089e296040518163ffffffff1660e01b8152600401602060405180830381865afa1580156110fd573d6000803e3d6000fd5b505050506040513d601f19601f820116820180604052508101906111219190611a06565b610e566104c9565b806048600082825461113b9190611b93565b90915550506001600160a01b039092166000908152604a6020526040902080549092019091555050565b6001600160a01b0381166000908152604b602052604090208054600181018255905b50919050565b60006104a061119a611009565b8360405161190160f01b6020820152602281018390526042810182905260009060620160405160208183030381529060405280519060200120905092915050565b60008060006111ec878787876112b9565b915091506111f9816113a6565b5090505b949350505050565b600061071961121360485490565b604954610e56565b60008061122986868661155f565b9050600183600281111561123f5761123f6119c8565b14801561125c57506000848061125757611257611a4c565b868809115b1561126f5761126c600182611b93565b90505b95945050505050565b600054610100900460ff1661129f5760405162461bcd60e51b815260040161061790611bec565b815160209283012081519190920120600191909155600255565b6000807f7fffffffffffffffffffffffffffffff5d576e7357a4501ddfe92f46681b20a08311156112f0575060009050600361139d565b8460ff16601b1415801561130857508460ff16601c14155b15611319575060009050600461139d565b6040805160008082526020820180845289905260ff881692820192909252606081018690526080810185905260019060a0016020604051602081039080840390855afa15801561136d573d6000803e3d6000fd5b5050604051601f1901519150506001600160a01b0381166113965760006001925092505061139d565b9150600090505b94509492505050565b60008160048111156113ba576113ba6119c8565b036113c25750565b60018160048111156113d6576113d66119c8565b036114235760405162461bcd60e51b815260206004820152601860248201527f45434453413a20696e76616c6964207369676e617475726500000000000000006044820152606401610617565b6002816004811115611437576114376119c8565b036114845760405162461bcd60e51b815260206004820152601f60248201527f45434453413a20696e76616c6964207369676e6174757265206c656e677468006044820152606401610617565b6003816004811115611498576114986119c8565b036114f05760405162461bcd60e51b815260206004820152602260248201527f45434453413a20696e76616c6964207369676e6174757265202773272076616c604482015261756560f01b6064820152608401610617565b6004816004811115611504576115046119c8565b0361155c5760405162461bcd60e51b815260206004820152602260248201527f45434453413a20696e76616c6964207369676e6174757265202776272076616c604482015261756560f01b6064820152608401610617565b50565b60008080600019858709858702925082811083820303915050806000036115995783828161158f5761158f611a4c565b0492505050610719565b8084116115a557600080fd5b60008486880960026001871981018816978890046003810283188082028403028082028403028082028403028082028403028082028403029081029092039091026000889003889004909101858311909403939093029303949094049190911702949350505050565b600060208083528351808285015260005b8181101561163b5785810183015185820160400152820161161f565b506000604082860101526040601f19601f8301168501019250505092915050565b60006020828403121561166e57600080fd5b5035919050565b80356001600160a01b038116811461168c57600080fd5b919050565b600080604083850312156116a457600080fd5b6116ad83611675565b946020939093013593505050565b634e487b7160e01b600052604160045260246000fd5b600082601f8301126116e257600080fd5b813567ffffffffffffffff808211156116fd576116fd6116bb565b604051601f8301601f19908116603f01168101908282118183101715611725576117256116bb565b8160405283815286602085880101111561173e57600080fd5b836020870160208301376000602085830101528094505050505092915050565b6000806000806080858703121561177457600080fd5b61177d85611675565b935061178b60208601611675565b9250604085013567ffffffffffffffff808211156117a857600080fd5b6117b4888389016116d1565b935060608701359150808211156117ca57600080fd5b506117d7878288016116d1565b91505092959194509250565b6000806000606084860312156117f857600080fd5b61180184611675565b925061180f60208501611675565b9150604084013590509250925092565b60006020828403121561183157600080fd5b61071982611675565b60006080828403121561184c57600080fd5b6040516080810181811067ffffffffffffffff8211171561186f5761186f6116bb565b8060405250809150823581526020830135602082015260408301356040820152606083013560608201525092915050565b60008060a083850312156118b357600080fd5b6118bd848461183a565b91506118cb60808401611675565b90509250929050565b600080604083850312156118e757600080fd5b823591506118cb60208401611675565b600080600080600080600060e0888a03121561191257600080fd5b61191b88611675565b965061192960208901611675565b95506040880135945060608801359350608088013560ff8116811461194d57600080fd5b9699959850939692959460a0840135945060c09093013592915050565b6000806040838503121561197d57600080fd5b61198683611675565b91506118cb60208401611675565b600181811c908216806119a857607f821691505b60208210810361118757634e487b7160e01b600052602260045260246000fd5b634e487b7160e01b600052602160045260246000fd5b6020810160028310611a0057634e487b7160e01b600052602160045260246000fd5b91905290565b600060208284031215611a1857600080fd5b5051919050565b634e487b7160e01b600052601160045260246000fd5b80820281158282048414176104a0576104a0611a1f565b634e487b7160e01b600052601260045260246000fd5b600082611a7f57634e487b7160e01b600052601260045260246000fd5b500490565b601f821115611ace57600081815260208120601f850160051c81016020861015611aab5750805b601f850160051c820191505b81811015611aca57828155600101611ab7565b5050505b505050565b815167ffffffffffffffff811115611aed57611aed6116bb565b611b0181611afb8454611994565b84611a84565b602080601f831160018114611b365760008415611b1e5750858301515b600019600386901b1c1916600185901b178555611aca565b600085815260208120601f198616915b82811015611b6557888601518255948401946001909101908401611b46565b5085821015611b835787850151600019600388901b60f8161c191681555b5050505050600190811b01905550565b808201808211156104a0576104a0611a1f565b6001600160a01b0384811682528316602082015260c081016111fd6040830184805182526020810151602083015260408101516040830152606081015160608301525050565b6020808252602b908201527f496e697469616c697a61626c653a20636f6e7472616374206973206e6f74206960408201526a6e697469616c697a696e6760a81b60608201526080019056fea2646970667358221220a5cdde99c32b7d455a6ef9444cbe751e80753328da04f5e400ed8a211305faa364736f6c63430008150033",
    "linkReferences": {}
  },
  "methodIdentifiers": {
    "DOMAIN_SEPARATOR()": "3644e515",
    "allowance(address,address)": "dd62ed3e",
    "approve(address,uint256)": "095ea7b3",
    "asset()": "38d52e0f",
    "balanceOf(address)": "70a08231",
    "burn((uint256,uint256,uint256,uint256),address)": "8c490d51",
    "convertToAssets(uint256)": "07a2d13a",
    "convertToShares(uint256)": "c6e6f592",
    "convertToUnderlying(uint256)": "1dc7f521",
    "decimals()": "313ce567",
    "decreaseAllowance(address,uint256)": "a457c2d7",
    "deposit(uint256,address)": "6e553f65",
    "increaseAllowance(address,uint256)": "39509351",
    "initialize(address,address,string,string)": "2016a0d2",
    "maxDeposit(address)": "402d267d",
    "mint((uint256,uint256,uint256,uint256),address)": "6736deee",
    "name()": "06fdde03",
    "nonces(address)": "7ecebe00",
    "permit(address,address,uint256,uint256,uint8,bytes32,bytes32)": "d505accf",
    "previewDeposit(uint256)": "ef8b30f7",
    "previewRedeem(uint256)": "4cdad506",
    "previewWithdraw(uint256)": "0a28a477",
    "sharesOf(address)": "f5eb42dc",
    "symbol()": "95d89b41",
    "totalAssets()": "01e1d114",
    "totalShares()": "3a98ef39",
    "totalSupply()": "18160ddd",
    "transfer(address,uint256)": "a9059cbb",
    "transferFrom(address,address,uint256)": "23b872dd"
  },
  "id": 23
}