{"abi":[{"type":"constructor","inputs":[],"stateMutability":"nonpayable"},{"type":"function","name":"DOMAIN_SEPARATOR","inputs":[],"outputs":[{"name":"","type":"bytes32","internalType":"bytes32"}],"stateMutability":"view"},{"type":"function","name":"FORMAT_DECIMALS","inputs":[],"outputs":[{"name":"","type":"uint256","internalType":"uint256"}],"stateMutability":"view"},{"type":"function","name":"_convertToAssetsFromUnderlying","inputs":[{"name":"shares_","type":"uint256","internalType":"uint256"}],"outputs":[{"name":"","type":"uint256","internalType":"uint256"}],"stateMutability":"view"},{"type":"function","name":"allowance","inputs":[{"name":"owner","type":"address","internalType":"address"},{"name":"spender","type":"address","internalType":"address"}],"outputs":[{"name":"","type":"uint256","internalType":"uint256"}],"stateMutability":"view"},{"type":"function","name":"approve","inputs":[{"name":"spender","type":"address","internalType":"address"},{"name":"amount","type":"uint256","internalType":"uint256"}],"outputs":[{"name":"","type":"bool","internalType":"bool"}],"stateMutability":"nonpayable"},{"type":"function","name":"asset","inputs":[],"outputs":[{"name":"","type":"address","internalType":"address"}],"stateMutability":"view"},{"type":"function","name":"balanceOf","inputs":[{"name":"account_","type":"address","internalType":"address"}],"outputs":[{"name":"","type":"uint256","internalType":"uint256"}],"stateMutability":"view"},{"type":"function","name":"claimReward","inputs":[],"outputs":[{"name":"","type":"uint256","internalType":"uint256"}],"stateMutability":"nonpayable"},{"type":"function","name":"convertToAssets","inputs":[{"name":"shares","type":"uint256","internalType":"uint256"},{"name":"account_","type":"address","internalType":"address"}],"outputs":[{"name":"assets","type":"uint256","internalType":"uint256"}],"stateMutability":"view"},{"type":"function","name":"convertToShares","inputs":[{"name":"assets","type":"uint256","internalType":"uint256"}],"outputs":[{"name":"shares","type":"uint256","internalType":"uint256"}],"stateMutability":"view"},{"type":"function","name":"convertToUnderlying","inputs":[{"name":"shares_","type":"uint256","internalType":"uint256"}],"outputs":[{"name":"","type":"uint256","internalType":"uint256"}],"stateMutability":"view"},{"type":"function","name":"decimals","inputs":[],"outputs":[{"name":"","type":"uint8","internalType":"uint8"}],"stateMutability":"pure"},{"type":"function","name":"decreaseAllowance","inputs":[{"name":"spender","type":"address","internalType":"address"},{"name":"subtractedValue","type":"uint256","internalType":"uint256"}],"outputs":[{"name":"","type":"bool","internalType":"bool"}],"stateMutability":"nonpayable"},{"type":"function","name":"earned","inputs":[{"name":"user_","type":"address","internalType":"address"}],"outputs":[{"name":"","type":"uint256","internalType":"uint256"}],"stateMutability":"view"},{"type":"function","name":"getRewardsData","inputs":[],"outputs":[{"name":"rewardRate","type":"uint256","internalType":"uint256"},{"name":"circulatingSupply","type":"uint256","internalType":"uint256"},{"name":"pendingAllocation","type":"uint256","internalType":"uint256"},{"name":"recicledSupply","type":"uint256","internalType":"uint256"},{"name":"durationLeft","type":"int256","internalType":"int256"}],"stateMutability":"view"},{"type":"function","name":"increaseAllowance","inputs":[{"name":"spender","type":"address","internalType":"address"},{"name":"addedValue","type":"uint256","internalType":"uint256"}],"outputs":[{"name":"","type":"bool","internalType":"bool"}],"stateMutability":"nonpayable"},{"type":"function","name":"initialize","inputs":[{"name":"underlying_","type":"address","internalType":"address"},{"name":"diamond_","type":"address","internalType":"address"},{"name":"name_","type":"string","internalType":"string"},{"name":"symbol_","type":"string","internalType":"string"}],"outputs":[],"stateMutability":"nonpayable"},{"type":"function","name":"lastTimeRewardApplicable","inputs":[],"outputs":[{"name":"","type":"uint256","internalType":"uint256"}],"stateMutability":"view"},{"type":"function","name":"mint","inputs":[{"name":"data_","type":"bytes","internalType":"bytes"},{"name":"owner_","type":"address","internalType":"address"}],"outputs":[{"name":"","type":"uint256","internalType":"uint256"}],"stateMutability":"nonpayable"},{"type":"function","name":"name","inputs":[],"outputs":[{"name":"","type":"string","internalType":"string"}],"stateMutability":"view"},{"type":"function","name":"nonces","inputs":[{"name":"owner","type":"address","internalType":"address"}],"outputs":[{"name":"","type":"uint256","internalType":"uint256"}],"stateMutability":"view"},{"type":"function","name":"notifyRewardAmount","inputs":[{"name":"amount_","type":"uint256","internalType":"uint256"}],"outputs":[],"stateMutability":"nonpayable"},{"type":"function","name":"permit","inputs":[{"name":"owner","type":"address","internalType":"address"},{"name":"spender","type":"address","internalType":"address"},{"name":"value","type":"uint256","internalType":"uint256"},{"name":"deadline","type":"uint256","internalType":"uint256"},{"name":"v","type":"uint8","internalType":"uint8"},{"name":"r","type":"bytes32","internalType":"bytes32"},{"name":"s_","type":"bytes32","internalType":"bytes32"}],"outputs":[],"stateMutability":"nonpayable"},{"type":"function","name":"previewMint","inputs":[{"name":"assets_","type":"uint256","internalType":"uint256"}],"outputs":[{"name":"","type":"uint256","internalType":"uint256"}],"stateMutability":"view"},{"type":"function","name":"previewRedeem","inputs":[{"name":"shares_","type":"uint256","internalType":"uint256"}],"outputs":[{"name":"","type":"uint256","internalType":"uint256"}],"stateMutability":"view"},{"type":"function","name":"previewWithdraw","inputs":[{"name":"assets","type":"uint256","internalType":"uint256"}],"outputs":[{"name":"","type":"uint256","internalType":"uint256"}],"stateMutability":"view"},{"type":"function","name":"redeem","inputs":[{"name":"data_","type":"bytes","internalType":"bytes"},{"name":"owner_","type":"address","internalType":"address"}],"outputs":[{"name":"","type":"uint256","internalType":"uint256"}],"stateMutability":"nonpayable"},{"type":"function","name":"rewardPerToken","inputs":[],"outputs":[{"name":"","type":"uint256","internalType":"uint256"}],"stateMutability":"view"},{"type":"function","name":"setRewardsDuration","inputs":[{"name":"duration_","type":"uint256","internalType":"uint256"}],"outputs":[],"stateMutability":"nonpayable"},{"type":"function","name":"sharesOf","inputs":[{"name":"account_","type":"address","internalType":"address"}],"outputs":[{"name":"","type":"uint256","internalType":"uint256"}],"stateMutability":"view"},{"type":"function","name":"subBalanceOf","inputs":[{"name":"account_","type":"address","internalType":"address"},{"name":"side_","type":"uint8","internalType":"enum ozToken.Dir"}],"outputs":[{"name":"","type":"uint256","internalType":"uint256"}],"stateMutability":"view"},{"type":"function","name":"subConvertToShares","inputs":[{"name":"assets","type":"uint256","internalType":"uint256"},{"name":"account_","type":"address","internalType":"address"}],"outputs":[{"name":"shares","type":"uint256","internalType":"uint256"}],"stateMutability":"view"},{"type":"function","name":"symbol","inputs":[],"outputs":[{"name":"","type":"string","internalType":"string"}],"stateMutability":"view"},{"type":"function","name":"totalAssets","inputs":[],"outputs":[{"name":"","type":"uint256","internalType":"uint256"}],"stateMutability":"view"},{"type":"function","name":"totalShares","inputs":[],"outputs":[{"name":"","type":"uint256","internalType":"uint256"}],"stateMutability":"view"},{"type":"function","name":"totalSupply","inputs":[],"outputs":[{"name":"","type":"uint256","internalType":"uint256"}],"stateMutability":"view"},{"type":"function","name":"transfer","inputs":[{"name":"to","type":"address","internalType":"address"},{"name":"amount","type":"uint256","internalType":"uint256"}],"outputs":[{"name":"","type":"bool","internalType":"bool"}],"stateMutability":"nonpayable"},{"type":"function","name":"transferFrom","inputs":[{"name":"from","type":"address","internalType":"address"},{"name":"to","type":"address","internalType":"address"},{"name":"amount","type":"uint256","internalType":"uint256"}],"outputs":[{"name":"","type":"bool","internalType":"bool"}],"stateMutability":"nonpayable"},{"type":"event","name":"Approval","inputs":[{"name":"owner","type":"address","indexed":true,"internalType":"address"},{"name":"spender","type":"address","indexed":true,"internalType":"address"},{"name":"value","type":"uint256","indexed":false,"internalType":"uint256"}],"anonymous":false},{"type":"event","name":"Initialized","inputs":[{"name":"version","type":"uint8","indexed":false,"internalType":"uint8"}],"anonymous":false},{"type":"event","name":"Transfer","inputs":[{"name":"from","type":"address","indexed":true,"internalType":"address"},{"name":"to","type":"address","indexed":true,"internalType":"address"},{"name":"value","type":"uint256","indexed":false,"internalType":"uint256"}],"anonymous":false},{"type":"error","name":"OZError03","inputs":[]},{"type":"error","name":"OZError04","inputs":[{"name":"from","type":"address","internalType":"address"},{"name":"to","type":"address","internalType":"address"}]},{"type":"error","name":"OZError05","inputs":[{"name":"amount","type":"uint256","internalType":"uint256"}]},{"type":"error","name":"OZError06","inputs":[{"name":"sender","type":"address","internalType":"address"},{"name":"accountShares","type":"uint256","internalType":"uint256"},{"name":"shares","type":"uint256","internalType":"uint256"}]},{"type":"error","name":"OZError07","inputs":[{"name":"from","type":"address","internalType":"address"},{"name":"fromShares","type":"uint256","internalType":"uint256"},{"name":"shares","type":"uint256","internalType":"uint256"}]},{"type":"error","name":"OZError08","inputs":[{"name":"deadline","type":"uint256","internalType":"uint256"},{"name":"blockTimestamp","type":"uint256","internalType":"uint256"}]},{"type":"error","name":"OZError09","inputs":[{"name":"owner","type":"address","internalType":"address"},{"name":"spender","type":"address","internalType":"address"}]},{"type":"error","name":"OZError22","inputs":[{"name":"reason","type":"string","internalType":"string"}]}],"bytecode":{"object":"0x60806040523480156200001157600080fd5b506200001c62000022565b620000e4565b602b54610100900460ff16156200008f5760405162461bcd60e51b815260206004820152602760248201527f496e697469616c697a61626c653a20636f6e747261637420697320696e697469604482015266616c697a696e6760c81b606482015260840160405180910390fd5b602b5460ff9081161015620000e257602b805460ff191660ff9081179091556040519081527f7f26b83ff96e1f2b6a682f133852f6798a09c465da95921460cefb38474024989060200160405180910390a15b565b612fd980620000f46000396000f3fe608060405234801561001057600080fd5b50600436106102315760003560e01c80634702a08411610130578063a457c2d7116100b8578063cc1a378f1161007c578063cc1a378f1461038c578063cd3daf9d14610429578063d505accf1461047a578063dd62ed3e1461048d578063f5eb42dc146104a057600080fd5b8063a457c2d714610441578063a9059cbb14610454578063b3d7f6b914610467578063b88a802f14610429578063c6e6f5921461029d57600080fd5b80637d098e64116100ff5780637d098e64146103e95780637ecebe001461041657806380faa57d1461042957806395d89b4114610430578063a01c87741461043857600080fd5b80634702a0841461039d5780634cdad506146103b057806370a08231146103c357806370a25869146103d657600080fd5b80632016a0d2116101be5780633644e515116101825780633644e5151461034e57806338d52e0f1461035657806339509351146103715780633a98ef39146103845780633c6b16ab1461038c57600080fd5b80632016a0d2146102f157806323b872dd14610306578063279d97ef14610319578063313ce5671461032c578063361032911461033b57600080fd5b80630a28a477116102055780630a28a4771461029d5780630ba097d6146102b05780630cae37f1146102c357806318160ddd146102d65780631dc7f521146102de57600080fd5b80628cc2621461023657806301e1d1141461025d57806306fdde0314610265578063095ea7b31461027a575b600080fd5b61024a61024436600461234a565b50600090565b6040519081526020015b60405180910390f35b61024a6104c9565b61026d6104de565b60405161025491906123b7565b61028d6102883660046123ca565b610570565b6040519015158152602001610254565b61024a6102ab3660046123f6565b610587565b61024a6102be3660046124b0565b610592565b61024a6102d13660046124b0565b610814565b61024a6109dc565b61024a6102ec3660046123f6565b610a30565b6103046102ff366004612536565b610ac0565b005b61028d6103143660046125bf565b610cbe565b61024a610327366004612600565b610ce1565b60405160128152602001610254565b61024a610349366004612632565b610d04565b61024a610d10565b6061546040516001600160a01b039091168152602001610254565b61028d61037f3660046123ca565b610d1a565b61024a610d3b565b61030461039a3660046123f6565b50565b61024a6103ab366004612632565b610d4c565b61024a6103be3660046123f6565b610d58565b61024a6103d136600461234a565b610d63565b61024a6103e43660046123f6565b610d86565b6040805160008082526020820181905291810182905260608101829052608081019190915260a001610254565b61024a61042436600461234a565b610dbc565b600061024a565b61026d610dda565b61024a60685481565b61028d61044f3660046123ca565b610de9565b61028d6104623660046123ca565b610e26565b61024a6104753660046123f6565b610e33565b610304610488366004612666565b610e3e565b61024a61049b3660046126d7565b610f60565b61024a6104ae36600461234a565b6001600160a01b031660009081526063602052604090205490565b6062546000906104d99082610f8b565b905090565b6060606680546104ed90612705565b80601f016020809104026020016040519081016040528092919081815260200182805461051990612705565b80156105665780601f1061053b57610100808354040283529160200191610566565b820191906000526020600020905b81548152906001019060200180831161054957829003601f168201915b5050505050905090565b600061057d338484610fc5565b5060015b92915050565b600061058182611074565b60605460009082906001600160a01b03168015610608576040516241fec360e31b81526001600160a01b03838116600483015282169063020ff61890602401600060405180830381600087803b1580156105eb57600080fd5b505af11580156105ff573d6000803e3d6000fd5b5050505061064c565b6000601a5560006018556001600160a01b0382161561064c576001600160a01b0382166000908152601e60209081526040808320839055601a54601d909252909120555b60008580602001905181019061066291906127ce565b5090506000610686866001600160a01b031660009081526063602052604090205490565b90506000610698836000015188610d4c565b9050808210156106d957604051637ac073bf60e01b81526001600160a01b038816600482015260248101839052604481018290526064015b60405180910390fd5b6060546040516314370d6760e31b815282916001600160a01b03169063a1b86b389061070b908b908d90600401612873565b60408051808303816000875af1925050508015610745575060408051601f3d908101601f1916820190925261074291810190612897565b60015b610797576107516128bb565b806308c379a00361078b57506107656128d7565b80610770575061078d565b80604051631bc63b8160e01b81526004016106d091906123b7565b505b3d6000803e3d6000fd5b6107a2826000611091565b6060546001600160a01b031660009081526063602052604090205494506107cb83866000611101565b6060546001600160a01b039081166000908152606360209081526040808320839055928d168252606990522080549390930390925550955061080c92505050565b505092915050565b60605460009082906001600160a01b0316801561088a576040516241fec360e31b81526001600160a01b03838116600483015282169063020ff61890602401600060405180830381600087803b15801561086d57600080fd5b505af1158015610881573d6000803e3d6000fd5b505050506108ce565b6000601a5560006018556001600160a01b038216156108ce576001600160a01b0382166000908152601e60209081526040808320839055601a54601d909252909120555b600080868060200190518101906108e59190612961565b60685482519294509092506000916108fc9161115f565b6060549091506001600160a01b0316639ea04fe46109226061546001600160a01b031690565b89866040518463ffffffff1660e01b8152600401610942939291906129fa565b6020604051808303816000875af192505050801561097d575060408051601f3d908101601f1916820190925261097a91810190612a73565b60015b610989576107516128bb565b610994816001611091565b816109a181806001611101565b6001600160a01b03909316600090815260636020908152604080832080548701905560699091529020805490920190915550935061080c9050565b60006109e6610d3b565b15610244576104d96109f66104c9565b610a059064e8d4a51000612aa2565b610a17610a10610d3b565b600161116b565b610a29610a22610d3b565b600061116b565b91906111d7565b6000610a3a610d3b565b60605460405163a4fc284b60e01b81526001600160a01b039091169063a4fc284b90610a6b90600190600401612acf565b602060405180830381865afa158015610a88573d6000803e3d6000fd5b505050506040513d601f19601f82011682018060405250810190610aac9190612a73565b610ab69084612aa2565b6105819190612b0d565b602b54610100900460ff1615808015610ae05750602b54600160ff909116105b80610afa5750303b158015610afa5750602b5460ff166001145b610b5d5760405162461bcd60e51b815260206004820152602e60248201527f496e697469616c697a61626c653a20636f6e747261637420697320616c72656160448201526d191e481a5b9a5d1a585b1a5e995960921b60648201526084016106d0565b602b805460ff191660011790558015610b8057602b805461ff0019166101001790555b6066610b8c8482612b6c565b506067610b998382612b6c565b50606080546001600160a01b038087166001600160a01b03199283161790925560618054928816929091169190911790556040805180820190915260018152603160f81b6020820152610bed9084906111f5565b846001600160a01b031663313ce5676040518163ffffffff1660e01b8152600401602060405180830381865afa158015610c2b573d6000803e3d6000fd5b505050506040513d601f19601f82011682018060405250810190610c4f9190612c2c565b60ff16601214610c60576001610c67565b64e8d4a510005b64ffffffffff166068558015610cb757602b805461ff0019169055604051600181527f7f26b83ff96e1f2b6a682f133852f6798a09c465da95921460cefb38474024989060200160405180910390a15b5050505050565b6000610ccb84338461122a565b610cd6848484611278565b5060015b9392505050565b6001600160a01b038216600090815260636020526040812054610cda908361116b565b6000610cda8383611396565b60006104d96113d7565b600061057d338484610d2c3388610f60565b610d369190612c49565b610fc5565b6062546000906104d9906001610f8b565b6000610cda8383611452565b600061058182610d86565b6001600160a01b0381166000908152606360205260408120546105819083610d04565b60008082610d92610d3b565b610d9c9190612c5c565b9050610cda610da96114d5565b610db485600061116b565b8591906111d7565b6001600160a01b038116600090815260646020526040812054610581565b6060606780546104ed90612705565b600080610df63385610f60565b905082811015610e19576040516361ceb1d360e01b815260040160405180910390fd5b610cd63385858403610fc5565b600061057d338484611278565b6000610581826114f3565b83421115610e685760405163184f1e0160e11b8152600481018590524260248201526044016106d0565b60007f6e71edae12b1b97f4d1f60370fef10105fa2faae0126114a169c64845d6126c9888888610e978c611510565b6040805160208101969096526001600160a01b0394851690860152929091166060840152608083015260a082015260c0810186905260e0016040516020818303038152906040528051906020012090506000610ef282611538565b90506000610f0282878787611586565b9050896001600160a01b0316816001600160a01b031614610f4957604051635091bef560e01b81526001600160a01b0380831660048301528b1660248201526044016106d0565b610f548a8a8a610fc5565b50505050505050505050565b6001600160a01b03918216600090815260656020908152604080832093909416825291909152205490565b60006001600160801b0381836001811115610fa857610fa8612ab9565b14610fb557838116610fbd565b608084901c81165b949350505050565b6001600160a01b0383161580610fe257506001600160a01b038216155b1561101357604051637db368a160e01b81526001600160a01b038085166004830152831660248201526044016106d0565b6001600160a01b0383811660008181526065602090815260408083209487168084529482529182902085905590518481527f8c5be1e5ebec7d5bd14f71427d1e84f3dd0314c0f7b2291e5b200ac8c7c3b925910160405180910390a3505050565b6000610581611081610d3b565b6110896114d5565b8491906115ae565b60605460405163b0ff97b560e01b81523060048201526024810184905282151560448201526001600160a01b039091169063b0ff97b590606401600060405180830381600087803b1580156110e557600080fd5b505af11580156110f9573d6000803e3d6000fd5b505050505050565b6062546000906111119082610f8b565b9050600061112b6001606254610f8b90919063ffffffff16565b9050821561113e57908401908301611147565b90849003908390035b61115581608084901b612c49565b6062555050505050565b6000610cda8284612b0d565b600073ae78736cd615f374d3085123a210448e74fc639373c02aaa39b223fe8d0a0e5c4f27ead9083c756cc2826111a38383876115d4565b90506111cd816111b1610d3b565b156111c3576111be610d3b565b6111c5565b825b8891906111d7565b9695505050505050565b60008260001904841183021582026111ee57600080fd5b5091020490565b602b54610100900460ff1661121c5760405162461bcd60e51b81526004016106d090612c6f565b61122682826117bd565b5050565b60006112368484610f60565b905060001981146112725781811015611265576040516306052b7f60e01b8152600481018390526024016106d0565b6112728484848403610fc5565b50505050565b6001600160a01b038316158061129557506001600160a01b038216155b156112c657604051637db368a160e01b81526001600160a01b038085166004830152831660248201526044016106d0565b60006112d1826117fe565b6001600160a01b03851660009081526063602052604090205490915081811015611327576040516315c29bad60e31b81526001600160a01b038616600482015260248101829052604481018390526064016106d0565b6001600160a01b0380861660008181526063602052604080822086860390559287168082529083902080548601905591517fddf252ad1be2c89b69c2b068fc378daa952ba7f163c4a11628f55a4df523b3ef906113879087815260200190565b60405180910390a35050505050565b6000806113a484600061116b565b905080156113cd576113c86113b884611813565b8290670de0b6b3a76400006111d7565b610fbd565b5060009392505050565b60006104d97f8b73c3c69bb8fe3d512ecc4cf759cc79239f7b179b0ffacaa9a75d522b39400f611406602c5490565b602d546040805160208101859052908101839052606081018290524660808201523060a082015260009060c0016040516020818303038152906040528051906020012090509392505050565b600073ae78736cd615f374d3085123a210448e74fc639373c02aaa39b223fe8d0a0e5c4f27ead9083c756cc28261148885611813565b90506000611498848460006115d4565b9050816114ae6114a6610d3b565b8990846115ae565b6114c090670de0b6b3a7640000612aa2565b6114ca9190612b0d565b979650505050505050565b6060546000906001600160a01b03166114ed8161187e565b91505090565b6000610581611500610d3b565b6115086104c9565b8491906111d7565b6001600160a01b03811660009081526064602052604090208054600181018255905b50919050565b60006105816115456113d7565b8360405161190160f01b6020820152602281018390526042810182905260009060620160405160208183030381529060405280519060200120905092915050565b6000806000611597878787876118ca565b915091506115a4816119b7565b5095945050505050565b60008260001904841183021582026115c557600080fd5b50910281810615159190040190565b600073a4e0faa58465a2d369aa21b3e42d43374c6f961381808460018111156115ff576115ff612ab9565b1461160d5762015180611611565b6107085b60408051600280825260608201835262ffffff9390931693506000929091602083019080368337019050509050818160008151811061165257611652612cba565b602002602001019063ffffffff16908163ffffffff168152505060008160018151811061168157611681612cba565b63ffffffff9092166020928302919091019091015260405163883bdbfd60e01b81526000906001600160a01b0385169063883bdbfd906116c5908590600401612cd0565b600060405180830381865afa1580156116e2573d6000803e3d6000fd5b505050506040513d6000823e601f3d908101601f1916820160405261170a9190810190612d89565b50905060008160008151811061172257611722612cba565b60200260200101518260018151811061173d5761173d612cba565b602002602001015161174f9190612e60565b90506000611761600386900b83612e8d565b905060008260060b128015611785575061177f600386900b83612ecb565b60060b15155b15611798578061179481612eed565b9150505b60006117ae82670de0b6b3a76400008d8d611b6d565b9b9a5050505050505050505050565b602b54610100900460ff166117e45760405162461bcd60e51b81526004016106d090612c6f565b815160209283012081519190920120602c91909155602d55565b600061058161180b610d3b565b6115086109dc565b600073ae78736cd615f374d3085123a210448e74fc639373c02aaa39b223fe8d0a0e5c4f27ead9083c756cc2610fbd670de0b6b3a7640000611856866001610ce1565b6001600160a01b038716600090815260636020526040902054610a299064e8d4a51000612aa2565b6040805160048152602481019091526020810180516001600160e01b0316636a57db9d60e11b1790526000906118b48382611c7b565b905080806020019051810190610cda9190612a73565b6000807f7fffffffffffffffffffffffffffffff5d576e7357a4501ddfe92f46681b20a083111561190157506000905060036119ae565b8460ff16601b1415801561191957508460ff16601c14155b1561192a57506000905060046119ae565b6040805160008082526020820180845289905260ff881692820192909252606081018690526080810185905260019060a0016020604051602081039080840390855afa15801561197e573d6000803e3d6000fd5b5050604051601f1901519150506001600160a01b0381166119a7576000600192509250506119ae565b9150600090505b94509492505050565b60008160048111156119cb576119cb612ab9565b036119d35750565b60018160048111156119e7576119e7612ab9565b03611a345760405162461bcd60e51b815260206004820152601860248201527f45434453413a20696e76616c6964207369676e6174757265000000000000000060448201526064016106d0565b6002816004811115611a4857611a48612ab9565b03611a955760405162461bcd60e51b815260206004820152601f60248201527f45434453413a20696e76616c6964207369676e6174757265206c656e6774680060448201526064016106d0565b6003816004811115611aa957611aa9612ab9565b03611b015760405162461bcd60e51b815260206004820152602260248201527f45434453413a20696e76616c6964207369676e6174757265202773272076616c604482015261756560f01b60648201526084016106d0565b6004816004811115611b1557611b15612ab9565b0361039a5760405162461bcd60e51b815260206004820152602260248201527f45434453413a20696e76616c6964207369676e6174757265202776272076616c604482015261756560f01b60648201526084016106d0565b600080611b7986611ca0565b90506001600160801b036001600160a01b03821611611bff576000611ba76001600160a01b03831680612aa2565b9050836001600160a01b0316856001600160a01b031610611bdf57611bda600160c01b876001600160801b0316836120b8565b611bf7565b611bf781876001600160801b0316600160c01b6120b8565b925050611c72565b6000611c1e6001600160a01b03831680680100000000000000006120b8565b9050836001600160a01b0316856001600160a01b031610611c5657611c51600160801b876001600160801b0316836120b8565b611c6e565b611c6e81876001600160801b0316600160801b6120b8565b9250505b50949350505050565b6060610cda8383604051806060016040528060258152602001612f7f6025913961222e565b60008060008360020b12611cb7578260020b611cc4565b8260020b611cc490612f10565b9050611cd3620d89e719612f2c565b60020b811115611d095760405162461bcd60e51b81526020600482015260016024820152601560fa1b60448201526064016106d0565b600081600116600003611d2057600160801b611d32565b6ffffcb933bd6fad37aa2d162d1a5940015b70ffffffffffffffffffffffffffffffffff1690506002821615611d71576080611d6c826ffff97272373d413259a46990580e213a612aa2565b901c90505b6004821615611d9b576080611d96826ffff2e50f5f656932ef12357cf3c7fdcc612aa2565b901c90505b6008821615611dc5576080611dc0826fffe5caca7e10e4e61c3624eaa0941cd0612aa2565b901c90505b6010821615611def576080611dea826fffcb9843d60f6159c9db58835c926644612aa2565b901c90505b6020821615611e19576080611e14826fff973b41fa98c081472e6896dfb254c0612aa2565b901c90505b6040821615611e43576080611e3e826fff2ea16466c96a3843ec78b326b52861612aa2565b901c90505b6080821615611e6d576080611e68826ffe5dee046a99a2a811c461f1969c3053612aa2565b901c90505b610100821615611e98576080611e93826ffcbe86c7900a88aedcffc83b479aa3a4612aa2565b901c90505b610200821615611ec3576080611ebe826ff987a7253ac413176f2b074cf7815e54612aa2565b901c90505b610400821615611eee576080611ee9826ff3392b0822b70005940c7a398e4b70f3612aa2565b901c90505b610800821615611f19576080611f14826fe7159475a2c29b7443b29c7fa6e889d9612aa2565b901c90505b611000821615611f44576080611f3f826fd097f3bdfd2022b8845ad8f792aa5825612aa2565b901c90505b612000821615611f6f576080611f6a826fa9f746462d870fdf8a65dc1f90e061e5612aa2565b901c90505b614000821615611f9a576080611f95826f70d869a156d2a1b890bb3df62baf32f7612aa2565b901c90505b618000821615611fc5576080611fc0826f31be135f97d08fd981231505542fcfa6612aa2565b901c90505b62010000821615611ff1576080611fec826f09aa508b5b7a84e1c677de54f3e99bc9612aa2565b901c90505b6202000082161561201c576080612017826e5d6af8dedb81196699c329225ee604612aa2565b901c90505b62040000821615612046576080612041826d2216e584f5fa1ea926041bedfe98612aa2565b901c90505b6208000082161561206e576080612069826b048a170391f7dc42444e8fa2612aa2565b901c90505b60008460020b13156120895761208681600019612b0d565b90505b61209864010000000082612f4e565b156120a45760016120a7565b60005b610fbd9060ff16602083901c612c49565b60008080600019858709858702925082811083820303915050806000036120f157600084116120e657600080fd5b508290049050610cda565b8084116120fd57600080fd5b60008486880980840393811190920391905060008561211b81612f10565b1695869004959384900493600081900304600101905061213b8184612aa2565b90931792600061214c876003612aa2565b600218905061215b8188612aa2565b612166906002612c5c565b6121709082612aa2565b905061217c8188612aa2565b612187906002612c5c565b6121919082612aa2565b905061219d8188612aa2565b6121a8906002612c5c565b6121b29082612aa2565b90506121be8188612aa2565b6121c9906002612c5c565b6121d39082612aa2565b90506121df8188612aa2565b6121ea906002612c5c565b6121f49082612aa2565b90506122008188612aa2565b61220b906002612c5c565b6122159082612aa2565b90506122218186612aa2565b9998505050505050505050565b6060600080856001600160a01b03168560405161224b9190612f62565b600060405180830381855afa9150503d8060008114612286576040519150601f19603f3d011682016040523d82523d6000602084013e61228b565b606091505b50915091506111cd86838387606083156123065782516000036122ff576001600160a01b0385163b6122ff5760405162461bcd60e51b815260206004820152601d60248201527f416464726573733a2063616c6c20746f206e6f6e2d636f6e747261637400000060448201526064016106d0565b5081610fbd565b610fbd838381511561231b5781518083602001fd5b8060405162461bcd60e51b81526004016106d091906123b7565b6001600160a01b038116811461039a57600080fd5b60006020828403121561235c57600080fd5b8135610cda81612335565b60005b8381101561238257818101518382015260200161236a565b50506000910152565b600081518084526123a3816020860160208601612367565b601f01601f19169290920160200192915050565b602081526000610cda602083018461238b565b600080604083850312156123dd57600080fd5b82356123e881612335565b946020939093013593505050565b60006020828403121561240857600080fd5b5035919050565b634e487b7160e01b600052604160045260246000fd5b601f8201601f1916810167ffffffffffffffff8111828210171561244b5761244b61240f565b6040525050565b600067ffffffffffffffff83111561246c5761246c61240f565b604051612483601f8501601f191660200182612425565b80915083815284848401111561249857600080fd5b83836020830137600060208583010152509392505050565b600080604083850312156124c357600080fd5b823567ffffffffffffffff8111156124da57600080fd5b8301601f810185136124eb57600080fd5b6124fa85823560208401612452565b925050602083013561250b81612335565b809150509250929050565b600082601f83011261252757600080fd5b610cda83833560208501612452565b6000806000806080858703121561254c57600080fd5b843561255781612335565b9350602085013561256781612335565b9250604085013567ffffffffffffffff8082111561258457600080fd5b61259088838901612516565b935060608701359150808211156125a657600080fd5b506125b387828801612516565b91505092959194509250565b6000806000606084860312156125d457600080fd5b83356125df81612335565b925060208401356125ef81612335565b929592945050506040919091013590565b6000806040838503121561261357600080fd5b823561261e81612335565b915060208301356002811061250b57600080fd5b6000806040838503121561264557600080fd5b82359150602083013561250b81612335565b60ff8116811461039a57600080fd5b600080600080600080600060e0888a03121561268157600080fd5b873561268c81612335565b9650602088013561269c81612335565b9550604088013594506060880135935060808801356126ba81612657565b9699959850939692959460a0840135945060c09093013592915050565b600080604083850312156126ea57600080fd5b82356126f581612335565b9150602083013561250b81612335565b600181811c9082168061271957607f821691505b60208210810361153257634e487b7160e01b600052602260045260246000fd5b600067ffffffffffffffff8211156127535761275361240f565b5060051b60200190565b600082601f83011261276e57600080fd5b8151602061277b82612739565b6040516127888282612425565b83815260059390931b85018201928281019150868411156127a857600080fd5b8286015b848110156127c357805183529183019183016127ac565b509695505050505050565b600080604083850312156127e157600080fd5b825167ffffffffffffffff808211156127f957600080fd5b908401906060828703121561280d57600080fd5b6040516060810181811083821117156128285761282861240f565b8060405250825181526020830151602082015260408301518281111561284d57600080fd5b6128598882860161275d565b604083015250809450505050602083015161250b81612335565b6001600160a01b0383168152604060208201819052600090610fbd9083018461238b565b600080604083850312156128aa57600080fd5b505080516020909101519092909150565b600060033d11156128d45760046000803e5060005160e01c5b90565b600060443d10156128e55790565b6040516003193d81016004833e81513d67ffffffffffffffff816024840111818411171561291557505050505090565b828501915081518181111561292d5750505050505090565b843d87010160208285010111156129475750505050505090565b61295660208286010187612425565b509095945050505050565b6000806040838503121561297457600080fd5b825167ffffffffffffffff8082111561298c57600080fd5b90840190604082870312156129a057600080fd5b6040516040810181811083821117156129bb576129bb61240f565b604052825181526020830151828111156129d457600080fd5b6129e08882860161275d565b602083015250809450505050602083015161250b81612335565b600060018060a01b0380861683526020818616818501526060604085015260a08401915084516060850152808501516040608086015282815180855260c0870191508383019450600092505b80831015612a665784518252938301936001929092019190830190612a46565b5098975050505050505050565b600060208284031215612a8557600080fd5b5051919050565b634e487b7160e01b600052601160045260246000fd5b808202811582820484141761058157610581612a8c565b634e487b7160e01b600052602160045260246000fd5b6020810160028310612af157634e487b7160e01b600052602160045260246000fd5b91905290565b634e487b7160e01b600052601260045260246000fd5b600082612b1c57612b1c612af7565b500490565b601f821115612b6757600081815260208120601f850160051c81016020861015612b485750805b601f850160051c820191505b818110156110f957828155600101612b54565b505050565b815167ffffffffffffffff811115612b8657612b8661240f565b612b9a81612b948454612705565b84612b21565b602080601f831160018114612bcf5760008415612bb75750858301515b600019600386901b1c1916600185901b1785556110f9565b600085815260208120601f198616915b82811015612bfe57888601518255948401946001909101908401612bdf565b5085821015612c1c5787850151600019600388901b60f8161c191681555b5050505050600190811b01905550565b600060208284031215612c3e57600080fd5b8151610cda81612657565b8082018082111561058157610581612a8c565b8181038181111561058157610581612a8c565b6020808252602b908201527f496e697469616c697a61626c653a20636f6e7472616374206973206e6f74206960408201526a6e697469616c697a696e6760a81b606082015260800190565b634e487b7160e01b600052603260045260246000fd5b6020808252825182820181905260009190848201906040850190845b81811015612d0e57835163ffffffff1683529284019291840191600101612cec565b50909695505050505050565b600082601f830112612d2b57600080fd5b81516020612d3882612739565b604051612d458282612425565b83815260059390931b8501820192828101915086841115612d6557600080fd5b8286015b848110156127c3578051612d7c81612335565b8352918301918301612d69565b60008060408385031215612d9c57600080fd5b825167ffffffffffffffff80821115612db457600080fd5b818501915085601f830112612dc857600080fd5b81516020612dd582612739565b604051612de28282612425565b83815260059390931b8501820192828101915089841115612e0257600080fd5b948201945b83861015612e305785518060060b8114612e215760008081fd5b82529482019490820190612e07565b91880151919650909350505080821115612e4957600080fd5b50612e5685828601612d1a565b9150509250929050565b600682810b9082900b03667fffffffffffff198112667fffffffffffff8213171561058157610581612a8c565b60008160060b8360060b80612ea457612ea4612af7565b667fffffffffffff19821460001982141615612ec257612ec2612a8c565b90059392505050565b60008260060b80612ede57612ede612af7565b808360060b0791505092915050565b60008160020b627fffff198103612f0657612f06612a8c565b6000190192915050565b6000600160ff1b8201612f2557612f25612a8c565b5060000390565b60008160020b627fffff198103612f4557612f45612a8c565b60000392915050565b600082612f5d57612f5d612af7565b500690565b60008251612f74818460208701612367565b919091019291505056fe416464726573733a206c6f772d6c6576656c207374617469632063616c6c206661696c6564a2646970667358221220d6e7fb32caf268b35b89960be04d51413a2602f28e249b91098064e93cfc78e364736f6c63430008150033","linkReferences":{}},"methodIdentifiers":{"DOMAIN_SEPARATOR()":"3644e515","FORMAT_DECIMALS()":"a01c8774","_convertToAssetsFromUnderlying(uint256)":"70a25869","allowance(address,address)":"dd62ed3e","approve(address,uint256)":"095ea7b3","asset()":"38d52e0f","balanceOf(address)":"70a08231","claimReward()":"b88a802f","convertToAssets(uint256,address)":"36103291","convertToShares(uint256)":"c6e6f592","convertToUnderlying(uint256)":"1dc7f521","decimals()":"313ce567","decreaseAllowance(address,uint256)":"a457c2d7","earned(address)":"008cc262","getRewardsData()":"7d098e64","increaseAllowance(address,uint256)":"39509351","initialize(address,address,string,string)":"2016a0d2","lastTimeRewardApplicable()":"80faa57d","mint(bytes,address)":"0cae37f1","name()":"06fdde03","nonces(address)":"7ecebe00","notifyRewardAmount(uint256)":"3c6b16ab","permit(address,address,uint256,uint256,uint8,bytes32,bytes32)":"d505accf","previewMint(uint256)":"b3d7f6b9","previewRedeem(uint256)":"4cdad506","previewWithdraw(uint256)":"0a28a477","redeem(bytes,address)":"0ba097d6","rewardPerToken()":"cd3daf9d","setRewardsDuration(uint256)":"cc1a378f","sharesOf(address)":"f5eb42dc","subBalanceOf(address,uint8)":"279d97ef","subConvertToShares(uint256,address)":"4702a084","symbol()":"95d89b41","totalAssets()":"01e1d114","totalShares()":"3a98ef39","totalSupply()":"18160ddd","transfer(address,uint256)":"a9059cbb","transferFrom(address,address,uint256)":"23b872dd"},"id":45}