{
  "abi": [
    {
      "inputs": [],
      "stateMutability": "nonpayable",
      "type": "constructor"
    },
    {
      "inputs": [],
      "name": "OZError03",
      "type": "error"
    },
    {
      "inputs": [
        {
          "internalType": "address",
          "name": "from",
          "type": "address"
        },
        {
          "internalType": "address",
          "name": "to",
          "type": "address"
        }
      ],
      "name": "OZError04",
      "type": "error"
    },
    {
      "inputs": [
        {
          "internalType": "uint256",
          "name": "amount",
          "type": "uint256"
        }
      ],
      "name": "OZError05",
      "type": "error"
    },
    {
      "inputs": [
        {
          "internalType": "address",
          "name": "sender",
          "type": "address"
        },
        {
          "internalType": "uint256",
          "name": "accountShares",
          "type": "uint256"
        },
        {
          "internalType": "uint256",
          "name": "shares",
          "type": "uint256"
        }
      ],
      "name": "OZError06",
      "type": "error"
    },
    {
      "inputs": [
        {
          "internalType": "address",
          "name": "from",
          "type": "address"
        },
        {
          "internalType": "uint256",
          "name": "fromShares",
          "type": "uint256"
        },
        {
          "internalType": "uint256",
          "name": "shares",
          "type": "uint256"
        }
      ],
      "name": "OZError07",
      "type": "error"
    },
    {
      "inputs": [
        {
          "internalType": "uint256",
          "name": "deadline",
          "type": "uint256"
        },
        {
          "internalType": "uint256",
          "name": "blockTimestamp",
          "type": "uint256"
        }
      ],
      "name": "OZError08",
      "type": "error"
    },
    {
      "inputs": [
        {
          "internalType": "address",
          "name": "owner",
          "type": "address"
        },
        {
          "internalType": "address",
          "name": "spender",
          "type": "address"
        }
      ],
      "name": "OZError09",
      "type": "error"
    },
    {
      "inputs": [
        {
          "internalType": "string",
          "name": "reason",
          "type": "string"
        }
      ],
      "name": "OZError22",
      "type": "error"
    },
    {
      "anonymous": false,
      "inputs": [
        {
          "indexed": true,
          "internalType": "address",
          "name": "owner",
          "type": "address"
        },
        {
          "indexed": true,
          "internalType": "address",
          "name": "spender",
          "type": "address"
        },
        {
          "indexed": false,
          "internalType": "uint256",
          "name": "value",
          "type": "uint256"
        }
      ],
      "name": "Approval",
      "type": "event"
    },
    {
      "anonymous": false,
      "inputs": [
        {
          "indexed": false,
          "internalType": "uint8",
          "name": "version",
          "type": "uint8"
        }
      ],
      "name": "Initialized",
      "type": "event"
    },
    {
      "anonymous": false,
      "inputs": [
        {
          "indexed": true,
          "internalType": "address",
          "name": "from",
          "type": "address"
        },
        {
          "indexed": true,
          "internalType": "address",
          "name": "to",
          "type": "address"
        },
        {
          "indexed": false,
          "internalType": "uint256",
          "name": "value",
          "type": "uint256"
        }
      ],
      "name": "Transfer",
      "type": "event"
    },
    {
      "inputs": [],
      "name": "DOMAIN_SEPARATOR",
      "outputs": [
        {
          "internalType": "bytes32",
          "name": "",
          "type": "bytes32"
        }
      ],
      "stateMutability": "view",
      "type": "function"
    },
    {
      "inputs": [],
      "name": "FORMAT_DECIMALS",
      "outputs": [
        {
          "internalType": "uint256",
          "name": "",
          "type": "uint256"
        }
      ],
      "stateMutability": "view",
      "type": "function"
    },
    {
      "inputs": [
        {
          "internalType": "address",
          "name": "owner",
          "type": "address"
        },
        {
          "internalType": "address",
          "name": "spender",
          "type": "address"
        }
      ],
      "name": "allowance",
      "outputs": [
        {
          "internalType": "uint256",
          "name": "",
          "type": "uint256"
        }
      ],
      "stateMutability": "view",
      "type": "function"
    },
    {
      "inputs": [
        {
          "internalType": "address",
          "name": "spender",
          "type": "address"
        },
        {
          "internalType": "uint256",
          "name": "amount",
          "type": "uint256"
        }
      ],
      "name": "approve",
      "outputs": [
        {
          "internalType": "bool",
          "name": "",
          "type": "bool"
        }
      ],
      "stateMutability": "nonpayable",
      "type": "function"
    },
    {
      "inputs": [],
      "name": "asset",
      "outputs": [
        {
          "internalType": "address",
          "name": "",
          "type": "address"
        }
      ],
      "stateMutability": "view",
      "type": "function"
    },
    {
      "inputs": [
        {
          "internalType": "address",
          "name": "account_",
          "type": "address"
        }
      ],
      "name": "balanceOf",
      "outputs": [
        {
          "internalType": "uint256",
          "name": "",
          "type": "uint256"
        }
      ],
      "stateMutability": "view",
      "type": "function"
    },
    {
      "inputs": [],
      "name": "claimReward",
      "outputs": [
        {
          "internalType": "uint256",
          "name": "",
          "type": "uint256"
        }
      ],
      "stateMutability": "nonpayable",
      "type": "function"
    },
    {
      "inputs": [
        {
          "internalType": "uint256",
          "name": "shares",
          "type": "uint256"
        },
        {
          "internalType": "address",
          "name": "account_",
          "type": "address"
        }
      ],
      "name": "convertToAssets",
      "outputs": [
        {
          "internalType": "uint256",
          "name": "assets",
          "type": "uint256"
        }
      ],
      "stateMutability": "view",
      "type": "function"
    },
    {
      "inputs": [
        {
          "internalType": "uint256",
          "name": "assets",
          "type": "uint256"
        }
      ],
      "name": "convertToShares",
      "outputs": [
        {
          "internalType": "uint256",
          "name": "shares",
          "type": "uint256"
        }
      ],
      "stateMutability": "view",
      "type": "function"
    },
    {
      "inputs": [
        {
          "internalType": "uint256",
          "name": "shares_",
          "type": "uint256"
        }
      ],
      "name": "convertToUnderlying",
      "outputs": [
        {
          "internalType": "uint256",
          "name": "amountUnderlying",
          "type": "uint256"
        }
      ],
      "stateMutability": "view",
      "type": "function"
    },
    {
      "inputs": [],
      "name": "decimals",
      "outputs": [
        {
          "internalType": "uint8",
          "name": "",
          "type": "uint8"
        }
      ],
      "stateMutability": "pure",
      "type": "function"
    },
    {
      "inputs": [
        {
          "internalType": "address",
          "name": "spender",
          "type": "address"
        },
        {
          "internalType": "uint256",
          "name": "subtractedValue",
          "type": "uint256"
        }
      ],
      "name": "decreaseAllowance",
      "outputs": [
        {
          "internalType": "bool",
          "name": "",
          "type": "bool"
        }
      ],
      "stateMutability": "nonpayable",
      "type": "function"
    },
    {
      "inputs": [
        {
          "internalType": "address",
          "name": "user_",
          "type": "address"
        }
      ],
      "name": "earned",
      "outputs": [
        {
          "internalType": "uint256",
          "name": "",
          "type": "uint256"
        }
      ],
      "stateMutability": "view",
      "type": "function"
    },
    {
      "inputs": [],
      "name": "getRewardsData",
      "outputs": [
        {
          "internalType": "uint256",
          "name": "rewardRate",
          "type": "uint256"
        },
        {
          "internalType": "uint256",
          "name": "circulatingSupply",
          "type": "uint256"
        },
        {
          "internalType": "uint256",
          "name": "pendingAllocation",
          "type": "uint256"
        },
        {
          "internalType": "uint256",
          "name": "recicledSupply",
          "type": "uint256"
        },
        {
          "internalType": "int256",
          "name": "durationLeft",
          "type": "int256"
        }
      ],
      "stateMutability": "view",
      "type": "function"
    },
    {
      "inputs": [
        {
          "internalType": "address",
          "name": "spender",
          "type": "address"
        },
        {
          "internalType": "uint256",
          "name": "addedValue",
          "type": "uint256"
        }
      ],
      "name": "increaseAllowance",
      "outputs": [
        {
          "internalType": "bool",
          "name": "",
          "type": "bool"
        }
      ],
      "stateMutability": "nonpayable",
      "type": "function"
    },
    {
      "inputs": [
        {
          "internalType": "address",
          "name": "underlying_",
          "type": "address"
        },
        {
          "internalType": "address",
          "name": "diamond_",
          "type": "address"
        },
        {
          "internalType": "string",
          "name": "name_",
          "type": "string"
        },
        {
          "internalType": "string",
          "name": "symbol_",
          "type": "string"
        }
      ],
      "name": "initialize",
      "outputs": [],
      "stateMutability": "nonpayable",
      "type": "function"
    },
    {
      "inputs": [],
      "name": "lastTimeRewardApplicable",
      "outputs": [
        {
          "internalType": "uint256",
          "name": "",
          "type": "uint256"
        }
      ],
      "stateMutability": "view",
      "type": "function"
    },
    {
      "inputs": [
        {
          "internalType": "bytes",
          "name": "data_",
          "type": "bytes"
        },
        {
          "internalType": "address",
          "name": "owner_",
          "type": "address"
        }
      ],
      "name": "mint",
      "outputs": [
        {
          "internalType": "uint256",
          "name": "",
          "type": "uint256"
        }
      ],
      "stateMutability": "nonpayable",
      "type": "function"
    },
    {
      "inputs": [],
      "name": "name",
      "outputs": [
        {
          "internalType": "string",
          "name": "",
          "type": "string"
        }
      ],
      "stateMutability": "view",
      "type": "function"
    },
    {
      "inputs": [
        {
          "internalType": "address",
          "name": "owner",
          "type": "address"
        }
      ],
      "name": "nonces",
      "outputs": [
        {
          "internalType": "uint256",
          "name": "",
          "type": "uint256"
        }
      ],
      "stateMutability": "view",
      "type": "function"
    },
    {
      "inputs": [
        {
          "internalType": "uint256",
          "name": "amount_",
          "type": "uint256"
        }
      ],
      "name": "notifyRewardAmount",
      "outputs": [],
      "stateMutability": "nonpayable",
      "type": "function"
    },
    {
      "inputs": [
        {
          "internalType": "address",
          "name": "owner",
          "type": "address"
        },
        {
          "internalType": "address",
          "name": "spender",
          "type": "address"
        },
        {
          "internalType": "uint256",
          "name": "value",
          "type": "uint256"
        },
        {
          "internalType": "uint256",
          "name": "deadline",
          "type": "uint256"
        },
        {
          "internalType": "uint8",
          "name": "v",
          "type": "uint8"
        },
        {
          "internalType": "bytes32",
          "name": "r",
          "type": "bytes32"
        },
        {
          "internalType": "bytes32",
          "name": "s_",
          "type": "bytes32"
        }
      ],
      "name": "permit",
      "outputs": [],
      "stateMutability": "nonpayable",
      "type": "function"
    },
    {
      "inputs": [
        {
          "internalType": "uint256",
          "name": "assets_",
          "type": "uint256"
        }
      ],
      "name": "previewMint",
      "outputs": [
        {
          "internalType": "uint256",
          "name": "",
          "type": "uint256"
        }
      ],
      "stateMutability": "view",
      "type": "function"
    },
    {
      "inputs": [
        {
          "internalType": "uint256",
          "name": "shares_",
          "type": "uint256"
        }
      ],
      "name": "previewRedeem",
      "outputs": [
        {
          "internalType": "uint256",
          "name": "",
          "type": "uint256"
        }
      ],
      "stateMutability": "view",
      "type": "function"
    },
    {
      "inputs": [
        {
          "internalType": "uint256",
          "name": "assets",
          "type": "uint256"
        }
      ],
      "name": "previewWithdraw",
      "outputs": [
        {
          "internalType": "uint256",
          "name": "",
          "type": "uint256"
        }
      ],
      "stateMutability": "view",
      "type": "function"
    },
    {
      "inputs": [
        {
          "internalType": "bytes",
          "name": "data_",
          "type": "bytes"
        },
        {
          "internalType": "address",
          "name": "owner_",
          "type": "address"
        }
      ],
      "name": "redeem",
      "outputs": [
        {
          "internalType": "uint256",
          "name": "",
          "type": "uint256"
        }
      ],
      "stateMutability": "nonpayable",
      "type": "function"
    },
    {
      "inputs": [],
      "name": "rewardPerToken",
      "outputs": [
        {
          "internalType": "uint256",
          "name": "",
          "type": "uint256"
        }
      ],
      "stateMutability": "view",
      "type": "function"
    },
    {
      "inputs": [
        {
          "internalType": "uint256",
          "name": "duration_",
          "type": "uint256"
        }
      ],
      "name": "setRewardsDuration",
      "outputs": [],
      "stateMutability": "nonpayable",
      "type": "function"
    },
    {
      "inputs": [
        {
          "internalType": "address",
          "name": "account_",
          "type": "address"
        }
      ],
      "name": "sharesOf",
      "outputs": [
        {
          "internalType": "uint256",
          "name": "",
          "type": "uint256"
        }
      ],
      "stateMutability": "view",
      "type": "function"
    },
    {
      "inputs": [
        {
          "internalType": "address",
          "name": "account_",
          "type": "address"
        }
      ],
      "name": "subBalanceOf",
      "outputs": [
        {
          "internalType": "uint256",
          "name": "",
          "type": "uint256"
        }
      ],
      "stateMutability": "view",
      "type": "function"
    },
    {
      "inputs": [
        {
          "internalType": "uint256",
          "name": "assets",
          "type": "uint256"
        },
        {
          "internalType": "address",
          "name": "account_",
          "type": "address"
        }
      ],
      "name": "subConvertToShares",
      "outputs": [
        {
          "internalType": "uint256",
          "name": "shares",
          "type": "uint256"
        }
      ],
      "stateMutability": "view",
      "type": "function"
    },
    {
      "inputs": [],
      "name": "symbol",
      "outputs": [
        {
          "internalType": "string",
          "name": "",
          "type": "string"
        }
      ],
      "stateMutability": "view",
      "type": "function"
    },
    {
      "inputs": [],
      "name": "totalAssets",
      "outputs": [
        {
          "internalType": "uint256",
          "name": "",
          "type": "uint256"
        }
      ],
      "stateMutability": "view",
      "type": "function"
    },
    {
      "inputs": [],
      "name": "totalShares",
      "outputs": [
        {
          "internalType": "uint256",
          "name": "",
          "type": "uint256"
        }
      ],
      "stateMutability": "view",
      "type": "function"
    },
    {
      "inputs": [],
      "name": "totalSupply",
      "outputs": [
        {
          "internalType": "uint256",
          "name": "",
          "type": "uint256"
        }
      ],
      "stateMutability": "view",
      "type": "function"
    },
    {
      "inputs": [
        {
          "internalType": "address",
          "name": "to",
          "type": "address"
        },
        {
          "internalType": "uint256",
          "name": "amount",
          "type": "uint256"
        }
      ],
      "name": "transfer",
      "outputs": [
        {
          "internalType": "bool",
          "name": "",
          "type": "bool"
        }
      ],
      "stateMutability": "nonpayable",
      "type": "function"
    },
    {
      "inputs": [
        {
          "internalType": "address",
          "name": "from",
          "type": "address"
        },
        {
          "internalType": "address",
          "name": "to",
          "type": "address"
        },
        {
          "internalType": "uint256",
          "name": "amount",
          "type": "uint256"
        }
      ],
      "name": "transferFrom",
      "outputs": [
        {
          "internalType": "bool",
          "name": "",
          "type": "bool"
        }
      ],
      "stateMutability": "nonpayable",
      "type": "function"
    }
  ],
  "bytecode": {
    "object": "0x60806040523480156200001157600080fd5b506200001c62000022565b620000e4565b602b54610100900460ff16156200008f5760405162461bcd60e51b815260206004820152602760248201527f496e697469616c697a61626c653a20636f6e747261637420697320696e697469604482015266616c697a696e6760c81b606482015260840160405180910390fd5b602b5460ff9081161015620000e257602b805460ff191660ff9081179091556040519081527f7f26b83ff96e1f2b6a682f133852f6798a09c465da95921460cefb38474024989060200160405180910390a15b565b612a7080620000f46000396000f3fe608060405234801561001057600080fd5b50600436106102265760003560e01c80633c6b16ab11610130578063a457c2d7116100b8578063cc1a378f1161007c578063cc1a378f14610381578063cd3daf9d1461040b578063d505accf1461045c578063dd62ed3e1461046f578063f5eb42dc1461048257600080fd5b8063a457c2d714610423578063a9059cbb14610436578063b3d7f6b914610449578063b88a802f1461040b578063c6e6f5921461029257600080fd5b80637d098e64116100ff5780637d098e64146103cb5780637ecebe00146103f857806380faa57d1461040b57806395d89b4114610412578063a01c87741461041a57600080fd5b80633c6b16ab146103815780634702a084146103925780634cdad506146103a557806370a08231146103b857600080fd5b80632016a0d2116101b3578063361032911161018257806336103291146103305780633644e5151461034357806338d52e0f1461034b57806339509351146103665780633a98ef391461037957600080fd5b80632016a0d2146102e657806323b872dd146102fb578063313ce5671461030e57806332e506901461031d57600080fd5b80630a28a477116101fa5780630a28a477146102925780630ba097d6146102a55780630cae37f1146102b857806318160ddd146102cb5780631dc7f521146102d357600080fd5b80628cc2621461022b57806301e1d1141461025257806306fdde031461025a578063095ea7b31461026f575b600080fd5b61023f610239366004612016565b50600090565b6040519081526020015b60405180910390f35b61023f6104ab565b6102626104c0565b6040516102499190612083565b61028261027d366004612096565b610552565b6040519015158152602001610249565b61023f6102a03660046120c2565b610569565b61023f6102b336600461217c565b610574565b61023f6102c636600461217c565b61085f565b61023f610a47565b61023f6102e13660046120c2565b610a9c565b6102f96102f4366004612202565b610ccf565b005b61028261030936600461228b565b610ecd565b60405160128152602001610249565b61023f61032b366004612016565b610eef565b61023f61033e3660046122cc565b610f11565b61023f610f24565b6061546040516001600160a01b039091168152602001610249565b610282610374366004612096565b610f2e565b61023f610f4f565b6102f961038f3660046120c2565b50565b61023f6103a03660046122cc565b610f60565b61023f6103b33660046120c2565b610f6c565b61023f6103c6366004612016565b610f77565b6040805160008082526020820181905291810182905260608101829052608081019190915260a001610249565b61023f610406366004612016565b610f9a565b600061023f565b610262610fb8565b61023f60685481565b610282610431366004612096565b610fc7565b610282610444366004612096565b611004565b61023f6104573660046120c2565b611011565b6102f961046a366004612300565b61101c565b61023f61047d366004612371565b61113e565b61023f610490366004612016565b6001600160a01b031660009081526063602052604090205490565b6062546000906104bb9082611169565b905090565b6060606680546104cf9061239f565b80601f01602080910402602001604051908101604052809291908181526020018280546104fb9061239f565b80156105485780601f1061051d57610100808354040283529160200191610548565b820191906000526020600020905b81548152906001019060200180831161052b57829003601f168201915b5050505050905090565b600061055f3384846111ac565b5060015b92915050565b60006105638261125b565b60605460009082906001600160a01b031680156105ea576040516241fec360e31b81526001600160a01b03838116600483015282169063020ff61890602401600060405180830381600087803b1580156105cd57600080fd5b505af11580156105e1573d6000803e3d6000fd5b5050505061062e565b6000601a5560006018556001600160a01b0382161561062e576001600160a01b0382166000908152601e60209081526040808320839055601a54601d909252909120555b6000858060200190518101906106449190612454565b5090506000610668866001600160a01b031660009081526063602052604090205490565b9050600061067a836000015188610f60565b90506106ae6040518060400160405280600c81526020016b037bd20b6b7bab73a24b71d160a51b8152508460000151611289565b6106d06040518060600160405280602281526020016129646022913982611289565b6106f26040518060600160405280603281526020016129866032913983611289565b8082101561073157604051637ac073bf60e01b81526001600160a01b038816600482015260248101839052604481018290526064015b60405180910390fd5b600061073c82610f6c565b6060546040516314370d6760e31b81529192506001600160a01b03169063a1b86b389061076f908b908d906004016124f9565b60408051808303816000875af19250505080156107a9575060408051601f3d908101601f191682019092526107a69181019061251d565b60015b6107fb576107b5612541565b806308c379a0036107ef57506107c961255d565b806107d457506107f1565b80604051631bc63b8160e01b81526004016107289190612083565b505b3d6000803e3d6000fd5b6108068260006112d2565b6060546001600160a01b0316600090815260636020526040902054945061082f83866000611342565b6060546001600160a01b03166000908152606360205260408120559750610857945050505050565b505092915050565b60605460009082906001600160a01b031680156108d5576040516241fec360e31b81526001600160a01b03838116600483015282169063020ff61890602401600060405180830381600087803b1580156108b857600080fd5b505af11580156108cc573d6000803e3d6000fd5b50505050610919565b6000601a5560006018556001600160a01b03821615610919576001600160a01b0382166000908152601e60209081526040808320839055601a54601d909252909120555b6000808680602001905181019061093091906125e7565b6068548251929450909250600091610947916113a0565b6060549091506001600160a01b0316639ea04fe461096d6061546001600160a01b031690565b89866040518463ffffffff1660e01b815260040161098d93929190612680565b6020604051808303816000875af19250505080156109c8575060408051601f3d908101601f191682019092526109c5918101906126f9565b60015b6109d4576107b5612541565b6109df8160016112d2565b60006109e9610f4f565b156109fc576109f783611011565b6109fe565b825b9050610a0c83826001611342565b6001600160a01b0390931660009081526063602090815260408083208054870190556069909152902080549092019091555093506108579050565b6000610a51610f4f565b1561023957610a66610a61610f4f565b6113ac565b610a6e6104ab565b610a7d9064e8d4a51000612728565b610a87919061273f565b610a92610a61610f4f565b6104bb9190612728565b6000610ab6604051806020016040528060008152506113ef565b610af46040518060400160405280601e81526020017f2d2d2d20696e20636f6e76657274546f556e6465726c79696e67202d2d2d00008152506113ef565b610b1e60405180604001604052806008815260200167039b430b932b99d160c51b81525083611289565b604080518082018252601181527003a37ba30b62ab73232b9363cb4b7339d1607d1b6020820152606054915163a4fc284b60e01b8152610bbd926001600160a01b03169063a4fc284b90610b7790600190600401612777565b602060405180830381865afa158015610b94573d6000803e3d6000fd5b505050506040513d601f19601f82011682018060405250810190610bb891906126f9565b611289565b610bee6040518060400160405280600d81526020016c03a37ba30b629b430b932b99d1609d1b815250610bb8610f4f565b610bf6610f4f565b60605460405163a4fc284b60e01b81526001600160a01b039091169063a4fc284b90610c2790600190600401612777565b602060405180830381865afa158015610c44573d6000803e3d6000fd5b505050506040513d601f19601f82011682018060405250810190610c6891906126f9565b610c729084612728565b610c7c919061273f565b9050610cb260405180604001604052806012815260200171030b6b7bab73a2ab73232b9363cb4b7339d160751b81525082611289565b610cca604051806020016040528060008152506113ef565b919050565b602b54610100900460ff1615808015610cef5750602b54600160ff909116105b80610d095750303b158015610d095750602b5460ff166001145b610d6c5760405162461bcd60e51b815260206004820152602e60248201527f496e697469616c697a61626c653a20636f6e747261637420697320616c72656160448201526d191e481a5b9a5d1a585b1a5e995960921b6064820152608401610728565b602b805460ff191660011790558015610d8f57602b805461ff0019166101001790555b6066610d9b84826127ea565b506067610da883826127ea565b50606080546001600160a01b038087166001600160a01b03199283161790925560618054928816929091169190911790556040805180820190915260018152603160f81b6020820152610dfc908490611432565b846001600160a01b031663313ce5676040518163ffffffff1660e01b8152600401602060405180830381865afa158015610e3a573d6000803e3d6000fd5b505050506040513d601f19601f82011682018060405250810190610e5e91906128aa565b60ff16601214610e6f576001610e76565b64e8d4a510005b64ffffffffff166068558015610ec657602b805461ff0019169055604051600181527f7f26b83ff96e1f2b6a682f133852f6798a09c465da95921460cefb38474024989060200160405180910390a15b5050505050565b6000610eda843384611463565b610ee58484846114b1565b5060019392505050565b6001600160a01b038116600090815260636020526040812054610563906113ac565b6000610f1d8383611673565b9392505050565b60006104bb6116a9565b600061055f338484610f40338861113e565b610f4a91906128c7565b6111ac565b6062546000906104bb906001611169565b6000610f1d8383611724565b60006105638261188b565b6001600160a01b0381166000908152606360205260408120546105639083610f11565b6001600160a01b038116600090815260646020526040812054610563565b6060606780546104cf9061239f565b600080610fd4338561113e565b905082811015610ff7576040516361ceb1d360e01b815260040160405180910390fd5b610ee533858584036111ac565b600061055f3384846114b1565b60006105638261190e565b834211156110465760405163184f1e0160e11b815260048101859052426024820152604401610728565b60007f6e71edae12b1b97f4d1f60370fef10105fa2faae0126114a169c64845d6126c98888886110758c611923565b6040805160208101969096526001600160a01b0394851690860152929091166060840152608083015260a082015260c0810186905260e00160405160208183030381529060405280519060200120905060006110d08261194b565b905060006110e082878787611999565b9050896001600160a01b0316816001600160a01b03161461112757604051635091bef560e01b81526001600160a01b0380831660048301528b166024820152604401610728565b6111328a8a8a6111ac565b50505050505050505050565b6001600160a01b03918216600090815260656020908152604080832093909416825291909152205490565b60006fffffffffffffffffffffffffffffffff8183600181111561118f5761118f612761565b1461119c578381166111a4565b608084901c81165b949350505050565b6001600160a01b03831615806111c957506001600160a01b038216155b156111fa57604051637db368a160e01b81526001600160a01b03808516600483015283166024820152604401610728565b6001600160a01b0383811660008181526065602090815260408083209487168084529482529182902085905590518481527f8c5be1e5ebec7d5bd14f71427d1e84f3dd0314c0f7b2291e5b200ac8c7c3b925910160405180910390a3505050565b6060546000906001600160a01b031681611274826119c1565b90506111a4611281610f4f565b859083611a0d565b6112ce828260405160240161129f9291906128da565b60408051601f198184030181529190526020810180516001600160e01b03166309710a9d60e41b179052611a33565b5050565b60605460405163b0ff97b560e01b81523060048201526024810184905282151560448201526001600160a01b039091169063b0ff97b590606401600060405180830381600087803b15801561132657600080fd5b505af115801561133a573d6000803e3d6000fd5b505050505050565b6062546000906113529082611169565b9050600061136c600160625461116990919063ffffffff16565b9050821561137f57908401908301611388565b90849003908390035b61139682608083901b6128c7565b6062555050505050565b6000610f1d828461273f565b6060546000906001600160a01b0316816113c5826119c1565b90506111a4816113d3610f4f565b156113e5576113e0610f4f565b6113e7565b825b869190611a54565b61038f816040516024016114039190612083565b60408051601f198184030181529190526020810180516001600160e01b031663104c13eb60e21b179052611a33565b602b54610100900460ff166114595760405162461bcd60e51b8152600401610728906128fc565b6112ce8282611a72565b600061146f848461113e565b905060001981146114ab578181101561149e576040516306052b7f60e01b815260048101839052602401610728565b6114ab84848484036111ac565b50505050565b6001600160a01b03831615806114ce57506001600160a01b038216155b156114ff57604051637db368a160e01b81526001600160a01b03808516600483015283166024820152604401610728565b600061150a84611ab3565b61151383610569565b61151d919061273f565b6001600160a01b038516600090815260636020908152604080832054815192830190915291815291925090611551906113ef565b611586604051806040016040528060148152602001732d2d2d20696e205f7472616e73666572202d2d2d60601b8152506113ef565b6115a86040518060600160405280603181526020016129dd6031913983611289565b6115ca6040518060600160405280602d8152602001612a0e602d913982611289565b81811015611604576040516315c29bad60e31b81526001600160a01b03861660048201526024810182905260448101839052606401610728565b6001600160a01b0380861660008181526063602052604080822086860390559287168082529083902080548601905591517fddf252ad1be2c89b69c2b068fc378daa952ba7f163c4a11628f55a4df523b3ef906116649087815260200190565b60405180910390a35050505050565b60008061167f846113ac565b9050801561169f5761169083611ab3565b61169a9082612728565b6111a4565b5060009392505050565b60006104bb7f8b73c3c69bb8fe3d512ecc4cf759cc79239f7b179b0ffacaa9a75d522b39400f6116d8602c5490565b602d546040805160208101859052908101839052606081018290524660808201523060a082015260009060c0016040516020818303038152906040528051906020012090509392505050565b600061173e604051806020016040528060008152506113ef565b61177c6040518060400160405280601b81526020017f2d2d2d20696e205f636f6e76657274546f536861726573202d2d2d00000000008152506113ef565b6117a760405180604001604052806009815260200168030b9b9b2ba39af9d160bd1b81525084611289565b6117d86040518060400160405280600d81526020016c03a37ba30b629b430b932b99d1609d1b815250610bb8610f4f565b6118096040518060400160405280600d81526020016c03a37ba30b620b9b9b2ba399d1609d1b815250610bb86104ab565b6060546001600160a01b03166000611820826119c1565b905061184e6040518060400160405280600a81526020016903932ba342fb2ba341d160b51b81525082611289565b61185784611ab3565b620186a061186e611866610f4f565b889085611a0d565b611878919061273f565b611882919061273f565b95945050505050565b606054604051634be9756960e11b8152306004820152600091610563916001600160a01b03909116906397d2ead290602401602060405180830381865afa1580156118da573d6000803e3d6000fd5b505050506040513d601f19601f820116820180604052508101906118fe91906126f9565b611906610a47565b849190611a54565b600061056361191b610f4f565b6119066104ab565b6001600160a01b03811660009081526064602052604090208054600181018255905b50919050565b60006105636119586116a9565b8360405161190160f01b6020820152602281018390526042810182905260009060620160405160208183030381529060405280519060200120905092915050565b60008060006119aa87878787611c28565b915091506119b781611d15565b5095945050505050565b6040805160048152602481019091526020810180516001600160e01b0316636a57db9d60e11b1790526000906119f78382611ecb565b905080806020019051810190610f1d91906126f9565b6000826000190484118302158202611a2457600080fd5b50910281810615159190040190565b80516a636f6e736f6c652e6c6f67602083016000808483855afa5050505050565b6000826000190484118302158202611a6b57600080fd5b5091020490565b602b54610100900460ff16611a995760405162461bcd60e51b8152600401610728906128fc565b815160209283012081519190920120602c91909155602d55565b6000611acd604051806020016040528060008152506113ef565b611b0b6040518060400160405280601981526020017f2d2d2d20696e207363616c696e6720666163746f72202d2d2d000000000000008152506113ef565b611b656040518060400160405280601381526020017202fb0b9b9b2ba39adb0b1b1b7bab73a2fae9d1606d1b81525060696000856001600160a01b03166001600160a01b0316815260200190815260200160002054611289565b611ba76040518060400160405280601881526020017f73756242616c616e63654f66286163636f756e745f293a200000000000000000815250610bb884610eef565b611bbf604051806020016040528060008152506113ef565b6000611bca83610eef565b6001600160a01b038416600090815260696020526040902054611bf29064e8d4a51000612728565b611bfc919061273f565b90506105636040518060400160405280600881526020016703330b1ba37b91d160c51b81525082611289565b6000807f7fffffffffffffffffffffffffffffff5d576e7357a4501ddfe92f46681b20a0831115611c5f5750600090506003611d0c565b8460ff16601b14158015611c7757508460ff16601c14155b15611c885750600090506004611d0c565b6040805160008082526020820180845289905260ff881692820192909252606081018690526080810185905260019060a0016020604051602081039080840390855afa158015611cdc573d6000803e3d6000fd5b5050604051601f1901519150506001600160a01b038116611d0557600060019250925050611d0c565b9150600090505b94509492505050565b6000816004811115611d2957611d29612761565b03611d315750565b6001816004811115611d4557611d45612761565b03611d925760405162461bcd60e51b815260206004820152601860248201527f45434453413a20696e76616c6964207369676e617475726500000000000000006044820152606401610728565b6002816004811115611da657611da6612761565b03611df35760405162461bcd60e51b815260206004820152601f60248201527f45434453413a20696e76616c6964207369676e6174757265206c656e677468006044820152606401610728565b6003816004811115611e0757611e07612761565b03611e5f5760405162461bcd60e51b815260206004820152602260248201527f45434453413a20696e76616c6964207369676e6174757265202773272076616c604482015261756560f01b6064820152608401610728565b6004816004811115611e7357611e73612761565b0361038f5760405162461bcd60e51b815260206004820152602260248201527f45434453413a20696e76616c6964207369676e6174757265202776272076616c604482015261756560f01b6064820152608401610728565b6060610f1d83836040518060600160405280602581526020016129b8602591396060600080856001600160a01b031685604051611f089190612947565b600060405180830381855afa9150503d8060008114611f43576040519150601f19603f3d011682016040523d82523d6000602084013e611f48565b606091505b5091509150611f5986838387611f63565b9695505050505050565b60608315611fd2578251600003611fcb576001600160a01b0385163b611fcb5760405162461bcd60e51b815260206004820152601d60248201527f416464726573733a2063616c6c20746f206e6f6e2d636f6e74726163740000006044820152606401610728565b50816111a4565b6111a48383815115611fe75781518083602001fd5b8060405162461bcd60e51b81526004016107289190612083565b6001600160a01b038116811461038f57600080fd5b60006020828403121561202857600080fd5b8135610f1d81612001565b60005b8381101561204e578181015183820152602001612036565b50506000910152565b6000815180845261206f816020860160208601612033565b601f01601f19169290920160200192915050565b602081526000610f1d6020830184612057565b600080604083850312156120a957600080fd5b82356120b481612001565b946020939093013593505050565b6000602082840312156120d457600080fd5b5035919050565b634e487b7160e01b600052604160045260246000fd5b601f8201601f1916810167ffffffffffffffff81118282101715612117576121176120db565b6040525050565b600067ffffffffffffffff831115612138576121386120db565b60405161214f601f8501601f1916602001826120f1565b80915083815284848401111561216457600080fd5b83836020830137600060208583010152509392505050565b6000806040838503121561218f57600080fd5b823567ffffffffffffffff8111156121a657600080fd5b8301601f810185136121b757600080fd5b6121c68582356020840161211e565b92505060208301356121d781612001565b809150509250929050565b600082601f8301126121f357600080fd5b610f1d8383356020850161211e565b6000806000806080858703121561221857600080fd5b843561222381612001565b9350602085013561223381612001565b9250604085013567ffffffffffffffff8082111561225057600080fd5b61225c888389016121e2565b9350606087013591508082111561227257600080fd5b5061227f878288016121e2565b91505092959194509250565b6000806000606084860312156122a057600080fd5b83356122ab81612001565b925060208401356122bb81612001565b929592945050506040919091013590565b600080604083850312156122df57600080fd5b8235915060208301356121d781612001565b60ff8116811461038f57600080fd5b600080600080600080600060e0888a03121561231b57600080fd5b873561232681612001565b9650602088013561233681612001565b955060408801359450606088013593506080880135612354816122f1565b9699959850939692959460a0840135945060c09093013592915050565b6000806040838503121561238457600080fd5b823561238f81612001565b915060208301356121d781612001565b600181811c908216806123b357607f821691505b60208210810361194557634e487b7160e01b600052602260045260246000fd5b600082601f8301126123e457600080fd5b8151602067ffffffffffffffff821115612400576124006120db565b8160051b604051612413838301826120f1565b9283528481018201928281018785111561242c57600080fd5b83870192505b848310156124495782518152918301918301612432565b509695505050505050565b6000806040838503121561246757600080fd5b825167ffffffffffffffff8082111561247f57600080fd5b908401906060828703121561249357600080fd5b6040516060810181811083821117156124ae576124ae6120db565b806040525082518152602083015160208201526040830151828111156124d357600080fd5b6124df888286016123d3565b60408301525080945050505060208301516121d781612001565b6001600160a01b03831681526040602082018190526000906111a490830184612057565b6000806040838503121561253057600080fd5b505080516020909101519092909150565b600060033d111561255a5760046000803e5060005160e01c5b90565b600060443d101561256b5790565b6040516003193d81016004833e81513d67ffffffffffffffff816024840111818411171561259b57505050505090565b82850191508151818111156125b35750505050505090565b843d87010160208285010111156125cd5750505050505090565b6125dc602082860101876120f1565b509095945050505050565b600080604083850312156125fa57600080fd5b825167ffffffffffffffff8082111561261257600080fd5b908401906040828703121561262657600080fd5b604051604081018181108382111715612641576126416120db565b6040528251815260208301518281111561265a57600080fd5b612666888286016123d3565b60208301525080945050505060208301516121d781612001565b600060018060a01b0380861683526020818616818501526060604085015260a08401915084516060850152808501516040608086015282815180855260c0870191508383019450600092505b808310156126ec57845182529383019360019290920191908301906126cc565b5098975050505050505050565b60006020828403121561270b57600080fd5b5051919050565b634e487b7160e01b600052601160045260246000fd5b808202811582820484141761056357610563612712565b60008261275c57634e487b7160e01b600052601260045260246000fd5b500490565b634e487b7160e01b600052602160045260246000fd5b602081016002831061279957634e487b7160e01b600052602160045260246000fd5b91905290565b601f8211156127e557600081815260208120601f850160051c810160208610156127c65750805b601f850160051c820191505b8181101561133a578281556001016127d2565b505050565b815167ffffffffffffffff811115612804576128046120db565b61281881612812845461239f565b8461279f565b602080601f83116001811461284d57600084156128355750858301515b600019600386901b1c1916600185901b17855561133a565b600085815260208120601f198616915b8281101561287c5788860151825594840194600190910190840161285d565b508582101561289a5787850151600019600388901b60f8161c191681555b5050505050600190811b01905550565b6000602082840312156128bc57600080fd5b8151610f1d816122f1565b8082018082111561056357610563612712565b6040815260006128ed6040830185612057565b90508260208301529392505050565b6020808252602b908201527f496e697469616c697a61626c653a20636f6e7472616374206973206e6f74206960408201526a6e697469616c697a696e6760a81b606082015260800190565b60008251612959818460208701612033565b919091019291505056fe73686172657320636f6e7665727465642066726f6d206f7a416d6f756e74496e3a206163636f756e74536861726573202d2073686172657320746865206f776e65722068617320696e20636f6e74726163743a20416464726573733a206c6f772d6c6576656c207374617469632063616c6c206661696c656473686172657320636f6e7665727465642066726f6d20616d6f756e742d61737365747320286f662073656e646572293a2066726f6d536861726573202d2073686172657320696e20636f6e74726163742066726f6d2073656e6465723a20a2646970667358221220989a249c79d6ffa7e9d281dd05abbefdc3843167dff585f60bb4db74edce153864736f6c63430008150033",
    "linkReferences": {}
  },
  "methodIdentifiers": {
    "DOMAIN_SEPARATOR()": "3644e515",
    "FORMAT_DECIMALS()": "a01c8774",
    "allowance(address,address)": "dd62ed3e",
    "approve(address,uint256)": "095ea7b3",
    "asset()": "38d52e0f",
    "balanceOf(address)": "70a08231",
    "claimReward()": "b88a802f",
    "convertToAssets(uint256,address)": "36103291",
    "convertToShares(uint256)": "c6e6f592",
    "convertToUnderlying(uint256)": "1dc7f521",
    "decimals()": "313ce567",
    "decreaseAllowance(address,uint256)": "a457c2d7",
    "earned(address)": "008cc262",
    "getRewardsData()": "7d098e64",
    "increaseAllowance(address,uint256)": "39509351",
    "initialize(address,address,string,string)": "2016a0d2",
    "lastTimeRewardApplicable()": "80faa57d",
    "mint(bytes,address)": "0cae37f1",
    "name()": "06fdde03",
    "nonces(address)": "7ecebe00",
    "notifyRewardAmount(uint256)": "3c6b16ab",
    "permit(address,address,uint256,uint256,uint8,bytes32,bytes32)": "d505accf",
    "previewMint(uint256)": "b3d7f6b9",
    "previewRedeem(uint256)": "4cdad506",
    "previewWithdraw(uint256)": "0a28a477",
    "redeem(bytes,address)": "0ba097d6",
    "rewardPerToken()": "cd3daf9d",
    "setRewardsDuration(uint256)": "cc1a378f",
    "sharesOf(address)": "f5eb42dc",
    "subBalanceOf(address)": "32e50690",
    "subConvertToShares(uint256,address)": "4702a084",
    "symbol()": "95d89b41",
    "totalAssets()": "01e1d114",
    "totalShares()": "3a98ef39",
    "totalSupply()": "18160ddd",
    "transfer(address,uint256)": "a9059cbb",
    "transferFrom(address,address,uint256)": "23b872dd"
  },
  "id": 46
}