{
  "abi": [
    {
      "inputs": [],
      "stateMutability": "nonpayable",
      "type": "constructor"
    },
    {
      "inputs": [
        {
          "internalType": "address",
          "name": "sender",
          "type": "address"
        },
        {
          "internalType": "uint256",
          "name": "shares",
          "type": "uint256"
        },
        {
          "internalType": "uint256",
          "name": "sharesNeeded",
          "type": "uint256"
        }
      ],
      "name": "ERC20InsufficientBalance",
      "type": "error"
    },
    {
      "inputs": [
        {
          "internalType": "address",
          "name": "receiver",
          "type": "address"
        }
      ],
      "name": "ERC20InvalidReceiver",
      "type": "error"
    },
    {
      "inputs": [
        {
          "internalType": "address",
          "name": "sender",
          "type": "address"
        }
      ],
      "name": "ERC20InvalidSender",
      "type": "error"
    },
    {
      "inputs": [
        {
          "internalType": "uint256",
          "name": "rewardMultiplier",
          "type": "uint256"
        }
      ],
      "name": "USDMInvalidRewardMultiplier",
      "type": "error"
    },
    {
      "anonymous": false,
      "inputs": [
        {
          "indexed": true,
          "internalType": "address",
          "name": "owner",
          "type": "address"
        },
        {
          "indexed": true,
          "internalType": "address",
          "name": "spender",
          "type": "address"
        },
        {
          "indexed": false,
          "internalType": "uint256",
          "name": "value",
          "type": "uint256"
        }
      ],
      "name": "Approval",
      "type": "event"
    },
    {
      "anonymous": false,
      "inputs": [
        {
          "indexed": true,
          "internalType": "address",
          "name": "caller",
          "type": "address"
        },
        {
          "indexed": true,
          "internalType": "address",
          "name": "owner",
          "type": "address"
        },
        {
          "indexed": false,
          "internalType": "uint256",
          "name": "assets",
          "type": "uint256"
        },
        {
          "indexed": false,
          "internalType": "uint256",
          "name": "shares",
          "type": "uint256"
        }
      ],
      "name": "Deposit",
      "type": "event"
    },
    {
      "anonymous": false,
      "inputs": [
        {
          "indexed": false,
          "internalType": "uint8",
          "name": "version",
          "type": "uint8"
        }
      ],
      "name": "Initialized",
      "type": "event"
    },
    {
      "anonymous": false,
      "inputs": [
        {
          "indexed": true,
          "internalType": "uint256",
          "name": "value",
          "type": "uint256"
        }
      ],
      "name": "RewardMultiplier",
      "type": "event"
    },
    {
      "anonymous": false,
      "inputs": [
        {
          "indexed": true,
          "internalType": "address",
          "name": "from",
          "type": "address"
        },
        {
          "indexed": true,
          "internalType": "address",
          "name": "to",
          "type": "address"
        },
        {
          "indexed": false,
          "internalType": "uint256",
          "name": "value",
          "type": "uint256"
        }
      ],
      "name": "Transfer",
      "type": "event"
    },
    {
      "anonymous": false,
      "inputs": [
        {
          "indexed": true,
          "internalType": "address",
          "name": "caller",
          "type": "address"
        },
        {
          "indexed": true,
          "internalType": "address",
          "name": "receiver",
          "type": "address"
        },
        {
          "indexed": true,
          "internalType": "address",
          "name": "owner",
          "type": "address"
        },
        {
          "indexed": false,
          "internalType": "uint256",
          "name": "assets",
          "type": "uint256"
        },
        {
          "indexed": false,
          "internalType": "uint256",
          "name": "shares",
          "type": "uint256"
        }
      ],
      "name": "Withdraw",
      "type": "event"
    },
    {
      "inputs": [
        {
          "internalType": "uint256",
          "name": "_rewardMultiplierIncrement",
          "type": "uint256"
        }
      ],
      "name": "addRewardMultiplier",
      "outputs": [],
      "stateMutability": "nonpayable",
      "type": "function"
    },
    {
      "inputs": [
        {
          "internalType": "address",
          "name": "owner",
          "type": "address"
        },
        {
          "internalType": "address",
          "name": "spender",
          "type": "address"
        }
      ],
      "name": "allowance",
      "outputs": [
        {
          "internalType": "uint256",
          "name": "",
          "type": "uint256"
        }
      ],
      "stateMutability": "view",
      "type": "function"
    },
    {
      "inputs": [
        {
          "internalType": "address",
          "name": "spender",
          "type": "address"
        },
        {
          "internalType": "uint256",
          "name": "amount",
          "type": "uint256"
        }
      ],
      "name": "approve",
      "outputs": [
        {
          "internalType": "bool",
          "name": "",
          "type": "bool"
        }
      ],
      "stateMutability": "nonpayable",
      "type": "function"
    },
    {
      "inputs": [],
      "name": "asset",
      "outputs": [
        {
          "internalType": "address",
          "name": "",
          "type": "address"
        }
      ],
      "stateMutability": "view",
      "type": "function"
    },
    {
      "inputs": [
        {
          "internalType": "address",
          "name": "account_",
          "type": "address"
        }
      ],
      "name": "balanceOf",
      "outputs": [
        {
          "internalType": "uint256",
          "name": "",
          "type": "uint256"
        }
      ],
      "stateMutability": "view",
      "type": "function"
    },
    {
      "inputs": [
        {
          "internalType": "uint256",
          "name": "shares",
          "type": "uint256"
        }
      ],
      "name": "convertToAssets",
      "outputs": [
        {
          "internalType": "uint256",
          "name": "assets",
          "type": "uint256"
        }
      ],
      "stateMutability": "view",
      "type": "function"
    },
    {
      "inputs": [
        {
          "internalType": "uint256",
          "name": "assets",
          "type": "uint256"
        }
      ],
      "name": "convertToShares",
      "outputs": [
        {
          "internalType": "uint256",
          "name": "shares",
          "type": "uint256"
        }
      ],
      "stateMutability": "view",
      "type": "function"
    },
    {
      "inputs": [],
      "name": "decimals",
      "outputs": [
        {
          "internalType": "uint8",
          "name": "",
          "type": "uint8"
        }
      ],
      "stateMutability": "view",
      "type": "function"
    },
    {
      "inputs": [
        {
          "internalType": "address",
          "name": "spender",
          "type": "address"
        },
        {
          "internalType": "uint256",
          "name": "subtractedValue",
          "type": "uint256"
        }
      ],
      "name": "decreaseAllowance",
      "outputs": [
        {
          "internalType": "bool",
          "name": "",
          "type": "bool"
        }
      ],
      "stateMutability": "nonpayable",
      "type": "function"
    },
    {
      "inputs": [
        {
          "internalType": "uint256",
          "name": "assets_",
          "type": "uint256"
        },
        {
          "internalType": "address",
          "name": "receiver_",
          "type": "address"
        }
      ],
      "name": "deposit",
      "outputs": [
        {
          "internalType": "uint256",
          "name": "",
          "type": "uint256"
        }
      ],
      "stateMutability": "nonpayable",
      "type": "function"
    },
    {
      "inputs": [],
      "name": "getMult",
      "outputs": [
        {
          "internalType": "uint256",
          "name": "",
          "type": "uint256"
        }
      ],
      "stateMutability": "view",
      "type": "function"
    },
    {
      "inputs": [
        {
          "internalType": "address",
          "name": "spender",
          "type": "address"
        },
        {
          "internalType": "uint256",
          "name": "addedValue",
          "type": "uint256"
        }
      ],
      "name": "increaseAllowance",
      "outputs": [
        {
          "internalType": "bool",
          "name": "",
          "type": "bool"
        }
      ],
      "stateMutability": "nonpayable",
      "type": "function"
    },
    {
      "inputs": [
        {
          "internalType": "address",
          "name": "underlying_",
          "type": "address"
        },
        {
          "internalType": "address",
          "name": "diamond_",
          "type": "address"
        },
        {
          "internalType": "string",
          "name": "name_",
          "type": "string"
        },
        {
          "internalType": "string",
          "name": "symbol_",
          "type": "string"
        },
        {
          "internalType": "uint8",
          "name": "decimals_",
          "type": "uint8"
        }
      ],
      "name": "initialize",
      "outputs": [],
      "stateMutability": "nonpayable",
      "type": "function"
    },
    {
      "inputs": [
        {
          "internalType": "address",
          "name": "",
          "type": "address"
        }
      ],
      "name": "maxDeposit",
      "outputs": [
        {
          "internalType": "uint256",
          "name": "",
          "type": "uint256"
        }
      ],
      "stateMutability": "view",
      "type": "function"
    },
    {
      "inputs": [
        {
          "internalType": "address",
          "name": "",
          "type": "address"
        }
      ],
      "name": "maxMint",
      "outputs": [
        {
          "internalType": "uint256",
          "name": "",
          "type": "uint256"
        }
      ],
      "stateMutability": "view",
      "type": "function"
    },
    {
      "inputs": [
        {
          "internalType": "address",
          "name": "owner",
          "type": "address"
        }
      ],
      "name": "maxRedeem",
      "outputs": [
        {
          "internalType": "uint256",
          "name": "",
          "type": "uint256"
        }
      ],
      "stateMutability": "view",
      "type": "function"
    },
    {
      "inputs": [
        {
          "internalType": "address",
          "name": "owner",
          "type": "address"
        }
      ],
      "name": "maxWithdraw",
      "outputs": [
        {
          "internalType": "uint256",
          "name": "",
          "type": "uint256"
        }
      ],
      "stateMutability": "view",
      "type": "function"
    },
    {
      "inputs": [
        {
          "internalType": "uint256",
          "name": "shares",
          "type": "uint256"
        },
        {
          "internalType": "address",
          "name": "receiver",
          "type": "address"
        }
      ],
      "name": "mint",
      "outputs": [
        {
          "internalType": "uint256",
          "name": "",
          "type": "uint256"
        }
      ],
      "stateMutability": "nonpayable",
      "type": "function"
    },
    {
      "inputs": [
        {
          "components": [
            {
              "internalType": "uint256",
              "name": "amountIn",
              "type": "uint256"
            },
            {
              "internalType": "uint256",
              "name": "minWethOut",
              "type": "uint256"
            },
            {
              "internalType": "uint256",
              "name": "minRethOut",
              "type": "uint256"
            },
            {
              "internalType": "uint256",
              "name": "minBptOut",
              "type": "uint256"
            }
          ],
          "internalType": "struct TradeAmounts",
          "name": "amounts_",
          "type": "tuple"
        },
        {
          "internalType": "address",
          "name": "receiver_",
          "type": "address"
        },
        {
          "internalType": "uint8",
          "name": "v_",
          "type": "uint8"
        },
        {
          "internalType": "bytes32",
          "name": "r_",
          "type": "bytes32"
        },
        {
          "internalType": "bytes32",
          "name": "s_",
          "type": "bytes32"
        }
      ],
      "name": "mint",
      "outputs": [
        {
          "internalType": "uint256",
          "name": "",
          "type": "uint256"
        }
      ],
      "stateMutability": "nonpayable",
      "type": "function"
    },
    {
      "inputs": [],
      "name": "name",
      "outputs": [
        {
          "internalType": "string",
          "name": "",
          "type": "string"
        }
      ],
      "stateMutability": "view",
      "type": "function"
    },
    {
      "inputs": [
        {
          "internalType": "uint256",
          "name": "assets",
          "type": "uint256"
        }
      ],
      "name": "previewDeposit",
      "outputs": [
        {
          "internalType": "uint256",
          "name": "",
          "type": "uint256"
        }
      ],
      "stateMutability": "view",
      "type": "function"
    },
    {
      "inputs": [
        {
          "internalType": "uint256",
          "name": "shares",
          "type": "uint256"
        }
      ],
      "name": "previewMint",
      "outputs": [
        {
          "internalType": "uint256",
          "name": "",
          "type": "uint256"
        }
      ],
      "stateMutability": "view",
      "type": "function"
    },
    {
      "inputs": [
        {
          "internalType": "uint256",
          "name": "shares",
          "type": "uint256"
        }
      ],
      "name": "previewRedeem",
      "outputs": [
        {
          "internalType": "uint256",
          "name": "",
          "type": "uint256"
        }
      ],
      "stateMutability": "view",
      "type": "function"
    },
    {
      "inputs": [
        {
          "internalType": "uint256",
          "name": "assets",
          "type": "uint256"
        }
      ],
      "name": "previewWithdraw",
      "outputs": [
        {
          "internalType": "uint256",
          "name": "",
          "type": "uint256"
        }
      ],
      "stateMutability": "view",
      "type": "function"
    },
    {
      "inputs": [
        {
          "internalType": "uint256",
          "name": "shares",
          "type": "uint256"
        },
        {
          "internalType": "address",
          "name": "receiver",
          "type": "address"
        },
        {
          "internalType": "address",
          "name": "owner",
          "type": "address"
        }
      ],
      "name": "redeem",
      "outputs": [
        {
          "internalType": "uint256",
          "name": "",
          "type": "uint256"
        }
      ],
      "stateMutability": "nonpayable",
      "type": "function"
    },
    {
      "inputs": [
        {
          "internalType": "uint256",
          "name": "_rewardMultiplier",
          "type": "uint256"
        }
      ],
      "name": "setRewardMultiplier",
      "outputs": [],
      "stateMutability": "nonpayable",
      "type": "function"
    },
    {
      "inputs": [
        {
          "internalType": "address",
          "name": "account_",
          "type": "address"
        }
      ],
      "name": "sharesOf",
      "outputs": [
        {
          "internalType": "uint256",
          "name": "",
          "type": "uint256"
        }
      ],
      "stateMutability": "view",
      "type": "function"
    },
    {
      "inputs": [],
      "name": "symbol",
      "outputs": [
        {
          "internalType": "string",
          "name": "",
          "type": "string"
        }
      ],
      "stateMutability": "view",
      "type": "function"
    },
    {
      "inputs": [],
      "name": "totalAssets",
      "outputs": [
        {
          "internalType": "uint256",
          "name": "",
          "type": "uint256"
        }
      ],
      "stateMutability": "view",
      "type": "function"
    },
    {
      "inputs": [],
      "name": "totalShares",
      "outputs": [
        {
          "internalType": "uint256",
          "name": "",
          "type": "uint256"
        }
      ],
      "stateMutability": "view",
      "type": "function"
    },
    {
      "inputs": [],
      "name": "totalSupply",
      "outputs": [
        {
          "internalType": "uint256",
          "name": "",
          "type": "uint256"
        }
      ],
      "stateMutability": "view",
      "type": "function"
    },
    {
      "inputs": [
        {
          "internalType": "address",
          "name": "to",
          "type": "address"
        },
        {
          "internalType": "uint256",
          "name": "amount",
          "type": "uint256"
        }
      ],
      "name": "transfer",
      "outputs": [
        {
          "internalType": "bool",
          "name": "",
          "type": "bool"
        }
      ],
      "stateMutability": "nonpayable",
      "type": "function"
    },
    {
      "inputs": [
        {
          "internalType": "address",
          "name": "from",
          "type": "address"
        },
        {
          "internalType": "address",
          "name": "to",
          "type": "address"
        },
        {
          "internalType": "uint256",
          "name": "amount",
          "type": "uint256"
        }
      ],
      "name": "transferFrom",
      "outputs": [
        {
          "internalType": "bool",
          "name": "",
          "type": "bool"
        }
      ],
      "stateMutability": "nonpayable",
      "type": "function"
    },
    {
      "inputs": [
        {
          "internalType": "uint256",
          "name": "assets",
          "type": "uint256"
        },
        {
          "internalType": "address",
          "name": "receiver",
          "type": "address"
        },
        {
          "internalType": "address",
          "name": "owner",
          "type": "address"
        }
      ],
      "name": "withdraw",
      "outputs": [
        {
          "internalType": "uint256",
          "name": "",
          "type": "uint256"
        }
      ],
      "stateMutability": "nonpayable",
      "type": "function"
    }
  ],
  "bytecode": {
    "object": "0x608060405234801561001057600080fd5b5061001961001e565b6100de565b600054610100900460ff161561008a5760405162461bcd60e51b815260206004820152602760248201527f496e697469616c697a61626c653a20636f6e747261637420697320696e697469604482015266616c697a696e6760c81b606482015260840160405180910390fd5b60005460ff90811610156100dc576000805460ff191660ff9081179091556040519081527f7f26b83ff96e1f2b6a682f133852f6798a09c465da95921460cefb38474024989060200160405180910390a15b565b611b10806100ed6000396000f3fe608060405234801561001057600080fd5b50600436106102065760003560e01c8063816e59341161011a578063ba087652116100ad578063d905777e1161007c578063d905777e14610421578063d937361214610434578063dd62ed3e14610447578063ef8b30f71461045a578063f5eb42dc1461046d57600080fd5b8063ba087652146103d3578063c63d75b6146103e6578063c6e6f592146103fb578063ce96cb771461040e57600080fd5b8063a457c2d7116100e9578063a457c2d714610387578063a9059cbb1461039a578063b3d7f6b9146103ad578063b460af94146103c057600080fd5b8063816e5934146103515780638420ce991461035957806394bf804d1461036c57806395d89b411461037f57600080fd5b8063313ce5671161019d578063402d267d1161016c578063402d267d146103055780634cdad5061461023757806359ecd7fc146103185780636e553f651461032b57806370a082311461033e57600080fd5b8063313ce567146102b057806338d52e0f146102cf57806339509351146102ea5780633a98ef39146102fd57600080fd5b80630a28a477116101d95780630a28a4771461026d5780630bd075a11461028057806318160ddd1461029557806323b872dd1461029d57600080fd5b806301e1d1141461020b57806306fdde031461022257806307a2d13a14610237578063095ea7b31461024a575b600080fd5b60a8545b6040519081526020015b60405180910390f35b61022a610496565b6040516102199190611579565b61020f61024536600461158c565b610528565b61025d6102583660046115c1565b61053b565b6040519015158152602001610219565b61020f61027b36600461158c565b610553565b61029361028e36600461158c565b610560565b005b60355461020f565b61025d6102ab3660046115eb565b61056c565b60a654600160a01b900460ff1660405160ff9091168152602001610219565b6065546040516001600160a01b039091168152602001610219565b61025d6102f83660046115c1565b610592565b60a75461020f565b61020f610313366004611627565b6105b4565b61029361032636600461158c565b6105d2565b61020f610339366004611642565b610612565b61020f61034c366004611627565b610769565b61020f61078b565b610293610367366004611722565b6107fe565b61020f61037a366004611642565b610947565b61022a610961565b61025d6103953660046115c1565b610970565b61025d6103a83660046115c1565b6109f6565b61020f6103bb36600461158c565b610a04565b61020f6103ce3660046117b8565b610a11565b61020f6103e13660046117b8565b610a7f565b61020f6103f4366004611627565b5060001990565b61020f61040936600461158c565b610ae4565b61020f61041c366004611627565b610af1565b61020f61042f366004611627565b610b06565b61020f6104423660046117f4565b610b11565b61020f61045536600461189d565b610c74565b61020f61046836600461158c565b610c9f565b61020f61047b366004611627565b6001600160a01b0316600090815260a9602052604090205490565b6060603680546104a5906118c7565b80601f01602080910402602001604051908101604052809291908181526020018280546104d1906118c7565b801561051e5780601f106104f35761010080835404028352916020019161051e565b820191906000526020600020905b81548152906001019060200180831161050157829003601f168201915b5050505050905090565b6000610535826000610cb6565b92915050565b600033610549818585610d9d565b5060019392505050565b6000610535826001610ec1565b61056981610ed7565b50565b60003361057a858285610f36565b610585858585610fb0565b60019150505b9392505050565b6000336105498185856105a58383610c74565b6105af9190611901565b610d9d565b60006105be6110a7565b6105c9576000610535565b60001992915050565b806000036105fb57604051634c56cc2960e11b8152600481018290526024015b60405180910390fd5b60a4546105699061060d908390611901565b610ed7565b600061061d826105b4565b83111561066c5760405162461bcd60e51b815260206004820152601e60248201527f455243343632363a206465706f736974206d6f7265207468616e206d6178000060448201526064016105f2565b6106a2604051806040016040528060158152602001740b4b4b4b4b4b4b4b4b4b481a5b8819195c1bdcda5d605a1b8152506110c2565b6106cc60405180604001604052806008815260200167030b9b9b2ba399d160c51b81525084611105565b6107066040518060400160405280601081526020016f3a37ba30b629bab838363c9d1015151560811b81525061070160355490565b611105565b600061071160355490565b156107245761071f84610c9f565b610726565b835b905061075d60405180604001604052806013815260200172039b430b932b99034b7103232b837b9b4ba1d1606d1b81525082611105565b61058b3384868461114e565b6001600160a01b038116600090815260a9602052604081205461053590610528565b60a65460408051633b12dff560e01b815290516000926001600160a01b031691633b12dff59160048083019260209291908290030181865afa1580156107d5573d6000803e3d6000fd5b505050506040513d601f19601f820116820180604052508101906107f99190611922565b905090565b600054610100900460ff161580801561081e5750600054600160ff909116105b806108385750303b158015610838575060005460ff166001145b61089b5760405162461bcd60e51b815260206004820152602e60248201527f496e697469616c697a61626c653a20636f6e747261637420697320616c72656160448201526d191e481a5b9a5d1a585b1a5e995960921b60648201526084016105f2565b6000805460ff1916600117905580156108be576000805461ff0019166101001790555b6108c884846111f5565b6108d186611226565b60a6805460ff8416600160a01b026001600160a81b03199091166001600160a01b03881617179055801561093f576000805461ff0019169055604051600181527f7f26b83ff96e1f2b6a682f133852f6798a09c465da95921460cefb38474024989060200160405180910390a15b505050505050565b60008061095384610a04565b905061058b3384838761114e565b6060603780546104a5906118c7565b6000338161097e8286610c74565b9050838110156109de5760405162461bcd60e51b815260206004820152602560248201527f45524332303a2064656372656173656420616c6c6f77616e63652062656c6f77604482015264207a65726f60d81b60648201526084016105f2565b6109eb8286868403610d9d565b506001949350505050565b600033610549818585610fb0565b6000610535826001610cb6565b6000610a1c82610af1565b841115610a6b5760405162461bcd60e51b815260206004820152601f60248201527f455243343632363a207769746864726177206d6f7265207468616e206d61780060448201526064016105f2565b6000610a7685610553565b95945050505050565b6000610a8a82610b06565b841115610ad95760405162461bcd60e51b815260206004820152601d60248201527f455243343632363a2072656465656d206d6f7265207468616e206d617800000060448201526064016105f2565b6000610a7685610528565b6000610535826000610ec1565b6000610535610aff83610769565b6000610cb6565b600061053582610769565b600080610b266065546001600160a01b031690565b60a654885160405163d505accf60e01b81523360048201526001600160a01b039283166024820152604481019190915242606482015260ff8816608482015260a4810187905260c4810186905291925082169063d505accf9060e401600060405180830381600087803b158015610b9c57600080fd5b505af1158015610bb0573d6000803e3d6000fd5b50505050866000015160a86000828254610bca9190611901565b909155505060a65460408051635879601960e01b81526001600160a01b0384811660048301523360248301528a51604483015260208b01516064830152918a0151608482015260608a015160a482015291169063587960199060c401600060405180830381600087803b158015610c4057600080fd5b505af1158015610c54573d6000803e3d6000fd5b505050506000610c68886000015188610612565b98975050505050505050565b6001600160a01b03918216600090815260346020908152604080832093909416825291909152205490565b6000610cab6001611256565b610535826000610ec1565b6000610cf66040518060400160405280601e81526020017f2d2d2d2d2d2d2d2d2d2d20696e205f636f6e76657274546f41737365747300008152506110c2565b610d2060405180604001604052806008815260200167039b430b932b99d160c51b81525084611105565b610d526040518060400160405280600d81526020016c03a37ba30b620b9b9b2ba399d1609d1b81525061070160a85490565b610d846040518060400160405280600d81526020016c03a37ba30b629b430b932b99d1609d1b81525061070160a75490565b61058b610d9060a85490565b60a7545b8591908561129b565b6001600160a01b038316610dff5760405162461bcd60e51b8152602060048201526024808201527f45524332303a20617070726f76652066726f6d20746865207a65726f206164646044820152637265737360e01b60648201526084016105f2565b6001600160a01b038216610e605760405162461bcd60e51b815260206004820152602260248201527f45524332303a20617070726f766520746f20746865207a65726f206164647265604482015261737360f01b60648201526084016105f2565b6001600160a01b0383811660008181526034602090815260408083209487168084529482529182902085905590518481527f8c5be1e5ebec7d5bd14f71427d1e84f3dd0314c0f7b2291e5b200ac8c7c3b925910160405180910390a3505050565b600061058b610ecf60a75490565b60a854610d94565b670de0b6b3a7640000811015610f0357604051634c56cc2960e11b8152600481018290526024016105f2565b60a481905560405181907ffe5d4a0d7f088152b65d5e82045cc102fa71d952647598538d9fb3fb4820bd1890600090a250565b6000610f428484610c74565b90506000198114610faa5781811015610f9d5760405162461bcd60e51b815260206004820152601d60248201527f45524332303a20696e73756666696369656e7420616c6c6f77616e636500000060448201526064016105f2565b610faa8484848403610d9d565b50505050565b6001600160a01b038316610fe257604051634b637e8f60e11b81526001600160a01b03841660048201526024016105f2565b6001600160a01b0382166110145760405163ec442f0560e01b81526001600160a01b03831660048201526024016105f2565b600061101f82610ae4565b6001600160a01b038516600090815260a96020526040902054909150818110156110755760405163391434e360e21b81526001600160a01b038616600482015260248101829052604481018390526064016105f2565b6001600160a01b03808616600090815260a9602052604080822085850390559186168152208054830190555050505050565b6000806110b360a85490565b11806107f95750506035541590565b610569816040516024016110d69190611579565b60408051601f198184030181529190526020810180516001600160e01b031663104c13eb60e21b1790526112fb565b61114a828260405160240161111b92919061193b565b60408051601f198184030181529190526020810180516001600160e01b03166309710a9d60e41b1790526112fb565b5050565b8060a760008282546111609190611901565b90915550506001600160a01b038316600090815260a96020526040812080548301905561118c82610528565b9050611198848261131c565b836001600160a01b0316856001600160a01b03167fdcbc1c05240f31ff3ad067ef1ee35ce4997762752e3a095284754544f4c709d785856040516111e6929190918252602082015260400190565b60405180910390a35050505050565b600054610100900460ff1661121c5760405162461bcd60e51b81526004016105f29061195d565b61114a82826113fb565b600054610100900460ff1661124d5760405162461bcd60e51b81526004016105f29061195d565b6105698161143b565b6105698160405160240161126c91815260200190565b60408051601f198184030181529190526020810180516001600160e01b031663f5b1bba960e01b1790526112fb565b6000806112a9868686611484565b905060018360028111156112bf576112bf6119a8565b1480156112dc5750600084806112d7576112d76119be565b868809115b15610a76576112ec600182611901565b9695505050505050565b505050565b80516a636f6e736f6c652e6c6f67602083016000808483855afa5050505050565b6001600160a01b0382166113725760405162461bcd60e51b815260206004820152601f60248201527f45524332303a206d696e7420746f20746865207a65726f20616464726573730060448201526064016105f2565b80603560008282546113849190611901565b90915550506001600160a01b038216600090815260336020526040812080548392906113b1908490611901565b90915550506040518181526001600160a01b038316906000907fddf252ad1be2c89b69c2b068fc378daa952ba7f163c4a11628f55a4df523b3ef9060200160405180910390a35050565b600054610100900460ff166114225760405162461bcd60e51b81526004016105f29061195d565b603661142e8382611a1a565b5060376112f68282611a1a565b600054610100900460ff166114625760405162461bcd60e51b81526004016105f29061195d565b606580546001600160a01b0319166001600160a01b0392909216919091179055565b60008080600019858709858702925082811083820303915050806000036114be578382816114b4576114b46119be565b049250505061058b565b8084116114ca57600080fd5b60008486880960026001871981018816978890046003810283188082028403028082028403028082028403028082028403028082028403029081029092039091026000889003889004909101858311909403939093029303949094049190911702949350505050565b6000815180845260005b818110156115595760208185018101518683018201520161153d565b506000602082860101526020601f19601f83011685010191505092915050565b60208152600061058b6020830184611533565b60006020828403121561159e57600080fd5b5035919050565b80356001600160a01b03811681146115bc57600080fd5b919050565b600080604083850312156115d457600080fd5b6115dd836115a5565b946020939093013593505050565b60008060006060848603121561160057600080fd5b611609846115a5565b9250611617602085016115a5565b9150604084013590509250925092565b60006020828403121561163957600080fd5b61058b826115a5565b6000806040838503121561165557600080fd5b82359150611665602084016115a5565b90509250929050565b634e487b7160e01b600052604160045260246000fd5b600082601f83011261169557600080fd5b813567ffffffffffffffff808211156116b0576116b061166e565b604051601f8301601f19908116603f011681019082821181831017156116d8576116d861166e565b816040528381528660208588010111156116f157600080fd5b836020870160208301376000602085830101528094505050505092915050565b803560ff811681146115bc57600080fd5b600080600080600060a0868803121561173a57600080fd5b611743866115a5565b9450611751602087016115a5565b9350604086013567ffffffffffffffff8082111561176e57600080fd5b61177a89838a01611684565b9450606088013591508082111561179057600080fd5b5061179d88828901611684565b9250506117ac60808701611711565b90509295509295909350565b6000806000606084860312156117cd57600080fd5b833592506117dd602085016115a5565b91506117eb604085016115a5565b90509250925092565b600080600080600085870361010081121561180e57600080fd5b608081121561181c57600080fd5b506040516080810181811067ffffffffffffffff821117156118405761184061166e565b80604052508635815260208701356020820152604087013560408201526060870135606082015280955050611877608087016115a5565b935061188560a08701611711565b9497939650939460c0810135945060e0013592915050565b600080604083850312156118b057600080fd5b6118b9836115a5565b9150611665602084016115a5565b600181811c908216806118db57607f821691505b6020821081036118fb57634e487b7160e01b600052602260045260246000fd5b50919050565b8082018082111561053557634e487b7160e01b600052601160045260246000fd5b60006020828403121561193457600080fd5b5051919050565b60408152600061194e6040830185611533565b90508260208301529392505050565b6020808252602b908201527f496e697469616c697a61626c653a20636f6e7472616374206973206e6f74206960408201526a6e697469616c697a696e6760a81b606082015260800190565b634e487b7160e01b600052602160045260246000fd5b634e487b7160e01b600052601260045260246000fd5b601f8211156112f657600081815260208120601f850160051c810160208610156119fb5750805b601f850160051c820191505b8181101561093f57828155600101611a07565b815167ffffffffffffffff811115611a3457611a3461166e565b611a4881611a4284546118c7565b846119d4565b602080601f831160018114611a7d5760008415611a655750858301515b600019600386901b1c1916600185901b17855561093f565b600085815260208120601f198616915b82811015611aac57888601518255948401946001909101908401611a8d565b5085821015611aca5787850151600019600388901b60f8161c191681555b5050505050600190811b0190555056fea2646970667358221220757ac68e99262bed84aec676ea2335714a3bc1e10f361c0c5dba5b6e6c35ef1764736f6c63430008150033",
    "linkReferences": {}
  },
  "methodIdentifiers": {
    "addRewardMultiplier(uint256)": "59ecd7fc",
    "allowance(address,address)": "dd62ed3e",
    "approve(address,uint256)": "095ea7b3",
    "asset()": "38d52e0f",
    "balanceOf(address)": "70a08231",
    "convertToAssets(uint256)": "07a2d13a",
    "convertToShares(uint256)": "c6e6f592",
    "decimals()": "313ce567",
    "decreaseAllowance(address,uint256)": "a457c2d7",
    "deposit(uint256,address)": "6e553f65",
    "getMult()": "816e5934",
    "increaseAllowance(address,uint256)": "39509351",
    "initialize(address,address,string,string,uint8)": "8420ce99",
    "maxDeposit(address)": "402d267d",
    "maxMint(address)": "c63d75b6",
    "maxRedeem(address)": "d905777e",
    "maxWithdraw(address)": "ce96cb77",
    "mint((uint256,uint256,uint256,uint256),address,uint8,bytes32,bytes32)": "d9373612",
    "mint(uint256,address)": "94bf804d",
    "name()": "06fdde03",
    "previewDeposit(uint256)": "ef8b30f7",
    "previewMint(uint256)": "b3d7f6b9",
    "previewRedeem(uint256)": "4cdad506",
    "previewWithdraw(uint256)": "0a28a477",
    "redeem(uint256,address,address)": "ba087652",
    "setRewardMultiplier(uint256)": "0bd075a1",
    "sharesOf(address)": "f5eb42dc",
    "symbol()": "95d89b41",
    "totalAssets()": "01e1d114",
    "totalShares()": "3a98ef39",
    "totalSupply()": "18160ddd",
    "transfer(address,uint256)": "a9059cbb",
    "transferFrom(address,address,uint256)": "23b872dd",
    "withdraw(uint256,address,address)": "b460af94"
  },
  "id": 23
}