{
  "abi": [
    {
      "inputs": [],
      "stateMutability": "nonpayable",
      "type": "constructor"
    },
    {
      "inputs": [
        {
          "internalType": "address",
          "name": "sender",
          "type": "address"
        },
        {
          "internalType": "uint256",
          "name": "shares",
          "type": "uint256"
        },
        {
          "internalType": "uint256",
          "name": "sharesNeeded",
          "type": "uint256"
        }
      ],
      "name": "ERC20InsufficientBalance",
      "type": "error"
    },
    {
      "inputs": [
        {
          "internalType": "address",
          "name": "receiver",
          "type": "address"
        }
      ],
      "name": "ERC20InvalidReceiver",
      "type": "error"
    },
    {
      "inputs": [
        {
          "internalType": "address",
          "name": "sender",
          "type": "address"
        }
      ],
      "name": "ERC20InvalidSender",
      "type": "error"
    },
    {
      "inputs": [
        {
          "internalType": "uint256",
          "name": "deadline",
          "type": "uint256"
        },
        {
          "internalType": "uint256",
          "name": "blockTimestamp",
          "type": "uint256"
        }
      ],
      "name": "ERC2612ExpiredDeadline",
      "type": "error"
    },
    {
      "inputs": [
        {
          "internalType": "address",
          "name": "owner",
          "type": "address"
        },
        {
          "internalType": "address",
          "name": "spender",
          "type": "address"
        }
      ],
      "name": "ERC2612InvalidSignature",
      "type": "error"
    },
    {
      "inputs": [
        {
          "internalType": "address",
          "name": "sender",
          "type": "address"
        },
        {
          "internalType": "uint256",
          "name": "shares",
          "type": "uint256"
        },
        {
          "internalType": "uint256",
          "name": "sharesNeeded",
          "type": "uint256"
        }
      ],
      "name": "USDMInsufficientBurnBalance",
      "type": "error"
    },
    {
      "anonymous": false,
      "inputs": [
        {
          "indexed": true,
          "internalType": "address",
          "name": "owner",
          "type": "address"
        },
        {
          "indexed": true,
          "internalType": "address",
          "name": "spender",
          "type": "address"
        },
        {
          "indexed": false,
          "internalType": "uint256",
          "name": "value",
          "type": "uint256"
        }
      ],
      "name": "Approval",
      "type": "event"
    },
    {
      "anonymous": false,
      "inputs": [
        {
          "indexed": false,
          "internalType": "uint8",
          "name": "version",
          "type": "uint8"
        }
      ],
      "name": "Initialized",
      "type": "event"
    },
    {
      "anonymous": false,
      "inputs": [
        {
          "indexed": true,
          "internalType": "address",
          "name": "from",
          "type": "address"
        },
        {
          "indexed": true,
          "internalType": "address",
          "name": "to",
          "type": "address"
        },
        {
          "indexed": false,
          "internalType": "uint256",
          "name": "value",
          "type": "uint256"
        }
      ],
      "name": "Transfer",
      "type": "event"
    },
    {
      "inputs": [],
      "name": "DOMAIN_SEPARATOR",
      "outputs": [
        {
          "internalType": "bytes32",
          "name": "",
          "type": "bytes32"
        }
      ],
      "stateMutability": "view",
      "type": "function"
    },
    {
      "inputs": [
        {
          "internalType": "address",
          "name": "owner",
          "type": "address"
        },
        {
          "internalType": "address",
          "name": "spender",
          "type": "address"
        }
      ],
      "name": "allowance",
      "outputs": [
        {
          "internalType": "uint256",
          "name": "",
          "type": "uint256"
        }
      ],
      "stateMutability": "view",
      "type": "function"
    },
    {
      "inputs": [
        {
          "internalType": "address",
          "name": "spender",
          "type": "address"
        },
        {
          "internalType": "uint256",
          "name": "amount",
          "type": "uint256"
        }
      ],
      "name": "approve",
      "outputs": [
        {
          "internalType": "bool",
          "name": "",
          "type": "bool"
        }
      ],
      "stateMutability": "nonpayable",
      "type": "function"
    },
    {
      "inputs": [],
      "name": "asset",
      "outputs": [
        {
          "internalType": "address",
          "name": "",
          "type": "address"
        }
      ],
      "stateMutability": "view",
      "type": "function"
    },
    {
      "inputs": [
        {
          "internalType": "address",
          "name": "account_",
          "type": "address"
        }
      ],
      "name": "balanceOf",
      "outputs": [
        {
          "internalType": "uint256",
          "name": "",
          "type": "uint256"
        }
      ],
      "stateMutability": "view",
      "type": "function"
    },
    {
      "inputs": [
        {
          "components": [
            {
              "internalType": "uint256",
              "name": "ozAmountIn",
              "type": "uint256"
            },
            {
              "internalType": "uint256",
              "name": "minWethOut",
              "type": "uint256"
            },
            {
              "internalType": "uint256",
              "name": "bptAmountIn",
              "type": "uint256"
            },
            {
              "internalType": "uint256",
              "name": "minUsdcOut",
              "type": "uint256"
            }
          ],
          "internalType": "struct TradeAmountsOut",
          "name": "amts_",
          "type": "tuple"
        },
        {
          "internalType": "address",
          "name": "receiver_",
          "type": "address"
        },
        {
          "internalType": "uint8",
          "name": "v_",
          "type": "uint8"
        },
        {
          "internalType": "bytes32",
          "name": "r_",
          "type": "bytes32"
        },
        {
          "internalType": "bytes32",
          "name": "s_",
          "type": "bytes32"
        }
      ],
      "name": "burn",
      "outputs": [],
      "stateMutability": "nonpayable",
      "type": "function"
    },
    {
      "inputs": [
        {
          "internalType": "uint256",
          "name": "shares",
          "type": "uint256"
        }
      ],
      "name": "convertToAssets",
      "outputs": [
        {
          "internalType": "uint256",
          "name": "assets",
          "type": "uint256"
        }
      ],
      "stateMutability": "view",
      "type": "function"
    },
    {
      "inputs": [
        {
          "internalType": "uint256",
          "name": "assets",
          "type": "uint256"
        }
      ],
      "name": "convertToShares",
      "outputs": [
        {
          "internalType": "uint256",
          "name": "shares",
          "type": "uint256"
        }
      ],
      "stateMutability": "view",
      "type": "function"
    },
    {
      "inputs": [
        {
          "internalType": "uint256",
          "name": "shares_",
          "type": "uint256"
        }
      ],
      "name": "convertToUnderlying",
      "outputs": [
        {
          "internalType": "uint256",
          "name": "amountUnderlying",
          "type": "uint256"
        }
      ],
      "stateMutability": "view",
      "type": "function"
    },
    {
      "inputs": [],
      "name": "decimals",
      "outputs": [
        {
          "internalType": "uint8",
          "name": "",
          "type": "uint8"
        }
      ],
      "stateMutability": "view",
      "type": "function"
    },
    {
      "inputs": [
        {
          "internalType": "address",
          "name": "spender",
          "type": "address"
        },
        {
          "internalType": "uint256",
          "name": "subtractedValue",
          "type": "uint256"
        }
      ],
      "name": "decreaseAllowance",
      "outputs": [
        {
          "internalType": "bool",
          "name": "",
          "type": "bool"
        }
      ],
      "stateMutability": "nonpayable",
      "type": "function"
    },
    {
      "inputs": [
        {
          "internalType": "uint256",
          "name": "assets_",
          "type": "uint256"
        },
        {
          "internalType": "address",
          "name": "receiver_",
          "type": "address"
        }
      ],
      "name": "deposit",
      "outputs": [
        {
          "internalType": "uint256",
          "name": "",
          "type": "uint256"
        }
      ],
      "stateMutability": "nonpayable",
      "type": "function"
    },
    {
      "inputs": [
        {
          "internalType": "address",
          "name": "spender",
          "type": "address"
        },
        {
          "internalType": "uint256",
          "name": "addedValue",
          "type": "uint256"
        }
      ],
      "name": "increaseAllowance",
      "outputs": [
        {
          "internalType": "bool",
          "name": "",
          "type": "bool"
        }
      ],
      "stateMutability": "nonpayable",
      "type": "function"
    },
    {
      "inputs": [
        {
          "internalType": "address",
          "name": "underlying_",
          "type": "address"
        },
        {
          "internalType": "address",
          "name": "diamond_",
          "type": "address"
        },
        {
          "internalType": "string",
          "name": "name_",
          "type": "string"
        },
        {
          "internalType": "string",
          "name": "symbol_",
          "type": "string"
        }
      ],
      "name": "initialize",
      "outputs": [],
      "stateMutability": "nonpayable",
      "type": "function"
    },
    {
      "inputs": [
        {
          "internalType": "address",
          "name": "",
          "type": "address"
        }
      ],
      "name": "maxDeposit",
      "outputs": [
        {
          "internalType": "uint256",
          "name": "",
          "type": "uint256"
        }
      ],
      "stateMutability": "view",
      "type": "function"
    },
    {
      "inputs": [
        {
          "components": [
            {
              "internalType": "uint256",
              "name": "amountIn",
              "type": "uint256"
            },
            {
              "internalType": "uint256",
              "name": "minWethOut",
              "type": "uint256"
            },
            {
              "internalType": "uint256",
              "name": "minRethOut",
              "type": "uint256"
            },
            {
              "internalType": "uint256",
              "name": "minBptOut",
              "type": "uint256"
            }
          ],
          "internalType": "struct TradeAmounts",
          "name": "amounts_",
          "type": "tuple"
        },
        {
          "internalType": "address",
          "name": "receiver_",
          "type": "address"
        },
        {
          "internalType": "uint8",
          "name": "v_",
          "type": "uint8"
        },
        {
          "internalType": "bytes32",
          "name": "r_",
          "type": "bytes32"
        },
        {
          "internalType": "bytes32",
          "name": "s_",
          "type": "bytes32"
        }
      ],
      "name": "mint",
      "outputs": [
        {
          "internalType": "uint256",
          "name": "",
          "type": "uint256"
        }
      ],
      "stateMutability": "nonpayable",
      "type": "function"
    },
    {
      "inputs": [],
      "name": "name",
      "outputs": [
        {
          "internalType": "string",
          "name": "",
          "type": "string"
        }
      ],
      "stateMutability": "view",
      "type": "function"
    },
    {
      "inputs": [
        {
          "internalType": "address",
          "name": "owner",
          "type": "address"
        }
      ],
      "name": "nonces",
      "outputs": [
        {
          "internalType": "uint256",
          "name": "",
          "type": "uint256"
        }
      ],
      "stateMutability": "view",
      "type": "function"
    },
    {
      "inputs": [
        {
          "internalType": "address",
          "name": "owner",
          "type": "address"
        },
        {
          "internalType": "address",
          "name": "spender",
          "type": "address"
        },
        {
          "internalType": "uint256",
          "name": "value",
          "type": "uint256"
        },
        {
          "internalType": "uint256",
          "name": "deadline",
          "type": "uint256"
        },
        {
          "internalType": "uint8",
          "name": "v",
          "type": "uint8"
        },
        {
          "internalType": "bytes32",
          "name": "r",
          "type": "bytes32"
        },
        {
          "internalType": "bytes32",
          "name": "s_",
          "type": "bytes32"
        }
      ],
      "name": "permit",
      "outputs": [],
      "stateMutability": "nonpayable",
      "type": "function"
    },
    {
      "inputs": [
        {
          "internalType": "uint256",
          "name": "assets_",
          "type": "uint256"
        }
      ],
      "name": "previewDeposit",
      "outputs": [
        {
          "internalType": "uint256",
          "name": "",
          "type": "uint256"
        }
      ],
      "stateMutability": "view",
      "type": "function"
    },
    {
      "inputs": [
        {
          "internalType": "uint256",
          "name": "shares_",
          "type": "uint256"
        }
      ],
      "name": "previewRedeem",
      "outputs": [
        {
          "internalType": "uint256",
          "name": "",
          "type": "uint256"
        }
      ],
      "stateMutability": "view",
      "type": "function"
    },
    {
      "inputs": [
        {
          "internalType": "uint256",
          "name": "assets",
          "type": "uint256"
        }
      ],
      "name": "previewWithdraw",
      "outputs": [
        {
          "internalType": "uint256",
          "name": "",
          "type": "uint256"
        }
      ],
      "stateMutability": "view",
      "type": "function"
    },
    {
      "inputs": [
        {
          "internalType": "address",
          "name": "account_",
          "type": "address"
        }
      ],
      "name": "sharesOf",
      "outputs": [
        {
          "internalType": "uint256",
          "name": "",
          "type": "uint256"
        }
      ],
      "stateMutability": "view",
      "type": "function"
    },
    {
      "inputs": [],
      "name": "symbol",
      "outputs": [
        {
          "internalType": "string",
          "name": "",
          "type": "string"
        }
      ],
      "stateMutability": "view",
      "type": "function"
    },
    {
      "inputs": [],
      "name": "totalAssets",
      "outputs": [
        {
          "internalType": "uint256",
          "name": "",
          "type": "uint256"
        }
      ],
      "stateMutability": "view",
      "type": "function"
    },
    {
      "inputs": [],
      "name": "totalShares",
      "outputs": [
        {
          "internalType": "uint256",
          "name": "",
          "type": "uint256"
        }
      ],
      "stateMutability": "view",
      "type": "function"
    },
    {
      "inputs": [],
      "name": "totalSupply",
      "outputs": [
        {
          "internalType": "uint256",
          "name": "",
          "type": "uint256"
        }
      ],
      "stateMutability": "view",
      "type": "function"
    },
    {
      "inputs": [
        {
          "internalType": "address",
          "name": "to",
          "type": "address"
        },
        {
          "internalType": "uint256",
          "name": "amount",
          "type": "uint256"
        }
      ],
      "name": "transfer",
      "outputs": [
        {
          "internalType": "bool",
          "name": "",
          "type": "bool"
        }
      ],
      "stateMutability": "nonpayable",
      "type": "function"
    },
    {
      "inputs": [
        {
          "internalType": "address",
          "name": "from",
          "type": "address"
        },
        {
          "internalType": "address",
          "name": "to",
          "type": "address"
        },
        {
          "internalType": "uint256",
          "name": "amount",
          "type": "uint256"
        }
      ],
      "name": "transferFrom",
      "outputs": [
        {
          "internalType": "bool",
          "name": "",
          "type": "bool"
        }
      ],
      "stateMutability": "nonpayable",
      "type": "function"
    }
  ],
  "bytecode": {
    "object": "0x608060405234801561001057600080fd5b5061001961001e565b6100de565b600054610100900460ff161561008a5760405162461bcd60e51b815260206004820152602760248201527f496e697469616c697a61626c653a20636f6e747261637420697320696e697469604482015266616c697a696e6760c81b606482015260840160405180910390fd5b60005460ff90811610156100dc576000805460ff191660ff9081179091556040519081527f7f26b83ff96e1f2b6a682f133852f6798a09c465da95921460cefb38474024989060200160405180910390a15b565b611dc7806100ed6000396000f3fe608060405234801561001057600080fd5b50600436106101cf5760003560e01c8063402d267d11610104578063a457c2d7116100a2578063d937361211610071578063d93736121461039f578063dd62ed3e146103b2578063ef8b30f7146103c5578063f5eb42dc146103d857600080fd5b8063a457c2d714610353578063a9059cbb14610366578063c6e6f59214610379578063d505accf1461038c57600080fd5b80636e553f65116100de5780636e553f651461031257806370a08231146103255780637ecebe001461033857806395d89b411461034b57600080fd5b8063402d267d146102d95780634cdad506146102ec5780634f4fc131146102ff57600080fd5b80632016a0d2116101715780633644e5151161014b5780633644e5151461029b57806338d52e0f146102a357806339509351146102be5780633a98ef39146102d157600080fd5b80632016a0d21461026457806323b872dd14610279578063313ce5671461028c57600080fd5b8063095ea7b3116101ad578063095ea7b3146102135780630a28a4771461023657806318160ddd146102495780631dc7f5211461025157600080fd5b806301e1d114146101d457806306fdde03146101eb57806307a2d13a14610200575b600080fd5b6049545b6040519081526020015b60405180910390f35b6101f3610401565b6040516101e291906116f3565b6101d861020e366004611741565b610493565b610226610221366004611776565b6104a6565b60405190151581526020016101e2565b6101d8610244366004611741565b6104bc565b6101d86104c9565b6101d861025f366004611741565b6104ed565b610277610272366004611843565b61057e565b005b6102266102873660046118c8565b6106fd565b604051601281526020016101e2565b6101d8610720565b6047546040516001600160a01b0390911681526020016101e2565b6102266102cc366004611776565b61072a565b6048546101d8565b6101d86102e7366004611904565b61074b565b6101d86102fa366004611741565b610769565b61027761030d366004611996565b610776565b6101d86103203660046119ed565b61090d565b6101d8610333366004611904565b610995565b6101d8610346366004611904565b6109b7565b6101f36109d5565b610226610361366004611776565b6109e4565b610226610374366004611776565b610a5e565b6101d8610387366004611741565b610a6b565b61027761039a366004611a19565b610a78565b6101d86103ad366004611996565b610b9a565b6101d86103c0366004611a83565b610cc1565b6101d86103d3366004611741565b610cec565b6101d86103e6366004611904565b6001600160a01b03166000908152604a602052604090205490565b6060604d805461041090611aad565b80601f016020809104026020016040519081016040528092919081815260200182805461043c90611aad565b80156104895780601f1061045e57610100808354040283529160200191610489565b820191906000526020600020905b81548152906001019060200180831161046c57829003601f168201915b5050505050905090565b60006104a0826000610cf9565b92915050565b60006104b3338484610d92565b50600192915050565b60006104a0826001610eb6565b60006048546000146104e7576104e26048546000610cf9565b905090565b50600090565b60006104f860485490565b60465460405163a4fc284b60e01b81526001600160a01b039091169063a4fc284b9061052990600190600401611af7565b602060405180830381865afa158015610546573d6000803e3d6000fd5b505050506040513d601f19601f8201168201806040525081019061056a9190611b1f565b6105749084611b4e565b6104a09190611b7b565b600054610100900460ff161580801561059e5750600054600160ff909116105b806105b85750303b1580156105b8575060005460ff166001145b6106205760405162461bcd60e51b815260206004820152602e60248201527f496e697469616c697a61626c653a20636f6e747261637420697320616c72656160448201526d191e481a5b9a5d1a585b1a5e995960921b60648201526084015b60405180910390fd5b6000805460ff191660011790558015610643576000805461ff0019166101001790555b604d61064f8482611bec565b50604e61065c8382611bec565b50604680546001600160a01b038087166001600160a01b03199283161790925560478054928816929091169190911790556040805180820190915260018152603160f81b60208201526106b0908490610f44565b80156106f6576000805461ff0019169055604051600181527f7f26b83ff96e1f2b6a682f133852f6798a09c465da95921460cefb38474024989060200160405180910390a15b5050505050565b600061070a843384610f79565b610715848484610ff3565b5060015b9392505050565b60006104e26110ee565b60006104b333848461073c3388610cc1565b6107469190611cac565b610d92565b6000610755611169565b6107605760006104a0565b60001992915050565b60006104a082600061118a565b336000908152604a6020526040812054865190919061079490610a6b565b9050808210156107c757604051633803cef960e11b81523360048201526024810183905260448101829052606401610617565b604654875160405163d505accf60e01b8152309263d505accf926108029233926001600160a01b0316919042908c908c908c90600401611cbf565b600060405180830381600087803b15801561081c57600080fd5b505af1158015610830573d6000803e3d6000fd5b50505050600061083f82610769565b604654604080516334347a5560e21b81528b51600482015260208c01516024820152908b0151604482015260608b015160648201523060848201523360a48201526001600160a01b038a811660c483015292935091169063d0d1e9549060e401600060405180830381600087803b1580156108b957600080fd5b505af11580156108cd573d6000803e3d6000fd5b50506046546001600160a01b03166000908152604a6020526040812080549190556048805491909103905550506049805491909103905550505050505050565b60006109188261074b565b8311156109675760405162461bcd60e51b815260206004820152601e60248201527f455243343632363a206465706f736974206d6f7265207468616e206d617800006044820152606401610617565b600061097260485490565b156109855761098084610cec565b610987565b835b90506107193384868461120e565b6001600160a01b0381166000908152604a60205260408120546104a090610493565b6001600160a01b0381166000908152604b60205260408120546104a0565b6060604e805461041090611aad565b6000806109f13385610cc1565b905082811015610a515760405162461bcd60e51b815260206004820152602560248201527f45524332303a2064656372656173656420616c6c6f77616e63652062656c6f77604482015264207a65726f60d81b6064820152608401610617565b6107153385858403610d92565b60006104b3338484610ff3565b60006104a0826000610eb6565b83421115610aa25760405163233730db60e11b815260048101859052426024820152604401610617565b60007f6e71edae12b1b97f4d1f60370fef10105fa2faae0126114a169c64845d6126c9888888610ad18c61124a565b6040805160208101969096526001600160a01b0394851690860152929091166060840152608083015260a082015260c0810186905260e0016040516020818303038152906040528051906020012090506000610b2c82611272565b90506000610b3c828787876112c0565b9050896001600160a01b0316816001600160a01b031614610b8357604051630189c63360e31b81526001600160a01b03808c1660048301528a166024820152604401610617565b610b8e8a8a8a610d92565b50505050505050505050565b600080610baf6047546001600160a01b031690565b604654885160405163d505accf60e01b81529293506001600160a01b038085169363d505accf93610bf09333939091169142908c908c908c90600401611cbf565b600060405180830381600087803b158015610c0a57600080fd5b505af1158015610c1e573d6000803e3d6000fd5b5050604654604051635879601960e01b81526001600160a01b03909116925063587960199150610c5690849033908c90600401611d00565b600060405180830381600087803b158015610c7057600080fd5b505af1158015610c84573d6000803e3d6000fd5b505050506000610c9888600001518861090d565b9050876000015160496000828254610cb09190611cac565b909155509098975050505050505050565b6001600160a01b039182166000908152604c6020908152604080832093909416825291909152205490565b60006104a08260006112ea565b6000610719610d0760485490565b604660009054906101000a90046001600160a01b03166001600160a01b03166345089e296040518163ffffffff1660e01b8152600401602060405180830381865afa158015610d5a573d6000803e3d6000fd5b505050506040513d601f19601f82011682018060405250810190610d7e9190611b1f565b610d889190611b7b565b8490600185611300565b6001600160a01b038316610df45760405162461bcd60e51b8152602060048201526024808201527f45524332303a20617070726f76652066726f6d20746865207a65726f206164646044820152637265737360e01b6064820152608401610617565b6001600160a01b038216610e555760405162461bcd60e51b815260206004820152602260248201527f45524332303a20617070726f766520746f20746865207a65726f206164647265604482015261737360f01b6064820152608401610617565b6001600160a01b038381166000818152604c602090815260408083209487168084529482529182902085905590518481527f8c5be1e5ebec7d5bd14f71427d1e84f3dd0314c0f7b2291e5b200ac8c7c3b925910160405180910390a3505050565b6000610719610ec460485490565b604660009054906101000a90046001600160a01b03166001600160a01b03166345089e296040518163ffffffff1660e01b8152600401602060405180830381865afa158015610f17573d6000803e3d6000fd5b505050506040513d601f19601f82011682018060405250810190610f3b9190611b1f565b85919085611300565b600054610100900460ff16610f6b5760405162461bcd60e51b815260040161061790611d46565b610f75828261135d565b5050565b6000610f858484610cc1565b90506000198114610fed5781811015610fe05760405162461bcd60e51b815260206004820152601d60248201527f45524332303a20696e73756666696369656e7420616c6c6f77616e63650000006044820152606401610617565b610fed8484848403610d92565b50505050565b6001600160a01b03831661102557604051634b637e8f60e11b81526001600160a01b0384166004820152602401610617565b6001600160a01b0382166110575760405163ec442f0560e01b81526001600160a01b0383166004820152602401610617565b600061106282610a6b565b6001600160a01b0385166000908152604a6020526040902054909150818110156110b85760405163391434e360e21b81526001600160a01b03861660048201526024810182905260448101839052606401610617565b6001600160a01b039485166000908152604a60205260408082209284900390925593909416835292909120805490920190915550565b60006104e27f8b73c3c69bb8fe3d512ecc4cf759cc79239f7b179b0ffacaa9a75d522b39400f61111d60015490565b6002546040805160208101859052908101839052606081018290524660808201523060a082015260009060c0016040516020818303038152906040528051906020012090509392505050565b60008061117560495490565b11806104e257506111846104c9565b15905090565b6000610719604660009054906101000a90046001600160a01b03166001600160a01b03166345089e296040518163ffffffff1660e01b8152600401602060405180830381865afa1580156111e2573d6000803e3d6000fd5b505050506040513d601f19601f820116820180604052508101906112069190611b1f565b610f3b6104c9565b80604860008282546112209190611cac565b90915550506001600160a01b039092166000908152604a6020526040902080549092019091555050565b6001600160a01b0381166000908152604b602052604090208054600181018255905b50919050565b60006104a061127f6110ee565b8360405161190160f01b6020820152602281018390526042810182905260009060620160405160208183030381529060405280519060200120905092915050565b60008060006112d18787878761139e565b915091506112de8161148b565b5090505b949350505050565b60006107196112f860485490565b604954610f3b565b60008061130e868686611644565b9050600183600281111561132457611324611ae1565b14801561134157506000848061133c5761133c611b65565b868809115b1561135457611351600182611cac565b90505b95945050505050565b600054610100900460ff166113845760405162461bcd60e51b815260040161061790611d46565b815160209283012081519190920120600191909155600255565b6000807f7fffffffffffffffffffffffffffffff5d576e7357a4501ddfe92f46681b20a08311156113d55750600090506003611482565b8460ff16601b141580156113ed57508460ff16601c14155b156113fe5750600090506004611482565b6040805160008082526020820180845289905260ff881692820192909252606081018690526080810185905260019060a0016020604051602081039080840390855afa158015611452573d6000803e3d6000fd5b5050604051601f1901519150506001600160a01b03811661147b57600060019250925050611482565b9150600090505b94509492505050565b600081600481111561149f5761149f611ae1565b036114a75750565b60018160048111156114bb576114bb611ae1565b036115085760405162461bcd60e51b815260206004820152601860248201527f45434453413a20696e76616c6964207369676e617475726500000000000000006044820152606401610617565b600281600481111561151c5761151c611ae1565b036115695760405162461bcd60e51b815260206004820152601f60248201527f45434453413a20696e76616c6964207369676e6174757265206c656e677468006044820152606401610617565b600381600481111561157d5761157d611ae1565b036115d55760405162461bcd60e51b815260206004820152602260248201527f45434453413a20696e76616c6964207369676e6174757265202773272076616c604482015261756560f01b6064820152608401610617565b60048160048111156115e9576115e9611ae1565b036116415760405162461bcd60e51b815260206004820152602260248201527f45434453413a20696e76616c6964207369676e6174757265202776272076616c604482015261756560f01b6064820152608401610617565b50565b600080806000198587098587029250828110838203039150508060000361167e5783828161167457611674611b65565b0492505050610719565b80841161168a57600080fd5b60008486880960026001871981018816978890046003810283188082028403028082028403028082028403028082028403028082028403029081029092039091026000889003889004909101858311909403939093029303949094049190911702949350505050565b600060208083528351808285015260005b8181101561172057858101830151858201604001528201611704565b506000604082860101526040601f19601f8301168501019250505092915050565b60006020828403121561175357600080fd5b5035919050565b80356001600160a01b038116811461177157600080fd5b919050565b6000806040838503121561178957600080fd5b6117928361175a565b946020939093013593505050565b634e487b7160e01b600052604160045260246000fd5b600082601f8301126117c757600080fd5b813567ffffffffffffffff808211156117e2576117e26117a0565b604051601f8301601f19908116603f0116810190828211818310171561180a5761180a6117a0565b8160405283815286602085880101111561182357600080fd5b836020870160208301376000602085830101528094505050505092915050565b6000806000806080858703121561185957600080fd5b6118628561175a565b93506118706020860161175a565b9250604085013567ffffffffffffffff8082111561188d57600080fd5b611899888389016117b6565b935060608701359150808211156118af57600080fd5b506118bc878288016117b6565b91505092959194509250565b6000806000606084860312156118dd57600080fd5b6118e68461175a565b92506118f46020850161175a565b9150604084013590509250925092565b60006020828403121561191657600080fd5b6107198261175a565b60006080828403121561193157600080fd5b6040516080810181811067ffffffffffffffff82111715611954576119546117a0565b8060405250809150823581526020830135602082015260408301356040820152606083013560608201525092915050565b803560ff8116811461177157600080fd5b600080600080600061010086880312156119af57600080fd5b6119b9878761191f565b94506119c76080870161175a565b93506119d560a08701611985565b9497939650939460c0810135945060e0013592915050565b60008060408385031215611a0057600080fd5b82359150611a106020840161175a565b90509250929050565b600080600080600080600060e0888a031215611a3457600080fd5b611a3d8861175a565b9650611a4b6020890161175a565b95506040880135945060608801359350611a6760808901611985565b925060a0880135915060c0880135905092959891949750929550565b60008060408385031215611a9657600080fd5b611a9f8361175a565b9150611a106020840161175a565b600181811c90821680611ac157607f821691505b60208210810361126c57634e487b7160e01b600052602260045260246000fd5b634e487b7160e01b600052602160045260246000fd5b6020810160028310611b1957634e487b7160e01b600052602160045260246000fd5b91905290565b600060208284031215611b3157600080fd5b5051919050565b634e487b7160e01b600052601160045260246000fd5b80820281158282048414176104a0576104a0611b38565b634e487b7160e01b600052601260045260246000fd5b600082611b9857634e487b7160e01b600052601260045260246000fd5b500490565b601f821115611be757600081815260208120601f850160051c81016020861015611bc45750805b601f850160051c820191505b81811015611be357828155600101611bd0565b5050505b505050565b815167ffffffffffffffff811115611c0657611c066117a0565b611c1a81611c148454611aad565b84611b9d565b602080601f831160018114611c4f5760008415611c375750858301515b600019600386901b1c1916600185901b178555611be3565b600085815260208120601f198616915b82811015611c7e57888601518255948401946001909101908401611c5f565b5085821015611c9c5787850151600019600388901b60f8161c191681555b5050505050600190811b01905550565b808201808211156104a0576104a0611b38565b6001600160a01b0397881681529590961660208601526040850193909352606084019190915260ff16608083015260a082015260c081019190915260e00190565b6001600160a01b0384811682528316602082015260c081016112e26040830184805182526020810151602083015260408101516040830152606081015160608301525050565b6020808252602b908201527f496e697469616c697a61626c653a20636f6e7472616374206973206e6f74206960408201526a6e697469616c697a696e6760a81b60608201526080019056fea264697066735822122006c87cfa14de0692b1f86787231f2e6755dfe9410f0fdb86c6ebc24a518448c564736f6c63430008150033",
    "linkReferences": {}
  },
  "methodIdentifiers": {
    "DOMAIN_SEPARATOR()": "3644e515",
    "allowance(address,address)": "dd62ed3e",
    "approve(address,uint256)": "095ea7b3",
    "asset()": "38d52e0f",
    "balanceOf(address)": "70a08231",
    "burn((uint256,uint256,uint256,uint256),address,uint8,bytes32,bytes32)": "4f4fc131",
    "convertToAssets(uint256)": "07a2d13a",
    "convertToShares(uint256)": "c6e6f592",
    "convertToUnderlying(uint256)": "1dc7f521",
    "decimals()": "313ce567",
    "decreaseAllowance(address,uint256)": "a457c2d7",
    "deposit(uint256,address)": "6e553f65",
    "increaseAllowance(address,uint256)": "39509351",
    "initialize(address,address,string,string)": "2016a0d2",
    "maxDeposit(address)": "402d267d",
    "mint((uint256,uint256,uint256,uint256),address,uint8,bytes32,bytes32)": "d9373612",
    "name()": "06fdde03",
    "nonces(address)": "7ecebe00",
    "permit(address,address,uint256,uint256,uint8,bytes32,bytes32)": "d505accf",
    "previewDeposit(uint256)": "ef8b30f7",
    "previewRedeem(uint256)": "4cdad506",
    "previewWithdraw(uint256)": "0a28a477",
    "sharesOf(address)": "f5eb42dc",
    "symbol()": "95d89b41",
    "totalAssets()": "01e1d114",
    "totalShares()": "3a98ef39",
    "totalSupply()": "18160ddd",
    "transfer(address,uint256)": "a9059cbb",
    "transferFrom(address,address,uint256)": "23b872dd"
  },
  "id": 23
}