{"abi":[{"type":"constructor","inputs":[],"stateMutability":"nonpayable"},{"type":"function","name":"DOMAIN_SEPARATOR","inputs":[],"outputs":[{"name":"","type":"bytes32","internalType":"bytes32"}],"stateMutability":"view"},{"type":"function","name":"FORMAT_DECIMALS","inputs":[],"outputs":[{"name":"","type":"uint256","internalType":"uint256"}],"stateMutability":"view"},{"type":"function","name":"allowance","inputs":[{"name":"owner","type":"address","internalType":"address"},{"name":"spender","type":"address","internalType":"address"}],"outputs":[{"name":"","type":"uint256","internalType":"uint256"}],"stateMutability":"view"},{"type":"function","name":"approve","inputs":[{"name":"spender","type":"address","internalType":"address"},{"name":"amount","type":"uint256","internalType":"uint256"}],"outputs":[{"name":"","type":"bool","internalType":"bool"}],"stateMutability":"nonpayable"},{"type":"function","name":"asset","inputs":[],"outputs":[{"name":"","type":"address","internalType":"address"}],"stateMutability":"view"},{"type":"function","name":"balanceOf","inputs":[{"name":"account_","type":"address","internalType":"address"}],"outputs":[{"name":"","type":"uint256","internalType":"uint256"}],"stateMutability":"view"},{"type":"function","name":"claimReward","inputs":[],"outputs":[{"name":"","type":"uint256","internalType":"uint256"}],"stateMutability":"nonpayable"},{"type":"function","name":"convertToOzTokens","inputs":[{"name":"shares_","type":"uint256","internalType":"uint256"},{"name":"account_","type":"address","internalType":"address"}],"outputs":[{"name":"","type":"uint256","internalType":"UintRay"}],"stateMutability":"view"},{"type":"function","name":"convertToShares","inputs":[{"name":"assets_","type":"uint256","internalType":"uint256"},{"name":"account_","type":"address","internalType":"address"}],"outputs":[{"name":"","type":"uint256","internalType":"uint256"}],"stateMutability":"view"},{"type":"function","name":"convertToSharesFromOzBalance","inputs":[{"name":"ozBalance_","type":"uint256","internalType":"uint256"}],"outputs":[{"name":"","type":"uint256","internalType":"uint256"}],"stateMutability":"view"},{"type":"function","name":"convertToUnderlying","inputs":[{"name":"shares_","type":"uint256","internalType":"uint256"}],"outputs":[{"name":"","type":"uint256","internalType":"uint256"}],"stateMutability":"view"},{"type":"function","name":"decimals","inputs":[],"outputs":[{"name":"","type":"uint8","internalType":"uint8"}],"stateMutability":"pure"},{"type":"function","name":"decreaseAllowance","inputs":[{"name":"spender","type":"address","internalType":"address"},{"name":"subtractedValue","type":"uint256","internalType":"uint256"}],"outputs":[{"name":"","type":"bool","internalType":"bool"}],"stateMutability":"nonpayable"},{"type":"function","name":"earned","inputs":[{"name":"user_","type":"address","internalType":"address"}],"outputs":[{"name":"","type":"uint256","internalType":"uint256"}],"stateMutability":"view"},{"type":"function","name":"getRewardsData","inputs":[],"outputs":[{"name":"rewardRate","type":"uint256","internalType":"uint256"},{"name":"circulatingSupply","type":"uint256","internalType":"uint256"},{"name":"pendingAllocation","type":"uint256","internalType":"uint256"},{"name":"recicledSupply","type":"uint256","internalType":"uint256"},{"name":"durationLeft","type":"int256","internalType":"int256"}],"stateMutability":"view"},{"type":"function","name":"increaseAllowance","inputs":[{"name":"spender","type":"address","internalType":"address"},{"name":"addedValue","type":"uint256","internalType":"uint256"}],"outputs":[{"name":"","type":"bool","internalType":"bool"}],"stateMutability":"nonpayable"},{"type":"function","name":"initialize","inputs":[{"name":"underlying_","type":"address","internalType":"address"},{"name":"diamond_","type":"address","internalType":"address"},{"name":"name_","type":"string","internalType":"string"},{"name":"symbol_","type":"string","internalType":"string"}],"outputs":[],"stateMutability":"nonpayable"},{"type":"function","name":"lastTimeRewardApplicable","inputs":[],"outputs":[{"name":"","type":"uint256","internalType":"uint256"}],"stateMutability":"view"},{"type":"function","name":"mint","inputs":[{"name":"data_","type":"bytes","internalType":"bytes"},{"name":"owner_","type":"address","internalType":"address"}],"outputs":[{"name":"","type":"uint256","internalType":"uint256"}],"stateMutability":"payable"},{"type":"function","name":"mint2","inputs":[{"name":"data_","type":"bytes","internalType":"bytes"},{"name":"owner_","type":"address","internalType":"address"},{"name":"isETH_","type":"bool","internalType":"bool"}],"outputs":[{"name":"","type":"uint256","internalType":"uint256"}],"stateMutability":"payable"},{"type":"function","name":"name","inputs":[],"outputs":[{"name":"","type":"string","internalType":"string"}],"stateMutability":"view"},{"type":"function","name":"nonces","inputs":[{"name":"owner","type":"address","internalType":"address"}],"outputs":[{"name":"","type":"uint256","internalType":"uint256"}],"stateMutability":"view"},{"type":"function","name":"notifyRewardAmount","inputs":[{"name":"amount_","type":"uint256","internalType":"uint256"}],"outputs":[],"stateMutability":"nonpayable"},{"type":"function","name":"permit","inputs":[{"name":"owner","type":"address","internalType":"address"},{"name":"spender","type":"address","internalType":"address"},{"name":"value","type":"uint256","internalType":"uint256"},{"name":"deadline","type":"uint256","internalType":"uint256"},{"name":"v","type":"uint8","internalType":"uint8"},{"name":"r","type":"bytes32","internalType":"bytes32"},{"name":"s_","type":"bytes32","internalType":"bytes32"}],"outputs":[],"stateMutability":"nonpayable"},{"type":"function","name":"redeem","inputs":[{"name":"data_","type":"bytes","internalType":"bytes"},{"name":"owner_","type":"address","internalType":"address"}],"outputs":[{"name":"","type":"uint256","internalType":"uint256"}],"stateMutability":"nonpayable"},{"type":"function","name":"rewardPerToken","inputs":[],"outputs":[{"name":"","type":"uint256","internalType":"uint256"}],"stateMutability":"view"},{"type":"function","name":"setRewardsDuration","inputs":[{"name":"duration_","type":"uint256","internalType":"uint256"}],"outputs":[],"stateMutability":"nonpayable"},{"type":"function","name":"sharesOf","inputs":[{"name":"account_","type":"address","internalType":"address"}],"outputs":[{"name":"","type":"uint256","internalType":"uint256"}],"stateMutability":"view"},{"type":"function","name":"symbol","inputs":[],"outputs":[{"name":"","type":"string","internalType":"string"}],"stateMutability":"view"},{"type":"function","name":"totalAssets","inputs":[],"outputs":[{"name":"","type":"uint256","internalType":"uint256"}],"stateMutability":"view"},{"type":"function","name":"totalShares","inputs":[],"outputs":[{"name":"","type":"uint256","internalType":"uint256"}],"stateMutability":"view"},{"type":"function","name":"totalSupply","inputs":[],"outputs":[{"name":"","type":"uint256","internalType":"uint256"}],"stateMutability":"view"},{"type":"function","name":"transfer","inputs":[{"name":"to","type":"address","internalType":"address"},{"name":"amount","type":"uint256","internalType":"uint256"}],"outputs":[{"name":"","type":"bool","internalType":"bool"}],"stateMutability":"nonpayable"},{"type":"function","name":"transferFrom","inputs":[{"name":"from","type":"address","internalType":"address"},{"name":"to","type":"address","internalType":"address"},{"name":"amount","type":"uint256","internalType":"uint256"}],"outputs":[{"name":"","type":"bool","internalType":"bool"}],"stateMutability":"nonpayable"},{"type":"function","name":"transferShares","inputs":[{"name":"recipient_","type":"address","internalType":"address"},{"name":"shares_","type":"uint256","internalType":"uint256"}],"outputs":[{"name":"","type":"uint256","internalType":"uint256"}],"stateMutability":"nonpayable"},{"type":"function","name":"transferSharesFrom","inputs":[{"name":"sender_","type":"address","internalType":"address"},{"name":"recipient_","type":"address","internalType":"address"},{"name":"shares_","type":"uint256","internalType":"uint256"}],"outputs":[{"name":"","type":"uint256","internalType":"uint256"}],"stateMutability":"nonpayable"},{"type":"event","name":"Approval","inputs":[{"name":"owner","type":"address","indexed":true,"internalType":"address"},{"name":"spender","type":"address","indexed":true,"internalType":"address"},{"name":"value","type":"uint256","indexed":false,"internalType":"uint256"}],"anonymous":false},{"type":"event","name":"Initialized","inputs":[{"name":"version","type":"uint8","indexed":false,"internalType":"uint8"}],"anonymous":false},{"type":"event","name":"OzTokenMinted","inputs":[{"name":"owner","type":"address","indexed":false,"internalType":"address"},{"name":"shares","type":"uint256","indexed":false,"internalType":"uint256"},{"name":"assets","type":"uint256","indexed":false,"internalType":"uint256"}],"anonymous":false},{"type":"event","name":"OzTokenRedeemed","inputs":[{"name":"owner","type":"address","indexed":false,"internalType":"address"},{"name":"ozAmountIn","type":"uint256","indexed":false,"internalType":"uint256"},{"name":"shares","type":"uint256","indexed":false,"internalType":"uint256"},{"name":"assets","type":"uint256","indexed":false,"internalType":"uint256"}],"anonymous":false},{"type":"event","name":"Transfer","inputs":[{"name":"from","type":"address","indexed":true,"internalType":"address"},{"name":"to","type":"address","indexed":true,"internalType":"address"},{"name":"value","type":"uint256","indexed":false,"internalType":"uint256"}],"anonymous":false},{"type":"event","name":"TransferShares","inputs":[{"name":"from","type":"address","indexed":true,"internalType":"address"},{"name":"to","type":"address","indexed":true,"internalType":"address"},{"name":"sharesAmoutn","type":"uint256","indexed":false,"internalType":"uint256"}],"anonymous":false},{"type":"error","name":"OZError03","inputs":[]},{"type":"error","name":"OZError04","inputs":[{"name":"from","type":"address","internalType":"address"},{"name":"to","type":"address","internalType":"address"}]},{"type":"error","name":"OZError05","inputs":[{"name":"amount","type":"uint256","internalType":"uint256"}]},{"type":"error","name":"OZError06","inputs":[{"name":"sender","type":"address","internalType":"address"},{"name":"accountShares","type":"uint256","internalType":"uint256"},{"name":"shares","type":"uint256","internalType":"uint256"}]},{"type":"error","name":"OZError07","inputs":[{"name":"from","type":"address","internalType":"address"},{"name":"fromShares","type":"uint256","internalType":"uint256"},{"name":"shares","type":"uint256","internalType":"uint256"}]},{"type":"error","name":"OZError08","inputs":[{"name":"deadline","type":"uint256","internalType":"uint256"},{"name":"blockTimestamp","type":"uint256","internalType":"uint256"}]},{"type":"error","name":"OZError09","inputs":[{"name":"owner","type":"address","internalType":"address"},{"name":"spender","type":"address","internalType":"address"}]},{"type":"error","name":"OZError22","inputs":[{"name":"reason","type":"string","internalType":"string"}]},{"type":"error","name":"OZError35","inputs":[{"name":"ozAmountIn","type":"uint256","internalType":"uint256"}]},{"type":"error","name":"OZError37","inputs":[]},{"type":"error","name":"OZError38","inputs":[]},{"type":"error","name":"OZError39","inputs":[{"name":"data","type":"bytes","internalType":"bytes"}]},{"type":"error","name":"OZError42","inputs":[]},{"type":"error","name":"OZError43","inputs":[]}],"bytecode":{"object":"0x608060405234801562000010575f80fd5b506200001b62000021565b620000e3565b603b54610100900460ff16156200008e5760405162461bcd60e51b815260206004820152602760248201527f496e697469616c697a61626c653a20636f6e747261637420697320696e697469604482015266616c697a696e6760c81b606482015260840160405180910390fd5b603b5460ff9081161015620000e157603b805460ff191660ff9081179091556040519081527f7f26b83ff96e1f2b6a682f133852f6798a09c465da95921460cefb38474024989060200160405180910390a15b565b612a0e80620000f15f395ff3fe608060405260043610610206575f3560e01c806370a0823111610113578063a9059cbb1161009d578063cd3daf9d1161006d578063cd3daf9d146104b4578063d295fa9a1461056b578063d505accf1461058a578063dd62ed3e146105a9578063f5eb42dc146105c8575f80fd5b8063a9059cbb1461052d578063b88a802f146104b4578063bc93f1cf1461054c578063cc1a378f146103d0575f80fd5b806380faa57d116100e357806380faa57d146104b45780638fcb4e5b146104c657806395d89b41146104e5578063a01c8774146104f9578063a457c2d71461050e575f80fd5b806370a082311461042b5780637b0446371461044a5780637d098e641461045d5780637ecebe0014610495575f80fd5b806323b872dd116101945780633950935111610164578063395093511461039d5780633a98ef39146103bc5780633c6b16ab146103d057806369e41c62146103ed5780636d7804591461040c575f80fd5b806323b872dd14610328578063313ce567146103475780633644e5151461036257806338d52e0f14610376575f80fd5b80630ba097d6116101da5780630ba097d6146102a05780630cae37f1146102bf57806318160ddd146102d45780631dc7f521146102e85780632016a0d214610307575f80fd5b80628cc2621461020a57806301e1d1141461023c57806306fdde0314610250578063095ea7b314610271575b5f80fd5b348015610215575f80fd5b50610229610224366004612030565b505f90565b6040519081526020015b60405180910390f35b348015610247575f80fd5b506102296105fc565b34801561025b575f80fd5b50610264610610565b604051610233919061208e565b34801561027c575f80fd5b5061029061028b3660046120a0565b6106a0565b6040519015158152602001610233565b3480156102ab575f80fd5b506102296102ba3660046121a1565b6106b6565b6102296102cd3660046121a1565b5f92915050565b3480156102df575f80fd5b50610229610a8f565b3480156102f3575f80fd5b506102296103023660046121f0565b610af1565b348015610312575f80fd5b50610326610321366004612207565b610b7e565b005b348015610333575f80fd5b5061029061034236600461228b565b610d7a565b348015610352575f80fd5b5060405160128152602001610233565b34801561036d575f80fd5b50610229610d9b565b348015610381575f80fd5b506071546040516001600160a01b039091168152602001610233565b3480156103a8575f80fd5b506102906103b73660046120a0565b610da4565b3480156103c7575f80fd5b50610229610dc4565b3480156103db575f80fd5b506103266103ea3660046121f0565b50565b3480156103f8575f80fd5b506102296104073660046121f0565b610dd4565b348015610417575f80fd5b5061022961042636600461228b565b610df0565b348015610436575f80fd5b50610229610445366004612030565b610e2b565b6102296104583660046122c9565b610e56565b348015610468575f80fd5b50604080515f8082526020820181905291810182905260608101829052608081019190915260a001610233565b3480156104a0575f80fd5b506102296104af366004612030565b611175565b3480156104bf575f80fd5b505f610229565b3480156104d1575f80fd5b506102296104e03660046120a0565b611192565b3480156104f0575f80fd5b506102646111c1565b348015610504575f80fd5b5061022960785481565b348015610519575f80fd5b506102906105283660046120a0565b6111d0565b348015610538575f80fd5b506102906105473660046120a0565b61120c565b348015610557575f80fd5b5061022961056636600461232d565b611218565b348015610576575f80fd5b5061022961058536600461232d565b611265565b348015610595575f80fd5b506103266105a436600461235e565b611311565b3480156105b4575f80fd5b506102296105c33660046123ca565b611430565b3480156105d3575f80fd5b506102296105e2366004612030565b6001600160a01b03165f9081526073602052604090205490565b6072545f9061060b908261145a565b905090565b60606076805461061f906123f6565b80601f016020809104026020016040519081016040528092919081815260200182805461064b906123f6565b80156106965780601f1061066d57610100808354040283529160200191610696565b820191905f5260205f20905b81548152906001019060200180831161067957829003601f168201915b5050505050905090565b5f6106ac33848461149c565b5060015b92915050565b5f7fd979d933a329cda0d1d95e3d7a8aaccfc305f1200c53a87f37e6841bb793452c805c156106f85760405163b955425560e01b815260048101604052600481fd5b6001815d60705483906001600160a01b0316801561076a576040516241fec360e31b81526001600160a01b03838116600483015282169063020ff618906024015f604051808303815f87803b15801561074f575f80fd5b505af1158015610761573d5f803e3d5ffd5b505050506107ab565b5f601a555f6018556001600160a01b038216156107ab576001600160a01b0382165f908152601e60209081526040808320839055601a54601d909252909120555b8551610100146107d9578560405163041979eb60e41b81526004016107d0919061208e565b60405180910390fd5b5f80878060200190518101906107ef9190612438565b815191935091506001600160a01b038816158061081357506001600160a01b038216155b1561083157604051632534b66960e21b815260040160405180910390fd5b6729a2241af62c000081101561085d57604051631a98558360e21b8152600481018290526024016107d0565b6001600160a01b0388165f9081526073602052604081205490610880838b611265565b9050808210156108a957898282604051637ac073bf60e01b81526004016107d093929190612531565b5f81905060705f9054906101000a90046001600160a01b03166001600160a01b031663a1b86b388c8e6040518363ffffffff1660e01b81526004016108ef929190612552565b60408051808303815f875af1925050508015610928575060408051601f3d908101601f1916820190925261092591810190612575565b60015b61097857610934612597565b806308c379a00361096e57506109486125b0565b806109535750610970565b80604051631bc63b8160e01b81526004016107d0919061208e565b505b3d5f803e3d5ffd5b610983825f8061154a565b6070546001600160a01b03165f9081526073602052604090205494506109aa83865f6115be565b5f60735f60705f9054906101000a90046001600160a01b03166001600160a01b03166001600160a01b031681526020019081526020015f20819055508260795f8f6001600160a01b03166001600160a01b031681526020019081526020015f205f82825403925050819055507f4181bb2dd7cb8bbe372dc317652857a2e512544faeba7c902b5e80107831732b8d878686604051610a6c94939291906001600160a01b0394909416845260208401929092526040830152606082015260800190565b60405180910390a19a50610a839650505050505050565b50505f815d5092915050565b5f610a98610dc4565b156102245761060b610aec610ac2610aae6105fc565b610abd9064e8d4a5100061264d565b61161a565b610ad4610acd610dc4565b6001611631565b610ae5610adf610dc4565b5f611631565b91906116e2565b6117f8565b5f610afa610dc4565b60705460405163a4fc284b60e01b81526001600160a01b039091169063a4fc284b90610b2b90600190600401612694565b602060405180830381865afa158015610b46573d5f803e3d5ffd5b505050506040513d601f19601f82011682018060405250810190610b6a91906126a7565b610b74908461264d565b6106b091906126d2565b603b54610100900460ff1615808015610b9e5750603b54600160ff909116105b80610bb85750303b158015610bb85750603b5460ff166001145b610c1b5760405162461bcd60e51b815260206004820152602e60248201527f496e697469616c697a61626c653a20636f6e747261637420697320616c72656160448201526d191e481a5b9a5d1a585b1a5e995960921b60648201526084016107d0565b603b805460ff191660011790558015610c3e57603b805461ff0019166101001790555b6076610c4a848261272e565b506077610c57838261272e565b50607080546001600160a01b038087166001600160a01b03199283161790925560718054928816929091169190911790556040805180820190915260018152603160f81b6020820152610cab90849061180f565b846001600160a01b031663313ce5676040518163ffffffff1660e01b8152600401602060405180830381865afa158015610ce7573d5f803e3d5ffd5b505050506040513d601f19601f82011682018060405250810190610d0b91906127ee565b60ff16601214610d1c576001610d23565b64e8d4a510005b64ffffffffff166078558015610d7357603b805461ff0019169055604051600181527f7f26b83ff96e1f2b6a682f133852f6798a09c465da95921460cefb38474024989060200160405180910390a15b5050505050565b5f610d86843384611844565b610d91848484611890565b5060019392505050565b5f61060b611998565b5f6106ac338484610db53388611430565b610dbf9190612809565b61149c565b6072545f9061060b90600161145a565b5f6106b0610de0610dc4565b610de8610a8f565b849190611a11565b5f80610dff610aec8487611218565b9050610e0c853383611844565b610e17858585611a34565b610e2385858386611b1c565b949350505050565b5f6106b0610aec610e50846001600160a01b03165f9081526073602052604090205490565b84611218565b5f7fd979d933a329cda0d1d95e3d7a8aaccfc305f1200c53a87f37e6841bb793452c805c15610e985760405163b955425560e01b815260048101604052600481fd5b6001815d60705484906001600160a01b03168015610f0a576040516241fec360e31b81526001600160a01b03838116600483015282169063020ff618906024015f604051808303815f87803b158015610eef575f80fd5b505af1158015610f01573d5f803e3d5ffd5b50505050610f4b565b5f601a555f6018556001600160a01b03821615610f4b576001600160a01b0382165f908152601e60209081526040808320839055601a54601d909252909120555b5f8088806020019051810190610f61919061281c565b915091508615610f8f5734826020015114610f8f57604051631008b85760e11b815260040160405180910390fd5b81511580610f9f57506020820151155b15610fbd5760405163e5da5c7360e01b815260040160405180910390fd5b6001600160a01b0388161580610fda57506001600160a01b038116155b15610ff857604051632534b66960e21b815260040160405180910390fd5b60785482515f916110099190611bbc565b6070549091506001600160a01b03166355dae15c346110306071546001600160a01b031690565b604080516001600160e01b031960e086901b1681526001600160a01b039283166004820152918e166024830152875160448301526020880151606483015287015160848201528b151560a482015260c401604080518083038185885af1935050505080156110bb575060408051601f3d908101601f191682019092526110b891810190612575565b60015b6110c757610934612597565b6110d38282600161154a565b826110e0818060016115be565b6110f2858760200151885f0151611bc7565b6001600160a01b0385165f908152607360209081526040808320805485019055607990915290819020805486019055517fcb7696223ea9f009e8eb0ecd9af1e430306b6c7c719e906d4a4af52bcba6353a90611153908e9084908890612531565b60405180910390a19850611168945050505050565b50505f815d509392505050565b6001600160a01b0381165f908152607460205260408120546106b0565b5f806111a1610aec8433611218565b90506111ae338585611a34565b6111ba33858386611b1c565b9392505050565b60606077805461061f906123f6565b5f806111dc3385611430565b9050828110156111ff576040516361ceb1d360e01b815260040160405180910390fd5b610d91338585840361149c565b5f6106ac338484611890565b5f80611224845f611631565b9050801561125c5761125761123884611bfb565b61124f6b033b2e3c9fd0803ce80000006002611c62565b8391906116e2565b610e23565b5f949350505050565b5f806112796070546001600160a01b031690565b6001600160a01b0316633154b6e25f806040518363ffffffff1660e01b81526004016112a6929190612872565b602060405180830381865afa1580156112c1573d5f803e3d5ffd5b505050506040513d601f19601f820116820180604052508101906112e591906126a7565b9050610e236112f384611bfb565b61130b611301610abd610dc4565b84610ae58961161a565b90611c6d565b8342111561133b5760405163184f1e0160e11b8152600481018590524260248201526044016107d0565b5f7f6e71edae12b1b97f4d1f60370fef10105fa2faae0126114a169c64845d6126c98888886113698c611ca8565b6040805160208101969096526001600160a01b0394851690860152929091166060840152608083015260a082015260c0810186905260e0016040516020818303038152906040528051906020012090505f6113c382611ccf565b90505f6113d282878787611d1b565b9050896001600160a01b0316816001600160a01b03161461141957604051635091bef560e01b81526001600160a01b0380831660048301528b1660248201526044016107d0565b6114248a8a8a61149c565b50505050505050505050565b6001600160a01b039182165f90815260756020908152604080832093909416825291909152205490565b5f6fffffffffffffffffffffffffffffffff8183600181111561147f5761147f612664565b1461148c57838116610e23565b608084901c811691505092915050565b6001600160a01b03831615806114b957506001600160a01b038216155b156114ea57604051637db368a160e01b81526001600160a01b038085166004830152831660248201526044016107d0565b6001600160a01b038381165f8181526075602090815260408083209487168084529482529182902085905590518481527f8c5be1e5ebec7d5bd14f71427d1e84f3dd0314c0f7b2291e5b200ac8c7c3b925910160405180910390a3505050565b60705460405163db185e8960e01b8152306004820152602481018590526044810184905282151560648201526001600160a01b039091169063db185e89906084015b5f604051808303815f87803b1580156115a3575f80fd5b505af11580156115b5573d5f803e3d5ffd5b50505050505050565b6072545f906115cd908261145a565b90505f6115e6600160725461145a90919063ffffffff16565b905082156115f957908401908301611602565b90849003908390035b61161081608084901b612809565b6072555050505050565b5f6106b0826b033b2e3c9fd0803ce800000061264d565b5f806116b46116486070546001600160a01b031690565b6001600160a01b0316633154b6e25f866040518363ffffffff1660e01b8152600401611675929190612872565b602060405180830381865afa158015611690573d5f803e3d5ffd5b505050506040513d601f19601f82011682018060405250810190610abd91906126a7565b9050610e23816116c2610dc4565b156116d7576116d2610abd610dc4565b6116d9565b825b610ae58761161a565b604051633f9b43b760e11b815260048101849052602481018390525f908490849084908490819073__$a7d7f0af96ad7248e2170a1364c3372171$__90637f36876e906044016040805180830381865af4158015611742573d5f803e3d5ffd5b505050506040513d601f19601f820116820180604052508101906117669190612575565b6040516399ed504f60e01b8152600481018390526024810182905260448101869052919350915073__$a7d7f0af96ad7248e2170a1364c3372171$__906399ed504f90606401602060405180830381865af41580156117c7573d5f803e3d5ffd5b505050506040513d601f19601f820116820180604052508101906117eb91906126a7565b9998505050505050505050565b5f6106b06b033b2e3c9fd0803ce8000000836126d2565b603b54610100900460ff166118365760405162461bcd60e51b81526004016107d09061288f565b6118408282611d41565b5050565b5f61184f8484611430565b90505f19811461188a578181101561187d576040516306052b7f60e01b8152600481018390526024016107d0565b61188a848484840361149c565b50505050565b6001600160a01b03831615806118ad57506001600160a01b038216155b156118de57604051637db368a160e01b81526001600160a01b038085166004830152831660248201526044016107d0565b5f6118e882610dd4565b6001600160a01b0385165f908152607360205260409020549091508181101561192a578481836040516315c29bad60e31b81526004016107d093929190612531565b6001600160a01b038086165f8181526073602052604080822086860390559287168082529083902080548601905591517fddf252ad1be2c89b69c2b068fc378daa952ba7f163c4a11628f55a4df523b3ef906119899087815260200190565b60405180910390a35050505050565b5f61060b7f8b73c3c69bb8fe3d512ecc4cf759cc79239f7b179b0ffacaa9a75d522b39400f6119c6603c5490565b603d546040805160208101859052908101839052606081018290524660808201523060a08201525f9060c0016040516020818303038152906040528051906020012090509392505050565b5f825f190484118302158202611a25575f80fd5b50910281810615159190040190565b6001600160a01b0383161580611a5157506001600160a01b038216155b15611a8257604051637db368a160e01b81526001600160a01b038085166004830152831660248201526044016107d0565b306001600160a01b03831603611aab57604051636d3bb4b960e11b815260040160405180910390fd5b6001600160a01b0383165f9081526073602052604090205480821115611aea578381836040516315c29bad60e31b81526004016107d093929190612531565b6001600160a01b039384165f908152607360205260408082209284900390925592909316825291902080549091019055565b826001600160a01b0316846001600160a01b03167fddf252ad1be2c89b69c2b068fc378daa952ba7f163c4a11628f55a4df523b3ef84604051611b6191815260200190565b60405180910390a3826001600160a01b0316846001600160a01b03167f9d9c909296d9c674451c0c24f02cb64981eb3b727f99865939192f880a755dcb83604051611bae91815260200190565b60405180910390a350505050565b5f6111ba82846126d2565b6070546040516331a2e95360e21b81526001600160a01b039091169063c68ba54c9061158c90869086908690600401612531565b5f6106b0611c166b033b2e3c9fd0803ce80000006002611c62565b611c37610acd856001600160a01b03165f9081526073602052604090205490565b6001600160a01b0385165f90815260736020526040902054610ae590610abd9064e8d4a5100061264d565b5f6111ba82846129ba565b5f8282611c7a81836129c5565b15611c86576001611c88565b5f5b60ff16611c9582846126d2565b611c9f9190612809565b95945050505050565b6001600160a01b0381165f9081526074602052604090208054600181018255905b50919050565b5f6106b0611cdb611998565b8360405161190160f01b602082015260228101839052604281018290525f9060620160405160208183030381529060405280519060200120905092915050565b5f805f611d2a87878787611d82565b91509150611d3781611e67565b5095945050505050565b603b54610100900460ff16611d685760405162461bcd60e51b81526004016107d09061288f565b815160209283012081519190920120603c91909155603d55565b5f807f7fffffffffffffffffffffffffffffff5d576e7357a4501ddfe92f46681b20a0831115611db757505f90506003611e5e565b8460ff16601b14158015611dcf57508460ff16601c14155b15611ddf57505f90506004611e5e565b604080515f8082526020820180845289905260ff881692820192909252606081018690526080810185905260019060a0016020604051602081039080840390855afa158015611e30573d5f803e3d5ffd5b5050604051601f1901519150506001600160a01b038116611e58575f60019250925050611e5e565b91505f90505b94509492505050565b5f816004811115611e7a57611e7a612664565b03611e825750565b6001816004811115611e9657611e96612664565b03611ee35760405162461bcd60e51b815260206004820152601860248201527f45434453413a20696e76616c6964207369676e6174757265000000000000000060448201526064016107d0565b6002816004811115611ef757611ef7612664565b03611f445760405162461bcd60e51b815260206004820152601f60248201527f45434453413a20696e76616c6964207369676e6174757265206c656e6774680060448201526064016107d0565b6003816004811115611f5857611f58612664565b03611fb05760405162461bcd60e51b815260206004820152602260248201527f45434453413a20696e76616c6964207369676e6174757265202773272076616c604482015261756560f01b60648201526084016107d0565b6004816004811115611fc457611fc4612664565b036103ea5760405162461bcd60e51b815260206004820152602260248201527f45434453413a20696e76616c6964207369676e6174757265202776272076616c604482015261756560f01b60648201526084016107d0565b6001600160a01b03811681146103ea575f80fd5b5f60208284031215612040575f80fd5b81356111ba8161201c565b5f81518084525f5b8181101561206f57602081850181015186830182015201612053565b505f602082860101526020601f19601f83011685010191505092915050565b602081525f6111ba602083018461204b565b5f80604083850312156120b1575f80fd5b82356120bc8161201c565b946020939093013593505050565b634e487b7160e01b5f52604160045260245ffd5b6060810181811067ffffffffffffffff821117156120fe576120fe6120ca565b60405250565b601f8201601f1916810167ffffffffffffffff8111828210171561212a5761212a6120ca565b6040525050565b5f82601f830112612140575f80fd5b813567ffffffffffffffff81111561215a5761215a6120ca565b604051612171601f8301601f191660200182612104565b818152846020838601011115612185575f80fd5b816020850160208301375f918101602001919091529392505050565b5f80604083850312156121b2575f80fd5b823567ffffffffffffffff8111156121c8575f80fd5b6121d485828601612131565b92505060208301356121e58161201c565b809150509250929050565b5f60208284031215612200575f80fd5b5035919050565b5f805f806080858703121561221a575f80fd5b84356122258161201c565b935060208501356122358161201c565b9250604085013567ffffffffffffffff80821115612251575f80fd5b61225d88838901612131565b93506060870135915080821115612272575f80fd5b5061227f87828801612131565b91505092959194509250565b5f805f6060848603121561229d575f80fd5b83356122a88161201c565b925060208401356122b88161201c565b929592945050506040919091013590565b5f805f606084860312156122db575f80fd5b833567ffffffffffffffff8111156122f1575f80fd5b6122fd86828701612131565b935050602084013561230e8161201c565b915060408401358015158114612322575f80fd5b809150509250925092565b5f806040838503121561233e575f80fd5b8235915060208301356121e58161201c565b60ff811681146103ea575f80fd5b5f805f805f805f60e0888a031215612374575f80fd5b873561237f8161201c565b9650602088013561238f8161201c565b9550604088013594506060880135935060808801356123ad81612350565b9699959850939692959460a0840135945060c09093013592915050565b5f80604083850312156123db575f80fd5b82356123e68161201c565b915060208301356121e58161201c565b600181811c9082168061240a57607f821691505b602082108103611cc957634e487b7160e01b5f52602260045260245ffd5b80516124338161201c565b919050565b5f8060408385031215612449575f80fd5b825167ffffffffffffffff80821115612460575f80fd5b9084019060608287031215612473575f80fd5b60405161247f816120de565b825181526020808401518183015260408401518381111561249e575f80fd5b80850194505087601f8501126124b2575f80fd5b8351838111156124c4576124c46120ca565b8060051b93506040516124d983860182612104565b8181529385018201938281018a8611156124f1575f80fd5b958301955b8587101561250d57865181529583019583016124f6565b508060408501525050819550612524818801612428565b9450505050509250929050565b6001600160a01b039390931683526020830191909152604082015260600190565b6001600160a01b03831681526040602082018190525f90610e239083018461204b565b5f8060408385031215612586575f80fd5b505080516020909101519092909150565b5f60033d11156125ad5760045f803e505f5160e01c5b90565b5f60443d10156125bd5790565b6040516003193d81016004833e81513d67ffffffffffffffff81602484011181841117156125ed57505050505090565b82850191508151818111156126055750505050505090565b843d870101602082850101111561261f5750505050505090565b61262e60208286010187612104565b509095945050505050565b634e487b7160e01b5f52601160045260245ffd5b80820281158282048414176106b0576106b0612639565b634e487b7160e01b5f52602160045260245ffd5b600281106103ea57634e487b7160e01b5f52602160045260245ffd5b602081016126a183612678565b91905290565b5f602082840312156126b7575f80fd5b5051919050565b634e487b7160e01b5f52601260045260245ffd5b5f826126e0576126e06126be565b500490565b601f82111561272957805f5260205f20601f840160051c8101602085101561270a5750805b601f840160051c820191505b81811015610d73575f8155600101612716565b505050565b815167ffffffffffffffff811115612748576127486120ca565b61275c8161275684546123f6565b846126e5565b602080601f83116001811461278f575f84156127785750858301515b5f19600386901b1c1916600185901b1785556127e6565b5f85815260208120601f198616915b828110156127bd5788860151825594840194600190910190840161279e565b50858210156127da57878501515f19600388901b60f8161c191681555b505060018460011b0185555b505050505050565b5f602082840312156127fe575f80fd5b81516111ba81612350565b808201808211156106b0576106b0612639565b5f80828403608081121561282e575f80fd5b606081121561283b575f80fd5b50604051612848816120de565b8351815260208401516020820152604084015160408201528092505060608301516121e58161201c565b8281526040810161288283612678565b8260208301529392505050565b6020808252602b908201527f496e697469616c697a61626c653a20636f6e7472616374206973206e6f74206960408201526a6e697469616c697a696e6760a81b606082015260800190565b600181815b8085111561291457815f19048211156128fa576128fa612639565b8085161561290757918102915b93841c93908002906128df565b509250929050565b5f8261292a575060016106b0565b8161293657505f6106b0565b816001811461294c576002811461295657612972565b60019150506106b0565b60ff84111561296757612967612639565b50506001821b6106b0565b5060208310610133831016604e8410600b8410161715612995575081810a6106b0565b61299f83836128da565b805f19048211156129b2576129b2612639565b029392505050565b5f6111ba838361291c565b5f826129d3576129d36126be565b50069056fea2646970667358221220e240bf04b925e39864c95e544e653151cebd538e7443fa29be893d13c541a95b64736f6c63430008180033","linkReferences":{"contracts/libraries/Uint512.sol":{"Uint512":[{"start":6140,"length":20},{"start":6272,"length":20}]}}},"methodIdentifiers":{"DOMAIN_SEPARATOR()":"3644e515","FORMAT_DECIMALS()":"a01c8774","allowance(address,address)":"dd62ed3e","approve(address,uint256)":"095ea7b3","asset()":"38d52e0f","balanceOf(address)":"70a08231","claimReward()":"b88a802f","convertToOzTokens(uint256,address)":"bc93f1cf","convertToShares(uint256,address)":"d295fa9a","convertToSharesFromOzBalance(uint256)":"69e41c62","convertToUnderlying(uint256)":"1dc7f521","decimals()":"313ce567","decreaseAllowance(address,uint256)":"a457c2d7","earned(address)":"008cc262","getRewardsData()":"7d098e64","increaseAllowance(address,uint256)":"39509351","initialize(address,address,string,string)":"2016a0d2","lastTimeRewardApplicable()":"80faa57d","mint(bytes,address)":"0cae37f1","mint2(bytes,address,bool)":"7b044637","name()":"06fdde03","nonces(address)":"7ecebe00","notifyRewardAmount(uint256)":"3c6b16ab","permit(address,address,uint256,uint256,uint8,bytes32,bytes32)":"d505accf","redeem(bytes,address)":"0ba097d6","rewardPerToken()":"cd3daf9d","setRewardsDuration(uint256)":"cc1a378f","sharesOf(address)":"f5eb42dc","symbol()":"95d89b41","totalAssets()":"01e1d114","totalShares()":"3a98ef39","totalSupply()":"18160ddd","transfer(address,uint256)":"a9059cbb","transferFrom(address,address,uint256)":"23b872dd","transferShares(address,uint256)":"8fcb4e5b","transferSharesFrom(address,address,uint256)":"6d780459"},"id":45}