{
  "abi": [
    {
      "inputs": [],
      "stateMutability": "nonpayable",
      "type": "constructor"
    },
    {
      "inputs": [],
      "name": "OZError03",
      "type": "error"
    },
    {
      "inputs": [
        {
          "internalType": "address",
          "name": "from",
          "type": "address"
        },
        {
          "internalType": "address",
          "name": "to",
          "type": "address"
        }
      ],
      "name": "OZError04",
      "type": "error"
    },
    {
      "inputs": [
        {
          "internalType": "uint256",
          "name": "amount",
          "type": "uint256"
        }
      ],
      "name": "OZError05",
      "type": "error"
    },
    {
      "inputs": [
        {
          "internalType": "address",
          "name": "sender",
          "type": "address"
        },
        {
          "internalType": "uint256",
          "name": "accountShares",
          "type": "uint256"
        },
        {
          "internalType": "uint256",
          "name": "shares",
          "type": "uint256"
        }
      ],
      "name": "OZError06",
      "type": "error"
    },
    {
      "inputs": [
        {
          "internalType": "address",
          "name": "from",
          "type": "address"
        },
        {
          "internalType": "uint256",
          "name": "fromShares",
          "type": "uint256"
        },
        {
          "internalType": "uint256",
          "name": "shares",
          "type": "uint256"
        }
      ],
      "name": "OZError07",
      "type": "error"
    },
    {
      "inputs": [
        {
          "internalType": "uint256",
          "name": "deadline",
          "type": "uint256"
        },
        {
          "internalType": "uint256",
          "name": "blockTimestamp",
          "type": "uint256"
        }
      ],
      "name": "OZError08",
      "type": "error"
    },
    {
      "inputs": [
        {
          "internalType": "address",
          "name": "owner",
          "type": "address"
        },
        {
          "internalType": "address",
          "name": "spender",
          "type": "address"
        }
      ],
      "name": "OZError09",
      "type": "error"
    },
    {
      "inputs": [
        {
          "internalType": "string",
          "name": "reason",
          "type": "string"
        }
      ],
      "name": "OZError22",
      "type": "error"
    },
    {
      "anonymous": false,
      "inputs": [
        {
          "indexed": true,
          "internalType": "address",
          "name": "owner",
          "type": "address"
        },
        {
          "indexed": true,
          "internalType": "address",
          "name": "spender",
          "type": "address"
        },
        {
          "indexed": false,
          "internalType": "uint256",
          "name": "value",
          "type": "uint256"
        }
      ],
      "name": "Approval",
      "type": "event"
    },
    {
      "anonymous": false,
      "inputs": [
        {
          "indexed": false,
          "internalType": "uint8",
          "name": "version",
          "type": "uint8"
        }
      ],
      "name": "Initialized",
      "type": "event"
    },
    {
      "anonymous": false,
      "inputs": [
        {
          "indexed": true,
          "internalType": "address",
          "name": "from",
          "type": "address"
        },
        {
          "indexed": true,
          "internalType": "address",
          "name": "to",
          "type": "address"
        },
        {
          "indexed": false,
          "internalType": "uint256",
          "name": "value",
          "type": "uint256"
        }
      ],
      "name": "Transfer",
      "type": "event"
    },
    {
      "inputs": [],
      "name": "DOMAIN_SEPARATOR",
      "outputs": [
        {
          "internalType": "bytes32",
          "name": "",
          "type": "bytes32"
        }
      ],
      "stateMutability": "view",
      "type": "function"
    },
    {
      "inputs": [],
      "name": "FORMAT_DECIMALS",
      "outputs": [
        {
          "internalType": "uint256",
          "name": "",
          "type": "uint256"
        }
      ],
      "stateMutability": "view",
      "type": "function"
    },
    {
      "inputs": [
        {
          "internalType": "address",
          "name": "owner",
          "type": "address"
        },
        {
          "internalType": "address",
          "name": "spender",
          "type": "address"
        }
      ],
      "name": "allowance",
      "outputs": [
        {
          "internalType": "uint256",
          "name": "",
          "type": "uint256"
        }
      ],
      "stateMutability": "view",
      "type": "function"
    },
    {
      "inputs": [
        {
          "internalType": "address",
          "name": "spender",
          "type": "address"
        },
        {
          "internalType": "uint256",
          "name": "amount",
          "type": "uint256"
        }
      ],
      "name": "approve",
      "outputs": [
        {
          "internalType": "bool",
          "name": "",
          "type": "bool"
        }
      ],
      "stateMutability": "nonpayable",
      "type": "function"
    },
    {
      "inputs": [],
      "name": "asset",
      "outputs": [
        {
          "internalType": "address",
          "name": "",
          "type": "address"
        }
      ],
      "stateMutability": "view",
      "type": "function"
    },
    {
      "inputs": [
        {
          "internalType": "address",
          "name": "account_",
          "type": "address"
        }
      ],
      "name": "balanceOf",
      "outputs": [
        {
          "internalType": "uint256",
          "name": "",
          "type": "uint256"
        }
      ],
      "stateMutability": "view",
      "type": "function"
    },
    {
      "inputs": [],
      "name": "claimReward",
      "outputs": [
        {
          "internalType": "uint256",
          "name": "",
          "type": "uint256"
        }
      ],
      "stateMutability": "nonpayable",
      "type": "function"
    },
    {
      "inputs": [
        {
          "internalType": "uint256",
          "name": "shares",
          "type": "uint256"
        }
      ],
      "name": "convertToAssets",
      "outputs": [
        {
          "internalType": "uint256",
          "name": "assets",
          "type": "uint256"
        }
      ],
      "stateMutability": "view",
      "type": "function"
    },
    {
      "inputs": [
        {
          "internalType": "uint256",
          "name": "assets",
          "type": "uint256"
        }
      ],
      "name": "convertToShares",
      "outputs": [
        {
          "internalType": "uint256",
          "name": "shares",
          "type": "uint256"
        }
      ],
      "stateMutability": "view",
      "type": "function"
    },
    {
      "inputs": [
        {
          "internalType": "uint256",
          "name": "shares_",
          "type": "uint256"
        }
      ],
      "name": "convertToUnderlying",
      "outputs": [
        {
          "internalType": "uint256",
          "name": "amountUnderlying",
          "type": "uint256"
        }
      ],
      "stateMutability": "view",
      "type": "function"
    },
    {
      "inputs": [],
      "name": "decimals",
      "outputs": [
        {
          "internalType": "uint8",
          "name": "",
          "type": "uint8"
        }
      ],
      "stateMutability": "pure",
      "type": "function"
    },
    {
      "inputs": [
        {
          "internalType": "address",
          "name": "spender",
          "type": "address"
        },
        {
          "internalType": "uint256",
          "name": "subtractedValue",
          "type": "uint256"
        }
      ],
      "name": "decreaseAllowance",
      "outputs": [
        {
          "internalType": "bool",
          "name": "",
          "type": "bool"
        }
      ],
      "stateMutability": "nonpayable",
      "type": "function"
    },
    {
      "inputs": [
        {
          "internalType": "address",
          "name": "user_",
          "type": "address"
        }
      ],
      "name": "earned",
      "outputs": [
        {
          "internalType": "uint256",
          "name": "",
          "type": "uint256"
        }
      ],
      "stateMutability": "view",
      "type": "function"
    },
    {
      "inputs": [],
      "name": "getRewardsData",
      "outputs": [
        {
          "internalType": "uint256",
          "name": "rewardRate",
          "type": "uint256"
        },
        {
          "internalType": "uint256",
          "name": "circulatingSupply",
          "type": "uint256"
        },
        {
          "internalType": "uint256",
          "name": "pendingAllocation",
          "type": "uint256"
        },
        {
          "internalType": "uint256",
          "name": "recicledSupply",
          "type": "uint256"
        },
        {
          "internalType": "int256",
          "name": "durationLeft",
          "type": "int256"
        }
      ],
      "stateMutability": "view",
      "type": "function"
    },
    {
      "inputs": [
        {
          "internalType": "address",
          "name": "spender",
          "type": "address"
        },
        {
          "internalType": "uint256",
          "name": "addedValue",
          "type": "uint256"
        }
      ],
      "name": "increaseAllowance",
      "outputs": [
        {
          "internalType": "bool",
          "name": "",
          "type": "bool"
        }
      ],
      "stateMutability": "nonpayable",
      "type": "function"
    },
    {
      "inputs": [
        {
          "internalType": "address",
          "name": "underlying_",
          "type": "address"
        },
        {
          "internalType": "address",
          "name": "diamond_",
          "type": "address"
        },
        {
          "internalType": "string",
          "name": "name_",
          "type": "string"
        },
        {
          "internalType": "string",
          "name": "symbol_",
          "type": "string"
        }
      ],
      "name": "initialize",
      "outputs": [],
      "stateMutability": "nonpayable",
      "type": "function"
    },
    {
      "inputs": [],
      "name": "lastTimeRewardApplicable",
      "outputs": [
        {
          "internalType": "uint256",
          "name": "",
          "type": "uint256"
        }
      ],
      "stateMutability": "view",
      "type": "function"
    },
    {
      "inputs": [
        {
          "internalType": "bytes",
          "name": "data_",
          "type": "bytes"
        },
        {
          "internalType": "address",
          "name": "owner_",
          "type": "address"
        }
      ],
      "name": "mint",
      "outputs": [
        {
          "internalType": "uint256",
          "name": "",
          "type": "uint256"
        }
      ],
      "stateMutability": "nonpayable",
      "type": "function"
    },
    {
      "inputs": [],
      "name": "name",
      "outputs": [
        {
          "internalType": "string",
          "name": "",
          "type": "string"
        }
      ],
      "stateMutability": "view",
      "type": "function"
    },
    {
      "inputs": [
        {
          "internalType": "address",
          "name": "owner",
          "type": "address"
        }
      ],
      "name": "nonces",
      "outputs": [
        {
          "internalType": "uint256",
          "name": "",
          "type": "uint256"
        }
      ],
      "stateMutability": "view",
      "type": "function"
    },
    {
      "inputs": [
        {
          "internalType": "uint256",
          "name": "amount_",
          "type": "uint256"
        }
      ],
      "name": "notifyRewardAmount",
      "outputs": [],
      "stateMutability": "nonpayable",
      "type": "function"
    },
    {
      "inputs": [
        {
          "internalType": "address",
          "name": "owner",
          "type": "address"
        },
        {
          "internalType": "address",
          "name": "spender",
          "type": "address"
        },
        {
          "internalType": "uint256",
          "name": "value",
          "type": "uint256"
        },
        {
          "internalType": "uint256",
          "name": "deadline",
          "type": "uint256"
        },
        {
          "internalType": "uint8",
          "name": "v",
          "type": "uint8"
        },
        {
          "internalType": "bytes32",
          "name": "r",
          "type": "bytes32"
        },
        {
          "internalType": "bytes32",
          "name": "s_",
          "type": "bytes32"
        }
      ],
      "name": "permit",
      "outputs": [],
      "stateMutability": "nonpayable",
      "type": "function"
    },
    {
      "inputs": [
        {
          "internalType": "uint256",
          "name": "assets_",
          "type": "uint256"
        }
      ],
      "name": "previewMint",
      "outputs": [
        {
          "internalType": "uint256",
          "name": "",
          "type": "uint256"
        }
      ],
      "stateMutability": "view",
      "type": "function"
    },
    {
      "inputs": [
        {
          "internalType": "uint256",
          "name": "shares_",
          "type": "uint256"
        }
      ],
      "name": "previewRedeem",
      "outputs": [
        {
          "internalType": "uint256",
          "name": "",
          "type": "uint256"
        }
      ],
      "stateMutability": "view",
      "type": "function"
    },
    {
      "inputs": [
        {
          "internalType": "uint256",
          "name": "assets",
          "type": "uint256"
        }
      ],
      "name": "previewWithdraw",
      "outputs": [
        {
          "internalType": "uint256",
          "name": "",
          "type": "uint256"
        }
      ],
      "stateMutability": "view",
      "type": "function"
    },
    {
      "inputs": [
        {
          "internalType": "bytes",
          "name": "data_",
          "type": "bytes"
        },
        {
          "internalType": "address",
          "name": "owner_",
          "type": "address"
        }
      ],
      "name": "redeem",
      "outputs": [
        {
          "internalType": "uint256",
          "name": "",
          "type": "uint256"
        }
      ],
      "stateMutability": "nonpayable",
      "type": "function"
    },
    {
      "inputs": [],
      "name": "rewardPerToken",
      "outputs": [
        {
          "internalType": "uint256",
          "name": "",
          "type": "uint256"
        }
      ],
      "stateMutability": "view",
      "type": "function"
    },
    {
      "inputs": [
        {
          "internalType": "uint256",
          "name": "duration_",
          "type": "uint256"
        }
      ],
      "name": "setRewardsDuration",
      "outputs": [],
      "stateMutability": "nonpayable",
      "type": "function"
    },
    {
      "inputs": [
        {
          "internalType": "address",
          "name": "account_",
          "type": "address"
        }
      ],
      "name": "sharesOf",
      "outputs": [
        {
          "internalType": "uint256",
          "name": "",
          "type": "uint256"
        }
      ],
      "stateMutability": "view",
      "type": "function"
    },
    {
      "inputs": [],
      "name": "symbol",
      "outputs": [
        {
          "internalType": "string",
          "name": "",
          "type": "string"
        }
      ],
      "stateMutability": "view",
      "type": "function"
    },
    {
      "inputs": [],
      "name": "totalAssets",
      "outputs": [
        {
          "internalType": "uint256",
          "name": "",
          "type": "uint256"
        }
      ],
      "stateMutability": "view",
      "type": "function"
    },
    {
      "inputs": [],
      "name": "totalShares",
      "outputs": [
        {
          "internalType": "uint256",
          "name": "",
          "type": "uint256"
        }
      ],
      "stateMutability": "view",
      "type": "function"
    },
    {
      "inputs": [],
      "name": "totalSupply",
      "outputs": [
        {
          "internalType": "uint256",
          "name": "",
          "type": "uint256"
        }
      ],
      "stateMutability": "view",
      "type": "function"
    },
    {
      "inputs": [
        {
          "internalType": "address",
          "name": "to",
          "type": "address"
        },
        {
          "internalType": "uint256",
          "name": "amount",
          "type": "uint256"
        }
      ],
      "name": "transfer",
      "outputs": [
        {
          "internalType": "bool",
          "name": "",
          "type": "bool"
        }
      ],
      "stateMutability": "nonpayable",
      "type": "function"
    },
    {
      "inputs": [
        {
          "internalType": "address",
          "name": "from",
          "type": "address"
        },
        {
          "internalType": "address",
          "name": "to",
          "type": "address"
        },
        {
          "internalType": "uint256",
          "name": "amount",
          "type": "uint256"
        }
      ],
      "name": "transferFrom",
      "outputs": [
        {
          "internalType": "bool",
          "name": "",
          "type": "bool"
        }
      ],
      "stateMutability": "nonpayable",
      "type": "function"
    }
  ],
  "bytecode": {
    "object": "0x608060405234801561001057600080fd5b5061001961001e565b6100de565b602854610100900460ff161561008a5760405162461bcd60e51b815260206004820152602760248201527f496e697469616c697a61626c653a20636f6e747261637420697320696e697469604482015266616c697a696e6760c81b606482015260840160405180910390fd5b60285460ff90811610156100dc576028805460ff191660ff9081179091556040519081527f7f26b83ff96e1f2b6a682f133852f6798a09c465da95921460cefb38474024989060200160405180910390a15b565b61213680620000ee6000396000f3fe608060405234801561001057600080fd5b50600436106102105760003560e01c80633c6b16ab11610125578063a9059cbb116100ad578063cc1a378f1161007c578063cc1a378f14610358578063cd3daf9d146103cf578063d505accf14610420578063dd62ed3e14610433578063f5eb42dc1461044657600080fd5b8063a9059cbb146103fa578063b3d7f6b91461040d578063b88a802f146103cf578063c6e6f5921461028f57600080fd5b80637ecebe00116100f45780637ecebe00146103bc57806380faa57d146103cf57806395d89b41146103d6578063a01c8774146103de578063a457c2d7146103e757600080fd5b80633c6b16ab146103585780634cdad5061461036957806370a082311461037c5780637d098e641461038f57600080fd5b806318160ddd116101a8578063313ce56711610177578063313ce5671461030b5780633644e5151461031a57806338d52e0f14610322578063395093511461033d5780633a98ef391461035057600080fd5b806318160ddd146102c85780631dc7f521146102d05780632016a0d2146102e357806323b872dd146102f857600080fd5b8063095ea7b3116101e4578063095ea7b31461026c5780630a28a4771461028f5780630ba097d6146102a25780630cae37f1146102b557600080fd5b80628cc2621461021557806301e1d1141461023c57806306fdde031461024457806307a2d13a14610259575b600080fd5b610229610223366004611820565b50600090565b6040519081526020015b60405180910390f35b61022961046f565b61024c610484565b6040516102339190611883565b610229610267366004611896565b610516565b61027f61027a3660046118af565b610527565b6040519015158152602001610233565b61022961029d366004611896565b61053d565b6102296102b036600461197c565b610548565b6102296102c336600461197c565b6107bc565b610229610994565b6102296102de366004611896565b6109b3565b6102f66102f1366004611a02565b610a43565b005b61027f610306366004611a8b565b610c41565b60405160128152602001610233565b610229610c63565b605e546040516001600160a01b039091168152602001610233565b61027f61034b3660046118af565b610c6d565b610229610c8e565b6102f6610366366004611896565b50565b610229610377366004611896565b610c9f565b61022961038a366004611820565b610caa565b6040805160008082526020820181905291810182905260608101829052608081019190915260a001610233565b6102296103ca366004611820565b610ccc565b6000610229565b61024c610cea565b61022960655481565b61027f6103f53660046118af565b610cf9565b61027f6104083660046118af565b610d36565b61022961041b366004611896565b610d43565b6102f661042e366004611adb565b610d4e565b610229610441366004611b4c565b610e70565b610229610454366004611820565b6001600160a01b031660009081526060602052604090205490565b605f5460009061047f9082610e9b565b905090565b60606063805461049390611b7a565b80601f01602080910402602001604051908101604052809291908181526020018280546104bf90611b7a565b801561050c5780601f106104e15761010080835404028352916020019161050c565b820191906000526020600020905b8154815290600101906020018083116104ef57829003601f168201915b5050505050905090565b600061052182610ede565b92915050565b6000610534338484610f7f565b50600192915050565b60006105218261102e565b605d5460009082906001600160a01b031680156105be576040516241fec360e31b81526001600160a01b03838116600483015282169063020ff61890602401600060405180830381600087803b1580156105a157600080fd5b505af11580156105b5573d6000803e3d6000fd5b50505050610602565b6000601b5560006019556001600160a01b03821615610602576001600160a01b0382166000908152601f60209081526040808320839055601b54601e909252909120555b6000858060200190518101906106189190611c2f565b509050600061063c866001600160a01b031660009081526060602052604090205490565b9050600061064d836000015161053d565b90508082101561068e57604051637ac073bf60e01b81526001600160a01b038816600482015260248101839052604481018290526064015b60405180910390fd5b600061069982610c9f565b605d546040516314370d6760e31b81529192506001600160a01b03169063a1b86b38906106cc908b908d90600401611cd4565b60408051808303816000875af1925050508015610706575060408051601f3d908101601f1916820190925261070391810190611cf8565b60015b61075857610712611d1c565b806308c379a00361074c5750610726611d38565b80610731575061074e565b80604051631bc63b8160e01b81526004016106859190611883565b505b3d6000803e3d6000fd5b6107638260006110b0565b605d546001600160a01b0316600090815260606020526040902054945061078c83866000611120565b605d546001600160a01b031660009081526060602052604081205597506107b4945050505050565b505092915050565b605d5460009082906001600160a01b03168015610832576040516241fec360e31b81526001600160a01b03838116600483015282169063020ff61890602401600060405180830381600087803b15801561081557600080fd5b505af1158015610829573d6000803e3d6000fd5b50505050610876565b6000601b5560006019556001600160a01b03821615610876576001600160a01b0382166000908152601f60209081526040808320839055601b54601e909252909120555b6000808680602001905181019061088d9190611dc2565b60655482519294509092506000916108a49161117e565b605d549091506001600160a01b0316639ea04fe46108ca605e546001600160a01b031690565b89866040518463ffffffff1660e01b81526004016108ea93929190611e5b565b6020604051808303816000875af1925050508015610925575060408051601f3d908101601f1916820190925261092291810190611ed4565b60015b61093157610712611d1c565b61093c8160016110b0565b6000610946610c8e565b156109595761095483610d43565b61095b565b825b905061096983826001611120565b6001600160a01b039093166000908152606060205260409020805484019055509094506107b4915050565b600061099e610c8e565b156102235761047f6109ae610c8e565b610ede565b60006109bd610c8e565b605d5460405163a4fc284b60e01b81526001600160a01b039091169063a4fc284b906109ee90600190600401611f03565b602060405180830381865afa158015610a0b573d6000803e3d6000fd5b505050506040513d601f19601f82011682018060405250810190610a2f9190611ed4565b610a399084611f41565b6105219190611f58565b602854610100900460ff1615808015610a635750602854600160ff909116105b80610a7d5750303b158015610a7d575060285460ff166001145b610ae05760405162461bcd60e51b815260206004820152602e60248201527f496e697469616c697a61626c653a20636f6e747261637420697320616c72656160448201526d191e481a5b9a5d1a585b1a5e995960921b6064820152608401610685565b6028805460ff191660011790558015610b03576028805461ff0019166101001790555b6063610b0f8482611fc5565b506064610b1c8382611fc5565b50605d80546001600160a01b038087166001600160a01b031992831617909255605e8054928816929091169190911790556040805180820190915260018152603160f81b6020820152610b70908490611191565b846001600160a01b031663313ce5676040518163ffffffff1660e01b8152600401602060405180830381865afa158015610bae573d6000803e3d6000fd5b505050506040513d601f19601f82011682018060405250810190610bd29190612085565b60ff16601214610be3576001610bea565b64e8d4a510005b64ffffffffff166065558015610c3a576028805461ff0019169055604051600181527f7f26b83ff96e1f2b6a682f133852f6798a09c465da95921460cefb38474024989060200160405180910390a15b5050505050565b6000610c4e8433846111c6565b610c59848484611214565b5060019392505050565b600061047f611332565b6000610534338484610c7f3388610e70565b610c8991906120a2565b610f7f565b605f5460009061047f906001610e9b565b6000610521826113ad565b6001600160a01b03811660009081526060602052604081205461052190610516565b6001600160a01b038116600090815260616020526040812054610521565b60606064805461049390611b7a565b600080610d063385610e70565b905082811015610d29576040516361ceb1d360e01b815260040160405180910390fd5b610c593385858403610f7f565b6000610534338484611214565b600061052182611430565b83421115610d785760405163184f1e0160e11b815260048101859052426024820152604401610685565b60007f6e71edae12b1b97f4d1f60370fef10105fa2faae0126114a169c64845d6126c9888888610da78c611445565b6040805160208101969096526001600160a01b0394851690860152929091166060840152608083015260a082015260c0810186905260e0016040516020818303038152906040528051906020012090506000610e028261146d565b90506000610e12828787876114bb565b9050896001600160a01b0316816001600160a01b031614610e5957604051635091bef560e01b81526001600160a01b0380831660048301528b166024820152604401610685565b610e648a8a8a610f7f565b50505050505050505050565b6001600160a01b03918216600090815260626020908152604080832093909416825291909152205490565b60006fffffffffffffffffffffffffffffffff81836001811115610ec157610ec1611eed565b14610ece57838116610ed6565b608084901c81165b949350505050565b6000610521610eeb610c8e565b15610efd57610ef8610c8e565b610f00565b60015b605d54604051634be9756960e11b81523060048201526001600160a01b03909116906397d2ead290602401602060405180830381865afa158015610f48573d6000803e3d6000fd5b505050506040513d601f19601f82011682018060405250810190610f6c9190611ed4565b610f769190611f58565b839060016114e3565b6001600160a01b0383161580610f9c57506001600160a01b038216155b15610fcd57604051637db368a160e01b81526001600160a01b03808516600483015283166024820152604401610685565b6001600160a01b0383811660008181526062602090815260408083209487168084529482529182902085905590518481527f8c5be1e5ebec7d5bd14f71427d1e84f3dd0314c0f7b2291e5b200ac8c7c3b925910160405180910390a3505050565b600061052161103b610c8e565b605d54604051634be9756960e11b81526001600160a01b0390911660048201819052906397d2ead290602401602060405180830381865afa158015611084573d6000803e3d6000fd5b505050506040513d601f19601f820116820180604052508101906110a89190611ed4565b849190611501565b605d5460405163b0ff97b560e01b81523060048201526024810184905282151560448201526001600160a01b039091169063b0ff97b590606401600060405180830381600087803b15801561110457600080fd5b505af1158015611118573d6000803e3d6000fd5b505050505050565b605f546000906111309082610e9b565b9050600061114a6001605f54610e9b90919063ffffffff16565b9050821561115d57908401908301611166565b90849003908390035b61117482608083901b6120a2565b605f555050505050565b600061118a8284611f58565b9392505050565b602854610100900460ff166111b85760405162461bcd60e51b8152600401610685906120b5565b6111c28282611527565b5050565b60006111d28484610e70565b9050600019811461120e5781811015611201576040516306052b7f60e01b815260048101839052602401610685565b61120e8484848403610f7f565b50505050565b6001600160a01b038316158061123157506001600160a01b038216155b1561126257604051637db368a160e01b81526001600160a01b03808516600483015283166024820152604401610685565b600061126d8261053d565b6001600160a01b038516600090815260606020526040902054909150818110156112c3576040516315c29bad60e31b81526001600160a01b03861660048201526024810182905260448101839052606401610685565b6001600160a01b0380861660008181526060602052604080822086860390559287168082529083902080548601905591517fddf252ad1be2c89b69c2b068fc378daa952ba7f163c4a11628f55a4df523b3ef906113239087815260200190565b60405180910390a35050505050565b600061047f7f8b73c3c69bb8fe3d512ecc4cf759cc79239f7b179b0ffacaa9a75d522b39400f61136160295490565b602a546040805160208101859052908101839052606081018290524660808201523060a082015260009060c0016040516020818303038152906040528051906020012090509392505050565b605d54604051634be9756960e11b8152306004820152600091610521916001600160a01b03909116906397d2ead290602401602060405180830381865afa1580156113fc573d6000803e3d6000fd5b505050506040513d601f19601f820116820180604052508101906114209190611ed4565b611428610994565b8491906114e3565b600061052161143d610c8e565b61142861046f565b6001600160a01b03811660009081526061602052604090208054600181018255905b50919050565b600061052161147a611332565b8360405161190160f01b6020820152602281018390526042810182905260009060620160405160208183030381529060405280519060200120905092915050565b60008060006114cc87878787611568565b915091506114d981611655565b5095945050505050565b60008260001904841183021582026114fa57600080fd5b5091020490565b600082600019048411830215820261151857600080fd5b50910281810615159190040190565b602854610100900460ff1661154e5760405162461bcd60e51b8152600401610685906120b5565b815160209283012081519190920120602991909155602a55565b6000807f7fffffffffffffffffffffffffffffff5d576e7357a4501ddfe92f46681b20a083111561159f575060009050600361164c565b8460ff16601b141580156115b757508460ff16601c14155b156115c8575060009050600461164c565b6040805160008082526020820180845289905260ff881692820192909252606081018690526080810185905260019060a0016020604051602081039080840390855afa15801561161c573d6000803e3d6000fd5b5050604051601f1901519150506001600160a01b0381166116455760006001925092505061164c565b9150600090505b94509492505050565b600081600481111561166957611669611eed565b036116715750565b600181600481111561168557611685611eed565b036116d25760405162461bcd60e51b815260206004820152601860248201527f45434453413a20696e76616c6964207369676e617475726500000000000000006044820152606401610685565b60028160048111156116e6576116e6611eed565b036117335760405162461bcd60e51b815260206004820152601f60248201527f45434453413a20696e76616c6964207369676e6174757265206c656e677468006044820152606401610685565b600381600481111561174757611747611eed565b0361179f5760405162461bcd60e51b815260206004820152602260248201527f45434453413a20696e76616c6964207369676e6174757265202773272076616c604482015261756560f01b6064820152608401610685565b60048160048111156117b3576117b3611eed565b036103665760405162461bcd60e51b815260206004820152602260248201527f45434453413a20696e76616c6964207369676e6174757265202776272076616c604482015261756560f01b6064820152608401610685565b6001600160a01b038116811461036657600080fd5b60006020828403121561183257600080fd5b813561118a8161180b565b6000815180845260005b8181101561186357602081850181015186830182015201611847565b506000602082860101526020601f19601f83011685010191505092915050565b60208152600061118a602083018461183d565b6000602082840312156118a857600080fd5b5035919050565b600080604083850312156118c257600080fd5b82356118cd8161180b565b946020939093013593505050565b634e487b7160e01b600052604160045260246000fd5b601f8201601f1916810167ffffffffffffffff81118282101715611917576119176118db565b6040525050565b600067ffffffffffffffff831115611938576119386118db565b60405161194f601f8501601f1916602001826118f1565b80915083815284848401111561196457600080fd5b83836020830137600060208583010152509392505050565b6000806040838503121561198f57600080fd5b823567ffffffffffffffff8111156119a657600080fd5b8301601f810185136119b757600080fd5b6119c68582356020840161191e565b92505060208301356119d78161180b565b809150509250929050565b600082601f8301126119f357600080fd5b61118a8383356020850161191e565b60008060008060808587031215611a1857600080fd5b8435611a238161180b565b93506020850135611a338161180b565b9250604085013567ffffffffffffffff80821115611a5057600080fd5b611a5c888389016119e2565b93506060870135915080821115611a7257600080fd5b50611a7f878288016119e2565b91505092959194509250565b600080600060608486031215611aa057600080fd5b8335611aab8161180b565b92506020840135611abb8161180b565b929592945050506040919091013590565b60ff8116811461036657600080fd5b600080600080600080600060e0888a031215611af657600080fd5b8735611b018161180b565b96506020880135611b118161180b565b955060408801359450606088013593506080880135611b2f81611acc565b9699959850939692959460a0840135945060c09093013592915050565b60008060408385031215611b5f57600080fd5b8235611b6a8161180b565b915060208301356119d78161180b565b600181811c90821680611b8e57607f821691505b60208210810361146757634e487b7160e01b600052602260045260246000fd5b600082601f830112611bbf57600080fd5b8151602067ffffffffffffffff821115611bdb57611bdb6118db565b8160051b604051611bee838301826118f1565b92835284810182019282810187851115611c0757600080fd5b83870192505b84831015611c245782518152918301918301611c0d565b509695505050505050565b60008060408385031215611c4257600080fd5b825167ffffffffffffffff80821115611c5a57600080fd5b9084019060608287031215611c6e57600080fd5b604051606081018181108382111715611c8957611c896118db565b80604052508251815260208301516020820152604083015182811115611cae57600080fd5b611cba88828601611bae565b60408301525080945050505060208301516119d78161180b565b6001600160a01b0383168152604060208201819052600090610ed69083018461183d565b60008060408385031215611d0b57600080fd5b505080516020909101519092909150565b600060033d1115611d355760046000803e5060005160e01c5b90565b600060443d1015611d465790565b6040516003193d81016004833e81513d67ffffffffffffffff8160248401118184111715611d7657505050505090565b8285019150815181811115611d8e5750505050505090565b843d8701016020828501011115611da85750505050505090565b611db7602082860101876118f1565b509095945050505050565b60008060408385031215611dd557600080fd5b825167ffffffffffffffff80821115611ded57600080fd5b9084019060408287031215611e0157600080fd5b604051604081018181108382111715611e1c57611e1c6118db565b60405282518152602083015182811115611e3557600080fd5b611e4188828601611bae565b60208301525080945050505060208301516119d78161180b565b600060018060a01b0380861683526020818616818501526060604085015260a08401915084516060850152808501516040608086015282815180855260c0870191508383019450600092505b80831015611ec75784518252938301936001929092019190830190611ea7565b5098975050505050505050565b600060208284031215611ee657600080fd5b5051919050565b634e487b7160e01b600052602160045260246000fd5b6020810160028310611f2557634e487b7160e01b600052602160045260246000fd5b91905290565b634e487b7160e01b600052601160045260246000fd5b808202811582820484141761052157610521611f2b565b600082611f7557634e487b7160e01b600052601260045260246000fd5b500490565b601f821115611fc057600081815260208120601f850160051c81016020861015611fa15750805b601f850160051c820191505b8181101561111857828155600101611fad565b505050565b815167ffffffffffffffff811115611fdf57611fdf6118db565b611ff381611fed8454611b7a565b84611f7a565b602080601f83116001811461202857600084156120105750858301515b600019600386901b1c1916600185901b178555611118565b600085815260208120601f198616915b8281101561205757888601518255948401946001909101908401612038565b50858210156120755787850151600019600388901b60f8161c191681555b5050505050600190811b01905550565b60006020828403121561209757600080fd5b815161118a81611acc565b8082018082111561052157610521611f2b565b6020808252602b908201527f496e697469616c697a61626c653a20636f6e7472616374206973206e6f74206960408201526a6e697469616c697a696e6760a81b60608201526080019056fea264697066735822122003f8029376afd89c0c3af2dc8e64968badee35f084a6c1fdada716b1a2a555c764736f6c63430008150033",
    "linkReferences": {}
  },
  "methodIdentifiers": {
    "DOMAIN_SEPARATOR()": "3644e515",
    "FORMAT_DECIMALS()": "a01c8774",
    "allowance(address,address)": "dd62ed3e",
    "approve(address,uint256)": "095ea7b3",
    "asset()": "38d52e0f",
    "balanceOf(address)": "70a08231",
    "claimReward()": "b88a802f",
    "convertToAssets(uint256)": "07a2d13a",
    "convertToShares(uint256)": "c6e6f592",
    "convertToUnderlying(uint256)": "1dc7f521",
    "decimals()": "313ce567",
    "decreaseAllowance(address,uint256)": "a457c2d7",
    "earned(address)": "008cc262",
    "getRewardsData()": "7d098e64",
    "increaseAllowance(address,uint256)": "39509351",
    "initialize(address,address,string,string)": "2016a0d2",
    "lastTimeRewardApplicable()": "80faa57d",
    "mint(bytes,address)": "0cae37f1",
    "name()": "06fdde03",
    "nonces(address)": "7ecebe00",
    "notifyRewardAmount(uint256)": "3c6b16ab",
    "permit(address,address,uint256,uint256,uint8,bytes32,bytes32)": "d505accf",
    "previewMint(uint256)": "b3d7f6b9",
    "previewRedeem(uint256)": "4cdad506",
    "previewWithdraw(uint256)": "0a28a477",
    "redeem(bytes,address)": "0ba097d6",
    "rewardPerToken()": "cd3daf9d",
    "setRewardsDuration(uint256)": "cc1a378f",
    "sharesOf(address)": "f5eb42dc",
    "symbol()": "95d89b41",
    "totalAssets()": "01e1d114",
    "totalShares()": "3a98ef39",
    "totalSupply()": "18160ddd",
    "transfer(address,uint256)": "a9059cbb",
    "transferFrom(address,address,uint256)": "23b872dd"
  },
  "id": 43
}