{
  "abi": [
    {
      "inputs": [
        {
          "internalType": "string",
          "name": "name_",
          "type": "string"
        },
        {
          "internalType": "string",
          "name": "symbol_",
          "type": "string"
        },
        {
          "internalType": "address",
          "name": "underlying_",
          "type": "address"
        },
        {
          "internalType": "uint8",
          "name": "decimals_",
          "type": "uint8"
        },
        {
          "internalType": "address",
          "name": "diamond_",
          "type": "address"
        }
      ],
      "stateMutability": "nonpayable",
      "type": "constructor"
    },
    {
      "anonymous": false,
      "inputs": [
        {
          "indexed": true,
          "internalType": "address",
          "name": "owner",
          "type": "address"
        },
        {
          "indexed": true,
          "internalType": "address",
          "name": "spender",
          "type": "address"
        },
        {
          "indexed": false,
          "internalType": "uint256",
          "name": "value",
          "type": "uint256"
        }
      ],
      "name": "Approval",
      "type": "event"
    },
    {
      "anonymous": false,
      "inputs": [
        {
          "indexed": true,
          "internalType": "address",
          "name": "from",
          "type": "address"
        },
        {
          "indexed": true,
          "internalType": "address",
          "name": "to",
          "type": "address"
        },
        {
          "indexed": false,
          "internalType": "uint256",
          "name": "value",
          "type": "uint256"
        }
      ],
      "name": "Transfer",
      "type": "event"
    },
    {
      "inputs": [
        {
          "internalType": "address",
          "name": "owner",
          "type": "address"
        },
        {
          "internalType": "address",
          "name": "spender",
          "type": "address"
        }
      ],
      "name": "allowance",
      "outputs": [
        {
          "internalType": "uint256",
          "name": "",
          "type": "uint256"
        }
      ],
      "stateMutability": "view",
      "type": "function"
    },
    {
      "inputs": [
        {
          "internalType": "address",
          "name": "spender",
          "type": "address"
        },
        {
          "internalType": "uint256",
          "name": "amount",
          "type": "uint256"
        }
      ],
      "name": "approve",
      "outputs": [
        {
          "internalType": "bool",
          "name": "",
          "type": "bool"
        }
      ],
      "stateMutability": "nonpayable",
      "type": "function"
    },
    {
      "inputs": [
        {
          "internalType": "address",
          "name": "account",
          "type": "address"
        }
      ],
      "name": "balanceOf",
      "outputs": [
        {
          "internalType": "uint256",
          "name": "",
          "type": "uint256"
        }
      ],
      "stateMutability": "view",
      "type": "function"
    },
    {
      "inputs": [],
      "name": "decimals",
      "outputs": [
        {
          "internalType": "uint8",
          "name": "",
          "type": "uint8"
        }
      ],
      "stateMutability": "view",
      "type": "function"
    },
    {
      "inputs": [
        {
          "internalType": "address",
          "name": "spender",
          "type": "address"
        },
        {
          "internalType": "uint256",
          "name": "subtractedValue",
          "type": "uint256"
        }
      ],
      "name": "decreaseAllowance",
      "outputs": [
        {
          "internalType": "bool",
          "name": "",
          "type": "bool"
        }
      ],
      "stateMutability": "nonpayable",
      "type": "function"
    },
    {
      "inputs": [],
      "name": "getDiamond",
      "outputs": [
        {
          "internalType": "address",
          "name": "",
          "type": "address"
        }
      ],
      "stateMutability": "view",
      "type": "function"
    },
    {
      "inputs": [
        {
          "internalType": "address",
          "name": "spender",
          "type": "address"
        },
        {
          "internalType": "uint256",
          "name": "addedValue",
          "type": "uint256"
        }
      ],
      "name": "increaseAllowance",
      "outputs": [
        {
          "internalType": "bool",
          "name": "",
          "type": "bool"
        }
      ],
      "stateMutability": "nonpayable",
      "type": "function"
    },
    {
      "inputs": [
        {
          "internalType": "address",
          "name": "account_",
          "type": "address"
        }
      ],
      "name": "interestOf",
      "outputs": [
        {
          "internalType": "uint256",
          "name": "",
          "type": "uint256"
        }
      ],
      "stateMutability": "view",
      "type": "function"
    },
    {
      "inputs": [
        {
          "internalType": "uint256",
          "name": "amountIn_",
          "type": "uint256"
        },
        {
          "internalType": "uint256",
          "name": "minAmountOut_",
          "type": "uint256"
        }
      ],
      "name": "mint",
      "outputs": [],
      "stateMutability": "nonpayable",
      "type": "function"
    },
    {
      "inputs": [],
      "name": "name",
      "outputs": [
        {
          "internalType": "string",
          "name": "",
          "type": "string"
        }
      ],
      "stateMutability": "view",
      "type": "function"
    },
    {
      "inputs": [],
      "name": "symbol",
      "outputs": [
        {
          "internalType": "string",
          "name": "",
          "type": "string"
        }
      ],
      "stateMutability": "view",
      "type": "function"
    },
    {
      "inputs": [
        {
          "internalType": "address",
          "name": "account_",
          "type": "address"
        }
      ],
      "name": "totalBalanceOf",
      "outputs": [
        {
          "internalType": "uint256",
          "name": "",
          "type": "uint256"
        }
      ],
      "stateMutability": "view",
      "type": "function"
    },
    {
      "inputs": [],
      "name": "totalSupply",
      "outputs": [
        {
          "internalType": "uint256",
          "name": "",
          "type": "uint256"
        }
      ],
      "stateMutability": "view",
      "type": "function"
    },
    {
      "inputs": [
        {
          "internalType": "address",
          "name": "to",
          "type": "address"
        },
        {
          "internalType": "uint256",
          "name": "amount",
          "type": "uint256"
        }
      ],
      "name": "transfer",
      "outputs": [
        {
          "internalType": "bool",
          "name": "",
          "type": "bool"
        }
      ],
      "stateMutability": "nonpayable",
      "type": "function"
    },
    {
      "inputs": [
        {
          "internalType": "address",
          "name": "from",
          "type": "address"
        },
        {
          "internalType": "address",
          "name": "to",
          "type": "address"
        },
        {
          "internalType": "uint256",
          "name": "amount",
          "type": "uint256"
        }
      ],
      "name": "transferFrom",
      "outputs": [
        {
          "internalType": "bool",
          "name": "",
          "type": "bool"
        }
      ],
      "stateMutability": "nonpayable",
      "type": "function"
    },
    {
      "inputs": [],
      "name": "underlying",
      "outputs": [
        {
          "internalType": "address",
          "name": "",
          "type": "address"
        }
      ],
      "stateMutability": "view",
      "type": "function"
    }
  ],
  "bytecode": {
    "object": "0x60c06040523480156200001157600080fd5b50604051620012d7380380620012d7833981016040819052620000349162000164565b60036200004286826200029c565b5060046200005185826200029c565b506001600160a01b039283166080526005805460ff191660ff93909316929092179091551660a05250620003689050565b634e487b7160e01b600052604160045260246000fd5b600082601f830112620000aa57600080fd5b81516001600160401b0380821115620000c757620000c762000082565b604051601f8301601f19908116603f01168101908282118183101715620000f257620000f262000082565b816040528381526020925086838588010111156200010f57600080fd5b600091505b8382101562000133578582018301518183018401529082019062000114565b600093810190920192909252949350505050565b80516001600160a01b03811681146200015f57600080fd5b919050565b600080600080600060a086880312156200017d57600080fd5b85516001600160401b03808211156200019557600080fd5b620001a389838a0162000098565b96506020880151915080821115620001ba57600080fd5b50620001c98882890162000098565b945050620001da6040870162000147565b9250606086015160ff81168114620001f157600080fd5b9150620002016080870162000147565b90509295509295909350565b600181811c908216806200022257607f821691505b6020821081036200024357634e487b7160e01b600052602260045260246000fd5b50919050565b601f8211156200029757600081815260208120601f850160051c81016020861015620002725750805b601f850160051c820191505b8181101562000293578281556001016200027e565b5050505b505050565b81516001600160401b03811115620002b857620002b862000082565b620002d081620002c984546200020d565b8462000249565b602080601f831160018114620003085760008415620002ef5750858301515b600019600386901b1c1916600185901b17855562000293565b600085815260208120601f198616915b82811015620003395788860151825594840194600190910190840162000318565b5085821015620003585787850151600019600388901b60f8161c191681555b5050505050600190811b01905550565b60805160a051610f34620003a3600039600081816102380152818161035f01526103b00152600081816101bd01526103300152610f346000f3fe608060405234801561001057600080fd5b50600436106101005760003560e01c80636f307dc311610097578063a9059cbb11610066578063a9059cbb14610223578063d7b8b95b14610236578063d8e8b1771461025c578063dd62ed3e1461026f57600080fd5b80636f307dc3146101bb57806370a08231146101f557806395d89b4114610208578063a457c2d71461021057600080fd5b806323b872dd116100d357806323b872dd1461016d578063313ce5671461018057806339509351146101955780634b0ee02a146101a857600080fd5b806306fdde0314610105578063095ea7b31461012357806318160ddd146101465780631b2ef1ca14610158575b600080fd5b61010d610282565b60405161011a9190610cea565b60405180910390f35b610136610131366004610d39565b610314565b604051901515815260200161011a565b6002545b60405190815260200161011a565b61016b610166366004610d63565b61032e565b005b61013661017b366004610d85565b610411565b60055460405160ff909116815260200161011a565b6101366101a3366004610d39565b610437565b61014a6101b6366004610dc1565b610459565b7f00000000000000000000000000000000000000000000000000000000000000005b6040516001600160a01b03909116815260200161011a565b61014a610203366004610dc1565b6104aa565b61010d6104b4565b61013661021e366004610d39565b6104c3565b610136610231366004610d39565b61054e565b7f00000000000000000000000000000000000000000000000000000000000000006101dd565b61014a61026a366004610dc1565b61055c565b61014a61027d366004610ddc565b610567565b60606003805461029190610e0f565b80601f01602080910402602001604051908101604052809291908181526020018280546102bd90610e0f565b801561030a5780601f106102df5761010080835404028352916020019161030a565b820191906000526020600020905b8154815290600101906020018083116102ed57829003601f168201915b5050505050905090565b6000336103228185856105b1565b60019150505b92915050565b7f00000000000000000000000000000000000000000000000000000000000000006103846001600160a01b038216337f0000000000000000000000000000000000000000000000000000000000000000866106f5565b604051632029576960e21b8152600481018390526001600160a01b0382811660248301523360448301527f000000000000000000000000000000000000000000000000000000000000000016906380a55da490606401600060405180830381600087803b1580156103f457600080fd5b505af1158015610408573d6000803e3d6000fd5b50505050505050565b60003361041f8582856107ff565b61042a858585610879565b60019150505b9392505050565b60003361032281858561044a8383610567565b6104549190610e49565b6105b1565b6000808060025b600281111561047157610471610e6a565b81526020019081526020016000206000836001600160a01b03166001600160a01b03168152602001908152602001600020549050919050565b6000808080610460565b60606004805461029190610e0f565b600033816104d18286610567565b9050838110156105365760405162461bcd60e51b815260206004820152602560248201527f45524332303a2064656372656173656420616c6c6f77616e63652062656c6f77604482015264207a65726f60d81b60648201526084015b60405180910390fd5b61054382868684036105b1565b506001949350505050565b600033610322818585610879565b600080806001610460565b6001600160a01b0391821660009081527fa6eef7e35abe7026729641147f7915573c7e97b47efa546f5f6e3230263bcb496020908152604080832093909416825291909152205490565b6001600160a01b0383166106135760405162461bcd60e51b8152602060048201526024808201527f45524332303a20617070726f76652066726f6d20746865207a65726f206164646044820152637265737360e01b606482015260840161052d565b6001600160a01b0382166106745760405162461bcd60e51b815260206004820152602260248201527f45524332303a20617070726f766520746f20746865207a65726f206164647265604482015261737360f01b606482015260840161052d565b6001600160a01b0383811660008181527fa6eef7e35abe7026729641147f7915573c7e97b47efa546f5f6e3230263bcb496020908152604080832094871680845294825291829020859055815185815291517f8c5be1e5ebec7d5bd14f71427d1e84f3dd0314c0f7b2291e5b200ac8c7c3b9259281900390910190a3505050565b604080516001600160a01b0385811660248301528481166044830152606480830185905283518084039091018152608490920183526020820180516001600160e01b03166323b872dd60e01b17905291516000928392908816916107599190610e80565b6000604051808303816000865af19150503d8060008114610796576040519150601f19603f3d011682016040523d82523d6000602084013e61079b565b606091505b50915091508180156107c55750805115806107c55750808060200190518101906107c59190610e9c565b6107f75760405162461bcd60e51b815260206004820152600360248201526229aa2360e91b604482015260640161052d565b505050505050565b600061080b8484610567565b9050600019811461087357818110156108665760405162461bcd60e51b815260206004820152601d60248201527f45524332303a20696e73756666696369656e7420616c6c6f77616e6365000000604482015260640161052d565b61087384848484036105b1565b50505050565b6001600160a01b0383166108dd5760405162461bcd60e51b815260206004820152602560248201527f45524332303a207472616e736665722066726f6d20746865207a65726f206164604482015264647265737360d81b606482015260840161052d565b6001600160a01b03821661093f5760405162461bcd60e51b815260206004820152602360248201527f45524332303a207472616e7366657220746f20746865207a65726f206164647260448201526265737360e81b606482015260840161052d565b6001600160a01b0383166000908152600080516020610edf8339815191526020526040902054818110156109c45760405162461bcd60e51b815260206004820152602660248201527f45524332303a207472616e7366657220616d6f756e7420657863656564732062604482015265616c616e636560d01b606482015260840161052d565b6001600160a01b038481166000908152600080516020610edf833981519152602052604080822085850390559185168152908120805484019055610a088584610a95565b6001600160a01b0386166000908152600080516020610ebf833981519152602052604090208054829003820190559050610a428585610b17565b50826001600160a01b0316846001600160a01b03167fddf252ad1be2c89b69c2b068fc378daa952ba7f163c4a11628f55a4df523b3ef84604051610a8891815260200190565b60405180910390a3610873565b6001600160a01b0382166000908152600080516020610edf833981519152602052604081205481610ad08468056bc75e2d6310000084610c17565b6001600160a01b0386166000908152600080516020610ebf8339815191526020526040902054909150610b0d828268056bc75e2d63100000610c17565b9695505050505050565b6001600160a01b0382166000908152600080516020610ebf8339815191526020908152604080832054600080516020610edf83398151915290925290912054610b609190610e49565b6001600160a01b0383811660009081527fabbb5caa7dda850e60932de0934eb1f9d0f59695050f761dc64e443e5030a56960209081526040808320949094559184168152600080516020610ebf833981519152825282812054600080516020610edf8339815191529092529190912054610bda9190610e49565b6001600160a01b039190911660009081527fabbb5caa7dda850e60932de0934eb1f9d0f59695050f761dc64e443e5030a569602052604090205550565b60008383026000198486098181108201900380610c4c5783610c415763ae47f7026000526004601cfd5b508290049050610430565b808411610c615763ae47f7026000526004601cfd5b838587096000858103861695869004956003870260029081188089028203028089028203028089028203028089028203028089028203028089029091030291819003819004600101858411909403939093029190930391909104170290509392505050565b60005b83811015610ce1578181015183820152602001610cc9565b50506000910152565b6020815260008251806020840152610d09816040850160208701610cc6565b601f01601f19169190910160400192915050565b80356001600160a01b0381168114610d3457600080fd5b919050565b60008060408385031215610d4c57600080fd5b610d5583610d1d565b946020939093013593505050565b60008060408385031215610d7657600080fd5b50508035926020909101359150565b600080600060608486031215610d9a57600080fd5b610da384610d1d565b9250610db160208501610d1d565b9150604084013590509250925092565b600060208284031215610dd357600080fd5b61043082610d1d565b60008060408385031215610def57600080fd5b610df883610d1d565b9150610e0660208401610d1d565b90509250929050565b600181811c90821680610e2357607f821691505b602082108103610e4357634e487b7160e01b600052602260045260246000fd5b50919050565b8082018082111561032857634e487b7160e01b600052601160045260246000fd5b634e487b7160e01b600052602160045260246000fd5b60008251610e92818460208701610cc6565b9190910192915050565b600060208284031215610eae57600080fd5b8151801515811461043057600080fdfeada5013122d395ba3c54772283fb069b10426056ef8ca54750cb9bb552a59e7dad3228b676f7d3cd4284a5443f17f1962b36e491b30a40b2405849e597ba5fb5a2646970667358221220308a678122ec9688661b8c60b8f91ce73deb27e656f90c88d5613f19e3b8088064736f6c63430008150033",
    "linkReferences": {}
  },
  "methodIdentifiers": {
    "allowance(address,address)": "dd62ed3e",
    "approve(address,uint256)": "095ea7b3",
    "balanceOf(address)": "70a08231",
    "decimals()": "313ce567",
    "decreaseAllowance(address,uint256)": "a457c2d7",
    "getDiamond()": "d7b8b95b",
    "increaseAllowance(address,uint256)": "39509351",
    "interestOf(address)": "d8e8b177",
    "mint(uint256,uint256)": "1b2ef1ca",
    "name()": "06fdde03",
    "symbol()": "95d89b41",
    "totalBalanceOf(address)": "4b0ee02a",
    "totalSupply()": "18160ddd",
    "transfer(address,uint256)": "a9059cbb",
    "transferFrom(address,address,uint256)": "23b872dd",
    "underlying()": "6f307dc3"
  },
  "id": 20
}