{
  "abi": [
    {
      "inputs": [],
      "stateMutability": "nonpayable",
      "type": "constructor"
    },
    {
      "inputs": [],
      "name": "OZError03",
      "type": "error"
    },
    {
      "inputs": [
        {
          "internalType": "address",
          "name": "from",
          "type": "address"
        },
        {
          "internalType": "address",
          "name": "to",
          "type": "address"
        }
      ],
      "name": "OZError04",
      "type": "error"
    },
    {
      "inputs": [
        {
          "internalType": "uint256",
          "name": "amount",
          "type": "uint256"
        }
      ],
      "name": "OZError05",
      "type": "error"
    },
    {
      "inputs": [
        {
          "internalType": "address",
          "name": "sender",
          "type": "address"
        },
        {
          "internalType": "uint256",
          "name": "accountShares",
          "type": "uint256"
        },
        {
          "internalType": "uint256",
          "name": "shares",
          "type": "uint256"
        }
      ],
      "name": "OZError06",
      "type": "error"
    },
    {
      "inputs": [
        {
          "internalType": "address",
          "name": "from",
          "type": "address"
        },
        {
          "internalType": "uint256",
          "name": "fromShares",
          "type": "uint256"
        },
        {
          "internalType": "uint256",
          "name": "shares",
          "type": "uint256"
        }
      ],
      "name": "OZError07",
      "type": "error"
    },
    {
      "inputs": [
        {
          "internalType": "uint256",
          "name": "deadline",
          "type": "uint256"
        },
        {
          "internalType": "uint256",
          "name": "blockTimestamp",
          "type": "uint256"
        }
      ],
      "name": "OZError08",
      "type": "error"
    },
    {
      "inputs": [
        {
          "internalType": "address",
          "name": "owner",
          "type": "address"
        },
        {
          "internalType": "address",
          "name": "spender",
          "type": "address"
        }
      ],
      "name": "OZError09",
      "type": "error"
    },
    {
      "anonymous": false,
      "inputs": [
        {
          "indexed": true,
          "internalType": "address",
          "name": "owner",
          "type": "address"
        },
        {
          "indexed": true,
          "internalType": "address",
          "name": "spender",
          "type": "address"
        },
        {
          "indexed": false,
          "internalType": "uint256",
          "name": "value",
          "type": "uint256"
        }
      ],
      "name": "Approval",
      "type": "event"
    },
    {
      "anonymous": false,
      "inputs": [
        {
          "indexed": false,
          "internalType": "uint8",
          "name": "version",
          "type": "uint8"
        }
      ],
      "name": "Initialized",
      "type": "event"
    },
    {
      "anonymous": false,
      "inputs": [
        {
          "indexed": true,
          "internalType": "address",
          "name": "from",
          "type": "address"
        },
        {
          "indexed": true,
          "internalType": "address",
          "name": "to",
          "type": "address"
        },
        {
          "indexed": false,
          "internalType": "uint256",
          "name": "value",
          "type": "uint256"
        }
      ],
      "name": "Transfer",
      "type": "event"
    },
    {
      "inputs": [],
      "name": "DOMAIN_SEPARATOR",
      "outputs": [
        {
          "internalType": "bytes32",
          "name": "",
          "type": "bytes32"
        }
      ],
      "stateMutability": "view",
      "type": "function"
    },
    {
      "inputs": [],
      "name": "FORMAT_DECIMALS",
      "outputs": [
        {
          "internalType": "uint256",
          "name": "",
          "type": "uint256"
        }
      ],
      "stateMutability": "view",
      "type": "function"
    },
    {
      "inputs": [
        {
          "internalType": "address",
          "name": "owner",
          "type": "address"
        },
        {
          "internalType": "address",
          "name": "spender",
          "type": "address"
        }
      ],
      "name": "allowance",
      "outputs": [
        {
          "internalType": "uint256",
          "name": "",
          "type": "uint256"
        }
      ],
      "stateMutability": "view",
      "type": "function"
    },
    {
      "inputs": [
        {
          "internalType": "address",
          "name": "spender",
          "type": "address"
        },
        {
          "internalType": "uint256",
          "name": "amount",
          "type": "uint256"
        }
      ],
      "name": "approve",
      "outputs": [
        {
          "internalType": "bool",
          "name": "",
          "type": "bool"
        }
      ],
      "stateMutability": "nonpayable",
      "type": "function"
    },
    {
      "inputs": [],
      "name": "asset",
      "outputs": [
        {
          "internalType": "address",
          "name": "",
          "type": "address"
        }
      ],
      "stateMutability": "view",
      "type": "function"
    },
    {
      "inputs": [
        {
          "internalType": "address",
          "name": "account_",
          "type": "address"
        }
      ],
      "name": "balanceOf",
      "outputs": [
        {
          "internalType": "uint256",
          "name": "",
          "type": "uint256"
        }
      ],
      "stateMutability": "view",
      "type": "function"
    },
    {
      "inputs": [],
      "name": "claimReward",
      "outputs": [
        {
          "internalType": "uint256",
          "name": "",
          "type": "uint256"
        }
      ],
      "stateMutability": "nonpayable",
      "type": "function"
    },
    {
      "inputs": [
        {
          "internalType": "uint256",
          "name": "shares",
          "type": "uint256"
        }
      ],
      "name": "convertToAssets",
      "outputs": [
        {
          "internalType": "uint256",
          "name": "assets",
          "type": "uint256"
        }
      ],
      "stateMutability": "view",
      "type": "function"
    },
    {
      "inputs": [
        {
          "internalType": "uint256",
          "name": "assets",
          "type": "uint256"
        }
      ],
      "name": "convertToShares",
      "outputs": [
        {
          "internalType": "uint256",
          "name": "shares",
          "type": "uint256"
        }
      ],
      "stateMutability": "view",
      "type": "function"
    },
    {
      "inputs": [
        {
          "internalType": "uint256",
          "name": "shares_",
          "type": "uint256"
        }
      ],
      "name": "convertToUnderlying",
      "outputs": [
        {
          "internalType": "uint256",
          "name": "amountUnderlying",
          "type": "uint256"
        }
      ],
      "stateMutability": "view",
      "type": "function"
    },
    {
      "inputs": [],
      "name": "decimals",
      "outputs": [
        {
          "internalType": "uint8",
          "name": "",
          "type": "uint8"
        }
      ],
      "stateMutability": "pure",
      "type": "function"
    },
    {
      "inputs": [
        {
          "internalType": "address",
          "name": "spender",
          "type": "address"
        },
        {
          "internalType": "uint256",
          "name": "subtractedValue",
          "type": "uint256"
        }
      ],
      "name": "decreaseAllowance",
      "outputs": [
        {
          "internalType": "bool",
          "name": "",
          "type": "bool"
        }
      ],
      "stateMutability": "nonpayable",
      "type": "function"
    },
    {
      "inputs": [
        {
          "internalType": "address",
          "name": "user_",
          "type": "address"
        }
      ],
      "name": "earned",
      "outputs": [
        {
          "internalType": "uint256",
          "name": "",
          "type": "uint256"
        }
      ],
      "stateMutability": "view",
      "type": "function"
    },
    {
      "inputs": [],
      "name": "getCirculatingSupply",
      "outputs": [
        {
          "internalType": "uint256",
          "name": "",
          "type": "uint256"
        }
      ],
      "stateMutability": "view",
      "type": "function"
    },
    {
      "inputs": [],
      "name": "getRecicledSupply",
      "outputs": [
        {
          "internalType": "uint256",
          "name": "",
          "type": "uint256"
        }
      ],
      "stateMutability": "view",
      "type": "function"
    },
    {
      "inputs": [],
      "name": "getRewardRate",
      "outputs": [
        {
          "internalType": "uint256",
          "name": "",
          "type": "uint256"
        }
      ],
      "stateMutability": "view",
      "type": "function"
    },
    {
      "inputs": [
        {
          "internalType": "address",
          "name": "spender",
          "type": "address"
        },
        {
          "internalType": "uint256",
          "name": "addedValue",
          "type": "uint256"
        }
      ],
      "name": "increaseAllowance",
      "outputs": [
        {
          "internalType": "bool",
          "name": "",
          "type": "bool"
        }
      ],
      "stateMutability": "nonpayable",
      "type": "function"
    },
    {
      "inputs": [
        {
          "internalType": "address",
          "name": "underlying_",
          "type": "address"
        },
        {
          "internalType": "address",
          "name": "diamond_",
          "type": "address"
        },
        {
          "internalType": "string",
          "name": "name_",
          "type": "string"
        },
        {
          "internalType": "string",
          "name": "symbol_",
          "type": "string"
        }
      ],
      "name": "initialize",
      "outputs": [],
      "stateMutability": "nonpayable",
      "type": "function"
    },
    {
      "inputs": [],
      "name": "lastTimeRewardApplicable",
      "outputs": [
        {
          "internalType": "uint256",
          "name": "",
          "type": "uint256"
        }
      ],
      "stateMutability": "view",
      "type": "function"
    },
    {
      "inputs": [
        {
          "internalType": "bytes",
          "name": "data_",
          "type": "bytes"
        }
      ],
      "name": "mint",
      "outputs": [
        {
          "internalType": "uint256",
          "name": "",
          "type": "uint256"
        }
      ],
      "stateMutability": "nonpayable",
      "type": "function"
    },
    {
      "inputs": [],
      "name": "name",
      "outputs": [
        {
          "internalType": "string",
          "name": "",
          "type": "string"
        }
      ],
      "stateMutability": "view",
      "type": "function"
    },
    {
      "inputs": [
        {
          "internalType": "address",
          "name": "owner",
          "type": "address"
        }
      ],
      "name": "nonces",
      "outputs": [
        {
          "internalType": "uint256",
          "name": "",
          "type": "uint256"
        }
      ],
      "stateMutability": "view",
      "type": "function"
    },
    {
      "inputs": [
        {
          "internalType": "uint256",
          "name": "amount_",
          "type": "uint256"
        }
      ],
      "name": "notifyRewardAmount",
      "outputs": [],
      "stateMutability": "nonpayable",
      "type": "function"
    },
    {
      "inputs": [
        {
          "internalType": "address",
          "name": "owner",
          "type": "address"
        },
        {
          "internalType": "address",
          "name": "spender",
          "type": "address"
        },
        {
          "internalType": "uint256",
          "name": "value",
          "type": "uint256"
        },
        {
          "internalType": "uint256",
          "name": "deadline",
          "type": "uint256"
        },
        {
          "internalType": "uint8",
          "name": "v",
          "type": "uint8"
        },
        {
          "internalType": "bytes32",
          "name": "r",
          "type": "bytes32"
        },
        {
          "internalType": "bytes32",
          "name": "s_",
          "type": "bytes32"
        }
      ],
      "name": "permit",
      "outputs": [],
      "stateMutability": "nonpayable",
      "type": "function"
    },
    {
      "inputs": [
        {
          "internalType": "uint256",
          "name": "assets_",
          "type": "uint256"
        }
      ],
      "name": "previewMint",
      "outputs": [
        {
          "internalType": "uint256",
          "name": "",
          "type": "uint256"
        }
      ],
      "stateMutability": "view",
      "type": "function"
    },
    {
      "inputs": [
        {
          "internalType": "uint256",
          "name": "shares_",
          "type": "uint256"
        }
      ],
      "name": "previewRedeem",
      "outputs": [
        {
          "internalType": "uint256",
          "name": "",
          "type": "uint256"
        }
      ],
      "stateMutability": "view",
      "type": "function"
    },
    {
      "inputs": [
        {
          "internalType": "uint256",
          "name": "assets",
          "type": "uint256"
        }
      ],
      "name": "previewWithdraw",
      "outputs": [
        {
          "internalType": "uint256",
          "name": "",
          "type": "uint256"
        }
      ],
      "stateMutability": "view",
      "type": "function"
    },
    {
      "inputs": [
        {
          "internalType": "bytes",
          "name": "data_",
          "type": "bytes"
        }
      ],
      "name": "redeem",
      "outputs": [
        {
          "internalType": "uint256",
          "name": "",
          "type": "uint256"
        }
      ],
      "stateMutability": "nonpayable",
      "type": "function"
    },
    {
      "inputs": [],
      "name": "rewardPerToken",
      "outputs": [
        {
          "internalType": "uint256",
          "name": "",
          "type": "uint256"
        }
      ],
      "stateMutability": "view",
      "type": "function"
    },
    {
      "inputs": [
        {
          "internalType": "uint256",
          "name": "duration_",
          "type": "uint256"
        }
      ],
      "name": "setRewardsDuration",
      "outputs": [],
      "stateMutability": "nonpayable",
      "type": "function"
    },
    {
      "inputs": [
        {
          "internalType": "address",
          "name": "account_",
          "type": "address"
        }
      ],
      "name": "sharesOf",
      "outputs": [
        {
          "internalType": "uint256",
          "name": "",
          "type": "uint256"
        }
      ],
      "stateMutability": "view",
      "type": "function"
    },
    {
      "inputs": [],
      "name": "symbol",
      "outputs": [
        {
          "internalType": "string",
          "name": "",
          "type": "string"
        }
      ],
      "stateMutability": "view",
      "type": "function"
    },
    {
      "inputs": [],
      "name": "totalAssets",
      "outputs": [
        {
          "internalType": "uint256",
          "name": "",
          "type": "uint256"
        }
      ],
      "stateMutability": "view",
      "type": "function"
    },
    {
      "inputs": [],
      "name": "totalShares",
      "outputs": [
        {
          "internalType": "uint256",
          "name": "",
          "type": "uint256"
        }
      ],
      "stateMutability": "view",
      "type": "function"
    },
    {
      "inputs": [],
      "name": "totalSupply",
      "outputs": [
        {
          "internalType": "uint256",
          "name": "",
          "type": "uint256"
        }
      ],
      "stateMutability": "view",
      "type": "function"
    },
    {
      "inputs": [
        {
          "internalType": "address",
          "name": "to",
          "type": "address"
        },
        {
          "internalType": "uint256",
          "name": "amount",
          "type": "uint256"
        }
      ],
      "name": "transfer",
      "outputs": [
        {
          "internalType": "bool",
          "name": "",
          "type": "bool"
        }
      ],
      "stateMutability": "nonpayable",
      "type": "function"
    },
    {
      "inputs": [
        {
          "internalType": "address",
          "name": "from",
          "type": "address"
        },
        {
          "internalType": "address",
          "name": "to",
          "type": "address"
        },
        {
          "internalType": "uint256",
          "name": "amount",
          "type": "uint256"
        }
      ],
      "name": "transferFrom",
      "outputs": [
        {
          "internalType": "bool",
          "name": "",
          "type": "bool"
        }
      ],
      "stateMutability": "nonpayable",
      "type": "function"
    }
  ],
  "bytecode": {
    "object": "0x608060405234801561001057600080fd5b5061001961001e565b6100de565b602454610100900460ff161561008a5760405162461bcd60e51b815260206004820152602760248201527f496e697469616c697a61626c653a20636f6e747261637420697320696e697469604482015266616c697a696e6760c81b606482015260840160405180910390fd5b60245460ff90811610156100dc576024805460ff191660ff9081179091556040519081527f7f26b83ff96e1f2b6a682f133852f6798a09c465da95921460cefb38474024989060200160405180910390a15b565b6121de80620000ee6000396000f3fe608060405234801561001057600080fd5b50600436106102265760003560e01c80636a533a4c11610130578063a457c2d7116100b8578063cc1a378f1161007c578063cc1a378f1461034f578063cd3daf9d146102fb578063d505accf14610409578063dd62ed3e1461041c578063f5eb42dc1461042f57600080fd5b8063a457c2d7146103d0578063a9059cbb146103e3578063b3d7f6b9146103f6578063b88a802f146102fb578063c6e6f592146102a557600080fd5b80637ecebe00116100ff5780637ecebe001461039957806380faa57d146102fb57806395d89b41146103ac5780639945e3d3146103b4578063a01c8774146103c757600080fd5b80636a533a4c146102fb57806370a08231146103735780637ba0e2e7146103865780637e1a3786146102fb57600080fd5b806323b872dd116101b357806338d52e0f1161018257806338d52e0f1461031957806339509351146103345780633a98ef39146103475780633c6b16ab1461034f5780634cdad5061461036057600080fd5b806323b872dd146102e85780632b112e49146102fb578063313ce567146103025780633644e5151461031157600080fd5b8063095ea7b3116101fa578063095ea7b3146102825780630a28a477146102a557806318160ddd146102b85780631dc7f521146102c05780632016a0d2146102d357600080fd5b80628cc2621461022b57806301e1d1141461025257806306fdde031461025a57806307a2d13a1461026f575b600080fd5b61023f61023936600461199e565b50600090565b6040519081526020015b60405180910390f35b61023f610458565b61026261046d565b6040516102499190611a01565b61023f61027d366004611a14565b6104ff565b610295610290366004611a2d565b610510565b6040519015158152602001610249565b61023f6102b3366004611a14565b610526565b61023f610531565b61023f6102ce366004611a14565b610550565b6102e66102e1366004611b41565b6105e0565b005b6102956102f6366004611bca565b6107e3565b600061023f565b60405160128152602001610249565b61023f610805565b605a546040516001600160a01b039091168152602001610249565b610295610342366004611a2d565b61080f565b61023f610830565b6102e661035d366004611a14565b50565b61023f61036e366004611a14565b610841565b61023f61038136600461199e565b61084c565b61023f610394366004611c0b565b61086e565b61023f6103a736600461199e565b610a68565b610262610a86565b61023f6103c2366004611c0b565b610a94565b61023f60615481565b6102956103de366004611a2d565b610c6c565b6102956103f1366004611a2d565b610ca9565b61023f610404366004611a14565b610cb6565b6102e6610417366004611c63565b610cc1565b61023f61042a366004611cd4565b610de3565b61023f61043d36600461199e565b6001600160a01b03166000908152605c602052604090205490565b605b546000906104689082610e0e565b905090565b6060605f805461047c90611d0d565b80601f01602080910402602001604051908101604052809291908181526020018280546104a890611d0d565b80156104f55780601f106104ca576101008083540402835291602001916104f5565b820191906000526020600020905b8154815290600101906020018083116104d857829003601f168201915b5050505050905090565b600061050a82610e51565b92915050565b600061051d33848461107e565b50600192915050565b600061050a8261112d565b600061053b610830565b156102395761046861054b610830565b610e51565b600061055a610830565b60595460405163a4fc284b60e01b81526001600160a01b039091169063a4fc284b9061058b90600190600401611d57565b602060405180830381865afa1580156105a8573d6000803e3d6000fd5b505050506040513d601f19601f820116820180604052508101906105cc9190611d7f565b6105d69084611dae565b61050a9190611dc5565b602454610100900460ff16158080156106005750602454600160ff909116105b8061061a5750303b15801561061a575060245460ff166001145b6106825760405162461bcd60e51b815260206004820152602e60248201527f496e697469616c697a61626c653a20636f6e747261637420697320616c72656160448201526d191e481a5b9a5d1a585b1a5e995960921b60648201526084015b60405180910390fd5b6024805460ff1916600117905580156106a5576024805461ff0019166101001790555b605f6106b18482611e36565b5060606106be8382611e36565b50605980546001600160a01b038087166001600160a01b031992831617909255605a8054928816929091169190911790556040805180820190915260018152603160f81b60208201526107129084906111af565b846001600160a01b031663313ce5676040518163ffffffff1660e01b8152600401602060405180830381865afa158015610750573d6000803e3d6000fd5b505050506040513d601f19601f820116820180604052508101906107749190611ef6565b60ff1660121461078557600161078c565b64e8d4a510005b64ffffffffff1660615580156107dc576024805461ff0019169055604051600181527f7f26b83ff96e1f2b6a682f133852f6798a09c465da95921460cefb38474024989060200160405180910390a15b5050505050565b60006107f08433846111e4565b6107fb848484611232565b5060019392505050565b6000610468611350565b600061051d3384846108213388610de3565b61082b9190611f13565b61107e565b605b54600090610468906001610e0e565b600061050a826113cb565b6001600160a01b0381166000908152605c602052604081205461050a906104ff565b60595460009033906001600160a01b031681156108e557604051635ac4aacd60e11b81526001600160a01b03838116600483015282169063b589559a90602401600060405180830381600087803b1580156108c857600080fd5b505af11580156108dc573d6000803e3d6000fd5b505050506108f0565b6000601c556000601a555b600080858060200190518101906109079190611f36565b606154825192945090925060009161091e9161144f565b6059549091506000906001600160a01b0316639ea04fe4610947605a546001600160a01b031690565b33876040518463ffffffff1660e01b815260040161096793929190612027565b6020604051808303816000875af1158015610986573d6000803e3d6000fd5b505050506040513d601f19601f820116820180604052508101906109aa9190611d7f565b6059546040516347a6d79960e11b8152306004820152602481018390529192506001600160a01b031690638f4daf3290604401600060405180830381600087803b1580156109f757600080fd5b505af1158015610a0b573d6000803e3d6000fd5b505050506000610a19610830565b15610a2c57610a2783610cb6565b610a2e565b825b9050610a3c83826001611462565b6001600160a01b039093166000908152605c602052604090208054840190555090945050505050919050565b6001600160a01b0381166000908152605d602052604081205461050a565b606080805461047c90611d0d565b60595460009033906001600160a01b03168115610b0b57604051635ac4aacd60e11b81526001600160a01b03838116600483015282169063b589559a90602401600060405180830381600087803b158015610aee57600080fd5b505af1158015610b02573d6000803e3d6000fd5b50505050610b16565b6000601c556000601a555b600084806020019051810190610b2c91906120a0565b5050505090506000610b53336001600160a01b03166000908152605c602052604090205490565b90506000610b6083610526565b905080821015610b9357604051637ac073bf60e01b81523360048201526024810183905260448101829052606401610679565b6000610b9e82610841565b6059546040516314370d6760e31b81529192506000916001600160a01b039091169063a1b86b3890610bd69033908d906004016120ed565b6020604051808303816000875af1158015610bf5573d6000803e3d6000fd5b505050506040513d601f19601f82011682018060405250810190610c199190611d7f565b6059546001600160a01b03166000908152605c60205260409020549091509350610c4582856000611462565b6059546001600160a01b03166000908152605c602052604081205598975050505050505050565b600080610c793385610de3565b905082811015610c9c576040516361ceb1d360e01b815260040160405180910390fd5b6107fb338585840361107e565b600061051d338484611232565b600061050a826114c0565b83421115610ceb5760405163184f1e0160e11b815260048101859052426024820152604401610679565b60007f6e71edae12b1b97f4d1f60370fef10105fa2faae0126114a169c64845d6126c9888888610d1a8c6114d5565b6040805160208101969096526001600160a01b0394851690860152929091166060840152608083015260a082015260c0810186905260e0016040516020818303038152906040528051906020012090506000610d75826114fd565b90506000610d858287878761154b565b9050896001600160a01b0316816001600160a01b031614610dcc57604051635091bef560e01b81526001600160a01b0380831660048301528b166024820152604401610679565b610dd78a8a8a61107e565b50505050505050505050565b6001600160a01b039182166000908152605e6020908152604080832093909416825291909152205490565b60006fffffffffffffffffffffffffffffffff81836001811115610e3457610e34611d41565b14610e4157838116610e49565b608084901c81165b949350505050565b6000610e87604051806040016040528060138152602001722d2d2d20696e205f636f6e76657274202d2d2d60681b815250611573565b610ec160405180604001604052806007815260200166030b9b9b2ba1d160cd1b815250610ebc605a546001600160a01b031690565b6115b6565b604080518082018252600781526603ab73232b91d160cd1b60208201526059549151634be9756960e11b8152306004820152610f50926001600160a01b0316906397d2ead290602401602060405180830381865afa158015610f27573d6000803e3d6000fd5b505050506040513d601f19601f82011682018060405250810190610f4b9190611d7f565b6115fb565b610f7a60405180604001604052806008815260200167039b430b932b99d160c51b815250836115fb565b610fab6040518060400160405280600d81526020016c03a37ba30b629b430b932b99d1609d1b815250610f4b610830565b610fdf604051806040016040528060138152602001722d2d2d20696e205f636f6e76657274202d2d2d60681b815250611573565b61050a610fea610830565b15610ffc57610ff7610830565b610fff565b60015b605954604051634be9756960e11b81523060048201526001600160a01b03909116906397d2ead290602401602060405180830381865afa158015611047573d6000803e3d6000fd5b505050506040513d601f19601f8201168201806040525081019061106b9190611d7f565b6110759190611dc5565b83906001611640565b6001600160a01b038316158061109b57506001600160a01b038216155b156110cc57604051637db368a160e01b81526001600160a01b03808516600483015283166024820152604401610679565b6001600160a01b038381166000818152605e602090815260408083209487168084529482529182902085905590518481527f8c5be1e5ebec7d5bd14f71427d1e84f3dd0314c0f7b2291e5b200ac8c7c3b925910160405180910390a3505050565b600061050a61113a610830565b605954604051634be9756960e11b81526001600160a01b0390911660048201819052906397d2ead290602401602060405180830381865afa158015611183573d6000803e3d6000fd5b505050506040513d601f19601f820116820180604052508101906111a79190611d7f565b84919061165e565b602454610100900460ff166111d65760405162461bcd60e51b815260040161067990612111565b6111e08282611684565b5050565b60006111f08484610de3565b9050600019811461122c578181101561121f576040516306052b7f60e01b815260048101839052602401610679565b61122c848484840361107e565b50505050565b6001600160a01b038316158061124f57506001600160a01b038216155b1561128057604051637db368a160e01b81526001600160a01b03808516600483015283166024820152604401610679565b600061128b82610526565b6001600160a01b0385166000908152605c6020526040902054909150818110156112e1576040516315c29bad60e31b81526001600160a01b03861660048201526024810182905260448101839052606401610679565b6001600160a01b038086166000818152605c602052604080822086860390559287168082529083902080548601905591517fddf252ad1be2c89b69c2b068fc378daa952ba7f163c4a11628f55a4df523b3ef906113419087815260200190565b60405180910390a35050505050565b60006104687f8b73c3c69bb8fe3d512ecc4cf759cc79239f7b179b0ffacaa9a75d522b39400f61137f60255490565b6026546040805160208101859052908101839052606081018290524660808201523060a082015260009060c0016040516020818303038152906040528051906020012090509392505050565b605954604051634be9756960e11b81526001600160a01b039091166004820181905260009161050a91906397d2ead290602401602060405180830381865afa15801561141b573d6000803e3d6000fd5b505050506040513d601f19601f8201168201806040525081019061143f9190611d7f565b611447610531565b849190611640565b600061145b8284611dc5565b9392505050565b605b546000906114729082610e0e565b9050600061148c6001605b54610e0e90919063ffffffff16565b9050821561149f579084019083016114a8565b90849003908390035b6114b682608083901b611f13565b605b555050505050565b600061050a6114cd610830565b611447610458565b6001600160a01b0381166000908152605d602052604090208054600181018255905b50919050565b600061050a61150a611350565b8360405161190160f01b6020820152602281018390526042810182905260009060620160405160208183030381529060405280519060200120905092915050565b600080600061155c878787876116c5565b91509150611569816117b2565b5095945050505050565b61035d816040516024016115879190611a01565b60408051601f198184030181529190526020810180516001600160e01b031663104c13eb60e21b179052611968565b6111e082826040516024016115cc92919061215c565b60408051601f198184030181529190526020810180516001600160e01b031663319af33360e01b179052611968565b6111e08282604051602401611611929190612186565b60408051601f198184030181529190526020810180516001600160e01b03166309710a9d60e41b179052611968565b600082600019048411830215820261165757600080fd5b5091020490565b600082600019048411830215820261167557600080fd5b50910281810615159190040190565b602454610100900460ff166116ab5760405162461bcd60e51b815260040161067990612111565b815160209283012081519190920120602591909155602655565b6000807f7fffffffffffffffffffffffffffffff5d576e7357a4501ddfe92f46681b20a08311156116fc57506000905060036117a9565b8460ff16601b1415801561171457508460ff16601c14155b1561172557506000905060046117a9565b6040805160008082526020820180845289905260ff881692820192909252606081018690526080810185905260019060a0016020604051602081039080840390855afa158015611779573d6000803e3d6000fd5b5050604051601f1901519150506001600160a01b0381166117a2576000600192509250506117a9565b9150600090505b94509492505050565b60008160048111156117c6576117c6611d41565b036117ce5750565b60018160048111156117e2576117e2611d41565b0361182f5760405162461bcd60e51b815260206004820152601860248201527f45434453413a20696e76616c6964207369676e617475726500000000000000006044820152606401610679565b600281600481111561184357611843611d41565b036118905760405162461bcd60e51b815260206004820152601f60248201527f45434453413a20696e76616c6964207369676e6174757265206c656e677468006044820152606401610679565b60038160048111156118a4576118a4611d41565b036118fc5760405162461bcd60e51b815260206004820152602260248201527f45434453413a20696e76616c6964207369676e6174757265202773272076616c604482015261756560f01b6064820152608401610679565b600481600481111561191057611910611d41565b0361035d5760405162461bcd60e51b815260206004820152602260248201527f45434453413a20696e76616c6964207369676e6174757265202776272076616c604482015261756560f01b6064820152608401610679565b80516a636f6e736f6c652e6c6f67602083016000808483855afa5050505050565b6001600160a01b038116811461035d57600080fd5b6000602082840312156119b057600080fd5b813561145b81611989565b6000815180845260005b818110156119e1576020818501810151868301820152016119c5565b506000602082860101526020601f19601f83011685010191505092915050565b60208152600061145b60208301846119bb565b600060208284031215611a2657600080fd5b5035919050565b60008060408385031215611a4057600080fd5b8235611a4b81611989565b946020939093013593505050565b634e487b7160e01b600052604160045260246000fd5b6040805190810167ffffffffffffffff81118282101715611a9257611a92611a59565b60405290565b604051601f8201601f1916810167ffffffffffffffff81118282101715611ac157611ac1611a59565b604052919050565b600067ffffffffffffffff831115611ae357611ae3611a59565b611af6601f8401601f1916602001611a98565b9050828152838383011115611b0a57600080fd5b828260208301376000602084830101529392505050565b600082601f830112611b3257600080fd5b61145b83833560208501611ac9565b60008060008060808587031215611b5757600080fd5b8435611b6281611989565b93506020850135611b7281611989565b9250604085013567ffffffffffffffff80821115611b8f57600080fd5b611b9b88838901611b21565b93506060870135915080821115611bb157600080fd5b50611bbe87828801611b21565b91505092959194509250565b600080600060608486031215611bdf57600080fd5b8335611bea81611989565b92506020840135611bfa81611989565b929592945050506040919091013590565b600060208284031215611c1d57600080fd5b813567ffffffffffffffff811115611c3457600080fd5b8201601f81018413611c4557600080fd5b610e4984823560208401611ac9565b60ff8116811461035d57600080fd5b600080600080600080600060e0888a031215611c7e57600080fd5b8735611c8981611989565b96506020880135611c9981611989565b955060408801359450606088013593506080880135611cb781611c54565b9699959850939692959460a0840135945060c09093013592915050565b60008060408385031215611ce757600080fd5b8235611cf281611989565b91506020830135611d0281611989565b809150509250929050565b600181811c90821680611d2157607f821691505b6020821081036114f757634e487b7160e01b600052602260045260246000fd5b634e487b7160e01b600052602160045260246000fd5b6020810160028310611d7957634e487b7160e01b600052602160045260246000fd5b91905290565b600060208284031215611d9157600080fd5b5051919050565b634e487b7160e01b600052601160045260246000fd5b808202811582820484141761050a5761050a611d98565b600082611de257634e487b7160e01b600052601260045260246000fd5b500490565b601f821115611e3157600081815260208120601f850160051c81016020861015611e0e5750805b601f850160051c820191505b81811015611e2d57828155600101611e1a565b5050505b505050565b815167ffffffffffffffff811115611e5057611e50611a59565b611e6481611e5e8454611d0d565b84611de7565b602080601f831160018114611e995760008415611e815750858301515b600019600386901b1c1916600185901b178555611e2d565b600085815260208120601f198616915b82811015611ec857888601518255948401946001909101908401611ea9565b5085821015611ee65787850151600019600388901b60f8161c191681555b5050505050600190811b01905550565b600060208284031215611f0857600080fd5b815161145b81611c54565b8082018082111561050a5761050a611d98565b8051611f3181611989565b919050565b60008060408385031215611f4957600080fd5b825167ffffffffffffffff80821115611f6157600080fd5b9084019060408287031215611f7557600080fd5b611f7d611a6f565b8251815260208084015183811115611f9457600080fd5b80850194505087601f850112611fa957600080fd5b835183811115611fbb57611fbb611a59565b8060051b9350611fcc828501611a98565b818152938501820193828101908a861115611fe657600080fd5b958301955b8587101561200457865182529583019590830190611feb565b808486015250505081955061201a818801611f26565b9450505050509250929050565b600060018060a01b0380861683526020818616818501526060604085015260a08401915084516060850152808501516040608086015282815180855260c0870191508383019450600092505b808310156120935784518252938301936001929092019190830190612073565b5098975050505050505050565b600080600080600060a086880312156120b857600080fd5b8551945060208601519350604086015192506060860151915060808601516120df81611989565b809150509295509295909350565b6001600160a01b0383168152604060208201819052600090610e49908301846119bb565b6020808252602b908201527f496e697469616c697a61626c653a20636f6e7472616374206973206e6f74206960408201526a6e697469616c697a696e6760a81b606082015260800190565b60408152600061216f60408301856119bb565b905060018060a01b03831660208301529392505050565b60408152600061219960408301856119bb565b9050826020830152939250505056fea26469706673582212207f66bca1d035d019cb159b3b70d6f88365914a154a5799a04ec28b1e8db29dd264736f6c63430008150033",
    "linkReferences": {}
  },
  "methodIdentifiers": {
    "DOMAIN_SEPARATOR()": "3644e515",
    "FORMAT_DECIMALS()": "a01c8774",
    "allowance(address,address)": "dd62ed3e",
    "approve(address,uint256)": "095ea7b3",
    "asset()": "38d52e0f",
    "balanceOf(address)": "70a08231",
    "claimReward()": "b88a802f",
    "convertToAssets(uint256)": "07a2d13a",
    "convertToShares(uint256)": "c6e6f592",
    "convertToUnderlying(uint256)": "1dc7f521",
    "decimals()": "313ce567",
    "decreaseAllowance(address,uint256)": "a457c2d7",
    "earned(address)": "008cc262",
    "getCirculatingSupply()": "2b112e49",
    "getRecicledSupply()": "6a533a4c",
    "getRewardRate()": "7e1a3786",
    "increaseAllowance(address,uint256)": "39509351",
    "initialize(address,address,string,string)": "2016a0d2",
    "lastTimeRewardApplicable()": "80faa57d",
    "mint(bytes)": "7ba0e2e7",
    "name()": "06fdde03",
    "nonces(address)": "7ecebe00",
    "notifyRewardAmount(uint256)": "3c6b16ab",
    "permit(address,address,uint256,uint256,uint8,bytes32,bytes32)": "d505accf",
    "previewMint(uint256)": "b3d7f6b9",
    "previewRedeem(uint256)": "4cdad506",
    "previewWithdraw(uint256)": "0a28a477",
    "redeem(bytes)": "9945e3d3",
    "rewardPerToken()": "cd3daf9d",
    "setRewardsDuration(uint256)": "cc1a378f",
    "sharesOf(address)": "f5eb42dc",
    "symbol()": "95d89b41",
    "totalAssets()": "01e1d114",
    "totalShares()": "3a98ef39",
    "totalSupply()": "18160ddd",
    "transfer(address,uint256)": "a9059cbb",
    "transferFrom(address,address,uint256)": "23b872dd"
  },
  "id": 35
}