{
  "abi": [
    {
      "inputs": [],
      "stateMutability": "nonpayable",
      "type": "constructor"
    },
    {
      "inputs": [
        {
          "internalType": "address",
          "name": "sender",
          "type": "address"
        },
        {
          "internalType": "uint256",
          "name": "shares",
          "type": "uint256"
        },
        {
          "internalType": "uint256",
          "name": "sharesNeeded",
          "type": "uint256"
        }
      ],
      "name": "ERC20InsufficientBalance",
      "type": "error"
    },
    {
      "inputs": [
        {
          "internalType": "address",
          "name": "receiver",
          "type": "address"
        }
      ],
      "name": "ERC20InvalidReceiver",
      "type": "error"
    },
    {
      "inputs": [
        {
          "internalType": "address",
          "name": "sender",
          "type": "address"
        }
      ],
      "name": "ERC20InvalidSender",
      "type": "error"
    },
    {
      "inputs": [
        {
          "internalType": "uint256",
          "name": "deadline",
          "type": "uint256"
        },
        {
          "internalType": "uint256",
          "name": "blockTimestamp",
          "type": "uint256"
        }
      ],
      "name": "ERC2612ExpiredDeadline",
      "type": "error"
    },
    {
      "inputs": [
        {
          "internalType": "address",
          "name": "owner",
          "type": "address"
        },
        {
          "internalType": "address",
          "name": "spender",
          "type": "address"
        }
      ],
      "name": "ERC2612InvalidSignature",
      "type": "error"
    },
    {
      "inputs": [
        {
          "internalType": "address",
          "name": "sender",
          "type": "address"
        },
        {
          "internalType": "uint256",
          "name": "shares",
          "type": "uint256"
        },
        {
          "internalType": "uint256",
          "name": "sharesNeeded",
          "type": "uint256"
        }
      ],
      "name": "USDMInsufficientBurnBalance",
      "type": "error"
    },
    {
      "anonymous": false,
      "inputs": [
        {
          "indexed": true,
          "internalType": "address",
          "name": "owner",
          "type": "address"
        },
        {
          "indexed": true,
          "internalType": "address",
          "name": "spender",
          "type": "address"
        },
        {
          "indexed": false,
          "internalType": "uint256",
          "name": "value",
          "type": "uint256"
        }
      ],
      "name": "Approval",
      "type": "event"
    },
    {
      "anonymous": false,
      "inputs": [
        {
          "indexed": false,
          "internalType": "uint8",
          "name": "version",
          "type": "uint8"
        }
      ],
      "name": "Initialized",
      "type": "event"
    },
    {
      "anonymous": false,
      "inputs": [
        {
          "indexed": true,
          "internalType": "address",
          "name": "from",
          "type": "address"
        },
        {
          "indexed": true,
          "internalType": "address",
          "name": "to",
          "type": "address"
        },
        {
          "indexed": false,
          "internalType": "uint256",
          "name": "value",
          "type": "uint256"
        }
      ],
      "name": "Transfer",
      "type": "event"
    },
    {
      "inputs": [],
      "name": "DOMAIN_SEPARATOR",
      "outputs": [
        {
          "internalType": "bytes32",
          "name": "",
          "type": "bytes32"
        }
      ],
      "stateMutability": "view",
      "type": "function"
    },
    {
      "inputs": [
        {
          "internalType": "address",
          "name": "owner",
          "type": "address"
        },
        {
          "internalType": "address",
          "name": "spender",
          "type": "address"
        }
      ],
      "name": "allowance",
      "outputs": [
        {
          "internalType": "uint256",
          "name": "",
          "type": "uint256"
        }
      ],
      "stateMutability": "view",
      "type": "function"
    },
    {
      "inputs": [
        {
          "internalType": "address",
          "name": "spender",
          "type": "address"
        },
        {
          "internalType": "uint256",
          "name": "amount",
          "type": "uint256"
        }
      ],
      "name": "approve",
      "outputs": [
        {
          "internalType": "bool",
          "name": "",
          "type": "bool"
        }
      ],
      "stateMutability": "nonpayable",
      "type": "function"
    },
    {
      "inputs": [],
      "name": "asset",
      "outputs": [
        {
          "internalType": "address",
          "name": "",
          "type": "address"
        }
      ],
      "stateMutability": "view",
      "type": "function"
    },
    {
      "inputs": [
        {
          "internalType": "address",
          "name": "account_",
          "type": "address"
        }
      ],
      "name": "balanceOf",
      "outputs": [
        {
          "internalType": "uint256",
          "name": "",
          "type": "uint256"
        }
      ],
      "stateMutability": "view",
      "type": "function"
    },
    {
      "inputs": [
        {
          "components": [
            {
              "internalType": "uint256",
              "name": "ozAmountIn",
              "type": "uint256"
            },
            {
              "internalType": "uint256",
              "name": "minWethOut",
              "type": "uint256"
            },
            {
              "internalType": "uint256",
              "name": "bptAmountIn",
              "type": "uint256"
            },
            {
              "internalType": "uint256",
              "name": "minUsdcOut",
              "type": "uint256"
            }
          ],
          "internalType": "struct AmountsOut",
          "name": "amts_",
          "type": "tuple"
        },
        {
          "internalType": "address",
          "name": "receiver_",
          "type": "address"
        }
      ],
      "name": "burn",
      "outputs": [],
      "stateMutability": "nonpayable",
      "type": "function"
    },
    {
      "inputs": [
        {
          "internalType": "uint256",
          "name": "shares",
          "type": "uint256"
        }
      ],
      "name": "convertToAssets",
      "outputs": [
        {
          "internalType": "uint256",
          "name": "assets",
          "type": "uint256"
        }
      ],
      "stateMutability": "view",
      "type": "function"
    },
    {
      "inputs": [
        {
          "internalType": "uint256",
          "name": "assets",
          "type": "uint256"
        }
      ],
      "name": "convertToShares",
      "outputs": [
        {
          "internalType": "uint256",
          "name": "shares",
          "type": "uint256"
        }
      ],
      "stateMutability": "view",
      "type": "function"
    },
    {
      "inputs": [
        {
          "internalType": "uint256",
          "name": "shares_",
          "type": "uint256"
        }
      ],
      "name": "convertToUnderlying",
      "outputs": [
        {
          "internalType": "uint256",
          "name": "amountUnderlying",
          "type": "uint256"
        }
      ],
      "stateMutability": "view",
      "type": "function"
    },
    {
      "inputs": [],
      "name": "decimals",
      "outputs": [
        {
          "internalType": "uint8",
          "name": "",
          "type": "uint8"
        }
      ],
      "stateMutability": "view",
      "type": "function"
    },
    {
      "inputs": [
        {
          "internalType": "address",
          "name": "spender",
          "type": "address"
        },
        {
          "internalType": "uint256",
          "name": "subtractedValue",
          "type": "uint256"
        }
      ],
      "name": "decreaseAllowance",
      "outputs": [
        {
          "internalType": "bool",
          "name": "",
          "type": "bool"
        }
      ],
      "stateMutability": "nonpayable",
      "type": "function"
    },
    {
      "inputs": [
        {
          "internalType": "address",
          "name": "spender",
          "type": "address"
        },
        {
          "internalType": "uint256",
          "name": "addedValue",
          "type": "uint256"
        }
      ],
      "name": "increaseAllowance",
      "outputs": [
        {
          "internalType": "bool",
          "name": "",
          "type": "bool"
        }
      ],
      "stateMutability": "nonpayable",
      "type": "function"
    },
    {
      "inputs": [
        {
          "internalType": "address",
          "name": "underlying_",
          "type": "address"
        },
        {
          "internalType": "address",
          "name": "diamond_",
          "type": "address"
        },
        {
          "internalType": "string",
          "name": "name_",
          "type": "string"
        },
        {
          "internalType": "string",
          "name": "symbol_",
          "type": "string"
        }
      ],
      "name": "initialize",
      "outputs": [],
      "stateMutability": "nonpayable",
      "type": "function"
    },
    {
      "inputs": [
        {
          "internalType": "address",
          "name": "",
          "type": "address"
        }
      ],
      "name": "maxDeposit",
      "outputs": [
        {
          "internalType": "uint256",
          "name": "",
          "type": "uint256"
        }
      ],
      "stateMutability": "view",
      "type": "function"
    },
    {
      "inputs": [
        {
          "components": [
            {
              "internalType": "uint256",
              "name": "amountIn",
              "type": "uint256"
            },
            {
              "internalType": "uint256",
              "name": "minWethOut",
              "type": "uint256"
            },
            {
              "internalType": "uint256",
              "name": "minRethOut",
              "type": "uint256"
            },
            {
              "internalType": "uint256",
              "name": "minBptOut",
              "type": "uint256"
            }
          ],
          "internalType": "struct AmountsIn",
          "name": "amounts_",
          "type": "tuple"
        },
        {
          "internalType": "address",
          "name": "receiver_",
          "type": "address"
        }
      ],
      "name": "mint",
      "outputs": [
        {
          "internalType": "uint256",
          "name": "",
          "type": "uint256"
        }
      ],
      "stateMutability": "nonpayable",
      "type": "function"
    },
    {
      "inputs": [],
      "name": "name",
      "outputs": [
        {
          "internalType": "string",
          "name": "",
          "type": "string"
        }
      ],
      "stateMutability": "view",
      "type": "function"
    },
    {
      "inputs": [
        {
          "internalType": "address",
          "name": "owner",
          "type": "address"
        }
      ],
      "name": "nonces",
      "outputs": [
        {
          "internalType": "uint256",
          "name": "",
          "type": "uint256"
        }
      ],
      "stateMutability": "view",
      "type": "function"
    },
    {
      "inputs": [
        {
          "internalType": "address",
          "name": "owner",
          "type": "address"
        },
        {
          "internalType": "address",
          "name": "spender",
          "type": "address"
        },
        {
          "internalType": "uint256",
          "name": "value",
          "type": "uint256"
        },
        {
          "internalType": "uint256",
          "name": "deadline",
          "type": "uint256"
        },
        {
          "internalType": "uint8",
          "name": "v",
          "type": "uint8"
        },
        {
          "internalType": "bytes32",
          "name": "r",
          "type": "bytes32"
        },
        {
          "internalType": "bytes32",
          "name": "s_",
          "type": "bytes32"
        }
      ],
      "name": "permit",
      "outputs": [],
      "stateMutability": "nonpayable",
      "type": "function"
    },
    {
      "inputs": [
        {
          "internalType": "uint256",
          "name": "assets_",
          "type": "uint256"
        }
      ],
      "name": "previewDeposit",
      "outputs": [
        {
          "internalType": "uint256",
          "name": "",
          "type": "uint256"
        }
      ],
      "stateMutability": "view",
      "type": "function"
    },
    {
      "inputs": [
        {
          "internalType": "uint256",
          "name": "shares_",
          "type": "uint256"
        }
      ],
      "name": "previewRedeem",
      "outputs": [
        {
          "internalType": "uint256",
          "name": "",
          "type": "uint256"
        }
      ],
      "stateMutability": "view",
      "type": "function"
    },
    {
      "inputs": [
        {
          "internalType": "uint256",
          "name": "assets",
          "type": "uint256"
        }
      ],
      "name": "previewWithdraw",
      "outputs": [
        {
          "internalType": "uint256",
          "name": "",
          "type": "uint256"
        }
      ],
      "stateMutability": "view",
      "type": "function"
    },
    {
      "inputs": [
        {
          "internalType": "address",
          "name": "account_",
          "type": "address"
        }
      ],
      "name": "sharesOf",
      "outputs": [
        {
          "internalType": "uint256",
          "name": "",
          "type": "uint256"
        }
      ],
      "stateMutability": "view",
      "type": "function"
    },
    {
      "inputs": [],
      "name": "symbol",
      "outputs": [
        {
          "internalType": "string",
          "name": "",
          "type": "string"
        }
      ],
      "stateMutability": "view",
      "type": "function"
    },
    {
      "inputs": [],
      "name": "totalAssets",
      "outputs": [
        {
          "internalType": "uint256",
          "name": "",
          "type": "uint256"
        }
      ],
      "stateMutability": "view",
      "type": "function"
    },
    {
      "inputs": [],
      "name": "totalShares",
      "outputs": [
        {
          "internalType": "uint256",
          "name": "",
          "type": "uint256"
        }
      ],
      "stateMutability": "view",
      "type": "function"
    },
    {
      "inputs": [],
      "name": "totalSupply",
      "outputs": [
        {
          "internalType": "uint256",
          "name": "",
          "type": "uint256"
        }
      ],
      "stateMutability": "view",
      "type": "function"
    },
    {
      "inputs": [
        {
          "internalType": "address",
          "name": "to",
          "type": "address"
        },
        {
          "internalType": "uint256",
          "name": "amount",
          "type": "uint256"
        }
      ],
      "name": "transfer",
      "outputs": [
        {
          "internalType": "bool",
          "name": "",
          "type": "bool"
        }
      ],
      "stateMutability": "nonpayable",
      "type": "function"
    },
    {
      "inputs": [
        {
          "internalType": "address",
          "name": "from",
          "type": "address"
        },
        {
          "internalType": "address",
          "name": "to",
          "type": "address"
        },
        {
          "internalType": "uint256",
          "name": "amount",
          "type": "uint256"
        }
      ],
      "name": "transferFrom",
      "outputs": [
        {
          "internalType": "bool",
          "name": "",
          "type": "bool"
        }
      ],
      "stateMutability": "nonpayable",
      "type": "function"
    }
  ],
  "bytecode": {
    "object": "0x608060405234801561001057600080fd5b5061001961001e565b6100de565b600054610100900460ff161561008a5760405162461bcd60e51b815260206004820152602760248201527f496e697469616c697a61626c653a20636f6e747261637420697320696e697469604482015266616c697a696e6760c81b606482015260840160405180910390fd5b60005460ff90811610156100dc576000805460ff191660ff9081179091556040519081527f7f26b83ff96e1f2b6a682f133852f6798a09c465da95921460cefb38474024989060200160405180910390a15b565b611c1f806100ed6000396000f3fe608060405234801561001057600080fd5b50600436106101c45760003560e01c8063402d267d116100f9578063a457c2d711610097578063d505accf11610071578063d505accf14610381578063dd62ed3e14610394578063ef8b30f7146103a7578063f5eb42dc146103ba57600080fd5b8063a457c2d714610348578063a9059cbb1461035b578063c6e6f5921461036e57600080fd5b806370a08231116100d357806370a08231146103075780637ecebe001461031a5780638c490d511461032d57806395d89b411461034057600080fd5b8063402d267d146102ce5780634cdad506146102e15780636736deee146102f457600080fd5b80632016a0d2116101665780633644e515116101405780633644e5151461029057806338d52e0f1461029857806339509351146102b35780633a98ef39146102c657600080fd5b80632016a0d21461025957806323b872dd1461026e578063313ce5671461028157600080fd5b8063095ea7b3116101a2578063095ea7b3146102085780630a28a4771461022b57806318160ddd1461023e5780631dc7f5211461024657600080fd5b806301e1d114146101c957806306fdde03146101e057806307a2d13a146101f5575b600080fd5b6038545b6040519081526020015b60405180910390f35b6101e86103e3565b6040516101d791906115e3565b6101cd610203366004611631565b610475565b61021b610216366004611666565b610488565b60405190151581526020016101d7565b6101cd610239366004611631565b61049e565b6101cd6104ab565b6101cd610254366004611631565b6104cf565b61026c610267366004611733565b610560565b005b61021b61027c3660046117b8565b6106df565b604051601281526020016101d7565b6101cd610702565b6036546040516001600160a01b0390911681526020016101d7565b61021b6102c1366004611666565b61070c565b6037546101cd565b6101cd6102dc3660046117f4565b61072d565b6101cd6102ef366004611631565b61074b565b6101cd610302366004611875565b610758565b6101cd6103153660046117f4565b6108a3565b6101cd6103283660046117f4565b6108c5565b61026c61033b366004611875565b6108e3565b6101e8610a28565b61021b610356366004611666565b610a37565b61021b610369366004611666565b610ab1565b6101cd61037c366004611631565b610abe565b61026c61038f3660046118a9565b610acb565b6101cd6103a236600461191c565b610bed565b6101cd6103b5366004611631565b610c18565b6101cd6103c83660046117f4565b6001600160a01b031660009081526039602052604090205490565b6060603c80546103f290611946565b80601f016020809104026020016040519081016040528092919081815260200182805461041e90611946565b801561046b5780601f106104405761010080835404028352916020019161046b565b820191906000526020600020905b81548152906001019060200180831161044e57829003601f168201915b5050505050905090565b6000610482826000610c25565b92915050565b6000610495338484610cbe565b50600192915050565b6000610482826001610de2565b60006037546000146104c9576104c46037546000610c25565b905090565b50600090565b60006104da60375490565b60355460405163a4fc284b60e01b81526001600160a01b039091169063a4fc284b9061050b90600190600401611990565b602060405180830381865afa158015610528573d6000803e3d6000fd5b505050506040513d601f19601f8201168201806040525081019061054c91906119b8565b61055690846119e7565b6104829190611a14565b600054610100900460ff16158080156105805750600054600160ff909116105b8061059a5750303b15801561059a575060005460ff166001145b6106025760405162461bcd60e51b815260206004820152602e60248201527f496e697469616c697a61626c653a20636f6e747261637420697320616c72656160448201526d191e481a5b9a5d1a585b1a5e995960921b60648201526084015b60405180910390fd5b6000805460ff191660011790558015610625576000805461ff0019166101001790555b603c6106318482611a85565b50603d61063e8382611a85565b50603580546001600160a01b038087166001600160a01b03199283161790925560368054928816929091169190911790556040805180820190915260018152603160f81b6020820152610692908490610e70565b80156106d8576000805461ff0019169055604051600181527f7f26b83ff96e1f2b6a682f133852f6798a09c465da95921460cefb38474024989060200160405180910390a15b5050505050565b60006106ec843384610ea5565b6106f7848484610f1f565b5060015b9392505050565b60006104c461101a565b600061049533848461071e3388610bed565b6107289190611b45565b610cbe565b6000610737611095565b610742576000610482565b60001992915050565b60006104828260006110b6565b81516000906107668361072d565b8111156107b55760405162461bcd60e51b815260206004820152601e60248201527f455243343632363a206465706f736974206d6f7265207468616e206d6178000060448201526064016105f9565b6035546001600160a01b031663587960196107d86036546001600160a01b031690565b33876040518463ffffffff1660e01b81526004016107f893929190611b58565b600060405180830381600087803b15801561081257600080fd5b505af1158015610826573d6000803e3d6000fd5b50505050600061083560375490565b156108485761084382610c18565b61084a565b815b9050816038600082825461085e9190611b45565b9250508190555080603760008282546108779190611b45565b90915550506001600160a01b038416600090815260396020526040902080548201905591505092915050565b6001600160a01b03811660009081526039602052604081205461048290610475565b6001600160a01b0381166000908152603a6020526040812054610482565b33600090815260396020526040812054835190919061090190610abe565b90508082101561093457604051633803cef960e11b815233600482015260248101839052604481018290526064016105f9565b600061093f8261074b565b603554604080516334347a5560e21b81528851600482015260208901516024820152908801516044820152606088015160648201523060848201523360a48201526001600160a01b0387811660c483015292935091169063d0d1e9549060e401600060405180830381600087803b1580156109b957600080fd5b505af11580156109cd573d6000803e3d6000fd5b50506035546001600160a01b031660009081526039602052604090205491506109f39050565b6035546001600160a01b0316600090815260396020526040812055603780549190910390556038805491909103905550505050565b6060603d80546103f290611946565b600080610a443385610bed565b905082811015610aa45760405162461bcd60e51b815260206004820152602560248201527f45524332303a2064656372656173656420616c6c6f77616e63652062656c6f77604482015264207a65726f60d81b60648201526084016105f9565b6106f73385858403610cbe565b6000610495338484610f1f565b6000610482826000610de2565b83421115610af55760405163233730db60e11b8152600481018590524260248201526044016105f9565b60007f6e71edae12b1b97f4d1f60370fef10105fa2faae0126114a169c64845d6126c9888888610b248c61113a565b6040805160208101969096526001600160a01b0394851690860152929091166060840152608083015260a082015260c0810186905260e0016040516020818303038152906040528051906020012090506000610b7f82611162565b90506000610b8f828787876111b0565b9050896001600160a01b0316816001600160a01b031614610bd657604051630189c63360e31b81526001600160a01b03808c1660048301528a1660248201526044016105f9565b610be18a8a8a610cbe565b50505050505050505050565b6001600160a01b039182166000908152603b6020908152604080832093909416825291909152205490565b60006104828260006111da565b60006106fb610c3360375490565b603560009054906101000a90046001600160a01b03166001600160a01b03166345089e296040518163ffffffff1660e01b8152600401602060405180830381865afa158015610c86573d6000803e3d6000fd5b505050506040513d601f19601f82011682018060405250810190610caa91906119b8565b610cb49190611a14565b84906001856111f0565b6001600160a01b038316610d205760405162461bcd60e51b8152602060048201526024808201527f45524332303a20617070726f76652066726f6d20746865207a65726f206164646044820152637265737360e01b60648201526084016105f9565b6001600160a01b038216610d815760405162461bcd60e51b815260206004820152602260248201527f45524332303a20617070726f766520746f20746865207a65726f206164647265604482015261737360f01b60648201526084016105f9565b6001600160a01b038381166000818152603b602090815260408083209487168084529482529182902085905590518481527f8c5be1e5ebec7d5bd14f71427d1e84f3dd0314c0f7b2291e5b200ac8c7c3b925910160405180910390a3505050565b60006106fb610df060375490565b603560009054906101000a90046001600160a01b03166001600160a01b03166345089e296040518163ffffffff1660e01b8152600401602060405180830381865afa158015610e43573d6000803e3d6000fd5b505050506040513d601f19601f82011682018060405250810190610e6791906119b8565b859190856111f0565b600054610100900460ff16610e975760405162461bcd60e51b81526004016105f990611b9e565b610ea1828261124d565b5050565b6000610eb18484610bed565b90506000198114610f195781811015610f0c5760405162461bcd60e51b815260206004820152601d60248201527f45524332303a20696e73756666696369656e7420616c6c6f77616e636500000060448201526064016105f9565b610f198484848403610cbe565b50505050565b6001600160a01b038316610f5157604051634b637e8f60e11b81526001600160a01b03841660048201526024016105f9565b6001600160a01b038216610f835760405163ec442f0560e01b81526001600160a01b03831660048201526024016105f9565b6000610f8e82610abe565b6001600160a01b03851660009081526039602052604090205490915081811015610fe45760405163391434e360e21b81526001600160a01b038616600482015260248101829052604481018390526064016105f9565b6001600160a01b039485166000908152603960205260408082209284900390925593909416835292909120805490920190915550565b60006104c47f8b73c3c69bb8fe3d512ecc4cf759cc79239f7b179b0ffacaa9a75d522b39400f61104960015490565b6002546040805160208101859052908101839052606081018290524660808201523060a082015260009060c0016040516020818303038152906040528051906020012090509392505050565b6000806110a160385490565b11806104c457506110b06104ab565b15905090565b60006106fb603560009054906101000a90046001600160a01b03166001600160a01b03166345089e296040518163ffffffff1660e01b8152600401602060405180830381865afa15801561110e573d6000803e3d6000fd5b505050506040513d601f19601f8201168201806040525081019061113291906119b8565b610e676104ab565b6001600160a01b0381166000908152603a602052604090208054600181018255905b50919050565b600061048261116f61101a565b8360405161190160f01b6020820152602281018390526042810182905260009060620160405160208183030381529060405280519060200120905092915050565b60008060006111c18787878761128e565b915091506111ce8161137b565b5090505b949350505050565b60006106fb6111e860375490565b603854610e67565b6000806111fe868686611534565b905060018360028111156112145761121461197a565b14801561123157506000848061122c5761122c6119fe565b868809115b1561124457611241600182611b45565b90505b95945050505050565b600054610100900460ff166112745760405162461bcd60e51b81526004016105f990611b9e565b815160209283012081519190920120600191909155600255565b6000807f7fffffffffffffffffffffffffffffff5d576e7357a4501ddfe92f46681b20a08311156112c55750600090506003611372565b8460ff16601b141580156112dd57508460ff16601c14155b156112ee5750600090506004611372565b6040805160008082526020820180845289905260ff881692820192909252606081018690526080810185905260019060a0016020604051602081039080840390855afa158015611342573d6000803e3d6000fd5b5050604051601f1901519150506001600160a01b03811661136b57600060019250925050611372565b9150600090505b94509492505050565b600081600481111561138f5761138f61197a565b036113975750565b60018160048111156113ab576113ab61197a565b036113f85760405162461bcd60e51b815260206004820152601860248201527f45434453413a20696e76616c6964207369676e6174757265000000000000000060448201526064016105f9565b600281600481111561140c5761140c61197a565b036114595760405162461bcd60e51b815260206004820152601f60248201527f45434453413a20696e76616c6964207369676e6174757265206c656e6774680060448201526064016105f9565b600381600481111561146d5761146d61197a565b036114c55760405162461bcd60e51b815260206004820152602260248201527f45434453413a20696e76616c6964207369676e6174757265202773272076616c604482015261756560f01b60648201526084016105f9565b60048160048111156114d9576114d961197a565b036115315760405162461bcd60e51b815260206004820152602260248201527f45434453413a20696e76616c6964207369676e6174757265202776272076616c604482015261756560f01b60648201526084016105f9565b50565b600080806000198587098587029250828110838203039150508060000361156e57838281611564576115646119fe565b04925050506106fb565b80841161157a57600080fd5b60008486880960026001871981018816978890046003810283188082028403028082028403028082028403028082028403028082028403029081029092039091026000889003889004909101858311909403939093029303949094049190911702949350505050565b600060208083528351808285015260005b81811015611610578581018301518582016040015282016115f4565b506000604082860101526040601f19601f8301168501019250505092915050565b60006020828403121561164357600080fd5b5035919050565b80356001600160a01b038116811461166157600080fd5b919050565b6000806040838503121561167957600080fd5b6116828361164a565b946020939093013593505050565b634e487b7160e01b600052604160045260246000fd5b600082601f8301126116b757600080fd5b813567ffffffffffffffff808211156116d2576116d2611690565b604051601f8301601f19908116603f011681019082821181831017156116fa576116fa611690565b8160405283815286602085880101111561171357600080fd5b836020870160208301376000602085830101528094505050505092915050565b6000806000806080858703121561174957600080fd5b6117528561164a565b93506117606020860161164a565b9250604085013567ffffffffffffffff8082111561177d57600080fd5b611789888389016116a6565b9350606087013591508082111561179f57600080fd5b506117ac878288016116a6565b91505092959194509250565b6000806000606084860312156117cd57600080fd5b6117d68461164a565b92506117e46020850161164a565b9150604084013590509250925092565b60006020828403121561180657600080fd5b6106fb8261164a565b60006080828403121561182157600080fd5b6040516080810181811067ffffffffffffffff8211171561184457611844611690565b8060405250809150823581526020830135602082015260408301356040820152606083013560608201525092915050565b60008060a0838503121561188857600080fd5b611892848461180f565b91506118a06080840161164a565b90509250929050565b600080600080600080600060e0888a0312156118c457600080fd5b6118cd8861164a565b96506118db6020890161164a565b95506040880135945060608801359350608088013560ff811681146118ff57600080fd5b9699959850939692959460a0840135945060c09093013592915050565b6000806040838503121561192f57600080fd5b6119388361164a565b91506118a06020840161164a565b600181811c9082168061195a57607f821691505b60208210810361115c57634e487b7160e01b600052602260045260246000fd5b634e487b7160e01b600052602160045260246000fd5b60208101600283106119b257634e487b7160e01b600052602160045260246000fd5b91905290565b6000602082840312156119ca57600080fd5b5051919050565b634e487b7160e01b600052601160045260246000fd5b8082028115828204841417610482576104826119d1565b634e487b7160e01b600052601260045260246000fd5b600082611a3157634e487b7160e01b600052601260045260246000fd5b500490565b601f821115611a8057600081815260208120601f850160051c81016020861015611a5d5750805b601f850160051c820191505b81811015611a7c57828155600101611a69565b5050505b505050565b815167ffffffffffffffff811115611a9f57611a9f611690565b611ab381611aad8454611946565b84611a36565b602080601f831160018114611ae85760008415611ad05750858301515b600019600386901b1c1916600185901b178555611a7c565b600085815260208120601f198616915b82811015611b1757888601518255948401946001909101908401611af8565b5085821015611b355787850151600019600388901b60f8161c191681555b5050505050600190811b01905550565b80820180821115610482576104826119d1565b6001600160a01b0384811682528316602082015260c081016111d26040830184805182526020810151602083015260408101516040830152606081015160608301525050565b6020808252602b908201527f496e697469616c697a61626c653a20636f6e7472616374206973206e6f74206960408201526a6e697469616c697a696e6760a81b60608201526080019056fea2646970667358221220395b820cb46dad214c7a0743c389a2b2a56a3e16def5d25e12c797ced726900f64736f6c63430008150033",
    "linkReferences": {}
  },
  "methodIdentifiers": {
    "DOMAIN_SEPARATOR()": "3644e515",
    "allowance(address,address)": "dd62ed3e",
    "approve(address,uint256)": "095ea7b3",
    "asset()": "38d52e0f",
    "balanceOf(address)": "70a08231",
    "burn((uint256,uint256,uint256,uint256),address)": "8c490d51",
    "convertToAssets(uint256)": "07a2d13a",
    "convertToShares(uint256)": "c6e6f592",
    "convertToUnderlying(uint256)": "1dc7f521",
    "decimals()": "313ce567",
    "decreaseAllowance(address,uint256)": "a457c2d7",
    "increaseAllowance(address,uint256)": "39509351",
    "initialize(address,address,string,string)": "2016a0d2",
    "maxDeposit(address)": "402d267d",
    "mint((uint256,uint256,uint256,uint256),address)": "6736deee",
    "name()": "06fdde03",
    "nonces(address)": "7ecebe00",
    "permit(address,address,uint256,uint256,uint8,bytes32,bytes32)": "d505accf",
    "previewDeposit(uint256)": "ef8b30f7",
    "previewRedeem(uint256)": "4cdad506",
    "previewWithdraw(uint256)": "0a28a477",
    "sharesOf(address)": "f5eb42dc",
    "symbol()": "95d89b41",
    "totalAssets()": "01e1d114",
    "totalShares()": "3a98ef39",
    "totalSupply()": "18160ddd",
    "transfer(address,uint256)": "a9059cbb",
    "transferFrom(address,address,uint256)": "23b872dd"
  },
  "id": 23
}