{
  "abi": [
    {
      "inputs": [],
      "stateMutability": "nonpayable",
      "type": "constructor"
    },
    {
      "inputs": [],
      "name": "OZError03",
      "type": "error"
    },
    {
      "inputs": [
        {
          "internalType": "address",
          "name": "from",
          "type": "address"
        },
        {
          "internalType": "address",
          "name": "to",
          "type": "address"
        }
      ],
      "name": "OZError04",
      "type": "error"
    },
    {
      "inputs": [
        {
          "internalType": "uint256",
          "name": "amount",
          "type": "uint256"
        }
      ],
      "name": "OZError05",
      "type": "error"
    },
    {
      "inputs": [
        {
          "internalType": "address",
          "name": "sender",
          "type": "address"
        },
        {
          "internalType": "uint256",
          "name": "accountShares",
          "type": "uint256"
        },
        {
          "internalType": "uint256",
          "name": "shares",
          "type": "uint256"
        }
      ],
      "name": "OZError06",
      "type": "error"
    },
    {
      "inputs": [
        {
          "internalType": "address",
          "name": "from",
          "type": "address"
        },
        {
          "internalType": "uint256",
          "name": "fromShares",
          "type": "uint256"
        },
        {
          "internalType": "uint256",
          "name": "shares",
          "type": "uint256"
        }
      ],
      "name": "OZError07",
      "type": "error"
    },
    {
      "inputs": [
        {
          "internalType": "uint256",
          "name": "deadline",
          "type": "uint256"
        },
        {
          "internalType": "uint256",
          "name": "blockTimestamp",
          "type": "uint256"
        }
      ],
      "name": "OZError08",
      "type": "error"
    },
    {
      "inputs": [
        {
          "internalType": "address",
          "name": "owner",
          "type": "address"
        },
        {
          "internalType": "address",
          "name": "spender",
          "type": "address"
        }
      ],
      "name": "OZError09",
      "type": "error"
    },
    {
      "anonymous": false,
      "inputs": [
        {
          "indexed": true,
          "internalType": "address",
          "name": "owner",
          "type": "address"
        },
        {
          "indexed": true,
          "internalType": "address",
          "name": "spender",
          "type": "address"
        },
        {
          "indexed": false,
          "internalType": "uint256",
          "name": "value",
          "type": "uint256"
        }
      ],
      "name": "Approval",
      "type": "event"
    },
    {
      "anonymous": false,
      "inputs": [
        {
          "indexed": false,
          "internalType": "uint8",
          "name": "version",
          "type": "uint8"
        }
      ],
      "name": "Initialized",
      "type": "event"
    },
    {
      "anonymous": false,
      "inputs": [
        {
          "indexed": true,
          "internalType": "address",
          "name": "from",
          "type": "address"
        },
        {
          "indexed": true,
          "internalType": "address",
          "name": "to",
          "type": "address"
        },
        {
          "indexed": false,
          "internalType": "uint256",
          "name": "value",
          "type": "uint256"
        }
      ],
      "name": "Transfer",
      "type": "event"
    },
    {
      "inputs": [],
      "name": "DOMAIN_SEPARATOR",
      "outputs": [
        {
          "internalType": "bytes32",
          "name": "",
          "type": "bytes32"
        }
      ],
      "stateMutability": "view",
      "type": "function"
    },
    {
      "inputs": [],
      "name": "FORMAT_DECIMALS",
      "outputs": [
        {
          "internalType": "uint256",
          "name": "",
          "type": "uint256"
        }
      ],
      "stateMutability": "view",
      "type": "function"
    },
    {
      "inputs": [
        {
          "internalType": "address",
          "name": "owner",
          "type": "address"
        },
        {
          "internalType": "address",
          "name": "spender",
          "type": "address"
        }
      ],
      "name": "allowance",
      "outputs": [
        {
          "internalType": "uint256",
          "name": "",
          "type": "uint256"
        }
      ],
      "stateMutability": "view",
      "type": "function"
    },
    {
      "inputs": [
        {
          "internalType": "address",
          "name": "spender",
          "type": "address"
        },
        {
          "internalType": "uint256",
          "name": "amount",
          "type": "uint256"
        }
      ],
      "name": "approve",
      "outputs": [
        {
          "internalType": "bool",
          "name": "",
          "type": "bool"
        }
      ],
      "stateMutability": "nonpayable",
      "type": "function"
    },
    {
      "inputs": [],
      "name": "asset",
      "outputs": [
        {
          "internalType": "address",
          "name": "",
          "type": "address"
        }
      ],
      "stateMutability": "view",
      "type": "function"
    },
    {
      "inputs": [
        {
          "internalType": "address",
          "name": "account_",
          "type": "address"
        }
      ],
      "name": "balanceOf",
      "outputs": [
        {
          "internalType": "uint256",
          "name": "",
          "type": "uint256"
        }
      ],
      "stateMutability": "view",
      "type": "function"
    },
    {
      "inputs": [
        {
          "internalType": "uint256",
          "name": "shares",
          "type": "uint256"
        }
      ],
      "name": "convertToAssets",
      "outputs": [
        {
          "internalType": "uint256",
          "name": "assets",
          "type": "uint256"
        }
      ],
      "stateMutability": "view",
      "type": "function"
    },
    {
      "inputs": [
        {
          "internalType": "uint256",
          "name": "assets",
          "type": "uint256"
        }
      ],
      "name": "convertToShares",
      "outputs": [
        {
          "internalType": "uint256",
          "name": "shares",
          "type": "uint256"
        }
      ],
      "stateMutability": "view",
      "type": "function"
    },
    {
      "inputs": [
        {
          "internalType": "uint256",
          "name": "shares_",
          "type": "uint256"
        }
      ],
      "name": "convertToUnderlying",
      "outputs": [
        {
          "internalType": "uint256",
          "name": "amountUnderlying",
          "type": "uint256"
        }
      ],
      "stateMutability": "view",
      "type": "function"
    },
    {
      "inputs": [],
      "name": "decimals",
      "outputs": [
        {
          "internalType": "uint8",
          "name": "",
          "type": "uint8"
        }
      ],
      "stateMutability": "pure",
      "type": "function"
    },
    {
      "inputs": [
        {
          "internalType": "address",
          "name": "spender",
          "type": "address"
        },
        {
          "internalType": "uint256",
          "name": "subtractedValue",
          "type": "uint256"
        }
      ],
      "name": "decreaseAllowance",
      "outputs": [
        {
          "internalType": "bool",
          "name": "",
          "type": "bool"
        }
      ],
      "stateMutability": "nonpayable",
      "type": "function"
    },
    {
      "inputs": [
        {
          "internalType": "address",
          "name": "user_",
          "type": "address"
        }
      ],
      "name": "earned",
      "outputs": [
        {
          "internalType": "uint256",
          "name": "",
          "type": "uint256"
        }
      ],
      "stateMutability": "view",
      "type": "function"
    },
    {
      "inputs": [],
      "name": "getReward",
      "outputs": [],
      "stateMutability": "nonpayable",
      "type": "function"
    },
    {
      "inputs": [],
      "name": "getRewardRate",
      "outputs": [
        {
          "internalType": "uint256",
          "name": "",
          "type": "uint256"
        }
      ],
      "stateMutability": "view",
      "type": "function"
    },
    {
      "inputs": [
        {
          "internalType": "address",
          "name": "spender",
          "type": "address"
        },
        {
          "internalType": "uint256",
          "name": "addedValue",
          "type": "uint256"
        }
      ],
      "name": "increaseAllowance",
      "outputs": [
        {
          "internalType": "bool",
          "name": "",
          "type": "bool"
        }
      ],
      "stateMutability": "nonpayable",
      "type": "function"
    },
    {
      "inputs": [
        {
          "internalType": "address",
          "name": "underlying_",
          "type": "address"
        },
        {
          "internalType": "address",
          "name": "diamond_",
          "type": "address"
        },
        {
          "internalType": "string",
          "name": "name_",
          "type": "string"
        },
        {
          "internalType": "string",
          "name": "symbol_",
          "type": "string"
        }
      ],
      "name": "initialize",
      "outputs": [],
      "stateMutability": "nonpayable",
      "type": "function"
    },
    {
      "inputs": [],
      "name": "lastTimeRewardApplicable",
      "outputs": [
        {
          "internalType": "uint256",
          "name": "",
          "type": "uint256"
        }
      ],
      "stateMutability": "view",
      "type": "function"
    },
    {
      "inputs": [
        {
          "internalType": "bytes",
          "name": "data_",
          "type": "bytes"
        }
      ],
      "name": "mint",
      "outputs": [
        {
          "internalType": "uint256",
          "name": "",
          "type": "uint256"
        }
      ],
      "stateMutability": "nonpayable",
      "type": "function"
    },
    {
      "inputs": [],
      "name": "name",
      "outputs": [
        {
          "internalType": "string",
          "name": "",
          "type": "string"
        }
      ],
      "stateMutability": "view",
      "type": "function"
    },
    {
      "inputs": [
        {
          "internalType": "address",
          "name": "owner",
          "type": "address"
        }
      ],
      "name": "nonces",
      "outputs": [
        {
          "internalType": "uint256",
          "name": "",
          "type": "uint256"
        }
      ],
      "stateMutability": "view",
      "type": "function"
    },
    {
      "inputs": [
        {
          "internalType": "uint256",
          "name": "amount_",
          "type": "uint256"
        }
      ],
      "name": "notifyRewardAmount",
      "outputs": [],
      "stateMutability": "nonpayable",
      "type": "function"
    },
    {
      "inputs": [
        {
          "internalType": "address",
          "name": "owner",
          "type": "address"
        },
        {
          "internalType": "address",
          "name": "spender",
          "type": "address"
        },
        {
          "internalType": "uint256",
          "name": "value",
          "type": "uint256"
        },
        {
          "internalType": "uint256",
          "name": "deadline",
          "type": "uint256"
        },
        {
          "internalType": "uint8",
          "name": "v",
          "type": "uint8"
        },
        {
          "internalType": "bytes32",
          "name": "r",
          "type": "bytes32"
        },
        {
          "internalType": "bytes32",
          "name": "s_",
          "type": "bytes32"
        }
      ],
      "name": "permit",
      "outputs": [],
      "stateMutability": "nonpayable",
      "type": "function"
    },
    {
      "inputs": [
        {
          "internalType": "uint256",
          "name": "assets_",
          "type": "uint256"
        }
      ],
      "name": "previewMint",
      "outputs": [
        {
          "internalType": "uint256",
          "name": "",
          "type": "uint256"
        }
      ],
      "stateMutability": "view",
      "type": "function"
    },
    {
      "inputs": [
        {
          "internalType": "uint256",
          "name": "shares_",
          "type": "uint256"
        }
      ],
      "name": "previewRedeem",
      "outputs": [
        {
          "internalType": "uint256",
          "name": "",
          "type": "uint256"
        }
      ],
      "stateMutability": "view",
      "type": "function"
    },
    {
      "inputs": [
        {
          "internalType": "uint256",
          "name": "assets",
          "type": "uint256"
        }
      ],
      "name": "previewWithdraw",
      "outputs": [
        {
          "internalType": "uint256",
          "name": "",
          "type": "uint256"
        }
      ],
      "stateMutability": "view",
      "type": "function"
    },
    {
      "inputs": [
        {
          "internalType": "bytes",
          "name": "data_",
          "type": "bytes"
        }
      ],
      "name": "redeem",
      "outputs": [
        {
          "internalType": "uint256",
          "name": "",
          "type": "uint256"
        }
      ],
      "stateMutability": "nonpayable",
      "type": "function"
    },
    {
      "inputs": [],
      "name": "rewardPerToken",
      "outputs": [
        {
          "internalType": "uint256",
          "name": "",
          "type": "uint256"
        }
      ],
      "stateMutability": "view",
      "type": "function"
    },
    {
      "inputs": [
        {
          "internalType": "uint256",
          "name": "duration_",
          "type": "uint256"
        }
      ],
      "name": "setRewardsDuration",
      "outputs": [],
      "stateMutability": "nonpayable",
      "type": "function"
    },
    {
      "inputs": [
        {
          "internalType": "address",
          "name": "account_",
          "type": "address"
        }
      ],
      "name": "sharesOf",
      "outputs": [
        {
          "internalType": "uint256",
          "name": "",
          "type": "uint256"
        }
      ],
      "stateMutability": "view",
      "type": "function"
    },
    {
      "inputs": [],
      "name": "symbol",
      "outputs": [
        {
          "internalType": "string",
          "name": "",
          "type": "string"
        }
      ],
      "stateMutability": "view",
      "type": "function"
    },
    {
      "inputs": [],
      "name": "totalAssets",
      "outputs": [
        {
          "internalType": "uint256",
          "name": "",
          "type": "uint256"
        }
      ],
      "stateMutability": "view",
      "type": "function"
    },
    {
      "inputs": [],
      "name": "totalShares",
      "outputs": [
        {
          "internalType": "uint256",
          "name": "",
          "type": "uint256"
        }
      ],
      "stateMutability": "view",
      "type": "function"
    },
    {
      "inputs": [],
      "name": "totalSupply",
      "outputs": [
        {
          "internalType": "uint256",
          "name": "",
          "type": "uint256"
        }
      ],
      "stateMutability": "view",
      "type": "function"
    },
    {
      "inputs": [
        {
          "internalType": "address",
          "name": "to",
          "type": "address"
        },
        {
          "internalType": "uint256",
          "name": "amount",
          "type": "uint256"
        }
      ],
      "name": "transfer",
      "outputs": [
        {
          "internalType": "bool",
          "name": "",
          "type": "bool"
        }
      ],
      "stateMutability": "nonpayable",
      "type": "function"
    },
    {
      "inputs": [
        {
          "internalType": "address",
          "name": "from",
          "type": "address"
        },
        {
          "internalType": "address",
          "name": "to",
          "type": "address"
        },
        {
          "internalType": "uint256",
          "name": "amount",
          "type": "uint256"
        }
      ],
      "name": "transferFrom",
      "outputs": [
        {
          "internalType": "bool",
          "name": "",
          "type": "bool"
        }
      ],
      "stateMutability": "nonpayable",
      "type": "function"
    }
  ],
  "bytecode": {
    "object": "0x608060405234801561001057600080fd5b5061001961001e565b6100db565b602054610100900460ff161561008a5760405162461bcd60e51b815260206004820152602760248201527f496e697469616c697a61626c653a20636f6e747261637420697320696e697469604482015266616c697a696e6760c81b606482015260840160405180910390fd5b60205460ff90811610156100d9576020805460ff191660ff90811782556040519081527f7f26b83ff96e1f2b6a682f133852f6798a09c465da95921460cefb3847402498910160405180910390a15b565b611d0e806100ea6000396000f3fe608060405234801561001057600080fd5b50600436106102105760003560e01c80634cdad50611610125578063a457c2d7116100ad578063cc1a378f1161007c578063cc1a378f14610332578063cd3daf9d1461037c578063d505accf146103f3578063dd62ed3e14610406578063f5eb42dc1461041957600080fd5b8063a457c2d7146103ba578063a9059cbb146103cd578063b3d7f6b9146103e0578063c6e6f5921461028f57600080fd5b80637ecebe00116100f45780637ecebe001461038357806380faa57d1461037c57806395d89b41146103965780639945e3d31461039e578063a01c8774146103b157600080fd5b80634cdad5061461034357806370a08231146103565780637ba0e2e7146103695780637e1a37861461037c57600080fd5b80632016a0d2116101a857806338d52e0f1161017757806338d52e0f146102fc57806339509351146103175780633a98ef391461032a5780633c6b16ab146103325780633d18b912146102d057600080fd5b80632016a0d2146102bd57806323b872dd146102d2578063313ce567146102e55780633644e515146102f457600080fd5b8063095ea7b3116101e4578063095ea7b31461026c5780630a28a4771461028f57806318160ddd146102a25780631dc7f521146102aa57600080fd5b80628cc2621461021557806301e1d1141461023c57806306fdde031461024457806307a2d13a14610259575b600080fd5b61022961022336600461165b565b50600090565b6040519081526020015b60405180910390f35b610229610442565b61024c610457565b60405161023391906116be565b6102296102673660046116d1565b6104e9565b61027f61027a3660046116ea565b6104fa565b6040519015158152602001610233565b61022961029d3660046116d1565b610510565b61022961051b565b6102296102b83660046116d1565b61053a565b6102d06102cb3660046117c2565b6105ca565b005b61027f6102e036600461184b565b6107cb565b60405160128152602001610233565b6102296107ed565b6056546040516001600160a01b039091168152602001610233565b61027f6103253660046116ea565b6107f7565b610229610818565b6102d06103403660046116d1565b50565b6102296103513660046116d1565b610829565b61022961036436600461165b565b610834565b61022961037736600461188c565b610856565b6000610229565b61022961039136600461165b565b6109c0565b61024c6109de565b6102296103ac36600461188c565b6109ed565b610229605d5481565b61027f6103c83660046116ea565b610b88565b61027f6103db3660046116ea565b610bc5565b6102296103ee3660046116d1565b610bd2565b6102d06104013660046118e4565b610bdd565b610229610414366004611955565b610cff565b61022961042736600461165b565b6001600160a01b031660009081526058602052604090205490565b6057546000906104529082610d2a565b905090565b6060605b80546104669061198e565b80601f01602080910402602001604051908101604052809291908181526020018280546104929061198e565b80156104df5780601f106104b4576101008083540402835291602001916104df565b820191906000526020600020905b8154815290600101906020018083116104c257829003601f168201915b5050505050905090565b60006104f482610d6d565b92915050565b6000610507338484610e19565b50600192915050565b60006104f482610ec8565b6000610525610818565b1561022357610452610535610818565b610d6d565b6000610544610818565b60555460405163a4fc284b60e01b81526001600160a01b039091169063a4fc284b90610575906001906004016119d8565b602060405180830381865afa158015610592573d6000803e3d6000fd5b505050506040513d601f19601f820116820180604052508101906105b69190611a00565b6105c09084611a2f565b6104f49190611a46565b602054610100900460ff16158080156105ea5750602054600160ff909116105b806106045750303b158015610604575060205460ff166001145b61066c5760405162461bcd60e51b815260206004820152602e60248201527f496e697469616c697a61626c653a20636f6e747261637420697320616c72656160448201526d191e481a5b9a5d1a585b1a5e995960921b60648201526084015b60405180910390fd5b6020805460ff19166001179055801561068f576020805461ff0019166101001790555b605b61069b8482611ab7565b50605c6106a88382611ab7565b50605580546001600160a01b038087166001600160a01b03199283161790925560568054928816929091169190911790556040805180820190915260018152603160f81b60208201526106fc908490610f54565b846001600160a01b031663313ce5676040518163ffffffff1660e01b8152600401602060405180830381865afa15801561073a573d6000803e3d6000fd5b505050506040513d601f19601f8201168201806040525081019061075e9190611b77565b60ff1660121461076f576001610776565b64e8d4a510005b64ffffffffff16605d5580156107c4576020805461ff0019168155604051600181527f7f26b83ff96e1f2b6a682f133852f6798a09c465da95921460cefb3847402498910160405180910390a15b5050505050565b60006107d8843384610f89565b6107e3848484610fd7565b5060019392505050565b60006104526110f5565b60006105073384846108093388610cff565b6108139190611b94565b610e19565b605754600090610452906001610d2a565b60006104f482611170565b6001600160a01b0381166000908152605860205260408120546104f4906104e9565b60003381601d556000601b556001600160a01b0381161561089c576001600160a01b0381166000908152601f60209081526040808320839055601d54601e909252909120555b600080848060200190518101906108b39190611ba7565b605d5482519294509092506000916108ca916111fc565b6055549091506001600160a01b031663b50f68fd6108f06056546001600160a01b031690565b604080516001600160e01b031960e085901b1681526001600160a01b0390921660048301523360248301528651604483015260208701516064830152860151608482015260a401600060405180830381600087803b15801561095157600080fd5b505af1158015610965573d6000803e3d6000fd5b505050506000610973610818565b156109865761098182610bd2565b610988565b815b90506109968282600161120f565b6001600160a01b039092166000908152605860205260409020805483019055509250505b50919050565b6001600160a01b0381166000908152605960205260408120546104f4565b6060605c80546104669061198e565b60003381601d556000601b556001600160a01b03811615610a33576001600160a01b0381166000908152601f60209081526040808320839055601d54601e909252909120555b600083806020019051810190610a499190611c1c565b5050505090506000610a70336001600160a01b031660009081526058602052604090205490565b90506000610a7d83610510565b905080821015610ab057604051637ac073bf60e01b81523360048201526024810183905260448101829052606401610663565b6000610abb82610829565b6055546040516314370d6760e31b81529192506000916001600160a01b039091169063a1b86b3890610af39033908c90600401611c69565b6020604051808303816000875af1158015610b12573d6000803e3d6000fd5b505050506040513d601f19601f82011682018060405250810190610b369190611a00565b6055546001600160a01b03166000908152605860205260409020549091509350610b628285600061120f565b6055546001600160a01b0316600090815260586020526040812055979650505050505050565b600080610b953385610cff565b905082811015610bb8576040516361ceb1d360e01b815260040160405180910390fd5b6107e33385858403610e19565b6000610507338484610fd7565b60006104f48261126d565b83421115610c075760405163184f1e0160e11b815260048101859052426024820152604401610663565b60007f6e71edae12b1b97f4d1f60370fef10105fa2faae0126114a169c64845d6126c9888888610c368c611282565b6040805160208101969096526001600160a01b0394851690860152929091166060840152608083015260a082015260c0810186905260e0016040516020818303038152906040528051906020012090506000610c91826112a8565b90506000610ca1828787876112f6565b9050896001600160a01b0316816001600160a01b031614610ce857604051635091bef560e01b81526001600160a01b03808c1660048301528a166024820152604401610663565b610cf38a8a8a610e19565b50505050505050505050565b6001600160a01b039182166000908152605a6020908152604080832093909416825291909152205490565b60006fffffffffffffffffffffffffffffffff81836001811115610d5057610d506119c2565b14610d5d57838116610d65565b608084901c81165b949350505050565b60006104f4610d7a610818565b15610d8c57610d87610818565b610d8f565b60015b605560009054906101000a90046001600160a01b03166001600160a01b03166345089e296040518163ffffffff1660e01b8152600401602060405180830381865afa158015610de2573d6000803e3d6000fd5b505050506040513d601f19601f82011682018060405250810190610e069190611a00565b610e109190611a46565b8390600161131e565b6001600160a01b0383161580610e3657506001600160a01b038216155b15610e6757604051637db368a160e01b81526001600160a01b03808516600483015283166024820152604401610663565b6001600160a01b038381166000818152605a602090815260408083209487168084529482529182902085905590518481527f8c5be1e5ebec7d5bd14f71427d1e84f3dd0314c0f7b2291e5b200ac8c7c3b925910160405180910390a3505050565b60006104f4610ed5610818565b605560009054906101000a90046001600160a01b03166001600160a01b03166345089e296040518163ffffffff1660e01b8152600401602060405180830381865afa158015610f28573d6000803e3d6000fd5b505050506040513d601f19601f82011682018060405250810190610f4c9190611a00565b84919061133c565b602054610100900460ff16610f7b5760405162461bcd60e51b815260040161066390611c8d565b610f858282611362565b5050565b6000610f958484610cff565b90506000198114610fd15781811015610fc4576040516306052b7f60e01b815260048101839052602401610663565b610fd18484848403610e19565b50505050565b6001600160a01b0383161580610ff457506001600160a01b038216155b1561102557604051637db368a160e01b81526001600160a01b03808516600483015283166024820152604401610663565b600061103082610510565b6001600160a01b03851660009081526058602052604090205490915081811015611086576040516315c29bad60e31b81526001600160a01b03861660048201526024810182905260448101839052606401610663565b6001600160a01b0380861660008181526058602052604080822086860390559287168082529083902080548601905591517fddf252ad1be2c89b69c2b068fc378daa952ba7f163c4a11628f55a4df523b3ef906110e69087815260200190565b60405180910390a35050505050565b60006104527f8b73c3c69bb8fe3d512ecc4cf759cc79239f7b179b0ffacaa9a75d522b39400f61112460215490565b6022546040805160208101859052908101839052606081018290524660808201523060a082015260009060c0016040516020818303038152906040528051906020012090509392505050565b60006104f4605560009054906101000a90046001600160a01b03166001600160a01b03166345089e296040518163ffffffff1660e01b8152600401602060405180830381865afa1580156111c8573d6000803e3d6000fd5b505050506040513d601f19601f820116820180604052508101906111ec9190611a00565b6111f461051b565b84919061131e565b60006112088284611a46565b9392505050565b60575460009061121f9082610d2a565b905060006112396001605754610d2a90919063ffffffff16565b9050821561124c57908401908301611255565b90849003908390035b61126382608083901b611b94565b6057555050505050565b60006104f461127a610818565b6111f4610442565b6001600160a01b03811660009081526059602052604090208054600181018255906109ba565b60006104f46112b56110f5565b8360405161190160f01b6020820152602281018390526042810182905260009060620160405160208183030381529060405280519060200120905092915050565b6000806000611307878787876113a3565b9150915061131481611490565b5095945050505050565b600082600019048411830215820261133557600080fd5b5091020490565b600082600019048411830215820261135357600080fd5b50910281810615159190040190565b602054610100900460ff166113895760405162461bcd60e51b815260040161066390611c8d565b815160209283012081519190920120602191909155602255565b6000807f7fffffffffffffffffffffffffffffff5d576e7357a4501ddfe92f46681b20a08311156113da5750600090506003611487565b8460ff16601b141580156113f257508460ff16601c14155b156114035750600090506004611487565b6040805160008082526020820180845289905260ff881692820192909252606081018690526080810185905260019060a0016020604051602081039080840390855afa158015611457573d6000803e3d6000fd5b5050604051601f1901519150506001600160a01b03811661148057600060019250925050611487565b9150600090505b94509492505050565b60008160048111156114a4576114a46119c2565b036114ac5750565b60018160048111156114c0576114c06119c2565b0361150d5760405162461bcd60e51b815260206004820152601860248201527f45434453413a20696e76616c6964207369676e617475726500000000000000006044820152606401610663565b6002816004811115611521576115216119c2565b0361156e5760405162461bcd60e51b815260206004820152601f60248201527f45434453413a20696e76616c6964207369676e6174757265206c656e677468006044820152606401610663565b6003816004811115611582576115826119c2565b036115da5760405162461bcd60e51b815260206004820152602260248201527f45434453413a20696e76616c6964207369676e6174757265202773272076616c604482015261756560f01b6064820152608401610663565b60048160048111156115ee576115ee6119c2565b036103405760405162461bcd60e51b815260206004820152602260248201527f45434453413a20696e76616c6964207369676e6174757265202776272076616c604482015261756560f01b6064820152608401610663565b6001600160a01b038116811461034057600080fd5b60006020828403121561166d57600080fd5b813561120881611646565b6000815180845260005b8181101561169e57602081850181015186830182015201611682565b506000602082860101526020601f19601f83011685010191505092915050565b6020815260006112086020830184611678565b6000602082840312156116e357600080fd5b5035919050565b600080604083850312156116fd57600080fd5b823561170881611646565b946020939093013593505050565b634e487b7160e01b600052604160045260246000fd5b600067ffffffffffffffff8084111561174757611747611716565b604051601f8501601f19908116603f0116810190828211818310171561176f5761176f611716565b8160405280935085815286868601111561178857600080fd5b858560208301376000602087830101525050509392505050565b600082601f8301126117b357600080fd5b6112088383356020850161172c565b600080600080608085870312156117d857600080fd5b84356117e381611646565b935060208501356117f381611646565b9250604085013567ffffffffffffffff8082111561181057600080fd5b61181c888389016117a2565b9350606087013591508082111561183257600080fd5b5061183f878288016117a2565b91505092959194509250565b60008060006060848603121561186057600080fd5b833561186b81611646565b9250602084013561187b81611646565b929592945050506040919091013590565b60006020828403121561189e57600080fd5b813567ffffffffffffffff8111156118b557600080fd5b8201601f810184136118c657600080fd5b610d658482356020840161172c565b60ff8116811461034057600080fd5b600080600080600080600060e0888a0312156118ff57600080fd5b873561190a81611646565b9650602088013561191a81611646565b955060408801359450606088013593506080880135611938816118d5565b9699959850939692959460a0840135945060c09093013592915050565b6000806040838503121561196857600080fd5b823561197381611646565b9150602083013561198381611646565b809150509250929050565b600181811c908216806119a257607f821691505b6020821081036109ba57634e487b7160e01b600052602260045260246000fd5b634e487b7160e01b600052602160045260246000fd5b60208101600283106119fa57634e487b7160e01b600052602160045260246000fd5b91905290565b600060208284031215611a1257600080fd5b5051919050565b634e487b7160e01b600052601160045260246000fd5b80820281158282048414176104f4576104f4611a19565b600082611a6357634e487b7160e01b600052601260045260246000fd5b500490565b601f821115611ab257600081815260208120601f850160051c81016020861015611a8f5750805b601f850160051c820191505b81811015611aae57828155600101611a9b565b5050505b505050565b815167ffffffffffffffff811115611ad157611ad1611716565b611ae581611adf845461198e565b84611a68565b602080601f831160018114611b1a5760008415611b025750858301515b600019600386901b1c1916600185901b178555611aae565b600085815260208120601f198616915b82811015611b4957888601518255948401946001909101908401611b2a565b5085821015611b675787850151600019600388901b60f8161c191681555b5050505050600190811b01905550565b600060208284031215611b8957600080fd5b8151611208816118d5565b808201808211156104f4576104f4611a19565b6000808284036080811215611bbb57600080fd5b6060811215611bc957600080fd5b506040516060810181811067ffffffffffffffff82111715611bed57611bed611716565b806040525083518152602084015160208201526040840151604082015280925050606083015161198381611646565b600080600080600060a08688031215611c3457600080fd5b855194506020860151935060408601519250606086015191506080860151611c5b81611646565b809150509295509295909350565b6001600160a01b0383168152604060208201819052600090610d6590830184611678565b6020808252602b908201527f496e697469616c697a61626c653a20636f6e7472616374206973206e6f74206960408201526a6e697469616c697a696e6760a81b60608201526080019056fea26469706673582212201bcc5098798581fdaba27607d5a84b9e3e431f00348e7738f8d56969e0ca44a164736f6c63430008150033",
    "linkReferences": {}
  },
  "methodIdentifiers": {
    "DOMAIN_SEPARATOR()": "3644e515",
    "FORMAT_DECIMALS()": "a01c8774",
    "allowance(address,address)": "dd62ed3e",
    "approve(address,uint256)": "095ea7b3",
    "asset()": "38d52e0f",
    "balanceOf(address)": "70a08231",
    "convertToAssets(uint256)": "07a2d13a",
    "convertToShares(uint256)": "c6e6f592",
    "convertToUnderlying(uint256)": "1dc7f521",
    "decimals()": "313ce567",
    "decreaseAllowance(address,uint256)": "a457c2d7",
    "earned(address)": "008cc262",
    "getReward()": "3d18b912",
    "getRewardRate()": "7e1a3786",
    "increaseAllowance(address,uint256)": "39509351",
    "initialize(address,address,string,string)": "2016a0d2",
    "lastTimeRewardApplicable()": "80faa57d",
    "mint(bytes)": "7ba0e2e7",
    "name()": "06fdde03",
    "nonces(address)": "7ecebe00",
    "notifyRewardAmount(uint256)": "3c6b16ab",
    "permit(address,address,uint256,uint256,uint8,bytes32,bytes32)": "d505accf",
    "previewMint(uint256)": "b3d7f6b9",
    "previewRedeem(uint256)": "4cdad506",
    "previewWithdraw(uint256)": "0a28a477",
    "redeem(bytes)": "9945e3d3",
    "rewardPerToken()": "cd3daf9d",
    "setRewardsDuration(uint256)": "cc1a378f",
    "sharesOf(address)": "f5eb42dc",
    "symbol()": "95d89b41",
    "totalAssets()": "01e1d114",
    "totalShares()": "3a98ef39",
    "totalSupply()": "18160ddd",
    "transfer(address,uint256)": "a9059cbb",
    "transferFrom(address,address,uint256)": "23b872dd"
  },
  "id": 34
}