{
  "abi": [
    {
      "inputs": [],
      "stateMutability": "nonpayable",
      "type": "constructor"
    },
    {
      "inputs": [
        {
          "internalType": "address",
          "name": "sender",
          "type": "address"
        },
        {
          "internalType": "uint256",
          "name": "shares",
          "type": "uint256"
        },
        {
          "internalType": "uint256",
          "name": "sharesNeeded",
          "type": "uint256"
        }
      ],
      "name": "ERC20InsufficientBalance",
      "type": "error"
    },
    {
      "inputs": [
        {
          "internalType": "address",
          "name": "receiver",
          "type": "address"
        }
      ],
      "name": "ERC20InvalidReceiver",
      "type": "error"
    },
    {
      "inputs": [
        {
          "internalType": "address",
          "name": "sender",
          "type": "address"
        }
      ],
      "name": "ERC20InvalidSender",
      "type": "error"
    },
    {
      "inputs": [
        {
          "internalType": "address",
          "name": "sender",
          "type": "address"
        },
        {
          "internalType": "uint256",
          "name": "shares",
          "type": "uint256"
        },
        {
          "internalType": "uint256",
          "name": "sharesNeeded",
          "type": "uint256"
        }
      ],
      "name": "USDMInsufficientBurnBalance",
      "type": "error"
    },
    {
      "inputs": [
        {
          "internalType": "address",
          "name": "account",
          "type": "address"
        }
      ],
      "name": "ozTokenInvalidMintReceiver",
      "type": "error"
    },
    {
      "anonymous": false,
      "inputs": [
        {
          "indexed": true,
          "internalType": "address",
          "name": "owner",
          "type": "address"
        },
        {
          "indexed": true,
          "internalType": "address",
          "name": "spender",
          "type": "address"
        },
        {
          "indexed": false,
          "internalType": "uint256",
          "name": "value",
          "type": "uint256"
        }
      ],
      "name": "Approval",
      "type": "event"
    },
    {
      "anonymous": false,
      "inputs": [
        {
          "indexed": true,
          "internalType": "address",
          "name": "caller",
          "type": "address"
        },
        {
          "indexed": true,
          "internalType": "address",
          "name": "owner",
          "type": "address"
        },
        {
          "indexed": false,
          "internalType": "uint256",
          "name": "assets",
          "type": "uint256"
        },
        {
          "indexed": false,
          "internalType": "uint256",
          "name": "shares",
          "type": "uint256"
        }
      ],
      "name": "Deposit",
      "type": "event"
    },
    {
      "anonymous": false,
      "inputs": [
        {
          "indexed": false,
          "internalType": "uint8",
          "name": "version",
          "type": "uint8"
        }
      ],
      "name": "Initialized",
      "type": "event"
    },
    {
      "anonymous": false,
      "inputs": [
        {
          "indexed": true,
          "internalType": "uint256",
          "name": "value",
          "type": "uint256"
        }
      ],
      "name": "RewardMultiplier",
      "type": "event"
    },
    {
      "anonymous": false,
      "inputs": [
        {
          "indexed": true,
          "internalType": "address",
          "name": "from",
          "type": "address"
        },
        {
          "indexed": true,
          "internalType": "address",
          "name": "to",
          "type": "address"
        },
        {
          "indexed": false,
          "internalType": "uint256",
          "name": "value",
          "type": "uint256"
        }
      ],
      "name": "Transfer",
      "type": "event"
    },
    {
      "anonymous": false,
      "inputs": [
        {
          "indexed": true,
          "internalType": "address",
          "name": "caller",
          "type": "address"
        },
        {
          "indexed": true,
          "internalType": "address",
          "name": "receiver",
          "type": "address"
        },
        {
          "indexed": true,
          "internalType": "address",
          "name": "owner",
          "type": "address"
        },
        {
          "indexed": false,
          "internalType": "uint256",
          "name": "assets",
          "type": "uint256"
        },
        {
          "indexed": false,
          "internalType": "uint256",
          "name": "shares",
          "type": "uint256"
        }
      ],
      "name": "Withdraw",
      "type": "event"
    },
    {
      "inputs": [
        {
          "internalType": "address",
          "name": "owner",
          "type": "address"
        },
        {
          "internalType": "address",
          "name": "spender",
          "type": "address"
        }
      ],
      "name": "allowance",
      "outputs": [
        {
          "internalType": "uint256",
          "name": "",
          "type": "uint256"
        }
      ],
      "stateMutability": "view",
      "type": "function"
    },
    {
      "inputs": [
        {
          "internalType": "address",
          "name": "spender",
          "type": "address"
        },
        {
          "internalType": "uint256",
          "name": "amount",
          "type": "uint256"
        }
      ],
      "name": "approve",
      "outputs": [
        {
          "internalType": "bool",
          "name": "",
          "type": "bool"
        }
      ],
      "stateMutability": "nonpayable",
      "type": "function"
    },
    {
      "inputs": [],
      "name": "asset",
      "outputs": [
        {
          "internalType": "address",
          "name": "",
          "type": "address"
        }
      ],
      "stateMutability": "view",
      "type": "function"
    },
    {
      "inputs": [
        {
          "internalType": "address",
          "name": "account_",
          "type": "address"
        }
      ],
      "name": "balanceOf",
      "outputs": [
        {
          "internalType": "uint256",
          "name": "",
          "type": "uint256"
        }
      ],
      "stateMutability": "view",
      "type": "function"
    },
    {
      "inputs": [
        {
          "components": [
            {
              "internalType": "uint256",
              "name": "ozAmountIn",
              "type": "uint256"
            },
            {
              "internalType": "uint256",
              "name": "minWethOut",
              "type": "uint256"
            },
            {
              "internalType": "uint256",
              "name": "bptAmountIn",
              "type": "uint256"
            }
          ],
          "internalType": "struct TradeAmountsOut",
          "name": "amts_",
          "type": "tuple"
        },
        {
          "internalType": "address",
          "name": "receiver_",
          "type": "address"
        },
        {
          "internalType": "uint8",
          "name": "v_",
          "type": "uint8"
        },
        {
          "internalType": "bytes32",
          "name": "r_",
          "type": "bytes32"
        },
        {
          "internalType": "bytes32",
          "name": "s_",
          "type": "bytes32"
        }
      ],
      "name": "burn",
      "outputs": [
        {
          "internalType": "uint256",
          "name": "",
          "type": "uint256"
        }
      ],
      "stateMutability": "nonpayable",
      "type": "function"
    },
    {
      "inputs": [
        {
          "internalType": "uint256",
          "name": "amount",
          "type": "uint256"
        },
        {
          "internalType": "address",
          "name": "receiver",
          "type": "address"
        }
      ],
      "name": "burn2",
      "outputs": [],
      "stateMutability": "nonpayable",
      "type": "function"
    },
    {
      "inputs": [
        {
          "internalType": "uint256",
          "name": "shares",
          "type": "uint256"
        }
      ],
      "name": "convertToAssets",
      "outputs": [
        {
          "internalType": "uint256",
          "name": "assets",
          "type": "uint256"
        }
      ],
      "stateMutability": "view",
      "type": "function"
    },
    {
      "inputs": [
        {
          "internalType": "uint256",
          "name": "assets",
          "type": "uint256"
        }
      ],
      "name": "convertToShares",
      "outputs": [
        {
          "internalType": "uint256",
          "name": "shares",
          "type": "uint256"
        }
      ],
      "stateMutability": "view",
      "type": "function"
    },
    {
      "inputs": [
        {
          "internalType": "uint256",
          "name": "shares_",
          "type": "uint256"
        }
      ],
      "name": "convertToUnderlying",
      "outputs": [
        {
          "internalType": "uint256",
          "name": "amountUnderlying",
          "type": "uint256"
        }
      ],
      "stateMutability": "view",
      "type": "function"
    },
    {
      "inputs": [],
      "name": "decimals",
      "outputs": [
        {
          "internalType": "uint8",
          "name": "",
          "type": "uint8"
        }
      ],
      "stateMutability": "view",
      "type": "function"
    },
    {
      "inputs": [
        {
          "internalType": "address",
          "name": "spender",
          "type": "address"
        },
        {
          "internalType": "uint256",
          "name": "subtractedValue",
          "type": "uint256"
        }
      ],
      "name": "decreaseAllowance",
      "outputs": [
        {
          "internalType": "bool",
          "name": "",
          "type": "bool"
        }
      ],
      "stateMutability": "nonpayable",
      "type": "function"
    },
    {
      "inputs": [
        {
          "internalType": "uint256",
          "name": "assets_",
          "type": "uint256"
        },
        {
          "internalType": "address",
          "name": "receiver_",
          "type": "address"
        }
      ],
      "name": "deposit",
      "outputs": [
        {
          "internalType": "uint256",
          "name": "",
          "type": "uint256"
        }
      ],
      "stateMutability": "nonpayable",
      "type": "function"
    },
    {
      "inputs": [
        {
          "internalType": "address",
          "name": "spender",
          "type": "address"
        },
        {
          "internalType": "uint256",
          "name": "addedValue",
          "type": "uint256"
        }
      ],
      "name": "increaseAllowance",
      "outputs": [
        {
          "internalType": "bool",
          "name": "",
          "type": "bool"
        }
      ],
      "stateMutability": "nonpayable",
      "type": "function"
    },
    {
      "inputs": [
        {
          "internalType": "address",
          "name": "underlying_",
          "type": "address"
        },
        {
          "internalType": "address",
          "name": "diamond_",
          "type": "address"
        },
        {
          "internalType": "string",
          "name": "name_",
          "type": "string"
        },
        {
          "internalType": "string",
          "name": "symbol_",
          "type": "string"
        }
      ],
      "name": "initialize",
      "outputs": [],
      "stateMutability": "nonpayable",
      "type": "function"
    },
    {
      "inputs": [
        {
          "internalType": "address",
          "name": "",
          "type": "address"
        }
      ],
      "name": "maxDeposit",
      "outputs": [
        {
          "internalType": "uint256",
          "name": "",
          "type": "uint256"
        }
      ],
      "stateMutability": "view",
      "type": "function"
    },
    {
      "inputs": [
        {
          "internalType": "address",
          "name": "",
          "type": "address"
        }
      ],
      "name": "maxMint",
      "outputs": [
        {
          "internalType": "uint256",
          "name": "",
          "type": "uint256"
        }
      ],
      "stateMutability": "view",
      "type": "function"
    },
    {
      "inputs": [
        {
          "internalType": "address",
          "name": "owner",
          "type": "address"
        }
      ],
      "name": "maxRedeem",
      "outputs": [
        {
          "internalType": "uint256",
          "name": "",
          "type": "uint256"
        }
      ],
      "stateMutability": "view",
      "type": "function"
    },
    {
      "inputs": [
        {
          "internalType": "address",
          "name": "owner",
          "type": "address"
        }
      ],
      "name": "maxWithdraw",
      "outputs": [
        {
          "internalType": "uint256",
          "name": "",
          "type": "uint256"
        }
      ],
      "stateMutability": "view",
      "type": "function"
    },
    {
      "inputs": [
        {
          "internalType": "uint256",
          "name": "shares",
          "type": "uint256"
        },
        {
          "internalType": "address",
          "name": "receiver",
          "type": "address"
        }
      ],
      "name": "mint",
      "outputs": [
        {
          "internalType": "uint256",
          "name": "",
          "type": "uint256"
        }
      ],
      "stateMutability": "nonpayable",
      "type": "function"
    },
    {
      "inputs": [
        {
          "components": [
            {
              "internalType": "uint256",
              "name": "amountIn",
              "type": "uint256"
            },
            {
              "internalType": "uint256",
              "name": "minWethOut",
              "type": "uint256"
            },
            {
              "internalType": "uint256",
              "name": "minRethOut",
              "type": "uint256"
            },
            {
              "internalType": "uint256",
              "name": "minBptOut",
              "type": "uint256"
            }
          ],
          "internalType": "struct TradeAmounts",
          "name": "amounts_",
          "type": "tuple"
        },
        {
          "internalType": "address",
          "name": "receiver_",
          "type": "address"
        },
        {
          "internalType": "uint8",
          "name": "v_",
          "type": "uint8"
        },
        {
          "internalType": "bytes32",
          "name": "r_",
          "type": "bytes32"
        },
        {
          "internalType": "bytes32",
          "name": "s_",
          "type": "bytes32"
        }
      ],
      "name": "mint",
      "outputs": [
        {
          "internalType": "uint256",
          "name": "",
          "type": "uint256"
        }
      ],
      "stateMutability": "nonpayable",
      "type": "function"
    },
    {
      "inputs": [],
      "name": "name",
      "outputs": [
        {
          "internalType": "string",
          "name": "",
          "type": "string"
        }
      ],
      "stateMutability": "view",
      "type": "function"
    },
    {
      "inputs": [
        {
          "internalType": "address",
          "name": "owner",
          "type": "address"
        }
      ],
      "name": "nonces",
      "outputs": [
        {
          "internalType": "uint256",
          "name": "",
          "type": "uint256"
        }
      ],
      "stateMutability": "view",
      "type": "function"
    },
    {
      "inputs": [
        {
          "internalType": "uint256",
          "name": "assets",
          "type": "uint256"
        }
      ],
      "name": "previewDeposit",
      "outputs": [
        {
          "internalType": "uint256",
          "name": "",
          "type": "uint256"
        }
      ],
      "stateMutability": "view",
      "type": "function"
    },
    {
      "inputs": [
        {
          "internalType": "uint256",
          "name": "shares",
          "type": "uint256"
        }
      ],
      "name": "previewMint",
      "outputs": [
        {
          "internalType": "uint256",
          "name": "",
          "type": "uint256"
        }
      ],
      "stateMutability": "view",
      "type": "function"
    },
    {
      "inputs": [
        {
          "internalType": "uint256",
          "name": "shares",
          "type": "uint256"
        }
      ],
      "name": "previewRedeem",
      "outputs": [
        {
          "internalType": "uint256",
          "name": "",
          "type": "uint256"
        }
      ],
      "stateMutability": "view",
      "type": "function"
    },
    {
      "inputs": [
        {
          "internalType": "uint256",
          "name": "assets",
          "type": "uint256"
        }
      ],
      "name": "previewWithdraw",
      "outputs": [
        {
          "internalType": "uint256",
          "name": "",
          "type": "uint256"
        }
      ],
      "stateMutability": "view",
      "type": "function"
    },
    {
      "inputs": [
        {
          "internalType": "uint256",
          "name": "shares",
          "type": "uint256"
        },
        {
          "internalType": "address",
          "name": "receiver",
          "type": "address"
        },
        {
          "internalType": "address",
          "name": "owner",
          "type": "address"
        }
      ],
      "name": "redeem",
      "outputs": [
        {
          "internalType": "uint256",
          "name": "",
          "type": "uint256"
        }
      ],
      "stateMutability": "nonpayable",
      "type": "function"
    },
    {
      "inputs": [
        {
          "internalType": "address",
          "name": "account_",
          "type": "address"
        }
      ],
      "name": "sharesOf",
      "outputs": [
        {
          "internalType": "uint256",
          "name": "",
          "type": "uint256"
        }
      ],
      "stateMutability": "view",
      "type": "function"
    },
    {
      "inputs": [],
      "name": "symbol",
      "outputs": [
        {
          "internalType": "string",
          "name": "",
          "type": "string"
        }
      ],
      "stateMutability": "view",
      "type": "function"
    },
    {
      "inputs": [],
      "name": "totalAssets",
      "outputs": [
        {
          "internalType": "uint256",
          "name": "",
          "type": "uint256"
        }
      ],
      "stateMutability": "view",
      "type": "function"
    },
    {
      "inputs": [],
      "name": "totalShares",
      "outputs": [
        {
          "internalType": "uint256",
          "name": "",
          "type": "uint256"
        }
      ],
      "stateMutability": "view",
      "type": "function"
    },
    {
      "inputs": [],
      "name": "totalSupply",
      "outputs": [
        {
          "internalType": "uint256",
          "name": "",
          "type": "uint256"
        }
      ],
      "stateMutability": "view",
      "type": "function"
    },
    {
      "inputs": [
        {
          "internalType": "address",
          "name": "to",
          "type": "address"
        },
        {
          "internalType": "uint256",
          "name": "amount",
          "type": "uint256"
        }
      ],
      "name": "transfer",
      "outputs": [
        {
          "internalType": "bool",
          "name": "",
          "type": "bool"
        }
      ],
      "stateMutability": "nonpayable",
      "type": "function"
    },
    {
      "inputs": [
        {
          "internalType": "address",
          "name": "from",
          "type": "address"
        },
        {
          "internalType": "address",
          "name": "to",
          "type": "address"
        },
        {
          "internalType": "uint256",
          "name": "amount",
          "type": "uint256"
        }
      ],
      "name": "transferFrom",
      "outputs": [
        {
          "internalType": "bool",
          "name": "",
          "type": "bool"
        }
      ],
      "stateMutability": "nonpayable",
      "type": "function"
    },
    {
      "inputs": [
        {
          "internalType": "uint256",
          "name": "assets",
          "type": "uint256"
        },
        {
          "internalType": "address",
          "name": "receiver",
          "type": "address"
        },
        {
          "internalType": "address",
          "name": "owner",
          "type": "address"
        }
      ],
      "name": "withdraw",
      "outputs": [
        {
          "internalType": "uint256",
          "name": "",
          "type": "uint256"
        }
      ],
      "stateMutability": "view",
      "type": "function"
    }
  ],
  "bytecode": {
    "object": "0x608060405234801561001057600080fd5b5061001961001e565b6100de565b600054610100900460ff161561008a5760405162461bcd60e51b815260206004820152602760248201527f496e697469616c697a61626c653a20636f6e747261637420697320696e697469604482015266616c697a696e6760c81b606482015260840160405180910390fd5b60005460ff90811610156100dc576000805460ff191660ff9081179091556040519081527f7f26b83ff96e1f2b6a682f133852f6798a09c465da95921460cefb38474024989060200160405180910390a15b565b61211780620000ee6000396000f3fe608060405234801561001057600080fd5b50600436106102115760003560e01c806370a0823111610125578063ba087652116100ad578063d905777e1161007c578063d905777e1461043b578063d93736121461044e578063dd62ed3e14610461578063ef8b30f714610415578063f5eb42dc1461047457600080fd5b8063ba087652146103ed578063c63d75b614610400578063c6e6f59214610415578063ce96cb771461042857600080fd5b806399273133116100f4578063992731331461038e578063a457c2d7146103a1578063a9059cbb146103b4578063b3d7f6b9146103c7578063b460af94146103da57600080fd5b806370a082311461034c5780637ecebe001461035f57806394bf804d1461037357806395d89b411461038657600080fd5b806323b872dd116101a85780633a98ef39116101775780633a98ef391461030b578063402d267d146103135780634b4e8b26146103265780634cdad506146102425780636e553f651461033957600080fd5b806323b872dd146102bb578063313ce567146102ce57806338d52e0f146102dd57806339509351146102f857600080fd5b80630a28a477116101e45780630a28a4771461027857806318160ddd1461028b5780631dc7f521146102935780632016a0d2146102a657600080fd5b806301e1d1141461021657806306fdde031461022d57806307a2d13a14610242578063095ea7b314610255575b600080fd5b60a8545b6040519081526020015b60405180910390f35b61023561049d565b6040516102249190611a27565b61021a610250366004611a3a565b61052f565b610268610263366004611a6f565b610542565b6040519015158152602001610224565b61021a610286366004611a3a565b61055a565b61021a610567565b61021a6102a1366004611a3a565b610585565b6102b96102b4366004611b3c565b61061b565b005b6102686102c9366004611bc1565b61075b565b60405160128152602001610224565b6065546040516001600160a01b039091168152602001610224565b610268610306366004611a6f565b610781565b60a75461021a565b61021a610321366004611bfd565b6107a3565b61021a610334366004611c29565b6107c1565b61021a610347366004611cc3565b610966565b61021a61035a366004611bfd565b6109ee565b61021a61036d366004611bfd565b50600090565b61021a610381366004611cc3565b610a10565b610235610a2a565b6102b961039c366004611cc3565b610a39565b6102686103af366004611a6f565b610b0c565b6102686103c2366004611a6f565b610b92565b61021a6103d5366004611a3a565b610ba0565b61021a6103e8366004611cef565b610bad565b61021a6103fb366004611cef565b610c1b565b61021a61040e366004611bfd565b5060001990565b61021a610423366004611a3a565b610c97565b61021a610436366004611bfd565b610ca4565b61021a610449366004611bfd565b610cb9565b61021a61045c366004611d2b565b610cc4565b61021a61046f366004611dd4565b610e0e565b61021a610482366004611bfd565b6001600160a01b0316600090815260a9602052604090205490565b6060603680546104ac90611dfe565b80601f01602080910402602001604051908101604052809291908181526020018280546104d890611dfe565b80156105255780601f106104fa57610100808354040283529160200191610525565b820191906000526020600020905b81548152906001019060200180831161050857829003601f168201915b5050505050905090565b600061053c826000610e39565b92915050565b600033610550818585610ed2565b5060019392505050565b600061053c826001610ff6565b600060a75460001461036d5761058060a7546000610e39565b905090565b600061059060a75490565b60a660009054906101000a90046001600160a01b03166001600160a01b031663c70920bc6040518163ffffffff1660e01b8152600401602060405180830381865afa1580156105e3573d6000803e3d6000fd5b505050506040513d601f19601f820116820180604052508101906106079190611e38565b6106119084611e67565b61053c9190611e94565b600054610100900460ff161580801561063b5750600054600160ff909116105b806106555750303b158015610655575060005460ff166001145b6106bd5760405162461bcd60e51b815260206004820152602e60248201527f496e697469616c697a61626c653a20636f6e747261637420697320616c72656160448201526d191e481a5b9a5d1a585b1a5e995960921b60648201526084015b60405180910390fd5b6000805460ff1916600117905580156106e0576000805461ff0019166101001790555b6106ea8383611084565b6106f3856110b9565b60a680546001600160a01b0319166001600160a01b0386161790558015610754576000805461ff0019169055604051600181527f7f26b83ff96e1f2b6a682f133852f6798a09c465da95921460cefb38474024989060200160405180910390a15b5050505050565b6000336107698582856110ec565b610774858585611166565b60019150505b9392505050565b6000336105508185856107948383610e0e565b61079e9190611eb6565b610ed2565b60006107ad611299565b6107b857600061053c565b60001992915050565b60a654855160405163d505accf60e01b8152600092309263d505accf926108009233926001600160a01b039091169142908b908b908b90600401611ec9565b600060405180830381600087803b15801561081a57600080fd5b505af115801561082e573d6000803e3d6000fd5b50505050600061084387600001518733610bad565b60a65460408051633ccf7dc360e11b81528a51600482015260208b01516024820152908a015160448201523060648201523360848201526001600160a01b0389811660a483015292935091169063799efb869060c401600060405180830381600087803b1580156108b357600080fd5b505af11580156108c7573d6000803e3d6000fd5b5050505060006108df6065546001600160a01b031690565b6040516370a0823160e01b81523060048201526001600160a01b0391909116906370a0823190602401602060405180830381865afa158015610925573d6000803e3d6000fd5b505050506040513d601f19601f820116820180604052508101906109499190611e38565b905061095833883384866112ba565b506001979650505050505050565b6000610971826107a3565b8311156109c05760405162461bcd60e51b815260206004820152601e60248201527f455243343632363a206465706f736974206d6f7265207468616e206d6178000060448201526064016106b4565b60006109cb60a75490565b156109de576109d984610c97565b6109e0565b835b905061077a33848684611366565b6001600160a01b038116600090815260a9602052604081205461053c9061052f565b600080610a1c84610ba0565b905061077a33848387611366565b6060603780546104ac90611dfe565b604080516001600160a01b0383166024820152604480820185905282518083039091018152606490910182526020810180516001600160e01b031663a9059cbb60e01b17905290516000913091610a909190611f0a565b600060405180830381855af49150503d8060008114610acb576040519150601f19603f3d011682016040523d82523d6000602084013e610ad0565b606091505b5050905080610b075760405162461bcd60e51b815260206004820152600360248201526223333360e91b60448201526064016106b4565b505050565b60003381610b1a8286610e0e565b905083811015610b7a5760405162461bcd60e51b815260206004820152602560248201527f45524332303a2064656372656173656420616c6c6f77616e63652062656c6f77604482015264207a65726f60d81b60648201526084016106b4565b610b878286868403610ed2565b506001949350505050565b600033610550818585611166565b600061053c826001610e39565b6000610bb882610ca4565b841115610c075760405162461bcd60e51b815260206004820152601f60248201527f455243343632363a207769746864726177206d6f7265207468616e206d61780060448201526064016106b4565b6000610c128561055a565b95945050505050565b6000610c2682610cb9565b841115610c755760405162461bcd60e51b815260206004820152601d60248201527f455243343632363a2072656465656d206d6f7265207468616e206d617800000060448201526064016106b4565b6000610c808561052f565b9050610c8f33858584896112ba565b949350505050565b600061053c826000610ff6565b600061053c610cb2836109ee565b6000610e39565b600061053c826109ee565b600080610cd96065546001600160a01b031690565b60a654885160405163d505accf60e01b81529293506001600160a01b038085169363d505accf93610d1a9333939091169142908c908c908c90600401611ec9565b600060405180830381600087803b158015610d3457600080fd5b505af1158015610d48573d6000803e3d6000fd5b505060a65460408051635879601960e01b81526001600160a01b0386811660048301523360248301528c51604483015260208d01516064830152918c0151608482015260608c015160a4820152911692506358796019915060c401600060405180830381600087803b158015610dbd57600080fd5b505af1158015610dd1573d6000803e3d6000fd5b505050506000610de5886000015188610966565b9050876000015160a86000828254610dfd9190611eb6565b909155509098975050505050505050565b6001600160a01b03918216600090815260346020908152604080832093909416825291909152205490565b600061077a610e4760a75490565b60a660009054906101000a90046001600160a01b03166001600160a01b03166345089e296040518163ffffffff1660e01b8152600401602060405180830381865afa158015610e9a573d6000803e3d6000fd5b505050506040513d601f19601f82011682018060405250810190610ebe9190611e38565b610ec89190611e94565b8490600185611401565b6001600160a01b038316610f345760405162461bcd60e51b8152602060048201526024808201527f45524332303a20617070726f76652066726f6d20746865207a65726f206164646044820152637265737360e01b60648201526084016106b4565b6001600160a01b038216610f955760405162461bcd60e51b815260206004820152602260248201527f45524332303a20617070726f766520746f20746865207a65726f206164647265604482015261737360f01b60648201526084016106b4565b6001600160a01b0383811660008181526034602090815260408083209487168084529482529182902085905590518481527f8c5be1e5ebec7d5bd14f71427d1e84f3dd0314c0f7b2291e5b200ac8c7c3b925910160405180910390a3505050565b600061077a61100460a75490565b60a660009054906101000a90046001600160a01b03166001600160a01b03166345089e296040518163ffffffff1660e01b8152600401602060405180830381865afa158015611057573d6000803e3d6000fd5b505050506040513d601f19601f8201168201806040525081019061107b9190611e38565b85919085611401565b600054610100900460ff166110ab5760405162461bcd60e51b81526004016106b490611f26565b6110b5828261145c565b5050565b600054610100900460ff166110e05760405162461bcd60e51b81526004016106b490611f26565b6110e98161149c565b50565b60006110f88484610e0e565b9050600019811461116057818110156111535760405162461bcd60e51b815260206004820152601d60248201527f45524332303a20696e73756666696369656e7420616c6c6f77616e636500000060448201526064016106b4565b6111608484848403610ed2565b50505050565b6001600160a01b03831661119857604051634b637e8f60e11b81526001600160a01b03841660048201526024016106b4565b6001600160a01b0382166111ca5760405163ec442f0560e01b81526001600160a01b03831660048201526024016106b4565b60006111d582610c97565b9050600060a96000866001600160a01b03166001600160a01b03168152602001908152602001600020549050611229604051806040016040528060068152602001650333937b69d160d51b815250866114e5565b818110156112635760405163391434e360e21b81526001600160a01b038616600482015260248101829052604481018390526064016106b4565b6001600160a01b03948516600090815260a960205260408082209284900390925593909416835292909120805490920190915550565b6000806112a560a85490565b118061058057506112b4610567565b15905090565b826001600160a01b0316856001600160a01b0316146112de576112de8386836110ec565b6112e8838261152a565b6065546112ff906001600160a01b031685846115f0565b826001600160a01b0316846001600160a01b0316866001600160a01b03167ffbde797d201c681b91056529119e0b02407c7bb96a4a2c75c01fc9667232c8db8585604051611357929190918252602082015260400190565b60405180910390a45050505050565b8060a760008282546113789190611eb6565b90915550506001600160a01b038316600090815260a9602052604090208054820190556113a58383611642565b826001600160a01b0316846001600160a01b03167fdcbc1c05240f31ff3ad067ef1ee35ce4997762752e3a095284754544f4c709d784846040516113f3929190918252602082015260400190565b60405180910390a350505050565b60008061140f868686611721565b9050600183600281111561142557611425611f71565b14801561144257506000848061143d5761143d611e7e565b868809115b15610c1257611452600182611eb6565b9695505050505050565b600054610100900460ff166114835760405162461bcd60e51b81526004016106b490611f26565b603661148f8382611fd5565b506037610b078282611fd5565b600054610100900460ff166114c35760405162461bcd60e51b81526004016106b490611f26565b606580546001600160a01b0319166001600160a01b0392909216919091179055565b6110b582826040516024016114fb929190612095565b60408051601f198184030181529190526020810180516001600160e01b031663319af33360e01b1790526117d0565b6001600160a01b03821661155c57604051637c896cfb60e01b81526001600160a01b03831660048201526024016106b4565b6001600160a01b038216600090815260a960205260408120549061157f8361052f565b9050828210156115bb57604051633803cef960e11b81526001600160a01b038516600482015260248101839052604481018490526064016106b4565b6001600160a01b03909316600090815260a96020526040902090829003905560a7805491909103905560a88054919091039055565b604080516001600160a01b038416602482015260448082018490528251808303909101815260649091019091526020810180516001600160e01b031663a9059cbb60e01b179052610b079084906117f1565b6001600160a01b0382166116985760405162461bcd60e51b815260206004820152601f60248201527f45524332303a206d696e7420746f20746865207a65726f20616464726573730060448201526064016106b4565b80603560008282546116aa9190611eb6565b90915550506001600160a01b038216600090815260336020526040812080548392906116d7908490611eb6565b90915550506040518181526001600160a01b038316906000907fddf252ad1be2c89b69c2b068fc378daa952ba7f163c4a11628f55a4df523b3ef9060200160405180910390a35050565b600080806000198587098587029250828110838203039150508060000361175b5783828161175157611751611e7e565b049250505061077a565b80841161176757600080fd5b60008486880960026001871981018816978890046003810283188082028403028082028403028082028403028082028403028082028403029081029092039091026000889003889004909101858311909403939093029303949094049190911702949350505050565b80516a636f6e736f6c652e6c6f67602083016000808483855afa5050505050565b6000611846826040518060400160405280602081526020017f5361666545524332303a206c6f772d6c6576656c2063616c6c206661696c6564815250856001600160a01b03166118c39092919063ffffffff16565b805190915015610b07578080602001905181019061186491906120bf565b610b075760405162461bcd60e51b815260206004820152602a60248201527f5361666545524332303a204552433230206f7065726174696f6e20646964206e6044820152691bdd081cdd58d8d9595960b21b60648201526084016106b4565b6060610c8f8484600085856001600160a01b0385163b6119255760405162461bcd60e51b815260206004820152601d60248201527f416464726573733a2063616c6c20746f206e6f6e2d636f6e747261637400000060448201526064016106b4565b600080866001600160a01b031685876040516119419190611f0a565b60006040518083038185875af1925050503d806000811461197e576040519150601f19603f3d011682016040523d82523d6000602084013e611983565b606091505b509150915061199382828661199e565b979650505050505050565b606083156119ad57508161077a565b8251156119bd5782518084602001fd5b8160405162461bcd60e51b81526004016106b49190611a27565b60005b838110156119f25781810151838201526020016119da565b50506000910152565b60008151808452611a138160208601602086016119d7565b601f01601f19169290920160200192915050565b60208152600061077a60208301846119fb565b600060208284031215611a4c57600080fd5b5035919050565b80356001600160a01b0381168114611a6a57600080fd5b919050565b60008060408385031215611a8257600080fd5b611a8b83611a53565b946020939093013593505050565b634e487b7160e01b600052604160045260246000fd5b600082601f830112611ac057600080fd5b813567ffffffffffffffff80821115611adb57611adb611a99565b604051601f8301601f19908116603f01168101908282118183101715611b0357611b03611a99565b81604052838152866020858801011115611b1c57600080fd5b836020870160208301376000602085830101528094505050505092915050565b60008060008060808587031215611b5257600080fd5b611b5b85611a53565b9350611b6960208601611a53565b9250604085013567ffffffffffffffff80821115611b8657600080fd5b611b9288838901611aaf565b93506060870135915080821115611ba857600080fd5b50611bb587828801611aaf565b91505092959194509250565b600080600060608486031215611bd657600080fd5b611bdf84611a53565b9250611bed60208501611a53565b9150604084013590509250925092565b600060208284031215611c0f57600080fd5b61077a82611a53565b803560ff81168114611a6a57600080fd5b600080600080600085870360e0811215611c4257600080fd5b6060811215611c5057600080fd5b506040516060810181811067ffffffffffffffff82111715611c7457611c74611a99565b6040908152873582526020808901359083015287810135908201529450611c9d60608701611a53565b9350611cab60808701611c18565b9497939650939460a0810135945060c0013592915050565b60008060408385031215611cd657600080fd5b82359150611ce660208401611a53565b90509250929050565b600080600060608486031215611d0457600080fd5b83359250611d1460208501611a53565b9150611d2260408501611a53565b90509250925092565b6000806000806000858703610100811215611d4557600080fd5b6080811215611d5357600080fd5b506040516080810181811067ffffffffffffffff82111715611d7757611d77611a99565b80604052508635815260208701356020820152604087013560408201526060870135606082015280955050611dae60808701611a53565b9350611dbc60a08701611c18565b9497939650939460c0810135945060e0013592915050565b60008060408385031215611de757600080fd5b611df083611a53565b9150611ce660208401611a53565b600181811c90821680611e1257607f821691505b602082108103611e3257634e487b7160e01b600052602260045260246000fd5b50919050565b600060208284031215611e4a57600080fd5b5051919050565b634e487b7160e01b600052601160045260246000fd5b808202811582820484141761053c5761053c611e51565b634e487b7160e01b600052601260045260246000fd5b600082611eb157634e487b7160e01b600052601260045260246000fd5b500490565b8082018082111561053c5761053c611e51565b6001600160a01b0397881681529590961660208601526040850193909352606084019190915260ff16608083015260a082015260c081019190915260e00190565b60008251611f1c8184602087016119d7565b9190910192915050565b6020808252602b908201527f496e697469616c697a61626c653a20636f6e7472616374206973206e6f74206960408201526a6e697469616c697a696e6760a81b606082015260800190565b634e487b7160e01b600052602160045260246000fd5b601f821115610b0757600081815260208120601f850160051c81016020861015611fae5750805b601f850160051c820191505b81811015611fcd57828155600101611fba565b505050505050565b815167ffffffffffffffff811115611fef57611fef611a99565b61200381611ffd8454611dfe565b84611f87565b602080601f83116001811461203857600084156120205750858301515b600019600386901b1c1916600185901b178555611fcd565b600085815260208120601f198616915b8281101561206757888601518255948401946001909101908401612048565b50858210156120855787850151600019600388901b60f8161c191681555b5050505050600190811b01905550565b6040815260006120a860408301856119fb565b905060018060a01b03831660208301529392505050565b6000602082840312156120d157600080fd5b8151801515811461077a57600080fdfea26469706673582212200dc0b0c5fcecceba3816785dbfb623ce844557fbc3ec19fb33489793e365f51864736f6c63430008150033",
    "linkReferences": {}
  },
  "methodIdentifiers": {
    "allowance(address,address)": "dd62ed3e",
    "approve(address,uint256)": "095ea7b3",
    "asset()": "38d52e0f",
    "balanceOf(address)": "70a08231",
    "burn((uint256,uint256,uint256),address,uint8,bytes32,bytes32)": "4b4e8b26",
    "burn2(uint256,address)": "99273133",
    "convertToAssets(uint256)": "07a2d13a",
    "convertToShares(uint256)": "c6e6f592",
    "convertToUnderlying(uint256)": "1dc7f521",
    "decimals()": "313ce567",
    "decreaseAllowance(address,uint256)": "a457c2d7",
    "deposit(uint256,address)": "6e553f65",
    "increaseAllowance(address,uint256)": "39509351",
    "initialize(address,address,string,string)": "2016a0d2",
    "maxDeposit(address)": "402d267d",
    "maxMint(address)": "c63d75b6",
    "maxRedeem(address)": "d905777e",
    "maxWithdraw(address)": "ce96cb77",
    "mint((uint256,uint256,uint256,uint256),address,uint8,bytes32,bytes32)": "d9373612",
    "mint(uint256,address)": "94bf804d",
    "name()": "06fdde03",
    "nonces(address)": "7ecebe00",
    "previewDeposit(uint256)": "ef8b30f7",
    "previewMint(uint256)": "b3d7f6b9",
    "previewRedeem(uint256)": "4cdad506",
    "previewWithdraw(uint256)": "0a28a477",
    "redeem(uint256,address,address)": "ba087652",
    "sharesOf(address)": "f5eb42dc",
    "symbol()": "95d89b41",
    "totalAssets()": "01e1d114",
    "totalShares()": "3a98ef39",
    "totalSupply()": "18160ddd",
    "transfer(address,uint256)": "a9059cbb",
    "transferFrom(address,address,uint256)": "23b872dd",
    "withdraw(uint256,address,address)": "b460af94"
  },
  "id": 23
}