{
  "abi": [
    {
      "inputs": [
        {
          "internalType": "string",
          "name": "name_",
          "type": "string"
        },
        {
          "internalType": "string",
          "name": "symbol_",
          "type": "string"
        },
        {
          "internalType": "address",
          "name": "underlying_",
          "type": "address"
        },
        {
          "internalType": "uint8",
          "name": "decimals_",
          "type": "uint8"
        },
        {
          "internalType": "address",
          "name": "diamond_",
          "type": "address"
        }
      ],
      "stateMutability": "nonpayable",
      "type": "constructor"
    },
    {
      "anonymous": false,
      "inputs": [
        {
          "indexed": true,
          "internalType": "address",
          "name": "owner",
          "type": "address"
        },
        {
          "indexed": true,
          "internalType": "address",
          "name": "spender",
          "type": "address"
        },
        {
          "indexed": false,
          "internalType": "uint256",
          "name": "value",
          "type": "uint256"
        }
      ],
      "name": "Approval",
      "type": "event"
    },
    {
      "anonymous": false,
      "inputs": [
        {
          "indexed": true,
          "internalType": "address",
          "name": "from",
          "type": "address"
        },
        {
          "indexed": true,
          "internalType": "address",
          "name": "to",
          "type": "address"
        },
        {
          "indexed": false,
          "internalType": "uint256",
          "name": "value",
          "type": "uint256"
        }
      ],
      "name": "Transfer",
      "type": "event"
    },
    {
      "inputs": [
        {
          "internalType": "address",
          "name": "owner",
          "type": "address"
        },
        {
          "internalType": "address",
          "name": "spender",
          "type": "address"
        }
      ],
      "name": "allowance",
      "outputs": [
        {
          "internalType": "uint256",
          "name": "",
          "type": "uint256"
        }
      ],
      "stateMutability": "view",
      "type": "function"
    },
    {
      "inputs": [
        {
          "internalType": "address",
          "name": "spender",
          "type": "address"
        },
        {
          "internalType": "uint256",
          "name": "amount",
          "type": "uint256"
        }
      ],
      "name": "approve",
      "outputs": [
        {
          "internalType": "bool",
          "name": "",
          "type": "bool"
        }
      ],
      "stateMutability": "nonpayable",
      "type": "function"
    },
    {
      "inputs": [
        {
          "internalType": "address",
          "name": "account",
          "type": "address"
        }
      ],
      "name": "balanceOf",
      "outputs": [
        {
          "internalType": "uint256",
          "name": "",
          "type": "uint256"
        }
      ],
      "stateMutability": "view",
      "type": "function"
    },
    {
      "inputs": [],
      "name": "decimals",
      "outputs": [
        {
          "internalType": "uint8",
          "name": "",
          "type": "uint8"
        }
      ],
      "stateMutability": "view",
      "type": "function"
    },
    {
      "inputs": [
        {
          "internalType": "address",
          "name": "spender",
          "type": "address"
        },
        {
          "internalType": "uint256",
          "name": "subtractedValue",
          "type": "uint256"
        }
      ],
      "name": "decreaseAllowance",
      "outputs": [
        {
          "internalType": "bool",
          "name": "",
          "type": "bool"
        }
      ],
      "stateMutability": "nonpayable",
      "type": "function"
    },
    {
      "inputs": [],
      "name": "getDiamond",
      "outputs": [
        {
          "internalType": "address",
          "name": "",
          "type": "address"
        }
      ],
      "stateMutability": "view",
      "type": "function"
    },
    {
      "inputs": [
        {
          "internalType": "address",
          "name": "spender",
          "type": "address"
        },
        {
          "internalType": "uint256",
          "name": "addedValue",
          "type": "uint256"
        }
      ],
      "name": "increaseAllowance",
      "outputs": [
        {
          "internalType": "bool",
          "name": "",
          "type": "bool"
        }
      ],
      "stateMutability": "nonpayable",
      "type": "function"
    },
    {
      "inputs": [
        {
          "internalType": "address",
          "name": "account_",
          "type": "address"
        }
      ],
      "name": "interestOf",
      "outputs": [
        {
          "internalType": "uint256",
          "name": "",
          "type": "uint256"
        }
      ],
      "stateMutability": "view",
      "type": "function"
    },
    {
      "inputs": [
        {
          "internalType": "uint256",
          "name": "amountIn_",
          "type": "uint256"
        },
        {
          "internalType": "uint256",
          "name": "minWethOut_",
          "type": "uint256"
        },
        {
          "internalType": "uint256",
          "name": "minRethOut_",
          "type": "uint256"
        },
        {
          "internalType": "uint256",
          "name": "minBptOut_",
          "type": "uint256"
        },
        {
          "internalType": "uint8",
          "name": "v_",
          "type": "uint8"
        },
        {
          "internalType": "bytes32",
          "name": "r_",
          "type": "bytes32"
        },
        {
          "internalType": "bytes32",
          "name": "s_",
          "type": "bytes32"
        }
      ],
      "name": "mint",
      "outputs": [],
      "stateMutability": "nonpayable",
      "type": "function"
    },
    {
      "inputs": [],
      "name": "name",
      "outputs": [
        {
          "internalType": "string",
          "name": "",
          "type": "string"
        }
      ],
      "stateMutability": "view",
      "type": "function"
    },
    {
      "inputs": [],
      "name": "symbol",
      "outputs": [
        {
          "internalType": "string",
          "name": "",
          "type": "string"
        }
      ],
      "stateMutability": "view",
      "type": "function"
    },
    {
      "inputs": [
        {
          "internalType": "address",
          "name": "account_",
          "type": "address"
        }
      ],
      "name": "totalBalanceOf",
      "outputs": [
        {
          "internalType": "uint256",
          "name": "",
          "type": "uint256"
        }
      ],
      "stateMutability": "view",
      "type": "function"
    },
    {
      "inputs": [],
      "name": "totalSupply",
      "outputs": [
        {
          "internalType": "uint256",
          "name": "",
          "type": "uint256"
        }
      ],
      "stateMutability": "view",
      "type": "function"
    },
    {
      "inputs": [
        {
          "internalType": "address",
          "name": "to",
          "type": "address"
        },
        {
          "internalType": "uint256",
          "name": "amount",
          "type": "uint256"
        }
      ],
      "name": "transfer",
      "outputs": [
        {
          "internalType": "bool",
          "name": "",
          "type": "bool"
        }
      ],
      "stateMutability": "nonpayable",
      "type": "function"
    },
    {
      "inputs": [
        {
          "internalType": "address",
          "name": "from",
          "type": "address"
        },
        {
          "internalType": "address",
          "name": "to",
          "type": "address"
        },
        {
          "internalType": "uint256",
          "name": "amount",
          "type": "uint256"
        }
      ],
      "name": "transferFrom",
      "outputs": [
        {
          "internalType": "bool",
          "name": "",
          "type": "bool"
        }
      ],
      "stateMutability": "nonpayable",
      "type": "function"
    },
    {
      "inputs": [],
      "name": "underlying",
      "outputs": [
        {
          "internalType": "address",
          "name": "",
          "type": "address"
        }
      ],
      "stateMutability": "view",
      "type": "function"
    }
  ],
  "bytecode": {
    "object": "0x60c060405234620003815762001a05803803806200001d8162000386565b92833981019060a081830312620003815780516001600160401b03908181116200038157836200004f918401620003ac565b92602090818401519083821162000381576200006d918501620003ac565b936200007c604085016200041e565b9260608501519460ff8616809603620003815760806200009d91016200041e565b95825182811162000281576003918254916001958684811c9416801562000376575b8885101462000360578190601f948581116200030a575b508890858311600114620002a35760009262000297575b505060001982861b1c191690861b1783555b8051938411620002815760049586548681811c9116801562000276575b82821014620002615783811162000216575b5080928511600114620001a857509383949184926000956200019c575b50501b92600019911b1c19161790555b60805260ff19600554161760055560a0526040516115d190816200043482396080518181816101fa0152610b49015260a05181818161018501526103890152f35b0151935038806200014b565b92919084601f1981168860005285600020956000905b89838310620001fb5750505010620001e0575b50505050811b0190556200015b565b01519060f884600019921b161c1916905538808080620001d1565b858701518955909701969485019488935090810190620001be565b87600052816000208480880160051c82019284891062000257575b0160051c019087905b8281106200024a5750506200012e565b600081550187906200023a565b9250819262000231565b602288634e487b7160e01b6000525260246000fd5b90607f16906200011c565b634e487b7160e01b600052604160045260246000fd5b015190503880620000ed565b90889350601f19831691876000528a6000209260005b8c828210620002f35750508411620002da575b505050811b018355620000ff565b015160001983881b60f8161c19169055388080620002cc565b8385015186558c97909501949384019301620002b9565b90915085600052886000208580850160051c8201928b861062000356575b918a91869594930160051c01915b82811062000346575050620000d6565b600081558594508a910162000336565b9250819262000328565b634e487b7160e01b600052602260045260246000fd5b93607f1693620000bf565b600080fd5b6040519190601f01601f191682016001600160401b038111838210176200028157604052565b919080601f84011215620003815782516001600160401b0381116200028157602090620003e2601f8201601f1916830162000386565b92818452828287010111620003815760005b8181106200040a57508260009394955001015290565b8581018301518482018401528201620003f4565b51906001600160a01b0382168203620003815756fe608060408181526004918236101561001657600080fd5b600092833560e01c91826306fdde0314610d4f57508163095ea7b314610d2557816318160ddd14610d0657816323b872dd14610c33578163313ce56714610c115781633950935114610bb95781634b0ee02a14610b785781636f307dc314610b3457816370a0823114610af457816395d89b41146109d9578163a457c2d71461092b578163a9059cbb146108fa578163aa54685d146101b457508063d7b8b95b14610171578063d8e8b1771461012d5763dd62ed3e146100d557600080fd5b346101295780600319360112610129576020906100f0610e81565b6100f8610e97565b6000808052600185528381206001600160a01b03938416825285528381209190921682528352819020549051908152f35b5080fd5b50346101295760203660031901126101295760209061014a610e81565b600160005260008352816000209060018060a01b0316600052825280600020549051908152f35b5034610129578160031936011261012957517f00000000000000000000000000000000000000000000000000000000000000006001600160a01b03168152602090f35b839150346101295760e0366003190112610129578035926024916084359460ff86168096036108f65782516370a0823160e01b80825233848301526001600160a01b03977f0000000000000000000000000000000000000000000000000000000000000000898116949360209260c4359260a4359285818d818c5afa9081156108ec578d916108bd575b509061027f610334928c5161025281610ed7565b8881527f62616c20555344432073656e64657220707265202d206e6f742073616d653a2089820152611506565b6102a88b5161028d81610ed7565b6008815267039b2b73232b91d160c51b88820152339061154b565b6102e48b516102b681610ed7565b601e81527f2d2d2d2d2d205045524d495420696e206f7a546f6b656e202d2d2d2d2d2d0000888201526114ca565b61030c8b516102f281610ed7565b6007815266037bbb732b91d160cd1b88820152339061154b565b8a5161031781610ed7565b600c81526b03a37b5b2b7103ab9b2319d160a51b8782015261154b565b8851858152338982015284818c818b5afa80156108b3578c90610880575b61038791508a5161036281610ed7565b6014815273037bbb732b9102aa9a221903130b6103839329d160651b87820152611506565b7f00000000000000000000000000000000000000000000000000000000000000009b6103dd8d8b516103b881610ed7565b6014815273030b2323932b9b99437bd2234b0b6b7b732149d160651b8882015261154b565b610407878b516103ec81610ed7565b600a815269030b6b7bab73a24b71d160b51b88820152611506565b603c42019081421161086e5761043d828c5161042281610ed7565b600a81526903232b0b23634b7329d160b51b89820152611506565b610460838c5161044c81610ed7565b600381526203b1d160ed1b89820152611506565b6104698461148f565b61048b8b5161047781610ed7565b600381526239102f60e91b888201526114ca565b6104948561148f565b6104b68b516104a281610ed7565b600381526239902f60e91b888201526114ca565b6104f28b516104c481610ed7565b601b81527f2d2d2d2d2d2d2d2d2d2d2d2d2d2d2d2d2d2d2d2d2d2d2d2d2d2d2d0000000000888201526114ca565b883b1561086a578a519d8e63d505accf60e01b81528b3391015216968d888d8201526044015260648d015260848c015260a48b015260c48a015287898581835a9260e493f180156107a657610856575b8798508551636eb1769f60e11b8152338682015283888201528181604481885afa9081156107e4578991610822575b506105a290875161058181610ed7565b601081526f030b63637bbb0b731b290151515151d160851b84820152611506565b8551828152838682015281818981885afa9081156107e45789916107ee575b506105ff9087516105d181610ed7565b601a81527f62616c2055534443206469616d6f6e64202d206e6f7420303a2000000000000084820152611506565b8551828152338682015281818981885afa9081156107e45789916107b0575b5061065b90875161062e81610ed7565b8381527f62616c20555344432073656e64657220706f7374202d206e6f74203135303a2084820152611506565b8551918252308583015280828881875afa9182156107a657889261076e575b5090610701916106be875161068e81610ed7565b601a81527f6164647265737328746869732920696e206f7a546f6b656e3a2000000000000083820152309061154b565b7f62616c2055534443206f7a546f6b656e20706f7374202d2073686f756c6420308751916106eb83610ef3565b602283528201526101d160f51b87820152611506565b803b1561076a5785928360a49286519788958694632717d37360e21b86528501523381850152356044840152604435606484015260643560848401525af1908115610761575061074e5750f35b61075790610ead565b61075e5780f35b80fd5b513d84823e3d90fd5b8580fd5b818099508193503d831161079f575b6107878183610f0f565b8101031261079a5751879661070161067a565b600080fd5b503d61077d565b86513d8a823e3d90fd5b809950828092503d83116107dd575b6107c98183610f0f565b8101031261079a5761065b8998519061061e565b503d6107bf565b87513d8b823e3d90fd5b809950828092503d831161081b575b6108078183610f0f565b8101031261079a576105ff899851906105c1565b503d6107fd565b809950828092503d831161084f575b61083b8183610f0f565b8101031261079a576105a289985190610571565b503d610831565b96909761086290610ead565b958790610542565b8c80fd5b634e487b7160e01b8d5260118a528b8dfd5b508481813d83116108ac575b6108968183610f0f565b810103126108a8576103879051610352565b8b80fd5b503d61088c565b8a513d8e823e3d90fd5b90508581813d83116108e5575b6108d48183610f0f565b8101031261086a575161027f61023e565b503d6108ca565b8b513d8f823e3d90fd5b8480fd5b50503461012957806003193601126101295760209061092461091a610e81565b6024359033610f54565b5160018152f35b9050823461075e578260031936011261075e57610946610e81565b918360243592808052600160205281812033825260205281812060018060a01b038616825260205220549082821061098857602085610924858503873361136e565b608490602086519162461bcd60e51b8352820152602560248201527f45524332303a2064656372656173656420616c6c6f77616e63652062656c6f77604482015264207a65726f60d81b6064820152fd5b82843461075e578060031936011261075e5781519181845492600184811c91818616958615610aea575b6020968785108114610ad7579087899a92868b999a9b529182600014610aad575050600114610a52575b8588610a4e89610a3f848a0385610f0f565b51928284938452830190610e41565b0390f35b815286935091907f8a35acfbc15ff81a39ae7d344fd709f28e8600b4aa8c65c6b64bfe7fe36bd19b5b828410610a955750505082010181610a3f610a4e88610a2d565b8054848a018601528895508794909301928101610a7b565b60ff19168882015294151560051b87019094019450859350610a3f9250610a4e9150899050610a2d565b634e487b7160e01b835260228a52602483fd5b92607f1692610a03565b5050346101295760203660031901126101295780602092610b13610e81565b8180528185528282206001600160a01b039091168252845220549051908152f35b505034610129578160031936011261012957517f00000000000000000000000000000000000000000000000000000000000000006001600160a01b03168152602090f35b5050346101295760203660031901126101295780602092610b97610e81565b600282528185528282206001600160a01b039091168252845220549051908152f35b505034610129578060031936011261012957610924602092610c0a610bdc610e81565b8280526001865284832033845286528483206001600160a01b03821684528652918490205460243590610f31565b903361136e565b50503461012957816003193601126101295760209060ff600554169051908152f35b8391503461012957606036600319011261012957610c4f610e81565b610c57610e97565b918460443594808052600160205281812060018060a01b03851682526020528181203382526020522054906000198203610c9a575b602086610924878787610f54565b848210610cc35750918391610cb8602096956109249503338361136e565b919394819350610c8c565b606490602087519162461bcd60e51b8352820152601d60248201527f45524332303a20696e73756666696369656e7420616c6c6f77616e63650000006044820152fd5b5050346101295781600319360112610129576020906002549051908152f35b505034610129578060031936011261012957602090610924610d45610e81565b602435903361136e565b8484346101295781600319360112610129578160035492600184811c91818616958615610e37575b6020968785108114610ad7578899509688969785829a529182600014610e10575050600114610db4575b505050610a4e9291610a3f910385610f0f565b9190869350600383527fc2575a0e9e593c00f959f8c92f12db2869c3395a3b0502d05e2516446f71f85b5b828410610df85750505082010181610a3f610a4e610da1565b8054848a018601528895508794909301928101610ddf565b60ff19168782015293151560051b86019093019350849250610a3f9150610a4e9050610da1565b92607f1692610d77565b919082519283825260005b848110610e6d575050826000602080949584010152601f8019910116010190565b602081830181015184830182015201610e4c565b600435906001600160a01b038216820361079a57565b602435906001600160a01b038216820361079a57565b67ffffffffffffffff8111610ec157604052565b634e487b7160e01b600052604160045260246000fd5b6040810190811067ffffffffffffffff821117610ec157604052565b6060810190811067ffffffffffffffff821117610ec157604052565b90601f8019910116810190811067ffffffffffffffff821117610ec157604052565b91908201809211610f3e57565b634e487b7160e01b600052601160045260246000fd5b9192916001600160a01b0390811691821561131b57169081156112ca5760008181527fad3228b676f7d3cd4284a5443f17f1962b36e491b30a40b2405849e597ba5fb5602090815260408083205492969192828110611277578290888052888552828920868a5285520381882055868052868352808720858852835280872082815401905586805286835280872084885283528087205487818903821680918a828504948360018096819682950304016002978881600302188082028a03028082028a03028082028a03028082028a03028082028a0302809102890302936111f2575b50505050818b528a8752848b20888c528752848b20548b9261112f575b505098611118827fddf252ad1be2c89b69c2b068fc378daa952ba7f163c4a11628f55a4df523b3ef98999a9b869484528389528484208b855289528484208181540390558184528389528484208b855289528484209081540190558280528288528383208a845288526110dc84842054828552848a528585208c86528a528585205490610f31565b8584528389528484208b85528952848420558280528288528383208b84528852838320549083528288528383208b845288528383205490610f31565b9281528086528181208982528652205551908152a3565b80820292509060001982820991838310840180840393146111d85768056bc75e2d6310000091838311156111cb5793611118938896937fddf252ad1be2c89b69c2b068fc378daa952ba7f163c4a11628f55a4df523b3ef9c9d9e9f96937f2fdf29ec6a12d6f7bf48d6861d4b553283e011b18b576460d489e3a9addec2d1940990828211900360ec1b910360141c1702929b9a99985092611054565b63ae47f7028e526004601cfd5b505068056bc75e2d63100000909104905061111884611054565b91935091935068056bc75e2d631000009081890293600019838b09928584108601808503941461125157838211156112435790879695949392918b0991848311900302920304170238808080611037565b5063ae47f7028f526004601cfd5b509450505050811561126a579082910438808080611037565b63ae47f7028b526004601cfd5b815162461bcd60e51b815260048101859052602660248201527f45524332303a207472616e7366657220616d6f756e7420657863656564732062604482015265616c616e636560d01b6064820152608490fd5b60405162461bcd60e51b815260206004820152602360248201527f45524332303a207472616e7366657220746f20746865207a65726f206164647260448201526265737360e81b6064820152608490fd5b60405162461bcd60e51b815260206004820152602560248201527f45524332303a207472616e736665722066726f6d20746865207a65726f206164604482015264647265737360d81b6064820152608490fd5b6001600160a01b0390811691821561143e57169182156113ee5760008281527fa6eef7e35abe7026729641147f7915573c7e97b47efa546f5f6e3230263bcb496020908152604080832086845282529182902083905590519182527f8c5be1e5ebec7d5bd14f71427d1e84f3dd0314c0f7b2291e5b200ac8c7c3b92591a3565b60405162461bcd60e51b815260206004820152602260248201527f45524332303a20617070726f766520746f20746865207a65726f206164647265604482015261737360f01b6064820152608490fd5b60405162461bcd60e51b8152602060048201526024808201527f45524332303a20617070726f76652066726f6d20746865207a65726f206164646044820152637265737360e01b6064820152608490fd5b6000809160405160208101916327b7cf8560e01b83526024820152602481526114b781610ef3565b51906a636f6e736f6c652e6c6f675afa50565b600080916040516114b7816114f8602082019463104c13eb60e21b8652602060248401526044830190610e41565b03601f198101835282610f0f565b6000919082916114b7604051809261153760208301956309710a9d60e41b8752604060248501526064840190610e41565b90604483015203601f198101835282610f0f565b6000919082916114b7604051809261157c602083019563319af33360e01b8752604060248501526064840190610e41565b6001600160a01b0391909116604483015203601f198101835282610f0f56fea26469706673582212209996f52401a932412c62857336b710c75a36e504c478c27edc258553855a8fae64736f6c63430008150033",
    "linkReferences": {}
  },
  "methodIdentifiers": {
    "allowance(address,address)": "dd62ed3e",
    "approve(address,uint256)": "095ea7b3",
    "balanceOf(address)": "70a08231",
    "decimals()": "313ce567",
    "decreaseAllowance(address,uint256)": "a457c2d7",
    "getDiamond()": "d7b8b95b",
    "increaseAllowance(address,uint256)": "39509351",
    "interestOf(address)": "d8e8b177",
    "mint(uint256,uint256,uint256,uint256,uint8,bytes32,bytes32)": "aa54685d",
    "name()": "06fdde03",
    "symbol()": "95d89b41",
    "totalBalanceOf(address)": "4b0ee02a",
    "totalSupply()": "18160ddd",
    "transfer(address,uint256)": "a9059cbb",
    "transferFrom(address,address,uint256)": "23b872dd",
    "underlying()": "6f307dc3"
  },
  "id": 20
}