{
  "abi": [
    {
      "inputs": [],
      "stateMutability": "nonpayable",
      "type": "constructor"
    },
    {
      "inputs": [],
      "name": "OZError03",
      "type": "error"
    },
    {
      "inputs": [
        {
          "internalType": "address",
          "name": "from",
          "type": "address"
        },
        {
          "internalType": "address",
          "name": "to",
          "type": "address"
        }
      ],
      "name": "OZError04",
      "type": "error"
    },
    {
      "inputs": [
        {
          "internalType": "uint256",
          "name": "amount",
          "type": "uint256"
        }
      ],
      "name": "OZError05",
      "type": "error"
    },
    {
      "inputs": [
        {
          "internalType": "address",
          "name": "sender",
          "type": "address"
        },
        {
          "internalType": "uint256",
          "name": "accountShares",
          "type": "uint256"
        },
        {
          "internalType": "uint256",
          "name": "shares",
          "type": "uint256"
        }
      ],
      "name": "OZError06",
      "type": "error"
    },
    {
      "inputs": [
        {
          "internalType": "address",
          "name": "from",
          "type": "address"
        },
        {
          "internalType": "uint256",
          "name": "fromShares",
          "type": "uint256"
        },
        {
          "internalType": "uint256",
          "name": "shares",
          "type": "uint256"
        }
      ],
      "name": "OZError07",
      "type": "error"
    },
    {
      "inputs": [
        {
          "internalType": "uint256",
          "name": "deadline",
          "type": "uint256"
        },
        {
          "internalType": "uint256",
          "name": "blockTimestamp",
          "type": "uint256"
        }
      ],
      "name": "OZError08",
      "type": "error"
    },
    {
      "inputs": [
        {
          "internalType": "address",
          "name": "owner",
          "type": "address"
        },
        {
          "internalType": "address",
          "name": "spender",
          "type": "address"
        }
      ],
      "name": "OZError09",
      "type": "error"
    },
    {
      "anonymous": false,
      "inputs": [
        {
          "indexed": true,
          "internalType": "address",
          "name": "owner",
          "type": "address"
        },
        {
          "indexed": true,
          "internalType": "address",
          "name": "spender",
          "type": "address"
        },
        {
          "indexed": false,
          "internalType": "uint256",
          "name": "value",
          "type": "uint256"
        }
      ],
      "name": "Approval",
      "type": "event"
    },
    {
      "anonymous": false,
      "inputs": [
        {
          "indexed": false,
          "internalType": "uint8",
          "name": "version",
          "type": "uint8"
        }
      ],
      "name": "Initialized",
      "type": "event"
    },
    {
      "anonymous": false,
      "inputs": [
        {
          "indexed": true,
          "internalType": "address",
          "name": "from",
          "type": "address"
        },
        {
          "indexed": true,
          "internalType": "address",
          "name": "to",
          "type": "address"
        },
        {
          "indexed": false,
          "internalType": "uint256",
          "name": "value",
          "type": "uint256"
        }
      ],
      "name": "Transfer",
      "type": "event"
    },
    {
      "inputs": [],
      "name": "DOMAIN_SEPARATOR",
      "outputs": [
        {
          "internalType": "bytes32",
          "name": "",
          "type": "bytes32"
        }
      ],
      "stateMutability": "view",
      "type": "function"
    },
    {
      "inputs": [],
      "name": "FORMAT_DECIMALS",
      "outputs": [
        {
          "internalType": "uint256",
          "name": "",
          "type": "uint256"
        }
      ],
      "stateMutability": "view",
      "type": "function"
    },
    {
      "inputs": [
        {
          "internalType": "address",
          "name": "owner",
          "type": "address"
        },
        {
          "internalType": "address",
          "name": "spender",
          "type": "address"
        }
      ],
      "name": "allowance",
      "outputs": [
        {
          "internalType": "uint256",
          "name": "",
          "type": "uint256"
        }
      ],
      "stateMutability": "view",
      "type": "function"
    },
    {
      "inputs": [
        {
          "internalType": "address",
          "name": "spender",
          "type": "address"
        },
        {
          "internalType": "uint256",
          "name": "amount",
          "type": "uint256"
        }
      ],
      "name": "approve",
      "outputs": [
        {
          "internalType": "bool",
          "name": "",
          "type": "bool"
        }
      ],
      "stateMutability": "nonpayable",
      "type": "function"
    },
    {
      "inputs": [],
      "name": "asset",
      "outputs": [
        {
          "internalType": "address",
          "name": "",
          "type": "address"
        }
      ],
      "stateMutability": "view",
      "type": "function"
    },
    {
      "inputs": [
        {
          "internalType": "address",
          "name": "account_",
          "type": "address"
        }
      ],
      "name": "balanceOf",
      "outputs": [
        {
          "internalType": "uint256",
          "name": "",
          "type": "uint256"
        }
      ],
      "stateMutability": "view",
      "type": "function"
    },
    {
      "inputs": [],
      "name": "claimReward",
      "outputs": [
        {
          "internalType": "uint256",
          "name": "",
          "type": "uint256"
        }
      ],
      "stateMutability": "nonpayable",
      "type": "function"
    },
    {
      "inputs": [
        {
          "internalType": "uint256",
          "name": "shares",
          "type": "uint256"
        }
      ],
      "name": "convertToAssets",
      "outputs": [
        {
          "internalType": "uint256",
          "name": "assets",
          "type": "uint256"
        }
      ],
      "stateMutability": "view",
      "type": "function"
    },
    {
      "inputs": [
        {
          "internalType": "uint256",
          "name": "assets",
          "type": "uint256"
        }
      ],
      "name": "convertToShares",
      "outputs": [
        {
          "internalType": "uint256",
          "name": "shares",
          "type": "uint256"
        }
      ],
      "stateMutability": "view",
      "type": "function"
    },
    {
      "inputs": [
        {
          "internalType": "uint256",
          "name": "shares_",
          "type": "uint256"
        }
      ],
      "name": "convertToUnderlying",
      "outputs": [
        {
          "internalType": "uint256",
          "name": "amountUnderlying",
          "type": "uint256"
        }
      ],
      "stateMutability": "view",
      "type": "function"
    },
    {
      "inputs": [],
      "name": "decimals",
      "outputs": [
        {
          "internalType": "uint8",
          "name": "",
          "type": "uint8"
        }
      ],
      "stateMutability": "pure",
      "type": "function"
    },
    {
      "inputs": [
        {
          "internalType": "address",
          "name": "spender",
          "type": "address"
        },
        {
          "internalType": "uint256",
          "name": "subtractedValue",
          "type": "uint256"
        }
      ],
      "name": "decreaseAllowance",
      "outputs": [
        {
          "internalType": "bool",
          "name": "",
          "type": "bool"
        }
      ],
      "stateMutability": "nonpayable",
      "type": "function"
    },
    {
      "inputs": [
        {
          "internalType": "address",
          "name": "user_",
          "type": "address"
        }
      ],
      "name": "earned",
      "outputs": [
        {
          "internalType": "uint256",
          "name": "",
          "type": "uint256"
        }
      ],
      "stateMutability": "view",
      "type": "function"
    },
    {
      "inputs": [],
      "name": "getCirculatingSupply",
      "outputs": [
        {
          "internalType": "uint256",
          "name": "",
          "type": "uint256"
        }
      ],
      "stateMutability": "view",
      "type": "function"
    },
    {
      "inputs": [],
      "name": "getRecicledSupply",
      "outputs": [
        {
          "internalType": "uint256",
          "name": "",
          "type": "uint256"
        }
      ],
      "stateMutability": "view",
      "type": "function"
    },
    {
      "inputs": [],
      "name": "getRewardRate",
      "outputs": [
        {
          "internalType": "uint256",
          "name": "",
          "type": "uint256"
        }
      ],
      "stateMutability": "view",
      "type": "function"
    },
    {
      "inputs": [
        {
          "internalType": "address",
          "name": "spender",
          "type": "address"
        },
        {
          "internalType": "uint256",
          "name": "addedValue",
          "type": "uint256"
        }
      ],
      "name": "increaseAllowance",
      "outputs": [
        {
          "internalType": "bool",
          "name": "",
          "type": "bool"
        }
      ],
      "stateMutability": "nonpayable",
      "type": "function"
    },
    {
      "inputs": [
        {
          "internalType": "address",
          "name": "underlying_",
          "type": "address"
        },
        {
          "internalType": "address",
          "name": "diamond_",
          "type": "address"
        },
        {
          "internalType": "string",
          "name": "name_",
          "type": "string"
        },
        {
          "internalType": "string",
          "name": "symbol_",
          "type": "string"
        }
      ],
      "name": "initialize",
      "outputs": [],
      "stateMutability": "nonpayable",
      "type": "function"
    },
    {
      "inputs": [],
      "name": "lastTimeRewardApplicable",
      "outputs": [
        {
          "internalType": "uint256",
          "name": "",
          "type": "uint256"
        }
      ],
      "stateMutability": "view",
      "type": "function"
    },
    {
      "inputs": [
        {
          "internalType": "bytes",
          "name": "data_",
          "type": "bytes"
        }
      ],
      "name": "mint",
      "outputs": [
        {
          "internalType": "uint256",
          "name": "",
          "type": "uint256"
        }
      ],
      "stateMutability": "nonpayable",
      "type": "function"
    },
    {
      "inputs": [],
      "name": "name",
      "outputs": [
        {
          "internalType": "string",
          "name": "",
          "type": "string"
        }
      ],
      "stateMutability": "view",
      "type": "function"
    },
    {
      "inputs": [
        {
          "internalType": "address",
          "name": "owner",
          "type": "address"
        }
      ],
      "name": "nonces",
      "outputs": [
        {
          "internalType": "uint256",
          "name": "",
          "type": "uint256"
        }
      ],
      "stateMutability": "view",
      "type": "function"
    },
    {
      "inputs": [
        {
          "internalType": "uint256",
          "name": "amount_",
          "type": "uint256"
        }
      ],
      "name": "notifyRewardAmount",
      "outputs": [],
      "stateMutability": "nonpayable",
      "type": "function"
    },
    {
      "inputs": [
        {
          "internalType": "address",
          "name": "owner",
          "type": "address"
        },
        {
          "internalType": "address",
          "name": "spender",
          "type": "address"
        },
        {
          "internalType": "uint256",
          "name": "value",
          "type": "uint256"
        },
        {
          "internalType": "uint256",
          "name": "deadline",
          "type": "uint256"
        },
        {
          "internalType": "uint8",
          "name": "v",
          "type": "uint8"
        },
        {
          "internalType": "bytes32",
          "name": "r",
          "type": "bytes32"
        },
        {
          "internalType": "bytes32",
          "name": "s_",
          "type": "bytes32"
        }
      ],
      "name": "permit",
      "outputs": [],
      "stateMutability": "nonpayable",
      "type": "function"
    },
    {
      "inputs": [
        {
          "internalType": "uint256",
          "name": "assets_",
          "type": "uint256"
        }
      ],
      "name": "previewMint",
      "outputs": [
        {
          "internalType": "uint256",
          "name": "",
          "type": "uint256"
        }
      ],
      "stateMutability": "view",
      "type": "function"
    },
    {
      "inputs": [
        {
          "internalType": "uint256",
          "name": "shares_",
          "type": "uint256"
        }
      ],
      "name": "previewRedeem",
      "outputs": [
        {
          "internalType": "uint256",
          "name": "",
          "type": "uint256"
        }
      ],
      "stateMutability": "view",
      "type": "function"
    },
    {
      "inputs": [
        {
          "internalType": "uint256",
          "name": "assets",
          "type": "uint256"
        }
      ],
      "name": "previewWithdraw",
      "outputs": [
        {
          "internalType": "uint256",
          "name": "",
          "type": "uint256"
        }
      ],
      "stateMutability": "view",
      "type": "function"
    },
    {
      "inputs": [
        {
          "internalType": "bytes",
          "name": "data_",
          "type": "bytes"
        }
      ],
      "name": "redeem",
      "outputs": [
        {
          "internalType": "uint256",
          "name": "",
          "type": "uint256"
        }
      ],
      "stateMutability": "nonpayable",
      "type": "function"
    },
    {
      "inputs": [],
      "name": "rewardPerToken",
      "outputs": [
        {
          "internalType": "uint256",
          "name": "",
          "type": "uint256"
        }
      ],
      "stateMutability": "view",
      "type": "function"
    },
    {
      "inputs": [
        {
          "internalType": "uint256",
          "name": "duration_",
          "type": "uint256"
        }
      ],
      "name": "setRewardsDuration",
      "outputs": [],
      "stateMutability": "nonpayable",
      "type": "function"
    },
    {
      "inputs": [
        {
          "internalType": "address",
          "name": "account_",
          "type": "address"
        }
      ],
      "name": "sharesOf",
      "outputs": [
        {
          "internalType": "uint256",
          "name": "",
          "type": "uint256"
        }
      ],
      "stateMutability": "view",
      "type": "function"
    },
    {
      "inputs": [],
      "name": "symbol",
      "outputs": [
        {
          "internalType": "string",
          "name": "",
          "type": "string"
        }
      ],
      "stateMutability": "view",
      "type": "function"
    },
    {
      "inputs": [],
      "name": "totalAssets",
      "outputs": [
        {
          "internalType": "uint256",
          "name": "",
          "type": "uint256"
        }
      ],
      "stateMutability": "view",
      "type": "function"
    },
    {
      "inputs": [],
      "name": "totalShares",
      "outputs": [
        {
          "internalType": "uint256",
          "name": "",
          "type": "uint256"
        }
      ],
      "stateMutability": "view",
      "type": "function"
    },
    {
      "inputs": [],
      "name": "totalSupply",
      "outputs": [
        {
          "internalType": "uint256",
          "name": "",
          "type": "uint256"
        }
      ],
      "stateMutability": "view",
      "type": "function"
    },
    {
      "inputs": [
        {
          "internalType": "address",
          "name": "to",
          "type": "address"
        },
        {
          "internalType": "uint256",
          "name": "amount",
          "type": "uint256"
        }
      ],
      "name": "transfer",
      "outputs": [
        {
          "internalType": "bool",
          "name": "",
          "type": "bool"
        }
      ],
      "stateMutability": "nonpayable",
      "type": "function"
    },
    {
      "inputs": [
        {
          "internalType": "address",
          "name": "from",
          "type": "address"
        },
        {
          "internalType": "address",
          "name": "to",
          "type": "address"
        },
        {
          "internalType": "uint256",
          "name": "amount",
          "type": "uint256"
        }
      ],
      "name": "transferFrom",
      "outputs": [
        {
          "internalType": "bool",
          "name": "",
          "type": "bool"
        }
      ],
      "stateMutability": "nonpayable",
      "type": "function"
    }
  ],
  "bytecode": {
    "object": "0x608060405234801561001057600080fd5b5061001961001e565b6100de565b602454610100900460ff161561008a5760405162461bcd60e51b815260206004820152602760248201527f496e697469616c697a61626c653a20636f6e747261637420697320696e697469604482015266616c697a696e6760c81b606482015260840160405180910390fd5b60245460ff90811610156100dc576024805460ff191660ff9081179091556040519081527f7f26b83ff96e1f2b6a682f133852f6798a09c465da95921460cefb38474024989060200160405180910390a15b565b611e3b806100ed6000396000f3fe608060405234801561001057600080fd5b50600436106102265760003560e01c80636a533a4c11610130578063a457c2d7116100b8578063cc1a378f1161007c578063cc1a378f1461034f578063cd3daf9d146102fb578063d505accf14610409578063dd62ed3e1461041c578063f5eb42dc1461042f57600080fd5b8063a457c2d7146103d0578063a9059cbb146103e3578063b3d7f6b9146103f6578063b88a802f146102fb578063c6e6f592146102a557600080fd5b80637ecebe00116100ff5780637ecebe001461039957806380faa57d146102fb57806395d89b41146103ac5780639945e3d3146103b4578063a01c8774146103c757600080fd5b80636a533a4c146102fb57806370a08231146103735780637ba0e2e7146103865780637e1a3786146102fb57600080fd5b806323b872dd116101b357806338d52e0f1161018257806338d52e0f1461031957806339509351146103345780633a98ef39146103475780633c6b16ab1461034f5780634cdad5061461036057600080fd5b806323b872dd146102e85780632b112e49146102fb578063313ce567146103025780633644e5151461031157600080fd5b8063095ea7b3116101fa578063095ea7b3146102825780630a28a477146102a557806318160ddd146102b85780631dc7f521146102c05780632016a0d2146102d357600080fd5b80628cc2621461022b57806301e1d1141461025257806306fdde031461025a57806307a2d13a1461026f575b600080fd5b61023f610239366004611647565b50600090565b6040519081526020015b60405180910390f35b61023f610458565b61026261046d565b60405161024991906116aa565b61023f61027d3660046116bd565b6104ff565b6102956102903660046116d6565b610510565b6040519015158152602001610249565b61023f6102b33660046116bd565b610526565b61023f610531565b61023f6102ce3660046116bd565b610550565b6102e66102e13660046117ea565b6105e0565b005b6102956102f6366004611873565b6107e3565b600061023f565b60405160128152602001610249565b61023f610805565b605a546040516001600160a01b039091168152602001610249565b6102956103423660046116d6565b61080f565b61023f610830565b6102e661035d3660046116bd565b50565b61023f61036e3660046116bd565b610841565b61023f610381366004611647565b61084c565b61023f6103943660046118b4565b61086e565b61023f6103a7366004611647565b6109af565b6102626109cd565b61023f6103c23660046118b4565b6109db565b61023f60615481565b6102956103de3660046116d6565b610b74565b6102956103f13660046116d6565b610bb1565b61023f6104043660046116bd565b610bbe565b6102e661041736600461190c565b610bc9565b61023f61042a36600461197d565b610ceb565b61023f61043d366004611647565b6001600160a01b03166000908152605c602052604090205490565b605b546000906104689082610d16565b905090565b6060605f805461047c906119b6565b80601f01602080910402602001604051908101604052809291908181526020018280546104a8906119b6565b80156104f55780601f106104ca576101008083540402835291602001916104f5565b820191906000526020600020905b8154815290600101906020018083116104d857829003601f168201915b5050505050905090565b600061050a82610d59565b92915050565b600061051d338484610e05565b50600192915050565b600061050a82610eb4565b600061053b610830565b156102395761046861054b610830565b610d59565b600061055a610830565b60595460405163a4fc284b60e01b81526001600160a01b039091169063a4fc284b9061058b90600190600401611a00565b602060405180830381865afa1580156105a8573d6000803e3d6000fd5b505050506040513d601f19601f820116820180604052508101906105cc9190611a28565b6105d69084611a57565b61050a9190611a6e565b602454610100900460ff16158080156106005750602454600160ff909116105b8061061a5750303b15801561061a575060245460ff166001145b6106825760405162461bcd60e51b815260206004820152602e60248201527f496e697469616c697a61626c653a20636f6e747261637420697320616c72656160448201526d191e481a5b9a5d1a585b1a5e995960921b60648201526084015b60405180910390fd5b6024805460ff1916600117905580156106a5576024805461ff0019166101001790555b605f6106b18482611adf565b5060606106be8382611adf565b50605980546001600160a01b038087166001600160a01b031992831617909255605a8054928816929091169190911790556040805180820190915260018152603160f81b6020820152610712908490610f40565b846001600160a01b031663313ce5676040518163ffffffff1660e01b8152600401602060405180830381865afa158015610750573d6000803e3d6000fd5b505050506040513d601f19601f820116820180604052508101906107749190611b9f565b60ff1660121461078557600161078c565b64e8d4a510005b64ffffffffff1660615580156107dc576024805461ff0019169055604051600181527f7f26b83ff96e1f2b6a682f133852f6798a09c465da95921460cefb38474024989060200160405180910390a15b5050505050565b60006107f0843384610f75565b6107fb848484610fc3565b5060019392505050565b60006104686110e1565b600061051d3384846108213388610ceb565b61082b9190611bbc565b610e05565b605b54600090610468906001610d16565b600061050a8261115c565b6001600160a01b0381166000908152605c602052604081205461050a906104ff565b60003381601d556000601b556001600160a01b038116156108b2576001600160a01b0381166000908152602160209081526040808320839055601d54918052909120555b600080848060200190518101906108c99190611bdf565b60615482519294509092506000916108e0916111e8565b6059549091506001600160a01b0316639ea04fe4610906605a546001600160a01b031690565b33866040518463ffffffff1660e01b815260040161092693929190611cd0565b600060405180830381600087803b15801561094057600080fd5b505af1158015610954573d6000803e3d6000fd5b505050506000610962610830565b156109755761097082610bbe565b610977565b815b9050610985828260016111fb565b6001600160a01b039092166000908152605c60205260409020805483019055509250505b50919050565b6001600160a01b0381166000908152605d602052604081205461050a565b606080805461047c906119b6565b60003381601d556000601b556001600160a01b03811615610a1f576001600160a01b0381166000908152602160209081526040808320839055601d54918052909120555b600083806020019051810190610a359190611d49565b5050505090506000610a5c336001600160a01b03166000908152605c602052604090205490565b90506000610a6983610526565b905080821015610a9c57604051637ac073bf60e01b81523360048201526024810183905260448101829052606401610679565b6000610aa782610841565b6059546040516314370d6760e31b81529192506000916001600160a01b039091169063a1b86b3890610adf9033908c90600401611d96565b6020604051808303816000875af1158015610afe573d6000803e3d6000fd5b505050506040513d601f19601f82011682018060405250810190610b229190611a28565b6059546001600160a01b03166000908152605c60205260409020549091509350610b4e828560006111fb565b6059546001600160a01b03166000908152605c6020526040812055979650505050505050565b600080610b813385610ceb565b905082811015610ba4576040516361ceb1d360e01b815260040160405180910390fd5b6107fb3385858403610e05565b600061051d338484610fc3565b600061050a82611259565b83421115610bf35760405163184f1e0160e11b815260048101859052426024820152604401610679565b60007f6e71edae12b1b97f4d1f60370fef10105fa2faae0126114a169c64845d6126c9888888610c228c61126e565b6040805160208101969096526001600160a01b0394851690860152929091166060840152608083015260a082015260c0810186905260e0016040516020818303038152906040528051906020012090506000610c7d82611294565b90506000610c8d828787876112e2565b9050896001600160a01b0316816001600160a01b031614610cd457604051635091bef560e01b81526001600160a01b0380831660048301528b166024820152604401610679565b610cdf8a8a8a610e05565b50505050505050505050565b6001600160a01b039182166000908152605e6020908152604080832093909416825291909152205490565b60006fffffffffffffffffffffffffffffffff81836001811115610d3c57610d3c6119ea565b14610d4957838116610d51565b608084901c81165b949350505050565b600061050a610d66610830565b15610d7857610d73610830565b610d7b565b60015b605960009054906101000a90046001600160a01b03166001600160a01b03166345089e296040518163ffffffff1660e01b8152600401602060405180830381865afa158015610dce573d6000803e3d6000fd5b505050506040513d601f19601f82011682018060405250810190610df29190611a28565b610dfc9190611a6e565b8390600161130a565b6001600160a01b0383161580610e2257506001600160a01b038216155b15610e5357604051637db368a160e01b81526001600160a01b03808516600483015283166024820152604401610679565b6001600160a01b038381166000818152605e602090815260408083209487168084529482529182902085905590518481527f8c5be1e5ebec7d5bd14f71427d1e84f3dd0314c0f7b2291e5b200ac8c7c3b925910160405180910390a3505050565b600061050a610ec1610830565b605960009054906101000a90046001600160a01b03166001600160a01b03166345089e296040518163ffffffff1660e01b8152600401602060405180830381865afa158015610f14573d6000803e3d6000fd5b505050506040513d601f19601f82011682018060405250810190610f389190611a28565b849190611328565b602454610100900460ff16610f675760405162461bcd60e51b815260040161067990611dba565b610f71828261134e565b5050565b6000610f818484610ceb565b90506000198114610fbd5781811015610fb0576040516306052b7f60e01b815260048101839052602401610679565b610fbd8484848403610e05565b50505050565b6001600160a01b0383161580610fe057506001600160a01b038216155b1561101157604051637db368a160e01b81526001600160a01b03808516600483015283166024820152604401610679565b600061101c82610526565b6001600160a01b0385166000908152605c602052604090205490915081811015611072576040516315c29bad60e31b81526001600160a01b03861660048201526024810182905260448101839052606401610679565b6001600160a01b038086166000818152605c602052604080822086860390559287168082529083902080548601905591517fddf252ad1be2c89b69c2b068fc378daa952ba7f163c4a11628f55a4df523b3ef906110d29087815260200190565b60405180910390a35050505050565b60006104687f8b73c3c69bb8fe3d512ecc4cf759cc79239f7b179b0ffacaa9a75d522b39400f61111060255490565b6026546040805160208101859052908101839052606081018290524660808201523060a082015260009060c0016040516020818303038152906040528051906020012090509392505050565b600061050a605960009054906101000a90046001600160a01b03166001600160a01b03166345089e296040518163ffffffff1660e01b8152600401602060405180830381865afa1580156111b4573d6000803e3d6000fd5b505050506040513d601f19601f820116820180604052508101906111d89190611a28565b6111e0610531565b84919061130a565b60006111f48284611a6e565b9392505050565b605b5460009061120b9082610d16565b905060006112256001605b54610d1690919063ffffffff16565b9050821561123857908401908301611241565b90849003908390035b61124f82608083901b611bbc565b605b555050505050565b600061050a611266610830565b6111e0610458565b6001600160a01b0381166000908152605d602052604090208054600181018255906109a9565b600061050a6112a16110e1565b8360405161190160f01b6020820152602281018390526042810182905260009060620160405160208183030381529060405280519060200120905092915050565b60008060006112f38787878761138f565b915091506113008161147c565b5095945050505050565b600082600019048411830215820261132157600080fd5b5091020490565b600082600019048411830215820261133f57600080fd5b50910281810615159190040190565b602454610100900460ff166113755760405162461bcd60e51b815260040161067990611dba565b815160209283012081519190920120602591909155602655565b6000807f7fffffffffffffffffffffffffffffff5d576e7357a4501ddfe92f46681b20a08311156113c65750600090506003611473565b8460ff16601b141580156113de57508460ff16601c14155b156113ef5750600090506004611473565b6040805160008082526020820180845289905260ff881692820192909252606081018690526080810185905260019060a0016020604051602081039080840390855afa158015611443573d6000803e3d6000fd5b5050604051601f1901519150506001600160a01b03811661146c57600060019250925050611473565b9150600090505b94509492505050565b6000816004811115611490576114906119ea565b036114985750565b60018160048111156114ac576114ac6119ea565b036114f95760405162461bcd60e51b815260206004820152601860248201527f45434453413a20696e76616c6964207369676e617475726500000000000000006044820152606401610679565b600281600481111561150d5761150d6119ea565b0361155a5760405162461bcd60e51b815260206004820152601f60248201527f45434453413a20696e76616c6964207369676e6174757265206c656e677468006044820152606401610679565b600381600481111561156e5761156e6119ea565b036115c65760405162461bcd60e51b815260206004820152602260248201527f45434453413a20696e76616c6964207369676e6174757265202773272076616c604482015261756560f01b6064820152608401610679565b60048160048111156115da576115da6119ea565b0361035d5760405162461bcd60e51b815260206004820152602260248201527f45434453413a20696e76616c6964207369676e6174757265202776272076616c604482015261756560f01b6064820152608401610679565b6001600160a01b038116811461035d57600080fd5b60006020828403121561165957600080fd5b81356111f481611632565b6000815180845260005b8181101561168a5760208185018101518683018201520161166e565b506000602082860101526020601f19601f83011685010191505092915050565b6020815260006111f46020830184611664565b6000602082840312156116cf57600080fd5b5035919050565b600080604083850312156116e957600080fd5b82356116f481611632565b946020939093013593505050565b634e487b7160e01b600052604160045260246000fd5b6040805190810167ffffffffffffffff8111828210171561173b5761173b611702565b60405290565b604051601f8201601f1916810167ffffffffffffffff8111828210171561176a5761176a611702565b604052919050565b600067ffffffffffffffff83111561178c5761178c611702565b61179f601f8401601f1916602001611741565b90508281528383830111156117b357600080fd5b828260208301376000602084830101529392505050565b600082601f8301126117db57600080fd5b6111f483833560208501611772565b6000806000806080858703121561180057600080fd5b843561180b81611632565b9350602085013561181b81611632565b9250604085013567ffffffffffffffff8082111561183857600080fd5b611844888389016117ca565b9350606087013591508082111561185a57600080fd5b50611867878288016117ca565b91505092959194509250565b60008060006060848603121561188857600080fd5b833561189381611632565b925060208401356118a381611632565b929592945050506040919091013590565b6000602082840312156118c657600080fd5b813567ffffffffffffffff8111156118dd57600080fd5b8201601f810184136118ee57600080fd5b610d5184823560208401611772565b60ff8116811461035d57600080fd5b600080600080600080600060e0888a03121561192757600080fd5b873561193281611632565b9650602088013561194281611632565b955060408801359450606088013593506080880135611960816118fd565b9699959850939692959460a0840135945060c09093013592915050565b6000806040838503121561199057600080fd5b823561199b81611632565b915060208301356119ab81611632565b809150509250929050565b600181811c908216806119ca57607f821691505b6020821081036109a957634e487b7160e01b600052602260045260246000fd5b634e487b7160e01b600052602160045260246000fd5b6020810160028310611a2257634e487b7160e01b600052602160045260246000fd5b91905290565b600060208284031215611a3a57600080fd5b5051919050565b634e487b7160e01b600052601160045260246000fd5b808202811582820484141761050a5761050a611a41565b600082611a8b57634e487b7160e01b600052601260045260246000fd5b500490565b601f821115611ada57600081815260208120601f850160051c81016020861015611ab75750805b601f850160051c820191505b81811015611ad657828155600101611ac3565b5050505b505050565b815167ffffffffffffffff811115611af957611af9611702565b611b0d81611b0784546119b6565b84611a90565b602080601f831160018114611b425760008415611b2a5750858301515b600019600386901b1c1916600185901b178555611ad6565b600085815260208120601f198616915b82811015611b7157888601518255948401946001909101908401611b52565b5085821015611b8f5787850151600019600388901b60f8161c191681555b5050505050600190811b01905550565b600060208284031215611bb157600080fd5b81516111f4816118fd565b8082018082111561050a5761050a611a41565b8051611bda81611632565b919050565b60008060408385031215611bf257600080fd5b825167ffffffffffffffff80821115611c0a57600080fd5b9084019060408287031215611c1e57600080fd5b611c26611718565b8251815260208084015183811115611c3d57600080fd5b80850194505087601f850112611c5257600080fd5b835183811115611c6457611c64611702565b8060051b9350611c75828501611741565b818152938501820193828101908a861115611c8f57600080fd5b958301955b85871015611cad57865182529583019590830190611c94565b8084860152505050819550611cc3818801611bcf565b9450505050509250929050565b600060018060a01b0380861683526020818616818501526060604085015260a08401915084516060850152808501516040608086015282815180855260c0870191508383019450600092505b80831015611d3c5784518252938301936001929092019190830190611d1c565b5098975050505050505050565b600080600080600060a08688031215611d6157600080fd5b855194506020860151935060408601519250606086015191506080860151611d8881611632565b809150509295509295909350565b6001600160a01b0383168152604060208201819052600090610d5190830184611664565b6020808252602b908201527f496e697469616c697a61626c653a20636f6e7472616374206973206e6f74206960408201526a6e697469616c697a696e6760a81b60608201526080019056fea2646970667358221220b50a07dcd837ff39e2bcb844a0bc7fa4d8ec365bdeba8229d183da89afdf6afc64736f6c63430008150033",
    "linkReferences": {}
  },
  "methodIdentifiers": {
    "DOMAIN_SEPARATOR()": "3644e515",
    "FORMAT_DECIMALS()": "a01c8774",
    "allowance(address,address)": "dd62ed3e",
    "approve(address,uint256)": "095ea7b3",
    "asset()": "38d52e0f",
    "balanceOf(address)": "70a08231",
    "claimReward()": "b88a802f",
    "convertToAssets(uint256)": "07a2d13a",
    "convertToShares(uint256)": "c6e6f592",
    "convertToUnderlying(uint256)": "1dc7f521",
    "decimals()": "313ce567",
    "decreaseAllowance(address,uint256)": "a457c2d7",
    "earned(address)": "008cc262",
    "getCirculatingSupply()": "2b112e49",
    "getRecicledSupply()": "6a533a4c",
    "getRewardRate()": "7e1a3786",
    "increaseAllowance(address,uint256)": "39509351",
    "initialize(address,address,string,string)": "2016a0d2",
    "lastTimeRewardApplicable()": "80faa57d",
    "mint(bytes)": "7ba0e2e7",
    "name()": "06fdde03",
    "nonces(address)": "7ecebe00",
    "notifyRewardAmount(uint256)": "3c6b16ab",
    "permit(address,address,uint256,uint256,uint8,bytes32,bytes32)": "d505accf",
    "previewMint(uint256)": "b3d7f6b9",
    "previewRedeem(uint256)": "4cdad506",
    "previewWithdraw(uint256)": "0a28a477",
    "redeem(bytes)": "9945e3d3",
    "rewardPerToken()": "cd3daf9d",
    "setRewardsDuration(uint256)": "cc1a378f",
    "sharesOf(address)": "f5eb42dc",
    "symbol()": "95d89b41",
    "totalAssets()": "01e1d114",
    "totalShares()": "3a98ef39",
    "totalSupply()": "18160ddd",
    "transfer(address,uint256)": "a9059cbb",
    "transferFrom(address,address,uint256)": "23b872dd"
  },
  "id": 35
}