{
  "abi": [
    {
      "inputs": [],
      "stateMutability": "nonpayable",
      "type": "constructor"
    },
    {
      "inputs": [],
      "name": "OZError03",
      "type": "error"
    },
    {
      "inputs": [
        {
          "internalType": "address",
          "name": "from",
          "type": "address"
        },
        {
          "internalType": "address",
          "name": "to",
          "type": "address"
        }
      ],
      "name": "OZError04",
      "type": "error"
    },
    {
      "inputs": [
        {
          "internalType": "uint256",
          "name": "amount",
          "type": "uint256"
        }
      ],
      "name": "OZError05",
      "type": "error"
    },
    {
      "inputs": [
        {
          "internalType": "address",
          "name": "sender",
          "type": "address"
        },
        {
          "internalType": "uint256",
          "name": "accountShares",
          "type": "uint256"
        },
        {
          "internalType": "uint256",
          "name": "shares",
          "type": "uint256"
        }
      ],
      "name": "OZError06",
      "type": "error"
    },
    {
      "inputs": [
        {
          "internalType": "address",
          "name": "from",
          "type": "address"
        },
        {
          "internalType": "uint256",
          "name": "fromShares",
          "type": "uint256"
        },
        {
          "internalType": "uint256",
          "name": "shares",
          "type": "uint256"
        }
      ],
      "name": "OZError07",
      "type": "error"
    },
    {
      "inputs": [
        {
          "internalType": "uint256",
          "name": "deadline",
          "type": "uint256"
        },
        {
          "internalType": "uint256",
          "name": "blockTimestamp",
          "type": "uint256"
        }
      ],
      "name": "OZError08",
      "type": "error"
    },
    {
      "inputs": [
        {
          "internalType": "address",
          "name": "owner",
          "type": "address"
        },
        {
          "internalType": "address",
          "name": "spender",
          "type": "address"
        }
      ],
      "name": "OZError09",
      "type": "error"
    },
    {
      "inputs": [
        {
          "internalType": "string",
          "name": "reason",
          "type": "string"
        }
      ],
      "name": "OZError22",
      "type": "error"
    },
    {
      "anonymous": false,
      "inputs": [
        {
          "indexed": true,
          "internalType": "address",
          "name": "owner",
          "type": "address"
        },
        {
          "indexed": true,
          "internalType": "address",
          "name": "spender",
          "type": "address"
        },
        {
          "indexed": false,
          "internalType": "uint256",
          "name": "value",
          "type": "uint256"
        }
      ],
      "name": "Approval",
      "type": "event"
    },
    {
      "anonymous": false,
      "inputs": [
        {
          "indexed": false,
          "internalType": "uint8",
          "name": "version",
          "type": "uint8"
        }
      ],
      "name": "Initialized",
      "type": "event"
    },
    {
      "anonymous": false,
      "inputs": [
        {
          "indexed": true,
          "internalType": "address",
          "name": "from",
          "type": "address"
        },
        {
          "indexed": true,
          "internalType": "address",
          "name": "to",
          "type": "address"
        },
        {
          "indexed": false,
          "internalType": "uint256",
          "name": "value",
          "type": "uint256"
        }
      ],
      "name": "Transfer",
      "type": "event"
    },
    {
      "inputs": [],
      "name": "DOMAIN_SEPARATOR",
      "outputs": [
        {
          "internalType": "bytes32",
          "name": "",
          "type": "bytes32"
        }
      ],
      "stateMutability": "view",
      "type": "function"
    },
    {
      "inputs": [],
      "name": "FORMAT_DECIMALS",
      "outputs": [
        {
          "internalType": "uint256",
          "name": "",
          "type": "uint256"
        }
      ],
      "stateMutability": "view",
      "type": "function"
    },
    {
      "inputs": [
        {
          "internalType": "uint256",
          "name": "shares_",
          "type": "uint256"
        }
      ],
      "name": "_convertToAssetsFromUnderlying",
      "outputs": [
        {
          "internalType": "uint256",
          "name": "",
          "type": "uint256"
        }
      ],
      "stateMutability": "view",
      "type": "function"
    },
    {
      "inputs": [
        {
          "internalType": "address",
          "name": "owner",
          "type": "address"
        },
        {
          "internalType": "address",
          "name": "spender",
          "type": "address"
        }
      ],
      "name": "allowance",
      "outputs": [
        {
          "internalType": "uint256",
          "name": "",
          "type": "uint256"
        }
      ],
      "stateMutability": "view",
      "type": "function"
    },
    {
      "inputs": [
        {
          "internalType": "address",
          "name": "spender",
          "type": "address"
        },
        {
          "internalType": "uint256",
          "name": "amount",
          "type": "uint256"
        }
      ],
      "name": "approve",
      "outputs": [
        {
          "internalType": "bool",
          "name": "",
          "type": "bool"
        }
      ],
      "stateMutability": "nonpayable",
      "type": "function"
    },
    {
      "inputs": [],
      "name": "asset",
      "outputs": [
        {
          "internalType": "address",
          "name": "",
          "type": "address"
        }
      ],
      "stateMutability": "view",
      "type": "function"
    },
    {
      "inputs": [
        {
          "internalType": "address",
          "name": "account_",
          "type": "address"
        }
      ],
      "name": "balanceOf",
      "outputs": [
        {
          "internalType": "uint256",
          "name": "",
          "type": "uint256"
        }
      ],
      "stateMutability": "view",
      "type": "function"
    },
    {
      "inputs": [],
      "name": "claimReward",
      "outputs": [
        {
          "internalType": "uint256",
          "name": "",
          "type": "uint256"
        }
      ],
      "stateMutability": "nonpayable",
      "type": "function"
    },
    {
      "inputs": [
        {
          "internalType": "uint256",
          "name": "shares",
          "type": "uint256"
        },
        {
          "internalType": "address",
          "name": "account_",
          "type": "address"
        }
      ],
      "name": "convertToAssets",
      "outputs": [
        {
          "internalType": "uint256",
          "name": "assets",
          "type": "uint256"
        }
      ],
      "stateMutability": "view",
      "type": "function"
    },
    {
      "inputs": [
        {
          "internalType": "uint256",
          "name": "assets",
          "type": "uint256"
        }
      ],
      "name": "convertToShares",
      "outputs": [
        {
          "internalType": "uint256",
          "name": "shares",
          "type": "uint256"
        }
      ],
      "stateMutability": "view",
      "type": "function"
    },
    {
      "inputs": [
        {
          "internalType": "uint256",
          "name": "shares_",
          "type": "uint256"
        }
      ],
      "name": "convertToUnderlying",
      "outputs": [
        {
          "internalType": "uint256",
          "name": "",
          "type": "uint256"
        }
      ],
      "stateMutability": "view",
      "type": "function"
    },
    {
      "inputs": [],
      "name": "decimals",
      "outputs": [
        {
          "internalType": "uint8",
          "name": "",
          "type": "uint8"
        }
      ],
      "stateMutability": "pure",
      "type": "function"
    },
    {
      "inputs": [
        {
          "internalType": "address",
          "name": "spender",
          "type": "address"
        },
        {
          "internalType": "uint256",
          "name": "subtractedValue",
          "type": "uint256"
        }
      ],
      "name": "decreaseAllowance",
      "outputs": [
        {
          "internalType": "bool",
          "name": "",
          "type": "bool"
        }
      ],
      "stateMutability": "nonpayable",
      "type": "function"
    },
    {
      "inputs": [
        {
          "internalType": "address",
          "name": "user_",
          "type": "address"
        }
      ],
      "name": "earned",
      "outputs": [
        {
          "internalType": "uint256",
          "name": "",
          "type": "uint256"
        }
      ],
      "stateMutability": "view",
      "type": "function"
    },
    {
      "inputs": [],
      "name": "getRewardsData",
      "outputs": [
        {
          "internalType": "uint256",
          "name": "rewardRate",
          "type": "uint256"
        },
        {
          "internalType": "uint256",
          "name": "circulatingSupply",
          "type": "uint256"
        },
        {
          "internalType": "uint256",
          "name": "pendingAllocation",
          "type": "uint256"
        },
        {
          "internalType": "uint256",
          "name": "recicledSupply",
          "type": "uint256"
        },
        {
          "internalType": "int256",
          "name": "durationLeft",
          "type": "int256"
        }
      ],
      "stateMutability": "view",
      "type": "function"
    },
    {
      "inputs": [
        {
          "internalType": "address",
          "name": "spender",
          "type": "address"
        },
        {
          "internalType": "uint256",
          "name": "addedValue",
          "type": "uint256"
        }
      ],
      "name": "increaseAllowance",
      "outputs": [
        {
          "internalType": "bool",
          "name": "",
          "type": "bool"
        }
      ],
      "stateMutability": "nonpayable",
      "type": "function"
    },
    {
      "inputs": [
        {
          "internalType": "address",
          "name": "underlying_",
          "type": "address"
        },
        {
          "internalType": "address",
          "name": "diamond_",
          "type": "address"
        },
        {
          "internalType": "string",
          "name": "name_",
          "type": "string"
        },
        {
          "internalType": "string",
          "name": "symbol_",
          "type": "string"
        }
      ],
      "name": "initialize",
      "outputs": [],
      "stateMutability": "nonpayable",
      "type": "function"
    },
    {
      "inputs": [],
      "name": "lastTimeRewardApplicable",
      "outputs": [
        {
          "internalType": "uint256",
          "name": "",
          "type": "uint256"
        }
      ],
      "stateMutability": "view",
      "type": "function"
    },
    {
      "inputs": [
        {
          "internalType": "bytes",
          "name": "data_",
          "type": "bytes"
        },
        {
          "internalType": "address",
          "name": "owner_",
          "type": "address"
        }
      ],
      "name": "mint",
      "outputs": [
        {
          "internalType": "uint256",
          "name": "",
          "type": "uint256"
        }
      ],
      "stateMutability": "nonpayable",
      "type": "function"
    },
    {
      "inputs": [],
      "name": "name",
      "outputs": [
        {
          "internalType": "string",
          "name": "",
          "type": "string"
        }
      ],
      "stateMutability": "view",
      "type": "function"
    },
    {
      "inputs": [
        {
          "internalType": "address",
          "name": "owner",
          "type": "address"
        }
      ],
      "name": "nonces",
      "outputs": [
        {
          "internalType": "uint256",
          "name": "",
          "type": "uint256"
        }
      ],
      "stateMutability": "view",
      "type": "function"
    },
    {
      "inputs": [
        {
          "internalType": "uint256",
          "name": "amount_",
          "type": "uint256"
        }
      ],
      "name": "notifyRewardAmount",
      "outputs": [],
      "stateMutability": "nonpayable",
      "type": "function"
    },
    {
      "inputs": [
        {
          "internalType": "address",
          "name": "owner",
          "type": "address"
        },
        {
          "internalType": "address",
          "name": "spender",
          "type": "address"
        },
        {
          "internalType": "uint256",
          "name": "value",
          "type": "uint256"
        },
        {
          "internalType": "uint256",
          "name": "deadline",
          "type": "uint256"
        },
        {
          "internalType": "uint8",
          "name": "v",
          "type": "uint8"
        },
        {
          "internalType": "bytes32",
          "name": "r",
          "type": "bytes32"
        },
        {
          "internalType": "bytes32",
          "name": "s_",
          "type": "bytes32"
        }
      ],
      "name": "permit",
      "outputs": [],
      "stateMutability": "nonpayable",
      "type": "function"
    },
    {
      "inputs": [
        {
          "internalType": "uint256",
          "name": "assets_",
          "type": "uint256"
        }
      ],
      "name": "previewMint",
      "outputs": [
        {
          "internalType": "uint256",
          "name": "",
          "type": "uint256"
        }
      ],
      "stateMutability": "view",
      "type": "function"
    },
    {
      "inputs": [
        {
          "internalType": "uint256",
          "name": "shares_",
          "type": "uint256"
        }
      ],
      "name": "previewRedeem",
      "outputs": [
        {
          "internalType": "uint256",
          "name": "",
          "type": "uint256"
        }
      ],
      "stateMutability": "view",
      "type": "function"
    },
    {
      "inputs": [
        {
          "internalType": "uint256",
          "name": "assets",
          "type": "uint256"
        }
      ],
      "name": "previewWithdraw",
      "outputs": [
        {
          "internalType": "uint256",
          "name": "",
          "type": "uint256"
        }
      ],
      "stateMutability": "view",
      "type": "function"
    },
    {
      "inputs": [
        {
          "internalType": "bytes",
          "name": "data_",
          "type": "bytes"
        },
        {
          "internalType": "address",
          "name": "owner_",
          "type": "address"
        }
      ],
      "name": "redeem",
      "outputs": [
        {
          "internalType": "uint256",
          "name": "",
          "type": "uint256"
        }
      ],
      "stateMutability": "nonpayable",
      "type": "function"
    },
    {
      "inputs": [],
      "name": "rewardPerToken",
      "outputs": [
        {
          "internalType": "uint256",
          "name": "",
          "type": "uint256"
        }
      ],
      "stateMutability": "view",
      "type": "function"
    },
    {
      "inputs": [
        {
          "internalType": "uint256",
          "name": "duration_",
          "type": "uint256"
        }
      ],
      "name": "setRewardsDuration",
      "outputs": [],
      "stateMutability": "nonpayable",
      "type": "function"
    },
    {
      "inputs": [
        {
          "internalType": "address",
          "name": "account_",
          "type": "address"
        }
      ],
      "name": "sharesOf",
      "outputs": [
        {
          "internalType": "uint256",
          "name": "",
          "type": "uint256"
        }
      ],
      "stateMutability": "view",
      "type": "function"
    },
    {
      "inputs": [
        {
          "internalType": "address",
          "name": "account_",
          "type": "address"
        }
      ],
      "name": "subBalanceOf",
      "outputs": [
        {
          "internalType": "uint256",
          "name": "",
          "type": "uint256"
        }
      ],
      "stateMutability": "view",
      "type": "function"
    },
    {
      "inputs": [
        {
          "internalType": "uint256",
          "name": "assets",
          "type": "uint256"
        },
        {
          "internalType": "address",
          "name": "account_",
          "type": "address"
        }
      ],
      "name": "subConvertToShares",
      "outputs": [
        {
          "internalType": "uint256",
          "name": "shares",
          "type": "uint256"
        }
      ],
      "stateMutability": "view",
      "type": "function"
    },
    {
      "inputs": [],
      "name": "symbol",
      "outputs": [
        {
          "internalType": "string",
          "name": "",
          "type": "string"
        }
      ],
      "stateMutability": "view",
      "type": "function"
    },
    {
      "inputs": [],
      "name": "totalAssets",
      "outputs": [
        {
          "internalType": "uint256",
          "name": "",
          "type": "uint256"
        }
      ],
      "stateMutability": "view",
      "type": "function"
    },
    {
      "inputs": [],
      "name": "totalShares",
      "outputs": [
        {
          "internalType": "uint256",
          "name": "",
          "type": "uint256"
        }
      ],
      "stateMutability": "view",
      "type": "function"
    },
    {
      "inputs": [],
      "name": "totalSupply",
      "outputs": [
        {
          "internalType": "uint256",
          "name": "",
          "type": "uint256"
        }
      ],
      "stateMutability": "view",
      "type": "function"
    },
    {
      "inputs": [],
      "name": "totalSupply2",
      "outputs": [
        {
          "internalType": "uint256",
          "name": "",
          "type": "uint256"
        }
      ],
      "stateMutability": "view",
      "type": "function"
    },
    {
      "inputs": [
        {
          "internalType": "address",
          "name": "to",
          "type": "address"
        },
        {
          "internalType": "uint256",
          "name": "amount",
          "type": "uint256"
        }
      ],
      "name": "transfer",
      "outputs": [
        {
          "internalType": "bool",
          "name": "",
          "type": "bool"
        }
      ],
      "stateMutability": "nonpayable",
      "type": "function"
    },
    {
      "inputs": [
        {
          "internalType": "address",
          "name": "from",
          "type": "address"
        },
        {
          "internalType": "address",
          "name": "to",
          "type": "address"
        },
        {
          "internalType": "uint256",
          "name": "amount",
          "type": "uint256"
        }
      ],
      "name": "transferFrom",
      "outputs": [
        {
          "internalType": "bool",
          "name": "",
          "type": "bool"
        }
      ],
      "stateMutability": "nonpayable",
      "type": "function"
    }
  ],
  "bytecode": {
    "object": "0x60806040523480156200001157600080fd5b506200001c62000022565b620000e4565b602b54610100900460ff16156200008f5760405162461bcd60e51b815260206004820152602760248201527f496e697469616c697a61626c653a20636f6e747261637420697320696e697469604482015266616c697a696e6760c81b606482015260840160405180910390fd5b602b5460ff9081161015620000e257602b805460ff191660ff9081179091556040519081527f7f26b83ff96e1f2b6a682f133852f6798a09c465da95921460cefb38474024989060200160405180910390a15b565b61301980620000f46000396000f3fe608060405234801561001057600080fd5b506004361061023c5760003560e01c80634702a0841161013b578063a457c2d7116100b8578063cc1a378f1161007c578063cc1a378f14610397578063cd3daf9d14610434578063d505accf1461048d578063dd62ed3e146104a0578063f5eb42dc146104b357600080fd5b8063a457c2d714610454578063a9059cbb14610467578063b3d7f6b91461047a578063b88a802f14610434578063c6e6f592146102a857600080fd5b80637ecebe00116100ff5780637ecebe001461042157806380faa57d1461043457806395d89b411461043b57806396178c2014610443578063a01c87741461044b57600080fd5b80634702a084146103a85780634cdad506146103bb57806370a08231146103ce57806370a25869146103e15780637d098e64146103f457600080fd5b80632016a0d2116101c95780633644e5151161018d5780633644e5151461035957806338d52e0f14610361578063395093511461037c5780633a98ef391461038f5780633c6b16ab1461039757600080fd5b80632016a0d2146102fc57806323b872dd14610311578063313ce5671461032457806332e5069014610333578063361032911461034657600080fd5b80630a28a477116102105780630a28a477146102a85780630ba097d6146102bb5780630cae37f1146102ce57806318160ddd146102e15780631dc7f521146102e957600080fd5b80628cc2621461024157806301e1d1141461026857806306fdde0314610270578063095ea7b314610285575b600080fd5b61025561024f3660046123bc565b50600090565b6040519081526020015b60405180910390f35b6102556104dc565b6102786104f1565b60405161025f9190612429565b61029861029336600461243c565b610583565b604051901515815260200161025f565b6102556102b6366004612468565b61059a565b6102556102c9366004612522565b6105a5565b6102556102dc366004612522565b610827565b610255610a0f565b6102556102f7366004612468565b610a64565b61030f61030a3660046125a8565b610af4565b005b61029861031f366004612631565b610cf2565b6040516012815260200161025f565b6102556103413660046123bc565b610d15565b610255610354366004612672565b610d37565b610255610d43565b6061546040516001600160a01b03909116815260200161025f565b61029861038a36600461243c565b610d4d565b610255610d6e565b61030f6103a5366004612468565b50565b6102556103b6366004612672565b610d7f565b6102556103c9366004612468565b610d8b565b6102556103dc3660046123bc565b610d96565b6102556103ef366004612468565b610db9565b6040805160008082526020820181905291810182905260608101829052608081019190915260a00161025f565b61025561042f3660046123bc565b610ded565b6000610255565b610278610e0b565b610255610e1a565b61025560685481565b61029861046236600461243c565b610e34565b61029861047536600461243c565b610e71565b610255610488366004612468565b610e7e565b61030f61049b3660046126a6565b610e89565b6102556104ae366004612717565b610fab565b6102556104c13660046123bc565b6001600160a01b031660009081526063602052604090205490565b6062546000906104ec9082610fd6565b905090565b60606066805461050090612745565b80601f016020809104026020016040519081016040528092919081815260200182805461052c90612745565b80156105795780601f1061054e57610100808354040283529160200191610579565b820191906000526020600020905b81548152906001019060200180831161055c57829003601f168201915b5050505050905090565b6000610590338484611010565b5060015b92915050565b6000610594826110bf565b60605460009082906001600160a01b0316801561061b576040516241fec360e31b81526001600160a01b03838116600483015282169063020ff61890602401600060405180830381600087803b1580156105fe57600080fd5b505af1158015610612573d6000803e3d6000fd5b5050505061065f565b6000601a5560006018556001600160a01b0382161561065f576001600160a01b0382166000908152601e60209081526040808320839055601a54601d909252909120555b600085806020019051810190610675919061280e565b5090506000610699866001600160a01b031660009081526063602052604090205490565b905060006106ab836000015188610d7f565b9050808210156106ec57604051637ac073bf60e01b81526001600160a01b038816600482015260248101839052604481018290526064015b60405180910390fd5b6060546040516314370d6760e31b815282916001600160a01b03169063a1b86b389061071e908b908d906004016128b3565b60408051808303816000875af1925050508015610758575060408051601f3d908101601f19168201909252610755918101906128d7565b60015b6107aa576107646128fb565b806308c379a00361079e5750610778612917565b8061078357506107a0565b80604051631bc63b8160e01b81526004016106e39190612429565b505b3d6000803e3d6000fd5b6107b58260006110dc565b6060546001600160a01b031660009081526063602052604090205494506107de8386600061114c565b6060546001600160a01b039081166000908152606360209081526040808320839055928d168252606990522080549390930390925550955061081f92505050565b505092915050565b60605460009082906001600160a01b0316801561089d576040516241fec360e31b81526001600160a01b03838116600483015282169063020ff61890602401600060405180830381600087803b15801561088057600080fd5b505af1158015610894573d6000803e3d6000fd5b505050506108e1565b6000601a5560006018556001600160a01b038216156108e1576001600160a01b0382166000908152601e60209081526040808320839055601a54601d909252909120555b600080868060200190518101906108f891906129a1565b606854825192945090925060009161090f916111aa565b6060549091506001600160a01b0316639ea04fe46109356061546001600160a01b031690565b89866040518463ffffffff1660e01b815260040161095593929190612a3a565b6020604051808303816000875af1925050508015610990575060408051601f3d908101601f1916820190925261098d91810190612ab3565b60015b61099c576107646128fb565b6109a78160016110dc565b60006109b1610d6e565b156109c4576109bf83610e7e565b6109c6565b825b90506109d48382600161114c565b6001600160a01b03909316600090815260636020908152604080832080548701905560699091529020805490920190915550935061081f9050565b6000610a19610d6e565b1561024f57610a2e610a29610d6e565b6111b6565b610a366104dc565b610a459064e8d4a51000612ae2565b610a4f9190612b0f565b610a5a610a29610d6e565b6104ec9190612ae2565b6000610a6e610d6e565b60605460405163a4fc284b60e01b81526001600160a01b039091169063a4fc284b90610a9f90600190600401612b39565b602060405180830381865afa158015610abc573d6000803e3d6000fd5b505050506040513d601f19601f82011682018060405250810190610ae09190612ab3565b610aea9084612ae2565b6105949190612b0f565b602b54610100900460ff1615808015610b145750602b54600160ff909116105b80610b2e5750303b158015610b2e5750602b5460ff166001145b610b915760405162461bcd60e51b815260206004820152602e60248201527f496e697469616c697a61626c653a20636f6e747261637420697320616c72656160448201526d191e481a5b9a5d1a585b1a5e995960921b60648201526084016106e3565b602b805460ff191660011790558015610bb457602b805461ff0019166101001790555b6066610bc08482612bac565b506067610bcd8382612bac565b50606080546001600160a01b038087166001600160a01b03199283161790925560618054928816929091169190911790556040805180820190915260018152603160f81b6020820152610c21908490611223565b846001600160a01b031663313ce5676040518163ffffffff1660e01b8152600401602060405180830381865afa158015610c5f573d6000803e3d6000fd5b505050506040513d601f19601f82011682018060405250810190610c839190612c6c565b60ff16601214610c94576001610c9b565b64e8d4a510005b64ffffffffff166068558015610ceb57602b805461ff0019169055604051600181527f7f26b83ff96e1f2b6a682f133852f6798a09c465da95921460cefb38474024989060200160405180910390a15b5050505050565b6000610cff843384611258565b610d0a8484846112a6565b5060015b9392505050565b6001600160a01b038116600090815260636020526040812054610594906111b6565b6000610d0e83836113d7565b60006104ec611416565b6000610590338484610d5f3388610fab565b610d699190612c89565b611010565b6062546000906104ec906001610fd6565b6000610d0e8383611491565b600061059482610db9565b6001600160a01b0381166000908152606360205260408120546105949083610d37565b60008082610dc5610d6e565b610dcf9190612c9c565b9050610d0e610ddc611514565b610de5856111b6565b859190611532565b6001600160a01b038116600090815260646020526040812054610594565b60606067805461050090612745565b6000610e24610d6e565b1561024f576104ec610a29610d6e565b600080610e413385610fab565b905082811015610e64576040516361ceb1d360e01b815260040160405180910390fd5b610d0a3385858403611010565b60006105903384846112a6565b600061059482611550565b83421115610eb35760405163184f1e0160e11b8152600481018590524260248201526044016106e3565b60007f6e71edae12b1b97f4d1f60370fef10105fa2faae0126114a169c64845d6126c9888888610ee28c61156d565b6040805160208101969096526001600160a01b0394851690860152929091166060840152608083015260a082015260c0810186905260e0016040516020818303038152906040528051906020012090506000610f3d82611595565b90506000610f4d828787876115e3565b9050896001600160a01b0316816001600160a01b031614610f9457604051635091bef560e01b81526001600160a01b0380831660048301528b1660248201526044016106e3565b610f9f8a8a8a611010565b50505050505050505050565b6001600160a01b03918216600090815260656020908152604080832093909416825291909152205490565b60006001600160801b0381836001811115610ff357610ff3612b23565b1461100057838116611008565b608084901c81165b949350505050565b6001600160a01b038316158061102d57506001600160a01b038216155b1561105e57604051637db368a160e01b81526001600160a01b038085166004830152831660248201526044016106e3565b6001600160a01b0383811660008181526065602090815260408083209487168084529482529182902085905590518481527f8c5be1e5ebec7d5bd14f71427d1e84f3dd0314c0f7b2291e5b200ac8c7c3b925910160405180910390a3505050565b60006105946110cc610d6e565b6110d4611514565b84919061160b565b60605460405163b0ff97b560e01b81523060048201526024810184905282151560448201526001600160a01b039091169063b0ff97b590606401600060405180830381600087803b15801561113057600080fd5b505af1158015611144573d6000803e3d6000fd5b505050505050565b60625460009061115c9082610fd6565b905060006111766001606254610fd690919063ffffffff16565b9050821561118957908401908301611192565b90849003908390035b6111a081608084901b612c89565b6062555050505050565b6000610d0e8284612b0f565b600073ae78736cd615f374d3085123a210448e74fc639373c02aaa39b223fe8d0a0e5c4f27ead9083c756cc2826111f08383610708611631565b905061121a816111fe610d6e565b156112105761120b610d6e565b611212565b825b879190611532565b95945050505050565b602b54610100900460ff1661124a5760405162461bcd60e51b81526004016106e390612caf565b61125482826117ea565b5050565b60006112648484610fab565b905060001981146112a05781811015611293576040516306052b7f60e01b8152600481018390526024016106e3565b6112a08484848403611010565b50505050565b6001600160a01b03831615806112c357506001600160a01b038216155b156112f457604051637db368a160e01b81526001600160a01b038085166004830152831660248201526044016106e3565b60006112ff8461182b565b6113088361059a565b6113129190612b0f565b6001600160a01b03851660009081526063602052604090205490915081811015611368576040516315c29bad60e31b81526001600160a01b038616600482015260248101829052604481018390526064016106e3565b6001600160a01b0380861660008181526063602052604080822086860390559287168082529083902080548601905591517fddf252ad1be2c89b69c2b068fc378daa952ba7f163c4a11628f55a4df523b3ef906113c89087815260200190565b60405180910390a35050505050565b6000806113e3846111b6565b9050801561140c576114076113f78461182b565b8290670de0b6b3a7640000611532565b611008565b5060009392505050565b60006104ec7f8b73c3c69bb8fe3d512ecc4cf759cc79239f7b179b0ffacaa9a75d522b39400f611445602c5490565b602d546040805160208101859052908101839052606081018290524660808201523060a082015260009060c0016040516020818303038152906040528051906020012090509392505050565b600073ae78736cd615f374d3085123a210448e74fc639373c02aaa39b223fe8d0a0e5c4f27ead9083c756cc2826114c78561182b565b905060006114d78484600a611631565b9050816114ed6114e5610d6e565b89908461160b565b6114ff90670de0b6b3a7640000612ae2565b6115099190612b0f565b979650505050505050565b6060546000906001600160a01b031661152c816118f0565b91505090565b600082600019048411830215820261154957600080fd5b5091020490565b600061059461155d610d6e565b6115656104dc565b849190611532565b6001600160a01b03811660009081526064602052604090208054600181018255905b50919050565b60006105946115a2611416565b8360405161190160f01b6020820152602281018390526042810182905260009060620160405160208183030381529060405280519060200120905092915050565b60008060006115f48787878761193c565b9150915061160181611a29565b5095945050505050565b600082600019048411830215820261162257600080fd5b50910281810615159190040190565b60408051600280825260608201835260009273a4e0faa58465a2d369aa21b3e42d43374c6f96139284929091602083019080368337019050509050838160008151811061168057611680612cfa565b602002602001019063ffffffff16908163ffffffff16815250506000816001815181106116af576116af612cfa565b63ffffffff9092166020928302919091019091015260405163883bdbfd60e01b81526000906001600160a01b0384169063883bdbfd906116f3908590600401612d10565b600060405180830381865afa158015611710573d6000803e3d6000fd5b505050506040513d6000823e601f3d908101601f191682016040526117389190810190612dc9565b50905060008160008151811061175057611750612cfa565b60200260200101518260018151811061176b5761176b612cfa565b602002602001015161177d9190612ea0565b9050600061178f600388900b83612ecd565b905060008260060b1280156117b357506117ad600388900b83612f0b565b60060b15155b156117c657806117c281612f2d565b9150505b60006117dc82670de0b6b3a76400008c8c611bdf565b9a9950505050505050505050565b602b54610100900460ff166118115760405162461bcd60e51b81526004016106e390612caf565b815160209283012081519190920120602c91909155602d55565b600073ae78736cd615f374d3085123a210448e74fc639373c02aaa39b223fe8d0a0e5c4f27ead9083c756cc282611866838362015180611631565b905060006118ab82611876610d6e565b1561188857611883610d6e565b61188a565b835b6001600160a01b0389166000908152606360205260409020545b9190611532565b6001600160a01b0387166000908152606960205260409020549091506118e690670de0b6b3a76400009083906118a49064e8d4a51000612ae2565b9695505050505050565b6040805160048152602481019091526020810180516001600160e01b0316636a57db9d60e11b1790526000906119268382611ced565b905080806020019051810190610d0e9190612ab3565b6000807f7fffffffffffffffffffffffffffffff5d576e7357a4501ddfe92f46681b20a08311156119735750600090506003611a20565b8460ff16601b1415801561198b57508460ff16601c14155b1561199c5750600090506004611a20565b6040805160008082526020820180845289905260ff881692820192909252606081018690526080810185905260019060a0016020604051602081039080840390855afa1580156119f0573d6000803e3d6000fd5b5050604051601f1901519150506001600160a01b038116611a1957600060019250925050611a20565b9150600090505b94509492505050565b6000816004811115611a3d57611a3d612b23565b03611a455750565b6001816004811115611a5957611a59612b23565b03611aa65760405162461bcd60e51b815260206004820152601860248201527f45434453413a20696e76616c6964207369676e6174757265000000000000000060448201526064016106e3565b6002816004811115611aba57611aba612b23565b03611b075760405162461bcd60e51b815260206004820152601f60248201527f45434453413a20696e76616c6964207369676e6174757265206c656e6774680060448201526064016106e3565b6003816004811115611b1b57611b1b612b23565b03611b735760405162461bcd60e51b815260206004820152602260248201527f45434453413a20696e76616c6964207369676e6174757265202773272076616c604482015261756560f01b60648201526084016106e3565b6004816004811115611b8757611b87612b23565b036103a55760405162461bcd60e51b815260206004820152602260248201527f45434453413a20696e76616c6964207369676e6174757265202776272076616c604482015261756560f01b60648201526084016106e3565b600080611beb86611d12565b90506001600160801b036001600160a01b03821611611c71576000611c196001600160a01b03831680612ae2565b9050836001600160a01b0316856001600160a01b031610611c5157611c4c600160c01b876001600160801b03168361212a565b611c69565b611c6981876001600160801b0316600160c01b61212a565b925050611ce4565b6000611c906001600160a01b038316806801000000000000000061212a565b9050836001600160a01b0316856001600160a01b031610611cc857611cc3600160801b876001600160801b03168361212a565b611ce0565b611ce081876001600160801b0316600160801b61212a565b9250505b50949350505050565b6060610d0e8383604051806060016040528060258152602001612fbf602591396122a0565b60008060008360020b12611d29578260020b611d36565b8260020b611d3690612f50565b9050611d45620d89e719612f6c565b60020b811115611d7b5760405162461bcd60e51b81526020600482015260016024820152601560fa1b60448201526064016106e3565b600081600116600003611d9257600160801b611da4565b6ffffcb933bd6fad37aa2d162d1a5940015b70ffffffffffffffffffffffffffffffffff1690506002821615611de3576080611dde826ffff97272373d413259a46990580e213a612ae2565b901c90505b6004821615611e0d576080611e08826ffff2e50f5f656932ef12357cf3c7fdcc612ae2565b901c90505b6008821615611e37576080611e32826fffe5caca7e10e4e61c3624eaa0941cd0612ae2565b901c90505b6010821615611e61576080611e5c826fffcb9843d60f6159c9db58835c926644612ae2565b901c90505b6020821615611e8b576080611e86826fff973b41fa98c081472e6896dfb254c0612ae2565b901c90505b6040821615611eb5576080611eb0826fff2ea16466c96a3843ec78b326b52861612ae2565b901c90505b6080821615611edf576080611eda826ffe5dee046a99a2a811c461f1969c3053612ae2565b901c90505b610100821615611f0a576080611f05826ffcbe86c7900a88aedcffc83b479aa3a4612ae2565b901c90505b610200821615611f35576080611f30826ff987a7253ac413176f2b074cf7815e54612ae2565b901c90505b610400821615611f60576080611f5b826ff3392b0822b70005940c7a398e4b70f3612ae2565b901c90505b610800821615611f8b576080611f86826fe7159475a2c29b7443b29c7fa6e889d9612ae2565b901c90505b611000821615611fb6576080611fb1826fd097f3bdfd2022b8845ad8f792aa5825612ae2565b901c90505b612000821615611fe1576080611fdc826fa9f746462d870fdf8a65dc1f90e061e5612ae2565b901c90505b61400082161561200c576080612007826f70d869a156d2a1b890bb3df62baf32f7612ae2565b901c90505b618000821615612037576080612032826f31be135f97d08fd981231505542fcfa6612ae2565b901c90505b6201000082161561206357608061205e826f09aa508b5b7a84e1c677de54f3e99bc9612ae2565b901c90505b6202000082161561208e576080612089826e5d6af8dedb81196699c329225ee604612ae2565b901c90505b620400008216156120b85760806120b3826d2216e584f5fa1ea926041bedfe98612ae2565b901c90505b620800008216156120e05760806120db826b048a170391f7dc42444e8fa2612ae2565b901c90505b60008460020b13156120fb576120f881600019612b0f565b90505b61210a64010000000082612f8e565b15612116576001612119565b60005b6110089060ff16602083901c612c89565b6000808060001985870985870292508281108382030391505080600003612163576000841161215857600080fd5b508290049050610d0e565b80841161216f57600080fd5b60008486880980840393811190920391905060008561218d81612f50565b169586900495938490049360008190030460010190506121ad8184612ae2565b9093179260006121be876003612ae2565b60021890506121cd8188612ae2565b6121d8906002612c9c565b6121e29082612ae2565b90506121ee8188612ae2565b6121f9906002612c9c565b6122039082612ae2565b905061220f8188612ae2565b61221a906002612c9c565b6122249082612ae2565b90506122308188612ae2565b61223b906002612c9c565b6122459082612ae2565b90506122518188612ae2565b61225c906002612c9c565b6122669082612ae2565b90506122728188612ae2565b61227d906002612c9c565b6122879082612ae2565b90506122938186612ae2565b9998505050505050505050565b6060600080856001600160a01b0316856040516122bd9190612fa2565b600060405180830381855afa9150503d80600081146122f8576040519150601f19603f3d011682016040523d82523d6000602084013e6122fd565b606091505b50915091506118e68683838760608315612378578251600003612371576001600160a01b0385163b6123715760405162461bcd60e51b815260206004820152601d60248201527f416464726573733a2063616c6c20746f206e6f6e2d636f6e747261637400000060448201526064016106e3565b5081611008565b611008838381511561238d5781518083602001fd5b8060405162461bcd60e51b81526004016106e39190612429565b6001600160a01b03811681146103a557600080fd5b6000602082840312156123ce57600080fd5b8135610d0e816123a7565b60005b838110156123f45781810151838201526020016123dc565b50506000910152565b600081518084526124158160208601602086016123d9565b601f01601f19169290920160200192915050565b602081526000610d0e60208301846123fd565b6000806040838503121561244f57600080fd5b823561245a816123a7565b946020939093013593505050565b60006020828403121561247a57600080fd5b5035919050565b634e487b7160e01b600052604160045260246000fd5b601f8201601f1916810167ffffffffffffffff811182821017156124bd576124bd612481565b6040525050565b600067ffffffffffffffff8311156124de576124de612481565b6040516124f5601f8501601f191660200182612497565b80915083815284848401111561250a57600080fd5b83836020830137600060208583010152509392505050565b6000806040838503121561253557600080fd5b823567ffffffffffffffff81111561254c57600080fd5b8301601f8101851361255d57600080fd5b61256c858235602084016124c4565b925050602083013561257d816123a7565b809150509250929050565b600082601f83011261259957600080fd5b610d0e838335602085016124c4565b600080600080608085870312156125be57600080fd5b84356125c9816123a7565b935060208501356125d9816123a7565b9250604085013567ffffffffffffffff808211156125f657600080fd5b61260288838901612588565b9350606087013591508082111561261857600080fd5b5061262587828801612588565b91505092959194509250565b60008060006060848603121561264657600080fd5b8335612651816123a7565b92506020840135612661816123a7565b929592945050506040919091013590565b6000806040838503121561268557600080fd5b82359150602083013561257d816123a7565b60ff811681146103a557600080fd5b600080600080600080600060e0888a0312156126c157600080fd5b87356126cc816123a7565b965060208801356126dc816123a7565b9550604088013594506060880135935060808801356126fa81612697565b9699959850939692959460a0840135945060c09093013592915050565b6000806040838503121561272a57600080fd5b8235612735816123a7565b9150602083013561257d816123a7565b600181811c9082168061275957607f821691505b60208210810361158f57634e487b7160e01b600052602260045260246000fd5b600067ffffffffffffffff82111561279357612793612481565b5060051b60200190565b600082601f8301126127ae57600080fd5b815160206127bb82612779565b6040516127c88282612497565b83815260059390931b85018201928281019150868411156127e857600080fd5b8286015b8481101561280357805183529183019183016127ec565b509695505050505050565b6000806040838503121561282157600080fd5b825167ffffffffffffffff8082111561283957600080fd5b908401906060828703121561284d57600080fd5b60405160608101818110838211171561286857612868612481565b8060405250825181526020830151602082015260408301518281111561288d57600080fd5b6128998882860161279d565b604083015250809450505050602083015161257d816123a7565b6001600160a01b0383168152604060208201819052600090611008908301846123fd565b600080604083850312156128ea57600080fd5b505080516020909101519092909150565b600060033d11156129145760046000803e5060005160e01c5b90565b600060443d10156129255790565b6040516003193d81016004833e81513d67ffffffffffffffff816024840111818411171561295557505050505090565b828501915081518181111561296d5750505050505090565b843d87010160208285010111156129875750505050505090565b61299660208286010187612497565b509095945050505050565b600080604083850312156129b457600080fd5b825167ffffffffffffffff808211156129cc57600080fd5b90840190604082870312156129e057600080fd5b6040516040810181811083821117156129fb576129fb612481565b60405282518152602083015182811115612a1457600080fd5b612a208882860161279d565b602083015250809450505050602083015161257d816123a7565b600060018060a01b0380861683526020818616818501526060604085015260a08401915084516060850152808501516040608086015282815180855260c0870191508383019450600092505b80831015612aa65784518252938301936001929092019190830190612a86565b5098975050505050505050565b600060208284031215612ac557600080fd5b5051919050565b634e487b7160e01b600052601160045260246000fd5b808202811582820484141761059457610594612acc565b634e487b7160e01b600052601260045260246000fd5b600082612b1e57612b1e612af9565b500490565b634e487b7160e01b600052602160045260246000fd5b6020810160028310612b5b57634e487b7160e01b600052602160045260246000fd5b91905290565b601f821115612ba757600081815260208120601f850160051c81016020861015612b885750805b601f850160051c820191505b8181101561114457828155600101612b94565b505050565b815167ffffffffffffffff811115612bc657612bc6612481565b612bda81612bd48454612745565b84612b61565b602080601f831160018114612c0f5760008415612bf75750858301515b600019600386901b1c1916600185901b178555611144565b600085815260208120601f198616915b82811015612c3e57888601518255948401946001909101908401612c1f565b5085821015612c5c5787850151600019600388901b60f8161c191681555b5050505050600190811b01905550565b600060208284031215612c7e57600080fd5b8151610d0e81612697565b8082018082111561059457610594612acc565b8181038181111561059457610594612acc565b6020808252602b908201527f496e697469616c697a61626c653a20636f6e7472616374206973206e6f74206960408201526a6e697469616c697a696e6760a81b606082015260800190565b634e487b7160e01b600052603260045260246000fd5b6020808252825182820181905260009190848201906040850190845b81811015612d4e57835163ffffffff1683529284019291840191600101612d2c565b50909695505050505050565b600082601f830112612d6b57600080fd5b81516020612d7882612779565b604051612d858282612497565b83815260059390931b8501820192828101915086841115612da557600080fd5b8286015b84811015612803578051612dbc816123a7565b8352918301918301612da9565b60008060408385031215612ddc57600080fd5b825167ffffffffffffffff80821115612df457600080fd5b818501915085601f830112612e0857600080fd5b81516020612e1582612779565b604051612e228282612497565b83815260059390931b8501820192828101915089841115612e4257600080fd5b948201945b83861015612e705785518060060b8114612e615760008081fd5b82529482019490820190612e47565b91880151919650909350505080821115612e8957600080fd5b50612e9685828601612d5a565b9150509250929050565b600682810b9082900b03667fffffffffffff198112667fffffffffffff8213171561059457610594612acc565b60008160060b8360060b80612ee457612ee4612af9565b667fffffffffffff19821460001982141615612f0257612f02612acc565b90059392505050565b60008260060b80612f1e57612f1e612af9565b808360060b0791505092915050565b60008160020b627fffff198103612f4657612f46612acc565b6000190192915050565b6000600160ff1b8201612f6557612f65612acc565b5060000390565b60008160020b627fffff198103612f8557612f85612acc565b60000392915050565b600082612f9d57612f9d612af9565b500690565b60008251612fb48184602087016123d9565b919091019291505056fe416464726573733a206c6f772d6c6576656c207374617469632063616c6c206661696c6564a264697066735822122082b981403fe58c5c86df1898814570c784d9c306fd95169ef212b692c351ef0064736f6c63430008150033",
    "linkReferences": {}
  },
  "methodIdentifiers": {
    "DOMAIN_SEPARATOR()": "3644e515",
    "FORMAT_DECIMALS()": "a01c8774",
    "_convertToAssetsFromUnderlying(uint256)": "70a25869",
    "allowance(address,address)": "dd62ed3e",
    "approve(address,uint256)": "095ea7b3",
    "asset()": "38d52e0f",
    "balanceOf(address)": "70a08231",
    "claimReward()": "b88a802f",
    "convertToAssets(uint256,address)": "36103291",
    "convertToShares(uint256)": "c6e6f592",
    "convertToUnderlying(uint256)": "1dc7f521",
    "decimals()": "313ce567",
    "decreaseAllowance(address,uint256)": "a457c2d7",
    "earned(address)": "008cc262",
    "getRewardsData()": "7d098e64",
    "increaseAllowance(address,uint256)": "39509351",
    "initialize(address,address,string,string)": "2016a0d2",
    "lastTimeRewardApplicable()": "80faa57d",
    "mint(bytes,address)": "0cae37f1",
    "name()": "06fdde03",
    "nonces(address)": "7ecebe00",
    "notifyRewardAmount(uint256)": "3c6b16ab",
    "permit(address,address,uint256,uint256,uint8,bytes32,bytes32)": "d505accf",
    "previewMint(uint256)": "b3d7f6b9",
    "previewRedeem(uint256)": "4cdad506",
    "previewWithdraw(uint256)": "0a28a477",
    "redeem(bytes,address)": "0ba097d6",
    "rewardPerToken()": "cd3daf9d",
    "setRewardsDuration(uint256)": "cc1a378f",
    "sharesOf(address)": "f5eb42dc",
    "subBalanceOf(address)": "32e50690",
    "subConvertToShares(uint256,address)": "4702a084",
    "symbol()": "95d89b41",
    "totalAssets()": "01e1d114",
    "totalShares()": "3a98ef39",
    "totalSupply()": "18160ddd",
    "totalSupply2()": "96178c20",
    "transfer(address,uint256)": "a9059cbb",
    "transferFrom(address,address,uint256)": "23b872dd"
  },
  "id": 45
}