{
  "abi": [
    {
      "inputs": [],
      "stateMutability": "nonpayable",
      "type": "constructor"
    },
    {
      "inputs": [
        {
          "internalType": "address",
          "name": "sender",
          "type": "address"
        },
        {
          "internalType": "uint256",
          "name": "shares",
          "type": "uint256"
        },
        {
          "internalType": "uint256",
          "name": "sharesNeeded",
          "type": "uint256"
        }
      ],
      "name": "ERC20InsufficientBalance",
      "type": "error"
    },
    {
      "inputs": [
        {
          "internalType": "address",
          "name": "receiver",
          "type": "address"
        }
      ],
      "name": "ERC20InvalidReceiver",
      "type": "error"
    },
    {
      "inputs": [
        {
          "internalType": "address",
          "name": "sender",
          "type": "address"
        }
      ],
      "name": "ERC20InvalidSender",
      "type": "error"
    },
    {
      "inputs": [
        {
          "internalType": "uint256",
          "name": "deadline",
          "type": "uint256"
        },
        {
          "internalType": "uint256",
          "name": "blockTimestamp",
          "type": "uint256"
        }
      ],
      "name": "ERC2612ExpiredDeadline",
      "type": "error"
    },
    {
      "inputs": [
        {
          "internalType": "address",
          "name": "owner",
          "type": "address"
        },
        {
          "internalType": "address",
          "name": "spender",
          "type": "address"
        }
      ],
      "name": "ERC2612InvalidSignature",
      "type": "error"
    },
    {
      "inputs": [
        {
          "internalType": "address",
          "name": "sender",
          "type": "address"
        },
        {
          "internalType": "uint256",
          "name": "shares",
          "type": "uint256"
        },
        {
          "internalType": "uint256",
          "name": "sharesNeeded",
          "type": "uint256"
        }
      ],
      "name": "USDMInsufficientBurnBalance",
      "type": "error"
    },
    {
      "inputs": [
        {
          "internalType": "address",
          "name": "account",
          "type": "address"
        }
      ],
      "name": "ozTokenInvalidMintReceiver",
      "type": "error"
    },
    {
      "anonymous": false,
      "inputs": [
        {
          "indexed": true,
          "internalType": "address",
          "name": "owner",
          "type": "address"
        },
        {
          "indexed": true,
          "internalType": "address",
          "name": "spender",
          "type": "address"
        },
        {
          "indexed": false,
          "internalType": "uint256",
          "name": "value",
          "type": "uint256"
        }
      ],
      "name": "Approval",
      "type": "event"
    },
    {
      "anonymous": false,
      "inputs": [
        {
          "indexed": true,
          "internalType": "address",
          "name": "caller",
          "type": "address"
        },
        {
          "indexed": true,
          "internalType": "address",
          "name": "owner",
          "type": "address"
        },
        {
          "indexed": false,
          "internalType": "uint256",
          "name": "assets",
          "type": "uint256"
        },
        {
          "indexed": false,
          "internalType": "uint256",
          "name": "shares",
          "type": "uint256"
        }
      ],
      "name": "Deposit",
      "type": "event"
    },
    {
      "anonymous": false,
      "inputs": [
        {
          "indexed": false,
          "internalType": "uint8",
          "name": "version",
          "type": "uint8"
        }
      ],
      "name": "Initialized",
      "type": "event"
    },
    {
      "anonymous": false,
      "inputs": [
        {
          "indexed": true,
          "internalType": "address",
          "name": "from",
          "type": "address"
        },
        {
          "indexed": true,
          "internalType": "address",
          "name": "to",
          "type": "address"
        },
        {
          "indexed": false,
          "internalType": "uint256",
          "name": "value",
          "type": "uint256"
        }
      ],
      "name": "Transfer",
      "type": "event"
    },
    {
      "anonymous": false,
      "inputs": [
        {
          "indexed": true,
          "internalType": "address",
          "name": "caller",
          "type": "address"
        },
        {
          "indexed": true,
          "internalType": "address",
          "name": "receiver",
          "type": "address"
        },
        {
          "indexed": true,
          "internalType": "address",
          "name": "owner",
          "type": "address"
        },
        {
          "indexed": false,
          "internalType": "uint256",
          "name": "assets",
          "type": "uint256"
        },
        {
          "indexed": false,
          "internalType": "uint256",
          "name": "shares",
          "type": "uint256"
        }
      ],
      "name": "Withdraw",
      "type": "event"
    },
    {
      "inputs": [],
      "name": "DOMAIN_SEPARATOR",
      "outputs": [
        {
          "internalType": "bytes32",
          "name": "",
          "type": "bytes32"
        }
      ],
      "stateMutability": "view",
      "type": "function"
    },
    {
      "inputs": [
        {
          "internalType": "address",
          "name": "owner",
          "type": "address"
        },
        {
          "internalType": "address",
          "name": "spender",
          "type": "address"
        }
      ],
      "name": "allowance",
      "outputs": [
        {
          "internalType": "uint256",
          "name": "",
          "type": "uint256"
        }
      ],
      "stateMutability": "view",
      "type": "function"
    },
    {
      "inputs": [
        {
          "internalType": "address",
          "name": "spender",
          "type": "address"
        },
        {
          "internalType": "uint256",
          "name": "amount",
          "type": "uint256"
        }
      ],
      "name": "approve",
      "outputs": [
        {
          "internalType": "bool",
          "name": "",
          "type": "bool"
        }
      ],
      "stateMutability": "nonpayable",
      "type": "function"
    },
    {
      "inputs": [],
      "name": "asset",
      "outputs": [
        {
          "internalType": "address",
          "name": "",
          "type": "address"
        }
      ],
      "stateMutability": "view",
      "type": "function"
    },
    {
      "inputs": [
        {
          "internalType": "address",
          "name": "account_",
          "type": "address"
        }
      ],
      "name": "balanceOf",
      "outputs": [
        {
          "internalType": "uint256",
          "name": "",
          "type": "uint256"
        }
      ],
      "stateMutability": "view",
      "type": "function"
    },
    {
      "inputs": [
        {
          "components": [
            {
              "internalType": "uint256",
              "name": "ozAmountIn",
              "type": "uint256"
            },
            {
              "internalType": "uint256",
              "name": "minWethOut",
              "type": "uint256"
            },
            {
              "internalType": "uint256",
              "name": "bptAmountIn",
              "type": "uint256"
            }
          ],
          "internalType": "struct TradeAmountsOut",
          "name": "amts_",
          "type": "tuple"
        },
        {
          "internalType": "address",
          "name": "receiver_",
          "type": "address"
        },
        {
          "internalType": "uint8",
          "name": "v_",
          "type": "uint8"
        },
        {
          "internalType": "bytes32",
          "name": "r_",
          "type": "bytes32"
        },
        {
          "internalType": "bytes32",
          "name": "s_",
          "type": "bytes32"
        }
      ],
      "name": "burn",
      "outputs": [
        {
          "internalType": "uint256",
          "name": "",
          "type": "uint256"
        }
      ],
      "stateMutability": "nonpayable",
      "type": "function"
    },
    {
      "inputs": [
        {
          "components": [
            {
              "internalType": "uint256",
              "name": "ozAmountIn",
              "type": "uint256"
            },
            {
              "internalType": "uint256",
              "name": "minWethOut",
              "type": "uint256"
            },
            {
              "internalType": "uint256",
              "name": "bptAmountIn",
              "type": "uint256"
            }
          ],
          "internalType": "struct TradeAmountsOut",
          "name": "amts_",
          "type": "tuple"
        },
        {
          "internalType": "address",
          "name": "receiver_",
          "type": "address"
        }
      ],
      "name": "burn",
      "outputs": [],
      "stateMutability": "nonpayable",
      "type": "function"
    },
    {
      "inputs": [
        {
          "internalType": "uint256",
          "name": "amount",
          "type": "uint256"
        },
        {
          "internalType": "address",
          "name": "receiver",
          "type": "address"
        }
      ],
      "name": "burn2",
      "outputs": [],
      "stateMutability": "nonpayable",
      "type": "function"
    },
    {
      "inputs": [
        {
          "internalType": "uint256",
          "name": "shares",
          "type": "uint256"
        }
      ],
      "name": "convertToAssets",
      "outputs": [
        {
          "internalType": "uint256",
          "name": "assets",
          "type": "uint256"
        }
      ],
      "stateMutability": "view",
      "type": "function"
    },
    {
      "inputs": [
        {
          "internalType": "uint256",
          "name": "assets",
          "type": "uint256"
        }
      ],
      "name": "convertToShares",
      "outputs": [
        {
          "internalType": "uint256",
          "name": "shares",
          "type": "uint256"
        }
      ],
      "stateMutability": "view",
      "type": "function"
    },
    {
      "inputs": [
        {
          "internalType": "uint256",
          "name": "shares_",
          "type": "uint256"
        }
      ],
      "name": "convertToUnderlying",
      "outputs": [
        {
          "internalType": "uint256",
          "name": "amountUnderlying",
          "type": "uint256"
        }
      ],
      "stateMutability": "view",
      "type": "function"
    },
    {
      "inputs": [],
      "name": "decimals",
      "outputs": [
        {
          "internalType": "uint8",
          "name": "",
          "type": "uint8"
        }
      ],
      "stateMutability": "view",
      "type": "function"
    },
    {
      "inputs": [
        {
          "internalType": "address",
          "name": "spender",
          "type": "address"
        },
        {
          "internalType": "uint256",
          "name": "subtractedValue",
          "type": "uint256"
        }
      ],
      "name": "decreaseAllowance",
      "outputs": [
        {
          "internalType": "bool",
          "name": "",
          "type": "bool"
        }
      ],
      "stateMutability": "nonpayable",
      "type": "function"
    },
    {
      "inputs": [
        {
          "internalType": "uint256",
          "name": "assets_",
          "type": "uint256"
        },
        {
          "internalType": "address",
          "name": "receiver_",
          "type": "address"
        }
      ],
      "name": "deposit",
      "outputs": [
        {
          "internalType": "uint256",
          "name": "",
          "type": "uint256"
        }
      ],
      "stateMutability": "nonpayable",
      "type": "function"
    },
    {
      "inputs": [
        {
          "internalType": "address",
          "name": "spender",
          "type": "address"
        },
        {
          "internalType": "uint256",
          "name": "addedValue",
          "type": "uint256"
        }
      ],
      "name": "increaseAllowance",
      "outputs": [
        {
          "internalType": "bool",
          "name": "",
          "type": "bool"
        }
      ],
      "stateMutability": "nonpayable",
      "type": "function"
    },
    {
      "inputs": [
        {
          "internalType": "address",
          "name": "underlying_",
          "type": "address"
        },
        {
          "internalType": "address",
          "name": "diamond_",
          "type": "address"
        },
        {
          "internalType": "string",
          "name": "name_",
          "type": "string"
        },
        {
          "internalType": "string",
          "name": "symbol_",
          "type": "string"
        }
      ],
      "name": "initialize",
      "outputs": [],
      "stateMutability": "nonpayable",
      "type": "function"
    },
    {
      "inputs": [
        {
          "internalType": "address",
          "name": "",
          "type": "address"
        }
      ],
      "name": "maxDeposit",
      "outputs": [
        {
          "internalType": "uint256",
          "name": "",
          "type": "uint256"
        }
      ],
      "stateMutability": "view",
      "type": "function"
    },
    {
      "inputs": [
        {
          "internalType": "address",
          "name": "",
          "type": "address"
        }
      ],
      "name": "maxMint",
      "outputs": [
        {
          "internalType": "uint256",
          "name": "",
          "type": "uint256"
        }
      ],
      "stateMutability": "view",
      "type": "function"
    },
    {
      "inputs": [
        {
          "internalType": "address",
          "name": "owner",
          "type": "address"
        }
      ],
      "name": "maxRedeem",
      "outputs": [
        {
          "internalType": "uint256",
          "name": "",
          "type": "uint256"
        }
      ],
      "stateMutability": "view",
      "type": "function"
    },
    {
      "inputs": [
        {
          "internalType": "address",
          "name": "owner",
          "type": "address"
        }
      ],
      "name": "maxWithdraw",
      "outputs": [
        {
          "internalType": "uint256",
          "name": "",
          "type": "uint256"
        }
      ],
      "stateMutability": "view",
      "type": "function"
    },
    {
      "inputs": [
        {
          "internalType": "uint256",
          "name": "shares",
          "type": "uint256"
        },
        {
          "internalType": "address",
          "name": "receiver",
          "type": "address"
        }
      ],
      "name": "mint",
      "outputs": [
        {
          "internalType": "uint256",
          "name": "",
          "type": "uint256"
        }
      ],
      "stateMutability": "nonpayable",
      "type": "function"
    },
    {
      "inputs": [
        {
          "components": [
            {
              "internalType": "uint256",
              "name": "amountIn",
              "type": "uint256"
            },
            {
              "internalType": "uint256",
              "name": "minWethOut",
              "type": "uint256"
            },
            {
              "internalType": "uint256",
              "name": "minRethOut",
              "type": "uint256"
            },
            {
              "internalType": "uint256",
              "name": "minBptOut",
              "type": "uint256"
            }
          ],
          "internalType": "struct TradeAmounts",
          "name": "amounts_",
          "type": "tuple"
        },
        {
          "internalType": "address",
          "name": "receiver_",
          "type": "address"
        },
        {
          "internalType": "uint8",
          "name": "v_",
          "type": "uint8"
        },
        {
          "internalType": "bytes32",
          "name": "r_",
          "type": "bytes32"
        },
        {
          "internalType": "bytes32",
          "name": "s_",
          "type": "bytes32"
        }
      ],
      "name": "mint",
      "outputs": [
        {
          "internalType": "uint256",
          "name": "",
          "type": "uint256"
        }
      ],
      "stateMutability": "nonpayable",
      "type": "function"
    },
    {
      "inputs": [],
      "name": "name",
      "outputs": [
        {
          "internalType": "string",
          "name": "",
          "type": "string"
        }
      ],
      "stateMutability": "view",
      "type": "function"
    },
    {
      "inputs": [
        {
          "internalType": "address",
          "name": "owner",
          "type": "address"
        }
      ],
      "name": "nonces",
      "outputs": [
        {
          "internalType": "uint256",
          "name": "",
          "type": "uint256"
        }
      ],
      "stateMutability": "view",
      "type": "function"
    },
    {
      "inputs": [
        {
          "internalType": "address",
          "name": "owner",
          "type": "address"
        },
        {
          "internalType": "address",
          "name": "spender",
          "type": "address"
        },
        {
          "internalType": "uint256",
          "name": "value",
          "type": "uint256"
        },
        {
          "internalType": "uint256",
          "name": "deadline",
          "type": "uint256"
        },
        {
          "internalType": "uint8",
          "name": "v",
          "type": "uint8"
        },
        {
          "internalType": "bytes32",
          "name": "r",
          "type": "bytes32"
        },
        {
          "internalType": "bytes32",
          "name": "s_",
          "type": "bytes32"
        }
      ],
      "name": "permit",
      "outputs": [],
      "stateMutability": "nonpayable",
      "type": "function"
    },
    {
      "inputs": [
        {
          "internalType": "uint256",
          "name": "assets_",
          "type": "uint256"
        }
      ],
      "name": "previewDeposit",
      "outputs": [
        {
          "internalType": "uint256",
          "name": "",
          "type": "uint256"
        }
      ],
      "stateMutability": "view",
      "type": "function"
    },
    {
      "inputs": [
        {
          "internalType": "uint256",
          "name": "shares",
          "type": "uint256"
        }
      ],
      "name": "previewMint",
      "outputs": [
        {
          "internalType": "uint256",
          "name": "",
          "type": "uint256"
        }
      ],
      "stateMutability": "view",
      "type": "function"
    },
    {
      "inputs": [
        {
          "internalType": "uint256",
          "name": "shares",
          "type": "uint256"
        }
      ],
      "name": "previewRedeem",
      "outputs": [
        {
          "internalType": "uint256",
          "name": "",
          "type": "uint256"
        }
      ],
      "stateMutability": "view",
      "type": "function"
    },
    {
      "inputs": [
        {
          "internalType": "uint256",
          "name": "assets",
          "type": "uint256"
        }
      ],
      "name": "previewWithdraw",
      "outputs": [
        {
          "internalType": "uint256",
          "name": "",
          "type": "uint256"
        }
      ],
      "stateMutability": "view",
      "type": "function"
    },
    {
      "inputs": [
        {
          "internalType": "uint256",
          "name": "shares",
          "type": "uint256"
        },
        {
          "internalType": "address",
          "name": "receiver",
          "type": "address"
        },
        {
          "internalType": "address",
          "name": "owner",
          "type": "address"
        }
      ],
      "name": "redeem",
      "outputs": [
        {
          "internalType": "uint256",
          "name": "",
          "type": "uint256"
        }
      ],
      "stateMutability": "nonpayable",
      "type": "function"
    },
    {
      "inputs": [
        {
          "internalType": "address",
          "name": "account_",
          "type": "address"
        }
      ],
      "name": "sharesOf",
      "outputs": [
        {
          "internalType": "uint256",
          "name": "",
          "type": "uint256"
        }
      ],
      "stateMutability": "view",
      "type": "function"
    },
    {
      "inputs": [],
      "name": "symbol",
      "outputs": [
        {
          "internalType": "string",
          "name": "",
          "type": "string"
        }
      ],
      "stateMutability": "view",
      "type": "function"
    },
    {
      "inputs": [],
      "name": "totalAssets",
      "outputs": [
        {
          "internalType": "uint256",
          "name": "",
          "type": "uint256"
        }
      ],
      "stateMutability": "view",
      "type": "function"
    },
    {
      "inputs": [],
      "name": "totalShares",
      "outputs": [
        {
          "internalType": "uint256",
          "name": "",
          "type": "uint256"
        }
      ],
      "stateMutability": "view",
      "type": "function"
    },
    {
      "inputs": [],
      "name": "totalSupply",
      "outputs": [
        {
          "internalType": "uint256",
          "name": "",
          "type": "uint256"
        }
      ],
      "stateMutability": "view",
      "type": "function"
    },
    {
      "inputs": [
        {
          "internalType": "address",
          "name": "to",
          "type": "address"
        },
        {
          "internalType": "uint256",
          "name": "amount",
          "type": "uint256"
        }
      ],
      "name": "transfer",
      "outputs": [
        {
          "internalType": "bool",
          "name": "",
          "type": "bool"
        }
      ],
      "stateMutability": "nonpayable",
      "type": "function"
    },
    {
      "inputs": [
        {
          "internalType": "address",
          "name": "from",
          "type": "address"
        },
        {
          "internalType": "address",
          "name": "to",
          "type": "address"
        },
        {
          "internalType": "uint256",
          "name": "amount",
          "type": "uint256"
        }
      ],
      "name": "transferFrom",
      "outputs": [
        {
          "internalType": "bool",
          "name": "",
          "type": "bool"
        }
      ],
      "stateMutability": "nonpayable",
      "type": "function"
    },
    {
      "inputs": [
        {
          "internalType": "uint256",
          "name": "assets",
          "type": "uint256"
        },
        {
          "internalType": "address",
          "name": "receiver",
          "type": "address"
        },
        {
          "internalType": "address",
          "name": "owner",
          "type": "address"
        }
      ],
      "name": "withdraw",
      "outputs": [
        {
          "internalType": "uint256",
          "name": "",
          "type": "uint256"
        }
      ],
      "stateMutability": "view",
      "type": "function"
    }
  ],
  "bytecode": {
    "object": "0x60806040523480156200001157600080fd5b506200001c62000022565b620000e4565b600054610100900460ff16156200008f5760405162461bcd60e51b815260206004820152602760248201527f496e697469616c697a61626c653a20636f6e747261637420697320696e697469604482015266616c697a696e6760c81b606482015260840160405180910390fd5b60005460ff9081161015620000e2576000805460ff191660ff9081179091556040519081527f7f26b83ff96e1f2b6a682f133852f6798a09c465da95921460cefb38474024989060200160405180910390a15b565b61272d80620000f46000396000f3fe608060405234801561001057600080fd5b50600436106102325760003560e01c80637ecebe0011610130578063ba087652116100b8578063d905777e1161007c578063d905777e14610488578063d93736121461049b578063dd62ed3e146104ae578063ef8b30f7146104c1578063f5eb42dc146104d457600080fd5b8063ba08765214610427578063c63d75b61461043a578063c6e6f5921461044f578063ce96cb7714610462578063d505accf1461047557600080fd5b806399273133116100ff57806399273133146103c8578063a457c2d7146103db578063a9059cbb146103ee578063b3d7f6b914610401578063b460af941461041457600080fd5b80637ecebe001461038857806394bf804d1461039b57806394d0459d146103ae57806395d89b41146103c057600080fd5b8063313ce567116101be578063402d267d11610182578063402d267d1461033c5780634b4e8b261461034f5780634cdad506146102635780636e553f651461036257806370a082311461037557600080fd5b8063313ce567146102ef5780633644e515146102fe57806338d52e0f1461030657806339509351146103215780633a98ef391461033457600080fd5b80630a28a477116102055780630a28a4771461029957806318160ddd146102ac5780631dc7f521146102b45780632016a0d2146102c757806323b872dd146102dc57600080fd5b806301e1d1141461023757806306fdde031461024e57806307a2d13a14610263578063095ea7b314610276575b600080fd5b60dc545b6040519081526020015b60405180910390f35b6102566104fd565b6040516102459190611f78565b61023b610271366004611fab565b61058f565b610289610284366004611fe0565b6105a2565b6040519015158152602001610245565b61023b6102a7366004611fab565b6105ba565b61023b6105c7565b61023b6102c2366004611fab565b6105eb565b6102da6102d53660046120ad565b61067c565b005b6102896102ea366004612132565b6107df565b60405160128152602001610245565b61023b610805565b6065546040516001600160a01b039091168152602001610245565b61028961032f366004611fe0565b61080f565b60db5461023b565b61023b61034a36600461216e565b610831565b61023b61035d3660046121f6565b61084f565b61023b61037036600461224c565b6109f4565b61023b61038336600461216e565b610a7c565b61023b61039636600461216e565b610a9e565b61023b6103a936600461224c565b610abc565b6102da6103bc366004612278565b5050565b610256610ad6565b6102da6103d636600461224c565b610ae5565b6102896103e9366004611fe0565b610bb8565b6102896103fc366004611fe0565b610c3e565b61023b61040f366004611fab565b610c4c565b61023b6104223660046122a3565b610c59565b61023b6104353660046122a3565b610cc7565b61023b61044836600461216e565b5060001990565b61023b61045d366004611fab565b610d43565b61023b61047036600461216e565b610d50565b6102da6104833660046122df565b610d65565b61023b61049636600461216e565b610e87565b61023b6104a9366004612349565b610e92565b61023b6104bc3660046123f2565b610fdc565b61023b6104cf366004611fab565b611007565b61023b6104e236600461216e565b6001600160a01b0316600090815260dd602052604090205490565b60606036805461050c9061241c565b80601f01602080910402602001604051908101604052809291908181526020018280546105389061241c565b80156105855780601f1061055a57610100808354040283529160200191610585565b820191906000526020600020905b81548152906001019060200180831161056857829003601f168201915b5050505050905090565b600061059c826000611014565b92915050565b6000336105b08185856110ad565b5060019392505050565b600061059c8260016111d1565b600060db546000146105e5576105e060db546000611014565b905090565b50600090565b60006105f660db5490565b60da5460405163a4fc284b60e01b81526001600160a01b039091169063a4fc284b9061062790600190600401612466565b602060405180830381865afa158015610644573d6000803e3d6000fd5b505050506040513d601f19601f82011682018060405250810190610668919061248e565b61067290846124bd565b61059c91906124ea565b600054610100900460ff161580801561069c5750600054600160ff909116105b806106b65750303b1580156106b6575060005460ff166001145b61071e5760405162461bcd60e51b815260206004820152602e60248201527f496e697469616c697a61626c653a20636f6e747261637420697320616c72656160448201526d191e481a5b9a5d1a585b1a5e995960921b60648201526084015b60405180910390fd5b6000805460ff191660011790558015610741576000805461ff0019166101001790555b61074b838361125f565b61075485611290565b61077783604051806040016040528060018152602001603160f81b8152506112c3565b60da80546001600160a01b0319166001600160a01b03861617905580156107d8576000805461ff0019169055604051600181527f7f26b83ff96e1f2b6a682f133852f6798a09c465da95921460cefb38474024989060200160405180910390a15b5050505050565b6000336107ed8582856112f4565b6107f885858561136e565b60019150505b9392505050565b60006105e0611469565b6000336105b08185856108228383610fdc565b61082c919061250c565b6110ad565b600061083b6114e4565b61084657600061059c565b60001992915050565b60da54855160405163d505accf60e01b8152600092309263d505accf9261088e9233926001600160a01b039091169142908b908b908b9060040161251f565b600060405180830381600087803b1580156108a857600080fd5b505af11580156108bc573d6000803e3d6000fd5b505060da5460408051633ccf7dc360e11b81528a51600482015260208b01516024820152908a015160448201523060648201523360848201526001600160a01b0389811660a4830152909116925063799efb86915060c401600060405180830381600087803b15801561092e57600080fd5b505af1158015610942573d6000803e3d6000fd5b50505050600061095787600001518733610c59565b9050600061096d6065546001600160a01b031690565b6040516370a0823160e01b81523060048201526001600160a01b0391909116906370a0823190602401602060405180830381865afa1580156109b3573d6000803e3d6000fd5b505050506040513d601f19601f820116820180604052508101906109d7919061248e565b90506109e63388338486611505565b506001979650505050505050565b60006109ff82610831565b831115610a4e5760405162461bcd60e51b815260206004820152601e60248201527f455243343632363a206465706f736974206d6f7265207468616e206d617800006044820152606401610715565b6000610a5960db5490565b15610a6c57610a6784611007565b610a6e565b835b90506107fe338486846115b1565b6001600160a01b038116600090815260dd602052604081205461059c9061058f565b6001600160a01b038116600090815260de602052604081205461059c565b600080610ac884610c4c565b90506107fe338483876115b1565b60606037805461050c9061241c565b604080516001600160a01b0383166024820152604480820185905282518083039091018152606490910182526020810180516001600160e01b031663a9059cbb60e01b17905290516000913091610b3c9190612560565b600060405180830381855af49150503d8060008114610b77576040519150601f19603f3d011682016040523d82523d6000602084013e610b7c565b606091505b5050905080610bb35760405162461bcd60e51b815260206004820152600360248201526223333360e91b6044820152606401610715565b505050565b60003381610bc68286610fdc565b905083811015610c265760405162461bcd60e51b815260206004820152602560248201527f45524332303a2064656372656173656420616c6c6f77616e63652062656c6f77604482015264207a65726f60d81b6064820152608401610715565b610c3382868684036110ad565b506001949350505050565b6000336105b081858561136e565b600061059c826001611014565b6000610c6482610d50565b841115610cb35760405162461bcd60e51b815260206004820152601f60248201527f455243343632363a207769746864726177206d6f7265207468616e206d6178006044820152606401610715565b6000610cbe856105ba565b95945050505050565b6000610cd282610e87565b841115610d215760405162461bcd60e51b815260206004820152601d60248201527f455243343632363a2072656465656d206d6f7265207468616e206d61780000006044820152606401610715565b6000610d2c8561058f565b9050610d3b3385858489611505565b949350505050565b600061059c8260006111d1565b600061059c610d5e83610a7c565b6000611014565b83421115610d8f5760405163233730db60e11b815260048101859052426024820152604401610715565b60007f6e71edae12b1b97f4d1f60370fef10105fa2faae0126114a169c64845d6126c9888888610dbe8c61164c565b6040805160208101969096526001600160a01b0394851690860152929091166060840152608083015260a082015260c0810186905260e0016040516020818303038152906040528051906020012090506000610e1982611674565b90506000610e29828787876116c2565b9050896001600160a01b0316816001600160a01b031614610e7057604051630189c63360e31b81526001600160a01b03808c1660048301528a166024820152604401610715565b610e7b8a8a8a6110ad565b50505050505050505050565b600061059c82610a7c565b600080610ea76065546001600160a01b031690565b60da54885160405163d505accf60e01b81529293506001600160a01b038085169363d505accf93610ee89333939091169142908c908c908c9060040161251f565b600060405180830381600087803b158015610f0257600080fd5b505af1158015610f16573d6000803e3d6000fd5b505060da5460408051635879601960e01b81526001600160a01b0386811660048301523360248301528c51604483015260208d01516064830152918c0151608482015260608c015160a4820152911692506358796019915060c401600060405180830381600087803b158015610f8b57600080fd5b505af1158015610f9f573d6000803e3d6000fd5b505050506000610fb38860000151886109f4565b9050876000015160dc6000828254610fcb919061250c565b909155509098975050505050505050565b6001600160a01b03918216600090815260346020908152604080832093909416825291909152205490565b600061059c8260006116ea565b60006107fe61102260db5490565b60da60009054906101000a90046001600160a01b03166001600160a01b03166345089e296040518163ffffffff1660e01b8152600401602060405180830381865afa158015611075573d6000803e3d6000fd5b505050506040513d601f19601f82011682018060405250810190611099919061248e565b6110a391906124ea565b8490600185611700565b6001600160a01b03831661110f5760405162461bcd60e51b8152602060048201526024808201527f45524332303a20617070726f76652066726f6d20746865207a65726f206164646044820152637265737360e01b6064820152608401610715565b6001600160a01b0382166111705760405162461bcd60e51b815260206004820152602260248201527f45524332303a20617070726f766520746f20746865207a65726f206164647265604482015261737360f01b6064820152608401610715565b6001600160a01b0383811660008181526034602090815260408083209487168084529482529182902085905590518481527f8c5be1e5ebec7d5bd14f71427d1e84f3dd0314c0f7b2291e5b200ac8c7c3b925910160405180910390a3505050565b60006107fe6111df60db5490565b60da60009054906101000a90046001600160a01b03166001600160a01b03166345089e296040518163ffffffff1660e01b8152600401602060405180830381865afa158015611232573d6000803e3d6000fd5b505050506040513d601f19601f82011682018060405250810190611256919061248e565b85919085611700565b600054610100900460ff166112865760405162461bcd60e51b81526004016107159061257c565b6103bc828261175b565b600054610100900460ff166112b75760405162461bcd60e51b81526004016107159061257c565b6112c08161179b565b50565b600054610100900460ff166112ea5760405162461bcd60e51b81526004016107159061257c565b6103bc82826117e4565b60006113008484610fdc565b90506000198114611368578181101561135b5760405162461bcd60e51b815260206004820152601d60248201527f45524332303a20696e73756666696369656e7420616c6c6f77616e63650000006044820152606401610715565b61136884848484036110ad565b50505050565b6001600160a01b0383166113a057604051634b637e8f60e11b81526001600160a01b0384166004820152602401610715565b6001600160a01b0382166113d25760405163ec442f0560e01b81526001600160a01b0383166004820152602401610715565b60006113dd82610d43565b6001600160a01b038516600090815260dd6020526040902054909150818110156114335760405163391434e360e21b81526001600160a01b03861660048201526024810182905260448101839052606401610715565b6001600160a01b03948516600090815260dd60205260408082209284900390925593909416835292909120805490920190915550565b60006105e07f8b73c3c69bb8fe3d512ecc4cf759cc79239f7b179b0ffacaa9a75d522b39400f61149860975490565b6098546040805160208101859052908101839052606081018290524660808201523060a082015260009060c0016040516020818303038152906040528051906020012090509392505050565b6000806114f060dc5490565b11806105e057506114ff6105c7565b15905090565b826001600160a01b0316856001600160a01b031614611529576115298386836112f4565b6115338382611825565b60655461154a906001600160a01b031685846118eb565b826001600160a01b0316846001600160a01b0316866001600160a01b03167ffbde797d201c681b91056529119e0b02407c7bb96a4a2c75c01fc9667232c8db85856040516115a2929190918252602082015260400190565b60405180910390a45050505050565b8060db60008282546115c3919061250c565b90915550506001600160a01b038316600090815260dd602052604090208054820190556115f0838361193d565b826001600160a01b0316846001600160a01b03167fdcbc1c05240f31ff3ad067ef1ee35ce4997762752e3a095284754544f4c709d7848460405161163e929190918252602082015260400190565b60405180910390a350505050565b6001600160a01b038116600090815260de602052604090208054600181018255905b50919050565b600061059c611681611469565b8360405161190160f01b6020820152602281018390526042810182905260009060620160405160208183030381529060405280519060200120905092915050565b60008060006116d387878787611a1c565b915091506116e081611b09565b5095945050505050565b60006107fe6116f860db5490565b60dc54611256565b60008061170e868686611cbf565b9050600183600281111561172457611724612450565b14801561174157506000848061173c5761173c6124d4565b868809115b15610cbe5761175160018261250c565b9695505050505050565b600054610100900460ff166117825760405162461bcd60e51b81526004016107159061257c565b603661178e8382612615565b506037610bb38282612615565b600054610100900460ff166117c25760405162461bcd60e51b81526004016107159061257c565b606580546001600160a01b0319166001600160a01b0392909216919091179055565b600054610100900460ff1661180b5760405162461bcd60e51b81526004016107159061257c565b815160209283012081519190920120609791909155609855565b6001600160a01b03821661185757604051637c896cfb60e01b81526001600160a01b0383166004820152602401610715565b6001600160a01b038216600090815260dd60205260408120549061187a8361058f565b9050828210156118b657604051633803cef960e11b81526001600160a01b03851660048201526024810183905260448101849052606401610715565b6001600160a01b03909316600090815260dd6020526040902090829003905560db805491909103905560dc8054919091039055565b604080516001600160a01b038416602482015260448082018490528251808303909101815260649091019091526020810180516001600160e01b031663a9059cbb60e01b179052610bb3908490611d6e565b6001600160a01b0382166119935760405162461bcd60e51b815260206004820152601f60248201527f45524332303a206d696e7420746f20746865207a65726f2061646472657373006044820152606401610715565b80603560008282546119a5919061250c565b90915550506001600160a01b038216600090815260336020526040812080548392906119d290849061250c565b90915550506040518181526001600160a01b038316906000907fddf252ad1be2c89b69c2b068fc378daa952ba7f163c4a11628f55a4df523b3ef9060200160405180910390a35050565b6000807f7fffffffffffffffffffffffffffffff5d576e7357a4501ddfe92f46681b20a0831115611a535750600090506003611b00565b8460ff16601b14158015611a6b57508460ff16601c14155b15611a7c5750600090506004611b00565b6040805160008082526020820180845289905260ff881692820192909252606081018690526080810185905260019060a0016020604051602081039080840390855afa158015611ad0573d6000803e3d6000fd5b5050604051601f1901519150506001600160a01b038116611af957600060019250925050611b00565b9150600090505b94509492505050565b6000816004811115611b1d57611b1d612450565b03611b255750565b6001816004811115611b3957611b39612450565b03611b865760405162461bcd60e51b815260206004820152601860248201527f45434453413a20696e76616c6964207369676e617475726500000000000000006044820152606401610715565b6002816004811115611b9a57611b9a612450565b03611be75760405162461bcd60e51b815260206004820152601f60248201527f45434453413a20696e76616c6964207369676e6174757265206c656e677468006044820152606401610715565b6003816004811115611bfb57611bfb612450565b03611c535760405162461bcd60e51b815260206004820152602260248201527f45434453413a20696e76616c6964207369676e6174757265202773272076616c604482015261756560f01b6064820152608401610715565b6004816004811115611c6757611c67612450565b036112c05760405162461bcd60e51b815260206004820152602260248201527f45434453413a20696e76616c6964207369676e6174757265202776272076616c604482015261756560f01b6064820152608401610715565b6000808060001985870985870292508281108382030391505080600003611cf957838281611cef57611cef6124d4565b04925050506107fe565b808411611d0557600080fd5b60008486880960026001871981018816978890046003810283188082028403028082028403028082028403028082028403028082028403029081029092039091026000889003889004909101858311909403939093029303949094049190911702949350505050565b6000611dc3826040518060400160405280602081526020017f5361666545524332303a206c6f772d6c6576656c2063616c6c206661696c6564815250856001600160a01b0316611e409092919063ffffffff16565b805190915015610bb35780806020019051810190611de191906126d5565b610bb35760405162461bcd60e51b815260206004820152602a60248201527f5361666545524332303a204552433230206f7065726174696f6e20646964206e6044820152691bdd081cdd58d8d9595960b21b6064820152608401610715565b6060610d3b8484600085856001600160a01b0385163b611ea25760405162461bcd60e51b815260206004820152601d60248201527f416464726573733a2063616c6c20746f206e6f6e2d636f6e74726163740000006044820152606401610715565b600080866001600160a01b03168587604051611ebe9190612560565b60006040518083038185875af1925050503d8060008114611efb576040519150601f19603f3d011682016040523d82523d6000602084013e611f00565b606091505b5091509150611f10828286611f1b565b979650505050505050565b60608315611f2a5750816107fe565b825115611f3a5782518084602001fd5b8160405162461bcd60e51b81526004016107159190611f78565b60005b83811015611f6f578181015183820152602001611f57565b50506000910152565b6020815260008251806020840152611f97816040850160208701611f54565b601f01601f19169190910160400192915050565b600060208284031215611fbd57600080fd5b5035919050565b80356001600160a01b0381168114611fdb57600080fd5b919050565b60008060408385031215611ff357600080fd5b611ffc83611fc4565b946020939093013593505050565b634e487b7160e01b600052604160045260246000fd5b600082601f83011261203157600080fd5b813567ffffffffffffffff8082111561204c5761204c61200a565b604051601f8301601f19908116603f011681019082821181831017156120745761207461200a565b8160405283815286602085880101111561208d57600080fd5b836020870160208301376000602085830101528094505050505092915050565b600080600080608085870312156120c357600080fd5b6120cc85611fc4565b93506120da60208601611fc4565b9250604085013567ffffffffffffffff808211156120f757600080fd5b61210388838901612020565b9350606087013591508082111561211957600080fd5b5061212687828801612020565b91505092959194509250565b60008060006060848603121561214757600080fd5b61215084611fc4565b925061215e60208501611fc4565b9150604084013590509250925092565b60006020828403121561218057600080fd5b6107fe82611fc4565b60006060828403121561219b57600080fd5b6040516060810181811067ffffffffffffffff821117156121be576121be61200a565b80604052508091508235815260208301356020820152604083013560408201525092915050565b803560ff81168114611fdb57600080fd5b600080600080600060e0868803121561220e57600080fd5b6122188787612189565b945061222660608701611fc4565b9350612234608087016121e5565b9497939650939460a0810135945060c0013592915050565b6000806040838503121561225f57600080fd5b8235915061226f60208401611fc4565b90509250929050565b6000806080838503121561228b57600080fd5b6122958484612189565b915061226f60608401611fc4565b6000806000606084860312156122b857600080fd5b833592506122c860208501611fc4565b91506122d660408501611fc4565b90509250925092565b600080600080600080600060e0888a0312156122fa57600080fd5b61230388611fc4565b965061231160208901611fc4565b9550604088013594506060880135935061232d608089016121e5565b925060a0880135915060c0880135905092959891949750929550565b600080600080600085870361010081121561236357600080fd5b608081121561237157600080fd5b506040516080810181811067ffffffffffffffff821117156123955761239561200a565b806040525086358152602087013560208201526040870135604082015260608701356060820152809550506123cc60808701611fc4565b93506123da60a087016121e5565b9497939650939460c0810135945060e0013592915050565b6000806040838503121561240557600080fd5b61240e83611fc4565b915061226f60208401611fc4565b600181811c9082168061243057607f821691505b60208210810361166e57634e487b7160e01b600052602260045260246000fd5b634e487b7160e01b600052602160045260246000fd5b602081016002831061248857634e487b7160e01b600052602160045260246000fd5b91905290565b6000602082840312156124a057600080fd5b5051919050565b634e487b7160e01b600052601160045260246000fd5b808202811582820484141761059c5761059c6124a7565b634e487b7160e01b600052601260045260246000fd5b60008261250757634e487b7160e01b600052601260045260246000fd5b500490565b8082018082111561059c5761059c6124a7565b6001600160a01b0397881681529590961660208601526040850193909352606084019190915260ff16608083015260a082015260c081019190915260e00190565b60008251612572818460208701611f54565b9190910192915050565b6020808252602b908201527f496e697469616c697a61626c653a20636f6e7472616374206973206e6f74206960408201526a6e697469616c697a696e6760a81b606082015260800190565b601f821115610bb357600081815260208120601f850160051c810160208610156125ee5750805b601f850160051c820191505b8181101561260d578281556001016125fa565b505050505050565b815167ffffffffffffffff81111561262f5761262f61200a565b6126438161263d845461241c565b846125c7565b602080601f83116001811461267857600084156126605750858301515b600019600386901b1c1916600185901b17855561260d565b600085815260208120601f198616915b828110156126a757888601518255948401946001909101908401612688565b50858210156126c55787850151600019600388901b60f8161c191681555b5050505050600190811b01905550565b6000602082840312156126e757600080fd5b815180151581146107fe57600080fdfea2646970667358221220d8ac2ae5fed18dd4e7d7e09a2b8a76b33e182ef4ff81fc816d38e053d1c8e73264736f6c63430008150033",
    "linkReferences": {}
  },
  "methodIdentifiers": {
    "DOMAIN_SEPARATOR()": "3644e515",
    "allowance(address,address)": "dd62ed3e",
    "approve(address,uint256)": "095ea7b3",
    "asset()": "38d52e0f",
    "balanceOf(address)": "70a08231",
    "burn((uint256,uint256,uint256),address)": "94d0459d",
    "burn((uint256,uint256,uint256),address,uint8,bytes32,bytes32)": "4b4e8b26",
    "burn2(uint256,address)": "99273133",
    "convertToAssets(uint256)": "07a2d13a",
    "convertToShares(uint256)": "c6e6f592",
    "convertToUnderlying(uint256)": "1dc7f521",
    "decimals()": "313ce567",
    "decreaseAllowance(address,uint256)": "a457c2d7",
    "deposit(uint256,address)": "6e553f65",
    "increaseAllowance(address,uint256)": "39509351",
    "initialize(address,address,string,string)": "2016a0d2",
    "maxDeposit(address)": "402d267d",
    "maxMint(address)": "c63d75b6",
    "maxRedeem(address)": "d905777e",
    "maxWithdraw(address)": "ce96cb77",
    "mint((uint256,uint256,uint256,uint256),address,uint8,bytes32,bytes32)": "d9373612",
    "mint(uint256,address)": "94bf804d",
    "name()": "06fdde03",
    "nonces(address)": "7ecebe00",
    "permit(address,address,uint256,uint256,uint8,bytes32,bytes32)": "d505accf",
    "previewDeposit(uint256)": "ef8b30f7",
    "previewMint(uint256)": "b3d7f6b9",
    "previewRedeem(uint256)": "4cdad506",
    "previewWithdraw(uint256)": "0a28a477",
    "redeem(uint256,address,address)": "ba087652",
    "sharesOf(address)": "f5eb42dc",
    "symbol()": "95d89b41",
    "totalAssets()": "01e1d114",
    "totalShares()": "3a98ef39",
    "totalSupply()": "18160ddd",
    "transfer(address,uint256)": "a9059cbb",
    "transferFrom(address,address,uint256)": "23b872dd",
    "withdraw(uint256,address,address)": "b460af94"
  },
  "id": 23
}