{
  "abi": [
    {
      "inputs": [],
      "stateMutability": "nonpayable",
      "type": "constructor"
    },
    {
      "inputs": [
        {
          "internalType": "address",
          "name": "sender",
          "type": "address"
        },
        {
          "internalType": "uint256",
          "name": "shares",
          "type": "uint256"
        },
        {
          "internalType": "uint256",
          "name": "sharesNeeded",
          "type": "uint256"
        }
      ],
      "name": "ERC20InsufficientBalance",
      "type": "error"
    },
    {
      "inputs": [
        {
          "internalType": "address",
          "name": "receiver",
          "type": "address"
        }
      ],
      "name": "ERC20InvalidReceiver",
      "type": "error"
    },
    {
      "inputs": [
        {
          "internalType": "address",
          "name": "sender",
          "type": "address"
        }
      ],
      "name": "ERC20InvalidSender",
      "type": "error"
    },
    {
      "inputs": [
        {
          "internalType": "address",
          "name": "sender",
          "type": "address"
        },
        {
          "internalType": "uint256",
          "name": "shares",
          "type": "uint256"
        },
        {
          "internalType": "uint256",
          "name": "sharesNeeded",
          "type": "uint256"
        }
      ],
      "name": "USDMInsufficientBurnBalance",
      "type": "error"
    },
    {
      "inputs": [
        {
          "internalType": "address",
          "name": "account",
          "type": "address"
        }
      ],
      "name": "ozTokenInvalidMintReceiver",
      "type": "error"
    },
    {
      "anonymous": false,
      "inputs": [
        {
          "indexed": true,
          "internalType": "address",
          "name": "owner",
          "type": "address"
        },
        {
          "indexed": true,
          "internalType": "address",
          "name": "spender",
          "type": "address"
        },
        {
          "indexed": false,
          "internalType": "uint256",
          "name": "value",
          "type": "uint256"
        }
      ],
      "name": "Approval",
      "type": "event"
    },
    {
      "anonymous": false,
      "inputs": [
        {
          "indexed": true,
          "internalType": "address",
          "name": "caller",
          "type": "address"
        },
        {
          "indexed": true,
          "internalType": "address",
          "name": "owner",
          "type": "address"
        },
        {
          "indexed": false,
          "internalType": "uint256",
          "name": "assets",
          "type": "uint256"
        },
        {
          "indexed": false,
          "internalType": "uint256",
          "name": "shares",
          "type": "uint256"
        }
      ],
      "name": "Deposit",
      "type": "event"
    },
    {
      "anonymous": false,
      "inputs": [
        {
          "indexed": false,
          "internalType": "uint8",
          "name": "version",
          "type": "uint8"
        }
      ],
      "name": "Initialized",
      "type": "event"
    },
    {
      "anonymous": false,
      "inputs": [
        {
          "indexed": true,
          "internalType": "uint256",
          "name": "value",
          "type": "uint256"
        }
      ],
      "name": "RewardMultiplier",
      "type": "event"
    },
    {
      "anonymous": false,
      "inputs": [
        {
          "indexed": true,
          "internalType": "address",
          "name": "from",
          "type": "address"
        },
        {
          "indexed": true,
          "internalType": "address",
          "name": "to",
          "type": "address"
        },
        {
          "indexed": false,
          "internalType": "uint256",
          "name": "value",
          "type": "uint256"
        }
      ],
      "name": "Transfer",
      "type": "event"
    },
    {
      "anonymous": false,
      "inputs": [
        {
          "indexed": true,
          "internalType": "address",
          "name": "caller",
          "type": "address"
        },
        {
          "indexed": true,
          "internalType": "address",
          "name": "receiver",
          "type": "address"
        },
        {
          "indexed": true,
          "internalType": "address",
          "name": "owner",
          "type": "address"
        },
        {
          "indexed": false,
          "internalType": "uint256",
          "name": "assets",
          "type": "uint256"
        },
        {
          "indexed": false,
          "internalType": "uint256",
          "name": "shares",
          "type": "uint256"
        }
      ],
      "name": "Withdraw",
      "type": "event"
    },
    {
      "inputs": [
        {
          "internalType": "address",
          "name": "owner",
          "type": "address"
        },
        {
          "internalType": "address",
          "name": "spender",
          "type": "address"
        }
      ],
      "name": "allowance",
      "outputs": [
        {
          "internalType": "uint256",
          "name": "",
          "type": "uint256"
        }
      ],
      "stateMutability": "view",
      "type": "function"
    },
    {
      "inputs": [
        {
          "internalType": "address",
          "name": "spender",
          "type": "address"
        },
        {
          "internalType": "uint256",
          "name": "amount",
          "type": "uint256"
        }
      ],
      "name": "approve",
      "outputs": [
        {
          "internalType": "bool",
          "name": "",
          "type": "bool"
        }
      ],
      "stateMutability": "nonpayable",
      "type": "function"
    },
    {
      "inputs": [],
      "name": "asset",
      "outputs": [
        {
          "internalType": "address",
          "name": "",
          "type": "address"
        }
      ],
      "stateMutability": "view",
      "type": "function"
    },
    {
      "inputs": [
        {
          "internalType": "address",
          "name": "account_",
          "type": "address"
        }
      ],
      "name": "balanceOf",
      "outputs": [
        {
          "internalType": "uint256",
          "name": "",
          "type": "uint256"
        }
      ],
      "stateMutability": "view",
      "type": "function"
    },
    {
      "inputs": [
        {
          "components": [
            {
              "internalType": "uint256",
              "name": "ozAmountIn",
              "type": "uint256"
            },
            {
              "internalType": "uint256",
              "name": "minWethOut",
              "type": "uint256"
            },
            {
              "internalType": "uint256",
              "name": "bptAmountIn",
              "type": "uint256"
            }
          ],
          "internalType": "struct TradeAmountsOut",
          "name": "amts_",
          "type": "tuple"
        },
        {
          "internalType": "address",
          "name": "receiver_",
          "type": "address"
        },
        {
          "internalType": "uint8",
          "name": "v_",
          "type": "uint8"
        },
        {
          "internalType": "bytes32",
          "name": "r_",
          "type": "bytes32"
        },
        {
          "internalType": "bytes32",
          "name": "s_",
          "type": "bytes32"
        }
      ],
      "name": "burn",
      "outputs": [
        {
          "internalType": "uint256",
          "name": "",
          "type": "uint256"
        }
      ],
      "stateMutability": "nonpayable",
      "type": "function"
    },
    {
      "inputs": [
        {
          "internalType": "uint256",
          "name": "shares",
          "type": "uint256"
        }
      ],
      "name": "convertToAssets",
      "outputs": [
        {
          "internalType": "uint256",
          "name": "assets",
          "type": "uint256"
        }
      ],
      "stateMutability": "view",
      "type": "function"
    },
    {
      "inputs": [
        {
          "internalType": "uint256",
          "name": "assets",
          "type": "uint256"
        }
      ],
      "name": "convertToShares",
      "outputs": [
        {
          "internalType": "uint256",
          "name": "shares",
          "type": "uint256"
        }
      ],
      "stateMutability": "view",
      "type": "function"
    },
    {
      "inputs": [],
      "name": "decimals",
      "outputs": [
        {
          "internalType": "uint8",
          "name": "",
          "type": "uint8"
        }
      ],
      "stateMutability": "view",
      "type": "function"
    },
    {
      "inputs": [
        {
          "internalType": "address",
          "name": "spender",
          "type": "address"
        },
        {
          "internalType": "uint256",
          "name": "subtractedValue",
          "type": "uint256"
        }
      ],
      "name": "decreaseAllowance",
      "outputs": [
        {
          "internalType": "bool",
          "name": "",
          "type": "bool"
        }
      ],
      "stateMutability": "nonpayable",
      "type": "function"
    },
    {
      "inputs": [
        {
          "internalType": "uint256",
          "name": "assets_",
          "type": "uint256"
        },
        {
          "internalType": "address",
          "name": "receiver_",
          "type": "address"
        }
      ],
      "name": "deposit",
      "outputs": [
        {
          "internalType": "uint256",
          "name": "",
          "type": "uint256"
        }
      ],
      "stateMutability": "nonpayable",
      "type": "function"
    },
    {
      "inputs": [
        {
          "internalType": "address",
          "name": "spender",
          "type": "address"
        },
        {
          "internalType": "uint256",
          "name": "addedValue",
          "type": "uint256"
        }
      ],
      "name": "increaseAllowance",
      "outputs": [
        {
          "internalType": "bool",
          "name": "",
          "type": "bool"
        }
      ],
      "stateMutability": "nonpayable",
      "type": "function"
    },
    {
      "inputs": [
        {
          "internalType": "address",
          "name": "underlying_",
          "type": "address"
        },
        {
          "internalType": "address",
          "name": "diamond_",
          "type": "address"
        },
        {
          "internalType": "string",
          "name": "name_",
          "type": "string"
        },
        {
          "internalType": "string",
          "name": "symbol_",
          "type": "string"
        }
      ],
      "name": "initialize",
      "outputs": [],
      "stateMutability": "nonpayable",
      "type": "function"
    },
    {
      "inputs": [
        {
          "internalType": "address",
          "name": "",
          "type": "address"
        }
      ],
      "name": "maxDeposit",
      "outputs": [
        {
          "internalType": "uint256",
          "name": "",
          "type": "uint256"
        }
      ],
      "stateMutability": "view",
      "type": "function"
    },
    {
      "inputs": [
        {
          "internalType": "address",
          "name": "",
          "type": "address"
        }
      ],
      "name": "maxMint",
      "outputs": [
        {
          "internalType": "uint256",
          "name": "",
          "type": "uint256"
        }
      ],
      "stateMutability": "view",
      "type": "function"
    },
    {
      "inputs": [
        {
          "internalType": "address",
          "name": "owner",
          "type": "address"
        }
      ],
      "name": "maxRedeem",
      "outputs": [
        {
          "internalType": "uint256",
          "name": "",
          "type": "uint256"
        }
      ],
      "stateMutability": "view",
      "type": "function"
    },
    {
      "inputs": [
        {
          "internalType": "address",
          "name": "owner",
          "type": "address"
        }
      ],
      "name": "maxWithdraw",
      "outputs": [
        {
          "internalType": "uint256",
          "name": "",
          "type": "uint256"
        }
      ],
      "stateMutability": "view",
      "type": "function"
    },
    {
      "inputs": [
        {
          "internalType": "uint256",
          "name": "shares",
          "type": "uint256"
        },
        {
          "internalType": "address",
          "name": "receiver",
          "type": "address"
        }
      ],
      "name": "mint",
      "outputs": [
        {
          "internalType": "uint256",
          "name": "",
          "type": "uint256"
        }
      ],
      "stateMutability": "nonpayable",
      "type": "function"
    },
    {
      "inputs": [
        {
          "components": [
            {
              "internalType": "uint256",
              "name": "amountIn",
              "type": "uint256"
            },
            {
              "internalType": "uint256",
              "name": "minWethOut",
              "type": "uint256"
            },
            {
              "internalType": "uint256",
              "name": "minRethOut",
              "type": "uint256"
            },
            {
              "internalType": "uint256",
              "name": "minBptOut",
              "type": "uint256"
            }
          ],
          "internalType": "struct TradeAmounts",
          "name": "amounts_",
          "type": "tuple"
        },
        {
          "internalType": "address",
          "name": "receiver_",
          "type": "address"
        },
        {
          "internalType": "uint8",
          "name": "v_",
          "type": "uint8"
        },
        {
          "internalType": "bytes32",
          "name": "r_",
          "type": "bytes32"
        },
        {
          "internalType": "bytes32",
          "name": "s_",
          "type": "bytes32"
        }
      ],
      "name": "mint",
      "outputs": [
        {
          "internalType": "uint256",
          "name": "",
          "type": "uint256"
        }
      ],
      "stateMutability": "nonpayable",
      "type": "function"
    },
    {
      "inputs": [],
      "name": "name",
      "outputs": [
        {
          "internalType": "string",
          "name": "",
          "type": "string"
        }
      ],
      "stateMutability": "view",
      "type": "function"
    },
    {
      "inputs": [
        {
          "internalType": "uint256",
          "name": "assets",
          "type": "uint256"
        }
      ],
      "name": "previewDeposit",
      "outputs": [
        {
          "internalType": "uint256",
          "name": "",
          "type": "uint256"
        }
      ],
      "stateMutability": "view",
      "type": "function"
    },
    {
      "inputs": [
        {
          "internalType": "uint256",
          "name": "shares",
          "type": "uint256"
        }
      ],
      "name": "previewMint",
      "outputs": [
        {
          "internalType": "uint256",
          "name": "",
          "type": "uint256"
        }
      ],
      "stateMutability": "view",
      "type": "function"
    },
    {
      "inputs": [
        {
          "internalType": "uint256",
          "name": "shares",
          "type": "uint256"
        }
      ],
      "name": "previewRedeem",
      "outputs": [
        {
          "internalType": "uint256",
          "name": "",
          "type": "uint256"
        }
      ],
      "stateMutability": "view",
      "type": "function"
    },
    {
      "inputs": [
        {
          "internalType": "uint256",
          "name": "assets",
          "type": "uint256"
        }
      ],
      "name": "previewWithdraw",
      "outputs": [
        {
          "internalType": "uint256",
          "name": "",
          "type": "uint256"
        }
      ],
      "stateMutability": "view",
      "type": "function"
    },
    {
      "inputs": [
        {
          "internalType": "uint256",
          "name": "shares",
          "type": "uint256"
        },
        {
          "internalType": "address",
          "name": "receiver",
          "type": "address"
        },
        {
          "internalType": "address",
          "name": "owner",
          "type": "address"
        }
      ],
      "name": "redeem",
      "outputs": [
        {
          "internalType": "uint256",
          "name": "",
          "type": "uint256"
        }
      ],
      "stateMutability": "nonpayable",
      "type": "function"
    },
    {
      "inputs": [
        {
          "internalType": "address",
          "name": "account_",
          "type": "address"
        }
      ],
      "name": "sharesOf",
      "outputs": [
        {
          "internalType": "uint256",
          "name": "",
          "type": "uint256"
        }
      ],
      "stateMutability": "view",
      "type": "function"
    },
    {
      "inputs": [],
      "name": "symbol",
      "outputs": [
        {
          "internalType": "string",
          "name": "",
          "type": "string"
        }
      ],
      "stateMutability": "view",
      "type": "function"
    },
    {
      "inputs": [],
      "name": "totalAssets",
      "outputs": [
        {
          "internalType": "uint256",
          "name": "",
          "type": "uint256"
        }
      ],
      "stateMutability": "view",
      "type": "function"
    },
    {
      "inputs": [],
      "name": "totalShares",
      "outputs": [
        {
          "internalType": "uint256",
          "name": "",
          "type": "uint256"
        }
      ],
      "stateMutability": "view",
      "type": "function"
    },
    {
      "inputs": [],
      "name": "totalSupply",
      "outputs": [
        {
          "internalType": "uint256",
          "name": "",
          "type": "uint256"
        }
      ],
      "stateMutability": "view",
      "type": "function"
    },
    {
      "inputs": [
        {
          "internalType": "address",
          "name": "to",
          "type": "address"
        },
        {
          "internalType": "uint256",
          "name": "amount",
          "type": "uint256"
        }
      ],
      "name": "transfer",
      "outputs": [
        {
          "internalType": "bool",
          "name": "",
          "type": "bool"
        }
      ],
      "stateMutability": "nonpayable",
      "type": "function"
    },
    {
      "inputs": [
        {
          "internalType": "address",
          "name": "from",
          "type": "address"
        },
        {
          "internalType": "address",
          "name": "to",
          "type": "address"
        },
        {
          "internalType": "uint256",
          "name": "amount",
          "type": "uint256"
        }
      ],
      "name": "transferFrom",
      "outputs": [
        {
          "internalType": "bool",
          "name": "",
          "type": "bool"
        }
      ],
      "stateMutability": "nonpayable",
      "type": "function"
    },
    {
      "inputs": [
        {
          "internalType": "uint256",
          "name": "assets",
          "type": "uint256"
        },
        {
          "internalType": "address",
          "name": "receiver",
          "type": "address"
        },
        {
          "internalType": "address",
          "name": "owner",
          "type": "address"
        }
      ],
      "name": "withdraw",
      "outputs": [
        {
          "internalType": "uint256",
          "name": "",
          "type": "uint256"
        }
      ],
      "stateMutability": "view",
      "type": "function"
    }
  ],
  "bytecode": {
    "object": "0x608060405234801561001057600080fd5b5061001961001e565b6100de565b600054610100900460ff161561008a5760405162461bcd60e51b815260206004820152602760248201527f496e697469616c697a61626c653a20636f6e747261637420697320696e697469604482015266616c697a696e6760c81b606482015260840160405180910390fd5b60005460ff90811610156100dc576000805460ff191660ff9081179091556040519081527f7f26b83ff96e1f2b6a682f133852f6798a09c465da95921460cefb38474024989060200160405180910390a15b565b611f79806100ed6000396000f3fe608060405234801561001057600080fd5b50600436106101f05760003560e01c806370a082311161010f578063c63d75b6116100a2578063d937361211610071578063d9373612146103f3578063dd62ed3e14610406578063ef8b30f7146103ba578063f5eb42dc1461041957600080fd5b8063c63d75b6146103a5578063c6e6f592146103ba578063ce96cb77146103cd578063d905777e146103e057600080fd5b8063a9059cbb116100de578063a9059cbb14610359578063b3d7f6b91461036c578063b460af941461037f578063ba0876521461039257600080fd5b806370a082311461031857806394bf804d1461032b57806395d89b411461033e578063a457c2d71461034657600080fd5b8063313ce56711610187578063402d267d11610156578063402d267d146102df5780634b4e8b26146102f25780634cdad506146102215780636e553f651461030557600080fd5b8063313ce5671461029a57806338d52e0f146102a957806339509351146102c45780633a98ef39146102d757600080fd5b80630a28a477116101c35780630a28a4771461025757806318160ddd1461026a5780632016a0d21461027257806323b872dd1461028757600080fd5b806301e1d114146101f557806306fdde031461020c57806307a2d13a14610221578063095ea7b314610234575b600080fd5b60a8545b6040519081526020015b60405180910390f35b610214610442565b60405161020391906118b0565b6101f961022f3660046118c3565b6104d4565b6102476102423660046118f8565b6104e7565b6040519015158152602001610203565b6101f96102653660046118c3565b6104ff565b6101f961050c565b6102856102803660046119c5565b610530565b005b610247610295366004611a4a565b610670565b60405160128152602001610203565b6065546040516001600160a01b039091168152602001610203565b6102476102d23660046118f8565b610696565b60a7546101f9565b6101f96102ed366004611a86565b6106b8565b6101f9610300366004611ab2565b6106d6565b6101f9610313366004611b4c565b61087b565b6101f9610326366004611a86565b610903565b6101f9610339366004611b4c565b610925565b61021461093f565b6102476103543660046118f8565b61094e565b6102476103673660046118f8565b6109d4565b6101f961037a3660046118c3565b6109e2565b6101f961038d366004611b78565b6109ef565b6101f96103a0366004611b78565b610a5d565b6101f96103b3366004611a86565b5060001990565b6101f96103c83660046118c3565b610ad9565b6101f96103db366004611a86565b610ae6565b6101f96103ee366004611a86565b610afb565b6101f9610401366004611bb4565b610b06565b6101f9610414366004611c5d565b610c50565b6101f9610427366004611a86565b6001600160a01b0316600090815260a9602052604090205490565b60606036805461045190611c87565b80601f016020809104026020016040519081016040528092919081815260200182805461047d90611c87565b80156104ca5780601f1061049f576101008083540402835291602001916104ca565b820191906000526020600020905b8154815290600101906020018083116104ad57829003601f168201915b5050505050905090565b60006104e1826000610c7b565b92915050565b6000336104f5818585610d14565b5060019392505050565b60006104e1826001610e38565b600060a75460001461052a5761052560a7546000610c7b565b905090565b50600090565b600054610100900460ff16158080156105505750600054600160ff909116105b8061056a5750303b15801561056a575060005460ff166001145b6105d25760405162461bcd60e51b815260206004820152602e60248201527f496e697469616c697a61626c653a20636f6e747261637420697320616c72656160448201526d191e481a5b9a5d1a585b1a5e995960921b60648201526084015b60405180910390fd5b6000805460ff1916600117905580156105f5576000805461ff0019166101001790555b6105ff8383610ec6565b61060885610efb565b60a680546001600160a01b0319166001600160a01b0386161790558015610669576000805461ff0019169055604051600181527f7f26b83ff96e1f2b6a682f133852f6798a09c465da95921460cefb38474024989060200160405180910390a15b5050505050565b60003361067e858285610f2e565b610689858585610fa8565b60019150505b9392505050565b6000336104f58185856106a98383610c50565b6106b39190611cc1565b610d14565b60006106c261111d565b6106cd5760006104e1565b60001992915050565b60a654855160405163d505accf60e01b8152600092309263d505accf926107159233926001600160a01b039091169142908b908b908b90600401611ce2565b600060405180830381600087803b15801561072f57600080fd5b505af1158015610743573d6000803e3d6000fd5b505050506000610758876000015187336109ef565b60a65460408051633ccf7dc360e11b81528a51600482015260208b01516024820152908a015160448201523060648201523360848201526001600160a01b0389811660a483015292935091169063799efb869060c401600060405180830381600087803b1580156107c857600080fd5b505af11580156107dc573d6000803e3d6000fd5b5050505060006107f46065546001600160a01b031690565b6040516370a0823160e01b81523060048201526001600160a01b0391909116906370a0823190602401602060405180830381865afa15801561083a573d6000803e3d6000fd5b505050506040513d601f19601f8201168201806040525081019061085e9190611d23565b905061086d338833848661113e565b506001979650505050505050565b6000610886826106b8565b8311156108d55760405162461bcd60e51b815260206004820152601e60248201527f455243343632363a206465706f736974206d6f7265207468616e206d6178000060448201526064016105c9565b60006108e060a75490565b156108f3576108ee84610ad9565b6108f5565b835b905061068f338486846111ea565b6001600160a01b038116600090815260a960205260408120546104e1906104d4565b600080610931846109e2565b905061068f338483876111ea565b60606037805461045190611c87565b6000338161095c8286610c50565b9050838110156109bc5760405162461bcd60e51b815260206004820152602560248201527f45524332303a2064656372656173656420616c6c6f77616e63652062656c6f77604482015264207a65726f60d81b60648201526084016105c9565b6109c98286868403610d14565b506001949350505050565b6000336104f5818585610fa8565b60006104e1826001610c7b565b60006109fa82610ae6565b841115610a495760405162461bcd60e51b815260206004820152601f60248201527f455243343632363a207769746864726177206d6f7265207468616e206d61780060448201526064016105c9565b6000610a54856104ff565b95945050505050565b6000610a6882610afb565b841115610ab75760405162461bcd60e51b815260206004820152601d60248201527f455243343632363a2072656465656d206d6f7265207468616e206d617800000060448201526064016105c9565b6000610ac2856104d4565b9050610ad1338585848961113e565b949350505050565b60006104e1826000610e38565b60006104e1610af483610903565b6000610c7b565b60006104e182610903565b600080610b1b6065546001600160a01b031690565b60a654885160405163d505accf60e01b81529293506001600160a01b038085169363d505accf93610b5c9333939091169142908c908c908c90600401611ce2565b600060405180830381600087803b158015610b7657600080fd5b505af1158015610b8a573d6000803e3d6000fd5b505060a65460408051635879601960e01b81526001600160a01b0386811660048301523360248301528c51604483015260208d01516064830152918c0151608482015260608c015160a4820152911692506358796019915060c401600060405180830381600087803b158015610bff57600080fd5b505af1158015610c13573d6000803e3d6000fd5b505050506000610c2788600001518861087b565b9050876000015160a86000828254610c3f9190611cc1565b909155509098975050505050505050565b6001600160a01b03918216600090815260346020908152604080832093909416825291909152205490565b600061068f610c8960a75490565b60a660009054906101000a90046001600160a01b03166001600160a01b03166345089e296040518163ffffffff1660e01b8152600401602060405180830381865afa158015610cdc573d6000803e3d6000fd5b505050506040513d601f19601f82011682018060405250810190610d009190611d23565b610d0a9190611d52565b8490600185611285565b6001600160a01b038316610d765760405162461bcd60e51b8152602060048201526024808201527f45524332303a20617070726f76652066726f6d20746865207a65726f206164646044820152637265737360e01b60648201526084016105c9565b6001600160a01b038216610dd75760405162461bcd60e51b815260206004820152602260248201527f45524332303a20617070726f766520746f20746865207a65726f206164647265604482015261737360f01b60648201526084016105c9565b6001600160a01b0383811660008181526034602090815260408083209487168084529482529182902085905590518481527f8c5be1e5ebec7d5bd14f71427d1e84f3dd0314c0f7b2291e5b200ac8c7c3b925910160405180910390a3505050565b600061068f610e4660a75490565b60a660009054906101000a90046001600160a01b03166001600160a01b03166345089e296040518163ffffffff1660e01b8152600401602060405180830381865afa158015610e99573d6000803e3d6000fd5b505050506040513d601f19601f82011682018060405250810190610ebd9190611d23565b85919085611285565b600054610100900460ff16610eed5760405162461bcd60e51b81526004016105c990611d74565b610ef782826112e0565b5050565b600054610100900460ff16610f225760405162461bcd60e51b81526004016105c990611d74565b610f2b81611325565b50565b6000610f3a8484610c50565b90506000198114610fa25781811015610f955760405162461bcd60e51b815260206004820152601d60248201527f45524332303a20696e73756666696369656e7420616c6c6f77616e636500000060448201526064016105c9565b610fa28484848403610d14565b50505050565b6001600160a01b038316610fda57604051634b637e8f60e11b81526001600160a01b03841660048201526024016105c9565b6001600160a01b03821661100c5760405163ec442f0560e01b81526001600160a01b03831660048201526024016105c9565b600061101782610ad9565b905061104f60405180604001604052806014815260200173039b430b932b9903a37903a3930b739b332b91d160651b8152508261136e565b600060a96000866001600160a01b03166001600160a01b031681526020019081526020016000205490506110ad60405180604001604052806012815260200171039b430b932b99030b634b1b2903430b99d160751b8152508261136e565b818110156110e75760405163391434e360e21b81526001600160a01b038616600482015260248101829052604481018390526064016105c9565b6001600160a01b03948516600090815260a960205260408082209284900390925593909416835292909120805490920190915550565b60008061112960a85490565b1180610525575061113861050c565b15905090565b826001600160a01b0316856001600160a01b03161461116257611162838683610f2e565b61116c83826113b3565b606554611183906001600160a01b03168584611479565b826001600160a01b0316846001600160a01b0316866001600160a01b03167ffbde797d201c681b91056529119e0b02407c7bb96a4a2c75c01fc9667232c8db85856040516111db929190918252602082015260400190565b60405180910390a45050505050565b8060a760008282546111fc9190611cc1565b90915550506001600160a01b038316600090815260a96020526040902080548201905561122983836114cb565b826001600160a01b0316846001600160a01b03167fdcbc1c05240f31ff3ad067ef1ee35ce4997762752e3a095284754544f4c709d78484604051611277929190918252602082015260400190565b60405180910390a350505050565b6000806112938686866115aa565b905060018360028111156112a9576112a9611dbf565b1480156112c65750600084806112c1576112c1611d3c565b868809115b15610a54576112d6600182611cc1565b9695505050505050565b600054610100900460ff166113075760405162461bcd60e51b81526004016105c990611d74565b60366113138382611e23565b5060376113208282611e23565b505050565b600054610100900460ff1661134c5760405162461bcd60e51b81526004016105c990611d74565b606580546001600160a01b0319166001600160a01b0392909216919091179055565b610ef78282604051602401611384929190611ee3565b60408051601f198184030181529190526020810180516001600160e01b03166309710a9d60e41b179052611659565b6001600160a01b0382166113e557604051637c896cfb60e01b81526001600160a01b03831660048201526024016105c9565b6001600160a01b038216600090815260a9602052604081205490611408836104d4565b90508282101561144457604051633803cef960e11b81526001600160a01b038516600482015260248101839052604481018490526064016105c9565b6001600160a01b03909316600090815260a96020526040902090829003905560a7805491909103905560a88054919091039055565b604080516001600160a01b038416602482015260448082018490528251808303909101815260649091019091526020810180516001600160e01b031663a9059cbb60e01b17905261132090849061167a565b6001600160a01b0382166115215760405162461bcd60e51b815260206004820152601f60248201527f45524332303a206d696e7420746f20746865207a65726f20616464726573730060448201526064016105c9565b80603560008282546115339190611cc1565b90915550506001600160a01b03821660009081526033602052604081208054839290611560908490611cc1565b90915550506040518181526001600160a01b038316906000907fddf252ad1be2c89b69c2b068fc378daa952ba7f163c4a11628f55a4df523b3ef9060200160405180910390a35050565b60008080600019858709858702925082811083820303915050806000036115e4578382816115da576115da611d3c565b049250505061068f565b8084116115f057600080fd5b60008486880960026001871981018816978890046003810283188082028403028082028403028082028403028082028403028082028403029081029092039091026000889003889004909101858311909403939093029303949094049190911702949350505050565b80516a636f6e736f6c652e6c6f67602083016000808483855afa5050505050565b60006116cf826040518060400160405280602081526020017f5361666545524332303a206c6f772d6c6576656c2063616c6c206661696c6564815250856001600160a01b031661174c9092919063ffffffff16565b80519091501561132057808060200190518101906116ed9190611f05565b6113205760405162461bcd60e51b815260206004820152602a60248201527f5361666545524332303a204552433230206f7065726174696f6e20646964206e6044820152691bdd081cdd58d8d9595960b21b60648201526084016105c9565b6060610ad18484600085856001600160a01b0385163b6117ae5760405162461bcd60e51b815260206004820152601d60248201527f416464726573733a2063616c6c20746f206e6f6e2d636f6e747261637400000060448201526064016105c9565b600080866001600160a01b031685876040516117ca9190611f27565b60006040518083038185875af1925050503d8060008114611807576040519150601f19603f3d011682016040523d82523d6000602084013e61180c565b606091505b509150915061181c828286611827565b979650505050505050565b6060831561183657508161068f565b8251156118465782518084602001fd5b8160405162461bcd60e51b81526004016105c991906118b0565b60005b8381101561187b578181015183820152602001611863565b50506000910152565b6000815180845261189c816020860160208601611860565b601f01601f19169290920160200192915050565b60208152600061068f6020830184611884565b6000602082840312156118d557600080fd5b5035919050565b80356001600160a01b03811681146118f357600080fd5b919050565b6000806040838503121561190b57600080fd5b611914836118dc565b946020939093013593505050565b634e487b7160e01b600052604160045260246000fd5b600082601f83011261194957600080fd5b813567ffffffffffffffff8082111561196457611964611922565b604051601f8301601f19908116603f0116810190828211818310171561198c5761198c611922565b816040528381528660208588010111156119a557600080fd5b836020870160208301376000602085830101528094505050505092915050565b600080600080608085870312156119db57600080fd5b6119e4856118dc565b93506119f2602086016118dc565b9250604085013567ffffffffffffffff80821115611a0f57600080fd5b611a1b88838901611938565b93506060870135915080821115611a3157600080fd5b50611a3e87828801611938565b91505092959194509250565b600080600060608486031215611a5f57600080fd5b611a68846118dc565b9250611a76602085016118dc565b9150604084013590509250925092565b600060208284031215611a9857600080fd5b61068f826118dc565b803560ff811681146118f357600080fd5b600080600080600085870360e0811215611acb57600080fd5b6060811215611ad957600080fd5b506040516060810181811067ffffffffffffffff82111715611afd57611afd611922565b6040908152873582526020808901359083015287810135908201529450611b26606087016118dc565b9350611b3460808701611aa1565b9497939650939460a0810135945060c0013592915050565b60008060408385031215611b5f57600080fd5b82359150611b6f602084016118dc565b90509250929050565b600080600060608486031215611b8d57600080fd5b83359250611b9d602085016118dc565b9150611bab604085016118dc565b90509250925092565b6000806000806000858703610100811215611bce57600080fd5b6080811215611bdc57600080fd5b506040516080810181811067ffffffffffffffff82111715611c0057611c00611922565b80604052508635815260208701356020820152604087013560408201526060870135606082015280955050611c37608087016118dc565b9350611c4560a08701611aa1565b9497939650939460c0810135945060e0013592915050565b60008060408385031215611c7057600080fd5b611c79836118dc565b9150611b6f602084016118dc565b600181811c90821680611c9b57607f821691505b602082108103611cbb57634e487b7160e01b600052602260045260246000fd5b50919050565b808201808211156104e157634e487b7160e01b600052601160045260246000fd5b6001600160a01b0397881681529590961660208601526040850193909352606084019190915260ff16608083015260a082015260c081019190915260e00190565b600060208284031215611d3557600080fd5b5051919050565b634e487b7160e01b600052601260045260246000fd5b600082611d6f57634e487b7160e01b600052601260045260246000fd5b500490565b6020808252602b908201527f496e697469616c697a61626c653a20636f6e7472616374206973206e6f74206960408201526a6e697469616c697a696e6760a81b606082015260800190565b634e487b7160e01b600052602160045260246000fd5b601f82111561132057600081815260208120601f850160051c81016020861015611dfc5750805b601f850160051c820191505b81811015611e1b57828155600101611e08565b505050505050565b815167ffffffffffffffff811115611e3d57611e3d611922565b611e5181611e4b8454611c87565b84611dd5565b602080601f831160018114611e865760008415611e6e5750858301515b600019600386901b1c1916600185901b178555611e1b565b600085815260208120601f198616915b82811015611eb557888601518255948401946001909101908401611e96565b5085821015611ed35787850151600019600388901b60f8161c191681555b5050505050600190811b01905550565b604081526000611ef66040830185611884565b90508260208301529392505050565b600060208284031215611f1757600080fd5b8151801515811461068f57600080fd5b60008251611f39818460208701611860565b919091019291505056fea264697066735822122010a44e27eb2a3dfa0f6badcf29d409fe5056b5dc99682f2a63d34d9cbae1e3cc64736f6c63430008150033",
    "linkReferences": {}
  },
  "methodIdentifiers": {
    "allowance(address,address)": "dd62ed3e",
    "approve(address,uint256)": "095ea7b3",
    "asset()": "38d52e0f",
    "balanceOf(address)": "70a08231",
    "burn((uint256,uint256,uint256),address,uint8,bytes32,bytes32)": "4b4e8b26",
    "convertToAssets(uint256)": "07a2d13a",
    "convertToShares(uint256)": "c6e6f592",
    "decimals()": "313ce567",
    "decreaseAllowance(address,uint256)": "a457c2d7",
    "deposit(uint256,address)": "6e553f65",
    "increaseAllowance(address,uint256)": "39509351",
    "initialize(address,address,string,string)": "2016a0d2",
    "maxDeposit(address)": "402d267d",
    "maxMint(address)": "c63d75b6",
    "maxRedeem(address)": "d905777e",
    "maxWithdraw(address)": "ce96cb77",
    "mint((uint256,uint256,uint256,uint256),address,uint8,bytes32,bytes32)": "d9373612",
    "mint(uint256,address)": "94bf804d",
    "name()": "06fdde03",
    "previewDeposit(uint256)": "ef8b30f7",
    "previewMint(uint256)": "b3d7f6b9",
    "previewRedeem(uint256)": "4cdad506",
    "previewWithdraw(uint256)": "0a28a477",
    "redeem(uint256,address,address)": "ba087652",
    "sharesOf(address)": "f5eb42dc",
    "symbol()": "95d89b41",
    "totalAssets()": "01e1d114",
    "totalShares()": "3a98ef39",
    "totalSupply()": "18160ddd",
    "transfer(address,uint256)": "a9059cbb",
    "transferFrom(address,address,uint256)": "23b872dd",
    "withdraw(uint256,address,address)": "b460af94"
  },
  "id": 23
}