{
  "abi": [
    {
      "inputs": [],
      "stateMutability": "nonpayable",
      "type": "constructor"
    },
    {
      "inputs": [
        {
          "internalType": "address",
          "name": "sender",
          "type": "address"
        },
        {
          "internalType": "uint256",
          "name": "shares",
          "type": "uint256"
        },
        {
          "internalType": "uint256",
          "name": "sharesNeeded",
          "type": "uint256"
        }
      ],
      "name": "ERC20InsufficientBalance",
      "type": "error"
    },
    {
      "inputs": [
        {
          "internalType": "address",
          "name": "receiver",
          "type": "address"
        }
      ],
      "name": "ERC20InvalidReceiver",
      "type": "error"
    },
    {
      "inputs": [
        {
          "internalType": "address",
          "name": "sender",
          "type": "address"
        }
      ],
      "name": "ERC20InvalidSender",
      "type": "error"
    },
    {
      "anonymous": false,
      "inputs": [
        {
          "indexed": true,
          "internalType": "address",
          "name": "owner",
          "type": "address"
        },
        {
          "indexed": true,
          "internalType": "address",
          "name": "spender",
          "type": "address"
        },
        {
          "indexed": false,
          "internalType": "uint256",
          "name": "value",
          "type": "uint256"
        }
      ],
      "name": "Approval",
      "type": "event"
    },
    {
      "anonymous": false,
      "inputs": [
        {
          "indexed": true,
          "internalType": "address",
          "name": "caller",
          "type": "address"
        },
        {
          "indexed": true,
          "internalType": "address",
          "name": "owner",
          "type": "address"
        },
        {
          "indexed": false,
          "internalType": "uint256",
          "name": "assets",
          "type": "uint256"
        },
        {
          "indexed": false,
          "internalType": "uint256",
          "name": "shares",
          "type": "uint256"
        }
      ],
      "name": "Deposit",
      "type": "event"
    },
    {
      "anonymous": false,
      "inputs": [
        {
          "indexed": false,
          "internalType": "uint8",
          "name": "version",
          "type": "uint8"
        }
      ],
      "name": "Initialized",
      "type": "event"
    },
    {
      "anonymous": false,
      "inputs": [
        {
          "indexed": true,
          "internalType": "uint256",
          "name": "value",
          "type": "uint256"
        }
      ],
      "name": "RewardMultiplier",
      "type": "event"
    },
    {
      "anonymous": false,
      "inputs": [
        {
          "indexed": true,
          "internalType": "address",
          "name": "from",
          "type": "address"
        },
        {
          "indexed": true,
          "internalType": "address",
          "name": "to",
          "type": "address"
        },
        {
          "indexed": false,
          "internalType": "uint256",
          "name": "value",
          "type": "uint256"
        }
      ],
      "name": "Transfer",
      "type": "event"
    },
    {
      "anonymous": false,
      "inputs": [
        {
          "indexed": true,
          "internalType": "address",
          "name": "caller",
          "type": "address"
        },
        {
          "indexed": true,
          "internalType": "address",
          "name": "receiver",
          "type": "address"
        },
        {
          "indexed": true,
          "internalType": "address",
          "name": "owner",
          "type": "address"
        },
        {
          "indexed": false,
          "internalType": "uint256",
          "name": "assets",
          "type": "uint256"
        },
        {
          "indexed": false,
          "internalType": "uint256",
          "name": "shares",
          "type": "uint256"
        }
      ],
      "name": "Withdraw",
      "type": "event"
    },
    {
      "inputs": [
        {
          "internalType": "address",
          "name": "owner",
          "type": "address"
        },
        {
          "internalType": "address",
          "name": "spender",
          "type": "address"
        }
      ],
      "name": "allowance",
      "outputs": [
        {
          "internalType": "uint256",
          "name": "",
          "type": "uint256"
        }
      ],
      "stateMutability": "view",
      "type": "function"
    },
    {
      "inputs": [
        {
          "internalType": "address",
          "name": "spender",
          "type": "address"
        },
        {
          "internalType": "uint256",
          "name": "amount",
          "type": "uint256"
        }
      ],
      "name": "approve",
      "outputs": [
        {
          "internalType": "bool",
          "name": "",
          "type": "bool"
        }
      ],
      "stateMutability": "nonpayable",
      "type": "function"
    },
    {
      "inputs": [],
      "name": "asset",
      "outputs": [
        {
          "internalType": "address",
          "name": "",
          "type": "address"
        }
      ],
      "stateMutability": "view",
      "type": "function"
    },
    {
      "inputs": [
        {
          "internalType": "address",
          "name": "account_",
          "type": "address"
        }
      ],
      "name": "balanceOf",
      "outputs": [
        {
          "internalType": "uint256",
          "name": "",
          "type": "uint256"
        }
      ],
      "stateMutability": "view",
      "type": "function"
    },
    {
      "inputs": [
        {
          "internalType": "uint256",
          "name": "shares",
          "type": "uint256"
        }
      ],
      "name": "convertToAssets",
      "outputs": [
        {
          "internalType": "uint256",
          "name": "assets",
          "type": "uint256"
        }
      ],
      "stateMutability": "view",
      "type": "function"
    },
    {
      "inputs": [
        {
          "internalType": "uint256",
          "name": "assets",
          "type": "uint256"
        }
      ],
      "name": "convertToShares",
      "outputs": [
        {
          "internalType": "uint256",
          "name": "shares",
          "type": "uint256"
        }
      ],
      "stateMutability": "view",
      "type": "function"
    },
    {
      "inputs": [],
      "name": "decimals",
      "outputs": [
        {
          "internalType": "uint8",
          "name": "",
          "type": "uint8"
        }
      ],
      "stateMutability": "view",
      "type": "function"
    },
    {
      "inputs": [
        {
          "internalType": "address",
          "name": "spender",
          "type": "address"
        },
        {
          "internalType": "uint256",
          "name": "subtractedValue",
          "type": "uint256"
        }
      ],
      "name": "decreaseAllowance",
      "outputs": [
        {
          "internalType": "bool",
          "name": "",
          "type": "bool"
        }
      ],
      "stateMutability": "nonpayable",
      "type": "function"
    },
    {
      "inputs": [
        {
          "internalType": "uint256",
          "name": "assets_",
          "type": "uint256"
        },
        {
          "internalType": "address",
          "name": "receiver_",
          "type": "address"
        }
      ],
      "name": "deposit",
      "outputs": [
        {
          "internalType": "uint256",
          "name": "",
          "type": "uint256"
        }
      ],
      "stateMutability": "nonpayable",
      "type": "function"
    },
    {
      "inputs": [
        {
          "internalType": "address",
          "name": "spender",
          "type": "address"
        },
        {
          "internalType": "uint256",
          "name": "addedValue",
          "type": "uint256"
        }
      ],
      "name": "increaseAllowance",
      "outputs": [
        {
          "internalType": "bool",
          "name": "",
          "type": "bool"
        }
      ],
      "stateMutability": "nonpayable",
      "type": "function"
    },
    {
      "inputs": [
        {
          "internalType": "address",
          "name": "underlying_",
          "type": "address"
        },
        {
          "internalType": "address",
          "name": "diamond_",
          "type": "address"
        },
        {
          "internalType": "string",
          "name": "name_",
          "type": "string"
        },
        {
          "internalType": "string",
          "name": "symbol_",
          "type": "string"
        }
      ],
      "name": "initialize",
      "outputs": [],
      "stateMutability": "nonpayable",
      "type": "function"
    },
    {
      "inputs": [
        {
          "internalType": "address",
          "name": "",
          "type": "address"
        }
      ],
      "name": "maxDeposit",
      "outputs": [
        {
          "internalType": "uint256",
          "name": "",
          "type": "uint256"
        }
      ],
      "stateMutability": "view",
      "type": "function"
    },
    {
      "inputs": [
        {
          "internalType": "address",
          "name": "",
          "type": "address"
        }
      ],
      "name": "maxMint",
      "outputs": [
        {
          "internalType": "uint256",
          "name": "",
          "type": "uint256"
        }
      ],
      "stateMutability": "view",
      "type": "function"
    },
    {
      "inputs": [
        {
          "internalType": "address",
          "name": "owner",
          "type": "address"
        }
      ],
      "name": "maxRedeem",
      "outputs": [
        {
          "internalType": "uint256",
          "name": "",
          "type": "uint256"
        }
      ],
      "stateMutability": "view",
      "type": "function"
    },
    {
      "inputs": [
        {
          "internalType": "address",
          "name": "owner",
          "type": "address"
        }
      ],
      "name": "maxWithdraw",
      "outputs": [
        {
          "internalType": "uint256",
          "name": "",
          "type": "uint256"
        }
      ],
      "stateMutability": "view",
      "type": "function"
    },
    {
      "inputs": [
        {
          "internalType": "uint256",
          "name": "shares",
          "type": "uint256"
        },
        {
          "internalType": "address",
          "name": "receiver",
          "type": "address"
        }
      ],
      "name": "mint",
      "outputs": [
        {
          "internalType": "uint256",
          "name": "",
          "type": "uint256"
        }
      ],
      "stateMutability": "nonpayable",
      "type": "function"
    },
    {
      "inputs": [
        {
          "components": [
            {
              "internalType": "uint256",
              "name": "amountIn",
              "type": "uint256"
            },
            {
              "internalType": "uint256",
              "name": "minWethOut",
              "type": "uint256"
            },
            {
              "internalType": "uint256",
              "name": "minRethOut",
              "type": "uint256"
            },
            {
              "internalType": "uint256",
              "name": "minBptOut",
              "type": "uint256"
            }
          ],
          "internalType": "struct TradeAmounts",
          "name": "amounts_",
          "type": "tuple"
        },
        {
          "internalType": "address",
          "name": "receiver_",
          "type": "address"
        },
        {
          "internalType": "uint8",
          "name": "v_",
          "type": "uint8"
        },
        {
          "internalType": "bytes32",
          "name": "r_",
          "type": "bytes32"
        },
        {
          "internalType": "bytes32",
          "name": "s_",
          "type": "bytes32"
        }
      ],
      "name": "mint",
      "outputs": [
        {
          "internalType": "uint256",
          "name": "",
          "type": "uint256"
        }
      ],
      "stateMutability": "nonpayable",
      "type": "function"
    },
    {
      "inputs": [],
      "name": "name",
      "outputs": [
        {
          "internalType": "string",
          "name": "",
          "type": "string"
        }
      ],
      "stateMutability": "view",
      "type": "function"
    },
    {
      "inputs": [
        {
          "internalType": "uint256",
          "name": "assets",
          "type": "uint256"
        }
      ],
      "name": "previewDeposit",
      "outputs": [
        {
          "internalType": "uint256",
          "name": "",
          "type": "uint256"
        }
      ],
      "stateMutability": "view",
      "type": "function"
    },
    {
      "inputs": [
        {
          "internalType": "uint256",
          "name": "shares",
          "type": "uint256"
        }
      ],
      "name": "previewMint",
      "outputs": [
        {
          "internalType": "uint256",
          "name": "",
          "type": "uint256"
        }
      ],
      "stateMutability": "view",
      "type": "function"
    },
    {
      "inputs": [
        {
          "internalType": "uint256",
          "name": "shares",
          "type": "uint256"
        }
      ],
      "name": "previewRedeem",
      "outputs": [
        {
          "internalType": "uint256",
          "name": "",
          "type": "uint256"
        }
      ],
      "stateMutability": "view",
      "type": "function"
    },
    {
      "inputs": [
        {
          "internalType": "uint256",
          "name": "assets",
          "type": "uint256"
        }
      ],
      "name": "previewWithdraw",
      "outputs": [
        {
          "internalType": "uint256",
          "name": "",
          "type": "uint256"
        }
      ],
      "stateMutability": "view",
      "type": "function"
    },
    {
      "inputs": [
        {
          "internalType": "uint256",
          "name": "shares",
          "type": "uint256"
        },
        {
          "internalType": "address",
          "name": "receiver",
          "type": "address"
        },
        {
          "internalType": "address",
          "name": "owner",
          "type": "address"
        }
      ],
      "name": "redeem",
      "outputs": [
        {
          "internalType": "uint256",
          "name": "",
          "type": "uint256"
        }
      ],
      "stateMutability": "nonpayable",
      "type": "function"
    },
    {
      "inputs": [
        {
          "internalType": "address",
          "name": "account_",
          "type": "address"
        }
      ],
      "name": "sharesOf",
      "outputs": [
        {
          "internalType": "uint256",
          "name": "",
          "type": "uint256"
        }
      ],
      "stateMutability": "view",
      "type": "function"
    },
    {
      "inputs": [],
      "name": "symbol",
      "outputs": [
        {
          "internalType": "string",
          "name": "",
          "type": "string"
        }
      ],
      "stateMutability": "view",
      "type": "function"
    },
    {
      "inputs": [],
      "name": "totalAssets",
      "outputs": [
        {
          "internalType": "uint256",
          "name": "",
          "type": "uint256"
        }
      ],
      "stateMutability": "view",
      "type": "function"
    },
    {
      "inputs": [],
      "name": "totalShares",
      "outputs": [
        {
          "internalType": "uint256",
          "name": "",
          "type": "uint256"
        }
      ],
      "stateMutability": "view",
      "type": "function"
    },
    {
      "inputs": [],
      "name": "totalSupply",
      "outputs": [
        {
          "internalType": "uint256",
          "name": "",
          "type": "uint256"
        }
      ],
      "stateMutability": "view",
      "type": "function"
    },
    {
      "inputs": [
        {
          "internalType": "address",
          "name": "to",
          "type": "address"
        },
        {
          "internalType": "uint256",
          "name": "amount",
          "type": "uint256"
        }
      ],
      "name": "transfer",
      "outputs": [
        {
          "internalType": "bool",
          "name": "",
          "type": "bool"
        }
      ],
      "stateMutability": "nonpayable",
      "type": "function"
    },
    {
      "inputs": [
        {
          "internalType": "address",
          "name": "from",
          "type": "address"
        },
        {
          "internalType": "address",
          "name": "to",
          "type": "address"
        },
        {
          "internalType": "uint256",
          "name": "amount",
          "type": "uint256"
        }
      ],
      "name": "transferFrom",
      "outputs": [
        {
          "internalType": "bool",
          "name": "",
          "type": "bool"
        }
      ],
      "stateMutability": "nonpayable",
      "type": "function"
    },
    {
      "inputs": [
        {
          "internalType": "uint256",
          "name": "assets",
          "type": "uint256"
        },
        {
          "internalType": "address",
          "name": "receiver",
          "type": "address"
        },
        {
          "internalType": "address",
          "name": "owner",
          "type": "address"
        }
      ],
      "name": "withdraw",
      "outputs": [
        {
          "internalType": "uint256",
          "name": "",
          "type": "uint256"
        }
      ],
      "stateMutability": "nonpayable",
      "type": "function"
    }
  ],
  "bytecode": {
    "object": "0x608060405234801561001057600080fd5b5061001961001e565b6100de565b600054610100900460ff161561008a5760405162461bcd60e51b815260206004820152602760248201527f496e697469616c697a61626c653a20636f6e747261637420697320696e697469604482015266616c697a696e6760c81b606482015260840160405180910390fd5b60005460ff90811610156100dc576000805460ff191660ff9081179091556040519081527f7f26b83ff96e1f2b6a682f133852f6798a09c465da95921460cefb38474024989060200160405180910390a15b565b61176e806100ed6000396000f3fe608060405234801561001057600080fd5b50600436106101e55760003560e01c806370a082311161010f578063c63d75b6116100a2578063d937361211610071578063d9373612146103d5578063dd62ed3e146103e8578063ef8b30f71461039c578063f5eb42dc146103fb57600080fd5b8063c63d75b614610387578063c6e6f5921461039c578063ce96cb77146103af578063d905777e146103c257600080fd5b8063a9059cbb116100de578063a9059cbb1461033b578063b3d7f6b91461034e578063b460af9414610361578063ba0876521461037457600080fd5b806370a08231146102fa57806394bf804d1461030d57806395d89b4114610320578063a457c2d71461032857600080fd5b806323b872dd116101875780633a98ef39116101565780633a98ef39146102cc578063402d267d146102d45780634cdad506146102165780636e553f65146102e757600080fd5b806323b872dd1461027c578063313ce5671461028f57806338d52e0f1461029e57806339509351146102b957600080fd5b8063095ea7b3116101c3578063095ea7b3146102295780630a28a4771461024c57806318160ddd1461025f5780632016a0d21461026757600080fd5b806301e1d114146101ea57806306fdde031461020157806307a2d13a14610216575b600080fd5b60a8545b6040519081526020015b60405180910390f35b610209610424565b6040516101f891906111a5565b6101ee6102243660046111f3565b6104b6565b61023c610237366004611228565b6104c9565b60405190151581526020016101f8565b6101ee61025a3660046111f3565b6104e1565b6101ee6104ee565b61027a61027536600461131e565b610512565b005b61023c61028a3660046113a3565b610652565b604051601281526020016101f8565b6065546040516001600160a01b0390911681526020016101f8565b61023c6102c7366004611228565b610678565b60a7546101ee565b6101ee6102e23660046113df565b61069a565b6101ee6102f53660046113fa565b6106b8565b6101ee6103083660046113df565b610740565b6101ee61031b3660046113fa565b610762565b61020961077c565b61023c610336366004611228565b61078b565b61023c610349366004611228565b610811565b6101ee61035c3660046111f3565b61081f565b6101ee61036f366004611426565b61082c565b6101ee610382366004611426565b6108a3565b6101ee6103953660046113df565b5060001990565b6101ee6103aa3660046111f3565b610908565b6101ee6103bd3660046113df565b610915565b6101ee6103d03660046113df565b61092a565b6101ee6103e3366004611462565b610935565b6101ee6103f63660046114f3565b610a9a565b6101ee6104093660046113df565b6001600160a01b0316600090815260a9602052604090205490565b6060603680546104339061151d565b80601f016020809104026020016040519081016040528092919081815260200182805461045f9061151d565b80156104ac5780601f10610481576101008083540402835291602001916104ac565b820191906000526020600020905b81548152906001019060200180831161048f57829003601f168201915b5050505050905090565b60006104c3826000610ac5565b92915050565b6000336104d7818585610b5e565b5060019392505050565b60006104c3826001610c82565b600060a75460001461050c5761050760a7546000610ac5565b905090565b50600090565b600054610100900460ff16158080156105325750600054600160ff909116105b8061054c5750303b15801561054c575060005460ff166001145b6105b45760405162461bcd60e51b815260206004820152602e60248201527f496e697469616c697a61626c653a20636f6e747261637420697320616c72656160448201526d191e481a5b9a5d1a585b1a5e995960921b60648201526084015b60405180910390fd5b6000805460ff1916600117905580156105d7576000805461ff0019166101001790555b6105e18383610c9c565b6105ea85610cd1565b60a680546001600160a01b0319166001600160a01b038616179055801561064b576000805461ff0019169055604051600181527f7f26b83ff96e1f2b6a682f133852f6798a09c465da95921460cefb38474024989060200160405180910390a15b5050505050565b600033610660858285610d01565b61066b858585610d7b565b60019150505b9392505050565b6000336104d781858561068b8383610a9a565b6106959190611557565b610b5e565b60006106a4610e70565b6106af5760006104c3565b60001992915050565b60006106c38261069a565b8311156107125760405162461bcd60e51b815260206004820152601e60248201527f455243343632363a206465706f736974206d6f7265207468616e206d6178000060448201526064016105ab565b600061071d60a75490565b156107305761072b84610908565b610732565b835b905061067133848684610e91565b6001600160a01b038116600090815260a960205260408120546104c3906104b6565b60008061076e8461081f565b905061067133848387610e91565b6060603780546104339061151d565b600033816107998286610a9a565b9050838110156107f95760405162461bcd60e51b815260206004820152602560248201527f45524332303a2064656372656173656420616c6c6f77616e63652062656c6f77604482015264207a65726f60d81b60648201526084016105ab565b6108068286868403610b5e565b506001949350505050565b6000336104d7818585610d7b565b60006104c3826001610ac5565b600061083782610915565b8411156108865760405162461bcd60e51b815260206004820152601f60248201527f455243343632363a207769746864726177206d6f7265207468616e206d61780060448201526064016105ab565b6000610891856104e1565b905061089b565b50565b949350505050565b60006108ae8261092a565b8411156108fd5760405162461bcd60e51b815260206004820152601d60248201527f455243343632363a2072656465656d206d6f7265207468616e206d617800000060448201526064016105ab565b6000610891856104b6565b60006104c3826000610c82565b60006104c361092383610740565b6000610ac5565b60006104c382610740565b60008061094a6065546001600160a01b031690565b60a654885160405163d505accf60e01b81523360048201526001600160a01b039283166024820152604481019190915242606482015260ff8816608482015260a4810187905260c4810186905291925082169063d505accf9060e401600060405180830381600087803b1580156109c057600080fd5b505af11580156109d4573d6000803e3d6000fd5b505060a65460408051635879601960e01b81526001600160a01b0386811660048301523360248301528c51604483015260208d01516064830152918c0151608482015260608c015160a4820152911692506358796019915060c401600060405180830381600087803b158015610a4957600080fd5b505af1158015610a5d573d6000803e3d6000fd5b505050506000610a718860000151886106b8565b9050876000015160a86000828254610a899190611557565b909155509098975050505050505050565b6001600160a01b03918216600090815260346020908152604080832093909416825291909152205490565b6000610671610ad360a75490565b60a660009054906101000a90046001600160a01b03166001600160a01b03166345089e296040518163ffffffff1660e01b8152600401602060405180830381865afa158015610b26573d6000803e3d6000fd5b505050506040513d601f19601f82011682018060405250810190610b4a9190611578565b610b5491906115a7565b8490600185610f2c565b6001600160a01b038316610bc05760405162461bcd60e51b8152602060048201526024808201527f45524332303a20617070726f76652066726f6d20746865207a65726f206164646044820152637265737360e01b60648201526084016105ab565b6001600160a01b038216610c215760405162461bcd60e51b815260206004820152602260248201527f45524332303a20617070726f766520746f20746865207a65726f206164647265604482015261737360f01b60648201526084016105ab565b6001600160a01b0383811660008181526034602090815260408083209487168084529482529182902085905590518481527f8c5be1e5ebec7d5bd14f71427d1e84f3dd0314c0f7b2291e5b200ac8c7c3b925910160405180910390a3505050565b6000610671610c9060a75490565b60a85485919085610f2c565b600054610100900460ff16610cc35760405162461bcd60e51b81526004016105ab906115c9565b610ccd8282610f89565b5050565b600054610100900460ff16610cf85760405162461bcd60e51b81526004016105ab906115c9565b61089881610fce565b6000610d0d8484610a9a565b90506000198114610d755781811015610d685760405162461bcd60e51b815260206004820152601d60248201527f45524332303a20696e73756666696369656e7420616c6c6f77616e636500000060448201526064016105ab565b610d758484848403610b5e565b50505050565b6001600160a01b038316610dad57604051634b637e8f60e11b81526001600160a01b03841660048201526024016105ab565b6001600160a01b038216610ddf5760405163ec442f0560e01b81526001600160a01b03831660048201526024016105ab565b6000610dea82610908565b6001600160a01b038516600090815260a9602052604090205490915081811015610e405760405163391434e360e21b81526001600160a01b038616600482015260248101829052604481018390526064016105ab565b6001600160a01b03808616600090815260a96020526040808220858503905591861681522080548301905561064b565b600080610e7c60a85490565b11806105075750610e8b6104ee565b15905090565b8060a76000828254610ea39190611557565b90915550506001600160a01b038316600090815260a960205260409020805482019055610ed08383611017565b826001600160a01b0316846001600160a01b03167fdcbc1c05240f31ff3ad067ef1ee35ce4997762752e3a095284754544f4c709d78484604051610f1e929190918252602082015260400190565b60405180910390a350505050565b600080610f3a8686866110f6565b90506001836002811115610f5057610f50611614565b148015610f6d575060008480610f6857610f68611591565b868809115b15610f8057610f7d600182611557565b90505b95945050505050565b600054610100900460ff16610fb05760405162461bcd60e51b81526004016105ab906115c9565b6036610fbc8382611678565b506037610fc98282611678565b505050565b600054610100900460ff16610ff55760405162461bcd60e51b81526004016105ab906115c9565b606580546001600160a01b0319166001600160a01b0392909216919091179055565b6001600160a01b03821661106d5760405162461bcd60e51b815260206004820152601f60248201527f45524332303a206d696e7420746f20746865207a65726f20616464726573730060448201526064016105ab565b806035600082825461107f9190611557565b90915550506001600160a01b038216600090815260336020526040812080548392906110ac908490611557565b90915550506040518181526001600160a01b038316906000907fddf252ad1be2c89b69c2b068fc378daa952ba7f163c4a11628f55a4df523b3ef9060200160405180910390a35050565b60008080600019858709858702925082811083820303915050806000036111305783828161112657611126611591565b0492505050610671565b80841161113c57600080fd5b60008486880960026001871981018816978890046003810283188082028403028082028403028082028403028082028403028082028403029081029092039091026000889003889004909101858311909403939093029303949094049190911702949350505050565b600060208083528351808285015260005b818110156111d2578581018301518582016040015282016111b6565b506000604082860101526040601f19601f8301168501019250505092915050565b60006020828403121561120557600080fd5b5035919050565b80356001600160a01b038116811461122357600080fd5b919050565b6000806040838503121561123b57600080fd5b6112448361120c565b946020939093013593505050565b634e487b7160e01b600052604160045260246000fd5b6040516080810167ffffffffffffffff8111828210171561128b5761128b611252565b60405290565b600082601f8301126112a257600080fd5b813567ffffffffffffffff808211156112bd576112bd611252565b604051601f8301601f19908116603f011681019082821181831017156112e5576112e5611252565b816040528381528660208588010111156112fe57600080fd5b836020870160208301376000602085830101528094505050505092915050565b6000806000806080858703121561133457600080fd5b61133d8561120c565b935061134b6020860161120c565b9250604085013567ffffffffffffffff8082111561136857600080fd5b61137488838901611291565b9350606087013591508082111561138a57600080fd5b5061139787828801611291565b91505092959194509250565b6000806000606084860312156113b857600080fd5b6113c18461120c565b92506113cf6020850161120c565b9150604084013590509250925092565b6000602082840312156113f157600080fd5b6106718261120c565b6000806040838503121561140d57600080fd5b8235915061141d6020840161120c565b90509250929050565b60008060006060848603121561143b57600080fd5b8335925061144b6020850161120c565b91506114596040850161120c565b90509250925092565b600080600080600085870361010081121561147c57600080fd5b608081121561148a57600080fd5b50611493611268565b86358152602087013560208201526040870135604082015260608701356060820152809550506114c56080870161120c565b935060a086013560ff811681146114db57600080fd5b9497939650939460c0810135945060e0013592915050565b6000806040838503121561150657600080fd5b61150f8361120c565b915061141d6020840161120c565b600181811c9082168061153157607f821691505b60208210810361155157634e487b7160e01b600052602260045260246000fd5b50919050565b808201808211156104c357634e487b7160e01b600052601160045260246000fd5b60006020828403121561158a57600080fd5b5051919050565b634e487b7160e01b600052601260045260246000fd5b6000826115c457634e487b7160e01b600052601260045260246000fd5b500490565b6020808252602b908201527f496e697469616c697a61626c653a20636f6e7472616374206973206e6f74206960408201526a6e697469616c697a696e6760a81b606082015260800190565b634e487b7160e01b600052602160045260246000fd5b601f821115610fc957600081815260208120601f850160051c810160208610156116515750805b601f850160051c820191505b818110156116705782815560010161165d565b505050505050565b815167ffffffffffffffff81111561169257611692611252565b6116a6816116a0845461151d565b8461162a565b602080601f8311600181146116db57600084156116c35750858301515b600019600386901b1c1916600185901b178555611670565b600085815260208120601f198616915b8281101561170a578886015182559484019460019091019084016116eb565b50858210156117285787850151600019600388901b60f8161c191681555b5050505050600190811b0190555056fea2646970667358221220587538c2ea84d21b772761fba6e0fef2380243c8f3535a6b7279f914635cc68464736f6c63430008150033",
    "linkReferences": {}
  },
  "methodIdentifiers": {
    "allowance(address,address)": "dd62ed3e",
    "approve(address,uint256)": "095ea7b3",
    "asset()": "38d52e0f",
    "balanceOf(address)": "70a08231",
    "convertToAssets(uint256)": "07a2d13a",
    "convertToShares(uint256)": "c6e6f592",
    "decimals()": "313ce567",
    "decreaseAllowance(address,uint256)": "a457c2d7",
    "deposit(uint256,address)": "6e553f65",
    "increaseAllowance(address,uint256)": "39509351",
    "initialize(address,address,string,string)": "2016a0d2",
    "maxDeposit(address)": "402d267d",
    "maxMint(address)": "c63d75b6",
    "maxRedeem(address)": "d905777e",
    "maxWithdraw(address)": "ce96cb77",
    "mint((uint256,uint256,uint256,uint256),address,uint8,bytes32,bytes32)": "d9373612",
    "mint(uint256,address)": "94bf804d",
    "name()": "06fdde03",
    "previewDeposit(uint256)": "ef8b30f7",
    "previewMint(uint256)": "b3d7f6b9",
    "previewRedeem(uint256)": "4cdad506",
    "previewWithdraw(uint256)": "0a28a477",
    "redeem(uint256,address,address)": "ba087652",
    "sharesOf(address)": "f5eb42dc",
    "symbol()": "95d89b41",
    "totalAssets()": "01e1d114",
    "totalShares()": "3a98ef39",
    "totalSupply()": "18160ddd",
    "transfer(address,uint256)": "a9059cbb",
    "transferFrom(address,address,uint256)": "23b872dd",
    "withdraw(uint256,address,address)": "b460af94"
  },
  "id": 23
}