{
  "abi": [
    {
      "inputs": [
        {
          "internalType": "string",
          "name": "name_",
          "type": "string"
        },
        {
          "internalType": "string",
          "name": "symbol_",
          "type": "string"
        },
        {
          "internalType": "address",
          "name": "underlying_",
          "type": "address"
        },
        {
          "internalType": "uint8",
          "name": "decimals_",
          "type": "uint8"
        },
        {
          "internalType": "address",
          "name": "diamond_",
          "type": "address"
        }
      ],
      "stateMutability": "nonpayable",
      "type": "constructor"
    },
    {
      "anonymous": false,
      "inputs": [
        {
          "indexed": true,
          "internalType": "address",
          "name": "owner",
          "type": "address"
        },
        {
          "indexed": true,
          "internalType": "address",
          "name": "spender",
          "type": "address"
        },
        {
          "indexed": false,
          "internalType": "uint256",
          "name": "value",
          "type": "uint256"
        }
      ],
      "name": "Approval",
      "type": "event"
    },
    {
      "anonymous": false,
      "inputs": [
        {
          "indexed": true,
          "internalType": "address",
          "name": "from",
          "type": "address"
        },
        {
          "indexed": true,
          "internalType": "address",
          "name": "to",
          "type": "address"
        },
        {
          "indexed": false,
          "internalType": "uint256",
          "name": "value",
          "type": "uint256"
        }
      ],
      "name": "Transfer",
      "type": "event"
    },
    {
      "inputs": [
        {
          "internalType": "address",
          "name": "owner",
          "type": "address"
        },
        {
          "internalType": "address",
          "name": "spender",
          "type": "address"
        }
      ],
      "name": "allowance",
      "outputs": [
        {
          "internalType": "uint256",
          "name": "",
          "type": "uint256"
        }
      ],
      "stateMutability": "view",
      "type": "function"
    },
    {
      "inputs": [
        {
          "internalType": "address",
          "name": "spender",
          "type": "address"
        },
        {
          "internalType": "uint256",
          "name": "amount",
          "type": "uint256"
        }
      ],
      "name": "approve",
      "outputs": [
        {
          "internalType": "bool",
          "name": "",
          "type": "bool"
        }
      ],
      "stateMutability": "nonpayable",
      "type": "function"
    },
    {
      "inputs": [
        {
          "internalType": "address",
          "name": "account",
          "type": "address"
        }
      ],
      "name": "balanceOf",
      "outputs": [
        {
          "internalType": "uint256",
          "name": "",
          "type": "uint256"
        }
      ],
      "stateMutability": "view",
      "type": "function"
    },
    {
      "inputs": [],
      "name": "decimals",
      "outputs": [
        {
          "internalType": "uint8",
          "name": "",
          "type": "uint8"
        }
      ],
      "stateMutability": "view",
      "type": "function"
    },
    {
      "inputs": [
        {
          "internalType": "address",
          "name": "spender",
          "type": "address"
        },
        {
          "internalType": "uint256",
          "name": "subtractedValue",
          "type": "uint256"
        }
      ],
      "name": "decreaseAllowance",
      "outputs": [
        {
          "internalType": "bool",
          "name": "",
          "type": "bool"
        }
      ],
      "stateMutability": "nonpayable",
      "type": "function"
    },
    {
      "inputs": [],
      "name": "getDiamond",
      "outputs": [
        {
          "internalType": "address",
          "name": "",
          "type": "address"
        }
      ],
      "stateMutability": "view",
      "type": "function"
    },
    {
      "inputs": [
        {
          "internalType": "address",
          "name": "spender",
          "type": "address"
        },
        {
          "internalType": "uint256",
          "name": "addedValue",
          "type": "uint256"
        }
      ],
      "name": "increaseAllowance",
      "outputs": [
        {
          "internalType": "bool",
          "name": "",
          "type": "bool"
        }
      ],
      "stateMutability": "nonpayable",
      "type": "function"
    },
    {
      "inputs": [
        {
          "internalType": "address",
          "name": "account_",
          "type": "address"
        }
      ],
      "name": "interestOf",
      "outputs": [
        {
          "internalType": "uint256",
          "name": "",
          "type": "uint256"
        }
      ],
      "stateMutability": "view",
      "type": "function"
    },
    {
      "inputs": [
        {
          "internalType": "uint256",
          "name": "amountIn_",
          "type": "uint256"
        },
        {
          "internalType": "uint256",
          "name": "minWethOut_",
          "type": "uint256"
        },
        {
          "internalType": "uint256",
          "name": "minRethOut_",
          "type": "uint256"
        },
        {
          "internalType": "uint256",
          "name": "minBptOut_",
          "type": "uint256"
        }
      ],
      "name": "mint",
      "outputs": [],
      "stateMutability": "nonpayable",
      "type": "function"
    },
    {
      "inputs": [],
      "name": "name",
      "outputs": [
        {
          "internalType": "string",
          "name": "",
          "type": "string"
        }
      ],
      "stateMutability": "view",
      "type": "function"
    },
    {
      "inputs": [],
      "name": "symbol",
      "outputs": [
        {
          "internalType": "string",
          "name": "",
          "type": "string"
        }
      ],
      "stateMutability": "view",
      "type": "function"
    },
    {
      "inputs": [
        {
          "internalType": "address",
          "name": "account_",
          "type": "address"
        }
      ],
      "name": "totalBalanceOf",
      "outputs": [
        {
          "internalType": "uint256",
          "name": "",
          "type": "uint256"
        }
      ],
      "stateMutability": "view",
      "type": "function"
    },
    {
      "inputs": [],
      "name": "totalSupply",
      "outputs": [
        {
          "internalType": "uint256",
          "name": "",
          "type": "uint256"
        }
      ],
      "stateMutability": "view",
      "type": "function"
    },
    {
      "inputs": [
        {
          "internalType": "address",
          "name": "to",
          "type": "address"
        },
        {
          "internalType": "uint256",
          "name": "amount",
          "type": "uint256"
        }
      ],
      "name": "transfer",
      "outputs": [
        {
          "internalType": "bool",
          "name": "",
          "type": "bool"
        }
      ],
      "stateMutability": "nonpayable",
      "type": "function"
    },
    {
      "inputs": [
        {
          "internalType": "address",
          "name": "from",
          "type": "address"
        },
        {
          "internalType": "address",
          "name": "to",
          "type": "address"
        },
        {
          "internalType": "uint256",
          "name": "amount",
          "type": "uint256"
        }
      ],
      "name": "transferFrom",
      "outputs": [
        {
          "internalType": "bool",
          "name": "",
          "type": "bool"
        }
      ],
      "stateMutability": "nonpayable",
      "type": "function"
    },
    {
      "inputs": [],
      "name": "underlying",
      "outputs": [
        {
          "internalType": "address",
          "name": "",
          "type": "address"
        }
      ],
      "stateMutability": "view",
      "type": "function"
    }
  ],
  "bytecode": {
    "object": "0x60c06040523480156200001157600080fd5b50604051620012f7380380620012f7833981016040819052620000349162000164565b60036200004286826200029c565b5060046200005185826200029c565b506001600160a01b039283166080526005805460ff191660ff93909316929092179091551660a05250620003689050565b634e487b7160e01b600052604160045260246000fd5b600082601f830112620000aa57600080fd5b81516001600160401b0380821115620000c757620000c762000082565b604051601f8301601f19908116603f01168101908282118183101715620000f257620000f262000082565b816040528381526020925086838588010111156200010f57600080fd5b600091505b8382101562000133578582018301518183018401529082019062000114565b600093810190920192909252949350505050565b80516001600160a01b03811681146200015f57600080fd5b919050565b600080600080600060a086880312156200017d57600080fd5b85516001600160401b03808211156200019557600080fd5b620001a389838a0162000098565b96506020880151915080821115620001ba57600080fd5b50620001c98882890162000098565b945050620001da6040870162000147565b9250606086015160ff81168114620001f157600080fd5b9150620002016080870162000147565b90509295509295909350565b600181811c908216806200022257607f821691505b6020821081036200024357634e487b7160e01b600052602260045260246000fd5b50919050565b601f8211156200029757600081815260208120601f850160051c81016020861015620002725750805b601f850160051c820191505b8181101562000293578281556001016200027e565b5050505b505050565b81516001600160401b03811115620002b857620002b862000082565b620002d081620002c984546200020d565b8462000249565b602080601f831160018114620003085760008415620002ef5750858301515b600019600386901b1c1916600185901b17855562000293565b600085815260208120601f198616915b82811015620003395788860151825594840194600190910190840162000318565b5085821015620003585787850151600019600388901b60f8161c191681555b5050505050600190811b01905550565b60805160a051610f54620003a360003960008181610238015281816103f801526104570152600081816101bd01526103c90152610f546000f3fe608060405234801561001057600080fd5b50600436106101005760003560e01c80636f307dc311610097578063a9059cbb11610066578063a9059cbb14610223578063d7b8b95b14610236578063d8e8b1771461025c578063dd62ed3e1461026f57600080fd5b80636f307dc3146101bb57806370a08231146101f557806395d89b4114610208578063a457c2d71461021057600080fd5b8063313ce567116100d3578063313ce5671461016b57806339509351146101805780634b0ee02a146101935780636582ccd3146101a657600080fd5b806306fdde0314610105578063095ea7b31461012357806318160ddd1461014657806323b872dd14610158575b600080fd5b61010d610282565b60405161011a9190610cfa565b60405180910390f35b610136610131366004610d49565b610314565b604051901515815260200161011a565b6002545b60405190815260200161011a565b610136610166366004610d73565b61032e565b60055460405160ff909116815260200161011a565b61013661018e366004610d49565b610354565b61014a6101a1366004610daf565b610376565b6101b96101b4366004610dca565b6103c7565b005b7f00000000000000000000000000000000000000000000000000000000000000005b6040516001600160a01b03909116815260200161011a565b61014a610203366004610daf565b6104ba565b61010d6104c4565b61013661021e366004610d49565b6104d3565b610136610231366004610d49565b61055e565b7f00000000000000000000000000000000000000000000000000000000000000006101dd565b61014a61026a366004610daf565b61056c565b61014a61027d366004610dfc565b610577565b60606003805461029190610e2f565b80601f01602080910402602001604051908101604052809291908181526020018280546102bd90610e2f565b801561030a5780601f106102df5761010080835404028352916020019161030a565b820191906000526020600020905b8154815290600101906020018083116102ed57829003601f168201915b5050505050905090565b6000336103228185856105c1565b60019150505b92915050565b60003361033c858285610705565b61034785858561077f565b60019150505b9392505050565b6000336103228185856103678383610577565b6103719190610e69565b6105c1565b6000808060025b600281111561038e5761038e610e8a565b81526020019081526020016000206000836001600160a01b03166001600160a01b03168152602001908152602001600020549050919050565b7f000000000000000000000000000000000000000000000000000000000000000061041d6001600160a01b038216337f00000000000000000000000000000000000000000000000000000000000000008861099b565b604051632717d37360e21b81526001600160a01b0382811660048301523360248301526044820186905260648201859052608482018490527f00000000000000000000000000000000000000000000000000000000000000001690639c5f4dcc9060a401600060405180830381600087803b15801561049b57600080fd5b505af11580156104af573d6000803e3d6000fd5b505050505050505050565b600080808061037d565b60606004805461029190610e2f565b600033816104e18286610577565b9050838110156105465760405162461bcd60e51b815260206004820152602560248201527f45524332303a2064656372656173656420616c6c6f77616e63652062656c6f77604482015264207a65726f60d81b60648201526084015b60405180910390fd5b61055382868684036105c1565b506001949350505050565b60003361032281858561077f565b60008080600161037d565b6001600160a01b0391821660009081527fa6eef7e35abe7026729641147f7915573c7e97b47efa546f5f6e3230263bcb496020908152604080832093909416825291909152205490565b6001600160a01b0383166106235760405162461bcd60e51b8152602060048201526024808201527f45524332303a20617070726f76652066726f6d20746865207a65726f206164646044820152637265737360e01b606482015260840161053d565b6001600160a01b0382166106845760405162461bcd60e51b815260206004820152602260248201527f45524332303a20617070726f766520746f20746865207a65726f206164647265604482015261737360f01b606482015260840161053d565b6001600160a01b0383811660008181527fa6eef7e35abe7026729641147f7915573c7e97b47efa546f5f6e3230263bcb496020908152604080832094871680845294825291829020859055815185815291517f8c5be1e5ebec7d5bd14f71427d1e84f3dd0314c0f7b2291e5b200ac8c7c3b9259281900390910190a3505050565b60006107118484610577565b90506000198114610779578181101561076c5760405162461bcd60e51b815260206004820152601d60248201527f45524332303a20696e73756666696369656e7420616c6c6f77616e6365000000604482015260640161053d565b61077984848484036105c1565b50505050565b6001600160a01b0383166107e35760405162461bcd60e51b815260206004820152602560248201527f45524332303a207472616e736665722066726f6d20746865207a65726f206164604482015264647265737360d81b606482015260840161053d565b6001600160a01b0382166108455760405162461bcd60e51b815260206004820152602360248201527f45524332303a207472616e7366657220746f20746865207a65726f206164647260448201526265737360e81b606482015260840161053d565b6001600160a01b0383166000908152600080516020610eff8339815191526020526040902054818110156108ca5760405162461bcd60e51b815260206004820152602660248201527f45524332303a207472616e7366657220616d6f756e7420657863656564732062604482015265616c616e636560d01b606482015260840161053d565b6001600160a01b038481166000908152600080516020610eff83398151915260205260408082208585039055918516815290812080548401905561090e8584610aa5565b6001600160a01b0386166000908152600080516020610edf8339815191526020526040902080548290038201905590506109488585610b27565b50826001600160a01b0316846001600160a01b03167fddf252ad1be2c89b69c2b068fc378daa952ba7f163c4a11628f55a4df523b3ef8460405161098e91815260200190565b60405180910390a3610779565b604080516001600160a01b0385811660248301528481166044830152606480830185905283518084039091018152608490920183526020820180516001600160e01b03166323b872dd60e01b17905291516000928392908816916109ff9190610ea0565b6000604051808303816000865af19150503d8060008114610a3c576040519150601f19603f3d011682016040523d82523d6000602084013e610a41565b606091505b5091509150818015610a6b575080511580610a6b575080806020019051810190610a6b9190610ebc565b610a9d5760405162461bcd60e51b815260206004820152600360248201526229aa2360e91b604482015260640161053d565b505050505050565b6001600160a01b0382166000908152600080516020610eff833981519152602052604081205481610ae08468056bc75e2d6310000084610c27565b6001600160a01b0386166000908152600080516020610edf8339815191526020526040902054909150610b1d828268056bc75e2d63100000610c27565b9695505050505050565b6001600160a01b0382166000908152600080516020610edf8339815191526020908152604080832054600080516020610eff83398151915290925290912054610b709190610e69565b6001600160a01b0383811660009081527fabbb5caa7dda850e60932de0934eb1f9d0f59695050f761dc64e443e5030a56960209081526040808320949094559184168152600080516020610edf833981519152825282812054600080516020610eff8339815191529092529190912054610bea9190610e69565b6001600160a01b039190911660009081527fabbb5caa7dda850e60932de0934eb1f9d0f59695050f761dc64e443e5030a569602052604090205550565b60008383026000198486098181108201900380610c5c5783610c515763ae47f7026000526004601cfd5b50829004905061034d565b808411610c715763ae47f7026000526004601cfd5b838587096000858103861695869004956003870260029081188089028203028089028203028089028203028089028203028089028203028089029091030291819003819004600101858411909403939093029190930391909104170290509392505050565b60005b83811015610cf1578181015183820152602001610cd9565b50506000910152565b6020815260008251806020840152610d19816040850160208701610cd6565b601f01601f19169190910160400192915050565b80356001600160a01b0381168114610d4457600080fd5b919050565b60008060408385031215610d5c57600080fd5b610d6583610d2d565b946020939093013593505050565b600080600060608486031215610d8857600080fd5b610d9184610d2d565b9250610d9f60208501610d2d565b9150604084013590509250925092565b600060208284031215610dc157600080fd5b61034d82610d2d565b60008060008060808587031215610de057600080fd5b5050823594602084013594506040840135936060013592509050565b60008060408385031215610e0f57600080fd5b610e1883610d2d565b9150610e2660208401610d2d565b90509250929050565b600181811c90821680610e4357607f821691505b602082108103610e6357634e487b7160e01b600052602260045260246000fd5b50919050565b8082018082111561032857634e487b7160e01b600052601160045260246000fd5b634e487b7160e01b600052602160045260246000fd5b60008251610eb2818460208701610cd6565b9190910192915050565b600060208284031215610ece57600080fd5b8151801515811461034d57600080fdfeada5013122d395ba3c54772283fb069b10426056ef8ca54750cb9bb552a59e7dad3228b676f7d3cd4284a5443f17f1962b36e491b30a40b2405849e597ba5fb5a264697066735822122084eaa5e83b2d2f4d0fce604f0334cf53de3cde8f75862dbbc9cafe84d703c3f764736f6c63430008150033",
    "linkReferences": {}
  },
  "methodIdentifiers": {
    "allowance(address,address)": "dd62ed3e",
    "approve(address,uint256)": "095ea7b3",
    "balanceOf(address)": "70a08231",
    "decimals()": "313ce567",
    "decreaseAllowance(address,uint256)": "a457c2d7",
    "getDiamond()": "d7b8b95b",
    "increaseAllowance(address,uint256)": "39509351",
    "interestOf(address)": "d8e8b177",
    "mint(uint256,uint256,uint256,uint256)": "6582ccd3",
    "name()": "06fdde03",
    "symbol()": "95d89b41",
    "totalBalanceOf(address)": "4b0ee02a",
    "totalSupply()": "18160ddd",
    "transfer(address,uint256)": "a9059cbb",
    "transferFrom(address,address,uint256)": "23b872dd",
    "underlying()": "6f307dc3"
  },
  "id": 20
}