{
  "abi": [
    {
      "inputs": [],
      "stateMutability": "nonpayable",
      "type": "constructor"
    },
    {
      "inputs": [],
      "name": "OZError03",
      "type": "error"
    },
    {
      "inputs": [
        {
          "internalType": "address",
          "name": "from",
          "type": "address"
        },
        {
          "internalType": "address",
          "name": "to",
          "type": "address"
        }
      ],
      "name": "OZError04",
      "type": "error"
    },
    {
      "inputs": [
        {
          "internalType": "uint256",
          "name": "amount",
          "type": "uint256"
        }
      ],
      "name": "OZError05",
      "type": "error"
    },
    {
      "inputs": [
        {
          "internalType": "address",
          "name": "sender",
          "type": "address"
        },
        {
          "internalType": "uint256",
          "name": "accountShares",
          "type": "uint256"
        },
        {
          "internalType": "uint256",
          "name": "shares",
          "type": "uint256"
        }
      ],
      "name": "OZError06",
      "type": "error"
    },
    {
      "inputs": [
        {
          "internalType": "address",
          "name": "from",
          "type": "address"
        },
        {
          "internalType": "uint256",
          "name": "fromShares",
          "type": "uint256"
        },
        {
          "internalType": "uint256",
          "name": "shares",
          "type": "uint256"
        }
      ],
      "name": "OZError07",
      "type": "error"
    },
    {
      "inputs": [
        {
          "internalType": "uint256",
          "name": "deadline",
          "type": "uint256"
        },
        {
          "internalType": "uint256",
          "name": "blockTimestamp",
          "type": "uint256"
        }
      ],
      "name": "OZError08",
      "type": "error"
    },
    {
      "inputs": [
        {
          "internalType": "address",
          "name": "owner",
          "type": "address"
        },
        {
          "internalType": "address",
          "name": "spender",
          "type": "address"
        }
      ],
      "name": "OZError09",
      "type": "error"
    },
    {
      "inputs": [
        {
          "internalType": "string",
          "name": "reason",
          "type": "string"
        }
      ],
      "name": "OZError22",
      "type": "error"
    },
    {
      "anonymous": false,
      "inputs": [
        {
          "indexed": true,
          "internalType": "address",
          "name": "owner",
          "type": "address"
        },
        {
          "indexed": true,
          "internalType": "address",
          "name": "spender",
          "type": "address"
        },
        {
          "indexed": false,
          "internalType": "uint256",
          "name": "value",
          "type": "uint256"
        }
      ],
      "name": "Approval",
      "type": "event"
    },
    {
      "anonymous": false,
      "inputs": [
        {
          "indexed": false,
          "internalType": "uint8",
          "name": "version",
          "type": "uint8"
        }
      ],
      "name": "Initialized",
      "type": "event"
    },
    {
      "anonymous": false,
      "inputs": [
        {
          "indexed": true,
          "internalType": "address",
          "name": "from",
          "type": "address"
        },
        {
          "indexed": true,
          "internalType": "address",
          "name": "to",
          "type": "address"
        },
        {
          "indexed": false,
          "internalType": "uint256",
          "name": "value",
          "type": "uint256"
        }
      ],
      "name": "Transfer",
      "type": "event"
    },
    {
      "inputs": [],
      "name": "DOMAIN_SEPARATOR",
      "outputs": [
        {
          "internalType": "bytes32",
          "name": "",
          "type": "bytes32"
        }
      ],
      "stateMutability": "view",
      "type": "function"
    },
    {
      "inputs": [],
      "name": "FORMAT_DECIMALS",
      "outputs": [
        {
          "internalType": "uint256",
          "name": "",
          "type": "uint256"
        }
      ],
      "stateMutability": "view",
      "type": "function"
    },
    {
      "inputs": [
        {
          "internalType": "address",
          "name": "owner",
          "type": "address"
        },
        {
          "internalType": "address",
          "name": "spender",
          "type": "address"
        }
      ],
      "name": "allowance",
      "outputs": [
        {
          "internalType": "uint256",
          "name": "",
          "type": "uint256"
        }
      ],
      "stateMutability": "view",
      "type": "function"
    },
    {
      "inputs": [
        {
          "internalType": "address",
          "name": "spender",
          "type": "address"
        },
        {
          "internalType": "uint256",
          "name": "amount",
          "type": "uint256"
        }
      ],
      "name": "approve",
      "outputs": [
        {
          "internalType": "bool",
          "name": "",
          "type": "bool"
        }
      ],
      "stateMutability": "nonpayable",
      "type": "function"
    },
    {
      "inputs": [],
      "name": "asset",
      "outputs": [
        {
          "internalType": "address",
          "name": "",
          "type": "address"
        }
      ],
      "stateMutability": "view",
      "type": "function"
    },
    {
      "inputs": [
        {
          "internalType": "address",
          "name": "account_",
          "type": "address"
        }
      ],
      "name": "balanceOf",
      "outputs": [
        {
          "internalType": "uint256",
          "name": "",
          "type": "uint256"
        }
      ],
      "stateMutability": "view",
      "type": "function"
    },
    {
      "inputs": [],
      "name": "claimReward",
      "outputs": [
        {
          "internalType": "uint256",
          "name": "",
          "type": "uint256"
        }
      ],
      "stateMutability": "nonpayable",
      "type": "function"
    },
    {
      "inputs": [
        {
          "internalType": "uint256",
          "name": "shares",
          "type": "uint256"
        },
        {
          "internalType": "address",
          "name": "account_",
          "type": "address"
        }
      ],
      "name": "convertToAssets",
      "outputs": [
        {
          "internalType": "uint256",
          "name": "assets",
          "type": "uint256"
        }
      ],
      "stateMutability": "view",
      "type": "function"
    },
    {
      "inputs": [
        {
          "internalType": "uint256",
          "name": "assets",
          "type": "uint256"
        }
      ],
      "name": "convertToShares",
      "outputs": [
        {
          "internalType": "uint256",
          "name": "shares",
          "type": "uint256"
        }
      ],
      "stateMutability": "view",
      "type": "function"
    },
    {
      "inputs": [
        {
          "internalType": "uint256",
          "name": "shares_",
          "type": "uint256"
        }
      ],
      "name": "convertToUnderlying",
      "outputs": [
        {
          "internalType": "uint256",
          "name": "amountUnderlying",
          "type": "uint256"
        }
      ],
      "stateMutability": "view",
      "type": "function"
    },
    {
      "inputs": [],
      "name": "decimals",
      "outputs": [
        {
          "internalType": "uint8",
          "name": "",
          "type": "uint8"
        }
      ],
      "stateMutability": "pure",
      "type": "function"
    },
    {
      "inputs": [
        {
          "internalType": "address",
          "name": "spender",
          "type": "address"
        },
        {
          "internalType": "uint256",
          "name": "subtractedValue",
          "type": "uint256"
        }
      ],
      "name": "decreaseAllowance",
      "outputs": [
        {
          "internalType": "bool",
          "name": "",
          "type": "bool"
        }
      ],
      "stateMutability": "nonpayable",
      "type": "function"
    },
    {
      "inputs": [
        {
          "internalType": "address",
          "name": "user_",
          "type": "address"
        }
      ],
      "name": "earned",
      "outputs": [
        {
          "internalType": "uint256",
          "name": "",
          "type": "uint256"
        }
      ],
      "stateMutability": "view",
      "type": "function"
    },
    {
      "inputs": [],
      "name": "getRewardsData",
      "outputs": [
        {
          "internalType": "uint256",
          "name": "rewardRate",
          "type": "uint256"
        },
        {
          "internalType": "uint256",
          "name": "circulatingSupply",
          "type": "uint256"
        },
        {
          "internalType": "uint256",
          "name": "pendingAllocation",
          "type": "uint256"
        },
        {
          "internalType": "uint256",
          "name": "recicledSupply",
          "type": "uint256"
        },
        {
          "internalType": "int256",
          "name": "durationLeft",
          "type": "int256"
        }
      ],
      "stateMutability": "view",
      "type": "function"
    },
    {
      "inputs": [
        {
          "internalType": "address",
          "name": "spender",
          "type": "address"
        },
        {
          "internalType": "uint256",
          "name": "addedValue",
          "type": "uint256"
        }
      ],
      "name": "increaseAllowance",
      "outputs": [
        {
          "internalType": "bool",
          "name": "",
          "type": "bool"
        }
      ],
      "stateMutability": "nonpayable",
      "type": "function"
    },
    {
      "inputs": [
        {
          "internalType": "address",
          "name": "underlying_",
          "type": "address"
        },
        {
          "internalType": "address",
          "name": "diamond_",
          "type": "address"
        },
        {
          "internalType": "string",
          "name": "name_",
          "type": "string"
        },
        {
          "internalType": "string",
          "name": "symbol_",
          "type": "string"
        }
      ],
      "name": "initialize",
      "outputs": [],
      "stateMutability": "nonpayable",
      "type": "function"
    },
    {
      "inputs": [],
      "name": "lastTimeRewardApplicable",
      "outputs": [
        {
          "internalType": "uint256",
          "name": "",
          "type": "uint256"
        }
      ],
      "stateMutability": "view",
      "type": "function"
    },
    {
      "inputs": [
        {
          "internalType": "bytes",
          "name": "data_",
          "type": "bytes"
        },
        {
          "internalType": "address",
          "name": "owner_",
          "type": "address"
        }
      ],
      "name": "mint",
      "outputs": [
        {
          "internalType": "uint256",
          "name": "",
          "type": "uint256"
        }
      ],
      "stateMutability": "nonpayable",
      "type": "function"
    },
    {
      "inputs": [],
      "name": "name",
      "outputs": [
        {
          "internalType": "string",
          "name": "",
          "type": "string"
        }
      ],
      "stateMutability": "view",
      "type": "function"
    },
    {
      "inputs": [
        {
          "internalType": "address",
          "name": "owner",
          "type": "address"
        }
      ],
      "name": "nonces",
      "outputs": [
        {
          "internalType": "uint256",
          "name": "",
          "type": "uint256"
        }
      ],
      "stateMutability": "view",
      "type": "function"
    },
    {
      "inputs": [
        {
          "internalType": "uint256",
          "name": "amount_",
          "type": "uint256"
        }
      ],
      "name": "notifyRewardAmount",
      "outputs": [],
      "stateMutability": "nonpayable",
      "type": "function"
    },
    {
      "inputs": [
        {
          "internalType": "address",
          "name": "owner",
          "type": "address"
        },
        {
          "internalType": "address",
          "name": "spender",
          "type": "address"
        },
        {
          "internalType": "uint256",
          "name": "value",
          "type": "uint256"
        },
        {
          "internalType": "uint256",
          "name": "deadline",
          "type": "uint256"
        },
        {
          "internalType": "uint8",
          "name": "v",
          "type": "uint8"
        },
        {
          "internalType": "bytes32",
          "name": "r",
          "type": "bytes32"
        },
        {
          "internalType": "bytes32",
          "name": "s_",
          "type": "bytes32"
        }
      ],
      "name": "permit",
      "outputs": [],
      "stateMutability": "nonpayable",
      "type": "function"
    },
    {
      "inputs": [
        {
          "internalType": "uint256",
          "name": "assets_",
          "type": "uint256"
        }
      ],
      "name": "previewMint",
      "outputs": [
        {
          "internalType": "uint256",
          "name": "",
          "type": "uint256"
        }
      ],
      "stateMutability": "view",
      "type": "function"
    },
    {
      "inputs": [
        {
          "internalType": "uint256",
          "name": "shares_",
          "type": "uint256"
        }
      ],
      "name": "previewRedeem",
      "outputs": [
        {
          "internalType": "uint256",
          "name": "",
          "type": "uint256"
        }
      ],
      "stateMutability": "view",
      "type": "function"
    },
    {
      "inputs": [
        {
          "internalType": "uint256",
          "name": "assets",
          "type": "uint256"
        }
      ],
      "name": "previewWithdraw",
      "outputs": [
        {
          "internalType": "uint256",
          "name": "",
          "type": "uint256"
        }
      ],
      "stateMutability": "view",
      "type": "function"
    },
    {
      "inputs": [
        {
          "internalType": "bytes",
          "name": "data_",
          "type": "bytes"
        },
        {
          "internalType": "address",
          "name": "owner_",
          "type": "address"
        }
      ],
      "name": "redeem",
      "outputs": [
        {
          "internalType": "uint256",
          "name": "",
          "type": "uint256"
        }
      ],
      "stateMutability": "nonpayable",
      "type": "function"
    },
    {
      "inputs": [],
      "name": "rewardPerToken",
      "outputs": [
        {
          "internalType": "uint256",
          "name": "",
          "type": "uint256"
        }
      ],
      "stateMutability": "view",
      "type": "function"
    },
    {
      "inputs": [
        {
          "internalType": "uint256",
          "name": "duration_",
          "type": "uint256"
        }
      ],
      "name": "setRewardsDuration",
      "outputs": [],
      "stateMutability": "nonpayable",
      "type": "function"
    },
    {
      "inputs": [
        {
          "internalType": "address",
          "name": "account_",
          "type": "address"
        }
      ],
      "name": "sharesOf",
      "outputs": [
        {
          "internalType": "uint256",
          "name": "",
          "type": "uint256"
        }
      ],
      "stateMutability": "view",
      "type": "function"
    },
    {
      "inputs": [
        {
          "internalType": "address",
          "name": "account_",
          "type": "address"
        }
      ],
      "name": "subBalanceOf",
      "outputs": [
        {
          "internalType": "uint256",
          "name": "",
          "type": "uint256"
        }
      ],
      "stateMutability": "view",
      "type": "function"
    },
    {
      "inputs": [],
      "name": "symbol",
      "outputs": [
        {
          "internalType": "string",
          "name": "",
          "type": "string"
        }
      ],
      "stateMutability": "view",
      "type": "function"
    },
    {
      "inputs": [],
      "name": "totalAssets",
      "outputs": [
        {
          "internalType": "uint256",
          "name": "",
          "type": "uint256"
        }
      ],
      "stateMutability": "view",
      "type": "function"
    },
    {
      "inputs": [],
      "name": "totalShares",
      "outputs": [
        {
          "internalType": "uint256",
          "name": "",
          "type": "uint256"
        }
      ],
      "stateMutability": "view",
      "type": "function"
    },
    {
      "inputs": [],
      "name": "totalSupply",
      "outputs": [
        {
          "internalType": "uint256",
          "name": "",
          "type": "uint256"
        }
      ],
      "stateMutability": "view",
      "type": "function"
    },
    {
      "inputs": [
        {
          "internalType": "address",
          "name": "to",
          "type": "address"
        },
        {
          "internalType": "uint256",
          "name": "amount",
          "type": "uint256"
        }
      ],
      "name": "transfer",
      "outputs": [
        {
          "internalType": "bool",
          "name": "",
          "type": "bool"
        }
      ],
      "stateMutability": "nonpayable",
      "type": "function"
    },
    {
      "inputs": [
        {
          "internalType": "address",
          "name": "from",
          "type": "address"
        },
        {
          "internalType": "address",
          "name": "to",
          "type": "address"
        },
        {
          "internalType": "uint256",
          "name": "amount",
          "type": "uint256"
        }
      ],
      "name": "transferFrom",
      "outputs": [
        {
          "internalType": "bool",
          "name": "",
          "type": "bool"
        }
      ],
      "stateMutability": "nonpayable",
      "type": "function"
    }
  ],
  "bytecode": {
    "object": "0x60806040523480156200001157600080fd5b506200001c62000022565b620000e4565b602b54610100900460ff16156200008f5760405162461bcd60e51b815260206004820152602760248201527f496e697469616c697a61626c653a20636f6e747261637420697320696e697469604482015266616c697a696e6760c81b606482015260840160405180910390fd5b602b5460ff9081161015620000e257602b805460ff191660ff9081179091556040519081527f7f26b83ff96e1f2b6a682f133852f6798a09c465da95921460cefb38474024989060200160405180910390a15b565b6126c680620000f46000396000f3fe608060405234801561001057600080fd5b506004361061021b5760003560e01c80633c6b16ab11610125578063a9059cbb116100ad578063cc1a378f1161007c578063cc1a378f14610376578063cd3daf9d146103ed578063d505accf1461043e578063dd62ed3e14610451578063f5eb42dc1461046457600080fd5b8063a9059cbb14610418578063b3d7f6b91461042b578063b88a802f146103ed578063c6e6f5921461028757600080fd5b80637ecebe00116100f45780637ecebe00146103da57806380faa57d146103ed57806395d89b41146103f4578063a01c8774146103fc578063a457c2d71461040557600080fd5b80633c6b16ab146103765780634cdad5061461038757806370a082311461039a5780637d098e64146103ad57600080fd5b80632016a0d2116101a8578063361032911161017757806336103291146103255780633644e5151461033857806338d52e0f14610340578063395093511461035b5780633a98ef391461036e57600080fd5b80632016a0d2146102db57806323b872dd146102f0578063313ce5671461030357806332e506901461031257600080fd5b80630a28a477116101ef5780630a28a477146102875780630ba097d61461029a5780630cae37f1146102ad57806318160ddd146102c05780631dc7f521146102c857600080fd5b80628cc2621461022057806301e1d1141461024757806306fdde031461024f578063095ea7b314610264575b600080fd5b61023461022e366004611ccb565b50600090565b6040519081526020015b60405180910390f35b61023461048d565b6102576104a2565b60405161023e9190611d38565b610277610272366004611d4b565b610534565b604051901515815260200161023e565b610234610295366004611d77565b61054b565b6102346102a8366004611e31565b610556565b6102346102bb366004611e31565b6107ca565b6102346109b2565b6102346102d6366004611d77565b6109d1565b6102ee6102e9366004611eb7565b610a61565b005b6102776102fe366004611f40565b610c5f565b6040516012815260200161023e565b610234610320366004611ccb565b610c81565b610234610333366004611f81565b610ca3565b610234610cb6565b6061546040516001600160a01b03909116815260200161023e565b610277610369366004611d4b565b610cc0565b610234610ce1565b6102ee610384366004611d77565b50565b610234610395366004611d77565b610cf2565b6102346103a8366004611ccb565b610cfd565b6040805160008082526020820181905291810182905260608101829052608081019190915260a00161023e565b6102346103e8366004611ccb565b610d20565b6000610234565b610257610d3e565b61023460685481565b610277610413366004611d4b565b610d4d565b610277610426366004611d4b565b610d8a565b610234610439366004611d77565b610d97565b6102ee61044c366004611fb5565b610da2565b61023461045f366004612026565b610ec4565b610234610472366004611ccb565b6001600160a01b031660009081526063602052604090205490565b60625460009061049d9082610eef565b905090565b6060606680546104b190612054565b80601f01602080910402602001604051908101604052809291908181526020018280546104dd90612054565b801561052a5780601f106104ff5761010080835404028352916020019161052a565b820191906000526020600020905b81548152906001019060200180831161050d57829003601f168201915b5050505050905090565b6000610541338484610f32565b5060015b92915050565b600061054582610fe1565b60605460009082906001600160a01b031680156105cc576040516241fec360e31b81526001600160a01b03838116600483015282169063020ff61890602401600060405180830381600087803b1580156105af57600080fd5b505af11580156105c3573d6000803e3d6000fd5b50505050610610565b6000601a5560006018556001600160a01b03821615610610576001600160a01b0382166000908152601e60209081526040808320839055601a54601d909252909120555b6000858060200190518101906106269190612109565b509050600061064a866001600160a01b031660009081526063602052604090205490565b9050600061065b836000015161054b565b90508082101561069c57604051637ac073bf60e01b81526001600160a01b038816600482015260248101839052604481018290526064015b60405180910390fd5b60006106a782610cf2565b6060546040516314370d6760e31b81529192506001600160a01b03169063a1b86b38906106da908b908d906004016121ae565b60408051808303816000875af1925050508015610714575060408051601f3d908101601f19168201909252610711918101906121d2565b60015b610766576107206121f6565b806308c379a00361075a5750610734612212565b8061073f575061075c565b80604051631bc63b8160e01b81526004016106939190611d38565b505b3d6000803e3d6000fd5b610771826000611063565b6060546001600160a01b0316600090815260636020526040902054945061079a838660006110d3565b6060546001600160a01b031660009081526063602052604081205597506107c2945050505050565b505092915050565b60605460009082906001600160a01b03168015610840576040516241fec360e31b81526001600160a01b03838116600483015282169063020ff61890602401600060405180830381600087803b15801561082357600080fd5b505af1158015610837573d6000803e3d6000fd5b50505050610884565b6000601a5560006018556001600160a01b03821615610884576001600160a01b0382166000908152601e60209081526040808320839055601a54601d909252909120555b6000808680602001905181019061089b919061229c565b60685482519294509092506000916108b291611131565b6060549091506001600160a01b0316639ea04fe46108d86061546001600160a01b031690565b89866040518463ffffffff1660e01b81526004016108f893929190612335565b6020604051808303816000875af1925050508015610933575060408051601f3d908101601f19168201909252610930918101906123ae565b60015b61093f576107206121f6565b61094a816001611063565b6000610954610ce1565b156109675761096283610d97565b610969565b825b9050610977838260016110d3565b6001600160a01b0390931660009081526063602090815260408083208054870190556069909152902080549092019091555093506107c29050565b60006109bc610ce1565b1561022e5761049d6109cc610ce1565b61113d565b60006109db610ce1565b60605460405163a4fc284b60e01b81526001600160a01b039091169063a4fc284b90610a0c906001906004016123dd565b602060405180830381865afa158015610a29573d6000803e3d6000fd5b505050506040513d601f19601f82011682018060405250810190610a4d91906123ae565b610a57908461241b565b6105459190612432565b602b54610100900460ff1615808015610a815750602b54600160ff909116105b80610a9b5750303b158015610a9b5750602b5460ff166001145b610afe5760405162461bcd60e51b815260206004820152602e60248201527f496e697469616c697a61626c653a20636f6e747261637420697320616c72656160448201526d191e481a5b9a5d1a585b1a5e995960921b6064820152608401610693565b602b805460ff191660011790558015610b2157602b805461ff0019166101001790555b6066610b2d848261249f565b506067610b3a838261249f565b50606080546001600160a01b038087166001600160a01b03199283161790925560618054928816929091169190911790556040805180820190915260018152603160f81b6020820152610b8e908490611180565b846001600160a01b031663313ce5676040518163ffffffff1660e01b8152600401602060405180830381865afa158015610bcc573d6000803e3d6000fd5b505050506040513d601f19601f82011682018060405250810190610bf0919061255f565b60ff16601214610c01576001610c08565b64e8d4a510005b64ffffffffff166068558015610c5857602b805461ff0019169055604051600181527f7f26b83ff96e1f2b6a682f133852f6798a09c465da95921460cefb38474024989060200160405180910390a15b5050505050565b6000610c6c8433846111b5565b610c77848484611203565b5060019392505050565b6001600160a01b0381166000908152606360205260408120546105459061113d565b6000610caf8383611321565b9392505050565b600061049d61148d565b6000610541338484610cd23388610ec4565b610cdc919061257c565b610f32565b60625460009061049d906001610eef565b600061054582611508565b6001600160a01b0381166000908152606360205260408120546105459083610ca3565b6001600160a01b038116600090815260646020526040812054610545565b6060606780546104b190612054565b600080610d5a3385610ec4565b905082811015610d7d576040516361ceb1d360e01b815260040160405180910390fd5b610c773385858403610f32565b6000610541338484611203565b60006105458261158b565b83421115610dcc5760405163184f1e0160e11b815260048101859052426024820152604401610693565b60007f6e71edae12b1b97f4d1f60370fef10105fa2faae0126114a169c64845d6126c9888888610dfb8c6116a1565b6040805160208101969096526001600160a01b0394851690860152929091166060840152608083015260a082015260c0810186905260e0016040516020818303038152906040528051906020012090506000610e56826116c9565b90506000610e6682878787611717565b9050896001600160a01b0316816001600160a01b031614610ead57604051635091bef560e01b81526001600160a01b0380831660048301528b166024820152604401610693565b610eb88a8a8a610f32565b50505050505050505050565b6001600160a01b03918216600090815260656020908152604080832093909416825291909152205490565b60006fffffffffffffffffffffffffffffffff81836001811115610f1557610f156123c7565b14610f2257838116610f2a565b608084901c81165b949350505050565b6001600160a01b0383161580610f4f57506001600160a01b038216155b15610f8057604051637db368a160e01b81526001600160a01b03808516600483015283166024820152604401610693565b6001600160a01b0383811660008181526065602090815260408083209487168084529482529182902085905590518481527f8c5be1e5ebec7d5bd14f71427d1e84f3dd0314c0f7b2291e5b200ac8c7c3b925910160405180910390a3505050565b6000610545610fee610ce1565b606054604051634be9756960e11b81526001600160a01b0390911660048201819052906397d2ead290602401602060405180830381865afa158015611037573d6000803e3d6000fd5b505050506040513d601f19601f8201168201806040525081019061105b91906123ae565b84919061173f565b60605460405163b0ff97b560e01b81523060048201526024810184905282151560448201526001600160a01b039091169063b0ff97b590606401600060405180830381600087803b1580156110b757600080fd5b505af11580156110cb573d6000803e3d6000fd5b505050505050565b6062546000906110e39082610eef565b905060006110fd6001606254610eef90919063ffffffff16565b9050821561111057908401908301611119565b90849003908390035b61112782608083901b61257c565b6062555050505050565b6000610caf8284612432565b6060546000906001600160a01b03168161115682611765565b9050610f2a81611164610ce1565b1561117657611171610ce1565b611178565b825b8691906117b1565b602b54610100900460ff166111a75760405162461bcd60e51b81526004016106939061258f565b6111b182826117cf565b5050565b60006111c18484610ec4565b905060001981146111fd57818110156111f0576040516306052b7f60e01b815260048101839052602401610693565b6111fd8484848403610f32565b50505050565b6001600160a01b038316158061122057506001600160a01b038216155b1561125157604051637db368a160e01b81526001600160a01b03808516600483015283166024820152604401610693565b600061125c8261054b565b6001600160a01b038516600090815260636020526040902054909150818110156112b2576040516315c29bad60e31b81526001600160a01b03861660048201526024810182905260448101839052606401610693565b6001600160a01b0380861660008181526063602052604080822086860390559287168082529083902080548601905591517fddf252ad1be2c89b69c2b068fc378daa952ba7f163c4a11628f55a4df523b3ef906113129087815260200190565b60405180910390a35050505050565b60006113616040518060400160405280601b81526020017f2d2d2d20696e205f636f6e76657274546f417373657473202d2d2d0000000000815250611810565b61138b60405180604001604052806008815260200167039b430b932b99d160c51b81525084611853565b6113c16040518060400160405280600d81526020016c03a37ba30b629b430b932b99d1609d1b8152506113bc610ce1565b611853565b6060546001600160a01b031660006113d882611765565b90506114066040518060400160405280600a81526020016903932ba342fb2ba341d160b51b81525082611853565b6114446040518060400160405280601f81526020017f2d2d2d20656e64206f66205f636f6e76657274546f417373657473202d2d2d00815250611810565b600061146e82611452610ce1565b156114645761145f610ce1565b611466565b835b8891906117b1565b905061147985611898565b611483908261241b565b9695505050505050565b600061049d7f8b73c3c69bb8fe3d512ecc4cf759cc79239f7b179b0ffacaa9a75d522b39400f6114bc602c5490565b602d546040805160208101859052908101839052606081018290524660808201523060a082015260009060c0016040516020818303038152906040528051906020012090509392505050565b606054604051634be9756960e11b8152306004820152600091610545916001600160a01b03909116906397d2ead290602401602060405180830381865afa158015611557573d6000803e3d6000fd5b505050506040513d601f19601f8201168201806040525081019061157b91906123ae565b6115836109b2565b8491906117b1565b60006115ae60405180606001604052806029815260200161266860299139611810565b6115df6040518060400160405280600d81526020016c03a37ba30b620b9b9b2ba399d1609d1b8152506113bc61048d565b61160960405180604001604052806008815260200167030b9b9b2ba399d160c51b81525083611853565b61163a6040518060400160405280600d81526020016c03a37ba30b629b430b932b99d1609d1b8152506113bc610ce1565b61166d60405180604001604052806004815260200163034b99d160e51b8152506113bc611665610ce1565b61117861048d565b61168e6040518060600160405280602a815260200161263e602a9139611810565b610545611699610ce1565b61158361048d565b6001600160a01b03811660009081526064602052604090208054600181018255905b50919050565b60006105456116d661148d565b8360405161190160f01b6020820152602281018390526042810182905260009060620160405160208183030381529060405280519060200120905092915050565b6000806000611728878787876118c6565b91509150611735816119b3565b5095945050505050565b600082600019048411830215820261175657600080fd5b50910281810615159190040190565b6040805160048152602481019091526020810180516001600160e01b0316636a57db9d60e11b17905260009061179b8382611b69565b905080806020019051810190610caf91906123ae565b60008260001904841183021582026117c857600080fd5b5091020490565b602b54610100900460ff166117f65760405162461bcd60e51b81526004016106939061258f565b815160209283012081519190920120602c91909155602d55565b610384816040516024016118249190611d38565b60408051601f198184030181529190526020810180516001600160e01b031663104c13eb60e21b179052611b8e565b6111b182826040516024016118699291906125da565b60408051601f198184030181529190526020810180516001600160e01b03166309710a9d60e41b179052611b8e565b60006118a382610c81565b6001600160a01b0383166000908152606960205260409020546105459190612432565b6000807f7fffffffffffffffffffffffffffffff5d576e7357a4501ddfe92f46681b20a08311156118fd57506000905060036119aa565b8460ff16601b1415801561191557508460ff16601c14155b1561192657506000905060046119aa565b6040805160008082526020820180845289905260ff881692820192909252606081018690526080810185905260019060a0016020604051602081039080840390855afa15801561197a573d6000803e3d6000fd5b5050604051601f1901519150506001600160a01b0381166119a3576000600192509250506119aa565b9150600090505b94509492505050565b60008160048111156119c7576119c76123c7565b036119cf5750565b60018160048111156119e3576119e36123c7565b03611a305760405162461bcd60e51b815260206004820152601860248201527f45434453413a20696e76616c6964207369676e617475726500000000000000006044820152606401610693565b6002816004811115611a4457611a446123c7565b03611a915760405162461bcd60e51b815260206004820152601f60248201527f45434453413a20696e76616c6964207369676e6174757265206c656e677468006044820152606401610693565b6003816004811115611aa557611aa56123c7565b03611afd5760405162461bcd60e51b815260206004820152602260248201527f45434453413a20696e76616c6964207369676e6174757265202773272076616c604482015261756560f01b6064820152608401610693565b6004816004811115611b1157611b116123c7565b036103845760405162461bcd60e51b815260206004820152602260248201527f45434453413a20696e76616c6964207369676e6174757265202776272076616c604482015261756560f01b6064820152608401610693565b6060610caf838360405180606001604052806025815260200161261960259139611baf565b80516a636f6e736f6c652e6c6f67602083016000808483855afa5050505050565b6060600080856001600160a01b031685604051611bcc91906125fc565b600060405180830381855afa9150503d8060008114611c07576040519150601f19603f3d011682016040523d82523d6000602084013e611c0c565b606091505b50915091506114838683838760608315611c87578251600003611c80576001600160a01b0385163b611c805760405162461bcd60e51b815260206004820152601d60248201527f416464726573733a2063616c6c20746f206e6f6e2d636f6e74726163740000006044820152606401610693565b5081610f2a565b610f2a8383815115611c9c5781518083602001fd5b8060405162461bcd60e51b81526004016106939190611d38565b6001600160a01b038116811461038457600080fd5b600060208284031215611cdd57600080fd5b8135610caf81611cb6565b60005b83811015611d03578181015183820152602001611ceb565b50506000910152565b60008151808452611d24816020860160208601611ce8565b601f01601f19169290920160200192915050565b602081526000610caf6020830184611d0c565b60008060408385031215611d5e57600080fd5b8235611d6981611cb6565b946020939093013593505050565b600060208284031215611d8957600080fd5b5035919050565b634e487b7160e01b600052604160045260246000fd5b601f8201601f1916810167ffffffffffffffff81118282101715611dcc57611dcc611d90565b6040525050565b600067ffffffffffffffff831115611ded57611ded611d90565b604051611e04601f8501601f191660200182611da6565b809150838152848484011115611e1957600080fd5b83836020830137600060208583010152509392505050565b60008060408385031215611e4457600080fd5b823567ffffffffffffffff811115611e5b57600080fd5b8301601f81018513611e6c57600080fd5b611e7b85823560208401611dd3565b9250506020830135611e8c81611cb6565b809150509250929050565b600082601f830112611ea857600080fd5b610caf83833560208501611dd3565b60008060008060808587031215611ecd57600080fd5b8435611ed881611cb6565b93506020850135611ee881611cb6565b9250604085013567ffffffffffffffff80821115611f0557600080fd5b611f1188838901611e97565b93506060870135915080821115611f2757600080fd5b50611f3487828801611e97565b91505092959194509250565b600080600060608486031215611f5557600080fd5b8335611f6081611cb6565b92506020840135611f7081611cb6565b929592945050506040919091013590565b60008060408385031215611f9457600080fd5b823591506020830135611e8c81611cb6565b60ff8116811461038457600080fd5b600080600080600080600060e0888a031215611fd057600080fd5b8735611fdb81611cb6565b96506020880135611feb81611cb6565b95506040880135945060608801359350608088013561200981611fa6565b9699959850939692959460a0840135945060c09093013592915050565b6000806040838503121561203957600080fd5b823561204481611cb6565b91506020830135611e8c81611cb6565b600181811c9082168061206857607f821691505b6020821081036116c357634e487b7160e01b600052602260045260246000fd5b600082601f83011261209957600080fd5b8151602067ffffffffffffffff8211156120b5576120b5611d90565b8160051b6040516120c883830182611da6565b928352848101820192828101878511156120e157600080fd5b83870192505b848310156120fe57825181529183019183016120e7565b509695505050505050565b6000806040838503121561211c57600080fd5b825167ffffffffffffffff8082111561213457600080fd5b908401906060828703121561214857600080fd5b60405160608101818110838211171561216357612163611d90565b8060405250825181526020830151602082015260408301518281111561218857600080fd5b61219488828601612088565b6040830152508094505050506020830151611e8c81611cb6565b6001600160a01b0383168152604060208201819052600090610f2a90830184611d0c565b600080604083850312156121e557600080fd5b505080516020909101519092909150565b600060033d111561220f5760046000803e5060005160e01c5b90565b600060443d10156122205790565b6040516003193d81016004833e81513d67ffffffffffffffff816024840111818411171561225057505050505090565b82850191508151818111156122685750505050505090565b843d87010160208285010111156122825750505050505090565b61229160208286010187611da6565b509095945050505050565b600080604083850312156122af57600080fd5b825167ffffffffffffffff808211156122c757600080fd5b90840190604082870312156122db57600080fd5b6040516040810181811083821117156122f6576122f6611d90565b6040528251815260208301518281111561230f57600080fd5b61231b88828601612088565b6020830152508094505050506020830151611e8c81611cb6565b600060018060a01b0380861683526020818616818501526060604085015260a08401915084516060850152808501516040608086015282815180855260c0870191508383019450600092505b808310156123a15784518252938301936001929092019190830190612381565b5098975050505050505050565b6000602082840312156123c057600080fd5b5051919050565b634e487b7160e01b600052602160045260246000fd5b60208101600283106123ff57634e487b7160e01b600052602160045260246000fd5b91905290565b634e487b7160e01b600052601160045260246000fd5b808202811582820484141761054557610545612405565b60008261244f57634e487b7160e01b600052601260045260246000fd5b500490565b601f82111561249a57600081815260208120601f850160051c8101602086101561247b5750805b601f850160051c820191505b818110156110cb57828155600101612487565b505050565b815167ffffffffffffffff8111156124b9576124b9611d90565b6124cd816124c78454612054565b84612454565b602080601f83116001811461250257600084156124ea5750858301515b600019600386901b1c1916600185901b1785556110cb565b600085815260208120601f198616915b8281101561253157888601518255948401946001909101908401612512565b508582101561254f5787850151600019600388901b60f8161c191681555b5050505050600190811b01905550565b60006020828403121561257157600080fd5b8151610caf81611fa6565b8082018082111561054557610545612405565b6020808252602b908201527f496e697469616c697a61626c653a20636f6e7472616374206973206e6f74206960408201526a6e697469616c697a696e6760a81b606082015260800190565b6040815260006125ed6040830185611d0c565b90508260208301529392505050565b6000825161260e818460208701611ce8565b919091019291505056fe416464726573733a206c6f772d6c6576656c207374617469632063616c6c206661696c65642d2d2d20656e64205f636f6e76657274546f53686172657346726f6d556e6465726c79696e67202d2d2d2d2d2d20696e205f636f6e76657274546f53686172657346726f6d556e6465726c79696e67202d2d2da264697066735822122010efccf789108250e16ad94e8bccc4507d4b42c4c101d74e43255d953bc37fd064736f6c63430008150033",
    "linkReferences": {}
  },
  "methodIdentifiers": {
    "DOMAIN_SEPARATOR()": "3644e515",
    "FORMAT_DECIMALS()": "a01c8774",
    "allowance(address,address)": "dd62ed3e",
    "approve(address,uint256)": "095ea7b3",
    "asset()": "38d52e0f",
    "balanceOf(address)": "70a08231",
    "claimReward()": "b88a802f",
    "convertToAssets(uint256,address)": "36103291",
    "convertToShares(uint256)": "c6e6f592",
    "convertToUnderlying(uint256)": "1dc7f521",
    "decimals()": "313ce567",
    "decreaseAllowance(address,uint256)": "a457c2d7",
    "earned(address)": "008cc262",
    "getRewardsData()": "7d098e64",
    "increaseAllowance(address,uint256)": "39509351",
    "initialize(address,address,string,string)": "2016a0d2",
    "lastTimeRewardApplicable()": "80faa57d",
    "mint(bytes,address)": "0cae37f1",
    "name()": "06fdde03",
    "nonces(address)": "7ecebe00",
    "notifyRewardAmount(uint256)": "3c6b16ab",
    "permit(address,address,uint256,uint256,uint8,bytes32,bytes32)": "d505accf",
    "previewMint(uint256)": "b3d7f6b9",
    "previewRedeem(uint256)": "4cdad506",
    "previewWithdraw(uint256)": "0a28a477",
    "redeem(bytes,address)": "0ba097d6",
    "rewardPerToken()": "cd3daf9d",
    "setRewardsDuration(uint256)": "cc1a378f",
    "sharesOf(address)": "f5eb42dc",
    "subBalanceOf(address)": "32e50690",
    "symbol()": "95d89b41",
    "totalAssets()": "01e1d114",
    "totalShares()": "3a98ef39",
    "totalSupply()": "18160ddd",
    "transfer(address,uint256)": "a9059cbb",
    "transferFrom(address,address,uint256)": "23b872dd"
  },
  "id": 46
}