{"abi":[{"type":"constructor","inputs":[],"stateMutability":"nonpayable"},{"type":"function","name":"DOMAIN_SEPARATOR","inputs":[],"outputs":[{"name":"","type":"bytes32","internalType":"bytes32"}],"stateMutability":"view"},{"type":"function","name":"FORMAT_DECIMALS","inputs":[],"outputs":[{"name":"","type":"uint256","internalType":"uint256"}],"stateMutability":"view"},{"type":"function","name":"allowance","inputs":[{"name":"owner","type":"address","internalType":"address"},{"name":"spender","type":"address","internalType":"address"}],"outputs":[{"name":"","type":"uint256","internalType":"uint256"}],"stateMutability":"view"},{"type":"function","name":"approve","inputs":[{"name":"spender","type":"address","internalType":"address"},{"name":"amount","type":"uint256","internalType":"uint256"}],"outputs":[{"name":"","type":"bool","internalType":"bool"}],"stateMutability":"nonpayable"},{"type":"function","name":"asset","inputs":[],"outputs":[{"name":"","type":"address","internalType":"address"}],"stateMutability":"view"},{"type":"function","name":"balanceOf","inputs":[{"name":"account_","type":"address","internalType":"address"}],"outputs":[{"name":"","type":"uint256","internalType":"uint256"}],"stateMutability":"view"},{"type":"function","name":"claimReward","inputs":[],"outputs":[{"name":"","type":"uint256","internalType":"uint256"}],"stateMutability":"nonpayable"},{"type":"function","name":"convertToOzTokens","inputs":[{"name":"shares_","type":"uint256","internalType":"uint256"},{"name":"account_","type":"address","internalType":"address"}],"outputs":[{"name":"","type":"uint256","internalType":"UintRay"}],"stateMutability":"view"},{"type":"function","name":"convertToShares","inputs":[{"name":"assets_","type":"uint256","internalType":"uint256"},{"name":"account_","type":"address","internalType":"address"}],"outputs":[{"name":"","type":"uint256","internalType":"uint256"}],"stateMutability":"view"},{"type":"function","name":"convertToSharesFromOzBalance","inputs":[{"name":"ozBalance_","type":"uint256","internalType":"uint256"}],"outputs":[{"name":"","type":"uint256","internalType":"uint256"}],"stateMutability":"view"},{"type":"function","name":"convertToUnderlying","inputs":[{"name":"shares_","type":"uint256","internalType":"uint256"}],"outputs":[{"name":"","type":"uint256","internalType":"uint256"}],"stateMutability":"view"},{"type":"function","name":"decimals","inputs":[],"outputs":[{"name":"","type":"uint8","internalType":"uint8"}],"stateMutability":"pure"},{"type":"function","name":"decreaseAllowance","inputs":[{"name":"spender","type":"address","internalType":"address"},{"name":"subtractedValue","type":"uint256","internalType":"uint256"}],"outputs":[{"name":"","type":"bool","internalType":"bool"}],"stateMutability":"nonpayable"},{"type":"function","name":"earned","inputs":[{"name":"user_","type":"address","internalType":"address"}],"outputs":[{"name":"","type":"uint256","internalType":"uint256"}],"stateMutability":"view"},{"type":"function","name":"getRewardsData","inputs":[],"outputs":[{"name":"rewardRate","type":"uint256","internalType":"uint256"},{"name":"circulatingSupply","type":"uint256","internalType":"uint256"},{"name":"pendingAllocation","type":"uint256","internalType":"uint256"},{"name":"recicledSupply","type":"uint256","internalType":"uint256"},{"name":"durationLeft","type":"int256","internalType":"int256"}],"stateMutability":"view"},{"type":"function","name":"increaseAllowance","inputs":[{"name":"spender","type":"address","internalType":"address"},{"name":"addedValue","type":"uint256","internalType":"uint256"}],"outputs":[{"name":"","type":"bool","internalType":"bool"}],"stateMutability":"nonpayable"},{"type":"function","name":"initialize","inputs":[{"name":"underlying_","type":"address","internalType":"address"},{"name":"diamond_","type":"address","internalType":"address"},{"name":"name_","type":"string","internalType":"string"},{"name":"symbol_","type":"string","internalType":"string"}],"outputs":[],"stateMutability":"nonpayable"},{"type":"function","name":"lastTimeRewardApplicable","inputs":[],"outputs":[{"name":"","type":"uint256","internalType":"uint256"}],"stateMutability":"view"},{"type":"function","name":"mint","inputs":[{"name":"data_","type":"bytes","internalType":"bytes"},{"name":"owner_","type":"address","internalType":"address"}],"outputs":[{"name":"","type":"uint256","internalType":"uint256"}],"stateMutability":"payable"},{"type":"function","name":"mint2","inputs":[{"name":"data_","type":"bytes","internalType":"bytes"},{"name":"owner_","type":"address","internalType":"address"},{"name":"isETH_","type":"bool","internalType":"bool"}],"outputs":[{"name":"","type":"uint256","internalType":"uint256"}],"stateMutability":"payable"},{"type":"function","name":"name","inputs":[],"outputs":[{"name":"","type":"string","internalType":"string"}],"stateMutability":"view"},{"type":"function","name":"nonces","inputs":[{"name":"owner","type":"address","internalType":"address"}],"outputs":[{"name":"","type":"uint256","internalType":"uint256"}],"stateMutability":"view"},{"type":"function","name":"notifyRewardAmount","inputs":[{"name":"amount_","type":"uint256","internalType":"uint256"}],"outputs":[],"stateMutability":"nonpayable"},{"type":"function","name":"permit","inputs":[{"name":"owner","type":"address","internalType":"address"},{"name":"spender","type":"address","internalType":"address"},{"name":"value","type":"uint256","internalType":"uint256"},{"name":"deadline","type":"uint256","internalType":"uint256"},{"name":"v","type":"uint8","internalType":"uint8"},{"name":"r","type":"bytes32","internalType":"bytes32"},{"name":"s_","type":"bytes32","internalType":"bytes32"}],"outputs":[],"stateMutability":"nonpayable"},{"type":"function","name":"redeem","inputs":[{"name":"data_","type":"bytes","internalType":"bytes"},{"name":"owner_","type":"address","internalType":"address"}],"outputs":[{"name":"","type":"uint256","internalType":"uint256"}],"stateMutability":"nonpayable"},{"type":"function","name":"rewardPerToken","inputs":[],"outputs":[{"name":"","type":"uint256","internalType":"uint256"}],"stateMutability":"view"},{"type":"function","name":"setRewardsDuration","inputs":[{"name":"duration_","type":"uint256","internalType":"uint256"}],"outputs":[],"stateMutability":"nonpayable"},{"type":"function","name":"sharesOf","inputs":[{"name":"account_","type":"address","internalType":"address"}],"outputs":[{"name":"","type":"uint256","internalType":"uint256"}],"stateMutability":"view"},{"type":"function","name":"symbol","inputs":[],"outputs":[{"name":"","type":"string","internalType":"string"}],"stateMutability":"view"},{"type":"function","name":"totalAssets","inputs":[],"outputs":[{"name":"","type":"uint256","internalType":"uint256"}],"stateMutability":"view"},{"type":"function","name":"totalShares","inputs":[],"outputs":[{"name":"","type":"uint256","internalType":"uint256"}],"stateMutability":"view"},{"type":"function","name":"totalSupply","inputs":[],"outputs":[{"name":"","type":"uint256","internalType":"uint256"}],"stateMutability":"view"},{"type":"function","name":"transfer","inputs":[{"name":"to","type":"address","internalType":"address"},{"name":"amount","type":"uint256","internalType":"uint256"}],"outputs":[{"name":"","type":"bool","internalType":"bool"}],"stateMutability":"nonpayable"},{"type":"function","name":"transferFrom","inputs":[{"name":"from","type":"address","internalType":"address"},{"name":"to","type":"address","internalType":"address"},{"name":"amount","type":"uint256","internalType":"uint256"}],"outputs":[{"name":"","type":"bool","internalType":"bool"}],"stateMutability":"nonpayable"},{"type":"function","name":"transferShares","inputs":[{"name":"recipient_","type":"address","internalType":"address"},{"name":"shares_","type":"uint256","internalType":"uint256"}],"outputs":[{"name":"","type":"uint256","internalType":"uint256"}],"stateMutability":"nonpayable"},{"type":"function","name":"transferSharesFrom","inputs":[{"name":"sender_","type":"address","internalType":"address"},{"name":"recipient_","type":"address","internalType":"address"},{"name":"shares_","type":"uint256","internalType":"uint256"}],"outputs":[{"name":"","type":"uint256","internalType":"uint256"}],"stateMutability":"nonpayable"},{"type":"event","name":"Approval","inputs":[{"name":"owner","type":"address","indexed":true,"internalType":"address"},{"name":"spender","type":"address","indexed":true,"internalType":"address"},{"name":"value","type":"uint256","indexed":false,"internalType":"uint256"}],"anonymous":false},{"type":"event","name":"Initialized","inputs":[{"name":"version","type":"uint8","indexed":false,"internalType":"uint8"}],"anonymous":false},{"type":"event","name":"OzTokenMinted","inputs":[{"name":"owner","type":"address","indexed":false,"internalType":"address"},{"name":"shares","type":"uint256","indexed":false,"internalType":"uint256"},{"name":"assets","type":"uint256","indexed":false,"internalType":"uint256"}],"anonymous":false},{"type":"event","name":"OzTokenRedeemed","inputs":[{"name":"owner","type":"address","indexed":false,"internalType":"address"},{"name":"ozAmountIn","type":"uint256","indexed":false,"internalType":"uint256"},{"name":"shares","type":"uint256","indexed":false,"internalType":"uint256"},{"name":"assets","type":"uint256","indexed":false,"internalType":"uint256"}],"anonymous":false},{"type":"event","name":"Transfer","inputs":[{"name":"from","type":"address","indexed":true,"internalType":"address"},{"name":"to","type":"address","indexed":true,"internalType":"address"},{"name":"value","type":"uint256","indexed":false,"internalType":"uint256"}],"anonymous":false},{"type":"event","name":"TransferShares","inputs":[{"name":"from","type":"address","indexed":true,"internalType":"address"},{"name":"to","type":"address","indexed":true,"internalType":"address"},{"name":"sharesAmoutn","type":"uint256","indexed":false,"internalType":"uint256"}],"anonymous":false},{"type":"error","name":"OZError03","inputs":[]},{"type":"error","name":"OZError04","inputs":[{"name":"from","type":"address","internalType":"address"},{"name":"to","type":"address","internalType":"address"}]},{"type":"error","name":"OZError05","inputs":[{"name":"amount","type":"uint256","internalType":"uint256"}]},{"type":"error","name":"OZError06","inputs":[{"name":"sender","type":"address","internalType":"address"},{"name":"accountShares","type":"uint256","internalType":"uint256"},{"name":"shares","type":"uint256","internalType":"uint256"}]},{"type":"error","name":"OZError07","inputs":[{"name":"from","type":"address","internalType":"address"},{"name":"fromShares","type":"uint256","internalType":"uint256"},{"name":"shares","type":"uint256","internalType":"uint256"}]},{"type":"error","name":"OZError08","inputs":[{"name":"deadline","type":"uint256","internalType":"uint256"},{"name":"blockTimestamp","type":"uint256","internalType":"uint256"}]},{"type":"error","name":"OZError09","inputs":[{"name":"owner","type":"address","internalType":"address"},{"name":"spender","type":"address","internalType":"address"}]},{"type":"error","name":"OZError22","inputs":[{"name":"reason","type":"string","internalType":"string"}]},{"type":"error","name":"OZError35","inputs":[{"name":"ozAmountIn","type":"uint256","internalType":"uint256"}]},{"type":"error","name":"OZError37","inputs":[]},{"type":"error","name":"OZError38","inputs":[]},{"type":"error","name":"OZError39","inputs":[{"name":"data","type":"bytes","internalType":"bytes"}]},{"type":"error","name":"OZError42","inputs":[]},{"type":"error","name":"OZError43","inputs":[]}],"bytecode":{"object":"0x608060405234801562000010575f80fd5b506200001b62000021565b620000e3565b603454610100900460ff16156200008e5760405162461bcd60e51b815260206004820152602760248201527f496e697469616c697a61626c653a20636f6e747261637420697320696e697469604482015266616c697a696e6760c81b606482015260840160405180910390fd5b60345460ff9081161015620000e1576034805460ff191660ff9081179091556040519081527f7f26b83ff96e1f2b6a682f133852f6798a09c465da95921460cefb38474024989060200160405180910390a15b565b6129c780620000f15f395ff3fe608060405260043610610206575f3560e01c806370a0823111610113578063a9059cbb1161009d578063cd3daf9d1161006d578063cd3daf9d146104b4578063d295fa9a1461056b578063d505accf1461058a578063dd62ed3e146105a9578063f5eb42dc146105c8575f80fd5b8063a9059cbb1461052d578063b88a802f146104b4578063bc93f1cf1461054c578063cc1a378f146103d0575f80fd5b806380faa57d116100e357806380faa57d146104b45780638fcb4e5b146104c657806395d89b41146104e5578063a01c8774146104f9578063a457c2d71461050e575f80fd5b806370a082311461042b5780637b0446371461044a5780637d098e641461045d5780637ecebe0014610495575f80fd5b806323b872dd116101945780633950935111610164578063395093511461039d5780633a98ef39146103bc5780633c6b16ab146103d057806369e41c62146103ed5780636d7804591461040c575f80fd5b806323b872dd14610328578063313ce567146103475780633644e5151461036257806338d52e0f14610376575f80fd5b80630ba097d6116101da5780630ba097d6146102a05780630cae37f1146102bf57806318160ddd146102d45780631dc7f521146102e85780632016a0d214610307575f80fd5b80628cc2621461020a57806301e1d1141461023c57806306fdde0314610250578063095ea7b314610271575b5f80fd5b348015610215575f80fd5b50610229610224366004611fe9565b505f90565b6040519081526020015b60405180910390f35b348015610247575f80fd5b506102296105fc565b34801561025b575f80fd5b50610264610610565b6040516102339190612047565b34801561027c575f80fd5b5061029061028b366004612059565b6106a0565b6040519015158152602001610233565b3480156102ab575f80fd5b506102296102ba36600461215a565b6106b6565b6102296102cd36600461215a565b5f92915050565b3480156102df575f80fd5b50610229610a8f565b3480156102f3575f80fd5b506102296103023660046121a9565b610af1565b348015610312575f80fd5b506103266103213660046121c0565b610b7e565b005b348015610333575f80fd5b50610290610342366004612244565b610d7a565b348015610352575f80fd5b5060405160128152602001610233565b34801561036d575f80fd5b50610229610d9b565b348015610381575f80fd5b50606a546040516001600160a01b039091168152602001610233565b3480156103a8575f80fd5b506102906103b7366004612059565b610da4565b3480156103c7575f80fd5b50610229610dc4565b3480156103db575f80fd5b506103266103ea3660046121a9565b50565b3480156103f8575f80fd5b506102296104073660046121a9565b610dd4565b348015610417575f80fd5b50610229610426366004612244565b610df0565b348015610436575f80fd5b50610229610445366004611fe9565b610e2b565b610229610458366004612282565b610e56565b348015610468575f80fd5b50604080515f8082526020820181905291810182905260608101829052608081019190915260a001610233565b3480156104a0575f80fd5b506102296104af366004611fe9565b611163565b3480156104bf575f80fd5b505f610229565b3480156104d1575f80fd5b506102296104e0366004612059565b611180565b3480156104f0575f80fd5b506102646111af565b348015610504575f80fd5b5061022960715481565b348015610519575f80fd5b50610290610528366004612059565b6111be565b348015610538575f80fd5b50610290610547366004612059565b6111fa565b348015610557575f80fd5b506102296105663660046122e6565b611206565b348015610576575f80fd5b506102296105853660046122e6565b611253565b348015610595575f80fd5b506103266105a4366004612317565b6112ff565b3480156105b4575f80fd5b506102296105c3366004612383565b61141e565b3480156105d3575f80fd5b506102296105e2366004611fe9565b6001600160a01b03165f908152606c602052604090205490565b606b545f9061060b9082611448565b905090565b6060606f805461061f906123af565b80601f016020809104026020016040519081016040528092919081815260200182805461064b906123af565b80156106965780601f1061066d57610100808354040283529160200191610696565b820191905f5260205f20905b81548152906001019060200180831161067957829003601f168201915b5050505050905090565b5f6106ac33848461148a565b5060015b92915050565b5f7fd979d933a329cda0d1d95e3d7a8aaccfc305f1200c53a87f37e6841bb793452c805c156106f85760405163b955425560e01b815260048101604052600481fd5b6001815d60695483906001600160a01b0316801561076a576040516241fec360e31b81526001600160a01b03838116600483015282169063020ff618906024015f604051808303815f87803b15801561074f575f80fd5b505af1158015610761573d5f803e3d5ffd5b505050506107ab565b5f601a555f6018556001600160a01b038216156107ab576001600160a01b0382165f908152601e60209081526040808320839055601a54601d909252909120555b8551610100146107d9578560405163041979eb60e41b81526004016107d09190612047565b60405180910390fd5b5f80878060200190518101906107ef91906123f1565b815191935091506001600160a01b038816158061081357506001600160a01b038216155b1561083157604051632534b66960e21b815260040160405180910390fd5b6729a2241af62c000081101561085d57604051631a98558360e21b8152600481018290526024016107d0565b6001600160a01b0388165f908152606c602052604081205490610880838b611253565b9050808210156108a957898282604051637ac073bf60e01b81526004016107d0939291906124ea565b5f81905060695f9054906101000a90046001600160a01b03166001600160a01b031663a1b86b388c8e6040518363ffffffff1660e01b81526004016108ef92919061250b565b60408051808303815f875af1925050508015610928575060408051601f3d908101601f191682019092526109259181019061252e565b60015b61097857610934612550565b806308c379a00361096e5750610948612569565b806109535750610970565b80604051631bc63b8160e01b81526004016107d09190612047565b505b3d5f803e3d5ffd5b610983825f80611538565b6069546001600160a01b03165f908152606c602052604090205494506109aa83865f6115ab565b5f606c5f60695f9054906101000a90046001600160a01b03166001600160a01b03166001600160a01b031681526020019081526020015f20819055508260725f8f6001600160a01b03166001600160a01b031681526020019081526020015f205f82825403925050819055507f4181bb2dd7cb8bbe372dc317652857a2e512544faeba7c902b5e80107831732b8d878686604051610a6c94939291906001600160a01b0394909416845260208401929092526040830152606082015260800190565b60405180910390a19a50610a839650505050505050565b50505f815d5092915050565b5f610a98610dc4565b156102245761060b610aec610ac2610aae6105fc565b610abd9064e8d4a51000612606565b611607565b610ad4610acd610dc4565b600161161e565b610ae5610adf610dc4565b5f61161e565b91906116cf565b6117e5565b5f610afa610dc4565b60695460405163a4fc284b60e01b81526001600160a01b039091169063a4fc284b90610b2b9060019060040161264d565b602060405180830381865afa158015610b46573d5f803e3d5ffd5b505050506040513d601f19601f82011682018060405250810190610b6a9190612660565b610b749084612606565b6106b0919061268b565b603454610100900460ff1615808015610b9e5750603454600160ff909116105b80610bb85750303b158015610bb8575060345460ff166001145b610c1b5760405162461bcd60e51b815260206004820152602e60248201527f496e697469616c697a61626c653a20636f6e747261637420697320616c72656160448201526d191e481a5b9a5d1a585b1a5e995960921b60648201526084016107d0565b6034805460ff191660011790558015610c3e576034805461ff0019166101001790555b606f610c4a84826126e7565b506070610c5783826126e7565b50606980546001600160a01b038087166001600160a01b031992831617909255606a8054928816929091169190911790556040805180820190915260018152603160f81b6020820152610cab9084906117fc565b846001600160a01b031663313ce5676040518163ffffffff1660e01b8152600401602060405180830381865afa158015610ce7573d5f803e3d5ffd5b505050506040513d601f19601f82011682018060405250810190610d0b91906127a7565b60ff16601214610d1c576001610d23565b64e8d4a510005b64ffffffffff166071558015610d73576034805461ff0019169055604051600181527f7f26b83ff96e1f2b6a682f133852f6798a09c465da95921460cefb38474024989060200160405180910390a15b5050505050565b5f610d86843384611831565b610d9184848461187d565b5060019392505050565b5f61060b611985565b5f6106ac338484610db5338861141e565b610dbf91906127c2565b61148a565b606b545f9061060b906001611448565b5f6106b0610de0610dc4565b610de8610a8f565b8491906119fe565b5f80610dff610aec8487611206565b9050610e0c853383611831565b610e17858585611a21565b610e2385858386611b09565b949350505050565b5f6106b0610aec610e50846001600160a01b03165f908152606c602052604090205490565b84611206565b5f7fd979d933a329cda0d1d95e3d7a8aaccfc305f1200c53a87f37e6841bb793452c805c15610e985760405163b955425560e01b815260048101604052600481fd5b6001815d60695484906001600160a01b03168015610f0a576040516241fec360e31b81526001600160a01b03838116600483015282169063020ff618906024015f604051808303815f87803b158015610eef575f80fd5b505af1158015610f01573d5f803e3d5ffd5b50505050610f4b565b5f601a555f6018556001600160a01b03821615610f4b576001600160a01b0382165f908152601e60209081526040808320839055601a54601d909252909120555b5f8088806020019051810190610f6191906127d5565b915091508615610f8f5734826020015114610f8f57604051631008b85760e11b815260040160405180910390fd5b81511580610f9f57506020820151155b15610fbd5760405163e5da5c7360e01b815260040160405180910390fd5b6001600160a01b0388161580610fda57506001600160a01b038116155b15610ff857604051632534b66960e21b815260040160405180910390fd5b60715482515f916110099190611ba9565b6069549091506001600160a01b03166355dae15c34611030606a546001600160a01b031690565b604080516001600160e01b031960e086901b1681526001600160a01b039283166004820152918e166024830152875160448301526020880151606483015287015160848201528b151560a482015260c401604080518083038185885af1935050505080156110bb575060408051601f3d908101601f191682019092526110b89181019061252e565b60015b6110c757610934612550565b6110d382826001611538565b826110e0818060016115ab565b6001600160a01b0385165f908152606c60209081526040808320805485019055607290915290819020805486019055517fcb7696223ea9f009e8eb0ecd9af1e430306b6c7c719e906d4a4af52bcba6353a90611141908e90849088906124ea565b60405180910390a19850611156945050505050565b50505f815d509392505050565b6001600160a01b0381165f908152606d60205260408120546106b0565b5f8061118f610aec8433611206565b905061119c338585611a21565b6111a833858386611b09565b9392505050565b60606070805461061f906123af565b5f806111ca338561141e565b9050828110156111ed576040516361ceb1d360e01b815260040160405180910390fd5b610d91338585840361148a565b5f6106ac33848461187d565b5f80611212845f61161e565b9050801561124a5761124561122684611bb4565b61123d6b033b2e3c9fd0803ce80000006002611c1b565b8391906116cf565b610e23565b5f949350505050565b5f806112676069546001600160a01b031690565b6001600160a01b0316633154b6e25f806040518363ffffffff1660e01b815260040161129492919061282b565b602060405180830381865afa1580156112af573d5f803e3d5ffd5b505050506040513d601f19601f820116820180604052508101906112d39190612660565b9050610e236112e184611bb4565b6112f96112ef610abd610dc4565b84610ae589611607565b90611c26565b834211156113295760405163184f1e0160e11b8152600481018590524260248201526044016107d0565b5f7f6e71edae12b1b97f4d1f60370fef10105fa2faae0126114a169c64845d6126c98888886113578c611c61565b6040805160208101969096526001600160a01b0394851690860152929091166060840152608083015260a082015260c0810186905260e0016040516020818303038152906040528051906020012090505f6113b182611c88565b90505f6113c082878787611cd4565b9050896001600160a01b0316816001600160a01b03161461140757604051635091bef560e01b81526001600160a01b0380831660048301528b1660248201526044016107d0565b6114128a8a8a61148a565b50505050505050505050565b6001600160a01b039182165f908152606e6020908152604080832093909416825291909152205490565b5f6fffffffffffffffffffffffffffffffff8183600181111561146d5761146d61261d565b1461147a57838116610e23565b608084901c811691505092915050565b6001600160a01b03831615806114a757506001600160a01b038216155b156114d857604051637db368a160e01b81526001600160a01b038085166004830152831660248201526044016107d0565b6001600160a01b038381165f818152606e602090815260408083209487168084529482529182902085905590518481527f8c5be1e5ebec7d5bd14f71427d1e84f3dd0314c0f7b2291e5b200ac8c7c3b925910160405180910390a3505050565b60695460405163db185e8960e01b8152306004820152602481018590526044810184905282151560648201526001600160a01b039091169063db185e89906084015f604051808303815f87803b158015611590575f80fd5b505af11580156115a2573d5f803e3d5ffd5b50505050505050565b606b545f906115ba9082611448565b90505f6115d36001606b5461144890919063ffffffff16565b905082156115e6579084019083016115ef565b90849003908390035b6115fd81608084901b6127c2565b606b555050505050565b5f6106b0826b033b2e3c9fd0803ce8000000612606565b5f806116a16116356069546001600160a01b031690565b6001600160a01b0316633154b6e25f866040518363ffffffff1660e01b815260040161166292919061282b565b602060405180830381865afa15801561167d573d5f803e3d5ffd5b505050506040513d601f19601f82011682018060405250810190610abd9190612660565b9050610e23816116af610dc4565b156116c4576116bf610abd610dc4565b6116c6565b825b610ae587611607565b604051633f9b43b760e11b815260048101849052602481018390525f908490849084908490819073__$a7d7f0af96ad7248e2170a1364c3372171$__90637f36876e906044016040805180830381865af415801561172f573d5f803e3d5ffd5b505050506040513d601f19601f82011682018060405250810190611753919061252e565b6040516399ed504f60e01b8152600481018390526024810182905260448101869052919350915073__$a7d7f0af96ad7248e2170a1364c3372171$__906399ed504f90606401602060405180830381865af41580156117b4573d5f803e3d5ffd5b505050506040513d601f19601f820116820180604052508101906117d89190612660565b9998505050505050505050565b5f6106b06b033b2e3c9fd0803ce80000008361268b565b603454610100900460ff166118235760405162461bcd60e51b81526004016107d090612848565b61182d8282611cfa565b5050565b5f61183c848461141e565b90505f198114611877578181101561186a576040516306052b7f60e01b8152600481018390526024016107d0565b611877848484840361148a565b50505050565b6001600160a01b038316158061189a57506001600160a01b038216155b156118cb57604051637db368a160e01b81526001600160a01b038085166004830152831660248201526044016107d0565b5f6118d582610dd4565b6001600160a01b0385165f908152606c602052604090205490915081811015611917578481836040516315c29bad60e31b81526004016107d0939291906124ea565b6001600160a01b038086165f818152606c602052604080822086860390559287168082529083902080548601905591517fddf252ad1be2c89b69c2b068fc378daa952ba7f163c4a11628f55a4df523b3ef906119769087815260200190565b60405180910390a35050505050565b5f61060b7f8b73c3c69bb8fe3d512ecc4cf759cc79239f7b179b0ffacaa9a75d522b39400f6119b360355490565b6036546040805160208101859052908101839052606081018290524660808201523060a08201525f9060c0016040516020818303038152906040528051906020012090509392505050565b5f825f190484118302158202611a12575f80fd5b50910281810615159190040190565b6001600160a01b0383161580611a3e57506001600160a01b038216155b15611a6f57604051637db368a160e01b81526001600160a01b038085166004830152831660248201526044016107d0565b306001600160a01b03831603611a9857604051636d3bb4b960e11b815260040160405180910390fd5b6001600160a01b0383165f908152606c602052604090205480821115611ad7578381836040516315c29bad60e31b81526004016107d0939291906124ea565b6001600160a01b039384165f908152606c60205260408082209284900390925592909316825291902080549091019055565b826001600160a01b0316846001600160a01b03167fddf252ad1be2c89b69c2b068fc378daa952ba7f163c4a11628f55a4df523b3ef84604051611b4e91815260200190565b60405180910390a3826001600160a01b0316846001600160a01b03167f9d9c909296d9c674451c0c24f02cb64981eb3b727f99865939192f880a755dcb83604051611b9b91815260200190565b60405180910390a350505050565b5f6111a8828461268b565b5f6106b0611bcf6b033b2e3c9fd0803ce80000006002611c1b565b611bf0610acd856001600160a01b03165f908152606c602052604090205490565b6001600160a01b0385165f908152606c6020526040902054610ae590610abd9064e8d4a51000612606565b5f6111a88284612973565b5f8282611c33818361297e565b15611c3f576001611c41565b5f5b60ff16611c4e828461268b565b611c5891906127c2565b95945050505050565b6001600160a01b0381165f908152606d602052604090208054600181018255905b50919050565b5f6106b0611c94611985565b8360405161190160f01b602082015260228101839052604281018290525f9060620160405160208183030381529060405280519060200120905092915050565b5f805f611ce387878787611d3b565b91509150611cf081611e20565b5095945050505050565b603454610100900460ff16611d215760405162461bcd60e51b81526004016107d090612848565b815160209283012081519190920120603591909155603655565b5f807f7fffffffffffffffffffffffffffffff5d576e7357a4501ddfe92f46681b20a0831115611d7057505f90506003611e17565b8460ff16601b14158015611d8857508460ff16601c14155b15611d9857505f90506004611e17565b604080515f8082526020820180845289905260ff881692820192909252606081018690526080810185905260019060a0016020604051602081039080840390855afa158015611de9573d5f803e3d5ffd5b5050604051601f1901519150506001600160a01b038116611e11575f60019250925050611e17565b91505f90505b94509492505050565b5f816004811115611e3357611e3361261d565b03611e3b5750565b6001816004811115611e4f57611e4f61261d565b03611e9c5760405162461bcd60e51b815260206004820152601860248201527f45434453413a20696e76616c6964207369676e6174757265000000000000000060448201526064016107d0565b6002816004811115611eb057611eb061261d565b03611efd5760405162461bcd60e51b815260206004820152601f60248201527f45434453413a20696e76616c6964207369676e6174757265206c656e6774680060448201526064016107d0565b6003816004811115611f1157611f1161261d565b03611f695760405162461bcd60e51b815260206004820152602260248201527f45434453413a20696e76616c6964207369676e6174757265202773272076616c604482015261756560f01b60648201526084016107d0565b6004816004811115611f7d57611f7d61261d565b036103ea5760405162461bcd60e51b815260206004820152602260248201527f45434453413a20696e76616c6964207369676e6174757265202776272076616c604482015261756560f01b60648201526084016107d0565b6001600160a01b03811681146103ea575f80fd5b5f60208284031215611ff9575f80fd5b81356111a881611fd5565b5f81518084525f5b818110156120285760208185018101518683018201520161200c565b505f602082860101526020601f19601f83011685010191505092915050565b602081525f6111a86020830184612004565b5f806040838503121561206a575f80fd5b823561207581611fd5565b946020939093013593505050565b634e487b7160e01b5f52604160045260245ffd5b6060810181811067ffffffffffffffff821117156120b7576120b7612083565b60405250565b601f8201601f1916810167ffffffffffffffff811182821017156120e3576120e3612083565b6040525050565b5f82601f8301126120f9575f80fd5b813567ffffffffffffffff81111561211357612113612083565b60405161212a601f8301601f1916602001826120bd565b81815284602083860101111561213e575f80fd5b816020850160208301375f918101602001919091529392505050565b5f806040838503121561216b575f80fd5b823567ffffffffffffffff811115612181575f80fd5b61218d858286016120ea565b925050602083013561219e81611fd5565b809150509250929050565b5f602082840312156121b9575f80fd5b5035919050565b5f805f80608085870312156121d3575f80fd5b84356121de81611fd5565b935060208501356121ee81611fd5565b9250604085013567ffffffffffffffff8082111561220a575f80fd5b612216888389016120ea565b9350606087013591508082111561222b575f80fd5b50612238878288016120ea565b91505092959194509250565b5f805f60608486031215612256575f80fd5b833561226181611fd5565b9250602084013561227181611fd5565b929592945050506040919091013590565b5f805f60608486031215612294575f80fd5b833567ffffffffffffffff8111156122aa575f80fd5b6122b6868287016120ea565b93505060208401356122c781611fd5565b9150604084013580151581146122db575f80fd5b809150509250925092565b5f80604083850312156122f7575f80fd5b82359150602083013561219e81611fd5565b60ff811681146103ea575f80fd5b5f805f805f805f60e0888a03121561232d575f80fd5b873561233881611fd5565b9650602088013561234881611fd5565b95506040880135945060608801359350608088013561236681612309565b9699959850939692959460a0840135945060c09093013592915050565b5f8060408385031215612394575f80fd5b823561239f81611fd5565b9150602083013561219e81611fd5565b600181811c908216806123c357607f821691505b602082108103611c8257634e487b7160e01b5f52602260045260245ffd5b80516123ec81611fd5565b919050565b5f8060408385031215612402575f80fd5b825167ffffffffffffffff80821115612419575f80fd5b908401906060828703121561242c575f80fd5b60405161243881612097565b8251815260208084015181830152604084015183811115612457575f80fd5b80850194505087601f85011261246b575f80fd5b83518381111561247d5761247d612083565b8060051b9350604051612492838601826120bd565b8181529385018201938281018a8611156124aa575f80fd5b958301955b858710156124c657865181529583019583016124af565b5080604085015250508195506124dd8188016123e1565b9450505050509250929050565b6001600160a01b039390931683526020830191909152604082015260600190565b6001600160a01b03831681526040602082018190525f90610e2390830184612004565b5f806040838503121561253f575f80fd5b505080516020909101519092909150565b5f60033d11156125665760045f803e505f5160e01c5b90565b5f60443d10156125765790565b6040516003193d81016004833e81513d67ffffffffffffffff81602484011181841117156125a657505050505090565b82850191508151818111156125be5750505050505090565b843d87010160208285010111156125d85750505050505090565b6125e7602082860101876120bd565b509095945050505050565b634e487b7160e01b5f52601160045260245ffd5b80820281158282048414176106b0576106b06125f2565b634e487b7160e01b5f52602160045260245ffd5b600281106103ea57634e487b7160e01b5f52602160045260245ffd5b6020810161265a83612631565b91905290565b5f60208284031215612670575f80fd5b5051919050565b634e487b7160e01b5f52601260045260245ffd5b5f8261269957612699612677565b500490565b601f8211156126e257805f5260205f20601f840160051c810160208510156126c35750805b601f840160051c820191505b81811015610d73575f81556001016126cf565b505050565b815167ffffffffffffffff81111561270157612701612083565b6127158161270f84546123af565b8461269e565b602080601f831160018114612748575f84156127315750858301515b5f19600386901b1c1916600185901b17855561279f565b5f85815260208120601f198616915b8281101561277657888601518255948401946001909101908401612757565b508582101561279357878501515f19600388901b60f8161c191681555b505060018460011b0185555b505050505050565b5f602082840312156127b7575f80fd5b81516111a881612309565b808201808211156106b0576106b06125f2565b5f8082840360808112156127e7575f80fd5b60608112156127f4575f80fd5b5060405161280181612097565b83518152602084015160208201526040840151604082015280925050606083015161219e81611fd5565b8281526040810161283b83612631565b8260208301529392505050565b6020808252602b908201527f496e697469616c697a61626c653a20636f6e7472616374206973206e6f74206960408201526a6e697469616c697a696e6760a81b606082015260800190565b600181815b808511156128cd57815f19048211156128b3576128b36125f2565b808516156128c057918102915b93841c9390800290612898565b509250929050565b5f826128e3575060016106b0565b816128ef57505f6106b0565b8160018114612905576002811461290f5761292b565b60019150506106b0565b60ff841115612920576129206125f2565b50506001821b6106b0565b5060208310610133831016604e8410600b841016171561294e575081810a6106b0565b6129588383612893565b805f190482111561296b5761296b6125f2565b029392505050565b5f6111a883836128d5565b5f8261298c5761298c612677565b50069056fea264697066735822122016e0cb377467dd627ab6f92a47e622e23a21f11f5302edc267b86eb6ac63eeb064736f6c63430008180033","linkReferences":{"contracts/libraries/Uint512.sol":{"Uint512":[{"start":6121,"length":20},{"start":6253,"length":20}]}}},"methodIdentifiers":{"DOMAIN_SEPARATOR()":"3644e515","FORMAT_DECIMALS()":"a01c8774","allowance(address,address)":"dd62ed3e","approve(address,uint256)":"095ea7b3","asset()":"38d52e0f","balanceOf(address)":"70a08231","claimReward()":"b88a802f","convertToOzTokens(uint256,address)":"bc93f1cf","convertToShares(uint256,address)":"d295fa9a","convertToSharesFromOzBalance(uint256)":"69e41c62","convertToUnderlying(uint256)":"1dc7f521","decimals()":"313ce567","decreaseAllowance(address,uint256)":"a457c2d7","earned(address)":"008cc262","getRewardsData()":"7d098e64","increaseAllowance(address,uint256)":"39509351","initialize(address,address,string,string)":"2016a0d2","lastTimeRewardApplicable()":"80faa57d","mint(bytes,address)":"0cae37f1","mint2(bytes,address,bool)":"7b044637","name()":"06fdde03","nonces(address)":"7ecebe00","notifyRewardAmount(uint256)":"3c6b16ab","permit(address,address,uint256,uint256,uint8,bytes32,bytes32)":"d505accf","redeem(bytes,address)":"0ba097d6","rewardPerToken()":"cd3daf9d","setRewardsDuration(uint256)":"cc1a378f","sharesOf(address)":"f5eb42dc","symbol()":"95d89b41","totalAssets()":"01e1d114","totalShares()":"3a98ef39","totalSupply()":"18160ddd","transfer(address,uint256)":"a9059cbb","transferFrom(address,address,uint256)":"23b872dd","transferShares(address,uint256)":"8fcb4e5b","transferSharesFrom(address,address,uint256)":"6d780459"},"id":45}