{
  "abi": [
    {
      "inputs": [],
      "stateMutability": "nonpayable",
      "type": "constructor"
    },
    {
      "inputs": [],
      "name": "OZError03",
      "type": "error"
    },
    {
      "inputs": [
        {
          "internalType": "address",
          "name": "from",
          "type": "address"
        },
        {
          "internalType": "address",
          "name": "to",
          "type": "address"
        }
      ],
      "name": "OZError04",
      "type": "error"
    },
    {
      "inputs": [
        {
          "internalType": "uint256",
          "name": "amount",
          "type": "uint256"
        }
      ],
      "name": "OZError05",
      "type": "error"
    },
    {
      "inputs": [
        {
          "internalType": "address",
          "name": "sender",
          "type": "address"
        },
        {
          "internalType": "uint256",
          "name": "accountShares",
          "type": "uint256"
        },
        {
          "internalType": "uint256",
          "name": "shares",
          "type": "uint256"
        }
      ],
      "name": "OZError06",
      "type": "error"
    },
    {
      "inputs": [
        {
          "internalType": "address",
          "name": "from",
          "type": "address"
        },
        {
          "internalType": "uint256",
          "name": "fromShares",
          "type": "uint256"
        },
        {
          "internalType": "uint256",
          "name": "shares",
          "type": "uint256"
        }
      ],
      "name": "OZError07",
      "type": "error"
    },
    {
      "inputs": [
        {
          "internalType": "uint256",
          "name": "deadline",
          "type": "uint256"
        },
        {
          "internalType": "uint256",
          "name": "blockTimestamp",
          "type": "uint256"
        }
      ],
      "name": "OZError08",
      "type": "error"
    },
    {
      "inputs": [
        {
          "internalType": "address",
          "name": "owner",
          "type": "address"
        },
        {
          "internalType": "address",
          "name": "spender",
          "type": "address"
        }
      ],
      "name": "OZError09",
      "type": "error"
    },
    {
      "inputs": [
        {
          "internalType": "string",
          "name": "reason",
          "type": "string"
        }
      ],
      "name": "OZError22",
      "type": "error"
    },
    {
      "anonymous": false,
      "inputs": [
        {
          "indexed": true,
          "internalType": "address",
          "name": "owner",
          "type": "address"
        },
        {
          "indexed": true,
          "internalType": "address",
          "name": "spender",
          "type": "address"
        },
        {
          "indexed": false,
          "internalType": "uint256",
          "name": "value",
          "type": "uint256"
        }
      ],
      "name": "Approval",
      "type": "event"
    },
    {
      "anonymous": false,
      "inputs": [
        {
          "indexed": false,
          "internalType": "uint8",
          "name": "version",
          "type": "uint8"
        }
      ],
      "name": "Initialized",
      "type": "event"
    },
    {
      "anonymous": false,
      "inputs": [
        {
          "indexed": true,
          "internalType": "address",
          "name": "from",
          "type": "address"
        },
        {
          "indexed": true,
          "internalType": "address",
          "name": "to",
          "type": "address"
        },
        {
          "indexed": false,
          "internalType": "uint256",
          "name": "value",
          "type": "uint256"
        }
      ],
      "name": "Transfer",
      "type": "event"
    },
    {
      "inputs": [],
      "name": "DOMAIN_SEPARATOR",
      "outputs": [
        {
          "internalType": "bytes32",
          "name": "",
          "type": "bytes32"
        }
      ],
      "stateMutability": "view",
      "type": "function"
    },
    {
      "inputs": [],
      "name": "FORMAT_DECIMALS",
      "outputs": [
        {
          "internalType": "uint256",
          "name": "",
          "type": "uint256"
        }
      ],
      "stateMutability": "view",
      "type": "function"
    },
    {
      "inputs": [
        {
          "internalType": "uint256",
          "name": "shares_",
          "type": "uint256"
        }
      ],
      "name": "_convertToAssetsFromUnderlying",
      "outputs": [
        {
          "internalType": "uint256",
          "name": "",
          "type": "uint256"
        }
      ],
      "stateMutability": "view",
      "type": "function"
    },
    {
      "inputs": [
        {
          "internalType": "address",
          "name": "owner",
          "type": "address"
        },
        {
          "internalType": "address",
          "name": "spender",
          "type": "address"
        }
      ],
      "name": "allowance",
      "outputs": [
        {
          "internalType": "uint256",
          "name": "",
          "type": "uint256"
        }
      ],
      "stateMutability": "view",
      "type": "function"
    },
    {
      "inputs": [
        {
          "internalType": "address",
          "name": "spender",
          "type": "address"
        },
        {
          "internalType": "uint256",
          "name": "amount",
          "type": "uint256"
        }
      ],
      "name": "approve",
      "outputs": [
        {
          "internalType": "bool",
          "name": "",
          "type": "bool"
        }
      ],
      "stateMutability": "nonpayable",
      "type": "function"
    },
    {
      "inputs": [],
      "name": "asset",
      "outputs": [
        {
          "internalType": "address",
          "name": "",
          "type": "address"
        }
      ],
      "stateMutability": "view",
      "type": "function"
    },
    {
      "inputs": [
        {
          "internalType": "address",
          "name": "account_",
          "type": "address"
        }
      ],
      "name": "balanceOf",
      "outputs": [
        {
          "internalType": "uint256",
          "name": "",
          "type": "uint256"
        }
      ],
      "stateMutability": "view",
      "type": "function"
    },
    {
      "inputs": [],
      "name": "claimReward",
      "outputs": [
        {
          "internalType": "uint256",
          "name": "",
          "type": "uint256"
        }
      ],
      "stateMutability": "nonpayable",
      "type": "function"
    },
    {
      "inputs": [
        {
          "internalType": "uint256",
          "name": "shares",
          "type": "uint256"
        },
        {
          "internalType": "address",
          "name": "account_",
          "type": "address"
        }
      ],
      "name": "convertToAssets",
      "outputs": [
        {
          "internalType": "uint256",
          "name": "assets",
          "type": "uint256"
        }
      ],
      "stateMutability": "view",
      "type": "function"
    },
    {
      "inputs": [
        {
          "internalType": "uint256",
          "name": "assets",
          "type": "uint256"
        }
      ],
      "name": "convertToShares",
      "outputs": [
        {
          "internalType": "uint256",
          "name": "shares",
          "type": "uint256"
        }
      ],
      "stateMutability": "view",
      "type": "function"
    },
    {
      "inputs": [
        {
          "internalType": "uint256",
          "name": "shares_",
          "type": "uint256"
        }
      ],
      "name": "convertToUnderlying",
      "outputs": [
        {
          "internalType": "uint256",
          "name": "",
          "type": "uint256"
        }
      ],
      "stateMutability": "view",
      "type": "function"
    },
    {
      "inputs": [],
      "name": "decimals",
      "outputs": [
        {
          "internalType": "uint8",
          "name": "",
          "type": "uint8"
        }
      ],
      "stateMutability": "pure",
      "type": "function"
    },
    {
      "inputs": [
        {
          "internalType": "address",
          "name": "spender",
          "type": "address"
        },
        {
          "internalType": "uint256",
          "name": "subtractedValue",
          "type": "uint256"
        }
      ],
      "name": "decreaseAllowance",
      "outputs": [
        {
          "internalType": "bool",
          "name": "",
          "type": "bool"
        }
      ],
      "stateMutability": "nonpayable",
      "type": "function"
    },
    {
      "inputs": [
        {
          "internalType": "address",
          "name": "user_",
          "type": "address"
        }
      ],
      "name": "earned",
      "outputs": [
        {
          "internalType": "uint256",
          "name": "",
          "type": "uint256"
        }
      ],
      "stateMutability": "view",
      "type": "function"
    },
    {
      "inputs": [],
      "name": "getRewardsData",
      "outputs": [
        {
          "internalType": "uint256",
          "name": "rewardRate",
          "type": "uint256"
        },
        {
          "internalType": "uint256",
          "name": "circulatingSupply",
          "type": "uint256"
        },
        {
          "internalType": "uint256",
          "name": "pendingAllocation",
          "type": "uint256"
        },
        {
          "internalType": "uint256",
          "name": "recicledSupply",
          "type": "uint256"
        },
        {
          "internalType": "int256",
          "name": "durationLeft",
          "type": "int256"
        }
      ],
      "stateMutability": "view",
      "type": "function"
    },
    {
      "inputs": [
        {
          "internalType": "address",
          "name": "spender",
          "type": "address"
        },
        {
          "internalType": "uint256",
          "name": "addedValue",
          "type": "uint256"
        }
      ],
      "name": "increaseAllowance",
      "outputs": [
        {
          "internalType": "bool",
          "name": "",
          "type": "bool"
        }
      ],
      "stateMutability": "nonpayable",
      "type": "function"
    },
    {
      "inputs": [
        {
          "internalType": "address",
          "name": "underlying_",
          "type": "address"
        },
        {
          "internalType": "address",
          "name": "diamond_",
          "type": "address"
        },
        {
          "internalType": "string",
          "name": "name_",
          "type": "string"
        },
        {
          "internalType": "string",
          "name": "symbol_",
          "type": "string"
        }
      ],
      "name": "initialize",
      "outputs": [],
      "stateMutability": "nonpayable",
      "type": "function"
    },
    {
      "inputs": [],
      "name": "lastTimeRewardApplicable",
      "outputs": [
        {
          "internalType": "uint256",
          "name": "",
          "type": "uint256"
        }
      ],
      "stateMutability": "view",
      "type": "function"
    },
    {
      "inputs": [
        {
          "internalType": "bytes",
          "name": "data_",
          "type": "bytes"
        },
        {
          "internalType": "address",
          "name": "owner_",
          "type": "address"
        }
      ],
      "name": "mint",
      "outputs": [
        {
          "internalType": "uint256",
          "name": "",
          "type": "uint256"
        }
      ],
      "stateMutability": "nonpayable",
      "type": "function"
    },
    {
      "inputs": [],
      "name": "name",
      "outputs": [
        {
          "internalType": "string",
          "name": "",
          "type": "string"
        }
      ],
      "stateMutability": "view",
      "type": "function"
    },
    {
      "inputs": [
        {
          "internalType": "address",
          "name": "owner",
          "type": "address"
        }
      ],
      "name": "nonces",
      "outputs": [
        {
          "internalType": "uint256",
          "name": "",
          "type": "uint256"
        }
      ],
      "stateMutability": "view",
      "type": "function"
    },
    {
      "inputs": [
        {
          "internalType": "uint256",
          "name": "amount_",
          "type": "uint256"
        }
      ],
      "name": "notifyRewardAmount",
      "outputs": [],
      "stateMutability": "nonpayable",
      "type": "function"
    },
    {
      "inputs": [
        {
          "internalType": "address",
          "name": "owner",
          "type": "address"
        },
        {
          "internalType": "address",
          "name": "spender",
          "type": "address"
        },
        {
          "internalType": "uint256",
          "name": "value",
          "type": "uint256"
        },
        {
          "internalType": "uint256",
          "name": "deadline",
          "type": "uint256"
        },
        {
          "internalType": "uint8",
          "name": "v",
          "type": "uint8"
        },
        {
          "internalType": "bytes32",
          "name": "r",
          "type": "bytes32"
        },
        {
          "internalType": "bytes32",
          "name": "s_",
          "type": "bytes32"
        }
      ],
      "name": "permit",
      "outputs": [],
      "stateMutability": "nonpayable",
      "type": "function"
    },
    {
      "inputs": [
        {
          "internalType": "uint256",
          "name": "assets_",
          "type": "uint256"
        }
      ],
      "name": "previewMint",
      "outputs": [
        {
          "internalType": "uint256",
          "name": "",
          "type": "uint256"
        }
      ],
      "stateMutability": "view",
      "type": "function"
    },
    {
      "inputs": [
        {
          "internalType": "uint256",
          "name": "shares_",
          "type": "uint256"
        }
      ],
      "name": "previewRedeem",
      "outputs": [
        {
          "internalType": "uint256",
          "name": "",
          "type": "uint256"
        }
      ],
      "stateMutability": "view",
      "type": "function"
    },
    {
      "inputs": [
        {
          "internalType": "uint256",
          "name": "assets",
          "type": "uint256"
        }
      ],
      "name": "previewWithdraw",
      "outputs": [
        {
          "internalType": "uint256",
          "name": "",
          "type": "uint256"
        }
      ],
      "stateMutability": "view",
      "type": "function"
    },
    {
      "inputs": [
        {
          "internalType": "bytes",
          "name": "data_",
          "type": "bytes"
        },
        {
          "internalType": "address",
          "name": "owner_",
          "type": "address"
        }
      ],
      "name": "redeem",
      "outputs": [
        {
          "internalType": "uint256",
          "name": "",
          "type": "uint256"
        }
      ],
      "stateMutability": "nonpayable",
      "type": "function"
    },
    {
      "inputs": [],
      "name": "rewardPerToken",
      "outputs": [
        {
          "internalType": "uint256",
          "name": "",
          "type": "uint256"
        }
      ],
      "stateMutability": "view",
      "type": "function"
    },
    {
      "inputs": [
        {
          "internalType": "uint256",
          "name": "duration_",
          "type": "uint256"
        }
      ],
      "name": "setRewardsDuration",
      "outputs": [],
      "stateMutability": "nonpayable",
      "type": "function"
    },
    {
      "inputs": [
        {
          "internalType": "address",
          "name": "account_",
          "type": "address"
        }
      ],
      "name": "sharesOf",
      "outputs": [
        {
          "internalType": "uint256",
          "name": "",
          "type": "uint256"
        }
      ],
      "stateMutability": "view",
      "type": "function"
    },
    {
      "inputs": [
        {
          "internalType": "address",
          "name": "account_",
          "type": "address"
        }
      ],
      "name": "subBalanceOf",
      "outputs": [
        {
          "internalType": "uint256",
          "name": "",
          "type": "uint256"
        }
      ],
      "stateMutability": "view",
      "type": "function"
    },
    {
      "inputs": [
        {
          "internalType": "uint256",
          "name": "assets",
          "type": "uint256"
        },
        {
          "internalType": "address",
          "name": "account_",
          "type": "address"
        }
      ],
      "name": "subConvertToShares",
      "outputs": [
        {
          "internalType": "uint256",
          "name": "shares",
          "type": "uint256"
        }
      ],
      "stateMutability": "view",
      "type": "function"
    },
    {
      "inputs": [],
      "name": "symbol",
      "outputs": [
        {
          "internalType": "string",
          "name": "",
          "type": "string"
        }
      ],
      "stateMutability": "view",
      "type": "function"
    },
    {
      "inputs": [],
      "name": "totalAssets",
      "outputs": [
        {
          "internalType": "uint256",
          "name": "",
          "type": "uint256"
        }
      ],
      "stateMutability": "view",
      "type": "function"
    },
    {
      "inputs": [],
      "name": "totalShares",
      "outputs": [
        {
          "internalType": "uint256",
          "name": "",
          "type": "uint256"
        }
      ],
      "stateMutability": "view",
      "type": "function"
    },
    {
      "inputs": [],
      "name": "totalSupply",
      "outputs": [
        {
          "internalType": "uint256",
          "name": "",
          "type": "uint256"
        }
      ],
      "stateMutability": "view",
      "type": "function"
    },
    {
      "inputs": [
        {
          "internalType": "address",
          "name": "to",
          "type": "address"
        },
        {
          "internalType": "uint256",
          "name": "amount",
          "type": "uint256"
        }
      ],
      "name": "transfer",
      "outputs": [
        {
          "internalType": "bool",
          "name": "",
          "type": "bool"
        }
      ],
      "stateMutability": "nonpayable",
      "type": "function"
    },
    {
      "inputs": [
        {
          "internalType": "address",
          "name": "from",
          "type": "address"
        },
        {
          "internalType": "address",
          "name": "to",
          "type": "address"
        },
        {
          "internalType": "uint256",
          "name": "amount",
          "type": "uint256"
        }
      ],
      "name": "transferFrom",
      "outputs": [
        {
          "internalType": "bool",
          "name": "",
          "type": "bool"
        }
      ],
      "stateMutability": "nonpayable",
      "type": "function"
    }
  ],
  "bytecode": {
    "object": "0x60806040523480156200001157600080fd5b506200001c62000022565b620000e4565b602b54610100900460ff16156200008f5760405162461bcd60e51b815260206004820152602760248201527f496e697469616c697a61626c653a20636f6e747261637420697320696e697469604482015266616c697a696e6760c81b606482015260840160405180910390fd5b602b5460ff9081161015620000e257602b805460ff191660ff9081179091556040519081527f7f26b83ff96e1f2b6a682f133852f6798a09c465da95921460cefb38474024989060200160405180910390a15b565b61321e80620000f46000396000f3fe608060405234801561001057600080fd5b50600436106102315760003560e01c80634702a08411610130578063a457c2d7116100b8578063cc1a378f1161007c578063cc1a378f1461038c578063cd3daf9d14610429578063d505accf1461047a578063dd62ed3e1461048d578063f5eb42dc146104a057600080fd5b8063a457c2d714610441578063a9059cbb14610454578063b3d7f6b914610467578063b88a802f14610429578063c6e6f5921461029d57600080fd5b80637d098e64116100ff5780637d098e64146103e95780637ecebe001461041657806380faa57d1461042957806395d89b4114610430578063a01c87741461043857600080fd5b80634702a0841461039d5780634cdad506146103b057806370a08231146103c357806370a25869146103d657600080fd5b80632016a0d2116101be5780633644e515116101825780633644e5151461034e57806338d52e0f1461035657806339509351146103715780633a98ef39146103845780633c6b16ab1461038c57600080fd5b80632016a0d2146102f157806323b872dd14610306578063313ce5671461031957806332e5069014610328578063361032911461033b57600080fd5b80630a28a477116102055780630a28a4771461029d5780630ba097d6146102b05780630cae37f1146102c357806318160ddd146102d65780631dc7f521146102de57600080fd5b80628cc2621461023657806301e1d1141461025d57806306fdde0314610265578063095ea7b31461027a575b600080fd5b61024a61024436600461259f565b50600090565b6040519081526020015b60405180910390f35b61024a6104c9565b61026d6104de565b604051610254919061260c565b61028d61028836600461261f565b610570565b6040519015158152602001610254565b61024a6102ab36600461264b565b610587565b61024a6102be366004612705565b610592565b61024a6102d1366004612705565b610974565b61024a610b5c565b61024a6102ec36600461264b565b610bb1565b6103046102ff36600461278b565b610c41565b005b61028d610314366004612814565b610e3f565b60405160128152602001610254565b61024a61033636600461259f565b610e62565b61024a610349366004612855565b610e84565b61024a610e90565b6061546040516001600160a01b039091168152602001610254565b61028d61037f36600461261f565b610e9a565b61024a610ebb565b61030461039a36600461264b565b50565b61024a6103ab366004612855565b610ecc565b61024a6103be36600461264b565b610ed8565b61024a6103d136600461259f565b610ee3565b61024a6103e436600461264b565b610f06565b6040805160008082526020820181905291810182905260608101829052608081019190915260a001610254565b61024a61042436600461259f565b610f3a565b600061024a565b61026d610f58565b61024a60685481565b61028d61044f36600461261f565b610f67565b61028d61046236600461261f565b610fa4565b61024a61047536600461264b565b610fb1565b610304610488366004612889565b610fbc565b61024a61049b3660046128fa565b6110de565b61024a6104ae36600461259f565b6001600160a01b031660009081526063602052604090205490565b6062546000906104d99082611109565b905090565b6060606680546104ed90612928565b80601f016020809104026020016040519081016040528092919081815260200182805461051990612928565b80156105665780601f1061053b57610100808354040283529160200191610566565b820191906000526020600020905b81548152906001019060200180831161054957829003601f168201915b5050505050905090565b600061057d338484611143565b5060015b92915050565b6000610581826111f2565b60605460009082906001600160a01b03168015610608576040516241fec360e31b81526001600160a01b03838116600483015282169063020ff61890602401600060405180830381600087803b1580156105eb57600080fd5b505af11580156105ff573d6000803e3d6000fd5b5050505061064c565b6000601a5560006018556001600160a01b0382161561064c576001600160a01b0382166000908152601e60209081526040808320839055601a54601d909252909120555b60008580602001905181019061066291906129f1565b5090506000610686866001600160a01b031660009081526063602052604090205490565b90506000610698836000015188610ecc565b90506106b26040518060200160405280600081525061120f565b6106e46040518060400160405280600c81526020016b037bd20b6b7bab73a24b71d160a51b8152508460000151611252565b6107156040518060400160405280600f81526020016e030b1b1b7bab73a29b430b932b99d1608d1b81525083611252565b61073f60405180604001604052806008815260200167039b430b932b99d160c51b81525082611252565b6107576040518060200160405280600081525061120f565b8082101561079657604051637ac073bf60e01b81526001600160a01b038816600482015260248101839052604481018290526064015b60405180910390fd5b60408051602081019091526000815281906107b09061120f565b6107e760405180604001604052806015815260200174030b9b9b2ba39902f2f2f2f2f2f2f2f2f2f2f2f1d1605d1b81525082611252565b60006107f283610ed8565b905061081f60405180604001604052806009815260200168030b9b9b2ba39991d160bd1b81525082611252565b6108376040518060200160405280600081525061120f565b6060546040516314370d6760e31b81526001600160a01b039091169063a1b86b3890610869908c908e90600401612a96565b60408051808303816000875af19250505080156108a3575060408051601f3d908101601f191682019092526108a091810190612aba565b60015b6108f5576108af612ade565b806308c379a0036108e957506108c3612afa565b806108ce57506108eb565b80604051631bc63b8160e01b815260040161078d919061260c565b505b3d6000803e3d6000fd5b61090082600061129b565b6060546001600160a01b031660009081526063602052604090205495506109298487600061130b565b6060546001600160a01b039081166000908152606360209081526040808320839055928e16825260699052208054949094039093555090965061096c9350505050565b505092915050565b60605460009082906001600160a01b031680156109ea576040516241fec360e31b81526001600160a01b03838116600483015282169063020ff61890602401600060405180830381600087803b1580156109cd57600080fd5b505af11580156109e1573d6000803e3d6000fd5b50505050610a2e565b6000601a5560006018556001600160a01b03821615610a2e576001600160a01b0382166000908152601e60209081526040808320839055601a54601d909252909120555b60008086806020019051810190610a459190612b84565b6068548251929450909250600091610a5c91611369565b6060549091506001600160a01b0316639ea04fe4610a826061546001600160a01b031690565b89866040518463ffffffff1660e01b8152600401610aa293929190612c1d565b6020604051808303816000875af1925050508015610add575060408051601f3d908101601f19168201909252610ada91810190612c96565b60015b610ae9576108af612ade565b610af481600161129b565b6000610afe610ebb565b15610b1157610b0c83610fb1565b610b13565b825b9050610b218382600161130b565b6001600160a01b03909316600090815260636020908152604080832080548701905560699091529020805490920190915550935061096c9050565b6000610b66610ebb565b1561024457610b7b610b76610ebb565b611375565b610b836104c9565b610b929064e8d4a51000612cc5565b610b9c9190612cf2565b610ba7610b76610ebb565b6104d99190612cc5565b6000610bbb610ebb565b60605460405163a4fc284b60e01b81526001600160a01b039091169063a4fc284b90610bec90600190600401612d1c565b602060405180830381865afa158015610c09573d6000803e3d6000fd5b505050506040513d601f19601f82011682018060405250810190610c2d9190612c96565b610c379084612cc5565b6105819190612cf2565b602b54610100900460ff1615808015610c615750602b54600160ff909116105b80610c7b5750303b158015610c7b5750602b5460ff166001145b610cde5760405162461bcd60e51b815260206004820152602e60248201527f496e697469616c697a61626c653a20636f6e747261637420697320616c72656160448201526d191e481a5b9a5d1a585b1a5e995960921b606482015260840161078d565b602b805460ff191660011790558015610d0157602b805461ff0019166101001790555b6066610d0d8482612d8f565b506067610d1a8382612d8f565b50606080546001600160a01b038087166001600160a01b03199283161790925560618054928816929091169190911790556040805180820190915260018152603160f81b6020820152610d6e9084906113a8565b846001600160a01b031663313ce5676040518163ffffffff1660e01b8152600401602060405180830381865afa158015610dac573d6000803e3d6000fd5b505050506040513d601f19601f82011682018060405250810190610dd09190612e4f565b60ff16601214610de1576001610de8565b64e8d4a510005b64ffffffffff166068558015610e3857602b805461ff0019169055604051600181527f7f26b83ff96e1f2b6a682f133852f6798a09c465da95921460cefb38474024989060200160405180910390a15b5050505050565b6000610e4c8433846113d9565b610e57848484611427565b5060015b9392505050565b6001600160a01b03811660009081526063602052604081205461058190611375565b6000610e5b8383611558565b60006104d9611612565b600061057d338484610eac33886110de565b610eb69190612e6c565b611143565b6062546000906104d9906001611109565b6000610e5b838361168d565b600061058182610f06565b6001600160a01b0381166000908152606360205260408120546105819083610e84565b60008082610f12610ebb565b610f1c9190612e7f565b9050610e5b610f296116d1565b610f3285611375565b8591906116ef565b6001600160a01b038116600090815260646020526040812054610581565b6060606780546104ed90612928565b600080610f7433856110de565b905082811015610f97576040516361ceb1d360e01b815260040160405180910390fd5b610e573385858403611143565b600061057d338484611427565b60006105818261170d565b83421115610fe65760405163184f1e0160e11b81526004810185905242602482015260440161078d565b60007f6e71edae12b1b97f4d1f60370fef10105fa2faae0126114a169c64845d6126c98888886110158c61172a565b6040805160208101969096526001600160a01b0394851690860152929091166060840152608083015260a082015260c0810186905260e001604051602081830303815290604052805190602001209050600061107082611752565b90506000611080828787876117a0565b9050896001600160a01b0316816001600160a01b0316146110c757604051635091bef560e01b81526001600160a01b0380831660048301528b16602482015260440161078d565b6110d28a8a8a611143565b50505050505050505050565b6001600160a01b03918216600090815260656020908152604080832093909416825291909152205490565b60006001600160801b038183600181111561112657611126612d06565b146111335783811661113b565b608084901c81165b949350505050565b6001600160a01b038316158061116057506001600160a01b038216155b1561119157604051637db368a160e01b81526001600160a01b0380851660048301528316602482015260440161078d565b6001600160a01b0383811660008181526065602090815260408083209487168084529482529182902085905590518481527f8c5be1e5ebec7d5bd14f71427d1e84f3dd0314c0f7b2291e5b200ac8c7c3b925910160405180910390a3505050565b60006105816111ff610ebb565b6112076116d1565b8491906117c8565b61039a81604051602401611223919061260c565b60408051601f198184030181529190526020810180516001600160e01b031663104c13eb60e21b1790526117ee565b6112978282604051602401611268929190612e92565b60408051601f198184030181529190526020810180516001600160e01b03166309710a9d60e41b1790526117ee565b5050565b60605460405163b0ff97b560e01b81523060048201526024810184905282151560448201526001600160a01b039091169063b0ff97b590606401600060405180830381600087803b1580156112ef57600080fd5b505af1158015611303573d6000803e3d6000fd5b505050505050565b60625460009061131b9082611109565b90506000611335600160625461110990919063ffffffff16565b9050821561134857908401908301611351565b90849003908390035b61135f81608084901b612e6c565b6062555050505050565b6000610e5b8284612cf2565b6000806113806116d1565b9050610e5b8161138e610ebb565b156113a05761139b610ebb565b610f32565b8490836116ef565b602b54610100900460ff166113cf5760405162461bcd60e51b815260040161078d90612eb4565b611297828261180f565b60006113e584846110de565b905060001981146114215781811015611414576040516306052b7f60e01b81526004810183905260240161078d565b6114218484848403611143565b50505050565b6001600160a01b038316158061144457506001600160a01b038216155b1561147557604051637db368a160e01b81526001600160a01b0380851660048301528316602482015260440161078d565b600061148084611850565b61148983610587565b6114939190612cf2565b6001600160a01b038516600090815260636020526040902054909150818110156114e9576040516315c29bad60e31b81526001600160a01b0386166004820152602481018290526044810183905260640161078d565b6001600160a01b0380861660008181526063602052604080822086860390559287168082529083902080548601905591517fddf252ad1be2c89b69c2b068fc378daa952ba7f163c4a11628f55a4df523b3ef906115499087815260200190565b60405180910390a35050505050565b60008061156484611375565b905060006115806040518060200160405280600081525061120f565b81156115cc576115c06040518060400160405280601081526020016f039b1b0b634b733903330b1ba37b91d160851b8152506115bb86611850565b611252565b6115c984611850565b90505b600082156115ec576115e78383670de0b6b3a76400006116ef565b6115ef565b60005b90506116096040518060200160405280600081525061120f565b95945050505050565b60006104d97f8b73c3c69bb8fe3d512ecc4cf759cc79239f7b179b0ffacaa9a75d522b39400f611641602c5490565b602d546040805160208101859052908101839052606081018290524660808201523060a082015260009060c0016040516020818303038152906040528051906020012090509392505050565b60006801a540fb0095b06746806116b56116a5610ebb565b6116ad6116d1565b8791906117c8565b6116c790670de0b6b3a7640000612cc5565b61113b9190612cf2565b6060546000906001600160a01b03166116e981611915565b91505090565b600082600019048411830215820261170657600080fd5b5091020490565b600061058161171a610ebb565b6117226104c9565b8491906116ef565b6001600160a01b03811660009081526064602052604090208054600181018255905b50919050565b600061058161175f611612565b8360405161190160f01b6020820152602281018390526042810182905260009060620160405160208183030381529060405280519060200120905092915050565b60008060006117b187878787611961565b915091506117be81611a4e565b5095945050505050565b60008260001904841183021582026117df57600080fd5b50910281810615159190040190565b80516a636f6e736f6c652e6c6f67602083016000808483855afa5050505050565b602b54610100900460ff166118365760405162461bcd60e51b815260040161078d90612eb4565b815160209283012081519190920120602c91909155602d55565b600073ae78736cd615f374d3085123a210448e74fc639373c02aaa39b223fe8d0a0e5c4f27ead9083c756cc28261188b838362011940611c04565b905060006118d08261189b610ebb565b156118ad576118a8610ebb565b6118af565b835b6001600160a01b0389166000908152606360205260409020545b91906116ef565b6001600160a01b03871660009081526069602052604090205490915061190b90670de0b6b3a76400009083906118c99064e8d4a51000612cc5565b9695505050505050565b6040805160048152602481019091526020810180516001600160e01b0316636a57db9d60e11b17905260009061194b8382611dbd565b905080806020019051810190610e5b9190612c96565b6000807f7fffffffffffffffffffffffffffffff5d576e7357a4501ddfe92f46681b20a08311156119985750600090506003611a45565b8460ff16601b141580156119b057508460ff16601c14155b156119c15750600090506004611a45565b6040805160008082526020820180845289905260ff881692820192909252606081018690526080810185905260019060a0016020604051602081039080840390855afa158015611a15573d6000803e3d6000fd5b5050604051601f1901519150506001600160a01b038116611a3e57600060019250925050611a45565b9150600090505b94509492505050565b6000816004811115611a6257611a62612d06565b03611a6a5750565b6001816004811115611a7e57611a7e612d06565b03611acb5760405162461bcd60e51b815260206004820152601860248201527f45434453413a20696e76616c6964207369676e61747572650000000000000000604482015260640161078d565b6002816004811115611adf57611adf612d06565b03611b2c5760405162461bcd60e51b815260206004820152601f60248201527f45434453413a20696e76616c6964207369676e6174757265206c656e67746800604482015260640161078d565b6003816004811115611b4057611b40612d06565b03611b985760405162461bcd60e51b815260206004820152602260248201527f45434453413a20696e76616c6964207369676e6174757265202773272076616c604482015261756560f01b606482015260840161078d565b6004816004811115611bac57611bac612d06565b0361039a5760405162461bcd60e51b815260206004820152602260248201527f45434453413a20696e76616c6964207369676e6174757265202776272076616c604482015261756560f01b606482015260840161078d565b60408051600280825260608201835260009273a4e0faa58465a2d369aa21b3e42d43374c6f961392849290916020830190803683370190505090508381600081518110611c5357611c53612eff565b602002602001019063ffffffff16908163ffffffff1681525050600081600181518110611c8257611c82612eff565b63ffffffff9092166020928302919091019091015260405163883bdbfd60e01b81526000906001600160a01b0384169063883bdbfd90611cc6908590600401612f15565b600060405180830381865afa158015611ce3573d6000803e3d6000fd5b505050506040513d6000823e601f3d908101601f19168201604052611d0b9190810190612fce565b509050600081600081518110611d2357611d23612eff565b602002602001015182600181518110611d3e57611d3e612eff565b6020026020010151611d5091906130a5565b90506000611d62600388900b836130d2565b905060008260060b128015611d865750611d80600388900b83613110565b60060b15155b15611d995780611d9581613132565b9150505b6000611daf82670de0b6b3a76400008c8c611de2565b9a9950505050505050505050565b6060610e5b83836040518060600160405280602581526020016131c460259139611ef0565b600080611dee86611f5e565b90506001600160801b036001600160a01b03821611611e74576000611e1c6001600160a01b03831680612cc5565b9050836001600160a01b0316856001600160a01b031610611e5457611e4f600160c01b876001600160801b031683612376565b611e6c565b611e6c81876001600160801b0316600160c01b612376565b925050611ee7565b6000611e936001600160a01b0383168068010000000000000000612376565b9050836001600160a01b0316856001600160a01b031610611ecb57611ec6600160801b876001600160801b031683612376565b611ee3565b611ee381876001600160801b0316600160801b612376565b9250505b50949350505050565b6060600080856001600160a01b031685604051611f0d9190613155565b600060405180830381855afa9150503d8060008114611f48576040519150601f19603f3d011682016040523d82523d6000602084013e611f4d565b606091505b509150915061190b868383876124ec565b60008060008360020b12611f75578260020b611f82565b8260020b611f8290613171565b9050611f91620d89e71961318d565b60020b811115611fc75760405162461bcd60e51b81526020600482015260016024820152601560fa1b604482015260640161078d565b600081600116600003611fde57600160801b611ff0565b6ffffcb933bd6fad37aa2d162d1a5940015b70ffffffffffffffffffffffffffffffffff169050600282161561202f57608061202a826ffff97272373d413259a46990580e213a612cc5565b901c90505b6004821615612059576080612054826ffff2e50f5f656932ef12357cf3c7fdcc612cc5565b901c90505b600882161561208357608061207e826fffe5caca7e10e4e61c3624eaa0941cd0612cc5565b901c90505b60108216156120ad5760806120a8826fffcb9843d60f6159c9db58835c926644612cc5565b901c90505b60208216156120d75760806120d2826fff973b41fa98c081472e6896dfb254c0612cc5565b901c90505b60408216156121015760806120fc826fff2ea16466c96a3843ec78b326b52861612cc5565b901c90505b608082161561212b576080612126826ffe5dee046a99a2a811c461f1969c3053612cc5565b901c90505b610100821615612156576080612151826ffcbe86c7900a88aedcffc83b479aa3a4612cc5565b901c90505b61020082161561218157608061217c826ff987a7253ac413176f2b074cf7815e54612cc5565b901c90505b6104008216156121ac5760806121a7826ff3392b0822b70005940c7a398e4b70f3612cc5565b901c90505b6108008216156121d75760806121d2826fe7159475a2c29b7443b29c7fa6e889d9612cc5565b901c90505b6110008216156122025760806121fd826fd097f3bdfd2022b8845ad8f792aa5825612cc5565b901c90505b61200082161561222d576080612228826fa9f746462d870fdf8a65dc1f90e061e5612cc5565b901c90505b614000821615612258576080612253826f70d869a156d2a1b890bb3df62baf32f7612cc5565b901c90505b61800082161561228357608061227e826f31be135f97d08fd981231505542fcfa6612cc5565b901c90505b620100008216156122af5760806122aa826f09aa508b5b7a84e1c677de54f3e99bc9612cc5565b901c90505b620200008216156122da5760806122d5826e5d6af8dedb81196699c329225ee604612cc5565b901c90505b620400008216156123045760806122ff826d2216e584f5fa1ea926041bedfe98612cc5565b901c90505b6208000082161561232c576080612327826b048a170391f7dc42444e8fa2612cc5565b901c90505b60008460020b13156123475761234481600019612cf2565b90505b612356640100000000826131af565b15612362576001612365565b60005b61113b9060ff16602083901c612e6c565b60008080600019858709858702925082811083820303915050806000036123af57600084116123a457600080fd5b508290049050610e5b565b8084116123bb57600080fd5b6000848688098084039381119092039190506000856123d981613171565b169586900495938490049360008190030460010190506123f98184612cc5565b90931792600061240a876003612cc5565b60021890506124198188612cc5565b612424906002612e7f565b61242e9082612cc5565b905061243a8188612cc5565b612445906002612e7f565b61244f9082612cc5565b905061245b8188612cc5565b612466906002612e7f565b6124709082612cc5565b905061247c8188612cc5565b612487906002612e7f565b6124919082612cc5565b905061249d8188612cc5565b6124a8906002612e7f565b6124b29082612cc5565b90506124be8188612cc5565b6124c9906002612e7f565b6124d39082612cc5565b90506124df8186612cc5565b9998505050505050505050565b6060831561255b578251600003612554576001600160a01b0385163b6125545760405162461bcd60e51b815260206004820152601d60248201527f416464726573733a2063616c6c20746f206e6f6e2d636f6e7472616374000000604482015260640161078d565b508161113b565b61113b83838151156125705781518083602001fd5b8060405162461bcd60e51b815260040161078d919061260c565b6001600160a01b038116811461039a57600080fd5b6000602082840312156125b157600080fd5b8135610e5b8161258a565b60005b838110156125d75781810151838201526020016125bf565b50506000910152565b600081518084526125f88160208601602086016125bc565b601f01601f19169290920160200192915050565b602081526000610e5b60208301846125e0565b6000806040838503121561263257600080fd5b823561263d8161258a565b946020939093013593505050565b60006020828403121561265d57600080fd5b5035919050565b634e487b7160e01b600052604160045260246000fd5b601f8201601f1916810167ffffffffffffffff811182821017156126a0576126a0612664565b6040525050565b600067ffffffffffffffff8311156126c1576126c1612664565b6040516126d8601f8501601f19166020018261267a565b8091508381528484840111156126ed57600080fd5b83836020830137600060208583010152509392505050565b6000806040838503121561271857600080fd5b823567ffffffffffffffff81111561272f57600080fd5b8301601f8101851361274057600080fd5b61274f858235602084016126a7565b92505060208301356127608161258a565b809150509250929050565b600082601f83011261277c57600080fd5b610e5b838335602085016126a7565b600080600080608085870312156127a157600080fd5b84356127ac8161258a565b935060208501356127bc8161258a565b9250604085013567ffffffffffffffff808211156127d957600080fd5b6127e58883890161276b565b935060608701359150808211156127fb57600080fd5b506128088782880161276b565b91505092959194509250565b60008060006060848603121561282957600080fd5b83356128348161258a565b925060208401356128448161258a565b929592945050506040919091013590565b6000806040838503121561286857600080fd5b8235915060208301356127608161258a565b60ff8116811461039a57600080fd5b600080600080600080600060e0888a0312156128a457600080fd5b87356128af8161258a565b965060208801356128bf8161258a565b9550604088013594506060880135935060808801356128dd8161287a565b9699959850939692959460a0840135945060c09093013592915050565b6000806040838503121561290d57600080fd5b82356129188161258a565b915060208301356127608161258a565b600181811c9082168061293c57607f821691505b60208210810361174c57634e487b7160e01b600052602260045260246000fd5b600067ffffffffffffffff82111561297657612976612664565b5060051b60200190565b600082601f83011261299157600080fd5b8151602061299e8261295c565b6040516129ab828261267a565b83815260059390931b85018201928281019150868411156129cb57600080fd5b8286015b848110156129e657805183529183019183016129cf565b509695505050505050565b60008060408385031215612a0457600080fd5b825167ffffffffffffffff80821115612a1c57600080fd5b9084019060608287031215612a3057600080fd5b604051606081018181108382111715612a4b57612a4b612664565b80604052508251815260208301516020820152604083015182811115612a7057600080fd5b612a7c88828601612980565b60408301525080945050505060208301516127608161258a565b6001600160a01b038316815260406020820181905260009061113b908301846125e0565b60008060408385031215612acd57600080fd5b505080516020909101519092909150565b600060033d1115612af75760046000803e5060005160e01c5b90565b600060443d1015612b085790565b6040516003193d81016004833e81513d67ffffffffffffffff8160248401118184111715612b3857505050505090565b8285019150815181811115612b505750505050505090565b843d8701016020828501011115612b6a5750505050505090565b612b796020828601018761267a565b509095945050505050565b60008060408385031215612b9757600080fd5b825167ffffffffffffffff80821115612baf57600080fd5b9084019060408287031215612bc357600080fd5b604051604081018181108382111715612bde57612bde612664565b60405282518152602083015182811115612bf757600080fd5b612c0388828601612980565b60208301525080945050505060208301516127608161258a565b600060018060a01b0380861683526020818616818501526060604085015260a08401915084516060850152808501516040608086015282815180855260c0870191508383019450600092505b80831015612c895784518252938301936001929092019190830190612c69565b5098975050505050505050565b600060208284031215612ca857600080fd5b5051919050565b634e487b7160e01b600052601160045260246000fd5b808202811582820484141761058157610581612caf565b634e487b7160e01b600052601260045260246000fd5b600082612d0157612d01612cdc565b500490565b634e487b7160e01b600052602160045260246000fd5b6020810160028310612d3e57634e487b7160e01b600052602160045260246000fd5b91905290565b601f821115612d8a57600081815260208120601f850160051c81016020861015612d6b5750805b601f850160051c820191505b8181101561130357828155600101612d77565b505050565b815167ffffffffffffffff811115612da957612da9612664565b612dbd81612db78454612928565b84612d44565b602080601f831160018114612df25760008415612dda5750858301515b600019600386901b1c1916600185901b178555611303565b600085815260208120601f198616915b82811015612e2157888601518255948401946001909101908401612e02565b5085821015612e3f5787850151600019600388901b60f8161c191681555b5050505050600190811b01905550565b600060208284031215612e6157600080fd5b8151610e5b8161287a565b8082018082111561058157610581612caf565b8181038181111561058157610581612caf565b604081526000612ea560408301856125e0565b90508260208301529392505050565b6020808252602b908201527f496e697469616c697a61626c653a20636f6e7472616374206973206e6f74206960408201526a6e697469616c697a696e6760a81b606082015260800190565b634e487b7160e01b600052603260045260246000fd5b6020808252825182820181905260009190848201906040850190845b81811015612f5357835163ffffffff1683529284019291840191600101612f31565b50909695505050505050565b600082601f830112612f7057600080fd5b81516020612f7d8261295c565b604051612f8a828261267a565b83815260059390931b8501820192828101915086841115612faa57600080fd5b8286015b848110156129e6578051612fc18161258a565b8352918301918301612fae565b60008060408385031215612fe157600080fd5b825167ffffffffffffffff80821115612ff957600080fd5b818501915085601f83011261300d57600080fd5b8151602061301a8261295c565b604051613027828261267a565b83815260059390931b850182019282810191508984111561304757600080fd5b948201945b838610156130755785518060060b81146130665760008081fd5b8252948201949082019061304c565b9188015191965090935050508082111561308e57600080fd5b5061309b85828601612f5f565b9150509250929050565b600682810b9082900b03667fffffffffffff198112667fffffffffffff8213171561058157610581612caf565b60008160060b8360060b806130e9576130e9612cdc565b667fffffffffffff1982146000198214161561310757613107612caf565b90059392505050565b60008260060b8061312357613123612cdc565b808360060b0791505092915050565b60008160020b627fffff19810361314b5761314b612caf565b6000190192915050565b600082516131678184602087016125bc565b9190910192915050565b6000600160ff1b820161318657613186612caf565b5060000390565b60008160020b627fffff1981036131a6576131a6612caf565b60000392915050565b6000826131be576131be612cdc565b50069056fe416464726573733a206c6f772d6c6576656c207374617469632063616c6c206661696c6564a2646970667358221220ed2bccca6eb50baa13a1ae758e46e942af8bfb33e90d241353550fef7132342d64736f6c63430008150033",
    "linkReferences": {}
  },
  "methodIdentifiers": {
    "DOMAIN_SEPARATOR()": "3644e515",
    "FORMAT_DECIMALS()": "a01c8774",
    "_convertToAssetsFromUnderlying(uint256)": "70a25869",
    "allowance(address,address)": "dd62ed3e",
    "approve(address,uint256)": "095ea7b3",
    "asset()": "38d52e0f",
    "balanceOf(address)": "70a08231",
    "claimReward()": "b88a802f",
    "convertToAssets(uint256,address)": "36103291",
    "convertToShares(uint256)": "c6e6f592",
    "convertToUnderlying(uint256)": "1dc7f521",
    "decimals()": "313ce567",
    "decreaseAllowance(address,uint256)": "a457c2d7",
    "earned(address)": "008cc262",
    "getRewardsData()": "7d098e64",
    "increaseAllowance(address,uint256)": "39509351",
    "initialize(address,address,string,string)": "2016a0d2",
    "lastTimeRewardApplicable()": "80faa57d",
    "mint(bytes,address)": "0cae37f1",
    "name()": "06fdde03",
    "nonces(address)": "7ecebe00",
    "notifyRewardAmount(uint256)": "3c6b16ab",
    "permit(address,address,uint256,uint256,uint8,bytes32,bytes32)": "d505accf",
    "previewMint(uint256)": "b3d7f6b9",
    "previewRedeem(uint256)": "4cdad506",
    "previewWithdraw(uint256)": "0a28a477",
    "redeem(bytes,address)": "0ba097d6",
    "rewardPerToken()": "cd3daf9d",
    "setRewardsDuration(uint256)": "cc1a378f",
    "sharesOf(address)": "f5eb42dc",
    "subBalanceOf(address)": "32e50690",
    "subConvertToShares(uint256,address)": "4702a084",
    "symbol()": "95d89b41",
    "totalAssets()": "01e1d114",
    "totalShares()": "3a98ef39",
    "totalSupply()": "18160ddd",
    "transfer(address,uint256)": "a9059cbb",
    "transferFrom(address,address,uint256)": "23b872dd"
  },
  "id": 45
}