{"abi":[{"type":"constructor","inputs":[],"stateMutability":"nonpayable"},{"type":"function","name":"DOMAIN_SEPARATOR","inputs":[],"outputs":[{"name":"","type":"bytes32","internalType":"bytes32"}],"stateMutability":"view"},{"type":"function","name":"FORMAT_DECIMALS","inputs":[],"outputs":[{"name":"","type":"uint256","internalType":"uint256"}],"stateMutability":"view"},{"type":"function","name":"allowance","inputs":[{"name":"owner","type":"address","internalType":"address"},{"name":"spender","type":"address","internalType":"address"}],"outputs":[{"name":"","type":"uint256","internalType":"uint256"}],"stateMutability":"view"},{"type":"function","name":"approve","inputs":[{"name":"spender","type":"address","internalType":"address"},{"name":"amount","type":"uint256","internalType":"uint256"}],"outputs":[{"name":"","type":"bool","internalType":"bool"}],"stateMutability":"nonpayable"},{"type":"function","name":"asset","inputs":[],"outputs":[{"name":"","type":"address","internalType":"address"}],"stateMutability":"view"},{"type":"function","name":"balanceOf","inputs":[{"name":"account_","type":"address","internalType":"address"}],"outputs":[{"name":"","type":"uint256","internalType":"uint256"}],"stateMutability":"view"},{"type":"function","name":"balanceOf2","inputs":[{"name":"account_","type":"address","internalType":"address"}],"outputs":[{"name":"","type":"uint256","internalType":"uint256"}],"stateMutability":"view"},{"type":"function","name":"claimReward","inputs":[],"outputs":[{"name":"","type":"uint256","internalType":"uint256"}],"stateMutability":"nonpayable"},{"type":"function","name":"convertToOzTokens","inputs":[{"name":"shares_","type":"uint256","internalType":"uint256"},{"name":"account_","type":"address","internalType":"address"}],"outputs":[{"name":"","type":"uint256","internalType":"UintRay"}],"stateMutability":"view"},{"type":"function","name":"convertToShares","inputs":[{"name":"assets_","type":"uint256","internalType":"uint256"},{"name":"account_","type":"address","internalType":"address"}],"outputs":[{"name":"","type":"uint256","internalType":"uint256"}],"stateMutability":"view"},{"type":"function","name":"convertToSharesFromOzBalance","inputs":[{"name":"ozBalance_","type":"uint256","internalType":"uint256"}],"outputs":[{"name":"","type":"uint256","internalType":"uint256"}],"stateMutability":"view"},{"type":"function","name":"convertToUnderlying","inputs":[{"name":"shares_","type":"uint256","internalType":"uint256"}],"outputs":[{"name":"","type":"uint256","internalType":"uint256"}],"stateMutability":"view"},{"type":"function","name":"decimals","inputs":[],"outputs":[{"name":"","type":"uint8","internalType":"uint8"}],"stateMutability":"pure"},{"type":"function","name":"decreaseAllowance","inputs":[{"name":"spender","type":"address","internalType":"address"},{"name":"subtractedValue","type":"uint256","internalType":"uint256"}],"outputs":[{"name":"","type":"bool","internalType":"bool"}],"stateMutability":"nonpayable"},{"type":"function","name":"earned","inputs":[{"name":"user_","type":"address","internalType":"address"}],"outputs":[{"name":"","type":"uint256","internalType":"uint256"}],"stateMutability":"view"},{"type":"function","name":"getRewardsData","inputs":[],"outputs":[{"name":"rewardRate","type":"uint256","internalType":"uint256"},{"name":"circulatingSupply","type":"uint256","internalType":"uint256"},{"name":"pendingAllocation","type":"uint256","internalType":"uint256"},{"name":"recicledSupply","type":"uint256","internalType":"uint256"},{"name":"durationLeft","type":"int256","internalType":"int256"}],"stateMutability":"view"},{"type":"function","name":"increaseAllowance","inputs":[{"name":"spender","type":"address","internalType":"address"},{"name":"addedValue","type":"uint256","internalType":"uint256"}],"outputs":[{"name":"","type":"bool","internalType":"bool"}],"stateMutability":"nonpayable"},{"type":"function","name":"initialize","inputs":[{"name":"underlying_","type":"address","internalType":"address"},{"name":"diamond_","type":"address","internalType":"address"},{"name":"name_","type":"string","internalType":"string"},{"name":"symbol_","type":"string","internalType":"string"}],"outputs":[],"stateMutability":"nonpayable"},{"type":"function","name":"lastTimeRewardApplicable","inputs":[],"outputs":[{"name":"","type":"uint256","internalType":"uint256"}],"stateMutability":"view"},{"type":"function","name":"mint","inputs":[{"name":"data_","type":"bytes","internalType":"bytes"},{"name":"owner_","type":"address","internalType":"address"}],"outputs":[{"name":"","type":"uint256","internalType":"uint256"}],"stateMutability":"payable"},{"type":"function","name":"mint2","inputs":[{"name":"data_","type":"bytes","internalType":"bytes"},{"name":"owner_","type":"address","internalType":"address"},{"name":"isETH_","type":"bool","internalType":"bool"}],"outputs":[{"name":"","type":"uint256","internalType":"uint256"}],"stateMutability":"payable"},{"type":"function","name":"name","inputs":[],"outputs":[{"name":"","type":"string","internalType":"string"}],"stateMutability":"view"},{"type":"function","name":"nonces","inputs":[{"name":"owner","type":"address","internalType":"address"}],"outputs":[{"name":"","type":"uint256","internalType":"uint256"}],"stateMutability":"view"},{"type":"function","name":"notifyRewardAmount","inputs":[{"name":"amount_","type":"uint256","internalType":"uint256"}],"outputs":[],"stateMutability":"nonpayable"},{"type":"function","name":"permit","inputs":[{"name":"owner","type":"address","internalType":"address"},{"name":"spender","type":"address","internalType":"address"},{"name":"value","type":"uint256","internalType":"uint256"},{"name":"deadline","type":"uint256","internalType":"uint256"},{"name":"v","type":"uint8","internalType":"uint8"},{"name":"r","type":"bytes32","internalType":"bytes32"},{"name":"s_","type":"bytes32","internalType":"bytes32"}],"outputs":[],"stateMutability":"nonpayable"},{"type":"function","name":"redeem","inputs":[{"name":"data_","type":"bytes","internalType":"bytes"},{"name":"owner_","type":"address","internalType":"address"}],"outputs":[{"name":"","type":"uint256","internalType":"uint256"}],"stateMutability":"nonpayable"},{"type":"function","name":"rewardPerToken","inputs":[],"outputs":[{"name":"","type":"uint256","internalType":"uint256"}],"stateMutability":"view"},{"type":"function","name":"setRewardsDuration","inputs":[{"name":"duration_","type":"uint256","internalType":"uint256"}],"outputs":[],"stateMutability":"nonpayable"},{"type":"function","name":"sharesOf","inputs":[{"name":"account_","type":"address","internalType":"address"}],"outputs":[{"name":"","type":"uint256","internalType":"uint256"}],"stateMutability":"view"},{"type":"function","name":"symbol","inputs":[],"outputs":[{"name":"","type":"string","internalType":"string"}],"stateMutability":"view"},{"type":"function","name":"totalAssets","inputs":[],"outputs":[{"name":"","type":"uint256","internalType":"uint256"}],"stateMutability":"view"},{"type":"function","name":"totalShares","inputs":[],"outputs":[{"name":"","type":"uint256","internalType":"uint256"}],"stateMutability":"view"},{"type":"function","name":"totalSupply","inputs":[],"outputs":[{"name":"","type":"uint256","internalType":"uint256"}],"stateMutability":"view"},{"type":"function","name":"transfer","inputs":[{"name":"to","type":"address","internalType":"address"},{"name":"amount","type":"uint256","internalType":"uint256"}],"outputs":[{"name":"","type":"bool","internalType":"bool"}],"stateMutability":"nonpayable"},{"type":"function","name":"transferFrom","inputs":[{"name":"from","type":"address","internalType":"address"},{"name":"to","type":"address","internalType":"address"},{"name":"amount","type":"uint256","internalType":"uint256"}],"outputs":[{"name":"","type":"bool","internalType":"bool"}],"stateMutability":"nonpayable"},{"type":"function","name":"transferShares","inputs":[{"name":"recipient_","type":"address","internalType":"address"},{"name":"shares_","type":"uint256","internalType":"uint256"}],"outputs":[{"name":"","type":"uint256","internalType":"uint256"}],"stateMutability":"nonpayable"},{"type":"function","name":"transferSharesFrom","inputs":[{"name":"sender_","type":"address","internalType":"address"},{"name":"recipient_","type":"address","internalType":"address"},{"name":"shares_","type":"uint256","internalType":"uint256"}],"outputs":[{"name":"","type":"uint256","internalType":"uint256"}],"stateMutability":"nonpayable"},{"type":"event","name":"Approval","inputs":[{"name":"owner","type":"address","indexed":true,"internalType":"address"},{"name":"spender","type":"address","indexed":true,"internalType":"address"},{"name":"value","type":"uint256","indexed":false,"internalType":"uint256"}],"anonymous":false},{"type":"event","name":"Initialized","inputs":[{"name":"version","type":"uint8","indexed":false,"internalType":"uint8"}],"anonymous":false},{"type":"event","name":"OzTokenMinted","inputs":[{"name":"owner","type":"address","indexed":false,"internalType":"address"},{"name":"shares","type":"uint256","indexed":false,"internalType":"uint256"},{"name":"assets","type":"uint256","indexed":false,"internalType":"uint256"}],"anonymous":false},{"type":"event","name":"OzTokenRedeemed","inputs":[{"name":"owner","type":"address","indexed":false,"internalType":"address"},{"name":"ozAmountIn","type":"uint256","indexed":false,"internalType":"uint256"},{"name":"shares","type":"uint256","indexed":false,"internalType":"uint256"},{"name":"assets","type":"uint256","indexed":false,"internalType":"uint256"}],"anonymous":false},{"type":"event","name":"Transfer","inputs":[{"name":"from","type":"address","indexed":true,"internalType":"address"},{"name":"to","type":"address","indexed":true,"internalType":"address"},{"name":"value","type":"uint256","indexed":false,"internalType":"uint256"}],"anonymous":false},{"type":"event","name":"TransferShares","inputs":[{"name":"from","type":"address","indexed":true,"internalType":"address"},{"name":"to","type":"address","indexed":true,"internalType":"address"},{"name":"sharesAmoutn","type":"uint256","indexed":false,"internalType":"uint256"}],"anonymous":false},{"type":"error","name":"OZError03","inputs":[]},{"type":"error","name":"OZError04","inputs":[{"name":"from","type":"address","internalType":"address"},{"name":"to","type":"address","internalType":"address"}]},{"type":"error","name":"OZError05","inputs":[{"name":"amount","type":"uint256","internalType":"uint256"}]},{"type":"error","name":"OZError06","inputs":[{"name":"sender","type":"address","internalType":"address"},{"name":"accountShares","type":"uint256","internalType":"uint256"},{"name":"shares","type":"uint256","internalType":"uint256"}]},{"type":"error","name":"OZError07","inputs":[{"name":"from","type":"address","internalType":"address"},{"name":"fromShares","type":"uint256","internalType":"uint256"},{"name":"shares","type":"uint256","internalType":"uint256"}]},{"type":"error","name":"OZError08","inputs":[{"name":"deadline","type":"uint256","internalType":"uint256"},{"name":"blockTimestamp","type":"uint256","internalType":"uint256"}]},{"type":"error","name":"OZError09","inputs":[{"name":"owner","type":"address","internalType":"address"},{"name":"spender","type":"address","internalType":"address"}]},{"type":"error","name":"OZError22","inputs":[{"name":"reason","type":"string","internalType":"string"}]},{"type":"error","name":"OZError35","inputs":[{"name":"ozAmountIn","type":"uint256","internalType":"uint256"}]},{"type":"error","name":"OZError37","inputs":[]},{"type":"error","name":"OZError38","inputs":[]},{"type":"error","name":"OZError39","inputs":[{"name":"data","type":"bytes","internalType":"bytes"}]},{"type":"error","name":"OZError42","inputs":[]},{"type":"error","name":"OZError43","inputs":[]}],"bytecode":{"object":"0x608060405234801562000010575f80fd5b506200001b62000021565b620000e3565b603b54610100900460ff16156200008e5760405162461bcd60e51b815260206004820152602760248201527f496e697469616c697a61626c653a20636f6e747261637420697320696e697469604482015266616c697a696e6760c81b606482015260840160405180910390fd5b603b5460ff9081161015620000e157603b805460ff191660ff9081179091556040519081527f7f26b83ff96e1f2b6a682f133852f6798a09c465da95921460cefb38474024989060200160405180910390a15b565b612eda80620000f15f395ff3fe608060405260043610610211575f3560e01c806370a082311161011e578063a457c2d7116100a8578063cd3daf9d1161006d578063cd3daf9d146104de578063d295fa9a14610595578063d505accf146105b4578063dd62ed3e146105d3578063f5eb42dc146105f2575f80fd5b8063a457c2d714610538578063a9059cbb14610557578063b88a802f146104de578063bc93f1cf14610576578063cc1a378f146103db575f80fd5b80637f5b002e116100ee5780637f5b002e146104bf57806380faa57d146104de5780638fcb4e5b146104f057806395d89b411461050f578063a01c877414610523575f80fd5b806370a08231146104365780637b044637146104555780637d098e64146104685780637ecebe00146104a0575f80fd5b806323b872dd1161019f578063395093511161016f57806339509351146103a85780633a98ef39146103c75780633c6b16ab146103db57806369e41c62146103f85780636d78045914610417575f80fd5b806323b872dd14610333578063313ce567146103525780633644e5151461036d57806338d52e0f14610381575f80fd5b80630ba097d6116101e55780630ba097d6146102ab5780630cae37f1146102ca57806318160ddd146102df5780631dc7f521146102f35780632016a0d214610312575f80fd5b80628cc2621461021557806301e1d1141461024757806306fdde031461025b578063095ea7b31461027c575b5f80fd5b348015610220575f80fd5b5061023461022f3660046123a8565b505f90565b6040519081526020015b60405180910390f35b348015610252575f80fd5b50610234610626565b348015610266575f80fd5b5061026f61063a565b60405161023e9190612406565b348015610287575f80fd5b5061029b610296366004612418565b6106ca565b604051901515815260200161023e565b3480156102b6575f80fd5b506102346102c5366004612519565b6106e0565b6102346102d8366004612519565b5f92915050565b3480156102ea575f80fd5b50610234610ab9565b3480156102fe575f80fd5b5061023461030d366004612568565b610b1b565b34801561031d575f80fd5b5061033161032c36600461257f565b610ba8565b005b34801561033e575f80fd5b5061029b61034d366004612603565b610da4565b34801561035d575f80fd5b506040516012815260200161023e565b348015610378575f80fd5b50610234610dc5565b34801561038c575f80fd5b506071546040516001600160a01b03909116815260200161023e565b3480156103b3575f80fd5b5061029b6103c2366004612418565b610dce565b3480156103d2575f80fd5b50610234610dee565b3480156103e6575f80fd5b506103316103f5366004612568565b50565b348015610403575f80fd5b50610234610412366004612568565b610dfe565b348015610422575f80fd5b50610234610431366004612603565b610e1a565b348015610441575f80fd5b506102346104503660046123a8565b610e55565b610234610463366004612641565b611191565b348015610473575f80fd5b50604080515f8082526020820181905291810182905260608101829052608081019190915260a00161023e565b3480156104ab575f80fd5b506102346104ba3660046123a8565b6113ff565b3480156104ca575f80fd5b506102346104d93660046123a8565b61141c565b3480156104e9575f80fd5b505f610234565b3480156104fb575f80fd5b5061023461050a366004612418565b611447565b34801561051a575f80fd5b5061026f611476565b34801561052e575f80fd5b5061023460785481565b348015610543575f80fd5b5061029b610552366004612418565b611485565b348015610562575f80fd5b5061029b610571366004612418565b6114c1565b348015610581575f80fd5b506102346105903660046126a5565b6114cd565b3480156105a0575f80fd5b506102346105af3660046126a5565b61151a565b3480156105bf575f80fd5b506103316105ce3660046126d6565b6115c6565b3480156105de575f80fd5b506102346105ed366004612742565b6116e5565b3480156105fd575f80fd5b5061023461060c3660046123a8565b6001600160a01b03165f9081526073602052604090205490565b6072545f90610635908261170f565b905090565b6060607680546106499061276e565b80601f01602080910402602001604051908101604052809291908181526020018280546106759061276e565b80156106c05780601f10610697576101008083540402835291602001916106c0565b820191905f5260205f20905b8154815290600101906020018083116106a357829003601f168201915b5050505050905090565b5f6106d6338484611751565b5060015b92915050565b5f7fd979d933a329cda0d1d95e3d7a8aaccfc305f1200c53a87f37e6841bb793452c805c156107225760405163b955425560e01b815260048101604052600481fd5b6001815d60705483906001600160a01b03168015610794576040516241fec360e31b81526001600160a01b03838116600483015282169063020ff618906024015f604051808303815f87803b158015610779575f80fd5b505af115801561078b573d5f803e3d5ffd5b505050506107d5565b5f601a555f6018556001600160a01b038216156107d5576001600160a01b0382165f908152601e60209081526040808320839055601a54601d909252909120555b855161010014610803578560405163041979eb60e41b81526004016107fa9190612406565b60405180910390fd5b5f808780602001905181019061081991906127d3565b815191935091506001600160a01b038816158061083d57506001600160a01b038216155b1561085b57604051632534b66960e21b815260040160405180910390fd5b6729a2241af62c000081101561088757604051631a98558360e21b8152600481018290526024016107fa565b6001600160a01b0388165f90815260736020526040812054906108aa838b61151a565b9050808210156108d357898282604051637ac073bf60e01b81526004016107fa939291906128c7565b5f81905060705f9054906101000a90046001600160a01b03166001600160a01b031663a1b86b388c8e6040518363ffffffff1660e01b81526004016109199291906128e8565b60408051808303815f875af1925050508015610952575060408051601f3d908101601f1916820190925261094f9181019061290b565b60015b6109a25761095e61292d565b806308c379a0036109985750610972612946565b8061097d575061099a565b80604051631bc63b8160e01b81526004016107fa9190612406565b505b3d5f803e3d5ffd5b6109ad825f806117ff565b6070546001600160a01b03165f9081526073602052604090205494506109d483865f611873565b5f60735f60705f9054906101000a90046001600160a01b03166001600160a01b03166001600160a01b031681526020019081526020015f20819055508260795f8f6001600160a01b03166001600160a01b031681526020019081526020015f205f82825403925050819055507f4181bb2dd7cb8bbe372dc317652857a2e512544faeba7c902b5e80107831732b8d878686604051610a9694939291906001600160a01b0394909416845260208401929092526040830152606082015260800190565b60405180910390a19a50610aad9650505050505050565b50505f815d5092915050565b5f610ac2610dee565b1561022f57610635610b16610aec610ad8610626565b610ae79064e8d4a510006129e3565b6118cf565b610afe610af7610dee565b60016118e6565b610b0f610b09610dee565b5f6118e6565b9190611997565b611aad565b5f610b24610dee565b60705460405163a4fc284b60e01b81526001600160a01b039091169063a4fc284b90610b5590600190600401612a2a565b602060405180830381865afa158015610b70573d5f803e3d5ffd5b505050506040513d601f19601f82011682018060405250810190610b949190612a3d565b610b9e90846129e3565b6106da9190612a68565b603b54610100900460ff1615808015610bc85750603b54600160ff909116105b80610be25750303b158015610be25750603b5460ff166001145b610c455760405162461bcd60e51b815260206004820152602e60248201527f496e697469616c697a61626c653a20636f6e747261637420697320616c72656160448201526d191e481a5b9a5d1a585b1a5e995960921b60648201526084016107fa565b603b805460ff191660011790558015610c6857603b805461ff0019166101001790555b6076610c748482612ac4565b506077610c818382612ac4565b50607080546001600160a01b038087166001600160a01b03199283161790925560718054928816929091169190911790556040805180820190915260018152603160f81b6020820152610cd5908490611ac4565b846001600160a01b031663313ce5676040518163ffffffff1660e01b8152600401602060405180830381865afa158015610d11573d5f803e3d5ffd5b505050506040513d601f19601f82011682018060405250810190610d359190612b84565b60ff16601214610d46576001610d4d565b64e8d4a510005b64ffffffffff166078558015610d9d57603b805461ff0019169055604051600181527f7f26b83ff96e1f2b6a682f133852f6798a09c465da95921460cefb38474024989060200160405180910390a15b5050505050565b5f610db0843384611af9565b610dbb848484611b45565b5060019392505050565b5f610635611c4d565b5f6106d6338484610ddf33886116e5565b610de99190612b9f565b611751565b6072545f9061063590600161170f565b5f6106da610e0a610dee565b610e12610ab9565b849190611cc6565b5f80610e29610b1684876114cd565b9050610e36853383611af9565b610e41858585611ce9565b610e4d85858386611dd1565b949350505050565b5f80610edf670de0b6b3a764000062093a80610e796070546001600160a01b031690565b6001600160a01b0316631dc111956040518163ffffffff1660e01b8152600401602060405180830381865afa158015610eb4573d5f803e3d5ffd5b505050506040513d601f19601f82011682018060405250810190610ed89190612a3d565b9190611e71565b6001600160a01b0384165f90815260796020908152604080832054815192830190915291815291925090610f1290611e8c565b610fc16040518060400160405280601f81526020017f5f4f5a28292e6765745374616b696e67526577617264735553444328293a2000815250610f5d6070546001600160a01b031690565b6001600160a01b0316631dc111956040518163ffffffff1660e01b8152600401602060405180830381865afa158015610f98573d5f803e3d5ffd5b505050506040513d601f19601f82011682018060405250810190610fbc9190612a3d565b611ecf565b610ff860405180604001604052806015815260200174039b2b1b7b732363ca932bbb0b93239aaa9a2219d1605d1b81525083611ecf565b5f61100b6070546001600160a01b031690565b6040516394f649dd60e01b81526001600160a01b03878116600483015291909116906394f649dd906024015f60405180830381865afa158015611050573d5f803e3d5ffd5b505050506040513d5f823e601f3d908101601f191682016040526110779190810190612bf0565b90505f815f8151811061108c5761108c612c93565b602002602001015190506110b8604051806060016040528060258152602001612e806025913942611ecf565b5f8160400151426110c99190612ca7565b6110d69062093a80612ca7565b905080156110e457806110e9565b62093a805b90506111186040518060400160405280600b81526020016a03a34b6b2a9b832b73a1d160ad1b81525082611ecf565b6111466040518060400160405280600c81526020016b030b9b9b2ba39aab9b2b91d160a51b81525085611ecf565b6305f5e100670de0b6b3a764000061115e83886129e3565b6111689190612a68565b61117290866129e3565b61117c9190612a68565b6111869085612b9f565b979650505050505050565b5f7fd979d933a329cda0d1d95e3d7a8aaccfc305f1200c53a87f37e6841bb793452c805c156111d35760405163b955425560e01b815260048101604052600481fd5b6001815d5f80868060200190518101906111ed9190612ccd565b91509150841561121b573482602001511461121b57604051631008b85760e11b815260040160405180910390fd5b8151158061122b57506020820151155b156112495760405163e5da5c7360e01b815260040160405180910390fd5b6001600160a01b038616158061126657506001600160a01b038116155b1561128457604051632534b66960e21b815260040160405180910390fd5b60785482515f916112959190611f14565b6070549091506001600160a01b03166355dae15c346112bc6071546001600160a01b031690565b604080516001600160e01b031960e086901b1681526001600160a01b039283166004820152918c1660248301528751604483015260208801516064830152870151608482015289151560a482015260c401604080518083038185885af193505050508015611347575060408051601f3d908101601f191682019092526113449181019061290b565b60015b6113535761095e61292d565b61135f828260016117ff565b8261136c81806001611873565b61137e858760200151885f0151611f1f565b6001600160a01b0385165f908152607360209081526040808320805485019055607990915290819020805486019055517fcb7696223ea9f009e8eb0ecd9af1e430306b6c7c719e906d4a4af52bcba6353a906113df908c90849088906128c7565b60405180910390a196506113f4945050505050565b5f815d509392505050565b6001600160a01b0381165f908152607460205260408120546106da565b5f6106da610b16611441846001600160a01b03165f9081526073602052604090205490565b846114cd565b5f80611456610b1684336114cd565b9050611463338585611ce9565b61146f33858386611dd1565b9392505050565b6060607780546106499061276e565b5f8061149133856116e5565b9050828110156114b4576040516361ceb1d360e01b815260040160405180910390fd5b610dbb3385858403611751565b5f6106d6338484611b45565b5f806114d9845f6118e6565b905080156115115761150c6114ed84611f53565b6115046b033b2e3c9fd0803ce80000006002611fba565b839190611997565b610e4d565b5f949350505050565b5f8061152e6070546001600160a01b031690565b6001600160a01b0316633154b6e25f806040518363ffffffff1660e01b815260040161155b929190612cf8565b602060405180830381865afa158015611576573d5f803e3d5ffd5b505050506040513d601f19601f8201168201806040525081019061159a9190612a3d565b9050610e4d6115a884611f53565b6115c06115b6610ae7610dee565b84610b0f896118cf565b90611fc5565b834211156115f05760405163184f1e0160e11b8152600481018590524260248201526044016107fa565b5f7f6e71edae12b1b97f4d1f60370fef10105fa2faae0126114a169c64845d6126c988888861161e8c612000565b6040805160208101969096526001600160a01b0394851690860152929091166060840152608083015260a082015260c0810186905260e0016040516020818303038152906040528051906020012090505f61167882612027565b90505f61168782878787612073565b9050896001600160a01b0316816001600160a01b0316146116ce57604051635091bef560e01b81526001600160a01b0380831660048301528b1660248201526044016107fa565b6116d98a8a8a611751565b50505050505050505050565b6001600160a01b039182165f90815260756020908152604080832093909416825291909152205490565b5f6fffffffffffffffffffffffffffffffff81836001811115611734576117346129fa565b1461174157838116610e4d565b608084901c811691505092915050565b6001600160a01b038316158061176e57506001600160a01b038216155b1561179f57604051637db368a160e01b81526001600160a01b038085166004830152831660248201526044016107fa565b6001600160a01b038381165f8181526075602090815260408083209487168084529482529182902085905590518481527f8c5be1e5ebec7d5bd14f71427d1e84f3dd0314c0f7b2291e5b200ac8c7c3b925910160405180910390a3505050565b60705460405163db185e8960e01b8152306004820152602481018590526044810184905282151560648201526001600160a01b039091169063db185e89906084015b5f604051808303815f87803b158015611858575f80fd5b505af115801561186a573d5f803e3d5ffd5b50505050505050565b6072545f90611882908261170f565b90505f61189b600160725461170f90919063ffffffff16565b905082156118ae579084019083016118b7565b90849003908390035b6118c581608084901b612b9f565b6072555050505050565b5f6106da826b033b2e3c9fd0803ce80000006129e3565b5f806119696118fd6070546001600160a01b031690565b6001600160a01b0316633154b6e25f866040518363ffffffff1660e01b815260040161192a929190612cf8565b602060405180830381865afa158015611945573d5f803e3d5ffd5b505050506040513d601f19601f82011682018060405250810190610ae79190612a3d565b9050610e4d81611977610dee565b1561198c57611987610ae7610dee565b61198e565b825b610b0f876118cf565b604051633f9b43b760e11b815260048101849052602481018390525f908490849084908490819073__$a7d7f0af96ad7248e2170a1364c3372171$__90637f36876e906044016040805180830381865af41580156119f7573d5f803e3d5ffd5b505050506040513d601f19601f82011682018060405250810190611a1b919061290b565b6040516399ed504f60e01b8152600481018390526024810182905260448101869052919350915073__$a7d7f0af96ad7248e2170a1364c3372171$__906399ed504f90606401602060405180830381865af4158015611a7c573d5f803e3d5ffd5b505050506040513d601f19601f82011682018060405250810190611aa09190612a3d565b9998505050505050505050565b5f6106da6b033b2e3c9fd0803ce800000083612a68565b603b54610100900460ff16611aeb5760405162461bcd60e51b81526004016107fa90612d15565b611af58282612099565b5050565b5f611b0484846116e5565b90505f198114611b3f5781811015611b32576040516306052b7f60e01b8152600481018390526024016107fa565b611b3f8484848403611751565b50505050565b6001600160a01b0383161580611b6257506001600160a01b038216155b15611b9357604051637db368a160e01b81526001600160a01b038085166004830152831660248201526044016107fa565b5f611b9d82610dfe565b6001600160a01b0385165f9081526073602052604090205490915081811015611bdf578481836040516315c29bad60e31b81526004016107fa939291906128c7565b6001600160a01b038086165f8181526073602052604080822086860390559287168082529083902080548601905591517fddf252ad1be2c89b69c2b068fc378daa952ba7f163c4a11628f55a4df523b3ef90611c3e9087815260200190565b60405180910390a35050505050565b5f6106357f8b73c3c69bb8fe3d512ecc4cf759cc79239f7b179b0ffacaa9a75d522b39400f611c7b603c5490565b603d546040805160208101859052908101839052606081018290524660808201523060a08201525f9060c0016040516020818303038152906040528051906020012090509392505050565b5f825f190484118302158202611cda575f80fd5b50910281810615159190040190565b6001600160a01b0383161580611d0657506001600160a01b038216155b15611d3757604051637db368a160e01b81526001600160a01b038085166004830152831660248201526044016107fa565b306001600160a01b03831603611d6057604051636d3bb4b960e11b815260040160405180910390fd5b6001600160a01b0383165f9081526073602052604090205480821115611d9f578381836040516315c29bad60e31b81526004016107fa939291906128c7565b6001600160a01b039384165f908152607360205260408082209284900390925592909316825291902080549091019055565b826001600160a01b0316846001600160a01b03167fddf252ad1be2c89b69c2b068fc378daa952ba7f163c4a11628f55a4df523b3ef84604051611e1691815260200190565b60405180910390a3826001600160a01b0316846001600160a01b03167f9d9c909296d9c674451c0c24f02cb64981eb3b727f99865939192f880a755dcb83604051611e6391815260200190565b60405180910390a350505050565b5f825f190484118302158202611e85575f80fd5b5091020490565b6103f581604051602401611ea09190612406565b60408051601f198184030181529190526020810180516001600160e01b031663104c13eb60e21b1790526120da565b611af58282604051602401611ee5929190612d60565b60408051601f198184030181529190526020810180516001600160e01b03166309710a9d60e41b1790526120da565b5f61146f8284612a68565b6070546040516331a2e95360e21b81526001600160a01b039091169063c68ba54c90611841908690869086906004016128c7565b5f6106da611f6e6b033b2e3c9fd0803ce80000006002611fba565b611f8f610af7856001600160a01b03165f9081526073602052604090205490565b6001600160a01b0385165f90815260736020526040902054610b0f90610ae79064e8d4a510006129e3565b5f61146f8284612e61565b5f8282611fd28183612e6c565b15611fde576001611fe0565b5f5b60ff16611fed8284612a68565b611ff79190612b9f565b95945050505050565b6001600160a01b0381165f9081526074602052604090208054600181018255905b50919050565b5f6106da612033611c4d565b8360405161190160f01b602082015260228101839052604281018290525f9060620160405160208183030381529060405280519060200120905092915050565b5f805f612082878787876120fa565b9150915061208f816121df565b5095945050505050565b603b54610100900460ff166120c05760405162461bcd60e51b81526004016107fa90612d15565b815160209283012081519190920120603c91909155603d55565b80516a636f6e736f6c652e6c6f67602083015f808483855afa5050505050565b5f807f7fffffffffffffffffffffffffffffff5d576e7357a4501ddfe92f46681b20a083111561212f57505f905060036121d6565b8460ff16601b1415801561214757508460ff16601c14155b1561215757505f905060046121d6565b604080515f8082526020820180845289905260ff881692820192909252606081018690526080810185905260019060a0016020604051602081039080840390855afa1580156121a8573d5f803e3d5ffd5b5050604051601f1901519150506001600160a01b0381166121d0575f600192509250506121d6565b91505f90505b94509492505050565b5f8160048111156121f2576121f26129fa565b036121fa5750565b600181600481111561220e5761220e6129fa565b0361225b5760405162461bcd60e51b815260206004820152601860248201527f45434453413a20696e76616c6964207369676e6174757265000000000000000060448201526064016107fa565b600281600481111561226f5761226f6129fa565b036122bc5760405162461bcd60e51b815260206004820152601f60248201527f45434453413a20696e76616c6964207369676e6174757265206c656e6774680060448201526064016107fa565b60038160048111156122d0576122d06129fa565b036123285760405162461bcd60e51b815260206004820152602260248201527f45434453413a20696e76616c6964207369676e6174757265202773272076616c604482015261756560f01b60648201526084016107fa565b600481600481111561233c5761233c6129fa565b036103f55760405162461bcd60e51b815260206004820152602260248201527f45434453413a20696e76616c6964207369676e6174757265202776272076616c604482015261756560f01b60648201526084016107fa565b6001600160a01b03811681146103f5575f80fd5b5f602082840312156123b8575f80fd5b813561146f81612394565b5f81518084525f5b818110156123e7576020818501810151868301820152016123cb565b505f602082860101526020601f19601f83011685010191505092915050565b602081525f61146f60208301846123c3565b5f8060408385031215612429575f80fd5b823561243481612394565b946020939093013593505050565b634e487b7160e01b5f52604160045260245ffd5b6060810181811067ffffffffffffffff8211171561247657612476612442565b60405250565b601f8201601f1916810167ffffffffffffffff811182821017156124a2576124a2612442565b6040525050565b5f82601f8301126124b8575f80fd5b813567ffffffffffffffff8111156124d2576124d2612442565b6040516124e9601f8301601f19166020018261247c565b8181528460208386010111156124fd575f80fd5b816020850160208301375f918101602001919091529392505050565b5f806040838503121561252a575f80fd5b823567ffffffffffffffff811115612540575f80fd5b61254c858286016124a9565b925050602083013561255d81612394565b809150509250929050565b5f60208284031215612578575f80fd5b5035919050565b5f805f8060808587031215612592575f80fd5b843561259d81612394565b935060208501356125ad81612394565b9250604085013567ffffffffffffffff808211156125c9575f80fd5b6125d5888389016124a9565b935060608701359150808211156125ea575f80fd5b506125f7878288016124a9565b91505092959194509250565b5f805f60608486031215612615575f80fd5b833561262081612394565b9250602084013561263081612394565b929592945050506040919091013590565b5f805f60608486031215612653575f80fd5b833567ffffffffffffffff811115612669575f80fd5b612675868287016124a9565b935050602084013561268681612394565b91506040840135801515811461269a575f80fd5b809150509250925092565b5f80604083850312156126b6575f80fd5b82359150602083013561255d81612394565b60ff811681146103f5575f80fd5b5f805f805f805f60e0888a0312156126ec575f80fd5b87356126f781612394565b9650602088013561270781612394565b955060408801359450606088013593506080880135612725816126c8565b9699959850939692959460a0840135945060c09093013592915050565b5f8060408385031215612753575f80fd5b823561275e81612394565b9150602083013561255d81612394565b600181811c9082168061278257607f821691505b60208210810361202157634e487b7160e01b5f52602260045260245ffd5b5f67ffffffffffffffff8211156127b9576127b9612442565b5060051b60200190565b80516127ce81612394565b919050565b5f80604083850312156127e4575f80fd5b825167ffffffffffffffff808211156127fb575f80fd5b908401906060828703121561280e575f80fd5b60405161281a81612456565b8251815260208084015181830152604084015183811115612839575f80fd5b80850194505087601f85011261284d575f80fd5b8351925061285a836127a0565b604051612867828261247c565b84815260059490941b8501820193828101915089851115612886575f80fd5b948201945b848610156128a45785518252948201949082019061288b565b80604085015250508195506128ba8188016127c3565b9450505050509250929050565b6001600160a01b039390931683526020830191909152604082015260600190565b6001600160a01b03831681526040602082018190525f90610e4d908301846123c3565b5f806040838503121561291c575f80fd5b505080516020909101519092909150565b5f60033d11156129435760045f803e505f5160e01c5b90565b5f60443d10156129535790565b6040516003193d81016004833e81513d67ffffffffffffffff816024840111818411171561298357505050505090565b828501915081518181111561299b5750505050505090565b843d87010160208285010111156129b55750505050505090565b6129c46020828601018761247c565b509095945050505050565b634e487b7160e01b5f52601160045260245ffd5b80820281158282048414176106da576106da6129cf565b634e487b7160e01b5f52602160045260245ffd5b600281106103f557634e487b7160e01b5f52602160045260245ffd5b60208101612a3783612a0e565b91905290565b5f60208284031215612a4d575f80fd5b5051919050565b634e487b7160e01b5f52601260045260245ffd5b5f82612a7657612a76612a54565b500490565b601f821115612abf57805f5260205f20601f840160051c81016020851015612aa05750805b601f840160051c820191505b81811015610d9d575f8155600101612aac565b505050565b815167ffffffffffffffff811115612ade57612ade612442565b612af281612aec845461276e565b84612a7b565b602080601f831160018114612b25575f8415612b0e5750858301515b5f19600386901b1c1916600185901b178555612b7c565b5f85815260208120601f198616915b82811015612b5357888601518255948401946001909101908401612b34565b5085821015612b7057878501515f19600388901b60f8161c191681555b505060018460011b0185555b505050505050565b5f60208284031215612b94575f80fd5b815161146f816126c8565b808201808211156106da576106da6129cf565b5f60608284031215612bc2575f80fd5b604051612bce81612456565b8091508251815260208301516020820152604083015160408201525092915050565b5f6020808385031215612c01575f80fd5b825167ffffffffffffffff811115612c17575f80fd5b8301601f81018513612c27575f80fd5b8051612c32816127a0565b604051612c3f828261247c565b828152602060609384028501810193908201925088841115612c5f575f80fd5b6020850194505b83851015612c8757612c788986612bb2565b83529384019391850191612c66565b50979650505050505050565b634e487b7160e01b5f52603260045260245ffd5b8181035f831280158383131683831282161715612cc657612cc66129cf565b5092915050565b5f8060808385031215612cde575f80fd5b612ce88484612bb2565b9150606083015161255d81612394565b82815260408101612d0883612a0e565b8260208301529392505050565b6020808252602b908201527f496e697469616c697a61626c653a20636f6e7472616374206973206e6f74206960408201526a6e697469616c697a696e6760a81b606082015260800190565b604081525f612d7260408301856123c3565b90508260208301529392505050565b600181815b80851115612dbb57815f1904821115612da157612da16129cf565b80851615612dae57918102915b93841c9390800290612d86565b509250929050565b5f82612dd1575060016106da565b81612ddd57505f6106da565b8160018114612df35760028114612dfd57612e19565b60019150506106da565b60ff841115612e0e57612e0e6129cf565b50506001821b6106da565b5060208310610133831016604e8410600b8410161715612e3c575081810a6106da565b612e468383612d81565b805f1904821115612e5957612e596129cf565b029392505050565b5f61146f8383612dc3565b5f82612e7a57612e7a612a54565b50069056fe626c6f636b2e74696d657374616d7020696e2062616c616e63654f66202a2a2a2a2a2a3a20a26469706673582212206f3ecc1d953979e72276c8d902caa15af050c97c4e9ad9f2a0588a4c496cb23164736f6c63430008180033","linkReferences":{"contracts/libraries/Uint512.sol":{"Uint512":[{"start":6833,"length":20},{"start":6965,"length":20}]}}},"methodIdentifiers":{"DOMAIN_SEPARATOR()":"3644e515","FORMAT_DECIMALS()":"a01c8774","allowance(address,address)":"dd62ed3e","approve(address,uint256)":"095ea7b3","asset()":"38d52e0f","balanceOf(address)":"70a08231","balanceOf2(address)":"7f5b002e","claimReward()":"b88a802f","convertToOzTokens(uint256,address)":"bc93f1cf","convertToShares(uint256,address)":"d295fa9a","convertToSharesFromOzBalance(uint256)":"69e41c62","convertToUnderlying(uint256)":"1dc7f521","decimals()":"313ce567","decreaseAllowance(address,uint256)":"a457c2d7","earned(address)":"008cc262","getRewardsData()":"7d098e64","increaseAllowance(address,uint256)":"39509351","initialize(address,address,string,string)":"2016a0d2","lastTimeRewardApplicable()":"80faa57d","mint(bytes,address)":"0cae37f1","mint2(bytes,address,bool)":"7b044637","name()":"06fdde03","nonces(address)":"7ecebe00","notifyRewardAmount(uint256)":"3c6b16ab","permit(address,address,uint256,uint256,uint8,bytes32,bytes32)":"d505accf","redeem(bytes,address)":"0ba097d6","rewardPerToken()":"cd3daf9d","setRewardsDuration(uint256)":"cc1a378f","sharesOf(address)":"f5eb42dc","symbol()":"95d89b41","totalAssets()":"01e1d114","totalShares()":"3a98ef39","totalSupply()":"18160ddd","transfer(address,uint256)":"a9059cbb","transferFrom(address,address,uint256)":"23b872dd","transferShares(address,uint256)":"8fcb4e5b","transferSharesFrom(address,address,uint256)":"6d780459"},"id":46}