{
  "abi": [
    {
      "inputs": [],
      "stateMutability": "nonpayable",
      "type": "constructor"
    },
    {
      "inputs": [
        {
          "internalType": "address",
          "name": "sender",
          "type": "address"
        },
        {
          "internalType": "uint256",
          "name": "shares",
          "type": "uint256"
        },
        {
          "internalType": "uint256",
          "name": "sharesNeeded",
          "type": "uint256"
        }
      ],
      "name": "ERC20InsufficientBalance",
      "type": "error"
    },
    {
      "inputs": [
        {
          "internalType": "address",
          "name": "receiver",
          "type": "address"
        }
      ],
      "name": "ERC20InvalidReceiver",
      "type": "error"
    },
    {
      "inputs": [
        {
          "internalType": "address",
          "name": "sender",
          "type": "address"
        }
      ],
      "name": "ERC20InvalidSender",
      "type": "error"
    },
    {
      "inputs": [
        {
          "internalType": "uint256",
          "name": "deadline",
          "type": "uint256"
        },
        {
          "internalType": "uint256",
          "name": "blockTimestamp",
          "type": "uint256"
        }
      ],
      "name": "ERC2612ExpiredDeadline",
      "type": "error"
    },
    {
      "inputs": [
        {
          "internalType": "address",
          "name": "owner",
          "type": "address"
        },
        {
          "internalType": "address",
          "name": "spender",
          "type": "address"
        }
      ],
      "name": "ERC2612InvalidSignature",
      "type": "error"
    },
    {
      "inputs": [
        {
          "internalType": "address",
          "name": "sender",
          "type": "address"
        },
        {
          "internalType": "uint256",
          "name": "shares",
          "type": "uint256"
        },
        {
          "internalType": "uint256",
          "name": "sharesNeeded",
          "type": "uint256"
        }
      ],
      "name": "USDMInsufficientBurnBalance",
      "type": "error"
    },
    {
      "anonymous": false,
      "inputs": [
        {
          "indexed": true,
          "internalType": "address",
          "name": "owner",
          "type": "address"
        },
        {
          "indexed": true,
          "internalType": "address",
          "name": "spender",
          "type": "address"
        },
        {
          "indexed": false,
          "internalType": "uint256",
          "name": "value",
          "type": "uint256"
        }
      ],
      "name": "Approval",
      "type": "event"
    },
    {
      "anonymous": false,
      "inputs": [
        {
          "indexed": false,
          "internalType": "uint8",
          "name": "version",
          "type": "uint8"
        }
      ],
      "name": "Initialized",
      "type": "event"
    },
    {
      "anonymous": false,
      "inputs": [
        {
          "indexed": true,
          "internalType": "address",
          "name": "from",
          "type": "address"
        },
        {
          "indexed": true,
          "internalType": "address",
          "name": "to",
          "type": "address"
        },
        {
          "indexed": false,
          "internalType": "uint256",
          "name": "value",
          "type": "uint256"
        }
      ],
      "name": "Transfer",
      "type": "event"
    },
    {
      "inputs": [],
      "name": "DOMAIN_SEPARATOR",
      "outputs": [
        {
          "internalType": "bytes32",
          "name": "",
          "type": "bytes32"
        }
      ],
      "stateMutability": "view",
      "type": "function"
    },
    {
      "inputs": [],
      "name": "FORMAT_DECIMALS",
      "outputs": [
        {
          "internalType": "uint256",
          "name": "",
          "type": "uint256"
        }
      ],
      "stateMutability": "view",
      "type": "function"
    },
    {
      "inputs": [
        {
          "internalType": "address",
          "name": "owner",
          "type": "address"
        },
        {
          "internalType": "address",
          "name": "spender",
          "type": "address"
        }
      ],
      "name": "allowance",
      "outputs": [
        {
          "internalType": "uint256",
          "name": "",
          "type": "uint256"
        }
      ],
      "stateMutability": "view",
      "type": "function"
    },
    {
      "inputs": [
        {
          "internalType": "address",
          "name": "spender",
          "type": "address"
        },
        {
          "internalType": "uint256",
          "name": "amount",
          "type": "uint256"
        }
      ],
      "name": "approve",
      "outputs": [
        {
          "internalType": "bool",
          "name": "",
          "type": "bool"
        }
      ],
      "stateMutability": "nonpayable",
      "type": "function"
    },
    {
      "inputs": [],
      "name": "asset",
      "outputs": [
        {
          "internalType": "address",
          "name": "",
          "type": "address"
        }
      ],
      "stateMutability": "view",
      "type": "function"
    },
    {
      "inputs": [
        {
          "internalType": "address",
          "name": "account_",
          "type": "address"
        }
      ],
      "name": "balanceOf",
      "outputs": [
        {
          "internalType": "uint256",
          "name": "",
          "type": "uint256"
        }
      ],
      "stateMutability": "view",
      "type": "function"
    },
    {
      "inputs": [
        {
          "internalType": "uint256",
          "name": "shares",
          "type": "uint256"
        }
      ],
      "name": "convertToAssets",
      "outputs": [
        {
          "internalType": "uint256",
          "name": "assets",
          "type": "uint256"
        }
      ],
      "stateMutability": "view",
      "type": "function"
    },
    {
      "inputs": [
        {
          "internalType": "uint256",
          "name": "assets",
          "type": "uint256"
        }
      ],
      "name": "convertToShares",
      "outputs": [
        {
          "internalType": "uint256",
          "name": "shares",
          "type": "uint256"
        }
      ],
      "stateMutability": "view",
      "type": "function"
    },
    {
      "inputs": [
        {
          "internalType": "uint256",
          "name": "shares_",
          "type": "uint256"
        }
      ],
      "name": "convertToUnderlying",
      "outputs": [
        {
          "internalType": "uint256",
          "name": "amountUnderlying",
          "type": "uint256"
        }
      ],
      "stateMutability": "view",
      "type": "function"
    },
    {
      "inputs": [],
      "name": "decimals",
      "outputs": [
        {
          "internalType": "uint8",
          "name": "",
          "type": "uint8"
        }
      ],
      "stateMutability": "view",
      "type": "function"
    },
    {
      "inputs": [
        {
          "internalType": "address",
          "name": "spender",
          "type": "address"
        },
        {
          "internalType": "uint256",
          "name": "subtractedValue",
          "type": "uint256"
        }
      ],
      "name": "decreaseAllowance",
      "outputs": [
        {
          "internalType": "bool",
          "name": "",
          "type": "bool"
        }
      ],
      "stateMutability": "nonpayable",
      "type": "function"
    },
    {
      "inputs": [
        {
          "internalType": "address",
          "name": "spender",
          "type": "address"
        },
        {
          "internalType": "uint256",
          "name": "addedValue",
          "type": "uint256"
        }
      ],
      "name": "increaseAllowance",
      "outputs": [
        {
          "internalType": "bool",
          "name": "",
          "type": "bool"
        }
      ],
      "stateMutability": "nonpayable",
      "type": "function"
    },
    {
      "inputs": [
        {
          "internalType": "address",
          "name": "underlying_",
          "type": "address"
        },
        {
          "internalType": "address",
          "name": "diamond_",
          "type": "address"
        },
        {
          "internalType": "string",
          "name": "name_",
          "type": "string"
        },
        {
          "internalType": "string",
          "name": "symbol_",
          "type": "string"
        }
      ],
      "name": "initialize",
      "outputs": [],
      "stateMutability": "nonpayable",
      "type": "function"
    },
    {
      "inputs": [
        {
          "internalType": "address",
          "name": "",
          "type": "address"
        }
      ],
      "name": "maxDeposit",
      "outputs": [
        {
          "internalType": "uint256",
          "name": "",
          "type": "uint256"
        }
      ],
      "stateMutability": "view",
      "type": "function"
    },
    {
      "inputs": [
        {
          "internalType": "bytes",
          "name": "data_",
          "type": "bytes"
        }
      ],
      "name": "mint",
      "outputs": [
        {
          "internalType": "uint256",
          "name": "",
          "type": "uint256"
        }
      ],
      "stateMutability": "nonpayable",
      "type": "function"
    },
    {
      "inputs": [],
      "name": "name",
      "outputs": [
        {
          "internalType": "string",
          "name": "",
          "type": "string"
        }
      ],
      "stateMutability": "view",
      "type": "function"
    },
    {
      "inputs": [
        {
          "internalType": "address",
          "name": "owner",
          "type": "address"
        }
      ],
      "name": "nonces",
      "outputs": [
        {
          "internalType": "uint256",
          "name": "",
          "type": "uint256"
        }
      ],
      "stateMutability": "view",
      "type": "function"
    },
    {
      "inputs": [
        {
          "internalType": "address",
          "name": "owner",
          "type": "address"
        },
        {
          "internalType": "address",
          "name": "spender",
          "type": "address"
        },
        {
          "internalType": "uint256",
          "name": "value",
          "type": "uint256"
        },
        {
          "internalType": "uint256",
          "name": "deadline",
          "type": "uint256"
        },
        {
          "internalType": "uint8",
          "name": "v",
          "type": "uint8"
        },
        {
          "internalType": "bytes32",
          "name": "r",
          "type": "bytes32"
        },
        {
          "internalType": "bytes32",
          "name": "s_",
          "type": "bytes32"
        }
      ],
      "name": "permit",
      "outputs": [],
      "stateMutability": "nonpayable",
      "type": "function"
    },
    {
      "inputs": [
        {
          "internalType": "uint256",
          "name": "assets_",
          "type": "uint256"
        }
      ],
      "name": "previewDeposit",
      "outputs": [
        {
          "internalType": "uint256",
          "name": "",
          "type": "uint256"
        }
      ],
      "stateMutability": "view",
      "type": "function"
    },
    {
      "inputs": [
        {
          "internalType": "uint256",
          "name": "shares_",
          "type": "uint256"
        }
      ],
      "name": "previewRedeem",
      "outputs": [
        {
          "internalType": "uint256",
          "name": "",
          "type": "uint256"
        }
      ],
      "stateMutability": "view",
      "type": "function"
    },
    {
      "inputs": [
        {
          "internalType": "uint256",
          "name": "assets",
          "type": "uint256"
        }
      ],
      "name": "previewWithdraw",
      "outputs": [
        {
          "internalType": "uint256",
          "name": "",
          "type": "uint256"
        }
      ],
      "stateMutability": "view",
      "type": "function"
    },
    {
      "inputs": [
        {
          "internalType": "bytes",
          "name": "data_",
          "type": "bytes"
        }
      ],
      "name": "redeem",
      "outputs": [
        {
          "internalType": "uint256",
          "name": "",
          "type": "uint256"
        }
      ],
      "stateMutability": "nonpayable",
      "type": "function"
    },
    {
      "inputs": [
        {
          "internalType": "address",
          "name": "account_",
          "type": "address"
        }
      ],
      "name": "sharesOf",
      "outputs": [
        {
          "internalType": "uint256",
          "name": "",
          "type": "uint256"
        }
      ],
      "stateMutability": "view",
      "type": "function"
    },
    {
      "inputs": [],
      "name": "symbol",
      "outputs": [
        {
          "internalType": "string",
          "name": "",
          "type": "string"
        }
      ],
      "stateMutability": "view",
      "type": "function"
    },
    {
      "inputs": [],
      "name": "totalAssets",
      "outputs": [
        {
          "internalType": "uint256",
          "name": "",
          "type": "uint256"
        }
      ],
      "stateMutability": "view",
      "type": "function"
    },
    {
      "inputs": [],
      "name": "totalShares",
      "outputs": [
        {
          "internalType": "uint256",
          "name": "",
          "type": "uint256"
        }
      ],
      "stateMutability": "view",
      "type": "function"
    },
    {
      "inputs": [],
      "name": "totalSupply",
      "outputs": [
        {
          "internalType": "uint256",
          "name": "",
          "type": "uint256"
        }
      ],
      "stateMutability": "view",
      "type": "function"
    },
    {
      "inputs": [
        {
          "internalType": "address",
          "name": "to",
          "type": "address"
        },
        {
          "internalType": "uint256",
          "name": "amount",
          "type": "uint256"
        }
      ],
      "name": "transfer",
      "outputs": [
        {
          "internalType": "bool",
          "name": "",
          "type": "bool"
        }
      ],
      "stateMutability": "nonpayable",
      "type": "function"
    },
    {
      "inputs": [
        {
          "internalType": "address",
          "name": "from",
          "type": "address"
        },
        {
          "internalType": "address",
          "name": "to",
          "type": "address"
        },
        {
          "internalType": "uint256",
          "name": "amount",
          "type": "uint256"
        }
      ],
      "name": "transferFrom",
      "outputs": [
        {
          "internalType": "bool",
          "name": "",
          "type": "bool"
        }
      ],
      "stateMutability": "nonpayable",
      "type": "function"
    }
  ],
  "bytecode": {
    "object": "0x608060405234801561001057600080fd5b5061001961001e565b6100de565b600054610100900460ff161561008a5760405162461bcd60e51b815260206004820152602760248201527f496e697469616c697a61626c653a20636f6e747261637420697320696e697469604482015266616c697a696e6760c81b606482015260840160405180910390fd5b60005460ff90811610156100dc576000805460ff191660ff9081179091556040519081527f7f26b83ff96e1f2b6a682f133852f6798a09c465da95921460cefb38474024989060200160405180910390a15b565b611c79806100ed6000396000f3fe608060405234801561001057600080fd5b50600436106101cf5760003560e01c8063402d267d11610104578063a01c8774116100a2578063d505accf11610071578063d505accf14610382578063dd62ed3e14610395578063ef8b30f7146103a8578063f5eb42dc146103bb57600080fd5b8063a01c877414610353578063a457c2d71461035c578063a9059cbb1461036f578063c6e6f5921461023657600080fd5b80637ba0e2e7116100de5780637ba0e2e7146103125780637ecebe001461032557806395d89b41146103385780639945e3d31461034057600080fd5b8063402d267d146102d95780634cdad506146102ec57806370a08231146102ff57600080fd5b80632016a0d2116101715780633644e5151161014b5780633644e5151461029b57806338d52e0f146102a357806339509351146102be5780633a98ef39146102d157600080fd5b80632016a0d21461026457806323b872dd14610279578063313ce5671461028c57600080fd5b8063095ea7b3116101ad578063095ea7b3146102135780630a28a4771461023657806318160ddd146102495780631dc7f5211461025157600080fd5b806301e1d114146101d457806306fdde03146101eb57806307a2d13a14610200575b600080fd5b6038545b6040519081526020015b60405180910390f35b6101f36103e4565b6040516101e291906115e8565b6101d861020e366004611602565b610476565b610226610221366004611630565b610487565b60405190151581526020016101e2565b6101d8610244366004611602565b61049d565b6101d86104a8565b6101d861025f366004611602565b6104ca565b610277610272366004611708565b61055b565b005b610226610287366004611791565b61075e565b604051601281526020016101e2565b6101d8610780565b6036546040516001600160a01b0390911681526020016101e2565b6102266102cc366004611630565b61078a565b6037546101d8565b6101d86102e73660046117d2565b6107ab565b6101d86102fa366004611602565b6107c9565b6101d861030d3660046117d2565b6107d4565b6101d86103203660046117ef565b6107f6565b6101d86103333660046117d2565b61093a565b6101f3610958565b6101d861034e3660046117ef565b610967565b6101d8603e5481565b61022661036a366004611630565b610aa9565b61022661037d366004611630565b610b23565b61027761039036600461184f565b610b30565b6101d86103a33660046118c0565b610c52565b6101d86103b6366004611602565b610c7d565b6101d86103c93660046117d2565b6001600160a01b031660009081526039602052604090205490565b6060603c80546103f3906118f9565b80601f016020809104026020016040519081016040528092919081815260200182805461041f906118f9565b801561046c5780601f106104415761010080835404028352916020019161046c565b820191906000526020600020905b81548152906001019060200180831161044f57829003601f168201915b5050505050905090565b600061048182610c88565b92915050565b6000610494338484610d30565b50600192915050565b600061048182610e54565b60006037546000146104c4576104bf603754610c88565b905090565b50600090565b60006104d560375490565b60355460405163a4fc284b60e01b81526001600160a01b039091169063a4fc284b9061050690600190600401611943565b602060405180830381865afa158015610523573d6000803e3d6000fd5b505050506040513d601f19601f82011682018060405250810190610547919061196b565b610551908461199a565b61048191906119b1565b600054610100900460ff161580801561057b5750600054600160ff909116105b806105955750303b158015610595575060005460ff166001145b6105fd5760405162461bcd60e51b815260206004820152602e60248201527f496e697469616c697a61626c653a20636f6e747261637420697320616c72656160448201526d191e481a5b9a5d1a585b1a5e995960921b60648201526084015b60405180910390fd5b6000805460ff191660011790558015610620576000805461ff0019166101001790555b603c61062c8482611a22565b50603d6106398382611a22565b50603580546001600160a01b038087166001600160a01b03199283161790925560368054928816929091169190911790556040805180820190915260018152603160f81b602082015261068d908490610ee1565b846001600160a01b031663313ce5676040518163ffffffff1660e01b8152600401602060405180830381865afa1580156106cb573d6000803e3d6000fd5b505050506040513d601f19601f820116820180604052508101906106ef9190611ae2565b60ff16601214610700576001610707565b64e8d4a510005b64ffffffffff16603e558015610757576000805461ff0019169055604051600181527f7f26b83ff96e1f2b6a682f133852f6798a09c465da95921460cefb38474024989060200160405180910390a15b5050505050565b600061076b843384610f16565b610776848484610f90565b5060019392505050565b60006104bf61108b565b600061049433848461079c3388610c52565b6107a69190611aff565b610d30565b60006107b5611106565b6107c0576000610481565b60001992915050565b600061048182611127565b6001600160a01b03811660009081526039602052604081205461048190610476565b60008060008380602001905181019061080f9190611b12565b91509150600061082283600001516111b3565b6035549091506001600160a01b031663b50f68fd6108486036546001600160a01b031690565b604080516001600160e01b031960e085901b1681526001600160a01b0390921660048301523360248301528651604483015260208701516064830152860151608482015260a401600060405180830381600087803b1580156108a957600080fd5b505af11580156108bd573d6000803e3d6000fd5b5050505060006108cc60375490565b156108df576108da82610c7d565b6108e1565b815b905081603860008282546108f59190611aff565b92505081905550806037600082825461090e9190611aff565b90915550506001600160a01b039092166000908152603960205260409020805483019055509392505050565b6001600160a01b0381166000908152603a6020526040812054610481565b6060603d80546103f3906118f9565b6000808280602001905181019061097e9190611b87565b50505050905060006109a5336001600160a01b031660009081526039602052604090205490565b905060006109b28361049d565b9050808210156109e557604051633803cef960e11b815233600482015260248101839052604481018290526064016105f4565b60006109f0826107c9565b6035546040516314370d6760e31b81529192506000916001600160a01b039091169063a1b86b3890610a289033908b90600401611bd4565b6020604051808303816000875af1158015610a47573d6000803e3d6000fd5b505050506040513d601f19601f82011682018060405250810190610a6b919061196b565b6035546001600160a01b0316600090815260396020526040812080549190556037805491909103905560388054939093039092555095945050505050565b600080610ab63385610c52565b905082811015610b165760405162461bcd60e51b815260206004820152602560248201527f45524332303a2064656372656173656420616c6c6f77616e63652062656c6f77604482015264207a65726f60d81b60648201526084016105f4565b6107763385858403610d30565b6000610494338484610f90565b83421115610b5a5760405163233730db60e11b8152600481018590524260248201526044016105f4565b60007f6e71edae12b1b97f4d1f60370fef10105fa2faae0126114a169c64845d6126c9888888610b898c6111c3565b6040805160208101969096526001600160a01b0394851690860152929091166060840152608083015260a082015260c0810186905260e0016040516020818303038152906040528051906020012090506000610be4826111eb565b90506000610bf482878787611239565b9050896001600160a01b0316816001600160a01b031614610c3b57604051630189c63360e31b81526001600160a01b03808c1660048301528a1660248201526044016105f4565b610c468a8a8a610d30565b50505050505050505050565b6001600160a01b039182166000908152603b6020908152604080832093909416825291909152205490565b600061048182611261565b6000610481610c9660375490565b15610ca357603754610ca6565b60015b603560009054906101000a90046001600160a01b03166001600160a01b03166345089e296040518163ffffffff1660e01b8152600401602060405180830381865afa158015610cf9573d6000803e3d6000fd5b505050506040513d601f19601f82011682018060405250810190610d1d919061196b565b610d2791906119b1565b83906001611277565b6001600160a01b038316610d925760405162461bcd60e51b8152602060048201526024808201527f45524332303a20617070726f76652066726f6d20746865207a65726f206164646044820152637265737360e01b60648201526084016105f4565b6001600160a01b038216610df35760405162461bcd60e51b815260206004820152602260248201527f45524332303a20617070726f766520746f20746865207a65726f206164647265604482015261737360f01b60648201526084016105f4565b6001600160a01b038381166000818152603b602090815260408083209487168084529482529182902085905590518481527f8c5be1e5ebec7d5bd14f71427d1e84f3dd0314c0f7b2291e5b200ac8c7c3b925910160405180910390a3505050565b6000610481610e6260375490565b603560009054906101000a90046001600160a01b03166001600160a01b03166345089e296040518163ffffffff1660e01b8152600401602060405180830381865afa158015610eb5573d6000803e3d6000fd5b505050506040513d601f19601f82011682018060405250810190610ed9919061196b565b849190611295565b600054610100900460ff16610f085760405162461bcd60e51b81526004016105f490611bf8565b610f1282826112bb565b5050565b6000610f228484610c52565b90506000198114610f8a5781811015610f7d5760405162461bcd60e51b815260206004820152601d60248201527f45524332303a20696e73756666696369656e7420616c6c6f77616e636500000060448201526064016105f4565b610f8a8484848403610d30565b50505050565b6001600160a01b038316610fc257604051634b637e8f60e11b81526001600160a01b03841660048201526024016105f4565b6001600160a01b038216610ff45760405163ec442f0560e01b81526001600160a01b03831660048201526024016105f4565b6000610fff8261049d565b6001600160a01b038516600090815260396020526040902054909150818110156110555760405163391434e360e21b81526001600160a01b038616600482015260248101829052604481018390526064016105f4565b6001600160a01b039485166000908152603960205260408082209284900390925593909416835292909120805490920190915550565b60006104bf7f8b73c3c69bb8fe3d512ecc4cf759cc79239f7b179b0ffacaa9a75d522b39400f6110ba60015490565b6002546040805160208101859052908101839052606081018290524660808201523060a082015260009060c0016040516020818303038152906040528051906020012090509392505050565b60008061111260385490565b11806104bf57506111216104a8565b15905090565b6000610481603560009054906101000a90046001600160a01b03166001600160a01b03166345089e296040518163ffffffff1660e01b8152600401602060405180830381865afa15801561117f573d6000803e3d6000fd5b505050506040513d601f19601f820116820180604052508101906111a3919061196b565b6111ab6104a8565b849190611277565b6000603e548261048191906119b1565b6001600160a01b0381166000908152603a602052604090208054600181018255905b50919050565b60006104816111f861108b565b8360405161190160f01b6020820152602281018390526042810182905260009060620160405160208183030381529060405280519060200120905092915050565b600080600061124a878787876112fc565b91509150611257816113e9565b5095945050505050565b600061048161126f60375490565b6038546111ab565b600082600019048411830215820261128e57600080fd5b5091020490565b60008260001904841183021582026112ac57600080fd5b50910281810615159190040190565b600054610100900460ff166112e25760405162461bcd60e51b81526004016105f490611bf8565b815160209283012081519190920120600191909155600255565b6000807f7fffffffffffffffffffffffffffffff5d576e7357a4501ddfe92f46681b20a083111561133357506000905060036113e0565b8460ff16601b1415801561134b57508460ff16601c14155b1561135c57506000905060046113e0565b6040805160008082526020820180845289905260ff881692820192909252606081018690526080810185905260019060a0016020604051602081039080840390855afa1580156113b0573d6000803e3d6000fd5b5050604051601f1901519150506001600160a01b0381166113d9576000600192509250506113e0565b9150600090505b94509492505050565b60008160048111156113fd576113fd61192d565b036114055750565b60018160048111156114195761141961192d565b036114665760405162461bcd60e51b815260206004820152601860248201527f45434453413a20696e76616c6964207369676e6174757265000000000000000060448201526064016105f4565b600281600481111561147a5761147a61192d565b036114c75760405162461bcd60e51b815260206004820152601f60248201527f45434453413a20696e76616c6964207369676e6174757265206c656e6774680060448201526064016105f4565b60038160048111156114db576114db61192d565b036115335760405162461bcd60e51b815260206004820152602260248201527f45434453413a20696e76616c6964207369676e6174757265202773272076616c604482015261756560f01b60648201526084016105f4565b60048160048111156115475761154761192d565b0361159f5760405162461bcd60e51b815260206004820152602260248201527f45434453413a20696e76616c6964207369676e6174757265202776272076616c604482015261756560f01b60648201526084016105f4565b50565b6000815180845260005b818110156115c8576020818501810151868301820152016115ac565b506000602082860101526020601f19601f83011685010191505092915050565b6020815260006115fb60208301846115a2565b9392505050565b60006020828403121561161457600080fd5b5035919050565b6001600160a01b038116811461159f57600080fd5b6000806040838503121561164357600080fd5b823561164e8161161b565b946020939093013593505050565b634e487b7160e01b600052604160045260246000fd5b600067ffffffffffffffff8084111561168d5761168d61165c565b604051601f8501601f19908116603f011681019082821181831017156116b5576116b561165c565b816040528093508581528686860111156116ce57600080fd5b858560208301376000602087830101525050509392505050565b600082601f8301126116f957600080fd5b6115fb83833560208501611672565b6000806000806080858703121561171e57600080fd5b84356117298161161b565b935060208501356117398161161b565b9250604085013567ffffffffffffffff8082111561175657600080fd5b611762888389016116e8565b9350606087013591508082111561177857600080fd5b50611785878288016116e8565b91505092959194509250565b6000806000606084860312156117a657600080fd5b83356117b18161161b565b925060208401356117c18161161b565b929592945050506040919091013590565b6000602082840312156117e457600080fd5b81356115fb8161161b565b60006020828403121561180157600080fd5b813567ffffffffffffffff81111561181857600080fd5b8201601f8101841361182957600080fd5b61183884823560208401611672565b949350505050565b60ff8116811461159f57600080fd5b600080600080600080600060e0888a03121561186a57600080fd5b87356118758161161b565b965060208801356118858161161b565b9550604088013594506060880135935060808801356118a381611840565b9699959850939692959460a0840135945060c09093013592915050565b600080604083850312156118d357600080fd5b82356118de8161161b565b915060208301356118ee8161161b565b809150509250929050565b600181811c9082168061190d57607f821691505b6020821081036111e557634e487b7160e01b600052602260045260246000fd5b634e487b7160e01b600052602160045260246000fd5b602081016002831061196557634e487b7160e01b600052602160045260246000fd5b91905290565b60006020828403121561197d57600080fd5b5051919050565b634e487b7160e01b600052601160045260246000fd5b808202811582820484141761048157610481611984565b6000826119ce57634e487b7160e01b600052601260045260246000fd5b500490565b601f821115611a1d57600081815260208120601f850160051c810160208610156119fa5750805b601f850160051c820191505b81811015611a1957828155600101611a06565b5050505b505050565b815167ffffffffffffffff811115611a3c57611a3c61165c565b611a5081611a4a84546118f9565b846119d3565b602080601f831160018114611a855760008415611a6d5750858301515b600019600386901b1c1916600185901b178555611a19565b600085815260208120601f198616915b82811015611ab457888601518255948401946001909101908401611a95565b5085821015611ad25787850151600019600388901b60f8161c191681555b5050505050600190811b01905550565b600060208284031215611af457600080fd5b81516115fb81611840565b8082018082111561048157610481611984565b6000808284036080811215611b2657600080fd5b6060811215611b3457600080fd5b506040516060810181811067ffffffffffffffff82111715611b5857611b5861165c565b80604052508351815260208401516020820152604084015160408201528092505060608301516118ee8161161b565b600080600080600060a08688031215611b9f57600080fd5b855194506020860151935060408601519250606086015191506080860151611bc68161161b565b809150509295509295909350565b6001600160a01b0383168152604060208201819052600090611838908301846115a2565b6020808252602b908201527f496e697469616c697a61626c653a20636f6e7472616374206973206e6f74206960408201526a6e697469616c697a696e6760a81b60608201526080019056fea26469706673582212203d71af1b552795c5bcf3377f4f3e69ee1af7203e3e1f7d89e4ce5d699cd355bf64736f6c63430008150033",
    "linkReferences": {}
  },
  "methodIdentifiers": {
    "DOMAIN_SEPARATOR()": "3644e515",
    "FORMAT_DECIMALS()": "a01c8774",
    "allowance(address,address)": "dd62ed3e",
    "approve(address,uint256)": "095ea7b3",
    "asset()": "38d52e0f",
    "balanceOf(address)": "70a08231",
    "convertToAssets(uint256)": "07a2d13a",
    "convertToShares(uint256)": "c6e6f592",
    "convertToUnderlying(uint256)": "1dc7f521",
    "decimals()": "313ce567",
    "decreaseAllowance(address,uint256)": "a457c2d7",
    "increaseAllowance(address,uint256)": "39509351",
    "initialize(address,address,string,string)": "2016a0d2",
    "maxDeposit(address)": "402d267d",
    "mint(bytes)": "7ba0e2e7",
    "name()": "06fdde03",
    "nonces(address)": "7ecebe00",
    "permit(address,address,uint256,uint256,uint8,bytes32,bytes32)": "d505accf",
    "previewDeposit(uint256)": "ef8b30f7",
    "previewRedeem(uint256)": "4cdad506",
    "previewWithdraw(uint256)": "0a28a477",
    "redeem(bytes)": "9945e3d3",
    "sharesOf(address)": "f5eb42dc",
    "symbol()": "95d89b41",
    "totalAssets()": "01e1d114",
    "totalShares()": "3a98ef39",
    "totalSupply()": "18160ddd",
    "transfer(address,uint256)": "a9059cbb",
    "transferFrom(address,address,uint256)": "23b872dd"
  },
  "id": 26
}