{
  "abi": [
    {
      "inputs": [
        {
          "internalType": "string",
          "name": "name_",
          "type": "string"
        },
        {
          "internalType": "string",
          "name": "symbol_",
          "type": "string"
        }
      ],
      "stateMutability": "nonpayable",
      "type": "constructor"
    },
    {
      "anonymous": false,
      "inputs": [
        {
          "indexed": true,
          "internalType": "address",
          "name": "owner",
          "type": "address"
        },
        {
          "indexed": true,
          "internalType": "address",
          "name": "spender",
          "type": "address"
        },
        {
          "indexed": false,
          "internalType": "uint256",
          "name": "value",
          "type": "uint256"
        }
      ],
      "name": "Approval",
      "type": "event"
    },
    {
      "anonymous": false,
      "inputs": [
        {
          "indexed": true,
          "internalType": "address",
          "name": "from",
          "type": "address"
        },
        {
          "indexed": true,
          "internalType": "address",
          "name": "to",
          "type": "address"
        },
        {
          "indexed": false,
          "internalType": "uint256",
          "name": "value",
          "type": "uint256"
        }
      ],
      "name": "Transfer",
      "type": "event"
    },
    {
      "inputs": [
        {
          "internalType": "address",
          "name": "owner",
          "type": "address"
        },
        {
          "internalType": "address",
          "name": "spender",
          "type": "address"
        }
      ],
      "name": "allowance",
      "outputs": [
        {
          "internalType": "uint256",
          "name": "",
          "type": "uint256"
        }
      ],
      "stateMutability": "view",
      "type": "function"
    },
    {
      "inputs": [
        {
          "internalType": "address",
          "name": "spender",
          "type": "address"
        },
        {
          "internalType": "uint256",
          "name": "amount",
          "type": "uint256"
        }
      ],
      "name": "approve",
      "outputs": [
        {
          "internalType": "bool",
          "name": "",
          "type": "bool"
        }
      ],
      "stateMutability": "nonpayable",
      "type": "function"
    },
    {
      "inputs": [
        {
          "internalType": "address",
          "name": "account",
          "type": "address"
        }
      ],
      "name": "balanceOf",
      "outputs": [
        {
          "internalType": "uint256",
          "name": "",
          "type": "uint256"
        }
      ],
      "stateMutability": "view",
      "type": "function"
    },
    {
      "inputs": [],
      "name": "decimals",
      "outputs": [
        {
          "internalType": "uint8",
          "name": "",
          "type": "uint8"
        }
      ],
      "stateMutability": "view",
      "type": "function"
    },
    {
      "inputs": [
        {
          "internalType": "address",
          "name": "spender",
          "type": "address"
        },
        {
          "internalType": "uint256",
          "name": "subtractedValue",
          "type": "uint256"
        }
      ],
      "name": "decreaseAllowance",
      "outputs": [
        {
          "internalType": "bool",
          "name": "",
          "type": "bool"
        }
      ],
      "stateMutability": "nonpayable",
      "type": "function"
    },
    {
      "inputs": [
        {
          "internalType": "address",
          "name": "spender",
          "type": "address"
        },
        {
          "internalType": "uint256",
          "name": "addedValue",
          "type": "uint256"
        }
      ],
      "name": "increaseAllowance",
      "outputs": [
        {
          "internalType": "bool",
          "name": "",
          "type": "bool"
        }
      ],
      "stateMutability": "nonpayable",
      "type": "function"
    },
    {
      "inputs": [
        {
          "internalType": "address",
          "name": "account_",
          "type": "address"
        }
      ],
      "name": "interestOf",
      "outputs": [
        {
          "internalType": "uint256",
          "name": "",
          "type": "uint256"
        }
      ],
      "stateMutability": "view",
      "type": "function"
    },
    {
      "inputs": [],
      "name": "name",
      "outputs": [
        {
          "internalType": "string",
          "name": "",
          "type": "string"
        }
      ],
      "stateMutability": "view",
      "type": "function"
    },
    {
      "inputs": [],
      "name": "symbol",
      "outputs": [
        {
          "internalType": "string",
          "name": "",
          "type": "string"
        }
      ],
      "stateMutability": "view",
      "type": "function"
    },
    {
      "inputs": [
        {
          "internalType": "address",
          "name": "account_",
          "type": "address"
        }
      ],
      "name": "totalBalanceOf",
      "outputs": [
        {
          "internalType": "uint256",
          "name": "",
          "type": "uint256"
        }
      ],
      "stateMutability": "view",
      "type": "function"
    },
    {
      "inputs": [],
      "name": "totalSupply",
      "outputs": [
        {
          "internalType": "uint256",
          "name": "",
          "type": "uint256"
        }
      ],
      "stateMutability": "view",
      "type": "function"
    },
    {
      "inputs": [
        {
          "internalType": "address",
          "name": "to",
          "type": "address"
        },
        {
          "internalType": "uint256",
          "name": "amount",
          "type": "uint256"
        }
      ],
      "name": "transfer",
      "outputs": [
        {
          "internalType": "bool",
          "name": "",
          "type": "bool"
        }
      ],
      "stateMutability": "nonpayable",
      "type": "function"
    },
    {
      "inputs": [
        {
          "internalType": "address",
          "name": "from",
          "type": "address"
        },
        {
          "internalType": "address",
          "name": "to",
          "type": "address"
        },
        {
          "internalType": "uint256",
          "name": "amount",
          "type": "uint256"
        }
      ],
      "name": "transferFrom",
      "outputs": [
        {
          "internalType": "bool",
          "name": "",
          "type": "bool"
        }
      ],
      "stateMutability": "nonpayable",
      "type": "function"
    }
  ],
  "bytecode": {
    "object": "0x60806040523480156200001157600080fd5b5060405162000f2638038062000f2683398101604081905262000034916200011f565b600362000042838262000218565b50600462000051828262000218565b505050620002e4565b634e487b7160e01b600052604160045260246000fd5b600082601f8301126200008257600080fd5b81516001600160401b03808211156200009f576200009f6200005a565b604051601f8301601f19908116603f01168101908282118183101715620000ca57620000ca6200005a565b81604052838152602092508683858801011115620000e757600080fd5b600091505b838210156200010b5785820183015181830184015290820190620000ec565b600093810190920192909252949350505050565b600080604083850312156200013357600080fd5b82516001600160401b03808211156200014b57600080fd5b620001598683870162000070565b935060208501519150808211156200017057600080fd5b506200017f8582860162000070565b9150509250929050565b600181811c908216806200019e57607f821691505b602082108103620001bf57634e487b7160e01b600052602260045260246000fd5b50919050565b601f8211156200021357600081815260208120601f850160051c81016020861015620001ee5750805b601f850160051c820191505b818110156200020f57828155600101620001fa565b5050505b505050565b81516001600160401b038111156200023457620002346200005a565b6200024c8162000245845462000189565b84620001c5565b602080601f8311600181146200028457600084156200026b5750858301515b600019600386901b1c1916600185901b1785556200020f565b600085815260208120601f198616915b82811015620002b55788860151825594840194600190910190840162000294565b5085821015620002d45787850151600019600388901b60f8161c191681555b5050505050600190811b01905550565b610c3280620002f46000396000f3fe608060405234801561001057600080fd5b50600436106100cf5760003560e01c80634b0ee02a1161008c578063a457c2d711610066578063a457c2d71461018a578063a9059cbb1461019d578063d8e8b177146101b0578063dd62ed3e146101c357600080fd5b80634b0ee02a1461015c57806370a082311461016f57806395d89b411461018257600080fd5b806306fdde03146100d4578063095ea7b3146100f257806318160ddd1461011557806323b872dd14610127578063313ce5671461013a5780633950935114610149575b600080fd5b6100dc6101d6565b6040516100e99190610a2d565b60405180910390f35b610105610100366004610a97565b610268565b60405190151581526020016100e9565b6002545b6040519081526020016100e9565b610105610135366004610ac1565b610282565b604051601281526020016100e9565b610105610157366004610a97565b6102a8565b61011961016a366004610afd565b6102ca565b61011961017d366004610afd565b61031b565b6100dc610325565b610105610198366004610a97565b610334565b6101056101ab366004610a97565b6103bf565b6101196101be366004610afd565b6103cd565b6101196101d1366004610b18565b6103d8565b6060600380546101e590610b4b565b80601f016020809104026020016040519081016040528092919081815260200182805461021190610b4b565b801561025e5780601f106102335761010080835404028352916020019161025e565b820191906000526020600020905b81548152906001019060200180831161024157829003601f168201915b5050505050905090565b600033610276818585610422565b60019150505b92915050565b600033610290858285610566565b61029b8585856105e0565b60019150505b9392505050565b6000336102768185856102bb83836103d8565b6102c59190610b85565b610422565b6000808060025b60028111156102e2576102e2610ba6565b81526020019081526020016000206000836001600160a01b03166001600160a01b03168152602001908152602001600020549050919050565b60008080806102d1565b6060600480546101e590610b4b565b6000338161034282866103d8565b9050838110156103a75760405162461bcd60e51b815260206004820152602560248201527f45524332303a2064656372656173656420616c6c6f77616e63652062656c6f77604482015264207a65726f60d81b60648201526084015b60405180910390fd5b6103b48286868403610422565b506001949350505050565b6000336102768185856105e0565b6000808060016102d1565b6001600160a01b0391821660009081527fa6eef7e35abe7026729641147f7915573c7e97b47efa546f5f6e3230263bcb496020908152604080832093909416825291909152205490565b6001600160a01b0383166104845760405162461bcd60e51b8152602060048201526024808201527f45524332303a20617070726f76652066726f6d20746865207a65726f206164646044820152637265737360e01b606482015260840161039e565b6001600160a01b0382166104e55760405162461bcd60e51b815260206004820152602260248201527f45524332303a20617070726f766520746f20746865207a65726f206164647265604482015261737360f01b606482015260840161039e565b6001600160a01b0383811660008181527fa6eef7e35abe7026729641147f7915573c7e97b47efa546f5f6e3230263bcb496020908152604080832094871680845294825291829020859055815185815291517f8c5be1e5ebec7d5bd14f71427d1e84f3dd0314c0f7b2291e5b200ac8c7c3b9259281900390910190a3505050565b600061057284846103d8565b905060001981146105da57818110156105cd5760405162461bcd60e51b815260206004820152601d60248201527f45524332303a20696e73756666696369656e7420616c6c6f77616e6365000000604482015260640161039e565b6105da8484848403610422565b50505050565b6001600160a01b0383166106445760405162461bcd60e51b815260206004820152602560248201527f45524332303a207472616e736665722066726f6d20746865207a65726f206164604482015264647265737360d81b606482015260840161039e565b6001600160a01b0382166106a65760405162461bcd60e51b815260206004820152602360248201527f45524332303a207472616e7366657220746f20746865207a65726f206164647260448201526265737360e81b606482015260840161039e565b6001600160a01b0383166000908152600080516020610bdd83398151915260205260409020548181101561072b5760405162461bcd60e51b815260206004820152602660248201527f45524332303a207472616e7366657220616d6f756e7420657863656564732062604482015265616c616e636560d01b606482015260840161039e565b6001600160a01b038481166000908152600080516020610bdd83398151915260205260408082208585039055918516815290812080548401905561076f85846107fc565b6001600160a01b0386166000908152600080516020610bbd8339815191526020526040902080548290038201905590506107a9858561087e565b50826001600160a01b0316846001600160a01b03167fddf252ad1be2c89b69c2b068fc378daa952ba7f163c4a11628f55a4df523b3ef846040516107ef91815260200190565b60405180910390a36105da565b6001600160a01b0382166000908152600080516020610bdd8339815191526020526040812054816108378468056bc75e2d631000008461097e565b6001600160a01b0386166000908152600080516020610bbd8339815191526020526040902054909150610874828268056bc75e2d6310000061097e565b9695505050505050565b6001600160a01b0382166000908152600080516020610bbd8339815191526020908152604080832054600080516020610bdd833981519152909252909120546108c79190610b85565b6001600160a01b0383811660009081527fabbb5caa7dda850e60932de0934eb1f9d0f59695050f761dc64e443e5030a56960209081526040808320949094559184168152600080516020610bbd833981519152825282812054600080516020610bdd83398151915290925291909120546109419190610b85565b6001600160a01b039190911660009081527fabbb5caa7dda850e60932de0934eb1f9d0f59695050f761dc64e443e5030a569602052604090205550565b600083830260001984860981811082019003806109b357836109a85763ae47f7026000526004601cfd5b5082900490506102a1565b8084116109c85763ae47f7026000526004601cfd5b838587096000858103861695869004956003870260029081188089028203028089028203028089028203028089028203028089028203028089029091030291819003819004600101858411909403939093029190930391909104170290509392505050565b600060208083528351808285015260005b81811015610a5a57858101830151858201604001528201610a3e565b506000604082860101526040601f19601f8301168501019250505092915050565b80356001600160a01b0381168114610a9257600080fd5b919050565b60008060408385031215610aaa57600080fd5b610ab383610a7b565b946020939093013593505050565b600080600060608486031215610ad657600080fd5b610adf84610a7b565b9250610aed60208501610a7b565b9150604084013590509250925092565b600060208284031215610b0f57600080fd5b6102a182610a7b565b60008060408385031215610b2b57600080fd5b610b3483610a7b565b9150610b4260208401610a7b565b90509250929050565b600181811c90821680610b5f57607f821691505b602082108103610b7f57634e487b7160e01b600052602260045260246000fd5b50919050565b8082018082111561027c57634e487b7160e01b600052601160045260246000fd5b634e487b7160e01b600052602160045260246000fdfeada5013122d395ba3c54772283fb069b10426056ef8ca54750cb9bb552a59e7dad3228b676f7d3cd4284a5443f17f1962b36e491b30a40b2405849e597ba5fb5a2646970667358221220805c1a97878f87483b63b3ed73e60a6f06d26202e416df915a01a6525ecc914264736f6c63430008150033",
    "linkReferences": {}
  },
  "methodIdentifiers": {
    "allowance(address,address)": "dd62ed3e",
    "approve(address,uint256)": "095ea7b3",
    "balanceOf(address)": "70a08231",
    "decimals()": "313ce567",
    "decreaseAllowance(address,uint256)": "a457c2d7",
    "increaseAllowance(address,uint256)": "39509351",
    "interestOf(address)": "d8e8b177",
    "name()": "06fdde03",
    "symbol()": "95d89b41",
    "totalBalanceOf(address)": "4b0ee02a",
    "totalSupply()": "18160ddd",
    "transfer(address,uint256)": "a9059cbb",
    "transferFrom(address,address,uint256)": "23b872dd"
  },
  "id": 2
}