{
  "abi": [
    {
      "inputs": [
        {
          "internalType": "string",
          "name": "errorMsg",
          "type": "string"
        }
      ],
      "name": "OZError01",
      "type": "error"
    },
    {
      "inputs": [],
      "name": "OZError02",
      "type": "error"
    },
    {
      "inputs": [
        {
          "internalType": "address",
          "name": "caller",
          "type": "address"
        }
      ],
      "name": "OZError13",
      "type": "error"
    },
    {
      "inputs": [],
      "name": "OZError20",
      "type": "error"
    },
    {
      "inputs": [
        {
          "internalType": "string",
          "name": "reason",
          "type": "string"
        }
      ],
      "name": "OZError21",
      "type": "error"
    },
    {
      "inputs": [],
      "name": "claimReward",
      "outputs": [
        {
          "internalType": "uint256",
          "name": "",
          "type": "uint256"
        }
      ],
      "stateMutability": "nonpayable",
      "type": "function"
    },
    {
      "inputs": [
        {
          "internalType": "address",
          "name": "user_",
          "type": "address"
        }
      ],
      "name": "earned",
      "outputs": [
        {
          "internalType": "uint256",
          "name": "",
          "type": "uint256"
        }
      ],
      "stateMutability": "view",
      "type": "function"
    },
    {
      "inputs": [],
      "name": "getCirculatingSupply",
      "outputs": [
        {
          "internalType": "uint256",
          "name": "",
          "type": "uint256"
        }
      ],
      "stateMutability": "view",
      "type": "function"
    },
    {
      "inputs": [],
      "name": "getRecicledSupply",
      "outputs": [
        {
          "internalType": "uint256",
          "name": "",
          "type": "uint256"
        }
      ],
      "stateMutability": "view",
      "type": "function"
    },
    {
      "inputs": [],
      "name": "getRewardRate",
      "outputs": [
        {
          "internalType": "uint256",
          "name": "",
          "type": "uint256"
        }
      ],
      "stateMutability": "view",
      "type": "function"
    },
    {
      "inputs": [],
      "name": "lastTimeRewardApplicable",
      "outputs": [
        {
          "internalType": "uint256",
          "name": "",
          "type": "uint256"
        }
      ],
      "stateMutability": "view",
      "type": "function"
    },
    {
      "inputs": [
        {
          "internalType": "uint256",
          "name": "amount_",
          "type": "uint256"
        }
      ],
      "name": "notifyRewardAmount",
      "outputs": [],
      "stateMutability": "nonpayable",
      "type": "function"
    },
    {
      "inputs": [
        {
          "internalType": "address",
          "name": "owner_",
          "type": "address"
        },
        {
          "internalType": "address",
          "name": "ozl_",
          "type": "address"
        },
        {
          "internalType": "uint256",
          "name": "amountIn_",
          "type": "uint256"
        }
      ],
      "name": "recicleOZL",
      "outputs": [],
      "stateMutability": "nonpayable",
      "type": "function"
    },
    {
      "inputs": [],
      "name": "rewardPerToken",
      "outputs": [
        {
          "internalType": "uint256",
          "name": "",
          "type": "uint256"
        }
      ],
      "stateMutability": "view",
      "type": "function"
    },
    {
      "inputs": [
        {
          "internalType": "uint256",
          "name": "duration_",
          "type": "uint256"
        }
      ],
      "name": "setRewardsDuration",
      "outputs": [],
      "stateMutability": "nonpayable",
      "type": "function"
    },
    {
      "inputs": [
        {
          "internalType": "address",
          "name": "tokenOut_",
          "type": "address"
        },
        {
          "internalType": "address",
          "name": "receiver_",
          "type": "address"
        },
        {
          "internalType": "uint256",
          "name": "amountInLsd_",
          "type": "uint256"
        },
        {
          "internalType": "uint256[]",
          "name": "minAmountsOut_",
          "type": "uint256[]"
        }
      ],
      "name": "useOZL",
      "outputs": [
        {
          "internalType": "uint256",
          "name": "",
          "type": "uint256"
        }
      ],
      "stateMutability": "nonpayable",
      "type": "function"
    },
    {
      "inputs": [
        {
          "internalType": "address",
          "name": "owner_",
          "type": "address"
        },
        {
          "internalType": "bytes",
          "name": "data_",
          "type": "bytes"
        }
      ],
      "name": "useOzTokens",
      "outputs": [
        {
          "internalType": "uint256",
          "name": "amountOut",
          "type": "uint256"
        }
      ],
      "stateMutability": "nonpayable",
      "type": "function"
    },
    {
      "inputs": [
        {
          "internalType": "address",
          "name": "underlying_",
          "type": "address"
        },
        {
          "internalType": "address",
          "name": "owner_",
          "type": "address"
        },
        {
          "components": [
            {
              "internalType": "uint256",
              "name": "amountIn",
              "type": "uint256"
            },
            {
              "internalType": "uint256[]",
              "name": "minAmountsOut",
              "type": "uint256[]"
            }
          ],
          "internalType": "struct AmountsIn",
          "name": "amounts_",
          "type": "tuple"
        }
      ],
      "name": "useUnderlying",
      "outputs": [
        {
          "internalType": "uint256",
          "name": "",
          "type": "uint256"
        }
      ],
      "stateMutability": "nonpayable",
      "type": "function"
    }
  ],
  "bytecode": {
    "object": "0x608060405234801561001057600080fd5b50611b08806100206000396000f3fe608060405234801561001057600080fd5b50600436106100ce5760003560e01c806380faa57d1161008c578063ab399cf811610066578063ab399cf81461014c578063b88a802f1461010c578063cc1a378f14610113578063cd3daf9d1461010c57600080fd5b806380faa57d1461010c5780639ea04fe414610126578063a1b86b381461013957600080fd5b80628cc262146100d3578063094463e7146100f95780632b112e491461010c5780633c6b16ab146101135780636a533a4c1461010c5780637e1a37861461010c575b600080fd5b6100e76100e13660046112af565b50600090565b60405190815260200160405180910390f35b6100e76101073660046113a4565b61015f565b60006100e7565b610124610121366004611410565b50565b005b6100e7610134366004611429565b610187565b6100e76101473660046114dd565b610386565b61012461015a366004611589565b6104a9565b60095460009061017c906001600160a01b03168686868686610514565b90505b949350505050565b3360009081526014602052604081205460ff166101be5760405163a43f931360e01b81523360048201526024015b60405180910390fd5b815160208301516101da6001600160a01b038716863085610657565b60035481516000916102139189916001600160a01b0316903090879087908790610206576102066115ca565b6020026020010151610761565b905061021e816108fd565b1561035857600354604051632e1a7d4d60e01b8152600481018390526001600160a01b0390911690632e1a7d4d90602401600060405180830381600087803b15801561026957600080fd5b505af115801561027d573d6000803e3d6000fd5b5050600f546010546040516321f8a72160e01b81526004810191909152600093506001600160a01b0390911691506321f8a72190602401602060405180830381865afa1580156102d1573d6000803e3d6000fd5b505050506040513d601f19601f820116820180604052508101906102f591906115e0565b9050806001600160a01b031663d0e30db0836040518263ffffffff1660e01b81526004016000604051808303818588803b15801561033257600080fd5b505af1158015610346573d6000803e3d6000fd5b5050505050600094505050505061037f565b600354600954610379916001600160a01b0390811691163084866001610514565b93505050505b9392505050565b3360009081526014602052604081205460ff166103b85760405163a43f931360e01b81523360048201526024016101b5565b600080600080858060200190518101906103d2919061160d565b929650909450925090506103e833883087610657565b600954600354610409916001600160a01b0390811691163086866002610514565b945061049e600060030160009054906101000a90046001600160a01b0316336001600160a01b03166338d52e0f6040518163ffffffff1660e01b8152600401602060405180830381865afa158015610465573d6000803e3d6000fd5b505050506040513d601f19601f8201168201806040525081019061048991906115e0565b838886600181518110610206576102066115ca565b979650505050505050565b6104be6001600160a01b038316843084610a8c565b60405163c3ae3a0960e01b815260048101829052309063c3ae3a0990602401600060405180830381600087803b1580156104f757600080fd5b505af115801561050b573d6000803e3d6000fd5b50505050505050565b600080600061052484868a610afd565b9150915060008060000160009054906101000a90046001600160a01b03166001600160a01b0316631c0de0516040518163ffffffff1660e01b8152600401606060405180830381865afa15801561057f573d6000803e3d6000fd5b505050506040513d601f19601f820116820180604052508101906105a391906116df565b5050905080156105c1576105ba8a84308a86610761565b93506105d0565b6105cd8a848985610bbb565b93505b60008560028111156105e4576105e4611714565b0361064a576003546001600160a01b03908116908a160361061b57600354610616906001600160a01b03168986610ce0565b61064a565b6003548651610647916001600160a01b0316908b908b9088908b906001908110610206576102066115ca565b93505b5050509695505050505050565b604080516001600160a01b0385811660248301528481166044830152606480830185905283518084039091018152608490920183526020820180516001600160e01b03166323b872dd60e01b17905291516000928392908816916106bb919061174e565b6000604051808303816000865af19150503d80600081146106f8576040519150601f19603f3d011682016040523d82523d6000602084013e6106fd565b606091505b5091509150818015610727575080511580610727575080806020019051810190610727919061176a565b6107595760405162461bcd60e51b815260206004820152600360248201526229aa2360e91b60448201526064016101b5565b505050505050565b60065460009061077e906001600160a01b03888116911685610d15565b60408051610100810182526001600160a01b038089168252878116602083015260135462ffffff1692820192909252908516606082015242608082015260a0810184905260009060c081016107d38589610e2a565b815260006020918201526006546040805163414bf38960e01b815284516001600160a01b03908116600483015293850151841660248201529084015162ffffff1660448201526060840151831660648201526080840151608482015260a084015160a482015260c084015160c482015260e0840151831660e4820152929350169063414bf38990610104016020604051808303816000875af1925050508015610899575060408051601f3d908101601f1916820190925261089691810190611785565b60015b6108eb576108a561179e565b806308c379a0036108df57506108b96117ba565b806108c457506108e1565b8060405163633abab960e01b81526004016101b59190611870565b505b3d6000803e3d6000fd5b91506108f49050565b95945050505050565b601180546040516335ee5f8760e01b8152602060048201526024810192909252701c9bd8dad95d11195c1bdcda5d141bdbdb607a1b604483015260009182916001600160a01b0316906335ee5f8790606401602060405180830381865afa15801561096c573d6000803e3d6000fd5b505050506040513d601f19601f820116820180604052508101906109909190611785565b9050600061099e8483611899565b600f546012546040516321f8a72160e01b81529293506000926001600160a01b03909216916321f8a721916109d99160040190815260200190565b602060405180830381865afa1580156109f6573d6000803e3d6000fd5b505050506040513d601f19601f82011682018060405250810190610a1a91906115e0565b90506000816001600160a01b031663fd6ce89e6040518163ffffffff1660e01b8152600401602060405180830381865afa158015610a5c573d6000803e3d6000fd5b505050506040513d601f19601f82011682018060405250810190610a809190611785565b90921095945050505050565b6040516001600160a01b0380851660248301528316604482015260648101829052610af79085906323b872dd60e01b906084015b60408051601f198184030181529190526020810180516001600160e01b03166001600160e01b031990931692909217909152610ecd565b50505050565b60008080856002811115610b1357610b13611714565b03610b4a5760035484516001600160a01b0390911692508490600090610b3b57610b3b6115ca565b60200260200101519050610bb3565b6001856002811115610b5e57610b5e611714565b03610b795782915083600181518110610b3b57610b3b6115ca565b6002856002811115610b8d57610b8d611714565b03610bb35782915083600081518110610ba857610ba86115ca565b602002602001015190505b935093915050565b6040805160c081018083526000805463038fff2d60e41b909252925183929182916001600160a01b03909116906338fff2d09060c4808501916020918187030181865afa158015610c10573d6000803e3d6000fd5b505050506040513d601f19601f82011682018060405250810190610c349190611785565b8152602001600081526001600160a01b038089166020830152871660408201526060810186905260800160006040519080825280601f01601f191660200182016040528015610c8a576020820181803683370190505b5090526040805160808082018352308083526000602084018190529383015260608201929092526008549183015192935091610cd4916001600160a01b038a811692911690610d15565b61049e82828642610fa2565b6040516001600160a01b038316602482015260448101829052610d1090849063a9059cbb60e01b90606401610ac0565b505050565b801580610d8f5750604051636eb1769f60e11b81523060048201526001600160a01b03838116602483015284169063dd62ed3e90604401602060405180830381865afa158015610d69573d6000803e3d6000fd5b505050506040513d601f19601f82011682018060405250810190610d8d9190611785565b155b610dfa5760405162461bcd60e51b815260206004820152603660248201527f5361666545524332303a20617070726f76652066726f6d206e6f6e2d7a65726f60448201527520746f206e6f6e2d7a65726f20616c6c6f77616e636560501b60648201526084016101b5565b6040516001600160a01b038316602482015260448101829052610d1090849063095ea7b360e01b90606401610ac0565b600080826001600160a01b031663313ce5676040518163ffffffff1660e01b8152600401602060405180830381865afa158015610e6b573d6000803e3d6000fd5b505050506040513d601f19601f82011682018060405250810190610e8f91906118ac565b60ff16905080601214610ec157610ea78160126118cf565b610eb290600a6119c6565b610ebc90856119d2565b610ec3565b835b9150505b92915050565b6000610f22826040518060400160405280602081526020017f5361666545524332303a206c6f772d6c6576656c2063616c6c206661696c6564815250856001600160a01b03166110c99092919063ffffffff16565b9050805160001480610f43575080806020019051810190610f43919061176a565b610d105760405162461bcd60e51b815260206004820152602a60248201527f5361666545524332303a204552433230206f7065726174696f6e20646964206e6044820152691bdd081cdd58d8d9595960b21b60648201526084016101b5565b6008546040516352bbbe2960e01b81526000916001600160a01b0316906352bbbe2990610fd99088908890889088906004016119f4565b6020604051808303816000875af1925050508015611014575060408051601f3d908101601f1916820190925261101191810190611785565b60015b6110a15761102061179e565b806308c379a0036108df57506110346117ba565b8061103f57506108e1565b611068816040518060400160405280600781526020016642414c2335303760c81b8152506110d8565b1561108657604051637b19dd3560e11b815260040160405180910390fd5b806040516324af18bb60e21b81526004016101b59190611870565b806000036110c257604051635eeb40ff60e11b815260040160405180910390fd5b905061017f565b606061017f8484600085611131565b6000816040516020016110eb919061174e565b6040516020818303038152906040528051906020012083604051602001611112919061174e565b6040516020818303038152906040528051906020012014905092915050565b6060824710156111925760405162461bcd60e51b815260206004820152602660248201527f416464726573733a20696e73756666696369656e742062616c616e636520666f6044820152651c8818d85b1b60d21b60648201526084016101b5565b600080866001600160a01b031685876040516111ae919061174e565b60006040518083038185875af1925050503d80600081146111eb576040519150601f19603f3d011682016040523d82523d6000602084013e6111f0565b606091505b509150915061049e878383876060831561126b578251600003611264576001600160a01b0385163b6112645760405162461bcd60e51b815260206004820152601d60248201527f416464726573733a2063616c6c20746f206e6f6e2d636f6e747261637400000060448201526064016101b5565b508161017f565b61017f83838151156112805781518083602001fd5b8060405162461bcd60e51b81526004016101b59190611870565b6001600160a01b038116811461012157600080fd5b6000602082840312156112c157600080fd5b813561037f8161129a565b634e487b7160e01b600052604160045260246000fd5b601f8201601f1916810167ffffffffffffffff81118282101715611308576113086112cc565b6040525050565b600067ffffffffffffffff821115611329576113296112cc565b5060051b60200190565b600082601f83011261134457600080fd5b813560206113518261130f565b60405161135e82826112e2565b83815260059390931b850182019282810191508684111561137e57600080fd5b8286015b848110156113995780358352918301918301611382565b509695505050505050565b600080600080608085870312156113ba57600080fd5b84356113c58161129a565b935060208501356113d58161129a565b925060408501359150606085013567ffffffffffffffff8111156113f857600080fd5b61140487828801611333565b91505092959194509250565b60006020828403121561142257600080fd5b5035919050565b60008060006060848603121561143e57600080fd5b83356114498161129a565b925060208401356114598161129a565b9150604084013567ffffffffffffffff8082111561147657600080fd5b908501906040828803121561148a57600080fd5b6040516040810181811083821117156114a5576114a56112cc565b604052823581526020830135828111156114be57600080fd5b6114ca89828601611333565b6020830152508093505050509250925092565b600080604083850312156114f057600080fd5b82356114fb8161129a565b915060208381013567ffffffffffffffff8082111561151957600080fd5b818601915086601f83011261152d57600080fd5b81358181111561153f5761153f6112cc565b6040519150611557601f8201601f19168501836112e2565b808252878482850101111561156b57600080fd5b80848401858401376000848284010152508093505050509250929050565b60008060006060848603121561159e57600080fd5b83356115a98161129a565b925060208401356115b98161129a565b929592945050506040919091013590565b634e487b7160e01b600052603260045260246000fd5b6000602082840312156115f257600080fd5b815161037f8161129a565b80516116088161129a565b919050565b6000806000806080858703121561162357600080fd5b845193506020808601519350604086015167ffffffffffffffff81111561164957600080fd5b8601601f8101881361165a57600080fd5b80516116658161130f565b60405161167282826112e2565b82815260059290921b830184019184810191508a83111561169257600080fd5b928401925b828410156116b057835182529284019290840190611697565b80965050505050506116c4606086016115fd565b905092959194509250565b8051801515811461160857600080fd5b6000806000606084860312156116f457600080fd5b6116fd846116cf565b925060208401519150604084015190509250925092565b634e487b7160e01b600052602160045260246000fd5b60005b8381101561174557818101518382015260200161172d565b50506000910152565b6000825161176081846020870161172a565b9190910192915050565b60006020828403121561177c57600080fd5b61037f826116cf565b60006020828403121561179757600080fd5b5051919050565b600060033d11156117b75760046000803e5060005160e01c5b90565b600060443d10156117c85790565b6040516003193d81016004833e81513d67ffffffffffffffff81602484011181841117156117f857505050505090565b82850191508151818111156118105750505050505090565b843d870101602082850101111561182a5750505050505090565b611839602082860101876112e2565b509095945050505050565b6000815180845261185c81602086016020860161172a565b601f01601f19169290920160200192915050565b60208152600061037f6020830184611844565b634e487b7160e01b600052601160045260246000fd5b80820180821115610ec757610ec7611883565b6000602082840312156118be57600080fd5b815160ff8116811461037f57600080fd5b81810381811115610ec757610ec7611883565b600181815b8085111561191d57816000190482111561190357611903611883565b8085161561191057918102915b93841c93908002906118e7565b509250929050565b60008261193457506001610ec7565b8161194157506000610ec7565b816001811461195757600281146119615761197d565b6001915050610ec7565b60ff84111561197257611972611883565b50506001821b610ec7565b5060208310610133831016604e8410600b84101617156119a0575081810a610ec7565b6119aa83836118e2565b80600019048211156119be576119be611883565b029392505050565b600061037f8383611925565b6000826119ef57634e487b7160e01b600052601260045260246000fd5b500490565b60e08152845160e08201526000602086015160028110611a2457634e487b7160e01b600052602160045260246000fd5b61010083015260408601516001600160a01b03166101208301526060860151611a596101408401826001600160a01b03169052565b50608086015161016083015260a086015160c0610180840152611a806101a0840182611844565b915050611ac0602083018680516001600160a01b039081168352602080830151151590840152604080830151909116908301526060908101511515910152565b60a082019390935260c001529291505056fea2646970667358221220a0043d7493663df601181d01d2c0b1d06c0f2e743d09faf1b30821e6f2ab433d64736f6c63430008150033",
    "linkReferences": {}
  },
  "methodIdentifiers": {
    "claimReward()": "b88a802f",
    "earned(address)": "008cc262",
    "getCirculatingSupply()": "2b112e49",
    "getRecicledSupply()": "6a533a4c",
    "getRewardRate()": "7e1a3786",
    "lastTimeRewardApplicable()": "80faa57d",
    "notifyRewardAmount(uint256)": "3c6b16ab",
    "recicleOZL(address,address,uint256)": "ab399cf8",
    "rewardPerToken()": "cd3daf9d",
    "setRewardsDuration(uint256)": "cc1a378f",
    "useOZL(address,address,uint256,uint256[])": "094463e7",
    "useOzTokens(address,bytes)": "a1b86b38",
    "useUnderlying(address,address,(uint256,uint256[]))": "9ea04fe4"
  },
  "id": 15
}