{
  "abi": [
    {
      "inputs": [
        {
          "internalType": "contract IAuthorizer",
          "name": "authorizer",
          "type": "address"
        },
        {
          "internalType": "contract IWETH",
          "name": "weth",
          "type": "address"
        },
        {
          "internalType": "uint256",
          "name": "pauseWindowDuration",
          "type": "uint256"
        },
        {
          "internalType": "uint256",
          "name": "bufferPeriodDuration",
          "type": "uint256"
        }
      ],
      "stateMutability": "nonpayable",
      "type": "constructor"
    },
    {
      "anonymous": false,
      "inputs": [
        {
          "indexed": true,
          "internalType": "contract IAuthorizer",
          "name": "newAuthorizer",
          "type": "address"
        }
      ],
      "name": "AuthorizerChanged",
      "type": "event"
    },
    {
      "anonymous": false,
      "inputs": [
        {
          "indexed": true,
          "internalType": "contract IERC20",
          "name": "token",
          "type": "address"
        },
        {
          "indexed": true,
          "internalType": "address",
          "name": "sender",
          "type": "address"
        },
        {
          "indexed": false,
          "internalType": "address",
          "name": "recipient",
          "type": "address"
        },
        {
          "indexed": false,
          "internalType": "uint256",
          "name": "amount",
          "type": "uint256"
        }
      ],
      "name": "ExternalBalanceTransfer",
      "type": "event"
    },
    {
      "anonymous": false,
      "inputs": [
        {
          "indexed": true,
          "internalType": "contract IFlashLoanRecipient",
          "name": "recipient",
          "type": "address"
        },
        {
          "indexed": true,
          "internalType": "contract IERC20",
          "name": "token",
          "type": "address"
        },
        {
          "indexed": false,
          "internalType": "uint256",
          "name": "amount",
          "type": "uint256"
        },
        {
          "indexed": false,
          "internalType": "uint256",
          "name": "feeAmount",
          "type": "uint256"
        }
      ],
      "name": "FlashLoan",
      "type": "event"
    },
    {
      "anonymous": false,
      "inputs": [
        {
          "indexed": true,
          "internalType": "address",
          "name": "user",
          "type": "address"
        },
        {
          "indexed": true,
          "internalType": "contract IERC20",
          "name": "token",
          "type": "address"
        },
        {
          "indexed": false,
          "internalType": "int256",
          "name": "delta",
          "type": "int256"
        }
      ],
      "name": "InternalBalanceChanged",
      "type": "event"
    },
    {
      "anonymous": false,
      "inputs": [
        {
          "indexed": false,
          "internalType": "bool",
          "name": "paused",
          "type": "bool"
        }
      ],
      "name": "PausedStateChanged",
      "type": "event"
    },
    {
      "anonymous": false,
      "inputs": [
        {
          "indexed": true,
          "internalType": "bytes32",
          "name": "poolId",
          "type": "bytes32"
        },
        {
          "indexed": true,
          "internalType": "address",
          "name": "liquidityProvider",
          "type": "address"
        },
        {
          "indexed": false,
          "internalType": "contract IERC20[]",
          "name": "tokens",
          "type": "address[]"
        },
        {
          "indexed": false,
          "internalType": "int256[]",
          "name": "deltas",
          "type": "int256[]"
        },
        {
          "indexed": false,
          "internalType": "uint256[]",
          "name": "protocolFeeAmounts",
          "type": "uint256[]"
        }
      ],
      "name": "PoolBalanceChanged",
      "type": "event"
    },
    {
      "anonymous": false,
      "inputs": [
        {
          "indexed": true,
          "internalType": "bytes32",
          "name": "poolId",
          "type": "bytes32"
        },
        {
          "indexed": true,
          "internalType": "address",
          "name": "assetManager",
          "type": "address"
        },
        {
          "indexed": true,
          "internalType": "contract IERC20",
          "name": "token",
          "type": "address"
        },
        {
          "indexed": false,
          "internalType": "int256",
          "name": "cashDelta",
          "type": "int256"
        },
        {
          "indexed": false,
          "internalType": "int256",
          "name": "managedDelta",
          "type": "int256"
        }
      ],
      "name": "PoolBalanceManaged",
      "type": "event"
    },
    {
      "anonymous": false,
      "inputs": [
        {
          "indexed": true,
          "internalType": "bytes32",
          "name": "poolId",
          "type": "bytes32"
        },
        {
          "indexed": true,
          "internalType": "address",
          "name": "poolAddress",
          "type": "address"
        },
        {
          "indexed": false,
          "internalType": "enum IVault.PoolSpecialization",
          "name": "specialization",
          "type": "uint8"
        }
      ],
      "name": "PoolRegistered",
      "type": "event"
    },
    {
      "anonymous": false,
      "inputs": [
        {
          "indexed": true,
          "internalType": "address",
          "name": "relayer",
          "type": "address"
        },
        {
          "indexed": true,
          "internalType": "address",
          "name": "sender",
          "type": "address"
        },
        {
          "indexed": false,
          "internalType": "bool",
          "name": "approved",
          "type": "bool"
        }
      ],
      "name": "RelayerApprovalChanged",
      "type": "event"
    },
    {
      "anonymous": false,
      "inputs": [
        {
          "indexed": true,
          "internalType": "bytes32",
          "name": "poolId",
          "type": "bytes32"
        },
        {
          "indexed": true,
          "internalType": "contract IERC20",
          "name": "tokenIn",
          "type": "address"
        },
        {
          "indexed": true,
          "internalType": "contract IERC20",
          "name": "tokenOut",
          "type": "address"
        },
        {
          "indexed": false,
          "internalType": "uint256",
          "name": "amountIn",
          "type": "uint256"
        },
        {
          "indexed": false,
          "internalType": "uint256",
          "name": "amountOut",
          "type": "uint256"
        }
      ],
      "name": "Swap",
      "type": "event"
    },
    {
      "anonymous": false,
      "inputs": [
        {
          "indexed": true,
          "internalType": "bytes32",
          "name": "poolId",
          "type": "bytes32"
        },
        {
          "indexed": false,
          "internalType": "contract IERC20[]",
          "name": "tokens",
          "type": "address[]"
        }
      ],
      "name": "TokensDeregistered",
      "type": "event"
    },
    {
      "anonymous": false,
      "inputs": [
        {
          "indexed": true,
          "internalType": "bytes32",
          "name": "poolId",
          "type": "bytes32"
        },
        {
          "indexed": false,
          "internalType": "contract IERC20[]",
          "name": "tokens",
          "type": "address[]"
        },
        {
          "indexed": false,
          "internalType": "address[]",
          "name": "assetManagers",
          "type": "address[]"
        }
      ],
      "name": "TokensRegistered",
      "type": "event"
    },
    {
      "inputs": [],
      "name": "WETH",
      "outputs": [
        {
          "internalType": "contract IWETH",
          "name": "",
          "type": "address"
        }
      ],
      "stateMutability": "view",
      "type": "function"
    },
    {
      "inputs": [
        {
          "internalType": "enum IVault.SwapKind",
          "name": "kind",
          "type": "uint8"
        },
        {
          "components": [
            {
              "internalType": "bytes32",
              "name": "poolId",
              "type": "bytes32"
            },
            {
              "internalType": "uint256",
              "name": "assetInIndex",
              "type": "uint256"
            },
            {
              "internalType": "uint256",
              "name": "assetOutIndex",
              "type": "uint256"
            },
            {
              "internalType": "uint256",
              "name": "amount",
              "type": "uint256"
            },
            {
              "internalType": "bytes",
              "name": "userData",
              "type": "bytes"
            }
          ],
          "internalType": "struct IVault.BatchSwapStep[]",
          "name": "swaps",
          "type": "tuple[]"
        },
        {
          "internalType": "contract IAsset[]",
          "name": "assets",
          "type": "address[]"
        },
        {
          "components": [
            {
              "internalType": "address",
              "name": "sender",
              "type": "address"
            },
            {
              "internalType": "bool",
              "name": "fromInternalBalance",
              "type": "bool"
            },
            {
              "internalType": "address payable",
              "name": "recipient",
              "type": "address"
            },
            {
              "internalType": "bool",
              "name": "toInternalBalance",
              "type": "bool"
            }
          ],
          "internalType": "struct IVault.FundManagement",
          "name": "funds",
          "type": "tuple"
        },
        {
          "internalType": "int256[]",
          "name": "limits",
          "type": "int256[]"
        },
        {
          "internalType": "uint256",
          "name": "deadline",
          "type": "uint256"
        }
      ],
      "name": "batchSwap",
      "outputs": [
        {
          "internalType": "int256[]",
          "name": "assetDeltas",
          "type": "int256[]"
        }
      ],
      "stateMutability": "payable",
      "type": "function"
    },
    {
      "inputs": [
        {
          "internalType": "bytes32",
          "name": "poolId",
          "type": "bytes32"
        },
        {
          "internalType": "contract IERC20[]",
          "name": "tokens",
          "type": "address[]"
        }
      ],
      "name": "deregisterTokens",
      "outputs": [],
      "stateMutability": "nonpayable",
      "type": "function"
    },
    {
      "inputs": [
        {
          "internalType": "bytes32",
          "name": "poolId",
          "type": "bytes32"
        },
        {
          "internalType": "address",
          "name": "sender",
          "type": "address"
        },
        {
          "internalType": "address payable",
          "name": "recipient",
          "type": "address"
        },
        {
          "components": [
            {
              "internalType": "contract IAsset[]",
              "name": "assets",
              "type": "address[]"
            },
            {
              "internalType": "uint256[]",
              "name": "minAmountsOut",
              "type": "uint256[]"
            },
            {
              "internalType": "bytes",
              "name": "userData",
              "type": "bytes"
            },
            {
              "internalType": "bool",
              "name": "toInternalBalance",
              "type": "bool"
            }
          ],
          "internalType": "struct IVault.ExitPoolRequest",
          "name": "request",
          "type": "tuple"
        }
      ],
      "name": "exitPool",
      "outputs": [],
      "stateMutability": "nonpayable",
      "type": "function"
    },
    {
      "inputs": [
        {
          "internalType": "contract IFlashLoanRecipient",
          "name": "recipient",
          "type": "address"
        },
        {
          "internalType": "contract IERC20[]",
          "name": "tokens",
          "type": "address[]"
        },
        {
          "internalType": "uint256[]",
          "name": "amounts",
          "type": "uint256[]"
        },
        {
          "internalType": "bytes",
          "name": "userData",
          "type": "bytes"
        }
      ],
      "name": "flashLoan",
      "outputs": [],
      "stateMutability": "nonpayable",
      "type": "function"
    },
    {
      "inputs": [
        {
          "internalType": "bytes4",
          "name": "selector",
          "type": "bytes4"
        }
      ],
      "name": "getActionId",
      "outputs": [
        {
          "internalType": "bytes32",
          "name": "",
          "type": "bytes32"
        }
      ],
      "stateMutability": "view",
      "type": "function"
    },
    {
      "inputs": [],
      "name": "getAuthorizer",
      "outputs": [
        {
          "internalType": "contract IAuthorizer",
          "name": "",
          "type": "address"
        }
      ],
      "stateMutability": "view",
      "type": "function"
    },
    {
      "inputs": [],
      "name": "getDomainSeparator",
      "outputs": [
        {
          "internalType": "bytes32",
          "name": "",
          "type": "bytes32"
        }
      ],
      "stateMutability": "view",
      "type": "function"
    },
    {
      "inputs": [
        {
          "internalType": "address",
          "name": "user",
          "type": "address"
        },
        {
          "internalType": "contract IERC20[]",
          "name": "tokens",
          "type": "address[]"
        }
      ],
      "name": "getInternalBalance",
      "outputs": [
        {
          "internalType": "uint256[]",
          "name": "balances",
          "type": "uint256[]"
        }
      ],
      "stateMutability": "view",
      "type": "function"
    },
    {
      "inputs": [
        {
          "internalType": "address",
          "name": "user",
          "type": "address"
        }
      ],
      "name": "getNextNonce",
      "outputs": [
        {
          "internalType": "uint256",
          "name": "",
          "type": "uint256"
        }
      ],
      "stateMutability": "view",
      "type": "function"
    },
    {
      "inputs": [],
      "name": "getPausedState",
      "outputs": [
        {
          "internalType": "bool",
          "name": "paused",
          "type": "bool"
        },
        {
          "internalType": "uint256",
          "name": "pauseWindowEndTime",
          "type": "uint256"
        },
        {
          "internalType": "uint256",
          "name": "bufferPeriodEndTime",
          "type": "uint256"
        }
      ],
      "stateMutability": "view",
      "type": "function"
    },
    {
      "inputs": [
        {
          "internalType": "bytes32",
          "name": "poolId",
          "type": "bytes32"
        }
      ],
      "name": "getPool",
      "outputs": [
        {
          "internalType": "address",
          "name": "",
          "type": "address"
        },
        {
          "internalType": "enum IVault.PoolSpecialization",
          "name": "",
          "type": "uint8"
        }
      ],
      "stateMutability": "view",
      "type": "function"
    },
    {
      "inputs": [
        {
          "internalType": "bytes32",
          "name": "poolId",
          "type": "bytes32"
        },
        {
          "internalType": "contract IERC20",
          "name": "token",
          "type": "address"
        }
      ],
      "name": "getPoolTokenInfo",
      "outputs": [
        {
          "internalType": "uint256",
          "name": "cash",
          "type": "uint256"
        },
        {
          "internalType": "uint256",
          "name": "managed",
          "type": "uint256"
        },
        {
          "internalType": "uint256",
          "name": "lastChangeBlock",
          "type": "uint256"
        },
        {
          "internalType": "address",
          "name": "assetManager",
          "type": "address"
        }
      ],
      "stateMutability": "view",
      "type": "function"
    },
    {
      "inputs": [
        {
          "internalType": "bytes32",
          "name": "poolId",
          "type": "bytes32"
        }
      ],
      "name": "getPoolTokens",
      "outputs": [
        {
          "internalType": "contract IERC20[]",
          "name": "tokens",
          "type": "address[]"
        },
        {
          "internalType": "uint256[]",
          "name": "balances",
          "type": "uint256[]"
        },
        {
          "internalType": "uint256",
          "name": "lastChangeBlock",
          "type": "uint256"
        }
      ],
      "stateMutability": "view",
      "type": "function"
    },
    {
      "inputs": [],
      "name": "getProtocolFeesCollector",
      "outputs": [
        {
          "internalType": "contract ProtocolFeesCollector",
          "name": "",
          "type": "address"
        }
      ],
      "stateMutability": "view",
      "type": "function"
    },
    {
      "inputs": [
        {
          "internalType": "address",
          "name": "user",
          "type": "address"
        },
        {
          "internalType": "address",
          "name": "relayer",
          "type": "address"
        }
      ],
      "name": "hasApprovedRelayer",
      "outputs": [
        {
          "internalType": "bool",
          "name": "",
          "type": "bool"
        }
      ],
      "stateMutability": "view",
      "type": "function"
    },
    {
      "inputs": [
        {
          "internalType": "bytes32",
          "name": "poolId",
          "type": "bytes32"
        },
        {
          "internalType": "address",
          "name": "sender",
          "type": "address"
        },
        {
          "internalType": "address",
          "name": "recipient",
          "type": "address"
        },
        {
          "components": [
            {
              "internalType": "contract IAsset[]",
              "name": "assets",
              "type": "address[]"
            },
            {
              "internalType": "uint256[]",
              "name": "maxAmountsIn",
              "type": "uint256[]"
            },
            {
              "internalType": "bytes",
              "name": "userData",
              "type": "bytes"
            },
            {
              "internalType": "bool",
              "name": "fromInternalBalance",
              "type": "bool"
            }
          ],
          "internalType": "struct IVault.JoinPoolRequest",
          "name": "request",
          "type": "tuple"
        }
      ],
      "name": "joinPool",
      "outputs": [],
      "stateMutability": "payable",
      "type": "function"
    },
    {
      "inputs": [
        {
          "components": [
            {
              "internalType": "enum IVault.PoolBalanceOpKind",
              "name": "kind",
              "type": "uint8"
            },
            {
              "internalType": "bytes32",
              "name": "poolId",
              "type": "bytes32"
            },
            {
              "internalType": "contract IERC20",
              "name": "token",
              "type": "address"
            },
            {
              "internalType": "uint256",
              "name": "amount",
              "type": "uint256"
            }
          ],
          "internalType": "struct IVault.PoolBalanceOp[]",
          "name": "ops",
          "type": "tuple[]"
        }
      ],
      "name": "managePoolBalance",
      "outputs": [],
      "stateMutability": "nonpayable",
      "type": "function"
    },
    {
      "inputs": [
        {
          "components": [
            {
              "internalType": "enum IVault.UserBalanceOpKind",
              "name": "kind",
              "type": "uint8"
            },
            {
              "internalType": "contract IAsset",
              "name": "asset",
              "type": "address"
            },
            {
              "internalType": "uint256",
              "name": "amount",
              "type": "uint256"
            },
            {
              "internalType": "address",
              "name": "sender",
              "type": "address"
            },
            {
              "internalType": "address payable",
              "name": "recipient",
              "type": "address"
            }
          ],
          "internalType": "struct IVault.UserBalanceOp[]",
          "name": "ops",
          "type": "tuple[]"
        }
      ],
      "name": "manageUserBalance",
      "outputs": [],
      "stateMutability": "payable",
      "type": "function"
    },
    {
      "inputs": [
        {
          "internalType": "enum IVault.SwapKind",
          "name": "kind",
          "type": "uint8"
        },
        {
          "components": [
            {
              "internalType": "bytes32",
              "name": "poolId",
              "type": "bytes32"
            },
            {
              "internalType": "uint256",
              "name": "assetInIndex",
              "type": "uint256"
            },
            {
              "internalType": "uint256",
              "name": "assetOutIndex",
              "type": "uint256"
            },
            {
              "internalType": "uint256",
              "name": "amount",
              "type": "uint256"
            },
            {
              "internalType": "bytes",
              "name": "userData",
              "type": "bytes"
            }
          ],
          "internalType": "struct IVault.BatchSwapStep[]",
          "name": "swaps",
          "type": "tuple[]"
        },
        {
          "internalType": "contract IAsset[]",
          "name": "assets",
          "type": "address[]"
        },
        {
          "components": [
            {
              "internalType": "address",
              "name": "sender",
              "type": "address"
            },
            {
              "internalType": "bool",
              "name": "fromInternalBalance",
              "type": "bool"
            },
            {
              "internalType": "address payable",
              "name": "recipient",
              "type": "address"
            },
            {
              "internalType": "bool",
              "name": "toInternalBalance",
              "type": "bool"
            }
          ],
          "internalType": "struct IVault.FundManagement",
          "name": "funds",
          "type": "tuple"
        }
      ],
      "name": "queryBatchSwap",
      "outputs": [
        {
          "internalType": "int256[]",
          "name": "",
          "type": "int256[]"
        }
      ],
      "stateMutability": "nonpayable",
      "type": "function"
    },
    {
      "inputs": [
        {
          "internalType": "enum IVault.PoolSpecialization",
          "name": "specialization",
          "type": "uint8"
        }
      ],
      "name": "registerPool",
      "outputs": [
        {
          "internalType": "bytes32",
          "name": "",
          "type": "bytes32"
        }
      ],
      "stateMutability": "nonpayable",
      "type": "function"
    },
    {
      "inputs": [
        {
          "internalType": "bytes32",
          "name": "poolId",
          "type": "bytes32"
        },
        {
          "internalType": "contract IERC20[]",
          "name": "tokens",
          "type": "address[]"
        },
        {
          "internalType": "address[]",
          "name": "assetManagers",
          "type": "address[]"
        }
      ],
      "name": "registerTokens",
      "outputs": [],
      "stateMutability": "nonpayable",
      "type": "function"
    },
    {
      "inputs": [
        {
          "internalType": "contract IAuthorizer",
          "name": "newAuthorizer",
          "type": "address"
        }
      ],
      "name": "setAuthorizer",
      "outputs": [],
      "stateMutability": "nonpayable",
      "type": "function"
    },
    {
      "inputs": [
        {
          "internalType": "bool",
          "name": "paused",
          "type": "bool"
        }
      ],
      "name": "setPaused",
      "outputs": [],
      "stateMutability": "nonpayable",
      "type": "function"
    },
    {
      "inputs": [
        {
          "internalType": "address",
          "name": "sender",
          "type": "address"
        },
        {
          "internalType": "address",
          "name": "relayer",
          "type": "address"
        },
        {
          "internalType": "bool",
          "name": "approved",
          "type": "bool"
        }
      ],
      "name": "setRelayerApproval",
      "outputs": [],
      "stateMutability": "nonpayable",
      "type": "function"
    },
    {
      "inputs": [
        {
          "components": [
            {
              "internalType": "bytes32",
              "name": "poolId",
              "type": "bytes32"
            },
            {
              "internalType": "enum IVault.SwapKind",
              "name": "kind",
              "type": "uint8"
            },
            {
              "internalType": "contract IAsset",
              "name": "assetIn",
              "type": "address"
            },
            {
              "internalType": "contract IAsset",
              "name": "assetOut",
              "type": "address"
            },
            {
              "internalType": "uint256",
              "name": "amount",
              "type": "uint256"
            },
            {
              "internalType": "bytes",
              "name": "userData",
              "type": "bytes"
            }
          ],
          "internalType": "struct IVault.SingleSwap",
          "name": "singleSwap",
          "type": "tuple"
        },
        {
          "components": [
            {
              "internalType": "address",
              "name": "sender",
              "type": "address"
            },
            {
              "internalType": "bool",
              "name": "fromInternalBalance",
              "type": "bool"
            },
            {
              "internalType": "address payable",
              "name": "recipient",
              "type": "address"
            },
            {
              "internalType": "bool",
              "name": "toInternalBalance",
              "type": "bool"
            }
          ],
          "internalType": "struct IVault.FundManagement",
          "name": "funds",
          "type": "tuple"
        },
        {
          "internalType": "uint256",
          "name": "limit",
          "type": "uint256"
        },
        {
          "internalType": "uint256",
          "name": "deadline",
          "type": "uint256"
        }
      ],
      "name": "swap",
      "outputs": [
        {
          "internalType": "uint256",
          "name": "amountCalculated",
          "type": "uint256"
        }
      ],
      "stateMutability": "payable",
      "type": "function"
    },
    {
      "stateMutability": "payable",
      "type": "receive"
    }
  ],
  "bytecode": {
    "object": "0x6101806040523480156200001257600080fd5b5060405162006d1138038062006d11833981016040819052620000359162000253565b8382826040518060400160405280601181526020017010985b185b98d95c88158c8815985d5b1d607a1b81525080604051806040016040528060018152602001603160f81b815250306001600160a01b031660001b89806001600160a01b03166080816001600160a01b031660601b815250505030604051620000b89062000245565b620000c491906200029f565b604051809103906000f080158015620000e1573d6000803e3d6000fd5b5060601b6001600160601b03191660a052600160005560c052815160209283012060e052805191012061010052507f8b73c3c69bb8fe3d512ecc4cf759cc79239f7b179b0ffacaa9a75d522b39400f61012052620001486276a70083111561019462000181565b6200015c62278d0082111561019562000181565b429091016101408190520161016052620001768162000196565b5050505050620002cc565b8162000192576200019281620001f2565b5050565b6040516001600160a01b038216907f94b979b6831a51293e2641426f97747feed46f17779fed9cd18d1ecefcfe92ef90600090a2600380546001600160a01b0390921661010002610100600160a81b0319909216919091179055565b62461bcd60e51b6000908152602060045260076024526642414c23000030600a808404818106603090810160081b95839006959095019082900491820690940160101b939093010160c81b604452606490fd5b610b05806200620c83390190565b6000806000806080858703121562000269578384fd5b84516200027681620002b3565b60208601519094506200028981620002b3565b6040860151606090960151949790965092505050565b6001600160a01b0391909116815260200190565b6001600160a01b0381168114620002c957600080fd5b50565b60805160601c60a05160601c60c05160e05161010051610120516101405161016051615edc6200033060003980611a6c525080611a485250806127f65250806128385250806128175250806110c352508061137c5250806105085250615edc6000f3fe6080604052600436106101855760003560e01c8063945bcec9116100d1578063e6c460921161008a578063f84d066e11610064578063f84d066e1461046a578063f94d46681461048a578063fa6e671d146104b9578063fec90d72146104d9576101b3565b8063e6c4609214610407578063ed24911d14610427578063f6c009271461043c576101b3565b8063945bcec914610365578063aaabadc514610378578063ad5c46481461039a578063b05f8e48146103af578063b95cac28146103df578063d2946c2b146103f2576101b3565b806352bbbe291161013e5780637d3aeb96116101185780637d3aeb96146102e5578063851c1bb3146103055780638bdb39131461032557806390193b7c14610345576101b3565b806352bbbe29146102925780635c38449e146102a557806366a9c7d2146102c5576101b3565b8063058a628f146101b857806309b2760f146101d85780630e8e3e841461020e5780630f5a6efa1461022157806316c38b3c1461024e5780631c0de0511461026e576101b3565b366101b3576101b1610195610506565b6001600160a01b0316336001600160a01b03161461020661052b565b005b600080fd5b3480156101c457600080fd5b506101b16101d3366004615177565b61053d565b3480156101e457600080fd5b506101f86101f336600461572c565b610561565b6040516102059190615d12565b60405180910390f35b6101b161021c366004615352565b610614565b34801561022d57600080fd5b5061024161023c366004615215565b610750565b6040516102059190615cdc565b34801561025a57600080fd5b506101b16102693660046154a6565b6107e5565b34801561027a57600080fd5b506102836107fe565b60405161020593929190615cfa565b6101f86102a03660046158d1565b610827565b3480156102b157600080fd5b506101b16102c03660046156a2565b6109c8565b3480156102d157600080fd5b506101b16102e036600461558d565b610dca565b3480156102f157600080fd5b506101b161030036600461555f565b610f69565b34801561031157600080fd5b506101f861032036600461567a565b6110bd565b34801561033157600080fd5b506101b16103403660046154f6565b611116565b34801561035157600080fd5b506101f8610360366004615177565b61112c565b6102416103733660046157ca565b611147565b34801561038457600080fd5b5061038d61127b565b6040516102059190615b71565b3480156103a657600080fd5b5061038d61128f565b3480156103bb57600080fd5b506103cf6103ca366004615656565b61129e565b6040516102059493929190615e12565b6101b16103ed3660046154f6565b611361565b3480156103fe57600080fd5b5061038d61137a565b34801561041357600080fd5b506101b1610422366004615262565b61139e565b34801561043357600080fd5b506101f86114ba565b34801561044857600080fd5b5061045c6104573660046154de565b6114c4565b604051610205929190615b85565b34801561047657600080fd5b50610241610485366004615748565b6114ee565b34801561049657600080fd5b506104aa6104a53660046154de565b6115d2565b60405161020593929190615ca6565b3480156104c557600080fd5b506101b16104d43660046151cb565b611606565b3480156104e557600080fd5b506104f96104f4366004615193565b611698565b6040516102059190615cef565b7f00000000000000000000000000000000000000000000000000000000000000005b90565b8161053957610539816116ad565b5050565b610545611700565b61054d611719565b61055681611747565b61055e6117a3565b50565b600061056b611700565b6105736117aa565b600061058233846006546117bf565b6000818152600560205260409020549091506105a49060ff16156101f461052b565b60008181526005602052604090819020805460ff1916600190811790915560068054909101905551339082907f3c13bc30b8e878c53fd2a36b679409c073afd75950be43d8858768e956fbc20e906105fd908790615d98565b60405180910390a3905061060f6117a3565b919050565b61061c611700565b6000806000805b845181101561073b5760008060008060006106518a878151811061064357fe5b6020026020010151896117fe565b9c50939850919650945092509050600185600381111561066d57fe5b14156106845761067f84838386611876565b61072a565b86610696576106916117aa565b600196505b60008560038111156106a457fe5b14156106d5576106b684838386611899565b6106bf846118b9565b1561067f576106ce89846118c6565b985061072a565b6106ea6106e1856118b9565b1561020761052b565b60006106f585610528565b9050600286600381111561070557fe5b141561071c57610717818484876118d8565b610728565b610728818484876118f1565b505b505060019093019250610623915050565b506107458361195f565b50505061055e6117a3565b606081516001600160401b038111801561076957600080fd5b50604051908082528060200260200182016040528015610793578160200160208202803683370190505b50905060005b82518110156107de576107bf848483815181106107b257fe5b6020026020010151611982565b8282815181106107cb57fe5b6020908102919091010152600101610799565b5092915050565b6107ed611700565b6107f5611719565b610556816119ad565b600080600061080b611a29565b159250610816611a46565b9150610820611a6a565b9050909192565b6000610831611700565b6108396117aa565b835161084481611a8e565b610853834211156101fc61052b565b61086660008760800151116101fe61052b565b60006108758760400151611ac0565b905060006108868860600151611ac0565b90506108a9816001600160a01b0316836001600160a01b031614156101fd61052b565b6108b1614c98565b885160808201526020890151819060018111156108ca57fe5b908160018111156108d757fe5b9052506001600160a01b03808416602083015282811660408084019190915260808b0151606084015260a08b01516101008401528951821660c08401528901511660e082015260008061092983611ae5565b9198509250905061096060008c60200151600181111561094557fe5b146109535789831115610958565b898210155b6101fb61052b565b6109788b60400151838c600001518d60200151611bd9565b6109908b60600151828c604001518d60600151611cb7565b6109b26109a08c604001516118b9565b6109ab5760006109ad565b825b61195f565b5050505050506109c06117a3565b949350505050565b6109d0611700565b6109d86117aa565b6109e483518351611d91565b600083516001600160401b03811180156109fd57600080fd5b50604051908082528060200260200182016040528015610a27578160200160208202803683370190505b509050600084516001600160401b0381118015610a4357600080fd5b50604051908082528060200260200182016040528015610a6d578160200160208202803683370190505b5090506000805b8651811015610be6576000878281518110610a8b57fe5b602002602001015190506000878381518110610aa357fe5b60200260200101519050610aee846001600160a01b0316836001600160a01b03161160006001600160a01b0316846001600160a01b031614610ae6576066610ae9565b60685b61052b565b819350816001600160a01b03166370a08231306040518263ffffffff1660e01b8152600401610b1d9190615b71565b60206040518083038186803b158015610b3557600080fd5b505afa158015610b49573d6000803e3d6000fd5b505050506040513d601f19601f82011682018060405250810190610b6d91906159b3565b858481518110610b7957fe5b602002602001018181525050610b8e81611d9e565b868481518110610b9a57fe5b602002602001018181525050610bc881868581518110610bb657fe5b6020026020010151101561021061052b565b610bdc6001600160a01b0383168b83611e25565b5050600101610a74565b5060405163f04f270760e01b81526001600160a01b0388169063f04f270790610c19908990899088908a90600401615c59565b600060405180830381600087803b158015610c3357600080fd5b505af1158015610c47573d6000803e3d6000fd5b5050505060005b8651811015610db8576000878281518110610c6557fe5b602002602001015190506000848381518110610c7d57fe5b602002602001015190506000826001600160a01b03166370a08231306040518263ffffffff1660e01b8152600401610cb59190615b71565b60206040518083038186803b158015610ccd57600080fd5b505afa158015610ce1573d6000803e3d6000fd5b505050506040513d601f19601f82011682018060405250810190610d0591906159b3565b9050610d168282101561020361052b565b60008282039050610d3f888681518110610d2c57fe5b602002602001015182101561025a61052b565b610d498482611e77565b836001600160a01b03168c6001600160a01b03167f0d7d75e01ab95780d3cd1c8ec0dd6c2ce19e3a20427eec8bf53283b6fb8e95f08c8881518110610d8a57fe5b602002602001015184604051610da1929190615da6565b60405180910390a350505050806001019050610c4e565b50505050610dc46117a3565b50505050565b610dd2611700565b610dda6117aa565b82610de481611e99565b610df083518351611d91565b60005b8351811015610e8e576000848281518110610e0a57fe5b60200260200101519050610e3660006001600160a01b0316826001600160a01b0316141561013561052b565b838281518110610e4257fe5b6020908102919091018101516000888152600a835260408082206001600160a01b0395861683529093529190912080546001600160a01b03191692909116919091179055600101610df3565b506000610e9a85611eca565b90506002816002811115610eaa57fe5b1415610ef857610ec0845160021461020c61052b565b610ef38585600081518110610ed157fe5b602002602001015186600181518110610ee657fe5b6020026020010151611ee4565b610f20565b6001816002811115610f0657fe5b1415610f1657610ef38585611f90565b610f208585611fe8565b847ff5847d3f2197b16cdcd2098ec95d0905cd1abdaf415f07bb7cef2bba8ac5dec48585604051610f52929190615bce565b60405180910390a25050610f646117a3565b505050565b610f71611700565b610f796117aa565b81610f8381611e99565b6000610f8e84611eca565b90506002816002811115610f9e57fe5b1415610fec57610fb4835160021461020c61052b565b610fe78484600081518110610fc557fe5b602002602001015185600181518110610fda57fe5b602002602001015161203d565b611014565b6001816002811115610ffa57fe5b141561100a57610fe784846120ab565b6110148484612165565b60005b835181101561107a57600a6000868152602001908152602001600020600085838151811061104157fe5b6020908102919091018101516001600160a01b0316825281019190915260400160002080546001600160a01b0319169055600101611017565b50837f7dcdc6d02ef40c7c1a7046a011b058bd7f988fa14e20a66344f9d4e60657d610846040516110ab9190615bbb565b60405180910390a250506105396117a3565b604080517f00000000000000000000000000000000000000000000000000000000000000006020808301919091526001600160e01b03198416828401528251602481840301815260449092019092528051910120919050565b610dc46001858585611127866121c8565b6121d4565b6001600160a01b031660009081526002602052604090205490565b6060611151611700565b6111596117aa565b835161116481611a8e565b611173834211156101fc61052b565b61117f86518551611d91565b61118b8787878b61235a565b91506000805b875181101561125d5760008882815181106111a857fe5b6020026020010151905060008583815181106111c057fe5b602002602001015190506111ec8884815181106111d957fe5b60200260200101518213156101fb61052b565b600081131561122c57885160208a0151829161120b9185918491611bd9565b611214836118b9565b156112265761122385826118c6565b94505b50611253565b600081121561125357600081600003905061125183828c604001518d60600151611cb7565b505b5050600101611191565b506112678161195f565b50506112716117a3565b9695505050505050565b60035461010090046001600160a01b031690565b6000611299610506565b905090565b600080600080856112ae816125e8565b6000806112ba89611eca565b905060028160028111156112ca57fe5b14156112e1576112da8989612606565b915061130c565b60018160028111156112ef57fe5b14156112ff576112da8989612680565b61130989896126ee565b91505b61131582612706565b965061132082612712565b955061132b82612721565b6000998a52600a60209081526040808c206001600160a01b039b8c168d5290915290992054969995989796909616955050505050565b6113696117aa565b610dc46000858585611127866121c8565b7f000000000000000000000000000000000000000000000000000000000000000090565b6113a6611700565b6113ae6117aa565b6113b6614ce8565b60005b82518110156114b0578281815181106113ce57fe5b602002602001015191506000826020015190506113ea816125e8565b60408301516114046113fc8383612727565b61020961052b565b6000828152600a602090815260408083206001600160a01b038581168552925290912054611437911633146101f661052b565b8351606085015160008061144d84878786612783565b91509150846001600160a01b0316336001600160a01b0316877f6edcaf6241105b4c94c2efdbf3a6b12458eb3d07be3a0e81d24b13c44045fe7a8585604051611497929190615da6565b60405180910390a45050505050508060010190506113b9565b505061055e6117a3565b60006112996127f2565b600080826114d1816125e8565b6114da846128b0565b6114e385611eca565b925092505b50915091565b60603330146115a8576000306001600160a01b0316600036604051611514929190615b3a565b6000604051808303816000865af19150503d8060008114611551576040519150601f19603f3d011682016040523d82523d6000602084013e611556565b606091505b50509050806000811461156557fe5b60046000803e6000516001600160e01b031916637d30e60960e11b8114611590573d6000803e3d6000fd5b50602060005260043d0380600460203e602081016000f35b60006115b68585858961235a565b9050602081510263fa61cc126020830352600482036024820181fd5b6060806000836115e1816125e8565b60606115ec866128b6565b90955090506115fa81612918565b95979096509350505050565b61160e611700565b6116166117aa565b8261162081611a8e565b6001600160a01b0384811660008181526004602090815260408083209488168084529490915290819020805460ff1916861515179055519091907f46961fdb4502b646d5095fba7600486a8ac05041d55cdf0f16ed677180b5cad890611687908690615cef565b60405180910390a350610f646117a3565b60006116a483836129c6565b90505b92915050565b62461bcd60e51b6000908152602060045260076024526642414c23000030600a808404818106603090810160081b95839006959095019082900491820690940160101b939093010160c81b604452606490fd5b6117126002600054141561019061052b565b6002600055565b60006117306000356001600160e01b0319166110bd565b905061055e61173f82336129f4565b61019161052b565b6040516001600160a01b038216907f94b979b6831a51293e2641426f97747feed46f17779fed9cd18d1ecefcfe92ef90600090a2600380546001600160a01b0390921661010002610100600160a81b0319909216919091179055565b6001600055565b6117bd6117b5611a29565b61019261052b565b565b600069ffffffffffffffffffff821660508460028111156117dc57fe5b901b17606085901b6bffffffffffffffffffffffff19161790505b9392505050565b600080600080600080600088606001519050336001600160a01b0316816001600160a01b031614611850578761183b57611836611719565b600197505b61185061184882336129c6565b6101f761052b565b885160208a015160408b01516080909b0151919b909a9992985090965090945092505050565b61188b8361188386611ac0565b836000612a7e565b50610dc48482846000611cb7565b6118ac826118a686611ac0565b83612ad4565b610dc48482856000611bd9565b6001600160a01b03161590565b60008282016116a4848210158361052b565b6118e58385836000612a7e565b50610dc4828583612ad4565b8015610dc45761190c6001600160a01b038516848484612b04565b826001600160a01b0316846001600160a01b03167f540a1a3f28340caec336c81d8d7b3df139ee5cdc1839a4f283d7ebb7eaae2d5c8484604051611951929190615ba2565b60405180910390a350505050565b61196e8134101561020461052b565b348190038015610539576105393382612b5e565b6001600160a01b039182166000908152600b6020908152604080832093909416825291909152205490565b80156119cd576119c86119be611a46565b421061019361052b565b6119e2565b6119e26119d8611a6a565b42106101a961052b565b6003805482151560ff19909116811790915560408051918252517f9e3a5e37224532dea67b89face185703738a228a6e8a23dee546960180d3be649181900360200190a150565b6000611a33611a6a565b42118061129957505060035460ff161590565b7f000000000000000000000000000000000000000000000000000000000000000090565b7f000000000000000000000000000000000000000000000000000000000000000090565b336001600160a01b0382161461055e57611aa6611719565b611ab081336129c6565b61055e5761055e816101f7612bcd565b6000611acb826118b9565b611add57611ad882610528565b6116a7565b6116a7610506565b600080600080611af885608001516128b0565b90506000611b098660800151611eca565b90506002816002811115611b1957fe5b1415611b3057611b298683612c01565b9450611b5b565b6001816002811115611b3e57fe5b1415611b4e57611b298683612cb1565b611b588683612d44565b94505b611b6e8660000151876060015187612f68565b809450819550505085604001516001600160a01b031686602001516001600160a01b031687608001517f2170c741c41531aec20e7c107c24eecfdd15e69c9bb0a8dd37b1840b9e0b207b8787604051611bc8929190615da6565b60405180910390a450509193909250565b82611be357610dc4565b611bec846118b9565b15611c6d57611bfe811561020261052b565b611c0d8347101561020461052b565b611c15610506565b6001600160a01b031663d0e30db0846040518263ffffffff1660e01b81526004016000604051808303818588803b158015611c4f57600080fd5b505af1158015611c63573d6000803e3d6000fd5b5050505050610dc4565b6000611c7885610528565b90508115611c95576000611c8f8483876001612a7e565b90940393505b8315611cb057611cb06001600160a01b038216843087612b04565b5050505050565b82611cc157610dc4565b611cca846118b9565b15611d5a57611cdc811561020261052b565b611ce4610506565b6001600160a01b0316632e1a7d4d846040518263ffffffff1660e01b8152600401611d0f9190615d12565b600060405180830381600087803b158015611d2957600080fd5b505af1158015611d3d573d6000803e3d6000fd5b50611d55925050506001600160a01b03831684612b5e565b610dc4565b6000611d6585610528565b90508115611d7d57611d78838286612ad4565b611cb0565b611cb06001600160a01b0382168486611e25565b610539818314606761052b565b600080611da961137a565b6001600160a01b031663d877845c6040518163ffffffff1660e01b815260040160206040518083038186803b158015611de157600080fd5b505afa158015611df5573d6000803e3d6000fd5b505050506040513d601f19601f82011682018060405250810190611e1991906159b3565b90506117f78382612f96565b604080516001600160a01b038416602482015260448082018490528251808303909101815260649091019091526020810180516001600160e01b031663a9059cbb60e01b179052610f64908490612fe3565b801561053957610539611e8861137a565b6001600160a01b0384169083611e25565b611ea2816125e8565b61055e611eae826128b0565b6001600160a01b0316336001600160a01b0316146101f561052b565b600061ffff605083901c166116a7600382106101f461052b565b611f05816001600160a01b0316836001600160a01b0316141561020a61052b565b611f24816001600160a01b0316836001600160a01b031610606661052b565b60008381526009602052604090208054611f61906001600160a01b0316158015611f59575060018201546001600160a01b0316155b61020b61052b565b80546001600160a01b039384166001600160a01b03199182161782556001909101805492909316911617905550565b6000828152600860205260408120905b8251811015610dc4576000611fd1848381518110611fba57fe5b6020026020010151846130cd90919063ffffffff16565b9050611fdf8161020a61052b565b50600101611fa0565b6000828152600160205260408120905b8251811015610dc457600061202684838151811061201257fe5b602090810291909101015184906000613130565b90506120348161020a61052b565b50600101611ff8565b600080600061204d8686866131dd565b92509250925061207761205f846132a4565b801561206f575061206f836132a4565b61020d61052b565b600095865260096020526040862080546001600160a01b031990811682556001909101805490911690559490945550505050565b6000828152600860205260408120905b8251811015610dc45760008382815181106120d257fe5b6020026020010151905061211e61206f600760008881526020019081526020016000206000846001600160a01b03166001600160a01b03168152602001908152602001600020546132a4565b60008581526007602090815260408083206001600160a01b0385168452909152812081905561214d84836132b1565b905061215b8161020961052b565b50506001016120bb565b6000828152600160205260408120905b8251811015610dc457600083828151811061218c57fe5b6020026020010151905060006121a284836133b8565b90506121b061206f826132a4565b6121ba84836133c7565b505050806001019050612175565b6121d0614d11565b5090565b6121dc611700565b836121e6816125e8565b836121f081611a8e565b612204836000015151846020015151611d91565b60006122138460000151613469565b9050600061222188836134f8565b905060008060006122368c8c8c8c8c89613589565b92509250925060006122478c611eca565b9050600281600281111561225757fe5b14156122bf576122ba8c8760008151811061226e57fe5b60200260200101518660008151811061228357fe5b60200260200101518960018151811061229857fe5b6020026020010151886001815181106122ad57fe5b602002602001015161374e565b6122e8565b60018160028111156122cd57fe5b14156122de576122ba8c878661378d565b6122e88c856137fa565b6000808e60018111156122f757fe5b1490508b6001600160a01b03168d7fe5ce249087ce04f05a957192435400fd97868dba0e6a4b4c049abf8af80dae78896123318886613843565b8760405161234193929190615c20565b60405180910390a3505050505050505050611cb06117a3565b606083516001600160401b038111801561237357600080fd5b5060405190808252806020026020018201604052801561239d578160200160208202803683370190505b5090506123a8614d3b565b6123b0614c98565b60008060005b89518110156125db578981815181106123cb57fe5b602002602001015194506000895186602001511080156123ef575089518660400151105b90506123fc81606461052b565b600061241e8b88602001518151811061241157fe5b6020026020010151611ac0565b905060006124358c89604001518151811061241157fe5b9050612458816001600160a01b0316836001600160a01b031614156101fd61052b565b60608801516124a857612470600085116101fe61052b565b600061247d8b84846138ea565b6001600160a01b0316876001600160a01b031614905061249f816101ff61052b565b50606088018590525b87516080880152868a60018111156124bc57fe5b908160018111156124c957fe5b9052506001600160a01b0380831660208901528181166040808a01919091526060808b0151908a015260808a01516101008a01528c51821660c08a01528c01511660e088015260008061251b89611ae5565b9198509250905061252d8c858561390c565b975061256161253b83613926565b8c8c602001518151811061254b57fe5b602002602001015161393a90919063ffffffff16565b8b8b602001518151811061257157fe5b6020026020010181815250506125af61258982613926565b8c8c604001518151811061259957fe5b602002602001015161396e90919063ffffffff16565b8b8b60400151815181106125bf57fe5b60200260200101818152505050505050508060010190506123b6565b5050505050949350505050565b60008181526005602052604090205461055e9060ff166101f461052b565b6000806000806000612617876139a2565b945094509450945050836001600160a01b0316866001600160a01b0316141561264657829450505050506116a7565b816001600160a01b0316866001600160a01b0316141561266b5793506116a792505050565b6126766102096116ad565b5050505092915050565b60008281526007602090815260408083206001600160a01b0385168452909152812054816126ad82613a18565b806126cb575060008581526008602052604090206126cb9085613a2a565b9050806126e6576126db856125e8565b6126e66102096116ad565b509392505050565b60008281526001602052604081206109c081846133b8565b6001600160701b031690565b60701c6001600160701b031690565b60e01c90565b60008061273384611eca565b9050600281600281111561274357fe5b141561275b576127538484613a4b565b9150506116a7565b600181600281111561276957fe5b1415612779576127538484613a9c565b6127538484613ab4565b600080600061279186611eca565b905060008760028111156127a157fe5b14156127bd576127b386828787613acc565b92509250506127e9565b60018760028111156127cb57fe5b14156127dd576127b386828787613b47565b6127b386828787613bc3565b94509492505050565b60007f00000000000000000000000000000000000000000000000000000000000000007f00000000000000000000000000000000000000000000000000000000000000007f000000000000000000000000000000000000000000000000000000000000000061285f613c26565b3060405160200180868152602001858152602001848152602001838152602001826001600160a01b031681526020019550505050505060405160208183030381529060405280519060200120905090565b60601c90565b60608060006128c484611eca565b905060028160028111156128d457fe5b14156128ed576128e384613c2a565b9250925050612913565b60018160028111156128fb57fe5b141561290a576128e384613d5f565b6128e384613e84565b915091565b6060600082516001600160401b038111801561293357600080fd5b5060405190808252806020026020018201604052801561295d578160200160208202803683370190505b5091506000905060005b82518110156114e857600084828151811061297e57fe5b6020026020010151905061299181613f7e565b84838151811061299d57fe5b6020026020010181815250506129bb836129b683612721565b613f99565b925050600101612967565b6001600160a01b03918216600090815260046020908152604080832093909416825291909152205460ff1690565b6003546040516326f8aa2160e21b815260009161010090046001600160a01b031690639be2a88490612a2e90869086903090600401615d1b565b60206040518083038186803b158015612a4657600080fd5b505afa158015612a5a573d6000803e3d6000fd5b505050506040513d601f19601f820116820180604052508101906116a491906154c2565b600080612a8b8686611982565b9050612aa48380612a9c5750848210155b61020161052b565b612aae8185613fb0565b9150818103612aca878783612ac287613926565b600003613fbf565b5050949350505050565b6000612ae08484611982565b90506000612aee82846118c6565b9050611cb0858583612aff87613926565b613fbf565b604080516001600160a01b0380861660248301528416604482015260648082018490528251808303909101815260849091019091526020810180516001600160e01b03166323b872dd60e01b179052610dc4908590612fe3565b612b6d814710156101a361052b565b6040516000906001600160a01b0384169083908381818185875af1925050503d8060008114612bb8576040519150601f19603f3d011682016040523d82523d6000602084013e612bbd565b606091505b50509050610f64816101a461052b565b6001600160a01b0382166000908152600260205260409020805460018101909155610f64612bfb848361401a565b8361052b565b600080600080612c1e8660800151876020015188604001516131dd565b92509250925060008087604001516001600160a01b031688602001516001600160a01b03161015612c53575083905082612c59565b50829050835b612c6588888484614168565b60408b015160208c01519199509294509092506001600160a01b03918216911610612c9957612c948183614265565b612ca3565b612ca38282614265565b909255509295945050505050565b600080612cc684608001518560200151612680565b90506000612cdc85608001518660400151612680565b9050612cea85858484614168565b6080880180516000908152600760208181526040808420828e01516001600160a01b03908116865290835281852098909855935183529081528282209a830151909516815298909352919096209590955550929392505050565b60808201516000908152600160209081526040822090840151829182918290612d6e9083906142a0565b90506000612d898860400151846142a090919063ffffffff16565b9050811580612d96575080155b15612db357612da888608001516125e8565b612db36102096116ad565b60001991820191016000612dc6846142bf565b90506000816001600160401b0381118015612de057600080fd5b50604051908082528060200260200182016040528015612e0a578160200160208202803683370190505b50600060a08c018190529091505b82811015612e8a576000612e2c87836142c3565b9050612e3781613f7e565b838381518110612e4357fe5b602002602001018181525050612e608c60a001516129b683612721565b60a08d015281861415612e7557809850612e81565b84821415612e81578097505b50600101612e18565b5060405162f64aa560e11b81526001600160a01b038a16906301ec954a90612ebc908d90859089908990600401615db4565b602060405180830381600087803b158015612ed657600080fd5b505af1158015612eea573d6000803e3d6000fd5b505050506040513d601f19601f82011682018060405250810190612f0e91906159b3565b9750600080612f268c600001518d606001518c612f68565b9092509050612f3589836142d9565b9850612f41888261430a565b9750612f4e87878b614320565b612f5987868a614320565b50505050505050505092915050565b60008080856001811115612f7857fe5b1415612f88575082905081612f8e565b50819050825b935093915050565b6000828202612fba841580612fb3575083858381612fb057fe5b04145b600361052b565b80612fc95760009150506116a7565b670de0b6b3a76400006000198201046001019150506116a7565b600080836001600160a01b0316836040518082805190602001908083835b602083106130205780518252601f199092019160209182019101613001565b6001836020036101000a0380198251168184511680821785525050505050509050019150506000604051808303816000865af19150503d8060008114613082576040519150601f19603f3d011682016040523d82523d6000602084013e613087565b606091505b5091509150600082141561309f573d6000803e3d6000fd5b610dc48151600014806130c557508180602001905160208110156130c257600080fd5b50515b6101a261052b565b60006130d98383613a2a565b61312857508154600180820184556000848152602080822090930180546001600160a01b0319166001600160a01b038616908117909155855490825282860190935260409020919091556116a7565b5060006116a7565b6001600160a01b0382166000908152600284016020526040812054806131bd57505082546040805180820182526001600160a01b03858116808352602080840187815260008781526001808c018452878220965187546001600160a01b031916961695909517865590519484019490945594820180895590835260028801909452919020919091556117f7565b6000190160009081526001808601602052604082200183905590506117f7565b60008060008060006131ef8787614338565b9150915060006131ff8383614369565b60008a81526009602090815260408083208484526002019091528120805460018201549197509293509061323283613a18565b80613241575061324182613a18565b8061326257506132518c87613a4b565b801561326257506132628c86613a4b565b90508061327d576132728c6125e8565b61327d6102096116ad565b613287838361439c565b985061329383836143c1565b975050505050505093509350939050565b6001600160e01b03161590565b6001600160a01b038116600090815260018301602052604081205480156133ae57835460001980830191908101906000908790839081106132ee57fe5b60009182526020909120015487546001600160a01b039091169150819088908590811061331757fe5b600091825260208083209190910180546001600160a01b0319166001600160a01b0394851617905591831681526001898101909252604090209084019055865487908061336057fe5b60008281526020808220830160001990810180546001600160a01b03191690559092019092556001600160a01b03881682526001898101909152604082209190915594506116a79350505050565b60009150506116a7565b60006116a483836102096143d8565b6001600160a01b038116600090815260028301602052604081205480156133ae57835460001990810160008181526001878101602090815260408084209587018452808420865481546001600160a01b03199081166001600160a01b0392831617835588860180549387019390935588548216875260028d018086528488209a909a5588541690975584905593895593871682529390925281205590506116a7565b6060600082516001600160401b038111801561348457600080fd5b506040519080825280602002602001820160405280156134ae578160200160208202803683370190505b50905060005b83518110156107de576134cc84828151811061241157fe5b8282815181106134d857fe5b6001600160a01b03909216602092830291909101909101526001016134b4565b6060600080613506856128b6565b9150915061351682518551611d91565b613526600083511161020f61052b565b60005b82518110156135805761357885828151811061354157fe5b60200260200101516001600160a01b031684838151811061355e57fe5b60200260200101516001600160a01b03161461020861052b565b600101613529565b50949350505050565b606080606060008061359a86612918565b9150915060006135a98b6128b0565b905060008c60018111156135b957fe5b1461365c57806001600160a01b03166374f3b0098c8c8c87876135da614415565b8f604001516040518863ffffffff1660e01b81526004016136019796959493929190615d3a565b600060405180830381600087803b15801561361b57600080fd5b505af115801561362f573d6000803e3d6000fd5b505050506040513d6000823e601f3d908101601f191682016040526136579190810190615450565b6136f5565b806001600160a01b031663d5c096c48c8c8c8787613678614415565b8f604001516040518863ffffffff1660e01b815260040161369f9796959493929190615d3a565b600060405180830381600087803b1580156136b957600080fd5b505af11580156136cd573d6000803e3d6000fd5b505050506040513d6000823e601f3d908101601f191682016040526136f59190810190615450565b809550819650505061370b87518651865161448f565b60008c600181111561371957fe5b146137305761372b89898988886144a7565b61373d565b61373d8a898988886145ed565b955050505096509650969350505050565b600061375a8584614369565b600087815260096020908152604080832084845260020190915290209091506137838584614265565b9055505050505050565b60005b8251811015610dc4578181815181106137a557fe5b60200260200101516007600086815260200190815260200160002060008584815181106137ce57fe5b6020908102919091018101516001600160a01b0316825281019190915260400160002055600101613790565b6000828152600160205260408120905b8251811015610dc45761383b8184838151811061382357fe5b6020026020010151846143209092919063ffffffff16565b60010161380a565b606082516001600160401b038111801561385c57600080fd5b50604051908082528060200260200182016040528015613886578160200160208202803683370190505b50905060005b83518110156107de57826138b6578381815181106138a657fe5b60200260200101516000036138cb565b8381815181106138c257fe5b60200260200101515b8282815181106138d757fe5b602090810291909101015260010161388c565b6000808460018111156138f957fe5b1461390457816109c0565b509092915050565b60008084600181111561391b57fe5b146107de57826109c0565b60006121d0600160ff1b83106101a561052b565b60008282016116a48284128015906139525750848212155b80613967575060008412801561396757508482125b600061052b565b60008183036116a48284128015906139865750848213155b8061399b575060008412801561399b57508482135b600161052b565b6000818152600960205260408120805460018201546001600160a01b03918216928492909116908290816139d68685614369565b60008181526002840160205260409020805460018201549199509192506139fd828261439c565b9650613a0982826143c1565b94505050505091939590929450565b6000613a23826132a4565b1592915050565b6001600160a01b031660009081526001919091016020526040902054151590565b600082815260096020526040812080546001600160a01b0384811691161480613a83575060018101546001600160a01b038481169116145b80156109c0575050506001600160a01b03161515919050565b60008281526008602052604081206109c08184613a2a565b60008281526001602052604081206109c08184614762565b6000806002856002811115613add57fe5b1415613af357613aee868585614783565b613b1d565b6001856002811115613b0157fe5b1415613b1257613aee868585614791565b613b1d86858561479f565b8215613b3757613b376001600160a01b0385163385611e25565b5050600081900394909350915050565b6000806002856002811115613b5857fe5b1415613b6e57613b698685856147ad565b613b98565b6001856002811115613b7c57fe5b1415613b8d57613b698685856147bb565b613b988685856147c9565b8215613bb357613bb36001600160a01b038516333086612b04565b5090946000869003945092505050565b6000806002856002811115613bd457fe5b1415613bec57613be58685856147d7565b9050613c19565b6001856002811115613bfa57fe5b1415613c0b57613be58685856147e7565b613c168685856147f7565b90505b6000915094509492505050565b4690565b606080600080600080613c3c876139a2565b92975090955093509150506001600160a01b0384161580613c6457506001600160a01b038216155b15613c8d5750506040805160008082526020820190815281830190925294509250612913915050565b60408051600280825260608201835290916020830190803683370190505095508386600081518110613cbb57fe5b60200260200101906001600160a01b031690816001600160a01b0316815250508186600181518110613ce957fe5b6001600160a01b03929092166020928302919091018201526040805160028082526060820183529092909190830190803683370190505094508285600081518110613d3057fe5b6020026020010181815250508085600181518110613d4a57fe5b60200260200101818152505050505050915091565b60008181526008602052604090206060908190613d7b816142bf565b6001600160401b0381118015613d9057600080fd5b50604051908082528060200260200182016040528015613dba578160200160208202803683370190505b50925082516001600160401b0381118015613dd457600080fd5b50604051908082528060200260200182016040528015613dfe578160200160208202803683370190505b50915060005b8351811015613e7d576000613e198383614807565b905080858381518110613e2857fe5b6001600160a01b03928316602091820292909201810191909152600088815260078252604080822093851682529290915220548451859084908110613e6957fe5b602090810291909101015250600101613e04565b5050915091565b60008181526001602052604090206060908190613ea0816142bf565b6001600160401b0381118015613eb557600080fd5b50604051908082528060200260200182016040528015613edf578160200160208202803683370190505b50925082516001600160401b0381118015613ef957600080fd5b50604051908082528060200260200182016040528015613f23578160200160208202803683370190505b50915060005b8351811015613e7d57613f3c8282614834565b858381518110613f4857fe5b60200260200101858481518110613f5b57fe5b60209081029190910101919091526001600160a01b039091169052600101613f29565b6000613f8982612712565b613f9283612706565b0192915050565b600081831015613fa957816116a4565b5090919050565b6000818310613fa957816116a4565b6001600160a01b038085166000818152600b602090815260408083209488168084529490915290819020859055517f18e1ea4139e68413d7d08aa752e71568e36b2c5bf940893314c2c5b01eaa0c4290611951908590615d12565b600080614025614858565b9050428110156140395760009150506116a7565b6000614043614864565b905080614055576000925050506116a7565b600081614060614975565b80516020918201206040805180840194909452838101919091523360608401526080830188905260a08084018790528151808503909101815260c090930190528151910120905060006140b2826149c4565b905060008060006140c1614a10565b925092509250600060018585858560405160008152602001604052604051808581526020018460ff1681526020018381526020018281526020019450505050506020604051602081039080840390855afa158015614123573d6000803e3d6000fd5b5050604051601f1901519150506001600160a01b0381161580159061415957508a6001600160a01b0316816001600160a01b0316145b9b9a5050505050505050505050565b60008060008061417786613f7e565b9050600061418486613f7e565b905061419b61419288612721565b6129b688612721565b60a08a015260405163274b044360e21b81526001600160a01b03891690639d2c110c906141d0908c9086908690600401615ded565b602060405180830381600087803b1580156141ea57600080fd5b505af11580156141fe573d6000803e3d6000fd5b505050506040513d601f19601f8201168201806040525081019061422291906159b3565b925060008061423a8b600001518c6060015187612f68565b909250905061424989836142d9565b9650614255888261430a565b9550505050509450945094915050565b60008061427d61427485612721565b6129b685612721565b90506109c061428b85612706565b61429485612706565b8363ffffffff16614a37565b6001600160a01b03166000908152600291909101602052604090205490565b5490565b6000908152600191820160205260409020015490565b6000806142ef836142e986612706565b906118c6565b905060006142fc85612712565b905043611271838383614a45565b6000806142ef8361431a86612706565b90614a73565b60009182526001928301602052604090912090910155565b600080826001600160a01b0316846001600160a01b03161061435b57828461435e565b83835b915091509250929050565b6000828260405160200161437e929190615b4a565b60405160208183030381529060405280519060200120905092915050565b60006116a46143aa84612706565b6143b384612706565b6143bc86612721565b614a45565b60006116a46143cf84612712565b6143b384612712565b6001600160a01b03821660009081526002840160205260408120546143ff8115158461052b565b61440c85600183036142c3565b95945050505050565b600061441f61137a565b6001600160a01b03166355c676286040518163ffffffff1660e01b815260040160206040518083038186803b15801561445757600080fd5b505afa15801561446b573d6000803e3d6000fd5b505050506040513d601f19601f8201168201806040525081019061129991906159b3565b610f6482841480156144a057508183145b606761052b565b606083516001600160401b03811180156144c057600080fd5b506040519080825280602002602001820160405280156144ea578160200160208202803683370190505b50905060005b8551518110156145e357600084828151811061450857fe5b602002602001015190506145388760200151838151811061452557fe5b60200260200101518210156101f961052b565b60008760000151838151811061454a57fe5b6020026020010151905061456481838b8b60600151611cb7565b600085848151811061457257fe5b6020026020010151905061458e61458883611ac0565b82611e77565b6145bd61459b84836118c6565b8986815181106145a757fe5b602002602001015161430a90919063ffffffff16565b8585815181106145c957fe5b6020026020010181815250505050508060010190506144f0565b5095945050505050565b6060600084516001600160401b038111801561460857600080fd5b50604051908082528060200260200182016040528015614632578160200160208202803683370190505b50915060005b86515181101561475857600085828151811061465057fe5b602002602001015190506146808860200151838151811061466d57fe5b60200260200101518211156101fa61052b565b60008860000151838151811061469257fe5b602002602001015190506146ac81838c8c60600151611bd9565b6146b5816118b9565b156146c7576146c484836118c6565b93505b60008684815181106146d557fe5b602002602001015190506146eb61458883611ac0565b8083101561470a576147058382038a86815181106145a757fe5b614732565b6147328184038a868151811061471c57fe5b60200260200101516142d990919063ffffffff16565b86858151811061473e57fe5b602002602001018181525050505050806001019050614638565b506145e38161195f565b6001600160a01b031660009081526002919091016020526040902054151590565b610dc48383614a8984614ac4565b610dc48383614a8984614b6f565b610dc48383614a8984614bca565b610dc48383614c1984614ac4565b610dc48383614c1984614b6f565b610dc48383614c1984614bca565b60006109c08484614c3a85614ac4565b60006109c08484614c3a85614b6f565b60006109c08484614c3a85614bca565b600082600001828154811061481857fe5b6000918252602090912001546001600160a01b03169392505050565b600090815260019182016020526040902080549101546001600160a01b0390911691565b60006112996000614c54565b6000803560e01c8063b95cac2881146148ac57638bdb391381146148d4576352bbbe2981146148fc5763945bcec981146149245763fa6e671d811461494c5760009250614970565b7f3f7b71252bd19113ff48c19c6e004a9bcfcca320a0d74d58e85877cbd7dcae589250614970565b7f8bbc57f66ea936902f50a71ce12b92c43f3c5340bb40c27c4e90ab84eeae33539250614970565b7fe192dcbc143b1e244ad73b813fd3c097b832ad260a157340b4e5e5beda067abe9250614970565b7f9bfc43a4d98313c6766986ffd7c916c7481566d9f224c6819af0a53388aced3a9250614970565b7fa3f865aa351e51cfeb40f5178d1564bb629fe9030b83caf6361d1baaf5b90b5a92505b505090565b60606000368080601f0160208091040260200160405190810160405280939291908181526020018383808284376000920191909152505082519293505050608010156105285760803603815290565b60006149ce6127f2565b82604051602001808061190160f01b81525060020183815260200182815260200192505050604051602081830303815290604052805190602001209050919050565b6000806000614a1f6020614c54565b9250614a2b6040614c54565b91506108206060614c54565b60e01b60709190911b010190565b6000838301614a68858210801590614a605750600160701b82105b61020e61052b565b61440c858585614a37565b6000614a8383831115600161052b565b50900390565b600080614a998361431a86612706565b90506000614aaa846142e987612712565b90506000614ab786612721565b9050611271838383614a45565b6000806000806000614ad5896139a2565b9450509350935093506000836001600160a01b0316896001600160a01b03161415614b20576000614b0a84898b63ffffffff16565b9050614b168185614c5e565b9093509050614b42565b6000614b3083898b63ffffffff16565b9050614b3c8184614c5e565b90925090505b614b4c8383614265565b8555614b588383614c7a565b600190950194909455509192505050949350505050565b600080614b7c8686612680565b90506000614b8e82858763ffffffff16565b60008881526007602090815260408083206001600160a01b038b16845290915290208190559050614bbf8183614c5e565b979650505050505050565b600084815260016020526040812081614be382876133b8565b90506000614bf582868863ffffffff16565b9050614c02838883613130565b50614c0d8183614c5e565b98975050505050505050565b600080614c29836142e986612706565b90506000614aaa8461431a87612712565b600080614c4684612706565b90504361440c828583614a45565b3601607f19013590565b6000614c6982612712565b614c7284612712565b039392505050565b60006116a4614c8884612712565b614c9184612712565b6000614a37565b60408051610120810190915280600081526000602082018190526040820181905260608083018290526080830182905260a0830182905260c0830182905260e08301919091526101009091015290565b604080516080810190915280600081526000602082018190526040820181905260609091015290565b60405180608001604052806060815260200160608152602001606081526020016000151581525090565b6040518060a0016040528060008019168152602001600081526020016000815260200160008152602001606081525090565b803561060f81615e76565b600082601f830112614d88578081fd5b81356020614d9d614d9883615e59565b615e36565b8281528181019085830183850287018401881015614db9578586fd5b855b85811015614de0578135614dce81615e76565b84529284019290840190600101614dbb565b5090979650505050505050565b600082601f830112614dfd578081fd5b81356020614e0d614d9883615e59565b8281528181019085830183850287018401881015614e29578586fd5b855b85811015614de0578135614e3e81615e76565b84529284019290840190600101614e2b565b600082601f830112614e60578081fd5b81356020614e70614d9883615e59565b82815281810190858301855b85811015614de0578135880160a080601f19838d03011215614e9c578889fd5b604080518281016001600160401b038282108183111715614eb957fe5b8184528a8601358352838601358b84015260609150818601358484015260809350838601358284015284860135945080851115614ef4578c8dfd5b5050614f048d8a85870101614fde565b91810191909152865250509284019290840190600101614e7c565b600082601f830112614f2f578081fd5b81356020614f3f614d9883615e59565b8281528181019085830183850287018401881015614f5b578586fd5b855b85811015614de057813584529284019290840190600101614f5d565b600082601f830112614f89578081fd5b81516020614f99614d9883615e59565b8281528181019085830183850287018401881015614fb5578586fd5b855b85811015614de057815184529284019290840190600101614fb7565b803561060f81615e8b565b600082601f830112614fee578081fd5b81356001600160401b0381111561500157fe5b615014601f8201601f1916602001615e36565b818152846020838601011115615028578283fd5b816020850160208301379081016020019190915292915050565b80356002811061060f57600080fd5b600060808284031215615062578081fd5b61506c6080615e36565b905081356001600160401b038082111561508557600080fd5b61509185838601614d78565b835260208401359150808211156150a757600080fd5b6150b385838601614f1f565b602084015260408401359150808211156150cc57600080fd5b506150d984828501614fde565b6040830152506150eb60608301614fd3565b606082015292915050565b600060808284031215615107578081fd5b604051608081018181106001600160401b038211171561512357fe5b604052905080823561513481615e76565b8152602083013561514481615e8b565b6020820152604083013561515781615e76565b6040820152606083013561516a81615e8b565b6060919091015292915050565b600060208284031215615188578081fd5b81356116a481615e76565b600080604083850312156151a5578081fd5b82356151b081615e76565b915060208301356151c081615e76565b809150509250929050565b6000806000606084860312156151df578081fd5b83356151ea81615e76565b925060208401356151fa81615e76565b9150604084013561520a81615e8b565b809150509250925092565b60008060408385031215615227578182fd5b823561523281615e76565b915060208301356001600160401b0381111561524c578182fd5b61525885828601614ded565b9150509250929050565b60006020808385031215615274578182fd5b82356001600160401b038082111561528a578384fd5b818501915085601f83011261529d578384fd5b81356152ab614d9882615e59565b818152848101908486016080808502870188018b10156152c9578889fd5b8896505b848710156153435780828c0312156152e3578889fd5b6040805182810181811089821117156152f857fe5b8252833561530581615e99565b8152838a01358a8201528184013561531c81615e76565b918101919091526060838101359082015284526001969096019592870192908101906152cd565b50909998505050505050505050565b60006020808385031215615364578182fd5b82356001600160401b038082111561537a578384fd5b818501915085601f83011261538d578384fd5b813561539b614d9882615e59565b8181528481019084860160a0808502870188018b10156153b9578889fd5b8896505b848710156153435780828c0312156153d3578889fd5b6040805182810181811089821117156153e857fe5b82528335600481106153f8578b8cfd5b8152615405848b01614d6d565b8a820152818401358282015260609150615420828501614d6d565b8282015260809150615433828501614d6d565b9181019190915284526001969096019592870192908101906153bd565b60008060408385031215615462578182fd5b82516001600160401b0380821115615478578384fd5b61548486838701614f79565b93506020850151915080821115615499578283fd5b5061525885828601614f79565b6000602082840312156154b7578081fd5b81356116a481615e8b565b6000602082840312156154d3578081fd5b81516116a481615e8b565b6000602082840312156154ef578081fd5b5035919050565b6000806000806080858703121561550b578182fd5b84359350602085013561551d81615e76565b9250604085013561552d81615e76565b915060608501356001600160401b03811115615547578182fd5b61555387828801615051565b91505092959194509250565b60008060408385031215615571578182fd5b8235915060208301356001600160401b0381111561524c578182fd5b6000806000606084860312156155a1578081fd5b833592506020808501356001600160401b03808211156155bf578384fd5b6155cb88838901614ded565b945060408701359150808211156155e0578384fd5b508501601f810187136155f1578283fd5b80356155ff614d9882615e59565b81815283810190838501858402850186018b101561561b578687fd5b8694505b8385101561564657803561563281615e76565b83526001949094019391850191850161561f565b5080955050505050509250925092565b60008060408385031215615668578182fd5b8235915060208301356151c081615e76565b60006020828403121561568b578081fd5b81356001600160e01b0319811681146116a4578182fd5b600080600080608085870312156156b7578182fd5b84356156c281615e76565b935060208501356001600160401b03808211156156dd578384fd5b6156e988838901614ded565b945060408701359150808211156156fe578384fd5b61570a88838901614f1f565b9350606087013591508082111561571f578283fd5b5061555387828801614fde565b60006020828403121561573d578081fd5b81356116a481615e99565b60008060008060e0858703121561575d578182fd5b61576685615042565b935060208501356001600160401b0380821115615781578384fd5b61578d88838901614e50565b945060408701359150808211156157a2578384fd5b506157af87828801614d78565b9250506157bf86606087016150f6565b905092959194509250565b60008060008060008061012087890312156157e3578384fd5b6157ec87615042565b95506020808801356001600160401b0380821115615808578687fd5b6158148b838c01614e50565b975060408a0135915080821115615829578687fd5b6158358b838c01614d78565b96506158448b60608c016150f6565b955060e08a0135915080821115615859578485fd5b508801601f81018a1361586a578384fd5b8035615878614d9882615e59565b81815283810190838501858402850186018e1015615894578788fd5b8794505b838510156158b6578035835260019490940193918501918501615898565b50809650505050505061010087013590509295509295509295565b60008060008060e085870312156158e6578182fd5b84356001600160401b03808211156158fc578384fd5b9086019060c0828903121561590f578384fd5b60405160c08101818110838211171561592457fe5b6040528235815261593760208401615042565b602082015261594860408401614d6d565b604082015261595960608401614d6d565b60608201526080830135608082015260a083013582811115615979578586fd5b6159858a828601614fde565b60a08301525080965050505061599e86602087016150f6565b939693955050505060a08201359160c0013590565b6000602082840312156159c4578081fd5b5051919050565b6001600160a01b03169052565b6000815180845260208085019450808401835b83811015615a105781516001600160a01b0316875295820195908201906001016159eb565b509495945050505050565b6000815180845260208085019450808401835b83811015615a1057815187529582019590820190600101615a2e565b60008151808452815b81811015615a6f57602081850181015186830182015201615a53565b81811115615a805782602083870101525b50601f01601f19169290920160200192915050565b60038110615a9f57fe5b9052565b6000610120825160028110615ab457fe5b808552506020830151615aca60208601826159cb565b506040830151615add60408601826159cb565b50606083015160608501526080830151608085015260a083015160a085015260c0830151615b0e60c08601826159cb565b5060e0830151615b2160e08601826159cb565b5061010080840151828287015261127183870182615a4a565b6000828483379101908152919050565b6bffffffffffffffffffffffff19606093841b811682529190921b16601482015260280190565b6001600160a01b0391909116815260200190565b6001600160a01b0383168152604081016117f76020830184615a95565b6001600160a01b03929092168252602082015260400190565b6000602082526116a460208301846159d8565b600060408252615be160408301856159d8565b828103602084810191909152845180835285820192820190845b81811015614de05784516001600160a01b031683529383019391830191600101615bfb565b600060608252615c3360608301866159d8565b8281036020840152615c458186615a1b565b905082810360408401526112718185615a1b565b600060808252615c6c60808301876159d8565b8281036020840152615c7e8187615a1b565b90508281036040840152615c928186615a1b565b90508281036060840152614bbf8185615a4a565b600060608252615cb960608301866159d8565b8281036020840152615ccb8186615a1b565b915050826040830152949350505050565b6000602082526116a46020830184615a1b565b901515815260200190565b92151583526020830191909152604082015260600190565b90815260200190565b9283526001600160a01b03918216602084015216604082015260600190565b8781526001600160a01b0387811660208301528616604082015260e060608201819052600090615d6c90830187615a1b565b8560808401528460a084015282810360c0840152615d8a8185615a4a565b9a9950505050505050505050565b602081016116a78284615a95565b918252602082015260400190565b600060808252615dc76080830187615aa3565b8281036020840152615dd98187615a1b565b604084019590955250506060015292915050565b600060608252615e006060830186615aa3565b60208301949094525060400152919050565b938452602084019290925260408301526001600160a01b0316606082015260800190565b6040518181016001600160401b0381118282101715615e5157fe5b604052919050565b60006001600160401b03821115615e6c57fe5b5060209081020190565b6001600160a01b038116811461055e57600080fd5b801515811461055e57600080fd5b6003811061055e57600080fdfea2646970667358221220a46ae94e922a3a2617b76c6120f54a0e1abd43dbed290d15119534663723fee664736f6c6343000706003360c060405234801561001057600080fd5b50604051610b05380380610b0583398101604081905261002f9161004d565b30608052600160005560601b6001600160601b03191660a05261007b565b60006020828403121561005e578081fd5b81516001600160a01b0381168114610074578182fd5b9392505050565b60805160a05160601c610a5f6100a66000398061040b52806104f85250806102995250610a5f6000f3fe608060405234801561001057600080fd5b50600436106100935760003560e01c8063851c1bb311610066578063851c1bb3146100f1578063aaabadc514610104578063d877845c14610119578063e42abf3514610121578063fbfa77cf1461014157610093565b806338e9922e1461009857806355c67628146100ad5780636b6b9f69146100cb5780636daefab6146100de575b600080fd5b6100ab6100a6366004610964565b610149565b005b6100b56101a8565b6040516100c291906109ec565b60405180910390f35b6100ab6100d9366004610964565b6101ae565b6100ab6100ec3660046107ae565b610201565b6100b56100ff366004610904565b610293565b61010c6102ed565b6040516100c29190610994565b6100b56102fc565b61013461012f36600461082f565b610302565b6040516100c291906109a8565b61010c610409565b61015161042d565b6101686706f05b59d3b2000082111561025861045e565b60018190556040517fa9ba3ffe0b6c366b81232caab38605a0699ad5398d6cce76f91ee809e322dafc9061019d9083906109ec565b60405180910390a150565b60015490565b6101b661042d565b6101cc662386f26fc1000082111561025961045e565b60028190556040517f5a0b7386237e7f07fa741efc64e59c9387d2cccafec760efed4d53387f20e19a9061019d9083906109ec565b610209610470565b61021161042d565b61021b8483610489565b60005b8481101561028357600086868381811061023457fe5b90506020020160208101906102499190610948565b9050600085858481811061025957fe5b6020029190910135915061027990506001600160a01b0383168583610496565b505060010161021e565b5061028c6104ed565b5050505050565b604080517f00000000000000000000000000000000000000000000000000000000000000006020808301919091526001600160e01b031984168284015282516024818403018152604490920190925280519101205b919050565b60006102f76104f4565b905090565b60025490565b6060815167ffffffffffffffff8111801561031c57600080fd5b50604051908082528060200260200182016040528015610346578160200160208202803683370190505b50905060005b82518110156104035782818151811061036157fe5b60200260200101516001600160a01b03166370a08231306040518263ffffffff1660e01b81526004016103949190610994565b60206040518083038186803b1580156103ac57600080fd5b505afa1580156103c0573d6000803e3d6000fd5b505050506040513d601f19601f820116820180604052508101906103e4919061097c565b8282815181106103f057fe5b602090810291909101015260010161034c565b50919050565b7f000000000000000000000000000000000000000000000000000000000000000081565b60006104446000356001600160e01b031916610293565b905061045b6104538233610587565b61019161045e565b50565b8161046c5761046c81610617565b5050565b6104826002600054141561019061045e565b6002600055565b61046c818314606761045e565b604080516001600160a01b038416602482015260448082018490528251808303909101815260649091019091526020810180516001600160e01b031663a9059cbb60e01b1790526104e890849061066a565b505050565b6001600055565b60007f00000000000000000000000000000000000000000000000000000000000000006001600160a01b031663aaabadc56040518163ffffffff1660e01b815260040160206040518083038186803b15801561054f57600080fd5b505afa158015610563573d6000803e3d6000fd5b505050506040513d601f19601f820116820180604052508101906102f7919061092c565b60006105916104f4565b6001600160a01b0316639be2a8848484306040518463ffffffff1660e01b81526004016105c0939291906109f5565b60206040518083038186803b1580156105d857600080fd5b505afa1580156105ec573d6000803e3d6000fd5b505050506040513d601f19601f8201168201806040525081019061061091906108e4565b9392505050565b62461bcd60e51b6000908152602060045260076024526642414c23000030600a808404818106603090810160081b95839006959095019082900491820690940160101b939093010160c81b604452606490fd5b600080836001600160a01b0316836040518082805190602001908083835b602083106106a75780518252601f199092019160209182019101610688565b6001836020036101000a0380198251168184511680821785525050505050509050019150506000604051808303816000865af19150503d8060008114610709576040519150601f19603f3d011682016040523d82523d6000602084013e61070e565b606091505b50915091506000821415610726573d6000803e3d6000fd5b61075481516000148061074c575081806020019051602081101561074957600080fd5b50515b6101a261045e565b50505050565b60008083601f84011261076b578081fd5b50813567ffffffffffffffff811115610782578182fd5b602083019150836020808302850101111561079c57600080fd5b9250929050565b80356102e881610a14565b6000806000806000606086880312156107c5578081fd5b853567ffffffffffffffff808211156107dc578283fd5b6107e889838a0161075a565b90975095506020880135915080821115610800578283fd5b5061080d8882890161075a565b909450925050604086013561082181610a14565b809150509295509295909350565b60006020808385031215610841578182fd5b823567ffffffffffffffff80821115610858578384fd5b818501915085601f83011261086b578384fd5b81358181111561087757fe5b8381026040518582820101818110858211171561089057fe5b604052828152858101935084860182860187018a10156108ae578788fd5b8795505b838610156108d7576108c3816107a3565b8552600195909501949386019386016108b2565b5098975050505050505050565b6000602082840312156108f5578081fd5b81518015158114610610578182fd5b600060208284031215610915578081fd5b81356001600160e01b031981168114610610578182fd5b60006020828403121561093d578081fd5b815161061081610a14565b600060208284031215610959578081fd5b813561061081610a14565b600060208284031215610975578081fd5b5035919050565b60006020828403121561098d578081fd5b5051919050565b6001600160a01b0391909116815260200190565b6020808252825182820181905260009190848201906040850190845b818110156109e0578351835292840192918401916001016109c4565b50909695505050505050565b90815260200190565b9283526001600160a01b03918216602084015216604082015260600190565b6001600160a01b038116811461045b57600080fdfea26469706673582212205eb0133be1bb0cfc4aab2fcc4860b222c9904bf72661e95ad8bf441e543b7f1564736f6c63430007060033",
    "linkReferences": {}
  },
  "methodIdentifiers": {
    "WETH()": "ad5c4648",
    "batchSwap(uint8,(bytes32,uint256,uint256,uint256,bytes)[],address[],(address,bool,address,bool),int256[],uint256)": "945bcec9",
    "deregisterTokens(bytes32,address[])": "7d3aeb96",
    "exitPool(bytes32,address,address,(address[],uint256[],bytes,bool))": "8bdb3913",
    "flashLoan(address,address[],uint256[],bytes)": "5c38449e",
    "getActionId(bytes4)": "851c1bb3",
    "getAuthorizer()": "aaabadc5",
    "getDomainSeparator()": "ed24911d",
    "getInternalBalance(address,address[])": "0f5a6efa",
    "getNextNonce(address)": "90193b7c",
    "getPausedState()": "1c0de051",
    "getPool(bytes32)": "f6c00927",
    "getPoolTokenInfo(bytes32,address)": "b05f8e48",
    "getPoolTokens(bytes32)": "f94d4668",
    "getProtocolFeesCollector()": "d2946c2b",
    "hasApprovedRelayer(address,address)": "fec90d72",
    "joinPool(bytes32,address,address,(address[],uint256[],bytes,bool))": "b95cac28",
    "managePoolBalance((uint8,bytes32,address,uint256)[])": "e6c46092",
    "manageUserBalance((uint8,address,uint256,address,address)[])": "0e8e3e84",
    "queryBatchSwap(uint8,(bytes32,uint256,uint256,uint256,bytes)[],address[],(address,bool,address,bool))": "f84d066e",
    "registerPool(uint8)": "09b2760f",
    "registerTokens(bytes32,address[],address[])": "66a9c7d2",
    "setAuthorizer(address)": "058a628f",
    "setPaused(bool)": "16c38b3c",
    "setRelayerApproval(address,address,bool)": "fa6e671d",
    "swap((bytes32,uint8,address,address,uint256,bytes),(address,bool,address,bool),uint256,uint256)": "52bbbe29"
  },
  "storageLayout": {
    "storage": [
      {
        "astId": 3805,
        "contract": "test/foundry/Vault/contracts/vault/Vault.sol:Vault",
        "label": "_status",
        "offset": 0,
        "slot": "0",
        "type": "t_uint256"
      },
      {
        "astId": 9499,
        "contract": "test/foundry/Vault/contracts/vault/Vault.sol:Vault",
        "label": "_generalPoolsBalances",
        "offset": 0,
        "slot": "1",
        "type": "t_mapping(t_bytes32,t_struct(IERC20ToBytes32Map)3177_storage)"
      },
      {
        "astId": 716,
        "contract": "test/foundry/Vault/contracts/vault/Vault.sol:Vault",
        "label": "_nextNonce",
        "offset": 0,
        "slot": "2",
        "type": "t_mapping(t_address,t_uint256)"
      },
      {
        "astId": 967,
        "contract": "test/foundry/Vault/contracts/vault/Vault.sol:Vault",
        "label": "_paused",
        "offset": 0,
        "slot": "3",
        "type": "t_bool"
      },
      {
        "astId": 8639,
        "contract": "test/foundry/Vault/contracts/vault/Vault.sol:Vault",
        "label": "_authorizer",
        "offset": 1,
        "slot": "3",
        "type": "t_contract(IAuthorizer)11086"
      },
      {
        "astId": 8645,
        "contract": "test/foundry/Vault/contracts/vault/Vault.sol:Vault",
        "label": "_approvedRelayers",
        "offset": 0,
        "slot": "4",
        "type": "t_mapping(t_address,t_mapping(t_address,t_bool))"
      },
      {
        "astId": 5769,
        "contract": "test/foundry/Vault/contracts/vault/Vault.sol:Vault",
        "label": "_isPoolRegistered",
        "offset": 0,
        "slot": "5",
        "type": "t_mapping(t_bytes32,t_bool)"
      },
      {
        "astId": 5771,
        "contract": "test/foundry/Vault/contracts/vault/Vault.sol:Vault",
        "label": "_nextPoolNonce",
        "offset": 0,
        "slot": "6",
        "type": "t_uint256"
      },
      {
        "astId": 9915,
        "contract": "test/foundry/Vault/contracts/vault/Vault.sol:Vault",
        "label": "_minimalSwapInfoPoolsBalances",
        "offset": 0,
        "slot": "7",
        "type": "t_mapping(t_bytes32,t_mapping(t_contract(IERC20)3793,t_bytes32))"
      },
      {
        "astId": 9919,
        "contract": "test/foundry/Vault/contracts/vault/Vault.sol:Vault",
        "label": "_minimalSwapInfoPoolsTokens",
        "offset": 0,
        "slot": "8",
        "type": "t_mapping(t_bytes32,t_struct(AddressSet)3520_storage)"
      },
      {
        "astId": 10373,
        "contract": "test/foundry/Vault/contracts/vault/Vault.sol:Vault",
        "label": "_twoTokenPoolTokens",
        "offset": 0,
        "slot": "9",
        "type": "t_mapping(t_bytes32,t_struct(TwoTokenPoolTokens)10369_storage)"
      },
      {
        "astId": 4007,
        "contract": "test/foundry/Vault/contracts/vault/Vault.sol:Vault",
        "label": "_poolAssetManagers",
        "offset": 0,
        "slot": "10",
        "type": "t_mapping(t_bytes32,t_mapping(t_contract(IERC20)3793,t_address))"
      },
      {
        "astId": 8019,
        "contract": "test/foundry/Vault/contracts/vault/Vault.sol:Vault",
        "label": "_internalTokenBalance",
        "offset": 0,
        "slot": "11",
        "type": "t_mapping(t_address,t_mapping(t_contract(IERC20)3793,t_uint256))"
      }
    ],
    "types": {
      "t_address": {
        "encoding": "inplace",
        "label": "address",
        "numberOfBytes": "20"
      },
      "t_array(t_address)dyn_storage": {
        "encoding": "dynamic_array",
        "label": "address[]",
        "numberOfBytes": "32",
        "base": "t_address"
      },
      "t_bool": {
        "encoding": "inplace",
        "label": "bool",
        "numberOfBytes": "1"
      },
      "t_bytes32": {
        "encoding": "inplace",
        "label": "bytes32",
        "numberOfBytes": "32"
      },
      "t_contract(IAuthorizer)11086": {
        "encoding": "inplace",
        "label": "contract IAuthorizer",
        "numberOfBytes": "20"
      },
      "t_contract(IERC20)3793": {
        "encoding": "inplace",
        "label": "contract IERC20",
        "numberOfBytes": "20"
      },
      "t_mapping(t_address,t_bool)": {
        "encoding": "mapping",
        "key": "t_address",
        "label": "mapping(address => bool)",
        "numberOfBytes": "32",
        "value": "t_bool"
      },
      "t_mapping(t_address,t_mapping(t_address,t_bool))": {
        "encoding": "mapping",
        "key": "t_address",
        "label": "mapping(address => mapping(address => bool))",
        "numberOfBytes": "32",
        "value": "t_mapping(t_address,t_bool)"
      },
      "t_mapping(t_address,t_mapping(t_contract(IERC20)3793,t_uint256))": {
        "encoding": "mapping",
        "key": "t_address",
        "label": "mapping(address => mapping(contract IERC20 => uint256))",
        "numberOfBytes": "32",
        "value": "t_mapping(t_contract(IERC20)3793,t_uint256)"
      },
      "t_mapping(t_address,t_uint256)": {
        "encoding": "mapping",
        "key": "t_address",
        "label": "mapping(address => uint256)",
        "numberOfBytes": "32",
        "value": "t_uint256"
      },
      "t_mapping(t_bytes32,t_bool)": {
        "encoding": "mapping",
        "key": "t_bytes32",
        "label": "mapping(bytes32 => bool)",
        "numberOfBytes": "32",
        "value": "t_bool"
      },
      "t_mapping(t_bytes32,t_mapping(t_contract(IERC20)3793,t_address))": {
        "encoding": "mapping",
        "key": "t_bytes32",
        "label": "mapping(bytes32 => mapping(contract IERC20 => address))",
        "numberOfBytes": "32",
        "value": "t_mapping(t_contract(IERC20)3793,t_address)"
      },
      "t_mapping(t_bytes32,t_mapping(t_contract(IERC20)3793,t_bytes32))": {
        "encoding": "mapping",
        "key": "t_bytes32",
        "label": "mapping(bytes32 => mapping(contract IERC20 => bytes32))",
        "numberOfBytes": "32",
        "value": "t_mapping(t_contract(IERC20)3793,t_bytes32)"
      },
      "t_mapping(t_bytes32,t_struct(AddressSet)3520_storage)": {
        "encoding": "mapping",
        "key": "t_bytes32",
        "label": "mapping(bytes32 => struct EnumerableSet.AddressSet)",
        "numberOfBytes": "32",
        "value": "t_struct(AddressSet)3520_storage"
      },
      "t_mapping(t_bytes32,t_struct(IERC20ToBytes32Map)3177_storage)": {
        "encoding": "mapping",
        "key": "t_bytes32",
        "label": "mapping(bytes32 => struct EnumerableMap.IERC20ToBytes32Map)",
        "numberOfBytes": "32",
        "value": "t_struct(IERC20ToBytes32Map)3177_storage"
      },
      "t_mapping(t_bytes32,t_struct(TwoTokenPoolBalances)10360_storage)": {
        "encoding": "mapping",
        "key": "t_bytes32",
        "label": "mapping(bytes32 => struct TwoTokenPoolsBalance.TwoTokenPoolBalances)",
        "numberOfBytes": "32",
        "value": "t_struct(TwoTokenPoolBalances)10360_storage"
      },
      "t_mapping(t_bytes32,t_struct(TwoTokenPoolTokens)10369_storage)": {
        "encoding": "mapping",
        "key": "t_bytes32",
        "label": "mapping(bytes32 => struct TwoTokenPoolsBalance.TwoTokenPoolTokens)",
        "numberOfBytes": "32",
        "value": "t_struct(TwoTokenPoolTokens)10369_storage"
      },
      "t_mapping(t_contract(IERC20)3793,t_address)": {
        "encoding": "mapping",
        "key": "t_contract(IERC20)3793",
        "label": "mapping(contract IERC20 => address)",
        "numberOfBytes": "32",
        "value": "t_address"
      },
      "t_mapping(t_contract(IERC20)3793,t_bytes32)": {
        "encoding": "mapping",
        "key": "t_contract(IERC20)3793",
        "label": "mapping(contract IERC20 => bytes32)",
        "numberOfBytes": "32",
        "value": "t_bytes32"
      },
      "t_mapping(t_contract(IERC20)3793,t_uint256)": {
        "encoding": "mapping",
        "key": "t_contract(IERC20)3793",
        "label": "mapping(contract IERC20 => uint256)",
        "numberOfBytes": "32",
        "value": "t_uint256"
      },
      "t_mapping(t_uint256,t_struct(IERC20ToBytes32MapEntry)3166_storage)": {
        "encoding": "mapping",
        "key": "t_uint256",
        "label": "mapping(uint256 => struct EnumerableMap.IERC20ToBytes32MapEntry)",
        "numberOfBytes": "32",
        "value": "t_struct(IERC20ToBytes32MapEntry)3166_storage"
      },
      "t_struct(AddressSet)3520_storage": {
        "encoding": "inplace",
        "label": "struct EnumerableSet.AddressSet",
        "numberOfBytes": "64",
        "members": [
          {
            "astId": 3515,
            "contract": "test/foundry/Vault/contracts/vault/Vault.sol:Vault",
            "label": "_values",
            "offset": 0,
            "slot": "0",
            "type": "t_array(t_address)dyn_storage"
          },
          {
            "astId": 3519,
            "contract": "test/foundry/Vault/contracts/vault/Vault.sol:Vault",
            "label": "_indexes",
            "offset": 0,
            "slot": "1",
            "type": "t_mapping(t_address,t_uint256)"
          }
        ]
      },
      "t_struct(IERC20ToBytes32Map)3177_storage": {
        "encoding": "inplace",
        "label": "struct EnumerableMap.IERC20ToBytes32Map",
        "numberOfBytes": "96",
        "members": [
          {
            "astId": 3168,
            "contract": "test/foundry/Vault/contracts/vault/Vault.sol:Vault",
            "label": "_length",
            "offset": 0,
            "slot": "0",
            "type": "t_uint256"
          },
          {
            "astId": 3172,
            "contract": "test/foundry/Vault/contracts/vault/Vault.sol:Vault",
            "label": "_entries",
            "offset": 0,
            "slot": "1",
            "type": "t_mapping(t_uint256,t_struct(IERC20ToBytes32MapEntry)3166_storage)"
          },
          {
            "astId": 3176,
            "contract": "test/foundry/Vault/contracts/vault/Vault.sol:Vault",
            "label": "_indexes",
            "offset": 0,
            "slot": "2",
            "type": "t_mapping(t_contract(IERC20)3793,t_uint256)"
          }
        ]
      },
      "t_struct(IERC20ToBytes32MapEntry)3166_storage": {
        "encoding": "inplace",
        "label": "struct EnumerableMap.IERC20ToBytes32MapEntry",
        "numberOfBytes": "64",
        "members": [
          {
            "astId": 3163,
            "contract": "test/foundry/Vault/contracts/vault/Vault.sol:Vault",
            "label": "_key",
            "offset": 0,
            "slot": "0",
            "type": "t_contract(IERC20)3793"
          },
          {
            "astId": 3165,
            "contract": "test/foundry/Vault/contracts/vault/Vault.sol:Vault",
            "label": "_value",
            "offset": 0,
            "slot": "1",
            "type": "t_bytes32"
          }
        ]
      },
      "t_struct(TwoTokenPoolBalances)10360_storage": {
        "encoding": "inplace",
        "label": "struct TwoTokenPoolsBalance.TwoTokenPoolBalances",
        "numberOfBytes": "64",
        "members": [
          {
            "astId": 10357,
            "contract": "test/foundry/Vault/contracts/vault/Vault.sol:Vault",
            "label": "sharedCash",
            "offset": 0,
            "slot": "0",
            "type": "t_bytes32"
          },
          {
            "astId": 10359,
            "contract": "test/foundry/Vault/contracts/vault/Vault.sol:Vault",
            "label": "sharedManaged",
            "offset": 0,
            "slot": "1",
            "type": "t_bytes32"
          }
        ]
      },
      "t_struct(TwoTokenPoolTokens)10369_storage": {
        "encoding": "inplace",
        "label": "struct TwoTokenPoolsBalance.TwoTokenPoolTokens",
        "numberOfBytes": "96",
        "members": [
          {
            "astId": 10362,
            "contract": "test/foundry/Vault/contracts/vault/Vault.sol:Vault",
            "label": "tokenA",
            "offset": 0,
            "slot": "0",
            "type": "t_contract(IERC20)3793"
          },
          {
            "astId": 10364,
            "contract": "test/foundry/Vault/contracts/vault/Vault.sol:Vault",
            "label": "tokenB",
            "offset": 0,
            "slot": "1",
            "type": "t_contract(IERC20)3793"
          },
          {
            "astId": 10368,
            "contract": "test/foundry/Vault/contracts/vault/Vault.sol:Vault",
            "label": "balances",
            "offset": 0,
            "slot": "2",
            "type": "t_mapping(t_bytes32,t_struct(TwoTokenPoolBalances)10360_storage)"
          }
        ]
      },
      "t_uint256": {
        "encoding": "inplace",
        "label": "uint256",
        "numberOfBytes": "32"
      }
    }
  },
  "id": 30
}