{"abi":[{"type":"constructor","inputs":[{"name":"logic_","type":"address","internalType":"address"},{"name":"admin_","type":"address","internalType":"address"},{"name":"data_","type":"bytes","internalType":"bytes"},{"name":"ozDiamond_","type":"address","internalType":"address"}],"stateMutability":"nonpayable"},{"type":"fallback","stateMutability":"payable"},{"type":"receive","stateMutability":"payable"},{"type":"function","name":"admin","inputs":[],"outputs":[{"name":"","type":"address","internalType":"address"}],"stateMutability":"view"},{"type":"function","name":"changeAdmin","inputs":[{"name":"newAdmin_","type":"address","internalType":"address"}],"outputs":[],"stateMutability":"nonpayable"},{"type":"event","name":"AdminChanged","inputs":[{"name":"previousAdmin","type":"address","indexed":false,"internalType":"address"},{"name":"newAdmin","type":"address","indexed":false,"internalType":"address"}],"anonymous":false},{"type":"event","name":"BeaconUpgraded","inputs":[{"name":"beacon","type":"address","indexed":true,"internalType":"address"}],"anonymous":false},{"type":"event","name":"Upgraded","inputs":[{"name":"implementation","type":"address","indexed":true,"internalType":"address"}],"anonymous":false}],"bytecode":{"object":"0x60a06040523480156200001157600080fd5b506040516200104738038062001047833981016040819052620000349162000445565b838383828162000047828260006200006e565b5062000055905082620000a0565b5050506001600160a01b0316608052506200058b915050565b620000798362000112565b600082511180620000875750805b156200009b5762000099838362000154565b505b505050565b7f7e644d79422f17c01e4894b5f4f588d331ebfa28653d42ae832dc59e38c9798f620000e260008051602062001000833981519152546001600160a01b031690565b604080516001600160a01b03928316815291841660208301520160405180910390a16200010f8162000183565b50565b6200011d8162000221565b6040516001600160a01b038216907fbc7cd75a20ee27fd9adebab32041f755214dbc6bffa90cc0225b39da2e5c2d3b90600090a250565b60606200017c83836040518060600160405280602781526020016200102060279139620002b8565b9392505050565b6001600160a01b038116620001ee5760405162461bcd60e51b815260206004820152602660248201527f455243313936373a206e65772061646d696e20697320746865207a65726f206160448201526564647265737360d01b60648201526084015b60405180910390fd5b80600080516020620010008339815191525b80546001600160a01b0319166001600160a01b039290921691909117905550565b6001600160a01b0381163b620002905760405162461bcd60e51b815260206004820152602d60248201527f455243313936373a206e657720696d706c656d656e746174696f6e206973206e60448201526c1bdd08184818dbdb9d1c9858dd609a1b6064820152608401620001e5565b807f360894a13ba1a3210667c828492db98dca3e2076cc3735a920a3ca505d382bbc62000200565b6060600080856001600160a01b031685604051620002d7919062000538565b600060405180830381855af49150503d806000811462000314576040519150601f19603f3d011682016040523d82523d6000602084013e62000319565b606091505b5090925090506200032d8683838762000337565b9695505050505050565b60608315620003ab578251600003620003a3576001600160a01b0385163b620003a35760405162461bcd60e51b815260206004820152601d60248201527f416464726573733a2063616c6c20746f206e6f6e2d636f6e74726163740000006044820152606401620001e5565b5081620003b7565b620003b78383620003bf565b949350505050565b815115620003d05781518083602001fd5b8060405162461bcd60e51b8152600401620001e5919062000556565b80516001600160a01b03811681146200040457600080fd5b919050565b634e487b7160e01b600052604160045260246000fd5b60005b838110156200043c57818101518382015260200162000422565b50506000910152565b600080600080608085870312156200045c57600080fd5b6200046785620003ec565b93506200047760208601620003ec565b60408601519093506001600160401b03808211156200049557600080fd5b818701915087601f830112620004aa57600080fd5b815181811115620004bf57620004bf62000409565b604051601f8201601f19908116603f01168101908382118183101715620004ea57620004ea62000409565b816040528281528a60208487010111156200050457600080fd5b620005178360208301602088016200041f565b80965050505050506200052d60608601620003ec565b905092959194509250565b600082516200054c8184602087016200041f565b9190910192915050565b6020815260008251806020840152620005778160408501602087016200041f565b601f01601f19169190910160400192915050565b608051610a5a620005a6600039600060aa0152610a5a6000f3fe60806040526004361061002d5760003560e01c80638f28397014610044578063f851a440146100645761003c565b3661003c5761003a610095565b005b61003a610095565b34801561005057600080fd5b5061003a61005f366004610833565b610116565b34801561007057600080fd5b50610079610143565b6040516001600160a01b03909116815260200160405180910390f35b604051635b14f18360e01b81523060048201527f00000000000000000000000000000000000000000000000000000000000000006001600160a01b031690635b14f1839060240160006040518083038186803b1580156100f457600080fd5b505afa158015610108573d6000803e3d6000fd5b50505050610114610152565b565b61014060405180604001604052806008815260200167039b2b73232b91d160c51b815250336102a2565b50565b600061014d6102eb565b905090565b61015a6102eb565b6001600160a01b0316330361029a5760606001600160e01b0319600035166364d3180d60e11b81016101955761018e61031e565b9150610292565b63587086bd60e11b6001600160e01b03198216016101b55761018e610375565b63070d7c6960e41b6001600160e01b03198216016101d55761018e6103bb565b621eb96f60e61b6001600160e01b03198216016101f45761018e6103ec565b63a39f25e560e01b6001600160e01b03198216016102145761018e61042c565b60405162461bcd60e51b815260206004820152604260248201527f5472616e73706172656e745570677261646561626c6550726f78793a2061646d60448201527f696e2063616e6e6f742066616c6c6261636b20746f2070726f78792074617267606482015261195d60f21b608482015260a4015b60405180910390fd5b815160208301f35b610114610440565b6102e782826040516024016102b89291906108a0565b60408051601f198184030181529190526020810180516001600160e01b031663319af33360e01b179052610450565b5050565b60007fb53127684a568b3173ae13b9f8a6016e243e63b6e8ee1178d6a717850b5d61035b546001600160a01b0316919050565b6060610328610471565b600061033736600481846108ca565b8101906103449190610833565b90506103618160405180602001604052806000815250600061047c565b505060408051602081019091526000815290565b606060008061038736600481846108ca565b810190610394919061090a565b915091506103a48282600161047c565b604051806020016040528060008152509250505090565b60606103c5610471565b60006103d436600481846108ca565b8101906103e19190610833565b9050610361816104a8565b60606103f6610471565b60006104006102eb565b604080516001600160a01b03831660208201529192500160405160208183030381529060405291505090565b6060610436610471565b60006104006104fc565b61011461044b6104fc565b610506565b80516a636f6e736f6c652e6c6f67602083016000808483855afa5050505050565b341561011457600080fd5b6104858361052a565b6000825111806104925750805b156104a3576104a1838361056a565b505b505050565b7f7e644d79422f17c01e4894b5f4f588d331ebfa28653d42ae832dc59e38c9798f6104d16102eb565b604080516001600160a01b03928316815291841660208301520160405180910390a161014081610596565b600061014d61063f565b3660008037600080366000845af43d6000803e808015610525573d6000f35b3d6000fd5b61053381610667565b6040516001600160a01b038216907fbc7cd75a20ee27fd9adebab32041f755214dbc6bffa90cc0225b39da2e5c2d3b90600090a250565b606061058f83836040518060600160405280602781526020016109fe602791396106fb565b9392505050565b6001600160a01b0381166105fb5760405162461bcd60e51b815260206004820152602660248201527f455243313936373a206e65772061646d696e20697320746865207a65726f206160448201526564647265737360d01b6064820152608401610289565b807fb53127684a568b3173ae13b9f8a6016e243e63b6e8ee1178d6a717850b5d61035b80546001600160a01b0319166001600160a01b039290921691909117905550565b60007f360894a13ba1a3210667c828492db98dca3e2076cc3735a920a3ca505d382bbc61030f565b6001600160a01b0381163b6106d45760405162461bcd60e51b815260206004820152602d60248201527f455243313936373a206e657720696d706c656d656e746174696f6e206973206e60448201526c1bdd08184818dbdb9d1c9858dd609a1b6064820152608401610289565b807f360894a13ba1a3210667c828492db98dca3e2076cc3735a920a3ca505d382bbc61061e565b6060600080856001600160a01b03168560405161071891906109ce565b600060405180830381855af49150503d8060008114610753576040519150601f19603f3d011682016040523d82523d6000602084013e610758565b606091505b509150915061076986838387610773565b9695505050505050565b606083156107e25782516000036107db576001600160a01b0385163b6107db5760405162461bcd60e51b815260206004820152601d60248201527f416464726573733a2063616c6c20746f206e6f6e2d636f6e74726163740000006044820152606401610289565b50816107ec565b6107ec83836107f4565b949350505050565b8151156108045781518083602001fd5b8060405162461bcd60e51b815260040161028991906109ea565b6001600160a01b038116811461014057600080fd5b60006020828403121561084557600080fd5b813561058f8161081e565b60005b8381101561086b578181015183820152602001610853565b50506000910152565b6000815180845261088c816020860160208601610850565b601f01601f19169290920160200192915050565b6040815260006108b36040830185610874565b905060018060a01b03831660208301529392505050565b600080858511156108da57600080fd5b838611156108e757600080fd5b5050820193919092039150565b634e487b7160e01b600052604160045260246000fd5b6000806040838503121561091d57600080fd5b82356109288161081e565b9150602083013567ffffffffffffffff8082111561094557600080fd5b818501915085601f83011261095957600080fd5b81358181111561096b5761096b6108f4565b604051601f8201601f19908116603f01168101908382118183101715610993576109936108f4565b816040528281528860208487010111156109ac57600080fd5b8260208601602083013760006020848301015280955050505050509250929050565b600082516109e0818460208701610850565b9190910192915050565b60208152600061058f602083018461087456fe416464726573733a206c6f772d6c6576656c2064656c65676174652063616c6c206661696c6564a264697066735822122038b2431efb3284aba7a4e4478399750dca906864dc0369275cbe0316c412c96364736f6c63430008150033b53127684a568b3173ae13b9f8a6016e243e63b6e8ee1178d6a717850b5d6103416464726573733a206c6f772d6c6576656c2064656c65676174652063616c6c206661696c6564","linkReferences":{}},"methodIdentifiers":{"admin()":"f851a440","changeAdmin(address)":"8f283970"},"id":5}