{"abi":[{"type":"function","name":"DAI","inputs":[{"name":"tokenIn_","type":"address","internalType":"address"}],"outputs":[{"name":"","type":"bool","internalType":"bool"}],"stateMutability":"view"},{"type":"function","name":"DAIa","inputs":[{"name":"","type":"uint256","internalType":"uint256"}],"outputs":[{"name":"","type":"address","internalType":"address"}],"stateMutability":"view"},{"type":"function","name":"USDC","inputs":[{"name":"tokenIn_","type":"address","internalType":"address"}],"outputs":[{"name":"","type":"bool","internalType":"bool"}],"stateMutability":"view"},{"type":"function","name":"USDCa","inputs":[{"name":"","type":"uint256","internalType":"uint256"}],"outputs":[{"name":"","type":"address","internalType":"address"}],"stateMutability":"view"},{"type":"function","name":"latestRoundData","inputs":[],"outputs":[{"name":"roundId","type":"uint80","internalType":"uint80"},{"name":"answer","type":"int256","internalType":"int256"},{"name":"startedAt","type":"uint256","internalType":"uint256"},{"name":"updatedAt","type":"uint256","internalType":"uint256"},{"name":"answeredInRound","type":"uint80","internalType":"uint80"}],"stateMutability":"view"}],"bytecode":{"object":"0x670f13fa15c8b434bc5f55685aee9dbdc751e264006001556002805473a0b86991c6218b36c1d19d4a2e9eb0ce3606eb486001600160a01b0319918216811783556003805473fefc6baf87cf3684058d62da40ff3a795946ab0693168317905560c0604052608090815260a09190915261007c916004919061011e565b5060058054736b175474e89094c44da98b954eedeac495271d0f6001600160a01b0319918216811790925560068054732a9e8fa175f45b235efddd97d2727741ef4eee639216821790556040805180820190915291825260208201526100e690600790600261011e565b50600880546001600160a01b0319167372384992222be015de0146a6d7e5da0e19d2ba49179055348015610118575f80fd5b50610195565b828054828255905f5260205f20908101928215610171579160200282015b8281111561017157825182546001600160a01b0319166001600160a01b0390911617825560209092019160019091019061013c565b5061017d929150610181565b5090565b5b8082111561017d575f8155600101610182565b610390806101a25f395ff3fe608060405234801561000f575f80fd5b5060043610610055575f3560e01c806333a7a357146100595780635265fedc14610081578063a3a99b3c146100ac578063c648527f146100bf578063feaf968c146100d2575b5f80fd5b61006c6100673660046102be565b610111565b60405190151581526020015b60405180910390f35b61009461008f3660046102eb565b610193565b6040516001600160a01b039091168152602001610078565b6100946100ba3660046102eb565b6101bb565b61006c6100cd3660046102be565b6101ca565b6100da610235565b6040805169ffffffffffffffffffff968716815260208101959095528401929092526060830152909116608082015260a001610078565b5f8061017e83600480548060200260200160405190810160405280929190818152602001828054801561016b57602002820191905f5260205f20905b81546001600160a01b0316815260019091019060200180831161014d575b505050505061026290919063ffffffff16565b121561018a575f61018d565b60015b92915050565b600481815481106101a2575f80fd5b5f918252602090912001546001600160a01b0316905081565b600781815481106101a2575f80fd5b5f8061017e83600780548060200260200160405190810160405280929190818152602001828054801561016b57602002820191905f5260205f209081546001600160a01b0316815260019091019060200180831161014d57505050505061026290919063ffffffff16565b5f805f805f60026402540be40060015461024f9190610302565b9096909550429450849350600192509050565b81515f90815b818110156102b357836001600160a01b031685828151811061028c5761028c610346565b60200260200101516001600160a01b0316036102ab57915061018d9050565b600101610268565b505f19949350505050565b5f602082840312156102ce575f80fd5b81356001600160a01b03811681146102e4575f80fd5b9392505050565b5f602082840312156102fb575f80fd5b5035919050565b5f8261031c57634e487b7160e01b5f52601260045260245ffd5b600160ff1b82145f198414161561034157634e487b7160e01b5f52601160045260245ffd5b500590565b634e487b7160e01b5f52603260045260245ffdfea26469706673582212209e26ce5ee7a3d5d372039f6ed6f1bd1a1760b4073ba7c5de02623e49f827024164736f6c63430008180033","linkReferences":{}},"methodIdentifiers":{"DAI(address)":"c648527f","DAIa(uint256)":"a3a99b3c","USDC(address)":"33a7a357","USDCa(uint256)":"5265fedc","latestRoundData()":"feaf968c"},"id":126}