{"abi":[{"type":"function","name":"USDC","inputs":[{"name":"tokenIn_","type":"address","internalType":"address"}],"outputs":[{"name":"","type":"bool","internalType":"bool"}],"stateMutability":"nonpayable"},{"type":"function","name":"USDCa","inputs":[{"name":"","type":"uint256","internalType":"uint256"}],"outputs":[{"name":"","type":"address","internalType":"address"}],"stateMutability":"view"},{"type":"function","name":"latestRoundData","inputs":[],"outputs":[{"name":"roundId","type":"uint80","internalType":"uint80"},{"name":"answer","type":"int256","internalType":"int256"},{"name":"startedAt","type":"uint256","internalType":"uint256"},{"name":"updatedAt","type":"uint256","internalType":"uint256"},{"name":"answeredInRound","type":"uint80","internalType":"uint80"}],"stateMutability":"view"}],"bytecode":{"object":"0x670f13fa15c8b434bc600055685aee9dbdc751e2640060015560c060405273a0b86991c6218b36c1d19d4a2e9eb0ce3606eb48608090815273fefc6baf87cf3684058d62da40ff3a795946ab0660a05261005c90600290816100b7565b50600380546001600160a01b031990811673c02aaa39b223fe8d0a0e5c4f27ead9083c756cc21790915560048054909116736b175474e89094c44da98b954eedeac495271d0f1790553480156100b157600080fd5b50610131565b82805482825590600052602060002090810192821561010c579160200282015b8281111561010c57825182546001600160a01b0319166001600160a01b039091161782556020909201916001909101906100d7565b5061011892915061011c565b5090565b5b80821115610118576000815560010161011d565b61031f806101406000396000f3fe608060405234801561001057600080fd5b50600436106100415760003560e01c806333a7a357146100465780635265fedc1461006e578063feaf968c14610099575b600080fd5b61005961005436600461021f565b6100d8565b60405190151581526020015b60405180910390f35b61008161007c36600461024f565b61015d565b6040516001600160a01b039091168152602001610065565b6100a1610187565b6040805169ffffffffffffffffffff968716815260208101959095528401929092526060830152909116608082015260a001610065565b60008061014883600280548060200260200160405190810160405280929190818152602001828054801561013557602002820191906000526020600020905b81546001600160a01b03168152600190910190602001808311610117575b50505050506101b790919063ffffffff16565b13610154576000610157565b60015b92915050565b6002818154811061016d57600080fd5b6000918252602090912001546001600160a01b0316905081565b600080600080600060026402540be4006001546101a4919061027e565b9096909550429450849350600192509050565b8151600090815b8181101561021357836001600160a01b03168582815181106101e2576101e26102ba565b60200260200101516001600160a01b0316036102015791506101579050565b8061020b816102d0565b9150506101be565b50600019949350505050565b60006020828403121561023157600080fd5b81356001600160a01b038116811461024857600080fd5b9392505050565b60006020828403121561026157600080fd5b5035919050565b634e487b7160e01b600052601160045260246000fd5b60008261029b57634e487b7160e01b600052601260045260246000fd5b600160ff1b8214600019841416156102b5576102b5610268565b500590565b634e487b7160e01b600052603260045260246000fd5b6000600182016102e2576102e2610268565b506001019056fea2646970667358221220474f6fce359d4907aba03aed892d9547a313c7db54210603c04c161bfa59f7a364736f6c63430008150033","linkReferences":{}},"methodIdentifiers":{"USDC(address)":"33a7a357","USDCa(uint256)":"5265fedc","latestRoundData()":"feaf968c"},"id":129}