{"abi":[{"type":"function","name":"DAI","inputs":[{"name":"tokenIn_","type":"address","internalType":"address"}],"outputs":[{"name":"","type":"bool","internalType":"bool"}],"stateMutability":"view"},{"type":"function","name":"DAIa","inputs":[{"name":"","type":"uint256","internalType":"uint256"}],"outputs":[{"name":"","type":"address","internalType":"address"}],"stateMutability":"view"},{"type":"function","name":"USDC","inputs":[{"name":"tokenIn_","type":"address","internalType":"address"}],"outputs":[{"name":"","type":"bool","internalType":"bool"}],"stateMutability":"view"},{"type":"function","name":"USDCa","inputs":[{"name":"","type":"uint256","internalType":"uint256"}],"outputs":[{"name":"","type":"address","internalType":"address"}],"stateMutability":"view"},{"type":"function","name":"latestRoundData","inputs":[],"outputs":[{"name":"roundId","type":"uint80","internalType":"uint80"},{"name":"answer","type":"int256","internalType":"int256"},{"name":"startedAt","type":"uint256","internalType":"uint256"},{"name":"updatedAt","type":"uint256","internalType":"uint256"},{"name":"answeredInRound","type":"uint80","internalType":"uint80"}],"stateMutability":"view"}],"bytecode":{"object":"0x670f13fa15c8b434bc600055685aee9dbdc751e264006001556002805473a0b86991c6218b36c1d19d4a2e9eb0ce3606eb486001600160a01b0319918216811783556003805473fefc6baf87cf3684058d62da40ff3a795946ab0693168317905560c0604052608090815260a09190915261007d9160049190610120565b5060058054736b175474e89094c44da98b954eedeac495271d0f6001600160a01b0319918216811790925560068054732a9e8fa175f45b235efddd97d2727741ef4eee639216821790556040805180820190915291825260208201526100e7906007906002610120565b50600880546001600160a01b03191673c02aaa39b223fe8d0a0e5c4f27ead9083c756cc217905534801561011a57600080fd5b5061019a565b828054828255906000526020600020908101928215610175579160200282015b8281111561017557825182546001600160a01b0319166001600160a01b03909116178255602090920191600190910190610140565b50610181929150610185565b5090565b5b808211156101815760008155600101610186565b6103da806101a96000396000f3fe608060405234801561001057600080fd5b50600436106100575760003560e01c806333a7a3571461005c5780635265fedc14610084578063a3a99b3c146100af578063c648527f146100c2578063feaf968c146100d5575b600080fd5b61006f61006a3660046102da565b610114565b60405190151581526020015b60405180910390f35b61009761009236600461030a565b61019a565b6040516001600160a01b03909116815260200161007b565b6100976100bd36600461030a565b6101c4565b61006f6100d03660046102da565b6101d4565b6100dd610242565b6040805169ffffffffffffffffffff968716815260208101959095528401929092526060830152909116608082015260a00161007b565b60008061018483600480548060200260200160405190810160405280929190818152602001828054801561017157602002820191906000526020600020905b81546001600160a01b03168152600190910190602001808311610153575b505050505061027290919063ffffffff16565b1215610191576000610194565b60015b92915050565b600481815481106101aa57600080fd5b6000918252602090912001546001600160a01b0316905081565b600781815481106101aa57600080fd5b600080610184836007805480602002602001604051908101604052809291908181526020018280548015610171576020028201919060005260206000209081546001600160a01b0316815260019091019060200180831161015357505050505061027290919063ffffffff16565b600080600080600060026402540be40060015461025f9190610339565b9096909550429450849350600192509050565b8151600090815b818110156102ce57836001600160a01b031685828151811061029d5761029d610375565b60200260200101516001600160a01b0316036102bc5791506101949050565b806102c68161038b565b915050610279565b50600019949350505050565b6000602082840312156102ec57600080fd5b81356001600160a01b038116811461030357600080fd5b9392505050565b60006020828403121561031c57600080fd5b5035919050565b634e487b7160e01b600052601160045260246000fd5b60008261035657634e487b7160e01b600052601260045260246000fd5b600160ff1b82146000198414161561037057610370610323565b500590565b634e487b7160e01b600052603260045260246000fd5b60006001820161039d5761039d610323565b506001019056fea264697066735822122093dd2f99c1da2624a0397b6020b467a2ee0bfc3786208f5a3110c864713a04be64736f6c63430008150033","linkReferences":{}},"methodIdentifiers":{"DAI(address)":"c648527f","DAIa(uint256)":"a3a99b3c","USDC(address)":"33a7a357","USDCa(uint256)":"5265fedc","latestRoundData()":"feaf968c"},"id":125}