{"abi":[{"type":"function","name":"latestRoundData","inputs":[],"outputs":[{"name":"roundId","type":"uint80","internalType":"uint80"},{"name":"answer","type":"int256","internalType":"int256"},{"name":"startedAt","type":"uint256","internalType":"uint256"},{"name":"updatedAt","type":"uint256","internalType":"uint256"},{"name":"answeredInRound","type":"uint80","internalType":"uint80"}],"stateMutability":"view"}],"bytecode":{"object":"0x6080604052670f155068304999fb600055685aee9dbdc751e26400600155600280546001600160a01b031990811673a0b86991c6218b36c1d19d4a2e9eb0ce3606eb48179091556003805490911673c02aaa39b223fe8d0a0e5c4f27ead9083c756cc217905534801561007157600080fd5b5061011a806100816000396000f3fe6080604052348015600f57600080fd5b506004361060285760003560e01c8063feaf968c14602d575b600080fd5b6033606e565b6040805169ffffffffffffffffffff968716815260208101959095528401929092526060830152909116608082015260a00160405180910390f35b600080600080600060026402540be40060015460899190609c565b9096909550429450849350600192509050565b60008260b857634e487b7160e01b600052601260045260246000fd5b600160ff1b82146000198414161560df57634e487b7160e01b600052601160045260246000fd5b50059056fea26469706673582212200ccc3de273191e1c089424635da7fb196caefce479d99d7005551b8d0620110964736f6c63430008150033","linkReferences":{}},"methodIdentifiers":{"latestRoundData()":"feaf968c"},"id":137}