{"abi":[{"type":"function","name":"DISPUTE_BUFFER","inputs":[],"outputs":[{"name":"","type":"uint256","internalType":"uint256"}],"stateMutability":"view"},{"type":"function","name":"ETH_USD","inputs":[],"outputs":[{"name":"","type":"uint256","internalType":"uint256"}],"stateMutability":"view"},{"type":"function","name":"TIMEOUT_EXTENDED","inputs":[],"outputs":[{"name":"","type":"uint256","internalType":"uint256"}],"stateMutability":"view"},{"type":"function","name":"TIMEOUT_LINK","inputs":[],"outputs":[{"name":"","type":"uint256","internalType":"uint256"}],"stateMutability":"view"},{"type":"function","name":"chargeOZLfee","inputs":[],"outputs":[{"name":"","type":"bool","internalType":"bool"}],"stateMutability":"nonpayable"},{"type":"function","name":"getOracleBackUp1","inputs":[],"outputs":[{"name":"","type":"bool","internalType":"bool"},{"name":"","type":"uint256","internalType":"uint256"}],"stateMutability":"view"},{"type":"function","name":"getOracleBackUp2","inputs":[],"outputs":[{"name":"","type":"bool","internalType":"bool"},{"name":"","type":"uint256","internalType":"uint256"}],"stateMutability":"view"},{"type":"function","name":"getUniPrice","inputs":[{"name":"tokenPair_","type":"uint256","internalType":"uint256"},{"name":"side_","type":"uint8","internalType":"enum Dir"}],"outputs":[{"name":"","type":"uint256","internalType":"uint256"}],"stateMutability":"view"},{"type":"function","name":"rETH_ETH","inputs":[],"outputs":[{"name":"","type":"uint256","internalType":"uint256"}],"stateMutability":"view"},{"type":"function","name":"rETH_USD","inputs":[],"outputs":[{"name":"","type":"uint256","internalType":"uint256"}],"stateMutability":"view"},{"type":"error","name":"OZError14","inputs":[{"name":"blockNumber","type":"uint256","internalType":"uint256"}]},{"type":"error","name":"OZError23","inputs":[{"name":"baseToken","type":"address","internalType":"address"}]}],"bytecode":{"object":"0x608060405234801561001057600080fd5b50611dad806100206000396000f3fe608060405234801561001057600080fd5b506004361061009e5760003560e01c80638e9cd10c116100665780638e9cd10c14610103578063c18748671461011b578063d4afb73a14610124578063f32cabc51461012c578063f424c4ba1461013457600080fd5b80630b842e3b146100a35780633154b6e2146100c757806340f1a34b146100e85780636260f55b146100f15780638c4c501d146100f9575b600080fd5b6100ab61013c565b6040805192151583526020830191909152015b60405180910390f35b6100da6100d5366004611716565b61029b565b6040519081526020016100be565b6100da61384081565b6100da6105d9565b6100da6201518081565b61010b610623565b60405190151581526020016100be565b6100da61038481565b6100da6107f3565b6100ab610805565b6100da6108a3565b60008060006040516020016101829060408082526003908201819052620cae8d60eb1b6060830152608060208301819052820152621d5cd960ea1b60a082015260c00190565b60408051601f198184030181529082905261019f9160200161179a565b60408051601f198184030181529190528051602090910120602354909150600090819081906001600160a01b031663a792765f856101df610384426117e3565b6040516001600160e01b031960e085901b16815260048101929092526024820152604401600060405180830381865afa158015610220573d6000803e3d6000fd5b505050506040513d6000823e601f3d908101601f191682016040526102489190810190611852565b92509250925082158061026657506201518061026482426117e3565b115b1561027957506000958695509350505050565b60018280602001905181019061028f9190611902565b95509550505050509091565b600080836002146102ff5760008360018111156102ba576102ba61191b565b036102ce5750670fd1e7320d4936d86105d0565b60018360018111156102e2576102e261191b565b036102f65750670f13fa15c8b434bc6105d0565b839150506105d3565b6000848152602b60209081526040808320815160608101835281546001600160a01b03908116808352600190930154808216838701819052600160a01b90910462ffffff169285018390526022548551630b4c774160e11b815260048101869052602481018390526044810185905295519497919693959194921692631698ee82926064808401938290030181865afa1580156103a0573d6000803e3d6000fd5b505050506040513d601f19601f820116820180604052508101906103c49190611946565b90506000808860018111156103db576103db61191b565b146103e957620151806103ed565b6107085b60408051600280825260608201835262ffffff9390931693506000929091602083019080368337019050509050818160008151811061042e5761042e611963565b602002602001019063ffffffff16908163ffffffff168152505060008160018151811061045d5761045d611963565b63ffffffff9092166020928302919091019091015260405163883bdbfd60e01b81526000906001600160a01b0385169063883bdbfd906104a1908590600401611979565b600060405180830381865afa1580156104be573d6000803e3d6000fd5b505050506040513d6000823e601f3d908101601f191682016040526104e69190810190611a5b565b5090506000816000815181106104fe576104fe611963565b60200260200101518260018151811061051957610519611963565b602002602001015161052b9190611b27565b9050600061053d600386900b83611b6a565b905060008260060b128015610561575061055b600386900b83611ba8565b60060b15155b15610574578061057081611bca565b9150505b61058881670de0b6b3a76400008b8b6108d2565b600354909a506001600160a01b038981169116146105ab5764e8d4a510006105ae565b60015b6105bf9064ffffffffff168b611bed565b9a50505050505050505050506105d3565b90505b92915050565b600754600090819081906105f7906001600160a01b031660016109e0565b915091508161061a57600354610615906001600160a01b0316610b15565b61061c565b805b9250505090565b6009546040516370a0823160e01b815230600482015260009182916001600160a01b03909116906370a0823190602401602060405180830381865afa158015610670573d6000803e3d6000fd5b505050506040513d601f19601f820116820180604052508101906106949190611902565b90506000805b60015481101561074c5760018054829081106106b8576106b8611963565b600091825260209182902060029091020154604080516278744560e21b815290516001600160a01b03909216926301e1d114926004808401938290030181865afa15801561070a573d6000803e3d6000fd5b505050506040513d601f19601f8201168201806040525081019061072e9190611902565b6107389083611c04565b91508061074481611c17565b91505061069a565b5060145443116107765760405163dcfa2bfd60e01b81524360048201526024015b60405180910390fd5b6000806107838385610c65565b909250905060006107948383611c30565b9050600081136107aa5760009550505050505090565b6015546000906107ba9083611c30565b9050600081136107d1576000965050505050505090565b6107db8282610cd3565b506107e68186610dc3565b6001965050505050505090565b600061080060008061029b565b905090565b602454600090819081908190610824906001600160a01b0316826109e0565b60255491935091506000908190610844906001600160a01b0316826109e0565b915091508380156108525750815b1561089557600061088682670de0b6b3a764000061087f876ec097ce7bc90715b34b9f1000000000611c57565b9190610f8d565b60019890975095505050505050565b506000958695509350505050565b6000670de0b6b3a76400006108b66105d9565b6108be6107f3565b6108c89190611bed565b6108009190611c57565b6000806108de86610fab565b90506001600160801b036001600160a01b0382161161096457600061090c6001600160a01b03831680611bed565b9050836001600160a01b0316856001600160a01b0316106109445761093f600160c01b876001600160801b0316836113c3565b61095c565b61095c81876001600160801b0316600160c01b6113c3565b9250506109d7565b60006109836001600160a01b03831680680100000000000000006113c3565b9050836001600160a01b0316856001600160a01b0316106109bb576109b6600160801b876001600160801b0316836113c3565b6109d3565b6109d381876001600160801b0316600160801b6113c3565b9250505b50949350505050565b6000806138406402540be400846109f8576201518091505b600a546001600160a01b0390811690871603610a12575060015b6000806000886001600160a01b031663feaf968c6040518163ffffffff1660e01b815260040160a060405180830381865afa158015610a55573d6000803e3d6000fd5b505050506040513d601f19601f82011682018060405250810190610a799190611c85565b50935050925092508269ffffffffffffffffffff166000141580610aaa57506024546001600160a01b038a81169116145b8015610ab65750600082135b8015610ac157508015155b8015610acd5750428111155b8015610ae2575084610adf82426117e3565b11155b15610b01576001610af38584611bed565b965096505050505050610b0e565b6000809650965050505050505b9250929050565b6003546000906001600160a01b0390811690831603610b8c576000610b3c6002600061029b565b9050600080610b4961013c565b91509150600080610b58610805565b91509150838015610b665750815b15610b8157610b7685848361153b565b979650505050505050565b509295945050505050565b6009546001600160a01b0390811690831603610c41576000610bb06001600061029b565b905060008060090160009054906101000a90046001600160a01b03166001600160a01b031663e6aa216c6040518163ffffffff1660e01b8152600401602060405180830381865afa158015610c09573d6000803e3d6000fd5b505050506040513d601f19601f82011682018060405250810190610c2d9190611902565b9050610c3982826115a8565b949350505050565b60405163715ed81960e01b81526001600160a01b038316600482015260240161076d565b6000806000610c726105d9565b610c818664e8d4a51000611bed565b610c9390670de0b6b3a7640000611bed565b610c9d9190611c57565b90506000670de0b6b3a7640000610cb26107f3565b610cbc9087611bed565b610cc69190611c57565b9196919550909350505050565b6013546000908190610cf7906601000000000000900462ffffff1684612710610f8d565b601585905590506000610d086107f3565b610d1a83670de0b6b3a7640000611bed565b610d249190611c57565b90506000610d31826115c0565b60095460135460405163a9059cbb60e01b81526001600160a01b0369010000000000000000009092048216600482015260248101849052929350169063a9059cbb906044016020604051808303816000875af1158015610d95573d6000803e3d6000fd5b505050506040513d601f19601f82011682018060405250810190610db99190611cd5565b5095945050505050565b602d54600090610dd390426117e3565b90506301e143206000610df7610de76105d9565b8690670de0b6b3a7640000610f8d565b9050610e1160405180602001604052806000815250611666565b610e4660405180604001604052806013815260200172031bab93932b73a2932bbb0b93239aaa9a21d1606d1b815250826116ac565b610e766040518060400160405280600e81526020016d03a37ba30b620b9b9b2ba39af9d160951b815250856116ac565b610ea46040518060400160405280600c81526020016b03232b63a30a9ba30b6b81d160a51b815250846116ac565b610ed7604051806040016040528060118152602001700313637b1b5973a34b6b2b9ba30b6b81d1607d1b815250426116ac565b610f1160405180604001604052806013815260200172039973630b9ba2932bbb0b93229ba30b6b81d1606d1b8152506000602d01546116ac565b610f2960405180602001604052806000815250611666565b610f338383611c57565b610f3d8583611c57565b610f479190611bed565b610f52906064611bed565b602e81905542602d5560408051808201909152600b81526a020a8291015151515151d160ad1b6020820152610f86916116ac565b5050505050565b6000826000190484118302158202610fa457600080fd5b5091020490565b60008060008360020b12610fc2578260020b610fcf565b8260020b610fcf90611cf0565b9050610fde620d89e719611d0c565b60020b8111156110145760405162461bcd60e51b81526020600482015260016024820152601560fa1b604482015260640161076d565b60008160011660000361102b57600160801b61103d565b6ffffcb933bd6fad37aa2d162d1a5940015b70ffffffffffffffffffffffffffffffffff169050600282161561107c576080611077826ffff97272373d413259a46990580e213a611bed565b901c90505b60048216156110a65760806110a1826ffff2e50f5f656932ef12357cf3c7fdcc611bed565b901c90505b60088216156110d05760806110cb826fffe5caca7e10e4e61c3624eaa0941cd0611bed565b901c90505b60108216156110fa5760806110f5826fffcb9843d60f6159c9db58835c926644611bed565b901c90505b602082161561112457608061111f826fff973b41fa98c081472e6896dfb254c0611bed565b901c90505b604082161561114e576080611149826fff2ea16466c96a3843ec78b326b52861611bed565b901c90505b6080821615611178576080611173826ffe5dee046a99a2a811c461f1969c3053611bed565b901c90505b6101008216156111a357608061119e826ffcbe86c7900a88aedcffc83b479aa3a4611bed565b901c90505b6102008216156111ce5760806111c9826ff987a7253ac413176f2b074cf7815e54611bed565b901c90505b6104008216156111f95760806111f4826ff3392b0822b70005940c7a398e4b70f3611bed565b901c90505b61080082161561122457608061121f826fe7159475a2c29b7443b29c7fa6e889d9611bed565b901c90505b61100082161561124f57608061124a826fd097f3bdfd2022b8845ad8f792aa5825611bed565b901c90505b61200082161561127a576080611275826fa9f746462d870fdf8a65dc1f90e061e5611bed565b901c90505b6140008216156112a55760806112a0826f70d869a156d2a1b890bb3df62baf32f7611bed565b901c90505b6180008216156112d05760806112cb826f31be135f97d08fd981231505542fcfa6611bed565b901c90505b620100008216156112fc5760806112f7826f09aa508b5b7a84e1c677de54f3e99bc9611bed565b901c90505b62020000821615611327576080611322826e5d6af8dedb81196699c329225ee604611bed565b901c90505b6204000082161561135157608061134c826d2216e584f5fa1ea926041bedfe98611bed565b901c90505b62080000821615611379576080611374826b048a170391f7dc42444e8fa2611bed565b901c90505b60008460020b13156113945761139181600019611c57565b90505b6113a364010000000082611d2e565b156113af5760016113b2565b60005b610c399060ff16602083901c611c04565b60008080600019858709858702925082811083820303915050806000036113fc57600084116113f157600080fd5b508290049050611534565b80841161140857600080fd5b60008486880980840393811190920391905060008561142681611cf0565b169586900495938490049360008190030460010190506114468184611bed565b909317926000611457876003611bed565b60021890506114668188611bed565b6114719060026117e3565b61147b9082611bed565b90506114878188611bed565b6114929060026117e3565b61149c9082611bed565b90506114a88188611bed565b6114b39060026117e3565b6114bd9082611bed565b90506114c98188611bed565b6114d49060026117e3565b6114de9082611bed565b90506114ea8188611bed565b6114f59060026117e3565b6114ff9082611bed565b905061150b8188611bed565b6115169060026117e3565b6115209082611bed565b905061152c8186611bed565b955050505050505b9392505050565b600082841015801561154d5750818411155b8061156357508284111580156115635750818410155b1561156f575082611534565b83831015801561157f5750818311155b8061159557508383111580156115955750818310155b156115a1575081611534565b5080611534565b600060026115b68385611c04565b6105d09190611c57565b601f5460009081906115e090600160a01b900461ffff1684612710610f8d565b600954601f5460405163a9059cbb60e01b81526001600160a01b03918216600482015260248101849052929350169063a9059cbb906044016020604051808303816000875af1158015611637573d6000803e3d6000fd5b505050506040513d601f19601f8201168201806040525081019061165b9190611cd5565b5061153481846117e3565b6116a98160405160240161167a9190611d42565b60408051601f198184030181529190526020810180516001600160e01b031663104c13eb60e21b1790526116f5565b50565b6116f182826040516024016116c2929190611d55565b60408051601f198184030181529190526020810180516001600160e01b03166309710a9d60e41b1790526116f5565b5050565b80516a636f6e736f6c652e6c6f67602083016000808483855afa5050505050565b6000806040838503121561172957600080fd5b8235915060208301356002811061173f57600080fd5b809150509250929050565b60005b8381101561176557818101518382015260200161174d565b50506000910152565b6000815180845261178681602086016020860161174a565b601f01601f19169290920160200192915050565b60408152600960408201526853706f74507269636560b81b60608201526080602082015260006105d0608083018461176e565b634e487b7160e01b600052601160045260246000fd5b818103818111156105d3576105d36117cd565b8051801515811461180657600080fd5b919050565b634e487b7160e01b600052604160045260246000fd5b604051601f8201601f1916810167ffffffffffffffff8111828210171561184a5761184a61180b565b604052919050565b60008060006060848603121561186757600080fd5b611870846117f6565b9250602084015167ffffffffffffffff8082111561188d57600080fd5b818601915086601f8301126118a157600080fd5b8151818111156118b3576118b361180b565b6118c6601f8201601f1916602001611821565b91508082528760208285010111156118dd57600080fd5b6118ee81602084016020860161174a565b508093505050604084015190509250925092565b60006020828403121561191457600080fd5b5051919050565b634e487b7160e01b600052602160045260246000fd5b6001600160a01b03811681146116a957600080fd5b60006020828403121561195857600080fd5b81516105d081611931565b634e487b7160e01b600052603260045260246000fd5b6020808252825182820181905260009190848201906040850190845b818110156119b757835163ffffffff1683529284019291840191600101611995565b50909695505050505050565b600067ffffffffffffffff8211156119dd576119dd61180b565b5060051b60200190565b600082601f8301126119f857600080fd5b81516020611a0d611a08836119c3565b611821565b82815260059290921b84018101918181019086841115611a2c57600080fd5b8286015b84811015611a50578051611a4381611931565b8352918301918301611a30565b509695505050505050565b60008060408385031215611a6e57600080fd5b825167ffffffffffffffff80821115611a8657600080fd5b818501915085601f830112611a9a57600080fd5b81516020611aaa611a08836119c3565b82815260059290921b84018101918181019089841115611ac957600080fd5b948201945b83861015611af75785518060060b8114611ae85760008081fd5b82529482019490820190611ace565b91880151919650909350505080821115611b1057600080fd5b50611b1d858286016119e7565b9150509250929050565b600682810b9082900b03667fffffffffffff198112667fffffffffffff821317156105d3576105d36117cd565b634e487b7160e01b600052601260045260246000fd5b60008160060b8360060b80611b8157611b81611b54565b667fffffffffffff19821460001982141615611b9f57611b9f6117cd565b90059392505050565b60008260060b80611bbb57611bbb611b54565b808360060b0791505092915050565b60008160020b627fffff198103611be357611be36117cd565b6000190192915050565b80820281158282048414176105d3576105d36117cd565b808201808211156105d3576105d36117cd565b600060018201611c2957611c296117cd565b5060010190565b8181036000831280158383131683831282161715611c5057611c506117cd565b5092915050565b600082611c6657611c66611b54565b500490565b805169ffffffffffffffffffff8116811461180657600080fd5b600080600080600060a08688031215611c9d57600080fd5b611ca686611c6b565b9450602086015193506040860151925060608601519150611cc960808701611c6b565b90509295509295909350565b600060208284031215611ce757600080fd5b6105d0826117f6565b6000600160ff1b8201611d0557611d056117cd565b5060000390565b60008160020b627fffff198103611d2557611d256117cd565b60000392915050565b600082611d3d57611d3d611b54565b500690565b6020815260006105d0602083018461176e565b604081526000611d68604083018561176e565b9050826020830152939250505056fea2646970667358221220977d4888b85ffa4e03562860588f4793f89817e7470900af10e97aa74dc3763964736f6c63430008150033","linkReferences":{}},"methodIdentifiers":{"DISPUTE_BUFFER()":"c1874867","ETH_USD()":"6260f55b","TIMEOUT_EXTENDED()":"8c4c501d","TIMEOUT_LINK()":"40f1a34b","chargeOZLfee()":"8e9cd10c","getOracleBackUp1()":"0b842e3b","getOracleBackUp2()":"f32cabc5","getUniPrice(uint256,uint8)":"3154b6e2","rETH_ETH()":"d4afb73a","rETH_USD()":"f424c4ba"},"id":137}