{"abi":[{"type":"function","name":"DISPUTE_BUFFER","inputs":[],"outputs":[{"name":"","type":"uint256","internalType":"uint256"}],"stateMutability":"view"},{"type":"function","name":"ETH_USD","inputs":[],"outputs":[{"name":"","type":"uint256","internalType":"uint256"}],"stateMutability":"view"},{"type":"function","name":"TIMEOUT_EXTENDED","inputs":[],"outputs":[{"name":"","type":"uint256","internalType":"uint256"}],"stateMutability":"view"},{"type":"function","name":"TIMEOUT_LINK","inputs":[],"outputs":[{"name":"","type":"uint256","internalType":"uint256"}],"stateMutability":"view"},{"type":"function","name":"getOracleBackUp1","inputs":[],"outputs":[{"name":"","type":"bool","internalType":"bool"},{"name":"","type":"uint256","internalType":"uint256"}],"stateMutability":"view"},{"type":"function","name":"getOracleBackUp2","inputs":[],"outputs":[{"name":"","type":"bool","internalType":"bool"},{"name":"","type":"uint256","internalType":"uint256"}],"stateMutability":"view"},{"type":"function","name":"getUniPrice","inputs":[{"name":"tokenPair_","type":"uint256","internalType":"uint256"},{"name":"side_","type":"uint8","internalType":"enum Dir"}],"outputs":[{"name":"","type":"uint256","internalType":"uint256"}],"stateMutability":"view"},{"type":"function","name":"rETH_ETH","inputs":[],"outputs":[{"name":"","type":"uint256","internalType":"uint256"}],"stateMutability":"view"},{"type":"function","name":"rETH_USD","inputs":[],"outputs":[{"name":"","type":"uint256","internalType":"uint256"}],"stateMutability":"view"},{"type":"error","name":"OZError23","inputs":[{"name":"baseToken","type":"address","internalType":"address"}]}],"bytecode":{"object":"0x608060405234801561001057600080fd5b50610b03806100206000396000f3fe608060405234801561001057600080fd5b50600436106100935760003560e01c80638c4c501d116100665780638c4c501d146100ee578063c1874867146100f8578063d4afb73a14610101578063f32cabc514610109578063f424c4ba1461011157600080fd5b80630b842e3b146100985780633154b6e2146100bc57806340f1a34b146100dd5780636260f55b146100e6575b600080fd5b6100a0610119565b6040805192151583526020830191909152015b60405180910390f35b6100cf6100ca366004610811565b610278565b6040519081526020016100b3565b6100cf61384081565b6100cf6103c0565b6100cf6201518081565b6100cf61038481565b6100cf61040a565b6100a061041c565b6100cf6104ba565b600080600060405160200161015f9060408082526003908201819052620cae8d60eb1b6060830152608060208301819052820152621d5cd960ea1b60a082015260c00190565b60408051601f198184030181529082905261017c91602001610869565b60408051601f198184030181529190528051602090910120602354909150600090819081906001600160a01b031663a792765f856101bc610384426108d2565b6040516001600160e01b031960e085901b16815260048101929092526024820152604401600060405180830381865afa1580156101fd573d6000803e3d6000fd5b505050506040513d6000823e601f3d908101601f1916820160405261022591908101906108fb565b92509250925082158061024357506201518061024182426108d2565b115b1561025657506000958695509350505050565b60018280602001905181019061026c91906109cc565b95509550505050509091565b600080600080600080600a0160009054906101000a90046001600160a01b03166001600160a01b031663feaf968c6040518163ffffffff1660e01b815260040160a060405180830381865afa1580156102d5573d6000803e3d6000fd5b505050506040513d601f19601f820116820180604052508101906102f99190610a04565b5091965091945085935091506001905086600181111561031b5761031b610a54565b036103b357600a546000906001600160a01b0316639a6fc8f561033f600187610a6a565b6040516001600160e01b031960e084901b16815269ffffffffffffffffffff909116600482015260240160a060405180830381865afa158015610386573d6000803e3d6000fd5b505050506040513d601f19601f820116820180604052508101906103aa9190610a04565b50919750505050505b5091925050505b92915050565b600754600090819081906103de906001600160a01b031660016104e9565b9150915081610401576003546103fc906001600160a01b031661061e565b610403565b805b9250505090565b6000610417600080610278565b905090565b60245460009081908190819061043b906001600160a01b0316826104e9565b6025549193509150600090819061045b906001600160a01b0316826104e9565b915091508380156104695750815b156104ac57600061049d82670de0b6b3a7640000610496876ec097ce7bc90715b34b9f1000000000610a94565b9190610783565b60019890975095505050505050565b506000958695509350505050565b6000670de0b6b3a76400006104cd6103c0565b6104d561040a565b6104df9190610ab6565b6104179190610a94565b6000806138406402540be40084610501576201518091505b600a546001600160a01b039081169087160361051b575060015b6000806000886001600160a01b031663feaf968c6040518163ffffffff1660e01b815260040160a060405180830381865afa15801561055e573d6000803e3d6000fd5b505050506040513d601f19601f820116820180604052508101906105829190610a04565b50935050925092508269ffffffffffffffffffff1660001415806105b357506024546001600160a01b038a81169116145b80156105bf5750600082135b80156105ca57508015155b80156105d65750428111155b80156105eb5750846105e882426108d2565b11155b1561060a5760016105fc8584610ab6565b965096505050505050610617565b6000809650965050505050505b9250929050565b6003546000906001600160a01b039081169083160361069557600061064560026000610278565b9050600080610652610119565b9150915060008061066161041c565b9150915083801561066f5750815b1561068a5761067f8584836107a1565b979650505050505050565b509295945050505050565b6009546001600160a01b039081169083160361075b5760006106b8600080610278565b905060006106c860016000610278565b905060008060090160009054906101000a90046001600160a01b03166001600160a01b031663e6aa216c6040518163ffffffff1660e01b8152600401602060405180830381865afa158015610721573d6000803e3d6000fd5b505050506040513d601f19601f8201168201806040525081019061074591906109cc565b90506107528383836107a1565b95945050505050565b60405163715ed81960e01b81526001600160a01b038316600482015260240160405180910390fd5b600082600019048411830215820261079a57600080fd5b5091020490565b60008284101580156107b35750818411155b806107c957508284111580156107c95750818410155b156107d557508261080a565b8383101580156107e55750818311155b806107fb57508383111580156107fb5750818310155b1561080757508161080a565b50805b9392505050565b6000806040838503121561082457600080fd5b8235915060208301356002811061083a57600080fd5b809150509250929050565b60005b83811015610860578181015183820152602001610848565b50506000910152565b60408152600960408201526853706f74507269636560b81b606082015260806020820152600082518060808401526108a88160a0850160208701610845565b601f01601f19169190910160a00192915050565b634e487b7160e01b600052601160045260246000fd5b818103818111156103ba576103ba6108bc565b634e487b7160e01b600052604160045260246000fd5b60008060006060848603121561091057600080fd5b8351801515811461092057600080fd5b602085015190935067ffffffffffffffff8082111561093e57600080fd5b818601915086601f83011261095257600080fd5b815181811115610964576109646108e5565b604051601f8201601f19908116603f0116810190838211818310171561098c5761098c6108e5565b816040528281528960208487010111156109a557600080fd5b6109b6836020830160208801610845565b8096505050505050604084015190509250925092565b6000602082840312156109de57600080fd5b5051919050565b805169ffffffffffffffffffff811681146109ff57600080fd5b919050565b600080600080600060a08688031215610a1c57600080fd5b610a25866109e5565b9450602086015193506040860151925060608601519150610a48608087016109e5565b90509295509295909350565b634e487b7160e01b600052602160045260246000fd5b69ffffffffffffffffffff828116828216039080821115610a8d57610a8d6108bc565b5092915050565b600082610ab157634e487b7160e01b600052601260045260246000fd5b500490565b80820281158282048414176103ba576103ba6108bc56fea2646970667358221220fbfdb06b82dd5e33228d68b2f185a8fb12698d298019e697002d6a1be9cbc60a64736f6c63430008150033","linkReferences":{}},"methodIdentifiers":{"DISPUTE_BUFFER()":"c1874867","ETH_USD()":"6260f55b","TIMEOUT_EXTENDED()":"8c4c501d","TIMEOUT_LINK()":"40f1a34b","getOracleBackUp1()":"0b842e3b","getOracleBackUp2()":"f32cabc5","getUniPrice(uint256,uint8)":"3154b6e2","rETH_ETH()":"d4afb73a","rETH_USD()":"f424c4ba"},"id":137}