{"abi":[{"type":"function","name":"DISPUTE_BUFFER","inputs":[],"outputs":[{"name":"","type":"uint256","internalType":"uint256"}],"stateMutability":"view"},{"type":"function","name":"ETH_USD","inputs":[],"outputs":[{"name":"","type":"uint256","internalType":"uint256"}],"stateMutability":"view"},{"type":"function","name":"TIMEOUT_EXTENDED","inputs":[],"outputs":[{"name":"","type":"uint256","internalType":"uint256"}],"stateMutability":"view"},{"type":"function","name":"TIMEOUT_LINK","inputs":[],"outputs":[{"name":"","type":"uint256","internalType":"uint256"}],"stateMutability":"view"},{"type":"function","name":"chargeOZLfee","inputs":[],"outputs":[{"name":"","type":"bool","internalType":"bool"}],"stateMutability":"nonpayable"},{"type":"function","name":"getUniPrice","inputs":[{"name":"tokenPair_","type":"uint256","internalType":"uint256"},{"name":"side_","type":"uint8","internalType":"enum Dir"}],"outputs":[{"name":"","type":"uint256","internalType":"uint256"}],"stateMutability":"view"},{"type":"function","name":"rETH_ETH","inputs":[],"outputs":[{"name":"","type":"uint256","internalType":"uint256"}],"stateMutability":"view"},{"type":"function","name":"rETH_USD","inputs":[],"outputs":[{"name":"","type":"uint256","internalType":"uint256"}],"stateMutability":"view"},{"type":"event","name":"APRcalculated","inputs":[{"name":"apr","type":"uint256","indexed":true,"internalType":"uint256"},{"name":"currentRewardsUSD","type":"uint256","indexed":false,"internalType":"uint256"},{"name":"totalAssets","type":"uint256","indexed":false,"internalType":"uint256"},{"name":"deltaStamp","type":"uint256","indexed":false,"internalType":"uint256"}],"anonymous":false},{"type":"error","name":"OZError14","inputs":[{"name":"blockNumber","type":"uint256","internalType":"uint256"}]}],"bytecode":{"object":"0x608060405234801561001057600080fd5b506115dc806100206000396000f3fe608060405234801561001057600080fd5b50600436106100885760003560e01c80638e9cd10c1161005b5780638e9cd10c146100ce578063c1874867146100e6578063d4afb73a146100ef578063f424c4ba146100f757600080fd5b80633154b6e21461008d57806340f1a34b146100b35780636260f55b146100bc5780638c4c501d146100c4575b600080fd5b6100a061009b3660046110b3565b6100ff565b6040519081526020015b60405180910390f35b6100a061384081565b6100a061043d565b6100a06201518081565b6100d6610460565b60405190151581526020016100aa565b6100a061038481565b6100a0610630565b6100a0610642565b6000808360021461016357600083600181111561011e5761011e6110e7565b036101325750670ff56e247d0a36d8610434565b6001836001811115610146576101466110e7565b0361015a5750670f13fa15c8b434bc610434565b83915050610437565b6000848152602b60209081526040808320815160608101835281546001600160a01b03908116808352600190930154808216838701819052600160a01b90910462ffffff169285018390526022548551630b4c774160e11b815260048101869052602481018390526044810185905295519497919693959194921692631698ee82926064808401938290030181865afa158015610204573d6000803e3d6000fd5b505050506040513d601f19601f820116820180604052508101906102289190611115565b905060008088600181111561023f5761023f6110e7565b1461024d5762015180610251565b6107085b60408051600280825260608201835262ffffff9390931693506000929091602083019080368337019050509050818160008151811061029257610292611148565b602002602001019063ffffffff16908163ffffffff16815250506000816001815181106102c1576102c1611148565b63ffffffff9092166020928302919091019091015260405163883bdbfd60e01b81526000906001600160a01b0385169063883bdbfd9061030590859060040161115e565b600060405180830381865afa158015610322573d6000803e3d6000fd5b505050506040513d6000823e601f3d908101601f1916820160405261034a9190810190611271565b50905060008160008151811061036257610362611148565b60200260200101518260018151811061037d5761037d611148565b602002602001015161038f9190611353565b905060006103a1600386900b83611396565b905060008260060b1280156103c557506103bf600386900b836113d4565b60060b15155b156103d857806103d4816113f6565b9150505b6103ec81670de0b6b3a76400008b8b610671565b600354909a506001600160a01b0389811691161461040f5764e8d4a51000610412565b60015b6104239064ffffffffff168b611419565b9a5050505050505050505050610437565b90505b92915050565b6007546000908190610459906001600160a01b0316600161077f565b9392505050565b6009546040516370a0823160e01b815230600482015260009182916001600160a01b03909116906370a0823190602401602060405180830381865afa1580156104ad573d6000803e3d6000fd5b505050506040513d601f19601f820116820180604052508101906104d19190611430565b90506000805b6001548110156105895760018054829081106104f5576104f5611148565b600091825260209182902060029091020154604080516278744560e21b815290516001600160a01b03909216926301e1d114926004808401938290030181865afa158015610547573d6000803e3d6000fd5b505050506040513d601f19601f8201168201806040525081019061056b9190611430565b6105759083611449565b9150806105818161145c565b9150506104d7565b5060145443116105b35760405163dcfa2bfd60e01b81524360048201526024015b60405180910390fd5b6000806105c0838561083e565b909250905060006105d18383611475565b9050600081136105e75760009550505050505090565b6015546000906105f79083611475565b90506000811361060e576000965050505050505090565b61061882826108ac565b50610623818661099c565b6001965050505050505090565b600061063d6000806100ff565b905090565b6000670de0b6b3a764000061065561043d565b61065d610630565b6106679190611419565b61063d919061149c565b60008061067d86610a59565b90506001600160801b036001600160a01b038216116107035760006106ab6001600160a01b03831680611419565b9050836001600160a01b0316856001600160a01b0316106106e3576106de600160c01b876001600160801b031683610e79565b6106fb565b6106fb81876001600160801b0316600160c01b610e79565b925050610776565b60006107226001600160a01b0383168068010000000000000000610e79565b9050836001600160a01b0316856001600160a01b03161061075a57610755600160801b876001600160801b031683610e79565b610772565b61077281876001600160801b0316600160801b610e79565b9250505b50949350505050565b6000806138406402540be40084610797576201518091505b600a546001600160a01b03908116908716036107b1575060015b6000806000886001600160a01b031663feaf968c6040518163ffffffff1660e01b815260040160a060405180830381865afa1580156107f4573d6000803e3d6000fd5b505050506040513d601f19601f8201168201806040525081019061081891906114cf565b50935050925092506001848361082e9190611419565b9650965050505050509250929050565b600080600061084b61043d565b61085a8664e8d4a51000611419565b61086c90670de0b6b3a7640000611419565b610876919061149c565b90506000670de0b6b3a764000061088b610630565b6108959087611419565b61089f919061149c565b9196919550909350505050565b60135460009081906108d0906601000000000000900462ffffff1684612710610fef565b6015859055905060006108e1610630565b6108f383670de0b6b3a7640000611419565b6108fd919061149c565b9050600061090a8261100d565b60095460135460405163a9059cbb60e01b81526001600160a01b0369010000000000000000009092048216600482015260248101849052929350169063a9059cbb906044016020604051808303816000875af115801561096e573d6000803e3d6000fd5b505050506040513d601f19601f82011682018060405250810190610992919061151f565b5095945050505050565b602d546000906109ac9042611541565b90506301e1432060006109d06109c061043d565b8690670de0b6b3a7640000610fef565b90506109dc838361149c565b6109e6858361149c565b6109f09190611419565b6109fb906064611419565b610a0890620f4240611419565b602e81905560408051838152602081018790529081018590527fab1073bfb02e8132afc91bbab016f001b82e4b97f68e813b1a12de5fd783dce79060600160405180910390a2505042602d55505050565b60008060008360020b12610a70578260020b610a7d565b8260020b610a7d90611554565b9050610a8c620d89e719611570565b60020b811115610ac25760405162461bcd60e51b81526020600482015260016024820152601560fa1b60448201526064016105aa565b600081600116600003610ad957600160801b610aeb565b6ffffcb933bd6fad37aa2d162d1a5940015b70ffffffffffffffffffffffffffffffffff1690506002821615610b2a576080610b25826ffff97272373d413259a46990580e213a611419565b901c90505b6004821615610b54576080610b4f826ffff2e50f5f656932ef12357cf3c7fdcc611419565b901c90505b6008821615610b7e576080610b79826fffe5caca7e10e4e61c3624eaa0941cd0611419565b901c90505b6010821615610ba8576080610ba3826fffcb9843d60f6159c9db58835c926644611419565b901c90505b6020821615610bd2576080610bcd826fff973b41fa98c081472e6896dfb254c0611419565b901c90505b6040821615610bfc576080610bf7826fff2ea16466c96a3843ec78b326b52861611419565b901c90505b6080821615610c26576080610c21826ffe5dee046a99a2a811c461f1969c3053611419565b901c90505b610100821615610c51576080610c4c826ffcbe86c7900a88aedcffc83b479aa3a4611419565b901c90505b610200821615610c7c576080610c77826ff987a7253ac413176f2b074cf7815e54611419565b901c90505b610400821615610ca7576080610ca2826ff3392b0822b70005940c7a398e4b70f3611419565b901c90505b610800821615610cd2576080610ccd826fe7159475a2c29b7443b29c7fa6e889d9611419565b901c90505b611000821615610cfd576080610cf8826fd097f3bdfd2022b8845ad8f792aa5825611419565b901c90505b612000821615610d28576080610d23826fa9f746462d870fdf8a65dc1f90e061e5611419565b901c90505b614000821615610d53576080610d4e826f70d869a156d2a1b890bb3df62baf32f7611419565b901c90505b618000821615610d7e576080610d79826f31be135f97d08fd981231505542fcfa6611419565b901c90505b62010000821615610daa576080610da5826f09aa508b5b7a84e1c677de54f3e99bc9611419565b901c90505b62020000821615610dd5576080610dd0826e5d6af8dedb81196699c329225ee604611419565b901c90505b62040000821615610dff576080610dfa826d2216e584f5fa1ea926041bedfe98611419565b901c90505b62080000821615610e27576080610e22826b048a170391f7dc42444e8fa2611419565b901c90505b60008460020b1315610e4257610e3f8160001961149c565b90505b610e5164010000000082611592565b15610e5d576001610e60565b60005b610e719060ff16602083901c611449565b949350505050565b6000808060001985870985870292508281108382030391505080600003610eb25760008411610ea757600080fd5b508290049050610459565b808411610ebe57600080fd5b600084868809808403938111909203919050600085610edc81611554565b16958690049593849004936000819003046001019050610efc8184611419565b909317926000610f0d876003611419565b6002189050610f1c8188611419565b610f27906002611541565b610f319082611419565b9050610f3d8188611419565b610f48906002611541565b610f529082611419565b9050610f5e8188611419565b610f69906002611541565b610f739082611419565b9050610f7f8188611419565b610f8a906002611541565b610f949082611419565b9050610fa08188611419565b610fab906002611541565b610fb59082611419565b9050610fc18188611419565b610fcc906002611541565b610fd69082611419565b9050610fe28186611419565b9998505050505050505050565b600082600019048411830215820261100657600080fd5b5091020490565b601f54600090819061102d90600160a01b900461ffff1684612710610fef565b600954601f5460405163a9059cbb60e01b81526001600160a01b03918216600482015260248101849052929350169063a9059cbb906044016020604051808303816000875af1158015611084573d6000803e3d6000fd5b505050506040513d601f19601f820116820180604052508101906110a8919061151f565b506104598184611541565b600080604083850312156110c657600080fd5b823591506020830135600281106110dc57600080fd5b809150509250929050565b634e487b7160e01b600052602160045260246000fd5b6001600160a01b038116811461111257600080fd5b50565b60006020828403121561112757600080fd5b8151610434816110fd565b634e487b7160e01b600052604160045260246000fd5b634e487b7160e01b600052603260045260246000fd5b6020808252825182820181905260009190848201906040850190845b8181101561119c57835163ffffffff168352928401929184019160010161117a565b50909695505050505050565b604051601f8201601f1916810167ffffffffffffffff811182821017156111d1576111d1611132565b604052919050565b600067ffffffffffffffff8211156111f3576111f3611132565b5060051b60200190565b600082601f83011261120e57600080fd5b8151602061122361121e836111d9565b6111a8565b82815260059290921b8401810191818101908684111561124257600080fd5b8286015b84811015611266578051611259816110fd565b8352918301918301611246565b509695505050505050565b6000806040838503121561128457600080fd5b825167ffffffffffffffff8082111561129c57600080fd5b818501915085601f8301126112b057600080fd5b815160206112c061121e836111d9565b82815260059290921b840181019181810190898411156112df57600080fd5b948201945b8386101561130d5785518060060b81146112fe5760008081fd5b825294820194908201906112e4565b9188015191965090935050508082111561132657600080fd5b50611333858286016111fd565b9150509250929050565b634e487b7160e01b600052601160045260246000fd5b600682810b9082900b03667fffffffffffff198112667fffffffffffff821317156104375761043761133d565b634e487b7160e01b600052601260045260246000fd5b60008160060b8360060b806113ad576113ad611380565b667fffffffffffff198214600019821416156113cb576113cb61133d565b90059392505050565b60008260060b806113e7576113e7611380565b808360060b0791505092915050565b60008160020b627fffff19810361140f5761140f61133d565b6000190192915050565b80820281158282048414176104375761043761133d565b60006020828403121561144257600080fd5b5051919050565b808201808211156104375761043761133d565b60006001820161146e5761146e61133d565b5060010190565b81810360008312801583831316838312821617156114955761149561133d565b5092915050565b6000826114ab576114ab611380565b500490565b805169ffffffffffffffffffff811681146114ca57600080fd5b919050565b600080600080600060a086880312156114e757600080fd5b6114f0866114b0565b9450602086015193506040860151925060608601519150611513608087016114b0565b90509295509295909350565b60006020828403121561153157600080fd5b8151801515811461043457600080fd5b818103818111156104375761043761133d565b6000600160ff1b82016115695761156961133d565b5060000390565b60008160020b627fffff1981036115895761158961133d565b60000392915050565b6000826115a1576115a1611380565b50069056fea2646970667358221220d3437b328392afbafaa99724b2819f224184d8514783d487537ecff63c68189164736f6c63430008150033","linkReferences":{}},"methodIdentifiers":{"DISPUTE_BUFFER()":"c1874867","ETH_USD()":"6260f55b","TIMEOUT_EXTENDED()":"8c4c501d","TIMEOUT_LINK()":"40f1a34b","chargeOZLfee()":"8e9cd10c","getUniPrice(uint256,uint8)":"3154b6e2","rETH_ETH()":"d4afb73a","rETH_USD()":"f424c4ba"},"id":137}