{"abi":[{"type":"function","name":"DISPUTE_BUFFER","inputs":[],"outputs":[{"name":"","type":"uint256","internalType":"uint256"}],"stateMutability":"view"},{"type":"function","name":"ETH_USD","inputs":[],"outputs":[{"name":"","type":"uint256","internalType":"uint256"}],"stateMutability":"view"},{"type":"function","name":"TIMEOUT_EXTENDED","inputs":[],"outputs":[{"name":"","type":"uint256","internalType":"uint256"}],"stateMutability":"view"},{"type":"function","name":"TIMEOUT_LINK","inputs":[],"outputs":[{"name":"","type":"uint256","internalType":"uint256"}],"stateMutability":"view"},{"type":"function","name":"getOracleBackUp1","inputs":[],"outputs":[{"name":"","type":"bool","internalType":"bool"},{"name":"","type":"uint256","internalType":"uint256"}],"stateMutability":"view"},{"type":"function","name":"getOracleBackUp2","inputs":[],"outputs":[{"name":"","type":"bool","internalType":"bool"},{"name":"","type":"uint256","internalType":"uint256"}],"stateMutability":"view"},{"type":"function","name":"getUniPrice","inputs":[{"name":"tokenPair_","type":"uint256","internalType":"uint256"},{"name":"side_","type":"uint8","internalType":"enum Dir"}],"outputs":[{"name":"","type":"uint256","internalType":"uint256"}],"stateMutability":"view"},{"type":"function","name":"rETH_ETH","inputs":[],"outputs":[{"name":"","type":"uint256","internalType":"uint256"}],"stateMutability":"view"},{"type":"function","name":"rETH_USD","inputs":[],"outputs":[{"name":"","type":"uint256","internalType":"uint256"}],"stateMutability":"view"},{"type":"error","name":"OZError23","inputs":[{"name":"baseToken","type":"address","internalType":"address"}]}],"bytecode":{"object":"0x608060405234801561000f575f80fd5b50610be68061001d5f395ff3fe608060405234801561000f575f80fd5b5060043610610090575f3560e01c80638c4c501d116100635780638c4c501d146100ea578063c1874867146100f4578063d4afb73a146100fd578063f32cabc514610105578063f424c4ba1461010d575f80fd5b80630b842e3b146100945780633154b6e2146100b857806340f1a34b146100d95780636260f55b146100e2575b5f80fd5b61009c610115565b6040805192151583526020830191909152015b60405180910390f35b6100cb6100c63660046108c5565b61026c565b6040519081526020016100af565b6100cb61384081565b6100cb6103bb565b6100cb6201518081565b6100cb61038481565b6100cb610404565b61009c610480565b6100cb61051a565b5f805f6040516020016101599060408082526003908201819052620cae8d60eb1b6060830152608060208301819052820152621d5cd960ea1b60a082015260c00190565b60408051601f198184030181529082905261017691602001610918565b60408051601f1981840301815291905280516020909101206023549091505f90819081906001600160a01b031663a792765f856101b56103844261097e565b6040516001600160e01b031960e085901b168152600481019290925260248201526044015f60405180830381865afa1580156101f3573d5f803e3d5ffd5b505050506040513d5f823e601f3d908101601f1916820160405261021a91908101906109a5565b925092509250821580610238575062015180610236824261097e565b115b1561024a57505f958695509350505050565b6001828060200190518101906102609190610a6f565b95509550505050509091565b600a5460408051633fabe5a360e21b815290515f928392839283926001600160a01b03169163feaf968c9160048083019260a09291908290030181865afa1580156102b9573d5f803e3d5ffd5b505050506040513d601f19601f820116820180604052508101906102dd9190610aa4565b505050915091508092506001808111156102f9576102f9610af0565b85600181111561030b5761030b610af0565b036103a057600a545f906001600160a01b0316639a6fc8f561032e600186610b04565b6040516001600160e01b031960e084901b16815269ffffffffffffffffffff909116600482015260240160a060405180830381865afa158015610373573d5f803e3d5ffd5b505050506040513d601f19601f820116820180604052508101906103979190610aa4565b50919650505050505b5f83116103ad57856103af565b825b93505050505b92915050565b6007545f90819081906103d8906001600160a01b0316600161054d565b91509150816103fb576003546103f6906001600160a01b031661067a565b6103fd565b805b9250505090565b600a545f9081908190610421906001600160a01b0316600161054d565b915091505f6104305f8061026c565b602c54909150610447908290849061ffff166107c3565b80156104505750825b1561046b57610463633b9aca0082610b2e565b935050505090565b600954610463906001600160a01b031661067a565b6024545f9081908190819061049e906001600160a01b03168261054d565b60255491935091505f9081906104bd906001600160a01b03168261054d565b915091508380156104cb5750815b1561050d575f6104fe82670de0b6b3a76400006104f7876ec097ce7bc90715b34b9f1000000000610b2e565b91906107f7565b60019890975095505050505050565b505f958695509350505050565b5f670de0b6b3a764000061052c6103bb565b610534610404565b61053e9190610b4d565b6105489190610b2e565b905090565b5f806138406402540be40084610564576201518091505b600a546001600160a01b039081169087160361057e575060015b5f805f886001600160a01b031663feaf968c6040518163ffffffff1660e01b815260040160a060405180830381865afa1580156105bd573d5f803e3d5ffd5b505050506040513d601f19601f820116820180604052508101906105e19190610aa4565b50935050925092508269ffffffffffffffffffff165f14158061061157506024546001600160a01b038a81169116145b801561061c57505f82135b801561062757508015155b80156106335750428111155b8015610648575084610645824261097e565b11155b156106675760016106598584610b4d565b965096505050505050610673565b5f809650965050505050505b9250929050565b6003545f906001600160a01b03908116908316036106ec575f61069e60025f61026c565b90505f806106aa610115565b915091505f806106b8610480565b915091508380156106c65750815b156106e1576106d6858483610812565b979650505050505050565b509295945050505050565b6009546001600160a01b039081169083160361079b575f61070e60015f61026c565b90505f806009015f9054906101000a90046001600160a01b03166001600160a01b031663e6aa216c6040518163ffffffff1660e01b8152600401602060405180830381865afa158015610763573d5f803e3d5ffd5b505050506040513d601f19601f820116820180604052508101906107879190610a6f565b9050610793828261087e565b949350505050565b60405163715ed81960e01b81526001600160a01b038316600482015260240160405180910390fd5b5f806107d76107d28686610b64565b610895565b90506107e681612710876107f7565b8361ffff16119150505b9392505050565b5f825f19048411830215820261080b575f80fd5b5091020490565b5f8284101580156108235750818411155b8061083957508284111580156108395750818410155b156108455750826107f0565b8383101580156108555750818311155b8061086b575083831115801561086b5750818310155b156108775750816107f0565b50806107f0565b5f600261088b8385610b83565b6107f09190610b2e565b5f600160ff1b82036108ac5750600160ff1b919050565b5f82136108c1576108bc82610b96565b6103b5565b5090565b5f80604083850312156108d6575f80fd5b823591506020830135600281106108eb575f80fd5b809150509250929050565b5f5b838110156109105781810151838201526020016108f8565b50505f910152565b60408152600960408201526853706f74507269636560b81b6060820152608060208201525f82518060808401526109568160a08501602087016108f6565b601f01601f19169190910160a00192915050565b634e487b7160e01b5f52601160045260245ffd5b818103818111156103b5576103b561096a565b634e487b7160e01b5f52604160045260245ffd5b5f805f606084860312156109b7575f80fd5b835180151581146109c6575f80fd5b602085015190935067ffffffffffffffff808211156109e3575f80fd5b818601915086601f8301126109f6575f80fd5b815181811115610a0857610a08610991565b604051601f8201601f19908116603f01168101908382118183101715610a3057610a30610991565b81604052828152896020848701011115610a48575f80fd5b610a598360208301602088016108f6565b8096505050505050604084015190509250925092565b5f60208284031215610a7f575f80fd5b5051919050565b805169ffffffffffffffffffff81168114610a9f575f80fd5b919050565b5f805f805f60a08688031215610ab8575f80fd5b610ac186610a86565b9450602086015193506040860151925060608601519150610ae460808701610a86565b90509295509295909350565b634e487b7160e01b5f52602160045260245ffd5b69ffffffffffffffffffff828116828216039080821115610b2757610b2761096a565b5092915050565b5f82610b4857634e487b7160e01b5f52601260045260245ffd5b500490565b80820281158282048414176103b5576103b561096a565b8181035f831280158383131683831282161715610b2757610b2761096a565b808201808211156103b5576103b561096a565b5f600160ff1b8201610baa57610baa61096a565b505f039056fea2646970667358221220de7c014c875778b38d87c84bb3bfe8cfffc73550c8e34a869494a199ae37533c64736f6c63430008180033","linkReferences":{}},"methodIdentifiers":{"DISPUTE_BUFFER()":"c1874867","ETH_USD()":"6260f55b","TIMEOUT_EXTENDED()":"8c4c501d","TIMEOUT_LINK()":"40f1a34b","getOracleBackUp1()":"0b842e3b","getOracleBackUp2()":"f32cabc5","getUniPrice(uint256,uint8)":"3154b6e2","rETH_ETH()":"d4afb73a","rETH_USD()":"f424c4ba"},"id":124}