{"abi":[{"type":"function","name":"DISPUTE_BUFFER","inputs":[],"outputs":[{"name":"","type":"uint256","internalType":"uint256"}],"stateMutability":"view"},{"type":"function","name":"ETH_USD","inputs":[],"outputs":[{"name":"","type":"uint256","internalType":"uint256"}],"stateMutability":"view"},{"type":"function","name":"TIMEOUT_EXTENDED","inputs":[],"outputs":[{"name":"","type":"uint256","internalType":"uint256"}],"stateMutability":"view"},{"type":"function","name":"TIMEOUT_LINK","inputs":[],"outputs":[{"name":"","type":"uint256","internalType":"uint256"}],"stateMutability":"view"},{"type":"function","name":"chargeOZLfee","inputs":[],"outputs":[{"name":"","type":"bool","internalType":"bool"}],"stateMutability":"nonpayable"},{"type":"function","name":"getUniPrice","inputs":[{"name":"tokenPair_","type":"uint256","internalType":"uint256"},{"name":"side_","type":"uint8","internalType":"enum Dir"}],"outputs":[{"name":"","type":"uint256","internalType":"uint256"}],"stateMutability":"view"},{"type":"function","name":"rETH_ETH","inputs":[],"outputs":[{"name":"","type":"uint256","internalType":"uint256"}],"stateMutability":"view"},{"type":"function","name":"rETH_USD","inputs":[],"outputs":[{"name":"","type":"uint256","internalType":"uint256"}],"stateMutability":"view"},{"type":"event","name":"APRcalculated","inputs":[{"name":"currAPR","type":"uint256","indexed":true,"internalType":"uint256"},{"name":"prevAPR","type":"uint256","indexed":true,"internalType":"uint256"},{"name":"currentRewardsUSD","type":"uint256","indexed":false,"internalType":"uint256"},{"name":"totalAssets","type":"uint256","indexed":false,"internalType":"uint256"},{"name":"deltaStamp","type":"uint256","indexed":false,"internalType":"uint256"}],"anonymous":false},{"type":"error","name":"OZError14","inputs":[{"name":"blockNumber","type":"uint256","internalType":"uint256"}]}],"bytecode":{"object":"0x608060405234801561001057600080fd5b506115e1806100206000396000f3fe608060405234801561001057600080fd5b50600436106100885760003560e01c80638e9cd10c1161005b5780638e9cd10c146100ce578063c1874867146100e6578063d4afb73a146100ef578063f424c4ba146100f757600080fd5b80633154b6e21461008d57806340f1a34b146100b35780636260f55b146100bc5780638c4c501d146100c4575b600080fd5b6100a061009b3660046110b8565b6100ff565b6040519081526020015b60405180910390f35b6100a061384081565b6100a061043d565b6100a06201518081565b6100d6610460565b60405190151581526020016100aa565b6100a061038481565b6100a0610630565b6100a0610642565b6000808360021461016357600083600181111561011e5761011e6110ec565b036101325750679f964d6ce2662477610434565b6001836001811115610146576101466110ec565b0361015a57506796c7c4d9d70a0f5f610434565b83915050610437565b6000848152602b60209081526040808320815160608101835281546001600160a01b03908116808352600190930154808216838701819052600160a01b90910462ffffff169285018390526022548551630b4c774160e11b815260048101869052602481018390526044810185905295519497919693959194921692631698ee82926064808401938290030181865afa158015610204573d6000803e3d6000fd5b505050506040513d601f19601f82011682018060405250810190610228919061111a565b905060008088600181111561023f5761023f6110ec565b1461024d5762015180610251565b6107085b60408051600280825260608201835262ffffff939093169350600092909160208301908036833701905050905081816000815181106102925761029261114d565b602002602001019063ffffffff16908163ffffffff16815250506000816001815181106102c1576102c161114d565b63ffffffff9092166020928302919091019091015260405163883bdbfd60e01b81526000906001600160a01b0385169063883bdbfd90610305908590600401611163565b600060405180830381865afa158015610322573d6000803e3d6000fd5b505050506040513d6000823e601f3d908101601f1916820160405261034a9190810190611276565b5090506000816000815181106103625761036261114d565b60200260200101518260018151811061037d5761037d61114d565b602002602001015161038f9190611358565b905060006103a1600386900b8361139b565b905060008260060b1280156103c557506103bf600386900b836113d9565b60060b15155b156103d857806103d4816113fb565b9150505b6103ec81670de0b6b3a76400008b8b610671565b600354909a506001600160a01b0389811691161461040f5764e8d4a51000610412565b60015b6104239064ffffffffff168b61141e565b9a5050505050505050505050610437565b90505b92915050565b6007546000908190610459906001600160a01b0316600161077f565b9392505050565b6009546040516370a0823160e01b815230600482015260009182916001600160a01b03909116906370a0823190602401602060405180830381865afa1580156104ad573d6000803e3d6000fd5b505050506040513d601f19601f820116820180604052508101906104d19190611435565b90506000805b6001548110156105895760018054829081106104f5576104f561114d565b600091825260209182902060029091020154604080516278744560e21b815290516001600160a01b03909216926301e1d114926004808401938290030181865afa158015610547573d6000803e3d6000fd5b505050506040513d601f19601f8201168201806040525081019061056b9190611435565b610575908361144e565b91508061058181611461565b9150506104d7565b5060145443116105b35760405163dcfa2bfd60e01b81524360048201526024015b60405180910390fd5b6000806105c08385610837565b909250905060006105d1838361147a565b9050600081136105e75760009550505050505090565b6015546000906105f7908361147a565b90506000811361060e576000965050505050505090565b61061882826108a5565b506106238186610995565b6001965050505050505090565b600061063d6000806100ff565b905090565b6000670de0b6b3a764000061065561043d565b61065d610630565b610667919061141e565b61063d91906114a1565b60008061067d86610a5e565b90506001600160801b036001600160a01b038216116107035760006106ab6001600160a01b0383168061141e565b9050836001600160a01b0316856001600160a01b0316106106e3576106de600160c01b876001600160801b031683610e7e565b6106fb565b6106fb81876001600160801b0316600160c01b610e7e565b925050610776565b60006107226001600160a01b0383168068010000000000000000610e7e565b9050836001600160a01b0316856001600160a01b03161061075a57610755600160801b876001600160801b031683610e7e565b610772565b61077281876001600160801b0316600160801b610e7e565b9250505b50949350505050565b6000806138406402540be40084610797576201518091505b600a546001600160a01b03908116908716036107b1575060015b6000866001600160a01b031663feaf968c6040518163ffffffff1660e01b815260040160a060405180830381865afa1580156107f1573d6000803e3d6000fd5b505050506040513d601f19601f8201168201806040525081019061081591906114d4565b50505091505060018282610829919061141e565b945094505050509250929050565b600080600061084461043d565b6108538664e8d4a5100061141e565b61086590670de0b6b3a764000061141e565b61086f91906114a1565b90506000670de0b6b3a7640000610884610630565b61088e908761141e565b61089891906114a1565b9196919550909350505050565b60135460009081906108c9906601000000000000900462ffffff1684612710610ff4565b6015859055905060006108da610630565b6108ec83670de0b6b3a764000061141e565b6108f691906114a1565b9050600061090382611012565b60095460135460405163a9059cbb60e01b81526001600160a01b0369010000000000000000009092048216600482015260248101849052929350169063a9059cbb906044016020604051808303816000875af1158015610967573d6000803e3d6000fd5b505050506040513d601f19601f8201168201806040525081019061098b9190611524565b5095945050505050565b602e54602f55602d546000906109ab9042611546565b90506301e1432060006109cf6109bf61043d565b8690670de0b6b3a7640000610ff4565b90506109db83836114a1565b6109e585836114a1565b6109ef919061141e565b6109fa90606461141e565b610a0790620f424061141e565b602e819055602f5460408051848152602081018890529081018690529091907f24acc7e57080c86685edba47039057e67cc94a5bcdd72b62d5ce227f4eaaa5f29060600160405180910390a3505042602d55505050565b60008060008360020b12610a75578260020b610a82565b8260020b610a8290611559565b9050610a91620d89e719611575565b60020b811115610ac75760405162461bcd60e51b81526020600482015260016024820152601560fa1b60448201526064016105aa565b600081600116600003610ade57600160801b610af0565b6ffffcb933bd6fad37aa2d162d1a5940015b70ffffffffffffffffffffffffffffffffff1690506002821615610b2f576080610b2a826ffff97272373d413259a46990580e213a61141e565b901c90505b6004821615610b59576080610b54826ffff2e50f5f656932ef12357cf3c7fdcc61141e565b901c90505b6008821615610b83576080610b7e826fffe5caca7e10e4e61c3624eaa0941cd061141e565b901c90505b6010821615610bad576080610ba8826fffcb9843d60f6159c9db58835c92664461141e565b901c90505b6020821615610bd7576080610bd2826fff973b41fa98c081472e6896dfb254c061141e565b901c90505b6040821615610c01576080610bfc826fff2ea16466c96a3843ec78b326b5286161141e565b901c90505b6080821615610c2b576080610c26826ffe5dee046a99a2a811c461f1969c305361141e565b901c90505b610100821615610c56576080610c51826ffcbe86c7900a88aedcffc83b479aa3a461141e565b901c90505b610200821615610c81576080610c7c826ff987a7253ac413176f2b074cf7815e5461141e565b901c90505b610400821615610cac576080610ca7826ff3392b0822b70005940c7a398e4b70f361141e565b901c90505b610800821615610cd7576080610cd2826fe7159475a2c29b7443b29c7fa6e889d961141e565b901c90505b611000821615610d02576080610cfd826fd097f3bdfd2022b8845ad8f792aa582561141e565b901c90505b612000821615610d2d576080610d28826fa9f746462d870fdf8a65dc1f90e061e561141e565b901c90505b614000821615610d58576080610d53826f70d869a156d2a1b890bb3df62baf32f761141e565b901c90505b618000821615610d83576080610d7e826f31be135f97d08fd981231505542fcfa661141e565b901c90505b62010000821615610daf576080610daa826f09aa508b5b7a84e1c677de54f3e99bc961141e565b901c90505b62020000821615610dda576080610dd5826e5d6af8dedb81196699c329225ee60461141e565b901c90505b62040000821615610e04576080610dff826d2216e584f5fa1ea926041bedfe9861141e565b901c90505b62080000821615610e2c576080610e27826b048a170391f7dc42444e8fa261141e565b901c90505b60008460020b1315610e4757610e44816000196114a1565b90505b610e5664010000000082611597565b15610e62576001610e65565b60005b610e769060ff16602083901c61144e565b949350505050565b6000808060001985870985870292508281108382030391505080600003610eb75760008411610eac57600080fd5b508290049050610459565b808411610ec357600080fd5b600084868809808403938111909203919050600085610ee181611559565b16958690049593849004936000819003046001019050610f01818461141e565b909317926000610f1287600361141e565b6002189050610f21818861141e565b610f2c906002611546565b610f36908261141e565b9050610f42818861141e565b610f4d906002611546565b610f57908261141e565b9050610f63818861141e565b610f6e906002611546565b610f78908261141e565b9050610f84818861141e565b610f8f906002611546565b610f99908261141e565b9050610fa5818861141e565b610fb0906002611546565b610fba908261141e565b9050610fc6818861141e565b610fd1906002611546565b610fdb908261141e565b9050610fe7818661141e565b9998505050505050505050565b600082600019048411830215820261100b57600080fd5b5091020490565b601f54600090819061103290600160a01b900461ffff1684612710610ff4565b600954601f5460405163a9059cbb60e01b81526001600160a01b03918216600482015260248101849052929350169063a9059cbb906044016020604051808303816000875af1158015611089573d6000803e3d6000fd5b505050506040513d601f19601f820116820180604052508101906110ad9190611524565b506104598184611546565b600080604083850312156110cb57600080fd5b823591506020830135600281106110e157600080fd5b809150509250929050565b634e487b7160e01b600052602160045260246000fd5b6001600160a01b038116811461111757600080fd5b50565b60006020828403121561112c57600080fd5b815161043481611102565b634e487b7160e01b600052604160045260246000fd5b634e487b7160e01b600052603260045260246000fd5b6020808252825182820181905260009190848201906040850190845b818110156111a157835163ffffffff168352928401929184019160010161117f565b50909695505050505050565b604051601f8201601f1916810167ffffffffffffffff811182821017156111d6576111d6611137565b604052919050565b600067ffffffffffffffff8211156111f8576111f8611137565b5060051b60200190565b600082601f83011261121357600080fd5b81516020611228611223836111de565b6111ad565b82815260059290921b8401810191818101908684111561124757600080fd5b8286015b8481101561126b57805161125e81611102565b835291830191830161124b565b509695505050505050565b6000806040838503121561128957600080fd5b825167ffffffffffffffff808211156112a157600080fd5b818501915085601f8301126112b557600080fd5b815160206112c5611223836111de565b82815260059290921b840181019181810190898411156112e457600080fd5b948201945b838610156113125785518060060b81146113035760008081fd5b825294820194908201906112e9565b9188015191965090935050508082111561132b57600080fd5b5061133885828601611202565b9150509250929050565b634e487b7160e01b600052601160045260246000fd5b600682810b9082900b03667fffffffffffff198112667fffffffffffff8213171561043757610437611342565b634e487b7160e01b600052601260045260246000fd5b60008160060b8360060b806113b2576113b2611385565b667fffffffffffff198214600019821416156113d0576113d0611342565b90059392505050565b60008260060b806113ec576113ec611385565b808360060b0791505092915050565b60008160020b627fffff19810361141457611414611342565b6000190192915050565b808202811582820484141761043757610437611342565b60006020828403121561144757600080fd5b5051919050565b8082018082111561043757610437611342565b60006001820161147357611473611342565b5060010190565b818103600083128015838313168383128216171561149a5761149a611342565b5092915050565b6000826114b0576114b0611385565b500490565b805169ffffffffffffffffffff811681146114cf57600080fd5b919050565b600080600080600060a086880312156114ec57600080fd5b6114f5866114b5565b9450602086015193506040860151925060608601519150611518608087016114b5565b90509295509295909350565b60006020828403121561153657600080fd5b8151801515811461043457600080fd5b8181038181111561043757610437611342565b6000600160ff1b820161156e5761156e611342565b5060000390565b60008160020b627fffff19810361158e5761158e611342565b60000392915050565b6000826115a6576115a6611385565b50069056fea2646970667358221220f6cef4c3a01a27de91b8f2b754e2a78d085f1093b781a7e31142674b68f5679d64736f6c63430008150033","linkReferences":{}},"methodIdentifiers":{"DISPUTE_BUFFER()":"c1874867","ETH_USD()":"6260f55b","TIMEOUT_EXTENDED()":"8c4c501d","TIMEOUT_LINK()":"40f1a34b","chargeOZLfee()":"8e9cd10c","getUniPrice(uint256,uint8)":"3154b6e2","rETH_ETH()":"d4afb73a","rETH_USD()":"f424c4ba"},"id":137}