{"abi":[{"type":"function","name":"DISPUTE_BUFFER","inputs":[],"outputs":[{"name":"","type":"uint256","internalType":"uint256"}],"stateMutability":"view"},{"type":"function","name":"ETH_USD","inputs":[],"outputs":[{"name":"","type":"uint256","internalType":"uint256"}],"stateMutability":"view"},{"type":"function","name":"TIMEOUT_EXTENDED","inputs":[],"outputs":[{"name":"","type":"uint256","internalType":"uint256"}],"stateMutability":"view"},{"type":"function","name":"TIMEOUT_LINK","inputs":[],"outputs":[{"name":"","type":"uint256","internalType":"uint256"}],"stateMutability":"view"},{"type":"function","name":"chargeOZLfee","inputs":[],"outputs":[{"name":"","type":"bool","internalType":"bool"}],"stateMutability":"nonpayable"},{"type":"function","name":"getOracleBackUp1","inputs":[],"outputs":[{"name":"","type":"bool","internalType":"bool"},{"name":"","type":"uint256","internalType":"uint256"}],"stateMutability":"view"},{"type":"function","name":"getOracleBackUp2","inputs":[],"outputs":[{"name":"","type":"bool","internalType":"bool"},{"name":"","type":"uint256","internalType":"uint256"}],"stateMutability":"view"},{"type":"function","name":"getUniPrice","inputs":[{"name":"tokenPair_","type":"uint256","internalType":"uint256"},{"name":"side_","type":"uint8","internalType":"enum Dir"}],"outputs":[{"name":"","type":"uint256","internalType":"uint256"}],"stateMutability":"pure"},{"type":"function","name":"rETH_ETH","inputs":[],"outputs":[{"name":"","type":"uint256","internalType":"uint256"}],"stateMutability":"pure"},{"type":"function","name":"rETH_USD","inputs":[],"outputs":[{"name":"","type":"uint256","internalType":"uint256"}],"stateMutability":"view"},{"type":"error","name":"OZError14","inputs":[{"name":"blockNumber","type":"uint256","internalType":"uint256"}]},{"type":"error","name":"OZError23","inputs":[{"name":"baseToken","type":"address","internalType":"address"}]}],"bytecode":{"object":"0x608060405234801561001057600080fd5b50611113806100206000396000f3fe608060405234801561001057600080fd5b506004361061009e5760003560e01c80638e9cd10c116100665780638e9cd10c14610103578063c18748671461011b578063d4afb73a14610124578063f32cabc51461012c578063f424c4ba1461013457600080fd5b80630b842e3b146100a35780633154b6e2146100c757806340f1a34b146100e85780636260f55b146100f15780638c4c501d146100f9575b600080fd5b6100ab61013c565b6040805192151583526020830191909152015b60405180910390f35b6100da6100d5366004610d7e565b61029b565b6040519081526020016100be565b6100da61384081565b6100da6102ff565b6100da6201518081565b61010b610349565b60405190151581526020016100be565b6100da61038481565b6100da610589565b6100ab61059b565b6100da610639565b60008060006040516020016101829060408082526003908201819052620cae8d60eb1b6060830152608060208301819052820152621d5cd960ea1b60a082015260c00190565b60408051601f198184030181529082905261019f91602001610e02565b60408051601f198184030181529190528051602090910120602354909150600090819081906001600160a01b031663a792765f856101df61038442610e4b565b6040516001600160e01b031960e085901b16815260048101929092526024820152604401600060405180830381865afa158015610220573d6000803e3d6000fd5b505050506040513d6000823e601f3d908101601f191682016040526102489190810190610e89565b9250925092508215806102665750620151806102648242610e4b565b115b1561027957506000958695509350505050565b60018280602001905181019061028f9190610f52565b95509550505050509091565b600080808360018111156102b1576102b1610f6b565b036102c55750670fae603f9d8836d86102f6565b60018360018111156102d9576102d9610f6b565b036102ed5750670f13fa15c8b434bc6102f6565b839150506102f9565b90505b92915050565b6007546000908190819061031d906001600160a01b03166001610668565b91509150816103405760035461033b906001600160a01b031661079d565b610342565b805b9250505090565b6009546040516370a0823160e01b815230600482015260009182916001600160a01b03909116906370a0823190602401602060405180830381865afa158015610396573d6000803e3d6000fd5b505050506040513d601f19601f820116820180604052508101906103ba9190610f52565b90506000805b6001548110156104725760018054829081106103de576103de610f81565b600091825260209182902060029091020154604080516278744560e21b815290516001600160a01b03909216926301e1d114926004808401938290030181865afa158015610430573d6000803e3d6000fd5b505050506040513d601f19601f820116820180604052508101906104549190610f52565b61045e9083610f97565b91508061046a81610faa565b9150506103c0565b50601454431161049c5760405163dcfa2bfd60e01b81524360048201526024015b60405180910390fd5b6000806104a983856108fe565b909250905060006104ba8383610fc3565b90506104e96040518060400160405280600b81526020016a03922ba3424b722aa241d160ad1b81525083610a69565b6105186040518060400160405280600d81526020016c030b9b9b2ba39a4b722aa241d1609d1b81525084610a69565b6105226015610ab2565b600081136105365760009550505050505090565b6105406016610ab2565b6015546000906105509083610fc3565b905060008113610567576000965050505050505090565b6105716017610ab2565b61057b8282610afa565b506001965050505050505090565b600061059660008061029b565b905090565b6024546000908190819081906105ba906001600160a01b031682610668565b602554919350915060009081906105da906001600160a01b031682610668565b915091508380156105e85750815b1561062b57600061061c82670de0b6b3a7640000610615876ec097ce7bc90715b34b9f1000000000610fea565b9190610bea565b60019890975095505050505050565b506000958695509350505050565b6000670de0b6b3a764000061064c6102ff565b610654610589565b61065e919061100c565b6105969190610fea565b6000806138406402540be40084610680576201518091505b600a546001600160a01b039081169087160361069a575060015b6000806000886001600160a01b031663feaf968c6040518163ffffffff1660e01b815260040160a060405180830381865afa1580156106dd573d6000803e3d6000fd5b505050506040513d601f19601f82011682018060405250810190610701919061103d565b50935050925092508269ffffffffffffffffffff16600014158061073257506024546001600160a01b038a81169116145b801561073e5750600082135b801561074957508015155b80156107555750428111155b801561076a5750846107678242610e4b565b11155b1561078957600161077b858461100c565b965096505050505050610796565b6000809650965050505050505b9250929050565b6003546000906001600160a01b03908116908316036108145760006107c46002600061029b565b90506000806107d161013c565b915091506000806107e061059b565b915091508380156107ee5750815b15610809576107fe858483610c08565b979650505050505050565b509295945050505050565b6009546001600160a01b03908116908316036108da57600061083760008061029b565b905060006108476001600061029b565b905060008060090160009054906101000a90046001600160a01b03166001600160a01b031663e6aa216c6040518163ffffffff1660e01b8152600401602060405180830381865afa1580156108a0573d6000803e3d6000fd5b505050506040513d601f19601f820116820180604052508101906108c49190610f52565b90506108d1838383610c08565b95945050505050565b60405163715ed81960e01b81526001600160a01b0383166004820152602401610493565b60008061091960405180602001604052806000815250610c78565b60408051808201909152601081526f030b9b9b2ba39af90151018b298991d160851b6020820152610958906109538664e8d4a5100061100c565b610a69565b6109876040518060400160405280600d81526020016c030b6b7bab73a2932ba342f9d1609d1b81525084610a69565b6109b66040518060400160405280600b81526020016a022aa242faaa9a214149d160ad1b8152506109536102ff565b6109e66040518060400160405280600c81526020016b03922aa242fa2aa2414149d160a51b815250610953610589565b6109fe60405180602001604052806000815250610c78565b6000610a086102ff565b610a178664e8d4a5100061100c565b610a2990670de0b6b3a764000061100c565b610a339190610fea565b90506000670de0b6b3a7640000610a48610589565b610a52908761100c565b610a5c9190610fea565b9196919550909350505050565b610aae8282604051602401610a7f92919061108d565b60408051601f198184030181529190526020810180516001600160e01b03166309710a9d60e41b179052610cb7565b5050565b610af781604051602401610ac891815260200190565b60408051601f198184030181529190526020810180516001600160e01b031663f5b1bba960e01b179052610cb7565b50565b6013546000908190610b1e906601000000000000900462ffffff1684612710610bea565b601585905590506000610b2f610589565b610b4183670de0b6b3a764000061100c565b610b4b9190610fea565b90506000610b5882610cd8565b60095460135460405163a9059cbb60e01b81526001600160a01b0369010000000000000000009092048216600482015260248101849052929350169063a9059cbb906044016020604051808303816000875af1158015610bbc573d6000803e3d6000fd5b505050506040513d601f19601f82011682018060405250810190610be091906110af565b5095945050505050565b6000826000190484118302158202610c0157600080fd5b5091020490565b6000828410158015610c1a5750818411155b80610c305750828411158015610c305750818410155b15610c3c575082610c71565b838310158015610c4c5750818311155b80610c625750838311158015610c625750818310155b15610c6e575081610c71565b50805b9392505050565b610af781604051602401610c8c91906110ca565b60408051601f198184030181529190526020810180516001600160e01b031663104c13eb60e21b1790525b80516a636f6e736f6c652e6c6f67602083016000808483855afa5050505050565b601f546000908190610cf890600160a01b900461ffff1684612710610bea565b600954601f5460405163a9059cbb60e01b81526001600160a01b03918216600482015260248101849052929350169063a9059cbb906044016020604051808303816000875af1158015610d4f573d6000803e3d6000fd5b505050506040513d601f19601f82011682018060405250810190610d7391906110af565b50610c718184610e4b565b60008060408385031215610d9157600080fd5b82359150602083013560028110610da757600080fd5b809150509250929050565b60005b83811015610dcd578181015183820152602001610db5565b50506000910152565b60008151808452610dee816020860160208601610db2565b601f01601f19169290920160200192915050565b60408152600960408201526853706f74507269636560b81b6060820152608060208201526000610c716080830184610dd6565b634e487b7160e01b600052601160045260246000fd5b818103818111156102f9576102f9610e35565b80518015158114610e6e57600080fd5b919050565b634e487b7160e01b600052604160045260246000fd5b600080600060608486031215610e9e57600080fd5b610ea784610e5e565b9250602084015167ffffffffffffffff80821115610ec457600080fd5b818601915086601f830112610ed857600080fd5b815181811115610eea57610eea610e73565b604051601f8201601f19908116603f01168101908382118183101715610f1257610f12610e73565b81604052828152896020848701011115610f2b57600080fd5b610f3c836020830160208801610db2565b8096505050505050604084015190509250925092565b600060208284031215610f6457600080fd5b5051919050565b634e487b7160e01b600052602160045260246000fd5b634e487b7160e01b600052603260045260246000fd5b808201808211156102f9576102f9610e35565b600060018201610fbc57610fbc610e35565b5060010190565b8181036000831280158383131683831282161715610fe357610fe3610e35565b5092915050565b60008261100757634e487b7160e01b600052601260045260246000fd5b500490565b80820281158282048414176102f9576102f9610e35565b805169ffffffffffffffffffff81168114610e6e57600080fd5b600080600080600060a0868803121561105557600080fd5b61105e86611023565b945060208601519350604086015192506060860151915061108160808701611023565b90509295509295909350565b6040815260006110a06040830185610dd6565b90508260208301529392505050565b6000602082840312156110c157600080fd5b610c7182610e5e565b602081526000610c716020830184610dd656fea26469706673582212209b782d243ac6d2a4ca0236bd4b7301103c248581f606a76a289a30d0e972088d64736f6c63430008150033","linkReferences":{}},"methodIdentifiers":{"DISPUTE_BUFFER()":"c1874867","ETH_USD()":"6260f55b","TIMEOUT_EXTENDED()":"8c4c501d","TIMEOUT_LINK()":"40f1a34b","chargeOZLfee()":"8e9cd10c","getOracleBackUp1()":"0b842e3b","getOracleBackUp2()":"f32cabc5","getUniPrice(uint256,uint8)":"3154b6e2","rETH_ETH()":"d4afb73a","rETH_USD()":"f424c4ba"},"id":137}