{"abi":[{"type":"function","name":"getUniPrice","inputs":[{"name":"tokenPair_","type":"uint256","internalType":"uint256"},{"name":"side_","type":"uint8","internalType":"enum Dir"}],"outputs":[{"name":"","type":"uint256","internalType":"uint256"}],"stateMutability":"view"}],"bytecode":{"object":"0x608060405234801561001057600080fd5b50610118806100206000396000f3fe6080604052348015600f57600080fd5b506004361060285760003560e01c80633154b6e214602d575b600080fd5b603c6038366004609a565b604e565b60405190815260200160405180910390f35b60008080836001811115606157606160cc565b0360735750670f13fa15c8b434bc6093565b6001836001811115608457608460cc565b0360935750670f123aed20dfea305b9392505050565b6000806040838503121560ac57600080fd5b8235915060208301356002811060c157600080fd5b809150509250929050565b634e487b7160e01b600052602160045260246000fdfea2646970667358221220c71ab9290e54d74df0d0a34285e31710977d7b947c1d5c54df06f8074a77f9eb64736f6c63430008150033","linkReferences":{}},"methodIdentifiers":{"getUniPrice(uint256,uint8)":"3154b6e2"},"id":137}