{"abi":[{"type":"function","name":"observe","inputs":[{"name":"secondsAgos","type":"uint32[]","internalType":"uint32[]"}],"outputs":[{"name":"tickCumulatives","type":"int56[]","internalType":"int56[]"},{"name":"secondsPerLiquidityCumulativeX128s","type":"uint160[]","internalType":"uint160[]"}],"stateMutability":"view"}],"bytecode":{"object":"0x608060405234801561001057600080fd5b50610370806100206000396000f3fe608060405234801561001057600080fd5b506004361061002b5760003560e01c8063883bdbfd14610030575b600080fd5b61004361003e3660046101fb565b61005a565b604051610051929190610270565b60405180910390f35b60408051600180825281830190925260609182919060208083019080368337019050509050600281600081518110610094576100946102f7565b6001600160a01b0392909216602092830291909101820152604080516002808252606082018352909290919083019080368337019050509150838360008181106100e0576100e06102f7565b90506020020160208101906100f5919061030d565b63ffffffff16610708036101625764066f788a128260008151811061011c5761011c6102f7565b602002602001019060060b908160060b8152505064066f8f6b1a82600181518110610149576101496102f7565b602002602001019060060b908160060b815250506101f4565b83836000818110610175576101756102f7565b905060200201602081019061018a919061030d565b63ffffffff1662015180036101f45764066b400ada826000815181106101b2576101b26102f7565b602002602001019060060b908160060b8152505064066f8f6b1a826001815181106101df576101df6102f7565b602002602001019060060b908160060b815250505b9250929050565b6000806020838503121561020e57600080fd5b823567ffffffffffffffff8082111561022657600080fd5b818501915085601f83011261023a57600080fd5b81358181111561024957600080fd5b8660208260051b850101111561025e57600080fd5b60209290920196919550909350505050565b604080825283519082018190526000906020906060840190828701845b828110156102ac57815160060b8452928401929084019060010161028d565b5050508381038285015284518082528583019183019060005b818110156102ea5783516001600160a01b0316835292840192918401916001016102c5565b5090979650505050505050565b634e487b7160e01b600052603260045260246000fd5b60006020828403121561031f57600080fd5b813563ffffffff8116811461033357600080fd5b939250505056fea26469706673582212205e65a040a4e5a21107b40abd9ee62621eebb752c64c52cfe3c916916ceac18b564736f6c63430008150033","linkReferences":{}},"methodIdentifiers":{"observe(uint32[])":"883bdbfd"},"id":137}