{"abi":[{"type":"function","name":"USDC","inputs":[{"name":"tokenIn_","type":"address","internalType":"address"}],"outputs":[{"name":"","type":"bool","internalType":"bool"}],"stateMutability":"view"},{"type":"function","name":"USDCa","inputs":[{"name":"","type":"uint256","internalType":"uint256"}],"outputs":[{"name":"","type":"address","internalType":"address"}],"stateMutability":"view"},{"type":"function","name":"latestRoundData","inputs":[],"outputs":[{"name":"roundId","type":"uint80","internalType":"uint80"},{"name":"answer","type":"int256","internalType":"int256"},{"name":"startedAt","type":"uint256","internalType":"uint256"},{"name":"updatedAt","type":"uint256","internalType":"uint256"},{"name":"answeredInRound","type":"uint80","internalType":"uint80"}],"stateMutability":"view"}],"bytecode":{"object":"0x670f13fa15c8b434bc600055685aee9dbdc751e264006001556002805473a0b86991c6218b36c1d19d4a2e9eb0ce3606eb486001600160a01b0319918216811783556003805473fefc6baf87cf3684058d62da40ff3a795946ab0693168317905560c0604052608090815260a09190915261007d91600491906100d8565b50600580546001600160a01b031990811673c02aaa39b223fe8d0a0e5c4f27ead9083c756cc21790915560068054909116736b175474e89094c44da98b954eedeac495271d0f1790553480156100d257600080fd5b50610152565b82805482825590600052602060002090810192821561012d579160200282015b8281111561012d57825182546001600160a01b0319166001600160a01b039091161782556020909201916001909101906100f8565b5061013992915061013d565b5090565b5b80821115610139576000815560010161013e565b6102a1806101616000396000f3fe608060405234801561001057600080fd5b50600436106100415760003560e01c806333a7a357146100465780635265fedc1461006e578063feaf968c14610099575b600080fd5b6100596100543660046101e5565b6100cd565b60405190151581526020015b60405180910390f35b61008161007c366004610215565b610153565b6040516001600160a01b039091168152602001610065565b6040805160028152670fd1e7320d4936d860208201524291810182905260608101919091526001608082015260a001610065565b60008061013d83600480548060200260200160405190810160405280929190818152602001828054801561012a57602002820191906000526020600020905b81546001600160a01b0316815260019091019060200180831161010c575b505050505061017d90919063ffffffff16565b121561014a57600061014d565b60015b92915050565b6004818154811061016357600080fd5b6000918252602090912001546001600160a01b0316905081565b8151600090815b818110156101d957836001600160a01b03168582815181106101a8576101a861022e565b60200260200101516001600160a01b0316036101c757915061014d9050565b806101d181610244565b915050610184565b50600019949350505050565b6000602082840312156101f757600080fd5b81356001600160a01b038116811461020e57600080fd5b9392505050565b60006020828403121561022757600080fd5b5035919050565b634e487b7160e01b600052603260045260246000fd5b60006001820161026457634e487b7160e01b600052601160045260246000fd5b506001019056fea2646970667358221220bf22a69aedf6daa5051c3f531459e69eee57afa2aa1708838ff96fef5c7989f164736f6c63430008150033","linkReferences":{}},"methodIdentifiers":{"USDC(address)":"33a7a357","USDCa(uint256)":"5265fedc","latestRoundData()":"feaf968c"},"id":129}