{"abi":[{"type":"function","name":"getRoundData","inputs":[{"name":"roundId_","type":"uint80","internalType":"uint80"}],"outputs":[{"name":"roundId","type":"uint80","internalType":"uint80"},{"name":"answer","type":"int256","internalType":"int256"},{"name":"startedAt","type":"uint256","internalType":"uint256"},{"name":"updatedAt","type":"uint256","internalType":"uint256"},{"name":"answeredInRound","type":"uint80","internalType":"uint80"}],"stateMutability":"view"},{"type":"function","name":"latestRoundData","inputs":[],"outputs":[{"name":"roundId","type":"uint80","internalType":"uint80"},{"name":"answer","type":"int256","internalType":"int256"},{"name":"startedAt","type":"uint256","internalType":"uint256"},{"name":"updatedAt","type":"uint256","internalType":"uint256"},{"name":"answeredInRound","type":"uint80","internalType":"uint80"}],"stateMutability":"view"}],"bytecode":{"object":"0x6080604052670f13fa15c8b434bc600055685aee9dbdc751e2640060015534801561002957600080fd5b5061025f806100396000396000f3fe608060405234801561001057600080fd5b50600436106100365760003560e01c80639a6fc8f51461003b578063feaf968c14610089575b600080fd5b61004e6100493660046101a8565b610091565b6040805169ffffffffffffffffffff968716815260208101959095528401929092526060830152909116608082015260a00160405180910390f35b61004e6100f4565b6000806000806000808669ffffffffffffffffffff16680100000000000000ed036100c15750670f123aed20dfea305b8669ffffffffffffffffffff166000036100e05750670f13fa15c8b434bc5b600197909650879550859450849350915050565b600080600080600061012b6040518060400160405280600e81526020016d73686f756c64206e6f74206c6f6760901b815250610141565b5050600054600294909350429250829150600190565b6101848160405160240161015591906101db565b60408051601f198184030181529190526020810180516001600160e01b031663104c13eb60e21b179052610187565b50565b80516a636f6e736f6c652e6c6f67602083016000808483855afa5050505050565b6000602082840312156101ba57600080fd5b813569ffffffffffffffffffff811681146101d457600080fd5b9392505050565b600060208083528351808285015260005b81811015610208578581018301518582016040015282016101ec565b506000604082860101526040601f19601f830116850101925050509291505056fea264697066735822122028df8d716ad0d7b4e3c957ab3ebde99d4edc53e46c3110770279ea86ef85681f64736f6c63430008150033","linkReferences":{}},"methodIdentifiers":{"getRoundData(uint80)":"9a6fc8f5","latestRoundData()":"feaf968c"},"id":137}