{"abi":[{"type":"function","name":"DAI","inputs":[{"name":"tokenIn_","type":"address","internalType":"address"}],"outputs":[{"name":"","type":"bool","internalType":"bool"}],"stateMutability":"view"},{"type":"function","name":"DAIa","inputs":[{"name":"","type":"uint256","internalType":"uint256"}],"outputs":[{"name":"","type":"address","internalType":"address"}],"stateMutability":"view"},{"type":"function","name":"USDC","inputs":[{"name":"tokenIn_","type":"address","internalType":"address"}],"outputs":[{"name":"","type":"bool","internalType":"bool"}],"stateMutability":"view"},{"type":"function","name":"USDCa","inputs":[{"name":"","type":"uint256","internalType":"uint256"}],"outputs":[{"name":"","type":"address","internalType":"address"}],"stateMutability":"view"},{"type":"function","name":"getRoundData","inputs":[{"name":"roundId_","type":"uint80","internalType":"uint80"}],"outputs":[{"name":"roundId","type":"uint80","internalType":"uint80"},{"name":"answer","type":"int256","internalType":"int256"},{"name":"startedAt","type":"uint256","internalType":"uint256"},{"name":"updatedAt","type":"uint256","internalType":"uint256"},{"name":"answeredInRound","type":"uint80","internalType":"uint80"}],"stateMutability":"pure"},{"type":"function","name":"latestRoundData","inputs":[],"outputs":[{"name":"roundId","type":"uint80","internalType":"uint80"},{"name":"answer","type":"int256","internalType":"int256"},{"name":"startedAt","type":"uint256","internalType":"uint256"},{"name":"updatedAt","type":"uint256","internalType":"uint256"},{"name":"answeredInRound","type":"uint80","internalType":"uint80"}],"stateMutability":"view"}],"bytecode":{"object":"0x670f13fa15c8b434bc5f55685aee9dbdc751e264006001556002805473a0b86991c6218b36c1d19d4a2e9eb0ce3606eb486001600160a01b0319918216811783556003805473fefc6baf87cf3684058d62da40ff3a795946ab0693168317905560c0604052608090815260a09190915261007c916004919061011e565b5060058054736b175474e89094c44da98b954eedeac495271d0f6001600160a01b0319918216811790925560068054732a9e8fa175f45b235efddd97d2727741ef4eee639216821790556040805180820190915291825260208201526100e690600790600261011e565b50600880546001600160a01b03191673c02aaa39b223fe8d0a0e5c4f27ead9083c756cc2179055348015610118575f80fd5b50610195565b828054828255905f5260205f20908101928215610171579160200282015b8281111561017157825182546001600160a01b0319166001600160a01b0390911617825560209092019160019091019061013c565b5061017d929150610181565b5090565b5b8082111561017d575f8155600101610182565b6103d3806101a25f395ff3fe608060405234801561000f575f80fd5b5060043610610060575f3560e01c806333a7a357146100645780635265fedc1461008c5780639a6fc8f5146100b7578063a3a99b3c14610101578063c648527f14610114578063feaf968c14610127575b5f80fd5b61007761007236600461031c565b61013d565b60405190151581526020015b60405180910390f35b61009f61009a366004610349565b6101bf565b6040516001600160a01b039091168152602001610083565b6100ca6100c5366004610360565b6101e7565b6040805169ffffffffffffffffffff968716815260208101959095528401929092526060830152909116608082015260a001610083565b61009f61010f366004610349565b610246565b61007761012236600461031c565b610255565b5f54680100000000000000ee90428060016100ca565b5f806101aa83600480548060200260200160405190810160405280929190818152602001828054801561019757602002820191905f5260205f20905b81546001600160a01b03168152600190910190602001808311610179575b50505050506102c090919063ffffffff16565b12156101b6575f6101b9565b60015b92915050565b600481815481106101ce575f80fd5b5f918252602090912001546001600160a01b0316905081565b5f805f805f808669ffffffffffffffffffff16680100000000000000ed036102145750670f123aed20dfea305b8669ffffffffffffffffffff165f036102325750670f13fa15c8b434bc5b600197909650879550859450849350915050565b600781815481106101ce575f80fd5b5f806101aa83600780548060200260200160405190810160405280929190818152602001828054801561019757602002820191905f5260205f209081546001600160a01b031681526001909101906020018083116101795750505050506102c090919063ffffffff16565b81515f90815b8181101561031157836001600160a01b03168582815181106102ea576102ea610389565b60200260200101516001600160a01b0316036103095791506101b99050565b6001016102c6565b505f19949350505050565b5f6020828403121561032c575f80fd5b81356001600160a01b0381168114610342575f80fd5b9392505050565b5f60208284031215610359575f80fd5b5035919050565b5f60208284031215610370575f80fd5b813569ffffffffffffffffffff81168114610342575f80fd5b634e487b7160e01b5f52603260045260245ffdfea26469706673582212203833aa05fd61173365d79a93ee8578175c08feadce794157b8acebba334bfede64736f6c63430008180033","linkReferences":{}},"methodIdentifiers":{"DAI(address)":"c648527f","DAIa(uint256)":"a3a99b3c","USDC(address)":"33a7a357","USDCa(uint256)":"5265fedc","getRoundData(uint80)":"9a6fc8f5","latestRoundData()":"feaf968c"},"id":126}