{"abi":[{"type":"function","name":"DAI","inputs":[{"name":"tokenIn_","type":"address","internalType":"address"}],"outputs":[{"name":"","type":"bool","internalType":"bool"}],"stateMutability":"view"},{"type":"function","name":"DAIa","inputs":[{"name":"","type":"uint256","internalType":"uint256"}],"outputs":[{"name":"","type":"address","internalType":"address"}],"stateMutability":"view"},{"type":"function","name":"USDC","inputs":[{"name":"tokenIn_","type":"address","internalType":"address"}],"outputs":[{"name":"","type":"bool","internalType":"bool"}],"stateMutability":"view"},{"type":"function","name":"USDCa","inputs":[{"name":"","type":"uint256","internalType":"uint256"}],"outputs":[{"name":"","type":"address","internalType":"address"}],"stateMutability":"view"},{"type":"function","name":"getRoundData","inputs":[{"name":"roundId_","type":"uint80","internalType":"uint80"}],"outputs":[{"name":"roundId","type":"uint80","internalType":"uint80"},{"name":"answer","type":"int256","internalType":"int256"},{"name":"startedAt","type":"uint256","internalType":"uint256"},{"name":"updatedAt","type":"uint256","internalType":"uint256"},{"name":"answeredInRound","type":"uint80","internalType":"uint80"}],"stateMutability":"pure"},{"type":"function","name":"latestRoundData","inputs":[],"outputs":[{"name":"roundId","type":"uint80","internalType":"uint80"},{"name":"answer","type":"int256","internalType":"int256"},{"name":"startedAt","type":"uint256","internalType":"uint256"},{"name":"updatedAt","type":"uint256","internalType":"uint256"},{"name":"answeredInRound","type":"uint80","internalType":"uint80"}],"stateMutability":"view"}],"bytecode":{"object":"0x670f13fa15c8b434bc600055685aee9dbdc751e264006001556002805473a0b86991c6218b36c1d19d4a2e9eb0ce3606eb486001600160a01b0319918216811783556003805473fefc6baf87cf3684058d62da40ff3a795946ab0693168317905560c0604052608090815260a09190915261007d9160049190610120565b5060058054736b175474e89094c44da98b954eedeac495271d0f6001600160a01b0319918216811790925560068054732a9e8fa175f45b235efddd97d2727741ef4eee639216821790556040805180820190915291825260208201526100e7906007906002610120565b50600880546001600160a01b03191673c02aaa39b223fe8d0a0e5c4f27ead9083c756cc217905534801561011a57600080fd5b5061019a565b828054828255906000526020600020908101928215610175579160200282015b8281111561017557825182546001600160a01b0319166001600160a01b03909116178255602090920191600190910190610140565b50610181929150610185565b5090565b5b808211156101815760008155600101610186565b6103f1806101a96000396000f3fe608060405234801561001057600080fd5b50600436106100625760003560e01c806333a7a357146100675780635265fedc1461008f5780639a6fc8f5146100ba578063a3a99b3c14610104578063c648527f14610117578063feaf968c1461012a575b600080fd5b61007a610075366004610330565b610141565b60405190151581526020015b60405180910390f35b6100a261009d366004610360565b6101c7565b6040516001600160a01b039091168152602001610086565b6100cd6100c8366004610379565b6101f1565b6040805169ffffffffffffffffffff968716815260208101959095528401929092526060830152909116608082015260a001610086565b6100a2610112366004610360565b610254565b61007a610125366004610330565b610264565b600054680100000000000000ee90428060016100cd565b6000806101b183600480548060200260200160405190810160405280929190818152602001828054801561019e57602002820191906000526020600020905b81546001600160a01b03168152600190910190602001808311610180575b50505050506102d290919063ffffffff16565b12156101be5760006101c1565b60015b92915050565b600481815481106101d757600080fd5b6000918252602090912001546001600160a01b0316905081565b6000806000806000808669ffffffffffffffffffff16680100000000000000ed036102215750670f123aed20dfea305b8669ffffffffffffffffffff166000036102405750670f13fa15c8b434bc5b600197909650879550859450849350915050565b600781815481106101d757600080fd5b6000806101b183600780548060200260200160405190810160405280929190818152602001828054801561019e576020028201919060005260206000209081546001600160a01b031681526001909101906020018083116101805750505050506102d290919063ffffffff16565b8151600090815b8181101561032457836001600160a01b03168582815181106102fd576102fd6103a5565b60200260200101516001600160a01b03160361031c5791506101c19050565b6001016102d9565b50600019949350505050565b60006020828403121561034257600080fd5b81356001600160a01b038116811461035957600080fd5b9392505050565b60006020828403121561037257600080fd5b5035919050565b60006020828403121561038b57600080fd5b813569ffffffffffffffffffff8116811461035957600080fd5b634e487b7160e01b600052603260045260246000fdfea26469706673582212201784eb5f923d0531ba9c36b9a0d62a70bc73652a3feec0c8fef088db5713532464736f6c63430008180033","linkReferences":{}},"methodIdentifiers":{"DAI(address)":"c648527f","DAIa(uint256)":"a3a99b3c","USDC(address)":"33a7a357","USDCa(uint256)":"5265fedc","getRoundData(uint80)":"9a6fc8f5","latestRoundData()":"feaf968c"},"id":124}