{"abi":[{"type":"function","name":"getRoundData","inputs":[{"name":"roundId_","type":"uint80","internalType":"uint80"}],"outputs":[{"name":"roundId","type":"uint80","internalType":"uint80"},{"name":"answer","type":"int256","internalType":"int256"},{"name":"startedAt","type":"uint256","internalType":"uint256"},{"name":"updatedAt","type":"uint256","internalType":"uint256"},{"name":"answeredInRound","type":"uint80","internalType":"uint80"}],"stateMutability":"pure"},{"type":"function","name":"latestRoundData","inputs":[],"outputs":[{"name":"roundId","type":"uint80","internalType":"uint80"},{"name":"answer","type":"int256","internalType":"int256"},{"name":"startedAt","type":"uint256","internalType":"uint256"},{"name":"updatedAt","type":"uint256","internalType":"uint256"},{"name":"answeredInRound","type":"uint80","internalType":"uint80"}],"stateMutability":"view"}],"bytecode":{"object":"0x6080604052670f155068304999fb600055685aee9dbdc751e26400600155600280546001600160a01b031990811673a0b86991c6218b36c1d19d4a2e9eb0ce3606eb48179091556003805490911673c02aaa39b223fe8d0a0e5c4f27ead9083c756cc217905534801561007157600080fd5b5061016c806100816000396000f3fe608060405234801561001057600080fd5b50600436106100365760003560e01c80639a6fc8f51461003b578063feaf968c14610089575b600080fd5b61004e610049366004610103565b6100a0565b6040805169ffffffffffffffffffff968716815260208101959095528401929092526060830152909116608082015260a00160405180910390f35b600054680100000000000000ee904280600161004e565b6000806000806000808669ffffffffffffffffffff16680100000000000000ed036100d05750670f123aed20dfea305b8669ffffffffffffffffffff166000036100ef5750670f13fa15c8b434bc5b600197909650879550859450849350915050565b60006020828403121561011557600080fd5b813569ffffffffffffffffffff8116811461012f57600080fd5b939250505056fea2646970667358221220ddc29050e26883dd3ba272f1259f9cb7607077fa88a5c9fe99c5355cdd66e09d64736f6c63430008150033","linkReferences":{}},"methodIdentifiers":{"getRoundData(uint80)":"9a6fc8f5","latestRoundData()":"feaf968c"},"id":137}