{"abi":[{"type":"function","name":"latestRoundData","inputs":[],"outputs":[{"name":"roundId","type":"uint80","internalType":"uint80"},{"name":"answer","type":"int256","internalType":"int256"},{"name":"startedAt","type":"uint256","internalType":"uint256"},{"name":"updatedAt","type":"uint256","internalType":"uint256"},{"name":"answeredInRound","type":"uint80","internalType":"uint80"}],"stateMutability":"view"}],"bytecode":{"object":"0x6080604052670f13fa15c8b434bc600055685aee9dbdc751e26400600155600280546001600160a01b031990811673a0b86991c6218b36c1d19d4a2e9eb0ce3606eb48179091556003805490911673c02aaa39b223fe8d0a0e5c4f27ead9083c756cc2179055348015607057600080fd5b5060988061007f6000396000f3fe6080604052348015600f57600080fd5b506004361060285760003560e01c8063feaf968c14602d575b600080fd5b6040805160028152670fae603f9d8836d860208201524281830181905260608201526001608082015290519081900360a00190f3fea2646970667358221220890266c74cb4e3d9e82e889d00d99550269ed5a05bc52d55f4e8dfa3c33467d564736f6c63430008150033","linkReferences":{}},"methodIdentifiers":{"latestRoundData()":"feaf968c"},"id":137}