{"abi":[{"type":"constructor","inputs":[{"name":"ozDiamond_","type":"address","internalType":"address"}],"stateMutability":"nonpayable"},{"type":"function","name":"DAI","inputs":[{"name":"tokenIn_","type":"address","internalType":"address"}],"outputs":[{"name":"","type":"bool","internalType":"bool"}],"stateMutability":"view"},{"type":"function","name":"DAIa","inputs":[{"name":"","type":"uint256","internalType":"uint256"}],"outputs":[{"name":"","type":"address","internalType":"address"}],"stateMutability":"view"},{"type":"function","name":"USDC","inputs":[{"name":"tokenIn_","type":"address","internalType":"address"}],"outputs":[{"name":"","type":"bool","internalType":"bool"}],"stateMutability":"view"},{"type":"function","name":"USDCa","inputs":[{"name":"","type":"uint256","internalType":"uint256"}],"outputs":[{"name":"","type":"address","internalType":"address"}],"stateMutability":"view"},{"type":"function","name":"exactInputSingle","inputs":[{"name":"params","type":"tuple","internalType":"struct SwapRouterMock.ExactInputSingleParams","components":[{"name":"tokenIn","type":"address","internalType":"address"},{"name":"tokenOut","type":"address","internalType":"address"},{"name":"fee","type":"uint24","internalType":"uint24"},{"name":"recipient","type":"address","internalType":"address"},{"name":"deadline","type":"uint256","internalType":"uint256"},{"name":"amountIn","type":"uint256","internalType":"uint256"},{"name":"amountOutMinimum","type":"uint256","internalType":"uint256"},{"name":"sqrtPriceLimitX96","type":"uint160","internalType":"uint160"}]}],"outputs":[{"name":"","type":"uint256","internalType":"uint256"}],"stateMutability":"payable"}],"bytecode":{"object":"0x670f13fa15c8b434bc600055685aee9dbdc751e264006001556002805473a0b86991c6218b36c1d19d4a2e9eb0ce3606eb486001600160a01b0319918216811783556003805473fefc6baf87cf3684058d62da40ff3a795946ab0693168317905560e060405260a090815260c09190915261007d916004919061014a565b5060058054736b175474e89094c44da98b954eedeac495271d0f6001600160a01b0319918216811790925560068054732a9e8fa175f45b235efddd97d2727741ef4eee639216821790556040805180820190915291825260208201526100e790600790600261014a565b50600880546001600160a01b03191673c02aaa39b223fe8d0a0e5c4f27ead9083c756cc217905534801561011a57600080fd5b50604051610aca380380610aca833981016040819052610139916101c4565b6001600160a01b03166080526101f4565b82805482825590600052602060002090810192821561019f579160200282015b8281111561019f57825182546001600160a01b0319166001600160a01b0390911617825560209092019160019091019061016a565b506101ab9291506101af565b5090565b5b808211156101ab57600081556001016101b0565b6000602082840312156101d657600080fd5b81516001600160a01b03811681146101ed57600080fd5b9392505050565b6080516108ad61021d6000396000818161023b01528181610300015261058d01526108ad6000f3fe60806040526004361061004a5760003560e01c806333a7a3571461004f578063414bf389146100845780635265fedc146100a5578063a3a99b3c146100dd578063c648527f146100fd575b600080fd5b34801561005b57600080fd5b5061006f61006a36600461075c565b61011d565b60405190151581526020015b60405180910390f35b61009761009236600461078c565b6101a3565b60405190815260200161007b565b3480156100b157600080fd5b506100c56100c03660046107a5565b61062e565b6040516001600160a01b03909116815260200161007b565b3480156100e957600080fd5b506100c56100f83660046107a5565b610658565b34801561010957600080fd5b5061006f61011836600461075c565b610668565b60008061018d83600480548060200260200160405190810160405280929190818152602001828054801561017a57602002820191906000526020600020905b81546001600160a01b0316815260019091019060200180831161015c575b50505050506106d690919063ffffffff16565b121561019a57600061019d565b60015b92915050565b600080806101b761006a602086018661075c565b6101c25760016101c9565b64e8d4a510005b64ffffffffff16905060006101e761006a604087016020880161075c565b6101f25760016101f9565b64e8d4a510005b64ffffffffff16905061021261006a602087018761075c565b806102285750610228610118602087018761075c565b156102d3576102d0670de0b6b3a76400007f00000000000000000000000000000000000000000000000000000000000000006001600160a01b0316636260f55b6040518163ffffffff1660e01b8152600401602060405180830381865afa158015610297573d6000803e3d6000fd5b505050506040513d601f19601f820116820180604052508101906102bb91906107be565b6102c98560a08a01356107ed565b919061073e565b92505b6008546001600160a01b03166102ec602087018761075c565b6001600160a01b03160361044957806103947f00000000000000000000000000000000000000000000000000000000000000006001600160a01b0316636260f55b6040518163ffffffff1660e01b8152600401602060405180830381865afa15801561035c573d6000803e3d6000fd5b505050506040513d601f19601f8201168201806040525081019061038091906107be565b60a088013590670de0b6b3a764000061073e565b61039e9190610804565b92506103b0604086016020870161075c565b6001600160a01b031663a9059cbb6103ce608088016060890161075c565b6040516001600160e01b031960e084901b1681526001600160a01b039091166004820152602481018690526044016020604051808303816000875af115801561041b573d6000803e3d6000fd5b505050506040513d601f19601f8201168201806040525081019061043f9190610826565b5091949350505050565b610456602086018661075c565b6040516323b872dd60e01b81523360048201526001602482015260a087013560448201526001600160a01b0391909116906323b872dd906064016020604051808303816000875af11580156104af573d6000803e3d6000fd5b505050506040513d601f19601f820116820180604052508101906104d39190610826565b50670de0b6b3a76400006104ed604087016020880161075c565b6040516370a0823160e01b81523060048201526001600160a01b0391909116906370a0823190602401602060405180830381865afa158015610533573d6000803e3d6000fd5b505050506040513d601f19601f8201168201806040525081019061055791906107be565b6105619190610804565b1561060d57610576604086016020870161075c565b60405163a9059cbb60e01b81526001600160a01b037f00000000000000000000000000000000000000000000000000000000000000008116600483015260248201869052919091169063a9059cbb906044016020604051808303816000875af11580156105e7573d6000803e3d6000fd5b505050506040513d601f19601f8201168201806040525081019061060b9190610826565b505b8460a001356301f78a40036106255750909392505050565b50909392505050565b6004818154811061063e57600080fd5b6000918252602090912001546001600160a01b0316905081565b6007818154811061063e57600080fd5b60008061018d83600780548060200260200160405190810160405280929190818152602001828054801561017a576020028201919060005260206000209081546001600160a01b0316815260019091019060200180831161015c5750505050506106d690919063ffffffff16565b8151600090815b8181101561073257836001600160a01b031685828151811061070157610701610848565b60200260200101516001600160a01b03160361072057915061019d9050565b8061072a8161085e565b9150506106dd565b50600019949350505050565b600082600019048411830215820261075557600080fd5b5091020490565b60006020828403121561076e57600080fd5b81356001600160a01b038116811461078557600080fd5b9392505050565b6000610100828403121561079f57600080fd5b50919050565b6000602082840312156107b757600080fd5b5035919050565b6000602082840312156107d057600080fd5b5051919050565b634e487b7160e01b600052601160045260246000fd5b808202811582820484141761019d5761019d6107d7565b60008261082157634e487b7160e01b600052601260045260246000fd5b500490565b60006020828403121561083857600080fd5b8151801515811461078557600080fd5b634e487b7160e01b600052603260045260246000fd5b600060018201610870576108706107d7565b506001019056fea2646970667358221220fd7adb350f05ff0d6a861af2c00c788586a0566bd7c41d6f332d043eeb67d4b664736f6c63430008150033","linkReferences":{}},"methodIdentifiers":{"DAI(address)":"c648527f","DAIa(uint256)":"a3a99b3c","USDC(address)":"33a7a357","USDCa(uint256)":"5265fedc","exactInputSingle((address,address,uint24,address,uint256,uint256,uint256,uint160))":"414bf389"},"id":125}