{"abi":[{"type":"constructor","inputs":[{"name":"ozDiamond_","type":"address","internalType":"address"}],"stateMutability":"nonpayable"},{"type":"function","name":"DAI","inputs":[{"name":"tokenIn_","type":"address","internalType":"address"}],"outputs":[{"name":"","type":"bool","internalType":"bool"}],"stateMutability":"view"},{"type":"function","name":"DAIa","inputs":[{"name":"","type":"uint256","internalType":"uint256"}],"outputs":[{"name":"","type":"address","internalType":"address"}],"stateMutability":"view"},{"type":"function","name":"USDC","inputs":[{"name":"tokenIn_","type":"address","internalType":"address"}],"outputs":[{"name":"","type":"bool","internalType":"bool"}],"stateMutability":"view"},{"type":"function","name":"USDCa","inputs":[{"name":"","type":"uint256","internalType":"uint256"}],"outputs":[{"name":"","type":"address","internalType":"address"}],"stateMutability":"view"},{"type":"function","name":"exactInputSingle","inputs":[{"name":"params","type":"tuple","internalType":"struct SwapRouterMock.ExactInputSingleParams","components":[{"name":"tokenIn","type":"address","internalType":"address"},{"name":"tokenOut","type":"address","internalType":"address"},{"name":"fee","type":"uint24","internalType":"uint24"},{"name":"recipient","type":"address","internalType":"address"},{"name":"deadline","type":"uint256","internalType":"uint256"},{"name":"amountIn","type":"uint256","internalType":"uint256"},{"name":"amountOutMinimum","type":"uint256","internalType":"uint256"},{"name":"sqrtPriceLimitX96","type":"uint160","internalType":"uint160"}]}],"outputs":[{"name":"","type":"uint256","internalType":"uint256"}],"stateMutability":"payable"}],"bytecode":{"object":"0x670f13fa15c8b434bc5f55685aee9dbdc751e264006001556002805473a0b86991c6218b36c1d19d4a2e9eb0ce3606eb486001600160a01b0319918216811783556003805473fefc6baf87cf3684058d62da40ff3a795946ab0693168317905560e060405260a090815260c09190915261007c9160049190610148565b5060058054736b175474e89094c44da98b954eedeac495271d0f6001600160a01b0319918216811790925560068054732a9e8fa175f45b235efddd97d2727741ef4eee639216821790556040805180820190915291825260208201526100e6906007906002610148565b50600880546001600160a01b03191673c02aaa39b223fe8d0a0e5c4f27ead9083c756cc2179055348015610118575f80fd5b50604051610a5b380380610a5b833981016040819052610137916101bf565b6001600160a01b03166080526101ec565b828054828255905f5260205f2090810192821561019b579160200282015b8281111561019b57825182546001600160a01b0319166001600160a01b03909116178255602090920191600190910190610166565b506101a79291506101ab565b5090565b5b808211156101a7575f81556001016101ac565b5f602082840312156101cf575f80fd5b81516001600160a01b03811681146101e5575f80fd5b9392505050565b6080516108496102125f395f818161022f015281816102f2015261057501526108495ff3fe608060405260043610610049575f3560e01c806333a7a3571461004d578063414bf389146100815780635265fedc146100a2578063a3a99b3c146100d9578063c648527f146100f8575b5f80fd5b348015610058575f80fd5b5061006c61006736600461072c565b610117565b60405190151581526020015b60405180910390f35b61009461008f366004610759565b610199565b604051908152602001610078565b3480156100ad575f80fd5b506100c16100bc366004610770565b610613565b6040516001600160a01b039091168152602001610078565b3480156100e4575f80fd5b506100c16100f3366004610770565b61063b565b348015610103575f80fd5b5061006c61011236600461072c565b61064a565b5f8061018483600480548060200260200160405190810160405280929190818152602001828054801561017157602002820191905f5260205f20905b81546001600160a01b03168152600190910190602001808311610153575b50505050506106b590919063ffffffff16565b1215610190575f610193565b60015b92915050565b5f80806101ac610067602086018661072c565b6101b75760016101be565b64e8d4a510005b64ffffffffff1690505f6101db610067604087016020880161072c565b6101e65760016101ed565b64e8d4a510005b64ffffffffff169050610206610067602087018761072c565b8061021c575061021c610112602087018761072c565b156102c5576102c2670de0b6b3a76400007f00000000000000000000000000000000000000000000000000000000000000006001600160a01b0316636260f55b6040518163ffffffff1660e01b8152600401602060405180830381865afa158015610289573d5f803e3d5ffd5b505050506040513d601f19601f820116820180604052508101906102ad9190610787565b6102bb8560a08a013561079e565b9190610711565b92505b6008546001600160a01b03166102de602087018761072c565b6001600160a01b03160361043657806103847f00000000000000000000000000000000000000000000000000000000000000006001600160a01b0316636260f55b6040518163ffffffff1660e01b8152600401602060405180830381865afa15801561034c573d5f803e3d5ffd5b505050506040513d601f19601f820116820180604052508101906103709190610787565b60a088013590670de0b6b3a7640000610711565b61038e91906107c1565b92506103a0604086016020870161072c565b6001600160a01b031663a9059cbb6103be608088016060890161072c565b6040516001600160e01b031960e084901b1681526001600160a01b039091166004820152602481018690526044016020604051808303815f875af1158015610408573d5f803e3d5ffd5b505050506040513d601f19601f8201168201806040525081019061042c91906107e0565b5091949350505050565b610443602086018661072c565b6040516323b872dd60e01b81523360048201526001602482015260a087013560448201526001600160a01b0391909116906323b872dd906064016020604051808303815f875af1158015610499573d5f803e3d5ffd5b505050506040513d601f19601f820116820180604052508101906104bd91906107e0565b50670de0b6b3a76400006104d7604087016020880161072c565b6040516370a0823160e01b81523060048201526001600160a01b0391909116906370a0823190602401602060405180830381865afa15801561051b573d5f803e3d5ffd5b505050506040513d601f19601f8201168201806040525081019061053f9190610787565b61054991906107c1565b156105f25761055e604086016020870161072c565b60405163a9059cbb60e01b81526001600160a01b037f00000000000000000000000000000000000000000000000000000000000000008116600483015260248201869052919091169063a9059cbb906044016020604051808303815f875af11580156105cc573d5f803e3d5ffd5b505050506040513d601f19601f820116820180604052508101906105f091906107e0565b505b8460a001356301f78a400361060a5750909392505050565b50909392505050565b60048181548110610622575f80fd5b5f918252602090912001546001600160a01b0316905081565b60078181548110610622575f80fd5b5f8061018483600780548060200260200160405190810160405280929190818152602001828054801561017157602002820191905f5260205f209081546001600160a01b031681526001909101906020018083116101535750505050506106b590919063ffffffff16565b81515f90815b8181101561070657836001600160a01b03168582815181106106df576106df6107ff565b60200260200101516001600160a01b0316036106fe5791506101939050565b6001016106bb565b505f19949350505050565b5f825f190484118302158202610725575f80fd5b5091020490565b5f6020828403121561073c575f80fd5b81356001600160a01b0381168114610752575f80fd5b9392505050565b5f610100828403121561076a575f80fd5b50919050565b5f60208284031215610780575f80fd5b5035919050565b5f60208284031215610797575f80fd5b5051919050565b808202811582820484141761019357634e487b7160e01b5f52601160045260245ffd5b5f826107db57634e487b7160e01b5f52601260045260245ffd5b500490565b5f602082840312156107f0575f80fd5b81518015158114610752575f80fd5b634e487b7160e01b5f52603260045260245ffdfea26469706673582212206bc1ce10623a0c33ca13e48f6934d7de74759f8775b7cf8d60c5cbdedc0156a364736f6c63430008180033","linkReferences":{}},"methodIdentifiers":{"DAI(address)":"c648527f","DAIa(uint256)":"a3a99b3c","USDC(address)":"33a7a357","USDCa(uint256)":"5265fedc","exactInputSingle((address,address,uint24,address,uint256,uint256,uint256,uint160))":"414bf389"},"id":124}