{"abi":[{"type":"function","name":"exactInputSingle","inputs":[{"name":"params","type":"tuple","internalType":"struct SwapRouterMock.ExactInputSingleParams","components":[{"name":"tokenIn","type":"address","internalType":"address"},{"name":"tokenOut","type":"address","internalType":"address"},{"name":"fee","type":"uint24","internalType":"uint24"},{"name":"recipient","type":"address","internalType":"address"},{"name":"deadline","type":"uint256","internalType":"uint256"},{"name":"amountIn","type":"uint256","internalType":"uint256"},{"name":"amountOutMinimum","type":"uint256","internalType":"uint256"},{"name":"sqrtPriceLimitX96","type":"uint160","internalType":"uint160"}]}],"outputs":[{"name":"amountOut","type":"uint256","internalType":"uint256"}],"stateMutability":"payable"},{"type":"event","name":"DeadVar","inputs":[{"name":"params","type":"tuple","indexed":false,"internalType":"struct SwapRouterMock.ExactInputSingleParams","components":[{"name":"tokenIn","type":"address","internalType":"address"},{"name":"tokenOut","type":"address","internalType":"address"},{"name":"fee","type":"uint24","internalType":"uint24"},{"name":"recipient","type":"address","internalType":"address"},{"name":"deadline","type":"uint256","internalType":"uint256"},{"name":"amountIn","type":"uint256","internalType":"uint256"},{"name":"amountOutMinimum","type":"uint256","internalType":"uint256"},{"name":"sqrtPriceLimitX96","type":"uint160","internalType":"uint160"}]}],"anonymous":false}],"bytecode":{"object":"0x608060405234801561001057600080fd5b50610356806100206000396000f3fe60806040526004361061001e5760003560e01c8063414bf38914610023575b600080fd5b6100366100313660046101eb565b610048565b60405190815260200160405180910390f35b60007f4fbceb1be2e6adcb66e707d7f35362717837f2fc523144f47f4ece950478813882604051610079919061022c565b60405180910390a17392a6649fdcc044da968d94202465578a9371c7b16645dafb849719896100ab60208501856102da565b6040516323b872dd60e01b81523360048201526001602482015260a086013560448201526001600160a01b0391909116906323b872dd906064016020604051808303816000875af1158015610104573d6000803e3d6000fd5b505050506040513d601f19601f8201168201806040525081019061012891906102fe565b5061013960408501602086016102da565b60405163a9059cbb60e01b81526001600160a01b03848116600483015260248201849052919091169063a9059cbb906044016020604051808303816000875af115801561018a573d6000803e3d6000fd5b505050506040513d601f19601f820116820180604052508101906101ae91906102fe565b508360a001356301f78a40036101c5579392505050565b8360a001356645ccadc178e61a036101e457506301f6a2619392505050565b5050919050565b600061010082840312156101fe57600080fd5b50919050565b6001600160a01b038116811461021957600080fd5b50565b803561022781610204565b919050565b6101008101823561023c81610204565b6001600160a01b03908116835260208401359061025882610204565b166020830152604083013562ffffff8116811461027457600080fd5b62ffffff16604083015261028a6060840161021c565b6001600160a01b0381166060840152506080830135608083015260a083013560a083015260c083013560c08301526102c460e0840161021c565b6001600160a01b03811660e08401525092915050565b6000602082840312156102ec57600080fd5b81356102f781610204565b9392505050565b60006020828403121561031057600080fd5b815180151581146102f757600080fdfea2646970667358221220cc70438b0127ce64b2fc13a5006c97cffe8e56827cc63e9465375f385e3989ea64736f6c63430008150033","linkReferences":{}},"methodIdentifiers":{"exactInputSingle((address,address,uint24,address,uint256,uint256,uint256,uint160))":"414bf389"},"id":137}