{"abi":[{"type":"function","name":"exactInputSingle","inputs":[{"name":"params","type":"tuple","internalType":"struct SwapRouterMock.ExactInputSingleParams","components":[{"name":"tokenIn","type":"address","internalType":"address"},{"name":"tokenOut","type":"address","internalType":"address"},{"name":"fee","type":"uint24","internalType":"uint24"},{"name":"recipient","type":"address","internalType":"address"},{"name":"deadline","type":"uint256","internalType":"uint256"},{"name":"amountIn","type":"uint256","internalType":"uint256"},{"name":"amountOutMinimum","type":"uint256","internalType":"uint256"},{"name":"sqrtPriceLimitX96","type":"uint160","internalType":"uint160"}]}],"outputs":[{"name":"","type":"uint256","internalType":"uint256"}],"stateMutability":"payable"}],"bytecode":{"object":"0x6080604052670f13fa15c8b434bc600055685aee9dbdc751e26400600155600280546001600160a01b031990811673a0b86991c6218b36c1d19d4a2e9eb0ce3606eb48179091556003805490911673c02aaa39b223fe8d0a0e5c4f27ead9083c756cc217905534801561007157600080fd5b506108cc806100816000396000f3fe60806040526004361061001e5760003560e01c8063414bf38914610023575b600080fd5b6100366100313660046106fb565b610048565b60405190815260200160405180910390f35b6002546000907392a6649fdcc044da968d94202465578a9371c7b19082906001600160a01b031661007c6020860186610714565b6001600160a01b03160361013b57610112670de0b6b3a7640000836001600160a01b0316636260f55b6040518163ffffffff1660e01b8152600401602060405180830381865afa1580156100d4573d6000803e3d6000fd5b505050506040513d601f19601f820116820180604052508101906100f8919061073d565b61010b60a088013564e8d4a51000610756565b919061062d565b9050610136604051806060016040528060358152602001610841603591398261064b565b6103b3565b6003546001600160a01b03166101546020860186610714565b6001600160a01b0316036103b35761017a60405180602001604052806000815250610694565b6101b66040518060400160405280601681526020017503830b930b6b99730b6b7bab73a24b710151515151d160551b8152508560a0013561064b565b6102476040518060400160405280600e81526020016d027ad1722aa242faaa9a214149d160951b815250836001600160a01b0316636260f55b6040518163ffffffff1660e01b8152600401602060405180830381865afa15801561021e573d6000803e3d6000fd5b505050506040513d601f19601f82011682018060405250810190610242919061073d565b61064b565b64e8d4a510006102c6836001600160a01b0316636260f55b6040518163ffffffff1660e01b8152600401602060405180830381865afa15801561028e573d6000803e3d6000fd5b505050506040513d601f19601f820116820180604052508101906102b2919061073d565b60a087013590670de0b6b3a764000061062d565b6102d09190610781565b90506102f4604051806060016040528060218152602001610876602191398261064b565b61030c60405180602001604052806000815250610694565b61031c6040850160208601610714565b6001600160a01b031663a9059cbb61033a6080870160608801610714565b6040516001600160e01b031960e084901b1681526001600160a01b039091166004820152602481018490526044016020604051808303816000875af1158015610387573d6000803e3d6000fd5b505050506040513d601f19601f820116820180604052508101906103ab91906107a3565b509392505050565b8360a00135664895e99d2a95f90361046c57506301f6a2616103db6040850160208601610714565b6001600160a01b031663a9059cbb6103f96080870160608801610714565b6040516001600160e01b031960e084901b1681526001600160a01b039091166004820152602481018490526044016020604051808303816000875af1158015610446573d6000803e3d6000fd5b505050506040513d601f19601f8201168201806040525081019061046a91906107a3565b505b6104796020850185610714565b6040516323b872dd60e01b81523360048201526001602482015260a086013560448201526001600160a01b0391909116906323b872dd906064016020604051808303816000875af11580156104d2573d6000803e3d6000fd5b505050506040513d601f19601f820116820180604052508101906104f691906107a3565b50670de0b6b3a76400006105106040860160208701610714565b6040516370a0823160e01b81523060048201526001600160a01b0391909116906370a0823190602401602060405180830381865afa158015610556573d6000803e3d6000fd5b505050506040513d601f19601f8201168201806040525081019061057a919061073d565b6105849190610781565b15610610576105996040850160208601610714565b60405163a9059cbb60e01b81526001600160a01b03848116600483015260248201849052919091169063a9059cbb906044016020604051808303816000875af11580156105ea573d6000803e3d6000fd5b505050506040513d601f19601f8201168201806040525081019061060e91906107a3565b505b8360a001356301f78a4003610626579392505050565b9392505050565b600082600019048411830215820261064457600080fd5b5091020490565b610690828260405160240161066192919061080b565b60408051601f198184030181529190526020810180516001600160e01b03166309710a9d60e41b1790526106da565b5050565b6106d7816040516024016106a8919061082d565b60408051601f198184030181529190526020810180516001600160e01b031663104c13eb60e21b1790526106da565b50565b80516a636f6e736f6c652e6c6f67602083016000808483855afa5050505050565b6000610100828403121561070e57600080fd5b50919050565b60006020828403121561072657600080fd5b81356001600160a01b038116811461062657600080fd5b60006020828403121561074f57600080fd5b5051919050565b808202811582820484141761077b57634e487b7160e01b600052601160045260246000fd5b92915050565b60008261079e57634e487b7160e01b600052601260045260246000fd5b500490565b6000602082840312156107b557600080fd5b8151801515811461062657600080fd5b6000815180845260005b818110156107eb576020818501810151868301820152016107cf565b506000602082860101526020601f19601f83011685010191505092915050565b60408152600061081e60408301856107c5565b90508260208301529392505050565b60208152600061062660208301846107c556fe616d6f756e744f757420696e20726f75746572206d6f636b20285745544829202d2031393637333239313332333435373031323a20616d6f756e744f757420696e20726f75746572206d6f636b202855534443293a20a2646970667358221220450e7a15329aff354abdb79e014fe3dfdc10ff0690d5f7ae921bc46c0d044aa164736f6c63430008150033","linkReferences":{}},"methodIdentifiers":{"exactInputSingle((address,address,uint24,address,uint256,uint256,uint256,uint160))":"414bf389"},"id":137}