{"abi":[{"type":"constructor","inputs":[{"name":"ozDiamond_","type":"address","internalType":"address"}],"stateMutability":"nonpayable"},{"type":"function","name":"USDC","inputs":[{"name":"tokenIn_","type":"address","internalType":"address"}],"outputs":[{"name":"","type":"bool","internalType":"bool"}],"stateMutability":"view"},{"type":"function","name":"USDCa","inputs":[{"name":"","type":"uint256","internalType":"uint256"}],"outputs":[{"name":"","type":"address","internalType":"address"}],"stateMutability":"view"},{"type":"function","name":"exactInputSingle","inputs":[{"name":"params","type":"tuple","internalType":"struct SwapRouterMock.ExactInputSingleParams","components":[{"name":"tokenIn","type":"address","internalType":"address"},{"name":"tokenOut","type":"address","internalType":"address"},{"name":"fee","type":"uint24","internalType":"uint24"},{"name":"recipient","type":"address","internalType":"address"},{"name":"deadline","type":"uint256","internalType":"uint256"},{"name":"amountIn","type":"uint256","internalType":"uint256"},{"name":"amountOutMinimum","type":"uint256","internalType":"uint256"},{"name":"sqrtPriceLimitX96","type":"uint160","internalType":"uint160"}]}],"outputs":[{"name":"","type":"uint256","internalType":"uint256"}],"stateMutability":"payable"}],"bytecode":{"object":"0x670f13fa15c8b434bc600055685aee9dbdc751e264006001556002805473a0b86991c6218b36c1d19d4a2e9eb0ce3606eb486001600160a01b0319918216811783556003805473fefc6baf87cf3684058d62da40ff3a795946ab0693168317905560e060405260a090815260c09190915261007d9160049190610102565b50600580546001600160a01b031990811673c02aaa39b223fe8d0a0e5c4f27ead9083c756cc21790915560068054909116736b175474e89094c44da98b954eedeac495271d0f1790553480156100d257600080fd5b50604051610e3c380380610e3c8339810160408190526100f19161017c565b6001600160a01b03166080526101ac565b828054828255906000526020600020908101928215610157579160200282015b8281111561015757825182546001600160a01b0319166001600160a01b03909116178255602090920191600190910190610122565b50610163929150610167565b5090565b5b808211156101635760008155600101610168565b60006020828403121561018e57600080fd5b81516001600160a01b03811681146101a557600080fd5b9392505050565b608051610c596101e3600039600081816101f60152818161030a0152818161040d015281816104e401526108310152610c596000f3fe6080604052600436106100345760003560e01c806333a7a35714610039578063414bf3891461006e5780635265fedc1461008f575b600080fd5b34801561004557600080fd5b50610059610054366004610a76565b6100c7565b60405190151581526020015b60405180910390f35b61008161007c366004610aa6565b61014d565b604051908152602001610065565b34801561009b57600080fd5b506100af6100aa366004610abf565b6108d3565b6040516001600160a01b039091168152602001610065565b60008061013783600480548060200260200160405190810160405280929190818152602001828054801561012457602002820191906000526020600020905b81546001600160a01b03168152600190910190602001808311610106575b50505050506108fd90919063ffffffff16565b1215610144576000610147565b60015b92915050565b600080806101616100546020860186610a76565b61016c576001610173565b64e8d4a510005b64ffffffffff169050600061018e6100546020870187610a76565b6101995760016101a0565b64e8d4a510005b64ffffffffff1690506101b96100546020870187610a76565b806101e357506006546001600160a01b03166101d86020870187610a76565b6001600160a01b0316145b1561028e5761028b670de0b6b3a76400007f00000000000000000000000000000000000000000000000000000000000000006001600160a01b0316636260f55b6040518163ffffffff1660e01b8152600401602060405180830381865afa158015610252573d6000803e3d6000fd5b505050506040513d601f19601f820116820180604052508101906102769190610ad8565b6102848560a08a0135610b07565b9190610965565b92505b6005546001600160a01b03166102a76020870187610a76565b6001600160a01b0316036106e3576102bf600c610983565b6103046040518060400160405280601181526020017003830b930b6b9973a37b5b2b727baba1d1607d1b8152508660200160208101906102ff9190610a76565b6109cb565b8061039e7f00000000000000000000000000000000000000000000000000000000000000006001600160a01b0316636260f55b6040518163ffffffff1660e01b8152600401602060405180830381865afa158015610366573d6000803e3d6000fd5b505050506040513d601f19601f8201168201806040525081019061038a9190610ad8565b60a088013590670de0b6b3a7640000610965565b6103a89190610b1e565b92506103e16040518060400160405280601181526020017003830b930b6b99730b6b7bab73a24b71d1607d1b8152508660a00135610a14565b6104926040518060400160405280600e81526020016d027ad1722aa242faaa9a214149d160951b8152507f00000000000000000000000000000000000000000000000000000000000000006001600160a01b0316636260f55b6040518163ffffffff1660e01b8152600401602060405180830381865afa158015610469573d6000803e3d6000fd5b505050506040513d601f19601f8201168201806040525081019061048d9190610ad8565b610a14565b6104bf6040518060400160405280600b81526020016a03232b1b4b6b0b639991d160ad1b81525082610a14565b61057860405180604001604052806004815260200163034b99d160e51b81525061048d7f00000000000000000000000000000000000000000000000000000000000000006001600160a01b0316636260f55b6040518163ffffffff1660e01b8152600401602060405180830381865afa158015610540573d6000803e3d6000fd5b505050506040513d601f19601f820116820180604052508101906105649190610ad8565b60a089013590670de0b6b3a7640000610965565b6105b76040518060400160405280601a81526020017f616d6f756e744f757420696e206d6f636b20726f757465723a2000000000000081525084610a14565b61063a6040518060400160405280600e81526020016d03130b6103a37b5b2b727baba1d160951b8152508660200160208101906105f49190610a76565b6040516370a0823160e01b81523060048201526001600160a01b0391909116906370a0823190602401602060405180830381865afa158015610469573d6000803e3d6000fd5b61064a6040860160208701610a76565b6001600160a01b031663a9059cbb6106686080880160608901610a76565b6040516001600160e01b031960e084901b1681526001600160a01b039091166004820152602481018690526044016020604051808303816000875af11580156106b5573d6000803e3d6000fd5b505050506040513d601f19601f820116820180604052508101906106d99190610b40565b5091949350505050565b6106f06020860186610a76565b6040516323b872dd60e01b81523360048201526001602482015260a087013560448201526001600160a01b0391909116906323b872dd906064016020604051808303816000875af1158015610749573d6000803e3d6000fd5b505050506040513d601f19601f8201168201806040525081019061076d9190610b40565b50670de0b6b3a76400006107876040870160208801610a76565b6040516370a0823160e01b81523060048201526001600160a01b0391909116906370a0823190602401602060405180830381865afa1580156107cd573d6000803e3d6000fd5b505050506040513d601f19601f820116820180604052508101906107f19190610ad8565b6107fb9190610b1e565b156108b15761080a600d610983565b61081a6040860160208701610a76565b60405163a9059cbb60e01b81526001600160a01b037f00000000000000000000000000000000000000000000000000000000000000008116600483015260248201869052919091169063a9059cbb906044016020604051808303816000875af115801561088b573d6000803e3d6000fd5b505050506040513d601f19601f820116820180604052508101906108af9190610b40565b505b8460a001356301f78a40036108ca576108ca600e610983565b50909392505050565b600481815481106108e357600080fd5b6000918252602090912001546001600160a01b0316905081565b8151600090815b8181101561095957836001600160a01b031685828151811061092857610928610b62565b60200260200101516001600160a01b0316036109475791506101479050565b8061095181610b78565b915050610904565b50600019949350505050565b600082600019048411830215820261097c57600080fd5b5091020490565b6109c88160405160240161099991815260200190565b60408051601f198184030181529190526020810180516001600160e01b031663f5b1bba960e01b179052610a55565b50565b610a1082826040516024016109e1929190610bd7565b60408051601f198184030181529190526020810180516001600160e01b031663319af33360e01b179052610a55565b5050565b610a108282604051602401610a2a929190610c01565b60408051601f198184030181529190526020810180516001600160e01b03166309710a9d60e41b1790525b80516a636f6e736f6c652e6c6f67602083016000808483855afa5050505050565b600060208284031215610a8857600080fd5b81356001600160a01b0381168114610a9f57600080fd5b9392505050565b60006101008284031215610ab957600080fd5b50919050565b600060208284031215610ad157600080fd5b5035919050565b600060208284031215610aea57600080fd5b5051919050565b634e487b7160e01b600052601160045260246000fd5b808202811582820484141761014757610147610af1565b600082610b3b57634e487b7160e01b600052601260045260246000fd5b500490565b600060208284031215610b5257600080fd5b81518015158114610a9f57600080fd5b634e487b7160e01b600052603260045260246000fd5b600060018201610b8a57610b8a610af1565b5060010190565b6000815180845260005b81811015610bb757602081850181015186830182015201610b9b565b506000602082860101526020601f19601f83011685010191505092915050565b604081526000610bea6040830185610b91565b905060018060a01b03831660208301529392505050565b604081526000610c146040830185610b91565b9050826020830152939250505056fea2646970667358221220e269493ddcad704b79a3d78d328d7c9e47b341d2fed12e43d6d6731c8322f50264736f6c63430008150033","linkReferences":{}},"methodIdentifiers":{"USDC(address)":"33a7a357","USDCa(uint256)":"5265fedc","exactInputSingle((address,address,uint24,address,uint256,uint256,uint256,uint160))":"414bf389"},"id":129}