{"abi":[{"type":"constructor","inputs":[{"name":"ozDiamond_","type":"address","internalType":"address"}],"stateMutability":"nonpayable"},{"type":"function","name":"USDC","inputs":[{"name":"tokenIn_","type":"address","internalType":"address"}],"outputs":[{"name":"","type":"bool","internalType":"bool"}],"stateMutability":"view"},{"type":"function","name":"USDCa","inputs":[{"name":"","type":"uint256","internalType":"uint256"}],"outputs":[{"name":"","type":"address","internalType":"address"}],"stateMutability":"view"},{"type":"function","name":"exactInputSingle","inputs":[{"name":"params","type":"tuple","internalType":"struct SwapRouterMock.ExactInputSingleParams","components":[{"name":"tokenIn","type":"address","internalType":"address"},{"name":"tokenOut","type":"address","internalType":"address"},{"name":"fee","type":"uint24","internalType":"uint24"},{"name":"recipient","type":"address","internalType":"address"},{"name":"deadline","type":"uint256","internalType":"uint256"},{"name":"amountIn","type":"uint256","internalType":"uint256"},{"name":"amountOutMinimum","type":"uint256","internalType":"uint256"},{"name":"sqrtPriceLimitX96","type":"uint160","internalType":"uint160"}]}],"outputs":[{"name":"","type":"uint256","internalType":"uint256"}],"stateMutability":"payable"}],"bytecode":{"object":"0x670f13fa15c8b434bc600055685aee9dbdc751e264006001556002805473a0b86991c6218b36c1d19d4a2e9eb0ce3606eb486001600160a01b0319918216811783556003805473fefc6baf87cf3684058d62da40ff3a795946ab0693168317905560e060405260a090815260c09190915261007d9160049190610102565b50600580546001600160a01b031990811673c02aaa39b223fe8d0a0e5c4f27ead9083c756cc21790915560068054909116736b175474e89094c44da98b954eedeac495271d0f1790553480156100d257600080fd5b50604051610b34380380610b348339810160408190526100f19161017c565b6001600160a01b03166080526101ac565b828054828255906000526020600020908101928215610157579160200282015b8281111561015757825182546001600160a01b0319166001600160a01b03909116178255602090920191600190910190610122565b50610163929150610167565b5090565b5b808211156101635760008155600101610168565b60006020828403121561018e57600080fd5b81516001600160a01b03811681146101a557600080fd5b9392505050565b60805161095f6101d5600039600081816102440152818161031301526105aa015261095f6000f3fe6080604052600436106100345760003560e01c806333a7a35714610039578063414bf3891461006e5780635265fedc1461008f575b600080fd5b34801561004557600080fd5b506100596100543660046107ae565b6100c7565b60405190151581526020015b60405180910390f35b61008161007c3660046107de565b61014d565b604051908152602001610065565b34801561009b57600080fd5b506100af6100aa3660046107f7565b61064c565b6040516001600160a01b039091168152602001610065565b60008061013783600480548060200260200160405190810160405280929190818152602001828054801561012457602002820191906000526020600020905b81546001600160a01b03168152600190910190602001808311610106575b505050505061067690919063ffffffff16565b1215610144576000610147565b60015b92915050565b6000808061016161005460208601866107ae565b61016c576001610173565b64e8d4a510005b64ffffffffff169050600061018e61005460208701876107ae565b6101995760016101a0565b64e8d4a510005b64ffffffffff1690506101ed6040518060400160405280601081526020016f03830b930b6b9973a37b5b2b724b71d160851b8152508660000160208101906101e891906107ae565b6106de565b6101fd61005460208701876107ae565b8061022757506006546001600160a01b031661021c60208701876107ae565b6001600160a01b0316145b156102dc57610236600b610727565b6102d9670de0b6b3a76400007f00000000000000000000000000000000000000000000000000000000000000006001600160a01b0316636260f55b6040518163ffffffff1660e01b8152600401602060405180830381865afa1580156102a0573d6000803e3d6000fd5b505050506040513d601f19601f820116820180604052508101906102c49190610810565b6102d28560a08a013561083f565b919061076f565b92505b6005546001600160a01b03166102f560208701876107ae565b6001600160a01b03160361045c5761030d600c610727565b806103a77f00000000000000000000000000000000000000000000000000000000000000006001600160a01b0316636260f55b6040518163ffffffff1660e01b8152600401602060405180830381865afa15801561036f573d6000803e3d6000fd5b505050506040513d601f19601f820116820180604052508101906103939190610810565b60a088013590670de0b6b3a764000061076f565b6103b19190610856565b92506103c360408601602087016107ae565b6001600160a01b031663a9059cbb6103e160808801606089016107ae565b6040516001600160e01b031960e084901b1681526001600160a01b039091166004820152602481018690526044016020604051808303816000875af115801561042e573d6000803e3d6000fd5b505050506040513d601f19601f820116820180604052508101906104529190610878565b5091949350505050565b61046960208601866107ae565b6040516323b872dd60e01b81523360048201526001602482015260a087013560448201526001600160a01b0391909116906323b872dd906064016020604051808303816000875af11580156104c2573d6000803e3d6000fd5b505050506040513d601f19601f820116820180604052508101906104e69190610878565b50670de0b6b3a764000061050060408701602088016107ae565b6040516370a0823160e01b81523060048201526001600160a01b0391909116906370a0823190602401602060405180830381865afa158015610546573d6000803e3d6000fd5b505050506040513d601f19601f8201168201806040525081019061056a9190610810565b6105749190610856565b1561062a57610583600d610727565b61059360408601602087016107ae565b60405163a9059cbb60e01b81526001600160a01b037f00000000000000000000000000000000000000000000000000000000000000008116600483015260248201869052919091169063a9059cbb906044016020604051808303816000875af1158015610604573d6000803e3d6000fd5b505050506040513d601f19601f820116820180604052508101906106289190610878565b505b8460a001356301f78a400361064357610643600e610727565b50909392505050565b6004818154811061065c57600080fd5b6000918252602090912001546001600160a01b0316905081565b8151600090815b818110156106d257836001600160a01b03168582815181106106a1576106a161089a565b60200260200101516001600160a01b0316036106c05791506101479050565b806106ca816108b0565b91505061067d565b50600019949350505050565b61072382826040516024016106f49291906108c9565b60408051601f198184030181529190526020810180516001600160e01b031663319af33360e01b17905261078d565b5050565b61076c8160405160240161073d91815260200190565b60408051601f198184030181529190526020810180516001600160e01b031663f5b1bba960e01b17905261078d565b50565b600082600019048411830215820261078657600080fd5b5091020490565b80516a636f6e736f6c652e6c6f67602083016000808483855afa5050505050565b6000602082840312156107c057600080fd5b81356001600160a01b03811681146107d757600080fd5b9392505050565b600061010082840312156107f157600080fd5b50919050565b60006020828403121561080957600080fd5b5035919050565b60006020828403121561082257600080fd5b5051919050565b634e487b7160e01b600052601160045260246000fd5b808202811582820484141761014757610147610829565b60008261087357634e487b7160e01b600052601260045260246000fd5b500490565b60006020828403121561088a57600080fd5b815180151581146107d757600080fd5b634e487b7160e01b600052603260045260246000fd5b6000600182016108c2576108c2610829565b5060010190565b604081526000835180604084015260005b818110156108f757602081870181015160608684010152016108da565b50600060608285018101919091526001600160a01b03949094166020840152601f01601f19169091019091019291505056fea2646970667358221220663af4046a3bf6c4cc6a9e2c2757d9ed947bad352a260116fcf2937295de454164736f6c63430008150033","linkReferences":{}},"methodIdentifiers":{"USDC(address)":"33a7a357","USDCa(uint256)":"5265fedc","exactInputSingle((address,address,uint24,address,uint256,uint256,uint256,uint160))":"414bf389"},"id":129}