{"abi":[{"type":"constructor","inputs":[{"name":"ozDiamond_","type":"address","internalType":"address"}],"stateMutability":"nonpayable"},{"type":"function","name":"swap","inputs":[{"name":"singleSwap","type":"tuple","internalType":"struct VaultMock.SingleSwap","components":[{"name":"poolId","type":"bytes32","internalType":"bytes32"},{"name":"kind","type":"uint8","internalType":"enum VaultMock.SwapKind"},{"name":"assetIn","type":"address","internalType":"contract IAsset"},{"name":"assetOut","type":"address","internalType":"contract IAsset"},{"name":"amount","type":"uint256","internalType":"uint256"},{"name":"userData","type":"bytes","internalType":"bytes"}]},{"name":"funds","type":"tuple","internalType":"struct VaultMock.FundManagement","components":[{"name":"sender","type":"address","internalType":"address"},{"name":"fromInternalBalance","type":"bool","internalType":"bool"},{"name":"recipient","type":"address","internalType":"address payable"},{"name":"toInternalBalance","type":"bool","internalType":"bool"}]},{"name":"limit","type":"uint256","internalType":"uint256"},{"name":"deadline","type":"uint256","internalType":"uint256"}],"outputs":[{"name":"","type":"uint256","internalType":"uint256"}],"stateMutability":"payable"},{"type":"event","name":"DeadVars","inputs":[{"name":"funds","type":"tuple","indexed":false,"internalType":"struct VaultMock.FundManagement","components":[{"name":"sender","type":"address","internalType":"address"},{"name":"fromInternalBalance","type":"bool","internalType":"bool"},{"name":"recipient","type":"address","internalType":"address payable"},{"name":"toInternalBalance","type":"bool","internalType":"bool"}]},{"name":"limit","type":"uint256","indexed":false,"internalType":"uint256"},{"name":"deadline","type":"uint256","indexed":false,"internalType":"uint256"}],"anonymous":false}],"bytecode":{"object":"0x60a060405234801561000f575f80fd5b50604051610d09380380610d0983398101604081905261002e9161003f565b6001600160a01b031660805261006c565b5f6020828403121561004f575f80fd5b81516001600160a01b0381168114610065575f80fd5b9392505050565b608051610c6a61009f5f395f818160a101528181610151015281816102070152818161030f01526104570152610c6a5ff3fe60806040526004361061001d575f3560e01c806352bbbe2914610021575b5f80fd5b61003461002f3660046108f9565b610046565b60405190815260200160405180910390f35b5f61008060405180604001604052806013815260200172039b4b733b632a9bbb0b81730b6b7bab73a1d1606d1b8152508660800151610549565b604085810151608087015191516323b872dd60e01b81526001600160a01b037f0000000000000000000000000000000000000000000000000000000000000000811660048301526001602483015260448201939093525f92909116906323b872dd906064016020604051808303815f875af1158015610101573d5f803e3d5ffd5b505050506040513d601f19601f8201168201806040525081019061012591906109ca565b5085608001516645e4c114e5bdf6036102bb575f6645e4c114e5bdf690506101d8670de0b6b3a76400007f00000000000000000000000000000000000000000000000000000000000000006001600160a01b031663d4afb73a6040518163ffffffff1660e01b81526004016020604051808303815f875af11580156101ac573d5f803e3d5ffd5b505050506040513d601f19601f820116820180604052508101906101d091906109e5565b839190610592565b915061028b6040518060400160405280600f81526020016e027ad173922aa242fa2aa2414149d1608d1b8152507f00000000000000000000000000000000000000000000000000000000000000006001600160a01b031663d4afb73a6040518163ffffffff1660e01b81526004016020604051808303815f875af1158015610262573d5f803e3d5ffd5b505050506040513d601f19601f8201168201806040525081019061028691906109e5565b610549565b6102b96040518060400160405280600c81526020016b030b6b7bab73a27baba191d160a51b81525083610549565b505b856080015166405472f28cdec414806102de5750856080015166404ebef31371fd145b156103ba576040516318aa5b7160e11b815266405472f28cdec4906103b6906103b19061038a906001600160a01b037f00000000000000000000000000000000000000000000000000000000000000001690633154b6e290610346905f9081906004016109fc565b602060405180830381865afa158015610361573d5f803e3d5ffd5b505050506040513d601f19601f8201168201806040525081019061038591906109e5565b6105ad565b6103a16b033b2e3c9fd0803ce800000060026105ca565b6103aa856105ad565b91906105dc565b6106f2565b9150505b6103dc604051806060016040528060248152602001610c116024913982610549565b61040c6040518060400160405280600a815260200169030b9b9b2ba27baba1d160b51b8152508760600151610709565b61043b60405180604001604052806009815260200168030b9b9b2ba24b71d160bd1b8152508760400151610709565b606086015160405163a9059cbb60e01b81526001600160a01b037f000000000000000000000000000000000000000000000000000000000000000081166004830152602482018490529091169063a9059cbb906044016020604051808303815f875af11580156104ad573d5f803e3d5ffd5b505050506040513d601f19601f820116820180604052508101906104d191906109ca565b506040805186516001600160a01b0390811682526020808901511515908301528783015116818301526060808801511515908201526080810186905260a0810185905290517fa1b8531777395733db83b9d44830cfce4e6a1e1704c759e455130f441af671199181900360c00190a195945050505050565b61058e828260405160240161055f929190610a6f565b60408051601f198184030181529190526020810180516001600160e01b03166309710a9d60e41b17905261074a565b5050565b5f825f1904841183021582026105a6575f80fd5b5091020490565b5f6105c4826b033b2e3c9fd0803ce8000000610aa4565b92915050565b5f6105d58284610b9b565b9392505050565b604051633f9b43b760e11b815260048101849052602481018390525f908490849084908490819073__$a7d7f0af96ad7248e2170a1364c3372171$__90637f36876e906044016040805180830381865af415801561063c573d5f803e3d5ffd5b505050506040513d601f19601f820116820180604052508101906106609190610ba6565b6040516399ed504f60e01b8152600481018390526024810182905260448101869052919350915073__$a7d7f0af96ad7248e2170a1364c3372171$__906399ed504f90606401602060405180830381865af41580156106c1573d5f803e3d5ffd5b505050506040513d601f19601f820116820180604052508101906106e591906109e5565b9998505050505050505050565b5f6105c46b033b2e3c9fd0803ce800000083610bc8565b61058e828260405160240161071f929190610be7565b60408051601f198184030181529190526020810180516001600160e01b031663319af33360e01b1790525b80516a636f6e736f6c652e6c6f67602083015f808483855afa5050505050565b634e487b7160e01b5f52604160045260245ffd5b60405160c0810167ffffffffffffffff811182821017156107a1576107a161076a565b60405290565b8035600281106107b5575f80fd5b919050565b6001600160a01b03811681146107ce575f80fd5b50565b80356107b5816107ba565b5f82601f8301126107eb575f80fd5b813567ffffffffffffffff808211156108065761080661076a565b604051601f8301601f19908116603f0116810190828211818310171561082e5761082e61076a565b81604052838152866020858801011115610846575f80fd5b836020870160208301375f602085830101528094505050505092915050565b80151581146107ce575f80fd5b5f60808284031215610882575f80fd5b6040516080810181811067ffffffffffffffff821117156108a5576108a561076a565b60405290508082356108b6816107ba565b815260208301356108c681610865565b602082015260408301356108d9816107ba565b604082015260608301356108ec81610865565b6060919091015292915050565b5f805f8060e0858703121561090c575f80fd5b843567ffffffffffffffff80821115610923575f80fd5b9086019060c08289031215610936575f80fd5b61093e61077e565b8235815261094e602084016107a7565b602082015261095f604084016107d1565b6040820152610970606084016107d1565b60608201526080830135608082015260a083013582811115610990575f80fd5b61099c8a8286016107dc565b60a0830152508096505050506109b58660208701610872565b939693955050505060a08201359160c0013590565b5f602082840312156109da575f80fd5b81516105d581610865565b5f602082840312156109f5575f80fd5b5051919050565b8281526040810160028310610a1f57634e487b7160e01b5f52602160045260245ffd5b8260208301529392505050565b5f81518084525f5b81811015610a5057602081850181015186830182015201610a34565b505f602082860101526020601f19601f83011685010191505092915050565b604081525f610a816040830185610a2c565b90508260208301529392505050565b634e487b7160e01b5f52601160045260245ffd5b80820281158282048414176105c4576105c4610a90565b600181815b80851115610af557815f1904821115610adb57610adb610a90565b80851615610ae857918102915b93841c9390800290610ac0565b509250929050565b5f82610b0b575060016105c4565b81610b1757505f6105c4565b8160018114610b2d5760028114610b3757610b53565b60019150506105c4565b60ff841115610b4857610b48610a90565b50506001821b6105c4565b5060208310610133831016604e8410600b8410161715610b76575081810a6105c4565b610b808383610abb565b805f1904821115610b9357610b93610a90565b029392505050565b5f6105d58383610afd565b5f8060408385031215610bb7575f80fd5b505080516020909101519092909150565b5f82610be257634e487b7160e01b5f52601260045260245ffd5b500490565b604081525f610bf96040830185610a2c565b905060018060a01b0383166020830152939250505056fe616d6f756e744f7574202d20724554482073656e7420746f206f7a4469616d6f6e643a20a2646970667358221220fab832ba8dd460cfd8fd541b02a26b2f752d2c3cf4d6ef67fd72cbcc987642b964736f6c63430008180033","linkReferences":{"contracts/libraries/Uint512.sol":{"Uint512":[{"start":1700,"length":20},{"start":1832,"length":20}]}}},"methodIdentifiers":{"swap((bytes32,uint8,address,address,uint256,bytes),(address,bool,address,bool),uint256,uint256)":"52bbbe29"},"id":124}