{"abi":[{"type":"function","name":"swap","inputs":[{"name":"singleSwap","type":"tuple","internalType":"struct VaultMock.SingleSwap","components":[{"name":"poolId","type":"bytes32","internalType":"bytes32"},{"name":"kind","type":"uint8","internalType":"enum VaultMock.SwapKind"},{"name":"assetIn","type":"address","internalType":"contract IAsset"},{"name":"assetOut","type":"address","internalType":"contract IAsset"},{"name":"amount","type":"uint256","internalType":"uint256"},{"name":"userData","type":"bytes","internalType":"bytes"}]},{"name":"funds","type":"tuple","internalType":"struct VaultMock.FundManagement","components":[{"name":"sender","type":"address","internalType":"address"},{"name":"fromInternalBalance","type":"bool","internalType":"bool"},{"name":"recipient","type":"address","internalType":"address payable"},{"name":"toInternalBalance","type":"bool","internalType":"bool"}]},{"name":"limit","type":"uint256","internalType":"uint256"},{"name":"deadline","type":"uint256","internalType":"uint256"}],"outputs":[{"name":"","type":"uint256","internalType":"uint256"}],"stateMutability":"payable"},{"type":"event","name":"DeadVars","inputs":[{"name":"funds","type":"tuple","indexed":false,"internalType":"struct VaultMock.FundManagement","components":[{"name":"sender","type":"address","internalType":"address"},{"name":"fromInternalBalance","type":"bool","internalType":"bool"},{"name":"recipient","type":"address","internalType":"address payable"},{"name":"toInternalBalance","type":"bool","internalType":"bool"}]},{"name":"limit","type":"uint256","indexed":false,"internalType":"uint256"},{"name":"deadline","type":"uint256","indexed":false,"internalType":"uint256"}],"anonymous":false}],"bytecode":{"object":"0x608060405234801561001057600080fd5b5061091c806100206000396000f3fe60806040526004361061001e5760003560e01c806352bbbe2914610023575b600080fd5b6100366100313660046106e1565b610048565b60405190815260200160405180910390f35b604080850151608086015191516323b872dd60e01b81527392a6649fdcc044da968d94202465578a9371c7b1600482018190526001602483015260448201939093526000929183916001600160a01b03909116906323b872dd906064016020604051808303816000875af11580156100c4573d6000803e3d6000fd5b505050506040513d601f19601f820116820180604052508101906100e891906107b8565b5086608001516645dafb8497198903610105575066403cf39cdb8df05b86608001516645dafb33e3a06603610121575066403cf324ac76f25b866080015166403cf360c402710361013d57506645ccadc178e61a5b61016c6040518060600160405280602881526020016108bf60289139886080015166403cf360c40271146103cf565b866080015166403cf360c40271036101b4576101aa6040518060400160405280600b81526020016a39b437bab632103637b39960a91b815250610418565b506645ccadc178e61a5b604080518082018252601381527203130b6103a3434b99030b9b9b2ba27aaba1d1606d1b6020820152606089015191516370a0823160e01b8152306004820152610251926001600160a01b0316906370a0823190602401602060405180830381865afa158015610228573d6000803e3d6000fd5b505050506040513d601f19601f8201168201806040525081019061024c91906107dc565b61045e565b6102946040518060400160405280601e81526020017f616464726573732873696e676c65537761702e61737365744f7574293a20000081525088606001516104a3565b61029e60016104e8565b606087015160405163a9059cbb60e01b81526001600160a01b038481166004830152602482018490529091169063a9059cbb906044016020604051808303816000875af11580156102f3573d6000803e3d6000fd5b505050506040513d601f19601f8201168201806040525081019061031791906107b8565b5061032260026104e8565b6040805187516001600160a01b0390811682526020808a01511515908301528883015116818301526060808901511515908201526080810187905260a0810186905290517fa1b8531777395733db83b9d44830cfce4e6a1e1704c759e455130f441af671199181900360c00190a16103c560405180604001604052806013815260200172030b6b7bab73a27baba1034b71036b7b1b59d1606d1b8152508261045e565b9695505050505050565b61041482826040516024016103e592919061083b565b60408051601f198184030181529190526020810180516001600160e01b031663c3b5563560e01b179052610529565b5050565b61045b8160405160240161042c919061085f565b60408051601f198184030181529190526020810180516001600160e01b031663104c13eb60e21b179052610529565b50565b6104148282604051602401610474929190610872565b60408051601f198184030181529190526020810180516001600160e01b03166309710a9d60e41b179052610529565b61041482826040516024016104b9929190610894565b60408051601f198184030181529190526020810180516001600160e01b031663319af33360e01b179052610529565b61045b816040516024016104fe91815260200190565b60408051601f198184030181529190526020810180516001600160e01b031663f5b1bba960e01b1790525b80516a636f6e736f6c652e6c6f67602083016000808483855afa5050505050565b634e487b7160e01b600052604160045260246000fd5b60405160c0810167ffffffffffffffff811182821017156105835761058361054a565b60405290565b80356002811061059857600080fd5b919050565b6001600160a01b038116811461045b57600080fd5b80356105988161059d565b600082601f8301126105ce57600080fd5b813567ffffffffffffffff808211156105e9576105e961054a565b604051601f8301601f19908116603f011681019082821181831017156106115761061161054a565b8160405283815286602085880101111561062a57600080fd5b836020870160208301376000602085830101528094505050505092915050565b801515811461045b57600080fd5b60006080828403121561066a57600080fd5b6040516080810181811067ffffffffffffffff8211171561068d5761068d61054a565b604052905080823561069e8161059d565b815260208301356106ae8161064a565b602082015260408301356106c18161059d565b604082015260608301356106d48161064a565b6060919091015292915050565b60008060008060e085870312156106f757600080fd5b843567ffffffffffffffff8082111561070f57600080fd5b9086019060c0828903121561072357600080fd5b61072b610560565b8235815261073b60208401610589565b602082015261074c604084016105b2565b604082015261075d606084016105b2565b60608201526080830135608082015260a08301358281111561077e57600080fd5b61078a8a8286016105bd565b60a0830152508096505050506107a38660208701610658565b939693955050505060a08201359160c0013590565b6000602082840312156107ca57600080fd5b81516107d58161064a565b9392505050565b6000602082840312156107ee57600080fd5b5051919050565b6000815180845260005b8181101561081b576020818501810151868301820152016107ff565b506000602082860101526020601f19601f83011685010191505092915050565b60408152600061084e60408301856107f5565b905082151560208301529392505050565b6020815260006107d560208301846107f5565b60408152600061088560408301856107f5565b90508260208301529392505050565b6040815260006108a760408301856107f5565b905060018060a01b0383166020830152939250505056fe73696e676c65537761702e616d6f756e74203d3d2031383038313431343530373635393838393a20a2646970667358221220e76b515f6a24fde17aeb6ba3689d679ab472c553f93ef4d2985163decb173d2764736f6c63430008150033","linkReferences":{}},"methodIdentifiers":{"swap((bytes32,uint8,address,address,uint256,bytes),(address,bool,address,bool),uint256,uint256)":"52bbbe29"},"id":137}