{"abi":[{"type":"function","name":"getUniPrice","inputs":[{"name":"tokenPair_","type":"uint256","internalType":"uint256"},{"name":"side_","type":"uint8","internalType":"enum Dir"}],"outputs":[{"name":"","type":"uint256","internalType":"uint256"}],"stateMutability":"view"}],"bytecode":{"object":"0x608060405234801561001057600080fd5b5061020b806100206000396000f3fe608060405234801561001057600080fd5b506004361061002b5760003560e01c80633154b6e214610030575b600080fd5b61004361003e36600461013d565b610055565b60405190815260200160405180910390f35b60006100826040518060400160405280600a81526020016973686f756c64206c6f6760b01b8152506100d6565b60008083600181111561009757610097610171565b036100ab5750670f13fa15c8b434bc6100cf565b60018360018111156100bf576100bf610171565b036100cf5750670f123aed20dfea305b9392505050565b610119816040516024016100ea9190610187565b60408051601f198184030181529190526020810180516001600160e01b031663104c13eb60e21b17905261011c565b50565b80516a636f6e736f6c652e6c6f67602083016000808483855afa5050505050565b6000806040838503121561015057600080fd5b8235915060208301356002811061016657600080fd5b809150509250929050565b634e487b7160e01b600052602160045260246000fd5b600060208083528351808285015260005b818110156101b457858101830151858201604001528201610198565b506000604082860101526040601f19601f830116850101925050509291505056fea26469706673582212204b478b3d7e01928ae22b369e77e84936722873f52ece05ed28ce2a6e14cde37b64736f6c63430008150033","linkReferences":{}},"methodIdentifiers":{"getUniPrice(uint256,uint8)":"3154b6e2"},"id":138}