{"abi":[{"type":"function","name":"DISPUTE_BUFFER","inputs":[],"outputs":[{"name":"","type":"uint256","internalType":"uint256"}],"stateMutability":"view"},{"type":"function","name":"ETH_USD","inputs":[],"outputs":[{"name":"","type":"uint256","internalType":"uint256"}],"stateMutability":"view"},{"type":"function","name":"TIMEOUT_EXTENDED","inputs":[],"outputs":[{"name":"","type":"uint256","internalType":"uint256"}],"stateMutability":"view"},{"type":"function","name":"TIMEOUT_LINK","inputs":[],"outputs":[{"name":"","type":"uint256","internalType":"uint256"}],"stateMutability":"view"},{"type":"function","name":"chargeOZLfee","inputs":[],"outputs":[{"name":"","type":"bool","internalType":"bool"}],"stateMutability":"nonpayable"},{"type":"function","name":"dir_down","inputs":[],"outputs":[{"name":"","type":"uint256","internalType":"uint256"}],"stateMutability":"view"},{"type":"function","name":"dir_up","inputs":[],"outputs":[{"name":"","type":"uint256","internalType":"uint256"}],"stateMutability":"view"},{"type":"function","name":"getLastRewards","inputs":[],"outputs":[{"name":"","type":"tuple","internalType":"struct LastRewards","components":[{"name":"lastBlock","type":"uint256","internalType":"uint256"},{"name":"prevTotalRewards","type":"uint256","internalType":"uint256"}]}],"stateMutability":"view"},{"type":"function","name":"getOracleBackUp1","inputs":[],"outputs":[{"name":"","type":"bool","internalType":"bool"},{"name":"","type":"uint256","internalType":"uint256"}],"stateMutability":"view"},{"type":"function","name":"getOracleBackUp2","inputs":[],"outputs":[{"name":"","type":"bool","internalType":"bool"},{"name":"","type":"uint256","internalType":"uint256"}],"stateMutability":"view"},{"type":"function","name":"getUnderlyingValue","inputs":[{"name":"ozToken_","type":"address","internalType":"address"}],"outputs":[{"name":"","type":"uint256","internalType":"uint256"}],"stateMutability":"view"},{"type":"function","name":"getUniPrice","inputs":[{"name":"tokenPair_","type":"uint256","internalType":"uint256"},{"name":"side_","type":"uint8","internalType":"enum Dir"}],"outputs":[{"name":"","type":"uint256","internalType":"uint256"}],"stateMutability":"view"},{"type":"function","name":"rETH_ETH","inputs":[],"outputs":[{"name":"","type":"uint256","internalType":"uint256"}],"stateMutability":"view"},{"type":"function","name":"rETH_USD","inputs":[],"outputs":[{"name":"","type":"uint256","internalType":"uint256"}],"stateMutability":"view"},{"type":"function","name":"setValuePerOzToken","inputs":[{"name":"ozToken_","type":"address","internalType":"address"},{"name":"amount_","type":"uint256","internalType":"uint256"},{"name":"addOrSub_","type":"bool","internalType":"bool"}],"outputs":[],"stateMutability":"nonpayable"},{"type":"event","name":"OzRewards","inputs":[{"name":"blockNumber","type":"uint256","indexed":false,"internalType":"uint256"},{"name":"ozelFeesInRETH","type":"uint256","indexed":false,"internalType":"uint256"},{"name":"totalRewards","type":"int256","indexed":false,"internalType":"int256"},{"name":"currentRewards","type":"int256","indexed":false,"internalType":"int256"}],"anonymous":false},{"type":"error","name":"OZError14","inputs":[{"name":"blockNumber","type":"uint256","internalType":"uint256"}]},{"type":"error","name":"OZError23","inputs":[{"name":"baseToken","type":"address","internalType":"address"}]}],"bytecode":{"object":"0x608060405234801561001057600080fd5b5061117a806100206000396000f3fe608060405234801561001057600080fd5b50600436106100f55760003560e01c806397d2ead211610097578063d4afb73a11610066578063d4afb73a146101f0578063f1db9043146101f8578063f32cabc514610207578063f424c4ba1461020f57600080fd5b806397d2ead2146101b0578063a453ea2f146101c3578063b0ff97b5146101d2578063c1874867146101e757600080fd5b806340f1a34b116100d357806340f1a34b1461017d5780636260f55b146101865780638c4c501d1461018e5780638e9cd10c1461019857600080fd5b80630b842e3b146100fa5780632cc3eb0a1461011e5780633154b6e21461015c575b600080fd5b610102610217565b6040805192151583526020830191909152015b60405180910390f35b604080518082018252600080825260209182015281518083018352601454808252601554918301918252835190815290519181019190915201610115565b61016f61016a366004610db5565b610376565b604051908152602001610115565b61016f61384081565b61016f61041c565b61016f6201518081565b6101a0610466565b6040519015158152602001610115565b61016f6101be366004610e05565b610679565b61016f670f13fa15c8b434bc81565b6101e56101e0366004610e31565b610745565b005b61016f61038481565b61016f6107b1565b61016f670f123aed20dfea3081565b6101026107c3565b61016f610861565b600080600060405160200161025d9060408082526003908201819052620cae8d60eb1b6060830152608060208301819052820152621d5cd960ea1b60a082015260c00190565b60408051601f198184030181529082905261027a91602001610e95565b60408051601f198184030181529190528051602090910120602354909150600090819081906001600160a01b031663a792765f856102ba61038442610efe565b6040516001600160e01b031960e085901b16815260048101929092526024820152604401600060405180830381865afa1580156102fb573d6000803e3d6000fd5b505050506040513d6000823e601f3d908101601f191682016040526103239190810190610f27565b92509250925082158061034157506201518061033f8242610efe565b115b1561035457506000958695509350505050565b60018280602001905181019061036a9190610ff3565b95509550505050509091565b6000828152602b60209081526040808320815160608101835281546001600160a01b03908116808352600190930154908116948201859052600160a01b900462ffffff169201829052919050600091508190508360018111156103db576103db61100c565b036103ef5750670f13fa15c8b434bc610413565b60018360018111156104035761040361100c565b036104135750670f123aed20dfea305b90505b92915050565b6007546000908190819061043a906001600160a01b03166001610890565b915091508161045d57600354610458906001600160a01b03166109c5565b61045f565b805b9250505090565b6009546040516370a0823160e01b815230600482015260009182916001600160a01b03909116906370a0823190602401602060405180830381865afa1580156104b3573d6000803e3d6000fd5b505050506040513d601f19601f820116820180604052508101906104d79190610ff3565b90506000805b60015481101561058f5760018054829081106104fb576104fb611022565b600091825260209182902060029091020154604080516278744560e21b815290516001600160a01b03909216926301e1d114926004808401938290030181865afa15801561054d573d6000803e3d6000fd5b505050506040513d601f19601f820116820180604052508101906105719190610ff3565b61057b9083611038565b9150806105878161104b565b9150506104dd565b5060145443116105b95760405163dcfa2bfd60e01b81524360048201526024015b60405180910390fd5b6000806105c68385610b26565b909250905060006105d78383611064565b9050600081136105ed5760009550505050505090565b6015546000906105fd9083611064565b905060008113610614576000965050505050505090565b60006106208383610b94565b6040805143815260208101839052908101859052606081018490529091507fd47935b2f6fd998224fcce47e28065f692a3452b54180fd1e43ba90daf9eb1949060800160405180910390a1600197505050505050505090565b6000806001600160a01b03831630146106aa576001600160a01b038316600090815260216020526040902054610716565b6009546040516370a0823160e01b81523060048201526001600160a01b03909116906370a0823190602401602060405180830381865afa1580156106f2573d6000803e3d6000fd5b505050506040513d601f19601f820116820180604052508101906107169190610ff3565b9050670de0b6b3a76400008161072a610861565b6107349190611084565b61073e919061109b565b9392505050565b801561077e576001600160a01b03831660009081526021602052604081208054849290610773908490611038565b909155506107ac9050565b6001600160a01b038316600090815260216020526040812080548492906107a6908490610efe565b90915550505b505050565b60006107be600080610376565b905090565b6024546000908190819081906107e2906001600160a01b031682610890565b60255491935091506000908190610802906001600160a01b031682610890565b915091508380156108105750815b1561085357600061084482670de0b6b3a764000061083d876ec097ce7bc90715b34b9f100000000061109b565b9190610c84565b60019890975095505050505050565b506000958695509350505050565b6000670de0b6b3a764000061087461041c565b61087c6107b1565b6108869190611084565b6107be919061109b565b6000806138406402540be400846108a8576201518091505b600a546001600160a01b03908116908716036108c2575060015b6000806000886001600160a01b031663feaf968c6040518163ffffffff1660e01b815260040160a060405180830381865afa158015610905573d6000803e3d6000fd5b505050506040513d601f19601f8201168201806040525081019061092991906110d7565b50935050925092508269ffffffffffffffffffff16600014158061095a57506024546001600160a01b038a81169116145b80156109665750600082135b801561097157508015155b801561097d5750428111155b801561099257508461098f8242610efe565b11155b156109b15760016109a38584611084565b9650965050505050506109be565b6000809650965050505050505b9250929050565b6003546000906001600160a01b0390811690831603610a3c5760006109ec60026000610376565b90506000806109f9610217565b91509150600080610a086107c3565b91509150838015610a165750815b15610a3157610a26858483610ca2565b979650505050505050565b509295945050505050565b6009546001600160a01b0390811690831603610b02576000610a5f600080610376565b90506000610a6f60016000610376565b905060008060090160009054906101000a90046001600160a01b03166001600160a01b031663e6aa216c6040518163ffffffff1660e01b8152600401602060405180830381865afa158015610ac8573d6000803e3d6000fd5b505050506040513d601f19601f82011682018060405250810190610aec9190610ff3565b9050610af9838383610ca2565b95945050505050565b60405163715ed81960e01b81526001600160a01b03831660048201526024016105b0565b6000806000610b3361041c565b610b428664e8d4a51000611084565b610b5490670de0b6b3a7640000611084565b610b5e919061109b565b90506000670de0b6b3a7640000610b736107b1565b610b7d9087611084565b610b87919061109b565b9196919550909350505050565b6013546000908190610bb8906601000000000000900462ffffff1684612710610c84565b601585905590506000610bc96107b1565b610bdb83670de0b6b3a7640000611084565b610be5919061109b565b90506000610bf282610d0f565b60095460135460405163a9059cbb60e01b81526001600160a01b0369010000000000000000009092048216600482015260248101849052929350169063a9059cbb906044016020604051808303816000875af1158015610c56573d6000803e3d6000fd5b505050506040513d601f19601f82011682018060405250810190610c7a9190611127565b5095945050505050565b6000826000190484118302158202610c9b57600080fd5b5091020490565b6000828410158015610cb45750818411155b80610cca5750828411158015610cca5750818410155b15610cd657508261073e565b838310158015610ce65750818311155b80610cfc5750838311158015610cfc5750818310155b15610d0857508161073e565b5092915050565b601f546000908190610d2f90600160a01b900461ffff1684612710610c84565b600954601f5460405163a9059cbb60e01b81526001600160a01b03918216600482015260248101849052929350169063a9059cbb906044016020604051808303816000875af1158015610d86573d6000803e3d6000fd5b505050506040513d601f19601f82011682018060405250810190610daa9190611127565b5061073e8184610efe565b60008060408385031215610dc857600080fd5b82359150602083013560028110610dde57600080fd5b809150509250929050565b80356001600160a01b0381168114610e0057600080fd5b919050565b600060208284031215610e1757600080fd5b61073e82610de9565b8015158114610e2e57600080fd5b50565b600080600060608486031215610e4657600080fd5b610e4f84610de9565b9250602084013591506040840135610e6681610e20565b809150509250925092565b60005b83811015610e8c578181015183820152602001610e74565b50506000910152565b60408152600960408201526853706f74507269636560b81b60608201526080602082015260008251806080840152610ed48160a0850160208701610e71565b601f01601f19169190910160a00192915050565b634e487b7160e01b600052601160045260246000fd5b8181038181111561041657610416610ee8565b634e487b7160e01b600052604160045260246000fd5b600080600060608486031215610f3c57600080fd5b8351610f4781610e20565b602085015190935067ffffffffffffffff80821115610f6557600080fd5b818601915086601f830112610f7957600080fd5b815181811115610f8b57610f8b610f11565b604051601f8201601f19908116603f01168101908382118183101715610fb357610fb3610f11565b81604052828152896020848701011115610fcc57600080fd5b610fdd836020830160208801610e71565b8096505050505050604084015190509250925092565b60006020828403121561100557600080fd5b5051919050565b634e487b7160e01b600052602160045260246000fd5b634e487b7160e01b600052603260045260246000fd5b8082018082111561041657610416610ee8565b60006001820161105d5761105d610ee8565b5060010190565b8181036000831280158383131683831282161715610d0857610d08610ee8565b808202811582820484141761041657610416610ee8565b6000826110b857634e487b7160e01b600052601260045260246000fd5b500490565b805169ffffffffffffffffffff81168114610e0057600080fd5b600080600080600060a086880312156110ef57600080fd5b6110f8866110bd565b945060208601519350604086015192506060860151915061111b608087016110bd565b90509295509295909350565b60006020828403121561113957600080fd5b815161041381610e2056fea264697066735822122080e81b1407439e54e525ca6a7c6ff7f5e635804a867094f119535b960a1b2f2064736f6c63430008150033","linkReferences":{}},"methodIdentifiers":{"DISPUTE_BUFFER()":"c1874867","ETH_USD()":"6260f55b","TIMEOUT_EXTENDED()":"8c4c501d","TIMEOUT_LINK()":"40f1a34b","chargeOZLfee()":"8e9cd10c","dir_down()":"f1db9043","dir_up()":"a453ea2f","getLastRewards()":"2cc3eb0a","getOracleBackUp1()":"0b842e3b","getOracleBackUp2()":"f32cabc5","getUnderlyingValue(address)":"97d2ead2","getUniPrice(uint256,uint8)":"3154b6e2","rETH_ETH()":"d4afb73a","rETH_USD()":"f424c4ba","setValuePerOzToken(address,uint256,bool)":"b0ff97b5"},"id":138}