{"abi":[{"type":"function","name":"add512x512","inputs":[{"name":"a0","type":"uint256","internalType":"uint256"},{"name":"a1","type":"uint256","internalType":"uint256"},{"name":"b0","type":"uint256","internalType":"uint256"},{"name":"b1","type":"uint256","internalType":"uint256"}],"outputs":[{"name":"r0","type":"uint256","internalType":"uint256"},{"name":"r1","type":"uint256","internalType":"uint256"}],"stateMutability":"pure"},{"type":"function","name":"div512x256","inputs":[{"name":"a0","type":"uint256","internalType":"uint256"},{"name":"a1","type":"uint256","internalType":"uint256"},{"name":"b","type":"uint256","internalType":"uint256"}],"outputs":[{"name":"r","type":"uint256","internalType":"uint256"}],"stateMutability":"pure"},{"type":"function","name":"divRem512x256","inputs":[{"name":"a0","type":"uint256","internalType":"uint256"},{"name":"a1","type":"uint256","internalType":"uint256"},{"name":"b","type":"uint256","internalType":"uint256"},{"name":"rem","type":"uint256","internalType":"uint256"}],"outputs":[{"name":"r","type":"uint256","internalType":"uint256"}],"stateMutability":"pure"},{"type":"function","name":"mul256x256","inputs":[{"name":"a","type":"uint256","internalType":"uint256"},{"name":"b","type":"uint256","internalType":"uint256"}],"outputs":[{"name":"r0","type":"uint256","internalType":"uint256"},{"name":"r1","type":"uint256","internalType":"uint256"}],"stateMutability":"pure"},{"type":"function","name":"mul512x256","inputs":[{"name":"a0","type":"uint256","internalType":"uint256"},{"name":"a1","type":"uint256","internalType":"uint256"},{"name":"b","type":"uint256","internalType":"uint256"}],"outputs":[{"name":"r0","type":"uint256","internalType":"uint256"},{"name":"r1","type":"uint256","internalType":"uint256"}],"stateMutability":"pure"},{"type":"function","name":"mulMod256x256","inputs":[{"name":"a","type":"uint256","internalType":"uint256"},{"name":"b","type":"uint256","internalType":"uint256"},{"name":"c","type":"uint256","internalType":"uint256"}],"outputs":[{"name":"r0","type":"uint256","internalType":"uint256"},{"name":"r1","type":"uint256","internalType":"uint256"},{"name":"r2","type":"uint256","internalType":"uint256"}],"stateMutability":"pure"},{"type":"function","name":"sqrt256","inputs":[{"name":"x","type":"uint256","internalType":"uint256"}],"outputs":[{"name":"s","type":"uint256","internalType":"uint256"}],"stateMutability":"pure"},{"type":"function","name":"sqrt512","inputs":[{"name":"a0","type":"uint256","internalType":"uint256"},{"name":"a1","type":"uint256","internalType":"uint256"}],"outputs":[{"name":"s","type":"uint256","internalType":"uint256"}],"stateMutability":"pure"},{"type":"function","name":"sub512x512","inputs":[{"name":"a0","type":"uint256","internalType":"uint256"},{"name":"a1","type":"uint256","internalType":"uint256"},{"name":"b0","type":"uint256","internalType":"uint256"},{"name":"b1","type":"uint256","internalType":"uint256"}],"outputs":[{"name":"r0","type":"uint256","internalType":"uint256"},{"name":"r1","type":"uint256","internalType":"uint256"}],"stateMutability":"pure"}],"bytecode":{"object":"0x61074f610035600b8282823980515f1a60731461002957634e487b7160e01b5f525f60045260245ffd5b305f52607381538281f3fe730000000000000000000000000000000000000000301460806040526004361061009b575f3560e01c80637f36876e1161006e5780637f36876e1461011b578063957e07c51461012e5780639594adef1461014f57806399ed504f1461017d578063d75cadce14610190575f80fd5b806314d608821461009f57806320378d22146100d45780632ddb9a71146100f55780634301b89e14610108575b5f80fd5b6100ba6100ad366004610619565b9083019392841091010190565b604080519283526020830191909152015b60405180910390f35b6100e76100e2366004610648565b6101a3565b6040519081526020016100cb565b6100e761010336600461065f565b610355565b6100ba61011636600461067f565b6104b1565b6100ba61012936600461065f565b6104d4565b6100ba61013c366004610619565b8184039491909310929091039190910390565b61016261015d36600461067f565b6104f1565b604080519384526020840192909252908201526060016100cb565b6100e761018b36600461067f565b610517565b6100e761019e366004610619565b6105a0565b5f815f036101b257505f919050565b6001905081600160801b8114600160801b82111781608082021d915082604082021b9250600160401b8214600160401b831117905081604082021d915082602082021b92506401000000008214640100000000831117905081602082021d915082601082021b925062010000821462010000831117905081601082021d915082600882021b92506101008214610100831117905081600882021d915082600482021b9250601082146010831117905081600482021d915082600282021b925050816002600883146008841117021b9150506001818381610294576102946106a8565b048201901c905060018183816102ac576102ac6106a8565b048201901c905060018183816102c4576102c46106a8565b048201901c905060018183816102dc576102dc6106a8565b048201901c905060018183816102f4576102f46106a8565b048201901c9050600181838161030c5761030c6106a8565b048201901c90506001818381610324576103246106a8565b048201901c90505f81838161033b5761033b6106a8565b0490508082101561034c578161034e565b805b9392505050565b5f815f0361036d57610366836101a3565b90506104ab565b600160fe1b600160801b831060800292831b600160c01b811060400290811b600160e01b811060200290811b600160f01b811060100290811b600160f81b811060080290811b600160fc1b811060040290811b9586106002029490970192909201010193909301830184811b946101008290031c9190931b17915f6103f1846101a3565b90505f6103fe82806106d0565b61040890866106e7565b608083811b600185901b83831c5f81900382810690910185851b8c861c17838106919091018381049284900484830401929092019384019950949550909290839006919082811b6fffffffffffffffffffffffffffffffff8c1617908280029084811c9084901c118061048c5750608084901c608084901c14801561048c57508082105b156104985760018a0399505b600289048a901c99505050505050505050505b92915050565b5f805f198386099483029593909202858510948690039490940393909301925050565b5f805f198385098385029250828110838203039150509250929050565b5f80805f1985870985870293508381108482030392505083858709905093509350939050565b5f815f198409828482089050828582085f84810385168082038190046001018389109097039687029290970387900491909117959093049284900390506105695761056282856106fa565b905061034e565b5060026003820281188083028203028083028203028083028203028083028203028083028203028083029091030283029392505050565b5f8281038316808203819004600101838710909503948502958390038190049590951794909204918381036105e0576105d983866106fa565b9050610611565b5060026003830281188084028203028084028203028084028203028084028203028084028203028084029091030284025b949350505050565b5f805f806080858703121561062c575f80fd5b5050823594602084013594506040840135936060013592509050565b5f60208284031215610658575f80fd5b5035919050565b5f8060408385031215610670575f80fd5b50508035926020909101359150565b5f805f60608486031215610691575f80fd5b505081359360208301359350604090920135919050565b634e487b7160e01b5f52601260045260245ffd5b634e487b7160e01b5f52601160045260245ffd5b80820281158282048414176104ab576104ab6106bc565b818103818111156104ab576104ab6106bc565b5f8261071457634e487b7160e01b5f52601260045260245ffd5b50049056fea26469706673582212201c79242a772a78f9a4c6a79e7f89d6508f77e776d5660c95855f50d387daf93264736f6c63430008180033","linkReferences":{}},"methodIdentifiers":{"add512x512(uint256,uint256,uint256,uint256)":"14d60882","div512x256(uint256,uint256,uint256)":"99ed504f","divRem512x256(uint256,uint256,uint256,uint256)":"d75cadce","mul256x256(uint256,uint256)":"7f36876e","mul512x256(uint256,uint256,uint256)":"4301b89e","mulMod256x256(uint256,uint256,uint256)":"9594adef","sqrt256(uint256)":"20378d22","sqrt512(uint256,uint256)":"2ddb9a71","sub512x512(uint256,uint256,uint256,uint256)":"957e07c5"},"id":40}