{"abi":[{"type":"constructor","inputs":[{"name":"ozToken_","type":"address","internalType":"address"},{"name":"oz_","type":"address","internalType":"address"}],"stateMutability":"nonpayable"},{"type":"function","name":"mintOz","inputs":[{"name":"amountIn_","type":"uint256","internalType":"uint256"}],"outputs":[{"name":"","type":"bool","internalType":"bool"}],"stateMutability":"nonpayable"},{"type":"function","name":"redeemOz","inputs":[{"name":"ozAmountIn_","type":"uint256","internalType":"uint256"}],"outputs":[{"name":"","type":"bool","internalType":"bool"}],"stateMutability":"nonpayable"}],"bytecode":{"object":"0x608060405234801561000f575f80fd5b5060405161058e38038061058e83398101604081905261002e91610079565b5f80546001600160a01b039384166001600160a01b031991821617909155600180549290931691161790556100aa565b80516001600160a01b0381168114610074575f80fd5b919050565b5f806040838503121561008a575f80fd5b6100938361005e565b91506100a16020840161005e565b90509250929050565b6104d7806100b75f395ff3fe608060405234801561000f575f80fd5b5060043610610034575f3560e01c80634980b68c14610038578063d2e914d21461005f575b5f80fd5b61004b61004636600461032a565b610072565b604051901515815260200160405180910390f35b61004b61006d36600461032a565b6101ed565b60015460408051630d411b1f60e11b815290515f9283926001600160a01b039091169163c3e2450d9186918491631a82363e9160048083019260209291908290030181865afa1580156100c7573d5f803e3d5ffd5b505050506040513d601f19601f820116820180604052508101906100eb9190610341565b5f5460405160e085901b6001600160e01b0319168152600481019390935261ffff90911660248301523360448301526001600160a01b031660648201526084015f60405180830381865afa158015610145573d5f803e3d5ffd5b505050506040513d5f823e601f3d908101601f1916820160405261016c919081019061039f565b5f8054604051630cae37f160e01b815292935090916001600160a01b0390911690630cae37f1906101a39085903390600401610447565b6020604051808303815f875af11580156101bf573d5f803e3d5ffd5b505050506040513d601f19601f820116820180604052508101906101e3919061048a565b1515949350505050565b6001545f805460408051630d411b1f60e11b81529051929384936001600160a01b03918216936343596609938893909116918591631a82363e9160048083019260209291908290030181865afa158015610249573d5f803e3d5ffd5b505050506040513d601f19601f8201168201806040525081019061026d9190610341565b6040516001600160e01b031960e086901b16815260048101939093526001600160a01b03909116602483015261ffff1660448201523360648201819052608482015260a4015f60405180830381865afa1580156102cc573d5f803e3d5ffd5b505050506040513d5f823e601f3d908101601f191682016040526102f3919081019061039f565b5f80546040516305d04beb60e11b815292935090916001600160a01b0390911690630ba097d6906101a39085903390600401610447565b5f6020828403121561033a575f80fd5b5035919050565b5f60208284031215610351575f80fd5b815161ffff81168114610362575f80fd5b9392505050565b634e487b7160e01b5f52604160045260245ffd5b5f5b8381101561039757818101518382015260200161037f565b50505f910152565b5f602082840312156103af575f80fd5b815167ffffffffffffffff808211156103c6575f80fd5b818401915084601f8301126103d9575f80fd5b8151818111156103eb576103eb610369565b604051601f8201601f19908116603f0116810190838211818310171561041357610413610369565b8160405282815287602084870101111561042b575f80fd5b61043c83602083016020880161037d565b979650505050505050565b604081525f835180604084015261046581606085016020880161037d565b6001600160a01b0393909316602083015250601f91909101601f191601606001919050565b5f6020828403121561049a575f80fd5b505191905056fea264697066735822122095140e26a8a4dc2ed78495a9c6fc05a27a53c3c774535f5dc6bafd25ba8bfa4f64736f6c63430008180033","linkReferences":{}},"methodIdentifiers":{"mintOz(uint256)":"4980b68c","redeemOz(uint256)":"d2e914d2"},"id":144}