{"abi":[{"type":"constructor","inputs":[{"name":"ozToken_","type":"address","internalType":"address"},{"name":"oz_","type":"address","internalType":"address"}],"stateMutability":"nonpayable"},{"type":"function","name":"mintOz","inputs":[{"name":"amountIn_","type":"uint256","internalType":"uint256"}],"outputs":[{"name":"","type":"bool","internalType":"bool"}],"stateMutability":"nonpayable"},{"type":"function","name":"redeemOz","inputs":[{"name":"ozAmountIn_","type":"uint256","internalType":"uint256"}],"outputs":[{"name":"","type":"bool","internalType":"bool"}],"stateMutability":"nonpayable"}],"bytecode":{"object":"0x608060405234801561000f575f80fd5b5060405161057c38038061057c83398101604081905261002e91610079565b5f80546001600160a01b039384166001600160a01b031991821617909155600180549290931691161790556100aa565b80516001600160a01b0381168114610074575f80fd5b919050565b5f806040838503121561008a575f80fd5b6100938361005e565b91506100a16020840161005e565b90509250929050565b6104c5806100b75f395ff3fe608060405234801561000f575f80fd5b5060043610610034575f3560e01c80634980b68c14610038578063d2e914d21461005f575b5f80fd5b61004b610046366004610318565b610072565b604051901515815260200160405180910390f35b61004b61006d366004610318565b6101db565b60015460408051630d411b1f60e11b815290515f9283926001600160a01b0390911691638c50d4579186918491631a82363e9160048083019260209291908290030181865afa1580156100c7573d5f803e3d5ffd5b505050506040513d601f19601f820116820180604052508101906100eb919061032f565b6040516001600160e01b031960e085901b168152600481019290925261ffff1660248201523360448201526064015f60405180830381865afa158015610133573d5f803e3d5ffd5b505050506040513d5f823e601f3d908101601f1916820160405261015a919081019061038d565b5f8054604051630cae37f160e01b815292935090916001600160a01b0390911690630cae37f1906101919085903390600401610435565b6020604051808303815f875af11580156101ad573d5f803e3d5ffd5b505050506040513d601f19601f820116820180604052508101906101d19190610478565b1515949350505050565b6001545f805460408051630d411b1f60e11b81529051929384936001600160a01b03918216936343596609938893909116918591631a82363e9160048083019260209291908290030181865afa158015610237573d5f803e3d5ffd5b505050506040513d601f19601f8201168201806040525081019061025b919061032f565b6040516001600160e01b031960e086901b16815260048101939093526001600160a01b03909116602483015261ffff1660448201523360648201819052608482015260a4015f60405180830381865afa1580156102ba573d5f803e3d5ffd5b505050506040513d5f823e601f3d908101601f191682016040526102e1919081019061038d565b5f80546040516305d04beb60e11b815292935090916001600160a01b0390911690630ba097d6906101919085903390600401610435565b5f60208284031215610328575f80fd5b5035919050565b5f6020828403121561033f575f80fd5b815161ffff81168114610350575f80fd5b9392505050565b634e487b7160e01b5f52604160045260245ffd5b5f5b8381101561038557818101518382015260200161036d565b50505f910152565b5f6020828403121561039d575f80fd5b815167ffffffffffffffff808211156103b4575f80fd5b818401915084601f8301126103c7575f80fd5b8151818111156103d9576103d9610357565b604051601f8201601f19908116603f0116810190838211818310171561040157610401610357565b81604052828152876020848701011115610419575f80fd5b61042a83602083016020880161036b565b979650505050505050565b604081525f835180604084015261045381606085016020880161036b565b6001600160a01b0393909316602083015250601f91909101601f191601606001919050565b5f60208284031215610488575f80fd5b505191905056fea2646970667358221220fae047b1564cbf7350df89647375d89b29b1a02c9719831951bcd9b86dbd7c2064736f6c63430008180033","linkReferences":{}},"methodIdentifiers":{"mintOz(uint256)":"4980b68c","redeemOz(uint256)":"d2e914d2"},"id":145}