{
  "abi": [
    {
      "inputs": [
        {
          "internalType": "address",
          "name": "ozToken_",
          "type": "address"
        },
        {
          "internalType": "address",
          "name": "oz_",
          "type": "address"
        }
      ],
      "stateMutability": "nonpayable",
      "type": "constructor"
    },
    {
      "inputs": [
        {
          "internalType": "address",
          "name": "underlying_",
          "type": "address"
        },
        {
          "internalType": "uint256",
          "name": "amountIn_",
          "type": "uint256"
        }
      ],
      "name": "mintOz",
      "outputs": [
        {
          "internalType": "bool",
          "name": "",
          "type": "bool"
        }
      ],
      "stateMutability": "nonpayable",
      "type": "function"
    }
  ],
  "bytecode": {
    "object": "0x608060405234801561001057600080fd5b5060405161017d38038061017d83398101604081905261002f9161007c565b600080546001600160a01b039384166001600160a01b031991821617909155600180549290931691161790556100af565b80516001600160a01b038116811461007757600080fd5b919050565b6000806040838503121561008f57600080fd5b61009883610060565b91506100a660208401610060565b90509250929050565b60c0806100bd6000396000f3fe6080604052348015600f57600080fd5b506004361060285760003560e01c8063b0ee5ebf14602d575b600080fd5b604060383660046054565b600092915050565b604051901515815260200160405180910390f35b60008060408385031215606657600080fd5b82356001600160a01b0381168114607c57600080fd5b94602093909301359350505056fea2646970667358221220371420a85655c2a06768a28dd4b172a4fb22e02e28b35a19c8b8c6e8a5f1cbe464736f6c63430008150033",
    "linkReferences": {}
  },
  "methodIdentifiers": {
    "mintOz(address,uint256)": "b0ee5ebf"
  },
  "id": 103
}