{
  "abi": [
    {
      "inputs": [
        {
          "internalType": "address",
          "name": "ozToken_",
          "type": "address"
        },
        {
          "internalType": "address",
          "name": "oz_",
          "type": "address"
        }
      ],
      "stateMutability": "nonpayable",
      "type": "constructor"
    },
    {
      "inputs": [
        {
          "internalType": "address",
          "name": "underlying_",
          "type": "address"
        },
        {
          "internalType": "uint256",
          "name": "amountIn_",
          "type": "uint256"
        }
      ],
      "name": "mintOz",
      "outputs": [
        {
          "internalType": "bool",
          "name": "",
          "type": "bool"
        }
      ],
      "stateMutability": "nonpayable",
      "type": "function"
    }
  ],
  "bytecode": {
    "object": "0x608060405234801561001057600080fd5b5060405161046e38038061046e83398101604081905261002f9161007c565b600080546001600160a01b039384166001600160a01b031991821617909155600180549290931691161790556100af565b80516001600160a01b038116811461007757600080fd5b919050565b6000806040838503121561008f57600080fd5b61009883610060565b91506100a660208401610060565b90509250929050565b6103b0806100be6000396000f3fe608060405234801561001057600080fd5b506004361061002b5760003560e01c8063b0ee5ebf14610030575b600080fd5b61004361003e3660046101e4565b610057565b604051901515815260200160405180910390f35b60015460408051630d411b1f60e11b8152905160009283926001600160a01b039091169163da4e2c3e91869188918591631a82363e916004808201926020929091908290030181865afa1580156100b2573d6000803e3d6000fd5b505050506040513d601f19601f820116820180604052508101906100d6919061021c565b6040516001600160e01b031960e086901b16815260048101939093526001600160a01b03909116602483015261ffff1660448201523360648201819052608482015260a401600060405180830381865afa158015610138573d6000803e3d6000fd5b505050506040513d6000823e601f3d908101601f191682016040526101609190810190610281565b60008054604051637ba0e2e760e01b815292935090916001600160a01b0390911690637ba0e2e79061019690859060040161032e565b6020604051808303816000875af11580156101b5573d6000803e3d6000fd5b505050506040513d601f19601f820116820180604052508101906101d99190610361565b151595945050505050565b600080604083850312156101f757600080fd5b82356001600160a01b038116811461020e57600080fd5b946020939093013593505050565b60006020828403121561022e57600080fd5b815161ffff8116811461024057600080fd5b9392505050565b634e487b7160e01b600052604160045260246000fd5b60005b83811015610278578181015183820152602001610260565b50506000910152565b60006020828403121561029357600080fd5b815167ffffffffffffffff808211156102ab57600080fd5b818401915084601f8301126102bf57600080fd5b8151818111156102d1576102d1610247565b604051601f8201601f19908116603f011681019083821181831017156102f9576102f9610247565b8160405282815287602084870101111561031257600080fd5b61032383602083016020880161025d565b979650505050505050565b602081526000825180602084015261034d81604085016020870161025d565b601f01601f19169190910160400192915050565b60006020828403121561037357600080fd5b505191905056fea264697066735822122008a9084faf9680182ecd6586b88ad7170045581ccf000eb20361b416a256678464736f6c63430008150033",
    "linkReferences": {}
  },
  "methodIdentifiers": {
    "mintOz(address,uint256)": "b0ee5ebf"
  },
  "id": 103
}