{
  "abi": [
    {
      "inputs": [
        {
          "internalType": "address",
          "name": "ozToken_",
          "type": "address"
        }
      ],
      "stateMutability": "nonpayable",
      "type": "constructor"
    },
    {
      "inputs": [],
      "name": "mintOz",
      "outputs": [
        {
          "internalType": "bool",
          "name": "",
          "type": "bool"
        }
      ],
      "stateMutability": "nonpayable",
      "type": "function"
    }
  ],
  "bytecode": {
    "object": "0x608060405234801561001057600080fd5b5060405161010938038061010983398101604081905261002f91610054565b600080546001600160a01b0319166001600160a01b0392909216919091179055610084565b60006020828403121561006657600080fd5b81516001600160a01b038116811461007d57600080fd5b9392505050565b6077806100926000396000f3fe6080604052348015600f57600080fd5b506004361060285760003560e01c806386f2613514602d575b600080fd5b604080516000815290519081900360200190f3fea2646970667358221220646f0b2da55174be9ab1e5c92d44ce8a047512db0746b37825c8beecdce96c3d64736f6c63430008150033",
    "linkReferences": {}
  },
  "methodIdentifiers": {
    "mintOz()": "86f26135"
  },
  "id": 102
}