{"abi":[{"type":"constructor","inputs":[{"name":"ozToken_","type":"address","internalType":"address"},{"name":"oz_","type":"address","internalType":"address"}],"stateMutability":"nonpayable"},{"type":"function","name":"mintOz","inputs":[{"name":"underlying_","type":"address","internalType":"address"},{"name":"amountIn_","type":"uint256","internalType":"uint256"}],"outputs":[{"name":"","type":"bool","internalType":"bool"}],"stateMutability":"nonpayable"},{"type":"function","name":"redeemOz","inputs":[{"name":"ozAmountIn_","type":"uint256","internalType":"uint256"}],"outputs":[{"name":"","type":"bool","internalType":"bool"}],"stateMutability":"nonpayable"}],"bytecode":{"object":"0x608060405234801561001057600080fd5b5060405161063c38038061063c83398101604081905261002f9161007c565b600080546001600160a01b039384166001600160a01b031991821617909155600180549290931691161790556100af565b80516001600160a01b038116811461007757600080fd5b919050565b6000806040838503121561008f57600080fd5b61009883610060565b91506100a660208401610060565b90509250929050565b61057e806100be6000396000f3fe608060405234801561001057600080fd5b50600436106100365760003560e01c8063b0ee5ebf1461003b578063d2e914d214610062575b600080fd5b61004e610049366004610388565b610075565b604051901515815260200160405180910390f35b61004e6100703660046103c0565b6101fd565b60015460408051630d411b1f60e11b8152905160009283926001600160a01b039091169163635d12cc91869188918591631a82363e916004808201926020929091908290030181865afa1580156100d0573d6000803e3d6000fd5b505050506040513d601f19601f820116820180604052508101906100f491906103d9565b6040516001600160e01b031960e086901b16815260048101939093526001600160a01b03909116602483015261ffff166044820152336064820152608401600060405180830381865afa15801561014f573d6000803e3d6000fd5b505050506040513d6000823e601f3d908101601f19168201604052610177919081019061043e565b60008054604051630cae37f160e01b815292935090916001600160a01b0390911690630cae37f1906101af90859033906004016104eb565b6020604051808303816000875af11580156101ce573d6000803e3d6000fd5b505050506040513d601f19601f820116820180604052508101906101f2919061052f565b151595945050505050565b6001546000805460408051630d411b1f60e11b81529051929384936001600160a01b0391821693632e19905c938893909116918591631a82363e9160048083019260209291908290030181865afa15801561025c573d6000803e3d6000fd5b505050506040513d601f19601f8201168201806040525081019061028091906103d9565b6040516001600160e01b031960e086901b16815260048101939093526001600160a01b03909116602483015261ffff166044820152336064820152608401600060405180830381865afa1580156102db573d6000803e3d6000fd5b505050506040513d6000823e601f3d908101601f19168201604052610303919081019061043e565b600080546040516305d04beb60e11b815292935090916001600160a01b0390911690630ba097d69061033b90859033906004016104eb565b6020604051808303816000875af115801561035a573d6000803e3d6000fd5b505050506040513d601f19601f8201168201806040525081019061037e919061052f565b1515949350505050565b6000806040838503121561039b57600080fd5b82356001600160a01b03811681146103b257600080fd5b946020939093013593505050565b6000602082840312156103d257600080fd5b5035919050565b6000602082840312156103eb57600080fd5b815161ffff811681146103fd57600080fd5b9392505050565b634e487b7160e01b600052604160045260246000fd5b60005b8381101561043557818101518382015260200161041d565b50506000910152565b60006020828403121561045057600080fd5b815167ffffffffffffffff8082111561046857600080fd5b818401915084601f83011261047c57600080fd5b81518181111561048e5761048e610404565b604051601f8201601f19908116603f011681019083821181831017156104b6576104b6610404565b816040528281528760208487010111156104cf57600080fd5b6104e083602083016020880161041a565b979650505050505050565b604081526000835180604084015261050a81606085016020880161041a565b6001600160a01b0393909316602083015250601f91909101601f191601606001919050565b60006020828403121561054157600080fd5b505191905056fea2646970667358221220547c3326e545c1c966177acaf61e599881dacc6b087ca89d0f3818f4bcba2f1c64736f6c63430008150033","linkReferences":{}},"methodIdentifiers":{"mintOz(address,uint256)":"b0ee5ebf","redeemOz(uint256)":"d2e914d2"},"id":119}