{"abi":[{"type":"constructor","inputs":[],"stateMutability":"nonpayable"},{"type":"function","name":"getAddress","inputs":[{"name":"key_","type":"bytes32","internalType":"bytes32"}],"outputs":[{"name":"toReturn","type":"address","internalType":"address"}],"stateMutability":"view"},{"type":"function","name":"settingsDeposit","inputs":[],"outputs":[{"name":"","type":"address","internalType":"address"}],"stateMutability":"view"},{"type":"function","name":"vault","inputs":[],"outputs":[{"name":"","type":"address","internalType":"address"}],"stateMutability":"view"}],"bytecode":{"object":"0x608060405234801561000f575f80fd5b5060405161001c906100a0565b604051809103905ff080158015610035573d5f803e3d5ffd5b505f80546001600160a01b0319166001600160a01b0392909216919091179055604051610061906100ad565b604051809103905ff08015801561007a573d5f803e3d5ffd5b50600180546001600160a01b0319166001600160a01b03929092169190911790556100b9565b6102428061027f83390190565b608d806104c183390190565b6101b9806100c65f395ff3fe608060405234801561000f575f80fd5b506004361061003f575f3560e01c806321f8a72114610043578063dcee63e114610072578063fbfa77cf14610085575b5f80fd5b61005661005136600461016c565b610097565b6040516001600160a01b03909116815260200160405180910390f35b600154610056906001600160a01b031681565b5f54610056906001600160a01b031681565b6040516f636f6e74726163742e6164647265737360801b60208201526a1c9bd8dad95d15985d5b1d60aa1b60308201525f90603b016040516020818303038152906040528051906020012082036100f85750505f546001600160a01b031690565b6040516f636f6e74726163742e6164647265737360801b60208201527f726f636b657444414f50726f746f636f6c53657474696e67734465706f736974603082015260500160405160208183030381529060405280519060200120820361016757506001546001600160a01b03165b919050565b5f6020828403121561017c575f80fd5b503591905056fea26469706673582212200bc66e95a3d9f6603a0449c234962ca558f1f6b25e6d2f8fd7feb09baa798c8f64736f6c63430008180033608060405234801561000f575f80fd5b506102258061001d5f395ff3fe608060405234801561000f575f80fd5b5060043610610029575f3560e01c806335ee5f871461002d575b5f80fd5b61004061003b366004610118565b610052565b60405190815260200160405180910390f35b5f805460ff1615610063575f6100a3565b6040805180820190915260118152701c9bd8dad95d11195c1bdcda5d141bdbdb607a1b60208201526100969083906100ac565b6100a0575f6100a3565b60015b60ff1692915050565b5f816040516020016100be91906101c3565b60405160208183030381529060405280519060200120836040516020016100e591906101c3565b6040516020818303038152906040528051906020012014905092915050565b634e487b7160e01b5f52604160045260245ffd5b5f60208284031215610128575f80fd5b813567ffffffffffffffff8082111561013f575f80fd5b818401915084601f830112610152575f80fd5b81358181111561016457610164610104565b604051601f8201601f19908116603f0116810190838211818310171561018c5761018c610104565b816040528281528760208487010111156101a4575f80fd5b826020860160208301375f928101602001929092525095945050505050565b5f82515f5b818110156101e257602081860181015185830152016101c8565b505f92019182525091905056fea2646970667358221220ffb873a29176d8219888d4b5b7cfe01b1e3c902e8f0f56b9dcb059e5a3688d4d64736f6c634300081800336080604052348015600e575f80fd5b50607380601a5f395ff3fe6080604052348015600e575f80fd5b50600436106026575f3560e01c8063fd6ce89e14602a575b5f80fd5b5f60405190815260200160405180910390f3fea26469706673582212204da1b2094ec75856512b8f5efde7983a564d2ebc24bbd0aa96ac4cb8738960af64736f6c63430008180033","linkReferences":{}},"methodIdentifiers":{"getAddress(bytes32)":"21f8a721","settingsDeposit()":"dcee63e1","vault()":"fbfa77cf"},"id":130}