{"abi":[{"type":"constructor","inputs":[],"stateMutability":"nonpayable"},{"type":"function","name":"getAddress","inputs":[{"name":"key_","type":"bytes32","internalType":"bytes32"}],"outputs":[{"name":"toReturn","type":"address","internalType":"address"}],"stateMutability":"view"},{"type":"function","name":"settingsDeposit","inputs":[],"outputs":[{"name":"","type":"address","internalType":"address"}],"stateMutability":"view"},{"type":"function","name":"vault","inputs":[],"outputs":[{"name":"","type":"address","internalType":"address"}],"stateMutability":"view"}],"bytecode":{"object":"0x608060405234801561001057600080fd5b5060405161001d906100a8565b604051809103906000f080158015610039573d6000803e3d6000fd5b50600080546001600160a01b0319166001600160a01b0392909216919091179055604051610066906100b5565b604051809103906000f080158015610082573d6000803e3d6000fd5b50600180546001600160a01b0319166001600160a01b03929092169190911790556100c1565b6102578061029183390190565b6094806104e883390190565b6101c1806100d06000396000f3fe608060405234801561001057600080fd5b50600436106100415760003560e01c806321f8a72114610046578063dcee63e114610075578063fbfa77cf14610088575b600080fd5b610059610054366004610172565b61009b565b6040516001600160a01b03909116815260200160405180910390f35b600154610059906001600160a01b031681565b600054610059906001600160a01b031681565b6040516f636f6e74726163742e6164647265737360801b60208201526a1c9bd8dad95d15985d5b1d60aa1b6030820152600090603b016040516020818303038152906040528051906020012082036100fe5750506000546001600160a01b031690565b6040516f636f6e74726163742e6164647265737360801b60208201527f726f636b657444414f50726f746f636f6c53657474696e67734465706f736974603082015260500160405160208183030381529060405280519060200120820361016d57506001546001600160a01b03165b919050565b60006020828403121561018457600080fd5b503591905056fea26469706673582212204ae5b7f30d58c102f90fef61eb637dd4a2046e2561d1c49779f112e56fc1a78764736f6c63430008180033608060405234801561001057600080fd5b50610237806100206000396000f3fe608060405234801561001057600080fd5b506004361061002b5760003560e01c806335ee5f8714610030575b600080fd5b61004361003e366004610121565b610055565b60405190815260200160405180910390f35b6000805460ff16156100685760006100a9565b6040805180820190915260118152701c9bd8dad95d11195c1bdcda5d141bdbdb607a1b602082015261009b9083906100b2565b6100a65760006100a9565b60015b60ff1692915050565b6000816040516020016100c591906101d2565b60405160208183030381529060405280519060200120836040516020016100ec91906101d2565b6040516020818303038152906040528051906020012014905092915050565b634e487b7160e01b600052604160045260246000fd5b60006020828403121561013357600080fd5b813567ffffffffffffffff8082111561014b57600080fd5b818401915084601f83011261015f57600080fd5b8135818111156101715761017161010b565b604051601f8201601f19908116603f011681019083821181831017156101995761019961010b565b816040528281528760208487010111156101b257600080fd5b826020860160208301376000928101602001929092525095945050505050565b6000825160005b818110156101f357602081860181015185830152016101d9565b50600092019182525091905056fea2646970667358221220093e085f6cb04a0034452698f650bb5122f9e4adcf3881d96e4028ba581d76fc64736f6c634300081800336080604052348015600f57600080fd5b50607780601d6000396000f3fe6080604052348015600f57600080fd5b506004361060285760003560e01c8063fd6ce89e14602d575b600080fd5b600060405190815260200160405180910390f3fea2646970667358221220e042ae2fb807ed5c2e7f8d6e934fdba1849eb5366e02f359e89b6e95386a84c664736f6c63430008180033","linkReferences":{}},"methodIdentifiers":{"getAddress(bytes32)":"21f8a721","settingsDeposit()":"dcee63e1","vault()":"fbfa77cf"},"id":128}