{"abi":[{"type":"function","name":"DISPUTE_BUFFER","inputs":[],"outputs":[{"name":"","type":"uint256","internalType":"uint256"}],"stateMutability":"view"},{"type":"function","name":"ETH_USD","inputs":[],"outputs":[{"name":"","type":"uint256","internalType":"uint256"}],"stateMutability":"view"},{"type":"function","name":"TIMEOUT_EXTENDED","inputs":[],"outputs":[{"name":"","type":"uint256","internalType":"uint256"}],"stateMutability":"view"},{"type":"function","name":"TIMEOUT_LINK","inputs":[],"outputs":[{"name":"","type":"uint256","internalType":"uint256"}],"stateMutability":"view"},{"type":"function","name":"chargeOZLfee","inputs":[],"outputs":[{"name":"","type":"bool","internalType":"bool"}],"stateMutability":"nonpayable"},{"type":"function","name":"getLastRewards","inputs":[],"outputs":[{"name":"","type":"tuple","internalType":"struct LastRewards","components":[{"name":"lastBlock","type":"uint256","internalType":"uint256"},{"name":"prevTotalRewards","type":"uint256","internalType":"uint256"}]}],"stateMutability":"view"},{"type":"function","name":"getOracleBackUp1","inputs":[],"outputs":[{"name":"","type":"bool","internalType":"bool"},{"name":"","type":"uint256","internalType":"uint256"}],"stateMutability":"view"},{"type":"function","name":"getOracleBackUp2","inputs":[],"outputs":[{"name":"","type":"bool","internalType":"bool"},{"name":"","type":"uint256","internalType":"uint256"}],"stateMutability":"view"},{"type":"function","name":"getUnderlyingValue","inputs":[{"name":"ozToken_","type":"address","internalType":"address"}],"outputs":[{"name":"","type":"uint256","internalType":"uint256"}],"stateMutability":"view"},{"type":"function","name":"getUniPrice","inputs":[{"name":"token0_","type":"address","internalType":"address"},{"name":"token1_","type":"address","internalType":"address"},{"name":"fee_","type":"uint24","internalType":"uint24"},{"name":"side_","type":"uint8","internalType":"enum Dir"}],"outputs":[{"name":"","type":"uint256","internalType":"uint256"}],"stateMutability":"view"},{"type":"function","name":"rETH_ETH","inputs":[],"outputs":[{"name":"","type":"uint256","internalType":"uint256"}],"stateMutability":"view"},{"type":"function","name":"rETH_USD","inputs":[],"outputs":[{"name":"","type":"uint256","internalType":"uint256"}],"stateMutability":"view"},{"type":"function","name":"setValuePerOzToken","inputs":[{"name":"ozToken_","type":"address","internalType":"address"},{"name":"amount_","type":"uint256","internalType":"uint256"},{"name":"addOrSub_","type":"bool","internalType":"bool"}],"outputs":[],"stateMutability":"nonpayable"},{"type":"event","name":"OzRewards","inputs":[{"name":"blockNumber","type":"uint256","indexed":false,"internalType":"uint256"},{"name":"ozelFeesInRETH","type":"uint256","indexed":false,"internalType":"uint256"},{"name":"totalRewards","type":"int256","indexed":false,"internalType":"int256"},{"name":"currentRewards","type":"int256","indexed":false,"internalType":"int256"}],"anonymous":false},{"type":"error","name":"OZError14","inputs":[{"name":"blockNumber","type":"uint256","internalType":"uint256"}]},{"type":"error","name":"OZError23","inputs":[{"name":"baseToken","type":"address","internalType":"address"}]}],"bytecode":{"object":"0x608060405234801561001057600080fd5b50611d76806100206000396000f3fe608060405234801561001057600080fd5b50600436106100cf5760003560e01c806397d2ead21161008c578063d4afb73a11610066578063d4afb73a146101a8578063ddcd8f68146101b0578063f32cabc5146101c3578063f424c4ba146101cb57600080fd5b806397d2ead214610177578063b0ff97b51461018a578063c18748671461019f57600080fd5b80630b842e3b146100d45780632cc3eb0a146100f857806340f1a34b146101365780636260f55b1461014d5780638c4c501d146101555780638e9cd10c1461015f575b600080fd5b6100dc6101d3565b6040805192151583526020830191909152015b60405180910390f35b6040805180820182526000808252602091820152815180830183526014548082526015549183019182528351908152905191810191909152016100ef565b61013f61384081565b6040519081526020016100ef565b61013f610332565b61013f6201518081565b61016761037c565b60405190151581526020016100ef565b61013f6101853660046116a6565b61058f565b61019d6101983660046116d1565b61065b565b005b61013f61038481565b61013f6106c7565b61013f6101be366004611713565b610703565b6100dc610995565b61013f610a33565b60008060006040516020016102199060408082526003908201819052620cae8d60eb1b6060830152608060208301819052820152621d5cd960ea1b60a082015260c00190565b60408051601f19818403018152908290526102369160200161179f565b60408051601f198184030181529190528051602090910120602354909150600090819081906001600160a01b031663a792765f8561027661038442611808565b6040516001600160e01b031960e085901b16815260048101929092526024820152604401600060405180830381865afa1580156102b7573d6000803e3d6000fd5b505050506040513d6000823e601f3d908101601f191682016040526102df9190810190611862565b9250925092508215806102fd5750620151806102fb8242611808565b115b1561031057506000958695509350505050565b6001828060200190518101906103269190611915565b95509550505050509091565b60075460009081908190610350906001600160a01b03166001610a67565b91509150816103735760035461036e906001600160a01b0316610b9c565b610375565b805b9250505090565b6009546040516370a0823160e01b815230600482015260009182916001600160a01b03909116906370a0823190602401602060405180830381865afa1580156103c9573d6000803e3d6000fd5b505050506040513d601f19601f820116820180604052508101906103ed9190611915565b90506000805b6001548110156104a55760018054829081106104115761041161192e565b600091825260209182902060029091020154604080516278744560e21b815290516001600160a01b03909216926301e1d114926004808401938290030181865afa158015610463573d6000803e3d6000fd5b505050506040513d601f19601f820116820180604052508101906104879190611915565b6104919083611944565b91508061049d81611957565b9150506103f3565b5060145443116104cf5760405163dcfa2bfd60e01b81524360048201526024015b60405180910390fd5b6000806104dc8385610d59565b909250905060006104ed8383611970565b9050600081136105035760009550505050505090565b6015546000906105139083611970565b90506000811361052a576000965050505050505090565b60006105368383610dc7565b6040805143815260208101839052908101859052606081018490529091507fd47935b2f6fd998224fcce47e28065f692a3452b54180fd1e43ba90daf9eb1949060800160405180910390a1600197505050505050505090565b6000806001600160a01b03831630146105c0576001600160a01b03831660009081526021602052604090205461062c565b6009546040516370a0823160e01b81523060048201526001600160a01b03909116906370a0823190602401602060405180830381865afa158015610608573d6000803e3d6000fd5b505050506040513d601f19601f8201168201806040525081019061062c9190611915565b9050670de0b6b3a764000081610640610a33565b61064a9190611990565b61065491906119bd565b9392505050565b8015610694576001600160a01b03831660009081526021602052604081208054849290610689908490611944565b909155506106c29050565b6001600160a01b038316600090815260216020526040812080548492906106bc908490611808565b90915550505b505050565b600a54600090819081906106e5906001600160a01b03166001610a67565b91509150816103735760095461036e906001600160a01b0316610b9c565b602254604051630b4c774160e11b81526001600160a01b038681166004830152858116602483015262ffffff851660448301526000928392911690631698ee8290606401602060405180830381865afa158015610764573d6000803e3d6000fd5b505050506040513d601f19601f8201168201806040525081019061078891906119d1565b905060008084600181111561079f5761079f6119ee565b146107ad57620151806107b1565b6107085b60408051600280825260608201835262ffffff939093169350600092909160208301908036833701905050905081816000815181106107f2576107f261192e565b602002602001019063ffffffff16908163ffffffff16815250506000816001815181106108215761082161192e565b63ffffffff9092166020928302919091019091015260405163883bdbfd60e01b81526000906001600160a01b0385169063883bdbfd90610865908590600401611a04565b600060405180830381865afa158015610882573d6000803e3d6000fd5b505050506040513d6000823e601f3d908101601f191682016040526108aa9190810190611ae6565b5090506000816000815181106108c2576108c261192e565b6020026020010151826001815181106108dd576108dd61192e565b60200260200101516108ef9190611bb2565b90506000610901600386900b83611bdf565b905060008260060b128015610925575061091f600386900b83611c1d565b60060b15155b15610938578061093481611c3f565b9150505b600061094e82670de0b6b3a76400008e8e610eb9565b6003549091506001600160a01b038c81169116146109715764e8d4a51000610974565b60015b6109859064ffffffffff1682611990565b9c9b505050505050505050505050565b6024546000908190819081906109b4906001600160a01b031682610a67565b602554919350915060009081906109d4906001600160a01b031682610a67565b915091508380156109e25750815b15610a25576000610a1682670de0b6b3a7640000610a0f876ec097ce7bc90715b34b9f10000000006119bd565b9190610fc7565b60019890975095505050505050565b506000958695509350505050565b6000670de0b6b3a7640000610a46610332565b610a4e6106c7565b610a589190611990565b610a6291906119bd565b905090565b6000806138406402540be40084610a7f576201518091505b600a546001600160a01b0390811690871603610a99575060015b6000806000886001600160a01b031663feaf968c6040518163ffffffff1660e01b815260040160a060405180830381865afa158015610adc573d6000803e3d6000fd5b505050506040513d601f19601f82011682018060405250810190610b009190611c81565b50935050925092508269ffffffffffffffffffff166000141580610b3157506024546001600160a01b038a81169116145b8015610b3d5750600082135b8015610b4857508015155b8015610b545750428111155b8015610b69575084610b668242611808565b11155b15610b88576001610b7a8584611990565b965096505050505050610b95565b6000809650965050505050505b9250929050565b6003546000906001600160a01b0390811690831603610c2f57600354600454601354600092610bdf926001600160a01b039182169291169062ffffff1684610703565b9050600080610bec6101d3565b91509150600080610bfb610995565b91509150838015610c095750815b15610c2457610c19858483610fe5565b979650505050505050565b509295945050505050565b6009546001600160a01b0390811690831603610d3557600954600354601354600092610c6f926001600160a01b039182169291169062ffffff1684610703565b600954600354601354929350600092610ca2926001600160a01b039081169216906301000000900462ffffff1684610703565b905060008060090160009054906101000a90046001600160a01b03166001600160a01b031663e6aa216c6040518163ffffffff1660e01b8152600401602060405180830381865afa158015610cfb573d6000803e3d6000fd5b505050506040513d601f19601f82011682018060405250810190610d1f9190611915565b9050610d2c838383610fe5565b95945050505050565b60405163715ed81960e01b81526001600160a01b03831660048201526024016104c6565b6000806000610d66610332565b610d758664e8d4a51000611990565b610d8790670de0b6b3a7640000611990565b610d9191906119bd565b90506000670de0b6b3a7640000610da66106c7565b610db09087611990565b610dba91906119bd565b9196919550909350505050565b6013546000908190610deb906601000000000000900462ffffff1684612710610fc7565b601585905590506000610dfc6106c7565b610e0e83670de0b6b3a7640000611990565b610e1891906119bd565b90506000610e2582611052565b60095460135460405163a9059cbb60e01b81526001600160a01b0369010000000000000000009092048216600482015260248101849052929350169063a9059cbb906044016020604051808303816000875af1158015610e89573d6000803e3d6000fd5b505050506040513d601f19601f82011682018060405250810190610ead9190611cd1565b50925050505b92915050565b600080610ec5866110f8565b90506001600160801b036001600160a01b03821611610f4b576000610ef36001600160a01b03831680611990565b9050836001600160a01b0316856001600160a01b031610610f2b57610f26600160c01b876001600160801b031683611518565b610f43565b610f4381876001600160801b0316600160c01b611518565b925050610fbe565b6000610f6a6001600160a01b0383168068010000000000000000611518565b9050836001600160a01b0316856001600160a01b031610610fa257610f9d600160801b876001600160801b031683611518565b610fba565b610fba81876001600160801b0316600160801b611518565b9250505b50949350505050565b6000826000190484118302158202610fde57600080fd5b5091020490565b6000828410158015610ff75750818411155b8061100d575082841115801561100d5750818410155b15611019575082610654565b8383101580156110295750818311155b8061103f575083831115801561103f5750818310155b1561104b575081610654565b5092915050565b601f54600090819061107290600160a01b900461ffff1684612710610fc7565b600954601f5460405163a9059cbb60e01b81526001600160a01b03918216600482015260248101849052929350169063a9059cbb906044016020604051808303816000875af11580156110c9573d6000803e3d6000fd5b505050506040513d601f19601f820116820180604052508101906110ed9190611cd1565b506106548184611808565b60008060008360020b1261110f578260020b61111c565b8260020b61111c90611cee565b905061112b620d89e719611d0a565b60020b8111156111615760405162461bcd60e51b81526020600482015260016024820152601560fa1b60448201526064016104c6565b60008160011660000361117857600160801b61118a565b6ffffcb933bd6fad37aa2d162d1a5940015b70ffffffffffffffffffffffffffffffffff16905060028216156111c95760806111c4826ffff97272373d413259a46990580e213a611990565b901c90505b60048216156111f35760806111ee826ffff2e50f5f656932ef12357cf3c7fdcc611990565b901c90505b600882161561121d576080611218826fffe5caca7e10e4e61c3624eaa0941cd0611990565b901c90505b6010821615611247576080611242826fffcb9843d60f6159c9db58835c926644611990565b901c90505b602082161561127157608061126c826fff973b41fa98c081472e6896dfb254c0611990565b901c90505b604082161561129b576080611296826fff2ea16466c96a3843ec78b326b52861611990565b901c90505b60808216156112c55760806112c0826ffe5dee046a99a2a811c461f1969c3053611990565b901c90505b6101008216156112f05760806112eb826ffcbe86c7900a88aedcffc83b479aa3a4611990565b901c90505b61020082161561131b576080611316826ff987a7253ac413176f2b074cf7815e54611990565b901c90505b610400821615611346576080611341826ff3392b0822b70005940c7a398e4b70f3611990565b901c90505b61080082161561137157608061136c826fe7159475a2c29b7443b29c7fa6e889d9611990565b901c90505b61100082161561139c576080611397826fd097f3bdfd2022b8845ad8f792aa5825611990565b901c90505b6120008216156113c75760806113c2826fa9f746462d870fdf8a65dc1f90e061e5611990565b901c90505b6140008216156113f25760806113ed826f70d869a156d2a1b890bb3df62baf32f7611990565b901c90505b61800082161561141d576080611418826f31be135f97d08fd981231505542fcfa6611990565b901c90505b62010000821615611449576080611444826f09aa508b5b7a84e1c677de54f3e99bc9611990565b901c90505b6202000082161561147457608061146f826e5d6af8dedb81196699c329225ee604611990565b901c90505b6204000082161561149e576080611499826d2216e584f5fa1ea926041bedfe98611990565b901c90505b620800008216156114c65760806114c1826b048a170391f7dc42444e8fa2611990565b901c90505b60008460020b13156114e1576114de816000196119bd565b90505b6114f064010000000082611d2c565b156114fc5760016114ff565b60005b6115109060ff16602083901c611944565b949350505050565b6000808060001985870985870292508281108382030391505080600003611551576000841161154657600080fd5b508290049050610654565b80841161155d57600080fd5b60008486880980840393811190920391905060008561157b81611cee565b1695869004959384900493600081900304600101905061159b8184611990565b9093179260006115ac876003611990565b60021890506115bb8188611990565b6115c6906002611808565b6115d09082611990565b90506115dc8188611990565b6115e7906002611808565b6115f19082611990565b90506115fd8188611990565b611608906002611808565b6116129082611990565b905061161e8188611990565b611629906002611808565b6116339082611990565b905061163f8188611990565b61164a906002611808565b6116549082611990565b90506116608188611990565b61166b906002611808565b6116759082611990565b90506116818186611990565b9998505050505050505050565b6001600160a01b03811681146116a357600080fd5b50565b6000602082840312156116b857600080fd5b81356106548161168e565b80151581146116a357600080fd5b6000806000606084860312156116e657600080fd5b83356116f18161168e565b9250602084013591506040840135611708816116c3565b809150509250925092565b6000806000806080858703121561172957600080fd5b84356117348161168e565b935060208501356117448161168e565b9250604085013562ffffff8116811461175c57600080fd5b915060608501356002811061177057600080fd5b939692955090935050565b60005b8381101561179657818101518382015260200161177e565b50506000910152565b60408152600960408201526853706f74507269636560b81b606082015260806020820152600082518060808401526117de8160a085016020870161177b565b601f01601f19169190910160a00192915050565b634e487b7160e01b600052601160045260246000fd5b81810381811115610eb357610eb36117f2565b634e487b7160e01b600052604160045260246000fd5b604051601f8201601f1916810167ffffffffffffffff8111828210171561185a5761185a61181b565b604052919050565b60008060006060848603121561187757600080fd5b8351611882816116c3565b602085015190935067ffffffffffffffff808211156118a057600080fd5b818601915086601f8301126118b457600080fd5b8151818111156118c6576118c661181b565b6118d9601f8201601f1916602001611831565b91508082528760208285010111156118f057600080fd5b61190181602084016020860161177b565b508093505050604084015190509250925092565b60006020828403121561192757600080fd5b5051919050565b634e487b7160e01b600052603260045260246000fd5b80820180821115610eb357610eb36117f2565b600060018201611969576119696117f2565b5060010190565b818103600083128015838313168383128216171561104b5761104b6117f2565b8082028115828204841417610eb357610eb36117f2565b634e487b7160e01b600052601260045260246000fd5b6000826119cc576119cc6119a7565b500490565b6000602082840312156119e357600080fd5b81516106548161168e565b634e487b7160e01b600052602160045260246000fd5b6020808252825182820181905260009190848201906040850190845b81811015611a4257835163ffffffff1683529284019291840191600101611a20565b50909695505050505050565b600067ffffffffffffffff821115611a6857611a6861181b565b5060051b60200190565b600082601f830112611a8357600080fd5b81516020611a98611a9383611a4e565b611831565b82815260059290921b84018101918181019086841115611ab757600080fd5b8286015b84811015611adb578051611ace8161168e565b8352918301918301611abb565b509695505050505050565b60008060408385031215611af957600080fd5b825167ffffffffffffffff80821115611b1157600080fd5b818501915085601f830112611b2557600080fd5b81516020611b35611a9383611a4e565b82815260059290921b84018101918181019089841115611b5457600080fd5b948201945b83861015611b825785518060060b8114611b735760008081fd5b82529482019490820190611b59565b91880151919650909350505080821115611b9b57600080fd5b50611ba885828601611a72565b9150509250929050565b600682810b9082900b03667fffffffffffff198112667fffffffffffff82131715610eb357610eb36117f2565b60008160060b8360060b80611bf657611bf66119a7565b667fffffffffffff19821460001982141615611c1457611c146117f2565b90059392505050565b60008260060b80611c3057611c306119a7565b808360060b0791505092915050565b60008160020b627fffff198103611c5857611c586117f2565b6000190192915050565b805169ffffffffffffffffffff81168114611c7c57600080fd5b919050565b600080600080600060a08688031215611c9957600080fd5b611ca286611c62565b9450602086015193506040860151925060608601519150611cc560808701611c62565b90509295509295909350565b600060208284031215611ce357600080fd5b8151610654816116c3565b6000600160ff1b8201611d0357611d036117f2565b5060000390565b60008160020b627fffff198103611d2357611d236117f2565b60000392915050565b600082611d3b57611d3b6119a7565b50069056fea264697066735822122074a3b5055d8b0325254cd01e82e4da55d32e14bcaef2500cd19d5149f28c3cae64736f6c63430008150033","linkReferences":{}},"methodIdentifiers":{"DISPUTE_BUFFER()":"c1874867","ETH_USD()":"6260f55b","TIMEOUT_EXTENDED()":"8c4c501d","TIMEOUT_LINK()":"40f1a34b","chargeOZLfee()":"8e9cd10c","getLastRewards()":"2cc3eb0a","getOracleBackUp1()":"0b842e3b","getOracleBackUp2()":"f32cabc5","getUnderlyingValue(address)":"97d2ead2","getUniPrice(address,address,uint24,uint8)":"ddcd8f68","rETH_ETH()":"d4afb73a","rETH_USD()":"f424c4ba","setValuePerOzToken(address,uint256,bool)":"b0ff97b5"},"id":19}