{
  "abi": [
    {
      "inputs": [
        {
          "internalType": "uint256",
          "name": "blockNumber",
          "type": "uint256"
        }
      ],
      "name": "OZError14",
      "type": "error"
    },
    {
      "anonymous": false,
      "inputs": [
        {
          "indexed": false,
          "internalType": "uint256",
          "name": "blockNumber",
          "type": "uint256"
        },
        {
          "indexed": false,
          "internalType": "uint256",
          "name": "ozelFeesInRETH",
          "type": "uint256"
        },
        {
          "indexed": false,
          "internalType": "int256",
          "name": "totalRewards",
          "type": "int256"
        },
        {
          "indexed": false,
          "internalType": "int256",
          "name": "currentRewards",
          "type": "int256"
        }
      ],
      "name": "OzRewards",
      "type": "event"
    },
    {
      "inputs": [],
      "name": "DISPUTE_BUFFER",
      "outputs": [
        {
          "internalType": "uint256",
          "name": "",
          "type": "uint256"
        }
      ],
      "stateMutability": "view",
      "type": "function"
    },
    {
      "inputs": [],
      "name": "ETH_USD",
      "outputs": [
        {
          "internalType": "uint256",
          "name": "",
          "type": "uint256"
        }
      ],
      "stateMutability": "view",
      "type": "function"
    },
    {
      "inputs": [],
      "name": "TIMEOUT",
      "outputs": [
        {
          "internalType": "uint256",
          "name": "",
          "type": "uint256"
        }
      ],
      "stateMutability": "view",
      "type": "function"
    },
    {
      "inputs": [],
      "name": "chargeOZLfee",
      "outputs": [
        {
          "internalType": "bool",
          "name": "",
          "type": "bool"
        }
      ],
      "stateMutability": "nonpayable",
      "type": "function"
    },
    {
      "inputs": [],
      "name": "getLastRewards",
      "outputs": [
        {
          "components": [
            {
              "internalType": "uint256",
              "name": "lastBlock",
              "type": "uint256"
            },
            {
              "internalType": "uint256",
              "name": "prevTotalRewards",
              "type": "uint256"
            }
          ],
          "internalType": "struct LastRewards",
          "name": "",
          "type": "tuple"
        }
      ],
      "stateMutability": "view",
      "type": "function"
    },
    {
      "inputs": [
        {
          "internalType": "address",
          "name": "ozToken_",
          "type": "address"
        }
      ],
      "name": "getUnderlyingValue",
      "outputs": [
        {
          "internalType": "uint256",
          "name": "",
          "type": "uint256"
        }
      ],
      "stateMutability": "view",
      "type": "function"
    },
    {
      "inputs": [],
      "name": "rETH_ETH",
      "outputs": [
        {
          "internalType": "uint256",
          "name": "",
          "type": "uint256"
        }
      ],
      "stateMutability": "view",
      "type": "function"
    },
    {
      "inputs": [],
      "name": "rETH_USD",
      "outputs": [
        {
          "internalType": "uint256",
          "name": "",
          "type": "uint256"
        }
      ],
      "stateMutability": "view",
      "type": "function"
    },
    {
      "inputs": [
        {
          "internalType": "address",
          "name": "ozToken_",
          "type": "address"
        },
        {
          "internalType": "uint256",
          "name": "amount_",
          "type": "uint256"
        },
        {
          "internalType": "bool",
          "name": "addOrSub_",
          "type": "bool"
        }
      ],
      "name": "setValuePerOzToken",
      "outputs": [],
      "stateMutability": "nonpayable",
      "type": "function"
    }
  ],
  "bytecode": {
    "object": "0x608060405234801561001057600080fd5b5061103a806100206000396000f3fe608060405234801561001057600080fd5b50600436106100935760003560e01c8063b0ff97b511610066578063b0ff97b51461011c578063c187486714610131578063d4afb73a1461013a578063f424c4ba14610142578063f56f48f21461014a57600080fd5b80632cc3eb0a146100985780636260f55b146100db5780638e9cd10c146100f157806397d2ead214610109575b600080fd5b6040805180820182526000808252602091820152815180830183526016548082526017549183019182528351908152905191810191909152015b60405180910390f35b6100e3610153565b6040519081526020016100d2565b6100f961018e565b60405190151581526020016100d2565b6100e3610117366004610c96565b61039b565b61012f61012a366004610cbf565b610501565b005b6100e361038481565b6100e361056d565b6100e36105f5565b6100e361384081565b6007546000908190819061016f906001600160a01b031661062c565b915091508161018557610180610719565b610187565b805b9250505090565b6009546040516370a0823160e01b815230600482015260009182916001600160a01b03909116906370a0823190602401602060405180830381865afa1580156101db573d6000803e3d6000fd5b505050506040513d601f19601f820116820180604052508101906101ff9190610cff565b90506000805b6001548110156102b257600180548290811061022357610223610d18565b60009182526020918290200154604080516278744560e21b815290516001600160a01b03909216926301e1d114926004808401938290030181865afa158015610270573d6000803e3d6000fd5b505050506040513d601f19601f820116820180604052508101906102949190610cff565b61029e9083610d44565b9150806102aa81610d57565b915050610205565b5060165443116102db5760405163dcfa2bfd60e01b815243600482015260240160405180910390fd5b6000806102e883856108f1565b909250905060006102f98383610d70565b90506000811361030f5760009550505050505090565b60175460009061031f9083610d70565b905060008113610336576000965050505050505090565b6000610342838361095f565b6040805143815260208101839052908101859052606081018490529091507fd47935b2f6fd998224fcce47e28065f692a3452b54180fd1e43ba90daf9eb1949060800160405180910390a1600197505050505050505090565b6000806001600160a01b03831630146103cc576001600160a01b038316600090815260236020526040902054610438565b6009546040516370a0823160e01b81523060048201526001600160a01b03909116906370a0823190602401602060405180830381865afa158015610414573d6000803e3d6000fd5b505050506040513d601f19601f820116820180604052508101906104389190610cff565b905060008060090160009054906101000a90046001600160a01b03166001600160a01b031663e6aa216c6040518163ffffffff1660e01b8152600401602060405180830381865afa158015610491573d6000803e3d6000fd5b505050506040513d601f19601f820116820180604052508101906104b59190610cff565b9050670de0b6b3a76400006104c8610153565b670de0b6b3a76400006104db8585610d97565b6104e59190610dae565b6104ef9190610d97565b6104f99190610dae565b949350505050565b801561053a576001600160a01b0383166000908152602360205260408120805484929061052f908490610d44565b909155506105689050565b6001600160a01b03831660009081526023602052604081208054849290610562908490610dd0565b90915550505b505050565b6000806000600a0160009054906101000a90046001600160a01b03166001600160a01b031663feaf968c6040518163ffffffff1660e01b815260040160a060405180830381865afa1580156105c6573d6000803e3d6000fd5b505050506040513d601f19601f820116820180604052508101906105ea9190610dfd565b509195945050505050565b6000670de0b6b3a7640000610608610153565b61061061056d565b61061a9190610d97565b6106249190610dae565b600218905090565b6000806000806000856001600160a01b031663feaf968c6040518163ffffffff1660e01b815260040160a060405180830381865afa158015610672573d6000803e3d6000fd5b505050506040513d601f19601f820116820180604052508101906106969190610dfd565b50935050925092508269ffffffffffffffffffff166000141580156106bb5750600082135b80156106c657508015155b80156106d25750428111155b80156106e957506138406106e68242610dd0565b11155b1561070b5760006106ff836402540be400610d97565b94509450505050915091565b506000958695509350505050565b6000610740604051806040016040528060048152602001636865726560e01b815250610a41565b60006040516020016107839060408082526003908201819052620cae8d60eb1b6060830152608060208301819052820152621d5cd960ea1b60a082015260c00190565b60408051601f19818403018152908290526107a091602001610e9d565b60408051601f19818403018152919052805160208201209091506107c46001610a87565b6107cd81610acc565b60408051808201909152600681526503a34b6b29d160d51b60208201526107ff906107fa61038442610dd0565b610b11565b602554600090819081906001600160a01b031663a792765f8561082461038442610dd0565b6040516001600160e01b031960e085901b16815260048101929092526024820152604401600060405180830381865afa158015610865573d6000803e3d6000fd5b505050506040513d6000823e601f3d908101601f1916820160405261088d9190810190610ee6565b92509250925061089d6002610a87565b6108a682610b5a565b6000828060200190518101906108bc9190610cff565b90506108e7604051806040016040528060078152602001660383934b1b29d160cd1b81525082610b11565b9695505050505050565b60008060006108fe610153565b61090d8664e8d4a51000610d97565b61091f90670de0b6b3a7640000610d97565b6109299190610dae565b90506000670de0b6b3a764000061093e61056d565b6109489087610d97565b6109529190610dae565b9196919550909350505050565b60155460009081906109799062ffffff1684612710610b9d565b60178590559050600061098a61056d565b61099c83670de0b6b3a7640000610d97565b6109a69190610dae565b905060006109b382610bbb565b60095460155460405163a9059cbb60e01b81526001600160a01b0363010000009092048216600482015260248101849052929350169063a9059cbb906044016020604051808303816000875af1158015610a11573d6000803e3d6000fd5b505050506040513d601f19601f82011682018060405250810190610a359190610fb2565b50925050505b92915050565b610a8481604051602401610a559190610fcf565b60408051601f198184030181529190526020810180516001600160e01b031663104c13eb60e21b179052610c59565b50565b610a8481604051602401610a9d91815260200190565b60408051601f198184030181529190526020810180516001600160e01b031663f5b1bba960e01b179052610c59565b610a8481604051602401610ae291815260200190565b60408051601f198184030181529190526020810180516001600160e01b03166327b7cf8560e01b179052610c59565b610b568282604051602401610b27929190610fe2565b60408051601f198184030181529190526020810180516001600160e01b03166309710a9d60e41b179052610c59565b5050565b610a8481604051602401610b6e9190610fcf565b60408051601f198184030181529190526020810180516001600160e01b03166305f3bfab60e11b179052610c59565b6000826000190484118302158202610bb457600080fd5b5091020490565b600080610bcc603284612710610b9d565b60095460215460405163a9059cbb60e01b81526001600160a01b03918216600482015260248101849052929350169063a9059cbb906044016020604051808303816000875af1158015610c23573d6000803e3d6000fd5b505050506040513d601f19601f82011682018060405250810190610c479190610fb2565b50610c528184610dd0565b9392505050565b80516a636f6e736f6c652e6c6f67602083016000808483855afa5050505050565b80356001600160a01b0381168114610c9157600080fd5b919050565b600060208284031215610ca857600080fd5b610c5282610c7a565b8015158114610a8457600080fd5b600080600060608486031215610cd457600080fd5b610cdd84610c7a565b9250602084013591506040840135610cf481610cb1565b809150509250925092565b600060208284031215610d1157600080fd5b5051919050565b634e487b7160e01b600052603260045260246000fd5b634e487b7160e01b600052601160045260246000fd5b80820180821115610a3b57610a3b610d2e565b600060018201610d6957610d69610d2e565b5060010190565b8181036000831280158383131683831282161715610d9057610d90610d2e565b5092915050565b8082028115828204841417610a3b57610a3b610d2e565b600082610dcb57634e487b7160e01b600052601260045260246000fd5b500490565b81810381811115610a3b57610a3b610d2e565b805169ffffffffffffffffffff81168114610c9157600080fd5b600080600080600060a08688031215610e1557600080fd5b610e1e86610de3565b9450602086015193506040860151925060608601519150610e4160808701610de3565b90509295509295909350565b60005b83811015610e68578181015183820152602001610e50565b50506000910152565b60008151808452610e89816020860160208601610e4d565b601f01601f19169290920160200192915050565b60408152600960408201526853706f74507269636560b81b6060820152608060208201526000610c526080830184610e71565b634e487b7160e01b600052604160045260246000fd5b600080600060608486031215610efb57600080fd5b8351610f0681610cb1565b602085015190935067ffffffffffffffff80821115610f2457600080fd5b818601915086601f830112610f3857600080fd5b815181811115610f4a57610f4a610ed0565b604051601f8201601f19908116603f01168101908382118183101715610f7257610f72610ed0565b81604052828152896020848701011115610f8b57600080fd5b610f9c836020830160208801610e4d565b8096505050505050604084015190509250925092565b600060208284031215610fc457600080fd5b8151610c5281610cb1565b602081526000610c526020830184610e71565b604081526000610ff56040830185610e71565b9050826020830152939250505056fea26469706673582212209ae0ea04e020923eaa16e5bcac835f726be1d82038c5fc9e282904925fbd47ef64736f6c63430008150033",
    "linkReferences": {}
  },
  "methodIdentifiers": {
    "DISPUTE_BUFFER()": "c1874867",
    "ETH_USD()": "6260f55b",
    "TIMEOUT()": "f56f48f2",
    "chargeOZLfee()": "8e9cd10c",
    "getLastRewards()": "2cc3eb0a",
    "getUnderlyingValue(address)": "97d2ead2",
    "rETH_ETH()": "d4afb73a",
    "rETH_USD()": "f424c4ba",
    "setValuePerOzToken(address,uint256,bool)": "b0ff97b5"
  },
  "id": 17
}