{
  "abi": [
    {
      "inputs": [],
      "name": "ETH_USD",
      "outputs": [
        {
          "internalType": "uint256",
          "name": "",
          "type": "uint256"
        }
      ],
      "stateMutability": "view",
      "type": "function"
    },
    {
      "inputs": [
        {
          "internalType": "uint256",
          "name": "subTotal_",
          "type": "uint256"
        }
      ],
      "name": "applyFee",
      "outputs": [
        {
          "internalType": "uint256",
          "name": "",
          "type": "uint256"
        }
      ],
      "stateMutability": "pure",
      "type": "function"
    },
    {
      "inputs": [],
      "name": "getUnderlyingValue",
      "outputs": [
        {
          "internalType": "uint256",
          "name": "",
          "type": "uint256"
        }
      ],
      "stateMutability": "view",
      "type": "function"
    },
    {
      "inputs": [],
      "name": "rETH_ETH",
      "outputs": [
        {
          "internalType": "uint256",
          "name": "",
          "type": "uint256"
        }
      ],
      "stateMutability": "view",
      "type": "function"
    },
    {
      "inputs": [],
      "name": "rETH_USD",
      "outputs": [
        {
          "internalType": "uint256",
          "name": "",
          "type": "uint256"
        }
      ],
      "stateMutability": "view",
      "type": "function"
    }
  ],
  "bytecode": {
    "object": "0x608060405234801561001057600080fd5b506104b6806100206000396000f3fe608060405234801561001057600080fd5b50600436106100575760003560e01c806345089e291461005c5780636260f55b14610076578063781b7e081461007e578063d4afb73a14610091578063f424c4ba14610099575b600080fd5b6100646100a1565b60405190815260200160405180910390f35b6100646101dd565b61006461008c366004610377565b610277565b61006461029a565b610064610322565b600a546040516370a0823160e01b815230600482015260009182916001600160a01b03909116906370a0823190602401602060405180830381865afa1580156100ee573d6000803e3d6000fd5b505050506040513d601f19601f820116820180604052508101906101129190610390565b9050600080600a0160009054906101000a90046001600160a01b03166001600160a01b031663e6aa216c6040518163ffffffff1660e01b8152600401602060405180830381865afa15801561016b573d6000803e3d6000fd5b505050506040513d601f19601f8201168201806040525081019061018f9190610390565b90506000670de0b6b3a76400006101a46101dd565b670de0b6b3a76400006101b786866103bf565b6101c191906103dc565b6101cb91906103bf565b6101d591906103dc565b949350505050565b600080600060070160009054906101000a90046001600160a01b03166001600160a01b031663feaf968c6040518163ffffffff1660e01b815260040160a060405180830381865afa158015610236573d6000803e3d6000fd5b505050506040513d601f19601f8201168201806040525081019061025a919061041d565b505050915050806402540be40061027191906103bf565b91505090565b60006105dc6102898184612710610359565b610293908461046d565b9392505050565b6000806000600b0160009054906101000a90046001600160a01b03166001600160a01b031663feaf968c6040518163ffffffff1660e01b815260040160a060405180830381865afa1580156102f3573d6000803e3d6000fd5b505050506040513d601f19601f82011682018060405250810190610317919061041d565b509195945050505050565b6000670de0b6b3a76400006103356101dd565b61033d61029a565b61034791906103bf565b61035191906103dc565b600218905090565b600082600019048411830215820261037057600080fd5b5091020490565b60006020828403121561038957600080fd5b5035919050565b6000602082840312156103a257600080fd5b5051919050565b634e487b7160e01b600052601160045260246000fd5b80820281158282048414176103d6576103d66103a9565b92915050565b6000826103f957634e487b7160e01b600052601260045260246000fd5b500490565b805169ffffffffffffffffffff8116811461041857600080fd5b919050565b600080600080600060a0868803121561043557600080fd5b61043e866103fe565b9450602086015193506040860151925060608601519150610461608087016103fe565b90509295509295909350565b818103818111156103d6576103d66103a956fea2646970667358221220474462eb50b1a85b1f093e5325644d3712b8adacc4bf1bb3364d798677a74c0c64736f6c63430008150033",
    "linkReferences": {}
  },
  "methodIdentifiers": {
    "ETH_USD()": "6260f55b",
    "applyFee(uint256)": "781b7e08",
    "getUnderlyingValue()": "45089e29",
    "rETH_ETH()": "d4afb73a",
    "rETH_USD()": "f424c4ba"
  },
  "id": 12
}