{
  "abi": [
    {
      "inputs": [
        {
          "internalType": "uint256",
          "name": "blockNumber",
          "type": "uint256"
        }
      ],
      "name": "OZError14",
      "type": "error"
    },
    {
      "anonymous": false,
      "inputs": [
        {
          "indexed": false,
          "internalType": "uint256",
          "name": "blockNumber",
          "type": "uint256"
        },
        {
          "indexed": false,
          "internalType": "uint256",
          "name": "ozelFeesInRETH",
          "type": "uint256"
        },
        {
          "indexed": false,
          "internalType": "int256",
          "name": "totalRewards",
          "type": "int256"
        },
        {
          "indexed": false,
          "internalType": "int256",
          "name": "currentRewards",
          "type": "int256"
        }
      ],
      "name": "OzRewards",
      "type": "event"
    },
    {
      "inputs": [],
      "name": "ETH_USD",
      "outputs": [
        {
          "internalType": "uint256",
          "name": "",
          "type": "uint256"
        }
      ],
      "stateMutability": "view",
      "type": "function"
    },
    {
      "inputs": [],
      "name": "chargeOZLfee",
      "outputs": [
        {
          "internalType": "bool",
          "name": "",
          "type": "bool"
        }
      ],
      "stateMutability": "nonpayable",
      "type": "function"
    },
    {
      "inputs": [],
      "name": "getLastRewards",
      "outputs": [
        {
          "components": [
            {
              "internalType": "uint256",
              "name": "lastBlock",
              "type": "uint256"
            },
            {
              "internalType": "uint256",
              "name": "prevTotalRewards",
              "type": "uint256"
            }
          ],
          "internalType": "struct LastRewards",
          "name": "",
          "type": "tuple"
        }
      ],
      "stateMutability": "view",
      "type": "function"
    },
    {
      "inputs": [
        {
          "internalType": "address",
          "name": "ozToken_",
          "type": "address"
        }
      ],
      "name": "getUnderlyingValue",
      "outputs": [
        {
          "internalType": "uint256",
          "name": "",
          "type": "uint256"
        }
      ],
      "stateMutability": "view",
      "type": "function"
    },
    {
      "inputs": [],
      "name": "rETH_ETH",
      "outputs": [
        {
          "internalType": "uint256",
          "name": "",
          "type": "uint256"
        }
      ],
      "stateMutability": "view",
      "type": "function"
    },
    {
      "inputs": [],
      "name": "rETH_USD",
      "outputs": [
        {
          "internalType": "uint256",
          "name": "",
          "type": "uint256"
        }
      ],
      "stateMutability": "view",
      "type": "function"
    },
    {
      "inputs": [
        {
          "internalType": "address",
          "name": "ozToken_",
          "type": "address"
        },
        {
          "internalType": "uint256",
          "name": "amount_",
          "type": "uint256"
        },
        {
          "internalType": "bool",
          "name": "addOrSub_",
          "type": "bool"
        }
      ],
      "name": "setValuePerOzToken",
      "outputs": [],
      "stateMutability": "nonpayable",
      "type": "function"
    }
  ],
  "bytecode": {
    "object": "0x608060405234801561001057600080fd5b50611890806100206000396000f3fe608060405234801561001057600080fd5b506004361061007d5760003560e01c806397d2ead21161005b57806397d2ead2146100f3578063b0ff97b514610106578063d4afb73a1461011b578063f424c4ba1461012357600080fd5b80632cc3eb0a146100825780636260f55b146100c55780638e9cd10c146100db575b600080fd5b6040805180820182526000808252602091820152815180830183526016548082526017549183019182528351908152905191810191909152015b60405180910390f35b6100cd61012b565b6040519081526020016100bc565b6100e3610166565b60405190151581526020016100bc565b6100cd6101013660046112e9565b610374565b610119610114366004611314565b6104da565b005b6100cd610546565b6100cd6105ce565b60075460009081908190610147906001600160a01b0316610605565b915091508161015d576101586106f2565b61015f565b805b9250505090565b6009546040516370a0823160e01b815230600482015260009182916001600160a01b03909116906370a0823190602401602060405180830381865afa1580156101b3573d6000803e3d6000fd5b505050506040513d601f19601f820116820180604052508101906101d79190611356565b90506000805b60015481101561028a5760018054829081106101fb576101fb61136f565b60009182526020918290200154604080516278744560e21b815290516001600160a01b03909216926301e1d114926004808401938290030181865afa158015610248573d6000803e3d6000fd5b505050506040513d601f19601f8201168201806040525081019061026c9190611356565b610276908361139b565b915080610282816113ae565b9150506101dd565b5060165443116102b45760405163dcfa2bfd60e01b81524360048201526024015b60405180910390fd5b6000806102c183856107e3565b909250905060006102d283836113c7565b9050600081136102e85760009550505050505090565b6017546000906102f890836113c7565b90506000811361030f576000965050505050505090565b600061031b8383610851565b6040805143815260208101839052908101859052606081018490529091507fd47935b2f6fd998224fcce47e28065f692a3452b54180fd1e43ba90daf9eb1949060800160405180910390a1600197505050505050505090565b6000806001600160a01b03831630146103a5576001600160a01b038316600090815260236020526040902054610411565b6009546040516370a0823160e01b81523060048201526001600160a01b03909116906370a0823190602401602060405180830381865afa1580156103ed573d6000803e3d6000fd5b505050506040513d601f19601f820116820180604052508101906104119190611356565b905060008060090160009054906101000a90046001600160a01b03166001600160a01b031663e6aa216c6040518163ffffffff1660e01b8152600401602060405180830381865afa15801561046a573d6000803e3d6000fd5b505050506040513d601f19601f8201168201806040525081019061048e9190611356565b9050670de0b6b3a76400006104a161012b565b670de0b6b3a76400006104b485856113ee565b6104be919061141b565b6104c891906113ee565b6104d2919061141b565b949350505050565b8015610513576001600160a01b0383166000908152602360205260408120805484929061050890849061139b565b909155506105419050565b6001600160a01b0383166000908152602360205260408120805484929061053b90849061142f565b90915550505b505050565b6000806000600a0160009054906101000a90046001600160a01b03166001600160a01b031663feaf968c6040518163ffffffff1660e01b815260040160a060405180830381865afa15801561059f573d6000803e3d6000fd5b505050506040513d601f19601f820116820180604052508101906105c39190611461565b509195945050505050565b6000670de0b6b3a76400006105e161012b565b6105e9610546565b6105f391906113ee565b6105fd919061141b565b600218905090565b60008060008060008060070160009054906101000a90046001600160a01b03166001600160a01b031663feaf968c6040518163ffffffff1660e01b815260040160a060405180830381865afa158015610662573d6000803e3d6000fd5b505050506040513d601f19601f820116820180604052508101906106869190611461565b50935050925092508269ffffffffffffffffffff166000141580156106ab5750600082135b80156106b657508015155b80156106c25750428111155b156106e45760006106d8836402540be4006113ee565b94509450505050915091565b506000958695509350505050565b6024805460035460048054601354604051630b4c774160e11b81526001600160a01b03948516938101939093529083169482019490945262ffffff909316604484015260009283929190911690631698ee8290606401602060405180830381865afa158015610765573d6000803e3d6000fd5b505050506040513d601f19601f8201168201806040525081019061078991906114b1565b9050600061079882600a610933565b506003546004549192506000916107c7918491670de0b6b3a7640000916001600160a01b039081169116610b79565b905060006107da8264e8d4a510006113ee565b95945050505050565b60008060006107f061012b565b6107ff8664e8d4a510006113ee565b61081190670de0b6b3a76400006113ee565b61081b919061141b565b90506000670de0b6b3a7640000610830610546565b61083a90876113ee565b610844919061141b565b9196919550909350505050565b601554600090819061086b9062ffffff1684612710610c87565b60178590559050600061087c610546565b61088e83670de0b6b3a76400006113ee565b610898919061141b565b905060006108a582610ca5565b60095460155460405163a9059cbb60e01b81526001600160a01b0363010000009092048216600482015260248101849052929350169063a9059cbb906044016020604051808303816000875af1158015610903573d6000803e3d6000fd5b505050506040513d601f19601f8201168201806040525081019061092791906114ce565b50925050505b92915050565b6000808263ffffffff166000036109715760405162461bcd60e51b8152602060048201526002602482015261042560f41b60448201526064016102ab565b60408051600280825260608201835260009260208301908036833701905050905083816000815181106109a6576109a661136f565b602002602001019063ffffffff16908163ffffffff16815250506000816001815181106109d5576109d561136f565b602002602001019063ffffffff16908163ffffffff1681525050600080866001600160a01b031663883bdbfd846040518263ffffffff1660e01b8152600401610a1e9190611501565b600060405180830381865afa158015610a3b573d6000803e3d6000fd5b505050506040513d6000823e601f3d908101601f19168201604052610a639190810190611614565b91509150600082600081518110610a7c57610a7c61136f565b602002602001015183600181518110610a9757610a9761136f565b6020026020010151610aa991906116e0565b9050600082600081518110610ac057610ac061136f565b602002602001015183600181518110610adb57610adb61136f565b6020026020010151610aed919061170d565b9050610afd600389900b8361172d565b965060008260060b128015610b215750610b1b600389900b8361176b565b60060b15155b15610b345786610b308161178d565b9750505b6000610b4d6001600160a01b0363ffffffff8b166117b0565b9050610b6a640100000000600160c01b03602084901b16826117e2565b96505050505050509250929050565b600080610b8586610d43565b90506001600160801b036001600160a01b03821611610c0b576000610bb36001600160a01b038316806113ee565b9050836001600160a01b0316856001600160a01b031610610beb57610be6600160c01b876001600160801b03168361115b565b610c03565b610c0381876001600160801b0316600160c01b61115b565b925050610c7e565b6000610c2a6001600160a01b038316806801000000000000000061115b565b9050836001600160a01b0316856001600160a01b031610610c6257610c5d600160801b876001600160801b03168361115b565b610c7a565b610c7a81876001600160801b0316600160801b61115b565b9250505b50949350505050565b6000826000190484118302158202610c9e57600080fd5b5091020490565b600080610cb6603284612710610c87565b60095460215460405163a9059cbb60e01b81526001600160a01b03918216600482015260248101849052929350169063a9059cbb906044016020604051808303816000875af1158015610d0d573d6000803e3d6000fd5b505050506040513d601f19601f82011682018060405250810190610d3191906114ce565b50610d3c818461142f565b9392505050565b60008060008360020b12610d5a578260020b610d67565b8260020b610d6790611808565b9050610d76620d89e719611824565b60020b811115610dac5760405162461bcd60e51b81526020600482015260016024820152601560fa1b60448201526064016102ab565b600081600116600003610dc357600160801b610dd5565b6ffffcb933bd6fad37aa2d162d1a5940015b70ffffffffffffffffffffffffffffffffff1690506002821615610e14576080610e0f826ffff97272373d413259a46990580e213a6113ee565b901c90505b6004821615610e3e576080610e39826ffff2e50f5f656932ef12357cf3c7fdcc6113ee565b901c90505b6008821615610e68576080610e63826fffe5caca7e10e4e61c3624eaa0941cd06113ee565b901c90505b6010821615610e92576080610e8d826fffcb9843d60f6159c9db58835c9266446113ee565b901c90505b6020821615610ebc576080610eb7826fff973b41fa98c081472e6896dfb254c06113ee565b901c90505b6040821615610ee6576080610ee1826fff2ea16466c96a3843ec78b326b528616113ee565b901c90505b6080821615610f10576080610f0b826ffe5dee046a99a2a811c461f1969c30536113ee565b901c90505b610100821615610f3b576080610f36826ffcbe86c7900a88aedcffc83b479aa3a46113ee565b901c90505b610200821615610f66576080610f61826ff987a7253ac413176f2b074cf7815e546113ee565b901c90505b610400821615610f91576080610f8c826ff3392b0822b70005940c7a398e4b70f36113ee565b901c90505b610800821615610fbc576080610fb7826fe7159475a2c29b7443b29c7fa6e889d96113ee565b901c90505b611000821615610fe7576080610fe2826fd097f3bdfd2022b8845ad8f792aa58256113ee565b901c90505b61200082161561101257608061100d826fa9f746462d870fdf8a65dc1f90e061e56113ee565b901c90505b61400082161561103d576080611038826f70d869a156d2a1b890bb3df62baf32f76113ee565b901c90505b618000821615611068576080611063826f31be135f97d08fd981231505542fcfa66113ee565b901c90505b6201000082161561109457608061108f826f09aa508b5b7a84e1c677de54f3e99bc96113ee565b901c90505b620200008216156110bf5760806110ba826e5d6af8dedb81196699c329225ee6046113ee565b901c90505b620400008216156110e95760806110e4826d2216e584f5fa1ea926041bedfe986113ee565b901c90505b6208000082161561111157608061110c826b048a170391f7dc42444e8fa26113ee565b901c90505b60008460020b131561112c576111298160001961141b565b90505b61113b64010000000082611846565b1561114757600161114a565b60005b6104d29060ff16602083901c61139b565b6000808060001985870985870292508281108382030391505080600003611194576000841161118957600080fd5b508290049050610d3c565b8084116111a057600080fd5b6000848688098084039381119092039190506000856111be81611808565b169586900495938490049360008190030460010190506111de81846113ee565b9093179260006111ef8760036113ee565b60021890506111fe81886113ee565b61120990600261142f565b61121390826113ee565b905061121f81886113ee565b61122a90600261142f565b61123490826113ee565b905061124081886113ee565b61124b90600261142f565b61125590826113ee565b905061126181886113ee565b61126c90600261142f565b61127690826113ee565b905061128281886113ee565b61128d90600261142f565b61129790826113ee565b90506112a381886113ee565b6112ae90600261142f565b6112b890826113ee565b90506112c481866113ee565b9998505050505050505050565b6001600160a01b03811681146112e657600080fd5b50565b6000602082840312156112fb57600080fd5b8135610d3c816112d1565b80151581146112e657600080fd5b60008060006060848603121561132957600080fd5b8335611334816112d1565b925060208401359150604084013561134b81611306565b809150509250925092565b60006020828403121561136857600080fd5b5051919050565b634e487b7160e01b600052603260045260246000fd5b634e487b7160e01b600052601160045260246000fd5b8082018082111561092d5761092d611385565b6000600182016113c0576113c0611385565b5060010190565b81810360008312801583831316838312821617156113e7576113e7611385565b5092915050565b808202811582820484141761092d5761092d611385565b634e487b7160e01b600052601260045260246000fd5b60008261142a5761142a611405565b500490565b8181038181111561092d5761092d611385565b805169ffffffffffffffffffff8116811461145c57600080fd5b919050565b600080600080600060a0868803121561147957600080fd5b61148286611442565b94506020860151935060408601519250606086015191506114a560808701611442565b90509295509295909350565b6000602082840312156114c357600080fd5b8151610d3c816112d1565b6000602082840312156114e057600080fd5b8151610d3c81611306565b634e487b7160e01b600052604160045260246000fd5b6020808252825182820181905260009190848201906040850190845b8181101561153f57835163ffffffff168352928401929184019160010161151d565b50909695505050505050565b604051601f8201601f1916810167ffffffffffffffff81118282101715611574576115746114eb565b604052919050565b600067ffffffffffffffff821115611596576115966114eb565b5060051b60200190565b600082601f8301126115b157600080fd5b815160206115c66115c18361157c565b61154b565b82815260059290921b840181019181810190868411156115e557600080fd5b8286015b848110156116095780516115fc816112d1565b83529183019183016115e9565b509695505050505050565b6000806040838503121561162757600080fd5b825167ffffffffffffffff8082111561163f57600080fd5b818501915085601f83011261165357600080fd5b815160206116636115c18361157c565b82815260059290921b8401810191818101908984111561168257600080fd5b948201945b838610156116b05785518060060b81146116a15760008081fd5b82529482019490820190611687565b918801519196509093505050808211156116c957600080fd5b506116d6858286016115a0565b9150509250929050565b600682810b9082900b03667fffffffffffff198112667fffffffffffff8213171561092d5761092d611385565b6001600160a01b038281168282160390808211156113e7576113e7611385565b60008160060b8360060b8061174457611744611405565b667fffffffffffff1982146000198214161561176257611762611385565b90059392505050565b60008260060b8061177e5761177e611405565b808360060b0791505092915050565b60008160020b627fffff1981036117a6576117a6611385565b6000190192915050565b6001600160c01b038281168282168181028316929181158285048214176117d9576117d9611385565b50505092915050565b60006001600160c01b03838116806117fc576117fc611405565b92169190910492915050565b6000600160ff1b820161181d5761181d611385565b5060000390565b60008160020b627fffff19810361183d5761183d611385565b60000392915050565b60008261185557611855611405565b50069056fea2646970667358221220bc3c40ddbbf61523a989cd3730715b15fa9009f0c69c12c39df8bf0d2b6e0dba64736f6c63430008150033",
    "linkReferences": {}
  },
  "methodIdentifiers": {
    "ETH_USD()": "6260f55b",
    "chargeOZLfee()": "8e9cd10c",
    "getLastRewards()": "2cc3eb0a",
    "getUnderlyingValue(address)": "97d2ead2",
    "rETH_ETH()": "d4afb73a",
    "rETH_USD()": "f424c4ba",
    "setValuePerOzToken(address,uint256,bool)": "b0ff97b5"
  },
  "id": 17
}