{
  "abi": [
    {
      "inputs": [],
      "name": "ETH_USD",
      "outputs": [
        {
          "internalType": "uint256",
          "name": "",
          "type": "uint256"
        }
      ],
      "stateMutability": "view",
      "type": "function"
    },
    {
      "inputs": [],
      "name": "getUnderlyingValue",
      "outputs": [
        {
          "internalType": "uint256",
          "name": "",
          "type": "uint256"
        }
      ],
      "stateMutability": "view",
      "type": "function"
    },
    {
      "inputs": [],
      "name": "rETH_ETH",
      "outputs": [
        {
          "internalType": "uint256",
          "name": "",
          "type": "uint256"
        }
      ],
      "stateMutability": "view",
      "type": "function"
    }
  ],
  "bytecode": {
    "object": "0x608060405234801561001057600080fd5b5061051b806100206000396000f3fe608060405234801561001057600080fd5b50600436106100415760003560e01c806345089e29146100465780636260f55b14610060578063d4afb73a14610068575b600080fd5b61004e610070565b60405190815260200160405180910390f35b61004e61028c565b61004e610326565b600a546040516370a0823160e01b815230600482015260009182916001600160a01b03909116906370a0823190602401602060405180830381865afa1580156100bd573d6000803e3d6000fd5b505050506040513d601f19601f820116820180604052508101906100e191906103fb565b6016546040516370a0823160e01b81523060048201529192506000916001600160a01b03909116906370a0823190602401602060405180830381865afa15801561012f573d6000803e3d6000fd5b505050506040513d601f19601f8201168201806040525081019061015391906103fb565b9050600080600a0160009054906101000a90046001600160a01b03166001600160a01b031663e6aa216c6040518163ffffffff1660e01b8152600401602060405180830381865afa1580156101ac573d6000803e3d6000fd5b505050506040513d601f19601f820116820180604052508101906101d091906103fb565b905060008060160160009054906101000a90046001600160a01b03166001600160a01b03166399530b066040518163ffffffff1660e01b8152600401602060405180830381865afa158015610229573d6000803e3d6000fd5b505050506040513d601f19601f8201168201806040525081019061024d91906103fb565b9050600061025b83866103ae565b9050600061026983866103ae565b90506002610277828461042a565b610281919061043d565b965050505050505090565b600080600060060160009054906101000a90046001600160a01b03166001600160a01b031663feaf968c6040518163ffffffff1660e01b815260040160a060405180830381865afa1580156102e5573d6000803e3d6000fd5b505050506040513d601f19601f82011682018060405250810190610309919061047e565b505050915050806402540be40061032091906104ce565b91505090565b6000806000600c0160009054906101000a90046001600160a01b03166001600160a01b031663feaf968c6040518163ffffffff1660e01b815260040160a060405180830381865afa15801561037f573d6000803e3d6000fd5b505050506040513d601f19601f820116820180604052508101906103a3919061047e565b509195945050505050565b6000670de0b6b3a76400006103c161028c565b670de0b6b3a76400006103d485876104ce565b6103de919061043d565b6103e891906104ce565b6103f2919061043d565b90505b92915050565b60006020828403121561040d57600080fd5b5051919050565b634e487b7160e01b600052601160045260246000fd5b808201808211156103f5576103f5610414565b60008261045a57634e487b7160e01b600052601260045260246000fd5b500490565b805169ffffffffffffffffffff8116811461047957600080fd5b919050565b600080600080600060a0868803121561049657600080fd5b61049f8661045f565b94506020860151935060408601519250606086015191506104c26080870161045f565b90509295509295909350565b80820281158282048414176103f5576103f561041456fea26469706673582212206db233f78c1180c996097e8d2b59d895d4e6e981a25b63ea6f524ea507eaa4ed64736f6c63430008150033",
    "linkReferences": {}
  },
  "methodIdentifiers": {
    "ETH_USD()": "6260f55b",
    "getUnderlyingValue()": "45089e29",
    "rETH_ETH()": "d4afb73a"
  },
  "id": 12
}