{
  "abi": [
    {
      "inputs": [
        {
          "internalType": "uint256",
          "name": "blockNumber",
          "type": "uint256"
        }
      ],
      "name": "OZError14",
      "type": "error"
    },
    {
      "anonymous": false,
      "inputs": [
        {
          "indexed": false,
          "internalType": "uint256",
          "name": "blockNumber",
          "type": "uint256"
        },
        {
          "indexed": false,
          "internalType": "uint256",
          "name": "ozelFeesInRETH",
          "type": "uint256"
        },
        {
          "indexed": false,
          "internalType": "int256",
          "name": "totalRewards",
          "type": "int256"
        },
        {
          "indexed": false,
          "internalType": "int256",
          "name": "currentRewards",
          "type": "int256"
        }
      ],
      "name": "OzRewards",
      "type": "event"
    },
    {
      "inputs": [],
      "name": "ETH_USD",
      "outputs": [
        {
          "internalType": "uint256",
          "name": "",
          "type": "uint256"
        }
      ],
      "stateMutability": "view",
      "type": "function"
    },
    {
      "inputs": [],
      "name": "chargeOZLfee",
      "outputs": [
        {
          "internalType": "bool",
          "name": "",
          "type": "bool"
        }
      ],
      "stateMutability": "nonpayable",
      "type": "function"
    },
    {
      "inputs": [],
      "name": "getLastRewards",
      "outputs": [
        {
          "components": [
            {
              "internalType": "uint256",
              "name": "lastBlock",
              "type": "uint256"
            },
            {
              "internalType": "uint256",
              "name": "prevTotalRewards",
              "type": "uint256"
            }
          ],
          "internalType": "struct LastRewards",
          "name": "",
          "type": "tuple"
        }
      ],
      "stateMutability": "view",
      "type": "function"
    },
    {
      "inputs": [
        {
          "internalType": "address",
          "name": "ozToken_",
          "type": "address"
        }
      ],
      "name": "getUnderlyingValue",
      "outputs": [
        {
          "internalType": "uint256",
          "name": "",
          "type": "uint256"
        }
      ],
      "stateMutability": "view",
      "type": "function"
    },
    {
      "inputs": [],
      "name": "rETH_ETH",
      "outputs": [
        {
          "internalType": "uint256",
          "name": "",
          "type": "uint256"
        }
      ],
      "stateMutability": "view",
      "type": "function"
    },
    {
      "inputs": [],
      "name": "rETH_USD",
      "outputs": [
        {
          "internalType": "uint256",
          "name": "",
          "type": "uint256"
        }
      ],
      "stateMutability": "view",
      "type": "function"
    },
    {
      "inputs": [
        {
          "internalType": "address",
          "name": "ozToken_",
          "type": "address"
        },
        {
          "internalType": "uint256",
          "name": "amountRethOut_",
          "type": "uint256"
        }
      ],
      "name": "setValuePerOzToken",
      "outputs": [],
      "stateMutability": "nonpayable",
      "type": "function"
    }
  ],
  "bytecode": {
    "object": "0x608060405234801561001057600080fd5b50610c11806100206000396000f3fe608060405234801561001057600080fd5b506004361061007d5760003560e01c80638f4daf321161005b5780638f4daf32146100f357806397d2ead214610108578063d4afb73a1461011b578063f424c4ba1461012357600080fd5b80632cc3eb0a146100825780636260f55b146100c55780638e9cd10c146100db575b600080fd5b6040805180820182526000808252602091820152815180830183526016548082526017549183019182528351908152905191810191909152015b60405180910390f35b6100cd61012b565b6040519081526020016100bc565b6100e36101c5565b60405190151581526020016100bc565b61010661010136600461096e565b6103d2565b005b6100cd610116366004610998565b610403565b6100cd6105d8565b6100cd610660565b600080600060070160009054906101000a90046001600160a01b03166001600160a01b031663feaf968c6040518163ffffffff1660e01b815260040160a060405180830381865afa158015610184573d6000803e3d6000fd5b505050506040513d601f19601f820116820180604052508101906101a891906109cd565b505050915050806402540be4006101bf9190610a33565b91505090565b6009546040516370a0823160e01b815230600482015260009182916001600160a01b03909116906370a0823190602401602060405180830381865afa158015610212573d6000803e3d6000fd5b505050506040513d601f19601f820116820180604052508101906102369190610a4a565b90506000805b6001548110156102e957600180548290811061025a5761025a610a63565b60009182526020918290200154604080516278744560e21b815290516001600160a01b03909216926301e1d114926004808401938290030181865afa1580156102a7573d6000803e3d6000fd5b505050506040513d601f19601f820116820180604052508101906102cb9190610a4a565b6102d59083610a79565b9150806102e181610a8c565b91505061023c565b5060165443116103125760405163dcfa2bfd60e01b815243600482015260240160405180910390fd5b60008061031f8385610697565b909250905060006103308383610aa5565b9050600081136103465760009550505050505090565b6017546000906103569083610aa5565b90506000811361036d576000965050505050505090565b60006103798383610705565b6040805143815260208101839052908101859052606081018490529091507fd47935b2f6fd998224fcce47e28065f692a3452b54180fd1e43ba90daf9eb1949060800160405180910390a1600197505050505050505090565b6001600160a01b038216600090815260236020526040812080548392906103fa908490610a79565b90915550505050565b600061043960405180604001604052806012815260200171037bd2a37b5b2b71034b7103ab73232b91d160751b815250836107e7565b610473604051806060016040528060268152602001610bb6602691396001600160a01b038416600090815260236020526040902054610830565b60006001600160a01b03831630146104a3576001600160a01b03831660009081526023602052604090205461050f565b6009546040516370a0823160e01b81523060048201526001600160a01b03909116906370a0823190602401602060405180830381865afa1580156104eb573d6000803e3d6000fd5b505050506040513d601f19601f8201168201806040525081019061050f9190610a4a565b905060008060090160009054906101000a90046001600160a01b03166001600160a01b031663e6aa216c6040518163ffffffff1660e01b8152600401602060405180830381865afa158015610568573d6000803e3d6000fd5b505050506040513d601f19601f8201168201806040525081019061058c9190610a4a565b9050670de0b6b3a764000061059f61012b565b670de0b6b3a76400006105b28585610a33565b6105bc9190610acc565b6105c69190610a33565b6105d09190610acc565b949350505050565b6000806000600a0160009054906101000a90046001600160a01b03166001600160a01b031663feaf968c6040518163ffffffff1660e01b815260040160a060405180830381865afa158015610631573d6000803e3d6000fd5b505050506040513d601f19601f8201168201806040525081019061065591906109cd565b509195945050505050565b6000670de0b6b3a764000061067361012b565b61067b6105d8565b6106859190610a33565b61068f9190610acc565b600218905090565b60008060006106a461012b565b6106b38664e8d4a51000610a33565b6106c590670de0b6b3a7640000610a33565b6106cf9190610acc565b90506000670de0b6b3a76400006106e46105d8565b6106ee9087610a33565b6106f89190610acc565b9196919550909350505050565b601554600090819061071f9062ffffff1684612710610875565b6017859055905060006107306105d8565b61074283670de0b6b3a7640000610a33565b61074c9190610acc565b9050600061075982610893565b60095460155460405163a9059cbb60e01b81526001600160a01b0363010000009092048216600482015260248101849052929350169063a9059cbb906044016020604051808303816000875af11580156107b7573d6000803e3d6000fd5b505050506040513d601f19601f820116820180604052508101906107db9190610aee565b50925050505b92915050565b61082c82826040516024016107fd929190610b56565b60408051601f198184030181529190526020810180516001600160e01b031663319af33360e01b179052610931565b5050565b61082c8282604051602401610846929190610b80565b60408051601f198184030181529190526020810180516001600160e01b03166309710a9d60e41b179052610931565b600082600019048411830215820261088c57600080fd5b5091020490565b6000806108a4603284612710610875565b60095460215460405163a9059cbb60e01b81526001600160a01b03918216600482015260248101849052929350169063a9059cbb906044016020604051808303816000875af11580156108fb573d6000803e3d6000fd5b505050506040513d601f19601f8201168201806040525081019061091f9190610aee565b5061092a8184610ba2565b9392505050565b80516a636f6e736f6c652e6c6f67602083016000808483855afa5050505050565b80356001600160a01b038116811461096957600080fd5b919050565b6000806040838503121561098157600080fd5b61098a83610952565b946020939093013593505050565b6000602082840312156109aa57600080fd5b61092a82610952565b805169ffffffffffffffffffff8116811461096957600080fd5b600080600080600060a086880312156109e557600080fd5b6109ee866109b3565b9450602086015193506040860151925060608601519150610a11608087016109b3565b90509295509295909350565b634e487b7160e01b600052601160045260246000fd5b80820281158282048414176107e1576107e1610a1d565b600060208284031215610a5c57600080fd5b5051919050565b634e487b7160e01b600052603260045260246000fd5b808201808211156107e1576107e1610a1d565b600060018201610a9e57610a9e610a1d565b5060010190565b8181036000831280158383131683831282161715610ac557610ac5610a1d565b5092915050565b600082610ae957634e487b7160e01b600052601260045260246000fd5b500490565b600060208284031215610b0057600080fd5b8151801515811461092a57600080fd5b6000815180845260005b81811015610b3657602081850181015186830182015201610b1a565b506000602082860101526020601f19601f83011685010191505092915050565b604081526000610b696040830185610b10565b905060018060a01b03831660208301529392505050565b604081526000610b936040830185610b10565b90508260208301529392505050565b818103818111156107e1576107e1610a1d56fe732e76616c75655065724f7a546f6b656e5b6f7a546f6b656e5f5d20696e20756e6465723a20a2646970667358221220d9bfdf6baf401aa7bbd659669ef9c6c2a9734b9e74ba64d3de40a9736803b23b64736f6c63430008150033",
    "linkReferences": {}
  },
  "methodIdentifiers": {
    "ETH_USD()": "6260f55b",
    "chargeOZLfee()": "8e9cd10c",
    "getLastRewards()": "2cc3eb0a",
    "getUnderlyingValue(address)": "97d2ead2",
    "rETH_ETH()": "d4afb73a",
    "rETH_USD()": "f424c4ba",
    "setValuePerOzToken(address,uint256)": "8f4daf32"
  },
  "id": 17
}