{"abi":[{"type":"function","name":"DISPUTE_BUFFER","inputs":[],"outputs":[{"name":"","type":"uint256","internalType":"uint256"}],"stateMutability":"view"},{"type":"function","name":"ETH_USD","inputs":[],"outputs":[{"name":"","type":"uint256","internalType":"uint256"}],"stateMutability":"view"},{"type":"function","name":"TIMEOUT_EXTENDED","inputs":[],"outputs":[{"name":"","type":"uint256","internalType":"uint256"}],"stateMutability":"view"},{"type":"function","name":"TIMEOUT_LINK_ETHUSD","inputs":[],"outputs":[{"name":"","type":"uint256","internalType":"uint256"}],"stateMutability":"view"},{"type":"function","name":"chargeOZLfee","inputs":[],"outputs":[{"name":"","type":"bool","internalType":"bool"}],"stateMutability":"nonpayable"},{"type":"function","name":"getLastRewards","inputs":[],"outputs":[{"name":"","type":"tuple","internalType":"struct LastRewards","components":[{"name":"lastBlock","type":"uint256","internalType":"uint256"},{"name":"prevTotalRewards","type":"uint256","internalType":"uint256"}]}],"stateMutability":"view"},{"type":"function","name":"getOracleBackUp1","inputs":[],"outputs":[{"name":"","type":"bool","internalType":"bool"},{"name":"","type":"uint256","internalType":"uint256"}],"stateMutability":"view"},{"type":"function","name":"getOracleBackUp2","inputs":[],"outputs":[{"name":"","type":"bool","internalType":"bool"},{"name":"","type":"uint256","internalType":"uint256"}],"stateMutability":"view"},{"type":"function","name":"getUnderlyingValue","inputs":[{"name":"ozToken_","type":"address","internalType":"address"}],"outputs":[{"name":"","type":"uint256","internalType":"uint256"}],"stateMutability":"view"},{"type":"function","name":"getUniPrice","inputs":[{"name":"tokenPair_","type":"uint256","internalType":"uint256"},{"name":"side_","type":"uint8","internalType":"enum Dir"}],"outputs":[{"name":"","type":"uint256","internalType":"uint256"}],"stateMutability":"view"},{"type":"function","name":"rETH_ETH","inputs":[],"outputs":[{"name":"","type":"uint256","internalType":"uint256"}],"stateMutability":"view"},{"type":"function","name":"rETH_USD","inputs":[],"outputs":[{"name":"","type":"uint256","internalType":"uint256"}],"stateMutability":"view"},{"type":"function","name":"setValuePerOzToken","inputs":[{"name":"ozToken_","type":"address","internalType":"address"},{"name":"amountOutRETH_","type":"uint256","internalType":"uint256"},{"name":"amountOutAUSDC_","type":"uint256","internalType":"uint256"},{"name":"addOrSub_","type":"bool","internalType":"bool"}],"outputs":[],"stateMutability":"nonpayable"},{"type":"event","name":"APRcalculated","inputs":[{"name":"currAPR","type":"uint256","indexed":true,"internalType":"uint256"},{"name":"prevAPR","type":"uint256","indexed":true,"internalType":"uint256"},{"name":"currentRewardsUSD","type":"uint256","indexed":false,"internalType":"uint256"},{"name":"totalAssets","type":"uint256","indexed":false,"internalType":"uint256"},{"name":"deltaStamp","type":"uint256","indexed":false,"internalType":"uint256"}],"anonymous":false},{"type":"event","name":"OzRewards","inputs":[{"name":"blockNumber","type":"uint256","indexed":false,"internalType":"uint256"},{"name":"ozelFeesInRETH","type":"uint256","indexed":false,"internalType":"uint256"},{"name":"totalRewards","type":"int256","indexed":false,"internalType":"int256"},{"name":"currentRewards","type":"int256","indexed":false,"internalType":"int256"}],"anonymous":false},{"type":"error","name":"OZError14","inputs":[{"name":"blockNumber","type":"uint256","internalType":"uint256"}]},{"type":"error","name":"OZError23","inputs":[{"name":"baseToken","type":"address","internalType":"address"}]}],"bytecode":{"object":"0x608060405234801561000f575f80fd5b50611e648061001d5f395ff3fe608060405234801561000f575f80fd5b50600436106100cb575f3560e01c806397d2ead211610088578063d6c1016811610063578063d6c101681461019f578063db185e89146101a8578063f32cabc5146101bd578063f424c4ba146101c5575f80fd5b806397d2ead21461017b578063c18748671461018e578063d4afb73a14610197575f80fd5b80630b842e3b146100cf5780632cc3eb0a146100f35780633154b6e2146101305780636260f55b146101515780638c4c501d146101595780638e9cd10c14610163575b5f80fd5b6100d76101cd565b6040805192151583526020830191909152015b60405180910390f35b6040805180820182525f808252602091820152815180830183526014548082526015549183019182528351908152905191810191909152016100ea565b61014361013e3660046117d5565b610324565b6040519081526020016100ea565b6101436105f1565b6101436201518081565b61016b61063a565b60405190151581526020016100ea565b61014361018936600461181d565b61083d565b61014361038481565b610143610905565b61014361384081565b6101bb6101b6366004611845565b610989565b005b6100d7610a94565b610143610b2e565b5f805f6040516020016102119060408082526003908201819052620cae8d60eb1b6060830152608060208301819052820152621d5cd960ea1b60a082015260c00190565b60408051601f198184030181529082905261022e916020016118ae565b60408051601f1981840301815291905280516020909101206024549091505f90819081906001600160a01b031663a792765f8561026d61038442611914565b6040516001600160e01b031960e085901b168152600481019290925260248201526044015f60405180830381865afa1580156102ab573d5f803e3d5ffd5b505050506040513d5f823e601f3d908101601f191682016040526102d2919081019061196c565b9250925092508215806102f05750620151806102ee8242611914565b115b1561030257505f958695509350505050565b6001828060200190518101906103189190611a19565b95509550505050509091565b5f828152602c60209081526040808320815160608101835281546001600160a01b03908116808352600190930154808216838701819052600160a01b90910462ffffff169285018390526023548551630b4c774160e11b8152600481018690526024810183905260448101859052955194969195939488949190931692631698ee82926064808401939192918290030181865afa1580156103c7573d5f803e3d5ffd5b505050506040513d601f19601f820116820180604052508101906103eb9190611a30565b90505f8087600181111561040157610401611a4b565b1461040f5762015180610413565b6107085b60408051600280825260608201835262ffffff9390931693505f92909160208301908036833701905050905081815f8151811061045257610452611a5f565b602002602001019063ffffffff16908163ffffffff16815250505f8160018151811061048057610480611a5f565b63ffffffff9092166020928302919091019091015260405163883bdbfd60e01b81525f906001600160a01b0385169063883bdbfd906104c3908590600401611a73565b5f60405180830381865afa1580156104dd573d5f803e3d5ffd5b505050506040513d5f823e601f3d908101601f191682016040526105049190810190611b54565b5090505f815f8151811061051a5761051a611a5f565b60200260200101518260018151811061053557610535611a5f565b60200260200101516105479190611c18565b90505f610558600386900b83611c59565b90505f8260060b12801561057b5750610575600386900b83611c95565b60060b15155b1561058e578061058a81611cb6565b9150505b5f6105a7826b033b2e3c9fd0803ce80000008c8c610b61565b6003549091506001600160a01b038a81169116146105ca5764e8d4a510006105cd565b60015b6105de9064ffffffffff1682611cd7565b9a50505050505050505050505b92915050565b6007545f908190819061060e906001600160a01b03166001610c6c565b91509150816106315760035461062c906001600160a01b0316610d9f565b610633565b805b9250505090565b6009546040516370a0823160e01b81523060048201525f9182916001600160a01b03909116906370a0823190602401602060405180830381865afa158015610684573d5f803e3d5ffd5b505050506040513d601f19601f820116820180604052508101906106a89190611a19565b90505f805b6001548110156107525760018054829081106106cb576106cb611a5f565b5f91825260209182902060029091020154604080516278744560e21b815290516001600160a01b03909216926301e1d114926004808401938290030181865afa15801561071a573d5f803e3d5ffd5b505050506040513d601f19601f8201168201806040525081019061073e9190611a19565b6107489083611cee565b91506001016106ad565b50601454431161077c5760405163dcfa2bfd60e01b81524360048201526024015b60405180910390fd5b5f806107888385610f02565b90925090505f6107988383611d01565b90505f81136107ac575f9550505050505090565b6015545f906107bb9083611d01565b90505f81136107d0575f965050505050505090565b5f6107db8383610f6d565b90506107e78287611057565b6040805143815260208101839052908101849052606081018390527fd47935b2f6fd998224fcce47e28065f692a3452b54180fd1e43ba90daf9eb1949060800160405180910390a1600197505050505050505090565b5f806001600160a01b038316301461086c576001600160a01b0383165f908152602160205260409020546108d6565b6009546040516370a0823160e01b81523060048201526001600160a01b03909116906370a0823190602401602060405180830381865afa1580156108b2573d5f803e3d5ffd5b505050506040513d601f19601f820116820180604052508101906108d69190611a19565b9050670de0b6b3a7640000816108ea610b2e565b6108f49190611cd7565b6108fe9190611d27565b9392505050565b600a545f9081908190610922906001600160a01b03166001610c6c565b915091505f633b9aca006109365f80610324565b6109409190611d27565b602d54909150610957908290849061ffff1661111e565b80156109605750825b1561096c579392505050565b600954610981906001600160a01b0316610d9f565b935050505090565b8015610a11576001600160a01b038085165f908152602260209081526040808320600954909416835292905290812080548592906109c8908490611cee565b90915550506001600160a01b038085165f90815260226020908152604080832060335490941683529290529081208054849290610a06908490611cee565b90915550610a8e9050565b6001600160a01b038085165f90815260226020908152604080832060095490941683529290529081208054859290610a4a908490611914565b90915550506001600160a01b038085165f90815260226020908152604080832060335490941683529290529081208054849290610a88908490611914565b90915550505b50505050565b6025545f90819081908190610ab2906001600160a01b031682610c6c565b60265491935091505f908190610ad1906001600160a01b031682610c6c565b91509150838015610adf5750815b15610b21575f610b1282670de0b6b3a7640000610b0b876ec097ce7bc90715b34b9f1000000000611d27565b9190611151565b60019890975095505050505050565b505f958695509350505050565b5f670de0b6b3a7640000610b406105f1565b610b48610905565b610b529190611cd7565b610b5c9190611d27565b905090565b5f80610b6c8661116c565b90506001600160801b036001600160a01b03821611610bf1575f610b996001600160a01b03831680611cd7565b9050836001600160a01b0316856001600160a01b031610610bd157610bcc600160c01b6001600160801b0388168361157d565b610be9565b610be9816001600160801b038816600160c01b61157d565b925050610c63565b5f610c0f6001600160a01b038316806801000000000000000061157d565b9050836001600160a01b0316856001600160a01b031610610c4757610c42600160801b6001600160801b0388168361157d565b610c5f565b610c5f816001600160801b038816600160801b61157d565b9250505b50949350505050565b5f806138406402540be40084610c83576201518091505b600a546001600160a01b0390811690871603610ca3575062015180905060015b5f805f886001600160a01b031663feaf968c6040518163ffffffff1660e01b815260040160a060405180830381865afa158015610ce2573d5f803e3d5ffd5b505050506040513d601f19601f82011682018060405250810190610d069190611d58565b50935050925092508269ffffffffffffffffffff165f141580610d3657506025546001600160a01b038a81169116145b8015610d4157505f82135b8015610d4c57508015155b8015610d585750428111155b8015610d6d575084610d6a8242611914565b11155b15610d8c576001610d7e8584611cd7565b965096505050505050610d98565b5f809650965050505050505b9250929050565b6003545f906001600160a01b0390811690831603610e20575f633b9aca00610dc860025f610324565b610dd29190611d27565b90505f80610dde6101cd565b915091505f80610dec610a94565b91509150838015610dfa5750815b15610e1557610e0a85848361168a565b979650505050505050565b509295945050505050565b6009546001600160a01b0390811690831603610ede575f633b9aca00610e4760015f610324565b610e519190611d27565b90505f806009015f9054906101000a90046001600160a01b03166001600160a01b031663e6aa216c6040518163ffffffff1660e01b8152600401602060405180830381865afa158015610ea6573d5f803e3d5ffd5b505050506040513d601f19601f82011682018060405250810190610eca9190611a19565b9050610ed682826116f6565b949350505050565b60405163715ed81960e01b81526001600160a01b0383166004820152602401610773565b5f805f610f0d6105f1565b610f1c8664e8d4a51000611cd7565b610f2e90670de0b6b3a7640000611cd7565b610f389190611d27565b90505f670de0b6b3a7640000610f4c610905565b610f569087611cd7565b610f609190611d27565b9196919550909350505050565b6013545f908190610f90906601000000000000900462ffffff1684612710611151565b601585905590505f610fa0610905565b610fb283670de0b6b3a7640000611cd7565b610fbc9190611d27565b90505f610fc882611703565b60095460135460405163a9059cbb60e01b81526001600160a01b0369010000000000000000009092048216600482015260248101849052929350169063a9059cbb906044016020604051808303815f875af1158015611029573d5f803e3d5ffd5b505050506040513d601f19601f8201168201806040525081019061104d9190611da4565b5095945050505050565b602f54603055602e545f9061106c9042611914565b90506301e143205f61108f61107f6105f1565b8690670de0b6b3a7640000611151565b905061109b8383611d27565b6110a58583611d27565b6110af9190611cd7565b6110ba906064611cd7565b6110c790620f4240611cd7565b602f81905560305460408051848152602081018890529081018690529091907f24acc7e57080c86685edba47039057e67cc94a5bcdd72b62d5ce227f4eaaa5f29060600160405180910390a3505042602e55505050565b5f8061113261112d8686611d01565b6117a5565b90506111418161271087611151565b8361ffff16119150509392505050565b5f825f190484118302158202611165575f80fd5b5091020490565b5f805f8360020b12611181578260020b61118e565b8260020b61118e90611dbf565b905061119d620d89e719611dd9565b60020b8111156111d35760405162461bcd60e51b81526020600482015260016024820152601560fa1b6044820152606401610773565b5f816001165f036111e857600160801b6111fa565b6ffffcb933bd6fad37aa2d162d1a5940015b70ffffffffffffffffffffffffffffffffff1690506002821615611239576080611234826ffff97272373d413259a46990580e213a611cd7565b901c90505b600482161561126357608061125e826ffff2e50f5f656932ef12357cf3c7fdcc611cd7565b901c90505b600882161561128d576080611288826fffe5caca7e10e4e61c3624eaa0941cd0611cd7565b901c90505b60108216156112b75760806112b2826fffcb9843d60f6159c9db58835c926644611cd7565b901c90505b60208216156112e15760806112dc826fff973b41fa98c081472e6896dfb254c0611cd7565b901c90505b604082161561130b576080611306826fff2ea16466c96a3843ec78b326b52861611cd7565b901c90505b6080821615611335576080611330826ffe5dee046a99a2a811c461f1969c3053611cd7565b901c90505b61010082161561136057608061135b826ffcbe86c7900a88aedcffc83b479aa3a4611cd7565b901c90505b61020082161561138b576080611386826ff987a7253ac413176f2b074cf7815e54611cd7565b901c90505b6104008216156113b65760806113b1826ff3392b0822b70005940c7a398e4b70f3611cd7565b901c90505b6108008216156113e15760806113dc826fe7159475a2c29b7443b29c7fa6e889d9611cd7565b901c90505b61100082161561140c576080611407826fd097f3bdfd2022b8845ad8f792aa5825611cd7565b901c90505b612000821615611437576080611432826fa9f746462d870fdf8a65dc1f90e061e5611cd7565b901c90505b61400082161561146257608061145d826f70d869a156d2a1b890bb3df62baf32f7611cd7565b901c90505b61800082161561148d576080611488826f31be135f97d08fd981231505542fcfa6611cd7565b901c90505b620100008216156114b95760806114b4826f09aa508b5b7a84e1c677de54f3e99bc9611cd7565b901c90505b620200008216156114e45760806114df826e5d6af8dedb81196699c329225ee604611cd7565b901c90505b6204000082161561150e576080611509826d2216e584f5fa1ea926041bedfe98611cd7565b901c90505b62080000821615611536576080611531826b048a170391f7dc42444e8fa2611cd7565b901c90505b5f8460020b131561154f5761154c815f19611d27565b90505b61155e64010000000082611df9565b1561156a57600161156c565b5f5b610ed69060ff16602083901c611cee565b604051633f9b43b760e11b815260048101849052602481018390525f908190819073__$a7d7f0af96ad7248e2170a1364c3372171$__90637f36876e906044016040805180830381865af41580156115d7573d5f803e3d5ffd5b505050506040513d601f19601f820116820180604052508101906115fb9190611e0c565b6040516399ed504f60e01b8152600481018390526024810182905260448101879052919350915073__$a7d7f0af96ad7248e2170a1364c3372171$__906399ed504f90606401602060405180830381865af415801561165c573d5f803e3d5ffd5b505050506040513d601f19601f820116820180604052508101906116809190611a19565b9695505050505050565b5f82841015801561169b5750818411155b806116b157508284111580156116b15750818410155b156116bd5750826108fe565b8383101580156116cd5750818311155b806116e357508383111580156116e35750818310155b156116ef5750816108fe565b50806108fe565b5f60026108f48385611cee565b601f545f90819061172290600160a01b900461ffff1684612710611151565b600954601f5460405163a9059cbb60e01b81526001600160a01b03918216600482015260248101849052929350169063a9059cbb906044016020604051808303815f875af1158015611776573d5f803e3d5ffd5b505050506040513d601f19601f8201168201806040525081019061179a9190611da4565b506108fe8184611914565b5f600160ff1b82036117bc5750600160ff1b919050565b5f82136117d1576117cc82611dbf565b6105eb565b5090565b5f80604083850312156117e6575f80fd5b823591506020830135600281106117fb575f80fd5b809150509250929050565b6001600160a01b038116811461181a575f80fd5b50565b5f6020828403121561182d575f80fd5b81356108fe81611806565b801515811461181a575f80fd5b5f805f8060808587031215611858575f80fd5b843561186381611806565b93506020850135925060408501359150606085013561188181611838565b939692955090935050565b5f5b838110156118a657818101518382015260200161188e565b50505f910152565b60408152600960408201526853706f74507269636560b81b6060820152608060208201525f82518060808401526118ec8160a085016020870161188c565b601f01601f19169190910160a00192915050565b634e487b7160e01b5f52601160045260245ffd5b818103818111156105eb576105eb611900565b634e487b7160e01b5f52604160045260245ffd5b604051601f8201601f1916810167ffffffffffffffff8111828210171561196457611964611927565b604052919050565b5f805f6060848603121561197e575f80fd5b835161198981611838565b602085015190935067ffffffffffffffff808211156119a6575f80fd5b818601915086601f8301126119b9575f80fd5b8151818111156119cb576119cb611927565b6119de601f8201601f191660200161193b565b91508082528760208285010111156119f4575f80fd5b611a0581602084016020860161188c565b508093505050604084015190509250925092565b5f60208284031215611a29575f80fd5b5051919050565b5f60208284031215611a40575f80fd5b81516108fe81611806565b634e487b7160e01b5f52602160045260245ffd5b634e487b7160e01b5f52603260045260245ffd5b602080825282518282018190525f9190848201906040850190845b81811015611ab057835163ffffffff1683529284019291840191600101611a8e565b50909695505050505050565b5f67ffffffffffffffff821115611ad557611ad5611927565b5060051b60200190565b5f82601f830112611aee575f80fd5b81516020611b03611afe83611abc565b61193b565b8083825260208201915060208460051b870101935086841115611b24575f80fd5b602086015b84811015611b49578051611b3c81611806565b8352918301918301611b29565b509695505050505050565b5f8060408385031215611b65575f80fd5b825167ffffffffffffffff80821115611b7c575f80fd5b818501915085601f830112611b8f575f80fd5b81516020611b9f611afe83611abc565b82815260059290921b84018101918181019089841115611bbd575f80fd5b948201945b83861015611be95785518060060b8114611bda575f80fd5b82529482019490820190611bc2565b91880151919650909350505080821115611c01575f80fd5b50611c0e85828601611adf565b9150509250929050565b600682810b9082900b03667fffffffffffff198112667fffffffffffff821317156105eb576105eb611900565b634e487b7160e01b5f52601260045260245ffd5b5f8160060b8360060b80611c6f57611c6f611c45565b667fffffffffffff1982145f1982141615611c8c57611c8c611900565b90059392505050565b5f8260060b80611ca757611ca7611c45565b808360060b0791505092915050565b5f8160020b627fffff198103611cce57611cce611900565b5f190192915050565b80820281158282048414176105eb576105eb611900565b808201808211156105eb576105eb611900565b8181035f831280158383131683831282161715611d2057611d20611900565b5092915050565b5f82611d3557611d35611c45565b500490565b805169ffffffffffffffffffff81168114611d53575f80fd5b919050565b5f805f805f60a08688031215611d6c575f80fd5b611d7586611d3a565b9450602086015193506040860151925060608601519150611d9860808701611d3a565b90509295509295909350565b5f60208284031215611db4575f80fd5b81516108fe81611838565b5f600160ff1b8201611dd357611dd3611900565b505f0390565b5f8160020b627fffff198103611df157611df1611900565b5f0392915050565b5f82611e0757611e07611c45565b500690565b5f8060408385031215611e1d575f80fd5b50508051602090910151909290915056fea2646970667358221220828b1099e83aed97d8f09855b4e0e67990af6c7619806ebc54425a97572f489564736f6c63430008180033","linkReferences":{"contracts/libraries/Uint512.sol":{"Uint512":[{"start":5565,"length":20},{"start":5697,"length":20}]}}},"methodIdentifiers":{"DISPUTE_BUFFER()":"c1874867","ETH_USD()":"6260f55b","TIMEOUT_EXTENDED()":"8c4c501d","TIMEOUT_LINK_ETHUSD()":"d6c10168","chargeOZLfee()":"8e9cd10c","getLastRewards()":"2cc3eb0a","getOracleBackUp1()":"0b842e3b","getOracleBackUp2()":"f32cabc5","getUnderlyingValue(address)":"97d2ead2","getUniPrice(uint256,uint8)":"3154b6e2","rETH_ETH()":"d4afb73a","rETH_USD()":"f424c4ba","setValuePerOzToken(address,uint256,uint256,bool)":"db185e89"},"id":17}