{
  "abi": [
    {
      "inputs": [
        {
          "internalType": "uint256",
          "name": "blockNumber",
          "type": "uint256"
        }
      ],
      "name": "OZError14",
      "type": "error"
    },
    {
      "inputs": [],
      "name": "OZError23",
      "type": "error"
    },
    {
      "anonymous": false,
      "inputs": [
        {
          "indexed": false,
          "internalType": "uint256",
          "name": "blockNumber",
          "type": "uint256"
        },
        {
          "indexed": false,
          "internalType": "uint256",
          "name": "ozelFeesInRETH",
          "type": "uint256"
        },
        {
          "indexed": false,
          "internalType": "int256",
          "name": "totalRewards",
          "type": "int256"
        },
        {
          "indexed": false,
          "internalType": "int256",
          "name": "currentRewards",
          "type": "int256"
        }
      ],
      "name": "OzRewards",
      "type": "event"
    },
    {
      "inputs": [],
      "name": "DISPUTE_BUFFER",
      "outputs": [
        {
          "internalType": "uint256",
          "name": "",
          "type": "uint256"
        }
      ],
      "stateMutability": "view",
      "type": "function"
    },
    {
      "inputs": [],
      "name": "ETH_USD",
      "outputs": [
        {
          "internalType": "uint256",
          "name": "",
          "type": "uint256"
        }
      ],
      "stateMutability": "view",
      "type": "function"
    },
    {
      "inputs": [],
      "name": "TIMEOUT_EXTENDED",
      "outputs": [
        {
          "internalType": "uint256",
          "name": "",
          "type": "uint256"
        }
      ],
      "stateMutability": "view",
      "type": "function"
    },
    {
      "inputs": [],
      "name": "TIMEOUT_LINK",
      "outputs": [
        {
          "internalType": "uint256",
          "name": "",
          "type": "uint256"
        }
      ],
      "stateMutability": "view",
      "type": "function"
    },
    {
      "inputs": [],
      "name": "chargeOZLfee",
      "outputs": [
        {
          "internalType": "bool",
          "name": "",
          "type": "bool"
        }
      ],
      "stateMutability": "nonpayable",
      "type": "function"
    },
    {
      "inputs": [],
      "name": "getLastRewards",
      "outputs": [
        {
          "components": [
            {
              "internalType": "uint256",
              "name": "lastBlock",
              "type": "uint256"
            },
            {
              "internalType": "uint256",
              "name": "prevTotalRewards",
              "type": "uint256"
            }
          ],
          "internalType": "struct LastRewards",
          "name": "",
          "type": "tuple"
        }
      ],
      "stateMutability": "view",
      "type": "function"
    },
    {
      "inputs": [
        {
          "internalType": "address",
          "name": "ozToken_",
          "type": "address"
        }
      ],
      "name": "getUnderlyingValue",
      "outputs": [
        {
          "internalType": "uint256",
          "name": "",
          "type": "uint256"
        }
      ],
      "stateMutability": "view",
      "type": "function"
    },
    {
      "inputs": [],
      "name": "rETH_ETH",
      "outputs": [
        {
          "internalType": "uint256",
          "name": "",
          "type": "uint256"
        }
      ],
      "stateMutability": "view",
      "type": "function"
    },
    {
      "inputs": [],
      "name": "rETH_USD",
      "outputs": [
        {
          "internalType": "uint256",
          "name": "",
          "type": "uint256"
        }
      ],
      "stateMutability": "view",
      "type": "function"
    },
    {
      "inputs": [
        {
          "internalType": "address",
          "name": "ozToken_",
          "type": "address"
        },
        {
          "internalType": "uint256",
          "name": "amount_",
          "type": "uint256"
        },
        {
          "internalType": "bool",
          "name": "addOrSub_",
          "type": "bool"
        }
      ],
      "name": "setValuePerOzToken",
      "outputs": [],
      "stateMutability": "nonpayable",
      "type": "function"
    }
  ],
  "bytecode": {
    "object": "0x608060405234801561001057600080fd5b50611e7a806100206000396000f3fe608060405234801561001057600080fd5b506004361061009e5760003560e01c806397d2ead21161006657806397d2ead214610127578063b0ff97b51461013a578063c18748671461014f578063d4afb73a14610158578063f424c4ba1461016057600080fd5b80632cc3eb0a146100a357806340f1a34b146100e65780636260f55b146100fd5780638c4c501d146101055780638e9cd10c1461010f575b600080fd5b6040805180820182526000808252602091820152815180830183526016548082526017549183019182528351908152905191810191909152015b60405180910390f35b6100ef61384081565b6040519081526020016100dd565b6100ef610168565b6100ef62015f9081565b6101176101a5565b60405190151581526020016100dd565b6100ef61013536600461177b565b6103b3565b61014d6101483660046117a6565b610519565b005b6100ef61038481565b6100ef610585565b6100ef61060d565b60075460009081908190610186906001600160a01b03166001610644565b915091508161019c57610197610747565b61019e565b805b9250505090565b6009546040516370a0823160e01b815230600482015260009182916001600160a01b03909116906370a0823190602401602060405180830381865afa1580156101f2573d6000803e3d6000fd5b505050506040513d601f19601f8201168201806040525081019061021691906117e8565b90506000805b6001548110156102c957600180548290811061023a5761023a611801565b60009182526020918290200154604080516278744560e21b815290516001600160a01b03909216926301e1d114926004808401938290030181865afa158015610287573d6000803e3d6000fd5b505050506040513d601f19601f820116820180604052508101906102ab91906117e8565b6102b5908361182d565b9150806102c181611840565b91505061021c565b5060165443116102f35760405163dcfa2bfd60e01b81524360048201526024015b60405180910390fd5b600080610300838561076a565b909250905060006103118383611859565b9050600081136103275760009550505050505090565b6017546000906103379083611859565b90506000811361034e576000965050505050505090565b600061035a83836107d8565b6040805143815260208101839052908101859052606081018490529091507fd47935b2f6fd998224fcce47e28065f692a3452b54180fd1e43ba90daf9eb1949060800160405180910390a1600197505050505050505090565b6000806001600160a01b03831630146103e4576001600160a01b038316600090815260236020526040902054610450565b6009546040516370a0823160e01b81523060048201526001600160a01b03909116906370a0823190602401602060405180830381865afa15801561042c573d6000803e3d6000fd5b505050506040513d601f19601f8201168201806040525081019061045091906117e8565b905060008060090160009054906101000a90046001600160a01b03166001600160a01b031663e6aa216c6040518163ffffffff1660e01b8152600401602060405180830381865afa1580156104a9573d6000803e3d6000fd5b505050506040513d601f19601f820116820180604052508101906104cd91906117e8565b9050670de0b6b3a76400006104e0610168565b670de0b6b3a76400006104f38585611880565b6104fd91906118ad565b6105079190611880565b61051191906118ad565b949350505050565b8015610552576001600160a01b0383166000908152602360205260408120805484929061054790849061182d565b909155506105809050565b6001600160a01b0383166000908152602360205260408120805484929061057a9084906118c1565b90915550505b505050565b6000806000600a0160009054906101000a90046001600160a01b03166001600160a01b031663feaf968c6040518163ffffffff1660e01b815260040160a060405180830381865afa1580156105de573d6000803e3d6000fd5b505050506040513d601f19601f8201168201806040525081019061060291906118f3565b509195945050505050565b6000670de0b6b3a7640000610620610168565b610628610585565b6106329190611880565b61063c91906118ad565b600218905090565b6000806138406402540be4008461065c5762015f9091505b6000806000886001600160a01b031663feaf968c6040518163ffffffff1660e01b815260040160a060405180830381865afa15801561069f573d6000803e3d6000fd5b505050506040513d601f19601f820116820180604052508101906106c391906118f3565b50935050925092508269ffffffffffffffffffff166000141580156106e85750600082135b80156106f357508015155b80156106ff5750428111155b801561071457508461071182426118c1565b11155b156107335760006107258584611880565b965096505050505050610740565b6000809650965050505050505b9250929050565b6000806107526108ba565b9050600061075e6109ab565b90506000610511610b0d565b6000806000610777610168565b6107868664e8d4a51000611880565b61079890670de0b6b3a7640000611880565b6107a291906118ad565b90506000670de0b6b3a76400006107b7610585565b6107c19087611880565b6107cb91906118ad565b9196919550909350505050565b60155460009081906107f29062ffffff1684612710610c23565b601785905590506000610803610585565b61081583670de0b6b3a7640000611880565b61081f91906118ad565b9050600061082c82610c41565b60095460155460405163a9059cbb60e01b81526001600160a01b0363010000009092048216600482015260248101849052929350169063a9059cbb906044016020604051808303816000875af115801561088a573d6000803e3d6000fd5b505050506040513d601f19601f820116820180604052508101906108ae9190611943565b50925050505b92915050565b6024805460035460048054601354604051630b4c774160e11b81526001600160a01b03948516938101939093529083169482019490945262ffffff909316604484015260009283929190911690631698ee8290606401602060405180830381865afa15801561092d573d6000803e3d6000fd5b505050506040513d601f19601f820116820180604052508101906109519190611960565b9050600061096082600a610cdf565b5060035460045491925060009161098f918491670de0b6b3a7640000916001600160a01b039081169116610f25565b905060006109a28264e8d4a51000611880565b95945050505050565b6000806040516020016109ef9060408082526003908201819052620cae8d60eb1b6060830152608060208301819052820152621d5cd960ea1b60a082015260c00190565b60408051601f1981840301815290829052610a0c916020016119cd565b60408051601f198184030181529190528051602090910120602554909150600090819081906001600160a01b031663a792765f85610a4c610384426118c1565b6040516001600160e01b031960e085901b16815260048101929092526024820152604401600060405180830381865afa158015610a8d573d6000803e3d6000fd5b505050506040513d6000823e601f3d908101601f19168201604052610ab59190810190611a47565b925092509250821580610ad25750613840610ad082426118c1565b115b15610af057604051637614abcd60e11b815260040160405180910390fd5b81806020019051810190610b0491906117e8565b94505050505090565b600080600060260160009054906101000a90046001600160a01b03166001600160a01b031663feaf968c6040518163ffffffff1660e01b815260040160a060405180830381865afa158015610b66573d6000803e3d6000fd5b505050506040513d601f19601f82011682018060405250810190610b8a91906118f3565b505050915050610b9a6003611033565b602654600090610bb3906001600160a01b03168261107b565b60275490925060009150610bd0906001600160a01b03168261107b565b915060009050610bf482670de0b6b3a7640000610bed86826118ad565b9190610c23565b90506105116040518060400160405280600b81526020016a03932b210383934b1b29d160ad1b8152508261116e565b6000826000190484118302158202610c3a57600080fd5b5091020490565b600080610c52603284612710610c23565b60095460215460405163a9059cbb60e01b81526001600160a01b03918216600482015260248101849052929350169063a9059cbb906044016020604051808303816000875af1158015610ca9573d6000803e3d6000fd5b505050506040513d601f19601f82011682018060405250810190610ccd9190611943565b50610cd881846118c1565b9392505050565b6000808263ffffffff16600003610d1d5760405162461bcd60e51b8152602060048201526002602482015261042560f41b60448201526064016102ea565b6040805160028082526060820183526000926020830190803683370190505090508381600081518110610d5257610d52611801565b602002602001019063ffffffff16908163ffffffff1681525050600081600181518110610d8157610d81611801565b602002602001019063ffffffff16908163ffffffff1681525050600080866001600160a01b031663883bdbfd846040518263ffffffff1660e01b8152600401610dca9190611afa565b600060405180830381865afa158015610de7573d6000803e3d6000fd5b505050506040513d6000823e601f3d908101601f19168201604052610e0f9190810190611bdc565b91509150600082600081518110610e2857610e28611801565b602002602001015183600181518110610e4357610e43611801565b6020026020010151610e559190611ca8565b9050600082600081518110610e6c57610e6c611801565b602002602001015183600181518110610e8757610e87611801565b6020026020010151610e999190611cd5565b9050610ea9600389900b83611cf5565b965060008260060b128015610ecd5750610ec7600389900b83611d33565b60060b15155b15610ee05786610edc81611d55565b9750505b6000610ef96001600160a01b0363ffffffff8b16611d78565b9050610f16640100000000600160c01b03602084901b1682611daa565b96505050505050509250929050565b600080610f31866111b7565b90506001600160801b036001600160a01b03821611610fb7576000610f5f6001600160a01b03831680611880565b9050836001600160a01b0316856001600160a01b031610610f9757610f92600160c01b876001600160801b0316836115cf565b610faf565b610faf81876001600160801b0316600160c01b6115cf565b92505061102a565b6000610fd66001600160a01b03831680680100000000000000006115cf565b9050836001600160a01b0316856001600160a01b03161061100e57611009600160801b876001600160801b0316836115cf565b611026565b61102681876001600160801b0316600160801b6115cf565b9250505b50949350505050565b6110788160405160240161104991815260200190565b60408051601f198184030181529190526020810180516001600160e01b031663f5b1bba960e01b179052611745565b50565b6000806138406402540be400846110935762015f9091505b61109d6001611033565b6000806000886001600160a01b031663feaf968c6040518163ffffffff1660e01b815260040160a060405180830381865afa1580156110e0573d6000803e3d6000fd5b505050506040513d601f19601f8201168201806040525081019061110491906118f3565b50935050925092506111166002611033565b69ffffffffffffffffffff8316158015906111315750600082135b801561113c57508015155b80156111485750428111155b801561115d57508461115a82426118c1565b11155b156107335760016107258584611880565b6111b38282604051602401611184929190611dd0565b60408051601f198184030181529190526020810180516001600160e01b03166309710a9d60e41b179052611745565b5050565b60008060008360020b126111ce578260020b6111db565b8260020b6111db90611df2565b90506111ea620d89e719611e0e565b60020b8111156112205760405162461bcd60e51b81526020600482015260016024820152601560fa1b60448201526064016102ea565b60008160011660000361123757600160801b611249565b6ffffcb933bd6fad37aa2d162d1a5940015b70ffffffffffffffffffffffffffffffffff1690506002821615611288576080611283826ffff97272373d413259a46990580e213a611880565b901c90505b60048216156112b25760806112ad826ffff2e50f5f656932ef12357cf3c7fdcc611880565b901c90505b60088216156112dc5760806112d7826fffe5caca7e10e4e61c3624eaa0941cd0611880565b901c90505b6010821615611306576080611301826fffcb9843d60f6159c9db58835c926644611880565b901c90505b602082161561133057608061132b826fff973b41fa98c081472e6896dfb254c0611880565b901c90505b604082161561135a576080611355826fff2ea16466c96a3843ec78b326b52861611880565b901c90505b608082161561138457608061137f826ffe5dee046a99a2a811c461f1969c3053611880565b901c90505b6101008216156113af5760806113aa826ffcbe86c7900a88aedcffc83b479aa3a4611880565b901c90505b6102008216156113da5760806113d5826ff987a7253ac413176f2b074cf7815e54611880565b901c90505b610400821615611405576080611400826ff3392b0822b70005940c7a398e4b70f3611880565b901c90505b61080082161561143057608061142b826fe7159475a2c29b7443b29c7fa6e889d9611880565b901c90505b61100082161561145b576080611456826fd097f3bdfd2022b8845ad8f792aa5825611880565b901c90505b612000821615611486576080611481826fa9f746462d870fdf8a65dc1f90e061e5611880565b901c90505b6140008216156114b15760806114ac826f70d869a156d2a1b890bb3df62baf32f7611880565b901c90505b6180008216156114dc5760806114d7826f31be135f97d08fd981231505542fcfa6611880565b901c90505b62010000821615611508576080611503826f09aa508b5b7a84e1c677de54f3e99bc9611880565b901c90505b6202000082161561153357608061152e826e5d6af8dedb81196699c329225ee604611880565b901c90505b6204000082161561155d576080611558826d2216e584f5fa1ea926041bedfe98611880565b901c90505b62080000821615611585576080611580826b048a170391f7dc42444e8fa2611880565b901c90505b60008460020b13156115a05761159d816000196118ad565b90505b6115af64010000000082611e30565b156115bb5760016115be565b60005b6105119060ff16602083901c61182d565b600080806000198587098587029250828110838203039150508060000361160857600084116115fd57600080fd5b508290049050610cd8565b80841161161457600080fd5b60008486880980840393811190920391905060008561163281611df2565b169586900495938490049360008190030460010190506116528184611880565b909317926000611663876003611880565b60021890506116728188611880565b61167d9060026118c1565b6116879082611880565b90506116938188611880565b61169e9060026118c1565b6116a89082611880565b90506116b48188611880565b6116bf9060026118c1565b6116c99082611880565b90506116d58188611880565b6116e09060026118c1565b6116ea9082611880565b90506116f68188611880565b6117019060026118c1565b61170b9082611880565b90506117178188611880565b6117229060026118c1565b61172c9082611880565b90506117388186611880565b9998505050505050505050565b80516a636f6e736f6c652e6c6f67602083016000808483855afa5050505050565b6001600160a01b038116811461107857600080fd5b60006020828403121561178d57600080fd5b8135610cd881611766565b801515811461107857600080fd5b6000806000606084860312156117bb57600080fd5b83356117c681611766565b92506020840135915060408401356117dd81611798565b809150509250925092565b6000602082840312156117fa57600080fd5b5051919050565b634e487b7160e01b600052603260045260246000fd5b634e487b7160e01b600052601160045260246000fd5b808201808211156108b4576108b4611817565b60006001820161185257611852611817565b5060010190565b818103600083128015838313168383128216171561187957611879611817565b5092915050565b80820281158282048414176108b4576108b4611817565b634e487b7160e01b600052601260045260246000fd5b6000826118bc576118bc611897565b500490565b818103818111156108b4576108b4611817565b805169ffffffffffffffffffff811681146118ee57600080fd5b919050565b600080600080600060a0868803121561190b57600080fd5b611914866118d4565b9450602086015193506040860151925060608601519150611937608087016118d4565b90509295509295909350565b60006020828403121561195557600080fd5b8151610cd881611798565b60006020828403121561197257600080fd5b8151610cd881611766565b60005b83811015611998578181015183820152602001611980565b50506000910152565b600081518084526119b981602086016020860161197d565b601f01601f19169290920160200192915050565b60408152600960408201526853706f74507269636560b81b6060820152608060208201526000610cd860808301846119a1565b634e487b7160e01b600052604160045260246000fd5b604051601f8201601f1916810167ffffffffffffffff81118282101715611a3f57611a3f611a00565b604052919050565b600080600060608486031215611a5c57600080fd5b8351611a6781611798565b602085015190935067ffffffffffffffff80821115611a8557600080fd5b818601915086601f830112611a9957600080fd5b815181811115611aab57611aab611a00565b611abe601f8201601f1916602001611a16565b9150808252876020828501011115611ad557600080fd5b611ae681602084016020860161197d565b508093505050604084015190509250925092565b6020808252825182820181905260009190848201906040850190845b81811015611b3857835163ffffffff1683529284019291840191600101611b16565b50909695505050505050565b600067ffffffffffffffff821115611b5e57611b5e611a00565b5060051b60200190565b600082601f830112611b7957600080fd5b81516020611b8e611b8983611b44565b611a16565b82815260059290921b84018101918181019086841115611bad57600080fd5b8286015b84811015611bd1578051611bc481611766565b8352918301918301611bb1565b509695505050505050565b60008060408385031215611bef57600080fd5b825167ffffffffffffffff80821115611c0757600080fd5b818501915085601f830112611c1b57600080fd5b81516020611c2b611b8983611b44565b82815260059290921b84018101918181019089841115611c4a57600080fd5b948201945b83861015611c785785518060060b8114611c695760008081fd5b82529482019490820190611c4f565b91880151919650909350505080821115611c9157600080fd5b50611c9e85828601611b68565b9150509250929050565b600682810b9082900b03667fffffffffffff198112667fffffffffffff821317156108b4576108b4611817565b6001600160a01b0382811682821603908082111561187957611879611817565b60008160060b8360060b80611d0c57611d0c611897565b667fffffffffffff19821460001982141615611d2a57611d2a611817565b90059392505050565b60008260060b80611d4657611d46611897565b808360060b0791505092915050565b60008160020b627fffff198103611d6e57611d6e611817565b6000190192915050565b6001600160c01b03828116828216818102831692918115828504821417611da157611da1611817565b50505092915050565b60006001600160c01b0383811680611dc457611dc4611897565b92169190910492915050565b604081526000611de360408301856119a1565b90508260208301529392505050565b6000600160ff1b8201611e0757611e07611817565b5060000390565b60008160020b627fffff198103611e2757611e27611817565b60000392915050565b600082611e3f57611e3f611897565b50069056fea26469706673582212200a9e6564a340f65fb6260680958e5939caa8f2e55dbd0bce264d9ea085c48c1e64736f6c63430008150033",
    "linkReferences": {}
  },
  "methodIdentifiers": {
    "DISPUTE_BUFFER()": "c1874867",
    "ETH_USD()": "6260f55b",
    "TIMEOUT_EXTENDED()": "8c4c501d",
    "TIMEOUT_LINK()": "40f1a34b",
    "chargeOZLfee()": "8e9cd10c",
    "getLastRewards()": "2cc3eb0a",
    "getUnderlyingValue(address)": "97d2ead2",
    "rETH_ETH()": "d4afb73a",
    "rETH_USD()": "f424c4ba",
    "setValuePerOzToken(address,uint256,bool)": "b0ff97b5"
  },
  "id": 17
}