{"abi":[{"type":"function","name":"DISPUTE_BUFFER","inputs":[],"outputs":[{"name":"","type":"uint256","internalType":"uint256"}],"stateMutability":"view"},{"type":"function","name":"ETH_USD","inputs":[],"outputs":[{"name":"","type":"uint256","internalType":"uint256"}],"stateMutability":"view"},{"type":"function","name":"TIMEOUT_EXTENDED","inputs":[],"outputs":[{"name":"","type":"uint256","internalType":"uint256"}],"stateMutability":"view"},{"type":"function","name":"TIMEOUT_LINK_ETHUSD","inputs":[],"outputs":[{"name":"","type":"uint256","internalType":"uint256"}],"stateMutability":"view"},{"type":"function","name":"chargeOZLfee","inputs":[],"outputs":[{"name":"","type":"bool","internalType":"bool"}],"stateMutability":"nonpayable"},{"type":"function","name":"getLastRewards","inputs":[],"outputs":[{"name":"","type":"tuple","internalType":"struct LastRewards","components":[{"name":"lastBlock","type":"uint256","internalType":"uint256"},{"name":"prevTotalRewards","type":"uint256","internalType":"uint256"}]}],"stateMutability":"view"},{"type":"function","name":"getOracleBackUp1","inputs":[],"outputs":[{"name":"","type":"bool","internalType":"bool"},{"name":"","type":"uint256","internalType":"uint256"}],"stateMutability":"view"},{"type":"function","name":"getOracleBackUp2","inputs":[],"outputs":[{"name":"","type":"bool","internalType":"bool"},{"name":"","type":"uint256","internalType":"uint256"}],"stateMutability":"view"},{"type":"function","name":"getUnderlyingValue","inputs":[{"name":"ozToken_","type":"address","internalType":"address"}],"outputs":[{"name":"","type":"uint256","internalType":"uint256"}],"stateMutability":"view"},{"type":"function","name":"getUniPrice","inputs":[{"name":"tokenPair_","type":"uint256","internalType":"uint256"},{"name":"side_","type":"uint8","internalType":"enum Dir"}],"outputs":[{"name":"","type":"uint256","internalType":"uint256"}],"stateMutability":"view"},{"type":"function","name":"rETH_ETH","inputs":[],"outputs":[{"name":"","type":"uint256","internalType":"uint256"}],"stateMutability":"view"},{"type":"function","name":"rETH_USD","inputs":[],"outputs":[{"name":"","type":"uint256","internalType":"uint256"}],"stateMutability":"view"},{"type":"function","name":"setValuePerOzToken","inputs":[{"name":"ozToken_","type":"address","internalType":"address"},{"name":"amount_","type":"uint256","internalType":"uint256"},{"name":"addOrSub_","type":"bool","internalType":"bool"}],"outputs":[],"stateMutability":"nonpayable"},{"type":"event","name":"APRcalculated","inputs":[{"name":"currAPR","type":"uint256","indexed":true,"internalType":"uint256"},{"name":"prevAPR","type":"uint256","indexed":true,"internalType":"uint256"},{"name":"currentRewardsUSD","type":"uint256","indexed":false,"internalType":"uint256"},{"name":"totalAssets","type":"uint256","indexed":false,"internalType":"uint256"},{"name":"deltaStamp","type":"uint256","indexed":false,"internalType":"uint256"}],"anonymous":false},{"type":"event","name":"OzRewards","inputs":[{"name":"blockNumber","type":"uint256","indexed":false,"internalType":"uint256"},{"name":"ozelFeesInRETH","type":"uint256","indexed":false,"internalType":"uint256"},{"name":"totalRewards","type":"int256","indexed":false,"internalType":"int256"},{"name":"currentRewards","type":"int256","indexed":false,"internalType":"int256"}],"anonymous":false},{"type":"error","name":"OZError14","inputs":[{"name":"blockNumber","type":"uint256","internalType":"uint256"}]},{"type":"error","name":"OZError23","inputs":[{"name":"baseToken","type":"address","internalType":"address"}]}],"bytecode":{"object":"0x608060405234801561001057600080fd5b50611eb5806100206000396000f3fe608060405234801561001057600080fd5b50600436106100cf5760003560e01c806397d2ead21161008c578063d4afb73a11610066578063d4afb73a146101b2578063d6c10168146101ba578063f32cabc5146101c3578063f424c4ba146101cb57600080fd5b806397d2ead214610181578063b0ff97b514610194578063c1874867146101a957600080fd5b80630b842e3b146100d45780632cc3eb0a146100f85780633154b6e2146101365780636260f55b146101575780638c4c501d1461015f5780638e9cd10c14610169575b600080fd5b6100dc6101d3565b6040805192151583526020830191909152015b60405180910390f35b6040805180820182526000808252602091820152815180830183526014548082526015549183019182528351908152905191810191909152016100ef565b6101496101443660046117fa565b610332565b6040519081526020016100ef565b610149610610565b6101496201518081565b61017161065a565b60405190151581526020016100ef565b61014961018f366004611846565b610876565b6101a76101a2366004611871565b610942565b005b61014961038481565b6101496109ae565b61014961384081565b6100dc610a35565b610149610ad3565b60008060006040516020016102199060408082526003908201819052620cae8d60eb1b6060830152608060208301819052820152621d5cd960ea1b60a082015260c00190565b60408051601f1981840301815290829052610236916020016118d7565b60408051601f198184030181529190528051602090910120602354909150600090819081906001600160a01b031663a792765f8561027661038442611940565b6040516001600160e01b031960e085901b16815260048101929092526024820152604401600060405180830381865afa1580156102b7573d6000803e3d6000fd5b505050506040513d6000823e601f3d908101601f191682016040526102df919081019061199a565b9250925092508215806102fd5750620151806102fb8242611940565b115b1561031057506000958695509350505050565b6001828060200190518101906103269190611a4d565b95509550505050509091565b6000828152602b60209081526040808320815160608101835281546001600160a01b03908116808352600190930154808216838701819052600160a01b90910462ffffff169285018390526022548551630b4c774160e11b8152600481018690526024810183905260448101859052955194969195939488949190931692631698ee82926064808401939192918290030181865afa1580156103d8573d6000803e3d6000fd5b505050506040513d601f19601f820116820180604052508101906103fc9190611a66565b905060008087600181111561041357610413611a83565b146104215762015180610425565b6107085b60408051600280825260608201835262ffffff9390931693506000929091602083019080368337019050509050818160008151811061046657610466611a99565b602002602001019063ffffffff16908163ffffffff168152505060008160018151811061049557610495611a99565b63ffffffff9092166020928302919091019091015260405163883bdbfd60e01b81526000906001600160a01b0385169063883bdbfd906104d9908590600401611aaf565b600060405180830381865afa1580156104f6573d6000803e3d6000fd5b505050506040513d6000823e601f3d908101601f1916820160405261051e9190810190611b91565b50905060008160008151811061053657610536611a99565b60200260200101518260018151811061055157610551611a99565b60200260200101516105639190611c5d565b90506000610575600386900b83611ca0565b905060008260060b1280156105995750610593600386900b83611cde565b60060b15155b156105ac57806105a881611d00565b9150505b60006105c6826b033b2e3c9fd0803ce80000008c8c610b07565b6003549091506001600160a01b038a81169116146105e95764e8d4a510006105ec565b60015b6105fd9064ffffffffff1682611d23565b9a50505050505050505050505b92915050565b6007546000908190819061062e906001600160a01b03166001610c15565b91509150816106515760035461064c906001600160a01b0316610d50565b610653565b805b9250505090565b6009546040516370a0823160e01b815230600482015260009182916001600160a01b03909116906370a0823190602401602060405180830381865afa1580156106a7573d6000803e3d6000fd5b505050506040513d601f19601f820116820180604052508101906106cb9190611a4d565b90506000805b6001548110156107835760018054829081106106ef576106ef611a99565b600091825260209182902060029091020154604080516278744560e21b815290516001600160a01b03909216926301e1d114926004808401938290030181865afa158015610741573d6000803e3d6000fd5b505050506040513d601f19601f820116820180604052508101906107659190611a4d565b61076f9083611d3a565b91508061077b81611d4d565b9150506106d1565b5060145443116107ad5760405163dcfa2bfd60e01b81524360048201526024015b60405180910390fd5b6000806107ba8385610ea0565b909250905060006107cb8383611d66565b9050600081136107e15760009550505050505090565b6015546000906107f19083611d66565b905060008113610808576000965050505050505090565b60006108148383610f0e565b90506108208287610ffe565b6040805143815260208101839052908101849052606081018390527fd47935b2f6fd998224fcce47e28065f692a3452b54180fd1e43ba90daf9eb1949060800160405180910390a1600197505050505050505090565b6000806001600160a01b03831630146108a7576001600160a01b038316600090815260216020526040902054610913565b6009546040516370a0823160e01b81523060048201526001600160a01b03909116906370a0823190602401602060405180830381865afa1580156108ef573d6000803e3d6000fd5b505050506040513d601f19601f820116820180604052508101906109139190611a4d565b9050670de0b6b3a764000081610927610ad3565b6109319190611d23565b61093b9190611d8d565b9392505050565b801561097b576001600160a01b03831660009081526021602052604081208054849290610970908490611d3a565b909155506109a99050565b6001600160a01b038316600090815260216020526040812080548492906109a3908490611940565b90915550505b505050565b600a54600090819081906109cc906001600160a01b03166001610c15565b915091506000633b9aca006109e2600080610332565b6109ec9190611d8d565b602c54909150610a03908290849061ffff166110c7565b8015610a0c5750825b15610a18579392505050565b600954610a2d906001600160a01b0316610d50565b935050505090565b602454600090819081908190610a54906001600160a01b031682610c15565b60255491935091506000908190610a74906001600160a01b031682610c15565b91509150838015610a825750815b15610ac5576000610ab682670de0b6b3a7640000610aaf876ec097ce7bc90715b34b9f1000000000611d8d565b91906110fb565b60019890975095505050505050565b506000958695509350505050565b6000670de0b6b3a7640000610ae6610610565b610aee6109ae565b610af89190611d23565b610b029190611d8d565b905090565b600080610b1386611119565b90506001600160801b036001600160a01b03821611610b99576000610b416001600160a01b03831680611d23565b9050836001600160a01b0316856001600160a01b031610610b7957610b74600160c01b876001600160801b031683611531565b610b91565b610b9181876001600160801b0316600160c01b611531565b925050610c0c565b6000610bb86001600160a01b0383168068010000000000000000611531565b9050836001600160a01b0316856001600160a01b031610610bf057610beb600160801b876001600160801b031683611531565b610c08565b610c0881876001600160801b0316600160801b611531565b9250505b50949350505050565b6000806138406402540be40084610c2d576201518091505b600a546001600160a01b0390811690871603610c4d575062015180905060015b6000806000886001600160a01b031663feaf968c6040518163ffffffff1660e01b815260040160a060405180830381865afa158015610c90573d6000803e3d6000fd5b505050506040513d601f19601f82011682018060405250810190610cb49190611dc0565b50935050925092508269ffffffffffffffffffff166000141580610ce557506024546001600160a01b038a81169116145b8015610cf15750600082135b8015610cfc57508015155b8015610d085750428111155b8015610d1d575084610d1a8242611940565b11155b15610d3c576001610d2e8584611d23565b965096505050505050610d49565b6000809650965050505050505b9250929050565b6003546000906001600160a01b0390811690831603610dc7576000610d7760026000610332565b9050600080610d846101d3565b91509150600080610d93610a35565b91509150838015610da15750815b15610dbc57610db18584836116a7565b979650505050505050565b509295945050505050565b6009546001600160a01b0390811690831603610e7c576000610deb60016000610332565b905060008060090160009054906101000a90046001600160a01b03166001600160a01b031663e6aa216c6040518163ffffffff1660e01b8152600401602060405180830381865afa158015610e44573d6000803e3d6000fd5b505050506040513d601f19601f82011682018060405250810190610e689190611a4d565b9050610e748282611714565b949350505050565b60405163715ed81960e01b81526001600160a01b03831660048201526024016107a4565b6000806000610ead610610565b610ebc8664e8d4a51000611d23565b610ece90670de0b6b3a7640000611d23565b610ed89190611d8d565b90506000670de0b6b3a7640000610eed6109ae565b610ef79087611d23565b610f019190611d8d565b9196919550909350505050565b6013546000908190610f32906601000000000000900462ffffff16846127106110fb565b601585905590506000610f436109ae565b610f5583670de0b6b3a7640000611d23565b610f5f9190611d8d565b90506000610f6c82611722565b60095460135460405163a9059cbb60e01b81526001600160a01b0369010000000000000000009092048216600482015260248101849052929350169063a9059cbb906044016020604051808303816000875af1158015610fd0573d6000803e3d6000fd5b505050506040513d601f19601f82011682018060405250810190610ff49190611e10565b5095945050505050565b602e54602f55602d546000906110149042611940565b90506301e143206000611038611028610610565b8690670de0b6b3a76400006110fb565b90506110448383611d8d565b61104e8583611d8d565b6110589190611d23565b611063906064611d23565b61107090620f4240611d23565b602e819055602f5460408051848152602081018890529081018690529091907f24acc7e57080c86685edba47039057e67cc94a5bcdd72b62d5ce227f4eaaa5f29060600160405180910390a3505042602d55505050565b6000806110dc6110d78686611d66565b6117c8565b90506110eb81612710876110fb565b8361ffff16119150509392505050565b600082600019048411830215820261111257600080fd5b5091020490565b60008060008360020b12611130578260020b61113d565b8260020b61113d90611e2d565b905061114c620d89e719611e49565b60020b8111156111825760405162461bcd60e51b81526020600482015260016024820152601560fa1b60448201526064016107a4565b60008160011660000361119957600160801b6111ab565b6ffffcb933bd6fad37aa2d162d1a5940015b70ffffffffffffffffffffffffffffffffff16905060028216156111ea5760806111e5826ffff97272373d413259a46990580e213a611d23565b901c90505b600482161561121457608061120f826ffff2e50f5f656932ef12357cf3c7fdcc611d23565b901c90505b600882161561123e576080611239826fffe5caca7e10e4e61c3624eaa0941cd0611d23565b901c90505b6010821615611268576080611263826fffcb9843d60f6159c9db58835c926644611d23565b901c90505b602082161561129257608061128d826fff973b41fa98c081472e6896dfb254c0611d23565b901c90505b60408216156112bc5760806112b7826fff2ea16466c96a3843ec78b326b52861611d23565b901c90505b60808216156112e65760806112e1826ffe5dee046a99a2a811c461f1969c3053611d23565b901c90505b61010082161561131157608061130c826ffcbe86c7900a88aedcffc83b479aa3a4611d23565b901c90505b61020082161561133c576080611337826ff987a7253ac413176f2b074cf7815e54611d23565b901c90505b610400821615611367576080611362826ff3392b0822b70005940c7a398e4b70f3611d23565b901c90505b61080082161561139257608061138d826fe7159475a2c29b7443b29c7fa6e889d9611d23565b901c90505b6110008216156113bd5760806113b8826fd097f3bdfd2022b8845ad8f792aa5825611d23565b901c90505b6120008216156113e85760806113e3826fa9f746462d870fdf8a65dc1f90e061e5611d23565b901c90505b61400082161561141357608061140e826f70d869a156d2a1b890bb3df62baf32f7611d23565b901c90505b61800082161561143e576080611439826f31be135f97d08fd981231505542fcfa6611d23565b901c90505b6201000082161561146a576080611465826f09aa508b5b7a84e1c677de54f3e99bc9611d23565b901c90505b62020000821615611495576080611490826e5d6af8dedb81196699c329225ee604611d23565b901c90505b620400008216156114bf5760806114ba826d2216e584f5fa1ea926041bedfe98611d23565b901c90505b620800008216156114e75760806114e2826b048a170391f7dc42444e8fa2611d23565b901c90505b60008460020b1315611502576114ff81600019611d8d565b90505b61151164010000000082611e6b565b1561151d576001611520565b60005b610e749060ff16602083901c611d3a565b600080806000198587098587029250828110838203039150508060000361156a576000841161155f57600080fd5b50829004905061093b565b80841161157657600080fd5b60008486880980840393811190920391905060008561159481611e2d565b169586900495938490049360008190030460010190506115b48184611d23565b9093179260006115c5876003611d23565b60021890506115d48188611d23565b6115df906002611940565b6115e99082611d23565b90506115f58188611d23565b611600906002611940565b61160a9082611d23565b90506116168188611d23565b611621906002611940565b61162b9082611d23565b90506116378188611d23565b611642906002611940565b61164c9082611d23565b90506116588188611d23565b611663906002611940565b61166d9082611d23565b90506116798188611d23565b611684906002611940565b61168e9082611d23565b905061169a8186611d23565b9998505050505050505050565b60008284101580156116b95750818411155b806116cf57508284111580156116cf5750818410155b156116db57508261093b565b8383101580156116eb5750818311155b8061170157508383111580156117015750818310155b1561170d57508161093b565b508061093b565b600060026109318385611d3a565b601f54600090819061174290600160a01b900461ffff16846127106110fb565b600954601f5460405163a9059cbb60e01b81526001600160a01b03918216600482015260248101849052929350169063a9059cbb906044016020604051808303816000875af1158015611799573d6000803e3d6000fd5b505050506040513d601f19601f820116820180604052508101906117bd9190611e10565b5061093b8184611940565b6000600160ff1b82036117e05750600160ff1b919050565b600082136117f6576117f182611e2d565b61060a565b5090565b6000806040838503121561180d57600080fd5b8235915060208301356002811061182357600080fd5b809150509250929050565b6001600160a01b038116811461184357600080fd5b50565b60006020828403121561185857600080fd5b813561093b8161182e565b801515811461184357600080fd5b60008060006060848603121561188657600080fd5b83356118918161182e565b92506020840135915060408401356118a881611863565b809150509250925092565b60005b838110156118ce5781810151838201526020016118b6565b50506000910152565b60408152600960408201526853706f74507269636560b81b606082015260806020820152600082518060808401526119168160a08501602087016118b3565b601f01601f19169190910160a00192915050565b634e487b7160e01b600052601160045260246000fd5b8181038181111561060a5761060a61192a565b634e487b7160e01b600052604160045260246000fd5b604051601f8201601f1916810167ffffffffffffffff8111828210171561199257611992611953565b604052919050565b6000806000606084860312156119af57600080fd5b83516119ba81611863565b602085015190935067ffffffffffffffff808211156119d857600080fd5b818601915086601f8301126119ec57600080fd5b8151818111156119fe576119fe611953565b611a11601f8201601f1916602001611969565b9150808252876020828501011115611a2857600080fd5b611a398160208401602086016118b3565b508093505050604084015190509250925092565b600060208284031215611a5f57600080fd5b5051919050565b600060208284031215611a7857600080fd5b815161093b8161182e565b634e487b7160e01b600052602160045260246000fd5b634e487b7160e01b600052603260045260246000fd5b6020808252825182820181905260009190848201906040850190845b81811015611aed57835163ffffffff1683529284019291840191600101611acb565b50909695505050505050565b600067ffffffffffffffff821115611b1357611b13611953565b5060051b60200190565b600082601f830112611b2e57600080fd5b81516020611b43611b3e83611af9565b611969565b82815260059290921b84018101918181019086841115611b6257600080fd5b8286015b84811015611b86578051611b798161182e565b8352918301918301611b66565b509695505050505050565b60008060408385031215611ba457600080fd5b825167ffffffffffffffff80821115611bbc57600080fd5b818501915085601f830112611bd057600080fd5b81516020611be0611b3e83611af9565b82815260059290921b84018101918181019089841115611bff57600080fd5b948201945b83861015611c2d5785518060060b8114611c1e5760008081fd5b82529482019490820190611c04565b91880151919650909350505080821115611c4657600080fd5b50611c5385828601611b1d565b9150509250929050565b600682810b9082900b03667fffffffffffff198112667fffffffffffff8213171561060a5761060a61192a565b634e487b7160e01b600052601260045260246000fd5b60008160060b8360060b80611cb757611cb7611c8a565b667fffffffffffff19821460001982141615611cd557611cd561192a565b90059392505050565b60008260060b80611cf157611cf1611c8a565b808360060b0791505092915050565b60008160020b627fffff198103611d1957611d1961192a565b6000190192915050565b808202811582820484141761060a5761060a61192a565b8082018082111561060a5761060a61192a565b600060018201611d5f57611d5f61192a565b5060010190565b8181036000831280158383131683831282161715611d8657611d8661192a565b5092915050565b600082611d9c57611d9c611c8a565b500490565b805169ffffffffffffffffffff81168114611dbb57600080fd5b919050565b600080600080600060a08688031215611dd857600080fd5b611de186611da1565b9450602086015193506040860151925060608601519150611e0460808701611da1565b90509295509295909350565b600060208284031215611e2257600080fd5b815161093b81611863565b6000600160ff1b8201611e4257611e4261192a565b5060000390565b60008160020b627fffff198103611e6257611e6261192a565b60000392915050565b600082611e7a57611e7a611c8a565b50069056fea2646970667358221220e09d7b2b80f0bdec63d3c7836e8f653221decfc73b793aeadf25e6ec0f41772664736f6c63430008150033","linkReferences":{}},"methodIdentifiers":{"DISPUTE_BUFFER()":"c1874867","ETH_USD()":"6260f55b","TIMEOUT_EXTENDED()":"8c4c501d","TIMEOUT_LINK_ETHUSD()":"d6c10168","chargeOZLfee()":"8e9cd10c","getLastRewards()":"2cc3eb0a","getOracleBackUp1()":"0b842e3b","getOracleBackUp2()":"f32cabc5","getUnderlyingValue(address)":"97d2ead2","getUniPrice(uint256,uint8)":"3154b6e2","rETH_ETH()":"d4afb73a","rETH_USD()":"f424c4ba","setValuePerOzToken(address,uint256,bool)":"b0ff97b5"},"id":17}