{
  "abi": [
    {
      "inputs": [
        {
          "internalType": "uint256",
          "name": "blockNumber",
          "type": "uint256"
        }
      ],
      "name": "OZError14",
      "type": "error"
    },
    {
      "inputs": [],
      "name": "OZError23",
      "type": "error"
    },
    {
      "anonymous": false,
      "inputs": [
        {
          "indexed": false,
          "internalType": "uint256",
          "name": "blockNumber",
          "type": "uint256"
        },
        {
          "indexed": false,
          "internalType": "uint256",
          "name": "ozelFeesInRETH",
          "type": "uint256"
        },
        {
          "indexed": false,
          "internalType": "int256",
          "name": "totalRewards",
          "type": "int256"
        },
        {
          "indexed": false,
          "internalType": "int256",
          "name": "currentRewards",
          "type": "int256"
        }
      ],
      "name": "OzRewards",
      "type": "event"
    },
    {
      "inputs": [],
      "name": "DISPUTE_BUFFER",
      "outputs": [
        {
          "internalType": "uint256",
          "name": "",
          "type": "uint256"
        }
      ],
      "stateMutability": "view",
      "type": "function"
    },
    {
      "inputs": [],
      "name": "ETH_USD",
      "outputs": [
        {
          "internalType": "uint256",
          "name": "",
          "type": "uint256"
        }
      ],
      "stateMutability": "view",
      "type": "function"
    },
    {
      "inputs": [],
      "name": "TIMEOUT",
      "outputs": [
        {
          "internalType": "uint256",
          "name": "",
          "type": "uint256"
        }
      ],
      "stateMutability": "view",
      "type": "function"
    },
    {
      "inputs": [],
      "name": "chargeOZLfee",
      "outputs": [
        {
          "internalType": "bool",
          "name": "",
          "type": "bool"
        }
      ],
      "stateMutability": "nonpayable",
      "type": "function"
    },
    {
      "inputs": [],
      "name": "getLastRewards",
      "outputs": [
        {
          "components": [
            {
              "internalType": "uint256",
              "name": "lastBlock",
              "type": "uint256"
            },
            {
              "internalType": "uint256",
              "name": "prevTotalRewards",
              "type": "uint256"
            }
          ],
          "internalType": "struct LastRewards",
          "name": "",
          "type": "tuple"
        }
      ],
      "stateMutability": "view",
      "type": "function"
    },
    {
      "inputs": [
        {
          "internalType": "address",
          "name": "ozToken_",
          "type": "address"
        }
      ],
      "name": "getUnderlyingValue",
      "outputs": [
        {
          "internalType": "uint256",
          "name": "",
          "type": "uint256"
        }
      ],
      "stateMutability": "view",
      "type": "function"
    },
    {
      "inputs": [],
      "name": "rETH_ETH",
      "outputs": [
        {
          "internalType": "uint256",
          "name": "",
          "type": "uint256"
        }
      ],
      "stateMutability": "view",
      "type": "function"
    },
    {
      "inputs": [],
      "name": "rETH_USD",
      "outputs": [
        {
          "internalType": "uint256",
          "name": "",
          "type": "uint256"
        }
      ],
      "stateMutability": "view",
      "type": "function"
    },
    {
      "inputs": [
        {
          "internalType": "address",
          "name": "ozToken_",
          "type": "address"
        },
        {
          "internalType": "uint256",
          "name": "amount_",
          "type": "uint256"
        },
        {
          "internalType": "bool",
          "name": "addOrSub_",
          "type": "bool"
        }
      ],
      "name": "setValuePerOzToken",
      "outputs": [],
      "stateMutability": "nonpayable",
      "type": "function"
    }
  ],
  "bytecode": {
    "object": "0x608060405234801561001057600080fd5b50611b5b806100206000396000f3fe608060405234801561001057600080fd5b50600436106100935760003560e01c8063b0ff97b511610066578063b0ff97b51461011c578063c187486714610131578063d4afb73a1461013a578063f424c4ba14610142578063f56f48f21461014a57600080fd5b80632cc3eb0a146100985780636260f55b146100db5780638e9cd10c146100f157806397d2ead214610109575b600080fd5b6040805180820182526000808252602091820152815180830183526016548082526017549183019182528351908152905191810191909152015b60405180910390f35b6100e3610153565b6040519081526020016100d2565b6100f961018e565b60405190151581526020016100d2565b6100e361011736600461148a565b61039c565b61012f61012a3660046114b5565b610502565b005b6100e361038481565b6100e361056e565b6100e36105f6565b6100e361384081565b6007546000908190819061016f906001600160a01b031661062d565b91509150816101855761018061071a565b610187565b805b9250505090565b6009546040516370a0823160e01b815230600482015260009182916001600160a01b03909116906370a0823190602401602060405180830381865afa1580156101db573d6000803e3d6000fd5b505050506040513d601f19601f820116820180604052508101906101ff91906114f7565b90506000805b6001548110156102b257600180548290811061022357610223611510565b60009182526020918290200154604080516278744560e21b815290516001600160a01b03909216926301e1d114926004808401938290030181865afa158015610270573d6000803e3d6000fd5b505050506040513d601f19601f8201168201806040525081019061029491906114f7565b61029e908361153c565b9150806102aa8161154f565b915050610205565b5060165443116102dc5760405163dcfa2bfd60e01b81524360048201526024015b60405180910390fd5b6000806102e98385610738565b909250905060006102fa8383611568565b9050600081136103105760009550505050505090565b6017546000906103209083611568565b905060008113610337576000965050505050505090565b600061034383836107a6565b6040805143815260208101839052908101859052606081018490529091507fd47935b2f6fd998224fcce47e28065f692a3452b54180fd1e43ba90daf9eb1949060800160405180910390a1600197505050505050505090565b6000806001600160a01b03831630146103cd576001600160a01b038316600090815260236020526040902054610439565b6009546040516370a0823160e01b81523060048201526001600160a01b03909116906370a0823190602401602060405180830381865afa158015610415573d6000803e3d6000fd5b505050506040513d601f19601f8201168201806040525081019061043991906114f7565b905060008060090160009054906101000a90046001600160a01b03166001600160a01b031663e6aa216c6040518163ffffffff1660e01b8152600401602060405180830381865afa158015610492573d6000803e3d6000fd5b505050506040513d601f19601f820116820180604052508101906104b691906114f7565b9050670de0b6b3a76400006104c9610153565b670de0b6b3a76400006104dc858561158f565b6104e691906115bc565b6104f0919061158f565b6104fa91906115bc565b949350505050565b801561053b576001600160a01b0383166000908152602360205260408120805484929061053090849061153c565b909155506105699050565b6001600160a01b038316600090815260236020526040812080548492906105639084906115d0565b90915550505b505050565b6000806000600a0160009054906101000a90046001600160a01b03166001600160a01b031663feaf968c6040518163ffffffff1660e01b815260040160a060405180830381865afa1580156105c7573d6000803e3d6000fd5b505050506040513d601f19601f820116820180604052508101906105eb9190611602565b509195945050505050565b6000670de0b6b3a7640000610609610153565b61061161056e565b61061b919061158f565b61062591906115bc565b600218905090565b6000806000806000856001600160a01b031663feaf968c6040518163ffffffff1660e01b815260040160a060405180830381865afa158015610673573d6000803e3d6000fd5b505050506040513d601f19601f820116820180604052508101906106979190611602565b50935050925092508269ffffffffffffffffffff166000141580156106bc5750600082135b80156106c757508015155b80156106d35750428111155b80156106ea57506138406106e782426115d0565b11155b1561070c576000610700836402540be40061158f565b94509450505050915091565b506000958695509350505050565b600080610725610888565b90506000610731610979565b9392505050565b6000806000610745610153565b6107548664e8d4a5100061158f565b61076690670de0b6b3a764000061158f565b61077091906115bc565b90506000670de0b6b3a764000061078561056e565b61078f908761158f565b61079991906115bc565b9196919550909350505050565b60155460009081906107c09062ffffff1684612710610adb565b6017859055905060006107d161056e565b6107e383670de0b6b3a764000061158f565b6107ed91906115bc565b905060006107fa82610af9565b60095460155460405163a9059cbb60e01b81526001600160a01b0363010000009092048216600482015260248101849052929350169063a9059cbb906044016020604051808303816000875af1158015610858573d6000803e3d6000fd5b505050506040513d601f19601f8201168201806040525081019061087c9190611652565b50925050505b92915050565b6024805460035460048054601354604051630b4c774160e11b81526001600160a01b03948516938101939093529083169482019490945262ffffff909316604484015260009283929190911690631698ee8290606401602060405180830381865afa1580156108fb573d6000803e3d6000fd5b505050506040513d601f19601f8201168201806040525081019061091f919061166f565b9050600061092e82600a610b90565b5060035460045491925060009161095d918491670de0b6b3a7640000916001600160a01b039081169116610dd6565b905060006109708264e8d4a5100061158f565b95945050505050565b6000806040516020016109bd9060408082526003908201819052620cae8d60eb1b6060830152608060208301819052820152621d5cd960ea1b60a082015260c00190565b60408051601f19818403018152908290526109da916020016116b0565b60408051601f198184030181529190528051602090910120602554909150600090819081906001600160a01b031663a792765f85610a1a610384426115d0565b6040516001600160e01b031960e085901b16815260048101929092526024820152604401600060405180830381865afa158015610a5b573d6000803e3d6000fd5b505050506040513d6000823e601f3d908101601f19168201604052610a83919081019061174a565b925092509250821580610aa05750613840610a9e82426115d0565b115b15610abe57604051637614abcd60e11b815260040160405180910390fd5b81806020019051810190610ad291906114f7565b94505050505090565b6000826000190484118302158202610af257600080fd5b5091020490565b600080610b0a603284612710610adb565b60095460215460405163a9059cbb60e01b81526001600160a01b03918216600482015260248101849052929350169063a9059cbb906044016020604051808303816000875af1158015610b61573d6000803e3d6000fd5b505050506040513d601f19601f82011682018060405250810190610b859190611652565b5061073181846115d0565b6000808263ffffffff16600003610bce5760405162461bcd60e51b8152602060048201526002602482015261042560f41b60448201526064016102d3565b6040805160028082526060820183526000926020830190803683370190505090508381600081518110610c0357610c03611510565b602002602001019063ffffffff16908163ffffffff1681525050600081600181518110610c3257610c32611510565b602002602001019063ffffffff16908163ffffffff1681525050600080866001600160a01b031663883bdbfd846040518263ffffffff1660e01b8152600401610c7b91906117fd565b600060405180830381865afa158015610c98573d6000803e3d6000fd5b505050506040513d6000823e601f3d908101601f19168201604052610cc091908101906118df565b91509150600082600081518110610cd957610cd9611510565b602002602001015183600181518110610cf457610cf4611510565b6020026020010151610d0691906119ab565b9050600082600081518110610d1d57610d1d611510565b602002602001015183600181518110610d3857610d38611510565b6020026020010151610d4a91906119d8565b9050610d5a600389900b836119f8565b965060008260060b128015610d7e5750610d78600389900b83611a36565b60060b15155b15610d915786610d8d81611a58565b9750505b6000610daa6001600160a01b0363ffffffff8b16611a7b565b9050610dc7640100000000600160c01b03602084901b1682611aad565b96505050505050509250929050565b600080610de286610ee4565b90506001600160801b036001600160a01b03821611610e68576000610e106001600160a01b0383168061158f565b9050836001600160a01b0316856001600160a01b031610610e4857610e43600160c01b876001600160801b0316836112fc565b610e60565b610e6081876001600160801b0316600160c01b6112fc565b925050610edb565b6000610e876001600160a01b03831680680100000000000000006112fc565b9050836001600160a01b0316856001600160a01b031610610ebf57610eba600160801b876001600160801b0316836112fc565b610ed7565b610ed781876001600160801b0316600160801b6112fc565b9250505b50949350505050565b60008060008360020b12610efb578260020b610f08565b8260020b610f0890611ad3565b9050610f17620d89e719611aef565b60020b811115610f4d5760405162461bcd60e51b81526020600482015260016024820152601560fa1b60448201526064016102d3565b600081600116600003610f6457600160801b610f76565b6ffffcb933bd6fad37aa2d162d1a5940015b70ffffffffffffffffffffffffffffffffff1690506002821615610fb5576080610fb0826ffff97272373d413259a46990580e213a61158f565b901c90505b6004821615610fdf576080610fda826ffff2e50f5f656932ef12357cf3c7fdcc61158f565b901c90505b6008821615611009576080611004826fffe5caca7e10e4e61c3624eaa0941cd061158f565b901c90505b601082161561103357608061102e826fffcb9843d60f6159c9db58835c92664461158f565b901c90505b602082161561105d576080611058826fff973b41fa98c081472e6896dfb254c061158f565b901c90505b6040821615611087576080611082826fff2ea16466c96a3843ec78b326b5286161158f565b901c90505b60808216156110b15760806110ac826ffe5dee046a99a2a811c461f1969c305361158f565b901c90505b6101008216156110dc5760806110d7826ffcbe86c7900a88aedcffc83b479aa3a461158f565b901c90505b610200821615611107576080611102826ff987a7253ac413176f2b074cf7815e5461158f565b901c90505b61040082161561113257608061112d826ff3392b0822b70005940c7a398e4b70f361158f565b901c90505b61080082161561115d576080611158826fe7159475a2c29b7443b29c7fa6e889d961158f565b901c90505b611000821615611188576080611183826fd097f3bdfd2022b8845ad8f792aa582561158f565b901c90505b6120008216156111b35760806111ae826fa9f746462d870fdf8a65dc1f90e061e561158f565b901c90505b6140008216156111de5760806111d9826f70d869a156d2a1b890bb3df62baf32f761158f565b901c90505b618000821615611209576080611204826f31be135f97d08fd981231505542fcfa661158f565b901c90505b62010000821615611235576080611230826f09aa508b5b7a84e1c677de54f3e99bc961158f565b901c90505b6202000082161561126057608061125b826e5d6af8dedb81196699c329225ee60461158f565b901c90505b6204000082161561128a576080611285826d2216e584f5fa1ea926041bedfe9861158f565b901c90505b620800008216156112b25760806112ad826b048a170391f7dc42444e8fa261158f565b901c90505b60008460020b13156112cd576112ca816000196115bc565b90505b6112dc64010000000082611b11565b156112e85760016112eb565b60005b6104fa9060ff16602083901c61153c565b6000808060001985870985870292508281108382030391505080600003611335576000841161132a57600080fd5b508290049050610731565b80841161134157600080fd5b60008486880980840393811190920391905060008561135f81611ad3565b1695869004959384900493600081900304600101905061137f818461158f565b90931792600061139087600361158f565b600218905061139f818861158f565b6113aa9060026115d0565b6113b4908261158f565b90506113c0818861158f565b6113cb9060026115d0565b6113d5908261158f565b90506113e1818861158f565b6113ec9060026115d0565b6113f6908261158f565b9050611402818861158f565b61140d9060026115d0565b611417908261158f565b9050611423818861158f565b61142e9060026115d0565b611438908261158f565b9050611444818861158f565b61144f9060026115d0565b611459908261158f565b9050611465818661158f565b9998505050505050505050565b6001600160a01b038116811461148757600080fd5b50565b60006020828403121561149c57600080fd5b813561073181611472565b801515811461148757600080fd5b6000806000606084860312156114ca57600080fd5b83356114d581611472565b92506020840135915060408401356114ec816114a7565b809150509250925092565b60006020828403121561150957600080fd5b5051919050565b634e487b7160e01b600052603260045260246000fd5b634e487b7160e01b600052601160045260246000fd5b8082018082111561088257610882611526565b60006001820161156157611561611526565b5060010190565b818103600083128015838313168383128216171561158857611588611526565b5092915050565b808202811582820484141761088257610882611526565b634e487b7160e01b600052601260045260246000fd5b6000826115cb576115cb6115a6565b500490565b8181038181111561088257610882611526565b805169ffffffffffffffffffff811681146115fd57600080fd5b919050565b600080600080600060a0868803121561161a57600080fd5b611623866115e3565b9450602086015193506040860151925060608601519150611646608087016115e3565b90509295509295909350565b60006020828403121561166457600080fd5b8151610731816114a7565b60006020828403121561168157600080fd5b815161073181611472565b60005b838110156116a757818101518382015260200161168f565b50506000910152565b60408152600960408201526853706f74507269636560b81b606082015260806020820152600082518060808401526116ef8160a085016020870161168c565b601f01601f19169190910160a00192915050565b634e487b7160e01b600052604160045260246000fd5b604051601f8201601f1916810167ffffffffffffffff8111828210171561174257611742611703565b604052919050565b60008060006060848603121561175f57600080fd5b835161176a816114a7565b602085015190935067ffffffffffffffff8082111561178857600080fd5b818601915086601f83011261179c57600080fd5b8151818111156117ae576117ae611703565b6117c1601f8201601f1916602001611719565b91508082528760208285010111156117d857600080fd5b6117e981602084016020860161168c565b508093505050604084015190509250925092565b6020808252825182820181905260009190848201906040850190845b8181101561183b57835163ffffffff1683529284019291840191600101611819565b50909695505050505050565b600067ffffffffffffffff82111561186157611861611703565b5060051b60200190565b600082601f83011261187c57600080fd5b8151602061189161188c83611847565b611719565b82815260059290921b840181019181810190868411156118b057600080fd5b8286015b848110156118d45780516118c781611472565b83529183019183016118b4565b509695505050505050565b600080604083850312156118f257600080fd5b825167ffffffffffffffff8082111561190a57600080fd5b818501915085601f83011261191e57600080fd5b8151602061192e61188c83611847565b82815260059290921b8401810191818101908984111561194d57600080fd5b948201945b8386101561197b5785518060060b811461196c5760008081fd5b82529482019490820190611952565b9188015191965090935050508082111561199457600080fd5b506119a18582860161186b565b9150509250929050565b600682810b9082900b03667fffffffffffff198112667fffffffffffff8213171561088257610882611526565b6001600160a01b0382811682821603908082111561158857611588611526565b60008160060b8360060b80611a0f57611a0f6115a6565b667fffffffffffff19821460001982141615611a2d57611a2d611526565b90059392505050565b60008260060b80611a4957611a496115a6565b808360060b0791505092915050565b60008160020b627fffff198103611a7157611a71611526565b6000190192915050565b6001600160c01b03828116828216818102831692918115828504821417611aa457611aa4611526565b50505092915050565b60006001600160c01b0383811680611ac757611ac76115a6565b92169190910492915050565b6000600160ff1b8201611ae857611ae8611526565b5060000390565b60008160020b627fffff198103611b0857611b08611526565b60000392915050565b600082611b2057611b206115a6565b50069056fea2646970667358221220fd9e83164b39e8ba3e6541f528808079b9a97a9548f29c43e152dc3c97be68d364736f6c63430008150033",
    "linkReferences": {}
  },
  "methodIdentifiers": {
    "DISPUTE_BUFFER()": "c1874867",
    "ETH_USD()": "6260f55b",
    "TIMEOUT()": "f56f48f2",
    "chargeOZLfee()": "8e9cd10c",
    "getLastRewards()": "2cc3eb0a",
    "getUnderlyingValue(address)": "97d2ead2",
    "rETH_ETH()": "d4afb73a",
    "rETH_USD()": "f424c4ba",
    "setValuePerOzToken(address,uint256,bool)": "b0ff97b5"
  },
  "id": 17
}