{
  "abi": [
    {
      "inputs": [],
      "name": "ETH_USD",
      "outputs": [
        {
          "internalType": "uint256",
          "name": "",
          "type": "uint256"
        }
      ],
      "stateMutability": "view",
      "type": "function"
    },
    {
      "inputs": [
        {
          "internalType": "uint256",
          "name": "subTotal_",
          "type": "uint256"
        }
      ],
      "name": "applyFee",
      "outputs": [
        {
          "internalType": "uint256",
          "name": "",
          "type": "uint256"
        }
      ],
      "stateMutability": "pure",
      "type": "function"
    },
    {
      "inputs": [],
      "name": "getUnderlyingValue",
      "outputs": [
        {
          "internalType": "uint256",
          "name": "",
          "type": "uint256"
        }
      ],
      "stateMutability": "view",
      "type": "function"
    },
    {
      "inputs": [],
      "name": "rETH_ETH",
      "outputs": [
        {
          "internalType": "uint256",
          "name": "",
          "type": "uint256"
        }
      ],
      "stateMutability": "view",
      "type": "function"
    },
    {
      "inputs": [],
      "name": "rETH_USD",
      "outputs": [
        {
          "internalType": "uint256",
          "name": "",
          "type": "uint256"
        }
      ],
      "stateMutability": "view",
      "type": "function"
    }
  ],
  "bytecode": {
    "object": "0x608060405234801561001057600080fd5b506105ab806100206000396000f3fe608060405234801561001057600080fd5b50600436106100575760003560e01c806345089e291461005c5780636260f55b14610076578063781b7e081461007e578063d4afb73a14610091578063f424c4ba14610099575b600080fd5b6100646100a1565b60405190815260200160405180910390f35b61006461021a565b61006461008c366004610417565b6102b4565b6100646102d0565b610064610358565b600a546040516370a0823160e01b815230600482015260009182916001600160a01b03909116906370a0823190602401602060405180830381865afa1580156100ee573d6000803e3d6000fd5b505050506040513d601f19601f820116820180604052508101906101129190610430565b9050600080600a0160009054906101000a90046001600160a01b03166001600160a01b031663e6aa216c6040518163ffffffff1660e01b8152600401602060405180830381865afa15801561016b573d6000803e3d6000fd5b505050506040513d601f19601f8201168201806040525081019061018f9190610430565b90506000670de0b6b3a76400006101a461021a565b670de0b6b3a76400006101b7868661045f565b6101c1919061047c565b6101cb919061045f565b6101d5919061047c565b90506102136040518060400160405280601281526020017103a37ba30b61030b33a32b9103332b2b99d160751b81525061020e836102b4565b61038f565b9392505050565b600080600060070160009054906101000a90046001600160a01b03166001600160a01b031663feaf968c6040518163ffffffff1660e01b815260040160a060405180830381865afa158015610273573d6000803e3d6000fd5b505050506040513d601f19601f8201168201806040525081019061029791906104bd565b505050915050806402540be4006102ae919061045f565b91505090565b60006105dc6102c681846127106103d8565b610213908461050d565b6000806000600b0160009054906101000a90046001600160a01b03166001600160a01b031663feaf968c6040518163ffffffff1660e01b815260040160a060405180830381865afa158015610329573d6000803e3d6000fd5b505050506040513d601f19601f8201168201806040525081019061034d91906104bd565b509195945050505050565b6000670de0b6b3a764000061036b61021a565b6103736102d0565b61037d919061045f565b610387919061047c565b600218905090565b6103d482826040516024016103a5929190610520565b60408051601f198184030181529190526020810180516001600160e01b03166309710a9d60e41b1790526103f6565b5050565b60008260001904841183021582026103ef57600080fd5b5091020490565b80516a636f6e736f6c652e6c6f67602083016000808483855afa5050505050565b60006020828403121561042957600080fd5b5035919050565b60006020828403121561044257600080fd5b5051919050565b634e487b7160e01b600052601160045260246000fd5b808202811582820484141761047657610476610449565b92915050565b60008261049957634e487b7160e01b600052601260045260246000fd5b500490565b805169ffffffffffffffffffff811681146104b857600080fd5b919050565b600080600080600060a086880312156104d557600080fd5b6104de8661049e565b94506020860151935060408601519250606086015191506105016080870161049e565b90509295509295909350565b8181038181111561047657610476610449565b604081526000835180604084015260005b8181101561054e5760208187018101516060868401015201610531565b506000606082850101526060601f19601f830116840101915050826020830152939250505056fea264697066735822122065826332400349f364f9a01d97012e28dd97173e5726437e7881f4e27f2a115f64736f6c63430008150033",
    "linkReferences": {}
  },
  "methodIdentifiers": {
    "ETH_USD()": "6260f55b",
    "applyFee(uint256)": "781b7e08",
    "getUnderlyingValue()": "45089e29",
    "rETH_ETH()": "d4afb73a",
    "rETH_USD()": "f424c4ba"
  },
  "id": 12
}