{
  "abi": [
    {
      "inputs": [
        {
          "internalType": "uint256",
          "name": "blockNumber",
          "type": "uint256"
        }
      ],
      "name": "OZError14",
      "type": "error"
    },
    {
      "anonymous": false,
      "inputs": [
        {
          "indexed": false,
          "internalType": "uint256",
          "name": "blockNumber",
          "type": "uint256"
        },
        {
          "indexed": false,
          "internalType": "uint256",
          "name": "ozelFeesInRETH",
          "type": "uint256"
        },
        {
          "indexed": false,
          "internalType": "int256",
          "name": "totalRewards",
          "type": "int256"
        },
        {
          "indexed": false,
          "internalType": "int256",
          "name": "currentRewards",
          "type": "int256"
        }
      ],
      "name": "OzRewards",
      "type": "event"
    },
    {
      "inputs": [],
      "name": "ETH_USD",
      "outputs": [
        {
          "internalType": "uint256",
          "name": "price",
          "type": "uint256"
        }
      ],
      "stateMutability": "view",
      "type": "function"
    },
    {
      "inputs": [],
      "name": "chargeOZLfee",
      "outputs": [
        {
          "internalType": "bool",
          "name": "",
          "type": "bool"
        }
      ],
      "stateMutability": "nonpayable",
      "type": "function"
    },
    {
      "inputs": [],
      "name": "getLastRewards",
      "outputs": [
        {
          "components": [
            {
              "internalType": "uint256",
              "name": "lastBlock",
              "type": "uint256"
            },
            {
              "internalType": "uint256",
              "name": "prevTotalRewards",
              "type": "uint256"
            }
          ],
          "internalType": "struct LastRewards",
          "name": "",
          "type": "tuple"
        }
      ],
      "stateMutability": "view",
      "type": "function"
    },
    {
      "inputs": [
        {
          "internalType": "address",
          "name": "ozToken_",
          "type": "address"
        }
      ],
      "name": "getUnderlyingValue",
      "outputs": [
        {
          "internalType": "uint256",
          "name": "",
          "type": "uint256"
        }
      ],
      "stateMutability": "view",
      "type": "function"
    },
    {
      "inputs": [],
      "name": "rETH_ETH",
      "outputs": [
        {
          "internalType": "uint256",
          "name": "",
          "type": "uint256"
        }
      ],
      "stateMutability": "view",
      "type": "function"
    },
    {
      "inputs": [],
      "name": "rETH_USD",
      "outputs": [
        {
          "internalType": "uint256",
          "name": "",
          "type": "uint256"
        }
      ],
      "stateMutability": "view",
      "type": "function"
    },
    {
      "inputs": [
        {
          "internalType": "address",
          "name": "ozToken_",
          "type": "address"
        },
        {
          "internalType": "uint256",
          "name": "amount_",
          "type": "uint256"
        },
        {
          "internalType": "bool",
          "name": "addOrSub_",
          "type": "bool"
        }
      ],
      "name": "setValuePerOzToken",
      "outputs": [],
      "stateMutability": "nonpayable",
      "type": "function"
    }
  ],
  "bytecode": {
    "object": "0x608060405234801561001057600080fd5b50611a10806100206000396000f3fe608060405234801561001057600080fd5b506004361061007d5760003560e01c806397d2ead21161005b57806397d2ead2146100f3578063b0ff97b514610106578063d4afb73a1461011b578063f424c4ba1461012357600080fd5b80632cc3eb0a146100825780636260f55b146100c55780638e9cd10c146100db575b600080fd5b6040805180820182526000808252602091820152815180830183526016548082526017549183019182528351908152905191810191909152015b60405180910390f35b6100cd61012b565b6040519081526020016100bc565b6100e3610210565b60405190151581526020016100bc565b6100cd6101013660046113ee565b61041e565b610119610114366004611419565b610584565b005b6100cd6105f0565b6100cd610678565b600754600090819081908190819061014b906001600160a01b03166106af565b93509350935093508315801561016c575069ffffffffffffffffffff831615155b80156101785750600082135b801561018357508015155b801561018f5750428111155b156101aa576101a3826402540be400611471565b94506101e0565b6101d56040518060400160405280600a8152602001691cda1bdd5b19081b9bdd60b21b81525061074a565b6101dd610790565b94505b610209604051806040016040528060078152602001660383934b1b29d160cd1b81525086610881565b5050505090565b6009546040516370a0823160e01b815230600482015260009182916001600160a01b03909116906370a0823190602401602060405180830381865afa15801561025d573d6000803e3d6000fd5b505050506040513d601f19601f820116820180604052508101906102819190611488565b90506000805b6001548110156103345760018054829081106102a5576102a56114a1565b60009182526020918290200154604080516278744560e21b815290516001600160a01b03909216926301e1d114926004808401938290030181865afa1580156102f2573d6000803e3d6000fd5b505050506040513d601f19601f820116820180604052508101906103169190611488565b61032090836114b7565b91508061032c816114ca565b915050610287565b50601654431161035e5760405163dcfa2bfd60e01b81524360048201526024015b60405180910390fd5b60008061036b83856108ca565b9092509050600061037c83836114e3565b9050600081136103925760009550505050505090565b6017546000906103a290836114e3565b9050600081136103b9576000965050505050505090565b60006103c58383610938565b6040805143815260208101839052908101859052606081018490529091507fd47935b2f6fd998224fcce47e28065f692a3452b54180fd1e43ba90daf9eb1949060800160405180910390a1600197505050505050505090565b6000806001600160a01b038316301461044f576001600160a01b0383166000908152602360205260409020546104bb565b6009546040516370a0823160e01b81523060048201526001600160a01b03909116906370a0823190602401602060405180830381865afa158015610497573d6000803e3d6000fd5b505050506040513d601f19601f820116820180604052508101906104bb9190611488565b905060008060090160009054906101000a90046001600160a01b03166001600160a01b031663e6aa216c6040518163ffffffff1660e01b8152600401602060405180830381865afa158015610514573d6000803e3d6000fd5b505050506040513d601f19601f820116820180604052508101906105389190611488565b9050670de0b6b3a764000061054b61012b565b670de0b6b3a764000061055e8585611471565b6105689190611520565b6105729190611471565b61057c9190611520565b949350505050565b80156105bd576001600160a01b038316600090815260236020526040812080548492906105b29084906114b7565b909155506105eb9050565b6001600160a01b038316600090815260236020526040812080548492906105e5908490611534565b90915550505b505050565b6000806000600a0160009054906101000a90046001600160a01b03166001600160a01b031663feaf968c6040518163ffffffff1660e01b815260040160a060405180830381865afa158015610649573d6000803e3d6000fd5b505050506040513d601f19601f8201168201806040525081019061066d9190611566565b509195945050505050565b6000670de0b6b3a764000061068b61012b565b6106936105f0565b61069d9190611471565b6106a79190611520565b600218905090565b60008060008060008060008060070160009054906101000a90046001600160a01b03166001600160a01b031663feaf968c6040518163ffffffff1660e01b815260040160a060405180830381865afa15801561070f573d6000803e3d6000fd5b505050506040513d601f19601f820116820180604052508101906107339190611566565b5060019c939b509199509097509095505050505050565b61078d8160405160240161075e91906115fc565b60408051601f198184030181529190526020810180516001600160e01b031663104c13eb60e21b179052610a1a565b50565b6024805460035460048054601354604051630b4c774160e11b81526001600160a01b03948516938101939093529083169482019490945262ffffff909316604484015260009283929190911690631698ee8290606401602060405180830381865afa158015610803573d6000803e3d6000fd5b505050506040513d601f19601f82011682018060405250810190610827919061160f565b9050600061083682600a610a3b565b50600354600454919250600091610865918491670de0b6b3a7640000916001600160a01b039081169116610c81565b905060006108788264e8d4a51000611471565b95945050505050565b6108c6828260405160240161089792919061162c565b60408051601f198184030181529190526020810180516001600160e01b03166309710a9d60e41b179052610a1a565b5050565b60008060006108d761012b565b6108e68664e8d4a51000611471565b6108f890670de0b6b3a7640000611471565b6109029190611520565b90506000670de0b6b3a76400006109176105f0565b6109219087611471565b61092b9190611520565b9196919550909350505050565b60155460009081906109529062ffffff1684612710610d8f565b6017859055905060006109636105f0565b61097583670de0b6b3a7640000611471565b61097f9190611520565b9050600061098c82610dad565b60095460155460405163a9059cbb60e01b81526001600160a01b0363010000009092048216600482015260248101849052929350169063a9059cbb906044016020604051808303816000875af11580156109ea573d6000803e3d6000fd5b505050506040513d601f19601f82011682018060405250810190610a0e919061164e565b50925050505b92915050565b80516a636f6e736f6c652e6c6f67602083016000808483855afa5050505050565b6000808263ffffffff16600003610a795760405162461bcd60e51b8152602060048201526002602482015261042560f41b6044820152606401610355565b6040805160028082526060820183526000926020830190803683370190505090508381600081518110610aae57610aae6114a1565b602002602001019063ffffffff16908163ffffffff1681525050600081600181518110610add57610add6114a1565b602002602001019063ffffffff16908163ffffffff1681525050600080866001600160a01b031663883bdbfd846040518263ffffffff1660e01b8152600401610b269190611681565b600060405180830381865afa158015610b43573d6000803e3d6000fd5b505050506040513d6000823e601f3d908101601f19168201604052610b6b9190810190611794565b91509150600082600081518110610b8457610b846114a1565b602002602001015183600181518110610b9f57610b9f6114a1565b6020026020010151610bb19190611860565b9050600082600081518110610bc857610bc86114a1565b602002602001015183600181518110610be357610be36114a1565b6020026020010151610bf5919061188d565b9050610c05600389900b836118ad565b965060008260060b128015610c295750610c23600389900b836118eb565b60060b15155b15610c3c5786610c388161190d565b9750505b6000610c556001600160a01b0363ffffffff8b16611930565b9050610c72640100000000600160c01b03602084901b1682611962565b96505050505050509250929050565b600080610c8d86610e4b565b90506001600160801b036001600160a01b03821611610d13576000610cbb6001600160a01b03831680611471565b9050836001600160a01b0316856001600160a01b031610610cf357610cee600160c01b876001600160801b031683611263565b610d0b565b610d0b81876001600160801b0316600160c01b611263565b925050610d86565b6000610d326001600160a01b0383168068010000000000000000611263565b9050836001600160a01b0316856001600160a01b031610610d6a57610d65600160801b876001600160801b031683611263565b610d82565b610d8281876001600160801b0316600160801b611263565b9250505b50949350505050565b6000826000190484118302158202610da657600080fd5b5091020490565b600080610dbe603284612710610d8f565b60095460215460405163a9059cbb60e01b81526001600160a01b03918216600482015260248101849052929350169063a9059cbb906044016020604051808303816000875af1158015610e15573d6000803e3d6000fd5b505050506040513d601f19601f82011682018060405250810190610e39919061164e565b50610e448184611534565b9392505050565b60008060008360020b12610e62578260020b610e6f565b8260020b610e6f90611988565b9050610e7e620d89e7196119a4565b60020b811115610eb45760405162461bcd60e51b81526020600482015260016024820152601560fa1b6044820152606401610355565b600081600116600003610ecb57600160801b610edd565b6ffffcb933bd6fad37aa2d162d1a5940015b70ffffffffffffffffffffffffffffffffff1690506002821615610f1c576080610f17826ffff97272373d413259a46990580e213a611471565b901c90505b6004821615610f46576080610f41826ffff2e50f5f656932ef12357cf3c7fdcc611471565b901c90505b6008821615610f70576080610f6b826fffe5caca7e10e4e61c3624eaa0941cd0611471565b901c90505b6010821615610f9a576080610f95826fffcb9843d60f6159c9db58835c926644611471565b901c90505b6020821615610fc4576080610fbf826fff973b41fa98c081472e6896dfb254c0611471565b901c90505b6040821615610fee576080610fe9826fff2ea16466c96a3843ec78b326b52861611471565b901c90505b6080821615611018576080611013826ffe5dee046a99a2a811c461f1969c3053611471565b901c90505b61010082161561104357608061103e826ffcbe86c7900a88aedcffc83b479aa3a4611471565b901c90505b61020082161561106e576080611069826ff987a7253ac413176f2b074cf7815e54611471565b901c90505b610400821615611099576080611094826ff3392b0822b70005940c7a398e4b70f3611471565b901c90505b6108008216156110c45760806110bf826fe7159475a2c29b7443b29c7fa6e889d9611471565b901c90505b6110008216156110ef5760806110ea826fd097f3bdfd2022b8845ad8f792aa5825611471565b901c90505b61200082161561111a576080611115826fa9f746462d870fdf8a65dc1f90e061e5611471565b901c90505b614000821615611145576080611140826f70d869a156d2a1b890bb3df62baf32f7611471565b901c90505b61800082161561117057608061116b826f31be135f97d08fd981231505542fcfa6611471565b901c90505b6201000082161561119c576080611197826f09aa508b5b7a84e1c677de54f3e99bc9611471565b901c90505b620200008216156111c75760806111c2826e5d6af8dedb81196699c329225ee604611471565b901c90505b620400008216156111f15760806111ec826d2216e584f5fa1ea926041bedfe98611471565b901c90505b62080000821615611219576080611214826b048a170391f7dc42444e8fa2611471565b901c90505b60008460020b13156112345761123181600019611520565b90505b611243640100000000826119c6565b1561124f576001611252565b60005b61057c9060ff16602083901c6114b7565b600080806000198587098587029250828110838203039150508060000361129c576000841161129157600080fd5b508290049050610e44565b8084116112a857600080fd5b6000848688098084039381119092039190506000856112c681611988565b169586900495938490049360008190030460010190506112e68184611471565b9093179260006112f7876003611471565b60021890506113068188611471565b611311906002611534565b61131b9082611471565b90506113278188611471565b611332906002611534565b61133c9082611471565b90506113488188611471565b611353906002611534565b61135d9082611471565b90506113698188611471565b611374906002611534565b61137e9082611471565b905061138a8188611471565b611395906002611534565b61139f9082611471565b90506113ab8188611471565b6113b6906002611534565b6113c09082611471565b90506113cc8186611471565b9998505050505050505050565b6001600160a01b038116811461078d57600080fd5b60006020828403121561140057600080fd5b8135610e44816113d9565b801515811461078d57600080fd5b60008060006060848603121561142e57600080fd5b8335611439816113d9565b92506020840135915060408401356114508161140b565b809150509250925092565b634e487b7160e01b600052601160045260246000fd5b8082028115828204841417610a1457610a1461145b565b60006020828403121561149a57600080fd5b5051919050565b634e487b7160e01b600052603260045260246000fd5b80820180821115610a1457610a1461145b565b6000600182016114dc576114dc61145b565b5060010190565b81810360008312801583831316838312821617156115035761150361145b565b5092915050565b634e487b7160e01b600052601260045260246000fd5b60008261152f5761152f61150a565b500490565b81810381811115610a1457610a1461145b565b805169ffffffffffffffffffff8116811461156157600080fd5b919050565b600080600080600060a0868803121561157e57600080fd5b61158786611547565b94506020860151935060408601519250606086015191506115aa60808701611547565b90509295509295909350565b6000815180845260005b818110156115dc576020818501810151868301820152016115c0565b506000602082860101526020601f19601f83011685010191505092915050565b602081526000610e4460208301846115b6565b60006020828403121561162157600080fd5b8151610e44816113d9565b60408152600061163f60408301856115b6565b90508260208301529392505050565b60006020828403121561166057600080fd5b8151610e448161140b565b634e487b7160e01b600052604160045260246000fd5b6020808252825182820181905260009190848201906040850190845b818110156116bf57835163ffffffff168352928401929184019160010161169d565b50909695505050505050565b604051601f8201601f1916810167ffffffffffffffff811182821017156116f4576116f461166b565b604052919050565b600067ffffffffffffffff8211156117165761171661166b565b5060051b60200190565b600082601f83011261173157600080fd5b81516020611746611741836116fc565b6116cb565b82815260059290921b8401810191818101908684111561176557600080fd5b8286015b8481101561178957805161177c816113d9565b8352918301918301611769565b509695505050505050565b600080604083850312156117a757600080fd5b825167ffffffffffffffff808211156117bf57600080fd5b818501915085601f8301126117d357600080fd5b815160206117e3611741836116fc565b82815260059290921b8401810191818101908984111561180257600080fd5b948201945b838610156118305785518060060b81146118215760008081fd5b82529482019490820190611807565b9188015191965090935050508082111561184957600080fd5b5061185685828601611720565b9150509250929050565b600682810b9082900b03667fffffffffffff198112667fffffffffffff82131715610a1457610a1461145b565b6001600160a01b038281168282160390808211156115035761150361145b565b60008160060b8360060b806118c4576118c461150a565b667fffffffffffff198214600019821416156118e2576118e261145b565b90059392505050565b60008260060b806118fe576118fe61150a565b808360060b0791505092915050565b60008160020b627fffff1981036119265761192661145b565b6000190192915050565b6001600160c01b038281168282168181028316929181158285048214176119595761195961145b565b50505092915050565b60006001600160c01b038381168061197c5761197c61150a565b92169190910492915050565b6000600160ff1b820161199d5761199d61145b565b5060000390565b60008160020b627fffff1981036119bd576119bd61145b565b60000392915050565b6000826119d5576119d561150a565b50069056fea264697066735822122058193302749aeb314de1768a1745db2e5cc8486eef55589153b072e5b0fb354364736f6c63430008150033",
    "linkReferences": {}
  },
  "methodIdentifiers": {
    "ETH_USD()": "6260f55b",
    "chargeOZLfee()": "8e9cd10c",
    "getLastRewards()": "2cc3eb0a",
    "getUnderlyingValue(address)": "97d2ead2",
    "rETH_ETH()": "d4afb73a",
    "rETH_USD()": "f424c4ba",
    "setValuePerOzToken(address,uint256,bool)": "b0ff97b5"
  },
  "id": 17
}