{
  "abi": [
    {
      "inputs": [
        {
          "internalType": "uint256",
          "name": "blockNumber",
          "type": "uint256"
        }
      ],
      "name": "OZError14",
      "type": "error"
    },
    {
      "anonymous": false,
      "inputs": [
        {
          "indexed": false,
          "internalType": "uint256",
          "name": "blockNumber",
          "type": "uint256"
        },
        {
          "indexed": false,
          "internalType": "uint256",
          "name": "ozelFeesInRETH",
          "type": "uint256"
        },
        {
          "indexed": false,
          "internalType": "int256",
          "name": "totalRewards",
          "type": "int256"
        },
        {
          "indexed": false,
          "internalType": "int256",
          "name": "currentRewards",
          "type": "int256"
        }
      ],
      "name": "OzRewards",
      "type": "event"
    },
    {
      "inputs": [],
      "name": "ETH_USD",
      "outputs": [
        {
          "internalType": "uint256",
          "name": "",
          "type": "uint256"
        }
      ],
      "stateMutability": "view",
      "type": "function"
    },
    {
      "inputs": [],
      "name": "TIMEOUT",
      "outputs": [
        {
          "internalType": "uint256",
          "name": "",
          "type": "uint256"
        }
      ],
      "stateMutability": "view",
      "type": "function"
    },
    {
      "inputs": [],
      "name": "chargeOZLfee",
      "outputs": [
        {
          "internalType": "bool",
          "name": "",
          "type": "bool"
        }
      ],
      "stateMutability": "nonpayable",
      "type": "function"
    },
    {
      "inputs": [],
      "name": "getLastRewards",
      "outputs": [
        {
          "components": [
            {
              "internalType": "uint256",
              "name": "lastBlock",
              "type": "uint256"
            },
            {
              "internalType": "uint256",
              "name": "prevTotalRewards",
              "type": "uint256"
            }
          ],
          "internalType": "struct LastRewards",
          "name": "",
          "type": "tuple"
        }
      ],
      "stateMutability": "view",
      "type": "function"
    },
    {
      "inputs": [
        {
          "internalType": "address",
          "name": "ozToken_",
          "type": "address"
        }
      ],
      "name": "getUnderlyingValue",
      "outputs": [
        {
          "internalType": "uint256",
          "name": "",
          "type": "uint256"
        }
      ],
      "stateMutability": "view",
      "type": "function"
    },
    {
      "inputs": [],
      "name": "rETH_ETH",
      "outputs": [
        {
          "internalType": "uint256",
          "name": "",
          "type": "uint256"
        }
      ],
      "stateMutability": "view",
      "type": "function"
    },
    {
      "inputs": [],
      "name": "rETH_USD",
      "outputs": [
        {
          "internalType": "uint256",
          "name": "",
          "type": "uint256"
        }
      ],
      "stateMutability": "view",
      "type": "function"
    },
    {
      "inputs": [
        {
          "internalType": "address",
          "name": "ozToken_",
          "type": "address"
        },
        {
          "internalType": "uint256",
          "name": "amount_",
          "type": "uint256"
        },
        {
          "internalType": "bool",
          "name": "addOrSub_",
          "type": "bool"
        }
      ],
      "name": "setValuePerOzToken",
      "outputs": [],
      "stateMutability": "nonpayable",
      "type": "function"
    }
  ],
  "bytecode": {
    "object": "0x608060405234801561001057600080fd5b506118a4806100206000396000f3fe608060405234801561001057600080fd5b50600436106100885760003560e01c8063b0ff97b51161005b578063b0ff97b514610111578063d4afb73a14610126578063f424c4ba1461012e578063f56f48f21461013657600080fd5b80632cc3eb0a1461008d5780636260f55b146100d05780638e9cd10c146100e657806397d2ead2146100fe575b600080fd5b6040805180820182526000808252602091820152815180830183526016548082526017549183019182528351908152905191810191909152015b60405180910390f35b6100d861013f565b6040519081526020016100c7565b6100ee61017a565b60405190151581526020016100c7565b6100d861010c3660046112fd565b610388565b61012461011f366004611328565b6104ee565b005b6100d861055a565b6100d86105e2565b6100d861384081565b6007546000908190819061015b906001600160a01b0316610619565b91509150816101715761016c610706565b610173565b805b9250505090565b6009546040516370a0823160e01b815230600482015260009182916001600160a01b03909116906370a0823190602401602060405180830381865afa1580156101c7573d6000803e3d6000fd5b505050506040513d601f19601f820116820180604052508101906101eb919061136a565b90506000805b60015481101561029e57600180548290811061020f5761020f611383565b60009182526020918290200154604080516278744560e21b815290516001600160a01b03909216926301e1d114926004808401938290030181865afa15801561025c573d6000803e3d6000fd5b505050506040513d601f19601f82011682018060405250810190610280919061136a565b61028a90836113af565b915080610296816113c2565b9150506101f1565b5060165443116102c85760405163dcfa2bfd60e01b81524360048201526024015b60405180910390fd5b6000806102d583856107f7565b909250905060006102e683836113db565b9050600081136102fc5760009550505050505090565b60175460009061030c90836113db565b905060008113610323576000965050505050505090565b600061032f8383610865565b6040805143815260208101839052908101859052606081018490529091507fd47935b2f6fd998224fcce47e28065f692a3452b54180fd1e43ba90daf9eb1949060800160405180910390a1600197505050505050505090565b6000806001600160a01b03831630146103b9576001600160a01b038316600090815260236020526040902054610425565b6009546040516370a0823160e01b81523060048201526001600160a01b03909116906370a0823190602401602060405180830381865afa158015610401573d6000803e3d6000fd5b505050506040513d601f19601f82011682018060405250810190610425919061136a565b905060008060090160009054906101000a90046001600160a01b03166001600160a01b031663e6aa216c6040518163ffffffff1660e01b8152600401602060405180830381865afa15801561047e573d6000803e3d6000fd5b505050506040513d601f19601f820116820180604052508101906104a2919061136a565b9050670de0b6b3a76400006104b561013f565b670de0b6b3a76400006104c88585611402565b6104d2919061142f565b6104dc9190611402565b6104e6919061142f565b949350505050565b8015610527576001600160a01b0383166000908152602360205260408120805484929061051c9084906113af565b909155506105559050565b6001600160a01b0383166000908152602360205260408120805484929061054f908490611443565b90915550505b505050565b6000806000600a0160009054906101000a90046001600160a01b03166001600160a01b031663feaf968c6040518163ffffffff1660e01b815260040160a060405180830381865afa1580156105b3573d6000803e3d6000fd5b505050506040513d601f19601f820116820180604052508101906105d79190611475565b509195945050505050565b6000670de0b6b3a76400006105f561013f565b6105fd61055a565b6106079190611402565b610611919061142f565b600218905090565b6000806000806000856001600160a01b031663feaf968c6040518163ffffffff1660e01b815260040160a060405180830381865afa15801561065f573d6000803e3d6000fd5b505050506040513d601f19601f820116820180604052508101906106839190611475565b50935050925092508269ffffffffffffffffffff166000141580156106a85750600082135b80156106b357508015155b80156106bf5750428111155b80156106d657506138406106d38242611443565b11155b156106f85760016106ec836402540be400611402565b94509450505050915091565b506000958695509350505050565b6024805460035460048054601354604051630b4c774160e11b81526001600160a01b03948516938101939093529083169482019490945262ffffff909316604484015260009283929190911690631698ee8290606401602060405180830381865afa158015610779573d6000803e3d6000fd5b505050506040513d601f19601f8201168201806040525081019061079d91906114c5565b905060006107ac82600a610947565b506003546004549192506000916107db918491670de0b6b3a7640000916001600160a01b039081169116610b8d565b905060006107ee8264e8d4a51000611402565b95945050505050565b600080600061080461013f565b6108138664e8d4a51000611402565b61082590670de0b6b3a7640000611402565b61082f919061142f565b90506000670de0b6b3a764000061084461055a565b61084e9087611402565b610858919061142f565b9196919550909350505050565b601554600090819061087f9062ffffff1684612710610c9b565b60178590559050600061089061055a565b6108a283670de0b6b3a7640000611402565b6108ac919061142f565b905060006108b982610cb9565b60095460155460405163a9059cbb60e01b81526001600160a01b0363010000009092048216600482015260248101849052929350169063a9059cbb906044016020604051808303816000875af1158015610917573d6000803e3d6000fd5b505050506040513d601f19601f8201168201806040525081019061093b91906114e2565b50925050505b92915050565b6000808263ffffffff166000036109855760405162461bcd60e51b8152602060048201526002602482015261042560f41b60448201526064016102bf565b60408051600280825260608201835260009260208301908036833701905050905083816000815181106109ba576109ba611383565b602002602001019063ffffffff16908163ffffffff16815250506000816001815181106109e9576109e9611383565b602002602001019063ffffffff16908163ffffffff1681525050600080866001600160a01b031663883bdbfd846040518263ffffffff1660e01b8152600401610a329190611515565b600060405180830381865afa158015610a4f573d6000803e3d6000fd5b505050506040513d6000823e601f3d908101601f19168201604052610a779190810190611628565b91509150600082600081518110610a9057610a90611383565b602002602001015183600181518110610aab57610aab611383565b6020026020010151610abd91906116f4565b9050600082600081518110610ad457610ad4611383565b602002602001015183600181518110610aef57610aef611383565b6020026020010151610b019190611721565b9050610b11600389900b83611741565b965060008260060b128015610b355750610b2f600389900b8361177f565b60060b15155b15610b485786610b44816117a1565b9750505b6000610b616001600160a01b0363ffffffff8b166117c4565b9050610b7e640100000000600160c01b03602084901b16826117f6565b96505050505050509250929050565b600080610b9986610d57565b90506001600160801b036001600160a01b03821611610c1f576000610bc76001600160a01b03831680611402565b9050836001600160a01b0316856001600160a01b031610610bff57610bfa600160c01b876001600160801b03168361116f565b610c17565b610c1781876001600160801b0316600160c01b61116f565b925050610c92565b6000610c3e6001600160a01b038316806801000000000000000061116f565b9050836001600160a01b0316856001600160a01b031610610c7657610c71600160801b876001600160801b03168361116f565b610c8e565b610c8e81876001600160801b0316600160801b61116f565b9250505b50949350505050565b6000826000190484118302158202610cb257600080fd5b5091020490565b600080610cca603284612710610c9b565b60095460215460405163a9059cbb60e01b81526001600160a01b03918216600482015260248101849052929350169063a9059cbb906044016020604051808303816000875af1158015610d21573d6000803e3d6000fd5b505050506040513d601f19601f82011682018060405250810190610d4591906114e2565b50610d508184611443565b9392505050565b60008060008360020b12610d6e578260020b610d7b565b8260020b610d7b9061181c565b9050610d8a620d89e719611838565b60020b811115610dc05760405162461bcd60e51b81526020600482015260016024820152601560fa1b60448201526064016102bf565b600081600116600003610dd757600160801b610de9565b6ffffcb933bd6fad37aa2d162d1a5940015b70ffffffffffffffffffffffffffffffffff1690506002821615610e28576080610e23826ffff97272373d413259a46990580e213a611402565b901c90505b6004821615610e52576080610e4d826ffff2e50f5f656932ef12357cf3c7fdcc611402565b901c90505b6008821615610e7c576080610e77826fffe5caca7e10e4e61c3624eaa0941cd0611402565b901c90505b6010821615610ea6576080610ea1826fffcb9843d60f6159c9db58835c926644611402565b901c90505b6020821615610ed0576080610ecb826fff973b41fa98c081472e6896dfb254c0611402565b901c90505b6040821615610efa576080610ef5826fff2ea16466c96a3843ec78b326b52861611402565b901c90505b6080821615610f24576080610f1f826ffe5dee046a99a2a811c461f1969c3053611402565b901c90505b610100821615610f4f576080610f4a826ffcbe86c7900a88aedcffc83b479aa3a4611402565b901c90505b610200821615610f7a576080610f75826ff987a7253ac413176f2b074cf7815e54611402565b901c90505b610400821615610fa5576080610fa0826ff3392b0822b70005940c7a398e4b70f3611402565b901c90505b610800821615610fd0576080610fcb826fe7159475a2c29b7443b29c7fa6e889d9611402565b901c90505b611000821615610ffb576080610ff6826fd097f3bdfd2022b8845ad8f792aa5825611402565b901c90505b612000821615611026576080611021826fa9f746462d870fdf8a65dc1f90e061e5611402565b901c90505b61400082161561105157608061104c826f70d869a156d2a1b890bb3df62baf32f7611402565b901c90505b61800082161561107c576080611077826f31be135f97d08fd981231505542fcfa6611402565b901c90505b620100008216156110a85760806110a3826f09aa508b5b7a84e1c677de54f3e99bc9611402565b901c90505b620200008216156110d35760806110ce826e5d6af8dedb81196699c329225ee604611402565b901c90505b620400008216156110fd5760806110f8826d2216e584f5fa1ea926041bedfe98611402565b901c90505b62080000821615611125576080611120826b048a170391f7dc42444e8fa2611402565b901c90505b60008460020b13156111405761113d8160001961142f565b90505b61114f6401000000008261185a565b1561115b57600161115e565b60005b6104e69060ff16602083901c6113af565b60008080600019858709858702925082811083820303915050806000036111a8576000841161119d57600080fd5b508290049050610d50565b8084116111b457600080fd5b6000848688098084039381119092039190506000856111d28161181c565b169586900495938490049360008190030460010190506111f28184611402565b909317926000611203876003611402565b60021890506112128188611402565b61121d906002611443565b6112279082611402565b90506112338188611402565b61123e906002611443565b6112489082611402565b90506112548188611402565b61125f906002611443565b6112699082611402565b90506112758188611402565b611280906002611443565b61128a9082611402565b90506112968188611402565b6112a1906002611443565b6112ab9082611402565b90506112b78188611402565b6112c2906002611443565b6112cc9082611402565b90506112d88186611402565b9998505050505050505050565b6001600160a01b03811681146112fa57600080fd5b50565b60006020828403121561130f57600080fd5b8135610d50816112e5565b80151581146112fa57600080fd5b60008060006060848603121561133d57600080fd5b8335611348816112e5565b925060208401359150604084013561135f8161131a565b809150509250925092565b60006020828403121561137c57600080fd5b5051919050565b634e487b7160e01b600052603260045260246000fd5b634e487b7160e01b600052601160045260246000fd5b8082018082111561094157610941611399565b6000600182016113d4576113d4611399565b5060010190565b81810360008312801583831316838312821617156113fb576113fb611399565b5092915050565b808202811582820484141761094157610941611399565b634e487b7160e01b600052601260045260246000fd5b60008261143e5761143e611419565b500490565b8181038181111561094157610941611399565b805169ffffffffffffffffffff8116811461147057600080fd5b919050565b600080600080600060a0868803121561148d57600080fd5b61149686611456565b94506020860151935060408601519250606086015191506114b960808701611456565b90509295509295909350565b6000602082840312156114d757600080fd5b8151610d50816112e5565b6000602082840312156114f457600080fd5b8151610d508161131a565b634e487b7160e01b600052604160045260246000fd5b6020808252825182820181905260009190848201906040850190845b8181101561155357835163ffffffff1683529284019291840191600101611531565b50909695505050505050565b604051601f8201601f1916810167ffffffffffffffff81118282101715611588576115886114ff565b604052919050565b600067ffffffffffffffff8211156115aa576115aa6114ff565b5060051b60200190565b600082601f8301126115c557600080fd5b815160206115da6115d583611590565b61155f565b82815260059290921b840181019181810190868411156115f957600080fd5b8286015b8481101561161d578051611610816112e5565b83529183019183016115fd565b509695505050505050565b6000806040838503121561163b57600080fd5b825167ffffffffffffffff8082111561165357600080fd5b818501915085601f83011261166757600080fd5b815160206116776115d583611590565b82815260059290921b8401810191818101908984111561169657600080fd5b948201945b838610156116c45785518060060b81146116b55760008081fd5b8252948201949082019061169b565b918801519196509093505050808211156116dd57600080fd5b506116ea858286016115b4565b9150509250929050565b600682810b9082900b03667fffffffffffff198112667fffffffffffff8213171561094157610941611399565b6001600160a01b038281168282160390808211156113fb576113fb611399565b60008160060b8360060b8061175857611758611419565b667fffffffffffff1982146000198214161561177657611776611399565b90059392505050565b60008260060b8061179257611792611419565b808360060b0791505092915050565b60008160020b627fffff1981036117ba576117ba611399565b6000190192915050565b6001600160c01b038281168282168181028316929181158285048214176117ed576117ed611399565b50505092915050565b60006001600160c01b038381168061181057611810611419565b92169190910492915050565b6000600160ff1b820161183157611831611399565b5060000390565b60008160020b627fffff19810361185157611851611399565b60000392915050565b60008261186957611869611419565b50069056fea2646970667358221220ab4aa7c973b504981e9758035ac73928f9556d6200e1896a226fda65d37c297964736f6c63430008150033",
    "linkReferences": {}
  },
  "methodIdentifiers": {
    "ETH_USD()": "6260f55b",
    "TIMEOUT()": "f56f48f2",
    "chargeOZLfee()": "8e9cd10c",
    "getLastRewards()": "2cc3eb0a",
    "getUnderlyingValue(address)": "97d2ead2",
    "rETH_ETH()": "d4afb73a",
    "rETH_USD()": "f424c4ba",
    "setValuePerOzToken(address,uint256,bool)": "b0ff97b5"
  },
  "id": 17
}