{
  "abi": [
    {
      "inputs": [],
      "name": "ETH_USD",
      "outputs": [
        {
          "internalType": "uint256",
          "name": "",
          "type": "uint256"
        }
      ],
      "stateMutability": "view",
      "type": "function"
    },
    {
      "inputs": [],
      "name": "getUnderlyingValue",
      "outputs": [
        {
          "internalType": "uint256",
          "name": "",
          "type": "uint256"
        }
      ],
      "stateMutability": "view",
      "type": "function"
    },
    {
      "inputs": [],
      "name": "rETH_ETH",
      "outputs": [
        {
          "internalType": "uint256",
          "name": "",
          "type": "uint256"
        }
      ],
      "stateMutability": "view",
      "type": "function"
    },
    {
      "inputs": [],
      "name": "rETH_USD",
      "outputs": [
        {
          "internalType": "uint256",
          "name": "",
          "type": "uint256"
        }
      ],
      "stateMutability": "view",
      "type": "function"
    }
  ],
  "bytecode": {
    "object": "0x608060405234801561001057600080fd5b50610420806100206000396000f3fe608060405234801561001057600080fd5b506004361061004c5760003560e01c806345089e29146100515780636260f55b1461006b578063d4afb73a14610073578063f424c4ba1461007b575b600080fd5b610059610083565b60405190815260200160405180910390f35b6100596101bc565b610059610256565b6100596102de565b600a546040516370a0823160e01b815230600482015260009182916001600160a01b03909116906370a0823190602401602060405180830381865afa1580156100d0573d6000803e3d6000fd5b505050506040513d601f19601f820116820180604052508101906100f49190610315565b9050600080600a0160009054906101000a90046001600160a01b03166001600160a01b031663e6aa216c6040518163ffffffff1660e01b8152600401602060405180830381865afa15801561014d573d6000803e3d6000fd5b505050506040513d601f19601f820116820180604052508101906101719190610315565b9050670de0b6b3a76400006101846101bc565b670de0b6b3a7640000610197858561032e565b6101a19190610359565b6101ab919061032e565b6101b59190610359565b9250505090565b600080600060060160009054906101000a90046001600160a01b03166001600160a01b031663feaf968c6040518163ffffffff1660e01b815260040160a060405180830381865afa158015610215573d6000803e3d6000fd5b505050506040513d601f19601f82011682018060405250810190610239919061039a565b505050915050806402540be400610250919061032e565b91505090565b6000806000600c0160009054906101000a90046001600160a01b03166001600160a01b031663feaf968c6040518163ffffffff1660e01b815260040160a060405180830381865afa1580156102af573d6000803e3d6000fd5b505050506040513d601f19601f820116820180604052508101906102d3919061039a565b509195945050505050565b6000670de0b6b3a76400006102f16101bc565b6102f9610256565b610303919061032e565b61030d9190610359565b600218905090565b60006020828403121561032757600080fd5b5051919050565b808202811582820484141761035357634e487b7160e01b600052601160045260246000fd5b92915050565b60008261037657634e487b7160e01b600052601260045260246000fd5b500490565b805169ffffffffffffffffffff8116811461039557600080fd5b919050565b600080600080600060a086880312156103b257600080fd5b6103bb8661037b565b94506020860151935060408601519250606086015191506103de6080870161037b565b9050929550929590935056fea26469706673582212201c7844865516ef6aefd9101972246a22de8d1705d75d1ee1a2240f8e040d84d464736f6c63430008150033",
    "linkReferences": {}
  },
  "methodIdentifiers": {
    "ETH_USD()": "6260f55b",
    "getUnderlyingValue()": "45089e29",
    "rETH_ETH()": "d4afb73a",
    "rETH_USD()": "f424c4ba"
  },
  "id": 11
}