{"abi":[{"type":"function","name":"DISPUTE_BUFFER","inputs":[],"outputs":[{"name":"","type":"uint256","internalType":"uint256"}],"stateMutability":"view"},{"type":"function","name":"ETH_USD","inputs":[],"outputs":[{"name":"","type":"uint256","internalType":"uint256"}],"stateMutability":"view"},{"type":"function","name":"TIMEOUT_EXTENDED","inputs":[],"outputs":[{"name":"","type":"uint256","internalType":"uint256"}],"stateMutability":"view"},{"type":"function","name":"TIMEOUT_LINK","inputs":[],"outputs":[{"name":"","type":"uint256","internalType":"uint256"}],"stateMutability":"view"},{"type":"function","name":"chargeOZLfee","inputs":[],"outputs":[{"name":"","type":"bool","internalType":"bool"}],"stateMutability":"nonpayable"},{"type":"function","name":"getLastRewards","inputs":[],"outputs":[{"name":"","type":"tuple","internalType":"struct LastRewards","components":[{"name":"lastBlock","type":"uint256","internalType":"uint256"},{"name":"prevTotalRewards","type":"uint256","internalType":"uint256"}]}],"stateMutability":"view"},{"type":"function","name":"getOracleBackUp1","inputs":[],"outputs":[{"name":"","type":"bool","internalType":"bool"},{"name":"","type":"uint256","internalType":"uint256"}],"stateMutability":"view"},{"type":"function","name":"getOracleBackUp2","inputs":[],"outputs":[{"name":"","type":"bool","internalType":"bool"},{"name":"","type":"uint256","internalType":"uint256"}],"stateMutability":"view"},{"type":"function","name":"getUnderlyingValue","inputs":[{"name":"ozToken_","type":"address","internalType":"address"}],"outputs":[{"name":"","type":"uint256","internalType":"uint256"}],"stateMutability":"view"},{"type":"function","name":"getUniPrice","inputs":[{"name":"tokenPair_","type":"uint256","internalType":"uint256"},{"name":"side_","type":"uint8","internalType":"enum Dir"}],"outputs":[{"name":"","type":"uint256","internalType":"uint256"}],"stateMutability":"view"},{"type":"function","name":"getUniPrice2","inputs":[{"name":"tokenPair_","type":"uint256","internalType":"uint256"},{"name":"side_","type":"uint8","internalType":"enum Dir"}],"outputs":[{"name":"","type":"uint256","internalType":"uint256"}],"stateMutability":"view"},{"type":"function","name":"rETH_ETH","inputs":[],"outputs":[{"name":"","type":"uint256","internalType":"uint256"}],"stateMutability":"view"},{"type":"function","name":"rETH_USD","inputs":[],"outputs":[{"name":"","type":"uint256","internalType":"uint256"}],"stateMutability":"view"},{"type":"function","name":"setValuePerOzToken","inputs":[{"name":"ozToken_","type":"address","internalType":"address"},{"name":"amount_","type":"uint256","internalType":"uint256"},{"name":"addOrSub_","type":"bool","internalType":"bool"}],"outputs":[],"stateMutability":"nonpayable"},{"type":"event","name":"OzRewards","inputs":[{"name":"blockNumber","type":"uint256","indexed":false,"internalType":"uint256"},{"name":"ozelFeesInRETH","type":"uint256","indexed":false,"internalType":"uint256"},{"name":"totalRewards","type":"int256","indexed":false,"internalType":"int256"},{"name":"currentRewards","type":"int256","indexed":false,"internalType":"int256"}],"anonymous":false},{"type":"error","name":"OZError14","inputs":[{"name":"blockNumber","type":"uint256","internalType":"uint256"}]},{"type":"error","name":"OZError23","inputs":[{"name":"baseToken","type":"address","internalType":"address"}]}],"bytecode":{"object":"0x608060405234801561001057600080fd5b50611f12806100206000396000f3fe608060405234801561001057600080fd5b50600436106100ea5760003560e01c80638e9cd10c1161008c578063c187486711610066578063c1874867146101e0578063d4afb73a146101e9578063f32cabc5146101f1578063f424c4ba146101f957600080fd5b80638e9cd10c146101a057806397d2ead2146101b8578063b0ff97b5146101cb57600080fd5b80633154b6e2116100c85780633154b6e21461017257806340f1a34b146101855780636260f55b1461018e5780638c4c501d1461019657600080fd5b80630b842e3b146100ef578063243743c2146101135780632cc3eb0a14610134575b600080fd5b6100f7610201565b6040805192151583526020830191909152015b60405180910390f35b610126610121366004611837565b610360565b60405190815260200161010a565b60408051808201825260008082526020918201528151808301835260145480825260155491830191825283519081529051918101919091520161010a565b610126610180366004611837565b6104a8565b61012661384081565b610126610787565b6101266201518081565b6101a86107d1565b604051901515815260200161010a565b6101266101c6366004611880565b6109e4565b6101de6101d93660046118ab565b610ab0565b005b61012661038481565b610126610b1c565b6100f7610b38565b610126610bd6565b60008060006040516020016102479060408082526003908201819052620cae8d60eb1b6060830152608060208301819052820152621d5cd960ea1b60a082015260c00190565b60408051601f198184030181529082905261026491602001611911565b60408051601f198184030181529190528051602090910120602354909150600090819081906001600160a01b031663a792765f856102a46103844261197a565b6040516001600160e01b031960e085901b16815260048101929092526024820152604401600060405180830381865afa1580156102e5573d6000803e3d6000fd5b505050506040513d6000823e601f3d908101601f1916820160405261030d91908101906119d4565b92509250925082158061032b575062015180610329824261197a565b115b1561033e57506000958695509350505050565b6001828060200190518101906103549190611a87565b95509550505050509091565b600080600080600080600a0160009054906101000a90046001600160a01b03166001600160a01b031663feaf968c6040518163ffffffff1660e01b815260040160a060405180830381865afa1580156103bd573d6000803e3d6000fd5b505050506040513d601f19601f820116820180604052508101906103e19190611abf565b5091965091945085935091506001905086600181111561040357610403611b0f565b0361049b57600a546000906001600160a01b0316639a6fc8f5610427600187611b25565b6040516001600160e01b031960e084901b16815269ffffffffffffffffffff909116600482015260240160a060405180830381865afa15801561046e573d6000803e3d6000fd5b505050506040513d601f19601f820116820180604052508101906104929190611abf565b50919750505050505b5091925050505b92915050565b60006104b46003610c05565b6000838152602b60209081526040808320815160608101835281546001600160a01b03908116808352600190930154808216838701819052600160a01b90910462ffffff169285018390526022548551630b4c774160e11b815260048101869052602481018390526044810185905295519497919693959194921692631698ee82926064808401938290030181865afa158015610555573d6000803e3d6000fd5b505050506040513d601f19601f820116820180604052508101906105799190611b4f565b905060008087600181111561059057610590611b0f565b1461059e57620151806105a2565b6107085b60408051600280825260608201835262ffffff939093169350600092909160208301908036833701905050905081816000815181106105e3576105e3611b6c565b602002602001019063ffffffff16908163ffffffff168152505060008160018151811061061257610612611b6c565b63ffffffff9092166020928302919091019091015260405163883bdbfd60e01b81526000906001600160a01b0385169063883bdbfd90610656908590600401611b82565b600060405180830381865afa158015610673573d6000803e3d6000fd5b505050506040513d6000823e601f3d908101601f1916820160405261069b9190810190611c64565b5090506000816000815181106106b3576106b3611b6c565b6020026020010151826001815181106106ce576106ce611b6c565b60200260200101516106e09190611d30565b905060006106f2600386900b83611d73565b905060008260060b1280156107165750610710600386900b83611db1565b60060b15155b15610729578061072581611dd3565b9150505b600061073f82670de0b6b3a76400008c8c610c4d565b6003549091506001600160a01b038a81169116146107625764e8d4a51000610765565b60015b6107769064ffffffffff1682611df6565b9d9c50505050505050505050505050565b600754600090819081906107a5906001600160a01b03166001610d5b565b91509150816107c8576003546107c3906001600160a01b0316610e90565b6107ca565b805b9250505090565b6009546040516370a0823160e01b815230600482015260009182916001600160a01b03909116906370a0823190602401602060405180830381865afa15801561081e573d6000803e3d6000fd5b505050506040513d601f19601f820116820180604052508101906108429190611a87565b90506000805b6001548110156108fa57600180548290811061086657610866611b6c565b600091825260209182902060029091020154604080516278744560e21b815290516001600160a01b03909216926301e1d114926004808401938290030181865afa1580156108b8573d6000803e3d6000fd5b505050506040513d601f19601f820116820180604052508101906108dc9190611a87565b6108e69083611e0d565b9150806108f281611e20565b915050610848565b5060145443116109245760405163dcfa2bfd60e01b81524360048201526024015b60405180910390fd5b6000806109318385610ff1565b909250905060006109428383611e39565b9050600081136109585760009550505050505090565b6015546000906109689083611e39565b90506000811361097f576000965050505050505090565b600061098b838361105f565b6040805143815260208101839052908101859052606081018490529091507fd47935b2f6fd998224fcce47e28065f692a3452b54180fd1e43ba90daf9eb1949060800160405180910390a1600197505050505050505090565b6000806001600160a01b0383163014610a15576001600160a01b038316600090815260216020526040902054610a81565b6009546040516370a0823160e01b81523060048201526001600160a01b03909116906370a0823190602401602060405180830381865afa158015610a5d573d6000803e3d6000fd5b505050506040513d601f19601f82011682018060405250810190610a819190611a87565b9050670de0b6b3a764000081610a95610bd6565b610a9f9190611df6565b610aa99190611e59565b9392505050565b8015610ae9576001600160a01b03831660009081526021602052604081208054849290610ade908490611e0d565b90915550610b179050565b6001600160a01b03831660009081526021602052604081208054849290610b1190849061197a565b90915550505b505050565b6000610b286001610c05565b610b336000806104a8565b905090565b602454600090819081908190610b57906001600160a01b031682610d5b565b60255491935091506000908190610b77906001600160a01b031682610d5b565b91509150838015610b855750815b15610bc8576000610bb982670de0b6b3a7640000610bb2876ec097ce7bc90715b34b9f1000000000611e59565b919061114f565b60019890975095505050505050565b506000958695509350505050565b6000670de0b6b3a7640000610be9610787565b610bf1610b1c565b610bfb9190611df6565b610b339190611e59565b610c4a81604051602401610c1b91815260200190565b60408051601f198184030181529190526020810180516001600160e01b031663f5b1bba960e01b17905261116d565b50565b600080610c598661118e565b90506001600160801b036001600160a01b03821611610cdf576000610c876001600160a01b03831680611df6565b9050836001600160a01b0316856001600160a01b031610610cbf57610cba600160c01b876001600160801b0316836115ae565b610cd7565b610cd781876001600160801b0316600160c01b6115ae565b925050610d52565b6000610cfe6001600160a01b03831680680100000000000000006115ae565b9050836001600160a01b0316856001600160a01b031610610d3657610d31600160801b876001600160801b0316836115ae565b610d4e565b610d4e81876001600160801b0316600160801b6115ae565b9250505b50949350505050565b6000806138406402540be40084610d73576201518091505b600a546001600160a01b0390811690871603610d8d575060015b6000806000886001600160a01b031663feaf968c6040518163ffffffff1660e01b815260040160a060405180830381865afa158015610dd0573d6000803e3d6000fd5b505050506040513d601f19601f82011682018060405250810190610df49190611abf565b50935050925092508269ffffffffffffffffffff166000141580610e2557506024546001600160a01b038a81169116145b8015610e315750600082135b8015610e3c57508015155b8015610e485750428111155b8015610e5d575084610e5a824261197a565b11155b15610e7c576001610e6e8584611df6565b965096505050505050610e89565b6000809650965050505050505b9250929050565b6003546000906001600160a01b0390811690831603610f07576000610eb7600260006104a8565b9050600080610ec4610201565b91509150600080610ed3610b38565b91509150838015610ee15750815b15610efc57610ef1858483611724565b979650505050505050565b509295945050505050565b6009546001600160a01b0390811690831603610fcd576000610f2a6000806104a8565b90506000610f3a600160006104a8565b905060008060090160009054906101000a90046001600160a01b03166001600160a01b031663e6aa216c6040518163ffffffff1660e01b8152600401602060405180830381865afa158015610f93573d6000803e3d6000fd5b505050506040513d601f19601f82011682018060405250810190610fb79190611a87565b9050610fc4838383611724565b95945050505050565b60405163715ed81960e01b81526001600160a01b038316600482015260240161091b565b6000806000610ffe610787565b61100d8664e8d4a51000611df6565b61101f90670de0b6b3a7640000611df6565b6110299190611e59565b90506000670de0b6b3a764000061103e610b1c565b6110489087611df6565b6110529190611e59565b9196919550909350505050565b6013546000908190611083906601000000000000900462ffffff168461271061114f565b601585905590506000611094610b1c565b6110a683670de0b6b3a7640000611df6565b6110b09190611e59565b905060006110bd82611791565b60095460135460405163a9059cbb60e01b81526001600160a01b0369010000000000000000009092048216600482015260248101849052929350169063a9059cbb906044016020604051808303816000875af1158015611121573d6000803e3d6000fd5b505050506040513d601f19601f820116820180604052508101906111459190611e6d565b5095945050505050565b600082600019048411830215820261116657600080fd5b5091020490565b80516a636f6e736f6c652e6c6f67602083016000808483855afa5050505050565b60008060008360020b126111a5578260020b6111b2565b8260020b6111b290611e8a565b90506111c1620d89e719611ea6565b60020b8111156111f75760405162461bcd60e51b81526020600482015260016024820152601560fa1b604482015260640161091b565b60008160011660000361120e57600160801b611220565b6ffffcb933bd6fad37aa2d162d1a5940015b70ffffffffffffffffffffffffffffffffff169050600282161561125f57608061125a826ffff97272373d413259a46990580e213a611df6565b901c90505b6004821615611289576080611284826ffff2e50f5f656932ef12357cf3c7fdcc611df6565b901c90505b60088216156112b35760806112ae826fffe5caca7e10e4e61c3624eaa0941cd0611df6565b901c90505b60108216156112dd5760806112d8826fffcb9843d60f6159c9db58835c926644611df6565b901c90505b6020821615611307576080611302826fff973b41fa98c081472e6896dfb254c0611df6565b901c90505b604082161561133157608061132c826fff2ea16466c96a3843ec78b326b52861611df6565b901c90505b608082161561135b576080611356826ffe5dee046a99a2a811c461f1969c3053611df6565b901c90505b610100821615611386576080611381826ffcbe86c7900a88aedcffc83b479aa3a4611df6565b901c90505b6102008216156113b15760806113ac826ff987a7253ac413176f2b074cf7815e54611df6565b901c90505b6104008216156113dc5760806113d7826ff3392b0822b70005940c7a398e4b70f3611df6565b901c90505b610800821615611407576080611402826fe7159475a2c29b7443b29c7fa6e889d9611df6565b901c90505b61100082161561143257608061142d826fd097f3bdfd2022b8845ad8f792aa5825611df6565b901c90505b61200082161561145d576080611458826fa9f746462d870fdf8a65dc1f90e061e5611df6565b901c90505b614000821615611488576080611483826f70d869a156d2a1b890bb3df62baf32f7611df6565b901c90505b6180008216156114b35760806114ae826f31be135f97d08fd981231505542fcfa6611df6565b901c90505b620100008216156114df5760806114da826f09aa508b5b7a84e1c677de54f3e99bc9611df6565b901c90505b6202000082161561150a576080611505826e5d6af8dedb81196699c329225ee604611df6565b901c90505b6204000082161561153457608061152f826d2216e584f5fa1ea926041bedfe98611df6565b901c90505b6208000082161561155c576080611557826b048a170391f7dc42444e8fa2611df6565b901c90505b60008460020b13156115775761157481600019611e59565b90505b61158664010000000082611ec8565b15611592576001611595565b60005b6115a69060ff16602083901c611e0d565b949350505050565b60008080600019858709858702925082811083820303915050806000036115e757600084116115dc57600080fd5b508290049050610aa9565b8084116115f357600080fd5b60008486880980840393811190920391905060008561161181611e8a565b169586900495938490049360008190030460010190506116318184611df6565b909317926000611642876003611df6565b60021890506116518188611df6565b61165c90600261197a565b6116669082611df6565b90506116728188611df6565b61167d90600261197a565b6116879082611df6565b90506116938188611df6565b61169e90600261197a565b6116a89082611df6565b90506116b48188611df6565b6116bf90600261197a565b6116c99082611df6565b90506116d58188611df6565b6116e090600261197a565b6116ea9082611df6565b90506116f68188611df6565b61170190600261197a565b61170b9082611df6565b90506117178186611df6565b9998505050505050505050565b60008284101580156117365750818411155b8061174c575082841115801561174c5750818410155b15611758575082610aa9565b8383101580156117685750818311155b8061177e575083831115801561177e5750818310155b1561178a575081610aa9565b5080610aa9565b601f5460009081906117b190600160a01b900461ffff168461271061114f565b600954601f5460405163a9059cbb60e01b81526001600160a01b03918216600482015260248101849052929350169063a9059cbb906044016020604051808303816000875af1158015611808573d6000803e3d6000fd5b505050506040513d601f19601f8201168201806040525081019061182c9190611e6d565b50610aa9818461197a565b6000806040838503121561184a57600080fd5b8235915060208301356002811061186057600080fd5b809150509250929050565b6001600160a01b0381168114610c4a57600080fd5b60006020828403121561189257600080fd5b8135610aa98161186b565b8015158114610c4a57600080fd5b6000806000606084860312156118c057600080fd5b83356118cb8161186b565b92506020840135915060408401356118e28161189d565b809150509250925092565b60005b838110156119085781810151838201526020016118f0565b50506000910152565b60408152600960408201526853706f74507269636560b81b606082015260806020820152600082518060808401526119508160a08501602087016118ed565b601f01601f19169190910160a00192915050565b634e487b7160e01b600052601160045260246000fd5b818103818111156104a2576104a2611964565b634e487b7160e01b600052604160045260246000fd5b604051601f8201601f1916810167ffffffffffffffff811182821017156119cc576119cc61198d565b604052919050565b6000806000606084860312156119e957600080fd5b83516119f48161189d565b602085015190935067ffffffffffffffff80821115611a1257600080fd5b818601915086601f830112611a2657600080fd5b815181811115611a3857611a3861198d565b611a4b601f8201601f19166020016119a3565b9150808252876020828501011115611a6257600080fd5b611a738160208401602086016118ed565b508093505050604084015190509250925092565b600060208284031215611a9957600080fd5b5051919050565b805169ffffffffffffffffffff81168114611aba57600080fd5b919050565b600080600080600060a08688031215611ad757600080fd5b611ae086611aa0565b9450602086015193506040860151925060608601519150611b0360808701611aa0565b90509295509295909350565b634e487b7160e01b600052602160045260246000fd5b69ffffffffffffffffffff828116828216039080821115611b4857611b48611964565b5092915050565b600060208284031215611b6157600080fd5b8151610aa98161186b565b634e487b7160e01b600052603260045260246000fd5b6020808252825182820181905260009190848201906040850190845b81811015611bc057835163ffffffff1683529284019291840191600101611b9e565b50909695505050505050565b600067ffffffffffffffff821115611be657611be661198d565b5060051b60200190565b600082601f830112611c0157600080fd5b81516020611c16611c1183611bcc565b6119a3565b82815260059290921b84018101918181019086841115611c3557600080fd5b8286015b84811015611c59578051611c4c8161186b565b8352918301918301611c39565b509695505050505050565b60008060408385031215611c7757600080fd5b825167ffffffffffffffff80821115611c8f57600080fd5b818501915085601f830112611ca357600080fd5b81516020611cb3611c1183611bcc565b82815260059290921b84018101918181019089841115611cd257600080fd5b948201945b83861015611d005785518060060b8114611cf15760008081fd5b82529482019490820190611cd7565b91880151919650909350505080821115611d1957600080fd5b50611d2685828601611bf0565b9150509250929050565b600682810b9082900b03667fffffffffffff198112667fffffffffffff821317156104a2576104a2611964565b634e487b7160e01b600052601260045260246000fd5b60008160060b8360060b80611d8a57611d8a611d5d565b667fffffffffffff19821460001982141615611da857611da8611964565b90059392505050565b60008260060b80611dc457611dc4611d5d565b808360060b0791505092915050565b60008160020b627fffff198103611dec57611dec611964565b6000190192915050565b80820281158282048414176104a2576104a2611964565b808201808211156104a2576104a2611964565b600060018201611e3257611e32611964565b5060010190565b8181036000831280158383131683831282161715611b4857611b48611964565b600082611e6857611e68611d5d565b500490565b600060208284031215611e7f57600080fd5b8151610aa98161189d565b6000600160ff1b8201611e9f57611e9f611964565b5060000390565b60008160020b627fffff198103611ebf57611ebf611964565b60000392915050565b600082611ed757611ed7611d5d565b50069056fea2646970667358221220e54c6948a00025cbfa27693f3a6fac59d36c92989a675fb295113ad39f3f973f64736f6c63430008150033","linkReferences":{}},"methodIdentifiers":{"DISPUTE_BUFFER()":"c1874867","ETH_USD()":"6260f55b","TIMEOUT_EXTENDED()":"8c4c501d","TIMEOUT_LINK()":"40f1a34b","chargeOZLfee()":"8e9cd10c","getLastRewards()":"2cc3eb0a","getOracleBackUp1()":"0b842e3b","getOracleBackUp2()":"f32cabc5","getUnderlyingValue(address)":"97d2ead2","getUniPrice(uint256,uint8)":"3154b6e2","getUniPrice2(uint256,uint8)":"243743c2","rETH_ETH()":"d4afb73a","rETH_USD()":"f424c4ba","setValuePerOzToken(address,uint256,bool)":"b0ff97b5"},"id":19}