{
  "abi": [
    {
      "inputs": [
        {
          "internalType": "uint256",
          "name": "blockNumber",
          "type": "uint256"
        }
      ],
      "name": "OZError14",
      "type": "error"
    },
    {
      "anonymous": false,
      "inputs": [
        {
          "indexed": false,
          "internalType": "uint256",
          "name": "blockNumber",
          "type": "uint256"
        },
        {
          "indexed": false,
          "internalType": "uint256",
          "name": "ozelFeesInRETH",
          "type": "uint256"
        },
        {
          "indexed": false,
          "internalType": "int256",
          "name": "totalRewards",
          "type": "int256"
        },
        {
          "indexed": false,
          "internalType": "int256",
          "name": "currentRewards",
          "type": "int256"
        }
      ],
      "name": "OzRewards",
      "type": "event"
    },
    {
      "inputs": [],
      "name": "ETH_USD",
      "outputs": [
        {
          "internalType": "uint256",
          "name": "",
          "type": "uint256"
        }
      ],
      "stateMutability": "view",
      "type": "function"
    },
    {
      "inputs": [],
      "name": "chargeOZLfee",
      "outputs": [
        {
          "internalType": "bool",
          "name": "",
          "type": "bool"
        }
      ],
      "stateMutability": "nonpayable",
      "type": "function"
    },
    {
      "inputs": [],
      "name": "getLastRewards",
      "outputs": [
        {
          "components": [
            {
              "internalType": "uint256",
              "name": "lastBlock",
              "type": "uint256"
            },
            {
              "internalType": "uint256",
              "name": "prevTotalRewards",
              "type": "uint256"
            }
          ],
          "internalType": "struct LastRewards",
          "name": "",
          "type": "tuple"
        }
      ],
      "stateMutability": "view",
      "type": "function"
    },
    {
      "inputs": [],
      "name": "getUnderlyingValue",
      "outputs": [
        {
          "internalType": "uint256",
          "name": "",
          "type": "uint256"
        }
      ],
      "stateMutability": "view",
      "type": "function"
    },
    {
      "inputs": [
        {
          "internalType": "address",
          "name": "ozToken_",
          "type": "address"
        }
      ],
      "name": "getUnderlyingValue2",
      "outputs": [
        {
          "internalType": "uint256",
          "name": "",
          "type": "uint256"
        }
      ],
      "stateMutability": "view",
      "type": "function"
    },
    {
      "inputs": [],
      "name": "rETH_ETH",
      "outputs": [
        {
          "internalType": "uint256",
          "name": "",
          "type": "uint256"
        }
      ],
      "stateMutability": "view",
      "type": "function"
    },
    {
      "inputs": [],
      "name": "rETH_USD",
      "outputs": [
        {
          "internalType": "uint256",
          "name": "",
          "type": "uint256"
        }
      ],
      "stateMutability": "view",
      "type": "function"
    }
  ],
  "bytecode": {
    "object": "0x608060405234801561001057600080fd5b50610cd9806100206000396000f3fe608060405234801561001057600080fd5b506004361061007d5760003560e01c80638e9cd10c1161005b5780638e9cd10c146100e3578063c8014c6f146100fb578063d4afb73a1461010e578063f424c4ba1461011657600080fd5b80632cc3eb0a1461008257806345089e29146100c55780636260f55b146100db575b600080fd5b6040805180820182526000808252602091820152815180830183526016548082526017549183019182528351908152905191810191909152015b60405180910390f35b6100cd61011e565b6040519081526020016100bc565b6100cd610257565b6100eb6102f1565b60405190151581526020016100bc565b6100cd610109366004610a4d565b6104fe565b6100cd6106d3565b6100cd61075b565b6009546040516370a0823160e01b815230600482015260009182916001600160a01b03909116906370a0823190602401602060405180830381865afa15801561016b573d6000803e3d6000fd5b505050506040513d601f19601f8201168201806040525081019061018f9190610a76565b905060008060090160009054906101000a90046001600160a01b03166001600160a01b031663e6aa216c6040518163ffffffff1660e01b8152600401602060405180830381865afa1580156101e8573d6000803e3d6000fd5b505050506040513d601f19601f8201168201806040525081019061020c9190610a76565b9050670de0b6b3a764000061021f610257565b670de0b6b3a76400006102328585610aa5565b61023c9190610abc565b6102469190610aa5565b6102509190610abc565b9250505090565b600080600060070160009054906101000a90046001600160a01b03166001600160a01b031663feaf968c6040518163ffffffff1660e01b815260040160a060405180830381865afa1580156102b0573d6000803e3d6000fd5b505050506040513d601f19601f820116820180604052508101906102d49190610afd565b505050915050806402540be4006102eb9190610aa5565b91505090565b6009546040516370a0823160e01b815230600482015260009182916001600160a01b03909116906370a0823190602401602060405180830381865afa15801561033e573d6000803e3d6000fd5b505050506040513d601f19601f820116820180604052508101906103629190610a76565b90506000805b60015481101561041557600180548290811061038657610386610b4d565b60009182526020918290200154604080516278744560e21b815290516001600160a01b03909216926301e1d114926004808401938290030181865afa1580156103d3573d6000803e3d6000fd5b505050506040513d601f19601f820116820180604052508101906103f79190610a76565b6104019083610b63565b91508061040d81610b76565b915050610368565b50601654431161043e5760405163dcfa2bfd60e01b815243600482015260240160405180910390fd5b60008061044b8385610792565b9092509050600061045c8383610b8f565b9050600081136104725760009550505050505090565b6017546000906104829083610b8f565b905060008113610499576000965050505050505090565b60006104a58383610800565b6040805143815260208101839052908101859052606081018490529091507fd47935b2f6fd998224fcce47e28065f692a3452b54180fd1e43ba90daf9eb1949060800160405180910390a1600197505050505050505090565b600061053460405180604001604052806012815260200171037bd2a37b5b2b71034b7103ab73232b91d160751b815250836108e2565b61056e604051806060016040528060268152602001610c7e602691396001600160a01b03841660009081526023602052604090205461092b565b60006001600160a01b038316301461059e576001600160a01b03831660009081526023602052604090205461060a565b6009546040516370a0823160e01b81523060048201526001600160a01b03909116906370a0823190602401602060405180830381865afa1580156105e6573d6000803e3d6000fd5b505050506040513d601f19601f8201168201806040525081019061060a9190610a76565b905060008060090160009054906101000a90046001600160a01b03166001600160a01b031663e6aa216c6040518163ffffffff1660e01b8152600401602060405180830381865afa158015610663573d6000803e3d6000fd5b505050506040513d601f19601f820116820180604052508101906106879190610a76565b9050670de0b6b3a764000061069a610257565b670de0b6b3a76400006106ad8585610aa5565b6106b79190610abc565b6106c19190610aa5565b6106cb9190610abc565b949350505050565b6000806000600a0160009054906101000a90046001600160a01b03166001600160a01b031663feaf968c6040518163ffffffff1660e01b815260040160a060405180830381865afa15801561072c573d6000803e3d6000fd5b505050506040513d601f19601f820116820180604052508101906107509190610afd565b509195945050505050565b6000670de0b6b3a764000061076e610257565b6107766106d3565b6107809190610aa5565b61078a9190610abc565b600218905090565b600080600061079f610257565b6107ae8664e8d4a51000610aa5565b6107c090670de0b6b3a7640000610aa5565b6107ca9190610abc565b90506000670de0b6b3a76400006107df6106d3565b6107e99087610aa5565b6107f39190610abc565b9196919550909350505050565b601554600090819061081a9062ffffff1684612710610970565b60178590559050600061082b6106d3565b61083d83670de0b6b3a7640000610aa5565b6108479190610abc565b905060006108548261098e565b60095460155460405163a9059cbb60e01b81526001600160a01b0363010000009092048216600482015260248101849052929350169063a9059cbb906044016020604051808303816000875af11580156108b2573d6000803e3d6000fd5b505050506040513d601f19601f820116820180604052508101906108d69190610bb6565b50925050505b92915050565b61092782826040516024016108f8929190610c1e565b60408051601f198184030181529190526020810180516001600160e01b031663319af33360e01b179052610a2c565b5050565b6109278282604051602401610941929190610c48565b60408051601f198184030181529190526020810180516001600160e01b03166309710a9d60e41b179052610a2c565b600082600019048411830215820261098757600080fd5b5091020490565b60008061099f603284612710610970565b60095460215460405163a9059cbb60e01b81526001600160a01b03918216600482015260248101849052929350169063a9059cbb906044016020604051808303816000875af11580156109f6573d6000803e3d6000fd5b505050506040513d601f19601f82011682018060405250810190610a1a9190610bb6565b50610a258184610c6a565b9392505050565b80516a636f6e736f6c652e6c6f67602083016000808483855afa5050505050565b600060208284031215610a5f57600080fd5b81356001600160a01b0381168114610a2557600080fd5b600060208284031215610a8857600080fd5b5051919050565b634e487b7160e01b600052601160045260246000fd5b80820281158282048414176108dc576108dc610a8f565b600082610ad957634e487b7160e01b600052601260045260246000fd5b500490565b805169ffffffffffffffffffff81168114610af857600080fd5b919050565b600080600080600060a08688031215610b1557600080fd5b610b1e86610ade565b9450602086015193506040860151925060608601519150610b4160808701610ade565b90509295509295909350565b634e487b7160e01b600052603260045260246000fd5b808201808211156108dc576108dc610a8f565b600060018201610b8857610b88610a8f565b5060010190565b8181036000831280158383131683831282161715610baf57610baf610a8f565b5092915050565b600060208284031215610bc857600080fd5b81518015158114610a2557600080fd5b6000815180845260005b81811015610bfe57602081850181015186830182015201610be2565b506000602082860101526020601f19601f83011685010191505092915050565b604081526000610c316040830185610bd8565b905060018060a01b03831660208301529392505050565b604081526000610c5b6040830185610bd8565b90508260208301529392505050565b818103818111156108dc576108dc610a8f56fe732e76616c75655065724f7a546f6b656e5b6f7a546f6b656e5f5d20696e20756e6465723a20a2646970667358221220e874a95ff47d20838c227d9288de1dd8209e5bf4f89befe751719caf0084a2ed64736f6c63430008150033",
    "linkReferences": {}
  },
  "methodIdentifiers": {
    "ETH_USD()": "6260f55b",
    "chargeOZLfee()": "8e9cd10c",
    "getLastRewards()": "2cc3eb0a",
    "getUnderlyingValue()": "45089e29",
    "getUnderlyingValue2(address)": "c8014c6f",
    "rETH_ETH()": "d4afb73a",
    "rETH_USD()": "f424c4ba"
  },
  "id": 17
}