{"abi":[{"type":"function","name":"DISPUTE_BUFFER","inputs":[],"outputs":[{"name":"","type":"uint256","internalType":"uint256"}],"stateMutability":"view"},{"type":"function","name":"ETH_USD","inputs":[],"outputs":[{"name":"","type":"uint256","internalType":"uint256"}],"stateMutability":"view"},{"type":"function","name":"TIMEOUT_EXTENDED","inputs":[],"outputs":[{"name":"","type":"uint256","internalType":"uint256"}],"stateMutability":"view"},{"type":"function","name":"TIMEOUT_LINK","inputs":[],"outputs":[{"name":"","type":"uint256","internalType":"uint256"}],"stateMutability":"view"},{"type":"function","name":"chargeOZLfee","inputs":[],"outputs":[{"name":"","type":"bool","internalType":"bool"}],"stateMutability":"nonpayable"},{"type":"function","name":"getLastRewards","inputs":[],"outputs":[{"name":"","type":"tuple","internalType":"struct LastRewards","components":[{"name":"lastBlock","type":"uint256","internalType":"uint256"},{"name":"prevTotalRewards","type":"uint256","internalType":"uint256"}]}],"stateMutability":"view"},{"type":"function","name":"getOracleBackUp1","inputs":[],"outputs":[{"name":"","type":"bool","internalType":"bool"},{"name":"","type":"uint256","internalType":"uint256"}],"stateMutability":"view"},{"type":"function","name":"getOracleBackUp2","inputs":[],"outputs":[{"name":"","type":"bool","internalType":"bool"},{"name":"","type":"uint256","internalType":"uint256"}],"stateMutability":"view"},{"type":"function","name":"getUnderlyingValue","inputs":[{"name":"ozToken_","type":"address","internalType":"address"}],"outputs":[{"name":"","type":"uint256","internalType":"uint256"}],"stateMutability":"view"},{"type":"function","name":"getUniPrice","inputs":[{"name":"tokenPair_","type":"uint256","internalType":"uint256"},{"name":"side_","type":"uint8","internalType":"enum Dir"}],"outputs":[{"name":"","type":"uint256","internalType":"uint256"}],"stateMutability":"view"},{"type":"function","name":"rETH_ETH","inputs":[],"outputs":[{"name":"","type":"uint256","internalType":"uint256"}],"stateMutability":"view"},{"type":"function","name":"rETH_USD","inputs":[],"outputs":[{"name":"","type":"uint256","internalType":"uint256"}],"stateMutability":"view"},{"type":"function","name":"setValuePerOzToken","inputs":[{"name":"ozToken_","type":"address","internalType":"address"},{"name":"amount_","type":"uint256","internalType":"uint256"},{"name":"addOrSub_","type":"bool","internalType":"bool"}],"outputs":[],"stateMutability":"nonpayable"},{"type":"event","name":"OzRewards","inputs":[{"name":"blockNumber","type":"uint256","indexed":false,"internalType":"uint256"},{"name":"ozelFeesInRETH","type":"uint256","indexed":false,"internalType":"uint256"},{"name":"totalRewards","type":"int256","indexed":false,"internalType":"int256"},{"name":"currentRewards","type":"int256","indexed":false,"internalType":"int256"}],"anonymous":false},{"type":"error","name":"OZError14","inputs":[{"name":"blockNumber","type":"uint256","internalType":"uint256"}]},{"type":"error","name":"OZError23","inputs":[{"name":"baseToken","type":"address","internalType":"address"}]}],"bytecode":{"object":"0x608060405234801561001057600080fd5b50611fce806100206000396000f3fe608060405234801561001057600080fd5b50600436106100cf5760003560e01c80638e9cd10c1161008c578063c187486711610066578063c1874867146101b2578063d4afb73a146101bb578063f32cabc5146101c3578063f424c4ba146101cb57600080fd5b80638e9cd10c1461017257806397d2ead21461018a578063b0ff97b51461019d57600080fd5b80630b842e3b146100d45780632cc3eb0a146100f85780633154b6e21461013657806340f1a34b146101575780636260f55b146101605780638c4c501d14610168575b600080fd5b6100dc6101d3565b6040805192151583526020830191909152015b60405180910390f35b6040805180820182526000808252602091820152815180830183526014548082526015549183019182528351908152905191810191909152016100ef565b6101496101443660046118b1565b610332565b6040519081526020016100ef565b61014961384081565b61014961060c565b6101496201518081565b61017a6106ae565b60405190151581526020016100ef565b6101496101983660046118fa565b610969565b6101b06101ab366004611925565b610a2e565b005b61014961038481565b610149610a9a565b6100dc610aac565b610149610b4a565b60008060006040516020016102199060408082526003908201819052620cae8d60eb1b6060830152608060208301819052820152621d5cd960ea1b60a082015260c00190565b60408051601f1981840301815290829052610236916020016119b7565b60408051601f198184030181529190528051602090910120602354909150600090819081906001600160a01b031663a792765f8561027661038442611a00565b6040516001600160e01b031960e085901b16815260048101929092526024820152604401600060405180830381865afa1580156102b7573d6000803e3d6000fd5b505050506040513d6000823e601f3d908101601f191682016040526102df9190810190611a5a565b9250925092508215806102fd5750620151806102fb8242611a00565b115b1561031057506000958695509350505050565b6001828060200190518101906103269190611b0d565b95509550505050509091565b6000828152602b60209081526040808320815160608101835281546001600160a01b03908116808352600190930154808216838701819052600160a01b90910462ffffff169285018390526022548551630b4c774160e11b8152600481018690526024810183905260448101859052955194969195939488949190931692631698ee82926064808401939192918290030181865afa1580156103d8573d6000803e3d6000fd5b505050506040513d601f19601f820116820180604052508101906103fc9190611b26565b905060008087600181111561041357610413611b43565b146104215762015180610425565b6107085b60408051600280825260608201835262ffffff9390931693506000929091602083019080368337019050509050818160008151811061046657610466611b59565b602002602001019063ffffffff16908163ffffffff168152505060008160018151811061049557610495611b59565b63ffffffff9092166020928302919091019091015260405163883bdbfd60e01b81526000906001600160a01b0385169063883bdbfd906104d9908590600401611b6f565b600060405180830381865afa1580156104f6573d6000803e3d6000fd5b505050506040513d6000823e601f3d908101601f1916820160405261051e9190810190611c51565b50905060008160008151811061053657610536611b59565b60200260200101518260018151811061055157610551611b59565b60200260200101516105639190611d1d565b90506000610575600386900b83611d60565b905060008260060b1280156105995750610593600386900b83611d9e565b60060b15155b156105ac57806105a881611dc0565b9150505b60006105c282670de0b6b3a76400008c8c610b79565b6003549091506001600160a01b038a81169116146105e55764e8d4a510006105e8565b60015b6105f99064ffffffffff1682611de3565b9a50505050505050505050505b92915050565b6007546000908190819061062a906001600160a01b03166001610c87565b9150915061065960405180604001604052806009815260200168039bab1b1b2b9b99d160bd1b81525083610dbc565b60008261067a57600354610675906001600160a01b0316610e05565b61067c565b815b90506106a7604051806040016040528060078152602001660383934b1b29d160cd1b81525082610f66565b9392505050565b6009546040516370a0823160e01b815230600482015260009182916001600160a01b03909116906370a0823190602401602060405180830381865afa1580156106fb573d6000803e3d6000fd5b505050506040513d601f19601f8201168201806040525081019061071f9190611b0d565b90506000805b6001548110156107d757600180548290811061074357610743611b59565b600091825260209182902060029091020154604080516278744560e21b815290516001600160a01b03909216926301e1d114926004808401938290030181865afa158015610795573d6000803e3d6000fd5b505050506040513d601f19601f820116820180604052508101906107b99190611b0d565b6107c39083611dfa565b9150806107cf81611e0d565b915050610725565b5060145443116108015760405163dcfa2bfd60e01b81524360048201526024015b60405180910390fd5b61081960405180602001604052806000815250610fab565b6000806108268385610ff1565b915091506108596040518060400160405280600d81526020016c030b9b9b2ba39a4b722aa241d1609d1b81525083610f66565b6108866040518060400160405280600b81526020016a03922ba3424b722aa241d160ad1b81525082610f66565b61089e60405180602001604052806000815250610fab565b60006108aa8383611e26565b9050600081136108c05760009550505050505090565b6108ca601f611094565b6015546000906108da9083611e26565b9050600081136108f1576000965050505050505090565b6108fb6004611094565b600061090783836110d9565b90506109136005611094565b6040805143815260208101839052908101849052606081018390527fd47935b2f6fd998224fcce47e28065f692a3452b54180fd1e43ba90daf9eb1949060800160405180910390a1600197505050505050505090565b6000806001600160a01b038316301461099a576001600160a01b038316600090815260216020526040902054610a06565b6009546040516370a0823160e01b81523060048201526001600160a01b03909116906370a0823190602401602060405180830381865afa1580156109e2573d6000803e3d6000fd5b505050506040513d601f19601f82011682018060405250810190610a069190611b0d565b9050670de0b6b3a764000081610a1a610b4a565b610a249190611de3565b6106a79190611e4d565b8015610a67576001600160a01b03831660009081526021602052604081208054849290610a5c908490611dfa565b90915550610a959050565b6001600160a01b03831660009081526021602052604081208054849290610a8f908490611a00565b90915550505b505050565b6000610aa7600080610332565b905090565b602454600090819081908190610acb906001600160a01b031682610c87565b60255491935091506000908190610aeb906001600160a01b031682610c87565b91509150838015610af95750815b15610b3c576000610b2d82670de0b6b3a7640000610b26876ec097ce7bc90715b34b9f1000000000611e4d565b91906111c9565b60019890975095505050505050565b506000958695509350505050565b6000670de0b6b3a7640000610b5d61060c565b610b65610a9a565b610b6f9190611de3565b610aa79190611e4d565b600080610b85866111e7565b90506001600160801b036001600160a01b03821611610c0b576000610bb36001600160a01b03831680611de3565b9050836001600160a01b0316856001600160a01b031610610beb57610be6600160c01b876001600160801b031683611607565b610c03565b610c0381876001600160801b0316600160c01b611607565b925050610c7e565b6000610c2a6001600160a01b0383168068010000000000000000611607565b9050836001600160a01b0316856001600160a01b031610610c6257610c5d600160801b876001600160801b031683611607565b610c7a565b610c7a81876001600160801b0316600160801b611607565b9250505b50949350505050565b6000806138406402540be40084610c9f576201518091505b600a546001600160a01b0390811690871603610cb9575060015b6000806000886001600160a01b031663feaf968c6040518163ffffffff1660e01b815260040160a060405180830381865afa158015610cfc573d6000803e3d6000fd5b505050506040513d601f19601f82011682018060405250810190610d209190611e80565b50935050925092508269ffffffffffffffffffff166000141580610d5157506024546001600160a01b038a81169116145b8015610d5d5750600082135b8015610d6857508015155b8015610d745750428111155b8015610d89575084610d868242611a00565b11155b15610da8576001610d9a8584611de3565b965096505050505050610db5565b6000809650965050505050505b9250929050565b610e018282604051602401610dd2929190611ed0565b60408051601f198184030181529190526020810180516001600160e01b031663c3b5563560e01b17905261177d565b5050565b6003546000906001600160a01b0390811690831603610e7c576000610e2c60026000610332565b9050600080610e396101d3565b91509150600080610e48610aac565b91509150838015610e565750815b15610e7157610e6685848361179e565b979650505050505050565b509295945050505050565b6009546001600160a01b0390811690831603610f42576000610e9f600080610332565b90506000610eaf60016000610332565b905060008060090160009054906101000a90046001600160a01b03166001600160a01b031663e6aa216c6040518163ffffffff1660e01b8152600401602060405180830381865afa158015610f08573d6000803e3d6000fd5b505050506040513d601f19601f82011682018060405250810190610f2c9190611b0d565b9050610f3983838361179e565b95945050505050565b60405163715ed81960e01b81526001600160a01b03831660048201526024016107f8565b610e018282604051602401610f7c929190611ef4565b60408051601f198184030181529190526020810180516001600160e01b03166309710a9d60e41b17905261177d565b610fee81604051602401610fbf9190611f16565b60408051601f198184030181529190526020810180516001600160e01b031663104c13eb60e21b17905261177d565b50565b6000806000610ffe61060c565b61100d8664e8d4a51000611de3565b61101f90670de0b6b3a7640000611de3565b6110299190611e4d565b90506000670de0b6b3a764000061103e610a9a565b6110489087611de3565b6110529190611e4d565b90506110896040518060400160405280600c81526020016b03922aa242fa2aa2414149d160a51b815250611084610a9a565b610f66565b909590945092505050565b610fee816040516024016110aa91815260200190565b60408051601f198184030181529190526020810180516001600160e01b031663f5b1bba960e01b17905261177d565b60135460009081906110fd906601000000000000900462ffffff16846127106111c9565b60158590559050600061110e610a9a565b61112083670de0b6b3a7640000611de3565b61112a9190611e4d565b905060006111378261180b565b60095460135460405163a9059cbb60e01b81526001600160a01b0369010000000000000000009092048216600482015260248101849052929350169063a9059cbb906044016020604051808303816000875af115801561119b573d6000803e3d6000fd5b505050506040513d601f19601f820116820180604052508101906111bf9190611f29565b5095945050505050565b60008260001904841183021582026111e057600080fd5b5091020490565b60008060008360020b126111fe578260020b61120b565b8260020b61120b90611f46565b905061121a620d89e719611f62565b60020b8111156112505760405162461bcd60e51b81526020600482015260016024820152601560fa1b60448201526064016107f8565b60008160011660000361126757600160801b611279565b6ffffcb933bd6fad37aa2d162d1a5940015b70ffffffffffffffffffffffffffffffffff16905060028216156112b85760806112b3826ffff97272373d413259a46990580e213a611de3565b901c90505b60048216156112e25760806112dd826ffff2e50f5f656932ef12357cf3c7fdcc611de3565b901c90505b600882161561130c576080611307826fffe5caca7e10e4e61c3624eaa0941cd0611de3565b901c90505b6010821615611336576080611331826fffcb9843d60f6159c9db58835c926644611de3565b901c90505b602082161561136057608061135b826fff973b41fa98c081472e6896dfb254c0611de3565b901c90505b604082161561138a576080611385826fff2ea16466c96a3843ec78b326b52861611de3565b901c90505b60808216156113b45760806113af826ffe5dee046a99a2a811c461f1969c3053611de3565b901c90505b6101008216156113df5760806113da826ffcbe86c7900a88aedcffc83b479aa3a4611de3565b901c90505b61020082161561140a576080611405826ff987a7253ac413176f2b074cf7815e54611de3565b901c90505b610400821615611435576080611430826ff3392b0822b70005940c7a398e4b70f3611de3565b901c90505b61080082161561146057608061145b826fe7159475a2c29b7443b29c7fa6e889d9611de3565b901c90505b61100082161561148b576080611486826fd097f3bdfd2022b8845ad8f792aa5825611de3565b901c90505b6120008216156114b65760806114b1826fa9f746462d870fdf8a65dc1f90e061e5611de3565b901c90505b6140008216156114e15760806114dc826f70d869a156d2a1b890bb3df62baf32f7611de3565b901c90505b61800082161561150c576080611507826f31be135f97d08fd981231505542fcfa6611de3565b901c90505b62010000821615611538576080611533826f09aa508b5b7a84e1c677de54f3e99bc9611de3565b901c90505b6202000082161561156357608061155e826e5d6af8dedb81196699c329225ee604611de3565b901c90505b6204000082161561158d576080611588826d2216e584f5fa1ea926041bedfe98611de3565b901c90505b620800008216156115b55760806115b0826b048a170391f7dc42444e8fa2611de3565b901c90505b60008460020b13156115d0576115cd81600019611e4d565b90505b6115df64010000000082611f84565b156115eb5760016115ee565b60005b6115ff9060ff16602083901c611dfa565b949350505050565b6000808060001985870985870292508281108382030391505080600003611640576000841161163557600080fd5b5082900490506106a7565b80841161164c57600080fd5b60008486880980840393811190920391905060008561166a81611f46565b1695869004959384900493600081900304600101905061168a8184611de3565b90931792600061169b876003611de3565b60021890506116aa8188611de3565b6116b5906002611a00565b6116bf9082611de3565b90506116cb8188611de3565b6116d6906002611a00565b6116e09082611de3565b90506116ec8188611de3565b6116f7906002611a00565b6117019082611de3565b905061170d8188611de3565b611718906002611a00565b6117229082611de3565b905061172e8188611de3565b611739906002611a00565b6117439082611de3565b905061174f8188611de3565b61175a906002611a00565b6117649082611de3565b90506117708186611de3565b9998505050505050505050565b80516a636f6e736f6c652e6c6f67602083016000808483855afa5050505050565b60008284101580156117b05750818411155b806117c657508284111580156117c65750818410155b156117d25750826106a7565b8383101580156117e25750818311155b806117f857508383111580156117f85750818310155b156118045750816106a7565b50806106a7565b601f54600090819061182b90600160a01b900461ffff16846127106111c9565b600954601f5460405163a9059cbb60e01b81526001600160a01b03918216600482015260248101849052929350169063a9059cbb906044016020604051808303816000875af1158015611882573d6000803e3d6000fd5b505050506040513d601f19601f820116820180604052508101906118a69190611f29565b506106a78184611a00565b600080604083850312156118c457600080fd5b823591506020830135600281106118da57600080fd5b809150509250929050565b6001600160a01b0381168114610fee57600080fd5b60006020828403121561190c57600080fd5b81356106a7816118e5565b8015158114610fee57600080fd5b60008060006060848603121561193a57600080fd5b8335611945816118e5565b925060208401359150604084013561195c81611917565b809150509250925092565b60005b8381101561198257818101518382015260200161196a565b50506000910152565b600081518084526119a3816020860160208601611967565b601f01601f19169290920160200192915050565b60408152600960408201526853706f74507269636560b81b60608201526080602082015260006106a7608083018461198b565b634e487b7160e01b600052601160045260246000fd5b81810381811115610606576106066119ea565b634e487b7160e01b600052604160045260246000fd5b604051601f8201601f1916810167ffffffffffffffff81118282101715611a5257611a52611a13565b604052919050565b600080600060608486031215611a6f57600080fd5b8351611a7a81611917565b602085015190935067ffffffffffffffff80821115611a9857600080fd5b818601915086601f830112611aac57600080fd5b815181811115611abe57611abe611a13565b611ad1601f8201601f1916602001611a29565b9150808252876020828501011115611ae857600080fd5b611af9816020840160208601611967565b508093505050604084015190509250925092565b600060208284031215611b1f57600080fd5b5051919050565b600060208284031215611b3857600080fd5b81516106a7816118e5565b634e487b7160e01b600052602160045260246000fd5b634e487b7160e01b600052603260045260246000fd5b6020808252825182820181905260009190848201906040850190845b81811015611bad57835163ffffffff1683529284019291840191600101611b8b565b50909695505050505050565b600067ffffffffffffffff821115611bd357611bd3611a13565b5060051b60200190565b600082601f830112611bee57600080fd5b81516020611c03611bfe83611bb9565b611a29565b82815260059290921b84018101918181019086841115611c2257600080fd5b8286015b84811015611c46578051611c39816118e5565b8352918301918301611c26565b509695505050505050565b60008060408385031215611c6457600080fd5b825167ffffffffffffffff80821115611c7c57600080fd5b818501915085601f830112611c9057600080fd5b81516020611ca0611bfe83611bb9565b82815260059290921b84018101918181019089841115611cbf57600080fd5b948201945b83861015611ced5785518060060b8114611cde5760008081fd5b82529482019490820190611cc4565b91880151919650909350505080821115611d0657600080fd5b50611d1385828601611bdd565b9150509250929050565b600682810b9082900b03667fffffffffffff198112667fffffffffffff82131715610606576106066119ea565b634e487b7160e01b600052601260045260246000fd5b60008160060b8360060b80611d7757611d77611d4a565b667fffffffffffff19821460001982141615611d9557611d956119ea565b90059392505050565b60008260060b80611db157611db1611d4a565b808360060b0791505092915050565b60008160020b627fffff198103611dd957611dd96119ea565b6000190192915050565b8082028115828204841417610606576106066119ea565b80820180821115610606576106066119ea565b600060018201611e1f57611e1f6119ea565b5060010190565b8181036000831280158383131683831282161715611e4657611e466119ea565b5092915050565b600082611e5c57611e5c611d4a565b500490565b805169ffffffffffffffffffff81168114611e7b57600080fd5b919050565b600080600080600060a08688031215611e9857600080fd5b611ea186611e61565b9450602086015193506040860151925060608601519150611ec460808701611e61565b90509295509295909350565b604081526000611ee3604083018561198b565b905082151560208301529392505050565b604081526000611f07604083018561198b565b90508260208301529392505050565b6020815260006106a7602083018461198b565b600060208284031215611f3b57600080fd5b81516106a781611917565b6000600160ff1b8201611f5b57611f5b6119ea565b5060000390565b60008160020b627fffff198103611f7b57611f7b6119ea565b60000392915050565b600082611f9357611f93611d4a565b50069056fea2646970667358221220ada33eafdddc91d61b0aa785194b2eab557279ac4eb189271949e006fa98800564736f6c63430008150033","linkReferences":{}},"methodIdentifiers":{"DISPUTE_BUFFER()":"c1874867","ETH_USD()":"6260f55b","TIMEOUT_EXTENDED()":"8c4c501d","TIMEOUT_LINK()":"40f1a34b","chargeOZLfee()":"8e9cd10c","getLastRewards()":"2cc3eb0a","getOracleBackUp1()":"0b842e3b","getOracleBackUp2()":"f32cabc5","getUnderlyingValue(address)":"97d2ead2","getUniPrice(uint256,uint8)":"3154b6e2","rETH_ETH()":"d4afb73a","rETH_USD()":"f424c4ba","setValuePerOzToken(address,uint256,bool)":"b0ff97b5"},"id":19}