{
  "abi": [
    {
      "inputs": [
        {
          "internalType": "uint256",
          "name": "blockNumber",
          "type": "uint256"
        }
      ],
      "name": "OZError14",
      "type": "error"
    },
    {
      "anonymous": false,
      "inputs": [
        {
          "indexed": false,
          "internalType": "uint256",
          "name": "blockNumber",
          "type": "uint256"
        },
        {
          "indexed": false,
          "internalType": "uint256",
          "name": "totalRewards",
          "type": "uint256"
        },
        {
          "indexed": false,
          "internalType": "uint256",
          "name": "ozelFees",
          "type": "uint256"
        },
        {
          "indexed": false,
          "internalType": "uint256",
          "name": "netUnderlyingValue",
          "type": "uint256"
        }
      ],
      "name": "OZLrewards",
      "type": "event"
    },
    {
      "inputs": [],
      "name": "ETH_USD",
      "outputs": [
        {
          "internalType": "uint256",
          "name": "",
          "type": "uint256"
        }
      ],
      "stateMutability": "view",
      "type": "function"
    },
    {
      "inputs": [],
      "name": "chargeOZLfee",
      "outputs": [
        {
          "internalType": "bool",
          "name": "",
          "type": "bool"
        }
      ],
      "stateMutability": "nonpayable",
      "type": "function"
    },
    {
      "inputs": [],
      "name": "getUnderlyingValue",
      "outputs": [
        {
          "internalType": "uint256",
          "name": "",
          "type": "uint256"
        }
      ],
      "stateMutability": "view",
      "type": "function"
    },
    {
      "inputs": [],
      "name": "rETH_ETH",
      "outputs": [
        {
          "internalType": "uint256",
          "name": "",
          "type": "uint256"
        }
      ],
      "stateMutability": "view",
      "type": "function"
    },
    {
      "inputs": [],
      "name": "rETH_USD",
      "outputs": [
        {
          "internalType": "uint256",
          "name": "",
          "type": "uint256"
        }
      ],
      "stateMutability": "view",
      "type": "function"
    }
  ],
  "bytecode": {
    "object": "0x608060405234801561001057600080fd5b50610860806100206000396000f3fe608060405234801561001057600080fd5b50600436106100575760003560e01c806345089e291461005c5780636260f55b146100775780638e9cd10c1461007f578063d4afb73a14610097578063f424c4ba1461009f575b600080fd5b6100646100a7565b6040519081526020015b60405180910390f35b6100646101e3565b61008761027d565b604051901515815260200161006e565b6100646103f2565b61006461047a565b600a546040516370a0823160e01b815230600482015260009182916001600160a01b03909116906370a0823190602401602060405180830381865afa1580156100f4573d6000803e3d6000fd5b505050506040513d601f19601f82011682018060405250810190610118919061065a565b9050600080600a0160009054906101000a90046001600160a01b03166001600160a01b031663e6aa216c6040518163ffffffff1660e01b8152600401602060405180830381865afa158015610171573d6000803e3d6000fd5b505050506040513d601f19601f82011682018060405250810190610195919061065a565b90506000670de0b6b3a76400006101aa6101e3565b670de0b6b3a76400006101bd8686610689565b6101c791906106a6565b6101d19190610689565b6101db91906106a6565b949350505050565b600080600060070160009054906101000a90046001600160a01b03166001600160a01b031663feaf968c6040518163ffffffff1660e01b815260040160a060405180830381865afa15801561023c573d6000803e3d6000fd5b505050506040513d601f19601f8201168201806040525081019061026091906106e7565b505050915050806402540be4006102779190610689565b91505090565b60006102a4604051806040016040528060048152602001636865726560e01b8152506104b1565b60006102ae6100a7565b90506000805b6001548110156103615760018054829081106102d2576102d2610737565b60009182526020918290200154604080516278744560e21b815290516001600160a01b03909216926301e1d114926004808401938290030181865afa15801561031f573d6000803e3d6000fd5b505050506040513d601f19601f82011682018060405250810190610343919061065a565b61034d908361074d565b91508061035981610760565b9150506102b4565b50601754431161038a5760405163dcfa2bfd60e01b815243600482015260240160405180910390fd5b60006103968284610779565b6018549091506000906103a9908361078c565b9050600081136103be57600094505050505090565b6016546000906103d69062ffffff16836127106104f7565b601884905590506103e681610515565b60019550505050505090565b6000806000600b0160009054906101000a90046001600160a01b03166001600160a01b031663feaf968c6040518163ffffffff1660e01b815260040160a060405180830381865afa15801561044b573d6000803e3d6000fd5b505050506040513d601f19601f8201168201806040525081019061046f91906106e7565b509195945050505050565b6000670de0b6b3a764000061048d6101e3565b6104956103f2565b61049f9190610689565b6104a991906106a6565b600218905090565b6104f4816040516024016104c591906107b3565b60408051601f198184030181529190526020810180516001600160e01b031663104c13eb60e21b179052610639565b50565b600082600019048411830215820261050e57600080fd5b5091020490565b600061052d6127106105256100a7565b8491906104f7565b600a546040516370a0823160e01b81523060048201529192506000916001600160a01b03909116906370a0823190602401602060405180830381865afa15801561057b573d6000803e3d6000fd5b505050506040513d601f19601f8201168201806040525081019061059f919061065a565b905060006105b083836127106104f7565b600a5460165460405163a9059cbb60e01b81526001600160a01b0363010000009092048216600482015260248101849052929350169063a9059cbb906044016020604051808303816000875af115801561060e573d6000803e3d6000fd5b505050506040513d601f19601f820116820180604052508101906106329190610801565b5050505050565b80516a636f6e736f6c652e6c6f67602083016000808483855afa5050505050565b60006020828403121561066c57600080fd5b5051919050565b634e487b7160e01b600052601160045260246000fd5b80820281158282048414176106a0576106a0610673565b92915050565b6000826106c357634e487b7160e01b600052601260045260246000fd5b500490565b805169ffffffffffffffffffff811681146106e257600080fd5b919050565b600080600080600060a086880312156106ff57600080fd5b610708866106c8565b945060208601519350604086015192506060860151915061072b608087016106c8565b90509295509295909350565b634e487b7160e01b600052603260045260246000fd5b808201808211156106a0576106a0610673565b60006001820161077257610772610673565b5060010190565b818103818111156106a0576106a0610673565b81810360008312801583831316838312821617156107ac576107ac610673565b5092915050565b600060208083528351808285015260005b818110156107e0578581018301518582016040015282016107c4565b506000604082860101526040601f19601f8301168501019250505092915050565b60006020828403121561081357600080fd5b8151801515811461082357600080fd5b939250505056fea26469706673582212208bf7244f18ff268cb87687a36adb38a5071ac2d16fca8887960e8004d38470de64736f6c63430008150033",
    "linkReferences": {}
  },
  "methodIdentifiers": {
    "ETH_USD()": "6260f55b",
    "chargeOZLfee()": "8e9cd10c",
    "getUnderlyingValue()": "45089e29",
    "rETH_ETH()": "d4afb73a",
    "rETH_USD()": "f424c4ba"
  },
  "id": 15
}