{"abi":[{"type":"function","name":"DISPUTE_BUFFER","inputs":[],"outputs":[{"name":"","type":"uint256","internalType":"uint256"}],"stateMutability":"view"},{"type":"function","name":"ETH_USD","inputs":[],"outputs":[{"name":"","type":"uint256","internalType":"uint256"}],"stateMutability":"view"},{"type":"function","name":"TIMEOUT_EXTENDED","inputs":[],"outputs":[{"name":"","type":"uint256","internalType":"uint256"}],"stateMutability":"view"},{"type":"function","name":"TIMEOUT_LINK_ETHUSD","inputs":[],"outputs":[{"name":"","type":"uint256","internalType":"uint256"}],"stateMutability":"view"},{"type":"function","name":"chargeOZLfee","inputs":[],"outputs":[{"name":"","type":"bool","internalType":"bool"}],"stateMutability":"nonpayable"},{"type":"function","name":"getLastRewards","inputs":[],"outputs":[{"name":"","type":"tuple","internalType":"struct LastRewards","components":[{"name":"lastBlock","type":"uint256","internalType":"uint256"},{"name":"prevTotalRewards","type":"uint256","internalType":"uint256"}]}],"stateMutability":"view"},{"type":"function","name":"getOracleBackUp1","inputs":[],"outputs":[{"name":"","type":"bool","internalType":"bool"},{"name":"","type":"uint256","internalType":"uint256"}],"stateMutability":"view"},{"type":"function","name":"getOracleBackUp2","inputs":[],"outputs":[{"name":"","type":"bool","internalType":"bool"},{"name":"","type":"uint256","internalType":"uint256"}],"stateMutability":"view"},{"type":"function","name":"getUnderlyingValue","inputs":[{"name":"ozToken_","type":"address","internalType":"address"}],"outputs":[{"name":"","type":"uint256","internalType":"uint256"}],"stateMutability":"view"},{"type":"function","name":"getUniPrice","inputs":[{"name":"tokenPair_","type":"uint256","internalType":"uint256"},{"name":"side_","type":"uint8","internalType":"enum Dir"}],"outputs":[{"name":"","type":"uint256","internalType":"uint256"}],"stateMutability":"view"},{"type":"function","name":"rETH_ETH","inputs":[],"outputs":[{"name":"","type":"uint256","internalType":"uint256"}],"stateMutability":"view"},{"type":"function","name":"rETH_USD","inputs":[],"outputs":[{"name":"","type":"uint256","internalType":"uint256"}],"stateMutability":"view"},{"type":"function","name":"setValuePerOzToken","inputs":[{"name":"ozToken_","type":"address","internalType":"address"},{"name":"amount_","type":"uint256","internalType":"uint256"},{"name":"addOrSub_","type":"bool","internalType":"bool"}],"outputs":[],"stateMutability":"nonpayable"},{"type":"event","name":"APRcalculated","inputs":[{"name":"currAPR","type":"uint256","indexed":true,"internalType":"uint256"},{"name":"prevAPR","type":"uint256","indexed":true,"internalType":"uint256"},{"name":"currentRewardsUSD","type":"uint256","indexed":false,"internalType":"uint256"},{"name":"totalAssets","type":"uint256","indexed":false,"internalType":"uint256"},{"name":"deltaStamp","type":"uint256","indexed":false,"internalType":"uint256"}],"anonymous":false},{"type":"event","name":"OzRewards","inputs":[{"name":"blockNumber","type":"uint256","indexed":false,"internalType":"uint256"},{"name":"ozelFeesInRETH","type":"uint256","indexed":false,"internalType":"uint256"},{"name":"totalRewards","type":"int256","indexed":false,"internalType":"int256"},{"name":"currentRewards","type":"int256","indexed":false,"internalType":"int256"}],"anonymous":false},{"type":"error","name":"OZError14","inputs":[{"name":"blockNumber","type":"uint256","internalType":"uint256"}]},{"type":"error","name":"OZError23","inputs":[{"name":"baseToken","type":"address","internalType":"address"}]}],"bytecode":{"object":"0x608060405234801561001057600080fd5b50611ec6806100206000396000f3fe608060405234801561001057600080fd5b50600436106100cf5760003560e01c806397d2ead21161008c578063d4afb73a11610066578063d4afb73a146101b2578063d6c10168146101ba578063f32cabc5146101c3578063f424c4ba146101cb57600080fd5b806397d2ead214610181578063b0ff97b514610194578063c1874867146101a957600080fd5b80630b842e3b146100d45780632cc3eb0a146100f85780633154b6e2146101365780636260f55b146101575780638c4c501d1461015f5780638e9cd10c14610169575b600080fd5b6100dc6101d3565b6040805192151583526020830191909152015b60405180910390f35b6040805180820182526000808252602091820152815180830183526014548082526015549183019182528351908152905191810191909152016100ef565b61014961014436600461180b565b610332565b6040519081526020016100ef565b610149610629565b6101496201518081565b610171610673565b60405190151581526020016100ef565b61014961018f366004611857565b61088f565b6101a76101a2366004611882565b61095b565b005b61014961038481565b6101496109c7565b61014961384081565b6100dc610a46565b610149610ae4565b60008060006040516020016102199060408082526003908201819052620cae8d60eb1b6060830152608060208301819052820152621d5cd960ea1b60a082015260c00190565b60408051601f1981840301815290829052610236916020016118e8565b60408051601f198184030181529190528051602090910120602354909150600090819081906001600160a01b031663a792765f8561027661038442611951565b6040516001600160e01b031960e085901b16815260048101929092526024820152604401600060405180830381865afa1580156102b7573d6000803e3d6000fd5b505050506040513d6000823e601f3d908101601f191682016040526102df91908101906119ab565b9250925092508215806102fd5750620151806102fb8242611951565b115b1561031057506000958695509350505050565b6001828060200190518101906103269190611a5e565b95509550505050509091565b6000828152602b60209081526040808320815160608101835281546001600160a01b03908116808352600190930154808216838701819052600160a01b90910462ffffff169285018390526022548551630b4c774160e11b8152600481018690526024810183905260448101859052955194969195939488949190931692631698ee82926064808401939192918290030181865afa1580156103d8573d6000803e3d6000fd5b505050506040513d601f19601f820116820180604052508101906103fc9190611a77565b905060008087600181111561041357610413611a94565b146104215762015180610425565b6107085b60408051600280825260608201835262ffffff9390931693506000929091602083019080368337019050509050818160008151811061046657610466611aaa565b602002602001019063ffffffff16908163ffffffff168152505060008160018151811061049557610495611aaa565b63ffffffff9092166020928302919091019091015260405163883bdbfd60e01b81526000906001600160a01b0385169063883bdbfd906104d9908590600401611ac0565b600060405180830381865afa1580156104f6573d6000803e3d6000fd5b505050506040513d6000823e601f3d908101601f1916820160405261051e9190810190611ba2565b50905060008160008151811061053657610536611aaa565b60200260200101518260018151811061055157610551611aaa565b60200260200101516105639190611c6e565b90506000610575600386900b83611cb1565b905060008260060b1280156105995750610593600386900b83611cef565b60060b15155b156105ac57806105a881611d11565b9150505b60006105c282670de0b6b3a76400008c8c610b18565b905060006105de836b033b2e3c9fd0803ce80000008d8d610b18565b6003549091506001600160a01b038b81169116146106015764e8d4a51000610604565b60015b6106159064ffffffffff1682611d34565b9b5050505050505050505050505b92915050565b60075460009081908190610647906001600160a01b03166001610c26565b915091508161066a57600354610665906001600160a01b0316610d61565b61066c565b805b9250505090565b6009546040516370a0823160e01b815230600482015260009182916001600160a01b03909116906370a0823190602401602060405180830381865afa1580156106c0573d6000803e3d6000fd5b505050506040513d601f19601f820116820180604052508101906106e49190611a5e565b90506000805b60015481101561079c57600180548290811061070857610708611aaa565b600091825260209182902060029091020154604080516278744560e21b815290516001600160a01b03909216926301e1d114926004808401938290030181865afa15801561075a573d6000803e3d6000fd5b505050506040513d601f19601f8201168201806040525081019061077e9190611a5e565b6107889083611d4b565b91508061079481611d5e565b9150506106ea565b5060145443116107c65760405163dcfa2bfd60e01b81524360048201526024015b60405180910390fd5b6000806107d38385610eb1565b909250905060006107e48383611d77565b9050600081136107fa5760009550505050505090565b60155460009061080a9083611d77565b905060008113610821576000965050505050505090565b600061082d8383610f1f565b9050610839828761100f565b6040805143815260208101839052908101849052606081018390527fd47935b2f6fd998224fcce47e28065f692a3452b54180fd1e43ba90daf9eb1949060800160405180910390a1600197505050505050505090565b6000806001600160a01b03831630146108c0576001600160a01b03831660009081526021602052604090205461092c565b6009546040516370a0823160e01b81523060048201526001600160a01b03909116906370a0823190602401602060405180830381865afa158015610908573d6000803e3d6000fd5b505050506040513d601f19601f8201168201806040525081019061092c9190611a5e565b9050670de0b6b3a764000081610940610ae4565b61094a9190611d34565b6109549190611d9e565b9392505050565b8015610994576001600160a01b03831660009081526021602052604081208054849290610989908490611d4b565b909155506109c29050565b6001600160a01b038316600090815260216020526040812080548492906109bc908490611951565b90915550505b505050565b600a54600090819081906109e5906001600160a01b03166001610c26565b9150915060006109f6600080610332565b602c54909150610a0d908290849061ffff166110d8565b8015610a165750825b15610a3157610a29633b9aca0082611d9e565b935050505090565b600954610a29906001600160a01b0316610d61565b602454600090819081908190610a65906001600160a01b031682610c26565b60255491935091506000908190610a85906001600160a01b031682610c26565b91509150838015610a935750815b15610ad6576000610ac782670de0b6b3a7640000610ac0876ec097ce7bc90715b34b9f1000000000611d9e565b919061110c565b60019890975095505050505050565b506000958695509350505050565b6000670de0b6b3a7640000610af7610629565b610aff6109c7565b610b099190611d34565b610b139190611d9e565b905090565b600080610b248661112a565b90506001600160801b036001600160a01b03821611610baa576000610b526001600160a01b03831680611d34565b9050836001600160a01b0316856001600160a01b031610610b8a57610b85600160c01b876001600160801b031683611542565b610ba2565b610ba281876001600160801b0316600160c01b611542565b925050610c1d565b6000610bc96001600160a01b0383168068010000000000000000611542565b9050836001600160a01b0316856001600160a01b031610610c0157610bfc600160801b876001600160801b031683611542565b610c19565b610c1981876001600160801b0316600160801b611542565b9250505b50949350505050565b6000806138406402540be40084610c3e576201518091505b600a546001600160a01b0390811690871603610c5e575062015180905060015b6000806000886001600160a01b031663feaf968c6040518163ffffffff1660e01b815260040160a060405180830381865afa158015610ca1573d6000803e3d6000fd5b505050506040513d601f19601f82011682018060405250810190610cc59190611dd1565b50935050925092508269ffffffffffffffffffff166000141580610cf657506024546001600160a01b038a81169116145b8015610d025750600082135b8015610d0d57508015155b8015610d195750428111155b8015610d2e575084610d2b8242611951565b11155b15610d4d576001610d3f8584611d34565b965096505050505050610d5a565b6000809650965050505050505b9250929050565b6003546000906001600160a01b0390811690831603610dd8576000610d8860026000610332565b9050600080610d956101d3565b91509150600080610da4610a46565b91509150838015610db25750815b15610dcd57610dc28584836116b8565b979650505050505050565b509295945050505050565b6009546001600160a01b0390811690831603610e8d576000610dfc60016000610332565b905060008060090160009054906101000a90046001600160a01b03166001600160a01b031663e6aa216c6040518163ffffffff1660e01b8152600401602060405180830381865afa158015610e55573d6000803e3d6000fd5b505050506040513d601f19601f82011682018060405250810190610e799190611a5e565b9050610e858282611725565b949350505050565b60405163715ed81960e01b81526001600160a01b03831660048201526024016107bd565b6000806000610ebe610629565b610ecd8664e8d4a51000611d34565b610edf90670de0b6b3a7640000611d34565b610ee99190611d9e565b90506000670de0b6b3a7640000610efe6109c7565b610f089087611d34565b610f129190611d9e565b9196919550909350505050565b6013546000908190610f43906601000000000000900462ffffff168461271061110c565b601585905590506000610f546109c7565b610f6683670de0b6b3a7640000611d34565b610f709190611d9e565b90506000610f7d82611733565b60095460135460405163a9059cbb60e01b81526001600160a01b0369010000000000000000009092048216600482015260248101849052929350169063a9059cbb906044016020604051808303816000875af1158015610fe1573d6000803e3d6000fd5b505050506040513d601f19601f820116820180604052508101906110059190611e21565b5095945050505050565b602e54602f55602d546000906110259042611951565b90506301e143206000611049611039610629565b8690670de0b6b3a764000061110c565b90506110558383611d9e565b61105f8583611d9e565b6110699190611d34565b611074906064611d34565b61108190620f4240611d34565b602e819055602f5460408051848152602081018890529081018690529091907f24acc7e57080c86685edba47039057e67cc94a5bcdd72b62d5ce227f4eaaa5f29060600160405180910390a3505042602d55505050565b6000806110ed6110e88686611d77565b6117d9565b90506110fc816127108761110c565b8361ffff16119150509392505050565b600082600019048411830215820261112357600080fd5b5091020490565b60008060008360020b12611141578260020b61114e565b8260020b61114e90611e3e565b905061115d620d89e719611e5a565b60020b8111156111935760405162461bcd60e51b81526020600482015260016024820152601560fa1b60448201526064016107bd565b6000816001166000036111aa57600160801b6111bc565b6ffffcb933bd6fad37aa2d162d1a5940015b70ffffffffffffffffffffffffffffffffff16905060028216156111fb5760806111f6826ffff97272373d413259a46990580e213a611d34565b901c90505b6004821615611225576080611220826ffff2e50f5f656932ef12357cf3c7fdcc611d34565b901c90505b600882161561124f57608061124a826fffe5caca7e10e4e61c3624eaa0941cd0611d34565b901c90505b6010821615611279576080611274826fffcb9843d60f6159c9db58835c926644611d34565b901c90505b60208216156112a357608061129e826fff973b41fa98c081472e6896dfb254c0611d34565b901c90505b60408216156112cd5760806112c8826fff2ea16466c96a3843ec78b326b52861611d34565b901c90505b60808216156112f75760806112f2826ffe5dee046a99a2a811c461f1969c3053611d34565b901c90505b61010082161561132257608061131d826ffcbe86c7900a88aedcffc83b479aa3a4611d34565b901c90505b61020082161561134d576080611348826ff987a7253ac413176f2b074cf7815e54611d34565b901c90505b610400821615611378576080611373826ff3392b0822b70005940c7a398e4b70f3611d34565b901c90505b6108008216156113a357608061139e826fe7159475a2c29b7443b29c7fa6e889d9611d34565b901c90505b6110008216156113ce5760806113c9826fd097f3bdfd2022b8845ad8f792aa5825611d34565b901c90505b6120008216156113f95760806113f4826fa9f746462d870fdf8a65dc1f90e061e5611d34565b901c90505b61400082161561142457608061141f826f70d869a156d2a1b890bb3df62baf32f7611d34565b901c90505b61800082161561144f57608061144a826f31be135f97d08fd981231505542fcfa6611d34565b901c90505b6201000082161561147b576080611476826f09aa508b5b7a84e1c677de54f3e99bc9611d34565b901c90505b620200008216156114a65760806114a1826e5d6af8dedb81196699c329225ee604611d34565b901c90505b620400008216156114d05760806114cb826d2216e584f5fa1ea926041bedfe98611d34565b901c90505b620800008216156114f85760806114f3826b048a170391f7dc42444e8fa2611d34565b901c90505b60008460020b13156115135761151081600019611d9e565b90505b61152264010000000082611e7c565b1561152e576001611531565b60005b610e859060ff16602083901c611d4b565b600080806000198587098587029250828110838203039150508060000361157b576000841161157057600080fd5b508290049050610954565b80841161158757600080fd5b6000848688098084039381119092039190506000856115a581611e3e565b169586900495938490049360008190030460010190506115c58184611d34565b9093179260006115d6876003611d34565b60021890506115e58188611d34565b6115f0906002611951565b6115fa9082611d34565b90506116068188611d34565b611611906002611951565b61161b9082611d34565b90506116278188611d34565b611632906002611951565b61163c9082611d34565b90506116488188611d34565b611653906002611951565b61165d9082611d34565b90506116698188611d34565b611674906002611951565b61167e9082611d34565b905061168a8188611d34565b611695906002611951565b61169f9082611d34565b90506116ab8186611d34565b9998505050505050505050565b60008284101580156116ca5750818411155b806116e057508284111580156116e05750818410155b156116ec575082610954565b8383101580156116fc5750818311155b8061171257508383111580156117125750818310155b1561171e575081610954565b5080610954565b6000600261094a8385611d4b565b601f54600090819061175390600160a01b900461ffff168461271061110c565b600954601f5460405163a9059cbb60e01b81526001600160a01b03918216600482015260248101849052929350169063a9059cbb906044016020604051808303816000875af11580156117aa573d6000803e3d6000fd5b505050506040513d601f19601f820116820180604052508101906117ce9190611e21565b506109548184611951565b6000600160ff1b82036117f15750600160ff1b919050565b600082136118075761180282611e3e565b610623565b5090565b6000806040838503121561181e57600080fd5b8235915060208301356002811061183457600080fd5b809150509250929050565b6001600160a01b038116811461185457600080fd5b50565b60006020828403121561186957600080fd5b81356109548161183f565b801515811461185457600080fd5b60008060006060848603121561189757600080fd5b83356118a28161183f565b92506020840135915060408401356118b981611874565b809150509250925092565b60005b838110156118df5781810151838201526020016118c7565b50506000910152565b60408152600960408201526853706f74507269636560b81b606082015260806020820152600082518060808401526119278160a08501602087016118c4565b601f01601f19169190910160a00192915050565b634e487b7160e01b600052601160045260246000fd5b818103818111156106235761062361193b565b634e487b7160e01b600052604160045260246000fd5b604051601f8201601f1916810167ffffffffffffffff811182821017156119a3576119a3611964565b604052919050565b6000806000606084860312156119c057600080fd5b83516119cb81611874565b602085015190935067ffffffffffffffff808211156119e957600080fd5b818601915086601f8301126119fd57600080fd5b815181811115611a0f57611a0f611964565b611a22601f8201601f191660200161197a565b9150808252876020828501011115611a3957600080fd5b611a4a8160208401602086016118c4565b508093505050604084015190509250925092565b600060208284031215611a7057600080fd5b5051919050565b600060208284031215611a8957600080fd5b81516109548161183f565b634e487b7160e01b600052602160045260246000fd5b634e487b7160e01b600052603260045260246000fd5b6020808252825182820181905260009190848201906040850190845b81811015611afe57835163ffffffff1683529284019291840191600101611adc565b50909695505050505050565b600067ffffffffffffffff821115611b2457611b24611964565b5060051b60200190565b600082601f830112611b3f57600080fd5b81516020611b54611b4f83611b0a565b61197a565b82815260059290921b84018101918181019086841115611b7357600080fd5b8286015b84811015611b97578051611b8a8161183f565b8352918301918301611b77565b509695505050505050565b60008060408385031215611bb557600080fd5b825167ffffffffffffffff80821115611bcd57600080fd5b818501915085601f830112611be157600080fd5b81516020611bf1611b4f83611b0a565b82815260059290921b84018101918181019089841115611c1057600080fd5b948201945b83861015611c3e5785518060060b8114611c2f5760008081fd5b82529482019490820190611c15565b91880151919650909350505080821115611c5757600080fd5b50611c6485828601611b2e565b9150509250929050565b600682810b9082900b03667fffffffffffff198112667fffffffffffff821317156106235761062361193b565b634e487b7160e01b600052601260045260246000fd5b60008160060b8360060b80611cc857611cc8611c9b565b667fffffffffffff19821460001982141615611ce657611ce661193b565b90059392505050565b60008260060b80611d0257611d02611c9b565b808360060b0791505092915050565b60008160020b627fffff198103611d2a57611d2a61193b565b6000190192915050565b80820281158282048414176106235761062361193b565b808201808211156106235761062361193b565b600060018201611d7057611d7061193b565b5060010190565b8181036000831280158383131683831282161715611d9757611d9761193b565b5092915050565b600082611dad57611dad611c9b565b500490565b805169ffffffffffffffffffff81168114611dcc57600080fd5b919050565b600080600080600060a08688031215611de957600080fd5b611df286611db2565b9450602086015193506040860151925060608601519150611e1560808701611db2565b90509295509295909350565b600060208284031215611e3357600080fd5b815161095481611874565b6000600160ff1b8201611e5357611e5361193b565b5060000390565b60008160020b627fffff198103611e7357611e7361193b565b60000392915050565b600082611e8b57611e8b611c9b565b50069056fea2646970667358221220516a89fe585093db5da68acd18f2539bfa46730e7de693f8ed53744495aee68764736f6c63430008150033","linkReferences":{}},"methodIdentifiers":{"DISPUTE_BUFFER()":"c1874867","ETH_USD()":"6260f55b","TIMEOUT_EXTENDED()":"8c4c501d","TIMEOUT_LINK_ETHUSD()":"d6c10168","chargeOZLfee()":"8e9cd10c","getLastRewards()":"2cc3eb0a","getOracleBackUp1()":"0b842e3b","getOracleBackUp2()":"f32cabc5","getUnderlyingValue(address)":"97d2ead2","getUniPrice(uint256,uint8)":"3154b6e2","rETH_ETH()":"d4afb73a","rETH_USD()":"f424c4ba","setValuePerOzToken(address,uint256,bool)":"b0ff97b5"},"id":17}