{"abi":[{"type":"function","name":"DISPUTE_BUFFER","inputs":[],"outputs":[{"name":"","type":"uint256","internalType":"uint256"}],"stateMutability":"view"},{"type":"function","name":"ETH_USD","inputs":[],"outputs":[{"name":"","type":"uint256","internalType":"uint256"}],"stateMutability":"view"},{"type":"function","name":"TIMEOUT_EXTENDED","inputs":[],"outputs":[{"name":"","type":"uint256","internalType":"uint256"}],"stateMutability":"view"},{"type":"function","name":"TIMEOUT_LINK_ETHUSD","inputs":[],"outputs":[{"name":"","type":"uint256","internalType":"uint256"}],"stateMutability":"view"},{"type":"function","name":"chargeOZLfee","inputs":[],"outputs":[{"name":"","type":"bool","internalType":"bool"}],"stateMutability":"nonpayable"},{"type":"function","name":"getLastRewards","inputs":[],"outputs":[{"name":"","type":"tuple","internalType":"struct LastRewards","components":[{"name":"lastBlock","type":"uint256","internalType":"uint256"},{"name":"prevTotalRewards","type":"uint256","internalType":"uint256"}]}],"stateMutability":"view"},{"type":"function","name":"getOracleBackUp1","inputs":[],"outputs":[{"name":"","type":"bool","internalType":"bool"},{"name":"","type":"uint256","internalType":"uint256"}],"stateMutability":"view"},{"type":"function","name":"getOracleBackUp2","inputs":[],"outputs":[{"name":"","type":"bool","internalType":"bool"},{"name":"","type":"uint256","internalType":"uint256"}],"stateMutability":"view"},{"type":"function","name":"getUnderlyingValue","inputs":[{"name":"ozToken_","type":"address","internalType":"address"}],"outputs":[{"name":"","type":"uint256","internalType":"uint256"}],"stateMutability":"view"},{"type":"function","name":"getUniPrice","inputs":[{"name":"tokenPair_","type":"uint256","internalType":"uint256"},{"name":"side_","type":"uint8","internalType":"enum Dir"}],"outputs":[{"name":"","type":"uint256","internalType":"uint256"}],"stateMutability":"view"},{"type":"function","name":"rETH_ETH","inputs":[],"outputs":[{"name":"","type":"uint256","internalType":"uint256"}],"stateMutability":"view"},{"type":"function","name":"rETH_USD","inputs":[],"outputs":[{"name":"","type":"uint256","internalType":"uint256"}],"stateMutability":"view"},{"type":"function","name":"recordDeposit","inputs":[{"name":"receiver_","type":"address","internalType":"address"},{"name":"amountETH_","type":"uint256","internalType":"uint256"},{"name":"amountStable_","type":"uint256","internalType":"uint256"}],"outputs":[],"stateMutability":"nonpayable"},{"type":"function","name":"setValuePerOzToken","inputs":[{"name":"ozToken_","type":"address","internalType":"address"},{"name":"amountOutRETH_","type":"uint256","internalType":"uint256"},{"name":"amountOutAUSDC_","type":"uint256","internalType":"uint256"},{"name":"addOrSub_","type":"bool","internalType":"bool"}],"outputs":[],"stateMutability":"nonpayable"},{"type":"event","name":"APRcalculated","inputs":[{"name":"currAPR","type":"uint256","indexed":true,"internalType":"uint256"},{"name":"prevAPR","type":"uint256","indexed":true,"internalType":"uint256"},{"name":"currentRewardsUSD","type":"uint256","indexed":false,"internalType":"uint256"},{"name":"totalAssets","type":"uint256","indexed":false,"internalType":"uint256"},{"name":"deltaStamp","type":"uint256","indexed":false,"internalType":"uint256"}],"anonymous":false},{"type":"event","name":"OzRewards","inputs":[{"name":"blockNumber","type":"uint256","indexed":false,"internalType":"uint256"},{"name":"ozelFeesInRETH","type":"uint256","indexed":false,"internalType":"uint256"},{"name":"totalRewards","type":"int256","indexed":false,"internalType":"int256"},{"name":"currentRewards","type":"int256","indexed":false,"internalType":"int256"}],"anonymous":false},{"type":"error","name":"OZError14","inputs":[{"name":"blockNumber","type":"uint256","internalType":"uint256"}]},{"type":"error","name":"OZError23","inputs":[{"name":"baseToken","type":"address","internalType":"address"}]}],"bytecode":{"object":"0x608060405234801561000f575f80fd5b50611f7c8061001d5f395ff3fe608060405234801561000f575f80fd5b50600436106100e5575f3560e01c8063c187486711610088578063d6c1016811610063578063d6c10168146101ce578063db185e89146101d7578063f32cabc5146101ea578063f424c4ba146101f2575f80fd5b8063c1874867146101a8578063c68ba54c146101b1578063d4afb73a146101c6575f80fd5b80636260f55b116100c35780636260f55b1461016b5780638c4c501d146101735780638e9cd10c1461017d57806397d2ead214610195575f80fd5b80630b842e3b146100e95780632cc3eb0a1461010d5780633154b6e21461014a575b5f80fd5b6100f16101fa565b6040805192151583526020830191909152015b60405180910390f35b6040805180820182525f80825260209182015281518083018352601454808252601554918301918252835190815290519181019190915201610104565b61015d6101583660046118bb565b610351565b604051908152602001610104565b61015d61061e565b61015d6201518081565b610185610667565b6040519015158152602001610104565b61015d6101a3366004611903565b61086a565b61015d61038481565b6101c46101bf36600461191e565b610932565b005b61015d6109eb565b61015d61384081565b6101c46101e536600461195d565b610a6f565b6100f1610b7a565b61015d610c14565b5f805f60405160200161023e9060408082526003908201819052620cae8d60eb1b6060830152608060208301819052820152621d5cd960ea1b60a082015260c00190565b60408051601f198184030181529082905261025b916020016119c6565b60408051601f1981840301815291905280516020909101206024549091505f90819081906001600160a01b031663a792765f8561029a61038442611a2c565b6040516001600160e01b031960e085901b168152600481019290925260248201526044015f60405180830381865afa1580156102d8573d5f803e3d5ffd5b505050506040513d5f823e601f3d908101601f191682016040526102ff9190810190611a84565b92509250925082158061031d57506201518061031b8242611a2c565b115b1561032f57505f958695509350505050565b6001828060200190518101906103459190611b31565b95509550505050509091565b5f828152602c60209081526040808320815160608101835281546001600160a01b03908116808352600190930154808216838701819052600160a01b90910462ffffff169285018390526023548551630b4c774160e11b8152600481018690526024810183905260448101859052955194969195939488949190931692631698ee82926064808401939192918290030181865afa1580156103f4573d5f803e3d5ffd5b505050506040513d601f19601f820116820180604052508101906104189190611b48565b90505f8087600181111561042e5761042e611b63565b1461043c5762093a80610440565b6107085b60408051600280825260608201835262ffffff9390931693505f92909160208301908036833701905050905081815f8151811061047f5761047f611b77565b602002602001019063ffffffff16908163ffffffff16815250505f816001815181106104ad576104ad611b77565b63ffffffff9092166020928302919091019091015260405163883bdbfd60e01b81525f906001600160a01b0385169063883bdbfd906104f0908590600401611b8b565b5f60405180830381865afa15801561050a573d5f803e3d5ffd5b505050506040513d5f823e601f3d908101601f191682016040526105319190810190611c6c565b5090505f815f8151811061054757610547611b77565b60200260200101518260018151811061056257610562611b77565b60200260200101516105749190611d30565b90505f610585600386900b83611d71565b90505f8260060b1280156105a857506105a2600386900b83611dad565b60060b15155b156105bb57806105b781611dce565b9150505b5f6105d4826b033b2e3c9fd0803ce80000008c8c610c47565b6003549091506001600160a01b038a81169116146105f75764e8d4a510006105fa565b60015b61060b9064ffffffffff1682611def565b9a50505050505050505050505b92915050565b6007545f908190819061063b906001600160a01b03166001610d52565b915091508161065e57600354610659906001600160a01b0316610e85565b610660565b805b9250505090565b6009546040516370a0823160e01b81523060048201525f9182916001600160a01b03909116906370a0823190602401602060405180830381865afa1580156106b1573d5f803e3d5ffd5b505050506040513d601f19601f820116820180604052508101906106d59190611b31565b90505f805b60015481101561077f5760018054829081106106f8576106f8611b77565b5f91825260209182902060029091020154604080516278744560e21b815290516001600160a01b03909216926301e1d114926004808401938290030181865afa158015610747573d5f803e3d5ffd5b505050506040513d601f19601f8201168201806040525081019061076b9190611b31565b6107759083611e06565b91506001016106da565b5060145443116107a95760405163dcfa2bfd60e01b81524360048201526024015b60405180910390fd5b5f806107b58385610fe8565b90925090505f6107c58383611e19565b90505f81136107d9575f9550505050505090565b6015545f906107e89083611e19565b90505f81136107fd575f965050505050505090565b5f6108088383611053565b9050610814828761113d565b6040805143815260208101839052908101849052606081018390527fd47935b2f6fd998224fcce47e28065f692a3452b54180fd1e43ba90daf9eb1949060800160405180910390a1600197505050505050505090565b5f806001600160a01b0383163014610899576001600160a01b0383165f90815260216020526040902054610903565b6009546040516370a0823160e01b81523060048201526001600160a01b03909116906370a0823190602401602060405180830381865afa1580156108df573d5f803e3d5ffd5b505050506040513d601f19601f820116820180604052508101906109039190611b31565b9050670de0b6b3a764000081610917610c14565b6109219190611def565b61092b9190611e3f565b9392505050565b6001600160a01b0383165f818152603660209081526040808320815160608101835287815280840187815242938201938452825460018181018555938752948620915160039095029091019384555183820155905160029092019190915560378054918201815582527f42a7b7dd785cd69714a189dffb3fd7d7174edc9ece837694ce50f7078f7c31ae0180546001600160a01b031916909217909155603880548492906109e1908490611e06565b9091555050505050565b600a545f9081908190610a08906001600160a01b03166001610d52565b915091505f633b9aca00610a1c5f80610351565b610a269190611e3f565b602d54909150610a3d908290849061ffff16611204565b8015610a465750825b15610a52579392505050565b600954610a67906001600160a01b0316610e85565b935050505090565b8015610af7576001600160a01b038085165f90815260226020908152604080832060095490941683529290529081208054859290610aae908490611e06565b90915550506001600160a01b038085165f90815260226020908152604080832060335490941683529290529081208054849290610aec908490611e06565b90915550610b749050565b6001600160a01b038085165f90815260226020908152604080832060095490941683529290529081208054859290610b30908490611a2c565b90915550506001600160a01b038085165f90815260226020908152604080832060335490941683529290529081208054849290610b6e908490611a2c565b90915550505b50505050565b6025545f90819081908190610b98906001600160a01b031682610d52565b60265491935091505f908190610bb7906001600160a01b031682610d52565b91509150838015610bc55750815b15610c07575f610bf882670de0b6b3a7640000610bf1876ec097ce7bc90715b34b9f1000000000611e3f565b9190611237565b60019890975095505050505050565b505f958695509350505050565b5f670de0b6b3a7640000610c2661061e565b610c2e6109eb565b610c389190611def565b610c429190611e3f565b905090565b5f80610c5286611252565b90506001600160801b036001600160a01b03821611610cd7575f610c7f6001600160a01b03831680611def565b9050836001600160a01b0316856001600160a01b031610610cb757610cb2600160c01b6001600160801b03881683611663565b610ccf565b610ccf816001600160801b038816600160c01b611663565b925050610d49565b5f610cf56001600160a01b0383168068010000000000000000611663565b9050836001600160a01b0316856001600160a01b031610610d2d57610d28600160801b6001600160801b03881683611663565b610d45565b610d45816001600160801b038816600160801b611663565b9250505b50949350505050565b5f806138406402540be40084610d69576201518091505b600a546001600160a01b0390811690871603610d89575062015180905060015b5f805f886001600160a01b031663feaf968c6040518163ffffffff1660e01b815260040160a060405180830381865afa158015610dc8573d5f803e3d5ffd5b505050506040513d601f19601f82011682018060405250810190610dec9190611e70565b50935050925092508269ffffffffffffffffffff165f141580610e1c57506025546001600160a01b038a81169116145b8015610e2757505f82135b8015610e3257508015155b8015610e3e5750428111155b8015610e53575084610e508242611a2c565b11155b15610e72576001610e648584611def565b965096505050505050610e7e565b5f809650965050505050505b9250929050565b6003545f906001600160a01b0390811690831603610f06575f633b9aca00610eae60025f610351565b610eb89190611e3f565b90505f80610ec46101fa565b915091505f80610ed2610b7a565b91509150838015610ee05750815b15610efb57610ef0858483611770565b979650505050505050565b509295945050505050565b6009546001600160a01b0390811690831603610fc4575f633b9aca00610f2d60015f610351565b610f379190611e3f565b90505f806009015f9054906101000a90046001600160a01b03166001600160a01b031663e6aa216c6040518163ffffffff1660e01b8152600401602060405180830381865afa158015610f8c573d5f803e3d5ffd5b505050506040513d601f19601f82011682018060405250810190610fb09190611b31565b9050610fbc82826117dc565b949350505050565b60405163715ed81960e01b81526001600160a01b03831660048201526024016107a0565b5f805f610ff361061e565b6110028664e8d4a51000611def565b61101490670de0b6b3a7640000611def565b61101e9190611e3f565b90505f670de0b6b3a76400006110326109eb565b61103c9087611def565b6110469190611e3f565b9196919550909350505050565b6013545f908190611076906601000000000000900462ffffff1684612710611237565b601585905590505f6110866109eb565b61109883670de0b6b3a7640000611def565b6110a29190611e3f565b90505f6110ae826117e9565b60095460135460405163a9059cbb60e01b81526001600160a01b0369010000000000000000009092048216600482015260248101849052929350169063a9059cbb906044016020604051808303815f875af115801561110f573d5f803e3d5ffd5b505050506040513d601f19601f820116820180604052508101906111339190611ebc565b5095945050505050565b602f54603055602e545f906111529042611a2c565b90506301e143205f61117561116561061e565b8690670de0b6b3a7640000611237565b90506111818383611e3f565b61118b8583611e3f565b6111959190611def565b6111a0906064611def565b6111ad90620f4240611def565b602f81905560305460408051848152602081018890529081018690529091907f24acc7e57080c86685edba47039057e67cc94a5bcdd72b62d5ce227f4eaaa5f29060600160405180910390a3505042602e55505050565b5f806112186112138686611e19565b61188b565b90506112278161271087611237565b8361ffff16119150509392505050565b5f825f19048411830215820261124b575f80fd5b5091020490565b5f805f8360020b12611267578260020b611274565b8260020b61127490611ed7565b9050611283620d89e719611ef1565b60020b8111156112b95760405162461bcd60e51b81526020600482015260016024820152601560fa1b60448201526064016107a0565b5f816001165f036112ce57600160801b6112e0565b6ffffcb933bd6fad37aa2d162d1a5940015b70ffffffffffffffffffffffffffffffffff169050600282161561131f57608061131a826ffff97272373d413259a46990580e213a611def565b901c90505b6004821615611349576080611344826ffff2e50f5f656932ef12357cf3c7fdcc611def565b901c90505b600882161561137357608061136e826fffe5caca7e10e4e61c3624eaa0941cd0611def565b901c90505b601082161561139d576080611398826fffcb9843d60f6159c9db58835c926644611def565b901c90505b60208216156113c75760806113c2826fff973b41fa98c081472e6896dfb254c0611def565b901c90505b60408216156113f15760806113ec826fff2ea16466c96a3843ec78b326b52861611def565b901c90505b608082161561141b576080611416826ffe5dee046a99a2a811c461f1969c3053611def565b901c90505b610100821615611446576080611441826ffcbe86c7900a88aedcffc83b479aa3a4611def565b901c90505b61020082161561147157608061146c826ff987a7253ac413176f2b074cf7815e54611def565b901c90505b61040082161561149c576080611497826ff3392b0822b70005940c7a398e4b70f3611def565b901c90505b6108008216156114c75760806114c2826fe7159475a2c29b7443b29c7fa6e889d9611def565b901c90505b6110008216156114f25760806114ed826fd097f3bdfd2022b8845ad8f792aa5825611def565b901c90505b61200082161561151d576080611518826fa9f746462d870fdf8a65dc1f90e061e5611def565b901c90505b614000821615611548576080611543826f70d869a156d2a1b890bb3df62baf32f7611def565b901c90505b61800082161561157357608061156e826f31be135f97d08fd981231505542fcfa6611def565b901c90505b6201000082161561159f57608061159a826f09aa508b5b7a84e1c677de54f3e99bc9611def565b901c90505b620200008216156115ca5760806115c5826e5d6af8dedb81196699c329225ee604611def565b901c90505b620400008216156115f45760806115ef826d2216e584f5fa1ea926041bedfe98611def565b901c90505b6208000082161561161c576080611617826b048a170391f7dc42444e8fa2611def565b901c90505b5f8460020b131561163557611632815f19611e3f565b90505b61164464010000000082611f11565b15611650576001611652565b5f5b610fbc9060ff16602083901c611e06565b604051633f9b43b760e11b815260048101849052602481018390525f908190819073__$a7d7f0af96ad7248e2170a1364c3372171$__90637f36876e906044016040805180830381865af41580156116bd573d5f803e3d5ffd5b505050506040513d601f19601f820116820180604052508101906116e19190611f24565b6040516399ed504f60e01b8152600481018390526024810182905260448101879052919350915073__$a7d7f0af96ad7248e2170a1364c3372171$__906399ed504f90606401602060405180830381865af4158015611742573d5f803e3d5ffd5b505050506040513d601f19601f820116820180604052508101906117669190611b31565b9695505050505050565b5f8284101580156117815750818411155b8061179757508284111580156117975750818410155b156117a357508261092b565b8383101580156117b35750818311155b806117c957508383111580156117c95750818310155b156117d557508161092b565b508061092b565b5f60026109218385611e06565b601f545f90819061180890600160a01b900461ffff1684612710611237565b600954601f5460405163a9059cbb60e01b81526001600160a01b03918216600482015260248101849052929350169063a9059cbb906044016020604051808303815f875af115801561185c573d5f803e3d5ffd5b505050506040513d601f19601f820116820180604052508101906118809190611ebc565b5061092b8184611a2c565b5f600160ff1b82036118a25750600160ff1b919050565b5f82136118b7576118b282611ed7565b610618565b5090565b5f80604083850312156118cc575f80fd5b823591506020830135600281106118e1575f80fd5b809150509250929050565b6001600160a01b0381168114611900575f80fd5b50565b5f60208284031215611913575f80fd5b813561092b816118ec565b5f805f60608486031215611930575f80fd5b833561193b816118ec565b95602085013595506040909401359392505050565b8015158114611900575f80fd5b5f805f8060808587031215611970575f80fd5b843561197b816118ec565b93506020850135925060408501359150606085013561199981611950565b939692955090935050565b5f5b838110156119be5781810151838201526020016119a6565b50505f910152565b60408152600960408201526853706f74507269636560b81b6060820152608060208201525f8251806080840152611a048160a08501602087016119a4565b601f01601f19169190910160a00192915050565b634e487b7160e01b5f52601160045260245ffd5b8181038181111561061857610618611a18565b634e487b7160e01b5f52604160045260245ffd5b604051601f8201601f1916810167ffffffffffffffff81118282101715611a7c57611a7c611a3f565b604052919050565b5f805f60608486031215611a96575f80fd5b8351611aa181611950565b602085015190935067ffffffffffffffff80821115611abe575f80fd5b818601915086601f830112611ad1575f80fd5b815181811115611ae357611ae3611a3f565b611af6601f8201601f1916602001611a53565b9150808252876020828501011115611b0c575f80fd5b611b1d8160208401602086016119a4565b508093505050604084015190509250925092565b5f60208284031215611b41575f80fd5b5051919050565b5f60208284031215611b58575f80fd5b815161092b816118ec565b634e487b7160e01b5f52602160045260245ffd5b634e487b7160e01b5f52603260045260245ffd5b602080825282518282018190525f9190848201906040850190845b81811015611bc857835163ffffffff1683529284019291840191600101611ba6565b50909695505050505050565b5f67ffffffffffffffff821115611bed57611bed611a3f565b5060051b60200190565b5f82601f830112611c06575f80fd5b81516020611c1b611c1683611bd4565b611a53565b8083825260208201915060208460051b870101935086841115611c3c575f80fd5b602086015b84811015611c61578051611c54816118ec565b8352918301918301611c41565b509695505050505050565b5f8060408385031215611c7d575f80fd5b825167ffffffffffffffff80821115611c94575f80fd5b818501915085601f830112611ca7575f80fd5b81516020611cb7611c1683611bd4565b82815260059290921b84018101918181019089841115611cd5575f80fd5b948201945b83861015611d015785518060060b8114611cf2575f80fd5b82529482019490820190611cda565b91880151919650909350505080821115611d19575f80fd5b50611d2685828601611bf7565b9150509250929050565b600682810b9082900b03667fffffffffffff198112667fffffffffffff8213171561061857610618611a18565b634e487b7160e01b5f52601260045260245ffd5b5f8160060b8360060b80611d8757611d87611d5d565b667fffffffffffff1982145f1982141615611da457611da4611a18565b90059392505050565b5f8260060b80611dbf57611dbf611d5d565b808360060b0791505092915050565b5f8160020b627fffff198103611de657611de6611a18565b5f190192915050565b808202811582820484141761061857610618611a18565b8082018082111561061857610618611a18565b8181035f831280158383131683831282161715611e3857611e38611a18565b5092915050565b5f82611e4d57611e4d611d5d565b500490565b805169ffffffffffffffffffff81168114611e6b575f80fd5b919050565b5f805f805f60a08688031215611e84575f80fd5b611e8d86611e52565b9450602086015193506040860151925060608601519150611eb060808701611e52565b90509295509295909350565b5f60208284031215611ecc575f80fd5b815161092b81611950565b5f600160ff1b8201611eeb57611eeb611a18565b505f0390565b5f8160020b627fffff198103611f0957611f09611a18565b5f0392915050565b5f82611f1f57611f1f611d5d565b500690565b5f8060408385031215611f35575f80fd5b50508051602090910151909290915056fea264697066735822122008f5b988f1395a734417a8111d63c781137fb3ac26b7ac6ef6e5b04d44c9b44a64736f6c63430008180033","linkReferences":{"contracts/libraries/Uint512.sol":{"Uint512":[{"start":5795,"length":20},{"start":5927,"length":20}]}}},"methodIdentifiers":{"DISPUTE_BUFFER()":"c1874867","ETH_USD()":"6260f55b","TIMEOUT_EXTENDED()":"8c4c501d","TIMEOUT_LINK_ETHUSD()":"d6c10168","chargeOZLfee()":"8e9cd10c","getLastRewards()":"2cc3eb0a","getOracleBackUp1()":"0b842e3b","getOracleBackUp2()":"f32cabc5","getUnderlyingValue(address)":"97d2ead2","getUniPrice(uint256,uint8)":"3154b6e2","rETH_ETH()":"d4afb73a","rETH_USD()":"f424c4ba","recordDeposit(address,uint256,uint256)":"c68ba54c","setValuePerOzToken(address,uint256,uint256,bool)":"db185e89"},"id":17}