{"abi":[{"type":"function","name":"DISPUTE_BUFFER","inputs":[],"outputs":[{"name":"","type":"uint256","internalType":"uint256"}],"stateMutability":"view"},{"type":"function","name":"ETH_USD","inputs":[],"outputs":[{"name":"","type":"uint256","internalType":"uint256"}],"stateMutability":"view"},{"type":"function","name":"TIMEOUT_EXTENDED","inputs":[],"outputs":[{"name":"","type":"uint256","internalType":"uint256"}],"stateMutability":"view"},{"type":"function","name":"TIMEOUT_LINK_ETHUSD","inputs":[],"outputs":[{"name":"","type":"uint256","internalType":"uint256"}],"stateMutability":"view"},{"type":"function","name":"chargeOZLfee","inputs":[],"outputs":[{"name":"","type":"bool","internalType":"bool"}],"stateMutability":"nonpayable"},{"type":"function","name":"executeRebaseSwap","inputs":[],"outputs":[],"stateMutability":"nonpayable"},{"type":"function","name":"getLastRewards","inputs":[],"outputs":[{"name":"","type":"tuple","internalType":"struct LastRewards","components":[{"name":"lastBlock","type":"uint256","internalType":"uint256"},{"name":"prevTotalRewards","type":"uint256","internalType":"uint256"}]}],"stateMutability":"view"},{"type":"function","name":"getOracleBackUp1","inputs":[],"outputs":[{"name":"","type":"bool","internalType":"bool"},{"name":"","type":"uint256","internalType":"uint256"}],"stateMutability":"view"},{"type":"function","name":"getOracleBackUp2","inputs":[],"outputs":[{"name":"","type":"bool","internalType":"bool"},{"name":"","type":"uint256","internalType":"uint256"}],"stateMutability":"view"},{"type":"function","name":"getUnderlyingValue","inputs":[{"name":"ozToken_","type":"address","internalType":"address"}],"outputs":[{"name":"","type":"uint256","internalType":"uint256"}],"stateMutability":"view"},{"type":"function","name":"getUniPrice","inputs":[{"name":"tokenPair_","type":"uint256","internalType":"uint256"},{"name":"side_","type":"uint8","internalType":"enum Dir"}],"outputs":[{"name":"","type":"uint256","internalType":"uint256"}],"stateMutability":"view"},{"type":"function","name":"rETH_ETH","inputs":[],"outputs":[{"name":"","type":"uint256","internalType":"uint256"}],"stateMutability":"view"},{"type":"function","name":"rETH_USD","inputs":[],"outputs":[{"name":"","type":"uint256","internalType":"uint256"}],"stateMutability":"view"},{"type":"function","name":"setValuePerOzToken","inputs":[{"name":"ozToken_","type":"address","internalType":"address"},{"name":"amountOutRETH_","type":"uint256","internalType":"uint256"},{"name":"amountOutAUSDC_","type":"uint256","internalType":"uint256"},{"name":"addOrSub_","type":"bool","internalType":"bool"}],"outputs":[],"stateMutability":"nonpayable"},{"type":"event","name":"APRcalculated","inputs":[{"name":"currAPR","type":"uint256","indexed":true,"internalType":"uint256"},{"name":"prevAPR","type":"uint256","indexed":true,"internalType":"uint256"},{"name":"currentRewardsUSD","type":"uint256","indexed":false,"internalType":"uint256"},{"name":"totalAssets","type":"uint256","indexed":false,"internalType":"uint256"},{"name":"deltaStamp","type":"uint256","indexed":false,"internalType":"uint256"}],"anonymous":false},{"type":"event","name":"OzRewards","inputs":[{"name":"blockNumber","type":"uint256","indexed":false,"internalType":"uint256"},{"name":"ozelFeesInRETH","type":"uint256","indexed":false,"internalType":"uint256"},{"name":"totalRewards","type":"int256","indexed":false,"internalType":"int256"},{"name":"currentRewards","type":"int256","indexed":false,"internalType":"int256"}],"anonymous":false},{"type":"error","name":"OZError14","inputs":[{"name":"blockNumber","type":"uint256","internalType":"uint256"}]},{"type":"error","name":"OZError23","inputs":[{"name":"baseToken","type":"address","internalType":"address"}]}],"bytecode":{"object":"0x608060405234801561000f575f80fd5b506120f28061001d5f395ff3fe608060405234801561000f575f80fd5b50600436106100e5575f3560e01c806397d2ead211610088578063d6c1016811610063578063d6c10168146101c3578063db185e89146101cc578063f32cabc5146101df578063f424c4ba146101e7575f80fd5b806397d2ead21461019f578063c1874867146101b2578063d4afb73a146101bb575f80fd5b80635c0c9cc3116100c35780635c0c9cc31461016b5780636260f55b146101755780638c4c501d1461017d5780638e9cd10c14610187575f80fd5b80630b842e3b146100e95780632cc3eb0a1461010d5780633154b6e21461014a575b5f80fd5b6100f16101ef565b6040805192151583526020830191909152015b60405180910390f35b6040805180820182525f80825260209182015281518083018352601454808252601554918301918252835190815290519181019190915201610104565b61015d610158366004611a28565b610346565b604051908152602001610104565b610173610613565b005b61015d61079a565b61015d6201518081565b61018f6107e3565b6040519015158152602001610104565b61015d6101ad366004611a6d565b6109e1565b61015d61038481565b61015d610aa9565b61015d61384081565b6101736101da366004611a95565b610b2d565b6100f1610c38565b61015d610cd2565b5f805f6040516020016102339060408082526003908201819052620cae8d60eb1b6060830152608060208301819052820152621d5cd960ea1b60a082015260c00190565b60408051601f198184030181529082905261025091602001611b29565b60408051601f1981840301815291905280516020909101206024549091505f90819081906001600160a01b031663a792765f8561028f61038442611b6f565b6040516001600160e01b031960e085901b168152600481019290925260248201526044015f60405180830381865afa1580156102cd573d5f803e3d5ffd5b505050506040513d5f823e601f3d908101601f191682016040526102f49190810190611bc7565b9250925092508215806103125750620151806103108242611b6f565b115b1561032457505f958695509350505050565b60018280602001905181019061033a9190611c74565b95509550505050509091565b5f828152602c60209081526040808320815160608101835281546001600160a01b03908116808352600190930154808216838701819052600160a01b90910462ffffff169285018390526023548551630b4c774160e11b8152600481018690526024810183905260448101859052955194969195939488949190931692631698ee82926064808401939192918290030181865afa1580156103e9573d5f803e3d5ffd5b505050506040513d601f19601f8201168201806040525081019061040d9190611c8b565b90505f8087600181111561042357610423611ca6565b146104315762093a80610435565b6107085b60408051600280825260608201835262ffffff9390931693505f92909160208301908036833701905050905081815f8151811061047457610474611cba565b602002602001019063ffffffff16908163ffffffff16815250505f816001815181106104a2576104a2611cba565b63ffffffff9092166020928302919091019091015260405163883bdbfd60e01b81525f906001600160a01b0385169063883bdbfd906104e5908590600401611cce565b5f60405180830381865afa1580156104ff573d5f803e3d5ffd5b505050506040513d5f823e601f3d908101601f191682016040526105269190810190611daf565b5090505f815f8151811061053c5761053c611cba565b60200260200101518260018151811061055757610557611cba565b60200260200101516105699190611e73565b90505f61057a600386900b83611eb4565b90505f8260060b12801561059d5750610597600386900b83611ef0565b60060b15155b156105b057806105ac81611f11565b9150505b5f6105c9826b033b2e3c9fd0803ce80000008c8c610d05565b6003549091506001600160a01b038a81169116146105ec5764e8d4a510006105ef565b60015b6106009064ffffffffff1682611f32565b9a50505050505050505050505b92915050565b603554603454101561062157565b6009546040516370a0823160e01b81523060048201525f916001600160a01b0316906370a0823190602401602060405180830381865afa158015610667573d5f803e3d5ffd5b505050506040513d601f19601f8201168201806040525081019061068b9190611c74565b90505f6106985f80610346565b90505f6106a65f6001610346565b90506106d36040518060400160405280600a8152602001692d2d2d202a2a202d2d2d60b01b815250610e10565b61070b60405180604001604052806016815260200175037bd2234b0b6b7b7322130b630b731b2a922aa241d160551b81525084610e56565b6107386040518060400160405280600b81526020016a031bab939283934b1b29d160ad1b81525083610e56565b6107656040518060400160405280600b81526020016a0383932bb283934b1b29d160ad1b81525082610e56565b60405162461bcd60e51b8152602060048201526005602482015264686572653360d81b60448201526064015b60405180910390fd5b6007545f90819081906107b7906001600160a01b03166001610e9f565b91509150816107da576003546107d5906001600160a01b0316610fd2565b6107dc565b805b9250505090565b6009546040516370a0823160e01b81523060048201525f9182916001600160a01b03909116906370a0823190602401602060405180830381865afa15801561082d573d5f803e3d5ffd5b505050506040513d601f19601f820116820180604052508101906108519190611c74565b90505f805b6001548110156108fb57600180548290811061087457610874611cba565b5f91825260209182902060029091020154604080516278744560e21b815290516001600160a01b03909216926301e1d114926004808401938290030181865afa1580156108c3573d5f803e3d5ffd5b505050506040513d601f19601f820116820180604052508101906108e79190611c74565b6108f19083611f49565b9150600101610856565b5060145443116109205760405163dcfa2bfd60e01b8152436004820152602401610791565b5f8061092c8385611135565b90925090505f61093c8383611f5c565b90505f8113610950575f9550505050505090565b6015545f9061095f9083611f5c565b90505f8113610974575f965050505050505090565b5f61097f83836111a0565b905061098b828761128a565b6040805143815260208101839052908101849052606081018390527fd47935b2f6fd998224fcce47e28065f692a3452b54180fd1e43ba90daf9eb1949060800160405180910390a1600197505050505050505090565b5f806001600160a01b0383163014610a10576001600160a01b0383165f90815260216020526040902054610a7a565b6009546040516370a0823160e01b81523060048201526001600160a01b03909116906370a0823190602401602060405180830381865afa158015610a56573d5f803e3d5ffd5b505050506040513d601f19601f82011682018060405250810190610a7a9190611c74565b9050670de0b6b3a764000081610a8e610cd2565b610a989190611f32565b610aa29190611f82565b9392505050565b600a545f9081908190610ac6906001600160a01b03166001610e9f565b915091505f633b9aca00610ada5f80610346565b610ae49190611f82565b602d54909150610afb908290849061ffff16611351565b8015610b045750825b15610b10579392505050565b600954610b25906001600160a01b0316610fd2565b935050505090565b8015610bb5576001600160a01b038085165f90815260226020908152604080832060095490941683529290529081208054859290610b6c908490611f49565b90915550506001600160a01b038085165f90815260226020908152604080832060335490941683529290529081208054849290610baa908490611f49565b90915550610c329050565b6001600160a01b038085165f90815260226020908152604080832060095490941683529290529081208054859290610bee908490611b6f565b90915550506001600160a01b038085165f90815260226020908152604080832060335490941683529290529081208054849290610c2c908490611b6f565b90915550505b50505050565b6025545f90819081908190610c56906001600160a01b031682610e9f565b60265491935091505f908190610c75906001600160a01b031682610e9f565b91509150838015610c835750815b15610cc5575f610cb682670de0b6b3a7640000610caf876ec097ce7bc90715b34b9f1000000000611f82565b9190611384565b60019890975095505050505050565b505f958695509350505050565b5f670de0b6b3a7640000610ce461079a565b610cec610aa9565b610cf69190611f32565b610d009190611f82565b905090565b5f80610d108661139f565b90506001600160801b036001600160a01b03821611610d95575f610d3d6001600160a01b03831680611f32565b9050836001600160a01b0316856001600160a01b031610610d7557610d70600160c01b6001600160801b038816836117b0565b610d8d565b610d8d816001600160801b038816600160c01b6117b0565b925050610e07565b5f610db36001600160a01b03831680680100000000000000006117b0565b9050836001600160a01b0316856001600160a01b031610610deb57610de6600160801b6001600160801b038816836117b0565b610e03565b610e03816001600160801b038816600160801b6117b0565b9250505b50949350505050565b610e5381604051602401610e249190611f95565b60408051601f198184030181529190526020810180516001600160e01b031663104c13eb60e21b1790526118bd565b50565b610e9b8282604051602401610e6c929190611fa7565b60408051601f198184030181529190526020810180516001600160e01b03166309710a9d60e41b1790526118bd565b5050565b5f806138406402540be40084610eb6576201518091505b600a546001600160a01b0390811690871603610ed6575062015180905060015b5f805f886001600160a01b031663feaf968c6040518163ffffffff1660e01b815260040160a060405180830381865afa158015610f15573d5f803e3d5ffd5b505050506040513d601f19601f82011682018060405250810190610f399190611fe6565b50935050925092508269ffffffffffffffffffff165f141580610f6957506025546001600160a01b038a81169116145b8015610f7457505f82135b8015610f7f57508015155b8015610f8b5750428111155b8015610fa0575084610f9d8242611b6f565b11155b15610fbf576001610fb18584611f32565b965096505050505050610fcb565b5f809650965050505050505b9250929050565b6003545f906001600160a01b0390811690831603611053575f633b9aca00610ffb60025f610346565b6110059190611f82565b90505f806110116101ef565b915091505f8061101f610c38565b9150915083801561102d5750815b156110485761103d8584836118dd565b979650505050505050565b509295945050505050565b6009546001600160a01b0390811690831603611111575f633b9aca0061107a60015f610346565b6110849190611f82565b90505f806009015f9054906101000a90046001600160a01b03166001600160a01b031663e6aa216c6040518163ffffffff1660e01b8152600401602060405180830381865afa1580156110d9573d5f803e3d5ffd5b505050506040513d601f19601f820116820180604052508101906110fd9190611c74565b90506111098282611949565b949350505050565b60405163715ed81960e01b81526001600160a01b0383166004820152602401610791565b5f805f61114061079a565b61114f8664e8d4a51000611f32565b61116190670de0b6b3a7640000611f32565b61116b9190611f82565b90505f670de0b6b3a764000061117f610aa9565b6111899087611f32565b6111939190611f82565b9196919550909350505050565b6013545f9081906111c3906601000000000000900462ffffff1684612710611384565b601585905590505f6111d3610aa9565b6111e583670de0b6b3a7640000611f32565b6111ef9190611f82565b90505f6111fb82611956565b60095460135460405163a9059cbb60e01b81526001600160a01b0369010000000000000000009092048216600482015260248101849052929350169063a9059cbb906044016020604051808303815f875af115801561125c573d5f803e3d5ffd5b505050506040513d601f19601f820116820180604052508101906112809190612032565b5095945050505050565b602f54603055602e545f9061129f9042611b6f565b90506301e143205f6112c26112b261079a565b8690670de0b6b3a7640000611384565b90506112ce8383611f82565b6112d88583611f82565b6112e29190611f32565b6112ed906064611f32565b6112fa90620f4240611f32565b602f81905560305460408051848152602081018890529081018690529091907f24acc7e57080c86685edba47039057e67cc94a5bcdd72b62d5ce227f4eaaa5f29060600160405180910390a3505042602e55505050565b5f806113656113608686611f5c565b6119f8565b90506113748161271087611384565b8361ffff16119150509392505050565b5f825f190484118302158202611398575f80fd5b5091020490565b5f805f8360020b126113b4578260020b6113c1565b8260020b6113c19061204d565b90506113d0620d89e719612067565b60020b8111156114065760405162461bcd60e51b81526020600482015260016024820152601560fa1b6044820152606401610791565b5f816001165f0361141b57600160801b61142d565b6ffffcb933bd6fad37aa2d162d1a5940015b70ffffffffffffffffffffffffffffffffff169050600282161561146c576080611467826ffff97272373d413259a46990580e213a611f32565b901c90505b6004821615611496576080611491826ffff2e50f5f656932ef12357cf3c7fdcc611f32565b901c90505b60088216156114c05760806114bb826fffe5caca7e10e4e61c3624eaa0941cd0611f32565b901c90505b60108216156114ea5760806114e5826fffcb9843d60f6159c9db58835c926644611f32565b901c90505b602082161561151457608061150f826fff973b41fa98c081472e6896dfb254c0611f32565b901c90505b604082161561153e576080611539826fff2ea16466c96a3843ec78b326b52861611f32565b901c90505b6080821615611568576080611563826ffe5dee046a99a2a811c461f1969c3053611f32565b901c90505b61010082161561159357608061158e826ffcbe86c7900a88aedcffc83b479aa3a4611f32565b901c90505b6102008216156115be5760806115b9826ff987a7253ac413176f2b074cf7815e54611f32565b901c90505b6104008216156115e95760806115e4826ff3392b0822b70005940c7a398e4b70f3611f32565b901c90505b61080082161561161457608061160f826fe7159475a2c29b7443b29c7fa6e889d9611f32565b901c90505b61100082161561163f57608061163a826fd097f3bdfd2022b8845ad8f792aa5825611f32565b901c90505b61200082161561166a576080611665826fa9f746462d870fdf8a65dc1f90e061e5611f32565b901c90505b614000821615611695576080611690826f70d869a156d2a1b890bb3df62baf32f7611f32565b901c90505b6180008216156116c05760806116bb826f31be135f97d08fd981231505542fcfa6611f32565b901c90505b620100008216156116ec5760806116e7826f09aa508b5b7a84e1c677de54f3e99bc9611f32565b901c90505b62020000821615611717576080611712826e5d6af8dedb81196699c329225ee604611f32565b901c90505b6204000082161561174157608061173c826d2216e584f5fa1ea926041bedfe98611f32565b901c90505b62080000821615611769576080611764826b048a170391f7dc42444e8fa2611f32565b901c90505b5f8460020b13156117825761177f815f19611f82565b90505b61179164010000000082612087565b1561179d57600161179f565b5f5b6111099060ff16602083901c611f49565b604051633f9b43b760e11b815260048101849052602481018390525f908190819073__$a7d7f0af96ad7248e2170a1364c3372171$__90637f36876e906044016040805180830381865af415801561180a573d5f803e3d5ffd5b505050506040513d601f19601f8201168201806040525081019061182e919061209a565b6040516399ed504f60e01b8152600481018390526024810182905260448101879052919350915073__$a7d7f0af96ad7248e2170a1364c3372171$__906399ed504f90606401602060405180830381865af415801561188f573d5f803e3d5ffd5b505050506040513d601f19601f820116820180604052508101906118b39190611c74565b9695505050505050565b80516a636f6e736f6c652e6c6f67602083015f808483855afa5050505050565b5f8284101580156118ee5750818411155b8061190457508284111580156119045750818410155b15611910575082610aa2565b8383101580156119205750818311155b8061193657508383111580156119365750818310155b15611942575081610aa2565b5080610aa2565b5f6002610a988385611f49565b601f545f90819061197590600160a01b900461ffff1684612710611384565b600954601f5460405163a9059cbb60e01b81526001600160a01b03918216600482015260248101849052929350169063a9059cbb906044016020604051808303815f875af11580156119c9573d5f803e3d5ffd5b505050506040513d601f19601f820116820180604052508101906119ed9190612032565b50610aa28184611b6f565b5f600160ff1b8203611a0f5750600160ff1b919050565b5f8213611a2457611a1f8261204d565b61060d565b5090565b5f8060408385031215611a39575f80fd5b82359150602083013560028110611a4e575f80fd5b809150509250929050565b6001600160a01b0381168114610e53575f80fd5b5f60208284031215611a7d575f80fd5b8135610aa281611a59565b8015158114610e53575f80fd5b5f805f8060808587031215611aa8575f80fd5b8435611ab381611a59565b935060208501359250604085013591506060850135611ad181611a88565b939692955090935050565b5f5b83811015611af6578181015183820152602001611ade565b50505f910152565b5f8151808452611b15816020860160208601611adc565b601f01601f19169290920160200192915050565b60408152600960408201526853706f74507269636560b81b6060820152608060208201525f610aa26080830184611afe565b634e487b7160e01b5f52601160045260245ffd5b8181038181111561060d5761060d611b5b565b634e487b7160e01b5f52604160045260245ffd5b604051601f8201601f1916810167ffffffffffffffff81118282101715611bbf57611bbf611b82565b604052919050565b5f805f60608486031215611bd9575f80fd5b8351611be481611a88565b602085015190935067ffffffffffffffff80821115611c01575f80fd5b818601915086601f830112611c14575f80fd5b815181811115611c2657611c26611b82565b611c39601f8201601f1916602001611b96565b9150808252876020828501011115611c4f575f80fd5b611c60816020840160208601611adc565b508093505050604084015190509250925092565b5f60208284031215611c84575f80fd5b5051919050565b5f60208284031215611c9b575f80fd5b8151610aa281611a59565b634e487b7160e01b5f52602160045260245ffd5b634e487b7160e01b5f52603260045260245ffd5b602080825282518282018190525f9190848201906040850190845b81811015611d0b57835163ffffffff1683529284019291840191600101611ce9565b50909695505050505050565b5f67ffffffffffffffff821115611d3057611d30611b82565b5060051b60200190565b5f82601f830112611d49575f80fd5b81516020611d5e611d5983611d17565b611b96565b8083825260208201915060208460051b870101935086841115611d7f575f80fd5b602086015b84811015611da4578051611d9781611a59565b8352918301918301611d84565b509695505050505050565b5f8060408385031215611dc0575f80fd5b825167ffffffffffffffff80821115611dd7575f80fd5b818501915085601f830112611dea575f80fd5b81516020611dfa611d5983611d17565b82815260059290921b84018101918181019089841115611e18575f80fd5b948201945b83861015611e445785518060060b8114611e35575f80fd5b82529482019490820190611e1d565b91880151919650909350505080821115611e5c575f80fd5b50611e6985828601611d3a565b9150509250929050565b600682810b9082900b03667fffffffffffff198112667fffffffffffff8213171561060d5761060d611b5b565b634e487b7160e01b5f52601260045260245ffd5b5f8160060b8360060b80611eca57611eca611ea0565b667fffffffffffff1982145f1982141615611ee757611ee7611b5b565b90059392505050565b5f8260060b80611f0257611f02611ea0565b808360060b0791505092915050565b5f8160020b627fffff198103611f2957611f29611b5b565b5f190192915050565b808202811582820484141761060d5761060d611b5b565b8082018082111561060d5761060d611b5b565b8181035f831280158383131683831282161715611f7b57611f7b611b5b565b5092915050565b5f82611f9057611f90611ea0565b500490565b602081525f610aa26020830184611afe565b604081525f611fb96040830185611afe565b90508260208301529392505050565b805169ffffffffffffffffffff81168114611fe1575f80fd5b919050565b5f805f805f60a08688031215611ffa575f80fd5b61200386611fc8565b945060208601519350604086015192506060860151915061202660808701611fc8565b90509295509295909350565b5f60208284031215612042575f80fd5b8151610aa281611a88565b5f600160ff1b820161206157612061611b5b565b505f0390565b5f8160020b627fffff19810361207f5761207f611b5b565b5f0392915050565b5f8261209557612095611ea0565b500690565b5f80604083850312156120ab575f80fd5b50508051602090910151909290915056fea264697066735822122049223b8f1f823b545df7579901d143b0637ab48d5394b7ad6462b5ed82d7e92364736f6c63430008180033","linkReferences":{"contracts/libraries/Uint512.sol":{"Uint512":[{"start":6128,"length":20},{"start":6260,"length":20}]}}},"methodIdentifiers":{"DISPUTE_BUFFER()":"c1874867","ETH_USD()":"6260f55b","TIMEOUT_EXTENDED()":"8c4c501d","TIMEOUT_LINK_ETHUSD()":"d6c10168","chargeOZLfee()":"8e9cd10c","executeRebaseSwap()":"5c0c9cc3","getLastRewards()":"2cc3eb0a","getOracleBackUp1()":"0b842e3b","getOracleBackUp2()":"f32cabc5","getUnderlyingValue(address)":"97d2ead2","getUniPrice(uint256,uint8)":"3154b6e2","rETH_ETH()":"d4afb73a","rETH_USD()":"f424c4ba","setValuePerOzToken(address,uint256,uint256,bool)":"db185e89"},"id":17}