{
  "abi": [
    {
      "inputs": [],
      "name": "ETH_USD",
      "outputs": [
        {
          "internalType": "uint256",
          "name": "",
          "type": "uint256"
        }
      ],
      "stateMutability": "view",
      "type": "function"
    },
    {
      "inputs": [],
      "name": "getUnderlyingValue",
      "outputs": [
        {
          "internalType": "uint256",
          "name": "",
          "type": "uint256"
        }
      ],
      "stateMutability": "view",
      "type": "function"
    },
    {
      "inputs": [],
      "name": "rETH_ETH",
      "outputs": [
        {
          "internalType": "uint256",
          "name": "",
          "type": "uint256"
        }
      ],
      "stateMutability": "view",
      "type": "function"
    }
  ],
  "bytecode": {
    "object": "0x608060405234801561001057600080fd5b50610420806100206000396000f3fe608060405234801561001057600080fd5b50600436106100415760003560e01c806345089e29146100465780636260f55b14610060578063d4afb73a14610068575b600080fd5b61004e610070565b60405190815260200160405180910390f35b61004e610234565b61004e6102bc565b600a546040516370a0823160e01b815230600482015260009182916001600160a01b03909116906370a0823190602401602060405180830381865afa1580156100bd573d6000803e3d6000fd5b505050506040513d601f19601f820116820180604052508101906100e19190610315565b9050600080600a0160009054906101000a90046001600160a01b03166001600160a01b031663e6aa216c6040518163ffffffff1660e01b8152600401602060405180830381865afa15801561013a573d6000803e3d6000fd5b505050506040513d601f19601f8201168201806040525081019061015e9190610315565b905060008060060160009054906101000a90046001600160a01b03166001600160a01b031663feaf968c6040518163ffffffff1660e01b815260040160a060405180830381865afa1580156101b7573d6000803e3d6000fd5b505050506040513d601f19601f820116820180604052508101906101db919061034d565b505050915050670de0b6b3a7640000816402540be4006101fb919061039d565b670de0b6b3a764000061020e868661039d565b61021891906103c8565b610222919061039d565b61022c91906103c8565b935050505090565b600080600060060160009054906101000a90046001600160a01b03166001600160a01b031663feaf968c6040518163ffffffff1660e01b815260040160a060405180830381865afa15801561028d573d6000803e3d6000fd5b505050506040513d601f19601f820116820180604052508101906102b1919061034d565b509195945050505050565b6000806000600c0160009054906101000a90046001600160a01b03166001600160a01b031663feaf968c6040518163ffffffff1660e01b815260040160a060405180830381865afa15801561028d573d6000803e3d6000fd5b60006020828403121561032757600080fd5b5051919050565b805169ffffffffffffffffffff8116811461034857600080fd5b919050565b600080600080600060a0868803121561036557600080fd5b61036e8661032e565b94506020860151935060408601519250606086015191506103916080870161032e565b90509295509295909350565b80820281158282048414176103c257634e487b7160e01b600052601160045260246000fd5b92915050565b6000826103e557634e487b7160e01b600052601260045260246000fd5b50049056fea26469706673582212201b36c067c57663c329c1ec13f0daffea926a66948cbd0deb7fc0af5f2417a47164736f6c63430008150033",
    "linkReferences": {}
  },
  "methodIdentifiers": {
    "ETH_USD()": "6260f55b",
    "getUnderlyingValue()": "45089e29",
    "rETH_ETH()": "d4afb73a"
  },
  "id": 12
}