{
  "abi": [
    {
      "inputs": [
        {
          "internalType": "uint256",
          "name": "blockNumber",
          "type": "uint256"
        }
      ],
      "name": "OZError14",
      "type": "error"
    },
    {
      "anonymous": false,
      "inputs": [
        {
          "indexed": false,
          "internalType": "uint256",
          "name": "blockNumber",
          "type": "uint256"
        },
        {
          "indexed": false,
          "internalType": "uint256",
          "name": "ozelFeesInRETH",
          "type": "uint256"
        },
        {
          "indexed": false,
          "internalType": "int256",
          "name": "totalRewards",
          "type": "int256"
        },
        {
          "indexed": false,
          "internalType": "int256",
          "name": "currentRewards",
          "type": "int256"
        }
      ],
      "name": "OzRewards",
      "type": "event"
    },
    {
      "inputs": [],
      "name": "ETH_USD",
      "outputs": [
        {
          "internalType": "uint256",
          "name": "",
          "type": "uint256"
        }
      ],
      "stateMutability": "view",
      "type": "function"
    },
    {
      "inputs": [],
      "name": "chargeOZLfee",
      "outputs": [
        {
          "internalType": "bool",
          "name": "",
          "type": "bool"
        }
      ],
      "stateMutability": "nonpayable",
      "type": "function"
    },
    {
      "inputs": [],
      "name": "getLastRewards",
      "outputs": [
        {
          "components": [
            {
              "internalType": "uint256",
              "name": "lastBlock",
              "type": "uint256"
            },
            {
              "internalType": "uint256",
              "name": "prevTotalRewards",
              "type": "uint256"
            }
          ],
          "internalType": "struct LastRewards",
          "name": "",
          "type": "tuple"
        }
      ],
      "stateMutability": "view",
      "type": "function"
    },
    {
      "inputs": [
        {
          "internalType": "address",
          "name": "ozToken_",
          "type": "address"
        }
      ],
      "name": "getUnderlyingValue",
      "outputs": [
        {
          "internalType": "uint256",
          "name": "",
          "type": "uint256"
        }
      ],
      "stateMutability": "view",
      "type": "function"
    },
    {
      "inputs": [],
      "name": "getUnderlyingValue2",
      "outputs": [
        {
          "internalType": "uint256",
          "name": "",
          "type": "uint256"
        }
      ],
      "stateMutability": "view",
      "type": "function"
    },
    {
      "inputs": [],
      "name": "rETH_ETH",
      "outputs": [
        {
          "internalType": "uint256",
          "name": "",
          "type": "uint256"
        }
      ],
      "stateMutability": "view",
      "type": "function"
    },
    {
      "inputs": [],
      "name": "rETH_USD",
      "outputs": [
        {
          "internalType": "uint256",
          "name": "",
          "type": "uint256"
        }
      ],
      "stateMutability": "view",
      "type": "function"
    },
    {
      "inputs": [
        {
          "internalType": "address",
          "name": "ozToken_",
          "type": "address"
        },
        {
          "internalType": "uint256",
          "name": "amount_",
          "type": "uint256"
        }
      ],
      "name": "setValuePerOzToken",
      "outputs": [],
      "stateMutability": "nonpayable",
      "type": "function"
    }
  ],
  "bytecode": {
    "object": "0x608060405234801561001057600080fd5b50610c6a806100206000396000f3fe608060405234801561001057600080fd5b50600436106100885760003560e01c806397d2ead21161005b57806397d2ead214610113578063d4afb73a14610126578063e2f6fba11461012e578063f424c4ba1461013657600080fd5b80632cc3eb0a1461008d5780636260f55b146100d05780638e9cd10c146100e65780638f4daf32146100fe575b600080fd5b6040805180820182526000808252602091820152815180830183526016548082526017549183019182528351908152905191810191909152015b60405180910390f35b6100d861013e565b6040519081526020016100c7565b6100ee6101d8565b60405190151581526020016100c7565b61011161010c366004610a2a565b6103e5565b005b6100d8610121366004610a54565b610416565b6100d86105a0565b6100d8610628565b6100d8610761565b600080600060070160009054906101000a90046001600160a01b03166001600160a01b031663feaf968c6040518163ffffffff1660e01b815260040160a060405180830381865afa158015610197573d6000803e3d6000fd5b505050506040513d601f19601f820116820180604052508101906101bb9190610a89565b505050915050806402540be4006101d29190610aef565b91505090565b6009546040516370a0823160e01b815230600482015260009182916001600160a01b03909116906370a0823190602401602060405180830381865afa158015610225573d6000803e3d6000fd5b505050506040513d601f19601f820116820180604052508101906102499190610b06565b90506000805b6001548110156102fc57600180548290811061026d5761026d610b1f565b60009182526020918290200154604080516278744560e21b815290516001600160a01b03909216926301e1d114926004808401938290030181865afa1580156102ba573d6000803e3d6000fd5b505050506040513d601f19601f820116820180604052508101906102de9190610b06565b6102e89083610b35565b9150806102f481610b48565b91505061024f565b5060165443116103255760405163dcfa2bfd60e01b815243600482015260240160405180910390fd5b6000806103328385610798565b909250905060006103438383610b61565b9050600081136103595760009550505050505090565b6017546000906103699083610b61565b905060008113610380576000965050505050505090565b600061038c8383610806565b6040805143815260208101839052908101859052606081018490529091507fd47935b2f6fd998224fcce47e28065f692a3452b54180fd1e43ba90daf9eb1949060800160405180910390a1600197505050505050505090565b6001600160a01b0382166000908152602360205260408120805483929061040d908490610b35565b90915550505050565b6000806001600160a01b0383163014610447576001600160a01b0383166000908152602360205260409020546104b3565b6009546040516370a0823160e01b81523060048201526001600160a01b03909116906370a0823190602401602060405180830381865afa15801561048f573d6000803e3d6000fd5b505050506040513d601f19601f820116820180604052508101906104b39190610b06565b90506104e36040518060400160405280600c81526020016b030b6b7bab73a2932ba341d160a51b815250826108e8565b600954604080516339aa885b60e21b815290516000926001600160a01b03169163e6aa216c9160048083019260209291908290030181865afa15801561052d573d6000803e3d6000fd5b505050506040513d601f19601f820116820180604052508101906105519190610b06565b90506000670de0b6b3a764000061056661013e565b670de0b6b3a76400006105798686610aef565b6105839190610b88565b61058d9190610aef565b6105979190610b88565b95945050505050565b6000806000600a0160009054906101000a90046001600160a01b03166001600160a01b031663feaf968c6040518163ffffffff1660e01b815260040160a060405180830381865afa1580156105f9573d6000803e3d6000fd5b505050506040513d601f19601f8201168201806040525081019061061d9190610a89565b509195945050505050565b6009546040516370a0823160e01b815230600482015260009182916001600160a01b03909116906370a0823190602401602060405180830381865afa158015610675573d6000803e3d6000fd5b505050506040513d601f19601f820116820180604052508101906106999190610b06565b905060008060090160009054906101000a90046001600160a01b03166001600160a01b031663e6aa216c6040518163ffffffff1660e01b8152600401602060405180830381865afa1580156106f2573d6000803e3d6000fd5b505050506040513d601f19601f820116820180604052508101906107169190610b06565b9050670de0b6b3a764000061072961013e565b670de0b6b3a764000061073c8585610aef565b6107469190610b88565b6107509190610aef565b61075a9190610b88565b9250505090565b6000670de0b6b3a764000061077461013e565b61077c6105a0565b6107869190610aef565b6107909190610b88565b600218905090565b60008060006107a561013e565b6107b48664e8d4a51000610aef565b6107c690670de0b6b3a7640000610aef565b6107d09190610b88565b90506000670de0b6b3a76400006107e56105a0565b6107ef9087610aef565b6107f99190610b88565b9196919550909350505050565b60155460009081906108209062ffffff1684612710610931565b6017859055905060006108316105a0565b61084383670de0b6b3a7640000610aef565b61084d9190610b88565b9050600061085a8261094f565b60095460155460405163a9059cbb60e01b81526001600160a01b0363010000009092048216600482015260248101849052929350169063a9059cbb906044016020604051808303816000875af11580156108b8573d6000803e3d6000fd5b505050506040513d601f19601f820116820180604052508101906108dc9190610baa565b50925050505b92915050565b61092d82826040516024016108fe929190610bcc565b60408051601f198184030181529190526020810180516001600160e01b03166309710a9d60e41b1790526109ed565b5050565b600082600019048411830215820261094857600080fd5b5091020490565b600080610960603284612710610931565b60095460215460405163a9059cbb60e01b81526001600160a01b03918216600482015260248101849052929350169063a9059cbb906044016020604051808303816000875af11580156109b7573d6000803e3d6000fd5b505050506040513d601f19601f820116820180604052508101906109db9190610baa565b506109e68184610c21565b9392505050565b80516a636f6e736f6c652e6c6f67602083016000808483855afa5050505050565b80356001600160a01b0381168114610a2557600080fd5b919050565b60008060408385031215610a3d57600080fd5b610a4683610a0e565b946020939093013593505050565b600060208284031215610a6657600080fd5b6109e682610a0e565b805169ffffffffffffffffffff81168114610a2557600080fd5b600080600080600060a08688031215610aa157600080fd5b610aaa86610a6f565b9450602086015193506040860151925060608601519150610acd60808701610a6f565b90509295509295909350565b634e487b7160e01b600052601160045260246000fd5b80820281158282048414176108e2576108e2610ad9565b600060208284031215610b1857600080fd5b5051919050565b634e487b7160e01b600052603260045260246000fd5b808201808211156108e2576108e2610ad9565b600060018201610b5a57610b5a610ad9565b5060010190565b8181036000831280158383131683831282161715610b8157610b81610ad9565b5092915050565b600082610ba557634e487b7160e01b600052601260045260246000fd5b500490565b600060208284031215610bbc57600080fd5b815180151581146109e657600080fd5b604081526000835180604084015260005b81811015610bfa5760208187018101516060868401015201610bdd565b506000606082850101526060601f19601f8301168401019150508260208301529392505050565b818103818111156108e2576108e2610ad956fea2646970667358221220f03b0c1ff5bf23dab9d2be504a6e48cc25c013f85dc0c4dcc29197f77eafdf9264736f6c63430008150033",
    "linkReferences": {}
  },
  "methodIdentifiers": {
    "ETH_USD()": "6260f55b",
    "chargeOZLfee()": "8e9cd10c",
    "getLastRewards()": "2cc3eb0a",
    "getUnderlyingValue(address)": "97d2ead2",
    "getUnderlyingValue2()": "e2f6fba1",
    "rETH_ETH()": "d4afb73a",
    "rETH_USD()": "f424c4ba",
    "setValuePerOzToken(address,uint256)": "8f4daf32"
  },
  "id": 17
}