{
  "abi": [
    {
      "inputs": [],
      "name": "getUnderlyingValue",
      "outputs": [
        {
          "internalType": "uint256",
          "name": "",
          "type": "uint256"
        }
      ],
      "stateMutability": "view",
      "type": "function"
    },
    {
      "inputs": [],
      "name": "rETH_ETH",
      "outputs": [
        {
          "internalType": "uint256",
          "name": "",
          "type": "uint256"
        }
      ],
      "stateMutability": "view",
      "type": "function"
    }
  ],
  "bytecode": {
    "object": "0x608060405234801561001057600080fd5b506103b4806100206000396000f3fe608060405234801561001057600080fd5b50600436106100365760003560e01c806345089e291461003b578063d4afb73a14610055575b600080fd5b61004361005d565b60405190815260200160405180910390f35b610043610221565b600b546040516370a0823160e01b815230600482015260009182916001600160a01b03909116906370a0823190602401602060405180830381865afa1580156100aa573d6000803e3d6000fd5b505050506040513d601f19601f820116820180604052508101906100ce91906102a9565b9050600080600b0160009054906101000a90046001600160a01b03166001600160a01b031663679aefce6040518163ffffffff1660e01b8152600401602060405180830381865afa158015610127573d6000803e3d6000fd5b505050506040513d601f19601f8201168201806040525081019061014b91906102a9565b905060008060060160009054906101000a90046001600160a01b03166001600160a01b031663feaf968c6040518163ffffffff1660e01b815260040160a060405180830381865afa1580156101a4573d6000803e3d6000fd5b505050506040513d601f19601f820116820180604052508101906101c891906102e1565b505050915050670de0b6b3a7640000816402540be4006101e89190610331565b670de0b6b3a76400006101fb8686610331565b610205919061035c565b61020f9190610331565b610219919061035c565b935050505090565b6000806000600c0160009054906101000a90046001600160a01b03166001600160a01b031663feaf968c6040518163ffffffff1660e01b815260040160a060405180830381865afa15801561027a573d6000803e3d6000fd5b505050506040513d601f19601f8201168201806040525081019061029e91906102e1565b509195945050505050565b6000602082840312156102bb57600080fd5b5051919050565b805169ffffffffffffffffffff811681146102dc57600080fd5b919050565b600080600080600060a086880312156102f957600080fd5b610302866102c2565b9450602086015193506040860151925060608601519150610325608087016102c2565b90509295509295909350565b808202811582820484141761035657634e487b7160e01b600052601160045260246000fd5b92915050565b60008261037957634e487b7160e01b600052601260045260246000fd5b50049056fea26469706673582212204f8ed94508c5bfc7ff256a36e4360a6cb44d4797c3a9f84c95ceae57134f1db564736f6c63430008150033",
    "linkReferences": {}
  },
  "methodIdentifiers": {
    "getUnderlyingValue()": "45089e29",
    "rETH_ETH()": "d4afb73a"
  },
  "id": 11
}