{
  "abi": [
    {
      "inputs": [
        {
          "internalType": "uint256",
          "name": "blockNumber",
          "type": "uint256"
        }
      ],
      "name": "OZError14",
      "type": "error"
    },
    {
      "anonymous": false,
      "inputs": [
        {
          "indexed": false,
          "internalType": "uint256",
          "name": "blockNumber",
          "type": "uint256"
        },
        {
          "indexed": false,
          "internalType": "uint256",
          "name": "ozelFeesInRETH",
          "type": "uint256"
        },
        {
          "indexed": false,
          "internalType": "int256",
          "name": "totalRewards",
          "type": "int256"
        },
        {
          "indexed": false,
          "internalType": "int256",
          "name": "currentRewards",
          "type": "int256"
        }
      ],
      "name": "OzRewards",
      "type": "event"
    },
    {
      "inputs": [],
      "name": "ETH_USD",
      "outputs": [
        {
          "internalType": "uint256",
          "name": "",
          "type": "uint256"
        }
      ],
      "stateMutability": "view",
      "type": "function"
    },
    {
      "inputs": [],
      "name": "chargeOZLfee",
      "outputs": [
        {
          "internalType": "bool",
          "name": "",
          "type": "bool"
        }
      ],
      "stateMutability": "nonpayable",
      "type": "function"
    },
    {
      "inputs": [],
      "name": "getLastRewards",
      "outputs": [
        {
          "components": [
            {
              "internalType": "uint256",
              "name": "lastBlock",
              "type": "uint256"
            },
            {
              "internalType": "uint256",
              "name": "prevTotalRewards",
              "type": "uint256"
            }
          ],
          "internalType": "struct LastRewards",
          "name": "",
          "type": "tuple"
        }
      ],
      "stateMutability": "view",
      "type": "function"
    },
    {
      "inputs": [
        {
          "internalType": "address",
          "name": "ozToken_",
          "type": "address"
        }
      ],
      "name": "getUnderlyingValue",
      "outputs": [
        {
          "internalType": "uint256",
          "name": "",
          "type": "uint256"
        }
      ],
      "stateMutability": "view",
      "type": "function"
    },
    {
      "inputs": [],
      "name": "rETH_ETH",
      "outputs": [
        {
          "internalType": "uint256",
          "name": "",
          "type": "uint256"
        }
      ],
      "stateMutability": "view",
      "type": "function"
    },
    {
      "inputs": [],
      "name": "rETH_USD",
      "outputs": [
        {
          "internalType": "uint256",
          "name": "",
          "type": "uint256"
        }
      ],
      "stateMutability": "view",
      "type": "function"
    },
    {
      "inputs": [
        {
          "internalType": "address",
          "name": "ozToken_",
          "type": "address"
        },
        {
          "internalType": "uint256",
          "name": "amountRethOut_",
          "type": "uint256"
        }
      ],
      "name": "setValuePerOzToken",
      "outputs": [],
      "stateMutability": "nonpayable",
      "type": "function"
    }
  ],
  "bytecode": {
    "object": "0x608060405234801561001057600080fd5b50610a3b806100206000396000f3fe608060405234801561001057600080fd5b506004361061007d5760003560e01c80638f4daf321161005b5780638f4daf32146100f357806397d2ead214610108578063d4afb73a1461011b578063f424c4ba1461012357600080fd5b80632cc3eb0a146100825780636260f55b146100c55780638e9cd10c146100db575b600080fd5b6040805180820182526000808252602091820152815180830183526016548082526017549183019182528351908152905191810191909152015b60405180910390f35b6100cd61012b565b6040519081526020016100bc565b6100e36101c5565b60405190151581526020016100bc565b610106610101366004610850565b6103d2565b005b6100cd61011636600461087a565b610403565b6100cd610569565b6100cd6105f1565b600080600060070160009054906101000a90046001600160a01b03166001600160a01b031663feaf968c6040518163ffffffff1660e01b815260040160a060405180830381865afa158015610184573d6000803e3d6000fd5b505050506040513d601f19601f820116820180604052508101906101a891906108af565b505050915050806402540be4006101bf9190610915565b91505090565b6009546040516370a0823160e01b815230600482015260009182916001600160a01b03909116906370a0823190602401602060405180830381865afa158015610212573d6000803e3d6000fd5b505050506040513d601f19601f82011682018060405250810190610236919061092c565b90506000805b6001548110156102e957600180548290811061025a5761025a610945565b60009182526020918290200154604080516278744560e21b815290516001600160a01b03909216926301e1d114926004808401938290030181865afa1580156102a7573d6000803e3d6000fd5b505050506040513d601f19601f820116820180604052508101906102cb919061092c565b6102d5908361095b565b9150806102e18161096e565b91505061023c565b5060165443116103125760405163dcfa2bfd60e01b815243600482015260240160405180910390fd5b60008061031f8385610628565b909250905060006103308383610987565b9050600081136103465760009550505050505090565b6017546000906103569083610987565b90506000811361036d576000965050505050505090565b60006103798383610696565b6040805143815260208101839052908101859052606081018490529091507fd47935b2f6fd998224fcce47e28065f692a3452b54180fd1e43ba90daf9eb1949060800160405180910390a1600197505050505050505090565b6001600160a01b038216600090815260236020526040812080548392906103fa90849061095b565b90915550505050565b6000806001600160a01b0383163014610434576001600160a01b0383166000908152602360205260409020546104a0565b6009546040516370a0823160e01b81523060048201526001600160a01b03909116906370a0823190602401602060405180830381865afa15801561047c573d6000803e3d6000fd5b505050506040513d601f19601f820116820180604052508101906104a0919061092c565b905060008060090160009054906101000a90046001600160a01b03166001600160a01b031663e6aa216c6040518163ffffffff1660e01b8152600401602060405180830381865afa1580156104f9573d6000803e3d6000fd5b505050506040513d601f19601f8201168201806040525081019061051d919061092c565b9050670de0b6b3a764000061053061012b565b670de0b6b3a76400006105438585610915565b61054d91906109ae565b6105579190610915565b61056191906109ae565b949350505050565b6000806000600a0160009054906101000a90046001600160a01b03166001600160a01b031663feaf968c6040518163ffffffff1660e01b815260040160a060405180830381865afa1580156105c2573d6000803e3d6000fd5b505050506040513d601f19601f820116820180604052508101906105e691906108af565b509195945050505050565b6000670de0b6b3a764000061060461012b565b61060c610569565b6106169190610915565b61062091906109ae565b600218905090565b600080600061063561012b565b6106448664e8d4a51000610915565b61065690670de0b6b3a7640000610915565b61066091906109ae565b90506000670de0b6b3a7640000610675610569565b61067f9087610915565b61068991906109ae565b9196919550909350505050565b60155460009081906106b09062ffffff1684612710610778565b6017859055905060006106c1610569565b6106d383670de0b6b3a7640000610915565b6106dd91906109ae565b905060006106ea82610796565b60095460155460405163a9059cbb60e01b81526001600160a01b0363010000009092048216600482015260248101849052929350169063a9059cbb906044016020604051808303816000875af1158015610748573d6000803e3d6000fd5b505050506040513d601f19601f8201168201806040525081019061076c91906109d0565b50925050505b92915050565b600082600019048411830215820261078f57600080fd5b5091020490565b6000806107a7603284612710610778565b60095460215460405163a9059cbb60e01b81526001600160a01b03918216600482015260248101849052929350169063a9059cbb906044016020604051808303816000875af11580156107fe573d6000803e3d6000fd5b505050506040513d601f19601f8201168201806040525081019061082291906109d0565b5061082d81846109f2565b9392505050565b80356001600160a01b038116811461084b57600080fd5b919050565b6000806040838503121561086357600080fd5b61086c83610834565b946020939093013593505050565b60006020828403121561088c57600080fd5b61082d82610834565b805169ffffffffffffffffffff8116811461084b57600080fd5b600080600080600060a086880312156108c757600080fd5b6108d086610895565b94506020860151935060408601519250606086015191506108f360808701610895565b90509295509295909350565b634e487b7160e01b600052601160045260246000fd5b8082028115828204841417610772576107726108ff565b60006020828403121561093e57600080fd5b5051919050565b634e487b7160e01b600052603260045260246000fd5b80820180821115610772576107726108ff565b600060018201610980576109806108ff565b5060010190565b81810360008312801583831316838312821617156109a7576109a76108ff565b5092915050565b6000826109cb57634e487b7160e01b600052601260045260246000fd5b500490565b6000602082840312156109e257600080fd5b8151801515811461082d57600080fd5b81810381811115610772576107726108ff56fea2646970667358221220859db693928888eab4e77c5b2fda61c7901911ecfd1e11f581fe55a54f39312264736f6c63430008150033",
    "linkReferences": {}
  },
  "methodIdentifiers": {
    "ETH_USD()": "6260f55b",
    "chargeOZLfee()": "8e9cd10c",
    "getLastRewards()": "2cc3eb0a",
    "getUnderlyingValue(address)": "97d2ead2",
    "rETH_ETH()": "d4afb73a",
    "rETH_USD()": "f424c4ba",
    "setValuePerOzToken(address,uint256)": "8f4daf32"
  },
  "id": 17
}