{"abi":[{"type":"function","name":"DISPUTE_BUFFER","inputs":[],"outputs":[{"name":"","type":"uint256","internalType":"uint256"}],"stateMutability":"view"},{"type":"function","name":"ETH_USD","inputs":[],"outputs":[{"name":"","type":"uint256","internalType":"uint256"}],"stateMutability":"view"},{"type":"function","name":"TIMEOUT_EXTENDED","inputs":[],"outputs":[{"name":"","type":"uint256","internalType":"uint256"}],"stateMutability":"view"},{"type":"function","name":"TIMEOUT_LINK_ETHUSD","inputs":[],"outputs":[{"name":"","type":"uint256","internalType":"uint256"}],"stateMutability":"view"},{"type":"function","name":"TIMEOUT_LINK_RETHETH","inputs":[],"outputs":[{"name":"","type":"uint256","internalType":"uint256"}],"stateMutability":"view"},{"type":"function","name":"chargeOZLfee","inputs":[],"outputs":[{"name":"","type":"bool","internalType":"bool"}],"stateMutability":"nonpayable"},{"type":"function","name":"getLastRewards","inputs":[],"outputs":[{"name":"","type":"tuple","internalType":"struct LastRewards","components":[{"name":"lastBlock","type":"uint256","internalType":"uint256"},{"name":"prevTotalRewards","type":"uint256","internalType":"uint256"}]}],"stateMutability":"view"},{"type":"function","name":"getOracleBackUp1","inputs":[],"outputs":[{"name":"","type":"bool","internalType":"bool"},{"name":"","type":"uint256","internalType":"uint256"}],"stateMutability":"view"},{"type":"function","name":"getOracleBackUp2","inputs":[],"outputs":[{"name":"","type":"bool","internalType":"bool"},{"name":"","type":"uint256","internalType":"uint256"}],"stateMutability":"view"},{"type":"function","name":"getUnderlyingValue","inputs":[{"name":"ozToken_","type":"address","internalType":"address"}],"outputs":[{"name":"","type":"uint256","internalType":"uint256"}],"stateMutability":"view"},{"type":"function","name":"getUniPrice","inputs":[{"name":"tokenPair_","type":"uint256","internalType":"uint256"},{"name":"side_","type":"uint8","internalType":"enum Dir"}],"outputs":[{"name":"","type":"uint256","internalType":"uint256"}],"stateMutability":"view"},{"type":"function","name":"rETH_ETH","inputs":[],"outputs":[{"name":"","type":"uint256","internalType":"uint256"}],"stateMutability":"view"},{"type":"function","name":"rETH_USD","inputs":[],"outputs":[{"name":"","type":"uint256","internalType":"uint256"}],"stateMutability":"view"},{"type":"function","name":"setValuePerOzToken","inputs":[{"name":"ozToken_","type":"address","internalType":"address"},{"name":"amount_","type":"uint256","internalType":"uint256"},{"name":"addOrSub_","type":"bool","internalType":"bool"}],"outputs":[],"stateMutability":"nonpayable"},{"type":"event","name":"APRcalculated","inputs":[{"name":"currAPR","type":"uint256","indexed":true,"internalType":"uint256"},{"name":"prevAPR","type":"uint256","indexed":true,"internalType":"uint256"},{"name":"currentRewardsUSD","type":"uint256","indexed":false,"internalType":"uint256"},{"name":"totalAssets","type":"uint256","indexed":false,"internalType":"uint256"},{"name":"deltaStamp","type":"uint256","indexed":false,"internalType":"uint256"}],"anonymous":false},{"type":"event","name":"OzRewards","inputs":[{"name":"blockNumber","type":"uint256","indexed":false,"internalType":"uint256"},{"name":"ozelFeesInRETH","type":"uint256","indexed":false,"internalType":"uint256"},{"name":"totalRewards","type":"int256","indexed":false,"internalType":"int256"},{"name":"currentRewards","type":"int256","indexed":false,"internalType":"int256"}],"anonymous":false},{"type":"error","name":"OZError14","inputs":[{"name":"blockNumber","type":"uint256","internalType":"uint256"}]},{"type":"error","name":"OZError23","inputs":[{"name":"baseToken","type":"address","internalType":"address"}]}],"bytecode":{"object":"0x608060405234801561001057600080fd5b50611ec4806100206000396000f3fe608060405234801561001057600080fd5b50600436106100ea5760003560e01c806397d2ead21161008c578063d4afb73a11610066578063d4afb73a146101cd578063d6c10168146101d5578063f32cabc5146101de578063f424c4ba146101e657600080fd5b806397d2ead21461019c578063b0ff97b5146101af578063c1874867146101c457600080fd5b80633154b6e2116100c85780633154b6e2146101695780636260f55b1461017c5780638c4c501d146101135780638e9cd10c1461018457600080fd5b80630b842e3b146100ef57806318087224146101135780632cc3eb0a1461012b575b600080fd5b6100f76101ee565b6040805192151583526020830191909152015b60405180910390f35b61011d6201518081565b60405190815260200161010a565b60408051808201825260008082526020918201528151808301835260145480825260155491830191825283519081529051918101919091520161010a565b61011d610177366004611809565b61034d565b61011d610627565b61018c610671565b604051901515815260200161010a565b61011d6101aa366004611855565b61088d565b6101c26101bd366004611880565b610959565b005b61011d61038481565b61011d6109c5565b61011d61384081565b6100f7610a44565b61011d610ae2565b60008060006040516020016102349060408082526003908201819052620cae8d60eb1b6060830152608060208301819052820152621d5cd960ea1b60a082015260c00190565b60408051601f1981840301815290829052610251916020016118e6565b60408051601f198184030181529190528051602090910120602354909150600090819081906001600160a01b031663a792765f856102916103844261194f565b6040516001600160e01b031960e085901b16815260048101929092526024820152604401600060405180830381865afa1580156102d2573d6000803e3d6000fd5b505050506040513d6000823e601f3d908101601f191682016040526102fa91908101906119a9565b925092509250821580610318575062015180610316824261194f565b115b1561032b57506000958695509350505050565b6001828060200190518101906103419190611a5c565b95509550505050509091565b6000828152602b60209081526040808320815160608101835281546001600160a01b03908116808352600190930154808216838701819052600160a01b90910462ffffff169285018390526022548551630b4c774160e11b8152600481018690526024810183905260448101859052955194969195939488949190931692631698ee82926064808401939192918290030181865afa1580156103f3573d6000803e3d6000fd5b505050506040513d601f19601f820116820180604052508101906104179190611a75565b905060008087600181111561042e5761042e611a92565b1461043c5762015180610440565b6107085b60408051600280825260608201835262ffffff9390931693506000929091602083019080368337019050509050818160008151811061048157610481611aa8565b602002602001019063ffffffff16908163ffffffff16815250506000816001815181106104b0576104b0611aa8565b63ffffffff9092166020928302919091019091015260405163883bdbfd60e01b81526000906001600160a01b0385169063883bdbfd906104f4908590600401611abe565b600060405180830381865afa158015610511573d6000803e3d6000fd5b505050506040513d6000823e601f3d908101601f191682016040526105399190810190611ba0565b50905060008160008151811061055157610551611aa8565b60200260200101518260018151811061056c5761056c611aa8565b602002602001015161057e9190611c6c565b90506000610590600386900b83611caf565b905060008260060b1280156105b457506105ae600386900b83611ced565b60060b15155b156105c757806105c381611d0f565b9150505b60006105dd82670de0b6b3a76400008c8c610b16565b6003549091506001600160a01b038a81169116146106005764e8d4a51000610603565b60015b6106149064ffffffffff1682611d32565b9a50505050505050505050505b92915050565b60075460009081908190610645906001600160a01b03166001610c24565b915091508161066857600354610663906001600160a01b0316610d5f565b61066a565b805b9250505090565b6009546040516370a0823160e01b815230600482015260009182916001600160a01b03909116906370a0823190602401602060405180830381865afa1580156106be573d6000803e3d6000fd5b505050506040513d601f19601f820116820180604052508101906106e29190611a5c565b90506000805b60015481101561079a57600180548290811061070657610706611aa8565b600091825260209182902060029091020154604080516278744560e21b815290516001600160a01b03909216926301e1d114926004808401938290030181865afa158015610758573d6000803e3d6000fd5b505050506040513d601f19601f8201168201806040525081019061077c9190611a5c565b6107869083611d49565b91508061079281611d5c565b9150506106e8565b5060145443116107c45760405163dcfa2bfd60e01b81524360048201526024015b60405180910390fd5b6000806107d18385610eaf565b909250905060006107e28383611d75565b9050600081136107f85760009550505050505090565b6015546000906108089083611d75565b90506000811361081f576000965050505050505090565b600061082b8383610f1d565b9050610837828761100d565b6040805143815260208101839052908101849052606081018390527fd47935b2f6fd998224fcce47e28065f692a3452b54180fd1e43ba90daf9eb1949060800160405180910390a1600197505050505050505090565b6000806001600160a01b03831630146108be576001600160a01b03831660009081526021602052604090205461092a565b6009546040516370a0823160e01b81523060048201526001600160a01b03909116906370a0823190602401602060405180830381865afa158015610906573d6000803e3d6000fd5b505050506040513d601f19601f8201168201806040525081019061092a9190611a5c565b9050670de0b6b3a76400008161093e610ae2565b6109489190611d32565b6109529190611d9c565b9392505050565b8015610992576001600160a01b03831660009081526021602052604081208054849290610987908490611d49565b909155506109c09050565b6001600160a01b038316600090815260216020526040812080548492906109ba90849061194f565b90915550505b505050565b600a54600090819081906109e3906001600160a01b03166001610c24565b9150915060006109f460008061034d565b602c54909150610a0b908290849061ffff166110d6565b8015610a145750825b15610a2f57610a27633b9aca0082611d9c565b935050505090565b600954610a27906001600160a01b0316610d5f565b602454600090819081908190610a63906001600160a01b031682610c24565b60255491935091506000908190610a83906001600160a01b031682610c24565b91509150838015610a915750815b15610ad4576000610ac582670de0b6b3a7640000610abe876ec097ce7bc90715b34b9f1000000000611d9c565b919061110a565b60019890975095505050505050565b506000958695509350505050565b6000670de0b6b3a7640000610af5610627565b610afd6109c5565b610b079190611d32565b610b119190611d9c565b905090565b600080610b2286611128565b90506001600160801b036001600160a01b03821611610ba8576000610b506001600160a01b03831680611d32565b9050836001600160a01b0316856001600160a01b031610610b8857610b83600160c01b876001600160801b031683611540565b610ba0565b610ba081876001600160801b0316600160c01b611540565b925050610c1b565b6000610bc76001600160a01b0383168068010000000000000000611540565b9050836001600160a01b0316856001600160a01b031610610bff57610bfa600160801b876001600160801b031683611540565b610c17565b610c1781876001600160801b0316600160801b611540565b9250505b50949350505050565b6000806138406402540be40084610c3c576201518091505b600a546001600160a01b0390811690871603610c5c575062015180905060015b6000806000886001600160a01b031663feaf968c6040518163ffffffff1660e01b815260040160a060405180830381865afa158015610c9f573d6000803e3d6000fd5b505050506040513d601f19601f82011682018060405250810190610cc39190611dcf565b50935050925092508269ffffffffffffffffffff166000141580610cf457506024546001600160a01b038a81169116145b8015610d005750600082135b8015610d0b57508015155b8015610d175750428111155b8015610d2c575084610d29824261194f565b11155b15610d4b576001610d3d8584611d32565b965096505050505050610d58565b6000809650965050505050505b9250929050565b6003546000906001600160a01b0390811690831603610dd6576000610d866002600061034d565b9050600080610d936101ee565b91509150600080610da2610a44565b91509150838015610db05750815b15610dcb57610dc08584836116b6565b979650505050505050565b509295945050505050565b6009546001600160a01b0390811690831603610e8b576000610dfa6001600061034d565b905060008060090160009054906101000a90046001600160a01b03166001600160a01b031663e6aa216c6040518163ffffffff1660e01b8152600401602060405180830381865afa158015610e53573d6000803e3d6000fd5b505050506040513d601f19601f82011682018060405250810190610e779190611a5c565b9050610e838282611723565b949350505050565b60405163715ed81960e01b81526001600160a01b03831660048201526024016107bb565b6000806000610ebc610627565b610ecb8664e8d4a51000611d32565b610edd90670de0b6b3a7640000611d32565b610ee79190611d9c565b90506000670de0b6b3a7640000610efc6109c5565b610f069087611d32565b610f109190611d9c565b9196919550909350505050565b6013546000908190610f41906601000000000000900462ffffff168461271061110a565b601585905590506000610f526109c5565b610f6483670de0b6b3a7640000611d32565b610f6e9190611d9c565b90506000610f7b82611731565b60095460135460405163a9059cbb60e01b81526001600160a01b0369010000000000000000009092048216600482015260248101849052929350169063a9059cbb906044016020604051808303816000875af1158015610fdf573d6000803e3d6000fd5b505050506040513d601f19601f820116820180604052508101906110039190611e1f565b5095945050505050565b602e54602f55602d54600090611023904261194f565b90506301e143206000611047611037610627565b8690670de0b6b3a764000061110a565b90506110538383611d9c565b61105d8583611d9c565b6110679190611d32565b611072906064611d32565b61107f90620f4240611d32565b602e819055602f5460408051848152602081018890529081018690529091907f24acc7e57080c86685edba47039057e67cc94a5bcdd72b62d5ce227f4eaaa5f29060600160405180910390a3505042602d55505050565b6000806110eb6110e68686611d75565b6117d7565b90506110fa816127108761110a565b8361ffff16119150509392505050565b600082600019048411830215820261112157600080fd5b5091020490565b60008060008360020b1261113f578260020b61114c565b8260020b61114c90611e3c565b905061115b620d89e719611e58565b60020b8111156111915760405162461bcd60e51b81526020600482015260016024820152601560fa1b60448201526064016107bb565b6000816001166000036111a857600160801b6111ba565b6ffffcb933bd6fad37aa2d162d1a5940015b70ffffffffffffffffffffffffffffffffff16905060028216156111f95760806111f4826ffff97272373d413259a46990580e213a611d32565b901c90505b600482161561122357608061121e826ffff2e50f5f656932ef12357cf3c7fdcc611d32565b901c90505b600882161561124d576080611248826fffe5caca7e10e4e61c3624eaa0941cd0611d32565b901c90505b6010821615611277576080611272826fffcb9843d60f6159c9db58835c926644611d32565b901c90505b60208216156112a157608061129c826fff973b41fa98c081472e6896dfb254c0611d32565b901c90505b60408216156112cb5760806112c6826fff2ea16466c96a3843ec78b326b52861611d32565b901c90505b60808216156112f55760806112f0826ffe5dee046a99a2a811c461f1969c3053611d32565b901c90505b61010082161561132057608061131b826ffcbe86c7900a88aedcffc83b479aa3a4611d32565b901c90505b61020082161561134b576080611346826ff987a7253ac413176f2b074cf7815e54611d32565b901c90505b610400821615611376576080611371826ff3392b0822b70005940c7a398e4b70f3611d32565b901c90505b6108008216156113a157608061139c826fe7159475a2c29b7443b29c7fa6e889d9611d32565b901c90505b6110008216156113cc5760806113c7826fd097f3bdfd2022b8845ad8f792aa5825611d32565b901c90505b6120008216156113f75760806113f2826fa9f746462d870fdf8a65dc1f90e061e5611d32565b901c90505b61400082161561142257608061141d826f70d869a156d2a1b890bb3df62baf32f7611d32565b901c90505b61800082161561144d576080611448826f31be135f97d08fd981231505542fcfa6611d32565b901c90505b62010000821615611479576080611474826f09aa508b5b7a84e1c677de54f3e99bc9611d32565b901c90505b620200008216156114a457608061149f826e5d6af8dedb81196699c329225ee604611d32565b901c90505b620400008216156114ce5760806114c9826d2216e584f5fa1ea926041bedfe98611d32565b901c90505b620800008216156114f65760806114f1826b048a170391f7dc42444e8fa2611d32565b901c90505b60008460020b13156115115761150e81600019611d9c565b90505b61152064010000000082611e7a565b1561152c57600161152f565b60005b610e839060ff16602083901c611d49565b6000808060001985870985870292508281108382030391505080600003611579576000841161156e57600080fd5b508290049050610952565b80841161158557600080fd5b6000848688098084039381119092039190506000856115a381611e3c565b169586900495938490049360008190030460010190506115c38184611d32565b9093179260006115d4876003611d32565b60021890506115e38188611d32565b6115ee90600261194f565b6115f89082611d32565b90506116048188611d32565b61160f90600261194f565b6116199082611d32565b90506116258188611d32565b61163090600261194f565b61163a9082611d32565b90506116468188611d32565b61165190600261194f565b61165b9082611d32565b90506116678188611d32565b61167290600261194f565b61167c9082611d32565b90506116888188611d32565b61169390600261194f565b61169d9082611d32565b90506116a98186611d32565b9998505050505050505050565b60008284101580156116c85750818411155b806116de57508284111580156116de5750818410155b156116ea575082610952565b8383101580156116fa5750818311155b8061171057508383111580156117105750818310155b1561171c575081610952565b5080610952565b600060026109488385611d49565b601f54600090819061175190600160a01b900461ffff168461271061110a565b600954601f5460405163a9059cbb60e01b81526001600160a01b03918216600482015260248101849052929350169063a9059cbb906044016020604051808303816000875af11580156117a8573d6000803e3d6000fd5b505050506040513d601f19601f820116820180604052508101906117cc9190611e1f565b50610952818461194f565b6000600160ff1b82036117ef5750600160ff1b919050565b600082136118055761180082611e3c565b610621565b5090565b6000806040838503121561181c57600080fd5b8235915060208301356002811061183257600080fd5b809150509250929050565b6001600160a01b038116811461185257600080fd5b50565b60006020828403121561186757600080fd5b81356109528161183d565b801515811461185257600080fd5b60008060006060848603121561189557600080fd5b83356118a08161183d565b92506020840135915060408401356118b781611872565b809150509250925092565b60005b838110156118dd5781810151838201526020016118c5565b50506000910152565b60408152600960408201526853706f74507269636560b81b606082015260806020820152600082518060808401526119258160a08501602087016118c2565b601f01601f19169190910160a00192915050565b634e487b7160e01b600052601160045260246000fd5b8181038181111561062157610621611939565b634e487b7160e01b600052604160045260246000fd5b604051601f8201601f1916810167ffffffffffffffff811182821017156119a1576119a1611962565b604052919050565b6000806000606084860312156119be57600080fd5b83516119c981611872565b602085015190935067ffffffffffffffff808211156119e757600080fd5b818601915086601f8301126119fb57600080fd5b815181811115611a0d57611a0d611962565b611a20601f8201601f1916602001611978565b9150808252876020828501011115611a3757600080fd5b611a488160208401602086016118c2565b508093505050604084015190509250925092565b600060208284031215611a6e57600080fd5b5051919050565b600060208284031215611a8757600080fd5b81516109528161183d565b634e487b7160e01b600052602160045260246000fd5b634e487b7160e01b600052603260045260246000fd5b6020808252825182820181905260009190848201906040850190845b81811015611afc57835163ffffffff1683529284019291840191600101611ada565b50909695505050505050565b600067ffffffffffffffff821115611b2257611b22611962565b5060051b60200190565b600082601f830112611b3d57600080fd5b81516020611b52611b4d83611b08565b611978565b82815260059290921b84018101918181019086841115611b7157600080fd5b8286015b84811015611b95578051611b888161183d565b8352918301918301611b75565b509695505050505050565b60008060408385031215611bb357600080fd5b825167ffffffffffffffff80821115611bcb57600080fd5b818501915085601f830112611bdf57600080fd5b81516020611bef611b4d83611b08565b82815260059290921b84018101918181019089841115611c0e57600080fd5b948201945b83861015611c3c5785518060060b8114611c2d5760008081fd5b82529482019490820190611c13565b91880151919650909350505080821115611c5557600080fd5b50611c6285828601611b2c565b9150509250929050565b600682810b9082900b03667fffffffffffff198112667fffffffffffff8213171561062157610621611939565b634e487b7160e01b600052601260045260246000fd5b60008160060b8360060b80611cc657611cc6611c99565b667fffffffffffff19821460001982141615611ce457611ce4611939565b90059392505050565b60008260060b80611d0057611d00611c99565b808360060b0791505092915050565b60008160020b627fffff198103611d2857611d28611939565b6000190192915050565b808202811582820484141761062157610621611939565b8082018082111561062157610621611939565b600060018201611d6e57611d6e611939565b5060010190565b8181036000831280158383131683831282161715611d9557611d95611939565b5092915050565b600082611dab57611dab611c99565b500490565b805169ffffffffffffffffffff81168114611dca57600080fd5b919050565b600080600080600060a08688031215611de757600080fd5b611df086611db0565b9450602086015193506040860151925060608601519150611e1360808701611db0565b90509295509295909350565b600060208284031215611e3157600080fd5b815161095281611872565b6000600160ff1b8201611e5157611e51611939565b5060000390565b60008160020b627fffff198103611e7157611e71611939565b60000392915050565b600082611e8957611e89611c99565b50069056fea264697066735822122007e1ee0178397d2d5f2dd58a75ed69b54849d546bbecba1df92805e0c29ed9b064736f6c63430008150033","linkReferences":{}},"methodIdentifiers":{"DISPUTE_BUFFER()":"c1874867","ETH_USD()":"6260f55b","TIMEOUT_EXTENDED()":"8c4c501d","TIMEOUT_LINK_ETHUSD()":"d6c10168","TIMEOUT_LINK_RETHETH()":"18087224","chargeOZLfee()":"8e9cd10c","getLastRewards()":"2cc3eb0a","getOracleBackUp1()":"0b842e3b","getOracleBackUp2()":"f32cabc5","getUnderlyingValue(address)":"97d2ead2","getUniPrice(uint256,uint8)":"3154b6e2","rETH_ETH()":"d4afb73a","rETH_USD()":"f424c4ba","setValuePerOzToken(address,uint256,bool)":"b0ff97b5"},"id":17}