{
  "abi": [
    {
      "inputs": [],
      "name": "ETH_USD",
      "outputs": [
        {
          "internalType": "uint256",
          "name": "",
          "type": "uint256"
        }
      ],
      "stateMutability": "view",
      "type": "function"
    },
    {
      "inputs": [],
      "name": "getUnderlyingValue",
      "outputs": [
        {
          "internalType": "uint256",
          "name": "",
          "type": "uint256"
        }
      ],
      "stateMutability": "view",
      "type": "function"
    },
    {
      "inputs": [],
      "name": "rETH_ETH",
      "outputs": [
        {
          "internalType": "uint256",
          "name": "",
          "type": "uint256"
        }
      ],
      "stateMutability": "view",
      "type": "function"
    },
    {
      "inputs": [],
      "name": "rETH_USD",
      "outputs": [
        {
          "internalType": "uint256",
          "name": "",
          "type": "uint256"
        }
      ],
      "stateMutability": "view",
      "type": "function"
    }
  ],
  "bytecode": {
    "object": "0x608060405234801561001057600080fd5b5061069e806100206000396000f3fe608060405234801561001057600080fd5b506004361061004c5760003560e01c806345089e29146100515780636260f55b1461006b578063d4afb73a14610073578063f424c4ba1461007b575b600080fd5b610059610083565b60405190815260200160405180910390f35b6100596102a0565b61005961033a565b6100596103c2565b600a546040516370a0823160e01b815230600482015260009182916001600160a01b03909116906370a0823190602401602060405180830381865afa1580156100d0573d6000803e3d6000fd5b505050506040513d601f19601f820116820180604052508101906100f491906104e8565b9050600080600a0160009054906101000a90046001600160a01b03166001600160a01b031663e6aa216c6040518163ffffffff1660e01b8152600401602060405180830381865afa15801561014d573d6000803e3d6000fd5b505050506040513d601f19601f8201168201806040525081019061017191906104e8565b90506000670de0b6b3a76400006101866102a0565b670de0b6b3a76400006101998686610517565b6101a39190610534565b6101ad9190610517565b6101b79190610534565b90506000805b60015481101561026a5760018054829081106101db576101db610556565b60009182526020918290200154604080516278744560e21b815290516001600160a01b03909216926301e1d114926004808401938290030181865afa158015610228573d6000803e3d6000fd5b505050506040513d601f19601f8201168201806040525081019061024c91906104e8565b610256908361056c565b9150806102628161057f565b9150506101bd565b508161027b8264e8d4a51000610517565b111561028957509392505050565b600061029583836103f9565b509695505050505050565b600080600060070160009054906101000a90046001600160a01b03166001600160a01b031663feaf968c6040518163ffffffff1660e01b815260040160a060405180830381865afa1580156102f9573d6000803e3d6000fd5b505050506040513d601f19601f8201168201806040525081019061031d91906105b7565b505050915050806402540be4006103349190610517565b91505090565b6000806000600b0160009054906101000a90046001600160a01b03166001600160a01b031663feaf968c6040518163ffffffff1660e01b815260040160a060405180830381865afa158015610393573d6000803e3d6000fd5b505050506040513d601f19601f820116820180604052508101906103b791906105b7565b509195945050505050565b6000670de0b6b3a76400006103d56102a0565b6103dd61033a565b6103e79190610517565b6103f19190610534565b600218905090565b600080610421604051806040016040528060048152602001636865726560e01b815250610463565b600061042d8486610607565b6016549091506000906104489062ffffff16836127106104a9565b905060006104568288610607565b9791965090945050505050565b6104a681604051602401610477919061061a565b60408051601f198184030181529190526020810180516001600160e01b031663104c13eb60e21b1790526104c7565b50565b60008260001904841183021582026104c057600080fd5b5091020490565b80516a636f6e736f6c652e6c6f67602083016000808483855afa5050505050565b6000602082840312156104fa57600080fd5b5051919050565b634e487b7160e01b600052601160045260246000fd5b808202811582820484141761052e5761052e610501565b92915050565b60008261055157634e487b7160e01b600052601260045260246000fd5b500490565b634e487b7160e01b600052603260045260246000fd5b8082018082111561052e5761052e610501565b60006001820161059157610591610501565b5060010190565b805169ffffffffffffffffffff811681146105b257600080fd5b919050565b600080600080600060a086880312156105cf57600080fd5b6105d886610598565b94506020860151935060408601519250606086015191506105fb60808701610598565b90509295509295909350565b8181038181111561052e5761052e610501565b600060208083528351808285015260005b818110156106475785810183015185820160400152820161062b565b506000604082860101526040601f19601f830116850101925050509291505056fea2646970667358221220b384f66c24d4133d579882bc6e5caa92abbd498873673097203bb6eca632879864736f6c63430008150033",
    "linkReferences": {}
  },
  "methodIdentifiers": {
    "ETH_USD()": "6260f55b",
    "getUnderlyingValue()": "45089e29",
    "rETH_ETH()": "d4afb73a",
    "rETH_USD()": "f424c4ba"
  },
  "id": 12
}