{
  "abi": [
    {
      "inputs": [
        {
          "internalType": "uint256",
          "name": "blockNumber",
          "type": "uint256"
        }
      ],
      "name": "OZError14",
      "type": "error"
    },
    {
      "anonymous": false,
      "inputs": [
        {
          "indexed": false,
          "internalType": "uint256",
          "name": "blockNumber",
          "type": "uint256"
        },
        {
          "indexed": false,
          "internalType": "uint256",
          "name": "ozelFeesInRETH",
          "type": "uint256"
        },
        {
          "indexed": false,
          "internalType": "int256",
          "name": "totalRewards",
          "type": "int256"
        },
        {
          "indexed": false,
          "internalType": "int256",
          "name": "currentRewards",
          "type": "int256"
        }
      ],
      "name": "OzRewards",
      "type": "event"
    },
    {
      "inputs": [],
      "name": "ETH_USD",
      "outputs": [
        {
          "internalType": "uint256",
          "name": "",
          "type": "uint256"
        }
      ],
      "stateMutability": "view",
      "type": "function"
    },
    {
      "inputs": [],
      "name": "TIMEOUT",
      "outputs": [
        {
          "internalType": "uint256",
          "name": "",
          "type": "uint256"
        }
      ],
      "stateMutability": "view",
      "type": "function"
    },
    {
      "inputs": [],
      "name": "chargeOZLfee",
      "outputs": [
        {
          "internalType": "bool",
          "name": "",
          "type": "bool"
        }
      ],
      "stateMutability": "nonpayable",
      "type": "function"
    },
    {
      "inputs": [],
      "name": "getLastRewards",
      "outputs": [
        {
          "components": [
            {
              "internalType": "uint256",
              "name": "lastBlock",
              "type": "uint256"
            },
            {
              "internalType": "uint256",
              "name": "prevTotalRewards",
              "type": "uint256"
            }
          ],
          "internalType": "struct LastRewards",
          "name": "",
          "type": "tuple"
        }
      ],
      "stateMutability": "view",
      "type": "function"
    },
    {
      "inputs": [
        {
          "internalType": "address",
          "name": "ozToken_",
          "type": "address"
        }
      ],
      "name": "getUnderlyingValue",
      "outputs": [
        {
          "internalType": "uint256",
          "name": "",
          "type": "uint256"
        }
      ],
      "stateMutability": "view",
      "type": "function"
    },
    {
      "inputs": [],
      "name": "rETH_ETH",
      "outputs": [
        {
          "internalType": "uint256",
          "name": "",
          "type": "uint256"
        }
      ],
      "stateMutability": "view",
      "type": "function"
    },
    {
      "inputs": [],
      "name": "rETH_USD",
      "outputs": [
        {
          "internalType": "uint256",
          "name": "",
          "type": "uint256"
        }
      ],
      "stateMutability": "view",
      "type": "function"
    },
    {
      "inputs": [
        {
          "internalType": "address",
          "name": "ozToken_",
          "type": "address"
        },
        {
          "internalType": "uint256",
          "name": "amount_",
          "type": "uint256"
        },
        {
          "internalType": "bool",
          "name": "addOrSub_",
          "type": "bool"
        }
      ],
      "name": "setValuePerOzToken",
      "outputs": [],
      "stateMutability": "nonpayable",
      "type": "function"
    }
  ],
  "bytecode": {
    "object": "0x608060405234801561001057600080fd5b5061197a806100206000396000f3fe608060405234801561001057600080fd5b50600436106100885760003560e01c8063b0ff97b51161005b578063b0ff97b514610111578063d4afb73a14610126578063f424c4ba1461012e578063f56f48f21461013657600080fd5b80632cc3eb0a1461008d5780636260f55b146100d05780638e9cd10c146100e657806397d2ead2146100fe575b600080fd5b6040805180820182526000808252602091820152815180830183526016548082526017549183019182528351908152905191810191909152015b60405180910390f35b6100d861013f565b6040519081526020016100c7565b6100ee61017a565b60405190151581526020016100c7565b6100d861010c366004611385565b610388565b61012461011f3660046113b0565b6104ee565b005b6100d861055a565b6100d86105e2565b6100d861384081565b6007546000908190819061015b906001600160a01b0316610619565b91509150816101715761016c61072a565b610173565b805b9250505090565b6009546040516370a0823160e01b815230600482015260009182916001600160a01b03909116906370a0823190602401602060405180830381865afa1580156101c7573d6000803e3d6000fd5b505050506040513d601f19601f820116820180604052508101906101eb91906113f2565b90506000805b60015481101561029e57600180548290811061020f5761020f61140b565b60009182526020918290200154604080516278744560e21b815290516001600160a01b03909216926301e1d114926004808401938290030181865afa15801561025c573d6000803e3d6000fd5b505050506040513d601f19601f8201168201806040525081019061028091906113f2565b61028a9083611437565b9150806102968161144a565b9150506101f1565b5060165443116102c85760405163dcfa2bfd60e01b81524360048201526024015b60405180910390fd5b6000806102d5838561081b565b909250905060006102e68383611463565b9050600081136102fc5760009550505050505090565b60175460009061030c9083611463565b905060008113610323576000965050505050505090565b600061032f8383610889565b6040805143815260208101839052908101859052606081018490529091507fd47935b2f6fd998224fcce47e28065f692a3452b54180fd1e43ba90daf9eb1949060800160405180910390a1600197505050505050505090565b6000806001600160a01b03831630146103b9576001600160a01b038316600090815260236020526040902054610425565b6009546040516370a0823160e01b81523060048201526001600160a01b03909116906370a0823190602401602060405180830381865afa158015610401573d6000803e3d6000fd5b505050506040513d601f19601f8201168201806040525081019061042591906113f2565b905060008060090160009054906101000a90046001600160a01b03166001600160a01b031663e6aa216c6040518163ffffffff1660e01b8152600401602060405180830381865afa15801561047e573d6000803e3d6000fd5b505050506040513d601f19601f820116820180604052508101906104a291906113f2565b9050670de0b6b3a76400006104b561013f565b670de0b6b3a76400006104c8858561148a565b6104d291906114b7565b6104dc919061148a565b6104e691906114b7565b949350505050565b8015610527576001600160a01b0383166000908152602360205260408120805484929061051c908490611437565b909155506105559050565b6001600160a01b0383166000908152602360205260408120805484929061054f9084906114cb565b90915550505b505050565b6000806000600a0160009054906101000a90046001600160a01b03166001600160a01b031663feaf968c6040518163ffffffff1660e01b815260040160a060405180830381865afa1580156105b3573d6000803e3d6000fd5b505050506040513d601f19601f820116820180604052508101906105d791906114fd565b509195945050505050565b6000670de0b6b3a76400006105f561013f565b6105fd61055a565b610607919061148a565b61061191906114b7565b600218905090565b6000806000806000856001600160a01b031663feaf968c6040518163ffffffff1660e01b815260040160a060405180830381865afa15801561065f573d6000803e3d6000fd5b505050506040513d601f19601f8201168201806040525081019061068391906114fd565b50935050925092508269ffffffffffffffffffff166000141580156106a85750600082135b80156106b357508015155b80156106bf5750428111155b80156106d657506138406106d382426114cb565b11155b156106f85760016106ec836402540be40061148a565b94509450505050915091565b61071c604051806040016040528060038152602001621b9bdd60ea1b81525061096b565b506000958695509350505050565b6024805460035460048054601354604051630b4c774160e11b81526001600160a01b03948516938101939093529083169482019490945262ffffff909316604484015260009283929190911690631698ee8290606401602060405180830381865afa15801561079d573d6000803e3d6000fd5b505050506040513d601f19601f820116820180604052508101906107c1919061154d565b905060006107d082600a6109b1565b506003546004549192506000916107ff918491670de0b6b3a7640000916001600160a01b039081169116610bf7565b905060006108128264e8d4a5100061148a565b95945050505050565b600080600061082861013f565b6108378664e8d4a5100061148a565b61084990670de0b6b3a764000061148a565b61085391906114b7565b90506000670de0b6b3a764000061086861055a565b610872908761148a565b61087c91906114b7565b9196919550909350505050565b60155460009081906108a39062ffffff1684612710610d05565b6017859055905060006108b461055a565b6108c683670de0b6b3a764000061148a565b6108d091906114b7565b905060006108dd82610d23565b60095460155460405163a9059cbb60e01b81526001600160a01b0363010000009092048216600482015260248101849052929350169063a9059cbb906044016020604051808303816000875af115801561093b573d6000803e3d6000fd5b505050506040513d601f19601f8201168201806040525081019061095f919061156a565b50925050505b92915050565b6109ae8160405160240161097f9190611587565b60408051601f198184030181529190526020810180516001600160e01b031663104c13eb60e21b179052610dc1565b50565b6000808263ffffffff166000036109ef5760405162461bcd60e51b8152602060048201526002602482015261042560f41b60448201526064016102bf565b6040805160028082526060820183526000926020830190803683370190505090508381600081518110610a2457610a2461140b565b602002602001019063ffffffff16908163ffffffff1681525050600081600181518110610a5357610a5361140b565b602002602001019063ffffffff16908163ffffffff1681525050600080866001600160a01b031663883bdbfd846040518263ffffffff1660e01b8152600401610a9c91906115eb565b600060405180830381865afa158015610ab9573d6000803e3d6000fd5b505050506040513d6000823e601f3d908101601f19168201604052610ae191908101906116fe565b91509150600082600081518110610afa57610afa61140b565b602002602001015183600181518110610b1557610b1561140b565b6020026020010151610b2791906117ca565b9050600082600081518110610b3e57610b3e61140b565b602002602001015183600181518110610b5957610b5961140b565b6020026020010151610b6b91906117f7565b9050610b7b600389900b83611817565b965060008260060b128015610b9f5750610b99600389900b83611855565b60060b15155b15610bb25786610bae81611877565b9750505b6000610bcb6001600160a01b0363ffffffff8b1661189a565b9050610be8640100000000600160c01b03602084901b16826118cc565b96505050505050509250929050565b600080610c0386610de2565b90506001600160801b036001600160a01b03821611610c89576000610c316001600160a01b0383168061148a565b9050836001600160a01b0316856001600160a01b031610610c6957610c64600160c01b876001600160801b0316836111fa565b610c81565b610c8181876001600160801b0316600160c01b6111fa565b925050610cfc565b6000610ca86001600160a01b03831680680100000000000000006111fa565b9050836001600160a01b0316856001600160a01b031610610ce057610cdb600160801b876001600160801b0316836111fa565b610cf8565b610cf881876001600160801b0316600160801b6111fa565b9250505b50949350505050565b6000826000190484118302158202610d1c57600080fd5b5091020490565b600080610d34603284612710610d05565b60095460215460405163a9059cbb60e01b81526001600160a01b03918216600482015260248101849052929350169063a9059cbb906044016020604051808303816000875af1158015610d8b573d6000803e3d6000fd5b505050506040513d601f19601f82011682018060405250810190610daf919061156a565b50610dba81846114cb565b9392505050565b80516a636f6e736f6c652e6c6f67602083016000808483855afa5050505050565b60008060008360020b12610df9578260020b610e06565b8260020b610e06906118f2565b9050610e15620d89e71961190e565b60020b811115610e4b5760405162461bcd60e51b81526020600482015260016024820152601560fa1b60448201526064016102bf565b600081600116600003610e6257600160801b610e74565b6ffffcb933bd6fad37aa2d162d1a5940015b70ffffffffffffffffffffffffffffffffff1690506002821615610eb3576080610eae826ffff97272373d413259a46990580e213a61148a565b901c90505b6004821615610edd576080610ed8826ffff2e50f5f656932ef12357cf3c7fdcc61148a565b901c90505b6008821615610f07576080610f02826fffe5caca7e10e4e61c3624eaa0941cd061148a565b901c90505b6010821615610f31576080610f2c826fffcb9843d60f6159c9db58835c92664461148a565b901c90505b6020821615610f5b576080610f56826fff973b41fa98c081472e6896dfb254c061148a565b901c90505b6040821615610f85576080610f80826fff2ea16466c96a3843ec78b326b5286161148a565b901c90505b6080821615610faf576080610faa826ffe5dee046a99a2a811c461f1969c305361148a565b901c90505b610100821615610fda576080610fd5826ffcbe86c7900a88aedcffc83b479aa3a461148a565b901c90505b610200821615611005576080611000826ff987a7253ac413176f2b074cf7815e5461148a565b901c90505b61040082161561103057608061102b826ff3392b0822b70005940c7a398e4b70f361148a565b901c90505b61080082161561105b576080611056826fe7159475a2c29b7443b29c7fa6e889d961148a565b901c90505b611000821615611086576080611081826fd097f3bdfd2022b8845ad8f792aa582561148a565b901c90505b6120008216156110b15760806110ac826fa9f746462d870fdf8a65dc1f90e061e561148a565b901c90505b6140008216156110dc5760806110d7826f70d869a156d2a1b890bb3df62baf32f761148a565b901c90505b618000821615611107576080611102826f31be135f97d08fd981231505542fcfa661148a565b901c90505b6201000082161561113357608061112e826f09aa508b5b7a84e1c677de54f3e99bc961148a565b901c90505b6202000082161561115e576080611159826e5d6af8dedb81196699c329225ee60461148a565b901c90505b62040000821615611188576080611183826d2216e584f5fa1ea926041bedfe9861148a565b901c90505b620800008216156111b05760806111ab826b048a170391f7dc42444e8fa261148a565b901c90505b60008460020b13156111cb576111c8816000196114b7565b90505b6111da64010000000082611930565b156111e65760016111e9565b60005b6104e69060ff16602083901c611437565b6000808060001985870985870292508281108382030391505080600003611233576000841161122857600080fd5b508290049050610dba565b80841161123f57600080fd5b60008486880980840393811190920391905060008561125d816118f2565b1695869004959384900493600081900304600101905061127d818461148a565b90931792600061128e87600361148a565b600218905061129d818861148a565b6112a89060026114cb565b6112b2908261148a565b90506112be818861148a565b6112c99060026114cb565b6112d3908261148a565b90506112df818861148a565b6112ea9060026114cb565b6112f4908261148a565b9050611300818861148a565b61130b9060026114cb565b611315908261148a565b9050611321818861148a565b61132c9060026114cb565b611336908261148a565b9050611342818861148a565b61134d9060026114cb565b611357908261148a565b9050611363818661148a565b9998505050505050505050565b6001600160a01b03811681146109ae57600080fd5b60006020828403121561139757600080fd5b8135610dba81611370565b80151581146109ae57600080fd5b6000806000606084860312156113c557600080fd5b83356113d081611370565b92506020840135915060408401356113e7816113a2565b809150509250925092565b60006020828403121561140457600080fd5b5051919050565b634e487b7160e01b600052603260045260246000fd5b634e487b7160e01b600052601160045260246000fd5b8082018082111561096557610965611421565b60006001820161145c5761145c611421565b5060010190565b818103600083128015838313168383128216171561148357611483611421565b5092915050565b808202811582820484141761096557610965611421565b634e487b7160e01b600052601260045260246000fd5b6000826114c6576114c66114a1565b500490565b8181038181111561096557610965611421565b805169ffffffffffffffffffff811681146114f857600080fd5b919050565b600080600080600060a0868803121561151557600080fd5b61151e866114de565b9450602086015193506040860151925060608601519150611541608087016114de565b90509295509295909350565b60006020828403121561155f57600080fd5b8151610dba81611370565b60006020828403121561157c57600080fd5b8151610dba816113a2565b600060208083528351808285015260005b818110156115b457858101830151858201604001528201611598565b506000604082860101526040601f19601f8301168501019250505092915050565b634e487b7160e01b600052604160045260246000fd5b6020808252825182820181905260009190848201906040850190845b8181101561162957835163ffffffff1683529284019291840191600101611607565b50909695505050505050565b604051601f8201601f1916810167ffffffffffffffff8111828210171561165e5761165e6115d5565b604052919050565b600067ffffffffffffffff821115611680576116806115d5565b5060051b60200190565b600082601f83011261169b57600080fd5b815160206116b06116ab83611666565b611635565b82815260059290921b840181019181810190868411156116cf57600080fd5b8286015b848110156116f35780516116e681611370565b83529183019183016116d3565b509695505050505050565b6000806040838503121561171157600080fd5b825167ffffffffffffffff8082111561172957600080fd5b818501915085601f83011261173d57600080fd5b8151602061174d6116ab83611666565b82815260059290921b8401810191818101908984111561176c57600080fd5b948201945b8386101561179a5785518060060b811461178b5760008081fd5b82529482019490820190611771565b918801519196509093505050808211156117b357600080fd5b506117c08582860161168a565b9150509250929050565b600682810b9082900b03667fffffffffffff198112667fffffffffffff8213171561096557610965611421565b6001600160a01b0382811682821603908082111561148357611483611421565b60008160060b8360060b8061182e5761182e6114a1565b667fffffffffffff1982146000198214161561184c5761184c611421565b90059392505050565b60008260060b80611868576118686114a1565b808360060b0791505092915050565b60008160020b627fffff19810361189057611890611421565b6000190192915050565b6001600160c01b038281168282168181028316929181158285048214176118c3576118c3611421565b50505092915050565b60006001600160c01b03838116806118e6576118e66114a1565b92169190910492915050565b6000600160ff1b820161190757611907611421565b5060000390565b60008160020b627fffff19810361192757611927611421565b60000392915050565b60008261193f5761193f6114a1565b50069056fea2646970667358221220ec7c7c8bd6d83dbef55497e517c9494d38c7accd30d7ccd99fd7e5f73aea22db64736f6c63430008150033",
    "linkReferences": {}
  },
  "methodIdentifiers": {
    "ETH_USD()": "6260f55b",
    "TIMEOUT()": "f56f48f2",
    "chargeOZLfee()": "8e9cd10c",
    "getLastRewards()": "2cc3eb0a",
    "getUnderlyingValue(address)": "97d2ead2",
    "rETH_ETH()": "d4afb73a",
    "rETH_USD()": "f424c4ba",
    "setValuePerOzToken(address,uint256,bool)": "b0ff97b5"
  },
  "id": 17
}