{
  "abi": [
    {
      "inputs": [
        {
          "internalType": "uint256",
          "name": "blockNumber",
          "type": "uint256"
        }
      ],
      "name": "OZError14",
      "type": "error"
    },
    {
      "anonymous": false,
      "inputs": [
        {
          "indexed": false,
          "internalType": "uint256",
          "name": "blockNumber",
          "type": "uint256"
        },
        {
          "indexed": false,
          "internalType": "uint256",
          "name": "ozelFeesInRETH",
          "type": "uint256"
        },
        {
          "indexed": false,
          "internalType": "int256",
          "name": "totalRewards",
          "type": "int256"
        },
        {
          "indexed": false,
          "internalType": "int256",
          "name": "currentRewards",
          "type": "int256"
        }
      ],
      "name": "OzRewards",
      "type": "event"
    },
    {
      "inputs": [],
      "name": "ETH_USD",
      "outputs": [
        {
          "internalType": "uint256",
          "name": "",
          "type": "uint256"
        }
      ],
      "stateMutability": "view",
      "type": "function"
    },
    {
      "inputs": [],
      "name": "chargeOZLfee",
      "outputs": [
        {
          "internalType": "bool",
          "name": "",
          "type": "bool"
        }
      ],
      "stateMutability": "nonpayable",
      "type": "function"
    },
    {
      "inputs": [],
      "name": "getLastRewards",
      "outputs": [
        {
          "components": [
            {
              "internalType": "uint256",
              "name": "lastBlock",
              "type": "uint256"
            },
            {
              "internalType": "uint256",
              "name": "prevTotalRewards",
              "type": "uint256"
            }
          ],
          "internalType": "struct LastRewards",
          "name": "",
          "type": "tuple"
        }
      ],
      "stateMutability": "view",
      "type": "function"
    },
    {
      "inputs": [],
      "name": "getUnderlyingValue",
      "outputs": [
        {
          "internalType": "uint256",
          "name": "",
          "type": "uint256"
        }
      ],
      "stateMutability": "view",
      "type": "function"
    },
    {
      "inputs": [],
      "name": "rETH_ETH",
      "outputs": [
        {
          "internalType": "uint256",
          "name": "",
          "type": "uint256"
        }
      ],
      "stateMutability": "view",
      "type": "function"
    },
    {
      "inputs": [],
      "name": "rETH_USD",
      "outputs": [
        {
          "internalType": "uint256",
          "name": "",
          "type": "uint256"
        }
      ],
      "stateMutability": "view",
      "type": "function"
    }
  ],
  "bytecode": {
    "object": "0x608060405234801561001057600080fd5b50610946806100206000396000f3fe608060405234801561001057600080fd5b50600436106100625760003560e01c80632cc3eb0a1461006757806345089e29146100aa5780636260f55b146100c05780638e9cd10c146100c8578063d4afb73a146100e0578063f424c4ba146100e8575b600080fd5b6040805180820182526000808252602091820152815180830183526017548082526018549183019182528351908152905191810191909152015b60405180910390f35b6100b26100f0565b6040519081526020016100a1565b6100b2610229565b6100d06102c3565b60405190151581526020016100a1565b6100b26104d0565b6100b2610558565b600a546040516370a0823160e01b815230600482015260009182916001600160a01b03909116906370a0823190602401602060405180830381865afa15801561013d573d6000803e3d6000fd5b505050506040513d601f19601f82011682018060405250810190610161919061079b565b9050600080600a0160009054906101000a90046001600160a01b03166001600160a01b031663e6aa216c6040518163ffffffff1660e01b8152600401602060405180830381865afa1580156101ba573d6000803e3d6000fd5b505050506040513d601f19601f820116820180604052508101906101de919061079b565b9050670de0b6b3a76400006101f1610229565b670de0b6b3a764000061020485856107ca565b61020e91906107e1565b61021891906107ca565b61022291906107e1565b9250505090565b600080600060070160009054906101000a90046001600160a01b03166001600160a01b031663feaf968c6040518163ffffffff1660e01b815260040160a060405180830381865afa158015610282573d6000803e3d6000fd5b505050506040513d601f19601f820116820180604052508101906102a69190610822565b505050915050806402540be4006102bd91906107ca565b91505090565b600a546040516370a0823160e01b815230600482015260009182916001600160a01b03909116906370a0823190602401602060405180830381865afa158015610310573d6000803e3d6000fd5b505050506040513d601f19601f82011682018060405250810190610334919061079b565b90506000805b6001548110156103e757600180548290811061035857610358610872565b60009182526020918290200154604080516278744560e21b815290516001600160a01b03909216926301e1d114926004808401938290030181865afa1580156103a5573d6000803e3d6000fd5b505050506040513d601f19601f820116820180604052508101906103c9919061079b565b6103d39083610888565b9150806103df8161089b565b91505061033a565b5060175443116104105760405163dcfa2bfd60e01b815243600482015260240160405180910390fd5b60008061041d838561058f565b9092509050600061042e83836108b4565b9050600081136104445760009550505050505090565b60185460009061045490836108b4565b90506000811361046b576000965050505050505090565b600061047783836105fd565b6040805143815260208101839052908101859052606081018490529091507fd47935b2f6fd998224fcce47e28065f692a3452b54180fd1e43ba90daf9eb1949060800160405180910390a1600197505050505050505090565b6000806000600b0160009054906101000a90046001600160a01b03166001600160a01b031663feaf968c6040518163ffffffff1660e01b815260040160a060405180830381865afa158015610529573d6000803e3d6000fd5b505050506040513d601f19601f8201168201806040525081019061054d9190610822565b509195945050505050565b6000670de0b6b3a764000061056b610229565b6105736104d0565b61057d91906107ca565b61058791906107e1565b600218905090565b600080600061059c610229565b6105ab8664e8d4a510006107ca565b6105bd90670de0b6b3a76400006107ca565b6105c791906107e1565b90506000670de0b6b3a76400006105dc6104d0565b6105e690876107ca565b6105f091906107e1565b9196919550909350505050565b60165460009081906106179062ffffff16846127106106df565b6018859055905060006106286104d0565b61063a83670de0b6b3a76400006107ca565b61064491906107e1565b90506000610651826106fd565b600a5460165460405163a9059cbb60e01b81526001600160a01b0363010000009092048216600482015260248101849052929350169063a9059cbb906044016020604051808303816000875af11580156106af573d6000803e3d6000fd5b505050506040513d601f19601f820116820180604052508101906106d391906108db565b50925050505b92915050565b60008260001904841183021582026106f657600080fd5b5091020490565b60008061070e6032846127106106df565b600a5460205460405163a9059cbb60e01b81526001600160a01b03918216600482015260248101849052929350169063a9059cbb906044016020604051808303816000875af1158015610765573d6000803e3d6000fd5b505050506040513d601f19601f8201168201806040525081019061078991906108db565b5061079481846108fd565b9392505050565b6000602082840312156107ad57600080fd5b5051919050565b634e487b7160e01b600052601160045260246000fd5b80820281158282048414176106d9576106d96107b4565b6000826107fe57634e487b7160e01b600052601260045260246000fd5b500490565b805169ffffffffffffffffffff8116811461081d57600080fd5b919050565b600080600080600060a0868803121561083a57600080fd5b61084386610803565b945060208601519350604086015192506060860151915061086660808701610803565b90509295509295909350565b634e487b7160e01b600052603260045260246000fd5b808201808211156106d9576106d96107b4565b6000600182016108ad576108ad6107b4565b5060010190565b81810360008312801583831316838312821617156108d4576108d46107b4565b5092915050565b6000602082840312156108ed57600080fd5b8151801515811461079457600080fd5b818103818111156106d9576106d96107b456fea26469706673582212203c567e2c5e9117a0c6ad12794569c7c96ee48009f79aed20715e9749ddb3db2664736f6c63430008150033",
    "linkReferences": {}
  },
  "methodIdentifiers": {
    "ETH_USD()": "6260f55b",
    "chargeOZLfee()": "8e9cd10c",
    "getLastRewards()": "2cc3eb0a",
    "getUnderlyingValue()": "45089e29",
    "rETH_ETH()": "d4afb73a",
    "rETH_USD()": "f424c4ba"
  },
  "id": 17
}