{
  "abi": [
    {
      "inputs": [
        {
          "internalType": "uint256",
          "name": "blockNumber",
          "type": "uint256"
        }
      ],
      "name": "OZError14",
      "type": "error"
    },
    {
      "anonymous": false,
      "inputs": [
        {
          "indexed": false,
          "internalType": "uint256",
          "name": "blockNumber",
          "type": "uint256"
        },
        {
          "indexed": false,
          "internalType": "uint256",
          "name": "totalRewards",
          "type": "uint256"
        },
        {
          "indexed": false,
          "internalType": "uint256",
          "name": "ozelFees",
          "type": "uint256"
        },
        {
          "indexed": false,
          "internalType": "uint256",
          "name": "netUnderlyingValue",
          "type": "uint256"
        }
      ],
      "name": "OZLrewards",
      "type": "event"
    },
    {
      "inputs": [],
      "name": "ETH_USD",
      "outputs": [
        {
          "internalType": "uint256",
          "name": "",
          "type": "uint256"
        }
      ],
      "stateMutability": "view",
      "type": "function"
    },
    {
      "inputs": [],
      "name": "chargeOZLfee",
      "outputs": [
        {
          "internalType": "bool",
          "name": "",
          "type": "bool"
        }
      ],
      "stateMutability": "nonpayable",
      "type": "function"
    },
    {
      "inputs": [],
      "name": "getUnderlyingValue",
      "outputs": [
        {
          "internalType": "uint256",
          "name": "",
          "type": "uint256"
        }
      ],
      "stateMutability": "view",
      "type": "function"
    },
    {
      "inputs": [],
      "name": "rETH_ETH",
      "outputs": [
        {
          "internalType": "uint256",
          "name": "",
          "type": "uint256"
        }
      ],
      "stateMutability": "view",
      "type": "function"
    },
    {
      "inputs": [],
      "name": "rETH_USD",
      "outputs": [
        {
          "internalType": "uint256",
          "name": "",
          "type": "uint256"
        }
      ],
      "stateMutability": "view",
      "type": "function"
    }
  ],
  "bytecode": {
    "object": "0x608060405234801561001057600080fd5b50610792806100206000396000f3fe608060405234801561001057600080fd5b50600436106100575760003560e01c806345089e291461005c5780636260f55b146100775780638e9cd10c1461007f578063d4afb73a14610097578063f424c4ba1461009f575b600080fd5b6100646100a7565b6040519081526020015b60405180910390f35b6100646101e3565b61008761027d565b604051901515815260200161006e565b6100646103ec565b610064610474565b600a546040516370a0823160e01b815230600482015260009182916001600160a01b03909116906370a0823190602401602060405180830381865afa1580156100f4573d6000803e3d6000fd5b505050506040513d601f19601f8201168201806040525081019061011891906105ed565b9050600080600a0160009054906101000a90046001600160a01b03166001600160a01b031663e6aa216c6040518163ffffffff1660e01b8152600401602060405180830381865afa158015610171573d6000803e3d6000fd5b505050506040513d601f19601f8201168201806040525081019061019591906105ed565b90506000670de0b6b3a76400006101aa6101e3565b670de0b6b3a76400006101bd868661061c565b6101c79190610639565b6101d1919061061c565b6101db9190610639565b949350505050565b600080600060070160009054906101000a90046001600160a01b03166001600160a01b031663feaf968c6040518163ffffffff1660e01b815260040160a060405180830381865afa15801561023c573d6000803e3d6000fd5b505050506040513d601f19601f82011682018060405250810190610260919061067a565b505050915050806402540be400610277919061061c565b91505090565b6000806102886100a7565b90506000805b60015481101561033b5760018054829081106102ac576102ac6106ca565b60009182526020918290200154604080516278744560e21b815290516001600160a01b03909216926301e1d114926004808401938290030181865afa1580156102f9573d6000803e3d6000fd5b505050506040513d601f19601f8201168201806040525081019061031d91906105ed565b61032790836106e0565b915080610333816106f3565b91505061028e565b5060175443116103645760405163dcfa2bfd60e01b815243600482015260240160405180910390fd5b60006103758264e8d4a5100061061c565b61037f908461070c565b905060008113610393576000935050505090565b6018546000906103a3908361070c565b9050600081136103b857600094505050505090565b6016546000906103d09062ffffff16836127106104ab565b601884905590506103e0816104c9565b60019550505050505090565b6000806000600b0160009054906101000a90046001600160a01b03166001600160a01b031663feaf968c6040518163ffffffff1660e01b815260040160a060405180830381865afa158015610445573d6000803e3d6000fd5b505050506040513d601f19601f82011682018060405250810190610469919061067a565b509195945050505050565b6000670de0b6b3a76400006104876101e3565b61048f6103ec565b610499919061061c565b6104a39190610639565b600218905090565b60008260001904841183021582026104c257600080fd5b5091020490565b60006104e16127106104d96100a7565b8491906104ab565b600a546040516370a0823160e01b81523060048201529192506000916001600160a01b03909116906370a0823190602401602060405180830381865afa15801561052f573d6000803e3d6000fd5b505050506040513d601f19601f8201168201806040525081019061055391906105ed565b9050600061056483836127106104ab565b600a5460165460405163a9059cbb60e01b81526001600160a01b0363010000009092048216600482015260248101849052929350169063a9059cbb906044016020604051808303816000875af11580156105c2573d6000803e3d6000fd5b505050506040513d601f19601f820116820180604052508101906105e69190610733565b5050505050565b6000602082840312156105ff57600080fd5b5051919050565b634e487b7160e01b600052601160045260246000fd5b808202811582820484141761063357610633610606565b92915050565b60008261065657634e487b7160e01b600052601260045260246000fd5b500490565b805169ffffffffffffffffffff8116811461067557600080fd5b919050565b600080600080600060a0868803121561069257600080fd5b61069b8661065b565b94506020860151935060408601519250606086015191506106be6080870161065b565b90509295509295909350565b634e487b7160e01b600052603260045260246000fd5b8082018082111561063357610633610606565b60006001820161070557610705610606565b5060010190565b818103600083128015838313168383128216171561072c5761072c610606565b5092915050565b60006020828403121561074557600080fd5b8151801515811461075557600080fd5b939250505056fea26469706673582212200d8aac85015c12b0463bf4d0065a7430dda279184ea9a817689e63fc8d261eeb64736f6c63430008150033",
    "linkReferences": {}
  },
  "methodIdentifiers": {
    "ETH_USD()": "6260f55b",
    "chargeOZLfee()": "8e9cd10c",
    "getUnderlyingValue()": "45089e29",
    "rETH_ETH()": "d4afb73a",
    "rETH_USD()": "f424c4ba"
  },
  "id": 15
}