{
  "abi": [
    {
      "inputs": [
        {
          "internalType": "uint256",
          "name": "blockNumber",
          "type": "uint256"
        }
      ],
      "name": "OZError14",
      "type": "error"
    },
    {
      "inputs": [],
      "name": "OZError23",
      "type": "error"
    },
    {
      "anonymous": false,
      "inputs": [
        {
          "indexed": false,
          "internalType": "uint256",
          "name": "blockNumber",
          "type": "uint256"
        },
        {
          "indexed": false,
          "internalType": "uint256",
          "name": "ozelFeesInRETH",
          "type": "uint256"
        },
        {
          "indexed": false,
          "internalType": "int256",
          "name": "totalRewards",
          "type": "int256"
        },
        {
          "indexed": false,
          "internalType": "int256",
          "name": "currentRewards",
          "type": "int256"
        }
      ],
      "name": "OzRewards",
      "type": "event"
    },
    {
      "inputs": [],
      "name": "DISPUTE_BUFFER",
      "outputs": [
        {
          "internalType": "uint256",
          "name": "",
          "type": "uint256"
        }
      ],
      "stateMutability": "view",
      "type": "function"
    },
    {
      "inputs": [],
      "name": "ETH_USD",
      "outputs": [
        {
          "internalType": "uint256",
          "name": "",
          "type": "uint256"
        }
      ],
      "stateMutability": "view",
      "type": "function"
    },
    {
      "inputs": [],
      "name": "TIMEOUT_EXTENDED",
      "outputs": [
        {
          "internalType": "uint256",
          "name": "",
          "type": "uint256"
        }
      ],
      "stateMutability": "view",
      "type": "function"
    },
    {
      "inputs": [],
      "name": "TIMEOUT_LINK",
      "outputs": [
        {
          "internalType": "uint256",
          "name": "",
          "type": "uint256"
        }
      ],
      "stateMutability": "view",
      "type": "function"
    },
    {
      "inputs": [],
      "name": "chargeOZLfee",
      "outputs": [
        {
          "internalType": "bool",
          "name": "",
          "type": "bool"
        }
      ],
      "stateMutability": "nonpayable",
      "type": "function"
    },
    {
      "inputs": [],
      "name": "getLastRewards",
      "outputs": [
        {
          "components": [
            {
              "internalType": "uint256",
              "name": "lastBlock",
              "type": "uint256"
            },
            {
              "internalType": "uint256",
              "name": "prevTotalRewards",
              "type": "uint256"
            }
          ],
          "internalType": "struct LastRewards",
          "name": "",
          "type": "tuple"
        }
      ],
      "stateMutability": "view",
      "type": "function"
    },
    {
      "inputs": [
        {
          "internalType": "address",
          "name": "ozToken_",
          "type": "address"
        }
      ],
      "name": "getUnderlyingValue",
      "outputs": [
        {
          "internalType": "uint256",
          "name": "",
          "type": "uint256"
        }
      ],
      "stateMutability": "view",
      "type": "function"
    },
    {
      "inputs": [],
      "name": "rETH_ETH",
      "outputs": [
        {
          "internalType": "uint256",
          "name": "",
          "type": "uint256"
        }
      ],
      "stateMutability": "view",
      "type": "function"
    },
    {
      "inputs": [],
      "name": "rETH_USD",
      "outputs": [
        {
          "internalType": "uint256",
          "name": "",
          "type": "uint256"
        }
      ],
      "stateMutability": "view",
      "type": "function"
    },
    {
      "inputs": [
        {
          "internalType": "address",
          "name": "ozToken_",
          "type": "address"
        },
        {
          "internalType": "uint256",
          "name": "amount_",
          "type": "uint256"
        },
        {
          "internalType": "bool",
          "name": "addOrSub_",
          "type": "bool"
        }
      ],
      "name": "setValuePerOzToken",
      "outputs": [],
      "stateMutability": "nonpayable",
      "type": "function"
    }
  ],
  "bytecode": {
    "object": "0x608060405234801561001057600080fd5b50611ea8806100206000396000f3fe608060405234801561001057600080fd5b506004361061009e5760003560e01c806397d2ead21161006657806397d2ead214610127578063b0ff97b51461013a578063c18748671461014f578063d4afb73a14610158578063f424c4ba1461016057600080fd5b80632cc3eb0a146100a357806340f1a34b146100e65780636260f55b146100fd5780638c4c501d146101055780638e9cd10c1461010f575b600080fd5b6040805180820182526000808252602091820152815180830183526016548082526017549183019182528351908152905191810191909152015b60405180910390f35b6100ef61384081565b6040519081526020016100dd565b6100ef610168565b6100ef62015f9081565b6101176101a5565b60405190151581526020016100dd565b6100ef61013536600461176c565b6103b3565b61014d610148366004611797565b610519565b005b6100ef61038481565b6100ef610585565b6100ef61060d565b60075460009081908190610186906001600160a01b03166001610644565b915091508161019c57610197610873565b61019e565b805b9250505090565b6009546040516370a0823160e01b815230600482015260009182916001600160a01b03909116906370a0823190602401602060405180830381865afa1580156101f2573d6000803e3d6000fd5b505050506040513d601f19601f8201168201806040525081019061021691906117d9565b90506000805b6001548110156102c957600180548290811061023a5761023a6117f2565b60009182526020918290200154604080516278744560e21b815290516001600160a01b03909216926301e1d114926004808401938290030181865afa158015610287573d6000803e3d6000fd5b505050506040513d601f19601f820116820180604052508101906102ab91906117d9565b6102b5908361181e565b9150806102c181611831565b91505061021c565b5060165443116102f35760405163dcfa2bfd60e01b81524360048201526024015b60405180910390fd5b6000806103008385610896565b90925090506000610311838361184a565b9050600081136103275760009550505050505090565b601754600090610337908361184a565b90506000811361034e576000965050505050505090565b600061035a8383610904565b6040805143815260208101839052908101859052606081018490529091507fd47935b2f6fd998224fcce47e28065f692a3452b54180fd1e43ba90daf9eb1949060800160405180910390a1600197505050505050505090565b6000806001600160a01b03831630146103e4576001600160a01b038316600090815260236020526040902054610450565b6009546040516370a0823160e01b81523060048201526001600160a01b03909116906370a0823190602401602060405180830381865afa15801561042c573d6000803e3d6000fd5b505050506040513d601f19601f8201168201806040525081019061045091906117d9565b905060008060090160009054906101000a90046001600160a01b03166001600160a01b031663e6aa216c6040518163ffffffff1660e01b8152600401602060405180830381865afa1580156104a9573d6000803e3d6000fd5b505050506040513d601f19601f820116820180604052508101906104cd91906117d9565b9050670de0b6b3a76400006104e0610168565b670de0b6b3a76400006104f38585611871565b6104fd919061189e565b6105079190611871565b610511919061189e565b949350505050565b8015610552576001600160a01b0383166000908152602360205260408120805484929061054790849061181e565b909155506105809050565b6001600160a01b0383166000908152602360205260408120805484929061057a9084906118b2565b90915550505b505050565b6000806000600a0160009054906101000a90046001600160a01b03166001600160a01b031663feaf968c6040518163ffffffff1660e01b815260040160a060405180830381865afa1580156105de573d6000803e3d6000fd5b505050506040513d601f19601f8201168201806040525081019061060291906118e4565b509195945050505050565b6000670de0b6b3a7640000610620610168565b610628610585565b6106329190611871565b61063c919061189e565b600218905090565b60008061066d604051806040016040528060058152602001642d2d2d2d2d60d81b8152506109e6565b61069b6040518060400160405280600c81526020016b0383934b1b2a332b2b22f9d160a51b81525085610a2c565b6138406402540be400846106b05762015f9091505b6000806000886001600160a01b031663feaf968c6040518163ffffffff1660e01b815260040160a060405180830381865afa1580156106f3573d6000803e3d6000fd5b505050506040513d601f19601f8201168201806040525081019061071791906118e4565b50935050925092506107566040518060400160405280600981526020016803937bab73224b21d160bd1b8152508469ffffffffffffffffffff16610a75565b61078060405180604001604052806008815260200167030b739bbb2b91d160c51b81525083610a75565b6107ad6040518060400160405280600b81526020016a03ab83230ba32b220ba1d160ad1b81525082610a75565b69ffffffffffffffffffff8316158015906107c85750600082135b80156107d357508015155b80156107df5750428111155b80156107f45750846107f182426118b2565b11155b1561083b57610821604051806040016040528060078152602001666e6f74206c6f6760c81b8152506109e6565b600161082d8584611871565b96509650505050505061086c565b61085f604051806040016040528060038152602001626c6f6760e81b8152506109e6565b6000809650965050505050505b9250929050565b60008061087e610aba565b9050600061088a610bab565b90506000610511610d0d565b60008060006108a3610168565b6108b28664e8d4a51000611871565b6108c490670de0b6b3a7640000611871565b6108ce919061189e565b90506000670de0b6b3a76400006108e3610585565b6108ed9087611871565b6108f7919061189e565b9196919550909350505050565b601554600090819061091e9062ffffff1684612710610d9f565b60178590559050600061092f610585565b61094183670de0b6b3a7640000611871565b61094b919061189e565b9050600061095882610dbd565b60095460155460405163a9059cbb60e01b81526001600160a01b0363010000009092048216600482015260248101849052929350169063a9059cbb906044016020604051808303816000875af11580156109b6573d6000803e3d6000fd5b505050506040513d601f19601f820116820180604052508101906109da9190611934565b50925050505b92915050565b610a29816040516024016109fa91906119a1565b60408051601f198184030181529190526020810180516001600160e01b031663104c13eb60e21b179052610e54565b50565b610a718282604051602401610a429291906119b4565b60408051601f198184030181529190526020810180516001600160e01b031663319af33360e01b179052610e54565b5050565b610a718282604051602401610a8b9291906119de565b60408051601f198184030181529190526020810180516001600160e01b03166309710a9d60e41b179052610e54565b6024805460035460048054601354604051630b4c774160e11b81526001600160a01b03948516938101939093529083169482019490945262ffffff909316604484015260009283929190911690631698ee8290606401602060405180830381865afa158015610b2d573d6000803e3d6000fd5b505050506040513d601f19601f82011682018060405250810190610b519190611a00565b90506000610b6082600a610e75565b50600354600454919250600091610b8f918491670de0b6b3a7640000916001600160a01b0390811691166110bb565b90506000610ba28264e8d4a51000611871565b95945050505050565b600080604051602001610bef9060408082526003908201819052620cae8d60eb1b6060830152608060208301819052820152621d5cd960ea1b60a082015260c00190565b60408051601f1981840301815290829052610c0c91602001611a1d565b60408051601f198184030181529190528051602090910120602554909150600090819081906001600160a01b031663a792765f85610c4c610384426118b2565b6040516001600160e01b031960e085901b16815260048101929092526024820152604401600060405180830381865afa158015610c8d573d6000803e3d6000fd5b505050506040513d6000823e601f3d908101601f19168201604052610cb59190810190611a97565b925092509250821580610cd25750613840610cd082426118b2565b115b15610cf057604051637614abcd60e11b815260040160405180910390fd5b81806020019051810190610d0491906117d9565b94505050505090565b6026546000908190610d28906001600160a01b031682610644565b60275490925060009150610d45906001600160a01b031682610644565b915060009050610d6982670de0b6b3a7640000610d62868261189e565b9190610d9f565b9050610d986040518060400160405280600b81526020016a03932b210383934b1b29d160ad1b81525082610a75565b9392505050565b6000826000190484118302158202610db657600080fd5b5091020490565b600080610dce603284612710610d9f565b60095460215460405163a9059cbb60e01b81526001600160a01b03918216600482015260248101849052929350169063a9059cbb906044016020604051808303816000875af1158015610e25573d6000803e3d6000fd5b505050506040513d601f19601f82011682018060405250810190610e499190611934565b50610d9881846118b2565b80516a636f6e736f6c652e6c6f67602083016000808483855afa5050505050565b6000808263ffffffff16600003610eb35760405162461bcd60e51b8152602060048201526002602482015261042560f41b60448201526064016102ea565b6040805160028082526060820183526000926020830190803683370190505090508381600081518110610ee857610ee86117f2565b602002602001019063ffffffff16908163ffffffff1681525050600081600181518110610f1757610f176117f2565b602002602001019063ffffffff16908163ffffffff1681525050600080866001600160a01b031663883bdbfd846040518263ffffffff1660e01b8152600401610f609190611b4a565b600060405180830381865afa158015610f7d573d6000803e3d6000fd5b505050506040513d6000823e601f3d908101601f19168201604052610fa59190810190611c2c565b91509150600082600081518110610fbe57610fbe6117f2565b602002602001015183600181518110610fd957610fd96117f2565b6020026020010151610feb9190611cf8565b9050600082600081518110611002576110026117f2565b60200260200101518360018151811061101d5761101d6117f2565b602002602001015161102f9190611d25565b905061103f600389900b83611d45565b965060008260060b128015611063575061105d600389900b83611d83565b60060b15155b15611076578661107281611da5565b9750505b600061108f6001600160a01b0363ffffffff8b16611dc8565b90506110ac640100000000600160c01b03602084901b1682611dfa565b96505050505050509250929050565b6000806110c7866111c9565b90506001600160801b036001600160a01b0382161161114d5760006110f56001600160a01b03831680611871565b9050836001600160a01b0316856001600160a01b03161061112d57611128600160c01b876001600160801b0316836115e1565b611145565b61114581876001600160801b0316600160c01b6115e1565b9250506111c0565b600061116c6001600160a01b03831680680100000000000000006115e1565b9050836001600160a01b0316856001600160a01b0316106111a45761119f600160801b876001600160801b0316836115e1565b6111bc565b6111bc81876001600160801b0316600160801b6115e1565b9250505b50949350505050565b60008060008360020b126111e0578260020b6111ed565b8260020b6111ed90611e20565b90506111fc620d89e719611e3c565b60020b8111156112325760405162461bcd60e51b81526020600482015260016024820152601560fa1b60448201526064016102ea565b60008160011660000361124957600160801b61125b565b6ffffcb933bd6fad37aa2d162d1a5940015b70ffffffffffffffffffffffffffffffffff169050600282161561129a576080611295826ffff97272373d413259a46990580e213a611871565b901c90505b60048216156112c45760806112bf826ffff2e50f5f656932ef12357cf3c7fdcc611871565b901c90505b60088216156112ee5760806112e9826fffe5caca7e10e4e61c3624eaa0941cd0611871565b901c90505b6010821615611318576080611313826fffcb9843d60f6159c9db58835c926644611871565b901c90505b602082161561134257608061133d826fff973b41fa98c081472e6896dfb254c0611871565b901c90505b604082161561136c576080611367826fff2ea16466c96a3843ec78b326b52861611871565b901c90505b6080821615611396576080611391826ffe5dee046a99a2a811c461f1969c3053611871565b901c90505b6101008216156113c15760806113bc826ffcbe86c7900a88aedcffc83b479aa3a4611871565b901c90505b6102008216156113ec5760806113e7826ff987a7253ac413176f2b074cf7815e54611871565b901c90505b610400821615611417576080611412826ff3392b0822b70005940c7a398e4b70f3611871565b901c90505b61080082161561144257608061143d826fe7159475a2c29b7443b29c7fa6e889d9611871565b901c90505b61100082161561146d576080611468826fd097f3bdfd2022b8845ad8f792aa5825611871565b901c90505b612000821615611498576080611493826fa9f746462d870fdf8a65dc1f90e061e5611871565b901c90505b6140008216156114c35760806114be826f70d869a156d2a1b890bb3df62baf32f7611871565b901c90505b6180008216156114ee5760806114e9826f31be135f97d08fd981231505542fcfa6611871565b901c90505b6201000082161561151a576080611515826f09aa508b5b7a84e1c677de54f3e99bc9611871565b901c90505b62020000821615611545576080611540826e5d6af8dedb81196699c329225ee604611871565b901c90505b6204000082161561156f57608061156a826d2216e584f5fa1ea926041bedfe98611871565b901c90505b62080000821615611597576080611592826b048a170391f7dc42444e8fa2611871565b901c90505b60008460020b13156115b2576115af8160001961189e565b90505b6115c164010000000082611e5e565b156115cd5760016115d0565b60005b6105119060ff16602083901c61181e565b600080806000198587098587029250828110838203039150508060000361161a576000841161160f57600080fd5b508290049050610d98565b80841161162657600080fd5b60008486880980840393811190920391905060008561164481611e20565b169586900495938490049360008190030460010190506116648184611871565b909317926000611675876003611871565b60021890506116848188611871565b61168f9060026118b2565b6116999082611871565b90506116a58188611871565b6116b09060026118b2565b6116ba9082611871565b90506116c68188611871565b6116d19060026118b2565b6116db9082611871565b90506116e78188611871565b6116f29060026118b2565b6116fc9082611871565b90506117088188611871565b6117139060026118b2565b61171d9082611871565b90506117298188611871565b6117349060026118b2565b61173e9082611871565b905061174a8186611871565b9998505050505050505050565b6001600160a01b0381168114610a2957600080fd5b60006020828403121561177e57600080fd5b8135610d9881611757565b8015158114610a2957600080fd5b6000806000606084860312156117ac57600080fd5b83356117b781611757565b92506020840135915060408401356117ce81611789565b809150509250925092565b6000602082840312156117eb57600080fd5b5051919050565b634e487b7160e01b600052603260045260246000fd5b634e487b7160e01b600052601160045260246000fd5b808201808211156109e0576109e0611808565b60006001820161184357611843611808565b5060010190565b818103600083128015838313168383128216171561186a5761186a611808565b5092915050565b80820281158282048414176109e0576109e0611808565b634e487b7160e01b600052601260045260246000fd5b6000826118ad576118ad611888565b500490565b818103818111156109e0576109e0611808565b805169ffffffffffffffffffff811681146118df57600080fd5b919050565b600080600080600060a086880312156118fc57600080fd5b611905866118c5565b9450602086015193506040860151925060608601519150611928608087016118c5565b90509295509295909350565b60006020828403121561194657600080fd5b8151610d9881611789565b60005b8381101561196c578181015183820152602001611954565b50506000910152565b6000815180845261198d816020860160208601611951565b601f01601f19169290920160200192915050565b602081526000610d986020830184611975565b6040815260006119c76040830185611975565b905060018060a01b03831660208301529392505050565b6040815260006119f16040830185611975565b90508260208301529392505050565b600060208284031215611a1257600080fd5b8151610d9881611757565b60408152600960408201526853706f74507269636560b81b6060820152608060208201526000610d986080830184611975565b634e487b7160e01b600052604160045260246000fd5b604051601f8201601f1916810167ffffffffffffffff81118282101715611a8f57611a8f611a50565b604052919050565b600080600060608486031215611aac57600080fd5b8351611ab781611789565b602085015190935067ffffffffffffffff80821115611ad557600080fd5b818601915086601f830112611ae957600080fd5b815181811115611afb57611afb611a50565b611b0e601f8201601f1916602001611a66565b9150808252876020828501011115611b2557600080fd5b611b36816020840160208601611951565b508093505050604084015190509250925092565b6020808252825182820181905260009190848201906040850190845b81811015611b8857835163ffffffff1683529284019291840191600101611b66565b50909695505050505050565b600067ffffffffffffffff821115611bae57611bae611a50565b5060051b60200190565b600082601f830112611bc957600080fd5b81516020611bde611bd983611b94565b611a66565b82815260059290921b84018101918181019086841115611bfd57600080fd5b8286015b84811015611c21578051611c1481611757565b8352918301918301611c01565b509695505050505050565b60008060408385031215611c3f57600080fd5b825167ffffffffffffffff80821115611c5757600080fd5b818501915085601f830112611c6b57600080fd5b81516020611c7b611bd983611b94565b82815260059290921b84018101918181019089841115611c9a57600080fd5b948201945b83861015611cc85785518060060b8114611cb95760008081fd5b82529482019490820190611c9f565b91880151919650909350505080821115611ce157600080fd5b50611cee85828601611bb8565b9150509250929050565b600682810b9082900b03667fffffffffffff198112667fffffffffffff821317156109e0576109e0611808565b6001600160a01b0382811682821603908082111561186a5761186a611808565b60008160060b8360060b80611d5c57611d5c611888565b667fffffffffffff19821460001982141615611d7a57611d7a611808565b90059392505050565b60008260060b80611d9657611d96611888565b808360060b0791505092915050565b60008160020b627fffff198103611dbe57611dbe611808565b6000190192915050565b6001600160c01b03828116828216818102831692918115828504821417611df157611df1611808565b50505092915050565b60006001600160c01b0383811680611e1457611e14611888565b92169190910492915050565b6000600160ff1b8201611e3557611e35611808565b5060000390565b60008160020b627fffff198103611e5557611e55611808565b60000392915050565b600082611e6d57611e6d611888565b50069056fea2646970667358221220fa6912c40fcdc2f9a3b5f4efcd0cb2e5990fba7e606cd7be86fe769566d89b9a64736f6c63430008150033",
    "linkReferences": {}
  },
  "methodIdentifiers": {
    "DISPUTE_BUFFER()": "c1874867",
    "ETH_USD()": "6260f55b",
    "TIMEOUT_EXTENDED()": "8c4c501d",
    "TIMEOUT_LINK()": "40f1a34b",
    "chargeOZLfee()": "8e9cd10c",
    "getLastRewards()": "2cc3eb0a",
    "getUnderlyingValue(address)": "97d2ead2",
    "rETH_ETH()": "d4afb73a",
    "rETH_USD()": "f424c4ba",
    "setValuePerOzToken(address,uint256,bool)": "b0ff97b5"
  },
  "id": 17
}