{
  "abi": [
    {
      "inputs": [
        {
          "internalType": "uint256",
          "name": "blockNumber",
          "type": "uint256"
        }
      ],
      "name": "OZError14",
      "type": "error"
    },
    {
      "anonymous": false,
      "inputs": [
        {
          "indexed": false,
          "internalType": "uint256",
          "name": "blockNumber",
          "type": "uint256"
        },
        {
          "indexed": false,
          "internalType": "uint256",
          "name": "ozelFeesInRETH",
          "type": "uint256"
        },
        {
          "indexed": false,
          "internalType": "int256",
          "name": "totalRewards",
          "type": "int256"
        },
        {
          "indexed": false,
          "internalType": "int256",
          "name": "currentRewards",
          "type": "int256"
        }
      ],
      "name": "OzRewards",
      "type": "event"
    },
    {
      "inputs": [],
      "name": "ETH_USD",
      "outputs": [
        {
          "internalType": "uint256",
          "name": "",
          "type": "uint256"
        }
      ],
      "stateMutability": "view",
      "type": "function"
    },
    {
      "inputs": [],
      "name": "chargeOZLfee",
      "outputs": [
        {
          "internalType": "bool",
          "name": "",
          "type": "bool"
        }
      ],
      "stateMutability": "nonpayable",
      "type": "function"
    },
    {
      "inputs": [],
      "name": "getLastRewards",
      "outputs": [
        {
          "components": [
            {
              "internalType": "uint256",
              "name": "lastBlock",
              "type": "uint256"
            },
            {
              "internalType": "uint256",
              "name": "prevTotalRewards",
              "type": "uint256"
            }
          ],
          "internalType": "struct LastRewards",
          "name": "",
          "type": "tuple"
        }
      ],
      "stateMutability": "view",
      "type": "function"
    },
    {
      "inputs": [
        {
          "internalType": "address",
          "name": "ozToken_",
          "type": "address"
        }
      ],
      "name": "getUnderlyingValue",
      "outputs": [
        {
          "internalType": "uint256",
          "name": "",
          "type": "uint256"
        }
      ],
      "stateMutability": "view",
      "type": "function"
    },
    {
      "inputs": [],
      "name": "getUnderlyingValue2",
      "outputs": [
        {
          "internalType": "uint256",
          "name": "",
          "type": "uint256"
        }
      ],
      "stateMutability": "view",
      "type": "function"
    },
    {
      "inputs": [],
      "name": "rETH_ETH",
      "outputs": [
        {
          "internalType": "uint256",
          "name": "",
          "type": "uint256"
        }
      ],
      "stateMutability": "view",
      "type": "function"
    },
    {
      "inputs": [],
      "name": "rETH_USD",
      "outputs": [
        {
          "internalType": "uint256",
          "name": "",
          "type": "uint256"
        }
      ],
      "stateMutability": "view",
      "type": "function"
    },
    {
      "inputs": [
        {
          "internalType": "address",
          "name": "ozToken_",
          "type": "address"
        },
        {
          "internalType": "uint256",
          "name": "amount_",
          "type": "uint256"
        },
        {
          "internalType": "bool",
          "name": "addOrSub_",
          "type": "bool"
        }
      ],
      "name": "setValuePerOzToken",
      "outputs": [],
      "stateMutability": "nonpayable",
      "type": "function"
    }
  ],
  "bytecode": {
    "object": "0x608060405234801561001057600080fd5b50610be4806100206000396000f3fe608060405234801561001057600080fd5b50600436106100885760003560e01c8063b0ff97b51161005b578063b0ff97b514610111578063d4afb73a14610126578063e2f6fba11461012e578063f424c4ba1461013657600080fd5b80632cc3eb0a1461008d5780636260f55b146100d05780638e9cd10c146100e657806397d2ead2146100fe575b600080fd5b6040805180820182526000808252602091820152815180830183526016548082526017549183019182528351908152905191810191909152015b60405180910390f35b6100d861013e565b6040519081526020016100c7565b6100ee6101d8565b60405190151581526020016100c7565b6100d861010c3660046109d7565b6103e5565b61012461011f366004610a03565b61054b565b005b6100d86105b7565b6100d861063f565b6100d8610778565b600080600060070160009054906101000a90046001600160a01b03166001600160a01b031663feaf968c6040518163ffffffff1660e01b815260040160a060405180830381865afa158015610197573d6000803e3d6000fd5b505050506040513d601f19601f820116820180604052508101906101bb9190610a5d565b505050915050806402540be4006101d29190610ac3565b91505090565b6009546040516370a0823160e01b815230600482015260009182916001600160a01b03909116906370a0823190602401602060405180830381865afa158015610225573d6000803e3d6000fd5b505050506040513d601f19601f820116820180604052508101906102499190610ada565b90506000805b6001548110156102fc57600180548290811061026d5761026d610af3565b60009182526020918290200154604080516278744560e21b815290516001600160a01b03909216926301e1d114926004808401938290030181865afa1580156102ba573d6000803e3d6000fd5b505050506040513d601f19601f820116820180604052508101906102de9190610ada565b6102e89083610b09565b9150806102f481610b1c565b91505061024f565b5060165443116103255760405163dcfa2bfd60e01b815243600482015260240160405180910390fd5b60008061033283856107af565b909250905060006103438383610b35565b9050600081136103595760009550505050505090565b6017546000906103699083610b35565b905060008113610380576000965050505050505090565b600061038c838361081d565b6040805143815260208101839052908101859052606081018490529091507fd47935b2f6fd998224fcce47e28065f692a3452b54180fd1e43ba90daf9eb1949060800160405180910390a1600197505050505050505090565b6000806001600160a01b0383163014610416576001600160a01b038316600090815260236020526040902054610482565b6009546040516370a0823160e01b81523060048201526001600160a01b03909116906370a0823190602401602060405180830381865afa15801561045e573d6000803e3d6000fd5b505050506040513d601f19601f820116820180604052508101906104829190610ada565b905060008060090160009054906101000a90046001600160a01b03166001600160a01b031663e6aa216c6040518163ffffffff1660e01b8152600401602060405180830381865afa1580156104db573d6000803e3d6000fd5b505050506040513d601f19601f820116820180604052508101906104ff9190610ada565b9050670de0b6b3a764000061051261013e565b670de0b6b3a76400006105258585610ac3565b61052f9190610b5c565b6105399190610ac3565b6105439190610b5c565b949350505050565b8015610584576001600160a01b03831660009081526023602052604081208054849290610579908490610b09565b909155506105b29050565b6001600160a01b038316600090815260236020526040812080548492906105ac908490610b7e565b90915550505b505050565b6000806000600a0160009054906101000a90046001600160a01b03166001600160a01b031663feaf968c6040518163ffffffff1660e01b815260040160a060405180830381865afa158015610610573d6000803e3d6000fd5b505050506040513d601f19601f820116820180604052508101906106349190610a5d565b509195945050505050565b6009546040516370a0823160e01b815230600482015260009182916001600160a01b03909116906370a0823190602401602060405180830381865afa15801561068c573d6000803e3d6000fd5b505050506040513d601f19601f820116820180604052508101906106b09190610ada565b905060008060090160009054906101000a90046001600160a01b03166001600160a01b031663e6aa216c6040518163ffffffff1660e01b8152600401602060405180830381865afa158015610709573d6000803e3d6000fd5b505050506040513d601f19601f8201168201806040525081019061072d9190610ada565b9050670de0b6b3a764000061074061013e565b670de0b6b3a76400006107538585610ac3565b61075d9190610b5c565b6107679190610ac3565b6107719190610b5c565b9250505090565b6000670de0b6b3a764000061078b61013e565b6107936105b7565b61079d9190610ac3565b6107a79190610b5c565b600218905090565b60008060006107bc61013e565b6107cb8664e8d4a51000610ac3565b6107dd90670de0b6b3a7640000610ac3565b6107e79190610b5c565b90506000670de0b6b3a76400006107fc6105b7565b6108069087610ac3565b6108109190610b5c565b9196919550909350505050565b60155460009081906108379062ffffff16846127106108ff565b6017859055905060006108486105b7565b61085a83670de0b6b3a7640000610ac3565b6108649190610b5c565b905060006108718261091d565b60095460155460405163a9059cbb60e01b81526001600160a01b0363010000009092048216600482015260248101849052929350169063a9059cbb906044016020604051808303816000875af11580156108cf573d6000803e3d6000fd5b505050506040513d601f19601f820116820180604052508101906108f39190610b91565b50925050505b92915050565b600082600019048411830215820261091657600080fd5b5091020490565b60008061092e6032846127106108ff565b60095460215460405163a9059cbb60e01b81526001600160a01b03918216600482015260248101849052929350169063a9059cbb906044016020604051808303816000875af1158015610985573d6000803e3d6000fd5b505050506040513d601f19601f820116820180604052508101906109a99190610b91565b506109b48184610b7e565b9392505050565b80356001600160a01b03811681146109d257600080fd5b919050565b6000602082840312156109e957600080fd5b6109b4826109bb565b8015158114610a0057600080fd5b50565b600080600060608486031215610a1857600080fd5b610a21846109bb565b9250602084013591506040840135610a38816109f2565b809150509250925092565b805169ffffffffffffffffffff811681146109d257600080fd5b600080600080600060a08688031215610a7557600080fd5b610a7e86610a43565b9450602086015193506040860151925060608601519150610aa160808701610a43565b90509295509295909350565b634e487b7160e01b600052601160045260246000fd5b80820281158282048414176108f9576108f9610aad565b600060208284031215610aec57600080fd5b5051919050565b634e487b7160e01b600052603260045260246000fd5b808201808211156108f9576108f9610aad565b600060018201610b2e57610b2e610aad565b5060010190565b8181036000831280158383131683831282161715610b5557610b55610aad565b5092915050565b600082610b7957634e487b7160e01b600052601260045260246000fd5b500490565b818103818111156108f9576108f9610aad565b600060208284031215610ba357600080fd5b81516109b4816109f256fea2646970667358221220f372c073b849cd24d2014c30496333c080c7d0d8677d2d4ae9e04ecabf0e0d2264736f6c63430008150033",
    "linkReferences": {}
  },
  "methodIdentifiers": {
    "ETH_USD()": "6260f55b",
    "chargeOZLfee()": "8e9cd10c",
    "getLastRewards()": "2cc3eb0a",
    "getUnderlyingValue(address)": "97d2ead2",
    "getUnderlyingValue2()": "e2f6fba1",
    "rETH_ETH()": "d4afb73a",
    "rETH_USD()": "f424c4ba",
    "setValuePerOzToken(address,uint256,bool)": "b0ff97b5"
  },
  "id": 17
}