{
  "abi": [
    {
      "inputs": [
        {
          "internalType": "uint256",
          "name": "blockNumber",
          "type": "uint256"
        }
      ],
      "name": "OZError14",
      "type": "error"
    },
    {
      "anonymous": false,
      "inputs": [
        {
          "indexed": false,
          "internalType": "uint256",
          "name": "blockNumber",
          "type": "uint256"
        },
        {
          "indexed": false,
          "internalType": "uint256",
          "name": "ozelFeesInRETH",
          "type": "uint256"
        },
        {
          "indexed": false,
          "internalType": "int256",
          "name": "totalRewards",
          "type": "int256"
        },
        {
          "indexed": false,
          "internalType": "int256",
          "name": "currentRewards",
          "type": "int256"
        }
      ],
      "name": "OzRewards",
      "type": "event"
    },
    {
      "inputs": [],
      "name": "ETH_USD",
      "outputs": [
        {
          "internalType": "uint256",
          "name": "",
          "type": "uint256"
        }
      ],
      "stateMutability": "view",
      "type": "function"
    },
    {
      "inputs": [],
      "name": "chargeOZLfee",
      "outputs": [
        {
          "internalType": "bool",
          "name": "",
          "type": "bool"
        }
      ],
      "stateMutability": "nonpayable",
      "type": "function"
    },
    {
      "inputs": [],
      "name": "getLastRewards",
      "outputs": [
        {
          "components": [
            {
              "internalType": "uint256",
              "name": "lastBlock",
              "type": "uint256"
            },
            {
              "internalType": "uint256",
              "name": "prevTotalRewards",
              "type": "uint256"
            }
          ],
          "internalType": "struct LastRewards",
          "name": "",
          "type": "tuple"
        }
      ],
      "stateMutability": "view",
      "type": "function"
    },
    {
      "inputs": [
        {
          "internalType": "address",
          "name": "ozToken_",
          "type": "address"
        }
      ],
      "name": "getUnderlyingValue",
      "outputs": [
        {
          "internalType": "uint256",
          "name": "",
          "type": "uint256"
        }
      ],
      "stateMutability": "view",
      "type": "function"
    },
    {
      "inputs": [],
      "name": "rETH_ETH",
      "outputs": [
        {
          "internalType": "uint256",
          "name": "",
          "type": "uint256"
        }
      ],
      "stateMutability": "view",
      "type": "function"
    },
    {
      "inputs": [],
      "name": "rETH_USD",
      "outputs": [
        {
          "internalType": "uint256",
          "name": "",
          "type": "uint256"
        }
      ],
      "stateMutability": "view",
      "type": "function"
    }
  ],
  "bytecode": {
    "object": "0x608060405234801561001057600080fd5b50610b7d806100206000396000f3fe608060405234801561001057600080fd5b50600436106100625760003560e01c80632cc3eb0a146100675780636260f55b146100aa5780638e9cd10c146100c057806397d2ead2146100d8578063d4afb73a146100eb578063f424c4ba146100f3575b600080fd5b6040805180820182526000808252602091820152815180830183526016548082526017549183019182528351908152905191810191909152015b60405180910390f35b6100b26100fb565b6040519081526020016100a1565b6100c8610195565b60405190151581526020016100a1565b6100b26100e63660046108f1565b6103a2565b6100b2610577565b6100b26105ff565b600080600060070160009054906101000a90046001600160a01b03166001600160a01b031663feaf968c6040518163ffffffff1660e01b815260040160a060405180830381865afa158015610154573d6000803e3d6000fd5b505050506040513d601f19601f820116820180604052508101906101789190610939565b505050915050806402540be40061018f919061099f565b91505090565b6009546040516370a0823160e01b815230600482015260009182916001600160a01b03909116906370a0823190602401602060405180830381865afa1580156101e2573d6000803e3d6000fd5b505050506040513d601f19601f8201168201806040525081019061020691906109b6565b90506000805b6001548110156102b957600180548290811061022a5761022a6109cf565b60009182526020918290200154604080516278744560e21b815290516001600160a01b03909216926301e1d114926004808401938290030181865afa158015610277573d6000803e3d6000fd5b505050506040513d601f19601f8201168201806040525081019061029b91906109b6565b6102a590836109e5565b9150806102b1816109f8565b91505061020c565b5060165443116102e25760405163dcfa2bfd60e01b815243600482015260240160405180910390fd5b6000806102ef8385610636565b909250905060006103008383610a11565b9050600081136103165760009550505050505090565b6017546000906103269083610a11565b90506000811361033d576000965050505050505090565b600061034983836106a4565b6040805143815260208101839052908101859052606081018490529091507fd47935b2f6fd998224fcce47e28065f692a3452b54180fd1e43ba90daf9eb1949060800160405180910390a1600197505050505050505090565b60006103d860405180604001604052806012815260200171037bd2a37b5b2b71034b7103ab73232b91d160751b81525083610786565b610412604051806060016040528060268152602001610b22602691396001600160a01b0384166000908152602360205260409020546107cf565b60006001600160a01b0383163014610442576001600160a01b0383166000908152602360205260409020546104ae565b6009546040516370a0823160e01b81523060048201526001600160a01b03909116906370a0823190602401602060405180830381865afa15801561048a573d6000803e3d6000fd5b505050506040513d601f19601f820116820180604052508101906104ae91906109b6565b905060008060090160009054906101000a90046001600160a01b03166001600160a01b031663e6aa216c6040518163ffffffff1660e01b8152600401602060405180830381865afa158015610507573d6000803e3d6000fd5b505050506040513d601f19601f8201168201806040525081019061052b91906109b6565b9050670de0b6b3a764000061053e6100fb565b670de0b6b3a7640000610551858561099f565b61055b9190610a38565b610565919061099f565b61056f9190610a38565b949350505050565b6000806000600a0160009054906101000a90046001600160a01b03166001600160a01b031663feaf968c6040518163ffffffff1660e01b815260040160a060405180830381865afa1580156105d0573d6000803e3d6000fd5b505050506040513d601f19601f820116820180604052508101906105f49190610939565b509195945050505050565b6000670de0b6b3a76400006106126100fb565b61061a610577565b610624919061099f565b61062e9190610a38565b600218905090565b60008060006106436100fb565b6106528664e8d4a5100061099f565b61066490670de0b6b3a764000061099f565b61066e9190610a38565b90506000670de0b6b3a7640000610683610577565b61068d908761099f565b6106979190610a38565b9196919550909350505050565b60155460009081906106be9062ffffff1684612710610814565b6017859055905060006106cf610577565b6106e183670de0b6b3a764000061099f565b6106eb9190610a38565b905060006106f882610832565b60095460155460405163a9059cbb60e01b81526001600160a01b0363010000009092048216600482015260248101849052929350169063a9059cbb906044016020604051808303816000875af1158015610756573d6000803e3d6000fd5b505050506040513d601f19601f8201168201806040525081019061077a9190610a5a565b50925050505b92915050565b6107cb828260405160240161079c929190610ac2565b60408051601f198184030181529190526020810180516001600160e01b031663319af33360e01b1790526108d0565b5050565b6107cb82826040516024016107e5929190610aec565b60408051601f198184030181529190526020810180516001600160e01b03166309710a9d60e41b1790526108d0565b600082600019048411830215820261082b57600080fd5b5091020490565b600080610843603284612710610814565b60095460215460405163a9059cbb60e01b81526001600160a01b03918216600482015260248101849052929350169063a9059cbb906044016020604051808303816000875af115801561089a573d6000803e3d6000fd5b505050506040513d601f19601f820116820180604052508101906108be9190610a5a565b506108c98184610b0e565b9392505050565b80516a636f6e736f6c652e6c6f67602083016000808483855afa5050505050565b60006020828403121561090357600080fd5b81356001600160a01b03811681146108c957600080fd5b805169ffffffffffffffffffff8116811461093457600080fd5b919050565b600080600080600060a0868803121561095157600080fd5b61095a8661091a565b945060208601519350604086015192506060860151915061097d6080870161091a565b90509295509295909350565b634e487b7160e01b600052601160045260246000fd5b808202811582820484141761078057610780610989565b6000602082840312156109c857600080fd5b5051919050565b634e487b7160e01b600052603260045260246000fd5b8082018082111561078057610780610989565b600060018201610a0a57610a0a610989565b5060010190565b8181036000831280158383131683831282161715610a3157610a31610989565b5092915050565b600082610a5557634e487b7160e01b600052601260045260246000fd5b500490565b600060208284031215610a6c57600080fd5b815180151581146108c957600080fd5b6000815180845260005b81811015610aa257602081850181015186830182015201610a86565b506000602082860101526020601f19601f83011685010191505092915050565b604081526000610ad56040830185610a7c565b905060018060a01b03831660208301529392505050565b604081526000610aff6040830185610a7c565b90508260208301529392505050565b818103818111156107805761078061098956fe732e76616c75655065724f7a546f6b656e5b6f7a546f6b656e5f5d20696e20756e6465723a20a2646970667358221220680170e1fbb05b51157b78e50f42cfbb974bc96b53eafdf331d44cb4ab97ee5c64736f6c63430008150033",
    "linkReferences": {}
  },
  "methodIdentifiers": {
    "ETH_USD()": "6260f55b",
    "chargeOZLfee()": "8e9cd10c",
    "getLastRewards()": "2cc3eb0a",
    "getUnderlyingValue(address)": "97d2ead2",
    "rETH_ETH()": "d4afb73a",
    "rETH_USD()": "f424c4ba"
  },
  "id": 17
}