{"abi":[{"type":"function","name":"DISPUTE_BUFFER","inputs":[],"outputs":[{"name":"","type":"uint256","internalType":"uint256"}],"stateMutability":"view"},{"type":"function","name":"ETH_USD","inputs":[],"outputs":[{"name":"","type":"uint256","internalType":"uint256"}],"stateMutability":"view"},{"type":"function","name":"TIMEOUT_EXTENDED","inputs":[],"outputs":[{"name":"","type":"uint256","internalType":"uint256"}],"stateMutability":"view"},{"type":"function","name":"TIMEOUT_LINK_ETHUSD","inputs":[],"outputs":[{"name":"","type":"uint256","internalType":"uint256"}],"stateMutability":"view"},{"type":"function","name":"TIMEOUT_LINK_RETHETH","inputs":[],"outputs":[{"name":"","type":"uint256","internalType":"uint256"}],"stateMutability":"view"},{"type":"function","name":"chargeOZLfee","inputs":[],"outputs":[{"name":"","type":"bool","internalType":"bool"}],"stateMutability":"nonpayable"},{"type":"function","name":"getLastRewards","inputs":[],"outputs":[{"name":"","type":"tuple","internalType":"struct LastRewards","components":[{"name":"lastBlock","type":"uint256","internalType":"uint256"},{"name":"prevTotalRewards","type":"uint256","internalType":"uint256"}]}],"stateMutability":"view"},{"type":"function","name":"getOracleBackUp1","inputs":[],"outputs":[{"name":"","type":"bool","internalType":"bool"},{"name":"","type":"uint256","internalType":"uint256"}],"stateMutability":"view"},{"type":"function","name":"getOracleBackUp2","inputs":[],"outputs":[{"name":"","type":"bool","internalType":"bool"},{"name":"","type":"uint256","internalType":"uint256"}],"stateMutability":"view"},{"type":"function","name":"getUnderlyingValue","inputs":[{"name":"ozToken_","type":"address","internalType":"address"}],"outputs":[{"name":"","type":"uint256","internalType":"uint256"}],"stateMutability":"view"},{"type":"function","name":"getUniPrice","inputs":[{"name":"tokenPair_","type":"uint256","internalType":"uint256"},{"name":"side_","type":"uint8","internalType":"enum Dir"}],"outputs":[{"name":"","type":"uint256","internalType":"uint256"}],"stateMutability":"view"},{"type":"function","name":"rETH_ETH","inputs":[],"outputs":[{"name":"","type":"uint256","internalType":"uint256"}],"stateMutability":"view"},{"type":"function","name":"rETH_USD","inputs":[],"outputs":[{"name":"","type":"uint256","internalType":"uint256"}],"stateMutability":"view"},{"type":"function","name":"setValuePerOzToken","inputs":[{"name":"ozToken_","type":"address","internalType":"address"},{"name":"amount_","type":"uint256","internalType":"uint256"},{"name":"addOrSub_","type":"bool","internalType":"bool"}],"outputs":[],"stateMutability":"nonpayable"},{"type":"event","name":"APRcalculated","inputs":[{"name":"currAPR","type":"uint256","indexed":true,"internalType":"uint256"},{"name":"prevAPR","type":"uint256","indexed":true,"internalType":"uint256"},{"name":"currentRewardsUSD","type":"uint256","indexed":false,"internalType":"uint256"},{"name":"totalAssets","type":"uint256","indexed":false,"internalType":"uint256"},{"name":"deltaStamp","type":"uint256","indexed":false,"internalType":"uint256"}],"anonymous":false},{"type":"event","name":"OzRewards","inputs":[{"name":"blockNumber","type":"uint256","indexed":false,"internalType":"uint256"},{"name":"ozelFeesInRETH","type":"uint256","indexed":false,"internalType":"uint256"},{"name":"totalRewards","type":"int256","indexed":false,"internalType":"int256"},{"name":"currentRewards","type":"int256","indexed":false,"internalType":"int256"}],"anonymous":false},{"type":"error","name":"OZError14","inputs":[{"name":"blockNumber","type":"uint256","internalType":"uint256"}]},{"type":"error","name":"OZError23","inputs":[{"name":"baseToken","type":"address","internalType":"address"}]}],"bytecode":{"object":"0x608060405234801561001057600080fd5b506122ea806100206000396000f3fe608060405234801561001057600080fd5b50600436106100ea5760003560e01c806397d2ead21161008c578063d4afb73a11610066578063d4afb73a146101cd578063d6c10168146101d5578063f32cabc5146101de578063f424c4ba146101e657600080fd5b806397d2ead21461019c578063b0ff97b5146101af578063c1874867146101c457600080fd5b80633154b6e2116100c85780633154b6e2146101695780636260f55b1461017c5780638c4c501d146101135780638e9cd10c1461018457600080fd5b80630b842e3b146100ef57806318087224146101135780632cc3eb0a1461012b575b600080fd5b6100f76101ee565b6040805192151583526020830191909152015b60405180910390f35b61011d6201518081565b60405190815260200161010a565b60408051808201825260008082526020918201528151808301835260145480825260155491830191825283519081529051918101919091520161010a565b61011d610177366004611b7b565b61034d565b61011d610627565b61018c610671565b604051901515815260200161010a565b61011d6101aa366004611bc4565b61088d565b6101c26101bd366004611bef565b610959565b005b61011d61038481565b61011d6109c5565b61011d61384081565b6100f7610b17565b61011d610bb5565b60008060006040516020016102349060408082526003908201819052620cae8d60eb1b6060830152608060208301819052820152621d5cd960ea1b60a082015260c00190565b60408051601f198184030181529082905261025191602001611c81565b60408051601f198184030181529190528051602090910120602354909150600090819081906001600160a01b031663a792765f8561029161038442611cca565b6040516001600160e01b031960e085901b16815260048101929092526024820152604401600060405180830381865afa1580156102d2573d6000803e3d6000fd5b505050506040513d6000823e601f3d908101601f191682016040526102fa9190810190611d24565b9250925092508215806103185750620151806103168242611cca565b115b1561032b57506000958695509350505050565b6001828060200190518101906103419190611dd7565b95509550505050509091565b6000828152602b60209081526040808320815160608101835281546001600160a01b03908116808352600190930154808216838701819052600160a01b90910462ffffff169285018390526022548551630b4c774160e11b8152600481018690526024810183905260448101859052955194969195939488949190931692631698ee82926064808401939192918290030181865afa1580156103f3573d6000803e3d6000fd5b505050506040513d601f19601f820116820180604052508101906104179190611df0565b905060008087600181111561042e5761042e611e0d565b1461043c5762015180610440565b6107085b60408051600280825260608201835262ffffff9390931693506000929091602083019080368337019050509050818160008151811061048157610481611e23565b602002602001019063ffffffff16908163ffffffff16815250506000816001815181106104b0576104b0611e23565b63ffffffff9092166020928302919091019091015260405163883bdbfd60e01b81526000906001600160a01b0385169063883bdbfd906104f4908590600401611e39565b600060405180830381865afa158015610511573d6000803e3d6000fd5b505050506040513d6000823e601f3d908101601f191682016040526105399190810190611f1b565b50905060008160008151811061055157610551611e23565b60200260200101518260018151811061056c5761056c611e23565b602002602001015161057e9190611fe7565b90506000610590600386900b8361202a565b905060008260060b1280156105b457506105ae600386900b83612068565b60060b15155b156105c757806105c38161208a565b9150505b60006105dd82670de0b6b3a76400008c8c610be9565b6003549091506001600160a01b038a81169116146106005764e8d4a51000610603565b60015b6106149064ffffffffff16826120ad565b9a50505050505050505050505b92915050565b60075460009081908190610645906001600160a01b03166001610cf7565b915091508161066857600354610663906001600160a01b0316610f97565b61066a565b805b9250505090565b6009546040516370a0823160e01b815230600482015260009182916001600160a01b03909116906370a0823190602401602060405180830381865afa1580156106be573d6000803e3d6000fd5b505050506040513d601f19601f820116820180604052508101906106e29190611dd7565b90506000805b60015481101561079a57600180548290811061070657610706611e23565b600091825260209182902060029091020154604080516278744560e21b815290516001600160a01b03909216926301e1d114926004808401938290030181865afa158015610758573d6000803e3d6000fd5b505050506040513d601f19601f8201168201806040525081019061077c9190611dd7565b61078690836120c4565b915080610792816120d7565b9150506106e8565b5060145443116107c45760405163dcfa2bfd60e01b81524360048201526024015b60405180910390fd5b6000806107d183856110e7565b909250905060006107e283836120f0565b9050600081136107f85760009550505050505090565b60155460009061080890836120f0565b90506000811361081f576000965050505050505090565b600061082b8383611155565b90506108378287611245565b6040805143815260208101839052908101849052606081018390527fd47935b2f6fd998224fcce47e28065f692a3452b54180fd1e43ba90daf9eb1949060800160405180910390a1600197505050505050505090565b6000806001600160a01b03831630146108be576001600160a01b03831660009081526021602052604090205461092a565b6009546040516370a0823160e01b81523060048201526001600160a01b03909116906370a0823190602401602060405180830381865afa158015610906573d6000803e3d6000fd5b505050506040513d601f19601f8201168201806040525081019061092a9190611dd7565b9050670de0b6b3a76400008161093e610bb5565b61094891906120ad565b6109529190612117565b9392505050565b8015610992576001600160a01b038316600090815260216020526040812080548492906109879084906120c4565b909155506109c09050565b6001600160a01b038316600090815260216020526040812080548492906109ba908490611cca565b90915550505b505050565b600a54600090819081906109e3906001600160a01b03166001610cf7565b9150915060006109f460008061034d565b9050610a286040518060400160405280601081526020016f036b0b4b7283934b1b290151515151d160851b8152508261130e565b610a546040518060400160405280600a81526020016903932b3283934b1b29d160b51b8152508361130e565b610a7f60405180604001604052806009815260200168039bab1b1b2b9b99d160bd1b81525084611357565b602c54610a93908290849061ffff1661139c565b8015610a9c5750825b15610adc57610ac6604051806040016040528060048152602001636865726560e01b8152506113d0565b610ad4633b9aca0082612117565b935050505090565b610b02604051806040016040528060058152602001643432b9329960d91b8152506113d0565b600954610ad4906001600160a01b0316610f97565b602454600090819081908190610b36906001600160a01b031682610cf7565b60255491935091506000908190610b56906001600160a01b031682610cf7565b91509150838015610b645750815b15610ba7576000610b9882670de0b6b3a7640000610b91876ec097ce7bc90715b34b9f1000000000612117565b9190611416565b60019890975095505050505050565b506000958695509350505050565b6000670de0b6b3a7640000610bc8610627565b610bd06109c5565b610bda91906120ad565b610be49190612117565b905090565b600080610bf586611434565b90506001600160801b036001600160a01b03821611610c7b576000610c236001600160a01b038316806120ad565b9050836001600160a01b0316856001600160a01b031610610c5b57610c56600160c01b876001600160801b03168361184c565b610c73565b610c7381876001600160801b0316600160c01b61184c565b925050610cee565b6000610c9a6001600160a01b038316806801000000000000000061184c565b9050836001600160a01b0316856001600160a01b031610610cd257610ccd600160801b876001600160801b03168361184c565b610cea565b610cea81876001600160801b0316600160801b61184c565b9250505b50949350505050565b6000806138406402540be40084610d0f576201518091505b600a546001600160a01b0390811690871603610d2f575062015180905060015b6000806000886001600160a01b031663feaf968c6040518163ffffffff1660e01b815260040160a060405180830381865afa158015610d72573d6000803e3d6000fd5b505050506040513d601f19601f82011682018060405250810190610d96919061214a565b5093505092509250610db6604051806020016040528060008152506113d0565b610de46040518060400160405280600c81526020016b0383934b1b2a332b2b22f9d160a51b8152508a6119c2565b610e1160405180604001604052806008815260200167030b739bbb2b91d160c51b81525060008413611357565b610e4c6040518060400160405280600981526020016803937bab73224b21d160bd1b8152508469ffffffffffffffffffff1660001415611357565b610e7d6040518060400160405280600b81526020016a03ab83230ba32b220ba1d160ad1b8152508260001415611357565b610ebf6040518060400160405280601e81526020017f757064617465644174203c3d20626c6f636b2e74696d657374616d703a20000081525042831115611357565b610eed60405180606001604052806028815260200161228d6028913986610ee68442611cca565b1115611357565b610f05604051806020016040528060008152506113d0565b69ffffffffffffffffffff8316151580610f2c57506024546001600160a01b038a81169116145b8015610f385750600082135b8015610f4357508015155b8015610f4f5750428111155b8015610f64575084610f618242611cca565b11155b15610f83576001610f7585846120ad565b965096505050505050610f90565b6000809650965050505050505b9250929050565b6003546000906001600160a01b039081169083160361100e576000610fbe6002600061034d565b9050600080610fcb6101ee565b91509150600080610fda610b17565b91509150838015610fe85750815b1561100357610ff8858483611a07565b979650505050505050565b509295945050505050565b6009546001600160a01b03908116908316036110c35760006110326001600061034d565b905060008060090160009054906101000a90046001600160a01b03166001600160a01b031663e6aa216c6040518163ffffffff1660e01b8152600401602060405180830381865afa15801561108b573d6000803e3d6000fd5b505050506040513d601f19601f820116820180604052508101906110af9190611dd7565b90506110bb8282611a74565b949350505050565b60405163715ed81960e01b81526001600160a01b03831660048201526024016107bb565b60008060006110f4610627565b6111038664e8d4a510006120ad565b61111590670de0b6b3a76400006120ad565b61111f9190612117565b90506000670de0b6b3a76400006111346109c5565b61113e90876120ad565b6111489190612117565b9196919550909350505050565b6013546000908190611179906601000000000000900462ffffff1684612710611416565b60158590559050600061118a6109c5565b61119c83670de0b6b3a76400006120ad565b6111a69190612117565b905060006111b382611a82565b60095460135460405163a9059cbb60e01b81526001600160a01b0369010000000000000000009092048216600482015260248101849052929350169063a9059cbb906044016020604051808303816000875af1158015611217573d6000803e3d6000fd5b505050506040513d601f19601f8201168201806040525081019061123b919061219a565b5095945050505050565b602e54602f55602d5460009061125b9042611cca565b90506301e14320600061127f61126f610627565b8690670de0b6b3a7640000611416565b905061128b8383612117565b6112958583612117565b61129f91906120ad565b6112aa9060646120ad565b6112b790620f42406120ad565b602e819055602f5460408051848152602081018890529081018690529091907f24acc7e57080c86685edba47039057e67cc94a5bcdd72b62d5ce227f4eaaa5f29060600160405180910390a3505042602d55505050565b61135382826040516024016113249291906121b7565b60408051601f198184030181529190526020810180516001600160e01b03166309710a9d60e41b179052611b28565b5050565b611353828260405160240161136d9291906121d9565b60408051601f198184030181529190526020810180516001600160e01b031663c3b5563560e01b179052611b28565b6000806113b16113ac86866120f0565b611b49565b90506113c08161271087611416565b8361ffff16119150509392505050565b611413816040516024016113e491906121fd565b60408051601f198184030181529190526020810180516001600160e01b031663104c13eb60e21b179052611b28565b50565b600082600019048411830215820261142d57600080fd5b5091020490565b60008060008360020b1261144b578260020b611458565b8260020b61145890612210565b9050611467620d89e71961222c565b60020b81111561149d5760405162461bcd60e51b81526020600482015260016024820152601560fa1b60448201526064016107bb565b6000816001166000036114b457600160801b6114c6565b6ffffcb933bd6fad37aa2d162d1a5940015b70ffffffffffffffffffffffffffffffffff1690506002821615611505576080611500826ffff97272373d413259a46990580e213a6120ad565b901c90505b600482161561152f57608061152a826ffff2e50f5f656932ef12357cf3c7fdcc6120ad565b901c90505b6008821615611559576080611554826fffe5caca7e10e4e61c3624eaa0941cd06120ad565b901c90505b601082161561158357608061157e826fffcb9843d60f6159c9db58835c9266446120ad565b901c90505b60208216156115ad5760806115a8826fff973b41fa98c081472e6896dfb254c06120ad565b901c90505b60408216156115d75760806115d2826fff2ea16466c96a3843ec78b326b528616120ad565b901c90505b60808216156116015760806115fc826ffe5dee046a99a2a811c461f1969c30536120ad565b901c90505b61010082161561162c576080611627826ffcbe86c7900a88aedcffc83b479aa3a46120ad565b901c90505b610200821615611657576080611652826ff987a7253ac413176f2b074cf7815e546120ad565b901c90505b61040082161561168257608061167d826ff3392b0822b70005940c7a398e4b70f36120ad565b901c90505b6108008216156116ad5760806116a8826fe7159475a2c29b7443b29c7fa6e889d96120ad565b901c90505b6110008216156116d85760806116d3826fd097f3bdfd2022b8845ad8f792aa58256120ad565b901c90505b6120008216156117035760806116fe826fa9f746462d870fdf8a65dc1f90e061e56120ad565b901c90505b61400082161561172e576080611729826f70d869a156d2a1b890bb3df62baf32f76120ad565b901c90505b618000821615611759576080611754826f31be135f97d08fd981231505542fcfa66120ad565b901c90505b62010000821615611785576080611780826f09aa508b5b7a84e1c677de54f3e99bc96120ad565b901c90505b620200008216156117b05760806117ab826e5d6af8dedb81196699c329225ee6046120ad565b901c90505b620400008216156117da5760806117d5826d2216e584f5fa1ea926041bedfe986120ad565b901c90505b620800008216156118025760806117fd826b048a170391f7dc42444e8fa26120ad565b901c90505b60008460020b131561181d5761181a81600019612117565b90505b61182c6401000000008261224e565b1561183857600161183b565b60005b6110bb9060ff16602083901c6120c4565b6000808060001985870985870292508281108382030391505080600003611885576000841161187a57600080fd5b508290049050610952565b80841161189157600080fd5b6000848688098084039381119092039190506000856118af81612210565b169586900495938490049360008190030460010190506118cf81846120ad565b9093179260006118e08760036120ad565b60021890506118ef81886120ad565b6118fa906002611cca565b61190490826120ad565b905061191081886120ad565b61191b906002611cca565b61192590826120ad565b905061193181886120ad565b61193c906002611cca565b61194690826120ad565b905061195281886120ad565b61195d906002611cca565b61196790826120ad565b905061197381886120ad565b61197e906002611cca565b61198890826120ad565b905061199481886120ad565b61199f906002611cca565b6119a990826120ad565b90506119b581866120ad565b9998505050505050505050565b61135382826040516024016119d8929190612262565b60408051601f198184030181529190526020810180516001600160e01b031663319af33360e01b179052611b28565b6000828410158015611a195750818411155b80611a2f5750828411158015611a2f5750818410155b15611a3b575082610952565b838310158015611a4b5750818311155b80611a615750838311158015611a615750818310155b15611a6d575081610952565b5080610952565b6000600261094883856120c4565b601f546000908190611aa290600160a01b900461ffff1684612710611416565b600954601f5460405163a9059cbb60e01b81526001600160a01b03918216600482015260248101849052929350169063a9059cbb906044016020604051808303816000875af1158015611af9573d6000803e3d6000fd5b505050506040513d601f19601f82011682018060405250810190611b1d919061219a565b506109528184611cca565b80516a636f6e736f6c652e6c6f67602083016000808483855afa5050505050565b6000600160ff1b8203611b615750600160ff1b919050565b60008213611b7757611b7282612210565b610621565b5090565b60008060408385031215611b8e57600080fd5b82359150602083013560028110611ba457600080fd5b809150509250929050565b6001600160a01b038116811461141357600080fd5b600060208284031215611bd657600080fd5b813561095281611baf565b801515811461141357600080fd5b600080600060608486031215611c0457600080fd5b8335611c0f81611baf565b9250602084013591506040840135611c2681611be1565b809150509250925092565b60005b83811015611c4c578181015183820152602001611c34565b50506000910152565b60008151808452611c6d816020860160208601611c31565b601f01601f19169290920160200192915050565b60408152600960408201526853706f74507269636560b81b60608201526080602082015260006109526080830184611c55565b634e487b7160e01b600052601160045260246000fd5b8181038181111561062157610621611cb4565b634e487b7160e01b600052604160045260246000fd5b604051601f8201601f1916810167ffffffffffffffff81118282101715611d1c57611d1c611cdd565b604052919050565b600080600060608486031215611d3957600080fd5b8351611d4481611be1565b602085015190935067ffffffffffffffff80821115611d6257600080fd5b818601915086601f830112611d7657600080fd5b815181811115611d8857611d88611cdd565b611d9b601f8201601f1916602001611cf3565b9150808252876020828501011115611db257600080fd5b611dc3816020840160208601611c31565b508093505050604084015190509250925092565b600060208284031215611de957600080fd5b5051919050565b600060208284031215611e0257600080fd5b815161095281611baf565b634e487b7160e01b600052602160045260246000fd5b634e487b7160e01b600052603260045260246000fd5b6020808252825182820181905260009190848201906040850190845b81811015611e7757835163ffffffff1683529284019291840191600101611e55565b50909695505050505050565b600067ffffffffffffffff821115611e9d57611e9d611cdd565b5060051b60200190565b600082601f830112611eb857600080fd5b81516020611ecd611ec883611e83565b611cf3565b82815260059290921b84018101918181019086841115611eec57600080fd5b8286015b84811015611f10578051611f0381611baf565b8352918301918301611ef0565b509695505050505050565b60008060408385031215611f2e57600080fd5b825167ffffffffffffffff80821115611f4657600080fd5b818501915085601f830112611f5a57600080fd5b81516020611f6a611ec883611e83565b82815260059290921b84018101918181019089841115611f8957600080fd5b948201945b83861015611fb75785518060060b8114611fa85760008081fd5b82529482019490820190611f8e565b91880151919650909350505080821115611fd057600080fd5b50611fdd85828601611ea7565b9150509250929050565b600682810b9082900b03667fffffffffffff198112667fffffffffffff8213171561062157610621611cb4565b634e487b7160e01b600052601260045260246000fd5b60008160060b8360060b8061204157612041612014565b667fffffffffffff1982146000198214161561205f5761205f611cb4565b90059392505050565b60008260060b8061207b5761207b612014565b808360060b0791505092915050565b60008160020b627fffff1981036120a3576120a3611cb4565b6000190192915050565b808202811582820484141761062157610621611cb4565b8082018082111561062157610621611cb4565b6000600182016120e9576120e9611cb4565b5060010190565b818103600083128015838313168383128216171561211057612110611cb4565b5092915050565b60008261212657612126612014565b500490565b805169ffffffffffffffffffff8116811461214557600080fd5b919050565b600080600080600060a0868803121561216257600080fd5b61216b8661212b565b945060208601519350604086015192506060860151915061218e6080870161212b565b90509295509295909350565b6000602082840312156121ac57600080fd5b815161095281611be1565b6040815260006121ca6040830185611c55565b90508260208301529392505050565b6040815260006121ec6040830185611c55565b905082151560208301529392505050565b6020815260006109526020830184611c55565b6000600160ff1b820161222557612225611cb4565b5060000390565b60008160020b627fffff19810361224557612245611cb4565b60000392915050565b60008261225d5761225d612014565b500690565b6040815260006122756040830185611c55565b905060018060a01b0383166020830152939250505056fe626c6f636b2e74696d657374616d70202d20757064617465644174203c3d2074696d656f75743a20a26469706673582212207cf3b49b91a86008892cca6763125133037b3021348c9ecb4c44c5c8f999652e64736f6c63430008150033","linkReferences":{}},"methodIdentifiers":{"DISPUTE_BUFFER()":"c1874867","ETH_USD()":"6260f55b","TIMEOUT_EXTENDED()":"8c4c501d","TIMEOUT_LINK_ETHUSD()":"d6c10168","TIMEOUT_LINK_RETHETH()":"18087224","chargeOZLfee()":"8e9cd10c","getLastRewards()":"2cc3eb0a","getOracleBackUp1()":"0b842e3b","getOracleBackUp2()":"f32cabc5","getUnderlyingValue(address)":"97d2ead2","getUniPrice(uint256,uint8)":"3154b6e2","rETH_ETH()":"d4afb73a","rETH_USD()":"f424c4ba","setValuePerOzToken(address,uint256,bool)":"b0ff97b5"},"id":17}