{"abi":[{"type":"function","name":"DISPUTE_BUFFER","inputs":[],"outputs":[{"name":"","type":"uint256","internalType":"uint256"}],"stateMutability":"view"},{"type":"function","name":"ETH_USD","inputs":[],"outputs":[{"name":"","type":"uint256","internalType":"uint256"}],"stateMutability":"view"},{"type":"function","name":"TIMEOUT_EXTENDED","inputs":[],"outputs":[{"name":"","type":"uint256","internalType":"uint256"}],"stateMutability":"view"},{"type":"function","name":"TIMEOUT_LINK","inputs":[],"outputs":[{"name":"","type":"uint256","internalType":"uint256"}],"stateMutability":"view"},{"type":"function","name":"chargeOZLfee","inputs":[],"outputs":[{"name":"","type":"bool","internalType":"bool"}],"stateMutability":"nonpayable"},{"type":"function","name":"getLastRewards","inputs":[],"outputs":[{"name":"","type":"tuple","internalType":"struct LastRewards","components":[{"name":"lastBlock","type":"uint256","internalType":"uint256"},{"name":"prevTotalRewards","type":"uint256","internalType":"uint256"}]}],"stateMutability":"view"},{"type":"function","name":"getOracleBackUp1","inputs":[],"outputs":[{"name":"","type":"bool","internalType":"bool"},{"name":"","type":"uint256","internalType":"uint256"}],"stateMutability":"view"},{"type":"function","name":"getOracleBackUp2","inputs":[],"outputs":[{"name":"","type":"bool","internalType":"bool"},{"name":"","type":"uint256","internalType":"uint256"}],"stateMutability":"view"},{"type":"function","name":"getUnderlyingValue","inputs":[{"name":"ozToken_","type":"address","internalType":"address"}],"outputs":[{"name":"","type":"uint256","internalType":"uint256"}],"stateMutability":"view"},{"type":"function","name":"getUniPrice","inputs":[{"name":"tokenPair_","type":"uint256","internalType":"uint256"},{"name":"side_","type":"uint8","internalType":"enum Dir"}],"outputs":[{"name":"","type":"uint256","internalType":"uint256"}],"stateMutability":"view"},{"type":"function","name":"getUniPrice2","inputs":[{"name":"tokenPair_","type":"uint256","internalType":"uint256"},{"name":"side_","type":"uint8","internalType":"enum Dir"}],"outputs":[{"name":"","type":"uint256","internalType":"uint256"}],"stateMutability":"view"},{"type":"function","name":"rETH_ETH","inputs":[],"outputs":[{"name":"","type":"uint256","internalType":"uint256"}],"stateMutability":"view"},{"type":"function","name":"rETH_USD","inputs":[],"outputs":[{"name":"","type":"uint256","internalType":"uint256"}],"stateMutability":"view"},{"type":"function","name":"setValuePerOzToken","inputs":[{"name":"ozToken_","type":"address","internalType":"address"},{"name":"amount_","type":"uint256","internalType":"uint256"},{"name":"addOrSub_","type":"bool","internalType":"bool"}],"outputs":[],"stateMutability":"nonpayable"},{"type":"event","name":"OzRewards","inputs":[{"name":"blockNumber","type":"uint256","indexed":false,"internalType":"uint256"},{"name":"ozelFeesInRETH","type":"uint256","indexed":false,"internalType":"uint256"},{"name":"totalRewards","type":"int256","indexed":false,"internalType":"int256"},{"name":"currentRewards","type":"int256","indexed":false,"internalType":"int256"}],"anonymous":false},{"type":"error","name":"OZError14","inputs":[{"name":"blockNumber","type":"uint256","internalType":"uint256"}]},{"type":"error","name":"OZError23","inputs":[{"name":"baseToken","type":"address","internalType":"address"}]}],"bytecode":{"object":"0x608060405234801561001057600080fd5b50611f7a806100206000396000f3fe608060405234801561001057600080fd5b50600436106100ea5760003560e01c80638e9cd10c1161008c578063c187486711610066578063c1874867146101e0578063d4afb73a146101e9578063f32cabc5146101f1578063f424c4ba146101f957600080fd5b80638e9cd10c146101a057806397d2ead2146101b8578063b0ff97b5146101cb57600080fd5b80633154b6e2116100c85780633154b6e21461017257806340f1a34b146101855780636260f55b1461018e5780638c4c501d1461019657600080fd5b80630b842e3b146100ef578063243743c2146101135780632cc3eb0a14610134575b600080fd5b6100f7610201565b6040805192151583526020830191909152015b60405180910390f35b610126610121366004611866565b610360565b60405190815260200161010a565b60408051808201825260008082526020918201528151808301835260145480825260155491830191825283519081529051918101919091520161010a565b610126610180366004611866565b6104a8565b61012661384081565b6101266107bf565b6101266201518081565b6101a8610809565b604051901515815260200161010a565b6101266101c63660046118b2565b610a1c565b6101de6101d93660046118dd565b610ae8565b005b61012661038481565b610126610b54565b6100f7610b66565b610126610c04565b60008060006040516020016102479060408082526003908201819052620cae8d60eb1b6060830152608060208301819052820152621d5cd960ea1b60a082015260c00190565b60408051601f19818403018152908290526102649160200161196f565b60408051601f198184030181529190528051602090910120602354909150600090819081906001600160a01b031663a792765f856102a4610384426119b8565b6040516001600160e01b031960e085901b16815260048101929092526024820152604401600060405180830381865afa1580156102e5573d6000803e3d6000fd5b505050506040513d6000823e601f3d908101601f1916820160405261030d9190810190611a12565b92509250925082158061032b57506201518061032982426119b8565b115b1561033e57506000958695509350505050565b6001828060200190518101906103549190611ac5565b95509550505050509091565b600080600080600080600a0160009054906101000a90046001600160a01b03166001600160a01b031663feaf968c6040518163ffffffff1660e01b815260040160a060405180830381865afa1580156103bd573d6000803e3d6000fd5b505050506040513d601f19601f820116820180604052508101906103e19190611afd565b5091965091945085935091506001905086600181111561040357610403611b4d565b0361049b57600a546000906001600160a01b0316639a6fc8f5610427600187611b63565b6040516001600160e01b031960e084901b16815269ffffffffffffffffffff909116600482015260240160a060405180830381865afa15801561046e573d6000803e3d6000fd5b505050506040513d601f19601f820116820180604052508101906104929190611afd565b50919750505050505b5091925050505b92915050565b6000828152602b60209081526040808320815160608101835281546001600160a01b03908116808352600190930154808216838701819052600160a01b90910462ffffff169285018390526022548551630b4c774160e11b8152600481018690526024810183905260448101859052955194969195939488949190931692631698ee82926064808401939192918290030181865afa15801561054e573d6000803e3d6000fd5b505050506040513d601f19601f820116820180604052508101906105729190611b8d565b905060008087600181111561058957610589611b4d565b14610597576201518061059b565b6107085b60408051600280825260608201835262ffffff939093169350600092909160208301908036833701905050905081816000815181106105dc576105dc611baa565b602002602001019063ffffffff16908163ffffffff168152505060008160018151811061060b5761060b611baa565b63ffffffff9092166020928302919091019091015260405163883bdbfd60e01b81526000906001600160a01b0385169063883bdbfd9061064f908590600401611bc0565b600060405180830381865afa15801561066c573d6000803e3d6000fd5b505050506040513d6000823e601f3d908101601f191682016040526106949190810190611ca2565b5090506106d66040518060400160405280601f81526020017f726574682d7765746820706f6f6c20696e20676574556e6950726963653a200081525085610c33565b6000816000815181106106eb576106eb611baa565b60200260200101518260018151811061070657610706611baa565b60200260200101516107189190611d6e565b9050600061072a600386900b83611db1565b905060008260060b12801561074e5750610748600386900b83611def565b60060b15155b15610761578061075d81611e11565b9150505b600061077782670de0b6b3a76400008c8c610c7c565b6003549091506001600160a01b038a811691161461079a5764e8d4a5100061079d565b60015b6107ae9064ffffffffff1682611e34565b9d9c50505050505050505050505050565b600754600090819081906107dd906001600160a01b03166001610d8a565b9150915081610800576003546107fb906001600160a01b0316610ebf565b610802565b805b9250505090565b6009546040516370a0823160e01b815230600482015260009182916001600160a01b03909116906370a0823190602401602060405180830381865afa158015610856573d6000803e3d6000fd5b505050506040513d601f19601f8201168201806040525081019061087a9190611ac5565b90506000805b60015481101561093257600180548290811061089e5761089e611baa565b600091825260209182902060029091020154604080516278744560e21b815290516001600160a01b03909216926301e1d114926004808401938290030181865afa1580156108f0573d6000803e3d6000fd5b505050506040513d601f19601f820116820180604052508101906109149190611ac5565b61091e9083611e4b565b91508061092a81611e5e565b915050610880565b50601454431161095c5760405163dcfa2bfd60e01b81524360048201526024015b60405180910390fd5b6000806109698385611020565b9092509050600061097a8383611e77565b9050600081136109905760009550505050505090565b6015546000906109a09083611e77565b9050600081136109b7576000965050505050505090565b60006109c3838361108e565b6040805143815260208101839052908101859052606081018490529091507fd47935b2f6fd998224fcce47e28065f692a3452b54180fd1e43ba90daf9eb1949060800160405180910390a1600197505050505050505090565b6000806001600160a01b0383163014610a4d576001600160a01b038316600090815260216020526040902054610ab9565b6009546040516370a0823160e01b81523060048201526001600160a01b03909116906370a0823190602401602060405180830381865afa158015610a95573d6000803e3d6000fd5b505050506040513d601f19601f82011682018060405250810190610ab99190611ac5565b9050670de0b6b3a764000081610acd610c04565b610ad79190611e34565b610ae19190611e97565b9392505050565b8015610b21576001600160a01b03831660009081526021602052604081208054849290610b16908490611e4b565b90915550610b4f9050565b6001600160a01b03831660009081526021602052604081208054849290610b499084906119b8565b90915550505b505050565b6000610b616000806104a8565b905090565b602454600090819081908190610b85906001600160a01b031682610d8a565b60255491935091506000908190610ba5906001600160a01b031682610d8a565b91509150838015610bb35750815b15610bf6576000610be782670de0b6b3a7640000610be0876ec097ce7bc90715b34b9f1000000000611e97565b919061117e565b60019890975095505050505050565b506000958695509350505050565b6000670de0b6b3a7640000610c176107bf565b610c1f610b54565b610c299190611e34565b610b619190611e97565b610c788282604051602401610c49929190611eab565b60408051601f198184030181529190526020810180516001600160e01b031663319af33360e01b17905261119c565b5050565b600080610c88866111bd565b90506001600160801b036001600160a01b03821611610d0e576000610cb66001600160a01b03831680611e34565b9050836001600160a01b0316856001600160a01b031610610cee57610ce9600160c01b876001600160801b0316836115dd565b610d06565b610d0681876001600160801b0316600160c01b6115dd565b925050610d81565b6000610d2d6001600160a01b03831680680100000000000000006115dd565b9050836001600160a01b0316856001600160a01b031610610d6557610d60600160801b876001600160801b0316836115dd565b610d7d565b610d7d81876001600160801b0316600160801b6115dd565b9250505b50949350505050565b6000806138406402540be40084610da2576201518091505b600a546001600160a01b0390811690871603610dbc575060015b6000806000886001600160a01b031663feaf968c6040518163ffffffff1660e01b815260040160a060405180830381865afa158015610dff573d6000803e3d6000fd5b505050506040513d601f19601f82011682018060405250810190610e239190611afd565b50935050925092508269ffffffffffffffffffff166000141580610e5457506024546001600160a01b038a81169116145b8015610e605750600082135b8015610e6b57508015155b8015610e775750428111155b8015610e8c575084610e8982426119b8565b11155b15610eab576001610e9d8584611e34565b965096505050505050610eb8565b6000809650965050505050505b9250929050565b6003546000906001600160a01b0390811690831603610f36576000610ee6600260006104a8565b9050600080610ef3610201565b91509150600080610f02610b66565b91509150838015610f105750815b15610f2b57610f20858483611753565b979650505050505050565b509295945050505050565b6009546001600160a01b0390811690831603610ffc576000610f596000806104a8565b90506000610f69600160006104a8565b905060008060090160009054906101000a90046001600160a01b03166001600160a01b031663e6aa216c6040518163ffffffff1660e01b8152600401602060405180830381865afa158015610fc2573d6000803e3d6000fd5b505050506040513d601f19601f82011682018060405250810190610fe69190611ac5565b9050610ff3838383611753565b95945050505050565b60405163715ed81960e01b81526001600160a01b0383166004820152602401610953565b600080600061102d6107bf565b61103c8664e8d4a51000611e34565b61104e90670de0b6b3a7640000611e34565b6110589190611e97565b90506000670de0b6b3a764000061106d610b54565b6110779087611e34565b6110819190611e97565b9196919550909350505050565b60135460009081906110b2906601000000000000900462ffffff168461271061117e565b6015859055905060006110c3610b54565b6110d583670de0b6b3a7640000611e34565b6110df9190611e97565b905060006110ec826117c0565b60095460135460405163a9059cbb60e01b81526001600160a01b0369010000000000000000009092048216600482015260248101849052929350169063a9059cbb906044016020604051808303816000875af1158015611150573d6000803e3d6000fd5b505050506040513d601f19601f820116820180604052508101906111749190611ed5565b5095945050505050565b600082600019048411830215820261119557600080fd5b5091020490565b80516a636f6e736f6c652e6c6f67602083016000808483855afa5050505050565b60008060008360020b126111d4578260020b6111e1565b8260020b6111e190611ef2565b90506111f0620d89e719611f0e565b60020b8111156112265760405162461bcd60e51b81526020600482015260016024820152601560fa1b6044820152606401610953565b60008160011660000361123d57600160801b61124f565b6ffffcb933bd6fad37aa2d162d1a5940015b70ffffffffffffffffffffffffffffffffff169050600282161561128e576080611289826ffff97272373d413259a46990580e213a611e34565b901c90505b60048216156112b85760806112b3826ffff2e50f5f656932ef12357cf3c7fdcc611e34565b901c90505b60088216156112e25760806112dd826fffe5caca7e10e4e61c3624eaa0941cd0611e34565b901c90505b601082161561130c576080611307826fffcb9843d60f6159c9db58835c926644611e34565b901c90505b6020821615611336576080611331826fff973b41fa98c081472e6896dfb254c0611e34565b901c90505b604082161561136057608061135b826fff2ea16466c96a3843ec78b326b52861611e34565b901c90505b608082161561138a576080611385826ffe5dee046a99a2a811c461f1969c3053611e34565b901c90505b6101008216156113b55760806113b0826ffcbe86c7900a88aedcffc83b479aa3a4611e34565b901c90505b6102008216156113e05760806113db826ff987a7253ac413176f2b074cf7815e54611e34565b901c90505b61040082161561140b576080611406826ff3392b0822b70005940c7a398e4b70f3611e34565b901c90505b610800821615611436576080611431826fe7159475a2c29b7443b29c7fa6e889d9611e34565b901c90505b61100082161561146157608061145c826fd097f3bdfd2022b8845ad8f792aa5825611e34565b901c90505b61200082161561148c576080611487826fa9f746462d870fdf8a65dc1f90e061e5611e34565b901c90505b6140008216156114b75760806114b2826f70d869a156d2a1b890bb3df62baf32f7611e34565b901c90505b6180008216156114e25760806114dd826f31be135f97d08fd981231505542fcfa6611e34565b901c90505b6201000082161561150e576080611509826f09aa508b5b7a84e1c677de54f3e99bc9611e34565b901c90505b62020000821615611539576080611534826e5d6af8dedb81196699c329225ee604611e34565b901c90505b6204000082161561156357608061155e826d2216e584f5fa1ea926041bedfe98611e34565b901c90505b6208000082161561158b576080611586826b048a170391f7dc42444e8fa2611e34565b901c90505b60008460020b13156115a6576115a381600019611e97565b90505b6115b564010000000082611f30565b156115c15760016115c4565b60005b6115d59060ff16602083901c611e4b565b949350505050565b6000808060001985870985870292508281108382030391505080600003611616576000841161160b57600080fd5b508290049050610ae1565b80841161162257600080fd5b60008486880980840393811190920391905060008561164081611ef2565b169586900495938490049360008190030460010190506116608184611e34565b909317926000611671876003611e34565b60021890506116808188611e34565b61168b9060026119b8565b6116959082611e34565b90506116a18188611e34565b6116ac9060026119b8565b6116b69082611e34565b90506116c28188611e34565b6116cd9060026119b8565b6116d79082611e34565b90506116e38188611e34565b6116ee9060026119b8565b6116f89082611e34565b90506117048188611e34565b61170f9060026119b8565b6117199082611e34565b90506117258188611e34565b6117309060026119b8565b61173a9082611e34565b90506117468186611e34565b9998505050505050505050565b60008284101580156117655750818411155b8061177b575082841115801561177b5750818410155b15611787575082610ae1565b8383101580156117975750818311155b806117ad57508383111580156117ad5750818310155b156117b9575081610ae1565b5080610ae1565b601f5460009081906117e090600160a01b900461ffff168461271061117e565b600954601f5460405163a9059cbb60e01b81526001600160a01b03918216600482015260248101849052929350169063a9059cbb906044016020604051808303816000875af1158015611837573d6000803e3d6000fd5b505050506040513d601f19601f8201168201806040525081019061185b9190611ed5565b50610ae181846119b8565b6000806040838503121561187957600080fd5b8235915060208301356002811061188f57600080fd5b809150509250929050565b6001600160a01b03811681146118af57600080fd5b50565b6000602082840312156118c457600080fd5b8135610ae18161189a565b80151581146118af57600080fd5b6000806000606084860312156118f257600080fd5b83356118fd8161189a565b9250602084013591506040840135611914816118cf565b809150509250925092565b60005b8381101561193a578181015183820152602001611922565b50506000910152565b6000815180845261195b81602086016020860161191f565b601f01601f19169290920160200192915050565b60408152600960408201526853706f74507269636560b81b6060820152608060208201526000610ae16080830184611943565b634e487b7160e01b600052601160045260246000fd5b818103818111156104a2576104a26119a2565b634e487b7160e01b600052604160045260246000fd5b604051601f8201601f1916810167ffffffffffffffff81118282101715611a0a57611a0a6119cb565b604052919050565b600080600060608486031215611a2757600080fd5b8351611a32816118cf565b602085015190935067ffffffffffffffff80821115611a5057600080fd5b818601915086601f830112611a6457600080fd5b815181811115611a7657611a766119cb565b611a89601f8201601f19166020016119e1565b9150808252876020828501011115611aa057600080fd5b611ab181602084016020860161191f565b508093505050604084015190509250925092565b600060208284031215611ad757600080fd5b5051919050565b805169ffffffffffffffffffff81168114611af857600080fd5b919050565b600080600080600060a08688031215611b1557600080fd5b611b1e86611ade565b9450602086015193506040860151925060608601519150611b4160808701611ade565b90509295509295909350565b634e487b7160e01b600052602160045260246000fd5b69ffffffffffffffffffff828116828216039080821115611b8657611b866119a2565b5092915050565b600060208284031215611b9f57600080fd5b8151610ae18161189a565b634e487b7160e01b600052603260045260246000fd5b6020808252825182820181905260009190848201906040850190845b81811015611bfe57835163ffffffff1683529284019291840191600101611bdc565b50909695505050505050565b600067ffffffffffffffff821115611c2457611c246119cb565b5060051b60200190565b600082601f830112611c3f57600080fd5b81516020611c54611c4f83611c0a565b6119e1565b82815260059290921b84018101918181019086841115611c7357600080fd5b8286015b84811015611c97578051611c8a8161189a565b8352918301918301611c77565b509695505050505050565b60008060408385031215611cb557600080fd5b825167ffffffffffffffff80821115611ccd57600080fd5b818501915085601f830112611ce157600080fd5b81516020611cf1611c4f83611c0a565b82815260059290921b84018101918181019089841115611d1057600080fd5b948201945b83861015611d3e5785518060060b8114611d2f5760008081fd5b82529482019490820190611d15565b91880151919650909350505080821115611d5757600080fd5b50611d6485828601611c2e565b9150509250929050565b600682810b9082900b03667fffffffffffff198112667fffffffffffff821317156104a2576104a26119a2565b634e487b7160e01b600052601260045260246000fd5b60008160060b8360060b80611dc857611dc8611d9b565b667fffffffffffff19821460001982141615611de657611de66119a2565b90059392505050565b60008260060b80611e0257611e02611d9b565b808360060b0791505092915050565b60008160020b627fffff198103611e2a57611e2a6119a2565b6000190192915050565b80820281158282048414176104a2576104a26119a2565b808201808211156104a2576104a26119a2565b600060018201611e7057611e706119a2565b5060010190565b8181036000831280158383131683831282161715611b8657611b866119a2565b600082611ea657611ea6611d9b565b500490565b604081526000611ebe6040830185611943565b905060018060a01b03831660208301529392505050565b600060208284031215611ee757600080fd5b8151610ae1816118cf565b6000600160ff1b8201611f0757611f076119a2565b5060000390565b60008160020b627fffff198103611f2757611f276119a2565b60000392915050565b600082611f3f57611f3f611d9b565b50069056fea2646970667358221220a80233ee714730dd0c8d54610770bb508a34e28c1dc532804456f5e249764bcd64736f6c63430008150033","linkReferences":{}},"methodIdentifiers":{"DISPUTE_BUFFER()":"c1874867","ETH_USD()":"6260f55b","TIMEOUT_EXTENDED()":"8c4c501d","TIMEOUT_LINK()":"40f1a34b","chargeOZLfee()":"8e9cd10c","getLastRewards()":"2cc3eb0a","getOracleBackUp1()":"0b842e3b","getOracleBackUp2()":"f32cabc5","getUnderlyingValue(address)":"97d2ead2","getUniPrice(uint256,uint8)":"3154b6e2","getUniPrice2(uint256,uint8)":"243743c2","rETH_ETH()":"d4afb73a","rETH_USD()":"f424c4ba","setValuePerOzToken(address,uint256,bool)":"b0ff97b5"},"id":19}