{
  "abi": [
    {
      "inputs": [
        {
          "internalType": "uint256",
          "name": "blockNumber",
          "type": "uint256"
        }
      ],
      "name": "OZError14",
      "type": "error"
    },
    {
      "anonymous": false,
      "inputs": [
        {
          "indexed": false,
          "internalType": "uint256",
          "name": "blockNumber",
          "type": "uint256"
        },
        {
          "indexed": false,
          "internalType": "uint256",
          "name": "ozelFeesInRETH",
          "type": "uint256"
        },
        {
          "indexed": false,
          "internalType": "int256",
          "name": "totalRewards",
          "type": "int256"
        },
        {
          "indexed": false,
          "internalType": "int256",
          "name": "currentRewards",
          "type": "int256"
        }
      ],
      "name": "OzRewards",
      "type": "event"
    },
    {
      "inputs": [],
      "name": "ETH_USD",
      "outputs": [
        {
          "internalType": "uint256",
          "name": "",
          "type": "uint256"
        }
      ],
      "stateMutability": "view",
      "type": "function"
    },
    {
      "inputs": [],
      "name": "chargeOZLfee",
      "outputs": [
        {
          "internalType": "bool",
          "name": "",
          "type": "bool"
        }
      ],
      "stateMutability": "nonpayable",
      "type": "function"
    },
    {
      "inputs": [],
      "name": "getLastRewards",
      "outputs": [
        {
          "components": [
            {
              "internalType": "uint256",
              "name": "lastBlock",
              "type": "uint256"
            },
            {
              "internalType": "uint256",
              "name": "prevTotalRewards",
              "type": "uint256"
            }
          ],
          "internalType": "struct LastRewards",
          "name": "",
          "type": "tuple"
        }
      ],
      "stateMutability": "view",
      "type": "function"
    },
    {
      "inputs": [
        {
          "internalType": "address",
          "name": "ozToken_",
          "type": "address"
        }
      ],
      "name": "getUnderlyingValue",
      "outputs": [
        {
          "internalType": "uint256",
          "name": "",
          "type": "uint256"
        }
      ],
      "stateMutability": "view",
      "type": "function"
    },
    {
      "inputs": [],
      "name": "getUnderlyingValue2",
      "outputs": [
        {
          "internalType": "uint256",
          "name": "",
          "type": "uint256"
        }
      ],
      "stateMutability": "view",
      "type": "function"
    },
    {
      "inputs": [],
      "name": "rETH_ETH",
      "outputs": [
        {
          "internalType": "uint256",
          "name": "",
          "type": "uint256"
        }
      ],
      "stateMutability": "view",
      "type": "function"
    },
    {
      "inputs": [],
      "name": "rETH_USD",
      "outputs": [
        {
          "internalType": "uint256",
          "name": "",
          "type": "uint256"
        }
      ],
      "stateMutability": "view",
      "type": "function"
    },
    {
      "inputs": [
        {
          "internalType": "address",
          "name": "ozToken_",
          "type": "address"
        },
        {
          "internalType": "uint256",
          "name": "amount_",
          "type": "uint256"
        }
      ],
      "name": "setValuePerOzToken",
      "outputs": [],
      "stateMutability": "nonpayable",
      "type": "function"
    }
  ],
  "bytecode": {
    "object": "0x608060405234801561001057600080fd5b50610b8a806100206000396000f3fe608060405234801561001057600080fd5b50600436106100885760003560e01c806397d2ead21161005b57806397d2ead214610113578063d4afb73a14610126578063e2f6fba11461012e578063f424c4ba1461013657600080fd5b80632cc3eb0a1461008d5780636260f55b146100d05780638e9cd10c146100e65780638f4daf32146100fe575b600080fd5b6040805180820182526000808252602091820152815180830183526016548082526017549183019182528351908152905191810191909152015b60405180910390f35b6100d861013e565b6040519081526020016100c7565b6100ee6101d8565b60405190151581526020016100c7565b61011161010c36600461099f565b6103e5565b005b6100d86101213660046109c9565b610416565b6100d861057f565b6100d8610607565b6100d8610740565b600080600060070160009054906101000a90046001600160a01b03166001600160a01b031663feaf968c6040518163ffffffff1660e01b815260040160a060405180830381865afa158015610197573d6000803e3d6000fd5b505050506040513d601f19601f820116820180604052508101906101bb91906109fe565b505050915050806402540be4006101d29190610a64565b91505090565b6009546040516370a0823160e01b815230600482015260009182916001600160a01b03909116906370a0823190602401602060405180830381865afa158015610225573d6000803e3d6000fd5b505050506040513d601f19601f820116820180604052508101906102499190610a7b565b90506000805b6001548110156102fc57600180548290811061026d5761026d610a94565b60009182526020918290200154604080516278744560e21b815290516001600160a01b03909216926301e1d114926004808401938290030181865afa1580156102ba573d6000803e3d6000fd5b505050506040513d601f19601f820116820180604052508101906102de9190610a7b565b6102e89083610aaa565b9150806102f481610abd565b91505061024f565b5060165443116103255760405163dcfa2bfd60e01b815243600482015260240160405180910390fd5b6000806103328385610777565b909250905060006103438383610ad6565b9050600081136103595760009550505050505090565b6017546000906103699083610ad6565b905060008113610380576000965050505050505090565b600061038c83836107e5565b6040805143815260208101839052908101859052606081018490529091507fd47935b2f6fd998224fcce47e28065f692a3452b54180fd1e43ba90daf9eb1949060800160405180910390a1600197505050505050505090565b6001600160a01b0382166000908152602360205260408120805483929061040d908490610aaa565b90915550505050565b6000806001600160a01b0383163014610447576001600160a01b0383166000908152602360205260409020546104b3565b6009546040516370a0823160e01b81523060048201526001600160a01b03909116906370a0823190602401602060405180830381865afa15801561048f573d6000803e3d6000fd5b505050506040513d601f19601f820116820180604052508101906104b39190610a7b565b905060008060090160009054906101000a90046001600160a01b03166001600160a01b031663e6aa216c6040518163ffffffff1660e01b8152600401602060405180830381865afa15801561050c573d6000803e3d6000fd5b505050506040513d601f19601f820116820180604052508101906105309190610a7b565b90506000670de0b6b3a764000061054561013e565b670de0b6b3a76400006105588686610a64565b6105629190610afd565b61056c9190610a64565b6105769190610afd565b95945050505050565b6000806000600a0160009054906101000a90046001600160a01b03166001600160a01b031663feaf968c6040518163ffffffff1660e01b815260040160a060405180830381865afa1580156105d8573d6000803e3d6000fd5b505050506040513d601f19601f820116820180604052508101906105fc91906109fe565b509195945050505050565b6009546040516370a0823160e01b815230600482015260009182916001600160a01b03909116906370a0823190602401602060405180830381865afa158015610654573d6000803e3d6000fd5b505050506040513d601f19601f820116820180604052508101906106789190610a7b565b905060008060090160009054906101000a90046001600160a01b03166001600160a01b031663e6aa216c6040518163ffffffff1660e01b8152600401602060405180830381865afa1580156106d1573d6000803e3d6000fd5b505050506040513d601f19601f820116820180604052508101906106f59190610a7b565b9050670de0b6b3a764000061070861013e565b670de0b6b3a764000061071b8585610a64565b6107259190610afd565b61072f9190610a64565b6107399190610afd565b9250505090565b6000670de0b6b3a764000061075361013e565b61075b61057f565b6107659190610a64565b61076f9190610afd565b600218905090565b600080600061078461013e565b6107938664e8d4a51000610a64565b6107a590670de0b6b3a7640000610a64565b6107af9190610afd565b90506000670de0b6b3a76400006107c461057f565b6107ce9087610a64565b6107d89190610afd565b9196919550909350505050565b60155460009081906107ff9062ffffff16846127106108c7565b60178590559050600061081061057f565b61082283670de0b6b3a7640000610a64565b61082c9190610afd565b90506000610839826108e5565b60095460155460405163a9059cbb60e01b81526001600160a01b0363010000009092048216600482015260248101849052929350169063a9059cbb906044016020604051808303816000875af1158015610897573d6000803e3d6000fd5b505050506040513d601f19601f820116820180604052508101906108bb9190610b1f565b50925050505b92915050565b60008260001904841183021582026108de57600080fd5b5091020490565b6000806108f66032846127106108c7565b60095460215460405163a9059cbb60e01b81526001600160a01b03918216600482015260248101849052929350169063a9059cbb906044016020604051808303816000875af115801561094d573d6000803e3d6000fd5b505050506040513d601f19601f820116820180604052508101906109719190610b1f565b5061097c8184610b41565b9392505050565b80356001600160a01b038116811461099a57600080fd5b919050565b600080604083850312156109b257600080fd5b6109bb83610983565b946020939093013593505050565b6000602082840312156109db57600080fd5b61097c82610983565b805169ffffffffffffffffffff8116811461099a57600080fd5b600080600080600060a08688031215610a1657600080fd5b610a1f866109e4565b9450602086015193506040860151925060608601519150610a42608087016109e4565b90509295509295909350565b634e487b7160e01b600052601160045260246000fd5b80820281158282048414176108c1576108c1610a4e565b600060208284031215610a8d57600080fd5b5051919050565b634e487b7160e01b600052603260045260246000fd5b808201808211156108c1576108c1610a4e565b600060018201610acf57610acf610a4e565b5060010190565b8181036000831280158383131683831282161715610af657610af6610a4e565b5092915050565b600082610b1a57634e487b7160e01b600052601260045260246000fd5b500490565b600060208284031215610b3157600080fd5b8151801515811461097c57600080fd5b818103818111156108c1576108c1610a4e56fea264697066735822122093a08c3e3448e13ef6d8610e582377b88d17f2069f75cee15f9525946d6ee5d564736f6c63430008150033",
    "linkReferences": {}
  },
  "methodIdentifiers": {
    "ETH_USD()": "6260f55b",
    "chargeOZLfee()": "8e9cd10c",
    "getLastRewards()": "2cc3eb0a",
    "getUnderlyingValue(address)": "97d2ead2",
    "getUnderlyingValue2()": "e2f6fba1",
    "rETH_ETH()": "d4afb73a",
    "rETH_USD()": "f424c4ba",
    "setValuePerOzToken(address,uint256)": "8f4daf32"
  },
  "id": 17
}