{
  "abi": [
    {
      "inputs": [
        {
          "internalType": "uint256",
          "name": "blockNumber",
          "type": "uint256"
        }
      ],
      "name": "OZError14",
      "type": "error"
    },
    {
      "anonymous": false,
      "inputs": [
        {
          "indexed": false,
          "internalType": "uint256",
          "name": "blockNumber",
          "type": "uint256"
        },
        {
          "indexed": false,
          "internalType": "uint256",
          "name": "ozelFeesInRETH",
          "type": "uint256"
        },
        {
          "indexed": false,
          "internalType": "int256",
          "name": "totalRewards",
          "type": "int256"
        },
        {
          "indexed": false,
          "internalType": "int256",
          "name": "currentRewards",
          "type": "int256"
        }
      ],
      "name": "OzRewards",
      "type": "event"
    },
    {
      "inputs": [],
      "name": "ETH_USD",
      "outputs": [
        {
          "internalType": "uint256",
          "name": "",
          "type": "uint256"
        }
      ],
      "stateMutability": "view",
      "type": "function"
    },
    {
      "inputs": [],
      "name": "chargeOZLfee",
      "outputs": [
        {
          "internalType": "bool",
          "name": "",
          "type": "bool"
        }
      ],
      "stateMutability": "nonpayable",
      "type": "function"
    },
    {
      "inputs": [],
      "name": "getLastRewards",
      "outputs": [
        {
          "components": [
            {
              "internalType": "uint256",
              "name": "lastBlock",
              "type": "uint256"
            },
            {
              "internalType": "uint256",
              "name": "prevTotalRewards",
              "type": "uint256"
            }
          ],
          "internalType": "struct LastRewards",
          "name": "",
          "type": "tuple"
        }
      ],
      "stateMutability": "view",
      "type": "function"
    },
    {
      "inputs": [
        {
          "internalType": "address",
          "name": "ozToken_",
          "type": "address"
        }
      ],
      "name": "getUnderlyingValue",
      "outputs": [
        {
          "internalType": "uint256",
          "name": "",
          "type": "uint256"
        }
      ],
      "stateMutability": "view",
      "type": "function"
    },
    {
      "inputs": [],
      "name": "getUnderlyingValue2",
      "outputs": [
        {
          "internalType": "uint256",
          "name": "",
          "type": "uint256"
        }
      ],
      "stateMutability": "view",
      "type": "function"
    },
    {
      "inputs": [],
      "name": "rETH_ETH",
      "outputs": [
        {
          "internalType": "uint256",
          "name": "",
          "type": "uint256"
        }
      ],
      "stateMutability": "view",
      "type": "function"
    },
    {
      "inputs": [],
      "name": "rETH_USD",
      "outputs": [
        {
          "internalType": "uint256",
          "name": "",
          "type": "uint256"
        }
      ],
      "stateMutability": "view",
      "type": "function"
    },
    {
      "inputs": [
        {
          "internalType": "address",
          "name": "ozToken_",
          "type": "address"
        },
        {
          "internalType": "uint256",
          "name": "amount_",
          "type": "uint256"
        },
        {
          "internalType": "bool",
          "name": "addOrSub_",
          "type": "bool"
        }
      ],
      "name": "setValuePerOzToken",
      "outputs": [],
      "stateMutability": "nonpayable",
      "type": "function"
    }
  ],
  "bytecode": {
    "object": "0x608060405234801561001057600080fd5b50610be5806100206000396000f3fe608060405234801561001057600080fd5b50600436106100885760003560e01c8063b0ff97b51161005b578063b0ff97b514610111578063d4afb73a14610126578063e2f6fba11461012e578063f424c4ba1461013657600080fd5b80632cc3eb0a1461008d5780636260f55b146100d05780638e9cd10c146100e657806397d2ead2146100fe575b600080fd5b6040805180820182526000808252602091820152815180830183526016548082526017549183019182528351908152905191810191909152015b60405180910390f35b6100d861013e565b6040519081526020016100c7565b6100ee6101d8565b60405190151581526020016100c7565b6100d861010c3660046109d8565b6103e5565b61012461011f366004610a04565b61054b565b005b6100d86105b8565b6100d8610640565b6100d8610779565b600080600060070160009054906101000a90046001600160a01b03166001600160a01b031663feaf968c6040518163ffffffff1660e01b815260040160a060405180830381865afa158015610197573d6000803e3d6000fd5b505050506040513d601f19601f820116820180604052508101906101bb9190610a5e565b505050915050806402540be4006101d29190610ac4565b91505090565b6009546040516370a0823160e01b815230600482015260009182916001600160a01b03909116906370a0823190602401602060405180830381865afa158015610225573d6000803e3d6000fd5b505050506040513d601f19601f820116820180604052508101906102499190610adb565b90506000805b6001548110156102fc57600180548290811061026d5761026d610af4565b60009182526020918290200154604080516278744560e21b815290516001600160a01b03909216926301e1d114926004808401938290030181865afa1580156102ba573d6000803e3d6000fd5b505050506040513d601f19601f820116820180604052508101906102de9190610adb565b6102e89083610b0a565b9150806102f481610b1d565b91505061024f565b5060165443116103255760405163dcfa2bfd60e01b815243600482015260240160405180910390fd5b60008061033283856107b0565b909250905060006103438383610b36565b9050600081136103595760009550505050505090565b6017546000906103699083610b36565b905060008113610380576000965050505050505090565b600061038c838361081e565b6040805143815260208101839052908101859052606081018490529091507fd47935b2f6fd998224fcce47e28065f692a3452b54180fd1e43ba90daf9eb1949060800160405180910390a1600197505050505050505090565b6000806001600160a01b0383163014610416576001600160a01b038316600090815260236020526040902054610482565b6009546040516370a0823160e01b81523060048201526001600160a01b03909116906370a0823190602401602060405180830381865afa15801561045e573d6000803e3d6000fd5b505050506040513d601f19601f820116820180604052508101906104829190610adb565b905060008060090160009054906101000a90046001600160a01b03166001600160a01b031663e6aa216c6040518163ffffffff1660e01b8152600401602060405180830381865afa1580156104db573d6000803e3d6000fd5b505050506040513d601f19601f820116820180604052508101906104ff9190610adb565b9050670de0b6b3a764000061051261013e565b670de0b6b3a76400006105258585610ac4565b61052f9190610b5d565b6105399190610ac4565b6105439190610b5d565b949350505050565b80610583576001600160a01b03831660009081526023602052604081208054849290610578908490610b7f565b9250508190556105b2565b6001600160a01b038316600090815260236020526040812080548492906105ab908490610b0a565b9250508190555b50505050565b6000806000600a0160009054906101000a90046001600160a01b03166001600160a01b031663feaf968c6040518163ffffffff1660e01b815260040160a060405180830381865afa158015610611573d6000803e3d6000fd5b505050506040513d601f19601f820116820180604052508101906106359190610a5e565b509195945050505050565b6009546040516370a0823160e01b815230600482015260009182916001600160a01b03909116906370a0823190602401602060405180830381865afa15801561068d573d6000803e3d6000fd5b505050506040513d601f19601f820116820180604052508101906106b19190610adb565b905060008060090160009054906101000a90046001600160a01b03166001600160a01b031663e6aa216c6040518163ffffffff1660e01b8152600401602060405180830381865afa15801561070a573d6000803e3d6000fd5b505050506040513d601f19601f8201168201806040525081019061072e9190610adb565b9050670de0b6b3a764000061074161013e565b670de0b6b3a76400006107548585610ac4565b61075e9190610b5d565b6107689190610ac4565b6107729190610b5d565b9250505090565b6000670de0b6b3a764000061078c61013e565b6107946105b8565b61079e9190610ac4565b6107a89190610b5d565b600218905090565b60008060006107bd61013e565b6107cc8664e8d4a51000610ac4565b6107de90670de0b6b3a7640000610ac4565b6107e89190610b5d565b90506000670de0b6b3a76400006107fd6105b8565b6108079087610ac4565b6108119190610b5d565b9196919550909350505050565b60155460009081906108389062ffffff1684612710610900565b6017859055905060006108496105b8565b61085b83670de0b6b3a7640000610ac4565b6108659190610b5d565b905060006108728261091e565b60095460155460405163a9059cbb60e01b81526001600160a01b0363010000009092048216600482015260248101849052929350169063a9059cbb906044016020604051808303816000875af11580156108d0573d6000803e3d6000fd5b505050506040513d601f19601f820116820180604052508101906108f49190610b92565b50925050505b92915050565b600082600019048411830215820261091757600080fd5b5091020490565b60008061092f603284612710610900565b60095460215460405163a9059cbb60e01b81526001600160a01b03918216600482015260248101849052929350169063a9059cbb906044016020604051808303816000875af1158015610986573d6000803e3d6000fd5b505050506040513d601f19601f820116820180604052508101906109aa9190610b92565b506109b58184610b7f565b9392505050565b80356001600160a01b03811681146109d357600080fd5b919050565b6000602082840312156109ea57600080fd5b6109b5826109bc565b8015158114610a0157600080fd5b50565b600080600060608486031215610a1957600080fd5b610a22846109bc565b9250602084013591506040840135610a39816109f3565b809150509250925092565b805169ffffffffffffffffffff811681146109d357600080fd5b600080600080600060a08688031215610a7657600080fd5b610a7f86610a44565b9450602086015193506040860151925060608601519150610aa260808701610a44565b90509295509295909350565b634e487b7160e01b600052601160045260246000fd5b80820281158282048414176108fa576108fa610aae565b600060208284031215610aed57600080fd5b5051919050565b634e487b7160e01b600052603260045260246000fd5b808201808211156108fa576108fa610aae565b600060018201610b2f57610b2f610aae565b5060010190565b8181036000831280158383131683831282161715610b5657610b56610aae565b5092915050565b600082610b7a57634e487b7160e01b600052601260045260246000fd5b500490565b818103818111156108fa576108fa610aae565b600060208284031215610ba457600080fd5b81516109b5816109f356fea2646970667358221220f525f7f2724532659a4affed668b4be94ef3d7bb1281393f88c67ad6f00fe26d64736f6c63430008150033",
    "linkReferences": {}
  },
  "methodIdentifiers": {
    "ETH_USD()": "6260f55b",
    "chargeOZLfee()": "8e9cd10c",
    "getLastRewards()": "2cc3eb0a",
    "getUnderlyingValue(address)": "97d2ead2",
    "getUnderlyingValue2()": "e2f6fba1",
    "rETH_ETH()": "d4afb73a",
    "rETH_USD()": "f424c4ba",
    "setValuePerOzToken(address,uint256,bool)": "b0ff97b5"
  },
  "id": 17
}