{"abi":[{"type":"function","name":"DISPUTE_BUFFER","inputs":[],"outputs":[{"name":"","type":"uint256","internalType":"uint256"}],"stateMutability":"view"},{"type":"function","name":"ETH_USD","inputs":[],"outputs":[{"name":"","type":"uint256","internalType":"uint256"}],"stateMutability":"view"},{"type":"function","name":"TIMEOUT_EXTENDED","inputs":[],"outputs":[{"name":"","type":"uint256","internalType":"uint256"}],"stateMutability":"view"},{"type":"function","name":"TIMEOUT_LINK","inputs":[],"outputs":[{"name":"","type":"uint256","internalType":"uint256"}],"stateMutability":"view"},{"type":"function","name":"chargeOZLfee","inputs":[],"outputs":[{"name":"","type":"bool","internalType":"bool"}],"stateMutability":"nonpayable"},{"type":"function","name":"getLastRewards","inputs":[],"outputs":[{"name":"","type":"tuple","internalType":"struct LastRewards","components":[{"name":"lastBlock","type":"uint256","internalType":"uint256"},{"name":"prevTotalRewards","type":"uint256","internalType":"uint256"}]}],"stateMutability":"view"},{"type":"function","name":"getOracleBackUp1","inputs":[],"outputs":[{"name":"","type":"bool","internalType":"bool"},{"name":"","type":"uint256","internalType":"uint256"}],"stateMutability":"view"},{"type":"function","name":"getOracleBackUp2","inputs":[],"outputs":[{"name":"","type":"bool","internalType":"bool"},{"name":"","type":"uint256","internalType":"uint256"}],"stateMutability":"view"},{"type":"function","name":"getUnderlyingValue","inputs":[{"name":"ozToken_","type":"address","internalType":"address"}],"outputs":[{"name":"","type":"uint256","internalType":"uint256"}],"stateMutability":"view"},{"type":"function","name":"getUniPrice","inputs":[{"name":"tokenPair_","type":"uint256","internalType":"uint256"},{"name":"side_","type":"uint8","internalType":"enum Dir"}],"outputs":[{"name":"","type":"uint256","internalType":"uint256"}],"stateMutability":"view"},{"type":"function","name":"rETH_ETH","inputs":[],"outputs":[{"name":"","type":"uint256","internalType":"uint256"}],"stateMutability":"view"},{"type":"function","name":"rETH_USD","inputs":[],"outputs":[{"name":"","type":"uint256","internalType":"uint256"}],"stateMutability":"view"},{"type":"function","name":"setValuePerOzToken","inputs":[{"name":"ozToken_","type":"address","internalType":"address"},{"name":"amount_","type":"uint256","internalType":"uint256"},{"name":"addOrSub_","type":"bool","internalType":"bool"}],"outputs":[],"stateMutability":"nonpayable"},{"type":"event","name":"APRcalculated","inputs":[{"name":"apr","type":"uint256","indexed":true,"internalType":"uint256"},{"name":"currentRewardsUSD","type":"uint256","indexed":false,"internalType":"uint256"},{"name":"totalAssets","type":"uint256","indexed":false,"internalType":"uint256"},{"name":"deltaStamp","type":"uint256","indexed":false,"internalType":"uint256"}],"anonymous":false},{"type":"event","name":"OzRewards","inputs":[{"name":"blockNumber","type":"uint256","indexed":false,"internalType":"uint256"},{"name":"ozelFeesInRETH","type":"uint256","indexed":false,"internalType":"uint256"},{"name":"totalRewards","type":"int256","indexed":false,"internalType":"int256"},{"name":"currentRewards","type":"int256","indexed":false,"internalType":"int256"}],"anonymous":false},{"type":"error","name":"OZError14","inputs":[{"name":"blockNumber","type":"uint256","internalType":"uint256"}]},{"type":"error","name":"OZError23","inputs":[{"name":"baseToken","type":"address","internalType":"address"}]}],"bytecode":{"object":"0x608060405234801561001057600080fd5b50611e90806100206000396000f3fe608060405234801561001057600080fd5b50600436106100cf5760003560e01c80638e9cd10c1161008c578063c187486711610066578063c1874867146101b2578063d4afb73a146101bb578063f32cabc5146101c3578063f424c4ba146101cb57600080fd5b80638e9cd10c1461017257806397d2ead21461018a578063b0ff97b51461019d57600080fd5b80630b842e3b146100d45780632cc3eb0a146100f85780633154b6e21461013657806340f1a34b146101575780636260f55b146101605780638c4c501d14610168575b600080fd5b6100dc6101d3565b6040805192151583526020830191909152015b60405180910390f35b6040805180820182526000808252602091820152815180830183526014548082526015549183019182528351908152905191810191909152016100ef565b6101496101443660046117d5565b610332565b6040519081526020016100ef565b61014961384081565b61014961060c565b6101496201518081565b61017a610656565b60405190151581526020016100ef565b610149610198366004611821565b610872565b6101b06101ab36600461184c565b61093e565b005b61014961038481565b6101496109aa565b6100dc610a22565b610149610ac0565b60008060006040516020016102199060408082526003908201819052620cae8d60eb1b6060830152608060208301819052820152621d5cd960ea1b60a082015260c00190565b60408051601f1981840301815290829052610236916020016118b2565b60408051601f198184030181529190528051602090910120602354909150600090819081906001600160a01b031663a792765f856102766103844261191b565b6040516001600160e01b031960e085901b16815260048101929092526024820152604401600060405180830381865afa1580156102b7573d6000803e3d6000fd5b505050506040513d6000823e601f3d908101601f191682016040526102df9190810190611975565b9250925092508215806102fd5750620151806102fb824261191b565b115b1561031057506000958695509350505050565b6001828060200190518101906103269190611a28565b95509550505050509091565b6000828152602b60209081526040808320815160608101835281546001600160a01b03908116808352600190930154808216838701819052600160a01b90910462ffffff169285018390526022548551630b4c774160e11b8152600481018690526024810183905260448101859052955194969195939488949190931692631698ee82926064808401939192918290030181865afa1580156103d8573d6000803e3d6000fd5b505050506040513d601f19601f820116820180604052508101906103fc9190611a41565b905060008087600181111561041357610413611a5e565b146104215762015180610425565b6107085b60408051600280825260608201835262ffffff9390931693506000929091602083019080368337019050509050818160008151811061046657610466611a74565b602002602001019063ffffffff16908163ffffffff168152505060008160018151811061049557610495611a74565b63ffffffff9092166020928302919091019091015260405163883bdbfd60e01b81526000906001600160a01b0385169063883bdbfd906104d9908590600401611a8a565b600060405180830381865afa1580156104f6573d6000803e3d6000fd5b505050506040513d6000823e601f3d908101601f1916820160405261051e9190810190611b6c565b50905060008160008151811061053657610536611a74565b60200260200101518260018151811061055157610551611a74565b60200260200101516105639190611c38565b90506000610575600386900b83611c7b565b905060008260060b1280156105995750610593600386900b83611cb9565b60060b15155b156105ac57806105a881611cdb565b9150505b60006105c282670de0b6b3a76400008c8c610af4565b6003549091506001600160a01b038a81169116146105e55764e8d4a510006105e8565b60015b6105f99064ffffffffff1682611cfe565b9a50505050505050505050505b92915050565b6007546000908190819061062a906001600160a01b03166001610c02565b915091508161064d57600354610648906001600160a01b0316610d37565b61064f565b805b9250505090565b6009546040516370a0823160e01b815230600482015260009182916001600160a01b03909116906370a0823190602401602060405180830381865afa1580156106a3573d6000803e3d6000fd5b505050506040513d601f19601f820116820180604052508101906106c79190611a28565b90506000805b60015481101561077f5760018054829081106106eb576106eb611a74565b600091825260209182902060029091020154604080516278744560e21b815290516001600160a01b03909216926301e1d114926004808401938290030181865afa15801561073d573d6000803e3d6000fd5b505050506040513d601f19601f820116820180604052508101906107619190611a28565b61076b9083611d15565b91508061077781611d28565b9150506106cd565b5060145443116107a95760405163dcfa2bfd60e01b81524360048201526024015b60405180910390fd5b6000806107b68385610e87565b909250905060006107c78383611d41565b9050600081136107dd5760009550505050505090565b6015546000906107ed9083611d41565b905060008113610804576000965050505050505090565b60006108108383610ef5565b905061081c8287610fe5565b6040805143815260208101839052908101849052606081018390527fd47935b2f6fd998224fcce47e28065f692a3452b54180fd1e43ba90daf9eb1949060800160405180910390a1600197505050505050505090565b6000806001600160a01b03831630146108a3576001600160a01b03831660009081526021602052604090205461090f565b6009546040516370a0823160e01b81523060048201526001600160a01b03909116906370a0823190602401602060405180830381865afa1580156108eb573d6000803e3d6000fd5b505050506040513d601f19601f8201168201806040525081019061090f9190611a28565b9050670de0b6b3a764000081610923610ac0565b61092d9190611cfe565b6109379190611d68565b9392505050565b8015610977576001600160a01b0383166000908152602160205260408120805484929061096c908490611d15565b909155506109a59050565b6001600160a01b0383166000908152602160205260408120805484929061099f90849061191b565b90915550505b505050565b600a54600090819081906109c8906001600160a01b03166001610c02565b9150915060006109d9600080610332565b602c549091506109f0908290849061ffff166110a2565b80156109f95750825b15610a05579392505050565b600954610a1a906001600160a01b0316610d37565b935050505090565b602454600090819081908190610a41906001600160a01b031682610c02565b60255491935091506000908190610a61906001600160a01b031682610c02565b91509150838015610a6f5750815b15610ab2576000610aa382670de0b6b3a7640000610a9c876ec097ce7bc90715b34b9f1000000000611d68565b91906110d6565b60019890975095505050505050565b506000958695509350505050565b6000670de0b6b3a7640000610ad361060c565b610adb6109aa565b610ae59190611cfe565b610aef9190611d68565b905090565b600080610b00866110f4565b90506001600160801b036001600160a01b03821611610b86576000610b2e6001600160a01b03831680611cfe565b9050836001600160a01b0316856001600160a01b031610610b6657610b61600160c01b876001600160801b03168361150c565b610b7e565b610b7e81876001600160801b0316600160c01b61150c565b925050610bf9565b6000610ba56001600160a01b038316806801000000000000000061150c565b9050836001600160a01b0316856001600160a01b031610610bdd57610bd8600160801b876001600160801b03168361150c565b610bf5565b610bf581876001600160801b0316600160801b61150c565b9250505b50949350505050565b6000806138406402540be40084610c1a576201518091505b600a546001600160a01b0390811690871603610c34575060015b6000806000886001600160a01b031663feaf968c6040518163ffffffff1660e01b815260040160a060405180830381865afa158015610c77573d6000803e3d6000fd5b505050506040513d601f19601f82011682018060405250810190610c9b9190611d9b565b50935050925092508269ffffffffffffffffffff166000141580610ccc57506024546001600160a01b038a81169116145b8015610cd85750600082135b8015610ce357508015155b8015610cef5750428111155b8015610d04575084610d01824261191b565b11155b15610d23576001610d158584611cfe565b965096505050505050610d30565b6000809650965050505050505b9250929050565b6003546000906001600160a01b0390811690831603610dae576000610d5e60026000610332565b9050600080610d6b6101d3565b91509150600080610d7a610a22565b91509150838015610d885750815b15610da357610d98858483611682565b979650505050505050565b509295945050505050565b6009546001600160a01b0390811690831603610e63576000610dd260016000610332565b905060008060090160009054906101000a90046001600160a01b03166001600160a01b031663e6aa216c6040518163ffffffff1660e01b8152600401602060405180830381865afa158015610e2b573d6000803e3d6000fd5b505050506040513d601f19601f82011682018060405250810190610e4f9190611a28565b9050610e5b82826116ef565b949350505050565b60405163715ed81960e01b81526001600160a01b03831660048201526024016107a0565b6000806000610e9461060c565b610ea38664e8d4a51000611cfe565b610eb590670de0b6b3a7640000611cfe565b610ebf9190611d68565b90506000670de0b6b3a7640000610ed46109aa565b610ede9087611cfe565b610ee89190611d68565b9196919550909350505050565b6013546000908190610f19906601000000000000900462ffffff16846127106110d6565b601585905590506000610f2a6109aa565b610f3c83670de0b6b3a7640000611cfe565b610f469190611d68565b90506000610f53826116fd565b60095460135460405163a9059cbb60e01b81526001600160a01b0369010000000000000000009092048216600482015260248101849052929350169063a9059cbb906044016020604051808303816000875af1158015610fb7573d6000803e3d6000fd5b505050506040513d601f19601f82011682018060405250810190610fdb9190611deb565b5095945050505050565b602d54600090610ff5904261191b565b90506301e14320600061101961100961060c565b8690670de0b6b3a76400006110d6565b90506110258383611d68565b61102f8583611d68565b6110399190611cfe565b611044906064611cfe565b61105190620f4240611cfe565b602e81905560408051838152602081018790529081018590527fab1073bfb02e8132afc91bbab016f001b82e4b97f68e813b1a12de5fd783dce79060600160405180910390a2505042602d55505050565b6000806110b76110b28686611d41565b6117a3565b90506110c681612710876110d6565b8361ffff16119150509392505050565b60008260001904841183021582026110ed57600080fd5b5091020490565b60008060008360020b1261110b578260020b611118565b8260020b61111890611e08565b9050611127620d89e719611e24565b60020b81111561115d5760405162461bcd60e51b81526020600482015260016024820152601560fa1b60448201526064016107a0565b60008160011660000361117457600160801b611186565b6ffffcb933bd6fad37aa2d162d1a5940015b70ffffffffffffffffffffffffffffffffff16905060028216156111c55760806111c0826ffff97272373d413259a46990580e213a611cfe565b901c90505b60048216156111ef5760806111ea826ffff2e50f5f656932ef12357cf3c7fdcc611cfe565b901c90505b6008821615611219576080611214826fffe5caca7e10e4e61c3624eaa0941cd0611cfe565b901c90505b601082161561124357608061123e826fffcb9843d60f6159c9db58835c926644611cfe565b901c90505b602082161561126d576080611268826fff973b41fa98c081472e6896dfb254c0611cfe565b901c90505b6040821615611297576080611292826fff2ea16466c96a3843ec78b326b52861611cfe565b901c90505b60808216156112c15760806112bc826ffe5dee046a99a2a811c461f1969c3053611cfe565b901c90505b6101008216156112ec5760806112e7826ffcbe86c7900a88aedcffc83b479aa3a4611cfe565b901c90505b610200821615611317576080611312826ff987a7253ac413176f2b074cf7815e54611cfe565b901c90505b61040082161561134257608061133d826ff3392b0822b70005940c7a398e4b70f3611cfe565b901c90505b61080082161561136d576080611368826fe7159475a2c29b7443b29c7fa6e889d9611cfe565b901c90505b611000821615611398576080611393826fd097f3bdfd2022b8845ad8f792aa5825611cfe565b901c90505b6120008216156113c35760806113be826fa9f746462d870fdf8a65dc1f90e061e5611cfe565b901c90505b6140008216156113ee5760806113e9826f70d869a156d2a1b890bb3df62baf32f7611cfe565b901c90505b618000821615611419576080611414826f31be135f97d08fd981231505542fcfa6611cfe565b901c90505b62010000821615611445576080611440826f09aa508b5b7a84e1c677de54f3e99bc9611cfe565b901c90505b6202000082161561147057608061146b826e5d6af8dedb81196699c329225ee604611cfe565b901c90505b6204000082161561149a576080611495826d2216e584f5fa1ea926041bedfe98611cfe565b901c90505b620800008216156114c25760806114bd826b048a170391f7dc42444e8fa2611cfe565b901c90505b60008460020b13156114dd576114da81600019611d68565b90505b6114ec64010000000082611e46565b156114f85760016114fb565b60005b610e5b9060ff16602083901c611d15565b6000808060001985870985870292508281108382030391505080600003611545576000841161153a57600080fd5b508290049050610937565b80841161155157600080fd5b60008486880980840393811190920391905060008561156f81611e08565b1695869004959384900493600081900304600101905061158f8184611cfe565b9093179260006115a0876003611cfe565b60021890506115af8188611cfe565b6115ba90600261191b565b6115c49082611cfe565b90506115d08188611cfe565b6115db90600261191b565b6115e59082611cfe565b90506115f18188611cfe565b6115fc90600261191b565b6116069082611cfe565b90506116128188611cfe565b61161d90600261191b565b6116279082611cfe565b90506116338188611cfe565b61163e90600261191b565b6116489082611cfe565b90506116548188611cfe565b61165f90600261191b565b6116699082611cfe565b90506116758186611cfe565b9998505050505050505050565b60008284101580156116945750818411155b806116aa57508284111580156116aa5750818410155b156116b6575082610937565b8383101580156116c65750818311155b806116dc57508383111580156116dc5750818310155b156116e8575081610937565b5080610937565b6000600261092d8385611d15565b601f54600090819061171d90600160a01b900461ffff16846127106110d6565b600954601f5460405163a9059cbb60e01b81526001600160a01b03918216600482015260248101849052929350169063a9059cbb906044016020604051808303816000875af1158015611774573d6000803e3d6000fd5b505050506040513d601f19601f820116820180604052508101906117989190611deb565b50610937818461191b565b6000600160ff1b82036117bb5750600160ff1b919050565b600082136117d1576117cc82611e08565b610606565b5090565b600080604083850312156117e857600080fd5b823591506020830135600281106117fe57600080fd5b809150509250929050565b6001600160a01b038116811461181e57600080fd5b50565b60006020828403121561183357600080fd5b813561093781611809565b801515811461181e57600080fd5b60008060006060848603121561186157600080fd5b833561186c81611809565b92506020840135915060408401356118838161183e565b809150509250925092565b60005b838110156118a9578181015183820152602001611891565b50506000910152565b60408152600960408201526853706f74507269636560b81b606082015260806020820152600082518060808401526118f18160a085016020870161188e565b601f01601f19169190910160a00192915050565b634e487b7160e01b600052601160045260246000fd5b8181038181111561060657610606611905565b634e487b7160e01b600052604160045260246000fd5b604051601f8201601f1916810167ffffffffffffffff8111828210171561196d5761196d61192e565b604052919050565b60008060006060848603121561198a57600080fd5b83516119958161183e565b602085015190935067ffffffffffffffff808211156119b357600080fd5b818601915086601f8301126119c757600080fd5b8151818111156119d9576119d961192e565b6119ec601f8201601f1916602001611944565b9150808252876020828501011115611a0357600080fd5b611a1481602084016020860161188e565b508093505050604084015190509250925092565b600060208284031215611a3a57600080fd5b5051919050565b600060208284031215611a5357600080fd5b815161093781611809565b634e487b7160e01b600052602160045260246000fd5b634e487b7160e01b600052603260045260246000fd5b6020808252825182820181905260009190848201906040850190845b81811015611ac857835163ffffffff1683529284019291840191600101611aa6565b50909695505050505050565b600067ffffffffffffffff821115611aee57611aee61192e565b5060051b60200190565b600082601f830112611b0957600080fd5b81516020611b1e611b1983611ad4565b611944565b82815260059290921b84018101918181019086841115611b3d57600080fd5b8286015b84811015611b61578051611b5481611809565b8352918301918301611b41565b509695505050505050565b60008060408385031215611b7f57600080fd5b825167ffffffffffffffff80821115611b9757600080fd5b818501915085601f830112611bab57600080fd5b81516020611bbb611b1983611ad4565b82815260059290921b84018101918181019089841115611bda57600080fd5b948201945b83861015611c085785518060060b8114611bf95760008081fd5b82529482019490820190611bdf565b91880151919650909350505080821115611c2157600080fd5b50611c2e85828601611af8565b9150509250929050565b600682810b9082900b03667fffffffffffff198112667fffffffffffff8213171561060657610606611905565b634e487b7160e01b600052601260045260246000fd5b60008160060b8360060b80611c9257611c92611c65565b667fffffffffffff19821460001982141615611cb057611cb0611905565b90059392505050565b60008260060b80611ccc57611ccc611c65565b808360060b0791505092915050565b60008160020b627fffff198103611cf457611cf4611905565b6000190192915050565b808202811582820484141761060657610606611905565b8082018082111561060657610606611905565b600060018201611d3a57611d3a611905565b5060010190565b8181036000831280158383131683831282161715611d6157611d61611905565b5092915050565b600082611d7757611d77611c65565b500490565b805169ffffffffffffffffffff81168114611d9657600080fd5b919050565b600080600080600060a08688031215611db357600080fd5b611dbc86611d7c565b9450602086015193506040860151925060608601519150611ddf60808701611d7c565b90509295509295909350565b600060208284031215611dfd57600080fd5b81516109378161183e565b6000600160ff1b8201611e1d57611e1d611905565b5060000390565b60008160020b627fffff198103611e3d57611e3d611905565b60000392915050565b600082611e5557611e55611c65565b50069056fea26469706673582212204678e27d7ed953e4d78cbabb12571c195cab22de55484063106965df668c3aff64736f6c63430008150033","linkReferences":{}},"methodIdentifiers":{"DISPUTE_BUFFER()":"c1874867","ETH_USD()":"6260f55b","TIMEOUT_EXTENDED()":"8c4c501d","TIMEOUT_LINK()":"40f1a34b","chargeOZLfee()":"8e9cd10c","getLastRewards()":"2cc3eb0a","getOracleBackUp1()":"0b842e3b","getOracleBackUp2()":"f32cabc5","getUnderlyingValue(address)":"97d2ead2","getUniPrice(uint256,uint8)":"3154b6e2","rETH_ETH()":"d4afb73a","rETH_USD()":"f424c4ba","setValuePerOzToken(address,uint256,bool)":"b0ff97b5"},"id":19}