{
  "abi": [
    {
      "inputs": [
        {
          "internalType": "uint256",
          "name": "amount_",
          "type": "uint256"
        },
        {
          "internalType": "address",
          "name": "underlying_",
          "type": "address"
        },
        {
          "internalType": "address",
          "name": "user_",
          "type": "address"
        }
      ],
      "name": "useUnderlying",
      "outputs": [],
      "stateMutability": "nonpayable",
      "type": "function"
    }
  ],
  "bytecode": {
    "object": "0x608060405234801561001057600080fd5b50610856806100206000396000f3fe608060405234801561001057600080fd5b506004361061002b5760003560e01c806380a55da414610030575b600080fd5b61004361003e36600461065c565b610045565b005b6040516370a0823160e01b81523060048201526000906001600160a01b038416906370a0823190602401602060405180830381865afa15801561008c573d6000803e3d6000fd5b505050506040513d601f19601f820116820180604052508101906100b09190610698565b6004805460408051633fabe5a360e21b815290519394506000936001600160a01b039092169263feaf968c928282019260a092908290030181865afa1580156100fd573d6000803e3d6000fd5b505050506040513d601f19601f8201168201806040525081019061012191906106cb565b50506003549193506101429250506001600160a01b03868116911687610316565b60408051610100810182526001600160a01b0380871682526002541660208201526101f49181019190915230606082015242608082015260a0810183905260009060c081016101908561041a565b815260006020918201526003546040805163414bf38960e01b815284516001600160a01b03908116600483015293850151841660248201529084015162ffffff1660448201526060840151831660648201526080840151608482015260a084015160a482015260c084015160c482015260e0840151831660e4820152929350169063414bf38990610104016020604051808303816000875af115801561023a573d6000803e3d6000fd5b505050506040513d601f19601f8201168201806040525081019061025e9190610698565b506002546040516370a0823160e01b81523060048201526000916001600160a01b0316906370a0823190602401602060405180830381865afa1580156102a8573d6000803e3d6000fd5b505050506040513d601f19601f820116820180604052508101906102cc9190610698565b905061030d6040518060400160405280600a81526020016902ba2aa24103130b61d160b51b815250670de0b6b3a7640000836103089190610731565b6104f9565b50505050505050565b604080516001600160a01b038481166024830152604480830185905283518084039091018152606490920183526020820180516001600160e01b031663095ea7b360e01b17905291516000928392908716916103729190610777565b6000604051808303816000865af19150503d80600081146103af576040519150601f19603f3d011682016040523d82523d6000602084013e6103b4565b606091505b50915091508180156103de5750805115806103de5750808060200190518101906103de9190610793565b6104135760405162461bcd60e51b8152602060048201526002602482015261534160f01b604482015260640160405180910390fd5b5050505050565b6004805460408051633fabe5a360e21b8152905160009384936001600160a01b03169263feaf968c928183019260a0928290030181865afa158015610463573d6000803e3d6000fd5b505050506040513d601f19601f8201168201806040525081019061048791906106cb565b50505091505060006104b3826402540be4006104a391906107b5565b8590670de0b6b3a7640000610542565b905060006104d760006005015460646104cc91906107b5565b8390620f4240610542565b6104e190836107d2565b90506104f081620f42406105f1565b95945050505050565b61053e828260405160240161050f9291906107e5565b60408051601f198184030181529190526020810180516001600160e01b03166309710a9d60e41b17905261061f565b5050565b60008383026000198486098181108201900380610577578361056c5763ae47f7026000526004601cfd5b5082900490506105ea565b80841161058c5763ae47f7026000526004601cfd5b8385870960008581038616958690049582850381900494909211909203600192829003919091049190910102176002600384028118808502820302808502820302808502820302808502820302808502820302808502909103020290505b9392505050565b60008160001904831182021561060f5763bac65e5b6000526004601cfd5b50670de0b6b3a764000091020490565b80516a636f6e736f6c652e6c6f67602083016000808483855afa5050505050565b80356001600160a01b038116811461065757600080fd5b919050565b60008060006060848603121561067157600080fd5b8335925061068160208501610640565b915061068f60408501610640565b90509250925092565b6000602082840312156106aa57600080fd5b5051919050565b805169ffffffffffffffffffff8116811461065757600080fd5b600080600080600060a086880312156106e357600080fd5b6106ec866106b1565b945060208601519350604086015192506060860151915061070f608087016106b1565b90509295509295909350565b634e487b7160e01b600052601160045260246000fd5b60008261074e57634e487b7160e01b600052601260045260246000fd5b500490565b60005b8381101561076e578181015183820152602001610756565b50506000910152565b60008251610789818460208701610753565b9190910192915050565b6000602082840312156107a557600080fd5b815180151581146105ea57600080fd5b80820281158282048414176107cc576107cc61071b565b92915050565b818103818111156107cc576107cc61071b565b6040815260008351806040840152610804816060850160208801610753565b602083019390935250601f91909101601f19160160600191905056fea2646970667358221220bd8909a5f0f7d4129545dfcab2ed68752b93a632d7817f35a7cbfb1f8429454764736f6c63430008150033",
    "linkReferences": {}
  },
  "methodIdentifiers": {
    "useUnderlying(uint256,address,address)": "80a55da4"
  },
  "id": 7
}