{
  "abi": [
    {
      "inputs": [
        {
          "internalType": "uint256",
          "name": "amount_",
          "type": "uint256"
        }
      ],
      "name": "useUnderlying",
      "outputs": [],
      "stateMutability": "nonpayable",
      "type": "function"
    }
  ],
  "bytecode": {
    "object": "0x608060405234801561001057600080fd5b50610181806100206000396000f3fe608060405234801561001057600080fd5b506004361061002b5760003560e01c80630fc08cce14610030575b600080fd5b61004361003e3660046100dd565b610045565b005b61007060405180604001604052806009815260200168030b6b7bab73a3a1d160bd1b81525082610073565b50565b6100b882826040516024016100899291906100f6565b60408051601f198184030181529190526020810180516001600160e01b03166309710a9d60e41b1790526100bc565b5050565b80516a636f6e736f6c652e6c6f67602083016000808483855afa5050505050565b6000602082840312156100ef57600080fd5b5035919050565b604081526000835180604084015260005b818110156101245760208187018101516060868401015201610107565b506000606082850101526060601f19601f830116840101915050826020830152939250505056fea26469706673582212207dec1d195bb2f63ad0dbb0985211bd993086a074fa0bfc1d60f70691db6c454664736f6c63430008150033",
    "linkReferences": {}
  },
  "methodIdentifiers": {
    "useUnderlying(uint256)": "0fc08cce"
  },
  "id": 2
}