{
  "abi": [
    {
      "inputs": [
        {
          "internalType": "uint256",
          "name": "amount_",
          "type": "uint256"
        },
        {
          "internalType": "address",
          "name": "underlying_",
          "type": "address"
        },
        {
          "internalType": "address",
          "name": "user_",
          "type": "address"
        }
      ],
      "name": "useUnderlying",
      "outputs": [],
      "stateMutability": "nonpayable",
      "type": "function"
    }
  ],
  "bytecode": {
    "object": "0x608060405234801561001057600080fd5b5060c78061001f6000396000f3fe6080604052348015600f57600080fd5b506004361060285760003560e01c806380a55da414602d575b600080fd5b603d6038366004605a565b505050565b005b80356001600160a01b0381168114605557600080fd5b919050565b600080600060608486031215606e57600080fd5b83359250607c60208501603f565b9150608860408501603f565b9050925092509256fea26469706673582212201d0ab824a730c337faa9b037710866bf9e8b82ee401e71cbe94055b8c485294b64736f6c63430008150033",
    "linkReferences": {}
  },
  "methodIdentifiers": {
    "useUnderlying(uint256,address,address)": "80a55da4"
  },
  "id": 7
}