{
  "abi": [
    {
      "inputs": [
        {
          "internalType": "address",
          "name": "beacon_",
          "type": "address"
        },
        {
          "internalType": "bytes",
          "name": "data_",
          "type": "bytes"
        }
      ],
      "stateMutability": "nonpayable",
      "type": "constructor"
    },
    {
      "anonymous": false,
      "inputs": [
        {
          "indexed": false,
          "internalType": "address",
          "name": "previousAdmin",
          "type": "address"
        },
        {
          "indexed": false,
          "internalType": "address",
          "name": "newAdmin",
          "type": "address"
        }
      ],
      "name": "AdminChanged",
      "type": "event"
    },
    {
      "anonymous": false,
      "inputs": [
        {
          "indexed": true,
          "internalType": "address",
          "name": "beacon",
          "type": "address"
        }
      ],
      "name": "BeaconUpgraded",
      "type": "event"
    },
    {
      "anonymous": false,
      "inputs": [
        {
          "indexed": true,
          "internalType": "address",
          "name": "implementation",
          "type": "address"
        }
      ],
      "name": "Upgraded",
      "type": "event"
    },
    {
      "stateMutability": "payable",
      "type": "fallback"
    },
    {
      "inputs": [],
      "name": "beacon",
      "outputs": [
        {
          "internalType": "address",
          "name": "",
          "type": "address"
        }
      ],
      "stateMutability": "view",
      "type": "function"
    },
    {
      "inputs": [],
      "name": "implementation",
      "outputs": [
        {
          "internalType": "address",
          "name": "",
          "type": "address"
        }
      ],
      "stateMutability": "view",
      "type": "function"
    },
    {
      "inputs": [
        {
          "internalType": "address",
          "name": "beacon_",
          "type": "address"
        },
        {
          "internalType": "bytes",
          "name": "data_",
          "type": "bytes"
        }
      ],
      "name": "setBeacon",
      "outputs": [],
      "stateMutability": "nonpayable",
      "type": "function"
    },
    {
      "stateMutability": "payable",
      "type": "receive"
    }
  ],
  "bytecode": {
    "object": "0x60806040523480156200001157600080fd5b506040516200107e3803806200107e8339810160408190526200003491620005eb565b818162000044828260006200004e565b5050505062000764565b620000598362000118565b6040516001600160a01b038416907f1cf3b03a6cf19fa2baba4df148e9dcabedea7f8a5c07840e207e5c089be95d3e90600090a26000825111806200009b5750805b15620001135762000111836001600160a01b0316635c60da1b6040518163ffffffff1660e01b8152600401602060405180830381865afa158015620000e4573d6000803e3d6000fd5b505050506040513d601f19601f820116820180604052508101906200010a9190620006b9565b83620002a3565b505b505050565b6001600160a01b0381163b620001835760405162461bcd60e51b815260206004820152602560248201527f455243313936373a206e657720626561636f6e206973206e6f74206120636f6e6044820152641d1c9858dd60da1b60648201526084015b60405180910390fd5b620001fb816001600160a01b0316635c60da1b6040518163ffffffff1660e01b8152600401602060405180830381865afa158015620001c6573d6000803e3d6000fd5b505050506040513d601f19601f82011682018060405250810190620001ec9190620006b9565b6001600160a01b03163b151590565b620002625760405162461bcd60e51b815260206004820152603060248201527f455243313936373a20626561636f6e20696d706c656d656e746174696f6e206960448201526f1cc81b9bdd08184818dbdb9d1c9858dd60821b60648201526084016200017a565b7fa3f0ad74e5423aebfd80d3ef4346578335a9a72aeaee59ff6cb3582b35133d5080546001600160a01b0319166001600160a01b0392909216919091179055565b6060620002cb83836040518060600160405280602781526020016200105760279139620002d2565b9392505050565b60606200030760405180604001604052806009815260200168031b7b73a32bc3a1d160bd1b81525030620003af60201b60201c565b60408051808201909152600881526703a30b933b2ba1d160c51b6020820152620003329085620003af565b600080856001600160a01b0316856040516200034f9190620006d7565b600060405180830381855af49150503d80600081146200038c576040519150601f19603f3d011682016040523d82523d6000602084013e62000391565b606091505b509092509050620003a58683838762000400565b9695505050505050565b620003fc8282604051602401620003c892919062000723565b60408051601f198184030181529190526020810180516001600160e01b0390811663319af33360e01b17909152620004aa16565b5050565b606083156200048b57620004156001620004cb565b62000420836200051a565b825160000362000483576001600160a01b0385163b620004835760405162461bcd60e51b815260206004820152601d60248201527f416464726573733a2063616c6c20746f206e6f6e2d636f6e747261637400000060448201526064016200017a565b5081620004a2565b62000496836200051a565b620004a2838362000565565b949350505050565b80516a636f6e736f6c652e6c6f67602083016000808483855afa5050505050565b6200051781604051602401620004e391815260200190565b60408051601f198184030181529190526020810180516001600160e01b0390811663f5b1bba960e01b17909152620004aa16565b50565b62000517816040516024016200053191906200074f565b60408051601f198184030181529190526020810180516001600160e01b039081166305f3bfab60e11b17909152620004aa16565b815115620005765781518083602001fd5b8060405162461bcd60e51b81526004016200017a91906200074f565b80516001600160a01b0381168114620005aa57600080fd5b919050565b634e487b7160e01b600052604160045260246000fd5b60005b83811015620005e2578181015183820152602001620005c8565b50506000910152565b60008060408385031215620005ff57600080fd5b6200060a8362000592565b60208401519092506001600160401b03808211156200062857600080fd5b818501915085601f8301126200063d57600080fd5b815181811115620006525762000652620005af565b604051601f8201601f19908116603f011681019083821181831017156200067d576200067d620005af565b816040528281528860208487010111156200069757600080fd5b620006aa836020830160208801620005c5565b80955050505050509250929050565b600060208284031215620006cc57600080fd5b620002cb8262000592565b60008251620006eb818460208701620005c5565b9190910192915050565b600081518084526200070f816020860160208601620005c5565b601f01601f19169290920160200192915050565b604081526000620007386040830185620006f5565b905060018060a01b03831660208301529392505050565b602081526000620002cb6020830184620006f5565b6108e380620007746000396000f3fe6080604052600436106100385760003560e01c8063099af0e91461004f57806359659e901461006f5780635c60da1b146100a057610047565b36610047576100456100b5565b005b6100456100b5565b34801561005b57600080fd5b5061004561006a3660046106fc565b6100c7565b34801561007b57600080fd5b506100846100d5565b6040516001600160a01b03909116815260200160405180910390f35b3480156100ac57600080fd5b50610084610112565b6100c56100c0610118565b6101ac565b565b6100d182826101d5565b5050565b600061010d600061010d7fa3f0ad74e5423aebfd80d3ef4346578335a9a72aeaee59ff6cb3582b35133d50546001600160a01b031690565b905090565b600061010d5b600061014b7fa3f0ad74e5423aebfd80d3ef4346578335a9a72aeaee59ff6cb3582b35133d50546001600160a01b031690565b6001600160a01b0316635c60da1b6040518163ffffffff1660e01b8152600401602060405180830381865afa158015610188573d6000803e3d6000fd5b505050506040513d601f19601f8201168201806040525081019061010d91906107c0565b3660008037600080366000845af43d6000803e8080156101cb573d6000f35b3d6000fd5b505050565b6100d1828260006101e58361029c565b6040516001600160a01b038416907f1cf3b03a6cf19fa2baba4df148e9dcabedea7f8a5c07840e207e5c089be95d3e90600090a26000825111806102265750805b156101d057610296836001600160a01b0316635c60da1b6040518163ffffffff1660e01b8152600401602060405180830381865afa15801561026c573d6000803e3d6000fd5b505050506040513d601f19601f8201168201806040525081019061029091906107c0565b83610420565b50505050565b6001600160a01b0381163b6103065760405162461bcd60e51b815260206004820152602560248201527f455243313936373a206e657720626561636f6e206973206e6f74206120636f6e6044820152641d1c9858dd60da1b60648201526084015b60405180910390fd5b61037a816001600160a01b0316635c60da1b6040518163ffffffff1660e01b8152600401602060405180830381865afa158015610347573d6000803e3d6000fd5b505050506040513d601f19601f8201168201806040525081019061036b91906107c0565b6001600160a01b03163b151590565b6103df5760405162461bcd60e51b815260206004820152603060248201527f455243313936373a20626561636f6e20696d706c656d656e746174696f6e206960448201526f1cc81b9bdd08184818dbdb9d1c9858dd60821b60648201526084016102fd565b7fa3f0ad74e5423aebfd80d3ef4346578335a9a72aeaee59ff6cb3582b35133d5080546001600160a01b0319166001600160a01b0392909216919091179055565b606061044583836040518060600160405280602781526020016108876027913961044c565b9392505050565b606061047960405180604001604052806009815260200168031b7b73a32bc3a1d160bd1b81525030610519565b6104a36040518060400160405280600881526020016703a30b933b2ba1d160c51b81525085610519565b600080856001600160a01b0316856040516104be9190610801565b600060405180830381855af49150503d80600081146104f9576040519150601f19603f3d011682016040523d82523d6000602084013e6104fe565b606091505b509150915061050f8683838761055e565b9695505050505050565b6100d1828260405160240161052f929190610849565b60408051601f198184030181529190526020810180516001600160e01b031663319af33360e01b1790526105fb565b606083156105e057610570600161061c565b61057983610664565b82516000036105d9576001600160a01b0385163b6105d95760405162461bcd60e51b815260206004820152601d60248201527f416464726573733a2063616c6c20746f206e6f6e2d636f6e747261637400000060448201526064016102fd565b50816105f3565b6105e983610664565b6105f383836106a7565b949350505050565b80516a636f6e736f6c652e6c6f67602083016000808483855afa5050505050565b6106618160405160240161063291815260200190565b60408051601f198184030181529190526020810180516001600160e01b031663f5b1bba960e01b1790526105fb565b50565b610661816040516024016106789190610873565b60408051601f198184030181529190526020810180516001600160e01b03166305f3bfab60e11b1790526105fb565b8151156106b75781518083602001fd5b8060405162461bcd60e51b81526004016102fd9190610873565b6001600160a01b038116811461066157600080fd5b634e487b7160e01b600052604160045260246000fd5b6000806040838503121561070f57600080fd5b823561071a816106d1565b9150602083013567ffffffffffffffff8082111561073757600080fd5b818501915085601f83011261074b57600080fd5b81358181111561075d5761075d6106e6565b604051601f8201601f19908116603f01168101908382118183101715610785576107856106e6565b8160405282815288602084870101111561079e57600080fd5b8260208601602083013760006020848301015280955050505050509250929050565b6000602082840312156107d257600080fd5b8151610445816106d1565b60005b838110156107f85781810151838201526020016107e0565b50506000910152565b600082516108138184602087016107dd565b9190910192915050565b600081518084526108358160208601602086016107dd565b601f01601f19169290920160200192915050565b60408152600061085c604083018561081d565b905060018060a01b03831660208301529392505050565b602081526000610445602083018461081d56fe416464726573733a206c6f772d6c6576656c2064656c65676174652063616c6c206661696c6564a2646970667358221220a843ee721bcb47902493a3c208f2e1e801787871d75c148429a228a5f442767064736f6c63430008150033416464726573733a206c6f772d6c6576656c2064656c65676174652063616c6c206661696c6564",
    "linkReferences": {}
  },
  "methodIdentifiers": {
    "beacon()": "59659e90",
    "implementation()": "5c60da1b",
    "setBeacon(address,bytes)": "099af0e9"
  },
  "id": 35
}