{
  "abi": [
    {
      "inputs": [
        {
          "internalType": "address",
          "name": "beacon_",
          "type": "address"
        },
        {
          "internalType": "bytes",
          "name": "data_",
          "type": "bytes"
        }
      ],
      "stateMutability": "nonpayable",
      "type": "constructor"
    },
    {
      "anonymous": false,
      "inputs": [
        {
          "indexed": false,
          "internalType": "address",
          "name": "previousAdmin",
          "type": "address"
        },
        {
          "indexed": false,
          "internalType": "address",
          "name": "newAdmin",
          "type": "address"
        }
      ],
      "name": "AdminChanged",
      "type": "event"
    },
    {
      "anonymous": false,
      "inputs": [
        {
          "indexed": true,
          "internalType": "address",
          "name": "beacon",
          "type": "address"
        }
      ],
      "name": "BeaconUpgraded",
      "type": "event"
    },
    {
      "anonymous": false,
      "inputs": [
        {
          "indexed": true,
          "internalType": "address",
          "name": "implementation",
          "type": "address"
        }
      ],
      "name": "Upgraded",
      "type": "event"
    },
    {
      "stateMutability": "payable",
      "type": "fallback"
    },
    {
      "inputs": [],
      "name": "beacon",
      "outputs": [
        {
          "internalType": "address",
          "name": "",
          "type": "address"
        }
      ],
      "stateMutability": "view",
      "type": "function"
    },
    {
      "inputs": [],
      "name": "implementation",
      "outputs": [
        {
          "internalType": "address",
          "name": "",
          "type": "address"
        }
      ],
      "stateMutability": "view",
      "type": "function"
    },
    {
      "inputs": [
        {
          "internalType": "address",
          "name": "beacon_",
          "type": "address"
        },
        {
          "internalType": "bytes",
          "name": "data_",
          "type": "bytes"
        }
      ],
      "name": "setBeacon",
      "outputs": [],
      "stateMutability": "nonpayable",
      "type": "function"
    },
    {
      "stateMutability": "payable",
      "type": "receive"
    }
  ],
  "bytecode": {
    "object": "0x60806040523480156200001157600080fd5b5060405162000d2338038062000d2383398101604081905262000034916200045f565b818162000044828260006200004e565b505050506200059e565b620000598362000118565b6040516001600160a01b038416907f1cf3b03a6cf19fa2baba4df148e9dcabedea7f8a5c07840e207e5c089be95d3e90600090a26000825111806200009b5750805b15620001135762000111836001600160a01b0316635c60da1b6040518163ffffffff1660e01b8152600401602060405180830381865afa158015620000e4573d6000803e3d6000fd5b505050506040513d601f19601f820116820180604052508101906200010a91906200052d565b83620002a3565b505b505050565b6001600160a01b0381163b620001835760405162461bcd60e51b815260206004820152602560248201527f455243313936373a206e657720626561636f6e206973206e6f74206120636f6e6044820152641d1c9858dd60da1b60648201526084015b60405180910390fd5b620001fb816001600160a01b0316635c60da1b6040518163ffffffff1660e01b8152600401602060405180830381865afa158015620001c6573d6000803e3d6000fd5b505050506040513d601f19601f82011682018060405250810190620001ec91906200052d565b6001600160a01b03163b151590565b620002625760405162461bcd60e51b815260206004820152603060248201527f455243313936373a20626561636f6e20696d706c656d656e746174696f6e206960448201526f1cc81b9bdd08184818dbdb9d1c9858dd60821b60648201526084016200017a565b7fa3f0ad74e5423aebfd80d3ef4346578335a9a72aeaee59ff6cb3582b35133d5080546001600160a01b0319166001600160a01b0392909216919091179055565b6060620002cb838360405180606001604052806027815260200162000cfc60279139620002d2565b9392505050565b6060600080856001600160a01b031685604051620002f191906200054b565b600060405180830381855af49150503d80600081146200032e576040519150601f19603f3d011682016040523d82523d6000602084013e62000333565b606091505b509092509050620003478683838762000351565b9695505050505050565b60608315620003c5578251600003620003bd576001600160a01b0385163b620003bd5760405162461bcd60e51b815260206004820152601d60248201527f416464726573733a2063616c6c20746f206e6f6e2d636f6e747261637400000060448201526064016200017a565b5081620003d1565b620003d18383620003d9565b949350505050565b815115620003ea5781518083602001fd5b8060405162461bcd60e51b81526004016200017a919062000569565b80516001600160a01b03811681146200041e57600080fd5b919050565b634e487b7160e01b600052604160045260246000fd5b60005b83811015620004565781810151838201526020016200043c565b50506000910152565b600080604083850312156200047357600080fd5b6200047e8362000406565b60208401519092506001600160401b03808211156200049c57600080fd5b818501915085601f830112620004b157600080fd5b815181811115620004c657620004c662000423565b604051601f8201601f19908116603f01168101908382118183101715620004f157620004f162000423565b816040528281528860208487010111156200050b57600080fd5b6200051e83602083016020880162000439565b80955050505050509250929050565b6000602082840312156200054057600080fd5b620002cb8262000406565b600082516200055f81846020870162000439565b9190910192915050565b60208152600082518060208401526200058a81604085016020870162000439565b601f01601f19169190910160400192915050565b61074e80620005ae6000396000f3fe6080604052600436106100385760003560e01c8063099af0e91461004f57806359659e901461006f5780635c60da1b146100a057610047565b36610047576100456100b5565b005b6100456100b5565b34801561005b57600080fd5b5061004561006a36600461059d565b6100c7565b34801561007b57600080fd5b506100846100d5565b6040516001600160a01b03909116815260200160405180910390f35b3480156100ac57600080fd5b50610084610112565b6100c56100c0610118565b6101ac565b565b6100d182826101d5565b5050565b600061010d600061010d7fa3f0ad74e5423aebfd80d3ef4346578335a9a72aeaee59ff6cb3582b35133d50546001600160a01b031690565b905090565b600061010d5b600061014b7fa3f0ad74e5423aebfd80d3ef4346578335a9a72aeaee59ff6cb3582b35133d50546001600160a01b031690565b6001600160a01b0316635c60da1b6040518163ffffffff1660e01b8152600401602060405180830381865afa158015610188573d6000803e3d6000fd5b505050506040513d601f19601f8201168201806040525081019061010d9190610661565b3660008037600080366000845af43d6000803e8080156101cb573d6000f35b3d6000fd5b505050565b6100d1828260006101e58361029c565b6040516001600160a01b038416907f1cf3b03a6cf19fa2baba4df148e9dcabedea7f8a5c07840e207e5c089be95d3e90600090a26000825111806102265750805b156101d057610296836001600160a01b0316635c60da1b6040518163ffffffff1660e01b8152600401602060405180830381865afa15801561026c573d6000803e3d6000fd5b505050506040513d601f19601f820116820180604052508101906102909190610661565b83610420565b50505050565b6001600160a01b0381163b6103065760405162461bcd60e51b815260206004820152602560248201527f455243313936373a206e657720626561636f6e206973206e6f74206120636f6e6044820152641d1c9858dd60da1b60648201526084015b60405180910390fd5b61037a816001600160a01b0316635c60da1b6040518163ffffffff1660e01b8152600401602060405180830381865afa158015610347573d6000803e3d6000fd5b505050506040513d601f19601f8201168201806040525081019061036b9190610661565b6001600160a01b03163b151590565b6103df5760405162461bcd60e51b815260206004820152603060248201527f455243313936373a20626561636f6e20696d706c656d656e746174696f6e206960448201526f1cc81b9bdd08184818dbdb9d1c9858dd60821b60648201526084016102fd565b7fa3f0ad74e5423aebfd80d3ef4346578335a9a72aeaee59ff6cb3582b35133d5080546001600160a01b0319166001600160a01b0392909216919091179055565b606061044583836040518060600160405280602781526020016106f26027913961044c565b9392505050565b6060600080856001600160a01b03168560405161046991906106a2565b600060405180830381855af49150503d80600081146104a4576040519150601f19603f3d011682016040523d82523d6000602084013e6104a9565b606091505b50915091506104ba868383876104c4565b9695505050505050565b6060831561053357825160000361052c576001600160a01b0385163b61052c5760405162461bcd60e51b815260206004820152601d60248201527f416464726573733a2063616c6c20746f206e6f6e2d636f6e747261637400000060448201526064016102fd565b508161053d565b61053d8383610545565b949350505050565b8151156105555781518083602001fd5b8060405162461bcd60e51b81526004016102fd91906106be565b6001600160a01b038116811461058457600080fd5b50565b634e487b7160e01b600052604160045260246000fd5b600080604083850312156105b057600080fd5b82356105bb8161056f565b9150602083013567ffffffffffffffff808211156105d857600080fd5b818501915085601f8301126105ec57600080fd5b8135818111156105fe576105fe610587565b604051601f8201601f19908116603f0116810190838211818310171561062657610626610587565b8160405282815288602084870101111561063f57600080fd5b8260208601602083013760006020848301015280955050505050509250929050565b60006020828403121561067357600080fd5b81516104458161056f565b60005b83811015610699578181015183820152602001610681565b50506000910152565b600082516106b481846020870161067e565b9190910192915050565b60208152600082518060208401526106dd81604085016020870161067e565b601f01601f1916919091016040019291505056fe416464726573733a206c6f772d6c6576656c2064656c65676174652063616c6c206661696c6564a2646970667358221220412439bf34bc0f18d93424e22ec04d67a86387b81d5092236e9a971b307c720164736f6c63430008150033416464726573733a206c6f772d6c6576656c2064656c65676174652063616c6c206661696c6564",
    "linkReferences": {}
  },
  "methodIdentifiers": {
    "beacon()": "59659e90",
    "implementation()": "5c60da1b",
    "setBeacon(address,bytes)": "099af0e9"
  },
  "id": 35
}