{"abi":[{"type":"constructor","inputs":[{"name":"ozDiamond_","type":"address","internalType":"address"},{"name":"data_","type":"bytes","internalType":"bytes"},{"name":"implIndex_","type":"uint256","internalType":"uint256"}],"stateMutability":"nonpayable"},{"type":"fallback","stateMutability":"payable"},{"type":"receive","stateMutability":"payable"},{"type":"function","name":"beacon","inputs":[],"outputs":[{"name":"","type":"address","internalType":"address"}],"stateMutability":"view"},{"type":"function","name":"implementation","inputs":[],"outputs":[{"name":"","type":"address","internalType":"address"}],"stateMutability":"view"},{"type":"event","name":"AdminChanged","inputs":[{"name":"previousAdmin","type":"address","indexed":false,"internalType":"address"},{"name":"newAdmin","type":"address","indexed":false,"internalType":"address"}],"anonymous":false},{"type":"event","name":"BeaconUpgraded","inputs":[{"name":"beacon","type":"address","indexed":true,"internalType":"address"}],"anonymous":false},{"type":"event","name":"Upgraded","inputs":[{"name":"implementation","type":"address","indexed":true,"internalType":"address"}],"anonymous":false},{"type":"error","name":"OZError25","inputs":[{"name":"implementation","type":"address","internalType":"address"}]},{"type":"error","name":"OZError26","inputs":[{"name":"newBeacon","type":"address","internalType":"address"}]}],"bytecode":{"object":"0x608060405234801561000f575f80fd5b5060405161094438038061094483398101604081905261002e9161046e565b82828261003d83835f84610048565b505050505050610620565b6100518461012c565b6040516001600160a01b038516907f1cf3b03a6cf19fa2baba4df148e9dcabedea7f8a5c07840e207e5c089be95d3e905f90a25f835111806100905750815b15610126575f846001600160a01b0316632d8bbd366040518163ffffffff1660e01b81526004015f60405180830381865afa1580156100d1573d5f803e3d5ffd5b505050506040513d5f823e601f3d908101601f191682016040526100f89190810190610518565b905061012381838151811061010f5761010f6105bf565b60200260200101518561029360201b60201c565b50505b50505050565b6001600160a01b0381163b6101645760405163fdd18a9560e01b81526001600160a01b03821660048201526024015b60405180910390fd5b5f816001600160a01b0316632d8bbd366040518163ffffffff1660e01b81526004015f60405180830381865afa1580156101a0573d5f803e3d5ffd5b505050506040513d5f823e601f3d908101601f191682016040526101c79190810190610518565b80519091505f5b8181101561024d576101fe8382815181106101eb576101eb6105bf565b60200260200101516102bf60201b60201c565b61024557828181518110610214576102146105bf565b602002602001015160405163068a70ab60e51b815260040161015b91906001600160a01b0391909116815260200190565b6001016101ce565b50827fa3f0ad74e5423aebfd80d3ef4346578335a9a72aeaee59ff6cb3582b35133d5080546001600160a01b0319166001600160a01b0392909216919091179055505050565b60606102b8838360405180606001604052806027815260200161091d602791396102ce565b9392505050565b6001600160a01b03163b151590565b60605f80856001600160a01b0316856040516102ea91906105d3565b5f60405180830381855af49150503d805f8114610322576040519150601f19603f3d011682016040523d82523d5f602084013e610327565b606091505b50909250905061033986838387610343565b9695505050505050565b606083156103b15782515f036103aa576001600160a01b0385163b6103aa5760405162461bcd60e51b815260206004820152601d60248201527f416464726573733a2063616c6c20746f206e6f6e2d636f6e7472616374000000604482015260640161015b565b50816103bb565b6103bb83836103c3565b949350505050565b8151156103d35781518083602001fd5b8060405162461bcd60e51b815260040161015b91906105ee565b80516001600160a01b0381168114610403575f80fd5b919050565b634e487b7160e01b5f52604160045260245ffd5b604051601f8201601f191681016001600160401b038111828210171561044457610444610408565b604052919050565b5f5b8381101561046657818101518382015260200161044e565b50505f910152565b5f805f60608486031215610480575f80fd5b610489846103ed565b60208501519093506001600160401b03808211156104a5575f80fd5b818601915086601f8301126104b8575f80fd5b8151818111156104ca576104ca610408565b6104dd601f8201601f191660200161041c565b91508082528760208285010111156104f3575f80fd5b61050481602084016020860161044c565b508093505050604084015190509250925092565b5f6020808385031215610529575f80fd5b82516001600160401b038082111561053f575f80fd5b818501915085601f830112610552575f80fd5b81518181111561056457610564610408565b8060051b915061057584830161041c565b818152918301840191848101908884111561058e575f80fd5b938501935b838510156105b3576105a4856103ed565b82529385019390850190610593565b98975050505050505050565b634e487b7160e01b5f52603260045260245ffd5b5f82516105e481846020870161044c565b9190910192915050565b602081525f825180602084015261060c81604085016020870161044c565b601f01601f19169190910160400192915050565b6102f08061062d5f395ff3fe60806040526004361061002c575f3560e01c806359659e90146100435780635c60da1b146100735761003b565b3661003b57610039610087565b005b610039610087565b34801561004e575f80fd5b50610057610099565b6040516001600160a01b03909116815260200160405180910390f35b34801561007e575f80fd5b506100576100a7565b6100976100926100ac565b6100d3565b565b5f6100a26100f1565b905090565b5f6100a25b5f6100b5610123565b5f815181106100c6576100c66101b7565b6020026020010151905090565b365f80375f80365f845af43d5f803e8080156100ed573d5ff35b3d5ffd5b5f6100a27fa3f0ad74e5423aebfd80d3ef4346578335a9a72aeaee59ff6cb3582b35133d50546001600160a01b031690565b60606101567fa3f0ad74e5423aebfd80d3ef4346578335a9a72aeaee59ff6cb3582b35133d50546001600160a01b031690565b6001600160a01b0316632d8bbd366040518163ffffffff1660e01b81526004015f60405180830381865afa158015610190573d5f803e3d5ffd5b505050506040513d5f823e601f3d908101601f191682016040526100a291908101906101fa565b634e487b7160e01b5f52603260045260245ffd5b634e487b7160e01b5f52604160045260245ffd5b80516001600160a01b03811681146101f5575f80fd5b919050565b5f602080838503121561020b575f80fd5b825167ffffffffffffffff80821115610222575f80fd5b818501915085601f830112610235575f80fd5b815181811115610247576102476101cb565b8060051b604051601f19603f8301168101818110858211171561026c5761026c6101cb565b604052918252848201925083810185019188831115610289575f80fd5b938501935b828510156102ae5761029f856101df565b8452938501939285019261028e565b9897505050505050505056fea2646970667358221220636f5ffbdef0a423023aab48f50ceff403530779d42614c62bdb13604a1c358164736f6c63430008180033416464726573733a206c6f772d6c6576656c2064656c65676174652063616c6c206661696c6564","linkReferences":{}},"methodIdentifiers":{"beacon()":"59659e90","implementation()":"5c60da1b"},"id":45}