{"abi":[{"type":"function","name":"claimReward","inputs":[],"outputs":[{"name":"","type":"uint256","internalType":"uint256"}],"stateMutability":"nonpayable"},{"type":"function","name":"earned","inputs":[{"name":"user_","type":"address","internalType":"address"}],"outputs":[{"name":"","type":"uint256","internalType":"uint256"}],"stateMutability":"view"},{"type":"function","name":"getRewardsData","inputs":[],"outputs":[{"name":"rewardRate","type":"uint256","internalType":"uint256"},{"name":"circulatingSupply","type":"uint256","internalType":"uint256"},{"name":"pendingAllocation","type":"uint256","internalType":"uint256"},{"name":"recicledSupply","type":"uint256","internalType":"uint256"},{"name":"durationLeft","type":"int256","internalType":"int256"}],"stateMutability":"view"},{"type":"function","name":"lastTimeRewardApplicable","inputs":[],"outputs":[{"name":"","type":"uint256","internalType":"uint256"}],"stateMutability":"view"},{"type":"function","name":"notifyRewardAmount","inputs":[{"name":"amount_","type":"uint256","internalType":"uint256"}],"outputs":[],"stateMutability":"nonpayable"},{"type":"function","name":"recicleOZL","inputs":[{"name":"owner_","type":"address","internalType":"address"},{"name":"ozl_","type":"address","internalType":"address"},{"name":"amountIn_","type":"uint256","internalType":"uint256"}],"outputs":[],"stateMutability":"nonpayable"},{"type":"function","name":"rewardPerToken","inputs":[],"outputs":[{"name":"","type":"uint256","internalType":"uint256"}],"stateMutability":"view"},{"type":"function","name":"setRewardsDuration","inputs":[{"name":"duration_","type":"uint256","internalType":"uint256"}],"outputs":[],"stateMutability":"nonpayable"},{"type":"function","name":"useOZL","inputs":[{"name":"tokenOut_","type":"address","internalType":"address"},{"name":"receiver_","type":"address","internalType":"address"},{"name":"amountInLsd_","type":"uint256","internalType":"uint256"},{"name":"minAmountsOut_","type":"uint256[]","internalType":"uint256[]"}],"outputs":[{"name":"","type":"uint256","internalType":"uint256"}],"stateMutability":"nonpayable"},{"type":"function","name":"useOzTokens","inputs":[{"name":"owner_","type":"address","internalType":"address"},{"name":"data_","type":"bytes","internalType":"bytes"}],"outputs":[{"name":"","type":"uint256","internalType":"uint256"},{"name":"","type":"uint256","internalType":"uint256"}],"stateMutability":"nonpayable"},{"type":"function","name":"useUnderlying","inputs":[{"name":"stable_","type":"address","internalType":"address"},{"name":"owner_","type":"address","internalType":"address"},{"name":"amts_","type":"tuple","internalType":"struct AmountsIn","components":[{"name":"amountInStable","type":"uint256","internalType":"uint256"},{"name":"amountInETH","type":"uint256","internalType":"uint256"},{"name":"minAmountOutRETH","type":"uint256","internalType":"uint256"}]},{"name":"isETH_","type":"bool","internalType":"bool"}],"outputs":[{"name":"","type":"uint256","internalType":"uint256"}],"stateMutability":"payable"},{"type":"error","name":"OZError01","inputs":[{"name":"errorMsg","type":"string","internalType":"string"}]},{"type":"error","name":"OZError02","inputs":[]},{"type":"error","name":"OZError13","inputs":[{"name":"caller","type":"address","internalType":"address"}]},{"type":"error","name":"OZError20","inputs":[]},{"type":"error","name":"OZError21","inputs":[{"name":"reason","type":"string","internalType":"string"}]}],"bytecode":{"object":"0x608060405234801561000f575f80fd5b506121328061001d5f395ff3fe608060405260043610610099575f3560e01c806380faa57d1161006257806380faa57d14610158578063a1b86b381461016a578063ab399cf81461019e578063b88a802f14610158578063cc1a378f146100ee578063cd3daf9d14610158575f80fd5b80628cc2621461009d578063094463e7146100cf5780633c6b16ab146100ee57806355dae15c1461010d5780637d098e6414610120575b5f80fd5b3480156100a8575f80fd5b506100bc6100b73660046118d5565b505f90565b6040519081526020015b60405180910390f35b3480156100da575f80fd5b506100bc6100e9366004611981565b6101bd565b3480156100f9575f80fd5b5061010b610108366004611a46565b50565b005b6100bc61011b366004611a6a565b6101e4565b34801561012b575f80fd5b50604080515f8082526020820181905291810182905260608101829052608081019190915260a0016100c6565b348015610163575f80fd5b505f6100bc565b348015610175575f80fd5b50610189610184366004611aef565b61060b565b604080519283526020830191909152016100c6565b3480156101a9575f80fd5b5061010b6101b8366004611b95565b610778565b6009545f906101d9906001600160a01b031686868686866107de565b90505b949350505050565b6001545f9081805b8281101561023657600180543391908390811061020b5761020b611bd3565b5f9182526020909120600290910201546001600160a01b03160361022e57600191505b6001016101ec565b5080156105e15784516102546001600160a01b038916883084610919565b84156102b75760035460408051630d0e30db60e41b815290516001600160a01b039092169163d0e30db09134916004808301925f92919082900301818588803b15801561029f575f80fd5b505af11580156102b1573d5f803e3d5ffd5b50505050505b6003546040516370a0823160e01b81523060048201525f916001600160a01b0316906370a0823190602401602060405180830381865afa1580156102fd573d5f803e3d5ffd5b505050506040513d601f19601f820116820180604052508101906103219190611be7565b90506103566040518060400160405280600d81526020016c030b6b7baba3724b722aa241d1609d1b815250886020015161098a565b6103866040518060400160405280600e81526020016d030b6b7baba3724b72ba2aa241d160951b8152508261098a565b61038f816109d3565b156105a357600354604051632e1a7d4d60e01b8152600481018390526001600160a01b0390911690632e1a7d4d906024015f604051808303815f87803b1580156103d7575f80fd5b505af11580156103e9573d5f803e3d5ffd5b5050600f546010546040516321f8a72160e01b815260048101919091525f93506001600160a01b0390911691506321f8a72190602401602060405180830381865afa15801561043a573d5f803e3d5ffd5b505050506040513d601f19601f8201168201806040525081019061045e9190611bfe565b6009546040516370a0823160e01b81523060048201529192505f916001600160a01b03909116906370a0823190602401602060405180830381865afa1580156104a9573d5f803e3d5ffd5b505050506040513d601f19601f820116820180604052508101906104cd9190611be7565b9050816001600160a01b031663d0e30db0846040518263ffffffff1660e01b81526004015f604051808303818588803b158015610508575f80fd5b505af115801561051a573d5f803e3d5ffd5b50506009546040516370a0823160e01b81523060048201525f94506001600160a01b0390911692506370a082319150602401602060405180830381865afa158015610567573d5f803e3d5ffd5b505050506040513d601f19601f8201168201806040525081019061058b9190611be7565b90506105978282611c2d565b97505050505050610601565b60035460095460408901515f926105ce926001600160a01b0391821692911690309086906001610b58565b50506105da828a610c61565b5050610601565b60405163a43f931360e01b81523360048201526024015b60405180910390fd5b5050949350505050565b6001545f90819081805b8281101561065f57600180543391908390811061063457610634611bd3565b5f9182526020909120600290910201546001600160a01b03160361065757600191505b600101610615565b5080156105e1575f808680602001905181019061067c9190611c50565b6040820151602083015183519395509193509161069e9033908c903090610e78565b6009546003545f916106c1916001600160a01b03918216911630858760026107de565b905061075f5f6003015f9054906101000a90046001600160a01b0316336001600160a01b03166338d52e0f6040518163ffffffff1660e01b8152600401602060405180830381865afa158015610719573d5f803e3d5ffd5b505050506040513d601f19601f8201168201806040525081019061073d9190611bfe565b86848760018151811061075257610752611bd3565b6020026020010151610f7d565b91985090965061076f9350505050565b50509250929050565b61078d6001600160a01b038316843084610919565b60405163c3ae3a0960e01b815260048101829052309063c3ae3a09906024015f604051808303815f87803b1580156107c3575f80fd5b505af11580156107d5573d5f803e3d5ffd5b50505050505050565b5f805f6107ec84868a611113565b915091505f805f015f9054906101000a90046001600160a01b03166001600160a01b0316631c0de0516040518163ffffffff1660e01b8152600401606060405180830381865afa158015610842573d5f803e3d5ffd5b505050506040513d601f19601f820116820180604052508101906108669190611d44565b5050905080156108845761087d8a84308a86610f7d565b9350610893565b6108908a8489856111ce565b93505b5f8560028111156108a6576108a6611d78565b0361090c576003546001600160a01b03908116908a16036108dd576003546108d8906001600160a01b031689866112f8565b61090c565b6003548651610909916001600160a01b0316908b908b9088908b90600190811061075257610752611bd3565b93505b5050509695505050505050565b6040516001600160a01b03808516602483015283166044820152606481018290526109849085906323b872dd60e01b906084015b60408051601f198184030181529190526020810180516001600160e01b03166001600160e01b03199093169290921790915261132d565b50505050565b6109cf82826040516024016109a0929190611dd9565b60408051601f198184030181529190526020810180516001600160e01b03166309710a9d60e41b179052611400565b5050565b601180546040516335ee5f8760e01b8152602060048201526024810192909252701c9bd8dad95d11195c1bdcda5d141bdbdb607a1b60448301525f9182916001600160a01b0316906335ee5f8790606401602060405180830381865afa158015610a3f573d5f803e3d5ffd5b505050506040513d601f19601f82011682018060405250810190610a639190611be7565b90505f610a708483611dfa565b600f546012546040516321f8a72160e01b81529293505f926001600160a01b03909216916321f8a72191610aaa9160040190815260200190565b602060405180830381865afa158015610ac5573d5f803e3d5ffd5b505050506040513d601f19601f82011682018060405250810190610ae99190611bfe565b90505f816001600160a01b031663fd6ce89e6040518163ffffffff1660e01b8152600401602060405180830381865afa158015610b28573d5f803e3d5ffd5b505050506040513d601f19601f82011682018060405250810190610b4c9190611be7565b90921095945050505050565b5f805460408051631c0de05160e01b8152905183926001600160a01b031691631c0de0519160048083019260609291908290030181865afa158015610b9f573d5f803e3d5ffd5b505050506040513d601f19601f82011682018060405250810190610bc39190611d44565b505090508015610be157610bda8888308888610f7d565b9150610bf0565b610bed888887876111ce565b91505b5f836002811115610c0357610c03611d78565b03610c56576003546001600160a01b0390811690881603610c3a57600354610c35906001600160a01b031687846112f8565b610c56565b600354610c53906001600160a01b031688888588610f7d565b91505b509695505050505050565b6031546040805163026b1d5f60e01b815290515f926001600160a01b03169163026b1d5f9160048083019260209291908290030181865afa158015610ca8573d5f803e3d5ffd5b505050506040513d601f19601f82011682018060405250810190610ccc9190611bfe565b60405163095ea7b360e01b81526001600160a01b038083166004830152602482018690529192509083169063095ea7b3906044016020604051808303815f875af1158015610d1c573d5f803e3d5ffd5b505050506040513d601f19601f82011682018060405250810190610d409190611e0d565b5060405163617ba03760e01b81526001600160a01b038381166004830152602482018590523060448301525f606483015282169063617ba037906084015f604051808303815f87803b158015610d94575f80fd5b505af1158015610da6573d5f803e3d5ffd5b50506040516370a0823160e01b81523060048201525f9250739ba00d6856a4edf4665bca2c2309936572473b7e91506370a0823190602401602060405180830381865afa158015610df9573d5f803e3d5ffd5b505050506040513d601f19601f82011682018060405250810190610e1d9190611be7565b9050610e4860405180604001604052806007815260200166030aaa9a2219d160cd1b8152508261098a565b60405162461bcd60e51b81526020600482015260056024820152643432b9329960d91b60448201526064016105f8565b604080516001600160a01b0385811660248301528481166044830152606480830185905283518084039091018152608490920183526020820180516001600160e01b03166323b872dd60e01b17905291515f92839290881691610edb9190611e28565b5f604051808303815f865af19150503d805f8114610f14576040519150601f19603f3d011682016040523d82523d5f602084013e610f19565b606091505b5091509150818015610f43575080511580610f43575080806020019051810190610f439190611e0d565b610f755760405162461bcd60e51b815260206004820152600360248201526229aa2360e91b60448201526064016105f8565b505050505050565b6006545f90610f99906001600160a01b03888116911685611420565b60408051610100810182526001600160a01b038089168252878116602083015260135462ffffff1692820192909252908516606082015242608082015260a081018490525f9060c08101610fed8589611533565b81525f6020918201526006546040805163414bf38960e01b815284516001600160a01b03908116600483015293850151841660248201529084015162ffffff1660448201526060840151831660648201526080840151608482015260a084015160a482015260c084015160c482015260e0840151831660e4820152929350169063414bf38990610104016020604051808303815f875af19250505080156110b1575060408051601f3d908101601f191682019092526110ae91810190611be7565b60015b611101576110bd611e43565b806308c379a0036110f757506110d1611e5c565b806110dc57506110f9565b8060405163633abab960e01b81526004016105f89190611ee5565b505b3d5f803e3d5ffd5b915061110a9050565b95945050505050565b5f808085600281111561112857611128611d78565b0361115e5760035484516001600160a01b03909116925084905f9061114f5761114f611bd3565b602002602001015190506111c6565b600185600281111561117257611172611d78565b0361118d578291508360018151811061114f5761114f611bd3565b60028560028111156111a1576111a1611d78565b036111c657829150835f815181106111bb576111bb611bd3565b602002602001015190505b935093915050565b6040805160c081018083525f805463038fff2d60e41b909252925183929182916001600160a01b03909116906338fff2d09060c4808501916020918187030181865afa158015611220573d5f803e3d5ffd5b505050506040513d601f19601f820116820180604052508101906112449190611be7565b81526020015f81526001600160a01b03808916602083015287166040820152606081018690526080015f6040519080825280601f01601f191660200182016040528015611298576020820181803683370190505b5090526040805160808082018352308083525f6020840181905293830152606082019290925260085491830151929350916112e1916001600160a01b038a811692911690611420565b6112ed828286426115d3565b979650505050505050565b6040516001600160a01b03831660248201526044810182905261132890849063a9059cbb60e01b9060640161094d565b505050565b5f611381826040518060400160405280602081526020017f5361666545524332303a206c6f772d6c6576656c2063616c6c206661696c6564815250856001600160a01b03166116f79092919063ffffffff16565b905080515f14806113a15750808060200190518101906113a19190611e0d565b6113285760405162461bcd60e51b815260206004820152602a60248201527f5361666545524332303a204552433230206f7065726174696f6e20646964206e6044820152691bdd081cdd58d8d9595960b21b60648201526084016105f8565b80516a636f6e736f6c652e6c6f67602083015f808483855afa5050505050565b8015806114985750604051636eb1769f60e11b81523060048201526001600160a01b03838116602483015284169063dd62ed3e90604401602060405180830381865afa158015611472573d5f803e3d5ffd5b505050506040513d601f19601f820116820180604052508101906114969190611be7565b155b6115035760405162461bcd60e51b815260206004820152603660248201527f5361666545524332303a20617070726f76652066726f6d206e6f6e2d7a65726f60448201527520746f206e6f6e2d7a65726f20616c6c6f77616e636560501b60648201526084016105f8565b6040516001600160a01b03831660248201526044810182905261132890849063095ea7b360e01b9060640161094d565b5f80826001600160a01b031663313ce5676040518163ffffffff1660e01b8152600401602060405180830381865afa158015611571573d5f803e3d5ffd5b505050506040513d601f19601f820116820180604052508101906115959190611ef7565b60ff169050806012146115c7576115ad816012611c2d565b6115b890600a611ff7565b6115c29085612002565b6115c9565b835b9150505b92915050565b6008546040516352bbbe2960e01b81525f916001600160a01b0316906352bbbe2990611609908890889088908890600401612021565b6020604051808303815f875af1925050508015611643575060408051601f3d908101601f1916820190925261164091810190611be7565b60015b6116d05761164f611e43565b806308c379a0036110f75750611663611e5c565b8061166e57506110f9565b611697816040518060400160405280600781526020016642414c2335303760c81b815250611705565b156116b557604051637b19dd3560e11b815260040160405180910390fd5b806040516324af18bb60e21b81526004016105f89190611ee5565b805f036116f057604051635eeb40ff60e11b815260040160405180910390fd5b90506101dc565b60606101dc84845f8561175d565b5f816040516020016117179190611e28565b604051602081830303815290604052805190602001208360405160200161173e9190611e28565b6040516020818303038152906040528051906020012014905092915050565b6060824710156117be5760405162461bcd60e51b815260206004820152602660248201527f416464726573733a20696e73756666696369656e742062616c616e636520666f6044820152651c8818d85b1b60d21b60648201526084016105f8565b5f80866001600160a01b031685876040516117d99190611e28565b5f6040518083038185875af1925050503d805f8114611813576040519150601f19603f3d011682016040523d82523d5f602084013e611818565b606091505b50915091506112ed87838387606083156118925782515f0361188b576001600160a01b0385163b61188b5760405162461bcd60e51b815260206004820152601d60248201527f416464726573733a2063616c6c20746f206e6f6e2d636f6e747261637400000060448201526064016105f8565b50816101dc565b6101dc83838151156118a75781518083602001fd5b8060405162461bcd60e51b81526004016105f89190611ee5565b6001600160a01b0381168114610108575f80fd5b5f602082840312156118e5575f80fd5b81356118f0816118c1565b9392505050565b634e487b7160e01b5f52604160045260245ffd5b6060810181811067ffffffffffffffff8211171561192b5761192b6118f7565b60405250565b601f8201601f1916810167ffffffffffffffff81118282101715611957576119576118f7565b6040525050565b5f67ffffffffffffffff821115611977576119776118f7565b5060051b60200190565b5f805f8060808587031215611994575f80fd5b843561199f816118c1565b93506020858101356119b0816118c1565b935060408601359250606086013567ffffffffffffffff8111156119d2575f80fd5b8601601f810188136119e2575f80fd5b80356119ed8161195e565b6040516119fa8282611931565b82815260059290921b830184019184810191508a831115611a19575f80fd5b928401925b82841015611a3757833582529284019290840190611a1e565b979a9699509497505050505050565b5f60208284031215611a56575f80fd5b5035919050565b8015158114610108575f80fd5b5f805f8084860360c0811215611a7e575f80fd5b8535611a89816118c1565b94506020860135611a99816118c1565b93506060603f1982011215611aac575f80fd5b50604051611ab98161190b565b604086810135825260608701356020830152608087013590820152915060a0850135611ae481611a5d565b939692955090935050565b5f8060408385031215611b00575f80fd5b8235611b0b816118c1565b915060208381013567ffffffffffffffff80821115611b28575f80fd5b818601915086601f830112611b3b575f80fd5b813581811115611b4d57611b4d6118f7565b6040519150611b65601f8201601f1916850183611931565b8082528784828501011115611b78575f80fd5b80848401858401375f848284010152508093505050509250929050565b5f805f60608486031215611ba7575f80fd5b8335611bb2816118c1565b92506020840135611bc2816118c1565b929592945050506040919091013590565b634e487b7160e01b5f52603260045260245ffd5b5f60208284031215611bf7575f80fd5b5051919050565b5f60208284031215611c0e575f80fd5b81516118f0816118c1565b634e487b7160e01b5f52601160045260245ffd5b818103818111156115cd576115cd611c19565b8051611c4b816118c1565b919050565b5f8060408385031215611c61575f80fd5b825167ffffffffffffffff80821115611c78575f80fd5b9084019060608287031215611c8b575f80fd5b604051611c978161190b565b8251815260208084015181830152604084015183811115611cb6575f80fd5b80850194505087601f850112611cca575f80fd5b83519250611cd78361195e565b604051611ce48282611931565b84815260059490941b8501820193828101915089851115611d03575f80fd5b948201945b84861015611d2157855182529482019490820190611d08565b8060408501525050819550611d37818801611c40565b9450505050509250929050565b5f805f60608486031215611d56575f80fd5b8351611d6181611a5d565b602085015160409095015190969495509392505050565b634e487b7160e01b5f52602160045260245ffd5b5f5b83811015611da6578181015183820152602001611d8e565b50505f910152565b5f8151808452611dc5816020860160208601611d8c565b601f01601f19169290920160200192915050565b604081525f611deb6040830185611dae565b90508260208301529392505050565b808201808211156115cd576115cd611c19565b5f60208284031215611e1d575f80fd5b81516118f081611a5d565b5f8251611e39818460208701611d8c565b9190910192915050565b5f60033d1115611e595760045f803e505f5160e01c5b90565b5f60443d1015611e695790565b6040516003193d81016004833e81513d67ffffffffffffffff8160248401118184111715611e9957505050505090565b8285019150815181811115611eb15750505050505090565b843d8701016020828501011115611ecb5750505050505090565b611eda60208286010187611931565b509095945050505050565b602081525f6118f06020830184611dae565b5f60208284031215611f07575f80fd5b815160ff811681146118f0575f80fd5b600181815b80851115611f5157815f1904821115611f3757611f37611c19565b80851615611f4457918102915b93841c9390800290611f1c565b509250929050565b5f82611f67575060016115cd565b81611f7357505f6115cd565b8160018114611f895760028114611f9357611faf565b60019150506115cd565b60ff841115611fa457611fa4611c19565b50506001821b6115cd565b5060208310610133831016604e8410600b8410161715611fd2575081810a6115cd565b611fdc8383611f17565b805f1904821115611fef57611fef611c19565b029392505050565b5f6118f08383611f59565b5f8261201c57634e487b7160e01b5f52601260045260245ffd5b500490565b60e08152845160e08201525f60208601516002811061204e57634e487b7160e01b5f52602160045260245ffd5b61010083015260408601516001600160a01b031661012083015260608601516120836101408401826001600160a01b03169052565b50608086015161016083015260a086015160c06101808401526120aa6101a0840182611dae565b9150506120ea602083018680516001600160a01b039081168352602080830151151590840152604080830151909116908301526060908101511515910152565b60a082019390935260c001529291505056fea26469706673582212204167c9798be5d1573f314945009a66c58408453c56795ecf113a8a666c88916e64736f6c63430008180033","linkReferences":{}},"methodIdentifiers":{"claimReward()":"b88a802f","earned(address)":"008cc262","getRewardsData()":"7d098e64","lastTimeRewardApplicable()":"80faa57d","notifyRewardAmount(uint256)":"3c6b16ab","recicleOZL(address,address,uint256)":"ab399cf8","rewardPerToken()":"cd3daf9d","setRewardsDuration(uint256)":"cc1a378f","useOZL(address,address,uint256,uint256[])":"094463e7","useOzTokens(address,bytes)":"a1b86b38","useUnderlying(address,address,(uint256,uint256,uint256),bool)":"55dae15c"},"id":15}