{"abi":[{"type":"function","name":"claimReward","inputs":[],"outputs":[{"name":"","type":"uint256","internalType":"uint256"}],"stateMutability":"nonpayable"},{"type":"function","name":"earned","inputs":[{"name":"user_","type":"address","internalType":"address"}],"outputs":[{"name":"","type":"uint256","internalType":"uint256"}],"stateMutability":"view"},{"type":"function","name":"getRewardsData","inputs":[],"outputs":[{"name":"rewardRate","type":"uint256","internalType":"uint256"},{"name":"circulatingSupply","type":"uint256","internalType":"uint256"},{"name":"pendingAllocation","type":"uint256","internalType":"uint256"},{"name":"recicledSupply","type":"uint256","internalType":"uint256"},{"name":"durationLeft","type":"int256","internalType":"int256"}],"stateMutability":"view"},{"type":"function","name":"lastTimeRewardApplicable","inputs":[],"outputs":[{"name":"","type":"uint256","internalType":"uint256"}],"stateMutability":"view"},{"type":"function","name":"notifyRewardAmount","inputs":[{"name":"amount_","type":"uint256","internalType":"uint256"}],"outputs":[],"stateMutability":"nonpayable"},{"type":"function","name":"recicleOZL","inputs":[{"name":"owner_","type":"address","internalType":"address"},{"name":"ozl_","type":"address","internalType":"address"},{"name":"amountIn_","type":"uint256","internalType":"uint256"}],"outputs":[],"stateMutability":"nonpayable"},{"type":"function","name":"rewardPerToken","inputs":[],"outputs":[{"name":"","type":"uint256","internalType":"uint256"}],"stateMutability":"view"},{"type":"function","name":"setRewardsDuration","inputs":[{"name":"duration_","type":"uint256","internalType":"uint256"}],"outputs":[],"stateMutability":"nonpayable"},{"type":"function","name":"useOZL","inputs":[{"name":"tokenOut_","type":"address","internalType":"address"},{"name":"receiver_","type":"address","internalType":"address"},{"name":"amountInLsd_","type":"uint256","internalType":"uint256"},{"name":"minAmountsOut_","type":"uint256[]","internalType":"uint256[]"}],"outputs":[{"name":"","type":"uint256","internalType":"uint256"}],"stateMutability":"nonpayable"},{"type":"function","name":"useOzTokens","inputs":[{"name":"owner_","type":"address","internalType":"address"},{"name":"data_","type":"bytes","internalType":"bytes"}],"outputs":[{"name":"","type":"uint256","internalType":"uint256"},{"name":"","type":"uint256","internalType":"uint256"}],"stateMutability":"nonpayable"},{"type":"function","name":"useUnderlying","inputs":[{"name":"underlying_","type":"address","internalType":"address"},{"name":"owner_","type":"address","internalType":"address"},{"name":"amounts_","type":"tuple","internalType":"struct AmountsIn","components":[{"name":"amountIn","type":"uint256","internalType":"uint256"},{"name":"minAmountsOut","type":"uint256[]","internalType":"uint256[]"}]}],"outputs":[{"name":"","type":"uint256","internalType":"uint256"}],"stateMutability":"nonpayable"},{"type":"error","name":"OZError01","inputs":[{"name":"errorMsg","type":"string","internalType":"string"}]},{"type":"error","name":"OZError02","inputs":[]},{"type":"error","name":"OZError13","inputs":[{"name":"caller","type":"address","internalType":"address"}]},{"type":"error","name":"OZError20","inputs":[]},{"type":"error","name":"OZError21","inputs":[{"name":"reason","type":"string","internalType":"string"}]}],"bytecode":{"object":"0x608060405234801561001057600080fd5b50611f22806100206000396000f3fe608060405234801561001057600080fd5b50600436106100a85760003560e01c80639ea04fe4116100715780639ea04fe41461012e578063a1b86b3814610141578063ab399cf814610169578063b88a802f14610127578063cc1a378f146100e7578063cd3daf9d1461012757600080fd5b80628cc262146100ad578063094463e7146100d45780633c6b16ab146100e75780637d098e64146100fa57806380faa57d14610127575b600080fd5b6100c16100bb366004611628565b50600090565b6040519081526020015b60405180910390f35b6100c16100e236600461174a565b61017c565b6100f86100f53660046117b6565b50565b005b6040805160008082526020820181905291810182905260608101829052608081019190915260a0016100cb565b60006100c1565b6100c161013c3660046117cf565b6101a4565b61015461014f366004611883565b6104e4565b604080519283526020830191909152016100cb565b6100f861017736600461192f565b6107ad565b600954600090610199906001600160a01b03168686868686610818565b90505b949350505050565b60015460009081805b828110156102025760018054339190839081106101cc576101cc611970565b60009182526020909120600290910201546001600160a01b0316036101f057600191505b806101fa8161199c565b9150506101ad565b5080156104bb57835160208501516102256001600160a01b03891688308561095b565b600354815160009161025e918b916001600160a01b031690309087908790879061025157610251611970565b60200260200101516109cc565b905061026981610b68565b1561049057600354604051632e1a7d4d60e01b8152600481018390526001600160a01b0390911690632e1a7d4d90602401600060405180830381600087803b1580156102b457600080fd5b505af11580156102c8573d6000803e3d6000fd5b5050600f546010546040516321f8a72160e01b81526004810191909152600093506001600160a01b0390911691506321f8a72190602401602060405180830381865afa15801561031c573d6000803e3d6000fd5b505050506040513d601f19601f8201168201806040525081019061034091906119b5565b6009546040516370a0823160e01b81523060048201529192506000916001600160a01b03909116906370a0823190602401602060405180830381865afa15801561038e573d6000803e3d6000fd5b505050506040513d601f19601f820116820180604052508101906103b291906119d2565b9050816001600160a01b031663d0e30db0846040518263ffffffff1660e01b81526004016000604051808303818588803b1580156103ef57600080fd5b505af1158015610403573d6000803e3d6000fd5b50506009546040516370a0823160e01b8152306004820152600094506001600160a01b0390911692506370a082319150602401602060405180830381865afa158015610453573d6000803e3d6000fd5b505050506040513d601f19601f8201168201806040525081019061047791906119d2565b905061048382826119eb565b98505050505050506104db565b6003546009546104b1916001600160a01b0390811691163084866001610818565b95505050506104db565b60405163a43f931360e01b81523360048201526024015b60405180910390fd5b50509392505050565b600154600090819081805b8281101561054457600180543391908390811061050e5761050e611970565b60009182526020909120600290910201546001600160a01b03160361053257600191505b8061053c8161199c565b9150506104ef565b5080156104bb57600080868060200190518101906105629190611a0e565b60408281015160208401519151633d7ad0b760e21b81526001600160a01b038d1660048201529395509193509091600090339063f5eb42dc90602401602060405180830381865afa1580156105bb573d6000803e3d6000fd5b505050506040513d601f19601f820116820180604052508101906105df91906119d2565b90506106206040518060400160405280601e81526020017f736861726573206f776e6572207072652023232323232323232323233a20000081525082610cf7565b84516106319033908d903090610d40565b604051633d7ad0b760e21b81526001600160a01b038c166004820152339063f5eb42dc90602401602060405180830381865afa158015610675573d6000803e3d6000fd5b505050506040513d601f19601f8201168201806040525081019061069991906119d2565b90506106da6040518060400160405280601f81526020017f736861726573206f776e657220706f73742023232323232323232323233a200081525082610cf7565b6009546003546000916106fe916001600160a01b0391821691163086886002610818565b9050610793600060030160009054906101000a90046001600160a01b0316336001600160a01b03166338d52e0f6040518163ffffffff1660e01b8152600401602060405180830381865afa15801561075a573d6000803e3d6000fd5b505050506040513d601f19601f8201168201806040525081019061077e91906119b5565b87848860018151811061025157610251611970565b9299509197506107a4945050505050565b50509250929050565b6107c26001600160a01b03831684308461095b565b60405163c3ae3a0960e01b815260048101829052309063c3ae3a0990602401600060405180830381600087803b1580156107fb57600080fd5b505af115801561080f573d6000803e3d6000fd5b50505050505050565b600080600061082884868a610e4a565b9150915060008060000160009054906101000a90046001600160a01b03166001600160a01b0316631c0de0516040518163ffffffff1660e01b8152600401606060405180830381865afa158015610883573d6000803e3d6000fd5b505050506040513d601f19601f820116820180604052508101906108a79190611b19565b5050905080156108c5576108be8a84308a866109cc565b93506108d4565b6108d18a848985610f08565b93505b60008560028111156108e8576108e8611b4e565b0361094e576003546001600160a01b03908116908a160361091f5760035461091a906001600160a01b03168986611038565b61094e565b600354865161094b916001600160a01b0316908b908b9088908b90600190811061025157610251611970565b93505b5050509695505050505050565b6040516001600160a01b03808516602483015283166044820152606481018290526109c69085906323b872dd60e01b906084015b60408051601f198184030181529190526020810180516001600160e01b03166001600160e01b03199093169290921790915261106d565b50505050565b6006546000906109e9906001600160a01b03888116911685611142565b60408051610100810182526001600160a01b038089168252878116602083015260135462ffffff1692820192909252908516606082015242608082015260a0810184905260009060c08101610a3e8589611257565b815260006020918201526006546040805163414bf38960e01b815284516001600160a01b03908116600483015293850151841660248201529084015162ffffff1660448201526060840151831660648201526080840151608482015260a084015160a482015260c084015160c482015260e0840151831660e4820152929350169063414bf38990610104016020604051808303816000875af1925050508015610b04575060408051601f3d908101601f19168201909252610b01918101906119d2565b60015b610b5657610b10611b64565b806308c379a003610b4a5750610b24611b80565b80610b2f5750610b4c565b8060405163633abab960e01b81526004016104d29190611c5a565b505b3d6000803e3d6000fd5b9150610b5f9050565b95945050505050565b601180546040516335ee5f8760e01b8152602060048201526024810192909252701c9bd8dad95d11195c1bdcda5d141bdbdb607a1b604483015260009182916001600160a01b0316906335ee5f8790606401602060405180830381865afa158015610bd7573d6000803e3d6000fd5b505050506040513d601f19601f82011682018060405250810190610bfb91906119d2565b90506000610c098483611c6d565b600f546012546040516321f8a72160e01b81529293506000926001600160a01b03909216916321f8a72191610c449160040190815260200190565b602060405180830381865afa158015610c61573d6000803e3d6000fd5b505050506040513d601f19601f82011682018060405250810190610c8591906119b5565b90506000816001600160a01b031663fd6ce89e6040518163ffffffff1660e01b8152600401602060405180830381865afa158015610cc7573d6000803e3d6000fd5b505050506040513d601f19601f82011682018060405250810190610ceb91906119d2565b90921095945050505050565b610d3c8282604051602401610d0d929190611c80565b60408051601f198184030181529190526020810180516001600160e01b03166309710a9d60e41b1790526112fa565b5050565b604080516001600160a01b0385811660248301528481166044830152606480830185905283518084039091018152608490920183526020820180516001600160e01b03166323b872dd60e01b1790529151600092839290881691610da49190611ca2565b6000604051808303816000865af19150503d8060008114610de1576040519150601f19603f3d011682016040523d82523d6000602084013e610de6565b606091505b5091509150818015610e10575080511580610e10575080806020019051810190610e109190611cbe565b610e425760405162461bcd60e51b815260206004820152600360248201526229aa2360e91b60448201526064016104d2565b505050505050565b60008080856002811115610e6057610e60611b4e565b03610e975760035484516001600160a01b0390911692508490600090610e8857610e88611970565b60200260200101519050610f00565b6001856002811115610eab57610eab611b4e565b03610ec65782915083600181518110610e8857610e88611970565b6002856002811115610eda57610eda611b4e565b03610f005782915083600081518110610ef557610ef5611970565b602002602001015190505b935093915050565b6040805160c081018083526000805463038fff2d60e41b909252925183929182916001600160a01b03909116906338fff2d09060c4808501916020918187030181865afa158015610f5d573d6000803e3d6000fd5b505050506040513d601f19601f82011682018060405250810190610f8191906119d2565b8152602001600081526001600160a01b038089166020830152871660408201526060810186905260800160006040519080825280601f01601f191660200182016040528015610fd7576020820181803683370190505b5090526040805160808082018352308083526000602084018190529383015260608201929092526008549183015192935091611021916001600160a01b038a811692911690611142565b61102d8282864261131b565b979650505050505050565b6040516001600160a01b03831660248201526044810182905261106890849063a9059cbb60e01b9060640161098f565b505050565b60006110c2826040518060400160405280602081526020017f5361666545524332303a206c6f772d6c6576656c2063616c6c206661696c6564815250856001600160a01b03166114429092919063ffffffff16565b90508051600014806110e35750808060200190518101906110e39190611cbe565b6110685760405162461bcd60e51b815260206004820152602a60248201527f5361666545524332303a204552433230206f7065726174696f6e20646964206e6044820152691bdd081cdd58d8d9595960b21b60648201526084016104d2565b8015806111bc5750604051636eb1769f60e11b81523060048201526001600160a01b03838116602483015284169063dd62ed3e90604401602060405180830381865afa158015611196573d6000803e3d6000fd5b505050506040513d601f19601f820116820180604052508101906111ba91906119d2565b155b6112275760405162461bcd60e51b815260206004820152603660248201527f5361666545524332303a20617070726f76652066726f6d206e6f6e2d7a65726f60448201527520746f206e6f6e2d7a65726f20616c6c6f77616e636560501b60648201526084016104d2565b6040516001600160a01b03831660248201526044810182905261106890849063095ea7b360e01b9060640161098f565b600080826001600160a01b031663313ce5676040518163ffffffff1660e01b8152600401602060405180830381865afa158015611298573d6000803e3d6000fd5b505050506040513d601f19601f820116820180604052508101906112bc9190611cd9565b60ff169050806012146112ee576112d48160126119eb565b6112df90600a611de0565b6112e99085611dec565b6112f0565b835b9150505b92915050565b80516a636f6e736f6c652e6c6f67602083016000808483855afa5050505050565b6008546040516352bbbe2960e01b81526000916001600160a01b0316906352bbbe2990611352908890889088908890600401611e0e565b6020604051808303816000875af192505050801561138d575060408051601f3d908101601f1916820190925261138a918101906119d2565b60015b61141a57611399611b64565b806308c379a003610b4a57506113ad611b80565b806113b85750610b4c565b6113e1816040518060400160405280600781526020016642414c2335303760c81b815250611451565b156113ff57604051637b19dd3560e11b815260040160405180910390fd5b806040516324af18bb60e21b81526004016104d29190611c5a565b8060000361143b57604051635eeb40ff60e11b815260040160405180910390fd5b905061019c565b606061019c84846000856114aa565b6000816040516020016114649190611ca2565b604051602081830303815290604052805190602001208360405160200161148b9190611ca2565b6040516020818303038152906040528051906020012014905092915050565b60608247101561150b5760405162461bcd60e51b815260206004820152602660248201527f416464726573733a20696e73756666696369656e742062616c616e636520666f6044820152651c8818d85b1b60d21b60648201526084016104d2565b600080866001600160a01b031685876040516115279190611ca2565b60006040518083038185875af1925050503d8060008114611564576040519150601f19603f3d011682016040523d82523d6000602084013e611569565b606091505b509150915061102d87838387606083156115e45782516000036115dd576001600160a01b0385163b6115dd5760405162461bcd60e51b815260206004820152601d60248201527f416464726573733a2063616c6c20746f206e6f6e2d636f6e747261637400000060448201526064016104d2565b508161019c565b61019c83838151156115f95781518083602001fd5b8060405162461bcd60e51b81526004016104d29190611c5a565b6001600160a01b03811681146100f557600080fd5b60006020828403121561163a57600080fd5b813561164581611613565b9392505050565b634e487b7160e01b600052604160045260246000fd5b6060810181811067ffffffffffffffff821117156116825761168261164c565b60405250565b601f8201601f1916810167ffffffffffffffff811182821017156116ae576116ae61164c565b6040525050565b600067ffffffffffffffff8211156116cf576116cf61164c565b5060051b60200190565b600082601f8301126116ea57600080fd5b813560206116f7826116b5565b6040516117048282611688565b83815260059390931b850182019282810191508684111561172457600080fd5b8286015b8481101561173f5780358352918301918301611728565b509695505050505050565b6000806000806080858703121561176057600080fd5b843561176b81611613565b9350602085013561177b81611613565b925060408501359150606085013567ffffffffffffffff81111561179e57600080fd5b6117aa878288016116d9565b91505092959194509250565b6000602082840312156117c857600080fd5b5035919050565b6000806000606084860312156117e457600080fd5b83356117ef81611613565b925060208401356117ff81611613565b9150604084013567ffffffffffffffff8082111561181c57600080fd5b908501906040828803121561183057600080fd5b60405160408101818110838211171561184b5761184b61164c565b6040528235815260208301358281111561186457600080fd5b611870898286016116d9565b6020830152508093505050509250925092565b6000806040838503121561189657600080fd5b82356118a181611613565b915060208381013567ffffffffffffffff808211156118bf57600080fd5b818601915086601f8301126118d357600080fd5b8135818111156118e5576118e561164c565b60405191506118fd601f8201601f1916850183611688565b808252878482850101111561191157600080fd5b80848401858401376000848284010152508093505050509250929050565b60008060006060848603121561194457600080fd5b833561194f81611613565b9250602084013561195f81611613565b929592945050506040919091013590565b634e487b7160e01b600052603260045260246000fd5b634e487b7160e01b600052601160045260246000fd5b6000600182016119ae576119ae611986565b5060010190565b6000602082840312156119c757600080fd5b815161164581611613565b6000602082840312156119e457600080fd5b5051919050565b818103818111156112f4576112f4611986565b8051611a0981611613565b919050565b60008060408385031215611a2157600080fd5b825167ffffffffffffffff80821115611a3957600080fd5b9084019060608287031215611a4d57600080fd5b604051611a5981611662565b8251815260208084015181830152604084015183811115611a7957600080fd5b80850194505087601f850112611a8e57600080fd5b83519250611a9b836116b5565b604051611aa88282611688565b84815260059490941b8501820193828101915089851115611ac857600080fd5b948201945b84861015611ae657855182529482019490820190611acd565b8060408501525050819550611afc8188016119fe565b9450505050509250929050565b80518015158114611a0957600080fd5b600080600060608486031215611b2e57600080fd5b611b3784611b09565b925060208401519150604084015190509250925092565b634e487b7160e01b600052602160045260246000fd5b600060033d1115611b7d5760046000803e5060005160e01c5b90565b600060443d1015611b8e5790565b6040516003193d81016004833e81513d67ffffffffffffffff8160248401118184111715611bbe57505050505090565b8285019150815181811115611bd65750505050505090565b843d8701016020828501011115611bf05750505050505090565b611bff60208286010187611688565b509095945050505050565b60005b83811015611c25578181015183820152602001611c0d565b50506000910152565b60008151808452611c46816020860160208601611c0a565b601f01601f19169290920160200192915050565b6020815260006116456020830184611c2e565b808201808211156112f4576112f4611986565b604081526000611c936040830185611c2e565b90508260208301529392505050565b60008251611cb4818460208701611c0a565b9190910192915050565b600060208284031215611cd057600080fd5b61164582611b09565b600060208284031215611ceb57600080fd5b815160ff8116811461164557600080fd5b600181815b80851115611d37578160001904821115611d1d57611d1d611986565b80851615611d2a57918102915b93841c9390800290611d01565b509250929050565b600082611d4e575060016112f4565b81611d5b575060006112f4565b8160018114611d715760028114611d7b57611d97565b60019150506112f4565b60ff841115611d8c57611d8c611986565b50506001821b6112f4565b5060208310610133831016604e8410600b8410161715611dba575081810a6112f4565b611dc48383611cfc565b8060001904821115611dd857611dd8611986565b029392505050565b60006116458383611d3f565b600082611e0957634e487b7160e01b600052601260045260246000fd5b500490565b60e08152845160e08201526000602086015160028110611e3e57634e487b7160e01b600052602160045260246000fd5b61010083015260408601516001600160a01b03166101208301526060860151611e736101408401826001600160a01b03169052565b50608086015161016083015260a086015160c0610180840152611e9a6101a0840182611c2e565b915050611eda602083018680516001600160a01b039081168352602080830151151590840152604080830151909116908301526060908101511515910152565b60a082019390935260c001529291505056fea2646970667358221220718c0fe8f15231fa45cfa335d1e595dd0798350146a68c54da754e7820e7f8ce64736f6c63430008150033","linkReferences":{}},"methodIdentifiers":{"claimReward()":"b88a802f","earned(address)":"008cc262","getRewardsData()":"7d098e64","lastTimeRewardApplicable()":"80faa57d","notifyRewardAmount(uint256)":"3c6b16ab","recicleOZL(address,address,uint256)":"ab399cf8","rewardPerToken()":"cd3daf9d","setRewardsDuration(uint256)":"cc1a378f","useOZL(address,address,uint256,uint256[])":"094463e7","useOzTokens(address,bytes)":"a1b86b38","useUnderlying(address,address,(uint256,uint256[]))":"9ea04fe4"},"id":17}