{
  "abi": [
    {
      "inputs": [
        {
          "internalType": "string",
          "name": "errorMsg",
          "type": "string"
        }
      ],
      "name": "OZError01",
      "type": "error"
    },
    {
      "inputs": [],
      "name": "OZError02",
      "type": "error"
    },
    {
      "inputs": [
        {
          "internalType": "address",
          "name": "caller",
          "type": "address"
        }
      ],
      "name": "OZError13",
      "type": "error"
    },
    {
      "inputs": [],
      "name": "OZError20",
      "type": "error"
    },
    {
      "inputs": [
        {
          "internalType": "string",
          "name": "reason",
          "type": "string"
        }
      ],
      "name": "OZError21",
      "type": "error"
    },
    {
      "inputs": [],
      "name": "claimReward",
      "outputs": [
        {
          "internalType": "uint256",
          "name": "",
          "type": "uint256"
        }
      ],
      "stateMutability": "nonpayable",
      "type": "function"
    },
    {
      "inputs": [
        {
          "internalType": "address",
          "name": "user_",
          "type": "address"
        }
      ],
      "name": "earned",
      "outputs": [
        {
          "internalType": "uint256",
          "name": "",
          "type": "uint256"
        }
      ],
      "stateMutability": "view",
      "type": "function"
    },
    {
      "inputs": [],
      "name": "getRewardsData",
      "outputs": [
        {
          "internalType": "uint256",
          "name": "rewardRate",
          "type": "uint256"
        },
        {
          "internalType": "uint256",
          "name": "circulatingSupply",
          "type": "uint256"
        },
        {
          "internalType": "uint256",
          "name": "pendingAllocation",
          "type": "uint256"
        },
        {
          "internalType": "uint256",
          "name": "recicledSupply",
          "type": "uint256"
        },
        {
          "internalType": "int256",
          "name": "durationLeft",
          "type": "int256"
        }
      ],
      "stateMutability": "view",
      "type": "function"
    },
    {
      "inputs": [],
      "name": "lastTimeRewardApplicable",
      "outputs": [
        {
          "internalType": "uint256",
          "name": "",
          "type": "uint256"
        }
      ],
      "stateMutability": "view",
      "type": "function"
    },
    {
      "inputs": [
        {
          "internalType": "uint256",
          "name": "amount_",
          "type": "uint256"
        }
      ],
      "name": "notifyRewardAmount",
      "outputs": [],
      "stateMutability": "nonpayable",
      "type": "function"
    },
    {
      "inputs": [
        {
          "internalType": "address",
          "name": "owner_",
          "type": "address"
        },
        {
          "internalType": "address",
          "name": "ozl_",
          "type": "address"
        },
        {
          "internalType": "uint256",
          "name": "amountIn_",
          "type": "uint256"
        }
      ],
      "name": "recicleOZL",
      "outputs": [],
      "stateMutability": "nonpayable",
      "type": "function"
    },
    {
      "inputs": [],
      "name": "rewardPerToken",
      "outputs": [
        {
          "internalType": "uint256",
          "name": "",
          "type": "uint256"
        }
      ],
      "stateMutability": "view",
      "type": "function"
    },
    {
      "inputs": [
        {
          "internalType": "uint256",
          "name": "duration_",
          "type": "uint256"
        }
      ],
      "name": "setRewardsDuration",
      "outputs": [],
      "stateMutability": "nonpayable",
      "type": "function"
    },
    {
      "inputs": [
        {
          "internalType": "address",
          "name": "tokenOut_",
          "type": "address"
        },
        {
          "internalType": "address",
          "name": "receiver_",
          "type": "address"
        },
        {
          "internalType": "uint256",
          "name": "amountInLsd_",
          "type": "uint256"
        },
        {
          "internalType": "uint256[]",
          "name": "minAmountsOut_",
          "type": "uint256[]"
        }
      ],
      "name": "useOZL",
      "outputs": [
        {
          "internalType": "uint256",
          "name": "",
          "type": "uint256"
        }
      ],
      "stateMutability": "nonpayable",
      "type": "function"
    },
    {
      "inputs": [
        {
          "internalType": "address",
          "name": "owner_",
          "type": "address"
        },
        {
          "internalType": "bytes",
          "name": "data_",
          "type": "bytes"
        }
      ],
      "name": "useOzTokens",
      "outputs": [
        {
          "internalType": "uint256",
          "name": "",
          "type": "uint256"
        },
        {
          "internalType": "uint256",
          "name": "",
          "type": "uint256"
        }
      ],
      "stateMutability": "nonpayable",
      "type": "function"
    },
    {
      "inputs": [
        {
          "internalType": "address",
          "name": "underlying_",
          "type": "address"
        },
        {
          "internalType": "address",
          "name": "owner_",
          "type": "address"
        },
        {
          "components": [
            {
              "internalType": "uint256",
              "name": "amountIn",
              "type": "uint256"
            },
            {
              "internalType": "uint256[]",
              "name": "minAmountsOut",
              "type": "uint256[]"
            }
          ],
          "internalType": "struct AmountsIn",
          "name": "amounts_",
          "type": "tuple"
        }
      ],
      "name": "useUnderlying",
      "outputs": [
        {
          "internalType": "uint256",
          "name": "",
          "type": "uint256"
        }
      ],
      "stateMutability": "nonpayable",
      "type": "function"
    }
  ],
  "bytecode": {
    "object": "0x608060405234801561001057600080fd5b50611c27806100206000396000f3fe608060405234801561001057600080fd5b50600436106100a85760003560e01c80639ea04fe4116100715780639ea04fe41461012e578063a1b86b3814610141578063ab399cf814610169578063b88a802f14610127578063cc1a378f146100e7578063cd3daf9d1461012757600080fd5b80628cc262146100ad578063094463e7146100d45780633c6b16ab146100e75780637d098e64146100fa57806380faa57d14610127575b600080fd5b6100c16100bb3660046113ce565b50600090565b6040519081526020015b60405180910390f35b6100c16100e23660046114c3565b61017c565b6100f86100f536600461152f565b50565b005b6040805160008082526020820181905291810182905260608101829052608081019190915260a0016100cb565b60006100c1565b6100c161013c366004611548565b6101a4565b61015461014f3660046115fc565b610490565b604080519283526020830191909152016100cb565b6100f86101773660046116a8565b6105bd565b600954600090610199906001600160a01b03168686868686610628565b90505b949350505050565b3360009081526014602052604081205460ff166101db5760405163a43f931360e01b81523360048201526024015b60405180910390fd5b815160208301516101f76001600160a01b03871686308561076b565b60035481516000916102309189916001600160a01b0316903090879087908790610223576102236116e9565b60200260200101516107dc565b905061023b81610978565b1561046257600354604051632e1a7d4d60e01b8152600481018390526001600160a01b0390911690632e1a7d4d90602401600060405180830381600087803b15801561028657600080fd5b505af115801561029a573d6000803e3d6000fd5b5050600f546010546040516321f8a72160e01b81526004810191909152600093506001600160a01b0390911691506321f8a72190602401602060405180830381865afa1580156102ee573d6000803e3d6000fd5b505050506040513d601f19601f8201168201806040525081019061031291906116ff565b6009546040516370a0823160e01b81523060048201529192506000916001600160a01b03909116906370a0823190602401602060405180830381865afa158015610360573d6000803e3d6000fd5b505050506040513d601f19601f82011682018060405250810190610384919061171c565b9050816001600160a01b031663d0e30db0846040518263ffffffff1660e01b81526004016000604051808303818588803b1580156103c157600080fd5b505af11580156103d5573d6000803e3d6000fd5b50506009546040516370a0823160e01b8152306004820152600094506001600160a01b0390911692506370a082319150602401602060405180830381865afa158015610425573d6000803e3d6000fd5b505050506040513d601f19601f82011682018060405250810190610449919061171c565b9050610455828261174b565b9650505050505050610489565b600354600954610483916001600160a01b0390811691163084866001610628565b93505050505b9392505050565b33600090815260146020526040812054819060ff166104c45760405163a43f931360e01b81523360048201526024016101d2565b600080600080868060200190518101906104de919061176e565b929650909450925090506104f433893087610b07565b600954600354600091610518916001600160a01b0391821691163087876002610628565b90506105ad600060030160009054906101000a90046001600160a01b0316336001600160a01b03166338d52e0f6040518163ffffffff1660e01b8152600401602060405180830381865afa158015610574573d6000803e3d6000fd5b505050506040513d601f19601f8201168201806040525081019061059891906116ff565b848487600181518110610223576102236116e9565b9399939850929650505050505050565b6105d26001600160a01b03831684308461076b565b60405163c3ae3a0960e01b815260048101829052309063c3ae3a0990602401600060405180830381600087803b15801561060b57600080fd5b505af115801561061f573d6000803e3d6000fd5b50505050505050565b600080600061063884868a610c11565b9150915060008060000160009054906101000a90046001600160a01b03166001600160a01b0316631c0de0516040518163ffffffff1660e01b8152600401606060405180830381865afa158015610693573d6000803e3d6000fd5b505050506040513d601f19601f820116820180604052508101906106b79190611840565b5050905080156106d5576106ce8a84308a866107dc565b93506106e4565b6106e18a848985610ccf565b93505b60008560028111156106f8576106f8611875565b0361075e576003546001600160a01b03908116908a160361072f5760035461072a906001600160a01b03168986610dff565b61075e565b600354865161075b916001600160a01b0316908b908b9088908b906001908110610223576102236116e9565b93505b5050509695505050505050565b6040516001600160a01b03808516602483015283166044820152606481018290526107d69085906323b872dd60e01b906084015b60408051601f198184030181529190526020810180516001600160e01b03166001600160e01b031990931692909217909152610e34565b50505050565b6006546000906107f9906001600160a01b03888116911685610f09565b60408051610100810182526001600160a01b038089168252878116602083015260135462ffffff1692820192909252908516606082015242608082015260a0810184905260009060c0810161084e858961101e565b815260006020918201526006546040805163414bf38960e01b815284516001600160a01b03908116600483015293850151841660248201529084015162ffffff1660448201526060840151831660648201526080840151608482015260a084015160a482015260c084015160c482015260e0840151831660e4820152929350169063414bf38990610104016020604051808303816000875af1925050508015610914575060408051601f3d908101601f191682019092526109119181019061171c565b60015b6109665761092061188b565b806308c379a00361095a57506109346118a7565b8061093f575061095c565b8060405163633abab960e01b81526004016101d29190611981565b505b3d6000803e3d6000fd5b915061096f9050565b95945050505050565b601180546040516335ee5f8760e01b8152602060048201526024810192909252701c9bd8dad95d11195c1bdcda5d141bdbdb607a1b604483015260009182916001600160a01b0316906335ee5f8790606401602060405180830381865afa1580156109e7573d6000803e3d6000fd5b505050506040513d601f19601f82011682018060405250810190610a0b919061171c565b90506000610a198483611994565b600f546012546040516321f8a72160e01b81529293506000926001600160a01b03909216916321f8a72191610a549160040190815260200190565b602060405180830381865afa158015610a71573d6000803e3d6000fd5b505050506040513d601f19601f82011682018060405250810190610a9591906116ff565b90506000816001600160a01b031663fd6ce89e6040518163ffffffff1660e01b8152600401602060405180830381865afa158015610ad7573d6000803e3d6000fd5b505050506040513d601f19601f82011682018060405250810190610afb919061171c565b90921095945050505050565b604080516001600160a01b0385811660248301528481166044830152606480830185905283518084039091018152608490920183526020820180516001600160e01b03166323b872dd60e01b1790529151600092839290881691610b6b91906119a7565b6000604051808303816000865af19150503d8060008114610ba8576040519150601f19603f3d011682016040523d82523d6000602084013e610bad565b606091505b5091509150818015610bd7575080511580610bd7575080806020019051810190610bd791906119c3565b610c095760405162461bcd60e51b815260206004820152600360248201526229aa2360e91b60448201526064016101d2565b505050505050565b60008080856002811115610c2757610c27611875565b03610c5e5760035484516001600160a01b0390911692508490600090610c4f57610c4f6116e9565b60200260200101519050610cc7565b6001856002811115610c7257610c72611875565b03610c8d5782915083600181518110610c4f57610c4f6116e9565b6002856002811115610ca157610ca1611875565b03610cc75782915083600081518110610cbc57610cbc6116e9565b602002602001015190505b935093915050565b6040805160c081018083526000805463038fff2d60e41b909252925183929182916001600160a01b03909116906338fff2d09060c4808501916020918187030181865afa158015610d24573d6000803e3d6000fd5b505050506040513d601f19601f82011682018060405250810190610d48919061171c565b8152602001600081526001600160a01b038089166020830152871660408201526060810186905260800160006040519080825280601f01601f191660200182016040528015610d9e576020820181803683370190505b5090526040805160808082018352308083526000602084018190529383015260608201929092526008549183015192935091610de8916001600160a01b038a811692911690610f09565b610df4828286426110c1565b979650505050505050565b6040516001600160a01b038316602482015260448101829052610e2f90849063a9059cbb60e01b9060640161079f565b505050565b6000610e89826040518060400160405280602081526020017f5361666545524332303a206c6f772d6c6576656c2063616c6c206661696c6564815250856001600160a01b03166111e89092919063ffffffff16565b9050805160001480610eaa575080806020019051810190610eaa91906119c3565b610e2f5760405162461bcd60e51b815260206004820152602a60248201527f5361666545524332303a204552433230206f7065726174696f6e20646964206e6044820152691bdd081cdd58d8d9595960b21b60648201526084016101d2565b801580610f835750604051636eb1769f60e11b81523060048201526001600160a01b03838116602483015284169063dd62ed3e90604401602060405180830381865afa158015610f5d573d6000803e3d6000fd5b505050506040513d601f19601f82011682018060405250810190610f81919061171c565b155b610fee5760405162461bcd60e51b815260206004820152603660248201527f5361666545524332303a20617070726f76652066726f6d206e6f6e2d7a65726f60448201527520746f206e6f6e2d7a65726f20616c6c6f77616e636560501b60648201526084016101d2565b6040516001600160a01b038316602482015260448101829052610e2f90849063095ea7b360e01b9060640161079f565b600080826001600160a01b031663313ce5676040518163ffffffff1660e01b8152600401602060405180830381865afa15801561105f573d6000803e3d6000fd5b505050506040513d601f19601f8201168201806040525081019061108391906119de565b60ff169050806012146110b55761109b81601261174b565b6110a690600a611ae5565b6110b09085611af1565b6110b7565b835b9150505b92915050565b6008546040516352bbbe2960e01b81526000916001600160a01b0316906352bbbe29906110f8908890889088908890600401611b13565b6020604051808303816000875af1925050508015611133575060408051601f3d908101601f191682019092526111309181019061171c565b60015b6111c05761113f61188b565b806308c379a00361095a57506111536118a7565b8061115e575061095c565b611187816040518060400160405280600781526020016642414c2335303760c81b8152506111f7565b156111a557604051637b19dd3560e11b815260040160405180910390fd5b806040516324af18bb60e21b81526004016101d29190611981565b806000036111e157604051635eeb40ff60e11b815260040160405180910390fd5b905061019c565b606061019c8484600085611250565b60008160405160200161120a91906119a7565b604051602081830303815290604052805190602001208360405160200161123191906119a7565b6040516020818303038152906040528051906020012014905092915050565b6060824710156112b15760405162461bcd60e51b815260206004820152602660248201527f416464726573733a20696e73756666696369656e742062616c616e636520666f6044820152651c8818d85b1b60d21b60648201526084016101d2565b600080866001600160a01b031685876040516112cd91906119a7565b60006040518083038185875af1925050503d806000811461130a576040519150601f19603f3d011682016040523d82523d6000602084013e61130f565b606091505b5091509150610df4878383876060831561138a578251600003611383576001600160a01b0385163b6113835760405162461bcd60e51b815260206004820152601d60248201527f416464726573733a2063616c6c20746f206e6f6e2d636f6e747261637400000060448201526064016101d2565b508161019c565b61019c838381511561139f5781518083602001fd5b8060405162461bcd60e51b81526004016101d29190611981565b6001600160a01b03811681146100f557600080fd5b6000602082840312156113e057600080fd5b8135610489816113b9565b634e487b7160e01b600052604160045260246000fd5b601f8201601f1916810167ffffffffffffffff81118282101715611427576114276113eb565b6040525050565b600067ffffffffffffffff821115611448576114486113eb565b5060051b60200190565b600082601f83011261146357600080fd5b813560206114708261142e565b60405161147d8282611401565b83815260059390931b850182019282810191508684111561149d57600080fd5b8286015b848110156114b857803583529183019183016114a1565b509695505050505050565b600080600080608085870312156114d957600080fd5b84356114e4816113b9565b935060208501356114f4816113b9565b925060408501359150606085013567ffffffffffffffff81111561151757600080fd5b61152387828801611452565b91505092959194509250565b60006020828403121561154157600080fd5b5035919050565b60008060006060848603121561155d57600080fd5b8335611568816113b9565b92506020840135611578816113b9565b9150604084013567ffffffffffffffff8082111561159557600080fd5b90850190604082880312156115a957600080fd5b6040516040810181811083821117156115c4576115c46113eb565b604052823581526020830135828111156115dd57600080fd5b6115e989828601611452565b6020830152508093505050509250925092565b6000806040838503121561160f57600080fd5b823561161a816113b9565b915060208381013567ffffffffffffffff8082111561163857600080fd5b818601915086601f83011261164c57600080fd5b81358181111561165e5761165e6113eb565b6040519150611676601f8201601f1916850183611401565b808252878482850101111561168a57600080fd5b80848401858401376000848284010152508093505050509250929050565b6000806000606084860312156116bd57600080fd5b83356116c8816113b9565b925060208401356116d8816113b9565b929592945050506040919091013590565b634e487b7160e01b600052603260045260246000fd5b60006020828403121561171157600080fd5b8151610489816113b9565b60006020828403121561172e57600080fd5b5051919050565b634e487b7160e01b600052601160045260246000fd5b818103818111156110bb576110bb611735565b8051611769816113b9565b919050565b6000806000806080858703121561178457600080fd5b845193506020808601519350604086015167ffffffffffffffff8111156117aa57600080fd5b8601601f810188136117bb57600080fd5b80516117c68161142e565b6040516117d38282611401565b82815260059290921b830184019184810191508a8311156117f357600080fd5b928401925b82841015611811578351825292840192908401906117f8565b80965050505050506118256060860161175e565b905092959194509250565b8051801515811461176957600080fd5b60008060006060848603121561185557600080fd5b61185e84611830565b925060208401519150604084015190509250925092565b634e487b7160e01b600052602160045260246000fd5b600060033d11156118a45760046000803e5060005160e01c5b90565b600060443d10156118b55790565b6040516003193d81016004833e81513d67ffffffffffffffff81602484011181841117156118e557505050505090565b82850191508151818111156118fd5750505050505090565b843d87010160208285010111156119175750505050505090565b61192660208286010187611401565b509095945050505050565b60005b8381101561194c578181015183820152602001611934565b50506000910152565b6000815180845261196d816020860160208601611931565b601f01601f19169290920160200192915050565b6020815260006104896020830184611955565b808201808211156110bb576110bb611735565b600082516119b9818460208701611931565b9190910192915050565b6000602082840312156119d557600080fd5b61048982611830565b6000602082840312156119f057600080fd5b815160ff8116811461048957600080fd5b600181815b80851115611a3c578160001904821115611a2257611a22611735565b80851615611a2f57918102915b93841c9390800290611a06565b509250929050565b600082611a53575060016110bb565b81611a60575060006110bb565b8160018114611a765760028114611a8057611a9c565b60019150506110bb565b60ff841115611a9157611a91611735565b50506001821b6110bb565b5060208310610133831016604e8410600b8410161715611abf575081810a6110bb565b611ac98383611a01565b8060001904821115611add57611add611735565b029392505050565b60006104898383611a44565b600082611b0e57634e487b7160e01b600052601260045260246000fd5b500490565b60e08152845160e08201526000602086015160028110611b4357634e487b7160e01b600052602160045260246000fd5b61010083015260408601516001600160a01b03166101208301526060860151611b786101408401826001600160a01b03169052565b50608086015161016083015260a086015160c0610180840152611b9f6101a0840182611955565b915050611bdf602083018680516001600160a01b039081168352602080830151151590840152604080830151909116908301526060908101511515910152565b60a082019390935260c001529291505056fea2646970667358221220d95c4930628a3e41c7c51058f2ad9089cd15b179c3fccd3d451b4d887721048464736f6c63430008150033",
    "linkReferences": {}
  },
  "methodIdentifiers": {
    "claimReward()": "b88a802f",
    "earned(address)": "008cc262",
    "getRewardsData()": "7d098e64",
    "lastTimeRewardApplicable()": "80faa57d",
    "notifyRewardAmount(uint256)": "3c6b16ab",
    "recicleOZL(address,address,uint256)": "ab399cf8",
    "rewardPerToken()": "cd3daf9d",
    "setRewardsDuration(uint256)": "cc1a378f",
    "useOZL(address,address,uint256,uint256[])": "094463e7",
    "useOzTokens(address,bytes)": "a1b86b38",
    "useUnderlying(address,address,(uint256,uint256[]))": "9ea04fe4"
  },
  "id": 15
}