{"abi":[{"type":"function","name":"claimReward","inputs":[],"outputs":[{"name":"","type":"uint256","internalType":"uint256"}],"stateMutability":"nonpayable"},{"type":"function","name":"earned","inputs":[{"name":"user_","type":"address","internalType":"address"}],"outputs":[{"name":"","type":"uint256","internalType":"uint256"}],"stateMutability":"view"},{"type":"function","name":"executeRebaseSwap","inputs":[],"outputs":[{"name":"","type":"bool","internalType":"bool"}],"stateMutability":"nonpayable"},{"type":"function","name":"getRewardsData","inputs":[],"outputs":[{"name":"rewardRate","type":"uint256","internalType":"uint256"},{"name":"circulatingSupply","type":"uint256","internalType":"uint256"},{"name":"pendingAllocation","type":"uint256","internalType":"uint256"},{"name":"recicledSupply","type":"uint256","internalType":"uint256"},{"name":"durationLeft","type":"int256","internalType":"int256"}],"stateMutability":"view"},{"type":"function","name":"lastTimeRewardApplicable","inputs":[],"outputs":[{"name":"","type":"uint256","internalType":"uint256"}],"stateMutability":"view"},{"type":"function","name":"notifyRewardAmount","inputs":[{"name":"amount_","type":"uint256","internalType":"uint256"}],"outputs":[],"stateMutability":"nonpayable"},{"type":"function","name":"recicleOZL","inputs":[{"name":"owner_","type":"address","internalType":"address"},{"name":"ozl_","type":"address","internalType":"address"},{"name":"amountIn_","type":"uint256","internalType":"uint256"}],"outputs":[],"stateMutability":"nonpayable"},{"type":"function","name":"rewardPerToken","inputs":[],"outputs":[{"name":"","type":"uint256","internalType":"uint256"}],"stateMutability":"view"},{"type":"function","name":"setRewardsDuration","inputs":[{"name":"duration_","type":"uint256","internalType":"uint256"}],"outputs":[],"stateMutability":"nonpayable"},{"type":"function","name":"useOZL","inputs":[{"name":"tokenOut_","type":"address","internalType":"address"},{"name":"receiver_","type":"address","internalType":"address"},{"name":"amountInLsd_","type":"uint256","internalType":"uint256"},{"name":"minAmountsOut_","type":"uint256[]","internalType":"uint256[]"}],"outputs":[{"name":"","type":"uint256","internalType":"uint256"}],"stateMutability":"nonpayable"},{"type":"function","name":"useOzTokens","inputs":[{"name":"owner_","type":"address","internalType":"address"},{"name":"data_","type":"bytes","internalType":"bytes"}],"outputs":[{"name":"","type":"uint256","internalType":"uint256"},{"name":"","type":"uint256","internalType":"uint256"}],"stateMutability":"nonpayable"},{"type":"function","name":"useUnderlying","inputs":[{"name":"stable_","type":"address","internalType":"address"},{"name":"owner_","type":"address","internalType":"address"},{"name":"amts_","type":"tuple","internalType":"struct AmountsIn","components":[{"name":"amountInStable","type":"uint256","internalType":"uint256"},{"name":"amountInETH","type":"uint256","internalType":"uint256"},{"name":"minAmountOutRETH","type":"uint256","internalType":"uint256"}]},{"name":"isETH_","type":"bool","internalType":"bool"}],"outputs":[{"name":"","type":"uint256","internalType":"uint256"},{"name":"","type":"uint256","internalType":"uint256"}],"stateMutability":"payable"},{"type":"error","name":"OZError01","inputs":[{"name":"errorMsg","type":"string","internalType":"string"}]},{"type":"error","name":"OZError02","inputs":[]},{"type":"error","name":"OZError13","inputs":[{"name":"caller","type":"address","internalType":"address"}]},{"type":"error","name":"OZError20","inputs":[]},{"type":"error","name":"OZError21","inputs":[{"name":"reason","type":"string","internalType":"string"}]}],"bytecode":{"object":"0x608060405234801561000f575f80fd5b50612e488061001d5f395ff3fe6080604052600436106100a4575f3560e01c806380faa57d1161006257806380faa57d1461019c578063a1b86b38146101ae578063ab399cf8146101cd578063b88a802f1461019c578063cc1a378f146100f9578063cd3daf9d1461019c575f80fd5b80628cc262146100a8578063094463e7146100da5780633c6b16ab146100f957806355dae15c146101185780635c0c9cc3146101405780637d098e6414610164575b5f80fd5b3480156100b3575f80fd5b506100c76100c236600461253a565b505f90565b6040519081526020015b60405180910390f35b3480156100e5575f80fd5b506100c76100f43660046125df565b6101ec565b348015610104575f80fd5b506101166101133660046126a4565b50565b005b61012b6101263660046126c8565b610213565b604080519283526020830191909152016100d1565b34801561014b575f80fd5b5061015461061c565b60405190151581526020016100d1565b34801561016f575f80fd5b50604080515f8082526020820181905291810182905260608101829052608081019190915260a0016100d1565b3480156101a7575f80fd5b505f6100c7565b3480156101b9575f80fd5b5061012b6101c836600461274d565b610f80565b3480156101d8575f80fd5b506101166101e73660046127f3565b6110ed565b6009545f90610208906001600160a01b03168686868686611153565b90505b949350505050565b6001545f90819081805b8281101561026757600180543391908390811061023c5761023c612831565b5f9182526020909120600290910201546001600160a01b03160361025f57600191505b60010161021d565b5080156105f15785515f6102866001600160a01b038b168a308561128e565b86156102e95760035460408051630d0e30db60e41b815290516001600160a01b039092169163d0e30db09134916004808301925f92919082900301818588803b1580156102d1575f80fd5b505af11580156102e3573d5f803e3d5ffd5b50505050505b6003546040516370a0823160e01b81523060048201525f916001600160a01b0316906370a0823190602401602060405180830381865afa15801561032f573d5f803e3d5ffd5b505050506040513d601f19601f820116820180604052508101906103539190612845565b905061035e816112ff565b1561057057600354604051632e1a7d4d60e01b8152600481018390526001600160a01b0390911690632e1a7d4d906024015f604051808303815f87803b1580156103a6575f80fd5b505af11580156103b8573d5f803e3d5ffd5b5050600f546010546040516321f8a72160e01b815260048101919091525f93506001600160a01b0390911691506321f8a72190602401602060405180830381865afa158015610409573d5f803e3d5ffd5b505050506040513d601f19601f8201168201806040525081019061042d919061285c565b6009546040516370a0823160e01b81523060048201529192505f916001600160a01b03909116906370a0823190602401602060405180830381865afa158015610478573d5f803e3d5ffd5b505050506040513d601f19601f8201168201806040525081019061049c9190612845565b9050816001600160a01b031663d0e30db0846040518263ffffffff1660e01b81526004015f604051808303818588803b1580156104d7575f80fd5b505af11580156104e9573d5f803e3d5ffd5b50506009546040516370a0823160e01b81523060048201525f94506001600160a01b0390911692506370a082319150602401602060405180830381865afa158015610536573d5f803e3d5ffd5b505050506040513d601f19601f8201168201806040525081019061055a9190612845565b9050610566828261288b565b94505050506105d7565b6040805160028082526060820183525f926020830190803683370190505090508960400151815f815181106105a7576105a7612831565b60209081029190910101526003546009546105d3916001600160a01b0390811691163085856001611484565b9250505b5f6105e2848d61164f565b92975091955061061192505050565b60405163a43f931360e01b81523360048201526024015b60405180910390fd5b505094509492505050565b6035546034545f914291610630919061289e565b101561063b57505f90565b5f610645306117b0565b90506106766040518060400160405280600d81526020016c03930ba32a922aa2422aa241d1609d1b81525082611802565b603a548111610686575f91505090565b6009546040516370a0823160e01b81523060048201525f916001600160a01b0316906370a0823190602401602060405180830381865afa1580156106cc573d5f803e3d5ffd5b505050506040513d601f19601f820116820180604052508101906106f09190612845565b90506107316040518060400160405280601b81526020017f73797342616c616e636552455448202d2070726520737761703a20000000000081525082611802565b5f6107458284670de0b6b3a764000061184b565b90506107866040518060400160405280601881526020017f73797342616c616e6365436f6e7665727465644554483a20000000000000000081525082611802565b61079d60405180602001604052805f815250611866565b6107d4604051806040016040528060118152602001700399739bcb9a130b630b731b2a2aa241d1607d1b8152505f60380154611802565b6038545f906107e3908361288b565b90506108136040518060400160405280600c81526020016b03932bbb0b93239a2aa241d160a51b81525082611802565b5f61082782670de0b6b3a76400008761184b565b905061085d60405180604001604052806012815260200171030b6b7bab73a2a37a9bbb0b82922aa241d160751b81525082611802565b6040805160028082526060820183525f9260208301908036833701905050905061089460405180602001604052805f815250611866565b6108c36040518060400160405280600e81526020016d151515151029aba0a8101515151560911b815250611866565b6108da60405180602001604052805f815250611866565b6009546004545f916108fd916001600160a01b0391821691163086866003611484565b9050805f03610913575f97505050505050505090565b61094b60405180604001604052806016815260200175030b6b7bab73a27baba2aa9a221901515151515151d160551b81525082611802565b805f6039015f82825461095e919061289e565b9091555050603a8790554260345560408051808201909152601881527f6c6173745265626173655072696365524554484554483a20000000000000000060208201526109aa9088611802565b604080518082018252601e81527f555344432062616c206469616d6f6e64202d20706f737420737761703a20000060208201526004805492516370a0823160e01b81523091810191909152610a50926001600160a01b0316906370a0823190602401602060405180830381865afa158015610a27573d5f803e3d5ffd5b505050506040513d601f19601f82011682018060405250810190610a4b9190612845565b611802565b603c54610a64575f97505050505050505090565b5f5b603b54811015610d52575f80603b018281548110610a8657610a86612831565b5f918252602080832060408051608081018252600490940290910180548452600180820154858501526002820154858401526003909101546001600160a01b03166060850181905280865292829052908420549294509092918291610aeb919061289e565b90505f846040015142610afe91906128b1565b610b0b9062093a806128b1565b90508015610b195780610b1e565b62093a805b90505f81865f0151610b3091906128d7565b9050610b4960405180602001604052805f815250611866565b610b716040518060400160405280600681526020016503ab9b2b91d160d51b815250866118a9565b610b9a60405180604001604052806007815260200166034b73232bc1d160cd1b81525084611802565b610bd060405180604001604052806014815260200173031b7b73a3934b13aba34b7b72330b1ba37b91d160651b81525082611802565b610bda60016118ee565b6040516001600160a01b03861660248201526044810184905260648101829052610c44906364b3e47f60e11b906084015b60408051601f198184030181529190526020810180516001600160e01b03166001600160e01b0319909316929092179091523090611933565b50610c4f60026118ee565b6001600160a01b038581165f8181526036602090815260408083208054600180820183559185528385208d516004909202019081558c840151918101919091558b820151600282015560608c0151600390910180546001600160a01b031916919096161790945591815290829052908120805491610ccc836128ee565b9091555050604080518082018252601981527f732e75736572735b757365725d2e696e646578202d20313a20000000000000006020808301919091526001600160a01b0388165f908152908390529190912054610d299190611802565b610d4060405180602001604052805f815250611866565b505060019094019350610a6692505050565b50603b545f8167ffffffffffffffff811115610d7057610d70612555565b604051908082528060200260200182016040528015610d99578160200160208202803683370190505b5080519091505f5b83811015610f63575f80603b018281548110610dbf57610dbf612831565b5f9182526020808320600360049093020191909101546001600160a01b0316808352604080835280842054603e8452818520818652909352909220549192509015801590610e1557505f610e138684611976565b125b15610f59576040516001600160a01b0383166024820152604481018290525f90610e4a90635b96c8d960e11b90606401610c0b565b90505f81806020019051810190610e619190612845565b603c54604051919250610e8e91630e887d7b60e11b91610c0b918590602401918252602082015260400190565b50610ec760405180604001604052806015815260200174031b432b1b5b2b22ab9b2b939973632b733ba341d1605d1b8152508851611802565b5f868851610ed5919061288b565b9050610f086040518060400160405280600f81526020016e031b432b1b5b2b21034b73232bc1d1608d1b81525082611802565b84888281518110610f1b57610f1b612831565b6001600160a01b0390921660209283029190910190910152603c8054905f610f42836128ee565b91905055508680610f5290612906565b9750505050505b5050600101610da1565b50610f6f603b5f6124d6565b60019a505050505050505050505090565b6001545f90819081805b82811015610fd4576001805433919083908110610fa957610fa9612831565b5f9182526020909120600290910201546001600160a01b031603610fcc57600191505b600101610f8a565b5080156105f1575f8086806020019051810190610ff1919061292b565b604082015160208301518351939550919350916110139033908c9030906119d2565b6009546003545f91611036916001600160a01b0391821691163085876002611153565b90506110d45f6003015f9054906101000a90046001600160a01b0316336001600160a01b03166338d52e0f6040518163ffffffff1660e01b8152600401602060405180830381865afa15801561108e573d5f803e3d5ffd5b505050506040513d601f19601f820116820180604052508101906110b2919061285c565b8684876001815181106110c7576110c7612831565b6020026020010151611ad7565b9198509096506110e49350505050565b50509250929050565b6111026001600160a01b03831684308461128e565b60405163c3ae3a0960e01b815260048101829052309063c3ae3a09906024015f604051808303815f87803b158015611138575f80fd5b505af115801561114a573d5f803e3d5ffd5b50505050505050565b5f805f61116184868a611c6d565b915091505f805f015f9054906101000a90046001600160a01b03166001600160a01b0316631c0de0516040518163ffffffff1660e01b8152600401606060405180830381865afa1580156111b7573d5f803e3d5ffd5b505050506040513d601f19601f820116820180604052508101906111db9190612a1f565b5050905080156111f9576111f28a84308a86611ad7565b9350611208565b6112058a848985611d44565b93505b5f85600381111561121b5761121b612a53565b03611281576003546001600160a01b03908116908a16036112525760035461124d906001600160a01b03168986611e6e565b611281565b600354865161127e916001600160a01b0316908b908b9088908b9060019081106110c7576110c7612831565b93505b5050509695505050505050565b6040516001600160a01b03808516602483015283166044820152606481018290526112f99085906323b872dd60e01b906084015b60408051601f198184030181529190526020810180516001600160e01b03166001600160e01b031990931692909217909152611ea3565b50505050565b601180546040516335ee5f8760e01b8152602060048201526024810192909252701c9bd8dad95d11195c1bdcda5d141bdbdb607a1b60448301525f9182916001600160a01b0316906335ee5f8790606401602060405180830381865afa15801561136b573d5f803e3d5ffd5b505050506040513d601f19601f8201168201806040525081019061138f9190612845565b90505f61139c848361289e565b600f546012546040516321f8a72160e01b81529293505f926001600160a01b03909216916321f8a721916113d69160040190815260200190565b602060405180830381865afa1580156113f1573d5f803e3d5ffd5b505050506040513d601f19601f82011682018060405250810190611415919061285c565b90505f816001600160a01b031663fd6ce89e6040518163ffffffff1660e01b8152600401602060405180830381865afa158015611454573d5f803e3d5ffd5b505050506040513d601f19601f820116820180604052508101906114789190612845565b90921095945050505050565b5f805f61149284868a611c6d565b915091505f805f015f9054906101000a90046001600160a01b03166001600160a01b0316631c0de0516040518163ffffffff1660e01b8152600401606060405180830381865afa1580156114e8573d5f803e3d5ffd5b505050506040513d601f19601f8201168201806040525081019061150c9190612a1f565b50509050801561152a576115238a84308a86611ad7565b9350611539565b6115368a848985611d44565b93505b5f85600381111561154c5761154c612a53565b14806115695750600385600381111561156757611567612a53565b145b15611281576003546001600160a01b03908116908a160361159b5760035461124d906001600160a01b03168986611e6e565b60035486516115c7916001600160a01b0316908b908b9088908b9060019081106110c7576110c7612831565b93506116226040518060400160405280601d81526020017f6d696e416d6f756e74734f75745f5b315d202d2073776170556e693a200000008152508760018151811061161557611615612831565b6020026020010151611802565b6112816040518060400160405280600b81526020016a030b6b7bab73a27baba1d160ad1b81525085611802565b5f805f6032015f9054906101000a90046001600160a01b03166001600160a01b031663026b1d5f6040518163ffffffff1660e01b8152600401602060405180830381865afa1580156116a3573d5f803e3d5ffd5b505050506040513d601f19601f820116820180604052508101906116c7919061285c565b60405163095ea7b360e01b81526001600160a01b038083166004830152602482018790529192509084169063095ea7b3906044016020604051808303815f875af1158015611717573d5f803e3d5ffd5b505050506040513d601f19601f8201168201806040525081019061173b9190612a67565b5060405163617ba03760e01b81526001600160a01b038481166004830152602482018690523060448301525f606483015282169063617ba037906084015f604051808303815f87803b15801561178f575f80fd5b505af11580156117a1573d5f803e3d5ffd5b50505050839150505b92915050565b6040805160048152602481019091526020810180516001600160e01b0316636a57db9d60e11b1790525f906117e58382611f76565b9050808060200190518101906117fb9190612845565b9392505050565b6118478282604051602401611818929190612acf565b60408051601f198184030181529190526020810180516001600160e01b03166309710a9d60e41b179052611f9b565b5050565b5f825f19048411830215820261185f575f80fd5b5091020490565b6101138160405160240161187a9190612af0565b60408051601f198184030181529190526020810180516001600160e01b031663104c13eb60e21b179052611f9b565b61184782826040516024016118bf929190612b02565b60408051601f198184030181529190526020810180516001600160e01b031663319af33360e01b179052611f9b565b6101138160405160240161190491815260200190565b60408051601f198184030181529190526020810180516001600160e01b031663f5b1bba960e01b179052611f9b565b60606117fb83835f6040518060400160405280601e81526020017f416464726573733a206c6f772d6c6576656c2063616c6c206661696c65640000815250611fbb565b81515f90815b818110156119c757836001600160a01b03168582815181106119a0576119a0612831565b60200260200101516001600160a01b0316036119bf5791506117aa9050565b60010161197c565b505f19949350505050565b604080516001600160a01b0385811660248301528481166044830152606480830185905283518084039091018152608490920183526020820180516001600160e01b03166323b872dd60e01b17905291515f92839290881691611a359190612b2b565b5f604051808303815f865af19150503d805f8114611a6e576040519150601f19603f3d011682016040523d82523d5f602084013e611a73565b606091505b5091509150818015611a9d575080511580611a9d575080806020019051810190611a9d9190612a67565b611acf5760405162461bcd60e51b815260206004820152600360248201526229aa2360e91b6044820152606401610608565b505050505050565b6006545f90611af3906001600160a01b03888116911685612087565b60408051610100810182526001600160a01b038089168252878116602083015260135462ffffff1692820192909252908516606082015242608082015260a081018490525f9060c08101611b47858961219a565b81525f6020918201526006546040805163414bf38960e01b815284516001600160a01b03908116600483015293850151841660248201529084015162ffffff1660448201526060840151831660648201526080840151608482015260a084015160a482015260c084015160c482015260e0840151831660e4820152929350169063414bf38990610104016020604051808303815f875af1925050508015611c0b575060408051601f3d908101601f19168201909252611c0891810190612845565b60015b611c5b57611c17612b46565b806308c379a003611c515750611c2b612b5f565b80611c365750611c53565b8060405163633abab960e01b81526004016106089190612af0565b505b3d5f803e3d5ffd5b9150611c649050565b95945050505050565b5f8080856003811115611c8257611c82612a53565b1480611c9f57506003856003811115611c9d57611c9d612a53565b145b15611cd55760035484516001600160a01b03909116925084905f90611cc657611cc6612831565b60200260200101519050611d3c565b6001856003811115611ce957611ce9612a53565b03611d0357829150835f81518110611cc657611cc6612831565b6002856003811115611d1757611d17612a53565b03611d3c57829150835f81518110611d3157611d31612831565b602002602001015190505b935093915050565b6040805160c081018083525f805463038fff2d60e41b909252925183929182916001600160a01b03909116906338fff2d09060c4808501916020918187030181865afa158015611d96573d5f803e3d5ffd5b505050506040513d601f19601f82011682018060405250810190611dba9190612845565b81526020015f81526001600160a01b03808916602083015287166040820152606081018690526080015f6040519080825280601f01601f191660200182016040528015611e0e576020820181803683370190505b5090526040805160808082018352308083525f602084018190529383015260608201929092526008549183015192935091611e57916001600160a01b038a811692911690612087565b611e6382828642612236565b979650505050505050565b6040516001600160a01b038316602482015260448101829052611e9e90849063a9059cbb60e01b906064016112c2565b505050565b5f611ef7826040518060400160405280602081526020017f5361666545524332303a206c6f772d6c6576656c2063616c6c206661696c6564815250856001600160a01b031661235a9092919063ffffffff16565b905080515f1480611f17575080806020019051810190611f179190612a67565b611e9e5760405162461bcd60e51b815260206004820152602a60248201527f5361666545524332303a204552433230206f7065726174696f6e20646964206e6044820152691bdd081cdd58d8d9595960b21b6064820152608401610608565b60606117fb8383604051806060016040528060258152602001612dee60259139612368565b80516a636f6e736f6c652e6c6f67602083015f808483855afa5050505050565b60608247101561201c5760405162461bcd60e51b815260206004820152602660248201527f416464726573733a20696e73756666696369656e742062616c616e636520666f6044820152651c8818d85b1b60d21b6064820152608401610608565b5f80866001600160a01b031685876040516120379190612b2b565b5f6040518083038185875af1925050503d805f8114612071576040519150601f19603f3d011682016040523d82523d5f602084013e612076565b606091505b5091509150611e63878383876123dc565b8015806120ff5750604051636eb1769f60e11b81523060048201526001600160a01b03838116602483015284169063dd62ed3e90604401602060405180830381865afa1580156120d9573d5f803e3d5ffd5b505050506040513d601f19601f820116820180604052508101906120fd9190612845565b155b61216a5760405162461bcd60e51b815260206004820152603660248201527f5361666545524332303a20617070726f76652066726f6d206e6f6e2d7a65726f60448201527520746f206e6f6e2d7a65726f20616c6c6f77616e636560501b6064820152608401610608565b6040516001600160a01b038316602482015260448101829052611e9e90849063095ea7b360e01b906064016112c2565b5f80826001600160a01b031663313ce5676040518163ffffffff1660e01b8152600401602060405180830381865afa1580156121d8573d5f803e3d5ffd5b505050506040513d601f19601f820116820180604052508101906121fc9190612be8565b60ff1690508060121461222e5761221481601261288b565b61221f90600a612ce8565b6122299085612cf3565b61020b565b509192915050565b6008546040516352bbbe2960e01b81525f916001600160a01b0316906352bbbe299061226c908890889088908890600401612d12565b6020604051808303815f875af19250505080156122a6575060408051601f3d908101601f191682019092526122a391810190612845565b60015b612333576122b2612b46565b806308c379a003611c5157506122c6612b5f565b806122d15750611c53565b6122fa816040518060400160405280600781526020016642414c2335303760c81b815250612454565b1561231857604051637b19dd3560e11b815260040160405180910390fd5b806040516324af18bb60e21b81526004016106089190612af0565b805f0361235357604051635eeb40ff60e11b815260040160405180910390fd5b905061020b565b606061020b84845f85611fbb565b60605f80856001600160a01b0316856040516123849190612b2b565b5f60405180830381855afa9150503d805f81146123bc576040519150601f19603f3d011682016040523d82523d5f602084013e6123c1565b606091505b50915091506123d2868383876123dc565b9695505050505050565b6060831561244a5782515f03612443576001600160a01b0385163b6124435760405162461bcd60e51b815260206004820152601d60248201527f416464726573733a2063616c6c20746f206e6f6e2d636f6e74726163740000006044820152606401610608565b508161020b565b61020b83836124ac565b5f816040516020016124669190612b2b565b604051602081830303815290604052805190602001208360405160200161248d9190612b2b565b6040516020818303038152906040528051906020012014905092915050565b8151156124bc5781518083602001fd5b8060405162461bcd60e51b81526004016106089190612af0565b5080545f8255600402905f5260205f209081019061011391905b80821115612522575f8082556001820181905560028201556003810180546001600160a01b03191690556004016124f0565b5090565b6001600160a01b0381168114610113575f80fd5b5f6020828403121561254a575f80fd5b81356117fb81612526565b634e487b7160e01b5f52604160045260245ffd5b6060810181811067ffffffffffffffff8211171561258957612589612555565b60405250565b601f8201601f1916810167ffffffffffffffff811182821017156125b5576125b5612555565b6040525050565b5f67ffffffffffffffff8211156125d5576125d5612555565b5060051b60200190565b5f805f80608085870312156125f2575f80fd5b84356125fd81612526565b935060208581013561260e81612526565b935060408601359250606086013567ffffffffffffffff811115612630575f80fd5b8601601f81018813612640575f80fd5b803561264b816125bc565b604051612658828261258f565b82815260059290921b830184019184810191508a831115612677575f80fd5b928401925b828410156126955783358252928401929084019061267c565b979a9699509497505050505050565b5f602082840312156126b4575f80fd5b5035919050565b8015158114610113575f80fd5b5f805f8084860360c08112156126dc575f80fd5b85356126e781612526565b945060208601356126f781612526565b93506060603f198201121561270a575f80fd5b5060405161271781612569565b604086810135825260608701356020830152608087013590820152915060a0850135612742816126bb565b939692955090935050565b5f806040838503121561275e575f80fd5b823561276981612526565b915060208381013567ffffffffffffffff80821115612786575f80fd5b818601915086601f830112612799575f80fd5b8135818111156127ab576127ab612555565b60405191506127c3601f8201601f191685018361258f565b80825287848285010111156127d6575f80fd5b80848401858401375f848284010152508093505050509250929050565b5f805f60608486031215612805575f80fd5b833561281081612526565b9250602084013561282081612526565b929592945050506040919091013590565b634e487b7160e01b5f52603260045260245ffd5b5f60208284031215612855575f80fd5b5051919050565b5f6020828403121561286c575f80fd5b81516117fb81612526565b634e487b7160e01b5f52601160045260245ffd5b818103818111156117aa576117aa612877565b808201808211156117aa576117aa612877565b8181035f8312801583831316838312821617156128d0576128d0612877565b5092915050565b80820281158282048414176117aa576117aa612877565b5f600182016128ff576128ff612877565b5060010190565b5f8161291457612914612877565b505f190190565b805161292681612526565b919050565b5f806040838503121561293c575f80fd5b825167ffffffffffffffff80821115612953575f80fd5b9084019060608287031215612966575f80fd5b60405161297281612569565b8251815260208084015181830152604084015183811115612991575f80fd5b80850194505087601f8501126129a5575f80fd5b835192506129b2836125bc565b6040516129bf828261258f565b84815260059490941b85018201938281019150898511156129de575f80fd5b948201945b848610156129fc578551825294820194908201906129e3565b8060408501525050819550612a1281880161291b565b9450505050509250929050565b5f805f60608486031215612a31575f80fd5b8351612a3c816126bb565b602085015160409095015190969495509392505050565b634e487b7160e01b5f52602160045260245ffd5b5f60208284031215612a77575f80fd5b81516117fb816126bb565b5f5b83811015612a9c578181015183820152602001612a84565b50505f910152565b5f8151808452612abb816020860160208601612a82565b601f01601f19169290920160200192915050565b604081525f612ae16040830185612aa4565b90508260208301529392505050565b602081525f6117fb6020830184612aa4565b604081525f612b146040830185612aa4565b905060018060a01b03831660208301529392505050565b5f8251612b3c818460208701612a82565b9190910192915050565b5f60033d1115612b5c5760045f803e505f5160e01c5b90565b5f60443d1015612b6c5790565b6040516003193d81016004833e81513d67ffffffffffffffff8160248401118184111715612b9c57505050505090565b8285019150815181811115612bb45750505050505090565b843d8701016020828501011115612bce5750505050505090565b612bdd6020828601018761258f565b509095945050505050565b5f60208284031215612bf8575f80fd5b815160ff811681146117fb575f80fd5b600181815b80851115612c4257815f1904821115612c2857612c28612877565b80851615612c3557918102915b93841c9390800290612c0d565b509250929050565b5f82612c58575060016117aa565b81612c6457505f6117aa565b8160018114612c7a5760028114612c8457612ca0565b60019150506117aa565b60ff841115612c9557612c95612877565b50506001821b6117aa565b5060208310610133831016604e8410600b8410161715612cc3575081810a6117aa565b612ccd8383612c08565b805f1904821115612ce057612ce0612877565b029392505050565b5f6117fb8383612c4a565b5f82612d0d57634e487b7160e01b5f52601260045260245ffd5b500490565b60e08152845160e08201525f602086015160028110612d3f57634e487b7160e01b5f52602160045260245ffd5b61010083015260408601516001600160a01b03166101208301526060860151612d746101408401826001600160a01b03169052565b50608086015161016083015260a086015160c0610180840152612d9b6101a0840182612aa4565b915050612ddb602083018680516001600160a01b039081168352602080830151151590840152604080830151909116908301526060908101511515910152565b60a082019390935260c001529291505056fe416464726573733a206c6f772d6c6576656c207374617469632063616c6c206661696c6564a26469706673582212203e31f86e50fccb9ac75c4bef374f8811cfc635932e2e03284c9b5fd95d56788f64736f6c63430008180033","linkReferences":{}},"methodIdentifiers":{"claimReward()":"b88a802f","earned(address)":"008cc262","executeRebaseSwap()":"5c0c9cc3","getRewardsData()":"7d098e64","lastTimeRewardApplicable()":"80faa57d","notifyRewardAmount(uint256)":"3c6b16ab","recicleOZL(address,address,uint256)":"ab399cf8","rewardPerToken()":"cd3daf9d","setRewardsDuration(uint256)":"cc1a378f","useOZL(address,address,uint256,uint256[])":"094463e7","useOzTokens(address,bytes)":"a1b86b38","useUnderlying(address,address,(uint256,uint256,uint256),bool)":"55dae15c"},"id":15}