{"abi":[{"type":"function","name":"claimReward","inputs":[],"outputs":[{"name":"","type":"uint256","internalType":"uint256"}],"stateMutability":"nonpayable"},{"type":"function","name":"earned","inputs":[{"name":"user_","type":"address","internalType":"address"}],"outputs":[{"name":"","type":"uint256","internalType":"uint256"}],"stateMutability":"view"},{"type":"function","name":"getRewardsData","inputs":[],"outputs":[{"name":"rewardRate","type":"uint256","internalType":"uint256"},{"name":"circulatingSupply","type":"uint256","internalType":"uint256"},{"name":"pendingAllocation","type":"uint256","internalType":"uint256"},{"name":"recicledSupply","type":"uint256","internalType":"uint256"},{"name":"durationLeft","type":"int256","internalType":"int256"}],"stateMutability":"view"},{"type":"function","name":"lastTimeRewardApplicable","inputs":[],"outputs":[{"name":"","type":"uint256","internalType":"uint256"}],"stateMutability":"view"},{"type":"function","name":"notifyRewardAmount","inputs":[{"name":"amount_","type":"uint256","internalType":"uint256"}],"outputs":[],"stateMutability":"nonpayable"},{"type":"function","name":"recicleOZL","inputs":[{"name":"owner_","type":"address","internalType":"address"},{"name":"ozl_","type":"address","internalType":"address"},{"name":"amountIn_","type":"uint256","internalType":"uint256"}],"outputs":[],"stateMutability":"nonpayable"},{"type":"function","name":"rewardPerToken","inputs":[],"outputs":[{"name":"","type":"uint256","internalType":"uint256"}],"stateMutability":"view"},{"type":"function","name":"setRewardsDuration","inputs":[{"name":"duration_","type":"uint256","internalType":"uint256"}],"outputs":[],"stateMutability":"nonpayable"},{"type":"function","name":"useOZL","inputs":[{"name":"tokenOut_","type":"address","internalType":"address"},{"name":"receiver_","type":"address","internalType":"address"},{"name":"amountInLsd_","type":"uint256","internalType":"uint256"},{"name":"minAmountsOut_","type":"uint256[]","internalType":"uint256[]"}],"outputs":[{"name":"","type":"uint256","internalType":"uint256"}],"stateMutability":"nonpayable"},{"type":"function","name":"useOzTokens","inputs":[{"name":"owner_","type":"address","internalType":"address"},{"name":"data_","type":"bytes","internalType":"bytes"}],"outputs":[{"name":"","type":"uint256","internalType":"uint256"},{"name":"","type":"uint256","internalType":"uint256"}],"stateMutability":"nonpayable"},{"type":"function","name":"useUnderlying","inputs":[{"name":"stable_","type":"address","internalType":"address"},{"name":"owner_","type":"address","internalType":"address"},{"name":"amts_","type":"tuple","internalType":"struct AmountsIn","components":[{"name":"amountInStable","type":"uint256","internalType":"uint256"},{"name":"amountInETH","type":"uint256","internalType":"uint256"},{"name":"minAmountOutRETH","type":"uint256","internalType":"uint256"}]},{"name":"isETH_","type":"bool","internalType":"bool"}],"outputs":[{"name":"","type":"uint256","internalType":"uint256"},{"name":"","type":"uint256","internalType":"uint256"}],"stateMutability":"payable"},{"type":"error","name":"OZError01","inputs":[{"name":"errorMsg","type":"string","internalType":"string"}]},{"type":"error","name":"OZError02","inputs":[]},{"type":"error","name":"OZError13","inputs":[{"name":"caller","type":"address","internalType":"address"}]},{"type":"error","name":"OZError20","inputs":[]},{"type":"error","name":"OZError21","inputs":[{"name":"reason","type":"string","internalType":"string"}]}],"bytecode":{"object":"0x608060405234801561000f575f80fd5b50611f948061001d5f395ff3fe608060405260043610610099575f3560e01c806380faa57d1161006257806380faa57d1461016d578063a1b86b381461017f578063ab399cf81461019e578063b88a802f1461016d578063cc1a378f146100ee578063cd3daf9d1461016d575f80fd5b80628cc2621461009d578063094463e7146100cf5780633c6b16ab146100ee57806355dae15c1461010d5780637d098e6414610135575b5f80fd5b3480156100a8575f80fd5b506100bc6100b7366004611758565b505f90565b6040519081526020015b60405180910390f35b3480156100da575f80fd5b506100bc6100e9366004611804565b6101bd565b3480156100f9575f80fd5b5061010b6101083660046118c9565b50565b005b61012061011b3660046118ed565b6101e4565b604080519283526020830191909152016100c6565b348015610140575f80fd5b50604080515f8082526020820181905291810182905260608101829052608081019190915260a0016100c6565b348015610178575f80fd5b505f6100bc565b34801561018a575f80fd5b50610120610199366004611972565b6105b1565b3480156101a9575f80fd5b5061010b6101b8366004611a18565b61071e565b6009545f906101d9906001600160a01b03168686868686610784565b90505b949350505050565b6001545f90819081805b8281101561023857600180543391908390811061020d5761020d611a56565b5f9182526020909120600290910201546001600160a01b03160361023057600191505b6001016101ee565b5080156105865785515f6102576001600160a01b038b168a30856108bf565b86156102ba5760035460408051630d0e30db60e41b815290516001600160a01b039092169163d0e30db09134916004808301925f92919082900301818588803b1580156102a2575f80fd5b505af11580156102b4573d5f803e3d5ffd5b50505050505b6003546040516370a0823160e01b81523060048201525f916001600160a01b0316906370a0823190602401602060405180830381865afa158015610300573d5f803e3d5ffd5b505050506040513d601f19601f820116820180604052508101906103249190611a6a565b905061032f81610930565b1561054157600354604051632e1a7d4d60e01b8152600481018390526001600160a01b0390911690632e1a7d4d906024015f604051808303815f87803b158015610377575f80fd5b505af1158015610389573d5f803e3d5ffd5b5050600f546010546040516321f8a72160e01b815260048101919091525f93506001600160a01b0390911691506321f8a72190602401602060405180830381865afa1580156103da573d5f803e3d5ffd5b505050506040513d601f19601f820116820180604052508101906103fe9190611a81565b6009546040516370a0823160e01b81523060048201529192505f916001600160a01b03909116906370a0823190602401602060405180830381865afa158015610449573d5f803e3d5ffd5b505050506040513d601f19601f8201168201806040525081019061046d9190611a6a565b9050816001600160a01b031663d0e30db0846040518263ffffffff1660e01b81526004015f604051808303818588803b1580156104a8575f80fd5b505af11580156104ba573d5f803e3d5ffd5b50506009546040516370a0823160e01b81523060048201525f94506001600160a01b0390911692506370a082319150602401602060405180830381865afa158015610507573d5f803e3d5ffd5b505050506040513d601f19601f8201168201806040525081019061052b9190611a6a565b90506105378282611ab0565b945050505061056c565b60035460095460408b0151610569926001600160a01b03908116921690309085906001610ab5565b91505b5f610577848d610bbe565b9297509195506105a692505050565b60405163a43f931360e01b81523360048201526024015b60405180910390fd5b505094509492505050565b6001545f90819081805b828110156106055760018054339190839081106105da576105da611a56565b5f9182526020909120600290910201546001600160a01b0316036105fd57600191505b6001016105bb565b508015610586575f80868060200190518101906106229190611ad3565b604082015160208301518351939550919350916106449033908c903090610d1f565b6009546003545f91610667916001600160a01b0391821691163085876002610784565b90506107055f6003015f9054906101000a90046001600160a01b0316336001600160a01b03166338d52e0f6040518163ffffffff1660e01b8152600401602060405180830381865afa1580156106bf573d5f803e3d5ffd5b505050506040513d601f19601f820116820180604052508101906106e39190611a81565b8684876001815181106106f8576106f8611a56565b6020026020010151610e24565b9198509096506107159350505050565b50509250929050565b6107336001600160a01b0383168430846108bf565b60405163c3ae3a0960e01b815260048101829052309063c3ae3a09906024015f604051808303815f87803b158015610769575f80fd5b505af115801561077b573d5f803e3d5ffd5b50505050505050565b5f805f61079284868a610fba565b915091505f805f015f9054906101000a90046001600160a01b03166001600160a01b0316631c0de0516040518163ffffffff1660e01b8152600401606060405180830381865afa1580156107e8573d5f803e3d5ffd5b505050506040513d601f19601f8201168201806040525081019061080c9190611bc7565b50509050801561082a576108238a84308a86610e24565b9350610839565b6108368a848985611075565b93505b5f85600281111561084c5761084c611bfb565b036108b2576003546001600160a01b03908116908a16036108835760035461087e906001600160a01b0316898661119f565b6108b2565b60035486516108af916001600160a01b0316908b908b9088908b9060019081106106f8576106f8611a56565b93505b5050509695505050505050565b6040516001600160a01b038085166024830152831660448201526064810182905261092a9085906323b872dd60e01b906084015b60408051601f198184030181529190526020810180516001600160e01b03166001600160e01b0319909316929092179091526111d4565b50505050565b601180546040516335ee5f8760e01b8152602060048201526024810192909252701c9bd8dad95d11195c1bdcda5d141bdbdb607a1b60448301525f9182916001600160a01b0316906335ee5f8790606401602060405180830381865afa15801561099c573d5f803e3d5ffd5b505050506040513d601f19601f820116820180604052508101906109c09190611a6a565b90505f6109cd8483611c0f565b600f546012546040516321f8a72160e01b81529293505f926001600160a01b03909216916321f8a72191610a079160040190815260200190565b602060405180830381865afa158015610a22573d5f803e3d5ffd5b505050506040513d601f19601f82011682018060405250810190610a469190611a81565b90505f816001600160a01b031663fd6ce89e6040518163ffffffff1660e01b8152600401602060405180830381865afa158015610a85573d5f803e3d5ffd5b505050506040513d601f19601f82011682018060405250810190610aa99190611a6a565b90921095945050505050565b5f805460408051631c0de05160e01b8152905183926001600160a01b031691631c0de0519160048083019260609291908290030181865afa158015610afc573d5f803e3d5ffd5b505050506040513d601f19601f82011682018060405250810190610b209190611bc7565b505090508015610b3e57610b378888308888610e24565b9150610b4d565b610b4a88888787611075565b91505b5f836002811115610b6057610b60611bfb565b03610bb3576003546001600160a01b0390811690881603610b9757600354610b92906001600160a01b0316878461119f565b610bb3565b600354610bb0906001600160a01b031688888588610e24565b91505b509695505050505050565b5f805f6032015f9054906101000a90046001600160a01b03166001600160a01b031663026b1d5f6040518163ffffffff1660e01b8152600401602060405180830381865afa158015610c12573d5f803e3d5ffd5b505050506040513d601f19601f82011682018060405250810190610c369190611a81565b60405163095ea7b360e01b81526001600160a01b038083166004830152602482018790529192509084169063095ea7b3906044016020604051808303815f875af1158015610c86573d5f803e3d5ffd5b505050506040513d601f19601f82011682018060405250810190610caa9190611c22565b5060405163617ba03760e01b81526001600160a01b038481166004830152602482018690523060448301525f606483015282169063617ba037906084015f604051808303815f87803b158015610cfe575f80fd5b505af1158015610d10573d5f803e3d5ffd5b50505050839150505b92915050565b604080516001600160a01b0385811660248301528481166044830152606480830185905283518084039091018152608490920183526020820180516001600160e01b03166323b872dd60e01b17905291515f92839290881691610d829190611c5f565b5f604051808303815f865af19150503d805f8114610dbb576040519150601f19603f3d011682016040523d82523d5f602084013e610dc0565b606091505b5091509150818015610dea575080511580610dea575080806020019051810190610dea9190611c22565b610e1c5760405162461bcd60e51b815260206004820152600360248201526229aa2360e91b604482015260640161059d565b505050505050565b6006545f90610e40906001600160a01b038881169116856112a7565b60408051610100810182526001600160a01b038089168252878116602083015260135462ffffff1692820192909252908516606082015242608082015260a081018490525f9060c08101610e9485896113ba565b81525f6020918201526006546040805163414bf38960e01b815284516001600160a01b03908116600483015293850151841660248201529084015162ffffff1660448201526060840151831660648201526080840151608482015260a084015160a482015260c084015160c482015260e0840151831660e4820152929350169063414bf38990610104016020604051808303815f875af1925050508015610f58575060408051601f3d908101601f19168201909252610f5591810190611a6a565b60015b610fa857610f64611c7a565b806308c379a003610f9e5750610f78611c93565b80610f835750610fa0565b8060405163633abab960e01b815260040161059d9190611d47565b505b3d5f803e3d5ffd5b9150610fb19050565b95945050505050565b5f8080856002811115610fcf57610fcf611bfb565b036110055760035484516001600160a01b03909116925084905f90610ff657610ff6611a56565b6020026020010151905061106d565b600185600281111561101957611019611bfb565b036110345782915083600181518110610ff657610ff6611a56565b600285600281111561104857611048611bfb565b0361106d57829150835f8151811061106257611062611a56565b602002602001015190505b935093915050565b6040805160c081018083525f805463038fff2d60e41b909252925183929182916001600160a01b03909116906338fff2d09060c4808501916020918187030181865afa1580156110c7573d5f803e3d5ffd5b505050506040513d601f19601f820116820180604052508101906110eb9190611a6a565b81526020015f81526001600160a01b03808916602083015287166040820152606081018690526080015f6040519080825280601f01601f19166020018201604052801561113f576020820181803683370190505b5090526040805160808082018352308083525f602084018190529383015260608201929092526008549183015192935091611188916001600160a01b038a8116929116906112a7565b61119482828642611456565b979650505050505050565b6040516001600160a01b0383166024820152604481018290526111cf90849063a9059cbb60e01b906064016108f3565b505050565b5f611228826040518060400160405280602081526020017f5361666545524332303a206c6f772d6c6576656c2063616c6c206661696c6564815250856001600160a01b031661157a9092919063ffffffff16565b905080515f14806112485750808060200190518101906112489190611c22565b6111cf5760405162461bcd60e51b815260206004820152602a60248201527f5361666545524332303a204552433230206f7065726174696f6e20646964206e6044820152691bdd081cdd58d8d9595960b21b606482015260840161059d565b80158061131f5750604051636eb1769f60e11b81523060048201526001600160a01b03838116602483015284169063dd62ed3e90604401602060405180830381865afa1580156112f9573d5f803e3d5ffd5b505050506040513d601f19601f8201168201806040525081019061131d9190611a6a565b155b61138a5760405162461bcd60e51b815260206004820152603660248201527f5361666545524332303a20617070726f76652066726f6d206e6f6e2d7a65726f60448201527520746f206e6f6e2d7a65726f20616c6c6f77616e636560501b606482015260840161059d565b6040516001600160a01b0383166024820152604481018290526111cf90849063095ea7b360e01b906064016108f3565b5f80826001600160a01b031663313ce5676040518163ffffffff1660e01b8152600401602060405180830381865afa1580156113f8573d5f803e3d5ffd5b505050506040513d601f19601f8201168201806040525081019061141c9190611d59565b60ff1690508060121461144e57611434816012611ab0565b61143f90600a611e59565b6114499085611e64565b6101dc565b509192915050565b6008546040516352bbbe2960e01b81525f916001600160a01b0316906352bbbe299061148c908890889088908890600401611e83565b6020604051808303815f875af19250505080156114c6575060408051601f3d908101601f191682019092526114c391810190611a6a565b60015b611553576114d2611c7a565b806308c379a003610f9e57506114e6611c93565b806114f15750610fa0565b61151a816040518060400160405280600781526020016642414c2335303760c81b815250611588565b1561153857604051637b19dd3560e11b815260040160405180910390fd5b806040516324af18bb60e21b815260040161059d9190611d47565b805f0361157357604051635eeb40ff60e11b815260040160405180910390fd5b90506101dc565b60606101dc84845f856115e0565b5f8160405160200161159a9190611c5f565b60405160208183030381529060405280519060200120836040516020016115c19190611c5f565b6040516020818303038152906040528051906020012014905092915050565b6060824710156116415760405162461bcd60e51b815260206004820152602660248201527f416464726573733a20696e73756666696369656e742062616c616e636520666f6044820152651c8818d85b1b60d21b606482015260840161059d565b5f80866001600160a01b0316858760405161165c9190611c5f565b5f6040518083038185875af1925050503d805f8114611696576040519150601f19603f3d011682016040523d82523d5f602084013e61169b565b606091505b509150915061119487838387606083156117155782515f0361170e576001600160a01b0385163b61170e5760405162461bcd60e51b815260206004820152601d60248201527f416464726573733a2063616c6c20746f206e6f6e2d636f6e7472616374000000604482015260640161059d565b50816101dc565b6101dc838381511561172a5781518083602001fd5b8060405162461bcd60e51b815260040161059d9190611d47565b6001600160a01b0381168114610108575f80fd5b5f60208284031215611768575f80fd5b813561177381611744565b9392505050565b634e487b7160e01b5f52604160045260245ffd5b6060810181811067ffffffffffffffff821117156117ae576117ae61177a565b60405250565b601f8201601f1916810167ffffffffffffffff811182821017156117da576117da61177a565b6040525050565b5f67ffffffffffffffff8211156117fa576117fa61177a565b5060051b60200190565b5f805f8060808587031215611817575f80fd5b843561182281611744565b935060208581013561183381611744565b935060408601359250606086013567ffffffffffffffff811115611855575f80fd5b8601601f81018813611865575f80fd5b8035611870816117e1565b60405161187d82826117b4565b82815260059290921b830184019184810191508a83111561189c575f80fd5b928401925b828410156118ba578335825292840192908401906118a1565b979a9699509497505050505050565b5f602082840312156118d9575f80fd5b5035919050565b8015158114610108575f80fd5b5f805f8084860360c0811215611901575f80fd5b853561190c81611744565b9450602086013561191c81611744565b93506060603f198201121561192f575f80fd5b5060405161193c8161178e565b604086810135825260608701356020830152608087013590820152915060a0850135611967816118e0565b939692955090935050565b5f8060408385031215611983575f80fd5b823561198e81611744565b915060208381013567ffffffffffffffff808211156119ab575f80fd5b818601915086601f8301126119be575f80fd5b8135818111156119d0576119d061177a565b60405191506119e8601f8201601f19168501836117b4565b80825287848285010111156119fb575f80fd5b80848401858401375f848284010152508093505050509250929050565b5f805f60608486031215611a2a575f80fd5b8335611a3581611744565b92506020840135611a4581611744565b929592945050506040919091013590565b634e487b7160e01b5f52603260045260245ffd5b5f60208284031215611a7a575f80fd5b5051919050565b5f60208284031215611a91575f80fd5b815161177381611744565b634e487b7160e01b5f52601160045260245ffd5b81810381811115610d1957610d19611a9c565b8051611ace81611744565b919050565b5f8060408385031215611ae4575f80fd5b825167ffffffffffffffff80821115611afb575f80fd5b9084019060608287031215611b0e575f80fd5b604051611b1a8161178e565b8251815260208084015181830152604084015183811115611b39575f80fd5b80850194505087601f850112611b4d575f80fd5b83519250611b5a836117e1565b604051611b6782826117b4565b84815260059490941b8501820193828101915089851115611b86575f80fd5b948201945b84861015611ba457855182529482019490820190611b8b565b8060408501525050819550611bba818801611ac3565b9450505050509250929050565b5f805f60608486031215611bd9575f80fd5b8351611be4816118e0565b602085015160409095015190969495509392505050565b634e487b7160e01b5f52602160045260245ffd5b80820180821115610d1957610d19611a9c565b5f60208284031215611c32575f80fd5b8151611773816118e0565b5f5b83811015611c57578181015183820152602001611c3f565b50505f910152565b5f8251611c70818460208701611c3d565b9190910192915050565b5f60033d1115611c905760045f803e505f5160e01c5b90565b5f60443d1015611ca05790565b6040516003193d81016004833e81513d67ffffffffffffffff8160248401118184111715611cd057505050505090565b8285019150815181811115611ce85750505050505090565b843d8701016020828501011115611d025750505050505090565b611d11602082860101876117b4565b509095945050505050565b5f8151808452611d33816020860160208601611c3d565b601f01601f19169290920160200192915050565b602081525f6117736020830184611d1c565b5f60208284031215611d69575f80fd5b815160ff81168114611773575f80fd5b600181815b80851115611db357815f1904821115611d9957611d99611a9c565b80851615611da657918102915b93841c9390800290611d7e565b509250929050565b5f82611dc957506001610d19565b81611dd557505f610d19565b8160018114611deb5760028114611df557611e11565b6001915050610d19565b60ff841115611e0657611e06611a9c565b50506001821b610d19565b5060208310610133831016604e8410600b8410161715611e34575081810a610d19565b611e3e8383611d79565b805f1904821115611e5157611e51611a9c565b029392505050565b5f6117738383611dbb565b5f82611e7e57634e487b7160e01b5f52601260045260245ffd5b500490565b60e08152845160e08201525f602086015160028110611eb057634e487b7160e01b5f52602160045260245ffd5b61010083015260408601516001600160a01b03166101208301526060860151611ee56101408401826001600160a01b03169052565b50608086015161016083015260a086015160c0610180840152611f0c6101a0840182611d1c565b915050611f4c602083018680516001600160a01b039081168352602080830151151590840152604080830151909116908301526060908101511515910152565b60a082019390935260c001529291505056fea264697066735822122063d7ad40525cef7b86fd6134b1833269c47f50cb7ef4fb07e0432a4f9be7696f64736f6c63430008180033","linkReferences":{}},"methodIdentifiers":{"claimReward()":"b88a802f","earned(address)":"008cc262","getRewardsData()":"7d098e64","lastTimeRewardApplicable()":"80faa57d","notifyRewardAmount(uint256)":"3c6b16ab","recicleOZL(address,address,uint256)":"ab399cf8","rewardPerToken()":"cd3daf9d","setRewardsDuration(uint256)":"cc1a378f","useOZL(address,address,uint256,uint256[])":"094463e7","useOzTokens(address,bytes)":"a1b86b38","useUnderlying(address,address,(uint256,uint256,uint256),bool)":"55dae15c"},"id":15}