{"abi":[{"type":"function","name":"claimReward","inputs":[],"outputs":[{"name":"","type":"uint256","internalType":"uint256"}],"stateMutability":"nonpayable"},{"type":"function","name":"earned","inputs":[{"name":"user_","type":"address","internalType":"address"}],"outputs":[{"name":"","type":"uint256","internalType":"uint256"}],"stateMutability":"view"},{"type":"function","name":"executeRebaseSwap","inputs":[],"outputs":[{"name":"","type":"bool","internalType":"bool"}],"stateMutability":"nonpayable"},{"type":"function","name":"getRewardsData","inputs":[],"outputs":[{"name":"rewardRate","type":"uint256","internalType":"uint256"},{"name":"circulatingSupply","type":"uint256","internalType":"uint256"},{"name":"pendingAllocation","type":"uint256","internalType":"uint256"},{"name":"recicledSupply","type":"uint256","internalType":"uint256"},{"name":"durationLeft","type":"int256","internalType":"int256"}],"stateMutability":"view"},{"type":"function","name":"lastTimeRewardApplicable","inputs":[],"outputs":[{"name":"","type":"uint256","internalType":"uint256"}],"stateMutability":"view"},{"type":"function","name":"notifyRewardAmount","inputs":[{"name":"amount_","type":"uint256","internalType":"uint256"}],"outputs":[],"stateMutability":"nonpayable"},{"type":"function","name":"recicleOZL","inputs":[{"name":"owner_","type":"address","internalType":"address"},{"name":"ozl_","type":"address","internalType":"address"},{"name":"amountIn_","type":"uint256","internalType":"uint256"}],"outputs":[],"stateMutability":"nonpayable"},{"type":"function","name":"rewardPerToken","inputs":[],"outputs":[{"name":"","type":"uint256","internalType":"uint256"}],"stateMutability":"view"},{"type":"function","name":"setRewardsDuration","inputs":[{"name":"duration_","type":"uint256","internalType":"uint256"}],"outputs":[],"stateMutability":"nonpayable"},{"type":"function","name":"useOZL","inputs":[{"name":"tokenOut_","type":"address","internalType":"address"},{"name":"receiver_","type":"address","internalType":"address"},{"name":"amountInLsd_","type":"uint256","internalType":"uint256"},{"name":"minAmountsOut_","type":"uint256[]","internalType":"uint256[]"}],"outputs":[{"name":"","type":"uint256","internalType":"uint256"}],"stateMutability":"nonpayable"},{"type":"function","name":"useOzTokens","inputs":[{"name":"owner_","type":"address","internalType":"address"},{"name":"data_","type":"bytes","internalType":"bytes"}],"outputs":[{"name":"","type":"uint256","internalType":"uint256"},{"name":"","type":"uint256","internalType":"uint256"}],"stateMutability":"nonpayable"},{"type":"function","name":"useUnderlying","inputs":[{"name":"stable_","type":"address","internalType":"address"},{"name":"owner_","type":"address","internalType":"address"},{"name":"amts_","type":"tuple","internalType":"struct AmountsIn","components":[{"name":"amountInStable","type":"uint256","internalType":"uint256"},{"name":"amountInETH","type":"uint256","internalType":"uint256"},{"name":"minAmountOutRETH","type":"uint256","internalType":"uint256"}]},{"name":"isETH_","type":"bool","internalType":"bool"}],"outputs":[{"name":"","type":"uint256","internalType":"uint256"},{"name":"","type":"uint256","internalType":"uint256"}],"stateMutability":"payable"},{"type":"error","name":"OZError01","inputs":[{"name":"errorMsg","type":"string","internalType":"string"}]},{"type":"error","name":"OZError02","inputs":[]},{"type":"error","name":"OZError13","inputs":[{"name":"caller","type":"address","internalType":"address"}]},{"type":"error","name":"OZError20","inputs":[]},{"type":"error","name":"OZError21","inputs":[{"name":"reason","type":"string","internalType":"string"}]}],"bytecode":{"object":"0x608060405234801561000f575f80fd5b50612bc48061001d5f395ff3fe6080604052600436106100a4575f3560e01c806380faa57d1161006257806380faa57d1461019c578063a1b86b38146101ae578063ab399cf8146101cd578063b88a802f1461019c578063cc1a378f146100f9578063cd3daf9d1461019c575f80fd5b80628cc262146100a8578063094463e7146100da5780633c6b16ab146100f957806355dae15c146101185780635c0c9cc3146101405780637d098e6414610164575b5f80fd5b3480156100b3575f80fd5b506100c76100c23660046122f4565b505f90565b6040519081526020015b60405180910390f35b3480156100e5575f80fd5b506100c76100f4366004612399565b6101ec565b348015610104575f80fd5b5061011661011336600461245e565b50565b005b61012b610126366004612482565b610213565b604080519283526020830191909152016100d1565b34801561014b575f80fd5b5061015461061c565b60405190151581526020016100d1565b34801561016f575f80fd5b50604080515f8082526020820181905291810182905260608101829052608081019190915260a0016100d1565b3480156101a7575f80fd5b505f6100c7565b3480156101b9575f80fd5b5061012b6101c8366004612507565b610dc4565b3480156101d8575f80fd5b506101166101e73660046125ad565b610f31565b6009545f90610208906001600160a01b03168686868686610f97565b90505b949350505050565b6001545f90819081805b8281101561026757600180543391908390811061023c5761023c6125eb565b5f9182526020909120600290910201546001600160a01b03160361025f57600191505b60010161021d565b5080156105f15785515f6102866001600160a01b038b168a30856110d2565b86156102e95760035460408051630d0e30db60e41b815290516001600160a01b039092169163d0e30db09134916004808301925f92919082900301818588803b1580156102d1575f80fd5b505af11580156102e3573d5f803e3d5ffd5b50505050505b6003546040516370a0823160e01b81523060048201525f916001600160a01b0316906370a0823190602401602060405180830381865afa15801561032f573d5f803e3d5ffd5b505050506040513d601f19601f8201168201806040525081019061035391906125ff565b905061035e81611143565b1561057057600354604051632e1a7d4d60e01b8152600481018390526001600160a01b0390911690632e1a7d4d906024015f604051808303815f87803b1580156103a6575f80fd5b505af11580156103b8573d5f803e3d5ffd5b5050600f546010546040516321f8a72160e01b815260048101919091525f93506001600160a01b0390911691506321f8a72190602401602060405180830381865afa158015610409573d5f803e3d5ffd5b505050506040513d601f19601f8201168201806040525081019061042d9190612616565b6009546040516370a0823160e01b81523060048201529192505f916001600160a01b03909116906370a0823190602401602060405180830381865afa158015610478573d5f803e3d5ffd5b505050506040513d601f19601f8201168201806040525081019061049c91906125ff565b9050816001600160a01b031663d0e30db0846040518263ffffffff1660e01b81526004015f604051808303818588803b1580156104d7575f80fd5b505af11580156104e9573d5f803e3d5ffd5b50506009546040516370a0823160e01b81523060048201525f94506001600160a01b0390911692506370a082319150602401602060405180830381865afa158015610536573d5f803e3d5ffd5b505050506040513d601f19601f8201168201806040525081019061055a91906125ff565b90506105668282612645565b94505050506105d7565b6040805160028082526060820183525f926020830190803683370190505090508960400151815f815181106105a7576105a76125eb565b60209081029190910101526003546009546105d3916001600160a01b03908116911630858560016112c8565b9250505b5f6105e2848d611493565b92975091955061061192505050565b60405163a43f931360e01b81523360048201526024015b60405180910390fd5b505094509492505050565b6035546034545f9142916106309190612658565b101561063b57505f90565b5f610645306115f4565b90506106766040518060400160405280600d81526020016c03930ba32a922aa2422aa241d1609d1b81525082611646565b603a548111610686575f91505090565b6009546040516370a0823160e01b81523060048201525f916001600160a01b0316906370a0823190602401602060405180830381865afa1580156106cc573d5f803e3d5ffd5b505050506040513d601f19601f820116820180604052508101906106f091906125ff565b90506107316040518060400160405280601b81526020017f73797342616c616e636552455448202d2070726520737761703a20000000000081525082611646565b5f6107458284670de0b6b3a764000061168f565b90506107866040518060400160405280601881526020017f73797342616c616e6365436f6e7665727465644554483a20000000000000000081525082611646565b61079d60405180602001604052805f8152506116aa565b6107d4604051806040016040528060118152602001700399739bcb9a130b630b731b2a2aa241d1607d1b8152505f60380154611646565b6038545f906107e39083612645565b90506108136040518060400160405280600c81526020016b03932bbb0b93239a2aa241d160a51b81525082611646565b5f61082782670de0b6b3a76400008761168f565b905061085d60405180604001604052806012815260200171030b6b7bab73a2a37a9bbb0b82922aa241d160751b81525082611646565b6040805160028082526060820183525f9260208301908036833701905050905061089460405180602001604052805f8152506116aa565b6108c36040518060400160405280600e81526020016d151515151029aba0a8101515151560911b8152506116aa565b6108da60405180602001604052805f8152506116aa565b6009546004545f916108fd916001600160a01b03918216911630868660036112c8565b9050805f03610913575f97505050505050505090565b61094b60405180604001604052806016815260200175030b6b7bab73a27baba2aa9a221901515151515151d160551b81525082611646565b805f6039015f82825461095e9190612658565b9091555050603a8790554260345560408051808201909152601881527f6c6173745265626173655072696365524554484554483a20000000000000000060208201526109aa9088611646565b604080518082018252601e81527f555344432062616c206469616d6f6e64202d20706f737420737761703a20000060208201526004805492516370a0823160e01b81523091810191909152610a50926001600160a01b0316906370a0823190602401602060405180830381865afa158015610a27573d5f803e3d5ffd5b505050506040513d601f19601f82011682018060405250810190610a4b91906125ff565b611646565b603c54610a64575f97505050505050505090565b5f5b603b54811015610c32575f80603b018281548110610a8657610a866125eb565b5f91825260208083206040805160808101825260049094029091018054845260018101548484015260028101548483019081526003909101546001600160a01b0316606085018190528086529282905290842054905192945090929091610aed904261266b565b610afa9062093a8061266b565b90508015610b085780610b0d565b62093a805b90505f81855f0151610b1f9190612691565b6040516001600160a01b03861660248201526044810185905260648101829052909150610b8c906364b3e47f60e11b906084015b60408051601f198184030181529190526020810180516001600160e01b03166001600160e01b03199093169290921790915230906116ed565b506001600160a01b038481165f908152603660209081526040808320805460018082018355918552938390208a51600490950201938455918901519183019190915587015160028201556060870151600390910180546001600160a01b0319169190921617905582610bfd816126a8565b603b54909450610c109150600190612645565b8603610c2157610c21603b5f612290565b505060019093019250610a66915050565b50603b545f8167ffffffffffffffff811115610c5057610c5061230f565b604051908082528060200260200182016040528015610c79578160200160208202803683370190505b5090505f5b82811015610db3575f80603b018281548110610c9c57610c9c6125eb565b5f9182526020808320600360049093020191909101546001600160a01b0316808352604080835280842054603e8452818520818652909352909220549192509015801590610cf257505f610cf08584611730565b125b15610da9576040516001600160a01b0383166024820152604481018290525f90610d2790635b96c8d960e11b90606401610b53565b90505f81806020019051810190610d3e91906125ff565b603c54604051919250610d6b91630e887d7b60e11b91610b53918590602401918252602082015260400190565b50855184908790610d7a6125eb565b6001600160a01b0390921660209283029190910190910152603c8054905f610da1836126a8565b919050555050505b5050600101610c7e565b506001995050505050505050505090565b6001545f90819081805b82811015610e18576001805433919083908110610ded57610ded6125eb565b5f9182526020909120600290910201546001600160a01b031603610e1057600191505b600101610dce565b5080156105f1575f8086806020019051810190610e3591906126d0565b60408201516020830151835193955091935091610e579033908c90309061178c565b6009546003545f91610e7a916001600160a01b0391821691163085876002610f97565b9050610f185f6003015f9054906101000a90046001600160a01b0316336001600160a01b03166338d52e0f6040518163ffffffff1660e01b8152600401602060405180830381865afa158015610ed2573d5f803e3d5ffd5b505050506040513d601f19601f82011682018060405250810190610ef69190612616565b868487600181518110610f0b57610f0b6125eb565b6020026020010151611891565b919850909650610f289350505050565b50509250929050565b610f466001600160a01b0383168430846110d2565b60405163c3ae3a0960e01b815260048101829052309063c3ae3a09906024015f604051808303815f87803b158015610f7c575f80fd5b505af1158015610f8e573d5f803e3d5ffd5b50505050505050565b5f805f610fa584868a611a27565b915091505f805f015f9054906101000a90046001600160a01b03166001600160a01b0316631c0de0516040518163ffffffff1660e01b8152600401606060405180830381865afa158015610ffb573d5f803e3d5ffd5b505050506040513d601f19601f8201168201806040525081019061101f91906127c4565b50509050801561103d576110368a84308a86611891565b935061104c565b6110498a848985611afe565b93505b5f85600381111561105f5761105f6127f8565b036110c5576003546001600160a01b03908116908a160361109657600354611091906001600160a01b03168986611c28565b6110c5565b60035486516110c2916001600160a01b0316908b908b9088908b906001908110610f0b57610f0b6125eb565b93505b5050509695505050505050565b6040516001600160a01b038085166024830152831660448201526064810182905261113d9085906323b872dd60e01b906084015b60408051601f198184030181529190526020810180516001600160e01b03166001600160e01b031990931692909217909152611c5d565b50505050565b601180546040516335ee5f8760e01b8152602060048201526024810192909252701c9bd8dad95d11195c1bdcda5d141bdbdb607a1b60448301525f9182916001600160a01b0316906335ee5f8790606401602060405180830381865afa1580156111af573d5f803e3d5ffd5b505050506040513d601f19601f820116820180604052508101906111d391906125ff565b90505f6111e08483612658565b600f546012546040516321f8a72160e01b81529293505f926001600160a01b03909216916321f8a7219161121a9160040190815260200190565b602060405180830381865afa158015611235573d5f803e3d5ffd5b505050506040513d601f19601f820116820180604052508101906112599190612616565b90505f816001600160a01b031663fd6ce89e6040518163ffffffff1660e01b8152600401602060405180830381865afa158015611298573d5f803e3d5ffd5b505050506040513d601f19601f820116820180604052508101906112bc91906125ff565b90921095945050505050565b5f805f6112d684868a611a27565b915091505f805f015f9054906101000a90046001600160a01b03166001600160a01b0316631c0de0516040518163ffffffff1660e01b8152600401606060405180830381865afa15801561132c573d5f803e3d5ffd5b505050506040513d601f19601f8201168201806040525081019061135091906127c4565b50509050801561136e576113678a84308a86611891565b935061137d565b61137a8a848985611afe565b93505b5f856003811115611390576113906127f8565b14806113ad575060038560038111156113ab576113ab6127f8565b145b156110c5576003546001600160a01b03908116908a16036113df57600354611091906001600160a01b03168986611c28565b600354865161140b916001600160a01b0316908b908b9088908b906001908110610f0b57610f0b6125eb565b93506114666040518060400160405280601d81526020017f6d696e416d6f756e74734f75745f5b315d202d2073776170556e693a2000000081525087600181518110611459576114596125eb565b6020026020010151611646565b6110c56040518060400160405280600b81526020016a030b6b7bab73a27baba1d160ad1b81525085611646565b5f805f6032015f9054906101000a90046001600160a01b03166001600160a01b031663026b1d5f6040518163ffffffff1660e01b8152600401602060405180830381865afa1580156114e7573d5f803e3d5ffd5b505050506040513d601f19601f8201168201806040525081019061150b9190612616565b60405163095ea7b360e01b81526001600160a01b038083166004830152602482018790529192509084169063095ea7b3906044016020604051808303815f875af115801561155b573d5f803e3d5ffd5b505050506040513d601f19601f8201168201806040525081019061157f919061280c565b5060405163617ba03760e01b81526001600160a01b038481166004830152602482018690523060448301525f606483015282169063617ba037906084015f604051808303815f87803b1580156115d3575f80fd5b505af11580156115e5573d5f803e3d5ffd5b50505050839150505b92915050565b6040805160048152602481019091526020810180516001600160e01b0316636a57db9d60e11b1790525f906116298382611d30565b90508080602001905181019061163f91906125ff565b9392505050565b61168b828260405160240161165c929190612874565b60408051601f198184030181529190526020810180516001600160e01b03166309710a9d60e41b179052611d55565b5050565b5f825f1904841183021582026116a3575f80fd5b5091020490565b610113816040516024016116be9190612895565b60408051601f198184030181529190526020810180516001600160e01b031663104c13eb60e21b179052611d55565b606061163f83835f6040518060400160405280601e81526020017f416464726573733a206c6f772d6c6576656c2063616c6c206661696c65640000815250611d75565b81515f90815b8181101561178157836001600160a01b031685828151811061175a5761175a6125eb565b60200260200101516001600160a01b0316036117795791506115ee9050565b600101611736565b505f19949350505050565b604080516001600160a01b0385811660248301528481166044830152606480830185905283518084039091018152608490920183526020820180516001600160e01b03166323b872dd60e01b17905291515f928392908816916117ef91906128a7565b5f604051808303815f865af19150503d805f8114611828576040519150601f19603f3d011682016040523d82523d5f602084013e61182d565b606091505b5091509150818015611857575080511580611857575080806020019051810190611857919061280c565b6118895760405162461bcd60e51b815260206004820152600360248201526229aa2360e91b6044820152606401610608565b505050505050565b6006545f906118ad906001600160a01b03888116911685611e41565b60408051610100810182526001600160a01b038089168252878116602083015260135462ffffff1692820192909252908516606082015242608082015260a081018490525f9060c081016119018589611f54565b81525f6020918201526006546040805163414bf38960e01b815284516001600160a01b03908116600483015293850151841660248201529084015162ffffff1660448201526060840151831660648201526080840151608482015260a084015160a482015260c084015160c482015260e0840151831660e4820152929350169063414bf38990610104016020604051808303815f875af19250505080156119c5575060408051601f3d908101601f191682019092526119c2918101906125ff565b60015b611a15576119d16128c2565b806308c379a003611a0b57506119e56128db565b806119f05750611a0d565b8060405163633abab960e01b81526004016106089190612895565b505b3d5f803e3d5ffd5b9150611a1e9050565b95945050505050565b5f8080856003811115611a3c57611a3c6127f8565b1480611a5957506003856003811115611a5757611a576127f8565b145b15611a8f5760035484516001600160a01b03909116925084905f90611a8057611a806125eb565b60200260200101519050611af6565b6001856003811115611aa357611aa36127f8565b03611abd57829150835f81518110611a8057611a806125eb565b6002856003811115611ad157611ad16127f8565b03611af657829150835f81518110611aeb57611aeb6125eb565b602002602001015190505b935093915050565b6040805160c081018083525f805463038fff2d60e41b909252925183929182916001600160a01b03909116906338fff2d09060c4808501916020918187030181865afa158015611b50573d5f803e3d5ffd5b505050506040513d601f19601f82011682018060405250810190611b7491906125ff565b81526020015f81526001600160a01b03808916602083015287166040820152606081018690526080015f6040519080825280601f01601f191660200182016040528015611bc8576020820181803683370190505b5090526040805160808082018352308083525f602084018190529383015260608201929092526008549183015192935091611c11916001600160a01b038a811692911690611e41565b611c1d82828642611ff0565b979650505050505050565b6040516001600160a01b038316602482015260448101829052611c5890849063a9059cbb60e01b90606401611106565b505050565b5f611cb1826040518060400160405280602081526020017f5361666545524332303a206c6f772d6c6576656c2063616c6c206661696c6564815250856001600160a01b03166121149092919063ffffffff16565b905080515f1480611cd1575080806020019051810190611cd1919061280c565b611c585760405162461bcd60e51b815260206004820152602a60248201527f5361666545524332303a204552433230206f7065726174696f6e20646964206e6044820152691bdd081cdd58d8d9595960b21b6064820152608401610608565b606061163f8383604051806060016040528060258152602001612b6a60259139612122565b80516a636f6e736f6c652e6c6f67602083015f808483855afa5050505050565b606082471015611dd65760405162461bcd60e51b815260206004820152602660248201527f416464726573733a20696e73756666696369656e742062616c616e636520666f6044820152651c8818d85b1b60d21b6064820152608401610608565b5f80866001600160a01b03168587604051611df191906128a7565b5f6040518083038185875af1925050503d805f8114611e2b576040519150601f19603f3d011682016040523d82523d5f602084013e611e30565b606091505b5091509150611c1d87838387612196565b801580611eb95750604051636eb1769f60e11b81523060048201526001600160a01b03838116602483015284169063dd62ed3e90604401602060405180830381865afa158015611e93573d5f803e3d5ffd5b505050506040513d601f19601f82011682018060405250810190611eb791906125ff565b155b611f245760405162461bcd60e51b815260206004820152603660248201527f5361666545524332303a20617070726f76652066726f6d206e6f6e2d7a65726f60448201527520746f206e6f6e2d7a65726f20616c6c6f77616e636560501b6064820152608401610608565b6040516001600160a01b038316602482015260448101829052611c5890849063095ea7b360e01b90606401611106565b5f80826001600160a01b031663313ce5676040518163ffffffff1660e01b8152600401602060405180830381865afa158015611f92573d5f803e3d5ffd5b505050506040513d601f19601f82011682018060405250810190611fb69190612964565b60ff16905080601214611fe857611fce816012612645565b611fd990600a612a64565b611fe39085612a6f565b61020b565b509192915050565b6008546040516352bbbe2960e01b81525f916001600160a01b0316906352bbbe2990612026908890889088908890600401612a8e565b6020604051808303815f875af1925050508015612060575060408051601f3d908101601f1916820190925261205d918101906125ff565b60015b6120ed5761206c6128c2565b806308c379a003611a0b57506120806128db565b8061208b5750611a0d565b6120b4816040518060400160405280600781526020016642414c2335303760c81b81525061220e565b156120d257604051637b19dd3560e11b815260040160405180910390fd5b806040516324af18bb60e21b81526004016106089190612895565b805f0361210d57604051635eeb40ff60e11b815260040160405180910390fd5b905061020b565b606061020b84845f85611d75565b60605f80856001600160a01b03168560405161213e91906128a7565b5f60405180830381855afa9150503d805f8114612176576040519150601f19603f3d011682016040523d82523d5f602084013e61217b565b606091505b509150915061218c86838387612196565b9695505050505050565b606083156122045782515f036121fd576001600160a01b0385163b6121fd5760405162461bcd60e51b815260206004820152601d60248201527f416464726573733a2063616c6c20746f206e6f6e2d636f6e74726163740000006044820152606401610608565b508161020b565b61020b8383612266565b5f8160405160200161222091906128a7565b604051602081830303815290604052805190602001208360405160200161224791906128a7565b6040516020818303038152906040528051906020012014905092915050565b8151156122765781518083602001fd5b8060405162461bcd60e51b81526004016106089190612895565b5080545f8255600402905f5260205f209081019061011391905b808211156122dc575f8082556001820181905560028201556003810180546001600160a01b03191690556004016122aa565b5090565b6001600160a01b0381168114610113575f80fd5b5f60208284031215612304575f80fd5b813561163f816122e0565b634e487b7160e01b5f52604160045260245ffd5b6060810181811067ffffffffffffffff821117156123435761234361230f565b60405250565b601f8201601f1916810167ffffffffffffffff8111828210171561236f5761236f61230f565b6040525050565b5f67ffffffffffffffff82111561238f5761238f61230f565b5060051b60200190565b5f805f80608085870312156123ac575f80fd5b84356123b7816122e0565b93506020858101356123c8816122e0565b935060408601359250606086013567ffffffffffffffff8111156123ea575f80fd5b8601601f810188136123fa575f80fd5b803561240581612376565b6040516124128282612349565b82815260059290921b830184019184810191508a831115612431575f80fd5b928401925b8284101561244f57833582529284019290840190612436565b979a9699509497505050505050565b5f6020828403121561246e575f80fd5b5035919050565b8015158114610113575f80fd5b5f805f8084860360c0811215612496575f80fd5b85356124a1816122e0565b945060208601356124b1816122e0565b93506060603f19820112156124c4575f80fd5b506040516124d181612323565b604086810135825260608701356020830152608087013590820152915060a08501356124fc81612475565b939692955090935050565b5f8060408385031215612518575f80fd5b8235612523816122e0565b915060208381013567ffffffffffffffff80821115612540575f80fd5b818601915086601f830112612553575f80fd5b8135818111156125655761256561230f565b604051915061257d601f8201601f1916850183612349565b8082528784828501011115612590575f80fd5b80848401858401375f848284010152508093505050509250929050565b5f805f606084860312156125bf575f80fd5b83356125ca816122e0565b925060208401356125da816122e0565b929592945050506040919091013590565b634e487b7160e01b5f52603260045260245ffd5b5f6020828403121561260f575f80fd5b5051919050565b5f60208284031215612626575f80fd5b815161163f816122e0565b634e487b7160e01b5f52601160045260245ffd5b818103818111156115ee576115ee612631565b808201808211156115ee576115ee612631565b8181035f83128015838313168383128216171561268a5761268a612631565b5092915050565b80820281158282048414176115ee576115ee612631565b5f600182016126b9576126b9612631565b5060010190565b80516126cb816122e0565b919050565b5f80604083850312156126e1575f80fd5b825167ffffffffffffffff808211156126f8575f80fd5b908401906060828703121561270b575f80fd5b60405161271781612323565b8251815260208084015181830152604084015183811115612736575f80fd5b80850194505087601f85011261274a575f80fd5b8351925061275783612376565b6040516127648282612349565b84815260059490941b8501820193828101915089851115612783575f80fd5b948201945b848610156127a157855182529482019490820190612788565b80604085015250508195506127b78188016126c0565b9450505050509250929050565b5f805f606084860312156127d6575f80fd5b83516127e181612475565b602085015160409095015190969495509392505050565b634e487b7160e01b5f52602160045260245ffd5b5f6020828403121561281c575f80fd5b815161163f81612475565b5f5b83811015612841578181015183820152602001612829565b50505f910152565b5f8151808452612860816020860160208601612827565b601f01601f19169290920160200192915050565b604081525f6128866040830185612849565b90508260208301529392505050565b602081525f61163f6020830184612849565b5f82516128b8818460208701612827565b9190910192915050565b5f60033d11156128d85760045f803e505f5160e01c5b90565b5f60443d10156128e85790565b6040516003193d81016004833e81513d67ffffffffffffffff816024840111818411171561291857505050505090565b82850191508151818111156129305750505050505090565b843d870101602082850101111561294a5750505050505090565b61295960208286010187612349565b509095945050505050565b5f60208284031215612974575f80fd5b815160ff8116811461163f575f80fd5b600181815b808511156129be57815f19048211156129a4576129a4612631565b808516156129b157918102915b93841c9390800290612989565b509250929050565b5f826129d4575060016115ee565b816129e057505f6115ee565b81600181146129f65760028114612a0057612a1c565b60019150506115ee565b60ff841115612a1157612a11612631565b50506001821b6115ee565b5060208310610133831016604e8410600b8410161715612a3f575081810a6115ee565b612a498383612984565b805f1904821115612a5c57612a5c612631565b029392505050565b5f61163f83836129c6565b5f82612a8957634e487b7160e01b5f52601260045260245ffd5b500490565b60e08152845160e08201525f602086015160028110612abb57634e487b7160e01b5f52602160045260245ffd5b61010083015260408601516001600160a01b03166101208301526060860151612af06101408401826001600160a01b03169052565b50608086015161016083015260a086015160c0610180840152612b176101a0840182612849565b915050612b57602083018680516001600160a01b039081168352602080830151151590840152604080830151909116908301526060908101511515910152565b60a082019390935260c001529291505056fe416464726573733a206c6f772d6c6576656c207374617469632063616c6c206661696c6564a2646970667358221220fee6443eba3fbfc9c7fcea99a1c6f2cacd58039ae42c47b080acd2469695799c64736f6c63430008180033","linkReferences":{}},"methodIdentifiers":{"claimReward()":"b88a802f","earned(address)":"008cc262","executeRebaseSwap()":"5c0c9cc3","getRewardsData()":"7d098e64","lastTimeRewardApplicable()":"80faa57d","notifyRewardAmount(uint256)":"3c6b16ab","recicleOZL(address,address,uint256)":"ab399cf8","rewardPerToken()":"cd3daf9d","setRewardsDuration(uint256)":"cc1a378f","useOZL(address,address,uint256,uint256[])":"094463e7","useOzTokens(address,bytes)":"a1b86b38","useUnderlying(address,address,(uint256,uint256,uint256),bool)":"55dae15c"},"id":15}