{"abi":[{"type":"function","name":"getPoolId","inputs":[],"outputs":[{"name":"","type":"bytes32","internalType":"bytes32"}],"stateMutability":"view"},{"type":"function","name":"swap","inputs":[{"name":"singleSwap","type":"tuple","internalType":"struct RethPoolBalancer.SingleSwap","components":[{"name":"poolId","type":"bytes32","internalType":"bytes32"},{"name":"kind","type":"uint8","internalType":"enum RethPoolBalancer.SwapKind"},{"name":"assetIn","type":"address","internalType":"contract IAsset"},{"name":"assetOut","type":"address","internalType":"contract IAsset"},{"name":"amount","type":"uint256","internalType":"uint256"},{"name":"userData","type":"bytes","internalType":"bytes"}]},{"name":"funds","type":"tuple","internalType":"struct RethPoolBalancer.FundManagement","components":[{"name":"sender","type":"address","internalType":"address"},{"name":"fromInternalBalance","type":"bool","internalType":"bool"},{"name":"recipient","type":"address","internalType":"address payable"},{"name":"toInternalBalance","type":"bool","internalType":"bool"}]},{"name":"limit","type":"uint256","internalType":"uint256"},{"name":"deadline","type":"uint256","internalType":"uint256"}],"outputs":[{"name":"","type":"uint256","internalType":"uint256"}],"stateMutability":"payable"}],"bytecode":{"object":"0x608060405234801561001057600080fd5b5061032b806100206000396000f3fe6080604052600436106100295760003560e01c806338fff2d01461002e57806352bbbe291461006f575b600080fd5b34801561003a57600080fd5b507f1e19cf2d73a72ef1332c882f20534b6519be02760002000000000000000001125b60405190815260200160405180910390f35b61005d61007d36600461021e565b6000949350505050565b634e487b7160e01b600052604160045260246000fd5b60405160c0810167ffffffffffffffff811182821017156100c0576100c0610087565b60405290565b8035600281106100d557600080fd5b919050565b6001600160a01b03811681146100ef57600080fd5b50565b80356100d5816100da565b600082601f83011261010e57600080fd5b813567ffffffffffffffff8082111561012957610129610087565b604051601f8301601f19908116603f0116810190828211818310171561015157610151610087565b8160405283815286602085880101111561016a57600080fd5b836020870160208301376000602085830101528094505050505092915050565b803580151581146100d557600080fd5b6000608082840312156101ac57600080fd5b6040516080810181811067ffffffffffffffff821117156101cf576101cf610087565b60405290508082356101e0816100da565b81526101ee6020840161018a565b60208201526040830135610201816100da565b60408201526102126060840161018a565b60608201525092915050565b60008060008060e0858703121561023457600080fd5b843567ffffffffffffffff8082111561024c57600080fd5b9086019060c0828903121561026057600080fd5b61026861009d565b82358152610278602084016100c6565b6020820152610289604084016100f2565b604082015261029a606084016100f2565b60608201526080830135608082015260a0830135828111156102bb57600080fd5b6102c78a8286016100fd565b60a0830152508096505050506102e0866020870161019a565b939693955050505060a08201359160c001359056fea2646970667358221220a7193cc46e0e5feb4f6ce72c4d6055a8c4a6152fb4e3f1e03d4312cb17ea3cd064736f6c63430008150033","linkReferences":{}},"methodIdentifiers":{"getPoolId()":"38fff2d0","swap((bytes32,uint8,address,address,uint256,bytes),(address,bool,address,bool),uint256,uint256)":"52bbbe29"},"id":136}