{"abi":[{"type":"function","name":"getOzImplementations","inputs":[],"outputs":[{"name":"","type":"address[]","internalType":"address[]"}],"stateMutability":"view"},{"type":"function","name":"upgradeToBeacons","inputs":[{"name":"newImplementations_","type":"address[]","internalType":"address[]"}],"outputs":[],"stateMutability":"nonpayable"},{"type":"event","name":"Upgraded","inputs":[{"name":"implementations","type":"address[]","indexed":true,"internalType":"address[]"}],"anonymous":false},{"type":"error","name":"OZError24","inputs":[]}],"bytecode":{"object":"0x608060405234801561001057600080fd5b506107d1806100206000396000f3fe608060405234801561001057600080fd5b50600436106100365760003560e01c80632d8bbd361461003b578063e2be91bd14610059575b600080fd5b61004361006e565b60405161005091906105c5565b60405180910390f35b61006c610067366004610644565b6100d3565b005b606060006026018054806020026020016040519081016040528092919081815260200182805480156100c957602002820191906000526020600020905b81546001600160a01b031681526001909101906020018083116100ab575b5050505050905090565b6100db610125565b6100e4816101b2565b806040516100f29190610709565b604051908190038120907f40651a3ccbc7bfc3d4e28d0665467672fb61cac84026f938a06ddae3e1f2099190600090a250565b7fc8fcad8db84d3cc18b4c41d551ea0ee66dd599cde068d998e57d5e09332c131c600401546001600160a01b031633146101b05760405162461bcd60e51b815260206004820152602260248201527f4c69624469616d6f6e643a204d75737420626520636f6e7472616374206f776e60448201526132b960f11b606482015260840160405180910390fd5b565b60006001600160a01b0316816000815181106101d0576101d0610748565b60200260200101516001600160a01b031614801561021a575060006001600160a01b03168160018151811061020757610207610748565b60200260200101516001600160a01b0316145b156102385760405163d4c8091760e01b815260040160405180910390fd5b60006001600160a01b03168160008151811061025657610256610748565b60200260200101516001600160a01b0316141580156102a1575060006001600160a01b03168160018151811061028e5761028e610748565b60200260200101516001600160a01b0316145b156102da576102da6000826000815181106102be576102be610748565b602002602001015160006026016104939092919063ffffffff16565b60006001600160a01b0316816000815181106102f8576102f8610748565b60200260200101516001600160a01b0316148015610343575060006001600160a01b03168160018151811061032f5761032f610748565b60200260200101516001600160a01b031614155b15610360576103606001826001815181106102be576102be610748565b60006001600160a01b03168160008151811061037e5761037e610748565b60200260200101516001600160a01b0316141580156103ca575060006001600160a01b0316816001815181106103b6576103b6610748565b60200260200101516001600160a01b031614155b1561049057806000815181106103e2576103e2610748565b6020026020010151600060260160008154811061040157610401610748565b9060005260206000200160006101000a8154816001600160a01b0302191690836001600160a01b031602179055508060018151811061044257610442610748565b6020026020010151600060260160018154811061046157610461610748565b9060005260206000200160006101000a8154816001600160a01b0302191690836001600160a01b031602179055505b50565b825483906104a39060019061075e565b815481106104b3576104b3610748565b9060005260206000200160009054906101000a90046001600160a01b03168383815481106104e3576104e3610748565b9060005260206000200160006101000a8154816001600160a01b0302191690836001600160a01b031602179055508280548061052157610521610785565b600082815260209020810160001990810180546001600160a01b0319169055019055811561058657808360018154811061055d5761055d610748565b600091825260209091200180546001600160a01b0319166001600160a01b0383161790556105bf565b808360008154811061059a5761059a610748565b600091825260209091200180546001600160a01b0319166001600160a01b0383161790555b50505050565b6020808252825182820181905260009190848201906040850190845b818110156106065783516001600160a01b0316835292840192918401916001016105e1565b50909695505050505050565b634e487b7160e01b600052604160045260246000fd5b80356001600160a01b038116811461063f57600080fd5b919050565b6000602080838503121561065757600080fd5b823567ffffffffffffffff8082111561066f57600080fd5b818501915085601f83011261068357600080fd5b81358181111561069557610695610612565b8060051b604051601f19603f830116810181811085821117156106ba576106ba610612565b6040529182528482019250838101850191888311156106d857600080fd5b938501935b828510156106fd576106ee85610628565b845293850193928501926106dd565b98975050505050505050565b815160009082906020808601845b8381101561073c5781516001600160a01b031685529382019390820190600101610717565b50929695505050505050565b634e487b7160e01b600052603260045260246000fd5b8181038181111561077f57634e487b7160e01b600052601160045260246000fd5b92915050565b634e487b7160e01b600052603160045260246000fdfea26469706673582212201aae0c51c95ca06ee2e11ef317347446d2ada1125c6ab1a9169a2db423bdf15464736f6c63430008150033","linkReferences":{}},"methodIdentifiers":{"getOzImplementations()":"2d8bbd36","upgradeToBeacons(address[])":"e2be91bd"},"id":13}