{"abi":[{"type":"function","name":"getOzImplementations","inputs":[],"outputs":[{"name":"","type":"address[]","internalType":"address[]"}],"stateMutability":"view"},{"type":"function","name":"upgradeToBeacons","inputs":[{"name":"newImplementations_","type":"address[]","internalType":"address[]"}],"outputs":[],"stateMutability":"nonpayable"},{"type":"event","name":"Upgraded","inputs":[{"name":"implementations","type":"address[]","indexed":true,"internalType":"address[]"}],"anonymous":false},{"type":"error","name":"OZError24","inputs":[]}],"bytecode":{"object":"0x608060405234801561001057600080fd5b50610467806100206000396000f3fe608060405234801561001057600080fd5b50600436106100365760003560e01c80632d8bbd361461003b578063e2be91bd14610059575b600080fd5b61004361006e565b6040516100509190610271565b60405180910390f35b61006c6100673660046102f0565b6100d3565b005b606060006026018054806020026020016040519081016040528092919081815260200182805480156100c957602002820191906000526020600020905b81546001600160a01b031681526001909101906020018083116100ab575b5050505050905090565b6100db610125565b6100e4816101b2565b806040516100f291906103b5565b604051908190038120907f40651a3ccbc7bfc3d4e28d0665467672fb61cac84026f938a06ddae3e1f2099190600090a250565b7fc8fcad8db84d3cc18b4c41d551ea0ee66dd599cde068d998e57d5e09332c131c600401546001600160a01b031633146101b05760405162461bcd60e51b815260206004820152602260248201527f4c69624469616d6f6e643a204d75737420626520636f6e7472616374206f776e60448201526132b960f11b606482015260840160405180910390fd5b565b805160005b8181101561026c576101eb8382815181106101d4576101d46103f4565b60200260200101516001600160a01b03163b151590565b6102085760405163d4c8091760e01b815260040160405180910390fd5b600060260183828151811061021f5761021f6103f4565b60209081029190910181015182546001810184556000938452919092200180546001600160a01b0319166001600160a01b03909216919091179055806102648161040a565b9150506101b7565b505050565b6020808252825182820181905260009190848201906040850190845b818110156102b25783516001600160a01b03168352928401929184019160010161028d565b50909695505050505050565b634e487b7160e01b600052604160045260246000fd5b80356001600160a01b03811681146102eb57600080fd5b919050565b6000602080838503121561030357600080fd5b823567ffffffffffffffff8082111561031b57600080fd5b818501915085601f83011261032f57600080fd5b813581811115610341576103416102be565b8060051b604051601f19603f83011681018181108582111715610366576103666102be565b60405291825284820192508381018501918883111561038457600080fd5b938501935b828510156103a95761039a856102d4565b84529385019392850192610389565b98975050505050505050565b815160009082906020808601845b838110156103e85781516001600160a01b0316855293820193908201906001016103c3565b50929695505050505050565b634e487b7160e01b600052603260045260246000fd5b60006001820161042a57634e487b7160e01b600052601160045260246000fd5b506001019056fea2646970667358221220e02b51d70f37366d8395efed3a705a83e3c363424b7d6e1c0a9fc7ffd44d420c64736f6c63430008150033","linkReferences":{}},"methodIdentifiers":{"getOzImplementations()":"2d8bbd36","upgradeToBeacons(address[])":"e2be91bd"},"id":15}