{"abi":[{"type":"function","name":"getHi","inputs":[],"outputs":[{"name":"","type":"uint256","internalType":"uint256"}],"stateMutability":"pure"}],"bytecode":{"object":"0x6080604052348015600f57600080fd5b50607780601d6000396000f3fe6080604052348015600f57600080fd5b506004361060285760003560e01c806381fd5e2814602d575b600080fd5b600160405190815260200160405180910390f3fea2646970667358221220dd6deeae7d126965146f899fcb91b85f5791c6779f5ff111c2a595d11acb36bb64736f6c63430008150033","linkReferences":{}},"methodIdentifiers":{"getHi()":"81fd5e28"},"id":10}