{
  "abi": [
    {
      "inputs": [],
      "name": "getHi",
      "outputs": [
        {
          "internalType": "uint256",
          "name": "",
          "type": "uint256"
        }
      ],
      "stateMutability": "pure",
      "type": "function"
    }
  ],
  "bytecode": {
    "object": "0x6080604052348015600f57600080fd5b50607780601d6000396000f3fe6080604052348015600f57600080fd5b506004361060285760003560e01c806381fd5e2814602d575b600080fd5b600160405190815260200160405180910390f3fea264697066735822122090e97dd086ce870147b018c56cc464092032f96967e286a3dedc2939f348914a64736f6c63430008150033",
    "linkReferences": {}
  },
  "methodIdentifiers": {
    "getHi()": "81fd5e28"
  },
  "id": 5
}