{
  "abi": [
    {
      "inputs": [],
      "stateMutability": "nonpayable",
      "type": "constructor"
    },
    {
      "inputs": [
        {
          "internalType": "address",
          "name": "sender",
          "type": "address"
        },
        {
          "internalType": "uint256",
          "name": "shares",
          "type": "uint256"
        },
        {
          "internalType": "uint256",
          "name": "sharesNeeded",
          "type": "uint256"
        }
      ],
      "name": "ERC20InsufficientBalance",
      "type": "error"
    },
    {
      "inputs": [
        {
          "internalType": "address",
          "name": "receiver",
          "type": "address"
        }
      ],
      "name": "ERC20InvalidReceiver",
      "type": "error"
    },
    {
      "inputs": [
        {
          "internalType": "address",
          "name": "sender",
          "type": "address"
        }
      ],
      "name": "ERC20InvalidSender",
      "type": "error"
    },
    {
      "inputs": [
        {
          "internalType": "uint256",
          "name": "deadline",
          "type": "uint256"
        },
        {
          "internalType": "uint256",
          "name": "blockTimestamp",
          "type": "uint256"
        }
      ],
      "name": "ERC2612ExpiredDeadline",
      "type": "error"
    },
    {
      "inputs": [
        {
          "internalType": "address",
          "name": "owner",
          "type": "address"
        },
        {
          "internalType": "address",
          "name": "spender",
          "type": "address"
        }
      ],
      "name": "ERC2612InvalidSignature",
      "type": "error"
    },
    {
      "inputs": [
        {
          "internalType": "address",
          "name": "sender",
          "type": "address"
        },
        {
          "internalType": "uint256",
          "name": "shares",
          "type": "uint256"
        },
        {
          "internalType": "uint256",
          "name": "sharesNeeded",
          "type": "uint256"
        }
      ],
      "name": "USDMInsufficientBurnBalance",
      "type": "error"
    },
    {
      "inputs": [
        {
          "internalType": "address",
          "name": "account",
          "type": "address"
        }
      ],
      "name": "ozTokenInvalidMintReceiver",
      "type": "error"
    },
    {
      "anonymous": false,
      "inputs": [
        {
          "indexed": true,
          "internalType": "address",
          "name": "owner",
          "type": "address"
        },
        {
          "indexed": true,
          "internalType": "address",
          "name": "spender",
          "type": "address"
        },
        {
          "indexed": false,
          "internalType": "uint256",
          "name": "value",
          "type": "uint256"
        }
      ],
      "name": "Approval",
      "type": "event"
    },
    {
      "anonymous": false,
      "inputs": [
        {
          "indexed": true,
          "internalType": "address",
          "name": "caller",
          "type": "address"
        },
        {
          "indexed": true,
          "internalType": "address",
          "name": "owner",
          "type": "address"
        },
        {
          "indexed": false,
          "internalType": "uint256",
          "name": "assets",
          "type": "uint256"
        },
        {
          "indexed": false,
          "internalType": "uint256",
          "name": "shares",
          "type": "uint256"
        }
      ],
      "name": "Deposit",
      "type": "event"
    },
    {
      "anonymous": false,
      "inputs": [
        {
          "indexed": false,
          "internalType": "uint8",
          "name": "version",
          "type": "uint8"
        }
      ],
      "name": "Initialized",
      "type": "event"
    },
    {
      "anonymous": false,
      "inputs": [
        {
          "indexed": true,
          "internalType": "address",
          "name": "from",
          "type": "address"
        },
        {
          "indexed": true,
          "internalType": "address",
          "name": "to",
          "type": "address"
        },
        {
          "indexed": false,
          "internalType": "uint256",
          "name": "value",
          "type": "uint256"
        }
      ],
      "name": "Transfer",
      "type": "event"
    },
    {
      "anonymous": false,
      "inputs": [
        {
          "indexed": true,
          "internalType": "address",
          "name": "caller",
          "type": "address"
        },
        {
          "indexed": true,
          "internalType": "address",
          "name": "receiver",
          "type": "address"
        },
        {
          "indexed": true,
          "internalType": "address",
          "name": "owner",
          "type": "address"
        },
        {
          "indexed": false,
          "internalType": "uint256",
          "name": "assets",
          "type": "uint256"
        },
        {
          "indexed": false,
          "internalType": "uint256",
          "name": "shares",
          "type": "uint256"
        }
      ],
      "name": "Withdraw",
      "type": "event"
    },
    {
      "inputs": [],
      "name": "DOMAIN_SEPARATOR",
      "outputs": [
        {
          "internalType": "bytes32",
          "name": "",
          "type": "bytes32"
        }
      ],
      "stateMutability": "view",
      "type": "function"
    },
    {
      "inputs": [
        {
          "internalType": "address",
          "name": "owner",
          "type": "address"
        },
        {
          "internalType": "address",
          "name": "spender",
          "type": "address"
        }
      ],
      "name": "allowance",
      "outputs": [
        {
          "internalType": "uint256",
          "name": "",
          "type": "uint256"
        }
      ],
      "stateMutability": "view",
      "type": "function"
    },
    {
      "inputs": [
        {
          "internalType": "address",
          "name": "spender",
          "type": "address"
        },
        {
          "internalType": "uint256",
          "name": "amount",
          "type": "uint256"
        }
      ],
      "name": "approve",
      "outputs": [
        {
          "internalType": "bool",
          "name": "",
          "type": "bool"
        }
      ],
      "stateMutability": "nonpayable",
      "type": "function"
    },
    {
      "inputs": [],
      "name": "asset",
      "outputs": [
        {
          "internalType": "address",
          "name": "",
          "type": "address"
        }
      ],
      "stateMutability": "view",
      "type": "function"
    },
    {
      "inputs": [
        {
          "internalType": "address",
          "name": "account_",
          "type": "address"
        }
      ],
      "name": "balanceOf",
      "outputs": [
        {
          "internalType": "uint256",
          "name": "",
          "type": "uint256"
        }
      ],
      "stateMutability": "view",
      "type": "function"
    },
    {
      "inputs": [
        {
          "components": [
            {
              "internalType": "uint256",
              "name": "ozAmountIn",
              "type": "uint256"
            },
            {
              "internalType": "uint256",
              "name": "minWethOut",
              "type": "uint256"
            },
            {
              "internalType": "uint256",
              "name": "bptAmountIn",
              "type": "uint256"
            },
            {
              "internalType": "uint256",
              "name": "minUsdcOut",
              "type": "uint256"
            }
          ],
          "internalType": "struct AmountsOut",
          "name": "amts_",
          "type": "tuple"
        },
        {
          "internalType": "address",
          "name": "receiver_",
          "type": "address"
        },
        {
          "internalType": "uint8",
          "name": "v_",
          "type": "uint8"
        },
        {
          "internalType": "bytes32",
          "name": "r_",
          "type": "bytes32"
        },
        {
          "internalType": "bytes32",
          "name": "s_",
          "type": "bytes32"
        }
      ],
      "name": "burn",
      "outputs": [],
      "stateMutability": "nonpayable",
      "type": "function"
    },
    {
      "inputs": [
        {
          "internalType": "uint256",
          "name": "shares",
          "type": "uint256"
        }
      ],
      "name": "convertToAssets",
      "outputs": [
        {
          "internalType": "uint256",
          "name": "assets",
          "type": "uint256"
        }
      ],
      "stateMutability": "view",
      "type": "function"
    },
    {
      "inputs": [
        {
          "internalType": "uint256",
          "name": "assets",
          "type": "uint256"
        }
      ],
      "name": "convertToShares",
      "outputs": [
        {
          "internalType": "uint256",
          "name": "shares",
          "type": "uint256"
        }
      ],
      "stateMutability": "view",
      "type": "function"
    },
    {
      "inputs": [
        {
          "internalType": "uint256",
          "name": "shares_",
          "type": "uint256"
        }
      ],
      "name": "convertToUnderlying",
      "outputs": [
        {
          "internalType": "uint256",
          "name": "amountUnderlying",
          "type": "uint256"
        }
      ],
      "stateMutability": "view",
      "type": "function"
    },
    {
      "inputs": [],
      "name": "decimals",
      "outputs": [
        {
          "internalType": "uint8",
          "name": "",
          "type": "uint8"
        }
      ],
      "stateMutability": "view",
      "type": "function"
    },
    {
      "inputs": [
        {
          "internalType": "address",
          "name": "spender",
          "type": "address"
        },
        {
          "internalType": "uint256",
          "name": "subtractedValue",
          "type": "uint256"
        }
      ],
      "name": "decreaseAllowance",
      "outputs": [
        {
          "internalType": "bool",
          "name": "",
          "type": "bool"
        }
      ],
      "stateMutability": "nonpayable",
      "type": "function"
    },
    {
      "inputs": [
        {
          "internalType": "uint256",
          "name": "assets_",
          "type": "uint256"
        },
        {
          "internalType": "address",
          "name": "receiver_",
          "type": "address"
        }
      ],
      "name": "deposit",
      "outputs": [
        {
          "internalType": "uint256",
          "name": "",
          "type": "uint256"
        }
      ],
      "stateMutability": "nonpayable",
      "type": "function"
    },
    {
      "inputs": [
        {
          "internalType": "address",
          "name": "spender",
          "type": "address"
        },
        {
          "internalType": "uint256",
          "name": "addedValue",
          "type": "uint256"
        }
      ],
      "name": "increaseAllowance",
      "outputs": [
        {
          "internalType": "bool",
          "name": "",
          "type": "bool"
        }
      ],
      "stateMutability": "nonpayable",
      "type": "function"
    },
    {
      "inputs": [
        {
          "internalType": "address",
          "name": "underlying_",
          "type": "address"
        },
        {
          "internalType": "address",
          "name": "diamond_",
          "type": "address"
        },
        {
          "internalType": "string",
          "name": "name_",
          "type": "string"
        },
        {
          "internalType": "string",
          "name": "symbol_",
          "type": "string"
        }
      ],
      "name": "initialize",
      "outputs": [],
      "stateMutability": "nonpayable",
      "type": "function"
    },
    {
      "inputs": [
        {
          "internalType": "address",
          "name": "",
          "type": "address"
        }
      ],
      "name": "maxDeposit",
      "outputs": [
        {
          "internalType": "uint256",
          "name": "",
          "type": "uint256"
        }
      ],
      "stateMutability": "view",
      "type": "function"
    },
    {
      "inputs": [
        {
          "internalType": "address",
          "name": "",
          "type": "address"
        }
      ],
      "name": "maxMint",
      "outputs": [
        {
          "internalType": "uint256",
          "name": "",
          "type": "uint256"
        }
      ],
      "stateMutability": "view",
      "type": "function"
    },
    {
      "inputs": [
        {
          "internalType": "address",
          "name": "owner",
          "type": "address"
        }
      ],
      "name": "maxRedeem",
      "outputs": [
        {
          "internalType": "uint256",
          "name": "",
          "type": "uint256"
        }
      ],
      "stateMutability": "view",
      "type": "function"
    },
    {
      "inputs": [
        {
          "internalType": "address",
          "name": "owner",
          "type": "address"
        }
      ],
      "name": "maxWithdraw",
      "outputs": [
        {
          "internalType": "uint256",
          "name": "",
          "type": "uint256"
        }
      ],
      "stateMutability": "view",
      "type": "function"
    },
    {
      "inputs": [
        {
          "internalType": "uint256",
          "name": "shares",
          "type": "uint256"
        },
        {
          "internalType": "address",
          "name": "receiver",
          "type": "address"
        }
      ],
      "name": "mint",
      "outputs": [
        {
          "internalType": "uint256",
          "name": "",
          "type": "uint256"
        }
      ],
      "stateMutability": "nonpayable",
      "type": "function"
    },
    {
      "inputs": [
        {
          "components": [
            {
              "internalType": "uint256",
              "name": "amountIn",
              "type": "uint256"
            },
            {
              "internalType": "uint256",
              "name": "minWethOut",
              "type": "uint256"
            },
            {
              "internalType": "uint256",
              "name": "minRethOut",
              "type": "uint256"
            },
            {
              "internalType": "uint256",
              "name": "minBptOut",
              "type": "uint256"
            }
          ],
          "internalType": "struct AmountsIn",
          "name": "amounts_",
          "type": "tuple"
        },
        {
          "internalType": "address",
          "name": "receiver_",
          "type": "address"
        },
        {
          "internalType": "uint8",
          "name": "v_",
          "type": "uint8"
        },
        {
          "internalType": "bytes32",
          "name": "r_",
          "type": "bytes32"
        },
        {
          "internalType": "bytes32",
          "name": "s_",
          "type": "bytes32"
        }
      ],
      "name": "mint",
      "outputs": [
        {
          "internalType": "uint256",
          "name": "",
          "type": "uint256"
        }
      ],
      "stateMutability": "nonpayable",
      "type": "function"
    },
    {
      "inputs": [],
      "name": "name",
      "outputs": [
        {
          "internalType": "string",
          "name": "",
          "type": "string"
        }
      ],
      "stateMutability": "view",
      "type": "function"
    },
    {
      "inputs": [
        {
          "internalType": "address",
          "name": "owner",
          "type": "address"
        }
      ],
      "name": "nonces",
      "outputs": [
        {
          "internalType": "uint256",
          "name": "",
          "type": "uint256"
        }
      ],
      "stateMutability": "view",
      "type": "function"
    },
    {
      "inputs": [
        {
          "internalType": "address",
          "name": "owner",
          "type": "address"
        },
        {
          "internalType": "address",
          "name": "spender",
          "type": "address"
        },
        {
          "internalType": "uint256",
          "name": "value",
          "type": "uint256"
        },
        {
          "internalType": "uint256",
          "name": "deadline",
          "type": "uint256"
        },
        {
          "internalType": "uint8",
          "name": "v",
          "type": "uint8"
        },
        {
          "internalType": "bytes32",
          "name": "r",
          "type": "bytes32"
        },
        {
          "internalType": "bytes32",
          "name": "s_",
          "type": "bytes32"
        }
      ],
      "name": "permit",
      "outputs": [],
      "stateMutability": "nonpayable",
      "type": "function"
    },
    {
      "inputs": [
        {
          "internalType": "uint256",
          "name": "assets_",
          "type": "uint256"
        }
      ],
      "name": "previewDeposit",
      "outputs": [
        {
          "internalType": "uint256",
          "name": "",
          "type": "uint256"
        }
      ],
      "stateMutability": "view",
      "type": "function"
    },
    {
      "inputs": [
        {
          "internalType": "uint256",
          "name": "shares",
          "type": "uint256"
        }
      ],
      "name": "previewMint",
      "outputs": [
        {
          "internalType": "uint256",
          "name": "",
          "type": "uint256"
        }
      ],
      "stateMutability": "view",
      "type": "function"
    },
    {
      "inputs": [
        {
          "internalType": "uint256",
          "name": "shares_",
          "type": "uint256"
        }
      ],
      "name": "previewRedeem",
      "outputs": [
        {
          "internalType": "uint256",
          "name": "",
          "type": "uint256"
        }
      ],
      "stateMutability": "view",
      "type": "function"
    },
    {
      "inputs": [
        {
          "internalType": "uint256",
          "name": "assets",
          "type": "uint256"
        }
      ],
      "name": "previewWithdraw",
      "outputs": [
        {
          "internalType": "uint256",
          "name": "",
          "type": "uint256"
        }
      ],
      "stateMutability": "view",
      "type": "function"
    },
    {
      "inputs": [
        {
          "internalType": "uint256",
          "name": "shares",
          "type": "uint256"
        },
        {
          "internalType": "address",
          "name": "receiver",
          "type": "address"
        },
        {
          "internalType": "address",
          "name": "owner",
          "type": "address"
        }
      ],
      "name": "redeem",
      "outputs": [
        {
          "internalType": "uint256",
          "name": "",
          "type": "uint256"
        }
      ],
      "stateMutability": "nonpayable",
      "type": "function"
    },
    {
      "inputs": [
        {
          "internalType": "address",
          "name": "account_",
          "type": "address"
        }
      ],
      "name": "sharesOf",
      "outputs": [
        {
          "internalType": "uint256",
          "name": "",
          "type": "uint256"
        }
      ],
      "stateMutability": "view",
      "type": "function"
    },
    {
      "inputs": [],
      "name": "symbol",
      "outputs": [
        {
          "internalType": "string",
          "name": "",
          "type": "string"
        }
      ],
      "stateMutability": "view",
      "type": "function"
    },
    {
      "inputs": [],
      "name": "totalAssets",
      "outputs": [
        {
          "internalType": "uint256",
          "name": "",
          "type": "uint256"
        }
      ],
      "stateMutability": "view",
      "type": "function"
    },
    {
      "inputs": [],
      "name": "totalShares",
      "outputs": [
        {
          "internalType": "uint256",
          "name": "",
          "type": "uint256"
        }
      ],
      "stateMutability": "view",
      "type": "function"
    },
    {
      "inputs": [],
      "name": "totalSupply",
      "outputs": [
        {
          "internalType": "uint256",
          "name": "",
          "type": "uint256"
        }
      ],
      "stateMutability": "view",
      "type": "function"
    },
    {
      "inputs": [
        {
          "internalType": "address",
          "name": "to",
          "type": "address"
        },
        {
          "internalType": "uint256",
          "name": "amount",
          "type": "uint256"
        }
      ],
      "name": "transfer",
      "outputs": [
        {
          "internalType": "bool",
          "name": "",
          "type": "bool"
        }
      ],
      "stateMutability": "nonpayable",
      "type": "function"
    },
    {
      "inputs": [
        {
          "internalType": "address",
          "name": "from",
          "type": "address"
        },
        {
          "internalType": "address",
          "name": "to",
          "type": "address"
        },
        {
          "internalType": "uint256",
          "name": "amount",
          "type": "uint256"
        }
      ],
      "name": "transferFrom",
      "outputs": [
        {
          "internalType": "bool",
          "name": "",
          "type": "bool"
        }
      ],
      "stateMutability": "nonpayable",
      "type": "function"
    },
    {
      "inputs": [
        {
          "internalType": "uint256",
          "name": "assets",
          "type": "uint256"
        },
        {
          "internalType": "address",
          "name": "receiver",
          "type": "address"
        },
        {
          "internalType": "address",
          "name": "owner",
          "type": "address"
        }
      ],
      "name": "withdraw",
      "outputs": [
        {
          "internalType": "uint256",
          "name": "",
          "type": "uint256"
        }
      ],
      "stateMutability": "nonpayable",
      "type": "function"
    }
  ],
  "bytecode": {
    "object": "0x60806040523480156200001157600080fd5b506200001c62000022565b620000e4565b600054610100900460ff16156200008f5760405162461bcd60e51b815260206004820152602760248201527f496e697469616c697a61626c653a20636f6e747261637420697320696e697469604482015266616c697a696e6760c81b606482015260840160405180910390fd5b60005460ff9081161015620000e2576000805460ff191660ff9081179091556040519081527f7f26b83ff96e1f2b6a682f133852f6798a09c465da95921460cefb38474024989060200160405180910390a15b565b61263280620000f46000396000f3fe608060405234801561001057600080fd5b506004361061021c5760003560e01c806370a0823111610125578063c63d75b6116100ad578063d905777e1161007c578063d905777e14610460578063d937361214610473578063dd62ed3e14610486578063ef8b30f714610499578063f5eb42dc146104ac57600080fd5b8063c63d75b614610412578063c6e6f59214610427578063ce96cb771461043a578063d505accf1461044d57600080fd5b8063a457c2d7116100f4578063a457c2d7146103b3578063a9059cbb146103c6578063b3d7f6b9146103d9578063b460af94146103ec578063ba087652146103ff57600080fd5b806370a08231146103725780637ecebe001461038557806394bf804d1461039857806395d89b41146103ab57600080fd5b8063313ce567116101a85780633a98ef39116101775780633a98ef391461031e578063402d267d146103265780634cdad506146103395780634f4fc1311461034c5780636e553f651461035f57600080fd5b8063313ce567146102d95780633644e515146102e857806338d52e0f146102f0578063395093511461030b57600080fd5b80630a28a477116101ef5780630a28a4771461028357806318160ddd146102965780631dc7f5211461029e5780632016a0d2146102b157806323b872dd146102c657600080fd5b806301e1d1141461022157806306fdde031461023857806307a2d13a1461024d578063095ea7b314610260575b600080fd5b60e2545b6040519081526020015b60405180910390f35b6102406104d5565b60405161022f9190611f00565b61022561025b366004611f33565b610567565b61027361026e366004611f68565b61057a565b604051901515815260200161022f565b610225610291366004611f33565b610592565b61022561059f565b6102256102ac366004611f33565b6105c3565b6102c46102bf366004612035565b610654565b005b6102736102d43660046120ba565b6107b7565b6040516012815260200161022f565b6102256107dd565b6065546040516001600160a01b03909116815260200161022f565b610273610319366004611f68565b6107e7565b60e154610225565b6102256103343660046120f6565b610809565b610225610347366004611f33565b610827565b6102c461035a366004612188565b610834565b61022561036d3660046121df565b6109dd565b6102256103803660046120f6565b610a65565b6102256103933660046120f6565b610a87565b6102256103a63660046121df565b610aa5565b610240610abf565b6102736103c1366004611f68565b610ace565b6102736103d4366004611f68565b610b54565b6102256103e7366004611f33565b610b62565b6102256103fa36600461220b565b610b6f565b61022561040d36600461220b565b610beb565b6102256104203660046120f6565b5060001990565b610225610435366004611f33565b610c5f565b6102256104483660046120f6565b610c6c565b6102c461045b366004612247565b610c81565b61022561046e3660046120f6565b610da3565b610225610481366004612188565b610dae565b6102256104943660046122b1565b610ed5565b6102256104a7366004611f33565b610f00565b6102256104ba3660046120f6565b6001600160a01b0316600090815260e3602052604090205490565b6060603680546104e4906122db565b80601f0160208091040260200160405190810160405280929190818152602001828054610510906122db565b801561055d5780601f106105325761010080835404028352916020019161055d565b820191906000526020600020905b81548152906001019060200180831161054057829003601f168201915b5050505050905090565b6000610574826000610f0d565b92915050565b600033610588818585610fa6565b5060019392505050565b60006105748260016110ca565b600060e1546000146105bd576105b860e1546000610f0d565b905090565b50600090565b60006105ce60e15490565b60e05460405163a4fc284b60e01b81526001600160a01b039091169063a4fc284b906105ff90600190600401612325565b602060405180830381865afa15801561061c573d6000803e3d6000fd5b505050506040513d601f19601f82011682018060405250810190610640919061234d565b61064a908461237c565b61057491906123a9565b600054610100900460ff16158080156106745750600054600160ff909116105b8061068e5750303b15801561068e575060005460ff166001145b6106f65760405162461bcd60e51b815260206004820152602e60248201527f496e697469616c697a61626c653a20636f6e747261637420697320616c72656160448201526d191e481a5b9a5d1a585b1a5e995960921b60648201526084015b60405180910390fd5b6000805460ff191660011790558015610719576000805461ff0019166101001790555b6107238383611158565b61072c8561118d565b61074f83604051806040016040528060018152602001603160f81b8152506111c0565b60e080546001600160a01b0319166001600160a01b03861617905580156107b0576000805461ff0019169055604051600181527f7f26b83ff96e1f2b6a682f133852f6798a09c465da95921460cefb38474024989060200160405180910390a15b5050505050565b6000336107c58582856111f1565b6107d085858561126b565b60019150505b9392505050565b60006105b8611366565b6000336105888185856107fa8383610ed5565b61080491906123cb565b610fa6565b60006108136113e1565b61081e576000610574565b60001992915050565b6000610574826000611402565b33600090815260e36020526040812054865190919061085290610c5f565b90508082101561088557604051633803cef960e11b815233600482015260248101839052604481018290526064016106ed565b60e054875160405163d505accf60e01b8152309263d505accf926108c09233926001600160a01b0316919042908c908c908c906004016123de565b600060405180830381600087803b1580156108da57600080fd5b505af11580156108ee573d6000803e3d6000fd5b5050505060006108fd82610827565b60e054604080516334347a5560e21b81528b51600482015260208c01516024820152908b0151604482015260608b015160648201523060848201523360a48201526001600160a01b038a811660c483015292935091169063d0d1e9549060e4016020604051808303816000875af115801561097c573d6000803e3d6000fd5b505050506040513d601f19601f820116820180604052508101906109a0919061234d565b5060e0546001600160a01b0316600090815260e360205260408120805491905560e1805491909103905560e2805491909103905550505050505050565b60006109e882610809565b831115610a375760405162461bcd60e51b815260206004820152601e60248201527f455243343632363a206465706f736974206d6f7265207468616e206d6178000060448201526064016106ed565b6000610a4260e15490565b15610a5557610a5084610f00565b610a57565b835b90506107d633848684611486565b6001600160a01b038116600090815260e3602052604081205461057490610567565b6001600160a01b038116600090815260e46020526040812054610574565b600080610ab184610b62565b90506107d633848387611486565b6060603780546104e4906122db565b60003381610adc8286610ed5565b905083811015610b3c5760405162461bcd60e51b815260206004820152602560248201527f45524332303a2064656372656173656420616c6c6f77616e63652062656c6f77604482015264207a65726f60d81b60648201526084016106ed565b610b498286868403610fa6565b506001949350505050565b60003361058881858561126b565b6000610574826001610f0d565b6000610b7a82610c6c565b841115610bc95760405162461bcd60e51b815260206004820152601f60248201527f6f7a546f6b656e3a207769746864726177206d6f7265207468616e206d61780060448201526064016106ed565b6000610bd485610592565b9050610be33385858885611521565b949350505050565b6000610bf682610da3565b841115610c455760405162461bcd60e51b815260206004820152601d60248201527f455243343632363a2072656465656d206d6f7265207468616e206d617800000060448201526064016106ed565b6000610c5085610827565b9050610be33385858489611521565b60006105748260006110ca565b6000610574610c7a83610a65565b6000610f0d565b83421115610cab5760405163233730db60e11b8152600481018590524260248201526044016106ed565b60007f6e71edae12b1b97f4d1f60370fef10105fa2faae0126114a169c64845d6126c9888888610cda8c6115cd565b6040805160208101969096526001600160a01b0394851690860152929091166060840152608083015260a082015260c0810186905260e0016040516020818303038152906040528051906020012090506000610d35826115f5565b90506000610d4582878787611643565b9050896001600160a01b0316816001600160a01b031614610d8c57604051630189c63360e31b81526001600160a01b03808c1660048301528a1660248201526044016106ed565b610d978a8a8a610fa6565b50505050505050505050565b600061057482610a65565b600080610dc36065546001600160a01b031690565b60e054885160405163d505accf60e01b81529293506001600160a01b038085169363d505accf93610e049333939091169142908c908c908c906004016123de565b600060405180830381600087803b158015610e1e57600080fd5b505af1158015610e32573d6000803e3d6000fd5b505060e054604051635879601960e01b81526001600160a01b03909116925063587960199150610e6a90849033908c9060040161241f565b600060405180830381600087803b158015610e8457600080fd5b505af1158015610e98573d6000803e3d6000fd5b505050506000610eac8860000151886109dd565b9050876000015160e26000828254610ec491906123cb565b909155509098975050505050505050565b6001600160a01b03918216600090815260346020908152604080832093909416825291909152205490565b600061057482600061166b565b60006107d6610f1b60e15490565b60e060009054906101000a90046001600160a01b03166001600160a01b03166345089e296040518163ffffffff1660e01b8152600401602060405180830381865afa158015610f6e573d6000803e3d6000fd5b505050506040513d601f19601f82011682018060405250810190610f92919061234d565b610f9c91906123a9565b8490600185611681565b6001600160a01b0383166110085760405162461bcd60e51b8152602060048201526024808201527f45524332303a20617070726f76652066726f6d20746865207a65726f206164646044820152637265737360e01b60648201526084016106ed565b6001600160a01b0382166110695760405162461bcd60e51b815260206004820152602260248201527f45524332303a20617070726f766520746f20746865207a65726f206164647265604482015261737360f01b60648201526084016106ed565b6001600160a01b0383811660008181526034602090815260408083209487168084529482529182902085905590518481527f8c5be1e5ebec7d5bd14f71427d1e84f3dd0314c0f7b2291e5b200ac8c7c3b925910160405180910390a3505050565b60006107d66110d860e15490565b60e060009054906101000a90046001600160a01b03166001600160a01b03166345089e296040518163ffffffff1660e01b8152600401602060405180830381865afa15801561112b573d6000803e3d6000fd5b505050506040513d601f19601f8201168201806040525081019061114f919061234d565b85919085611681565b600054610100900460ff1661117f5760405162461bcd60e51b81526004016106ed90612465565b61118982826116de565b5050565b600054610100900460ff166111b45760405162461bcd60e51b81526004016106ed90612465565b6111bd81611723565b50565b600054610100900460ff166111e75760405162461bcd60e51b81526004016106ed90612465565b611189828261176c565b60006111fd8484610ed5565b9050600019811461126557818110156112585760405162461bcd60e51b815260206004820152601d60248201527f45524332303a20696e73756666696369656e7420616c6c6f77616e636500000060448201526064016106ed565b6112658484848403610fa6565b50505050565b6001600160a01b03831661129d57604051634b637e8f60e11b81526001600160a01b03841660048201526024016106ed565b6001600160a01b0382166112cf5760405163ec442f0560e01b81526001600160a01b03831660048201526024016106ed565b60006112da82610c5f565b6001600160a01b038516600090815260e36020526040902054909150818110156113305760405163391434e360e21b81526001600160a01b038616600482015260248101829052604481018390526064016106ed565b6001600160a01b03948516600090815260e360205260408082209284900390925593909416835292909120805490920190915550565b60006105b87f8b73c3c69bb8fe3d512ecc4cf759cc79239f7b179b0ffacaa9a75d522b39400f61139560975490565b6098546040805160208101859052908101839052606081018290524660808201523060a082015260009060c0016040516020818303038152906040528051906020012090509392505050565b6000806113ed60e25490565b11806105b857506113fc61059f565b15905090565b60006107d660e060009054906101000a90046001600160a01b03166001600160a01b03166345089e296040518163ffffffff1660e01b8152600401602060405180830381865afa15801561145a573d6000803e3d6000fd5b505050506040513d601f19601f8201168201806040525081019061147e919061234d565b61114f61059f565b8060e1600082825461149891906123cb565b90915550506001600160a01b038316600090815260e3602052604090208054820190556114c583836117ad565b826001600160a01b0316846001600160a01b03167fdcbc1c05240f31ff3ad067ef1ee35ce4997762752e3a095284754544f4c709d78484604051611513929190918252602082015260400190565b60405180910390a350505050565b826001600160a01b0316856001600160a01b031614611545576115458386836111f1565b61154f838261188c565b606554611566906001600160a01b03168584611952565b826001600160a01b0316846001600160a01b0316866001600160a01b03167ffbde797d201c681b91056529119e0b02407c7bb96a4a2c75c01fc9667232c8db85856040516115be929190918252602082015260400190565b60405180910390a45050505050565b6001600160a01b038116600090815260e4602052604090208054600181018255905b50919050565b6000610574611602611366565b8360405161190160f01b6020820152602281018390526042810182905260009060620160405160208183030381529060405280519060200120905092915050565b6000806000611654878787876119a4565b9150915061166181611a91565b5095945050505050565b60006107d661167960e15490565b60e25461114f565b60008061168f868686611c47565b905060018360028111156116a5576116a561230f565b1480156116c25750600084806116bd576116bd612393565b868809115b156116d5576116d26001826123cb565b90505b95945050505050565b600054610100900460ff166117055760405162461bcd60e51b81526004016106ed90612465565b603661171183826124fe565b50603761171e82826124fe565b505050565b600054610100900460ff1661174a5760405162461bcd60e51b81526004016106ed90612465565b606580546001600160a01b0319166001600160a01b0392909216919091179055565b600054610100900460ff166117935760405162461bcd60e51b81526004016106ed90612465565b815160209283012081519190920120609791909155609855565b6001600160a01b0382166118035760405162461bcd60e51b815260206004820152601f60248201527f45524332303a206d696e7420746f20746865207a65726f20616464726573730060448201526064016106ed565b806035600082825461181591906123cb565b90915550506001600160a01b038216600090815260336020526040812080548392906118429084906123cb565b90915550506040518181526001600160a01b038316906000907fddf252ad1be2c89b69c2b068fc378daa952ba7f163c4a11628f55a4df523b3ef9060200160405180910390a35050565b6001600160a01b0382166118be57604051637c896cfb60e01b81526001600160a01b03831660048201526024016106ed565b6001600160a01b038216600090815260e36020526040812054906118e183610567565b90508282101561191d57604051633803cef960e11b81526001600160a01b038516600482015260248101839052604481018490526064016106ed565b6001600160a01b03909316600090815260e36020526040902090829003905560e1805491909103905560e28054919091039055565b604080516001600160a01b038416602482015260448082018490528251808303909101815260649091019091526020810180516001600160e01b031663a9059cbb60e01b17905261171e908490611cf6565b6000807f7fffffffffffffffffffffffffffffff5d576e7357a4501ddfe92f46681b20a08311156119db5750600090506003611a88565b8460ff16601b141580156119f357508460ff16601c14155b15611a045750600090506004611a88565b6040805160008082526020820180845289905260ff881692820192909252606081018690526080810185905260019060a0016020604051602081039080840390855afa158015611a58573d6000803e3d6000fd5b5050604051601f1901519150506001600160a01b038116611a8157600060019250925050611a88565b9150600090505b94509492505050565b6000816004811115611aa557611aa561230f565b03611aad5750565b6001816004811115611ac157611ac161230f565b03611b0e5760405162461bcd60e51b815260206004820152601860248201527f45434453413a20696e76616c6964207369676e6174757265000000000000000060448201526064016106ed565b6002816004811115611b2257611b2261230f565b03611b6f5760405162461bcd60e51b815260206004820152601f60248201527f45434453413a20696e76616c6964207369676e6174757265206c656e6774680060448201526064016106ed565b6003816004811115611b8357611b8361230f565b03611bdb5760405162461bcd60e51b815260206004820152602260248201527f45434453413a20696e76616c6964207369676e6174757265202773272076616c604482015261756560f01b60648201526084016106ed565b6004816004811115611bef57611bef61230f565b036111bd5760405162461bcd60e51b815260206004820152602260248201527f45434453413a20696e76616c6964207369676e6174757265202776272076616c604482015261756560f01b60648201526084016106ed565b6000808060001985870985870292508281108382030391505080600003611c8157838281611c7757611c77612393565b04925050506107d6565b808411611c8d57600080fd5b60008486880960026001871981018816978890046003810283188082028403028082028403028082028403028082028403028082028403029081029092039091026000889003889004909101858311909403939093029303949094049190911702949350505050565b6000611d4b826040518060400160405280602081526020017f5361666545524332303a206c6f772d6c6576656c2063616c6c206661696c6564815250856001600160a01b0316611dc89092919063ffffffff16565b80519091501561171e5780806020019051810190611d6991906125be565b61171e5760405162461bcd60e51b815260206004820152602a60248201527f5361666545524332303a204552433230206f7065726174696f6e20646964206e6044820152691bdd081cdd58d8d9595960b21b60648201526084016106ed565b6060610be38484600085856001600160a01b0385163b611e2a5760405162461bcd60e51b815260206004820152601d60248201527f416464726573733a2063616c6c20746f206e6f6e2d636f6e747261637400000060448201526064016106ed565b600080866001600160a01b03168587604051611e4691906125e0565b60006040518083038185875af1925050503d8060008114611e83576040519150601f19603f3d011682016040523d82523d6000602084013e611e88565b606091505b5091509150611e98828286611ea3565b979650505050505050565b60608315611eb25750816107d6565b825115611ec25782518084602001fd5b8160405162461bcd60e51b81526004016106ed9190611f00565b60005b83811015611ef7578181015183820152602001611edf565b50506000910152565b6020815260008251806020840152611f1f816040850160208701611edc565b601f01601f19169190910160400192915050565b600060208284031215611f4557600080fd5b5035919050565b80356001600160a01b0381168114611f6357600080fd5b919050565b60008060408385031215611f7b57600080fd5b611f8483611f4c565b946020939093013593505050565b634e487b7160e01b600052604160045260246000fd5b600082601f830112611fb957600080fd5b813567ffffffffffffffff80821115611fd457611fd4611f92565b604051601f8301601f19908116603f01168101908282118183101715611ffc57611ffc611f92565b8160405283815286602085880101111561201557600080fd5b836020870160208301376000602085830101528094505050505092915050565b6000806000806080858703121561204b57600080fd5b61205485611f4c565b935061206260208601611f4c565b9250604085013567ffffffffffffffff8082111561207f57600080fd5b61208b88838901611fa8565b935060608701359150808211156120a157600080fd5b506120ae87828801611fa8565b91505092959194509250565b6000806000606084860312156120cf57600080fd5b6120d884611f4c565b92506120e660208501611f4c565b9150604084013590509250925092565b60006020828403121561210857600080fd5b6107d682611f4c565b60006080828403121561212357600080fd5b6040516080810181811067ffffffffffffffff8211171561214657612146611f92565b8060405250809150823581526020830135602082015260408301356040820152606083013560608201525092915050565b803560ff81168114611f6357600080fd5b600080600080600061010086880312156121a157600080fd5b6121ab8787612111565b94506121b960808701611f4c565b93506121c760a08701612177565b9497939650939460c0810135945060e0013592915050565b600080604083850312156121f257600080fd5b8235915061220260208401611f4c565b90509250929050565b60008060006060848603121561222057600080fd5b8335925061223060208501611f4c565b915061223e60408501611f4c565b90509250925092565b600080600080600080600060e0888a03121561226257600080fd5b61226b88611f4c565b965061227960208901611f4c565b9550604088013594506060880135935061229560808901612177565b925060a0880135915060c0880135905092959891949750929550565b600080604083850312156122c457600080fd5b6122cd83611f4c565b915061220260208401611f4c565b600181811c908216806122ef57607f821691505b6020821081036115ef57634e487b7160e01b600052602260045260246000fd5b634e487b7160e01b600052602160045260246000fd5b602081016002831061234757634e487b7160e01b600052602160045260246000fd5b91905290565b60006020828403121561235f57600080fd5b5051919050565b634e487b7160e01b600052601160045260246000fd5b808202811582820484141761057457610574612366565b634e487b7160e01b600052601260045260246000fd5b6000826123c657634e487b7160e01b600052601260045260246000fd5b500490565b8082018082111561057457610574612366565b6001600160a01b0397881681529590961660208601526040850193909352606084019190915260ff16608083015260a082015260c081019190915260e00190565b6001600160a01b0384811682528316602082015260c08101610be36040830184805182526020810151602083015260408101516040830152606081015160608301525050565b6020808252602b908201527f496e697469616c697a61626c653a20636f6e7472616374206973206e6f74206960408201526a6e697469616c697a696e6760a81b606082015260800190565b601f82111561171e57600081815260208120601f850160051c810160208610156124d75750805b601f850160051c820191505b818110156124f6578281556001016124e3565b505050505050565b815167ffffffffffffffff81111561251857612518611f92565b61252c8161252684546122db565b846124b0565b602080601f83116001811461256157600084156125495750858301515b600019600386901b1c1916600185901b1785556124f6565b600085815260208120601f198616915b8281101561259057888601518255948401946001909101908401612571565b50858210156125ae5787850151600019600388901b60f8161c191681555b5050505050600190811b01905550565b6000602082840312156125d057600080fd5b815180151581146107d657600080fd5b600082516125f2818460208701611edc565b919091019291505056fea264697066735822122099fd946141d5c51cd747fb4c44b9119cd35908d41ec08e9aaf4722d47068b3f064736f6c63430008150033",
    "linkReferences": {}
  },
  "methodIdentifiers": {
    "DOMAIN_SEPARATOR()": "3644e515",
    "allowance(address,address)": "dd62ed3e",
    "approve(address,uint256)": "095ea7b3",
    "asset()": "38d52e0f",
    "balanceOf(address)": "70a08231",
    "burn((uint256,uint256,uint256,uint256),address,uint8,bytes32,bytes32)": "4f4fc131",
    "convertToAssets(uint256)": "07a2d13a",
    "convertToShares(uint256)": "c6e6f592",
    "convertToUnderlying(uint256)": "1dc7f521",
    "decimals()": "313ce567",
    "decreaseAllowance(address,uint256)": "a457c2d7",
    "deposit(uint256,address)": "6e553f65",
    "increaseAllowance(address,uint256)": "39509351",
    "initialize(address,address,string,string)": "2016a0d2",
    "maxDeposit(address)": "402d267d",
    "maxMint(address)": "c63d75b6",
    "maxRedeem(address)": "d905777e",
    "maxWithdraw(address)": "ce96cb77",
    "mint((uint256,uint256,uint256,uint256),address,uint8,bytes32,bytes32)": "d9373612",
    "mint(uint256,address)": "94bf804d",
    "name()": "06fdde03",
    "nonces(address)": "7ecebe00",
    "permit(address,address,uint256,uint256,uint8,bytes32,bytes32)": "d505accf",
    "previewDeposit(uint256)": "ef8b30f7",
    "previewMint(uint256)": "b3d7f6b9",
    "previewRedeem(uint256)": "4cdad506",
    "previewWithdraw(uint256)": "0a28a477",
    "redeem(uint256,address,address)": "ba087652",
    "sharesOf(address)": "f5eb42dc",
    "symbol()": "95d89b41",
    "totalAssets()": "01e1d114",
    "totalShares()": "3a98ef39",
    "totalSupply()": "18160ddd",
    "transfer(address,uint256)": "a9059cbb",
    "transferFrom(address,address,uint256)": "23b872dd",
    "withdraw(uint256,address,address)": "b460af94"
  },
  "storageLayout": {
    "storage": [
      {
        "astId": 35144,
        "contract": "contracts/ozToken4.sol:ozToken4",
        "label": "_initialized",
        "offset": 0,
        "slot": "0",
        "type": "t_uint8"
      },
      {
        "astId": 35147,
        "contract": "contracts/ozToken4.sol:ozToken4",
        "label": "_initializing",
        "offset": 1,
        "slot": "0",
        "type": "t_bool"
      },
      {
        "astId": 37201,
        "contract": "contracts/ozToken4.sol:ozToken4",
        "label": "__gap",
        "offset": 0,
        "slot": "1",
        "type": "t_array(t_uint256)50_storage"
      },
      {
        "astId": 35307,
        "contract": "contracts/ozToken4.sol:ozToken4",
        "label": "_balances",
        "offset": 0,
        "slot": "51",
        "type": "t_mapping(t_address,t_uint256)"
      },
      {
        "astId": 35313,
        "contract": "contracts/ozToken4.sol:ozToken4",
        "label": "_allowances",
        "offset": 0,
        "slot": "52",
        "type": "t_mapping(t_address,t_mapping(t_address,t_uint256))"
      },
      {
        "astId": 35315,
        "contract": "contracts/ozToken4.sol:ozToken4",
        "label": "_totalSupply",
        "offset": 0,
        "slot": "53",
        "type": "t_uint256"
      },
      {
        "astId": 35317,
        "contract": "contracts/ozToken4.sol:ozToken4",
        "label": "_name",
        "offset": 0,
        "slot": "54",
        "type": "t_string_storage"
      },
      {
        "astId": 35319,
        "contract": "contracts/ozToken4.sol:ozToken4",
        "label": "_symbol",
        "offset": 0,
        "slot": "55",
        "type": "t_string_storage"
      },
      {
        "astId": 35898,
        "contract": "contracts/ozToken4.sol:ozToken4",
        "label": "__gap",
        "offset": 0,
        "slot": "56",
        "type": "t_array(t_uint256)45_storage"
      },
      {
        "astId": 35998,
        "contract": "contracts/ozToken4.sol:ozToken4",
        "label": "_asset",
        "offset": 0,
        "slot": "101",
        "type": "t_contract(IERC20MetadataUpgradeable)36600"
      },
      {
        "astId": 36574,
        "contract": "contracts/ozToken4.sol:ozToken4",
        "label": "__gap",
        "offset": 0,
        "slot": "102",
        "type": "t_array(t_uint256)49_storage"
      },
      {
        "astId": 37899,
        "contract": "contracts/ozToken4.sol:ozToken4",
        "label": "_HASHED_NAME",
        "offset": 0,
        "slot": "151",
        "type": "t_bytes32"
      },
      {
        "astId": 37901,
        "contract": "contracts/ozToken4.sol:ozToken4",
        "label": "_HASHED_VERSION",
        "offset": 0,
        "slot": "152",
        "type": "t_bytes32"
      },
      {
        "astId": 38039,
        "contract": "contracts/ozToken4.sol:ozToken4",
        "label": "__gap",
        "offset": 0,
        "slot": "153",
        "type": "t_array(t_uint256)50_storage"
      },
      {
        "astId": 5222,
        "contract": "contracts/ozToken4.sol:ozToken4",
        "label": "s",
        "offset": 0,
        "slot": "203",
        "type": "t_struct(AppStorage)51_storage"
      },
      {
        "astId": 5224,
        "contract": "contracts/ozToken4.sol:ozToken4",
        "label": "_ozDiamond",
        "offset": 0,
        "slot": "224",
        "type": "t_address"
      },
      {
        "astId": 5229,
        "contract": "contracts/ozToken4.sol:ozToken4",
        "label": "_totalShares",
        "offset": 0,
        "slot": "225",
        "type": "t_uint256"
      },
      {
        "astId": 5231,
        "contract": "contracts/ozToken4.sol:ozToken4",
        "label": "_totalAssets",
        "offset": 0,
        "slot": "226",
        "type": "t_uint256"
      },
      {
        "astId": 5235,
        "contract": "contracts/ozToken4.sol:ozToken4",
        "label": "_shares",
        "offset": 0,
        "slot": "227",
        "type": "t_mapping(t_address,t_uint256)"
      },
      {
        "astId": 5240,
        "contract": "contracts/ozToken4.sol:ozToken4",
        "label": "_nonces",
        "offset": 0,
        "slot": "228",
        "type": "t_mapping(t_address,t_struct(Counter)37208_storage)"
      },
      {
        "astId": 6055,
        "contract": "contracts/ozToken4.sol:ozToken4",
        "label": "__gap",
        "offset": 0,
        "slot": "229",
        "type": "t_array(t_uint256)42_storage"
      }
    ],
    "types": {
      "t_address": {
        "encoding": "inplace",
        "label": "address",
        "numberOfBytes": "20"
      },
      "t_array(t_address)dyn_storage": {
        "encoding": "dynamic_array",
        "label": "address[]",
        "numberOfBytes": "32",
        "base": "t_address"
      },
      "t_array(t_uint256)42_storage": {
        "encoding": "inplace",
        "label": "uint256[42]",
        "numberOfBytes": "1344",
        "base": "t_uint256"
      },
      "t_array(t_uint256)45_storage": {
        "encoding": "inplace",
        "label": "uint256[45]",
        "numberOfBytes": "1440",
        "base": "t_uint256"
      },
      "t_array(t_uint256)49_storage": {
        "encoding": "inplace",
        "label": "uint256[49]",
        "numberOfBytes": "1568",
        "base": "t_uint256"
      },
      "t_array(t_uint256)50_storage": {
        "encoding": "inplace",
        "label": "uint256[50]",
        "numberOfBytes": "1600",
        "base": "t_uint256"
      },
      "t_bool": {
        "encoding": "inplace",
        "label": "bool",
        "numberOfBytes": "1"
      },
      "t_bytes32": {
        "encoding": "inplace",
        "label": "bytes32",
        "numberOfBytes": "32"
      },
      "t_contract(IERC20MetadataUpgradeable)36600": {
        "encoding": "inplace",
        "label": "contract IERC20MetadataUpgradeable",
        "numberOfBytes": "20"
      },
      "t_mapping(t_address,t_address)": {
        "encoding": "mapping",
        "key": "t_address",
        "label": "mapping(address => address)",
        "numberOfBytes": "32",
        "value": "t_address"
      },
      "t_mapping(t_address,t_mapping(t_address,t_uint256))": {
        "encoding": "mapping",
        "key": "t_address",
        "label": "mapping(address => mapping(address => uint256))",
        "numberOfBytes": "32",
        "value": "t_mapping(t_address,t_uint256)"
      },
      "t_mapping(t_address,t_struct(Counter)37208_storage)": {
        "encoding": "mapping",
        "key": "t_address",
        "label": "mapping(address => struct CountersUpgradeable.Counter)",
        "numberOfBytes": "32",
        "value": "t_struct(Counter)37208_storage"
      },
      "t_mapping(t_address,t_uint256)": {
        "encoding": "mapping",
        "key": "t_address",
        "label": "mapping(address => uint256)",
        "numberOfBytes": "32",
        "value": "t_uint256"
      },
      "t_string_storage": {
        "encoding": "bytes",
        "label": "string",
        "numberOfBytes": "32"
      },
      "t_struct(AppStorage)51_storage": {
        "encoding": "inplace",
        "label": "struct AppStorage",
        "numberOfBytes": "672",
        "members": [
          {
            "astId": 7,
            "contract": "contracts/ozToken4.sol:ozToken4",
            "label": "ozTokenRegistry",
            "offset": 0,
            "slot": "0",
            "type": "t_array(t_address)dyn_storage"
          },
          {
            "astId": 9,
            "contract": "contracts/ozToken4.sol:ozToken4",
            "label": "ozDiamond",
            "offset": 0,
            "slot": "1",
            "type": "t_address"
          },
          {
            "astId": 11,
            "contract": "contracts/ozToken4.sol:ozToken4",
            "label": "WETH",
            "offset": 0,
            "slot": "2",
            "type": "t_address"
          },
          {
            "astId": 13,
            "contract": "contracts/ozToken4.sol:ozToken4",
            "label": "USDC",
            "offset": 0,
            "slot": "3",
            "type": "t_address"
          },
          {
            "astId": 15,
            "contract": "contracts/ozToken4.sol:ozToken4",
            "label": "USDT",
            "offset": 0,
            "slot": "4",
            "type": "t_address"
          },
          {
            "astId": 17,
            "contract": "contracts/ozToken4.sol:ozToken4",
            "label": "swapRouterUni",
            "offset": 0,
            "slot": "5",
            "type": "t_address"
          },
          {
            "astId": 19,
            "contract": "contracts/ozToken4.sol:ozToken4",
            "label": "ethUsdChainlink",
            "offset": 0,
            "slot": "6",
            "type": "t_address"
          },
          {
            "astId": 21,
            "contract": "contracts/ozToken4.sol:ozToken4",
            "label": "defaultSlippage",
            "offset": 0,
            "slot": "7",
            "type": "t_uint256"
          },
          {
            "astId": 23,
            "contract": "contracts/ozToken4.sol:ozToken4",
            "label": "vaultBalancer",
            "offset": 0,
            "slot": "8",
            "type": "t_address"
          },
          {
            "astId": 25,
            "contract": "contracts/ozToken4.sol:ozToken4",
            "label": "queriesBalancer",
            "offset": 0,
            "slot": "9",
            "type": "t_address"
          },
          {
            "astId": 27,
            "contract": "contracts/ozToken4.sol:ozToken4",
            "label": "rETH",
            "offset": 0,
            "slot": "10",
            "type": "t_address"
          },
          {
            "astId": 29,
            "contract": "contracts/ozToken4.sol:ozToken4",
            "label": "rEthWethPoolBalancer",
            "offset": 0,
            "slot": "11",
            "type": "t_address"
          },
          {
            "astId": 31,
            "contract": "contracts/ozToken4.sol:ozToken4",
            "label": "rEthEthChainlink",
            "offset": 0,
            "slot": "12",
            "type": "t_address"
          },
          {
            "astId": 35,
            "contract": "contracts/ozToken4.sol:ozToken4",
            "label": "ozTokens",
            "offset": 0,
            "slot": "13",
            "type": "t_mapping(t_address,t_address)"
          },
          {
            "astId": 38,
            "contract": "contracts/ozToken4.sol:ozToken4",
            "label": "ozTokensArr",
            "offset": 0,
            "slot": "14",
            "type": "t_array(t_address)dyn_storage"
          },
          {
            "astId": 40,
            "contract": "contracts/ozToken4.sol:ozToken4",
            "label": "rewardMultiplier",
            "offset": 0,
            "slot": "15",
            "type": "t_uint256"
          },
          {
            "astId": 42,
            "contract": "contracts/ozToken4.sol:ozToken4",
            "label": "ozBeacon",
            "offset": 0,
            "slot": "16",
            "type": "t_address"
          },
          {
            "astId": 44,
            "contract": "contracts/ozToken4.sol:ozToken4",
            "label": "rocketPoolStorage",
            "offset": 0,
            "slot": "17",
            "type": "t_address"
          },
          {
            "astId": 46,
            "contract": "contracts/ozToken4.sol:ozToken4",
            "label": "rocketDepositPoolID",
            "offset": 0,
            "slot": "18",
            "type": "t_bytes32"
          },
          {
            "astId": 48,
            "contract": "contracts/ozToken4.sol:ozToken4",
            "label": "rocketVault",
            "offset": 0,
            "slot": "19",
            "type": "t_address"
          },
          {
            "astId": 50,
            "contract": "contracts/ozToken4.sol:ozToken4",
            "label": "rocketDAOProtocolSettingsDepositID",
            "offset": 0,
            "slot": "20",
            "type": "t_bytes32"
          }
        ]
      },
      "t_struct(Counter)37208_storage": {
        "encoding": "inplace",
        "label": "struct CountersUpgradeable.Counter",
        "numberOfBytes": "32",
        "members": [
          {
            "astId": 37207,
            "contract": "contracts/ozToken4.sol:ozToken4",
            "label": "_value",
            "offset": 0,
            "slot": "0",
            "type": "t_uint256"
          }
        ]
      },
      "t_uint256": {
        "encoding": "inplace",
        "label": "uint256",
        "numberOfBytes": "32"
      },
      "t_uint8": {
        "encoding": "inplace",
        "label": "uint8",
        "numberOfBytes": "1"
      }
    }
  },
  "id": 31
}