{"abi":[{"type":"function","name":"queryDeposit","inputs":[{"name":"index","type":"uint256","internalType":"uint256"}],"outputs":[{"name":"sum","type":"uint256","internalType":"uint256"}],"stateMutability":"view"},{"type":"function","name":"queryFactor","inputs":[{"name":"user","type":"address","internalType":"address"},{"name":"index","type":"uint256","internalType":"uint256"}],"outputs":[{"name":"sum","type":"uint256","internalType":"uint256"}],"stateMutability":"view"},{"type":"function","name":"updateDeposit","inputs":[{"name":"index","type":"uint256","internalType":"uint256"},{"name":"value","type":"uint256","internalType":"uint256"}],"outputs":[],"stateMutability":"nonpayable"},{"type":"function","name":"updateFactor","inputs":[{"name":"user","type":"address","internalType":"address"},{"name":"index","type":"uint256","internalType":"uint256"},{"name":"value","type":"uint256","internalType":"uint256"}],"outputs":[],"stateMutability":"nonpayable"}],"bytecode":{"object":"0x608060405234801561000f575f80fd5b5061080a8061001d5f395ff3fe608060405234801561000f575f80fd5b506004361061004a575f3560e01c80631d10faf61461004e578063935feaa514610063578063b72d91b214610088578063c967c8fe1461009b575b5f80fd5b61006161005c366004610640565b6100ae565b005b610076610071366004610660565b610299565b60405190815260200160405180910390f35b610076610096366004610692565b61046e565b6100616100a93660046106ba565b6104f9565b5f821180156100bf57506041548211155b6100e45760405162461bcd60e51b81526004016100db906106ea565b60405180910390fd5b60415482905b808211610133575f828152603f60205260408120805485929061010e90849061072b565b9091555061012090508219600161072b565b61012c9083168361072b565b91506100ea565b61014a60405180602001604052805f815250610591565b6101886040518060400160405280601881526020017f2d2d2d20696e207570646174654465706f736974202d2d2d0000000000000000815250610591565b6101d360405180604001604052806016815260200175039973232b837b9b4ba2a3932b2adb4b73232bc2e9d160551b8152505f603f015f8781526020019081526020015f20546105d7565b6102256040518060400160405280601b81526020017f732e6465706f736974547265655b6c6f63616c496e6465785d3a2000000000008152505f603f015f8581526020019081526020015f20546105d7565b61024e60405180604001604052806007815260200166034b73232bc1d160cd1b815250856105d7565b61027c6040518060400160405280600c81526020016b03637b1b0b624b73232bc1d160a51b815250836105d7565b61029360405180602001604052805f815250610591565b50505050565b5f80821180156102ab57506041548211155b6102c75760405162461bcd60e51b81526004016100db906106ea565b815b8015610308575f818152603f60205260409020546102e7908361072b565b91506102f58119600161072b565b61030190821682610744565b90506102c9565b61031f60405180602001604052805f815250610591565b61035d6040518060400160405280601781526020017f2d2d2d20696e2071756572794465706f736974202d2d2d000000000000000000815250610591565b6103a860405180604001604052806016815260200175039973232b837b9b4ba2a3932b2adb4b73232bc2e9d160551b8152505f603f015f8681526020019081526020015f20546105d7565b6103fa6040518060400160405280601b81526020017f732e6465706f736974547265655b6c6f63616c496e6465785d3a2000000000008152505f603f015f8481526020019081526020015f20546105d7565b61042360405180604001604052806007815260200166034b73232bc1d160cd1b815250846105d7565b6104516040518060400160405280600c81526020016b03637b1b0b624b73232bc1d160a51b815250826105d7565b61046860405180602001604052805f815250610591565b50919050565b5f808211801561048057506041548211155b61049c5760405162461bcd60e51b81526004016100db906106ea565b815b80156104f2576001600160a01b0384165f908152603e602090815260408083208484529091529020546104d1908361072b565b91506104df8119600161072b565b6104eb90821682610744565b905061049e565b5092915050565b5f8211801561050a57506041548211155b6105265760405162461bcd60e51b81526004016100db906106ea565b60415482905b80821161058a576001600160a01b0385165f908152603e602090815260408083208584529091528120805485929061056590849061072b565b9091555061057790508219600161072b565b6105839083168361072b565b915061052c565b5050505050565b6105d4816040516024016105a5919061079a565b60408051601f198184030181529190526020810180516001600160e01b031663104c13eb60e21b179052610620565b50565b61061c82826040516024016105ed9291906107b3565b60408051601f198184030181529190526020810180516001600160e01b03166309710a9d60e41b179052610620565b5050565b80516a636f6e736f6c652e6c6f67602083015f808483855afa5050505050565b5f8060408385031215610651575f80fd5b50508035926020909101359150565b5f60208284031215610670575f80fd5b5035919050565b80356001600160a01b038116811461068d575f80fd5b919050565b5f80604083850312156106a3575f80fd5b6106ac83610677565b946020939093013593505050565b5f805f606084860312156106cc575f80fd5b6106d584610677565b95602085013595506040909401359392505050565b602080825260139082015272496e646578206f7574206f6620626f756e647360681b604082015260600190565b634e487b7160e01b5f52601160045260245ffd5b8082018082111561073e5761073e610717565b92915050565b8181038181111561073e5761073e610717565b5f81518084525f5b8181101561077b5760208185018101518683018201520161075f565b505f602082860101526020601f19601f83011685010191505092915050565b602081525f6107ac6020830184610757565b9392505050565b604081525f6107c56040830185610757565b9050826020830152939250505056fea2646970667358221220ea69801b1f732c357593bb4018c52b3846126f5253596dc43a3fb521026fe75d64736f6c63430008180033","linkReferences":{}},"methodIdentifiers":{"queryDeposit(uint256)":"935feaa5","queryFactor(address,uint256)":"b72d91b2","updateDeposit(uint256,uint256)":"1d10faf6","updateFactor(address,uint256,uint256)":"c967c8fe"},"id":16}