{"abi":[{"type":"constructor","inputs":[{"name":"_size","type":"uint256","internalType":"uint256"}],"stateMutability":"nonpayable"},{"type":"function","name":"addNumbers","inputs":[{"name":"maxNumber","type":"uint256","internalType":"uint256"}],"outputs":[],"stateMutability":"nonpayable"},{"type":"function","name":"query","inputs":[{"name":"index","type":"uint256","internalType":"uint256"}],"outputs":[{"name":"sum","type":"uint256","internalType":"uint256"}],"stateMutability":"view"},{"type":"function","name":"size","inputs":[],"outputs":[{"name":"","type":"uint256","internalType":"uint256"}],"stateMutability":"view"},{"type":"function","name":"sumFrom1ToMax","inputs":[{"name":"maxNumber","type":"uint256","internalType":"uint256"}],"outputs":[{"name":"","type":"uint256","internalType":"uint256"}],"stateMutability":"view"},{"type":"function","name":"tree","inputs":[{"name":"","type":"uint256","internalType":"uint256"}],"outputs":[{"name":"","type":"uint256","internalType":"uint256"}],"stateMutability":"view"},{"type":"function","name":"update","inputs":[{"name":"index","type":"uint256","internalType":"uint256"},{"name":"value","type":"uint256","internalType":"uint256"}],"outputs":[],"stateMutability":"nonpayable"}],"bytecode":{"object":"0x608060405234801561000f575f80fd5b5060405161038238038061038283398101604081905261002e91610035565b5f5561004c565b5f60208284031215610045575f80fd5b5051919050565b610329806100595f395ff3fe608060405234801561000f575f80fd5b5060043610610060575f3560e01c80632be55998146100645780632fb565e814610079578063313529361461008c578063949d225d146100bd578063a11f60a9146100c5578063afdac68d146100d8575b5f80fd5b61007761007236600461026a565b6100eb565b005b610077610087366004610281565b610115565b6100ab61009a36600461026a565b60016020525f908152604090205481565b60405190815260200160405180910390f35b6100ab5f5481565b6100ab6100d336600461026a565b6101c0565b6100ab6100e636600461026a565b6101d0565b60015b818111610111576100ff8182610115565b80610109816102b5565b9150506100ee565b5050565b5f8211801561012557505f548211155b61016c5760405162461bcd60e51b8152602060048201526013602482015272496e646578206f7574206f6620626f756e647360681b60448201526064015b60405180910390fd5b5f5482905b8082116101ba575f82815260016020526040812080548592906101959084906102cd565b909155506101a79050821960016102cd565b6101b3908316836102cd565b9150610171565b50505050565b5f6101ca826101d0565b92915050565b5f80821180156101e157505f548211155b6102235760405162461bcd60e51b8152602060048201526013602482015272496e646578206f7574206f6620626f756e647360681b6044820152606401610163565b815b8015610264575f8181526001602052604090205461024390836102cd565b9150610251811960016102cd565b61025d908216826102e0565b9050610225565b50919050565b5f6020828403121561027a575f80fd5b5035919050565b5f8060408385031215610292575f80fd5b50508035926020909101359150565b634e487b7160e01b5f52601160045260245ffd5b5f600182016102c6576102c66102a1565b5060010190565b808201808211156101ca576101ca6102a1565b818103818111156101ca576101ca6102a156fea2646970667358221220498fea3cbe74a7471e40f1a2fcab2511b64ad6a12ee733010b42169fca788dcd64736f6c63430008180033","linkReferences":{}},"methodIdentifiers":{"addNumbers(uint256)":"2be55998","query(uint256)":"afdac68d","size()":"949d225d","sumFrom1ToMax(uint256)":"a11f60a9","tree(uint256)":"31352936","update(uint256,uint256)":"2fb565e8"},"id":45}