{"abi":[{"type":"function","name":"queryDeposit","inputs":[{"name":"index","type":"uint256","internalType":"uint256"}],"outputs":[{"name":"sum","type":"uint256","internalType":"uint256"}],"stateMutability":"view"},{"type":"function","name":"queryFactor","inputs":[{"name":"user","type":"address","internalType":"address"},{"name":"index","type":"uint256","internalType":"uint256"}],"outputs":[{"name":"sum","type":"uint256","internalType":"uint256"}],"stateMutability":"view"},{"type":"function","name":"updateDeposit","inputs":[{"name":"index","type":"uint256","internalType":"uint256"},{"name":"value","type":"uint256","internalType":"uint256"}],"outputs":[],"stateMutability":"nonpayable"},{"type":"function","name":"updateFactor","inputs":[{"name":"user","type":"address","internalType":"address"},{"name":"index","type":"uint256","internalType":"uint256"},{"name":"value","type":"uint256","internalType":"uint256"}],"outputs":[],"stateMutability":"nonpayable"}],"bytecode":{"object":"0x608060405234801561000f575f80fd5b5061041e8061001d5f395ff3fe608060405234801561000f575f80fd5b506004361061004a575f3560e01c80631d10faf61461004e578063935feaa514610063578063b72d91b214610088578063c967c8fe1461009b575b5f80fd5b61006161005c3660046102d1565b6100ae565b005b6100766100713660046102f1565b610139565b60405190815260200160405180910390f35b610076610096366004610323565b6101ae565b6100616100a936600461034b565b610239565b5f821180156100bf57506041548211155b6100e45760405162461bcd60e51b81526004016100db9061037b565b60405180910390fd5b60415482905b808211610133575f828152603f60205260408120805485929061010e9084906103bc565b909155506101209050821960016103bc565b61012c908316836103bc565b91506100ea565b50505050565b5f808211801561014b57506041548211155b6101675760405162461bcd60e51b81526004016100db9061037b565b815b80156101a8575f818152603f602052604090205461018790836103bc565b9150610195811960016103bc565b6101a1908216826103d5565b9050610169565b50919050565b5f80821180156101c057506041548211155b6101dc5760405162461bcd60e51b81526004016100db9061037b565b815b8015610232576001600160a01b0384165f908152603e6020908152604080832084845290915290205461021190836103bc565b915061021f811960016103bc565b61022b908216826103d5565b90506101de565b5092915050565b5f8211801561024a57506041548211155b6102665760405162461bcd60e51b81526004016100db9061037b565b60415482905b8082116102ca576001600160a01b0385165f908152603e60209081526040808320858452909152812080548592906102a59084906103bc565b909155506102b79050821960016103bc565b6102c3908316836103bc565b915061026c565b5050505050565b5f80604083850312156102e2575f80fd5b50508035926020909101359150565b5f60208284031215610301575f80fd5b5035919050565b80356001600160a01b038116811461031e575f80fd5b919050565b5f8060408385031215610334575f80fd5b61033d83610308565b946020939093013593505050565b5f805f6060848603121561035d575f80fd5b61036684610308565b95602085013595506040909401359392505050565b602080825260139082015272496e646578206f7574206f6620626f756e647360681b604082015260600190565b634e487b7160e01b5f52601160045260245ffd5b808201808211156103cf576103cf6103a8565b92915050565b818103818111156103cf576103cf6103a856fea26469706673582212204761b60b8bb1ba4e02df02ef3066e7193be33704362a2a2d03ae96d4041500f564736f6c63430008180033","linkReferences":{}},"methodIdentifiers":{"queryDeposit(uint256)":"935feaa5","queryFactor(address,uint256)":"b72d91b2","updateDeposit(uint256,uint256)":"1d10faf6","updateFactor(address,uint256,uint256)":"c967c8fe"},"id":16}