{
  "abi": [
    {
      "inputs": [
        {
          "internalType": "string",
          "name": "errorMsg",
          "type": "string"
        }
      ],
      "name": "OZError01",
      "type": "error"
    },
    {
      "inputs": [],
      "name": "OZError02",
      "type": "error"
    },
    {
      "inputs": [
        {
          "internalType": "string",
          "name": "errorCode",
          "type": "string"
        }
      ],
      "name": "OZError10",
      "type": "error"
    },
    {
      "inputs": [
        {
          "internalType": "address",
          "name": "owner_",
          "type": "address"
        },
        {
          "internalType": "bytes",
          "name": "data_",
          "type": "bytes"
        }
      ],
      "name": "useOzTokens",
      "outputs": [
        {
          "internalType": "uint256",
          "name": "amountOut",
          "type": "uint256"
        }
      ],
      "stateMutability": "nonpayable",
      "type": "function"
    },
    {
      "inputs": [
        {
          "internalType": "address",
          "name": "underlying_",
          "type": "address"
        },
        {
          "internalType": "address",
          "name": "owner_",
          "type": "address"
        },
        {
          "components": [
            {
              "internalType": "uint256",
              "name": "amountIn",
              "type": "uint256"
            },
            {
              "internalType": "uint256",
              "name": "minWethOut",
              "type": "uint256"
            },
            {
              "internalType": "uint256",
              "name": "minRethOut",
              "type": "uint256"
            }
          ],
          "internalType": "struct AmountsIn",
          "name": "amounts_",
          "type": "tuple"
        }
      ],
      "name": "useUnderlying",
      "outputs": [],
      "stateMutability": "nonpayable",
      "type": "function"
    }
  ],
  "bytecode": {
    "object": "0x608060405234801561001057600080fd5b506113ce806100206000396000f3fe608060405234801561001057600080fd5b50600436106100365760003560e01c8063a1b86b381461003b578063b50f68fd14610060575b600080fd5b61004e610049366004610d7e565b610075565b60405190815260200160405180910390f35b61007361006e366004610e2a565b6101ed565b005b60006100aa60405180604001604052806011815260200170039b2b73232b91034b7103ab9b2a7bd1d1607d1b815250336103c6565b6000806000806000868060200190518101906100c69190610ebe565b9398509196509450925090506100de3389308861040f565b600b546003546100fc916001600160a01b039081169116868661051e565b600354604080516338d52e0f60e01b815290516101e1926001600160a01b03169133916338d52e0f916004808201926020929091908290030181865afa15801561014a573d6000803e3d6000fd5b505050506040513d601f19601f8201168201806040525081019061016e9190610f0b565b6003546040516370a0823160e01b81523060048201526001600160a01b03909116906370a0823190602401602060405180830381865afa1580156101b6573d6000803e3d6000fd5b505050506040513d601f19601f820116820180604052508101906101da9190610f2f565b85856105b6565b98975050505050505050565b61022360405180604001604052806014815260200173039b2b73232b91034b7103ab9b2aab73232b91d160651b815250336103c6565b805161023a6001600160a01b03851684308461040f565b600354602083015160009161025d9187916001600160a01b0316908590306105b6565b905061026881610752565b1561039b57600354604051632e1a7d4d60e01b8152600481018390526001600160a01b0390911690632e1a7d4d90602401600060405180830381600087803b1580156102b357600080fd5b505af11580156102c7573d6000803e3d6000fd5b50506011546012546040516321f8a72160e01b81526004810191909152600093506001600160a01b0390911691506321f8a72190602401602060405180830381865afa15801561031b573d6000803e3d6000fd5b505050506040513d601f19601f8201168201806040525081019061033f9190610f0b565b9050806001600160a01b031663d0e30db0836040518263ffffffff1660e01b81526004016000604051808303818588803b15801561037c57600080fd5b505af1158015610390573d6000803e3d6000fd5b5050505050506103bf565b600354600b5460408501516103bf926001600160a01b03908116921690849061051e565b5050505050565b61040b82826040516024016103dc929190610f98565b60408051601f198184030181529190526020810180516001600160e01b031663319af33360e01b1790526108e1565b5050565b604080516001600160a01b0385811660248301528481166044830152606480830185905283518084039091018152608490920183526020820180516001600160e01b03166323b872dd60e01b17905291516000928392908816916104739190610fc2565b6000604051808303816000865af19150503d80600081146104b0576040519150601f19603f3d011682016040523d82523d6000602084013e6104b5565b606091505b50915091508180156104df5750805115806104df5750808060200190518101906104df9190610ff3565b6105165760405162461bcd60e51b815260206004820152600360248201526229aa2360e91b60448201526064015b60405180910390fd5b505050505050565b6000805460408051631c0de05160e01b815290516001600160a01b0390921691631c0de051916004808201926060929091908290030181865afa158015610569573d6000803e3d6000fd5b505050506040513d601f19601f8201168201806040525081019061058d919061100e565b5050905080156105aa576105a485858585306105b6565b506103bf565b6103bf85858585610902565b6006546000906105d3906001600160a01b03888116911686610b87565b60408051610100810182526001600160a01b038089168252878116602083015260155462ffffff1692820192909252908316606082015242608082015260a0810185905260009060c081016106288689610c80565b815260006020918201526006546040805163414bf38960e01b815284516001600160a01b03908116600483015293850151841660248201529084015162ffffff1660448201526060840151831660648201526080840151608482015260a084015160a482015260c084015160c482015260e0840151831660e4820152929350169063414bf38990610104016020604051808303816000875af19250505080156106ee575060408051601f3d908101601f191682019092526106eb91810190610f2f565b60015b610740576106fa611043565b806308c379a003610734575061070e61105f565b806107195750610736565b8060405163633abab960e01b815260040161050d91906110e9565b505b3d6000803e3d6000fd5b91506107499050565b95945050505050565b6013546040516335ee5f8760e01b81526020600482015260116024820152701c9bd8dad95d11195c1bdcda5d141bdbdb607a1b604482015260009182916001600160a01b03909116906335ee5f8790606401602060405180830381865afa1580156107c1573d6000803e3d6000fd5b505050506040513d601f19601f820116820180604052508101906107e59190610f2f565b905060006107f38483611112565b6011546014546040516321f8a72160e01b81529293506000926001600160a01b03909216916321f8a7219161082e9160040190815260200190565b602060405180830381865afa15801561084b573d6000803e3d6000fd5b505050506040513d601f19601f8201168201806040525081019061086f9190610f0b565b90506000816001600160a01b031663fd6ce89e6040518163ffffffff1660e01b8152600401602060405180830381865afa1580156108b1573d6000803e3d6000fd5b505050506040513d601f19601f820116820180604052508101906108d59190610f2f565b90921095945050505050565b80516a636f6e736f6c652e6c6f67602083016000808483855afa5050505050565b6040805160c081018083526000805463038fff2d60e41b909252925183929182916001600160a01b03909116906338fff2d09060c4808501916020918187030181865afa158015610957573d6000803e3d6000fd5b505050506040513d601f19601f8201168201806040525081019061097b9190610f2f565b8152602001600081526001600160a01b038089166020830152871660408201526060810186905260800160006040519080825280601f01601f1916602001820160405280156109d1576020820181803683370190505b5090526040805160808101825230808252600060208301819052828401919091526060820152600a54915163e969f6b360e01b8152929350916001600160a01b039091169063e969f6b390610a2c908590859060040161119a565b6020604051808303816000875af1925050508015610a67575060408051601f3d908101601f19168201909252610a6491810190610f2f565b60015b610aad57610a73611043565b806308c379a0036107345750610a8761105f565b80610a925750610736565b8060405163dafe91cd60e01b815260040161050d91906110e9565b6000818611610abc5781610abe565b855b6009546080860151919250610ae0916001600160a01b038c8116921690610b87565b6009546040516352bbbe2960e01b81526001600160a01b03909116906352bbbe2990610b169087908790869042906004016111ec565b6020604051808303816000875af1158015610b35573d6000803e3d6000fd5b505050506040513d601f19601f82011682018060405250810190610b599190610f2f565b9450505082600003610b7e57604051635eeb40ff60e11b815260040160405180910390fd5b50505050505050565b604080516001600160a01b038481166024830152604480830185905283518084039091018152606490920183526020820180516001600160e01b031663095ea7b360e01b1790529151600092839290871691610be39190610fc2565b6000604051808303816000865af19150503d8060008114610c20576040519150601f19603f3d011682016040523d82523d6000602084013e610c25565b606091505b5091509150818015610c4f575080511580610c4f575080806020019051810190610c4f9190610ff3565b6103bf5760405162461bcd60e51b8152602060048201526002602482015261534160f01b604482015260640161050d565b600080826001600160a01b031663313ce5676040518163ffffffff1660e01b8152600401602060405180830381865afa158015610cc1573d6000803e3d6000fd5b505050506040513d601f19601f82011682018060405250810190610ce59190611250565b60ff16905080601214610d1757610cfd816012611273565b610d0890600a61136a565b610d129085611376565b610d19565b835b9150505b92915050565b6001600160a01b0381168114610d3857600080fd5b50565b634e487b7160e01b600052604160045260246000fd5b601f8201601f1916810167ffffffffffffffff81118282101715610d7757610d77610d3b565b6040525050565b60008060408385031215610d9157600080fd5b8235610d9c81610d23565b915060208381013567ffffffffffffffff80821115610dba57600080fd5b818601915086601f830112610dce57600080fd5b813581811115610de057610de0610d3b565b6040519150610df8601f8201601f1916850183610d51565b8082528784828501011115610e0c57600080fd5b80848401858401376000848284010152508093505050509250929050565b600080600083850360a0811215610e4057600080fd5b8435610e4b81610d23565b93506020850135610e5b81610d23565b92506060603f1982011215610e6f57600080fd5b506040516060810181811067ffffffffffffffff82111715610e9357610e93610d3b565b8060405250604085013581526060850135602082015260808501356040820152809150509250925092565b600080600080600060a08688031215610ed657600080fd5b855194506020860151935060408601519250606086015191506080860151610efd81610d23565b809150509295509295909350565b600060208284031215610f1d57600080fd5b8151610f2881610d23565b9392505050565b600060208284031215610f4157600080fd5b5051919050565b60005b83811015610f63578181015183820152602001610f4b565b50506000910152565b60008151808452610f84816020860160208601610f48565b601f01601f19169290920160200192915050565b604081526000610fab6040830185610f6c565b905060018060a01b03831660208301529392505050565b60008251610fd4818460208701610f48565b9190910192915050565b80518015158114610fee57600080fd5b919050565b60006020828403121561100557600080fd5b610f2882610fde565b60008060006060848603121561102357600080fd5b61102c84610fde565b925060208401519150604084015190509250925092565b600060033d111561105c5760046000803e5060005160e01c5b90565b600060443d101561106d5790565b6040516003193d81016004833e81513d67ffffffffffffffff816024840111818411171561109d57505050505090565b82850191508151818111156110b55750505050505090565b843d87010160208285010111156110cf5750505050505090565b6110de60208286010187610d51565b509095945050505050565b602081526000610f286020830184610f6c565b634e487b7160e01b600052601160045260246000fd5b80820180821115610d1d57610d1d6110fc565b80518252600060208201516002811061114e57634e487b7160e01b600052602160045260246000fd5b80602085015250604082015160018060a01b03808216604086015280606085015116606086015250506080820151608084015260a082015160c060a0850152610d1960c0850182610f6c565b60a0815260006111ad60a0830185611125565b9050610f28602083018480516001600160a01b039081168352602080830151151590840152604080830151909116908301526060908101511515910152565b60e0815260006111ff60e0830187611125565b905061123e602083018680516001600160a01b039081168352602080830151151590840152604080830151909116908301526060908101511515910152565b60a082019390935260c0015292915050565b60006020828403121561126257600080fd5b815160ff81168114610f2857600080fd5b81810381811115610d1d57610d1d6110fc565b600181815b808511156112c15781600019048211156112a7576112a76110fc565b808516156112b457918102915b93841c939080029061128b565b509250929050565b6000826112d857506001610d1d565b816112e557506000610d1d565b81600181146112fb576002811461130557611321565b6001915050610d1d565b60ff841115611316576113166110fc565b50506001821b610d1d565b5060208310610133831016604e8410600b8410161715611344575081810a610d1d565b61134e8383611286565b8060001904821115611362576113626110fc565b029392505050565b6000610f2883836112c9565b60008261139357634e487b7160e01b600052601260045260246000fd5b50049056fea26469706673582212205a981dda9a38192a4690bf5d4e30feed042369323b337294ecf6f8a3fbcd542b64736f6c63430008150033",
    "linkReferences": {}
  },
  "methodIdentifiers": {
    "useOzTokens(address,bytes)": "a1b86b38",
    "useUnderlying(address,address,(uint256,uint256,uint256))": "b50f68fd"
  },
  "id": 8
}