{
  "abi": [
    {
      "inputs": [
        {
          "internalType": "string",
          "name": "errorMsg",
          "type": "string"
        }
      ],
      "name": "OZError01",
      "type": "error"
    },
    {
      "inputs": [],
      "name": "OZError02",
      "type": "error"
    },
    {
      "inputs": [
        {
          "internalType": "string",
          "name": "errorCode",
          "type": "string"
        }
      ],
      "name": "OZError10",
      "type": "error"
    },
    {
      "inputs": [
        {
          "internalType": "address",
          "name": "caller",
          "type": "address"
        }
      ],
      "name": "OZError13",
      "type": "error"
    },
    {
      "inputs": [
        {
          "internalType": "address",
          "name": "tokenIn_",
          "type": "address"
        },
        {
          "internalType": "address",
          "name": "tokenOut_",
          "type": "address"
        },
        {
          "internalType": "address",
          "name": "sender_",
          "type": "address"
        },
        {
          "internalType": "address",
          "name": "receiver_",
          "type": "address"
        },
        {
          "internalType": "uint256",
          "name": "amountIn_",
          "type": "uint256"
        },
        {
          "internalType": "uint256",
          "name": "minAmountOut_",
          "type": "uint256"
        }
      ],
      "name": "useOZL",
      "outputs": [],
      "stateMutability": "nonpayable",
      "type": "function"
    },
    {
      "inputs": [
        {
          "internalType": "address",
          "name": "owner_",
          "type": "address"
        },
        {
          "internalType": "bytes",
          "name": "data_",
          "type": "bytes"
        }
      ],
      "name": "useOzTokens",
      "outputs": [
        {
          "internalType": "uint256",
          "name": "amountOut",
          "type": "uint256"
        }
      ],
      "stateMutability": "nonpayable",
      "type": "function"
    },
    {
      "inputs": [
        {
          "internalType": "address",
          "name": "underlying_",
          "type": "address"
        },
        {
          "internalType": "address",
          "name": "owner_",
          "type": "address"
        },
        {
          "components": [
            {
              "internalType": "uint256",
              "name": "amountIn",
              "type": "uint256"
            },
            {
              "internalType": "uint256",
              "name": "minWethOut",
              "type": "uint256"
            },
            {
              "internalType": "uint256",
              "name": "minRethOut",
              "type": "uint256"
            }
          ],
          "internalType": "struct AmountsIn",
          "name": "amounts_",
          "type": "tuple"
        }
      ],
      "name": "useUnderlying",
      "outputs": [],
      "stateMutability": "nonpayable",
      "type": "function"
    }
  ],
  "bytecode": {
    "object": "0x608060405234801561001057600080fd5b50611ab4806100206000396000f3fe608060405234801561001057600080fd5b50600436106100415760003560e01c806350d5d8cc14610046578063a1b86b381461005b578063b50f68fd14610080575b600080fd5b610059610054366004611391565b610093565b005b61006e610069366004611442565b61030a565b60405190815260200160405180910390f35b61005961008e3660046114ee565b610484565b6100c760405180604001604052806012815260200171039b2b73232b91034b7103ab9b2a7ad261d160751b81525033610659565b6100f86040518060400160405280600f81526020016e030b2323932b9b9943a3434b9949d1608d1b81525030610659565b604080518082018252601881527f724554482062616c2073656e64657220696e207573653a200000000000000000602082015290516370a0823160e01b815233600482015261019c91906001600160a01b038916906370a0823190602401602060405180830381865afa158015610173573d6000803e3d6000fd5b505050506040513d601f19601f820116820180604052508101906101979190611582565b6106a2565b600854604051636eb1769f60e11b81523360048201526001600160a01b03918216602482015260009188169063dd62ed3e90604401602060405180830381865afa1580156101ee573d6000803e3d6000fd5b505050506040513d601f19601f820116820180604052508101906102129190611582565b90506102426040518060400160405280600c81526020016b030b63637bbb0b731b2b29d160a51b815250826106a2565b60035461025d9088906001600160a01b0316878087876106e7565b61028760405180604001604052806009815260200168676f6f64206865726560b81b81525061078a565b6003546040516370a0823160e01b8152306004820152610300916001600160a01b031690889082906370a0823190602401602060405180830381865afa1580156102d5573d6000803e3d6000fd5b505050506040513d601f19601f820116820180604052508101906102f99190611582565b85886107d0565b5050505050505050565b3360009081526015602052604081205460ff166103415760405163a43f931360e01b81523360048201526024015b60405180910390fd5b60008060008060008680602001905181019061035d919061159b565b9398509196509450925090506103753389308861096c565b600a54600354610393916001600160a01b0390811691168686610a76565b600354604080516338d52e0f60e01b81529051610478926001600160a01b03169133916338d52e0f916004808201926020929091908290030181865afa1580156103e1573d6000803e3d6000fd5b505050506040513d601f19601f8201168201806040525081019061040591906115e8565b6003546040516370a0823160e01b81523060048201526001600160a01b03909116906370a0823190602401602060405180830381865afa15801561044d573d6000803e3d6000fd5b505050506040513d601f19601f820116820180604052508101906104719190611582565b85856107d0565b98975050505050505050565b3360009081526015602052604090205460ff166104b65760405163a43f931360e01b8152336004820152602401610338565b80516104cd6001600160a01b03851684308461096c565b60035460208301516000916104f09187916001600160a01b0316908590306107d0565b90506104fb81610b0e565b1561062e57600354604051632e1a7d4d60e01b8152600481018390526001600160a01b0390911690632e1a7d4d90602401600060405180830381600087803b15801561054657600080fd5b505af115801561055a573d6000803e3d6000fd5b50506010546011546040516321f8a72160e01b81526004810191909152600093506001600160a01b0390911691506321f8a72190602401602060405180830381865afa1580156105ae573d6000803e3d6000fd5b505050506040513d601f19601f820116820180604052508101906105d291906115e8565b9050806001600160a01b031663d0e30db0836040518263ffffffff1660e01b81526004016000604051808303818588803b15801561060f57600080fd5b505af1158015610623573d6000803e3d6000fd5b505050505050610652565b600354600a546040850151610652926001600160a01b039081169216908490610a76565b5050505050565b61069e828260405160240161066f92919061165c565b60408051601f198184030181529190526020810180516001600160e01b031663319af33360e01b179052610c9d565b5050565b61069e82826040516024016106b8929190611686565b60408051601f198184030181529190526020810180516001600160e01b03166309710a9d60e41b179052610c9d565b6000805460408051631c0de05160e01b815290516001600160a01b0390921691631c0de051916004808201926060929091908290030181865afa158015610732573d6000803e3d6000fd5b505050506040513d601f19601f8201168201806040525081019061075691906116bd565b5050905080156107735761076d87878585886107d0565b50610781565b610781878787878787610cbe565b50505050505050565b6107cd8160405160240161079e91906116f2565b60408051601f198184030181529190526020810180516001600160e01b031663104c13eb60e21b179052610c9d565b50565b6006546000906107ed906001600160a01b03888116911686610f59565b60408051610100810182526001600160a01b038089168252878116602083015260145462ffffff1692820192909252908316606082015242608082015260a0810185905260009060c081016108428689611052565b815260006020918201526006546040805163414bf38960e01b815284516001600160a01b03908116600483015293850151841660248201529084015162ffffff1660448201526060840151831660648201526080840151608482015260a084015160a482015260c084015160c482015260e0840151831660e4820152929350169063414bf38990610104016020604051808303816000875af1925050508015610908575060408051601f3d908101601f1916820190925261090591810190611582565b60015b61095a57610914611705565b806308c379a00361094e5750610928611721565b806109335750610950565b8060405163633abab960e01b815260040161033891906116f2565b505b3d6000803e3d6000fd5b91506109639050565b95945050505050565b604080516001600160a01b0385811660248301528481166044830152606480830185905283518084039091018152608490920183526020820180516001600160e01b03166323b872dd60e01b17905291516000928392908816916109d091906117ab565b6000604051808303816000865af19150503d8060008114610a0d576040519150601f19603f3d011682016040523d82523d6000602084013e610a12565b606091505b5091509150818015610a3c575080511580610a3c575080806020019051810190610a3c91906117c7565b610a6e5760405162461bcd60e51b815260206004820152600360248201526229aa2360e91b6044820152606401610338565b505050505050565b6000805460408051631c0de05160e01b815290516001600160a01b0390921691631c0de051916004808201926060929091908290030181865afa158015610ac1573d6000803e3d6000fd5b505050506040513d601f19601f82011682018060405250810190610ae591906116bd565b505090508015610b0257610afc85858585306107d0565b50610652565b610652858585856110f5565b6012546040516335ee5f8760e01b81526020600482015260116024820152701c9bd8dad95d11195c1bdcda5d141bdbdb607a1b604482015260009182916001600160a01b03909116906335ee5f8790606401602060405180830381865afa158015610b7d573d6000803e3d6000fd5b505050506040513d601f19601f82011682018060405250810190610ba19190611582565b90506000610baf84836117f8565b6010546013546040516321f8a72160e01b81529293506000926001600160a01b03909216916321f8a72191610bea9160040190815260200190565b602060405180830381865afa158015610c07573d6000803e3d6000fd5b505050506040513d601f19601f82011682018060405250810190610c2b91906115e8565b90506000816001600160a01b031663fd6ce89e6040518163ffffffff1660e01b8152600401602060405180830381865afa158015610c6d573d6000803e3d6000fd5b505050506040513d601f19601f82011682018060405250810190610c919190611582565b90921095945050505050565b80516a636f6e736f6c652e6c6f67602083016000808483855afa5050505050565b6040805160c081018083526000805463038fff2d60e41b909252925183929182916001600160a01b03909116906338fff2d09060c4808501916020918187030181865afa158015610d13573d6000803e3d6000fd5b505050506040513d601f19601f82011682018060405250810190610d379190611582565b8152602001600081526001600160a01b03808b166020830152891660408201526060810186905260800160006040519080825280601f01601f191660200182016040528015610d8d576020820181803683370190505b5090526040805160808101825230808252600060208301819052828401919091526060820152600954915163e969f6b360e01b8152929350916001600160a01b039091169063e969f6b390610de89085908590600401611880565b6020604051808303816000875af1925050508015610e23575060408051601f3d908101601f19168201909252610e2091810190611582565b60015b610e6957610e2f611705565b806308c379a00361094e5750610e43611721565b80610e4e5750610950565b8060405163dafe91cd60e01b815260040161033891906116f2565b6000818611610e785781610e7a565b855b6008546080860151919250610e9c916001600160a01b038e8116921690610f59565b610ea66001611337565b6008546040516352bbbe2960e01b81526001600160a01b03909116906352bbbe2990610edc9087908790869042906004016118d2565b6020604051808303816000875af1158015610efb573d6000803e3d6000fd5b505050506040513d601f19601f82011682018060405250810190610f1f9190611582565b9450610f2b6002611337565b505082600003610f4e57604051635eeb40ff60e11b815260040160405180910390fd5b505050505050505050565b604080516001600160a01b038481166024830152604480830185905283518084039091018152606490920183526020820180516001600160e01b031663095ea7b360e01b1790529151600092839290871691610fb591906117ab565b6000604051808303816000865af19150503d8060008114610ff2576040519150601f19603f3d011682016040523d82523d6000602084013e610ff7565b606091505b509150915081801561102157508051158061102157508080602001905181019061102191906117c7565b6106525760405162461bcd60e51b8152602060048201526002602482015261534160f01b6044820152606401610338565b600080826001600160a01b031663313ce5676040518163ffffffff1660e01b8152600401602060405180830381865afa158015611093573d6000803e3d6000fd5b505050506040513d601f19601f820116820180604052508101906110b79190611936565b60ff169050806012146110e9576110cf816012611959565b6110da90600a611a50565b6110e49085611a5c565b6110eb565b835b9150505b92915050565b6040805160c081018083526000805463038fff2d60e41b909252925183929182916001600160a01b03909116906338fff2d09060c4808501916020918187030181865afa15801561114a573d6000803e3d6000fd5b505050506040513d601f19601f8201168201806040525081019061116e9190611582565b8152602001600081526001600160a01b038089166020830152871660408201526060810186905260800160006040519080825280601f01601f1916602001820160405280156111c4576020820181803683370190505b5090526040805160808101825230808252600060208301819052828401919091526060820152600954915163e969f6b360e01b8152929350916001600160a01b039091169063e969f6b39061121f9085908590600401611880565b6020604051808303816000875af192505050801561125a575060408051601f3d908101601f1916820190925261125791810190611582565b60015b61126657610e2f611705565b60008186116112755781611277565b855b6008546080860151919250611299916001600160a01b038c8116921690610f59565b6008546040516352bbbe2960e01b81526001600160a01b03909116906352bbbe29906112cf9087908790869042906004016118d2565b6020604051808303816000875af11580156112ee573d6000803e3d6000fd5b505050506040513d601f19601f820116820180604052508101906113129190611582565b945050508260000361078157604051635eeb40ff60e11b815260040160405180910390fd5b6107cd8160405160240161134d91815260200190565b60408051601f198184030181529190526020810180516001600160e01b031663f5b1bba960e01b179052610c9d565b6001600160a01b03811681146107cd57600080fd5b60008060008060008060c087890312156113aa57600080fd5b86356113b58161137c565b955060208701356113c58161137c565b945060408701356113d58161137c565b935060608701356113e58161137c565b9598949750929560808101359460a0909101359350915050565b634e487b7160e01b600052604160045260246000fd5b601f8201601f1916810167ffffffffffffffff8111828210171561143b5761143b6113ff565b6040525050565b6000806040838503121561145557600080fd5b82356114608161137c565b915060208381013567ffffffffffffffff8082111561147e57600080fd5b818601915086601f83011261149257600080fd5b8135818111156114a4576114a46113ff565b60405191506114bc601f8201601f1916850183611415565b80825287848285010111156114d057600080fd5b80848401858401376000848284010152508093505050509250929050565b600080600083850360a081121561150457600080fd5b843561150f8161137c565b9350602085013561151f8161137c565b92506060603f198201121561153357600080fd5b506040516060810181811067ffffffffffffffff82111715611557576115576113ff565b8060405250604085013581526060850135602082015260808501356040820152809150509250925092565b60006020828403121561159457600080fd5b5051919050565b600080600080600060a086880312156115b357600080fd5b8551945060208601519350604086015192506060860151915060808601516115da8161137c565b809150509295509295909350565b6000602082840312156115fa57600080fd5b81516116058161137c565b9392505050565b60005b8381101561162757818101518382015260200161160f565b50506000910152565b6000815180845261164881602086016020860161160c565b601f01601f19169290920160200192915050565b60408152600061166f6040830185611630565b905060018060a01b03831660208301529392505050565b6040815260006116996040830185611630565b90508260208301529392505050565b805180151581146116b857600080fd5b919050565b6000806000606084860312156116d257600080fd5b6116db846116a8565b925060208401519150604084015190509250925092565b6020815260006116056020830184611630565b600060033d111561171e5760046000803e5060005160e01c5b90565b600060443d101561172f5790565b6040516003193d81016004833e81513d67ffffffffffffffff816024840111818411171561175f57505050505090565b82850191508151818111156117775750505050505090565b843d87010160208285010111156117915750505050505090565b6117a060208286010187611415565b509095945050505050565b600082516117bd81846020870161160c565b9190910192915050565b6000602082840312156117d957600080fd5b611605826116a8565b634e487b7160e01b600052601160045260246000fd5b808201808211156110ef576110ef6117e2565b80518252600060208201516002811061183457634e487b7160e01b600052602160045260246000fd5b80602085015250604082015160018060a01b03808216604086015280606085015116606086015250506080820151608084015260a082015160c060a08501526110eb60c0850182611630565b60a08152600061189360a083018561180b565b9050611605602083018480516001600160a01b039081168352602080830151151590840152604080830151909116908301526060908101511515910152565b60e0815260006118e560e083018761180b565b9050611924602083018680516001600160a01b039081168352602080830151151590840152604080830151909116908301526060908101511515910152565b60a082019390935260c0015292915050565b60006020828403121561194857600080fd5b815160ff8116811461160557600080fd5b818103818111156110ef576110ef6117e2565b600181815b808511156119a757816000190482111561198d5761198d6117e2565b8085161561199a57918102915b93841c9390800290611971565b509250929050565b6000826119be575060016110ef565b816119cb575060006110ef565b81600181146119e157600281146119eb57611a07565b60019150506110ef565b60ff8411156119fc576119fc6117e2565b50506001821b6110ef565b5060208310610133831016604e8410600b8410161715611a2a575081810a6110ef565b611a34838361196c565b8060001904821115611a4857611a486117e2565b029392505050565b600061160583836119af565b600082611a7957634e487b7160e01b600052601260045260246000fd5b50049056fea2646970667358221220712400961c3e4f4aebb79d8902bf40fa20cb506f55af2e370536f6be4bb6352d64736f6c63430008150033",
    "linkReferences": {}
  },
  "methodIdentifiers": {
    "useOZL(address,address,address,address,uint256,uint256)": "50d5d8cc",
    "useOzTokens(address,bytes)": "a1b86b38",
    "useUnderlying(address,address,(uint256,uint256,uint256))": "b50f68fd"
  },
  "id": 13
}