{
  "abi": [
    {
      "inputs": [
        {
          "internalType": "string",
          "name": "errorMsg",
          "type": "string"
        }
      ],
      "name": "OZError01",
      "type": "error"
    },
    {
      "inputs": [],
      "name": "OZError02",
      "type": "error"
    },
    {
      "inputs": [
        {
          "internalType": "string",
          "name": "errorCode",
          "type": "string"
        }
      ],
      "name": "OZError10",
      "type": "error"
    },
    {
      "inputs": [
        {
          "internalType": "address",
          "name": "caller",
          "type": "address"
        }
      ],
      "name": "OZError13",
      "type": "error"
    },
    {
      "inputs": [],
      "name": "OZError20",
      "type": "error"
    },
    {
      "inputs": [
        {
          "internalType": "string",
          "name": "reason",
          "type": "string"
        }
      ],
      "name": "OZError21",
      "type": "error"
    },
    {
      "inputs": [
        {
          "internalType": "address",
          "name": "owner_",
          "type": "address"
        },
        {
          "internalType": "address",
          "name": "ozl_",
          "type": "address"
        },
        {
          "internalType": "uint256",
          "name": "amountIn_",
          "type": "uint256"
        }
      ],
      "name": "recicleOZL",
      "outputs": [],
      "stateMutability": "nonpayable",
      "type": "function"
    },
    {
      "inputs": [
        {
          "internalType": "address",
          "name": "lsd_",
          "type": "address"
        },
        {
          "internalType": "address",
          "name": "receiver_",
          "type": "address"
        },
        {
          "internalType": "uint256",
          "name": "amount_",
          "type": "uint256"
        }
      ],
      "name": "sendLSD",
      "outputs": [
        {
          "internalType": "uint256",
          "name": "",
          "type": "uint256"
        }
      ],
      "stateMutability": "nonpayable",
      "type": "function"
    },
    {
      "inputs": [
        {
          "components": [
            {
              "internalType": "address",
              "name": "swapRouterUni",
              "type": "address"
            },
            {
              "internalType": "uint24",
              "name": "uniFee",
              "type": "uint24"
            },
            {
              "internalType": "address",
              "name": "rEthWethPoolBalancer",
              "type": "address"
            },
            {
              "internalType": "address",
              "name": "queriesBalancer",
              "type": "address"
            },
            {
              "internalType": "address",
              "name": "vaultBalancer",
              "type": "address"
            },
            {
              "internalType": "address",
              "name": "ETH",
              "type": "address"
            },
            {
              "internalType": "address",
              "name": "rETH",
              "type": "address"
            },
            {
              "internalType": "address",
              "name": "WETH",
              "type": "address"
            }
          ],
          "internalType": "struct TradingPackage",
          "name": "p",
          "type": "tuple"
        },
        {
          "internalType": "address",
          "name": "tokenOut_",
          "type": "address"
        },
        {
          "internalType": "address",
          "name": "receiver_",
          "type": "address"
        },
        {
          "internalType": "uint256",
          "name": "amountInLsd_",
          "type": "uint256"
        },
        {
          "internalType": "uint256[]",
          "name": "minAmountsOut_",
          "type": "uint256[]"
        }
      ],
      "name": "useOZL",
      "outputs": [
        {
          "internalType": "uint256",
          "name": "",
          "type": "uint256"
        }
      ],
      "stateMutability": "nonpayable",
      "type": "function"
    },
    {
      "inputs": [
        {
          "internalType": "address",
          "name": "owner_",
          "type": "address"
        },
        {
          "internalType": "bytes",
          "name": "data_",
          "type": "bytes"
        }
      ],
      "name": "useOzTokens",
      "outputs": [
        {
          "internalType": "uint256",
          "name": "amountOut",
          "type": "uint256"
        }
      ],
      "stateMutability": "nonpayable",
      "type": "function"
    },
    {
      "inputs": [
        {
          "internalType": "address",
          "name": "underlying_",
          "type": "address"
        },
        {
          "internalType": "address",
          "name": "owner_",
          "type": "address"
        },
        {
          "components": [
            {
              "internalType": "uint256",
              "name": "amountIn",
              "type": "uint256"
            },
            {
              "internalType": "uint256",
              "name": "minWethOut",
              "type": "uint256"
            },
            {
              "internalType": "uint256",
              "name": "minRethOut",
              "type": "uint256"
            }
          ],
          "internalType": "struct AmountsIn",
          "name": "amounts_",
          "type": "tuple"
        }
      ],
      "name": "useUnderlying",
      "outputs": [],
      "stateMutability": "nonpayable",
      "type": "function"
    }
  ],
  "bytecode": {
    "object": "0x608060405234801561001057600080fd5b50612100806100206000396000f3fe608060405234801561001057600080fd5b50600436106100575760003560e01c8063a1b86b381461005c578063a2e202f814610081578063ab399cf814610094578063b50f68fd146100a9578063dde5543b146100bc575b600080fd5b61006f61006a366004611865565b6100cf565b60405190815260200160405180910390f35b61006f61008f3660046119a5565b610249565b6100a76100a2366004611abc565b610266565b005b6100a76100b7366004611afd565b6102e5565b61006f6100ca366004611abc565b6104ba565b3360009081526015602052604081205460ff166101065760405163a43f931360e01b81523360048201526024015b60405180910390fd5b6000806000806000868060200190518101906101229190611b91565b93985091965094509250905061013a338930886104d1565b600a54600354610158916001600160a01b03908116911686866105db565b600354604080516338d52e0f60e01b8152905161023d926001600160a01b03169133916338d52e0f916004808201926020929091908290030181865afa1580156101a6573d6000803e3d6000fd5b505050506040513d601f19601f820116820180604052508101906101ca9190611bde565b6003546040516370a0823160e01b81523060048201526001600160a01b03909116906370a0823190602401602060405180830381865afa158015610212573d6000803e3d6000fd5b505050506040513d601f19601f820116820180604052508101906102369190611bfb565b8585610673565b98975050505050505050565b600061025a868686868660006107b6565b90505b95945050505050565b610270600161092a565b6102856001600160a01b038316843084610972565b61028f600261092a565b60405163c3ae3a0960e01b815260048101829052309063c3ae3a0990602401600060405180830381600087803b1580156102c857600080fd5b505af11580156102dc573d6000803e3d6000fd5b50505050505050565b3360009081526015602052604090205460ff166103175760405163a43f931360e01b81523360048201526024016100fd565b805161032e6001600160a01b0385168430846104d1565b60035460208301516000916103519187916001600160a01b031690859030610673565b905061035c816109e3565b1561048f57600354604051632e1a7d4d60e01b8152600481018390526001600160a01b0390911690632e1a7d4d90602401600060405180830381600087803b1580156103a757600080fd5b505af11580156103bb573d6000803e3d6000fd5b50506010546011546040516321f8a72160e01b81526004810191909152600093506001600160a01b0390911691506321f8a72190602401602060405180830381865afa15801561040f573d6000803e3d6000fd5b505050506040513d601f19601f820116820180604052508101906104339190611bde565b9050806001600160a01b031663d0e30db0836040518263ffffffff1660e01b81526004016000604051808303818588803b15801561047057600080fd5b505af1158015610484573d6000803e3d6000fd5b5050505050506104b3565b600354600a5460408501516104b3926001600160a01b0390811692169084906105db565b5050505050565b60006104c7848484610b72565b50805b9392505050565b604080516001600160a01b0385811660248301528481166044830152606480830185905283518084039091018152608490920183526020820180516001600160e01b03166323b872dd60e01b17905291516000928392908816916105359190611c38565b6000604051808303816000865af19150503d8060008114610572576040519150601f19603f3d011682016040523d82523d6000602084013e610577565b606091505b50915091508180156105a15750805115806105a15750808060200190518101906105a19190611c64565b6105d35760405162461bcd60e51b815260206004820152600360248201526229aa2360e91b60448201526064016100fd565b505050505050565b6000805460408051631c0de05160e01b815290516001600160a01b0390921691631c0de051916004808201926060929091908290030181865afa158015610626573d6000803e3d6000fd5b505050506040513d601f19601f8201168201806040525081019061064a9190611c7f565b505090508015610667576106618585858530610673565b506104b3565b6104b385858585610ba7565b600654600090610690906001600160a01b03888116911686610e23565b60408051610100810182526001600160a01b038089168252878116602083015260145462ffffff1692820192909252908316606082015242608082015260a0810185905260009060c081016106e58689610f1c565b8152600060209091015260065460405163414bf38960e01b81529192506001600160a01b03169063414bf38990610720908490600401611cb4565b6020604051808303816000875af192505050801561075b575060408051601f3d908101601f1916820190925261075891810190611bfb565b60015b6107ad57610767611d1d565b806308c379a0036107a1575061077b611d39565b8061078657506107a3565b8060405163633abab960e01b81526004016100fd9190611def565b505b3d6000803e3d6000fd5b915061025d9050565b60008080808460028111156107cd576107cd611e02565b036107e8575050600a546003546001600160a01b0391821691165b6000805460408051631c0de05160e01b815290516001600160a01b0390921691631c0de051916004808201926060929091908290030181865afa158015610833573d6000803e3d6000fd5b505050506040513d601f19601f820116820180604052508101906108579190611c7f565b505090508015610899576108928383308d600001518e602001518c8c60008151811061088557610885611e18565b6020026020010151610fbf565b93506108b9565b6108b683838c604001518d606001518e608001518c8c6000611099565b93505b8960e001516001600160a01b0316896001600160a01b0316036108f2576003546108ed906001600160a01b03168986610b72565b61091d565b61091a8a60e001518a8a8d600001518e60200151898c60018151811061088557610885611e18565b93505b5050509695505050505050565b61096f8160405160240161094091815260200190565b60408051601f198184030181529190526020810180516001600160e01b031663f5b1bba960e01b1790526112cb565b50565b6040516001600160a01b03808516602483015283166044820152606481018290526109dd9085906323b872dd60e01b906084015b60408051601f198184030181529190526020810180516001600160e01b03166001600160e01b0319909316929092179091526112ec565b50505050565b6012546040516335ee5f8760e01b81526020600482015260116024820152701c9bd8dad95d11195c1bdcda5d141bdbdb607a1b604482015260009182916001600160a01b03909116906335ee5f8790606401602060405180830381865afa158015610a52573d6000803e3d6000fd5b505050506040513d601f19601f82011682018060405250810190610a769190611bfb565b90506000610a848483611e44565b6010546013546040516321f8a72160e01b81529293506000926001600160a01b03909216916321f8a72191610abf9160040190815260200190565b602060405180830381865afa158015610adc573d6000803e3d6000fd5b505050506040513d601f19601f82011682018060405250810190610b009190611bde565b90506000816001600160a01b031663fd6ce89e6040518163ffffffff1660e01b8152600401602060405180830381865afa158015610b42573d6000803e3d6000fd5b505050506040513d601f19601f82011682018060405250810190610b669190611bfb565b90921095945050505050565b6040516001600160a01b038316602482015260448101829052610ba290849063a9059cbb60e01b906064016109a6565b505050565b6040805160c081018083526000805463038fff2d60e41b909252925183929182916001600160a01b03909116906338fff2d09060c4808501916020918187030181865afa158015610bfc573d6000803e3d6000fd5b505050506040513d601f19601f82011682018060405250810190610c209190611bfb565b8152602001600081526001600160a01b038089166020830152871660408201526060810186905260800160006040519080825280601f01601f191660200182016040528015610c76576020820181803683370190505b5090526040805160808101825230808252600060208301819052828401919091526060820152600954915163e969f6b360e01b8152929350916001600160a01b039091169063e969f6b390610cd19085908590600401611ecc565b6020604051808303816000875af1925050508015610d0c575060408051601f3d908101601f19168201909252610d0991810190611bfb565b60015b610d5257610d18611d1d565b806308c379a0036107a15750610d2c611d39565b80610d3757506107a3565b8060405163dafe91cd60e01b81526004016100fd9190611def565b6000818611610d615781610d63565b855b6008546080860151919250610d85916001600160a01b038c8116921690610e23565b6008546040516352bbbe2960e01b81526001600160a01b03909116906352bbbe2990610dbb908790879086904290600401611f1e565b6020604051808303816000875af1158015610dda573d6000803e3d6000fd5b505050506040513d601f19601f82011682018060405250810190610dfe9190611bfb565b94505050826000036102dc57604051635eeb40ff60e11b815260040160405180910390fd5b604080516001600160a01b038481166024830152604480830185905283518084039091018152606490920183526020820180516001600160e01b031663095ea7b360e01b1790529151600092839290871691610e7f9190611c38565b6000604051808303816000865af19150503d8060008114610ebc576040519150601f19603f3d011682016040523d82523d6000602084013e610ec1565b606091505b5091509150818015610eeb575080511580610eeb575080806020019051810190610eeb9190611c64565b6104b35760405162461bcd60e51b8152602060048201526002602482015261534160f01b60448201526064016100fd565b600080826001600160a01b031663313ce5676040518163ffffffff1660e01b8152600401602060405180830381865afa158015610f5d573d6000803e3d6000fd5b505050506040513d601f19601f82011682018060405250810190610f819190611f82565b60ff16905080601214610fb357610f99816012611fa5565b610fa490600a61209c565b610fae90856120a8565b610fb5565b835b9150505b92915050565b6000610fcc8886856113c1565b60408051610100810182526001600160a01b03808b168252898116602083015262ffffff871682840152888116606083015242608083015260a0820186905260c08201859052600060e0830152915163414bf38960e01b8152909187169063414bf3899061103e908490600401611cb4565b6020604051808303816000875af1925050508015611079575060408051601f3d908101601f1916820190925261107691810190611bfb565b60015b61108557610767611d1d565b915061108e9050565b979650505050505050565b6040805160c081018083526000805463038fff2d60e41b909252925183929182916001600160a01b03909116906338fff2d09060c4808501916020918187030181865afa1580156110ee573d6000803e3d6000fd5b505050506040513d601f19601f820116820180604052508101906111129190611bfb565b8152602001600081526001600160a01b03808d1660208301528b1660408201526060810187905260800160006040519080825280601f01601f191660200182016040528015611168576020820181803683370190505b50905260408051608081018252308082526000602083018190529282015260608101829052919250808560028111156111a3576111a3611e02565b036111ca57856000815181106111bb576111bb611e18565b6020026020010151905061128f565b60008560028111156111de576111de611e02565b1461128f5760095460405163e969f6b360e01b81526001600160a01b039091169063e969f6b3906112159086908690600401611ecc565b6020604051808303816000875af1925050508015611250575060408051601f3d908101601f1916820190925261124d91810190611bfb565b60015b61125c57610d18611d1d565b60008760008151811061127157611271611e18565b60200260200101519050818111611288578161128a565b805b925050505b60085460808401516112ae918e916001600160a01b03909116906113c1565b6112bb88848484426114d6565b9c9b505050505050505050505050565b80516a636f6e736f6c652e6c6f67602083016000808483855afa5050505050565b6000611341826040518060400160405280602081526020017f5361666545524332303a206c6f772d6c6576656c2063616c6c206661696c6564815250856001600160a01b03166115fd9092919063ffffffff16565b90508051600014806113625750808060200190518101906113629190611c64565b610ba25760405162461bcd60e51b815260206004820152602a60248201527f5361666545524332303a204552433230206f7065726174696f6e20646964206e6044820152691bdd081cdd58d8d9595960b21b60648201526084016100fd565b80158061143b5750604051636eb1769f60e11b81523060048201526001600160a01b03838116602483015284169063dd62ed3e90604401602060405180830381865afa158015611415573d6000803e3d6000fd5b505050506040513d601f19601f820116820180604052508101906114399190611bfb565b155b6114a65760405162461bcd60e51b815260206004820152603660248201527f5361666545524332303a20617070726f76652066726f6d206e6f6e2d7a65726f60448201527520746f206e6f6e2d7a65726f20616c6c6f77616e636560501b60648201526084016100fd565b6040516001600160a01b038316602482015260448101829052610ba290849063095ea7b360e01b906064016109a6565b6008546040516352bbbe2960e01b81526000916001600160a01b0316906352bbbe299061150d908890889088908890600401611f1e565b6020604051808303816000875af1925050508015611548575060408051601f3d908101601f1916820190925261154591810190611bfb565b60015b6115d557611554611d1d565b806308c379a0036107a15750611568611d39565b8061157357506107a3565b61159c816040518060400160405280600781526020016642414c2335303760c81b815250611614565b156115ba57604051637b19dd3560e11b815260040160405180910390fd5b806040516324af18bb60e21b81526004016100fd9190611def565b806000036115f657604051635eeb40ff60e11b815260040160405180910390fd5b905061025d565b606061160c848460008561166d565b949350505050565b6000816040516020016116279190611c38565b604051602081830303815290604052805190602001208360405160200161164e9190611c38565b6040516020818303038152906040528051906020012014905092915050565b6060824710156116ce5760405162461bcd60e51b815260206004820152602660248201527f416464726573733a20696e73756666696369656e742062616c616e636520666f6044820152651c8818d85b1b60d21b60648201526084016100fd565b600080866001600160a01b031685876040516116ea9190611c38565b60006040518083038185875af1925050503d8060008114611727576040519150601f19603f3d011682016040523d82523d6000602084013e61172c565b606091505b509150915061108e87838387606083156117a75782516000036117a0576001600160a01b0385163b6117a05760405162461bcd60e51b815260206004820152601d60248201527f416464726573733a2063616c6c20746f206e6f6e2d636f6e747261637400000060448201526064016100fd565b508161160c565b61160c83838151156117bc5781518083602001fd5b8060405162461bcd60e51b81526004016100fd9190611def565b6001600160a01b038116811461096f57600080fd5b80356117f6816117d6565b919050565b634e487b7160e01b600052604160045260246000fd5b610100810181811067ffffffffffffffff82111715611832576118326117fb565b60405250565b601f8201601f1916810167ffffffffffffffff8111828210171561185e5761185e6117fb565b6040525050565b6000806040838503121561187857600080fd5b8235611883816117d6565b915060208381013567ffffffffffffffff808211156118a157600080fd5b818601915086601f8301126118b557600080fd5b8135818111156118c7576118c76117fb565b60405191506118df601f8201601f1916850183611838565b80825287848285010111156118f357600080fd5b80848401858401376000848284010152508093505050509250929050565b803562ffffff811681146117f657600080fd5b600082601f83011261193557600080fd5b8135602067ffffffffffffffff821115611951576119516117fb565b8160051b60405161196483830182611838565b9283528481018201928281018785111561197d57600080fd5b83870192505b8483101561199a5782358152918301918301611983565b509695505050505050565b60008060008060008587036101808112156119bf57600080fd5b610100808212156119cf57600080fd5b60405191506119dd82611811565b6119e6886117eb565b82526119f460208901611911565b6020830152611a05604089016117eb565b6040830152611a16606089016117eb565b6060830152611a27608089016117eb565b6080830152611a3860a089016117eb565b60a0830152611a4960c089016117eb565b60c0830152611a5a60e089016117eb565b60e0830152819650611a6d8189016117eb565b95505050611a7e61012087016117eb565b9250610140860135915061016086013567ffffffffffffffff811115611aa357600080fd5b611aaf88828901611924565b9150509295509295909350565b600080600060608486031215611ad157600080fd5b8335611adc816117d6565b92506020840135611aec816117d6565b929592945050506040919091013590565b600080600083850360a0811215611b1357600080fd5b8435611b1e816117d6565b93506020850135611b2e816117d6565b92506060603f1982011215611b4257600080fd5b506040516060810181811067ffffffffffffffff82111715611b6657611b666117fb565b8060405250604085013581526060850135602082015260808501356040820152809150509250925092565b600080600080600060a08688031215611ba957600080fd5b855194506020860151935060408601519250606086015191506080860151611bd0816117d6565b809150509295509295909350565b600060208284031215611bf057600080fd5b81516104ca816117d6565b600060208284031215611c0d57600080fd5b5051919050565b60005b83811015611c2f578181015183820152602001611c17565b50506000910152565b60008251611c4a818460208701611c14565b9190910192915050565b805180151581146117f657600080fd5b600060208284031215611c7657600080fd5b6104ca82611c54565b600080600060608486031215611c9457600080fd5b611c9d84611c54565b925060208401519150604084015190509250925092565b81516001600160a01b03908116825260208084015182169083015260408084015162ffffff16908301526060808401518216908301526080808401519083015260a0838101519083015260c0808401519083015260e09283015116918101919091526101000190565b600060033d1115611d365760046000803e5060005160e01c5b90565b600060443d1015611d475790565b6040516003193d81016004833e81513d67ffffffffffffffff8160248401118184111715611d7757505050505090565b8285019150815181811115611d8f5750505050505090565b843d8701016020828501011115611da95750505050505090565b611db860208286010187611838565b509095945050505050565b60008151808452611ddb816020860160208601611c14565b601f01601f19169290920160200192915050565b6020815260006104ca6020830184611dc3565b634e487b7160e01b600052602160045260246000fd5b634e487b7160e01b600052603260045260246000fd5b634e487b7160e01b600052601160045260246000fd5b80820180821115610fb957610fb9611e2e565b805182526000602082015160028110611e8057634e487b7160e01b600052602160045260246000fd5b80602085015250604082015160018060a01b03808216604086015280606085015116606086015250506080820151608084015260a082015160c060a0850152610fb560c0850182611dc3565b60a081526000611edf60a0830185611e57565b90506104ca602083018480516001600160a01b039081168352602080830151151590840152604080830151909116908301526060908101511515910152565b60e081526000611f3160e0830187611e57565b9050611f70602083018680516001600160a01b039081168352602080830151151590840152604080830151909116908301526060908101511515910152565b60a082019390935260c0015292915050565b600060208284031215611f9457600080fd5b815160ff811681146104ca57600080fd5b81810381811115610fb957610fb9611e2e565b600181815b80851115611ff3578160001904821115611fd957611fd9611e2e565b80851615611fe657918102915b93841c9390800290611fbd565b509250929050565b60008261200a57506001610fb9565b8161201757506000610fb9565b816001811461202d576002811461203757612053565b6001915050610fb9565b60ff84111561204857612048611e2e565b50506001821b610fb9565b5060208310610133831016604e8410600b8410161715612076575081810a610fb9565b6120808383611fb8565b806000190482111561209457612094611e2e565b029392505050565b60006104ca8383611ffb565b6000826120c557634e487b7160e01b600052601260045260246000fd5b50049056fea264697066735822122081e441c3be07276800b652fabd6a6065b08897eb719c099e7cf1360433ffdd9d64736f6c63430008150033",
    "linkReferences": {}
  },
  "methodIdentifiers": {
    "recicleOZL(address,address,uint256)": "ab399cf8",
    "sendLSD(address,address,uint256)": "dde5543b",
    "useOZL((address,uint24,address,address,address,address,address,address),address,address,uint256,uint256[])": "a2e202f8",
    "useOzTokens(address,bytes)": "a1b86b38",
    "useUnderlying(address,address,(uint256,uint256,uint256))": "b50f68fd"
  },
  "id": 13
}