{
  "abi": [
    {
      "inputs": [
        {
          "internalType": "string",
          "name": "errorMsg",
          "type": "string"
        }
      ],
      "name": "OZError01",
      "type": "error"
    },
    {
      "inputs": [],
      "name": "OZError02",
      "type": "error"
    },
    {
      "inputs": [
        {
          "internalType": "string",
          "name": "errorCode",
          "type": "string"
        }
      ],
      "name": "OZError10",
      "type": "error"
    },
    {
      "inputs": [
        {
          "internalType": "address",
          "name": "caller",
          "type": "address"
        }
      ],
      "name": "OZError13",
      "type": "error"
    },
    {
      "inputs": [],
      "name": "OZError20",
      "type": "error"
    },
    {
      "inputs": [
        {
          "internalType": "string",
          "name": "reason",
          "type": "string"
        }
      ],
      "name": "OZError21",
      "type": "error"
    },
    {
      "inputs": [
        {
          "internalType": "address",
          "name": "owner_",
          "type": "address"
        },
        {
          "internalType": "address",
          "name": "ozDiamond_",
          "type": "address"
        },
        {
          "internalType": "uint256",
          "name": "amountIn_",
          "type": "uint256"
        }
      ],
      "name": "recicleOZL",
      "outputs": [],
      "stateMutability": "nonpayable",
      "type": "function"
    },
    {
      "inputs": [
        {
          "internalType": "address",
          "name": "lsd_",
          "type": "address"
        },
        {
          "internalType": "address",
          "name": "receiver_",
          "type": "address"
        },
        {
          "internalType": "uint256",
          "name": "amount_",
          "type": "uint256"
        }
      ],
      "name": "sendLSD",
      "outputs": [
        {
          "internalType": "uint256",
          "name": "",
          "type": "uint256"
        }
      ],
      "stateMutability": "nonpayable",
      "type": "function"
    },
    {
      "inputs": [
        {
          "components": [
            {
              "internalType": "address",
              "name": "swapRouterUni",
              "type": "address"
            },
            {
              "internalType": "uint24",
              "name": "uniFee",
              "type": "uint24"
            },
            {
              "internalType": "address",
              "name": "rEthWethPoolBalancer",
              "type": "address"
            },
            {
              "internalType": "address",
              "name": "queriesBalancer",
              "type": "address"
            },
            {
              "internalType": "address",
              "name": "vaultBalancer",
              "type": "address"
            },
            {
              "internalType": "address",
              "name": "ETH",
              "type": "address"
            },
            {
              "internalType": "address",
              "name": "rETH",
              "type": "address"
            },
            {
              "internalType": "address",
              "name": "WETH",
              "type": "address"
            }
          ],
          "internalType": "struct TradingPackage",
          "name": "p",
          "type": "tuple"
        },
        {
          "internalType": "address",
          "name": "tokenOut_",
          "type": "address"
        },
        {
          "internalType": "address",
          "name": "receiver_",
          "type": "address"
        },
        {
          "internalType": "uint256",
          "name": "amountInLsd_",
          "type": "uint256"
        },
        {
          "internalType": "uint256[]",
          "name": "minAmountsOut_",
          "type": "uint256[]"
        }
      ],
      "name": "useOZL",
      "outputs": [
        {
          "internalType": "uint256",
          "name": "",
          "type": "uint256"
        }
      ],
      "stateMutability": "nonpayable",
      "type": "function"
    },
    {
      "inputs": [
        {
          "internalType": "address",
          "name": "tokenIn_",
          "type": "address"
        },
        {
          "internalType": "address",
          "name": "tokenOut_",
          "type": "address"
        },
        {
          "internalType": "address",
          "name": "sender_",
          "type": "address"
        },
        {
          "internalType": "address",
          "name": "receiver_",
          "type": "address"
        },
        {
          "internalType": "uint256",
          "name": "amountIn_",
          "type": "uint256"
        },
        {
          "internalType": "uint256",
          "name": "minAmountOut_",
          "type": "uint256"
        }
      ],
      "name": "useOZL2",
      "outputs": [],
      "stateMutability": "nonpayable",
      "type": "function"
    },
    {
      "inputs": [
        {
          "internalType": "address",
          "name": "owner_",
          "type": "address"
        },
        {
          "internalType": "bytes",
          "name": "data_",
          "type": "bytes"
        }
      ],
      "name": "useOzTokens",
      "outputs": [
        {
          "internalType": "uint256",
          "name": "amountOut",
          "type": "uint256"
        }
      ],
      "stateMutability": "nonpayable",
      "type": "function"
    },
    {
      "inputs": [
        {
          "internalType": "address",
          "name": "underlying_",
          "type": "address"
        },
        {
          "internalType": "address",
          "name": "owner_",
          "type": "address"
        },
        {
          "components": [
            {
              "internalType": "uint256",
              "name": "amountIn",
              "type": "uint256"
            },
            {
              "internalType": "uint256",
              "name": "minWethOut",
              "type": "uint256"
            },
            {
              "internalType": "uint256",
              "name": "minRethOut",
              "type": "uint256"
            }
          ],
          "internalType": "struct AmountsIn",
          "name": "amounts_",
          "type": "tuple"
        }
      ],
      "name": "useUnderlying",
      "outputs": [],
      "stateMutability": "nonpayable",
      "type": "function"
    }
  ],
  "bytecode": {
    "object": "0x608060405234801561001057600080fd5b506124d7806100206000396000f3fe608060405234801561001057600080fd5b50600436106100625760003560e01c8063a1b86b3814610067578063a2e202f81461008c578063ab399cf81461009f578063b50f68fd146100b4578063dde5543b146100c7578063ee4dff33146100da575b600080fd5b61007a610075366004611b82565b6100ed565b60405190815260200160405180910390f35b61007a61009a366004611cc2565b610267565b6100b26100ad366004611dd9565b610284565b005b6100b26100c2366004611e1a565b6102ef565b61007a6100d5366004611dd9565b6104c4565b6100b26100e8366004611eae565b6104db565b3360009081526015602052604081205460ff166101245760405163a43f931360e01b81523360048201526024015b60405180910390fd5b6000806000806000868060200190518101906101409190611f1c565b939850919650945092509050610158338930886106a2565b600a54600354610176916001600160a01b03908116911686866107ac565b600354604080516338d52e0f60e01b8152905161025b926001600160a01b03169133916338d52e0f916004808201926020929091908290030181865afa1580156101c4573d6000803e3d6000fd5b505050506040513d601f19601f820116820180604052508101906101e89190611f69565b6003546040516370a0823160e01b81523060048201526001600160a01b03909116906370a0823190602401602060405180830381865afa158015610230573d6000803e3d6000fd5b505050506040513d601f19601f820116820180604052508101906102549190611f86565b8585610844565b98975050505050505050565b600061027886868686866000610987565b90505b95945050505050565b61029030848484610b4e565b60405163c3ae3a0960e01b8152600481018290526001600160a01b0383169063c3ae3a0990602401600060405180830381600087803b1580156102d257600080fd5b505af11580156102e6573d6000803e3d6000fd5b50505050505050565b3360009081526015602052604090205460ff166103215760405163a43f931360e01b815233600482015260240161011b565b80516103386001600160a01b0385168430846106a2565b600354602083015160009161035b9187916001600160a01b031690859030610844565b905061036681610bbf565b1561049957600354604051632e1a7d4d60e01b8152600481018390526001600160a01b0390911690632e1a7d4d90602401600060405180830381600087803b1580156103b157600080fd5b505af11580156103c5573d6000803e3d6000fd5b50506010546011546040516321f8a72160e01b81526004810191909152600093506001600160a01b0390911691506321f8a72190602401602060405180830381865afa158015610419573d6000803e3d6000fd5b505050506040513d601f19601f8201168201806040525081019061043d9190611f69565b9050806001600160a01b031663d0e30db0836040518263ffffffff1660e01b81526004016000604051808303818588803b15801561047a57600080fd5b505af115801561048e573d6000803e3d6000fd5b5050505050506104bd565b600354600a5460408501516104bd926001600160a01b0390811692169084906107ac565b5050505050565b60006104d1848484610d4e565b50805b9392505050565b61050f60405180604001604052806012815260200171039b2b73232b91034b7103ab9b2a7ad261d160751b81525033610d83565b6105406040518060400160405280600f81526020016e030b2323932b9b9943a3434b9949d1608d1b81525030610d83565b604080518082018252601881527f724554482062616c2073656e64657220696e207573653a200000000000000000602082015290516370a0823160e01b81523360048201526105e491906001600160a01b038916906370a0823190602401602060405180830381865afa1580156105bb573d6000803e3d6000fd5b505050506040513d601f19601f820116820180604052508101906105df9190611f86565b610dcc565b6003546105ff9087906001600160a01b031686808686610e11565b61062960405180604001604052806009815260200168676f6f64206865726560b81b815250610e9d565b6003546040516370a0823160e01b81523060048201526102e6916001600160a01b031690879082906370a0823190602401602060405180830381865afa158015610677573d6000803e3d6000fd5b505050506040513d601f19601f8201168201806040525081019061069b9190611f86565b8487610844565b604080516001600160a01b0385811660248301528481166044830152606480830185905283518084039091018152608490920183526020820180516001600160e01b03166323b872dd60e01b17905291516000928392908816916107069190611fc3565b6000604051808303816000865af19150503d8060008114610743576040519150601f19603f3d011682016040523d82523d6000602084013e610748565b606091505b50915091508180156107725750805115806107725750808060200190518101906107729190611fef565b6107a45760405162461bcd60e51b815260206004820152600360248201526229aa2360e91b604482015260640161011b565b505050505050565b6000805460408051631c0de05160e01b815290516001600160a01b0390921691631c0de051916004808201926060929091908290030181865afa1580156107f7573d6000803e3d6000fd5b505050506040513d601f19601f8201168201806040525081019061081b919061200a565b505090508015610838576108328585858530610844565b506104bd565b6104bd85858585610ee3565b600654600090610861906001600160a01b0388811691168661115f565b60408051610100810182526001600160a01b038089168252878116602083015260145462ffffff1692820192909252908316606082015242608082015260a0810185905260009060c081016108b68689611258565b8152600060209091015260065460405163414bf38960e01b81529192506001600160a01b03169063414bf389906108f190849060040161203f565b6020604051808303816000875af192505050801561092c575060408051601f3d908101601f1916820190925261092991810190611f86565b60015b61097e576109386120a8565b806308c379a003610972575061094c6120c4565b806109575750610974565b8060405163633abab960e01b815260040161011b919061217a565b505b3d6000803e3d6000fd5b915061027b9050565b600080808084600281111561099e5761099e61218d565b036109b057505060c087015160e08801515b600089604001516001600160a01b0316631c0de0516040518163ffffffff1660e01b8152600401606060405180830381865afa1580156109f4573d6000803e3d6000fd5b505050506040513d601f19601f82011682018060405250810190610a18919061200a565b505090508015610a5a57610a538383308d600001518e602001518c8c600081518110610a4657610a466121a3565b60200260200101516112fb565b9350610a7a565b610a7783838c604001518d606001518e608001518c8c60006113d5565b93505b8960e001516001600160a01b0316896001600160a01b031603610b165760e08a015160405163a9059cbb60e01b81526001600160a01b038a81166004830152602482018790529091169063a9059cbb906044016020604051808303816000875af1158015610aec573d6000803e3d6000fd5b505050506040513d601f19601f82011682018060405250810190610b109190611fef565b50610b41565b610b3e8a60e001518a8a8d600001518e60200151898c600181518110610a4657610a466121a3565b93505b5050509695505050505050565b6040516001600160a01b0380851660248301528316604482015260648101829052610bb99085906323b872dd60e01b906084015b60408051601f198184030181529190526020810180516001600160e01b03166001600160e01b0319909316929092179091526115ea565b50505050565b6012546040516335ee5f8760e01b81526020600482015260116024820152701c9bd8dad95d11195c1bdcda5d141bdbdb607a1b604482015260009182916001600160a01b03909116906335ee5f8790606401602060405180830381865afa158015610c2e573d6000803e3d6000fd5b505050506040513d601f19601f82011682018060405250810190610c529190611f86565b90506000610c6084836121cf565b6010546013546040516321f8a72160e01b81529293506000926001600160a01b03909216916321f8a72191610c9b9160040190815260200190565b602060405180830381865afa158015610cb8573d6000803e3d6000fd5b505050506040513d601f19601f82011682018060405250810190610cdc9190611f69565b90506000816001600160a01b031663fd6ce89e6040518163ffffffff1660e01b8152600401602060405180830381865afa158015610d1e573d6000803e3d6000fd5b505050506040513d601f19601f82011682018060405250810190610d429190611f86565b90921095945050505050565b6040516001600160a01b038316602482015260448101829052610d7e90849063a9059cbb60e01b90606401610b82565b505050565b610dc88282604051602401610d999291906121e2565b60408051601f198184030181529190526020810180516001600160e01b031663319af33360e01b1790526116bf565b5050565b610dc88282604051602401610de292919061220c565b60408051601f198184030181529190526020810180516001600160e01b03166309710a9d60e41b1790526116bf565b6000805460408051631c0de05160e01b815290516001600160a01b0390921691631c0de051916004808201926060929091908290030181865afa158015610e5c573d6000803e3d6000fd5b505050506040513d601f19601f82011682018060405250810190610e80919061200a565b5050905080156102e657610e978787858588610844565b506102e6565b610ee081604051602401610eb1919061217a565b60408051601f198184030181529190526020810180516001600160e01b031663104c13eb60e21b1790526116bf565b50565b6040805160c081018083526000805463038fff2d60e41b909252925183929182916001600160a01b03909116906338fff2d09060c4808501916020918187030181865afa158015610f38573d6000803e3d6000fd5b505050506040513d601f19601f82011682018060405250810190610f5c9190611f86565b8152602001600081526001600160a01b038089166020830152871660408201526060810186905260800160006040519080825280601f01601f191660200182016040528015610fb2576020820181803683370190505b5090526040805160808101825230808252600060208301819052828401919091526060820152600954915163e969f6b360e01b8152929350916001600160a01b039091169063e969f6b39061100d90859085906004016122a3565b6020604051808303816000875af1925050508015611048575060408051601f3d908101601f1916820190925261104591810190611f86565b60015b61108e576110546120a8565b806308c379a00361097257506110686120c4565b806110735750610974565b8060405163dafe91cd60e01b815260040161011b919061217a565b600081861161109d578161109f565b855b60085460808601519192506110c1916001600160a01b038c811692169061115f565b6008546040516352bbbe2960e01b81526001600160a01b03909116906352bbbe29906110f79087908790869042906004016122f5565b6020604051808303816000875af1158015611116573d6000803e3d6000fd5b505050506040513d601f19601f8201168201806040525081019061113a9190611f86565b94505050826000036102e657604051635eeb40ff60e11b815260040160405180910390fd5b604080516001600160a01b038481166024830152604480830185905283518084039091018152606490920183526020820180516001600160e01b031663095ea7b360e01b17905291516000928392908716916111bb9190611fc3565b6000604051808303816000865af19150503d80600081146111f8576040519150601f19603f3d011682016040523d82523d6000602084013e6111fd565b606091505b50915091508180156112275750805115806112275750808060200190518101906112279190611fef565b6104bd5760405162461bcd60e51b8152602060048201526002602482015261534160f01b604482015260640161011b565b600080826001600160a01b031663313ce5676040518163ffffffff1660e01b8152600401602060405180830381865afa158015611299573d6000803e3d6000fd5b505050506040513d601f19601f820116820180604052508101906112bd9190612359565b60ff169050806012146112ef576112d581601261237c565b6112e090600a612473565b6112ea908561247f565b6112f1565b835b9150505b92915050565b60006113088886856116e0565b60408051610100810182526001600160a01b03808b168252898116602083015262ffffff871682840152888116606083015242608083015260a0820186905260c08201859052600060e0830152915163414bf38960e01b8152909187169063414bf3899061137a90849060040161203f565b6020604051808303816000875af19250505080156113b5575060408051601f3d908101601f191682019092526113b291810190611f86565b60015b6113c1576109386120a8565b91506113ca9050565b979650505050505050565b6000806040518060c00160405280896001600160a01b03166338fff2d06040518163ffffffff1660e01b8152600401602060405180830381865afa158015611421573d6000803e3d6000fd5b505050506040513d601f19601f820116820180604052508101906114459190611f86565b8152602001600081526001600160a01b03808d1660208301528b1660408201526060810187905260800160006040519080825280601f01601f19166020018201604052801561149b576020820181803683370190505b50905260408051608081018252308082526000602083018190529282015260608101829052919250808560028111156114d6576114d661218d565b036114fd57856000815181106114ee576114ee6121a3565b602002602001015190506115be565b60008560028111156115115761151161218d565b146115be5760405163e969f6b360e01b81526001600160a01b038a169063e969f6b39061154490869086906004016122a3565b6020604051808303816000875af192505050801561157f575060408051601f3d908101601f1916820190925261157c91810190611f86565b60015b61158b576110546120a8565b6000876000815181106115a0576115a06121a3565b602002602001015190508181116115b757816115b9565b805b925050505b6115cd8c8985608001516116e0565b6115da88848484426117f5565b9c9b505050505050505050505050565b600061163f826040518060400160405280602081526020017f5361666545524332303a206c6f772d6c6576656c2063616c6c206661696c6564815250856001600160a01b031661191a9092919063ffffffff16565b90508051600014806116605750808060200190518101906116609190611fef565b610d7e5760405162461bcd60e51b815260206004820152602a60248201527f5361666545524332303a204552433230206f7065726174696f6e20646964206e6044820152691bdd081cdd58d8d9595960b21b606482015260840161011b565b80516a636f6e736f6c652e6c6f67602083016000808483855afa5050505050565b80158061175a5750604051636eb1769f60e11b81523060048201526001600160a01b03838116602483015284169063dd62ed3e90604401602060405180830381865afa158015611734573d6000803e3d6000fd5b505050506040513d601f19601f820116820180604052508101906117589190611f86565b155b6117c55760405162461bcd60e51b815260206004820152603660248201527f5361666545524332303a20617070726f76652066726f6d206e6f6e2d7a65726f60448201527520746f206e6f6e2d7a65726f20616c6c6f77616e636560501b606482015260840161011b565b6040516001600160a01b038316602482015260448101829052610d7e90849063095ea7b360e01b90606401610b82565b6040516352bbbe2960e01b81526000906001600160a01b038716906352bbbe299061182a9088908890889088906004016122f5565b6020604051808303816000875af1925050508015611865575060408051601f3d908101601f1916820190925261186291810190611f86565b60015b6118f2576118716120a8565b806308c379a00361097257506118856120c4565b806118905750610974565b6118b9816040518060400160405280600781526020016642414c2335303760c81b815250611931565b156118d757604051637b19dd3560e11b815260040160405180910390fd5b806040516324af18bb60e21b815260040161011b919061217a565b8060000361191357604051635eeb40ff60e11b815260040160405180910390fd5b905061027b565b6060611929848460008561198a565b949350505050565b6000816040516020016119449190611fc3565b604051602081830303815290604052805190602001208360405160200161196b9190611fc3565b6040516020818303038152906040528051906020012014905092915050565b6060824710156119eb5760405162461bcd60e51b815260206004820152602660248201527f416464726573733a20696e73756666696369656e742062616c616e636520666f6044820152651c8818d85b1b60d21b606482015260840161011b565b600080866001600160a01b03168587604051611a079190611fc3565b60006040518083038185875af1925050503d8060008114611a44576040519150601f19603f3d011682016040523d82523d6000602084013e611a49565b606091505b50915091506113ca8783838760608315611ac4578251600003611abd576001600160a01b0385163b611abd5760405162461bcd60e51b815260206004820152601d60248201527f416464726573733a2063616c6c20746f206e6f6e2d636f6e7472616374000000604482015260640161011b565b5081611929565b6119298383815115611ad95781518083602001fd5b8060405162461bcd60e51b815260040161011b919061217a565b6001600160a01b0381168114610ee057600080fd5b8035611b1381611af3565b919050565b634e487b7160e01b600052604160045260246000fd5b610100810181811067ffffffffffffffff82111715611b4f57611b4f611b18565b60405250565b601f8201601f1916810167ffffffffffffffff81118282101715611b7b57611b7b611b18565b6040525050565b60008060408385031215611b9557600080fd5b8235611ba081611af3565b915060208381013567ffffffffffffffff80821115611bbe57600080fd5b818601915086601f830112611bd257600080fd5b813581811115611be457611be4611b18565b6040519150611bfc601f8201601f1916850183611b55565b8082528784828501011115611c1057600080fd5b80848401858401376000848284010152508093505050509250929050565b803562ffffff81168114611b1357600080fd5b600082601f830112611c5257600080fd5b8135602067ffffffffffffffff821115611c6e57611c6e611b18565b8160051b604051611c8183830182611b55565b92835284810182019282810187851115611c9a57600080fd5b83870192505b84831015611cb75782358152918301918301611ca0565b509695505050505050565b6000806000806000858703610180811215611cdc57600080fd5b61010080821215611cec57600080fd5b6040519150611cfa82611b2e565b611d0388611b08565b8252611d1160208901611c2e565b6020830152611d2260408901611b08565b6040830152611d3360608901611b08565b6060830152611d4460808901611b08565b6080830152611d5560a08901611b08565b60a0830152611d6660c08901611b08565b60c0830152611d7760e08901611b08565b60e0830152819650611d8a818901611b08565b95505050611d9b6101208701611b08565b9250610140860135915061016086013567ffffffffffffffff811115611dc057600080fd5b611dcc88828901611c41565b9150509295509295909350565b600080600060608486031215611dee57600080fd5b8335611df981611af3565b92506020840135611e0981611af3565b929592945050506040919091013590565b600080600083850360a0811215611e3057600080fd5b8435611e3b81611af3565b93506020850135611e4b81611af3565b92506060603f1982011215611e5f57600080fd5b506040516060810181811067ffffffffffffffff82111715611e8357611e83611b18565b8060405250604085013581526060850135602082015260808501356040820152809150509250925092565b60008060008060008060c08789031215611ec757600080fd5b8635611ed281611af3565b95506020870135611ee281611af3565b94506040870135611ef281611af3565b93506060870135611f0281611af3565b9598949750929560808101359460a0909101359350915050565b600080600080600060a08688031215611f3457600080fd5b855194506020860151935060408601519250606086015191506080860151611f5b81611af3565b809150509295509295909350565b600060208284031215611f7b57600080fd5b81516104d481611af3565b600060208284031215611f9857600080fd5b5051919050565b60005b83811015611fba578181015183820152602001611fa2565b50506000910152565b60008251611fd5818460208701611f9f565b9190910192915050565b80518015158114611b1357600080fd5b60006020828403121561200157600080fd5b6104d482611fdf565b60008060006060848603121561201f57600080fd5b61202884611fdf565b925060208401519150604084015190509250925092565b81516001600160a01b03908116825260208084015182169083015260408084015162ffffff16908301526060808401518216908301526080808401519083015260a0838101519083015260c0808401519083015260e09283015116918101919091526101000190565b600060033d11156120c15760046000803e5060005160e01c5b90565b600060443d10156120d25790565b6040516003193d81016004833e81513d67ffffffffffffffff816024840111818411171561210257505050505090565b828501915081518181111561211a5750505050505090565b843d87010160208285010111156121345750505050505090565b61214360208286010187611b55565b509095945050505050565b60008151808452612166816020860160208601611f9f565b601f01601f19169290920160200192915050565b6020815260006104d4602083018461214e565b634e487b7160e01b600052602160045260246000fd5b634e487b7160e01b600052603260045260246000fd5b634e487b7160e01b600052601160045260246000fd5b808201808211156112f5576112f56121b9565b6040815260006121f5604083018561214e565b905060018060a01b03831660208301529392505050565b60408152600061221f604083018561214e565b90508260208301529392505050565b80518252600060208201516002811061225757634e487b7160e01b600052602160045260246000fd5b80602085015250604082015160018060a01b03808216604086015280606085015116606086015250506080820151608084015260a082015160c060a08501526112f160c085018261214e565b60a0815260006122b660a083018561222e565b90506104d4602083018480516001600160a01b039081168352602080830151151590840152604080830151909116908301526060908101511515910152565b60e08152600061230860e083018761222e565b9050612347602083018680516001600160a01b039081168352602080830151151590840152604080830151909116908301526060908101511515910152565b60a082019390935260c0015292915050565b60006020828403121561236b57600080fd5b815160ff811681146104d457600080fd5b818103818111156112f5576112f56121b9565b600181815b808511156123ca5781600019048211156123b0576123b06121b9565b808516156123bd57918102915b93841c9390800290612394565b509250929050565b6000826123e1575060016112f5565b816123ee575060006112f5565b8160018114612404576002811461240e5761242a565b60019150506112f5565b60ff84111561241f5761241f6121b9565b50506001821b6112f5565b5060208310610133831016604e8410600b841016171561244d575081810a6112f5565b612457838361238f565b806000190482111561246b5761246b6121b9565b029392505050565b60006104d483836123d2565b60008261249c57634e487b7160e01b600052601260045260246000fd5b50049056fea2646970667358221220e011f83165bb8fd9c13718b418cc83a226fe7974a80ce68cf594b1dd53c4a48a64736f6c63430008150033",
    "linkReferences": {}
  },
  "methodIdentifiers": {
    "recicleOZL(address,address,uint256)": "ab399cf8",
    "sendLSD(address,address,uint256)": "dde5543b",
    "useOZL((address,uint24,address,address,address,address,address,address),address,address,uint256,uint256[])": "a2e202f8",
    "useOZL2(address,address,address,address,uint256,uint256)": "ee4dff33",
    "useOzTokens(address,bytes)": "a1b86b38",
    "useUnderlying(address,address,(uint256,uint256,uint256))": "b50f68fd"
  },
  "id": 13
}