{
  "abi": [
    {
      "inputs": [
        {
          "internalType": "string",
          "name": "errorMsg",
          "type": "string"
        }
      ],
      "name": "OZError01",
      "type": "error"
    },
    {
      "inputs": [],
      "name": "OZError02",
      "type": "error"
    },
    {
      "inputs": [
        {
          "internalType": "string",
          "name": "errorCode",
          "type": "string"
        }
      ],
      "name": "OZError10",
      "type": "error"
    },
    {
      "inputs": [
        {
          "internalType": "address",
          "name": "caller",
          "type": "address"
        }
      ],
      "name": "OZError13",
      "type": "error"
    },
    {
      "inputs": [
        {
          "internalType": "address",
          "name": "tokenIn_",
          "type": "address"
        },
        {
          "internalType": "address",
          "name": "tokenOut_",
          "type": "address"
        },
        {
          "internalType": "address",
          "name": "sender_",
          "type": "address"
        },
        {
          "internalType": "address",
          "name": "receiver_",
          "type": "address"
        },
        {
          "internalType": "uint256",
          "name": "amountIn_",
          "type": "uint256"
        },
        {
          "internalType": "uint256",
          "name": "minAmountOut_",
          "type": "uint256"
        }
      ],
      "name": "useOZL",
      "outputs": [],
      "stateMutability": "nonpayable",
      "type": "function"
    },
    {
      "inputs": [
        {
          "internalType": "address",
          "name": "owner_",
          "type": "address"
        },
        {
          "internalType": "bytes",
          "name": "data_",
          "type": "bytes"
        }
      ],
      "name": "useOzTokens",
      "outputs": [
        {
          "internalType": "uint256",
          "name": "amountOut",
          "type": "uint256"
        }
      ],
      "stateMutability": "nonpayable",
      "type": "function"
    },
    {
      "inputs": [
        {
          "internalType": "address",
          "name": "underlying_",
          "type": "address"
        },
        {
          "internalType": "address",
          "name": "owner_",
          "type": "address"
        },
        {
          "components": [
            {
              "internalType": "uint256",
              "name": "amountIn",
              "type": "uint256"
            },
            {
              "internalType": "uint256",
              "name": "minWethOut",
              "type": "uint256"
            },
            {
              "internalType": "uint256",
              "name": "minRethOut",
              "type": "uint256"
            }
          ],
          "internalType": "struct AmountsIn",
          "name": "amounts_",
          "type": "tuple"
        }
      ],
      "name": "useUnderlying",
      "outputs": [],
      "stateMutability": "nonpayable",
      "type": "function"
    }
  ],
  "bytecode": {
    "object": "0x608060405234801561001057600080fd5b50611750806100206000396000f3fe608060405234801561001057600080fd5b50600436106100415760003560e01c806350d5d8cc14610046578063a1b86b381461005b578063b50f68fd14610080575b600080fd5b61005961005436600461102d565b610093565b005b61006e6100693660046110de565b610263565b60405190815260200160405180910390f35b61005961008e36600461118a565b6103dd565b6100c760405180604001604052806012815260200171039b2b73232b91034b7103ab9b2a7ad261d160751b815250336105b2565b6100f86040518060400160405280600f81526020016e030b2323932b9b9943a3434b9949d1608d1b815250306105b2565b604080518082018252601881527f724554482062616c2073656e64657220696e207573653a200000000000000000602082015290516370a0823160e01b815233600482015261019c91906001600160a01b038916906370a0823190602401602060405180830381865afa158015610173573d6000803e3d6000fd5b505050506040513d601f19601f82011682018060405250810190610197919061121e565b6105fb565b6003546101b79087906001600160a01b031686808686610640565b6101e160405180604001604052806009815260200168676f6f64206865726560b81b8152506106cc565b6003546040516370a0823160e01b815230600482015261025a916001600160a01b031690879082906370a0823190602401602060405180830381865afa15801561022f573d6000803e3d6000fd5b505050506040513d601f19601f82011682018060405250810190610253919061121e565b8487610712565b50505050505050565b3360009081526015602052604081205460ff1661029a5760405163a43f931360e01b81523360048201526024015b60405180910390fd5b6000806000806000868060200190518101906102b69190611237565b9398509196509450925090506102ce338930886108ae565b600a546003546102ec916001600160a01b03908116911686866109b8565b600354604080516338d52e0f60e01b815290516103d1926001600160a01b03169133916338d52e0f916004808201926020929091908290030181865afa15801561033a573d6000803e3d6000fd5b505050506040513d601f19601f8201168201806040525081019061035e9190611284565b6003546040516370a0823160e01b81523060048201526001600160a01b03909116906370a0823190602401602060405180830381865afa1580156103a6573d6000803e3d6000fd5b505050506040513d601f19601f820116820180604052508101906103ca919061121e565b8585610712565b98975050505050505050565b3360009081526015602052604090205460ff1661040f5760405163a43f931360e01b8152336004820152602401610291565b80516104266001600160a01b0385168430846108ae565b60035460208301516000916104499187916001600160a01b031690859030610712565b905061045481610a50565b1561058757600354604051632e1a7d4d60e01b8152600481018390526001600160a01b0390911690632e1a7d4d90602401600060405180830381600087803b15801561049f57600080fd5b505af11580156104b3573d6000803e3d6000fd5b50506010546011546040516321f8a72160e01b81526004810191909152600093506001600160a01b0390911691506321f8a72190602401602060405180830381865afa158015610507573d6000803e3d6000fd5b505050506040513d601f19601f8201168201806040525081019061052b9190611284565b9050806001600160a01b031663d0e30db0836040518263ffffffff1660e01b81526004016000604051808303818588803b15801561056857600080fd5b505af115801561057c573d6000803e3d6000fd5b5050505050506105ab565b600354600a5460408501516105ab926001600160a01b0390811692169084906109b8565b5050505050565b6105f782826040516024016105c89291906112f8565b60408051601f198184030181529190526020810180516001600160e01b031663319af33360e01b179052610bdf565b5050565b6105f78282604051602401610611929190611322565b60408051601f198184030181529190526020810180516001600160e01b03166309710a9d60e41b179052610bdf565b6000805460408051631c0de05160e01b815290516001600160a01b0390921691631c0de051916004808201926060929091908290030181865afa15801561068b573d6000803e3d6000fd5b505050506040513d601f19601f820116820180604052508101906106af9190611359565b50509050801561025a576106c68787858588610712565b5061025a565b61070f816040516024016106e0919061138e565b60408051601f198184030181529190526020810180516001600160e01b031663104c13eb60e21b179052610bdf565b50565b60065460009061072f906001600160a01b03888116911686610c00565b60408051610100810182526001600160a01b038089168252878116602083015260145462ffffff1692820192909252908316606082015242608082015260a0810185905260009060c081016107848689610cf9565b815260006020918201526006546040805163414bf38960e01b815284516001600160a01b03908116600483015293850151841660248201529084015162ffffff1660448201526060840151831660648201526080840151608482015260a084015160a482015260c084015160c482015260e0840151831660e4820152929350169063414bf38990610104016020604051808303816000875af192505050801561084a575060408051601f3d908101601f191682019092526108479181019061121e565b60015b61089c576108566113a1565b806308c379a003610890575061086a6113bd565b806108755750610892565b8060405163633abab960e01b8152600401610291919061138e565b505b3d6000803e3d6000fd5b91506108a59050565b95945050505050565b604080516001600160a01b0385811660248301528481166044830152606480830185905283518084039091018152608490920183526020820180516001600160e01b03166323b872dd60e01b17905291516000928392908816916109129190611447565b6000604051808303816000865af19150503d806000811461094f576040519150601f19603f3d011682016040523d82523d6000602084013e610954565b606091505b509150915081801561097e57508051158061097e57508080602001905181019061097e9190611463565b6109b05760405162461bcd60e51b815260206004820152600360248201526229aa2360e91b6044820152606401610291565b505050505050565b6000805460408051631c0de05160e01b815290516001600160a01b0390921691631c0de051916004808201926060929091908290030181865afa158015610a03573d6000803e3d6000fd5b505050506040513d601f19601f82011682018060405250810190610a279190611359565b505090508015610a4457610a3e8585858530610712565b506105ab565b6105ab85858585610d9c565b6012546040516335ee5f8760e01b81526020600482015260116024820152701c9bd8dad95d11195c1bdcda5d141bdbdb607a1b604482015260009182916001600160a01b03909116906335ee5f8790606401602060405180830381865afa158015610abf573d6000803e3d6000fd5b505050506040513d601f19601f82011682018060405250810190610ae3919061121e565b90506000610af18483611494565b6010546013546040516321f8a72160e01b81529293506000926001600160a01b03909216916321f8a72191610b2c9160040190815260200190565b602060405180830381865afa158015610b49573d6000803e3d6000fd5b505050506040513d601f19601f82011682018060405250810190610b6d9190611284565b90506000816001600160a01b031663fd6ce89e6040518163ffffffff1660e01b8152600401602060405180830381865afa158015610baf573d6000803e3d6000fd5b505050506040513d601f19601f82011682018060405250810190610bd3919061121e565b90921095945050505050565b80516a636f6e736f6c652e6c6f67602083016000808483855afa5050505050565b604080516001600160a01b038481166024830152604480830185905283518084039091018152606490920183526020820180516001600160e01b031663095ea7b360e01b1790529151600092839290871691610c5c9190611447565b6000604051808303816000865af19150503d8060008114610c99576040519150601f19603f3d011682016040523d82523d6000602084013e610c9e565b606091505b5091509150818015610cc8575080511580610cc8575080806020019051810190610cc89190611463565b6105ab5760405162461bcd60e51b8152602060048201526002602482015261534160f01b6044820152606401610291565b600080826001600160a01b031663313ce5676040518163ffffffff1660e01b8152600401602060405180830381865afa158015610d3a573d6000803e3d6000fd5b505050506040513d601f19601f82011682018060405250810190610d5e91906114a7565b60ff16905080601214610d9057610d768160126114ca565b610d8190600a6115c1565b610d8b90856115cd565b610d92565b835b9150505b92915050565b6040805160c081018083526000805463038fff2d60e41b909252925183929182916001600160a01b03909116906338fff2d09060c4808501916020918187030181865afa158015610df1573d6000803e3d6000fd5b505050506040513d601f19601f82011682018060405250810190610e15919061121e565b8152602001600081526001600160a01b038089166020830152871660408201526060810186905260800160006040519080825280601f01601f191660200182016040528015610e6b576020820181803683370190505b5090526040805160808101825230808252600060208301819052828401919091526060820152600954915163e969f6b360e01b8152929350916001600160a01b039091169063e969f6b390610ec69085908590600401611664565b6020604051808303816000875af1925050508015610f01575060408051601f3d908101601f19168201909252610efe9181019061121e565b60015b610f4757610f0d6113a1565b806308c379a0036108905750610f216113bd565b80610f2c5750610892565b8060405163dafe91cd60e01b8152600401610291919061138e565b6000818611610f565781610f58565b855b6008546080860151919250610f7a916001600160a01b038c8116921690610c00565b6008546040516352bbbe2960e01b81526001600160a01b03909116906352bbbe2990610fb09087908790869042906004016116b6565b6020604051808303816000875af1158015610fcf573d6000803e3d6000fd5b505050506040513d601f19601f82011682018060405250810190610ff3919061121e565b945050508260000361025a57604051635eeb40ff60e11b815260040160405180910390fd5b6001600160a01b038116811461070f57600080fd5b60008060008060008060c0878903121561104657600080fd5b863561105181611018565b9550602087013561106181611018565b9450604087013561107181611018565b9350606087013561108181611018565b9598949750929560808101359460a0909101359350915050565b634e487b7160e01b600052604160045260246000fd5b601f8201601f1916810167ffffffffffffffff811182821017156110d7576110d761109b565b6040525050565b600080604083850312156110f157600080fd5b82356110fc81611018565b915060208381013567ffffffffffffffff8082111561111a57600080fd5b818601915086601f83011261112e57600080fd5b8135818111156111405761114061109b565b6040519150611158601f8201601f19168501836110b1565b808252878482850101111561116c57600080fd5b80848401858401376000848284010152508093505050509250929050565b600080600083850360a08112156111a057600080fd5b84356111ab81611018565b935060208501356111bb81611018565b92506060603f19820112156111cf57600080fd5b506040516060810181811067ffffffffffffffff821117156111f3576111f361109b565b8060405250604085013581526060850135602082015260808501356040820152809150509250925092565b60006020828403121561123057600080fd5b5051919050565b600080600080600060a0868803121561124f57600080fd5b85519450602086015193506040860151925060608601519150608086015161127681611018565b809150509295509295909350565b60006020828403121561129657600080fd5b81516112a181611018565b9392505050565b60005b838110156112c35781810151838201526020016112ab565b50506000910152565b600081518084526112e48160208601602086016112a8565b601f01601f19169290920160200192915050565b60408152600061130b60408301856112cc565b905060018060a01b03831660208301529392505050565b60408152600061133560408301856112cc565b90508260208301529392505050565b8051801515811461135457600080fd5b919050565b60008060006060848603121561136e57600080fd5b61137784611344565b925060208401519150604084015190509250925092565b6020815260006112a160208301846112cc565b600060033d11156113ba5760046000803e5060005160e01c5b90565b600060443d10156113cb5790565b6040516003193d81016004833e81513d67ffffffffffffffff81602484011181841117156113fb57505050505090565b82850191508151818111156114135750505050505090565b843d870101602082850101111561142d5750505050505090565b61143c602082860101876110b1565b509095945050505050565b600082516114598184602087016112a8565b9190910192915050565b60006020828403121561147557600080fd5b6112a182611344565b634e487b7160e01b600052601160045260246000fd5b80820180821115610d9657610d9661147e565b6000602082840312156114b957600080fd5b815160ff811681146112a157600080fd5b81810381811115610d9657610d9661147e565b600181815b808511156115185781600019048211156114fe576114fe61147e565b8085161561150b57918102915b93841c93908002906114e2565b509250929050565b60008261152f57506001610d96565b8161153c57506000610d96565b8160018114611552576002811461155c57611578565b6001915050610d96565b60ff84111561156d5761156d61147e565b50506001821b610d96565b5060208310610133831016604e8410600b841016171561159b575081810a610d96565b6115a583836114dd565b80600019048211156115b9576115b961147e565b029392505050565b60006112a18383611520565b6000826115ea57634e487b7160e01b600052601260045260246000fd5b500490565b80518252600060208201516002811061161857634e487b7160e01b600052602160045260246000fd5b80602085015250604082015160018060a01b03808216604086015280606085015116606086015250506080820151608084015260a082015160c060a0850152610d9260c08501826112cc565b60a08152600061167760a08301856115ef565b90506112a1602083018480516001600160a01b039081168352602080830151151590840152604080830151909116908301526060908101511515910152565b60e0815260006116c960e08301876115ef565b9050611708602083018680516001600160a01b039081168352602080830151151590840152604080830151909116908301526060908101511515910152565b60a082019390935260c001529291505056fea2646970667358221220bebf0e254252f01d407c77324078c216e7648ae9220599e44a7920a8751a003a64736f6c63430008150033",
    "linkReferences": {}
  },
  "methodIdentifiers": {
    "useOZL(address,address,address,address,uint256,uint256)": "50d5d8cc",
    "useOzTokens(address,bytes)": "a1b86b38",
    "useUnderlying(address,address,(uint256,uint256,uint256))": "b50f68fd"
  },
  "id": 13
}