{
  "abi": [
    {
      "inputs": [
        {
          "internalType": "string",
          "name": "errorMsg",
          "type": "string"
        }
      ],
      "name": "OZError01",
      "type": "error"
    },
    {
      "inputs": [],
      "name": "OZError02",
      "type": "error"
    },
    {
      "inputs": [
        {
          "internalType": "address",
          "name": "caller",
          "type": "address"
        }
      ],
      "name": "OZError13",
      "type": "error"
    },
    {
      "inputs": [],
      "name": "OZError20",
      "type": "error"
    },
    {
      "inputs": [
        {
          "internalType": "string",
          "name": "reason",
          "type": "string"
        }
      ],
      "name": "OZError21",
      "type": "error"
    },
    {
      "inputs": [],
      "name": "claimReward",
      "outputs": [
        {
          "internalType": "uint256",
          "name": "",
          "type": "uint256"
        }
      ],
      "stateMutability": "nonpayable",
      "type": "function"
    },
    {
      "inputs": [
        {
          "internalType": "address",
          "name": "user_",
          "type": "address"
        }
      ],
      "name": "earned",
      "outputs": [
        {
          "internalType": "uint256",
          "name": "",
          "type": "uint256"
        }
      ],
      "stateMutability": "view",
      "type": "function"
    },
    {
      "inputs": [],
      "name": "getCirculatingSupply",
      "outputs": [
        {
          "internalType": "uint256",
          "name": "",
          "type": "uint256"
        }
      ],
      "stateMutability": "view",
      "type": "function"
    },
    {
      "inputs": [],
      "name": "getRecicledSupply",
      "outputs": [
        {
          "internalType": "uint256",
          "name": "",
          "type": "uint256"
        }
      ],
      "stateMutability": "view",
      "type": "function"
    },
    {
      "inputs": [],
      "name": "getRewardRate",
      "outputs": [
        {
          "internalType": "uint256",
          "name": "",
          "type": "uint256"
        }
      ],
      "stateMutability": "view",
      "type": "function"
    },
    {
      "inputs": [],
      "name": "lastTimeRewardApplicable",
      "outputs": [
        {
          "internalType": "uint256",
          "name": "",
          "type": "uint256"
        }
      ],
      "stateMutability": "view",
      "type": "function"
    },
    {
      "inputs": [
        {
          "internalType": "uint256",
          "name": "amount_",
          "type": "uint256"
        }
      ],
      "name": "notifyRewardAmount",
      "outputs": [],
      "stateMutability": "nonpayable",
      "type": "function"
    },
    {
      "inputs": [
        {
          "internalType": "address",
          "name": "owner_",
          "type": "address"
        },
        {
          "internalType": "address",
          "name": "ozl_",
          "type": "address"
        },
        {
          "internalType": "uint256",
          "name": "amountIn_",
          "type": "uint256"
        }
      ],
      "name": "recicleOZL",
      "outputs": [],
      "stateMutability": "nonpayable",
      "type": "function"
    },
    {
      "inputs": [],
      "name": "rewardPerToken",
      "outputs": [
        {
          "internalType": "uint256",
          "name": "",
          "type": "uint256"
        }
      ],
      "stateMutability": "view",
      "type": "function"
    },
    {
      "inputs": [
        {
          "internalType": "uint256",
          "name": "duration_",
          "type": "uint256"
        }
      ],
      "name": "setRewardsDuration",
      "outputs": [],
      "stateMutability": "nonpayable",
      "type": "function"
    },
    {
      "inputs": [
        {
          "internalType": "address",
          "name": "tokenOut_",
          "type": "address"
        },
        {
          "internalType": "address",
          "name": "receiver_",
          "type": "address"
        },
        {
          "internalType": "uint256",
          "name": "amountInLsd_",
          "type": "uint256"
        },
        {
          "internalType": "uint256[]",
          "name": "minAmountsOut_",
          "type": "uint256[]"
        }
      ],
      "name": "useOZL",
      "outputs": [
        {
          "internalType": "uint256",
          "name": "",
          "type": "uint256"
        }
      ],
      "stateMutability": "nonpayable",
      "type": "function"
    },
    {
      "inputs": [
        {
          "internalType": "address",
          "name": "owner_",
          "type": "address"
        },
        {
          "internalType": "bytes",
          "name": "data_",
          "type": "bytes"
        }
      ],
      "name": "useOzTokens",
      "outputs": [
        {
          "internalType": "uint256",
          "name": "amountOut",
          "type": "uint256"
        }
      ],
      "stateMutability": "nonpayable",
      "type": "function"
    },
    {
      "inputs": [
        {
          "internalType": "address",
          "name": "underlying_",
          "type": "address"
        },
        {
          "internalType": "address",
          "name": "owner_",
          "type": "address"
        },
        {
          "components": [
            {
              "internalType": "uint256",
              "name": "amountIn",
              "type": "uint256"
            },
            {
              "internalType": "uint256[]",
              "name": "minAmountsOut",
              "type": "uint256[]"
            }
          ],
          "internalType": "struct AmountsIn",
          "name": "amounts_",
          "type": "tuple"
        }
      ],
      "name": "useUnderlying",
      "outputs": [],
      "stateMutability": "nonpayable",
      "type": "function"
    }
  ],
  "bytecode": {
    "object": "0x608060405234801561001057600080fd5b50611af4806100206000396000f3fe608060405234801561001057600080fd5b50600436106100ce5760003560e01c806380faa57d1161008c578063ab399cf811610066578063ab399cf81461014c578063b88a802f1461010c578063cc1a378f14610113578063cd3daf9d1461010c57600080fd5b806380faa57d1461010c5780639ea04fe414610126578063a1b86b381461013957600080fd5b80628cc262146100d3578063094463e7146100f95780632b112e491461010c5780633c6b16ab146101135780636a533a4c1461010c5780637e1a37861461010c575b600080fd5b6100e76100e1366004611294565b50600090565b60405190815260200160405180910390f35b6100e7610107366004611390565b61015f565b60006100e7565b6101246101213660046113fc565b50565b005b610124610134366004611415565b610187565b6100e76101473660046114c9565b61037c565b61012461015a366004611575565b61049f565b60095460009061017c906001600160a01b03168686868686610501565b90505b949350505050565b3360009081526014602052604090205460ff166101be5760405163a43f931360e01b81523360048201526024015b60405180910390fd5b805160208201516101da6001600160a01b038616853085610644565b60035481516000916102139188916001600160a01b0316903090879087908790610206576102066115b6565b6020026020010151610746565b905061021e816108e2565b1561035157600354604051632e1a7d4d60e01b8152600481018390526001600160a01b0390911690632e1a7d4d90602401600060405180830381600087803b15801561026957600080fd5b505af115801561027d573d6000803e3d6000fd5b5050600f546010546040516321f8a72160e01b81526004810191909152600093506001600160a01b0390911691506321f8a72190602401602060405180830381865afa1580156102d1573d6000803e3d6000fd5b505050506040513d601f19601f820116820180604052508101906102f591906115cc565b9050806001600160a01b031663d0e30db0836040518263ffffffff1660e01b81526004016000604051808303818588803b15801561033257600080fd5b505af1158015610346573d6000803e3d6000fd5b505050505050610374565b600354600954610372916001600160a01b0390811691163084866001610501565b505b505050505050565b3360009081526014602052604081205460ff166103ae5760405163a43f931360e01b81523360048201526024016101b5565b600080600080858060200190518101906103c891906115f9565b929650909450925090506103de33883087610644565b6009546003546103ff916001600160a01b0390811691163086866002610501565b9450610494600060030160009054906101000a90046001600160a01b0316336001600160a01b03166338d52e0f6040518163ffffffff1660e01b8152600401602060405180830381865afa15801561045b573d6000803e3d6000fd5b505050506040513d601f19601f8201168201806040525081019061047f91906115cc565b838886600181518110610206576102066115b6565b979650505050505050565b6104b46001600160a01b038316843084610a71565b60405163c3ae3a0960e01b815260048101829052309063c3ae3a0990602401600060405180830381600087803b1580156104ed57600080fd5b505af1158015610372573d6000803e3d6000fd5b600080600061051184868a610ae2565b9150915060008060000160009054906101000a90046001600160a01b03166001600160a01b0316631c0de0516040518163ffffffff1660e01b8152600401606060405180830381865afa15801561056c573d6000803e3d6000fd5b505050506040513d601f19601f8201168201806040525081019061059091906116cb565b5050905080156105ae576105a78a84308a86610746565b93506105bd565b6105ba8a848985610ba0565b93505b60008560028111156105d1576105d1611700565b03610637576003546001600160a01b03908116908a160361060857600354610603906001600160a01b03168986610cc5565b610637565b6003548651610634916001600160a01b0316908b908b9088908b906001908110610206576102066115b6565b93505b5050509695505050505050565b604080516001600160a01b0385811660248301528481166044830152606480830185905283518084039091018152608490920183526020820180516001600160e01b03166323b872dd60e01b17905291516000928392908816916106a8919061173a565b6000604051808303816000865af19150503d80600081146106e5576040519150601f19603f3d011682016040523d82523d6000602084013e6106ea565b606091505b50915091508180156107145750805115806107145750808060200190518101906107149190611756565b6103745760405162461bcd60e51b815260206004820152600360248201526229aa2360e91b60448201526064016101b5565b600654600090610763906001600160a01b03888116911685610cfa565b60408051610100810182526001600160a01b038089168252878116602083015260135462ffffff1692820192909252908516606082015242608082015260a0810184905260009060c081016107b88589610e0f565b815260006020918201526006546040805163414bf38960e01b815284516001600160a01b03908116600483015293850151841660248201529084015162ffffff1660448201526060840151831660648201526080840151608482015260a084015160a482015260c084015160c482015260e0840151831660e4820152929350169063414bf38990610104016020604051808303816000875af192505050801561087e575060408051601f3d908101601f1916820190925261087b91810190611771565b60015b6108d05761088a61178a565b806308c379a0036108c4575061089e6117a6565b806108a957506108c6565b8060405163633abab960e01b81526004016101b5919061185c565b505b3d6000803e3d6000fd5b91506108d99050565b95945050505050565b601180546040516335ee5f8760e01b8152602060048201526024810192909252701c9bd8dad95d11195c1bdcda5d141bdbdb607a1b604483015260009182916001600160a01b0316906335ee5f8790606401602060405180830381865afa158015610951573d6000803e3d6000fd5b505050506040513d601f19601f820116820180604052508101906109759190611771565b905060006109838483611885565b600f546012546040516321f8a72160e01b81529293506000926001600160a01b03909216916321f8a721916109be9160040190815260200190565b602060405180830381865afa1580156109db573d6000803e3d6000fd5b505050506040513d601f19601f820116820180604052508101906109ff91906115cc565b90506000816001600160a01b031663fd6ce89e6040518163ffffffff1660e01b8152600401602060405180830381865afa158015610a41573d6000803e3d6000fd5b505050506040513d601f19601f82011682018060405250810190610a659190611771565b90921095945050505050565b6040516001600160a01b0380851660248301528316604482015260648101829052610adc9085906323b872dd60e01b906084015b60408051601f198184030181529190526020810180516001600160e01b03166001600160e01b031990931692909217909152610eb2565b50505050565b60008080856002811115610af857610af8611700565b03610b2f5760035484516001600160a01b0390911692508490600090610b2057610b206115b6565b60200260200101519050610b98565b6001856002811115610b4357610b43611700565b03610b5e5782915083600181518110610b2057610b206115b6565b6002856002811115610b7257610b72611700565b03610b985782915083600081518110610b8d57610b8d6115b6565b602002602001015190505b935093915050565b6040805160c081018083526000805463038fff2d60e41b909252925183929182916001600160a01b03909116906338fff2d09060c4808501916020918187030181865afa158015610bf5573d6000803e3d6000fd5b505050506040513d601f19601f82011682018060405250810190610c199190611771565b8152602001600081526001600160a01b038089166020830152871660408201526060810186905260800160006040519080825280601f01601f191660200182016040528015610c6f576020820181803683370190505b5090526040805160808082018352308083526000602084018190529383015260608201929092526008549183015192935091610cb9916001600160a01b038a811692911690610cfa565b61049482828642610f87565b6040516001600160a01b038316602482015260448101829052610cf590849063a9059cbb60e01b90606401610aa5565b505050565b801580610d745750604051636eb1769f60e11b81523060048201526001600160a01b03838116602483015284169063dd62ed3e90604401602060405180830381865afa158015610d4e573d6000803e3d6000fd5b505050506040513d601f19601f82011682018060405250810190610d729190611771565b155b610ddf5760405162461bcd60e51b815260206004820152603660248201527f5361666545524332303a20617070726f76652066726f6d206e6f6e2d7a65726f60448201527520746f206e6f6e2d7a65726f20616c6c6f77616e636560501b60648201526084016101b5565b6040516001600160a01b038316602482015260448101829052610cf590849063095ea7b360e01b90606401610aa5565b600080826001600160a01b031663313ce5676040518163ffffffff1660e01b8152600401602060405180830381865afa158015610e50573d6000803e3d6000fd5b505050506040513d601f19601f82011682018060405250810190610e749190611898565b60ff16905080601214610ea657610e8c8160126118bb565b610e9790600a6119b2565b610ea190856119be565b610ea8565b835b9150505b92915050565b6000610f07826040518060400160405280602081526020017f5361666545524332303a206c6f772d6c6576656c2063616c6c206661696c6564815250856001600160a01b03166110ae9092919063ffffffff16565b9050805160001480610f28575080806020019051810190610f289190611756565b610cf55760405162461bcd60e51b815260206004820152602a60248201527f5361666545524332303a204552433230206f7065726174696f6e20646964206e6044820152691bdd081cdd58d8d9595960b21b60648201526084016101b5565b6008546040516352bbbe2960e01b81526000916001600160a01b0316906352bbbe2990610fbe9088908890889088906004016119e0565b6020604051808303816000875af1925050508015610ff9575060408051601f3d908101601f19168201909252610ff691810190611771565b60015b6110865761100561178a565b806308c379a0036108c457506110196117a6565b8061102457506108c6565b61104d816040518060400160405280600781526020016642414c2335303760c81b8152506110bd565b1561106b57604051637b19dd3560e11b815260040160405180910390fd5b806040516324af18bb60e21b81526004016101b5919061185c565b806000036110a757604051635eeb40ff60e11b815260040160405180910390fd5b905061017f565b606061017f8484600085611116565b6000816040516020016110d0919061173a565b60405160208183030381529060405280519060200120836040516020016110f7919061173a565b6040516020818303038152906040528051906020012014905092915050565b6060824710156111775760405162461bcd60e51b815260206004820152602660248201527f416464726573733a20696e73756666696369656e742062616c616e636520666f6044820152651c8818d85b1b60d21b60648201526084016101b5565b600080866001600160a01b03168587604051611193919061173a565b60006040518083038185875af1925050503d80600081146111d0576040519150601f19603f3d011682016040523d82523d6000602084013e6111d5565b606091505b50915091506104948783838760608315611250578251600003611249576001600160a01b0385163b6112495760405162461bcd60e51b815260206004820152601d60248201527f416464726573733a2063616c6c20746f206e6f6e2d636f6e747261637400000060448201526064016101b5565b508161017f565b61017f83838151156112655781518083602001fd5b8060405162461bcd60e51b81526004016101b5919061185c565b6001600160a01b038116811461012157600080fd5b6000602082840312156112a657600080fd5b81356112b18161127f565b9392505050565b634e487b7160e01b600052604160045260246000fd5b601f8201601f1916810167ffffffffffffffff811182821017156112f4576112f46112b8565b6040525050565b600067ffffffffffffffff821115611315576113156112b8565b5060051b60200190565b600082601f83011261133057600080fd5b8135602061133d826112fb565b60405161134a82826112ce565b83815260059390931b850182019282810191508684111561136a57600080fd5b8286015b84811015611385578035835291830191830161136e565b509695505050505050565b600080600080608085870312156113a657600080fd5b84356113b18161127f565b935060208501356113c18161127f565b925060408501359150606085013567ffffffffffffffff8111156113e457600080fd5b6113f08782880161131f565b91505092959194509250565b60006020828403121561140e57600080fd5b5035919050565b60008060006060848603121561142a57600080fd5b83356114358161127f565b925060208401356114458161127f565b9150604084013567ffffffffffffffff8082111561146257600080fd5b908501906040828803121561147657600080fd5b604051604081018181108382111715611491576114916112b8565b604052823581526020830135828111156114aa57600080fd5b6114b68982860161131f565b6020830152508093505050509250925092565b600080604083850312156114dc57600080fd5b82356114e78161127f565b915060208381013567ffffffffffffffff8082111561150557600080fd5b818601915086601f83011261151957600080fd5b81358181111561152b5761152b6112b8565b6040519150611543601f8201601f19168501836112ce565b808252878482850101111561155757600080fd5b80848401858401376000848284010152508093505050509250929050565b60008060006060848603121561158a57600080fd5b83356115958161127f565b925060208401356115a58161127f565b929592945050506040919091013590565b634e487b7160e01b600052603260045260246000fd5b6000602082840312156115de57600080fd5b81516112b18161127f565b80516115f48161127f565b919050565b6000806000806080858703121561160f57600080fd5b845193506020808601519350604086015167ffffffffffffffff81111561163557600080fd5b8601601f8101881361164657600080fd5b8051611651816112fb565b60405161165e82826112ce565b82815260059290921b830184019184810191508a83111561167e57600080fd5b928401925b8284101561169c57835182529284019290840190611683565b80965050505050506116b0606086016115e9565b905092959194509250565b805180151581146115f457600080fd5b6000806000606084860312156116e057600080fd5b6116e9846116bb565b925060208401519150604084015190509250925092565b634e487b7160e01b600052602160045260246000fd5b60005b83811015611731578181015183820152602001611719565b50506000910152565b6000825161174c818460208701611716565b9190910192915050565b60006020828403121561176857600080fd5b6112b1826116bb565b60006020828403121561178357600080fd5b5051919050565b600060033d11156117a35760046000803e5060005160e01c5b90565b600060443d10156117b45790565b6040516003193d81016004833e81513d67ffffffffffffffff81602484011181841117156117e457505050505090565b82850191508151818111156117fc5750505050505090565b843d87010160208285010111156118165750505050505090565b611825602082860101876112ce565b509095945050505050565b60008151808452611848816020860160208601611716565b601f01601f19169290920160200192915050565b6020815260006112b16020830184611830565b634e487b7160e01b600052601160045260246000fd5b80820180821115610eac57610eac61186f565b6000602082840312156118aa57600080fd5b815160ff811681146112b157600080fd5b81810381811115610eac57610eac61186f565b600181815b808511156119095781600019048211156118ef576118ef61186f565b808516156118fc57918102915b93841c93908002906118d3565b509250929050565b60008261192057506001610eac565b8161192d57506000610eac565b8160018114611943576002811461194d57611969565b6001915050610eac565b60ff84111561195e5761195e61186f565b50506001821b610eac565b5060208310610133831016604e8410600b841016171561198c575081810a610eac565b61199683836118ce565b80600019048211156119aa576119aa61186f565b029392505050565b60006112b18383611911565b6000826119db57634e487b7160e01b600052601260045260246000fd5b500490565b60e08152845160e08201526000602086015160028110611a1057634e487b7160e01b600052602160045260246000fd5b61010083015260408601516001600160a01b03166101208301526060860151611a456101408401826001600160a01b03169052565b50608086015161016083015260a086015160c0610180840152611a6c6101a0840182611830565b915050611aac602083018680516001600160a01b039081168352602080830151151590840152604080830151909116908301526060908101511515910152565b60a082019390935260c001529291505056fea26469706673582212203b05089c38017ecdd71630eb0d7ced6af9a886b3a9e5f3ead644962a28543b8e64736f6c63430008150033",
    "linkReferences": {}
  },
  "methodIdentifiers": {
    "claimReward()": "b88a802f",
    "earned(address)": "008cc262",
    "getCirculatingSupply()": "2b112e49",
    "getRecicledSupply()": "6a533a4c",
    "getRewardRate()": "7e1a3786",
    "lastTimeRewardApplicable()": "80faa57d",
    "notifyRewardAmount(uint256)": "3c6b16ab",
    "recicleOZL(address,address,uint256)": "ab399cf8",
    "rewardPerToken()": "cd3daf9d",
    "setRewardsDuration(uint256)": "cc1a378f",
    "useOZL(address,address,uint256,uint256[])": "094463e7",
    "useOzTokens(address,bytes)": "a1b86b38",
    "useUnderlying(address,address,(uint256,uint256[]))": "9ea04fe4"
  },
  "id": 13
}