{
  "abi": [
    {
      "inputs": [
        {
          "internalType": "string",
          "name": "errorMsg",
          "type": "string"
        }
      ],
      "name": "OZError01",
      "type": "error"
    },
    {
      "inputs": [],
      "name": "OZError02",
      "type": "error"
    },
    {
      "inputs": [
        {
          "internalType": "string",
          "name": "errorCode",
          "type": "string"
        }
      ],
      "name": "OZError10",
      "type": "error"
    },
    {
      "inputs": [
        {
          "internalType": "address",
          "name": "caller",
          "type": "address"
        }
      ],
      "name": "OZError13",
      "type": "error"
    },
    {
      "inputs": [],
      "name": "OZError20",
      "type": "error"
    },
    {
      "inputs": [
        {
          "internalType": "string",
          "name": "reason",
          "type": "string"
        }
      ],
      "name": "OZError21",
      "type": "error"
    },
    {
      "inputs": [
        {
          "internalType": "address",
          "name": "owner_",
          "type": "address"
        },
        {
          "internalType": "address",
          "name": "ozl_",
          "type": "address"
        },
        {
          "internalType": "uint256",
          "name": "amountIn_",
          "type": "uint256"
        }
      ],
      "name": "recicleOZL",
      "outputs": [],
      "stateMutability": "nonpayable",
      "type": "function"
    },
    {
      "inputs": [
        {
          "internalType": "address",
          "name": "lsd_",
          "type": "address"
        },
        {
          "internalType": "address",
          "name": "receiver_",
          "type": "address"
        },
        {
          "internalType": "uint256",
          "name": "amount_",
          "type": "uint256"
        }
      ],
      "name": "sendLSD",
      "outputs": [
        {
          "internalType": "uint256",
          "name": "",
          "type": "uint256"
        }
      ],
      "stateMutability": "nonpayable",
      "type": "function"
    },
    {
      "inputs": [
        {
          "internalType": "address",
          "name": "tokenOut_",
          "type": "address"
        },
        {
          "internalType": "address",
          "name": "receiver_",
          "type": "address"
        },
        {
          "internalType": "uint256",
          "name": "amountInLsd_",
          "type": "uint256"
        },
        {
          "internalType": "uint256[]",
          "name": "minAmountsOut_",
          "type": "uint256[]"
        }
      ],
      "name": "useOZL",
      "outputs": [
        {
          "internalType": "uint256",
          "name": "",
          "type": "uint256"
        }
      ],
      "stateMutability": "nonpayable",
      "type": "function"
    },
    {
      "inputs": [
        {
          "internalType": "address",
          "name": "owner_",
          "type": "address"
        },
        {
          "internalType": "bytes",
          "name": "data_",
          "type": "bytes"
        }
      ],
      "name": "useOzTokens",
      "outputs": [
        {
          "internalType": "uint256",
          "name": "amountOut",
          "type": "uint256"
        }
      ],
      "stateMutability": "nonpayable",
      "type": "function"
    },
    {
      "inputs": [
        {
          "internalType": "address",
          "name": "underlying_",
          "type": "address"
        },
        {
          "internalType": "address",
          "name": "owner_",
          "type": "address"
        },
        {
          "components": [
            {
              "internalType": "uint256",
              "name": "amountIn",
              "type": "uint256"
            },
            {
              "internalType": "uint256",
              "name": "minWethOut",
              "type": "uint256"
            },
            {
              "internalType": "uint256",
              "name": "minRethOut",
              "type": "uint256"
            }
          ],
          "internalType": "struct AmountsIn",
          "name": "amounts_",
          "type": "tuple"
        }
      ],
      "name": "useUnderlying",
      "outputs": [],
      "stateMutability": "nonpayable",
      "type": "function"
    }
  ],
  "bytecode": {
    "object": "0x608060405234801561001057600080fd5b50611edf806100206000396000f3fe608060405234801561001057600080fd5b50600436106100575760003560e01c8063094463e71461005c578063a1b86b3814610081578063ab399cf814610094578063b50f68fd146100a9578063dde5543b146100bc575b600080fd5b61006f61006a36600461177d565b6100cf565b60405190815260200160405180910390f35b61006f61008f366004611853565b6100ea565b6100a76100a23660046118ff565b610264565b005b6100a76100b7366004611940565b6102cf565b61006f6100ca3660046118ff565b6104a4565b60006100df8585858560006104bb565b90505b949350505050565b3360009081526015602052604081205460ff166101215760405163a43f931360e01b81523360048201526024015b60405180910390fd5b60008060008060008680602001905181019061013d91906119d4565b93985091965094509250905061015533893088610612565b600a54600354610173916001600160a01b039081169116868661071c565b600354604080516338d52e0f60e01b81529051610258926001600160a01b03169133916338d52e0f916004808201926020929091908290030181865afa1580156101c1573d6000803e3d6000fd5b505050506040513d601f19601f820116820180604052508101906101e59190611a21565b6003546040516370a0823160e01b81523060048201526001600160a01b03909116906370a0823190602401602060405180830381865afa15801561022d573d6000803e3d6000fd5b505050506040513d601f19601f820116820180604052508101906102519190611a3e565b85856107b4565b98975050505050505050565b6102796001600160a01b038316843084610950565b60405163c3ae3a0960e01b815260048101829052309063c3ae3a0990602401600060405180830381600087803b1580156102b257600080fd5b505af11580156102c6573d6000803e3d6000fd5b50505050505050565b3360009081526015602052604090205460ff166103015760405163a43f931360e01b8152336004820152602401610118565b80516103186001600160a01b038516843084610612565b600354602083015160009161033b9187916001600160a01b0316908590306107b4565b9050610346816109c1565b1561047957600354604051632e1a7d4d60e01b8152600481018390526001600160a01b0390911690632e1a7d4d90602401600060405180830381600087803b15801561039157600080fd5b505af11580156103a5573d6000803e3d6000fd5b50506010546011546040516321f8a72160e01b81526004810191909152600093506001600160a01b0390911691506321f8a72190602401602060405180830381865afa1580156103f9573d6000803e3d6000fd5b505050506040513d601f19601f8201168201806040525081019061041d9190611a21565b9050806001600160a01b031663d0e30db0836040518263ffffffff1660e01b81526004016000604051808303818588803b15801561045a57600080fd5b505af115801561046e573d6000803e3d6000fd5b50505050505061049d565b600354600a54604085015161049d926001600160a01b03908116921690849061071c565b5050505050565b60006104b1848484610b50565b50805b9392505050565b60008080808460028111156104d2576104d2611a57565b036104ed575050600a546003546001600160a01b0391821691165b6000805460408051631c0de05160e01b815290516001600160a01b0390921691631c0de051916004808201926060929091908290030181865afa158015610538573d6000803e3d6000fd5b505050506040513d601f19601f8201168201806040525081019061055c9190611a82565b5050905080156105945761058d8383308a8a60008151811061058057610580611ab7565b6020026020010151610b85565b93506105a5565b6105a2838389896000610bf7565b93505b6003546001600160a01b03908116908a16036105d7576003546105d2906001600160a01b03168986610b50565b610606565b6003548651610603916001600160a01b0316908b908b9088908b90600190811061058057610580611ab7565b93505b50505095945050505050565b604080516001600160a01b0385811660248301528481166044830152606480830185905283518084039091018152608490920183526020820180516001600160e01b03166323b872dd60e01b17905291516000928392908816916106769190611af1565b6000604051808303816000865af19150503d80600081146106b3576040519150601f19603f3d011682016040523d82523d6000602084013e6106b8565b606091505b50915091508180156106e25750805115806106e25750808060200190518101906106e29190611b0d565b6107145760405162461bcd60e51b815260206004820152600360248201526229aa2360e91b6044820152606401610118565b505050505050565b6000805460408051631c0de05160e01b815290516001600160a01b0390921691631c0de051916004808201926060929091908290030181865afa158015610767573d6000803e3d6000fd5b505050506040513d601f19601f8201168201806040525081019061078b9190611a82565b5050905080156107a8576107a285858585306107b4565b5061049d565b61049d85858585610e52565b6006546000906107d1906001600160a01b03888116911686611094565b60408051610100810182526001600160a01b038089168252878116602083015260145462ffffff1692820192909252908316606082015242608082015260a0810185905260009060c08101610826868961118d565b815260006020918201526006546040805163414bf38960e01b815284516001600160a01b03908116600483015293850151841660248201529084015162ffffff1660448201526060840151831660648201526080840151608482015260a084015160a482015260c084015160c482015260e0840151831660e4820152929350169063414bf38990610104016020604051808303816000875af19250505080156108ec575060408051601f3d908101601f191682019092526108e991810190611a3e565b60015b61093e576108f8611b28565b806308c379a003610932575061090c611b44565b806109175750610934565b8060405163633abab960e01b81526004016101189190611bfa565b505b3d6000803e3d6000fd5b91506109479050565b95945050505050565b6040516001600160a01b03808516602483015283166044820152606481018290526109bb9085906323b872dd60e01b906084015b60408051601f198184030181529190526020810180516001600160e01b03166001600160e01b031990931692909217909152611230565b50505050565b6012546040516335ee5f8760e01b81526020600482015260116024820152701c9bd8dad95d11195c1bdcda5d141bdbdb607a1b604482015260009182916001600160a01b03909116906335ee5f8790606401602060405180830381865afa158015610a30573d6000803e3d6000fd5b505050506040513d601f19601f82011682018060405250810190610a549190611a3e565b90506000610a628483611c23565b6010546013546040516321f8a72160e01b81529293506000926001600160a01b03909216916321f8a72191610a9d9160040190815260200190565b602060405180830381865afa158015610aba573d6000803e3d6000fd5b505050506040513d601f19601f82011682018060405250810190610ade9190611a21565b90506000816001600160a01b031663fd6ce89e6040518163ffffffff1660e01b8152600401602060405180830381865afa158015610b20573d6000803e3d6000fd5b505050506040513d601f19601f82011682018060405250810190610b449190611a3e565b90921095945050505050565b6040516001600160a01b038316602482015260448101829052610b8090849063a9059cbb60e01b90606401610984565b505050565b600654600090610ba2906001600160a01b03888116911685611305565b60408051610100810182526001600160a01b038089168252878116602083015260145462ffffff1692820192909252908516606082015242608082015260a0810184905260009060c08101610826858961118d565b6040805160c081018083526000805463038fff2d60e41b909252925183929182916001600160a01b03909116906338fff2d09060c4808501916020918187030181865afa158015610c4c573d6000803e3d6000fd5b505050506040513d601f19601f82011682018060405250810190610c709190611a3e565b8152602001600081526001600160a01b03808a166020830152881660408201526060810187905260800160006040519080825280601f01601f191660200182016040528015610cc6576020820181803683370190505b5090526040805160808101825230808252600060208301819052928201526060810182905291925080856002811115610d0157610d01611a57565b03610d285785600081518110610d1957610d19611ab7565b60200260200101519050610e27565b6000856002811115610d3c57610d3c611a57565b14610e275760095460405163e969f6b360e01b81526001600160a01b039091169063e969f6b390610d739086908690600401611cab565b6020604051808303816000875af1925050508015610dae575060408051601f3d908101601f19168201909252610dab91810190611a3e565b60015b610df457610dba611b28565b806308c379a0036109325750610dce611b44565b80610dd95750610934565b8060405163dafe91cd60e01b81526004016101189190611bfa565b600087600081518110610e0957610e09611ab7565b60200260200101519050818111610e205781610e22565b805b925050505b6008546080840151610e46918b916001600160a01b0390911690611305565b6106038383834261141a565b6040805160c081018083526000805463038fff2d60e41b909252925183929182916001600160a01b03909116906338fff2d09060c4808501916020918187030181865afa158015610ea7573d6000803e3d6000fd5b505050506040513d601f19601f82011682018060405250810190610ecb9190611a3e565b8152602001600081526001600160a01b038089166020830152871660408201526060810186905260800160006040519080825280601f01601f191660200182016040528015610f21576020820181803683370190505b5090526040805160808101825230808252600060208301819052828401919091526060820152600954915163e969f6b360e01b8152929350916001600160a01b039091169063e969f6b390610f7c9085908590600401611cab565b6020604051808303816000875af1925050508015610fb7575060408051601f3d908101601f19168201909252610fb491810190611a3e565b60015b610fc357610dba611b28565b6000818611610fd25781610fd4565b855b6008546080860151919250610ff6916001600160a01b038c8116921690611094565b6008546040516352bbbe2960e01b81526001600160a01b03909116906352bbbe299061102c908790879086904290600401611cfd565b6020604051808303816000875af115801561104b573d6000803e3d6000fd5b505050506040513d601f19601f8201168201806040525081019061106f9190611a3e565b94505050826000036102c657604051635eeb40ff60e11b815260040160405180910390fd5b604080516001600160a01b038481166024830152604480830185905283518084039091018152606490920183526020820180516001600160e01b031663095ea7b360e01b17905291516000928392908716916110f09190611af1565b6000604051808303816000865af19150503d806000811461112d576040519150601f19603f3d011682016040523d82523d6000602084013e611132565b606091505b509150915081801561115c57508051158061115c57508080602001905181019061115c9190611b0d565b61049d5760405162461bcd60e51b8152602060048201526002602482015261534160f01b6044820152606401610118565b600080826001600160a01b031663313ce5676040518163ffffffff1660e01b8152600401602060405180830381865afa1580156111ce573d6000803e3d6000fd5b505050506040513d601f19601f820116820180604052508101906111f29190611d61565b60ff169050806012146112245761120a816012611d84565b61121590600a611e7b565b61121f9085611e87565b611226565b835b9150505b92915050565b6000611285826040518060400160405280602081526020017f5361666545524332303a206c6f772d6c6576656c2063616c6c206661696c6564815250856001600160a01b03166115419092919063ffffffff16565b90508051600014806112a65750808060200190518101906112a69190611b0d565b610b805760405162461bcd60e51b815260206004820152602a60248201527f5361666545524332303a204552433230206f7065726174696f6e20646964206e6044820152691bdd081cdd58d8d9595960b21b6064820152608401610118565b80158061137f5750604051636eb1769f60e11b81523060048201526001600160a01b03838116602483015284169063dd62ed3e90604401602060405180830381865afa158015611359573d6000803e3d6000fd5b505050506040513d601f19601f8201168201806040525081019061137d9190611a3e565b155b6113ea5760405162461bcd60e51b815260206004820152603660248201527f5361666545524332303a20617070726f76652066726f6d206e6f6e2d7a65726f60448201527520746f206e6f6e2d7a65726f20616c6c6f77616e636560501b6064820152608401610118565b6040516001600160a01b038316602482015260448101829052610b8090849063095ea7b360e01b90606401610984565b6008546040516352bbbe2960e01b81526000916001600160a01b0316906352bbbe2990611451908890889088908890600401611cfd565b6020604051808303816000875af192505050801561148c575060408051601f3d908101601f1916820190925261148991810190611a3e565b60015b61151957611498611b28565b806308c379a00361093257506114ac611b44565b806114b75750610934565b6114e0816040518060400160405280600781526020016642414c2335303760c81b815250611550565b156114fe57604051637b19dd3560e11b815260040160405180910390fd5b806040516324af18bb60e21b81526004016101189190611bfa565b8060000361153a57604051635eeb40ff60e11b815260040160405180910390fd5b90506100e2565b60606100e284846000856115a9565b6000816040516020016115639190611af1565b604051602081830303815290604052805190602001208360405160200161158a9190611af1565b6040516020818303038152906040528051906020012014905092915050565b60608247101561160a5760405162461bcd60e51b815260206004820152602660248201527f416464726573733a20696e73756666696369656e742062616c616e636520666f6044820152651c8818d85b1b60d21b6064820152608401610118565b600080866001600160a01b031685876040516116269190611af1565b60006040518083038185875af1925050503d8060008114611663576040519150601f19603f3d011682016040523d82523d6000602084013e611668565b606091505b509150915061167987838387611684565b979650505050505050565b606083156116f35782516000036116ec576001600160a01b0385163b6116ec5760405162461bcd60e51b815260206004820152601d60248201527f416464726573733a2063616c6c20746f206e6f6e2d636f6e74726163740000006044820152606401610118565b50816100e2565b6100e283838151156117085781518083602001fd5b8060405162461bcd60e51b81526004016101189190611bfa565b6001600160a01b038116811461173757600080fd5b50565b634e487b7160e01b600052604160045260246000fd5b601f8201601f1916810167ffffffffffffffff811182821017156117765761177661173a565b6040525050565b6000806000806080858703121561179357600080fd5b843561179e81611722565b93506020858101356117af81611722565b935060408601359250606086013567ffffffffffffffff808211156117d357600080fd5b818801915088601f8301126117e757600080fd5b8135818111156117f9576117f961173a565b8060051b915060405161180e85840182611750565b8181529183018401918481018b84111561182757600080fd5b938501935b83851015611843578435815293850193850161182c565b50979a9699509497505050505050565b6000806040838503121561186657600080fd5b823561187181611722565b915060208381013567ffffffffffffffff8082111561188f57600080fd5b818601915086601f8301126118a357600080fd5b8135818111156118b5576118b561173a565b60405191506118cd601f8201601f1916850183611750565b80825287848285010111156118e157600080fd5b80848401858401376000848284010152508093505050509250929050565b60008060006060848603121561191457600080fd5b833561191f81611722565b9250602084013561192f81611722565b929592945050506040919091013590565b600080600083850360a081121561195657600080fd5b843561196181611722565b9350602085013561197181611722565b92506060603f198201121561198557600080fd5b506040516060810181811067ffffffffffffffff821117156119a9576119a961173a565b8060405250604085013581526060850135602082015260808501356040820152809150509250925092565b600080600080600060a086880312156119ec57600080fd5b855194506020860151935060408601519250606086015191506080860151611a1381611722565b809150509295509295909350565b600060208284031215611a3357600080fd5b81516104b481611722565b600060208284031215611a5057600080fd5b5051919050565b634e487b7160e01b600052602160045260246000fd5b80518015158114611a7d57600080fd5b919050565b600080600060608486031215611a9757600080fd5b611aa084611a6d565b925060208401519150604084015190509250925092565b634e487b7160e01b600052603260045260246000fd5b60005b83811015611ae8578181015183820152602001611ad0565b50506000910152565b60008251611b03818460208701611acd565b9190910192915050565b600060208284031215611b1f57600080fd5b6104b482611a6d565b600060033d1115611b415760046000803e5060005160e01c5b90565b600060443d1015611b525790565b6040516003193d81016004833e81513d67ffffffffffffffff8160248401118184111715611b8257505050505090565b8285019150815181811115611b9a5750505050505090565b843d8701016020828501011115611bb45750505050505090565b611bc360208286010187611750565b509095945050505050565b60008151808452611be6816020860160208601611acd565b601f01601f19169290920160200192915050565b6020815260006104b46020830184611bce565b634e487b7160e01b600052601160045260246000fd5b8082018082111561122a5761122a611c0d565b805182526000602082015160028110611c5f57634e487b7160e01b600052602160045260246000fd5b80602085015250604082015160018060a01b03808216604086015280606085015116606086015250506080820151608084015260a082015160c060a085015261122660c0850182611bce565b60a081526000611cbe60a0830185611c36565b90506104b4602083018480516001600160a01b039081168352602080830151151590840152604080830151909116908301526060908101511515910152565b60e081526000611d1060e0830187611c36565b9050611d4f602083018680516001600160a01b039081168352602080830151151590840152604080830151909116908301526060908101511515910152565b60a082019390935260c0015292915050565b600060208284031215611d7357600080fd5b815160ff811681146104b457600080fd5b8181038181111561122a5761122a611c0d565b600181815b80851115611dd2578160001904821115611db857611db8611c0d565b80851615611dc557918102915b93841c9390800290611d9c565b509250929050565b600082611de95750600161122a565b81611df65750600061122a565b8160018114611e0c5760028114611e1657611e32565b600191505061122a565b60ff841115611e2757611e27611c0d565b50506001821b61122a565b5060208310610133831016604e8410600b8410161715611e55575081810a61122a565b611e5f8383611d97565b8060001904821115611e7357611e73611c0d565b029392505050565b60006104b48383611dda565b600082611ea457634e487b7160e01b600052601260045260246000fd5b50049056fea26469706673582212206ca9a1759fb3fca1172fed1f7dcd69fa07885a3513683d70be04c0990b593c2464736f6c63430008150033",
    "linkReferences": {}
  },
  "methodIdentifiers": {
    "recicleOZL(address,address,uint256)": "ab399cf8",
    "sendLSD(address,address,uint256)": "dde5543b",
    "useOZL(address,address,uint256,uint256[])": "094463e7",
    "useOzTokens(address,bytes)": "a1b86b38",
    "useUnderlying(address,address,(uint256,uint256,uint256))": "b50f68fd"
  },
  "id": 13
}