{
  "abi": [
    {
      "inputs": [
        {
          "internalType": "address",
          "name": "token",
          "type": "address"
        }
      ],
      "name": "TokenInNotValid",
      "type": "error"
    },
    {
      "inputs": [
        {
          "internalType": "enum Asset",
          "name": "type_",
          "type": "uint8"
        }
      ],
      "name": "totalUnderlying",
      "outputs": [
        {
          "internalType": "uint256",
          "name": "total",
          "type": "uint256"
        }
      ],
      "stateMutability": "view",
      "type": "function"
    },
    {
      "inputs": [
        {
          "components": [
            {
              "internalType": "uint256",
              "name": "ozAmountIn",
              "type": "uint256"
            },
            {
              "internalType": "uint256",
              "name": "minWethOut",
              "type": "uint256"
            },
            {
              "internalType": "uint256",
              "name": "bptAmountIn",
              "type": "uint256"
            },
            {
              "internalType": "uint256",
              "name": "minUsdcOut",
              "type": "uint256"
            }
          ],
          "internalType": "struct AmountsOut",
          "name": "amts_",
          "type": "tuple"
        },
        {
          "internalType": "address",
          "name": "ozToken_",
          "type": "address"
        },
        {
          "internalType": "address",
          "name": "owner_",
          "type": "address"
        },
        {
          "internalType": "address",
          "name": "receiver_",
          "type": "address"
        }
      ],
      "name": "useOzTokens",
      "outputs": [
        {
          "internalType": "uint256",
          "name": "amountOut",
          "type": "uint256"
        }
      ],
      "stateMutability": "nonpayable",
      "type": "function"
    },
    {
      "inputs": [
        {
          "internalType": "address",
          "name": "underlying_",
          "type": "address"
        },
        {
          "internalType": "address",
          "name": "owner_",
          "type": "address"
        },
        {
          "components": [
            {
              "internalType": "uint256",
              "name": "amountIn",
              "type": "uint256"
            },
            {
              "internalType": "uint256",
              "name": "minWethOut",
              "type": "uint256"
            },
            {
              "internalType": "uint256",
              "name": "minRethOut",
              "type": "uint256"
            }
          ],
          "internalType": "struct AmountsIn",
          "name": "amounts_",
          "type": "tuple"
        }
      ],
      "name": "useUnderlying",
      "outputs": [],
      "stateMutability": "nonpayable",
      "type": "function"
    }
  ],
  "bytecode": {
    "object": "0x608060405234801561001057600080fd5b506116b0806100206000396000f3fe608060405234801561001057600080fd5b50600436106100415760003560e01c8063a4fc284b14610046578063b50f68fd1461006b578063d0d1e95414610080575b600080fd5b610059610054366004610f78565b610093565b60405190815260200160405180910390f35b61007e610079366004610fb1565b6101b1565b005b61005961008e366004611053565b61041d565b600b546040516370a0823160e01b81523060048201526000916001600160a01b0316906370a0823190602401602060405180830381865afa1580156100dc573d6000803e3d6000fd5b505050506040513d601f19601f82011682018060405250810190610100919061110e565b9050600082600181111561011657610116611127565b036101ac5760065460408051633fabe5a360e21b815290516000926001600160a01b03169163feaf968c9160048083019260a09291908290030181865afa158015610165573d6000803e3d6000fd5b505050506040513d601f19601f820116820180604052508101906101899190611157565b5050509150506101a8826305f5e100836105609092919063ffffffff16565b9150505b919050565b80516101c86001600160a01b038516843084610587565b60208201516002546000916101eb9184919088906001600160a01b03163061068e565b90506101f68161080f565b1561032957600254604051632e1a7d4d60e01b8152600481018390526001600160a01b0390911690632e1a7d4d90602401600060405180830381600087803b15801561024157600080fd5b505af1158015610255573d6000803e3d6000fd5b50506011546012546040516321f8a72160e01b81526004810191909152600093506001600160a01b0390911691506321f8a72190602401602060405180830381865afa1580156102a9573d6000803e3d6000fd5b505050506040513d601f19601f820116820180604052508101906102cd91906111a7565b9050806001600160a01b031663d0e30db0836040518263ffffffff1660e01b81526004016000604051808303818588803b15801561030a57600080fd5b505af115801561031e573d6000803e3d6000fd5b505050505050610416565b600b5460408051631c0de05160e01b815290516000926001600160a01b031691631c0de0519160048083019260609291908290030181865afa158015610373573d6000803e3d6000fd5b505050506040513d601f19601f8201168201806040525081019061039791906111d4565b50509050600b546040805163038fff2d60e41b81529051610414926001600160a01b0316916338fff2d09160048083019260209291908290030181865afa1580156103e6573d6000803e3d6000fd5b505050506040513d601f19601f8201168201806040525081019061040a919061110e565b856040015161099e565b505b5050505050565b6000806000600b0160009054906101000a90046001600160a01b03166001600160a01b03166338fff2d06040518163ffffffff1660e01b8152600401602060405180830381865afa158015610476573d6000803e3d6000fd5b505050506040513d601f19601f8201168201806040525081019061049a919061110e565b86519091506104b7906001600160a01b0387169086903090610587565b6104ca8660200151876040015183610ba4565b6002546040516370a0823160e01b8152306004820152610556916001600160a01b0316906370a0823190602401602060405180830381865afa158015610514573d6000803e3d6000fd5b505050506040513d601f19601f82011682018060405250810190610538919061110e565b60608801516002546003546001600160a01b0391821691168761068e565b9695505050505050565b60008260001904841183021582026105805763ad251c276000526004601cfd5b5091020490565b604080516001600160a01b0385811660248301528481166044830152606480830185905283518084039091018152608490920183526020820180516001600160e01b03166323b872dd60e01b17905291516000928392908816916105eb919061122d565b6000604051808303816000865af19150503d8060008114610628576040519150601f19603f3d011682016040523d82523d6000602084013e61062d565b606091505b50915091508180156106575750805115806106575750808060200190518101906106579190611249565b6104145760405162461bcd60e51b815260206004820152600360248201526229aa2360e91b60448201526064015b60405180910390fd5b6005546000906106ab906001600160a01b03868116911688610cae565b6000604051806101000160405280866001600160a01b03168152602001856001600160a01b031681526020016101f462ffffff168152602001846001600160a01b031681526020014281526020018881526020016107098887610da7565b815260006020918201526005546040805163414bf38960e01b815284516001600160a01b03908116600483015293850151841660248201529084015162ffffff1660448201526060840151831660648201526080840151608482015260a084015160a482015260c084015160c482015260e0840151831660e4820152929350169063414bf38990610104016020604051808303816000875af11580156107b3573d6000803e3d6000fd5b505050506040513d601f19601f820116820180604052508101906107d7919061110e565b91508160000361080557604051634c5a56af60e11b81526001600160a01b0386166004820152602401610685565b5095945050505050565b6013546040516335ee5f8760e01b81526020600482015260116024820152701c9bd8dad95d11195c1bdcda5d141bdbdb607a1b604482015260009182916001600160a01b03909116906335ee5f8790606401602060405180830381865afa15801561087e573d6000803e3d6000fd5b505050506040513d601f19601f820116820180604052508101906108a2919061110e565b905060006108b0848361127a565b6011546014546040516321f8a72160e01b81529293506000926001600160a01b03909216916321f8a721916108eb9160040190815260200190565b602060405180830381865afa158015610908573d6000803e3d6000fd5b505050506040513d601f19601f8201168201806040525081019061092c91906111a7565b90506000816001600160a01b031663fd6ce89e6040518163ffffffff1660e01b8152600401602060405180830381865afa15801561096e573d6000803e3d6000fd5b505050506040513d601f19601f82011682018060405250810190610992919061110e565b90921095945050505050565b6040805160c0810182528381526000602082018190526002546001600160a01b03908116838501819052600a54909116606084015292516370a0823160e01b8152306004820152909260808301916370a0823190602401602060405180830381865afa158015610a12573d6000803e3d6000fd5b505050506040513d601f19601f82011682018060405250810190610a36919061110e565b815260408051600080825260208083018452938401919091528151608081018352308082529381018290528083019390935260608301819052600954915163e969f6b360e01b815293945091926001600160a01b039091169063e969f6b390610aa59086908690600401611320565b6020604051808303816000875af1158015610ac4573d6000803e3d6000fd5b505050506040513d601f19601f82011682018060405250810190610ae8919061110e565b90506000818511610af95781610afb565b845b6008546080860151600254929350610b20926001600160a01b03908116921690610cae565b6008546040516352bbbe2960e01b81526000916001600160a01b0316906352bbbe2990610b57908890889087904290600401611372565b6020604051808303816000875af1158015610b76573d6000803e3d6000fd5b505050506040513d601f19601f82011682018060405250810190610b9a919061110e565b5050505050505050565b604080516060810182526002546001600160a01b039081168252600b5481166020830152600a541691810191909152600090610bdf90610e4a565b90506000610c086040518060600160405280878152602001600081526020016000815250610ed3565b90506000610c196000866000610f48565b6040805160808101825285815260208101859052808201839052600060608201526008549151638bdb391360e01b8152929350916001600160a01b0390911690638bdb391390610c73908890309081908790600401611411565b600060405180830381600087803b158015610c8d57600080fd5b505af1158015610ca1573d6000803e3d6000fd5b5050505050505050505050565b604080516001600160a01b038481166024830152604480830185905283518084039091018152606490920183526020820180516001600160e01b031663095ea7b360e01b1790529151600092839290871691610d0a919061122d565b6000604051808303816000865af19150503d8060008114610d47576040519150601f19603f3d011682016040523d82523d6000602084013e610d4c565b606091505b5091509150818015610d76575080511580610d76575080806020019051810190610d769190611249565b6104165760405162461bcd60e51b8152602060048201526002602482015261534160f01b6044820152606401610685565b600080826001600160a01b031663313ce5676040518163ffffffff1660e01b8152600401602060405180830381865afa158015610de8573d6000803e3d6000fd5b505050506040513d601f19601f82011682018060405250810190610e0c91906114db565b60ff16905080601214610e3e57610e248160126114fe565b610e2f90600a6115f5565b610e399085611601565b610e40565b835b9150505b92915050565b60408051600380825260808201909252606091908160208201848036833701905050915060005b81811015610ecc57838160038110610e8b57610e8b611623565b6020020151838281518110610ea257610ea2611623565b6001600160a01b039092166020928302919091019091015280610ec481611639565b915050610e71565b5050919050565b60408051600380825260808201909252606091908160208201848036833701905050915060005b81811015610ecc57838160038110610f1457610f14611623565b6020020151838281518110610f2b57610f2b611623565b602090810291909101015280610f4081611639565b915050610efa565b6060838383604051602001610f5f93929190611652565b60405160208183030381529060405290505b9392505050565b600060208284031215610f8a57600080fd5b813560028110610f7157600080fd5b6001600160a01b0381168114610fae57600080fd5b50565b600080600083850360a0811215610fc757600080fd5b8435610fd281610f99565b93506020850135610fe281610f99565b92506060603f1982011215610ff657600080fd5b506040516060810181811067ffffffffffffffff8211171561102857634e487b7160e01b600052604160045260246000fd5b8060405250604085013581526060850135602082015260808501356040820152809150509250925092565b60008060008084860360e081121561106a57600080fd5b608081121561107857600080fd5b506040516080810181811067ffffffffffffffff821117156110aa57634e487b7160e01b600052604160045260246000fd5b8060405250853581526020860135602082015260408601356040820152606086013560608201528094505060808501356110e381610f99565b925060a08501356110f381610f99565b915060c085013561110381610f99565b939692955090935050565b60006020828403121561112057600080fd5b5051919050565b634e487b7160e01b600052602160045260246000fd5b805169ffffffffffffffffffff811681146101ac57600080fd5b600080600080600060a0868803121561116f57600080fd5b6111788661113d565b945060208601519350604086015192506060860151915061119b6080870161113d565b90509295509295909350565b6000602082840312156111b957600080fd5b8151610f7181610f99565b805180151581146101ac57600080fd5b6000806000606084860312156111e957600080fd5b6111f2846111c4565b925060208401519150604084015190509250925092565b60005b8381101561122457818101518382015260200161120c565b50506000910152565b6000825161123f818460208701611209565b9190910192915050565b60006020828403121561125b57600080fd5b610f71826111c4565b634e487b7160e01b600052601160045260246000fd5b80820180821115610e4457610e44611264565b600081518084526112a5816020860160208601611209565b601f01601f19169290920160200192915050565b8051825260006020820151600281106112d4576112d4611127565b80602085015250604082015160018060a01b03808216604086015280606085015116606086015250506080820151608084015260a082015160c060a0850152610e4060c085018261128d565b60a08152600061133360a08301856112b9565b9050610f71602083018480516001600160a01b039081168352602080830151151590840152604080830151909116908301526060908101511515910152565b60e08152600061138560e08301876112b9565b90506113c4602083018680516001600160a01b039081168352602080830151151590840152604080830151909116908301526060908101511515910152565b60a082019390935260c0015292915050565b600081518084526020808501945080840160005b83811015611406578151875295820195908201906001016113ea565b509495945050505050565b8481526000602060018060a01b038087168285015280861660408501526080606085015261010084018551608080870152818151808452610120880191508583019350600092505b8083101561147b57835185168252928501926001929092019190850190611459565b50848801519450607f199350838782030160a088015261149b81866113d6565b94505050506040850151818584030160c08601526114b9838261128d565b9250505060608401516114d060e085018215159052565b509695505050505050565b6000602082840312156114ed57600080fd5b815160ff81168114610f7157600080fd5b81810381811115610e4457610e44611264565b600181815b8085111561154c57816000190482111561153257611532611264565b8085161561153f57918102915b93841c9390800290611516565b509250929050565b60008261156357506001610e44565b8161157057506000610e44565b81600181146115865760028114611590576115ac565b6001915050610e44565b60ff8411156115a1576115a1611264565b50506001821b610e44565b5060208310610133831016604e8410600b84101617156115cf575081810a610e44565b6115d98383611511565b80600019048211156115ed576115ed611264565b029392505050565b6000610f718383611554565b60008261161e57634e487b7160e01b600052601260045260246000fd5b500490565b634e487b7160e01b600052603260045260246000fd5b60006001820161164b5761164b611264565b5060010190565b606081016003851061166657611666611127565b93815260208101929092526040909101529056fea2646970667358221220f0ebd90d2a4b4453f733f656908a42884bfdb9e1ac0e5d1f00b976384a8aad3d64736f6c63430008150033",
    "linkReferences": {}
  },
  "methodIdentifiers": {
    "totalUnderlying(uint8)": "a4fc284b",
    "useOzTokens((uint256,uint256,uint256,uint256),address,address,address)": "d0d1e954",
    "useUnderlying(address,address,(uint256,uint256,uint256))": "b50f68fd"
  },
  "id": 7
}