{
  "abi": [
    {
      "inputs": [
        {
          "internalType": "string",
          "name": "errorMsg",
          "type": "string"
        }
      ],
      "name": "OZError01",
      "type": "error"
    },
    {
      "inputs": [],
      "name": "OZError02",
      "type": "error"
    },
    {
      "inputs": [
        {
          "internalType": "string",
          "name": "errorCode",
          "type": "string"
        }
      ],
      "name": "OZError10",
      "type": "error"
    },
    {
      "inputs": [
        {
          "internalType": "address",
          "name": "caller",
          "type": "address"
        }
      ],
      "name": "OZError13",
      "type": "error"
    },
    {
      "inputs": [
        {
          "internalType": "address",
          "name": "tokenIn_",
          "type": "address"
        },
        {
          "internalType": "address",
          "name": "tokenOut_",
          "type": "address"
        },
        {
          "internalType": "uint256",
          "name": "amountIn_",
          "type": "uint256"
        },
        {
          "internalType": "uint256",
          "name": "minAmountOut_",
          "type": "uint256"
        }
      ],
      "name": "useOZL",
      "outputs": [],
      "stateMutability": "nonpayable",
      "type": "function"
    },
    {
      "inputs": [
        {
          "internalType": "address",
          "name": "owner_",
          "type": "address"
        },
        {
          "internalType": "bytes",
          "name": "data_",
          "type": "bytes"
        }
      ],
      "name": "useOzTokens",
      "outputs": [
        {
          "internalType": "uint256",
          "name": "amountOut",
          "type": "uint256"
        }
      ],
      "stateMutability": "nonpayable",
      "type": "function"
    },
    {
      "inputs": [
        {
          "internalType": "address",
          "name": "underlying_",
          "type": "address"
        },
        {
          "internalType": "address",
          "name": "owner_",
          "type": "address"
        },
        {
          "components": [
            {
              "internalType": "uint256",
              "name": "amountIn",
              "type": "uint256"
            },
            {
              "internalType": "uint256",
              "name": "minWethOut",
              "type": "uint256"
            },
            {
              "internalType": "uint256",
              "name": "minRethOut",
              "type": "uint256"
            }
          ],
          "internalType": "struct AmountsIn",
          "name": "amounts_",
          "type": "tuple"
        }
      ],
      "name": "useUnderlying",
      "outputs": [],
      "stateMutability": "nonpayable",
      "type": "function"
    }
  ],
  "bytecode": {
    "object": "0x608060405234801561001057600080fd5b5061178c806100206000396000f3fe608060405234801561001057600080fd5b50600436106100415760003560e01c80639cd08b6a14610046578063a1b86b381461005b578063b50f68fd14610080575b600080fd5b6100596100543660046110b3565b610093565b005b61006e61006936600461113c565b61010c565b60405190815260200160405180910390f35b61005961008e3660046111e8565b610286565b6100c760405180604001604052806012815260200171039b2b73232b91034b7103ab9b2a7ad261d160751b8152503361045b565b6100f86040518060400160405280600f81526020016e030b2323932b9b9943a3434b9949d1608d1b8152503061045b565b6101068484333386866104a4565b50505050565b3360009081526015602052604081205460ff166101435760405163a43f931360e01b81523360048201526024015b60405180910390fd5b60008060008060008680602001905181019061015f919061127c565b93985091965094509250905061017733893088610547565b600a54600354610195916001600160a01b0390811691168686610651565b600354604080516338d52e0f60e01b8152905161027a926001600160a01b03169133916338d52e0f916004808201926020929091908290030181865afa1580156101e3573d6000803e3d6000fd5b505050506040513d601f19601f8201168201806040525081019061020791906112c9565b6003546040516370a0823160e01b81523060048201526001600160a01b03909116906370a0823190602401602060405180830381865afa15801561024f573d6000803e3d6000fd5b505050506040513d601f19601f8201168201806040525081019061027391906112ed565b85856106e9565b98975050505050505050565b3360009081526015602052604090205460ff166102b85760405163a43f931360e01b815233600482015260240161013a565b80516102cf6001600160a01b038516843084610547565b60035460208301516000916102f29187916001600160a01b0316908590306106e9565b90506102fd81610885565b1561043057600354604051632e1a7d4d60e01b8152600481018390526001600160a01b0390911690632e1a7d4d90602401600060405180830381600087803b15801561034857600080fd5b505af115801561035c573d6000803e3d6000fd5b50506010546011546040516321f8a72160e01b81526004810191909152600093506001600160a01b0390911691506321f8a72190602401602060405180830381865afa1580156103b0573d6000803e3d6000fd5b505050506040513d601f19601f820116820180604052508101906103d491906112c9565b9050806001600160a01b031663d0e30db0836040518263ffffffff1660e01b81526004016000604051808303818588803b15801561041157600080fd5b505af1158015610425573d6000803e3d6000fd5b505050505050610454565b600354600a546040850151610454926001600160a01b039081169216908490610651565b5050505050565b6104a08282604051602401610471929190611356565b60408051601f198184030181529190526020810180516001600160e01b031663319af33360e01b179052610a14565b5050565b6000805460408051631c0de05160e01b815290516001600160a01b0390921691631c0de051916004808201926060929091908290030181865afa1580156104ef573d6000803e3d6000fd5b505050506040513d601f19601f820116820180604052508101906105139190611395565b5050905080156105305761052a87878585886106e9565b5061053e565b61053e878787878787610a35565b50505050505050565b604080516001600160a01b0385811660248301528481166044830152606480830185905283518084039091018152608490920183526020820180516001600160e01b03166323b872dd60e01b17905291516000928392908816916105ab91906113ca565b6000604051808303816000865af19150503d80600081146105e8576040519150601f19603f3d011682016040523d82523d6000602084013e6105ed565b606091505b509150915081801561061757508051158061061757508080602001905181019061061791906113e6565b6106495760405162461bcd60e51b815260206004820152600360248201526229aa2360e91b604482015260640161013a565b505050505050565b6000805460408051631c0de05160e01b815290516001600160a01b0390921691631c0de051916004808201926060929091908290030181865afa15801561069c573d6000803e3d6000fd5b505050506040513d601f19601f820116820180604052508101906106c09190611395565b5050905080156106dd576106d785858585306106e9565b50610454565b61045485858585610cbd565b600654600090610706906001600160a01b03888116911686610eff565b60408051610100810182526001600160a01b038089168252878116602083015260145462ffffff1692820192909252908316606082015242608082015260a0810185905260009060c0810161075b8689610ff8565b815260006020918201526006546040805163414bf38960e01b815284516001600160a01b03908116600483015293850151841660248201529084015162ffffff1660448201526060840151831660648201526080840151608482015260a084015160a482015260c084015160c482015260e0840151831660e4820152929350169063414bf38990610104016020604051808303816000875af1925050508015610821575060408051601f3d908101601f1916820190925261081e918101906112ed565b60015b6108735761082d611401565b806308c379a003610867575061084161141d565b8061084c5750610869565b8060405163633abab960e01b815260040161013a91906114a7565b505b3d6000803e3d6000fd5b915061087c9050565b95945050505050565b6012546040516335ee5f8760e01b81526020600482015260116024820152701c9bd8dad95d11195c1bdcda5d141bdbdb607a1b604482015260009182916001600160a01b03909116906335ee5f8790606401602060405180830381865afa1580156108f4573d6000803e3d6000fd5b505050506040513d601f19601f8201168201806040525081019061091891906112ed565b9050600061092684836114d0565b6010546013546040516321f8a72160e01b81529293506000926001600160a01b03909216916321f8a721916109619160040190815260200190565b602060405180830381865afa15801561097e573d6000803e3d6000fd5b505050506040513d601f19601f820116820180604052508101906109a291906112c9565b90506000816001600160a01b031663fd6ce89e6040518163ffffffff1660e01b8152600401602060405180830381865afa1580156109e4573d6000803e3d6000fd5b505050506040513d601f19601f82011682018060405250810190610a0891906112ed565b90921095945050505050565b80516a636f6e736f6c652e6c6f67602083016000808483855afa5050505050565b6040805160c081018083526000805463038fff2d60e41b909252925183929182916001600160a01b03909116906338fff2d09060c4808501916020918187030181865afa158015610a8a573d6000803e3d6000fd5b505050506040513d601f19601f82011682018060405250810190610aae91906112ed565b8152602001600081526001600160a01b03808b166020830152891660408201526060810186905260800160006040519080825280601f01601f191660200182016040528015610b04576020820181803683370190505b509052604080516080810182526001600160a01b03808a168252600060208301819052898216838501526060830152600954925163e969f6b360e01b8152939450909291169063e969f6b390610b609085908590600401611558565b6020604051808303816000875af1925050508015610b9b575060408051601f3d908101601f19168201909252610b98918101906112ed565b60015b610be157610ba7611401565b806308c379a0036108675750610bbb61141d565b80610bc65750610869565b8060405163dafe91cd60e01b815260040161013a91906114a7565b6000818611610bf05781610bf2565b855b6008546080860151919250610c14916001600160a01b038e8116921690610eff565b6008546040516352bbbe2960e01b81526001600160a01b03909116906352bbbe2990610c4a9087908790869042906004016115aa565b6020604051808303816000875af1158015610c69573d6000803e3d6000fd5b505050506040513d601f19601f82011682018060405250810190610c8d91906112ed565b9450505082600003610cb257604051635eeb40ff60e11b815260040160405180910390fd5b505050505050505050565b6040805160c081018083526000805463038fff2d60e41b909252925183929182916001600160a01b03909116906338fff2d09060c4808501916020918187030181865afa158015610d12573d6000803e3d6000fd5b505050506040513d601f19601f82011682018060405250810190610d3691906112ed565b8152602001600081526001600160a01b038089166020830152871660408201526060810186905260800160006040519080825280601f01601f191660200182016040528015610d8c576020820181803683370190505b5090526040805160808101825230808252600060208301819052828401919091526060820152600954915163e969f6b360e01b8152929350916001600160a01b039091169063e969f6b390610de79085908590600401611558565b6020604051808303816000875af1925050508015610e22575060408051601f3d908101601f19168201909252610e1f918101906112ed565b60015b610e2e57610ba7611401565b6000818611610e3d5781610e3f565b855b6008546080860151919250610e61916001600160a01b038c8116921690610eff565b6008546040516352bbbe2960e01b81526001600160a01b03909116906352bbbe2990610e979087908790869042906004016115aa565b6020604051808303816000875af1158015610eb6573d6000803e3d6000fd5b505050506040513d601f19601f82011682018060405250810190610eda91906112ed565b945050508260000361053e57604051635eeb40ff60e11b815260040160405180910390fd5b604080516001600160a01b038481166024830152604480830185905283518084039091018152606490920183526020820180516001600160e01b031663095ea7b360e01b1790529151600092839290871691610f5b91906113ca565b6000604051808303816000865af19150503d8060008114610f98576040519150601f19603f3d011682016040523d82523d6000602084013e610f9d565b606091505b5091509150818015610fc7575080511580610fc7575080806020019051810190610fc791906113e6565b6104545760405162461bcd60e51b8152602060048201526002602482015261534160f01b604482015260640161013a565b600080826001600160a01b031663313ce5676040518163ffffffff1660e01b8152600401602060405180830381865afa158015611039573d6000803e3d6000fd5b505050506040513d601f19601f8201168201806040525081019061105d919061160e565b60ff1690508060121461108f57611075816012611631565b61108090600a611728565b61108a9085611734565b611091565b835b9150505b92915050565b6001600160a01b03811681146110b057600080fd5b50565b600080600080608085870312156110c957600080fd5b84356110d48161109b565b935060208501356110e48161109b565b93969395505050506040820135916060013590565b634e487b7160e01b600052604160045260246000fd5b601f8201601f1916810167ffffffffffffffff81118282101715611135576111356110f9565b6040525050565b6000806040838503121561114f57600080fd5b823561115a8161109b565b915060208381013567ffffffffffffffff8082111561117857600080fd5b818601915086601f83011261118c57600080fd5b81358181111561119e5761119e6110f9565b60405191506111b6601f8201601f191685018361110f565b80825287848285010111156111ca57600080fd5b80848401858401376000848284010152508093505050509250929050565b600080600083850360a08112156111fe57600080fd5b84356112098161109b565b935060208501356112198161109b565b92506060603f198201121561122d57600080fd5b506040516060810181811067ffffffffffffffff82111715611251576112516110f9565b8060405250604085013581526060850135602082015260808501356040820152809150509250925092565b600080600080600060a0868803121561129457600080fd5b8551945060208601519350604086015192506060860151915060808601516112bb8161109b565b809150509295509295909350565b6000602082840312156112db57600080fd5b81516112e68161109b565b9392505050565b6000602082840312156112ff57600080fd5b5051919050565b60005b83811015611321578181015183820152602001611309565b50506000910152565b60008151808452611342816020860160208601611306565b601f01601f19169290920160200192915050565b604081526000611369604083018561132a565b905060018060a01b03831660208301529392505050565b8051801515811461139057600080fd5b919050565b6000806000606084860312156113aa57600080fd5b6113b384611380565b925060208401519150604084015190509250925092565b600082516113dc818460208701611306565b9190910192915050565b6000602082840312156113f857600080fd5b6112e682611380565b600060033d111561141a5760046000803e5060005160e01c5b90565b600060443d101561142b5790565b6040516003193d81016004833e81513d67ffffffffffffffff816024840111818411171561145b57505050505090565b82850191508151818111156114735750505050505090565b843d870101602082850101111561148d5750505050505090565b61149c6020828601018761110f565b509095945050505050565b6020815260006112e6602083018461132a565b634e487b7160e01b600052601160045260246000fd5b80820180821115611095576110956114ba565b80518252600060208201516002811061150c57634e487b7160e01b600052602160045260246000fd5b80602085015250604082015160018060a01b03808216604086015280606085015116606086015250506080820151608084015260a082015160c060a085015261109160c085018261132a565b60a08152600061156b60a08301856114e3565b90506112e6602083018480516001600160a01b039081168352602080830151151590840152604080830151909116908301526060908101511515910152565b60e0815260006115bd60e08301876114e3565b90506115fc602083018680516001600160a01b039081168352602080830151151590840152604080830151909116908301526060908101511515910152565b60a082019390935260c0015292915050565b60006020828403121561162057600080fd5b815160ff811681146112e657600080fd5b81810381811115611095576110956114ba565b600181815b8085111561167f578160001904821115611665576116656114ba565b8085161561167257918102915b93841c9390800290611649565b509250929050565b60008261169657506001611095565b816116a357506000611095565b81600181146116b957600281146116c3576116df565b6001915050611095565b60ff8411156116d4576116d46114ba565b50506001821b611095565b5060208310610133831016604e8410600b8410161715611702575081810a611095565b61170c8383611644565b8060001904821115611720576117206114ba565b029392505050565b60006112e68383611687565b60008261175157634e487b7160e01b600052601260045260246000fd5b50049056fea2646970667358221220a44fee9243864288de217d53f2c19b88bc3405ea12e640becadeefa4190fc74f64736f6c63430008150033",
    "linkReferences": {}
  },
  "methodIdentifiers": {
    "useOZL(address,address,uint256,uint256)": "9cd08b6a",
    "useOzTokens(address,bytes)": "a1b86b38",
    "useUnderlying(address,address,(uint256,uint256,uint256))": "b50f68fd"
  },
  "id": 13
}