{
  "abi": [
    {
      "inputs": [
        {
          "internalType": "string",
          "name": "errorMsg",
          "type": "string"
        }
      ],
      "name": "OZError01",
      "type": "error"
    },
    {
      "inputs": [],
      "name": "OZError02",
      "type": "error"
    },
    {
      "inputs": [
        {
          "internalType": "string",
          "name": "errorCode",
          "type": "string"
        }
      ],
      "name": "OZError10",
      "type": "error"
    },
    {
      "inputs": [
        {
          "internalType": "address",
          "name": "caller",
          "type": "address"
        }
      ],
      "name": "OZError13",
      "type": "error"
    },
    {
      "inputs": [],
      "name": "OZError20",
      "type": "error"
    },
    {
      "inputs": [
        {
          "internalType": "string",
          "name": "reason",
          "type": "string"
        }
      ],
      "name": "OZError21",
      "type": "error"
    },
    {
      "inputs": [
        {
          "internalType": "address",
          "name": "owner_",
          "type": "address"
        },
        {
          "internalType": "address",
          "name": "ozl_",
          "type": "address"
        },
        {
          "internalType": "uint256",
          "name": "amountIn_",
          "type": "uint256"
        }
      ],
      "name": "recicleOZL",
      "outputs": [],
      "stateMutability": "nonpayable",
      "type": "function"
    },
    {
      "inputs": [
        {
          "internalType": "address",
          "name": "lsd_",
          "type": "address"
        },
        {
          "internalType": "address",
          "name": "receiver_",
          "type": "address"
        },
        {
          "internalType": "uint256",
          "name": "amount_",
          "type": "uint256"
        }
      ],
      "name": "sendLSD",
      "outputs": [
        {
          "internalType": "uint256",
          "name": "",
          "type": "uint256"
        }
      ],
      "stateMutability": "nonpayable",
      "type": "function"
    },
    {
      "inputs": [
        {
          "internalType": "address",
          "name": "tokenOut_",
          "type": "address"
        },
        {
          "internalType": "address",
          "name": "receiver_",
          "type": "address"
        },
        {
          "internalType": "uint256",
          "name": "amountInLsd_",
          "type": "uint256"
        },
        {
          "internalType": "uint256[]",
          "name": "minAmountsOut_",
          "type": "uint256[]"
        }
      ],
      "name": "useOZL",
      "outputs": [
        {
          "internalType": "uint256",
          "name": "",
          "type": "uint256"
        }
      ],
      "stateMutability": "nonpayable",
      "type": "function"
    },
    {
      "inputs": [
        {
          "internalType": "address",
          "name": "owner_",
          "type": "address"
        },
        {
          "internalType": "bytes",
          "name": "data_",
          "type": "bytes"
        }
      ],
      "name": "useOzTokens",
      "outputs": [
        {
          "internalType": "uint256",
          "name": "amountOut",
          "type": "uint256"
        }
      ],
      "stateMutability": "nonpayable",
      "type": "function"
    },
    {
      "inputs": [
        {
          "internalType": "address",
          "name": "underlying_",
          "type": "address"
        },
        {
          "internalType": "address",
          "name": "owner_",
          "type": "address"
        },
        {
          "components": [
            {
              "internalType": "uint256",
              "name": "amountIn",
              "type": "uint256"
            },
            {
              "internalType": "uint256",
              "name": "minWethOut",
              "type": "uint256"
            },
            {
              "internalType": "uint256",
              "name": "minRethOut",
              "type": "uint256"
            }
          ],
          "internalType": "struct AmountsIn",
          "name": "amounts_",
          "type": "tuple"
        }
      ],
      "name": "useUnderlying",
      "outputs": [],
      "stateMutability": "nonpayable",
      "type": "function"
    }
  ],
  "bytecode": {
    "object": "0x608060405234801561001057600080fd5b50611f72806100206000396000f3fe608060405234801561001057600080fd5b50600436106100575760003560e01c8063094463e71461005c578063a1b86b3814610081578063ab399cf814610094578063b50f68fd146100a9578063dde5543b146100bc575b600080fd5b61006f61006a366004611810565b6100cf565b60405190815260200160405180910390f35b61006f61008f3660046118e6565b6100ea565b6100a76100a2366004611992565b610264565b005b6100a76100b73660046119d3565b6102cf565b61006f6100ca366004611992565b6104a4565b60006100df8585858560006104ea565b90505b949350505050565b3360009081526015602052604081205460ff166101215760405163a43f931360e01b81523360048201526024015b60405180910390fd5b60008060008060008680602001905181019061013d9190611a67565b93985091965094509250905061015533893088610641565b600a54600354610173916001600160a01b039081169116868661074b565b600354604080516338d52e0f60e01b81529051610258926001600160a01b03169133916338d52e0f916004808201926020929091908290030181865afa1580156101c1573d6000803e3d6000fd5b505050506040513d601f19601f820116820180604052508101906101e59190611ab4565b6003546040516370a0823160e01b81523060048201526001600160a01b03909116906370a0823190602401602060405180830381865afa15801561022d573d6000803e3d6000fd5b505050506040513d601f19601f820116820180604052508101906102519190611ad1565b85856107e3565b98975050505050505050565b6102796001600160a01b03831684308461097f565b60405163c3ae3a0960e01b815260048101829052309063c3ae3a0990602401600060405180830381600087803b1580156102b257600080fd5b505af11580156102c6573d6000803e3d6000fd5b50505050505050565b3360009081526015602052604090205460ff166103015760405163a43f931360e01b8152336004820152602401610118565b80516103186001600160a01b038516843084610641565b600354602083015160009161033b9187916001600160a01b0316908590306107e3565b9050610346816109f0565b1561047957600354604051632e1a7d4d60e01b8152600481018390526001600160a01b0390911690632e1a7d4d90602401600060405180830381600087803b15801561039157600080fd5b505af11580156103a5573d6000803e3d6000fd5b50506010546011546040516321f8a72160e01b81526004810191909152600093506001600160a01b0390911691506321f8a72190602401602060405180830381865afa1580156103f9573d6000803e3d6000fd5b505050506040513d601f19601f8201168201806040525081019061041d9190611ab4565b9050806001600160a01b031663d0e30db0836040518263ffffffff1660e01b81526004016000604051808303818588803b15801561045a57600080fd5b505af115801561046e573d6000803e3d6000fd5b50505050505061049d565b600354600a54604085015161049d926001600160a01b03908116921690849061074b565b5050505050565b60006104d56040518060400160405280600e81526020016d73686f756c64206e6f74206c6f6760901b815250610b7f565b6104e0848484610bc5565b50805b9392505050565b600080808084600281111561050157610501611aea565b0361051c575050600a546003546001600160a01b0391821691165b6000805460408051631c0de05160e01b815290516001600160a01b0390921691631c0de051916004808201926060929091908290030181865afa158015610567573d6000803e3d6000fd5b505050506040513d601f19601f8201168201806040525081019061058b9190611b15565b5050905080156105c3576105bc8383308a8a6000815181106105af576105af611b4a565b6020026020010151610bfa565b93506105d4565b6105d1838389896000610c6c565b93505b6003546001600160a01b03908116908a160361060657600354610601906001600160a01b03168986610bc5565b610635565b6003548651610632916001600160a01b0316908b908b9088908b9060019081106105af576105af611b4a565b93505b50505095945050505050565b604080516001600160a01b0385811660248301528481166044830152606480830185905283518084039091018152608490920183526020820180516001600160e01b03166323b872dd60e01b17905291516000928392908816916106a59190611b84565b6000604051808303816000865af19150503d80600081146106e2576040519150601f19603f3d011682016040523d82523d6000602084013e6106e7565b606091505b50915091508180156107115750805115806107115750808060200190518101906107119190611ba0565b6107435760405162461bcd60e51b815260206004820152600360248201526229aa2360e91b6044820152606401610118565b505050505050565b6000805460408051631c0de05160e01b815290516001600160a01b0390921691631c0de051916004808201926060929091908290030181865afa158015610796573d6000803e3d6000fd5b505050506040513d601f19601f820116820180604052508101906107ba9190611b15565b5050905080156107d7576107d185858585306107e3565b5061049d565b61049d85858585610ec7565b600654600090610800906001600160a01b03888116911686611109565b60408051610100810182526001600160a01b038089168252878116602083015260145462ffffff1692820192909252908316606082015242608082015260a0810185905260009060c081016108558689611202565b815260006020918201526006546040805163414bf38960e01b815284516001600160a01b03908116600483015293850151841660248201529084015162ffffff1660448201526060840151831660648201526080840151608482015260a084015160a482015260c084015160c482015260e0840151831660e4820152929350169063414bf38990610104016020604051808303816000875af192505050801561091b575060408051601f3d908101601f1916820190925261091891810190611ad1565b60015b61096d57610927611bbb565b806308c379a003610961575061093b611bd7565b806109465750610963565b8060405163633abab960e01b81526004016101189190611c8d565b505b3d6000803e3d6000fd5b91506109769050565b95945050505050565b6040516001600160a01b03808516602483015283166044820152606481018290526109ea9085906323b872dd60e01b906084015b60408051601f198184030181529190526020810180516001600160e01b03166001600160e01b0319909316929092179091526112a5565b50505050565b6012546040516335ee5f8760e01b81526020600482015260116024820152701c9bd8dad95d11195c1bdcda5d141bdbdb607a1b604482015260009182916001600160a01b03909116906335ee5f8790606401602060405180830381865afa158015610a5f573d6000803e3d6000fd5b505050506040513d601f19601f82011682018060405250810190610a839190611ad1565b90506000610a918483611cb6565b6010546013546040516321f8a72160e01b81529293506000926001600160a01b03909216916321f8a72191610acc9160040190815260200190565b602060405180830381865afa158015610ae9573d6000803e3d6000fd5b505050506040513d601f19601f82011682018060405250810190610b0d9190611ab4565b90506000816001600160a01b031663fd6ce89e6040518163ffffffff1660e01b8152600401602060405180830381865afa158015610b4f573d6000803e3d6000fd5b505050506040513d601f19601f82011682018060405250810190610b739190611ad1565b90921095945050505050565b610bc281604051602401610b939190611c8d565b60408051601f198184030181529190526020810180516001600160e01b031663104c13eb60e21b17905261137a565b50565b6040516001600160a01b038316602482015260448101829052610bf590849063a9059cbb60e01b906064016109b3565b505050565b600654600090610c17906001600160a01b0388811691168561139b565b60408051610100810182526001600160a01b038089168252878116602083015260145462ffffff1692820192909252908516606082015242608082015260a0810184905260009060c081016108558589611202565b6040805160c081018083526000805463038fff2d60e41b909252925183929182916001600160a01b03909116906338fff2d09060c4808501916020918187030181865afa158015610cc1573d6000803e3d6000fd5b505050506040513d601f19601f82011682018060405250810190610ce59190611ad1565b8152602001600081526001600160a01b03808a166020830152881660408201526060810187905260800160006040519080825280601f01601f191660200182016040528015610d3b576020820181803683370190505b5090526040805160808101825230808252600060208301819052928201526060810182905291925080856002811115610d7657610d76611aea565b03610d9d5785600081518110610d8e57610d8e611b4a565b60200260200101519050610e9c565b6000856002811115610db157610db1611aea565b14610e9c5760095460405163e969f6b360e01b81526001600160a01b039091169063e969f6b390610de89086908690600401611d3e565b6020604051808303816000875af1925050508015610e23575060408051601f3d908101601f19168201909252610e2091810190611ad1565b60015b610e6957610e2f611bbb565b806308c379a0036109615750610e43611bd7565b80610e4e5750610963565b8060405163dafe91cd60e01b81526004016101189190611c8d565b600087600081518110610e7e57610e7e611b4a565b60200260200101519050818111610e955781610e97565b805b925050505b6008546080840151610ebb918b916001600160a01b039091169061139b565b610632838383426114b0565b6040805160c081018083526000805463038fff2d60e41b909252925183929182916001600160a01b03909116906338fff2d09060c4808501916020918187030181865afa158015610f1c573d6000803e3d6000fd5b505050506040513d601f19601f82011682018060405250810190610f409190611ad1565b8152602001600081526001600160a01b038089166020830152871660408201526060810186905260800160006040519080825280601f01601f191660200182016040528015610f96576020820181803683370190505b5090526040805160808101825230808252600060208301819052828401919091526060820152600954915163e969f6b360e01b8152929350916001600160a01b039091169063e969f6b390610ff19085908590600401611d3e565b6020604051808303816000875af192505050801561102c575060408051601f3d908101601f1916820190925261102991810190611ad1565b60015b61103857610e2f611bbb565b60008186116110475781611049565b855b600854608086015191925061106b916001600160a01b038c8116921690611109565b6008546040516352bbbe2960e01b81526001600160a01b03909116906352bbbe29906110a1908790879086904290600401611d90565b6020604051808303816000875af11580156110c0573d6000803e3d6000fd5b505050506040513d601f19601f820116820180604052508101906110e49190611ad1565b94505050826000036102c657604051635eeb40ff60e11b815260040160405180910390fd5b604080516001600160a01b038481166024830152604480830185905283518084039091018152606490920183526020820180516001600160e01b031663095ea7b360e01b17905291516000928392908716916111659190611b84565b6000604051808303816000865af19150503d80600081146111a2576040519150601f19603f3d011682016040523d82523d6000602084013e6111a7565b606091505b50915091508180156111d15750805115806111d15750808060200190518101906111d19190611ba0565b61049d5760405162461bcd60e51b8152602060048201526002602482015261534160f01b6044820152606401610118565b600080826001600160a01b031663313ce5676040518163ffffffff1660e01b8152600401602060405180830381865afa158015611243573d6000803e3d6000fd5b505050506040513d601f19601f820116820180604052508101906112679190611df4565b60ff169050806012146112995761127f816012611e17565b61128a90600a611f0e565b6112949085611f1a565b61129b565b835b9150505b92915050565b60006112fa826040518060400160405280602081526020017f5361666545524332303a206c6f772d6c6576656c2063616c6c206661696c6564815250856001600160a01b03166115d79092919063ffffffff16565b905080516000148061131b57508080602001905181019061131b9190611ba0565b610bf55760405162461bcd60e51b815260206004820152602a60248201527f5361666545524332303a204552433230206f7065726174696f6e20646964206e6044820152691bdd081cdd58d8d9595960b21b6064820152608401610118565b80516a636f6e736f6c652e6c6f67602083016000808483855afa5050505050565b8015806114155750604051636eb1769f60e11b81523060048201526001600160a01b03838116602483015284169063dd62ed3e90604401602060405180830381865afa1580156113ef573d6000803e3d6000fd5b505050506040513d601f19601f820116820180604052508101906114139190611ad1565b155b6114805760405162461bcd60e51b815260206004820152603660248201527f5361666545524332303a20617070726f76652066726f6d206e6f6e2d7a65726f60448201527520746f206e6f6e2d7a65726f20616c6c6f77616e636560501b6064820152608401610118565b6040516001600160a01b038316602482015260448101829052610bf590849063095ea7b360e01b906064016109b3565b6008546040516352bbbe2960e01b81526000916001600160a01b0316906352bbbe29906114e7908890889088908890600401611d90565b6020604051808303816000875af1925050508015611522575060408051601f3d908101601f1916820190925261151f91810190611ad1565b60015b6115af5761152e611bbb565b806308c379a0036109615750611542611bd7565b8061154d5750610963565b611576816040518060400160405280600781526020016642414c2335303760c81b8152506115e6565b1561159457604051637b19dd3560e11b815260040160405180910390fd5b806040516324af18bb60e21b81526004016101189190611c8d565b806000036115d057604051635eeb40ff60e11b815260040160405180910390fd5b90506100e2565b60606100e2848460008561163f565b6000816040516020016115f99190611b84565b60405160208183030381529060405280519060200120836040516020016116209190611b84565b6040516020818303038152906040528051906020012014905092915050565b6060824710156116a05760405162461bcd60e51b815260206004820152602660248201527f416464726573733a20696e73756666696369656e742062616c616e636520666f6044820152651c8818d85b1b60d21b6064820152608401610118565b600080866001600160a01b031685876040516116bc9190611b84565b60006040518083038185875af1925050503d80600081146116f9576040519150601f19603f3d011682016040523d82523d6000602084013e6116fe565b606091505b509150915061170f8783838761171a565b979650505050505050565b60608315611789578251600003611782576001600160a01b0385163b6117825760405162461bcd60e51b815260206004820152601d60248201527f416464726573733a2063616c6c20746f206e6f6e2d636f6e74726163740000006044820152606401610118565b50816100e2565b6100e2838381511561179e5781518083602001fd5b8060405162461bcd60e51b81526004016101189190611c8d565b6001600160a01b0381168114610bc257600080fd5b634e487b7160e01b600052604160045260246000fd5b601f8201601f1916810167ffffffffffffffff81118282101715611809576118096117cd565b6040525050565b6000806000806080858703121561182657600080fd5b8435611831816117b8565b9350602085810135611842816117b8565b935060408601359250606086013567ffffffffffffffff8082111561186657600080fd5b818801915088601f83011261187a57600080fd5b81358181111561188c5761188c6117cd565b8060051b91506040516118a1858401826117e3565b8181529183018401918481018b8411156118ba57600080fd5b938501935b838510156118d657843581529385019385016118bf565b50979a9699509497505050505050565b600080604083850312156118f957600080fd5b8235611904816117b8565b915060208381013567ffffffffffffffff8082111561192257600080fd5b818601915086601f83011261193657600080fd5b813581811115611948576119486117cd565b6040519150611960601f8201601f19168501836117e3565b808252878482850101111561197457600080fd5b80848401858401376000848284010152508093505050509250929050565b6000806000606084860312156119a757600080fd5b83356119b2816117b8565b925060208401356119c2816117b8565b929592945050506040919091013590565b600080600083850360a08112156119e957600080fd5b84356119f4816117b8565b93506020850135611a04816117b8565b92506060603f1982011215611a1857600080fd5b506040516060810181811067ffffffffffffffff82111715611a3c57611a3c6117cd565b8060405250604085013581526060850135602082015260808501356040820152809150509250925092565b600080600080600060a08688031215611a7f57600080fd5b855194506020860151935060408601519250606086015191506080860151611aa6816117b8565b809150509295509295909350565b600060208284031215611ac657600080fd5b81516104e3816117b8565b600060208284031215611ae357600080fd5b5051919050565b634e487b7160e01b600052602160045260246000fd5b80518015158114611b1057600080fd5b919050565b600080600060608486031215611b2a57600080fd5b611b3384611b00565b925060208401519150604084015190509250925092565b634e487b7160e01b600052603260045260246000fd5b60005b83811015611b7b578181015183820152602001611b63565b50506000910152565b60008251611b96818460208701611b60565b9190910192915050565b600060208284031215611bb257600080fd5b6104e382611b00565b600060033d1115611bd45760046000803e5060005160e01c5b90565b600060443d1015611be55790565b6040516003193d81016004833e81513d67ffffffffffffffff8160248401118184111715611c1557505050505090565b8285019150815181811115611c2d5750505050505090565b843d8701016020828501011115611c475750505050505090565b611c56602082860101876117e3565b509095945050505050565b60008151808452611c79816020860160208601611b60565b601f01601f19169290920160200192915050565b6020815260006104e36020830184611c61565b634e487b7160e01b600052601160045260246000fd5b8082018082111561129f5761129f611ca0565b805182526000602082015160028110611cf257634e487b7160e01b600052602160045260246000fd5b80602085015250604082015160018060a01b03808216604086015280606085015116606086015250506080820151608084015260a082015160c060a085015261129b60c0850182611c61565b60a081526000611d5160a0830185611cc9565b90506104e3602083018480516001600160a01b039081168352602080830151151590840152604080830151909116908301526060908101511515910152565b60e081526000611da360e0830187611cc9565b9050611de2602083018680516001600160a01b039081168352602080830151151590840152604080830151909116908301526060908101511515910152565b60a082019390935260c0015292915050565b600060208284031215611e0657600080fd5b815160ff811681146104e357600080fd5b8181038181111561129f5761129f611ca0565b600181815b80851115611e65578160001904821115611e4b57611e4b611ca0565b80851615611e5857918102915b93841c9390800290611e2f565b509250929050565b600082611e7c5750600161129f565b81611e895750600061129f565b8160018114611e9f5760028114611ea957611ec5565b600191505061129f565b60ff841115611eba57611eba611ca0565b50506001821b61129f565b5060208310610133831016604e8410600b8410161715611ee8575081810a61129f565b611ef28383611e2a565b8060001904821115611f0657611f06611ca0565b029392505050565b60006104e38383611e6d565b600082611f3757634e487b7160e01b600052601260045260246000fd5b50049056fea26469706673582212203710021bf973f0eefda6d212b167401ee9d55688c96a1e9e28ccbc9f1c86632e64736f6c63430008150033",
    "linkReferences": {}
  },
  "methodIdentifiers": {
    "recicleOZL(address,address,uint256)": "ab399cf8",
    "sendLSD(address,address,uint256)": "dde5543b",
    "useOZL(address,address,uint256,uint256[])": "094463e7",
    "useOzTokens(address,bytes)": "a1b86b38",
    "useUnderlying(address,address,(uint256,uint256,uint256))": "b50f68fd"
  },
  "id": 13
}