{
  "abi": [
    {
      "inputs": [],
      "name": "InvalidBalancerSwap",
      "type": "error"
    },
    {
      "inputs": [
        {
          "internalType": "string",
          "name": "errorMsg",
          "type": "string"
        }
      ],
      "name": "OZError01",
      "type": "error"
    },
    {
      "inputs": [
        {
          "internalType": "enum Asset",
          "name": "type_",
          "type": "uint8"
        }
      ],
      "name": "totalUnderlying",
      "outputs": [
        {
          "internalType": "uint256",
          "name": "total",
          "type": "uint256"
        }
      ],
      "stateMutability": "view",
      "type": "function"
    },
    {
      "inputs": [
        {
          "internalType": "address",
          "name": "owner_",
          "type": "address"
        },
        {
          "internalType": "bytes",
          "name": "data_",
          "type": "bytes"
        }
      ],
      "name": "useOzTokens",
      "outputs": [
        {
          "internalType": "uint256",
          "name": "amountOut",
          "type": "uint256"
        }
      ],
      "stateMutability": "nonpayable",
      "type": "function"
    },
    {
      "inputs": [
        {
          "internalType": "address",
          "name": "underlying_",
          "type": "address"
        },
        {
          "internalType": "address",
          "name": "owner_",
          "type": "address"
        },
        {
          "components": [
            {
              "internalType": "uint256",
              "name": "amountIn",
              "type": "uint256"
            },
            {
              "internalType": "uint256",
              "name": "minWethOut",
              "type": "uint256"
            },
            {
              "internalType": "uint256",
              "name": "minRethOut",
              "type": "uint256"
            }
          ],
          "internalType": "struct AmountsIn",
          "name": "amounts_",
          "type": "tuple"
        }
      ],
      "name": "useUnderlying",
      "outputs": [],
      "stateMutability": "nonpayable",
      "type": "function"
    }
  ],
  "bytecode": {
    "object": "0x608060405234801561001057600080fd5b50611611806100206000396000f3fe608060405234801561001057600080fd5b50600436106100415760003560e01c8063a1b86b3814610046578063a4fc284b1461006b578063b50f68fd1461007e575b600080fd5b610059610054366004610f62565b610093565b60405190815260200160405180910390f35b61005961007936600461100e565b6101d6565b61009161008c366004611036565b6102f4565b005b600080600080600080868060200190518101906100b091906110ca565b9398509196509450925090506100c83389308861065c565b600a546002546100e6916001600160a01b0390811691168686610763565b6002546040516370a0823160e01b81523060048201526101ca916001600160a01b0316906370a0823190602401602060405180830381865afa158015610130573d6000803e3d6000fd5b505050506040513d601f19601f820116820180604052508101906101549190611117565b600254604080516338d52e0f60e01b8152905186926001600160a01b03169133916338d52e0f916004808201926020929091908290030181865afa1580156101a0573d6000803e3d6000fd5b505050506040513d601f19601f820116820180604052508101906101c49190611130565b856109af565b98975050505050505050565b600a546040516370a0823160e01b81523060048201526000916001600160a01b0316906370a0823190602401602060405180830381865afa15801561021f573d6000803e3d6000fd5b505050506040513d601f19601f820116820180604052508101906102439190611117565b905060008260018111156102595761025961114d565b036102ef5760065460408051633fabe5a360e21b815290516000926001600160a01b03169163feaf968c9160048083019260a09291908290030181865afa1580156102a8573d6000803e3d6000fd5b505050506040513d601f19601f820116820180604052508101906102cc919061117d565b5050509150506102eb826305f5e10083610b549092919063ffffffff16565b9150505b919050565b805161030b6001600160a01b03851684308461065c565b602082015160025460009161032e9184919088906001600160a01b0316306109af565b905061033981610b72565b1561046c57600254604051632e1a7d4d60e01b8152600481018390526001600160a01b0390911690632e1a7d4d90602401600060405180830381600087803b15801561038457600080fd5b505af1158015610398573d6000803e3d6000fd5b50506011546012546040516321f8a72160e01b81526004810191909152600093506001600160a01b0390911691506321f8a72190602401602060405180830381865afa1580156103ec573d6000803e3d6000fd5b505050506040513d601f19601f820116820180604052508101906104109190611130565b9050806001600160a01b031663d0e30db0836040518263ffffffff1660e01b81526004016000604051808303818588803b15801561044d57600080fd5b505af1158015610461573d6000803e3d6000fd5b505050505050610655565b6015546040805163081960eb60e21b815290516000926001600160a01b03169163206583ac9160048083019260209291908290030181865afa1580156104b6573d6000803e3d6000fd5b505050506040513d601f19601f820116820180604052508101906104da91906111dd565b600254604051632e1a7d4d60e01b8152600481018590529192506001600160a01b031690632e1a7d4d90602401600060405180830381600087803b15801561052157600080fd5b505af1158015610535573d6000803e3d6000fd5b5050601554604051634dcd454760e01b81523060048201526001600160a01b039091169250634dcd45479150849060240160206040518083038185885af1158015610584573d6000803e3d6000fd5b50505050506040513d601f19601f820116820180604052508101906105a99190611117565b506016546040516370a0823160e01b81523060048201526000916001600160a01b0316906370a0823190602401602060405180830381865afa1580156105f3573d6000803e3d6000fd5b505050506040513d601f19601f820116820180604052508101906106179190611117565b905061064c60405180604001604052806011815260200170039b3393c22aa24103130b6103839329d1607d1b81525082610d01565b5050610655565b505b5050505050565b604080516001600160a01b0385811660248301528481166044830152606480830185905283518084039091018152608490920183526020820180516001600160e01b03166323b872dd60e01b17905291516000928392908816916106c0919061121c565b6000604051808303816000865af19150503d80600081146106fd576040519150601f19603f3d011682016040523d82523d6000602084013e610702565b606091505b509150915081801561072c57508051158061072c57508080602001905181019061072c91906111dd565b6106535760405162461bcd60e51b815260206004820152600360248201526229aa2360e91b60448201526064015b60405180910390fd5b6040805160c08101808352600b5463038fff2d60e41b909152915160009282916001600160a01b03909116906338fff2d09060c4808501916020918187030181865afa1580156107b7573d6000803e3d6000fd5b505050506040513d601f19601f820116820180604052508101906107db9190611117565b8152602001600081526001600160a01b038088166020830152861660408201526060810185905260800160006040519080825280601f01601f191660200182016040528015610831576020820181803683370190505b50905260408051608081018252308082526000602083018190528284019190915260608201819052600954925163e969f6b360e01b8152939450909290916001600160a01b03169063e969f6b39061088f90869086906004016112d9565b6020604051808303816000875af11580156108ae573d6000803e3d6000fd5b505050506040513d601f19601f820116820180604052508101906108d29190611117565b905060008185116108e357816108e5565b845b6008546080860151919250610907916001600160a01b038b8116921690610d4a565b6008546040516352bbbe2960e01b81526000916001600160a01b0316906352bbbe299061093e90889088908790429060040161132b565b6020604051808303816000875af115801561095d573d6000803e3d6000fd5b505050506040513d601f19601f820116820180604052508101906109819190611117565b9050806000036109a457604051635448e7e960e01b815260040160405180910390fd5b505050505050505050565b6005546000906109cc906001600160a01b03868116911688610d4a565b6000604051806101000160405280866001600160a01b03168152602001856001600160a01b031681526020016101f462ffffff168152602001846001600160a01b03168152602001428152602001888152602001610a2a8887610e43565b815260006020918201526005546040805163414bf38960e01b815284516001600160a01b03908116600483015293850151841660248201529084015162ffffff1660448201526060840151831660648201526080840151608482015260a084015160a482015260c084015160c482015260e0840151831660e4820152929350169063414bf38990610104016020604051808303816000875af1925050508015610af0575060408051601f3d908101601f19168201909252610aed91810190611117565b60015b610b4257610afc61138f565b806308c379a003610b365750610b106113ab565b80610b1b5750610b38565b8060405163633abab960e01b815260040161075a9190611435565b505b3d6000803e3d6000fd5b9150610b4b9050565b95945050505050565b6000826000190484118302158202610b6b57600080fd5b5091020490565b6013546040516335ee5f8760e01b81526020600482015260116024820152701c9bd8dad95d11195c1bdcda5d141bdbdb607a1b604482015260009182916001600160a01b03909116906335ee5f8790606401602060405180830381865afa158015610be1573d6000803e3d6000fd5b505050506040513d601f19601f82011682018060405250810190610c059190611117565b90506000610c13848361145e565b6011546014546040516321f8a72160e01b81529293506000926001600160a01b03909216916321f8a72191610c4e9160040190815260200190565b602060405180830381865afa158015610c6b573d6000803e3d6000fd5b505050506040513d601f19601f82011682018060405250810190610c8f9190611130565b90506000816001600160a01b031663fd6ce89e6040518163ffffffff1660e01b8152600401602060405180830381865afa158015610cd1573d6000803e3d6000fd5b505050506040513d601f19601f82011682018060405250810190610cf59190611117565b90921095945050505050565b610d468282604051602401610d17929190611471565b60408051601f198184030181529190526020810180516001600160e01b03166309710a9d60e41b179052610ee6565b5050565b604080516001600160a01b038481166024830152604480830185905283518084039091018152606490920183526020820180516001600160e01b031663095ea7b360e01b1790529151600092839290871691610da6919061121c565b6000604051808303816000865af19150503d8060008114610de3576040519150601f19603f3d011682016040523d82523d6000602084013e610de8565b606091505b5091509150818015610e12575080511580610e12575080806020019051810190610e1291906111dd565b6106555760405162461bcd60e51b8152602060048201526002602482015261534160f01b604482015260640161075a565b600080826001600160a01b031663313ce5676040518163ffffffff1660e01b8152600401602060405180830381865afa158015610e84573d6000803e3d6000fd5b505050506040513d601f19601f82011682018060405250810190610ea89190611493565b60ff16905080601214610eda57610ec08160126114b6565b610ecb90600a6115ad565b610ed590856115b9565b610edc565b835b9150505b92915050565b80516a636f6e736f6c652e6c6f67602083016000808483855afa5050505050565b6001600160a01b0381168114610f1c57600080fd5b50565b634e487b7160e01b600052604160045260246000fd5b601f8201601f1916810167ffffffffffffffff81118282101715610f5b57610f5b610f1f565b6040525050565b60008060408385031215610f7557600080fd5b8235610f8081610f07565b915060208381013567ffffffffffffffff80821115610f9e57600080fd5b818601915086601f830112610fb257600080fd5b813581811115610fc457610fc4610f1f565b6040519150610fdc601f8201601f1916850183610f35565b8082528784828501011115610ff057600080fd5b80848401858401376000848284010152508093505050509250929050565b60006020828403121561102057600080fd5b81356002811061102f57600080fd5b9392505050565b600080600083850360a081121561104c57600080fd5b843561105781610f07565b9350602085013561106781610f07565b92506060603f198201121561107b57600080fd5b506040516060810181811067ffffffffffffffff8211171561109f5761109f610f1f565b8060405250604085013581526060850135602082015260808501356040820152809150509250925092565b600080600080600060a086880312156110e257600080fd5b85519450602086015193506040860151925060608601519150608086015161110981610f07565b809150509295509295909350565b60006020828403121561112957600080fd5b5051919050565b60006020828403121561114257600080fd5b815161102f81610f07565b634e487b7160e01b600052602160045260246000fd5b805169ffffffffffffffffffff811681146102ef57600080fd5b600080600080600060a0868803121561119557600080fd5b61119e86611163565b94506020860151935060408601519250606086015191506111c160808701611163565b90509295509295909350565b805180151581146102ef57600080fd5b6000602082840312156111ef57600080fd5b61102f826111cd565b60005b838110156112135781810151838201526020016111fb565b50506000910152565b6000825161122e8184602087016111f8565b9190910192915050565b600081518084526112508160208601602086016111f8565b601f01601f19169290920160200192915050565b80518252600060208201516002811061128d57634e487b7160e01b600052602160045260246000fd5b80602085015250604082015160018060a01b03808216604086015280606085015116606086015250506080820151608084015260a082015160c060a0850152610edc60c0850182611238565b60a0815260006112ec60a0830185611264565b905061102f602083018480516001600160a01b039081168352602080830151151590840152604080830151909116908301526060908101511515910152565b60e08152600061133e60e0830187611264565b905061137d602083018680516001600160a01b039081168352602080830151151590840152604080830151909116908301526060908101511515910152565b60a082019390935260c0015292915050565b600060033d11156113a85760046000803e5060005160e01c5b90565b600060443d10156113b95790565b6040516003193d81016004833e81513d67ffffffffffffffff81602484011181841117156113e957505050505090565b82850191508151818111156114015750505050505090565b843d870101602082850101111561141b5750505050505090565b61142a60208286010187610f35565b509095945050505050565b60208152600061102f6020830184611238565b634e487b7160e01b600052601160045260246000fd5b80820180821115610ee057610ee0611448565b6040815260006114846040830185611238565b90508260208301529392505050565b6000602082840312156114a557600080fd5b815160ff8116811461102f57600080fd5b81810381811115610ee057610ee0611448565b600181815b808511156115045781600019048211156114ea576114ea611448565b808516156114f757918102915b93841c93908002906114ce565b509250929050565b60008261151b57506001610ee0565b8161152857506000610ee0565b816001811461153e576002811461154857611564565b6001915050610ee0565b60ff84111561155957611559611448565b50506001821b610ee0565b5060208310610133831016604e8410600b8410161715611587575081810a610ee0565b61159183836114c9565b80600019048211156115a5576115a5611448565b029392505050565b600061102f838361150c565b6000826115d657634e487b7160e01b600052601260045260246000fd5b50049056fea2646970667358221220d05343743e5fb61ecb73ee16328e47f46c9991a198a4680abbfb6dd90debaafd64736f6c63430008150033",
    "linkReferences": {}
  },
  "methodIdentifiers": {
    "totalUnderlying(uint8)": "a4fc284b",
    "useOzTokens(address,bytes)": "a1b86b38",
    "useUnderlying(address,address,(uint256,uint256,uint256))": "b50f68fd"
  },
  "id": 8
}