{
  "abi": [
    {
      "inputs": [
        {
          "internalType": "string",
          "name": "errorMsg",
          "type": "string"
        }
      ],
      "name": "OZError01",
      "type": "error"
    },
    {
      "inputs": [],
      "name": "OZError02",
      "type": "error"
    },
    {
      "inputs": [
        {
          "internalType": "string",
          "name": "errorCode",
          "type": "string"
        }
      ],
      "name": "OZError10",
      "type": "error"
    },
    {
      "inputs": [
        {
          "internalType": "address",
          "name": "caller",
          "type": "address"
        }
      ],
      "name": "OZError13",
      "type": "error"
    },
    {
      "inputs": [],
      "name": "OZError20",
      "type": "error"
    },
    {
      "inputs": [
        {
          "internalType": "string",
          "name": "reason",
          "type": "string"
        }
      ],
      "name": "OZError21",
      "type": "error"
    },
    {
      "inputs": [
        {
          "internalType": "address",
          "name": "owner_",
          "type": "address"
        },
        {
          "internalType": "address",
          "name": "ozl_",
          "type": "address"
        },
        {
          "internalType": "uint256",
          "name": "amountIn_",
          "type": "uint256"
        }
      ],
      "name": "recicleOZL",
      "outputs": [],
      "stateMutability": "nonpayable",
      "type": "function"
    },
    {
      "inputs": [
        {
          "internalType": "address",
          "name": "tokenOut_",
          "type": "address"
        },
        {
          "internalType": "address",
          "name": "receiver_",
          "type": "address"
        },
        {
          "internalType": "uint256",
          "name": "amountInLsd_",
          "type": "uint256"
        },
        {
          "internalType": "uint256[]",
          "name": "minAmountsOut_",
          "type": "uint256[]"
        }
      ],
      "name": "useOZL",
      "outputs": [
        {
          "internalType": "uint256",
          "name": "",
          "type": "uint256"
        }
      ],
      "stateMutability": "nonpayable",
      "type": "function"
    },
    {
      "inputs": [
        {
          "internalType": "address",
          "name": "owner_",
          "type": "address"
        },
        {
          "internalType": "bytes",
          "name": "data_",
          "type": "bytes"
        }
      ],
      "name": "useOzTokens",
      "outputs": [
        {
          "internalType": "uint256",
          "name": "amountOut",
          "type": "uint256"
        }
      ],
      "stateMutability": "nonpayable",
      "type": "function"
    },
    {
      "inputs": [
        {
          "internalType": "address",
          "name": "underlying_",
          "type": "address"
        },
        {
          "internalType": "address",
          "name": "owner_",
          "type": "address"
        },
        {
          "components": [
            {
              "internalType": "uint256",
              "name": "amountIn",
              "type": "uint256"
            },
            {
              "internalType": "uint256[]",
              "name": "minAmountsOut",
              "type": "uint256[]"
            }
          ],
          "internalType": "struct AmountsIn",
          "name": "amounts_",
          "type": "tuple"
        }
      ],
      "name": "useUnderlying",
      "outputs": [],
      "stateMutability": "nonpayable",
      "type": "function"
    }
  ],
  "bytecode": {
    "object": "0x608060405234801561001057600080fd5b50611ff4806100206000396000f3fe608060405234801561001057600080fd5b506004361061004c5760003560e01c8063094463e7146100515780639ea04fe414610076578063a1b86b381461008b578063ab399cf81461009e575b600080fd5b61006461005f3660046118dc565b6100b1565b60405190815260200160405180910390f35b610089610084366004611948565b6100d9565b005b6100646100993660046119fc565b6102cd565b6100896100ac366004611aa8565b610442565b600a546000906100ce906001600160a01b031686868686866104a4565b90505b949350505050565b3360009081526015602052604090205460ff166101105760405163a43f931360e01b81523360048201526024015b60405180910390fd5b8051602082015161012c6001600160a01b03861685308561065e565b60035481516000916101649188916001600160a01b03169086908690869061015657610156611ae9565b602002602001015130610760565b905061016f816108fc565b156102a257600354604051632e1a7d4d60e01b8152600481018390526001600160a01b0390911690632e1a7d4d90602401600060405180830381600087803b1580156101ba57600080fd5b505af11580156101ce573d6000803e3d6000fd5b50506010546011546040516321f8a72160e01b81526004810191909152600093506001600160a01b0390911691506321f8a72190602401602060405180830381865afa158015610222573d6000803e3d6000fd5b505050506040513d601f19601f820116820180604052508101906102469190611aff565b9050806001600160a01b031663d0e30db0836040518263ffffffff1660e01b81526004016000604051808303818588803b15801561028357600080fd5b505af1158015610297573d6000803e3d6000fd5b5050505050506102c5565b600354600a546102c3916001600160a01b03908116911630848660016104a4565b505b505050505050565b3360009081526015602052604081205460ff166102ff5760405163a43f931360e01b8152336004820152602401610107565b60008060008060008680602001905181019061031b9190611b1c565b9398509196509450925090506103333389308861065e565b600a54600354610351916001600160a01b0390811691168686610a8b565b600354604080516338d52e0f60e01b81529051610436926001600160a01b03169133916338d52e0f916004808201926020929091908290030181865afa15801561039f573d6000803e3d6000fd5b505050506040513d601f19601f820116820180604052508101906103c39190611aff565b6003546040516370a0823160e01b81523060048201526001600160a01b03909116906370a0823190602401602060405180830381865afa15801561040b573d6000803e3d6000fd5b505050506040513d601f19601f8201168201806040525081019061042f9190611b69565b8585610760565b98975050505050505050565b6104576001600160a01b038316843084610b2a565b60405163c3ae3a0960e01b815260048101829052309063c3ae3a0990602401600060405180830381600087803b15801561049057600080fd5b505af11580156102c3573d6000803e3d6000fd5b60008080808460028111156104bb576104bb611b82565b036104f25760035485516001600160a01b03909116925085906000906104e3576104e3611ae9565b6020026020010151905061052c565b600184600281111561050657610506611b82565b0361052c578791508460018151811061052157610521611ae9565b602002602001015190505b6000805460408051631c0de05160e01b815290516001600160a01b0390921691631c0de051916004808201926060929091908290030181865afa158015610577573d6000803e3d6000fd5b505050506040513d601f19601f8201168201806040525081019061059b9190611bad565b5050905080156105b9576105b28a84308a86610b9b565b93506105ca565b6105c78a8489856000610c0d565b93505b60008560028111156105de576105de611b82565b03610651576003546001600160a01b03908116908a160361061557600354610610906001600160a01b03168986610ef1565b610651565b600354865161064e916001600160a01b0316908b908b9088908b90600190811061064157610641611ae9565b6020026020010151610b9b565b93505b5050509695505050505050565b604080516001600160a01b0385811660248301528481166044830152606480830185905283518084039091018152608490920183526020820180516001600160e01b03166323b872dd60e01b17905291516000928392908816916106c29190611c06565b6000604051808303816000865af19150503d80600081146106ff576040519150601f19603f3d011682016040523d82523d6000602084013e610704565b606091505b509150915081801561072e57508051158061072e57508080602001905181019061072e9190611c22565b6102c55760405162461bcd60e51b815260206004820152600360248201526229aa2360e91b6044820152606401610107565b60065460009061077d906001600160a01b03888116911686610f26565b60408051610100810182526001600160a01b038089168252878116602083015260145462ffffff1692820192909252908316606082015242608082015260a0810185905260009060c081016107d2868961101f565b815260006020918201526006546040805163414bf38960e01b815284516001600160a01b03908116600483015293850151841660248201529084015162ffffff1660448201526060840151831660648201526080840151608482015260a084015160a482015260c084015160c482015260e0840151831660e4820152929350169063414bf38990610104016020604051808303816000875af1925050508015610898575060408051601f3d908101601f1916820190925261089591810190611b69565b60015b6108ea576108a4611c3d565b806308c379a0036108de57506108b8611c59565b806108c357506108e0565b8060405163633abab960e01b81526004016101079190611d0f565b505b3d6000803e3d6000fd5b91506108f39050565b95945050505050565b6012546040516335ee5f8760e01b81526020600482015260116024820152701c9bd8dad95d11195c1bdcda5d141bdbdb607a1b604482015260009182916001600160a01b03909116906335ee5f8790606401602060405180830381865afa15801561096b573d6000803e3d6000fd5b505050506040513d601f19601f8201168201806040525081019061098f9190611b69565b9050600061099d8483611d38565b6010546013546040516321f8a72160e01b81529293506000926001600160a01b03909216916321f8a721916109d89160040190815260200190565b602060405180830381865afa1580156109f5573d6000803e3d6000fd5b505050506040513d601f19601f82011682018060405250810190610a199190611aff565b90506000816001600160a01b031663fd6ce89e6040518163ffffffff1660e01b8152600401602060405180830381865afa158015610a5b573d6000803e3d6000fd5b505050506040513d601f19601f82011682018060405250810190610a7f9190611b69565b90921095945050505050565b6000805460408051631c0de05160e01b815290516001600160a01b0390921691631c0de051916004808201926060929091908290030181865afa158015610ad6573d6000803e3d6000fd5b505050506040513d601f19601f82011682018060405250810190610afa9190611bad565b505090508015610b1757610b118585858530610760565b50610b23565b610b23858585856110c2565b5050505050565b6040516001600160a01b0380851660248301528316604482015260648101829052610b959085906323b872dd60e01b906084015b60408051601f198184030181529190526020810180516001600160e01b03166001600160e01b031990931692909217909152611304565b50505050565b600654600090610bb8906001600160a01b038881169116856113d9565b60408051610100810182526001600160a01b038089168252878116602083015260145462ffffff1692820192909252908516606082015242608082015260a0810184905260009060c081016107d2858961101f565b6040805160c081018083526000805463038fff2d60e41b909252925183929182916001600160a01b03909116906338fff2d09060c4808501916020918187030181865afa158015610c62573d6000803e3d6000fd5b505050506040513d601f19601f82011682018060405250810190610c869190611b69565b8152602001600081526001600160a01b03808a166020830152881660408201526060810187905260800160006040519080825280601f01601f191660200182016040528015610cdc576020820181803683370190505b5090526040805160808101825230808252600060208301819052928201526060810182905291925080856002811115610d1757610d17611b82565b03610d23575084610eb9565b6000856002811115610d3757610d37611b82565b14610eb95760095460405163e969f6b360e01b81526001600160a01b039091169063e969f6b390610d6e9086908690600401611dc0565b6020604051808303816000875af1925050508015610da9575060408051601f3d908101601f19168201909252610da691810190611b69565b60015b610def57610db5611c3d565b806308c379a0036108de5750610dc9611c59565b80610dd457506108e0565b8060405163dafe91cd60e01b81526004016101079190611d0f565b86818111610dfd5781610dff565b805b92506001876002811115610e1557610e15611b82565b03610eb6576008546080860151610e3a916001600160a01b038e8116929116906113d9565b6008546040516352bbbe2960e01b81526001600160a01b03909116906352bbbe2990610e70908890889088904290600401611e12565b6020604051808303816000875af1158015610e8f573d6000803e3d6000fd5b505050506040513d601f19601f82011682018060405250810190610eb39190611b69565b95505b50505b6008546080840151610ed8918b916001600160a01b03909116906113d9565b610ee4838383426114ee565b9998505050505050505050565b6040516001600160a01b038316602482015260448101829052610f2190849063a9059cbb60e01b90606401610b5e565b505050565b604080516001600160a01b038481166024830152604480830185905283518084039091018152606490920183526020820180516001600160e01b031663095ea7b360e01b1790529151600092839290871691610f829190611c06565b6000604051808303816000865af19150503d8060008114610fbf576040519150601f19603f3d011682016040523d82523d6000602084013e610fc4565b606091505b5091509150818015610fee575080511580610fee575080806020019051810190610fee9190611c22565b610b235760405162461bcd60e51b8152602060048201526002602482015261534160f01b6044820152606401610107565b600080826001600160a01b031663313ce5676040518163ffffffff1660e01b8152600401602060405180830381865afa158015611060573d6000803e3d6000fd5b505050506040513d601f19601f820116820180604052508101906110849190611e76565b60ff169050806012146110b65761109c816012611e99565b6110a790600a611f90565b6110b19085611f9c565b6110b8565b835b9150505b92915050565b6040805160c081018083526000805463038fff2d60e41b909252925183929182916001600160a01b03909116906338fff2d09060c4808501916020918187030181865afa158015611117573d6000803e3d6000fd5b505050506040513d601f19601f8201168201806040525081019061113b9190611b69565b8152602001600081526001600160a01b038089166020830152871660408201526060810186905260800160006040519080825280601f01601f191660200182016040528015611191576020820181803683370190505b5090526040805160808101825230808252600060208301819052828401919091526060820152600954915163e969f6b360e01b8152929350916001600160a01b039091169063e969f6b3906111ec9085908590600401611dc0565b6020604051808303816000875af1925050508015611227575060408051601f3d908101601f1916820190925261122491810190611b69565b60015b61123357610db5611c3d565b60008186116112425781611244565b855b6008546080860151919250611266916001600160a01b038c8116921690610f26565b6008546040516352bbbe2960e01b81526001600160a01b03909116906352bbbe299061129c908790879086904290600401611e12565b6020604051808303816000875af11580156112bb573d6000803e3d6000fd5b505050506040513d601f19601f820116820180604052508101906112df9190611b69565b94505050826000036102c357604051635eeb40ff60e11b815260040160405180910390fd5b6000611359826040518060400160405280602081526020017f5361666545524332303a206c6f772d6c6576656c2063616c6c206661696c6564815250856001600160a01b03166116159092919063ffffffff16565b905080516000148061137a57508080602001905181019061137a9190611c22565b610f215760405162461bcd60e51b815260206004820152602a60248201527f5361666545524332303a204552433230206f7065726174696f6e20646964206e6044820152691bdd081cdd58d8d9595960b21b6064820152608401610107565b8015806114535750604051636eb1769f60e11b81523060048201526001600160a01b03838116602483015284169063dd62ed3e90604401602060405180830381865afa15801561142d573d6000803e3d6000fd5b505050506040513d601f19601f820116820180604052508101906114519190611b69565b155b6114be5760405162461bcd60e51b815260206004820152603660248201527f5361666545524332303a20617070726f76652066726f6d206e6f6e2d7a65726f60448201527520746f206e6f6e2d7a65726f20616c6c6f77616e636560501b6064820152608401610107565b6040516001600160a01b038316602482015260448101829052610f2190849063095ea7b360e01b90606401610b5e565b6008546040516352bbbe2960e01b81526000916001600160a01b0316906352bbbe2990611525908890889088908890600401611e12565b6020604051808303816000875af1925050508015611560575060408051601f3d908101601f1916820190925261155d91810190611b69565b60015b6115ed5761156c611c3d565b806308c379a0036108de5750611580611c59565b8061158b57506108e0565b6115b4816040518060400160405280600781526020016642414c2335303760c81b81525061162e565b156115d257604051637b19dd3560e11b815260040160405180910390fd5b806040516324af18bb60e21b81526004016101079190611d0f565b8060000361160e57604051635eeb40ff60e11b815260040160405180910390fd5b90506100d1565b60606116248484600085611687565b90505b9392505050565b6000816040516020016116419190611c06565b60405160208183030381529060405280519060200120836040516020016116689190611c06565b6040516020818303038152906040528051906020012014905092915050565b6060824710156116e85760405162461bcd60e51b815260206004820152602660248201527f416464726573733a20696e73756666696369656e742062616c616e636520666f6044820152651c8818d85b1b60d21b6064820152608401610107565b600080866001600160a01b031685876040516117049190611c06565b60006040518083038185875af1925050503d8060008114611741576040519150601f19603f3d011682016040523d82523d6000602084013e611746565b606091505b509150915061175787838387611762565b979650505050505050565b606083156117d15782516000036117ca576001600160a01b0385163b6117ca5760405162461bcd60e51b815260206004820152601d60248201527f416464726573733a2063616c6c20746f206e6f6e2d636f6e74726163740000006044820152606401610107565b50816100d1565b6100d183838151156117e65781518083602001fd5b8060405162461bcd60e51b81526004016101079190611d0f565b6001600160a01b038116811461181557600080fd5b50565b634e487b7160e01b600052604160045260246000fd5b601f8201601f1916810167ffffffffffffffff8111828210171561185457611854611818565b6040525050565b600082601f83011261186c57600080fd5b8135602067ffffffffffffffff82111561188857611888611818565b8160051b60405161189b8383018261182e565b928352848101820192828101878511156118b457600080fd5b83870192505b848310156118d157823581529183019183016118ba565b509695505050505050565b600080600080608085870312156118f257600080fd5b84356118fd81611800565b9350602085013561190d81611800565b925060408501359150606085013567ffffffffffffffff81111561193057600080fd5b61193c8782880161185b565b91505092959194509250565b60008060006060848603121561195d57600080fd5b833561196881611800565b9250602084013561197881611800565b9150604084013567ffffffffffffffff8082111561199557600080fd5b90850190604082880312156119a957600080fd5b6040516040810181811083821117156119c4576119c4611818565b604052823581526020830135828111156119dd57600080fd5b6119e98982860161185b565b6020830152508093505050509250925092565b60008060408385031215611a0f57600080fd5b8235611a1a81611800565b915060208381013567ffffffffffffffff80821115611a3857600080fd5b818601915086601f830112611a4c57600080fd5b813581811115611a5e57611a5e611818565b6040519150611a76601f8201601f191685018361182e565b8082528784828501011115611a8a57600080fd5b80848401858401376000848284010152508093505050509250929050565b600080600060608486031215611abd57600080fd5b8335611ac881611800565b92506020840135611ad881611800565b929592945050506040919091013590565b634e487b7160e01b600052603260045260246000fd5b600060208284031215611b1157600080fd5b815161162781611800565b600080600080600060a08688031215611b3457600080fd5b855194506020860151935060408601519250606086015191506080860151611b5b81611800565b809150509295509295909350565b600060208284031215611b7b57600080fd5b5051919050565b634e487b7160e01b600052602160045260246000fd5b80518015158114611ba857600080fd5b919050565b600080600060608486031215611bc257600080fd5b611bcb84611b98565b925060208401519150604084015190509250925092565b60005b83811015611bfd578181015183820152602001611be5565b50506000910152565b60008251611c18818460208701611be2565b9190910192915050565b600060208284031215611c3457600080fd5b61162782611b98565b600060033d1115611c565760046000803e5060005160e01c5b90565b600060443d1015611c675790565b6040516003193d81016004833e81513d67ffffffffffffffff8160248401118184111715611c9757505050505090565b8285019150815181811115611caf5750505050505090565b843d8701016020828501011115611cc95750505050505090565b611cd86020828601018761182e565b509095945050505050565b60008151808452611cfb816020860160208601611be2565b601f01601f19169290920160200192915050565b6020815260006116276020830184611ce3565b634e487b7160e01b600052601160045260246000fd5b808201808211156110bc576110bc611d22565b805182526000602082015160028110611d7457634e487b7160e01b600052602160045260246000fd5b80602085015250604082015160018060a01b03808216604086015280606085015116606086015250506080820151608084015260a082015160c060a08501526110b860c0850182611ce3565b60a081526000611dd360a0830185611d4b565b9050611627602083018480516001600160a01b039081168352602080830151151590840152604080830151909116908301526060908101511515910152565b60e081526000611e2560e0830187611d4b565b9050611e64602083018680516001600160a01b039081168352602080830151151590840152604080830151909116908301526060908101511515910152565b60a082019390935260c0015292915050565b600060208284031215611e8857600080fd5b815160ff8116811461162757600080fd5b818103818111156110bc576110bc611d22565b600181815b80851115611ee7578160001904821115611ecd57611ecd611d22565b80851615611eda57918102915b93841c9390800290611eb1565b509250929050565b600082611efe575060016110bc565b81611f0b575060006110bc565b8160018114611f215760028114611f2b57611f47565b60019150506110bc565b60ff841115611f3c57611f3c611d22565b50506001821b6110bc565b5060208310610133831016604e8410600b8410161715611f6a575081810a6110bc565b611f748383611eac565b8060001904821115611f8857611f88611d22565b029392505050565b60006116278383611eef565b600082611fb957634e487b7160e01b600052601260045260246000fd5b50049056fea26469706673582212201746ba4f05bcbadeac4eb9f506164002baf4125fb8210c46d758a8cd7bff8a8364736f6c63430008150033",
    "linkReferences": {}
  },
  "methodIdentifiers": {
    "recicleOZL(address,address,uint256)": "ab399cf8",
    "useOZL(address,address,uint256,uint256[])": "094463e7",
    "useOzTokens(address,bytes)": "a1b86b38",
    "useUnderlying(address,address,(uint256,uint256[]))": "9ea04fe4"
  },
  "id": 13
}