{
  "abi": [
    {
      "inputs": [
        {
          "internalType": "string",
          "name": "errorMsg",
          "type": "string"
        }
      ],
      "name": "OZError01",
      "type": "error"
    },
    {
      "inputs": [],
      "name": "OZError02",
      "type": "error"
    },
    {
      "inputs": [
        {
          "internalType": "string",
          "name": "errorCode",
          "type": "string"
        }
      ],
      "name": "OZError10",
      "type": "error"
    },
    {
      "inputs": [
        {
          "internalType": "address",
          "name": "caller",
          "type": "address"
        }
      ],
      "name": "OZError13",
      "type": "error"
    },
    {
      "inputs": [],
      "name": "OZError20",
      "type": "error"
    },
    {
      "inputs": [
        {
          "internalType": "string",
          "name": "reason",
          "type": "string"
        }
      ],
      "name": "OZError21",
      "type": "error"
    },
    {
      "inputs": [
        {
          "internalType": "address",
          "name": "owner_",
          "type": "address"
        },
        {
          "internalType": "address",
          "name": "ozl_",
          "type": "address"
        },
        {
          "internalType": "uint256",
          "name": "amountIn_",
          "type": "uint256"
        }
      ],
      "name": "recicleOZL",
      "outputs": [],
      "stateMutability": "nonpayable",
      "type": "function"
    },
    {
      "inputs": [
        {
          "internalType": "address",
          "name": "lsd_",
          "type": "address"
        },
        {
          "internalType": "address",
          "name": "receiver_",
          "type": "address"
        },
        {
          "internalType": "uint256",
          "name": "amount_",
          "type": "uint256"
        }
      ],
      "name": "sendLSD",
      "outputs": [
        {
          "internalType": "uint256",
          "name": "",
          "type": "uint256"
        }
      ],
      "stateMutability": "nonpayable",
      "type": "function"
    },
    {
      "inputs": [
        {
          "components": [
            {
              "internalType": "address",
              "name": "swapRouterUni",
              "type": "address"
            },
            {
              "internalType": "uint24",
              "name": "uniFee",
              "type": "uint24"
            },
            {
              "internalType": "address",
              "name": "rEthWethPoolBalancer",
              "type": "address"
            },
            {
              "internalType": "address",
              "name": "queriesBalancer",
              "type": "address"
            },
            {
              "internalType": "address",
              "name": "vaultBalancer",
              "type": "address"
            },
            {
              "internalType": "address",
              "name": "ETH",
              "type": "address"
            },
            {
              "internalType": "address",
              "name": "rETH",
              "type": "address"
            },
            {
              "internalType": "address",
              "name": "WETH",
              "type": "address"
            }
          ],
          "internalType": "struct TradingPackage",
          "name": "p",
          "type": "tuple"
        },
        {
          "internalType": "address",
          "name": "tokenOut_",
          "type": "address"
        },
        {
          "internalType": "address",
          "name": "receiver_",
          "type": "address"
        },
        {
          "internalType": "uint256",
          "name": "amountInLsd_",
          "type": "uint256"
        },
        {
          "internalType": "uint256[]",
          "name": "minAmountsOut_",
          "type": "uint256[]"
        }
      ],
      "name": "useOZL",
      "outputs": [
        {
          "internalType": "uint256",
          "name": "",
          "type": "uint256"
        }
      ],
      "stateMutability": "nonpayable",
      "type": "function"
    },
    {
      "inputs": [
        {
          "internalType": "address",
          "name": "owner_",
          "type": "address"
        },
        {
          "internalType": "bytes",
          "name": "data_",
          "type": "bytes"
        }
      ],
      "name": "useOzTokens",
      "outputs": [
        {
          "internalType": "uint256",
          "name": "amountOut",
          "type": "uint256"
        }
      ],
      "stateMutability": "nonpayable",
      "type": "function"
    },
    {
      "inputs": [
        {
          "internalType": "address",
          "name": "underlying_",
          "type": "address"
        },
        {
          "internalType": "address",
          "name": "owner_",
          "type": "address"
        },
        {
          "components": [
            {
              "internalType": "uint256",
              "name": "amountIn",
              "type": "uint256"
            },
            {
              "internalType": "uint256",
              "name": "minWethOut",
              "type": "uint256"
            },
            {
              "internalType": "uint256",
              "name": "minRethOut",
              "type": "uint256"
            }
          ],
          "internalType": "struct AmountsIn",
          "name": "amounts_",
          "type": "tuple"
        }
      ],
      "name": "useUnderlying",
      "outputs": [],
      "stateMutability": "nonpayable",
      "type": "function"
    }
  ],
  "bytecode": {
    "object": "0x608060405234801561001057600080fd5b50612207806100206000396000f3fe608060405234801561001057600080fd5b50600436106100575760003560e01c8063a1b86b381461005c578063a2e202f814610081578063ab399cf814610094578063b50f68fd146100a9578063dde5543b146100bc575b600080fd5b61006f61006a366004611942565b6100cf565b60405190815260200160405180910390f35b61006f61008f366004611a82565b610249565b6100a76100a2366004611b99565b610266565b005b6100a76100b7366004611bda565b610323565b61006f6100ca366004611b99565b6104f8565b3360009081526015602052604081205460ff166101065760405163a43f931360e01b81523360048201526024015b60405180910390fd5b6000806000806000868060200190518101906101229190611c6e565b93985091965094509250905061013a33893088610533565b600a54600354610158916001600160a01b039081169116868661063d565b600354604080516338d52e0f60e01b8152905161023d926001600160a01b03169133916338d52e0f916004808201926020929091908290030181865afa1580156101a6573d6000803e3d6000fd5b505050506040513d601f19601f820116820180604052508101906101ca9190611cbb565b6003546040516370a0823160e01b81523060048201526001600160a01b03909116906370a0823190602401602060405180830381865afa158015610212573d6000803e3d6000fd5b505050506040513d601f19601f820116820180604052508101906102369190611cd8565b85856106d5565b98975050505050505050565b600061025a86868686866000610818565b90505b95945050505050565b61029060405180604001604052806008815260200167039b2b73232b91d160c51b815250336109df565b6102c16040518060400160405280600f81526020016e030b2323932b9b9943a3434b9949d1608d1b815250306109df565b6102cd82843084610a28565b60405163c3ae3a0960e01b815260048101829052309063c3ae3a0990602401600060405180830381600087803b15801561030657600080fd5b505af115801561031a573d6000803e3d6000fd5b50505050505050565b3360009081526015602052604090205460ff166103555760405163a43f931360e01b81523360048201526024016100fd565b805161036c6001600160a01b038516843084610533565b600354602083015160009161038f9187916001600160a01b0316908590306106d5565b905061039a81610a99565b156104cd57600354604051632e1a7d4d60e01b8152600481018390526001600160a01b0390911690632e1a7d4d90602401600060405180830381600087803b1580156103e557600080fd5b505af11580156103f9573d6000803e3d6000fd5b50506010546011546040516321f8a72160e01b81526004810191909152600093506001600160a01b0390911691506321f8a72190602401602060405180830381865afa15801561044d573d6000803e3d6000fd5b505050506040513d601f19601f820116820180604052508101906104719190611cbb565b9050806001600160a01b031663d0e30db0836040518263ffffffff1660e01b81526004016000604051808303818588803b1580156104ae57600080fd5b505af11580156104c2573d6000803e3d6000fd5b5050505050506104f1565b600354600a5460408501516104f1926001600160a01b03908116921690849061063d565b5050505050565b6000610505848484610c28565b6105296040518060400160405280600381526020016279657360e81b815250610c5d565b50805b9392505050565b604080516001600160a01b0385811660248301528481166044830152606480830185905283518084039091018152608490920183526020820180516001600160e01b03166323b872dd60e01b17905291516000928392908816916105979190611d15565b6000604051808303816000865af19150503d80600081146105d4576040519150601f19603f3d011682016040523d82523d6000602084013e6105d9565b606091505b50915091508180156106035750805115806106035750808060200190518101906106039190611d41565b6106355760405162461bcd60e51b815260206004820152600360248201526229aa2360e91b60448201526064016100fd565b505050505050565b6000805460408051631c0de05160e01b815290516001600160a01b0390921691631c0de051916004808201926060929091908290030181865afa158015610688573d6000803e3d6000fd5b505050506040513d601f19601f820116820180604052508101906106ac9190611d5c565b5050905080156106c9576106c385858585306106d5565b506104f1565b6104f185858585610ca3565b6006546000906106f2906001600160a01b03888116911686610f1f565b60408051610100810182526001600160a01b038089168252878116602083015260145462ffffff1692820192909252908316606082015242608082015260a0810185905260009060c081016107478689611018565b8152600060209091015260065460405163414bf38960e01b81529192506001600160a01b03169063414bf38990610782908490600401611d91565b6020604051808303816000875af19250505080156107bd575060408051601f3d908101601f191682019092526107ba91810190611cd8565b60015b61080f576107c9611dfa565b806308c379a00361080357506107dd611e16565b806107e85750610805565b8060405163633abab960e01b81526004016100fd9190611ecc565b505b3d6000803e3d6000fd5b915061025d9050565b600080808084600281111561082f5761082f611edf565b0361084157505060c087015160e08801515b600089604001516001600160a01b0316631c0de0516040518163ffffffff1660e01b8152600401606060405180830381865afa158015610885573d6000803e3d6000fd5b505050506040513d601f19601f820116820180604052508101906108a99190611d5c565b5050905080156108eb576108e48383308d600001518e602001518c8c6000815181106108d7576108d7611ef5565b60200260200101516110bb565b935061090b565b61090883838c604001518d606001518e608001518c8c6000611195565b93505b8960e001516001600160a01b0316896001600160a01b0316036109a75760e08a015160405163a9059cbb60e01b81526001600160a01b038a81166004830152602482018790529091169063a9059cbb906044016020604051808303816000875af115801561097d573d6000803e3d6000fd5b505050506040513d601f19601f820116820180604052508101906109a19190611d41565b506109d2565b6109cf8a60e001518a8a8d600001518e60200151898c6001815181106108d7576108d7611ef5565b93505b5050509695505050505050565b610a2482826040516024016109f5929190611f0b565b60408051601f198184030181529190526020810180516001600160e01b031663319af33360e01b1790526113aa565b5050565b6040516001600160a01b0380851660248301528316604482015260648101829052610a939085906323b872dd60e01b906084015b60408051601f198184030181529190526020810180516001600160e01b03166001600160e01b0319909316929092179091526113cb565b50505050565b6012546040516335ee5f8760e01b81526020600482015260116024820152701c9bd8dad95d11195c1bdcda5d141bdbdb607a1b604482015260009182916001600160a01b03909116906335ee5f8790606401602060405180830381865afa158015610b08573d6000803e3d6000fd5b505050506040513d601f19601f82011682018060405250810190610b2c9190611cd8565b90506000610b3a8483611f4b565b6010546013546040516321f8a72160e01b81529293506000926001600160a01b03909216916321f8a72191610b759160040190815260200190565b602060405180830381865afa158015610b92573d6000803e3d6000fd5b505050506040513d601f19601f82011682018060405250810190610bb69190611cbb565b90506000816001600160a01b031663fd6ce89e6040518163ffffffff1660e01b8152600401602060405180830381865afa158015610bf8573d6000803e3d6000fd5b505050506040513d601f19601f82011682018060405250810190610c1c9190611cd8565b90921095945050505050565b6040516001600160a01b038316602482015260448101829052610c5890849063a9059cbb60e01b90606401610a5c565b505050565b610ca081604051602401610c719190611ecc565b60408051601f198184030181529190526020810180516001600160e01b031663104c13eb60e21b1790526113aa565b50565b6040805160c081018083526000805463038fff2d60e41b909252925183929182916001600160a01b03909116906338fff2d09060c4808501916020918187030181865afa158015610cf8573d6000803e3d6000fd5b505050506040513d601f19601f82011682018060405250810190610d1c9190611cd8565b8152602001600081526001600160a01b038089166020830152871660408201526060810186905260800160006040519080825280601f01601f191660200182016040528015610d72576020820181803683370190505b5090526040805160808101825230808252600060208301819052828401919091526060820152600954915163e969f6b360e01b8152929350916001600160a01b039091169063e969f6b390610dcd9085908590600401611fd3565b6020604051808303816000875af1925050508015610e08575060408051601f3d908101601f19168201909252610e0591810190611cd8565b60015b610e4e57610e14611dfa565b806308c379a0036108035750610e28611e16565b80610e335750610805565b8060405163dafe91cd60e01b81526004016100fd9190611ecc565b6000818611610e5d5781610e5f565b855b6008546080860151919250610e81916001600160a01b038c8116921690610f1f565b6008546040516352bbbe2960e01b81526001600160a01b03909116906352bbbe2990610eb7908790879086904290600401612025565b6020604051808303816000875af1158015610ed6573d6000803e3d6000fd5b505050506040513d601f19601f82011682018060405250810190610efa9190611cd8565b945050508260000361031a57604051635eeb40ff60e11b815260040160405180910390fd5b604080516001600160a01b038481166024830152604480830185905283518084039091018152606490920183526020820180516001600160e01b031663095ea7b360e01b1790529151600092839290871691610f7b9190611d15565b6000604051808303816000865af19150503d8060008114610fb8576040519150601f19603f3d011682016040523d82523d6000602084013e610fbd565b606091505b5091509150818015610fe7575080511580610fe7575080806020019051810190610fe79190611d41565b6104f15760405162461bcd60e51b8152602060048201526002602482015261534160f01b60448201526064016100fd565b600080826001600160a01b031663313ce5676040518163ffffffff1660e01b8152600401602060405180830381865afa158015611059573d6000803e3d6000fd5b505050506040513d601f19601f8201168201806040525081019061107d9190612089565b60ff169050806012146110af576110958160126120ac565b6110a090600a6121a3565b6110aa90856121af565b6110b1565b835b9150505b92915050565b60006110c88886856114a0565b60408051610100810182526001600160a01b03808b168252898116602083015262ffffff871682840152888116606083015242608083015260a0820186905260c08201859052600060e0830152915163414bf38960e01b8152909187169063414bf3899061113a908490600401611d91565b6020604051808303816000875af1925050508015611175575060408051601f3d908101601f1916820190925261117291810190611cd8565b60015b611181576107c9611dfa565b915061118a9050565b979650505050505050565b6000806040518060c00160405280896001600160a01b03166338fff2d06040518163ffffffff1660e01b8152600401602060405180830381865afa1580156111e1573d6000803e3d6000fd5b505050506040513d601f19601f820116820180604052508101906112059190611cd8565b8152602001600081526001600160a01b03808d1660208301528b1660408201526060810187905260800160006040519080825280601f01601f19166020018201604052801561125b576020820181803683370190505b509052604080516080810182523080825260006020830181905292820152606081018290529192508085600281111561129657611296611edf565b036112bd57856000815181106112ae576112ae611ef5565b6020026020010151905061137e565b60008560028111156112d1576112d1611edf565b1461137e5760405163e969f6b360e01b81526001600160a01b038a169063e969f6b3906113049086908690600401611fd3565b6020604051808303816000875af192505050801561133f575060408051601f3d908101601f1916820190925261133c91810190611cd8565b60015b61134b57610e14611dfa565b60008760008151811061136057611360611ef5565b602002602001015190508181116113775781611379565b805b925050505b61138d8c8985608001516114a0565b61139a88848484426115b5565b9c9b505050505050505050505050565b80516a636f6e736f6c652e6c6f67602083016000808483855afa5050505050565b6000611420826040518060400160405280602081526020017f5361666545524332303a206c6f772d6c6576656c2063616c6c206661696c6564815250856001600160a01b03166116da9092919063ffffffff16565b90508051600014806114415750808060200190518101906114419190611d41565b610c585760405162461bcd60e51b815260206004820152602a60248201527f5361666545524332303a204552433230206f7065726174696f6e20646964206e6044820152691bdd081cdd58d8d9595960b21b60648201526084016100fd565b80158061151a5750604051636eb1769f60e11b81523060048201526001600160a01b03838116602483015284169063dd62ed3e90604401602060405180830381865afa1580156114f4573d6000803e3d6000fd5b505050506040513d601f19601f820116820180604052508101906115189190611cd8565b155b6115855760405162461bcd60e51b815260206004820152603660248201527f5361666545524332303a20617070726f76652066726f6d206e6f6e2d7a65726f60448201527520746f206e6f6e2d7a65726f20616c6c6f77616e636560501b60648201526084016100fd565b6040516001600160a01b038316602482015260448101829052610c5890849063095ea7b360e01b90606401610a5c565b6040516352bbbe2960e01b81526000906001600160a01b038716906352bbbe29906115ea908890889088908890600401612025565b6020604051808303816000875af1925050508015611625575060408051601f3d908101601f1916820190925261162291810190611cd8565b60015b6116b257611631611dfa565b806308c379a0036108035750611645611e16565b806116505750610805565b611679816040518060400160405280600781526020016642414c2335303760c81b8152506116f1565b1561169757604051637b19dd3560e11b815260040160405180910390fd5b806040516324af18bb60e21b81526004016100fd9190611ecc565b806000036116d357604051635eeb40ff60e11b815260040160405180910390fd5b905061025d565b60606116e9848460008561174a565b949350505050565b6000816040516020016117049190611d15565b604051602081830303815290604052805190602001208360405160200161172b9190611d15565b6040516020818303038152906040528051906020012014905092915050565b6060824710156117ab5760405162461bcd60e51b815260206004820152602660248201527f416464726573733a20696e73756666696369656e742062616c616e636520666f6044820152651c8818d85b1b60d21b60648201526084016100fd565b600080866001600160a01b031685876040516117c79190611d15565b60006040518083038185875af1925050503d8060008114611804576040519150601f19603f3d011682016040523d82523d6000602084013e611809565b606091505b509150915061118a878383876060831561188457825160000361187d576001600160a01b0385163b61187d5760405162461bcd60e51b815260206004820152601d60248201527f416464726573733a2063616c6c20746f206e6f6e2d636f6e747261637400000060448201526064016100fd565b50816116e9565b6116e983838151156118995781518083602001fd5b8060405162461bcd60e51b81526004016100fd9190611ecc565b6001600160a01b0381168114610ca057600080fd5b80356118d3816118b3565b919050565b634e487b7160e01b600052604160045260246000fd5b610100810181811067ffffffffffffffff8211171561190f5761190f6118d8565b60405250565b601f8201601f1916810167ffffffffffffffff8111828210171561193b5761193b6118d8565b6040525050565b6000806040838503121561195557600080fd5b8235611960816118b3565b915060208381013567ffffffffffffffff8082111561197e57600080fd5b818601915086601f83011261199257600080fd5b8135818111156119a4576119a46118d8565b60405191506119bc601f8201601f1916850183611915565b80825287848285010111156119d057600080fd5b80848401858401376000848284010152508093505050509250929050565b803562ffffff811681146118d357600080fd5b600082601f830112611a1257600080fd5b8135602067ffffffffffffffff821115611a2e57611a2e6118d8565b8160051b604051611a4183830182611915565b92835284810182019282810187851115611a5a57600080fd5b83870192505b84831015611a775782358152918301918301611a60565b509695505050505050565b6000806000806000858703610180811215611a9c57600080fd5b61010080821215611aac57600080fd5b6040519150611aba826118ee565b611ac3886118c8565b8252611ad1602089016119ee565b6020830152611ae2604089016118c8565b6040830152611af3606089016118c8565b6060830152611b04608089016118c8565b6080830152611b1560a089016118c8565b60a0830152611b2660c089016118c8565b60c0830152611b3760e089016118c8565b60e0830152819650611b4a8189016118c8565b95505050611b5b61012087016118c8565b9250610140860135915061016086013567ffffffffffffffff811115611b8057600080fd5b611b8c88828901611a01565b9150509295509295909350565b600080600060608486031215611bae57600080fd5b8335611bb9816118b3565b92506020840135611bc9816118b3565b929592945050506040919091013590565b600080600083850360a0811215611bf057600080fd5b8435611bfb816118b3565b93506020850135611c0b816118b3565b92506060603f1982011215611c1f57600080fd5b506040516060810181811067ffffffffffffffff82111715611c4357611c436118d8565b8060405250604085013581526060850135602082015260808501356040820152809150509250925092565b600080600080600060a08688031215611c8657600080fd5b855194506020860151935060408601519250606086015191506080860151611cad816118b3565b809150509295509295909350565b600060208284031215611ccd57600080fd5b815161052c816118b3565b600060208284031215611cea57600080fd5b5051919050565b60005b83811015611d0c578181015183820152602001611cf4565b50506000910152565b60008251611d27818460208701611cf1565b9190910192915050565b805180151581146118d357600080fd5b600060208284031215611d5357600080fd5b61052c82611d31565b600080600060608486031215611d7157600080fd5b611d7a84611d31565b925060208401519150604084015190509250925092565b81516001600160a01b03908116825260208084015182169083015260408084015162ffffff16908301526060808401518216908301526080808401519083015260a0838101519083015260c0808401519083015260e09283015116918101919091526101000190565b600060033d1115611e135760046000803e5060005160e01c5b90565b600060443d1015611e245790565b6040516003193d81016004833e81513d67ffffffffffffffff8160248401118184111715611e5457505050505090565b8285019150815181811115611e6c5750505050505090565b843d8701016020828501011115611e865750505050505090565b611e9560208286010187611915565b509095945050505050565b60008151808452611eb8816020860160208601611cf1565b601f01601f19169290920160200192915050565b60208152600061052c6020830184611ea0565b634e487b7160e01b600052602160045260246000fd5b634e487b7160e01b600052603260045260246000fd5b604081526000611f1e6040830185611ea0565b905060018060a01b03831660208301529392505050565b634e487b7160e01b600052601160045260246000fd5b808201808211156110b5576110b5611f35565b805182526000602082015160028110611f8757634e487b7160e01b600052602160045260246000fd5b80602085015250604082015160018060a01b03808216604086015280606085015116606086015250506080820151608084015260a082015160c060a08501526110b160c0850182611ea0565b60a081526000611fe660a0830185611f5e565b905061052c602083018480516001600160a01b039081168352602080830151151590840152604080830151909116908301526060908101511515910152565b60e08152600061203860e0830187611f5e565b9050612077602083018680516001600160a01b039081168352602080830151151590840152604080830151909116908301526060908101511515910152565b60a082019390935260c0015292915050565b60006020828403121561209b57600080fd5b815160ff8116811461052c57600080fd5b818103818111156110b5576110b5611f35565b600181815b808511156120fa5781600019048211156120e0576120e0611f35565b808516156120ed57918102915b93841c93908002906120c4565b509250929050565b600082612111575060016110b5565b8161211e575060006110b5565b8160018114612134576002811461213e5761215a565b60019150506110b5565b60ff84111561214f5761214f611f35565b50506001821b6110b5565b5060208310610133831016604e8410600b841016171561217d575081810a6110b5565b61218783836120bf565b806000190482111561219b5761219b611f35565b029392505050565b600061052c8383612102565b6000826121cc57634e487b7160e01b600052601260045260246000fd5b50049056fea2646970667358221220a7b3e716575d14b213d2b90cf84490b8484dba50bcfad3b6f1a5a27215c11ff364736f6c63430008150033",
    "linkReferences": {}
  },
  "methodIdentifiers": {
    "recicleOZL(address,address,uint256)": "ab399cf8",
    "sendLSD(address,address,uint256)": "dde5543b",
    "useOZL((address,uint24,address,address,address,address,address,address),address,address,uint256,uint256[])": "a2e202f8",
    "useOzTokens(address,bytes)": "a1b86b38",
    "useUnderlying(address,address,(uint256,uint256,uint256))": "b50f68fd"
  },
  "id": 13
}