{
  "abi": [
    {
      "inputs": [],
      "name": "InvalidBalancerSwap",
      "type": "error"
    },
    {
      "inputs": [
        {
          "internalType": "string",
          "name": "errorMsg",
          "type": "string"
        }
      ],
      "name": "OZError01",
      "type": "error"
    },
    {
      "inputs": [
        {
          "internalType": "enum Asset",
          "name": "type_",
          "type": "uint8"
        }
      ],
      "name": "totalUnderlying",
      "outputs": [
        {
          "internalType": "uint256",
          "name": "total",
          "type": "uint256"
        }
      ],
      "stateMutability": "view",
      "type": "function"
    },
    {
      "inputs": [
        {
          "internalType": "address",
          "name": "owner_",
          "type": "address"
        },
        {
          "internalType": "bytes",
          "name": "data_",
          "type": "bytes"
        }
      ],
      "name": "useOzTokens",
      "outputs": [
        {
          "internalType": "uint256",
          "name": "amountOut",
          "type": "uint256"
        }
      ],
      "stateMutability": "nonpayable",
      "type": "function"
    },
    {
      "inputs": [
        {
          "internalType": "address",
          "name": "underlying_",
          "type": "address"
        },
        {
          "internalType": "address",
          "name": "owner_",
          "type": "address"
        },
        {
          "components": [
            {
              "internalType": "uint256",
              "name": "amountIn",
              "type": "uint256"
            },
            {
              "internalType": "uint256",
              "name": "minWethOut",
              "type": "uint256"
            },
            {
              "internalType": "uint256",
              "name": "minRethOut",
              "type": "uint256"
            }
          ],
          "internalType": "struct AmountsIn",
          "name": "amounts_",
          "type": "tuple"
        }
      ],
      "name": "useUnderlying",
      "outputs": [],
      "stateMutability": "nonpayable",
      "type": "function"
    }
  ],
  "bytecode": {
    "object": "0x608060405234801561001057600080fd5b50611661806100206000396000f3fe608060405234801561001057600080fd5b50600436106100415760003560e01c8063a1b86b3814610046578063a4fc284b1461006b578063b50f68fd1461007e575b600080fd5b610059610054366004610f7d565b610093565b60405190815260200160405180910390f35b610059610079366004611029565b6102e2565b61009161008c366004611051565b610400565b005b600080600080600080868060200190518101906100b091906110e5565b945094509450945094506100f96040518060400160405280601b81526020017f616d6f756e74496e5265746820696e207573654f7a3a2a2a2a2a20000000000081525085610677565b610105338930886106c0565b600a54600254610123916001600160a01b03908116911686866107c7565b604080518082018252601081526f03bb2ba34103130b6103ab9b2a7bd1d160851b602082015260025491516370a0823160e01b81523060048201526101bb926001600160a01b0316906370a0823190602401602060405180830381865afa158015610192573d6000803e3d6000fd5b505050506040513d601f19601f820116820180604052508101906101b69190611132565b610677565b6002546040516370a0823160e01b815230600482015261029f916001600160a01b0316906370a0823190602401602060405180830381865afa158015610205573d6000803e3d6000fd5b505050506040513d601f19601f820116820180604052508101906102299190611132565b600254604080516338d52e0f60e01b8152905186926001600160a01b03169133916338d52e0f916004808201926020929091908290030181865afa158015610275573d6000803e3d6000fd5b505050506040513d601f19601f82011682018060405250810190610299919061114b565b85610a13565b95506102d760405180604001604052806014815260200173030b6b7bab73a27baba1034b7103ab9b2a7bd1d160651b81525087610677565b505050505092915050565b600a546040516370a0823160e01b81523060048201526000916001600160a01b0316906370a0823190602401602060405180830381865afa15801561032b573d6000803e3d6000fd5b505050506040513d601f19601f8201168201806040525081019061034f9190611132565b9050600082600181111561036557610365611168565b036103fb5760065460408051633fabe5a360e21b815290516000926001600160a01b03169163feaf968c9160048083019260a09291908290030181865afa1580156103b4573d6000803e3d6000fd5b505050506040513d601f19601f820116820180604052508101906103d89190611198565b5050509150506103f7826305f5e10083610bb89092919063ffffffff16565b9150505b919050565b80516104176001600160a01b0385168430846106c0565b602082015160025460009161043a9184919088906001600160a01b031630610a13565b905061044581610bd6565b1561057857600254604051632e1a7d4d60e01b8152600481018390526001600160a01b0390911690632e1a7d4d90602401600060405180830381600087803b15801561049057600080fd5b505af11580156104a4573d6000803e3d6000fd5b50506011546012546040516321f8a72160e01b81526004810191909152600093506001600160a01b0390911691506321f8a72190602401602060405180830381865afa1580156104f8573d6000803e3d6000fd5b505050506040513d601f19601f8201168201806040525081019061051c919061114b565b9050806001600160a01b031663d0e30db0836040518263ffffffff1660e01b81526004016000604051808303818588803b15801561055957600080fd5b505af115801561056d573d6000803e3d6000fd5b505050505050610670565b600b5460408051631c0de05160e01b815290516000926001600160a01b031691631c0de0519160048083019260609291908290030181865afa1580156105c2573d6000803e3d6000fd5b505050506040513d601f19601f820116820180604052508101906105e691906111f8565b5050600254600a546040516370a0823160e01b815230600482015292935061066e926001600160a01b03928316929091169082906370a0823190602401602060405180830381865afa158015610640573d6000803e3d6000fd5b505050506040513d601f19601f820116820180604052508101906106649190611132565b87604001516107c7565b505b5050505050565b6106bc828260405160240161068d92919061127d565b60408051601f198184030181529190526020810180516001600160e01b03166309710a9d60e41b179052610d65565b5050565b604080516001600160a01b0385811660248301528481166044830152606480830185905283518084039091018152608490920183526020820180516001600160e01b03166323b872dd60e01b1790529151600092839290881691610724919061129f565b6000604051808303816000865af19150503d8060008114610761576040519150601f19603f3d011682016040523d82523d6000602084013e610766565b606091505b509150915081801561079057508051158061079057508080602001905181019061079091906112bb565b61066e5760405162461bcd60e51b815260206004820152600360248201526229aa2360e91b60448201526064015b60405180910390fd5b6040805160c08101808352600b5463038fff2d60e41b909152915160009282916001600160a01b03909116906338fff2d09060c4808501916020918187030181865afa15801561081b573d6000803e3d6000fd5b505050506040513d601f19601f8201168201806040525081019061083f9190611132565b8152602001600081526001600160a01b038088166020830152861660408201526060810185905260800160006040519080825280601f01601f191660200182016040528015610895576020820181803683370190505b50905260408051608081018252308082526000602083018190528284019190915260608201819052600954925163e969f6b360e01b8152939450909290916001600160a01b03169063e969f6b3906108f3908690869060040161134b565b6020604051808303816000875af1158015610912573d6000803e3d6000fd5b505050506040513d601f19601f820116820180604052508101906109369190611132565b905060008185116109475781610949565b845b600854608086015191925061096b916001600160a01b038b8116921690610d86565b6008546040516352bbbe2960e01b81526000916001600160a01b0316906352bbbe29906109a290889088908790429060040161139d565b6020604051808303816000875af11580156109c1573d6000803e3d6000fd5b505050506040513d601f19601f820116820180604052508101906109e59190611132565b905080600003610a0857604051635448e7e960e01b815260040160405180910390fd5b505050505050505050565b600554600090610a30906001600160a01b03868116911688610d86565b6000604051806101000160405280866001600160a01b03168152602001856001600160a01b03168152602001610bb862ffffff168152602001846001600160a01b03168152602001428152602001888152602001610a8e8887610e7f565b815260006020918201526005546040805163414bf38960e01b815284516001600160a01b03908116600483015293850151841660248201529084015162ffffff1660448201526060840151831660648201526080840151608482015260a084015160a482015260c084015160c482015260e0840151831660e4820152929350169063414bf38990610104016020604051808303816000875af1925050508015610b54575060408051601f3d908101601f19168201909252610b5191810190611132565b60015b610ba657610b60611401565b806308c379a003610b9a5750610b7461141d565b80610b7f5750610b9c565b8060405163633abab960e01b81526004016107be91906114a7565b505b3d6000803e3d6000fd5b9150610baf9050565b95945050505050565b6000826000190484118302158202610bcf57600080fd5b5091020490565b6013546040516335ee5f8760e01b81526020600482015260116024820152701c9bd8dad95d11195c1bdcda5d141bdbdb607a1b604482015260009182916001600160a01b03909116906335ee5f8790606401602060405180830381865afa158015610c45573d6000803e3d6000fd5b505050506040513d601f19601f82011682018060405250810190610c699190611132565b90506000610c7784836114d0565b6011546014546040516321f8a72160e01b81529293506000926001600160a01b03909216916321f8a72191610cb29160040190815260200190565b602060405180830381865afa158015610ccf573d6000803e3d6000fd5b505050506040513d601f19601f82011682018060405250810190610cf3919061114b565b90506000816001600160a01b031663fd6ce89e6040518163ffffffff1660e01b8152600401602060405180830381865afa158015610d35573d6000803e3d6000fd5b505050506040513d601f19601f82011682018060405250810190610d599190611132565b90921095945050505050565b80516a636f6e736f6c652e6c6f67602083016000808483855afa5050505050565b604080516001600160a01b038481166024830152604480830185905283518084039091018152606490920183526020820180516001600160e01b031663095ea7b360e01b1790529151600092839290871691610de2919061129f565b6000604051808303816000865af19150503d8060008114610e1f576040519150601f19603f3d011682016040523d82523d6000602084013e610e24565b606091505b5091509150818015610e4e575080511580610e4e575080806020019051810190610e4e91906112bb565b6106705760405162461bcd60e51b8152602060048201526002602482015261534160f01b60448201526064016107be565b600080826001600160a01b031663313ce5676040518163ffffffff1660e01b8152600401602060405180830381865afa158015610ec0573d6000803e3d6000fd5b505050506040513d601f19601f82011682018060405250810190610ee491906114e3565b60ff16905080601214610f1657610efc816012611506565b610f0790600a6115fd565b610f119085611609565b610f18565b835b9150505b92915050565b6001600160a01b0381168114610f3757600080fd5b50565b634e487b7160e01b600052604160045260246000fd5b601f8201601f1916810167ffffffffffffffff81118282101715610f7657610f76610f3a565b6040525050565b60008060408385031215610f9057600080fd5b8235610f9b81610f22565b915060208381013567ffffffffffffffff80821115610fb957600080fd5b818601915086601f830112610fcd57600080fd5b813581811115610fdf57610fdf610f3a565b6040519150610ff7601f8201601f1916850183610f50565b808252878482850101111561100b57600080fd5b80848401858401376000848284010152508093505050509250929050565b60006020828403121561103b57600080fd5b81356002811061104a57600080fd5b9392505050565b600080600083850360a081121561106757600080fd5b843561107281610f22565b9350602085013561108281610f22565b92506060603f198201121561109657600080fd5b506040516060810181811067ffffffffffffffff821117156110ba576110ba610f3a565b8060405250604085013581526060850135602082015260808501356040820152809150509250925092565b600080600080600060a086880312156110fd57600080fd5b85519450602086015193506040860151925060608601519150608086015161112481610f22565b809150509295509295909350565b60006020828403121561114457600080fd5b5051919050565b60006020828403121561115d57600080fd5b815161104a81610f22565b634e487b7160e01b600052602160045260246000fd5b805169ffffffffffffffffffff811681146103fb57600080fd5b600080600080600060a086880312156111b057600080fd5b6111b98661117e565b94506020860151935060408601519250606086015191506111dc6080870161117e565b90509295509295909350565b805180151581146103fb57600080fd5b60008060006060848603121561120d57600080fd5b611216846111e8565b925060208401519150604084015190509250925092565b60005b83811015611248578181015183820152602001611230565b50506000910152565b6000815180845261126981602086016020860161122d565b601f01601f19169290920160200192915050565b6040815260006112906040830185611251565b90508260208301529392505050565b600082516112b181846020870161122d565b9190910192915050565b6000602082840312156112cd57600080fd5b61104a826111e8565b8051825260006020820151600281106112ff57634e487b7160e01b600052602160045260246000fd5b80602085015250604082015160018060a01b03808216604086015280606085015116606086015250506080820151608084015260a082015160c060a0850152610f1860c0850182611251565b60a08152600061135e60a08301856112d6565b905061104a602083018480516001600160a01b039081168352602080830151151590840152604080830151909116908301526060908101511515910152565b60e0815260006113b060e08301876112d6565b90506113ef602083018680516001600160a01b039081168352602080830151151590840152604080830151909116908301526060908101511515910152565b60a082019390935260c0015292915050565b600060033d111561141a5760046000803e5060005160e01c5b90565b600060443d101561142b5790565b6040516003193d81016004833e81513d67ffffffffffffffff816024840111818411171561145b57505050505090565b82850191508151818111156114735750505050505090565b843d870101602082850101111561148d5750505050505090565b61149c60208286010187610f50565b509095945050505050565b60208152600061104a6020830184611251565b634e487b7160e01b600052601160045260246000fd5b80820180821115610f1c57610f1c6114ba565b6000602082840312156114f557600080fd5b815160ff8116811461104a57600080fd5b81810381811115610f1c57610f1c6114ba565b600181815b8085111561155457816000190482111561153a5761153a6114ba565b8085161561154757918102915b93841c939080029061151e565b509250929050565b60008261156b57506001610f1c565b8161157857506000610f1c565b816001811461158e5760028114611598576115b4565b6001915050610f1c565b60ff8411156115a9576115a96114ba565b50506001821b610f1c565b5060208310610133831016604e8410600b84101617156115d7575081810a610f1c565b6115e18383611519565b80600019048211156115f5576115f56114ba565b029392505050565b600061104a838361155c565b60008261162657634e487b7160e01b600052601260045260246000fd5b50049056fea2646970667358221220dc21c3d7dce46d344474a1ff808c87c0831c658d79ef628cb22b0ceb2a5162f064736f6c63430008150033",
    "linkReferences": {}
  },
  "methodIdentifiers": {
    "totalUnderlying(uint8)": "a4fc284b",
    "useOzTokens(address,bytes)": "a1b86b38",
    "useUnderlying(address,address,(uint256,uint256,uint256))": "b50f68fd"
  },
  "id": 7
}