{
  "abi": [
    {
      "inputs": [
        {
          "internalType": "address",
          "name": "token",
          "type": "address"
        }
      ],
      "name": "TokenInNotValid",
      "type": "error"
    },
    {
      "inputs": [
        {
          "internalType": "enum Asset",
          "name": "type_",
          "type": "uint8"
        }
      ],
      "name": "totalUnderlying",
      "outputs": [
        {
          "internalType": "uint256",
          "name": "total",
          "type": "uint256"
        }
      ],
      "stateMutability": "view",
      "type": "function"
    },
    {
      "inputs": [
        {
          "components": [
            {
              "internalType": "uint256",
              "name": "ozAmountIn",
              "type": "uint256"
            },
            {
              "internalType": "uint256",
              "name": "minWethOut",
              "type": "uint256"
            },
            {
              "internalType": "uint256",
              "name": "bptAmountIn",
              "type": "uint256"
            },
            {
              "internalType": "uint256",
              "name": "minUsdcOut",
              "type": "uint256"
            }
          ],
          "internalType": "struct AmountsOut",
          "name": "amts_",
          "type": "tuple"
        },
        {
          "internalType": "address",
          "name": "ozToken_",
          "type": "address"
        },
        {
          "internalType": "address",
          "name": "owner_",
          "type": "address"
        },
        {
          "internalType": "address",
          "name": "receiver_",
          "type": "address"
        }
      ],
      "name": "useOzTokens",
      "outputs": [
        {
          "internalType": "uint256",
          "name": "amountOut",
          "type": "uint256"
        }
      ],
      "stateMutability": "nonpayable",
      "type": "function"
    },
    {
      "inputs": [
        {
          "internalType": "address",
          "name": "underlying_",
          "type": "address"
        },
        {
          "internalType": "address",
          "name": "user_",
          "type": "address"
        },
        {
          "internalType": "uint256",
          "name": "amountIn_",
          "type": "uint256"
        },
        {
          "internalType": "uint256",
          "name": "minWethOut_",
          "type": "uint256"
        }
      ],
      "name": "useUnderlying",
      "outputs": [],
      "stateMutability": "nonpayable",
      "type": "function"
    }
  ],
  "bytecode": {
    "object": "0x608060405234801561001057600080fd5b5061146d806100206000396000f3fe608060405234801561001057600080fd5b50600436106100415760003560e01c806357e725a214610046578063a4fc284b1461005b578063d0d1e95414610080575b600080fd5b610059610054366004610eaf565b610093565b005b61006e610069366004610ef5565b61032c565b60405190815260200160405180910390f35b61006e61008e366004610f1d565b61044a565b6100a86001600160a01b03851684308561058d565b6002546000906100c7908490849088906001600160a01b031630610694565b600254604051632e1a7d4d60e01b8152600481018390529192506001600160a01b031690632e1a7d4d90602401600060405180830381600087803b15801561010e57600080fd5b505af1158015610122573d6000803e3d6000fd5b50506011546012546040516321f8a72160e01b81526004810191909152600093506001600160a01b0390911691506321f8a72190602401602060405180830381865afa158015610176573d6000803e3d6000fd5b505050506040513d601f19601f8201168201806040525081019061019a9190610fd2565b604080518082018252600a81526903922aa24103839329d160b51b602082015290516370a0823160e01b81523060048201529192506102399173ae78736cd615f374d3085123a210448e74fc6393906370a08231906024015b602060405180830381865afa158015610210573d6000803e3d6000fd5b505050506040513d601f19601f820116820180604052508101906102349190610fef565b610815565b6102726040518060400160405280600f81526020016e031b432b1b5a1b0b830b1b4ba3c9d1608d1b81525061026d8461085e565b610a25565b806001600160a01b031663d0e30db0836040518263ffffffff1660e01b81526004016000604051808303818588803b1580156102ad57600080fd5b505af11580156102c1573d6000803e3d6000fd5b5050604080518082018252600c81526b03922aa2410383837b9ba1d160a51b602082015290516370a0823160e01b8152306004820152610324945090925073ae78736cd615f374d3085123a210448e74fc639391506370a08231906024016101f3565b505050505050565b600b546040516370a0823160e01b81523060048201526000916001600160a01b0316906370a0823190602401602060405180830381865afa158015610375573d6000803e3d6000fd5b505050506040513d601f19601f820116820180604052508101906103999190610fef565b905060008260018111156103af576103af611008565b036104455760065460408051633fabe5a360e21b815290516000926001600160a01b03169163feaf968c9160048083019260a09291908290030181865afa1580156103fe573d6000803e3d6000fd5b505050506040513d601f19601f820116820180604052508101906104229190611038565b505050915050610441826305f5e10083610a6a9092919063ffffffff16565b9150505b919050565b6000806000600b0160009054906101000a90046001600160a01b03166001600160a01b03166338fff2d06040518163ffffffff1660e01b8152600401602060405180830381865afa1580156104a3573d6000803e3d6000fd5b505050506040513d601f19601f820116820180604052508101906104c79190610fef565b86519091506104e4906001600160a01b038716908690309061058d565b6104f78660200151876040015183610a91565b6002546040516370a0823160e01b8152306004820152610583916001600160a01b0316906370a0823190602401602060405180830381865afa158015610541573d6000803e3d6000fd5b505050506040513d601f19601f820116820180604052508101906105659190610fef565b60608801516002546003546001600160a01b03918216911687610694565b9695505050505050565b604080516001600160a01b0385811660248301528481166044830152606480830185905283518084039091018152608490920183526020820180516001600160e01b03166323b872dd60e01b17905291516000928392908816916105f191906110ac565b6000604051808303816000865af19150503d806000811461062e576040519150601f19603f3d011682016040523d82523d6000602084013e610633565b606091505b509150915081801561065d57508051158061065d57508080602001905181019061065d91906110c8565b6103245760405162461bcd60e51b815260206004820152600360248201526229aa2360e91b60448201526064015b60405180910390fd5b6005546000906106b1906001600160a01b03868116911688610b9b565b6000604051806101000160405280866001600160a01b03168152602001856001600160a01b031681526020016101f462ffffff168152602001846001600160a01b0316815260200142815260200188815260200161070f8887610c9b565b815260006020918201526005546040805163414bf38960e01b815284516001600160a01b03908116600483015293850151841660248201529084015162ffffff1660448201526060840151831660648201526080840151608482015260a084015160a482015260c084015160c482015260e0840151831660e4820152929350169063414bf38990610104016020604051808303816000875af11580156107b9573d6000803e3d6000fd5b505050506040513d601f19601f820116820180604052508101906107dd9190610fef565b91508160000361080b57604051634c5a56af60e11b81526001600160a01b038616600482015260240161068b565b5095945050505050565b61085a828260405160240161082b929190611116565b60408051601f198184030181529190526020810180516001600160e01b03166309710a9d60e41b179052610d3e565b5050565b6013546040516335ee5f8760e01b81526020600482015260116024820152701c9bd8dad95d11195c1bdcda5d141bdbdb607a1b604482015260009182916001600160a01b03909116906335ee5f8790606401602060405180830381865afa1580156108cd573d6000803e3d6000fd5b505050506040513d601f19601f820116820180604052508101906108f19190610fef565b905060006108ff848361114e565b6011546014546040516321f8a72160e01b81529293506000926001600160a01b03909216916321f8a7219161093a9160040190815260200190565b602060405180830381865afa158015610957573d6000803e3d6000fd5b505050506040513d601f19601f8201168201806040525081019061097b9190610fd2565b90506000816001600160a01b031663fd6ce89e6040518163ffffffff1660e01b8152600401602060405180830381865afa1580156109bd573d6000803e3d6000fd5b505050506040513d601f19601f820116820180604052508101906109e19190610fef565b9050610a1a60405180604001604052806015815260200174036b0bc2232b837b9b4ba29b4bd3290151515151d1605d1b81525082610815565b909110949350505050565b61085a8282604051602401610a3b929190611161565b60408051601f198184030181529190526020810180516001600160e01b031663c3b5563560e01b179052610d3e565b6000826000190484118302158202610a8a5763ad251c276000526004601cfd5b5091020490565b604080516060810182526002546001600160a01b039081168252600b5481166020830152600a541691810191909152600090610acc90610d5f565b90506000610af56040518060600160405280878152602001600081526020016000815250610de8565b90506000610b066000866000610e5d565b6040805160808101825285815260208101859052808201839052600060608201526008549151638bdb391360e01b8152929350916001600160a01b0390911690638bdb391390610b609088903090819087906004016111c0565b600060405180830381600087803b158015610b7a57600080fd5b505af1158015610b8e573d6000803e3d6000fd5b5050505050505050505050565b604080516001600160a01b038481166024830152604480830185905283518084039091018152606490920183526020820180516001600160e01b031663095ea7b360e01b1790529151600092839290871691610bf791906110ac565b6000604051808303816000865af19150503d8060008114610c34576040519150601f19603f3d011682016040523d82523d6000602084013e610c39565b606091505b5091509150818015610c63575080511580610c63575080806020019051810190610c6391906110c8565b610c945760405162461bcd60e51b8152602060048201526002602482015261534160f01b604482015260640161068b565b5050505050565b600080826001600160a01b031663313ce5676040518163ffffffff1660e01b8152600401602060405180830381865afa158015610cdc573d6000803e3d6000fd5b505050506040513d601f19601f82011682018060405250810190610d00919061128a565b60ff16905080601214610d3257610d188160126112ad565b610d2390600a6113a4565b610d2d90856113b0565b610d34565b835b9150505b92915050565b80516a636f6e736f6c652e6c6f67602083016000808483855afa5050505050565b60408051600380825260808201909252606091908160208201848036833701905050915060005b81811015610de157838160038110610da057610da06113d2565b6020020151838281518110610db757610db76113d2565b6001600160a01b039092166020928302919091019091015280610dd9816113e8565b915050610d86565b5050919050565b60408051600380825260808201909252606091908160208201848036833701905050915060005b81811015610de157838160038110610e2957610e296113d2565b6020020151838281518110610e4057610e406113d2565b602090810291909101015280610e55816113e8565b915050610e0f565b6060838383604051602001610e7493929190611401565b60405160208183030381529060405290509392505050565b6001600160a01b0381168114610ea157600080fd5b50565b803561044581610e8c565b60008060008060808587031215610ec557600080fd5b8435610ed081610e8c565b93506020850135610ee081610e8c565b93969395505050506040820135916060013590565b600060208284031215610f0757600080fd5b813560028110610f1657600080fd5b9392505050565b60008060008084860360e0811215610f3457600080fd5b6080811215610f4257600080fd5b506040516080810181811067ffffffffffffffff82111715610f7457634e487b7160e01b600052604160045260246000fd5b80604052508535815260208601356020820152604086013560408201526060860135606082015280945050610fab60808601610ea4565b9250610fb960a08601610ea4565b9150610fc760c08601610ea4565b905092959194509250565b600060208284031215610fe457600080fd5b8151610f1681610e8c565b60006020828403121561100157600080fd5b5051919050565b634e487b7160e01b600052602160045260246000fd5b805169ffffffffffffffffffff8116811461044557600080fd5b600080600080600060a0868803121561105057600080fd5b6110598661101e565b945060208601519350604086015192506060860151915061107c6080870161101e565b90509295509295909350565b60005b838110156110a357818101518382015260200161108b565b50506000910152565b600082516110be818460208701611088565b9190910192915050565b6000602082840312156110da57600080fd5b81518015158114610f1657600080fd5b60008151808452611102816020860160208601611088565b601f01601f19169290920160200192915050565b60408152600061112960408301856110ea565b90508260208301529392505050565b634e487b7160e01b600052601160045260246000fd5b80820180821115610d3857610d38611138565b60408152600061117460408301856110ea565b905082151560208301529392505050565b600081518084526020808501945080840160005b838110156111b557815187529582019590820190600101611199565b509495945050505050565b8481526000602060018060a01b038087168285015280861660408501526080606085015261010084018551608080870152818151808452610120880191508583019350600092505b8083101561122a57835185168252928501926001929092019190850190611208565b50848801519450607f199350838782030160a088015261124a8186611185565b94505050506040850151818584030160c086015261126883826110ea565b92505050606084015161127f60e085018215159052565b509695505050505050565b60006020828403121561129c57600080fd5b815160ff81168114610f1657600080fd5b81810381811115610d3857610d38611138565b600181815b808511156112fb5781600019048211156112e1576112e1611138565b808516156112ee57918102915b93841c93908002906112c5565b509250929050565b60008261131257506001610d38565b8161131f57506000610d38565b8160018114611335576002811461133f5761135b565b6001915050610d38565b60ff84111561135057611350611138565b50506001821b610d38565b5060208310610133831016604e8410600b841016171561137e575081810a610d38565b61138883836112c0565b806000190482111561139c5761139c611138565b029392505050565b6000610f168383611303565b6000826113cd57634e487b7160e01b600052601260045260246000fd5b500490565b634e487b7160e01b600052603260045260246000fd5b6000600182016113fa576113fa611138565b5060010190565b606081016003851061142357634e487b7160e01b600052602160045260246000fd5b93815260208101929092526040909101529056fea264697066735822122038a6b71f6fcc206ce4032ad440af2c6ddc18bb3b5734fb8a49cf1f768877100964736f6c63430008150033",
    "linkReferences": {}
  },
  "methodIdentifiers": {
    "totalUnderlying(uint8)": "a4fc284b",
    "useOzTokens((uint256,uint256,uint256,uint256),address,address,address)": "d0d1e954",
    "useUnderlying(address,address,uint256,uint256)": "57e725a2"
  },
  "id": 7
}