{
  "abi": [
    {
      "inputs": [
        {
          "internalType": "address",
          "name": "token",
          "type": "address"
        }
      ],
      "name": "TokenInNotValid",
      "type": "error"
    },
    {
      "inputs": [
        {
          "internalType": "enum Asset",
          "name": "type_",
          "type": "uint8"
        }
      ],
      "name": "totalUnderlying",
      "outputs": [
        {
          "internalType": "uint256",
          "name": "total",
          "type": "uint256"
        }
      ],
      "stateMutability": "view",
      "type": "function"
    },
    {
      "inputs": [
        {
          "components": [
            {
              "internalType": "uint256",
              "name": "ozAmountIn",
              "type": "uint256"
            },
            {
              "internalType": "uint256",
              "name": "minWethOut",
              "type": "uint256"
            },
            {
              "internalType": "uint256",
              "name": "bptAmountIn",
              "type": "uint256"
            },
            {
              "internalType": "uint256",
              "name": "minUsdcOut",
              "type": "uint256"
            }
          ],
          "internalType": "struct AmountsOut",
          "name": "amts_",
          "type": "tuple"
        },
        {
          "internalType": "address",
          "name": "ozToken_",
          "type": "address"
        },
        {
          "internalType": "address",
          "name": "owner_",
          "type": "address"
        },
        {
          "internalType": "address",
          "name": "receiver_",
          "type": "address"
        }
      ],
      "name": "useOzTokens",
      "outputs": [
        {
          "internalType": "uint256",
          "name": "amountOut",
          "type": "uint256"
        }
      ],
      "stateMutability": "nonpayable",
      "type": "function"
    },
    {
      "inputs": [
        {
          "internalType": "address",
          "name": "underlying_",
          "type": "address"
        },
        {
          "internalType": "address",
          "name": "user_",
          "type": "address"
        },
        {
          "internalType": "uint256",
          "name": "amountIn_",
          "type": "uint256"
        },
        {
          "internalType": "uint256",
          "name": "minWethOut_",
          "type": "uint256"
        }
      ],
      "name": "useUnderlying",
      "outputs": [],
      "stateMutability": "nonpayable",
      "type": "function"
    }
  ],
  "bytecode": {
    "object": "0x608060405234801561001057600080fd5b50611036806100206000396000f3fe608060405234801561001057600080fd5b50600436106100415760003560e01c806357e725a214610046578063a4fc284b1461005b578063d0d1e95414610080575b600080fd5b610059610054366004610ad0565b610093565b005b61006e610069366004610b12565b61015d565b60405190815260200160405180910390f35b61006e61008e366004610b3a565b61027b565b6100a86001600160a01b0385168430856103be565b6002546100c4908390839087906001600160a01b0316306104cd565b50604080518082018252600a81526903bb2ba34103130b61d160b51b602082015260025491516370a0823160e01b8152306004820152610157926001600160a01b0316906370a0823190602401602060405180830381865afa15801561012e573d6000803e3d6000fd5b505050506040513d601f19601f820116820180604052508101906101529190610bef565b61064e565b50505050565b600b546040516370a0823160e01b81523060048201526000916001600160a01b0316906370a0823190602401602060405180830381865afa1580156101a6573d6000803e3d6000fd5b505050506040513d601f19601f820116820180604052508101906101ca9190610bef565b905060008260018111156101e0576101e0610c08565b036102765760065460408051633fabe5a360e21b815290516000926001600160a01b03169163feaf968c9160048083019260a09291908290030181865afa15801561022f573d6000803e3d6000fd5b505050506040513d601f19601f820116820180604052508101906102539190610c38565b505050915050610272826305f5e100836106979092919063ffffffff16565b9150505b919050565b6000806000600b0160009054906101000a90046001600160a01b03166001600160a01b03166338fff2d06040518163ffffffff1660e01b8152600401602060405180830381865afa1580156102d4573d6000803e3d6000fd5b505050506040513d601f19601f820116820180604052508101906102f89190610bef565b8651909150610315906001600160a01b03871690869030906103be565b61032886602001518760400151836106be565b6002546040516370a0823160e01b81523060048201526103b4916001600160a01b0316906370a0823190602401602060405180830381865afa158015610372573d6000803e3d6000fd5b505050506040513d601f19601f820116820180604052508101906103969190610bef565b60608801516002546003546001600160a01b039182169116876104cd565b9695505050505050565b604080516001600160a01b0385811660248301528481166044830152606480830185905283518084039091018152608490920183526020820180516001600160e01b03166323b872dd60e01b17905291516000928392908816916104229190610cac565b6000604051808303816000865af19150503d806000811461045f576040519150601f19603f3d011682016040523d82523d6000602084013e610464565b606091505b509150915081801561048e57508051158061048e57508080602001905181019061048e9190610cc8565b6104c55760405162461bcd60e51b815260206004820152600360248201526229aa2360e91b60448201526064015b60405180910390fd5b505050505050565b6005546000906104ea906001600160a01b038681169116886107c8565b6000604051806101000160405280866001600160a01b03168152602001856001600160a01b031681526020016101f462ffffff168152602001846001600160a01b0316815260200142815260200188815260200161054888876108c8565b815260006020918201526005546040805163414bf38960e01b815284516001600160a01b03908116600483015293850151841660248201529084015162ffffff1660448201526060840151831660648201526080840151608482015260a084015160a482015260c084015160c482015260e0840151831660e4820152929350169063414bf38990610104016020604051808303816000875af11580156105f2573d6000803e3d6000fd5b505050506040513d601f19601f820116820180604052508101906106169190610bef565b91508160000361064457604051634c5a56af60e11b81526001600160a01b03861660048201526024016104bc565b5095945050505050565b6106938282604051602401610664929190610d16565b60408051601f198184030181529190526020810180516001600160e01b03166309710a9d60e41b17905261096b565b5050565b60008260001904841183021582026106b75763ad251c276000526004601cfd5b5091020490565b604080516060810182526002546001600160a01b039081168252600b5481166020830152600a5416918101919091526000906106f99061098c565b905060006107226040518060600160405280878152602001600081526020016000815250610a15565b905060006107336000866000610a8a565b6040805160808101825285815260208101859052808201839052600060608201526008549151638bdb391360e01b8152929350916001600160a01b0390911690638bdb39139061078d908890309081908790600401610d73565b600060405180830381600087803b1580156107a757600080fd5b505af11580156107bb573d6000803e3d6000fd5b5050505050505050505050565b604080516001600160a01b038481166024830152604480830185905283518084039091018152606490920183526020820180516001600160e01b031663095ea7b360e01b17905291516000928392908716916108249190610cac565b6000604051808303816000865af19150503d8060008114610861576040519150601f19603f3d011682016040523d82523d6000602084013e610866565b606091505b50915091508180156108905750805115806108905750808060200190518101906108909190610cc8565b6108c15760405162461bcd60e51b8152602060048201526002602482015261534160f01b60448201526064016104bc565b5050505050565b600080826001600160a01b031663313ce5676040518163ffffffff1660e01b8152600401602060405180830381865afa158015610909573d6000803e3d6000fd5b505050506040513d601f19601f8201168201806040525081019061092d9190610e3d565b60ff1690508060121461095f57610945816012610e76565b61095090600a610f6d565b61095a9085610f79565b610961565b835b9150505b92915050565b80516a636f6e736f6c652e6c6f67602083016000808483855afa5050505050565b60408051600380825260808201909252606091908160208201848036833701905050915060005b81811015610a0e578381600381106109cd576109cd610f9b565b60200201518382815181106109e4576109e4610f9b565b6001600160a01b039092166020928302919091019091015280610a0681610fb1565b9150506109b3565b5050919050565b60408051600380825260808201909252606091908160208201848036833701905050915060005b81811015610a0e57838160038110610a5657610a56610f9b565b6020020151838281518110610a6d57610a6d610f9b565b602090810291909101015280610a8281610fb1565b915050610a3c565b6060838383604051602001610aa193929190610fca565b60405160208183030381529060405290509392505050565b80356001600160a01b038116811461027657600080fd5b60008060008060808587031215610ae657600080fd5b610aef85610ab9565b9350610afd60208601610ab9565b93969395505050506040820135916060013590565b600060208284031215610b2457600080fd5b813560028110610b3357600080fd5b9392505050565b60008060008084860360e0811215610b5157600080fd5b6080811215610b5f57600080fd5b506040516080810181811067ffffffffffffffff82111715610b9157634e487b7160e01b600052604160045260246000fd5b80604052508535815260208601356020820152604086013560408201526060860135606082015280945050610bc860808601610ab9565b9250610bd660a08601610ab9565b9150610be460c08601610ab9565b905092959194509250565b600060208284031215610c0157600080fd5b5051919050565b634e487b7160e01b600052602160045260246000fd5b805169ffffffffffffffffffff8116811461027657600080fd5b600080600080600060a08688031215610c5057600080fd5b610c5986610c1e565b9450602086015193506040860151925060608601519150610c7c60808701610c1e565b90509295509295909350565b60005b83811015610ca3578181015183820152602001610c8b565b50506000910152565b60008251610cbe818460208701610c88565b9190910192915050565b600060208284031215610cda57600080fd5b81518015158114610b3357600080fd5b60008151808452610d02816020860160208601610c88565b601f01601f19169290920160200192915050565b604081526000610d296040830185610cea565b90508260208301529392505050565b600081518084526020808501945080840160005b83811015610d6857815187529582019590820190600101610d4c565b509495945050505050565b8481526000602060018060a01b038087168285015280861660408501526080606085015261010084018551608080870152818151808452610120880191508583019350600092505b80831015610ddd57835185168252928501926001929092019190850190610dbb565b50848801519450607f199350838782030160a0880152610dfd8186610d38565b94505050506040850151818584030160c0860152610e1b8382610cea565b925050506060840151610e3260e085018215159052565b509695505050505050565b600060208284031215610e4f57600080fd5b815160ff81168114610b3357600080fd5b634e487b7160e01b600052601160045260246000fd5b8181038181111561096557610965610e60565b600181815b80851115610ec4578160001904821115610eaa57610eaa610e60565b80851615610eb757918102915b93841c9390800290610e8e565b509250929050565b600082610edb57506001610965565b81610ee857506000610965565b8160018114610efe5760028114610f0857610f24565b6001915050610965565b60ff841115610f1957610f19610e60565b50506001821b610965565b5060208310610133831016604e8410600b8410161715610f47575081810a610965565b610f518383610e89565b8060001904821115610f6557610f65610e60565b029392505050565b6000610b338383610ecc565b600082610f9657634e487b7160e01b600052601260045260246000fd5b500490565b634e487b7160e01b600052603260045260246000fd5b600060018201610fc357610fc3610e60565b5060010190565b6060810160038510610fec57634e487b7160e01b600052602160045260246000fd5b93815260208101929092526040909101529056fea2646970667358221220d5ef69cb2e62b01731da0dbf072de072a40a48568e84b3316538fb425e269cb964736f6c63430008150033",
    "linkReferences": {}
  },
  "methodIdentifiers": {
    "totalUnderlying(uint8)": "a4fc284b",
    "useOzTokens((uint256,uint256,uint256,uint256),address,address,address)": "d0d1e954",
    "useUnderlying(address,address,uint256,uint256)": "57e725a2"
  },
  "id": 7
}