{
  "abi": [
    {
      "inputs": [
        {
          "internalType": "string",
          "name": "errorMsg",
          "type": "string"
        }
      ],
      "name": "OZError01",
      "type": "error"
    },
    {
      "inputs": [],
      "name": "OZError02",
      "type": "error"
    },
    {
      "inputs": [
        {
          "internalType": "string",
          "name": "errorCode",
          "type": "string"
        }
      ],
      "name": "OZError10",
      "type": "error"
    },
    {
      "inputs": [
        {
          "internalType": "address",
          "name": "caller",
          "type": "address"
        }
      ],
      "name": "OZError13",
      "type": "error"
    },
    {
      "inputs": [],
      "name": "OZError20",
      "type": "error"
    },
    {
      "inputs": [
        {
          "internalType": "string",
          "name": "reason",
          "type": "string"
        }
      ],
      "name": "OZError21",
      "type": "error"
    },
    {
      "inputs": [
        {
          "internalType": "address",
          "name": "owner_",
          "type": "address"
        },
        {
          "internalType": "address",
          "name": "ozl_",
          "type": "address"
        },
        {
          "internalType": "uint256",
          "name": "amountIn_",
          "type": "uint256"
        }
      ],
      "name": "recicleOZL",
      "outputs": [],
      "stateMutability": "nonpayable",
      "type": "function"
    },
    {
      "inputs": [
        {
          "internalType": "address",
          "name": "tokenOut_",
          "type": "address"
        },
        {
          "internalType": "address",
          "name": "receiver_",
          "type": "address"
        },
        {
          "internalType": "uint256",
          "name": "amountInLsd_",
          "type": "uint256"
        },
        {
          "internalType": "uint256[]",
          "name": "minAmountsOut_",
          "type": "uint256[]"
        }
      ],
      "name": "useOZL",
      "outputs": [
        {
          "internalType": "uint256",
          "name": "",
          "type": "uint256"
        }
      ],
      "stateMutability": "nonpayable",
      "type": "function"
    },
    {
      "inputs": [
        {
          "internalType": "address",
          "name": "owner_",
          "type": "address"
        },
        {
          "internalType": "bytes",
          "name": "data_",
          "type": "bytes"
        }
      ],
      "name": "useOzTokens",
      "outputs": [
        {
          "internalType": "uint256",
          "name": "amountOut",
          "type": "uint256"
        }
      ],
      "stateMutability": "nonpayable",
      "type": "function"
    },
    {
      "inputs": [
        {
          "internalType": "address",
          "name": "underlying_",
          "type": "address"
        },
        {
          "internalType": "address",
          "name": "owner_",
          "type": "address"
        },
        {
          "components": [
            {
              "internalType": "uint256",
              "name": "amountIn",
              "type": "uint256"
            },
            {
              "internalType": "uint256[]",
              "name": "minAmountsOut",
              "type": "uint256[]"
            }
          ],
          "internalType": "struct AmountsIn",
          "name": "amounts_",
          "type": "tuple"
        }
      ],
      "name": "useUnderlying",
      "outputs": [],
      "stateMutability": "nonpayable",
      "type": "function"
    }
  ],
  "bytecode": {
    "object": "0x608060405234801561001057600080fd5b50611c5a806100206000396000f3fe608060405234801561001057600080fd5b506004361061004c5760003560e01c8063094463e7146100515780639ea04fe414610076578063a1b86b381461008b578063ab399cf81461009e575b600080fd5b61006461005f3660046114c2565b6100b1565b60405190815260200160405180910390f35b61008961008436600461152e565b6100d9565b005b6100646100993660046115e2565b6102ce565b6100896100ac36600461168e565b61044e565b600a546000906100ce906001600160a01b031686868686866104b0565b90505b949350505050565b3360009081526015602052604090205460ff166101105760405163a43f931360e01b81523360048201526024015b60405180910390fd5b8051602082015161012c6001600160a01b03861685308561068c565b60035481516000916101659188916001600160a01b0316903090879087908790610158576101586116cf565b602002602001015161078e565b90506101708161092a565b156102a357600354604051632e1a7d4d60e01b8152600481018390526001600160a01b0390911690632e1a7d4d90602401600060405180830381600087803b1580156101bb57600080fd5b505af11580156101cf573d6000803e3d6000fd5b50506010546011546040516321f8a72160e01b81526004810191909152600093506001600160a01b0390911691506321f8a72190602401602060405180830381865afa158015610223573d6000803e3d6000fd5b505050506040513d601f19601f8201168201806040525081019061024791906116e5565b9050806001600160a01b031663d0e30db0836040518263ffffffff1660e01b81526004016000604051808303818588803b15801561028457600080fd5b505af1158015610298573d6000803e3d6000fd5b5050505050506102c6565b600354600a546102c4916001600160a01b03908116911630848660016104b0565b505b505050505050565b3360009081526015602052604081205460ff166103005760405163a43f931360e01b8152336004820152602401610107565b6000806000808580602001905181019061031a9190611712565b929650909450925090506103303388308761068c565b600a54600354610351916001600160a01b03908116911630868660026104b0565b50600354604080516338d52e0f60e01b81529051610443926001600160a01b03169133916338d52e0f916004808201926020929091908290030181865afa1580156103a0573d6000803e3d6000fd5b505050506040513d601f19601f820116820180604052508101906103c491906116e5565b6003546040516370a0823160e01b815230600482015285916001600160a01b0316906370a0823190602401602060405180830381865afa15801561040c573d6000803e3d6000fd5b505050506040513d601f19601f8201168201806040525081019061043091906117d4565b86600181518110610158576101586116cf565b979650505050505050565b6104636001600160a01b038316843084610ab9565b60405163c3ae3a0960e01b815260048101829052309063c3ae3a0990602401600060405180830381600087803b15801561049c57600080fd5b505af11580156102c4573d6000803e3d6000fd5b60008080808460028111156104c7576104c76117ed565b036104fe5760035485516001600160a01b03909116925085906000906104ef576104ef6116cf565b60200260200101519050610567565b6001846002811115610512576105126117ed565b0361052d57879150846001815181106104ef576104ef6116cf565b6002846002811115610541576105416117ed565b03610567578791508460008151811061055c5761055c6116cf565b602002602001015190505b6000805460408051631c0de05160e01b815290516001600160a01b0390921691631c0de051916004808201926060929091908290030181865afa1580156105b2573d6000803e3d6000fd5b505050506040513d601f19601f820116820180604052508101906105d69190611813565b5050905080156105f4576105ed8a84308a8661078e565b9350610605565b6106028a8489856000610b2a565b93505b6000856002811115610619576106196117ed565b0361067f576003546001600160a01b03908116908a16036106505760035461064b906001600160a01b03168986610e0e565b61067f565b600354865161067c916001600160a01b0316908b908b9088908b906001908110610158576101586116cf565b93505b5050509695505050505050565b604080516001600160a01b0385811660248301528481166044830152606480830185905283518084039091018152608490920183526020820180516001600160e01b03166323b872dd60e01b17905291516000928392908816916106f0919061186c565b6000604051808303816000865af19150503d806000811461072d576040519150601f19603f3d011682016040523d82523d6000602084013e610732565b606091505b509150915081801561075c57508051158061075c57508080602001905181019061075c9190611888565b6102c65760405162461bcd60e51b815260206004820152600360248201526229aa2360e91b6044820152606401610107565b6006546000906107ab906001600160a01b03888116911685610e43565b60408051610100810182526001600160a01b038089168252878116602083015260145462ffffff1692820192909252908516606082015242608082015260a0810184905260009060c081016108008589610f58565b815260006020918201526006546040805163414bf38960e01b815284516001600160a01b03908116600483015293850151841660248201529084015162ffffff1660448201526060840151831660648201526080840151608482015260a084015160a482015260c084015160c482015260e0840151831660e4820152929350169063414bf38990610104016020604051808303816000875af19250505080156108c6575060408051601f3d908101601f191682019092526108c3918101906117d4565b60015b610918576108d26118a3565b806308c379a00361090c57506108e66118bf565b806108f1575061090e565b8060405163633abab960e01b81526004016101079190611975565b505b3d6000803e3d6000fd5b91506109219050565b95945050505050565b6012546040516335ee5f8760e01b81526020600482015260116024820152701c9bd8dad95d11195c1bdcda5d141bdbdb607a1b604482015260009182916001600160a01b03909116906335ee5f8790606401602060405180830381865afa158015610999573d6000803e3d6000fd5b505050506040513d601f19601f820116820180604052508101906109bd91906117d4565b905060006109cb848361199e565b6010546013546040516321f8a72160e01b81529293506000926001600160a01b03909216916321f8a72191610a069160040190815260200190565b602060405180830381865afa158015610a23573d6000803e3d6000fd5b505050506040513d601f19601f82011682018060405250810190610a4791906116e5565b90506000816001600160a01b031663fd6ce89e6040518163ffffffff1660e01b8152600401602060405180830381865afa158015610a89573d6000803e3d6000fd5b505050506040513d601f19601f82011682018060405250810190610aad91906117d4565b90921095945050505050565b6040516001600160a01b0380851660248301528316604482015260648101829052610b249085906323b872dd60e01b906084015b60408051601f198184030181529190526020810180516001600160e01b03166001600160e01b031990931692909217909152610ffb565b50505050565b6040805160c081018083526000805463038fff2d60e41b909252925183929182916001600160a01b03909116906338fff2d09060c4808501916020918187030181865afa158015610b7f573d6000803e3d6000fd5b505050506040513d601f19601f82011682018060405250810190610ba391906117d4565b8152602001600081526001600160a01b03808a166020830152881660408201526060810187905260800160006040519080825280601f01601f191660200182016040528015610bf9576020820181803683370190505b5090526040805160808101825230808252600060208301819052928201526060810182905291925080856002811115610c3457610c346117ed565b03610c40575084610dd6565b6000856002811115610c5457610c546117ed565b14610dd65760095460405163e969f6b360e01b81526001600160a01b039091169063e969f6b390610c8b9086908690600401611a26565b6020604051808303816000875af1925050508015610cc6575060408051601f3d908101601f19168201909252610cc3918101906117d4565b60015b610d0c57610cd26118a3565b806308c379a00361090c5750610ce66118bf565b80610cf1575061090e565b8060405163dafe91cd60e01b81526004016101079190611975565b86818111610d1a5781610d1c565b805b92506001876002811115610d3257610d326117ed565b03610dd3576008546080860151610d57916001600160a01b038e811692911690610e43565b6008546040516352bbbe2960e01b81526001600160a01b03909116906352bbbe2990610d8d908890889088904290600401611a78565b6020604051808303816000875af1158015610dac573d6000803e3d6000fd5b505050506040513d601f19601f82011682018060405250810190610dd091906117d4565b95505b50505b6008546080840151610df5918b916001600160a01b0390911690610e43565b610e01838383426110d0565b9998505050505050505050565b6040516001600160a01b038316602482015260448101829052610e3e90849063a9059cbb60e01b90606401610aed565b505050565b801580610ebd5750604051636eb1769f60e11b81523060048201526001600160a01b03838116602483015284169063dd62ed3e90604401602060405180830381865afa158015610e97573d6000803e3d6000fd5b505050506040513d601f19601f82011682018060405250810190610ebb91906117d4565b155b610f285760405162461bcd60e51b815260206004820152603660248201527f5361666545524332303a20617070726f76652066726f6d206e6f6e2d7a65726f60448201527520746f206e6f6e2d7a65726f20616c6c6f77616e636560501b6064820152608401610107565b6040516001600160a01b038316602482015260448101829052610e3e90849063095ea7b360e01b90606401610aed565b600080826001600160a01b031663313ce5676040518163ffffffff1660e01b8152600401602060405180830381865afa158015610f99573d6000803e3d6000fd5b505050506040513d601f19601f82011682018060405250810190610fbd9190611adc565b60ff16905080601214610fef57610fd5816012611aff565b610fe090600a611bf6565b610fea9085611c02565b610ff1565b835b9150505b92915050565b6000611050826040518060400160405280602081526020017f5361666545524332303a206c6f772d6c6576656c2063616c6c206661696c6564815250856001600160a01b03166111f79092919063ffffffff16565b90508051600014806110715750808060200190518101906110719190611888565b610e3e5760405162461bcd60e51b815260206004820152602a60248201527f5361666545524332303a204552433230206f7065726174696f6e20646964206e6044820152691bdd081cdd58d8d9595960b21b6064820152608401610107565b6008546040516352bbbe2960e01b81526000916001600160a01b0316906352bbbe2990611107908890889088908890600401611a78565b6020604051808303816000875af1925050508015611142575060408051601f3d908101601f1916820190925261113f918101906117d4565b60015b6111cf5761114e6118a3565b806308c379a00361090c57506111626118bf565b8061116d575061090e565b611196816040518060400160405280600781526020016642414c2335303760c81b815250611210565b156111b457604051637b19dd3560e11b815260040160405180910390fd5b806040516324af18bb60e21b81526004016101079190611975565b806000036111f057604051635eeb40ff60e11b815260040160405180910390fd5b90506100d1565b60606112068484600085611269565b90505b9392505050565b600081604051602001611223919061186c565b604051602081830303815290604052805190602001208360405160200161124a919061186c565b6040516020818303038152906040528051906020012014905092915050565b6060824710156112ca5760405162461bcd60e51b815260206004820152602660248201527f416464726573733a20696e73756666696369656e742062616c616e636520666f6044820152651c8818d85b1b60d21b6064820152608401610107565b600080866001600160a01b031685876040516112e6919061186c565b60006040518083038185875af1925050503d8060008114611323576040519150601f19603f3d011682016040523d82523d6000602084013e611328565b606091505b509150915061044387838387606083156113a357825160000361139c576001600160a01b0385163b61139c5760405162461bcd60e51b815260206004820152601d60248201527f416464726573733a2063616c6c20746f206e6f6e2d636f6e74726163740000006044820152606401610107565b50816100d1565b6100d183838151156113b85781518083602001fd5b8060405162461bcd60e51b81526004016101079190611975565b6001600160a01b03811681146113e757600080fd5b50565b634e487b7160e01b600052604160045260246000fd5b601f8201601f1916810167ffffffffffffffff81118282101715611426576114266113ea565b6040525050565b600067ffffffffffffffff821115611447576114476113ea565b5060051b60200190565b600082601f83011261146257600080fd5b8135602061146f8261142d565b60405161147c8282611400565b83815260059390931b850182019282810191508684111561149c57600080fd5b8286015b848110156114b757803583529183019183016114a0565b509695505050505050565b600080600080608085870312156114d857600080fd5b84356114e3816113d2565b935060208501356114f3816113d2565b925060408501359150606085013567ffffffffffffffff81111561151657600080fd5b61152287828801611451565b91505092959194509250565b60008060006060848603121561154357600080fd5b833561154e816113d2565b9250602084013561155e816113d2565b9150604084013567ffffffffffffffff8082111561157b57600080fd5b908501906040828803121561158f57600080fd5b6040516040810181811083821117156115aa576115aa6113ea565b604052823581526020830135828111156115c357600080fd5b6115cf89828601611451565b6020830152508093505050509250925092565b600080604083850312156115f557600080fd5b8235611600816113d2565b915060208381013567ffffffffffffffff8082111561161e57600080fd5b818601915086601f83011261163257600080fd5b813581811115611644576116446113ea565b604051915061165c601f8201601f1916850183611400565b808252878482850101111561167057600080fd5b80848401858401376000848284010152508093505050509250929050565b6000806000606084860312156116a357600080fd5b83356116ae816113d2565b925060208401356116be816113d2565b929592945050506040919091013590565b634e487b7160e01b600052603260045260246000fd5b6000602082840312156116f757600080fd5b8151611209816113d2565b805161170d816113d2565b919050565b6000806000806080858703121561172857600080fd5b845193506020808601519350604086015167ffffffffffffffff81111561174e57600080fd5b8601601f8101881361175f57600080fd5b805161176a8161142d565b6040516117778282611400565b82815260059290921b830184019184810191508a83111561179757600080fd5b928401925b828410156117b55783518252928401929084019061179c565b80965050505050506117c960608601611702565b905092959194509250565b6000602082840312156117e657600080fd5b5051919050565b634e487b7160e01b600052602160045260246000fd5b8051801515811461170d57600080fd5b60008060006060848603121561182857600080fd5b61183184611803565b925060208401519150604084015190509250925092565b60005b8381101561186357818101518382015260200161184b565b50506000910152565b6000825161187e818460208701611848565b9190910192915050565b60006020828403121561189a57600080fd5b61120982611803565b600060033d11156118bc5760046000803e5060005160e01c5b90565b600060443d10156118cd5790565b6040516003193d81016004833e81513d67ffffffffffffffff81602484011181841117156118fd57505050505090565b82850191508151818111156119155750505050505090565b843d870101602082850101111561192f5750505050505090565b61193e60208286010187611400565b509095945050505050565b60008151808452611961816020860160208601611848565b601f01601f19169290920160200192915050565b6020815260006112096020830184611949565b634e487b7160e01b600052601160045260246000fd5b80820180821115610ff557610ff5611988565b8051825260006020820151600281106119da57634e487b7160e01b600052602160045260246000fd5b80602085015250604082015160018060a01b03808216604086015280606085015116606086015250506080820151608084015260a082015160c060a0850152610ff160c0850182611949565b60a081526000611a3960a08301856119b1565b9050611209602083018480516001600160a01b039081168352602080830151151590840152604080830151909116908301526060908101511515910152565b60e081526000611a8b60e08301876119b1565b9050611aca602083018680516001600160a01b039081168352602080830151151590840152604080830151909116908301526060908101511515910152565b60a082019390935260c0015292915050565b600060208284031215611aee57600080fd5b815160ff8116811461120957600080fd5b81810381811115610ff557610ff5611988565b600181815b80851115611b4d578160001904821115611b3357611b33611988565b80851615611b4057918102915b93841c9390800290611b17565b509250929050565b600082611b6457506001610ff5565b81611b7157506000610ff5565b8160018114611b875760028114611b9157611bad565b6001915050610ff5565b60ff841115611ba257611ba2611988565b50506001821b610ff5565b5060208310610133831016604e8410600b8410161715611bd0575081810a610ff5565b611bda8383611b12565b8060001904821115611bee57611bee611988565b029392505050565b60006112098383611b55565b600082611c1f57634e487b7160e01b600052601260045260246000fd5b50049056fea2646970667358221220dc596a7a3821e78a803125da1fbaef50920f8d80ef9b545cad4c7f6ffdfe3ff064736f6c63430008150033",
    "linkReferences": {}
  },
  "methodIdentifiers": {
    "recicleOZL(address,address,uint256)": "ab399cf8",
    "useOZL(address,address,uint256,uint256[])": "094463e7",
    "useOzTokens(address,bytes)": "a1b86b38",
    "useUnderlying(address,address,(uint256,uint256[]))": "9ea04fe4"
  },
  "id": 13
}