{
  "abi": [
    {
      "inputs": [
        {
          "internalType": "string",
          "name": "errorMsg",
          "type": "string"
        }
      ],
      "name": "OZError01",
      "type": "error"
    },
    {
      "inputs": [],
      "name": "OZError02",
      "type": "error"
    },
    {
      "inputs": [
        {
          "internalType": "string",
          "name": "errorCode",
          "type": "string"
        }
      ],
      "name": "OZError10",
      "type": "error"
    },
    {
      "inputs": [
        {
          "internalType": "address",
          "name": "caller",
          "type": "address"
        }
      ],
      "name": "OZError13",
      "type": "error"
    },
    {
      "inputs": [
        {
          "internalType": "address",
          "name": "tokenIn_",
          "type": "address"
        },
        {
          "internalType": "address",
          "name": "tokenOut_",
          "type": "address"
        },
        {
          "internalType": "address",
          "name": "receiver_",
          "type": "address"
        },
        {
          "internalType": "uint256",
          "name": "amountIn_",
          "type": "uint256"
        },
        {
          "internalType": "uint256",
          "name": "minAmountOut_",
          "type": "uint256"
        }
      ],
      "name": "useOZL",
      "outputs": [],
      "stateMutability": "nonpayable",
      "type": "function"
    },
    {
      "inputs": [
        {
          "internalType": "address",
          "name": "owner_",
          "type": "address"
        },
        {
          "internalType": "bytes",
          "name": "data_",
          "type": "bytes"
        }
      ],
      "name": "useOzTokens",
      "outputs": [
        {
          "internalType": "uint256",
          "name": "amountOut",
          "type": "uint256"
        }
      ],
      "stateMutability": "nonpayable",
      "type": "function"
    },
    {
      "inputs": [
        {
          "internalType": "address",
          "name": "underlying_",
          "type": "address"
        },
        {
          "internalType": "address",
          "name": "owner_",
          "type": "address"
        },
        {
          "components": [
            {
              "internalType": "uint256",
              "name": "amountIn",
              "type": "uint256"
            },
            {
              "internalType": "uint256",
              "name": "minWethOut",
              "type": "uint256"
            },
            {
              "internalType": "uint256",
              "name": "minRethOut",
              "type": "uint256"
            }
          ],
          "internalType": "struct AmountsIn",
          "name": "amounts_",
          "type": "tuple"
        }
      ],
      "name": "useUnderlying",
      "outputs": [],
      "stateMutability": "nonpayable",
      "type": "function"
    }
  ],
  "bytecode": {
    "object": "0x608060405234801561001057600080fd5b5061188e806100206000396000f3fe608060405234801561001057600080fd5b50600436106100415760003560e01c80636db43d7e14610046578063a1b86b381461005b578063b50f68fd14610080575b600080fd5b6100596100543660046111a0565b610093565b005b61006e61006936600461123e565b6101be565b60405190815260200160405180910390f35b61005961008e3660046112ea565b610338565b6100c760405180604001604052806012815260200171039b2b73232b91034b7103ab9b2a7ad261d160751b8152503361050d565b6100f86040518060400160405280600f81526020016e030b2323932b9b9943a3434b9949d1608d1b8152503061050d565b6003546101139086906001600160a01b031633308686610556565b61013d60405180604001604052806009815260200168676f6f64206865726560b81b8152506105f9565b6003546040516370a0823160e01b81523060048201526101b6916001600160a01b031690869082906370a0823190602401602060405180830381865afa15801561018b573d6000803e3d6000fd5b505050506040513d601f19601f820116820180604052508101906101af919061137e565b848761063f565b505050505050565b3360009081526015602052604081205460ff166101f55760405163a43f931360e01b81523360048201526024015b60405180910390fd5b6000806000806000868060200190518101906102119190611397565b939850919650945092509050610229338930886107db565b600a54600354610247916001600160a01b03908116911686866108dd565b600354604080516338d52e0f60e01b8152905161032c926001600160a01b03169133916338d52e0f916004808201926020929091908290030181865afa158015610295573d6000803e3d6000fd5b505050506040513d601f19601f820116820180604052508101906102b991906113e4565b6003546040516370a0823160e01b81523060048201526001600160a01b03909116906370a0823190602401602060405180830381865afa158015610301573d6000803e3d6000fd5b505050506040513d601f19601f82011682018060405250810190610325919061137e565b858561063f565b98975050505050505050565b3360009081526015602052604090205460ff1661036a5760405163a43f931360e01b81523360048201526024016101ec565b80516103816001600160a01b0385168430846107db565b60035460208301516000916103a49187916001600160a01b03169085903061063f565b90506103af81610975565b156104e257600354604051632e1a7d4d60e01b8152600481018390526001600160a01b0390911690632e1a7d4d90602401600060405180830381600087803b1580156103fa57600080fd5b505af115801561040e573d6000803e3d6000fd5b50506010546011546040516321f8a72160e01b81526004810191909152600093506001600160a01b0390911691506321f8a72190602401602060405180830381865afa158015610462573d6000803e3d6000fd5b505050506040513d601f19601f8201168201806040525081019061048691906113e4565b9050806001600160a01b031663d0e30db0836040518263ffffffff1660e01b81526004016000604051808303818588803b1580156104c357600080fd5b505af11580156104d7573d6000803e3d6000fd5b505050505050610506565b600354600a546040850151610506926001600160a01b0390811692169084906108dd565b5050505050565b6105528282604051602401610523929190611458565b60408051601f198184030181529190526020810180516001600160e01b031663319af33360e01b179052610b04565b5050565b6000805460408051631c0de05160e01b815290516001600160a01b0390921691631c0de051916004808201926060929091908290030181865afa1580156105a1573d6000803e3d6000fd5b505050506040513d601f19601f820116820180604052508101906105c59190611497565b5050905080156105e2576105dc878785858861063f565b506105f0565b6105f0878787878787610b25565b50505050505050565b61063c8160405160240161060d91906114cc565b60408051601f198184030181529190526020810180516001600160e01b031663104c13eb60e21b179052610b04565b50565b60065460009061065c906001600160a01b03888116911686610dad565b60408051610100810182526001600160a01b038089168252878116602083015260145462ffffff1692820192909252908316606082015242608082015260a0810185905260009060c081016106b18689610ea6565b815260006020918201526006546040805163414bf38960e01b815284516001600160a01b03908116600483015293850151841660248201529084015162ffffff1660448201526060840151831660648201526080840151608482015260a084015160a482015260c084015160c482015260e0840151831660e4820152929350169063414bf38990610104016020604051808303816000875af1925050508015610777575060408051601f3d908101601f191682019092526107749181019061137e565b60015b6107c9576107836114df565b806308c379a0036107bd57506107976114fb565b806107a257506107bf565b8060405163633abab960e01b81526004016101ec91906114cc565b505b3d6000803e3d6000fd5b91506107d29050565b95945050505050565b604080516001600160a01b0385811660248301528481166044830152606480830185905283518084039091018152608490920183526020820180516001600160e01b03166323b872dd60e01b179052915160009283929088169161083f9190611585565b6000604051808303816000865af19150503d806000811461087c576040519150601f19603f3d011682016040523d82523d6000602084013e610881565b606091505b50915091508180156108ab5750805115806108ab5750808060200190518101906108ab91906115a1565b6101b65760405162461bcd60e51b815260206004820152600360248201526229aa2360e91b60448201526064016101ec565b6000805460408051631c0de05160e01b815290516001600160a01b0390921691631c0de051916004808201926060929091908290030181865afa158015610928573d6000803e3d6000fd5b505050506040513d601f19601f8201168201806040525081019061094c9190611497565b50509050801561096957610963858585853061063f565b50610506565b61050685858585610f49565b6012546040516335ee5f8760e01b81526020600482015260116024820152701c9bd8dad95d11195c1bdcda5d141bdbdb607a1b604482015260009182916001600160a01b03909116906335ee5f8790606401602060405180830381865afa1580156109e4573d6000803e3d6000fd5b505050506040513d601f19601f82011682018060405250810190610a08919061137e565b90506000610a1684836115d2565b6010546013546040516321f8a72160e01b81529293506000926001600160a01b03909216916321f8a72191610a519160040190815260200190565b602060405180830381865afa158015610a6e573d6000803e3d6000fd5b505050506040513d601f19601f82011682018060405250810190610a9291906113e4565b90506000816001600160a01b031663fd6ce89e6040518163ffffffff1660e01b8152600401602060405180830381865afa158015610ad4573d6000803e3d6000fd5b505050506040513d601f19601f82011682018060405250810190610af8919061137e565b90921095945050505050565b80516a636f6e736f6c652e6c6f67602083016000808483855afa5050505050565b6040805160c081018083526000805463038fff2d60e41b909252925183929182916001600160a01b03909116906338fff2d09060c4808501916020918187030181865afa158015610b7a573d6000803e3d6000fd5b505050506040513d601f19601f82011682018060405250810190610b9e919061137e565b8152602001600081526001600160a01b03808b166020830152891660408201526060810186905260800160006040519080825280601f01601f191660200182016040528015610bf4576020820181803683370190505b509052604080516080810182526001600160a01b03808a168252600060208301819052898216838501526060830152600954925163e969f6b360e01b8152939450909291169063e969f6b390610c50908590859060040161165a565b6020604051808303816000875af1925050508015610c8b575060408051601f3d908101601f19168201909252610c889181019061137e565b60015b610cd157610c976114df565b806308c379a0036107bd5750610cab6114fb565b80610cb657506107bf565b8060405163dafe91cd60e01b81526004016101ec91906114cc565b6000818611610ce05781610ce2565b855b6008546080860151919250610d04916001600160a01b038e8116921690610dad565b6008546040516352bbbe2960e01b81526001600160a01b03909116906352bbbe2990610d3a9087908790869042906004016116ac565b6020604051808303816000875af1158015610d59573d6000803e3d6000fd5b505050506040513d601f19601f82011682018060405250810190610d7d919061137e565b9450505082600003610da257604051635eeb40ff60e11b815260040160405180910390fd5b505050505050505050565b604080516001600160a01b038481166024830152604480830185905283518084039091018152606490920183526020820180516001600160e01b031663095ea7b360e01b1790529151600092839290871691610e099190611585565b6000604051808303816000865af19150503d8060008114610e46576040519150601f19603f3d011682016040523d82523d6000602084013e610e4b565b606091505b5091509150818015610e75575080511580610e75575080806020019051810190610e7591906115a1565b6105065760405162461bcd60e51b8152602060048201526002602482015261534160f01b60448201526064016101ec565b600080826001600160a01b031663313ce5676040518163ffffffff1660e01b8152600401602060405180830381865afa158015610ee7573d6000803e3d6000fd5b505050506040513d601f19601f82011682018060405250810190610f0b9190611710565b60ff16905080601214610f3d57610f23816012611733565b610f2e90600a61182a565b610f389085611836565b610f3f565b835b9150505b92915050565b6040805160c081018083526000805463038fff2d60e41b909252925183929182916001600160a01b03909116906338fff2d09060c4808501916020918187030181865afa158015610f9e573d6000803e3d6000fd5b505050506040513d601f19601f82011682018060405250810190610fc2919061137e565b8152602001600081526001600160a01b038089166020830152871660408201526060810186905260800160006040519080825280601f01601f191660200182016040528015611018576020820181803683370190505b5090526040805160808101825230808252600060208301819052828401919091526060820152600954915163e969f6b360e01b8152929350916001600160a01b039091169063e969f6b390611073908590859060040161165a565b6020604051808303816000875af19250505080156110ae575060408051601f3d908101601f191682019092526110ab9181019061137e565b60015b6110ba57610c976114df565b60008186116110c957816110cb565b855b60085460808601519192506110ed916001600160a01b038c8116921690610dad565b6008546040516352bbbe2960e01b81526001600160a01b03909116906352bbbe29906111239087908790869042906004016116ac565b6020604051808303816000875af1158015611142573d6000803e3d6000fd5b505050506040513d601f19601f82011682018060405250810190611166919061137e565b94505050826000036105f057604051635eeb40ff60e11b815260040160405180910390fd5b6001600160a01b038116811461063c57600080fd5b600080600080600060a086880312156111b857600080fd5b85356111c38161118b565b945060208601356111d38161118b565b935060408601356111e38161118b565b94979396509394606081013594506080013592915050565b634e487b7160e01b600052604160045260246000fd5b601f8201601f1916810167ffffffffffffffff81118282101715611237576112376111fb565b6040525050565b6000806040838503121561125157600080fd5b823561125c8161118b565b915060208381013567ffffffffffffffff8082111561127a57600080fd5b818601915086601f83011261128e57600080fd5b8135818111156112a0576112a06111fb565b60405191506112b8601f8201601f1916850183611211565b80825287848285010111156112cc57600080fd5b80848401858401376000848284010152508093505050509250929050565b600080600083850360a081121561130057600080fd5b843561130b8161118b565b9350602085013561131b8161118b565b92506060603f198201121561132f57600080fd5b506040516060810181811067ffffffffffffffff82111715611353576113536111fb565b8060405250604085013581526060850135602082015260808501356040820152809150509250925092565b60006020828403121561139057600080fd5b5051919050565b600080600080600060a086880312156113af57600080fd5b8551945060208601519350604086015192506060860151915060808601516113d68161118b565b809150509295509295909350565b6000602082840312156113f657600080fd5b81516114018161118b565b9392505050565b60005b8381101561142357818101518382015260200161140b565b50506000910152565b60008151808452611444816020860160208601611408565b601f01601f19169290920160200192915050565b60408152600061146b604083018561142c565b905060018060a01b03831660208301529392505050565b8051801515811461149257600080fd5b919050565b6000806000606084860312156114ac57600080fd5b6114b584611482565b925060208401519150604084015190509250925092565b602081526000611401602083018461142c565b600060033d11156114f85760046000803e5060005160e01c5b90565b600060443d10156115095790565b6040516003193d81016004833e81513d67ffffffffffffffff816024840111818411171561153957505050505090565b82850191508151818111156115515750505050505090565b843d870101602082850101111561156b5750505050505090565b61157a60208286010187611211565b509095945050505050565b60008251611597818460208701611408565b9190910192915050565b6000602082840312156115b357600080fd5b61140182611482565b634e487b7160e01b600052601160045260246000fd5b80820180821115610f4357610f436115bc565b80518252600060208201516002811061160e57634e487b7160e01b600052602160045260246000fd5b80602085015250604082015160018060a01b03808216604086015280606085015116606086015250506080820151608084015260a082015160c060a0850152610f3f60c085018261142c565b60a08152600061166d60a08301856115e5565b9050611401602083018480516001600160a01b039081168352602080830151151590840152604080830151909116908301526060908101511515910152565b60e0815260006116bf60e08301876115e5565b90506116fe602083018680516001600160a01b039081168352602080830151151590840152604080830151909116908301526060908101511515910152565b60a082019390935260c0015292915050565b60006020828403121561172257600080fd5b815160ff8116811461140157600080fd5b81810381811115610f4357610f436115bc565b600181815b80851115611781578160001904821115611767576117676115bc565b8085161561177457918102915b93841c939080029061174b565b509250929050565b60008261179857506001610f43565b816117a557506000610f43565b81600181146117bb57600281146117c5576117e1565b6001915050610f43565b60ff8411156117d6576117d66115bc565b50506001821b610f43565b5060208310610133831016604e8410600b8410161715611804575081810a610f43565b61180e8383611746565b8060001904821115611822576118226115bc565b029392505050565b60006114018383611789565b60008261185357634e487b7160e01b600052601260045260246000fd5b50049056fea2646970667358221220cebf3ecb993caa8f1ae9dc8ddcdfe5327c5498bfe066a0aa0d85ae59e76e9ebd64736f6c63430008150033",
    "linkReferences": {}
  },
  "methodIdentifiers": {
    "useOZL(address,address,address,uint256,uint256)": "6db43d7e",
    "useOzTokens(address,bytes)": "a1b86b38",
    "useUnderlying(address,address,(uint256,uint256,uint256))": "b50f68fd"
  },
  "id": 13
}