{
  "abi": [
    {
      "inputs": [
        {
          "internalType": "string",
          "name": "errorMsg",
          "type": "string"
        }
      ],
      "name": "OZError01",
      "type": "error"
    },
    {
      "inputs": [],
      "name": "OZError02",
      "type": "error"
    },
    {
      "inputs": [
        {
          "internalType": "address",
          "name": "owner_",
          "type": "address"
        },
        {
          "internalType": "bytes",
          "name": "data_",
          "type": "bytes"
        }
      ],
      "name": "useOzTokens",
      "outputs": [
        {
          "internalType": "uint256",
          "name": "amountOut",
          "type": "uint256"
        }
      ],
      "stateMutability": "nonpayable",
      "type": "function"
    },
    {
      "inputs": [
        {
          "internalType": "address",
          "name": "underlying_",
          "type": "address"
        },
        {
          "internalType": "address",
          "name": "owner_",
          "type": "address"
        },
        {
          "components": [
            {
              "internalType": "uint256",
              "name": "amountIn",
              "type": "uint256"
            },
            {
              "internalType": "uint256",
              "name": "minWethOut",
              "type": "uint256"
            },
            {
              "internalType": "uint256",
              "name": "minRethOut",
              "type": "uint256"
            }
          ],
          "internalType": "struct AmountsIn",
          "name": "amounts_",
          "type": "tuple"
        }
      ],
      "name": "useUnderlying",
      "outputs": [],
      "stateMutability": "nonpayable",
      "type": "function"
    }
  ],
  "bytecode": {
    "object": "0x608060405234801561001057600080fd5b50611293806100206000396000f3fe608060405234801561001057600080fd5b50600436106100365760003560e01c8063a1b86b381461003b578063b50f68fd14610060575b600080fd5b61004e610049366004610c6d565b610075565b60405190815260200160405180910390f35b61007361006e366004610d19565b6101b9565b005b600080600080600080868060200190518101906100929190610dad565b9398509196509450925090506100aa3389308861035c565b600b546003546100c8916001600160a01b039081169116868661046b565b600354604080516338d52e0f60e01b815290516101ad926001600160a01b03169133916338d52e0f916004808201926020929091908290030181865afa158015610116573d6000803e3d6000fd5b505050506040513d601f19601f8201168201806040525081019061013a9190610dfa565b6003546040516370a0823160e01b81523060048201526001600160a01b03909116906370a0823190602401602060405180830381865afa158015610182573d6000803e3d6000fd5b505050506040513d601f19601f820116820180604052508101906101a69190610e1e565b8585610503565b98975050505050505050565b80516101d06001600160a01b03851684308461035c565b60035460208301516000916101f39187916001600160a01b031690859030610503565b90506101fe8161069f565b1561033157600354604051632e1a7d4d60e01b8152600481018390526001600160a01b0390911690632e1a7d4d90602401600060405180830381600087803b15801561024957600080fd5b505af115801561025d573d6000803e3d6000fd5b50506011546012546040516321f8a72160e01b81526004810191909152600093506001600160a01b0390911691506321f8a72190602401602060405180830381865afa1580156102b1573d6000803e3d6000fd5b505050506040513d601f19601f820116820180604052508101906102d59190610dfa565b9050806001600160a01b031663d0e30db0836040518263ffffffff1660e01b81526004016000604051808303818588803b15801561031257600080fd5b505af1158015610326573d6000803e3d6000fd5b505050505050610355565b600354600b546040850151610355926001600160a01b03908116921690849061046b565b5050505050565b604080516001600160a01b0385811660248301528481166044830152606480830185905283518084039091018152608490920183526020820180516001600160e01b03166323b872dd60e01b17905291516000928392908816916103c09190610e5b565b6000604051808303816000865af19150503d80600081146103fd576040519150601f19603f3d011682016040523d82523d6000602084013e610402565b606091505b509150915081801561042c57508051158061042c57508080602001905181019061042c9190610e8c565b6104635760405162461bcd60e51b815260206004820152600360248201526229aa2360e91b60448201526064015b60405180910390fd5b505050505050565b6000805460408051631c0de05160e01b815290516001600160a01b0390921691631c0de051916004808201926060929091908290030181865afa1580156104b6573d6000803e3d6000fd5b505050506040513d601f19601f820116820180604052508101906104da9190610ea7565b5050905080156104f7576104f18585858530610503565b50610355565b6103558585858561082e565b600654600090610520906001600160a01b03888116911686610a76565b60408051610100810182526001600160a01b038089168252878116602083015260155462ffffff1692820192909252908316606082015242608082015260a0810185905260009060c081016105758689610b6f565b815260006020918201526006546040805163414bf38960e01b815284516001600160a01b03908116600483015293850151841660248201529084015162ffffff1660448201526060840151831660648201526080840151608482015260a084015160a482015260c084015160c482015260e0840151831660e4820152929350169063414bf38990610104016020604051808303816000875af192505050801561063b575060408051601f3d908101601f1916820190925261063891810190610e1e565b60015b61068d57610647610edc565b806308c379a003610681575061065b610ef8565b806106665750610683565b8060405163633abab960e01b815260040161045a9190610fae565b505b3d6000803e3d6000fd5b91506106969050565b95945050505050565b6013546040516335ee5f8760e01b81526020600482015260116024820152701c9bd8dad95d11195c1bdcda5d141bdbdb607a1b604482015260009182916001600160a01b03909116906335ee5f8790606401602060405180830381865afa15801561070e573d6000803e3d6000fd5b505050506040513d601f19601f820116820180604052508101906107329190610e1e565b905060006107408483610fd7565b6011546014546040516321f8a72160e01b81529293506000926001600160a01b03909216916321f8a7219161077b9160040190815260200190565b602060405180830381865afa158015610798573d6000803e3d6000fd5b505050506040513d601f19601f820116820180604052508101906107bc9190610dfa565b90506000816001600160a01b031663fd6ce89e6040518163ffffffff1660e01b8152600401602060405180830381865afa1580156107fe573d6000803e3d6000fd5b505050506040513d601f19601f820116820180604052508101906108229190610e1e565b90921095945050505050565b6040805160c081018083526000805463038fff2d60e41b909252925182916001600160a01b0316906338fff2d09060c4808501916020918187030181865afa15801561087e573d6000803e3d6000fd5b505050506040513d601f19601f820116820180604052508101906108a29190610e1e565b8152602001600081526001600160a01b038088166020830152861660408201526060810185905260800160006040519080825280601f01601f1916602001820160405280156108f8576020820181803683370190505b50905260408051608081018252308082526000602083018190528284019190915260608201819052600a54925163e969f6b360e01b8152939450909290916001600160a01b03169063e969f6b390610956908690869060040161105f565b6020604051808303816000875af1158015610975573d6000803e3d6000fd5b505050506040513d601f19601f820116820180604052508101906109999190610e1e565b905060008185116109aa57816109ac565b845b60095460808601519192506109ce916001600160a01b038b8116921690610a76565b6009546040516352bbbe2960e01b81526000916001600160a01b0316906352bbbe2990610a059088908890879042906004016110b1565b6020604051808303816000875af1158015610a24573d6000803e3d6000fd5b505050506040513d601f19601f82011682018060405250810190610a489190610e1e565b905080600003610a6b57604051635eeb40ff60e11b815260040160405180910390fd5b505050505050505050565b604080516001600160a01b038481166024830152604480830185905283518084039091018152606490920183526020820180516001600160e01b031663095ea7b360e01b1790529151600092839290871691610ad29190610e5b565b6000604051808303816000865af19150503d8060008114610b0f576040519150601f19603f3d011682016040523d82523d6000602084013e610b14565b606091505b5091509150818015610b3e575080511580610b3e575080806020019051810190610b3e9190610e8c565b6103555760405162461bcd60e51b8152602060048201526002602482015261534160f01b604482015260640161045a565b600080826001600160a01b031663313ce5676040518163ffffffff1660e01b8152600401602060405180830381865afa158015610bb0573d6000803e3d6000fd5b505050506040513d601f19601f82011682018060405250810190610bd49190611115565b60ff16905080601214610c0657610bec816012611138565b610bf790600a61122f565b610c01908561123b565b610c08565b835b9150505b92915050565b6001600160a01b0381168114610c2757600080fd5b50565b634e487b7160e01b600052604160045260246000fd5b601f8201601f1916810167ffffffffffffffff81118282101715610c6657610c66610c2a565b6040525050565b60008060408385031215610c8057600080fd5b8235610c8b81610c12565b915060208381013567ffffffffffffffff80821115610ca957600080fd5b818601915086601f830112610cbd57600080fd5b813581811115610ccf57610ccf610c2a565b6040519150610ce7601f8201601f1916850183610c40565b8082528784828501011115610cfb57600080fd5b80848401858401376000848284010152508093505050509250929050565b600080600083850360a0811215610d2f57600080fd5b8435610d3a81610c12565b93506020850135610d4a81610c12565b92506060603f1982011215610d5e57600080fd5b506040516060810181811067ffffffffffffffff82111715610d8257610d82610c2a565b8060405250604085013581526060850135602082015260808501356040820152809150509250925092565b600080600080600060a08688031215610dc557600080fd5b855194506020860151935060408601519250606086015191506080860151610dec81610c12565b809150509295509295909350565b600060208284031215610e0c57600080fd5b8151610e1781610c12565b9392505050565b600060208284031215610e3057600080fd5b5051919050565b60005b83811015610e52578181015183820152602001610e3a565b50506000910152565b60008251610e6d818460208701610e37565b9190910192915050565b80518015158114610e8757600080fd5b919050565b600060208284031215610e9e57600080fd5b610e1782610e77565b600080600060608486031215610ebc57600080fd5b610ec584610e77565b925060208401519150604084015190509250925092565b600060033d1115610ef55760046000803e5060005160e01c5b90565b600060443d1015610f065790565b6040516003193d81016004833e81513d67ffffffffffffffff8160248401118184111715610f3657505050505090565b8285019150815181811115610f4e5750505050505090565b843d8701016020828501011115610f685750505050505090565b610f7760208286010187610c40565b509095945050505050565b60008151808452610f9a816020860160208601610e37565b601f01601f19169290920160200192915050565b602081526000610e176020830184610f82565b634e487b7160e01b600052601160045260246000fd5b80820180821115610c0c57610c0c610fc1565b80518252600060208201516002811061101357634e487b7160e01b600052602160045260246000fd5b80602085015250604082015160018060a01b03808216604086015280606085015116606086015250506080820151608084015260a082015160c060a0850152610c0860c0850182610f82565b60a08152600061107260a0830185610fea565b9050610e17602083018480516001600160a01b039081168352602080830151151590840152604080830151909116908301526060908101511515910152565b60e0815260006110c460e0830187610fea565b9050611103602083018680516001600160a01b039081168352602080830151151590840152604080830151909116908301526060908101511515910152565b60a082019390935260c0015292915050565b60006020828403121561112757600080fd5b815160ff81168114610e1757600080fd5b81810381811115610c0c57610c0c610fc1565b600181815b8085111561118657816000190482111561116c5761116c610fc1565b8085161561117957918102915b93841c9390800290611150565b509250929050565b60008261119d57506001610c0c565b816111aa57506000610c0c565b81600181146111c057600281146111ca576111e6565b6001915050610c0c565b60ff8411156111db576111db610fc1565b50506001821b610c0c565b5060208310610133831016604e8410600b8410161715611209575081810a610c0c565b611213838361114b565b806000190482111561122757611227610fc1565b029392505050565b6000610e17838361118e565b60008261125857634e487b7160e01b600052601260045260246000fd5b50049056fea2646970667358221220fa62350976860524791dfb667a78abf542c0a7d90e76183679e4c2d4e7ca24d164736f6c63430008150033",
    "linkReferences": {}
  },
  "methodIdentifiers": {
    "useOzTokens(address,bytes)": "a1b86b38",
    "useUnderlying(address,address,(uint256,uint256,uint256))": "b50f68fd"
  },
  "id": 8
}