{
  "abi": [
    {
      "inputs": [],
      "name": "InvalidBalancerSwap",
      "type": "error"
    },
    {
      "inputs": [
        {
          "internalType": "address",
          "name": "token",
          "type": "address"
        }
      ],
      "name": "TokenInNotValid",
      "type": "error"
    },
    {
      "inputs": [
        {
          "internalType": "enum Asset",
          "name": "type_",
          "type": "uint8"
        }
      ],
      "name": "totalUnderlying",
      "outputs": [
        {
          "internalType": "uint256",
          "name": "total",
          "type": "uint256"
        }
      ],
      "stateMutability": "view",
      "type": "function"
    },
    {
      "inputs": [
        {
          "internalType": "address",
          "name": "ozToken_",
          "type": "address"
        },
        {
          "internalType": "address",
          "name": "owner_",
          "type": "address"
        },
        {
          "internalType": "bytes",
          "name": "data_",
          "type": "bytes"
        }
      ],
      "name": "useOzTokens",
      "outputs": [
        {
          "internalType": "uint256",
          "name": "amountOut",
          "type": "uint256"
        }
      ],
      "stateMutability": "nonpayable",
      "type": "function"
    },
    {
      "inputs": [
        {
          "internalType": "address",
          "name": "underlying_",
          "type": "address"
        },
        {
          "internalType": "address",
          "name": "owner_",
          "type": "address"
        },
        {
          "components": [
            {
              "internalType": "uint256",
              "name": "amountIn",
              "type": "uint256"
            },
            {
              "internalType": "uint256",
              "name": "minWethOut",
              "type": "uint256"
            },
            {
              "internalType": "uint256",
              "name": "minRethOut",
              "type": "uint256"
            }
          ],
          "internalType": "struct AmountsIn",
          "name": "amounts_",
          "type": "tuple"
        }
      ],
      "name": "useUnderlying",
      "outputs": [],
      "stateMutability": "nonpayable",
      "type": "function"
    }
  ],
  "bytecode": {
    "object": "0x608060405234801561001057600080fd5b50611427806100206000396000f3fe608060405234801561001057600080fd5b50600436106100415760003560e01c8063a4fc284b14610046578063ae832db01461006b578063b50f68fd1461007e575b600080fd5b610059610054366004610dbc565b610093565b60405190815260200160405180910390f35b610059610079366004610e43565b6101b1565b61009161008c366004610efd565b61031f565b005b600a546040516370a0823160e01b81523060048201526000916001600160a01b0316906370a0823190602401602060405180830381865afa1580156100dc573d6000803e3d6000fd5b505050506040513d601f19601f820116820180604052508101906101009190610f91565b9050600082600181111561011657610116610faa565b036101ac5760065460408051633fabe5a360e21b815290516000926001600160a01b03169163feaf968c9160048083019260a09291908290030181865afa158015610165573d6000803e3d6000fd5b505050506040513d601f19601f820116820180604052508101906101899190610fda565b5050509150506101a8826305f5e100836105969092919063ffffffff16565b9150505b919050565b600080600080600080868060200190518101906101ce919061102a565b94509450945094509450600080600b0160009054906101000a90046001600160a01b03166001600160a01b03166338fff2d06040518163ffffffff1660e01b8152600401602060405180830381865afa15801561022f573d6000803e3d6000fd5b505050506040513d601f19601f820116820180604052508101906102539190610f91565b905061026a6001600160a01b038b168a30896105bd565b600a54600254610288916001600160a01b03908116911687876106c4565b6002546040516370a0823160e01b8152306004820152610311916001600160a01b0316906370a0823190602401602060405180830381865afa1580156102d2573d6000803e3d6000fd5b505050506040513d601f19601f820116820180604052508101906102f69190610f91565b60025460035486916001600160a01b03908116911686610910565b9a9950505050505050505050565b80516103366001600160a01b0385168430846105bd565b60208201516002546000916103599184919088906001600160a01b031630610910565b905061036481610a91565b1561049757600254604051632e1a7d4d60e01b8152600481018390526001600160a01b0390911690632e1a7d4d90602401600060405180830381600087803b1580156103af57600080fd5b505af11580156103c3573d6000803e3d6000fd5b50506011546012546040516321f8a72160e01b81526004810191909152600093506001600160a01b0390911691506321f8a72190602401602060405180830381865afa158015610417573d6000803e3d6000fd5b505050506040513d601f19601f8201168201806040525081019061043b9190611077565b9050806001600160a01b031663d0e30db0836040518263ffffffff1660e01b81526004016000604051808303818588803b15801561047857600080fd5b505af115801561048c573d6000803e3d6000fd5b50505050505061058f565b600b5460408051631c0de05160e01b815290516000926001600160a01b031691631c0de0519160048083019260609291908290030181865afa1580156104e1573d6000803e3d6000fd5b505050506040513d601f19601f8201168201806040525081019061050591906110a4565b5050600254600a546040516370a0823160e01b815230600482015292935061058d926001600160a01b03928316929091169082906370a0823190602401602060405180830381865afa15801561055f573d6000803e3d6000fd5b505050506040513d601f19601f820116820180604052508101906105839190610f91565b87604001516106c4565b505b5050505050565b60008260001904841183021582026105b65763ad251c276000526004601cfd5b5091020490565b604080516001600160a01b0385811660248301528481166044830152606480830185905283518084039091018152608490920183526020820180516001600160e01b03166323b872dd60e01b179052915160009283929088169161062191906110fd565b6000604051808303816000865af19150503d806000811461065e576040519150601f19603f3d011682016040523d82523d6000602084013e610663565b606091505b509150915081801561068d57508051158061068d57508080602001905181019061068d9190611119565b61058d5760405162461bcd60e51b815260206004820152600360248201526229aa2360e91b60448201526064015b60405180910390fd5b6040805160c08101808352600b5463038fff2d60e41b909152915160009282916001600160a01b03909116906338fff2d09060c4808501916020918187030181865afa158015610718573d6000803e3d6000fd5b505050506040513d601f19601f8201168201806040525081019061073c9190610f91565b8152602001600081526001600160a01b038088166020830152861660408201526060810185905260800160006040519080825280601f01601f191660200182016040528015610792576020820181803683370190505b50905260408051608081018252308082526000602083018190528284019190915260608201819052600954925163e969f6b360e01b8152939450909290916001600160a01b03169063e969f6b3906107f090869086906004016111ca565b6020604051808303816000875af115801561080f573d6000803e3d6000fd5b505050506040513d601f19601f820116820180604052508101906108339190610f91565b905060008185116108445781610846565b845b6008546080860151919250610868916001600160a01b038b8116921690610c20565b6008546040516352bbbe2960e01b81526000916001600160a01b0316906352bbbe299061089f90889088908790429060040161121c565b6020604051808303816000875af11580156108be573d6000803e3d6000fd5b505050506040513d601f19601f820116820180604052508101906108e29190610f91565b90508060000361090557604051635448e7e960e01b815260040160405180910390fd5b505050505050505050565b60055460009061092d906001600160a01b03868116911688610c20565b6000604051806101000160405280866001600160a01b03168152602001856001600160a01b031681526020016101f462ffffff168152602001846001600160a01b0316815260200142815260200188815260200161098b8887610d19565b815260006020918201526005546040805163414bf38960e01b815284516001600160a01b03908116600483015293850151841660248201529084015162ffffff1660448201526060840151831660648201526080840151608482015260a084015160a482015260c084015160c482015260e0840151831660e4820152929350169063414bf38990610104016020604051808303816000875af1158015610a35573d6000803e3d6000fd5b505050506040513d601f19601f82011682018060405250810190610a599190610f91565b915081600003610a8757604051634c5a56af60e11b81526001600160a01b03861660048201526024016106bb565b5095945050505050565b6013546040516335ee5f8760e01b81526020600482015260116024820152701c9bd8dad95d11195c1bdcda5d141bdbdb607a1b604482015260009182916001600160a01b03909116906335ee5f8790606401602060405180830381865afa158015610b00573d6000803e3d6000fd5b505050506040513d601f19601f82011682018060405250810190610b249190610f91565b90506000610b328483611296565b6011546014546040516321f8a72160e01b81529293506000926001600160a01b03909216916321f8a72191610b6d9160040190815260200190565b602060405180830381865afa158015610b8a573d6000803e3d6000fd5b505050506040513d601f19601f82011682018060405250810190610bae9190611077565b90506000816001600160a01b031663fd6ce89e6040518163ffffffff1660e01b8152600401602060405180830381865afa158015610bf0573d6000803e3d6000fd5b505050506040513d601f19601f82011682018060405250810190610c149190610f91565b90921095945050505050565b604080516001600160a01b038481166024830152604480830185905283518084039091018152606490920183526020820180516001600160e01b031663095ea7b360e01b1790529151600092839290871691610c7c91906110fd565b6000604051808303816000865af19150503d8060008114610cb9576040519150601f19603f3d011682016040523d82523d6000602084013e610cbe565b606091505b5091509150818015610ce8575080511580610ce8575080806020019051810190610ce89190611119565b61058f5760405162461bcd60e51b8152602060048201526002602482015261534160f01b60448201526064016106bb565b600080826001600160a01b031663313ce5676040518163ffffffff1660e01b8152600401602060405180830381865afa158015610d5a573d6000803e3d6000fd5b505050506040513d601f19601f82011682018060405250810190610d7e91906112a9565b60ff16905080601214610db057610d968160126112cc565b610da190600a6113c3565b610dab90856113cf565b610db2565b835b9150505b92915050565b600060208284031215610dce57600080fd5b813560028110610ddd57600080fd5b9392505050565b6001600160a01b0381168114610df957600080fd5b50565b634e487b7160e01b600052604160045260246000fd5b604051601f8201601f1916810167ffffffffffffffff81118282101715610e3b57610e3b610dfc565b604052919050565b600080600060608486031215610e5857600080fd5b8335610e6381610de4565b9250602084810135610e7481610de4565b9250604085013567ffffffffffffffff80821115610e9157600080fd5b818701915087601f830112610ea557600080fd5b813581811115610eb757610eb7610dfc565b610ec9601f8201601f19168501610e12565b91508082528884828501011115610edf57600080fd5b80848401858401376000848284010152508093505050509250925092565b600080600083850360a0811215610f1357600080fd5b8435610f1e81610de4565b93506020850135610f2e81610de4565b92506060603f1982011215610f4257600080fd5b506040516060810181811067ffffffffffffffff82111715610f6657610f66610dfc565b8060405250604085013581526060850135602082015260808501356040820152809150509250925092565b600060208284031215610fa357600080fd5b5051919050565b634e487b7160e01b600052602160045260246000fd5b805169ffffffffffffffffffff811681146101ac57600080fd5b600080600080600060a08688031215610ff257600080fd5b610ffb86610fc0565b945060208601519350604086015192506060860151915061101e60808701610fc0565b90509295509295909350565b600080600080600060a0868803121561104257600080fd5b85519450602086015193506040860151925060608601519150608086015161106981610de4565b809150509295509295909350565b60006020828403121561108957600080fd5b8151610ddd81610de4565b805180151581146101ac57600080fd5b6000806000606084860312156110b957600080fd5b6110c284611094565b925060208401519150604084015190509250925092565b60005b838110156110f45781810151838201526020016110dc565b50506000910152565b6000825161110f8184602087016110d9565b9190910192915050565b60006020828403121561112b57600080fd5b610ddd82611094565b80518252600060208201516002811061115d57634e487b7160e01b600052602160045260246000fd5b80602085015250604082015160018060a01b03808216604086015280606085015116606086015250506080820151608084015260a082015160c060a085015280518060c08601526111b58160e08701602085016110d9565b601f01601f19169390930160e0019392505050565b60a0815260006111dd60a0830185611134565b9050610ddd602083018480516001600160a01b039081168352602080830151151590840152604080830151909116908301526060908101511515910152565b60e08152600061122f60e0830187611134565b905061126e602083018680516001600160a01b039081168352602080830151151590840152604080830151909116908301526060908101511515910152565b60a082019390935260c0015292915050565b634e487b7160e01b600052601160045260246000fd5b80820180821115610db657610db6611280565b6000602082840312156112bb57600080fd5b815160ff81168114610ddd57600080fd5b81810381811115610db657610db6611280565b600181815b8085111561131a57816000190482111561130057611300611280565b8085161561130d57918102915b93841c93908002906112e4565b509250929050565b60008261133157506001610db6565b8161133e57506000610db6565b8160018114611354576002811461135e5761137a565b6001915050610db6565b60ff84111561136f5761136f611280565b50506001821b610db6565b5060208310610133831016604e8410600b841016171561139d575081810a610db6565b6113a783836112df565b80600019048211156113bb576113bb611280565b029392505050565b6000610ddd8383611322565b6000826113ec57634e487b7160e01b600052601260045260246000fd5b50049056fea264697066735822122011bad99e192435bee5b468cc37885f28bf88890d7b836005296b275bac47ea0e64736f6c63430008150033",
    "linkReferences": {}
  },
  "methodIdentifiers": {
    "totalUnderlying(uint8)": "a4fc284b",
    "useOzTokens(address,address,bytes)": "ae832db0",
    "useUnderlying(address,address,(uint256,uint256,uint256))": "b50f68fd"
  },
  "id": 7
}