{"abi":[{"type":"constructor","inputs":[{"name":"rEthAddr_","type":"address","internalType":"address"},{"name":"wethAddr_","type":"address","internalType":"address"},{"name":"rethWethPool_","type":"address","internalType":"address"}],"stateMutability":"nonpayable"},{"type":"function","name":"getPool","inputs":[{"name":"tokenA","type":"address","internalType":"address"},{"name":"tokenB","type":"address","internalType":"address"},{"name":"fee","type":"uint24","internalType":"uint24"}],"outputs":[{"name":"pool","type":"address","internalType":"address"}],"stateMutability":"view"}],"bytecode":{"object":"0x608060405234801561001057600080fd5b5060405161030a38038061030a83398101604081905261002f9161008d565b600080546001600160a01b039485166001600160a01b0319918216179091556001805493851693821693909317909255600280549190931691161790556100d0565b80516001600160a01b038116811461008857600080fd5b919050565b6000806000606084860312156100a257600080fd5b6100ab84610071565b92506100b960208501610071565b91506100c760408501610071565b90509250925092565b61022b806100df6000396000f3fe608060405234801561001057600080fd5b506004361061002b5760003560e01c80631698ee8214610030575b600080fd5b61004361003e366004610158565b61005f565b6040516001600160a01b03909116815260200160405180910390f35b6000610079604051806020016040528060008152506100d5565b6000546001600160a01b0385811691161480156100a357506001546001600160a01b038481169116145b80156100b3575062ffffff821615155b156100ca57506002546001600160a01b03166100ce565b5060015b9392505050565b610118816040516024016100e991906101a7565b60408051601f198184030181529190526020810180516001600160e01b031663104c13eb60e21b17905261011b565b50565b80516a636f6e736f6c652e6c6f67602083016000808483855afa5050505050565b80356001600160a01b038116811461015357600080fd5b919050565b60008060006060848603121561016d57600080fd5b6101768461013c565b92506101846020850161013c565b9150604084013562ffffff8116811461019c57600080fd5b809150509250925092565b600060208083528351808285015260005b818110156101d4578581018301518582016040015282016101b8565b506000604082860101526040601f19601f830116850101925050509291505056fea2646970667358221220ba2566b28726c0fb78d3bb9ddbcc0858155a6ff5bb9cdc6674460fc2cf5f228764736f6c63430008150033","linkReferences":{}},"methodIdentifiers":{"getPool(address,address,uint24)":"1698ee82"},"id":136}