{"abi":[{"type":"constructor","inputs":[{"name":"rEthAddr_","type":"address","internalType":"address"},{"name":"wethAddr_","type":"address","internalType":"address"},{"name":"rethWethPool_","type":"address","internalType":"address"}],"stateMutability":"nonpayable"},{"type":"function","name":"getPool","inputs":[{"name":"tokenA","type":"address","internalType":"address"},{"name":"tokenB","type":"address","internalType":"address"},{"name":"fee","type":"uint24","internalType":"uint24"}],"outputs":[{"name":"pool","type":"address","internalType":"address"}],"stateMutability":"view"}],"bytecode":{"object":"0x608060405234801561000f575f80fd5b5060405161022b38038061022b83398101604081905261002e9161008a565b5f80546001600160a01b039485166001600160a01b0319918216179091556001805493851693821693909317909255600280549190931691161790556100ca565b80516001600160a01b0381168114610085575f80fd5b919050565b5f805f6060848603121561009c575f80fd5b6100a58461006f565b92506100b36020850161006f565b91506100c16040850161006f565b90509250925092565b610154806100d75f395ff3fe608060405234801561000f575f80fd5b5060043610610029575f3560e01c80631698ee821461002d575b5f80fd5b61004061003b3660046100d3565b61005c565b6040516001600160a01b03909116815260200160405180910390f35b5f80546001600160a01b03858116911614801561008657506001546001600160a01b038481169116145b8015610096575062ffffff821615155b156100ad57506002546001600160a01b03166100b1565b5060015b9392505050565b80356001600160a01b03811681146100ce575f80fd5b919050565b5f805f606084860312156100e5575f80fd5b6100ee846100b8565b92506100fc602085016100b8565b9150604084013562ffffff81168114610113575f80fd5b80915050925092509256fea26469706673582212209c034fc0be90afdba9179967904cdf7947a238f01315636036e1e64db1cd4dbf64736f6c63430008180033","linkReferences":{}},"methodIdentifiers":{"getPool(address,address,uint24)":"1698ee82"},"id":131}