{"abi":[{"type":"function","name":"balanceOf","inputs":[{"name":"pool_","type":"string","internalType":"string"}],"outputs":[{"name":"","type":"uint256","internalType":"uint256"}],"stateMutability":"view"}],"bytecode":{"object":"0x608060405234801561001057600080fd5b50610234806100206000396000f3fe608060405234801561001057600080fd5b506004361061002b5760003560e01c806335ee5f8714610030575b600080fd5b61004361003e36600461011e565b610055565b60405190815260200160405180910390f35b6000805460ff166100aa576040805180820190915260118152701c9bd8dad95d11195c1bdcda5d141bdbdb607a1b60208201526100939083906100af565b61009e5760006100a1565b60015b60ff1692915050565b919050565b6000816040516020016100c291906101cf565b60405160208183030381529060405280519060200120836040516020016100e991906101cf565b6040516020818303038152906040528051906020012014905092915050565b634e487b7160e01b600052604160045260246000fd5b60006020828403121561013057600080fd5b813567ffffffffffffffff8082111561014857600080fd5b818401915084601f83011261015c57600080fd5b81358181111561016e5761016e610108565b604051601f8201601f19908116603f0116810190838211818310171561019657610196610108565b816040528281528760208487010111156101af57600080fd5b826020860160208301376000928101602001929092525095945050505050565b6000825160005b818110156101f057602081860181015185830152016101d6565b50600092019182525091905056fea2646970667358221220bd0fb4c9caefdbc6a98486e485d85eace2310c36890af86c4e78acd327a87a2164736f6c63430008150033","linkReferences":{}},"methodIdentifiers":{"balanceOf(string)":"35ee5f87"},"id":132}