{"abi":[{"type":"constructor","inputs":[{"name":"ozToken_","type":"address","internalType":"contract ozIToken"}],"stateMutability":"nonpayable"},{"type":"function","name":"balanceOf","inputs":[{"name":"pool_","type":"string","internalType":"string"}],"outputs":[],"stateMutability":"nonpayable"}],"bytecode":{"object":"0x60a06040525f80546001600160a01b03191661dead179055348015610022575f80fd5b506040516103d53803806103d583398101604081905261004191610052565b6001600160a01b031660805261007f565b5f60208284031215610062575f80fd5b81516001600160a01b0381168114610078575f80fd5b9392505050565b60805161033961009c5f395f81816085015260c201526103395ff3fe608060405234801561000f575f80fd5b5060043610610029575f3560e01c806335ee5f871461002d575b5f80fd5b61004061003b3660046101bc565b610042565b005b5f8160405160200161005491906102aa565b60408051601f198184030181528282019091526009825268037bd22a92199181d160bd1b602083015291506100a9907f000000000000000000000000000000000000000000000000000000000000000061013f565b5f54604051630cae37f160e01b81526001600160a01b037f0000000000000000000000000000000000000000000000000000000000000000811692630cae37f1926100fa92869216906004016102c3565b6020604051808303815f875af1158015610116573d5f803e3d5ffd5b505050506040513d601f19601f8201168201806040525081019061013a91906102ec565b505050565b61018482826040516024016101559291906102c3565b60408051601f198184030181529190526020810180516001600160e01b031663319af33360e01b179052610188565b5050565b80516a636f6e736f6c652e6c6f67602083015f808483855afa5050505050565b634e487b7160e01b5f52604160045260245ffd5b5f602082840312156101cc575f80fd5b813567ffffffffffffffff808211156101e3575f80fd5b818401915084601f8301126101f6575f80fd5b813581811115610208576102086101a8565b604051601f8201601f19908116603f01168101908382118183101715610230576102306101a8565b81604052828152876020848701011115610248575f80fd5b826020860160208301375f928101602001929092525095945050505050565b5f81518084525f5b8181101561028b5760208185018101518683018201520161026f565b505f602082860101526020601f19601f83011685010191505092915050565b602081525f6102bc6020830184610267565b9392505050565b604081525f6102d56040830185610267565b905060018060a01b03831660208301529392505050565b5f602082840312156102fc575f80fd5b505191905056fea26469706673582212200dcf74c3d43390659031d07c0458e6f16a69b3713226bcb355d06ae329d66c3c64736f6c63430008180033","linkReferences":{}},"methodIdentifiers":{"balanceOf(string)":"35ee5f87"},"id":129}