{
  "abi": [
    {
      "inputs": [
        {
          "internalType": "address",
          "name": "underlying_",
          "type": "address"
        },
        {
          "internalType": "address",
          "name": "user_",
          "type": "address"
        },
        {
          "internalType": "uint256",
          "name": "minWethOut_",
          "type": "uint256"
        },
        {
          "internalType": "uint256",
          "name": "minRethOutOffchain_",
          "type": "uint256"
        },
        {
          "internalType": "uint256",
          "name": "minBptOutOffchain_",
          "type": "uint256"
        }
      ],
      "name": "useUnderlying",
      "outputs": [],
      "stateMutability": "nonpayable",
      "type": "function"
    }
  ],
  "bytecode": {
    "object": "0x608060405234801561001057600080fd5b50611326806100206000396000f3fe608060405234801561001057600080fd5b506004361061002b5760003560e01c80639c5f4dcc14610030575b600080fd5b61004361003e366004610dce565b610045565b005b6040516370a0823160e01b81523060048201526000906001600160a01b038716906370a0823190602401602060405180830381865afa15801561008c573d6000803e3d6000fd5b505050506040513d601f19601f820116820180604052508101906100b09190610e1b565b6003549091506100cd906001600160a01b03888116911683610aa6565b60408051610100810182526001600160a01b0388811682526002548116602083019081526101f48385019081523060608501908152426080860190815260a0860188815260c087018c8152600060e08901908152600354995163414bf38960e01b8152895189166004820152965188166024880152945162ffffff166044870152925186166064860152905160848501525160a48401525160c483015251821660e48201529192169063414bf38990610104016020604051808303816000875af115801561019f573d6000803e3d6000fd5b505050506040513d601f19601f820116820180604052508101906101c39190610e1b565b5060095460408051631c0de05160e01b815290516000926001600160a01b031691631c0de0519160048083019260609291908290030181865afa15801561020e573d6000803e3d6000fd5b505050506040513d601f19601f820116820180604052508101906102329190610e44565b50506002546008546040516370a0823160e01b815230600482015292935060009261032b9284926001600160a01b039182169291169082906370a0823190602401602060405180830381865afa158015610290573d6000803e3d6000fd5b505050506040513d601f19601f820116820180604052508101906102b49190610e1b565b6009546040805163038fff2d60e41b815290516001600160a01b03909216916338fff2d0916004808201926020929091908290030181865afa1580156102fe573d6000803e3d6000fd5b505050506040513d601f19601f820116820180604052508101906103229190610e1b565b93929190610baa565b6040805160808082018352600080835260208084018290528385018290526060938401829052845192830185523080845290830182905282850152918101829052600754925163e969f6b360e01b81529394509290916001600160a01b03169063e969f6b3906103a19086908690600401610f4e565b6020604051808303816000875af11580156103c0573d6000803e3d6000fd5b505050506040513d601f19601f820116820180604052508101906103e49190610e1b565b905060008189116103f557816103f7565b885b600654608086015160025492935061041c926001600160a01b03908116921690610aa6565b6006546040516352bbbe2960e01b81526001600160a01b03909116906352bbbe2990610452908790879086904290600401610fa0565b6020604051808303816000875af1158015610471573d6000803e3d6000fd5b505050506040513d601f19601f820116820180604052508101906104959190610e1b565b506006546008546040516370a0823160e01b815230600482015261051e926001600160a01b039081169216906370a0823190602401602060405180830381865afa1580156104e7573d6000803e3d6000fd5b505050506040513d601f19601f8201168201806040525081019061050b9190610e1b565b6008546001600160a01b03169190610aa6565b6040805160038082526080820190925260009160208201606080368337505060025482519293506001600160a01b0316918391506000906105615761056161101a565b6001600160a01b0392831660209182029290920101526009548251911690829060019081106105925761059261101a565b6001600160a01b0392831660209182029290920101526008548251911690829060029081106105c3576105c361101a565b6001600160a01b03929092166020928302919091018201526040805160038082526080820190925260009290919082016060803683370190505090506000816000815181106106145761061461101a565b6020026020010181815250506000816001815181106106355761063561101a565b60209081029190910101526008546040516370a0823160e01b81523060048201526001600160a01b03909116906370a0823190602401602060405180830381865afa158015610688573d6000803e3d6000fd5b505050506040513d601f19601f820116820180604052508101906106ac9190610e1b565b816002815181106106bf576106bf61101a565b6020908102919091010152604080516002808252606082019092526000918160200160208202803683370190505090506000816000815181106107045761070461101a565b60209081029190910101526008546040516370a0823160e01b81523060048201526001600160a01b03909116906370a0823190602401602060405180830381865afa158015610757573d6000803e3d6000fd5b505050506040513d601f19601f8201168201806040525081019061077b9190610e1b565b8160018151811061078e5761078e61101a565b602002602001018181525050600060018260006040516020016107b39392919061107f565b60408051601f198184030181526080830182528683526020838101879052838301829052600060608501819052600754600954855163038fff2d60e41b8152955194975091946001600160a01b0391821694639ebbf05d9493909216926338fff2d0926004808401938290030181865afa158015610835573d6000803e3d6000fd5b505050506040513d601f19601f820116820180604052508101906108599190610e1b565b3030866040518563ffffffff1660e01b815260040161087b94939291906110b2565b6000604051808303816000875af115801561089a573d6000803e3d6000fd5b505050506040513d6000823e601f3d908101601f191682016040526108c2919081019061117c565b50905060006108dd8f83116108d7578f610c75565b82610c75565b9050600185826040516020016108f593929190611246565b60408051601f1981840301815260808301825289835260208381018a905283830182905260006060850152600654600954845163038fff2d60e41b815294519399509497506001600160a01b039081169463b95cac28949116926338fff2d0926004808401939192918290030181865afa158015610977573d6000803e3d6000fd5b505050506040513d601f19601f8201168201806040525081019061099b9190610e1b565b3030876040518563ffffffff1660e01b81526004016109bd94939291906110b2565b600060405180830381600087803b1580156109d757600080fd5b505af11580156109eb573d6000803e3d6000fd5b50506009546040516370a0823160e01b8152306004820152600093506001600160a01b0390911691506370a0823190602401602060405180830381865afa158015610a3a573d6000803e3d6000fd5b505050506040513d601f19601f82011682018060405250810190610a5e9190610e1b565b9050610a906040518060400160405280600e81526020016d03130b61021282a103837b9ba1d160951b81525082610c99565b5050505050505050505050505050505050505050565b604080516001600160a01b038481166024830152604480830185905283518084039091018152606490920183526020820180516001600160e01b031663095ea7b360e01b1790529151600092839290871691610b029190611276565b6000604051808303816000865af19150503d8060008114610b3f576040519150601f19603f3d011682016040523d82523d6000602084013e610b44565b606091505b5091509150818015610b6e575080511580610b6e575080806020019051810190610b6e9190611292565b610ba35760405162461bcd60e51b8152602060048201526002602482015261534160f01b604482015260640160405180910390fd5b5050505050565b610bf66040805160c0810190915260008082526020820190815260200160006001600160a01b0316815260200160006001600160a01b0316815260200160008152602001606081525090565b6040518060c00160405280878152602001866001811115610c1957610c19610e79565b81526001600160a01b038087166020830152851660408201526060810184905260800160006040519080825280601f01601f191660200182016040528015610c68576020820181803683370190505b5090529695505050505050565b600554600090610c89908390612710610ce2565b610c9390836112ad565b92915050565b610cde8282604051602401610caf9291906112ce565b60408051601f198184030181529190526020810180516001600160e01b03166309710a9d60e41b179052610d91565b5050565b60008383026000198486098181108201900380610d175783610d0c5763ae47f7026000526004601cfd5b508290049050610d8a565b808411610d2c5763ae47f7026000526004601cfd5b8385870960008581038616958690049582850381900494909211909203600192829003919091049190910102176002600384028118808502820302808502820302808502820302808502820302808502820302808502909103020290505b9392505050565b80516a636f6e736f6c652e6c6f67602083016000808483855afa5050505050565b80356001600160a01b0381168114610dc957600080fd5b919050565b600080600080600060a08688031215610de657600080fd5b610def86610db2565b9450610dfd60208701610db2565b94979496505050506040830135926060810135926080909101359150565b600060208284031215610e2d57600080fd5b5051919050565b80518015158114610dc957600080fd5b600080600060608486031215610e5957600080fd5b610e6284610e34565b925060208401519150604084015190509250925092565b634e487b7160e01b600052602160045260246000fd5b60005b83811015610eaa578181015183820152602001610e92565b50506000910152565b60008151808452610ecb816020860160208601610e8f565b601f01601f19169290920160200192915050565b805182526000602082015160028110610efa57610efa610e79565b80602085015250604082015160018060a01b03808216604086015280606085015116606086015250506080820151608084015260a082015160c060a0850152610f4660c0850182610eb3565b949350505050565b60a081526000610f6160a0830185610edf565b9050610d8a602083018480516001600160a01b039081168352602080830151151590840152604080830151909116908301526060908101511515910152565b60e081526000610fb360e0830187610edf565b9050610ff2602083018680516001600160a01b039081168352602080830151151590840152604080830151909116908301526060908101511515910152565b60a082019390935260c0015292915050565b634e487b7160e01b600052604160045260246000fd5b634e487b7160e01b600052603260045260246000fd5b6004811061104057611040610e79565b9052565b600081518084526020808501945080840160005b8381101561107457815187529582019590820190600101611058565b509495945050505050565b6110898185611030565b60606020820152600061109f6060830185611044565b905060ff83166040830152949350505050565b8481526000602060018060a01b038087168285015280861660408501526080606085015261010084018551608080870152818151808452610120880191508583019350600092505b8083101561111c578351851682529285019260019290920191908501906110fa565b50848801519450607f199350838782030160a088015261113c8186611044565b94505050506040850151818584030160c086015261115a8382610eb3565b92505050606084015161117160e085018215159052565b509695505050505050565b6000806040838503121561118f57600080fd5b8251915060208084015167ffffffffffffffff808211156111af57600080fd5b818601915086601f8301126111c357600080fd5b8151818111156111d5576111d5611004565b8060051b604051601f19603f830116810181811085821117156111fa576111fa611004565b60405291825284820192508381018501918983111561121857600080fd5b938501935b828510156112365784518452938501939285019261121d565b8096505050505050509250929050565b6112508185611030565b6060602082015260006112666060830185611044565b9050826040830152949350505050565b60008251611288818460208701610e8f565b9190910192915050565b6000602082840312156112a457600080fd5b610d8a82610e34565b81810381811115610c9357634e487b7160e01b600052601160045260246000fd5b6040815260006112e16040830185610eb3565b9050826020830152939250505056fea26469706673582212205ebf209075e3fc31551fd748e1fc1e4ddabff474188638eaf507e52a276ed09764736f6c63430008150033",
    "linkReferences": {}
  },
  "methodIdentifiers": {
    "useUnderlying(address,address,uint256,uint256,uint256)": "9c5f4dcc"
  },
  "id": 7
}