{
  "abi": [
    {
      "inputs": [
        {
          "internalType": "address",
          "name": "underlying_",
          "type": "address"
        },
        {
          "internalType": "address",
          "name": "user_",
          "type": "address"
        },
        {
          "components": [
            {
              "internalType": "uint256",
              "name": "amountIn",
              "type": "uint256"
            },
            {
              "internalType": "uint256",
              "name": "minWethOut",
              "type": "uint256"
            },
            {
              "internalType": "uint256",
              "name": "minRethOut",
              "type": "uint256"
            },
            {
              "internalType": "uint256",
              "name": "minBptOut",
              "type": "uint256"
            }
          ],
          "internalType": "struct TradeAmounts",
          "name": "amounts_",
          "type": "tuple"
        }
      ],
      "name": "useUnderlying",
      "outputs": [],
      "stateMutability": "nonpayable",
      "type": "function"
    }
  ],
  "bytecode": {
    "object": "0x6080806040523461001657610ec0908161001c8239f35b600080fdfe608080604052600436101561001357600080fd5b600090813560e01c63587960191461002a57600080fd5b346109515760c0366003190112610951576004356001600160a01b03811690818103610916576024356001600160a01b038116919082900361099c57608036604319011261099c5761007b84610adc565b60443591828552606435948560208201526084356040820152606060a435910152604051906323b872dd60e01b8252600482015230602482015282604482015260208160648189885af19081156108c9578391610a98575b506003546100ec926001600160a01b0390911690610d7e565b6002546040516001600160a01b0390911692610100820182811067ffffffffffffffff8211176108d457604090815290825260208083019485526101f48284019081523060608501908152426080860190815260a0860196875260c0860198895260e086018a8152600354955163414bf38960e01b815296516001600160a01b039081166004890152985189166024880152925162ffffff166044870152905187166064860152516084850152935160a4840152945160c48301529151831660e4820152929183916101049183918791165af1801561079957610a6a575b50600954604051631c0de05160e01b81526001600160a01b0390911690606081600481855afa801561095c57610a2b575b5060206004916040519283809263038fff2d60e41b82525afa9081156107995782916109f9575b506002546008546040516370a0823160e01b81523060048201526001600160a01b039283169290911690602081602481865afa9081156109a85785916109c7575b506040519182602081011067ffffffffffffffff6020850111176109b35760208301604052858352604051938460c081011067ffffffffffffffff60c0870111176108d45760c0850160405285855286602086015260408501526060840152608083015260a08201526040516102d881610adc565b30815283602082015230604082015283606082015260018060a01b03600754166020604051809263e969f6b360e01b825260a0600483015281888161032060a482018a610b67565b88516001600160a01b03908116602484015260208a01511515604484015260408a015116606483015260608901511515608483015203925af19081156109a8578591610971575b5060209161041291868160843511600014610967576103da9150608435955b60025460065460808301516103a99290916001600160a01b039081169116610d7e565b60018060a01b036006541693604051978896879586946352bbbe2960e01b865260e0600487015260e4860190610b67565b83516001600160a01b039081166024870152602085015115156044870152604085015116606486015260609093015115156084850152565b60a48301524260c483015203925af1801561095c5761092d575b506008546040516370a0823160e01b8152306004820152906001600160a01b0316602082602481845afa9182156109225784926108e8575b5060065461047d9183916001600160a01b031690610d7e565b6040519061048a82610adc565b6003825260603660208401376002546001600160a01b03166104ab83610bda565b526009546001600160a01b03166104c183610bfd565b526008546001600160a01b03166104d783610c0d565b52604051906104e582610adc565b600382526060366020840137846104fb83610bda565b528461050683610bfd565b528061051183610c0d565b52604051906060820182811067ffffffffffffffff8211176108d4576040526002825260403660208401378561054683610bda565b5261055082610bfd565b52848061059b61056c61056560a43586610cfe565b8688610d38565b600754604051639ebbf05d60e01b81529485936001600160a01b03909216928492839130808e60048601610c51565b03925af19081156108c957869161080b575b5060a43581111561080157905b6005548281029060001981850990828210830180830392146107f55761271090828211156107e857907fbc01a36e2eb1c432ca57a786c226809d495182a9930be0ded288ce703afb7e91939291860990828211900360fc1b910360041c17025b82039182116107d4579161063386949261063994610cfe565b91610d38565b6006546001600160a01b0316803b156107d057610671938360405180968195829463172b958560e31b84523090309060048601610c51565b03925af18015610799576107a4575b506009546040516370a0823160e01b815230600482015290602090829060249082906001600160a01b03165afa908115610799578291610762575b50604051604081019080821067ffffffffffffffff83111761074c5783928392604052600e82526d03130b61021282a103837b9ba1d160951b6020830152610738604051809261072460208301956309710a9d60e41b8752604060248501526064840190610b27565b90604483015203601f198101835282610af8565b51906a636f6e736f6c652e6c6f675afa5080f35b634e487b7160e01b600052604160045260246000fd5b90506020813d602011610791575b8161077d60209383610af8565b8101031261078c5751386106bb565b600080fd5b3d9150610770565b6040513d84823e3d90fd5b67ffffffffffffffff81116107bc5760405238610680565b634e487b7160e01b82526041600452602482fd5b8280fd5b634e487b7160e01b86526011600452602486fd5b63ae47f7028a526004601cfd5b5050612710900461061a565b5060a435906105ba565b90503d8087833e61081c8183610af8565b81016040828203126108c55781519160208101519067ffffffffffffffff82116108a9570181601f820112156108c15780519067ffffffffffffffff82116108ad576020808360051b936040519061087683870183610af8565b815201928201019283116108a957602001905b82821061089957505050386105ad565b8151815260209182019101610889565b8880fd5b634e487b7160e01b89526041600452602489fd5b8780fd5b8680fd5b6040513d88823e3d90fd5b634e487b7160e01b87526041600452602487fd5b9091506020813d60201161091a575b8161090460209383610af8565b8101031261091657519061047d610464565b8380fd5b3d91506108f7565b6040513d86823e3d90fd5b602090813d8311610955575b6109438183610af8565b81010312610951573861042c565b5080fd5b503d610939565b6040513d85823e3d90fd5b6103da9195610386565b90506020813d6020116109a0575b8161098c60209383610af8565b8101031261099c57516020610367565b8480fd5b3d915061097f565b6040513d87823e3d90fd5b634e487b7160e01b86526041600452602486fd5b90506020813d6020116109f1575b816109e260209383610af8565b8101031261099c575138610263565b3d91506109d5565b90506020813d602011610a23575b81610a1460209383610af8565b81010312610951575138610222565b3d9150610a07565b6060813d606011610a62575b81610a4460609383610af8565b810103126107d057600491610a5a602092610b1a565b5091506101fb565b3d9150610a37565b602090813d8311610a91575b610a808183610af8565b81010312610a8e57386101ca565b80fd5b503d610a76565b90506020813d602011610ad4575b81610ab360209383610af8565b81010312610ad0576100ec91610ac98492610b1a565b50916100d3565b8580fd5b3d9150610aa6565b6080810190811067ffffffffffffffff82111761074c57604052565b90601f8019910116810190811067ffffffffffffffff82111761074c57604052565b5190811515820361078c57565b919082519283825260005b848110610b53575050826000602080949584010152601f8019910116010190565b602081830181015184830182015201610b32565b90815181526020820151916002831015610bc45760a060c091610bc19460208501526040810151600180841b0380911660408601526060820151166060850152608081015160808501520151918160a08201520190610b27565b90565b634e487b7160e01b600052602160045260246000fd5b805115610be75760200190565b634e487b7160e01b600052603260045260246000fd5b805160011015610be75760400190565b805160021015610be75760600190565b90815180825260208080930193019160005b828110610c3d575050505090565b835185529381019392810192600101610c2f565b929190835260209060018060a01b039283809216838601521660408401526080606084015261010083019184519260808086015283518091528261012086019401916000905b828210610ce55750505050610cda60e092610cc560609387015191607f1992838883030160a0890152610c1d565b906040870151908683030160c0870152610b27565b930151151591015290565b8351811686529484019492840192600190910190610c97565b610bc190610d249260405193849260016020850152606060408501526080840190610c1d565b90606083015203601f198101835282610af8565b919060006060604051610d4a81610adc565b818152816020820152816040820152015260405192610d6884610adc565b8352602083015260408201526000606082015290565b906040516020938482019263095ea7b360e01b845260018060a01b03166024830152604482015260448152610db281610adc565b600092839283809351925af1903d15610e82573d9067ffffffffffffffff8211610e6e5760405191610ded601f8201601f1916860184610af8565b82523d818584013e5b82610e2f575b505015610e065750565b6064906040519062461bcd60e51b825260048201526002602482015261534160f01b6044820152fd5b908092505190838215928315610e4c575b50505090503880610dfc565b848092939450010312610a8e575081610e659101610b1a565b80388381610e40565b634e487b7160e01b81526041600452602490fd5b606090610df656fea2646970667358221220f51eac46f65ff5eb5a455290f3c6c1ce7ff30fdfc0c5e62a22dd35d46a552f1c64736f6c63430008150033",
    "linkReferences": {}
  },
  "methodIdentifiers": {
    "useUnderlying(address,address,(uint256,uint256,uint256,uint256))": "58796019"
  },
  "id": 7
}