{
  "abi": [
    {
      "inputs": [
        {
          "internalType": "address",
          "name": "underlying_",
          "type": "address"
        },
        {
          "internalType": "address",
          "name": "user_",
          "type": "address"
        },
        {
          "internalType": "uint256",
          "name": "minWethOut_",
          "type": "uint256"
        },
        {
          "internalType": "uint256",
          "name": "minRethOutOffchain_",
          "type": "uint256"
        }
      ],
      "name": "useUnderlying",
      "outputs": [],
      "stateMutability": "nonpayable",
      "type": "function"
    }
  ],
  "bytecode": {
    "object": "0x608060405234801561001057600080fd5b50610fc8806100206000396000f3fe608060405234801561001057600080fd5b506004361061002b5760003560e01c806357e725a214610030575b600080fd5b61004361003e366004610bb3565b610045565b005b6040516370a0823160e01b81523060048201526000906001600160a01b038616906370a0823190602401602060405180830381865afa15801561008c573d6000803e3d6000fd5b505050506040513d601f19601f820116820180604052508101906100b09190610bf5565b6003549091506100cd906001600160a01b0387811691168361095e565b60408051610100810182526001600160a01b0387811682526002548116602083019081526101f48385019081523060608501908152426080860190815260a0860188815260c087018b8152600060e08901908152600354995163414bf38960e01b8152895189166004820152965188166024880152945162ffffff166044870152925186166064860152905160848501525160a48401525160c483015251821660e48201529192169063414bf38990610104016020604051808303816000875af115801561019f573d6000803e3d6000fd5b505050506040513d601f19601f820116820180604052508101906101c39190610bf5565b5060095460408051631c0de05160e01b815290516000926001600160a01b031691631c0de0519160048083019260609291908290030181865afa15801561020e573d6000803e3d6000fd5b505050506040513d601f19601f820116820180604052508101906102329190610c1e565b50506002546008546040516370a0823160e01b815230600482015292935060009261032b9284926001600160a01b039182169291169082906370a0823190602401602060405180830381865afa158015610290573d6000803e3d6000fd5b505050506040513d601f19601f820116820180604052508101906102b49190610bf5565b6009546040805163038fff2d60e41b815290516001600160a01b03909216916338fff2d0916004808201926020929091908290030181865afa1580156102fe573d6000803e3d6000fd5b505050506040513d601f19601f820116820180604052508101906103229190610bf5565b93929190610a62565b6040805160808082018352600080835260208084018290528385018290526060938401829052845192830185523080845290830182905282850152918101829052600754925163e969f6b360e01b81529394509290916001600160a01b03169063e969f6b3906103a19086908690600401610d28565b6020604051808303816000875af11580156103c0573d6000803e3d6000fd5b505050506040513d601f19601f820116820180604052508101906103e49190610bf5565b905060008188116103f557816103f7565b875b600654608086015160025492935061041c926001600160a01b0390811692169061095e565b6006546040516352bbbe2960e01b81526001600160a01b03909116906352bbbe2990610452908790879086904290600401610d81565b6020604051808303816000875af1158015610471573d6000803e3d6000fd5b505050506040513d601f19601f820116820180604052508101906104959190610bf5565b506006546008546040516370a0823160e01b815230600482015261051e926001600160a01b039081169216906370a0823190602401602060405180830381865afa1580156104e7573d6000803e3d6000fd5b505050506040513d601f19601f8201168201806040525081019061050b9190610bf5565b6008546001600160a01b0316919061095e565b6040805160038082526080820190925260009160208201606080368337505060025482519293506001600160a01b03169183915060009061056157610561610de5565b6001600160a01b03928316602091820292909201015260095482519116908290600190811061059257610592610de5565b6001600160a01b0392831660209182029290920101526008548251911690829060029081106105c3576105c3610de5565b6001600160a01b039290921660209283029190910182015260408051600380825260808201909252600092909190820160608036833701905050905060008160008151811061061457610614610de5565b60200260200101818152505060008160018151811061063557610635610de5565b60209081029190910101526008546040516370a0823160e01b81523060048201526001600160a01b03909116906370a0823190602401602060405180830381865afa158015610688573d6000803e3d6000fd5b505050506040513d601f19601f820116820180604052508101906106ac9190610bf5565b816002815181106106bf576106bf610de5565b60209081029190910101526040805160028082526060820190925260009181602001602082028036833701905050905060008160008151811061070457610704610de5565b60209081029190910101526008546040516370a0823160e01b81523060048201526001600160a01b03909116906370a0823190602401602060405180830381865afa158015610757573d6000803e3d6000fd5b505050506040513d601f19601f8201168201806040525081019061077b9190610bf5565b8160018151811061078e5761078e610de5565b602002602001018181525050600080600183836040516020016107b393929190610e36565b60408051808303601f19018152608083018252878352602080840188905283830182905260006060850152600654600954845163038fff2d60e41b815294519396506001600160a01b039182169463b95cac289492909116926338fff2d0926004808401938290030181865afa158015610831573d6000803e3d6000fd5b505050506040513d601f19601f820116820180604052508101906108559190610bf5565b3030856040518563ffffffff1660e01b81526004016108779493929190610e6f565b600060405180830381600087803b15801561089157600080fd5b505af11580156108a5573d6000803e3d6000fd5b50506009546040516370a0823160e01b8152306004820152600093506001600160a01b0390911691506370a0823190602401602060405180830381865afa1580156108f4573d6000803e3d6000fd5b505050506040513d601f19601f820116820180604052508101906109189190610bf5565b905061094a6040518060400160405280600e81526020016d03130b61021282a103837b9ba1d160951b81525082610b2d565b505050505050505050505050505050505050565b604080516001600160a01b038481166024830152604480830185905283518084039091018152606490920183526020820180516001600160e01b031663095ea7b360e01b17905291516000928392908716916109ba9190610f39565b6000604051808303816000865af19150503d80600081146109f7576040519150601f19603f3d011682016040523d82523d6000602084013e6109fc565b606091505b5091509150818015610a26575080511580610a26575080806020019051810190610a269190610f55565b610a5b5760405162461bcd60e51b8152602060048201526002602482015261534160f01b604482015260640160405180910390fd5b5050505050565b610aae6040805160c0810190915260008082526020820190815260200160006001600160a01b0316815260200160006001600160a01b0316815260200160008152602001606081525090565b6040518060c00160405280878152602001866001811115610ad157610ad1610c53565b81526001600160a01b038087166020830152851660408201526060810184905260800160006040519080825280601f01601f191660200182016040528015610b20576020820181803683370190505b5090529695505050505050565b610b728282604051602401610b43929190610f70565b60408051601f198184030181529190526020810180516001600160e01b03166309710a9d60e41b179052610b76565b5050565b80516a636f6e736f6c652e6c6f67602083016000808483855afa5050505050565b80356001600160a01b0381168114610bae57600080fd5b919050565b60008060008060808587031215610bc957600080fd5b610bd285610b97565b9350610be060208601610b97565b93969395505050506040820135916060013590565b600060208284031215610c0757600080fd5b5051919050565b80518015158114610bae57600080fd5b600080600060608486031215610c3357600080fd5b610c3c84610c0e565b925060208401519150604084015190509250925092565b634e487b7160e01b600052602160045260246000fd5b60005b83811015610c84578181015183820152602001610c6c565b50506000910152565b60008151808452610ca5816020860160208601610c69565b601f01601f19169290920160200192915050565b805182526000602082015160028110610cd457610cd4610c53565b80602085015250604082015160018060a01b03808216604086015280606085015116606086015250506080820151608084015260a082015160c060a0850152610d2060c0850182610c8d565b949350505050565b60a081526000610d3b60a0830185610cb9565b9050610d7a602083018480516001600160a01b039081168352602080830151151590840152604080830151909116908301526060908101511515910152565b9392505050565b60e081526000610d9460e0830187610cb9565b9050610dd3602083018680516001600160a01b039081168352602080830151151590840152604080830151909116908301526060908101511515910152565b60a082019390935260c0015292915050565b634e487b7160e01b600052603260045260246000fd5b600081518084526020808501945080840160005b83811015610e2b57815187529582019590820190600101610e0f565b509495945050505050565b600060048510610e4857610e48610c53565b84825260606020830152610e5f6060830185610dfb565b9050826040830152949350505050565b8481526000602060018060a01b038087168285015280861660408501526080606085015261010084018551608080870152818151808452610120880191508583019350600092505b80831015610ed957835185168252928501926001929092019190850190610eb7565b50848801519450607f199350838782030160a0880152610ef98186610dfb565b94505050506040850151818584030160c0860152610f178382610c8d565b925050506060840151610f2e60e085018215159052565b509695505050505050565b60008251610f4b818460208701610c69565b9190910192915050565b600060208284031215610f6757600080fd5b610d7a82610c0e565b604081526000610f836040830185610c8d565b9050826020830152939250505056fea26469706673582212205f5f5f6880f1dd405292abd716c2d8a0e64496adb1c4a5ac4c73c97239ebd2c364736f6c63430008150033",
    "linkReferences": {}
  },
  "methodIdentifiers": {
    "useUnderlying(address,address,uint256,uint256)": "57e725a2"
  },
  "id": 7
}