{
  "abi": [
    {
      "inputs": [
        {
          "internalType": "address",
          "name": "token",
          "type": "address"
        }
      ],
      "name": "TokenInNotValid",
      "type": "error"
    },
    {
      "inputs": [],
      "name": "totalUnderlying",
      "outputs": [
        {
          "internalType": "uint256",
          "name": "",
          "type": "uint256"
        }
      ],
      "stateMutability": "view",
      "type": "function"
    },
    {
      "inputs": [
        {
          "components": [
            {
              "internalType": "uint256",
              "name": "ozAmountIn",
              "type": "uint256"
            },
            {
              "internalType": "uint256",
              "name": "minWethOut",
              "type": "uint256"
            },
            {
              "internalType": "uint256",
              "name": "bptAmountIn",
              "type": "uint256"
            }
          ],
          "internalType": "struct TradeAmountsOut",
          "name": "amts_",
          "type": "tuple"
        },
        {
          "internalType": "address",
          "name": "ozToken_",
          "type": "address"
        },
        {
          "internalType": "address",
          "name": "owner_",
          "type": "address"
        },
        {
          "internalType": "address",
          "name": "receiver_",
          "type": "address"
        }
      ],
      "name": "useOzTokens",
      "outputs": [],
      "stateMutability": "nonpayable",
      "type": "function"
    },
    {
      "inputs": [
        {
          "internalType": "address",
          "name": "underlying_",
          "type": "address"
        },
        {
          "internalType": "address",
          "name": "user_",
          "type": "address"
        },
        {
          "components": [
            {
              "internalType": "uint256",
              "name": "amountIn",
              "type": "uint256"
            },
            {
              "internalType": "uint256",
              "name": "minWethOut",
              "type": "uint256"
            },
            {
              "internalType": "uint256",
              "name": "minRethOut",
              "type": "uint256"
            },
            {
              "internalType": "uint256",
              "name": "minBptOut",
              "type": "uint256"
            }
          ],
          "internalType": "struct TradeAmounts",
          "name": "amounts_",
          "type": "tuple"
        }
      ],
      "name": "useUnderlying",
      "outputs": [],
      "stateMutability": "nonpayable",
      "type": "function"
    }
  ],
  "bytecode": {
    "object": "0x608060405234801561001057600080fd5b50611613806100206000396000f3fe608060405234801561001057600080fd5b50600436106100415760003560e01c80635879601914610046578063799efb861461005b578063c70920bc1461006e575b600080fd5b610059610054366004610fef565b610088565b005b610059610069366004611089565b6101bb565b6100766102f0565b60405190815260200160405180910390f35b6009546040805163038fff2d60e41b815290516000926001600160a01b0316916338fff2d09160048083019260209291908290030181865afa1580156100d2573d6000803e3d6000fd5b505050506040513d601f19601f820116820180604052508101906100f69190611122565b8251909150610113906001600160a01b0386169085903090610362565b6101268260000151836020015186610471565b60095460408051631c0de05160e01b815290516000926001600160a01b031691631c0de0519160048083019260609291908290030181865afa158015610170573d6000803e3d6000fd5b505050506040513d601f19601f82011682018060405250810190610194919061114b565b505090506101a68284604001516105b2565b6101b48360600151836107b6565b5050505050565b6009546040805163038fff2d60e41b815290516000926001600160a01b0316916338fff2d09160048083019260209291908290030181865afa158015610205573d6000803e3d6000fd5b505050506040513d601f19601f820116820180604052508101906102299190611122565b8551909150610246906001600160a01b0386169085903090610362565b604080518082018252600f81526e01037bd2130b6101515151515151d1608d1b602082015290516370a0823160e01b81523060048201526102dc91906001600160a01b038716906370a0823190602401602060405180830381865afa1580156102b3573d6000803e3d6000fd5b505050506040513d601f19601f820116820180604052508101906102d79190611122565b610a0c565b6101b4856020015186604001518385610a55565b6009546040516370a0823160e01b81523060048201526000916001600160a01b0316906370a0823190602401602060405180830381865afa158015610339573d6000803e3d6000fd5b505050506040513d601f19601f8201168201806040525081019061035d9190611122565b905090565b604080516001600160a01b0385811660248301528481166044830152606480830185905283518084039091018152608490920183526020820180516001600160e01b03166323b872dd60e01b17905291516000928392908816916103c691906111a4565b6000604051808303816000865af19150503d8060008114610403576040519150601f19603f3d011682016040523d82523d6000602084013e610408565b606091505b509150915081801561043257508051158061043257508080602001905181019061043291906111c0565b6104695760405162461bcd60e51b815260206004820152600360248201526229aa2360e91b60448201526064015b60405180910390fd5b505050505050565b60035461048b906001600160a01b03838116911685610b95565b60408051610100810182526001600160a01b0383811682526002548116602083019081526101f48385019081523060608501908152426080860190815260a086018a815260c087018a8152600060e089018181526003549a5163414bf38960e01b81528a518a166004820152975189166024890152955162ffffff166044880152935187166064870152915160848601525160a48501525160c48401529051831660e483015292939091169063414bf38990610104016020604051808303816000875af1158015610560573d6000803e3d6000fd5b505050506040513d601f19601f820116820180604052508101906105849190611122565b9050806000036101b457604051634c5a56af60e11b81526001600160a01b0384166004820152602401610460565b6040805160c0810182528381526000602082018190526002546001600160a01b03908116838501819052600854909116606084015292516370a0823160e01b8152306004820152909260808301916370a0823190602401602060405180830381865afa158015610626573d6000803e3d6000fd5b505050506040513d601f19601f8201168201806040525081019061064a9190611122565b815260408051600080825260208083018452938401919091528151608081018352308082529381018290528083019390935260608301819052600754915163e969f6b360e01b815293945091926001600160a01b039091169063e969f6b3906106b9908690869060040161128c565b6020604051808303816000875af11580156106d8573d6000803e3d6000fd5b505050506040513d601f19601f820116820180604052508101906106fc9190611122565b9050600081851161070d578161070f565b845b6006546080860151600254929350610734926001600160a01b03908116921690610b95565b6006546040516352bbbe2960e01b81526001600160a01b03909116906352bbbe299061076a9087908790869042906004016112de565b6020604051808303816000875af1158015610789573d6000803e3d6000fd5b505050506040513d601f19601f820116820180604052508101906107ad9190611122565b50505050505050565b6008546040516370a0823160e01b81523060048201526000916001600160a01b0316906370a0823190602401602060405180830381865afa1580156107ff573d6000803e3d6000fd5b505050506040513d601f19601f820116820180604052508101906108239190611122565b600654600854919250610843916001600160a01b03908116911683610b95565b604080516060810182526002546001600160a01b03908116825260095481166020830152600854169181019190915260009061087e90610c8e565b905060006108a76040518060600160405280600081526020016000815260200185815250610d17565b905060006108c960405180604001604052806000815260200186815250610d8c565b905060006108e384846108de6001868c610e02565b610e32565b600754604051639ebbf05d60e01b81529192506000916001600160a01b0390911690639ebbf05d9061091f908a90309081908890600401611414565b6000604051808303816000875af115801561093e573d6000803e3d6000fd5b505050506040513d6000823e601f3d908101601f191682016040526109669190810190611450565b509050600061098589831161097b578961097d565b825b600554610e83565b905061099886866108de60018886610e02565b60065460405163172b958560e31b81529194506001600160a01b03169063b95cac28906109cf908b90309081908990600401611414565b600060405180830381600087803b1580156109e957600080fd5b505af11580156109fd573d6000803e3d6000fd5b50505050505050505050505050565b610a518282604051602401610a22929190611502565b60408051601f198184030181529190526020810180516001600160e01b03166309710a9d60e41b179052610ea5565b5050565b600954604080516333cd77e760e11b815290516000926001600160a01b03169163679aefce9160048083019260209291908290030181865afa158015610a9f573d6000803e3d6000fd5b505050506040513d601f19601f82011682018060405250810190610ac39190611122565b604080516060810182526002546001600160a01b039081168252600954811660208301526008541691810191909152909150600090610b0190610c8e565b90506000610b2a6040518060600160405280898152602001600081526020016000815250610d17565b90506000610b3b6000886000610ec6565b6040805160808101825285815260208101859052808201839052600060608201526006549151638bdb391360e01b8152929350916001600160a01b0390911690638bdb3913906109cf908a9030908b908790600401611414565b604080516001600160a01b038481166024830152604480830185905283518084039091018152606490920183526020820180516001600160e01b031663095ea7b360e01b1790529151600092839290871691610bf191906111a4565b6000604051808303816000865af19150503d8060008114610c2e576040519150601f19603f3d011682016040523d82523d6000602084013e610c33565b606091505b5091509150818015610c5d575080511580610c5d575080806020019051810190610c5d91906111c0565b6101b45760405162461bcd60e51b8152602060048201526002602482015261534160f01b6044820152606401610460565b60408051600380825260808201909252606091908160208201848036833701905050915060005b81811015610d1057838160038110610ccf57610ccf611524565b6020020151838281518110610ce657610ce6611524565b6001600160a01b039092166020928302919091019091015280610d0881611550565b915050610cb5565b5050919050565b60408051600380825260808201909252606091908160208201848036833701905050915060005b81811015610d1057838160038110610d5857610d58611524565b6020020151838281518110610d6f57610d6f611524565b602090810291909101015280610d8481611550565b915050610d3e565b6040805160028082526060828101909352908181602001602082028036833701905050915060005b81811015610d1057838160028110610dce57610dce611524565b6020020151838281518110610de557610de5611524565b602090810291909101015280610dfa81611550565b915050610db4565b6060838383604051602001610e1993929190611569565b60405160208183030381529060405290505b9392505050565b610e5f60405180608001604052806060815260200160608152602001606081526020016000151581525090565b50604080516080810182529384526020840192909252908201526000606082015290565b6000610e928383612710610edd565b610e9c90846115a2565b90505b92915050565b80516a636f6e736f6c652e6c6f67602083016000808483855afa5050505050565b6060838383604051602001610e19939291906115b5565b60008383026000198486098181108201900380610f125783610f075763ae47f7026000526004601cfd5b508290049050610e2b565b808411610f275763ae47f7026000526004601cfd5b838587096000858103861695869004956003870260029081188089028203028089028203028089028203028089028203028089028203028089029091030291819003819004600101858411909403939093029190930391909104170290509392505050565b80356001600160a01b0381168114610fa357600080fd5b919050565b634e487b7160e01b600052604160045260246000fd5b604051601f8201601f1916810167ffffffffffffffff81118282101715610fe757610fe7610fa8565b604052919050565b600080600083850360c081121561100557600080fd5b61100e85610f8c565b935061101c60208601610f8c565b92506080603f198201121561103057600080fd5b506040516080810181811067ffffffffffffffff8211171561105457611054610fa8565b806040525060408501358152606085013560208201526080850135604082015260a08501356060820152809150509250925092565b60008060008084860360c08112156110a057600080fd5b60608112156110ae57600080fd5b506040516060810181811067ffffffffffffffff821117156110d2576110d2610fa8565b60409081528635825260208088013590830152868101359082015293506110fb60608601610f8c565b925061110960808601610f8c565b915061111760a08601610f8c565b905092959194509250565b60006020828403121561113457600080fd5b5051919050565b80518015158114610fa357600080fd5b60008060006060848603121561116057600080fd5b6111698461113b565b925060208401519150604084015190509250925092565b60005b8381101561119b578181015183820152602001611183565b50506000910152565b600082516111b6818460208701611180565b9190910192915050565b6000602082840312156111d257600080fd5b610e9c8261113b565b634e487b7160e01b600052602160045260246000fd5b60008151808452611209816020860160208601611180565b601f01601f19169290920160200192915050565b805182526000602082015160028110611238576112386111db565b80602085015250604082015160018060a01b03808216604086015280606085015116606086015250506080820151608084015260a082015160c060a085015261128460c08501826111f1565b949350505050565b60a08152600061129f60a083018561121d565b9050610e2b602083018480516001600160a01b039081168352602080830151151590840152604080830151909116908301526060908101511515910152565b60e0815260006112f160e083018761121d565b9050611330602083018680516001600160a01b039081168352602080830151151590840152604080830151909116908301526060908101511515910152565b60a082019390935260c0015292915050565b600081518084526020808501945080840160005b8381101561137257815187529582019590820190600101611356565b509495945050505050565b8051608080845281519084018190526000916020919082019060a0860190845b818110156113c25783516001600160a01b03168352928401929184019160010161139d565b5050828501519150858103838701526113db8183611342565b92505050604083015184820360408601526113f682826111f1565b915050606083015161140c606086018215159052565b509392505050565b8481526001600160a01b038481166020830152831660408201526080606082018190526000906114469083018461137d565b9695505050505050565b6000806040838503121561146357600080fd5b8251915060208084015167ffffffffffffffff8082111561148357600080fd5b818601915086601f83011261149757600080fd5b8151818111156114a9576114a9610fa8565b8060051b91506114ba848301610fbe565b81815291830184019184810190898411156114d457600080fd5b938501935b838510156114f2578451825293850193908501906114d9565b8096505050505050509250929050565b60408152600061151560408301856111f1565b90508260208301529392505050565b634e487b7160e01b600052603260045260246000fd5b634e487b7160e01b600052601160045260246000fd5b6000600182016115625761156261153a565b5060010190565b60006004851061157b5761157b6111db565b848252606060208301526115926060830185611342565b9050826040830152949350505050565b81810381811115610e9f57610e9f61153a565b60608101600385106115c9576115c96111db565b93815260208101929092526040909101529056fea264697066735822122042712a8bf63085c7229c31924a177a394eb58a373adcedb94d626b1d98c8c0da64736f6c63430008150033",
    "linkReferences": {}
  },
  "methodIdentifiers": {
    "totalUnderlying()": "c70920bc",
    "useOzTokens((uint256,uint256,uint256),address,address,address)": "799efb86",
    "useUnderlying(address,address,(uint256,uint256,uint256,uint256))": "58796019"
  },
  "id": 7
}