{
  "abi": [
    {
      "inputs": [
        {
          "internalType": "address",
          "name": "underlying_",
          "type": "address"
        },
        {
          "internalType": "address",
          "name": "user_",
          "type": "address"
        },
        {
          "internalType": "uint256",
          "name": "minWethOut_",
          "type": "uint256"
        },
        {
          "internalType": "uint256",
          "name": "minRethOutOffchain_",
          "type": "uint256"
        },
        {
          "internalType": "uint256",
          "name": "minBptOutOffchain_",
          "type": "uint256"
        }
      ],
      "name": "useUnderlying",
      "outputs": [],
      "stateMutability": "nonpayable",
      "type": "function"
    }
  ],
  "bytecode": {
    "object": "0x6080806040523461001657611049908161001c8239f35b600080fdfe608080604052600436101561001357600080fd5b600090813560e01c639c5f4dcc1461002a57600080fd5b34610a755760a0366003190112610a75576004356001600160a01b0381169190828103610b00576024356001600160a01b03811603610b00576370a0823160e01b8252306004830152602082602481865afa918215610b0c578492610c70575b506003546100a39183916001600160a01b031690610f07565b60018060a01b036002541660405192610100840184811067ffffffffffffffff821117610b8857604090815290845260208481019283526101f48286019081523060608701908152426080880190815260a088019687526044803560c08a0190815260e08a018b8152600354975163414bf38960e01b81529a516001600160a01b0390811660048d01529851891660248c0152945162ffffff16918a0191909152915186166064890152516084880152945160a4870152935160c48601529251821660e485015283916101049183918791165af1801561088257610c45575b50600954604051631c0de05160e01b81526001600160a01b0390911690606081600481855afa80156108f157610c06575b5060206004916040519283809263038fff2d60e41b82525afa908115610882578291610bd4575b506002546008546040516370a0823160e01b815230600482015292916001600160a01b039081169116602084602481855afa938415610a0b578594610b9c575b50606060a060405161022b81610ca6565b878152876020820152876040820152878382015287608082015201526040519182602081011067ffffffffffffffff602085011117610b88579082916020879594016040528483526040519361028085610ca6565b8452846020850152604084015260608301526080820193845260a08201528160606040516102ad81610cc2565b8281528260208201528260408201520152604051906102cb82610cc2565b30825282602083015230604083015282606083015260018060a01b03600754166020604051809263e969f6b360e01b825260a0600483015281878161031360a4820189610d4d565b89516001600160a01b03908116602484015260208b01511515604484015260408b015116606483015260608a01511515608483015203925af1908115610b0c578491610b4f575b506020936103fe93926103c692606435811015610b455750610395606435975b6002546006549151916001600160a01b039081169116610f07565b60018060a01b036006541693604051978896879586946352bbbe2960e01b865260e0600487015260e4860190610d4d565b83516001600160a01b039081166024870152602085015115156044870152604085015116606486015260609093015115156084850152565b60a48301524260c483015203925af1801561088257610b17575b506008546006546040516370a0823160e01b8152306004820152916001600160a01b039081169116602083602481855afa918215610b0c578492610ad2575b6104619350610f07565b60405161046d81610cc2565b6003815260603660208301376002546001600160a01b031661048e82610dc0565b526009546001600160a01b0316806104a583610de3565b526008546001600160a01b031690816104bd84610df3565b52604051906104cb82610cc2565b600382526060366020840137846104e183610dc0565b52846104ec83610de3565b526040516370a0823160e01b8152306004820152602081602481875afa908115610ac7578691610a95575b5061052183610df3565b52604051926060840184811067ffffffffffffffff821117610a8157916020879260249460405260028752604036838901378361055d88610dc0565b526040516370a0823160e01b815230600482015294859182905afa8015610882578290610a4a575b6004935061059286610de3565b52604051906105b9826105ab6084358960208401610e37565b03601f198101845283610cde565b604051916105c683610cc2565b8783528560208401526040830152826060830152602060018060a01b0360075416916040519586809263038fff2d60e41b82525afa80156108f1578390610a16575b61062e945083604051809681958294639ebbf05d60e01b84523090309060048601610e5a565b03925af1908115610a0b578591610935575b5060843581111561092b57915b600554600019818509848202808210019081811461091d578181036127101115610910579082916127107fbc01a36e2eb1c432ca57a786c226809d495182a9930be0ded288ce703afb7e9194880992870283810360041c93119190030360fc1b17025b83039283116108fc5791600493916106d586946105ab60405194859260208401610e37565b604051926106e284610cc2565b83526020830152604082015281606082015260018060a01b0360065416602060018060a01b03600954166040519586809263038fff2d60e41b82525afa9384156108f15783946108bd575b50803b156108b95761075a938360405180968195829463172b958560e31b84523090309060048601610e5a565b03925af180156108825761088d575b506009546040516370a0823160e01b815230600482015290602090829060249082906001600160a01b03165afa90811561088257829161084b575b50604051604081019080821067ffffffffffffffff8311176108355783928392604052600e82526d03130b61021282a103837b9ba1d160951b6020830152610821604051809261080d60208301956309710a9d60e41b8752604060248501526064840190610d0d565b90604483015203601f198101835282610cde565b51906a636f6e736f6c652e6c6f675afa5080f35b634e487b7160e01b600052604160045260246000fd5b90506020813d60201161087a575b8161086660209383610cde565b810103126108755751386107a4565b600080fd5b3d9150610859565b6040513d84823e3d90fd5b67ffffffffffffffff81116108a55760405238610769565b634e487b7160e01b82526041600452602482fd5b8280fd5b9093506020813d6020116108e9575b816108d960209383610cde565b810103126108b95751923861072d565b3d91506108cc565b6040513d85823e3d90fd5b634e487b7160e01b85526011600452602485fd5b63ae47f70288526004601cfd5b5050612710908402046106b0565b506084359161064d565b3d91508186823e6109468282610cde565b6040818381010312610a0757805191602082015167ffffffffffffffff8111610a0357818301601f828501011215610a03578083015167ffffffffffffffff81116109ef5760208160051b91604051906109a283850183610cde565b8152019284016020828487010101116109eb5783820160200192915b602082828701010184106109d757505050505038610640565b6020808094865181520194019392506109be565b8880fd5b634e487b7160e01b89526041600452602489fd5b8780fd5b8580fd5b6040513d87823e3d90fd5b506020843d602011610a42575b81610a3060209383610cde565b810103126108b95761062e9351610608565b3d9150610a23565b506020833d602011610a79575b81610a6460209383610cde565b81010312610a755760049251610585565b5080fd5b3d9150610a57565b634e487b7160e01b87526041600452602487fd5b90506020813d602011610abf575b81610ab060209383610cde565b81010312610a07575138610517565b3d9150610aa3565b6040513d88823e3d90fd5b91506020833d602011610b04575b81610aed60209383610cde565b81010312610b0057610461925191610457565b8380fd5b3d9150610ae0565b6040513d86823e3d90fd5b602090813d8311610b3e575b610b2d8183610cde565b81010312610b3b5738610418565b80fd5b503d610b23565b610395909761037a565b90506020929192813d602011610b80575b81610b6d60209383610cde565b81010312610b005751909190602061035a565b3d9150610b60565b634e487b7160e01b86526041600452602486fd5b9093506020813d602011610bcc575b81610bb860209383610cde565b81010312610bc85751923861021a565b8480fd5b3d9150610bab565b90506020813d602011610bfe575b81610bef60209383610cde565b81010312610a755751386101da565b3d9150610be2565b6060813d606011610c3d575b81610c1f60609383610cde565b810103126108b957600491610c35602092610d00565b5091506101b3565b3d9150610c12565b602090813d8311610c69575b610c5b8183610cde565b81010312610b3b5738610182565b503d610c51565b9091506020813d602011610c9e575b81610c8c60209383610cde565b81010312610b005751906100a361008a565b3d9150610c7f565b60c0810190811067ffffffffffffffff82111761083557604052565b6080810190811067ffffffffffffffff82111761083557604052565b90601f8019910116810190811067ffffffffffffffff82111761083557604052565b5190811515820361087557565b919082519283825260005b848110610d39575050826000602080949584010152601f8019910116010190565b602081830181015184830182015201610d18565b90815181526020820151916002831015610daa5760a060c091610da79460208501526040810151600180841b0380911660408601526060820151166060850152608081015160808501520151918160a08201520190610d0d565b90565b634e487b7160e01b600052602160045260246000fd5b805115610dcd5760200190565b634e487b7160e01b600052603260045260246000fd5b805160011015610dcd5760400190565b805160021015610dcd5760600190565b90815180825260208080930193019160005b828110610e23575050505090565b835185529381019392810192600101610e15565b929190610e5560409160018652606060208701526060860190610e03565b930152565b929190835260209060018060a01b039283809216838601521660408401526080606084015261010083019184519260808086015283518091528261012086019401916000905b828210610eee5750505050610ee360e092610ece60609387015191607f1992838883030160a0890152610e03565b906040870151908683030160c0870152610d0d565b930151151591015290565b8351811686529484019492840192600190910190610ea0565b906040516020938482019263095ea7b360e01b845260018060a01b03166024830152604482015260448152610f3b81610cc2565b600092839283809351925af1903d1561100b573d9067ffffffffffffffff8211610ff75760405191610f76601f8201601f1916860184610cde565b82523d818584013e5b82610fb8575b505015610f8f5750565b6064906040519062461bcd60e51b825260048201526002602482015261534160f01b6044820152fd5b908092505190838215928315610fd5575b50505090503880610f85565b848092939450010312610b3b575081610fee9101610d00565b80388381610fc9565b634e487b7160e01b81526041600452602490fd5b606090610f7f56fea2646970667358221220defaeec38e53a330a41ad1d34315ab8d2c6e764b1e7d1ca18f1f7a8ab102350f64736f6c63430008150033",
    "linkReferences": {}
  },
  "methodIdentifiers": {
    "useUnderlying(address,address,uint256,uint256,uint256)": "9c5f4dcc"
  },
  "id": 7
}