{
  "abi": [
    {
      "inputs": [
        {
          "internalType": "address",
          "name": "token",
          "type": "address"
        }
      ],
      "name": "TokenInNotValid",
      "type": "error"
    },
    {
      "inputs": [
        {
          "internalType": "address",
          "name": "underlying_",
          "type": "address"
        },
        {
          "internalType": "address",
          "name": "user_",
          "type": "address"
        },
        {
          "components": [
            {
              "internalType": "uint256",
              "name": "amountIn",
              "type": "uint256"
            },
            {
              "internalType": "uint256",
              "name": "minWethOut",
              "type": "uint256"
            },
            {
              "internalType": "uint256",
              "name": "minRethOut",
              "type": "uint256"
            },
            {
              "internalType": "uint256",
              "name": "minBptOut",
              "type": "uint256"
            }
          ],
          "internalType": "struct TradeAmounts",
          "name": "amounts_",
          "type": "tuple"
        }
      ],
      "name": "useUnderlying",
      "outputs": [],
      "stateMutability": "nonpayable",
      "type": "function"
    }
  ],
  "bytecode": {
    "object": "0x608060405234801561001057600080fd5b5061117c806100206000396000f3fe608060405234801561001057600080fd5b506004361061002b5760003560e01c80635879601914610030575b600080fd5b61004361003e366004610c44565b610045565b005b6009546040805163038fff2d60e41b815290516000926001600160a01b0316916338fff2d09160048083019260209291908290030181865afa15801561008f573d6000803e3d6000fd5b505050506040513d601f19601f820116820180604052508101906100b39190610cde565b82519091506100d0906001600160a01b0386169085903090610178565b6100e38260000151836020015186610287565b60095460408051631c0de05160e01b815290516000926001600160a01b031691631c0de0519160048083019260609291908290030181865afa15801561012d573d6000803e3d6000fd5b505050506040513d601f19601f820116820180604052508101906101519190610d07565b505090506101638284604001516103c8565b6101718360600151836105cc565b5050505050565b604080516001600160a01b0385811660248301528481166044830152606480830185905283518084039091018152608490920183526020820180516001600160e01b03166323b872dd60e01b17905291516000928392908816916101dc9190610d60565b6000604051808303816000865af19150503d8060008114610219576040519150601f19603f3d011682016040523d82523d6000602084013e61021e565b606091505b50915091508180156102485750805115806102485750808060200190518101906102489190610d7c565b61027f5760405162461bcd60e51b815260206004820152600360248201526229aa2360e91b60448201526064015b60405180910390fd5b505050505050565b6003546102a1906001600160a01b03838116911685610822565b60408051610100810182526001600160a01b0383811682526002548116602083019081526101f48385019081523060608501908152426080860190815260a086018a815260c087018a8152600060e089018181526003549a5163414bf38960e01b81528a518a166004820152975189166024890152955162ffffff166044880152935187166064870152915160848601525160a48501525160c48401529051831660e483015292939091169063414bf38990610104016020604051808303816000875af1158015610376573d6000803e3d6000fd5b505050506040513d601f19601f8201168201806040525081019061039a9190610cde565b90508060000361017157604051634c5a56af60e11b81526001600160a01b0384166004820152602401610276565b6040805160c0810182528381526000602082018190526002546001600160a01b03908116838501819052600854909116606084015292516370a0823160e01b8152306004820152909260808301916370a0823190602401602060405180830381865afa15801561043c573d6000803e3d6000fd5b505050506040513d601f19601f820116820180604052508101906104609190610cde565b815260408051600080825260208083018452938401919091528151608081018352308082529381018290528083019390935260608301819052600754915163e969f6b360e01b815293945091926001600160a01b039091169063e969f6b3906104cf9086908690600401610e48565b6020604051808303816000875af11580156104ee573d6000803e3d6000fd5b505050506040513d601f19601f820116820180604052508101906105129190610cde565b905060008185116105235781610525565b845b600654608086015160025492935061054a926001600160a01b03908116921690610822565b6006546040516352bbbe2960e01b81526001600160a01b03909116906352bbbe2990610580908790879086904290600401610e9a565b6020604051808303816000875af115801561059f573d6000803e3d6000fd5b505050506040513d601f19601f820116820180604052508101906105c39190610cde565b50505050505050565b6008546040516370a0823160e01b81523060048201526000916001600160a01b0316906370a0823190602401602060405180830381865afa158015610615573d6000803e3d6000fd5b505050506040513d601f19601f820116820180604052508101906106399190610cde565b600654600854919250610659916001600160a01b03908116911683610822565b604080516060810182526002546001600160a01b0390811682526009548116602083015260085416918101919091526000906106949061091b565b905060006106bd60405180606001604052806000815260200160008152602001858152506109a4565b905060006106df60405180604001604052806000815260200186815250610a19565b905060006106f984846106f46001868c610a8f565b610abf565b600754604051639ebbf05d60e01b81529192506000916001600160a01b0390911690639ebbf05d90610735908a90309081908890600401610f39565b6000604051808303816000875af1158015610754573d6000803e3d6000fd5b505050506040513d6000823e601f3d908101601f1916820160405261077c9190810190611003565b509050600061079b8983116107915789610793565b825b600554610b10565b90506107ae86866106f460018886610a8f565b60065460405163172b958560e31b81529194506001600160a01b03169063b95cac28906107e5908b90309081908990600401610f39565b600060405180830381600087803b1580156107ff57600080fd5b505af1158015610813573d6000803e3d6000fd5b50505050505050505050505050565b604080516001600160a01b038481166024830152604480830185905283518084039091018152606490920183526020820180516001600160e01b031663095ea7b360e01b179052915160009283929087169161087e9190610d60565b6000604051808303816000865af19150503d80600081146108bb576040519150601f19603f3d011682016040523d82523d6000602084013e6108c0565b606091505b50915091508180156108ea5750805115806108ea5750808060200190518101906108ea9190610d7c565b6101715760405162461bcd60e51b8152602060048201526002602482015261534160f01b6044820152606401610276565b60408051600380825260808201909252606091908160208201848036833701905050915060005b8181101561099d5783816003811061095c5761095c6110b5565b6020020151838281518110610973576109736110b5565b6001600160a01b039092166020928302919091019091015280610995816110e1565b915050610942565b5050919050565b60408051600380825260808201909252606091908160208201848036833701905050915060005b8181101561099d578381600381106109e5576109e56110b5565b60200201518382815181106109fc576109fc6110b5565b602090810291909101015280610a11816110e1565b9150506109cb565b6040805160028082526060828101909352908181602001602082028036833701905050915060005b8181101561099d57838160028110610a5b57610a5b6110b5565b6020020151838281518110610a7257610a726110b5565b602090810291909101015280610a87816110e1565b915050610a41565b6060838383604051602001610aa6939291906110fa565b60405160208183030381529060405290505b9392505050565b610aec60405180608001604052806060815260200160608152602001606081526020016000151581525090565b50604080516080810182529384526020840192909252908201526000606082015290565b6000610b1f8383612710610b32565b610b299084611133565b90505b92915050565b60008383026000198486098181108201900380610b675783610b5c5763ae47f7026000526004601cfd5b508290049050610ab8565b808411610b7c5763ae47f7026000526004601cfd5b838587096000858103861695869004956003870260029081188089028203028089028203028089028203028089028203028089028203028089029091030291819003819004600101858411909403939093029190930391909104170290509392505050565b80356001600160a01b0381168114610bf857600080fd5b919050565b634e487b7160e01b600052604160045260246000fd5b604051601f8201601f1916810167ffffffffffffffff81118282101715610c3c57610c3c610bfd565b604052919050565b600080600083850360c0811215610c5a57600080fd5b610c6385610be1565b9350610c7160208601610be1565b92506080603f1982011215610c8557600080fd5b506040516080810181811067ffffffffffffffff82111715610ca957610ca9610bfd565b806040525060408501358152606085013560208201526080850135604082015260a08501356060820152809150509250925092565b600060208284031215610cf057600080fd5b5051919050565b80518015158114610bf857600080fd5b600080600060608486031215610d1c57600080fd5b610d2584610cf7565b925060208401519150604084015190509250925092565b60005b83811015610d57578181015183820152602001610d3f565b50506000910152565b60008251610d72818460208701610d3c565b9190910192915050565b600060208284031215610d8e57600080fd5b610b2982610cf7565b634e487b7160e01b600052602160045260246000fd5b60008151808452610dc5816020860160208601610d3c565b601f01601f19169290920160200192915050565b805182526000602082015160028110610df457610df4610d97565b80602085015250604082015160018060a01b03808216604086015280606085015116606086015250506080820151608084015260a082015160c060a0850152610e4060c0850182610dad565b949350505050565b60a081526000610e5b60a0830185610dd9565b9050610ab8602083018480516001600160a01b039081168352602080830151151590840152604080830151909116908301526060908101511515910152565b60e081526000610ead60e0830187610dd9565b9050610eec602083018680516001600160a01b039081168352602080830151151590840152604080830151909116908301526060908101511515910152565b60a082019390935260c0015292915050565b600081518084526020808501945080840160005b83811015610f2e57815187529582019590820190600101610f12565b509495945050505050565b8481526000602060018060a01b038087168285015280861660408501526080606085015261010084018551608080870152818151808452610120880191508583019350600092505b80831015610fa357835185168252928501926001929092019190850190610f81565b50848801519450607f199350838782030160a0880152610fc38186610efe565b94505050506040850151818584030160c0860152610fe18382610dad565b925050506060840151610ff860e085018215159052565b509695505050505050565b6000806040838503121561101657600080fd5b8251915060208084015167ffffffffffffffff8082111561103657600080fd5b818601915086601f83011261104a57600080fd5b81518181111561105c5761105c610bfd565b8060051b915061106d848301610c13565b818152918301840191848101908984111561108757600080fd5b938501935b838510156110a55784518252938501939085019061108c565b8096505050505050509250929050565b634e487b7160e01b600052603260045260246000fd5b634e487b7160e01b600052601160045260246000fd5b6000600182016110f3576110f36110cb565b5060010190565b60006004851061110c5761110c610d97565b848252606060208301526111236060830185610efe565b9050826040830152949350505050565b81810381811115610b2c57610b2c6110cb56fea26469706673582212209cdeb3f703ef44975893896a061b9d512c7befc2048f1c582a52306f3ec05e9764736f6c63430008150033",
    "linkReferences": {}
  },
  "methodIdentifiers": {
    "useUnderlying(address,address,(uint256,uint256,uint256,uint256))": "58796019"
  },
  "id": 7
}