{
  "abi": [
    {
      "inputs": [
        {
          "internalType": "address",
          "name": "token",
          "type": "address"
        }
      ],
      "name": "TokenInNotValid",
      "type": "error"
    },
    {
      "inputs": [
        {
          "internalType": "enum Asset",
          "name": "type_",
          "type": "uint8"
        }
      ],
      "name": "totalUnderlying",
      "outputs": [
        {
          "internalType": "uint256",
          "name": "total",
          "type": "uint256"
        }
      ],
      "stateMutability": "view",
      "type": "function"
    },
    {
      "inputs": [
        {
          "components": [
            {
              "internalType": "uint256",
              "name": "ozAmountIn",
              "type": "uint256"
            },
            {
              "internalType": "uint256",
              "name": "minWethOut",
              "type": "uint256"
            },
            {
              "internalType": "uint256",
              "name": "bptAmountIn",
              "type": "uint256"
            },
            {
              "internalType": "uint256",
              "name": "minUsdcOut",
              "type": "uint256"
            }
          ],
          "internalType": "struct TradeAmountsOut",
          "name": "amts_",
          "type": "tuple"
        },
        {
          "internalType": "address",
          "name": "ozToken_",
          "type": "address"
        },
        {
          "internalType": "address",
          "name": "owner_",
          "type": "address"
        },
        {
          "internalType": "address",
          "name": "receiver_",
          "type": "address"
        }
      ],
      "name": "useOzTokens",
      "outputs": [
        {
          "internalType": "uint256",
          "name": "amountOut",
          "type": "uint256"
        }
      ],
      "stateMutability": "nonpayable",
      "type": "function"
    },
    {
      "inputs": [
        {
          "internalType": "address",
          "name": "underlying_",
          "type": "address"
        },
        {
          "internalType": "address",
          "name": "user_",
          "type": "address"
        },
        {
          "components": [
            {
              "internalType": "uint256",
              "name": "amountIn",
              "type": "uint256"
            },
            {
              "internalType": "uint256",
              "name": "minWethOut",
              "type": "uint256"
            },
            {
              "internalType": "uint256",
              "name": "minRethOut",
              "type": "uint256"
            },
            {
              "internalType": "uint256",
              "name": "minBptOut",
              "type": "uint256"
            }
          ],
          "internalType": "struct TradeAmounts",
          "name": "amounts_",
          "type": "tuple"
        }
      ],
      "name": "useUnderlying",
      "outputs": [],
      "stateMutability": "nonpayable",
      "type": "function"
    }
  ],
  "bytecode": {
    "object": "0x608060405234801561001057600080fd5b5061189b806100206000396000f3fe608060405234801561001057600080fd5b50600436106100415760003560e01c80635879601914610046578063a4fc284b1461005b578063d0d1e95414610080575b600080fd5b610059610054366004611185565b610093565b005b61006e6100693660046111c9565b6101d5565b60405190815260200160405180910390f35b61006e61008e3660046111ea565b6102f3565b600b546040805163038fff2d60e41b815290516000926001600160a01b0316916338fff2d09160048083019260209291908290030181865afa1580156100dd573d6000803e3d6000fd5b505050506040513d601f19601f82011682018060405250810190610101919061123f565b825190915061011e906001600160a01b0386169085903090610436565b8151602083015160025461013f92919087906001600160a01b031630610545565b50600b5460408051631c0de05160e01b815290516000926001600160a01b031691631c0de0519160048083019260609291908290030181865afa15801561018a573d6000803e3d6000fd5b505050506040513d601f19601f820116820180604052508101906101ae9190611268565b505090506101c08284604001516106c6565b6101ce8360600151836108ca565b5050505050565b600b546040516370a0823160e01b81523060048201526000916001600160a01b0316906370a0823190602401602060405180830381865afa15801561021e573d6000803e3d6000fd5b505050506040513d601f19601f82011682018060405250810190610242919061123f565b905060008260018111156102585761025861129d565b036102ee5760065460408051633fabe5a360e21b815290516000926001600160a01b03169163feaf968c9160048083019260a09291908290030181865afa1580156102a7573d6000803e3d6000fd5b505050506040513d601f19601f820116820180604052508101906102cb91906112cd565b5050509150506102ea826305f5e10083610b209092919063ffffffff16565b9150505b919050565b6000806000600b0160009054906101000a90046001600160a01b03166001600160a01b03166338fff2d06040518163ffffffff1660e01b8152600401602060405180830381865afa15801561034c573d6000803e3d6000fd5b505050506040513d601f19601f82011682018060405250810190610370919061123f565b865190915061038d906001600160a01b0387169086903090610436565b6103a08660200151876040015183610b47565b6002546040516370a0823160e01b815230600482015261042c916001600160a01b0316906370a0823190602401602060405180830381865afa1580156103ea573d6000803e3d6000fd5b505050506040513d601f19601f8201168201806040525081019061040e919061123f565b60608801516002546003546001600160a01b03918216911689610545565b9695505050505050565b604080516001600160a01b0385811660248301528481166044830152606480830185905283518084039091018152608490920183526020820180516001600160e01b03166323b872dd60e01b179052915160009283929088169161049a9190611341565b6000604051808303816000865af19150503d80600081146104d7576040519150601f19603f3d011682016040523d82523d6000602084013e6104dc565b606091505b5091509150818015610506575080511580610506575080806020019051810190610506919061135d565b61053d5760405162461bcd60e51b815260206004820152600360248201526229aa2360e91b60448201526064015b60405180910390fd5b505050505050565b600554600090610562906001600160a01b03868116911688610c51565b6000604051806101000160405280866001600160a01b03168152602001856001600160a01b031681526020016101f462ffffff168152602001846001600160a01b031681526020014281526020018881526020016105c08887610d4a565b815260006020918201526005546040805163414bf38960e01b815284516001600160a01b03908116600483015293850151841660248201529084015162ffffff1660448201526060840151831660648201526080840151608482015260a084015160a482015260c084015160c482015260e0840151831660e4820152929350169063414bf38990610104016020604051808303816000875af115801561066a573d6000803e3d6000fd5b505050506040513d601f19601f8201168201806040525081019061068e919061123f565b9150816000036106bc57604051634c5a56af60e11b81526001600160a01b0386166004820152602401610534565b5095945050505050565b6040805160c0810182528381526000602082018190526002546001600160a01b03908116838501819052600a54909116606084015292516370a0823160e01b8152306004820152909260808301916370a0823190602401602060405180830381865afa15801561073a573d6000803e3d6000fd5b505050506040513d601f19601f8201168201806040525081019061075e919061123f565b815260408051600080825260208083018452938401919091528151608081018352308082529381018290528083019390935260608301819052600954915163e969f6b360e01b815293945091926001600160a01b039091169063e969f6b3906107cd908690869060040161140b565b6020604051808303816000875af11580156107ec573d6000803e3d6000fd5b505050506040513d601f19601f82011682018060405250810190610810919061123f565b905060008185116108215781610823565b845b6008546080860151600254929350610848926001600160a01b03908116921690610c51565b6008546040516352bbbe2960e01b81526001600160a01b03909116906352bbbe299061087e90879087908690429060040161145d565b6020604051808303816000875af115801561089d573d6000803e3d6000fd5b505050506040513d601f19601f820116820180604052508101906108c1919061123f565b50505050505050565b600a546040516370a0823160e01b81523060048201526000916001600160a01b0316906370a0823190602401602060405180830381865afa158015610913573d6000803e3d6000fd5b505050506040513d601f19601f82011682018060405250810190610937919061123f565b600854600a54919250610957916001600160a01b03908116911683610c51565b604080516060810182526002546001600160a01b039081168252600b5481166020830152600a54169181019190915260009061099290610ded565b905060006109bb6040518060600160405280600081526020016000815260200185815250610e76565b905060006109dd60405180604001604052806000815260200186815250610eeb565b905060006109f784846109f26001868c610f61565b610f91565b600954604051639ebbf05d60e01b81529192506000916001600160a01b0390911690639ebbf05d90610a33908a90309081908890600401611593565b6000604051808303816000875af1158015610a52573d6000803e3d6000fd5b505050506040513d6000823e601f3d908101601f19168201604052610a7a91908101906115c5565b5090506000610a99898311610a8f5789610a91565b825b600754610fe2565b9050610aac86866109f260018886610f61565b60085460405163172b958560e31b81529194506001600160a01b03169063b95cac2890610ae3908b90309081908990600401611593565b600060405180830381600087803b158015610afd57600080fd5b505af1158015610b11573d6000803e3d6000fd5b50505050505050505050505050565b6000826000190484118302158202610b405763ad251c276000526004601cfd5b5091020490565b604080516060810182526002546001600160a01b039081168252600b5481166020830152600a541691810191909152600090610b8290610ded565b90506000610bab6040518060600160405280878152602001600081526020016000815250610e76565b90506000610bbc6000866000610ffb565b6040805160808101825285815260208101859052808201839052600060608201526008549151638bdb391360e01b8152929350916001600160a01b0390911690638bdb391390610c16908890309081908790600401611593565b600060405180830381600087803b158015610c3057600080fd5b505af1158015610c44573d6000803e3d6000fd5b5050505050505050505050565b604080516001600160a01b038481166024830152604480830185905283518084039091018152606490920183526020820180516001600160e01b031663095ea7b360e01b1790529151600092839290871691610cad9190611341565b6000604051808303816000865af19150503d8060008114610cea576040519150601f19603f3d011682016040523d82523d6000602084013e610cef565b606091505b5091509150818015610d19575080511580610d19575080806020019051810190610d19919061135d565b6101ce5760405162461bcd60e51b8152602060048201526002602482015261534160f01b6044820152606401610534565b600080826001600160a01b031663313ce5676040518163ffffffff1660e01b8152600401602060405180830381865afa158015610d8b573d6000803e3d6000fd5b505050506040513d601f19601f82011682018060405250810190610daf9190611677565b60ff16905080601214610de157610dc78160126116b0565b610dd290600a6117a7565b610ddc90856117b3565b610de3565b835b9150505b92915050565b60408051600380825260808201909252606091908160208201848036833701905050915060005b81811015610e6f57838160038110610e2e57610e2e6117d5565b6020020151838281518110610e4557610e456117d5565b6001600160a01b039092166020928302919091019091015280610e67816117eb565b915050610e14565b5050919050565b60408051600380825260808201909252606091908160208201848036833701905050915060005b81811015610e6f57838160038110610eb757610eb76117d5565b6020020151838281518110610ece57610ece6117d5565b602090810291909101015280610ee3816117eb565b915050610e9d565b6040805160028082526060828101909352908181602001602082028036833701905050915060005b81811015610e6f57838160028110610f2d57610f2d6117d5565b6020020151838281518110610f4457610f446117d5565b602090810291909101015280610f59816117eb565b915050610f13565b6060838383604051602001610f7893929190611804565b60405160208183030381529060405290505b9392505050565b610fbe60405180608001604052806060815260200160608152602001606081526020016000151581525090565b50604080516080810182529384526020840192909252908201526000606082015290565b6000610ff18383612710611012565b610f8a90846116b0565b6060838383604051602001610f789392919061183d565b60008383026000198486098181108201900380611047578361103c5763ae47f7026000526004601cfd5b508290049050610f8a565b80841161105c5763ae47f7026000526004601cfd5b838587096000858103861695869004956003870260029081188089028203028089028203028089028203028089028203028089028203028089029091030291819003819004600101858411909403939093029190930391909104170290509392505050565b80356001600160a01b03811681146102ee57600080fd5b634e487b7160e01b600052604160045260246000fd5b604051601f8201601f1916810167ffffffffffffffff81118282101715611117576111176110d8565b604052919050565b60006080828403121561113157600080fd5b6040516080810181811067ffffffffffffffff82111715611154576111546110d8565b8060405250809150823581526020830135602082015260408301356040820152606083013560608201525092915050565b600080600060c0848603121561119a57600080fd5b6111a3846110c1565b92506111b1602085016110c1565b91506111c0856040860161111f565b90509250925092565b6000602082840312156111db57600080fd5b813560028110610f8a57600080fd5b60008060008060e0858703121561120057600080fd5b61120a868661111f565b9350611218608086016110c1565b925061122660a086016110c1565b915061123460c086016110c1565b905092959194509250565b60006020828403121561125157600080fd5b5051919050565b805180151581146102ee57600080fd5b60008060006060848603121561127d57600080fd5b61128684611258565b925060208401519150604084015190509250925092565b634e487b7160e01b600052602160045260246000fd5b805169ffffffffffffffffffff811681146102ee57600080fd5b600080600080600060a086880312156112e557600080fd5b6112ee866112b3565b9450602086015193506040860151925060608601519150611311608087016112b3565b90509295509295909350565b60005b83811015611338578181015183820152602001611320565b50506000910152565b6000825161135381846020870161131d565b9190910192915050565b60006020828403121561136f57600080fd5b610f8a82611258565b6000815180845261139081602086016020860161131d565b601f01601f19169290920160200192915050565b8051825260006020820151600281106113bf576113bf61129d565b80602085015250604082015160018060a01b03808216604086015280606085015116606086015250506080820151608084015260a082015160c060a0850152610de360c0850182611378565b60a08152600061141e60a08301856113a4565b9050610f8a602083018480516001600160a01b039081168352602080830151151590840152604080830151909116908301526060908101511515910152565b60e08152600061147060e08301876113a4565b90506114af602083018680516001600160a01b039081168352602080830151151590840152604080830151909116908301526060908101511515910152565b60a082019390935260c0015292915050565b600081518084526020808501945080840160005b838110156114f1578151875295820195908201906001016114d5565b509495945050505050565b8051608080845281519084018190526000916020919082019060a0860190845b818110156115415783516001600160a01b03168352928401929184019160010161151c565b50508285015191508581038387015261155a81836114c1565b92505050604083015184820360408601526115758282611378565b915050606083015161158b606086018215159052565b509392505050565b8481526001600160a01b0384811660208301528316604082015260806060820181905260009061042c908301846114fc565b600080604083850312156115d857600080fd5b8251915060208084015167ffffffffffffffff808211156115f857600080fd5b818601915086601f83011261160c57600080fd5b81518181111561161e5761161e6110d8565b8060051b915061162f8483016110ee565b818152918301840191848101908984111561164957600080fd5b938501935b838510156116675784518252938501939085019061164e565b8096505050505050509250929050565b60006020828403121561168957600080fd5b815160ff81168114610f8a57600080fd5b634e487b7160e01b600052601160045260246000fd5b81810381811115610de757610de761169a565b600181815b808511156116fe5781600019048211156116e4576116e461169a565b808516156116f157918102915b93841c93908002906116c8565b509250929050565b60008261171557506001610de7565b8161172257506000610de7565b816001811461173857600281146117425761175e565b6001915050610de7565b60ff8411156117535761175361169a565b50506001821b610de7565b5060208310610133831016604e8410600b8410161715611781575081810a610de7565b61178b83836116c3565b806000190482111561179f5761179f61169a565b029392505050565b6000610f8a8383611706565b6000826117d057634e487b7160e01b600052601260045260246000fd5b500490565b634e487b7160e01b600052603260045260246000fd5b6000600182016117fd576117fd61169a565b5060010190565b6000600485106118165761181661129d565b8482526060602083015261182d60608301856114c1565b9050826040830152949350505050565b60608101600385106118515761185161129d565b93815260208101929092526040909101529056fea2646970667358221220e16832d3888ac7722aa2cf4f33a522a9e30b65d142fc84d2d401ec089040125d64736f6c63430008150033",
    "linkReferences": {}
  },
  "methodIdentifiers": {
    "totalUnderlying(uint8)": "a4fc284b",
    "useOzTokens((uint256,uint256,uint256,uint256),address,address,address)": "d0d1e954",
    "useUnderlying(address,address,(uint256,uint256,uint256,uint256))": "58796019"
  },
  "id": 7
}