{
  "abi": [
    {
      "inputs": [
        {
          "internalType": "address",
          "name": "underlying_",
          "type": "address"
        },
        {
          "internalType": "address",
          "name": "user_",
          "type": "address"
        },
        {
          "internalType": "uint256",
          "name": "minWethOut_",
          "type": "uint256"
        },
        {
          "internalType": "uint256",
          "name": "minRethOutOffchain_",
          "type": "uint256"
        },
        {
          "internalType": "uint256",
          "name": "minBptOutOffchain_",
          "type": "uint256"
        },
        {
          "internalType": "uint256",
          "name": "amountIn_",
          "type": "uint256"
        }
      ],
      "name": "useUnderlying",
      "outputs": [],
      "stateMutability": "nonpayable",
      "type": "function"
    }
  ],
  "bytecode": {
    "object": "0x60808060405234610016576110bb908161001c8239f35b600080fdfe608080604052600436101561001357600080fd5b600090813560e01c63afc1ea581461002a57600080fd5b34610aae5760c0366003190112610aae576004356001600160a01b03811691828203610b39576024356001600160a01b03811690819003610c01576323b872dd60e01b8252600482015230602482015260a435604482015260208160648187875af18015610b4557610cdf575b506040516370a0823160e01b815230600482015290602082602481865afa918215610b45578492610ca9575b506003546100dc9183916001600160a01b031690610f79565b60018060a01b036002541660405192610100840184811067ffffffffffffffff821117610bc157604090815290845260208481019283526101f48286019081523060608701908152426080880190815260a088019687526044803560c08a0190815260e08a018b8152600354975163414bf38960e01b81529a516001600160a01b0390811660048d01529851891660248c0152945162ffffff16918a0191909152915186166064890152516084880152945160a4870152935160c48601529251821660e485015283916101049183918791165af180156108bb57610c7e575b50600954604051631c0de05160e01b81526001600160a01b0390911690606081600481855afa801561092a57610c3f575b5060206004916040519283809263038fff2d60e41b82525afa9081156108bb578291610c0d575b506002546008546040516370a0823160e01b815230600482015292916001600160a01b039081169116602084602481855afa938415610a44578594610bd5575b50606060a060405161026481610d18565b878152876020820152876040820152878382015287608082015201526040519182602081011067ffffffffffffffff602085011117610bc157908291602087959401604052848352604051936102b985610d18565b8452846020850152604084015260608301526080820193845260a08201528160606040516102e681610d34565b82815282602082015282604082015201526040519061030482610d34565b30825282602083015230604083015282606083015260018060a01b03600754166020604051809263e969f6b360e01b825260a0600483015281878161034c60a4820189610dbf565b89516001600160a01b03908116602484015260208b01511515604484015260408b015116606483015260608a01511515608483015203925af1908115610b45578491610b88575b5060209361043793926103ff92606435811015610b7e57506103ce606435975b6002546006549151916001600160a01b039081169116610f79565b60018060a01b036006541693604051978896879586946352bbbe2960e01b865260e0600487015260e4860190610dbf565b83516001600160a01b039081166024870152602085015115156044870152604085015116606486015260609093015115156084850152565b60a48301524260c483015203925af180156108bb57610b50575b506008546006546040516370a0823160e01b8152306004820152916001600160a01b039081169116602083602481855afa918215610b45578492610b0b575b61049a9350610f79565b6040516104a681610d34565b6003815260603660208301376002546001600160a01b03166104c782610e32565b526009546001600160a01b0316806104de83610e55565b526008546001600160a01b031690816104f684610e65565b526040519061050482610d34565b6003825260603660208401378461051a83610e32565b528461052583610e55565b526040516370a0823160e01b8152306004820152602081602481875afa908115610b00578691610ace575b5061055a83610e65565b52604051926060840184811067ffffffffffffffff821117610aba57916020879260249460405260028752604036838901378361059688610e32565b526040516370a0823160e01b815230600482015294859182905afa80156108bb578290610a83575b600493506105cb86610e55565b52604051906105f2826105e46084358960208401610ea9565b03601f198101845283610d50565b604051916105ff83610d34565b8783528560208401526040830152826060830152602060018060a01b0360075416916040519586809263038fff2d60e41b82525afa801561092a578390610a4f575b610667945083604051809681958294639ebbf05d60e01b84523090309060048601610ecc565b03925af1908115610a4457859161096e575b5060843581111561096457915b6005546000198185098482028082100190818114610956578181036127101115610949579082916127107fbc01a36e2eb1c432ca57a786c226809d495182a9930be0ded288ce703afb7e9194880992870283810360041c93119190030360fc1b17025b830392831161093557916004939161070e86946105e460405194859260208401610ea9565b6040519261071b84610d34565b83526020830152604082015281606082015260018060a01b0360065416602060018060a01b03600954166040519586809263038fff2d60e41b82525afa93841561092a5783946108f6575b50803b156108f257610793938360405180968195829463172b958560e31b84523090309060048601610ecc565b03925af180156108bb576108c6575b506009546040516370a0823160e01b815230600482015290602090829060249082906001600160a01b03165afa9081156108bb578291610884575b50604051604081019080821067ffffffffffffffff83111761086e5783928392604052600e82526d03130b61021282a103837b9ba1d160951b602083015261085a604051809261084660208301956309710a9d60e41b8752604060248501526064840190610d7f565b90604483015203601f198101835282610d50565b51906a636f6e736f6c652e6c6f675afa5080f35b634e487b7160e01b600052604160045260246000fd5b90506020813d6020116108b3575b8161089f60209383610d50565b810103126108ae5751386107dd565b600080fd5b3d9150610892565b6040513d84823e3d90fd5b67ffffffffffffffff81116108de57604052386107a2565b634e487b7160e01b82526041600452602482fd5b8280fd5b9093506020813d602011610922575b8161091260209383610d50565b810103126108f257519238610766565b3d9150610905565b6040513d85823e3d90fd5b634e487b7160e01b85526011600452602485fd5b63ae47f70288526004601cfd5b5050612710908402046106e9565b5060843591610686565b3d91508186823e61097f8282610d50565b6040818381010312610a4057805191602082015167ffffffffffffffff8111610a3c57818301601f828501011215610a3c578083015167ffffffffffffffff8111610a285760208160051b91604051906109db83850183610d50565b815201928401602082848701010111610a245783820160200192915b60208282870101018410610a1057505050505038610679565b6020808094865181520194019392506109f7565b8880fd5b634e487b7160e01b89526041600452602489fd5b8780fd5b8580fd5b6040513d87823e3d90fd5b506020843d602011610a7b575b81610a6960209383610d50565b810103126108f2576106679351610641565b3d9150610a5c565b506020833d602011610ab2575b81610a9d60209383610d50565b81010312610aae57600492516105be565b5080fd5b3d9150610a90565b634e487b7160e01b87526041600452602487fd5b90506020813d602011610af8575b81610ae960209383610d50565b81010312610a40575138610550565b3d9150610adc565b6040513d88823e3d90fd5b91506020833d602011610b3d575b81610b2660209383610d50565b81010312610b395761049a925191610490565b8380fd5b3d9150610b19565b6040513d86823e3d90fd5b602090813d8311610b77575b610b668183610d50565b81010312610b745738610451565b80fd5b503d610b5c565b6103ce90976103b3565b90506020929192813d602011610bb9575b81610ba660209383610d50565b81010312610b3957519091906020610393565b3d9150610b99565b634e487b7160e01b86526041600452602486fd5b9093506020813d602011610c05575b81610bf160209383610d50565b81010312610c0157519238610253565b8480fd5b3d9150610be4565b90506020813d602011610c37575b81610c2860209383610d50565b81010312610aae575138610213565b3d9150610c1b565b6060813d606011610c76575b81610c5860609383610d50565b810103126108f257600491610c6e602092610d72565b5091506101ec565b3d9150610c4b565b602090813d8311610ca2575b610c948183610d50565b81010312610b7457386101bb565b503d610c8a565b9091506020813d602011610cd7575b81610cc560209383610d50565b81010312610b395751906100dc6100c3565b3d9150610cb8565b6020813d602011610d10575b81610cf860209383610d50565b81010312610b3957610d0990610d72565b5038610097565b3d9150610ceb565b60c0810190811067ffffffffffffffff82111761086e57604052565b6080810190811067ffffffffffffffff82111761086e57604052565b90601f8019910116810190811067ffffffffffffffff82111761086e57604052565b519081151582036108ae57565b919082519283825260005b848110610dab575050826000602080949584010152601f8019910116010190565b602081830181015184830182015201610d8a565b90815181526020820151916002831015610e1c5760a060c091610e199460208501526040810151600180841b0380911660408601526060820151166060850152608081015160808501520151918160a08201520190610d7f565b90565b634e487b7160e01b600052602160045260246000fd5b805115610e3f5760200190565b634e487b7160e01b600052603260045260246000fd5b805160011015610e3f5760400190565b805160021015610e3f5760600190565b90815180825260208080930193019160005b828110610e95575050505090565b835185529381019392810192600101610e87565b929190610ec760409160018652606060208701526060860190610e75565b930152565b929190835260209060018060a01b039283809216838601521660408401526080606084015261010083019184519260808086015283518091528261012086019401916000905b828210610f605750505050610f5560e092610f4060609387015191607f1992838883030160a0890152610e75565b906040870151908683030160c0870152610d7f565b930151151591015290565b8351811686529484019492840192600190910190610f12565b906040516020938482019263095ea7b360e01b845260018060a01b03166024830152604482015260448152610fad81610d34565b600092839283809351925af1903d1561107d573d9067ffffffffffffffff82116110695760405191610fe8601f8201601f1916860184610d50565b82523d818584013e5b8261102a575b5050156110015750565b6064906040519062461bcd60e51b825260048201526002602482015261534160f01b6044820152fd5b908092505190838215928315611047575b50505090503880610ff7565b848092939450010312610b745750816110609101610d72565b8038838161103b565b634e487b7160e01b81526041600452602490fd5b606090610ff156fea264697066735822122008b31213b2b2e1396eb20228579d5ac25fa0d79eb4f8ea759e993f43bdff726464736f6c63430008150033",
    "linkReferences": {}
  },
  "methodIdentifiers": {
    "useUnderlying(address,address,uint256,uint256,uint256,uint256)": "afc1ea58"
  },
  "id": 7
}