{
  "abi": [
    {
      "inputs": [
        {
          "internalType": "address",
          "name": "token",
          "type": "address"
        }
      ],
      "name": "TokenInNotValid",
      "type": "error"
    },
    {
      "inputs": [],
      "name": "totalUnderlying",
      "outputs": [
        {
          "internalType": "uint256",
          "name": "",
          "type": "uint256"
        }
      ],
      "stateMutability": "view",
      "type": "function"
    },
    {
      "inputs": [
        {
          "components": [
            {
              "internalType": "uint256",
              "name": "ozAmountIn",
              "type": "uint256"
            },
            {
              "internalType": "uint256",
              "name": "minWethOut",
              "type": "uint256"
            },
            {
              "internalType": "uint256",
              "name": "bptAmountIn",
              "type": "uint256"
            }
          ],
          "internalType": "struct TradeAmountsOut",
          "name": "amts_",
          "type": "tuple"
        },
        {
          "internalType": "address",
          "name": "ozToken_",
          "type": "address"
        },
        {
          "internalType": "address",
          "name": "owner_",
          "type": "address"
        },
        {
          "internalType": "address",
          "name": "receiver_",
          "type": "address"
        }
      ],
      "name": "useOzTokens",
      "outputs": [],
      "stateMutability": "nonpayable",
      "type": "function"
    },
    {
      "inputs": [
        {
          "internalType": "address",
          "name": "underlying_",
          "type": "address"
        },
        {
          "internalType": "address",
          "name": "user_",
          "type": "address"
        },
        {
          "components": [
            {
              "internalType": "uint256",
              "name": "amountIn",
              "type": "uint256"
            },
            {
              "internalType": "uint256",
              "name": "minWethOut",
              "type": "uint256"
            },
            {
              "internalType": "uint256",
              "name": "minRethOut",
              "type": "uint256"
            },
            {
              "internalType": "uint256",
              "name": "minBptOut",
              "type": "uint256"
            }
          ],
          "internalType": "struct TradeAmounts",
          "name": "amounts_",
          "type": "tuple"
        }
      ],
      "name": "useUnderlying",
      "outputs": [],
      "stateMutability": "nonpayable",
      "type": "function"
    }
  ],
  "bytecode": {
    "object": "0x608060405234801561001057600080fd5b5061151a806100206000396000f3fe608060405234801561001057600080fd5b50600436106100415760003560e01c80635879601914610046578063799efb861461005b578063c70920bc1461006e575b600080fd5b610059610054366004610f1e565b610088565b005b610059610069366004610fb8565b6101bb565b61007661037b565b60405190815260200160405180910390f35b6009546040805163038fff2d60e41b815290516000926001600160a01b0316916338fff2d09160048083019260209291908290030181865afa1580156100d2573d6000803e3d6000fd5b505050506040513d601f19601f820116820180604052508101906100f69190611051565b8251909150610113906001600160a01b03861690859030906103ed565b61012682600001518360200151866104f7565b60095460408051631c0de05160e01b815290516000926001600160a01b031691631c0de0519160048083019260609291908290030181865afa158015610170573d6000803e3d6000fd5b505050506040513d601f19601f82011682018060405250810190610194919061107a565b505090506101a6828460400151610638565b6101b483606001518361083c565b5050505050565b6009546040805163038fff2d60e41b815290516000926001600160a01b0316916338fff2d09160048083019260209291908290030181865afa158015610205573d6000803e3d6000fd5b505050506040513d601f19601f820116820180604052508101906102299190611051565b8551909150610246906001600160a01b03861690859030906103ed565b604080518082018252600f81526e01037bd2130b6101515151515151d1608d1b602082015290516370a0823160e01b81523060048201526102dd91906001600160a01b038716906370a08231906024015b602060405180830381865afa1580156102b4573d6000803e3d6000fd5b505050506040513d601f19601f820116820180604052508101906102d89190611051565b610a92565b604080518082018252601881527f6f7a42616c20616c696365202d2073686f756c6420303a200000000000000000602082015290516370a0823160e01b81526001600160a01b0385811660048301526103439291908716906370a0823190602401610297565b60405162461bcd60e51b8152602060048201526008602482015267657869746f6f6f6f60c01b60448201526064015b60405180910390fd5b6009546040516370a0823160e01b81523060048201526000916001600160a01b0316906370a0823190602401602060405180830381865afa1580156103c4573d6000803e3d6000fd5b505050506040513d601f19601f820116820180604052508101906103e89190611051565b905090565b604080516001600160a01b0385811660248301528481166044830152606480830185905283518084039091018152608490920183526020820180516001600160e01b03166323b872dd60e01b179052915160009283929088169161045191906110d3565b6000604051808303816000865af19150503d806000811461048e576040519150601f19603f3d011682016040523d82523d6000602084013e610493565b606091505b50915091508180156104bd5750805115806104bd5750808060200190518101906104bd91906110ef565b6104ef5760405162461bcd60e51b815260206004820152600360248201526229aa2360e91b6044820152606401610372565b505050505050565b600354610511906001600160a01b03838116911685610adb565b60408051610100810182526001600160a01b0383811682526002548116602083019081526101f48385019081523060608501908152426080860190815260a086018a815260c087018a8152600060e089018181526003549a5163414bf38960e01b81528a518a166004820152975189166024890152955162ffffff166044880152935187166064870152915160848601525160a48501525160c48401529051831660e483015292939091169063414bf38990610104016020604051808303816000875af11580156105e6573d6000803e3d6000fd5b505050506040513d601f19601f8201168201806040525081019061060a9190611051565b9050806000036101b457604051634c5a56af60e11b81526001600160a01b0384166004820152602401610372565b6040805160c0810182528381526000602082018190526002546001600160a01b03908116838501819052600854909116606084015292516370a0823160e01b8152306004820152909260808301916370a0823190602401602060405180830381865afa1580156106ac573d6000803e3d6000fd5b505050506040513d601f19601f820116820180604052508101906106d09190611051565b815260408051600080825260208083018452938401919091528151608081018352308082529381018290528083019390935260608301819052600754915163e969f6b360e01b815293945091926001600160a01b039091169063e969f6b39061073f90869086906004016111bb565b6020604051808303816000875af115801561075e573d6000803e3d6000fd5b505050506040513d601f19601f820116820180604052508101906107829190611051565b905060008185116107935781610795565b845b60065460808601516002549293506107ba926001600160a01b03908116921690610adb565b6006546040516352bbbe2960e01b81526001600160a01b03909116906352bbbe29906107f090879087908690429060040161120d565b6020604051808303816000875af115801561080f573d6000803e3d6000fd5b505050506040513d601f19601f820116820180604052508101906108339190611051565b50505050505050565b6008546040516370a0823160e01b81523060048201526000916001600160a01b0316906370a0823190602401602060405180830381865afa158015610885573d6000803e3d6000fd5b505050506040513d601f19601f820116820180604052508101906108a99190611051565b6006546008549192506108c9916001600160a01b03908116911683610adb565b604080516060810182526002546001600160a01b03908116825260095481166020830152600854169181019190915260009061090490610bd4565b9050600061092d6040518060600160405280600081526020016000815260200185815250610c5d565b9050600061094f60405180604001604052806000815260200186815250610cd2565b9050600061096984846109646001868c610d48565b610d78565b600754604051639ebbf05d60e01b81529192506000916001600160a01b0390911690639ebbf05d906109a5908a90309081908890600401611343565b6000604051808303816000875af11580156109c4573d6000803e3d6000fd5b505050506040513d6000823e601f3d908101601f191682016040526109ec919081019061137f565b5090506000610a0b898311610a015789610a03565b825b600554610dc9565b9050610a1e868661096460018886610d48565b60065460405163172b958560e31b81529194506001600160a01b03169063b95cac2890610a55908b90309081908990600401611343565b600060405180830381600087803b158015610a6f57600080fd5b505af1158015610a83573d6000803e3d6000fd5b50505050505050505050505050565b610ad78282604051602401610aa8929190611431565b60408051601f198184030181529190526020810180516001600160e01b03166309710a9d60e41b179052610deb565b5050565b604080516001600160a01b038481166024830152604480830185905283518084039091018152606490920183526020820180516001600160e01b031663095ea7b360e01b1790529151600092839290871691610b3791906110d3565b6000604051808303816000865af19150503d8060008114610b74576040519150601f19603f3d011682016040523d82523d6000602084013e610b79565b606091505b5091509150818015610ba3575080511580610ba3575080806020019051810190610ba391906110ef565b6101b45760405162461bcd60e51b8152602060048201526002602482015261534160f01b6044820152606401610372565b60408051600380825260808201909252606091908160208201848036833701905050915060005b81811015610c5657838160038110610c1557610c15611453565b6020020151838281518110610c2c57610c2c611453565b6001600160a01b039092166020928302919091019091015280610c4e8161147f565b915050610bfb565b5050919050565b60408051600380825260808201909252606091908160208201848036833701905050915060005b81811015610c5657838160038110610c9e57610c9e611453565b6020020151838281518110610cb557610cb5611453565b602090810291909101015280610cca8161147f565b915050610c84565b6040805160028082526060828101909352908181602001602082028036833701905050915060005b81811015610c5657838160028110610d1457610d14611453565b6020020151838281518110610d2b57610d2b611453565b602090810291909101015280610d408161147f565b915050610cfa565b6060838383604051602001610d5f93929190611498565b60405160208183030381529060405290505b9392505050565b610da560405180608001604052806060815260200160608152602001606081526020016000151581525090565b50604080516080810182529384526020840192909252908201526000606082015290565b6000610dd88383612710610e0c565b610de290846114d1565b90505b92915050565b80516a636f6e736f6c652e6c6f67602083016000808483855afa5050505050565b60008383026000198486098181108201900380610e415783610e365763ae47f7026000526004601cfd5b508290049050610d71565b808411610e565763ae47f7026000526004601cfd5b838587096000858103861695869004956003870260029081188089028203028089028203028089028203028089028203028089028203028089029091030291819003819004600101858411909403939093029190930391909104170290509392505050565b80356001600160a01b0381168114610ed257600080fd5b919050565b634e487b7160e01b600052604160045260246000fd5b604051601f8201601f1916810167ffffffffffffffff81118282101715610f1657610f16610ed7565b604052919050565b600080600083850360c0811215610f3457600080fd5b610f3d85610ebb565b9350610f4b60208601610ebb565b92506080603f1982011215610f5f57600080fd5b506040516080810181811067ffffffffffffffff82111715610f8357610f83610ed7565b806040525060408501358152606085013560208201526080850135604082015260a08501356060820152809150509250925092565b60008060008084860360c0811215610fcf57600080fd5b6060811215610fdd57600080fd5b506040516060810181811067ffffffffffffffff8211171561100157611001610ed7565b604090815286358252602080880135908301528681013590820152935061102a60608601610ebb565b925061103860808601610ebb565b915061104660a08601610ebb565b905092959194509250565b60006020828403121561106357600080fd5b5051919050565b80518015158114610ed257600080fd5b60008060006060848603121561108f57600080fd5b6110988461106a565b925060208401519150604084015190509250925092565b60005b838110156110ca5781810151838201526020016110b2565b50506000910152565b600082516110e58184602087016110af565b9190910192915050565b60006020828403121561110157600080fd5b610de28261106a565b634e487b7160e01b600052602160045260246000fd5b600081518084526111388160208601602086016110af565b601f01601f19169290920160200192915050565b8051825260006020820151600281106111675761116761110a565b80602085015250604082015160018060a01b03808216604086015280606085015116606086015250506080820151608084015260a082015160c060a08501526111b360c0850182611120565b949350505050565b60a0815260006111ce60a083018561114c565b9050610d71602083018480516001600160a01b039081168352602080830151151590840152604080830151909116908301526060908101511515910152565b60e08152600061122060e083018761114c565b905061125f602083018680516001600160a01b039081168352602080830151151590840152604080830151909116908301526060908101511515910152565b60a082019390935260c0015292915050565b600081518084526020808501945080840160005b838110156112a157815187529582019590820190600101611285565b509495945050505050565b8051608080845281519084018190526000916020919082019060a0860190845b818110156112f15783516001600160a01b0316835292840192918401916001016112cc565b50508285015191508581038387015261130a8183611271565b92505050604083015184820360408601526113258282611120565b915050606083015161133b606086018215159052565b509392505050565b8481526001600160a01b03848116602083015283166040820152608060608201819052600090611375908301846112ac565b9695505050505050565b6000806040838503121561139257600080fd5b8251915060208084015167ffffffffffffffff808211156113b257600080fd5b818601915086601f8301126113c657600080fd5b8151818111156113d8576113d8610ed7565b8060051b91506113e9848301610eed565b818152918301840191848101908984111561140357600080fd5b938501935b8385101561142157845182529385019390850190611408565b8096505050505050509250929050565b6040815260006114446040830185611120565b90508260208301529392505050565b634e487b7160e01b600052603260045260246000fd5b634e487b7160e01b600052601160045260246000fd5b60006001820161149157611491611469565b5060010190565b6000600485106114aa576114aa61110a565b848252606060208301526114c16060830185611271565b9050826040830152949350505050565b81810381811115610de557610de561146956fea264697066735822122097e94c9d45158d97a1e09df36a08b3a13ef322fc93b4057973b9323906f5283164736f6c63430008150033",
    "linkReferences": {}
  },
  "methodIdentifiers": {
    "totalUnderlying()": "c70920bc",
    "useOzTokens((uint256,uint256,uint256),address,address,address)": "799efb86",
    "useUnderlying(address,address,(uint256,uint256,uint256,uint256))": "58796019"
  },
  "id": 7
}