{
  "abi": [
    {
      "inputs": [
        {
          "internalType": "address",
          "name": "underlying_",
          "type": "address"
        },
        {
          "internalType": "address",
          "name": "user_",
          "type": "address"
        },
        {
          "internalType": "uint256",
          "name": "minWethOut_",
          "type": "uint256"
        },
        {
          "internalType": "uint256",
          "name": "minRethOutOffchain_",
          "type": "uint256"
        }
      ],
      "name": "useUnderlying",
      "outputs": [],
      "stateMutability": "nonpayable",
      "type": "function"
    }
  ],
  "bytecode": {
    "object": "0x608060405234801561001057600080fd5b5061104f806100206000396000f3fe608060405234801561001057600080fd5b506004361061002b5760003560e01c806357e725a214610030575b600080fd5b61004361003e366004610c4a565b610045565b005b6040516370a0823160e01b81523060048201526000906001600160a01b038616906370a0823190602401602060405180830381865afa15801561008c573d6000803e3d6000fd5b505050506040513d601f19601f820116820180604052508101906100b09190610c8c565b6003549091506100cd906001600160a01b038781169116836109f5565b60408051610100810182526001600160a01b0387811682526002548116602083019081526101f48385019081523060608501908152426080860190815260a0860188815260c087018b8152600060e08901908152600354995163414bf38960e01b8152895189166004820152965188166024880152945162ffffff166044870152925186166064860152905160848501525160a48401525160c483015251821660e48201529192169063414bf38990610104016020604051808303816000875af115801561019f573d6000803e3d6000fd5b505050506040513d601f19601f820116820180604052508101906101c39190610c8c565b5060095460408051631c0de05160e01b815290516000926001600160a01b031691631c0de0519160048083019260609291908290030181865afa15801561020e573d6000803e3d6000fd5b505050506040513d601f19601f820116820180604052508101906102329190610cb5565b50506002546008546040516370a0823160e01b815230600482015292935060009261032b9284926001600160a01b039182169291169082906370a0823190602401602060405180830381865afa158015610290573d6000803e3d6000fd5b505050506040513d601f19601f820116820180604052508101906102b49190610c8c565b6009546040805163038fff2d60e41b815290516001600160a01b03909216916338fff2d0916004808201926020929091908290030181865afa1580156102fe573d6000803e3d6000fd5b505050506040513d601f19601f820116820180604052508101906103229190610c8c565b93929190610af9565b6040805160808082018352600080835260208084018290528385018290526060938401829052845192830185523080845290830182905282850152918101829052600754925163e969f6b360e01b81529394509290916001600160a01b03169063e969f6b3906103a19086908690600401610dbf565b6020604051808303816000875af11580156103c0573d6000803e3d6000fd5b505050506040513d601f19601f820116820180604052508101906103e49190610c8c565b905060008188116103f557816103f7565b875b600654608086015160025492935061041c926001600160a01b039081169216906109f5565b6006546040516352bbbe2960e01b81526001600160a01b03909116906352bbbe2990610452908790879086904290600401610e18565b6020604051808303816000875af1158015610471573d6000803e3d6000fd5b505050506040513d601f19601f820116820180604052508101906104959190610c8c565b506006546008546040516370a0823160e01b815230600482015261051e926001600160a01b039081169216906370a0823190602401602060405180830381865afa1580156104e7573d6000803e3d6000fd5b505050506040513d601f19601f8201168201806040525081019061050b9190610c8c565b6008546001600160a01b031691906109f5565b6009546040516370a0823160e01b81523060048201526000916001600160a01b0316906370a0823190602401602060405180830381865afa158015610567573d6000803e3d6000fd5b505050506040513d601f19601f8201168201806040525081019061058b9190610c8c565b90506105bc6040518060400160405280600d81526020016c03130b61021282a103839329d1609d1b81525082610bc4565b6040805160038082526080820190925260009160208201606080368337505060025482519293506001600160a01b0316918391506000906105ff576105ff610e7c565b6001600160a01b03928316602091820292909201015260095482519116908290600190811061063057610630610e7c565b6001600160a01b03928316602091820292909201015260085482519116908290600290811061066157610661610e7c565b6001600160a01b03929092166020928302919091018201526040805160038082526080820190925260009290919082016060803683370190505090506000816000815181106106b2576106b2610e7c565b6020026020010181815250506000816001815181106106d3576106d3610e7c565b60209081029190910101526008546040516370a0823160e01b81523060048201526001600160a01b03909116906370a0823190602401602060405180830381865afa158015610726573d6000803e3d6000fd5b505050506040513d601f19601f8201168201806040525081019061074a9190610c8c565b8160028151811061075d5761075d610e7c565b6020908102919091010152604080516002808252606082019092526000918160200160208202803683370190505090506000816000815181106107a2576107a2610e7c565b60209081029190910101526008546040516370a0823160e01b81523060048201526001600160a01b03909116906370a0823190602401602060405180830381865afa1580156107f5573d6000803e3d6000fd5b505050506040513d601f19601f820116820180604052508101906108199190610c8c565b8160018151811061082c5761082c610e7c565b602002602001018181525050600060018260405160200161084e929190610ecd565b60408051808303601f19018152608083018252868352602080840187905283830182905260006060850152600654600954845163038fff2d60e41b815294519396506001600160a01b039182169463b95cac289492909116926338fff2d0926004808401938290030181865afa1580156108cc573d6000803e3d6000fd5b505050506040513d601f19601f820116820180604052508101906108f09190610c8c565b3030856040518563ffffffff1660e01b81526004016109129493929190610ef6565b600060405180830381600087803b15801561092c57600080fd5b505af1158015610940573d6000803e3d6000fd5b50506009546040516370a0823160e01b81523060048201526001600160a01b0390911692506370a082319150602401602060405180830381865afa15801561098c573d6000803e3d6000fd5b505050506040513d601f19601f820116820180604052508101906109b09190610c8c565b95506109e26040518060400160405280600e81526020016d03130b61021282a103837b9ba1d160951b81525087610bc4565b5050505050505050505050505050505050565b604080516001600160a01b038481166024830152604480830185905283518084039091018152606490920183526020820180516001600160e01b031663095ea7b360e01b1790529151600092839290871691610a519190610fc0565b6000604051808303816000865af19150503d8060008114610a8e576040519150601f19603f3d011682016040523d82523d6000602084013e610a93565b606091505b5091509150818015610abd575080511580610abd575080806020019051810190610abd9190610fdc565b610af25760405162461bcd60e51b8152602060048201526002602482015261534160f01b604482015260640160405180910390fd5b5050505050565b610b456040805160c0810190915260008082526020820190815260200160006001600160a01b0316815260200160006001600160a01b0316815260200160008152602001606081525090565b6040518060c00160405280878152602001866001811115610b6857610b68610cea565b81526001600160a01b038087166020830152851660408201526060810184905260800160006040519080825280601f01601f191660200182016040528015610bb7576020820181803683370190505b5090529695505050505050565b610c098282604051602401610bda929190610ff7565b60408051601f198184030181529190526020810180516001600160e01b03166309710a9d60e41b179052610c0d565b5050565b80516a636f6e736f6c652e6c6f67602083016000808483855afa5050505050565b80356001600160a01b0381168114610c4557600080fd5b919050565b60008060008060808587031215610c6057600080fd5b610c6985610c2e565b9350610c7760208601610c2e565b93969395505050506040820135916060013590565b600060208284031215610c9e57600080fd5b5051919050565b80518015158114610c4557600080fd5b600080600060608486031215610cca57600080fd5b610cd384610ca5565b925060208401519150604084015190509250925092565b634e487b7160e01b600052602160045260246000fd5b60005b83811015610d1b578181015183820152602001610d03565b50506000910152565b60008151808452610d3c816020860160208601610d00565b601f01601f19169290920160200192915050565b805182526000602082015160028110610d6b57610d6b610cea565b80602085015250604082015160018060a01b03808216604086015280606085015116606086015250506080820151608084015260a082015160c060a0850152610db760c0850182610d24565b949350505050565b60a081526000610dd260a0830185610d50565b9050610e11602083018480516001600160a01b039081168352602080830151151590840152604080830151909116908301526060908101511515910152565b9392505050565b60e081526000610e2b60e0830187610d50565b9050610e6a602083018680516001600160a01b039081168352602080830151151590840152604080830151909116908301526060908101511515910152565b60a082019390935260c0015292915050565b634e487b7160e01b600052603260045260246000fd5b600081518084526020808501945080840160005b83811015610ec257815187529582019590820190600101610ea6565b509495945050505050565b600060048410610edf57610edf610cea565b83825260406020830152610db76040830184610e92565b8481526000602060018060a01b038087168285015280861660408501526080606085015261010084018551608080870152818151808452610120880191508583019350600092505b80831015610f6057835185168252928501926001929092019190850190610f3e565b50848801519450607f199350838782030160a0880152610f808186610e92565b94505050506040850151818584030160c0860152610f9e8382610d24565b925050506060840151610fb560e085018215159052565b509695505050505050565b60008251610fd2818460208701610d00565b9190910192915050565b600060208284031215610fee57600080fd5b610e1182610ca5565b60408152600061100a6040830185610d24565b9050826020830152939250505056fea264697066735822122093ba9fb4fdd4edd3512d46222502732958486efc9e5a8d57d8a2c7afbe794cad64736f6c63430008150033",
    "linkReferences": {}
  },
  "methodIdentifiers": {
    "useUnderlying(address,address,uint256,uint256)": "57e725a2"
  },
  "id": 7
}