{
  "abi": [
    {
      "inputs": [
        {
          "internalType": "address",
          "name": "token",
          "type": "address"
        }
      ],
      "name": "OZError11",
      "type": "error"
    },
    {
      "inputs": [
        {
          "internalType": "address",
          "name": "token",
          "type": "address"
        }
      ],
      "name": "OZError12",
      "type": "error"
    },
    {
      "anonymous": false,
      "inputs": [
        {
          "indexed": true,
          "internalType": "address",
          "name": "ozToken",
          "type": "address"
        }
      ],
      "name": "TokenCreated",
      "type": "event"
    },
    {
      "inputs": [
        {
          "internalType": "address",
          "name": "underlying_",
          "type": "address"
        },
        {
          "internalType": "string",
          "name": "name_",
          "type": "string"
        },
        {
          "internalType": "string",
          "name": "symbol_",
          "type": "string"
        }
      ],
      "name": "createOzToken",
      "outputs": [
        {
          "internalType": "address",
          "name": "",
          "type": "address"
        }
      ],
      "stateMutability": "nonpayable",
      "type": "function"
    },
    {
      "inputs": [],
      "name": "getOzTokenRegistry",
      "outputs": [
        {
          "internalType": "address[]",
          "name": "",
          "type": "address[]"
        }
      ],
      "stateMutability": "view",
      "type": "function"
    },
    {
      "inputs": [
        {
          "internalType": "address",
          "name": "underlying_",
          "type": "address"
        }
      ],
      "name": "isInRegistry",
      "outputs": [
        {
          "internalType": "bool",
          "name": "",
          "type": "bool"
        }
      ],
      "stateMutability": "view",
      "type": "function"
    }
  ],
  "bytecode": {
    "object": "0x608060405234801561001057600080fd5b506114bb806100206000396000f3fe60806040523480156200001157600080fd5b5060043610620000465760003560e01c806378e3f7a4146200004b57806380dafe5a146200007f578063e4bb26f21462000098575b600080fd5b620000626200005c36600462000520565b620000c0565b6040516001600160a01b0390911681526020015b60405180910390f35b6200008962000286565b6040516200007691906200059f565b620000af620000a9366004620005ee565b620002ed565b604051901515815260200162000076565b6000620000cd84620002ed565b15620000fc5760405163a5f9500960e01b81526001600160a01b03851660048201526024015b60405180910390fd5b6001600160a01b0384166200013057604051631448bf2160e01b81526001600160a01b0385166004820152602401620000f3565b600254604051600091620001579187916001600160a01b031690879087906024016200065d565b60408051601f198184030181529181526020820180516001600160e01b031663100b506960e11b17905260105490519192506000916001600160a01b03909116908390620001a5906200044e565b620001b2929190620006aa565b604051809103906000f080158015620001cf573d6000803e3d6000fd5b5090506200020960405180604001604052806013815260200172030b2323932b9b9943732bbaa37b5b2b7149d1606d1b81525082620003e0565b60018054808201825560009182527fb10e2d527612073b26eecdfd717e6a320cf44b4afac2b0732d9fcbe2b7fa0cf60180546001600160a01b0319166001600160a01b03841690811790915560405190917f2e2b3f61b70d2d131b2a807371103cc98d51adcaa5e9a8f9c32658ad8426e74e91a295945050505050565b60606000600101805480602002602001604051908101604052809291908181526020018280548015620002e357602002820191906000526020600020905b81546001600160a01b03168152600190910190602001808311620002c4575b5050505050905090565b600154600090808203620003045750600092915050565b60005b81811015620003d657836001600160a01b031660006001018281548110620003335762000333620006d8565b60009182526020918290200154604080516338d52e0f60e01b815290516001600160a01b03909216926338d52e0f926004808401938290030181865afa15801562000382573d6000803e3d6000fd5b505050506040513d601f19601f82011682018060405250810190620003a89190620006ee565b6001600160a01b031603620003c1575060019392505050565b80620003cd816200070e565b91505062000307565b5060009392505050565b620004298282604051602401620003f992919062000736565b60408051601f198184030181529190526020810180516001600160e01b031663319af33360e01b1790526200042d565b5050565b80516a636f6e736f6c652e6c6f67602083016000808483855afa5050505050565b610d23806200076383390190565b6001600160a01b03811681146200047257600080fd5b50565b634e487b7160e01b600052604160045260246000fd5b600082601f8301126200049d57600080fd5b813567ffffffffffffffff80821115620004bb57620004bb62000475565b604051601f8301601f19908116603f01168101908282118183101715620004e657620004e662000475565b816040528381528660208588010111156200050057600080fd5b836020870160208301376000602085830101528094505050505092915050565b6000806000606084860312156200053657600080fd5b833562000543816200045c565b9250602084013567ffffffffffffffff808211156200056157600080fd5b6200056f878388016200048b565b935060408601359150808211156200058657600080fd5b5062000595868287016200048b565b9150509250925092565b6020808252825182820181905260009190848201906040850190845b81811015620005e25783516001600160a01b031683529284019291840191600101620005bb565b50909695505050505050565b6000602082840312156200060157600080fd5b81356200060e816200045c565b9392505050565b6000815180845260005b818110156200063d576020818501810151868301820152016200061f565b506000602082860101526020601f19601f83011685010191505092915050565b6001600160a01b038581168252841660208201526080604082018190526000906200068b9083018562000615565b82810360608401526200069f818562000615565b979650505050505050565b6001600160a01b0383168152604060208201819052600090620006d09083018462000615565b949350505050565b634e487b7160e01b600052603260045260246000fd5b6000602082840312156200070157600080fd5b81516200060e816200045c565b6000600182016200072f57634e487b7160e01b600052601160045260246000fd5b5060010190565b6040815260006200074b604083018562000615565b905060018060a01b0383166020830152939250505056fe60806040523480156200001157600080fd5b5060405162000d2338038062000d2383398101604081905262000034916200045f565b818162000044828260006200004e565b505050506200059e565b620000598362000118565b6040516001600160a01b038416907f1cf3b03a6cf19fa2baba4df148e9dcabedea7f8a5c07840e207e5c089be95d3e90600090a26000825111806200009b5750805b15620001135762000111836001600160a01b0316635c60da1b6040518163ffffffff1660e01b8152600401602060405180830381865afa158015620000e4573d6000803e3d6000fd5b505050506040513d601f19601f820116820180604052508101906200010a91906200052d565b83620002a3565b505b505050565b6001600160a01b0381163b620001835760405162461bcd60e51b815260206004820152602560248201527f455243313936373a206e657720626561636f6e206973206e6f74206120636f6e6044820152641d1c9858dd60da1b60648201526084015b60405180910390fd5b620001fb816001600160a01b0316635c60da1b6040518163ffffffff1660e01b8152600401602060405180830381865afa158015620001c6573d6000803e3d6000fd5b505050506040513d601f19601f82011682018060405250810190620001ec91906200052d565b6001600160a01b03163b151590565b620002625760405162461bcd60e51b815260206004820152603060248201527f455243313936373a20626561636f6e20696d706c656d656e746174696f6e206960448201526f1cc81b9bdd08184818dbdb9d1c9858dd60821b60648201526084016200017a565b7fa3f0ad74e5423aebfd80d3ef4346578335a9a72aeaee59ff6cb3582b35133d5080546001600160a01b0319166001600160a01b0392909216919091179055565b6060620002cb838360405180606001604052806027815260200162000cfc60279139620002d2565b9392505050565b6060600080856001600160a01b031685604051620002f191906200054b565b600060405180830381855af49150503d80600081146200032e576040519150601f19603f3d011682016040523d82523d6000602084013e62000333565b606091505b509092509050620003478683838762000351565b9695505050505050565b60608315620003c5578251600003620003bd576001600160a01b0385163b620003bd5760405162461bcd60e51b815260206004820152601d60248201527f416464726573733a2063616c6c20746f206e6f6e2d636f6e747261637400000060448201526064016200017a565b5081620003d1565b620003d18383620003d9565b949350505050565b815115620003ea5781518083602001fd5b8060405162461bcd60e51b81526004016200017a919062000569565b80516001600160a01b03811681146200041e57600080fd5b919050565b634e487b7160e01b600052604160045260246000fd5b60005b83811015620004565781810151838201526020016200043c565b50506000910152565b600080604083850312156200047357600080fd5b6200047e8362000406565b60208401519092506001600160401b03808211156200049c57600080fd5b818501915085601f830112620004b157600080fd5b815181811115620004c657620004c662000423565b604051601f8201601f19908116603f01168101908382118183101715620004f157620004f162000423565b816040528281528860208487010111156200050b57600080fd5b6200051e83602083016020880162000439565b80955050505050509250929050565b6000602082840312156200054057600080fd5b620002cb8262000406565b600082516200055f81846020870162000439565b9190910192915050565b60208152600082518060208401526200058a81604085016020870162000439565b601f01601f19169190910160400192915050565b61074e80620005ae6000396000f3fe6080604052600436106100385760003560e01c8063099af0e91461004f57806359659e901461006f5780635c60da1b146100a057610047565b36610047576100456100b5565b005b6100456100b5565b34801561005b57600080fd5b5061004561006a36600461059d565b6100c7565b34801561007b57600080fd5b506100846100d5565b6040516001600160a01b03909116815260200160405180910390f35b3480156100ac57600080fd5b50610084610112565b6100c56100c0610118565b6101ac565b565b6100d182826101d5565b5050565b600061010d600061010d7fa3f0ad74e5423aebfd80d3ef4346578335a9a72aeaee59ff6cb3582b35133d50546001600160a01b031690565b905090565b600061010d5b600061014b7fa3f0ad74e5423aebfd80d3ef4346578335a9a72aeaee59ff6cb3582b35133d50546001600160a01b031690565b6001600160a01b0316635c60da1b6040518163ffffffff1660e01b8152600401602060405180830381865afa158015610188573d6000803e3d6000fd5b505050506040513d601f19601f8201168201806040525081019061010d9190610661565b3660008037600080366000845af43d6000803e8080156101cb573d6000f35b3d6000fd5b505050565b6100d1828260006101e58361029c565b6040516001600160a01b038416907f1cf3b03a6cf19fa2baba4df148e9dcabedea7f8a5c07840e207e5c089be95d3e90600090a26000825111806102265750805b156101d057610296836001600160a01b0316635c60da1b6040518163ffffffff1660e01b8152600401602060405180830381865afa15801561026c573d6000803e3d6000fd5b505050506040513d601f19601f820116820180604052508101906102909190610661565b83610420565b50505050565b6001600160a01b0381163b6103065760405162461bcd60e51b815260206004820152602560248201527f455243313936373a206e657720626561636f6e206973206e6f74206120636f6e6044820152641d1c9858dd60da1b60648201526084015b60405180910390fd5b61037a816001600160a01b0316635c60da1b6040518163ffffffff1660e01b8152600401602060405180830381865afa158015610347573d6000803e3d6000fd5b505050506040513d601f19601f8201168201806040525081019061036b9190610661565b6001600160a01b03163b151590565b6103df5760405162461bcd60e51b815260206004820152603060248201527f455243313936373a20626561636f6e20696d706c656d656e746174696f6e206960448201526f1cc81b9bdd08184818dbdb9d1c9858dd60821b60648201526084016102fd565b7fa3f0ad74e5423aebfd80d3ef4346578335a9a72aeaee59ff6cb3582b35133d5080546001600160a01b0319166001600160a01b0392909216919091179055565b606061044583836040518060600160405280602781526020016106f26027913961044c565b9392505050565b6060600080856001600160a01b03168560405161046991906106a2565b600060405180830381855af49150503d80600081146104a4576040519150601f19603f3d011682016040523d82523d6000602084013e6104a9565b606091505b50915091506104ba868383876104c4565b9695505050505050565b6060831561053357825160000361052c576001600160a01b0385163b61052c5760405162461bcd60e51b815260206004820152601d60248201527f416464726573733a2063616c6c20746f206e6f6e2d636f6e747261637400000060448201526064016102fd565b508161053d565b61053d8383610545565b949350505050565b8151156105555781518083602001fd5b8060405162461bcd60e51b81526004016102fd91906106be565b6001600160a01b038116811461058457600080fd5b50565b634e487b7160e01b600052604160045260246000fd5b600080604083850312156105b057600080fd5b82356105bb8161056f565b9150602083013567ffffffffffffffff808211156105d857600080fd5b818501915085601f8301126105ec57600080fd5b8135818111156105fe576105fe610587565b604051601f8201601f19908116603f0116810190838211818310171561062657610626610587565b8160405282815288602084870101111561063f57600080fd5b8260208601602083013760006020848301015280955050505050509250929050565b60006020828403121561067357600080fd5b81516104458161056f565b60005b83811015610699578181015183820152602001610681565b50506000910152565b600082516106b481846020870161067e565b9190910192915050565b60208152600082518060208401526106dd81604085016020870161067e565b601f01601f1916919091016040019291505056fe416464726573733a206c6f772d6c6576656c2064656c65676174652063616c6c206661696c6564a2646970667358221220f6ed685d25669eb34dce496d674729e65bfc1e2cd5ec67a4f6271292ce1bd7de64736f6c63430008150033416464726573733a206c6f772d6c6576656c2064656c65676174652063616c6c206661696c6564a2646970667358221220eb5a529d7aa766362989fb4a854ddecef7030ec6011e9a8dc75e04cbd07921a964736f6c63430008150033",
    "linkReferences": {}
  },
  "methodIdentifiers": {
    "createOzToken(address,string,string)": "78e3f7a4",
    "getOzTokenRegistry()": "80dafe5a",
    "isInRegistry(address)": "e4bb26f2"
  },
  "id": 13
}