{
  "abi": [
    {
      "inputs": [
        {
          "internalType": "address",
          "name": "token",
          "type": "address"
        }
      ],
      "name": "OZError11",
      "type": "error"
    },
    {
      "inputs": [
        {
          "internalType": "address",
          "name": "token",
          "type": "address"
        }
      ],
      "name": "OZError12",
      "type": "error"
    },
    {
      "anonymous": false,
      "inputs": [
        {
          "indexed": true,
          "internalType": "address",
          "name": "ozToken",
          "type": "address"
        }
      ],
      "name": "TokenCreated",
      "type": "event"
    },
    {
      "inputs": [
        {
          "internalType": "address",
          "name": "underlying_",
          "type": "address"
        },
        {
          "components": [
            {
              "internalType": "string",
              "name": "name",
              "type": "string"
            },
            {
              "internalType": "string",
              "name": "symbol",
              "type": "string"
            }
          ],
          "internalType": "struct NewToken",
          "name": "ozToken_",
          "type": "tuple"
        },
        {
          "components": [
            {
              "internalType": "string",
              "name": "name",
              "type": "string"
            },
            {
              "internalType": "string",
              "name": "symbol",
              "type": "string"
            }
          ],
          "internalType": "struct NewToken",
          "name": "wozToken_",
          "type": "tuple"
        }
      ],
      "name": "createOzToken",
      "outputs": [
        {
          "internalType": "address",
          "name": "",
          "type": "address"
        },
        {
          "internalType": "address",
          "name": "",
          "type": "address"
        }
      ],
      "stateMutability": "nonpayable",
      "type": "function"
    },
    {
      "inputs": [],
      "name": "getOzTokenRegistry",
      "outputs": [
        {
          "internalType": "address[]",
          "name": "",
          "type": "address[]"
        }
      ],
      "stateMutability": "view",
      "type": "function"
    },
    {
      "inputs": [
        {
          "internalType": "address",
          "name": "underlying_",
          "type": "address"
        }
      ],
      "name": "isInRegistry",
      "outputs": [
        {
          "internalType": "bool",
          "name": "",
          "type": "bool"
        }
      ],
      "stateMutability": "view",
      "type": "function"
    }
  ],
  "bytecode": {
    "object": "0x608060405234801561001057600080fd5b5061205f806100206000396000f3fe60806040523480156200001157600080fd5b5060043610620000465760003560e01c80637f3c2151146200004b57806380dafe5a1462000087578063e4bb26f214620000a0575b600080fd5b620000626200005c366004620006a5565b620000c8565b604080516001600160a01b039384168152929091166020830152015b60405180910390f35b62000091620002c6565b6040516200007e919062000724565b620000b7620000b136600462000773565b6200032d565b60405190151581526020016200007e565b600080620000d6856200032d565b15620001055760405163a5f9500960e01b81526001600160a01b03861660048201526024015b60405180910390fd5b6001600160a01b0385166200013957604051631448bf2160e01b81526001600160a01b0386166004820152602401620000fc565b62000145600162000420565b6002548451602086015160405160009362000174938a936001600160a01b0390921692909190602401620007e2565b60408051601f198184030181529190526020810180516001600160e01b031663100b506960e11b1790529050620001ac600262000420565b600030826000604051620001c09062000534565b620001ce939291906200082f565b604051809103906000f080158015620001eb573d6000803e3d6000fd5b509050620001fa600362000420565b8451602086015160405160009262000219929091859060240162000865565b60408051601f198184030181529190526020810180516001600160e01b03166303bf912560e11b179052905062000251600462000420565b600030826001604051620002659062000542565b62000273939291906200082f565b604051809103906000f08015801562000290573d6000803e3d6000fd5b5090506200029f600562000420565b620002ab838a6200046b565b620002b7600662000420565b91989197509095505050505050565b606060006001018054806020026020016040519081016040528092919081815260200182805480156200032357602002820191906000526020600020905b81546001600160a01b0316815260019091019060200180831162000304575b5050505050905090565b600154600090808203620003445750600092915050565b60005b818110156200041657836001600160a01b031660006001018281548110620003735762000373620008a7565b60009182526020918290200154604080516338d52e0f60e01b815290516001600160a01b03909216926338d52e0f926004808401938290030181865afa158015620003c2573d6000803e3d6000fd5b505050506040513d601f19601f82011682018060405250810190620003e89190620008bd565b6001600160a01b03160362000401575060019392505050565b806200040d81620008dd565b91505062000347565b5060009392505050565b62000468816040516024016200043891815260200190565b60408051601f198184030181529190526020810180516001600160e01b031663f5b1bba960e01b17905262000513565b50565b6001805480820182557fb10e2d527612073b26eecdfd717e6a320cf44b4afac2b0732d9fcbe2b7fa0cf60180546001600160a01b038086166001600160a01b031992831681179093556000838152601560209081526040808320805460ff19169097179096559186168152600b90915283812080549092168317909155915190917f2e2b3f61b70d2d131b2a807371103cc98d51adcaa5e9a8f9c32658ad8426e74e91a25050565b80516a636f6e736f6c652e6c6f67602083016000808483855afa5050505050565b610b92806200090683390190565b610b92806200149883390190565b6001600160a01b03811681146200046857600080fd5b634e487b7160e01b600052604160045260246000fd5b600082601f8301126200058e57600080fd5b813567ffffffffffffffff80821115620005ac57620005ac62000566565b604051601f8301601f19908116603f01168101908282118183101715620005d757620005d762000566565b81604052838152866020858801011115620005f157600080fd5b836020870160208301376000602085830101528094505050505092915050565b6000604082840312156200062457600080fd5b6040516040810167ffffffffffffffff82821081831117156200064b576200064b62000566565b8160405282935084359150808211156200066457600080fd5b62000672868387016200057c565b835260208501359150808211156200068957600080fd5b5062000698858286016200057c565b6020830152505092915050565b600080600060608486031215620006bb57600080fd5b8335620006c88162000550565b9250602084013567ffffffffffffffff80821115620006e657600080fd5b620006f48783880162000611565b935060408601359150808211156200070b57600080fd5b506200071a8682870162000611565b9150509250925092565b6020808252825182820181905260009190848201906040850190845b81811015620007675783516001600160a01b03168352928401929184019160010162000740565b50909695505050505050565b6000602082840312156200078657600080fd5b8135620007938162000550565b9392505050565b6000815180845260005b81811015620007c257602081850181015186830182015201620007a4565b506000602082860101526020601f19601f83011685010191505092915050565b6001600160a01b0385811682528416602082015260806040820181905260009062000810908301856200079a565b82810360608401526200082481856200079a565b979650505050505050565b6001600160a01b038416815260606020820181905260009062000855908301856200079a565b9050826040830152949350505050565b6060815260006200087a60608301866200079a565b82810360208401526200088e81866200079a565b91505060018060a01b0383166040830152949350505050565b634e487b7160e01b600052603260045260246000fd5b600060208284031215620008d057600080fd5b8151620007938162000550565b600060018201620008fe57634e487b7160e01b600052601160045260246000fd5b506001019056fe60806040523480156200001157600080fd5b5060405162000b9238038062000b9283398101604081905262000034916200060e565b82828262000046838360008462000052565b5050505050506200084f565b6200005e600b620001c6565b620000698462000215565b62000075600c620001c6565b6040516001600160a01b038516907f1cf3b03a6cf19fa2baba4df148e9dcabedea7f8a5c07840e207e5c089be95d3e90600090a2600083511180620000b75750815b15620001c057620000c9600d620001c6565b6000846001600160a01b0316632d8bbd366040518163ffffffff1660e01b8152600401600060405180830381865afa1580156200010a573d6000803e3d6000fd5b505050506040513d6000823e601f3d908101601f19168201604052620001349190810190620006cb565b9050620001836040518060400160405280600781526020016603737ba10181d160cd1b8152508284815181106200016f576200016f62000784565b60200260200101516200039e60201b60201c565b620001b18183815181106200019c576200019c62000784565b602002602001015185620003ef60201b60201c565b50620001be600e620001c6565b505b50505050565b6200021281604051602401620001de91815260200190565b60408051601f198184030181529190526020810180516001600160e01b0390811663f5b1bba960e01b179091526200041e16565b50565b6001600160a01b0381163b6200024e5760405163fdd18a9560e01b81526001600160a01b03821660048201526024015b60405180910390fd5b6000816001600160a01b0316632d8bbd366040518163ffffffff1660e01b8152600401600060405180830381865afa1580156200028f573d6000803e3d6000fd5b505050506040513d6000823e601f3d908101601f19168201604052620002b99190810190620006cb565b805190915060005b818110156200035857620002f7838281518110620002e357620002e362000784565b60200260200101516200043f60201b60201c565b620003435782818151811062000311576200031162000784565b602002602001015160405163068a70ab60e51b81526004016200024591906001600160a01b0391909116815260200190565b806200034f816200079a565b915050620002c1565b50827fa3f0ad74e5423aebfd80d3ef4346578335a9a72aeaee59ff6cb3582b35133d5080546001600160a01b0319166001600160a01b0392909216919091179055505050565b620003eb8282604051602401620003b7929190620007f0565b60408051601f198184030181529190526020810180516001600160e01b0390811663319af33360e01b179091526200041e16565b5050565b606062000417838360405180606001604052806027815260200162000b6b602791396200044e565b9392505050565b80516a636f6e736f6c652e6c6f67602083016000808483855afa5050505050565b6001600160a01b03163b151590565b6060600080856001600160a01b0316856040516200046d91906200081c565b600060405180830381855af49150503d8060008114620004aa576040519150601f19603f3d011682016040523d82523d6000602084013e620004af565b606091505b509092509050620004c386838387620004cd565b9695505050505050565b606083156200054157825160000362000539576001600160a01b0385163b620005395760405162461bcd60e51b815260206004820152601d60248201527f416464726573733a2063616c6c20746f206e6f6e2d636f6e7472616374000000604482015260640162000245565b50816200054d565b6200054d838362000555565b949350505050565b815115620005665781518083602001fd5b8060405162461bcd60e51b81526004016200024591906200083a565b80516001600160a01b03811681146200059a57600080fd5b919050565b634e487b7160e01b600052604160045260246000fd5b604051601f8201601f191681016001600160401b0381118282101715620005e057620005e06200059f565b604052919050565b60005b8381101562000605578181015183820152602001620005eb565b50506000910152565b6000806000606084860312156200062457600080fd5b6200062f8462000582565b60208501519093506001600160401b03808211156200064d57600080fd5b818601915086601f8301126200066257600080fd5b8151818111156200067757620006776200059f565b6200068c601f8201601f1916602001620005b5565b9150808252876020828501011115620006a457600080fd5b620006b7816020840160208601620005e8565b508093505050604084015190509250925092565b60006020808385031215620006df57600080fd5b82516001600160401b0380821115620006f757600080fd5b818501915085601f8301126200070c57600080fd5b8151818111156200072157620007216200059f565b8060051b915062000734848301620005b5565b81815291830184019184810190888411156200074f57600080fd5b938501935b838510156200077857620007688562000582565b8252938501939085019062000754565b98975050505050505050565b634e487b7160e01b600052603260045260246000fd5b600060018201620007bb57634e487b7160e01b600052601160045260246000fd5b5060010190565b60008151808452620007dc816020860160208601620005e8565b601f01601f19169290920160200192915050565b604081526000620008056040830185620007c2565b905060018060a01b03831660208301529392505050565b6000825162000830818460208701620005e8565b9190910192915050565b602081526000620004176020830184620007c2565b61030c806200085f6000396000f3fe60806040526004361061002d5760003560e01c806359659e90146100445780635c60da1b146100755761003c565b3661003c5761003a61008a565b005b61003a61008a565b34801561005057600080fd5b5061005961009c565b6040516001600160a01b03909116815260200160405180910390f35b34801561008157600080fd5b506100596100ab565b61009a6100956100b1565b6100da565b565b60006100a66100fe565b905090565b60006100a65b60006100bb610131565b6000815181106100cd576100cd6101c9565b6020026020010151905090565b3660008037600080366000845af43d6000803e8080156100f9573d6000f35b3d6000fd5b60006100a67fa3f0ad74e5423aebfd80d3ef4346578335a9a72aeaee59ff6cb3582b35133d50546001600160a01b031690565b60606101647fa3f0ad74e5423aebfd80d3ef4346578335a9a72aeaee59ff6cb3582b35133d50546001600160a01b031690565b6001600160a01b0316632d8bbd366040518163ffffffff1660e01b8152600401600060405180830381865afa1580156101a1573d6000803e3d6000fd5b505050506040513d6000823e601f3d908101601f191682016040526100a69190810190610211565b634e487b7160e01b600052603260045260246000fd5b634e487b7160e01b600052604160045260246000fd5b80516001600160a01b038116811461020c57600080fd5b919050565b6000602080838503121561022457600080fd5b825167ffffffffffffffff8082111561023c57600080fd5b818501915085601f83011261025057600080fd5b815181811115610262576102626101df565b8060051b604051601f19603f83011681018181108582111715610287576102876101df565b6040529182528482019250838101850191888311156102a557600080fd5b938501935b828510156102ca576102bb856101f5565b845293850193928501926102aa565b9897505050505050505056fea26469706673582212201461f09ffd8711002090cace6a2440e32109fcd382b73738259d48a8de5544db64736f6c63430008150033416464726573733a206c6f772d6c6576656c2064656c65676174652063616c6c206661696c656460806040523480156200001157600080fd5b5060405162000b9238038062000b9283398101604081905262000034916200060e565b82828262000046838360008462000052565b5050505050506200084f565b6200005e600b620001c6565b620000698462000215565b62000075600c620001c6565b6040516001600160a01b038516907f1cf3b03a6cf19fa2baba4df148e9dcabedea7f8a5c07840e207e5c089be95d3e90600090a2600083511180620000b75750815b15620001c057620000c9600d620001c6565b6000846001600160a01b0316632d8bbd366040518163ffffffff1660e01b8152600401600060405180830381865afa1580156200010a573d6000803e3d6000fd5b505050506040513d6000823e601f3d908101601f19168201604052620001349190810190620006cb565b9050620001836040518060400160405280600781526020016603737ba10181d160cd1b8152508284815181106200016f576200016f62000784565b60200260200101516200039e60201b60201c565b620001b18183815181106200019c576200019c62000784565b602002602001015185620003ef60201b60201c565b50620001be600e620001c6565b505b50505050565b6200021281604051602401620001de91815260200190565b60408051601f198184030181529190526020810180516001600160e01b0390811663f5b1bba960e01b179091526200041e16565b50565b6001600160a01b0381163b6200024e5760405163fdd18a9560e01b81526001600160a01b03821660048201526024015b60405180910390fd5b6000816001600160a01b0316632d8bbd366040518163ffffffff1660e01b8152600401600060405180830381865afa1580156200028f573d6000803e3d6000fd5b505050506040513d6000823e601f3d908101601f19168201604052620002b99190810190620006cb565b805190915060005b818110156200035857620002f7838281518110620002e357620002e362000784565b60200260200101516200043f60201b60201c565b620003435782818151811062000311576200031162000784565b602002602001015160405163068a70ab60e51b81526004016200024591906001600160a01b0391909116815260200190565b806200034f816200079a565b915050620002c1565b50827fa3f0ad74e5423aebfd80d3ef4346578335a9a72aeaee59ff6cb3582b35133d5080546001600160a01b0319166001600160a01b0392909216919091179055505050565b620003eb8282604051602401620003b7929190620007f0565b60408051601f198184030181529190526020810180516001600160e01b0390811663319af33360e01b179091526200041e16565b5050565b606062000417838360405180606001604052806027815260200162000b6b602791396200044e565b9392505050565b80516a636f6e736f6c652e6c6f67602083016000808483855afa5050505050565b6001600160a01b03163b151590565b6060600080856001600160a01b0316856040516200046d91906200081c565b600060405180830381855af49150503d8060008114620004aa576040519150601f19603f3d011682016040523d82523d6000602084013e620004af565b606091505b509092509050620004c386838387620004cd565b9695505050505050565b606083156200054157825160000362000539576001600160a01b0385163b620005395760405162461bcd60e51b815260206004820152601d60248201527f416464726573733a2063616c6c20746f206e6f6e2d636f6e7472616374000000604482015260640162000245565b50816200054d565b6200054d838362000555565b949350505050565b815115620005665781518083602001fd5b8060405162461bcd60e51b81526004016200024591906200083a565b80516001600160a01b03811681146200059a57600080fd5b919050565b634e487b7160e01b600052604160045260246000fd5b604051601f8201601f191681016001600160401b0381118282101715620005e057620005e06200059f565b604052919050565b60005b8381101562000605578181015183820152602001620005eb565b50506000910152565b6000806000606084860312156200062457600080fd5b6200062f8462000582565b60208501519093506001600160401b03808211156200064d57600080fd5b818601915086601f8301126200066257600080fd5b8151818111156200067757620006776200059f565b6200068c601f8201601f1916602001620005b5565b9150808252876020828501011115620006a457600080fd5b620006b7816020840160208601620005e8565b508093505050604084015190509250925092565b60006020808385031215620006df57600080fd5b82516001600160401b0380821115620006f757600080fd5b818501915085601f8301126200070c57600080fd5b8151818111156200072157620007216200059f565b8060051b915062000734848301620005b5565b81815291830184019184810190888411156200074f57600080fd5b938501935b838510156200077857620007688562000582565b8252938501939085019062000754565b98975050505050505050565b634e487b7160e01b600052603260045260246000fd5b600060018201620007bb57634e487b7160e01b600052601160045260246000fd5b5060010190565b60008151808452620007dc816020860160208601620005e8565b601f01601f19169290920160200192915050565b604081526000620008056040830185620007c2565b905060018060a01b03831660208301529392505050565b6000825162000830818460208701620005e8565b9190910192915050565b602081526000620004176020830184620007c2565b61030c806200085f6000396000f3fe60806040526004361061002d5760003560e01c806359659e90146100445780635c60da1b146100755761003c565b3661003c5761003a61008a565b005b61003a61008a565b34801561005057600080fd5b5061005961009c565b6040516001600160a01b03909116815260200160405180910390f35b34801561008157600080fd5b506100596100ab565b61009a6100956100b1565b6100da565b565b60006100a66100fe565b905090565b60006100a65b60006100bb610131565b6001815181106100cd576100cd6101c9565b6020026020010151905090565b3660008037600080366000845af43d6000803e8080156100f9573d6000f35b3d6000fd5b60006100a67fa3f0ad74e5423aebfd80d3ef4346578335a9a72aeaee59ff6cb3582b35133d50546001600160a01b031690565b60606101647fa3f0ad74e5423aebfd80d3ef4346578335a9a72aeaee59ff6cb3582b35133d50546001600160a01b031690565b6001600160a01b0316632d8bbd366040518163ffffffff1660e01b8152600401600060405180830381865afa1580156101a1573d6000803e3d6000fd5b505050506040513d6000823e601f3d908101601f191682016040526100a69190810190610211565b634e487b7160e01b600052603260045260246000fd5b634e487b7160e01b600052604160045260246000fd5b80516001600160a01b038116811461020c57600080fd5b919050565b6000602080838503121561022457600080fd5b825167ffffffffffffffff8082111561023c57600080fd5b818501915085601f83011261025057600080fd5b815181811115610262576102626101df565b8060051b604051601f19603f83011681018181108582111715610287576102876101df565b6040529182528482019250838101850191888311156102a557600080fd5b938501935b828510156102ca576102bb856101f5565b845293850193928501926102aa565b9897505050505050505056fea2646970667358221220d193b7d6ad0544be64a21be6261c53b1387e2b42b6f467a934c8f20105d264cf64736f6c63430008150033416464726573733a206c6f772d6c6576656c2064656c65676174652063616c6c206661696c6564a264697066735822122059a73eeea5495db3921ee325ce40cde9dcd4e6abdda9c4b2e9d186c258ffc90c64736f6c63430008150033",
    "linkReferences": {}
  },
  "methodIdentifiers": {
    "createOzToken(address,(string,string),(string,string))": "7f3c2151",
    "getOzTokenRegistry()": "80dafe5a",
    "isInRegistry(address)": "e4bb26f2"
  },
  "id": 18
}