{
  "abi": [
    {
      "inputs": [
        {
          "internalType": "address",
          "name": "erc20",
          "type": "address"
        }
      ],
      "name": "TokenNotInRegistry",
      "type": "error"
    },
    {
      "inputs": [
        {
          "internalType": "address",
          "name": "erc20_",
          "type": "address"
        },
        {
          "internalType": "uint256",
          "name": "amount_",
          "type": "uint256"
        }
      ],
      "name": "createOzToken",
      "outputs": [
        {
          "internalType": "address",
          "name": "",
          "type": "address"
        }
      ],
      "stateMutability": "view",
      "type": "function"
    }
  ],
  "bytecode": {
    "object": "0x608060405234801561001057600080fd5b50610112806100206000396000f3fe6080604052348015600f57600080fd5b506004361060285760003560e01c8063283f64ad14602d575b600080fd5b603c603836600460a6565b6058565b6040516001600160a01b03909116815260200160405180910390f35b6001600160a01b0382166000908152603e602052604081205460ff16609f576040516370f07e8560e01b81526001600160a01b038416600482015260240160405180910390fd5b5090919050565b6000806040838503121560b857600080fd5b82356001600160a01b038116811460ce57600080fd5b94602093909301359350505056fea264697066735822122084fc6bc6e041b39b400009d1963e434b40979ba6fcdbeb7dbaaf6b7bab89ea7964736f6c63430008150033",
    "linkReferences": {}
  },
  "methodIdentifiers": {
    "createOzToken(address,uint256)": "283f64ad"
  },
  "id": 6
}