{
  "abi": [
    {
      "inputs": [
        {
          "components": [
            {
              "internalType": "address",
              "name": "weth",
              "type": "address"
            },
            {
              "internalType": "address",
              "name": "reth",
              "type": "address"
            },
            {
              "internalType": "address",
              "name": "usdc",
              "type": "address"
            },
            {
              "internalType": "address",
              "name": "usdt",
              "type": "address"
            },
            {
              "internalType": "address",
              "name": "sfrxEth",
              "type": "address"
            }
          ],
          "internalType": "struct Tokens",
          "name": "tokens_",
          "type": "tuple"
        },
        {
          "components": [
            {
              "internalType": "address",
              "name": "swapRouterUni",
              "type": "address"
            },
            {
              "internalType": "address",
              "name": "vaultBalancer",
              "type": "address"
            },
            {
              "internalType": "address",
              "name": "queriesBalancer",
              "type": "address"
            },
            {
              "internalType": "address",
              "name": "rEthWethPoolBalancer",
              "type": "address"
            }
          ],
          "internalType": "struct Dexes",
          "name": "dexes_",
          "type": "tuple"
        },
        {
          "components": [
            {
              "internalType": "address",
              "name": "ethUsdChainlink",
              "type": "address"
            },
            {
              "internalType": "address",
              "name": "rEthEthChainlink",
              "type": "address"
            }
          ],
          "internalType": "struct Oracles",
          "name": "oracles_",
          "type": "tuple"
        },
        {
          "components": [
            {
              "internalType": "address",
              "name": "ozDiamond",
              "type": "address"
            },
            {
              "internalType": "address",
              "name": "beacon",
              "type": "address"
            },
            {
              "internalType": "address",
              "name": "rocketPoolStorage",
              "type": "address"
            },
            {
              "internalType": "uint256",
              "name": "defaultSlippage",
              "type": "uint256"
            },
            {
              "internalType": "address",
              "name": "frxETHminter",
              "type": "address"
            }
          ],
          "internalType": "struct DiamondInfra",
          "name": "infra_",
          "type": "tuple"
        }
      ],
      "name": "init",
      "outputs": [],
      "stateMutability": "nonpayable",
      "type": "function"
    }
  ],
  "bytecode": {
    "object": "0x608060405234801561001057600080fd5b50610807806100206000396000f3fe608060405234801561001057600080fd5b506004361061002b5760003560e01c8063bc12231914610030575b600080fd5b61004361003e3660046106ae565b610045565b005b7fc8fcad8db84d3cc18b4c41d551ea0ee66dd599cde068d998e57d5e09332c131f60209081527f699d9daa71b280d05a152715774afa0a81a312594b2d731d6b0b2552b7d6f69f8054600160ff1991821681179092557ff97e938d8af42f52387bb74b8b526fda8f184cc2aa534340a8d75a88fbecc77580548216831790557f65d510a5d8f7ef134ec444f7f34ee808c8eeb5177cdfd16be0c40fe1ab43369580548216831790556307f5828d60e41b60009081527f5622121b47b8cd0120c4efe45dd5483242f54a3d49bd7679be565d47694918c380549092168317909155604080518381528082019091527fc8fcad8db84d3cc18b4c41d551ea0ee66dd599cde068d998e57d5e09332c131c9391929091828101908036833701905050905085606001518160008151811061017e5761017e610770565b6001600160a01b0390921660209283029190910190910152805160005b8181101561020657600080018382815181106101b9576101b9610770565b60209081029190910181015182546001810184556000938452919092200180546001600160a01b0319166001600160a01b03909216919091179055806101fe81610786565b91505061019b565b508551600580546001600160a01b03199081166001600160a01b03938416179091556020808901516008805484169185169190911790556040808a01516009805485169186169190911790556060808b0151600b80548616918716919091179055895160068054861691871691909117905589830151600c80548616918716919091179055885160018054861691871691909117905588830151601080548616918716919091179055888101516007558b516002805486169187169190911790558b8201516003805486169187169190911790558b01516004805485169186169190911790558a820151600a8054851691861691909117905560808b0151601680548516918616919091179055878101516011805490941694169390931790915590516f636f6e74726163742e6164647265737360801b91810191909152701c9bd8dad95d11195c1bdcda5d141bdbdb607a1b603082015260410160408051601f198184030181529082905280516020918201206012556011546001600160a01b0316916321f8a721916103c591016f636f6e74726163742e6164647265737360801b81526a1c9bd8dad95d15985d5b1d60aa1b6010820152601b0190565b604051602081830303815290604052805190602001206040518263ffffffff1660e01b81526004016103f991815260200190565b602060405180830381865afa158015610416573d6000803e3d6000fd5b505050506040513d601f19601f8201168201806040525081019061043a91906107ad565b601380546001600160a01b0319166001600160a01b03929092169190911790556040516f636f6e74726163742e6164647265737360801b60208201527f726f636b657444414f50726f746f636f6c53657474696e67734465706f736974603082015260500160408051808303601f19018152919052805160209091012060145550505060800151601580546001600160a01b0319166001600160a01b03909216919091179055505050565b60405160a0810167ffffffffffffffff8111828210171561051657634e487b7160e01b600052604160045260246000fd5b60405290565b6001600160a01b038116811461053157600080fd5b50565b60006080828403121561054657600080fd5b6040516080810181811067ffffffffffffffff8211171561057757634e487b7160e01b600052604160045260246000fd5b60405290508082356105888161051c565b815260208301356105988161051c565b602082015260408301356105ab8161051c565b604082015260608301356105be8161051c565b6060919091015292915050565b6000604082840312156105dd57600080fd5b6040516040810181811067ffffffffffffffff8211171561060e57634e487b7160e01b600052604160045260246000fd5b604052905080823561061f8161051c565b8152602083013561062f8161051c565b6020919091015292915050565b600060a0828403121561064e57600080fd5b6106566104e5565b905081356106638161051c565b815260208201356106738161051c565b602082015260408201356106868161051c565b60408201526060828101359082015260808201356106a38161051c565b608082015292915050565b6000806000808486036102008112156106c657600080fd5b60a08112156106d457600080fd5b506106dd6104e5565b85356106e88161051c565b815260208601356106f88161051c565b6020820152604086013561070b8161051c565b6040820152606086013561071e8161051c565b606082015260808601356107318161051c565b608082015293506107458660a08701610534565b92506107558661012087016105cb565b915061076586610160870161063c565b905092959194509250565b634e487b7160e01b600052603260045260246000fd5b6000600182016107a657634e487b7160e01b600052601160045260246000fd5b5060010190565b6000602082840312156107bf57600080fd5b81516107ca8161051c565b939250505056fea26469706673582212207492bfd1d4d74f67ba8552b4d4b77ea5a86b3beb398d571ad8789f75f121755564736f6c63430008150033",
    "linkReferences": {}
  },
  "methodIdentifiers": {
    "init((address,address,address,address,address),(address,address,address,address),(address,address),(address,address,address,uint256,address))": "bc122319"
  },
  "id": 29
}