{
  "abi": [
    {
      "inputs": [
        {
          "components": [
            {
              "internalType": "address",
              "name": "weth",
              "type": "address"
            },
            {
              "internalType": "address",
              "name": "reth",
              "type": "address"
            },
            {
              "internalType": "address",
              "name": "usdc",
              "type": "address"
            },
            {
              "internalType": "address",
              "name": "usdt",
              "type": "address"
            }
          ],
          "internalType": "struct Tokens",
          "name": "tokens_",
          "type": "tuple"
        },
        {
          "components": [
            {
              "internalType": "address",
              "name": "swapRouterUni",
              "type": "address"
            },
            {
              "internalType": "address",
              "name": "vaultBalancer",
              "type": "address"
            },
            {
              "internalType": "address",
              "name": "rEthWethPoolBalancer",
              "type": "address"
            }
          ],
          "internalType": "struct Dexes",
          "name": "dexes_",
          "type": "tuple"
        },
        {
          "components": [
            {
              "internalType": "address",
              "name": "ethUsdChainlink",
              "type": "address"
            },
            {
              "internalType": "address",
              "name": "rEthEthChainlink",
              "type": "address"
            },
            {
              "internalType": "address",
              "name": "tellorOracle",
              "type": "address"
            },
            {
              "internalType": "address",
              "name": "weETHETHredStone",
              "type": "address"
            },
            {
              "internalType": "address",
              "name": "weETHUSDredStone",
              "type": "address"
            }
          ],
          "internalType": "struct Oracles",
          "name": "oracles_",
          "type": "tuple"
        },
        {
          "components": [
            {
              "internalType": "address",
              "name": "ozDiamond",
              "type": "address"
            },
            {
              "internalType": "address",
              "name": "beacon",
              "type": "address"
            },
            {
              "internalType": "address",
              "name": "rocketPoolStorage",
              "type": "address"
            },
            {
              "internalType": "uint16",
              "name": "defaultSlippage",
              "type": "uint16"
            },
            {
              "internalType": "uint24",
              "name": "uniFee",
              "type": "uint24"
            },
            {
              "internalType": "uint24",
              "name": "uniFee01",
              "type": "uint24"
            },
            {
              "internalType": "uint24",
              "name": "protocolFee",
              "type": "uint24"
            },
            {
              "internalType": "address",
              "name": "uniFactory",
              "type": "address"
            },
            {
              "internalType": "address[]",
              "name": "ozImplementations",
              "type": "address[]"
            },
            {
              "internalType": "uint16",
              "name": "adminFee",
              "type": "uint16"
            },
            {
              "internalType": "uint16",
              "name": "pauseIndexes",
              "type": "uint16"
            }
          ],
          "internalType": "struct Infra",
          "name": "infra_",
          "type": "tuple"
        },
        {
          "components": [
            {
              "internalType": "address",
              "name": "ozDiamond",
              "type": "address"
            },
            {
              "internalType": "address",
              "name": "ozBeacon",
              "type": "address"
            },
            {
              "internalType": "address",
              "name": "factory",
              "type": "address"
            },
            {
              "internalType": "address",
              "name": "ozlProxy",
              "type": "address"
            }
          ],
          "internalType": "struct PauseContracts",
          "name": "pause_",
          "type": "tuple"
        }
      ],
      "name": "init",
      "outputs": [],
      "stateMutability": "nonpayable",
      "type": "function"
    }
  ],
  "bytecode": {
    "object": "0x608060405234801561001057600080fd5b50610d9a806100206000396000f3fe608060405234801561001057600080fd5b506004361061002b5760003560e01c8063e125e07414610030575b600080fd5b61004361003e366004610c37565b610045565b005b60007fc8fcad8db84d3cc18b4c41d551ea0ee66dd599cde068d998e57d5e09332c131c905060018160030160006301ffc9a760e01b6001600160e01b0319166001600160e01b031916815260200190815260200160002060006101000a81548160ff02191690831515021790555060018160030160006307e4c70760e21b6001600160e01b0319166001600160e01b031916815260200190815260200160002060006101000a81548160ff02191690831515021790555060018160030160006348e2b09360e01b6001600160e01b0319166001600160e01b031916815260200190815260200160002060006101000a81548160ff02191690831515021790555060018160030160006307f5828d60e41b6001600160e01b0319166001600160e01b031916815260200190815260200160002060006101000a81548160ff0219169083151502179055508460000151600060060160006101000a8154816001600160a01b0302191690836001600160a01b031602179055508460200151600060080160006101000a8154816001600160a01b0302191690836001600160a01b0316021790555084604001516000800160006101000a8154816001600160a01b0302191690836001600160a01b031602179055508360000151600060070160006101000a8154816001600160a01b0302191690836001600160a01b0316021790555083602001516000600a0160006101000a8154816001600160a01b0302191690836001600160a01b031602179055508360400151600060230160006101000a8154816001600160a01b0302191690836001600160a01b031602179055508360600151600060240160006101000a8154816001600160a01b0302191690836001600160a01b031602179055508360800151600060250160006101000a8154816001600160a01b0302191690836001600160a01b031602179055508260000151600060020160006101000a8154816001600160a01b0302191690836001600160a01b0316021790555082602001516000600e0160006101000a8154816001600160a01b0302191690836001600160a01b031602179055508260600151600060070160146101000a81548161ffff021916908361ffff1602179055508260800151600060130160006101000a81548162ffffff021916908362ffffff1602179055508260a00151600060130160036101000a81548162ffffff021916908362ffffff1602179055508260c00151600060130160066101000a81548162ffffff021916908362ffffff1602179055508260e00151600060220160006101000a8154816001600160a01b0302191690836001600160a01b031602179055508261012001516000601f0160146101000a81548161ffff021916908361ffff1602179055508060040160009054906101000a90046001600160a01b03166000601f0160006101000a8154816001600160a01b0302191690836001600160a01b031602179055508560000151600060030160006101000a8154816001600160a01b0302191690836001600160a01b031602179055508560400151600060040160006101000a8154816001600160a01b0302191690836001600160a01b031602179055508560600151600060050160006101000a8154816001600160a01b0302191690836001600160a01b031602179055508560200151600060090160006101000a8154816001600160a01b0302191690836001600160a01b031602179055506000602001600060090160009054906101000a90046001600160a01b03169080600181540180825580915050600190039060005260206000200160009091909190916101000a8154816001600160a01b0302191690836001600160a01b031602179055506000602001600060030160009054906101000a90046001600160a01b03169080600181540180825580915050600190039060005260206000200160009091909190916101000a8154816001600160a01b0302191690836001600160a01b0316021790555082604001516000600f0160006101000a8154816001600160a01b0302191690836001600160a01b03160217905550604051602001610671906f636f6e74726163742e6164647265737360801b8152701c9bd8dad95d11195c1bdcda5d141bdbdb607a1b601082015260210190565b60408051601f19818403018152908290528051602091820120601055600f546001600160a01b0316916321f8a721916106d591016f636f6e74726163742e6164647265737360801b81526a1c9bd8dad95d15985d5b1d60aa1b6010820152601b0190565b604051602081830303815290604052805190602001206040518263ffffffff1660e01b815260040161070991815260200190565b602060405180830381865afa158015610726573d6000803e3d6000fd5b505050506040513d601f19601f8201168201806040525081019061074a9190610d03565b601180546001600160a01b0319166001600160a01b03929092169190911790556040516f636f6e74726163742e6164647265737360801b60208201527f726f636b657444414f50726f746f636f6c53657474696e67734465706f736974603082015260500160408051601f1981840301815291905280516020909101206012556101008301515160005b8181101561084557600060260185610100015182815181106107f8576107f8610d27565b60209081029190910181015182546001810184556000938452919092200180546001600160a01b0319166001600160a01b039092169190911790558061083d81610d3d565b9150506107d4565b50505061014091909101516028805461ffff191661ffff90921691909117905580516001600160a01b03908116600090815260296020908152604080832060029055908401518316825280822060039055808401518316825280822060049055606090930151909116815220600590555050602a805460ff1916600117905550565b634e487b7160e01b600052604160045260246000fd5b604051610160810167ffffffffffffffff81118282101715610901576109016108c7565b60405290565b6040516060810167ffffffffffffffff81118282101715610901576109016108c7565b6001600160a01b038116811461093f57600080fd5b50565b803561094d8161092a565b919050565b60006080828403121561096457600080fd5b6040516080810181811067ffffffffffffffff82111715610987576109876108c7565b60405290508082356109988161092a565b815260208301356109a88161092a565b602082015260408301356109bb8161092a565b604082015260608301356109ce8161092a565b6060919091015292915050565b600060a082840312156109ed57600080fd5b60405160a0810181811067ffffffffffffffff82111715610a1057610a106108c7565b6040529050808235610a218161092a565b81526020830135610a318161092a565b60208201526040830135610a448161092a565b60408201526060830135610a578161092a565b60608201526080830135610a6a8161092a565b6080919091015292915050565b803561ffff8116811461094d57600080fd5b803562ffffff8116811461094d57600080fd5b600082601f830112610aad57600080fd5b8135602067ffffffffffffffff80831115610aca57610aca6108c7565b8260051b604051601f19603f83011681018181108482111715610aef57610aef6108c7565b604052938452858101830193838101925087851115610b0d57600080fd5b83870191505b84821015610b35578135610b268161092a565b83529183019190830190610b13565b979650505050505050565b60006101608284031215610b5357600080fd5b610b5b6108dd565b9050610b6682610942565b8152610b7460208301610942565b6020820152610b8560408301610942565b6040820152610b9660608301610a77565b6060820152610ba760808301610a89565b6080820152610bb860a08301610a89565b60a0820152610bc960c08301610a89565b60c0820152610bda60e08301610942565b60e08201526101008083013567ffffffffffffffff811115610bfb57600080fd5b610c0785828601610a9c565b828401525050610120610c1b818401610a77565b90820152610140610c2d838201610a77565b9082015292915050565b6000806000806000858703610220811215610c5157600080fd5b610c5b8888610952565b95506060607f1982011215610c6f57600080fd5b50610c78610907565b6080870135610c868161092a565b815260a0870135610c968161092a565b602082015260c0870135610ca98161092a565b60408201529350610cbd8760e088016109db565b925061018086013567ffffffffffffffff811115610cda57600080fd5b610ce688828901610b40565b925050610cf7876101a08801610952565b90509295509295909350565b600060208284031215610d1557600080fd5b8151610d208161092a565b9392505050565b634e487b7160e01b600052603260045260246000fd5b600060018201610d5d57634e487b7160e01b600052601160045260246000fd5b506001019056fea2646970667358221220c5d7141a4d53f60005b7793925fcc831f1d213dd9ef0682ca67a6d93644c6ee864736f6c63430008150033",
    "linkReferences": {}
  },
  "methodIdentifiers": {
    "init((address,address,address,address),(address,address,address),(address,address,address,address,address),(address,address,address,uint16,uint24,uint24,uint24,address,address[],uint16,uint16),(address,address,address,address))": "e125e074"
  },
  "id": 46
}