{
  "abi": [
    {
      "inputs": [
        {
          "internalType": "address[]",
          "name": "registry_",
          "type": "address[]"
        },
        {
          "internalType": "address",
          "name": "roiMod_",
          "type": "address"
        },
        {
          "internalType": "address",
          "name": "diamond_",
          "type": "address"
        }
      ],
      "name": "init",
      "outputs": [],
      "stateMutability": "nonpayable",
      "type": "function"
    }
  ],
  "bytecode": {
    "object": "0x608060405234801561001057600080fd5b50610472806100206000396000f3fe608060405234801561001057600080fd5b506004361061002b5760003560e01c806348a25c2714610030575b600080fd5b61004361003e3660046102b8565b610045565b005b7fc8fcad8db84d3cc18b4c41d551ea0ee66dd599cde068d998e57d5e09332c131f6020527f699d9daa71b280d05a152715774afa0a81a312594b2d731d6b0b2552b7d6f69f8054600160ff1991821681179092557ff97e938d8af42f52387bb74b8b526fda8f184cc2aa534340a8d75a88fbecc77580548216831790557f65d510a5d8f7ef134ec444f7f34ee808c8eeb5177cdfd16be0c40fe1ab43369580548216831790556307f5828d60e41b60009081527f5622121b47b8cd0120c4efe45dd5483242f54a3d49bd7679be565d47694918c38054909216909217905583517fc8fcad8db84d3cc18b4c41d551ea0ee66dd599cde068d998e57d5e09332c131c915b818110156101b357600080018682815181106101665761016661039f565b60209081029190910181015182546001810184556000938452919092200180546001600160a01b0319166001600160a01b03909216919091179055806101ab816103b5565b915050610148565b50600180546001600160a01b038086166001600160a01b031992831617909255600280549287169290911691909117905560408051808201909152601081526f03937b4a6b7b21034b71034b734ba1d160851b6020820152610215908561021c565b5050505050565b61026182826040516024016102329291906103dc565b60408051601f198184030181529190526020810180516001600160e01b031663319af33360e01b179052610265565b5050565b80516a636f6e736f6c652e6c6f67602083016000808483855afa5050505050565b634e487b7160e01b600052604160045260246000fd5b80356001600160a01b03811681146102b357600080fd5b919050565b6000806000606084860312156102cd57600080fd5b833567ffffffffffffffff808211156102e557600080fd5b818601915086601f8301126102f957600080fd5b813560208282111561030d5761030d610286565b8160051b604051601f19603f8301168101818110868211171561033257610332610286565b60405292835281830193508481018201928a84111561035057600080fd5b948201945b83861015610375576103668661029c565b85529482019493820193610355565b9750610384905088820161029c565b9550505050506103966040850161029c565b90509250925092565b634e487b7160e01b600052603260045260246000fd5b6000600182016103d557634e487b7160e01b600052601160045260246000fd5b5060010190565b604081526000835180604084015260005b8181101561040a57602081870181015160608684010152016103ed565b50600060608285018101919091526001600160a01b03949094166020840152601f01601f19169091019091019291505056fea2646970667358221220409df47ef7eb90c39ea8f38b18ebdcbecfc1d595119f41a48f58f0e44795d1e564736f6c63430008150033",
    "linkReferences": {}
  },
  "methodIdentifiers": {
    "init(address[],address,address)": "48a25c27"
  },
  "id": 18
}