{
  "abi": [
    {
      "inputs": [
        {
          "internalType": "address[]",
          "name": "registry_",
          "type": "address[]"
        },
        {
          "internalType": "address",
          "name": "diamond_",
          "type": "address"
        },
        {
          "internalType": "address",
          "name": "swapRouter_",
          "type": "address"
        },
        {
          "internalType": "address",
          "name": "priceFeed_",
          "type": "address"
        },
        {
          "internalType": "address",
          "name": "wethAddr_",
          "type": "address"
        },
        {
          "internalType": "uint256",
          "name": "defaultSlippage_",
          "type": "uint256"
        },
        {
          "internalType": "address",
          "name": "vaultBalancer_",
          "type": "address"
        },
        {
          "internalType": "address",
          "name": "queriesBalancer_",
          "type": "address"
        },
        {
          "internalType": "address",
          "name": "rEthAddr_",
          "type": "address"
        },
        {
          "internalType": "address",
          "name": "rEthWethPoolBalancer_",
          "type": "address"
        }
      ],
      "name": "init",
      "outputs": [],
      "stateMutability": "nonpayable",
      "type": "function"
    }
  ],
  "bytecode": {
    "object": "0x60808060405234610016576103f1908161001c8239f35b600080fdfe600436101561000d57600080fd5b60003560e01c63547769fd1461002257600080fd5b34610396576101403660031901126103965767ffffffffffffffff6004358181116103965736602382011215610396578060040135828111610380578060051b92601f19603f8501166080019060808210908211176103805760405260805260a09181016024019036821161039657602401915b81831061039b576024356001600160a01b0381168103610396576044356001600160a01b0381168103610396576064356001600160a01b0381168103610396576084356001600160a01b03811681036103965760c4356001600160a01b03811681036103965760e435916001600160a01b03831683036103965761010435936001600160a01b03851685036103965761012435956001600160a01b0387168703610396577fc8fcad8db84d3cc18b4c41d551ea0ee66dd599cde068d998e57d5e09332c131f6020527f699d9daa71b280d05a152715774afa0a81a312594b2d731d6b0b2552b7d6f69f8054600160ff1991821681179092557ff97e938d8af42f52387bb74b8b526fda8f184cc2aa534340a8d75a88fbecc77580548216831790557f65d510a5d8f7ef134ec444f7f34ee808c8eeb5177cdfd16be0c40fe1ab43369580548216831790556307f5828d60e41b60009081527f5622121b47b8cd0120c4efe45dd5483242f54a3d49bd7679be565d47694918c380549092169092179055608051905b8181106102ca5750506bffffffffffffffffffffffff60a01b9760018060a01b031688600154161760015560018060a01b031687600354161760035560018060a01b031686600454161760045560018060a01b031685600254161760025560a43560055560018060a01b031684600654161760065560018060a01b031683600754161760075560018060a01b031682600854161760085560018060a01b0316906009541617600955600080f35b60805181101561036a5760a0600582901b01516000546001600160a01b03909116906801000000000000000081101561038057600181018060005581101561036a57600080527f290decd9548b62a8d60345a988386fc84ba6bc95484008f6362f93160ef3e5630180546001600160a01b031916909117905560001981146103545760010161021d565b634e487b7160e01b600052601160045260246000fd5b634e487b7160e01b600052603260045260246000fd5b634e487b7160e01b600052604160045260246000fd5b600080fd5b82356001600160a01b03811681036103965781526020928301920161009656fea26469706673582212205a7e2ea2a28065d009cd15bdd010ec8559dc16164721a4ea547d4bcab78f03e164736f6c63430008150033",
    "linkReferences": {}
  },
  "methodIdentifiers": {
    "init(address[],address,address,address,address,uint256,address,address,address,address)": "547769fd"
  },
  "id": 25
}