{
  "abi": [
    {
      "inputs": [
        {
          "internalType": "address[]",
          "name": "registry_",
          "type": "address[]"
        },
        {
          "internalType": "address",
          "name": "diamond_",
          "type": "address"
        },
        {
          "internalType": "address",
          "name": "swapRouter_",
          "type": "address"
        },
        {
          "internalType": "address",
          "name": "priceFeed_",
          "type": "address"
        },
        {
          "internalType": "address",
          "name": "wethAddr_",
          "type": "address"
        },
        {
          "internalType": "uint256",
          "name": "defaultSlippage_",
          "type": "uint256"
        },
        {
          "internalType": "address",
          "name": "vaultBalancer_",
          "type": "address"
        },
        {
          "internalType": "address",
          "name": "queriesBalancer_",
          "type": "address"
        },
        {
          "internalType": "address",
          "name": "rEthAddr_",
          "type": "address"
        },
        {
          "internalType": "address",
          "name": "rEthWethPoolBalancer_",
          "type": "address"
        },
        {
          "internalType": "address",
          "name": "rEthEthChainlink_",
          "type": "address"
        }
      ],
      "name": "init",
      "outputs": [],
      "stateMutability": "nonpayable",
      "type": "function"
    }
  ],
  "bytecode": {
    "object": "0x608060405234801561001057600080fd5b50610482806100206000396000f3fe608060405234801561001057600080fd5b506004361061002b5760003560e01c806376bc26ac14610030575b600080fd5b61004361003e36600461028c565b610045565b005b7fc8fcad8db84d3cc18b4c41d551ea0ee66dd599cde068d998e57d5e09332c131f6020527f699d9daa71b280d05a152715774afa0a81a312594b2d731d6b0b2552b7d6f69f8054600160ff1991821681179092557ff97e938d8af42f52387bb74b8b526fda8f184cc2aa534340a8d75a88fbecc77580548216831790557f65d510a5d8f7ef134ec444f7f34ee808c8eeb5177cdfd16be0c40fe1ab43369580548216831790556307f5828d60e41b60009081527f5622121b47b8cd0120c4efe45dd5483242f54a3d49bd7679be565d47694918c3805490921690921790558b517fc8fcad8db84d3cc18b4c41d551ea0ee66dd599cde068d998e57d5e09332c131c915b818110156101b357600080018e82815181106101665761016661040f565b60209081029190910181015182546001810184556000938452919092200180546001600160a01b0319166001600160a01b03909216919091179055806101ab81610425565b915050610148565b5050600180546001600160a01b03199081166001600160a01b039d8e16179091556003805482169b8d169b909b17909a5550600480548a16988b1698909817909755600280548916968a169690961790955560059390935560068054871692881692909217909155600780548616918716919091179055600880548516918616919091179055600980548416918516919091179055600a8054909216921691909117905550565b634e487b7160e01b600052604160045260246000fd5b80356001600160a01b038116811461028757600080fd5b919050565b60008060008060008060008060008060006101608c8e0312156102ae57600080fd5b67ffffffffffffffff8c3511156102c457600080fd5b8b358c018d601f8201126102d757600080fd5b67ffffffffffffffff813511156102f0576102f061025a565b604051813560051b603f01601f1916810167ffffffffffffffff8111828210171561031d5761031d61025a565b806040525080823582526020820190508f6020843560051b850101111561034357600080fd5b602083015b6020843560051b8501018110156103705761036281610270565b825260209182019101610348565b5050809c50505061038360208d01610270565b995061039160408d01610270565b985061039f60608d01610270565b97506103ad60808d01610270565b965060a08c013595506103c260c08d01610270565b94506103d060e08d01610270565b93506103df6101008d01610270565b92506103ee6101208d01610270565b91506103fd6101408d01610270565b90509295989b509295989b9093969950565b634e487b7160e01b600052603260045260246000fd5b60006001820161044557634e487b7160e01b600052601160045260246000fd5b506001019056fea26469706673582212205820e27a972b74d927c6c48294c2e96ced06bdb9a2dd87ded2c0cd793b58c29e64736f6c63430008150033",
    "linkReferences": {}
  },
  "methodIdentifiers": {
    "init(address[],address,address,address,address,uint256,address,address,address,address,address)": "76bc26ac"
  },
  "id": 23
}