{
  "abi": [
    {
      "inputs": [
        {
          "components": [
            {
              "internalType": "address",
              "name": "weth",
              "type": "address"
            },
            {
              "internalType": "address",
              "name": "reth",
              "type": "address"
            },
            {
              "internalType": "address",
              "name": "usdc",
              "type": "address"
            },
            {
              "internalType": "address",
              "name": "usdt",
              "type": "address"
            }
          ],
          "internalType": "struct Tokens",
          "name": "tokens_",
          "type": "tuple"
        },
        {
          "components": [
            {
              "internalType": "address",
              "name": "swapRouterUni",
              "type": "address"
            },
            {
              "internalType": "address",
              "name": "vaultBalancer",
              "type": "address"
            },
            {
              "internalType": "address",
              "name": "rEthWethPoolBalancer",
              "type": "address"
            }
          ],
          "internalType": "struct Dexes",
          "name": "dexes_",
          "type": "tuple"
        },
        {
          "components": [
            {
              "internalType": "address",
              "name": "ethUsdChainlink",
              "type": "address"
            },
            {
              "internalType": "address",
              "name": "rEthEthChainlink",
              "type": "address"
            },
            {
              "internalType": "address",
              "name": "tellorOracle",
              "type": "address"
            },
            {
              "internalType": "address",
              "name": "weETHETHredStone",
              "type": "address"
            },
            {
              "internalType": "address",
              "name": "weETHUSDredStone",
              "type": "address"
            }
          ],
          "internalType": "struct Oracles",
          "name": "oracles_",
          "type": "tuple"
        },
        {
          "components": [
            {
              "internalType": "address",
              "name": "ozDiamond",
              "type": "address"
            },
            {
              "internalType": "address",
              "name": "beacon",
              "type": "address"
            },
            {
              "internalType": "address",
              "name": "rocketPoolStorage",
              "type": "address"
            },
            {
              "internalType": "uint16",
              "name": "defaultSlippage",
              "type": "uint16"
            },
            {
              "internalType": "uint24",
              "name": "uniFee",
              "type": "uint24"
            },
            {
              "internalType": "uint24",
              "name": "uniFee01",
              "type": "uint24"
            },
            {
              "internalType": "uint24",
              "name": "protocolFee",
              "type": "uint24"
            },
            {
              "internalType": "address",
              "name": "uniFactory",
              "type": "address"
            }
          ],
          "internalType": "struct Infra",
          "name": "infra_",
          "type": "tuple"
        }
      ],
      "name": "init",
      "outputs": [],
      "stateMutability": "nonpayable",
      "type": "function"
    }
  ],
  "bytecode": {
    "object": "0x608060405234801561001057600080fd5b50610892806100206000396000f3fe608060405234801561001057600080fd5b506004361061002b5760003560e01c8063337d919f14610030575b600080fd5b61004361003e366004610744565b610045565b005b7fc8fcad8db84d3cc18b4c41d551ea0ee66dd599cde068d998e57d5e09332c131f60209081527f699d9daa71b280d05a152715774afa0a81a312594b2d731d6b0b2552b7d6f69f8054600160ff1991821681179092557ff97e938d8af42f52387bb74b8b526fda8f184cc2aa534340a8d75a88fbecc77580548216831790557f65d510a5d8f7ef134ec444f7f34ee808c8eeb5177cdfd16be0c40fe1ab43369580548216831790556307f5828d60e41b60009081527f5622121b47b8cd0120c4efe45dd5483242f54a3d49bd7679be565d47694918c3805490921683179091558551600680546001600160a01b03199081166001600160a01b039384161790915587850151600880548316918416919091179055604080890151845483169084161784558751600780548a890151600a805487169188169190911790558a8401516025805487169188169190911790556060808c01516026805488169189169190911790556080808d0151602780548916918a169190911790558b51600280548916918a169190911790558b8b0151600e80548916918a169190911790558b8201519488166001600160b01b031990931692909217600160a01b61ffff90951694909402939093179091558801516013805460a08b015162ffffff93841665ffffffffffff199092169190911763010000009184169190910217905560c08901516015805462ffffff19169190921617905560e08801516024805485169186169190911790557fc8fcad8db84d3cc18b4c41d551ea0ee66dd599cde068d998e57d5e09332c132054602180549186169185169190911790558a516003805485169186169190911781558b830151600480548616918716919091179055908b01516005805485169186169190911790558a8701516009805485169186169182179055602280548089018255968190527f61035b26e3e9eee00e0d72fd1ee8ddca6894550dca6916ea2ac6baa90d11e51096870180548616909217909155905481549687019091559490930180549483169482169490941790935584820151600f8054909416911617909155516f636f6e74726163742e6164647265737360801b91810191909152701c9bd8dad95d11195c1bdcda5d141bdbdb607a1b60308201527fc8fcad8db84d3cc18b4c41d551ea0ee66dd599cde068d998e57d5e09332c131c9060410160408051601f19818403018152908290528051602091820120601055600f546001600160a01b0316916321f8a7219161040e91016f636f6e74726163742e6164647265737360801b81526a1c9bd8dad95d15985d5b1d60aa1b6010820152601b0190565b604051602081830303815290604052805190602001206040518263ffffffff1660e01b815260040161044291815260200190565b602060405180830381865afa15801561045f573d6000803e3d6000fd5b505050506040513d601f19601f820116820180604052508101906104839190610838565b601180546001600160a01b0319166001600160a01b03929092169190911790556040516f636f6e74726163742e6164647265737360801b60208201527f726f636b657444414f50726f746f636f6c53657474696e67734465706f736974603082015260500160408051601f1981840301815291905280516020909101206012555050505050565b6040516080810167ffffffffffffffff8111828210171561053b57634e487b7160e01b600052604160045260246000fd5b60405290565b6040516060810167ffffffffffffffff8111828210171561053b57634e487b7160e01b600052604160045260246000fd5b6001600160a01b038116811461058757600080fd5b50565b803561059581610572565b919050565b600060a082840312156105ac57600080fd5b60405160a0810181811067ffffffffffffffff821117156105dd57634e487b7160e01b600052604160045260246000fd5b60405290508082356105ee81610572565b815260208301356105fe81610572565b6020820152604083013561061181610572565b6040820152606083013561062481610572565b6060820152608083013561063781610572565b6080919091015292915050565b803561ffff8116811461059557600080fd5b803562ffffff8116811461059557600080fd5b600061010080838503121561067d57600080fd5b6040519081019067ffffffffffffffff821181831017156106ae57634e487b7160e01b600052604160045260246000fd5b81604052809250833591506106c282610572565b8181526106d16020850161058a565b60208201526106e26040850161058a565b60408201526106f360608501610644565b606082015261070460808501610656565b608082015261071560a08501610656565b60a082015261072660c08501610656565b60c082015261073760e0850161058a565b60e0820152505092915050565b60008060008084860361028081121561075c57600080fd5b608081121561076a57600080fd5b61077261050a565b863561077d81610572565b8152602087013561078d81610572565b602082015260408701356107a081610572565b604082015260608701356107b381610572565b606082810191909152909550607f19820112156107cf57600080fd5b506107d8610541565b60808601356107e681610572565b815260a08601356107f681610572565b602082015260c086013561080981610572565b6040820152925061081d8660e0870161059a565b915061082d866101808701610669565b905092959194509250565b60006020828403121561084a57600080fd5b815161085581610572565b939250505056fea264697066735822122055bc43cf6129ca44d8871a04c3489d95a10940fb7b481db93b8a4853e977f5c764736f6c63430008150033",
    "linkReferences": {}
  },
  "methodIdentifiers": {
    "init((address,address,address,address),(address,address,address),(address,address,address,address,address),(address,address,address,uint16,uint24,uint24,uint24,address))": "337d919f"
  },
  "id": 40
}