{
  "abi": [
    {
      "inputs": [
        {
          "internalType": "address[]",
          "name": "registry_",
          "type": "address[]"
        },
        {
          "internalType": "address",
          "name": "diamond_",
          "type": "address"
        },
        {
          "internalType": "address",
          "name": "swapRouter_",
          "type": "address"
        },
        {
          "internalType": "address",
          "name": "priceFeed_",
          "type": "address"
        },
        {
          "internalType": "address",
          "name": "wethAddr_",
          "type": "address"
        },
        {
          "internalType": "uint256",
          "name": "defaultSlippage_",
          "type": "uint256"
        }
      ],
      "name": "init",
      "outputs": [],
      "stateMutability": "nonpayable",
      "type": "function"
    }
  ],
  "bytecode": {
    "object": "0x608060405234801561001057600080fd5b506103c0806100206000396000f3fe608060405234801561001057600080fd5b506004361061002b5760003560e01c8063b2aaafe514610030575b600080fd5b61004361003e36600461023c565b610045565b005b7fc8fcad8db84d3cc18b4c41d551ea0ee66dd599cde068d998e57d5e09332c131f6020527f699d9daa71b280d05a152715774afa0a81a312594b2d731d6b0b2552b7d6f69f8054600160ff1991821681179092557ff97e938d8af42f52387bb74b8b526fda8f184cc2aa534340a8d75a88fbecc77580548216831790557f65d510a5d8f7ef134ec444f7f34ee808c8eeb5177cdfd16be0c40fe1ab43369580548216831790556307f5828d60e41b60009081527f5622121b47b8cd0120c4efe45dd5483242f54a3d49bd7679be565d47694918c38054909216909217905586517fc8fcad8db84d3cc18b4c41d551ea0ee66dd599cde068d998e57d5e09332c131c915b818110156101b357600080018982815181106101665761016661034d565b60209081029190910181015182546001810184556000938452919092200180546001600160a01b0319166001600160a01b03909216919091179055806101ab81610363565b915050610148565b5050600180546001600160a01b03199081166001600160a01b039889161790915560038054821696881696909617909555506004805485169386169390931790925560028054909316931692909217905560055550565b634e487b7160e01b600052604160045260246000fd5b80356001600160a01b038116811461023757600080fd5b919050565b60008060008060008060c0878903121561025557600080fd5b863567ffffffffffffffff8082111561026d57600080fd5b818901915089601f83011261028157600080fd5b81356020828211156102955761029561020a565b8160051b604051601f19603f830116810181811086821117156102ba576102ba61020a565b60405292835281830193508481018201928d8411156102d857600080fd5b948201945b838610156102fd576102ee86610220565b855294820194938201936102dd565b9a5061030c90508b8201610220565b98505050505061031e60408801610220565b935061032c60608801610220565b925061033a60808801610220565b915060a087013590509295509295509295565b634e487b7160e01b600052603260045260246000fd5b60006001820161038357634e487b7160e01b600052601160045260246000fd5b506001019056fea2646970667358221220c27d36f7cb05f9e5b3e9660c625384f2fd6cda0233d31f092e9b77481425ef3f64736f6c63430008150033",
    "linkReferences": {}
  },
  "methodIdentifiers": {
    "init(address[],address,address,address,address,uint256)": "b2aaafe5"
  },
  "id": 21
}