{
  "abi": [
    {
      "inputs": [
        {
          "internalType": "address[]",
          "name": "registry_",
          "type": "address[]"
        },
        {
          "internalType": "address",
          "name": "roiMod_",
          "type": "address"
        },
        {
          "internalType": "address",
          "name": "diamond_",
          "type": "address"
        },
        {
          "internalType": "address",
          "name": "swapRouter_",
          "type": "address"
        },
        {
          "internalType": "address",
          "name": "priceFeed_",
          "type": "address"
        },
        {
          "internalType": "address",
          "name": "wethAddr_",
          "type": "address"
        },
        {
          "internalType": "uint256",
          "name": "defaultSlippage_",
          "type": "uint256"
        }
      ],
      "name": "init",
      "outputs": [],
      "stateMutability": "nonpayable",
      "type": "function"
    }
  ],
  "bytecode": {
    "object": "0x608060405234801561001057600080fd5b506103e3806100206000396000f3fe608060405234801561001057600080fd5b506004361061002b5760003560e01c80634e44e12114610030575b600080fd5b61004361003e36600461024d565b610045565b005b7fc8fcad8db84d3cc18b4c41d551ea0ee66dd599cde068d998e57d5e09332c131f6020527f699d9daa71b280d05a152715774afa0a81a312594b2d731d6b0b2552b7d6f69f8054600160ff1991821681179092557ff97e938d8af42f52387bb74b8b526fda8f184cc2aa534340a8d75a88fbecc77580548216831790557f65d510a5d8f7ef134ec444f7f34ee808c8eeb5177cdfd16be0c40fe1ab43369580548216831790556307f5828d60e41b60009081527f5622121b47b8cd0120c4efe45dd5483242f54a3d49bd7679be565d47694918c38054909216909217905587517fc8fcad8db84d3cc18b4c41d551ea0ee66dd599cde068d998e57d5e09332c131c915b818110156101b357600080018a828151811061016657610166610370565b60209081029190910181015182546001810184556000938452919092200180546001600160a01b0319166001600160a01b03909216919091179055806101ab81610386565b915050610148565b5050600180546001600160a01b03199081166001600160a01b0398891617909155600280548216988816989098179097555060048054871694861694909417909355600580548616928516929092179091556003805490941692169190911790915560065550565b634e487b7160e01b600052604160045260246000fd5b80356001600160a01b038116811461024857600080fd5b919050565b600080600080600080600060e0888a03121561026857600080fd5b873567ffffffffffffffff8082111561028057600080fd5b818a0191508a601f83011261029457600080fd5b81356020828211156102a8576102a861021b565b8160051b604051601f19603f830116810181811086821117156102cd576102cd61021b565b60405292835281830193508481018201928e8411156102eb57600080fd5b948201945b838610156103105761030186610231565b855294820194938201936102f0565b9b5061031f90508c8201610231565b99505050505061033160408901610231565b945061033f60608901610231565b935061034d60808901610231565b925061035b60a08901610231565b915060c0880135905092959891949750929550565b634e487b7160e01b600052603260045260246000fd5b6000600182016103a657634e487b7160e01b600052601160045260246000fd5b506001019056fea264697066735822122004ae17efe640eac6bfdb50a5408866ec5e32edcd897df7bedc260bf9d419181a64736f6c63430008150033",
    "linkReferences": {}
  },
  "methodIdentifiers": {
    "init(address[],address,address,address,address,address,uint256)": "4e44e121"
  },
  "id": 18
}