{
  "abi": [
    {
      "inputs": [
        {
          "internalType": "address[]",
          "name": "registry_",
          "type": "address[]"
        },
        {
          "internalType": "address",
          "name": "diamond_",
          "type": "address"
        },
        {
          "internalType": "address",
          "name": "swapRouter_",
          "type": "address"
        },
        {
          "internalType": "address",
          "name": "priceFeed_",
          "type": "address"
        },
        {
          "internalType": "address",
          "name": "wethAddr_",
          "type": "address"
        },
        {
          "internalType": "uint256",
          "name": "defaultSlippage_",
          "type": "uint256"
        },
        {
          "internalType": "address",
          "name": "vaultBalancer_",
          "type": "address"
        },
        {
          "internalType": "address",
          "name": "queriesBalancer_",
          "type": "address"
        },
        {
          "internalType": "address",
          "name": "rEthAddr_",
          "type": "address"
        },
        {
          "internalType": "address",
          "name": "rEthWethPoolBalancer_",
          "type": "address"
        }
      ],
      "name": "init",
      "outputs": [],
      "stateMutability": "nonpayable",
      "type": "function"
    }
  ],
  "bytecode": {
    "object": "0x608060405234801561001057600080fd5b5061044e806100206000396000f3fe608060405234801561001057600080fd5b506004361061002b5760003560e01c8063547769fd14610030575b600080fd5b61004361003e36600461027c565b610045565b005b7fc8fcad8db84d3cc18b4c41d551ea0ee66dd599cde068d998e57d5e09332c131f6020527f699d9daa71b280d05a152715774afa0a81a312594b2d731d6b0b2552b7d6f69f8054600160ff1991821681179092557ff97e938d8af42f52387bb74b8b526fda8f184cc2aa534340a8d75a88fbecc77580548216831790557f65d510a5d8f7ef134ec444f7f34ee808c8eeb5177cdfd16be0c40fe1ab43369580548216831790556307f5828d60e41b60009081527f5622121b47b8cd0120c4efe45dd5483242f54a3d49bd7679be565d47694918c3805490921690921790558a517fc8fcad8db84d3cc18b4c41d551ea0ee66dd599cde068d998e57d5e09332c131c915b818110156101b357600080018d8281518110610166576101666103db565b60209081029190910181015182546001810184556000938452919092200180546001600160a01b0319166001600160a01b03909216919091179055806101ab816103f1565b915050610148565b5050600180546001600160a01b03199081166001600160a01b039c8d16179091556003805482169a8c169a909a1790995550600480548916978a16979097179096556002805488169589169590951790945560059290925560068054861691871691909117905560078054851691861691909117905560088054841691851691909117905560098054909216921691909117905550565b634e487b7160e01b600052604160045260246000fd5b80356001600160a01b038116811461027757600080fd5b919050565b6000806000806000806000806000806101408b8d03121561029c57600080fd5b67ffffffffffffffff808c3511156102b357600080fd5b8b358c018d601f8201126102c657600080fd5b8035828111156102d8576102d861024a565b604051601f19603f8360051b0116810181811085821117156102fc576102fc61024a565b6040528181526020808201945060059290921b8301909101908f82111561032257600080fd5b6020830192505b8183101561034d5761033a83610260565b8452602084019350602083019250610329565b9c5061035f9250505060208c01610260565b985061036d60408c01610260565b975061037b60608c01610260565b965061038960808c01610260565b955060a08b0135945061039e60c08c01610260565b93506103ac60e08c01610260565b92506103bb6101008c01610260565b91506103ca6101208c01610260565b90509295989b9194979a5092959850565b634e487b7160e01b600052603260045260246000fd5b60006001820161041157634e487b7160e01b600052601160045260246000fd5b506001019056fea264697066735822122037cdf0756872cd867e52947ae091c844c69ba7301b863f271730264b669c2d5164736f6c63430008150033",
    "linkReferences": {}
  },
  "methodIdentifiers": {
    "init(address[],address,address,address,address,uint256,address,address,address,address)": "547769fd"
  },
  "id": 25
}