{
  "abi": [
    {
      "inputs": [
        {
          "internalType": "address[]",
          "name": "registry_",
          "type": "address[]"
        },
        {
          "internalType": "address",
          "name": "diamond_",
          "type": "address"
        },
        {
          "internalType": "address",
          "name": "swapRouter_",
          "type": "address"
        },
        {
          "internalType": "address",
          "name": "ethUsdChainlink_",
          "type": "address"
        },
        {
          "internalType": "address",
          "name": "wethAddr_",
          "type": "address"
        },
        {
          "internalType": "uint256",
          "name": "defaultSlippage_",
          "type": "uint256"
        },
        {
          "internalType": "address",
          "name": "vaultBalancer_",
          "type": "address"
        },
        {
          "internalType": "address",
          "name": "queriesBalancer_",
          "type": "address"
        },
        {
          "internalType": "address",
          "name": "rEthAddr_",
          "type": "address"
        },
        {
          "internalType": "address",
          "name": "rEthWethPoolBalancer_",
          "type": "address"
        },
        {
          "internalType": "address",
          "name": "rEthEthChainlink_",
          "type": "address"
        },
        {
          "internalType": "address",
          "name": "beacon_",
          "type": "address"
        }
      ],
      "name": "init",
      "outputs": [],
      "stateMutability": "nonpayable",
      "type": "function"
    }
  ],
  "bytecode": {
    "object": "0x608060405234801561001057600080fd5b5061049f806100206000396000f3fe608060405234801561001057600080fd5b506004361061002b5760003560e01c80630a7a12a314610030575b600080fd5b61004361003e36600461033d565b610045565b005b7fc8fcad8db84d3cc18b4c41d551ea0ee66dd599cde068d998e57d5e09332c131f6020527f699d9daa71b280d05a152715774afa0a81a312594b2d731d6b0b2552b7d6f69f8054600160ff1991821681179092557ff97e938d8af42f52387bb74b8b526fda8f184cc2aa534340a8d75a88fbecc77580548216831790557f65d510a5d8f7ef134ec444f7f34ee808c8eeb5177cdfd16be0c40fe1ab43369580548216831790556307f5828d60e41b60009081527f5622121b47b8cd0120c4efe45dd5483242f54a3d49bd7679be565d47694918c3805490921690921790558c517fc8fcad8db84d3cc18b4c41d551ea0ee66dd599cde068d998e57d5e09332c131c915b818110156101b357600080018f82815181106101665761016661042c565b60209081029190910181015182546001810184556000938452919092200180546001600160a01b0319166001600160a01b03909216919091179055806101ab81610442565b915050610148565b5050600180546001600160a01b03199081166001600160a01b039e8f16179091556003805482169c8e169c909c17909b5550600480548b16998c1699909917909855600280548a16978b169790971790965560059490945560068054881693891693909317909255600780548716918816919091179055600880548616918716919091179055600980548516918616919091179055600a80548416918516919091179055600e8054909216921691909117905550565b634e487b7160e01b600052604160045260246000fd5b80356001600160a01b038116811461029657600080fd5b919050565b600082601f8301126102ac57600080fd5b8135602067ffffffffffffffff808311156102c9576102c9610269565b8260051b604051601f19603f830116810181811084821117156102ee576102ee610269565b60405293845285810183019383810192508785111561030c57600080fd5b83870191505b84821015610332576103238261027f565b83529183019190830190610312565b979650505050505050565b6000806000806000806000806000806000806101808d8f03121561036057600080fd5b67ffffffffffffffff8d35111561037657600080fd5b6103838e8e358f0161029b565b9b5061039160208e0161027f565b9a5061039f60408e0161027f565b99506103ad60608e0161027f565b98506103bb60808e0161027f565b975060a08d013596506103d060c08e0161027f565b95506103de60e08e0161027f565b94506103ed6101008e0161027f565b93506103fc6101208e0161027f565b925061040b6101408e0161027f565b915061041a6101608e0161027f565b90509295989b509295989b509295989b565b634e487b7160e01b600052603260045260246000fd5b60006001820161046257634e487b7160e01b600052601160045260246000fd5b506001019056fea264697066735822122044b959b2af0c02e87ecc361ab65f29f73758740b1c8acdcff9c5c40919d4728d64736f6c63430008150033",
    "linkReferences": {}
  },
  "methodIdentifiers": {
    "init(address[],address,address,address,address,uint256,address,address,address,address,address,address)": "0a7a12a3"
  },
  "id": 24
}