{"abi":[{"type":"function","name":"init","inputs":[{"name":"tokens_","type":"tuple","internalType":"struct Tokens","components":[{"name":"weth","type":"address","internalType":"address"},{"name":"reth","type":"address","internalType":"address"},{"name":"usdc","type":"address","internalType":"address"},{"name":"usdt","type":"address","internalType":"address"},{"name":"ausdc","type":"address","internalType":"address"}]},{"name":"dexes_","type":"tuple","internalType":"struct Dexes","components":[{"name":"swapRouterUni","type":"address","internalType":"address"},{"name":"vaultBalancer","type":"address","internalType":"address"},{"name":"rEthWethPoolBalancer","type":"address","internalType":"address"},{"name":"poolProviderAave","type":"address","internalType":"address"}]},{"name":"oracles_","type":"tuple","internalType":"struct Oracles","components":[{"name":"ethUsdChainlink","type":"address","internalType":"address"},{"name":"rEthEthChainlink","type":"address","internalType":"address"},{"name":"tellorOracle","type":"address","internalType":"address"},{"name":"weETHETHredStone","type":"address","internalType":"address"},{"name":"weETHUSDredStone","type":"address","internalType":"address"}]},{"name":"infra_","type":"tuple","internalType":"struct Infra","components":[{"name":"ozDiamond","type":"address","internalType":"address"},{"name":"beacon","type":"address","internalType":"address"},{"name":"rocketPoolStorage","type":"address","internalType":"address"},{"name":"defaultSlippage","type":"uint16","internalType":"uint16"},{"name":"uniFee","type":"uint24","internalType":"uint24"},{"name":"uniFee01","type":"uint24","internalType":"uint24"},{"name":"protocolFee","type":"uint24","internalType":"uint24"},{"name":"uniFactory","type":"address","internalType":"address"},{"name":"ozImplementations","type":"address[]","internalType":"address[]"},{"name":"adminFee","type":"uint16","internalType":"uint16"},{"name":"pauseIndexes","type":"uint16","internalType":"uint16"}]},{"name":"pause_","type":"tuple","internalType":"struct PauseContracts","components":[{"name":"ozDiamond","type":"address","internalType":"address"},{"name":"ozBeacon","type":"address","internalType":"address"},{"name":"factory","type":"address","internalType":"address"},{"name":"ozlProxy","type":"address","internalType":"address"}]}],"outputs":[],"stateMutability":"nonpayable"}],"bytecode":{"object":"0x608060405234801561000f575f80fd5b5061108c8061001d5f395ff3fe608060405234801561000f575f80fd5b5060043610610029575f3560e01c8063714b4fb51461002d575b5f80fd5b61004061003b366004610ebd565b610042565b005b5f7fc8fcad8db84d3cc18b4c41d551ea0ee66dd599cde068d998e57d5e09332c131c90506001816003015f6301ffc9a760e01b6001600160e01b0319166001600160e01b03191681526020019081526020015f205f6101000a81548160ff0219169083151502179055506001816003015f6307e4c70760e21b6001600160e01b0319166001600160e01b03191681526020019081526020015f205f6101000a81548160ff0219169083151502179055506001816003015f6348e2b09360e01b6001600160e01b0319166001600160e01b03191681526020019081526020015f205f6101000a81548160ff0219169083151502179055506001816003015f6307f5828d60e41b6001600160e01b0319166001600160e01b03191681526020019081526020015f205f6101000a81548160ff021916908315150217905550845f01515f6006015f6101000a8154816001600160a01b0302191690836001600160a01b0316021790555084602001515f6008015f6101000a8154816001600160a01b0302191690836001600160a01b0316021790555084604001515f80015f6101000a8154816001600160a01b0302191690836001600160a01b0316021790555084606001515f6031015f6101000a8154816001600160a01b0302191690836001600160a01b03160217905550835f01515f6007015f6101000a8154816001600160a01b0302191690836001600160a01b0316021790555083602001515f600a015f6101000a8154816001600160a01b0302191690836001600160a01b0316021790555083604001515f6023015f6101000a8154816001600160a01b0302191690836001600160a01b0316021790555083606001515f6024015f6101000a8154816001600160a01b0302191690836001600160a01b0316021790555083608001515f6025015f6101000a8154816001600160a01b0302191690836001600160a01b03160217905550825f01515f6002015f6101000a8154816001600160a01b0302191690836001600160a01b0316021790555082602001515f600e015f6101000a8154816001600160a01b0302191690836001600160a01b0316021790555082606001515f60070160146101000a81548161ffff021916908361ffff16021790555082608001515f6013015f6101000a81548162ffffff021916908362ffffff1602179055508260a001515f60130160036101000a81548162ffffff021916908362ffffff1602179055508260c001515f60130160066101000a81548162ffffff021916908362ffffff1602179055508260e001515f6022015f6101000a8154816001600160a01b0302191690836001600160a01b031602179055508261012001515f601f0160146101000a81548161ffff021916908361ffff160217905550806004015f9054906101000a90046001600160a01b03165f601f015f6101000a8154816001600160a01b0302191690836001600160a01b03160217905550855f01515f6003015f6101000a8154816001600160a01b0302191690836001600160a01b0316021790555085604001515f6004015f6101000a8154816001600160a01b0302191690836001600160a01b0316021790555085606001515f6005015f6101000a8154816001600160a01b0302191690836001600160a01b0316021790555085602001515f6009015f6101000a8154816001600160a01b0302191690836001600160a01b0316021790555085608001515f6032015f6101000a8154816001600160a01b0302191690836001600160a01b031602179055505f6020015f6009015f9054906101000a90046001600160a01b0316908060018154018082558091505060019003905f5260205f20015f9091909190916101000a8154816001600160a01b0302191690836001600160a01b031602179055505f6020015f6003015f9054906101000a90046001600160a01b0316908060018154018082558091505060019003905f5260205f20015f9091909190916101000a8154816001600160a01b0302191690836001600160a01b0316021790555082604001515f600f015f6101000a8154816001600160a01b0302191690836001600160a01b03160217905550604051602001610680906f636f6e74726163742e6164647265737360801b8152701c9bd8dad95d11195c1bdcda5d141bdbdb607a1b601082015260210190565b60408051601f19818403018152908290528051602091820120601055600f546001600160a01b0316916321f8a721916106e491016f636f6e74726163742e6164647265737360801b81526a1c9bd8dad95d15985d5b1d60aa1b6010820152601b0190565b604051602081830303815290604052805190602001206040518263ffffffff1660e01b815260040161071891815260200190565b602060405180830381865afa158015610733573d5f803e3d5ffd5b505050506040513d601f19601f820116820180604052508101906107579190611020565b601180546001600160a01b0319166001600160a01b03929092169190911790556040516f636f6e74726163742e6164647265737360801b60208201527f726f636b657444414f50726f746f636f6c53657474696e67734465706f736974603082015260500160408051601f198184030181529190528051602090910120601255610100830151515f5b81811015610847575f602601856101000151828151811061080357610803611042565b6020908102919091018101518254600180820185555f9485529290932090920180546001600160a01b0319166001600160a01b0390931692909217909155016107e0565b508361014001515f6028015f6101000a81548161ffff021916908361ffff16021790555060025f6029015f855f01516001600160a01b03166001600160a01b031681526020019081526020015f208190555060035f6029015f85602001516001600160a01b03166001600160a01b031681526020019081526020015f208190555060045f6029015f85604001516001600160a01b03166001600160a01b031681526020019081526020015f208190555060055f6029015f85606001516001600160a01b03166001600160a01b031681526020019081526020015f208190555060015f602a015f6101000a81548160ff02191690831515021790555060405180606001604052805f6009015f9054906101000a90046001600160a01b03166001600160a01b031681526020015f6003015f9054906101000a90046001600160a01b03166001600160a01b031681526020015f6013015f9054906101000a900462ffffff1662ffffff168152505f602b015f8081526020019081526020015f205f820151815f015f6101000a8154816001600160a01b0302191690836001600160a01b031602179055506020820151816001015f6101000a8154816001600160a01b0302191690836001600160a01b0316021790555060408201518160010160146101000a81548162ffffff021916908362ffffff16021790555090505060405180606001604052805f6009015f9054906101000a90046001600160a01b03166001600160a01b031681526020015f6003015f9054906101000a90046001600160a01b03166001600160a01b031681526020015f60130160039054906101000a900462ffffff1662ffffff168152505f602b015f600181526020019081526020015f205f820151815f015f6101000a8154816001600160a01b0302191690836001600160a01b031602179055506020820151816001015f6101000a8154816001600160a01b0302191690836001600160a01b0316021790555060408201518160010160146101000a81548162ffffff021916908362ffffff16021790555090505060405180606001604052805f6003015f9054906101000a90046001600160a01b03166001600160a01b031681526020015f6004015f9054906101000a90046001600160a01b03166001600160a01b031681526020015f6013015f9054906101000a900462ffffff1662ffffff168152505f602b015f600281526020019081526020015f205f820151815f015f6101000a8154816001600160a01b0302191690836001600160a01b031602179055506020820151816001015f6101000a8154816001600160a01b0302191690836001600160a01b0316021790555060408201518160010160146101000a81548162ffffff021916908362ffffff16021790555090505060645f602c015f6101000a81548161ffff021916908361ffff16021790555050505050505050565b634e487b7160e01b5f52604160045260245ffd5b604051610160810167ffffffffffffffff81118282101715610ca857610ca8610c70565b60405290565b6001600160a01b0381168114610cc2575f80fd5b50565b8035610cd081610cae565b919050565b5f60a08284031215610ce5575f80fd5b60405160a0810181811067ffffffffffffffff82111715610d0857610d08610c70565b6040529050808235610d1981610cae565b81526020830135610d2981610cae565b60208201526040830135610d3c81610cae565b60408201526060830135610d4f81610cae565b60608201526080830135610d6281610cae565b6080919091015292915050565b5f60808284031215610d7f575f80fd5b6040516080810181811067ffffffffffffffff82111715610da257610da2610c70565b6040529050808235610db381610cae565b81526020830135610dc381610cae565b60208201526040830135610dd681610cae565b60408201526060830135610de981610cae565b6060919091015292915050565b803561ffff81168114610cd0575f80fd5b803562ffffff81168114610cd0575f80fd5b5f82601f830112610e28575f80fd5b8135602067ffffffffffffffff80831115610e4557610e45610c70565b8260051b604051601f19603f83011681018181108482111715610e6a57610e6a610c70565b6040529384526020818701810194908101925087851115610e89575f80fd5b6020870191505b84821015610eb2578135610ea381610cae565b83529183019190830190610e90565b979650505050505050565b5f805f805f6102608688031215610ed2575f80fd5b610edc8787610cd5565b9450610eeb8760a08801610d6f565b9350610120610efc88828901610cd5565b93506101c087013567ffffffffffffffff80821115610f19575f80fd5b90880190610160828b031215610f2d575f80fd5b610f35610c84565b610f3e83610cc5565b8152610f4c60208401610cc5565b6020820152610f5d60408401610cc5565b6040820152610f6e60608401610df6565b6060820152610f7f60808401610e07565b6080820152610f9060a08401610e07565b60a0820152610fa160c08401610e07565b60c0820152610fb260e08401610cc5565b60e08201526101008084013583811115610fca575f80fd5b610fd68d828701610e19565b828401525050610fe7848401610df6565b848201526101409350610ffb848401610df6565b8482015280955050505050611014876101e08801610d6f565b90509295509295909350565b5f60208284031215611030575f80fd5b815161103b81610cae565b9392505050565b634e487b7160e01b5f52603260045260245ffdfea264697066735822122054025209ebcf3af384e09db7def1a3eed5c7a74cf27d04b877a4542e615f2fcf64736f6c63430008180033","linkReferences":{}},"methodIdentifiers":{"init((address,address,address,address,address),(address,address,address,address),(address,address,address,address,address),(address,address,address,uint16,uint24,uint24,uint24,address,address[],uint16,uint16),(address,address,address,address))":"714b4fb5"},"id":47}