{"abi":[{"type":"function","name":"getMaximumDepositPoolSize","inputs":[],"outputs":[{"name":"","type":"uint256","internalType":"uint256"}],"stateMutability":"pure"}],"bytecode":{"object":"0x6080604052348015600f57600080fd5b50607780601d6000396000f3fe6080604052348015600f57600080fd5b506004361060285760003560e01c8063fd6ce89e14602d575b600080fd5b600060405190815260200160405180910390f3fea2646970667358221220a02f35adaf0b092fca1e5cb172d12ffa6c9a1077b34ec74d4f72869cb7448c4464736f6c63430008150033","linkReferences":{}},"methodIdentifiers":{"getMaximumDepositPoolSize()":"fd6ce89e"},"id":131}