{"abi":[{"type":"function","name":"getMaximumDepositPoolSize","inputs":[],"outputs":[{"name":"","type":"uint256","internalType":"uint256"}],"stateMutability":"view"}],"bytecode":{"object":"0x6080604052348015600f57600080fd5b50607780601d6000396000f3fe6080604052348015600f57600080fd5b506004361060285760003560e01c8063fd6ce89e14602d575b600080fd5b600060405190815260200160405180910390f3fea2646970667358221220b855c5e5f951a99e5584d872718581609cf7db3adebdcb5b07ba11b174d9868564736f6c63430008150033","linkReferences":{}},"methodIdentifiers":{"getMaximumDepositPoolSize()":"fd6ce89e"},"id":135}