{
  "abi": [
    {
      "inputs": [],
      "stateMutability": "nonpayable",
      "type": "constructor"
    },
    {
      "inputs": [],
      "name": "AssetOutNoExist",
      "type": "error"
    },
    {
      "anonymous": false,
      "inputs": [
        {
          "indexed": true,
          "internalType": "address",
          "name": "owner",
          "type": "address"
        },
        {
          "indexed": true,
          "internalType": "address",
          "name": "spender",
          "type": "address"
        },
        {
          "indexed": false,
          "internalType": "uint256",
          "name": "value",
          "type": "uint256"
        }
      ],
      "name": "Approval",
      "type": "event"
    },
    {
      "anonymous": false,
      "inputs": [
        {
          "indexed": false,
          "internalType": "uint8",
          "name": "version",
          "type": "uint8"
        }
      ],
      "name": "Initialized",
      "type": "event"
    },
    {
      "anonymous": false,
      "inputs": [
        {
          "indexed": true,
          "internalType": "address",
          "name": "from",
          "type": "address"
        },
        {
          "indexed": true,
          "internalType": "address",
          "name": "to",
          "type": "address"
        },
        {
          "indexed": false,
          "internalType": "uint256",
          "name": "value",
          "type": "uint256"
        }
      ],
      "name": "Transfer",
      "type": "event"
    },
    {
      "inputs": [
        {
          "internalType": "address",
          "name": "owner",
          "type": "address"
        },
        {
          "internalType": "address",
          "name": "spender",
          "type": "address"
        }
      ],
      "name": "allowance",
      "outputs": [
        {
          "internalType": "uint256",
          "name": "",
          "type": "uint256"
        }
      ],
      "stateMutability": "view",
      "type": "function"
    },
    {
      "inputs": [
        {
          "internalType": "address",
          "name": "spender",
          "type": "address"
        },
        {
          "internalType": "uint256",
          "name": "amount",
          "type": "uint256"
        }
      ],
      "name": "approve",
      "outputs": [
        {
          "internalType": "bool",
          "name": "",
          "type": "bool"
        }
      ],
      "stateMutability": "nonpayable",
      "type": "function"
    },
    {
      "inputs": [
        {
          "internalType": "address",
          "name": "account",
          "type": "address"
        }
      ],
      "name": "balanceOf",
      "outputs": [
        {
          "internalType": "uint256",
          "name": "",
          "type": "uint256"
        }
      ],
      "stateMutability": "view",
      "type": "function"
    },
    {
      "inputs": [],
      "name": "circulatingSupply",
      "outputs": [
        {
          "internalType": "uint256",
          "name": "",
          "type": "uint256"
        }
      ],
      "stateMutability": "view",
      "type": "function"
    },
    {
      "inputs": [],
      "name": "decimals",
      "outputs": [
        {
          "internalType": "uint8",
          "name": "",
          "type": "uint8"
        }
      ],
      "stateMutability": "view",
      "type": "function"
    },
    {
      "inputs": [
        {
          "internalType": "address",
          "name": "spender",
          "type": "address"
        },
        {
          "internalType": "uint256",
          "name": "subtractedValue",
          "type": "uint256"
        }
      ],
      "name": "decreaseAllowance",
      "outputs": [
        {
          "internalType": "bool",
          "name": "",
          "type": "bool"
        }
      ],
      "stateMutability": "nonpayable",
      "type": "function"
    },
    {
      "inputs": [],
      "name": "getBal",
      "outputs": [
        {
          "internalType": "uint256",
          "name": "",
          "type": "uint256"
        }
      ],
      "stateMutability": "view",
      "type": "function"
    },
    {
      "inputs": [
        {
          "internalType": "enum QuoteAsset",
          "name": "asset_",
          "type": "uint8"
        }
      ],
      "name": "getExchangeRate",
      "outputs": [
        {
          "internalType": "uint256",
          "name": "",
          "type": "uint256"
        }
      ],
      "stateMutability": "view",
      "type": "function"
    },
    {
      "inputs": [],
      "name": "getExchangeRate",
      "outputs": [
        {
          "internalType": "uint256",
          "name": "",
          "type": "uint256"
        }
      ],
      "stateMutability": "view",
      "type": "function"
    },
    {
      "inputs": [],
      "name": "getOZ",
      "outputs": [
        {
          "internalType": "contract ozIDiamond",
          "name": "",
          "type": "address"
        }
      ],
      "stateMutability": "view",
      "type": "function"
    },
    {
      "inputs": [
        {
          "internalType": "address",
          "name": "spender",
          "type": "address"
        },
        {
          "internalType": "uint256",
          "name": "addedValue",
          "type": "uint256"
        }
      ],
      "name": "increaseAllowance",
      "outputs": [
        {
          "internalType": "bool",
          "name": "",
          "type": "bool"
        }
      ],
      "stateMutability": "nonpayable",
      "type": "function"
    },
    {
      "inputs": [
        {
          "internalType": "string",
          "name": "name_",
          "type": "string"
        },
        {
          "internalType": "string",
          "name": "symbol_",
          "type": "string"
        },
        {
          "internalType": "address",
          "name": "ozDiamond_",
          "type": "address"
        },
        {
          "internalType": "uint256",
          "name": "totalSupply_",
          "type": "uint256"
        },
        {
          "internalType": "uint256",
          "name": "communityAmount_",
          "type": "uint256"
        }
      ],
      "name": "initialize",
      "outputs": [],
      "stateMutability": "nonpayable",
      "type": "function"
    },
    {
      "inputs": [],
      "name": "name",
      "outputs": [
        {
          "internalType": "string",
          "name": "",
          "type": "string"
        }
      ],
      "stateMutability": "view",
      "type": "function"
    },
    {
      "inputs": [
        {
          "internalType": "address",
          "name": "owner_",
          "type": "address"
        },
        {
          "internalType": "address",
          "name": "receiver_",
          "type": "address"
        },
        {
          "internalType": "address",
          "name": "tokenOut_",
          "type": "address"
        },
        {
          "internalType": "uint256",
          "name": "ozlAmountIn_",
          "type": "uint256"
        },
        {
          "internalType": "uint256",
          "name": "minAmountOut_",
          "type": "uint256"
        }
      ],
      "name": "redeem",
      "outputs": [],
      "stateMutability": "nonpayable",
      "type": "function"
    },
    {
      "inputs": [],
      "name": "symbol",
      "outputs": [
        {
          "internalType": "string",
          "name": "",
          "type": "string"
        }
      ],
      "stateMutability": "view",
      "type": "function"
    },
    {
      "inputs": [],
      "name": "totalSupply",
      "outputs": [
        {
          "internalType": "uint256",
          "name": "",
          "type": "uint256"
        }
      ],
      "stateMutability": "view",
      "type": "function"
    },
    {
      "inputs": [
        {
          "internalType": "address",
          "name": "to",
          "type": "address"
        },
        {
          "internalType": "uint256",
          "name": "amount",
          "type": "uint256"
        }
      ],
      "name": "transfer",
      "outputs": [
        {
          "internalType": "bool",
          "name": "",
          "type": "bool"
        }
      ],
      "stateMutability": "nonpayable",
      "type": "function"
    },
    {
      "inputs": [
        {
          "internalType": "address",
          "name": "from",
          "type": "address"
        },
        {
          "internalType": "address",
          "name": "to",
          "type": "address"
        },
        {
          "internalType": "uint256",
          "name": "amount",
          "type": "uint256"
        }
      ],
      "name": "transferFrom",
      "outputs": [
        {
          "internalType": "bool",
          "name": "",
          "type": "bool"
        }
      ],
      "stateMutability": "nonpayable",
      "type": "function"
    }
  ],
  "bytecode": {
    "object": "0x608060405234801561001057600080fd5b5061001961001e565b6100de565b600054610100900460ff161561008a5760405162461bcd60e51b815260206004820152602760248201527f496e697469616c697a61626c653a20636f6e747261637420697320696e697469604482015266616c697a696e6760c81b606482015260840160405180910390fd5b60005460ff90811610156100dc576000805460ff191660ff9081179091556040519081527f7f26b83ff96e1f2b6a682f133852f6798a09c465da95921460cefb38474024989060200160405180910390a15b565b611853806100ed6000396000f3fe608060405234801561001057600080fd5b50600436106101165760003560e01c806370a08231116100a2578063a457c2d711610071578063a457c2d71461022c578063a9059cbb1461023f578063be78b2ba14610252578063dd62ed3e14610265578063e6aa216c1461027857600080fd5b806370a08231146101de57806374823132146102075780639358928b1461021c57806395d89b411461022457600080fd5b806325caa262116100e957806325caa26214610181578063313ce5671461018957806339509351146101985780634d02a3f7146101ab57806359c64e12146101be57600080fd5b806306fdde031461011b578063095ea7b31461013957806318160ddd1461015c57806323b872dd1461016e575b600080fd5b610123610280565b60405161013091906112e0565b60405180910390f35b61014c61014736600461130b565b610312565b6040519015158152602001610130565b6035545b604051908152602001610130565b61014c61017c366004611337565b61032c565b610160610350565b60405160128152602001610130565b61014c6101a636600461130b565b61040e565b6101606101b9366004611378565b610430565b6101c66104f5565b6040516001600160a01b039091168152602001610130565b6101606101ec366004611399565b6001600160a01b031660009081526033602052604090205490565b61021a610215366004611459565b610537565b005b6101606106b6565b610123610726565b61014c61023a36600461130b565b610735565b61014c61024d36600461130b565b6107b0565b61021a6102603660046114e1565b6107be565b610160610273366004611524565b6108d6565b610160610901565b60606036805461028f9061155d565b80601f01602080910402602001604051908101604052809291908181526020018280546102bb9061155d565b80156103085780601f106102dd57610100808354040283529160200191610308565b820191906000526020600020905b8154815290600101906020018083116102eb57829003601f168201915b5050505050905090565b600033610320818585610944565b60019150505b92915050565b60003361033a858285610a68565b610345858585610ae2565b506001949350505050565b6040516370a0823160e01b8152306004820152600090819073ae78736cd615f374d3085123a210448e74fc6393906370a0823190602401602060405180830381865afa1580156103a4573d6000803e3d6000fd5b505050506040513d601f19601f820116820180604052508101906103c89190611597565b90506104096040518060400160405280601a81526020017f724554482062616c202866726f6d206665657329202a2a2a3a2000000000000081525082610cb0565b919050565b60003361032081858561042183836108d6565b61042b91906115c6565b610944565b6040516370a0823160e01b8152306004820152600090670de0b6b3a764000090829073ae78736cd615f374d3085123a210448e74fc6393906370a0823190602401602060405180830381865afa15801561048e573d6000803e3d6000fd5b505050506040513d601f19601f820116820180604052508101906104b29190611597565b905060006104c08583610cf9565b905060006104cc6106b6565b9050806000036104e0575091949350505050565b6104eb848383610e25565b9695505050505050565b600061052861052560017f86ce1ea4932afb23386a483af3bf37658d9a562b0cc91e2c799fcb236cb30d576115d9565b90565b546001600160a01b0316919050565b600054610100900460ff16158080156105575750600054600160ff909116105b806105715750303b158015610571575060005460ff166001145b6105d95760405162461bcd60e51b815260206004820152602e60248201527f496e697469616c697a61626c653a20636f6e747261637420697320616c72656160448201526d191e481a5b9a5d1a585b1a5e995960921b60648201526084015b60405180910390fd5b6000805460ff1916600117905580156105fc576000805461ff0019166101001790555b6106068686610e43565b8361063561052560017f86ce1ea4932afb23386a483af3bf37658d9a562b0cc91e2c799fcb236cb30d576115d9565b80546001600160a01b0319166001600160a01b039290921691909117905561065d3084610e74565b610668308584610ae2565b80156106ae576000805461ff0019169055604051600181527f7f26b83ff96e1f2b6a682f133852f6798a09c465da95921460cefb38474024989060200160405180910390a15b505050505050565b60006106c06104f5565b6001600160a01b0316631e4d84c66040518163ffffffff1660e01b8152600401602060405180830381865afa1580156106fd573d6000803e3d6000fd5b505050506040513d601f19601f820116820180604052508101906107219190611597565b905090565b60606037805461028f9061155d565b6000338161074382866108d6565b9050838110156107a35760405162461bcd60e51b815260206004820152602560248201527f45524332303a2064656372656173656420616c6c6f77616e63652062656c6f77604482015264207a65726f60d81b60648201526084016105d0565b6103458286868403610944565b600033610320818585610ae2565b60006107c86104f5565b60405163423f0b9160e01b81526001600160a01b038681166004830152919091169063423f0b9190602401602060405180830381865afa158015610810573d6000803e3d6000fd5b505050506040513d601f19601f8201168201806040525081019061083491906115ec565b6001600160a01b031614801561086757506001600160a01b03831673eeeeeeeeeeeeeeeeeeeeeeeeeeeeeeeeeeeeeeee14155b801561089057506001600160a01b03831673ae78736cd615f374d3085123a210448e74fc639314155b156108ae5760405163f67dc7cd60e01b815260040160405180910390fd5b336001600160a01b038616146108c9576108c9853384610a68565b6106ae8585858585610f53565b6001600160a01b03918216600090815260346020908152604080832093909416825291909152205490565b604051634d02a3f760e01b81526000903090634d02a3f79061092790849060040161161f565b602060405180830381865afa1580156106fd573d6000803e3d6000fd5b6001600160a01b0383166109a65760405162461bcd60e51b8152602060048201526024808201527f45524332303a20617070726f76652066726f6d20746865207a65726f206164646044820152637265737360e01b60648201526084016105d0565b6001600160a01b038216610a075760405162461bcd60e51b815260206004820152602260248201527f45524332303a20617070726f766520746f20746865207a65726f206164647265604482015261737360f01b60648201526084016105d0565b6001600160a01b0383811660008181526034602090815260408083209487168084529482529182902085905590518481527f8c5be1e5ebec7d5bd14f71427d1e84f3dd0314c0f7b2291e5b200ac8c7c3b925910160405180910390a3505050565b6000610a7484846108d6565b90506000198114610adc5781811015610acf5760405162461bcd60e51b815260206004820152601d60248201527f45524332303a20696e73756666696369656e7420616c6c6f77616e636500000060448201526064016105d0565b610adc8484848403610944565b50505050565b6001600160a01b038316610b465760405162461bcd60e51b815260206004820152602560248201527f45524332303a207472616e736665722066726f6d20746865207a65726f206164604482015264647265737360d81b60648201526084016105d0565b6001600160a01b038216610ba85760405162461bcd60e51b815260206004820152602360248201527f45524332303a207472616e7366657220746f20746865207a65726f206164647260448201526265737360e81b60648201526084016105d0565b6001600160a01b03831660009081526033602052604090205481811015610c205760405162461bcd60e51b815260206004820152602660248201527f45524332303a207472616e7366657220616d6f756e7420657863656564732062604482015265616c616e636560d01b60648201526084016105d0565b6001600160a01b03808516600090815260336020526040808220858503905591851681529081208054849290610c579084906115c6565b92505081905550826001600160a01b0316846001600160a01b03167fddf252ad1be2c89b69c2b068fc378daa952ba7f163c4a11628f55a4df523b3ef84604051610ca391815260200190565b60405180910390a3610adc565b610cf58282604051602401610cc6929190611647565b60408051601f198184030181529190526020810180516001600160e01b03166309710a9d60e41b1790526110ef565b5050565b6040805160048152602481019091526020810180516001600160e01b0316636a57db9d60e11b179052600090610d36610d306104f5565b82611110565b9050600081806020019051810190610d4e9190611597565b9050600080866001811115610d6557610d65611609565b03610ded57610de6610d756104f5565b6001600160a01b031663f424c4ba6040518163ffffffff1660e01b8152600401602060405180830381865afa158015610db2573d6000803e3d6000fd5b505050506040513d601f19601f82011682018060405250810190610dd69190611597565b8690670de0b6b3a7640000610e25565b9050610e1c565b6001866001811115610e0157610e01611609565b03610e1c57610e198583670de0b6b3a7640000610e25565b90505b95945050505050565b6000826000190484118302158202610e3c57600080fd5b5091020490565b600054610100900460ff16610e6a5760405162461bcd60e51b81526004016105d090611669565b610cf5828261113c565b6001600160a01b038216610eca5760405162461bcd60e51b815260206004820152601f60248201527f45524332303a206d696e7420746f20746865207a65726f20616464726573730060448201526064016105d0565b8060356000828254610edc91906115c6565b90915550506001600160a01b03821660009081526033602052604081208054839290610f099084906115c6565b90915550506040518181526001600160a01b038316906000907fddf252ad1be2c89b69c2b068fc378daa952ba7f163c4a11628f55a4df523b3ef9060200160405180910390a35050565b6000610f66610f606104f5565b846107b0565b506000610f86610f766000610430565b8590670de0b6b3a7640000610e25565b90506000670de0b6b3a7640000611010670de0b6b3a7640000610fa76104f5565b6001600160a01b031663f424c4ba6040518163ffffffff1660e01b8152600401602060405180830381865afa158015610fe4573d6000803e3d6000fd5b505050506040513d601f19601f820116820180604052508101906110089190611597565b859190610e25565b61101a91906116b4565b905073ae78736cd615f374d3085123a210448e74fc6392196001600160a01b0387160161104a579150610e1c9050565b6110526104f5565b6040516336da1ebf60e11b815273ae78736cd615f374d3085123a210448e74fc639360048201526001600160a01b038881166024830152898116604483015260648201849052608482018790529190911690636db43d7e9060a401600060405180830381600087803b1580156110c757600080fd5b505af11580156110db573d6000803e3d6000fd5b50505050505095945050505050565b505050565b80516a636f6e736f6c652e6c6f67602083016000808483855afa5050505050565b606061113583836040518060600160405280602581526020016117f96025913961117c565b9392505050565b600054610100900460ff166111635760405162461bcd60e51b81526004016105d090611669565b603661116f838261171c565b5060376110ea828261171c565b6060600080856001600160a01b03168560405161119991906117dc565b600060405180830381855afa9150503d80600081146111d4576040519150601f19603f3d011682016040523d82523d6000602084013e6111d9565b606091505b50915091506104eb868383876060831561125457825160000361124d576001600160a01b0385163b61124d5760405162461bcd60e51b815260206004820152601d60248201527f416464726573733a2063616c6c20746f206e6f6e2d636f6e747261637400000060448201526064016105d0565b508161125e565b61125e8383611266565b949350505050565b8151156112765781518083602001fd5b8060405162461bcd60e51b81526004016105d091906112e0565b60005b838110156112ab578181015183820152602001611293565b50506000910152565b600081518084526112cc816020860160208601611290565b601f01601f19169290920160200192915050565b60208152600061113560208301846112b4565b6001600160a01b038116811461130857600080fd5b50565b6000806040838503121561131e57600080fd5b8235611329816112f3565b946020939093013593505050565b60008060006060848603121561134c57600080fd5b8335611357816112f3565b92506020840135611367816112f3565b929592945050506040919091013590565b60006020828403121561138a57600080fd5b81356002811061113557600080fd5b6000602082840312156113ab57600080fd5b8135611135816112f3565b634e487b7160e01b600052604160045260246000fd5b600082601f8301126113dd57600080fd5b813567ffffffffffffffff808211156113f8576113f86113b6565b604051601f8301601f19908116603f01168101908282118183101715611420576114206113b6565b8160405283815286602085880101111561143957600080fd5b836020870160208301376000602085830101528094505050505092915050565b600080600080600060a0868803121561147157600080fd5b853567ffffffffffffffff8082111561148957600080fd5b61149589838a016113cc565b965060208801359150808211156114ab57600080fd5b506114b8888289016113cc565b94505060408601356114c9816112f3565b94979396509394606081013594506080013592915050565b600080600080600060a086880312156114f957600080fd5b8535611504816112f3565b94506020860135611514816112f3565b935060408601356114c9816112f3565b6000806040838503121561153757600080fd5b8235611542816112f3565b91506020830135611552816112f3565b809150509250929050565b600181811c9082168061157157607f821691505b60208210810361159157634e487b7160e01b600052602260045260246000fd5b50919050565b6000602082840312156115a957600080fd5b5051919050565b634e487b7160e01b600052601160045260246000fd5b80820180821115610326576103266115b0565b81810381811115610326576103266115b0565b6000602082840312156115fe57600080fd5b8151611135816112f3565b634e487b7160e01b600052602160045260246000fd5b602081016002831061164157634e487b7160e01b600052602160045260246000fd5b91905290565b60408152600061165a60408301856112b4565b90508260208301529392505050565b6020808252602b908201527f496e697469616c697a61626c653a20636f6e7472616374206973206e6f74206960408201526a6e697469616c697a696e6760a81b606082015260800190565b6000826116d157634e487b7160e01b600052601260045260246000fd5b500490565b601f8211156110ea57600081815260208120601f850160051c810160208610156116fd5750805b601f850160051c820191505b818110156106ae57828155600101611709565b815167ffffffffffffffff811115611736576117366113b6565b61174a81611744845461155d565b846116d6565b602080601f83116001811461177f57600084156117675750858301515b600019600386901b1c1916600185901b1785556106ae565b600085815260208120601f198616915b828110156117ae5788860151825594840194600190910190840161178f565b50858210156117cc5787850151600019600388901b60f8161c191681555b5050505050600190811b01905550565b600082516117ee818460208701611290565b919091019291505056fe416464726573733a206c6f772d6c6576656c207374617469632063616c6c206661696c6564a2646970667358221220ecbaa51b31092ceb7cd7a8808b4a1c76d960158f8aa5d4d71109430d3241034f64736f6c63430008150033",
    "linkReferences": {}
  },
  "methodIdentifiers": {
    "allowance(address,address)": "dd62ed3e",
    "approve(address,uint256)": "095ea7b3",
    "balanceOf(address)": "70a08231",
    "circulatingSupply()": "9358928b",
    "decimals()": "313ce567",
    "decreaseAllowance(address,uint256)": "a457c2d7",
    "getBal()": "25caa262",
    "getExchangeRate()": "e6aa216c",
    "getExchangeRate(uint8)": "4d02a3f7",
    "getOZ()": "59c64e12",
    "increaseAllowance(address,uint256)": "39509351",
    "initialize(string,string,address,uint256,uint256)": "74823132",
    "name()": "06fdde03",
    "redeem(address,address,address,uint256,uint256)": "be78b2ba",
    "symbol()": "95d89b41",
    "totalSupply()": "18160ddd",
    "transfer(address,uint256)": "a9059cbb",
    "transferFrom(address,address,uint256)": "23b872dd"
  },
  "id": 4
}