{
  "abi": [
    {
      "inputs": [],
      "stateMutability": "nonpayable",
      "type": "constructor"
    },
    {
      "inputs": [
        {
          "internalType": "string",
          "name": "errorMsg",
          "type": "string"
        }
      ],
      "name": "OZError01",
      "type": "error"
    },
    {
      "inputs": [],
      "name": "OZError02",
      "type": "error"
    },
    {
      "inputs": [
        {
          "internalType": "string",
          "name": "errorCode",
          "type": "string"
        }
      ],
      "name": "OZError10",
      "type": "error"
    },
    {
      "inputs": [
        {
          "internalType": "address",
          "name": "tokenOut",
          "type": "address"
        }
      ],
      "name": "OZError18",
      "type": "error"
    },
    {
      "inputs": [
        {
          "internalType": "uint256",
          "name": "amount",
          "type": "uint256"
        }
      ],
      "name": "OZError19",
      "type": "error"
    },
    {
      "inputs": [],
      "name": "OZError20",
      "type": "error"
    },
    {
      "inputs": [
        {
          "internalType": "string",
          "name": "reason",
          "type": "string"
        }
      ],
      "name": "OZError21",
      "type": "error"
    },
    {
      "anonymous": false,
      "inputs": [
        {
          "indexed": true,
          "internalType": "address",
          "name": "owner",
          "type": "address"
        },
        {
          "indexed": true,
          "internalType": "address",
          "name": "spender",
          "type": "address"
        },
        {
          "indexed": false,
          "internalType": "uint256",
          "name": "value",
          "type": "uint256"
        }
      ],
      "name": "Approval",
      "type": "event"
    },
    {
      "anonymous": false,
      "inputs": [
        {
          "indexed": false,
          "internalType": "uint8",
          "name": "version",
          "type": "uint8"
        }
      ],
      "name": "Initialized",
      "type": "event"
    },
    {
      "anonymous": false,
      "inputs": [
        {
          "indexed": true,
          "internalType": "address",
          "name": "from",
          "type": "address"
        },
        {
          "indexed": true,
          "internalType": "address",
          "name": "to",
          "type": "address"
        },
        {
          "indexed": false,
          "internalType": "uint256",
          "name": "value",
          "type": "uint256"
        }
      ],
      "name": "Transfer",
      "type": "event"
    },
    {
      "inputs": [
        {
          "internalType": "address",
          "name": "owner",
          "type": "address"
        },
        {
          "internalType": "address",
          "name": "spender",
          "type": "address"
        }
      ],
      "name": "allowance",
      "outputs": [
        {
          "internalType": "uint256",
          "name": "",
          "type": "uint256"
        }
      ],
      "stateMutability": "view",
      "type": "function"
    },
    {
      "inputs": [
        {
          "internalType": "address",
          "name": "spender",
          "type": "address"
        },
        {
          "internalType": "uint256",
          "name": "amount",
          "type": "uint256"
        }
      ],
      "name": "approve",
      "outputs": [
        {
          "internalType": "bool",
          "name": "",
          "type": "bool"
        }
      ],
      "stateMutability": "nonpayable",
      "type": "function"
    },
    {
      "inputs": [
        {
          "internalType": "address",
          "name": "account",
          "type": "address"
        }
      ],
      "name": "balanceOf",
      "outputs": [
        {
          "internalType": "uint256",
          "name": "",
          "type": "uint256"
        }
      ],
      "stateMutability": "view",
      "type": "function"
    },
    {
      "inputs": [],
      "name": "circulatingSupply",
      "outputs": [
        {
          "internalType": "uint256",
          "name": "",
          "type": "uint256"
        }
      ],
      "stateMutability": "view",
      "type": "function"
    },
    {
      "inputs": [],
      "name": "decimals",
      "outputs": [
        {
          "internalType": "uint8",
          "name": "",
          "type": "uint8"
        }
      ],
      "stateMutability": "view",
      "type": "function"
    },
    {
      "inputs": [
        {
          "internalType": "address",
          "name": "spender",
          "type": "address"
        },
        {
          "internalType": "uint256",
          "name": "subtractedValue",
          "type": "uint256"
        }
      ],
      "name": "decreaseAllowance",
      "outputs": [
        {
          "internalType": "bool",
          "name": "",
          "type": "bool"
        }
      ],
      "stateMutability": "nonpayable",
      "type": "function"
    },
    {
      "inputs": [
        {
          "internalType": "enum QuoteAsset",
          "name": "asset_",
          "type": "uint8"
        }
      ],
      "name": "getExchangeRate",
      "outputs": [
        {
          "internalType": "uint256",
          "name": "",
          "type": "uint256"
        }
      ],
      "stateMutability": "view",
      "type": "function"
    },
    {
      "inputs": [],
      "name": "getExchangeRate",
      "outputs": [
        {
          "internalType": "uint256",
          "name": "",
          "type": "uint256"
        }
      ],
      "stateMutability": "view",
      "type": "function"
    },
    {
      "inputs": [],
      "name": "getOZ",
      "outputs": [
        {
          "internalType": "contract ozIDiamond",
          "name": "",
          "type": "address"
        }
      ],
      "stateMutability": "view",
      "type": "function"
    },
    {
      "inputs": [
        {
          "internalType": "address",
          "name": "spender",
          "type": "address"
        },
        {
          "internalType": "uint256",
          "name": "addedValue",
          "type": "uint256"
        }
      ],
      "name": "increaseAllowance",
      "outputs": [
        {
          "internalType": "bool",
          "name": "",
          "type": "bool"
        }
      ],
      "stateMutability": "nonpayable",
      "type": "function"
    },
    {
      "inputs": [
        {
          "internalType": "string",
          "name": "name_",
          "type": "string"
        },
        {
          "internalType": "string",
          "name": "symbol_",
          "type": "string"
        },
        {
          "internalType": "address",
          "name": "ozDiamond_",
          "type": "address"
        },
        {
          "internalType": "uint256",
          "name": "totalSupply_",
          "type": "uint256"
        },
        {
          "internalType": "uint256",
          "name": "communityAmount_",
          "type": "uint256"
        }
      ],
      "name": "initialize",
      "outputs": [],
      "stateMutability": "nonpayable",
      "type": "function"
    },
    {
      "inputs": [],
      "name": "name",
      "outputs": [
        {
          "internalType": "string",
          "name": "",
          "type": "string"
        }
      ],
      "stateMutability": "view",
      "type": "function"
    },
    {
      "inputs": [
        {
          "internalType": "address",
          "name": "owner_",
          "type": "address"
        },
        {
          "internalType": "address",
          "name": "receiver_",
          "type": "address"
        },
        {
          "internalType": "address",
          "name": "tokenOut_",
          "type": "address"
        },
        {
          "internalType": "uint256",
          "name": "ozlAmountIn_",
          "type": "uint256"
        },
        {
          "internalType": "uint256[]",
          "name": "minAmountsOut_",
          "type": "uint256[]"
        }
      ],
      "name": "redeem",
      "outputs": [
        {
          "internalType": "uint256",
          "name": "amountOut",
          "type": "uint256"
        }
      ],
      "stateMutability": "nonpayable",
      "type": "function"
    },
    {
      "inputs": [],
      "name": "symbol",
      "outputs": [
        {
          "internalType": "string",
          "name": "",
          "type": "string"
        }
      ],
      "stateMutability": "view",
      "type": "function"
    },
    {
      "inputs": [],
      "name": "totalSupply",
      "outputs": [
        {
          "internalType": "uint256",
          "name": "",
          "type": "uint256"
        }
      ],
      "stateMutability": "view",
      "type": "function"
    },
    {
      "inputs": [
        {
          "internalType": "address",
          "name": "to",
          "type": "address"
        },
        {
          "internalType": "uint256",
          "name": "amount",
          "type": "uint256"
        }
      ],
      "name": "transfer",
      "outputs": [
        {
          "internalType": "bool",
          "name": "",
          "type": "bool"
        }
      ],
      "stateMutability": "nonpayable",
      "type": "function"
    },
    {
      "inputs": [
        {
          "internalType": "address",
          "name": "from",
          "type": "address"
        },
        {
          "internalType": "address",
          "name": "to",
          "type": "address"
        },
        {
          "internalType": "uint256",
          "name": "amount",
          "type": "uint256"
        }
      ],
      "name": "transferFrom",
      "outputs": [
        {
          "internalType": "bool",
          "name": "",
          "type": "bool"
        }
      ],
      "stateMutability": "nonpayable",
      "type": "function"
    }
  ],
  "bytecode": {
    "object": "0x60806040523480156200001157600080fd5b506200001c62000022565b620000e4565b600054610100900460ff16156200008f5760405162461bcd60e51b815260206004820152602760248201527f496e697469616c697a61626c653a20636f6e747261637420697320696e697469604482015266616c697a696e6760c81b606482015260840160405180910390fd5b60005460ff9081161015620000e2576000805460ff191660ff9081179091556040519081527f7f26b83ff96e1f2b6a682f133852f6798a09c465da95921460cefb38474024989060200160405180910390a15b565b61285e80620000f46000396000f3fe608060405234801561001057600080fd5b506004361061010b5760003560e01c80636afa0287116100a257806395d89b411161007157806395d89b4114610224578063a457c2d71461022c578063a9059cbb1461023f578063dd62ed3e14610252578063e6aa216c1461026557600080fd5b80636afa0287146101cb57806370a08231146101de57806374823132146102075780639358928b1461021c57600080fd5b8063313ce567116100de578063313ce5671461017657806339509351146101855780634d02a3f71461019857806359c64e12146101ab57600080fd5b806306fdde0314610110578063095ea7b31461012e57806318160ddd1461015157806323b872dd14610163575b600080fd5b61011861026d565b6040516101259190611f18565b60405180910390f35b61014161013c366004611f40565b6102ff565b6040519015158152602001610125565b6035545b604051908152602001610125565b610141610171366004611f6c565b610319565b60405160128152602001610125565b610141610193366004611f40565b61033f565b6101556101a6366004611fad565b610361565b6101b36104ae565b6040516001600160a01b039091168152602001610125565b6101556101d9366004612011565b6104f0565b6101556101ec3660046120fc565b6001600160a01b031660009081526033602052604090205490565b61021a61021536600461218d565b6107e0565b005b61015561095a565b6101186109ca565b61014161023a366004611f40565b6109d9565b61014161024d366004611f40565b610a5f565b610155610260366004612215565b610a6d565b610155610a98565b60606036805461027c9061224e565b80601f01602080910402602001604051908101604052809291908181526020018280546102a89061224e565b80156102f55780601f106102ca576101008083540402835291602001916102f5565b820191906000526020600020905b8154815290600101906020018083116102d857829003601f168201915b5050505050905090565b60003361030d818585610adb565b60019150505b92915050565b600033610327858285610bff565b610332858585610c79565b60019150505b9392505050565b60003361030d8185856103528383610a6d565b61035c919061229e565b610adb565b6000670de0b6b3a7640000816103756104ae565b6001600160a01b031663b73a89516040518163ffffffff1660e01b815260040161010060405180830381865afa1580156103b3573d6000803e3d6000fd5b505050506040513d601f19601f820116820180604052508101906103d791906122d4565b60c001516040516370a0823160e01b81523060048201529091506000906001600160a01b038316906370a0823190602401602060405180830381865afa158015610425573d6000803e3d6000fd5b505050506040513d601f19601f820116820180604052508101906104499190612399565b905060006002866002811115610461576104616123b2565b14610475576104708683610e47565b610477565b815b9050600061048361095a565b90508060000361049857509295945050505050565b6104a3858383610f71565b979650505050505050565b60006104e16104de60017f86ce1ea4932afb23386a483af3bf37658d9a562b0cc91e2c799fcb236cb30d576123c8565b90565b546001600160a01b0316919050565b6000806104fb6104ae565b90506000816001600160a01b031663b73a89516040518163ffffffff1660e01b815260040161010060405180830381865afa15801561053e573d6000803e3d6000fd5b505050506040513d601f19601f8201168201806040525081019061056291906122d4565b60405163423f0b9160e01b81526001600160a01b03888116600483015291925060009184169063423f0b9190602401602060405180830381865afa1580156105ae573d6000803e3d6000fd5b505050506040513d601f19601f820116820180604052508101906105d291906123db565b6001600160a01b03161480156105fe57508060e001516001600160a01b0316866001600160a01b031614155b801561062057508060c001516001600160a01b0316866001600160a01b031614155b1561064e5760405163d74ef47560e01b81526001600160a01b03871660048201526024015b60405180910390fd5b336001600160a01b0389161461066957610669883387610bff565b610674308387610f8f565b60006106936106836000610361565b8790670de0b6b3a7640000610f71565b9050600061070d670de0b6b3a7640000856001600160a01b031663f424c4ba6040518163ffffffff1660e01b8152600401602060405180830381865afa1580156106e1573d6000803e3d6000fd5b505050506040513d601f19601f820116820180604052508101906107059190612399565b849190610f71565b905061074e6040518060400160405280601781526020017f72455448746f52656465656d20696e202d204f5a4c3a2000000000000000000081525082610ff7565b8260c001516001600160a01b0316886001600160a01b0316036107c3578560008151811061077e5761077e6123f8565b60200260200101518110156107a957604051631aa1e78f60e31b815260048101829052602401610645565b6107b88360c001518a83611040565b9450505050506107d7565b6107d083898b848a611054565b9450505050505b95945050505050565b600054610100900460ff16158080156108005750600054600160ff909116105b8061081a5750303b15801561081a575060005460ff166001145b61087d5760405162461bcd60e51b815260206004820152602e60248201527f496e697469616c697a61626c653a20636f6e747261637420697320616c72656160448201526d191e481a5b9a5d1a585b1a5e995960921b6064820152608401610645565b6000805460ff1916600117905580156108a0576000805461ff0019166101001790555b6108aa8686611065565b836108d96104de60017f86ce1ea4932afb23386a483af3bf37658d9a562b0cc91e2c799fcb236cb30d576123c8565b80546001600160a01b0319166001600160a01b03929092169190911790556109013084611096565b61090c308584610c79565b8015610952576000805461ff0019169055604051600181527f7f26b83ff96e1f2b6a682f133852f6798a09c465da95921460cefb38474024989060200160405180910390a15b505050505050565b60006109646104ae565b6001600160a01b0316631e4d84c66040518163ffffffff1660e01b8152600401602060405180830381865afa1580156109a1573d6000803e3d6000fd5b505050506040513d601f19601f820116820180604052508101906109c59190612399565b905090565b60606037805461027c9061224e565b600033816109e78286610a6d565b905083811015610a475760405162461bcd60e51b815260206004820152602560248201527f45524332303a2064656372656173656420616c6c6f77616e63652062656c6f77604482015264207a65726f60d81b6064820152608401610645565b610a548286868403610adb565b506001949350505050565b60003361030d818585610c79565b6001600160a01b03918216600090815260346020908152604080832093909416825291909152205490565b604051634d02a3f760e01b81526000903090634d02a3f790610abe90849060040161240e565b602060405180830381865afa1580156109a1573d6000803e3d6000fd5b6001600160a01b038316610b3d5760405162461bcd60e51b8152602060048201526024808201527f45524332303a20617070726f76652066726f6d20746865207a65726f206164646044820152637265737360e01b6064820152608401610645565b6001600160a01b038216610b9e5760405162461bcd60e51b815260206004820152602260248201527f45524332303a20617070726f766520746f20746865207a65726f206164647265604482015261737360f01b6064820152608401610645565b6001600160a01b0383811660008181526034602090815260408083209487168084529482529182902085905590518481527f8c5be1e5ebec7d5bd14f71427d1e84f3dd0314c0f7b2291e5b200ac8c7c3b925910160405180910390a3505050565b6000610c0b8484610a6d565b90506000198114610c735781811015610c665760405162461bcd60e51b815260206004820152601d60248201527f45524332303a20696e73756666696369656e7420616c6c6f77616e63650000006044820152606401610645565b610c738484848403610adb565b50505050565b6001600160a01b038316610cdd5760405162461bcd60e51b815260206004820152602560248201527f45524332303a207472616e736665722066726f6d20746865207a65726f206164604482015264647265737360d81b6064820152608401610645565b6001600160a01b038216610d3f5760405162461bcd60e51b815260206004820152602360248201527f45524332303a207472616e7366657220746f20746865207a65726f206164647260448201526265737360e81b6064820152608401610645565b6001600160a01b03831660009081526033602052604090205481811015610db75760405162461bcd60e51b815260206004820152602660248201527f45524332303a207472616e7366657220616d6f756e7420657863656564732062604482015265616c616e636560d01b6064820152608401610645565b6001600160a01b03808516600090815260336020526040808220858503905591851681529081208054849290610dee90849061229e565b92505081905550826001600160a01b0316846001600160a01b03167fddf252ad1be2c89b69c2b068fc378daa952ba7f163c4a11628f55a4df523b3ef84604051610e3a91815260200190565b60405180910390a3610c73565b6040805160048152602481019091526020810180516001600160e01b0316636a57db9d60e11b179052600090610e84610e7e6104ae565b82611175565b9050600081806020019051810190610e9c9190612399565b9050600080866002811115610eb357610eb36123b2565b03610f3b57610f34610ec36104ae565b6001600160a01b031663f424c4ba6040518163ffffffff1660e01b8152600401602060405180830381865afa158015610f00573d6000803e3d6000fd5b505050506040513d601f19601f82011682018060405250810190610f249190612399565b8690670de0b6b3a7640000610f71565b90506107d7565b6001866002811115610f4f57610f4f6123b2565b036107d757610f678583670de0b6b3a7640000610f71565b9695505050505050565b6000826000190484118302158202610f8857600080fd5b5091020490565b6040516001600160a01b038316602482015260448101829052610ff290849063a9059cbb60e01b906064015b60408051601f198184030181529190526020810180516001600160e01b03166001600160e01b03199093169290921790915261119a565b505050565b61103c828260405160240161100d929190612428565b60408051601f198184030181529190526020810180516001600160e01b03166309710a9d60e41b17905261126f565b5050565b600061104d848484610f8f565b5092915050565b6000610f6786868686866000611290565b600054610100900460ff1661108c5760405162461bcd60e51b81526004016106459061244a565b61103c8282611467565b6001600160a01b0382166110ec5760405162461bcd60e51b815260206004820152601f60248201527f45524332303a206d696e7420746f20746865207a65726f2061646472657373006044820152606401610645565b80603560008282546110fe919061229e565b90915550506001600160a01b0382166000908152603360205260408120805483929061112b90849061229e565b90915550506040518181526001600160a01b038316906000907fddf252ad1be2c89b69c2b068fc378daa952ba7f163c4a11628f55a4df523b3ef9060200160405180910390a35050565b60606103388383604051806060016040528060258152602001612804602591396114a7565b60006111ef826040518060400160405280602081526020017f5361666545524332303a206c6f772d6c6576656c2063616c6c206661696c6564815250856001600160a01b03166115159092919063ffffffff16565b905080516000148061121057508080602001905181019061121091906124a5565b610ff25760405162461bcd60e51b815260206004820152602a60248201527f5361666545524332303a204552433230206f7065726174696f6e20646964206e6044820152691bdd081cdd58d8d9595960b21b6064820152608401610645565b80516a636f6e736f6c652e6c6f67602083016000808483855afa5050505050565b60008080808460028111156112a7576112a76123b2565b036112b957505060c087015160e08801515b600089604001516001600160a01b0316631c0de0516040518163ffffffff1660e01b8152600401606060405180830381865afa1580156112fd573d6000803e3d6000fd5b505050506040513d601f19601f8201168201806040525081019061132191906124c0565b505090508015611380576113428383308d600001518e602001518c8c61152c565b935061137b60405180604001604052806015815260200174030b6b7bab73a27baba2bb2ba341016903ab7349d1605d1b81525085610ff7565b6113a0565b61139d83838c604001518d606001518e608001518c8c60006117c0565b93505b8960e001516001600160a01b0316896001600160a01b03160361143c5760e08a015160405163a9059cbb60e01b81526001600160a01b038a81166004830152602482018790529091169063a9059cbb906044016020604051808303816000875af1158015611412573d6000803e3d6000fd5b505050506040513d601f19601f8201168201806040525081019061143691906124a5565b5061145a565b6114578a60e001518a8a8d600001518e60200151898c61152c565b93505b5050509695505050505050565b600054610100900460ff1661148e5760405162461bcd60e51b81526004016106459061244a565b603661149a838261253b565b506037610ff2828261253b565b6060600080856001600160a01b0316856040516114c491906125fb565b600060405180830381855afa9150503d80600081146114ff576040519150601f19603f3d011682016040523d82523d6000602084013e611504565b606091505b5091509150610f6786838387611b5c565b60606115248484600085611bd5565b949350505050565b6000611539888685611ca5565b61155e604051806040016040528060048152602001632d2d2d2d60e01b815250611dba565b6115ad60405180604001604052806013815260200172036b4b73a27baba103ab9b21016903ab7349d1606d1b815250836001815181106115a0576115a06123f8565b6020026020010151610ff7565b6115de6040518060400160405280600f81526020016e030b6b7bab73a24b72f903ab7349d1608d1b81525084610ff7565b61160a6040518060400160405280600a81526020016903a37b5b2b724b72f9d160b51b81525089611e00565b61162f604051806040016040528060048152602001632d2d2d2d60e01b815250611dba565b60006040518061010001604052808a6001600160a01b03168152602001896001600160a01b031681526020018662ffffff168152602001886001600160a01b0316815260200142815260200185815260200184600181518110611694576116946123f8565b60209081029190910181015182526000918101919091526040805163414bf38960e01b815283516001600160a01b03908116600483015292840151831660248201529083015162ffffff1660448201526060830151821660648201526080830151608482015260a083015160a482015260c083015160c482015260e0830151821660e482015291925087169063414bf38990610104016020604051808303816000875af1925050508015611765575060408051601f3d908101601f1916820190925261176291810190612399565b60015b6117b757611771612617565b806308c379a0036117ab5750611785612632565b8061179057506117ad565b8060405163633abab960e01b81526004016106459190611f18565b505b3d6000803e3d6000fd5b91506104a39050565b6000806040518060c00160405280896001600160a01b03166338fff2d06040518163ffffffff1660e01b8152600401602060405180830381865afa15801561180c573d6000803e3d6000fd5b505050506040513d601f19601f820116820180604052508101906118309190612399565b8152602001600081526001600160a01b03808d1660208301528b1660408201526060810187905260800160006040519080825280601f01601f191660200182016040528015611886576020820181803683370190505b50905260408051608081018252308082526000602083018190529282015260608101829052919250808560028111156118c1576118c16123b2565b036118e857856000815181106118d9576118d96123f8565b602002602001015190506119e3565b60008560028111156118fc576118fc6123b2565b146119e35760405163e969f6b360e01b81526001600160a01b038a169063e969f6b39061192f9086908690600401612723565b6020604051808303816000875af192505050801561196a575060408051601f3d908101601f1916820190925261196791810190612399565b60015b6119b057611976612617565b806308c379a0036117ab575061198a612632565b8061199557506117ad565b8060405163dafe91cd60e01b81526004016106459190611f18565b6000876000815181106119c5576119c56123f8565b602002602001015190508181116119dc57816119de565b805b925050505b6119f28c898560800151611ca5565b6040516352bbbe2960e01b81526001600160a01b038916906352bbbe2990611a24908690869086904290600401612775565b6020604051808303816000875af1925050508015611a5f575060408051601f3d908101601f19168201909252611a5c91810190612399565b60015b611aec57611a6b612617565b806308c379a0036117ab5750611a7f612632565b80611a8a57506117ad565b611ab3816040518060400160405280600781526020016642414c2335303760c81b815250611e45565b15611ad157604051637b19dd3560e11b815260040160405180910390fd5b806040516324af18bb60e21b81526004016106459190611f18565b80600003611b0d57604051635eeb40ff60e11b815260040160405180910390fd5b611b4560405180604001604052806016815260200175030b6b7bab73a27baba103bb2ba341016903130b61d160551b81525082610ff7565b9350611b5092505050565b98975050505050505050565b60608315611bcb578251600003611bc4576001600160a01b0385163b611bc45760405162461bcd60e51b815260206004820152601d60248201527f416464726573733a2063616c6c20746f206e6f6e2d636f6e74726163740000006044820152606401610645565b5081611524565b6115248383611e9e565b606082471015611c365760405162461bcd60e51b815260206004820152602660248201527f416464726573733a20696e73756666696369656e742062616c616e636520666f6044820152651c8818d85b1b60d21b6064820152608401610645565b600080866001600160a01b03168587604051611c5291906125fb565b60006040518083038185875af1925050503d8060008114611c8f576040519150601f19603f3d011682016040523d82523d6000602084013e611c94565b606091505b50915091506104a387838387611b5c565b801580611d1f5750604051636eb1769f60e11b81523060048201526001600160a01b03838116602483015284169063dd62ed3e90604401602060405180830381865afa158015611cf9573d6000803e3d6000fd5b505050506040513d601f19601f82011682018060405250810190611d1d9190612399565b155b611d8a5760405162461bcd60e51b815260206004820152603660248201527f5361666545524332303a20617070726f76652066726f6d206e6f6e2d7a65726f60448201527520746f206e6f6e2d7a65726f20616c6c6f77616e636560501b6064820152608401610645565b6040516001600160a01b038316602482015260448101829052610ff290849063095ea7b360e01b90606401610fbb565b611dfd81604051602401611dce9190611f18565b60408051601f198184030181529190526020810180516001600160e01b031663104c13eb60e21b17905261126f565b50565b61103c8282604051602401611e169291906127d9565b60408051601f198184030181529190526020810180516001600160e01b031663319af33360e01b17905261126f565b600081604051602001611e5891906125fb565b6040516020818303038152906040528051906020012083604051602001611e7f91906125fb565b6040516020818303038152906040528051906020012014905092915050565b815115611eae5781518083602001fd5b8060405162461bcd60e51b81526004016106459190611f18565b60005b83811015611ee3578181015183820152602001611ecb565b50506000910152565b60008151808452611f04816020860160208601611ec8565b601f01601f19169290920160200192915050565b6020815260006103386020830184611eec565b6001600160a01b0381168114611dfd57600080fd5b60008060408385031215611f5357600080fd5b8235611f5e81611f2b565b946020939093013593505050565b600080600060608486031215611f8157600080fd5b8335611f8c81611f2b565b92506020840135611f9c81611f2b565b929592945050506040919091013590565b600060208284031215611fbf57600080fd5b81356003811061033857600080fd5b634e487b7160e01b600052604160045260246000fd5b601f8201601f1916810167ffffffffffffffff8111828210171561200a5761200a611fce565b6040525050565b600080600080600060a0868803121561202957600080fd5b853561203481611f2b565b945060208681013561204581611f2b565b9450604087013561205581611f2b565b935060608701359250608087013567ffffffffffffffff8082111561207957600080fd5b818901915089601f83011261208d57600080fd5b81358181111561209f5761209f611fce565b8060051b91506040516120b485840182611fe4565b8181529183018401918481018c8411156120cd57600080fd5b938501935b838510156120e957843581529385019385016120d2565b5080955050505050509295509295909350565b60006020828403121561210e57600080fd5b813561033881611f2b565b600082601f83011261212a57600080fd5b813567ffffffffffffffff81111561214457612144611fce565b60405161215b601f8301601f191660200182611fe4565b81815284602083860101111561217057600080fd5b816020850160208301376000918101602001919091529392505050565b600080600080600060a086880312156121a557600080fd5b853567ffffffffffffffff808211156121bd57600080fd5b6121c989838a01612119565b965060208801359150808211156121df57600080fd5b506121ec88828901612119565b94505060408601356121fd81611f2b565b94979396509394606081013594506080013592915050565b6000806040838503121561222857600080fd5b823561223381611f2b565b9150602083013561224381611f2b565b809150509250929050565b600181811c9082168061226257607f821691505b60208210810361228257634e487b7160e01b600052602260045260246000fd5b50919050565b634e487b7160e01b600052601160045260246000fd5b8082018082111561031357610313612288565b80516122bc81611f2b565b919050565b805162ffffff811681146122bc57600080fd5b60006101008083850312156122e857600080fd5b6040519081019067ffffffffffffffff8211818310171561230b5761230b611fce565b81604052612318846122b1565b8152612326602085016122c1565b6020820152612337604085016122b1565b6040820152612348606085016122b1565b6060820152612359608085016122b1565b608082015261236a60a085016122b1565b60a082015261237b60c085016122b1565b60c082015261238c60e085016122b1565b60e0820152949350505050565b6000602082840312156123ab57600080fd5b5051919050565b634e487b7160e01b600052602160045260246000fd5b8181038181111561031357610313612288565b6000602082840312156123ed57600080fd5b815161033881611f2b565b634e487b7160e01b600052603260045260246000fd5b6020810160038310612422576124226123b2565b91905290565b60408152600061243b6040830185611eec565b90508260208301529392505050565b6020808252602b908201527f496e697469616c697a61626c653a20636f6e7472616374206973206e6f74206960408201526a6e697469616c697a696e6760a81b606082015260800190565b805180151581146122bc57600080fd5b6000602082840312156124b757600080fd5b61033882612495565b6000806000606084860312156124d557600080fd5b6124de84612495565b925060208401519150604084015190509250925092565b601f821115610ff257600081815260208120601f850160051c8101602086101561251c5750805b601f850160051c820191505b8181101561095257828155600101612528565b815167ffffffffffffffff81111561255557612555611fce565b61256981612563845461224e565b846124f5565b602080601f83116001811461259e57600084156125865750858301515b600019600386901b1c1916600185901b178555610952565b600085815260208120601f198616915b828110156125cd578886015182559484019460019091019084016125ae565b50858210156125eb5787850151600019600388901b60f8161c191681555b5050505050600190811b01905550565b6000825161260d818460208701611ec8565b9190910192915050565b600060033d11156104de5760046000803e5060005160e01c90565b600060443d10156126405790565b6040516003193d81016004833e81513d67ffffffffffffffff816024840111818411171561267057505050505090565b82850191508151818111156126885750505050505090565b843d87010160208285010111156126a25750505050505090565b6126b160208286010187611fe4565b509095945050505050565b8051825260006020820151600281106126d7576126d76123b2565b80602085015250604082015160018060a01b03808216604086015280606085015116606086015250506080820151608084015260a082015160c060a085015261152460c0850182611eec565b60a08152600061273660a08301856126bc565b9050610338602083018480516001600160a01b039081168352602080830151151590840152604080830151909116908301526060908101511515910152565b60e08152600061278860e08301876126bc565b90506127c7602083018680516001600160a01b039081168352602080830151151590840152604080830151909116908301526060908101511515910152565b60a082019390935260c0015292915050565b6040815260006127ec6040830185611eec565b905060018060a01b0383166020830152939250505056fe416464726573733a206c6f772d6c6576656c207374617469632063616c6c206661696c6564a26469706673582212203a29064ffdf44c75a0d4aa946103ccec8429693e1db1f07cb64181098f5a7c5164736f6c63430008150033",
    "linkReferences": {}
  },
  "methodIdentifiers": {
    "allowance(address,address)": "dd62ed3e",
    "approve(address,uint256)": "095ea7b3",
    "balanceOf(address)": "70a08231",
    "circulatingSupply()": "9358928b",
    "decimals()": "313ce567",
    "decreaseAllowance(address,uint256)": "a457c2d7",
    "getExchangeRate()": "e6aa216c",
    "getExchangeRate(uint8)": "4d02a3f7",
    "getOZ()": "59c64e12",
    "increaseAllowance(address,uint256)": "39509351",
    "initialize(string,string,address,uint256,uint256)": "74823132",
    "name()": "06fdde03",
    "redeem(address,address,address,uint256,uint256[])": "6afa0287",
    "symbol()": "95d89b41",
    "totalSupply()": "18160ddd",
    "transfer(address,uint256)": "a9059cbb",
    "transferFrom(address,address,uint256)": "23b872dd"
  },
  "id": 4
}