{
  "abi": [
    {
      "inputs": [],
      "stateMutability": "nonpayable",
      "type": "constructor"
    },
    {
      "anonymous": false,
      "inputs": [
        {
          "indexed": true,
          "internalType": "address",
          "name": "owner",
          "type": "address"
        },
        {
          "indexed": true,
          "internalType": "address",
          "name": "spender",
          "type": "address"
        },
        {
          "indexed": false,
          "internalType": "uint256",
          "name": "value",
          "type": "uint256"
        }
      ],
      "name": "Approval",
      "type": "event"
    },
    {
      "anonymous": false,
      "inputs": [
        {
          "indexed": false,
          "internalType": "uint8",
          "name": "version",
          "type": "uint8"
        }
      ],
      "name": "Initialized",
      "type": "event"
    },
    {
      "anonymous": false,
      "inputs": [
        {
          "indexed": true,
          "internalType": "address",
          "name": "from",
          "type": "address"
        },
        {
          "indexed": true,
          "internalType": "address",
          "name": "to",
          "type": "address"
        },
        {
          "indexed": false,
          "internalType": "uint256",
          "name": "value",
          "type": "uint256"
        }
      ],
      "name": "Transfer",
      "type": "event"
    },
    {
      "inputs": [
        {
          "internalType": "address",
          "name": "owner",
          "type": "address"
        },
        {
          "internalType": "address",
          "name": "spender",
          "type": "address"
        }
      ],
      "name": "allowance",
      "outputs": [
        {
          "internalType": "uint256",
          "name": "",
          "type": "uint256"
        }
      ],
      "stateMutability": "view",
      "type": "function"
    },
    {
      "inputs": [
        {
          "internalType": "address",
          "name": "spender",
          "type": "address"
        },
        {
          "internalType": "uint256",
          "name": "amount",
          "type": "uint256"
        }
      ],
      "name": "approve",
      "outputs": [
        {
          "internalType": "bool",
          "name": "",
          "type": "bool"
        }
      ],
      "stateMutability": "nonpayable",
      "type": "function"
    },
    {
      "inputs": [
        {
          "internalType": "address",
          "name": "account",
          "type": "address"
        }
      ],
      "name": "balanceOf",
      "outputs": [
        {
          "internalType": "uint256",
          "name": "",
          "type": "uint256"
        }
      ],
      "stateMutability": "view",
      "type": "function"
    },
    {
      "inputs": [],
      "name": "circulatingSupply",
      "outputs": [
        {
          "internalType": "uint256",
          "name": "",
          "type": "uint256"
        }
      ],
      "stateMutability": "view",
      "type": "function"
    },
    {
      "inputs": [],
      "name": "decimals",
      "outputs": [
        {
          "internalType": "uint8",
          "name": "",
          "type": "uint8"
        }
      ],
      "stateMutability": "view",
      "type": "function"
    },
    {
      "inputs": [
        {
          "internalType": "address",
          "name": "spender",
          "type": "address"
        },
        {
          "internalType": "uint256",
          "name": "subtractedValue",
          "type": "uint256"
        }
      ],
      "name": "decreaseAllowance",
      "outputs": [
        {
          "internalType": "bool",
          "name": "",
          "type": "bool"
        }
      ],
      "stateMutability": "nonpayable",
      "type": "function"
    },
    {
      "inputs": [],
      "name": "getBal",
      "outputs": [
        {
          "internalType": "uint256",
          "name": "",
          "type": "uint256"
        }
      ],
      "stateMutability": "view",
      "type": "function"
    },
    {
      "inputs": [
        {
          "internalType": "enum QuoteAsset",
          "name": "asset_",
          "type": "uint8"
        }
      ],
      "name": "getExchangeRate",
      "outputs": [
        {
          "internalType": "uint256",
          "name": "",
          "type": "uint256"
        }
      ],
      "stateMutability": "view",
      "type": "function"
    },
    {
      "inputs": [],
      "name": "getExchangeRate",
      "outputs": [
        {
          "internalType": "uint256",
          "name": "",
          "type": "uint256"
        }
      ],
      "stateMutability": "view",
      "type": "function"
    },
    {
      "inputs": [],
      "name": "getOZ",
      "outputs": [
        {
          "internalType": "contract ozIDiamond",
          "name": "",
          "type": "address"
        }
      ],
      "stateMutability": "view",
      "type": "function"
    },
    {
      "inputs": [
        {
          "internalType": "address",
          "name": "spender",
          "type": "address"
        },
        {
          "internalType": "uint256",
          "name": "addedValue",
          "type": "uint256"
        }
      ],
      "name": "increaseAllowance",
      "outputs": [
        {
          "internalType": "bool",
          "name": "",
          "type": "bool"
        }
      ],
      "stateMutability": "nonpayable",
      "type": "function"
    },
    {
      "inputs": [
        {
          "internalType": "string",
          "name": "name_",
          "type": "string"
        },
        {
          "internalType": "string",
          "name": "symbol_",
          "type": "string"
        },
        {
          "internalType": "address",
          "name": "ozDiamond_",
          "type": "address"
        },
        {
          "internalType": "uint256",
          "name": "totalSupply_",
          "type": "uint256"
        },
        {
          "internalType": "uint256",
          "name": "communityAmount_",
          "type": "uint256"
        }
      ],
      "name": "initialize",
      "outputs": [],
      "stateMutability": "nonpayable",
      "type": "function"
    },
    {
      "inputs": [],
      "name": "name",
      "outputs": [
        {
          "internalType": "string",
          "name": "",
          "type": "string"
        }
      ],
      "stateMutability": "view",
      "type": "function"
    },
    {
      "inputs": [],
      "name": "symbol",
      "outputs": [
        {
          "internalType": "string",
          "name": "",
          "type": "string"
        }
      ],
      "stateMutability": "view",
      "type": "function"
    },
    {
      "inputs": [],
      "name": "totalSupply",
      "outputs": [
        {
          "internalType": "uint256",
          "name": "",
          "type": "uint256"
        }
      ],
      "stateMutability": "view",
      "type": "function"
    },
    {
      "inputs": [
        {
          "internalType": "address",
          "name": "to",
          "type": "address"
        },
        {
          "internalType": "uint256",
          "name": "amount",
          "type": "uint256"
        }
      ],
      "name": "transfer",
      "outputs": [
        {
          "internalType": "bool",
          "name": "",
          "type": "bool"
        }
      ],
      "stateMutability": "nonpayable",
      "type": "function"
    },
    {
      "inputs": [
        {
          "internalType": "address",
          "name": "from",
          "type": "address"
        },
        {
          "internalType": "address",
          "name": "to",
          "type": "address"
        },
        {
          "internalType": "uint256",
          "name": "amount",
          "type": "uint256"
        }
      ],
      "name": "transferFrom",
      "outputs": [
        {
          "internalType": "bool",
          "name": "",
          "type": "bool"
        }
      ],
      "stateMutability": "nonpayable",
      "type": "function"
    }
  ],
  "bytecode": {
    "object": "0x608060405234801561001057600080fd5b5061001961001e565b6100de565b600054610100900460ff161561008a5760405162461bcd60e51b815260206004820152602760248201527f496e697469616c697a61626c653a20636f6e747261637420697320696e697469604482015266616c697a696e6760c81b606482015260840160405180910390fd5b60005460ff90811610156100dc576000805460ff191660ff9081179091556040519081527f7f26b83ff96e1f2b6a682f133852f6798a09c465da95921460cefb38474024989060200160405180910390a15b565b6114f2806100ed6000396000f3fe608060405234801561001057600080fd5b506004361061010b5760003560e01c806359c64e12116100a257806395d89b411161007157806395d89b4114610219578063a457c2d714610221578063a9059cbb14610234578063dd62ed3e14610247578063e6aa216c1461025a57600080fd5b806359c64e12146101b357806370a08231146101d357806374823132146101fc5780639358928b1461021157600080fd5b806325caa262116100de57806325caa26214610176578063313ce5671461017e578063395093511461018d5780634d02a3f7146101a057600080fd5b806306fdde0314610110578063095ea7b31461012e57806318160ddd1461015157806323b872dd14610163575b600080fd5b610118610262565b6040516101259190611013565b60405180910390f35b61014161013c36600461103d565b6102f4565b6040519015158152602001610125565b6035545b604051908152602001610125565b610141610171366004611067565b61030e565b610155610332565b60405160128152602001610125565b61014161019b36600461103d565b6103f0565b6101556101ae3660046110a3565b610412565b6101bb6104d7565b6040516001600160a01b039091168152602001610125565b6101556101e13660046110c4565b6001600160a01b031660009081526033602052604090205490565b61020f61020a366004611182565b610519565b005b610155610698565b610118610708565b61014161022f36600461103d565b610717565b61014161024236600461103d565b610792565b610155610255366004611208565b6107a0565b6101556107cb565b6060603680546102719061123b565b80601f016020809104026020016040519081016040528092919081815260200182805461029d9061123b565b80156102ea5780601f106102bf576101008083540402835291602001916102ea565b820191906000526020600020905b8154815290600101906020018083116102cd57829003601f168201915b5050505050905090565b60003361030281858561080e565b60019150505b92915050565b60003361031c858285610932565b6103278585856109ac565b506001949350505050565b6040516370a0823160e01b8152306004820152600090819073ae78736cd615f374d3085123a210448e74fc6393906370a0823190602401602060405180830381865afa158015610386573d6000803e3d6000fd5b505050506040513d601f19601f820116820180604052508101906103aa9190611275565b90506103eb6040518060400160405280601a81526020017f724554482062616c202866726f6d206665657329202a2a2a3a2000000000000081525082610b7a565b919050565b60003361030281858561040383836107a0565b61040d91906112a4565b61080e565b6040516370a0823160e01b8152306004820152600090670de0b6b3a764000090829073ae78736cd615f374d3085123a210448e74fc6393906370a0823190602401602060405180830381865afa158015610470573d6000803e3d6000fd5b505050506040513d601f19601f820116820180604052508101906104949190611275565b905060006104a28583610bc3565b905060006104ae610698565b9050806000036104c2575091949350505050565b6104cd848383610cef565b9695505050505050565b600061050a61050760017f86ce1ea4932afb23386a483af3bf37658d9a562b0cc91e2c799fcb236cb30d576112b7565b90565b546001600160a01b0316919050565b600054610100900460ff16158080156105395750600054600160ff909116105b806105535750303b158015610553575060005460ff166001145b6105bb5760405162461bcd60e51b815260206004820152602e60248201527f496e697469616c697a61626c653a20636f6e747261637420697320616c72656160448201526d191e481a5b9a5d1a585b1a5e995960921b60648201526084015b60405180910390fd5b6000805460ff1916600117905580156105de576000805461ff0019166101001790555b6105e88686610d0d565b8361061761050760017f86ce1ea4932afb23386a483af3bf37658d9a562b0cc91e2c799fcb236cb30d576112b7565b80546001600160a01b0319166001600160a01b039290921691909117905561063f3084610d3e565b61064a3085846109ac565b8015610690576000805461ff0019169055604051600181527f7f26b83ff96e1f2b6a682f133852f6798a09c465da95921460cefb38474024989060200160405180910390a15b505050505050565b60006106a26104d7565b6001600160a01b0316631e4d84c66040518163ffffffff1660e01b8152600401602060405180830381865afa1580156106df573d6000803e3d6000fd5b505050506040513d601f19601f820116820180604052508101906107039190611275565b905090565b6060603780546102719061123b565b6000338161072582866107a0565b9050838110156107855760405162461bcd60e51b815260206004820152602560248201527f45524332303a2064656372656173656420616c6c6f77616e63652062656c6f77604482015264207a65726f60d81b60648201526084016105b2565b610327828686840361080e565b6000336103028185856109ac565b6001600160a01b03918216600090815260346020908152604080832093909416825291909152205490565b604051634d02a3f760e01b81526000903090634d02a3f7906107f19084906004016112e0565b602060405180830381865afa1580156106df573d6000803e3d6000fd5b6001600160a01b0383166108705760405162461bcd60e51b8152602060048201526024808201527f45524332303a20617070726f76652066726f6d20746865207a65726f206164646044820152637265737360e01b60648201526084016105b2565b6001600160a01b0382166108d15760405162461bcd60e51b815260206004820152602260248201527f45524332303a20617070726f766520746f20746865207a65726f206164647265604482015261737360f01b60648201526084016105b2565b6001600160a01b0383811660008181526034602090815260408083209487168084529482529182902085905590518481527f8c5be1e5ebec7d5bd14f71427d1e84f3dd0314c0f7b2291e5b200ac8c7c3b925910160405180910390a3505050565b600061093e84846107a0565b905060001981146109a657818110156109995760405162461bcd60e51b815260206004820152601d60248201527f45524332303a20696e73756666696369656e7420616c6c6f77616e636500000060448201526064016105b2565b6109a6848484840361080e565b50505050565b6001600160a01b038316610a105760405162461bcd60e51b815260206004820152602560248201527f45524332303a207472616e736665722066726f6d20746865207a65726f206164604482015264647265737360d81b60648201526084016105b2565b6001600160a01b038216610a725760405162461bcd60e51b815260206004820152602360248201527f45524332303a207472616e7366657220746f20746865207a65726f206164647260448201526265737360e81b60648201526084016105b2565b6001600160a01b03831660009081526033602052604090205481811015610aea5760405162461bcd60e51b815260206004820152602660248201527f45524332303a207472616e7366657220616d6f756e7420657863656564732062604482015265616c616e636560d01b60648201526084016105b2565b6001600160a01b03808516600090815260336020526040808220858503905591851681529081208054849290610b219084906112a4565b92505081905550826001600160a01b0316846001600160a01b03167fddf252ad1be2c89b69c2b068fc378daa952ba7f163c4a11628f55a4df523b3ef84604051610b6d91815260200190565b60405180910390a36109a6565b610bbf8282604051602401610b90929190611308565b60408051601f198184030181529190526020810180516001600160e01b03166309710a9d60e41b179052610e22565b5050565b6040805160048152602481019091526020810180516001600160e01b0316636a57db9d60e11b179052600090610c00610bfa6104d7565b82610e43565b9050600081806020019051810190610c189190611275565b9050600080866001811115610c2f57610c2f6112ca565b03610cb757610cb0610c3f6104d7565b6001600160a01b031663f424c4ba6040518163ffffffff1660e01b8152600401602060405180830381865afa158015610c7c573d6000803e3d6000fd5b505050506040513d601f19601f82011682018060405250810190610ca09190611275565b8690670de0b6b3a7640000610cef565b9050610ce6565b6001866001811115610ccb57610ccb6112ca565b03610ce657610ce38583670de0b6b3a7640000610cef565b90505b95945050505050565b6000826000190484118302158202610d0657600080fd5b5091020490565b600054610100900460ff16610d345760405162461bcd60e51b81526004016105b29061132a565b610bbf8282610e6f565b6001600160a01b038216610d945760405162461bcd60e51b815260206004820152601f60248201527f45524332303a206d696e7420746f20746865207a65726f20616464726573730060448201526064016105b2565b8060356000828254610da691906112a4565b90915550506001600160a01b03821660009081526033602052604081208054839290610dd39084906112a4565b90915550506040518181526001600160a01b038316906000907fddf252ad1be2c89b69c2b068fc378daa952ba7f163c4a11628f55a4df523b3ef9060200160405180910390a35050565b505050565b80516a636f6e736f6c652e6c6f67602083016000808483855afa5050505050565b6060610e68838360405180606001604052806025815260200161149860259139610eaf565b9392505050565b600054610100900460ff16610e965760405162461bcd60e51b81526004016105b29061132a565b6036610ea283826113bb565b506037610e1d82826113bb565b6060600080856001600160a01b031685604051610ecc919061147b565b600060405180830381855afa9150503d8060008114610f07576040519150601f19603f3d011682016040523d82523d6000602084013e610f0c565b606091505b50915091506104cd8683838760608315610f87578251600003610f80576001600160a01b0385163b610f805760405162461bcd60e51b815260206004820152601d60248201527f416464726573733a2063616c6c20746f206e6f6e2d636f6e747261637400000060448201526064016105b2565b5081610f91565b610f918383610f99565b949350505050565b815115610fa95781518083602001fd5b8060405162461bcd60e51b81526004016105b29190611013565b60005b83811015610fde578181015183820152602001610fc6565b50506000910152565b60008151808452610fff816020860160208601610fc3565b601f01601f19169290920160200192915050565b602081526000610e686020830184610fe7565b80356001600160a01b03811681146103eb57600080fd5b6000806040838503121561105057600080fd5b61105983611026565b946020939093013593505050565b60008060006060848603121561107c57600080fd5b61108584611026565b925061109360208501611026565b9150604084013590509250925092565b6000602082840312156110b557600080fd5b813560028110610e6857600080fd5b6000602082840312156110d657600080fd5b610e6882611026565b634e487b7160e01b600052604160045260246000fd5b600082601f83011261110657600080fd5b813567ffffffffffffffff80821115611121576111216110df565b604051601f8301601f19908116603f01168101908282118183101715611149576111496110df565b8160405283815286602085880101111561116257600080fd5b836020870160208301376000602085830101528094505050505092915050565b600080600080600060a0868803121561119a57600080fd5b853567ffffffffffffffff808211156111b257600080fd5b6111be89838a016110f5565b965060208801359150808211156111d457600080fd5b506111e1888289016110f5565b9450506111f060408701611026565b94979396509394606081013594506080013592915050565b6000806040838503121561121b57600080fd5b61122483611026565b915061123260208401611026565b90509250929050565b600181811c9082168061124f57607f821691505b60208210810361126f57634e487b7160e01b600052602260045260246000fd5b50919050565b60006020828403121561128757600080fd5b5051919050565b634e487b7160e01b600052601160045260246000fd5b808201808211156103085761030861128e565b818103818111156103085761030861128e565b634e487b7160e01b600052602160045260246000fd5b602081016002831061130257634e487b7160e01b600052602160045260246000fd5b91905290565b60408152600061131b6040830185610fe7565b90508260208301529392505050565b6020808252602b908201527f496e697469616c697a61626c653a20636f6e7472616374206973206e6f74206960408201526a6e697469616c697a696e6760a81b606082015260800190565b601f821115610e1d57600081815260208120601f850160051c8101602086101561139c5750805b601f850160051c820191505b81811015610690578281556001016113a8565b815167ffffffffffffffff8111156113d5576113d56110df565b6113e9816113e3845461123b565b84611375565b602080601f83116001811461141e57600084156114065750858301515b600019600386901b1c1916600185901b178555610690565b600085815260208120601f198616915b8281101561144d5788860151825594840194600190910190840161142e565b508582101561146b5787850151600019600388901b60f8161c191681555b5050505050600190811b01905550565b6000825161148d818460208701610fc3565b919091019291505056fe416464726573733a206c6f772d6c6576656c207374617469632063616c6c206661696c6564a264697066735822122034966d8d1ab53147cc27fcea935385321d7a9dc941fa63166f06cc25fd8540e964736f6c63430008150033",
    "linkReferences": {}
  },
  "methodIdentifiers": {
    "allowance(address,address)": "dd62ed3e",
    "approve(address,uint256)": "095ea7b3",
    "balanceOf(address)": "70a08231",
    "circulatingSupply()": "9358928b",
    "decimals()": "313ce567",
    "decreaseAllowance(address,uint256)": "a457c2d7",
    "getBal()": "25caa262",
    "getExchangeRate()": "e6aa216c",
    "getExchangeRate(uint8)": "4d02a3f7",
    "getOZ()": "59c64e12",
    "increaseAllowance(address,uint256)": "39509351",
    "initialize(string,string,address,uint256,uint256)": "74823132",
    "name()": "06fdde03",
    "symbol()": "95d89b41",
    "totalSupply()": "18160ddd",
    "transfer(address,uint256)": "a9059cbb",
    "transferFrom(address,address,uint256)": "23b872dd"
  },
  "id": 4
}