{
  "abi": [
    {
      "inputs": [],
      "stateMutability": "nonpayable",
      "type": "constructor"
    },
    {
      "inputs": [
        {
          "internalType": "string",
          "name": "errorMsg",
          "type": "string"
        }
      ],
      "name": "OZError01",
      "type": "error"
    },
    {
      "inputs": [],
      "name": "OZError02",
      "type": "error"
    },
    {
      "inputs": [
        {
          "internalType": "string",
          "name": "errorCode",
          "type": "string"
        }
      ],
      "name": "OZError10",
      "type": "error"
    },
    {
      "inputs": [
        {
          "internalType": "address",
          "name": "tokenOut",
          "type": "address"
        }
      ],
      "name": "OZError18",
      "type": "error"
    },
    {
      "inputs": [
        {
          "internalType": "uint256",
          "name": "amount",
          "type": "uint256"
        }
      ],
      "name": "OZError19",
      "type": "error"
    },
    {
      "inputs": [],
      "name": "OZError20",
      "type": "error"
    },
    {
      "inputs": [
        {
          "internalType": "string",
          "name": "reason",
          "type": "string"
        }
      ],
      "name": "OZError21",
      "type": "error"
    },
    {
      "anonymous": false,
      "inputs": [
        {
          "indexed": true,
          "internalType": "address",
          "name": "owner",
          "type": "address"
        },
        {
          "indexed": true,
          "internalType": "address",
          "name": "spender",
          "type": "address"
        },
        {
          "indexed": false,
          "internalType": "uint256",
          "name": "value",
          "type": "uint256"
        }
      ],
      "name": "Approval",
      "type": "event"
    },
    {
      "anonymous": false,
      "inputs": [
        {
          "indexed": false,
          "internalType": "uint8",
          "name": "version",
          "type": "uint8"
        }
      ],
      "name": "Initialized",
      "type": "event"
    },
    {
      "anonymous": false,
      "inputs": [
        {
          "indexed": true,
          "internalType": "address",
          "name": "from",
          "type": "address"
        },
        {
          "indexed": true,
          "internalType": "address",
          "name": "to",
          "type": "address"
        },
        {
          "indexed": false,
          "internalType": "uint256",
          "name": "value",
          "type": "uint256"
        }
      ],
      "name": "Transfer",
      "type": "event"
    },
    {
      "inputs": [
        {
          "internalType": "address",
          "name": "owner",
          "type": "address"
        },
        {
          "internalType": "address",
          "name": "spender",
          "type": "address"
        }
      ],
      "name": "allowance",
      "outputs": [
        {
          "internalType": "uint256",
          "name": "",
          "type": "uint256"
        }
      ],
      "stateMutability": "view",
      "type": "function"
    },
    {
      "inputs": [
        {
          "internalType": "address",
          "name": "spender",
          "type": "address"
        },
        {
          "internalType": "uint256",
          "name": "amount",
          "type": "uint256"
        }
      ],
      "name": "approve",
      "outputs": [
        {
          "internalType": "bool",
          "name": "",
          "type": "bool"
        }
      ],
      "stateMutability": "nonpayable",
      "type": "function"
    },
    {
      "inputs": [
        {
          "internalType": "address",
          "name": "account",
          "type": "address"
        }
      ],
      "name": "balanceOf",
      "outputs": [
        {
          "internalType": "uint256",
          "name": "",
          "type": "uint256"
        }
      ],
      "stateMutability": "view",
      "type": "function"
    },
    {
      "inputs": [],
      "name": "circulatingSupply",
      "outputs": [
        {
          "internalType": "uint256",
          "name": "",
          "type": "uint256"
        }
      ],
      "stateMutability": "view",
      "type": "function"
    },
    {
      "inputs": [],
      "name": "decimals",
      "outputs": [
        {
          "internalType": "uint8",
          "name": "",
          "type": "uint8"
        }
      ],
      "stateMutability": "view",
      "type": "function"
    },
    {
      "inputs": [
        {
          "internalType": "address",
          "name": "spender",
          "type": "address"
        },
        {
          "internalType": "uint256",
          "name": "subtractedValue",
          "type": "uint256"
        }
      ],
      "name": "decreaseAllowance",
      "outputs": [
        {
          "internalType": "bool",
          "name": "",
          "type": "bool"
        }
      ],
      "stateMutability": "nonpayable",
      "type": "function"
    },
    {
      "inputs": [
        {
          "internalType": "enum QuoteAsset",
          "name": "asset_",
          "type": "uint8"
        }
      ],
      "name": "getExchangeRate",
      "outputs": [
        {
          "internalType": "uint256",
          "name": "",
          "type": "uint256"
        }
      ],
      "stateMutability": "view",
      "type": "function"
    },
    {
      "inputs": [],
      "name": "getExchangeRate",
      "outputs": [
        {
          "internalType": "uint256",
          "name": "",
          "type": "uint256"
        }
      ],
      "stateMutability": "view",
      "type": "function"
    },
    {
      "inputs": [],
      "name": "getOZ",
      "outputs": [
        {
          "internalType": "contract ozIDiamond",
          "name": "",
          "type": "address"
        }
      ],
      "stateMutability": "view",
      "type": "function"
    },
    {
      "inputs": [
        {
          "internalType": "address",
          "name": "spender",
          "type": "address"
        },
        {
          "internalType": "uint256",
          "name": "addedValue",
          "type": "uint256"
        }
      ],
      "name": "increaseAllowance",
      "outputs": [
        {
          "internalType": "bool",
          "name": "",
          "type": "bool"
        }
      ],
      "stateMutability": "nonpayable",
      "type": "function"
    },
    {
      "inputs": [
        {
          "internalType": "string",
          "name": "name_",
          "type": "string"
        },
        {
          "internalType": "string",
          "name": "symbol_",
          "type": "string"
        },
        {
          "internalType": "address",
          "name": "ozDiamond_",
          "type": "address"
        },
        {
          "internalType": "uint256",
          "name": "totalSupply_",
          "type": "uint256"
        },
        {
          "internalType": "uint256",
          "name": "communityAmount_",
          "type": "uint256"
        }
      ],
      "name": "initialize",
      "outputs": [],
      "stateMutability": "nonpayable",
      "type": "function"
    },
    {
      "inputs": [],
      "name": "name",
      "outputs": [
        {
          "internalType": "string",
          "name": "",
          "type": "string"
        }
      ],
      "stateMutability": "view",
      "type": "function"
    },
    {
      "inputs": [
        {
          "internalType": "address",
          "name": "owner_",
          "type": "address"
        },
        {
          "internalType": "address",
          "name": "receiver_",
          "type": "address"
        },
        {
          "internalType": "address",
          "name": "tokenOut_",
          "type": "address"
        },
        {
          "internalType": "uint256",
          "name": "ozlAmountIn_",
          "type": "uint256"
        },
        {
          "internalType": "uint256[]",
          "name": "minAmountsOut_",
          "type": "uint256[]"
        }
      ],
      "name": "redeem",
      "outputs": [
        {
          "internalType": "uint256",
          "name": "amountOut",
          "type": "uint256"
        }
      ],
      "stateMutability": "nonpayable",
      "type": "function"
    },
    {
      "inputs": [],
      "name": "symbol",
      "outputs": [
        {
          "internalType": "string",
          "name": "",
          "type": "string"
        }
      ],
      "stateMutability": "view",
      "type": "function"
    },
    {
      "inputs": [],
      "name": "totalSupply",
      "outputs": [
        {
          "internalType": "uint256",
          "name": "",
          "type": "uint256"
        }
      ],
      "stateMutability": "view",
      "type": "function"
    },
    {
      "inputs": [
        {
          "internalType": "address",
          "name": "to",
          "type": "address"
        },
        {
          "internalType": "uint256",
          "name": "amount",
          "type": "uint256"
        }
      ],
      "name": "transfer",
      "outputs": [
        {
          "internalType": "bool",
          "name": "",
          "type": "bool"
        }
      ],
      "stateMutability": "nonpayable",
      "type": "function"
    },
    {
      "inputs": [
        {
          "internalType": "address",
          "name": "from",
          "type": "address"
        },
        {
          "internalType": "address",
          "name": "to",
          "type": "address"
        },
        {
          "internalType": "uint256",
          "name": "amount",
          "type": "uint256"
        }
      ],
      "name": "transferFrom",
      "outputs": [
        {
          "internalType": "bool",
          "name": "",
          "type": "bool"
        }
      ],
      "stateMutability": "nonpayable",
      "type": "function"
    }
  ],
  "bytecode": {
    "object": "0x60806040523480156200001157600080fd5b506200001c62000022565b620000e4565b600054610100900460ff16156200008f5760405162461bcd60e51b815260206004820152602760248201527f496e697469616c697a61626c653a20636f6e747261637420697320696e697469604482015266616c697a696e6760c81b606482015260840160405180910390fd5b60005460ff9081161015620000e2576000805460ff191660ff9081179091556040519081527f7f26b83ff96e1f2b6a682f133852f6798a09c465da95921460cefb38474024989060200160405180910390a15b565b61256a80620000f46000396000f3fe608060405234801561001057600080fd5b506004361061010b5760003560e01c80636afa0287116100a257806395d89b411161007157806395d89b4114610224578063a457c2d71461022c578063a9059cbb1461023f578063dd62ed3e14610252578063e6aa216c1461026557600080fd5b80636afa0287146101cb57806370a08231146101de57806374823132146102075780639358928b1461021c57600080fd5b8063313ce567116100de578063313ce5671461017657806339509351146101855780634d02a3f71461019857806359c64e12146101ab57600080fd5b806306fdde0314610110578063095ea7b31461012e57806318160ddd1461015157806323b872dd14610163575b600080fd5b61011861026d565b6040516101259190611c6d565b60405180910390f35b61014161013c366004611c98565b6102ff565b6040519015158152602001610125565b6035545b604051908152602001610125565b610141610171366004611cc4565b610319565b60405160128152602001610125565b610141610193366004611c98565b61033f565b6101556101a6366004611d05565b610361565b6101b36104ae565b6040516001600160a01b039091168152602001610125565b6101556101d9366004611d69565b6104f0565b6101556101ec366004611e54565b6001600160a01b031660009081526033602052604090205490565b61021a610215366004611ee5565b6107a1565b005b61015561091b565b61011861098b565b61014161023a366004611c98565b61099a565b61014161024d366004611c98565b610a20565b610155610260366004611f6d565b610a2e565b610155610a59565b60606036805461027c90611fa6565b80601f01602080910402602001604051908101604052809291908181526020018280546102a890611fa6565b80156102f55780601f106102ca576101008083540402835291602001916102f5565b820191906000526020600020905b8154815290600101906020018083116102d857829003601f168201915b5050505050905090565b60003361030d818585610a9c565b60019150505b92915050565b600033610327858285610bc0565b610332858585610c3a565b60019150505b9392505050565b60003361030d8185856103528383610a2e565b61035c9190611ff6565b610a9c565b6000670de0b6b3a7640000816103756104ae565b6001600160a01b031663b73a89516040518163ffffffff1660e01b815260040161010060405180830381865afa1580156103b3573d6000803e3d6000fd5b505050506040513d601f19601f820116820180604052508101906103d7919061202c565b60c001516040516370a0823160e01b81523060048201529091506000906001600160a01b038316906370a0823190602401602060405180830381865afa158015610425573d6000803e3d6000fd5b505050506040513d601f19601f8201168201806040525081019061044991906120f1565b9050600060028660028111156104615761046161210a565b14610475576104708683610e08565b610477565b815b9050600061048361091b565b90508060000361049857509295945050505050565b6104a3858383610f32565b979650505050505050565b60006104e16104de60017f86ce1ea4932afb23386a483af3bf37658d9a562b0cc91e2c799fcb236cb30d57612120565b90565b546001600160a01b0316919050565b6000806104fb6104ae565b90506000816001600160a01b031663b73a89516040518163ffffffff1660e01b815260040161010060405180830381865afa15801561053e573d6000803e3d6000fd5b505050506040513d601f19601f82011682018060405250810190610562919061202c565b60405163423f0b9160e01b81526001600160a01b03888116600483015291925060009184169063423f0b9190602401602060405180830381865afa1580156105ae573d6000803e3d6000fd5b505050506040513d601f19601f820116820180604052508101906105d29190612133565b6001600160a01b03161480156105fe57508060e001516001600160a01b0316866001600160a01b031614155b801561062057508060c001516001600160a01b0316866001600160a01b031614155b1561064e5760405163d74ef47560e01b81526001600160a01b03871660048201526024015b60405180910390fd5b336001600160a01b0389161461066957610669883387610bc0565b610674308387610f50565b60006106936106836000610361565b8790670de0b6b3a7640000610f32565b9050600061070d670de0b6b3a7640000856001600160a01b031663f424c4ba6040518163ffffffff1660e01b8152600401602060405180830381865afa1580156106e1573d6000803e3d6000fd5b505050506040513d601f19601f8201168201806040525081019061070591906120f1565b849190610f32565b90508260c001516001600160a01b0316886001600160a01b031603610784578560008151811061073f5761073f612150565b602002602001015181101561076a57604051631aa1e78f60e31b815260048101829052602401610645565b6107798360c001518a83610fb8565b945050505050610798565b61079183898b848a610fcc565b9450505050505b95945050505050565b600054610100900460ff16158080156107c15750600054600160ff909116105b806107db5750303b1580156107db575060005460ff166001145b61083e5760405162461bcd60e51b815260206004820152602e60248201527f496e697469616c697a61626c653a20636f6e747261637420697320616c72656160448201526d191e481a5b9a5d1a585b1a5e995960921b6064820152608401610645565b6000805460ff191660011790558015610861576000805461ff0019166101001790555b61086b8686610fdd565b8361089a6104de60017f86ce1ea4932afb23386a483af3bf37658d9a562b0cc91e2c799fcb236cb30d57612120565b80546001600160a01b0319166001600160a01b03929092169190911790556108c23084611012565b6108cd308584610c3a565b8015610913576000805461ff0019169055604051600181527f7f26b83ff96e1f2b6a682f133852f6798a09c465da95921460cefb38474024989060200160405180910390a15b505050505050565b60006109256104ae565b6001600160a01b0316631e4d84c66040518163ffffffff1660e01b8152600401602060405180830381865afa158015610962573d6000803e3d6000fd5b505050506040513d601f19601f8201168201806040525081019061098691906120f1565b905090565b60606037805461027c90611fa6565b600033816109a88286610a2e565b905083811015610a085760405162461bcd60e51b815260206004820152602560248201527f45524332303a2064656372656173656420616c6c6f77616e63652062656c6f77604482015264207a65726f60d81b6064820152608401610645565b610a158286868403610a9c565b506001949350505050565b60003361030d818585610c3a565b6001600160a01b03918216600090815260346020908152604080832093909416825291909152205490565b604051634d02a3f760e01b81526000903090634d02a3f790610a7f908490600401612166565b602060405180830381865afa158015610962573d6000803e3d6000fd5b6001600160a01b038316610afe5760405162461bcd60e51b8152602060048201526024808201527f45524332303a20617070726f76652066726f6d20746865207a65726f206164646044820152637265737360e01b6064820152608401610645565b6001600160a01b038216610b5f5760405162461bcd60e51b815260206004820152602260248201527f45524332303a20617070726f766520746f20746865207a65726f206164647265604482015261737360f01b6064820152608401610645565b6001600160a01b0383811660008181526034602090815260408083209487168084529482529182902085905590518481527f8c5be1e5ebec7d5bd14f71427d1e84f3dd0314c0f7b2291e5b200ac8c7c3b925910160405180910390a3505050565b6000610bcc8484610a2e565b90506000198114610c345781811015610c275760405162461bcd60e51b815260206004820152601d60248201527f45524332303a20696e73756666696369656e7420616c6c6f77616e63650000006044820152606401610645565b610c348484848403610a9c565b50505050565b6001600160a01b038316610c9e5760405162461bcd60e51b815260206004820152602560248201527f45524332303a207472616e736665722066726f6d20746865207a65726f206164604482015264647265737360d81b6064820152608401610645565b6001600160a01b038216610d005760405162461bcd60e51b815260206004820152602360248201527f45524332303a207472616e7366657220746f20746865207a65726f206164647260448201526265737360e81b6064820152608401610645565b6001600160a01b03831660009081526033602052604090205481811015610d785760405162461bcd60e51b815260206004820152602660248201527f45524332303a207472616e7366657220616d6f756e7420657863656564732062604482015265616c616e636560d01b6064820152608401610645565b6001600160a01b03808516600090815260336020526040808220858503905591851681529081208054849290610daf908490611ff6565b92505081905550826001600160a01b0316846001600160a01b03167fddf252ad1be2c89b69c2b068fc378daa952ba7f163c4a11628f55a4df523b3ef84604051610dfb91815260200190565b60405180910390a3610c34565b6040805160048152602481019091526020810180516001600160e01b0316636a57db9d60e11b179052600090610e45610e3f6104ae565b826110f1565b9050600081806020019051810190610e5d91906120f1565b9050600080866002811115610e7457610e7461210a565b03610efc57610ef5610e846104ae565b6001600160a01b031663f424c4ba6040518163ffffffff1660e01b8152600401602060405180830381865afa158015610ec1573d6000803e3d6000fd5b505050506040513d601f19601f82011682018060405250810190610ee591906120f1565b8690670de0b6b3a7640000610f32565b9050610798565b6001866002811115610f1057610f1061210a565b0361079857610f288583670de0b6b3a7640000610f32565b9695505050505050565b6000826000190484118302158202610f4957600080fd5b5091020490565b6040516001600160a01b038316602482015260448101829052610fb390849063a9059cbb60e01b906064015b60408051601f198184030181529190526020810180516001600160e01b03166001600160e01b031990931692909217909152611116565b505050565b6000610fc5848484610f50565b5092915050565b6000610f28868686868660006111eb565b600054610100900460ff166110045760405162461bcd60e51b815260040161064590612180565b61100e82826113b2565b5050565b6001600160a01b0382166110685760405162461bcd60e51b815260206004820152601f60248201527f45524332303a206d696e7420746f20746865207a65726f2061646472657373006044820152606401610645565b806035600082825461107a9190611ff6565b90915550506001600160a01b038216600090815260336020526040812080548392906110a7908490611ff6565b90915550506040518181526001600160a01b038316906000907fddf252ad1be2c89b69c2b068fc378daa952ba7f163c4a11628f55a4df523b3ef9060200160405180910390a35050565b60606103388383604051806060016040528060258152602001612510602591396113f2565b600061116b826040518060400160405280602081526020017f5361666545524332303a206c6f772d6c6576656c2063616c6c206661696c6564815250856001600160a01b03166114609092919063ffffffff16565b905080516000148061118c57508080602001905181019061118c91906121db565b610fb35760405162461bcd60e51b815260206004820152602a60248201527f5361666545524332303a204552433230206f7065726174696f6e20646964206e6044820152691bdd081cdd58d8d9595960b21b6064820152608401610645565b60008080808460028111156112025761120261210a565b0361121457505060c087015160e08801515b600089604001516001600160a01b0316631c0de0516040518163ffffffff1660e01b8152600401606060405180830381865afa158015611258573d6000803e3d6000fd5b505050506040513d601f19601f8201168201806040525081019061127c91906121f6565b5050905080156112be576112b78383308d600001518e602001518c8c6000815181106112aa576112aa612150565b6020026020010151611477565b93506112de565b6112db83838c604001518d606001518e608001518c8c60006115cf565b93505b8960e001516001600160a01b0316896001600160a01b03160361137a5760e08a015160405163a9059cbb60e01b81526001600160a01b038a81166004830152602482018790529091169063a9059cbb906044016020604051808303816000875af1158015611350573d6000803e3d6000fd5b505050506040513d601f19601f8201168201806040525081019061137491906121db565b506113a5565b6113a28a60e001518a8a8d600001518e60200151898c6001815181106112aa576112aa612150565b93505b5050509695505050505050565b600054610100900460ff166113d95760405162461bcd60e51b815260040161064590612180565b60366113e58382612271565b506037610fb38282612271565b6060600080856001600160a01b03168560405161140f9190612331565b600060405180830381855afa9150503d806000811461144a576040519150601f19603f3d011682016040523d82523d6000602084013e61144f565b606091505b5091509150610f288683838761181e565b606061146f8484600085611897565b949350505050565b6000611484888685611967565b60408051610100810182526001600160a01b038a811682528981166020830190815262ffffff8881168486019081528b841660608601908152426080870190815260a087018b815260c088018b8152600060e08a01908152995163414bf38960e01b815289518916600482015296518816602488015293519094166044860152905185166064850152516084840152905160a48301525160c48201529251811660e484015290919087169063414bf38990610104016020604051808303816000875af1925050508015611574575060408051601f3d908101601f19168201909252611571918101906120f1565b60015b6115c65761158061234d565b806308c379a0036115ba5750611594612368565b8061159f57506115bc565b8060405163633abab960e01b81526004016106459190611c6d565b505b3d6000803e3d6000fd5b91506104a39050565b6000806040518060c00160405280896001600160a01b03166338fff2d06040518163ffffffff1660e01b8152600401602060405180830381865afa15801561161b573d6000803e3d6000fd5b505050506040513d601f19601f8201168201806040525081019061163f91906120f1565b8152602001600081526001600160a01b03808d1660208301528b1660408201526060810187905260800160006040519080825280601f01601f191660200182016040528015611695576020820181803683370190505b50905260408051608081018252308082526000602083018190529282015260608101829052919250808560028111156116d0576116d061210a565b036116f757856000815181106116e8576116e8612150565b602002602001015190506117f2565b600085600281111561170b5761170b61210a565b146117f25760405163e969f6b360e01b81526001600160a01b038a169063e969f6b39061173e9086908690600401612459565b6020604051808303816000875af1925050508015611779575060408051601f3d908101601f19168201909252611776918101906120f1565b60015b6117bf5761178561234d565b806308c379a0036115ba5750611799612368565b806117a457506115bc565b8060405163dafe91cd60e01b81526004016106459190611c6d565b6000876000815181106117d4576117d4612150565b602002602001015190508181116117eb57816117ed565b805b925050505b6118018c898560800151611967565b61180e8884848442611a7c565b9c9b505050505050505050505050565b6060831561188d578251600003611886576001600160a01b0385163b6118865760405162461bcd60e51b815260206004820152601d60248201527f416464726573733a2063616c6c20746f206e6f6e2d636f6e74726163740000006044820152606401610645565b508161146f565b61146f8383611b9a565b6060824710156118f85760405162461bcd60e51b815260206004820152602660248201527f416464726573733a20696e73756666696369656e742062616c616e636520666f6044820152651c8818d85b1b60d21b6064820152608401610645565b600080866001600160a01b031685876040516119149190612331565b60006040518083038185875af1925050503d8060008114611951576040519150601f19603f3d011682016040523d82523d6000602084013e611956565b606091505b50915091506104a38783838761181e565b8015806119e15750604051636eb1769f60e11b81523060048201526001600160a01b03838116602483015284169063dd62ed3e90604401602060405180830381865afa1580156119bb573d6000803e3d6000fd5b505050506040513d601f19601f820116820180604052508101906119df91906120f1565b155b611a4c5760405162461bcd60e51b815260206004820152603660248201527f5361666545524332303a20617070726f76652066726f6d206e6f6e2d7a65726f60448201527520746f206e6f6e2d7a65726f20616c6c6f77616e636560501b6064820152608401610645565b6040516001600160a01b038316602482015260448101829052610fb390849063095ea7b360e01b90606401610f7c565b6040516352bbbe2960e01b81526000906001600160a01b038716906352bbbe2990611ab19088908890889088906004016124ab565b6020604051808303816000875af1925050508015611aec575060408051601f3d908101601f19168201909252611ae9918101906120f1565b60015b611b7957611af861234d565b806308c379a0036115ba5750611b0c612368565b80611b1757506115bc565b611b40816040518060400160405280600781526020016642414c2335303760c81b815250611bc4565b15611b5e57604051637b19dd3560e11b815260040160405180910390fd5b806040516324af18bb60e21b81526004016106459190611c6d565b80600003610ef557604051635eeb40ff60e11b815260040160405180910390fd5b815115611baa5781518083602001fd5b8060405162461bcd60e51b81526004016106459190611c6d565b600081604051602001611bd79190612331565b6040516020818303038152906040528051906020012083604051602001611bfe9190612331565b6040516020818303038152906040528051906020012014905092915050565b60005b83811015611c38578181015183820152602001611c20565b50506000910152565b60008151808452611c59816020860160208601611c1d565b601f01601f19169290920160200192915050565b6020815260006103386020830184611c41565b6001600160a01b0381168114611c9557600080fd5b50565b60008060408385031215611cab57600080fd5b8235611cb681611c80565b946020939093013593505050565b600080600060608486031215611cd957600080fd5b8335611ce481611c80565b92506020840135611cf481611c80565b929592945050506040919091013590565b600060208284031215611d1757600080fd5b81356003811061033857600080fd5b634e487b7160e01b600052604160045260246000fd5b601f8201601f1916810167ffffffffffffffff81118282101715611d6257611d62611d26565b6040525050565b600080600080600060a08688031215611d8157600080fd5b8535611d8c81611c80565b9450602086810135611d9d81611c80565b94506040870135611dad81611c80565b935060608701359250608087013567ffffffffffffffff80821115611dd157600080fd5b818901915089601f830112611de557600080fd5b813581811115611df757611df7611d26565b8060051b9150604051611e0c85840182611d3c565b8181529183018401918481018c841115611e2557600080fd5b938501935b83851015611e415784358152938501938501611e2a565b5080955050505050509295509295909350565b600060208284031215611e6657600080fd5b813561033881611c80565b600082601f830112611e8257600080fd5b813567ffffffffffffffff811115611e9c57611e9c611d26565b604051611eb3601f8301601f191660200182611d3c565b818152846020838601011115611ec857600080fd5b816020850160208301376000918101602001919091529392505050565b600080600080600060a08688031215611efd57600080fd5b853567ffffffffffffffff80821115611f1557600080fd5b611f2189838a01611e71565b96506020880135915080821115611f3757600080fd5b50611f4488828901611e71565b9450506040860135611f5581611c80565b94979396509394606081013594506080013592915050565b60008060408385031215611f8057600080fd5b8235611f8b81611c80565b91506020830135611f9b81611c80565b809150509250929050565b600181811c90821680611fba57607f821691505b602082108103611fda57634e487b7160e01b600052602260045260246000fd5b50919050565b634e487b7160e01b600052601160045260246000fd5b8082018082111561031357610313611fe0565b805161201481611c80565b919050565b805162ffffff8116811461201457600080fd5b600061010080838503121561204057600080fd5b6040519081019067ffffffffffffffff8211818310171561206357612063611d26565b8160405261207084612009565b815261207e60208501612019565b602082015261208f60408501612009565b60408201526120a060608501612009565b60608201526120b160808501612009565b60808201526120c260a08501612009565b60a08201526120d360c08501612009565b60c08201526120e460e08501612009565b60e0820152949350505050565b60006020828403121561210357600080fd5b5051919050565b634e487b7160e01b600052602160045260246000fd5b8181038181111561031357610313611fe0565b60006020828403121561214557600080fd5b815161033881611c80565b634e487b7160e01b600052603260045260246000fd5b602081016003831061217a5761217a61210a565b91905290565b6020808252602b908201527f496e697469616c697a61626c653a20636f6e7472616374206973206e6f74206960408201526a6e697469616c697a696e6760a81b606082015260800190565b8051801515811461201457600080fd5b6000602082840312156121ed57600080fd5b610338826121cb565b60008060006060848603121561220b57600080fd5b612214846121cb565b925060208401519150604084015190509250925092565b601f821115610fb357600081815260208120601f850160051c810160208610156122525750805b601f850160051c820191505b818110156109135782815560010161225e565b815167ffffffffffffffff81111561228b5761228b611d26565b61229f816122998454611fa6565b8461222b565b602080601f8311600181146122d457600084156122bc5750858301515b600019600386901b1c1916600185901b178555610913565b600085815260208120601f198616915b82811015612303578886015182559484019460019091019084016122e4565b50858210156123215787850151600019600388901b60f8161c191681555b5050505050600190811b01905550565b60008251612343818460208701611c1d565b9190910192915050565b600060033d11156104de5760046000803e5060005160e01c90565b600060443d10156123765790565b6040516003193d81016004833e81513d67ffffffffffffffff81602484011181841117156123a657505050505090565b82850191508151818111156123be5750505050505090565b843d87010160208285010111156123d85750505050505090565b6123e760208286010187611d3c565b509095945050505050565b80518252600060208201516002811061240d5761240d61210a565b80602085015250604082015160018060a01b03808216604086015280606085015116606086015250506080820151608084015260a082015160c060a085015261146f60c0850182611c41565b60a08152600061246c60a08301856123f2565b9050610338602083018480516001600160a01b039081168352602080830151151590840152604080830151909116908301526060908101511515910152565b60e0815260006124be60e08301876123f2565b90506124fd602083018680516001600160a01b039081168352602080830151151590840152604080830151909116908301526060908101511515910152565b60a082019390935260c001529291505056fe416464726573733a206c6f772d6c6576656c207374617469632063616c6c206661696c6564a264697066735822122094f7f6594c1d3de2762e9f078137560f8939d22754d7fe1646e0adddb773859264736f6c63430008150033",
    "linkReferences": {}
  },
  "methodIdentifiers": {
    "allowance(address,address)": "dd62ed3e",
    "approve(address,uint256)": "095ea7b3",
    "balanceOf(address)": "70a08231",
    "circulatingSupply()": "9358928b",
    "decimals()": "313ce567",
    "decreaseAllowance(address,uint256)": "a457c2d7",
    "getExchangeRate()": "e6aa216c",
    "getExchangeRate(uint8)": "4d02a3f7",
    "getOZ()": "59c64e12",
    "increaseAllowance(address,uint256)": "39509351",
    "initialize(string,string,address,uint256,uint256)": "74823132",
    "name()": "06fdde03",
    "redeem(address,address,address,uint256,uint256[])": "6afa0287",
    "symbol()": "95d89b41",
    "totalSupply()": "18160ddd",
    "transfer(address,uint256)": "a9059cbb",
    "transferFrom(address,address,uint256)": "23b872dd"
  },
  "id": 4
}