{
  "abi": [
    {
      "inputs": [],
      "stateMutability": "nonpayable",
      "type": "constructor"
    },
    {
      "inputs": [
        {
          "internalType": "uint256",
          "name": "deadline",
          "type": "uint256"
        },
        {
          "internalType": "uint256",
          "name": "blockTimestamp",
          "type": "uint256"
        }
      ],
      "name": "OZError08",
      "type": "error"
    },
    {
      "inputs": [
        {
          "internalType": "address",
          "name": "owner",
          "type": "address"
        },
        {
          "internalType": "address",
          "name": "spender",
          "type": "address"
        }
      ],
      "name": "OZError09",
      "type": "error"
    },
    {
      "inputs": [
        {
          "internalType": "address",
          "name": "tokenOut",
          "type": "address"
        }
      ],
      "name": "OZError18",
      "type": "error"
    },
    {
      "inputs": [
        {
          "internalType": "uint256",
          "name": "amount",
          "type": "uint256"
        }
      ],
      "name": "OZError19",
      "type": "error"
    },
    {
      "anonymous": false,
      "inputs": [
        {
          "indexed": true,
          "internalType": "address",
          "name": "owner",
          "type": "address"
        },
        {
          "indexed": true,
          "internalType": "address",
          "name": "spender",
          "type": "address"
        },
        {
          "indexed": false,
          "internalType": "uint256",
          "name": "value",
          "type": "uint256"
        }
      ],
      "name": "Approval",
      "type": "event"
    },
    {
      "anonymous": false,
      "inputs": [
        {
          "indexed": false,
          "internalType": "uint8",
          "name": "version",
          "type": "uint8"
        }
      ],
      "name": "Initialized",
      "type": "event"
    },
    {
      "anonymous": false,
      "inputs": [
        {
          "indexed": true,
          "internalType": "address",
          "name": "from",
          "type": "address"
        },
        {
          "indexed": true,
          "internalType": "address",
          "name": "to",
          "type": "address"
        },
        {
          "indexed": false,
          "internalType": "uint256",
          "name": "value",
          "type": "uint256"
        }
      ],
      "name": "Transfer",
      "type": "event"
    },
    {
      "inputs": [],
      "name": "DOMAIN_SEPARATOR",
      "outputs": [
        {
          "internalType": "bytes32",
          "name": "",
          "type": "bytes32"
        }
      ],
      "stateMutability": "view",
      "type": "function"
    },
    {
      "inputs": [
        {
          "internalType": "address",
          "name": "owner",
          "type": "address"
        },
        {
          "internalType": "address",
          "name": "spender",
          "type": "address"
        }
      ],
      "name": "allowance",
      "outputs": [
        {
          "internalType": "uint256",
          "name": "",
          "type": "uint256"
        }
      ],
      "stateMutability": "view",
      "type": "function"
    },
    {
      "inputs": [
        {
          "internalType": "address",
          "name": "spender",
          "type": "address"
        },
        {
          "internalType": "uint256",
          "name": "amount",
          "type": "uint256"
        }
      ],
      "name": "approve",
      "outputs": [
        {
          "internalType": "bool",
          "name": "",
          "type": "bool"
        }
      ],
      "stateMutability": "nonpayable",
      "type": "function"
    },
    {
      "inputs": [
        {
          "internalType": "address",
          "name": "account",
          "type": "address"
        }
      ],
      "name": "balanceOf",
      "outputs": [
        {
          "internalType": "uint256",
          "name": "",
          "type": "uint256"
        }
      ],
      "stateMutability": "view",
      "type": "function"
    },
    {
      "inputs": [],
      "name": "circulatingSupply",
      "outputs": [
        {
          "internalType": "uint256",
          "name": "",
          "type": "uint256"
        }
      ],
      "stateMutability": "view",
      "type": "function"
    },
    {
      "inputs": [],
      "name": "decimals",
      "outputs": [
        {
          "internalType": "uint8",
          "name": "",
          "type": "uint8"
        }
      ],
      "stateMutability": "view",
      "type": "function"
    },
    {
      "inputs": [
        {
          "internalType": "address",
          "name": "spender",
          "type": "address"
        },
        {
          "internalType": "uint256",
          "name": "subtractedValue",
          "type": "uint256"
        }
      ],
      "name": "decreaseAllowance",
      "outputs": [
        {
          "internalType": "bool",
          "name": "",
          "type": "bool"
        }
      ],
      "stateMutability": "nonpayable",
      "type": "function"
    },
    {
      "inputs": [
        {
          "internalType": "enum QuoteAsset",
          "name": "asset_",
          "type": "uint8"
        }
      ],
      "name": "getExchangeRate",
      "outputs": [
        {
          "internalType": "uint256",
          "name": "",
          "type": "uint256"
        }
      ],
      "stateMutability": "view",
      "type": "function"
    },
    {
      "inputs": [],
      "name": "getExchangeRate",
      "outputs": [
        {
          "internalType": "uint256",
          "name": "",
          "type": "uint256"
        }
      ],
      "stateMutability": "view",
      "type": "function"
    },
    {
      "inputs": [],
      "name": "getOZ",
      "outputs": [
        {
          "internalType": "contract ozIDiamond",
          "name": "",
          "type": "address"
        }
      ],
      "stateMutability": "view",
      "type": "function"
    },
    {
      "inputs": [
        {
          "internalType": "address",
          "name": "spender",
          "type": "address"
        },
        {
          "internalType": "uint256",
          "name": "addedValue",
          "type": "uint256"
        }
      ],
      "name": "increaseAllowance",
      "outputs": [
        {
          "internalType": "bool",
          "name": "",
          "type": "bool"
        }
      ],
      "stateMutability": "nonpayable",
      "type": "function"
    },
    {
      "inputs": [
        {
          "internalType": "string",
          "name": "name_",
          "type": "string"
        },
        {
          "internalType": "string",
          "name": "symbol_",
          "type": "string"
        },
        {
          "internalType": "address",
          "name": "ozDiamond_",
          "type": "address"
        },
        {
          "internalType": "uint256",
          "name": "totalSupply_",
          "type": "uint256"
        },
        {
          "internalType": "uint256",
          "name": "communityAmount_",
          "type": "uint256"
        }
      ],
      "name": "initialize",
      "outputs": [],
      "stateMutability": "nonpayable",
      "type": "function"
    },
    {
      "inputs": [],
      "name": "name",
      "outputs": [
        {
          "internalType": "string",
          "name": "",
          "type": "string"
        }
      ],
      "stateMutability": "view",
      "type": "function"
    },
    {
      "inputs": [
        {
          "internalType": "address",
          "name": "owner",
          "type": "address"
        }
      ],
      "name": "nonces",
      "outputs": [
        {
          "internalType": "uint256",
          "name": "",
          "type": "uint256"
        }
      ],
      "stateMutability": "view",
      "type": "function"
    },
    {
      "inputs": [
        {
          "internalType": "address",
          "name": "owner",
          "type": "address"
        },
        {
          "internalType": "address",
          "name": "spender",
          "type": "address"
        },
        {
          "internalType": "uint256",
          "name": "value",
          "type": "uint256"
        },
        {
          "internalType": "uint256",
          "name": "deadline",
          "type": "uint256"
        },
        {
          "internalType": "uint8",
          "name": "v",
          "type": "uint8"
        },
        {
          "internalType": "bytes32",
          "name": "r",
          "type": "bytes32"
        },
        {
          "internalType": "bytes32",
          "name": "s_",
          "type": "bytes32"
        }
      ],
      "name": "permit",
      "outputs": [],
      "stateMutability": "nonpayable",
      "type": "function"
    },
    {
      "inputs": [],
      "name": "recicledSupply",
      "outputs": [
        {
          "internalType": "uint256",
          "name": "",
          "type": "uint256"
        }
      ],
      "stateMutability": "view",
      "type": "function"
    },
    {
      "inputs": [
        {
          "internalType": "address",
          "name": "owner_",
          "type": "address"
        },
        {
          "internalType": "address",
          "name": "receiver_",
          "type": "address"
        },
        {
          "internalType": "address",
          "name": "tokenOut_",
          "type": "address"
        },
        {
          "internalType": "uint256",
          "name": "ozlAmountIn_",
          "type": "uint256"
        },
        {
          "internalType": "uint256[]",
          "name": "minAmountsOut_",
          "type": "uint256[]"
        }
      ],
      "name": "redeem",
      "outputs": [
        {
          "internalType": "uint256",
          "name": "amountOut",
          "type": "uint256"
        }
      ],
      "stateMutability": "nonpayable",
      "type": "function"
    },
    {
      "inputs": [],
      "name": "symbol",
      "outputs": [
        {
          "internalType": "string",
          "name": "",
          "type": "string"
        }
      ],
      "stateMutability": "view",
      "type": "function"
    },
    {
      "inputs": [],
      "name": "totalSupply",
      "outputs": [
        {
          "internalType": "uint256",
          "name": "",
          "type": "uint256"
        }
      ],
      "stateMutability": "view",
      "type": "function"
    },
    {
      "inputs": [
        {
          "internalType": "address",
          "name": "to",
          "type": "address"
        },
        {
          "internalType": "uint256",
          "name": "amount",
          "type": "uint256"
        }
      ],
      "name": "transfer",
      "outputs": [
        {
          "internalType": "bool",
          "name": "",
          "type": "bool"
        }
      ],
      "stateMutability": "nonpayable",
      "type": "function"
    },
    {
      "inputs": [
        {
          "internalType": "address",
          "name": "from",
          "type": "address"
        },
        {
          "internalType": "address",
          "name": "to",
          "type": "address"
        },
        {
          "internalType": "uint256",
          "name": "amount",
          "type": "uint256"
        }
      ],
      "name": "transferFrom",
      "outputs": [
        {
          "internalType": "bool",
          "name": "",
          "type": "bool"
        }
      ],
      "stateMutability": "nonpayable",
      "type": "function"
    }
  ],
  "bytecode": {
    "object": "0x608060405234801561001057600080fd5b5061001961001e565b6100de565b600054610100900460ff161561008a5760405162461bcd60e51b815260206004820152602760248201527f496e697469616c697a61626c653a20636f6e747261637420697320696e697469604482015266616c697a696e6760c81b606482015260840160405180910390fd5b60005460ff90811610156100dc576000805460ff191660ff9081179091556040519081527f7f26b83ff96e1f2b6a682f133852f6798a09c465da95921460cefb38474024989060200160405180910390a15b565b6122e080620000ee6000396000f3fe608060405234801561001057600080fd5b50600436106101375760003560e01c806370a08231116100b857806395d89b411161007c57806395d89b4114610273578063a457c2d71461027b578063a9059cbb1461028e578063d505accf146102a1578063dd62ed3e146102b4578063e6aa216c146102c757600080fd5b806370a0823114610212578063748231321461023b5780637ecebe00146102505780638b5f1a6b146102635780639358928b1461026b57600080fd5b80633644e515116100ff5780633644e515146101b157806339509351146101b95780634d02a3f7146101cc57806359c64e12146101df5780636afa0287146101ff57600080fd5b806306fdde031461013c578063095ea7b31461015a57806318160ddd1461017d57806323b872dd1461018f578063313ce567146101a2575b600080fd5b6101446102cf565b6040516101519190611af2565b60405180910390f35b61016d610168366004611b3a565b610361565b6040519015158152602001610151565b6035545b604051908152602001610151565b61016d61019d366004611b66565b61037b565b60405160128152602001610151565b61018161039f565b61016d6101c7366004611b3a565b6103ae565b6101816101da366004611ba7565b6103d0565b6101e7610502565b6040516001600160a01b039091168152602001610151565b61018161020d366004611c33565b610544565b610181610220366004611d0d565b6001600160a01b031660009081526033602052604090205490565b61024e610249366004611d9a565b6107e2565b005b61018161025e366004611d0d565b61097f565b61018161099d565b610181610a13565b610144610a8a565b61016d610289366004611b3a565b610a99565b61016d61029c366004611b3a565b610b14565b61024e6102af366004611e22565b610b22565b6101816102c2366004611e99565b610c44565b610181610c6f565b6060603680546102de90611ed2565b80601f016020809104026020016040519081016040528092919081815260200182805461030a90611ed2565b80156103575780601f1061032c57610100808354040283529160200191610357565b820191906000526020600020905b81548152906001019060200180831161033a57829003601f168201915b5050505050905090565b60003361036f818585610c7b565b60019150505b92915050565b600033610389858285610d9f565b610394858585610e19565b506001949350505050565b60006103a9610fe7565b905090565b60003361036f8185856103c18383610c44565b6103cb9190611f1c565b610c7b565b6000670de0b6b3a764000081806103e5611062565b51905060005b8181101561049e576103fb611062565b818151811061040c5761040c611f2f565b60209081029190910101516040516370a0823160e01b81523060048201526001600160a01b03909116906370a0823190602401602060405180830381865afa15801561045c573d6000803e3d6000fd5b505050506040513d601f19601f820116820180604052508101906104809190611f45565b61048a9084611f1c565b92508061049681611f5e565b9150506103eb565b50600060028660028111156104b5576104b5611f77565b146104c9576104c486846110d1565b6104cb565b825b905060006104d7610a13565b9050806000036104ec57509295945050505050565b6104f78583836111ea565b979650505050505050565b600061053561053260017f86ce1ea4932afb23386a483af3bf37658d9a562b0cc91e2c799fcb236cb30d57611f8d565b90565b546001600160a01b0316919050565b60008061054f610502565b9050600061055b611062565b60405163423f0b9160e01b81526001600160a01b03888116600483015291925060009184169063423f0b9190602401602060405180830381865afa1580156105a7573d6000803e3d6000fd5b505050506040513d601f19601f820116820180604052508101906105cb9190611fa0565b6001600160a01b03161480156105ea575060006105e88288611208565b125b156106185760405163d74ef47560e01b81526001600160a01b03871660048201526024015b60405180910390fd5b336001600160a01b0389161461063357610633883387610d9f565b600061065261064260026103d0565b8790670de0b6b3a76400006111ea565b604051631567339f60e31b81526001600160a01b038b81166004830152306024830152604482018990529192509084169063ab399cf890606401600060405180830381600087803b1580156106a657600080fd5b505af11580156106ba573d6000803e3d6000fd5b50505050816000815181106106d1576106d1611f2f565b60200260200101516001600160a01b0316876001600160a01b03160361075e578460008151811061070457610704611f2f565b602002602001015181101561072f57604051631aa1e78f60e31b81526004810182905260240161060f565b6107548260008151811061074557610745611f2f565b60200260200101518983611270565b92506107d9915050565b60405163094463e760e01b81526001600160a01b0384169063094463e790610790908a908c9086908b90600401611fbd565b6020604051808303816000875af11580156107af573d6000803e3d6000fd5b505050506040513d601f19601f820116820180604052508101906107d39190611f45565b93505050505b95945050505050565b600054610100900460ff16158080156108025750600054600160ff909116105b8061081c5750303b15801561081c575060005460ff166001145b61087f5760405162461bcd60e51b815260206004820152602e60248201527f496e697469616c697a61626c653a20636f6e747261637420697320616c72656160448201526d191e481a5b9a5d1a585b1a5e995960921b606482015260840161060f565b6000805460ff1916600117905580156108a2576000805461ff0019166101001790555b6108ac86866112c7565b6108cf86604051806040016040528060018152602001603160f81b8152506112fc565b836108fe61053260017f86ce1ea4932afb23386a483af3bf37658d9a562b0cc91e2c799fcb236cb30d57611f8d565b80546001600160a01b0319166001600160a01b0392909216919091179055610926308461132d565b610931308584610e19565b8015610977576000805461ff0019169055604051600181527f7f26b83ff96e1f2b6a682f133852f6798a09c465da95921460cefb38474024989060200160405180910390a15b505050505050565b6001600160a01b038116600090815260996020526040812054610375565b6000806109a8610502565b6001600160a01b0316637d098e646040518163ffffffff1660e01b815260040160a060405180830381865afa1580156109e5573d6000803e3d6000fd5b505050506040513d601f19601f82011682018060405250810190610a099190612027565b5095945050505050565b600080610a1e610502565b6001600160a01b0316637d098e646040518163ffffffff1660e01b815260040160a060405180830381865afa158015610a5b573d6000803e3d6000fd5b505050506040513d601f19601f82011682018060405250810190610a7f9190612027565b509195945050505050565b6060603780546102de90611ed2565b60003381610aa78286610c44565b905083811015610b075760405162461bcd60e51b815260206004820152602560248201527f45524332303a2064656372656173656420616c6c6f77616e63652062656c6f77604482015264207a65726f60d81b606482015260840161060f565b6103948286868403610c7b565b60003361036f818585610e19565b83421115610b4c5760405163184f1e0160e11b81526004810185905242602482015260440161060f565b60007f6e71edae12b1b97f4d1f60370fef10105fa2faae0126114a169c64845d6126c9888888610b7b8c61140c565b6040805160208101969096526001600160a01b0394851690860152929091166060840152608083015260a082015260c0810186905260e0016040516020818303038152906040528051906020012090506000610bd682611434565b90506000610be682878787611482565b9050896001600160a01b0316816001600160a01b031614610c2d57604051635091bef560e01b81526001600160a01b0380831660048301528b16602482015260440161060f565b610c388a8a8a610c7b565b50505050505050505050565b6001600160a01b03918216600090815260346020908152604080832093909416825291909152205490565b60006103a960006103d0565b6001600160a01b038316610cdd5760405162461bcd60e51b8152602060048201526024808201527f45524332303a20617070726f76652066726f6d20746865207a65726f206164646044820152637265737360e01b606482015260840161060f565b6001600160a01b038216610d3e5760405162461bcd60e51b815260206004820152602260248201527f45524332303a20617070726f766520746f20746865207a65726f206164647265604482015261737360f01b606482015260840161060f565b6001600160a01b0383811660008181526034602090815260408083209487168084529482529182902085905590518481527f8c5be1e5ebec7d5bd14f71427d1e84f3dd0314c0f7b2291e5b200ac8c7c3b925910160405180910390a3505050565b6000610dab8484610c44565b90506000198114610e135781811015610e065760405162461bcd60e51b815260206004820152601d60248201527f45524332303a20696e73756666696369656e7420616c6c6f77616e6365000000604482015260640161060f565b610e138484848403610c7b565b50505050565b6001600160a01b038316610e7d5760405162461bcd60e51b815260206004820152602560248201527f45524332303a207472616e736665722066726f6d20746865207a65726f206164604482015264647265737360d81b606482015260840161060f565b6001600160a01b038216610edf5760405162461bcd60e51b815260206004820152602360248201527f45524332303a207472616e7366657220746f20746865207a65726f206164647260448201526265737360e81b606482015260840161060f565b6001600160a01b03831660009081526033602052604090205481811015610f575760405162461bcd60e51b815260206004820152602660248201527f45524332303a207472616e7366657220616d6f756e7420657863656564732062604482015265616c616e636560d01b606482015260840161060f565b6001600160a01b03808516600090815260336020526040808220858503905591851681529081208054849290610f8e908490611f1c565b92505081905550826001600160a01b0316846001600160a01b03167fddf252ad1be2c89b69c2b068fc378daa952ba7f163c4a11628f55a4df523b3ef84604051610fda91815260200190565b60405180910390a3610e13565b60006103a97f8b73c3c69bb8fe3d512ecc4cf759cc79239f7b179b0ffacaa9a75d522b39400f61101660655490565b6066546040805160208101859052908101839052606081018290524660808201523060a082015260009060c0016040516020818303038152906040528051906020012090509392505050565b606061106c610502565b6001600160a01b03166338ab35d46040518163ffffffff1660e01b8152600401600060405180830381865afa1580156110a9573d6000803e3d6000fd5b505050506040513d6000823e601f3d908101601f191682016040526103a99190810190612067565b6000808360028111156110e6576110e6611f77565b0361116e576111676110f6610502565b6001600160a01b031663f424c4ba6040518163ffffffff1660e01b8152600401602060405180830381865afa158015611133573d6000803e3d6000fd5b505050506040513d601f19601f820116820180604052508101906111579190611f45565b8390670de0b6b3a76400006111ea565b9050610375565b600183600281111561118257611182611f77565b03610375576040805160048152602481019091526020810180516001600160e01b0316636a57db9d60e11b1790526111c16111bb610502565b826114ac565b90506000818060200190518101906111d99190611f45565b90506107d98482670de0b6b3a76400005b600082600019048411830215820261120157600080fd5b5091020490565b8151600090815b8181101561126457836001600160a01b031685828151811061123357611233611f2f565b60200260200101516001600160a01b0316036112525791506103759050565b8061125c81611f5e565b91505061120f565b50600019949350505050565b604080516001600160a01b038416602482015260448082018490528251808303909101815260649091019091526020810180516001600160e01b031663a9059cbb60e01b1790526112c29084906114d8565b505050565b600054610100900460ff166112ee5760405162461bcd60e51b815260040161060f906120f6565b6112f882826115ad565b5050565b600054610100900460ff166113235760405162461bcd60e51b815260040161060f906120f6565b6112f882826115ed565b6001600160a01b0382166113835760405162461bcd60e51b815260206004820152601f60248201527f45524332303a206d696e7420746f20746865207a65726f206164647265737300604482015260640161060f565b80603560008282546113959190611f1c565b90915550506001600160a01b038216600090815260336020526040812080548392906113c2908490611f1c565b90915550506040518181526001600160a01b038316906000907fddf252ad1be2c89b69c2b068fc378daa952ba7f163c4a11628f55a4df523b3ef9060200160405180910390a35050565b6001600160a01b03811660009081526099602052604090208054600181018255905b50919050565b6000610375611441610fe7565b8360405161190160f01b6020820152602281018390526042810182905260009060620160405160208183030381529060405280519060200120905092915050565b60008060006114938787878761162e565b915091506114a08161171b565b5090505b949350505050565b60606114d18383604051806060016040528060258152602001612286602591396118d4565b9392505050565b600061152d826040518060400160405280602081526020017f5361666545524332303a206c6f772d6c6576656c2063616c6c206661696c6564815250856001600160a01b031661194c9092919063ffffffff16565b905080516000148061154e57508080602001905181019061154e9190612141565b6112c25760405162461bcd60e51b815260206004820152602a60248201527f5361666545524332303a204552433230206f7065726174696f6e20646964206e6044820152691bdd081cdd58d8d9595960b21b606482015260840161060f565b600054610100900460ff166115d45760405162461bcd60e51b815260040161060f906120f6565b60366115e083826121a9565b5060376112c282826121a9565b600054610100900460ff166116145760405162461bcd60e51b815260040161060f906120f6565b815160209283012081519190920120606591909155606655565b6000807f7fffffffffffffffffffffffffffffff5d576e7357a4501ddfe92f46681b20a08311156116655750600090506003611712565b8460ff16601b1415801561167d57508460ff16601c14155b1561168e5750600090506004611712565b6040805160008082526020820180845289905260ff881692820192909252606081018690526080810185905260019060a0016020604051602081039080840390855afa1580156116e2573d6000803e3d6000fd5b5050604051601f1901519150506001600160a01b03811661170b57600060019250925050611712565b9150600090505b94509492505050565b600081600481111561172f5761172f611f77565b036117375750565b600181600481111561174b5761174b611f77565b036117985760405162461bcd60e51b815260206004820152601860248201527f45434453413a20696e76616c6964207369676e61747572650000000000000000604482015260640161060f565b60028160048111156117ac576117ac611f77565b036117f95760405162461bcd60e51b815260206004820152601f60248201527f45434453413a20696e76616c6964207369676e6174757265206c656e67746800604482015260640161060f565b600381600481111561180d5761180d611f77565b036118655760405162461bcd60e51b815260206004820152602260248201527f45434453413a20696e76616c6964207369676e6174757265202773272076616c604482015261756560f01b606482015260840161060f565b600481600481111561187957611879611f77565b036118d15760405162461bcd60e51b815260206004820152602260248201527f45434453413a20696e76616c6964207369676e6174757265202776272076616c604482015261756560f01b606482015260840161060f565b50565b6060600080856001600160a01b0316856040516118f19190612269565b600060405180830381855afa9150503d806000811461192c576040519150601f19603f3d011682016040523d82523d6000602084013e611931565b606091505b50915091506119428683838761195b565b9695505050505050565b60606114a484846000856119d4565b606083156119ca5782516000036119c3576001600160a01b0385163b6119c35760405162461bcd60e51b815260206004820152601d60248201527f416464726573733a2063616c6c20746f206e6f6e2d636f6e7472616374000000604482015260640161060f565b50816114a4565b6114a48383611aa4565b606082471015611a355760405162461bcd60e51b815260206004820152602660248201527f416464726573733a20696e73756666696369656e742062616c616e636520666f6044820152651c8818d85b1b60d21b606482015260840161060f565b600080866001600160a01b03168587604051611a519190612269565b60006040518083038185875af1925050503d8060008114611a8e576040519150601f19603f3d011682016040523d82523d6000602084013e611a93565b606091505b50915091506104f78783838761195b565b815115611ab45781518083602001fd5b8060405162461bcd60e51b815260040161060f9190611af2565b60005b83811015611ae9578181015183820152602001611ad1565b50506000910152565b6020815260008251806020840152611b11816040850160208701611ace565b601f01601f19169190910160400192915050565b6001600160a01b03811681146118d157600080fd5b60008060408385031215611b4d57600080fd5b8235611b5881611b25565b946020939093013593505050565b600080600060608486031215611b7b57600080fd5b8335611b8681611b25565b92506020840135611b9681611b25565b929592945050506040919091013590565b600060208284031215611bb957600080fd5b8135600381106114d157600080fd5b634e487b7160e01b600052604160045260246000fd5b604051601f8201601f1916810167ffffffffffffffff81118282101715611c0757611c07611bc8565b604052919050565b600067ffffffffffffffff821115611c2957611c29611bc8565b5060051b60200190565b600080600080600060a08688031215611c4b57600080fd5b8535611c5681611b25565b9450602086810135611c6781611b25565b94506040870135611c7781611b25565b935060608701359250608087013567ffffffffffffffff811115611c9a57600080fd5b8701601f81018913611cab57600080fd5b8035611cbe611cb982611c0f565b611bde565b81815260059190911b8201830190838101908b831115611cdd57600080fd5b928401925b82841015611cfb57833582529284019290840190611ce2565b80955050505050509295509295909350565b600060208284031215611d1f57600080fd5b81356114d181611b25565b600082601f830112611d3b57600080fd5b813567ffffffffffffffff811115611d5557611d55611bc8565b611d68601f8201601f1916602001611bde565b818152846020838601011115611d7d57600080fd5b816020850160208301376000918101602001919091529392505050565b600080600080600060a08688031215611db257600080fd5b853567ffffffffffffffff80821115611dca57600080fd5b611dd689838a01611d2a565b96506020880135915080821115611dec57600080fd5b50611df988828901611d2a565b9450506040860135611e0a81611b25565b94979396509394606081013594506080013592915050565b600080600080600080600060e0888a031215611e3d57600080fd5b8735611e4881611b25565b96506020880135611e5881611b25565b95506040880135945060608801359350608088013560ff81168114611e7c57600080fd5b9699959850939692959460a0840135945060c09093013592915050565b60008060408385031215611eac57600080fd5b8235611eb781611b25565b91506020830135611ec781611b25565b809150509250929050565b600181811c90821680611ee657607f821691505b60208210810361142e57634e487b7160e01b600052602260045260246000fd5b634e487b7160e01b600052601160045260246000fd5b8082018082111561037557610375611f06565b634e487b7160e01b600052603260045260246000fd5b600060208284031215611f5757600080fd5b5051919050565b600060018201611f7057611f70611f06565b5060010190565b634e487b7160e01b600052602160045260246000fd5b8181038181111561037557610375611f06565b600060208284031215611fb257600080fd5b81516114d181611b25565b6001600160a01b03858116825284166020808301919091526040820184905260806060830181905283519083018190526000918481019160a085019190845b8181101561201857845184529382019392820192600101611ffc565b50919998505050505050505050565b600080600080600060a0868803121561203f57600080fd5b5050835160208501516040860151606087015160809097015192989197509594509092509050565b6000602080838503121561207a57600080fd5b825167ffffffffffffffff81111561209157600080fd5b8301601f810185136120a257600080fd5b80516120b0611cb982611c0f565b81815260059190911b820183019083810190878311156120cf57600080fd5b928401925b828410156104f75783516120e781611b25565b825292840192908401906120d4565b6020808252602b908201527f496e697469616c697a61626c653a20636f6e7472616374206973206e6f74206960408201526a6e697469616c697a696e6760a81b606082015260800190565b60006020828403121561215357600080fd5b815180151581146114d157600080fd5b601f8211156112c257600081815260208120601f850160051c8101602086101561218a5750805b601f850160051c820191505b8181101561097757828155600101612196565b815167ffffffffffffffff8111156121c3576121c3611bc8565b6121d7816121d18454611ed2565b84612163565b602080601f83116001811461220c57600084156121f45750858301515b600019600386901b1c1916600185901b178555610977565b600085815260208120601f198616915b8281101561223b5788860151825594840194600190910190840161221c565b50858210156122595787850151600019600388901b60f8161c191681555b5050505050600190811b01905550565b6000825161227b818460208701611ace565b919091019291505056fe416464726573733a206c6f772d6c6576656c207374617469632063616c6c206661696c6564a26469706673582212205592e3fa603390cad72225064919bd50631e546c3cad66c6b61b48cbd989fcca64736f6c63430008150033",
    "linkReferences": {}
  },
  "methodIdentifiers": {
    "DOMAIN_SEPARATOR()": "3644e515",
    "allowance(address,address)": "dd62ed3e",
    "approve(address,uint256)": "095ea7b3",
    "balanceOf(address)": "70a08231",
    "circulatingSupply()": "9358928b",
    "decimals()": "313ce567",
    "decreaseAllowance(address,uint256)": "a457c2d7",
    "getExchangeRate()": "e6aa216c",
    "getExchangeRate(uint8)": "4d02a3f7",
    "getOZ()": "59c64e12",
    "increaseAllowance(address,uint256)": "39509351",
    "initialize(string,string,address,uint256,uint256)": "74823132",
    "name()": "06fdde03",
    "nonces(address)": "7ecebe00",
    "permit(address,address,uint256,uint256,uint8,bytes32,bytes32)": "d505accf",
    "recicledSupply()": "8b5f1a6b",
    "redeem(address,address,address,uint256,uint256[])": "6afa0287",
    "symbol()": "95d89b41",
    "totalSupply()": "18160ddd",
    "transfer(address,uint256)": "a9059cbb",
    "transferFrom(address,address,uint256)": "23b872dd"
  },
  "id": 4
}