{
  "abi": [
    {
      "inputs": [],
      "stateMutability": "nonpayable",
      "type": "constructor"
    },
    {
      "anonymous": false,
      "inputs": [
        {
          "indexed": true,
          "internalType": "address",
          "name": "owner",
          "type": "address"
        },
        {
          "indexed": true,
          "internalType": "address",
          "name": "spender",
          "type": "address"
        },
        {
          "indexed": false,
          "internalType": "uint256",
          "name": "value",
          "type": "uint256"
        }
      ],
      "name": "Approval",
      "type": "event"
    },
    {
      "anonymous": false,
      "inputs": [
        {
          "indexed": false,
          "internalType": "uint8",
          "name": "version",
          "type": "uint8"
        }
      ],
      "name": "Initialized",
      "type": "event"
    },
    {
      "anonymous": false,
      "inputs": [
        {
          "indexed": true,
          "internalType": "address",
          "name": "from",
          "type": "address"
        },
        {
          "indexed": true,
          "internalType": "address",
          "name": "to",
          "type": "address"
        },
        {
          "indexed": false,
          "internalType": "uint256",
          "name": "value",
          "type": "uint256"
        }
      ],
      "name": "Transfer",
      "type": "event"
    },
    {
      "inputs": [
        {
          "internalType": "address",
          "name": "owner",
          "type": "address"
        },
        {
          "internalType": "address",
          "name": "spender",
          "type": "address"
        }
      ],
      "name": "allowance",
      "outputs": [
        {
          "internalType": "uint256",
          "name": "",
          "type": "uint256"
        }
      ],
      "stateMutability": "view",
      "type": "function"
    },
    {
      "inputs": [
        {
          "internalType": "address",
          "name": "spender",
          "type": "address"
        },
        {
          "internalType": "uint256",
          "name": "amount",
          "type": "uint256"
        }
      ],
      "name": "approve",
      "outputs": [
        {
          "internalType": "bool",
          "name": "",
          "type": "bool"
        }
      ],
      "stateMutability": "nonpayable",
      "type": "function"
    },
    {
      "inputs": [
        {
          "internalType": "address",
          "name": "account",
          "type": "address"
        }
      ],
      "name": "balanceOf",
      "outputs": [
        {
          "internalType": "uint256",
          "name": "",
          "type": "uint256"
        }
      ],
      "stateMutability": "view",
      "type": "function"
    },
    {
      "inputs": [],
      "name": "decimals",
      "outputs": [
        {
          "internalType": "uint8",
          "name": "",
          "type": "uint8"
        }
      ],
      "stateMutability": "view",
      "type": "function"
    },
    {
      "inputs": [
        {
          "internalType": "address",
          "name": "spender",
          "type": "address"
        },
        {
          "internalType": "uint256",
          "name": "subtractedValue",
          "type": "uint256"
        }
      ],
      "name": "decreaseAllowance",
      "outputs": [
        {
          "internalType": "bool",
          "name": "",
          "type": "bool"
        }
      ],
      "stateMutability": "nonpayable",
      "type": "function"
    },
    {
      "inputs": [],
      "name": "getRewards",
      "outputs": [],
      "stateMutability": "view",
      "type": "function"
    },
    {
      "inputs": [
        {
          "internalType": "address",
          "name": "spender",
          "type": "address"
        },
        {
          "internalType": "uint256",
          "name": "addedValue",
          "type": "uint256"
        }
      ],
      "name": "increaseAllowance",
      "outputs": [
        {
          "internalType": "bool",
          "name": "",
          "type": "bool"
        }
      ],
      "stateMutability": "nonpayable",
      "type": "function"
    },
    {
      "inputs": [
        {
          "internalType": "string",
          "name": "name_",
          "type": "string"
        },
        {
          "internalType": "string",
          "name": "symbol_",
          "type": "string"
        }
      ],
      "name": "initialize",
      "outputs": [],
      "stateMutability": "nonpayable",
      "type": "function"
    },
    {
      "inputs": [],
      "name": "name",
      "outputs": [
        {
          "internalType": "string",
          "name": "",
          "type": "string"
        }
      ],
      "stateMutability": "view",
      "type": "function"
    },
    {
      "inputs": [],
      "name": "symbol",
      "outputs": [
        {
          "internalType": "string",
          "name": "",
          "type": "string"
        }
      ],
      "stateMutability": "view",
      "type": "function"
    },
    {
      "inputs": [],
      "name": "totalSupply",
      "outputs": [
        {
          "internalType": "uint256",
          "name": "",
          "type": "uint256"
        }
      ],
      "stateMutability": "view",
      "type": "function"
    },
    {
      "inputs": [
        {
          "internalType": "address",
          "name": "to",
          "type": "address"
        },
        {
          "internalType": "uint256",
          "name": "amount",
          "type": "uint256"
        }
      ],
      "name": "transfer",
      "outputs": [
        {
          "internalType": "bool",
          "name": "",
          "type": "bool"
        }
      ],
      "stateMutability": "nonpayable",
      "type": "function"
    },
    {
      "inputs": [
        {
          "internalType": "address",
          "name": "from",
          "type": "address"
        },
        {
          "internalType": "address",
          "name": "to",
          "type": "address"
        },
        {
          "internalType": "uint256",
          "name": "amount",
          "type": "uint256"
        }
      ],
      "name": "transferFrom",
      "outputs": [
        {
          "internalType": "bool",
          "name": "",
          "type": "bool"
        }
      ],
      "stateMutability": "nonpayable",
      "type": "function"
    }
  ],
  "bytecode": {
    "object": "0x608060405234801561001057600080fd5b5061001961001e565b6100de565b600054610100900460ff161561008a5760405162461bcd60e51b815260206004820152602760248201527f496e697469616c697a61626c653a20636f6e747261637420697320696e697469604482015266616c697a696e6760c81b606482015260840160405180910390fd5b60005460ff90811610156100dc576000805460ff191660ff9081179091556040519081527f7f26b83ff96e1f2b6a682f133852f6798a09c465da95921460cefb38474024989060200160405180910390a15b565b610d3a806100ed6000396000f3fe608060405234801561001057600080fd5b50600436106100cf5760003560e01c8063395093511161008c57806395d89b411161006657806395d89b41146101a2578063a457c2d7146101aa578063a9059cbb146101bd578063dd62ed3e146101d057600080fd5b806339509351146101535780634cd88b761461016657806370a082311461017957600080fd5b80630572b0cc146100d457806306fdde03146100de578063095ea7b3146100fc57806318160ddd1461011f57806323b872dd14610131578063313ce56714610144575b600080fd5b6100dc6101e3565b005b6100e661020d565b6040516100f39190610924565b60405180910390f35b61010f61010a36600461098e565b61029f565b60405190151581526020016100f3565b6035545b6040519081526020016100f3565b61010f61013f3660046109b8565b6102b9565b604051601281526020016100f3565b61010f61016136600461098e565b6102dd565b6100dc610174366004610a97565b6102ff565b610123610187366004610afb565b6001600160a01b031660009081526033602052604090205490565b6100e6610419565b61010f6101b836600461098e565b610428565b61010f6101cb36600461098e565b6104a3565b6101236101de366004610b1d565b6104b1565b61020b6040518060400160405280600781526020016668656c6c6f6f6f60c81b8152506104dc565b565b60606036805461021c90610b50565b80601f016020809104026020016040519081016040528092919081815260200182805461024890610b50565b80156102955780601f1061026a57610100808354040283529160200191610295565b820191906000526020600020905b81548152906001019060200180831161027857829003601f168201915b5050505050905090565b6000336102ad818585610522565b60019150505b92915050565b6000336102c7858285610646565b6102d28585856106c0565b506001949350505050565b6000336102ad8185856102f083836104b1565b6102fa9190610b8a565b610522565b600054610100900460ff161580801561031f5750600054600160ff909116105b806103395750303b158015610339575060005460ff166001145b6103a15760405162461bcd60e51b815260206004820152602e60248201527f496e697469616c697a61626c653a20636f6e747261637420697320616c72656160448201526d191e481a5b9a5d1a585b1a5e995960921b60648201526084015b60405180910390fd5b6000805460ff1916600117905580156103c4576000805461ff0019166101001790555b6103ce838361088e565b8015610414576000805461ff0019169055604051600181527f7f26b83ff96e1f2b6a682f133852f6798a09c465da95921460cefb38474024989060200160405180910390a15b505050565b60606037805461021c90610b50565b6000338161043682866104b1565b9050838110156104965760405162461bcd60e51b815260206004820152602560248201527f45524332303a2064656372656173656420616c6c6f77616e63652062656c6f77604482015264207a65726f60d81b6064820152608401610398565b6102d28286868403610522565b6000336102ad8185856106c0565b6001600160a01b03918216600090815260346020908152604080832093909416825291909152205490565b61051f816040516024016104f09190610924565b60408051601f198184030181529190526020810180516001600160e01b031663104c13eb60e21b1790526108c3565b50565b6001600160a01b0383166105845760405162461bcd60e51b8152602060048201526024808201527f45524332303a20617070726f76652066726f6d20746865207a65726f206164646044820152637265737360e01b6064820152608401610398565b6001600160a01b0382166105e55760405162461bcd60e51b815260206004820152602260248201527f45524332303a20617070726f766520746f20746865207a65726f206164647265604482015261737360f01b6064820152608401610398565b6001600160a01b0383811660008181526034602090815260408083209487168084529482529182902085905590518481527f8c5be1e5ebec7d5bd14f71427d1e84f3dd0314c0f7b2291e5b200ac8c7c3b925910160405180910390a3505050565b600061065284846104b1565b905060001981146106ba57818110156106ad5760405162461bcd60e51b815260206004820152601d60248201527f45524332303a20696e73756666696369656e7420616c6c6f77616e63650000006044820152606401610398565b6106ba8484848403610522565b50505050565b6001600160a01b0383166107245760405162461bcd60e51b815260206004820152602560248201527f45524332303a207472616e736665722066726f6d20746865207a65726f206164604482015264647265737360d81b6064820152608401610398565b6001600160a01b0382166107865760405162461bcd60e51b815260206004820152602360248201527f45524332303a207472616e7366657220746f20746865207a65726f206164647260448201526265737360e81b6064820152608401610398565b6001600160a01b038316600090815260336020526040902054818110156107fe5760405162461bcd60e51b815260206004820152602660248201527f45524332303a207472616e7366657220616d6f756e7420657863656564732062604482015265616c616e636560d01b6064820152608401610398565b6001600160a01b03808516600090815260336020526040808220858503905591851681529081208054849290610835908490610b8a565b92505081905550826001600160a01b0316846001600160a01b03167fddf252ad1be2c89b69c2b068fc378daa952ba7f163c4a11628f55a4df523b3ef8460405161088191815260200190565b60405180910390a36106ba565b600054610100900460ff166108b55760405162461bcd60e51b815260040161039890610bab565b6108bf82826108e4565b5050565b80516a636f6e736f6c652e6c6f67602083016000808483855afa5050505050565b600054610100900460ff1661090b5760405162461bcd60e51b815260040161039890610bab565b60366109178382610c44565b5060376104148282610c44565b600060208083528351808285015260005b8181101561095157858101830151858201604001528201610935565b506000604082860101526040601f19601f8301168501019250505092915050565b80356001600160a01b038116811461098957600080fd5b919050565b600080604083850312156109a157600080fd5b6109aa83610972565b946020939093013593505050565b6000806000606084860312156109cd57600080fd5b6109d684610972565b92506109e460208501610972565b9150604084013590509250925092565b634e487b7160e01b600052604160045260246000fd5b600082601f830112610a1b57600080fd5b813567ffffffffffffffff80821115610a3657610a366109f4565b604051601f8301601f19908116603f01168101908282118183101715610a5e57610a5e6109f4565b81604052838152866020858801011115610a7757600080fd5b836020870160208301376000602085830101528094505050505092915050565b60008060408385031215610aaa57600080fd5b823567ffffffffffffffff80821115610ac257600080fd5b610ace86838701610a0a565b93506020850135915080821115610ae457600080fd5b50610af185828601610a0a565b9150509250929050565b600060208284031215610b0d57600080fd5b610b1682610972565b9392505050565b60008060408385031215610b3057600080fd5b610b3983610972565b9150610b4760208401610972565b90509250929050565b600181811c90821680610b6457607f821691505b602082108103610b8457634e487b7160e01b600052602260045260246000fd5b50919050565b808201808211156102b357634e487b7160e01b600052601160045260246000fd5b6020808252602b908201527f496e697469616c697a61626c653a20636f6e7472616374206973206e6f74206960408201526a6e697469616c697a696e6760a81b606082015260800190565b601f82111561041457600081815260208120601f850160051c81016020861015610c1d5750805b601f850160051c820191505b81811015610c3c57828155600101610c29565b505050505050565b815167ffffffffffffffff811115610c5e57610c5e6109f4565b610c7281610c6c8454610b50565b84610bf6565b602080601f831160018114610ca75760008415610c8f5750858301515b600019600386901b1c1916600185901b178555610c3c565b600085815260208120601f198616915b82811015610cd657888601518255948401946001909101908401610cb7565b5085821015610cf45787850151600019600388901b60f8161c191681555b5050505050600190811b0190555056fea2646970667358221220f402fccdb71913e3031e678b0b9138aac19e19d6484769e0b4552351d28a1e0964736f6c63430008150033",
    "linkReferences": {}
  },
  "methodIdentifiers": {
    "allowance(address,address)": "dd62ed3e",
    "approve(address,uint256)": "095ea7b3",
    "balanceOf(address)": "70a08231",
    "decimals()": "313ce567",
    "decreaseAllowance(address,uint256)": "a457c2d7",
    "getRewards()": "0572b0cc",
    "increaseAllowance(address,uint256)": "39509351",
    "initialize(string,string)": "4cd88b76",
    "name()": "06fdde03",
    "symbol()": "95d89b41",
    "totalSupply()": "18160ddd",
    "transfer(address,uint256)": "a9059cbb",
    "transferFrom(address,address,uint256)": "23b872dd"
  },
  "id": 3
}