{
  "abi": [
    {
      "inputs": [],
      "stateMutability": "nonpayable",
      "type": "constructor"
    },
    {
      "inputs": [],
      "name": "AssetOutNoExist",
      "type": "error"
    },
    {
      "inputs": [
        {
          "internalType": "string",
          "name": "errorMsg",
          "type": "string"
        }
      ],
      "name": "OZError01",
      "type": "error"
    },
    {
      "inputs": [],
      "name": "OZError02",
      "type": "error"
    },
    {
      "inputs": [
        {
          "internalType": "string",
          "name": "errorCode",
          "type": "string"
        }
      ],
      "name": "OZError10",
      "type": "error"
    },
    {
      "anonymous": false,
      "inputs": [
        {
          "indexed": true,
          "internalType": "address",
          "name": "owner",
          "type": "address"
        },
        {
          "indexed": true,
          "internalType": "address",
          "name": "spender",
          "type": "address"
        },
        {
          "indexed": false,
          "internalType": "uint256",
          "name": "value",
          "type": "uint256"
        }
      ],
      "name": "Approval",
      "type": "event"
    },
    {
      "anonymous": false,
      "inputs": [
        {
          "indexed": false,
          "internalType": "uint8",
          "name": "version",
          "type": "uint8"
        }
      ],
      "name": "Initialized",
      "type": "event"
    },
    {
      "anonymous": false,
      "inputs": [
        {
          "indexed": true,
          "internalType": "address",
          "name": "from",
          "type": "address"
        },
        {
          "indexed": true,
          "internalType": "address",
          "name": "to",
          "type": "address"
        },
        {
          "indexed": false,
          "internalType": "uint256",
          "name": "value",
          "type": "uint256"
        }
      ],
      "name": "Transfer",
      "type": "event"
    },
    {
      "inputs": [
        {
          "internalType": "address",
          "name": "owner",
          "type": "address"
        },
        {
          "internalType": "address",
          "name": "spender",
          "type": "address"
        }
      ],
      "name": "allowance",
      "outputs": [
        {
          "internalType": "uint256",
          "name": "",
          "type": "uint256"
        }
      ],
      "stateMutability": "view",
      "type": "function"
    },
    {
      "inputs": [
        {
          "internalType": "address",
          "name": "spender",
          "type": "address"
        },
        {
          "internalType": "uint256",
          "name": "amount",
          "type": "uint256"
        }
      ],
      "name": "approve",
      "outputs": [
        {
          "internalType": "bool",
          "name": "",
          "type": "bool"
        }
      ],
      "stateMutability": "nonpayable",
      "type": "function"
    },
    {
      "inputs": [
        {
          "internalType": "address",
          "name": "account",
          "type": "address"
        }
      ],
      "name": "balanceOf",
      "outputs": [
        {
          "internalType": "uint256",
          "name": "",
          "type": "uint256"
        }
      ],
      "stateMutability": "view",
      "type": "function"
    },
    {
      "inputs": [],
      "name": "circulatingSupply",
      "outputs": [
        {
          "internalType": "uint256",
          "name": "",
          "type": "uint256"
        }
      ],
      "stateMutability": "view",
      "type": "function"
    },
    {
      "inputs": [],
      "name": "decimals",
      "outputs": [
        {
          "internalType": "uint8",
          "name": "",
          "type": "uint8"
        }
      ],
      "stateMutability": "view",
      "type": "function"
    },
    {
      "inputs": [
        {
          "internalType": "address",
          "name": "spender",
          "type": "address"
        },
        {
          "internalType": "uint256",
          "name": "subtractedValue",
          "type": "uint256"
        }
      ],
      "name": "decreaseAllowance",
      "outputs": [
        {
          "internalType": "bool",
          "name": "",
          "type": "bool"
        }
      ],
      "stateMutability": "nonpayable",
      "type": "function"
    },
    {
      "inputs": [
        {
          "internalType": "enum QuoteAsset",
          "name": "asset_",
          "type": "uint8"
        }
      ],
      "name": "getExchangeRate",
      "outputs": [
        {
          "internalType": "uint256",
          "name": "",
          "type": "uint256"
        }
      ],
      "stateMutability": "view",
      "type": "function"
    },
    {
      "inputs": [],
      "name": "getExchangeRate",
      "outputs": [
        {
          "internalType": "uint256",
          "name": "",
          "type": "uint256"
        }
      ],
      "stateMutability": "view",
      "type": "function"
    },
    {
      "inputs": [],
      "name": "getOZ",
      "outputs": [
        {
          "internalType": "contract ozIDiamond",
          "name": "",
          "type": "address"
        }
      ],
      "stateMutability": "view",
      "type": "function"
    },
    {
      "inputs": [
        {
          "internalType": "address",
          "name": "spender",
          "type": "address"
        },
        {
          "internalType": "uint256",
          "name": "addedValue",
          "type": "uint256"
        }
      ],
      "name": "increaseAllowance",
      "outputs": [
        {
          "internalType": "bool",
          "name": "",
          "type": "bool"
        }
      ],
      "stateMutability": "nonpayable",
      "type": "function"
    },
    {
      "inputs": [
        {
          "internalType": "string",
          "name": "name_",
          "type": "string"
        },
        {
          "internalType": "string",
          "name": "symbol_",
          "type": "string"
        },
        {
          "internalType": "address",
          "name": "ozDiamond_",
          "type": "address"
        },
        {
          "internalType": "uint256",
          "name": "totalSupply_",
          "type": "uint256"
        },
        {
          "internalType": "uint256",
          "name": "communityAmount_",
          "type": "uint256"
        }
      ],
      "name": "initialize",
      "outputs": [],
      "stateMutability": "nonpayable",
      "type": "function"
    },
    {
      "inputs": [],
      "name": "name",
      "outputs": [
        {
          "internalType": "string",
          "name": "",
          "type": "string"
        }
      ],
      "stateMutability": "view",
      "type": "function"
    },
    {
      "inputs": [
        {
          "internalType": "address",
          "name": "owner_",
          "type": "address"
        },
        {
          "internalType": "address",
          "name": "receiver_",
          "type": "address"
        },
        {
          "internalType": "address",
          "name": "tokenOut_",
          "type": "address"
        },
        {
          "internalType": "uint256",
          "name": "ozlAmountIn_",
          "type": "uint256"
        },
        {
          "internalType": "uint256",
          "name": "minAmountOut_",
          "type": "uint256"
        }
      ],
      "name": "redeem",
      "outputs": [
        {
          "internalType": "uint256",
          "name": "amountOut",
          "type": "uint256"
        }
      ],
      "stateMutability": "nonpayable",
      "type": "function"
    },
    {
      "inputs": [],
      "name": "symbol",
      "outputs": [
        {
          "internalType": "string",
          "name": "",
          "type": "string"
        }
      ],
      "stateMutability": "view",
      "type": "function"
    },
    {
      "inputs": [],
      "name": "totalSupply",
      "outputs": [
        {
          "internalType": "uint256",
          "name": "",
          "type": "uint256"
        }
      ],
      "stateMutability": "view",
      "type": "function"
    },
    {
      "inputs": [
        {
          "internalType": "address",
          "name": "to",
          "type": "address"
        },
        {
          "internalType": "uint256",
          "name": "amount",
          "type": "uint256"
        }
      ],
      "name": "transfer",
      "outputs": [
        {
          "internalType": "bool",
          "name": "",
          "type": "bool"
        }
      ],
      "stateMutability": "nonpayable",
      "type": "function"
    },
    {
      "inputs": [
        {
          "internalType": "address",
          "name": "from",
          "type": "address"
        },
        {
          "internalType": "address",
          "name": "to",
          "type": "address"
        },
        {
          "internalType": "uint256",
          "name": "amount",
          "type": "uint256"
        }
      ],
      "name": "transferFrom",
      "outputs": [
        {
          "internalType": "bool",
          "name": "",
          "type": "bool"
        }
      ],
      "stateMutability": "nonpayable",
      "type": "function"
    }
  ],
  "bytecode": {
    "object": "0x608060405234801561001057600080fd5b5061001961001e565b6100de565b600054610100900460ff161561008a5760405162461bcd60e51b815260206004820152602760248201527f496e697469616c697a61626c653a20636f6e747261637420697320696e697469604482015266616c697a696e6760c81b606482015260840160405180910390fd5b60005460ff90811610156100dc576000805460ff191660ff9081179091556040519081527f7f26b83ff96e1f2b6a682f133852f6798a09c465da95921460cefb38474024989060200160405180910390a15b565b61222380620000ee6000396000f3fe608060405234801561001057600080fd5b506004361061010b5760003560e01c806370a08231116100a2578063a457c2d711610071578063a457c2d714610219578063a9059cbb1461022c578063be78b2ba1461023f578063dd62ed3e14610252578063e6aa216c1461026557600080fd5b806370a08231146101cb57806374823132146101f45780639358928b1461020957806395d89b411461021157600080fd5b8063313ce567116100de578063313ce5671461017657806339509351146101855780634d02a3f71461019857806359c64e12146101ab57600080fd5b806306fdde0314610110578063095ea7b31461012e57806318160ddd1461015157806323b872dd14610163575b600080fd5b61011861026d565b60405161012591906119d4565b60405180910390f35b61014161013c3660046119ff565b6102ff565b6040519015158152602001610125565b6035545b604051908152602001610125565b610141610171366004611a2b565b610319565b60405160128152602001610125565b6101416101933660046119ff565b61033f565b6101556101a6366004611a6c565b610361565b6101b361048e565b6040516001600160a01b039091168152602001610125565b6101556101d9366004611a8d565b6001600160a01b031660009081526033602052604090205490565b610207610202366004611b61565b6104d0565b005b61015561064f565b6101186106bf565b6101416102273660046119ff565b6106ce565b61014161023a3660046119ff565b610754565b61015561024d366004611be9565b610762565b610155610260366004611c2c565b610885565b6101556108b0565b60606036805461027c90611c65565b80601f01602080910402602001604051908101604052809291908181526020018280546102a890611c65565b80156102f55780601f106102ca576101008083540402835291602001916102f5565b820191906000526020600020905b8154815290600101906020018083116102d857829003601f168201915b5050505050905090565b60003361030d8185856108f3565b60019150505b92915050565b600033610327858285610a17565b610332858585610a91565b60019150505b9392505050565b60003361030d8185856103528383610885565b61035c9190611cb5565b6108f3565b6000670de0b6b3a76400008161037561048e565b6001600160a01b031663b73a89516040518163ffffffff1660e01b815260040161010060405180830381865afa1580156103b3573d6000803e3d6000fd5b505050506040513d601f19601f820116820180604052508101906103d79190611ceb565b60c001516040516370a0823160e01b81523060048201529091506000906001600160a01b038316906370a0823190602401602060405180830381865afa158015610425573d6000803e3d6000fd5b505050506040513d601f19601f820116820180604052508101906104499190611db0565b905060006104578683610c5f565b9050600061046361064f565b90508060000361047857509295945050505050565b610483858383610d8b565b979650505050505050565b60006104c16104be60017f86ce1ea4932afb23386a483af3bf37658d9a562b0cc91e2c799fcb236cb30d57611dc9565b90565b546001600160a01b0316919050565b600054610100900460ff16158080156104f05750600054600160ff909116105b8061050a5750303b15801561050a575060005460ff166001145b6105725760405162461bcd60e51b815260206004820152602e60248201527f496e697469616c697a61626c653a20636f6e747261637420697320616c72656160448201526d191e481a5b9a5d1a585b1a5e995960921b60648201526084015b60405180910390fd5b6000805460ff191660011790558015610595576000805461ff0019166101001790555b61059f8686610da9565b836105ce6104be60017f86ce1ea4932afb23386a483af3bf37658d9a562b0cc91e2c799fcb236cb30d57611dc9565b80546001600160a01b0319166001600160a01b03929092169190911790556105f63084610dde565b610601308584610a91565b8015610647576000805461ff0019169055604051600181527f7f26b83ff96e1f2b6a682f133852f6798a09c465da95921460cefb38474024989060200160405180910390a15b505050505050565b600061065961048e565b6001600160a01b0316631e4d84c66040518163ffffffff1660e01b8152600401602060405180830381865afa158015610696573d6000803e3d6000fd5b505050506040513d601f19601f820116820180604052508101906106ba9190611db0565b905090565b60606037805461027c90611c65565b600033816106dc8286610885565b90508381101561073c5760405162461bcd60e51b815260206004820152602560248201527f45524332303a2064656372656173656420616c6c6f77616e63652062656c6f77604482015264207a65726f60d81b6064820152608401610569565b61074982868684036108f3565b506001949350505050565b60003361030d818585610a91565b60008061076d61048e565b60405163423f0b9160e01b81526001600160a01b038781166004830152919091169063423f0b9190602401602060405180830381865afa1580156107b5573d6000803e3d6000fd5b505050506040513d601f19601f820116820180604052508101906107d99190611ddc565b6001600160a01b031614801561080c57506001600160a01b03841673c02aaa39b223fe8d0a0e5c4f27ead9083c756cc214155b801561083557506001600160a01b03841673ae78736cd615f374d3085123a210448e74fc639314155b156108535760405163f67dc7cd60e01b815260040160405180910390fd5b336001600160a01b0387161461086e5761086e863385610a17565b61087b8686868686610ebd565b9695505050505050565b6001600160a01b03918216600090815260346020908152604080832093909416825291909152205490565b604051634d02a3f760e01b81526000903090634d02a3f7906108d6908490600401611e2d565b602060405180830381865afa158015610696573d6000803e3d6000fd5b6001600160a01b0383166109555760405162461bcd60e51b8152602060048201526024808201527f45524332303a20617070726f76652066726f6d20746865207a65726f206164646044820152637265737360e01b6064820152608401610569565b6001600160a01b0382166109b65760405162461bcd60e51b815260206004820152602260248201527f45524332303a20617070726f766520746f20746865207a65726f206164647265604482015261737360f01b6064820152608401610569565b6001600160a01b0383811660008181526034602090815260408083209487168084529482529182902085905590518481527f8c5be1e5ebec7d5bd14f71427d1e84f3dd0314c0f7b2291e5b200ac8c7c3b925910160405180910390a3505050565b6000610a238484610885565b90506000198114610a8b5781811015610a7e5760405162461bcd60e51b815260206004820152601d60248201527f45524332303a20696e73756666696369656e7420616c6c6f77616e63650000006044820152606401610569565b610a8b84848484036108f3565b50505050565b6001600160a01b038316610af55760405162461bcd60e51b815260206004820152602560248201527f45524332303a207472616e736665722066726f6d20746865207a65726f206164604482015264647265737360d81b6064820152608401610569565b6001600160a01b038216610b575760405162461bcd60e51b815260206004820152602360248201527f45524332303a207472616e7366657220746f20746865207a65726f206164647260448201526265737360e81b6064820152608401610569565b6001600160a01b03831660009081526033602052604090205481811015610bcf5760405162461bcd60e51b815260206004820152602660248201527f45524332303a207472616e7366657220616d6f756e7420657863656564732062604482015265616c616e636560d01b6064820152608401610569565b6001600160a01b03808516600090815260336020526040808220858503905591851681529081208054849290610c06908490611cb5565b92505081905550826001600160a01b0316846001600160a01b03167fddf252ad1be2c89b69c2b068fc378daa952ba7f163c4a11628f55a4df523b3ef84604051610c5291815260200190565b60405180910390a3610a8b565b6040805160048152602481019091526020810180516001600160e01b0316636a57db9d60e11b179052600090610c9c610c9661048e565b82611028565b9050600081806020019051810190610cb49190611db0565b9050600080866001811115610ccb57610ccb611df9565b03610d5357610d4c610cdb61048e565b6001600160a01b031663f424c4ba6040518163ffffffff1660e01b8152600401602060405180830381865afa158015610d18573d6000803e3d6000fd5b505050506040513d601f19601f82011682018060405250810190610d3c9190611db0565b8690670de0b6b3a7640000610d8b565b9050610d82565b6001866001811115610d6757610d67611df9565b03610d8257610d7f8583670de0b6b3a7640000610d8b565b90505b95945050505050565b6000826000190484118302158202610da257600080fd5b5091020490565b600054610100900460ff16610dd05760405162461bcd60e51b815260040161056990611e40565b610dda828261104d565b5050565b6001600160a01b038216610e345760405162461bcd60e51b815260206004820152601f60248201527f45524332303a206d696e7420746f20746865207a65726f2061646472657373006044820152606401610569565b8060356000828254610e469190611cb5565b90915550506001600160a01b03821660009081526033602052604081208054839290610e73908490611cb5565b90915550506040518181526001600160a01b038316906000907fddf252ad1be2c89b69c2b068fc378daa952ba7f163c4a11628f55a4df523b3ef9060200160405180910390a35050565b6000610ed0610eca61048e565b84610754565b506000610ef0610ee06000610361565b8590670de0b6b3a7640000610d8b565b90506000610f71670de0b6b3a7640000610f0861048e565b6001600160a01b031663f424c4ba6040518163ffffffff1660e01b8152600401602060405180830381865afa158015610f45573d6000803e3d6000fd5b505050506040513d601f19601f82011682018060405250810190610f699190611db0565b849190610d8b565b905073ae78736cd615f374d3085123a210448e74fc6392196001600160a01b03871601610fa1579150610d829050565b611017610fac61048e565b6001600160a01b031663b73a89516040518163ffffffff1660e01b815260040161010060405180830381865afa158015610fea573d6000803e3d6000fd5b505050506040513d601f19601f8201168201806040525081019061100e9190611ceb565b8789848861108d565b98975050505050505050565b505050565b606061033883836040518060600160405280602581526020016121c96025913961109e565b600054610100900460ff166110745760405162461bcd60e51b815260040161056990611e40565b60366110808382611ed1565b5060376110238282611ed1565b600061087b8686868686600061110c565b6060600080856001600160a01b0316856040516110bb9190611f91565b600060405180830381855afa9150503d80600081146110f6576040519150601f19603f3d011682016040523d82523d6000602084013e6110fb565b606091505b509150915061087b868383876112aa565b600080808084600281111561112357611123611df9565b0361113557505060c087015160e08801515b600089604001516001600160a01b0316631c0de0516040518163ffffffff1660e01b8152600401606060405180830381865afa158015611179573d6000803e3d6000fd5b505050506040513d601f19601f8201168201806040525081019061119d9190611fbd565b5050905080156111c5576111be8383308d600001518e602001518c8c61132b565b93506111e3565b6111e083838c604001518d606001518e608001518c8c611484565b93505b8960e001516001600160a01b0316896001600160a01b03160361127f5760e08a015160405163a9059cbb60e01b81526001600160a01b038a81166004830152602482018790529091169063a9059cbb906044016020604051808303816000875af1158015611255573d6000803e3d6000fd5b505050506040513d601f19601f820116820180604052508101906112799190611ff2565b5061129d565b61129a8a60e001518a8a8d600001518e60200151898c61132b565b93505b5050509695505050505050565b60608315611319578251600003611312576001600160a01b0385163b6113125760405162461bcd60e51b815260206004820152601d60248201527f416464726573733a2063616c6c20746f206e6f6e2d636f6e74726163740000006044820152606401610569565b5081611323565b61132383836116eb565b949350505050565b6000611338888685611715565b60408051610100810182526001600160a01b038a811682528981166020830190815262ffffff8881168486019081528b841660608601908152426080870190815260a087018b8152600060c0890181815260e08a01918252995163414bf38960e01b815289518916600482015296518816602488015293519094166044860152905185166064850152516084840152905160a4830152935160c48201529251811660e484015290919087169063414bf38990610104016020604051808303816000875af1925050508015611429575060408051601f3d908101601f1916820190925261142691810190611db0565b60015b61147b5761143561200d565b806308c379a00361146f5750611449612028565b806114545750611471565b8060405163633abab960e01b815260040161056991906119d4565b505b3d6000803e3d6000fd5b91506104839050565b6000806040518060c00160405280886001600160a01b03166338fff2d06040518163ffffffff1660e01b8152600401602060405180830381865afa1580156114d0573d6000803e3d6000fd5b505050506040513d601f19601f820116820180604052508101906114f49190611db0565b8152602001600081526001600160a01b03808c1660208301528a1660408201526060810186905260800160006040519080825280601f01601f19166020018201604052801561154a576020820181803683370190505b5090526040805160808101825230808252600060208301819052828401919091526060820152905163e969f6b360e01b8152919250906001600160a01b0388169063e969f6b3906115a19085908590600401612112565b6020604051808303816000875af19250505080156115dc575060408051601f3d908101601f191682019092526115d991810190611db0565b60015b611622576115e861200d565b806308c379a00361146f57506115fc612028565b806116075750611471565b8060405163dafe91cd60e01b815260040161056991906119d4565b60008186116116315781611633565b855b90506116448c898660800151611715565b6040516352bbbe2960e01b81526001600160a01b038916906352bbbe2990611676908790879086904290600401612164565b6020604051808303816000875af1158015611695573d6000803e3d6000fd5b505050506040513d601f19601f820116820180604052508101906116b99190611db0565b94505050826000036116de57604051635eeb40ff60e11b815260040160405180910390fd5b5050979650505050505050565b8151156116fb5781518083602001fd5b8060405162461bcd60e51b815260040161056991906119d4565b80158061178f5750604051636eb1769f60e11b81523060048201526001600160a01b03838116602483015284169063dd62ed3e90604401602060405180830381865afa158015611769573d6000803e3d6000fd5b505050506040513d601f19601f8201168201806040525081019061178d9190611db0565b155b6117fa5760405162461bcd60e51b815260206004820152603660248201527f5361666545524332303a20617070726f76652066726f6d206e6f6e2d7a65726f60448201527520746f206e6f6e2d7a65726f20616c6c6f77616e636560501b6064820152608401610569565b604080516001600160a01b03848116602483015260448083018590528351808403909101815260649092018352602080830180516001600160e01b031663095ea7b360e01b17905283518085019094528084527f5361666545524332303a206c6f772d6c6576656c2063616c6c206661696c6564908401526110239286929160009161188a91851690849061190a565b90508051600014806118ab5750808060200190518101906118ab9190611ff2565b6110235760405162461bcd60e51b815260206004820152602a60248201527f5361666545524332303a204552433230206f7065726174696f6e20646964206e6044820152691bdd081cdd58d8d9595960b21b6064820152608401610569565b6060611323848460008585600080866001600160a01b031685876040516119319190611f91565b60006040518083038185875af1925050503d806000811461196e576040519150601f19603f3d011682016040523d82523d6000602084013e611973565b606091505b5091509150610483878383876112aa565b60005b8381101561199f578181015183820152602001611987565b50506000910152565b600081518084526119c0816020860160208601611984565b601f01601f19169290920160200192915050565b60208152600061033860208301846119a8565b6001600160a01b03811681146119fc57600080fd5b50565b60008060408385031215611a1257600080fd5b8235611a1d816119e7565b946020939093013593505050565b600080600060608486031215611a4057600080fd5b8335611a4b816119e7565b92506020840135611a5b816119e7565b929592945050506040919091013590565b600060208284031215611a7e57600080fd5b81356002811061033857600080fd5b600060208284031215611a9f57600080fd5b8135610338816119e7565b634e487b7160e01b600052604160045260246000fd5b601f8201601f1916810167ffffffffffffffff81118282101715611ae657611ae6611aaa565b6040525050565b600082601f830112611afe57600080fd5b813567ffffffffffffffff811115611b1857611b18611aaa565b604051611b2f601f8301601f191660200182611ac0565b818152846020838601011115611b4457600080fd5b816020850160208301376000918101602001919091529392505050565b600080600080600060a08688031215611b7957600080fd5b853567ffffffffffffffff80821115611b9157600080fd5b611b9d89838a01611aed565b96506020880135915080821115611bb357600080fd5b50611bc088828901611aed565b9450506040860135611bd1816119e7565b94979396509394606081013594506080013592915050565b600080600080600060a08688031215611c0157600080fd5b8535611c0c816119e7565b94506020860135611c1c816119e7565b93506040860135611bd1816119e7565b60008060408385031215611c3f57600080fd5b8235611c4a816119e7565b91506020830135611c5a816119e7565b809150509250929050565b600181811c90821680611c7957607f821691505b602082108103611c9957634e487b7160e01b600052602260045260246000fd5b50919050565b634e487b7160e01b600052601160045260246000fd5b8082018082111561031357610313611c9f565b8051611cd3816119e7565b919050565b805162ffffff81168114611cd357600080fd5b6000610100808385031215611cff57600080fd5b6040519081019067ffffffffffffffff82118183101715611d2257611d22611aaa565b81604052611d2f84611cc8565b8152611d3d60208501611cd8565b6020820152611d4e60408501611cc8565b6040820152611d5f60608501611cc8565b6060820152611d7060808501611cc8565b6080820152611d8160a08501611cc8565b60a0820152611d9260c08501611cc8565b60c0820152611da360e08501611cc8565b60e0820152949350505050565b600060208284031215611dc257600080fd5b5051919050565b8181038181111561031357610313611c9f565b600060208284031215611dee57600080fd5b8151610338816119e7565b634e487b7160e01b600052602160045260246000fd5b600281106119fc57634e487b7160e01b600052602160045260246000fd5b60208101611e3a83611e0f565b91905290565b6020808252602b908201527f496e697469616c697a61626c653a20636f6e7472616374206973206e6f74206960408201526a6e697469616c697a696e6760a81b606082015260800190565b601f82111561102357600081815260208120601f850160051c81016020861015611eb25750805b601f850160051c820191505b8181101561064757828155600101611ebe565b815167ffffffffffffffff811115611eeb57611eeb611aaa565b611eff81611ef98454611c65565b84611e8b565b602080601f831160018114611f345760008415611f1c5750858301515b600019600386901b1c1916600185901b178555610647565b600085815260208120601f198616915b82811015611f6357888601518255948401946001909101908401611f44565b5085821015611f815787850151600019600388901b60f8161c191681555b5050505050600190811b01905550565b60008251611fa3818460208701611984565b9190910192915050565b80518015158114611cd357600080fd5b600080600060608486031215611fd257600080fd5b611fdb84611fad565b925060208401519150604084015190509250925092565b60006020828403121561200457600080fd5b61033882611fad565b600060033d11156104be5760046000803e5060005160e01c90565b600060443d10156120365790565b6040516003193d81016004833e81513d67ffffffffffffffff816024840111818411171561206657505050505090565b828501915081518181111561207e5750505050505090565b843d87010160208285010111156120985750505050505090565b6120a760208286010187611ac0565b509095945050505050565b80518252600060208201516120c681611e0f565b80602085015250604082015160018060a01b03808216604086015280606085015116606086015250506080820151608084015260a082015160c060a085015261132360c08501826119a8565b60a08152600061212560a08301856120b2565b9050610338602083018480516001600160a01b039081168352602080830151151590840152604080830151909116908301526060908101511515910152565b60e08152600061217760e08301876120b2565b90506121b6602083018680516001600160a01b039081168352602080830151151590840152604080830151909116908301526060908101511515910152565b60a082019390935260c001529291505056fe416464726573733a206c6f772d6c6576656c207374617469632063616c6c206661696c6564a2646970667358221220b3ea6d3235dabbe982171be400e956bd527f2c41125c2e22423a88b5ab3bd8e864736f6c63430008150033",
    "linkReferences": {}
  },
  "methodIdentifiers": {
    "allowance(address,address)": "dd62ed3e",
    "approve(address,uint256)": "095ea7b3",
    "balanceOf(address)": "70a08231",
    "circulatingSupply()": "9358928b",
    "decimals()": "313ce567",
    "decreaseAllowance(address,uint256)": "a457c2d7",
    "getExchangeRate()": "e6aa216c",
    "getExchangeRate(uint8)": "4d02a3f7",
    "getOZ()": "59c64e12",
    "increaseAllowance(address,uint256)": "39509351",
    "initialize(string,string,address,uint256,uint256)": "74823132",
    "name()": "06fdde03",
    "redeem(address,address,address,uint256,uint256)": "be78b2ba",
    "symbol()": "95d89b41",
    "totalSupply()": "18160ddd",
    "transfer(address,uint256)": "a9059cbb",
    "transferFrom(address,address,uint256)": "23b872dd"
  },
  "id": 4
}