{
  "abi": [
    {
      "inputs": [],
      "stateMutability": "nonpayable",
      "type": "constructor"
    },
    {
      "anonymous": false,
      "inputs": [
        {
          "indexed": true,
          "internalType": "address",
          "name": "owner",
          "type": "address"
        },
        {
          "indexed": true,
          "internalType": "address",
          "name": "spender",
          "type": "address"
        },
        {
          "indexed": false,
          "internalType": "uint256",
          "name": "value",
          "type": "uint256"
        }
      ],
      "name": "Approval",
      "type": "event"
    },
    {
      "anonymous": false,
      "inputs": [
        {
          "indexed": false,
          "internalType": "uint8",
          "name": "version",
          "type": "uint8"
        }
      ],
      "name": "Initialized",
      "type": "event"
    },
    {
      "anonymous": false,
      "inputs": [
        {
          "indexed": true,
          "internalType": "address",
          "name": "from",
          "type": "address"
        },
        {
          "indexed": true,
          "internalType": "address",
          "name": "to",
          "type": "address"
        },
        {
          "indexed": false,
          "internalType": "uint256",
          "name": "value",
          "type": "uint256"
        }
      ],
      "name": "Transfer",
      "type": "event"
    },
    {
      "inputs": [
        {
          "internalType": "address",
          "name": "owner",
          "type": "address"
        },
        {
          "internalType": "address",
          "name": "spender",
          "type": "address"
        }
      ],
      "name": "allowance",
      "outputs": [
        {
          "internalType": "uint256",
          "name": "",
          "type": "uint256"
        }
      ],
      "stateMutability": "view",
      "type": "function"
    },
    {
      "inputs": [
        {
          "internalType": "address",
          "name": "spender",
          "type": "address"
        },
        {
          "internalType": "uint256",
          "name": "amount",
          "type": "uint256"
        }
      ],
      "name": "approve",
      "outputs": [
        {
          "internalType": "bool",
          "name": "",
          "type": "bool"
        }
      ],
      "stateMutability": "nonpayable",
      "type": "function"
    },
    {
      "inputs": [
        {
          "internalType": "address",
          "name": "account",
          "type": "address"
        }
      ],
      "name": "balanceOf",
      "outputs": [
        {
          "internalType": "uint256",
          "name": "",
          "type": "uint256"
        }
      ],
      "stateMutability": "view",
      "type": "function"
    },
    {
      "inputs": [],
      "name": "circulatingSupply",
      "outputs": [
        {
          "internalType": "uint256",
          "name": "",
          "type": "uint256"
        }
      ],
      "stateMutability": "view",
      "type": "function"
    },
    {
      "inputs": [],
      "name": "decimals",
      "outputs": [
        {
          "internalType": "uint8",
          "name": "",
          "type": "uint8"
        }
      ],
      "stateMutability": "view",
      "type": "function"
    },
    {
      "inputs": [
        {
          "internalType": "address",
          "name": "spender",
          "type": "address"
        },
        {
          "internalType": "uint256",
          "name": "subtractedValue",
          "type": "uint256"
        }
      ],
      "name": "decreaseAllowance",
      "outputs": [
        {
          "internalType": "bool",
          "name": "",
          "type": "bool"
        }
      ],
      "stateMutability": "nonpayable",
      "type": "function"
    },
    {
      "inputs": [],
      "name": "getBal",
      "outputs": [
        {
          "internalType": "uint256",
          "name": "",
          "type": "uint256"
        }
      ],
      "stateMutability": "view",
      "type": "function"
    },
    {
      "inputs": [
        {
          "internalType": "enum QuoteAsset",
          "name": "asset_",
          "type": "uint8"
        }
      ],
      "name": "getExchangeRate",
      "outputs": [
        {
          "internalType": "uint256",
          "name": "",
          "type": "uint256"
        }
      ],
      "stateMutability": "view",
      "type": "function"
    },
    {
      "inputs": [],
      "name": "getOZ",
      "outputs": [
        {
          "internalType": "contract ozIDiamond",
          "name": "",
          "type": "address"
        }
      ],
      "stateMutability": "view",
      "type": "function"
    },
    {
      "inputs": [
        {
          "internalType": "address",
          "name": "spender",
          "type": "address"
        },
        {
          "internalType": "uint256",
          "name": "addedValue",
          "type": "uint256"
        }
      ],
      "name": "increaseAllowance",
      "outputs": [
        {
          "internalType": "bool",
          "name": "",
          "type": "bool"
        }
      ],
      "stateMutability": "nonpayable",
      "type": "function"
    },
    {
      "inputs": [
        {
          "internalType": "string",
          "name": "name_",
          "type": "string"
        },
        {
          "internalType": "string",
          "name": "symbol_",
          "type": "string"
        },
        {
          "internalType": "address",
          "name": "ozDiamond_",
          "type": "address"
        },
        {
          "internalType": "uint256",
          "name": "totalSupply_",
          "type": "uint256"
        },
        {
          "internalType": "uint256",
          "name": "communityAmount_",
          "type": "uint256"
        }
      ],
      "name": "initialize",
      "outputs": [],
      "stateMutability": "nonpayable",
      "type": "function"
    },
    {
      "inputs": [],
      "name": "name",
      "outputs": [
        {
          "internalType": "string",
          "name": "",
          "type": "string"
        }
      ],
      "stateMutability": "view",
      "type": "function"
    },
    {
      "inputs": [
        {
          "internalType": "uint256",
          "name": "amount_",
          "type": "uint256"
        },
        {
          "internalType": "address",
          "name": "receiver_",
          "type": "address"
        }
      ],
      "name": "redeem",
      "outputs": [
        {
          "internalType": "uint256",
          "name": "",
          "type": "uint256"
        }
      ],
      "stateMutability": "nonpayable",
      "type": "function"
    },
    {
      "inputs": [],
      "name": "symbol",
      "outputs": [
        {
          "internalType": "string",
          "name": "",
          "type": "string"
        }
      ],
      "stateMutability": "view",
      "type": "function"
    },
    {
      "inputs": [],
      "name": "totalSupply",
      "outputs": [
        {
          "internalType": "uint256",
          "name": "",
          "type": "uint256"
        }
      ],
      "stateMutability": "view",
      "type": "function"
    },
    {
      "inputs": [
        {
          "internalType": "address",
          "name": "to",
          "type": "address"
        },
        {
          "internalType": "uint256",
          "name": "amount",
          "type": "uint256"
        }
      ],
      "name": "transfer",
      "outputs": [
        {
          "internalType": "bool",
          "name": "",
          "type": "bool"
        }
      ],
      "stateMutability": "nonpayable",
      "type": "function"
    },
    {
      "inputs": [
        {
          "internalType": "address",
          "name": "from",
          "type": "address"
        },
        {
          "internalType": "address",
          "name": "to",
          "type": "address"
        },
        {
          "internalType": "uint256",
          "name": "amount",
          "type": "uint256"
        }
      ],
      "name": "transferFrom",
      "outputs": [
        {
          "internalType": "bool",
          "name": "",
          "type": "bool"
        }
      ],
      "stateMutability": "nonpayable",
      "type": "function"
    }
  ],
  "bytecode": {
    "object": "0x608060405234801561001057600080fd5b5061001961001e565b6100de565b600054610100900460ff161561008a5760405162461bcd60e51b815260206004820152602760248201527f496e697469616c697a61626c653a20636f6e747261637420697320696e697469604482015266616c697a696e6760c81b606482015260840160405180910390fd5b60005460ff90811610156100dc576000805460ff191660ff9081179091556040519081527f7f26b83ff96e1f2b6a682f133852f6798a09c465da95921460cefb38474024989060200160405180910390a15b565b6114b8806100ed6000396000f3fe608060405234801561001057600080fd5b506004361061010b5760003560e01c806359c64e12116100a25780639358928b116100715780639358928b1461022757806395d89b411461022f578063a457c2d714610237578063a9059cbb1461024a578063dd62ed3e1461025d57600080fd5b806359c64e12146101b357806370a08231146101d357806374823132146101fc5780637bde82f21461021157600080fd5b806325caa262116100de57806325caa26214610176578063313ce5671461017e578063395093511461018d5780634d02a3f7146101a057600080fd5b806306fdde0314610110578063095ea7b31461012e57806318160ddd1461015157806323b872dd14610163575b600080fd5b610118610270565b6040516101259190610fde565b60405180910390f35b61014161013c366004611008565b610302565b6040519015158152602001610125565b6035545b604051908152602001610125565b610141610171366004611032565b61031c565b610155610340565b60405160128152602001610125565b61014161019b366004611008565b6103fe565b6101556101ae36600461106e565b610420565b6101bb6104e5565b6040516001600160a01b039091168152602001610125565b6101556101e136600461108f565b6001600160a01b031660009081526033602052604090205490565b61020f61020a36600461114d565b610527565b005b61015561021f3660046111d3565b600092915050565b6101556106a6565b610118610716565b610141610245366004611008565b610725565b610141610258366004611008565b6107a0565b61015561026b3660046111ff565b6107ae565b60606036805461027f90611229565b80601f01602080910402602001604051908101604052809291908181526020018280546102ab90611229565b80156102f85780601f106102cd576101008083540402835291602001916102f8565b820191906000526020600020905b8154815290600101906020018083116102db57829003601f168201915b5050505050905090565b6000336103108185856107d9565b60019150505b92915050565b60003361032a8582856108fd565b610335858585610977565b506001949350505050565b6040516370a0823160e01b8152306004820152600090819073ae78736cd615f374d3085123a210448e74fc6393906370a0823190602401602060405180830381865afa158015610394573d6000803e3d6000fd5b505050506040513d601f19601f820116820180604052508101906103b89190611263565b90506103f96040518060400160405280601a81526020017f724554482062616c202866726f6d206665657329202a2a2a3a2000000000000081525082610b45565b919050565b60003361031081858561041183836107ae565b61041b9190611292565b6107d9565b6040516370a0823160e01b8152306004820152600090670de0b6b3a764000090829073ae78736cd615f374d3085123a210448e74fc6393906370a0823190602401602060405180830381865afa15801561047e573d6000803e3d6000fd5b505050506040513d601f19601f820116820180604052508101906104a29190611263565b905060006104b08583610b8e565b905060006104bc6106a6565b9050806000036104d0575091949350505050565b6104db848383610cba565b9695505050505050565b600061051861051560017f86ce1ea4932afb23386a483af3bf37658d9a562b0cc91e2c799fcb236cb30d576112a5565b90565b546001600160a01b0316919050565b600054610100900460ff16158080156105475750600054600160ff909116105b806105615750303b158015610561575060005460ff166001145b6105c95760405162461bcd60e51b815260206004820152602e60248201527f496e697469616c697a61626c653a20636f6e747261637420697320616c72656160448201526d191e481a5b9a5d1a585b1a5e995960921b60648201526084015b60405180910390fd5b6000805460ff1916600117905580156105ec576000805461ff0019166101001790555b6105f68686610cd8565b8361062561051560017f86ce1ea4932afb23386a483af3bf37658d9a562b0cc91e2c799fcb236cb30d576112a5565b80546001600160a01b0319166001600160a01b039290921691909117905561064d3084610d09565b610658308584610977565b801561069e576000805461ff0019169055604051600181527f7f26b83ff96e1f2b6a682f133852f6798a09c465da95921460cefb38474024989060200160405180910390a15b505050505050565b60006106b06104e5565b6001600160a01b0316631e4d84c66040518163ffffffff1660e01b8152600401602060405180830381865afa1580156106ed573d6000803e3d6000fd5b505050506040513d601f19601f820116820180604052508101906107119190611263565b905090565b60606037805461027f90611229565b6000338161073382866107ae565b9050838110156107935760405162461bcd60e51b815260206004820152602560248201527f45524332303a2064656372656173656420616c6c6f77616e63652062656c6f77604482015264207a65726f60d81b60648201526084016105c0565b61033582868684036107d9565b600033610310818585610977565b6001600160a01b03918216600090815260346020908152604080832093909416825291909152205490565b6001600160a01b03831661083b5760405162461bcd60e51b8152602060048201526024808201527f45524332303a20617070726f76652066726f6d20746865207a65726f206164646044820152637265737360e01b60648201526084016105c0565b6001600160a01b03821661089c5760405162461bcd60e51b815260206004820152602260248201527f45524332303a20617070726f766520746f20746865207a65726f206164647265604482015261737360f01b60648201526084016105c0565b6001600160a01b0383811660008181526034602090815260408083209487168084529482529182902085905590518481527f8c5be1e5ebec7d5bd14f71427d1e84f3dd0314c0f7b2291e5b200ac8c7c3b925910160405180910390a3505050565b600061090984846107ae565b9050600019811461097157818110156109645760405162461bcd60e51b815260206004820152601d60248201527f45524332303a20696e73756666696369656e7420616c6c6f77616e636500000060448201526064016105c0565b61097184848484036107d9565b50505050565b6001600160a01b0383166109db5760405162461bcd60e51b815260206004820152602560248201527f45524332303a207472616e736665722066726f6d20746865207a65726f206164604482015264647265737360d81b60648201526084016105c0565b6001600160a01b038216610a3d5760405162461bcd60e51b815260206004820152602360248201527f45524332303a207472616e7366657220746f20746865207a65726f206164647260448201526265737360e81b60648201526084016105c0565b6001600160a01b03831660009081526033602052604090205481811015610ab55760405162461bcd60e51b815260206004820152602660248201527f45524332303a207472616e7366657220616d6f756e7420657863656564732062604482015265616c616e636560d01b60648201526084016105c0565b6001600160a01b03808516600090815260336020526040808220858503905591851681529081208054849290610aec908490611292565b92505081905550826001600160a01b0316846001600160a01b03167fddf252ad1be2c89b69c2b068fc378daa952ba7f163c4a11628f55a4df523b3ef84604051610b3891815260200190565b60405180910390a3610971565b610b8a8282604051602401610b5b9291906112b8565b60408051601f198184030181529190526020810180516001600160e01b03166309710a9d60e41b179052610ded565b5050565b6040805160048152602481019091526020810180516001600160e01b0316636a57db9d60e11b179052600090610bcb610bc56104e5565b82610e0e565b9050600081806020019051810190610be39190611263565b9050600080866001811115610bfa57610bfa6112da565b03610c8257610c7b610c0a6104e5565b6001600160a01b031663f424c4ba6040518163ffffffff1660e01b8152600401602060405180830381865afa158015610c47573d6000803e3d6000fd5b505050506040513d601f19601f82011682018060405250810190610c6b9190611263565b8690670de0b6b3a7640000610cba565b9050610cb1565b6001866001811115610c9657610c966112da565b03610cb157610cae8583670de0b6b3a7640000610cba565b90505b95945050505050565b6000826000190484118302158202610cd157600080fd5b5091020490565b600054610100900460ff16610cff5760405162461bcd60e51b81526004016105c0906112f0565b610b8a8282610e3a565b6001600160a01b038216610d5f5760405162461bcd60e51b815260206004820152601f60248201527f45524332303a206d696e7420746f20746865207a65726f20616464726573730060448201526064016105c0565b8060356000828254610d719190611292565b90915550506001600160a01b03821660009081526033602052604081208054839290610d9e908490611292565b90915550506040518181526001600160a01b038316906000907fddf252ad1be2c89b69c2b068fc378daa952ba7f163c4a11628f55a4df523b3ef9060200160405180910390a35050565b505050565b80516a636f6e736f6c652e6c6f67602083016000808483855afa5050505050565b6060610e33838360405180606001604052806025815260200161145e60259139610e7a565b9392505050565b600054610100900460ff16610e615760405162461bcd60e51b81526004016105c0906112f0565b6036610e6d8382611381565b506037610de88282611381565b6060600080856001600160a01b031685604051610e979190611441565b600060405180830381855afa9150503d8060008114610ed2576040519150601f19603f3d011682016040523d82523d6000602084013e610ed7565b606091505b50915091506104db8683838760608315610f52578251600003610f4b576001600160a01b0385163b610f4b5760405162461bcd60e51b815260206004820152601d60248201527f416464726573733a2063616c6c20746f206e6f6e2d636f6e747261637400000060448201526064016105c0565b5081610f5c565b610f5c8383610f64565b949350505050565b815115610f745781518083602001fd5b8060405162461bcd60e51b81526004016105c09190610fde565b60005b83811015610fa9578181015183820152602001610f91565b50506000910152565b60008151808452610fca816020860160208601610f8e565b601f01601f19169290920160200192915050565b602081526000610e336020830184610fb2565b80356001600160a01b03811681146103f957600080fd5b6000806040838503121561101b57600080fd5b61102483610ff1565b946020939093013593505050565b60008060006060848603121561104757600080fd5b61105084610ff1565b925061105e60208501610ff1565b9150604084013590509250925092565b60006020828403121561108057600080fd5b813560028110610e3357600080fd5b6000602082840312156110a157600080fd5b610e3382610ff1565b634e487b7160e01b600052604160045260246000fd5b600082601f8301126110d157600080fd5b813567ffffffffffffffff808211156110ec576110ec6110aa565b604051601f8301601f19908116603f01168101908282118183101715611114576111146110aa565b8160405283815286602085880101111561112d57600080fd5b836020870160208301376000602085830101528094505050505092915050565b600080600080600060a0868803121561116557600080fd5b853567ffffffffffffffff8082111561117d57600080fd5b61118989838a016110c0565b9650602088013591508082111561119f57600080fd5b506111ac888289016110c0565b9450506111bb60408701610ff1565b94979396509394606081013594506080013592915050565b600080604083850312156111e657600080fd5b823591506111f660208401610ff1565b90509250929050565b6000806040838503121561121257600080fd5b61121b83610ff1565b91506111f660208401610ff1565b600181811c9082168061123d57607f821691505b60208210810361125d57634e487b7160e01b600052602260045260246000fd5b50919050565b60006020828403121561127557600080fd5b5051919050565b634e487b7160e01b600052601160045260246000fd5b808201808211156103165761031661127c565b818103818111156103165761031661127c565b6040815260006112cb6040830185610fb2565b90508260208301529392505050565b634e487b7160e01b600052602160045260246000fd5b6020808252602b908201527f496e697469616c697a61626c653a20636f6e7472616374206973206e6f74206960408201526a6e697469616c697a696e6760a81b606082015260800190565b601f821115610de857600081815260208120601f850160051c810160208610156113625750805b601f850160051c820191505b8181101561069e5782815560010161136e565b815167ffffffffffffffff81111561139b5761139b6110aa565b6113af816113a98454611229565b8461133b565b602080601f8311600181146113e457600084156113cc5750858301515b600019600386901b1c1916600185901b17855561069e565b600085815260208120601f198616915b82811015611413578886015182559484019460019091019084016113f4565b50858210156114315787850151600019600388901b60f8161c191681555b5050505050600190811b01905550565b60008251611453818460208701610f8e565b919091019291505056fe416464726573733a206c6f772d6c6576656c207374617469632063616c6c206661696c6564a2646970667358221220650740879a9af0d4f785c5f848278b29d69b548389e8392e9791a42aa90ebc0e64736f6c63430008150033",
    "linkReferences": {}
  },
  "methodIdentifiers": {
    "allowance(address,address)": "dd62ed3e",
    "approve(address,uint256)": "095ea7b3",
    "balanceOf(address)": "70a08231",
    "circulatingSupply()": "9358928b",
    "decimals()": "313ce567",
    "decreaseAllowance(address,uint256)": "a457c2d7",
    "getBal()": "25caa262",
    "getExchangeRate(uint8)": "4d02a3f7",
    "getOZ()": "59c64e12",
    "increaseAllowance(address,uint256)": "39509351",
    "initialize(string,string,address,uint256,uint256)": "74823132",
    "name()": "06fdde03",
    "redeem(uint256,address)": "7bde82f2",
    "symbol()": "95d89b41",
    "totalSupply()": "18160ddd",
    "transfer(address,uint256)": "a9059cbb",
    "transferFrom(address,address,uint256)": "23b872dd"
  },
  "id": 4
}