{
  "abi": [
    {
      "inputs": [],
      "stateMutability": "nonpayable",
      "type": "constructor"
    },
    {
      "anonymous": false,
      "inputs": [
        {
          "indexed": true,
          "internalType": "address",
          "name": "owner",
          "type": "address"
        },
        {
          "indexed": true,
          "internalType": "address",
          "name": "spender",
          "type": "address"
        },
        {
          "indexed": false,
          "internalType": "uint256",
          "name": "value",
          "type": "uint256"
        }
      ],
      "name": "Approval",
      "type": "event"
    },
    {
      "anonymous": false,
      "inputs": [
        {
          "indexed": false,
          "internalType": "uint8",
          "name": "version",
          "type": "uint8"
        }
      ],
      "name": "Initialized",
      "type": "event"
    },
    {
      "anonymous": false,
      "inputs": [
        {
          "indexed": true,
          "internalType": "address",
          "name": "from",
          "type": "address"
        },
        {
          "indexed": true,
          "internalType": "address",
          "name": "to",
          "type": "address"
        },
        {
          "indexed": false,
          "internalType": "uint256",
          "name": "value",
          "type": "uint256"
        }
      ],
      "name": "Transfer",
      "type": "event"
    },
    {
      "inputs": [
        {
          "internalType": "address",
          "name": "owner",
          "type": "address"
        },
        {
          "internalType": "address",
          "name": "spender",
          "type": "address"
        }
      ],
      "name": "allowance",
      "outputs": [
        {
          "internalType": "uint256",
          "name": "",
          "type": "uint256"
        }
      ],
      "stateMutability": "view",
      "type": "function"
    },
    {
      "inputs": [
        {
          "internalType": "address",
          "name": "spender",
          "type": "address"
        },
        {
          "internalType": "uint256",
          "name": "amount",
          "type": "uint256"
        }
      ],
      "name": "approve",
      "outputs": [
        {
          "internalType": "bool",
          "name": "",
          "type": "bool"
        }
      ],
      "stateMutability": "nonpayable",
      "type": "function"
    },
    {
      "inputs": [
        {
          "internalType": "address",
          "name": "account",
          "type": "address"
        }
      ],
      "name": "balanceOf",
      "outputs": [
        {
          "internalType": "uint256",
          "name": "",
          "type": "uint256"
        }
      ],
      "stateMutability": "view",
      "type": "function"
    },
    {
      "inputs": [],
      "name": "decimals",
      "outputs": [
        {
          "internalType": "uint8",
          "name": "",
          "type": "uint8"
        }
      ],
      "stateMutability": "view",
      "type": "function"
    },
    {
      "inputs": [
        {
          "internalType": "address",
          "name": "spender",
          "type": "address"
        },
        {
          "internalType": "uint256",
          "name": "subtractedValue",
          "type": "uint256"
        }
      ],
      "name": "decreaseAllowance",
      "outputs": [
        {
          "internalType": "bool",
          "name": "",
          "type": "bool"
        }
      ],
      "stateMutability": "nonpayable",
      "type": "function"
    },
    {
      "inputs": [],
      "name": "getBal",
      "outputs": [
        {
          "internalType": "uint256",
          "name": "",
          "type": "uint256"
        }
      ],
      "stateMutability": "view",
      "type": "function"
    },
    {
      "inputs": [],
      "name": "getExchangeRate",
      "outputs": [
        {
          "internalType": "uint256",
          "name": "",
          "type": "uint256"
        }
      ],
      "stateMutability": "view",
      "type": "function"
    },
    {
      "inputs": [
        {
          "internalType": "address",
          "name": "spender",
          "type": "address"
        },
        {
          "internalType": "uint256",
          "name": "addedValue",
          "type": "uint256"
        }
      ],
      "name": "increaseAllowance",
      "outputs": [
        {
          "internalType": "bool",
          "name": "",
          "type": "bool"
        }
      ],
      "stateMutability": "nonpayable",
      "type": "function"
    },
    {
      "inputs": [
        {
          "internalType": "string",
          "name": "name_",
          "type": "string"
        },
        {
          "internalType": "string",
          "name": "symbol_",
          "type": "string"
        },
        {
          "internalType": "address",
          "name": "ozDiamond_",
          "type": "address"
        }
      ],
      "name": "initialize",
      "outputs": [],
      "stateMutability": "nonpayable",
      "type": "function"
    },
    {
      "inputs": [],
      "name": "name",
      "outputs": [
        {
          "internalType": "string",
          "name": "",
          "type": "string"
        }
      ],
      "stateMutability": "view",
      "type": "function"
    },
    {
      "inputs": [],
      "name": "symbol",
      "outputs": [
        {
          "internalType": "string",
          "name": "",
          "type": "string"
        }
      ],
      "stateMutability": "view",
      "type": "function"
    },
    {
      "inputs": [],
      "name": "totalSupply",
      "outputs": [
        {
          "internalType": "uint256",
          "name": "",
          "type": "uint256"
        }
      ],
      "stateMutability": "view",
      "type": "function"
    },
    {
      "inputs": [
        {
          "internalType": "address",
          "name": "to",
          "type": "address"
        },
        {
          "internalType": "uint256",
          "name": "amount",
          "type": "uint256"
        }
      ],
      "name": "transfer",
      "outputs": [
        {
          "internalType": "bool",
          "name": "",
          "type": "bool"
        }
      ],
      "stateMutability": "nonpayable",
      "type": "function"
    },
    {
      "inputs": [
        {
          "internalType": "address",
          "name": "from",
          "type": "address"
        },
        {
          "internalType": "address",
          "name": "to",
          "type": "address"
        },
        {
          "internalType": "uint256",
          "name": "amount",
          "type": "uint256"
        }
      ],
      "name": "transferFrom",
      "outputs": [
        {
          "internalType": "bool",
          "name": "",
          "type": "bool"
        }
      ],
      "stateMutability": "nonpayable",
      "type": "function"
    }
  ],
  "bytecode": {
    "object": "0x608060405234801561001057600080fd5b5061001961001e565b6100de565b600054610100900460ff161561008a5760405162461bcd60e51b815260206004820152602760248201527f496e697469616c697a61626c653a20636f6e747261637420697320696e697469604482015266616c697a696e6760c81b606482015260840160405180910390fd5b60005460ff90811610156100dc576000805460ff191660ff9081179091556040519081527f7f26b83ff96e1f2b6a682f133852f6798a09c465da95921460cefb38474024989060200160405180910390a15b565b611081806100ed6000396000f3fe608060405234801561001057600080fd5b50600436106100ea5760003560e01c8063395093511161008c578063a457c2d711610066578063a457c2d7146101c5578063a9059cbb146101d8578063dd62ed3e146101eb578063e6aa216c146101fe57600080fd5b8063395093511461018157806370a082311461019457806395d89b41146101bd57600080fd5b806318160ddd116100c857806318160ddd1461014557806323b872dd1461015757806325caa2621461016a578063313ce5671461017257600080fd5b806306fdde03146100ef578063077f224a1461010d578063095ea7b314610122575b600080fd5b6100f7610206565b6040516101049190610c45565b60405180910390f35b61012061011b366004610d19565b610298565b005b610135610130366004610d8d565b61042e565b6040519015158152602001610104565b6035545b604051908152602001610104565b610135610165366004610db7565b610448565b61014961046c565b60405160128152602001610104565b61013561018f366004610d8d565b61052a565b6101496101a2366004610df3565b6001600160a01b031660009081526033602052604090205490565b6100f761054c565b6101356101d3366004610d8d565b61055b565b6101356101e6366004610d8d565b6105d6565b6101496101f9366004610e0e565b6105e4565b61014961060f565b60606036805461021590610e41565b80601f016020809104026020016040519081016040528092919081815260200182805461024190610e41565b801561028e5780601f106102635761010080835404028352916020019161028e565b820191906000526020600020905b81548152906001019060200180831161027157829003601f168201915b5050505050905090565b600054610100900460ff16158080156102b85750600054600160ff909116105b806102d25750303b1580156102d2575060005460ff166001145b61033a5760405162461bcd60e51b815260206004820152602e60248201527f496e697469616c697a61626c653a20636f6e747261637420697320616c72656160448201526d191e481a5b9a5d1a585b1a5e995960921b60648201526084015b60405180910390fd5b6000805460ff19166001179055801561035d576000805461ff0019166101001790555b61036784846106bc565b8161039961039660017f86ce1ea4932afb23386a483af3bf37658d9a562b0cc91e2c799fcb236cb30d57610e91565b90565b80546001600160a01b0319166001600160a01b03929092169190911790556103cc306a52b7d2dcc80cd2e40000006106f1565b6103e230836a18d0bf423c03d8de0000006107d0565b8015610428576000805461ff0019169055604051600181527f7f26b83ff96e1f2b6a682f133852f6798a09c465da95921460cefb38474024989060200160405180910390a15b50505050565b60003361043c81858561099e565b60019150505b92915050565b600033610456858285610ac2565b6104618585856107d0565b506001949350505050565b6040516370a0823160e01b8152306004820152600090819073ae78736cd615f374d3085123a210448e74fc6393906370a0823190602401602060405180830381865afa1580156104c0573d6000803e3d6000fd5b505050506040513d601f19601f820116820180604052508101906104e49190610ea4565b90506105256040518060400160405280601a81526020017f724554482062616c202866726f6d206665657329202a2a2a3a2000000000000081525082610b36565b919050565b60003361043c81858561053d83836105e4565b6105479190610ebd565b61099e565b60606037805461021590610e41565b6000338161056982866105e4565b9050838110156105c95760405162461bcd60e51b815260206004820152602560248201527f45524332303a2064656372656173656420616c6c6f77616e63652062656c6f77604482015264207a65726f60d81b6064820152608401610331565b610461828686840361099e565b60003361043c8185856107d0565b6001600160a01b03918216600090815260346020908152604080832093909416825291909152205490565b6040516370a0823160e01b8152306004820152600090600190829073ae78736cd615f374d3085123a210448e74fc6393906370a0823190602401602060405180830381865afa158015610666573d6000803e3d6000fd5b505050506040513d601f19601f8201168201806040525081019061068a9190610ea4565b9050600061069760355490565b9050806000036106a957509092915050565b6106b4838383610b7b565b935050505090565b600054610100900460ff166106e35760405162461bcd60e51b815260040161033190610ed0565b6106ed8282610b99565b5050565b6001600160a01b0382166107475760405162461bcd60e51b815260206004820152601f60248201527f45524332303a206d696e7420746f20746865207a65726f2061646472657373006044820152606401610331565b80603560008282546107599190610ebd565b90915550506001600160a01b03821660009081526033602052604081208054839290610786908490610ebd565b90915550506040518181526001600160a01b038316906000907fddf252ad1be2c89b69c2b068fc378daa952ba7f163c4a11628f55a4df523b3ef9060200160405180910390a35050565b6001600160a01b0383166108345760405162461bcd60e51b815260206004820152602560248201527f45524332303a207472616e736665722066726f6d20746865207a65726f206164604482015264647265737360d81b6064820152608401610331565b6001600160a01b0382166108965760405162461bcd60e51b815260206004820152602360248201527f45524332303a207472616e7366657220746f20746865207a65726f206164647260448201526265737360e81b6064820152608401610331565b6001600160a01b0383166000908152603360205260409020548181101561090e5760405162461bcd60e51b815260206004820152602660248201527f45524332303a207472616e7366657220616d6f756e7420657863656564732062604482015265616c616e636560d01b6064820152608401610331565b6001600160a01b03808516600090815260336020526040808220858503905591851681529081208054849290610945908490610ebd565b92505081905550826001600160a01b0316846001600160a01b03167fddf252ad1be2c89b69c2b068fc378daa952ba7f163c4a11628f55a4df523b3ef8460405161099191815260200190565b60405180910390a3610428565b6001600160a01b038316610a005760405162461bcd60e51b8152602060048201526024808201527f45524332303a20617070726f76652066726f6d20746865207a65726f206164646044820152637265737360e01b6064820152608401610331565b6001600160a01b038216610a615760405162461bcd60e51b815260206004820152602260248201527f45524332303a20617070726f766520746f20746865207a65726f206164647265604482015261737360f01b6064820152608401610331565b6001600160a01b0383811660008181526034602090815260408083209487168084529482529182902085905590518481527f8c5be1e5ebec7d5bd14f71427d1e84f3dd0314c0f7b2291e5b200ac8c7c3b925910160405180910390a3505050565b6000610ace84846105e4565b905060001981146104285781811015610b295760405162461bcd60e51b815260206004820152601d60248201527f45524332303a20696e73756666696369656e7420616c6c6f77616e63650000006044820152606401610331565b610428848484840361099e565b6106ed8282604051602401610b4c929190610f1b565b60408051601f198184030181529190526020810180516001600160e01b03166309710a9d60e41b179052610bde565b6000826000190484118302158202610b9257600080fd5b5091020490565b600054610100900460ff16610bc05760405162461bcd60e51b815260040161033190610ed0565b6036610bcc8382610f8b565b506037610bd98282610f8b565b505050565b80516a636f6e736f6c652e6c6f67602083016000808483855afa5050505050565b6000815180845260005b81811015610c2557602081850181015186830182015201610c09565b506000602082860101526020601f19601f83011685010191505092915050565b602081526000610c586020830184610bff565b9392505050565b634e487b7160e01b600052604160045260246000fd5b600082601f830112610c8657600080fd5b813567ffffffffffffffff80821115610ca157610ca1610c5f565b604051601f8301601f19908116603f01168101908282118183101715610cc957610cc9610c5f565b81604052838152866020858801011115610ce257600080fd5b836020870160208301376000602085830101528094505050505092915050565b80356001600160a01b038116811461052557600080fd5b600080600060608486031215610d2e57600080fd5b833567ffffffffffffffff80821115610d4657600080fd5b610d5287838801610c75565b94506020860135915080821115610d6857600080fd5b50610d7586828701610c75565b925050610d8460408501610d02565b90509250925092565b60008060408385031215610da057600080fd5b610da983610d02565b946020939093013593505050565b600080600060608486031215610dcc57600080fd5b610dd584610d02565b9250610de360208501610d02565b9150604084013590509250925092565b600060208284031215610e0557600080fd5b610c5882610d02565b60008060408385031215610e2157600080fd5b610e2a83610d02565b9150610e3860208401610d02565b90509250929050565b600181811c90821680610e5557607f821691505b602082108103610e7557634e487b7160e01b600052602260045260246000fd5b50919050565b634e487b7160e01b600052601160045260246000fd5b8181038181111561044257610442610e7b565b600060208284031215610eb657600080fd5b5051919050565b8082018082111561044257610442610e7b565b6020808252602b908201527f496e697469616c697a61626c653a20636f6e7472616374206973206e6f74206960408201526a6e697469616c697a696e6760a81b606082015260800190565b604081526000610f2e6040830185610bff565b90508260208301529392505050565b601f821115610bd957600081815260208120601f850160051c81016020861015610f645750805b601f850160051c820191505b81811015610f8357828155600101610f70565b505050505050565b815167ffffffffffffffff811115610fa557610fa5610c5f565b610fb981610fb38454610e41565b84610f3d565b602080601f831160018114610fee5760008415610fd65750858301515b600019600386901b1c1916600185901b178555610f83565b600085815260208120601f198616915b8281101561101d57888601518255948401946001909101908401610ffe565b508582101561103b5787850151600019600388901b60f8161c191681555b5050505050600190811b0190555056fea264697066735822122070d7cce18f2e460b9e56bf292c1b160ae826fc2fd4cd111b3a3b7b1f23f8c45764736f6c63430008150033",
    "linkReferences": {}
  },
  "methodIdentifiers": {
    "allowance(address,address)": "dd62ed3e",
    "approve(address,uint256)": "095ea7b3",
    "balanceOf(address)": "70a08231",
    "decimals()": "313ce567",
    "decreaseAllowance(address,uint256)": "a457c2d7",
    "getBal()": "25caa262",
    "getExchangeRate()": "e6aa216c",
    "increaseAllowance(address,uint256)": "39509351",
    "initialize(string,string,address)": "077f224a",
    "name()": "06fdde03",
    "symbol()": "95d89b41",
    "totalSupply()": "18160ddd",
    "transfer(address,uint256)": "a9059cbb",
    "transferFrom(address,address,uint256)": "23b872dd"
  },
  "id": 4
}