{
  "abi": [
    {
      "inputs": [],
      "stateMutability": "nonpayable",
      "type": "constructor"
    },
    {
      "anonymous": false,
      "inputs": [
        {
          "indexed": true,
          "internalType": "address",
          "name": "owner",
          "type": "address"
        },
        {
          "indexed": true,
          "internalType": "address",
          "name": "spender",
          "type": "address"
        },
        {
          "indexed": false,
          "internalType": "uint256",
          "name": "value",
          "type": "uint256"
        }
      ],
      "name": "Approval",
      "type": "event"
    },
    {
      "anonymous": false,
      "inputs": [
        {
          "indexed": false,
          "internalType": "uint8",
          "name": "version",
          "type": "uint8"
        }
      ],
      "name": "Initialized",
      "type": "event"
    },
    {
      "anonymous": false,
      "inputs": [
        {
          "indexed": true,
          "internalType": "address",
          "name": "from",
          "type": "address"
        },
        {
          "indexed": true,
          "internalType": "address",
          "name": "to",
          "type": "address"
        },
        {
          "indexed": false,
          "internalType": "uint256",
          "name": "value",
          "type": "uint256"
        }
      ],
      "name": "Transfer",
      "type": "event"
    },
    {
      "inputs": [
        {
          "internalType": "address",
          "name": "owner",
          "type": "address"
        },
        {
          "internalType": "address",
          "name": "spender",
          "type": "address"
        }
      ],
      "name": "allowance",
      "outputs": [
        {
          "internalType": "uint256",
          "name": "",
          "type": "uint256"
        }
      ],
      "stateMutability": "view",
      "type": "function"
    },
    {
      "inputs": [
        {
          "internalType": "address",
          "name": "spender",
          "type": "address"
        },
        {
          "internalType": "uint256",
          "name": "amount",
          "type": "uint256"
        }
      ],
      "name": "approve",
      "outputs": [
        {
          "internalType": "bool",
          "name": "",
          "type": "bool"
        }
      ],
      "stateMutability": "nonpayable",
      "type": "function"
    },
    {
      "inputs": [
        {
          "internalType": "address",
          "name": "account",
          "type": "address"
        }
      ],
      "name": "balanceOf",
      "outputs": [
        {
          "internalType": "uint256",
          "name": "",
          "type": "uint256"
        }
      ],
      "stateMutability": "view",
      "type": "function"
    },
    {
      "inputs": [],
      "name": "decimals",
      "outputs": [
        {
          "internalType": "uint8",
          "name": "",
          "type": "uint8"
        }
      ],
      "stateMutability": "view",
      "type": "function"
    },
    {
      "inputs": [
        {
          "internalType": "address",
          "name": "spender",
          "type": "address"
        },
        {
          "internalType": "uint256",
          "name": "subtractedValue",
          "type": "uint256"
        }
      ],
      "name": "decreaseAllowance",
      "outputs": [
        {
          "internalType": "bool",
          "name": "",
          "type": "bool"
        }
      ],
      "stateMutability": "nonpayable",
      "type": "function"
    },
    {
      "inputs": [],
      "name": "getBal",
      "outputs": [
        {
          "internalType": "uint256",
          "name": "",
          "type": "uint256"
        }
      ],
      "stateMutability": "view",
      "type": "function"
    },
    {
      "inputs": [],
      "name": "getCirculatingSupply",
      "outputs": [
        {
          "internalType": "uint256",
          "name": "",
          "type": "uint256"
        }
      ],
      "stateMutability": "view",
      "type": "function"
    },
    {
      "inputs": [],
      "name": "getExchangeRate",
      "outputs": [
        {
          "internalType": "uint256",
          "name": "",
          "type": "uint256"
        }
      ],
      "stateMutability": "view",
      "type": "function"
    },
    {
      "inputs": [
        {
          "internalType": "address",
          "name": "spender",
          "type": "address"
        },
        {
          "internalType": "uint256",
          "name": "addedValue",
          "type": "uint256"
        }
      ],
      "name": "increaseAllowance",
      "outputs": [
        {
          "internalType": "bool",
          "name": "",
          "type": "bool"
        }
      ],
      "stateMutability": "nonpayable",
      "type": "function"
    },
    {
      "inputs": [
        {
          "internalType": "string",
          "name": "name_",
          "type": "string"
        },
        {
          "internalType": "string",
          "name": "symbol_",
          "type": "string"
        },
        {
          "internalType": "address",
          "name": "ozDiamond_",
          "type": "address"
        },
        {
          "internalType": "uint256",
          "name": "totalSupply_",
          "type": "uint256"
        },
        {
          "internalType": "uint256",
          "name": "communityAmount_",
          "type": "uint256"
        }
      ],
      "name": "initialize",
      "outputs": [],
      "stateMutability": "nonpayable",
      "type": "function"
    },
    {
      "inputs": [],
      "name": "name",
      "outputs": [
        {
          "internalType": "string",
          "name": "",
          "type": "string"
        }
      ],
      "stateMutability": "view",
      "type": "function"
    },
    {
      "inputs": [],
      "name": "symbol",
      "outputs": [
        {
          "internalType": "string",
          "name": "",
          "type": "string"
        }
      ],
      "stateMutability": "view",
      "type": "function"
    },
    {
      "inputs": [],
      "name": "totalSupply",
      "outputs": [
        {
          "internalType": "uint256",
          "name": "",
          "type": "uint256"
        }
      ],
      "stateMutability": "view",
      "type": "function"
    },
    {
      "inputs": [
        {
          "internalType": "address",
          "name": "to",
          "type": "address"
        },
        {
          "internalType": "uint256",
          "name": "amount",
          "type": "uint256"
        }
      ],
      "name": "transfer",
      "outputs": [
        {
          "internalType": "bool",
          "name": "",
          "type": "bool"
        }
      ],
      "stateMutability": "nonpayable",
      "type": "function"
    },
    {
      "inputs": [
        {
          "internalType": "address",
          "name": "from",
          "type": "address"
        },
        {
          "internalType": "address",
          "name": "to",
          "type": "address"
        },
        {
          "internalType": "uint256",
          "name": "amount",
          "type": "uint256"
        }
      ],
      "name": "transferFrom",
      "outputs": [
        {
          "internalType": "bool",
          "name": "",
          "type": "bool"
        }
      ],
      "stateMutability": "nonpayable",
      "type": "function"
    }
  ],
  "bytecode": {
    "object": "0x608060405234801561001057600080fd5b5061001961001e565b6100de565b600054610100900460ff161561008a5760405162461bcd60e51b815260206004820152602760248201527f496e697469616c697a61626c653a20636f6e747261637420697320696e697469604482015266616c697a696e6760c81b606482015260840160405180910390fd5b60005460ff90811610156100dc576000805460ff191660ff9081179091556040519081527f7f26b83ff96e1f2b6a682f133852f6798a09c465da95921460cefb38474024989060200160405180910390a15b565b611136806100ed6000396000f3fe608060405234801561001057600080fd5b50600436106100f55760003560e01c80633950935111610097578063a457c2d711610066578063a457c2d7146101d8578063a9059cbb146101eb578063dd62ed3e146101fe578063e6aa216c1461021157600080fd5b8063395093511461017f57806370a082311461019257806374823132146101bb57806395d89b41146101d057600080fd5b806323b872dd116100d357806323b872dd1461014d57806325caa262146101605780632b112e4914610168578063313ce5671461017057600080fd5b806306fdde03146100fa578063095ea7b31461011857806318160ddd1461013b575b600080fd5b610102610219565b60405161010f9190610cf0565b60405180910390f35b61012b610126366004610d21565b6102ab565b604051901515815260200161010f565b6035545b60405190815260200161010f565b61012b61015b366004610d4b565b6102c5565b61013f6102e9565b61013f6103a7565b6040516012815260200161010f565b61012b61018d366004610d21565b610450565b61013f6101a0366004610d87565b6001600160a01b031660009081526033602052604090205490565b6101ce6101c9366004610e45565b610472565b005b6101026105f1565b61012b6101e6366004610d21565b610600565b61012b6101f9366004610d21565b61067b565b61013f61020c366004610ecb565b610689565b61013f6106b4565b60606036805461022890610efe565b80601f016020809104026020016040519081016040528092919081815260200182805461025490610efe565b80156102a15780601f10610276576101008083540402835291602001916102a1565b820191906000526020600020905b81548152906001019060200180831161028457829003601f168201915b5050505050905090565b6000336102b9818585610761565b60019150505b92915050565b6000336102d3858285610885565b6102de8585856108ff565b506001949350505050565b6040516370a0823160e01b8152306004820152600090819073ae78736cd615f374d3085123a210448e74fc6393906370a0823190602401602060405180830381865afa15801561033d573d6000803e3d6000fd5b505050506040513d601f19601f820116820180604052508101906103619190610f38565b90506103a26040518060400160405280601a81526020017f724554482062616c202866726f6d206665657329202a2a2a3a2000000000000081525082610acd565b919050565b6000806103db6103d860017f86ce1ea4932afb23386a483af3bf37658d9a562b0cc91e2c799fcb236cb30d57610f67565b90565b5460408051630f26c26360e11b815290516001600160a01b0390921692508291631e4d84c6916004808201926020929091908290030181865afa158015610426573d6000803e3d6000fd5b505050506040513d601f19601f8201168201806040525081019061044a9190610f38565b91505090565b6000336102b98185856104638383610689565b61046d9190610f7a565b610761565b600054610100900460ff16158080156104925750600054600160ff909116105b806104ac5750303b1580156104ac575060005460ff166001145b6105145760405162461bcd60e51b815260206004820152602e60248201527f496e697469616c697a61626c653a20636f6e747261637420697320616c72656160448201526d191e481a5b9a5d1a585b1a5e995960921b60648201526084015b60405180910390fd5b6000805460ff191660011790558015610537576000805461ff0019166101001790555b6105418686610b16565b836105706103d860017f86ce1ea4932afb23386a483af3bf37658d9a562b0cc91e2c799fcb236cb30d57610f67565b80546001600160a01b0319166001600160a01b03929092169190911790556105983084610b47565b6105a33085846108ff565b80156105e9576000805461ff0019169055604051600181527f7f26b83ff96e1f2b6a682f133852f6798a09c465da95921460cefb38474024989060200160405180910390a15b505050505050565b60606037805461022890610efe565b6000338161060e8286610689565b90508381101561066e5760405162461bcd60e51b815260206004820152602560248201527f45524332303a2064656372656173656420616c6c6f77616e63652062656c6f77604482015264207a65726f60d81b606482015260840161050b565b6102de8286868403610761565b6000336102b98185856108ff565b6001600160a01b03918216600090815260346020908152604080832093909416825291909152205490565b6040516370a0823160e01b8152306004820152600090600190829073ae78736cd615f374d3085123a210448e74fc6393906370a0823190602401602060405180830381865afa15801561070b573d6000803e3d6000fd5b505050506040513d601f19601f8201168201806040525081019061072f9190610f38565b9050600061073c60355490565b90508060000361074e57509092915050565b610759838383610c26565b935050505090565b6001600160a01b0383166107c35760405162461bcd60e51b8152602060048201526024808201527f45524332303a20617070726f76652066726f6d20746865207a65726f206164646044820152637265737360e01b606482015260840161050b565b6001600160a01b0382166108245760405162461bcd60e51b815260206004820152602260248201527f45524332303a20617070726f766520746f20746865207a65726f206164647265604482015261737360f01b606482015260840161050b565b6001600160a01b0383811660008181526034602090815260408083209487168084529482529182902085905590518481527f8c5be1e5ebec7d5bd14f71427d1e84f3dd0314c0f7b2291e5b200ac8c7c3b925910160405180910390a3505050565b60006108918484610689565b905060001981146108f957818110156108ec5760405162461bcd60e51b815260206004820152601d60248201527f45524332303a20696e73756666696369656e7420616c6c6f77616e6365000000604482015260640161050b565b6108f98484848403610761565b50505050565b6001600160a01b0383166109635760405162461bcd60e51b815260206004820152602560248201527f45524332303a207472616e736665722066726f6d20746865207a65726f206164604482015264647265737360d81b606482015260840161050b565b6001600160a01b0382166109c55760405162461bcd60e51b815260206004820152602360248201527f45524332303a207472616e7366657220746f20746865207a65726f206164647260448201526265737360e81b606482015260840161050b565b6001600160a01b03831660009081526033602052604090205481811015610a3d5760405162461bcd60e51b815260206004820152602660248201527f45524332303a207472616e7366657220616d6f756e7420657863656564732062604482015265616c616e636560d01b606482015260840161050b565b6001600160a01b03808516600090815260336020526040808220858503905591851681529081208054849290610a74908490610f7a565b92505081905550826001600160a01b0316846001600160a01b03167fddf252ad1be2c89b69c2b068fc378daa952ba7f163c4a11628f55a4df523b3ef84604051610ac091815260200190565b60405180910390a36108f9565b610b128282604051602401610ae3929190610f8d565b60408051601f198184030181529190526020810180516001600160e01b03166309710a9d60e41b179052610c49565b5050565b600054610100900460ff16610b3d5760405162461bcd60e51b815260040161050b90610faf565b610b128282610c6a565b6001600160a01b038216610b9d5760405162461bcd60e51b815260206004820152601f60248201527f45524332303a206d696e7420746f20746865207a65726f206164647265737300604482015260640161050b565b8060356000828254610baf9190610f7a565b90915550506001600160a01b03821660009081526033602052604081208054839290610bdc908490610f7a565b90915550506040518181526001600160a01b038316906000907fddf252ad1be2c89b69c2b068fc378daa952ba7f163c4a11628f55a4df523b3ef9060200160405180910390a35050565b6000826000190484118302158202610c3d57600080fd5b5091020490565b505050565b80516a636f6e736f6c652e6c6f67602083016000808483855afa5050505050565b600054610100900460ff16610c915760405162461bcd60e51b815260040161050b90610faf565b6036610c9d8382611040565b506037610c448282611040565b6000815180845260005b81811015610cd057602081850181015186830182015201610cb4565b506000602082860101526020601f19601f83011685010191505092915050565b602081526000610d036020830184610caa565b9392505050565b80356001600160a01b03811681146103a257600080fd5b60008060408385031215610d3457600080fd5b610d3d83610d0a565b946020939093013593505050565b600080600060608486031215610d6057600080fd5b610d6984610d0a565b9250610d7760208501610d0a565b9150604084013590509250925092565b600060208284031215610d9957600080fd5b610d0382610d0a565b634e487b7160e01b600052604160045260246000fd5b600082601f830112610dc957600080fd5b813567ffffffffffffffff80821115610de457610de4610da2565b604051601f8301601f19908116603f01168101908282118183101715610e0c57610e0c610da2565b81604052838152866020858801011115610e2557600080fd5b836020870160208301376000602085830101528094505050505092915050565b600080600080600060a08688031215610e5d57600080fd5b853567ffffffffffffffff80821115610e7557600080fd5b610e8189838a01610db8565b96506020880135915080821115610e9757600080fd5b50610ea488828901610db8565b945050610eb360408701610d0a565b94979396509394606081013594506080013592915050565b60008060408385031215610ede57600080fd5b610ee783610d0a565b9150610ef560208401610d0a565b90509250929050565b600181811c90821680610f1257607f821691505b602082108103610f3257634e487b7160e01b600052602260045260246000fd5b50919050565b600060208284031215610f4a57600080fd5b5051919050565b634e487b7160e01b600052601160045260246000fd5b818103818111156102bf576102bf610f51565b808201808211156102bf576102bf610f51565b604081526000610fa06040830185610caa565b90508260208301529392505050565b6020808252602b908201527f496e697469616c697a61626c653a20636f6e7472616374206973206e6f74206960408201526a6e697469616c697a696e6760a81b606082015260800190565b601f821115610c4457600081815260208120601f850160051c810160208610156110215750805b601f850160051c820191505b818110156105e95782815560010161102d565b815167ffffffffffffffff81111561105a5761105a610da2565b61106e816110688454610efe565b84610ffa565b602080601f8311600181146110a3576000841561108b5750858301515b600019600386901b1c1916600185901b1785556105e9565b600085815260208120601f198616915b828110156110d2578886015182559484019460019091019084016110b3565b50858210156110f05787850151600019600388901b60f8161c191681555b5050505050600190811b0190555056fea2646970667358221220eb7f9e58de702b9129d07fd2cabd2ea9c6477319308ac8764e174b213b58f19164736f6c63430008150033",
    "linkReferences": {}
  },
  "methodIdentifiers": {
    "allowance(address,address)": "dd62ed3e",
    "approve(address,uint256)": "095ea7b3",
    "balanceOf(address)": "70a08231",
    "decimals()": "313ce567",
    "decreaseAllowance(address,uint256)": "a457c2d7",
    "getBal()": "25caa262",
    "getCirculatingSupply()": "2b112e49",
    "getExchangeRate()": "e6aa216c",
    "increaseAllowance(address,uint256)": "39509351",
    "initialize(string,string,address,uint256,uint256)": "74823132",
    "name()": "06fdde03",
    "symbol()": "95d89b41",
    "totalSupply()": "18160ddd",
    "transfer(address,uint256)": "a9059cbb",
    "transferFrom(address,address,uint256)": "23b872dd"
  },
  "id": 4
}