{
  "abi": [
    {
      "inputs": [],
      "stateMutability": "nonpayable",
      "type": "constructor"
    },
    {
      "inputs": [
        {
          "internalType": "uint256",
          "name": "deadline",
          "type": "uint256"
        },
        {
          "internalType": "uint256",
          "name": "blockTimestamp",
          "type": "uint256"
        }
      ],
      "name": "OZError08",
      "type": "error"
    },
    {
      "inputs": [
        {
          "internalType": "address",
          "name": "owner",
          "type": "address"
        },
        {
          "internalType": "address",
          "name": "spender",
          "type": "address"
        }
      ],
      "name": "OZError09",
      "type": "error"
    },
    {
      "inputs": [
        {
          "internalType": "address",
          "name": "tokenOut",
          "type": "address"
        }
      ],
      "name": "OZError18",
      "type": "error"
    },
    {
      "inputs": [
        {
          "internalType": "uint256",
          "name": "amount",
          "type": "uint256"
        }
      ],
      "name": "OZError19",
      "type": "error"
    },
    {
      "anonymous": false,
      "inputs": [
        {
          "indexed": true,
          "internalType": "address",
          "name": "owner",
          "type": "address"
        },
        {
          "indexed": true,
          "internalType": "address",
          "name": "spender",
          "type": "address"
        },
        {
          "indexed": false,
          "internalType": "uint256",
          "name": "value",
          "type": "uint256"
        }
      ],
      "name": "Approval",
      "type": "event"
    },
    {
      "anonymous": false,
      "inputs": [
        {
          "indexed": false,
          "internalType": "uint8",
          "name": "version",
          "type": "uint8"
        }
      ],
      "name": "Initialized",
      "type": "event"
    },
    {
      "anonymous": false,
      "inputs": [
        {
          "indexed": true,
          "internalType": "address",
          "name": "from",
          "type": "address"
        },
        {
          "indexed": true,
          "internalType": "address",
          "name": "to",
          "type": "address"
        },
        {
          "indexed": false,
          "internalType": "uint256",
          "name": "value",
          "type": "uint256"
        }
      ],
      "name": "Transfer",
      "type": "event"
    },
    {
      "inputs": [],
      "name": "DOMAIN_SEPARATOR",
      "outputs": [
        {
          "internalType": "bytes32",
          "name": "",
          "type": "bytes32"
        }
      ],
      "stateMutability": "view",
      "type": "function"
    },
    {
      "inputs": [
        {
          "internalType": "address",
          "name": "owner",
          "type": "address"
        },
        {
          "internalType": "address",
          "name": "spender",
          "type": "address"
        }
      ],
      "name": "allowance",
      "outputs": [
        {
          "internalType": "uint256",
          "name": "",
          "type": "uint256"
        }
      ],
      "stateMutability": "view",
      "type": "function"
    },
    {
      "inputs": [
        {
          "internalType": "address",
          "name": "spender",
          "type": "address"
        },
        {
          "internalType": "uint256",
          "name": "amount",
          "type": "uint256"
        }
      ],
      "name": "approve",
      "outputs": [
        {
          "internalType": "bool",
          "name": "",
          "type": "bool"
        }
      ],
      "stateMutability": "nonpayable",
      "type": "function"
    },
    {
      "inputs": [
        {
          "internalType": "address",
          "name": "account",
          "type": "address"
        }
      ],
      "name": "balanceOf",
      "outputs": [
        {
          "internalType": "uint256",
          "name": "",
          "type": "uint256"
        }
      ],
      "stateMutability": "view",
      "type": "function"
    },
    {
      "inputs": [],
      "name": "circulatingSupply",
      "outputs": [
        {
          "internalType": "uint256",
          "name": "",
          "type": "uint256"
        }
      ],
      "stateMutability": "view",
      "type": "function"
    },
    {
      "inputs": [],
      "name": "decimals",
      "outputs": [
        {
          "internalType": "uint8",
          "name": "",
          "type": "uint8"
        }
      ],
      "stateMutability": "view",
      "type": "function"
    },
    {
      "inputs": [
        {
          "internalType": "address",
          "name": "spender",
          "type": "address"
        },
        {
          "internalType": "uint256",
          "name": "subtractedValue",
          "type": "uint256"
        }
      ],
      "name": "decreaseAllowance",
      "outputs": [
        {
          "internalType": "bool",
          "name": "",
          "type": "bool"
        }
      ],
      "stateMutability": "nonpayable",
      "type": "function"
    },
    {
      "inputs": [
        {
          "internalType": "enum QuoteAsset",
          "name": "asset_",
          "type": "uint8"
        }
      ],
      "name": "getExchangeRate",
      "outputs": [
        {
          "internalType": "uint256",
          "name": "",
          "type": "uint256"
        }
      ],
      "stateMutability": "view",
      "type": "function"
    },
    {
      "inputs": [],
      "name": "getExchangeRate",
      "outputs": [
        {
          "internalType": "uint256",
          "name": "",
          "type": "uint256"
        }
      ],
      "stateMutability": "view",
      "type": "function"
    },
    {
      "inputs": [],
      "name": "getOZ",
      "outputs": [
        {
          "internalType": "contract ozIDiamond",
          "name": "",
          "type": "address"
        }
      ],
      "stateMutability": "view",
      "type": "function"
    },
    {
      "inputs": [
        {
          "internalType": "address",
          "name": "spender",
          "type": "address"
        },
        {
          "internalType": "uint256",
          "name": "addedValue",
          "type": "uint256"
        }
      ],
      "name": "increaseAllowance",
      "outputs": [
        {
          "internalType": "bool",
          "name": "",
          "type": "bool"
        }
      ],
      "stateMutability": "nonpayable",
      "type": "function"
    },
    {
      "inputs": [
        {
          "internalType": "string",
          "name": "name_",
          "type": "string"
        },
        {
          "internalType": "string",
          "name": "symbol_",
          "type": "string"
        },
        {
          "internalType": "address",
          "name": "ozDiamond_",
          "type": "address"
        },
        {
          "internalType": "uint256",
          "name": "totalSupply_",
          "type": "uint256"
        },
        {
          "internalType": "uint256",
          "name": "communityAmount_",
          "type": "uint256"
        }
      ],
      "name": "initialize",
      "outputs": [],
      "stateMutability": "nonpayable",
      "type": "function"
    },
    {
      "inputs": [],
      "name": "name",
      "outputs": [
        {
          "internalType": "string",
          "name": "",
          "type": "string"
        }
      ],
      "stateMutability": "view",
      "type": "function"
    },
    {
      "inputs": [
        {
          "internalType": "address",
          "name": "owner",
          "type": "address"
        }
      ],
      "name": "nonces",
      "outputs": [
        {
          "internalType": "uint256",
          "name": "",
          "type": "uint256"
        }
      ],
      "stateMutability": "view",
      "type": "function"
    },
    {
      "inputs": [
        {
          "internalType": "address",
          "name": "owner",
          "type": "address"
        },
        {
          "internalType": "address",
          "name": "spender",
          "type": "address"
        },
        {
          "internalType": "uint256",
          "name": "value",
          "type": "uint256"
        },
        {
          "internalType": "uint256",
          "name": "deadline",
          "type": "uint256"
        },
        {
          "internalType": "uint8",
          "name": "v",
          "type": "uint8"
        },
        {
          "internalType": "bytes32",
          "name": "r",
          "type": "bytes32"
        },
        {
          "internalType": "bytes32",
          "name": "s_",
          "type": "bytes32"
        }
      ],
      "name": "permit",
      "outputs": [],
      "stateMutability": "nonpayable",
      "type": "function"
    },
    {
      "inputs": [],
      "name": "recicledSupply",
      "outputs": [
        {
          "internalType": "uint256",
          "name": "",
          "type": "uint256"
        }
      ],
      "stateMutability": "view",
      "type": "function"
    },
    {
      "inputs": [
        {
          "internalType": "address",
          "name": "owner_",
          "type": "address"
        },
        {
          "internalType": "address",
          "name": "receiver_",
          "type": "address"
        },
        {
          "internalType": "address",
          "name": "tokenOut_",
          "type": "address"
        },
        {
          "internalType": "uint256",
          "name": "ozlAmountIn_",
          "type": "uint256"
        },
        {
          "internalType": "uint256[]",
          "name": "minAmountsOut_",
          "type": "uint256[]"
        }
      ],
      "name": "redeem",
      "outputs": [
        {
          "internalType": "uint256",
          "name": "amountOut",
          "type": "uint256"
        }
      ],
      "stateMutability": "nonpayable",
      "type": "function"
    },
    {
      "inputs": [],
      "name": "symbol",
      "outputs": [
        {
          "internalType": "string",
          "name": "",
          "type": "string"
        }
      ],
      "stateMutability": "view",
      "type": "function"
    },
    {
      "inputs": [],
      "name": "totalSupply",
      "outputs": [
        {
          "internalType": "uint256",
          "name": "",
          "type": "uint256"
        }
      ],
      "stateMutability": "view",
      "type": "function"
    },
    {
      "inputs": [
        {
          "internalType": "address",
          "name": "to",
          "type": "address"
        },
        {
          "internalType": "uint256",
          "name": "amount",
          "type": "uint256"
        }
      ],
      "name": "transfer",
      "outputs": [
        {
          "internalType": "bool",
          "name": "",
          "type": "bool"
        }
      ],
      "stateMutability": "nonpayable",
      "type": "function"
    },
    {
      "inputs": [
        {
          "internalType": "address",
          "name": "from",
          "type": "address"
        },
        {
          "internalType": "address",
          "name": "to",
          "type": "address"
        },
        {
          "internalType": "uint256",
          "name": "amount",
          "type": "uint256"
        }
      ],
      "name": "transferFrom",
      "outputs": [
        {
          "internalType": "bool",
          "name": "",
          "type": "bool"
        }
      ],
      "stateMutability": "nonpayable",
      "type": "function"
    }
  ],
  "bytecode": {
    "object": "0x608060405234801561001057600080fd5b5061001961001e565b6100de565b600054610100900460ff161561008a5760405162461bcd60e51b815260206004820152602760248201527f496e697469616c697a61626c653a20636f6e747261637420697320696e697469604482015266616c697a696e6760c81b606482015260840160405180910390fd5b60005460ff90811610156100dc576000805460ff191660ff9081179091556040519081527f7f26b83ff96e1f2b6a682f133852f6798a09c465da95921460cefb38474024989060200160405180910390a15b565b6121cb80620000ee6000396000f3fe608060405234801561001057600080fd5b50600436106101375760003560e01c806370a08231116100b857806395d89b411161007c57806395d89b4114610273578063a457c2d71461027b578063a9059cbb1461028e578063d505accf146102a1578063dd62ed3e146102b4578063e6aa216c146102c757600080fd5b806370a0823114610212578063748231321461023b5780637ecebe00146102505780638b5f1a6b146102635780639358928b1461026b57600080fd5b80633644e515116100ff5780633644e515146101b157806339509351146101b95780634d02a3f7146101cc57806359c64e12146101df5780636afa0287146101ff57600080fd5b806306fdde031461013c578063095ea7b31461015a57806318160ddd1461017d57806323b872dd1461018f578063313ce567146101a2575b600080fd5b6101446102cf565b6040516101519190611a32565b60405180910390f35b61016d610168366004611a5a565b610361565b6040519015158152602001610151565b6035545b604051908152602001610151565b61016d61019d366004611a86565b61037b565b60405160128152602001610151565b61018161039f565b61016d6101c7366004611a5a565b6103ae565b6101816101da366004611ac7565b6103d0565b6101e761053d565b6040516001600160a01b039091168152602001610151565b61018161020d366004611b53565b61057f565b610181610220366004611c2d565b6001600160a01b031660009081526033602052604090205490565b61024e610249366004611cba565b61089e565b005b61018161025e366004611c2d565b610a3b565b610181610a59565b610181610ac4565b610144610b0b565b61016d610289366004611a5a565b610b1a565b61016d61029c366004611a5a565b610b95565b61024e6102af366004611d42565b610ba3565b6101816102c2366004611db9565b610cc5565b610181610cf0565b6060603680546102de90611df2565b80601f016020809104026020016040519081016040528092919081815260200182805461030a90611df2565b80156103575780601f1061032c57610100808354040283529160200191610357565b820191906000526020600020905b81548152906001019060200180831161033a57829003601f168201915b5050505050905090565b60003361036f818585610cfc565b60019150505b92915050565b600033610389858285610e20565b610394858585610e9a565b506001949350505050565b60006103a9611068565b905090565b60003361036f8185856103c18383610cc5565b6103cb9190611e3c565b610cfc565b6040516370a0823160e01b8152306004820152600090670de0b6b3a764000090829073ae78736cd615f374d3085123a210448e74fc6393906370a0823190602401602060405180830381865afa15801561042e573d6000803e3d6000fd5b505050506040513d601f19601f820116820180604052508101906104529190611e4f565b90506000600285600281111561046a5761046a611e68565b1461047e5761047985836110e3565b610480565b815b9050600061048c610ac4565b9050806000036104a0575091949350505050565b6104d16040518060400160405280600f81526020016e03a37ba30b62332b2b9a922aa241d1608d1b81525084611200565b6105036040518060400160405280601081526020016f03a37ba30b62332b2b9a8bab7ba329d160851b81525083611200565b610528604051806040016040528060048152602001632d2d2d2d60e01b815250611249565b61053384838361128f565b9695505050505050565b600061057061056d60017f86ce1ea4932afb23386a483af3bf37658d9a562b0cc91e2c799fcb236cb30d57611e7e565b90565b546001600160a01b0316919050565b60008061058a61053d565b905060006105966112ad565b60405163423f0b9160e01b81526001600160a01b03888116600483015291925060009184169063423f0b9190602401602060405180830381865afa1580156105e2573d6000803e3d6000fd5b505050506040513d601f19601f820116820180604052508101906106069190611e91565b6001600160a01b031614801561062557506000610623828861131c565b125b156106535760405163d74ef47560e01b81526001600160a01b03871660048201526024015b60405180910390fd5b336001600160a01b0389161461066e5761066e883387610e20565b600061068d61067d60026103d0565b8790670de0b6b3a764000061128f565b604051631567339f60e31b81526001600160a01b038b81166004830152306024830152604482018990529192509084169063ab399cf890606401600060405180830381600087803b1580156106e157600080fd5b505af11580156106f5573d6000803e3d6000fd5b505050508160008151811061070c5761070c611eae565b60200260200101516001600160a01b0316876001600160a01b03160361081a578460008151811061073f5761073f611eae565b602002602001015181101561076a57604051631aa1e78f60e31b81526004810182905260240161064a565b826001600160a01b031663dde5543b8360008151811061078c5761078c611eae565b60209081029190910101516040516001600160e01b031960e084901b1681526001600160a01b039182166004820152908b166024820152604481018490526064016020604051808303816000875af11580156107ec573d6000803e3d6000fd5b505050506040513d601f19601f820116820180604052508101906108109190611e4f565b9350505050610895565b60405163094463e760e01b81526001600160a01b0384169063094463e79061084c908a908c9086908b90600401611ec4565b6020604051808303816000875af115801561086b573d6000803e3d6000fd5b505050506040513d601f19601f8201168201806040525081019061088f9190611e4f565b93505050505b95945050505050565b600054610100900460ff16158080156108be5750600054600160ff909116105b806108d85750303b1580156108d8575060005460ff166001145b61093b5760405162461bcd60e51b815260206004820152602e60248201527f496e697469616c697a61626c653a20636f6e747261637420697320616c72656160448201526d191e481a5b9a5d1a585b1a5e995960921b606482015260840161064a565b6000805460ff19166001179055801561095e576000805461ff0019166101001790555b6109688686611384565b61098b86604051806040016040528060018152602001603160f81b8152506113b5565b836109ba61056d60017f86ce1ea4932afb23386a483af3bf37658d9a562b0cc91e2c799fcb236cb30d57611e7e565b80546001600160a01b0319166001600160a01b03929092169190911790556109e230846113e6565b6109ed308584610e9a565b8015610a33576000805461ff0019169055604051600181527f7f26b83ff96e1f2b6a682f133852f6798a09c465da95921460cefb38474024989060200160405180910390a15b505050505050565b6001600160a01b038116600090815260996020526040812054610375565b6000610a6361053d565b6001600160a01b0316636a533a4c6040518163ffffffff1660e01b8152600401602060405180830381865afa158015610aa0573d6000803e3d6000fd5b505050506040513d601f19601f820116820180604052508101906103a99190611e4f565b6000610ace61053d565b6001600160a01b0316632b112e496040518163ffffffff1660e01b8152600401602060405180830381865afa158015610aa0573d6000803e3d6000fd5b6060603780546102de90611df2565b60003381610b288286610cc5565b905083811015610b885760405162461bcd60e51b815260206004820152602560248201527f45524332303a2064656372656173656420616c6c6f77616e63652062656c6f77604482015264207a65726f60d81b606482015260840161064a565b6103948286868403610cfc565b60003361036f818585610e9a565b83421115610bcd5760405163184f1e0160e11b81526004810185905242602482015260440161064a565b60007f6e71edae12b1b97f4d1f60370fef10105fa2faae0126114a169c64845d6126c9888888610bfc8c6114c5565b6040805160208101969096526001600160a01b0394851690860152929091166060840152608083015260a082015260c0810186905260e0016040516020818303038152906040528051906020012090506000610c57826114ed565b90506000610c678287878761153b565b9050896001600160a01b0316816001600160a01b031614610cae57604051635091bef560e01b81526001600160a01b0380831660048301528b16602482015260440161064a565b610cb98a8a8a610cfc565b50505050505050505050565b6001600160a01b03918216600090815260346020908152604080832093909416825291909152205490565b60006103a960006103d0565b6001600160a01b038316610d5e5760405162461bcd60e51b8152602060048201526024808201527f45524332303a20617070726f76652066726f6d20746865207a65726f206164646044820152637265737360e01b606482015260840161064a565b6001600160a01b038216610dbf5760405162461bcd60e51b815260206004820152602260248201527f45524332303a20617070726f766520746f20746865207a65726f206164647265604482015261737360f01b606482015260840161064a565b6001600160a01b0383811660008181526034602090815260408083209487168084529482529182902085905590518481527f8c5be1e5ebec7d5bd14f71427d1e84f3dd0314c0f7b2291e5b200ac8c7c3b925910160405180910390a3505050565b6000610e2c8484610cc5565b90506000198114610e945781811015610e875760405162461bcd60e51b815260206004820152601d60248201527f45524332303a20696e73756666696369656e7420616c6c6f77616e6365000000604482015260640161064a565b610e948484848403610cfc565b50505050565b6001600160a01b038316610efe5760405162461bcd60e51b815260206004820152602560248201527f45524332303a207472616e736665722066726f6d20746865207a65726f206164604482015264647265737360d81b606482015260840161064a565b6001600160a01b038216610f605760405162461bcd60e51b815260206004820152602360248201527f45524332303a207472616e7366657220746f20746865207a65726f206164647260448201526265737360e81b606482015260840161064a565b6001600160a01b03831660009081526033602052604090205481811015610fd85760405162461bcd60e51b815260206004820152602660248201527f45524332303a207472616e7366657220616d6f756e7420657863656564732062604482015265616c616e636560d01b606482015260840161064a565b6001600160a01b0380851660009081526033602052604080822085850390559185168152908120805484929061100f908490611e3c565b92505081905550826001600160a01b0316846001600160a01b03167fddf252ad1be2c89b69c2b068fc378daa952ba7f163c4a11628f55a4df523b3ef8460405161105b91815260200190565b60405180910390a3610e94565b60006103a97f8b73c3c69bb8fe3d512ecc4cf759cc79239f7b179b0ffacaa9a75d522b39400f61109760655490565b6066546040805160208101859052908101839052606081018290524660808201523060a082015260009060c0016040516020818303038152906040528051906020012090509392505050565b6000808360028111156110f8576110f8611e68565b036111805761117961110861053d565b6001600160a01b031663f424c4ba6040518163ffffffff1660e01b8152600401602060405180830381865afa158015611145573d6000803e3d6000fd5b505050506040513d601f19601f820116820180604052508101906111699190611e4f565b8390670de0b6b3a764000061128f565b9050610375565b600183600281111561119457611194611e68565b03610375576040805160048152602481019091526020810180516001600160e01b0316636a57db9d60e11b1790526111d36111cd61053d565b8261156a565b90506000818060200190518101906111eb9190611e4f565b90506108958482670de0b6b3a764000061128f565b6112458282604051602401611216929190611f2e565b60408051601f198184030181529190526020810180516001600160e01b03166309710a9d60e41b179052611596565b5050565b61128c8160405160240161125d9190611a32565b60408051601f198184030181529190526020810180516001600160e01b031663104c13eb60e21b179052611596565b50565b60008260001904841183021582026112a657600080fd5b5091020490565b60606112b761053d565b6001600160a01b03166338ab35d46040518163ffffffff1660e01b8152600401600060405180830381865afa1580156112f4573d6000803e3d6000fd5b505050506040513d6000823e601f3d908101601f191682016040526103a99190810190611f50565b8151600090815b8181101561137857836001600160a01b031685828151811061134757611347611eae565b60200260200101516001600160a01b0316036113665791506103759050565b8061137081611fea565b915050611323565b50600019949350505050565b600054610100900460ff166113ab5760405162461bcd60e51b815260040161064a90612003565b61124582826115b7565b600054610100900460ff166113dc5760405162461bcd60e51b815260040161064a90612003565b61124582826115f7565b6001600160a01b03821661143c5760405162461bcd60e51b815260206004820152601f60248201527f45524332303a206d696e7420746f20746865207a65726f206164647265737300604482015260640161064a565b806035600082825461144e9190611e3c565b90915550506001600160a01b0382166000908152603360205260408120805483929061147b908490611e3c565b90915550506040518181526001600160a01b038316906000907fddf252ad1be2c89b69c2b068fc378daa952ba7f163c4a11628f55a4df523b3ef9060200160405180910390a35050565b6001600160a01b03811660009081526099602052604090208054600181018255905b50919050565b60006103756114fa611068565b8360405161190160f01b6020820152602281018390526042810182905260009060620160405160208183030381529060405280519060200120905092915050565b600080600061154c87878787611638565b9150915061155981611725565b5090505b949350505050565b505050565b606061158f8383604051806060016040528060258152602001612171602591396118db565b9392505050565b80516a636f6e736f6c652e6c6f67602083016000808483855afa5050505050565b600054610100900460ff166115de5760405162461bcd60e51b815260040161064a90612003565b60366115ea8382612094565b5060376115658282612094565b600054610100900460ff1661161e5760405162461bcd60e51b815260040161064a90612003565b815160209283012081519190920120606591909155606655565b6000807f7fffffffffffffffffffffffffffffff5d576e7357a4501ddfe92f46681b20a083111561166f575060009050600361171c565b8460ff16601b1415801561168757508460ff16601c14155b15611698575060009050600461171c565b6040805160008082526020820180845289905260ff881692820192909252606081018690526080810185905260019060a0016020604051602081039080840390855afa1580156116ec573d6000803e3d6000fd5b5050604051601f1901519150506001600160a01b0381166117155760006001925092505061171c565b9150600090505b94509492505050565b600081600481111561173957611739611e68565b036117415750565b600181600481111561175557611755611e68565b036117a25760405162461bcd60e51b815260206004820152601860248201527f45434453413a20696e76616c6964207369676e61747572650000000000000000604482015260640161064a565b60028160048111156117b6576117b6611e68565b036118035760405162461bcd60e51b815260206004820152601f60248201527f45434453413a20696e76616c6964207369676e6174757265206c656e67746800604482015260640161064a565b600381600481111561181757611817611e68565b0361186f5760405162461bcd60e51b815260206004820152602260248201527f45434453413a20696e76616c6964207369676e6174757265202773272076616c604482015261756560f01b606482015260840161064a565b600481600481111561188357611883611e68565b0361128c5760405162461bcd60e51b815260206004820152602260248201527f45434453413a20696e76616c6964207369676e6174757265202776272076616c604482015261756560f01b606482015260840161064a565b6060600080856001600160a01b0316856040516118f89190612154565b600060405180830381855afa9150503d8060008114611933576040519150601f19603f3d011682016040523d82523d6000602084013e611938565b606091505b509150915061053386838387606083156119b35782516000036119ac576001600160a01b0385163b6119ac5760405162461bcd60e51b815260206004820152601d60248201527f416464726573733a2063616c6c20746f206e6f6e2d636f6e7472616374000000604482015260640161064a565b508161155d565b61155d83838151156119c85781518083602001fd5b8060405162461bcd60e51b815260040161064a9190611a32565b60005b838110156119fd5781810151838201526020016119e5565b50506000910152565b60008151808452611a1e8160208601602086016119e2565b601f01601f19169290920160200192915050565b60208152600061158f6020830184611a06565b6001600160a01b038116811461128c57600080fd5b60008060408385031215611a6d57600080fd5b8235611a7881611a45565b946020939093013593505050565b600080600060608486031215611a9b57600080fd5b8335611aa681611a45565b92506020840135611ab681611a45565b929592945050506040919091013590565b600060208284031215611ad957600080fd5b81356003811061158f57600080fd5b634e487b7160e01b600052604160045260246000fd5b604051601f8201601f1916810167ffffffffffffffff81118282101715611b2757611b27611ae8565b604052919050565b600067ffffffffffffffff821115611b4957611b49611ae8565b5060051b60200190565b600080600080600060a08688031215611b6b57600080fd5b8535611b7681611a45565b9450602086810135611b8781611a45565b94506040870135611b9781611a45565b935060608701359250608087013567ffffffffffffffff811115611bba57600080fd5b8701601f81018913611bcb57600080fd5b8035611bde611bd982611b2f565b611afe565b81815260059190911b8201830190838101908b831115611bfd57600080fd5b928401925b82841015611c1b57833582529284019290840190611c02565b80955050505050509295509295909350565b600060208284031215611c3f57600080fd5b813561158f81611a45565b600082601f830112611c5b57600080fd5b813567ffffffffffffffff811115611c7557611c75611ae8565b611c88601f8201601f1916602001611afe565b818152846020838601011115611c9d57600080fd5b816020850160208301376000918101602001919091529392505050565b600080600080600060a08688031215611cd257600080fd5b853567ffffffffffffffff80821115611cea57600080fd5b611cf689838a01611c4a565b96506020880135915080821115611d0c57600080fd5b50611d1988828901611c4a565b9450506040860135611d2a81611a45565b94979396509394606081013594506080013592915050565b600080600080600080600060e0888a031215611d5d57600080fd5b8735611d6881611a45565b96506020880135611d7881611a45565b95506040880135945060608801359350608088013560ff81168114611d9c57600080fd5b9699959850939692959460a0840135945060c09093013592915050565b60008060408385031215611dcc57600080fd5b8235611dd781611a45565b91506020830135611de781611a45565b809150509250929050565b600181811c90821680611e0657607f821691505b6020821081036114e757634e487b7160e01b600052602260045260246000fd5b634e487b7160e01b600052601160045260246000fd5b8082018082111561037557610375611e26565b600060208284031215611e6157600080fd5b5051919050565b634e487b7160e01b600052602160045260246000fd5b8181038181111561037557610375611e26565b600060208284031215611ea357600080fd5b815161158f81611a45565b634e487b7160e01b600052603260045260246000fd5b6001600160a01b03858116825284166020808301919091526040820184905260806060830181905283519083018190526000918481019160a085019190845b81811015611f1f57845184529382019392820192600101611f03565b50919998505050505050505050565b604081526000611f416040830185611a06565b90508260208301529392505050565b60006020808385031215611f6357600080fd5b825167ffffffffffffffff811115611f7a57600080fd5b8301601f81018513611f8b57600080fd5b8051611f99611bd982611b2f565b81815260059190911b82018301908381019087831115611fb857600080fd5b928401925b82841015611fdf578351611fd081611a45565b82529284019290840190611fbd565b979650505050505050565b600060018201611ffc57611ffc611e26565b5060010190565b6020808252602b908201527f496e697469616c697a61626c653a20636f6e7472616374206973206e6f74206960408201526a6e697469616c697a696e6760a81b606082015260800190565b601f82111561156557600081815260208120601f850160051c810160208610156120755750805b601f850160051c820191505b81811015610a3357828155600101612081565b815167ffffffffffffffff8111156120ae576120ae611ae8565b6120c2816120bc8454611df2565b8461204e565b602080601f8311600181146120f757600084156120df5750858301515b600019600386901b1c1916600185901b178555610a33565b600085815260208120601f198616915b8281101561212657888601518255948401946001909101908401612107565b50858210156121445787850151600019600388901b60f8161c191681555b5050505050600190811b01905550565b600082516121668184602087016119e2565b919091019291505056fe416464726573733a206c6f772d6c6576656c207374617469632063616c6c206661696c6564a264697066735822122019db19c7dd2cdbd6c33194f63221bb72c6e6b7c3df2e9133c9abab0dd64fb18164736f6c63430008150033",
    "linkReferences": {}
  },
  "methodIdentifiers": {
    "DOMAIN_SEPARATOR()": "3644e515",
    "allowance(address,address)": "dd62ed3e",
    "approve(address,uint256)": "095ea7b3",
    "balanceOf(address)": "70a08231",
    "circulatingSupply()": "9358928b",
    "decimals()": "313ce567",
    "decreaseAllowance(address,uint256)": "a457c2d7",
    "getExchangeRate()": "e6aa216c",
    "getExchangeRate(uint8)": "4d02a3f7",
    "getOZ()": "59c64e12",
    "increaseAllowance(address,uint256)": "39509351",
    "initialize(string,string,address,uint256,uint256)": "74823132",
    "name()": "06fdde03",
    "nonces(address)": "7ecebe00",
    "permit(address,address,uint256,uint256,uint8,bytes32,bytes32)": "d505accf",
    "recicledSupply()": "8b5f1a6b",
    "redeem(address,address,address,uint256,uint256[])": "6afa0287",
    "symbol()": "95d89b41",
    "totalSupply()": "18160ddd",
    "transfer(address,uint256)": "a9059cbb",
    "transferFrom(address,address,uint256)": "23b872dd"
  },
  "id": 4
}