{
  "abi": [
    {
      "inputs": [],
      "stateMutability": "nonpayable",
      "type": "constructor"
    },
    {
      "inputs": [
        {
          "internalType": "string",
          "name": "errorMsg",
          "type": "string"
        }
      ],
      "name": "OZError01",
      "type": "error"
    },
    {
      "inputs": [],
      "name": "OZError02",
      "type": "error"
    },
    {
      "inputs": [
        {
          "internalType": "uint256",
          "name": "deadline",
          "type": "uint256"
        },
        {
          "internalType": "uint256",
          "name": "blockTimestamp",
          "type": "uint256"
        }
      ],
      "name": "OZError08",
      "type": "error"
    },
    {
      "inputs": [
        {
          "internalType": "address",
          "name": "owner",
          "type": "address"
        },
        {
          "internalType": "address",
          "name": "spender",
          "type": "address"
        }
      ],
      "name": "OZError09",
      "type": "error"
    },
    {
      "inputs": [
        {
          "internalType": "string",
          "name": "errorCode",
          "type": "string"
        }
      ],
      "name": "OZError10",
      "type": "error"
    },
    {
      "inputs": [
        {
          "internalType": "address",
          "name": "tokenOut",
          "type": "address"
        }
      ],
      "name": "OZError18",
      "type": "error"
    },
    {
      "inputs": [
        {
          "internalType": "uint256",
          "name": "amount",
          "type": "uint256"
        }
      ],
      "name": "OZError19",
      "type": "error"
    },
    {
      "inputs": [],
      "name": "OZError20",
      "type": "error"
    },
    {
      "inputs": [
        {
          "internalType": "string",
          "name": "reason",
          "type": "string"
        }
      ],
      "name": "OZError21",
      "type": "error"
    },
    {
      "anonymous": false,
      "inputs": [
        {
          "indexed": true,
          "internalType": "address",
          "name": "owner",
          "type": "address"
        },
        {
          "indexed": true,
          "internalType": "address",
          "name": "spender",
          "type": "address"
        },
        {
          "indexed": false,
          "internalType": "uint256",
          "name": "value",
          "type": "uint256"
        }
      ],
      "name": "Approval",
      "type": "event"
    },
    {
      "anonymous": false,
      "inputs": [
        {
          "indexed": false,
          "internalType": "uint8",
          "name": "version",
          "type": "uint8"
        }
      ],
      "name": "Initialized",
      "type": "event"
    },
    {
      "anonymous": false,
      "inputs": [
        {
          "indexed": true,
          "internalType": "address",
          "name": "from",
          "type": "address"
        },
        {
          "indexed": true,
          "internalType": "address",
          "name": "to",
          "type": "address"
        },
        {
          "indexed": false,
          "internalType": "uint256",
          "name": "value",
          "type": "uint256"
        }
      ],
      "name": "Transfer",
      "type": "event"
    },
    {
      "inputs": [],
      "name": "DOMAIN_SEPARATOR",
      "outputs": [
        {
          "internalType": "bytes32",
          "name": "",
          "type": "bytes32"
        }
      ],
      "stateMutability": "view",
      "type": "function"
    },
    {
      "inputs": [
        {
          "internalType": "address",
          "name": "owner",
          "type": "address"
        },
        {
          "internalType": "address",
          "name": "spender",
          "type": "address"
        }
      ],
      "name": "allowance",
      "outputs": [
        {
          "internalType": "uint256",
          "name": "",
          "type": "uint256"
        }
      ],
      "stateMutability": "view",
      "type": "function"
    },
    {
      "inputs": [
        {
          "internalType": "address",
          "name": "spender",
          "type": "address"
        },
        {
          "internalType": "uint256",
          "name": "amount",
          "type": "uint256"
        }
      ],
      "name": "approve",
      "outputs": [
        {
          "internalType": "bool",
          "name": "",
          "type": "bool"
        }
      ],
      "stateMutability": "nonpayable",
      "type": "function"
    },
    {
      "inputs": [
        {
          "internalType": "address",
          "name": "account",
          "type": "address"
        }
      ],
      "name": "balanceOf",
      "outputs": [
        {
          "internalType": "uint256",
          "name": "",
          "type": "uint256"
        }
      ],
      "stateMutability": "view",
      "type": "function"
    },
    {
      "inputs": [],
      "name": "circulatingSupply",
      "outputs": [
        {
          "internalType": "uint256",
          "name": "",
          "type": "uint256"
        }
      ],
      "stateMutability": "view",
      "type": "function"
    },
    {
      "inputs": [],
      "name": "decimals",
      "outputs": [
        {
          "internalType": "uint8",
          "name": "",
          "type": "uint8"
        }
      ],
      "stateMutability": "view",
      "type": "function"
    },
    {
      "inputs": [
        {
          "internalType": "address",
          "name": "spender",
          "type": "address"
        },
        {
          "internalType": "uint256",
          "name": "subtractedValue",
          "type": "uint256"
        }
      ],
      "name": "decreaseAllowance",
      "outputs": [
        {
          "internalType": "bool",
          "name": "",
          "type": "bool"
        }
      ],
      "stateMutability": "nonpayable",
      "type": "function"
    },
    {
      "inputs": [
        {
          "internalType": "enum QuoteAsset",
          "name": "asset_",
          "type": "uint8"
        }
      ],
      "name": "getExchangeRate",
      "outputs": [
        {
          "internalType": "uint256",
          "name": "",
          "type": "uint256"
        }
      ],
      "stateMutability": "view",
      "type": "function"
    },
    {
      "inputs": [],
      "name": "getExchangeRate",
      "outputs": [
        {
          "internalType": "uint256",
          "name": "",
          "type": "uint256"
        }
      ],
      "stateMutability": "view",
      "type": "function"
    },
    {
      "inputs": [],
      "name": "getOZ",
      "outputs": [
        {
          "internalType": "contract ozIDiamond",
          "name": "",
          "type": "address"
        }
      ],
      "stateMutability": "view",
      "type": "function"
    },
    {
      "inputs": [
        {
          "internalType": "address",
          "name": "spender",
          "type": "address"
        },
        {
          "internalType": "uint256",
          "name": "addedValue",
          "type": "uint256"
        }
      ],
      "name": "increaseAllowance",
      "outputs": [
        {
          "internalType": "bool",
          "name": "",
          "type": "bool"
        }
      ],
      "stateMutability": "nonpayable",
      "type": "function"
    },
    {
      "inputs": [
        {
          "internalType": "string",
          "name": "name_",
          "type": "string"
        },
        {
          "internalType": "string",
          "name": "symbol_",
          "type": "string"
        },
        {
          "internalType": "address",
          "name": "ozDiamond_",
          "type": "address"
        },
        {
          "internalType": "uint256",
          "name": "totalSupply_",
          "type": "uint256"
        },
        {
          "internalType": "uint256",
          "name": "communityAmount_",
          "type": "uint256"
        }
      ],
      "name": "initialize",
      "outputs": [],
      "stateMutability": "nonpayable",
      "type": "function"
    },
    {
      "inputs": [],
      "name": "name",
      "outputs": [
        {
          "internalType": "string",
          "name": "",
          "type": "string"
        }
      ],
      "stateMutability": "view",
      "type": "function"
    },
    {
      "inputs": [
        {
          "internalType": "address",
          "name": "owner",
          "type": "address"
        }
      ],
      "name": "nonces",
      "outputs": [
        {
          "internalType": "uint256",
          "name": "",
          "type": "uint256"
        }
      ],
      "stateMutability": "view",
      "type": "function"
    },
    {
      "inputs": [
        {
          "internalType": "address",
          "name": "owner",
          "type": "address"
        },
        {
          "internalType": "address",
          "name": "spender",
          "type": "address"
        },
        {
          "internalType": "uint256",
          "name": "value",
          "type": "uint256"
        },
        {
          "internalType": "uint256",
          "name": "deadline",
          "type": "uint256"
        },
        {
          "internalType": "uint8",
          "name": "v",
          "type": "uint8"
        },
        {
          "internalType": "bytes32",
          "name": "r",
          "type": "bytes32"
        },
        {
          "internalType": "bytes32",
          "name": "s_",
          "type": "bytes32"
        }
      ],
      "name": "permit",
      "outputs": [],
      "stateMutability": "nonpayable",
      "type": "function"
    },
    {
      "inputs": [
        {
          "internalType": "address",
          "name": "owner_",
          "type": "address"
        },
        {
          "internalType": "address",
          "name": "receiver_",
          "type": "address"
        },
        {
          "internalType": "address",
          "name": "tokenOut_",
          "type": "address"
        },
        {
          "internalType": "uint256",
          "name": "ozlAmountIn_",
          "type": "uint256"
        },
        {
          "internalType": "uint256[]",
          "name": "minAmountsOut_",
          "type": "uint256[]"
        }
      ],
      "name": "redeem",
      "outputs": [
        {
          "internalType": "uint256",
          "name": "amountOut",
          "type": "uint256"
        }
      ],
      "stateMutability": "nonpayable",
      "type": "function"
    },
    {
      "inputs": [],
      "name": "symbol",
      "outputs": [
        {
          "internalType": "string",
          "name": "",
          "type": "string"
        }
      ],
      "stateMutability": "view",
      "type": "function"
    },
    {
      "inputs": [],
      "name": "totalSupply",
      "outputs": [
        {
          "internalType": "uint256",
          "name": "",
          "type": "uint256"
        }
      ],
      "stateMutability": "view",
      "type": "function"
    },
    {
      "inputs": [
        {
          "internalType": "address",
          "name": "to",
          "type": "address"
        },
        {
          "internalType": "uint256",
          "name": "amount",
          "type": "uint256"
        }
      ],
      "name": "transfer",
      "outputs": [
        {
          "internalType": "bool",
          "name": "",
          "type": "bool"
        }
      ],
      "stateMutability": "nonpayable",
      "type": "function"
    },
    {
      "inputs": [
        {
          "internalType": "address",
          "name": "from",
          "type": "address"
        },
        {
          "internalType": "address",
          "name": "to",
          "type": "address"
        },
        {
          "internalType": "uint256",
          "name": "amount",
          "type": "uint256"
        }
      ],
      "name": "transferFrom",
      "outputs": [
        {
          "internalType": "bool",
          "name": "",
          "type": "bool"
        }
      ],
      "stateMutability": "nonpayable",
      "type": "function"
    }
  ],
  "bytecode": {
    "object": "0x60806040523480156200001157600080fd5b506200001c62000022565b620000e4565b600054610100900460ff16156200008f5760405162461bcd60e51b815260206004820152602760248201527f496e697469616c697a61626c653a20636f6e747261637420697320696e697469604482015266616c697a696e6760c81b606482015260840160405180910390fd5b60005460ff9081161015620000e2576000805460ff191660ff9081179091556040519081527f7f26b83ff96e1f2b6a682f133852f6798a09c465da95921460cefb38474024989060200160405180910390a15b565b612c1980620000f46000396000f3fe608060405234801561001057600080fd5b506004361061012c5760003560e01c806370a08231116100ad578063a457c2d711610071578063a457c2d714610268578063a9059cbb1461027b578063d505accf1461028e578063dd62ed3e146102a1578063e6aa216c146102b457600080fd5b806370a082311461020757806374823132146102305780637ecebe00146102455780639358928b1461025857806395d89b411461026057600080fd5b80633644e515116100f45780633644e515146101a657806339509351146101ae5780634d02a3f7146101c157806359c64e12146101d45780636afa0287146101f457600080fd5b806306fdde0314610131578063095ea7b31461014f57806318160ddd1461017257806323b872dd14610184578063313ce56714610197575b600080fd5b6101396102bc565b60405161014691906122ae565b60405180910390f35b61016261015d3660046122d6565b61034e565b6040519015158152602001610146565b6035545b604051908152602001610146565b610162610192366004612302565b610368565b60405160128152602001610146565b61017661038e565b6101626101bc3660046122d6565b61039d565b6101766101cf366004612343565b6103bf565b6101dc61050c565b6040516001600160a01b039091168152602001610146565b6101766102023660046123a7565b61054e565b610176610215366004612492565b6001600160a01b031660009081526033602052604090205490565b61024361023e366004612523565b6107f7565b005b610176610253366004612492565b610994565b6101766109b2565b610139610a1d565b6101626102763660046122d6565b610a2c565b6101626102893660046122d6565b610ab2565b61024361029c3660046125ab565b610ac0565b6101766102af366004612622565b610be2565b610176610c0d565b6060603680546102cb9061265b565b80601f01602080910402602001604051908101604052809291908181526020018280546102f79061265b565b80156103445780601f1061031957610100808354040283529160200191610344565b820191906000526020600020905b81548152906001019060200180831161032757829003601f168201915b5050505050905090565b60003361035c818585610c50565b60019150505b92915050565b600033610376858285610d74565b610381858585610dee565b60019150505b9392505050565b6000610398610fbc565b905090565b60003361035c8185856103b08383610be2565b6103ba91906126a5565b610c50565b6000670de0b6b3a7640000816103d361050c565b6001600160a01b031663b73a89516040518163ffffffff1660e01b815260040161010060405180830381865afa158015610411573d6000803e3d6000fd5b505050506040513d601f19601f8201168201806040525081019061043591906126db565b60c001516040516370a0823160e01b81523060048201529091506000906001600160a01b038316906370a0823190602401602060405180830381865afa158015610483573d6000803e3d6000fd5b505050506040513d601f19601f820116820180604052508101906104a791906127a0565b9050600060028660028111156104bf576104bf6127b9565b146104d3576104ce8683611037565b6104d5565b815b905060006104e16109b2565b9050806000036104f657509295945050505050565b610501858383611161565b979650505050505050565b600061053f61053c60017f86ce1ea4932afb23386a483af3bf37658d9a562b0cc91e2c799fcb236cb30d576127cf565b90565b546001600160a01b0316919050565b60008061055961050c565b90506000816001600160a01b031663b73a89516040518163ffffffff1660e01b815260040161010060405180830381865afa15801561059c573d6000803e3d6000fd5b505050506040513d601f19601f820116820180604052508101906105c091906126db565b60405163423f0b9160e01b81526001600160a01b03888116600483015291925060009184169063423f0b9190602401602060405180830381865afa15801561060c573d6000803e3d6000fd5b505050506040513d601f19601f8201168201806040525081019061063091906127e2565b6001600160a01b031614801561065c57508060e001516001600160a01b0316866001600160a01b031614155b801561067e57508060c001516001600160a01b0316866001600160a01b031614155b156106ac5760405163d74ef47560e01b81526001600160a01b03871660048201526024015b60405180910390fd5b336001600160a01b038916146106c7576106c7883387610d74565b60006106e66106d660006103bf565b8790670de0b6b3a7640000611161565b90506000610760670de0b6b3a7640000856001600160a01b031663f424c4ba6040518163ffffffff1660e01b8152600401602060405180830381865afa158015610734573d6000803e3d6000fd5b505050506040513d601f19601f8201168201806040525081019061075891906127a0565b849190611161565b90508260c001516001600160a01b0316886001600160a01b0316036107d75785600081518110610792576107926127ff565b60200260200101518110156107bd57604051631aa1e78f60e31b8152600481018290526024016106a3565b6107cc8360c001518a8361117f565b9450505050506107ee565b6107e7838b8a8c888c878d611193565b9450505050505b95945050505050565b600054610100900460ff16158080156108175750600054600160ff909116105b806108315750303b158015610831575060005460ff166001145b6108945760405162461bcd60e51b815260206004820152602e60248201527f496e697469616c697a61626c653a20636f6e747261637420697320616c72656160448201526d191e481a5b9a5d1a585b1a5e995960921b60648201526084016106a3565b6000805460ff1916600117905580156108b7576000805461ff0019166101001790555b6108c186866111bd565b6108e486604051806040016040528060018152602001603160f81b8152506111f2565b8361091361053c60017f86ce1ea4932afb23386a483af3bf37658d9a562b0cc91e2c799fcb236cb30d576127cf565b80546001600160a01b0319166001600160a01b039290921691909117905561093b3084611223565b610946308584610dee565b801561098c576000805461ff0019169055604051600181527f7f26b83ff96e1f2b6a682f133852f6798a09c465da95921460cefb38474024989060200160405180910390a15b505050505050565b6001600160a01b038116600090815260996020526040812054610362565b60006109bc61050c565b6001600160a01b0316631e4d84c66040518163ffffffff1660e01b8152600401602060405180830381865afa1580156109f9573d6000803e3d6000fd5b505050506040513d601f19601f8201168201806040525081019061039891906127a0565b6060603780546102cb9061265b565b60003381610a3a8286610be2565b905083811015610a9a5760405162461bcd60e51b815260206004820152602560248201527f45524332303a2064656372656173656420616c6c6f77616e63652062656c6f77604482015264207a65726f60d81b60648201526084016106a3565b610aa78286868403610c50565b506001949350505050565b60003361035c818585610dee565b83421115610aea5760405163184f1e0160e11b8152600481018590524260248201526044016106a3565b60007f6e71edae12b1b97f4d1f60370fef10105fa2faae0126114a169c64845d6126c9888888610b198c611302565b6040805160208101969096526001600160a01b0394851690860152929091166060840152608083015260a082015260c0810186905260e0016040516020818303038152906040528051906020012090506000610b748261132a565b90506000610b8482878787611378565b9050896001600160a01b0316816001600160a01b031614610bcb57604051635091bef560e01b81526001600160a01b0380831660048301528b1660248201526044016106a3565b610bd68a8a8a610c50565b50505050505050505050565b6001600160a01b03918216600090815260346020908152604080832093909416825291909152205490565b604051634d02a3f760e01b81526000903090634d02a3f790610c33908490600401612815565b602060405180830381865afa1580156109f9573d6000803e3d6000fd5b6001600160a01b038316610cb25760405162461bcd60e51b8152602060048201526024808201527f45524332303a20617070726f76652066726f6d20746865207a65726f206164646044820152637265737360e01b60648201526084016106a3565b6001600160a01b038216610d135760405162461bcd60e51b815260206004820152602260248201527f45524332303a20617070726f766520746f20746865207a65726f206164647265604482015261737360f01b60648201526084016106a3565b6001600160a01b0383811660008181526034602090815260408083209487168084529482529182902085905590518481527f8c5be1e5ebec7d5bd14f71427d1e84f3dd0314c0f7b2291e5b200ac8c7c3b925910160405180910390a3505050565b6000610d808484610be2565b90506000198114610de85781811015610ddb5760405162461bcd60e51b815260206004820152601d60248201527f45524332303a20696e73756666696369656e7420616c6c6f77616e636500000060448201526064016106a3565b610de88484848403610c50565b50505050565b6001600160a01b038316610e525760405162461bcd60e51b815260206004820152602560248201527f45524332303a207472616e736665722066726f6d20746865207a65726f206164604482015264647265737360d81b60648201526084016106a3565b6001600160a01b038216610eb45760405162461bcd60e51b815260206004820152602360248201527f45524332303a207472616e7366657220746f20746865207a65726f206164647260448201526265737360e81b60648201526084016106a3565b6001600160a01b03831660009081526033602052604090205481811015610f2c5760405162461bcd60e51b815260206004820152602660248201527f45524332303a207472616e7366657220616d6f756e7420657863656564732062604482015265616c616e636560d01b60648201526084016106a3565b6001600160a01b03808516600090815260336020526040808220858503905591851681529081208054849290610f639084906126a5565b92505081905550826001600160a01b0316846001600160a01b03167fddf252ad1be2c89b69c2b068fc378daa952ba7f163c4a11628f55a4df523b3ef84604051610faf91815260200190565b60405180910390a3610de8565b60006103987f8b73c3c69bb8fe3d512ecc4cf759cc79239f7b179b0ffacaa9a75d522b39400f610feb60655490565b6066546040805160208101859052908101839052606081018290524660808201523060a082015260009060c0016040516020818303038152906040528051906020012090509392505050565b6040805160048152602481019091526020810180516001600160e01b0316636a57db9d60e11b17905260009061107461106e61050c565b826113a7565b905060008180602001905181019061108c91906127a0565b905060008560028111156110a2576110a26127b9565b0361112a576111236110b261050c565b6001600160a01b031663f424c4ba6040518163ffffffff1660e01b8152600401602060405180830381865afa1580156110ef573d6000803e3d6000fd5b505050506040513d601f19601f8201168201806040525081019061111391906127a0565b8590670de0b6b3a7640000611161565b9250611159565b600185600281111561113e5761113e6127b9565b03611159576111568482670de0b6b3a7640000611161565b92505b505092915050565b600082600019048411830215820261117857600080fd5b5091020490565b600061118c8484846113cc565b5092915050565b60006111a13089878761142f565b6111b089888886866000611467565b9998505050505050505050565b600054610100900460ff166111e45760405162461bcd60e51b81526004016106a39061282f565b6111ee828261162e565b5050565b600054610100900460ff166112195760405162461bcd60e51b81526004016106a39061282f565b6111ee828261166e565b6001600160a01b0382166112795760405162461bcd60e51b815260206004820152601f60248201527f45524332303a206d696e7420746f20746865207a65726f20616464726573730060448201526064016106a3565b806035600082825461128b91906126a5565b90915550506001600160a01b038216600090815260336020526040812080548392906112b89084906126a5565b90915550506040518181526001600160a01b038316906000907fddf252ad1be2c89b69c2b068fc378daa952ba7f163c4a11628f55a4df523b3ef9060200160405180910390a35050565b6001600160a01b03811660009081526099602052604090208054600181018255905b50919050565b6000610362611337610fbc565b8360405161190160f01b6020820152602281018390526042810182905260009060620160405160208183030381529060405280519060200120905092915050565b6000806000611389878787876116af565b915091506113968161179c565b5090505b949350505050565b505050565b60606103878383604051806060016040528060258152602001612bbf60259139611955565b6040516001600160a01b0383166024820152604481018290526113a290849063a9059cbb60e01b906064015b60408051601f198184030181529190526020810180516001600160e01b03166001600160e01b0319909316929092179091526119cd565b6040516001600160a01b0380851660248301528316604482015260648101829052610de89085906323b872dd60e01b906084016113f8565b600080808084600281111561147e5761147e6127b9565b0361149057505060c087015160e08801515b600089604001516001600160a01b0316631c0de0516040518163ffffffff1660e01b8152600401606060405180830381865afa1580156114d4573d6000803e3d6000fd5b505050506040513d601f19601f820116820180604052508101906114f8919061288a565b50509050801561153a576115338383308d600001518e602001518c8c600081518110611526576115266127ff565b6020026020010151611aa2565b935061155a565b61155783838c604001518d606001518e608001518c8c6000611bfa565b93505b8960e001516001600160a01b0316896001600160a01b0316036115f65760e08a015160405163a9059cbb60e01b81526001600160a01b038a81166004830152602482018790529091169063a9059cbb906044016020604051808303816000875af11580156115cc573d6000803e3d6000fd5b505050506040513d601f19601f820116820180604052508101906115f091906128bf565b50611621565b61161e8a60e001518a8a8d600001518e60200151898c600181518110611526576115266127ff565b93505b5050509695505050505050565b600054610100900460ff166116555760405162461bcd60e51b81526004016106a39061282f565b60366116618382612920565b5060376113a28282612920565b600054610100900460ff166116955760405162461bcd60e51b81526004016106a39061282f565b815160209283012081519190920120606591909155606655565b6000807f7fffffffffffffffffffffffffffffff5d576e7357a4501ddfe92f46681b20a08311156116e65750600090506003611793565b8460ff16601b141580156116fe57508460ff16601c14155b1561170f5750600090506004611793565b6040805160008082526020820180845289905260ff881692820192909252606081018690526080810185905260019060a0016020604051602081039080840390855afa158015611763573d6000803e3d6000fd5b5050604051601f1901519150506001600160a01b03811661178c57600060019250925050611793565b9150600090505b94509492505050565b60008160048111156117b0576117b06127b9565b036117b85750565b60018160048111156117cc576117cc6127b9565b036118195760405162461bcd60e51b815260206004820152601860248201527f45434453413a20696e76616c6964207369676e6174757265000000000000000060448201526064016106a3565b600281600481111561182d5761182d6127b9565b0361187a5760405162461bcd60e51b815260206004820152601f60248201527f45434453413a20696e76616c6964207369676e6174757265206c656e6774680060448201526064016106a3565b600381600481111561188e5761188e6127b9565b036118e65760405162461bcd60e51b815260206004820152602260248201527f45434453413a20696e76616c6964207369676e6174757265202773272076616c604482015261756560f01b60648201526084016106a3565b60048160048111156118fa576118fa6127b9565b036119525760405162461bcd60e51b815260206004820152602260248201527f45434453413a20696e76616c6964207369676e6174757265202776272076616c604482015261756560f01b60648201526084016106a3565b50565b6060600080856001600160a01b03168560405161197291906129e0565b600060405180830381855afa9150503d80600081146119ad576040519150601f19603f3d011682016040523d82523d6000602084013e6119b2565b606091505b50915091506119c386838387611e49565b9695505050505050565b6000611a22826040518060400160405280602081526020017f5361666545524332303a206c6f772d6c6576656c2063616c6c206661696c6564815250856001600160a01b0316611ec29092919063ffffffff16565b9050805160001480611a43575080806020019051810190611a4391906128bf565b6113a25760405162461bcd60e51b815260206004820152602a60248201527f5361666545524332303a204552433230206f7065726174696f6e20646964206e6044820152691bdd081cdd58d8d9595960b21b60648201526084016106a3565b6000611aaf888685611ed1565b60408051610100810182526001600160a01b038a811682528981166020830190815262ffffff8881168486019081528b841660608601908152426080870190815260a087018b815260c088018b8152600060e08a01908152995163414bf38960e01b815289518916600482015296518816602488015293519094166044860152905185166064850152516084840152905160a48301525160c48201529251811660e484015290919087169063414bf38990610104016020604051808303816000875af1925050508015611b9f575060408051601f3d908101601f19168201909252611b9c918101906127a0565b60015b611bf157611bab6129fc565b806308c379a003611be55750611bbf612a17565b80611bca5750611be7565b8060405163633abab960e01b81526004016106a391906122ae565b505b3d6000803e3d6000fd5b91506105019050565b6000806040518060c00160405280896001600160a01b03166338fff2d06040518163ffffffff1660e01b8152600401602060405180830381865afa158015611c46573d6000803e3d6000fd5b505050506040513d601f19601f82011682018060405250810190611c6a91906127a0565b8152602001600081526001600160a01b03808d1660208301528b1660408201526060810187905260800160006040519080825280601f01601f191660200182016040528015611cc0576020820181803683370190505b5090526040805160808101825230808252600060208301819052928201526060810182905291925080856002811115611cfb57611cfb6127b9565b03611d225785600081518110611d1357611d136127ff565b60200260200101519050611e1d565b6000856002811115611d3657611d366127b9565b14611e1d5760405163e969f6b360e01b81526001600160a01b038a169063e969f6b390611d699086908690600401612b08565b6020604051808303816000875af1925050508015611da4575060408051601f3d908101601f19168201909252611da1918101906127a0565b60015b611dea57611db06129fc565b806308c379a003611be55750611dc4612a17565b80611dcf5750611be7565b8060405163dafe91cd60e01b81526004016106a391906122ae565b600087600081518110611dff57611dff6127ff565b60200260200101519050818111611e165781611e18565b805b925050505b611e2c8c898560800151611ed1565b611e398884848442611fe6565b9c9b505050505050505050505050565b60608315611eb8578251600003611eb1576001600160a01b0385163b611eb15760405162461bcd60e51b815260206004820152601d60248201527f416464726573733a2063616c6c20746f206e6f6e2d636f6e747261637400000060448201526064016106a3565b508161139a565b61139a838361210b565b606061139a8484600085612135565b801580611f4b5750604051636eb1769f60e11b81523060048201526001600160a01b03838116602483015284169063dd62ed3e90604401602060405180830381865afa158015611f25573d6000803e3d6000fd5b505050506040513d601f19601f82011682018060405250810190611f4991906127a0565b155b611fb65760405162461bcd60e51b815260206004820152603660248201527f5361666545524332303a20617070726f76652066726f6d206e6f6e2d7a65726f60448201527520746f206e6f6e2d7a65726f20616c6c6f77616e636560501b60648201526084016106a3565b6040516001600160a01b0383166024820152604481018290526113a290849063095ea7b360e01b906064016113f8565b6040516352bbbe2960e01b81526000906001600160a01b038716906352bbbe299061201b908890889088908890600401612b5a565b6020604051808303816000875af1925050508015612056575060408051601f3d908101601f19168201909252612053918101906127a0565b60015b6120e3576120626129fc565b806308c379a003611be55750612076612a17565b806120815750611be7565b6120aa816040518060400160405280600781526020016642414c2335303760c81b815250612205565b156120c857604051637b19dd3560e11b815260040160405180910390fd5b806040516324af18bb60e21b81526004016106a391906122ae565b8060000361210457604051635eeb40ff60e11b815260040160405180910390fd5b90506107ee565b81511561211b5781518083602001fd5b8060405162461bcd60e51b81526004016106a391906122ae565b6060824710156121965760405162461bcd60e51b815260206004820152602660248201527f416464726573733a20696e73756666696369656e742062616c616e636520666f6044820152651c8818d85b1b60d21b60648201526084016106a3565b600080866001600160a01b031685876040516121b291906129e0565b60006040518083038185875af1925050503d80600081146121ef576040519150601f19603f3d011682016040523d82523d6000602084013e6121f4565b606091505b509150915061050187838387611e49565b60008160405160200161221891906129e0565b604051602081830303815290604052805190602001208360405160200161223f91906129e0565b6040516020818303038152906040528051906020012014905092915050565b60005b83811015612279578181015183820152602001612261565b50506000910152565b6000815180845261229a81602086016020860161225e565b601f01601f19169290920160200192915050565b6020815260006103876020830184612282565b6001600160a01b038116811461195257600080fd5b600080604083850312156122e957600080fd5b82356122f4816122c1565b946020939093013593505050565b60008060006060848603121561231757600080fd5b8335612322816122c1565b92506020840135612332816122c1565b929592945050506040919091013590565b60006020828403121561235557600080fd5b81356003811061038757600080fd5b634e487b7160e01b600052604160045260246000fd5b601f8201601f1916810167ffffffffffffffff811182821017156123a0576123a0612364565b6040525050565b600080600080600060a086880312156123bf57600080fd5b85356123ca816122c1565b94506020868101356123db816122c1565b945060408701356123eb816122c1565b935060608701359250608087013567ffffffffffffffff8082111561240f57600080fd5b818901915089601f83011261242357600080fd5b81358181111561243557612435612364565b8060051b915060405161244a8584018261237a565b8181529183018401918481018c84111561246357600080fd5b938501935b8385101561247f5784358152938501938501612468565b5080955050505050509295509295909350565b6000602082840312156124a457600080fd5b8135610387816122c1565b600082601f8301126124c057600080fd5b813567ffffffffffffffff8111156124da576124da612364565b6040516124f1601f8301601f19166020018261237a565b81815284602083860101111561250657600080fd5b816020850160208301376000918101602001919091529392505050565b600080600080600060a0868803121561253b57600080fd5b853567ffffffffffffffff8082111561255357600080fd5b61255f89838a016124af565b9650602088013591508082111561257557600080fd5b50612582888289016124af565b9450506040860135612593816122c1565b94979396509394606081013594506080013592915050565b600080600080600080600060e0888a0312156125c657600080fd5b87356125d1816122c1565b965060208801356125e1816122c1565b95506040880135945060608801359350608088013560ff8116811461260557600080fd5b9699959850939692959460a0840135945060c09093013592915050565b6000806040838503121561263557600080fd5b8235612640816122c1565b91506020830135612650816122c1565b809150509250929050565b600181811c9082168061266f57607f821691505b60208210810361132457634e487b7160e01b600052602260045260246000fd5b634e487b7160e01b600052601160045260246000fd5b808201808211156103625761036261268f565b80516126c3816122c1565b919050565b805162ffffff811681146126c357600080fd5b60006101008083850312156126ef57600080fd5b6040519081019067ffffffffffffffff8211818310171561271257612712612364565b8160405261271f846126b8565b815261272d602085016126c8565b602082015261273e604085016126b8565b604082015261274f606085016126b8565b6060820152612760608085016126b8565b608082015261277160a085016126b8565b60a082015261278260c085016126b8565b60c082015261279360e085016126b8565b60e0820152949350505050565b6000602082840312156127b257600080fd5b5051919050565b634e487b7160e01b600052602160045260246000fd5b818103818111156103625761036261268f565b6000602082840312156127f457600080fd5b8151610387816122c1565b634e487b7160e01b600052603260045260246000fd5b6020810160038310612829576128296127b9565b91905290565b6020808252602b908201527f496e697469616c697a61626c653a20636f6e7472616374206973206e6f74206960408201526a6e697469616c697a696e6760a81b606082015260800190565b805180151581146126c357600080fd5b60008060006060848603121561289f57600080fd5b6128a88461287a565b925060208401519150604084015190509250925092565b6000602082840312156128d157600080fd5b6103878261287a565b601f8211156113a257600081815260208120601f850160051c810160208610156129015750805b601f850160051c820191505b8181101561098c5782815560010161290d565b815167ffffffffffffffff81111561293a5761293a612364565b61294e81612948845461265b565b846128da565b602080601f831160018114612983576000841561296b5750858301515b600019600386901b1c1916600185901b17855561098c565b600085815260208120601f198616915b828110156129b257888601518255948401946001909101908401612993565b50858210156129d05787850151600019600388901b60f8161c191681555b5050505050600190811b01905550565b600082516129f281846020870161225e565b9190910192915050565b600060033d111561053c5760046000803e5060005160e01c90565b600060443d1015612a255790565b6040516003193d81016004833e81513d67ffffffffffffffff8160248401118184111715612a5557505050505090565b8285019150815181811115612a6d5750505050505090565b843d8701016020828501011115612a875750505050505090565b612a966020828601018761237a565b509095945050505050565b805182526000602082015160028110612abc57612abc6127b9565b80602085015250604082015160018060a01b03808216604086015280606085015116606086015250506080820151608084015260a082015160c060a085015261139a60c0850182612282565b60a081526000612b1b60a0830185612aa1565b9050610387602083018480516001600160a01b039081168352602080830151151590840152604080830151909116908301526060908101511515910152565b60e081526000612b6d60e0830187612aa1565b9050612bac602083018680516001600160a01b039081168352602080830151151590840152604080830151909116908301526060908101511515910152565b60a082019390935260c001529291505056fe416464726573733a206c6f772d6c6576656c207374617469632063616c6c206661696c6564a26469706673582212202b7fc3913890836e311635d8870cba0a29879dbb96fc8ffb0ed4b5ab979977ab64736f6c63430008150033",
    "linkReferences": {}
  },
  "methodIdentifiers": {
    "DOMAIN_SEPARATOR()": "3644e515",
    "allowance(address,address)": "dd62ed3e",
    "approve(address,uint256)": "095ea7b3",
    "balanceOf(address)": "70a08231",
    "circulatingSupply()": "9358928b",
    "decimals()": "313ce567",
    "decreaseAllowance(address,uint256)": "a457c2d7",
    "getExchangeRate()": "e6aa216c",
    "getExchangeRate(uint8)": "4d02a3f7",
    "getOZ()": "59c64e12",
    "increaseAllowance(address,uint256)": "39509351",
    "initialize(string,string,address,uint256,uint256)": "74823132",
    "name()": "06fdde03",
    "nonces(address)": "7ecebe00",
    "permit(address,address,uint256,uint256,uint8,bytes32,bytes32)": "d505accf",
    "redeem(address,address,address,uint256,uint256[])": "6afa0287",
    "symbol()": "95d89b41",
    "totalSupply()": "18160ddd",
    "transfer(address,uint256)": "a9059cbb",
    "transferFrom(address,address,uint256)": "23b872dd"
  },
  "id": 4
}