{
  "abi": [
    {
      "inputs": [],
      "stateMutability": "nonpayable",
      "type": "constructor"
    },
    {
      "anonymous": false,
      "inputs": [
        {
          "indexed": true,
          "internalType": "address",
          "name": "owner",
          "type": "address"
        },
        {
          "indexed": true,
          "internalType": "address",
          "name": "spender",
          "type": "address"
        },
        {
          "indexed": false,
          "internalType": "uint256",
          "name": "value",
          "type": "uint256"
        }
      ],
      "name": "Approval",
      "type": "event"
    },
    {
      "anonymous": false,
      "inputs": [
        {
          "indexed": false,
          "internalType": "uint8",
          "name": "version",
          "type": "uint8"
        }
      ],
      "name": "Initialized",
      "type": "event"
    },
    {
      "anonymous": false,
      "inputs": [
        {
          "indexed": true,
          "internalType": "address",
          "name": "from",
          "type": "address"
        },
        {
          "indexed": true,
          "internalType": "address",
          "name": "to",
          "type": "address"
        },
        {
          "indexed": false,
          "internalType": "uint256",
          "name": "value",
          "type": "uint256"
        }
      ],
      "name": "Transfer",
      "type": "event"
    },
    {
      "inputs": [
        {
          "internalType": "address",
          "name": "owner",
          "type": "address"
        },
        {
          "internalType": "address",
          "name": "spender",
          "type": "address"
        }
      ],
      "name": "allowance",
      "outputs": [
        {
          "internalType": "uint256",
          "name": "",
          "type": "uint256"
        }
      ],
      "stateMutability": "view",
      "type": "function"
    },
    {
      "inputs": [
        {
          "internalType": "address",
          "name": "spender",
          "type": "address"
        },
        {
          "internalType": "uint256",
          "name": "amount",
          "type": "uint256"
        }
      ],
      "name": "approve",
      "outputs": [
        {
          "internalType": "bool",
          "name": "",
          "type": "bool"
        }
      ],
      "stateMutability": "nonpayable",
      "type": "function"
    },
    {
      "inputs": [
        {
          "internalType": "address",
          "name": "account",
          "type": "address"
        }
      ],
      "name": "balanceOf",
      "outputs": [
        {
          "internalType": "uint256",
          "name": "",
          "type": "uint256"
        }
      ],
      "stateMutability": "view",
      "type": "function"
    },
    {
      "inputs": [],
      "name": "circulatingSupply",
      "outputs": [
        {
          "internalType": "uint256",
          "name": "",
          "type": "uint256"
        }
      ],
      "stateMutability": "view",
      "type": "function"
    },
    {
      "inputs": [],
      "name": "decimals",
      "outputs": [
        {
          "internalType": "uint8",
          "name": "",
          "type": "uint8"
        }
      ],
      "stateMutability": "view",
      "type": "function"
    },
    {
      "inputs": [
        {
          "internalType": "address",
          "name": "spender",
          "type": "address"
        },
        {
          "internalType": "uint256",
          "name": "subtractedValue",
          "type": "uint256"
        }
      ],
      "name": "decreaseAllowance",
      "outputs": [
        {
          "internalType": "bool",
          "name": "",
          "type": "bool"
        }
      ],
      "stateMutability": "nonpayable",
      "type": "function"
    },
    {
      "inputs": [],
      "name": "getBal",
      "outputs": [
        {
          "internalType": "uint256",
          "name": "",
          "type": "uint256"
        }
      ],
      "stateMutability": "view",
      "type": "function"
    },
    {
      "inputs": [],
      "name": "getExchangeRate",
      "outputs": [
        {
          "internalType": "uint256",
          "name": "",
          "type": "uint256"
        }
      ],
      "stateMutability": "view",
      "type": "function"
    },
    {
      "inputs": [],
      "name": "getOZ",
      "outputs": [
        {
          "internalType": "contract ozIDiamond",
          "name": "",
          "type": "address"
        }
      ],
      "stateMutability": "view",
      "type": "function"
    },
    {
      "inputs": [
        {
          "internalType": "address",
          "name": "spender",
          "type": "address"
        },
        {
          "internalType": "uint256",
          "name": "addedValue",
          "type": "uint256"
        }
      ],
      "name": "increaseAllowance",
      "outputs": [
        {
          "internalType": "bool",
          "name": "",
          "type": "bool"
        }
      ],
      "stateMutability": "nonpayable",
      "type": "function"
    },
    {
      "inputs": [
        {
          "internalType": "string",
          "name": "name_",
          "type": "string"
        },
        {
          "internalType": "string",
          "name": "symbol_",
          "type": "string"
        },
        {
          "internalType": "address",
          "name": "ozDiamond_",
          "type": "address"
        },
        {
          "internalType": "uint256",
          "name": "totalSupply_",
          "type": "uint256"
        },
        {
          "internalType": "uint256",
          "name": "communityAmount_",
          "type": "uint256"
        }
      ],
      "name": "initialize",
      "outputs": [],
      "stateMutability": "nonpayable",
      "type": "function"
    },
    {
      "inputs": [],
      "name": "name",
      "outputs": [
        {
          "internalType": "string",
          "name": "",
          "type": "string"
        }
      ],
      "stateMutability": "view",
      "type": "function"
    },
    {
      "inputs": [],
      "name": "symbol",
      "outputs": [
        {
          "internalType": "string",
          "name": "",
          "type": "string"
        }
      ],
      "stateMutability": "view",
      "type": "function"
    },
    {
      "inputs": [],
      "name": "totalSupply",
      "outputs": [
        {
          "internalType": "uint256",
          "name": "",
          "type": "uint256"
        }
      ],
      "stateMutability": "view",
      "type": "function"
    },
    {
      "inputs": [
        {
          "internalType": "address",
          "name": "to",
          "type": "address"
        },
        {
          "internalType": "uint256",
          "name": "amount",
          "type": "uint256"
        }
      ],
      "name": "transfer",
      "outputs": [
        {
          "internalType": "bool",
          "name": "",
          "type": "bool"
        }
      ],
      "stateMutability": "nonpayable",
      "type": "function"
    },
    {
      "inputs": [
        {
          "internalType": "address",
          "name": "from",
          "type": "address"
        },
        {
          "internalType": "address",
          "name": "to",
          "type": "address"
        },
        {
          "internalType": "uint256",
          "name": "amount",
          "type": "uint256"
        }
      ],
      "name": "transferFrom",
      "outputs": [
        {
          "internalType": "bool",
          "name": "",
          "type": "bool"
        }
      ],
      "stateMutability": "nonpayable",
      "type": "function"
    }
  ],
  "bytecode": {
    "object": "0x608060405234801561001057600080fd5b5061001961001e565b6100de565b600054610100900460ff161561008a5760405162461bcd60e51b815260206004820152602760248201527f496e697469616c697a61626c653a20636f6e747261637420697320696e697469604482015266616c697a696e6760c81b606482015260840160405180910390fd5b60005460ff90811610156100dc576000805460ff191660ff9081179091556040519081527f7f26b83ff96e1f2b6a682f133852f6798a09c465da95921460cefb38474024989060200160405180910390a15b565b611277806100ed6000396000f3fe608060405234801561001057600080fd5b50600436106101005760003560e01c806370a0823111610097578063a457c2d711610066578063a457c2d714610203578063a9059cbb14610216578063dd62ed3e14610229578063e6aa216c1461023c57600080fd5b806370a08231146101b557806374823132146101de5780639358928b146101f357806395d89b41146101fb57600080fd5b806325caa262116100d357806325caa2621461016b578063313ce56714610173578063395093511461018257806359c64e121461019557600080fd5b806306fdde0314610105578063095ea7b31461012357806318160ddd1461014657806323b872dd14610158575b600080fd5b61010d610244565b60405161011a9190610e31565b60405180910390f35b610136610131366004610e62565b6102d6565b604051901515815260200161011a565b6035545b60405190815260200161011a565b610136610166366004610e8c565b6102f0565b61014a610314565b6040516012815260200161011a565b610136610190366004610e62565b6103d2565b61019d6103f4565b6040516001600160a01b03909116815260200161011a565b61014a6101c3366004610ec8565b6001600160a01b031660009081526033602052604090205490565b6101f16101ec366004610f86565b610436565b005b61014a6105b5565b61010d610625565b610136610211366004610e62565b610634565b610136610224366004610e62565b6106af565b61014a61023736600461100c565b6106bd565b61014a6106e8565b6060603680546102539061103f565b80601f016020809104026020016040519081016040528092919081815260200182805461027f9061103f565b80156102cc5780601f106102a1576101008083540402835291602001916102cc565b820191906000526020600020905b8154815290600101906020018083116102af57829003601f168201915b5050505050905090565b6000336102e48185856108a2565b60019150505b92915050565b6000336102fe8582856109c6565b610309858585610a40565b506001949350505050565b6040516370a0823160e01b8152306004820152600090819073ae78736cd615f374d3085123a210448e74fc6393906370a0823190602401602060405180830381865afa158015610368573d6000803e3d6000fd5b505050506040513d601f19601f8201168201806040525081019061038c9190611079565b90506103cd6040518060400160405280601a81526020017f724554482062616c202866726f6d206665657329202a2a2a3a2000000000000081525082610c0e565b919050565b6000336102e48185856103e583836106bd565b6103ef91906110a8565b6108a2565b600061042761042460017f86ce1ea4932afb23386a483af3bf37658d9a562b0cc91e2c799fcb236cb30d576110bb565b90565b546001600160a01b0316919050565b600054610100900460ff16158080156104565750600054600160ff909116105b806104705750303b158015610470575060005460ff166001145b6104d85760405162461bcd60e51b815260206004820152602e60248201527f496e697469616c697a61626c653a20636f6e747261637420697320616c72656160448201526d191e481a5b9a5d1a585b1a5e995960921b60648201526084015b60405180910390fd5b6000805460ff1916600117905580156104fb576000805461ff0019166101001790555b6105058686610c57565b8361053461042460017f86ce1ea4932afb23386a483af3bf37658d9a562b0cc91e2c799fcb236cb30d576110bb565b80546001600160a01b0319166001600160a01b039290921691909117905561055c3084610c88565b610567308584610a40565b80156105ad576000805461ff0019169055604051600181527f7f26b83ff96e1f2b6a682f133852f6798a09c465da95921460cefb38474024989060200160405180910390a15b505050505050565b60006105bf6103f4565b6001600160a01b0316631e4d84c66040518163ffffffff1660e01b8152600401602060405180830381865afa1580156105fc573d6000803e3d6000fd5b505050506040513d601f19601f820116820180604052508101906106209190611079565b905090565b6060603780546102539061103f565b6000338161064282866106bd565b9050838110156106a25760405162461bcd60e51b815260206004820152602560248201527f45524332303a2064656372656173656420616c6c6f77616e63652062656c6f77604482015264207a65726f60d81b60648201526084016104cf565b61030982868684036108a2565b6000336102e4818585610a40565b6001600160a01b03918216600090815260346020908152604080832093909416825291909152205490565b6040516370a0823160e01b8152306004820152600090670de0b6b3a764000090829073ae78736cd615f374d3085123a210448e74fc6393906370a0823190602401602060405180830381865afa158015610746573d6000803e3d6000fd5b505050506040513d601f19601f8201168201806040525081019061076a9190611079565b905060006107e26107796103f4565b6001600160a01b031663f424c4ba6040518163ffffffff1660e01b8152600401602060405180830381865afa1580156107b6573d6000803e3d6000fd5b505050506040513d601f19601f820116820180604052508101906107da9190611079565b839085610d67565b905060006107ee6105b5565b9050806000036108015750919392505050565b6108326040518060400160405280600f81526020016e03a37ba30b62332b2b9a922aa241d1608d1b81525084610c0e565b6108626040518060400160405280600e81526020016d03a37ba30b62332b2b9aaa9a21d160951b81525083610c0e565b61088e6040518060400160405280600a815260200169031afa9bab838363c9d160b51b81525082610c0e565b610899848383610d67565b94505050505090565b6001600160a01b0383166109045760405162461bcd60e51b8152602060048201526024808201527f45524332303a20617070726f76652066726f6d20746865207a65726f206164646044820152637265737360e01b60648201526084016104cf565b6001600160a01b0382166109655760405162461bcd60e51b815260206004820152602260248201527f45524332303a20617070726f766520746f20746865207a65726f206164647265604482015261737360f01b60648201526084016104cf565b6001600160a01b0383811660008181526034602090815260408083209487168084529482529182902085905590518481527f8c5be1e5ebec7d5bd14f71427d1e84f3dd0314c0f7b2291e5b200ac8c7c3b925910160405180910390a3505050565b60006109d284846106bd565b90506000198114610a3a5781811015610a2d5760405162461bcd60e51b815260206004820152601d60248201527f45524332303a20696e73756666696369656e7420616c6c6f77616e636500000060448201526064016104cf565b610a3a84848484036108a2565b50505050565b6001600160a01b038316610aa45760405162461bcd60e51b815260206004820152602560248201527f45524332303a207472616e736665722066726f6d20746865207a65726f206164604482015264647265737360d81b60648201526084016104cf565b6001600160a01b038216610b065760405162461bcd60e51b815260206004820152602360248201527f45524332303a207472616e7366657220746f20746865207a65726f206164647260448201526265737360e81b60648201526084016104cf565b6001600160a01b03831660009081526033602052604090205481811015610b7e5760405162461bcd60e51b815260206004820152602660248201527f45524332303a207472616e7366657220616d6f756e7420657863656564732062604482015265616c616e636560d01b60648201526084016104cf565b6001600160a01b03808516600090815260336020526040808220858503905591851681529081208054849290610bb59084906110a8565b92505081905550826001600160a01b0316846001600160a01b03167fddf252ad1be2c89b69c2b068fc378daa952ba7f163c4a11628f55a4df523b3ef84604051610c0191815260200190565b60405180910390a3610a3a565b610c538282604051602401610c249291906110ce565b60408051601f198184030181529190526020810180516001600160e01b03166309710a9d60e41b179052610d8a565b5050565b600054610100900460ff16610c7e5760405162461bcd60e51b81526004016104cf906110f0565b610c538282610dab565b6001600160a01b038216610cde5760405162461bcd60e51b815260206004820152601f60248201527f45524332303a206d696e7420746f20746865207a65726f20616464726573730060448201526064016104cf565b8060356000828254610cf091906110a8565b90915550506001600160a01b03821660009081526033602052604081208054839290610d1d9084906110a8565b90915550506040518181526001600160a01b038316906000907fddf252ad1be2c89b69c2b068fc378daa952ba7f163c4a11628f55a4df523b3ef9060200160405180910390a35050565b6000826000190484118302158202610d7e57600080fd5b5091020490565b505050565b80516a636f6e736f6c652e6c6f67602083016000808483855afa5050505050565b600054610100900460ff16610dd25760405162461bcd60e51b81526004016104cf906110f0565b6036610dde8382611181565b506037610d858282611181565b6000815180845260005b81811015610e1157602081850181015186830182015201610df5565b506000602082860101526020601f19601f83011685010191505092915050565b602081526000610e446020830184610deb565b9392505050565b80356001600160a01b03811681146103cd57600080fd5b60008060408385031215610e7557600080fd5b610e7e83610e4b565b946020939093013593505050565b600080600060608486031215610ea157600080fd5b610eaa84610e4b565b9250610eb860208501610e4b565b9150604084013590509250925092565b600060208284031215610eda57600080fd5b610e4482610e4b565b634e487b7160e01b600052604160045260246000fd5b600082601f830112610f0a57600080fd5b813567ffffffffffffffff80821115610f2557610f25610ee3565b604051601f8301601f19908116603f01168101908282118183101715610f4d57610f4d610ee3565b81604052838152866020858801011115610f6657600080fd5b836020870160208301376000602085830101528094505050505092915050565b600080600080600060a08688031215610f9e57600080fd5b853567ffffffffffffffff80821115610fb657600080fd5b610fc289838a01610ef9565b96506020880135915080821115610fd857600080fd5b50610fe588828901610ef9565b945050610ff460408701610e4b565b94979396509394606081013594506080013592915050565b6000806040838503121561101f57600080fd5b61102883610e4b565b915061103660208401610e4b565b90509250929050565b600181811c9082168061105357607f821691505b60208210810361107357634e487b7160e01b600052602260045260246000fd5b50919050565b60006020828403121561108b57600080fd5b5051919050565b634e487b7160e01b600052601160045260246000fd5b808201808211156102ea576102ea611092565b818103818111156102ea576102ea611092565b6040815260006110e16040830185610deb565b90508260208301529392505050565b6020808252602b908201527f496e697469616c697a61626c653a20636f6e7472616374206973206e6f74206960408201526a6e697469616c697a696e6760a81b606082015260800190565b601f821115610d8557600081815260208120601f850160051c810160208610156111625750805b601f850160051c820191505b818110156105ad5782815560010161116e565b815167ffffffffffffffff81111561119b5761119b610ee3565b6111af816111a9845461103f565b8461113b565b602080601f8311600181146111e457600084156111cc5750858301515b600019600386901b1c1916600185901b1785556105ad565b600085815260208120601f198616915b82811015611213578886015182559484019460019091019084016111f4565b50858210156112315787850151600019600388901b60f8161c191681555b5050505050600190811b0190555056fea2646970667358221220a48048fba42c247a4001bf5fce85010b70b6c9382338c303ce8eaf939dc4ff6964736f6c63430008150033",
    "linkReferences": {}
  },
  "methodIdentifiers": {
    "allowance(address,address)": "dd62ed3e",
    "approve(address,uint256)": "095ea7b3",
    "balanceOf(address)": "70a08231",
    "circulatingSupply()": "9358928b",
    "decimals()": "313ce567",
    "decreaseAllowance(address,uint256)": "a457c2d7",
    "getBal()": "25caa262",
    "getExchangeRate()": "e6aa216c",
    "getOZ()": "59c64e12",
    "increaseAllowance(address,uint256)": "39509351",
    "initialize(string,string,address,uint256,uint256)": "74823132",
    "name()": "06fdde03",
    "symbol()": "95d89b41",
    "totalSupply()": "18160ddd",
    "transfer(address,uint256)": "a9059cbb",
    "transferFrom(address,address,uint256)": "23b872dd"
  },
  "id": 4
}