{"abi":[{"type":"constructor","inputs":[],"stateMutability":"nonpayable"},{"type":"function","name":"DOMAIN_SEPARATOR","inputs":[],"outputs":[{"name":"","type":"bytes32","internalType":"bytes32"}],"stateMutability":"view"},{"type":"function","name":"allocate","inputs":[{"name":"receiver_","type":"address","internalType":"contract IOZLvesting"},{"name":"amount_","type":"uint256","internalType":"uint256"}],"outputs":[],"stateMutability":"nonpayable"},{"type":"function","name":"allowance","inputs":[{"name":"owner","type":"address","internalType":"address"},{"name":"spender","type":"address","internalType":"address"}],"outputs":[{"name":"","type":"uint256","internalType":"uint256"}],"stateMutability":"view"},{"type":"function","name":"approve","inputs":[{"name":"spender","type":"address","internalType":"address"},{"name":"amount","type":"uint256","internalType":"uint256"}],"outputs":[{"name":"","type":"bool","internalType":"bool"}],"stateMutability":"nonpayable"},{"type":"function","name":"balanceOf","inputs":[{"name":"account","type":"address","internalType":"address"}],"outputs":[{"name":"","type":"uint256","internalType":"uint256"}],"stateMutability":"view"},{"type":"function","name":"circulatingSupply","inputs":[],"outputs":[{"name":"","type":"uint256","internalType":"uint256"}],"stateMutability":"view"},{"type":"function","name":"decimals","inputs":[],"outputs":[{"name":"","type":"uint8","internalType":"uint8"}],"stateMutability":"view"},{"type":"function","name":"decreaseAllowance","inputs":[{"name":"spender","type":"address","internalType":"address"},{"name":"subtractedValue","type":"uint256","internalType":"uint256"}],"outputs":[{"name":"","type":"bool","internalType":"bool"}],"stateMutability":"nonpayable"},{"type":"function","name":"getExchangeRate","inputs":[{"name":"asset_","type":"uint8","internalType":"enum QuoteAsset"}],"outputs":[{"name":"","type":"uint256","internalType":"uint256"}],"stateMutability":"view"},{"type":"function","name":"getExchangeRate","inputs":[],"outputs":[{"name":"","type":"uint256","internalType":"uint256"}],"stateMutability":"view"},{"type":"function","name":"getOZ","inputs":[],"outputs":[{"name":"","type":"address","internalType":"contract ozIDiamond"}],"stateMutability":"view"},{"type":"function","name":"increaseAllowance","inputs":[{"name":"spender","type":"address","internalType":"address"},{"name":"addedValue","type":"uint256","internalType":"uint256"}],"outputs":[{"name":"","type":"bool","internalType":"bool"}],"stateMutability":"nonpayable"},{"type":"function","name":"initialize","inputs":[{"name":"name_","type":"string","internalType":"string"},{"name":"symbol_","type":"string","internalType":"string"},{"name":"ozDiamond_","type":"address","internalType":"address"},{"name":"teamVestingWallet_","type":"address","internalType":"address"},{"name":"guildVestingWallet_","type":"address","internalType":"address"},{"name":"totalSupply_","type":"uint256","internalType":"uint256"},{"name":"communityAmount_","type":"uint256","internalType":"uint256"},{"name":"teamAmount_","type":"uint256","internalType":"uint256"},{"name":"guildAmount_","type":"uint256","internalType":"uint256"}],"outputs":[],"stateMutability":"nonpayable"},{"type":"function","name":"name","inputs":[],"outputs":[{"name":"","type":"string","internalType":"string"}],"stateMutability":"view"},{"type":"function","name":"nonces","inputs":[{"name":"owner","type":"address","internalType":"address"}],"outputs":[{"name":"","type":"uint256","internalType":"uint256"}],"stateMutability":"view"},{"type":"function","name":"pendingAlloc","inputs":[],"outputs":[{"name":"","type":"uint256","internalType":"uint256"}],"stateMutability":"view"},{"type":"function","name":"permit","inputs":[{"name":"owner","type":"address","internalType":"address"},{"name":"spender","type":"address","internalType":"address"},{"name":"value","type":"uint256","internalType":"uint256"},{"name":"deadline","type":"uint256","internalType":"uint256"},{"name":"v","type":"uint8","internalType":"uint8"},{"name":"r","type":"bytes32","internalType":"bytes32"},{"name":"s_","type":"bytes32","internalType":"bytes32"}],"outputs":[],"stateMutability":"nonpayable"},{"type":"function","name":"recicledSupply","inputs":[],"outputs":[{"name":"","type":"uint256","internalType":"uint256"}],"stateMutability":"view"},{"type":"function","name":"redeem","inputs":[{"name":"owner_","type":"address","internalType":"address"},{"name":"receiver_","type":"address","internalType":"address"},{"name":"tokenOut_","type":"address","internalType":"address"},{"name":"ozlAmountIn_","type":"uint256","internalType":"uint256"},{"name":"minAmountsOut_","type":"uint256[]","internalType":"uint256[]"}],"outputs":[{"name":"amountOut","type":"uint256","internalType":"uint256"}],"stateMutability":"nonpayable"},{"type":"function","name":"symbol","inputs":[],"outputs":[{"name":"","type":"string","internalType":"string"}],"stateMutability":"view"},{"type":"function","name":"totalSupply","inputs":[],"outputs":[{"name":"","type":"uint256","internalType":"uint256"}],"stateMutability":"view"},{"type":"function","name":"transfer","inputs":[{"name":"to","type":"address","internalType":"address"},{"name":"amount","type":"uint256","internalType":"uint256"}],"outputs":[{"name":"","type":"bool","internalType":"bool"}],"stateMutability":"nonpayable"},{"type":"function","name":"transferFrom","inputs":[{"name":"from","type":"address","internalType":"address"},{"name":"to","type":"address","internalType":"address"},{"name":"amount","type":"uint256","internalType":"uint256"}],"outputs":[{"name":"","type":"bool","internalType":"bool"}],"stateMutability":"nonpayable"},{"type":"event","name":"Allocated","inputs":[{"name":"receiver","type":"address","indexed":true,"internalType":"address"},{"name":"amount","type":"uint256","indexed":true,"internalType":"uint256"}],"anonymous":false},{"type":"event","name":"Approval","inputs":[{"name":"owner","type":"address","indexed":true,"internalType":"address"},{"name":"spender","type":"address","indexed":true,"internalType":"address"},{"name":"value","type":"uint256","indexed":false,"internalType":"uint256"}],"anonymous":false},{"type":"event","name":"Initialized","inputs":[{"name":"version","type":"uint8","indexed":false,"internalType":"uint8"}],"anonymous":false},{"type":"event","name":"Transfer","inputs":[{"name":"from","type":"address","indexed":true,"internalType":"address"},{"name":"to","type":"address","indexed":true,"internalType":"address"},{"name":"value","type":"uint256","indexed":false,"internalType":"uint256"}],"anonymous":false},{"type":"error","name":"OZError08","inputs":[{"name":"deadline","type":"uint256","internalType":"uint256"},{"name":"blockTimestamp","type":"uint256","internalType":"uint256"}]},{"type":"error","name":"OZError09","inputs":[{"name":"owner","type":"address","internalType":"address"},{"name":"spender","type":"address","internalType":"address"}]},{"type":"error","name":"OZError18","inputs":[{"name":"tokenOut","type":"address","internalType":"address"}]},{"type":"error","name":"OZError19","inputs":[{"name":"amount","type":"uint256","internalType":"uint256"}]},{"type":"error","name":"OZError34","inputs":[{"name":"amount","type":"uint256","internalType":"uint256"}]}],"bytecode":{"object":"0x60806040523480156200001157600080fd5b506200001c62000022565b620000e4565b600054610100900460ff16156200008f5760405162461bcd60e51b815260206004820152602760248201527f496e697469616c697a61626c653a20636f6e747261637420697320696e697469604482015266616c697a696e6760c81b606482015260840160405180910390fd5b60005460ff9081161015620000e2576000805460ff191660ff9081179091556040519081527f7f26b83ff96e1f2b6a682f133852f6798a09c465da95921460cefb38474024989060200160405180910390a15b565b61260b80620000f46000396000f3fe608060405234801561001057600080fd5b506004361061014d5760003560e01c806370a08231116100c3578063a9059cbb1161007c578063a9059cbb146102a4578063b78b52df146102b7578063d505accf146102ca578063dd62ed3e146102dd578063e6aa216c146102f0578063ec11818c146102f857600080fd5b806370a082311461023d5780637ecebe00146102665780638b5f1a6b146102795780639358928b1461028157806395d89b4114610289578063a457c2d71461029157600080fd5b80633644e515116101155780633644e515146101c757806339509351146101cf5780634d02a3f7146101e257806359c64e12146101f557806364d4c78a146102155780636afa02871461022a57600080fd5b806306fdde0314610152578063095ea7b31461017057806318160ddd1461019357806323b872dd146101a5578063313ce567146101b8575b600080fd5b61015a610301565b6040516101679190611da5565b60405180910390f35b61018361017e366004611ddd565b610393565b6040519015158152602001610167565b6035545b604051908152602001610167565b6101836101b3366004611e09565b6103ad565b60405160128152602001610167565b6101976103d1565b6101836101dd366004611ddd565b6103e0565b6101976101f0366004611e4a565b610402565b6101fd610634565b6040516001600160a01b039091168152602001610167565b610228610223366004611f22565b610676565b005b610197610238366004612005565b61084a565b61019761024b3660046120df565b6001600160a01b031660009081526033602052604090205490565b6101976102743660046120df565b610ae3565b610197610b01565b610197610b77565b61015a610bee565b61018361029f366004611ddd565b610bfd565b6101836102b2366004611ddd565b610c78565b6102286102c5366004611ddd565b610c86565b6102286102d83660046120fc565b610d08565b6101976102eb366004612173565b610e1e565b610197610e49565b610197609a5481565b606060368054610310906121ac565b80601f016020809104026020016040519081016040528092919081815260200182805461033c906121ac565b80156103895780601f1061035e57610100808354040283529160200191610389565b820191906000526020600020905b81548152906001019060200180831161036c57829003601f168201915b5050505050905090565b6000336103a1818585610e55565b60019150505b92915050565b6000336103bb858285610f79565b6103c6858585610ff3565b506001949350505050565b60006103db6111c1565b905090565b6000336103a18185856103f38383610e1e565b6103fd91906121f6565b610e55565b6000670de0b6b3a7640000818061041761123c565b51905060005b818110156104d05761042d61123c565b818151811061043e5761043e612209565b60209081029190910101516040516370a0823160e01b81523060048201526001600160a01b03909116906370a0823190602401602060405180830381865afa15801561048e573d6000803e3d6000fd5b505050506040513d601f19601f820116820180604052508101906104b2919061221f565b6104bc90846121f6565b9250806104c881612238565b91505061041d565b50600060028660028111156104e7576104e7612251565b146104fb576104f686846112ab565b6104fd565b825b90506000610509610b77565b9050610523604051806020016040528060008152506113c8565b6105536040518060400160405280600e81526020016d03a37ba30b62332b2b9a629a21d160951b8152508561140e565b61057e60405180606001604052806027815260200161258a6027913961057989876112ab565b61140e565b6105b06040518060400160405280601081526020016f03a37ba30b62332b2b9a8bab7ba329d160851b8152508361140e565b60408051808201909152601981527f65786368616e67652072617465202d204f5a4c2f5553443a200000000000000060208201526105f390610579878585611457565b61060b604051806020016040528060008152506113c8565b8060000361061e57509295945050505050565b610629858383611457565b979650505050505050565b600061066761066460017f86ce1ea4932afb23386a483af3bf37658d9a562b0cc91e2c799fcb236cb30d57612267565b90565b546001600160a01b0316919050565b600054610100900460ff16158080156106965750600054600160ff909116105b806106b05750303b1580156106b0575060005460ff166001145b6107185760405162461bcd60e51b815260206004820152602e60248201527f496e697469616c697a61626c653a20636f6e747261637420697320616c72656160448201526d191e481a5b9a5d1a585b1a5e995960921b60648201526084015b60405180910390fd5b6000805460ff19166001179055801561073b576000805461ff0019166101001790555b6107458a8a611475565b6107688a604051806040016040528060018152602001603160f81b8152506114a6565b8761079761066460017f86ce1ea4932afb23386a483af3bf37658d9a562b0cc91e2c799fcb236cb30d57612267565b80546001600160a01b0319166001600160a01b03929092169190911790556107bf30866114d7565b6107ca308986610ff3565b6107d5308885610ff3565b6107e0308784610ff3565b816107eb8487612267565b6107f59190612267565b609a55801561083e576000805461ff0019169055604051600181527f7f26b83ff96e1f2b6a682f133852f6798a09c465da95921460cefb38474024989060200160405180910390a15b50505050505050505050565b600080610855610634565b9050600061086161123c565b60405163423f0b9160e01b81526001600160a01b03888116600483015291925060009184169063423f0b9190602401602060405180830381865afa1580156108ad573d6000803e3d6000fd5b505050506040513d601f19601f820116820180604052508101906108d1919061227a565b6001600160a01b03161480156108f0575060006108ee82886115b6565b125b156109195760405163d74ef47560e01b81526001600160a01b038716600482015260240161070f565b336001600160a01b0389161461093457610934883387610f79565b60006109536109436002610402565b8790670de0b6b3a7640000611457565b604051631567339f60e31b81526001600160a01b038b81166004830152306024830152604482018990529192509084169063ab399cf890606401600060405180830381600087803b1580156109a757600080fd5b505af11580156109bb573d6000803e3d6000fd5b50505050816000815181106109d2576109d2612209565b60200260200101516001600160a01b0316876001600160a01b031603610a5f5784600081518110610a0557610a05612209565b6020026020010151811015610a3057604051631aa1e78f60e31b81526004810182905260240161070f565b610a5582600081518110610a4657610a46612209565b6020026020010151898361161e565b9250610ada915050565b60405163094463e760e01b81526001600160a01b0384169063094463e790610a91908a908c9086908b90600401612297565b6020604051808303816000875af1158015610ab0573d6000803e3d6000fd5b505050506040513d601f19601f82011682018060405250810190610ad4919061221f565b93505050505b95945050505050565b6001600160a01b0381166000908152609960205260408120546103a7565b600080610b0c610634565b6001600160a01b0316637d098e646040518163ffffffff1660e01b815260040160a060405180830381865afa158015610b49573d6000803e3d6000fd5b505050506040513d601f19601f82011682018060405250810190610b6d9190612301565b5095945050505050565b600080610b82610634565b6001600160a01b0316637d098e646040518163ffffffff1660e01b815260040160a060405180830381865afa158015610bbf573d6000803e3d6000fd5b505050506040513d601f19601f82011682018060405250810190610be39190612301565b509195945050505050565b606060378054610310906121ac565b60003381610c0b8286610e1e565b905083811015610c6b5760405162461bcd60e51b815260206004820152602560248201527f45524332303a2064656372656173656420616c6c6f77616e63652062656c6f77604482015264207a65726f60d81b606482015260840161070f565b6103c68286868403610e55565b6000336103a1818585610ff3565b609a54811115610cac576040516345ecc85760e11b81526004810182905260240161070f565b610cb7308383610ff3565b80609a6000828254610cc99190612267565b909155505060405181906001600160a01b038416907f472f36e28bb47edb7c69c9e2ac00a77c66b505df54e9c818ac57110b0629e8c390600090a35050565b83421115610d325760405163184f1e0160e11b81526004810185905242602482015260440161070f565b60007f6e71edae12b1b97f4d1f60370fef10105fa2faae0126114a169c64845d6126c9888888610d618c611675565b6040805160208101969096526001600160a01b0394851690860152929091166060840152608083015260a082015260c0810186905260e0016040516020818303038152906040528051906020012090506000610dbc8261169d565b90506000610dcc828787876116eb565b9050896001600160a01b0316816001600160a01b031614610e1357604051635091bef560e01b81526001600160a01b0380831660048301528b16602482015260440161070f565b61083e8a8a8a610e55565b6001600160a01b03918216600090815260346020908152604080832093909416825291909152205490565b60006103db6000610402565b6001600160a01b038316610eb75760405162461bcd60e51b8152602060048201526024808201527f45524332303a20617070726f76652066726f6d20746865207a65726f206164646044820152637265737360e01b606482015260840161070f565b6001600160a01b038216610f185760405162461bcd60e51b815260206004820152602260248201527f45524332303a20617070726f766520746f20746865207a65726f206164647265604482015261737360f01b606482015260840161070f565b6001600160a01b0383811660008181526034602090815260408083209487168084529482529182902085905590518481527f8c5be1e5ebec7d5bd14f71427d1e84f3dd0314c0f7b2291e5b200ac8c7c3b925910160405180910390a3505050565b6000610f858484610e1e565b90506000198114610fed5781811015610fe05760405162461bcd60e51b815260206004820152601d60248201527f45524332303a20696e73756666696369656e7420616c6c6f77616e6365000000604482015260640161070f565b610fed8484848403610e55565b50505050565b6001600160a01b0383166110575760405162461bcd60e51b815260206004820152602560248201527f45524332303a207472616e736665722066726f6d20746865207a65726f206164604482015264647265737360d81b606482015260840161070f565b6001600160a01b0382166110b95760405162461bcd60e51b815260206004820152602360248201527f45524332303a207472616e7366657220746f20746865207a65726f206164647260448201526265737360e81b606482015260840161070f565b6001600160a01b038316600090815260336020526040902054818110156111315760405162461bcd60e51b815260206004820152602660248201527f45524332303a207472616e7366657220616d6f756e7420657863656564732062604482015265616c616e636560d01b606482015260840161070f565b6001600160a01b038085166000908152603360205260408082208585039055918516815290812080548492906111689084906121f6565b92505081905550826001600160a01b0316846001600160a01b03167fddf252ad1be2c89b69c2b068fc378daa952ba7f163c4a11628f55a4df523b3ef846040516111b491815260200190565b60405180910390a3610fed565b60006103db7f8b73c3c69bb8fe3d512ecc4cf759cc79239f7b179b0ffacaa9a75d522b39400f6111f060655490565b6066546040805160208101859052908101839052606081018290524660808201523060a082015260009060c0016040516020818303038152906040528051906020012090509392505050565b6060611246610634565b6001600160a01b03166338ab35d46040518163ffffffff1660e01b8152600401600060405180830381865afa158015611283573d6000803e3d6000fd5b505050506040513d6000823e601f3d908101601f191682016040526103db9190810190612341565b6000808360028111156112c0576112c0612251565b03611348576113416112d0610634565b6001600160a01b031663f424c4ba6040518163ffffffff1660e01b8152600401602060405180830381865afa15801561130d573d6000803e3d6000fd5b505050506040513d601f19601f82011682018060405250810190611331919061221f565b8390670de0b6b3a7640000611457565b90506103a7565b600183600281111561135c5761135c612251565b036103a7576040805160048152602481019091526020810180516001600160e01b0316636a57db9d60e11b17905261139b611395610634565b82611715565b90506000818060200190518101906113b3919061221f565b9050610ada8482670de0b6b3a7640000611457565b61140b816040516024016113dc9190611da5565b60408051601f198184030181529190526020810180516001600160e01b031663104c13eb60e21b179052611741565b50565b61145382826040516024016114249291906123d0565b60408051601f198184030181529190526020810180516001600160e01b03166309710a9d60e41b179052611741565b5050565b600082600019048411830215820261146e57600080fd5b5091020490565b600054610100900460ff1661149c5760405162461bcd60e51b815260040161070f906123f2565b6114538282611762565b600054610100900460ff166114cd5760405162461bcd60e51b815260040161070f906123f2565b61145382826117a2565b6001600160a01b03821661152d5760405162461bcd60e51b815260206004820152601f60248201527f45524332303a206d696e7420746f20746865207a65726f206164647265737300604482015260640161070f565b806035600082825461153f91906121f6565b90915550506001600160a01b0382166000908152603360205260408120805483929061156c9084906121f6565b90915550506040518181526001600160a01b038316906000907fddf252ad1be2c89b69c2b068fc378daa952ba7f163c4a11628f55a4df523b3ef9060200160405180910390a35050565b8151600090815b8181101561161257836001600160a01b03168582815181106115e1576115e1612209565b60200260200101516001600160a01b0316036116005791506103a79050565b8061160a81612238565b9150506115bd565b50600019949350505050565b604080516001600160a01b038416602482015260448082018490528251808303909101815260649091019091526020810180516001600160e01b031663a9059cbb60e01b1790526116709084906117e3565b505050565b6001600160a01b03811660009081526099602052604090208054600181018255905b50919050565b60006103a76116aa6111c1565b8360405161190160f01b6020820152602281018390526042810182905260009060620160405160208183030381529060405280519060200120905092915050565b60008060006116fc878787876118b8565b91509150611709816119a5565b5090505b949350505050565b606061173a83836040518060600160405280602581526020016125b160259139611b5b565b9392505050565b80516a636f6e736f6c652e6c6f67602083016000808483855afa5050505050565b600054610100900460ff166117895760405162461bcd60e51b815260040161070f906123f2565b6036611795838261248b565b506037611670828261248b565b600054610100900460ff166117c95760405162461bcd60e51b815260040161070f906123f2565b815160209283012081519190920120606591909155606655565b6000611838826040518060400160405280602081526020017f5361666545524332303a206c6f772d6c6576656c2063616c6c206661696c6564815250856001600160a01b0316611bd39092919063ffffffff16565b9050805160001480611859575080806020019051810190611859919061254b565b6116705760405162461bcd60e51b815260206004820152602a60248201527f5361666545524332303a204552433230206f7065726174696f6e20646964206e6044820152691bdd081cdd58d8d9595960b21b606482015260840161070f565b6000807f7fffffffffffffffffffffffffffffff5d576e7357a4501ddfe92f46681b20a08311156118ef575060009050600361199c565b8460ff16601b1415801561190757508460ff16601c14155b15611918575060009050600461199c565b6040805160008082526020820180845289905260ff881692820192909252606081018690526080810185905260019060a0016020604051602081039080840390855afa15801561196c573d6000803e3d6000fd5b5050604051601f1901519150506001600160a01b0381166119955760006001925092505061199c565b9150600090505b94509492505050565b60008160048111156119b9576119b9612251565b036119c15750565b60018160048111156119d5576119d5612251565b03611a225760405162461bcd60e51b815260206004820152601860248201527f45434453413a20696e76616c6964207369676e61747572650000000000000000604482015260640161070f565b6002816004811115611a3657611a36612251565b03611a835760405162461bcd60e51b815260206004820152601f60248201527f45434453413a20696e76616c6964207369676e6174757265206c656e67746800604482015260640161070f565b6003816004811115611a9757611a97612251565b03611aef5760405162461bcd60e51b815260206004820152602260248201527f45434453413a20696e76616c6964207369676e6174757265202773272076616c604482015261756560f01b606482015260840161070f565b6004816004811115611b0357611b03612251565b0361140b5760405162461bcd60e51b815260206004820152602260248201527f45434453413a20696e76616c6964207369676e6174757265202776272076616c604482015261756560f01b606482015260840161070f565b6060600080856001600160a01b031685604051611b78919061256d565b600060405180830381855afa9150503d8060008114611bb3576040519150601f19603f3d011682016040523d82523d6000602084013e611bb8565b606091505b5091509150611bc986838387611be2565b9695505050505050565b606061170d8484600085611c5b565b60608315611c51578251600003611c4a576001600160a01b0385163b611c4a5760405162461bcd60e51b815260206004820152601d60248201527f416464726573733a2063616c6c20746f206e6f6e2d636f6e7472616374000000604482015260640161070f565b508161170d565b61170d8383611d2b565b606082471015611cbc5760405162461bcd60e51b815260206004820152602660248201527f416464726573733a20696e73756666696369656e742062616c616e636520666f6044820152651c8818d85b1b60d21b606482015260840161070f565b600080866001600160a01b03168587604051611cd8919061256d565b60006040518083038185875af1925050503d8060008114611d15576040519150601f19603f3d011682016040523d82523d6000602084013e611d1a565b606091505b509150915061062987838387611be2565b815115611d3b5781518083602001fd5b8060405162461bcd60e51b815260040161070f9190611da5565b60005b83811015611d70578181015183820152602001611d58565b50506000910152565b60008151808452611d91816020860160208601611d55565b601f01601f19169290920160200192915050565b60208152600061173a6020830184611d79565b6001600160a01b038116811461140b57600080fd5b8035611dd881611db8565b919050565b60008060408385031215611df057600080fd5b8235611dfb81611db8565b946020939093013593505050565b600080600060608486031215611e1e57600080fd5b8335611e2981611db8565b92506020840135611e3981611db8565b929592945050506040919091013590565b600060208284031215611e5c57600080fd5b81356003811061173a57600080fd5b634e487b7160e01b600052604160045260246000fd5b604051601f8201601f1916810167ffffffffffffffff81118282101715611eaa57611eaa611e6b565b604052919050565b600082601f830112611ec357600080fd5b813567ffffffffffffffff811115611edd57611edd611e6b565b611ef0601f8201601f1916602001611e81565b818152846020838601011115611f0557600080fd5b816020850160208301376000918101602001919091529392505050565b60008060008060008060008060006101208a8c031215611f4157600080fd5b893567ffffffffffffffff80821115611f5957600080fd5b611f658d838e01611eb2565b9a5060208c0135915080821115611f7b57600080fd5b50611f888c828d01611eb2565b98505060408a0135611f9981611db8565b965060608a0135611fa981611db8565b9550611fb760808b01611dcd565b989b979a50959894979660a0860135965060c08601359560e0810135955061010001359350915050565b600067ffffffffffffffff821115611ffb57611ffb611e6b565b5060051b60200190565b600080600080600060a0868803121561201d57600080fd5b853561202881611db8565b945060208681013561203981611db8565b9450604087013561204981611db8565b935060608701359250608087013567ffffffffffffffff81111561206c57600080fd5b8701601f8101891361207d57600080fd5b803561209061208b82611fe1565b611e81565b81815260059190911b8201830190838101908b8311156120af57600080fd5b928401925b828410156120cd578335825292840192908401906120b4565b80955050505050509295509295909350565b6000602082840312156120f157600080fd5b813561173a81611db8565b600080600080600080600060e0888a03121561211757600080fd5b873561212281611db8565b9650602088013561213281611db8565b95506040880135945060608801359350608088013560ff8116811461215657600080fd5b9699959850939692959460a0840135945060c09093013592915050565b6000806040838503121561218657600080fd5b823561219181611db8565b915060208301356121a181611db8565b809150509250929050565b600181811c908216806121c057607f821691505b60208210810361169757634e487b7160e01b600052602260045260246000fd5b634e487b7160e01b600052601160045260246000fd5b808201808211156103a7576103a76121e0565b634e487b7160e01b600052603260045260246000fd5b60006020828403121561223157600080fd5b5051919050565b60006001820161224a5761224a6121e0565b5060010190565b634e487b7160e01b600052602160045260246000fd5b818103818111156103a7576103a76121e0565b60006020828403121561228c57600080fd5b815161173a81611db8565b6001600160a01b03858116825284166020808301919091526040820184905260806060830181905283519083018190526000918481019160a085019190845b818110156122f2578451845293820193928201926001016122d6565b50919998505050505050505050565b600080600080600060a0868803121561231957600080fd5b5050835160208501516040860151606087015160809097015192989197509594509092509050565b6000602080838503121561235457600080fd5b825167ffffffffffffffff81111561236b57600080fd5b8301601f8101851361237c57600080fd5b805161238a61208b82611fe1565b81815260059190911b820183019083810190878311156123a957600080fd5b928401925b828410156106295783516123c181611db8565b825292840192908401906123ae565b6040815260006123e36040830185611d79565b90508260208301529392505050565b6020808252602b908201527f496e697469616c697a61626c653a20636f6e7472616374206973206e6f74206960408201526a6e697469616c697a696e6760a81b606082015260800190565b601f82111561167057600081815260208120601f850160051c810160208610156124645750805b601f850160051c820191505b8181101561248357828155600101612470565b505050505050565b815167ffffffffffffffff8111156124a5576124a5611e6b565b6124b9816124b384546121ac565b8461243d565b602080601f8311600181146124ee57600084156124d65750858301515b600019600386901b1c1916600185901b178555612483565b600085815260208120601f198616915b8281101561251d578886015182559484019460019091019084016124fe565b508582101561253b5787850151600019600388901b60f8161c191681555b5050505050600190811b01905550565b60006020828403121561255d57600080fd5b8151801515811461173a57600080fd5b6000825161257f818460208701611d55565b919091019291505056fe5f636f6e76657274546f51756f74652861737365745f2c20746f74616c466565734c5344293a20416464726573733a206c6f772d6c6576656c207374617469632063616c6c206661696c6564a264697066735822122004c64c9ad575a38b7b9f4acc3c45295d8e04eb7095625a33a5008dcc9aca22f064736f6c63430008150033","linkReferences":{}},"methodIdentifiers":{"DOMAIN_SEPARATOR()":"3644e515","allocate(address,uint256)":"b78b52df","allowance(address,address)":"dd62ed3e","approve(address,uint256)":"095ea7b3","balanceOf(address)":"70a08231","circulatingSupply()":"9358928b","decimals()":"313ce567","decreaseAllowance(address,uint256)":"a457c2d7","getExchangeRate()":"e6aa216c","getExchangeRate(uint8)":"4d02a3f7","getOZ()":"59c64e12","increaseAllowance(address,uint256)":"39509351","initialize(string,string,address,address,address,uint256,uint256,uint256,uint256)":"64d4c78a","name()":"06fdde03","nonces(address)":"7ecebe00","pendingAlloc()":"ec11818c","permit(address,address,uint256,uint256,uint8,bytes32,bytes32)":"d505accf","recicledSupply()":"8b5f1a6b","redeem(address,address,address,uint256,uint256[])":"6afa0287","symbol()":"95d89b41","totalSupply()":"18160ddd","transfer(address,uint256)":"a9059cbb","transferFrom(address,address,uint256)":"23b872dd"},"id":4}