{
  "abi": [
    {
      "inputs": [],
      "stateMutability": "nonpayable",
      "type": "constructor"
    },
    {
      "anonymous": false,
      "inputs": [
        {
          "indexed": true,
          "internalType": "address",
          "name": "owner",
          "type": "address"
        },
        {
          "indexed": true,
          "internalType": "address",
          "name": "spender",
          "type": "address"
        },
        {
          "indexed": false,
          "internalType": "uint256",
          "name": "value",
          "type": "uint256"
        }
      ],
      "name": "Approval",
      "type": "event"
    },
    {
      "anonymous": false,
      "inputs": [
        {
          "indexed": false,
          "internalType": "uint8",
          "name": "version",
          "type": "uint8"
        }
      ],
      "name": "Initialized",
      "type": "event"
    },
    {
      "anonymous": false,
      "inputs": [
        {
          "indexed": true,
          "internalType": "address",
          "name": "from",
          "type": "address"
        },
        {
          "indexed": true,
          "internalType": "address",
          "name": "to",
          "type": "address"
        },
        {
          "indexed": false,
          "internalType": "uint256",
          "name": "value",
          "type": "uint256"
        }
      ],
      "name": "Transfer",
      "type": "event"
    },
    {
      "inputs": [
        {
          "internalType": "address",
          "name": "owner",
          "type": "address"
        },
        {
          "internalType": "address",
          "name": "spender",
          "type": "address"
        }
      ],
      "name": "allowance",
      "outputs": [
        {
          "internalType": "uint256",
          "name": "",
          "type": "uint256"
        }
      ],
      "stateMutability": "view",
      "type": "function"
    },
    {
      "inputs": [
        {
          "internalType": "address",
          "name": "spender",
          "type": "address"
        },
        {
          "internalType": "uint256",
          "name": "amount",
          "type": "uint256"
        }
      ],
      "name": "approve",
      "outputs": [
        {
          "internalType": "bool",
          "name": "",
          "type": "bool"
        }
      ],
      "stateMutability": "nonpayable",
      "type": "function"
    },
    {
      "inputs": [
        {
          "internalType": "address",
          "name": "account",
          "type": "address"
        }
      ],
      "name": "balanceOf",
      "outputs": [
        {
          "internalType": "uint256",
          "name": "",
          "type": "uint256"
        }
      ],
      "stateMutability": "view",
      "type": "function"
    },
    {
      "inputs": [],
      "name": "decimals",
      "outputs": [
        {
          "internalType": "uint8",
          "name": "",
          "type": "uint8"
        }
      ],
      "stateMutability": "view",
      "type": "function"
    },
    {
      "inputs": [
        {
          "internalType": "address",
          "name": "spender",
          "type": "address"
        },
        {
          "internalType": "uint256",
          "name": "subtractedValue",
          "type": "uint256"
        }
      ],
      "name": "decreaseAllowance",
      "outputs": [
        {
          "internalType": "bool",
          "name": "",
          "type": "bool"
        }
      ],
      "stateMutability": "nonpayable",
      "type": "function"
    },
    {
      "inputs": [],
      "name": "getBal",
      "outputs": [],
      "stateMutability": "view",
      "type": "function"
    },
    {
      "inputs": [],
      "name": "getRewards",
      "outputs": [],
      "stateMutability": "view",
      "type": "function"
    },
    {
      "inputs": [
        {
          "internalType": "address",
          "name": "spender",
          "type": "address"
        },
        {
          "internalType": "uint256",
          "name": "addedValue",
          "type": "uint256"
        }
      ],
      "name": "increaseAllowance",
      "outputs": [
        {
          "internalType": "bool",
          "name": "",
          "type": "bool"
        }
      ],
      "stateMutability": "nonpayable",
      "type": "function"
    },
    {
      "inputs": [
        {
          "internalType": "string",
          "name": "name_",
          "type": "string"
        },
        {
          "internalType": "string",
          "name": "symbol_",
          "type": "string"
        }
      ],
      "name": "initialize",
      "outputs": [],
      "stateMutability": "nonpayable",
      "type": "function"
    },
    {
      "inputs": [],
      "name": "name",
      "outputs": [
        {
          "internalType": "string",
          "name": "",
          "type": "string"
        }
      ],
      "stateMutability": "view",
      "type": "function"
    },
    {
      "inputs": [],
      "name": "symbol",
      "outputs": [
        {
          "internalType": "string",
          "name": "",
          "type": "string"
        }
      ],
      "stateMutability": "view",
      "type": "function"
    },
    {
      "inputs": [],
      "name": "totalSupply",
      "outputs": [
        {
          "internalType": "uint256",
          "name": "",
          "type": "uint256"
        }
      ],
      "stateMutability": "view",
      "type": "function"
    },
    {
      "inputs": [
        {
          "internalType": "address",
          "name": "to",
          "type": "address"
        },
        {
          "internalType": "uint256",
          "name": "amount",
          "type": "uint256"
        }
      ],
      "name": "transfer",
      "outputs": [
        {
          "internalType": "bool",
          "name": "",
          "type": "bool"
        }
      ],
      "stateMutability": "nonpayable",
      "type": "function"
    },
    {
      "inputs": [
        {
          "internalType": "address",
          "name": "from",
          "type": "address"
        },
        {
          "internalType": "address",
          "name": "to",
          "type": "address"
        },
        {
          "internalType": "uint256",
          "name": "amount",
          "type": "uint256"
        }
      ],
      "name": "transferFrom",
      "outputs": [
        {
          "internalType": "bool",
          "name": "",
          "type": "bool"
        }
      ],
      "stateMutability": "nonpayable",
      "type": "function"
    }
  ],
  "bytecode": {
    "object": "0x608060405234801561001057600080fd5b5061001961001e565b6100de565b600054610100900460ff161561008a5760405162461bcd60e51b815260206004820152602760248201527f496e697469616c697a61626c653a20636f6e747261637420697320696e697469604482015266616c697a696e6760c81b606482015260840160405180910390fd5b60005460ff90811610156100dc576000805460ff191660ff9081179091556040519081527f7f26b83ff96e1f2b6a682f133852f6798a09c465da95921460cefb38474024989060200160405180910390a15b565b610e8e806100ed6000396000f3fe608060405234801561001057600080fd5b50600436106100ea5760003560e01c8063395093511161008c57806395d89b411161006657806395d89b41146101c5578063a457c2d7146101cd578063a9059cbb146101e0578063dd62ed3e146101f357600080fd5b806339509351146101765780634cd88b761461018957806370a082311461019c57600080fd5b806318160ddd116100c857806318160ddd1461013a57806323b872dd1461014c57806325caa2621461015f578063313ce5671461016757600080fd5b80630572b0cc146100ef57806306fdde03146100f9578063095ea7b314610117575b600080fd5b6100f7610206565b005b610101610230565b60405161010e9190610a78565b60405180910390f35b61012a610125366004610aae565b6102c2565b604051901515815260200161010e565b6035545b60405190815260200161010e565b61012a61015a366004610ad8565b6102dc565b6100f7610300565b6040516012815260200161010e565b61012a610184366004610aae565b6103aa565b6100f7610197366004610bb7565b6103cc565b61013e6101aa366004610c1b565b6001600160a01b031660009081526033602052604090205490565b6101016104e6565b61012a6101db366004610aae565b6104f5565b61012a6101ee366004610aae565b610570565b61013e610201366004610c36565b61057e565b61022e6040518060400160405280600781526020016668656c6c6f6f6f60c81b8152506105a9565b565b60606036805461023f90610c69565b80601f016020809104026020016040519081016040528092919081815260200182805461026b90610c69565b80156102b85780601f1061028d576101008083540402835291602001916102b8565b820191906000526020600020905b81548152906001019060200180831161029b57829003601f168201915b5050505050905090565b6000336102d08185856105ef565b60019150505b92915050565b6000336102ea858285610713565b6102f585858561078d565b506001949350505050565b6040516370a0823160e01b815230600482015273ae78736cd615f374d3085123a210448e74fc63939060009082906370a0823190602401602060405180830381865afa158015610354573d6000803e3d6000fd5b505050506040513d601f19601f820116820180604052508101906103789190610ca3565b90506103a66040518060400160405280600a81526020016903922aa24103130b61d160b51b8152508261095b565b5050565b6000336102d08185856103bd838361057e565b6103c79190610cbc565b6105ef565b600054610100900460ff16158080156103ec5750600054600160ff909116105b806104065750303b158015610406575060005460ff166001145b61046e5760405162461bcd60e51b815260206004820152602e60248201527f496e697469616c697a61626c653a20636f6e747261637420697320616c72656160448201526d191e481a5b9a5d1a585b1a5e995960921b60648201526084015b60405180910390fd5b6000805460ff191660011790558015610491576000805461ff0019166101001790555b61049b83836109a0565b80156104e1576000805461ff0019169055604051600181527f7f26b83ff96e1f2b6a682f133852f6798a09c465da95921460cefb38474024989060200160405180910390a15b505050565b60606037805461023f90610c69565b60003381610503828661057e565b9050838110156105635760405162461bcd60e51b815260206004820152602560248201527f45524332303a2064656372656173656420616c6c6f77616e63652062656c6f77604482015264207a65726f60d81b6064820152608401610465565b6102f582868684036105ef565b6000336102d081858561078d565b6001600160a01b03918216600090815260346020908152604080832093909416825291909152205490565b6105ec816040516024016105bd9190610a78565b60408051601f198184030181529190526020810180516001600160e01b031663104c13eb60e21b1790526109d1565b50565b6001600160a01b0383166106515760405162461bcd60e51b8152602060048201526024808201527f45524332303a20617070726f76652066726f6d20746865207a65726f206164646044820152637265737360e01b6064820152608401610465565b6001600160a01b0382166106b25760405162461bcd60e51b815260206004820152602260248201527f45524332303a20617070726f766520746f20746865207a65726f206164647265604482015261737360f01b6064820152608401610465565b6001600160a01b0383811660008181526034602090815260408083209487168084529482529182902085905590518481527f8c5be1e5ebec7d5bd14f71427d1e84f3dd0314c0f7b2291e5b200ac8c7c3b925910160405180910390a3505050565b600061071f848461057e565b90506000198114610787578181101561077a5760405162461bcd60e51b815260206004820152601d60248201527f45524332303a20696e73756666696369656e7420616c6c6f77616e63650000006044820152606401610465565b61078784848484036105ef565b50505050565b6001600160a01b0383166107f15760405162461bcd60e51b815260206004820152602560248201527f45524332303a207472616e736665722066726f6d20746865207a65726f206164604482015264647265737360d81b6064820152608401610465565b6001600160a01b0382166108535760405162461bcd60e51b815260206004820152602360248201527f45524332303a207472616e7366657220746f20746865207a65726f206164647260448201526265737360e81b6064820152608401610465565b6001600160a01b038316600090815260336020526040902054818110156108cb5760405162461bcd60e51b815260206004820152602660248201527f45524332303a207472616e7366657220616d6f756e7420657863656564732062604482015265616c616e636560d01b6064820152608401610465565b6001600160a01b03808516600090815260336020526040808220858503905591851681529081208054849290610902908490610cbc565b92505081905550826001600160a01b0316846001600160a01b03167fddf252ad1be2c89b69c2b068fc378daa952ba7f163c4a11628f55a4df523b3ef8460405161094e91815260200190565b60405180910390a3610787565b6103a68282604051602401610971929190610cdd565b60408051601f198184030181529190526020810180516001600160e01b03166309710a9d60e41b1790526109d1565b600054610100900460ff166109c75760405162461bcd60e51b815260040161046590610cff565b6103a682826109f2565b80516a636f6e736f6c652e6c6f67602083016000808483855afa5050505050565b600054610100900460ff16610a195760405162461bcd60e51b815260040161046590610cff565b6036610a258382610d98565b5060376104e18282610d98565b6000815180845260005b81811015610a5857602081850181015186830182015201610a3c565b506000602082860101526020601f19601f83011685010191505092915050565b602081526000610a8b6020830184610a32565b9392505050565b80356001600160a01b0381168114610aa957600080fd5b919050565b60008060408385031215610ac157600080fd5b610aca83610a92565b946020939093013593505050565b600080600060608486031215610aed57600080fd5b610af684610a92565b9250610b0460208501610a92565b9150604084013590509250925092565b634e487b7160e01b600052604160045260246000fd5b600082601f830112610b3b57600080fd5b813567ffffffffffffffff80821115610b5657610b56610b14565b604051601f8301601f19908116603f01168101908282118183101715610b7e57610b7e610b14565b81604052838152866020858801011115610b9757600080fd5b836020870160208301376000602085830101528094505050505092915050565b60008060408385031215610bca57600080fd5b823567ffffffffffffffff80821115610be257600080fd5b610bee86838701610b2a565b93506020850135915080821115610c0457600080fd5b50610c1185828601610b2a565b9150509250929050565b600060208284031215610c2d57600080fd5b610a8b82610a92565b60008060408385031215610c4957600080fd5b610c5283610a92565b9150610c6060208401610a92565b90509250929050565b600181811c90821680610c7d57607f821691505b602082108103610c9d57634e487b7160e01b600052602260045260246000fd5b50919050565b600060208284031215610cb557600080fd5b5051919050565b808201808211156102d657634e487b7160e01b600052601160045260246000fd5b604081526000610cf06040830185610a32565b90508260208301529392505050565b6020808252602b908201527f496e697469616c697a61626c653a20636f6e7472616374206973206e6f74206960408201526a6e697469616c697a696e6760a81b606082015260800190565b601f8211156104e157600081815260208120601f850160051c81016020861015610d715750805b601f850160051c820191505b81811015610d9057828155600101610d7d565b505050505050565b815167ffffffffffffffff811115610db257610db2610b14565b610dc681610dc08454610c69565b84610d4a565b602080601f831160018114610dfb5760008415610de35750858301515b600019600386901b1c1916600185901b178555610d90565b600085815260208120601f198616915b82811015610e2a57888601518255948401946001909101908401610e0b565b5085821015610e485787850151600019600388901b60f8161c191681555b5050505050600190811b0190555056fea26469706673582212206ad84e514f4a51a06afe21f59ae777da8d597bec76e10b88ab847be4ca4dcc0864736f6c63430008150033",
    "linkReferences": {}
  },
  "methodIdentifiers": {
    "allowance(address,address)": "dd62ed3e",
    "approve(address,uint256)": "095ea7b3",
    "balanceOf(address)": "70a08231",
    "decimals()": "313ce567",
    "decreaseAllowance(address,uint256)": "a457c2d7",
    "getBal()": "25caa262",
    "getRewards()": "0572b0cc",
    "increaseAllowance(address,uint256)": "39509351",
    "initialize(string,string)": "4cd88b76",
    "name()": "06fdde03",
    "symbol()": "95d89b41",
    "totalSupply()": "18160ddd",
    "transfer(address,uint256)": "a9059cbb",
    "transferFrom(address,address,uint256)": "23b872dd"
  },
  "id": 3
}