{
  "abi": [
    {
      "inputs": [],
      "stateMutability": "nonpayable",
      "type": "constructor"
    },
    {
      "inputs": [],
      "name": "AssetOutNoExist",
      "type": "error"
    },
    {
      "anonymous": false,
      "inputs": [
        {
          "indexed": true,
          "internalType": "address",
          "name": "owner",
          "type": "address"
        },
        {
          "indexed": true,
          "internalType": "address",
          "name": "spender",
          "type": "address"
        },
        {
          "indexed": false,
          "internalType": "uint256",
          "name": "value",
          "type": "uint256"
        }
      ],
      "name": "Approval",
      "type": "event"
    },
    {
      "anonymous": false,
      "inputs": [
        {
          "indexed": false,
          "internalType": "uint8",
          "name": "version",
          "type": "uint8"
        }
      ],
      "name": "Initialized",
      "type": "event"
    },
    {
      "anonymous": false,
      "inputs": [
        {
          "indexed": true,
          "internalType": "address",
          "name": "from",
          "type": "address"
        },
        {
          "indexed": true,
          "internalType": "address",
          "name": "to",
          "type": "address"
        },
        {
          "indexed": false,
          "internalType": "uint256",
          "name": "value",
          "type": "uint256"
        }
      ],
      "name": "Transfer",
      "type": "event"
    },
    {
      "inputs": [
        {
          "internalType": "address",
          "name": "owner",
          "type": "address"
        },
        {
          "internalType": "address",
          "name": "spender",
          "type": "address"
        }
      ],
      "name": "allowance",
      "outputs": [
        {
          "internalType": "uint256",
          "name": "",
          "type": "uint256"
        }
      ],
      "stateMutability": "view",
      "type": "function"
    },
    {
      "inputs": [
        {
          "internalType": "address",
          "name": "spender",
          "type": "address"
        },
        {
          "internalType": "uint256",
          "name": "amount",
          "type": "uint256"
        }
      ],
      "name": "approve",
      "outputs": [
        {
          "internalType": "bool",
          "name": "",
          "type": "bool"
        }
      ],
      "stateMutability": "nonpayable",
      "type": "function"
    },
    {
      "inputs": [
        {
          "internalType": "address",
          "name": "account",
          "type": "address"
        }
      ],
      "name": "balanceOf",
      "outputs": [
        {
          "internalType": "uint256",
          "name": "",
          "type": "uint256"
        }
      ],
      "stateMutability": "view",
      "type": "function"
    },
    {
      "inputs": [],
      "name": "circulatingSupply",
      "outputs": [
        {
          "internalType": "uint256",
          "name": "",
          "type": "uint256"
        }
      ],
      "stateMutability": "view",
      "type": "function"
    },
    {
      "inputs": [],
      "name": "decimals",
      "outputs": [
        {
          "internalType": "uint8",
          "name": "",
          "type": "uint8"
        }
      ],
      "stateMutability": "view",
      "type": "function"
    },
    {
      "inputs": [
        {
          "internalType": "address",
          "name": "spender",
          "type": "address"
        },
        {
          "internalType": "uint256",
          "name": "subtractedValue",
          "type": "uint256"
        }
      ],
      "name": "decreaseAllowance",
      "outputs": [
        {
          "internalType": "bool",
          "name": "",
          "type": "bool"
        }
      ],
      "stateMutability": "nonpayable",
      "type": "function"
    },
    {
      "inputs": [],
      "name": "getBal",
      "outputs": [
        {
          "internalType": "uint256",
          "name": "",
          "type": "uint256"
        }
      ],
      "stateMutability": "view",
      "type": "function"
    },
    {
      "inputs": [
        {
          "internalType": "enum QuoteAsset",
          "name": "asset_",
          "type": "uint8"
        }
      ],
      "name": "getExchangeRate",
      "outputs": [
        {
          "internalType": "uint256",
          "name": "",
          "type": "uint256"
        }
      ],
      "stateMutability": "view",
      "type": "function"
    },
    {
      "inputs": [],
      "name": "getExchangeRate",
      "outputs": [
        {
          "internalType": "uint256",
          "name": "",
          "type": "uint256"
        }
      ],
      "stateMutability": "view",
      "type": "function"
    },
    {
      "inputs": [],
      "name": "getOZ",
      "outputs": [
        {
          "internalType": "contract ozIDiamond",
          "name": "",
          "type": "address"
        }
      ],
      "stateMutability": "view",
      "type": "function"
    },
    {
      "inputs": [
        {
          "internalType": "address",
          "name": "spender",
          "type": "address"
        },
        {
          "internalType": "uint256",
          "name": "addedValue",
          "type": "uint256"
        }
      ],
      "name": "increaseAllowance",
      "outputs": [
        {
          "internalType": "bool",
          "name": "",
          "type": "bool"
        }
      ],
      "stateMutability": "nonpayable",
      "type": "function"
    },
    {
      "inputs": [
        {
          "internalType": "string",
          "name": "name_",
          "type": "string"
        },
        {
          "internalType": "string",
          "name": "symbol_",
          "type": "string"
        },
        {
          "internalType": "address",
          "name": "ozDiamond_",
          "type": "address"
        },
        {
          "internalType": "uint256",
          "name": "totalSupply_",
          "type": "uint256"
        },
        {
          "internalType": "uint256",
          "name": "communityAmount_",
          "type": "uint256"
        }
      ],
      "name": "initialize",
      "outputs": [],
      "stateMutability": "nonpayable",
      "type": "function"
    },
    {
      "inputs": [],
      "name": "name",
      "outputs": [
        {
          "internalType": "string",
          "name": "",
          "type": "string"
        }
      ],
      "stateMutability": "view",
      "type": "function"
    },
    {
      "inputs": [
        {
          "internalType": "address",
          "name": "owner_",
          "type": "address"
        },
        {
          "internalType": "address",
          "name": "receiver_",
          "type": "address"
        },
        {
          "internalType": "address",
          "name": "tokenOut_",
          "type": "address"
        },
        {
          "internalType": "uint256",
          "name": "ozlAmountIn_",
          "type": "uint256"
        },
        {
          "internalType": "uint256",
          "name": "minAmountOut_",
          "type": "uint256"
        }
      ],
      "name": "redeem",
      "outputs": [],
      "stateMutability": "nonpayable",
      "type": "function"
    },
    {
      "inputs": [],
      "name": "symbol",
      "outputs": [
        {
          "internalType": "string",
          "name": "",
          "type": "string"
        }
      ],
      "stateMutability": "view",
      "type": "function"
    },
    {
      "inputs": [],
      "name": "totalSupply",
      "outputs": [
        {
          "internalType": "uint256",
          "name": "",
          "type": "uint256"
        }
      ],
      "stateMutability": "view",
      "type": "function"
    },
    {
      "inputs": [
        {
          "internalType": "address",
          "name": "to",
          "type": "address"
        },
        {
          "internalType": "uint256",
          "name": "amount",
          "type": "uint256"
        }
      ],
      "name": "transfer",
      "outputs": [
        {
          "internalType": "bool",
          "name": "",
          "type": "bool"
        }
      ],
      "stateMutability": "nonpayable",
      "type": "function"
    },
    {
      "inputs": [
        {
          "internalType": "address",
          "name": "from",
          "type": "address"
        },
        {
          "internalType": "address",
          "name": "to",
          "type": "address"
        },
        {
          "internalType": "uint256",
          "name": "amount",
          "type": "uint256"
        }
      ],
      "name": "transferFrom",
      "outputs": [
        {
          "internalType": "bool",
          "name": "",
          "type": "bool"
        }
      ],
      "stateMutability": "nonpayable",
      "type": "function"
    }
  ],
  "bytecode": {
    "object": "0x608060405234801561001057600080fd5b5061001961001e565b6100de565b600054610100900460ff161561008a5760405162461bcd60e51b815260206004820152602760248201527f496e697469616c697a61626c653a20636f6e747261637420697320696e697469604482015266616c697a696e6760c81b606482015260840160405180910390fd5b60005460ff90811610156100dc576000805460ff191660ff9081179091556040519081527f7f26b83ff96e1f2b6a682f133852f6798a09c465da95921460cefb38474024989060200160405180910390a15b565b611b26806100ed6000396000f3fe608060405234801561001057600080fd5b50600436106101165760003560e01c806370a08231116100a2578063a457c2d711610071578063a457c2d71461022c578063a9059cbb1461023f578063be78b2ba14610252578063dd62ed3e14610265578063e6aa216c1461027857600080fd5b806370a08231146101de57806374823132146102075780639358928b1461021c57806395d89b411461022457600080fd5b806325caa262116100e957806325caa26214610181578063313ce5671461018957806339509351146101985780634d02a3f7146101ab57806359c64e12146101be57600080fd5b806306fdde031461011b578063095ea7b31461013957806318160ddd1461015c57806323b872dd1461016e575b600080fd5b610123610280565b6040516101309190611591565b60405180910390f35b61014c6101473660046115bc565b610312565b6040519015158152602001610130565b6035545b604051908152602001610130565b61014c61017c3660046115e8565b61032c565b610160610350565b60405160128152602001610130565b61014c6101a63660046115bc565b61040e565b6101606101b9366004611629565b610430565b6101c66104f5565b6040516001600160a01b039091168152602001610130565b6101606101ec36600461164a565b6001600160a01b031660009081526033602052604090205490565b61021a61021536600461170a565b610537565b005b6101606106b6565b610123610726565b61014c61023a3660046115bc565b610735565b61014c61024d3660046115bc565b6107b0565b61021a610260366004611792565b6107be565b6101606102733660046117d5565b610952565b61016061097d565b60606036805461028f9061180e565b80601f01602080910402602001604051908101604052809291908181526020018280546102bb9061180e565b80156103085780601f106102dd57610100808354040283529160200191610308565b820191906000526020600020905b8154815290600101906020018083116102eb57829003601f168201915b5050505050905090565b6000336103208185856109c0565b60019150505b92915050565b60003361033a858285610ae4565b610345858585610b5e565b506001949350505050565b6040516370a0823160e01b8152306004820152600090819073ae78736cd615f374d3085123a210448e74fc6393906370a0823190602401602060405180830381865afa1580156103a4573d6000803e3d6000fd5b505050506040513d601f19601f820116820180604052508101906103c89190611848565b90506104096040518060400160405280601a81526020017f724554482062616c202866726f6d206665657329202a2a2a3a2000000000000081525082610d2c565b919050565b6000336103208185856104218383610952565b61042b9190611877565b6109c0565b6040516370a0823160e01b8152306004820152600090670de0b6b3a764000090829073ae78736cd615f374d3085123a210448e74fc6393906370a0823190602401602060405180830381865afa15801561048e573d6000803e3d6000fd5b505050506040513d601f19601f820116820180604052508101906104b29190611848565b905060006104c08583610d75565b905060006104cc6106b6565b9050806000036104e0575091949350505050565b6104eb848383610ea1565b9695505050505050565b600061052861052560017f86ce1ea4932afb23386a483af3bf37658d9a562b0cc91e2c799fcb236cb30d5761188a565b90565b546001600160a01b0316919050565b600054610100900460ff16158080156105575750600054600160ff909116105b806105715750303b158015610571575060005460ff166001145b6105d95760405162461bcd60e51b815260206004820152602e60248201527f496e697469616c697a61626c653a20636f6e747261637420697320616c72656160448201526d191e481a5b9a5d1a585b1a5e995960921b60648201526084015b60405180910390fd5b6000805460ff1916600117905580156105fc576000805461ff0019166101001790555b6106068686610ebf565b8361063561052560017f86ce1ea4932afb23386a483af3bf37658d9a562b0cc91e2c799fcb236cb30d5761188a565b80546001600160a01b0319166001600160a01b039290921691909117905561065d3084610ef0565b610668308584610b5e565b80156106ae576000805461ff0019169055604051600181527f7f26b83ff96e1f2b6a682f133852f6798a09c465da95921460cefb38474024989060200160405180910390a15b505050505050565b60006106c06104f5565b6001600160a01b0316631e4d84c66040518163ffffffff1660e01b8152600401602060405180830381865afa1580156106fd573d6000803e3d6000fd5b505050506040513d601f19601f820116820180604052508101906107219190611848565b905090565b60606037805461028f9061180e565b600033816107438286610952565b9050838110156107a35760405162461bcd60e51b815260206004820152602560248201527f45524332303a2064656372656173656420616c6c6f77616e63652062656c6f77604482015264207a65726f60d81b60648201526084016105d0565b61034582868684036109c0565b600033610320818585610b5e565b60006107c86104f5565b60405163423f0b9160e01b81526001600160a01b038681166004830152919091169063423f0b9190602401602060405180830381865afa158015610810573d6000803e3d6000fd5b505050506040513d601f19601f82011682018060405250810190610834919061189d565b6001600160a01b031614801561086757506001600160a01b03831673eeeeeeeeeeeeeeeeeeeeeeeeeeeeeeeeeeeeeeee14155b801561089057506001600160a01b03831673ae78736cd615f374d3085123a210448e74fc639314155b156108ae5760405163f67dc7cd60e01b815260040160405180910390fd5b336001600160a01b038616146108c9576108c9853384610ae4565b6108d585848484610fcf565b506040516370a0823160e01b815230600482015261094b90849086906001600160a01b038316906370a0823190602401602060405180830381865afa158015610922573d6000803e3d6000fd5b505050506040513d601f19601f820116820180604052508101906109469190611848565b61118d565b5050505050565b6001600160a01b03918216600090815260346020908152604080832093909416825291909152205490565b604051634d02a3f760e01b81526000903090634d02a3f7906109a39084906004016118d0565b602060405180830381865afa1580156106fd573d6000803e3d6000fd5b6001600160a01b038316610a225760405162461bcd60e51b8152602060048201526024808201527f45524332303a20617070726f76652066726f6d20746865207a65726f206164646044820152637265737360e01b60648201526084016105d0565b6001600160a01b038216610a835760405162461bcd60e51b815260206004820152602260248201527f45524332303a20617070726f766520746f20746865207a65726f206164647265604482015261737360f01b60648201526084016105d0565b6001600160a01b0383811660008181526034602090815260408083209487168084529482529182902085905590518481527f8c5be1e5ebec7d5bd14f71427d1e84f3dd0314c0f7b2291e5b200ac8c7c3b925910160405180910390a3505050565b6000610af08484610952565b90506000198114610b585781811015610b4b5760405162461bcd60e51b815260206004820152601d60248201527f45524332303a20696e73756666696369656e7420616c6c6f77616e636500000060448201526064016105d0565b610b5884848484036109c0565b50505050565b6001600160a01b038316610bc25760405162461bcd60e51b815260206004820152602560248201527f45524332303a207472616e736665722066726f6d20746865207a65726f206164604482015264647265737360d81b60648201526084016105d0565b6001600160a01b038216610c245760405162461bcd60e51b815260206004820152602360248201527f45524332303a207472616e7366657220746f20746865207a65726f206164647260448201526265737360e81b60648201526084016105d0565b6001600160a01b03831660009081526033602052604090205481811015610c9c5760405162461bcd60e51b815260206004820152602660248201527f45524332303a207472616e7366657220616d6f756e7420657863656564732062604482015265616c616e636560d01b60648201526084016105d0565b6001600160a01b03808516600090815260336020526040808220858503905591851681529081208054849290610cd3908490611877565b92505081905550826001600160a01b0316846001600160a01b03167fddf252ad1be2c89b69c2b068fc378daa952ba7f163c4a11628f55a4df523b3ef84604051610d1f91815260200190565b60405180910390a3610b58565b610d718282604051602401610d429291906118f8565b60408051601f198184030181529190526020810180516001600160e01b03166309710a9d60e41b1790526111e4565b5050565b6040805160048152602481019091526020810180516001600160e01b0316636a57db9d60e11b179052600090610db2610dac6104f5565b82611205565b9050600081806020019051810190610dca9190611848565b9050600080866001811115610de157610de16118ba565b03610e6957610e62610df16104f5565b6001600160a01b031663f424c4ba6040518163ffffffff1660e01b8152600401602060405180830381865afa158015610e2e573d6000803e3d6000fd5b505050506040513d601f19601f82011682018060405250810190610e529190611848565b8690670de0b6b3a7640000610ea1565b9050610e98565b6001866001811115610e7d57610e7d6118ba565b03610e9857610e958583670de0b6b3a7640000610ea1565b90505b95945050505050565b6000826000190484118302158202610eb857600080fd5b5091020490565b600054610100900460ff16610ee65760405162461bcd60e51b81526004016105d09061191a565b610d718282611231565b6001600160a01b038216610f465760405162461bcd60e51b815260206004820152601f60248201527f45524332303a206d696e7420746f20746865207a65726f20616464726573730060448201526064016105d0565b8060356000828254610f589190611877565b90915550506001600160a01b03821660009081526033602052604081208054839290610f85908490611877565b90915550506040518181526001600160a01b038316906000907fddf252ad1be2c89b69c2b068fc378daa952ba7f163c4a11628f55a4df523b3ef9060200160405180910390a35050565b6000610fe385610fdd6104f5565b8561032c565b506000611003610ff36000610430565b8590670de0b6b3a7640000610ea1565b90506000670de0b6b3a764000061108d670de0b6b3a76400006110246104f5565b6001600160a01b031663f424c4ba6040518163ffffffff1660e01b8152600401602060405180830381865afa158015611061573d6000803e3d6000fd5b505050506040513d601f19601f820116820180604052508101906110859190611848565b859190610ea1565b6110979190611965565b905073ae78736cd615f374d3085123a210448e74fc6392196001600160a01b038716016110c75791506111859050565b6110cf6104f5565b604051634e6845b560e11b815273ae78736cd615f374d3085123a210448e74fc639360048201526001600160a01b03888116602483015260448201849052606482018790529190911690639cd08b6a90608401600060405180830381600087803b15801561113c57600080fd5b505af1158015611150573d6000803e3d6000fd5b5050505060405162461bcd60e51b81526004016105d0906020808252600490820152636865726560e01b604082015260600190565b949350505050565b604080516001600160a01b038416602482015260448082018490528251808303909101815260649091019091526020810180516001600160e01b031663a9059cbb60e01b1790526111df908490611271565b505050565b80516a636f6e736f6c652e6c6f67602083016000808483855afa5050505050565b606061122a8383604051806060016040528060258152602001611acc60259139611346565b9392505050565b600054610100900460ff166112585760405162461bcd60e51b81526004016105d09061191a565b603661126483826119cd565b5060376111df82826119cd565b60006112c6826040518060400160405280602081526020017f5361666545524332303a206c6f772d6c6576656c2063616c6c206661696c6564815250856001600160a01b03166113b49092919063ffffffff16565b90508051600014806112e75750808060200190518101906112e79190611a8d565b6111df5760405162461bcd60e51b815260206004820152602a60248201527f5361666545524332303a204552433230206f7065726174696f6e20646964206e6044820152691bdd081cdd58d8d9595960b21b60648201526084016105d0565b6060600080856001600160a01b0316856040516113639190611aaf565b600060405180830381855afa9150503d806000811461139e576040519150601f19603f3d011682016040523d82523d6000602084013e6113a3565b606091505b50915091506104eb868383876113c3565b6060611185848460008561143c565b6060831561143257825160000361142b576001600160a01b0385163b61142b5760405162461bcd60e51b815260206004820152601d60248201527f416464726573733a2063616c6c20746f206e6f6e2d636f6e747261637400000060448201526064016105d0565b5081611185565b6111858383611517565b60608247101561149d5760405162461bcd60e51b815260206004820152602660248201527f416464726573733a20696e73756666696369656e742062616c616e636520666f6044820152651c8818d85b1b60d21b60648201526084016105d0565b600080866001600160a01b031685876040516114b99190611aaf565b60006040518083038185875af1925050503d80600081146114f6576040519150601f19603f3d011682016040523d82523d6000602084013e6114fb565b606091505b509150915061150c878383876113c3565b979650505050505050565b8151156115275781518083602001fd5b8060405162461bcd60e51b81526004016105d09190611591565b60005b8381101561155c578181015183820152602001611544565b50506000910152565b6000815180845261157d816020860160208601611541565b601f01601f19169290920160200192915050565b60208152600061122a6020830184611565565b6001600160a01b03811681146115b957600080fd5b50565b600080604083850312156115cf57600080fd5b82356115da816115a4565b946020939093013593505050565b6000806000606084860312156115fd57600080fd5b8335611608816115a4565b92506020840135611618816115a4565b929592945050506040919091013590565b60006020828403121561163b57600080fd5b81356002811061122a57600080fd5b60006020828403121561165c57600080fd5b813561122a816115a4565b634e487b7160e01b600052604160045260246000fd5b600082601f83011261168e57600080fd5b813567ffffffffffffffff808211156116a9576116a9611667565b604051601f8301601f19908116603f011681019082821181831017156116d1576116d1611667565b816040528381528660208588010111156116ea57600080fd5b836020870160208301376000602085830101528094505050505092915050565b600080600080600060a0868803121561172257600080fd5b853567ffffffffffffffff8082111561173a57600080fd5b61174689838a0161167d565b9650602088013591508082111561175c57600080fd5b506117698882890161167d565b945050604086013561177a816115a4565b94979396509394606081013594506080013592915050565b600080600080600060a086880312156117aa57600080fd5b85356117b5816115a4565b945060208601356117c5816115a4565b9350604086013561177a816115a4565b600080604083850312156117e857600080fd5b82356117f3816115a4565b91506020830135611803816115a4565b809150509250929050565b600181811c9082168061182257607f821691505b60208210810361184257634e487b7160e01b600052602260045260246000fd5b50919050565b60006020828403121561185a57600080fd5b5051919050565b634e487b7160e01b600052601160045260246000fd5b8082018082111561032657610326611861565b8181038181111561032657610326611861565b6000602082840312156118af57600080fd5b815161122a816115a4565b634e487b7160e01b600052602160045260246000fd5b60208101600283106118f257634e487b7160e01b600052602160045260246000fd5b91905290565b60408152600061190b6040830185611565565b90508260208301529392505050565b6020808252602b908201527f496e697469616c697a61626c653a20636f6e7472616374206973206e6f74206960408201526a6e697469616c697a696e6760a81b606082015260800190565b60008261198257634e487b7160e01b600052601260045260246000fd5b500490565b601f8211156111df57600081815260208120601f850160051c810160208610156119ae5750805b601f850160051c820191505b818110156106ae578281556001016119ba565b815167ffffffffffffffff8111156119e7576119e7611667565b6119fb816119f5845461180e565b84611987565b602080601f831160018114611a305760008415611a185750858301515b600019600386901b1c1916600185901b1785556106ae565b600085815260208120601f198616915b82811015611a5f57888601518255948401946001909101908401611a40565b5085821015611a7d5787850151600019600388901b60f8161c191681555b5050505050600190811b01905550565b600060208284031215611a9f57600080fd5b8151801515811461122a57600080fd5b60008251611ac1818460208701611541565b919091019291505056fe416464726573733a206c6f772d6c6576656c207374617469632063616c6c206661696c6564a2646970667358221220b453bf74a1b74322cea7dff0c02fa7f11affa5047267c5cec88210cd205363b964736f6c63430008150033",
    "linkReferences": {}
  },
  "methodIdentifiers": {
    "allowance(address,address)": "dd62ed3e",
    "approve(address,uint256)": "095ea7b3",
    "balanceOf(address)": "70a08231",
    "circulatingSupply()": "9358928b",
    "decimals()": "313ce567",
    "decreaseAllowance(address,uint256)": "a457c2d7",
    "getBal()": "25caa262",
    "getExchangeRate()": "e6aa216c",
    "getExchangeRate(uint8)": "4d02a3f7",
    "getOZ()": "59c64e12",
    "increaseAllowance(address,uint256)": "39509351",
    "initialize(string,string,address,uint256,uint256)": "74823132",
    "name()": "06fdde03",
    "redeem(address,address,address,uint256,uint256)": "be78b2ba",
    "symbol()": "95d89b41",
    "totalSupply()": "18160ddd",
    "transfer(address,uint256)": "a9059cbb",
    "transferFrom(address,address,uint256)": "23b872dd"
  },
  "id": 4
}