{
  "abi": [
    {
      "inputs": [],
      "stateMutability": "nonpayable",
      "type": "constructor"
    },
    {
      "inputs": [
        {
          "internalType": "string",
          "name": "errorMsg",
          "type": "string"
        }
      ],
      "name": "OZError01",
      "type": "error"
    },
    {
      "inputs": [],
      "name": "OZError02",
      "type": "error"
    },
    {
      "inputs": [
        {
          "internalType": "string",
          "name": "errorCode",
          "type": "string"
        }
      ],
      "name": "OZError10",
      "type": "error"
    },
    {
      "inputs": [
        {
          "internalType": "address",
          "name": "tokenOut",
          "type": "address"
        }
      ],
      "name": "OZError18",
      "type": "error"
    },
    {
      "anonymous": false,
      "inputs": [
        {
          "indexed": true,
          "internalType": "address",
          "name": "owner",
          "type": "address"
        },
        {
          "indexed": true,
          "internalType": "address",
          "name": "spender",
          "type": "address"
        },
        {
          "indexed": false,
          "internalType": "uint256",
          "name": "value",
          "type": "uint256"
        }
      ],
      "name": "Approval",
      "type": "event"
    },
    {
      "anonymous": false,
      "inputs": [
        {
          "indexed": false,
          "internalType": "uint8",
          "name": "version",
          "type": "uint8"
        }
      ],
      "name": "Initialized",
      "type": "event"
    },
    {
      "anonymous": false,
      "inputs": [
        {
          "indexed": true,
          "internalType": "address",
          "name": "from",
          "type": "address"
        },
        {
          "indexed": true,
          "internalType": "address",
          "name": "to",
          "type": "address"
        },
        {
          "indexed": false,
          "internalType": "uint256",
          "name": "value",
          "type": "uint256"
        }
      ],
      "name": "Transfer",
      "type": "event"
    },
    {
      "inputs": [
        {
          "internalType": "address",
          "name": "owner",
          "type": "address"
        },
        {
          "internalType": "address",
          "name": "spender",
          "type": "address"
        }
      ],
      "name": "allowance",
      "outputs": [
        {
          "internalType": "uint256",
          "name": "",
          "type": "uint256"
        }
      ],
      "stateMutability": "view",
      "type": "function"
    },
    {
      "inputs": [
        {
          "internalType": "address",
          "name": "spender",
          "type": "address"
        },
        {
          "internalType": "uint256",
          "name": "amount",
          "type": "uint256"
        }
      ],
      "name": "approve",
      "outputs": [
        {
          "internalType": "bool",
          "name": "",
          "type": "bool"
        }
      ],
      "stateMutability": "nonpayable",
      "type": "function"
    },
    {
      "inputs": [
        {
          "internalType": "address",
          "name": "account",
          "type": "address"
        }
      ],
      "name": "balanceOf",
      "outputs": [
        {
          "internalType": "uint256",
          "name": "",
          "type": "uint256"
        }
      ],
      "stateMutability": "view",
      "type": "function"
    },
    {
      "inputs": [],
      "name": "circulatingSupply",
      "outputs": [
        {
          "internalType": "uint256",
          "name": "",
          "type": "uint256"
        }
      ],
      "stateMutability": "view",
      "type": "function"
    },
    {
      "inputs": [],
      "name": "decimals",
      "outputs": [
        {
          "internalType": "uint8",
          "name": "",
          "type": "uint8"
        }
      ],
      "stateMutability": "view",
      "type": "function"
    },
    {
      "inputs": [
        {
          "internalType": "address",
          "name": "spender",
          "type": "address"
        },
        {
          "internalType": "uint256",
          "name": "subtractedValue",
          "type": "uint256"
        }
      ],
      "name": "decreaseAllowance",
      "outputs": [
        {
          "internalType": "bool",
          "name": "",
          "type": "bool"
        }
      ],
      "stateMutability": "nonpayable",
      "type": "function"
    },
    {
      "inputs": [
        {
          "internalType": "enum QuoteAsset",
          "name": "asset_",
          "type": "uint8"
        }
      ],
      "name": "getExchangeRate",
      "outputs": [
        {
          "internalType": "uint256",
          "name": "",
          "type": "uint256"
        }
      ],
      "stateMutability": "view",
      "type": "function"
    },
    {
      "inputs": [],
      "name": "getExchangeRate",
      "outputs": [
        {
          "internalType": "uint256",
          "name": "",
          "type": "uint256"
        }
      ],
      "stateMutability": "view",
      "type": "function"
    },
    {
      "inputs": [],
      "name": "getOZ",
      "outputs": [
        {
          "internalType": "contract ozIDiamond",
          "name": "",
          "type": "address"
        }
      ],
      "stateMutability": "view",
      "type": "function"
    },
    {
      "inputs": [
        {
          "internalType": "address",
          "name": "spender",
          "type": "address"
        },
        {
          "internalType": "uint256",
          "name": "addedValue",
          "type": "uint256"
        }
      ],
      "name": "increaseAllowance",
      "outputs": [
        {
          "internalType": "bool",
          "name": "",
          "type": "bool"
        }
      ],
      "stateMutability": "nonpayable",
      "type": "function"
    },
    {
      "inputs": [
        {
          "internalType": "string",
          "name": "name_",
          "type": "string"
        },
        {
          "internalType": "string",
          "name": "symbol_",
          "type": "string"
        },
        {
          "internalType": "address",
          "name": "ozDiamond_",
          "type": "address"
        },
        {
          "internalType": "uint256",
          "name": "totalSupply_",
          "type": "uint256"
        },
        {
          "internalType": "uint256",
          "name": "communityAmount_",
          "type": "uint256"
        }
      ],
      "name": "initialize",
      "outputs": [],
      "stateMutability": "nonpayable",
      "type": "function"
    },
    {
      "inputs": [],
      "name": "name",
      "outputs": [
        {
          "internalType": "string",
          "name": "",
          "type": "string"
        }
      ],
      "stateMutability": "view",
      "type": "function"
    },
    {
      "inputs": [
        {
          "internalType": "address",
          "name": "owner_",
          "type": "address"
        },
        {
          "internalType": "address",
          "name": "receiver_",
          "type": "address"
        },
        {
          "internalType": "address",
          "name": "tokenOut_",
          "type": "address"
        },
        {
          "internalType": "uint256",
          "name": "ozlAmountIn_",
          "type": "uint256"
        },
        {
          "internalType": "uint256",
          "name": "minAmountOut_",
          "type": "uint256"
        }
      ],
      "name": "redeem",
      "outputs": [
        {
          "internalType": "uint256",
          "name": "amountOut",
          "type": "uint256"
        }
      ],
      "stateMutability": "nonpayable",
      "type": "function"
    },
    {
      "inputs": [],
      "name": "symbol",
      "outputs": [
        {
          "internalType": "string",
          "name": "",
          "type": "string"
        }
      ],
      "stateMutability": "view",
      "type": "function"
    },
    {
      "inputs": [],
      "name": "totalSupply",
      "outputs": [
        {
          "internalType": "uint256",
          "name": "",
          "type": "uint256"
        }
      ],
      "stateMutability": "view",
      "type": "function"
    },
    {
      "inputs": [
        {
          "internalType": "address",
          "name": "to",
          "type": "address"
        },
        {
          "internalType": "uint256",
          "name": "amount",
          "type": "uint256"
        }
      ],
      "name": "transfer",
      "outputs": [
        {
          "internalType": "bool",
          "name": "",
          "type": "bool"
        }
      ],
      "stateMutability": "nonpayable",
      "type": "function"
    },
    {
      "inputs": [
        {
          "internalType": "address",
          "name": "from",
          "type": "address"
        },
        {
          "internalType": "address",
          "name": "to",
          "type": "address"
        },
        {
          "internalType": "uint256",
          "name": "amount",
          "type": "uint256"
        }
      ],
      "name": "transferFrom",
      "outputs": [
        {
          "internalType": "bool",
          "name": "",
          "type": "bool"
        }
      ],
      "stateMutability": "nonpayable",
      "type": "function"
    }
  ],
  "bytecode": {
    "object": "0x608060405234801561001057600080fd5b5061001961001e565b6100de565b600054610100900460ff161561008a5760405162461bcd60e51b815260206004820152602760248201527f496e697469616c697a61626c653a20636f6e747261637420697320696e697469604482015266616c697a696e6760c81b606482015260840160405180910390fd5b60005460ff90811610156100dc576000805460ff191660ff9081179091556040519081527f7f26b83ff96e1f2b6a682f133852f6798a09c465da95921460cefb38474024989060200160405180910390a15b565b6122e780620000ee6000396000f3fe608060405234801561001057600080fd5b506004361061010b5760003560e01c806370a08231116100a2578063a457c2d711610071578063a457c2d714610219578063a9059cbb1461022c578063be78b2ba1461023f578063dd62ed3e14610252578063e6aa216c1461026557600080fd5b806370a08231146101cb57806374823132146101f45780639358928b1461020957806395d89b411461021157600080fd5b8063313ce567116100de578063313ce5671461017657806339509351146101855780634d02a3f71461019857806359c64e12146101ab57600080fd5b806306fdde0314610110578063095ea7b31461012e57806318160ddd1461015157806323b872dd14610163575b600080fd5b61011861026d565b6040516101259190611aa8565b60405180910390f35b61014161013c366004611ad3565b6102ff565b6040519015158152602001610125565b6035545b604051908152602001610125565b610141610171366004611aff565b610319565b60405160128152602001610125565b610141610193366004611ad3565b61033f565b6101556101a6366004611b40565b610361565b6101b36104ae565b6040516001600160a01b039091168152602001610125565b6101556101d9366004611b61565b6001600160a01b031660009081526033602052604090205490565b610207610202366004611c35565b6104f0565b005b61015561066f565b6101186106df565b610141610227366004611ad3565b6106ee565b61014161023a366004611ad3565b610774565b61015561024d366004611cbd565b610782565b610155610260366004611d00565b6109f0565b610155610a1b565b60606036805461027c90611d39565b80601f01602080910402602001604051908101604052809291908181526020018280546102a890611d39565b80156102f55780601f106102ca576101008083540402835291602001916102f5565b820191906000526020600020905b8154815290600101906020018083116102d857829003601f168201915b5050505050905090565b60003361030d818585610a5e565b60019150505b92915050565b600033610327858285610b82565b610332858585610bfc565b60019150505b9392505050565b60003361030d81858561035283836109f0565b61035c9190611d89565b610a5e565b6000670de0b6b3a7640000816103756104ae565b6001600160a01b031663b73a89516040518163ffffffff1660e01b815260040161010060405180830381865afa1580156103b3573d6000803e3d6000fd5b505050506040513d601f19601f820116820180604052508101906103d79190611dbf565b60c001516040516370a0823160e01b81523060048201529091506000906001600160a01b038316906370a0823190602401602060405180830381865afa158015610425573d6000803e3d6000fd5b505050506040513d601f19601f820116820180604052508101906104499190611e84565b90506000600286600281111561046157610461611e9d565b14610475576104708683610dca565b610477565b815b9050600061048361066f565b90508060000361049857509295945050505050565b6104a3858383610ef4565b979650505050505050565b60006104e16104de60017f86ce1ea4932afb23386a483af3bf37658d9a562b0cc91e2c799fcb236cb30d57611eb3565b90565b546001600160a01b0316919050565b600054610100900460ff16158080156105105750600054600160ff909116105b8061052a5750303b15801561052a575060005460ff166001145b6105925760405162461bcd60e51b815260206004820152602e60248201527f496e697469616c697a61626c653a20636f6e747261637420697320616c72656160448201526d191e481a5b9a5d1a585b1a5e995960921b60648201526084015b60405180910390fd5b6000805460ff1916600117905580156105b5576000805461ff0019166101001790555b6105bf8686610f12565b836105ee6104de60017f86ce1ea4932afb23386a483af3bf37658d9a562b0cc91e2c799fcb236cb30d57611eb3565b80546001600160a01b0319166001600160a01b03929092169190911790556106163084610f47565b610621308584610bfc565b8015610667576000805461ff0019169055604051600181527f7f26b83ff96e1f2b6a682f133852f6798a09c465da95921460cefb38474024989060200160405180910390a15b505050505050565b60006106796104ae565b6001600160a01b0316631e4d84c66040518163ffffffff1660e01b8152600401602060405180830381865afa1580156106b6573d6000803e3d6000fd5b505050506040513d601f19601f820116820180604052508101906106da9190611e84565b905090565b60606037805461027c90611d39565b600033816106fc82866109f0565b90508381101561075c5760405162461bcd60e51b815260206004820152602560248201527f45524332303a2064656372656173656420616c6c6f77616e63652062656c6f77604482015264207a65726f60d81b6064820152608401610589565b6107698286868403610a5e565b506001949350505050565b60003361030d818585610bfc565b60008061078d6104ae565b90506000816001600160a01b031663b73a89516040518163ffffffff1660e01b815260040161010060405180830381865afa1580156107d0573d6000803e3d6000fd5b505050506040513d601f19601f820116820180604052508101906107f49190611dbf565b60405163423f0b9160e01b81526001600160a01b03888116600483015291925060009184169063423f0b9190602401602060405180830381865afa158015610840573d6000803e3d6000fd5b505050506040513d601f19601f820116820180604052508101906108649190611ec6565b6001600160a01b031614801561089057508060e001516001600160a01b0316866001600160a01b031614155b80156108b257508060c001516001600160a01b0316866001600160a01b031614155b156108db5760405163d74ef47560e01b81526001600160a01b0387166004820152602401610589565b336001600160a01b038916146108f6576108f6883387610b82565b610901308387611026565b60006109206109106000610361565b8790670de0b6b3a7640000610ef4565b9050600061099a670de0b6b3a7640000856001600160a01b031663f424c4ba6040518163ffffffff1660e01b8152600401602060405180830381865afa15801561096e573d6000803e3d6000fd5b505050506040513d601f19601f820116820180604052508101906109929190611e84565b849190610ef4565b90508260c001516001600160a01b0316886001600160a01b0316036109d3576109c88360c001518a8361108e565b9450505050506109e7565b6109e083898b848a6110a2565b9450505050505b95945050505050565b6001600160a01b03918216600090815260346020908152604080832093909416825291909152205490565b604051634d02a3f760e01b81526000903090634d02a3f790610a41908490600401611ee3565b602060405180830381865afa1580156106b6573d6000803e3d6000fd5b6001600160a01b038316610ac05760405162461bcd60e51b8152602060048201526024808201527f45524332303a20617070726f76652066726f6d20746865207a65726f206164646044820152637265737360e01b6064820152608401610589565b6001600160a01b038216610b215760405162461bcd60e51b815260206004820152602260248201527f45524332303a20617070726f766520746f20746865207a65726f206164647265604482015261737360f01b6064820152608401610589565b6001600160a01b0383811660008181526034602090815260408083209487168084529482529182902085905590518481527f8c5be1e5ebec7d5bd14f71427d1e84f3dd0314c0f7b2291e5b200ac8c7c3b925910160405180910390a3505050565b6000610b8e84846109f0565b90506000198114610bf65781811015610be95760405162461bcd60e51b815260206004820152601d60248201527f45524332303a20696e73756666696369656e7420616c6c6f77616e63650000006044820152606401610589565b610bf68484848403610a5e565b50505050565b6001600160a01b038316610c605760405162461bcd60e51b815260206004820152602560248201527f45524332303a207472616e736665722066726f6d20746865207a65726f206164604482015264647265737360d81b6064820152608401610589565b6001600160a01b038216610cc25760405162461bcd60e51b815260206004820152602360248201527f45524332303a207472616e7366657220746f20746865207a65726f206164647260448201526265737360e81b6064820152608401610589565b6001600160a01b03831660009081526033602052604090205481811015610d3a5760405162461bcd60e51b815260206004820152602660248201527f45524332303a207472616e7366657220616d6f756e7420657863656564732062604482015265616c616e636560d01b6064820152608401610589565b6001600160a01b03808516600090815260336020526040808220858503905591851681529081208054849290610d71908490611d89565b92505081905550826001600160a01b0316846001600160a01b03167fddf252ad1be2c89b69c2b068fc378daa952ba7f163c4a11628f55a4df523b3ef84604051610dbd91815260200190565b60405180910390a3610bf6565b6040805160048152602481019091526020810180516001600160e01b0316636a57db9d60e11b179052600090610e07610e016104ae565b826110b3565b9050600081806020019051810190610e1f9190611e84565b9050600080866002811115610e3657610e36611e9d565b03610ebe57610eb7610e466104ae565b6001600160a01b031663f424c4ba6040518163ffffffff1660e01b8152600401602060405180830381865afa158015610e83573d6000803e3d6000fd5b505050506040513d601f19601f82011682018060405250810190610ea79190611e84565b8690670de0b6b3a7640000610ef4565b90506109e7565b6001866002811115610ed257610ed2611e9d565b036109e757610eea8583670de0b6b3a7640000610ef4565b9695505050505050565b6000826000190484118302158202610f0b57600080fd5b5091020490565b600054610100900460ff16610f395760405162461bcd60e51b815260040161058990611efd565b610f4382826110d8565b5050565b6001600160a01b038216610f9d5760405162461bcd60e51b815260206004820152601f60248201527f45524332303a206d696e7420746f20746865207a65726f2061646472657373006044820152606401610589565b8060356000828254610faf9190611d89565b90915550506001600160a01b03821660009081526033602052604081208054839290610fdc908490611d89565b90915550506040518181526001600160a01b038316906000907fddf252ad1be2c89b69c2b068fc378daa952ba7f163c4a11628f55a4df523b3ef9060200160405180910390a35050565b6040516001600160a01b03831660248201526044810182905261108990849063a9059cbb60e01b906064015b60408051601f198184030181529190526020810180516001600160e01b03166001600160e01b031990931692909217909152611118565b505050565b600061109b848484611026565b5092915050565b6000610eea868686868660006111ed565b6060610338838360405180606001604052806025815260200161228d6025913961138b565b600054610100900460ff166110ff5760405162461bcd60e51b815260040161058990611efd565b603661110b8382611f8e565b5060376110898282611f8e565b600061116d826040518060400160405280602081526020017f5361666545524332303a206c6f772d6c6576656c2063616c6c206661696c6564815250856001600160a01b03166113f99092919063ffffffff16565b905080516000148061118e57508080602001905181019061118e919061205e565b6110895760405162461bcd60e51b815260206004820152602a60248201527f5361666545524332303a204552433230206f7065726174696f6e20646964206e6044820152691bdd081cdd58d8d9595960b21b6064820152608401610589565b600080808084600281111561120457611204611e9d565b0361121657505060c087015160e08801515b600089604001516001600160a01b0316631c0de0516040518163ffffffff1660e01b8152600401606060405180830381865afa15801561125a573d6000803e3d6000fd5b505050506040513d601f19601f8201168201806040525081019061127e9190612079565b5050905080156112a65761129f8383308d600001518e602001518c8c611410565b93506112c4565b6112c183838c604001518d606001518e608001518c8c611569565b93505b8960e001516001600160a01b0316896001600160a01b0316036113605760e08a015160405163a9059cbb60e01b81526001600160a01b038a81166004830152602482018790529091169063a9059cbb906044016020604051808303816000875af1158015611336573d6000803e3d6000fd5b505050506040513d601f19601f8201168201806040525081019061135a919061205e565b5061137e565b61137b8a60e001518a8a8d600001518e60200151898c611410565b93505b5050509695505050505050565b6060600080856001600160a01b0316856040516113a891906120ae565b600060405180830381855afa9150503d80600081146113e3576040519150601f19603f3d011682016040523d82523d6000602084013e6113e8565b606091505b5091509150610eea868383876117d0565b60606114088484600085611849565b949350505050565b600061141d888685611919565b60408051610100810182526001600160a01b038a811682528981166020830190815262ffffff8881168486019081528b841660608601908152426080870190815260a087018b8152600060c0890181815260e08a01918252995163414bf38960e01b815289518916600482015296518816602488015293519094166044860152905185166064850152516084840152905160a4830152935160c48201529251811660e484015290919087169063414bf38990610104016020604051808303816000875af192505050801561150e575060408051601f3d908101601f1916820190925261150b91810190611e84565b60015b6115605761151a6120ca565b806308c379a003611554575061152e6120e5565b806115395750611556565b8060405163633abab960e01b81526004016105899190611aa8565b505b3d6000803e3d6000fd5b91506104a39050565b6000806040518060c00160405280886001600160a01b03166338fff2d06040518163ffffffff1660e01b8152600401602060405180830381865afa1580156115b5573d6000803e3d6000fd5b505050506040513d601f19601f820116820180604052508101906115d99190611e84565b8152602001600081526001600160a01b03808c1660208301528a1660408201526060810186905260800160006040519080825280601f01601f19166020018201604052801561162f576020820181803683370190505b5090526040805160808101825230808252600060208301819052828401919091526060820152905163e969f6b360e01b8152919250906001600160a01b0388169063e969f6b39061168690859085906004016121d6565b6020604051808303816000875af19250505080156116c1575060408051601f3d908101601f191682019092526116be91810190611e84565b60015b611707576116cd6120ca565b806308c379a00361155457506116e16120e5565b806116ec5750611556565b8060405163dafe91cd60e01b81526004016105899190611aa8565b60008186116117165781611718565b855b90506117298c898660800151611919565b6040516352bbbe2960e01b81526001600160a01b038916906352bbbe299061175b908790879086904290600401612228565b6020604051808303816000875af115801561177a573d6000803e3d6000fd5b505050506040513d601f19601f8201168201806040525081019061179e9190611e84565b94505050826000036117c357604051635eeb40ff60e11b815260040160405180910390fd5b5050979650505050505050565b6060831561183f578251600003611838576001600160a01b0385163b6118385760405162461bcd60e51b815260206004820152601d60248201527f416464726573733a2063616c6c20746f206e6f6e2d636f6e74726163740000006044820152606401610589565b5081611408565b6114088383611a2e565b6060824710156118aa5760405162461bcd60e51b815260206004820152602660248201527f416464726573733a20696e73756666696369656e742062616c616e636520666f6044820152651c8818d85b1b60d21b6064820152608401610589565b600080866001600160a01b031685876040516118c691906120ae565b60006040518083038185875af1925050503d8060008114611903576040519150601f19603f3d011682016040523d82523d6000602084013e611908565b606091505b50915091506104a3878383876117d0565b8015806119935750604051636eb1769f60e11b81523060048201526001600160a01b03838116602483015284169063dd62ed3e90604401602060405180830381865afa15801561196d573d6000803e3d6000fd5b505050506040513d601f19601f820116820180604052508101906119919190611e84565b155b6119fe5760405162461bcd60e51b815260206004820152603660248201527f5361666545524332303a20617070726f76652066726f6d206e6f6e2d7a65726f60448201527520746f206e6f6e2d7a65726f20616c6c6f77616e636560501b6064820152608401610589565b6040516001600160a01b03831660248201526044810182905261108990849063095ea7b360e01b90606401611052565b815115611a3e5781518083602001fd5b8060405162461bcd60e51b81526004016105899190611aa8565b60005b83811015611a73578181015183820152602001611a5b565b50506000910152565b60008151808452611a94816020860160208601611a58565b601f01601f19169290920160200192915050565b6020815260006103386020830184611a7c565b6001600160a01b0381168114611ad057600080fd5b50565b60008060408385031215611ae657600080fd5b8235611af181611abb565b946020939093013593505050565b600080600060608486031215611b1457600080fd5b8335611b1f81611abb565b92506020840135611b2f81611abb565b929592945050506040919091013590565b600060208284031215611b5257600080fd5b81356003811061033857600080fd5b600060208284031215611b7357600080fd5b813561033881611abb565b634e487b7160e01b600052604160045260246000fd5b601f8201601f1916810167ffffffffffffffff81118282101715611bba57611bba611b7e565b6040525050565b600082601f830112611bd257600080fd5b813567ffffffffffffffff811115611bec57611bec611b7e565b604051611c03601f8301601f191660200182611b94565b818152846020838601011115611c1857600080fd5b816020850160208301376000918101602001919091529392505050565b600080600080600060a08688031215611c4d57600080fd5b853567ffffffffffffffff80821115611c6557600080fd5b611c7189838a01611bc1565b96506020880135915080821115611c8757600080fd5b50611c9488828901611bc1565b9450506040860135611ca581611abb565b94979396509394606081013594506080013592915050565b600080600080600060a08688031215611cd557600080fd5b8535611ce081611abb565b94506020860135611cf081611abb565b93506040860135611ca581611abb565b60008060408385031215611d1357600080fd5b8235611d1e81611abb565b91506020830135611d2e81611abb565b809150509250929050565b600181811c90821680611d4d57607f821691505b602082108103611d6d57634e487b7160e01b600052602260045260246000fd5b50919050565b634e487b7160e01b600052601160045260246000fd5b8082018082111561031357610313611d73565b8051611da781611abb565b919050565b805162ffffff81168114611da757600080fd5b6000610100808385031215611dd357600080fd5b6040519081019067ffffffffffffffff82118183101715611df657611df6611b7e565b81604052611e0384611d9c565b8152611e1160208501611dac565b6020820152611e2260408501611d9c565b6040820152611e3360608501611d9c565b6060820152611e4460808501611d9c565b6080820152611e5560a08501611d9c565b60a0820152611e6660c08501611d9c565b60c0820152611e7760e08501611d9c565b60e0820152949350505050565b600060208284031215611e9657600080fd5b5051919050565b634e487b7160e01b600052602160045260246000fd5b8181038181111561031357610313611d73565b600060208284031215611ed857600080fd5b815161033881611abb565b6020810160038310611ef757611ef7611e9d565b91905290565b6020808252602b908201527f496e697469616c697a61626c653a20636f6e7472616374206973206e6f74206960408201526a6e697469616c697a696e6760a81b606082015260800190565b601f82111561108957600081815260208120601f850160051c81016020861015611f6f5750805b601f850160051c820191505b8181101561066757828155600101611f7b565b815167ffffffffffffffff811115611fa857611fa8611b7e565b611fbc81611fb68454611d39565b84611f48565b602080601f831160018114611ff15760008415611fd95750858301515b600019600386901b1c1916600185901b178555610667565b600085815260208120601f198616915b8281101561202057888601518255948401946001909101908401612001565b508582101561203e5787850151600019600388901b60f8161c191681555b5050505050600190811b01905550565b80518015158114611da757600080fd5b60006020828403121561207057600080fd5b6103388261204e565b60008060006060848603121561208e57600080fd5b6120978461204e565b925060208401519150604084015190509250925092565b600082516120c0818460208701611a58565b9190910192915050565b600060033d11156104de5760046000803e5060005160e01c90565b600060443d10156120f35790565b6040516003193d81016004833e81513d67ffffffffffffffff816024840111818411171561212357505050505090565b828501915081518181111561213b5750505050505090565b843d87010160208285010111156121555750505050505090565b61216460208286010187611b94565b509095945050505050565b80518252600060208201516002811061218a5761218a611e9d565b80602085015250604082015160018060a01b03808216604086015280606085015116606086015250506080820151608084015260a082015160c060a085015261140860c0850182611a7c565b60a0815260006121e960a083018561216f565b9050610338602083018480516001600160a01b039081168352602080830151151590840152604080830151909116908301526060908101511515910152565b60e08152600061223b60e083018761216f565b905061227a602083018680516001600160a01b039081168352602080830151151590840152604080830151909116908301526060908101511515910152565b60a082019390935260c001529291505056fe416464726573733a206c6f772d6c6576656c207374617469632063616c6c206661696c6564a2646970667358221220f0838447decb35f93cbdb528b01f7510326189c5ec8fc7e3df5791fab870d39964736f6c63430008150033",
    "linkReferences": {}
  },
  "methodIdentifiers": {
    "allowance(address,address)": "dd62ed3e",
    "approve(address,uint256)": "095ea7b3",
    "balanceOf(address)": "70a08231",
    "circulatingSupply()": "9358928b",
    "decimals()": "313ce567",
    "decreaseAllowance(address,uint256)": "a457c2d7",
    "getExchangeRate()": "e6aa216c",
    "getExchangeRate(uint8)": "4d02a3f7",
    "getOZ()": "59c64e12",
    "increaseAllowance(address,uint256)": "39509351",
    "initialize(string,string,address,uint256,uint256)": "74823132",
    "name()": "06fdde03",
    "redeem(address,address,address,uint256,uint256)": "be78b2ba",
    "symbol()": "95d89b41",
    "totalSupply()": "18160ddd",
    "transfer(address,uint256)": "a9059cbb",
    "transferFrom(address,address,uint256)": "23b872dd"
  },
  "id": 4
}