{
  "abi": [
    {
      "inputs": [],
      "stateMutability": "nonpayable",
      "type": "constructor"
    },
    {
      "anonymous": false,
      "inputs": [
        {
          "indexed": true,
          "internalType": "address",
          "name": "owner",
          "type": "address"
        },
        {
          "indexed": true,
          "internalType": "address",
          "name": "spender",
          "type": "address"
        },
        {
          "indexed": false,
          "internalType": "uint256",
          "name": "value",
          "type": "uint256"
        }
      ],
      "name": "Approval",
      "type": "event"
    },
    {
      "anonymous": false,
      "inputs": [
        {
          "indexed": false,
          "internalType": "uint8",
          "name": "version",
          "type": "uint8"
        }
      ],
      "name": "Initialized",
      "type": "event"
    },
    {
      "anonymous": false,
      "inputs": [
        {
          "indexed": true,
          "internalType": "address",
          "name": "from",
          "type": "address"
        },
        {
          "indexed": true,
          "internalType": "address",
          "name": "to",
          "type": "address"
        },
        {
          "indexed": false,
          "internalType": "uint256",
          "name": "value",
          "type": "uint256"
        }
      ],
      "name": "Transfer",
      "type": "event"
    },
    {
      "inputs": [
        {
          "internalType": "address",
          "name": "owner",
          "type": "address"
        },
        {
          "internalType": "address",
          "name": "spender",
          "type": "address"
        }
      ],
      "name": "allowance",
      "outputs": [
        {
          "internalType": "uint256",
          "name": "",
          "type": "uint256"
        }
      ],
      "stateMutability": "view",
      "type": "function"
    },
    {
      "inputs": [
        {
          "internalType": "address",
          "name": "spender",
          "type": "address"
        },
        {
          "internalType": "uint256",
          "name": "amount",
          "type": "uint256"
        }
      ],
      "name": "approve",
      "outputs": [
        {
          "internalType": "bool",
          "name": "",
          "type": "bool"
        }
      ],
      "stateMutability": "nonpayable",
      "type": "function"
    },
    {
      "inputs": [
        {
          "internalType": "address",
          "name": "account",
          "type": "address"
        }
      ],
      "name": "balanceOf",
      "outputs": [
        {
          "internalType": "uint256",
          "name": "",
          "type": "uint256"
        }
      ],
      "stateMutability": "view",
      "type": "function"
    },
    {
      "inputs": [],
      "name": "decimals",
      "outputs": [
        {
          "internalType": "uint8",
          "name": "",
          "type": "uint8"
        }
      ],
      "stateMutability": "view",
      "type": "function"
    },
    {
      "inputs": [
        {
          "internalType": "address",
          "name": "spender",
          "type": "address"
        },
        {
          "internalType": "uint256",
          "name": "subtractedValue",
          "type": "uint256"
        }
      ],
      "name": "decreaseAllowance",
      "outputs": [
        {
          "internalType": "bool",
          "name": "",
          "type": "bool"
        }
      ],
      "stateMutability": "nonpayable",
      "type": "function"
    },
    {
      "inputs": [],
      "name": "getBal",
      "outputs": [
        {
          "internalType": "uint256",
          "name": "",
          "type": "uint256"
        }
      ],
      "stateMutability": "view",
      "type": "function"
    },
    {
      "inputs": [],
      "name": "getRewards",
      "outputs": [],
      "stateMutability": "view",
      "type": "function"
    },
    {
      "inputs": [
        {
          "internalType": "address",
          "name": "spender",
          "type": "address"
        },
        {
          "internalType": "uint256",
          "name": "addedValue",
          "type": "uint256"
        }
      ],
      "name": "increaseAllowance",
      "outputs": [
        {
          "internalType": "bool",
          "name": "",
          "type": "bool"
        }
      ],
      "stateMutability": "nonpayable",
      "type": "function"
    },
    {
      "inputs": [
        {
          "internalType": "string",
          "name": "name_",
          "type": "string"
        },
        {
          "internalType": "string",
          "name": "symbol_",
          "type": "string"
        }
      ],
      "name": "initialize",
      "outputs": [],
      "stateMutability": "nonpayable",
      "type": "function"
    },
    {
      "inputs": [],
      "name": "name",
      "outputs": [
        {
          "internalType": "string",
          "name": "",
          "type": "string"
        }
      ],
      "stateMutability": "view",
      "type": "function"
    },
    {
      "inputs": [],
      "name": "symbol",
      "outputs": [
        {
          "internalType": "string",
          "name": "",
          "type": "string"
        }
      ],
      "stateMutability": "view",
      "type": "function"
    },
    {
      "inputs": [],
      "name": "totalSupply",
      "outputs": [
        {
          "internalType": "uint256",
          "name": "",
          "type": "uint256"
        }
      ],
      "stateMutability": "view",
      "type": "function"
    },
    {
      "inputs": [
        {
          "internalType": "address",
          "name": "to",
          "type": "address"
        },
        {
          "internalType": "uint256",
          "name": "amount",
          "type": "uint256"
        }
      ],
      "name": "transfer",
      "outputs": [
        {
          "internalType": "bool",
          "name": "",
          "type": "bool"
        }
      ],
      "stateMutability": "nonpayable",
      "type": "function"
    },
    {
      "inputs": [
        {
          "internalType": "address",
          "name": "from",
          "type": "address"
        },
        {
          "internalType": "address",
          "name": "to",
          "type": "address"
        },
        {
          "internalType": "uint256",
          "name": "amount",
          "type": "uint256"
        }
      ],
      "name": "transferFrom",
      "outputs": [
        {
          "internalType": "bool",
          "name": "",
          "type": "bool"
        }
      ],
      "stateMutability": "nonpayable",
      "type": "function"
    }
  ],
  "bytecode": {
    "object": "0x608060405234801561001057600080fd5b5061001961001e565b6100de565b600054610100900460ff161561008a5760405162461bcd60e51b815260206004820152602760248201527f496e697469616c697a61626c653a20636f6e747261637420697320696e697469604482015266616c697a696e6760c81b606482015260840160405180910390fd5b60005460ff90811610156100dc576000805460ff191660ff9081179091556040519081527f7f26b83ff96e1f2b6a682f133852f6798a09c465da95921460cefb38474024989060200160405180910390a15b565b610ea3806100ed6000396000f3fe608060405234801561001057600080fd5b50600436106100ea5760003560e01c8063395093511161008c57806395d89b411161006657806395d89b41146101c5578063a457c2d7146101cd578063a9059cbb146101e0578063dd62ed3e146101f357600080fd5b806339509351146101765780634cd88b761461018957806370a082311461019c57600080fd5b806318160ddd116100c857806318160ddd1461013a57806323b872dd1461014c57806325caa2621461015f578063313ce5671461016757600080fd5b80630572b0cc146100ef57806306fdde03146100f9578063095ea7b314610117575b600080fd5b6100f7610206565b005b610101610230565b60405161010e9190610a8d565b60405180910390f35b61012a610125366004610ac3565b6102c2565b604051901515815260200161010e565b6035545b60405190815260200161010e565b61012a61015a366004610aed565b6102dc565b61013e610300565b6040516012815260200161010e565b61012a610184366004610ac3565b6103bb565b6100f7610197366004610bcc565b6103dd565b61013e6101aa366004610c30565b6001600160a01b031660009081526033602052604090205490565b6101016104f7565b61012a6101db366004610ac3565b610506565b61012a6101ee366004610ac3565b610581565b61013e610201366004610c4b565b61058f565b61022e6040518060400160405280600781526020016668656c6c6f6f6f60c81b8152506105ba565b565b60606036805461023f90610c7e565b80601f016020809104026020016040519081016040528092919081815260200182805461026b90610c7e565b80156102b85780601f1061028d576101008083540402835291602001916102b8565b820191906000526020600020905b81548152906001019060200180831161029b57829003601f168201915b5050505050905090565b6000336102d0818585610600565b60019150505b92915050565b6000336102ea858285610724565b6102f585858561079e565b506001949350505050565b6040516370a0823160e01b815230600482015260009073ae78736cd615f374d3085123a210448e74fc639390829082906370a0823190602401602060405180830381865afa158015610356573d6000803e3d6000fd5b505050506040513d601f19601f8201168201806040525081019061037a9190610cb8565b90506102d66040518060400160405280601a81526020017f724554482062616c202866726f6d206665657329202a2a2a3a200000000000008152508261096c565b6000336102d08185856103ce838361058f565b6103d89190610cd1565b610600565b600054610100900460ff16158080156103fd5750600054600160ff909116105b806104175750303b158015610417575060005460ff166001145b61047f5760405162461bcd60e51b815260206004820152602e60248201527f496e697469616c697a61626c653a20636f6e747261637420697320616c72656160448201526d191e481a5b9a5d1a585b1a5e995960921b60648201526084015b60405180910390fd5b6000805460ff1916600117905580156104a2576000805461ff0019166101001790555b6104ac83836109b5565b80156104f2576000805461ff0019169055604051600181527f7f26b83ff96e1f2b6a682f133852f6798a09c465da95921460cefb38474024989060200160405180910390a15b505050565b60606037805461023f90610c7e565b60003381610514828661058f565b9050838110156105745760405162461bcd60e51b815260206004820152602560248201527f45524332303a2064656372656173656420616c6c6f77616e63652062656c6f77604482015264207a65726f60d81b6064820152608401610476565b6102f58286868403610600565b6000336102d081858561079e565b6001600160a01b03918216600090815260346020908152604080832093909416825291909152205490565b6105fd816040516024016105ce9190610a8d565b60408051601f198184030181529190526020810180516001600160e01b031663104c13eb60e21b1790526109e6565b50565b6001600160a01b0383166106625760405162461bcd60e51b8152602060048201526024808201527f45524332303a20617070726f76652066726f6d20746865207a65726f206164646044820152637265737360e01b6064820152608401610476565b6001600160a01b0382166106c35760405162461bcd60e51b815260206004820152602260248201527f45524332303a20617070726f766520746f20746865207a65726f206164647265604482015261737360f01b6064820152608401610476565b6001600160a01b0383811660008181526034602090815260408083209487168084529482529182902085905590518481527f8c5be1e5ebec7d5bd14f71427d1e84f3dd0314c0f7b2291e5b200ac8c7c3b925910160405180910390a3505050565b6000610730848461058f565b90506000198114610798578181101561078b5760405162461bcd60e51b815260206004820152601d60248201527f45524332303a20696e73756666696369656e7420616c6c6f77616e63650000006044820152606401610476565b6107988484848403610600565b50505050565b6001600160a01b0383166108025760405162461bcd60e51b815260206004820152602560248201527f45524332303a207472616e736665722066726f6d20746865207a65726f206164604482015264647265737360d81b6064820152608401610476565b6001600160a01b0382166108645760405162461bcd60e51b815260206004820152602360248201527f45524332303a207472616e7366657220746f20746865207a65726f206164647260448201526265737360e81b6064820152608401610476565b6001600160a01b038316600090815260336020526040902054818110156108dc5760405162461bcd60e51b815260206004820152602660248201527f45524332303a207472616e7366657220616d6f756e7420657863656564732062604482015265616c616e636560d01b6064820152608401610476565b6001600160a01b03808516600090815260336020526040808220858503905591851681529081208054849290610913908490610cd1565b92505081905550826001600160a01b0316846001600160a01b03167fddf252ad1be2c89b69c2b068fc378daa952ba7f163c4a11628f55a4df523b3ef8460405161095f91815260200190565b60405180910390a3610798565b6109b18282604051602401610982929190610cf2565b60408051601f198184030181529190526020810180516001600160e01b03166309710a9d60e41b1790526109e6565b5050565b600054610100900460ff166109dc5760405162461bcd60e51b815260040161047690610d14565b6109b18282610a07565b80516a636f6e736f6c652e6c6f67602083016000808483855afa5050505050565b600054610100900460ff16610a2e5760405162461bcd60e51b815260040161047690610d14565b6036610a3a8382610dad565b5060376104f28282610dad565b6000815180845260005b81811015610a6d57602081850181015186830182015201610a51565b506000602082860101526020601f19601f83011685010191505092915050565b602081526000610aa06020830184610a47565b9392505050565b80356001600160a01b0381168114610abe57600080fd5b919050565b60008060408385031215610ad657600080fd5b610adf83610aa7565b946020939093013593505050565b600080600060608486031215610b0257600080fd5b610b0b84610aa7565b9250610b1960208501610aa7565b9150604084013590509250925092565b634e487b7160e01b600052604160045260246000fd5b600082601f830112610b5057600080fd5b813567ffffffffffffffff80821115610b6b57610b6b610b29565b604051601f8301601f19908116603f01168101908282118183101715610b9357610b93610b29565b81604052838152866020858801011115610bac57600080fd5b836020870160208301376000602085830101528094505050505092915050565b60008060408385031215610bdf57600080fd5b823567ffffffffffffffff80821115610bf757600080fd5b610c0386838701610b3f565b93506020850135915080821115610c1957600080fd5b50610c2685828601610b3f565b9150509250929050565b600060208284031215610c4257600080fd5b610aa082610aa7565b60008060408385031215610c5e57600080fd5b610c6783610aa7565b9150610c7560208401610aa7565b90509250929050565b600181811c90821680610c9257607f821691505b602082108103610cb257634e487b7160e01b600052602260045260246000fd5b50919050565b600060208284031215610cca57600080fd5b5051919050565b808201808211156102d657634e487b7160e01b600052601160045260246000fd5b604081526000610d056040830185610a47565b90508260208301529392505050565b6020808252602b908201527f496e697469616c697a61626c653a20636f6e7472616374206973206e6f74206960408201526a6e697469616c697a696e6760a81b606082015260800190565b601f8211156104f257600081815260208120601f850160051c81016020861015610d865750805b601f850160051c820191505b81811015610da557828155600101610d92565b505050505050565b815167ffffffffffffffff811115610dc757610dc7610b29565b610ddb81610dd58454610c7e565b84610d5f565b602080601f831160018114610e105760008415610df85750858301515b600019600386901b1c1916600185901b178555610da5565b600085815260208120601f198616915b82811015610e3f57888601518255948401946001909101908401610e20565b5085821015610e5d5787850151600019600388901b60f8161c191681555b5050505050600190811b0190555056fea2646970667358221220cf842612caa2da7050cf7bbb2d5448a8efccb11476b88caaa7a4f4ce2f42f2f464736f6c63430008150033",
    "linkReferences": {}
  },
  "methodIdentifiers": {
    "allowance(address,address)": "dd62ed3e",
    "approve(address,uint256)": "095ea7b3",
    "balanceOf(address)": "70a08231",
    "decimals()": "313ce567",
    "decreaseAllowance(address,uint256)": "a457c2d7",
    "getBal()": "25caa262",
    "getRewards()": "0572b0cc",
    "increaseAllowance(address,uint256)": "39509351",
    "initialize(string,string)": "4cd88b76",
    "name()": "06fdde03",
    "symbol()": "95d89b41",
    "totalSupply()": "18160ddd",
    "transfer(address,uint256)": "a9059cbb",
    "transferFrom(address,address,uint256)": "23b872dd"
  },
  "id": 3
}