{
  "abi": [
    {
      "inputs": [],
      "stateMutability": "nonpayable",
      "type": "constructor"
    },
    {
      "anonymous": false,
      "inputs": [
        {
          "indexed": true,
          "internalType": "address",
          "name": "owner",
          "type": "address"
        },
        {
          "indexed": true,
          "internalType": "address",
          "name": "spender",
          "type": "address"
        },
        {
          "indexed": false,
          "internalType": "uint256",
          "name": "value",
          "type": "uint256"
        }
      ],
      "name": "Approval",
      "type": "event"
    },
    {
      "anonymous": false,
      "inputs": [
        {
          "indexed": false,
          "internalType": "uint8",
          "name": "version",
          "type": "uint8"
        }
      ],
      "name": "Initialized",
      "type": "event"
    },
    {
      "anonymous": false,
      "inputs": [
        {
          "indexed": true,
          "internalType": "address",
          "name": "from",
          "type": "address"
        },
        {
          "indexed": true,
          "internalType": "address",
          "name": "to",
          "type": "address"
        },
        {
          "indexed": false,
          "internalType": "uint256",
          "name": "value",
          "type": "uint256"
        }
      ],
      "name": "Transfer",
      "type": "event"
    },
    {
      "inputs": [
        {
          "internalType": "address",
          "name": "owner",
          "type": "address"
        },
        {
          "internalType": "address",
          "name": "spender",
          "type": "address"
        }
      ],
      "name": "allowance",
      "outputs": [
        {
          "internalType": "uint256",
          "name": "",
          "type": "uint256"
        }
      ],
      "stateMutability": "view",
      "type": "function"
    },
    {
      "inputs": [
        {
          "internalType": "address",
          "name": "spender",
          "type": "address"
        },
        {
          "internalType": "uint256",
          "name": "amount",
          "type": "uint256"
        }
      ],
      "name": "approve",
      "outputs": [
        {
          "internalType": "bool",
          "name": "",
          "type": "bool"
        }
      ],
      "stateMutability": "nonpayable",
      "type": "function"
    },
    {
      "inputs": [
        {
          "internalType": "address",
          "name": "account",
          "type": "address"
        }
      ],
      "name": "balanceOf",
      "outputs": [
        {
          "internalType": "uint256",
          "name": "",
          "type": "uint256"
        }
      ],
      "stateMutability": "view",
      "type": "function"
    },
    {
      "inputs": [],
      "name": "decimals",
      "outputs": [
        {
          "internalType": "uint8",
          "name": "",
          "type": "uint8"
        }
      ],
      "stateMutability": "view",
      "type": "function"
    },
    {
      "inputs": [
        {
          "internalType": "address",
          "name": "spender",
          "type": "address"
        },
        {
          "internalType": "uint256",
          "name": "subtractedValue",
          "type": "uint256"
        }
      ],
      "name": "decreaseAllowance",
      "outputs": [
        {
          "internalType": "bool",
          "name": "",
          "type": "bool"
        }
      ],
      "stateMutability": "nonpayable",
      "type": "function"
    },
    {
      "inputs": [],
      "name": "getBal",
      "outputs": [
        {
          "internalType": "uint256",
          "name": "",
          "type": "uint256"
        }
      ],
      "stateMutability": "view",
      "type": "function"
    },
    {
      "inputs": [],
      "name": "getExchangeRate",
      "outputs": [
        {
          "internalType": "uint256",
          "name": "",
          "type": "uint256"
        }
      ],
      "stateMutability": "view",
      "type": "function"
    },
    {
      "inputs": [
        {
          "internalType": "address",
          "name": "spender",
          "type": "address"
        },
        {
          "internalType": "uint256",
          "name": "addedValue",
          "type": "uint256"
        }
      ],
      "name": "increaseAllowance",
      "outputs": [
        {
          "internalType": "bool",
          "name": "",
          "type": "bool"
        }
      ],
      "stateMutability": "nonpayable",
      "type": "function"
    },
    {
      "inputs": [
        {
          "internalType": "string",
          "name": "name_",
          "type": "string"
        },
        {
          "internalType": "string",
          "name": "symbol_",
          "type": "string"
        }
      ],
      "name": "initialize",
      "outputs": [],
      "stateMutability": "nonpayable",
      "type": "function"
    },
    {
      "inputs": [],
      "name": "name",
      "outputs": [
        {
          "internalType": "string",
          "name": "",
          "type": "string"
        }
      ],
      "stateMutability": "view",
      "type": "function"
    },
    {
      "inputs": [],
      "name": "symbol",
      "outputs": [
        {
          "internalType": "string",
          "name": "",
          "type": "string"
        }
      ],
      "stateMutability": "view",
      "type": "function"
    },
    {
      "inputs": [],
      "name": "totalSupply",
      "outputs": [
        {
          "internalType": "uint256",
          "name": "",
          "type": "uint256"
        }
      ],
      "stateMutability": "view",
      "type": "function"
    },
    {
      "inputs": [
        {
          "internalType": "address",
          "name": "to",
          "type": "address"
        },
        {
          "internalType": "uint256",
          "name": "amount",
          "type": "uint256"
        }
      ],
      "name": "transfer",
      "outputs": [
        {
          "internalType": "bool",
          "name": "",
          "type": "bool"
        }
      ],
      "stateMutability": "nonpayable",
      "type": "function"
    },
    {
      "inputs": [
        {
          "internalType": "address",
          "name": "from",
          "type": "address"
        },
        {
          "internalType": "address",
          "name": "to",
          "type": "address"
        },
        {
          "internalType": "uint256",
          "name": "amount",
          "type": "uint256"
        }
      ],
      "name": "transferFrom",
      "outputs": [
        {
          "internalType": "bool",
          "name": "",
          "type": "bool"
        }
      ],
      "stateMutability": "nonpayable",
      "type": "function"
    }
  ],
  "bytecode": {
    "object": "0x608060405234801561001057600080fd5b5061001961001e565b6100de565b600054610100900460ff161561008a5760405162461bcd60e51b815260206004820152602760248201527f496e697469616c697a61626c653a20636f6e747261637420697320696e697469604482015266616c697a696e6760c81b606482015260840160405180910390fd5b60005460ff90811610156100dc576000805460ff191660ff9081179091556040519081527f7f26b83ff96e1f2b6a682f133852f6798a09c465da95921460cefb38474024989060200160405180910390a15b565b610efc806100ed6000396000f3fe608060405234801561001057600080fd5b50600436106100ea5760003560e01c80634cd88b761161008c578063a457c2d711610066578063a457c2d7146101c5578063a9059cbb146101d8578063dd62ed3e146101eb578063e6aa216c146101fe57600080fd5b80634cd88b761461017f57806370a082311461019457806395d89b41146101bd57600080fd5b806323b872dd116100c857806323b872dd1461014257806325caa26214610155578063313ce5671461015d578063395093511461016c57600080fd5b806306fdde03146100ef578063095ea7b31461010d57806318160ddd14610130575b600080fd5b6100f7610206565b6040516101049190610aeb565b60405180910390f35b61012061011b366004610b1c565b610298565b6040519015158152602001610104565b6035545b604051908152602001610104565b610120610150366004610b46565b6102b2565b6101346102d6565b60405160128152602001610104565b61012061017a366004610b1c565b610394565b61019261018d366004610c25565b6103b6565b005b6101346101a2366004610c89565b6001600160a01b031660009081526033602052604090205490565b6100f76104d0565b6101206101d3366004610b1c565b6104df565b6101206101e6366004610b1c565b61055a565b6101346101f9366004610ca4565b610568565b610134610593565b60606036805461021590610cd7565b80601f016020809104026020016040519081016040528092919081815260200182805461024190610cd7565b801561028e5780601f106102635761010080835404028352916020019161028e565b820191906000526020600020905b81548152906001019060200180831161027157829003601f168201915b5050505050905090565b6000336102a6818585610640565b60019150505b92915050565b6000336102c0858285610764565b6102cb8585856107de565b506001949350505050565b6040516370a0823160e01b8152306004820152600090819073ae78736cd615f374d3085123a210448e74fc6393906370a0823190602401602060405180830381865afa15801561032a573d6000803e3d6000fd5b505050506040513d601f19601f8201168201806040525081019061034e9190610d11565b905061038f6040518060400160405280601a81526020017f724554482062616c202866726f6d206665657329202a2a2a3a20000000000000815250826109ac565b919050565b6000336102a68185856103a78383610568565b6103b19190610d2a565b610640565b600054610100900460ff16158080156103d65750600054600160ff909116105b806103f05750303b1580156103f0575060005460ff166001145b6104585760405162461bcd60e51b815260206004820152602e60248201527f496e697469616c697a61626c653a20636f6e747261637420697320616c72656160448201526d191e481a5b9a5d1a585b1a5e995960921b60648201526084015b60405180910390fd5b6000805460ff19166001179055801561047b576000805461ff0019166101001790555b61048583836109f5565b80156104cb576000805461ff0019169055604051600181527f7f26b83ff96e1f2b6a682f133852f6798a09c465da95921460cefb38474024989060200160405180910390a15b505050565b60606037805461021590610cd7565b600033816104ed8286610568565b90508381101561054d5760405162461bcd60e51b815260206004820152602560248201527f45524332303a2064656372656173656420616c6c6f77616e63652062656c6f77604482015264207a65726f60d81b606482015260840161044f565b6102cb8286868403610640565b6000336102a68185856107de565b6001600160a01b03918216600090815260346020908152604080832093909416825291909152205490565b6040516370a0823160e01b8152306004820152600090600190829073ae78736cd615f374d3085123a210448e74fc6393906370a0823190602401602060405180830381865afa1580156105ea573d6000803e3d6000fd5b505050506040513d601f19601f8201168201806040525081019061060e9190610d11565b9050600061061b60355490565b90508060000361062d57509092915050565b610638838383610a26565b935050505090565b6001600160a01b0383166106a25760405162461bcd60e51b8152602060048201526024808201527f45524332303a20617070726f76652066726f6d20746865207a65726f206164646044820152637265737360e01b606482015260840161044f565b6001600160a01b0382166107035760405162461bcd60e51b815260206004820152602260248201527f45524332303a20617070726f766520746f20746865207a65726f206164647265604482015261737360f01b606482015260840161044f565b6001600160a01b0383811660008181526034602090815260408083209487168084529482529182902085905590518481527f8c5be1e5ebec7d5bd14f71427d1e84f3dd0314c0f7b2291e5b200ac8c7c3b925910160405180910390a3505050565b60006107708484610568565b905060001981146107d857818110156107cb5760405162461bcd60e51b815260206004820152601d60248201527f45524332303a20696e73756666696369656e7420616c6c6f77616e6365000000604482015260640161044f565b6107d88484848403610640565b50505050565b6001600160a01b0383166108425760405162461bcd60e51b815260206004820152602560248201527f45524332303a207472616e736665722066726f6d20746865207a65726f206164604482015264647265737360d81b606482015260840161044f565b6001600160a01b0382166108a45760405162461bcd60e51b815260206004820152602360248201527f45524332303a207472616e7366657220746f20746865207a65726f206164647260448201526265737360e81b606482015260840161044f565b6001600160a01b0383166000908152603360205260409020548181101561091c5760405162461bcd60e51b815260206004820152602660248201527f45524332303a207472616e7366657220616d6f756e7420657863656564732062604482015265616c616e636560d01b606482015260840161044f565b6001600160a01b03808516600090815260336020526040808220858503905591851681529081208054849290610953908490610d2a565b92505081905550826001600160a01b0316846001600160a01b03167fddf252ad1be2c89b69c2b068fc378daa952ba7f163c4a11628f55a4df523b3ef8460405161099f91815260200190565b60405180910390a36107d8565b6109f182826040516024016109c2929190610d4b565b60408051601f198184030181529190526020810180516001600160e01b03166309710a9d60e41b179052610a44565b5050565b600054610100900460ff16610a1c5760405162461bcd60e51b815260040161044f90610d6d565b6109f18282610a65565b6000826000190484118302158202610a3d57600080fd5b5091020490565b80516a636f6e736f6c652e6c6f67602083016000808483855afa5050505050565b600054610100900460ff16610a8c5760405162461bcd60e51b815260040161044f90610d6d565b6036610a988382610e06565b5060376104cb8282610e06565b6000815180845260005b81811015610acb57602081850181015186830182015201610aaf565b506000602082860101526020601f19601f83011685010191505092915050565b602081526000610afe6020830184610aa5565b9392505050565b80356001600160a01b038116811461038f57600080fd5b60008060408385031215610b2f57600080fd5b610b3883610b05565b946020939093013593505050565b600080600060608486031215610b5b57600080fd5b610b6484610b05565b9250610b7260208501610b05565b9150604084013590509250925092565b634e487b7160e01b600052604160045260246000fd5b600082601f830112610ba957600080fd5b813567ffffffffffffffff80821115610bc457610bc4610b82565b604051601f8301601f19908116603f01168101908282118183101715610bec57610bec610b82565b81604052838152866020858801011115610c0557600080fd5b836020870160208301376000602085830101528094505050505092915050565b60008060408385031215610c3857600080fd5b823567ffffffffffffffff80821115610c5057600080fd5b610c5c86838701610b98565b93506020850135915080821115610c7257600080fd5b50610c7f85828601610b98565b9150509250929050565b600060208284031215610c9b57600080fd5b610afe82610b05565b60008060408385031215610cb757600080fd5b610cc083610b05565b9150610cce60208401610b05565b90509250929050565b600181811c90821680610ceb57607f821691505b602082108103610d0b57634e487b7160e01b600052602260045260246000fd5b50919050565b600060208284031215610d2357600080fd5b5051919050565b808201808211156102ac57634e487b7160e01b600052601160045260246000fd5b604081526000610d5e6040830185610aa5565b90508260208301529392505050565b6020808252602b908201527f496e697469616c697a61626c653a20636f6e7472616374206973206e6f74206960408201526a6e697469616c697a696e6760a81b606082015260800190565b601f8211156104cb57600081815260208120601f850160051c81016020861015610ddf5750805b601f850160051c820191505b81811015610dfe57828155600101610deb565b505050505050565b815167ffffffffffffffff811115610e2057610e20610b82565b610e3481610e2e8454610cd7565b84610db8565b602080601f831160018114610e695760008415610e515750858301515b600019600386901b1c1916600185901b178555610dfe565b600085815260208120601f198616915b82811015610e9857888601518255948401946001909101908401610e79565b5085821015610eb65787850151600019600388901b60f8161c191681555b5050505050600190811b0190555056fea264697066735822122095acb086a9b0dc6838e980b2993a48652f13f5821270280a351552c6c24cc2eb64736f6c63430008150033",
    "linkReferences": {}
  },
  "methodIdentifiers": {
    "allowance(address,address)": "dd62ed3e",
    "approve(address,uint256)": "095ea7b3",
    "balanceOf(address)": "70a08231",
    "decimals()": "313ce567",
    "decreaseAllowance(address,uint256)": "a457c2d7",
    "getBal()": "25caa262",
    "getExchangeRate()": "e6aa216c",
    "increaseAllowance(address,uint256)": "39509351",
    "initialize(string,string)": "4cd88b76",
    "name()": "06fdde03",
    "symbol()": "95d89b41",
    "totalSupply()": "18160ddd",
    "transfer(address,uint256)": "a9059cbb",
    "transferFrom(address,address,uint256)": "23b872dd"
  },
  "id": 4
}