{
  "abi": [
    {
      "inputs": [],
      "stateMutability": "nonpayable",
      "type": "constructor"
    },
    {
      "inputs": [
        {
          "internalType": "uint256",
          "name": "deadline",
          "type": "uint256"
        },
        {
          "internalType": "uint256",
          "name": "blockTimestamp",
          "type": "uint256"
        }
      ],
      "name": "OZError08",
      "type": "error"
    },
    {
      "inputs": [
        {
          "internalType": "address",
          "name": "owner",
          "type": "address"
        },
        {
          "internalType": "address",
          "name": "spender",
          "type": "address"
        }
      ],
      "name": "OZError09",
      "type": "error"
    },
    {
      "inputs": [
        {
          "internalType": "address",
          "name": "tokenOut",
          "type": "address"
        }
      ],
      "name": "OZError18",
      "type": "error"
    },
    {
      "inputs": [
        {
          "internalType": "uint256",
          "name": "amount",
          "type": "uint256"
        }
      ],
      "name": "OZError19",
      "type": "error"
    },
    {
      "anonymous": false,
      "inputs": [
        {
          "indexed": true,
          "internalType": "address",
          "name": "owner",
          "type": "address"
        },
        {
          "indexed": true,
          "internalType": "address",
          "name": "spender",
          "type": "address"
        },
        {
          "indexed": false,
          "internalType": "uint256",
          "name": "value",
          "type": "uint256"
        }
      ],
      "name": "Approval",
      "type": "event"
    },
    {
      "anonymous": false,
      "inputs": [
        {
          "indexed": false,
          "internalType": "uint8",
          "name": "version",
          "type": "uint8"
        }
      ],
      "name": "Initialized",
      "type": "event"
    },
    {
      "anonymous": false,
      "inputs": [
        {
          "indexed": true,
          "internalType": "address",
          "name": "from",
          "type": "address"
        },
        {
          "indexed": true,
          "internalType": "address",
          "name": "to",
          "type": "address"
        },
        {
          "indexed": false,
          "internalType": "uint256",
          "name": "value",
          "type": "uint256"
        }
      ],
      "name": "Transfer",
      "type": "event"
    },
    {
      "inputs": [],
      "name": "DOMAIN_SEPARATOR",
      "outputs": [
        {
          "internalType": "bytes32",
          "name": "",
          "type": "bytes32"
        }
      ],
      "stateMutability": "view",
      "type": "function"
    },
    {
      "inputs": [
        {
          "internalType": "address",
          "name": "owner",
          "type": "address"
        },
        {
          "internalType": "address",
          "name": "spender",
          "type": "address"
        }
      ],
      "name": "allowance",
      "outputs": [
        {
          "internalType": "uint256",
          "name": "",
          "type": "uint256"
        }
      ],
      "stateMutability": "view",
      "type": "function"
    },
    {
      "inputs": [
        {
          "internalType": "address",
          "name": "spender",
          "type": "address"
        },
        {
          "internalType": "uint256",
          "name": "amount",
          "type": "uint256"
        }
      ],
      "name": "approve",
      "outputs": [
        {
          "internalType": "bool",
          "name": "",
          "type": "bool"
        }
      ],
      "stateMutability": "nonpayable",
      "type": "function"
    },
    {
      "inputs": [
        {
          "internalType": "address",
          "name": "account",
          "type": "address"
        }
      ],
      "name": "balanceOf",
      "outputs": [
        {
          "internalType": "uint256",
          "name": "",
          "type": "uint256"
        }
      ],
      "stateMutability": "view",
      "type": "function"
    },
    {
      "inputs": [],
      "name": "circulatingSupply",
      "outputs": [
        {
          "internalType": "uint256",
          "name": "",
          "type": "uint256"
        }
      ],
      "stateMutability": "view",
      "type": "function"
    },
    {
      "inputs": [],
      "name": "decimals",
      "outputs": [
        {
          "internalType": "uint8",
          "name": "",
          "type": "uint8"
        }
      ],
      "stateMutability": "view",
      "type": "function"
    },
    {
      "inputs": [
        {
          "internalType": "address",
          "name": "spender",
          "type": "address"
        },
        {
          "internalType": "uint256",
          "name": "subtractedValue",
          "type": "uint256"
        }
      ],
      "name": "decreaseAllowance",
      "outputs": [
        {
          "internalType": "bool",
          "name": "",
          "type": "bool"
        }
      ],
      "stateMutability": "nonpayable",
      "type": "function"
    },
    {
      "inputs": [
        {
          "internalType": "enum QuoteAsset",
          "name": "asset_",
          "type": "uint8"
        }
      ],
      "name": "getExchangeRate",
      "outputs": [
        {
          "internalType": "uint256",
          "name": "",
          "type": "uint256"
        }
      ],
      "stateMutability": "view",
      "type": "function"
    },
    {
      "inputs": [],
      "name": "getExchangeRate",
      "outputs": [
        {
          "internalType": "uint256",
          "name": "",
          "type": "uint256"
        }
      ],
      "stateMutability": "view",
      "type": "function"
    },
    {
      "inputs": [],
      "name": "getOZ",
      "outputs": [
        {
          "internalType": "contract ozIDiamond",
          "name": "",
          "type": "address"
        }
      ],
      "stateMutability": "view",
      "type": "function"
    },
    {
      "inputs": [
        {
          "internalType": "address",
          "name": "spender",
          "type": "address"
        },
        {
          "internalType": "uint256",
          "name": "addedValue",
          "type": "uint256"
        }
      ],
      "name": "increaseAllowance",
      "outputs": [
        {
          "internalType": "bool",
          "name": "",
          "type": "bool"
        }
      ],
      "stateMutability": "nonpayable",
      "type": "function"
    },
    {
      "inputs": [
        {
          "internalType": "string",
          "name": "name_",
          "type": "string"
        },
        {
          "internalType": "string",
          "name": "symbol_",
          "type": "string"
        },
        {
          "internalType": "address",
          "name": "ozDiamond_",
          "type": "address"
        },
        {
          "internalType": "address",
          "name": "teamVestingWallet_",
          "type": "address"
        },
        {
          "internalType": "address",
          "name": "guildVestingWallet_",
          "type": "address"
        },
        {
          "internalType": "uint256",
          "name": "totalSupply_",
          "type": "uint256"
        },
        {
          "internalType": "uint256",
          "name": "communityAmount_",
          "type": "uint256"
        },
        {
          "internalType": "uint256",
          "name": "teamAmount_",
          "type": "uint256"
        },
        {
          "internalType": "uint256",
          "name": "guildAmount_",
          "type": "uint256"
        }
      ],
      "name": "initialize",
      "outputs": [],
      "stateMutability": "nonpayable",
      "type": "function"
    },
    {
      "inputs": [],
      "name": "name",
      "outputs": [
        {
          "internalType": "string",
          "name": "",
          "type": "string"
        }
      ],
      "stateMutability": "view",
      "type": "function"
    },
    {
      "inputs": [
        {
          "internalType": "address",
          "name": "owner",
          "type": "address"
        }
      ],
      "name": "nonces",
      "outputs": [
        {
          "internalType": "uint256",
          "name": "",
          "type": "uint256"
        }
      ],
      "stateMutability": "view",
      "type": "function"
    },
    {
      "inputs": [
        {
          "internalType": "address",
          "name": "owner",
          "type": "address"
        },
        {
          "internalType": "address",
          "name": "spender",
          "type": "address"
        },
        {
          "internalType": "uint256",
          "name": "value",
          "type": "uint256"
        },
        {
          "internalType": "uint256",
          "name": "deadline",
          "type": "uint256"
        },
        {
          "internalType": "uint8",
          "name": "v",
          "type": "uint8"
        },
        {
          "internalType": "bytes32",
          "name": "r",
          "type": "bytes32"
        },
        {
          "internalType": "bytes32",
          "name": "s_",
          "type": "bytes32"
        }
      ],
      "name": "permit",
      "outputs": [],
      "stateMutability": "nonpayable",
      "type": "function"
    },
    {
      "inputs": [],
      "name": "recicledSupply",
      "outputs": [
        {
          "internalType": "uint256",
          "name": "",
          "type": "uint256"
        }
      ],
      "stateMutability": "view",
      "type": "function"
    },
    {
      "inputs": [
        {
          "internalType": "address",
          "name": "owner_",
          "type": "address"
        },
        {
          "internalType": "address",
          "name": "receiver_",
          "type": "address"
        },
        {
          "internalType": "address",
          "name": "tokenOut_",
          "type": "address"
        },
        {
          "internalType": "uint256",
          "name": "ozlAmountIn_",
          "type": "uint256"
        },
        {
          "internalType": "uint256[]",
          "name": "minAmountsOut_",
          "type": "uint256[]"
        }
      ],
      "name": "redeem",
      "outputs": [
        {
          "internalType": "uint256",
          "name": "amountOut",
          "type": "uint256"
        }
      ],
      "stateMutability": "nonpayable",
      "type": "function"
    },
    {
      "inputs": [],
      "name": "symbol",
      "outputs": [
        {
          "internalType": "string",
          "name": "",
          "type": "string"
        }
      ],
      "stateMutability": "view",
      "type": "function"
    },
    {
      "inputs": [],
      "name": "totalSupply",
      "outputs": [
        {
          "internalType": "uint256",
          "name": "",
          "type": "uint256"
        }
      ],
      "stateMutability": "view",
      "type": "function"
    },
    {
      "inputs": [
        {
          "internalType": "address",
          "name": "to",
          "type": "address"
        },
        {
          "internalType": "uint256",
          "name": "amount",
          "type": "uint256"
        }
      ],
      "name": "transfer",
      "outputs": [
        {
          "internalType": "bool",
          "name": "",
          "type": "bool"
        }
      ],
      "stateMutability": "nonpayable",
      "type": "function"
    },
    {
      "inputs": [
        {
          "internalType": "address",
          "name": "from",
          "type": "address"
        },
        {
          "internalType": "address",
          "name": "to",
          "type": "address"
        },
        {
          "internalType": "uint256",
          "name": "amount",
          "type": "uint256"
        }
      ],
      "name": "transferFrom",
      "outputs": [
        {
          "internalType": "bool",
          "name": "",
          "type": "bool"
        }
      ],
      "stateMutability": "nonpayable",
      "type": "function"
    }
  ],
  "bytecode": {
    "object": "0x608060405234801561001057600080fd5b5061001961001e565b6100de565b600054610100900460ff161561008a5760405162461bcd60e51b815260206004820152602760248201527f496e697469616c697a61626c653a20636f6e747261637420697320696e697469604482015266616c697a696e6760c81b606482015260840160405180910390fd5b60005460ff90811610156100dc576000805460ff191660ff9081179091556040519081527f7f26b83ff96e1f2b6a682f133852f6798a09c465da95921460cefb38474024989060200160405180910390a15b565b61233d80620000ee6000396000f3fe608060405234801561001057600080fd5b50600436106101375760003560e01c80636afa0287116100b857806395d89b411161007c57806395d89b4114610273578063a457c2d71461027b578063a9059cbb1461028e578063d505accf146102a1578063dd62ed3e146102b4578063e6aa216c146102c757600080fd5b80636afa02871461021457806370a08231146102275780637ecebe00146102505780638b5f1a6b146102635780639358928b1461026b57600080fd5b80633644e515116100ff5780633644e515146101b157806339509351146101b95780634d02a3f7146101cc57806359c64e12146101df57806364d4c78a146101ff57600080fd5b806306fdde031461013c578063095ea7b31461015a57806318160ddd1461017d57806323b872dd1461018f578063313ce567146101a2575b600080fd5b6101446102cf565b6040516101519190611b00565b60405180910390f35b61016d610168366004611b58565b610361565b6040519015158152602001610151565b6035545b604051908152602001610151565b61016d61019d366004611b84565b61037b565b60405160128152602001610151565b61018161039f565b61016d6101c7366004611b58565b6103ae565b6101816101da366004611bc5565b6103d0565b6101e7610502565b6040516001600160a01b039091168152602001610151565b61021261020d366004611c9d565b610544565b005b610181610222366004611d80565b610700565b610181610235366004611e5a565b6001600160a01b031660009081526033602052604090205490565b61018161025e366004611e5a565b610999565b6101816109b7565b610181610a2d565b610144610aa4565b61016d610289366004611b58565b610ab3565b61016d61029c366004611b58565b610b2e565b6102126102af366004611e77565b610b3c565b6101816102c2366004611eee565b610c52565b610181610c7d565b6060603680546102de90611f27565b80601f016020809104026020016040519081016040528092919081815260200182805461030a90611f27565b80156103575780601f1061032c57610100808354040283529160200191610357565b820191906000526020600020905b81548152906001019060200180831161033a57829003601f168201915b5050505050905090565b60003361036f818585610c89565b60019150505b92915050565b600033610389858285610dad565b610394858585610e27565b506001949350505050565b60006103a9610ff5565b905090565b60003361036f8185856103c18383610c52565b6103cb9190611f71565b610c89565b6000670de0b6b3a764000081806103e5611070565b51905060005b8181101561049e576103fb611070565b818151811061040c5761040c611f84565b60209081029190910101516040516370a0823160e01b81523060048201526001600160a01b03909116906370a0823190602401602060405180830381865afa15801561045c573d6000803e3d6000fd5b505050506040513d601f19601f820116820180604052508101906104809190611f9a565b61048a9084611f71565b92508061049681611fb3565b9150506103eb565b50600060028660028111156104b5576104b5611fcc565b146104c9576104c486846110df565b6104cb565b825b905060006104d7610a2d565b9050806000036104ec57509295945050505050565b6104f78583836111f8565b979650505050505050565b600061053561053260017f86ce1ea4932afb23386a483af3bf37658d9a562b0cc91e2c799fcb236cb30d57611fe2565b90565b546001600160a01b0316919050565b600054610100900460ff16158080156105645750600054600160ff909116105b8061057e5750303b15801561057e575060005460ff166001145b6105e65760405162461bcd60e51b815260206004820152602e60248201527f496e697469616c697a61626c653a20636f6e747261637420697320616c72656160448201526d191e481a5b9a5d1a585b1a5e995960921b60648201526084015b60405180910390fd5b6000805460ff191660011790558015610609576000805461ff0019166101001790555b6106138a8a611216565b6106368a604051806040016040528060018152602001603160f81b81525061124b565b8761066561053260017f86ce1ea4932afb23386a483af3bf37658d9a562b0cc91e2c799fcb236cb30d57611fe2565b80546001600160a01b0319166001600160a01b039290921691909117905561068d308661127c565b610698308986610e27565b6106a3308885610e27565b6106ae308784610e27565b80156106f4576000805461ff0019169055604051600181527f7f26b83ff96e1f2b6a682f133852f6798a09c465da95921460cefb38474024989060200160405180910390a15b50505050505050505050565b60008061070b610502565b90506000610717611070565b60405163423f0b9160e01b81526001600160a01b03888116600483015291925060009184169063423f0b9190602401602060405180830381865afa158015610763573d6000803e3d6000fd5b505050506040513d601f19601f820116820180604052508101906107879190611ff5565b6001600160a01b03161480156107a6575060006107a4828861135b565b125b156107cf5760405163d74ef47560e01b81526001600160a01b03871660048201526024016105dd565b336001600160a01b038916146107ea576107ea883387610dad565b60006108096107f960026103d0565b8790670de0b6b3a76400006111f8565b604051631567339f60e31b81526001600160a01b038b81166004830152306024830152604482018990529192509084169063ab399cf890606401600060405180830381600087803b15801561085d57600080fd5b505af1158015610871573d6000803e3d6000fd5b505050508160008151811061088857610888611f84565b60200260200101516001600160a01b0316876001600160a01b03160361091557846000815181106108bb576108bb611f84565b60200260200101518110156108e657604051631aa1e78f60e31b8152600481018290526024016105dd565b61090b826000815181106108fc576108fc611f84565b602002602001015189836113c3565b9250610990915050565b60405163094463e760e01b81526001600160a01b0384169063094463e790610947908a908c9086908b90600401612012565b6020604051808303816000875af1158015610966573d6000803e3d6000fd5b505050506040513d601f19601f8201168201806040525081019061098a9190611f9a565b93505050505b95945050505050565b6001600160a01b038116600090815260996020526040812054610375565b6000806109c2610502565b6001600160a01b0316637d098e646040518163ffffffff1660e01b815260040160a060405180830381865afa1580156109ff573d6000803e3d6000fd5b505050506040513d601f19601f82011682018060405250810190610a23919061207c565b5095945050505050565b600080610a38610502565b6001600160a01b0316637d098e646040518163ffffffff1660e01b815260040160a060405180830381865afa158015610a75573d6000803e3d6000fd5b505050506040513d601f19601f82011682018060405250810190610a99919061207c565b509195945050505050565b6060603780546102de90611f27565b60003381610ac18286610c52565b905083811015610b215760405162461bcd60e51b815260206004820152602560248201527f45524332303a2064656372656173656420616c6c6f77616e63652062656c6f77604482015264207a65726f60d81b60648201526084016105dd565b6103948286868403610c89565b60003361036f818585610e27565b83421115610b665760405163184f1e0160e11b8152600481018590524260248201526044016105dd565b60007f6e71edae12b1b97f4d1f60370fef10105fa2faae0126114a169c64845d6126c9888888610b958c61141a565b6040805160208101969096526001600160a01b0394851690860152929091166060840152608083015260a082015260c0810186905260e0016040516020818303038152906040528051906020012090506000610bf082611442565b90506000610c0082878787611490565b9050896001600160a01b0316816001600160a01b031614610c4757604051635091bef560e01b81526001600160a01b0380831660048301528b1660248201526044016105dd565b6106f48a8a8a610c89565b6001600160a01b03918216600090815260346020908152604080832093909416825291909152205490565b60006103a960006103d0565b6001600160a01b038316610ceb5760405162461bcd60e51b8152602060048201526024808201527f45524332303a20617070726f76652066726f6d20746865207a65726f206164646044820152637265737360e01b60648201526084016105dd565b6001600160a01b038216610d4c5760405162461bcd60e51b815260206004820152602260248201527f45524332303a20617070726f766520746f20746865207a65726f206164647265604482015261737360f01b60648201526084016105dd565b6001600160a01b0383811660008181526034602090815260408083209487168084529482529182902085905590518481527f8c5be1e5ebec7d5bd14f71427d1e84f3dd0314c0f7b2291e5b200ac8c7c3b925910160405180910390a3505050565b6000610db98484610c52565b90506000198114610e215781811015610e145760405162461bcd60e51b815260206004820152601d60248201527f45524332303a20696e73756666696369656e7420616c6c6f77616e636500000060448201526064016105dd565b610e218484848403610c89565b50505050565b6001600160a01b038316610e8b5760405162461bcd60e51b815260206004820152602560248201527f45524332303a207472616e736665722066726f6d20746865207a65726f206164604482015264647265737360d81b60648201526084016105dd565b6001600160a01b038216610eed5760405162461bcd60e51b815260206004820152602360248201527f45524332303a207472616e7366657220746f20746865207a65726f206164647260448201526265737360e81b60648201526084016105dd565b6001600160a01b03831660009081526033602052604090205481811015610f655760405162461bcd60e51b815260206004820152602660248201527f45524332303a207472616e7366657220616d6f756e7420657863656564732062604482015265616c616e636560d01b60648201526084016105dd565b6001600160a01b03808516600090815260336020526040808220858503905591851681529081208054849290610f9c908490611f71565b92505081905550826001600160a01b0316846001600160a01b03167fddf252ad1be2c89b69c2b068fc378daa952ba7f163c4a11628f55a4df523b3ef84604051610fe891815260200190565b60405180910390a3610e21565b60006103a97f8b73c3c69bb8fe3d512ecc4cf759cc79239f7b179b0ffacaa9a75d522b39400f61102460655490565b6066546040805160208101859052908101839052606081018290524660808201523060a082015260009060c0016040516020818303038152906040528051906020012090509392505050565b606061107a610502565b6001600160a01b03166338ab35d46040518163ffffffff1660e01b8152600401600060405180830381865afa1580156110b7573d6000803e3d6000fd5b505050506040513d6000823e601f3d908101601f191682016040526103a991908101906120bc565b6000808360028111156110f4576110f4611fcc565b0361117c57611175611104610502565b6001600160a01b031663f424c4ba6040518163ffffffff1660e01b8152600401602060405180830381865afa158015611141573d6000803e3d6000fd5b505050506040513d601f19601f820116820180604052508101906111659190611f9a565b8390670de0b6b3a76400006111f8565b9050610375565b600183600281111561119057611190611fcc565b03610375576040805160048152602481019091526020810180516001600160e01b0316636a57db9d60e11b1790526111cf6111c9610502565b826114ba565b90506000818060200190518101906111e79190611f9a565b90506109908482670de0b6b3a76400005b600082600019048411830215820261120f57600080fd5b5091020490565b600054610100900460ff1661123d5760405162461bcd60e51b81526004016105dd9061214b565b61124782826114e6565b5050565b600054610100900460ff166112725760405162461bcd60e51b81526004016105dd9061214b565b6112478282611526565b6001600160a01b0382166112d25760405162461bcd60e51b815260206004820152601f60248201527f45524332303a206d696e7420746f20746865207a65726f20616464726573730060448201526064016105dd565b80603560008282546112e49190611f71565b90915550506001600160a01b03821660009081526033602052604081208054839290611311908490611f71565b90915550506040518181526001600160a01b038316906000907fddf252ad1be2c89b69c2b068fc378daa952ba7f163c4a11628f55a4df523b3ef9060200160405180910390a35050565b8151600090815b818110156113b757836001600160a01b031685828151811061138657611386611f84565b60200260200101516001600160a01b0316036113a55791506103759050565b806113af81611fb3565b915050611362565b50600019949350505050565b604080516001600160a01b038416602482015260448082018490528251808303909101815260649091019091526020810180516001600160e01b031663a9059cbb60e01b179052611415908490611567565b505050565b6001600160a01b03811660009081526099602052604090208054600181018255905b50919050565b600061037561144f610ff5565b8360405161190160f01b6020820152602281018390526042810182905260009060620160405160208183030381529060405280519060200120905092915050565b60008060006114a18787878761163c565b915091506114ae81611729565b5090505b949350505050565b60606114df83836040518060600160405280602581526020016122e3602591396118e2565b9392505050565b600054610100900460ff1661150d5760405162461bcd60e51b81526004016105dd9061214b565b603661151983826121e4565b50603761141582826121e4565b600054610100900460ff1661154d5760405162461bcd60e51b81526004016105dd9061214b565b815160209283012081519190920120606591909155606655565b60006115bc826040518060400160405280602081526020017f5361666545524332303a206c6f772d6c6576656c2063616c6c206661696c6564815250856001600160a01b031661195a9092919063ffffffff16565b90508051600014806115dd5750808060200190518101906115dd91906122a4565b6114155760405162461bcd60e51b815260206004820152602a60248201527f5361666545524332303a204552433230206f7065726174696f6e20646964206e6044820152691bdd081cdd58d8d9595960b21b60648201526084016105dd565b6000807f7fffffffffffffffffffffffffffffff5d576e7357a4501ddfe92f46681b20a08311156116735750600090506003611720565b8460ff16601b1415801561168b57508460ff16601c14155b1561169c5750600090506004611720565b6040805160008082526020820180845289905260ff881692820192909252606081018690526080810185905260019060a0016020604051602081039080840390855afa1580156116f0573d6000803e3d6000fd5b5050604051601f1901519150506001600160a01b03811661171957600060019250925050611720565b9150600090505b94509492505050565b600081600481111561173d5761173d611fcc565b036117455750565b600181600481111561175957611759611fcc565b036117a65760405162461bcd60e51b815260206004820152601860248201527f45434453413a20696e76616c6964207369676e6174757265000000000000000060448201526064016105dd565b60028160048111156117ba576117ba611fcc565b036118075760405162461bcd60e51b815260206004820152601f60248201527f45434453413a20696e76616c6964207369676e6174757265206c656e6774680060448201526064016105dd565b600381600481111561181b5761181b611fcc565b036118735760405162461bcd60e51b815260206004820152602260248201527f45434453413a20696e76616c6964207369676e6174757265202773272076616c604482015261756560f01b60648201526084016105dd565b600481600481111561188757611887611fcc565b036118df5760405162461bcd60e51b815260206004820152602260248201527f45434453413a20696e76616c6964207369676e6174757265202776272076616c604482015261756560f01b60648201526084016105dd565b50565b6060600080856001600160a01b0316856040516118ff91906122c6565b600060405180830381855afa9150503d806000811461193a576040519150601f19603f3d011682016040523d82523d6000602084013e61193f565b606091505b509150915061195086838387611969565b9695505050505050565b60606114b284846000856119e2565b606083156119d85782516000036119d1576001600160a01b0385163b6119d15760405162461bcd60e51b815260206004820152601d60248201527f416464726573733a2063616c6c20746f206e6f6e2d636f6e747261637400000060448201526064016105dd565b50816114b2565b6114b28383611ab2565b606082471015611a435760405162461bcd60e51b815260206004820152602660248201527f416464726573733a20696e73756666696369656e742062616c616e636520666f6044820152651c8818d85b1b60d21b60648201526084016105dd565b600080866001600160a01b03168587604051611a5f91906122c6565b60006040518083038185875af1925050503d8060008114611a9c576040519150601f19603f3d011682016040523d82523d6000602084013e611aa1565b606091505b50915091506104f787838387611969565b815115611ac25781518083602001fd5b8060405162461bcd60e51b81526004016105dd9190611b00565b60005b83811015611af7578181015183820152602001611adf565b50506000910152565b6020815260008251806020840152611b1f816040850160208701611adc565b601f01601f19169190910160400192915050565b6001600160a01b03811681146118df57600080fd5b8035611b5381611b33565b919050565b60008060408385031215611b6b57600080fd5b8235611b7681611b33565b946020939093013593505050565b600080600060608486031215611b9957600080fd5b8335611ba481611b33565b92506020840135611bb481611b33565b929592945050506040919091013590565b600060208284031215611bd757600080fd5b8135600381106114df57600080fd5b634e487b7160e01b600052604160045260246000fd5b604051601f8201601f1916810167ffffffffffffffff81118282101715611c2557611c25611be6565b604052919050565b600082601f830112611c3e57600080fd5b813567ffffffffffffffff811115611c5857611c58611be6565b611c6b601f8201601f1916602001611bfc565b818152846020838601011115611c8057600080fd5b816020850160208301376000918101602001919091529392505050565b60008060008060008060008060006101208a8c031215611cbc57600080fd5b893567ffffffffffffffff80821115611cd457600080fd5b611ce08d838e01611c2d565b9a5060208c0135915080821115611cf657600080fd5b50611d038c828d01611c2d565b98505060408a0135611d1481611b33565b965060608a0135611d2481611b33565b9550611d3260808b01611b48565b989b979a50959894979660a0860135965060c08601359560e0810135955061010001359350915050565b600067ffffffffffffffff821115611d7657611d76611be6565b5060051b60200190565b600080600080600060a08688031215611d9857600080fd5b8535611da381611b33565b9450602086810135611db481611b33565b94506040870135611dc481611b33565b935060608701359250608087013567ffffffffffffffff811115611de757600080fd5b8701601f81018913611df857600080fd5b8035611e0b611e0682611d5c565b611bfc565b81815260059190911b8201830190838101908b831115611e2a57600080fd5b928401925b82841015611e4857833582529284019290840190611e2f565b80955050505050509295509295909350565b600060208284031215611e6c57600080fd5b81356114df81611b33565b600080600080600080600060e0888a031215611e9257600080fd5b8735611e9d81611b33565b96506020880135611ead81611b33565b95506040880135945060608801359350608088013560ff81168114611ed157600080fd5b9699959850939692959460a0840135945060c09093013592915050565b60008060408385031215611f0157600080fd5b8235611f0c81611b33565b91506020830135611f1c81611b33565b809150509250929050565b600181811c90821680611f3b57607f821691505b60208210810361143c57634e487b7160e01b600052602260045260246000fd5b634e487b7160e01b600052601160045260246000fd5b8082018082111561037557610375611f5b565b634e487b7160e01b600052603260045260246000fd5b600060208284031215611fac57600080fd5b5051919050565b600060018201611fc557611fc5611f5b565b5060010190565b634e487b7160e01b600052602160045260246000fd5b8181038181111561037557610375611f5b565b60006020828403121561200757600080fd5b81516114df81611b33565b6001600160a01b03858116825284166020808301919091526040820184905260806060830181905283519083018190526000918481019160a085019190845b8181101561206d57845184529382019392820192600101612051565b50919998505050505050505050565b600080600080600060a0868803121561209457600080fd5b5050835160208501516040860151606087015160809097015192989197509594509092509050565b600060208083850312156120cf57600080fd5b825167ffffffffffffffff8111156120e657600080fd5b8301601f810185136120f757600080fd5b8051612105611e0682611d5c565b81815260059190911b8201830190838101908783111561212457600080fd5b928401925b828410156104f757835161213c81611b33565b82529284019290840190612129565b6020808252602b908201527f496e697469616c697a61626c653a20636f6e7472616374206973206e6f74206960408201526a6e697469616c697a696e6760a81b606082015260800190565b601f82111561141557600081815260208120601f850160051c810160208610156121bd5750805b601f850160051c820191505b818110156121dc578281556001016121c9565b505050505050565b815167ffffffffffffffff8111156121fe576121fe611be6565b6122128161220c8454611f27565b84612196565b602080601f831160018114612247576000841561222f5750858301515b600019600386901b1c1916600185901b1785556121dc565b600085815260208120601f198616915b8281101561227657888601518255948401946001909101908401612257565b50858210156122945787850151600019600388901b60f8161c191681555b5050505050600190811b01905550565b6000602082840312156122b657600080fd5b815180151581146114df57600080fd5b600082516122d8818460208701611adc565b919091019291505056fe416464726573733a206c6f772d6c6576656c207374617469632063616c6c206661696c6564a264697066735822122049fca296326dcf4252211bcb86bd06a4656b921349cccc01fb29055dcd19bc2364736f6c63430008150033",
    "linkReferences": {}
  },
  "methodIdentifiers": {
    "DOMAIN_SEPARATOR()": "3644e515",
    "allowance(address,address)": "dd62ed3e",
    "approve(address,uint256)": "095ea7b3",
    "balanceOf(address)": "70a08231",
    "circulatingSupply()": "9358928b",
    "decimals()": "313ce567",
    "decreaseAllowance(address,uint256)": "a457c2d7",
    "getExchangeRate()": "e6aa216c",
    "getExchangeRate(uint8)": "4d02a3f7",
    "getOZ()": "59c64e12",
    "increaseAllowance(address,uint256)": "39509351",
    "initialize(string,string,address,address,address,uint256,uint256,uint256,uint256)": "64d4c78a",
    "name()": "06fdde03",
    "nonces(address)": "7ecebe00",
    "permit(address,address,uint256,uint256,uint8,bytes32,bytes32)": "d505accf",
    "recicledSupply()": "8b5f1a6b",
    "redeem(address,address,address,uint256,uint256[])": "6afa0287",
    "symbol()": "95d89b41",
    "totalSupply()": "18160ddd",
    "transfer(address,uint256)": "a9059cbb",
    "transferFrom(address,address,uint256)": "23b872dd"
  },
  "id": 4
}