{
  "abi": [
    {
      "inputs": [],
      "stateMutability": "nonpayable",
      "type": "constructor"
    },
    {
      "inputs": [
        {
          "internalType": "uint256",
          "name": "deadline",
          "type": "uint256"
        },
        {
          "internalType": "uint256",
          "name": "blockTimestamp",
          "type": "uint256"
        }
      ],
      "name": "OZError08",
      "type": "error"
    },
    {
      "inputs": [
        {
          "internalType": "address",
          "name": "owner",
          "type": "address"
        },
        {
          "internalType": "address",
          "name": "spender",
          "type": "address"
        }
      ],
      "name": "OZError09",
      "type": "error"
    },
    {
      "inputs": [
        {
          "internalType": "address",
          "name": "tokenOut",
          "type": "address"
        }
      ],
      "name": "OZError18",
      "type": "error"
    },
    {
      "inputs": [
        {
          "internalType": "uint256",
          "name": "amount",
          "type": "uint256"
        }
      ],
      "name": "OZError19",
      "type": "error"
    },
    {
      "inputs": [
        {
          "internalType": "uint256",
          "name": "amount",
          "type": "uint256"
        }
      ],
      "name": "OZError34",
      "type": "error"
    },
    {
      "anonymous": false,
      "inputs": [
        {
          "indexed": true,
          "internalType": "address",
          "name": "receiver",
          "type": "address"
        },
        {
          "indexed": true,
          "internalType": "uint256",
          "name": "amount",
          "type": "uint256"
        }
      ],
      "name": "Allocated",
      "type": "event"
    },
    {
      "anonymous": false,
      "inputs": [
        {
          "indexed": true,
          "internalType": "address",
          "name": "owner",
          "type": "address"
        },
        {
          "indexed": true,
          "internalType": "address",
          "name": "spender",
          "type": "address"
        },
        {
          "indexed": false,
          "internalType": "uint256",
          "name": "value",
          "type": "uint256"
        }
      ],
      "name": "Approval",
      "type": "event"
    },
    {
      "anonymous": false,
      "inputs": [
        {
          "indexed": false,
          "internalType": "uint8",
          "name": "version",
          "type": "uint8"
        }
      ],
      "name": "Initialized",
      "type": "event"
    },
    {
      "anonymous": false,
      "inputs": [
        {
          "indexed": true,
          "internalType": "address",
          "name": "from",
          "type": "address"
        },
        {
          "indexed": true,
          "internalType": "address",
          "name": "to",
          "type": "address"
        },
        {
          "indexed": false,
          "internalType": "uint256",
          "name": "value",
          "type": "uint256"
        }
      ],
      "name": "Transfer",
      "type": "event"
    },
    {
      "inputs": [],
      "name": "DOMAIN_SEPARATOR",
      "outputs": [
        {
          "internalType": "bytes32",
          "name": "",
          "type": "bytes32"
        }
      ],
      "stateMutability": "view",
      "type": "function"
    },
    {
      "inputs": [
        {
          "internalType": "contract IOZLvesting",
          "name": "receiver_",
          "type": "address"
        },
        {
          "internalType": "uint256",
          "name": "amount_",
          "type": "uint256"
        }
      ],
      "name": "allocate",
      "outputs": [],
      "stateMutability": "nonpayable",
      "type": "function"
    },
    {
      "inputs": [
        {
          "internalType": "address",
          "name": "owner",
          "type": "address"
        },
        {
          "internalType": "address",
          "name": "spender",
          "type": "address"
        }
      ],
      "name": "allowance",
      "outputs": [
        {
          "internalType": "uint256",
          "name": "",
          "type": "uint256"
        }
      ],
      "stateMutability": "view",
      "type": "function"
    },
    {
      "inputs": [
        {
          "internalType": "address",
          "name": "spender",
          "type": "address"
        },
        {
          "internalType": "uint256",
          "name": "amount",
          "type": "uint256"
        }
      ],
      "name": "approve",
      "outputs": [
        {
          "internalType": "bool",
          "name": "",
          "type": "bool"
        }
      ],
      "stateMutability": "nonpayable",
      "type": "function"
    },
    {
      "inputs": [
        {
          "internalType": "address",
          "name": "account",
          "type": "address"
        }
      ],
      "name": "balanceOf",
      "outputs": [
        {
          "internalType": "uint256",
          "name": "",
          "type": "uint256"
        }
      ],
      "stateMutability": "view",
      "type": "function"
    },
    {
      "inputs": [],
      "name": "circulatingSupply",
      "outputs": [
        {
          "internalType": "uint256",
          "name": "",
          "type": "uint256"
        }
      ],
      "stateMutability": "view",
      "type": "function"
    },
    {
      "inputs": [],
      "name": "decimals",
      "outputs": [
        {
          "internalType": "uint8",
          "name": "",
          "type": "uint8"
        }
      ],
      "stateMutability": "view",
      "type": "function"
    },
    {
      "inputs": [
        {
          "internalType": "address",
          "name": "spender",
          "type": "address"
        },
        {
          "internalType": "uint256",
          "name": "subtractedValue",
          "type": "uint256"
        }
      ],
      "name": "decreaseAllowance",
      "outputs": [
        {
          "internalType": "bool",
          "name": "",
          "type": "bool"
        }
      ],
      "stateMutability": "nonpayable",
      "type": "function"
    },
    {
      "inputs": [
        {
          "internalType": "enum QuoteAsset",
          "name": "asset_",
          "type": "uint8"
        }
      ],
      "name": "getExchangeRate",
      "outputs": [
        {
          "internalType": "uint256",
          "name": "",
          "type": "uint256"
        }
      ],
      "stateMutability": "view",
      "type": "function"
    },
    {
      "inputs": [],
      "name": "getExchangeRate",
      "outputs": [
        {
          "internalType": "uint256",
          "name": "",
          "type": "uint256"
        }
      ],
      "stateMutability": "view",
      "type": "function"
    },
    {
      "inputs": [],
      "name": "getOZ",
      "outputs": [
        {
          "internalType": "contract ozIDiamond",
          "name": "",
          "type": "address"
        }
      ],
      "stateMutability": "view",
      "type": "function"
    },
    {
      "inputs": [
        {
          "internalType": "address",
          "name": "spender",
          "type": "address"
        },
        {
          "internalType": "uint256",
          "name": "addedValue",
          "type": "uint256"
        }
      ],
      "name": "increaseAllowance",
      "outputs": [
        {
          "internalType": "bool",
          "name": "",
          "type": "bool"
        }
      ],
      "stateMutability": "nonpayable",
      "type": "function"
    },
    {
      "inputs": [
        {
          "internalType": "string",
          "name": "name_",
          "type": "string"
        },
        {
          "internalType": "string",
          "name": "symbol_",
          "type": "string"
        },
        {
          "internalType": "address",
          "name": "ozDiamond_",
          "type": "address"
        },
        {
          "internalType": "address",
          "name": "teamVestingWallet_",
          "type": "address"
        },
        {
          "internalType": "address",
          "name": "guildVestingWallet_",
          "type": "address"
        },
        {
          "internalType": "uint256",
          "name": "totalSupply_",
          "type": "uint256"
        },
        {
          "internalType": "uint256",
          "name": "communityAmount_",
          "type": "uint256"
        },
        {
          "internalType": "uint256",
          "name": "teamAmount_",
          "type": "uint256"
        },
        {
          "internalType": "uint256",
          "name": "guildAmount_",
          "type": "uint256"
        }
      ],
      "name": "initialize",
      "outputs": [],
      "stateMutability": "nonpayable",
      "type": "function"
    },
    {
      "inputs": [],
      "name": "name",
      "outputs": [
        {
          "internalType": "string",
          "name": "",
          "type": "string"
        }
      ],
      "stateMutability": "view",
      "type": "function"
    },
    {
      "inputs": [
        {
          "internalType": "address",
          "name": "owner",
          "type": "address"
        }
      ],
      "name": "nonces",
      "outputs": [
        {
          "internalType": "uint256",
          "name": "",
          "type": "uint256"
        }
      ],
      "stateMutability": "view",
      "type": "function"
    },
    {
      "inputs": [],
      "name": "pendingAlloc",
      "outputs": [
        {
          "internalType": "uint256",
          "name": "",
          "type": "uint256"
        }
      ],
      "stateMutability": "view",
      "type": "function"
    },
    {
      "inputs": [
        {
          "internalType": "address",
          "name": "owner",
          "type": "address"
        },
        {
          "internalType": "address",
          "name": "spender",
          "type": "address"
        },
        {
          "internalType": "uint256",
          "name": "value",
          "type": "uint256"
        },
        {
          "internalType": "uint256",
          "name": "deadline",
          "type": "uint256"
        },
        {
          "internalType": "uint8",
          "name": "v",
          "type": "uint8"
        },
        {
          "internalType": "bytes32",
          "name": "r",
          "type": "bytes32"
        },
        {
          "internalType": "bytes32",
          "name": "s_",
          "type": "bytes32"
        }
      ],
      "name": "permit",
      "outputs": [],
      "stateMutability": "nonpayable",
      "type": "function"
    },
    {
      "inputs": [],
      "name": "recicledSupply",
      "outputs": [
        {
          "internalType": "uint256",
          "name": "",
          "type": "uint256"
        }
      ],
      "stateMutability": "view",
      "type": "function"
    },
    {
      "inputs": [
        {
          "internalType": "address",
          "name": "owner_",
          "type": "address"
        },
        {
          "internalType": "address",
          "name": "receiver_",
          "type": "address"
        },
        {
          "internalType": "address",
          "name": "tokenOut_",
          "type": "address"
        },
        {
          "internalType": "uint256",
          "name": "ozlAmountIn_",
          "type": "uint256"
        },
        {
          "internalType": "uint256[]",
          "name": "minAmountsOut_",
          "type": "uint256[]"
        }
      ],
      "name": "redeem",
      "outputs": [
        {
          "internalType": "uint256",
          "name": "amountOut",
          "type": "uint256"
        }
      ],
      "stateMutability": "nonpayable",
      "type": "function"
    },
    {
      "inputs": [],
      "name": "symbol",
      "outputs": [
        {
          "internalType": "string",
          "name": "",
          "type": "string"
        }
      ],
      "stateMutability": "view",
      "type": "function"
    },
    {
      "inputs": [],
      "name": "totalSupply",
      "outputs": [
        {
          "internalType": "uint256",
          "name": "",
          "type": "uint256"
        }
      ],
      "stateMutability": "view",
      "type": "function"
    },
    {
      "inputs": [
        {
          "internalType": "address",
          "name": "to",
          "type": "address"
        },
        {
          "internalType": "uint256",
          "name": "amount",
          "type": "uint256"
        }
      ],
      "name": "transfer",
      "outputs": [
        {
          "internalType": "bool",
          "name": "",
          "type": "bool"
        }
      ],
      "stateMutability": "nonpayable",
      "type": "function"
    },
    {
      "inputs": [
        {
          "internalType": "address",
          "name": "from",
          "type": "address"
        },
        {
          "internalType": "address",
          "name": "to",
          "type": "address"
        },
        {
          "internalType": "uint256",
          "name": "amount",
          "type": "uint256"
        }
      ],
      "name": "transferFrom",
      "outputs": [
        {
          "internalType": "bool",
          "name": "",
          "type": "bool"
        }
      ],
      "stateMutability": "nonpayable",
      "type": "function"
    }
  ],
  "bytecode": {
    "object": "0x608060405234801561001057600080fd5b5061001961001e565b6100de565b600054610100900460ff161561008a5760405162461bcd60e51b815260206004820152602760248201527f496e697469616c697a61626c653a20636f6e747261637420697320696e697469604482015266616c697a696e6760c81b606482015260840160405180910390fd5b60005460ff90811610156100dc576000805460ff191660ff9081179091556040519081527f7f26b83ff96e1f2b6a682f133852f6798a09c465da95921460cefb38474024989060200160405180910390a15b565b61240980620000ee6000396000f3fe608060405234801561001057600080fd5b506004361061014d5760003560e01c806370a08231116100c3578063a9059cbb1161007c578063a9059cbb146102a4578063b78b52df146102b7578063d505accf146102ca578063dd62ed3e146102dd578063e6aa216c146102f0578063ec11818c146102f857600080fd5b806370a082311461023d5780637ecebe00146102665780638b5f1a6b146102795780639358928b1461028157806395d89b4114610289578063a457c2d71461029157600080fd5b80633644e515116101155780633644e515146101c757806339509351146101cf5780634d02a3f7146101e257806359c64e12146101f557806364d4c78a146102155780636afa02871461022a57600080fd5b806306fdde0314610152578063095ea7b31461017057806318160ddd1461019357806323b872dd146101a5578063313ce567146101b8575b600080fd5b61015a610301565b6040516101679190611bcc565b60405180910390f35b61018361017e366004611c24565b610393565b6040519015158152602001610167565b6035545b604051908152602001610167565b6101836101b3366004611c50565b6103ad565b60405160128152602001610167565b6101976103d1565b6101836101dd366004611c24565b6103e0565b6101976101f0366004611c91565b610402565b6101fd610534565b6040516001600160a01b039091168152602001610167565b610228610223366004611d69565b610576565b005b610197610238366004611e4c565b61074a565b61019761024b366004611f26565b6001600160a01b031660009081526033602052604090205490565b610197610274366004611f26565b6109e3565b610197610a01565b610197610a77565b61015a610aee565b61018361029f366004611c24565b610afd565b6101836102b2366004611c24565b610b78565b6102286102c5366004611c24565b610b86565b6102286102d8366004611f43565b610c08565b6101976102eb366004611fba565b610d1e565b610197610d49565b610197609a5481565b60606036805461031090611ff3565b80601f016020809104026020016040519081016040528092919081815260200182805461033c90611ff3565b80156103895780601f1061035e57610100808354040283529160200191610389565b820191906000526020600020905b81548152906001019060200180831161036c57829003601f168201915b5050505050905090565b6000336103a1818585610d55565b60019150505b92915050565b6000336103bb858285610e79565b6103c6858585610ef3565b506001949350505050565b60006103db6110c1565b905090565b6000336103a18185856103f38383610d1e565b6103fd919061203d565b610d55565b6000670de0b6b3a7640000818061041761113c565b51905060005b818110156104d05761042d61113c565b818151811061043e5761043e612050565b60209081029190910101516040516370a0823160e01b81523060048201526001600160a01b03909116906370a0823190602401602060405180830381865afa15801561048e573d6000803e3d6000fd5b505050506040513d601f19601f820116820180604052508101906104b29190612066565b6104bc908461203d565b9250806104c88161207f565b91505061041d565b50600060028660028111156104e7576104e7612098565b146104fb576104f686846111ab565b6104fd565b825b90506000610509610a77565b90508060000361051e57509295945050505050565b6105298583836112c4565b979650505050505050565b600061056761056460017f86ce1ea4932afb23386a483af3bf37658d9a562b0cc91e2c799fcb236cb30d576120ae565b90565b546001600160a01b0316919050565b600054610100900460ff16158080156105965750600054600160ff909116105b806105b05750303b1580156105b0575060005460ff166001145b6106185760405162461bcd60e51b815260206004820152602e60248201527f496e697469616c697a61626c653a20636f6e747261637420697320616c72656160448201526d191e481a5b9a5d1a585b1a5e995960921b60648201526084015b60405180910390fd5b6000805460ff19166001179055801561063b576000805461ff0019166101001790555b6106458a8a6112e2565b6106688a604051806040016040528060018152602001603160f81b815250611317565b8761069761056460017f86ce1ea4932afb23386a483af3bf37658d9a562b0cc91e2c799fcb236cb30d576120ae565b80546001600160a01b0319166001600160a01b03929092169190911790556106bf3086611348565b6106ca308986610ef3565b6106d5308885610ef3565b6106e0308784610ef3565b816106eb84876120ae565b6106f591906120ae565b609a55801561073e576000805461ff0019169055604051600181527f7f26b83ff96e1f2b6a682f133852f6798a09c465da95921460cefb38474024989060200160405180910390a15b50505050505050505050565b600080610755610534565b9050600061076161113c565b60405163423f0b9160e01b81526001600160a01b03888116600483015291925060009184169063423f0b9190602401602060405180830381865afa1580156107ad573d6000803e3d6000fd5b505050506040513d601f19601f820116820180604052508101906107d191906120c1565b6001600160a01b03161480156107f0575060006107ee8288611427565b125b156108195760405163d74ef47560e01b81526001600160a01b038716600482015260240161060f565b336001600160a01b0389161461083457610834883387610e79565b60006108536108436002610402565b8790670de0b6b3a76400006112c4565b604051631567339f60e31b81526001600160a01b038b81166004830152306024830152604482018990529192509084169063ab399cf890606401600060405180830381600087803b1580156108a757600080fd5b505af11580156108bb573d6000803e3d6000fd5b50505050816000815181106108d2576108d2612050565b60200260200101516001600160a01b0316876001600160a01b03160361095f578460008151811061090557610905612050565b602002602001015181101561093057604051631aa1e78f60e31b81526004810182905260240161060f565b6109558260008151811061094657610946612050565b6020026020010151898361148f565b92506109da915050565b60405163094463e760e01b81526001600160a01b0384169063094463e790610991908a908c9086908b906004016120de565b6020604051808303816000875af11580156109b0573d6000803e3d6000fd5b505050506040513d601f19601f820116820180604052508101906109d49190612066565b93505050505b95945050505050565b6001600160a01b0381166000908152609960205260408120546103a7565b600080610a0c610534565b6001600160a01b0316637d098e646040518163ffffffff1660e01b815260040160a060405180830381865afa158015610a49573d6000803e3d6000fd5b505050506040513d601f19601f82011682018060405250810190610a6d9190612148565b5095945050505050565b600080610a82610534565b6001600160a01b0316637d098e646040518163ffffffff1660e01b815260040160a060405180830381865afa158015610abf573d6000803e3d6000fd5b505050506040513d601f19601f82011682018060405250810190610ae39190612148565b509195945050505050565b60606037805461031090611ff3565b60003381610b0b8286610d1e565b905083811015610b6b5760405162461bcd60e51b815260206004820152602560248201527f45524332303a2064656372656173656420616c6c6f77616e63652062656c6f77604482015264207a65726f60d81b606482015260840161060f565b6103c68286868403610d55565b6000336103a1818585610ef3565b609a54811115610bac576040516345ecc85760e11b81526004810182905260240161060f565b610bb7308383610ef3565b80609a6000828254610bc991906120ae565b909155505060405181906001600160a01b038416907f472f36e28bb47edb7c69c9e2ac00a77c66b505df54e9c818ac57110b0629e8c390600090a35050565b83421115610c325760405163184f1e0160e11b81526004810185905242602482015260440161060f565b60007f6e71edae12b1b97f4d1f60370fef10105fa2faae0126114a169c64845d6126c9888888610c618c6114e6565b6040805160208101969096526001600160a01b0394851690860152929091166060840152608083015260a082015260c0810186905260e0016040516020818303038152906040528051906020012090506000610cbc8261150e565b90506000610ccc8287878761155c565b9050896001600160a01b0316816001600160a01b031614610d1357604051635091bef560e01b81526001600160a01b0380831660048301528b16602482015260440161060f565b61073e8a8a8a610d55565b6001600160a01b03918216600090815260346020908152604080832093909416825291909152205490565b60006103db6000610402565b6001600160a01b038316610db75760405162461bcd60e51b8152602060048201526024808201527f45524332303a20617070726f76652066726f6d20746865207a65726f206164646044820152637265737360e01b606482015260840161060f565b6001600160a01b038216610e185760405162461bcd60e51b815260206004820152602260248201527f45524332303a20617070726f766520746f20746865207a65726f206164647265604482015261737360f01b606482015260840161060f565b6001600160a01b0383811660008181526034602090815260408083209487168084529482529182902085905590518481527f8c5be1e5ebec7d5bd14f71427d1e84f3dd0314c0f7b2291e5b200ac8c7c3b925910160405180910390a3505050565b6000610e858484610d1e565b90506000198114610eed5781811015610ee05760405162461bcd60e51b815260206004820152601d60248201527f45524332303a20696e73756666696369656e7420616c6c6f77616e6365000000604482015260640161060f565b610eed8484848403610d55565b50505050565b6001600160a01b038316610f575760405162461bcd60e51b815260206004820152602560248201527f45524332303a207472616e736665722066726f6d20746865207a65726f206164604482015264647265737360d81b606482015260840161060f565b6001600160a01b038216610fb95760405162461bcd60e51b815260206004820152602360248201527f45524332303a207472616e7366657220746f20746865207a65726f206164647260448201526265737360e81b606482015260840161060f565b6001600160a01b038316600090815260336020526040902054818110156110315760405162461bcd60e51b815260206004820152602660248201527f45524332303a207472616e7366657220616d6f756e7420657863656564732062604482015265616c616e636560d01b606482015260840161060f565b6001600160a01b0380851660009081526033602052604080822085850390559185168152908120805484929061106890849061203d565b92505081905550826001600160a01b0316846001600160a01b03167fddf252ad1be2c89b69c2b068fc378daa952ba7f163c4a11628f55a4df523b3ef846040516110b491815260200190565b60405180910390a3610eed565b60006103db7f8b73c3c69bb8fe3d512ecc4cf759cc79239f7b179b0ffacaa9a75d522b39400f6110f060655490565b6066546040805160208101859052908101839052606081018290524660808201523060a082015260009060c0016040516020818303038152906040528051906020012090509392505050565b6060611146610534565b6001600160a01b03166338ab35d46040518163ffffffff1660e01b8152600401600060405180830381865afa158015611183573d6000803e3d6000fd5b505050506040513d6000823e601f3d908101601f191682016040526103db9190810190612188565b6000808360028111156111c0576111c0612098565b03611248576112416111d0610534565b6001600160a01b031663f424c4ba6040518163ffffffff1660e01b8152600401602060405180830381865afa15801561120d573d6000803e3d6000fd5b505050506040513d601f19601f820116820180604052508101906112319190612066565b8390670de0b6b3a76400006112c4565b90506103a7565b600183600281111561125c5761125c612098565b036103a7576040805160048152602481019091526020810180516001600160e01b0316636a57db9d60e11b17905261129b611295610534565b82611586565b90506000818060200190518101906112b39190612066565b90506109da8482670de0b6b3a76400005b60008260001904841183021582026112db57600080fd5b5091020490565b600054610100900460ff166113095760405162461bcd60e51b815260040161060f90612217565b61131382826115b2565b5050565b600054610100900460ff1661133e5760405162461bcd60e51b815260040161060f90612217565b61131382826115f2565b6001600160a01b03821661139e5760405162461bcd60e51b815260206004820152601f60248201527f45524332303a206d696e7420746f20746865207a65726f206164647265737300604482015260640161060f565b80603560008282546113b0919061203d565b90915550506001600160a01b038216600090815260336020526040812080548392906113dd90849061203d565b90915550506040518181526001600160a01b038316906000907fddf252ad1be2c89b69c2b068fc378daa952ba7f163c4a11628f55a4df523b3ef9060200160405180910390a35050565b8151600090815b8181101561148357836001600160a01b031685828151811061145257611452612050565b60200260200101516001600160a01b0316036114715791506103a79050565b8061147b8161207f565b91505061142e565b50600019949350505050565b604080516001600160a01b038416602482015260448082018490528251808303909101815260649091019091526020810180516001600160e01b031663a9059cbb60e01b1790526114e1908490611633565b505050565b6001600160a01b03811660009081526099602052604090208054600181018255905b50919050565b60006103a761151b6110c1565b8360405161190160f01b6020820152602281018390526042810182905260009060620160405160208183030381529060405280519060200120905092915050565b600080600061156d87878787611708565b9150915061157a816117f5565b5090505b949350505050565b60606115ab83836040518060600160405280602581526020016123af602591396119ae565b9392505050565b600054610100900460ff166115d95760405162461bcd60e51b815260040161060f90612217565b60366115e583826122b0565b5060376114e182826122b0565b600054610100900460ff166116195760405162461bcd60e51b815260040161060f90612217565b815160209283012081519190920120606591909155606655565b6000611688826040518060400160405280602081526020017f5361666545524332303a206c6f772d6c6576656c2063616c6c206661696c6564815250856001600160a01b0316611a269092919063ffffffff16565b90508051600014806116a95750808060200190518101906116a99190612370565b6114e15760405162461bcd60e51b815260206004820152602a60248201527f5361666545524332303a204552433230206f7065726174696f6e20646964206e6044820152691bdd081cdd58d8d9595960b21b606482015260840161060f565b6000807f7fffffffffffffffffffffffffffffff5d576e7357a4501ddfe92f46681b20a083111561173f57506000905060036117ec565b8460ff16601b1415801561175757508460ff16601c14155b1561176857506000905060046117ec565b6040805160008082526020820180845289905260ff881692820192909252606081018690526080810185905260019060a0016020604051602081039080840390855afa1580156117bc573d6000803e3d6000fd5b5050604051601f1901519150506001600160a01b0381166117e5576000600192509250506117ec565b9150600090505b94509492505050565b600081600481111561180957611809612098565b036118115750565b600181600481111561182557611825612098565b036118725760405162461bcd60e51b815260206004820152601860248201527f45434453413a20696e76616c6964207369676e61747572650000000000000000604482015260640161060f565b600281600481111561188657611886612098565b036118d35760405162461bcd60e51b815260206004820152601f60248201527f45434453413a20696e76616c6964207369676e6174757265206c656e67746800604482015260640161060f565b60038160048111156118e7576118e7612098565b0361193f5760405162461bcd60e51b815260206004820152602260248201527f45434453413a20696e76616c6964207369676e6174757265202773272076616c604482015261756560f01b606482015260840161060f565b600481600481111561195357611953612098565b036119ab5760405162461bcd60e51b815260206004820152602260248201527f45434453413a20696e76616c6964207369676e6174757265202776272076616c604482015261756560f01b606482015260840161060f565b50565b6060600080856001600160a01b0316856040516119cb9190612392565b600060405180830381855afa9150503d8060008114611a06576040519150601f19603f3d011682016040523d82523d6000602084013e611a0b565b606091505b5091509150611a1c86838387611a35565b9695505050505050565b606061157e8484600085611aae565b60608315611aa4578251600003611a9d576001600160a01b0385163b611a9d5760405162461bcd60e51b815260206004820152601d60248201527f416464726573733a2063616c6c20746f206e6f6e2d636f6e7472616374000000604482015260640161060f565b508161157e565b61157e8383611b7e565b606082471015611b0f5760405162461bcd60e51b815260206004820152602660248201527f416464726573733a20696e73756666696369656e742062616c616e636520666f6044820152651c8818d85b1b60d21b606482015260840161060f565b600080866001600160a01b03168587604051611b2b9190612392565b60006040518083038185875af1925050503d8060008114611b68576040519150601f19603f3d011682016040523d82523d6000602084013e611b6d565b606091505b509150915061052987838387611a35565b815115611b8e5781518083602001fd5b8060405162461bcd60e51b815260040161060f9190611bcc565b60005b83811015611bc3578181015183820152602001611bab565b50506000910152565b6020815260008251806020840152611beb816040850160208701611ba8565b601f01601f19169190910160400192915050565b6001600160a01b03811681146119ab57600080fd5b8035611c1f81611bff565b919050565b60008060408385031215611c3757600080fd5b8235611c4281611bff565b946020939093013593505050565b600080600060608486031215611c6557600080fd5b8335611c7081611bff565b92506020840135611c8081611bff565b929592945050506040919091013590565b600060208284031215611ca357600080fd5b8135600381106115ab57600080fd5b634e487b7160e01b600052604160045260246000fd5b604051601f8201601f1916810167ffffffffffffffff81118282101715611cf157611cf1611cb2565b604052919050565b600082601f830112611d0a57600080fd5b813567ffffffffffffffff811115611d2457611d24611cb2565b611d37601f8201601f1916602001611cc8565b818152846020838601011115611d4c57600080fd5b816020850160208301376000918101602001919091529392505050565b60008060008060008060008060006101208a8c031215611d8857600080fd5b893567ffffffffffffffff80821115611da057600080fd5b611dac8d838e01611cf9565b9a5060208c0135915080821115611dc257600080fd5b50611dcf8c828d01611cf9565b98505060408a0135611de081611bff565b965060608a0135611df081611bff565b9550611dfe60808b01611c14565b989b979a50959894979660a0860135965060c08601359560e0810135955061010001359350915050565b600067ffffffffffffffff821115611e4257611e42611cb2565b5060051b60200190565b600080600080600060a08688031215611e6457600080fd5b8535611e6f81611bff565b9450602086810135611e8081611bff565b94506040870135611e9081611bff565b935060608701359250608087013567ffffffffffffffff811115611eb357600080fd5b8701601f81018913611ec457600080fd5b8035611ed7611ed282611e28565b611cc8565b81815260059190911b8201830190838101908b831115611ef657600080fd5b928401925b82841015611f1457833582529284019290840190611efb565b80955050505050509295509295909350565b600060208284031215611f3857600080fd5b81356115ab81611bff565b600080600080600080600060e0888a031215611f5e57600080fd5b8735611f6981611bff565b96506020880135611f7981611bff565b95506040880135945060608801359350608088013560ff81168114611f9d57600080fd5b9699959850939692959460a0840135945060c09093013592915050565b60008060408385031215611fcd57600080fd5b8235611fd881611bff565b91506020830135611fe881611bff565b809150509250929050565b600181811c9082168061200757607f821691505b60208210810361150857634e487b7160e01b600052602260045260246000fd5b634e487b7160e01b600052601160045260246000fd5b808201808211156103a7576103a7612027565b634e487b7160e01b600052603260045260246000fd5b60006020828403121561207857600080fd5b5051919050565b60006001820161209157612091612027565b5060010190565b634e487b7160e01b600052602160045260246000fd5b818103818111156103a7576103a7612027565b6000602082840312156120d357600080fd5b81516115ab81611bff565b6001600160a01b03858116825284166020808301919091526040820184905260806060830181905283519083018190526000918481019160a085019190845b818110156121395784518452938201939282019260010161211d565b50919998505050505050505050565b600080600080600060a0868803121561216057600080fd5b5050835160208501516040860151606087015160809097015192989197509594509092509050565b6000602080838503121561219b57600080fd5b825167ffffffffffffffff8111156121b257600080fd5b8301601f810185136121c357600080fd5b80516121d1611ed282611e28565b81815260059190911b820183019083810190878311156121f057600080fd5b928401925b8284101561052957835161220881611bff565b825292840192908401906121f5565b6020808252602b908201527f496e697469616c697a61626c653a20636f6e7472616374206973206e6f74206960408201526a6e697469616c697a696e6760a81b606082015260800190565b601f8211156114e157600081815260208120601f850160051c810160208610156122895750805b601f850160051c820191505b818110156122a857828155600101612295565b505050505050565b815167ffffffffffffffff8111156122ca576122ca611cb2565b6122de816122d88454611ff3565b84612262565b602080601f83116001811461231357600084156122fb5750858301515b600019600386901b1c1916600185901b1785556122a8565b600085815260208120601f198616915b8281101561234257888601518255948401946001909101908401612323565b50858210156123605787850151600019600388901b60f8161c191681555b5050505050600190811b01905550565b60006020828403121561238257600080fd5b815180151581146115ab57600080fd5b600082516123a4818460208701611ba8565b919091019291505056fe416464726573733a206c6f772d6c6576656c207374617469632063616c6c206661696c6564a264697066735822122097629b66fe570aef94757affd405e6bbb10711d6fdb6f14ac73a576b4bb95bbf64736f6c63430008150033",
    "linkReferences": {}
  },
  "methodIdentifiers": {
    "DOMAIN_SEPARATOR()": "3644e515",
    "allocate(address,uint256)": "b78b52df",
    "allowance(address,address)": "dd62ed3e",
    "approve(address,uint256)": "095ea7b3",
    "balanceOf(address)": "70a08231",
    "circulatingSupply()": "9358928b",
    "decimals()": "313ce567",
    "decreaseAllowance(address,uint256)": "a457c2d7",
    "getExchangeRate()": "e6aa216c",
    "getExchangeRate(uint8)": "4d02a3f7",
    "getOZ()": "59c64e12",
    "increaseAllowance(address,uint256)": "39509351",
    "initialize(string,string,address,address,address,uint256,uint256,uint256,uint256)": "64d4c78a",
    "name()": "06fdde03",
    "nonces(address)": "7ecebe00",
    "pendingAlloc()": "ec11818c",
    "permit(address,address,uint256,uint256,uint8,bytes32,bytes32)": "d505accf",
    "recicledSupply()": "8b5f1a6b",
    "redeem(address,address,address,uint256,uint256[])": "6afa0287",
    "symbol()": "95d89b41",
    "totalSupply()": "18160ddd",
    "transfer(address,uint256)": "a9059cbb",
    "transferFrom(address,address,uint256)": "23b872dd"
  },
  "id": 4
}