{
  "abi": [
    {
      "inputs": [],
      "stateMutability": "nonpayable",
      "type": "constructor"
    },
    {
      "anonymous": false,
      "inputs": [
        {
          "indexed": true,
          "internalType": "address",
          "name": "owner",
          "type": "address"
        },
        {
          "indexed": true,
          "internalType": "address",
          "name": "spender",
          "type": "address"
        },
        {
          "indexed": false,
          "internalType": "uint256",
          "name": "value",
          "type": "uint256"
        }
      ],
      "name": "Approval",
      "type": "event"
    },
    {
      "anonymous": false,
      "inputs": [
        {
          "indexed": false,
          "internalType": "uint8",
          "name": "version",
          "type": "uint8"
        }
      ],
      "name": "Initialized",
      "type": "event"
    },
    {
      "anonymous": false,
      "inputs": [
        {
          "indexed": true,
          "internalType": "address",
          "name": "from",
          "type": "address"
        },
        {
          "indexed": true,
          "internalType": "address",
          "name": "to",
          "type": "address"
        },
        {
          "indexed": false,
          "internalType": "uint256",
          "name": "value",
          "type": "uint256"
        }
      ],
      "name": "Transfer",
      "type": "event"
    },
    {
      "inputs": [
        {
          "internalType": "address",
          "name": "owner",
          "type": "address"
        },
        {
          "internalType": "address",
          "name": "spender",
          "type": "address"
        }
      ],
      "name": "allowance",
      "outputs": [
        {
          "internalType": "uint256",
          "name": "",
          "type": "uint256"
        }
      ],
      "stateMutability": "view",
      "type": "function"
    },
    {
      "inputs": [
        {
          "internalType": "address",
          "name": "spender",
          "type": "address"
        },
        {
          "internalType": "uint256",
          "name": "amount",
          "type": "uint256"
        }
      ],
      "name": "approve",
      "outputs": [
        {
          "internalType": "bool",
          "name": "",
          "type": "bool"
        }
      ],
      "stateMutability": "nonpayable",
      "type": "function"
    },
    {
      "inputs": [
        {
          "internalType": "address",
          "name": "account",
          "type": "address"
        }
      ],
      "name": "balanceOf",
      "outputs": [
        {
          "internalType": "uint256",
          "name": "",
          "type": "uint256"
        }
      ],
      "stateMutability": "view",
      "type": "function"
    },
    {
      "inputs": [],
      "name": "decimals",
      "outputs": [
        {
          "internalType": "uint8",
          "name": "",
          "type": "uint8"
        }
      ],
      "stateMutability": "view",
      "type": "function"
    },
    {
      "inputs": [
        {
          "internalType": "address",
          "name": "spender",
          "type": "address"
        },
        {
          "internalType": "uint256",
          "name": "subtractedValue",
          "type": "uint256"
        }
      ],
      "name": "decreaseAllowance",
      "outputs": [
        {
          "internalType": "bool",
          "name": "",
          "type": "bool"
        }
      ],
      "stateMutability": "nonpayable",
      "type": "function"
    },
    {
      "inputs": [],
      "name": "getBal",
      "outputs": [
        {
          "internalType": "uint256",
          "name": "",
          "type": "uint256"
        }
      ],
      "stateMutability": "view",
      "type": "function"
    },
    {
      "inputs": [],
      "name": "getExchangeRate",
      "outputs": [
        {
          "internalType": "uint256",
          "name": "",
          "type": "uint256"
        }
      ],
      "stateMutability": "view",
      "type": "function"
    },
    {
      "inputs": [
        {
          "internalType": "address",
          "name": "spender",
          "type": "address"
        },
        {
          "internalType": "uint256",
          "name": "addedValue",
          "type": "uint256"
        }
      ],
      "name": "increaseAllowance",
      "outputs": [
        {
          "internalType": "bool",
          "name": "",
          "type": "bool"
        }
      ],
      "stateMutability": "nonpayable",
      "type": "function"
    },
    {
      "inputs": [
        {
          "internalType": "string",
          "name": "name_",
          "type": "string"
        },
        {
          "internalType": "string",
          "name": "symbol_",
          "type": "string"
        },
        {
          "internalType": "address",
          "name": "ozDiamond_",
          "type": "address"
        },
        {
          "internalType": "uint256",
          "name": "totalSupply_",
          "type": "uint256"
        },
        {
          "internalType": "uint256",
          "name": "communityAmount_",
          "type": "uint256"
        }
      ],
      "name": "initialize",
      "outputs": [],
      "stateMutability": "nonpayable",
      "type": "function"
    },
    {
      "inputs": [],
      "name": "name",
      "outputs": [
        {
          "internalType": "string",
          "name": "",
          "type": "string"
        }
      ],
      "stateMutability": "view",
      "type": "function"
    },
    {
      "inputs": [],
      "name": "symbol",
      "outputs": [
        {
          "internalType": "string",
          "name": "",
          "type": "string"
        }
      ],
      "stateMutability": "view",
      "type": "function"
    },
    {
      "inputs": [],
      "name": "totalSupply",
      "outputs": [
        {
          "internalType": "uint256",
          "name": "",
          "type": "uint256"
        }
      ],
      "stateMutability": "view",
      "type": "function"
    },
    {
      "inputs": [
        {
          "internalType": "address",
          "name": "to",
          "type": "address"
        },
        {
          "internalType": "uint256",
          "name": "amount",
          "type": "uint256"
        }
      ],
      "name": "transfer",
      "outputs": [
        {
          "internalType": "bool",
          "name": "",
          "type": "bool"
        }
      ],
      "stateMutability": "nonpayable",
      "type": "function"
    },
    {
      "inputs": [
        {
          "internalType": "address",
          "name": "from",
          "type": "address"
        },
        {
          "internalType": "address",
          "name": "to",
          "type": "address"
        },
        {
          "internalType": "uint256",
          "name": "amount",
          "type": "uint256"
        }
      ],
      "name": "transferFrom",
      "outputs": [
        {
          "internalType": "bool",
          "name": "",
          "type": "bool"
        }
      ],
      "stateMutability": "nonpayable",
      "type": "function"
    }
  ],
  "bytecode": {
    "object": "0x608060405234801561001057600080fd5b5061001961001e565b6100de565b600054610100900460ff161561008a5760405162461bcd60e51b815260206004820152602760248201527f496e697469616c697a61626c653a20636f6e747261637420697320696e697469604482015266616c697a696e6760c81b606482015260840160405180910390fd5b60005460ff90811610156100dc576000805460ff191660ff9081179091556040519081527f7f26b83ff96e1f2b6a682f133852f6798a09c465da95921460cefb38474024989060200160405180910390a15b565b61107d806100ed6000396000f3fe608060405234801561001057600080fd5b50600436106100ea5760003560e01c806370a082311161008c578063a457c2d711610066578063a457c2d7146101c5578063a9059cbb146101d8578063dd62ed3e146101eb578063e6aa216c146101fe57600080fd5b806370a082311461017f57806374823132146101a857806395d89b41146101bd57600080fd5b806323b872dd116100c857806323b872dd1461014257806325caa26214610155578063313ce5671461015d578063395093511461016c57600080fd5b806306fdde03146100ef578063095ea7b31461010d57806318160ddd14610130575b600080fd5b6100f7610206565b6040516101049190610c37565b60405180910390f35b61012061011b366004610c68565b610298565b6040519015158152602001610104565b6035545b604051908152602001610104565b610120610150366004610c92565b6102b2565b6101346102d6565b60405160128152602001610104565b61012061017a366004610c68565b610394565b61013461018d366004610cce565b6001600160a01b031660009081526033602052604090205490565b6101bb6101b6366004610d8c565b6103b6565b005b6100f7610538565b6101206101d3366004610c68565b610547565b6101206101e6366004610c68565b6105c2565b6101346101f9366004610e12565b6105d0565b6101346105fb565b60606036805461021590610e45565b80601f016020809104026020016040519081016040528092919081815260200182805461024190610e45565b801561028e5780601f106102635761010080835404028352916020019161028e565b820191906000526020600020905b81548152906001019060200180831161027157829003601f168201915b5050505050905090565b6000336102a68185856106a8565b60019150505b92915050565b6000336102c08582856107cc565b6102cb858585610846565b506001949350505050565b6040516370a0823160e01b8152306004820152600090819073ae78736cd615f374d3085123a210448e74fc6393906370a0823190602401602060405180830381865afa15801561032a573d6000803e3d6000fd5b505050506040513d601f19601f8201168201806040525081019061034e9190610e7f565b905061038f6040518060400160405280601a81526020017f724554482062616c202866726f6d206665657329202a2a2a3a2000000000000081525082610a14565b919050565b6000336102a68185856103a783836105d0565b6103b19190610eae565b6106a8565b600054610100900460ff16158080156103d65750600054600160ff909116105b806103f05750303b1580156103f0575060005460ff166001145b6104585760405162461bcd60e51b815260206004820152602e60248201527f496e697469616c697a61626c653a20636f6e747261637420697320616c72656160448201526d191e481a5b9a5d1a585b1a5e995960921b60648201526084015b60405180910390fd5b6000805460ff19166001179055801561047b576000805461ff0019166101001790555b6104858686610a5d565b836104b76104b460017f86ce1ea4932afb23386a483af3bf37658d9a562b0cc91e2c799fcb236cb30d57610ec1565b90565b80546001600160a01b0319166001600160a01b03929092169190911790556104df3084610a8e565b6104ea308584610846565b8015610530576000805461ff0019169055604051600181527f7f26b83ff96e1f2b6a682f133852f6798a09c465da95921460cefb38474024989060200160405180910390a15b505050505050565b60606037805461021590610e45565b6000338161055582866105d0565b9050838110156105b55760405162461bcd60e51b815260206004820152602560248201527f45524332303a2064656372656173656420616c6c6f77616e63652062656c6f77604482015264207a65726f60d81b606482015260840161044f565b6102cb82868684036106a8565b6000336102a6818585610846565b6001600160a01b03918216600090815260346020908152604080832093909416825291909152205490565b6040516370a0823160e01b8152306004820152600090600190829073ae78736cd615f374d3085123a210448e74fc6393906370a0823190602401602060405180830381865afa158015610652573d6000803e3d6000fd5b505050506040513d601f19601f820116820180604052508101906106769190610e7f565b9050600061068360355490565b90508060000361069557509092915050565b6106a0838383610b6d565b935050505090565b6001600160a01b03831661070a5760405162461bcd60e51b8152602060048201526024808201527f45524332303a20617070726f76652066726f6d20746865207a65726f206164646044820152637265737360e01b606482015260840161044f565b6001600160a01b03821661076b5760405162461bcd60e51b815260206004820152602260248201527f45524332303a20617070726f766520746f20746865207a65726f206164647265604482015261737360f01b606482015260840161044f565b6001600160a01b0383811660008181526034602090815260408083209487168084529482529182902085905590518481527f8c5be1e5ebec7d5bd14f71427d1e84f3dd0314c0f7b2291e5b200ac8c7c3b925910160405180910390a3505050565b60006107d884846105d0565b9050600019811461084057818110156108335760405162461bcd60e51b815260206004820152601d60248201527f45524332303a20696e73756666696369656e7420616c6c6f77616e6365000000604482015260640161044f565b61084084848484036106a8565b50505050565b6001600160a01b0383166108aa5760405162461bcd60e51b815260206004820152602560248201527f45524332303a207472616e736665722066726f6d20746865207a65726f206164604482015264647265737360d81b606482015260840161044f565b6001600160a01b03821661090c5760405162461bcd60e51b815260206004820152602360248201527f45524332303a207472616e7366657220746f20746865207a65726f206164647260448201526265737360e81b606482015260840161044f565b6001600160a01b038316600090815260336020526040902054818110156109845760405162461bcd60e51b815260206004820152602660248201527f45524332303a207472616e7366657220616d6f756e7420657863656564732062604482015265616c616e636560d01b606482015260840161044f565b6001600160a01b038085166000908152603360205260408082208585039055918516815290812080548492906109bb908490610eae565b92505081905550826001600160a01b0316846001600160a01b03167fddf252ad1be2c89b69c2b068fc378daa952ba7f163c4a11628f55a4df523b3ef84604051610a0791815260200190565b60405180910390a3610840565b610a598282604051602401610a2a929190610ed4565b60408051601f198184030181529190526020810180516001600160e01b03166309710a9d60e41b179052610b90565b5050565b600054610100900460ff16610a845760405162461bcd60e51b815260040161044f90610ef6565b610a598282610bb1565b6001600160a01b038216610ae45760405162461bcd60e51b815260206004820152601f60248201527f45524332303a206d696e7420746f20746865207a65726f206164647265737300604482015260640161044f565b8060356000828254610af69190610eae565b90915550506001600160a01b03821660009081526033602052604081208054839290610b23908490610eae565b90915550506040518181526001600160a01b038316906000907fddf252ad1be2c89b69c2b068fc378daa952ba7f163c4a11628f55a4df523b3ef9060200160405180910390a35050565b6000826000190484118302158202610b8457600080fd5b5091020490565b505050565b80516a636f6e736f6c652e6c6f67602083016000808483855afa5050505050565b600054610100900460ff16610bd85760405162461bcd60e51b815260040161044f90610ef6565b6036610be48382610f87565b506037610b8b8282610f87565b6000815180845260005b81811015610c1757602081850181015186830182015201610bfb565b506000602082860101526020601f19601f83011685010191505092915050565b602081526000610c4a6020830184610bf1565b9392505050565b80356001600160a01b038116811461038f57600080fd5b60008060408385031215610c7b57600080fd5b610c8483610c51565b946020939093013593505050565b600080600060608486031215610ca757600080fd5b610cb084610c51565b9250610cbe60208501610c51565b9150604084013590509250925092565b600060208284031215610ce057600080fd5b610c4a82610c51565b634e487b7160e01b600052604160045260246000fd5b600082601f830112610d1057600080fd5b813567ffffffffffffffff80821115610d2b57610d2b610ce9565b604051601f8301601f19908116603f01168101908282118183101715610d5357610d53610ce9565b81604052838152866020858801011115610d6c57600080fd5b836020870160208301376000602085830101528094505050505092915050565b600080600080600060a08688031215610da457600080fd5b853567ffffffffffffffff80821115610dbc57600080fd5b610dc889838a01610cff565b96506020880135915080821115610dde57600080fd5b50610deb88828901610cff565b945050610dfa60408701610c51565b94979396509394606081013594506080013592915050565b60008060408385031215610e2557600080fd5b610e2e83610c51565b9150610e3c60208401610c51565b90509250929050565b600181811c90821680610e5957607f821691505b602082108103610e7957634e487b7160e01b600052602260045260246000fd5b50919050565b600060208284031215610e9157600080fd5b5051919050565b634e487b7160e01b600052601160045260246000fd5b808201808211156102ac576102ac610e98565b818103818111156102ac576102ac610e98565b604081526000610ee76040830185610bf1565b90508260208301529392505050565b6020808252602b908201527f496e697469616c697a61626c653a20636f6e7472616374206973206e6f74206960408201526a6e697469616c697a696e6760a81b606082015260800190565b601f821115610b8b57600081815260208120601f850160051c81016020861015610f685750805b601f850160051c820191505b8181101561053057828155600101610f74565b815167ffffffffffffffff811115610fa157610fa1610ce9565b610fb581610faf8454610e45565b84610f41565b602080601f831160018114610fea5760008415610fd25750858301515b600019600386901b1c1916600185901b178555610530565b600085815260208120601f198616915b8281101561101957888601518255948401946001909101908401610ffa565b50858210156110375787850151600019600388901b60f8161c191681555b5050505050600190811b0190555056fea264697066735822122029b203bd820704af0b6b799c85df222b360c524b9ee66f5abfd9956be93c851e64736f6c63430008150033",
    "linkReferences": {}
  },
  "methodIdentifiers": {
    "allowance(address,address)": "dd62ed3e",
    "approve(address,uint256)": "095ea7b3",
    "balanceOf(address)": "70a08231",
    "decimals()": "313ce567",
    "decreaseAllowance(address,uint256)": "a457c2d7",
    "getBal()": "25caa262",
    "getExchangeRate()": "e6aa216c",
    "increaseAllowance(address,uint256)": "39509351",
    "initialize(string,string,address,uint256,uint256)": "74823132",
    "name()": "06fdde03",
    "symbol()": "95d89b41",
    "totalSupply()": "18160ddd",
    "transfer(address,uint256)": "a9059cbb",
    "transferFrom(address,address,uint256)": "23b872dd"
  },
  "id": 4
}