{"abi":[{"type":"constructor","inputs":[{"name":"beneficiaryAddress_","type":"address","internalType":"address"},{"name":"startTimestamp_","type":"uint64","internalType":"uint64"},{"name":"durationSeconds_","type":"uint64","internalType":"uint64"},{"name":"ozl_","type":"address","internalType":"address"},{"name":"diamond_","type":"address","internalType":"address"}],"stateMutability":"nonpayable"},{"type":"receive","stateMutability":"payable"},{"type":"function","name":"beneficiary","inputs":[],"outputs":[{"name":"","type":"address","internalType":"address"}],"stateMutability":"view"},{"type":"function","name":"duration","inputs":[],"outputs":[{"name":"","type":"uint256","internalType":"uint256"}],"stateMutability":"view"},{"type":"function","name":"releasable","inputs":[{"name":"token","type":"address","internalType":"address"}],"outputs":[{"name":"","type":"uint256","internalType":"uint256"}],"stateMutability":"view"},{"type":"function","name":"releasable","inputs":[],"outputs":[{"name":"","type":"uint256","internalType":"uint256"}],"stateMutability":"view"},{"type":"function","name":"release","inputs":[{"name":"token","type":"address","internalType":"address"}],"outputs":[],"stateMutability":"nonpayable"},{"type":"function","name":"release","inputs":[],"outputs":[],"stateMutability":"nonpayable"},{"type":"function","name":"released","inputs":[],"outputs":[{"name":"","type":"uint256","internalType":"uint256"}],"stateMutability":"view"},{"type":"function","name":"released","inputs":[{"name":"token","type":"address","internalType":"address"}],"outputs":[{"name":"","type":"uint256","internalType":"uint256"}],"stateMutability":"view"},{"type":"function","name":"start","inputs":[],"outputs":[{"name":"","type":"uint256","internalType":"uint256"}],"stateMutability":"view"},{"type":"function","name":"vestedAmount","inputs":[{"name":"timestamp","type":"uint64","internalType":"uint64"}],"outputs":[{"name":"","type":"uint256","internalType":"uint256"}],"stateMutability":"view"},{"type":"function","name":"vestedAmount","inputs":[],"outputs":[{"name":"","type":"uint256","internalType":"uint256"}],"stateMutability":"view"},{"type":"function","name":"vestedAmount","inputs":[{"name":"token","type":"address","internalType":"address"},{"name":"timestamp","type":"uint64","internalType":"uint64"}],"outputs":[{"name":"","type":"uint256","internalType":"uint256"}],"stateMutability":"view"},{"type":"event","name":"ERC20Released","inputs":[{"name":"token","type":"address","indexed":true,"internalType":"address"},{"name":"amount","type":"uint256","indexed":false,"internalType":"uint256"}],"anonymous":false},{"type":"event","name":"EtherReleased","inputs":[{"name":"amount","type":"uint256","indexed":false,"internalType":"uint256"}],"anonymous":false}],"bytecode":{"object":"0x61012060405234801561001157600080fd5b50604051610d06380380610d0683398101604081905261003091610107565b8484846001600160a01b0383166100a05760405162461bcd60e51b815260206004820152602a60248201527f56657374696e6757616c6c65743a2062656e6566696369617279206973207a65604482015269726f206164647265737360b01b606482015260840160405180910390fd5b6001600160a01b039283166080526001600160401b0391821660a0521660c05291821660e05216610100525061016c915050565b80516001600160a01b03811681146100eb57600080fd5b919050565b80516001600160401b03811681146100eb57600080fd5b600080600080600060a0868803121561011f57600080fd5b610128866100d4565b9450610136602087016100f0565b9350610144604087016100f0565b9250610152606087016100d4565b9150610160608087016100d4565b90509295509295909350565b60805160a05160c05160e05161010051610b266101e0600039600061046c0152600081816103400152818161040701528181610432015281816104d5015261057101526000818160f9015281816105ba015261060f0152600061054701526000818161016301526103100152610b266000f3fe6080604052600436106100ab5760003560e01c806386d1a69f1161006457806386d1a69f146101c257806396132521146101d75780639852595c146101ec578063a3f8eace14610222578063be9a655514610242578063fbccedae1461025757600080fd5b80630a17b06b146100b75780630fb5a6b4146100ea578063191655871461012757806338af3eed1461014957806344b1231f1461018d578063810ec23b146101a257600080fd5b366100b257005b600080fd5b3480156100c357600080fd5b506100d76100d236600461094d565b61026c565b6040519081526020015b60405180910390f35b3480156100f657600080fd5b507f000000000000000000000000000000000000000000000000000000000000000067ffffffffffffffff166100d7565b34801561013357600080fd5b5061014761014236600461097f565b61028f565b005b34801561015557600080fd5b506040516001600160a01b037f00000000000000000000000000000000000000000000000000000000000000001681526020016100e1565b34801561019957600080fd5b506100d7610339565b3480156101ae57600080fd5b506100d76101bd36600461099a565b61036a565b3480156101ce57600080fd5b50610147610400565b3480156101e357600080fd5b506100d76104d3565b3480156101f857600080fd5b506100d761020736600461097f565b6001600160a01b031660009081526001602052604090205490565b34801561022e57600080fd5b506100d761023d36600461097f565b61050f565b34801561024e57600080fd5b506100d761053c565b34801561026357600080fd5b506100d761056a565b60006102896102796104d3565b61028390476109e3565b83610595565b92915050565b600061029a8261050f565b6001600160a01b0383166000908152600160205260408120805492935083929091906102c79084906109e3565b90915550506040518181526001600160a01b038316907fc0e523490dd523c33b1878c9eb14ff46991e3f5b2cd33710918618f2a39cba1b9060200160405180910390a2610335827f00000000000000000000000000000000000000000000000000000000000000008361066f565b5050565b60006103657f00000000000000000000000000000000000000000000000000000000000000004261036a565b905090565b6001600160a01b0382166000908152600160205260408120546103f9906040516370a0823160e01b81523060048201526001600160a01b038616906370a0823190602401602060405180830381865afa1580156103cb573d6000803e3d6000fd5b505050506040513d601f19601f820116820180604052508101906103ef91906109f6565b61028391906109e3565b9392505050565b600061042b7f000000000000000000000000000000000000000000000000000000000000000061050f565b90506104567f000000000000000000000000000000000000000000000000000000000000000061028f565b6040516318da416d60e31b8152600481018290527f00000000000000000000000000000000000000000000000000000000000000006001600160a01b03169063c6d20b6890602401600060405180830381600087803b1580156104b857600080fd5b505af11580156104cc573d6000803e3d6000fd5b5050505050565b7f00000000000000000000000000000000000000000000000000000000000000006001600160a01b031660009081526001602052604090205490565b6001600160a01b038116600090815260016020526040812054610532834261036a565b6102899190610a0f565b67ffffffffffffffff7f00000000000000000000000000000000000000000000000000000000000000001690565b60006103657f000000000000000000000000000000000000000000000000000000000000000061050f565b600061059f61053c565b8267ffffffffffffffff1610156105b857506000610289565b7f000000000000000000000000000000000000000000000000000000000000000067ffffffffffffffff166105eb61053c565b6105f591906109e3565b8267ffffffffffffffff16111561060d575081610289565b7f000000000000000000000000000000000000000000000000000000000000000067ffffffffffffffff1661064061053c565b6106549067ffffffffffffffff8516610a0f565b61065e9085610a22565b6106689190610a39565b9050610289565b604080516001600160a01b038416602482015260448082018490528251808303909101815260649091019091526020810180516001600160e01b031663a9059cbb60e01b1790526106c19084906106c6565b505050565b600061071b826040518060400160405280602081526020017f5361666545524332303a206c6f772d6c6576656c2063616c6c206661696c6564815250856001600160a01b03166107a09092919063ffffffff16565b905080516000148061073c57508080602001905181019061073c9190610a5b565b6106c15760405162461bcd60e51b815260206004820152602a60248201527f5361666545524332303a204552433230206f7065726174696f6e20646964206e6044820152691bdd081cdd58d8d9595960b21b60648201526084015b60405180910390fd5b60606107af84846000856107b7565b949350505050565b6060824710156108185760405162461bcd60e51b815260206004820152602660248201527f416464726573733a20696e73756666696369656e742062616c616e636520666f6044820152651c8818d85b1b60d21b6064820152608401610797565b600080866001600160a01b031685876040516108349190610aa1565b60006040518083038185875af1925050503d8060008114610871576040519150601f19603f3d011682016040523d82523d6000602084013e610876565b606091505b509150915061088787838387610892565b979650505050505050565b606083156109015782516000036108fa576001600160a01b0385163b6108fa5760405162461bcd60e51b815260206004820152601d60248201527f416464726573733a2063616c6c20746f206e6f6e2d636f6e74726163740000006044820152606401610797565b50816107af565b6107af83838151156109165781518083602001fd5b8060405162461bcd60e51b81526004016107979190610abd565b803567ffffffffffffffff8116811461094857600080fd5b919050565b60006020828403121561095f57600080fd5b6103f982610930565b80356001600160a01b038116811461094857600080fd5b60006020828403121561099157600080fd5b6103f982610968565b600080604083850312156109ad57600080fd5b6109b683610968565b91506109c460208401610930565b90509250929050565b634e487b7160e01b600052601160045260246000fd5b80820180821115610289576102896109cd565b600060208284031215610a0857600080fd5b5051919050565b81810381811115610289576102896109cd565b8082028115828204841417610289576102896109cd565b600082610a5657634e487b7160e01b600052601260045260246000fd5b500490565b600060208284031215610a6d57600080fd5b815180151581146103f957600080fd5b60005b83811015610a98578181015183820152602001610a80565b50506000910152565b60008251610ab3818460208701610a7d565b9190910192915050565b6020815260008251806020840152610adc816040850160208701610a7d565b601f01601f1916919091016040019291505056fea2646970667358221220db0207ee0137462bba9f852eb6a004352d99dedd4b6ab1f6403a847a79124cde64736f6c63430008150033","linkReferences":{}},"methodIdentifiers":{"beneficiary()":"38af3eed","duration()":"0fb5a6b4","releasable()":"fbccedae","releasable(address)":"a3f8eace","release()":"86d1a69f","release(address)":"19165587","released()":"96132521","released(address)":"9852595c","start()":"be9a6555","vestedAmount()":"44b1231f","vestedAmount(address,uint64)":"810ec23b","vestedAmount(uint64)":"0a17b06b"},"id":6}