{
  "abi": [
    {
      "inputs": [
        {
          "internalType": "address",
          "name": "beneficiaryAddress_",
          "type": "address"
        },
        {
          "internalType": "uint64",
          "name": "startTimestamp_",
          "type": "uint64"
        },
        {
          "internalType": "uint64",
          "name": "durationSeconds_",
          "type": "uint64"
        },
        {
          "internalType": "address",
          "name": "ozl_",
          "type": "address"
        }
      ],
      "stateMutability": "nonpayable",
      "type": "constructor"
    },
    {
      "anonymous": false,
      "inputs": [
        {
          "indexed": true,
          "internalType": "address",
          "name": "token",
          "type": "address"
        },
        {
          "indexed": false,
          "internalType": "uint256",
          "name": "amount",
          "type": "uint256"
        }
      ],
      "name": "ERC20Released",
      "type": "event"
    },
    {
      "anonymous": false,
      "inputs": [
        {
          "indexed": false,
          "internalType": "uint256",
          "name": "amount",
          "type": "uint256"
        }
      ],
      "name": "EtherReleased",
      "type": "event"
    },
    {
      "inputs": [],
      "name": "beneficiary",
      "outputs": [
        {
          "internalType": "address",
          "name": "",
          "type": "address"
        }
      ],
      "stateMutability": "view",
      "type": "function"
    },
    {
      "inputs": [],
      "name": "duration",
      "outputs": [
        {
          "internalType": "uint256",
          "name": "",
          "type": "uint256"
        }
      ],
      "stateMutability": "view",
      "type": "function"
    },
    {
      "inputs": [
        {
          "internalType": "address",
          "name": "token",
          "type": "address"
        }
      ],
      "name": "releasable",
      "outputs": [
        {
          "internalType": "uint256",
          "name": "",
          "type": "uint256"
        }
      ],
      "stateMutability": "view",
      "type": "function"
    },
    {
      "inputs": [],
      "name": "releasable",
      "outputs": [
        {
          "internalType": "uint256",
          "name": "",
          "type": "uint256"
        }
      ],
      "stateMutability": "view",
      "type": "function"
    },
    {
      "inputs": [
        {
          "internalType": "address",
          "name": "token",
          "type": "address"
        }
      ],
      "name": "release",
      "outputs": [],
      "stateMutability": "nonpayable",
      "type": "function"
    },
    {
      "inputs": [],
      "name": "release",
      "outputs": [],
      "stateMutability": "nonpayable",
      "type": "function"
    },
    {
      "inputs": [],
      "name": "released",
      "outputs": [
        {
          "internalType": "uint256",
          "name": "",
          "type": "uint256"
        }
      ],
      "stateMutability": "view",
      "type": "function"
    },
    {
      "inputs": [
        {
          "internalType": "address",
          "name": "token",
          "type": "address"
        }
      ],
      "name": "released",
      "outputs": [
        {
          "internalType": "uint256",
          "name": "",
          "type": "uint256"
        }
      ],
      "stateMutability": "view",
      "type": "function"
    },
    {
      "inputs": [],
      "name": "start",
      "outputs": [
        {
          "internalType": "uint256",
          "name": "",
          "type": "uint256"
        }
      ],
      "stateMutability": "view",
      "type": "function"
    },
    {
      "inputs": [
        {
          "internalType": "uint64",
          "name": "timestamp",
          "type": "uint64"
        }
      ],
      "name": "vestedAmount",
      "outputs": [
        {
          "internalType": "uint256",
          "name": "",
          "type": "uint256"
        }
      ],
      "stateMutability": "view",
      "type": "function"
    },
    {
      "inputs": [],
      "name": "vestedAmount",
      "outputs": [
        {
          "internalType": "uint256",
          "name": "",
          "type": "uint256"
        }
      ],
      "stateMutability": "view",
      "type": "function"
    },
    {
      "inputs": [
        {
          "internalType": "address",
          "name": "token",
          "type": "address"
        },
        {
          "internalType": "uint64",
          "name": "timestamp",
          "type": "uint64"
        }
      ],
      "name": "vestedAmount",
      "outputs": [
        {
          "internalType": "uint256",
          "name": "",
          "type": "uint256"
        }
      ],
      "stateMutability": "view",
      "type": "function"
    },
    {
      "stateMutability": "payable",
      "type": "receive"
    }
  ],
  "bytecode": {
    "object": "0x61010060405234801561001157600080fd5b50604051610c34380380610c3483398101604081905261003091610100565b8383836001600160a01b0383166100a05760405162461bcd60e51b815260206004820152602a60248201527f56657374696e6757616c6c65743a2062656e6566696369617279206973207a65604482015269726f206164647265737360b01b606482015260840160405180910390fd5b6001600160a01b039283166080526001600160401b0391821660a0521660c0521660e05250610154915050565b80516001600160a01b03811681146100e457600080fd5b919050565b80516001600160401b03811681146100e457600080fd5b6000806000806080858703121561011657600080fd5b61011f856100cd565b935061012d602086016100e9565b925061013b604086016100e9565b9150610149606086016100cd565b905092959194509250565b60805160a05160c05160e051610a7e6101b660003960008181610340015281816104050152818161042d01526104c901526000818160f90152818161051201526105670152600061049f01526000818161016301526103100152610a7e6000f3fe6080604052600436106100ab5760003560e01c806386d1a69f1161006457806386d1a69f146101c257806396132521146101d75780639852595c146101ec578063a3f8eace14610222578063be9a655514610242578063fbccedae1461025757600080fd5b80630a17b06b146100b75780630fb5a6b4146100ea578063191655871461012757806338af3eed1461014957806344b1231f1461018d578063810ec23b146101a257600080fd5b366100b257005b600080fd5b3480156100c357600080fd5b506100d76100d23660046108a5565b61026c565b6040519081526020015b60405180910390f35b3480156100f657600080fd5b507f000000000000000000000000000000000000000000000000000000000000000067ffffffffffffffff166100d7565b34801561013357600080fd5b506101476101423660046108d7565b61028f565b005b34801561015557600080fd5b506040516001600160a01b037f00000000000000000000000000000000000000000000000000000000000000001681526020016100e1565b34801561019957600080fd5b506100d7610339565b3480156101ae57600080fd5b506100d76101bd3660046108f2565b61036a565b3480156101ce57600080fd5b50610147610400565b3480156101e357600080fd5b506100d761042b565b3480156101f857600080fd5b506100d76102073660046108d7565b6001600160a01b031660009081526001602052604090205490565b34801561022e57600080fd5b506100d761023d3660046108d7565b610467565b34801561024e57600080fd5b506100d7610494565b34801561026357600080fd5b506100d76104c2565b600061028961027961042b565b610283904761093b565b836104ed565b92915050565b600061029a82610467565b6001600160a01b0383166000908152600160205260408120805492935083929091906102c790849061093b565b90915550506040518181526001600160a01b038316907fc0e523490dd523c33b1878c9eb14ff46991e3f5b2cd33710918618f2a39cba1b9060200160405180910390a2610335827f0000000000000000000000000000000000000000000000000000000000000000836105c7565b5050565b60006103657f00000000000000000000000000000000000000000000000000000000000000004261036a565b905090565b6001600160a01b0382166000908152600160205260408120546103f9906040516370a0823160e01b81523060048201526001600160a01b038616906370a0823190602401602060405180830381865afa1580156103cb573d6000803e3d6000fd5b505050506040513d601f19601f820116820180604052508101906103ef919061094e565b610283919061093b565b9392505050565b6104297f000000000000000000000000000000000000000000000000000000000000000061028f565b565b7f00000000000000000000000000000000000000000000000000000000000000006001600160a01b031660009081526001602052604090205490565b6001600160a01b03811660009081526001602052604081205461048a834261036a565b6102899190610967565b67ffffffffffffffff7f00000000000000000000000000000000000000000000000000000000000000001690565b60006103657f0000000000000000000000000000000000000000000000000000000000000000610467565b60006104f7610494565b8267ffffffffffffffff16101561051057506000610289565b7f000000000000000000000000000000000000000000000000000000000000000067ffffffffffffffff16610543610494565b61054d919061093b565b8267ffffffffffffffff161115610565575081610289565b7f000000000000000000000000000000000000000000000000000000000000000067ffffffffffffffff16610598610494565b6105ac9067ffffffffffffffff8516610967565b6105b6908561097a565b6105c09190610991565b9050610289565b604080516001600160a01b038416602482015260448082018490528251808303909101815260649091019091526020810180516001600160e01b031663a9059cbb60e01b17905261061990849061061e565b505050565b6000610673826040518060400160405280602081526020017f5361666545524332303a206c6f772d6c6576656c2063616c6c206661696c6564815250856001600160a01b03166106f89092919063ffffffff16565b905080516000148061069457508080602001905181019061069491906109b3565b6106195760405162461bcd60e51b815260206004820152602a60248201527f5361666545524332303a204552433230206f7065726174696f6e20646964206e6044820152691bdd081cdd58d8d9595960b21b60648201526084015b60405180910390fd5b6060610707848460008561070f565b949350505050565b6060824710156107705760405162461bcd60e51b815260206004820152602660248201527f416464726573733a20696e73756666696369656e742062616c616e636520666f6044820152651c8818d85b1b60d21b60648201526084016106ef565b600080866001600160a01b0316858760405161078c91906109f9565b60006040518083038185875af1925050503d80600081146107c9576040519150601f19603f3d011682016040523d82523d6000602084013e6107ce565b606091505b50915091506107df878383876107ea565b979650505050505050565b60608315610859578251600003610852576001600160a01b0385163b6108525760405162461bcd60e51b815260206004820152601d60248201527f416464726573733a2063616c6c20746f206e6f6e2d636f6e747261637400000060448201526064016106ef565b5081610707565b610707838381511561086e5781518083602001fd5b8060405162461bcd60e51b81526004016106ef9190610a15565b803567ffffffffffffffff811681146108a057600080fd5b919050565b6000602082840312156108b757600080fd5b6103f982610888565b80356001600160a01b03811681146108a057600080fd5b6000602082840312156108e957600080fd5b6103f9826108c0565b6000806040838503121561090557600080fd5b61090e836108c0565b915061091c60208401610888565b90509250929050565b634e487b7160e01b600052601160045260246000fd5b8082018082111561028957610289610925565b60006020828403121561096057600080fd5b5051919050565b8181038181111561028957610289610925565b808202811582820484141761028957610289610925565b6000826109ae57634e487b7160e01b600052601260045260246000fd5b500490565b6000602082840312156109c557600080fd5b815180151581146103f957600080fd5b60005b838110156109f05781810151838201526020016109d8565b50506000910152565b60008251610a0b8184602087016109d5565b9190910192915050565b6020815260008251806020840152610a348160408501602087016109d5565b601f01601f1916919091016040019291505056fea26469706673582212204d75a1732c1eb48e999a81d56338f4e8b0ac05c446dfb640c402b728cad188c164736f6c63430008150033",
    "linkReferences": {}
  },
  "methodIdentifiers": {
    "beneficiary()": "38af3eed",
    "duration()": "0fb5a6b4",
    "releasable()": "fbccedae",
    "releasable(address)": "a3f8eace",
    "release()": "86d1a69f",
    "release(address)": "19165587",
    "released()": "96132521",
    "released(address)": "9852595c",
    "start()": "be9a6555",
    "vestedAmount()": "44b1231f",
    "vestedAmount(address,uint64)": "810ec23b",
    "vestedAmount(uint64)": "0a17b06b"
  },
  "id": 6
}