{
  "abi": [
    {
      "inputs": [
        {
          "internalType": "address",
          "name": "beneficiaryAddress_",
          "type": "address"
        },
        {
          "internalType": "uint64",
          "name": "startTimestamp_",
          "type": "uint64"
        },
        {
          "internalType": "uint64",
          "name": "durationSeconds_",
          "type": "uint64"
        },
        {
          "internalType": "address",
          "name": "ozl_",
          "type": "address"
        }
      ],
      "stateMutability": "nonpayable",
      "type": "constructor"
    },
    {
      "anonymous": false,
      "inputs": [
        {
          "indexed": true,
          "internalType": "address",
          "name": "token",
          "type": "address"
        },
        {
          "indexed": false,
          "internalType": "uint256",
          "name": "amount",
          "type": "uint256"
        }
      ],
      "name": "ERC20Released",
      "type": "event"
    },
    {
      "anonymous": false,
      "inputs": [
        {
          "indexed": false,
          "internalType": "uint256",
          "name": "amount",
          "type": "uint256"
        }
      ],
      "name": "EtherReleased",
      "type": "event"
    },
    {
      "inputs": [],
      "name": "beneficiary",
      "outputs": [
        {
          "internalType": "address",
          "name": "",
          "type": "address"
        }
      ],
      "stateMutability": "view",
      "type": "function"
    },
    {
      "inputs": [],
      "name": "duration",
      "outputs": [
        {
          "internalType": "uint256",
          "name": "",
          "type": "uint256"
        }
      ],
      "stateMutability": "view",
      "type": "function"
    },
    {
      "inputs": [
        {
          "internalType": "address",
          "name": "token",
          "type": "address"
        }
      ],
      "name": "releasable",
      "outputs": [
        {
          "internalType": "uint256",
          "name": "",
          "type": "uint256"
        }
      ],
      "stateMutability": "view",
      "type": "function"
    },
    {
      "inputs": [],
      "name": "releasable",
      "outputs": [
        {
          "internalType": "uint256",
          "name": "",
          "type": "uint256"
        }
      ],
      "stateMutability": "view",
      "type": "function"
    },
    {
      "inputs": [
        {
          "internalType": "address",
          "name": "token",
          "type": "address"
        }
      ],
      "name": "release",
      "outputs": [],
      "stateMutability": "nonpayable",
      "type": "function"
    },
    {
      "inputs": [],
      "name": "release",
      "outputs": [],
      "stateMutability": "nonpayable",
      "type": "function"
    },
    {
      "inputs": [],
      "name": "released",
      "outputs": [
        {
          "internalType": "uint256",
          "name": "",
          "type": "uint256"
        }
      ],
      "stateMutability": "view",
      "type": "function"
    },
    {
      "inputs": [
        {
          "internalType": "address",
          "name": "token",
          "type": "address"
        }
      ],
      "name": "released",
      "outputs": [
        {
          "internalType": "uint256",
          "name": "",
          "type": "uint256"
        }
      ],
      "stateMutability": "view",
      "type": "function"
    },
    {
      "inputs": [],
      "name": "start",
      "outputs": [
        {
          "internalType": "uint256",
          "name": "",
          "type": "uint256"
        }
      ],
      "stateMutability": "view",
      "type": "function"
    },
    {
      "inputs": [
        {
          "internalType": "uint64",
          "name": "timestamp_",
          "type": "uint64"
        }
      ],
      "name": "vestedAmount",
      "outputs": [
        {
          "internalType": "uint256",
          "name": "",
          "type": "uint256"
        }
      ],
      "stateMutability": "view",
      "type": "function"
    },
    {
      "inputs": [
        {
          "internalType": "address",
          "name": "token",
          "type": "address"
        },
        {
          "internalType": "uint64",
          "name": "timestamp",
          "type": "uint64"
        }
      ],
      "name": "vestedAmount",
      "outputs": [
        {
          "internalType": "uint256",
          "name": "",
          "type": "uint256"
        }
      ],
      "stateMutability": "view",
      "type": "function"
    },
    {
      "stateMutability": "payable",
      "type": "receive"
    }
  ],
  "bytecode": {
    "object": "0x61010060405234801561001157600080fd5b50604051610bf7380380610bf783398101604081905261003091610100565b8383836001600160a01b0383166100a05760405162461bcd60e51b815260206004820152602a60248201527f56657374696e6757616c6c65743a2062656e6566696369617279206973207a65604482015269726f206164647265737360b01b606482015260840160405180910390fd5b6001600160a01b039283166080526001600160401b0391821660a0521660c0521660e05250610154915050565b80516001600160a01b03811681146100e457600080fd5b919050565b80516001600160401b03811681146100e457600080fd5b6000806000806080858703121561011657600080fd5b61011f856100cd565b935061012d602086016100e9565b925061013b604086016100e9565b9150610149606086016100cd565b905092959194509250565b60805160a05160c05160e051610a416101b6600039600081816101ce01528181610289015281816103ff015261048c01526000818160ee0152818161052c01526105810152600061046201526000818161015801526103350152610a416000f3fe6080604052600436106100a05760003560e01c806386d1a69f1161006457806386d1a69f146101a257806396132521146101b75780639852595c14610202578063a3f8eace14610238578063be9a655514610258578063fbccedae1461026d57600080fd5b80630a17b06b146100ac5780630fb5a6b4146100df578063191655871461011c57806338af3eed1461013e578063810ec23b1461018257600080fd5b366100a757005b600080fd5b3480156100b857600080fd5b506100cc6100c7366004610868565b610282565b6040519081526020015b60405180910390f35b3480156100eb57600080fd5b507f000000000000000000000000000000000000000000000000000000000000000067ffffffffffffffff166100cc565b34801561012857600080fd5b5061013c61013736600461089a565b6102b4565b005b34801561014a57600080fd5b506040516001600160a01b037f00000000000000000000000000000000000000000000000000000000000000001681526020016100d6565b34801561018e57600080fd5b506100cc61019d3660046108b5565b61035e565b3480156101ae57600080fd5b5061013c6103fa565b3480156101c357600080fd5b506001600160a01b037f0000000000000000000000000000000000000000000000000000000000000000166000908152600160205260409020546100cc565b34801561020e57600080fd5b506100cc61021d36600461089a565b6001600160a01b031660009081526001602052604090205490565b34801561024457600080fd5b506100cc61025336600461089a565b61042a565b34801561026457600080fd5b506100cc610457565b34801561027957600080fd5b506100cc610485565b60006102ae7f00000000000000000000000000000000000000000000000000000000000000008361035e565b92915050565b60006102bf8261042a565b6001600160a01b0383166000908152600160205260408120805492935083929091906102ec9084906108fe565b90915550506040518181526001600160a01b038316907fc0e523490dd523c33b1878c9eb14ff46991e3f5b2cd33710918618f2a39cba1b9060200160405180910390a261035a827f0000000000000000000000000000000000000000000000000000000000000000836104b0565b5050565b6001600160a01b0382166000908152600160205260408120546103f3906040516370a0823160e01b81523060048201526001600160a01b038616906370a0823190602401602060405180830381865afa1580156103bf573d6000803e3d6000fd5b505050506040513d601f19601f820116820180604052508101906103e39190610911565b6103ed91906108fe565b83610507565b9392505050565b6104237f00000000000000000000000000000000000000000000000000000000000000006102b4565b565b905090565b6001600160a01b03811660009081526001602052604081205461044d834261035e565b6102ae919061092a565b67ffffffffffffffff7f00000000000000000000000000000000000000000000000000000000000000001690565b60006104257f000000000000000000000000000000000000000000000000000000000000000061042a565b604080516001600160a01b038416602482015260448082018490528251808303909101815260649091019091526020810180516001600160e01b031663a9059cbb60e01b1790526105029084906105e1565b505050565b6000610511610457565b8267ffffffffffffffff16101561052a575060006102ae565b7f000000000000000000000000000000000000000000000000000000000000000067ffffffffffffffff1661055d610457565b61056791906108fe565b8267ffffffffffffffff16111561057f5750816102ae565b7f000000000000000000000000000000000000000000000000000000000000000067ffffffffffffffff166105b2610457565b6105c69067ffffffffffffffff851661092a565b6105d0908561093d565b6105da9190610954565b90506102ae565b6000610636826040518060400160405280602081526020017f5361666545524332303a206c6f772d6c6576656c2063616c6c206661696c6564815250856001600160a01b03166106bb9092919063ffffffff16565b90508051600014806106575750808060200190518101906106579190610976565b6105025760405162461bcd60e51b815260206004820152602a60248201527f5361666545524332303a204552433230206f7065726174696f6e20646964206e6044820152691bdd081cdd58d8d9595960b21b60648201526084015b60405180910390fd5b60606106ca84846000856106d2565b949350505050565b6060824710156107335760405162461bcd60e51b815260206004820152602660248201527f416464726573733a20696e73756666696369656e742062616c616e636520666f6044820152651c8818d85b1b60d21b60648201526084016106b2565b600080866001600160a01b0316858760405161074f91906109bc565b60006040518083038185875af1925050503d806000811461078c576040519150601f19603f3d011682016040523d82523d6000602084013e610791565b606091505b50915091506107a2878383876107ad565b979650505050505050565b6060831561081c578251600003610815576001600160a01b0385163b6108155760405162461bcd60e51b815260206004820152601d60248201527f416464726573733a2063616c6c20746f206e6f6e2d636f6e747261637400000060448201526064016106b2565b50816106ca565b6106ca83838151156108315781518083602001fd5b8060405162461bcd60e51b81526004016106b291906109d8565b803567ffffffffffffffff8116811461086357600080fd5b919050565b60006020828403121561087a57600080fd5b6103f38261084b565b80356001600160a01b038116811461086357600080fd5b6000602082840312156108ac57600080fd5b6103f382610883565b600080604083850312156108c857600080fd5b6108d183610883565b91506108df6020840161084b565b90509250929050565b634e487b7160e01b600052601160045260246000fd5b808201808211156102ae576102ae6108e8565b60006020828403121561092357600080fd5b5051919050565b818103818111156102ae576102ae6108e8565b80820281158282048414176102ae576102ae6108e8565b60008261097157634e487b7160e01b600052601260045260246000fd5b500490565b60006020828403121561098857600080fd5b815180151581146103f357600080fd5b60005b838110156109b357818101518382015260200161099b565b50506000910152565b600082516109ce818460208701610998565b9190910192915050565b60208152600082518060208401526109f7816040850160208701610998565b601f01601f1916919091016040019291505056fea2646970667358221220ec33d534df8aa5ff45832e367cc14dbefc9f522a196366cf9c582969d2f8612264736f6c63430008150033",
    "linkReferences": {}
  },
  "methodIdentifiers": {
    "beneficiary()": "38af3eed",
    "duration()": "0fb5a6b4",
    "releasable()": "fbccedae",
    "releasable(address)": "a3f8eace",
    "release()": "86d1a69f",
    "release(address)": "19165587",
    "released()": "96132521",
    "released(address)": "9852595c",
    "start()": "be9a6555",
    "vestedAmount(address,uint64)": "810ec23b",
    "vestedAmount(uint64)": "0a17b06b"
  },
  "id": 6
}