{
  "abi": [
    {
      "inputs": [],
      "name": "OZError15",
      "type": "error"
    },
    {
      "inputs": [],
      "name": "OZError16",
      "type": "error"
    },
    {
      "inputs": [],
      "name": "OZError17",
      "type": "error"
    },
    {
      "inputs": [],
      "name": "claimReward",
      "outputs": [
        {
          "internalType": "uint256",
          "name": "",
          "type": "uint256"
        }
      ],
      "stateMutability": "nonpayable",
      "type": "function"
    },
    {
      "inputs": [],
      "name": "durationLeft",
      "outputs": [
        {
          "internalType": "int256",
          "name": "",
          "type": "int256"
        }
      ],
      "stateMutability": "view",
      "type": "function"
    },
    {
      "inputs": [
        {
          "internalType": "address",
          "name": "user_",
          "type": "address"
        }
      ],
      "name": "earned",
      "outputs": [
        {
          "internalType": "uint256",
          "name": "",
          "type": "uint256"
        }
      ],
      "stateMutability": "view",
      "type": "function"
    },
    {
      "inputs": [],
      "name": "getCirculatingSupply",
      "outputs": [
        {
          "internalType": "uint256",
          "name": "",
          "type": "uint256"
        }
      ],
      "stateMutability": "view",
      "type": "function"
    },
    {
      "inputs": [],
      "name": "getRecicledSupply",
      "outputs": [
        {
          "internalType": "uint256",
          "name": "",
          "type": "uint256"
        }
      ],
      "stateMutability": "view",
      "type": "function"
    },
    {
      "inputs": [],
      "name": "getRewardRate",
      "outputs": [
        {
          "internalType": "uint256",
          "name": "",
          "type": "uint256"
        }
      ],
      "stateMutability": "view",
      "type": "function"
    },
    {
      "inputs": [],
      "name": "lastTimeRewardApplicable",
      "outputs": [
        {
          "internalType": "uint256",
          "name": "",
          "type": "uint256"
        }
      ],
      "stateMutability": "view",
      "type": "function"
    },
    {
      "inputs": [
        {
          "internalType": "uint256",
          "name": "ozlAmount_",
          "type": "uint256"
        }
      ],
      "name": "modifySupply",
      "outputs": [],
      "stateMutability": "nonpayable",
      "type": "function"
    },
    {
      "inputs": [
        {
          "internalType": "uint256",
          "name": "amount_",
          "type": "uint256"
        }
      ],
      "name": "notifyRewardAmount",
      "outputs": [],
      "stateMutability": "nonpayable",
      "type": "function"
    },
    {
      "inputs": [],
      "name": "pendingAllocation",
      "outputs": [
        {
          "internalType": "uint256",
          "name": "",
          "type": "uint256"
        }
      ],
      "stateMutability": "view",
      "type": "function"
    },
    {
      "inputs": [],
      "name": "rewardPerToken",
      "outputs": [
        {
          "internalType": "uint256",
          "name": "",
          "type": "uint256"
        }
      ],
      "stateMutability": "view",
      "type": "function"
    },
    {
      "inputs": [
        {
          "internalType": "uint256",
          "name": "duration_",
          "type": "uint256"
        }
      ],
      "name": "setRewardsDuration",
      "outputs": [],
      "stateMutability": "nonpayable",
      "type": "function"
    }
  ],
  "bytecode": {
    "object": "0x608060405234801561001057600080fd5b506108f4806100206000396000f3fe608060405234801561001057600080fd5b50600436106100b35760003560e01c806380faa57d1161007157806380faa57d146101125780638f3905481461011a578063b88a802f14610122578063c3ae3a091461012a578063cc1a378f1461013d578063cd3daf9d1461015057600080fd5b80628cc262146100b85780632b112e49146100dd5780633c6b16ab146100e5578063533a386c146100fa5780636a533a4c146101025780637e1a37861461010a575b600080fd5b6100cb6100c636600461078f565b610158565b60405190815260200160405180910390f35b601e546100cb565b6100f86100f33660046107b8565b610244565b005b6100cb6103db565b601f546100cb565b601c546100cb565b6100cb6103f1565b6100cb610402565b6100cb610476565b6100f86101383660046107b8565b610598565b6100f861014b3660046107b8565b6105cf565b6100cb6105fe565b6001600160a01b038116600090815260216020908152604080832054918052822054670de0b6b3a76400009061018c6105fe565b61019691906107e7565b600180546000906101a9576101a96107fa565b6000918252602090912001546040516370a0823160e01b81526001600160a01b038781166004830152909116906370a0823190602401602060405180830381865afa1580156101fc573d6000803e3d6000fd5b505050506040513d601f19601f820116820180604052508101906102209190610810565b61022a9190610829565b6102349190610840565b61023e9190610862565b92915050565b600061024e6105fe565b601d556102596103f1565b601b556001600160a01b0381161561029e5761027481610158565b6001600160a01b038216600090815260216020908152604080832093909355601d54908052919020555b6102a66106e9565b601a544211156102c5576019546102bd9083610840565b601c55610302565b601a546000906102d69042906107e7565b601c546102e39190610829565b6019549091506102f38483610862565b6102fd9190610840565b601c55505b601c546103225760405163e92aa8bd60e01b815260040160405180910390fd5b6016546040516370a0823160e01b815230600482015263010000009091046001600160a01b0316906370a0823190602401602060405180830381865afa158015610370573d6000803e3d6000fd5b505050506040513d601f19601f820116820180604052508101906103949190610810565b601954601c546103a49190610829565b11156103c3576040516311172c5560e11b815260040160405180910390fd5b6019546103d09042610862565b601a55505042601b55565b601a546000906103ec904290610875565b905090565b601a546000906103ec904290610776565b6016546040516370a0823160e01b8152306004820152600091630100000090046001600160a01b0316906370a0823190602401602060405180830381865afa158015610452573d6000803e3d6000fd5b505050506040513d601f19601f820116820180604052508101906103ec9190610810565b6000336104816105fe565b601d5561048c6103f1565b601b556001600160a01b038116156104d1576104a781610158565b6001600160a01b038216600090815260216020908152604080832093909355601d54908052919020555b336000908152602160205260409020548015610592573360008181526021602052604080822091909155601654905163a9059cbb60e01b8152600481019290925260248201839052630100000090046001600160a01b03169063a9059cbb906044016020604051808303816000875af1158015610552573d6000803e3d6000fd5b505050506040513d601f19601f82011682018060405250810190610576919061089c565b50601e805482919060009061058c908490610862565b90915550505b91505090565b601e80548291906000906105ad9084906107e7565b9091555050601f80548291906000906105c7908490610862565b909155505050565b6105d76106e9565b601a5442116105f9576040516314e75c8960e11b815260040160405180910390fd5b601955565b6000806000600101600081548110610618576106186107fa565b60009182526020918290200154604080516318160ddd60e01b815290516001600160a01b03909216926318160ddd926004808401938290030181865afa158015610666573d6000803e3d6000fd5b505050506040513d601f19601f8201168201806040525081019061068a9190610810565b90508060000361069c575050601d5490565b601b5481906106a96103f1565b6106b391906107e7565b601c546106c09190610829565b6106d290670de0b6b3a7640000610829565b6106dc9190610840565b601d546105929190610862565b7fc8fcad8db84d3cc18b4c41d551ea0ee66dd599cde068d998e57d5e09332c131c600401546001600160a01b031633146107745760405162461bcd60e51b815260206004820152602260248201527f4c69624469616d6f6e643a204d75737420626520636f6e7472616374206f776e60448201526132b960f11b606482015260840160405180910390fd5b565b6000818311156107865781610788565b825b9392505050565b6000602082840312156107a157600080fd5b81356001600160a01b038116811461078857600080fd5b6000602082840312156107ca57600080fd5b5035919050565b634e487b7160e01b600052601160045260246000fd5b8181038181111561023e5761023e6107d1565b634e487b7160e01b600052603260045260246000fd5b60006020828403121561082257600080fd5b5051919050565b808202811582820484141761023e5761023e6107d1565b60008261085d57634e487b7160e01b600052601260045260246000fd5b500490565b8082018082111561023e5761023e6107d1565b8181036000831280158383131683831282161715610895576108956107d1565b5092915050565b6000602082840312156108ae57600080fd5b8151801515811461078857600080fdfea264697066735822122017f91b72e25f3067b47290c9f8e1ba516cb37b9a0e1cf1b5e6221ae49a99ad5864736f6c63430008150033",
    "linkReferences": {}
  },
  "methodIdentifiers": {
    "claimReward()": "b88a802f",
    "durationLeft()": "533a386c",
    "earned(address)": "008cc262",
    "getCirculatingSupply()": "2b112e49",
    "getRecicledSupply()": "6a533a4c",
    "getRewardRate()": "7e1a3786",
    "lastTimeRewardApplicable()": "80faa57d",
    "modifySupply(uint256)": "c3ae3a09",
    "notifyRewardAmount(uint256)": "3c6b16ab",
    "pendingAllocation()": "8f390548",
    "rewardPerToken()": "cd3daf9d",
    "setRewardsDuration(uint256)": "cc1a378f"
  },
  "id": 5
}