{"abi":[{"type":"function","name":"addToCirculatingSupply","inputs":[{"name":"amount_","type":"uint256","internalType":"uint256"}],"outputs":[],"stateMutability":"nonpayable"},{"type":"function","name":"claimReward","inputs":[],"outputs":[{"name":"","type":"uint256","internalType":"uint256"}],"stateMutability":"nonpayable"},{"type":"function","name":"earned","inputs":[{"name":"user_","type":"address","internalType":"address"}],"outputs":[{"name":"","type":"uint256","internalType":"uint256"}],"stateMutability":"view"},{"type":"function","name":"getRewardsData","inputs":[],"outputs":[{"name":"rewardRate","type":"uint256","internalType":"uint256"},{"name":"circulatingSupply","type":"uint256","internalType":"uint256"},{"name":"pendingAllocation","type":"uint256","internalType":"uint256"},{"name":"recicledSupply","type":"uint256","internalType":"uint256"},{"name":"durationLeft","type":"int256","internalType":"int256"}],"stateMutability":"view"},{"type":"function","name":"lastTimeRewardApplicable","inputs":[],"outputs":[{"name":"","type":"uint256","internalType":"uint256"}],"stateMutability":"view"},{"type":"function","name":"modifySupply","inputs":[{"name":"ozlAmount_","type":"uint256","internalType":"uint256"}],"outputs":[],"stateMutability":"nonpayable"},{"type":"function","name":"notifyRewardAmount","inputs":[{"name":"amount_","type":"uint256","internalType":"uint256"}],"outputs":[],"stateMutability":"nonpayable"},{"type":"function","name":"rewardPerToken","inputs":[],"outputs":[{"name":"","type":"uint256","internalType":"uint256"}],"stateMutability":"view"},{"type":"function","name":"setRewardsDataExternally","inputs":[{"name":"user_","type":"address","internalType":"address"}],"outputs":[],"stateMutability":"nonpayable"},{"type":"function","name":"setRewardsDuration","inputs":[{"name":"duration_","type":"uint256","internalType":"uint256"}],"outputs":[],"stateMutability":"nonpayable"},{"type":"function","name":"startNewReciclingCampaign","inputs":[{"name":"duration_","type":"uint256","internalType":"uint256"}],"outputs":[],"stateMutability":"nonpayable"},{"type":"error","name":"OZError15","inputs":[]},{"type":"error","name":"OZError16","inputs":[]},{"type":"error","name":"OZError17","inputs":[]}],"bytecode":{"object":"0x608060405234801561000f575f80fd5b50610a568061001d5f395ff3fe608060405234801561000f575f80fd5b50600436106100a5575f3560e01c8063b88a802f1161006e578063b88a802f1461012f578063c28cd66d14610137578063c3ae3a091461014a578063c6d20b681461015d578063cc1a378f14610170578063cd3daf9d14610183575f80fd5b80628cc262146100a9578063020ff618146100cf5780633c6b16ab146100e45780637d098e64146100f757806380faa57d14610127575b5f80fd5b6100bc6100b73660046108e5565b61018b565b6040519081526020015b60405180910390f35b6100e26100dd3660046108e5565b6101f7565b005b6100e26100f236600461090b565b610243565b6100ff6103d9565b604080519586526020860194909452928401919091526060830152608082015260a0016100c6565b6100bc610488565b6100bc61049d565b6100e261014536600461090b565b6105bc565b6100e261015836600461090b565b6105d8565b6100e261016b36600461090b565b61060d565b6100e261017e36600461090b565b610621565b6100bc610650565b6001600160a01b0381165f908152601e6020908152604080832054601d909252822054670de0b6b3a7640000906101c0610650565b6101ca9190610936565b6101d3856106be565b6101dd9190610949565b6101e79190610960565b6101f1919061097f565b92915050565b6101ff610650565b601a5561020a610488565b6018556102168161018b565b6001600160a01b039091165f908152601e6020908152604080832093909355601a54601d90915291902055565b5f8061024d610650565b601a55610258610488565b6018556001600160a01b0382161561029e576102738261018b565b6001600160a01b0383165f908152601e6020908152604080832093909355601a54601d909152919020555b6102a6610785565b6017544211156102c5576016546102bd9084610960565b601955610301565b6017545f906102d5904290610936565b6019546102e29190610949565b6016549091506102f2858361097f565b6102fc9190610960565b601955505b6019546103215760405163e92aa8bd60e01b815260040160405180910390fd5b6013546040516370a0823160e01b8152306004820152600160481b9091046001600160a01b0316906370a0823190602401602060405180830381865afa15801561036d573d5f803e3d5ffd5b505050506040513d601f19601f820116820180604052508101906103919190610992565b6016546019546103a19190610949565b11156103c0576040516311172c5560e11b815260040160405180910390fd5b6016546103cd904261097f565b60175550504260185550565b601954601b54601c546013546040516370a0823160e01b81523060048201525f948594859485948594600160481b9091046001600160a01b0316906370a0823190602401602060405180830381865afa158015610438573d5f803e3d5ffd5b505050506040513d601f19601f8201168201806040525081019061045c9190610992565b6104669190610936565b601c546017546104779042906109a9565b945094509450945094509091929394565b6017545f90610498904290610812565b905090565b5f33816104a8610650565b601a556104b3610488565b6018556001600160a01b038216156104f9576104ce8261018b565b6001600160a01b0383165f908152601e6020908152604080832093909355601a54601d909152919020555b335f908152601e602052604090205480156105b457335f818152601e602052604080822091909155601354905163a9059cbb60e01b8152600481019290925260248201839052600160481b90046001600160a01b03169063a9059cbb906044016020604051808303815f875af1158015610575573d5f803e3d5ffd5b505050506040513d601f19601f8201168201806040525081019061059991906109cf565b50601b80548291905f906105ae90849061097f565b90915550505b92505b505090565b6105c581610621565b601c546105d190610243565b505f601c55565b601b80548291905f906105ec908490610936565b9091555050601c80548291905f9061060590849061097f565b909155505050565b601b80548291905f9061060590849061097f565b610629610785565b601754421161064b576040516314e75c8960e11b815260040160405180910390fd5b601655565b5f8061065a61082a565b9050805f0361066b575050601a5490565b6018548190610678610488565b6106829190610936565b60195461068f9190610949565b6106a190670de0b6b3a7640000610949565b6106ab9190610960565b601a546106b8919061097f565b91505090565b6001545f90815b818160ff16101561077e576001805460ff83169081106106e7576106e76109ee565b5f9182526020909120600290910201546040516370a0823160e01b81526001600160a01b038681166004830152909116906370a0823190602401602060405180830381865afa15801561073c573d5f803e3d5ffd5b505050506040513d601f19601f820116820180604052508101906107609190610992565b61076a908461097f565b92508061077681610a02565b9150506106c5565b5050919050565b7fc8fcad8db84d3cc18b4c41d551ea0ee66dd599cde068d998e57d5e09332c131c600401546001600160a01b031633146108105760405162461bcd60e51b815260206004820152602260248201527f4c69624469616d6f6e643a204d75737420626520636f6e7472616374206f776e60448201526132b960f11b606482015260840160405180910390fd5b565b5f818311156108215781610823565b825b9392505050565b6001545f90815b818160ff1610156105b7576001805460ff8316908110610853576108536109ee565b5f91825260209182902060029091020154604080516318160ddd60e01b815290516001600160a01b03909216926318160ddd926004808401938290030181865afa1580156108a3573d5f803e3d5ffd5b505050506040513d601f19601f820116820180604052508101906108c79190610992565b6108d1908461097f565b9250806108dd81610a02565b915050610831565b5f602082840312156108f5575f80fd5b81356001600160a01b0381168114610823575f80fd5b5f6020828403121561091b575f80fd5b5035919050565b634e487b7160e01b5f52601160045260245ffd5b818103818111156101f1576101f1610922565b80820281158282048414176101f1576101f1610922565b5f8261097a57634e487b7160e01b5f52601260045260245ffd5b500490565b808201808211156101f1576101f1610922565b5f602082840312156109a2575f80fd5b5051919050565b8181035f8312801583831316838312821617156109c8576109c8610922565b5092915050565b5f602082840312156109df575f80fd5b81518015158114610823575f80fd5b634e487b7160e01b5f52603260045260245ffd5b5f60ff821660ff8103610a1757610a17610922565b6001019291505056fea264697066735822122043a2017784a3cf1de58d2e1e911737c559c8f92a24e370de6acc13cc5b53315064736f6c63430008180033","linkReferences":{}},"methodIdentifiers":{"addToCirculatingSupply(uint256)":"c6d20b68","claimReward()":"b88a802f","earned(address)":"008cc262","getRewardsData()":"7d098e64","lastTimeRewardApplicable()":"80faa57d","modifySupply(uint256)":"c3ae3a09","notifyRewardAmount(uint256)":"3c6b16ab","rewardPerToken()":"cd3daf9d","setRewardsDataExternally(address)":"020ff618","setRewardsDuration(uint256)":"cc1a378f","startNewReciclingCampaign(uint256)":"c28cd66d"},"id":11}