{
  "abi": [
    {
      "inputs": [],
      "name": "OZError15",
      "type": "error"
    },
    {
      "inputs": [],
      "name": "OZError16",
      "type": "error"
    },
    {
      "inputs": [],
      "name": "OZError17",
      "type": "error"
    },
    {
      "inputs": [],
      "name": "claimReward",
      "outputs": [
        {
          "internalType": "uint256",
          "name": "",
          "type": "uint256"
        }
      ],
      "stateMutability": "nonpayable",
      "type": "function"
    },
    {
      "inputs": [
        {
          "internalType": "address",
          "name": "user_",
          "type": "address"
        }
      ],
      "name": "earned",
      "outputs": [
        {
          "internalType": "uint256",
          "name": "",
          "type": "uint256"
        }
      ],
      "stateMutability": "view",
      "type": "function"
    },
    {
      "inputs": [],
      "name": "getRewardsData",
      "outputs": [
        {
          "internalType": "uint256",
          "name": "rewardRate",
          "type": "uint256"
        },
        {
          "internalType": "uint256",
          "name": "circulatingSupply",
          "type": "uint256"
        },
        {
          "internalType": "uint256",
          "name": "pendingAllocation",
          "type": "uint256"
        },
        {
          "internalType": "uint256",
          "name": "recicledSupply",
          "type": "uint256"
        },
        {
          "internalType": "int256",
          "name": "durationLeft",
          "type": "int256"
        }
      ],
      "stateMutability": "view",
      "type": "function"
    },
    {
      "inputs": [],
      "name": "lastTimeRewardApplicable",
      "outputs": [
        {
          "internalType": "uint256",
          "name": "",
          "type": "uint256"
        }
      ],
      "stateMutability": "view",
      "type": "function"
    },
    {
      "inputs": [
        {
          "internalType": "uint256",
          "name": "ozlAmount_",
          "type": "uint256"
        }
      ],
      "name": "modifySupply",
      "outputs": [],
      "stateMutability": "nonpayable",
      "type": "function"
    },
    {
      "inputs": [
        {
          "internalType": "uint256",
          "name": "amount_",
          "type": "uint256"
        }
      ],
      "name": "notifyRewardAmount",
      "outputs": [],
      "stateMutability": "nonpayable",
      "type": "function"
    },
    {
      "inputs": [],
      "name": "rewardPerToken",
      "outputs": [
        {
          "internalType": "uint256",
          "name": "",
          "type": "uint256"
        }
      ],
      "stateMutability": "view",
      "type": "function"
    },
    {
      "inputs": [
        {
          "internalType": "address",
          "name": "user_",
          "type": "address"
        }
      ],
      "name": "setRewardsDataExternally",
      "outputs": [],
      "stateMutability": "nonpayable",
      "type": "function"
    },
    {
      "inputs": [
        {
          "internalType": "uint256",
          "name": "duration_",
          "type": "uint256"
        }
      ],
      "name": "setRewardsDuration",
      "outputs": [],
      "stateMutability": "nonpayable",
      "type": "function"
    },
    {
      "inputs": [
        {
          "internalType": "uint256",
          "name": "duration_",
          "type": "uint256"
        }
      ],
      "name": "startNewReciclingCampaign",
      "outputs": [],
      "stateMutability": "nonpayable",
      "type": "function"
    }
  ],
  "bytecode": {
    "object": "0x608060405234801561001057600080fd5b50610a5c806100206000396000f3fe608060405234801561001057600080fd5b506004361061009d5760003560e01c8063b88a802f11610066578063b88a802f14610128578063c28cd66d14610130578063c3ae3a0914610143578063cc1a378f14610156578063cd3daf9d1461016957600080fd5b80628cc262146100a2578063020ff618146100c85780633c6b16ab146100dd5780637d098e64146100f057806380faa57d14610120575b600080fd5b6100b56100b03660046108d8565b610171565b6040519081526020015b60405180910390f35b6100db6100d63660046108d8565b6101de565b005b6100db6100eb366004610901565b61022b565b6100f86103c6565b604080519586526020860194909452928401919091526060830152608082015260a0016100bf565b6100b5610478565b6100b561048e565b6100db61013e366004610901565b6105b5565b6100db610151366004610901565b6105d2565b6100db610164366004610901565b610609565b6100b5610638565b6001600160a01b0381166000908152601e6020908152604080832054601d909252822054670de0b6b3a7640000906101a7610638565b6101b19190610930565b6101ba856106a8565b6101c49190610943565b6101ce919061095a565b6101d8919061097c565b92915050565b6101e6610638565b601a556101f1610478565b6018556101fd81610171565b6001600160a01b039091166000908152601e6020908152604080832093909355601a54601d90915291902055565b600080610236610638565b601a55610241610478565b6018556001600160a01b038216156102885761025c82610171565b6001600160a01b0383166000908152601e6020908152604080832093909355601a54601d909152919020555b610290610773565b6017544211156102af576016546102a7908461095a565b6019556102ec565b6017546000906102c0904290610930565b6019546102cd9190610943565b6016549091506102dd858361097c565b6102e7919061095a565b601955505b60195461030c5760405163e92aa8bd60e01b815260040160405180910390fd5b6013546040516370a0823160e01b8152306004820152600160481b9091046001600160a01b0316906370a0823190602401602060405180830381865afa15801561035a573d6000803e3d6000fd5b505050506040513d601f19601f8201168201806040525081019061037e919061098f565b60165460195461038e9190610943565b11156103ad576040516311172c5560e11b815260040160405180910390fd5b6016546103ba904261097c565b60175550504260185550565b601954601b54601c546013546040516370a0823160e01b81523060048201526000948594859485948594600160481b9091046001600160a01b0316906370a0823190602401602060405180830381865afa158015610428573d6000803e3d6000fd5b505050506040513d601f19601f8201168201806040525081019061044c919061098f565b6104569190610930565b601c546017546104679042906109a8565b945094509450945094509091929394565b601754600090610489904290610800565b905090565b6000338161049a610638565b601a556104a5610478565b6018556001600160a01b038216156104ec576104c082610171565b6001600160a01b0383166000908152601e6020908152604080832093909355601a54601d909152919020555b336000908152601e602052604090205480156105ad57336000818152601e602052604080822091909155601354905163a9059cbb60e01b8152600481019290925260248201839052600160481b90046001600160a01b03169063a9059cbb906044016020604051808303816000875af115801561056d573d6000803e3d6000fd5b505050506040513d601f19601f8201168201806040525081019061059191906109cf565b50601b80548291906000906105a790849061097c565b90915550505b92505b505090565b6105be81610609565b601c546105ca9061022b565b506000601c55565b601b80548291906000906105e7908490610930565b9091555050601c805482919060009061060190849061097c565b909155505050565b610611610773565b6017544211610633576040516314e75c8960e11b815260040160405180910390fd5b601655565b600080610643610819565b905080600003610655575050601a5490565b6018548190610662610478565b61066c9190610930565b6019546106799190610943565b61068b90670de0b6b3a7640000610943565b610695919061095a565b601a546106a2919061097c565b91505090565b600154600090815b818160ff16101561076c576001805460ff83169081106106d2576106d26109f1565b60009182526020909120600290910201546040516370a0823160e01b81526001600160a01b038681166004830152909116906370a0823190602401602060405180830381865afa15801561072a573d6000803e3d6000fd5b505050506040513d601f19601f8201168201806040525081019061074e919061098f565b610758908461097c565b92508061076481610a07565b9150506106b0565b5050919050565b7fc8fcad8db84d3cc18b4c41d551ea0ee66dd599cde068d998e57d5e09332c131c600401546001600160a01b031633146107fe5760405162461bcd60e51b815260206004820152602260248201527f4c69624469616d6f6e643a204d75737420626520636f6e7472616374206f776e60448201526132b960f11b606482015260840160405180910390fd5b565b6000818311156108105781610812565b825b9392505050565b600154600090815b818160ff1610156105b0576001805460ff8316908110610843576108436109f1565b600091825260209182902060029091020154604080516318160ddd60e01b815290516001600160a01b03909216926318160ddd926004808401938290030181865afa158015610896573d6000803e3d6000fd5b505050506040513d601f19601f820116820180604052508101906108ba919061098f565b6108c4908461097c565b9250806108d081610a07565b915050610821565b6000602082840312156108ea57600080fd5b81356001600160a01b038116811461081257600080fd5b60006020828403121561091357600080fd5b5035919050565b634e487b7160e01b600052601160045260246000fd5b818103818111156101d8576101d861091a565b80820281158282048414176101d8576101d861091a565b60008261097757634e487b7160e01b600052601260045260246000fd5b500490565b808201808211156101d8576101d861091a565b6000602082840312156109a157600080fd5b5051919050565b81810360008312801583831316838312821617156109c8576109c861091a565b5092915050565b6000602082840312156109e157600080fd5b8151801515811461081257600080fd5b634e487b7160e01b600052603260045260246000fd5b600060ff821660ff8103610a1d57610a1d61091a565b6001019291505056fea26469706673582212203b99b86c15ecb568334a579843a7721c5e8f07f683a254a523770cd43ef8b75764736f6c63430008150033",
    "linkReferences": {}
  },
  "methodIdentifiers": {
    "claimReward()": "b88a802f",
    "earned(address)": "008cc262",
    "getRewardsData()": "7d098e64",
    "lastTimeRewardApplicable()": "80faa57d",
    "modifySupply(uint256)": "c3ae3a09",
    "notifyRewardAmount(uint256)": "3c6b16ab",
    "rewardPerToken()": "cd3daf9d",
    "setRewardsDataExternally(address)": "020ff618",
    "setRewardsDuration(uint256)": "cc1a378f",
    "startNewReciclingCampaign(uint256)": "c28cd66d"
  },
  "id": 10
}