{
  "abi": [
    {
      "inputs": [],
      "name": "OZError15",
      "type": "error"
    },
    {
      "inputs": [],
      "name": "OZError16",
      "type": "error"
    },
    {
      "inputs": [],
      "name": "OZError17",
      "type": "error"
    },
    {
      "inputs": [],
      "name": "claimReward",
      "outputs": [
        {
          "internalType": "uint256",
          "name": "",
          "type": "uint256"
        }
      ],
      "stateMutability": "nonpayable",
      "type": "function"
    },
    {
      "inputs": [
        {
          "internalType": "address",
          "name": "user_",
          "type": "address"
        }
      ],
      "name": "earned",
      "outputs": [
        {
          "internalType": "uint256",
          "name": "",
          "type": "uint256"
        }
      ],
      "stateMutability": "view",
      "type": "function"
    },
    {
      "inputs": [],
      "name": "getRewardsData",
      "outputs": [
        {
          "internalType": "uint256",
          "name": "rewardRate",
          "type": "uint256"
        },
        {
          "internalType": "uint256",
          "name": "circulatingSupply",
          "type": "uint256"
        },
        {
          "internalType": "uint256",
          "name": "pendingAllocation",
          "type": "uint256"
        },
        {
          "internalType": "uint256",
          "name": "recicledSupply",
          "type": "uint256"
        },
        {
          "internalType": "int256",
          "name": "durationLeft",
          "type": "int256"
        }
      ],
      "stateMutability": "view",
      "type": "function"
    },
    {
      "inputs": [],
      "name": "lastTimeRewardApplicable",
      "outputs": [
        {
          "internalType": "uint256",
          "name": "",
          "type": "uint256"
        }
      ],
      "stateMutability": "view",
      "type": "function"
    },
    {
      "inputs": [
        {
          "internalType": "uint256",
          "name": "ozlAmount_",
          "type": "uint256"
        }
      ],
      "name": "modifySupply",
      "outputs": [],
      "stateMutability": "nonpayable",
      "type": "function"
    },
    {
      "inputs": [
        {
          "internalType": "uint256",
          "name": "amount_",
          "type": "uint256"
        }
      ],
      "name": "notifyRewardAmount",
      "outputs": [],
      "stateMutability": "nonpayable",
      "type": "function"
    },
    {
      "inputs": [],
      "name": "rewardPerToken",
      "outputs": [
        {
          "internalType": "uint256",
          "name": "",
          "type": "uint256"
        }
      ],
      "stateMutability": "view",
      "type": "function"
    },
    {
      "inputs": [
        {
          "internalType": "address",
          "name": "user_",
          "type": "address"
        }
      ],
      "name": "setRewardsDataExternally",
      "outputs": [],
      "stateMutability": "nonpayable",
      "type": "function"
    },
    {
      "inputs": [
        {
          "internalType": "uint256",
          "name": "duration_",
          "type": "uint256"
        }
      ],
      "name": "setRewardsDuration",
      "outputs": [],
      "stateMutability": "nonpayable",
      "type": "function"
    },
    {
      "inputs": [
        {
          "internalType": "uint256",
          "name": "duration_",
          "type": "uint256"
        }
      ],
      "name": "startNewReciclingCampaign",
      "outputs": [],
      "stateMutability": "nonpayable",
      "type": "function"
    }
  ],
  "bytecode": {
    "object": "0x608060405234801561001057600080fd5b506109aa806100206000396000f3fe608060405234801561001057600080fd5b506004361061009d5760003560e01c8063b88a802f11610066578063b88a802f14610128578063c28cd66d14610130578063c3ae3a0914610143578063cc1a378f14610156578063cd3daf9d1461016957600080fd5b80628cc262146100a2578063020ff618146100c85780633c6b16ab146100dd5780637d098e64146100f057806380faa57d14610120575b600080fd5b6100b56100b0366004610845565b610171565b6040519081526020015b60405180910390f35b6100db6100d6366004610845565b61025d565b005b6100db6100eb36600461086e565b6102a8565b6100f8610441565b604080519586526020860194909452928401919091526060830152608082015260a0016100bf565b6100b56104f3565b6100b5610509565b6100db61013e36600461086e565b61062b565b6100db61015136600461086e565b610648565b6100db61016436600461086e565b61067f565b6100b56106ae565b6001600160a01b03811660009081526020808052604080832054601f909252822054670de0b6b3a7640000906101a56106ae565b6101af919061089d565b600180546000906101c2576101c26108b0565b6000918252602090912001546040516370a0823160e01b81526001600160a01b038781166004830152909116906370a0823190602401602060405180830381865afa158015610215573d6000803e3d6000fd5b505050506040513d601f19601f8201168201806040525081019061023991906108c6565b61024391906108df565b61024d91906108f6565b6102579190610918565b92915050565b6102656106ae565b601c556102706104f3565b601a5561027c81610171565b6001600160a01b0390911660009081526020808052604080832093909355601c54601f90915291902055565b6000806102b36106ae565b601c556102be6104f3565b601a556001600160a01b03821615610303576102d982610171565b6001600160a01b03831660009081526020808052604080832093909355601c54601f909152919020555b61030b61079f565b60195442111561032a5760185461032290846108f6565b601b55610367565b60195460009061033b90429061089d565b601b5461034891906108df565b6018549091506103588583610918565b61036291906108f6565b601b55505b601b546103875760405163e92aa8bd60e01b815260040160405180910390fd5b6015546040516370a0823160e01b815230600482015263010000009091046001600160a01b0316906370a0823190602401602060405180830381865afa1580156103d5573d6000803e3d6000fd5b505050506040513d601f19601f820116820180604052508101906103f991906108c6565b601854601b5461040991906108df565b1115610428576040516311172c5560e11b815260040160405180910390fd5b6018546104359042610918565b601955505042601a5550565b601b54601d54601e546015546040516370a0823160e01b8152306004820152600094859485948594859463010000009091046001600160a01b0316906370a0823190602401602060405180830381865afa1580156104a3573d6000803e3d6000fd5b505050506040513d601f19601f820116820180604052508101906104c791906108c6565b6104d1919061089d565b601e546019546104e290429061092b565b945094509450945094509091929394565b60195460009061050490429061082c565b905090565b600033816105156106ae565b601c556105206104f3565b601a556001600160a01b038216156105655761053b82610171565b6001600160a01b03831660009081526020808052604080832093909355601c54601f909152919020555b33600090815260208052604090205480156106245733600081815260208052604080822091909155601554905163a9059cbb60e01b8152600481019290925260248201839052630100000090046001600160a01b03169063a9059cbb906044016020604051808303816000875af11580156105e4573d6000803e3d6000fd5b505050506040513d601f19601f820116820180604052508101906106089190610952565b50601d805482919060009061061e908490610918565b90915550505b9250505090565b6106348161067f565b601e54610640906102a8565b506000601e55565b601d805482919060009061065d90849061089d565b9091555050601e8054829190600090610677908490610918565b909155505050565b61068761079f565b60195442116106a9576040516314e75c8960e11b815260040160405180910390fd5b601855565b60008060006001016000815481106106c8576106c86108b0565b60009182526020918290200154604080516318160ddd60e01b815290516001600160a01b03909216926318160ddd926004808401938290030181865afa158015610716573d6000803e3d6000fd5b505050506040513d601f19601f8201168201806040525081019061073a91906108c6565b90508060000361074c575050601c5490565b601a5481906107596104f3565b610763919061089d565b601b5461077091906108df565b61078290670de0b6b3a76400006108df565b61078c91906108f6565b601c546107999190610918565b91505090565b7fc8fcad8db84d3cc18b4c41d551ea0ee66dd599cde068d998e57d5e09332c131c600401546001600160a01b0316331461082a5760405162461bcd60e51b815260206004820152602260248201527f4c69624469616d6f6e643a204d75737420626520636f6e7472616374206f776e60448201526132b960f11b606482015260840160405180910390fd5b565b60008183111561083c578161083e565b825b9392505050565b60006020828403121561085757600080fd5b81356001600160a01b038116811461083e57600080fd5b60006020828403121561088057600080fd5b5035919050565b634e487b7160e01b600052601160045260246000fd5b8181038181111561025757610257610887565b634e487b7160e01b600052603260045260246000fd5b6000602082840312156108d857600080fd5b5051919050565b808202811582820484141761025757610257610887565b60008261091357634e487b7160e01b600052601260045260246000fd5b500490565b8082018082111561025757610257610887565b818103600083128015838313168383128216171561094b5761094b610887565b5092915050565b60006020828403121561096457600080fd5b8151801515811461083e57600080fdfea264697066735822122002179af69d3f878c129ce2afbe1c27e9a9ebe97a5484f5f6bbc2a00498f2fdf664736f6c63430008150033",
    "linkReferences": {}
  },
  "methodIdentifiers": {
    "claimReward()": "b88a802f",
    "earned(address)": "008cc262",
    "getRewardsData()": "7d098e64",
    "lastTimeRewardApplicable()": "80faa57d",
    "modifySupply(uint256)": "c3ae3a09",
    "notifyRewardAmount(uint256)": "3c6b16ab",
    "rewardPerToken()": "cd3daf9d",
    "setRewardsDataExternally(address)": "020ff618",
    "setRewardsDuration(uint256)": "cc1a378f",
    "startNewReciclingCampaign(uint256)": "c28cd66d"
  },
  "id": 5
}