{"abi":[{"type":"function","name":"addToCirculatingSupply","inputs":[{"name":"amount_","type":"uint256","internalType":"uint256"}],"outputs":[],"stateMutability":"nonpayable"},{"type":"function","name":"claimReward","inputs":[],"outputs":[{"name":"","type":"uint256","internalType":"uint256"}],"stateMutability":"nonpayable"},{"type":"function","name":"earned","inputs":[{"name":"user_","type":"address","internalType":"address"}],"outputs":[{"name":"","type":"uint256","internalType":"uint256"}],"stateMutability":"view"},{"type":"function","name":"getRewardsData","inputs":[],"outputs":[{"name":"rewardRate","type":"uint256","internalType":"uint256"},{"name":"circulatingSupply","type":"uint256","internalType":"uint256"},{"name":"pendingAllocation","type":"uint256","internalType":"uint256"},{"name":"recicledSupply","type":"uint256","internalType":"uint256"},{"name":"durationLeft","type":"int256","internalType":"int256"}],"stateMutability":"view"},{"type":"function","name":"lastTimeRewardApplicable","inputs":[],"outputs":[{"name":"","type":"uint256","internalType":"uint256"}],"stateMutability":"view"},{"type":"function","name":"modifySupply","inputs":[{"name":"ozlAmount_","type":"uint256","internalType":"uint256"}],"outputs":[],"stateMutability":"nonpayable"},{"type":"function","name":"notifyRewardAmount","inputs":[{"name":"amount_","type":"uint256","internalType":"uint256"}],"outputs":[],"stateMutability":"nonpayable"},{"type":"function","name":"rewardPerToken","inputs":[],"outputs":[{"name":"","type":"uint256","internalType":"uint256"}],"stateMutability":"view"},{"type":"function","name":"setRewardsDataExternally","inputs":[{"name":"user_","type":"address","internalType":"address"}],"outputs":[],"stateMutability":"nonpayable"},{"type":"function","name":"setRewardsDuration","inputs":[{"name":"duration_","type":"uint256","internalType":"uint256"}],"outputs":[],"stateMutability":"nonpayable"},{"type":"function","name":"startNewReciclingCampaign","inputs":[{"name":"duration_","type":"uint256","internalType":"uint256"}],"outputs":[],"stateMutability":"nonpayable"},{"type":"error","name":"OZError15","inputs":[]},{"type":"error","name":"OZError16","inputs":[]},{"type":"error","name":"OZError17","inputs":[]}],"bytecode":{"object":"0x608060405234801561001057600080fd5b50610a8f806100206000396000f3fe608060405234801561001057600080fd5b50600436106100a85760003560e01c8063b88a802f11610071578063b88a802f14610133578063c28cd66d1461013b578063c3ae3a091461014e578063c6d20b6814610161578063cc1a378f14610174578063cd3daf9d1461018757600080fd5b80628cc262146100ad578063020ff618146100d35780633c6b16ab146100e85780637d098e64146100fb57806380faa57d1461012b575b600080fd5b6100c06100bb36600461090b565b61018f565b6040519081526020015b60405180910390f35b6100e66100e136600461090b565b6101fc565b005b6100e66100f6366004610934565b610249565b6101036103e4565b604080519586526020860194909452928401919091526060830152608082015260a0016100ca565b6100c0610496565b6100c06104ac565b6100e6610149366004610934565b6105d3565b6100e661015c366004610934565b6105f0565b6100e661016f366004610934565b610627565b6100e6610182366004610934565b61063c565b6100c061066b565b6001600160a01b0381166000908152601e6020908152604080832054601d909252822054670de0b6b3a7640000906101c561066b565b6101cf9190610963565b6101d8856106db565b6101e29190610976565b6101ec919061098d565b6101f691906109af565b92915050565b61020461066b565b601a5561020f610496565b60185561021b8161018f565b6001600160a01b039091166000908152601e6020908152604080832093909355601a54601d90915291902055565b60008061025461066b565b601a5561025f610496565b6018556001600160a01b038216156102a65761027a8261018f565b6001600160a01b0383166000908152601e6020908152604080832093909355601a54601d909152919020555b6102ae6107a6565b6017544211156102cd576016546102c5908461098d565b60195561030a565b6017546000906102de904290610963565b6019546102eb9190610976565b6016549091506102fb85836109af565b610305919061098d565b601955505b60195461032a5760405163e92aa8bd60e01b815260040160405180910390fd5b6013546040516370a0823160e01b8152306004820152600160481b9091046001600160a01b0316906370a0823190602401602060405180830381865afa158015610378573d6000803e3d6000fd5b505050506040513d601f19601f8201168201806040525081019061039c91906109c2565b6016546019546103ac9190610976565b11156103cb576040516311172c5560e11b815260040160405180910390fd5b6016546103d890426109af565b60175550504260185550565b601954601b54601c546013546040516370a0823160e01b81523060048201526000948594859485948594600160481b9091046001600160a01b0316906370a0823190602401602060405180830381865afa158015610446573d6000803e3d6000fd5b505050506040513d601f19601f8201168201806040525081019061046a91906109c2565b6104749190610963565b601c546017546104859042906109db565b945094509450945094509091929394565b6017546000906104a7904290610833565b905090565b600033816104b861066b565b601a556104c3610496565b6018556001600160a01b0382161561050a576104de8261018f565b6001600160a01b0383166000908152601e6020908152604080832093909355601a54601d909152919020555b336000908152601e602052604090205480156105cb57336000818152601e602052604080822091909155601354905163a9059cbb60e01b8152600481019290925260248201839052600160481b90046001600160a01b03169063a9059cbb906044016020604051808303816000875af115801561058b573d6000803e3d6000fd5b505050506040513d601f19601f820116820180604052508101906105af9190610a02565b50601b80548291906000906105c59084906109af565b90915550505b92505b505090565b6105dc8161063c565b601c546105e890610249565b506000601c55565b601b8054829190600090610605908490610963565b9091555050601c805482919060009061061f9084906109af565b909155505050565b601b805482919060009061061f9084906109af565b6106446107a6565b6017544211610666576040516314e75c8960e11b815260040160405180910390fd5b601655565b60008061067661084c565b905080600003610688575050601a5490565b6018548190610695610496565b61069f9190610963565b6019546106ac9190610976565b6106be90670de0b6b3a7640000610976565b6106c8919061098d565b601a546106d591906109af565b91505090565b600154600090815b818160ff16101561079f576001805460ff831690811061070557610705610a24565b60009182526020909120600290910201546040516370a0823160e01b81526001600160a01b038681166004830152909116906370a0823190602401602060405180830381865afa15801561075d573d6000803e3d6000fd5b505050506040513d601f19601f8201168201806040525081019061078191906109c2565b61078b90846109af565b92508061079781610a3a565b9150506106e3565b5050919050565b7fc8fcad8db84d3cc18b4c41d551ea0ee66dd599cde068d998e57d5e09332c131c600401546001600160a01b031633146108315760405162461bcd60e51b815260206004820152602260248201527f4c69624469616d6f6e643a204d75737420626520636f6e7472616374206f776e60448201526132b960f11b606482015260840160405180910390fd5b565b6000818311156108435781610845565b825b9392505050565b600154600090815b818160ff1610156105ce576001805460ff831690811061087657610876610a24565b600091825260209182902060029091020154604080516318160ddd60e01b815290516001600160a01b03909216926318160ddd926004808401938290030181865afa1580156108c9573d6000803e3d6000fd5b505050506040513d601f19601f820116820180604052508101906108ed91906109c2565b6108f790846109af565b92508061090381610a3a565b915050610854565b60006020828403121561091d57600080fd5b81356001600160a01b038116811461084557600080fd5b60006020828403121561094657600080fd5b5035919050565b634e487b7160e01b600052601160045260246000fd5b818103818111156101f6576101f661094d565b80820281158282048414176101f6576101f661094d565b6000826109aa57634e487b7160e01b600052601260045260246000fd5b500490565b808201808211156101f6576101f661094d565b6000602082840312156109d457600080fd5b5051919050565b81810360008312801583831316838312821617156109fb576109fb61094d565b5092915050565b600060208284031215610a1457600080fd5b8151801515811461084557600080fd5b634e487b7160e01b600052603260045260246000fd5b600060ff821660ff8103610a5057610a5061094d565b6001019291505056fea26469706673582212203173c9f205a89e76cf16a1c3bf3c1f76f3f6b99c88ab0614602b605c15e8810064736f6c63430008150033","linkReferences":{}},"methodIdentifiers":{"addToCirculatingSupply(uint256)":"c6d20b68","claimReward()":"b88a802f","earned(address)":"008cc262","getRewardsData()":"7d098e64","lastTimeRewardApplicable()":"80faa57d","modifySupply(uint256)":"c3ae3a09","notifyRewardAmount(uint256)":"3c6b16ab","rewardPerToken()":"cd3daf9d","setRewardsDataExternally(address)":"020ff618","setRewardsDuration(uint256)":"cc1a378f","startNewReciclingCampaign(uint256)":"c28cd66d"},"id":11}