{
  "abi": [
    {
      "inputs": [],
      "name": "OZError15",
      "type": "error"
    },
    {
      "inputs": [],
      "name": "OZError16",
      "type": "error"
    },
    {
      "inputs": [],
      "name": "OZError17",
      "type": "error"
    },
    {
      "inputs": [],
      "name": "claimReward",
      "outputs": [
        {
          "internalType": "uint256",
          "name": "",
          "type": "uint256"
        }
      ],
      "stateMutability": "nonpayable",
      "type": "function"
    },
    {
      "inputs": [],
      "name": "durationLeft",
      "outputs": [
        {
          "internalType": "int256",
          "name": "",
          "type": "int256"
        }
      ],
      "stateMutability": "view",
      "type": "function"
    },
    {
      "inputs": [
        {
          "internalType": "address",
          "name": "user_",
          "type": "address"
        }
      ],
      "name": "earned",
      "outputs": [
        {
          "internalType": "uint256",
          "name": "",
          "type": "uint256"
        }
      ],
      "stateMutability": "view",
      "type": "function"
    },
    {
      "inputs": [],
      "name": "getCirculatingSupply",
      "outputs": [
        {
          "internalType": "uint256",
          "name": "",
          "type": "uint256"
        }
      ],
      "stateMutability": "view",
      "type": "function"
    },
    {
      "inputs": [],
      "name": "getRecicledSupply",
      "outputs": [
        {
          "internalType": "uint256",
          "name": "",
          "type": "uint256"
        }
      ],
      "stateMutability": "view",
      "type": "function"
    },
    {
      "inputs": [],
      "name": "getRewardRate",
      "outputs": [
        {
          "internalType": "uint256",
          "name": "",
          "type": "uint256"
        }
      ],
      "stateMutability": "view",
      "type": "function"
    },
    {
      "inputs": [],
      "name": "lastTimeRewardApplicable",
      "outputs": [
        {
          "internalType": "uint256",
          "name": "",
          "type": "uint256"
        }
      ],
      "stateMutability": "view",
      "type": "function"
    },
    {
      "inputs": [
        {
          "internalType": "uint256",
          "name": "ozlAmount_",
          "type": "uint256"
        }
      ],
      "name": "modifySupply",
      "outputs": [],
      "stateMutability": "nonpayable",
      "type": "function"
    },
    {
      "inputs": [
        {
          "internalType": "uint256",
          "name": "amount_",
          "type": "uint256"
        }
      ],
      "name": "notifyRewardAmount",
      "outputs": [],
      "stateMutability": "nonpayable",
      "type": "function"
    },
    {
      "inputs": [],
      "name": "pendingAllocation",
      "outputs": [
        {
          "internalType": "uint256",
          "name": "",
          "type": "uint256"
        }
      ],
      "stateMutability": "view",
      "type": "function"
    },
    {
      "inputs": [],
      "name": "rewardPerToken",
      "outputs": [
        {
          "internalType": "uint256",
          "name": "",
          "type": "uint256"
        }
      ],
      "stateMutability": "view",
      "type": "function"
    },
    {
      "inputs": [
        {
          "internalType": "uint256",
          "name": "duration_",
          "type": "uint256"
        }
      ],
      "name": "setRewardsDuration",
      "outputs": [],
      "stateMutability": "nonpayable",
      "type": "function"
    },
    {
      "inputs": [
        {
          "internalType": "uint256",
          "name": "duration_",
          "type": "uint256"
        }
      ],
      "name": "startNewReciclingCampaign",
      "outputs": [],
      "stateMutability": "nonpayable",
      "type": "function"
    }
  ],
  "bytecode": {
    "object": "0x608060405234801561001057600080fd5b5061094b806100206000396000f3fe608060405234801561001057600080fd5b50600436106100ce5760003560e01c806380faa57d1161008c578063c28cd66d11610066578063c28cd66d14610145578063c3ae3a0914610158578063cc1a378f1461016b578063cd3daf9d1461017e57600080fd5b806380faa57d1461012d5780638f39054814610135578063b88a802f1461013d57600080fd5b80628cc262146100d35780632b112e49146100f85780633c6b16ab14610100578063533a386c146101155780636a533a4c1461011d5780637e1a378614610125575b600080fd5b6100e66100e13660046107e6565b610186565b60405190815260200160405180910390f35b601d546100e6565b61011361010e36600461080f565b610272565b005b6100e6610409565b601e546100e6565b601b546100e6565b6100e661041f565b6100e6610430565b6100e66104b2565b61011361015336600461080f565b6105d2565b61011361016636600461080f565b6105ef565b61011361017936600461080f565b610626565b6100e6610655565b6001600160a01b03811660009081526020808052604080832054601f909252822054670de0b6b3a7640000906101ba610655565b6101c4919061083e565b600180546000906101d7576101d7610851565b6000918252602090912001546040516370a0823160e01b81526001600160a01b038781166004830152909116906370a0823190602401602060405180830381865afa15801561022a573d6000803e3d6000fd5b505050506040513d601f19601f8201168201806040525081019061024e9190610867565b6102589190610880565b6102629190610897565b61026c91906108b9565b92915050565b600061027c610655565b601c5561028761041f565b601a556001600160a01b038116156102cc576102a281610186565b6001600160a01b03821660009081526020808052604080832093909355601c54601f909152919020555b6102d4610740565b6019544211156102f3576018546102eb9083610897565b601b55610330565b60195460009061030490429061083e565b601b546103119190610880565b60185490915061032184836108b9565b61032b9190610897565b601b55505b601b546103505760405163e92aa8bd60e01b815260040160405180910390fd5b6015546040516370a0823160e01b815230600482015263010000009091046001600160a01b0316906370a0823190602401602060405180830381865afa15801561039e573d6000803e3d6000fd5b505050506040513d601f19601f820116820180604052508101906103c29190610867565b601854601b546103d29190610880565b11156103f1576040516311172c5560e11b815260040160405180910390fd5b6018546103fe90426108b9565b601955505042601a55565b60195460009061041a9042906108cc565b905090565b60195460009061041a9042906107cd565b601e546015546040516370a0823160e01b815230600482015260009291630100000090046001600160a01b0316906370a0823190602401602060405180830381865afa158015610484573d6000803e3d6000fd5b505050506040513d601f19601f820116820180604052508101906104a89190610867565b61041a919061083e565b6000336104bd610655565b601c556104c861041f565b601a556001600160a01b0381161561050d576104e381610186565b6001600160a01b03821660009081526020808052604080832093909355601c54601f909152919020555b33600090815260208052604090205480156105cc5733600081815260208052604080822091909155601554905163a9059cbb60e01b8152600481019290925260248201839052630100000090046001600160a01b03169063a9059cbb906044016020604051808303816000875af115801561058c573d6000803e3d6000fd5b505050506040513d601f19601f820116820180604052508101906105b091906108f3565b50601d80548291906000906105c69084906108b9565b90915550505b91505090565b6105db81610626565b601e546105e790610272565b506000601e55565b601d805482919060009061060490849061083e565b9091555050601e805482919060009061061e9084906108b9565b909155505050565b61062e610740565b6019544211610650576040516314e75c8960e11b815260040160405180910390fd5b601855565b600080600060010160008154811061066f5761066f610851565b60009182526020918290200154604080516318160ddd60e01b815290516001600160a01b03909216926318160ddd926004808401938290030181865afa1580156106bd573d6000803e3d6000fd5b505050506040513d601f19601f820116820180604052508101906106e19190610867565b9050806000036106f3575050601c5490565b601a54819061070061041f565b61070a919061083e565b601b546107179190610880565b61072990670de0b6b3a7640000610880565b6107339190610897565b601c546105cc91906108b9565b7fc8fcad8db84d3cc18b4c41d551ea0ee66dd599cde068d998e57d5e09332c131c600401546001600160a01b031633146107cb5760405162461bcd60e51b815260206004820152602260248201527f4c69624469616d6f6e643a204d75737420626520636f6e7472616374206f776e60448201526132b960f11b606482015260840160405180910390fd5b565b6000818311156107dd57816107df565b825b9392505050565b6000602082840312156107f857600080fd5b81356001600160a01b03811681146107df57600080fd5b60006020828403121561082157600080fd5b5035919050565b634e487b7160e01b600052601160045260246000fd5b8181038181111561026c5761026c610828565b634e487b7160e01b600052603260045260246000fd5b60006020828403121561087957600080fd5b5051919050565b808202811582820484141761026c5761026c610828565b6000826108b457634e487b7160e01b600052601260045260246000fd5b500490565b8082018082111561026c5761026c610828565b81810360008312801583831316838312821617156108ec576108ec610828565b5092915050565b60006020828403121561090557600080fd5b815180151581146107df57600080fdfea26469706673582212201e68df3b85ee969853d6c4f981ff22dbf46458a654a1ef290a75dc535bd3109c64736f6c63430008150033",
    "linkReferences": {}
  },
  "methodIdentifiers": {
    "claimReward()": "b88a802f",
    "durationLeft()": "533a386c",
    "earned(address)": "008cc262",
    "getCirculatingSupply()": "2b112e49",
    "getRecicledSupply()": "6a533a4c",
    "getRewardRate()": "7e1a3786",
    "lastTimeRewardApplicable()": "80faa57d",
    "modifySupply(uint256)": "c3ae3a09",
    "notifyRewardAmount(uint256)": "3c6b16ab",
    "pendingAllocation()": "8f390548",
    "rewardPerToken()": "cd3daf9d",
    "setRewardsDuration(uint256)": "cc1a378f",
    "startNewReciclingCampaign(uint256)": "c28cd66d"
  },
  "id": 5
}