{
  "abi": [
    {
      "inputs": [],
      "name": "OZError15",
      "type": "error"
    },
    {
      "inputs": [],
      "name": "OZError16",
      "type": "error"
    },
    {
      "inputs": [],
      "name": "OZError17",
      "type": "error"
    },
    {
      "inputs": [],
      "name": "claimReward",
      "outputs": [
        {
          "internalType": "uint256",
          "name": "",
          "type": "uint256"
        }
      ],
      "stateMutability": "nonpayable",
      "type": "function"
    },
    {
      "inputs": [
        {
          "internalType": "address",
          "name": "user_",
          "type": "address"
        }
      ],
      "name": "earned",
      "outputs": [
        {
          "internalType": "uint256",
          "name": "",
          "type": "uint256"
        }
      ],
      "stateMutability": "view",
      "type": "function"
    },
    {
      "inputs": [],
      "name": "getOZLCirculatingSupply",
      "outputs": [
        {
          "internalType": "uint256",
          "name": "",
          "type": "uint256"
        }
      ],
      "stateMutability": "view",
      "type": "function"
    },
    {
      "inputs": [],
      "name": "getRewardRate",
      "outputs": [
        {
          "internalType": "uint256",
          "name": "",
          "type": "uint256"
        }
      ],
      "stateMutability": "view",
      "type": "function"
    },
    {
      "inputs": [],
      "name": "lastTimeRewardApplicable",
      "outputs": [
        {
          "internalType": "uint256",
          "name": "",
          "type": "uint256"
        }
      ],
      "stateMutability": "view",
      "type": "function"
    },
    {
      "inputs": [
        {
          "internalType": "uint256",
          "name": "amount_",
          "type": "uint256"
        }
      ],
      "name": "notifyRewardAmount",
      "outputs": [],
      "stateMutability": "nonpayable",
      "type": "function"
    },
    {
      "inputs": [],
      "name": "pendingAllocation",
      "outputs": [
        {
          "internalType": "uint256",
          "name": "",
          "type": "uint256"
        }
      ],
      "stateMutability": "view",
      "type": "function"
    },
    {
      "inputs": [],
      "name": "rewardPerToken",
      "outputs": [
        {
          "internalType": "uint256",
          "name": "",
          "type": "uint256"
        }
      ],
      "stateMutability": "view",
      "type": "function"
    },
    {
      "inputs": [
        {
          "internalType": "uint256",
          "name": "duration_",
          "type": "uint256"
        }
      ],
      "name": "setRewardsDuration",
      "outputs": [],
      "stateMutability": "nonpayable",
      "type": "function"
    }
  ],
  "bytecode": {
    "object": "0x608060405234801561001057600080fd5b5061083f806100206000396000f3fe608060405234801561001057600080fd5b50600436106100925760003560e01c806380faa57d1161006657806380faa57d146100e15780638f390548146100e9578063b88a802f146100f1578063cc1a378f146100f9578063cd3daf9d1461010c57600080fd5b80628cc262146100975780631e4d84c6146100bc5780633c6b16ab146100c45780637e1a3786146100d9575b600080fd5b6100aa6100a5366004610701565b610114565b60405190815260200160405180910390f35b601e546100aa565b6100d76100d236600461072a565b610200565b005b601c546100aa565b6100aa610397565b6100aa6103ad565b6100aa610421565b6100d761010736600461072a565b610541565b6100aa610570565b6001600160a01b03811660009081526020808052604080832054601f909252822054670de0b6b3a764000090610148610570565b6101529190610759565b600180546000906101655761016561076c565b6000918252602090912001546040516370a0823160e01b81526001600160a01b038781166004830152909116906370a0823190602401602060405180830381865afa1580156101b8573d6000803e3d6000fd5b505050506040513d601f19601f820116820180604052508101906101dc9190610782565b6101e6919061079b565b6101f091906107b2565b6101fa91906107d4565b92915050565b600061020a610570565b601d55610215610397565b601b556001600160a01b0381161561025a5761023081610114565b6001600160a01b03821660009081526020808052604080832093909355601d54601f909152919020555b61026261065b565b601a544211156102815760195461027990836107b2565b601c556102be565b601a54600090610292904290610759565b601c5461029f919061079b565b6019549091506102af84836107d4565b6102b991906107b2565b601c55505b601c546102de5760405163e92aa8bd60e01b815260040160405180910390fd5b6016546040516370a0823160e01b815230600482015263010000009091046001600160a01b0316906370a0823190602401602060405180830381865afa15801561032c573d6000803e3d6000fd5b505050506040513d601f19601f820116820180604052508101906103509190610782565b601954601c54610360919061079b565b111561037f576040516311172c5560e11b815260040160405180910390fd5b60195461038c90426107d4565b601a55505042601b55565b601a546000906103a89042906106e8565b905090565b6016546040516370a0823160e01b8152306004820152600091630100000090046001600160a01b0316906370a0823190602401602060405180830381865afa1580156103fd573d6000803e3d6000fd5b505050506040513d601f19601f820116820180604052508101906103a89190610782565b60003361042c610570565b601d55610437610397565b601b556001600160a01b0381161561047c5761045281610114565b6001600160a01b03821660009081526020808052604080832093909355601d54601f909152919020555b336000908152602080526040902054801561053b5733600081815260208052604080822091909155601654905163a9059cbb60e01b8152600481019290925260248201839052630100000090046001600160a01b03169063a9059cbb906044016020604051808303816000875af11580156104fb573d6000803e3d6000fd5b505050506040513d601f19601f8201168201806040525081019061051f91906107e7565b50601e80548291906000906105359084906107d4565b90915550505b91505090565b61054961065b565b601a54421161056b576040516314e75c8960e11b815260040160405180910390fd5b601955565b600080600060010160008154811061058a5761058a61076c565b60009182526020918290200154604080516318160ddd60e01b815290516001600160a01b03909216926318160ddd926004808401938290030181865afa1580156105d8573d6000803e3d6000fd5b505050506040513d601f19601f820116820180604052508101906105fc9190610782565b90508060000361060e575050601d5490565b601b54819061061b610397565b6106259190610759565b601c54610632919061079b565b61064490670de0b6b3a764000061079b565b61064e91906107b2565b601d5461053b91906107d4565b7fc8fcad8db84d3cc18b4c41d551ea0ee66dd599cde068d998e57d5e09332c131c600401546001600160a01b031633146106e65760405162461bcd60e51b815260206004820152602260248201527f4c69624469616d6f6e643a204d75737420626520636f6e7472616374206f776e60448201526132b960f11b606482015260840160405180910390fd5b565b6000818311156106f857816106fa565b825b9392505050565b60006020828403121561071357600080fd5b81356001600160a01b03811681146106fa57600080fd5b60006020828403121561073c57600080fd5b5035919050565b634e487b7160e01b600052601160045260246000fd5b818103818111156101fa576101fa610743565b634e487b7160e01b600052603260045260246000fd5b60006020828403121561079457600080fd5b5051919050565b80820281158282048414176101fa576101fa610743565b6000826107cf57634e487b7160e01b600052601260045260246000fd5b500490565b808201808211156101fa576101fa610743565b6000602082840312156107f957600080fd5b815180151581146106fa57600080fdfea2646970667358221220337ddb252ecb0bf7ada91949ed7f1cc04b11c654aea68b1d45d3e06c837ba8fd64736f6c63430008150033",
    "linkReferences": {}
  },
  "methodIdentifiers": {
    "claimReward()": "b88a802f",
    "earned(address)": "008cc262",
    "getOZLCirculatingSupply()": "1e4d84c6",
    "getRewardRate()": "7e1a3786",
    "lastTimeRewardApplicable()": "80faa57d",
    "notifyRewardAmount(uint256)": "3c6b16ab",
    "pendingAllocation()": "8f390548",
    "rewardPerToken()": "cd3daf9d",
    "setRewardsDuration(uint256)": "cc1a378f"
  },
  "id": 5
}