{
  "abi": [
    {
      "inputs": [],
      "name": "OZError15",
      "type": "error"
    },
    {
      "inputs": [],
      "name": "OZError16",
      "type": "error"
    },
    {
      "inputs": [],
      "name": "OZError17",
      "type": "error"
    },
    {
      "inputs": [],
      "name": "claimReward",
      "outputs": [
        {
          "internalType": "uint256",
          "name": "",
          "type": "uint256"
        }
      ],
      "stateMutability": "nonpayable",
      "type": "function"
    },
    {
      "inputs": [],
      "name": "durationLeft",
      "outputs": [
        {
          "internalType": "int256",
          "name": "",
          "type": "int256"
        }
      ],
      "stateMutability": "view",
      "type": "function"
    },
    {
      "inputs": [
        {
          "internalType": "address",
          "name": "user_",
          "type": "address"
        }
      ],
      "name": "earned",
      "outputs": [
        {
          "internalType": "uint256",
          "name": "",
          "type": "uint256"
        }
      ],
      "stateMutability": "view",
      "type": "function"
    },
    {
      "inputs": [],
      "name": "getCirculatingSupply",
      "outputs": [
        {
          "internalType": "uint256",
          "name": "",
          "type": "uint256"
        }
      ],
      "stateMutability": "view",
      "type": "function"
    },
    {
      "inputs": [],
      "name": "getRecicledSupply",
      "outputs": [
        {
          "internalType": "uint256",
          "name": "",
          "type": "uint256"
        }
      ],
      "stateMutability": "view",
      "type": "function"
    },
    {
      "inputs": [],
      "name": "getRewardRate",
      "outputs": [
        {
          "internalType": "uint256",
          "name": "",
          "type": "uint256"
        }
      ],
      "stateMutability": "view",
      "type": "function"
    },
    {
      "inputs": [],
      "name": "lastTimeRewardApplicable",
      "outputs": [
        {
          "internalType": "uint256",
          "name": "",
          "type": "uint256"
        }
      ],
      "stateMutability": "view",
      "type": "function"
    },
    {
      "inputs": [
        {
          "internalType": "uint256",
          "name": "ozlAmount_",
          "type": "uint256"
        }
      ],
      "name": "modifySupply",
      "outputs": [],
      "stateMutability": "nonpayable",
      "type": "function"
    },
    {
      "inputs": [
        {
          "internalType": "uint256",
          "name": "amount_",
          "type": "uint256"
        }
      ],
      "name": "notifyRewardAmount",
      "outputs": [],
      "stateMutability": "nonpayable",
      "type": "function"
    },
    {
      "inputs": [],
      "name": "pendingAllocation",
      "outputs": [
        {
          "internalType": "uint256",
          "name": "",
          "type": "uint256"
        }
      ],
      "stateMutability": "view",
      "type": "function"
    },
    {
      "inputs": [],
      "name": "rewardPerToken",
      "outputs": [
        {
          "internalType": "uint256",
          "name": "",
          "type": "uint256"
        }
      ],
      "stateMutability": "view",
      "type": "function"
    },
    {
      "inputs": [
        {
          "internalType": "address",
          "name": "user_",
          "type": "address"
        }
      ],
      "name": "setRewardDataExternally",
      "outputs": [],
      "stateMutability": "nonpayable",
      "type": "function"
    },
    {
      "inputs": [
        {
          "internalType": "uint256",
          "name": "duration_",
          "type": "uint256"
        }
      ],
      "name": "setRewardsDuration",
      "outputs": [],
      "stateMutability": "nonpayable",
      "type": "function"
    },
    {
      "inputs": [
        {
          "internalType": "uint256",
          "name": "duration_",
          "type": "uint256"
        }
      ],
      "name": "startNewReciclingCampaign",
      "outputs": [],
      "stateMutability": "nonpayable",
      "type": "function"
    }
  ],
  "bytecode": {
    "object": "0x608060405234801561001057600080fd5b506109b1806100206000396000f3fe608060405234801561001057600080fd5b50600436106100e95760003560e01c80638f3905481161008c578063c28cd66d11610066578063c28cd66d14610173578063c3ae3a0914610186578063cc1a378f14610199578063cd3daf9d146101ac57600080fd5b80638f39054814610150578063b589559a14610158578063b88a802f1461016b57600080fd5b8063533a386c116100c8578063533a386c146101305780636a533a4c146101385780637e1a37861461014057806380faa57d1461014857600080fd5b80628cc262146100ee5780632b112e49146101135780633c6b16ab1461011b575b600080fd5b6101016100fc36600461084c565b6101b4565b60405190815260200160405180910390f35b601d54610101565b61012e610129366004610875565b6102a0565b005b6101016103f7565b601e54610101565b601b54610101565b61010161040d565b61010161041e565b61012e61016636600461084c565b6104a0565b6101016104eb565b61012e610181366004610875565b610632565b61012e610194366004610875565b61064f565b61012e6101a7366004610875565b610686565b6101016106b5565b6001600160a01b03811660009081526020808052604080832054601f909252822054670de0b6b3a7640000906101e86106b5565b6101f291906108a4565b60018054600090610205576102056108b7565b6000918252602090912001546040516370a0823160e01b81526001600160a01b038781166004830152909116906370a0823190602401602060405180830381865afa158015610258573d6000803e3d6000fd5b505050506040513d601f19601f8201168201806040525081019061027c91906108cd565b61028691906108e6565b61029091906108fd565b61029a919061091f565b92915050565b6000806102ab6106b5565b601c556102b661040d565b601a556102c16107a6565b6019544211156102e0576018546102d890846108fd565b601b5561031d565b6019546000906102f19042906108a4565b601b546102fe91906108e6565b60185490915061030e858361091f565b61031891906108fd565b601b55505b601b5461033d5760405163e92aa8bd60e01b815260040160405180910390fd5b6015546040516370a0823160e01b815230600482015263010000009091046001600160a01b0316906370a0823190602401602060405180830381865afa15801561038b573d6000803e3d6000fd5b505050506040513d601f19601f820116820180604052508101906103af91906108cd565b601854601b546103bf91906108e6565b11156103de576040516311172c5560e11b815260040160405180910390fd5b6018546103eb904261091f565b601955505042601a5550565b601954600090610408904290610932565b905090565b601954600090610408904290610833565b601e546015546040516370a0823160e01b815230600482015260009291630100000090046001600160a01b0316906370a0823190602401602060405180830381865afa158015610472573d6000803e3d6000fd5b505050506040513d601f19601f8201168201806040525081019061049691906108cd565b61040891906108a4565b6104a86106b5565b601c556104b361040d565b601a556104bf816101b4565b6001600160a01b0390911660009081526020808052604080832093909355601c54601f90915291902055565b60003381811561055557604051635ac4aacd60e11b81526001600160a01b03838116600483015282169063b589559a90602401600060405180830381600087803b15801561053857600080fd5b505af115801561054c573d6000803e3d6000fd5b5050505061056c565b61055d6106b5565b601c5561056861040d565b601a555b336000908152602080526040902054801561062b5733600081815260208052604080822091909155601554905163a9059cbb60e01b8152600481019290925260248201839052630100000090046001600160a01b03169063a9059cbb906044016020604051808303816000875af11580156105eb573d6000803e3d6000fd5b505050506040513d601f19601f8201168201806040525081019061060f9190610959565b50601d805482919060009061062590849061091f565b90915550505b9250505090565b61063b81610686565b601e54610647906102a0565b506000601e55565b601d80548291906000906106649084906108a4565b9091555050601e805482919060009061067e90849061091f565b909155505050565b61068e6107a6565b60195442116106b0576040516314e75c8960e11b815260040160405180910390fd5b601855565b60008060006001016000815481106106cf576106cf6108b7565b60009182526020918290200154604080516318160ddd60e01b815290516001600160a01b03909216926318160ddd926004808401938290030181865afa15801561071d573d6000803e3d6000fd5b505050506040513d601f19601f8201168201806040525081019061074191906108cd565b905080600003610753575050601c5490565b601a54819061076061040d565b61076a91906108a4565b601b5461077791906108e6565b61078990670de0b6b3a76400006108e6565b61079391906108fd565b601c546107a0919061091f565b91505090565b7fc8fcad8db84d3cc18b4c41d551ea0ee66dd599cde068d998e57d5e09332c131c600401546001600160a01b031633146108315760405162461bcd60e51b815260206004820152602260248201527f4c69624469616d6f6e643a204d75737420626520636f6e7472616374206f776e60448201526132b960f11b606482015260840160405180910390fd5b565b6000818311156108435781610845565b825b9392505050565b60006020828403121561085e57600080fd5b81356001600160a01b038116811461084557600080fd5b60006020828403121561088757600080fd5b5035919050565b634e487b7160e01b600052601160045260246000fd5b8181038181111561029a5761029a61088e565b634e487b7160e01b600052603260045260246000fd5b6000602082840312156108df57600080fd5b5051919050565b808202811582820484141761029a5761029a61088e565b60008261091a57634e487b7160e01b600052601260045260246000fd5b500490565b8082018082111561029a5761029a61088e565b81810360008312801583831316838312821617156109525761095261088e565b5092915050565b60006020828403121561096b57600080fd5b8151801515811461084557600080fdfea264697066735822122049c67ff8bdce189545f11af1f9fb4cbd5ad6541193ae51ea8eb3a89006a67fbc64736f6c63430008150033",
    "linkReferences": {}
  },
  "methodIdentifiers": {
    "claimReward()": "b88a802f",
    "durationLeft()": "533a386c",
    "earned(address)": "008cc262",
    "getCirculatingSupply()": "2b112e49",
    "getRecicledSupply()": "6a533a4c",
    "getRewardRate()": "7e1a3786",
    "lastTimeRewardApplicable()": "80faa57d",
    "modifySupply(uint256)": "c3ae3a09",
    "notifyRewardAmount(uint256)": "3c6b16ab",
    "pendingAllocation()": "8f390548",
    "rewardPerToken()": "cd3daf9d",
    "setRewardDataExternally(address)": "b589559a",
    "setRewardsDuration(uint256)": "cc1a378f",
    "startNewReciclingCampaign(uint256)": "c28cd66d"
  },
  "id": 5
}