{
  "abi": [
    {
      "inputs": [
        {
          "internalType": "address",
          "name": "user_",
          "type": "address"
        }
      ],
      "name": "earned",
      "outputs": [
        {
          "internalType": "uint256",
          "name": "",
          "type": "uint256"
        }
      ],
      "stateMutability": "view",
      "type": "function"
    },
    {
      "inputs": [],
      "name": "getReward",
      "outputs": [],
      "stateMutability": "nonpayable",
      "type": "function"
    },
    {
      "inputs": [],
      "name": "lastTimeRewardApplicable",
      "outputs": [
        {
          "internalType": "uint256",
          "name": "",
          "type": "uint256"
        }
      ],
      "stateMutability": "view",
      "type": "function"
    },
    {
      "inputs": [
        {
          "internalType": "uint256",
          "name": "amount_",
          "type": "uint256"
        }
      ],
      "name": "notifyRewardAmount",
      "outputs": [],
      "stateMutability": "nonpayable",
      "type": "function"
    },
    {
      "inputs": [],
      "name": "rewardPerToken",
      "outputs": [
        {
          "internalType": "uint256",
          "name": "",
          "type": "uint256"
        }
      ],
      "stateMutability": "view",
      "type": "function"
    },
    {
      "inputs": [
        {
          "internalType": "uint256",
          "name": "duration_",
          "type": "uint256"
        }
      ],
      "name": "setRewardsDuration",
      "outputs": [],
      "stateMutability": "nonpayable",
      "type": "function"
    }
  ],
  "bytecode": {
    "object": "0x608060405234801561001057600080fd5b506107f2806100206000396000f3fe608060405234801561001057600080fd5b50600436106100615760003560e01c80628cc262146100665780633c6b16ab1461008b5780633d18b912146100a057806380faa57d146100a8578063cc1a378f146100b0578063cd3daf9d146100c3575b600080fd5b6100796100743660046106b4565b6100cb565b60405190815260200160405180910390f35b61009e6100993660046106dd565b6101b9565b005b61009e6103a7565b6100796104ad565b61009e6100be3660046106dd565b6104c3565b610079610521565b6001600160a01b0381166000908152601f6020908152604080832054601e909252822054670de0b6b3a764000090610101610521565b61010b919061070c565b600d805460009061011e5761011e61071f565b6000918252602090912001546040516370a0823160e01b81526001600160a01b038781166004830152909116906370a0823190602401602060405180830381865afa158015610171573d6000803e3d6000fd5b505050506040513d601f19601f820116820180604052508101906101959190610735565b61019f919061074e565b6101a99190610765565b6101b39190610787565b92915050565b60006101c3610521565b601d556101ce6104ad565b601b556001600160a01b03811615610215576101e9816100cb565b6001600160a01b0382166000908152601f6020908152604080832093909355601d54601e909152919020555b61021d610612565b601a5442111561023c576019546102349083610765565b601c55610279565b601a5460009061024d90429061070c565b601c5461025a919061074e565b60195490915061026a8483610787565b6102749190610765565b601c55505b601c546102bf5760405162461bcd60e51b815260206004820152600f60248201526e07265776172642072617465203d203608c1b60448201526064015b60405180910390fd5b6016546040516370a0823160e01b815230600482015263010000009091046001600160a01b0316906370a0823190602401602060405180830381865afa15801561030d573d6000803e3d6000fd5b505050506040513d601f19601f820116820180604052508101906103319190610735565b601954601c54610341919061074e565b111561038f5760405162461bcd60e51b815260206004820152601760248201527f72657761726420616d6f756e74203e2062616c616e636500000000000000000060448201526064016102b6565b60195461039c9042610787565b601a55505042601b55565b336103b0610521565b601d556103bb6104ad565b601b556001600160a01b03811615610402576103d6816100cb565b6001600160a01b0382166000908152601f6020908152604080832093909355601d54601e909152919020555b336000908152601f602052604090205480156104a957336000818152601f602052604080822091909155601654905163a9059cbb60e01b8152600481019290925260248201839052630100000090046001600160a01b03169063a9059cbb906044016020604051808303816000875af1158015610483573d6000803e3d6000fd5b505050506040513d601f19601f820116820180604052508101906104a7919061079a565b505b5050565b601a546000906104be90429061069b565b905090565b6104cb610612565b601a54421161051c5760405162461bcd60e51b815260206004820152601d60248201527f72657761726473206475726174696f6e206e6f742066696e697368656400000060448201526064016102b6565b601955565b6000806000600d0160008154811061053b5761053b61071f565b60009182526020918290200154604080516318160ddd60e01b815290516001600160a01b03909216926318160ddd926004808401938290030181865afa158015610589573d6000803e3d6000fd5b505050506040513d601f19601f820116820180604052508101906105ad9190610735565b9050806000036105bf575050601d5490565b601b5481906105cc6104ad565b6105d6919061070c565b601c546105e3919061074e565b6105f590670de0b6b3a764000061074e565b6105ff9190610765565b601d5461060c9190610787565b91505090565b7fc8fcad8db84d3cc18b4c41d551ea0ee66dd599cde068d998e57d5e09332c131c600401546001600160a01b031633146106995760405162461bcd60e51b815260206004820152602260248201527f4c69624469616d6f6e643a204d75737420626520636f6e7472616374206f776e60448201526132b960f11b60648201526084016102b6565b565b6000818311156106ab57816106ad565b825b9392505050565b6000602082840312156106c657600080fd5b81356001600160a01b03811681146106ad57600080fd5b6000602082840312156106ef57600080fd5b5035919050565b634e487b7160e01b600052601160045260246000fd5b818103818111156101b3576101b36106f6565b634e487b7160e01b600052603260045260246000fd5b60006020828403121561074757600080fd5b5051919050565b80820281158282048414176101b3576101b36106f6565b60008261078257634e487b7160e01b600052601260045260246000fd5b500490565b808201808211156101b3576101b36106f6565b6000602082840312156107ac57600080fd5b815180151581146106ad57600080fdfea264697066735822122003b7ee055a0b81bb4a0849ae7a5b7f8c1d789526aa1feb52a1d4cd997a5ad72a64736f6c63430008150033",
    "linkReferences": {}
  },
  "methodIdentifiers": {
    "earned(address)": "008cc262",
    "getReward()": "3d18b912",
    "lastTimeRewardApplicable()": "80faa57d",
    "notifyRewardAmount(uint256)": "3c6b16ab",
    "rewardPerToken()": "cd3daf9d",
    "setRewardsDuration(uint256)": "cc1a378f"
  },
  "id": 5
}