{
  "abi": [
    {
      "inputs": [],
      "name": "OZL",
      "outputs": [
        {
          "internalType": "contract IERC20Permit",
          "name": "",
          "type": "address"
        }
      ],
      "stateMutability": "view",
      "type": "function"
    },
    {
      "inputs": [],
      "name": "duration",
      "outputs": [
        {
          "internalType": "uint256",
          "name": "",
          "type": "uint256"
        }
      ],
      "stateMutability": "view",
      "type": "function"
    },
    {
      "inputs": [],
      "name": "finishAt",
      "outputs": [
        {
          "internalType": "uint256",
          "name": "",
          "type": "uint256"
        }
      ],
      "stateMutability": "view",
      "type": "function"
    },
    {
      "inputs": [],
      "name": "owner",
      "outputs": [
        {
          "internalType": "address",
          "name": "",
          "type": "address"
        }
      ],
      "stateMutability": "view",
      "type": "function"
    },
    {
      "inputs": [],
      "name": "rewardPerTokenStored",
      "outputs": [
        {
          "internalType": "uint256",
          "name": "",
          "type": "uint256"
        }
      ],
      "stateMutability": "view",
      "type": "function"
    },
    {
      "inputs": [],
      "name": "rewardRate",
      "outputs": [
        {
          "internalType": "uint256",
          "name": "",
          "type": "uint256"
        }
      ],
      "stateMutability": "view",
      "type": "function"
    },
    {
      "inputs": [],
      "name": "stable",
      "outputs": [
        {
          "internalType": "contract IERC20Permit",
          "name": "",
          "type": "address"
        }
      ],
      "stateMutability": "view",
      "type": "function"
    },
    {
      "inputs": [],
      "name": "updatedAt",
      "outputs": [
        {
          "internalType": "uint256",
          "name": "",
          "type": "uint256"
        }
      ],
      "stateMutability": "view",
      "type": "function"
    },
    {
      "inputs": [
        {
          "internalType": "address",
          "name": "user",
          "type": "address"
        }
      ],
      "name": "userRewardPerTokenPaid",
      "outputs": [
        {
          "internalType": "uint256",
          "name": "rewardPerTokenStoredPerUser",
          "type": "uint256"
        }
      ],
      "stateMutability": "view",
      "type": "function"
    }
  ],
  "bytecode": {
    "object": "0x60c060405234801561001057600080fd5b5060805160a0516101d761003560003960006101460152600060b901526101d76000f3fe608060405234801561001057600080fd5b50600436106100935760003560e01c80637b0a47ee116100665780637b0a47ee146101055780638b8763471461010e5780638da5cb5b1461012e578063d1f1a8c214610141578063df136d651461016857600080fd5b80630fb5a6b41461009857806322be3de1146100b457806367d3b488146100f35780637519ab50146100fc575b600080fd5b6100a160015481565b6040519081526020015b60405180910390f35b6100db7f000000000000000000000000000000000000000000000000000000000000000081565b6040516001600160a01b0390911681526020016100ab565b6100a160025481565b6100a160035481565b6100a160045481565b6100a161011c366004610171565b60066020526000908152604090205481565b6000546100db906001600160a01b031681565b6100db7f000000000000000000000000000000000000000000000000000000000000000081565b6100a160055481565b60006020828403121561018357600080fd5b81356001600160a01b038116811461019a57600080fd5b939250505056fea2646970667358221220980df4b41deaa208de9c95a485ccb488cb93eca7390b05243b8f55980ab7e9a064736f6c63430008150033",
    "linkReferences": {}
  },
  "methodIdentifiers": {
    "OZL()": "d1f1a8c2",
    "duration()": "0fb5a6b4",
    "finishAt()": "67d3b488",
    "owner()": "8da5cb5b",
    "rewardPerTokenStored()": "df136d65",
    "rewardRate()": "7b0a47ee",
    "stable()": "22be3de1",
    "updatedAt()": "7519ab50",
    "userRewardPerTokenPaid(address)": "8b876347"
  },
  "id": 4
}