{
  "abi": [
    {
      "inputs": [],
      "name": "OZError15",
      "type": "error"
    },
    {
      "inputs": [],
      "name": "OZError16",
      "type": "error"
    },
    {
      "inputs": [],
      "name": "OZError17",
      "type": "error"
    },
    {
      "inputs": [
        {
          "internalType": "address",
          "name": "user_",
          "type": "address"
        }
      ],
      "name": "earned",
      "outputs": [
        {
          "internalType": "uint256",
          "name": "",
          "type": "uint256"
        }
      ],
      "stateMutability": "view",
      "type": "function"
    },
    {
      "inputs": [],
      "name": "getReward",
      "outputs": [],
      "stateMutability": "nonpayable",
      "type": "function"
    },
    {
      "inputs": [],
      "name": "getRewardRate",
      "outputs": [
        {
          "internalType": "uint256",
          "name": "",
          "type": "uint256"
        }
      ],
      "stateMutability": "view",
      "type": "function"
    },
    {
      "inputs": [],
      "name": "lastTimeRewardApplicable",
      "outputs": [
        {
          "internalType": "uint256",
          "name": "",
          "type": "uint256"
        }
      ],
      "stateMutability": "view",
      "type": "function"
    },
    {
      "inputs": [
        {
          "internalType": "uint256",
          "name": "amount_",
          "type": "uint256"
        }
      ],
      "name": "notifyRewardAmount",
      "outputs": [],
      "stateMutability": "nonpayable",
      "type": "function"
    },
    {
      "inputs": [],
      "name": "rewardPerToken",
      "outputs": [
        {
          "internalType": "uint256",
          "name": "",
          "type": "uint256"
        }
      ],
      "stateMutability": "view",
      "type": "function"
    },
    {
      "inputs": [
        {
          "internalType": "uint256",
          "name": "duration_",
          "type": "uint256"
        }
      ],
      "name": "setRewardsDuration",
      "outputs": [],
      "stateMutability": "nonpayable",
      "type": "function"
    }
  ],
  "bytecode": {
    "object": "0x608060405234801561001057600080fd5b50610795806100206000396000f3fe608060405234801561001057600080fd5b506004361061007c5760003560e01c80637e1a37861161005b5780637e1a3786146100c357806380faa57d146100cb578063cc1a378f146100d3578063cd3daf9d146100e657600080fd5b80628cc262146100815780633c6b16ab146100a65780633d18b912146100bb575b600080fd5b61009461008f366004610657565b6100ee565b60405190815260200160405180910390f35b6100b96100b4366004610680565b6101dc565b005b6100b9610375565b601c54610094565b61009461047b565b6100b96100e1366004610680565b610491565b6100946104c0565b6001600160a01b0381166000908152601f6020908152604080832054601e909252822054670de0b6b3a7640000906101246104c0565b61012e91906106af565b60018054600090610141576101416106c2565b6000918252602090912001546040516370a0823160e01b81526001600160a01b038781166004830152909116906370a0823190602401602060405180830381865afa158015610194573d6000803e3d6000fd5b505050506040513d601f19601f820116820180604052508101906101b891906106d8565b6101c291906106f1565b6101cc9190610708565b6101d6919061072a565b92915050565b60006101e66104c0565b601d556101f161047b565b601b556001600160a01b038116156102385761020c816100ee565b6001600160a01b0382166000908152601f6020908152604080832093909355601d54601e909152919020555b6102406105b1565b601a5442111561025f576019546102579083610708565b601c5561029c565b601a546000906102709042906106af565b601c5461027d91906106f1565b60195490915061028d848361072a565b6102979190610708565b601c55505b601c546102bc5760405163e92aa8bd60e01b815260040160405180910390fd5b6016546040516370a0823160e01b815230600482015263010000009091046001600160a01b0316906370a0823190602401602060405180830381865afa15801561030a573d6000803e3d6000fd5b505050506040513d601f19601f8201168201806040525081019061032e91906106d8565b601954601c5461033e91906106f1565b111561035d576040516311172c5560e11b815260040160405180910390fd5b60195461036a904261072a565b601a55505042601b55565b3361037e6104c0565b601d5561038961047b565b601b556001600160a01b038116156103d0576103a4816100ee565b6001600160a01b0382166000908152601f6020908152604080832093909355601d54601e909152919020555b336000908152601f6020526040902054801561047757336000818152601f602052604080822091909155601654905163a9059cbb60e01b8152600481019290925260248201839052630100000090046001600160a01b03169063a9059cbb906044016020604051808303816000875af1158015610451573d6000803e3d6000fd5b505050506040513d601f19601f82011682018060405250810190610475919061073d565b505b5050565b601a5460009061048c90429061063e565b905090565b6104996105b1565b601a5442116104bb576040516314e75c8960e11b815260040160405180910390fd5b601955565b60008060006001016000815481106104da576104da6106c2565b60009182526020918290200154604080516318160ddd60e01b815290516001600160a01b03909216926318160ddd926004808401938290030181865afa158015610528573d6000803e3d6000fd5b505050506040513d601f19601f8201168201806040525081019061054c91906106d8565b90508060000361055e575050601d5490565b601b54819061056b61047b565b61057591906106af565b601c5461058291906106f1565b61059490670de0b6b3a76400006106f1565b61059e9190610708565b601d546105ab919061072a565b91505090565b7fc8fcad8db84d3cc18b4c41d551ea0ee66dd599cde068d998e57d5e09332c131c600401546001600160a01b0316331461063c5760405162461bcd60e51b815260206004820152602260248201527f4c69624469616d6f6e643a204d75737420626520636f6e7472616374206f776e60448201526132b960f11b606482015260840160405180910390fd5b565b60008183111561064e5781610650565b825b9392505050565b60006020828403121561066957600080fd5b81356001600160a01b038116811461065057600080fd5b60006020828403121561069257600080fd5b5035919050565b634e487b7160e01b600052601160045260246000fd5b818103818111156101d6576101d6610699565b634e487b7160e01b600052603260045260246000fd5b6000602082840312156106ea57600080fd5b5051919050565b80820281158282048414176101d6576101d6610699565b60008261072557634e487b7160e01b600052601260045260246000fd5b500490565b808201808211156101d6576101d6610699565b60006020828403121561074f57600080fd5b8151801515811461065057600080fdfea26469706673582212202a6daa464021857bfa8fea8a935ccacfe5b1e72074b200b42ae2b72c8f47900f64736f6c63430008150033",
    "linkReferences": {}
  },
  "methodIdentifiers": {
    "earned(address)": "008cc262",
    "getReward()": "3d18b912",
    "getRewardRate()": "7e1a3786",
    "lastTimeRewardApplicable()": "80faa57d",
    "notifyRewardAmount(uint256)": "3c6b16ab",
    "rewardPerToken()": "cd3daf9d",
    "setRewardsDuration(uint256)": "cc1a378f"
  },
  "id": 5
}