{
  "abi": [
    {
      "inputs": [],
      "name": "OZError15",
      "type": "error"
    },
    {
      "inputs": [],
      "name": "OZError16",
      "type": "error"
    },
    {
      "inputs": [],
      "name": "OZError17",
      "type": "error"
    },
    {
      "inputs": [],
      "name": "claimReward",
      "outputs": [
        {
          "internalType": "uint256",
          "name": "",
          "type": "uint256"
        }
      ],
      "stateMutability": "nonpayable",
      "type": "function"
    },
    {
      "inputs": [],
      "name": "durationLeft",
      "outputs": [
        {
          "internalType": "int256",
          "name": "",
          "type": "int256"
        }
      ],
      "stateMutability": "view",
      "type": "function"
    },
    {
      "inputs": [
        {
          "internalType": "address",
          "name": "user_",
          "type": "address"
        }
      ],
      "name": "earned",
      "outputs": [
        {
          "internalType": "uint256",
          "name": "",
          "type": "uint256"
        }
      ],
      "stateMutability": "view",
      "type": "function"
    },
    {
      "inputs": [],
      "name": "getCirculatingSupply",
      "outputs": [
        {
          "internalType": "uint256",
          "name": "",
          "type": "uint256"
        }
      ],
      "stateMutability": "view",
      "type": "function"
    },
    {
      "inputs": [],
      "name": "getRecicledSupply",
      "outputs": [
        {
          "internalType": "uint256",
          "name": "",
          "type": "uint256"
        }
      ],
      "stateMutability": "view",
      "type": "function"
    },
    {
      "inputs": [],
      "name": "getRewardRate",
      "outputs": [
        {
          "internalType": "uint256",
          "name": "",
          "type": "uint256"
        }
      ],
      "stateMutability": "view",
      "type": "function"
    },
    {
      "inputs": [],
      "name": "lastTimeRewardApplicable",
      "outputs": [
        {
          "internalType": "uint256",
          "name": "",
          "type": "uint256"
        }
      ],
      "stateMutability": "view",
      "type": "function"
    },
    {
      "inputs": [
        {
          "internalType": "uint256",
          "name": "ozlAmount_",
          "type": "uint256"
        }
      ],
      "name": "modifySupply",
      "outputs": [],
      "stateMutability": "nonpayable",
      "type": "function"
    },
    {
      "inputs": [
        {
          "internalType": "uint256",
          "name": "amount_",
          "type": "uint256"
        }
      ],
      "name": "notifyRewardAmount",
      "outputs": [],
      "stateMutability": "nonpayable",
      "type": "function"
    },
    {
      "inputs": [],
      "name": "pendingAllocation",
      "outputs": [
        {
          "internalType": "uint256",
          "name": "",
          "type": "uint256"
        }
      ],
      "stateMutability": "view",
      "type": "function"
    },
    {
      "inputs": [],
      "name": "rewardPerToken",
      "outputs": [
        {
          "internalType": "uint256",
          "name": "",
          "type": "uint256"
        }
      ],
      "stateMutability": "view",
      "type": "function"
    },
    {
      "inputs": [
        {
          "internalType": "address",
          "name": "user_",
          "type": "address"
        }
      ],
      "name": "setRewardsDataExternally",
      "outputs": [],
      "stateMutability": "nonpayable",
      "type": "function"
    },
    {
      "inputs": [
        {
          "internalType": "uint256",
          "name": "duration_",
          "type": "uint256"
        }
      ],
      "name": "setRewardsDuration",
      "outputs": [],
      "stateMutability": "nonpayable",
      "type": "function"
    },
    {
      "inputs": [
        {
          "internalType": "uint256",
          "name": "duration_",
          "type": "uint256"
        }
      ],
      "name": "startNewReciclingCampaign",
      "outputs": [],
      "stateMutability": "nonpayable",
      "type": "function"
    }
  ],
  "bytecode": {
    "object": "0x608060405234801561001057600080fd5b506109ce806100206000396000f3fe608060405234801561001057600080fd5b50600436106100e95760003560e01c806380faa57d1161008c578063c28cd66d11610066578063c28cd66d14610173578063c3ae3a0914610186578063cc1a378f14610199578063cd3daf9d146101ac57600080fd5b806380faa57d1461015b5780638f39054814610163578063b88a802f1461016b57600080fd5b80633c6b16ab116100c85780633c6b16ab14610130578063533a386c146101435780636a533a4c1461014b5780637e1a37861461015357600080fd5b80628cc262146100ee578063020ff618146101135780632b112e4914610128575b600080fd5b6101016100fc366004610869565b6101b4565b60405190815260200160405180910390f35b610126610121366004610869565b6102a0565b005b601d54610101565b61012661013e366004610892565b6102eb565b610101610484565b601e54610101565b601b54610101565b61010161049a565b6101016104ab565b61010161052d565b610126610181366004610892565b61064f565b610126610194366004610892565b61066c565b6101266101a7366004610892565b6106a3565b6101016106d2565b6001600160a01b03811660009081526020808052604080832054601f909252822054670de0b6b3a7640000906101e86106d2565b6101f291906108c1565b60018054600090610205576102056108d4565b6000918252602090912001546040516370a0823160e01b81526001600160a01b038781166004830152909116906370a0823190602401602060405180830381865afa158015610258573d6000803e3d6000fd5b505050506040513d601f19601f8201168201806040525081019061027c91906108ea565b6102869190610903565b610290919061091a565b61029a919061093c565b92915050565b6102a86106d2565b601c556102b361049a565b601a556102bf816101b4565b6001600160a01b0390911660009081526020808052604080832093909355601c54601f90915291902055565b6000806102f66106d2565b601c5561030161049a565b601a556001600160a01b038216156103465761031c826101b4565b6001600160a01b03831660009081526020808052604080832093909355601c54601f909152919020555b61034e6107c3565b60195442111561036d57601854610365908461091a565b601b556103aa565b60195460009061037e9042906108c1565b601b5461038b9190610903565b60185490915061039b858361093c565b6103a5919061091a565b601b55505b601b546103ca5760405163e92aa8bd60e01b815260040160405180910390fd5b6015546040516370a0823160e01b815230600482015263010000009091046001600160a01b0316906370a0823190602401602060405180830381865afa158015610418573d6000803e3d6000fd5b505050506040513d601f19601f8201168201806040525081019061043c91906108ea565b601854601b5461044c9190610903565b111561046b576040516311172c5560e11b815260040160405180910390fd5b601854610478904261093c565b601955505042601a5550565b60195460009061049590429061094f565b905090565b601954600090610495904290610850565b601e546015546040516370a0823160e01b815230600482015260009291630100000090046001600160a01b0316906370a0823190602401602060405180830381865afa1580156104ff573d6000803e3d6000fd5b505050506040513d601f19601f8201168201806040525081019061052391906108ea565b61049591906108c1565b600033816105396106d2565b601c5561054461049a565b601a556001600160a01b038216156105895761055f826101b4565b6001600160a01b03831660009081526020808052604080832093909355601c54601f909152919020555b33600090815260208052604090205480156106485733600081815260208052604080822091909155601554905163a9059cbb60e01b8152600481019290925260248201839052630100000090046001600160a01b03169063a9059cbb906044016020604051808303816000875af1158015610608573d6000803e3d6000fd5b505050506040513d601f19601f8201168201806040525081019061062c9190610976565b50601d805482919060009061064290849061093c565b90915550505b9250505090565b610658816106a3565b601e54610664906102eb565b506000601e55565b601d80548291906000906106819084906108c1565b9091555050601e805482919060009061069b90849061093c565b909155505050565b6106ab6107c3565b60195442116106cd576040516314e75c8960e11b815260040160405180910390fd5b601855565b60008060006001016000815481106106ec576106ec6108d4565b60009182526020918290200154604080516318160ddd60e01b815290516001600160a01b03909216926318160ddd926004808401938290030181865afa15801561073a573d6000803e3d6000fd5b505050506040513d601f19601f8201168201806040525081019061075e91906108ea565b905080600003610770575050601c5490565b601a54819061077d61049a565b61078791906108c1565b601b546107949190610903565b6107a690670de0b6b3a7640000610903565b6107b0919061091a565b601c546107bd919061093c565b91505090565b7fc8fcad8db84d3cc18b4c41d551ea0ee66dd599cde068d998e57d5e09332c131c600401546001600160a01b0316331461084e5760405162461bcd60e51b815260206004820152602260248201527f4c69624469616d6f6e643a204d75737420626520636f6e7472616374206f776e60448201526132b960f11b606482015260840160405180910390fd5b565b6000818311156108605781610862565b825b9392505050565b60006020828403121561087b57600080fd5b81356001600160a01b038116811461086257600080fd5b6000602082840312156108a457600080fd5b5035919050565b634e487b7160e01b600052601160045260246000fd5b8181038181111561029a5761029a6108ab565b634e487b7160e01b600052603260045260246000fd5b6000602082840312156108fc57600080fd5b5051919050565b808202811582820484141761029a5761029a6108ab565b60008261093757634e487b7160e01b600052601260045260246000fd5b500490565b8082018082111561029a5761029a6108ab565b818103600083128015838313168383128216171561096f5761096f6108ab565b5092915050565b60006020828403121561098857600080fd5b8151801515811461086257600080fdfea2646970667358221220739908fe77f9a753d9ebfda56a6104b55d6bc5e7e09526e97dc9c46d7c962b5564736f6c63430008150033",
    "linkReferences": {}
  },
  "methodIdentifiers": {
    "claimReward()": "b88a802f",
    "durationLeft()": "533a386c",
    "earned(address)": "008cc262",
    "getCirculatingSupply()": "2b112e49",
    "getRecicledSupply()": "6a533a4c",
    "getRewardRate()": "7e1a3786",
    "lastTimeRewardApplicable()": "80faa57d",
    "modifySupply(uint256)": "c3ae3a09",
    "notifyRewardAmount(uint256)": "3c6b16ab",
    "pendingAllocation()": "8f390548",
    "rewardPerToken()": "cd3daf9d",
    "setRewardsDataExternally(address)": "020ff618",
    "setRewardsDuration(uint256)": "cc1a378f",
    "startNewReciclingCampaign(uint256)": "c28cd66d"
  },
  "id": 5
}