{
  "abi": [
    {
      "inputs": [],
      "name": "OZError15",
      "type": "error"
    },
    {
      "inputs": [],
      "name": "OZError16",
      "type": "error"
    },
    {
      "inputs": [],
      "name": "OZError17",
      "type": "error"
    },
    {
      "inputs": [],
      "name": "claimReward",
      "outputs": [
        {
          "internalType": "uint256",
          "name": "",
          "type": "uint256"
        }
      ],
      "stateMutability": "nonpayable",
      "type": "function"
    },
    {
      "inputs": [],
      "name": "durationLeft",
      "outputs": [
        {
          "internalType": "int256",
          "name": "",
          "type": "int256"
        }
      ],
      "stateMutability": "view",
      "type": "function"
    },
    {
      "inputs": [
        {
          "internalType": "address",
          "name": "user_",
          "type": "address"
        }
      ],
      "name": "earned",
      "outputs": [
        {
          "internalType": "uint256",
          "name": "",
          "type": "uint256"
        }
      ],
      "stateMutability": "view",
      "type": "function"
    },
    {
      "inputs": [],
      "name": "getCirculatingSupply",
      "outputs": [
        {
          "internalType": "uint256",
          "name": "",
          "type": "uint256"
        }
      ],
      "stateMutability": "view",
      "type": "function"
    },
    {
      "inputs": [],
      "name": "getRecicledSupply",
      "outputs": [
        {
          "internalType": "uint256",
          "name": "",
          "type": "uint256"
        }
      ],
      "stateMutability": "view",
      "type": "function"
    },
    {
      "inputs": [],
      "name": "getRewardRate",
      "outputs": [
        {
          "internalType": "uint256",
          "name": "",
          "type": "uint256"
        }
      ],
      "stateMutability": "view",
      "type": "function"
    },
    {
      "inputs": [],
      "name": "lastTimeRewardApplicable",
      "outputs": [
        {
          "internalType": "uint256",
          "name": "",
          "type": "uint256"
        }
      ],
      "stateMutability": "view",
      "type": "function"
    },
    {
      "inputs": [
        {
          "internalType": "uint256",
          "name": "ozlAmount_",
          "type": "uint256"
        }
      ],
      "name": "modifySupply",
      "outputs": [],
      "stateMutability": "nonpayable",
      "type": "function"
    },
    {
      "inputs": [
        {
          "internalType": "uint256",
          "name": "amount_",
          "type": "uint256"
        }
      ],
      "name": "notifyRewardAmount",
      "outputs": [],
      "stateMutability": "nonpayable",
      "type": "function"
    },
    {
      "inputs": [],
      "name": "pendingAllocation",
      "outputs": [
        {
          "internalType": "uint256",
          "name": "",
          "type": "uint256"
        }
      ],
      "stateMutability": "view",
      "type": "function"
    },
    {
      "inputs": [],
      "name": "rewardPerToken",
      "outputs": [
        {
          "internalType": "uint256",
          "name": "",
          "type": "uint256"
        }
      ],
      "stateMutability": "view",
      "type": "function"
    },
    {
      "inputs": [
        {
          "internalType": "address",
          "name": "user_",
          "type": "address"
        }
      ],
      "name": "setRewardsDataExternally",
      "outputs": [],
      "stateMutability": "nonpayable",
      "type": "function"
    },
    {
      "inputs": [
        {
          "internalType": "uint256",
          "name": "duration_",
          "type": "uint256"
        }
      ],
      "name": "setRewardsDuration",
      "outputs": [],
      "stateMutability": "nonpayable",
      "type": "function"
    },
    {
      "inputs": [
        {
          "internalType": "uint256",
          "name": "duration_",
          "type": "uint256"
        }
      ],
      "name": "startNewReciclingCampaign",
      "outputs": [],
      "stateMutability": "nonpayable",
      "type": "function"
    }
  ],
  "bytecode": {
    "object": "0x608060405234801561001057600080fd5b50610977806100206000396000f3fe608060405234801561001057600080fd5b50600436106100e95760003560e01c806380faa57d1161008c578063c28cd66d11610066578063c28cd66d14610171578063c3ae3a0914610184578063cc1a378f14610197578063cd3daf9d146101aa57600080fd5b806380faa57d146101595780638f39054814610161578063b88a802f1461016957600080fd5b80633c6b16ab116100c85780633c6b16ab1461012e578063533a386c146101415780636a533a4c146101495780637e1a37861461015157600080fd5b80628cc262146100ee578063020ff618146101135780632b112e4914610126575b600080fd5b6101016100fc366004610812565b6101b2565b60405190815260200160405180910390f35b610124610121366004610812565b50565b005b601d54610101565b61012461013c36600461083b565b61029e565b610101610435565b601e54610101565b601b54610101565b61010161044b565b61010161045c565b6101016104de565b61012461017f36600461083b565b6105fe565b61012461019236600461083b565b61061b565b6101246101a536600461083b565b610652565b610101610681565b6001600160a01b03811660009081526020808052604080832054601f909252822054670de0b6b3a7640000906101e6610681565b6101f0919061086a565b600180546000906102035761020361087d565b6000918252602090912001546040516370a0823160e01b81526001600160a01b038781166004830152909116906370a0823190602401602060405180830381865afa158015610256573d6000803e3d6000fd5b505050506040513d601f19601f8201168201806040525081019061027a9190610893565b61028491906108ac565b61028e91906108c3565b61029891906108e5565b92915050565b60006102a8610681565b601c556102b361044b565b601a556001600160a01b038116156102f8576102ce816101b2565b6001600160a01b03821660009081526020808052604080832093909355601c54601f909152919020555b61030061076c565b60195442111561031f5760185461031790836108c3565b601b5561035c565b60195460009061033090429061086a565b601b5461033d91906108ac565b60185490915061034d84836108e5565b61035791906108c3565b601b55505b601b5461037c5760405163e92aa8bd60e01b815260040160405180910390fd5b6015546040516370a0823160e01b815230600482015263010000009091046001600160a01b0316906370a0823190602401602060405180830381865afa1580156103ca573d6000803e3d6000fd5b505050506040513d601f19601f820116820180604052508101906103ee9190610893565b601854601b546103fe91906108ac565b111561041d576040516311172c5560e11b815260040160405180910390fd5b60185461042a90426108e5565b601955505042601a55565b6019546000906104469042906108f8565b905090565b6019546000906104469042906107f9565b601e546015546040516370a0823160e01b815230600482015260009291630100000090046001600160a01b0316906370a0823190602401602060405180830381865afa1580156104b0573d6000803e3d6000fd5b505050506040513d601f19601f820116820180604052508101906104d49190610893565b610446919061086a565b6000336104e9610681565b601c556104f461044b565b601a556001600160a01b038116156105395761050f816101b2565b6001600160a01b03821660009081526020808052604080832093909355601c54601f909152919020555b33600090815260208052604090205480156105f85733600081815260208052604080822091909155601554905163a9059cbb60e01b8152600481019290925260248201839052630100000090046001600160a01b03169063a9059cbb906044016020604051808303816000875af11580156105b8573d6000803e3d6000fd5b505050506040513d601f19601f820116820180604052508101906105dc919061091f565b50601d80548291906000906105f29084906108e5565b90915550505b91505090565b61060781610652565b601e546106139061029e565b506000601e55565b601d805482919060009061063090849061086a565b9091555050601e805482919060009061064a9084906108e5565b909155505050565b61065a61076c565b601954421161067c576040516314e75c8960e11b815260040160405180910390fd5b601855565b600080600060010160008154811061069b5761069b61087d565b60009182526020918290200154604080516318160ddd60e01b815290516001600160a01b03909216926318160ddd926004808401938290030181865afa1580156106e9573d6000803e3d6000fd5b505050506040513d601f19601f8201168201806040525081019061070d9190610893565b90508060000361071f575050601c5490565b601a54819061072c61044b565b610736919061086a565b601b5461074391906108ac565b61075590670de0b6b3a76400006108ac565b61075f91906108c3565b601c546105f891906108e5565b7fc8fcad8db84d3cc18b4c41d551ea0ee66dd599cde068d998e57d5e09332c131c600401546001600160a01b031633146107f75760405162461bcd60e51b815260206004820152602260248201527f4c69624469616d6f6e643a204d75737420626520636f6e7472616374206f776e60448201526132b960f11b606482015260840160405180910390fd5b565b600081831115610809578161080b565b825b9392505050565b60006020828403121561082457600080fd5b81356001600160a01b038116811461080b57600080fd5b60006020828403121561084d57600080fd5b5035919050565b634e487b7160e01b600052601160045260246000fd5b8181038181111561029857610298610854565b634e487b7160e01b600052603260045260246000fd5b6000602082840312156108a557600080fd5b5051919050565b808202811582820484141761029857610298610854565b6000826108e057634e487b7160e01b600052601260045260246000fd5b500490565b8082018082111561029857610298610854565b818103600083128015838313168383128216171561091857610918610854565b5092915050565b60006020828403121561093157600080fd5b8151801515811461080b57600080fdfea264697066735822122064b1b11db6d3906991719f20ce6c66a9ad1a021e088ed295f9290304385c6f5264736f6c63430008150033",
    "linkReferences": {}
  },
  "methodIdentifiers": {
    "claimReward()": "b88a802f",
    "durationLeft()": "533a386c",
    "earned(address)": "008cc262",
    "getCirculatingSupply()": "2b112e49",
    "getRecicledSupply()": "6a533a4c",
    "getRewardRate()": "7e1a3786",
    "lastTimeRewardApplicable()": "80faa57d",
    "modifySupply(uint256)": "c3ae3a09",
    "notifyRewardAmount(uint256)": "3c6b16ab",
    "pendingAllocation()": "8f390548",
    "rewardPerToken()": "cd3daf9d",
    "setRewardsDataExternally(address)": "020ff618",
    "setRewardsDuration(uint256)": "cc1a378f",
    "startNewReciclingCampaign(uint256)": "c28cd66d"
  },
  "id": 5
}