{
  "abi": [
    {
      "inputs": [],
      "name": "OZError15",
      "type": "error"
    },
    {
      "inputs": [],
      "name": "OZError16",
      "type": "error"
    },
    {
      "inputs": [],
      "name": "OZError17",
      "type": "error"
    },
    {
      "inputs": [],
      "name": "claimReward",
      "outputs": [
        {
          "internalType": "uint256",
          "name": "",
          "type": "uint256"
        }
      ],
      "stateMutability": "nonpayable",
      "type": "function"
    },
    {
      "inputs": [],
      "name": "durationLeft",
      "outputs": [
        {
          "internalType": "int256",
          "name": "",
          "type": "int256"
        }
      ],
      "stateMutability": "view",
      "type": "function"
    },
    {
      "inputs": [
        {
          "internalType": "address",
          "name": "user_",
          "type": "address"
        }
      ],
      "name": "earned",
      "outputs": [
        {
          "internalType": "uint256",
          "name": "",
          "type": "uint256"
        }
      ],
      "stateMutability": "view",
      "type": "function"
    },
    {
      "inputs": [],
      "name": "getCirculatingSupply",
      "outputs": [
        {
          "internalType": "uint256",
          "name": "",
          "type": "uint256"
        }
      ],
      "stateMutability": "view",
      "type": "function"
    },
    {
      "inputs": [],
      "name": "getRecicledSupply",
      "outputs": [
        {
          "internalType": "uint256",
          "name": "",
          "type": "uint256"
        }
      ],
      "stateMutability": "view",
      "type": "function"
    },
    {
      "inputs": [],
      "name": "getRewardRate",
      "outputs": [
        {
          "internalType": "uint256",
          "name": "",
          "type": "uint256"
        }
      ],
      "stateMutability": "view",
      "type": "function"
    },
    {
      "inputs": [],
      "name": "lastTimeRewardApplicable",
      "outputs": [
        {
          "internalType": "uint256",
          "name": "",
          "type": "uint256"
        }
      ],
      "stateMutability": "view",
      "type": "function"
    },
    {
      "inputs": [
        {
          "internalType": "uint256",
          "name": "ozlAmount_",
          "type": "uint256"
        }
      ],
      "name": "modifySupply",
      "outputs": [],
      "stateMutability": "nonpayable",
      "type": "function"
    },
    {
      "inputs": [
        {
          "internalType": "uint256",
          "name": "amount_",
          "type": "uint256"
        }
      ],
      "name": "notifyRewardAmount",
      "outputs": [],
      "stateMutability": "nonpayable",
      "type": "function"
    },
    {
      "inputs": [],
      "name": "pendingAllocation",
      "outputs": [
        {
          "internalType": "uint256",
          "name": "",
          "type": "uint256"
        }
      ],
      "stateMutability": "view",
      "type": "function"
    },
    {
      "inputs": [],
      "name": "rewardPerToken",
      "outputs": [
        {
          "internalType": "uint256",
          "name": "",
          "type": "uint256"
        }
      ],
      "stateMutability": "view",
      "type": "function"
    },
    {
      "inputs": [
        {
          "internalType": "uint256",
          "name": "duration_",
          "type": "uint256"
        }
      ],
      "name": "setRewardsDuration",
      "outputs": [],
      "stateMutability": "nonpayable",
      "type": "function"
    },
    {
      "inputs": [
        {
          "internalType": "uint256",
          "name": "duration_",
          "type": "uint256"
        }
      ],
      "name": "startNewReciclingCampaign",
      "outputs": [],
      "stateMutability": "nonpayable",
      "type": "function"
    }
  ],
  "bytecode": {
    "object": "0x608060405234801561001057600080fd5b5061094d806100206000396000f3fe608060405234801561001057600080fd5b50600436106100ce5760003560e01c806380faa57d1161008c578063c28cd66d11610066578063c28cd66d14610145578063c3ae3a0914610158578063cc1a378f1461016b578063cd3daf9d1461017e57600080fd5b806380faa57d1461012d5780638f39054814610135578063b88a802f1461013d57600080fd5b80628cc262146100d35780632b112e49146100f85780633c6b16ab14610100578063533a386c146101155780636a533a4c1461011d5780637e1a378614610125575b600080fd5b6100e66100e13660046107e8565b610186565b60405190815260200160405180910390f35b601e546100e6565b61011361010e366004610811565b610272565b005b6100e6610409565b601f546100e6565b601c546100e6565b6100e661041f565b6100e6610430565b6100e66104b2565b610113610153366004610811565b6105d4565b610113610166366004610811565b6105f1565b610113610179366004610811565b610628565b6100e6610657565b6001600160a01b038116600090815260216020908152604080832054918052822054670de0b6b3a7640000906101ba610657565b6101c49190610840565b600180546000906101d7576101d7610853565b6000918252602090912001546040516370a0823160e01b81526001600160a01b038781166004830152909116906370a0823190602401602060405180830381865afa15801561022a573d6000803e3d6000fd5b505050506040513d601f19601f8201168201806040525081019061024e9190610869565b6102589190610882565b6102629190610899565b61026c91906108bb565b92915050565b600061027c610657565b601d5561028761041f565b601b556001600160a01b038116156102cc576102a281610186565b6001600160a01b038216600090815260216020908152604080832093909355601d54908052919020555b6102d4610742565b601a544211156102f3576019546102eb9083610899565b601c55610330565b601a54600090610304904290610840565b601c546103119190610882565b60195490915061032184836108bb565b61032b9190610899565b601c55505b601c546103505760405163e92aa8bd60e01b815260040160405180910390fd5b6016546040516370a0823160e01b815230600482015263010000009091046001600160a01b0316906370a0823190602401602060405180830381865afa15801561039e573d6000803e3d6000fd5b505050506040513d601f19601f820116820180604052508101906103c29190610869565b601954601c546103d29190610882565b11156103f1576040516311172c5560e11b815260040160405180910390fd5b6019546103fe90426108bb565b601a55505042601b55565b601a5460009061041a9042906108ce565b905090565b601a5460009061041a9042906107cf565b601f546016546040516370a0823160e01b815230600482015260009291630100000090046001600160a01b0316906370a0823190602401602060405180830381865afa158015610484573d6000803e3d6000fd5b505050506040513d601f19601f820116820180604052508101906104a89190610869565b61041a9190610840565b6000336104bd610657565b601d556104c861041f565b601b556001600160a01b0381161561050d576104e381610186565b6001600160a01b038216600090815260216020908152604080832093909355601d54908052919020555b3360009081526021602052604090205480156105ce573360008181526021602052604080822091909155601654905163a9059cbb60e01b8152600481019290925260248201839052630100000090046001600160a01b03169063a9059cbb906044016020604051808303816000875af115801561058e573d6000803e3d6000fd5b505050506040513d601f19601f820116820180604052508101906105b291906108f5565b50601e80548291906000906105c89084906108bb565b90915550505b91505090565b6105dd81610628565b601f546105e990610272565b506000601f55565b601e8054829190600090610606908490610840565b9091555050601f80548291906000906106209084906108bb565b909155505050565b610630610742565b601a544211610652576040516314e75c8960e11b815260040160405180910390fd5b601955565b600080600060010160008154811061067157610671610853565b60009182526020918290200154604080516318160ddd60e01b815290516001600160a01b03909216926318160ddd926004808401938290030181865afa1580156106bf573d6000803e3d6000fd5b505050506040513d601f19601f820116820180604052508101906106e39190610869565b9050806000036106f5575050601d5490565b601b54819061070261041f565b61070c9190610840565b601c546107199190610882565b61072b90670de0b6b3a7640000610882565b6107359190610899565b601d546105ce91906108bb565b7fc8fcad8db84d3cc18b4c41d551ea0ee66dd599cde068d998e57d5e09332c131c600401546001600160a01b031633146107cd5760405162461bcd60e51b815260206004820152602260248201527f4c69624469616d6f6e643a204d75737420626520636f6e7472616374206f776e60448201526132b960f11b606482015260840160405180910390fd5b565b6000818311156107df57816107e1565b825b9392505050565b6000602082840312156107fa57600080fd5b81356001600160a01b03811681146107e157600080fd5b60006020828403121561082357600080fd5b5035919050565b634e487b7160e01b600052601160045260246000fd5b8181038181111561026c5761026c61082a565b634e487b7160e01b600052603260045260246000fd5b60006020828403121561087b57600080fd5b5051919050565b808202811582820484141761026c5761026c61082a565b6000826108b657634e487b7160e01b600052601260045260246000fd5b500490565b8082018082111561026c5761026c61082a565b81810360008312801583831316838312821617156108ee576108ee61082a565b5092915050565b60006020828403121561090757600080fd5b815180151581146107e157600080fdfea2646970667358221220da5e2186561844c2c5822a733a687d172e993f54474bf549c3df489f2f70fa8964736f6c63430008150033",
    "linkReferences": {}
  },
  "methodIdentifiers": {
    "claimReward()": "b88a802f",
    "durationLeft()": "533a386c",
    "earned(address)": "008cc262",
    "getCirculatingSupply()": "2b112e49",
    "getRecicledSupply()": "6a533a4c",
    "getRewardRate()": "7e1a3786",
    "lastTimeRewardApplicable()": "80faa57d",
    "modifySupply(uint256)": "c3ae3a09",
    "notifyRewardAmount(uint256)": "3c6b16ab",
    "pendingAllocation()": "8f390548",
    "rewardPerToken()": "cd3daf9d",
    "setRewardsDuration(uint256)": "cc1a378f",
    "startNewReciclingCampaign(uint256)": "c28cd66d"
  },
  "id": 5
}