{"abi":[{"type":"function","name":"observe","inputs":[{"name":"secondsAgos","type":"uint32[]","internalType":"uint32[]"}],"outputs":[{"name":"tickCumulatives","type":"int56[]","internalType":"int56[]"},{"name":"secondsPerLiquidityCumulativeX128s","type":"uint160[]","internalType":"uint160[]"}],"stateMutability":"view"}],"bytecode":{"object":"0x608060405234801561001057600080fd5b5061020d806100206000396000f3fe608060405234801561001057600080fd5b506004361061002b5760003560e01c8063883bdbfd14610030575b600080fd5b61004361003e3660046100c5565b61005a565b60405161005192919061013a565b60405180910390f35b60608082156100be5764066f788a128260008151811061007c5761007c6101c1565b602002602001019060060b908160060b8152505064066f8f6b1a826001815181106100a9576100a96101c1565b602002602001019060060b908160060b815250505b9250929050565b600080602083850312156100d857600080fd5b823567ffffffffffffffff808211156100f057600080fd5b818501915085601f83011261010457600080fd5b81358181111561011357600080fd5b8660208260051b850101111561012857600080fd5b60209290920196919550909350505050565b604080825283519082018190526000906020906060840190828701845b8281101561017657815160060b84529284019290840190600101610157565b5050508381038285015284518082528583019183019060005b818110156101b45783516001600160a01b03168352928401929184019160010161018f565b5090979650505050505050565b634e487b7160e01b600052603260045260246000fdfea264697066735822122015eeb175df278b5e2daa1ca7393d260e9d83a205aa6f54767bbe6312b6824e8464736f6c63430008150033","linkReferences":{}},"methodIdentifiers":{"observe(uint32[])":"883bdbfd"},"id":137}