{
  "abi": [
    {
      "anonymous": false,
      "inputs": [
        {
          "indexed": true,
          "internalType": "address",
          "name": "previousOwner",
          "type": "address"
        },
        {
          "indexed": true,
          "internalType": "address",
          "name": "newOwner",
          "type": "address"
        }
      ],
      "name": "OwnershipTransferred",
      "type": "event"
    },
    {
      "inputs": [
        {
          "internalType": "address",
          "name": "newAdmin_",
          "type": "address"
        }
      ],
      "name": "changeOZLadmin",
      "outputs": [],
      "stateMutability": "nonpayable",
      "type": "function"
    },
    {
      "inputs": [
        {
          "internalType": "address",
          "name": "newLogic_",
          "type": "address"
        }
      ],
      "name": "changeOZLlogic",
      "outputs": [],
      "stateMutability": "nonpayable",
      "type": "function"
    },
    {
      "inputs": [
        {
          "internalType": "address",
          "name": "newLogic_",
          "type": "address"
        },
        {
          "internalType": "bytes",
          "name": "data_",
          "type": "bytes"
        }
      ],
      "name": "changeOZLlogicAndCall",
      "outputs": [],
      "stateMutability": "nonpayable",
      "type": "function"
    },
    {
      "inputs": [
        {
          "internalType": "contract ITransparentUpgradeableProxy",
          "name": "proxy",
          "type": "address"
        },
        {
          "internalType": "address",
          "name": "newAdmin",
          "type": "address"
        }
      ],
      "name": "changeProxyAdmin",
      "outputs": [],
      "stateMutability": "nonpayable",
      "type": "function"
    },
    {
      "inputs": [],
      "name": "getOZL",
      "outputs": [
        {
          "internalType": "address",
          "name": "",
          "type": "address"
        }
      ],
      "stateMutability": "view",
      "type": "function"
    },
    {
      "inputs": [],
      "name": "getOZLadmin",
      "outputs": [
        {
          "internalType": "address",
          "name": "",
          "type": "address"
        }
      ],
      "stateMutability": "view",
      "type": "function"
    },
    {
      "inputs": [],
      "name": "getOZLlogic",
      "outputs": [
        {
          "internalType": "address",
          "name": "",
          "type": "address"
        }
      ],
      "stateMutability": "view",
      "type": "function"
    },
    {
      "inputs": [
        {
          "internalType": "contract ITransparentUpgradeableProxy",
          "name": "proxy",
          "type": "address"
        }
      ],
      "name": "getProxyAdmin",
      "outputs": [
        {
          "internalType": "address",
          "name": "",
          "type": "address"
        }
      ],
      "stateMutability": "view",
      "type": "function"
    },
    {
      "inputs": [
        {
          "internalType": "contract ITransparentUpgradeableProxy",
          "name": "proxy",
          "type": "address"
        }
      ],
      "name": "getProxyImplementation",
      "outputs": [
        {
          "internalType": "address",
          "name": "",
          "type": "address"
        }
      ],
      "stateMutability": "view",
      "type": "function"
    },
    {
      "inputs": [],
      "name": "owner",
      "outputs": [
        {
          "internalType": "address",
          "name": "",
          "type": "address"
        }
      ],
      "stateMutability": "view",
      "type": "function"
    },
    {
      "inputs": [],
      "name": "renounceOwnership",
      "outputs": [],
      "stateMutability": "nonpayable",
      "type": "function"
    },
    {
      "inputs": [
        {
          "internalType": "address",
          "name": "newOwner",
          "type": "address"
        }
      ],
      "name": "transferOwnership",
      "outputs": [],
      "stateMutability": "nonpayable",
      "type": "function"
    },
    {
      "inputs": [
        {
          "internalType": "contract ITransparentUpgradeableProxy",
          "name": "proxy",
          "type": "address"
        },
        {
          "internalType": "address",
          "name": "implementation",
          "type": "address"
        }
      ],
      "name": "upgrade",
      "outputs": [],
      "stateMutability": "nonpayable",
      "type": "function"
    },
    {
      "inputs": [
        {
          "internalType": "contract ITransparentUpgradeableProxy",
          "name": "proxy",
          "type": "address"
        },
        {
          "internalType": "address",
          "name": "implementation",
          "type": "address"
        },
        {
          "internalType": "bytes",
          "name": "data",
          "type": "bytes"
        }
      ],
      "name": "upgradeAndCall",
      "outputs": [],
      "stateMutability": "payable",
      "type": "function"
    }
  ],
  "bytecode": {
    "object": "0x608060405234801561001057600080fd5b5061001a3361001f565b61006f565b600080546001600160a01b038381166001600160a01b0319831681178455604051919092169283917f8be0079c531659141344cd1fd0a4f28419497f9722a3daafe3b4186f6b6457e09190a35050565b610a348061007e6000396000f3fe6080604052600436106100dd5760003560e01c806399a88ec41161007f578063db7645ae11610059578063db7645ae14610210578063f1b5084b14610230578063f2fde38b14610245578063f3b7dead1461026557600080fd5b806399a88ec4146101bb578063d35a888e146101db578063d36de10b146101f057600080fd5b806371edfb9f116100bb57806371edfb9f146101555780637eff275e1461016a5780638da5cb5b1461018a5780639623609d146101a857600080fd5b8063204e1c7a146100e2578063335c7bbd1461011e578063715018a614610140575b600080fd5b3480156100ee57600080fd5b506101026100fd36600461079b565b610285565b6040516001600160a01b03909116815260200160405180910390f35b34801561012a57600080fd5b5061013e610139366004610862565b610316565b005b34801561014c57600080fd5b5061013e610340565b34801561016157600080fd5b50610102610354565b34801561017657600080fd5b5061013e6101853660046108b2565b610378565b34801561019657600080fd5b506000546001600160a01b0316610102565b61013e6101b63660046108eb565b6103e0565b3480156101c757600080fd5b5061013e6101d63660046108b2565b61044f565b3480156101e757600080fd5b50610102610485565b3480156101fc57600080fd5b5061013e61020b36600461079b565b6104a4565b34801561021c57600080fd5b5061013e61022b36600461079b565b6104cc565b34801561023c57600080fd5b506101026104f1565b34801561025157600080fd5b5061013e61026036600461079b565b610553565b34801561027157600080fd5b5061010261028036600461079b565b6105ce565b6000806000836001600160a01b03166040516102ab90635c60da1b60e01b815260040190565b600060405180830381855afa9150503d80600081146102e6576040519150601f19603f3d011682016040523d82523d6000602084013e6102eb565b606091505b5091509150816102fa57600080fd5b8080602001905181019061030e919061094d565b949350505050565b61031e6105f4565b60175461033c90630100000090046001600160a01b031683836103e0565b5050565b61034861067b565b61035260006106d5565b565b60175460009061037390630100000090046001600160a01b03166105ce565b905090565b61038061067b565b6040516308f2839760e41b81526001600160a01b038281166004830152831690638f283970906024015b600060405180830381600087803b1580156103c457600080fd5b505af11580156103d8573d6000803e3d6000fd5b505050505050565b6103e861067b565b60405163278f794360e11b81526001600160a01b03841690634f1ef28690349061041890869086906004016109b0565b6000604051808303818588803b15801561043157600080fd5b505af1158015610445573d6000803e3d6000fd5b5050505050505050565b61045761067b565b604051631b2ce7f360e11b81526001600160a01b038281166004830152831690633659cfe6906024016103aa565b60175460009061037390630100000090046001600160a01b0316610285565b6104ac6105f4565b6017546104c990630100000090046001600160a01b03168261044f565b50565b6104d46105f4565b6017546104c990630100000090046001600160a01b031682610378565b6040805180820190915260158152740399737bd36283937bc3c9034b71030b236b4b71d1605d1b602082015260175460009161053c91630100000090046001600160a01b0316610725565b50601754630100000090046001600160a01b031690565b61055b61067b565b6001600160a01b0381166105c55760405162461bcd60e51b815260206004820152602660248201527f4f776e61626c653a206e6577206f776e657220697320746865207a65726f206160448201526564647265737360d01b60648201526084015b60405180910390fd5b6104c9816106d5565b6000806000836001600160a01b03166040516102ab906303e1469160e61b815260040190565b7fc8fcad8db84d3cc18b4c41d551ea0ee66dd599cde068d998e57d5e09332c131c600401546001600160a01b031633146103525760405162461bcd60e51b815260206004820152602260248201527f4c69624469616d6f6e643a204d75737420626520636f6e7472616374206f776e60448201526132b960f11b60648201526084016105bc565b6000546001600160a01b031633146103525760405162461bcd60e51b815260206004820181905260248201527f4f776e61626c653a2063616c6c6572206973206e6f7420746865206f776e657260448201526064016105bc565b600080546001600160a01b038381166001600160a01b0319831681178455604051919092169283917f8be0079c531659141344cd1fd0a4f28419497f9722a3daafe3b4186f6b6457e09190a35050565b61033c828260405160240161073b9291906109d4565b60408051601f198184030181529190526020810180516001600160e01b031663319af33360e01b17905280516a636f6e736f6c652e6c6f67602083016000808483855afa5050505050565b6001600160a01b03811681146104c957600080fd5b6000602082840312156107ad57600080fd5b81356107b881610786565b9392505050565b634e487b7160e01b600052604160045260246000fd5b600082601f8301126107e657600080fd5b813567ffffffffffffffff80821115610801576108016107bf565b604051601f8301601f19908116603f01168101908282118183101715610829576108296107bf565b8160405283815286602085880101111561084257600080fd5b836020870160208301376000602085830101528094505050505092915050565b6000806040838503121561087557600080fd5b823561088081610786565b9150602083013567ffffffffffffffff81111561089c57600080fd5b6108a8858286016107d5565b9150509250929050565b600080604083850312156108c557600080fd5b82356108d081610786565b915060208301356108e081610786565b809150509250929050565b60008060006060848603121561090057600080fd5b833561090b81610786565b9250602084013561091b81610786565b9150604084013567ffffffffffffffff81111561093757600080fd5b610943868287016107d5565b9150509250925092565b60006020828403121561095f57600080fd5b81516107b881610786565b6000815180845260005b8181101561099057602081850181015186830182015201610974565b506000602082860101526020601f19601f83011685010191505092915050565b6001600160a01b038316815260406020820181905260009061030e9083018461096a565b6040815260006109e7604083018561096a565b905060018060a01b0383166020830152939250505056fea26469706673582212200abb3f9e092a9652246cd9a3af435fd91632e31b1da17d81e110bdec4c3a243a64736f6c63430008150033",
    "linkReferences": {}
  },
  "methodIdentifiers": {
    "changeOZLadmin(address)": "db7645ae",
    "changeOZLlogic(address)": "d36de10b",
    "changeOZLlogicAndCall(address,bytes)": "335c7bbd",
    "changeProxyAdmin(address,address)": "7eff275e",
    "getOZL()": "f1b5084b",
    "getOZLadmin()": "71edfb9f",
    "getOZLlogic()": "d35a888e",
    "getProxyAdmin(address)": "f3b7dead",
    "getProxyImplementation(address)": "204e1c7a",
    "owner()": "8da5cb5b",
    "renounceOwnership()": "715018a6",
    "transferOwnership(address)": "f2fde38b",
    "upgrade(address,address)": "99a88ec4",
    "upgradeAndCall(address,address,bytes)": "9623609d"
  },
  "id": 7
}