{"abi":[{"type":"function","name":"changeOZLadmin","inputs":[{"name":"newAdmin_","type":"address","internalType":"address"}],"outputs":[],"stateMutability":"nonpayable"},{"type":"function","name":"changeOZLlogic","inputs":[{"name":"newLogic_","type":"address","internalType":"address"}],"outputs":[],"stateMutability":"nonpayable"},{"type":"function","name":"changeOZLlogicAndCall","inputs":[{"name":"newLogic_","type":"address","internalType":"address"},{"name":"data_","type":"bytes","internalType":"bytes"}],"outputs":[],"stateMutability":"payable"},{"type":"function","name":"claimReward","inputs":[],"outputs":[{"name":"","type":"uint256","internalType":"uint256"}],"stateMutability":"nonpayable"},{"type":"function","name":"earned","inputs":[{"name":"user_","type":"address","internalType":"address"}],"outputs":[{"name":"","type":"uint256","internalType":"uint256"}],"stateMutability":"view"},{"type":"function","name":"getOZL","inputs":[],"outputs":[{"name":"","type":"address","internalType":"address"}],"stateMutability":"view"},{"type":"function","name":"getOZLadmin","inputs":[],"outputs":[{"name":"","type":"address","internalType":"address"}],"stateMutability":"view"},{"type":"function","name":"getOZLlogic","inputs":[],"outputs":[{"name":"","type":"address","internalType":"address"}],"stateMutability":"view"},{"type":"function","name":"getRewardsData","inputs":[],"outputs":[{"name":"rewardRate","type":"uint256","internalType":"uint256"},{"name":"circulatingSupply","type":"uint256","internalType":"uint256"},{"name":"pendingAllocation","type":"uint256","internalType":"uint256"},{"name":"recicledSupply","type":"uint256","internalType":"uint256"},{"name":"durationLeft","type":"int256","internalType":"int256"}],"stateMutability":"view"},{"type":"function","name":"lastTimeRewardApplicable","inputs":[],"outputs":[{"name":"","type":"uint256","internalType":"uint256"}],"stateMutability":"view"},{"type":"function","name":"notifyRewardAmount","inputs":[{"name":"amount_","type":"uint256","internalType":"uint256"}],"outputs":[],"stateMutability":"nonpayable"},{"type":"function","name":"rewardPerToken","inputs":[],"outputs":[{"name":"","type":"uint256","internalType":"uint256"}],"stateMutability":"view"},{"type":"function","name":"setRewardsDuration","inputs":[{"name":"duration_","type":"uint256","internalType":"uint256"}],"outputs":[],"stateMutability":"nonpayable"},{"type":"error","name":"OZError33","inputs":[{"name":"caller","type":"address","internalType":"address"}]}],"bytecode":{"object":"0x608060405234801561001057600080fd5b506109a0806100206000396000f3fe6080604052600436106100c15760003560e01c8063b88a802f1161007f578063d35a888e11610059578063d35a888e146101a8578063d36de10b146101bd578063db7645ae146101dd578063f1b5084b146101fd57600080fd5b8063b88a802f14610194578063cc1a378f1461010f578063cd3daf9d1461019457600080fd5b80628cc262146100c6578063335c7bbd146100fa5780633c6b16ab1461010f57806371edfb9f1461012d5780637d098e641461015a57806380faa57d14610194575b600080fd5b3480156100d257600080fd5b506100e76100e1366004610773565b50600090565b6040519081526020015b60405180910390f35b61010d6101083660046107a6565b610222565b005b34801561011b57600080fd5b5061010d61012a36600461086a565b50565b34801561013957600080fd5b5061014261024c565b6040516001600160a01b0390911681526020016100f1565b34801561016657600080fd5b506040805160008082526020820181905291810182905260608101829052608081019190915260a0016100f1565b3480156101a057600080fd5b5060006100e7565b3480156101b457600080fd5b50610142610270565b3480156101c957600080fd5b5061010d6101d8366004610773565b61028f565b3480156101e957600080fd5b5061010d6101f8366004610773565b6102b4565b34801561020957600080fd5b50601354600160481b90046001600160a01b0316610142565b61022a6103b0565b60135461024890600160481b90046001600160a01b03168383610439565b5050565b60135460009061026b90600160481b90046001600160a01b03166104a0565b905090565b60135460009061026b90600160481b90046001600160a01b0316610531565b6102976103b0565b60135461012a90600160481b90046001600160a01b031682610557565b6040805160048152602481019091526020810180516001600160e01b031663b74bd64760e01b1790526102e730826105b6565b90506102f360016105e2565b808060200190518101906103079190610883565b6001600160a01b0316336001600160a01b03161461033f576040516322717c0360e11b81523360048201526024015b60405180910390fd5b61034960026105e2565b601354604051600160481b9091046001600160a01b0390811660248301528316604482015260009060640160408051601f198184030181529190526020810180516001600160e01b0316636210bd1760e01b17905290506103aa30826105b6565b50505050565b7fc8fcad8db84d3cc18b4c41d551ea0ee66dd599cde068d998e57d5e09332c131c600401546001600160a01b031633146104375760405162461bcd60e51b815260206004820152602260248201527f4c69624469616d6f6e643a204d75737420626520636f6e7472616374206f776e60448201526132b960f11b6064820152608401610336565b565b60405163278f794360e11b81526001600160a01b03841690634f1ef28690349061046990869086906004016108f0565b6000604051808303818588803b15801561048257600080fd5b505af1158015610496573d6000803e3d6000fd5b5050505050505050565b6000806000836001600160a01b03166040516104c6906303e1469160e61b815260040190565b600060405180830381855afa9150503d8060008114610501576040519150601f19603f3d011682016040523d82523d6000602084013e610506565b606091505b50915091508161051557600080fd5b808060200190518101906105299190610883565b949350505050565b6000806000836001600160a01b03166040516104c690635c60da1b60e01b815260040190565b604051631b2ce7f360e11b81526001600160a01b038281166004830152831690633659cfe690602401600060405180830381600087803b15801561059a57600080fd5b505af11580156105ae573d6000803e3d6000fd5b505050505050565b60606105db838360405180606001604052806027815260200161094460279139610627565b9392505050565b61012a816040516024016105f891815260200190565b60408051601f198184030181529190526020810180516001600160e01b031663f5b1bba960e01b17905261069f565b6060600080856001600160a01b0316856040516106449190610914565b600060405180830381855af49150503d806000811461067f576040519150601f19603f3d011682016040523d82523d6000602084013e610684565b606091505b5091509150610695868383876106c0565b9695505050505050565b80516a636f6e736f6c652e6c6f67602083016000808483855afa5050505050565b6060831561072f578251600003610728576001600160a01b0385163b6107285760405162461bcd60e51b815260206004820152601d60248201527f416464726573733a2063616c6c20746f206e6f6e2d636f6e74726163740000006044820152606401610336565b5081610529565b61052983838151156107445781518083602001fd5b8060405162461bcd60e51b81526004016103369190610930565b6001600160a01b038116811461012a57600080fd5b60006020828403121561078557600080fd5b81356105db8161075e565b634e487b7160e01b600052604160045260246000fd5b600080604083850312156107b957600080fd5b82356107c48161075e565b9150602083013567ffffffffffffffff808211156107e157600080fd5b818501915085601f8301126107f557600080fd5b81358181111561080757610807610790565b604051601f8201601f19908116603f0116810190838211818310171561082f5761082f610790565b8160405282815288602084870101111561084857600080fd5b8260208601602083013760006020848301015280955050505050509250929050565b60006020828403121561087c57600080fd5b5035919050565b60006020828403121561089557600080fd5b81516105db8161075e565b60005b838110156108bb5781810151838201526020016108a3565b50506000910152565b600081518084526108dc8160208601602086016108a0565b601f01601f19169290920160200192915050565b6001600160a01b0383168152604060208201819052600090610529908301846108c4565b600082516109268184602087016108a0565b9190910192915050565b6020815260006105db60208301846108c456fe416464726573733a206c6f772d6c6576656c2064656c65676174652063616c6c206661696c6564a264697066735822122038932afe68588306d41c8e67bf68c40f4e779c2e09edbc7e072ab5ab5cdcc9f364736f6c63430008150033","linkReferences":{}},"methodIdentifiers":{"changeOZLadmin(address)":"db7645ae","changeOZLlogic(address)":"d36de10b","changeOZLlogicAndCall(address,bytes)":"335c7bbd","claimReward()":"b88a802f","earned(address)":"008cc262","getOZL()":"f1b5084b","getOZLadmin()":"71edfb9f","getOZLlogic()":"d35a888e","getRewardsData()":"7d098e64","lastTimeRewardApplicable()":"80faa57d","notifyRewardAmount(uint256)":"3c6b16ab","rewardPerToken()":"cd3daf9d","setRewardsDuration(uint256)":"cc1a378f"},"id":10}