{"abi":[{"type":"function","name":"changeOZLadmin","inputs":[{"name":"newAdmin_","type":"address","internalType":"address"}],"outputs":[],"stateMutability":"nonpayable"},{"type":"function","name":"changeOZLlogic","inputs":[{"name":"newLogic_","type":"address","internalType":"address"}],"outputs":[],"stateMutability":"nonpayable"},{"type":"function","name":"changeOZLlogicAndCall","inputs":[{"name":"newLogic_","type":"address","internalType":"address"},{"name":"data_","type":"bytes","internalType":"bytes"}],"outputs":[],"stateMutability":"payable"},{"type":"function","name":"getOZL","inputs":[],"outputs":[{"name":"","type":"address","internalType":"address"}],"stateMutability":"view"},{"type":"function","name":"getOZLadmin","inputs":[],"outputs":[{"name":"","type":"address","internalType":"address"}],"stateMutability":"view"},{"type":"function","name":"getOZLlogic","inputs":[],"outputs":[{"name":"","type":"address","internalType":"address"}],"stateMutability":"view"}],"bytecode":{"object":"0x608060405234801561001057600080fd5b506105d1806100206000396000f3fe6080604052600436106100555760003560e01c8063335c7bbd1461005a57806371edfb9f1461006f578063d35a888e146100a0578063d36de10b146100b5578063db7645ae146100d5578063f1b5084b146100f5575b600080fd5b61006d610068366004610438565b61011a565b005b34801561007b57600080fd5b50610084610144565b6040516001600160a01b03909116815260200160405180910390f35b3480156100ac57600080fd5b50610084610168565b3480156100c157600080fd5b5061006d6100d03660046104fc565b610187565b3480156100e157600080fd5b5061006d6100f03660046104fc565b6101af565b34801561010157600080fd5b50601354600160481b90046001600160a01b0316610084565b6101226101d4565b60135461014090600160481b90046001600160a01b03168383610261565b5050565b60135460009061016390600160481b90046001600160a01b03166102c8565b905090565b60135460009061016390600160481b90046001600160a01b0316610359565b61018f6101d4565b6013546101ac90600160481b90046001600160a01b03168261037f565b50565b6101b76101d4565b6013546101ac90600160481b90046001600160a01b0316826103df565b7fc8fcad8db84d3cc18b4c41d551ea0ee66dd599cde068d998e57d5e09332c131c600401546001600160a01b0316331461025f5760405162461bcd60e51b815260206004820152602260248201527f4c69624469616d6f6e643a204d75737420626520636f6e7472616374206f776e60448201526132b960f11b606482015260840160405180910390fd5b565b60405163278f794360e11b81526001600160a01b03841690634f1ef2869034906102919086908690600401610520565b6000604051808303818588803b1580156102aa57600080fd5b505af11580156102be573d6000803e3d6000fd5b5050505050505050565b6000806000836001600160a01b03166040516102ee906303e1469160e61b815260040190565b600060405180830381855afa9150503d8060008114610329576040519150601f19603f3d011682016040523d82523d6000602084013e61032e565b606091505b50915091508161033d57600080fd5b80806020019051810190610351919061057e565b949350505050565b6000806000836001600160a01b03166040516102ee90635c60da1b60e01b815260040190565b604051631b2ce7f360e11b81526001600160a01b038281166004830152831690633659cfe6906024015b600060405180830381600087803b1580156103c357600080fd5b505af11580156103d7573d6000803e3d6000fd5b505050505050565b6040516308f2839760e41b81526001600160a01b038281166004830152831690638f283970906024016103a9565b6001600160a01b03811681146101ac57600080fd5b634e487b7160e01b600052604160045260246000fd5b6000806040838503121561044b57600080fd5b82356104568161040d565b9150602083013567ffffffffffffffff8082111561047357600080fd5b818501915085601f83011261048757600080fd5b81358181111561049957610499610422565b604051601f8201601f19908116603f011681019083821181831017156104c1576104c1610422565b816040528281528860208487010111156104da57600080fd5b8260208601602083013760006020848301015280955050505050509250929050565b60006020828403121561050e57600080fd5b81356105198161040d565b9392505050565b60018060a01b038316815260006020604081840152835180604085015260005b8181101561055c57858101830151858201606001528201610540565b506000606082860101526060601f19601f830116850101925050509392505050565b60006020828403121561059057600080fd5b81516105198161040d56fea2646970667358221220936b1bc340e1a94362751da7190c8a9dbeb74c2856b1dd796bf5b57c0ca1b89d64736f6c63430008150033","linkReferences":{}},"methodIdentifiers":{"changeOZLadmin(address)":"db7645ae","changeOZLlogic(address)":"d36de10b","changeOZLlogicAndCall(address,bytes)":"335c7bbd","getOZL()":"f1b5084b","getOZLadmin()":"71edfb9f","getOZLlogic()":"d35a888e"},"id":10}