{
  "abi": [
    {
      "inputs": [
        {
          "internalType": "address[]",
          "name": "registry_",
          "type": "address[]"
        }
      ],
      "name": "init",
      "outputs": [],
      "stateMutability": "nonpayable",
      "type": "function"
    }
  ],
  "bytecode": {
    "object": "0x608060405234801561001057600080fd5b5061021e806100206000396000f3fe608060405234801561001057600080fd5b506004361061002b5760003560e01c8063c6044c4614610030575b600080fd5b61004361003e3660046100e6565b610045565b005b60005b81518110156100b05760016000603e01600084848151811061006c5761006c6101ab565b6020908102919091018101516001600160a01b03168252810191909152604001600020805460ff1916911515919091179055806100a8816101c1565b915050610048565b5050565b634e487b7160e01b600052604160045260246000fd5b80356001600160a01b03811681146100e157600080fd5b919050565b600060208083850312156100f957600080fd5b823567ffffffffffffffff8082111561011157600080fd5b818501915085601f83011261012557600080fd5b813581811115610137576101376100b4565b8060051b604051601f19603f8301168101818110858211171561015c5761015c6100b4565b60405291825284820192508381018501918883111561017a57600080fd5b938501935b8285101561019f57610190856100ca565b8452938501939285019261017f565b98975050505050505050565b634e487b7160e01b600052603260045260246000fd5b6000600182016101e157634e487b7160e01b600052601160045260246000fd5b506001019056fea2646970667358221220828e8d481f8e93785640eadc3481df2843d6de12a7632d61cb55cbb7e55e3ecb64736f6c63430008150033",
    "linkReferences": {}
  },
  "methodIdentifiers": {
    "init(address[])": "c6044c46"
  },
  "id": 1
}