{
  "abi": [
    {
      "inputs": [
        {
          "internalType": "address[]",
          "name": "registry_",
          "type": "address[]"
        },
        {
          "internalType": "address",
          "name": "diamond_",
          "type": "address"
        },
        {
          "internalType": "address",
          "name": "roiMod_",
          "type": "address"
        }
      ],
      "name": "init",
      "outputs": [],
      "stateMutability": "nonpayable",
      "type": "function"
    }
  ],
  "bytecode": {
    "object": "0x608060405234801561001057600080fd5b50610273806100206000396000f3fe608060405234801561001057600080fd5b506004361061002b5760003560e01c806348a25c2714610030575b600080fd5b61004361003e366004610119565b610045565b005b825160005b818110156100b6576000603e0185828151811061006957610069610200565b60209081029190910181015182546001810184556000938452919092200180546001600160a01b0319166001600160a01b03909216919091179055806100ae81610216565b91505061004a565b5050603f80546001600160a01b039384166001600160a01b0319918216179091556040805492909316911617905550565b634e487b7160e01b600052604160045260246000fd5b80356001600160a01b038116811461011457600080fd5b919050565b60008060006060848603121561012e57600080fd5b833567ffffffffffffffff8082111561014657600080fd5b818601915086601f83011261015a57600080fd5b813560208282111561016e5761016e6100e7565b8160051b604051601f19603f83011681018181108682111715610193576101936100e7565b60405292835281830193508481018201928a8411156101b157600080fd5b948201945b838610156101d6576101c7866100fd565b855294820194938201936101b6565b97506101e590508882016100fd565b9550505050506101f7604085016100fd565b90509250925092565b634e487b7160e01b600052603260045260246000fd5b60006001820161023657634e487b7160e01b600052601160045260246000fd5b506001019056fea2646970667358221220fa19af1875034b18a3b48cf3d63fcb7c1b8fd4681c226fafed70a75eb8acd16c64736f6c63430008150033",
    "linkReferences": {}
  },
  "methodIdentifiers": {
    "init(address[],address,address)": "48a25c27"
  },
  "id": 1
}