{
  "abi": [
    {
      "inputs": [
        {
          "internalType": "address[]",
          "name": "registry_",
          "type": "address[]"
        },
        {
          "internalType": "address",
          "name": "diamond_",
          "type": "address"
        }
      ],
      "name": "init",
      "outputs": [],
      "stateMutability": "nonpayable",
      "type": "function"
    }
  ],
  "bytecode": {
    "object": "0x608060405234801561001057600080fd5b50610343806100206000396000f3fe608060405234801561001057600080fd5b506004361061002b5760003560e01c80637e1ddf6414610030575b600080fd5b61004361003e366004610199565b610045565b005b815160005b818110156100b6576000603e0184828151811061006957610069610270565b60209081029190910181015182546001810184556000938452919092200180546001600160a01b0319166001600160a01b03909216919091179055806100ae81610286565b91505061004a565b50603f80546001600160a01b0319166001600160a01b0384169081179091556040805180820190915260038152620399d160ed1b60208201526100f8916100fd565b505050565b61014282826040516024016101139291906102ad565b60408051601f198184030181529190526020810180516001600160e01b031663319af33360e01b179052610146565b5050565b80516a636f6e736f6c652e6c6f67602083016000808483855afa5050505050565b634e487b7160e01b600052604160045260246000fd5b80356001600160a01b038116811461019457600080fd5b919050565b600080604083850312156101ac57600080fd5b823567ffffffffffffffff808211156101c457600080fd5b818501915085601f8301126101d857600080fd5b81356020828211156101ec576101ec610167565b8160051b604051601f19603f8301168101818110868211171561021157610211610167565b60405292835281830193508481018201928984111561022f57600080fd5b948201945b83861015610254576102458661017d565b85529482019493820193610234565b9650610263905087820161017d565b9450505050509250929050565b634e487b7160e01b600052603260045260246000fd5b6000600182016102a657634e487b7160e01b600052601160045260246000fd5b5060010190565b604081526000835180604084015260005b818110156102db57602081870181015160608684010152016102be565b50600060608285018101919091526001600160a01b03949094166020840152601f01601f19169091019091019291505056fea264697066735822122087f7c6b64dc2e5237f94faf059fd61c6e463379775d6d65a19cd80adfb961d7c64736f6c63430008150033",
    "linkReferences": {}
  },
  "methodIdentifiers": {
    "init(address[],address)": "7e1ddf64"
  },
  "id": 1
}