{
  "abi": [
    {
      "inputs": [
        {
          "internalType": "address[]",
          "name": "registry_",
          "type": "address[]"
        },
        {
          "internalType": "address",
          "name": "diamond_",
          "type": "address"
        }
      ],
      "name": "init",
      "outputs": [],
      "stateMutability": "nonpayable",
      "type": "function"
    }
  ],
  "bytecode": {
    "object": "0x608060405234801561001057600080fd5b50610257806100206000396000f3fe608060405234801561001057600080fd5b506004361061002b5760003560e01c80637e1ddf6414610030575b600080fd5b61004361003e36600461010d565b610045565b005b815160005b818110156100b6576000603e01848281518110610069576100696101e4565b60209081029190910181015182546001810184556000938452919092200180546001600160a01b0319166001600160a01b03909216919091179055806100ae816101fa565b91505061004a565b5050603f80546001600160a01b0319166001600160a01b039290921691909117905550565b634e487b7160e01b600052604160045260246000fd5b80356001600160a01b038116811461010857600080fd5b919050565b6000806040838503121561012057600080fd5b823567ffffffffffffffff8082111561013857600080fd5b818501915085601f83011261014c57600080fd5b8135602082821115610160576101606100db565b8160051b604051601f19603f83011681018181108682111715610185576101856100db565b6040529283528183019350848101820192898411156101a357600080fd5b948201945b838610156101c8576101b9866100f1565b855294820194938201936101a8565b96506101d790508782016100f1565b9450505050509250929050565b634e487b7160e01b600052603260045260246000fd5b60006001820161021a57634e487b7160e01b600052601160045260246000fd5b506001019056fea264697066735822122004b5997530c3f2234ec174564727db9dc14e6f0a95684b4b8c26fa230dcd981564736f6c63430008150033",
    "linkReferences": {}
  },
  "methodIdentifiers": {
    "init(address[],address)": "7e1ddf64"
  },
  "id": 1
}