{
  "abi": [
    {
      "inputs": [
        {
          "internalType": "address[]",
          "name": "registry_",
          "type": "address[]"
        }
      ],
      "name": "init",
      "outputs": [],
      "stateMutability": "nonpayable",
      "type": "function"
    }
  ],
  "bytecode": {
    "object": "0x608060405234801561001057600080fd5b50610225806100206000396000f3fe608060405234801561001057600080fd5b506004361061002b5760003560e01c8063c6044c4614610030575b600080fd5b61004361003e3660046100ed565b610045565b005b805160005b818110156100b6576000603e01838281518110610069576100696101b2565b60209081029190910181015182546001810184556000938452919092200180546001600160a01b0319166001600160a01b03909216919091179055806100ae816101c8565b91505061004a565b505050565b634e487b7160e01b600052604160045260246000fd5b80356001600160a01b03811681146100e857600080fd5b919050565b6000602080838503121561010057600080fd5b823567ffffffffffffffff8082111561011857600080fd5b818501915085601f83011261012c57600080fd5b81358181111561013e5761013e6100bb565b8060051b604051601f19603f83011681018181108582111715610163576101636100bb565b60405291825284820192508381018501918883111561018157600080fd5b938501935b828510156101a657610197856100d1565b84529385019392850192610186565b98975050505050505050565b634e487b7160e01b600052603260045260246000fd5b6000600182016101e857634e487b7160e01b600052601160045260246000fd5b506001019056fea264697066735822122053b145f7e179a6e732b55822458c71df047acac195f9cab07a66417836f18b7c64736f6c63430008150033",
    "linkReferences": {}
  },
  "methodIdentifiers": {
    "init(address[])": "c6044c46"
  },
  "id": 2
}