{
  "abi": [
    {
      "inputs": [
        {
          "internalType": "address",
          "name": "user_",
          "type": "address"
        }
      ],
      "name": "earned",
      "outputs": [
        {
          "internalType": "uint256",
          "name": "",
          "type": "uint256"
        }
      ],
      "stateMutability": "view",
      "type": "function"
    },
    {
      "inputs": [],
      "name": "getReward",
      "outputs": [],
      "stateMutability": "nonpayable",
      "type": "function"
    },
    {
      "inputs": [],
      "name": "lastTimeRewardApplicable",
      "outputs": [
        {
          "internalType": "uint256",
          "name": "",
          "type": "uint256"
        }
      ],
      "stateMutability": "view",
      "type": "function"
    },
    {
      "inputs": [
        {
          "internalType": "uint256",
          "name": "amount_",
          "type": "uint256"
        }
      ],
      "name": "notifyRewardAmount",
      "outputs": [],
      "stateMutability": "nonpayable",
      "type": "function"
    },
    {
      "inputs": [],
      "name": "rewardPerToken",
      "outputs": [
        {
          "internalType": "uint256",
          "name": "",
          "type": "uint256"
        }
      ],
      "stateMutability": "view",
      "type": "function"
    },
    {
      "inputs": [
        {
          "internalType": "uint256",
          "name": "duration_",
          "type": "uint256"
        }
      ],
      "name": "setRewardsDuration",
      "outputs": [],
      "stateMutability": "nonpayable",
      "type": "function"
    }
  ],
  "bytecode": {
    "object": "0x608060405234801561001057600080fd5b50610113806100206000396000f3fe6080604052348015600f57600080fd5b506004361060595760003560e01c80628cc26214605e5780633c6b16ab1460815780633d18b91214608f57806380faa57d146091578063cc1a378f146081578063cd3daf9d146091575b600080fd5b606f60693660046097565b50600090565b60405190815260200160405180910390f35b608f608c36600460c5565b50565b005b6000606f565b60006020828403121560a857600080fd5b81356001600160a01b038116811460be57600080fd5b9392505050565b60006020828403121560d657600080fd5b503591905056fea2646970667358221220c1957bd8ee11addb09b21b656a68cf629031e6c3b190b3a70e17bf4dac442c4b64736f6c63430008150033",
    "linkReferences": {}
  },
  "methodIdentifiers": {
    "earned(address)": "008cc262",
    "getReward()": "3d18b912",
    "lastTimeRewardApplicable()": "80faa57d",
    "notifyRewardAmount(uint256)": "3c6b16ab",
    "rewardPerToken()": "cd3daf9d",
    "setRewardsDuration(uint256)": "cc1a378f"
  },
  "id": 3
}