{"abi":[{"type":"function","name":"claimReward","inputs":[],"outputs":[{"name":"","type":"uint256","internalType":"uint256"}],"stateMutability":"nonpayable"},{"type":"function","name":"earned","inputs":[{"name":"user_","type":"address","internalType":"address"}],"outputs":[{"name":"","type":"uint256","internalType":"uint256"}],"stateMutability":"view"},{"type":"function","name":"getRewardsData","inputs":[],"outputs":[{"name":"rewardRate","type":"uint256","internalType":"uint256"},{"name":"circulatingSupply","type":"uint256","internalType":"uint256"},{"name":"pendingAllocation","type":"uint256","internalType":"uint256"},{"name":"recicledSupply","type":"uint256","internalType":"uint256"},{"name":"durationLeft","type":"int256","internalType":"int256"}],"stateMutability":"view"},{"type":"function","name":"lastTimeRewardApplicable","inputs":[],"outputs":[{"name":"","type":"uint256","internalType":"uint256"}],"stateMutability":"view"},{"type":"function","name":"notifyRewardAmount","inputs":[{"name":"amount_","type":"uint256","internalType":"uint256"}],"outputs":[],"stateMutability":"nonpayable"},{"type":"function","name":"rewardPerToken","inputs":[],"outputs":[{"name":"","type":"uint256","internalType":"uint256"}],"stateMutability":"view"},{"type":"function","name":"setRewardsDuration","inputs":[{"name":"duration_","type":"uint256","internalType":"uint256"}],"outputs":[],"stateMutability":"nonpayable"}],"bytecode":{"object":"0x608060405234801561001057600080fd5b5061016e806100206000396000f3fe608060405234801561001057600080fd5b506004361061007c5760003560e01c806380faa57d1161005b57806380faa57d146100e8578063b88a802f146100e8578063cc1a378f146100a8578063cd3daf9d146100e857600080fd5b80628cc262146100815780633c6b16ab146100a85780637d098e64146100bb575b600080fd5b61009561008f3660046100ef565b50600090565b6040519081526020015b60405180910390f35b6100b96100b636600461011f565b50565b005b6040805160008082526020820181905291810182905260608101829052608081019190915260a00161009f565b6000610095565b60006020828403121561010157600080fd5b81356001600160a01b038116811461011857600080fd5b9392505050565b60006020828403121561013157600080fd5b503591905056fea26469706673582212206be089fb2e2d3fedb19834292aef8e6eb5c2a031d4b737aa37bcf739ffa96e0b64736f6c63430008150033","linkReferences":{}},"methodIdentifiers":{"claimReward()":"b88a802f","earned(address)":"008cc262","getRewardsData()":"7d098e64","lastTimeRewardApplicable()":"80faa57d","notifyRewardAmount(uint256)":"3c6b16ab","rewardPerToken()":"cd3daf9d","setRewardsDuration(uint256)":"cc1a378f"},"id":3}