{"abi":[{"type":"function","name":"DAI","inputs":[{"name":"tokenIn_","type":"address","internalType":"address"}],"outputs":[{"name":"","type":"bool","internalType":"bool"}],"stateMutability":"view"},{"type":"function","name":"DAIa","inputs":[{"name":"","type":"uint256","internalType":"uint256"}],"outputs":[{"name":"","type":"address","internalType":"address"}],"stateMutability":"view"},{"type":"function","name":"USDC","inputs":[{"name":"tokenIn_","type":"address","internalType":"address"}],"outputs":[{"name":"","type":"bool","internalType":"bool"}],"stateMutability":"view"},{"type":"function","name":"USDCa","inputs":[{"name":"","type":"uint256","internalType":"uint256"}],"outputs":[{"name":"","type":"address","internalType":"address"}],"stateMutability":"view"}],"bytecode":{"object":"0x670f13fa15c8b434bc600055685aee9dbdc751e264006001556002805473a0b86991c6218b36c1d19d4a2e9eb0ce3606eb486001600160a01b0319918216811783556003805473fefc6baf87cf3684058d62da40ff3a795946ab0693168317905560c0604052608090815260a09190915261007d9160049190610120565b5060058054736b175474e89094c44da98b954eedeac495271d0f6001600160a01b0319918216811790925560068054732a9e8fa175f45b235efddd97d2727741ef4eee639216821790556040805180820190915291825260208201526100e7906007906002610120565b50600880546001600160a01b03191673c02aaa39b223fe8d0a0e5c4f27ead9083c756cc217905534801561011a57600080fd5b5061019a565b828054828255906000526020600020908101928215610175579160200282015b8281111561017557825182546001600160a01b0319166001600160a01b03909116178255602090920191600190910190610140565b50610181929150610185565b5090565b5b808211156101815760008155600101610186565b61031c806101a96000396000f3fe608060405234801561001057600080fd5b506004361061004c5760003560e01c806333a7a357146100515780635265fedc14610079578063a3a99b3c146100a4578063c648527f146100b7575b600080fd5b61006461005f366004610260565b6100ca565b60405190151581526020015b60405180910390f35b61008c610087366004610290565b610150565b6040516001600160a01b039091168152602001610070565b61008c6100b2366004610290565b61017a565b6100646100c5366004610260565b61018a565b60008061013a83600480548060200260200160405190810160405280929190818152602001828054801561012757602002820191906000526020600020905b81546001600160a01b03168152600190910190602001808311610109575b50505050506101f890919063ffffffff16565b121561014757600061014a565b60015b92915050565b6004818154811061016057600080fd5b6000918252602090912001546001600160a01b0316905081565b6007818154811061016057600080fd5b60008061013a836007805480602002602001604051908101604052809291908181526020018280548015610127576020028201919060005260206000209081546001600160a01b031681526001909101906020018083116101095750505050506101f890919063ffffffff16565b8151600090815b8181101561025457836001600160a01b0316858281518110610223576102236102a9565b60200260200101516001600160a01b03160361024257915061014a9050565b8061024c816102bf565b9150506101ff565b50600019949350505050565b60006020828403121561027257600080fd5b81356001600160a01b038116811461028957600080fd5b9392505050565b6000602082840312156102a257600080fd5b5035919050565b634e487b7160e01b600052603260045260246000fd5b6000600182016102df57634e487b7160e01b600052601160045260246000fd5b506001019056fea2646970667358221220a8ca5bb3349cc3df611a5884710b63599cd135af561219afcf4fc1c23029453364736f6c63430008150033","linkReferences":{}},"methodIdentifiers":{"DAI(address)":"c648527f","DAIa(uint256)":"a3a99b3c","USDC(address)":"33a7a357","USDCa(uint256)":"5265fedc"},"id":132}