{"abi":[{"type":"function","name":"USDC","inputs":[{"name":"tokenIn_","type":"address","internalType":"address"}],"outputs":[{"name":"","type":"bool","internalType":"bool"}],"stateMutability":"view"},{"type":"function","name":"USDCa","inputs":[{"name":"","type":"uint256","internalType":"uint256"}],"outputs":[{"name":"","type":"address","internalType":"address"}],"stateMutability":"view"}],"bytecode":{"object":"0x670f13fa15c8b434bc600055685aee9dbdc751e264006001556002805473a0b86991c6218b36c1d19d4a2e9eb0ce3606eb486001600160a01b0319918216811783556003805473fefc6baf87cf3684058d62da40ff3a795946ab0693168317905560c0604052608090815260a09190915261007d91600491906100d8565b50600580546001600160a01b031990811673c02aaa39b223fe8d0a0e5c4f27ead9083c756cc21790915560068054909116736b175474e89094c44da98b954eedeac495271d0f1790553480156100d257600080fd5b50610152565b82805482825590600052602060002090810192821561012d579160200282015b8281111561012d57825182546001600160a01b0319166001600160a01b039091161782556020909201916001909101906100f8565b5061013992915061013d565b5090565b5b80821115610139576000815560010161013e565b610262806101616000396000f3fe608060405234801561001057600080fd5b50600436106100365760003560e01c806333a7a3571461003b5780635265fedc14610063575b600080fd5b61004e6100493660046101a6565b61008e565b60405190151581526020015b60405180910390f35b6100766100713660046101d6565b610114565b6040516001600160a01b03909116815260200161005a565b6000806100fe8360048054806020026020016040519081016040528092919081815260200182805480156100eb57602002820191906000526020600020905b81546001600160a01b031681526001909101906020018083116100cd575b505050505061013e90919063ffffffff16565b121561010b57600061010e565b60015b92915050565b6004818154811061012457600080fd5b6000918252602090912001546001600160a01b0316905081565b8151600090815b8181101561019a57836001600160a01b0316858281518110610169576101696101ef565b60200260200101516001600160a01b03160361018857915061010e9050565b8061019281610205565b915050610145565b50600019949350505050565b6000602082840312156101b857600080fd5b81356001600160a01b03811681146101cf57600080fd5b9392505050565b6000602082840312156101e857600080fd5b5035919050565b634e487b7160e01b600052603260045260246000fd5b60006001820161022557634e487b7160e01b600052601160045260246000fd5b506001019056fea26469706673582212204b4cf9f220ef3a2aba39e886e61f684a456bfc9cbe67a5912c81a66da589803864736f6c63430008150033","linkReferences":{}},"methodIdentifiers":{"USDC(address)":"33a7a357","USDCa(uint256)":"5265fedc"},"id":131}